


  FPT0   BCD 05/28/67 2345.3    2832         00000
1            FAP                                                                                 PAGE 1

                       00010         ENTRY   (FPT)                                                       00020

        TRANSFER VECTOR
      00000  744326634434     (LFTM)
      00001  444665312534     MOVIE)
      00002  462321222360     OCABC
      00003  665126436760     WRFLX
      00004  255151465160     ERROR
      00005  256731636060     EXIT

            LINKAGE DIRECTOR
      00006  000000000000
      00007  742647633460

      00010  0604 00 0 00200   (FPT) STI     TMP                                                         00030
      00011  0441 00 0 00000         LDI     0                                                           00040
      00012 -0054 00  000004         LFT     4                                                           00050
      00013  0021 00 0 00022         TTR     OFLW                                                        00060
      00014 -0054 00  000002         LFT     2                                                           00070
 T    00015  0754 00 0 00000         PXA                                                                 00080
      00016 -0054 00  000001         LFT     1                                                           00090
      00017  0560 00 0 00203         LDQ     =0                                                          00100
      00020  0441 00 0 00200         LDI     TMP                                                         00110
      00021  0021 60 0 00000         TTR*    0                                                           00120
      00022  0634 00 1 00133   OFLW  SXA     EXT,1                                                       00130
      00023  0634 00 2 00134         SXA     EXT+1,2                                                     00140
      00024  0634 00 4 00202         SXA     XR4,4                                                       00150
      00025  0074 00 4 00000         TSX     $(LFTM),4                                                   00160
      00026 -0600 00 0 00173         STQ     MQ                                                          00170
      00027  0602 00 0 00172         SLW     P3435                                                       00180
      00030  0771 00 0 00002         ARS     2                                                           00190
      00031  0601 00 0 00171         STO     ACSQ                                                        00200
      00032 -0534 00 2 00000         LXD     0,2                                                         00210
      00033  0634 00 2 00176         SXA     T1,2                                                        00220
      00034  0534 00 2 00000         LXA     0,2                                                         00230
      00035  1 77777 2 00036         TXI     *+1,2,-1                                                    00240
      00036  0634 00 2 00177         SXA     T2,2                                                        00250
      00037 -0500 60 0 00001         CAL*    $MOVIE)       PICK UP COMP. OF                              00260
      00040  0737 00 1 00000         PAC     0,1           SIZE AND STARTING                             00270
      00041 -0737 00 2 00000         PDC     0,2           ADDRESS OF MOVIE TABLE..                      00280
      00042 -0634 00 1 00052         SXD     INC1,1        INITIALIZE FOR SCAN                           00290
      00043 -0634 00 1 00044         SXD     *+1,1         ENTRY POINT, ORIGIN                           00300
      00044  1 00000 2 00045         TXI     *+1,2,**      AND T.V. SIZE OF OFFENDER.                    00310
      00045  0500 00 2 77777  FIRST  CLA     -1,2          LOOK OUT FOR                                  00320
      00046 -0340 00 0 00177         LAS     T2            NEGATIVE ENTRY POINTS                         00330
      00047  0020 00 0 00054         TRA     TV            IF GREATER -- STOP                            00340
      00050  1 00002 2 00052         TXI     INC1,2,2                                                    00350
      00051  1 00002 2 00052         TXI     INC1,2,2                                                    00360
      00052 -3 00000 2 00045  INC1   TXL     FIRST,2,**    AND USE PREVIOUS ONE.                         00370
      00053  0020 00 0 00126         TRA     ERR                                                         00380
      00054  0441 00 2 00000  TV     LDI     0,2           GET WORD                                      00390
      00055  0054 00  777777         RFT     777777        IS THE ADDRESS = 0                            00400
      00056  1 77776 2 00054         TXI     TV,2,-2       NO, TRY AGAIN                                 00410
      00057 -0054 00  077777         LFT     77777         YES, IS THE DECREMENT = 0                     00420
      00060 -0051 00  700000         IIL     700000        NO, INVERT THE PREFIX                         00430
      00061 -0056 00  700000         LNT     700000        YES, IS IT TXL ( OR INVERTED PZE)             00440
1            FAP                                                                                 PAGE 2

      00062  1 77776 2 00054         TXI     TV,2,-2       NOT THE CORRECT CONFIGURATION, GO BACK        00450
      00063  0604 00 0 00201         STI     TVWORD        FINE, SAVE IT AND PROCEED (FORGRT PREFIX)     00460
      00064 -0500 00 2 00001         CAL     1,2           GOT ORIGIN                                    00470
      00065  0602 00 0 00174         SLW     ORIGIN        ALL DONE                                      00480
      00066 -0500 00 2 77776         CAL     -2,2          NAME OF ROUTINE IN MOVIE)                     00490
      00067  0534 00 1 00174         LXA     ORIGIN,1                                                    00500
      00070 -0534 00 2 00201         LXD     TVWORD,2      LOOK IN NAME-2                                00510
      00071 -0634 00 1 00072         SXD     *+1,1         IF THERE                                      00520
      00072  1 00000 2 00073         TXI     *+1,2,**      IS SOMETHING                                  00530
      00073  0100 00 0 00103         TZE     ISMAIN                                                      00540
      00074  0634 00 2 00144  GI4    SXA     IR4LOC,2                                                    00550
      00075  0535 00 1 00144         LAC     IR4LOC,1                                                    00560
      00076  0441 00 1 00001         LDI     1,1           LOOK AT 2 REGISTERS                           00570
      00077 -0054 00  700000         LFT     700000        IS IT  STORAGE SUBPROGRAM NAME OR             00580
      00100  0020 00 0 00105         TRA     I4-1          STORAGE FOR IR2.  MUST DISTINGUISH            00590
      00101  1 00002 2 00074         TXI     GI4,2,2       BETWEEN FAP AND FORTRAN SUBPROGRAMS           00600
      00102  0020 00 0 00105         TRA     I4-1                                                        00610
      00103  0621 00 0 00144  ISMAIN STA     IR4LOC        INDICATE MAIN TO ERROR                        00620
      00104  0441 00 0 00166         LDI     MAIN                                                        00630
      00105  0604 00 0 00162         STI     ENTRYN                                                      00640
      00106  0534 00 1 00177  I4     LXA     T2,1          GET READY                                     00650
      00107  0535 00 2 00174         LAC     ORIGIN,2      GET SET                                       00660
      00110 -0634 00 2 00111         SXD     *+1,2         GO                                            00670
      00111  1 00000 1 00112         TXI     *+1,1,**      ..                                            00680
      00112  0634 00 1 00175         SXA     RELORG,1                                                    00690
      00113  0074 00 4 00002         TSX     $OCABC,4                                                    00700
      00114  0 00000 0 00177         PZE     T2            CONVERT TO BCD                                00710
      00115  0601 00 0 00154         STO     FMT+5                                                       00720
      00116  0074 00 4 00002         TSX     $OCABC,4                                                    00730
      00117  0 00000 0 00175         PZE     RELORG                                                      00740
      00120  0601 00 0 00157         STO     FMT+8                                                       00750
      00121  0074 00 4 00002         TSX     $OCABC,4                                                    00760
      00122  0 00000 0 00176         PZE     T1                                                          00770
      00123  0601 00 0 00164         STO     FMT+13                                                      00780
      00124  0074 00 4 00003         TSX     $WRFLX,4                                                    00790
      00125  0 00016 0 00147                 FMT,,14                                                     00800
      00126 -0774 00 4 00142  ERR    AXC     IR4LOC-2,4                                                  00810
      00127 -0634 00 4 00006         SXD     (FPT)-2,4                                                   00820
      00130  0074 00 4 00004         TSX     $ERROR,4                                                    00830
      00131  0 00000 0 00145         PZE     ARG                                                         00840
      00132  0535 00 4 00177         LAC     T2,4          CONFUSE THE READER                            00850
      00133  0774 00 1 00000  EXT    AXT     **,1          AND EXIT                                      00860
      00134  0774 00 2 00000         AXT     **,2                                                        00870
      00135  0500 00 0 00171         CLA     ACSQ                                                        00880
      00136  0767 00 0 00002         ALS     2                                                           00890
      00137 -0501 00 0 00172         ORA     P3435                                                       00900
      00140  0560 00 0 00173         LDQ     MQ                                                          00910
      00141  0441 00 0 00200         LDI     TMP                                                         00920
      00142  0020 60 0 00005         TRA*    $EXIT                                                       00930
 TD   00143  1 00000 0 00145         TXI     *+2                                                         00940
      00144  0 00000 0 00000  IR4LOC PZE     **                                                          00950
                              *  *  *  *  *  *  *  *  *  *  *  *  *  *  *  *  *  *  *  *  *  *  *  *     00960
      00145  606060606060     ARG    BCI     1,            LET OLD ERROR SKIP ONE LINE                   00970
      00146 -377777777777            OCT     777777777777  FENCE FOR ERROR                               00980
      00147  602643464047     FMT    BCI     6, FLO-POINT OV-FLOW AT OCT LOC                             00990
      00150  463145636046
1            FAP                                                                                 PAGE 3

      00151  654026434666
      00152  602163604623
      00153  636043462360
      00154  606060606060
      00155  602122627360            BCI     6, ABS,    OR        REL, PROG                              01000
      00156  606060465160
      00157  606060606060
      00160  605125437360
      00161  475146276060
      00162  606060606060
      00163  606247314343            BCI     2, SPILL CODE                                               01010
      00164  602346242560
                              *  *  *  *  *  *  *  *  *  *  *  *  *  *  *  *  *  *  *  *  *  *  *  *     01020
                       00162  ENTRYN SYN     FMT+11                                                      01030
      00165 +056000000000     LDQOP  OCT     056000000000                                                01040
      00166  744421314534     MAIN   BCI     1,(MAIN)      INSTRUCTIONS SEARCHED FOR SXA OR SXD          01050
      00167 +000077777777     OPMASK OCT     000077777777                                                01060
      00170  0 00002 0 00000   TPE   PZE     0,0,2                                                       01070
      00171  0 00000 0 00000  ACSQ   PZE     0                                                           01080
      00172  0 00000 0 00000  P3435  PZE     0                                                           01090
      00173  0 00000 0 00000  MQ     PZE                   MQ ..                                         01100
      00174  0 00000 0 00000  ORIGIN PZE                   ORIGIN CORRESPONDING TO ENTRY POINT           01110
      00175  0 00000 0 00000  RELORG PZE                   LOCATION OF THE OFFENDING INSTRUCTION         01120
      00176  0 00000 0 00000  T1     PZE                   SPILL CODE                                    01130
      00177  0 00000 0 00000  T2     PZE                   LOCATION OF ERROR                             01140
      00200  0 00000 0 00000  TMP    PZE                   INDICATORS UPON ENTRY                         01150
      00201  0 00000 0 00000  TVWORD PZE                   TRANSFER VECTOR INFORMATION                   01160
      00202  0 00000 0 00000  XR4    PZE                                                                 01170
                                     END                                                                 01180

        LITERALS
      00203  000000000000
1            FAP                                                                                 PAGE 1
                        POST PROCESSOR ASSEMBLY DATA

        204 IS THE FIRST LOCATION NOT USED BY THIS PROGRAM

0REFERENCES TO DEFINED SYMBOLS
        106     I4   100,  102
        173     MQ    26,  140
        176     T1    33,  122
        177     T2    36,   46,  106,  114,  132
         54     TV    47,   56,   62
        145    ARG   131
        126    ERR    53
        133    EXT    22,   23
        147    FMT   115,  120,  123,  125,  165
         74    GI4   101
        200    TMP    10,   20,  141
        170    TPE
        202    XR4    24
        171   ACSQ    31,  135
          5   EXIT   142
         52   INC1    42,   50,   51
        166   MAIN   104
         22   OFLW    13
          4  ERROR   130
         45  FIRST    52
        165  LDQOP
          2  OCABC   113,  116,  121
        172  P3435    27,  137
          3  WRFLX   124
         10  (FPT)     0,  127
        162 ENTRYN   105,  165
        144 IR4LOC    74,   75,  103,  126
        103 ISMAIN    73
          1 MOVIE)    37
        167 OPMASK
        174 ORIGIN    65,   67,  107
        175 RELORG   112,  117
        201 TVWORD    63,   70
          0 (LFTM)    25

0 NO ERROR IN ABOVE ASSEMBLY.


  FREE   BCD 10/12/70 1350.3    3956         00000
1            FAP                                                                 09/05/69  031.3 PAGE 1

                              *      FAP
1            FAP                                                                 09/05/69  031.3 PAGE 2
                           FREE STORAGE PROGRAMS FOR TSLIB1


                                             BARRY L. WOLMAN
                                             ELECTRONIC SYSTEMS LABORATORY
                                             DECEMBER, 1964

                                             POINT = FREE ( SIZE )
                                                  RETURNS POINTER TO BEGINNING OF BLOCK
                                                  OF LENGTH SIZE.

                                             NEWMB = FRET ( SIZE, POINT )
                                                  RETURNS BLOCK POINT WITH GIVEN
                                                  SIZE TO FREE STORAGE.  IF NEWMB IS
                                                  NON-ZERO, THE MEMORY BOUND WAS REDUCED
                                                  AND NEWMB IS THE VALUE.

                                             IF THE BLOCK BEING RETURNED IS AT THE TOP OF MEMORY,
                                             THE MEMORY BOUND WILL BE RESET AND FRET WILL CHECK
                                             TO SEE IF THE LAST BLOCK ON THE FREE LAST CAN ALSO
                                             BE ELIMINATED BY A MEMORY BOUND RESET.  IF THE BLOCK
                                             BEING RETURNED DOES NOT FALL AT THE TOP OF MEMORY,
                                             IT IS ADDED TO A LIST OF FREE BLOCKS KEPT IN ORDER
                                             OF THEIR ABSOLUTE LOCATION.  'STRING' CONTAINS A
                                             DECREMENT POINTER TO THE FIRST BLOCK ON THE LIST,
                                             THE BLOCK POINTED TO CONTAINS ITS SIZE IN THE ADDRESS
                                             AND THE NEXT POINTER IN THE DECREMENT.  WHEN A BLOCK
                                             IS ADDED TO THE FREE LIST AN ATTEMPT IS MADE TO MERGE
                                             IT WITH THE BLOCKS BEFORE AND AFTER IN ORDER TO FORM
                                             ONE LARGE BLOCK.  THE FREE LIST IS CHECKED BY FREE WHICH
                                             WILL SPLIT A BLOCK IN PREFERENCE TO EXTENDING THE MEMORY
                                             BOUND.

                                             WHEN A BLOCK OF STORAGE IS RETURNED ITS LOCATION IS
                                             CHECKED.  IF THE BLOCK OVERLAPS THE MEMORY BOUND OR ANY
                                             OF THE BLOCKS ALREADY RETURNED, A COMMENT IS PRINTED
                                             AND EXIT IS CALLED.  SIMILARLY, FREE CALLS EXIT WHEN
                                             FREE STORAGE IS EXHAUSTED.

                                             IF ALL FREE STORAGE OBTAINED DURING EXECUTION IS EVEN-
                                             TUALLY RETURNED, THE MEMORY BOUND WILL BE BACK AT ITS
                                             ORIGINAL VALUE


  BINARY CARD NO. FREE0000
                       00010         ENTRY   FREE
                       00006         ENTRY   FRER          FREE, ALLOWING ERROR RETURN WITH AC = 0
                       00071         ENTRY   FRET

                                     EXTERN  SETMEM,GETMEM,EXIT,WRFLX


        TRANSFER VECTOR
      00000  622563442544     SETMEM
      00001  272563442544     GETMEM
      00002  256731636060     EXIT
1            FAP                                                                 09/05/69  031.3 PAGE 3
                           FREE STORAGE PROGRAMS FOR TSLIB1

      00003  665126436760     WRFLX

            LINKAGE DIRECTOR
      00004  000000000000
      00005  265125256060

      00006  0600 00 0 00272  FRER   STZ     ERRSW         SET RETURN-ON-ERROR SWITCH
      00007  0020 00 0 00011         TRA     FREE+1
      00010 -0625 00 0 00272  FREE   STL     ERRSW         RESET ERROR SWITCH
      00011  0500 60 4 00001         CLA*    1,4           GET SIZE OF REGION
      00012  0100 00 4 00002         TZE     2,4           EXIT IF REGION SIZE IS ZERO
      00013  0601 00 0 00264         STO     NUM           SAVE NUMBER WANTED
      00014  0634 00 4 00055         SXA     FREX4,4       SAVE INDEX REGISTER 4
      00015  0774 00 4 00270         AXT     STRING,4      INITIALIZE PREV FOR STRING SEARCH
      00016  0634 00 4 00267         SXA     PREV,4        ..
      00017 -0535 00 4 00270         LDC     STRING,4      GET POINTER TO START OF STRING
      00020 -3 00000 4 00045  CHECK  TXL     EXTEND,4,0    ZERO MEANS END OF STRING
      00021  0500 00 4 00000         CLA     ,4            GET NEXT ITEM ON FREE STRING
      00022  0636 00 4 00263         SCA     RESULT,4      X4 CONTAINS POINTER TO POSSIBLE BLOCK
                                                           SO SAVE THE POINTER
      00023 -0320 00 0 00273         ANA     =O77777       LOOK ONLY AT ADDRESS ( NUMBER )
      00024  0402 00 0 00264         SUB     NUM           COMPARE WITH NUMBER WE WANT
      00025  0100 00 0 00033         TZE     OKSAME        ZERO MEANS WE HAVE EXACT BLOCK
      00026  0120 00 0 00042         TPL     OK            PLUS MEANS BLOCK IS LARGER THAN WHAT WE WAN
      00027  0636 00 4 00267         SCA     PREV,4        SAVE POINTER, WILL BE PREVIOUS ON LIST
      00030  0500 00 4 00000         CLA     ,4            GET POINTER TO NEXT ON LIST
      00031 -0737 00 4 00000         PDC     ,4            FROM THE DECREMENT
      00032  0020 00 0 00020         TRA     CHECK         AND GO CHECK NEXT ON LIST
      00033  0500 00 4 00000  OKSAME CLA     ,4            WE WILL REMOVE BLOCK FROM LIST
      00034  0622 60 0 00267         STD*    PREV          BY SETTING NEXT OF PREV TO NEXT OF RESULT
      00035 -0737 00 4 00000         PDC     ,4            TEST NEXT POINTER
      00036  3 00000 4 00054         TXH     LEAVE,4,0     FOR ZERO, MEANING END OF STRING
      00037  0500 00 0 00267         CLA     PREV          END OF STRING REMOVED, SET NEW END
      00040  0621 00 0 00271         STA     LAST          ..
      00041  0020 00 0 00054         TRA     LEAVE         GO RETURN FROM FREE
      00042  0621 00 4 00000  OK     STA     ,4            SAVE DIFFERENCE AS NEW COUNT OF BLOCK
      00043  0400 00 0 00263         ADD     RESULT        FORM ADDRESS OF FOLLOWING BLOCK
      00044  0020 00 0 00055         TRA     LEAVE+1       AND USE THAT AS RESULT, GO EXIT
      00045  0074 00 4 00001  EXTEND TSX     GETMEM,4      MUST EXTEND MB, SO GET MB
      00046  0601 00 0 00263         STO     RESULT        AND SET RESULT
      00047  0400 00 0 00264         ADD     NUM           ADD NUMBER WE WANT
      00050  0340 00 0 00273         CAS     =O77777       CHECK UPPER LIMIT
      00051  0020 00 0 00057         TRA     TOOBAD        LIMIT EXCEEDED, SO SORRY
      00052  0020 00 0 00053         TRA     *+1           LIMIT HIT, OK TO SET MEMORY BOUND
      00053  0074 00 4 00000         TSX     SETMEM,4      SET THE NEW MEMORY BOUND
      00054  0500 00 0 00263  LEAVE  CLA     RESULT        GET POINTER TO BLOCK
      00055  0774 00 4 00000  FREX4  AXT     **,4          RESTORE INDEX REGISTER 4
      00056  0020 00 4 00002         TRA     2,4           RETURN TO CALLER
      00057  0500 00 0 00264  TOOBAD CLA     NUM           CONVERT SIZE TO OCTAL
      00060  0074 00 4 00231         TSX     OCTAL,4       ..
      00061  0602 00 0 00243         SLW     MESS          SAVE IN ERROR MESSAGE
      00062  0074 00 4 00003         TSX     WRFLX,4       PRINT THE ERROR MESSAGE
      00063 -0 00010 0 00243         MZE     MESS,,8       ..
      00064  0500 00 0 00272         CLA     ERRSW         DID CALLER WANT CONTROL RETURNED ON ERROR
      00065  0100 00 0 00055         TZE     FREX4         .. YES   EXIT WITH AC = 0
1            FAP                                                                 09/05/69  031.3 PAGE 4
                           FREE STORAGE PROGRAMS FOR TSLIB1

      00066  0535 00 4 00055         LAC     FREX4,4       GET TRUE LOCATION OF CALL TO FREE
      00067  0754 00 4 00000  ERRXIT PXA     ,4            AND PUT IT IN AC
      00070  0074 00 4 00002         TSX     EXIT,4        THEN CALL EXIT
1            FAP                                                                 09/05/69  031.3 PAGE 5
                           FREE STORAGE PROGRAMS FOR TSLIB1

      00071  0634 00 4 00141  FRET   SXA     FRERTN,4      SAVE INDEX REGISTER 4
      00072  0500 60 4 00001         CLA*    1,4           GET SIZE OF BLOCK BEING RETURNED
      00073  0100 00 4 00003         TZE     3,4           EXIT IF SIZE IS ZERO
      00074  0601 00 0 00264         STO     NUM           SAVE SIZE OF BLOCK
      00075  0074 00 4 00231         TSX     OCTAL,4       CONVERT TO OCTAL
      00076  0602 00 0 00262         SLW     ERRMES+7      SAVE IN ERROR MESSAGE IN CASE NEEDED
      00077  0534 00 4 00141         LXA     FRERTN,4      RESTORE INDEX 4
      00100  0500 60 4 00002         CLA*    2,4           GET POINTER TO BLOCK BEING RETURNED
      00101  0601 00 0 00266         STO     WHAT          SAVE POINTER
      00102  0074 00 4 00231         TSX     OCTAL,4       CONVERT TO OCTAL
      00103  0602 00 0 00260         SLW     ERRMES+5      SAVE IN ERROR MESSAGE IN CASE NEEDED
                       00104  RETURN SYN     *
      00104  0074 00 4 00001         TSX     GETMEM,4      GET THE MEMORY BOUND
      00105  0402 00 0 00266         SUB     WHAT          SUBTRACT BEGINNING OF BLOCK
      00106 -0120 00 0 00225         TMI     ERROR         MINUS MEANS BLOCK ABOVE MB, ERROR
      00107  0402 00 0 00264         SUB     NUM           SUBTRACT NUMBER IN BLOCK
      00110 -0120 00 0 00225         TMI     ERROR         MINUS MEANS BLOCK EXTENDS ABOVE MB
      00111 -0100 00 0 00143         TNZ     LONG          DIFFERENT MEANS WE CANNOT RESET MEMORY BOUN
      00112  0535 00 4 00271         LAC     LAST,4        GET POINTER TO HIGHEST BLOCK ON STRING
      00113  0756 00 4 00000         PCA     ,4            ADDRESS OF BLOCK TO AC
      00114  0401 00 4 00000         ADM     ,4            ADD SIZE OF BLOCK TO GET UPPER BOUND
      00115 -0320 00 0 00273         ANA     =O77777       CONSIDER ONLY ADDRESS
      00116  0402 00 0 00266         SUB     WHAT          COMPARE WITH CURRENT MEMORY BOUND
      00117 -0100 00 0 00137         TNZ     RESET         CAN'T THROW THIS BLOCK AWAY IF NON-ZERO
      00120  0636 00 4 00266         SCA     WHAT,4        SET NEW MEMORY BOUND
      00121  0774 00 4 00270         AXT     STRING,4      INITIALIZE PREV FOR STRING SEARCH
      00122  0634 00 4 00267         SXA     PREV,4        ..
      00123 -0535 00 4 00270         LDC     STRING,4      SEARCH STRING FOR LAST ELEMENT
      00124  0756 00 4 00000  REMOVE PCA     ,4            ADDRESS OF BLOCK TO AC
      00125  0402 00 0 00271         SUB     LAST          COMPARE WITH BLOCK WE'RE LOOKING FOR
      00126  0100 00 0 00133         TZE     NEWLST        ZERO MEANS WE FOUND IT
      00127  0636 00 4 00267         SCA     PREV,4        SAVE POINTER
      00130  0500 00 4 00000         CLA     ,4            GET POINTER TO NEXT
      00131 -0737 00 4 00000         PDC     ,4            FROM DECREMENT OF THIS REGISTER
      00132  0020 00 0 00124         TRA     REMOVE        AND CONTINUE LOOKING
      00133  0500 00 0 00267  NEWLST CLA     PREV          PREVIOUS BLOCK BECOMES LAST
      00134  0621 00 0 00271         STA     LAST          ..
      00135 -0754 00 0 00000         ZAC                   REMOVE LAST BLOCK FROM STRING
      00136  0622 60 0 00267         STD*    PREV          ..
      00137  0500 00 0 00266  RESET  CLA     WHAT          GET NEW VALUE FOR MEMORY BOUND
      00140  0074 00 4 00000         TSX     SETMEM,4      AND SET THE MEMORY BOUND
      00141  0774 00 4 00000  FRERTN AXT     **,4          RESTORE INDEX REGISTER 4
      00142  0020 00 4 00003         TRA     3,4           EXIT WITH NEW MB IN AC
      00143  0774 00 4 00270  LONG   AXT     STRING,4      INITIALIZE PREV FOR STRING SEARCH
      00144  0634 00 4 00267         SXA     PREV,4        ..
      00145  0600 60 0 00266         STZ*    WHAT          CLEAR REGISTER BEING RETURNED
      00146 -0535 00 4 00270         LDC     STRING,4      GET POINTER TO NEXT ON STRING
      00147 -3 00000 4 00160  LOOK   TXL     INSERT,4,0    ZERO MEANS END OF STRING
      00150  0756 00 4 00000         PCA     ,4            PUT ADDRESS OF BLOCK IN AC
      00151  0340 00 0 00266         CAS     WHAT          COMPARE WITH BLOCK WE ARE RETURNING
      00152  0020 00 0 00160         TRA     INSERT        GO INSERT BLOCK AT THIS POINT
      00153  0020 00 0 00225         TRA     ERROR         BLOCK ALREADY ON LIST, ERROR
      00154  0636 00 4 00267         SCA     PREV,4        SAVE POINTER
      00155  0500 00 4 00000         CLA     ,4            GET POINTER TO NEXT REGISTER
      00156 -0737 00 4 00000         PDC     ,4            FROM DECREMENT OF THIS ONE
1            FAP                                                                 09/05/69  031.3 PAGE 6
                           FREE STORAGE PROGRAMS FOR TSLIB1

      00157  0020 00 0 00147         TRA     LOOK          KEEP LOOKING
      00160 -0756 00 4 00000  INSERT PCD     ,4            GET UNCOMPLEMENTED X4 IN AC
      00161  0622 60 0 00266         STD*    WHAT          SET NEXT COMPONENT OF BLOCK RETURNED
      00162  0534 00 4 00266         LXA     WHAT,4        GET ADDRESS OF BLOCK BEING RETURNED
      00163 -0754 00 4 00000         PXD     ,4            IN DECREMENT OF AC
      00164  0622 60 0 00267         STD*    PREV          AND MAKE NEW BLOCK NEXT OF PREVIOUS
      00165  0500 00 0 00264         CLA     NUM           GET SIZE OF BLOCK
      00166  0621 60 0 00266         STA*    WHAT          SAVE SIZE IN STRING WORD
      00167  0600 00 0 00265         STZ     DIFF          RESET SWITCH
      00170  0500 60 0 00267  MERGE  CLA*    PREV          GET PREVIOUS BLOCK WITH COUNT
      00171  0401 00 0 00267         ADM     PREV          ADD THE ADDRESS OF THE BLOCK
      00172 -0320 00 0 00273         ANA     =O77777       CONSIDER ONLY ADDRESS PORTION
      00173  0340 00 0 00266         CAS     WHAT          COMPARE WITH ADDRESS OF BLOCK AHEAD
      00174  0020 00 0 00225         TRA     ERROR         BLOCKS OVERLAP, ERROR
      00175  0020 00 0 00177         TRA     *+2           CAN MERGE BLOCKS
      00176  0020 00 0 00205         TRA     NOCOMP        CANNOT MERGE BLOCKS
      00177  0500 60 0 00267         CLA*    PREV          GET COUNT OF FIRST BLOCK
      00200  0401 00 0 00264         ADM     NUM           ADD SIZE OF NEXT BLOCK
      00201  0621 60 0 00267         STA*    PREV          SAVE AS NEW SIZE OF FIRST BLOCK
      00202  0500 60 0 00266         CLA*    WHAT          REMOVE SECOND BLOCK FROM STRING
      00203  0622 60 0 00267         STD*    PREV          ..
      00204  0020 00 0 00210         TRA     TESNEX        IN THIS CASE DON'T UPDATE PREV
      00205  0500 00 0 00266  NOCOMP CLA     WHAT          UPDATE PREV TO BE NEXT
      00206  0601 00 0 00267         STO     PREV          ..
      00207  0500 60 0 00267         CLA*    PREV          GET POINTER TO NEXT AFTER PREV
                       00210  TESNEX SYN     *
      00210 -0737 00 4 00000         PDC     ,4            GET POINTER TO NEXT FROM DECREMENT
      00211 -3 00000 4 00221         TXL     SETLST,4,0    ZERO MEANS NEW LAST FOUND
      00212  0520 00 0 00265         ZET     DIFF          IS THIS FIRST OR SECOND TIME
      00213  0020 00 0 00223         TRA     MERDON        SECOND, SO SKIP
      00214 -0625 00 0 00265         STL     DIFF          SET SWITCH FOR NEXT TIME
      00215  0636 00 4 00266         SCA     WHAT,4        THIS ADDRESS BECOMES WHAT
      00216  0500 00 4 00000         CLA     ,4            GET COUNT
      00217  0621 00 0 00264         STA     NUM           AND ADDRESS PORTION BECOMES NUM
      00220  0020 00 0 00170         TRA     MERGE         GO TRY SECOND MERGER
      00221  0500 00 0 00267  SETLST CLA     PREV          SET NEW VALUE OF LAST
      00222  0621 00 0 00271         STA     LAST          ..
                       00223  MERDON SYN     *
      00223 -0754 00 0 00000         ZAC                   CLEAR THE AC SINCE MB WAS NOT RESET
      00224  0020 00 0 00141         TRA     FRERTN        AND GO EXIT FROM FRET
      00225  0074 00 4 00003  ERROR  TSX     WRFLX,4       WRITE ERROR MESSAGE
      00226 -0 00010 0 00253         MZE     ERRMES,,8     ..
      00227  0535 00 4 00141         LAC     FRERTN,4      RESTORE RETURN
      00230  0020 00 0 00067         TRA     ERRXIT        TAKE ERROR EXIT
      00231  0634 00 4 00241  OCTAL  SXA     OCTXIT,4      SAVE RETURN
      00232 -0765 00 0 00017         LGR     15            SHIFT NUMBER TO MQ
      00233 -0754 00 0 00000         ZAC                   CLEAR THE AC
      00234  0774 00 4 00005         AXT     5,4           SET FOR 5 DIGITS
      00235  0767 00 0 00003         ALS     3             PERFORM CONVERSION
      00236 -0763 00 0 00003         LGL     3             ..
      00237  2 00001 4 00235         TIX     *-2,4,1       REPEAT LOOP
      00240 -0501 00 0 00274         ORA     =H 00000      INSERT LEADING BLANK
      00241  0774 00 4 00000  OCTXIT AXT     **,4          RESTORE INDEX
      00242  0020 00 4 00001         TRA     1,4           RETURN
1            FAP                                                                 09/05/69  031.3 PAGE 7
                           FREE STORAGE PROGRAMS FOR TSLIB1

                                             VARIABLES, CONSTANTS

      00243  545454545454     MESS   BCI     8,****** LOCATIONS OF FREE STORAGE ARE UNAVAILABLE.
      00244  604346232163
      00245  314645626046
      00246  266026512525
      00247  606263465121
      00250  272560215125
      00251  606445216521
      00252  314321224325
      00253  545431434325     ERRMES BCI     8,**ILLEGAL CALL OF FRET, BLOCK ****** SIZE ******
      00254  272143602321
      00255  434360462660
      00256  265125637360
      00257  224346234260
      00260  545454545454
      00261  606231712560
      00262  545454545454
      00263  0 00000 0 00000  RESULT
      00264  0 00000 0 00000  NUM
      00265  0 00000 0 00000  DIFF
      00266  0 00000 0 00000  WHAT
      00267  0 00000 0 00000  PREV
      00270  0 00000 0 00000  STRING PZE     ,,0           POINTER TO BEGINNING OF FREE STRING
      00271  0 00000 0 00000  LAST   PZE                   POINTER TO LAST ON STRING
      00272                   ERRSW  BSS     1             RETURN-ON-ERROR SWITCH
                                     END

        LITERALS
      00273  000000077777
      00274  600000000000
1            FAP                                                                 09/05/69  031.3 PAGE 1
                        POST PROCESSOR ASSEMBLY DATA

        275 IS THE FIRST LOCATION NOT USED BY THIS PROGRAM

0REFERENCES TO DEFINED SYMBOLS
         42     OK    26
        264    NUM    13,   24,   47,   57,   74,  107,  165,  200,  217
        265   DIFF   167,  212,  214
          2   EXIT    70
         10   FREE     0,    7
          6   FRER     0
         71   FRET     0
        271   LAST    40,  112,  125,  134,  222
        143   LONG   111
        147   LOOK   157
        243   MESS    61,   63
        267   PREV    16,   27,   34,   37,  122,  127,  133,  136,  144,  154,  164,  170,  171,  177,  201,  203,  206
                     207,  221
        266   WHAT   101,  105,  116,  120,  137,  145,  151,  161,  162,  166,  173,  202,  205,  215
         20  CHECK    32
        225  ERROR   106,  110,  153,  174
        272  ERRSW     6,   10,   64
         55  FREX4    14,   65,   66
         54  LEAVE    36,   41,   44
        170  MERGE   220
        231  OCTAL    60,   75,  102
        137  RESET   117
          3  WRFLX    62,  225
        253 ERRMES    76,  103,  226
         67 ERRXIT   230
         45 EXTEND    20
        141 FRERTN    71,   77,  224,  227
          1 GETMEM    45,  104
        160 INSERT   147,  152
        223 MERDON   213,  223
        133 NEWLST   126
        205 NOCOMP   176
        241 OCTXIT   231
         33 OKSAME    25
        124 REMOVE   132
        263 RESULT    22,   43,   46,   54
        104 RETURN   104
        221 SETLST   211
          0 SETMEM    53,  140
        270 STRING    15,   17,  121,  123,  143,  146
        210 TESNEX   204,  210
         57 TOOBAD    51

0 NO ERROR IN ABOVE ASSEMBLY.


  FSTA   BCD 05/28/67 2345.3     741         00000
1            FAP                                                                                 PAGE 1

                              * FOR TIME SHARING MODULAR VERSION.     LP   FEB 64
                                             X = FSTAT.(FILNAM)
                                             RETURNS 0 IF FILE NOT THERE OR OPEN FOR WRITING ONLY
                                             RETURNS MODE, MODULE NO., EST. WORD COUNT, IN AC(S-35)
                                             NAMES SET BY VECTOR VALUES, OR BY 'SETNAM'.
                                             VECTOR VALUES NAMES=$  ALFA  BETA$
                                             CALL SETNAM (NAMES, 12H  ALFA  BETA)


  BINARY CARD NO. FSTAT000
                       00004         ENTRY   FSTAT


        TRANSFER VECTOR

  BINARY CARD NO. FSTAT001
      00000  274521446060     GNAM
      00001  266263216325     FSTATE

            LINKAGE DIRECTOR
      00002  000000000000
      00003  266263216360

                       00002  X4     SYN     *-2

                       00004  FSTAT  SYN     *
      00004 -0634 00 4 00002         SXD     X4,4
      00005  0604 00 0 00043         STI     INDIC         SAVE INDICATORS
      00006  0074 00 4 00000         TSX     $GNAM,4
      00007  0 00000 0 00002         PZE     X4
      00010  0 00000 0 00036         PZE     FILNAM
      00011  0074 00 4 00001         TSX     $FSTATE,4
      00012  3 00000 0 00036         PTH     FILNAM
      00013  3 00000 0 00037         PTH     FILNAM+1
      00014  3 00003 0 00040         PTH     E,,3
      00015  3 00000 0 00034         PTH     ERR
      00016  0500 00 0 00042         CLA     E+2
      00017  0402 00 0 00044         SUB     =3            TRA IF OPEN FOR WRITING ONLY
      00020  0100 00 0 00034         TZE     ERR
      00021 -0500 00 0 00045         CAL     =O100000000000
      00022  0441 00 0 00041         LDI     E+1
      00023  0054 00  000001         RFT     1

  BINARY CARD NO. FSTAT002
      00024 -0754 00 0 00000         PXD     ,0            ZERO IF TEMPORARY
      00025  0054 00  000104         RFT     104
      00026 -0500 00 0 00046         CAL     =O200000000000 -VE IF PROT AND/OR READ ONLY
      00027  0630 00 0 00040         STP     E
      00030  0500 00 0 00040         CLA     E
      00031 -0534 00 4 00002  H      LXD     X4,4
      00032  0441 00 0 00043         LDI     INDIC         RESTORE INDICATORS
      00033  0020 00 4 00002         TRA     2,4
      00034 -0754 00 0 00000  ERR    ZAC
      00035  0020 00 0 00031         TRA     H
      00036                   FILNAM BSS     2
1            FAP                                                                                 PAGE 2

      00040                   E      BSS     3

  BINARY CARD NO. FSTAT003
      00043  0 00000 0 00000  INDIC  PZE
                                     END

        LITERALS
      00044  000000000003
      00045  100000000000
      00046  200000000000
1            FAP                                                                                 PAGE 1
                        POST PROCESSOR ASSEMBLY DATA

         47 IS THE FIRST LOCATION NOT USED BY THIS PROGRAM

0REFERENCES TO DEFINED SYMBOLS
         40      E    14,   16,   22,   27,   30
         31      H    35
          2     X4     4,    7,   31
         34    ERR    15,   20
          0   GNAM     6
          4  FSTAT     0,    4
         43  INDIC     5,   32
         36 FILNAM    10,   12,   13
          1 FSTATE    11

0 NO ERROR IN ABOVE ASSEMBLY.


  FSTT   BCD 06/25/69 2042.2     135         00000
1                                                                                                PAGE 1

                       00000         ENTRY   FSTATE
      00000  0101 00 0 00001  FSTATE TIA     =HFSTATE
                                     END

        LITERALS
      00001  266263216325
1                                                                                                PAGE 1
                        POST PROCESSOR ASSEMBLY DATA

          2 IS THE FIRST LOCATION NOT USED BY THIS PROGRAM

0REFERENCES TO DEFINED SYMBOLS
          0 FSTATE     0

0 NO ERROR IN ABOVE ASSEMBLY.


  GAC0   BCD 06/25/69 2042.2    1083         00000
1       SNATCH AND GAC - GET ALL OF COMMON, EXAMINE BY SYMBOL                    06/21/69 1828.8 PAGE 1

                              *
                              * THVV 12/67
                              *
                              *      SNATCH.               GETS ALL OF CORE A COMMON INTO A BUFFER
                              *
                              *      CONT = GAC.($SYMBOL$, -OFFSET-) PICKS UP ONE ITEM
                              *
                       00004         ENTRY   SNATCH
                       00031         ENTRY   GAC

                                     UNLIST
 M                            CALL   MACRON  NAME,LIST     SUBROUTINE CALL MACRO
 M                            SAVE   MACRO   ID,LIST       SAVE BASIC MACHINE CONDITIONS

                                     EXTERN  GETMEM,SETMEM,GETLOC

      00004  0634 00 4 00027  SNATCH SXA     X4,4           SAVE INDEX 4

      00005  0020 00 0 00006         TRA     *+1            PROGRAM SWITCH
      00006                          CALL    $COMLOC(=HEMCOND) GET LOCATION OF BOOTOM OF COMMON
      00010  0621 00 0 00025         STA     BOT            SAVE IN CALL TO GETLOC
      00011 -0500 00 0 00070         CAL     TOP            COMPUTE LENGTH OF COMMON
      00012  0402 00 0 00025         SUB     BOT            ..
      00013  0621 00 0 00066         STA     NWORDS         ..
      00014  0734 00 4 00000         PAX     ,4             ..
      00015 -0634 00 4 00025         SXD     BOT,4          NO. OF  WORDS IN CALL TO GETLOC

      00016                          CALL    GETMEM         GET CORE BUFFER FOR CONTENTS
      00017  0621 00 0 00026         STA     BUF            SECOND ARG TO GETLOC
      00020  0400 00 0 00066         ADD     NWORDS         COMPUTE NEW MEMBND
      00021  0621 00 0 00067         STA     NEWMB          ..
      00022                          CALL    SETMEM         AND SET IT
      00023 -0625 00 0 00005         STL     SNATCH+1       CLOSE THIS PATH

      00024                          CALL    GETLOC         GET ALL OF COMMON
      00025  0 00000 0 00000  BOT    PZE     **,,**
      00026  0 00000 0 00000  BUF    PZE     **

      00027  0774 00 4 00000  X4     AXT     **,4           RESTORE X4
      00030  0020 00 4 00001         TRA     1,4            AND GO

      00031  0634 00 4 00027  GAC    SXA     X4,4           SAVE X4
      00032 -0500 00 4 00001         CAL     1,4            GET POINTER TO SYMBOL
      00033  0602 00 0 00035         SLW     *+2            SET UP CALL
      00034                          CALL    $COMLOC(**)   GET LOCATION IN CORE A
      00036  0621 00 0 00064         STA     ADDR           AND SAVE IT
      00037  0100 00 0 00027         TZE     X4             IF NOT FOUND, QUIT.

      00040  0534 00 4 00027         LXA     X4,4           CHECK FOR SECOND ARG.
      00041 -0500 00 4 00002         CAL     2,4            ..
      00042  0771 00 0 00022         ARS     18             ..
      00043  0402 00 0 00071         SUB     =O300000       ..
      00044 -0100 00 0 00050         TNZ     GO             GO IF NO OFFSET
      00045 -0500 60 4 00002         CAL*    2,4            GET OFFSET
      00046  0400 00 0 00064         ADD     ADDR           ..
      00047  0621 00 0 00064         STA     ADDR           ..
1       SNATCH AND GAC - GET ALL OF COMMON, EXAMINE BY SYMBOL                    06/21/69 1828.8 PAGE 2

      00050 -0500 00 0 00070  GO     CAL     TOP            NOW RELOCATE TO CORE-B ADDRESS
      00051  0402 00 0 00064         SUB     ADDR           ..
      00052  0621 00 0 00065         STA     TEMP
      00053  0402 00 0 00066         SUB     NWORDS         CHECK BOUNDS
      00054 -0120 00 0 00057         TMI     *+3            MINUS IS OK
      00055 -0754 00 0 00000         ZAC                    BAD BAD
      00056  0020 00 4 00001         TRA     1,4            GO AWAY
      00057 -0500 00 0 00067         CAL     NEWMB          THIS SHOULD HAVE 'ENBWD'
      00060  0402 00 0 00065         SUB     TEMP           ..
      00061  0621 00 0 00062         STA     *+1            STICK IN INSTRUCTION

      00062  0500 00 0 00000         CLA     **             THIS TO GET THE CONTENTS IN SIGNED AC
      00063  0020 00 4 00001         TRA     1,4            ALL DONE.

      00064  0 00000 0 00000  ADDR
      00065  0 00000 0 00000  TEMP
      00066  0 00000 0 00000  NWORDS
      00067  0 00000 0 00000  NEWMB
      00070  0 00000 0 77777  TOP    PZE     -1,0,0

                                     END

        LITERALS
      00071  000000300000
      00072  254423464524
1       SNATCH AND GAC - GET ALL OF COMMON, EXAMINE BY SYMBOL                    06/21/69 1828.8 PAGE 1
                        POST PROCESSOR ASSEMBLY DATA

         73 IS THE FIRST LOCATION NOT USED BY THIS PROGRAM

0REFERENCES TO DEFINED SYMBOLS
         50     GO    44
         27     X4     4,   31,   37,   40
         25    BOT    10,   12,   15
         26    BUF    17
         31    GAC     0
         70    TOP    11,   50
         64   ADDR    36,   46,   47,   51
         65   TEMP    52,   60
         67  NEWMB    21,   57
          3 COMLOC     6,   34
          2 GETLOC    24
          0 GETMEM    16
         66 NWORDS    13,   20,   53
          1 SETMEM    22
          4 SNATCH     0,   23

0 NO ERROR IN ABOVE ASSEMBLY.


  GBLP   BCD 06/25/69 2042.2     166         00000
1     FAP ASSEMBLY LISTING  ...  ...  ...        FILE GETBLP _____FAP___         06/21/69 1701.0 PAGE 1

                       00000         ENTRY   GETBLP
                       00001         ENTRY   SETBLP
      00000  0101 00 0 00002  GETBLP TIA     =HGETBLP
      00001  0101 00 0 00003  SETBLP TIA     =HSETBLP
                                     END

        LITERALS
      00002  272563224347
      00003  622563224347
1     FAP ASSEMBLY LISTING  ...  ...  ...        FILE GETBLP _____FAP___         06/21/69 1701.0 PAGE 1
                        POST PROCESSOR ASSEMBLY DATA

          4 IS THE FIRST LOCATION NOT USED BY THIS PROGRAM

0REFERENCES TO DEFINED SYMBOLS
          0 GETBLP     0
          1 SETBLP     0

0 NO ERROR IN ABOVE ASSEMBLY.


  GBUF   BCD 06/25/69 2042.2     607         00000
1            ROUTINE TO GET A BUFFER AREA BY EXPANDING MEMORY BOUND              06/21/69 1839.0 PAGE 1
                           D.R. WIDRIG  JUNE 1966

                       00004         ENTRY   GETBUF        GET A BUFFER

                                     EXTERN  GETMEM,SETMEM

                                             CALLING SEQUENCE IS..  GETBUF.(BUFF,N)
                                             UPON RETURN, THE CALLER MAY USE THE
                                             AREA BY STATEMENTS OF THE FORM..  X = BUFF(BUFF+I)
                                             WHERE THE I'TH ELEMENT IS INTENDED

        TRANSFER VECTOR
      00000  272563442544     GETMEM
      00001  622563442544     SETMEM

            LINKAGE DIRECTOR
      00002  000000000000
      00003  272563226426

      00004  0636 00 4 00024  GETBUF SCA     X4,4          SAVE LINKAGE
      00005  0634 00 1 00025         SXA     X1,1          AND IR1
      00006  0535 00 1 00024         LAC     X4,1          SET IR1 TO IR4 (THE CALLER)

      00007  0074 00 4 00000         TSX     GETMEM,4      GET CURRENT MEMORY BOUND
      00010  0601 00 0 00027         STO     OLDMEM        SAVE OLD MEMORY BOUND
      00011  0400 60 1 00002         ADD*    2,1           ALLOW FOR USER'S DEMAND
      00012  0734 00 4 00000         PAX     0,4           SAVE COMPLEMENT OF THIS VALUE
      00013 -0636 00 4 00020         SCD     TXI,4         ..
      00014  0400 00 0 00030         ADD     =1            ALLOW FOR BUFF(0)
      00015  0074 00 4 00001         TSX     SETMEM,4      RAISE THE ROOF

      00016 -0500 00 1 00001         CAL     1,1           GET BASE POINTER
      00017  0734 00 4 00000         PAX     0,4           ..
      00020  1 00000 4 00021  TXI    TXI     *+1,4,**      DECREMENT BY AMOUNT OF STORAGE
      00021  0754 00 4 00000         PXA     0,4           SET THIS VALUE IN USER'S PROGRAM
      00022  0602 60 1 00001         SLW*    1,1           ..
      00023  0500 00 0 00027         CLA     OLDMEM        RETURN OLD MEMORY BOUND

      00024 -0774 00 4 00000  X4     AXC     **,4          RESTORE LINKAGE
      00025  0774 00 1 00000  X1     AXT     **,1          AND IR1
      00026  0020 00 4 00003         TRA     3,4           RETURN

      00027                   OLDMEM BSS     1             STORAGE FOR OLD MEMORY BOUND

                                     END

        LITERALS
      00030  000000000001
1            ROUTINE TO GET A BUFFER AREA BY EXPANDING MEMORY BOUND              06/21/69 1839.0 PAGE 1
                        POST PROCESSOR ASSEMBLY DATA

         31 IS THE FIRST LOCATION NOT USED BY THIS PROGRAM

0REFERENCES TO DEFINED SYMBOLS
         25     X1     5
         24     X4     4,    6
         20    TXI    13
          4 GETBUF     0
          0 GETMEM     7
         27 OLDMEM    10,   23
          1 SETMEM    15

0 NO ERROR IN ABOVE ASSEMBLY.


  GCLC   BCD 05/28/67 2345.3    1997         00000
1            FAP                                                                                 PAGE 1

                              *      GCLC    ARG1 = COMMAND LIST COUNTER, ARG2 = LAST COMMAND NUMBER
                              *      GCLS    ARG1 = LIST, ARG2 = NUMBER OF  COMMAND
                              *      SCLC    ARG1 = COMMAND LIST COUNTER, ARG2 = LAST COMMAND NUMBER
                              *      SCLS    ARG1 = COMMAND LIST, ARG2 = NUMBER OF COMMAND
                              * CALLING SEQUENCE
                              * MAD  A=GCLC.(CC, LC)      WHERE A= PZE CC,,LC
                              *      AND CC=COMMAND COUNTER, LC=LAST COMMAND NUMBER
                              *      BOTH INTEGER MODE
                              * FORTRAN      K=GCLC(ICC, LC)
                              *      SAME CONVENTIONS FOR SCLC, BUT NOT USABLE AS A FUNCTION
                              *
                              * MAD  EXECUTE GCLS.(VECTOR, N)    WHERE N=COMMAND NO. (INTEGER)
                              *      AND VECTOR IS AN ARRAY(19)
                              * FORTRAN      CALL GCLS(ARRAY, K)     WHERE K=COMMAND NO.  (INTEGER)
                              *      AND ARRAY (20)
                              * MAD  EXECUTE SCLS.(VECTOR, N)
                              *      N SAME AS ABOVE. VECTOR=$COMMAND LIST WITH EVERY ARGUMENT
                              *      RIGHT JUSTIFIED$, 777777777777K
                              * FORTRAN      CALL SCLS(ARRAY, K)
                              *      K IS SAME AS ABOVE. ARRAY CONTAINS THE COMMAND LIST
                              *      WITH ARGUMENTS RIGHT JUSTIFIED. THE LAST ONE MUST BE A
                              *      FULL WORD OF OCTAL 7.
                              *
                              * COMPUTATION CENTER        LOUIS POUZIN
                              *      JANUARY 64

                              TSS    MACRO   A,X
                                     TSX     $A,X
                              TSS    END

                       00012         ENTRY   GCLC
                       00056         ENTRY   GCLS
                       00036         ENTRY   SCLC
                       00110         ENTRY   SCLS


        TRANSFER VECTOR

  BINARY CARD NO. GCLC0001
      00000  274521446060     GNAM
      00001  272563234323     GETCLC
      00002  622563234323     SETCLC
      00003  272563234362     GETCLS
      00004  444665250160     MOVE1
      00005  444665250260     MOVE2
      00006  444665250360     MOVE3
      00007  622563234362     SETCLS

            LINKAGE DIRECTOR
      00010  000000000000
      00011  272343236060

                       00010  X4     SYN     *-2
1            FAP                                                                                 PAGE 2

      00012 -0634 00 4 00010  GCLC   SXD     X4,4
      00013  0074 00 4 00000         TSX     $GNAM,4
      00014  0 00000 0 00010         PZE     X4
      00015  0402 00 0 00170         SUB     =2
      00016  0601 00 0 00142         STO     K
      00017                          TSS     GETCLC,4
      00020 -0534 00 4 00010         LXD     X4,4
      00021  0602 00 0 00167         SLW     CLC
      00022  0621 60 4 00001         STA*    1,4           COMMAND COUNTER VALUE
      00023  0771 00 0 00022         ARS     18

  BINARY CARD NO. GCLC0002
      00024  0621 60 4 00002         STA*    2,4           LAST COMMAND COUNTER VALUE
      00025  0520 00 0 00142         ZET     K
      00026  0020 00 0 00034         TRA     J             SKIP IF NOT FORTRAN CALL
      00027 -0500 60 4 00001         CAL*    1,4
      00030  0560 60 4 00002         LDQ*    2,4
      00031 -0763 00 0 00022         LGL     18
      00032  0602 60 4 00001         SLW*    1,4
      00033 -0600 60 4 00002         STQ*    2,4
                       00034  J      SYN     *
      00034  0500 00 0 00167         CLA     CLC
      00035  0020 00 4 00003         TRA     3,4


      00036 -0634 00 4 00010  SCLC   SXD     X4,4
      00037  0074 00 4 00000         TSX     $GNAM,4
      00040  0 00000 0 00010         PZE     X4
      00041 -0534 00 4 00010         LXD     X4,4
      00042  0402 00 0 00170         SUB     =2
      00043  0560 60 4 00001         LDQ*    1,4           FIRST COMMAND NO.
      00044  0100 00 0 00051         TZE     H             SKIP IF FORTRAN
      00045 -0763 00 0 00022         LGL     18
      00046 -0500 60 4 00002         CAL*    2,4           LAST COMMAND NO.
      00047 -0763 00 0 00022         LGL     18

  BINARY CARD NO. GCLC0003
      00050  0020 00 0 00053         TRA     *+3
      00051 -0763 00 0 00022  H      LGL     18
      00052  0400 60 4 00002         ADD*    2,4           FIRST,,LAST
      00053                          TSS     SETCLC,4
      00054 -0534 00 4 00010         LXD     X4,4
      00055  0020 00 4 00003         TRA     3,4


      00056 -0634 00 4 00010  GCLS   SXD     X4,4
      00057 -0500 00 4 00001         CAL     1,4
      00060  0621 00 0 00074         STA     A             BUFFER ADDRESS FOR COMMAND LIST STORAGE
      00061  0074 00 4 00000         TSX     $GNAM,4
      00062  0 00000 0 00010         PZE     X4
      00063 -0534 00 4 00010         LXD     X4,4
      00064  0402 00 0 00170         SUB     =2
      00065  0560 60 4 00002         LDQ*    2,4           COMMAND NO.
      00066  0100 00 0 00070         TZE     *+2           SKIP IF FORTRAN
      00067 -0763 00 0 00022         LGL     18
      00070 -0620 00 0 00072         SLQ     B
1            FAP                                                                                 PAGE 3

      00071                          TSS     GETCLS,4
      00072  0 00000 0 00143  B      PZE     LIST,,**
      00073  0074 00 4 00004         TSX     $MOVE1,4

  BINARY CARD NO. GCLC0004
 TD   00074  2 00000 0 00000  A      TIX     **            COMMAND LIST STORAGE
      00075  0074 00 4 00005         TSX     $MOVE2,4
      00076  2 00166 0 00143         TIX     LIST,,LIST+CL-1
      00077  0340 00 0 00166  D      CAS     FENCE
      00100  0020 00 0 00102         TRA     *+2
      00101  0020 00 0 00104         TRA     C             SKIP IF FENCE OCCURS
      00102 -1 00105 0 00105         STR     L,,L          GO ON WITH NEXT ARGUMENT
      00103  0020 00 0 00077         TRA     D
      00104 -1 00105 0 00105  C      STR     L,,L
      00105  0074 00 4 00006  L      TSX     $MOVE3,4      RESET TRAPPING STATUS
      00106 -0534 00 4 00010         LXD     X4,4
      00107  0020 00 4 00003         TRA     3,4


      00110 -0634 00 4 00010  SCLS   SXD     X4,4
      00111 -0500 00 4 00001         CAL     1,4           ADDRESS OF BUFFER WHERE IS THE COMMAND LIST
      00112  0621 00 0 00126         STA     DD
      00113  0074 00 4 00000         TSX     $GNAM,4
      00114  0 00000 0 00010         PZE     X4
      00115 -0534 00 4 00010         LXD     X4,4
      00116  0402 00 0 00170         SUB     =2
      00117  0560 60 4 00002         LDQ*    2,4           COMMAND NO.

  BINARY CARD NO. GCLC0005
      00120  0100 00 0 00122         TZE     *+2           SKIP IF FORTRAN
      00121 -0763 00 0 00022         LGL     18
      00122 -0620 00 0 00137         SLQ     E
      00123  0074 00 4 00004         TSX     $MOVE1,4
      00124  2 00166 0 00143         TIX     LIST,,LIST+CL-1
      00125  0074 00 4 00005         TSX     $MOVE2,4
 TD   00126  2 00000 0 00000  DD     TIX     **            ADDRESS OF COMMAND
      00127  0340 00 0 00166  G      CAS     FENCE
      00130  0020 00 0 00132         TRA     *+2
      00131  0020 00 0 00134         TRA     F             SKIP WHEN FENCE OCCURS
      00132 -1 00135 0 00135         STR     M,,M          GO ON WITH NEXT ARGUMENT
      00133  0020 00 0 00127         TRA     G
      00134 -1 00135 0 00135  F      STR     M,,M          TRANSMITS FENCE OR CL-1TH ARGUMENT
      00135  0074 00 4 00006  M      TSX     $MOVE3,4      RESET TRAPPING STATUS
      00136                          TSS     SETCLS,4
      00137  0 00000 0 00143  E      PZE     LIST,,**
      00140 -0534 00 4 00010         LXD     X4,4
      00141  0020 00 4 00003         TRA     3,4


                       00024  CL     EQU     20            MAXIMUM COMMAND LENGTH
      00142                   K      BSS     1             ZERO IF FORTRAN CALL
      00143                   LIST   BSS     CL-1          COMMAND LIST INTERMEDIATE STORAGE

  BINARY CARD NO. GCLC0006
      00166 -3 77777 7 77777  FENCE  SVN     -1,7,-1
      00167  0 00000 0 00000  CLC    PZE
1            FAP                                                                                 PAGE 4

                                     END

        LITERALS
      00170  000000000002
1            FAP                                                                                 PAGE 1
                        POST PROCESSOR ASSEMBLY DATA

        171 IS THE FIRST LOCATION NOT USED BY THIS PROGRAM

0REFERENCES TO DEFINED SYMBOLS
         74      A    60
         72      B    70
        104      C   101
         77      D   103
        137      E   122
        134      F   131
        127      G   133
         51      H    44
         34      J    26,   34
        142      K    16,   25
        105      L   102,  104
        135      M   132,  134
         24     CL    76,  124,  142,  143
        126     DD   112
         10     X4    12,   14,   20,   36,   40,   41,   54,   56,   62,   63,  106,  110,  114,  115,  140
        167    CLC    21,   34
         12   GCLC     0
         56   GCLS     0
          0   GNAM    13,   37,   61,  113
        143   LIST    72,   76,  124,  137
         36   SCLC     0
        110   SCLS     0
        166  FENCE    77,  127
          4  MOVE1    73,  123
          5  MOVE2    75,  125
          6  MOVE3   105,  135
          1 GETCLC    17
          3 GETCLS    71
          2 SETCLC    53
          7 SETCLS   136

0 NO ERROR IN ABOVE ASSEMBLY.


  GETC   BCD 05/28/67 2345.3     595         00000
1            FAP                                                                                 PAGE 1

                              *      GETCF, GETCFN     GET COMMON FILE NUMBER.
                              * FAP  TSX     GETCF,4
                              *      PZE     L             RETURNS INTO L AND SAC THE COMMON FILE
                              *      STO     K             NO. CURRENTLY SWITCHED. (0, 1, 2, 3, 4) BCD
                              * MAD  K=GETCF.(L)
                              *FORTRAN  K=GETCFN(L)
                              *      AUGUST 65             M. CHILD
                              *
                              TSS    MACRO   A,X,B
                                     TSX     B,X
                                     RMT
                              B      TIA     *+1
                                     BCI     1,A
                                     RMT
                              TSS    END

  BINARY CARD NO. GTCF0000
                       00003         ENTRY   GETCF
                       00003         ENTRY   GETCFN

        TRANSFER VECTOR

  BINARY CARD NO. GTCF0001
      00000  274521446060     GNAM

            LINKAGE DIRECTOR
      00001  000000000000
      00002  272563232660

                       00001  X4     SYN     *-2
                       00003  GETCF  SYN     *
                       00003  GETCFN SYN     *
      00003 -0634 00 4 00001         SXD     X4,4
      00004                          TSS     GETCF,4
      00005  0601 00 0 00021         STO     A
      00006  0100 00 0 00016         TZE     B             SKIP IF USER'S FILES
      00007  0074 00 4 00000         TSX     $GNAM,4       CHECK TYPE OF CALLING SEQUENCE
      00010  0 00000 0 00001         PZE     X4
      00011  0402 00 0 00024         SUB     =2
      00012  0560 00 0 00021         LDQ     A
      00013 -0100 00 0 00015         TNZ     *+2
      00014 -0773 00 0 00022         RQL     18            HERE IF FORTRAN
      00015  0131 00 0 00000         XCA
      00016 -0534 00 4 00001  B      LXD     X4,4
      00017  0601 60 4 00001         STO*    1,4
      00020  0020 00 4 00002         TRA     2,4
                              *
      00021                   A      BSS     1             TEMP FOR COMFIL NUMBER
                                     END
                                              REMOTE SEQUENCES

  BINARY CARD NO. GTCF0002
1            FAP                                                                                 PAGE 1
                        POST PROCESSOR ASSEMBLY DATA

         25 IS THE FIRST LOCATION NOT USED BY THIS PROGRAM

0REFERENCES TO DEFINED SYMBOLS
         21      A     5,   12
         16      B     6
          1     X4     3,   10,   16
          0   GNAM     7
          3  GETCF     0,    3
         22  ..001     4
          3 GETCFN     0,    3

0 NO ERROR IN ABOVE ASSEMBLY.


  GETI   BCD 05/28/67 2345.3     196         00000
1            FAP                                                                                 PAGE 1

                              * DUMMY FOR SUPERVISOR ENTRY
                              * COMPUTATION CENTER         LOUIS POUZIN
                              *      JUNE 64


  BINARY CARD NO. TS18EN00
                       00000         ENTRY   GETIME


  BINARY CARD NO. TS18EN01
      00000  0101 00 0 00001  GETIME TIA     =HGETIME
                                     END

        LITERALS
      00001  272563314425
1            FAP                                                                                 PAGE 1
                        POST PROCESSOR ASSEMBLY DATA

          2 IS THE FIRST LOCATION NOT USED BY THIS PROGRAM

0REFERENCES TO DEFINED SYMBOLS
          0 GETIME     0

0 NO ERROR IN ABOVE ASSEMBLY.


  GETM   BCD 05/28/67 2345.3     212         00000
1            FAP                                                                                 PAGE 1

                              *      TSS ENTRIES*  FOREGROUND LIB* L.P. - JULY 63*
                              *
                                             SUBROUTINIZED ENTRIES TO TSS ROUTINES
                       00000         ENTRY   GETMEM
                       00002         ENTRY   SETMEM
             0101 71 1 20000  TSS    OPD     010171120000
      00000  0101 00 0 00001  GETMEM TSS     *+1
      00001  272563442544            BCI     1,GETMEM
      00002  0101 00 0 00003  SETMEM TSS     *+1
      00003  622563442544            BCI     1,SETMEM
                                     END
1            FAP                                                                                 PAGE 1
                        POST PROCESSOR ASSEMBLY DATA

          4 IS THE FIRST LOCATION NOT USED BY THIS PROGRAM

0REFERENCES TO DEFINED SYMBOLS
          0 GETMEM     0
          2 SETMEM     0

0 NO ERROR IN ABOVE ASSEMBLY.


  GETT   BCD 05/28/67 2345.3     907         00000
1            ROUTINES TO FORMAT AND RETURN DATE AND TIME                                         PAGE 1
                           D.R. WIDRIG  JAN. 1966

                       00001         ENTRY   GETTIM
                       00003         ENTRY   GETTM

                                             SAMPLE CALLING SEQUENCES ARE..
                                                           GETTIM.(DATE,TIME)
                                                           RETURNS DATE AS MMDDYY AND TIME AS HHMM.M

                                                           GETTM.(DATE,TIME)
                                                           RETURNS DATE AS MM/DD (LEFT ADJUSTED) AND
                                                           TIME AS HHMM.M


        TRANSFER VECTOR
      00000  272563314425     GETIME

      00001 -0625 00 0 00060  GETTIM STL     DATESW        SET NO-DATE-PROCESS SWITCH
      00002  0020 00 0 00004         TRA     *+2           AND REJOIN ROUTINE

      00003  0600 00 0 00060  GETTM  STZ     DATESW        SET TO PROCESS DATE
      00004  0636 00 4 00006         SCA     *+2,4         SAVE CALLING LINKAGE
      00005  0074 00 4 00000         TSX     $GETIME,4     GET DATE AND TIME
      00006 -0774 00 4 00000         AXC     **,4          RESTORE CALLING LINKAGE
      00007  0602 00 0 00055         SLW     60THS         SAVE TIME FOR A MOMENT (HO HO)
      00010  0520 00 0 00060         ZET     DATESW        TEST FOR DATE PROCESSING
      00011  0020 00 0 00021         TRA     RETDAT        OFF, SKIP DATE PROCESSING

      00012 -0754 00 0 00000         ZAC                   POSITION AND SET SHORT FORM OF DATE
      00013 -0763 00 0 00014         LGL     12
      00014  0767 00 0 00006         ALS     6
      00015 -0763 00 0 00014         LGL     12
      00016  0767 00 0 00006         ALS     6
      00017 -0501 00 0 00065         ORA     =H00/00
      00020 -0130 00 0 00000         XCL                   POSITION RESULT
      00021 -0600 60 4 00001  RETDAT STQ*    1,4           RETURN DATE TO USER

      00022 -0754 00 0 00000         ZAC                   NOW GET BCD TIME AS HHMM.M
      00023  0560 00 0 00055         LDQ     60THS
      00024  0221 00 0 00063         DVP     =360
      00025 -0754 00 0 00000         ZAC
      00026  0221 00 0 00061         DVP     =10
      00027  0601 00 0 00056         STO     WORD
      00030 -0754 00 0 00000         ZAC
      00031  0221 00 0 00062         DVP     =60
      00032  0601 00 0 00057         STO     MINS
      00033 -0754 00 0 00000         ZAC
      00034  0221 00 0 00061         DVP     =10
      00035  0767 00 0 00030         ALS     24
      00036 -0602 00 0 00056         ORS     WORD
      00037 -0130 00 0 00000         XCL
      00040  0767 00 0 00036         ALS     30
      00041 -0602 00 0 00056         ORS     WORD
      00042  0560 00 0 00057         LDQ     MINS
      00043 -0754 00 0 00000         ZAC
      00044  0221 00 0 00061         DVP     =10
      00045  0767 00 0 00014         ALS     12
1            ROUTINES TO FORMAT AND RETURN DATE AND TIME                                         PAGE 2
                           D.R. WIDRIG  JAN. 1966

      00046 -0602 00 0 00056         ORS     WORD
      00047 -0773 00 0 00022         RQL     18
      00050 -0130 00 0 00000         XCL
      00051 -0501 00 0 00056         ORA     WORD
      00052 -0501 00 0 00064         ORA     =H0000.0
      00053  0602 60 4 00002         SLW*    2,4
      00054  0020 00 4 00003         TRA     3,4
      00055  0 00000 0 00000  60THS
      00056  0 00000 0 00000  WORD
      00057  0 00000 0 00000  MINS
      00060  0 00000 0 00000  DATESW PZE     **            NON-ZERO IF NO DATE PROCESSING
                                     END

        LITERALS
      00061  000000000012
      00062  000000000074
      00063  000000000550
      00064  000000003300
      00065  000061000060
1            ROUTINES TO FORMAT AND RETURN DATE AND TIME                                         PAGE 1
                        POST PROCESSOR ASSEMBLY DATA

         66 IS THE FIRST LOCATION NOT USED BY THIS PROGRAM

0REFERENCES TO DEFINED SYMBOLS
         57   MINS    32,   42
         56   WORD    27,   36,   41,   46,   51
         55  60THS     7,   23
          3  GETTM     0
         60 DATESW     1,    3,   10
          0 GETIME     5
          1 GETTIM     0
         21 RETDAT    11

0 NO ERROR IN ABOVE ASSEMBLY.


  GLOC   BCD 06/25/69 2042.2     781         00000
1      MAD WRITE-AROUND TO THE 'GETLOC' SUPERVISOR ENTRY                                         PAGE 1
                       D.A. ANDERSON   03/11/68

                                         WORD=GLOC.(ALOC)
                                           'WORD' WILL CONTAIN THE CONTENTS OF THE
                                             A-CORE LOCATION WHOSE ADDRESS IS IN 'ALOC'.
                                         OR
                                         GLOC.(ALOC,BLOC(N)...N)
                                           'BLOC(N)' THRU 'BLOC(1)' WILL BE SET TO THE CONTENTS
                                            OF 'N' A-CORE LOCATIONS STARTING WITH THE LOCATION
                                             WHOSE ADDRESS IS IN 'ALOC'.

                                           THE ADDRESS IN 'ALOC' MAY INCLUDE A TAG.

                       00003         ENTRY   GLOC

                                     EXTERN  GETLOC


        TRANSFER VECTOR
      00000  272563434623     GETLOC

            LINKAGE DIRECTOR
      00001  000000000000
      00002  274346236060

      00003  0634 00 4 00016  GLOC   SXA     GX4,4
      00004 -0500 60 4 00001         CAL*    1,4
      00005 -0320 00 0 00046         ANA     =O777777
      00006  0602 00 0 00015         SLW     GLOC1
      00007  0602 00 0 00034         SLW     GLOC2
      00010  0500 00 4 00002         CLA     2,4
      00011  0340 00 0 00043         CAS     PTW
      00012  0020 00 0 00020         TRA     ARRAY
      00013  0020 00 0 00020         TRA     ARRAY
      00014  0074 00 4 00000  1LOC   TSX     GETLOC,4
      00015  0 00000 0 00000  GLOC1          **
      00016  0774 00 4 00000  GX4    AXT     **,4
      00017  0020 00 4 00002         TRA     2,4

      00020  0621 00 0 00035  ARRAY  STA     GLOC3
      00021 -0737 00 4 00000         PDC     ,4
      00022 -0320 00 0 00044         ANA     PT
      00023  0100 00 0 00030         TZE     MANY
      00024  0322 00 0 00043         ERA     PTW
      00025  0100 00 0 00040         TZE     PFX2
      00026  0322 00 0 00045         ERA     2XOR3
      00027 -0100 00 0 00014         TNZ     1LOC
      00030  3 00000 4 00032  MANY   TXH     *+2,4,0
      00031 -0774 00 4 00001         AXC     1,4
      00032 -0636 00 4 00034         SCD     GLOC2,4
      00033  0074 00 4 00000         TSX     GETLOC,4
      00034  0 00000 0 00000  GLOC2          **,,**
      00035  0 00000 0 00000  GLOC3          **
      00036  0534 00 4 00016         LXA     GX4,4
      00037  0020 00 4 00003         TRA     3,4
1      MAD WRITE-AROUND TO THE 'GETLOC' SUPERVISOR ENTRY                                         PAGE 2
                       D.A. ANDERSON   03/11/68

      00040 -0500 00 4 00000  PFX2   CAL     ,4
      00041  0737 00 4 00000         PAC     ,4
      00042  0020 00 0 00030         TRA     MANY

      00043  2 00000 0 00000  PTW    PTW
      00044 -3 00000 7 00000  PT     SVN     ,-1
      00045  1 00000 0 00000  2XOR3  ONE

                                     END

        LITERALS
      00046  000000777777
1      MAD WRITE-AROUND TO THE 'GETLOC' SUPERVISOR ENTRY                                         PAGE 1
                        POST PROCESSOR ASSEMBLY DATA

         47 IS THE FIRST LOCATION NOT USED BY THIS PROGRAM

0REFERENCES TO DEFINED SYMBOLS
         44     PT    22
         16    GX4     3,   36
         43    PTW    11,   24
         14   1LOC    27
          3   GLOC     0
         30   MANY    23,   42
         40   PFX2    25
         45  2XOR3    26
         20  ARRAY    12,   13
         15  GLOC1     6
         34  GLOC2     7,   32
         35  GLOC3    20
          0 GETLOC    14,   33

0 NO ERROR IN ABOVE ASSEMBLY.


  GOPT   BCD 06/25/69 2042.2     228         00000
1     FAP ASSEMBLY LISTING  ...  ...  ...        FILE GETOPT _____FAP___         06/21/69 1700.3 PAGE 1

                       00000         ENTRY   GETOPT
                       00001         ENTRY   SETOPT
                       00002         ENTRY   RSOPT
                       00003         ENTRY   LDOPT
      00000  0101 00 0 00004  GETOPT TIA     =HGETOPT
      00001  0101 00 0 00007  SETOPT TIA     =HSETOPT
      00002  0101 00 0 00006  RSOPT  TIA     =HRSOPT
      00003  0101 00 0 00005  LDOPT  TIA     =HLDOPT
                                     END

        LITERALS
      00004  272563464763
      00005  432446476360
      00006  516246476360
      00007  622563464763
1     FAP ASSEMBLY LISTING  ...  ...  ...        FILE GETOPT _____FAP___         06/21/69 1700.3 PAGE 1
                        POST PROCESSOR ASSEMBLY DATA

         10 IS THE FIRST LOCATION NOT USED BY THIS PROGRAM

0REFERENCES TO DEFINED SYMBOLS
          3  LDOPT     0
          2  RSOPT     0
          0 GETOPT     0
          1 SETOPT     0

0 NO ERROR IN ABOVE ASSEMBLY.


  GMEM   BCD 05/28/67 2345.3     667         00000
1            FAP                                                                                 PAGE 1

                              *      GMEM    RETURNS MEMORY BOUND IN THE AC. MODE INTEGER
                              *      A = GMEM.(B)          A AND B ARE SET TO MEMORY BOUND
                              *      SMEM    SETS MEMORY BOUND
                              *      EXECUTE SMEM.(LOC)
                              *              LOC IS AN OCTAL NUMBER TAKEN AS A BINARY ADDRESS
                              *      CALL SMEM(LOC)


  BINARY CARD NO. GMEM0000
                       00005         ENTRY   GMEM
                       00022         ENTRY   SMEM


        TRANSFER VECTOR

  BINARY CARD NO. GMEM0001
      00000  272563442544     GETMEM
      00001  274521446060     GNAM
      00002  622563442544     SETMEM

            LINKAGE DIRECTOR
      00003  000000000000
      00004  274425446060

                       00003  X4     SYN     *-2

      00005 -0634 00 4 00003  GMEM   SXD     X4,4
      00006  0074 00 4 00000         TSX     $GETMEM,4
      00007  0602 00 0 00037         SLW     MB
      00010  0074 00 4 00001         TSX     $GNAM,4
      00011  0 00000 0 00003         PZE     X4
      00012  0560 00 0 00037         LDQ     MB
      00013  0402 00 0 00040         SUB     =2
      00014 -0100 00 0 00016         TNZ     *+2
      00015 -0773 00 0 00022         RQL     18            FORTRAN CALL
      00016  0131 00 0 00000         XCA
      00017 -0534 00 4 00003  OUT    LXD     X4,4
      00020  0601 60 4 00001         STO*    1,4
      00021  0020 00 4 00002         TRA     2,4


      00022 -0634 00 4 00003  SMEM   SXD     X4,4
      00023 -0500 60 4 00001         CAL*    1,4

  BINARY CARD NO. GMEM0002
      00024  0602 00 0 00037         SLW     MB
      00025  0074 00 4 00001         TSX     $GNAM,4
      00026  0 00000 0 00003         PZE     X4
      00027  0402 00 0 00040         SUB     =2
      00030  0560 00 0 00037         LDQ     MB
      00031 -0100 00 0 00033         TNZ     *+2
      00032 -0773 00 0 00022         RQL     18            FORTRAN CALL
      00033 -0130 00 0 00000         XCL
      00034  0074 00 4 00002         TSX     $SETMEM,4
1            FAP                                                                                 PAGE 2

      00035  0500 00 0 00037         CLA     MB
      00036  0020 00 0 00017         TRA     OUT
      00037  0 00000 0 00000  MB     PZE                   MEMORY BOUND
                                     END

        LITERALS
      00040  000000000002
1            FAP                                                                                 PAGE 1
                        POST PROCESSOR ASSEMBLY DATA

         41 IS THE FIRST LOCATION NOT USED BY THIS PROGRAM

0REFERENCES TO DEFINED SYMBOLS
         37     MB     7,   12,   24,   30,   35
          3     X4     5,   11,   17,   22,   26
         17    OUT    36
          5   GMEM     0
          1   GNAM    10,   25
         22   SMEM     0
          0 GETMEM     6
          2 SETMEM    34

0 NO ERROR IN ABOVE ASSEMBLY.


  GNAM   BCD 06/25/69 2042.3    1745         00000
1            FAP                                                                                 PAGE 1

                              * COMPUTATION CENTER            LOUIS POUZIN
                              *       FEBRUARY 64
                              *      GNAM    CHECKS TYPE OF CALLING SEQUENCE
                              *              SETS ARGUMENT TYPE CODE.
                              *              AND IF CALLED WITH 2 ARGUMENTS
                              *              SETS FILE NAMES INTO TWO CONSECUTIVE LOCATIONS
                              *      CALLING SEQUENCE
                              *      A PROGRAM 'MAIN' CALLS A PROGRAM 'SUB'
                              *      'SUB' WANTS TO SET UP FILE NAMES, ACCORDING TO ITS OWN CONVENTION
                              *              OF LANGUAGE
                              *      TWO CALLS GNAM WITH 1 OR 2 ARGUMENTS
                              *      ARG1    LOCATION WHERE IX4 IS STORED IN THE DECREMENT
                              *      ARG2    1ST NAME. OPTIONAL
                              *              NAMES ARE SUPPOSED TO BE 1ST ARGUMENT IN THE CALLING
                              *              SEQUENCE TO BE CHECKED (FROM 'MAIN' TO 'SUB')
                              *      GNAM RETURNS IN AC(S-35) A CODE ABOUT CALLING SEQUENCE IN 'MAIN'
                              *              0 = UNKNOWN, OR NO ARGUMENTS
                              *              1 = FAP
                              *              2 = FORTRAN
                              *              3 = MAD
                              *              NAMES ARE SET UP IF AN ARG2 IS SPECIFIED.
                              * SOME TIPS ABOUT THE WAY FILE NAMES ARE HANDED OVER
                              *      THEY MAY BE BACKWARDS OR FORWARDS IN 'MAIN'
                              *      THEY ARE ASSUMED TO BE FORWARDS WITH FAP OR FORTRAN
                              *      CALLING SEQUENCE IN 'MAIN', AND BACKWARDS WITH A MAD ONE.
                              *      WHEN 'SUB' CALLS 'GNAM', IT MAY SPECIFY OR NOT THAT IT WANTS
                              *      THE FILE NAMES, DEPENDING ON THE PRESENCE OF A SECOND ARGUMENT.
                              *      FILE NAMES WILL BE SET UP INTO 'SUB' ACCORDING TO THE TYPE
                              *      OF CALLING SEQUENCE USED BY 'SUB' TO CALL 'GNAM', I.E.
                              *      FORWARDS IF FAP OR FORTRAN PREFIX IS USED (PZE, TSX)
                              *      BACKWARDS IF MAD PREFIX IS USED (TXH).
                              *      GNAM WILL ALSO TAKE CARE OF THE POSSIBLE SETTING OF NAMES
                              *      BY A PREVIOUS CALL TO 'SETNAM'. 'GNAM' CHECKS FOR THE
                              *      CONVENTIONAL MARKER IN THE 1ST NAME, AND IF IT IS THERE,
                              *      'GNAM' GOES AHEAD ONE ADDRESS SUBSTITUTION TO GET
                              *      THE ACTUAL BCD NAME.


  BINARY CARD NO. GNAM0000
                       00002         ENTRY   GNAM


            LINKAGE DIRECTOR

  BINARY CARD NO. GNAM0001
      00000  000000000000
      00001  274521446060

                       00000  X4     SYN     *-2

1            FAP                                                                                 PAGE 2

                       00002  GNAM   SYN     *
      00002 -0500 60 4 00001         CAL*    1,4           IX4 ON CALLING FROM 'MAIN'
      00003 -0634 00 4 00000         SXD     X4,4
      00004 -0734 00 4 00000         PDX     ,4
      00005 -0500 00 4 00001         CAL     1,4           ADDRESS OF 1ST ARGUMENT
      00006  0621 00 0 00000         STA     X4
      00007 -0320 00 0 00116         ANA     =O777777700000 ERASE ADDRESS
      00010  0774 00 4 00004         AXT     4,4
      00011 -0340 00 4 00105  A      LAS     P,4
      00012  2 00001 4 00011         TIX     A,4,1
      00013  0020 00 0 00015         TRA     *+2
      00014  2 00001 4 00011         TIX     A,4,1
      00015  0522 00 4 00111         XEC     Q,4
      00016  0520 00 0 00077         ZET     D             SKIP IF CALL FROM 'SUB'
      00017  0020 00 0 00037         TRA     E
      00020  0601 00 0 00100         STO     TCS
      00021 -0500 00 0 00114         CAL     =O77777
      00022  3 00003 4 00024         TXH     *+2,4,3
      00023 -0500 00 0 00111         CAL     =1

  BINARY CARD NO. GNAM0002
      00024  0621 00 0 00071         STA     B
      00025 -0500 00 0 00000         CAL     X4            SAVE RETURN
      00026  0602 00 0 00077         SLW     D
      00027  0074 00 4 00002         TSX     GNAM,4
      00030  0 00000 0 00077         PZE     D
      00031  0734 00 4 00000         PAX     ,4
      00032 -0500 00 0 00111         CAL     =1
      00033 -3 00002 4 00035         TXL     *+2,4,2       SKIP IF FAP OR FORTRAN
      00034 -0500 00 0 00114         CAL     =O77777
      00035  0621 00 0 00072         STA     B+1
      00036  0500 00 0 00100         CLA     TCS
      00037 -0534 00 4 00000  E      LXD     X4,4          IX4 ON CALL FROM GNAM, THEN FROM 'SUB'
      00040  0131 00 0 00000         XCA
      00041  0500 00 4 00001         CLA     1,4
      00042  0402 00 4 00002         SUB     2,4
      00043  0771 00 0 00017         ARS     15
      00044  0100 00 0 00052         TZE     H             SKIP IF 2 ARGUMENTS
      00045  0131 00 0 00000         XCA
      00046  0560 00 0 00077         LDQ     D             DOWN RECURSION LEVEL
      00047  0600 00 0 00077         STZ     D

  BINARY CARD NO. GNAM0003
      00050 -0600 00 0 00000         STQ     X4
      00051  0020 00 4 00002         TRA     2,4
      00052  0634 00 1 00073  H      SXA     G,1           SAVE IX1
      00053  0535 00 1 00000         LAC     X4,1          ADDRESS OF NAMES IN 'MAIN'
      00054 -0500 00 4 00002         CAL     2,4           ADDRESS OF NAMES IN 'SUB'
      00055  0737 00 4 00000         PAC     ,4
      00056 -0500 00 1 00000         CAL     ,1
      00057  0322 00 0 00117         ERA     =O777777777777
      00060  0100 00 0 00067         TZE     C             ALL 7'S. MAY BE A LEGAL NAME.
      00061 -0320 00 0 00115         ANA     =O77000000    TEST FLAG INSERTED BY SETNAM
      00062 -0100 00 0 00067         TNZ     C             NO FLAG. NAME IS TRUE DATA
      00063 -0500 00 1 00000         CAL     ,1            FLAG. NAME IS ADDRESS
      00064  0737 00 1 00000         PAC     ,1
1            FAP                                                                                 PAGE 3

      00065 -0500 00 0 00111         CAL     =1
      00066  0621 00 0 00071         STA     B
      00067 -0500 00 1 00000  C      CAL     ,1            NAME1
      00070  0602 00 4 00000         SLW     ,4
      00071 -0500 00 1 00000  B      CAL     **,1          NAME2
      00072  0602 00 4 00000         SLW     **,4
      00073  0774 00 1 00000  G      AXT     **,1          RESTORE IX1

  BINARY CARD NO. GNAM0004
      00074  0500 00 0 00100         CLA     TCS           CALLING SEQUENCE TYPE IN 'MAIN'
      00075 -0534 00 4 00000         LXD     X4,4
      00076  0020 00 4 00003         TRA     3,4
      00077  0 00000 0 00000  D      PZE                   DIF ZERO IF 1ST RECURSION TO GNAM
      00100  0 00000 0 00000  TCS    PZE                   CALLING SEQUENCE TYPE
 ATD  00101  3 00000 0 00000         TXH                   MAD
 AT   00102  0074 00 0 00000         TSX                   FORTRAN
      00103  0 00000 0 00000         PZE                   FAP
      00104 -3 00000 0 00000         SVN
                       00105  P      SYN     *
      00105  0500 00 0 00113         CLA     =3            MAD
      00106  0500 00 0 00112         CLA     =2            FORTRAN
      00107  0500 00 0 00111         CLA     =1            FAP
      00110 -0754 00 0 00000         ZAC                   NO STANDARD ARGUMENT
                       00111  Q      SYN     *
                                     END

        LITERALS
      00111  000000000001
      00112  000000000002
      00113  000000000003
      00114  000000077777
      00115  000077000000
      00116  777777700000
      00117  777777777777
1            FAP                                                                                 PAGE 1
                        POST PROCESSOR ASSEMBLY DATA

        120 IS THE FIRST LOCATION NOT USED BY THIS PROGRAM

0REFERENCES TO DEFINED SYMBOLS
         11      A    12,   14
         71      B    24,   35,   66
         67      C    60,   62
         77      D    16,   26,   30,   46,   47
         37      E    17
         73      G    52
         52      H    44
        105      P    11,  105
        111      Q    15,  111
          0     X4     2,    3,    6,   25,   37,   50,   53,   75
        100    TCS    20,   36,   74
          2   GNAM     0,    2,   27

0 NO ERROR IN ABOVE ASSEMBLY.


  GSYS   BCD 06/25/69 2042.3     166         00000
1     FAP ASSEMBLY LISTING  ...  ...  ...        FILE GETSYS _____FAP___         06/21/69 1700.4 PAGE 1

                       00000         ENTRY   GETSYS
                       00001         ENTRY   SETSYS
      00000  0101 00 0 00002  GETSYS TIA     =HGETSYS
      00001  0101 00 0 00003  SETSYS TIA     =HSETSYS
                                     END

        LITERALS
      00002  272563627062
      00003  622563627062
1     FAP ASSEMBLY LISTING  ...  ...  ...        FILE GETSYS _____FAP___         06/21/69 1700.4 PAGE 1
                        POST PROCESSOR ASSEMBLY DATA

          4 IS THE FIRST LOCATION NOT USED BY THIS PROGRAM

0REFERENCES TO DEFINED SYMBOLS
          0 GETSYS     0
          1 SETSYS     0

0 NO ERROR IN ABOVE ASSEMBLY.


  GTCL   BCD 05/28/67 2345.3     183         00000
1            FAP                                                                                 PAGE 1

                              *      SUBROUTINIZED ENTRIES TO CTSS SUPERVISOR - LP - DEC 63
                       00000         ENTRY   GETCLC
                       00001         ENTRY   GETCLS
      00000  0101 00 0 00002  GETCLC TIA     =HGETCLC
      00001  0101 00 0 00003  GETCLS TIA     =HGETCLS
                                     END

        LITERALS
      00002  272563234323
      00003  272563234362
1            FAP                                                                                 PAGE 1
                        POST PROCESSOR ASSEMBLY DATA

          4 IS THE FIRST LOCATION NOT USED BY THIS PROGRAM

0REFERENCES TO DEFINED SYMBOLS
          0 GETCLC     0
          1 GETCLS     0

0 NO ERROR IN ABOVE ASSEMBLY.


  GTCM   BCD 05/28/67 2346.5     135         00000
1                                                                                                PAGE 1

                       00000         ENTRY   GETCOM
      00000  0101 00 0 00001  GETCOM TIA     =HGETCOM
                                     END

        LITERALS
      00001  272563234644
1                                                                                                PAGE 1
                        POST PROCESSOR ASSEMBLY DATA

          2 IS THE FIRST LOCATION NOT USED BY THIS PROGRAM

0REFERENCES TO DEFINED SYMBOLS
          0 GETCOM     0

0 NO ERROR IN ABOVE ASSEMBLY.


  GTDY   BCD 05/28/67 2346.5     135         00000
1                                                                                                PAGE 1

                       00000         ENTRY   GTDYTM
      00000  0101 00 0 00001  GTDYTM TIA     =HGTDYTM
                                     END

        LITERALS
      00001  276324706344
1                                                                                                PAGE 1
                        POST PROCESSOR ASSEMBLY DATA

          2 IS THE FIRST LOCATION NOT USED BY THIS PROGRAM

0REFERENCES TO DEFINED SYMBOLS
          0 GTDYTM     0

0 NO ERROR IN ABOVE ASSEMBLY.


  GTLO   BCD 10/22/67 2153.8     197         00000
1                                                                                                PAGE 1

                       00000         ENTRY   GETLOC
                       00001         ENTRY   GETARY
                       00002         ENTRY   SETLOC
      00000  0101 00 0 00004  GETLOC TIA     =HGETLOC
      00001  0101 00 0 00003  GETARY TIA     =HGETARY
      00002  0101 00 0 00005  SETLOC TIA     =HSETLOC
                                     END

        LITERALS
      00003  272563215170
      00004  272563434623
      00005  622563434623
1                                                                                                PAGE 1
                        POST PROCESSOR ASSEMBLY DATA

          6 IS THE FIRST LOCATION NOT USED BY THIS PROGRAM

0REFERENCES TO DEFINED SYMBOLS
          1 GETARY     0
          0 GETLOC     0
          2 SETLOC     0

0 NO ERROR IN ABOVE ASSEMBLY.


  GTNM   BCD 06/25/69 2042.6     769         00000
1            FAP                                                                                 PAGE 1

                              *      GTNAM   RETURNS A NAME FOR AN INTERMEDIATE FILE
                              *      A=GTNAM.(CLASS)
                              *      CLASS NAME IS GIVEN AS SINGLE ARGUMENT.
                              *      NAME IS THE 1ST NON EXISTING FILE IN THE SERIES ...001 ...002
                              *      ETC... AND ONLY IF THE FOLLOWING IS ABSENT OR DELETABLE.


  BINARY CARD NO. GTNAM000
                       00005         ENTRY   GTNAM


        TRANSFER VECTOR

  BINARY CARD NO. GTNAM001
      00000  266263216360     FSTAT
      00001  242526222360     DEFBC
      00002  242543256325     DELETE

            LINKAGE DIRECTOR
      00003  000000000000
      00004  276345214460

                       00003  X4     SYN     *-2

      00005 -0634 00 4 00003  GTNAM  SXD     X4,4
      00006 -0625 00 0 00044         STL     FOUND
      00007 -0500 60 4 00001         CAL*    1,4
      00010  0602 00 0 00042         SLW     FIL+1
      00011  0500 00 0 00046         CLA     =1
      00012  0621 00 0 00041         STA     FIL
      00013  0601 00 0 00045         STO     CNT
      00014  0074 00 4 00000  A      TSX     $FSTAT,4
      00015  0 00000 0 00041         PZE     FIL
      00016  0601 00 0 00044         STO     FOUND         ZERO IF FILE AVAILABLE FOUND
      00017 -0500 00 0 00045  B      CAL     CNT           TRY NEXT NAME
      00020  0400 00 0 00046         ADD     =1
      00021  0602 00 0 00045         SLW     CNT
      00022  0560 00 0 00041         LDQ     FIL
      00023 -0600 00 0 00043         STQ     FIL1          KEEP NAME IN CASE OF SUCCESS

  BINARY CARD NO. GTNAM002
      00024  0340 00 0 00047         CAS     =7            MAYBE NO NEED FOR CONVERSION
      00025  0074 00 4 00001         TSX     $DEFBC,4
 TD   00026  3 00000 0 00045         TXH     CNT
      00027  0621 00 0 00041         STA     FIL
      00030  0520 00 0 00044         ZET     FOUND
      00031  0020 00 0 00014         TRA     A
      00032  0074 00 4 00002         TSX     $DELETE,4     TRY TO DELETE NEXT ONE
      00033  0 00000 0 00041         PZE     FIL
      00034  0601 00 0 00044         STO     FOUND
      00035 -0100 00 0 00017         TNZ     B
      00036  0500 00 0 00043         CLA     FIL1
      00037 -0534 00 4 00003         LXD     X4,4
      00040  0020 00 4 00002         TRA     2,4
1            FAP                                                                                 PAGE 2

      00041  333333006060     FIL    BCI     2,...0        CURRENT FILE
      00042  606060606060
      00043                   FIL1   BSS     1             NAME AVAILABLE
      00044                   FOUND  BSS     1             ZERO WHILE SEARCHING
      00045                   CNT    BSS     1             SERIAL NUMBER
                                     END

        LITERALS

  BINARY CARD NO. GTNAM003
      00046  000000000001
      00047  000000000007
1            FAP                                                                                 PAGE 1
                        POST PROCESSOR ASSEMBLY DATA

         50 IS THE FIRST LOCATION NOT USED BY THIS PROGRAM

0REFERENCES TO DEFINED SYMBOLS
         14      A    31
         17      B    35
          3     X4     5,   37
         45    CNT    13,   17,   21,   26
         41    FIL    10,   12,   15,   22,   27,   33
         43   FIL1    23,   36
          1  DEFBC    25
         44  FOUND     6,   16,   30,   34
          0  FSTAT    14
          5  GTNAM     0
          2 DELETE    32

0 NO ERROR IN ABOVE ASSEMBLY.


  GWRD   BCD 06/25/69 2042.6     166         00000
1     FAP ASSEMBLY LISTING  ...  ...  ...        FILE GETWRD _____FAP___         06/21/69 1700.5 PAGE 1

                       00000         ENTRY   GETWRD
                       00001         ENTRY   SETWRD
      00000  0101 00 0 00002  GETWRD TIA     =HGETWRD
      00001  0101 00 0 00003  SETWRD TIA     =HSETWRD
                                     END

        LITERALS
      00002  272563665124
      00003  622563665124
1     FAP ASSEMBLY LISTING  ...  ...  ...        FILE GETWRD _____FAP___         06/21/69 1700.5 PAGE 1
                        POST PROCESSOR ASSEMBLY DATA

          4 IS THE FIRST LOCATION NOT USED BY THIS PROGRAM

0REFERENCES TO DEFINED SYMBOLS
          0 GETWRD     0
          1 SETWRD     0

0 NO ERROR IN ABOVE ASSEMBLY.


  INT0   BCD 05/28/67 2346.5     269         00000
1            FAP                                                                                 PAGE 1

                              *INT   ARGUEMENTS AND FUNCTION ARE FIXED POINT.
                              *      FOR USE WITH MADTRAN TRANSLATED PROGRAMS
                              *      CALLING SEQUENCE TSX INT,4
                              *                            TXH ARGUEMENT
                              *                            2,4 RETURN
                              *      RESULT IN ARITHMETIC ACCUMULATOR
                       00002         ENTRY   INT

            LINKAGE DIRECTOR
      00000  000000000000
      00001  314563606060

      00002  0500 60 4 00001  INT    CLA*    1,4
      00003 -0300 00 0 00006         UFA     =O233000000000
      00004  0300 00 0 00006         FAD     =O233000000000
      00005  0020 00 4 00002         TRA     2,4
                                     END

        LITERALS
      00006  233000000000
1            FAP                                                                                 PAGE 1
                        POST PROCESSOR ASSEMBLY DATA

          7 IS THE FIRST LOCATION NOT USED BY THIS PROGRAM

0REFERENCES TO DEFINED SYMBOLS
          2    INT     0

0 NO ERROR IN ABOVE ASSEMBLY.


  IODG   BCD 05/28/67 2346.5     135         00000
1                                                                                                PAGE 1

                       00000         ENTRY   IODIAG
      00000  0101 00 0 00001  IODIAG TIA     =HIODIAG
                                     END

        LITERALS
      00001  314624312127
1                                                                                                PAGE 1
                        POST PROCESSOR ASSEMBLY DATA

          2 IS THE FIRST LOCATION NOT USED BY THIS PROGRAM

0REFERENCES TO DEFINED SYMBOLS
          0 IODIAG     0

0 NO ERROR IN ABOVE ASSEMBLY.


  IOEN   BCD 05/28/67 2346.5    1904         00000
