1            FAP                                                                                 PAGE 1

                              *      LDFIL LOADS A FILE INTO FREE STORAGE.

  BINARY CARD NO. LDFL0000
                       00011         ENTRY   LDFIL
                                     EXTERN  COLT,FRER,EXIT
                              TSS    MACRO   A,T
                                     TSX     A,T
                                     EXTERN  A
                              TSS    END


        TRANSFER VECTOR

  BINARY CARD NO. LDFL0001
      00000  234643636060     COLT
      00001  265125516060     FRER
      00002  256731636060     EXIT
      00003  464725456060     OPEN
      00004  266263216325     FSTATE
      00005  512426314325     RDFILE
      00006  234346622560     CLOSE

            LINKAGE DIRECTOR
      00007  000000000000
      00010  432426314360

                       00007  X4     SYN     *-2
                       00011  LDFIL  SYN     *
      00011 -0634 00 4 00007         SXD     X4,4
      00012  0074 00 4 00000         TSX     COLT,4        GET NUMBER OF ARGUMENTS
      00013  0 00000 0 00007         PZE     X4
      00014  0636 00 4 00101         SCA     RET,4         SAVE RETURN ADDRESS
      00015  0771 00 0 00022         ARS     18
      00016  0621 00 0 00032         STA     X1            SAVE NUMBER OF ARGUMENTS
      00017 -0534 00 4 00007         LXD     X4,4
      00020  0500 60 4 00001         CLA*    1,4
      00021  0601 00 0 00106         STO     NAME
      00022  0500 60 4 00002         CLA*    2,4           GET SECONDARY NAME
      00023  0601 00 0 00107         STO     NAME+1

  BINARY CARD NO. LDFL0002
      00024  0500 00 4 00003         CLA     3,4
      00025  0621 00 0 00074         STA     TSX           ROUTINE TO TRANSFER CONTROL TO
      00026  0131 00 0 00000         XCA
      00027 -0620 00 0 00075         SLQ     FIL           SAVE TYPE OF CALLING SEQUENCE
      00030  0500 00 4 00004         CLA     4,4           OPTIONAL ARGUMENTS
      00031  0560 00 4 00005         LDQ     5,4
      00032  0774 00 4 00000  X1     AXT     **,4          NUMBER OF ARGUMENTS
      00033  3 00004 4 00037         TXH     STQ,4,4       ALL ARGUMENTS PRESENT
      00034  3 00003 4 00036         TXH     *+2,4,3       ONE MISSING
      00035  0500 00 0 00113         CLA     NOP           FILL IN MISSING ARGUMENTS WITH NOP
      00036  0560 00 0 00113         LDQ     NOP
      00037 -0600 00 0 00077  STQ    STQ     E
      00040  0601 00 0 00076         STO     C
      00041                          TSS     OPEN,4        OPEN FILE BEFORE GETTING LENGTH, TO
      00042  3 00000 0 00114         PTH     R             .. KEEP IT FROM BEING MODIFIED
1            FAP                                                                                 PAGE 2

      00043  3 00000 0 00106         PTH     NAME
      00044  3 00000 0 00107         PTH     NAME+1
      00045                          TSS     FSTATE,4      GET LENGTH OF FILE TO BE LOADED
      00046  3 00000 0 00106         PTH     NAME
      00047  3 00000 0 00107         PTH     NAME+1

  BINARY CARD NO. LDFL0003
      00050  2 00112 0 00110         PTW     A,,Q1
      00051  0500 00 0 00110         CLA     A
      00052  0400 00 0 00112         ADD     Q1
      00053  0601 00 0 00111         STO     SIZE
      00054  0074 00 4 00001         TSX     FRER,4        GET FREE SPACE FOR FILE
      00055  0 00000 0 00111         PZE     SIZE
      00056  0100 00 0 00102         TZE     NOROOM        0 RETURN MEANS NOT ENOUGH ROOM
      00057  0621 00 0 00075         STA     FIL
      00060  0361 00 0 00116         ACL     =1
      00061  0621 00 0 00066         STA     RDFAD         SET UP LOADING ADDRESS
      00062                          TSS     RDFILE,4      READ IN FILE
      00063  3 00000 0 00106         PTH     NAME
      00064  3 00000 0 00107         PTH     NAME+1
      00065  3 00000 0 00115         PTH     =0
      00066  2 00110 0 00000  RDFAD  PTW     **,,A
      00067                          TSS     CLOSE,4
      00070  3 00000 0 00106         PTH     NAME
      00071  3 00000 0 00107         PTH     NAME+1
      00072  0500 00 0 00110         CLA     A
      00073  0601 60 0 00075         STO*    FIL           SET UP FIRST WORD = FILE LENGTH

  BINARY CARD NO. LDFL0004
      00074  0074 00 4 00000  TSX    TSX     **,4          RETURN CONTROL AS USER REQUESTED
      00075  0 00000 0 00000  FIL    ***     **            FILE ADDRESS
      00076  0 00000 0 00000  C      ***     **            OPTIONAL ARGUMENTS
      00077  0 00000 0 00000  E      ***     **            ..
      00100 -0534 00 4 00007         LXD     X4,4          POSSIBLE RETURN FROM USER FUNCTION
      00101  0020 00 0 00000  RET    TRA     **            RETURN TO CALLER

      00102                   NOROOM TSS     CLOSE,4       HERE IF NOT ENOUGH ROOM TO LOAD FILE
      00103  3 00000 0 00106         PTH     NAME          CLOSE FILE
      00104  3 00000 0 00107         PTH     NAME+1        ..
      00105  0074 00 4 00002         TSX     EXIT,4        ... AND EXIT

      00106                   NAME   BSS     2
      00110                   A      BSS     1

  BINARY CARD NO. LDFL0005
      00111  0 00000 0 00000  SIZE   PZE     0
      00112  0 00000 0 00001  Q1     PZE     1
      00113  0761 00 0 00000  NOP    NOP
      00114  516060606060     R      BCI     1,R
                                     END

        LITERALS
      00115  000000000000
      00116  000000000001
1            FAP                                                                                 PAGE 1
                        POST PROCESSOR ASSEMBLY DATA

        117 IS THE FIRST LOCATION NOT USED BY THIS PROGRAM

0REFERENCES TO DEFINED SYMBOLS
        110      A    50,   51,   66,   72
         76      C    40
         77      E    37
        114      R    42
        112     Q1    50,   52
         32     X1    16
          7     X4    11,   13,   17,  100
         75    FIL    27,   57,   73
        113    NOP    35,   36
        101    RET    14
         37    STQ    33
         74    TSX    25
          0   COLT    12
          2   EXIT   105
          1   FRER    54
        106   NAME    21,   23,   43,   44,   46,   47,   63,   64,   70,   71,  103,  104
          3   OPEN    41
        111   SIZE    53,   55
          6  CLOSE    67,  102
         11  LDFIL     0,   11
         66  RDFAD    61
          4 FSTATE    45
        102 NOROOM    56
          5 RDFILE    62

0 NO ERROR IN ABOVE ASSEMBLY.


  LDUM   BCD 05/28/67 2346.5     207         00000
1            FAP                                                                                 PAGE 1

                              *LDMP     FOR TIME SHARING MOD XI FOREGROUND LIBRARY    JDH    DEC 62
                       00003         ENTRY   LDUMP
                                             CALLS EXIT FOREVER.

        TRANSFER VECTOR
      00000  256731636060     EXIT

            LINKAGE DIRECTOR
      00001  000000000000
      00002  432464444760

      00003  0074 00 4 00000  LDUMP  TSX     $EXIT,4
      00004  0020 00 0 00003         TRA     *-1
                                     END
1            FAP                                                                                 PAGE 1
                        POST PROCESSOR ASSEMBLY DATA

          5 IS THE FIRST LOCATION NOT USED BY THIS PROGRAM

0REFERENCES TO DEFINED SYMBOLS
          0   EXIT     3
          3  LDUMP     0

0 NO ERROR IN ABOVE ASSEMBLY.


  LJUS   BCD 05/28/67 2346.5     418         00000
1            FAP                                                                                 PAGE 1

                              *      LJUST(W) LEFT JUSTIFIES A BCD WORD
                              *      KEEPS LEADING ZEROS. SET TRAILING BLANKS
                              *      RETURNS '*' IF WORD IS ALL BLANKS


  BINARY CARD NO. LJUST000
                       00002         ENTRY   LJUST


            LINKAGE DIRECTOR

  BINARY CARD NO. LJUST001
      00000  000000000000
      00001  434164626360

                       00002  LJUST  SYN     *
                       00000  X4     SYN     *-2
      00002 -0634 00 4 00000         SXD     X4,4
      00003 -0500 60 4 00001         CAL*    1,4
      00004  0604 00 0 00022         STI     B
      00005  0560 00 0 00023         LDQ     =H     *
      00006  0774 00 4 00006         AXT     6,4
      00007  0044 00 0 00000  A      PAI
      00010 -0051 00  600000         IIL     600000
      00011 -0054 00  770000         LFT     770000
      00012  0020 00 0 00015         TRA     D
      00013 -0763 00 0 00006         LGL     6
      00014  2 00001 4 00007         TIX     A,4,1
      00015 -0130 00 0 00000  D      XCL
      00016  0131 00 0 00000         XCA
      00017  0441 00 0 00022         LDI     B
      00020 -0534 00 4 00000         LXD     X4,4
      00021  0020 00 4 00002         TRA     2,4
      00022  0 00000 0 00000  B
                                     END

        LITERALS
      00023  606060606054
1            FAP                                                                                 PAGE 1
                        POST PROCESSOR ASSEMBLY DATA

         24 IS THE FIRST LOCATION NOT USED BY THIS PROGRAM

0REFERENCES TO DEFINED SYMBOLS
          7      A    14
         22      B     4,   17
         15      D    12
          0     X4     2,   20
          2  LJUST     0,    2

0 NO ERROR IN ABOVE ASSEMBLY.


  LOG0   BCD 05/28/67 2346.5    1603         00000
1            FAP                                                                                 PAGE 1

                              *MILOG          MIT VERSION OF LOG
                              *LOG   709 FORTRAN LIBRARY / FLOATING POINT LOG ROUTINE / 9LOG
                              *  THIS ROUTINE HAS BEEN REVISED TO ACCOMODATE MAD / MAY 1960
                              *              MIT ASSEMBLY DATE ...  JULY 11,1962

                              *  THE CALLING SEQUENCE IS

                              *       CALL  LOG                 TSX  $LOG,4
                              *       N=ARG IN THE AC           TXH  N
                              *                                 TXH  ERROR
                              *    FOR FORTRAN               FOR MAD


                              *  ERROR RETURNS
                              *  IF ARGUMENT LESS THAN OR EQUAL TO 0, GOES TO ERROR ROUTINE
                              *    THE MAD ERROR RETURN IS OPTIONAL.  IF THE PROGRAMMER DOES NOT
                              *      SPECIFY HIS OWN, THE FORTRAN ERROR ROUTINES WILL BE USED.


  BINARY CARD NO. LOG00000
                       00004         ENTRY   LOG

        TRANSFER VECTOR

  BINARY CARD NO. LOG00001
      00000  255151465160     ERROR
      00001  432464444760     LDUMP

            LINKAGE DIRECTOR
      00002  000000000000
      00003  434627606060

      00004  0601 00 0 77775  LOG    STO     COMMON        MODE TEST--MAD OR FORTRAN
      00005  0500 00 0 00126         CLA     TXH            .
      00006  0560 00 4 00001         LDQ     1,4            .
      00007  0040 00 0 00012         TLQ     *+3            .  FORTRAN
      00010  0500 60 4 00001         CLA*    1,4            .  GET MAD ARGUMENT
      00011  0601 00 0 77775         STO     COMMON        .
 T    00012 -0754 00 0 00000         PXD                   CLEAR MQ
      00013  0131 00 0 00000         XCA                   .
      00014  0500 00 0 77775         CLA     COMMON
      00015  0100 00 0 00060         TZE     WGARG         GOES TO ERROR ROUTINE
      00016 -0120 00 0 00060         TMI     WGARG         GOES TO ERROR ROUTINE
      00017  0765 00 0 00033         LRS     27
      00020  0767 00 0 00001         ALS     1
      00021  0402 00 0 00124         SUB     CU
      00022 -0501 00 0 00114         ORA     K2
      00023  0601 00 0 77775         STO     COMMON

  BINARY CARD NO. LOG00002
 T    00024 -0754 00 0 00000         PXD
      00025  0131 00 0 00000         XCA
      00026  0771 00 0 00001         ARS     1             B1
      00027  0400 00 0 00115         ADD     K3            F+HLFSQ2...B1
1            FAP                                                                                 PAGE 2

      00030  0601 00 0 77776         STO     COMMON+1
      00031  0402 00 0 00116         SUB     K4            F-HLFSQ2...B1
      00032  0224 35 0 77776         VDH     COMMON+1,0,29 1-1+35-29...B6,Z
      00033 -0600 00 0 77776         STQ     COMMON+1      B6
      00034  0204 34 0 77776         VLM     COMMON+1,0,28 6+6+28-35...B5,ZSQUARE
      00035  0601 00 0 77777         STO     COMMON+2
      00036  0560 00 0 00123         LDQ     VLMP          B28
      00037  0204 06 0 77777         VLM     COMMON+2,0,6  28+5+6-35...B4
      00040  0402 00 0 00120         SUB     A             B4
      00041  0602 00 0 77777         SLW     COMMON+2
      00042  0502 00 0 00121         CLS     B
      00043  0224 40 0 77777         VDH     COMMON+2,0,32 5-4+35-32...B4
      00044  0131 00 0 00000         XCA                   B4
      00045  0402 00 0 77777         SUB     COMMON+2
      00046  0400 00 0 00122         ADD     D             B4
      00047  0131 00 0 00000         XCA

  BINARY CARD NO. LOG00003
      00050  0765 00 0 00007         LRS     7             BQ11
      00051  0204 32 0 77776         VLM     COMMON+1,0,26 11+6+26-35...B8
      00052 -0501 00 0 00117         ORA     K5
      00053  0300 00 0 00117         FAD     K5
      00054  0300 00 0 77775         FAD     COMMON
      00055  0131 00 0 00000         XCA
      00056  0260 00 0 00125         FMP     LOG2
      00057  0020 00 4 00001         TRA     1,4
      00060  0500 00 0 00126  WGARG  CLA     TXH           TEST FOR MAD ERROR RETURN
      00061  0560 00 4 00002         LDQ     2,4            .
      00062  0040 00 0 00064         TLQ     *+2            .  NONE SPECIFIED, USE FORTRAN
      00063  0020 60 4 00002         TRA*    2,4            .
      00064 -0634 00 4 00002         SXD     LOG-2,4
      00065  0500 00 0 77775         CLA     COMMON
      00066  0601 00 0 77774         STO     STORE
      00067  0074 00 4 00000         TSX     $ERROR,4
      00070  0 00000 0 00104         PZE     LGARG
      00071  1 00000 0 00073         TXI     *+2,,0
      00072  0 00000 0 00002         PZE     LOG-2,,0
      00073  0500 00 0 77774         CLA     STORE         ARGUMENT IN AC

  BINARY CARD NO. LOG00004
      00074  0074 00 4 00001         TSX     $LDUMP,4
      00075  0 00000 0 00003         PZE     LOG-1
      00076  0020 00 0 00100         TRA     REPT
      00077  0020 00 0 00102         TRA     OUT
      00100 -0534 00 4 00002  REPT   LXD     LOG-2,4
      00101  0020 00 4 00000         TRA     0,4           REPEAT MATH ROUTINE
      00102 -0534 00 4 00002  OUT    LXD     LOG-2,4
      00103  0020 00 4 00001         TRA     1,4           LEAVE MATH ROUTINE
      00104  602151276444     LGARG  BCI     6, ARGUMENT LESS THAN OR EQUAL TO ZERO
      00105  254563604325
      00106  626260633021
      00107  456046516025
      00110  506421436063
      00111  466071255146
      00112 -377777777777            OCT     777777777777
1            FAP                                                                                 PAGE 3

                              *                            CONSTANTS

      00113 +000000000200     K1     OCT     000000000200
      00114 +232000000000     K2     OCT     232000000000
      00115 +132404746316     K3     DEC     .707106781187B1
      00116 +265011714634     K4     DEC     .707106781187B0
      00117 +200000000000     K5     OCT     200000000000

  BINARY CARD NO. LOG00005
      00120 +004116753015     A      DEC     .25963855429B4
      00121 -002073464641     B      DEC     -.26455155161B5
      00122 +042011037513     D      DEC     2.126106178B4
      00123 +000000000031     VLMP   OCT     000000000031
      00124 +000000000401     CU     OCT     000000000401
      00125 +200542710277     LOG2   DEC     6.93147180560E-01
 ATD  00126  3 00000 0 00000  TXH    TXH                   CONSTANT FOR MAD-FORTRAN TEST


                              *                            ERASABLES

                       77775         COMMON  -206+2
                       77775  COMMON COMMON  1
                       77774  STORE  COMMON  1
                                     END
1            FAP                                                                                 PAGE 1
                        POST PROCESSOR ASSEMBLY DATA

       77773 IS THE LAST LOCATION NOT USED BY THIS PROGRAM
        127 IS THE FIRST LOCATION NOT USED BY THIS PROGRAM

0REFERENCES TO DEFINED SYMBOLS
        120      A    40
        121      B    42
        122      D    46
        124     CU    21
        113     K1
        114     K2    22
        115     K3    27
        116     K4    31
        117     K5    52,   53
          4    LOG     0,   64,   72,   75,  100,  102
        102    OUT    77
        126    TXH     5,   60
        125   LOG2    56
        100   REPT    76
        123   VLMP    36
          0  ERROR    67
          1  LDUMP    74
        104  LGARG    70
      77774  STORE    66,   73,  127
         60  WGARG    15,   16
      77775 COMMON     4,   11,   14,   23,   30,   32,   33,   34,   35,   37,   41,   43,   45,   51,   54,   65,  127

0 NO ERROR IN ABOVE ASSEMBLY.


  MAX0   BCD 05/28/67 2346.5     480         00000
1            FAP                                                                                 PAGE 1

                              *MAX0     FIND MAXIMUM VALUE SUBROUTINE..FINDS LARGEST VALUE OF ARGS
                              *              CALLING SEQUENCE TSX MAX0,4
                              *              AT LEAST 2 ARGS TXH ARG1 (FIXED POINT)
                              *                             TXH ARG2
                              *                             .  .
                              *                             .  .
                              *                             .  .
                              *                             TXH ARGN
                              *              RESULT IN AC IN FLOATING POINT, USE WITH MAD
                              *
                       00002         ENTRY   MAX0

            LINKAGE DIRECTOR
      00000  000000000000
      00001  442167006060

      00002  0774 00 1 77777  MAX0   AXT     -1,1
      00003  0500 00 4 00001  BEGIN  CLA     1,4
      00004 -0320 00 0 00024         ANA     =O777777700000
      00005  0402 00 0 00023         SUB     =O300000000000
      00006 -0100 00 0 00011         TNZ     DONE
      00007  1 77777 4 00010         TXI     *+1,4,-1
      00010  1 00001 1 00003         TXI     BEGIN,1,1
      00011  0500 60 4 00000  DONE   CLA*    0,4
      00012  0560 60 4 77777  LDQ    LDQ*    -1,4
      00013  0040 00 0 00015         TLQ     HERE           MQ LOW
      00014  0131 00 0 00000         XCA                    MQ HIGH
      00015  1 00001 4 00016  HERE   TXI     *+1,4,1
      00016  2 00001 1 00012         TIX     LDQ,1,1
      00017 -0501 00 0 00022         ORA     =O233000000000
      00020  0300 00 0 00022         FAD     =O233000000000
      00021  0020 00 4 00001         TRA     1,4
                                     END

        LITERALS
      00022  233000000000
      00023  300000000000
      00024  777777700000
1            FAP                                                                                 PAGE 1
                        POST PROCESSOR ASSEMBLY DATA

         25 IS THE FIRST LOCATION NOT USED BY THIS PROGRAM

0REFERENCES TO DEFINED SYMBOLS
         12    LDQ    16
         11   DONE     6
         15   HERE    13
          2   MAX0     0
          3  BEGIN    10

0 NO ERROR IN ABOVE ASSEMBLY.


  MAX1   BCD 05/28/67 2347.5     476         00000
1            FAP                                                                                 PAGE 1

                              *MAX1     FIND MAXIMUM VALUE SUBROUTINE..FIND LARGEST VALUE OF THE ARGS
                              *              CALLING SEQUENCE TSX MAX1,4 OR TSX XMAX0,4 (FIX,FIX)
                              *                             TXH ARG1 (FLOATING POINT)
                              *                             TXH ARG2
                              *                             .
                              *                             .
                              *                             .
                              *                             TXH ARGN
                              *              RESULT IN AC IN FLOATING PT.,FOR USE WITH MAD
                       00002         ENTRY   MAX1
                       00002         ENTRY   XMAX0

            LINKAGE DIRECTOR
      00000  000000000000
      00001  442167016060

      00002  0774 00 1 77777  MAX1   AXT     -1,1
      00003  0500 00 4 00001  BEGIN  CLA     1,4
      00004 -0320 00 0 00021         ANA     =O777777700000
      00005  0402 00 0 00020         SUB     =O300000000000
      00006 -0100 00 0 00011         TNZ     DONE
      00007  1 77777 4 00010         TXI     *+1,4,-1
      00010  1 00001 1 00003         TXI     BEGIN,1,1
      00011  0500 60 4 00000  DONE   CLA*    0,4
      00012  0560 60 4 77777  LDQ    LDQ*    -1,4
      00013  0040 00 0 00015         TLQ     HERE
      00014  0131 00 0 00000         XCA
      00015  1 00001 4 00016  HERE   TXI     *+1,4,1        MQ LOW
      00016  2 00001 1 00012         TIX     LDQ,1,1        MQ HIGH
      00017  0020 00 4 00001         TRA     1,4
                       00002  XMAX0  SYN     MAX1
                                     END

        LITERALS
      00020  300000000000
      00021  777777700000
1            FAP                                                                                 PAGE 1
                        POST PROCESSOR ASSEMBLY DATA

         22 IS THE FIRST LOCATION NOT USED BY THIS PROGRAM

0REFERENCES TO DEFINED SYMBOLS
         12    LDQ    16
         11   DONE     6
         15   HERE    13
          2   MAX1     0,   20
          3  BEGIN    10
          2  XMAX0     0,   20

0 NO ERROR IN ABOVE ASSEMBLY.


  MIN0   BCD 05/28/67 2347.5     413         00000
1            FAP                                                                                 PAGE 1

                              *MIN0          FIXED ARGUEMENT,FLOAT FUNCTION
                              *              FINDING THE MINIMUM VALUE
                              *              MAD CALLING SEQUENCE EXECUTE MIN0.(ARG1,...ARGN)
                              *              WHERE N IS ANY NUMBER
                       00002         ENTRY   MIN0

            LINKAGE DIRECTOR
      00000  000000000000
      00001  443145006060

      00002  0774 00 1 77777  MIN0   AXT     -1,1
      00003  0500 00 4 00001  BEGIN  CLA     1,4
      00004 -0320 00 0 00025         ANA     =O777777700000
      00005  0402 00 0 00024         SUB     =O300000000000
      00006 -0100 00 0 00011         TNZ     DONE
      00007  1 77777 4 00010         TXI     *+1,4,-1
      00010  1 00001 1 00003         TXI     BEGIN,1,1
      00011  0500 60 4 00000  DONE   CLA*    0,4
      00012  0560 60 4 77777  LDQ    LDQ*    -1,4
      00013  0040 00 0 00015         TLQ     *+2            MQ LOW
      00014  0020 00 0 00016         TRA     HERE           MQ HIGH
      00015  0131 00 0 00000         XCA
      00016  1 00001 4 00017  HERE   TXI     *+1,4,1
      00017  2 00001 1 00012         TIX     LDQ,1,1
      00020 -0501 00 0 00023         ORA     =O233000000000
      00021  0300 00 0 00023         FAD     =O233000000000
      00022  0020 00 4 00001         TRA     1,4
                                     END

        LITERALS
      00023  233000000000
      00024  300000000000
      00025  777777700000
1            FAP                                                                                 PAGE 1
                        POST PROCESSOR ASSEMBLY DATA

         26 IS THE FIRST LOCATION NOT USED BY THIS PROGRAM

0REFERENCES TO DEFINED SYMBOLS
         12    LDQ    17
         11   DONE     6
         16   HERE    14
          2   MIN0     0
          3  BEGIN    10

0 NO ERROR IN ABOVE ASSEMBLY.


  MIN1   BCD 05/28/67 2347.5     433         00000
1            FAP                                                                                 PAGE 1

                              *XMINO   AND MIN1 NOV 27, 1961
                              *CALLING SEQUENCE EXECUTE XI
                              *CALLING SEQUENCE EXECUTE XMIN0.(FIXED1,FIXED2,...FIXEDN)
                              *RESULT IN AC IN FIXED POINT
                              *  CALLING SEQUENCE EXECUTE MIN1.(FLOATING PT1,FLOAT2,...FLOATN)
                              *RESULT IN AC IN FLOATING POINT
                       00002         ENTRY   MIN1
                       00002         ENTRY   XMIN0

            LINKAGE DIRECTOR
      00000  000000000000
      00001  443145016060

      00002  0774 00 1 77777  MIN1   AXT     -1,1
      00003  0500 00 4 00001  BEGIN  CLA     1,4
      00004 -0320 00 0 00022         ANA     =O777777700000
      00005  0402 00 0 00021         SUB     =O300000000000       TXH INSTRUCTION CODE
      00006 -0100 00 0 00011         TNZ     DONE
      00007  1 77777 4 00010         TXI     *+1,4,-1
      00010  1 00001 1 00003         TXI     BEGIN,1,1
      00011  0500 60 4 00000  DONE   CLA*    0,4
      00012  0560 60 4 77777  LDQ    LDQ*    -1,4
      00013  0040 00 0 00015         TLQ     *+2
      00014  0020 00 0 00016         TRA     HERE
      00015  0131 00 0 00000         XCA
      00016  1 00001 4 00017  HERE   TXI     *+1,4,1
      00017  2 00001 1 00012         TIX     LDQ,1,1
      00020  0020 00 4 00001         TRA     1,4
                       00002  XMIN0  SYN     MIN1
                                     END

        LITERALS
      00021  300000000000
      00022  777777700000
1            FAP                                                                                 PAGE 1
                        POST PROCESSOR ASSEMBLY DATA

         23 IS THE FIRST LOCATION NOT USED BY THIS PROGRAM

0REFERENCES TO DEFINED SYMBOLS
         12    LDQ    17
         11   DONE     6
         16   HERE    14
          2   MIN1     0,   21
          3  BEGIN    10
          2  XMIN0     0,   21

0 NO ERROR IN ABOVE ASSEMBLY.


  MOD0   BCD 05/28/67 2347.5     317         00000
1            FAP                                                                                 PAGE 1

                              *MOD           REMAINDERING ARG1(MOD ARG2)
                              *              CALLING SEQUENCE TSX MOD,4
                              *                            TXH ARG1(FLOATING)
                              *                            TXH ARG2(FLOATING)
                              *                            3,4 RETURN FUNCTION FLOATING
                       00002         ENTRY   MOD

            LINKAGE DIRECTOR
      00000  000000000000
      00001  444624606060

      00002  0502 60 4 00001  MOD    CLS*    1,4
      00003  0241 60 4 00002         FDP*    2,4
      00004  0131 00 0 00000         XCA
      00005 -0300 00 0 00013         UFA     =O233000000000
      00006  0300 00 0 00013         FAD     =O233000000000
      00007  0131 00 0 00000         XCA
      00010  0260 60 4 00002         FMP*    2,4
      00011  0300 60 4 00001         FAD*    1,4
                              *              ANSWER IN ARITHMETIC ACCUMULATOR
      00012  0020 00 4 00003         TRA     3,4
                                     END

        LITERALS
      00013  233000000000
1            FAP                                                                                 PAGE 1
                        POST PROCESSOR ASSEMBLY DATA

         14 IS THE FIRST LOCATION NOT USED BY THIS PROGRAM

0REFERENCES TO DEFINED SYMBOLS
          2    MOD     0

0 NO ERROR IN ABOVE ASSEMBLY.


  MOUN   BCD 05/28/67 2347.5     259         00000
1                                                                                                PAGE 1

                       00000         ENTRY   MOUNT
                       00001         ENTRY   UMOUNT
                       00002         ENTRY   VERIFY
                       00003         ENTRY   LABEL
                       00004         ENTRY   TAPFIL
      00000  0101 00 0 00006  MOUNT  TIA     =HMOUNT
      00001  0101 00 0 00010  UMOUNT TIA     =HUMOUNT
      00002  0101 00 0 00011  VERIFY TIA     =HVERIFY
      00003  0101 00 0 00005  LABEL  TIA     =HLABEL
      00004  0101 00 0 00007  TAPFIL TIA     =HTAPFIL
                                     END

        LITERALS
      00005  432122254360
      00006  444664456360
      00007  632147263143
      00010  644446644563
      00011  652551312670
1                                                                                                PAGE 1
                        POST PROCESSOR ASSEMBLY DATA

         12 IS THE FIRST LOCATION NOT USED BY THIS PROGRAM

0REFERENCES TO DEFINED SYMBOLS
          3  LABEL     0
          0  MOUNT     0
          4 TAPFIL     0
          1 UMOUNT     0
          2 VERIFY     0

0 NO ERROR IN ABOVE ASSEMBLY.


  MOVE   BCD 05/28/67 2347.5    2191         00000
1            FAP                                                                                 PAGE 1

                              *      MOVE1   SETS OUTPUT BUFFER
                              *      MOVE2   SETS INPUT BUFFER
                              *      MOVE3   RESETS ALL CONDITIONS
                              *
                              * CALLING SEQUENCE
                              *      TSX     MOVE1,4
                              *      TSX(TXH, PZE, TIX, STR)   OUTPUT BUFFER
                              *      TSX     MOVE2,4
                              *      TSX(TXH, PZE, TIX, STR)   INPUT BUFFER
                              * RETURN WITH 1ST WORD IN SAC
                              *      STR     OUT,,IN
                              * STORES WORD AND GETS FOLLOWING RETURNED IN SAC
                              *              RETURN TO OUT IF OUTPUT LIST EXHAUSTED
                              *              RETURN TO IN IF INPUT LIST EXHAUSTED
                              * A NEW BUFFER MAY BE SET THROUG A CALL TO MOVE1, OR MOVE2
                              * THEN PROCESS GOES ON WITH STR **,,**
                              *      TSX     MOVE3,4


  BINARY CARD NO. MOVE0000
                       00004         ENTRY   MOVE1
                       00024         ENTRY   MOVE2
                       00046         ENTRY   MOVE3


        TRANSFER VECTOR

  BINARY CARD NO. MOVE0001
      00000  234643636060     COLT

            LINKAGE DIRECTOR
      00001  000000000000
      00002  444665250160

      00003  0 00000 0 00000  X1     PZE

                       00004  MOVE1  SYN     *
      00004 -0634 00 1 00003         SXD     X1,1
      00005  0600 00 0 00154         STZ     D
      00006  0074 00 1 00062         TSX     SET,1         SET TRAPPING STATUS
      00007 -0500 00 4 00001         CAL     1,4           GET OUTPUT BUFFER ADDRESS
      00010  0621 00 0 00114         STA     B
      00011  0774 00 1 00013         AXT     *+2,1         SET RETURN
      00012  0020 00 0 00106         TRA     SELAR         CHECK ARGUMENT TYPE
      00013 -0500 00 4 00001         CAL     1,4
      00014  0522 00 1 00105         XEC     INC,1         GET INCREMENT FOR BUFFER
      00015  0622 00 0 00115         STD     S             SET INCREMENT IN OUTPUT BUFFER
      00016  0074 00 1 00160         TSX     XSET,1
      00017 -0620 00 0 00117         SLQ     V             SET COUNTER IN OUTPUT BUFFER
      00020 -0500 00 0 00061         CAL     BRN
      00021  0630 00 0 00112         STP     N             SET BRN
      00022 -0534 00 1 00003         LXD     X1,1
      00023  0020 00 4 00002         TRA     2,4
1            FAP                                                                                 PAGE 2


  BINARY CARD NO. MOVE0002
      00024 -0634 00 1 00003  MOVE2  SXD     X1,1
      00025  0600 00 0 00153         STZ     C
      00026  0074 00 1 00062         TSX     SET,1         SET TRAPPING STATUS
      00027 -0500 00 4 00001         CAL     1,4           GET INPUT BUFFER  ADDRESS
      00030  0621 00 0 00123         STA     A
      00031  0774 00 1 00033         AXT     *+2,1         SET RETURN
      00032  0020 00 0 00106         TRA     SELAR         CHECK ARGUMENT TYPE
      00033 -0500 00 4 00001         CAL     1,4
      00034  0522 00 1 00105         XEC     INC,1         GET BUFFER INCREMENT
      00035  0622 00 0 00122         STD     U             SET INCREMENT IN INPUT BUFFER
      00036  0074 00 1 00160         TSX     XSET,1
      00037 -0620 00 0 00125         SLQ     W             SET COUNTER IN INPUT BUFFER
      00040 -0500 00 0 00061         CAL     BRN
      00041  0630 00 0 00120         STP     E             SET BRN
      00042  0774 00 1 00000         AXT     ,1
      00043  0500 60 0 00123         CLA*    A             GET WORD FROM INPUT BUFFER
      00044 -0534 00 1 00003         LXD     X1,1
      00045  0020 00 4 00002         TRA     2,4


      00046 -0500 00 0 00157  MOVE3  CAL     SW            ZERO IF STATUS RESET
      00047  0100 00 4 00001         TZE     1,4

  BINARY CARD NO. MOVE0003
      00050 -0500 00 0 00156         CAL     ZERO          RESTORE LOCATION 0
      00051  0602 00 0 00000         SLW     0
      00052 -0500 00 0 00155         CAL     TWO           RESTORE LOCATION 2
      00053  0602 00 0 00002         SLW     2
      00054  0600 00 0 00157         STZ     SW            RESET SWITCH
      00055  0560 00 0 00061         LDQ     BRN           AND BRANCHES
      00056 -0620 00 0 00120         SLQ     E
      00057 -0620 00 0 00112         SLQ     N
      00060  0020 00 4 00001         TRA     1,4
 A    00061  3 00000 0 00000  BRN    BRN


      00062 -0500 00 0 00157  SET    CAL     SW
      00063 -0100 00 1 00001         TNZ     1,1           RETURN IF TRAPPING STATUS ALREADY SET
      00064 -0625 00 0 00157         STL     SW
      00065 -0500 00 0 00000         CAL     0             SAVE LOCATION 0
      00066  0602 00 0 00156         SLW     ZERO
      00067 -0500 00 0 00002         CAL     2             SAVE LOCATION 2
      00070  0602 00 0 00155         SLW     TWO
      00071 -0500 60 0 00000         CAL*    $COLT
      00072  0621 00 0 00106         STA     SELAR
      00073  0771 00 0 00022         ARS     18

  BINARY CARD NO. MOVE0004
      00074  0621 00 0 00107         STA     MDL
      00075  0502 00 0 00110         CLS     FR2           SET TRANSFER IN LOCATION 2
      00076  0601 00 0 00002         STO     2
      00077  0020 00 1 00001         TRA     1,1
1            FAP                                                                                 PAGE 3

      00100  0074 00 1 00107         TSX     MDL,1         MAD LIST
      00101  0074 00 1 00107         TSX     MDL,1         MAD LIST
      00102  0502 00 0 00171         CLS     =O1000001     MAD SINGLE ARG
      00103  0500 00 0 00172         CLA     =O77777000001 FORTRAN
      00104  0500 00 0 00172         CLA     =O77777000001 FAP
      00105  0500 00 0 00166  INC    CLA     =1            NO ARG
      00106 -3 00000 0 00000  SELAR  BRA     **
      00107 -3 00000 0 00000  MDL    BRA     **


      00110  3 00000 0 00110  FR2    BRN     *             LANDS HERE WHEN TRAP TO LOCATION 2
      00111  0634 00 1 00003         SXA     X1,1
      00112 -3 00000 0 00120  N      BRA     E             BRN ONCE MOVE1 CALLED

      00113 -0534 00 1 00154         LXD     D,1
      00114  0601 00 1 00000  B      STO     **,1          STORE IN OUTPUT BUFFER
      00115  1 00000 1 00116  S      TXI     *+1,1,**
      00116 -0634 00 1 00154         SXD     D,1
      00117  0 00000 1 00135  V      ***     H,1,**        TXL IF FORWARD, TXH IF BACKWARD

  BINARY CARD NO. MOVE0005
      00120 -3 00000 0 00127  E      BRA     TRAP          BRN ONCE MOVE2 CALLED

      00121 -0534 00 1 00153  P      LXD     C,1
      00122  1 00000 1 00123  U      TXI     *+1,1,**
      00123  0500 00 1 00000  A      CLA     **,1          PICKS FROM INPUT BUFFER
      00124 -0634 00 1 00153         SXD     C,1
      00125  0 00000 1 00141  W      ***     J,1,**        TXL IF FORWARD, TXH IF BACKWARD

      00126  0534 00 1 00003         LXA     X1,1
      00127  0020 60 0 00000  TRAP   TRA*    0             RETURN TO STR+1

      00130  3 00000 0 00130  K      BRN     *             LANDS HERE AFTER SETTING NEW OUTPUT BUFFER
      00131  0634 00 1 00003         SXA     X1,1
      00132  0502 00 0 00110         CLS     FR2
      00133  0601 00 0 00002         STO     2
      00134  0020 00 0 00120         TRA     E

      00135  0502 00 0 00130  H      CLS     K
      00136  0601 00 0 00002         STO     2
      00137  0074 00 1 00146         TSX     GSTR,1
      00140  0020 00 0 00143         TRA     F
      00141  0074 00 1 00146  J      TSX     GSTR,1
      00142  0771 00 0 00022         ARS     18
      00143  0621 00 0 00145  F      STA     G             SET RETURN TO C.P.

  BINARY CARD NO. MOVE0006
      00144  0534 00 1 00003         LXA     X1,1
      00145  0020 00 0 00000  G      TRA     **            RETURN WHEN INPUT OR OUTPUT EXHAUSTED

      00146 -0500 00 0 00000  GSTR   CAL     0             GET LOCATION ZERO
      00147  0402 00 0 00166         SUB     =1            STR INSTRUCTION ADDRESS
      00150  0621 00 0 00151         STA     *+1
      00151 -0500 00 0 00000         CAL     **            STR INSTRUCTION
      00152  0020 00 1 00001         TRA     1,1
1            FAP                                                                                 PAGE 4

      00153  0 00000 0 00000  C      PZE                   INDEX IN INPUT BUFFER
      00154  0 00000 0 00000  D      PZE                   INDEX IN OUTPUT BUFFER
      00155  0 00000 0 00000  TWO    PZE                   SAVING LOCATION 2
      00156  0 00000 0 00000  ZERO   PZE                   SAVING LOCATION 0
      00157  0 00000 0 00000  SW     PZE                   ZERO IF NOT IN TRAPPING STATUS


                       00160  XSET   SYN     *
      00160 -0120 00 0 00163         TMI     *+3           SKIP IF BACKW
      00161 -0501 00 0 00167         ORA     =O500000
      00162  0760 00 0 00006         COM
      00163  0400 00 0 00170         ADD     =O500001      TXL ,,C2(N)    OR    TXH ,,N-1
      00164 -0765 00 0 00022         LGR     18
      00165  0020 00 1 00001         TRA     1,1
                                     END

        LITERALS
      00166  000000000001
      00167  000000500000

  BINARY CARD NO. MOVE0007
      00170  000000500001
      00171  000001000001
      00172  077777000001
1            FAP                                                                                 PAGE 1
                        POST PROCESSOR ASSEMBLY DATA

        173 IS THE FIRST LOCATION NOT USED BY THIS PROGRAM

0REFERENCES TO DEFINED SYMBOLS
        123      A    30,   43
        114      B    10
        153      C    25,  121,  124
        154      D     5,  113,  116
        120      E    41,   56,  112,  134
        143      F   140
        145      G   143
        135      H   117
        141      J   125
        130      K   135
        112      N    21,   57
        121      P
        115      S    15
        122      U    35
        117      V    17
        125      W    37
        157     SW    46,   54,   62,   64
          3     X1     4,   22,   24,   44,  111,  126,  131,  144
         61    BRN    20,   40,   55
        110    FR2    75,  132
        105    INC    14,   34
        107    MDL    74,  100,  101
         62    SET     6,   26
        155    TWO    52,   70
          0   COLT    71
        146   GSTR   137,  141
        127   TRAP   120
        160   XSET    16,   36,  160
        156   ZERO    50,   66
          4  MOVE1     0,    4
         24  MOVE2     0
         46  MOVE3     0
        106  SELAR    12,   32,   72

0 NO ERROR IN ABOVE ASSEMBLY.


  MTX0   BCD 05/28/67 2347.5     732         00000
1            FAP                                                                                 PAGE 1

                              *      AUGUST 21,1962
                              *MTX       N-DIMENSIONAL MATRIX SUBSCRIPTION SUBROUTINE JULY 13, 1961

  BINARY CARD NO. MTX00000
                       00002         ENTRY   .MTX
                                             E.G.,A(I1,I2,I3),N1XN2XN3,A(1,1,1)=A(B)
                                             THEN LINEAR SUBSCRIPT IS
                                             ((I1-1)*N2+(I2-1))N3+(I3-1)+B
                                                           CALLING SEQUENCE..
                                                           TSX .MTX,4
                                                           TXHA,0,D
                                                           TXH I1
                                                           ...
                                                           TXH IN
                                                           A IS ADDR OF A(0)
                                                           D IS ADDR OF DIM. VEC.

            LINKAGE DIRECTOR

  BINARY CARD NO. MTX00001
      00000  000000000000
      00001  334463676060

      00002  0500 00 4 00001   .MTX  CLA     1,4           GET ADD. OF DIM. VECTOR
      00003  0771 00 0 00022         ARS     18
      00004  0621 00 0 00007         STA     IAT2
      00005  0402 00 0 00032         SUB     =1
      00006  0621 00 0 00027         STA     FPL1          SET ADDRESS OF ARRAY BASE
      00007  0502 00 0 00000   IAT2  CLS     **            CHECK FOR SPECIAL SUBSCRIPT FUNCTION
      00010  0120 60 0 00007         TPL*    IAT2          IF YES--GO TO IT
      00011  0737 00 1 00000         PAC     ,1            (-N) TO IR 1
      00012  0400 00 0 00007         ADD     IAT2          COMPUTE
      00013  0402 00 0 00032         SUB     =1            AND SET END OF DIM
      00014  0621 00 0 00023         STA     IAT1          VECTOR+ONE
 T    00015 -0754 00 0 00000         PXD                   ZERO INITIAL SUM
      00016  0400 60 4 00002   PL1   ADD*    2,4           SUM+I(J),J=1,...,N
      00017  0402 00 0 00032         SUB     =1            SUM+I(J)-1
      00020  1 00001 1 00021         TXI     *+1,1,1
      00021 -3 00000 1 00027         TXL     FPL1,1,0      TEST FOR (N-1) MULTIPLIES,K=K+1
      00022  0601 00 0 00031         STO     TS1
      00023  0560 00 1 00000  IAT1   LDQ     **,1

  BINARY CARD NO. MTX00002
      00024  0204 17 0 00031         VLM     TS1,,15       (SUM+I(J)-1)*N(K),K=2,...,N
      00025  0763 00 0 00017         LLS     15            SUM=(SUM+I(J)-1)*N(K))
      00026  1 77777 4 00016         TXI     PL1,4,-1      J=J+1
      00027  0400 00 0 00000   FPL1  ADD     **            SUM+I(J)-1+B
      00030  0020 00 4 00003         TRA     3,4           RETURN
      00031                    TS1   BSS     1
                       00032   END   SYN     *
                                     END

        LITERALS
1            FAP                                                                                 PAGE 2

  BINARY CARD NO. MTX00003
      00032  000000000001
1            FAP                                                                                 PAGE 1
                        POST PROCESSOR ASSEMBLY DATA

         33 IS THE FIRST LOCATION NOT USED BY THIS PROGRAM

0REFERENCES TO DEFINED SYMBOLS
         32    END    32
         16    PL1    26
         31    TS1    22,   24
         27   FPL1     6,   21
         23   IAT1    14
          7   IAT2     4,   10,   12
          2   .MTX     0

0 NO ERROR IN ABOVE ASSEMBLY.


  NCOM   BCD 05/28/67 2347.5     320         00000
1            FAP                                                                                 PAGE 1

                              *      NCOM, CALLS NEXCOM IN SUPERVISOR.
                              * MAD  EXECUTE NEXCOM.(ARG1, ARG2)
                              * FAP  TSX     NCOM,4
                              *      PZE     ARG1
                              *      PZE     ARG2
                              * FORTRAN  CALL NCOM(ARG1, ARG2)
                              *      SEPTEMBER 64          LOUIS POUZIN
                              *


  BINARY CARD NO. NCOM0000
                       00003         ENTRY   NCOM


        TRANSFER VECTOR

  BINARY CARD NO. NCOM0001
      00000  452567234644     NEXCOM

            LINKAGE DIRECTOR
      00001  000000000000
      00002  452346446060

                       00003  NCOM   SYN     *
      00003 -0500 60 4 00001         CAL*    1,4
      00004  0560 60 4 00002         LDQ*    2,4
      00005  1 77776 4 00000         TXI     $NEXCOM,4,-2
                                     END
1            FAP                                                                                 PAGE 1
                        POST PROCESSOR ASSEMBLY DATA

          6 IS THE FIRST LOCATION NOT USED BY THIS PROGRAM

0REFERENCES TO DEFINED SYMBOLS
          3   NCOM     0,    3
          0 NEXCOM     5

0 NO ERROR IN ABOVE ASSEMBLY.


  NEXC   BCD 05/28/67 2347.5     188         00000
1            FAP                                                                                 PAGE 1

                              *      NEXCOM  DUMMY ENTRY TO SUPERVISOR
                              *      SEPTEMBER 64          L. POUZIN
                              *

  BINARY CARD NO. NEXCOM00
                       00000         ENTRY   NEXCOM

  BINARY CARD NO. NEXCOM01
      00000  0101 00 0 00001  NEXCOM TIA     =HNEXCOM
                                     END

        LITERALS
      00001  452567234644
1            FAP                                                                                 PAGE 1
                        POST PROCESSOR ASSEMBLY DATA

          2 IS THE FIRST LOCATION NOT USED BY THIS PROGRAM

0REFERENCES TO DEFINED SYMBOLS
          0 NEXCOM     0

0 NO ERROR IN ABOVE ASSEMBLY.


  OCBC   BCD 05/28/67 2347.5     592         00000
1            FAP                                                                                 PAGE 1

                              *      OCABC   CONVERTS ADDRESS FIELD INTO A BCD OCTAL WORD
                              *      OCDBC   CONVERTS DECREMENT FIELD INTO A BCD OCTAL WORD
                              *      OCLBC   CONVERTS LEFT HALF WORD INTO A BCD OCTAL WORD
                              *      OCRBC   CONVERTS RIGHT HALF WORD INTO A BCD OCTAL WORD
                       00005         ENTRY   OCABC
                       00002         ENTRY   OCDBC
                       00015         ENTRY   OCRBC
                       00012         ENTRY   OCLBC

            LINKAGE DIRECTOR
      00000  000000000000
      00001  462321222360

                       00000  X4     SYN     *-2
      00002 -0500 60 4 00001  OCDBC  CAL*    1,4
      00003  0771 00 0 00022         ARS     18            SET AEG IN ADDRESS
      00004  0020 00 0 00006         TRA     OCABC+1
      00005 -0500 60 4 00001  OCABC  CAL*    1,4
      00006 -0320 00 0 00033         ANA     =O77777       KEEP ADDRESS
      00007  0560 00 0 00035         LDQ     =H 00000      SET LEFT BLANK
      00010 -0600 00 0 00032         STQ     A
      00011  0020 00 0 00020         TRA     E
      00012 -0500 60 4 00001  OCLBC  CAL*    1,4
      00013  0771 00 0 00022         ARS     18            SET IN ADDRESS
      00014  0020 00 0 00016         TRA     OCRBC+1
      00015 -0500 60 4 00001  OCRBC  CAL*    1,4
      00016 -0320 00 0 00034         ANA     =O777777      KEEP RIGHT HALF
      00017  0600 00 0 00032         STZ     A             ERASE LEFT BLANKS
      00020 -0765 00 0 00022  E      LGR     18
      00021 -0634 00 4 00000         SXD     X4,4
      00022  0774 00 4 00006         AXT     6,4
      00023  0767 00 0 00003  B      ALS     3             INSERT ZERO AND 3 BITS
      00024 -0763 00 0 00003         LGL     3             IN EVERY 6 BITS GROUP
      00025  2 00001 4 00023         TIX     B,4,1         6 TIMES
      00026 -0602 00 0 00032         ORS     A             INSERT LEFT BLANK IF ANY
      00027  0500 00 0 00032         CLA     A             LOAD SAC
      00030 -0534 00 4 00000         LXD     X4,4
      00031  0020 00 4 00002         TRA     2,4
      00032  0 00000 0 00000  A      PZE
                                     END

        LITERALS
      00033  000000077777
      00034  000000777777
      00035  600000000000
1            FAP                                                                                 PAGE 1
                        POST PROCESSOR ASSEMBLY DATA

         36 IS THE FIRST LOCATION NOT USED BY THIS PROGRAM

0REFERENCES TO DEFINED SYMBOLS
         32      A    10,   17,   26,   27
         23      B    25
         20      E    11
          0     X4     2,   21,   30
          5  OCABC     0,    4
          2  OCDBC     0
         12  OCLBC     0
         15  OCRBC     0,   14

0 NO ERROR IN ABOVE ASSEMBLY.


  OPEN   BCD 10/12/70 1341.2     290         00000
1                                                                                                PAGE 1

                       00000         ENTRY   OPEN
                       00001         ENTRY   FCHECK
                       00002         ENTRY   FWAIT
                       00003         ENTRY   BUFFER
                       00004         ENTRY   CLOSE
                       00005         ENTRY   UPDATE
      00000  0101 00 0 00012  OPEN   TIA     =HOPEN
      00001  0101 00 0 00010  FCHECK TIA     =HFCHECK
      00002  0101 00 0 00011  FWAIT  TIA     =HFWAIT
      00003  0101 00 0 00006  BUFFER TIA     =HBUFFER
      00004  0101 00 0 00007  CLOSE  TIA     =HCLOSE
      00005  0101 00 0 00013  UPDATE TIA     =HUPDATE
                                     END

        LITERALS
      00006  226426262551
      00007  234346622560
      00010  262330252342
      00011  266621316360
      00012  464725456060
      00013  644724216325
1                                                                                                PAGE 1
                        POST PROCESSOR ASSEMBLY DATA

         14 IS THE FIRST LOCATION NOT USED BY THIS PROGRAM

0REFERENCES TO DEFINED SYMBOLS
          0   OPEN     0
          4  CLOSE     0
          2  FWAIT     0
          3 BUFFER     0
          1 FCHECK     0
          5 UPDATE     0

0 NO ERROR IN ABOVE ASSEMBLY.


  PAD0   BCD 10/12/70 1341.2     803         00000
1      M1416 3845  PETER R. BOS ..... PAD, BZL, NZL, ZBL, NBL ......             12/15/69 1524.0 PAGE 1

                                     PCC     ON
                                     NOLNK
                       00000         ENTRY   PAD           ARBITRARY PADDING
                       00014         ENTRY   BZL           BLANK LEADING ZEROS
                       00022         ENTRY   NZL           NULL LEADING ZEROS
                       00030         ENTRY   ZBL           ZERO LEADING BLANKS
                       00036         ENTRY   NBL           NULL LEADING BLANKS
                                     LBL     PAD00000
                                     PCC     OFF

      00000  0634 00 1 00012  PAD    SXA     PADX1,1       SAVE INDEX
      00001  0322 60 4 00001         ERA*    1,4           MAKE ALL A'S ZERO
      00002  0774 00 1 00044         AXT     36,1          SIX CHARACTERS
      00003 -0765 00 0 00006         LGR     6             SHIFT RIGHT
      00004  0100 00 0 00006         TZE     *+2           .. UNTIL ALL GONE
      00005  2 00006 1 00003         TIX     *-2,1,6       COUNT CHARACTERS SHIFTED
      00006 -0500 60 4 00002         CAL*    2,4           GET B'S TO AC
      00007  0322 60 4 00001         ERA*    1,4           INVERT FOR FINAL ERA
      00010 -0763 00 1 00052         LGL     42,1          SHIFT BACK INTO AC
      00011  0322 60 4 00001         ERA*    1,4           RESTORE PROPER CHARACTER CODES
      00012  0774 00 1 00000  PADX1  AXT     -,1           RESTORE INDEX
      00013  0020 00 4 00003         TRA     3,4           RETURN

      00014  0634 00 4 00020  BZL    SXA     BZLX4,4       SAVE LINKAGE
      00015  0074 00 4 00000         TSX     PAD,4         CALL CONVERTER
      00016  3 00000 0 00044         PAR     =O000000000000 ..
      00017  3 00000 0 00046         PAR     =O606060606060 ..
      00020  0774 00 4 00000  BZLX4  AXT     -,4           RESTORE LINKAGE
      00021  0020 00 4 00001         TRA     1,4           RETURN

      00022  0634 00 4 00026  NZL    SXA     NZLX4,4       SAVE LINKAGE
      00023  0074 00 4 00000         TSX     PAD,4         CALL CONVERTER
      00024  3 00000 0 00044         PAR     =O000000000000 ..
      00025  3 00000 0 00045         PAR     =O575757575757 ..
      00026  0774 00 4 00000  NZLX4  AXT     -,4           RESTORE LINKAGE
      00027  0020 00 4 00001         TRA     1,4           RETURN

      00030  0634 00 4 00034  ZBL    SXA     ZBLX4,4       SAVE LINKAGE
      00031  0074 00 4 00000         TSX     PAD,4         CALL CONVERTER
      00032  3 00000 0 00046         PAR     =O606060606060 ..
      00033  3 00000 0 00044         PAR     =O000000000000 ..
      00034  0774 00 4 00000  ZBLX4  AXT     -,4           RESTORE LINKAGE
      00035  0020 00 4 00001         TRA     1,4           RETURN

      00036  0634 00 4 00042  NBL    SXA     NBLX4,4       SAVE LINKAGE
      00037  0074 00 4 00000         TSX     PAD,4         CALL CONVERTER
      00040  3 00000 0 00046         PAR     =O606060606060 ..
      00041  3 00000 0 00045         PAR     =O575757575757 ..
      00042  0774 00 4 00000  NBLX4  AXT     -,4           RESTORE LINKAGE
      00043  0020 00 4 00001         TRA     1,4           RETURN

                                     END

        LITERALS
      00044  000000000000
      00045  575757575757
1      M1416 3845  PETER R. BOS ..... PAD, BZL, NZL, ZBL, NBL ......             12/15/69 1524.0 PAGE 2

      00046  606060606060
1      M1416 3845  PETER R. BOS ..... PAD, BZL, NZL, ZBL, NBL ......             12/15/69 1524.0 PAGE 1
                        POST PROCESSOR ASSEMBLY DATA

         47 IS THE FIRST LOCATION NOT USED BY THIS PROGRAM

0REFERENCES TO DEFINED SYMBOLS
         14    BZL     0
         36    NBL     0
         22    NZL     0
          0    PAD     0,   15,   23,   31,   37
         30    ZBL     0
         20  BZLX4    14
         42  NBLX4    36
         26  NZLX4    22
         12  PADX1     0
         34  ZBLX4    30

0 NO ERROR IN ABOVE ASSEMBLY.


  PACK   BCD 05/28/67 2347.5    2500         00000
1           FAP                                                                                  PAGE 1

                              *              PACK-UNPACK PROGRAM
                              *              CALLING SEQUENCE...
                              *              EXECUTE PAKR.(K...K(N),W...W(P))
                              *              TAKES RIGHT ADJUSTED CHARACTERS FROM SUCCESSIVE
                              *              REGISTERS OF K AND PACKS THEM IN SUCCESSIVE
                              *              WORDS OF W.
                              *              IF A WORD IS INCOMPLETE WHEN K IS EXHAUSTED,
                              *              THE WORD IS FILLED OUT WITH TRAILING BLANKS
                              *              NO. OF WORDS FILLED RETURNED IN AC
                              *
                              *              EXECUTE PAKL.(K...K(N),W...W(P))
                              *              THE SAME AS ABOVE FOR LEFT ADJUSTED
                              *              CHARACTERS
                              *
                              *
                              *              CALLING SEQUENCE...
                              *              EXECUTE UNPAKR.(W...W(N),K...K(P))
                              *              TAKES SUCCESSIVE WORDS FROM W AND UNPACKS
                              *              THEM PUTTING ONE CHARACTER IN EACH
                              *              REGISTER OF K-RIGHT JUSTIFIED
                              *              NO. OF CHARACTERS IN K RETURNED IN AC
                              *
                              *              EXECUTE UNPAKL.(W...W(N),K...K(P))
                              *              THE SAME AS ABOVE FOR RIGHT ADJUSTED CHARACTERS
                              *

  BINARY CARD NO. PAC00000
                       00060         ENTRY   PAKR
                       00067         ENTRY   PAKL
                       00143         ENTRY   UNPAKR
                       00152         ENTRY   UNPAKL
                              *

            LINKAGE DIRECTOR

  BINARY CARD NO. PAC00001
      00000  000000000000
      00001  472142516060

      00002  0634 00 4 00137  PAK    SXA     XR,4
      00003  0634 00 2 00140         SXA     XR+1,2
      00004  0634 00 1 00141         SXA     XR+2,1
      00005 -0500 00 4 00001         CAL     1,4
      00006  0074 00 2 00161         TSX     LSTCK,2
      00007  0621 00 0 00030         STA     PST1
      00010  0622 00 0 00036         STD     PEST1
      00011  0630 00 0 00036         STP     PEST1
      00012 -0634 00 1 00035         SXD     PEST1-1,1
      00013 -0500 00 4 00002         CAL     2,4
      00014  0074 00 2 00161         TSX     LSTCK,2
      00015  0621 00 0 00034         STA     PST2
      00016  0621 00 0 00027         STA     PST3
      00017  0621 00 0 00056         STA     BL1
      00020  0622 00 0 00043         STD     PEST2
      00021  0630 00 0 00043         STP     PEST2
      00022 -0634 00 1 00042         SXD     PEST2-1,1
1           FAP                                                                                  PAGE 2

      00023 -0634 00 1 00057         SXD     BOUT,1

  BINARY CARD NO. PAC00002
      00024  0774 00 1 00000         AXT     0,1
      00025  0774 00 2 00000         AXT     0,2
      00026  0774 00 4 00000         AXT     0,4
      00027  0600 00 2 00000   PST3  STZ     **,2
      00030  0 00000 1 00000   PST1  ***     **,1          SHIFT CHARACTERS INTO
      00031  0 00000 0 00000         ***     **            SUCCESSIVE POSTITIONS OF AC
      00032 -0320 00 0 00221         ANA     =O77
      00033  0767 00 4 00036         ALS     30,4
      00034 -0602 00 2 00000   PST2  ORS     **,2          STORE IN OUTPUT WORD
      00035  1 00000 1 00036         TXI     *+1,1,**
      00036  0 00000 1 00040   PEST1 ***     *+2,1,**      IS INPUT LIST EXHAUST
      00037  0020 00 0 00046         TRA     BLOUT         YES
      00040  1 00006 4 00041         TXI     *+1,4,6       NO
      00041 -3 00036 4 00030  PCK    TXL     PST1,4,30     HAS OUTPUT WORD BEEN FILLED
      00042  1 00000 2 00043         TXI     *+1,2,**      YES
      00043  0 00000 2 00026   PEST2 ***     PST3-1,2,**   GET NEW OUTPUT WORD
      00044  0500 00 0 00043   POUT  CLA     PEST2         PUT NO. WORDS IN OUTPUT
      00045  0020 00 0 00133         TRA     UOUT+1        LIST IN AC

      00046  1 00006 4 00047   BLOUT TXI     *+1,4,6       STORE TRAILING BLANKS
      00047  3 00036 4 00057         TXH     BOUT,4,30

  BINARY CARD NO. PAC00003
      00050  0754 00 4 00000         PXA     ,4
      00051  0402 00 0 00220         SUB     =36
      00052  0621 00 0 00055         STA     *+3
      00053 -0754 00 0 00000         ZAC
      00054  0560 00 0 00215         LDQ     BLNK
      00055 -0763 00 0 00000         LGL     **
      00056 -0602 00 2 00000     BL1 ORS     **,2
      00057  1 00000 2 00044    BOUT TXI     POUT,2,**
      00060  0500 00 0 00065   PAKR  CLA     CLA           FOR RIGHT-ADJUSTED CHARACTERS
      00061  0601 00 0 00030         STO     PST1
      00062  0500 00 0 00066         CLA     NOP
      00063  0601 00 0 00031         STO     PST1+1
      00064  0020 00 0 00002         TRA     PAK
      00065  0500 00 1 00000   CLA   CLA     0,1
      00066  0020 00 0 00033  NOP    TRA     PST1+3

      00067  0500 00 0 00074   PAKL  CLA     LDQ           FOR LEFT-ADJUSTED CHARACTERS
      00070  0601 00 0 00030         STO     PST1
      00071  0500 00 0 00075         CLA     LGL
      00072  0601 00 0 00031         STO     PST1+1
      00073  0020 00 0 00002         TRA     PAK

  BINARY CARD NO. PAC00004
      00074  0560 00 1 00000   LDQ   LDQ     0,1
      00075 -0763 00 0 00006  LGL    LGL     6
      00076  0634 00 4 00137  UNPAK  SXA     XR,4
      00077  0634 00 2 00140         SXA     XR+1,2
      00100  0634 00 1 00141         SXA     XR+2,1
      00101 -0500 00 4 00001         CAL     1,4
      00102  0074 00 2 00161         TSX     LSTCK,2       SCANS MAD ARGUMENT
1           FAP                                                                                  PAGE 3

      00103  0621 00 0 00120         STA     LST1          TELLS IF LIST AND
      00104  0622 00 0 00131         STD     TEST1         IF LIST FORWARD OR
      00105  0630 00 0 00131         STP     TEST1         BACKWARD
      00106 -0634 00 1 00130         SXD     TEST1-1,1
      00107 -0500 00 4 00002         CAL     2,4
      00110  0074 00 2 00161         TSX     LSTCK,2
      00111  0621 00 0 00123         STA     LST2          ADDRESS=BEGINNING OF LIST
      00112  0622 00 0 00125         STD     TEST2    DECREMENT=LENGTH OF LIST(+,BACKWARD.-,FORWARD)
      00113  0630 00 0 00125         STP     TEST2         PREFIX=TXL,BACKWARD.TXH,FORWARD
      00114 -0634 00 1 00124         SXD     TEST2-1,1     XR1=-1 IF FORWARD.=+1 IF BACKWARD
      00115  0774 00 1 00000         AXT     ,1
      00116  0774 00 2 00000         AXT     0,2
      00117  0774 00 4 00006         AXT     6,4

  BINARY CARD NO. PAC00005
      00120  0560 00 1 00000   LST1  LDQ     **,1          PACKED WORD
      00121  0 00000 0 00000         ***     **            MOVE CHARACTERS INTO AC
      00122  0 00000 0 00000         ***     **            ONE AT A TIME
      00123  0602 00 2 00000   LST2  SLW     **,2          STORE CHARACTER IN OUTPUT LIST
      00124  1 00000 2 00125         TXI     *+1,2,**
      00125  0 00000 2 00127   TEST2 ***     *+2,2,**      IS INPUT LIST EXHAUSTED
      00126  0020 00 0 00132         TRA     UOUT          YES
      00127  2 00001 4 00121         TIX     LST1+1,4,1    NO. CHECK INPUT WORD EXHAUSTED
      00130  1 00000 1 00131         TXI     *+1,1,**      GET NEW INPUT WORD
      00131  0 00000 1 00117   TEST1 ***     LST1-1,1,**
      00132  0500 00 0 00125   UOUT  CLA     TEST2         PUT NUMBER OF CHARACTERS
      00133 -0120 00 0 00136         TMI     *+3           IN OUTPUT LIST IN AC
      00134  0756 00 2 00000         PCA     ,2
      00135  0020 00 0 00137         TRA     XR
      00136  0754 00 2 00000         PXA     ,2
      00137  0774 00 4 00000  XR     AXT     ,4            RESTORE XRS
      00140  0774 00 2 00000         AXT     ,2
      00141  0774 00 1 00000         AXT     ,1
      00142  0020 00 4 00003         TRA     3,4           AND RETURN

      00143  0500 00 0 00150  UNPAKR CLA     R1            FOR RIGHT-ADJUSTED CHARACTERS

  BINARY CARD NO. PAC00006
      00144  0601 00 0 00121         STO     LST1+1
      00145  0500 00 0 00151         CLA     R2
      00146  0601 00 0 00122         STO     LST1+2
      00147  0020 00 0 00076         TRA     UNPAK
      00150 -0754 00 0 00000   R1    ZAC
      00151 -0763 00 0 00006   R2    LGL     6

      00152  0500 00 0 00157  UNPAKL CLA     L1            FOR LEFT ADJUSTED CHARACTERS
      00153  0601 00 0 00121         STO     LST1+1
      00154  0500 00 0 00160         CLA     L2
      00155  0601 00 0 00122         STO     LST1+2
      00156  0020 00 0 00076         TRA     UNPAK
      00157 -0763 00 0 00006   L1    LGL     6
      00160  0767 00 0 00036  L2     ALS     30
      00161  0634 00 2 00212   LSTCK SXA     RET,2         CHECK MAD LIST FOR DIRECTION
      00162  0600 00 0 00214         STZ     TEMP          RETURN WITH AC = TXL,BCKWRD OR TXH,FORWRD
      00163  0621 00 0 00214         STA     TEMP          HEAD OF LIST,,LENGTH OF LIST
      00164 -0737 00 2 00000         PDC     ,2            LENGTH OF LIST POS OF BCKWRD,NEG OF FORWRD
1           FAP                                                                                  PAGE 4

      00165 -3 00000 2 00206         TXL     NOLST,2,0     XR1=1,IFBCKWRD.  -1,IFFORWRD
      00166 -0634 00 2 00172         SXD     FORDR,2
      00167  0734 00 2 00000         PAX     ,2

  BINARY CARD NO. PAC00007
      00170  0622 00 0 00171         STD     *+1
      00171  2 00000 2 00201         TIX     RORDR,2,**
      00172  1 00000 2 00173   FORDR TXI     *+1,2,**
      00173  1 77777 2 00174         TXI     *+1,2,-1
      00174 -0754 00 2 00000         PXD     ,2
      00175  0400 00 0 00214         ADD     TEMP
      00176 -0501 00 0 00216         ORA     TXH
      00177  0774 00 1 77777         AXT     -1,1
      00200  0020 00 0 00212         TRA     RET
      00201 -0754 00 2 00000  RORDR  PXD     ,2
      00202  0400 00 0 00214         ADD     TEMP
      00203 -0501 00 0 00217         ORA     TXL
      00204  0774 00 1 00001         AXT     1,1
      00205  0020 00 0 00212         TRA     RET
      00206 -0754 00 2 00000  NOLST  PXD     ,2
      00207  0400 00 0 00214         ADD     TEMP
      00210 -0501 00 0 00216         ORA     TXH
      00211  0774 00 1 00000         AXT     0,1
      00212  0774 00 2 00000   RET   AXT     ,2
      00213  0020 00 2 00001         TRA     1,2


  BINARY CARD NO. PAC00008
      00214  0 00000 0 00000   TEMP  PZE     0
      00215 -206060606060      BLNK  OCT     606060606060
      00216  3 00000 0 00000   TXH   TXH     0,,0
      00217 -3 00000 0 00000   TXL   TXL     0,,0
                                     END

        LITERALS
      00220  000000000044
      00221  000000000077
1           FAP                                                                                  PAGE 1
                        POST PROCESSOR ASSEMBLY DATA

        222 IS THE FIRST LOCATION NOT USED BY THIS PROGRAM

0REFERENCES TO DEFINED SYMBOLS
        157     L1   152
        160     L2   154
        150     R1   143
        151     R2   145
        137     XR     2,    3,    4,   76,   77,  100,  135
         56    BL1    17
         65    CLA    60
         74    LDQ    67
         75    LGL    71
         66    NOP    62
          2    PAK    64,   73
         41    PCK
        212    RET   161,  200,  205
        216    TXH   176,  210
        217    TXL   203
        215   BLNK    54
         57   BOUT    23,   47
        120   LST1   103,  127,  131,  144,  146,  153,  155
        123   LST2   111
         67   PAKL     0
         60   PAKR     0
         44   POUT    57
         30   PST1     7,   41,   61,   63,   66,   70,   72
         34   PST2    15
         27   PST3    16,   43
        214   TEMP   162,  163,  175,  202,  207
        132   UOUT    45,  126
         46  BLOUT    37
        172  FORDR   166
        161  LSTCK     6,   14,  102,  110
        206  NOLST   165
         36  PEST1    10,   11,   12
         43  PEST2    20,   21,   22,   44
        201  RORDR   171
        131  TEST1   104,  105,  106
        125  TEST2   112,  113,  114,  132
         76  UNPAK   147,  156
        152 UNPAKL     0
        143 UNPAKR     0

0 NO ERROR IN ABOVE ASSEMBLY.


  PCMT   BCD 05/28/67 2347.5     958         00000
1            FAP                                                                                 PAGE 1

                              * PCMT   PRINT COMMENT   FROM MAD                  DAGGETT  FEB. 18,1964
                                             CORRECTED TO ALLOW SINGLE LINE OF 132 CHARCS  EMK 4/12/65
                                             SUPERVISOR WILL ADD NECESSARY CARRIAGE RETURNS.
                                     PCC
                                     LBL     PCM,X                                                  MI
                              ************************************************************************
                              *                                                                      *
                              *                                                                      *
                              *              PRINT COMMENT SUBROUTINE FOR MAD SIMPLIFIED OUTPUT      *
                              *                                                                      *
                              *              CALLING SEQUENCE--                                      *
                              *                                                                      *
                              *                                 TSX     .PCOMT,4                     *
                              *                                 PAR     N                            *
                              *                                 BCI     N,XXXXXXXXXX....             *
                              *                                                                      *
                              *              WHERE N IS THE NUMBER OF BCD WORDS TO BE PRINTED.       *
                              *                                                                      *
                              *                                                                      *
                              ************************************************************************


  BINARY CARD NO. PCM00000
                       00004         ENTRY   .PCOMT
             0 00001 1 60000  BLK    OPSYN   PZE


        TRANSFER VECTOR

  BINARY CARD NO. PCM00001
      00000  665126436760     WRFLX
      00001  665126436721     WRFLXA

            LINKAGE DIRECTOR
      00002  000000000000
      00003  334723464463

      00004 -0634 00 4 00002  .PCOMT SXD     IR4,4
                       00002   IR4   SYN     .PCOMT-2
      00005 -0500 00 4 00001         CAL     1,4                PICK UP COUNT
      00006  0734 00 4 00000         PAX     0,4
      00007 -0634 00 4 00021         SXD     BLK,4              STORE COUNT
      00010 -0634 00 4 00014         SXD     INCR,4
                       00016  WMAX   EQU     14
      00011 -0535 00 4 00002         LDC     IR4,4         GET LOCATION OF CALL
      00012  1 00002 4 00013         TXI     *+1,4,2            SET TO BEGINNING OF BCD
      00013  0634 00 4 00021         SXA     BLK,4
      00014  1 00000 4 00015  INCR   TXI     *+1,4,**           SET EXIT
      00015  0634 00 4 00023         SXA     EXIT,4
      00016 -0534 00 4 00014         LXD     INCR,4
      00017  2 00016 4 00024         TIX     OVER,4,WMAX     HAVE WE MORE THAN 14 WORDS
      00020  0074 00 4 00000         TSX     $WRFLX,4
      00021  0 00000 0 00000  BLK    BLK     **,,**
      00022 -0534 00 4 00002         LXD     IR4,4
1            FAP                                                                                 PAGE 2

      00023  0020 00 0 00000  EXIT   TRA     **                 RETURN
                              *                            HERE IF MORE THAN 14 WORDS

  BINARY CARD NO. PCM00002
      00024 -0634 00 4 00021  OVER   SXD     BLK,4
      00025  0534 00 4 00021         LXA     BLK,4           GET STARTING LOC. FOR PRINTING
      00026  0634 00 4 00032         SXA     W1,4
      00027  1 00016 4 00030         TXI     *+1,4,WMAX
      00030  0634 00 4 00021         SXA     BLK,4
      00031  0074 00 4 00001         TSX     $WRFLXA,4
      00032  0 00016 0 00000  W1     PZE     **,,WMAX
      00033  0020 00 0 00020         TRA     BLK-1
                                     END
1            FAP                                                                                 PAGE 1
                        POST PROCESSOR ASSEMBLY DATA

         34 IS THE FIRST LOCATION NOT USED BY THIS PROGRAM

0REFERENCES TO DEFINED SYMBOLS
         32     W1    26
         21    BLK     7,   13,   24,   25,   30,   33
          2    IR4     4,    5,   11,   22
         23   EXIT    15
         14   INCR    10,   16
         24   OVER    17
         16   WMAX    11,   17,   27,   32
          0  WRFLX    20
          4 .PCOMT     0,    5
          1 WRFLXA    31

0 NO ERROR IN ABOVE ASSEMBLY.
