1            FAP                                                                                 PAGE 1

                              *      COUNT   128
                              *IOLP         IOSET,IOPAR,IOEND SEPTEMBER 8,1961 VERSION 2
                                           FOR USE WITH MADTRAN TRANSLATED PROGRAMS ON THE
                                                               709/90  ONLY

                                                        IOSET
                                                        IOPAR
                                                        IOEND

                                                 AUXILIARY INPUT-OUTPUT PROCEDURE FOR MAD

                                         PURPOSE--  TO PROVIDE A MEANS OF GENERATING ANY SERISE OF MAD
                                              STATEMENTS WITHIN AN INPUT-OUTPUT LIST, MAKING POSSIBLE
                                              COMPLETE GENERALITY FOR INPUT-OUTPUT.
                                         CALLING SEQUENCES--
                                              PRINT FORMAT ALPHA, L1, IOSET.(LOC1)
                                              EXECUTE IOPAR.( L2 )
                                              EXECUTE IOEND.(LOC2)
                                         ARGUMENTS--
                                              ALPHA -- NORMAL FORMAT FOR PRINT OR READ
                                              L1,L2 -- NORMAL INPUT-OUTPUT LISTS
                                              LOC1 -- LOCATION WHERE MAD SEQUENCE BEGINS
                                              LOC2 -- LOCATION WHERE PROGRAM WILL GO AFTER COMPLETING
                                                      LIST. IF OMITTED, IOEND WILL RETURN TO THE
                                                      STATEMENT FOLLOWING EXECUTE IOEND.
                                         USE--
                                              EXECUTING IOSET WILL CAUSE THE PROGRAM TO LEAVE THE I/O
                                              LIST WITHOUT TERMINATING THE FORMAT, TRANSFERRING CON-
                                              TROL TO LOC1.
                                              EXECUTING IOPAR WILL CAUSE THE LIST L2 TO BE PRINTED OR
                                              READ AS THROUGH PART OF THER ORIGINAL I/O LIST. THE FOR-
                                              MAT WILL BE CONTINUED EXACTLY AS THOUGH THE LIST WERE
                                              PART OF THE ORIGINAL I/O LIST.
                                              EXECUTING IOEND TERMINATES THE I/O LIST AND RETURNS AS
                                              INDICATED ABOVE.
                                         RESTRICTIONS--
                                              WHEN USED IN THE LIST FOR IOPAR, MULTIPLY SUBSCRIPTED
                                              ARRAYS MUST APPEAR WITH MULTIPLE SUBSCRIPTS OR WITH A
                                              VARIABLE SINGLE SUBSCRIPT. (I.E. IF BB IS A MULTIPLY
                                              SUBSCRIPTED ARRAY, THEN EITHER BB OR BB(5) WOULD BE
                                              ILLEGAL.)
                                              RESTRICTIONS ON THE USE OF ERASABLE ARE THE SAME AS IN
                                              A NORMAL I/O LIST.


                                                        IOITR
                                                        IOSCP

                                                 ROUTINE FOR FORTRAN I-O ITERATIONS IN MAD PROGRAMS

                                         PURPOSE--
                                                IOITR AND IOSCP WERE WRITTEN TO ALLOW MADTRAN GENERA-
                                            TION OF THE FORTRAN I-O ITERATIONS IN THE TRANSLATED MAD
                                            PROGRAM BY USING IOSET, IOPAR AND IOEND.
                                         CALLING SEQUENCE (AS GENERATED BY MADTRAN)--
                                                EXECUTE IOITR.(,M1,M2,M3)
1            FAP                                                                                 PAGE 2

                                                EXECUTE IOSCP.
                                         ARGUMENTS--
                                                V-- ITERATION VARIABLE (USUALLY USED FOR INDEXING)
                                                M1-- INITIAL VALUE OF THE ITERATION VARIBLE V
                                                M2-- LAST VALUE OF THE ITERATION VARIABLE USED
                                                M3-- INCREMENT TO BE USED ON V
                                         USE--
                                                EXECUTE IOITR CAUSES V TO BE SET TO ITS INITIAL VALUE,
                                            M1, AND THE VALUES OF M2 AND M3 TO BE SAVED FOR USE OF
                                            IOSCP.
                                                EXECUTING IOSCP CAUSES THE VALUE OF V TO BE COMPARED
                                            WITH M2 AND IF NOT GREATER THAN OR EQUAL TO M2, CAUSES IT
                                            TO BE INCREMENTED BY M3 AND CONTROL RETURNED TO THE BEGIN'
                                            NING OF THE CORRESPONDING ITERATION, OTHERWISE, CONTROL
                                            GOES TO THE NEXT STATEMENT AFTER  EXECUTE IOSCP.
                                         RESTRICTIONS--
                                                IOITR AND IOSCP MAY BE NESTED THREE DEEP, BUT THERE
                                            MUST BE A STATEMENT -- EXECUTE IOSCP.-- CORRESPONDING TO
                                            EACH USE OF IOITR FOR PROPER NESTING OF THE ITERATION.
                       00067         ENTRY   IOSET
                       00051         ENTRY   IOPAR
                       00061         ENTRY   IOEND
                       00020         ENTRY   IOSCP
                       00002         ENTRY   IOITR

            LINKAGE DIRECTOR
      00000  000000000000
      00001  314662256360

      00002  0774 00 1 77774  IOITR  AXT     -4,1          TABLE SIZE TO XA--ADDR. IS CHANGED
      00003  1 00004 1 00004         TXI     *+1,1,4       INCREMENT TABLE SIZE
      00004  0500 00 4 00001         CLA     1,4
      00005  0621 00 1 00050         STA     T,1           SET VARIABLE ADDR.
      00006  0500 60 4 00002         CLA*    2,4           INITIALIZE
      00007  0601 60 4 00001         STO*    1,4             INDEX
      00010  0500 60 4 00003         CLA*    3,4           PICKUP END OF ITERATION TEST
      00011  0601 00 1 00047         STO     T-1,1         SAVE IN TABLE
      00012  0500 60 4 00004         CLA*    4,4           PICK UP INCREMENT
      00013  0601 00 1 00046         STO     T-2,1         SAVE IN TABLE
      00014  0634 00 1 00002         SXA     IOITR,1       SAVE TABLE SIZE
      00015  0754 00 4 00000         PXA     ,4            SAVE RETURN LINKAGE IN TABLE
      00016  0621 00 1 00045         STA     T-3,1
      00017  0020 00 4 00005         TRA     5,4
      00020  0534 00 1 00002  IOSCP  LXA     IOITR,1       TABLE SIZE TO XA
      00021  0500 60 1 00050         CLA*    T,1           INCREMENT
      00022  0400 00 1 00046         ADD     T-2,1           VARIABLE
      00023  0601 60 1 00050         STO*    T,1             AND STORE
      00024  0402 00 1 00047         SUB     T-1,1         TEST FOR END OF ITERATION
      00025  0100 00 0 00027         TZE     *+2
      00026  0120 00 0 00032         TPL     NEXT          ITERATION COMPLETE IF TAKEN
      00027  0500 00 1 00045         CLA     T-3,1         PICK UP RETURN INDEX
      00030  0734 00 4 00000         PAX     ,4            PUT IN XC
      00031  0020 00 4 00005         TRA     5,4           RETURN TO BEGINNING OF ITERATION
      00032  1 77774 1 00033   NEXT  TXI     *+1,1,-4      DECREMENT TABLE SIZE
      00033  0634 00 1 00002         SXA     IOITR,1       SAVE TABLE SIZE
      00034  0020 00 4 00001         TRA     1,4           RETURN
1            FAP                                                                                 PAGE 3

      00050                    T     BES     11            FOUR ENTRY TABLE
      00050  0 00000 0 00000         PZE
      00051  0500 00 4 00001  IOPAR  CLA     1,4                SECONDARY ENTRY -- PRINTS VARIABLES
      00052  0630 00 0 00053         STP     *+1                MAY CHANGE NEXT INSTRUCTION TO TXH
      00053  0020 00 0 00060         TRA     OUT
      00054  0621 00 0 00056         STA     *+2
      00055  0622 00 0 00056         STD     *+1
      00056 -1 00000 0 00000         STR     **,,**             RE-ENTER I/O LIST
      00057  1 77777 4 00051         TXI     IOPAR,4,-1
      00060  0020 00 4 00001  OUT    TRA     1,4

      00061 -0634 00 4 00070   IOEND SXD     IR4,4
      00062 -1 00000 0 00000         STR
      00063 -0534 00 4 00070         LXD     IR4,4
      00064  0500 00 4 00001         CLA     1,4
      00065  0630 00 0 00066         STP     *+1                MAY CHANGE NEXT INSTRUCTION TO TXH
      00066  0020 00 0 00060         TRA     OUT
      00067  0020 60 4 00001  IOSET  TRA*    1,4                GO TO SPECIFIED LOCATION
      00070  0 00000 0 00000   IR4
                                     END
1            FAP                                                                                 PAGE 1
                        POST PROCESSOR ASSEMBLY DATA

         71 IS THE FIRST LOCATION NOT USED BY THIS PROGRAM

0REFERENCES TO DEFINED SYMBOLS
         50      T     5,   11,   13,   16,   21,   22,   23,   24,   27
         70    IR4    61,   63
         60    OUT    53,   66
         32   NEXT    26
         61  IOEND     0
          2  IOITR     0,   14,   20,   33
         51  IOPAR     0,   57
         20  IOSCP     0
         67  IOSET     0

0 NO ERROR IN ABOVE ASSEMBLY.


  IOH0   BCD 06/25/69 2042.6   54444         00000
1            FAP                                                                                 PAGE 1

                              *  (IOH), (RTN), (FIL), IOHSIZ, STQUO    MICH.-MIT     BOETTNER-DAGGETT
                                     PCC
                                     PMC                                                          JSMI
                       00243         ENTRY   (IOH)
                       00240         ENTRY   STQUO                                                  MI
                       03175         ENTRY   (FIL)                                                  MI
                       03212         ENTRY   (RTN)                                                  MI
                       03342         ENTRY   IOHSIZ                                                 MI
                                     LBL     IOH,X                                                  MI
                              * APRIL 1965 JUDY SPALL FOR FOREGROUND                     JSMI
1            FAP                                                                                 PAGE 2
                           (IOH)     PART I DEFINITIONS                          JSM

                                     TTL     (IOH)     PART I DEFINITIONS                          JSM


                                     SPACE   15
                              ***********************************************************************
                              ***********************************************************************
                              **                                                                   **
                              **                                                                   **
                              **                         P A R T   I                               **
                              **                                                                   **
                              **                    D E F I N I T I O N S                          **
                              **                                                                   **
                              **                                                                   **
                              ***********************************************************************
                              ***********************************************************************
1            FAP                                                                                 PAGE 3
                           (IOH)     PART I DEFINITIONS                          JSM

                                     EJECT


                                     SPACE   3
                              *      CONTENTS OF THE COMUNICATION CELLS IN WHICH THE
                              *      I/O SUBROUTINES (.READ,.PRINT,(TSH),ETC.) PUT INFORMATION
                              *      FOR .IOH.
                              *
                              *      LOCATION  WORD   CONTENTS
                              *      (OCTAL)   NAME
                              *
                              *      77737     FMT    ADDRESS = LOCATION OF THE SUBROUTINE THAT .IOH
                              *                                 CALLS ON WHEN IT HAS AN OUTPUT RECORD
                              *                                 READY TO GO OUT OR WHEN IT NEEDS A
                              *                                 NEW INPUT RECORD (E.G.,.WR.,.RD.)
                              *                       TAG     = ZERO
                              *                       DECREMENT= +1 IF THE FORMAT IS STORED IN A
                              *                                     BACKWARDS VECTOR
                              *                                  -1 IF THE FORMAT IS STORED IN A
                              *                                     FORWARD VECTOR
                              *                       PREFIX  =TXL  IF FORTRAN I/O CALL
                              *                                TXH  IF MAD/UMAP I/O CALL
                              *
                              *      77740     RTN    ADDRESS = LOCATION OF FIRST WORD OF FORMAT
                              *                       TAG     = ZERO
                              *                       DECREMENT=USERS IR4 UPON ENTRY TO INITIAL
                              *                                 I/O SUBROUTINE
                              *                       PREFIX = TXL  IF ON-LINE (PRINT ONLY)
                              *                                TXH  IF OFF-LINE
                              *
                              *      77741     COL    ADDRESS = BEFORE CALLING ON THE SUBROUTINE GIVEN
                              *                                 IN THE ADDRESS OF FMT TO SEND OFF AN
                              *                                 OUTPUT RECORD, .IOH PUTS HERE THE
                              *                                 NUMBER OF WORDS THAT ARE IN THAT
                              *                                 OUTPUT RECORD.
                              *                                 (NOT USED FOR INPUT)
                              *                       TAG     = ZERO
                              *                       DECREMENT=MAXIMUM NUMBER OF COLUMNS AVAILABLE
                              *                                 IN INPUT OR OUTPUT RECORD
                              *                       PREFIX  = TXL IF OUTPUT
                              *                                 TXH IF INPUT
                              *
                              *      77741     STLOC  ADDRESS = LOCATION OF SYMBOL TABLE (IF ANY)
                              *                       TAG     = ZERO
                              *
                              *      77742   REC      VECTOR INTO WHICH THE INPUT RECORD OR
                              *       TO              FROM WHICH THE OUTPUT RECORD IS TRANSMITTED
                              *      77767
1            FAP                                                                                 PAGE 4
                           (IOH)     PART I DEFINITIONS                          JSM

                                     EJECT
            -3 00017 1 60000  BRANCH OPSYN   TXL
             3 00017 1 60000   PAR   OPSYN   TXH                                                    MI
             2 00017 1 60000   BLK   OPSYN   TIX                                                    MI
             0634 11 1 20000   ZAD   OPSYN   ZSA                                                    MI
            -0 17735 0 05336  MIDDLE OPSYN   NULL                                                   MI
                              *

        TRANSFER VECTOR

  BINARY CARD NO. IOH00001
      00000  330003030101     .03311
      00001  242644476060     DFMP
      00002  242624476060     DFDP
      00003  665126436760     WRFLX
      00004  665126436721     WRFLXA
      00005  512523466447     RECOUP

            LINKAGE DIRECTOR
      00006  000000000000
      00007  743146303460

                       00204  IMLEN  EQU     132           LENGTH OF IMAGE REGION
                       00135  DIGLEN EQU     93            LENGTH OF DIG REGION
                       00044  VECLEN EQU     36            LENGTH OF VEC REGION
                       00026  RECLEN EQU     22            LENGTH OF I/O RECORD (MAXIMUM)
                              *              MACRO DEFINITIONS                                      MI
                       00000   ...   EQU     0                                                      MI
 M                             CALL  MACRO   A,B,C,D                                                MI
                                     IFF     1,A,SPRINT                                             MI
                                     TSX     .SPRNT,4
                                     IFF     0,A,SPRINT                                             MI
                                     TSX     $A,4                                                   MI
                                     IFF     1,C,...                                                MI
                                     PZE     B,C,D                                                  MI
                               CALL  END                                                            MI
                              *
                              *                                                                     MI
                              *              COMMON DEFINITIONS                                     MI
                       77461  HIGHCM COMMON  0                                                      MI
                       77771         COMMON  -200                                                   MI
                       77771   STLOC COMMON  1                                                      MI
                       77742         COMMON  RECLEN                                                 MI
                       77742   REC   COMMON  1                                                      MI
                       77741   COL   COMMON  1                                                      MI
                       77740   RTN   COMMON  1                                                      MI
                       77737   FMT   COMMON  1                                                      MI
                       77736   VEC   COMMON  VECLEN                                                 MI
                       77672   DIG   COMMON  DIGLEN                                                 MI
                                     DETAIL                                                         MI
                       77535  SAVIND COMMON  1                                                      MI
                       77534  SPARCT COMMON  1                                                      MI
                       77533  MQSAVE COMMON  1                                                      MI
                       77532   NL5   COMMON  1                                                      MI
                       77531   NL6   COMMON  1                                                      MI
1            FAP                                                                                 PAGE 5
                           (IOH)     PART I DEFINITIONS                          JSM

                       77530   SAVE  COMMON  1                                                      MI
                       77527   TEST  COMMON  1                                                      MI
                       77526   DIM2  COMMON  1                                                      MI
                       77525   DIM1  COMMON  1                                                      MI
                       77524  VARNAM COMMON  1                                                      MI
                       77523   LOC   COMMON  1                                                      MI
                       77522   CHAR  COMMON  1                                                      MI
                       77521   TBASE COMMON  1                                                      MI
                       77520   ESUM  COMMON  1                                                      MI
                       77517  PTCTR  COMMON  1                                                      MI
                       77516   TEMP  COMMON  1                                                      MI
                       77515  MULCON COMMON  1                                                      MI
                       77514   DGSKP COMMON  1                                                      MI
                              *                                                                     MI
                              *                                                                     MI
                       77513   SL2SV COMMON  1                                                      MI
                       77512   USISV COMMON  1
                              *              DELETE REFERENCE TO DUMMY                              MI
                       77511   MULT  COMMON  1                                                      MI
                       77510   CC    COMMON  1                                                      MI
                       77507   BASE  COMMON  1                                                      MI
                       77506   PREC  COMMON  1                                                      MI
                       77505   SCALE COMMON  1                                                      MI
                       77504  LPOINT COMMON  1                                                      MI
                       77503   PDPTR COMMON  1                                                      MI
                       77502  FIELDW COMMON  1                                                      MI
                       77501   ERAS  COMMON  2                                                      MI
                       77760  ERASRR EQU     HIGHCM-ERAS                                            MI
      00010                   BIMAGE BSS     IMLEN-1                                                MI
      00213                    IMAGE BSS     1                                                      MI
      00214                          BSS     10            ARRAY FOR SUM                            MI
      00226                     SUM  BSS     2                                                      MI
      00230                    VALUE BSS     2                                                      MI

  BINARY CARD NO. IOH00002
      00232  0 00000 0 00000   ASWT  PZE                                                            MI
      00233  0 00000 0 00000   MODE  PZE                                                            MI
      00234  0 00000 0 00000   TMP   PZE                                                            MI
      00235  0 00000 0 00230  VALLOC PZE     VALUE                                                  MI
      00236  0 00000 0 00226  SUMLCN PZE     SUM                                                    MI
                              *              ****                                                   MI
      00237  0021 00 0 03237  INYTTR TTR     INYCOM                                                 MI
1            FAP                                                                                 PAGE 6
                           (IOH)     PART I DEFINITIONS                          JSM

                                     EJECT
                              *      DEFINITIONS OF INDICATOR BITS


                                     SPACE   3
                      000001  ZDSW   BOOL    1             RIGHT HALF
                      000002  RDSW   BOOL    2
                      000004  LDSW   BOOL    4
                      000010  DDSW   BOOL    10
                      000020  EXPDSW BOOL    20
                      000040  EXSDSW BOOL    40
                      000100  CCDSW  BOOL    100
                      000200  SGNDSW BOOL    200
                      000400  PTDSW  BOOL    400
                      001000  BCDDSW BOOL    1000
                      002000  OCTDSW BOOL    2000
                      004000  INTDSW BOOL    4000
                      010000  EDSW   BOOL    10000
                      020000  FDSW   BOOL    20000
                      040000  FIRDSW BOOL    40000         FIRST TIME THROUGH SWITCH
                      100000  LPSDSW BOOL    100000        SKIP NEXT FORMAT CHAR SWITCH
                      200000  STXDSW BOOL    200000        SKIP OR TRANSFER SWITCH
                      400000  GDSW   BOOL    400000

                      000001  HTDSW  BOOL    1             LEFT HALF
                      000002  FOFDSW BOOL    2             FORMAT-OFF SWITCH
                      000004  KODSW  BOOL    4
                      000010  ENDDSW BOOL    10
                      000020  DM2DSW BOOL    20
                      000040  ADSW   BOOL    40            ALPHABETIC SWITCH (IS VAR,NOT CONST)
                      000100  HOLDSW BOOL    100           INSIDE HOLLERITH FIELD SWITCH
                      000200  BIZDSW BOOL    200
                      000400  DGSDSW BOOL    400
                      001000  TSWDSW BOOL    1000          TWO-SUM-WORDS SWITCH
                      002000  EFDSW  BOOL    2000
                      004000  SPDSW  BOOL    4000
                      010000  CNVDSW BOOL    10000         ON IF ANY CONVERSION HAS OCCURRED
                      020000  MDSW   BOOL    20000         FLOATING $ SWITCH
                      040000  VDSW   BOOL    40000         COMMAS-EVERY-THREE-DIGITS SWITCH
                      100000  NDSW   BOOL    100000
                      200000  FTNDSW BOOL    200000        ON IF FORTRAN, OFF IF MAD/UMAP
                      400000  OUTDSW BOOL    400000        ON IF OUTPUT, OFF IF INPUT
                              *
                              *      DEFINITIONS OF TRATAB UPPER DECREMENTS
                              *
                      000000  ILCHAR BOOL    00000
                      010000  LTR    BOOL    10000
                      020000  NBR    BOOL    20000
                      030000  STOP   BOOL    30000
                      040000  STOPN  BOOL    40000
                      050000  SUBSCR BOOL    50000
                      060000  IGNORE BOOL    60000
                              *
                              *      DEFINITIONS OF SENSE LIGHTS
1            FAP                                                                                 PAGE 7
                           (IOH)     PART I DEFINITIONS                          JSM

                              *
                       00002  LISDSW EQU     2
1            FAP                                                                                 PAGE 8
                           (IOH)     PART II FORMAT SCAN                       JSMI

                                     TTL     (IOH)     PART II FORMAT SCAN                       JSMI


                                     SPACE   15
                              ***********************************************************************
                              ***********************************************************************
                              **                                                                   **
                              **                                                                   **
                              **                        P A R T   I I                              **
                              **                                                                   **
                              **                    F O R M A T   S C A N                          **
                              **                                                                   **
                              **                                                                   **
                              ***********************************************************************
                              ***********************************************************************
1            FAP                                                                                 PAGE 9
                           (IOH)     PART II FORMAT SCAN                       JSMI

                                     EJECT
                              *              ENTRY TO . IOH                                         MI
                              *              ENTRY TO STQUO                                         MI
      00240 -0500 00 0 00455  STQUO  CAL     TXL
      00241  0630 00 0 00304         STP     STQSW
      00242  0020 00 4 00001         TRA     1,4


                                     SPACE   3
                       00243   (IOH) SYN     *
      00243  0634 00 4 03230  .IOH   SXA     IR4,4         SAVE INDEX REGS
      00244  0074 00 4 04436         TSX     SVMC1,4       SAVE IR1,IR2,SI,SLT 2                    MI
                              *              SAVE OVERFLOW STATUS, TAG MODE, FPT AND EMTM, LFTM     MI
      00245  0074 00 4 04363         TSX     SVMC,4                                                 MI
      00246 -0500 00 0 00002         CAL     2                                                      MI
      00247  0602 00 0 04431         SLW     2SAVE                                                  MI
      00250  0600 00 0 77505         STZ     SCALE         ZERO SCALE FACTOR
      00251  0600 00 0 03776         STZ     ERREX         ZERO ERROR INDICATOR FOR (EXE)           MI
      00252  0500 00 0 00237         CLA     INYTTR        SET TRAP RETURN
      00253  0601 00 0 00002         STO     2
      00254 -0500 00 0 00316         CAL     BETA
      00255  0621 00 0 03234         STA     STORE

  BINARY CARD NO. IOH00003
      00256  0625 00 0 03234         STT     STORE
      00257  0630 00 0 04445         STP     MCCON
      00260 -0500 00 0 77737         CAL     FMT
      00261  0621 00 0 03073         STA     SUBXIT        SET SUBROUTINE CALL FOR IN/OUT
      00262  0622 00 0 00522         STD     DIR           SET DIRECTION OF FORMAT
      00263  0622 00 0 00366         STD     DIRQ                                                   MI
      00264  0630 00 0 00301         STP     FSW2          SET MAD/FORTRAN SWITCHES (TXH/TXL)
      00265  0630 00 0 00746         STP     RP4
      00266  0630 00 0 03232         STP     NL12
      00267  0630 00 0 03207         STP     FL10
      00270 -0500 00 0 77741         CAL     COL
      00271  0622 00 0 00562         STD     SIZE1         SET MAX NUMBER OF COLUMNS
      00272  0622 00 0 03457         STD     ERRPT
      00273  0630 00 0 00305         STP     IO1           SET INPUT/OUTPUT SWITCH (TXH/TXL)
      00274 -0535 00 4 77741         LDC     COL,4
      00275 -0634 00 4 03126         SXD     IOT11,4
      00276  0441 00 0 77741         LDI     COL           SET I/O BIT OF INDS (BIT 0)
      00277 -0057 00  010002         RIL     FOFDSW+CNVDSW
      00300 -0055 00  200000         SIL     FTNDSW        SET
 TD   00301 -3 00000 0 00303  FSW2   BRANCH  *+2           FORTRAN BIT

  BINARY CARD NO. IOH00004
      00302 -0057 00  200000         RIL     FTNDSW        OF INDS (BIT 1)
      00303  0055 00  040000         SIR     FIRDSW        SET FIRST-TIME SWITCH
                              *                                                                     MI
                              *                                                                     MI
                              *                                                                     MI
      00304  3 00000 0 00316  STQSW  TXH     BETA,,
                              *
 TD   00305 -3 00000 0 00310  IO1    BRANCH  *+3
1            FAP                                                                                 PAGE 10
                           (IOH)     PART II FORMAT SCAN                       JSMI

      00306  0074 00 4 03111         TSX     SLURP,4       IF INPUT, READ A CARD
      00307  0020 00 0 00316         TRA     BETA
                              *
      00310  0500 00 0 04622  ALPHA  CLA     =H00000       BLANK IMAGE REGION
      00311  0774 00 4 00204         AXT     IMLEN,4
      00312  0601 00 4 00214         STO     IMAGE+1,4
      00313  2 00001 4 00312         TIX     *-1,4,1
      00314  0500 00 0 04600         CLA     =1            AND SET LINE POINTER TO COLUMN 1
      00315  0601 00 0 77504         STO     LPOINT
1            FAP                                                                                 PAGE 11
                           (IOH)     PART II FORMAT SCAN                       JSMI

                                     EJECT
                              *
      00316  0600 00 0 77506  BETA   STZ     PREC          RESETTING AFTER EACH FORMAT
      00317  0600 00 0 77502         STZ     FIELDW        TERM IS PROCESSED
      00320  0600 00 0 77510         STZ     CC
      00321  0600 00 0 00232         STZ     ASWT                                                   MI
      00322  0500 00 0 04600         CLA     =1
      00323  0601 00 0 77511         STO     MULT
      00324  0500 00 0 04606         CLA     =10           CONVERSION NORMALLY TO BASE 10 UNLESS
      00325  0601 00 0 77507         STO     BASE              OTHERWISE SPECIFIED

  BINARY CARD NO. IOH00005
      00326  0774 00 4 00625         AXT     FFN+1,4
      00327  0634 00 4 00624         SXA     FFN,4
      00330  0057 00  737777         RIR     737777
      00331 -0057 00  167775         RIL     167775
      00332  0500 00 0 00746         CLA     RP4             IF FORTRAN OR FORTRAN-LIKE,            MI
      00333 -0120 00 0 00335         TMI     *+2             SKIP ZEROING OF THE SCALE FACTOR       MI
      00334  0600 00 0 77505         STZ     SCALE             RESET SCALE FACTOR
      00335  0056 00  040000         RNT     FIRDSW        IF NOT FIRST TIME
      00336  0020 00 0 00520         TRA     NEXT              GO TO GET NEXT FORMAT CHARACTER
      00337 -0500 00 0 00510         CAL     TRATAB
      00340  0630 00 0 00304         STP     STQSW
      00341  0057 00  040000         RIR     FIRDSW
      00342  0600 00 0 77503         STZ     PDPTR         START PUSH-DOWN POINTER AT ZERO
      00343  0600 00 0 77501         STZ     ERAS          ZERO OUT FIRST PUSH-DOWN LOCATION
      00344  0600 00 0 77500         STZ     ERAS-1
      00345  0535 00 2 77740  BEGIN  LAC     RTN,2         GET LOCATION OF FIRST FORMAT WORD
      00346  0774 00 1 00006   LKLP1 AXT     6,1           TEST FOR FORTRAN-LIKE                    MI
      00347  0560 00 2 00000         LDQ     0,2           FORMAT STATEMENTS                        MI
      00350 -0754 00 0 00000   LKLP2 ZAC                             FROM MAD...                    MI
      00351 -0763 00 0 00006         LGL     6             IF FIRST NON-BLANK                       MI

  BINARY CARD NO. IOH00006
      00352 -0340 00 0 04622         LAS     =H00000       CHARACTER IS (, THEN                     MI
      00353  0020 00 0 00355         TRA     *+2           SET SWITCH RP4 TO                        MI
      00354  0020 00 0 00365         TRA     NDX           LOOK LIKE FORTRAN.                       MI
      00355 -0340 00 0 04624         LAS     =H00000(                                               MI
      00356  0020 00 0 00375         TRA     CHAR4                                                  MI
      00357  0020 00 0 00361         TRA     *+2                                                    MI
      00360  0020 00 0 00375         TRA     CHAR4                                                  MI
      00361 -0500 00 0 00455         CAL     TXL                                                    MI
      00362  0630 00 0 00746         STP     RP4                                                    MI
      00363 -0500 00 0 04624         CAL     =H00000(                                               MI
      00364  0020 00 0 00375         TRA     CHAR4                                                  MI
      00365  2 00001 1 00350   NDX   TIX     LKLP2,1,1                                              MI
      00366  1 00000 2 00346   DIRQ  TXI     LKLP1,2,**                                             MI
      00367  0774 00 1 00006   NXTWD AXT     6,1                                                    MI
      00370  0560 00 2 00000         LDQ     0,2                                                    MI
      00371 -0754 00 0 00000  NXTCHR ZAC
      00372 -0763 00 0 00006         LGL     6             SHIFT FORMAT CHARACTER INTO POSITION
      00373 -0054 00  000100         LFT     HOLDSW
      00374  0020 00 0 01040         TRA     HL1           IF INSIDE HOLLERITH FIELD
      00375  0734 00 4 00000   CHAR4 PAX     0,4                                                    MI
1            FAP                                                                                 PAGE 12
                           (IOH)     PART II FORMAT SCAN                       JSMI

  BINARY CARD NO. IOH00007
      00376  0601 00 0 77522         STO     CHAR
      00377 -0054 00  000001         LFT     HTDSW         CHECK IF INSIDE FORMAT VARIABLE NAME
      00400  0020 00 0 01312         TRA     TYPE2         YES
      00401  0054 00  100000         RFT     LPSDSW
      00402  0020 00 0 00520         TRA     NEXT          IF SKIPSWITCH SET, SKIP THIS CHARACTER
      00403 -0056 00  000002         LNT     FOFDSW
      00404  0020 60 4 00510         TRA*    TRATAB,4      GO TO FORMAT TRA TABLE UNLESS FMT-OFF SW ST
      00405 -0320 00 0 04616         ANA     =O37                                                   MI
      00406  0402 00 0 04615         SUB     =O34          WHEN FORMAT-OFF SWITCH IS SET, ONLY IF   MI
      00407  0100 60 4 00510         TZE*    TRATAB,4      IS LEFT OR RIGHT PAREN, GO TO PROCESS
      00410  0020 00 0 00520         TRA     NEXT          OTHERWISE, GO GET NEXT CHARACTER
1            FAP                                                                                 PAGE 13
                           (IOH)     PART II FORMAT SCAN                       JSMI

                                     EJECT
                              ***********************************************************************
                              *                                                                     *
                              *      FORMAT  SCAN TRANSFER TABLE               (ADDRESS AND TAG)    *
                              *              AND                                                    *
                              *      DBC LOOKUP TABLE                          (PREFIX)             *
                              *              AND                                                    *
                              *      FORMAT VARIABLE LOOKUP TABLE              (LEFT 3 BITS OF DECR)*
                              *                                                                     *
                              ***********************************************************************


                                     SPACE   3
                                                        OCTAL -- CHARACTER

      00411  0 00000 0 03373         PZE     BAD           77
      00412  0 00000 0 03373         PZE     BAD           76
      00413  0 00000 0 03373         PZE     BAD           75
      00414  0 50000 0 00703         PZE     LPAREN,,SUBSCR 74   (
      00415  0 50000 0 00622         PZE     COMMA2,,SUBSCR 73   ,
      00416  0 00000 0 03373         PZE     BAD           72    RECORD MARK                      JSMI
      00417  0 10000 0 00535         PZE     ZERO,,LTR     71    Z
      00420  0 10000 0 03373         PZE     BAD,,LTR      70    Y
      00421  0 10000 0 00566         PZE     SKIP,,LTR     67    X

  BINARY CARD NO. IOH00008
      00422  0 10000 0 00537         PZE     BIZ,,LTR      66    W
      00423  0 10000 0 00633         PZE     CETD,,LTR     65    V
      00424  0 10000 0 03373         PZE     BAD,,LTR      64    U
      00425  0 10000 0 00550         PZE     TRA,,LTR      63    T
      00426  0 10000 0 00566         PZE     SKIP,,LTR     62    S
      00427  0 00000 0 00701         PZE     SLASH         61    /
      00430  3 60000 0 00520         PTH     NEXT,,IGNORE  60    BLANK
      00431  0 00000 0 03373         PZE     BAD           57
      00432  0 00000 0 03373         PZE     BAD           56
      00433  0 00000 0 03373         PZE     BAD           55
      00434  0 00000 0 01002         PZE     DONE          54    *
      00435  0 00000 0 03373         PZE     BAD           53    $
      00436  0 00000 0 03373         PZE     BAD           52    -0
      00437  0 10000 0 00532         PZE     RADJ,,LTR     51    R
      00440  0 10000 0 03373         PZE     BAD,,LTR      50    Q
      00441  0 10000 0 00544         PZE     SCFAC,,LTR    47    P
      00442  0 10000 0 00662         PZE     OCTAL,,LTR    46    O
      00443  0 10000 0 00631         PZE     DONT,,LTR     45    N
      00444  0 10000 0 00627         PZE     FLDSGN,,LTR   44    M
      00445  0 10000 0 00527         PZE     LADJ,,LTR     43    L

  BINARY CARD NO. IOH00009
      00446  0 10000 0 00662         PZE     OCTAL,,LTR    42    K
      00447  0 10000 0 03373         PZE     BAD,,LTR      41    J
      00450  3 00000 0 00523         PTH     MINUS         40    -
      00451  0 00000 0 03373         PZE     BAD           37
      00452  0 00000 0 03373         PZE     BAD           36
      00453  0 00000 0 03373         PZE     BAD           35
1            FAP                                                                                 PAGE 14
                           (IOH)     PART II FORMAT SCAN                       JSMI

      00454  0 40000 0 00740         PZE     RPAREN,,STOPN 34    )
      00455 -3 10000 0 00541  TXL    MTH     PERIOD,,LTR   33    .
      00456  0 00000 0 03373         PZE     BAD           32    +0
      00457  3 10000 0 00652         PTH     INTGR,,LTR    31    I
      00460  3 10000 0 01027         PTH     HOLL,,LTR     30    H
      00461  3 10000 0 00635         PTH     GSPEC,,LTR    27    G
      00462  3 10000 0 00641         PTH     FSPEC,,LTR    26    F
      00463  3 10000 0 00646         PTH     ESPEC,,LTR    25    E
      00464  3 10000 0 00525         PTH     DPREC,,LTR    24    D
      00465  3 10000 0 00672         PTH     BCD,,LTR      23    C
      00466  3 10000 0 00546         PTH     BAS,,LTR      22    B
      00467  3 10000 0 00671         PTH     ABCD,,LTR     21   A                                   MI
      00470  3 00000 0 00520         PTH     NEXT          20    +
      00471  0 00000 0 03373         PZE     BAD           17

  BINARY CARD NO. IOH00010
      00472  0 00000 0 03373         PZE     BAD           16
      00473  0 00000 0 03373         PZE     BAD           15
      00474  0 30000 0 01115         PZE     VARBEG,,STOP  14    '
      00475  0 00000 0 03373         PZE     BAD           13    =
      00476  0 00000 0 03373         PZE     BAD           12
      00477  3 20000 0 00511         PTH     NUM,,NBR      11    9
      00500  3 20000 0 00511         PTH     NUM,,NBR      10    8
      00501  3 20000 0 00511         PTH     NUM,,NBR      7    7
      00502  3 20000 0 00511         PTH     NUM,,NBR      6    6
      00503  3 20000 0 00511         PTH     NUM,,NBR      5    5
      00504  3 20000 0 00511         PTH     NUM,,NBR      4    4
      00505  3 20000 0 00511         PTH     NUM,,NBR      3    3
      00506  3 20000 0 00511         PTH     NUM,,NBR      2    2
      00507  3 20000 0 00511         PTH     NUM,,NBR      1    1
      00510  3 20000 0 00511  TRATAB PTH     NUM,,NBR      0    0
1            FAP                                                                                 PAGE 15
                           (IOH)     PART II FORMAT SCAN                       JSMI

                                     EJECT
                              ***********************************************************************
                              *                                                                     *
                              *      ENTRY FROM FORMAT SCAN ON DIGIT (0-9)                          *
                              *                                                                     *
                              ***********************************************************************


                                     SPACE   3
      00511  0055 00  000100  NUM    SIR     CCDSW         SET CCSW
      00512  0500 00 0 77510         CLA     CC
      00513  0767 00 0 00002         ALS     2
      00514  0400 00 0 77510         ADD     CC
      00515  0767 00 0 00001         ALS     1

  BINARY CARD NO. IOH00011
      00516  0361 00 0 77522         ACL     CHAR
      00517  0601 00 0 77510  NEXTB  STO     CC            CC=10*CC+CHAR


                                     SPACE   6
                              ***********************************************************************
                              *                                                                     *
                              *      GET NEXT FORMAT CHARACTER                                      *
                              *                                                                     *
                              ***********************************************************************


                                     SPACE   3
      00520  0057 00  140000  NEXT   RIR     LPSDSW+FIRDSW RESET FIRST-TIME AND SKIP-FORMAT-CHAR SW
      00521  2 00001 1 00371         TIX     NXTCHR,1,1    GET NEXT CHAR FROM WORD IN MQ, OR-
      00522  1 00000 2 00367  DIR    TXI     NXTWD,2,**    GET NEXT WORD IF THAT WORD EXHAUSTED


                                     SPACE   6
                              ***********************************************************************
                              *                                                                     *
                              *      ENTRY FROM FORMAT SCAN ON - (MINUS SIGN)                       *
                              *                                                                     *
                              ***********************************************************************
1            FAP                                                                                 PAGE 16
                           (IOH)     PART II FORMAT SCAN                       JSMI

                                     SPACE   3
      00523  0502 00 0 77510  MINUS  CLS     CC
      00524  0020 00 0 00517         TRA     NEXTB
1            FAP                                                                                 PAGE 17
                           (IOH)     PART II FORMAT SCAN                       JSMI

                                     EJECT
                              ***********************************************************************
                              *                                                                     *
                              *      ENTRY FROM FORMAT SCAN ON D (MODIFIER FOR DOUBLE PRECISION)    *
                              *                                                                     *
                              ***********************************************************************


                                     SPACE   3
      00525  0055 00  000010  DPREC  SIR     DDSW          SET D SWITCH
      00526  0020 00 0 00520         TRA     NEXT


                                     SPACE   6
                              ***********************************************************************
                              *                                                                     *
                              *      ENTRY FROM FORMAT SCAN ON L (MODIFIER FOR LEFT ADJUSTED)       *
                              *                                                                     *
                              ***********************************************************************


                                     SPACE   3
      00527  0055 00  000004  LADJ   SIR     LDSW          SET L SWITCH
      00530  0057 00  000002         RIR     RDSW
      00531  0020 00 0 00520         TRA     NEXT


                                     SPACE   6
                              ***********************************************************************
                              *                                                                     *
                              *      ENTRY FROM FORMAT SCAN ON R (MODIFIER FOR RIGHT ADJUSTED)      *
                              *                                                                     *
                              ***********************************************************************


                                     SPACE   3
      00532  0055 00  000002  RADJ   SIR     RDSW          SET R SWITCH
      00533  0057 00  000004         RIR     LDSW
      00534  0020 00 0 00520         TRA     NEXT
1            FAP                                                                                 PAGE 18
                           (IOH)     PART II FORMAT SCAN                       JSMI

                                     EJECT
                              ***********************************************************************
                              *                                                                     *
                              *      ENTRY FROM FORMAT SCAN ON Z (MODIFIER FOR LEADING OR TRAILING  *
                              *                                                              ZEROS) *
                              *                                                                     *
                              ***********************************************************************


                                     SPACE   3
      00535  0055 00  000001  ZERO   SIR     ZDSW          SET ZERO SWITCH
      00536  0020 00 0 00520         TRA     NEXT


                                     SPACE   6
                              ***********************************************************************
                              *                                                                     *
                              *      ENTRY FROM FORMAT SCAN ON W (MAKE ZERO OUTPUT NBRS BLANK)      *
                              *                                                                     *
                              ***********************************************************************


                                     SPACE   3
      00537 -0055 00  000200  BIZ    SIL     BIZDSW
      00540  0020 00 0 00520         TRA     NEXT


                                     SPACE   6
                              ***********************************************************************
                              *                                                                     *
                              *      ENTRY FROM FORMAT SCAN ON . (PERIOD)                           *
                              *                                                                     *
                              ***********************************************************************


                                     SPACE   3
      00541  0055 00  000400  PERIOD SIR     PTDSW         SET PTSW

  BINARY CARD NO. IOH00012
      00542  0074 00 4 03325         TSX     CCUSE,4       USE CURRENT COUNT AS FIELD WIDTH
 TD   00543  3 00000 0 77502         PAR     FIELDW
1            FAP                                                                                 PAGE 19
                           (IOH)     PART II FORMAT SCAN                       JSMI

                                     EJECT
                              ***********************************************************************
                              *                                                                     *
                              *      ENTRY FROM FORMAT SCAN ON P (SCALE FACTOR)                     *
                              *                                                                     *
                              ***********************************************************************


                                     SPACE   3
      00544  0074 00 4 03325  SCFAC  TSX     CCUSE,4       USE CURRENT COUNT AS SCALE FACTOR
 TD   00545  3 00000 0 77505         PAR     SCALE


                                     SPACE   6
                              ***********************************************************************
                              *                                                                     *
                              *      ENTRY FROM FORMAT SCAN ON B (BASE)                             *
                              *                                                                     *
                              ***********************************************************************


                                     SPACE   3
      00546  0074 00 4 03325  BAS    TSX     CCUSE,4       USE CURRENT COUNT AS BASE
 TD   00547  3 00000 0 77507         PAR     BASE


                                     SPACE   6
                              ***********************************************************************
                              *                                                                     *
                              *      ENTRY FROM FORMAT SCAN ON T (TRANSFER)                         *
                              *                                                                     *
                              ***********************************************************************


                                     SPACE   3
      00550  0774 00 4 00556  TRA    AXT     TRAF,4        SET FUNCTION ENTRY FOR WHEN HIT COMMA
      00551  0634 00 4 00624         SXA     FFN,4
      00552  0054 00  637000         RFT     FDSW+EDSW+INTDSW+OCTDSW+BCDDSW+STXDSW+GDSW
      00553  0020 00 0 03733         TRA     MCOM          IF TAKEN, WAS ALREADY A SPEC GIVEN - ERROR
      00554  0055 00  200000         SIR     STXDSW
      00555  0020 00 0 00520         TRA     NEXT
1            FAP                                                                                 PAGE 20
                           (IOH)     PART II FORMAT SCAN                       JSMI

                                     EJECT
                              ***********************************************************************
                              *                                                                     *
                              *      FUNCTION TO PROCESS TRANSFER - ENTER ON COMMA FOLLOWING A 'T'. *
                              *                                                                     *
                              ***********************************************************************


                                     SPACE   3
      00556  0634 00 4 00564  TRAF   SXA     T1,4          SAVE IR4
      00557  0074 00 4 03331         TSX     CCTRST,4      GET PROPER QUANTITY
 TD   00560  3 00000 0 77510         PAR     CC                AND PUT IN CC
      00561  0534 00 4 77510         LXA     CC,4
      00562  3 00000 4 03502  SIZE1  TXH     TOOBIG,4,**   SEE IF EXCEEDS MAX NUMBER OF COLUMNS
      00563  0634 00 4 77504         SXA     LPOINT,4      IF NOT, USE IT TO SET LINE POINTER
      00564  0774 00 4 00000  T1     AXT     **,4          RESET IR4 AND
      00565  0020 00 4 00001         TRA     1,4           RETURN


                                     SPACE   6
                              ***********************************************************************
                              *                                                                     *
                              *      ENTRY FROM FORMAT SCAN ON S AND X (SKIP)                       *
                              *                                                                     *
                              ***********************************************************************


                                     SPACE   3

  BINARY CARD NO. IOH00013
      00566  0774 00 4 00600  SKIP   AXT     SKIPF,4       SET FUNCTION ENTRY FOR WHEN HIT COMMA
      00567  0634 00 4 00624         SXA     FFN,4
      00570  0054 00  637000         RFT     FDSW+EDSW+INTDSW+OCTDSW+BCDDSW+STXDSW+GDSW
      00571  0020 00 0 03733         TRA     MCOM          IF TAKEN, WAS ALREADY A SPEC GIVEN - ERROR
      00572  0055 00  200000         SIR     STXDSW
      00573  0074 00 4 03331         TSX     CCTRST,4
 TD   00574  3 00000 0 77511         PAR     MULT
      00575  0534 00 4 77522         LXA     CHAR,4
      00576  3 00062 4 00622         TXH     COMMA2,4,50                                            MI
      00577  0020 00 0 00520         TRA     NEXT
1            FAP                                                                                 PAGE 21
                           (IOH)     PART II FORMAT SCAN                       JSMI

                                     EJECT
                              ***********************************************************************
                              *                                                                     *
                              *      FUNCTION TO PROCESS SKIP - ENTER ON COMMA FOLLOWING S OR X     *
                              *                                                                     *
                              ***********************************************************************


                                     SPACE   3
      00600  0634 00 4 00620  SKIPF  SXA     S1,4          SAVE IR4
      00601  0500 00 0 77510         CLA     CC
      00602 -0100 00 0 00604         TNZ     *+2
      00603  0500 00 0 04600         CLA     =1
      00604  0601 00 0 77510         STO     CC
      00605  0534 00 4 77511         LXA     MULT,4
      00606 -3 00000 4 00620         TXL     S1,4,0        IF ZERO MULTIPLICITY
      00607  0634 00 4 00616  S3     SXA     S2,4
      00610  0500 00 0 77504         CLA     LPOINT
      00611  0400 00 0 77510         ADD     CC            INCREASE LINE POINTER

  BINARY CARD NO. IOH00014
      00612  0734 00 4 00000         PAX     0,4
      00613  1 77777 4 00614         TXI     *+1,4,-1
      00614  0522 00 0 00562         XEC     SIZE1         TEST T4 SEE IF TOO BIG
      00615  0601 00 0 77504         STO     LPOINT
      00616  0774 00 4 00000  S2     AXT     **,4
      00617  2 00001 4 00607         TIX     S3,4,1
      00620  0774 00 4 00000  S1     AXT     **,4          RESTORE IR4 AND
      00621  0020 00 4 00001         TRA     1,4           RETURN


                                     SPACE   6
                              ***********************************************************************
                              *                                                                     *
                              *      ENTRY FROM FORMAT SCAN ON , (COMMA)                            *
                              *                                                                     *
                              ***********************************************************************


                                     SPACE   3
      00622 -0774 00 4 00315  COMMA2 AXC     BETA-1,4      ON DIRECT SCAN ENTRY, SET IR4 SO WILL
                                                           RETURN TO BETA
      00623  0634 00 4 00625  COMMA  SXA     C1,4          SAVE IR4
      00624  0074 00 4 00000  FFN    TSX     **,4
      00625  0774 00 4 00000  C1     AXT     **,4          RESTORE IR4 AND
      00626  0020 00 4 00001         TRA     1,4           RETURN
1            FAP                                                                                 PAGE 22
                           (IOH)     PART II FORMAT SCAN                       JSMI

                                     EJECT
                              ***********************************************************************
                              *                                                                     *
                              *      ENTRY FROM FORMAT SCAN ON M -- FLOATING $ SIGN WANTED          *
                              *                                                                     *
                              ***********************************************************************


                                     SPACE   2
      00627 -0055 00  020000  FLDSGN SIL     MDSW
      00630  0020 00 0 00520         TRA     NEXT


                                     SPACE   4
                              ***********************************************************************
                              *                                                                     *
                              *      ENTRY FROM FORMAT SCAN ON N -- NO RESET IF PRINT               *
                              *                                     NO PRINT IF END OF FORMAT       *
                              *                                                                     *
                              ***********************************************************************


                                     SPACE   2
      00631 -0055 00  100000  DONT   SIL     NDSW
      00632  0020 00 0 00520         TRA     NEXT


                                     SPACE   4
                              ***********************************************************************
                              *                                                                     *
                              *      ENTRY FROM FORMAT SCAN ON V -- COMMAS WANTED EVERY 3 DIGITS    *
                              *                                                                     *
                              ***********************************************************************


                                     SPACE   2
      00633 -0055 00  040000  CETD   SIL     VDSW
      00634  0020 00 0 00520         TRA     NEXT


                                     SPACE   4
                              ***********************************************************************
                              *                                                                     *
                              *      ENTRY FROM FORMAT SCAN ON G -- SIGNIFICANT DIGITS SPECIFICATION*
                              *                                                                     *
                              ***********************************************************************
1            FAP                                                                                 PAGE 23
                           (IOH)     PART II FORMAT SCAN                       JSMI

                                     SPACE   2
      00635  0054 00  637000  GSPEC  RFT     FDSW+EDSW+INTDSW+OCTDSW+BCDDSW+STXDSW+GDSW

  BINARY CARD NO. IOH00015
      00636  0020 00 0 03733         TRA     MCOM          IF TAKEN, WAS ALREADY A SPEC GIVEN - ERROR
      00637  0055 00  420000         SIR     GDSW+FDSW
      00640  0020 00 0 00644         TRA     FECHK
1            FAP                                                                                 PAGE 24
                           (IOH)     PART II FORMAT SCAN                       JSMI

                                     EJECT
                              ***********************************************************************
                              *                                                                     *
                              *      ENTRY FROM FORMAT SCAN ON F                                    *
                              *                                                                     *
                              ***********************************************************************


                                     SPACE   3
      00641  0054 00  637000  FSPEC  RFT     FDSW+EDSW+INTDSW+OCTDSW+BCDDSW+STXDSW+GDSW
      00642  0020 00 0 03733         TRA     MCOM          IF TAKEN, WAS ALREADY A SPEC GIVEN - ERROR
      00643  0055 00  020000         SIR     FDSW          SET F SWITCH
      00644  0774 00 4 01333  FECHK  AXT     CNVRT2,4      GET CONVERSION ENTRY
      00645  0020 00 0 00656         TRA     I2            AND GO TO SET IT FOR COMMA


                                     SPACE   6
                              ***********************************************************************
                              *                                                                     *
                              *      ENTRY FROM FORMAT SCAN ON E                                    *
                              *                                                                     *
                              ***********************************************************************


                                     SPACE   3
      00646  0054 00  637000  ESPEC  RFT     FDSW+EDSW+INTDSW+OCTDSW+BCDDSW+STXDSW+GDSW
      00647  0020 00 0 03733         TRA     MCOM          IF TAKEN, WAS ALREADY A SPEC GIVEN - ERROR
      00650  0055 00  010000         SIR     EDSW          SET E SWITCH
      00651  0020 00 0 00644         TRA     FECHK


                                     SPACE   6
                              ***********************************************************************
                              *                                                                     *
                              *      ENTRY FROM FORMAT SCAN ON I                                    *
                              *                                                                     *
                              ***********************************************************************


                                     SPACE   3
      00652  0054 00  637000  INTGR  RFT     FDSW+EDSW+INTDSW+OCTDSW+BCDDSW+STXDSW+GDSW
      00653  0020 00 0 03733         TRA     MCOM          IF TAKEN, WAS ALREADY A SPEC GIVEN - ERROR
      00654  0055 00  004000         SIR     INTDSW        SET I SWITCH
      00655  0774 00 4 01336  I1     AXT     CNVRT3,4      GET CONVERSION ENTRY AND
1            FAP                                                                                 PAGE 25
                           (IOH)     PART II FORMAT SCAN                       JSMI

      00656  0634 00 4 00624  I2     SXA     FFN,4         SET IT FOR COMMA
      00657  0074 00 4 03331         TSX     CCTRST,4      USE CC, IF ANY,
 TD   00660  3 00000 0 77511         PAR     MULT          AS MULTIPLICITY
      00661  0020 00 0 00520         TRA     NEXT
1            FAP                                                                                 PAGE 26
                           (IOH)     PART II FORMAT SCAN                       JSMI

                                     EJECT
                              ***********************************************************************
                              *                                                                     *
                              *      ENTRY FROM FORMAT SCAN ON O AND K (OCTAL)                      *
                              *                                                                     *
                              ***********************************************************************


                                     SPACE   3

  BINARY CARD NO. IOH00016
      00662  0054 00  637000  OCTAL  RFT     FDSW+EDSW+INTDSW+OCTDSW+BCDDSW+STXDSW+GDSW
      00663  0020 00 0 03733         TRA     MCOM          IF TAKEN, WAS ALREADY A SPEC GIVEN - ERROR
      00664  0055 00  002000         SIR     OCTDSW        SET OCTAL SWITCH
      00665  0054 00  000006         RFT     LDSW+RDSW
      00666  0020 00 0 00655         TRA     I1            GO SET CONVERSION ENTRY
      00667  0055 00  000002         SIR     RDSW          IF NEITHER LEFT ADJ NOR RT ADJ,SET RT ADJ
      00670  0020 00 0 00655         TRA     I1            GO SET CONVERSION ENTRY


                                     SPACE   6
                              ***********************************************************************
                              *                                                                     *
                              *      ENTRY FROM FORMAT SCAN ON C AND A (BCD)                        *
                              *                                                                     *
                              ***********************************************************************


                                     SPACE   3
      00671 -0625 00 0 00232   ABCD  STL     ASWT          SET FOR FORTRAN -LIKE A FORMAT           MI
      00672  0054 00  637000  BCD    RFT     FDSW+EDSW+INTDSW+OCTDSW+BCDDSW+STXDSW+GDSW
      00673  0020 00 0 03733         TRA     MCOM          IF TAKEN, WAS ALREADY A SPEC GIVEN - ERROR
      00674  0055 00  001000         SIR     BCDDSW        SET BCD SWITCH
      00675  0054 00  000006         RFT     LDSW+RDSW
      00676  0020 00 0 00655         TRA     I1            GO SET CONVERSION ENTRY
      00677  0055 00  000004         SIR     LDSW          IF NEITHER LEFT NOR RIGHT ADJ, SET LEFT ADJ
      00700  0020 00 0 00655         TRA     I1


                                     SPACE   6
                              ***********************************************************************
                              *                                                                     *
                              *      ENTRY FROM FORMAT SCAN ON / (NEW CARD OR LINE)                 *
                              *                                                                     *
                              ***********************************************************************
1            FAP                                                                                 PAGE 27
                           (IOH)     PART II FORMAT SCAN                       JSMI

                                     SPACE   3
      00701  0074 00 4 00623  SLASH  TSX     COMMA,4       COMPLETE PROCESSING OF FORMAT TERM
      00702  0074 00 4 03050         TSX     INOUT2,4      GET NEW CARD OR LINE
1            FAP                                                                                 PAGE 28
                           (IOH)     PART II FORMAT SCAN                       JSMI

                                     EJECT
                              ***********************************************************************
                              *                                                                     *
                              *      ENTRY FROM FORMAT SCAN ON (  (LEFT PARENTHESIS)                *
                              *                                                                     *
                              ***********************************************************************


                                     SPACE   3
      00703 -0054 00  000002  LPAREN LFT     FOFDSW        FORMAT-OFF SWITCH
      00704  0020 00 0 00734         TRA     LPOFF         IS ON
      00705  0074 00 4 03331         TSX     CCTRST,4      IS OFF

  BINARY CARD NO. IOH00017
 TD   00706  3 00000 0 77511         PAR     MULT          GET PROPER QUANTITY FOR MULTIPLICITY
      00707  0534 00 4 77503         LXA     PDPTR,4
                              *              TEST FOR PUSH-DOWN LIST OVERLAPPING COMMON             MI
      00710  3 77754 4 03742         TXH     PCOL.,4,ERASRR-4                                       MI
      00711  0500 00 0 77511         CLA     MULT
      00712  0100 00 0 00731         TZE     ZERMUL        ZERO MULTIPLICITY IS MEANINGFULL,GO PROCESS
      00713  0767 00 0 00022         ALS     18
      00714  0400 00 0 77511         ADD     MULT          MULT IN ADDRESS AND DECREMENT
      00715  0601 00 4 77501         STO     ERAS,4        PUT IN PUSH-DOWN LIST
      00716  0754 00 2 00000         PXA     0,2
      00717  0621 00 4 77500         STA     ERAS-1,4      PUT FORMAT WORD LOCATION IN P-D LIST
      00720 -0754 00 1 00000         PXD     0,1
      00721  0622 00 4 77500         STD     ERAS-1,4      ALSO LOCATION IN FORMAT WORD
      00722  0600 00 4 77477         STZ     ERAS-2,4      ZERO OUT FOLLOWING TWO P-D LOCATIONS
      00723  0600 00 4 77476         STZ     ERAS-3,4
      00724  1 00002 4 00725         TXI     *+1,4,2       INCREMENT P-D POINTER
      00725  0634 00 4 77503         SXA     PDPTR,4           AND SAVE
      00726  0500 00 0 04600  LP1    CLA     =1
      00727  0601 00 0 77511         STO     MULT          RESET MULTIPLICITY
      00730  0020 00 0 00520         TRA     NEXT
                              *
      00731  0600 00 0 77534  ZERMUL STZ     SPARCT        FOR ZERO MULT, ZERO PAREN COUNT

  BINARY CARD NO. IOH00018
      00732 -0055 00  000002         SIL     FOFDSW        SET FORMAT-OFF SWITCH
      00733  0020 00 0 00726         TRA     LP1           AND GO ON
                              *
      00734  0500 00 0 77534  LPOFF  CLA     SPARCT        WHEN FORMAT-OFF SWITCH IS SET,
      00735  0400 00 0 04600         ADD     =1            ONLY INCREMENT PAREN COUNT
      00736  0601 00 0 77534         STO     SPARCT
      00737  0020 00 0 00726         TRA     LP1           AND GO ON
1            FAP                                                                                 PAGE 29
                           (IOH)     PART II FORMAT SCAN                       JSMI

                                     EJECT
                              ***********************************************************************
                              *                                                                     *
                              *      ENTRY FROM FORMAT SCAN ON )  (RIGHT PARENTHESIS)               *
                              *                                                                     *
                              ***********************************************************************


                                     SPACE   3
      00740  0074 00 4 00623  RPAREN TSX     COMMA,4       TERMINATE FORMAT TERM
      00741 -0054 00  000002         LFT     FOFDSW
      00742  0020 00 0 00773         TRA     RPFOFF        IF FORMAT-OFF SWITCH IS SET
      00743  0534 00 4 77503         LXA     PDPTR,4
      00744  1 77776 4 00745         TXI     *+1,4,-2      'POP' ITEMS ON PUSH-DOWN LIST
      00745  3 77773 4 03711         TXH     ERP,4,-5      HAVE WE GONE OFF END
 TD   00746 -3 00000 0 00770  RP4    BRANCH  RP1           OH LUCKY US - WE HAVEN'T.  IS THIS FORTRAN
      00747  0500 00 4 77501  RP3    CLA     ERAS,4        NO
      00750  0402 00 0 04600         SUB     =1            REDUCE MULTIPLICITY COUNT
      00751  0601 00 4 77501         STO     ERAS,4        AND REPLACE
      00752 -0320 00 0 04630         ANA     =O77777                                                MI
      00753  0634 00 4 77503         SXA     PDPTR,4
      00754  0100 00 0 00316         TZE     BETA          IF COUNT IS ZERO, GO ON
      00755  0500 00 4 77500  RP5    CLA     ERAS-1,4

  BINARY CARD NO. IOH00019
      00756  1 00002 4 00757         TXI     *+1,4,2       'PUSH' ITEMS ON PUSH-DOWN LIST
      00757  0634 00 4 77503         SXA     PDPTR,4       SAVE PUSH-DOWN LIST POINTER
      00760  0734 00 2 00000         PAX     0,2
      00761 -0734 00 5 00000         PDX     0,5
      00762 -0500 00 2 00000         CAL     0,2           GET FORMAT WORD
      00763 -0765 00 0 00006         LGR     6             AND SET IT
      00764  2 00001 4 00763         TIX     *-1,4,1       TO PROPER
      00765 -0763 00 0 00006         LGL     6             CHARACTER POSITION
      00766  0055 00  100000         SIR     LPSDSW        TURN ON SWITCH TO SKIP THIS FORMAT CHAR
      00767  0020 00 0 00316         TRA     BETA          AND RETURN
                              *
      00770  3 00000 4 00747  RP1    TXH     RP3,4,0       IS THIS FINAL PAREN
      00771  0774 00 2 00002         AXT     2,2           -YES   SET RESTART INDEX
      00772  0020 00 0 01005         TRA     DN1           AND GO TO RESTART, IF NECESSARY
                              *
      00773  0500 00 0 77534  RPFOFF CLA     SPARCT
      00774  0402 00 0 04600         SUB     =1            DECREMENT PAREN COUNT
      00775 -0120 00 0 01000         TMI     REINST        IF THIS WAS THE MATCHING RIGHT PAREN-
      00776  0601 00 0 77534         STO     SPARCT        OTHERWISE
      00777  0020 00 0 00520         TRA     NEXT              GO ON
                              *
      01000 -0057 00  000002  REINST RIL     FOFDSW        RESET FORMAT-OFF SWITCH
      01001  0020 00 0 00316         TRA     BETA
1            FAP                                                                                 PAGE 30
                           (IOH)     PART II FORMAT SCAN                       JSMI

                                     EJECT
                              ***********************************************************************
                              *                                                                     *
                              *      ENTRY FROM FORMAT SCAN ON *  (ASTERISK)                        *
                              *                                                                     *
                              ***********************************************************************


                                     SPACE   3

  BINARY CARD NO. IOH00020
      01002  0074 00 4 00623  DONE   TSX     COMMA,4       TERMINATE CURRENT FORMAT TERM
      01003  0634 00 2 77532         SXA     NL5,2
      01004  0774 00 2 00000         AXT     0,2           SET RESTART INDEX
      01005  0074 00 4 03220  DN1    TSX     NLE,4         SEE IF LIST IS EMPTY
      01006  0760 00 0 00142         SLN     LISDSW        SET 'LIST ITEM ALREADY HERE' SWITCH
      01007 -0056 00  010000         LNT     CNVDSW
      01010  0020 00 0 03737         TRA     EMPTY         FORMAT EMPTY, LIST NOT EMPTY
      01011  0074 00 4 03051         TSX     INOUT,4       NEW CARD OR LINE
      01012  0055 00  040000         SIR     FIRDSW        SET SWITCH TO RESTART FORMAT SCAN
      01013 -0520 00 2 77500         NZT     ERAS-1,2      IF WAS NO OTHER LEFT PAREN,
      01014  0020 00 0 00316         TRA     BETA               RESTART SCAN
      01015  0057 00  040000         RIR     FIRDSW        OTHERWISE - RESET SWITCH
      01016  0754 00 2 00000         PXA     0,2           THERE WAS A LEFT PAREN, SO MOVE PUSH-DOWN
      01017  0734 00 4 00000         PAX     0,4           COUNT FROM IR2 TO IR4
      01020  0500 00 4 77501         CLA     ERAS,4
      01021 -0734 00 2 00000         PDX     0,2           RESET MULTIPLICTY,
      01022  0634 00 2 77506         SXA     PREC,2        USING PREC AS A TEMPORARY LOCATION
      01023 -0634 00 2 77506         SXD     PREC,2
      01024  0500 00 0 77506         CLA     PREC
      01025  0601 00 4 77501         STO     ERAS,4

  BINARY CARD NO. IOH00021
      01026  0020 00 0 00755         TRA     RP5           AND GO TO RESET FORMAT POINTER
1            FAP                                                                                 PAGE 31
                           (IOH)     PART II FORMAT SCAN                       JSMI

                                     EJECT
                              ***********************************************************************
                              *                                                                     *
                              *      ENTRY FROM FORMAT SCAN ON H  (HOLLERITH FIELD)                 *
                              *                                                                     *
                              ***********************************************************************


                                     SPACE   3
      01027 -0055 00  000100  HOLL   SIL     HOLDSW        SET SWITCH SO TRANSFER TO GET NEW FORMAT
                                                           CHARACTER RETURNS TO HL1
      01030  0054 00  637000         RFT     FDSW+EDSW+INTDSW+OCTDSW+BCDDSW+STXDSW+GDSW
      01031  0020 00 0 03733         TRA     MCOM          IF TAKEN, WAS ALREADY SPEC GIVEN - ERROR
      01032  0055 00  000001         SIR     ZDSW          USE ZSW AS TEMPORARY FIRST-CHARACTER SWITCH
      01033  0500 00 0 77510         CLA     CC
      01034  0056 00  000100         RNT     CCDSW         IF NO COUNT,
      01035  0500 00 0 04630         CLA     =O77777       PUT IN HIGH COUNT TO INSURE NOT GET      MI
                                                           EXHAUSTED
      01036  0601 00 0 77502         STO     FIELDW        USE FIELDW AS TEMP STORAGE FOR COUNT
      01037  0020 00 0 00520  HL2    TRA     NEXT          GET NEXT CHARACTER
      01040  0054 00  000001  HL1    RFT     ZDSW
      01041  0020 00 0 01062         TRA     MSTBK         IF FIRST CHARACTER -
      01042  0056 00  000100  HL3    RNT     CCDSW         OTHERWISE -
      01043  0340 00 0 77506         CAS     PREC              IF NO COUNT, COMPARE WITH BREAK CHAR
      01044  0020 00 0 01046         TRA     *+2
      01045  0020 00 0 01105         TRA     OUTTT
      01046  0535 00 4 77504         LAC     LPOINT,4
      01047 -0056 00  400000         LNT     OUTDSW
      01050  0020 00 0 01067         TRA     HLIN          IF INPUT
      01051  0601 00 4 00007         STO     BIMAGE-1,4    IF OUTPUT, PUT IN IMAGE

  BINARY CARD NO. IOH00022
      01052  0534 00 4 77504  HL4    LXA     LPOINT,4
      01053  0522 00 0 00562         XEC     SIZE1         INCREASE LINE POINTER
      01054  1 00001 4 01055         TXI     *+1,4,1       AND CHECK FOR LONG LINE OR CARD
      01055  0634 00 4 77504         SXA     LPOINT,4      SAVE LINE POINTER
      01056  0534 00 4 77502         LXA     FIELDW,4
      01057 -2 00001 4 01105         TNX     OUTTT,4,1     ARE WE DONE BECAUSE OF EXHAUSTING COUNT
      01060  0634 00 4 77502         SXA     FIELDW,4      NO - SAVE COUNT
      01061  0020 00 0 01037         TRA     HL2
                              *
      01062  0057 00  000001  MSTBK  RIR     ZDSW          RESET FIRST - CHARACTER SWITCH
      01063  0054 00  000100         RFT     CCDSW
      01064  0020 00 0 01042         TRA     HL3
      01065  0601 00 0 77506         STO     PREC          IF NO COUNT, SAVE - USING PREC AS TEMP STOR
      01066  0020 00 0 01037         TRA     HL2               TO USE AS BREAK CHARACTER
                              *
      01067 -0500 00 1 01115  HLIN   CAL     MASK,1
      01070  0320 00 2 00000         ANS     0,2           ZERO OUT PRESENT FORMAT CHARACTER
      01071 -0600 00 0 77533         STQ     MQSAVE
      01072  0560 00 4 00007         LDQ     BIMAGE-1,4    GET IMAGE CHARACTER
      01073  0754 00 1 00000         PXA     0,1
      01074  0402 00 0 04600         SUB     =1
      01075  0734 00 4 00000         PAX     0,4
1            FAP                                                                                 PAGE 32
                           (IOH)     PART II FORMAT SCAN                       JSMI

  BINARY CARD NO. IOH00023
      01076  0131 00 0 00000         XCA
      01077 -3 00000 4 01102         TXL     HL5,4,0
      01100  0767 00 0 00006         ALS     6             AND SHIFT TO CORRECT POSITION
      01101  2 00001 4 01100         TIX     *-1,4,1
      01102 -0602 00 2 00000  HL5    ORS     0,2           THEN PUT IN FORMAT
      01103  0560 00 0 77533         LDQ     MQSAVE
      01104  0020 00 0 01052         TRA     HL4
                              *
      01105 -0057 00  000100  OUTTT  RIL     HOLDSW        TURN OFF SW SO FORMAT SCAN GOES NORMALLY
      01106  0020 00 0 00316         TRA     BETA
                              *
      01107 +007777777777            OCT     007777777777
      01110 -370077777777            OCT     770077777777
      01111 -377700777777            OCT     777700777777
      01112 -377777007777            OCT     777777007777
      01113 -377777770077            OCT     777777770077
      01114 -377777777700            OCT     777777777700
                       01115  MASK   SYN     *
1            FAP                                                                                 PAGE 33
                           (IOH)     PART II FORMAT SCAN                       JSMI

                                     EJECT
                              ***********************************************************************
                              *                                                                     *
                              *      ENTRY FROM FORMAT SCAN ON A ' (PRIME)                          *
                              *      PRIMES ARE FORMAT VARIABLE DELIMITERS                          *
                              *                                                                     *
                              ***********************************************************************


                                     SPACE   3
      01115  0600 00 0 77524  VARBEG STZ     VARNAM        ZERO OUT VARIABLE NAME
      01116  0600 00 0 77525         STZ     DIM1          ZERO OUT FIRST SUBSCRIPT
      01117 -0057 00  000070         RIL     ENDDSW+DM2DSW+ADSW  RESET TERMINATION SWITCH, 2 SUBSCRIPT
                                                           SWITCH, AND ALPHAN. SUBSCRIPT SWITCH
      01120 -0055 00  000001         SIL     HTDSW         SET SO TRANSFER TO GET NEXT FORMAT
                                                           CHARACTER RETURNS TO TYPE2
      01121 -0600 00 0 77533         STQ     MQSAVE        SAVE MQ

  BINARY CARD NO. IOH00024
      01122  0074 00 4 01307  VR8    TSX     TYPE,4        GET NEXT CHAR AND DETERMINE TYPE
      01123  0020 00 0 01240         TRA     VR3           IS ALPHABETIC
      01124  0020 00 0 01240         TRA     VR3           IS NUMERIC
      01125 -0055 00  000010         SIL     ENDDSW        IS A PRIME OR RIGHT PAREN
      01126  0074 00 4 01265         TSX     SEARCH,4      IS A SUBSCRIPT DELIMITER
      01127 -0054 00  000010         LFT     ENDDSW
      01130  0020 00 0 01171         TRA     VR6           IS END
      01131 -0600 00 0 77523         STQ     LOC           NOT END, SO SUBSCRIPT FOLLOWS. SAVE LOCN
      01132  0600 00 0 77524  VR7    STZ     VARNAM        AND
      01133  0074 00 4 01307  VR10   TSX     TYPE,4        BEGIN GATHERING SUBSCRIPT
      01134 -0055 00  000040         SIL     ADSW          IS ALPHABETIC
      01135  0020 00 0 01245         TRA     VR9           IS NUMERIC
      01136 -0055 00  000010         SIL     ENDDSW        IS A PRIME OR RIGHT PAREN
      01137  0500 00 0 77524         CLA     VARNAM
      01140 -0056 00  000040         LNT     ADSW
      01141  0020 00 0 01153         TRA     VR11          CONSTANT SUBSCRIPT
      01142  0074 00 4 01265         TSX     SEARCH,4      VARIABLE SUBSCRIPT
      01143  0131 00 0 00000         XCA
      01144  0625 00 0 01147         STT     VR18
      01145  0621 00 0 01146         STA     *+1

  BINARY CARD NO. IOH00025
      01146  0500 00 0 00000         CLA     **
      01147  3 00000 0 01153  VR18   TXH     *+4,**,0      MODE   FLOATING POINT, TRANSFER
      01150 -0300 00 0 04642         UFA     =O233000000000 FIX                                     MI
      01151  0322 00 0 04642         ERA     =O233000000000                                         MI
      01152  0763 00 0 00000         LLS     0
      01153  0560 00 0 04630   VR11  LDQ     =O77777       CHECK SIZE OF SUBSCRIPT                  MI
      01154  0040 00 0 03727         TLQ     SUBERR        SUBSCRIPT TOO LARGE
      01155 -0054 00  000010         LFT     ENDDSW
      01156  0020 00 0 01165         TRA     VR66          WAS PRIME OR RIGHT PAREN
      01157  0621 00 0 77525         STA     DIM1
      01160 -0054 00  000020         LFT     DM2DSW
      01161  0020 00 0 03727         TRA     DIMERR        MORE THAN 2 SUBSCRIPTS - ERROR
      01162 -0055 00  000020         SIL     DM2DSW        SET 2 SUBSCR SWITCH
1            FAP                                                                                 PAGE 34
                           (IOH)     PART II FORMAT SCAN                       JSMI

      01163 -0057 00  000040         RIL     ADSW          RESET ALPH. SWITCH
      01164  0020 00 0 01132         TRA     VR7
                              *
      01165 -0056 00  000020  VR66   LNT     DM2DSW
      01166  0621 00 0 77525         STA     DIM1          1 SUBSCR, PUT IN BOTH DIM1 AND DIM2
      01167  0621 00 0 77526         STA     DIM2          2 SUBSCR, PUT SECOND IN DIM2
      01170  0560 00 0 77523         LDQ     LOC
      01171 -0754 00 0 00000  VR6    ZAC

  BINARY CARD NO. IOH00026
      01172 -0763 00 0 00003         LGL     3
      01173  0602 00 0 77532         SLW     NL5           USE AS DIMENSIONABLE FLAG
      01174 -0763 00 0 00017         LGL     15
      01175  0767 00 0 00017         ALS     15
      01176 -0763 00 0 00003         LGL     3
      01177  0622 00 0 01221         STD     VR13          LOCATION OF DIMENSION VECTOR
      01200  0621 00 0 00233         STA     MODE          MODE
      01201 -0763 00 0 00017         LGL     15
      01202 -0054 00  000020         LFT     DM2DSW        ARE THERE TWO SUBSCRIPTS
      01203  0020 00 0 01212         TRA     VR14          YES
      01204 -0520 00 0 77525         NZT     DIM1          ARE THERE ANY SUBSCRIPTS
      01205  0020 00 0 01224         TRA     VR15          NO
      01206 -0520 00 0 77532         NZT     NL5           IS THE VARIABLE DIMENSIONABLE
      01207  0020 00 0 03727         TRA     SUBERR        NO
      01210 -0400 00 0 77525         SBM     DIM1          COMPUTE TRUE ADDRESS
      01211  0020 00 0 01224         TRA     VR15
                              *
      01212 -0534 00 4 01221  VR14   LXD     VR13,4
      01213 -3 00000 4 03727         TXL     SUBERR,4,0    NO DIMENSION VECTOR IF TAKEN
      01214  0621 00 0 01221         STA     VR13
      01215  0500 00 0 77525         CLA     DIM1

  BINARY CARD NO. IOH00027
      01216  0560 00 0 77526         LDQ     DIM2
      01217  0634 00 1 01222         SXA     VR16,1        'SOMEBODY HAS TO SAVE IT' SAYS BOB CRABTREE
      01220                          CALL    .03311
                                     IFF     1,.03311,SPRINT                                                  .001
                                     TSX     .SPRNT,4                                                         .001
                                     IFF     0,.03311,SPRINT                                                  .001
      01220  0074 00 4 00000         TSX     $.03311,4                                                        .001
                                     IFF     1,..002,...                                                      .001
                                     PZE     ..001,..002,..003                                                .001
      01221  2 00000 0 00000  VR13   BLK     **,,**
      01222  0774 00 1 00000  VR16   AXT     **,1
      01223 -0400 00 0 01221         SBM     VR13          COMPUTE TRUE ADDRESS
      01224  0621 00 0 01225  VR15   STA     *+1
      01225  0500 00 0 00000         CLA     **
      01226  0520 00 0 00233         ZET     MODE
      01227  0020 00 0 01233         TRA     VR17          NOT FLOATING POINT
      01230 -0300 00 0 04642         UFA     =O233000000000 IS FLOATING, SO FIX                     MI
      01231  0322 00 0 04642         ERA     =O233000000000                                         MI
      01232  0763 00 0 00000         LLS     0
      01233  0601 00 0 77510  VR17   STO     CC
      01234  0055 00  000100         SIR     CCDSW
      01235  0560 00 0 77533         LDQ     MQSAVE
1            FAP                                                                                 PAGE 35
                           (IOH)     PART II FORMAT SCAN                       JSMI

      01236 -0057 00  000001         RIL     HTDSW         TURN OFF TRANSFER SWITCH
      01237  0020 00 0 00521         TRA     NEXT+1        EXIT - AT LAST
                              *
                              *
      01240 -0500 00 0 77524  VR3    CAL     VARNAM        ACCUMULATE
      01241  0767 00 0 00006         ALS     6             NAME

  BINARY CARD NO. IOH00028
      01242 -0501 00 0 77522         ORA     CHAR
      01243  0602 00 0 77524         SLW     VARNAM
      01244  0020 00 0 01122         TRA     VR8
                              *
      01245  0140 00 0 01246  VR9    TOV     *+1
      01246 -0056 00  000040         LNT     ADSW
      01247  0020 00 0 01255         TRA     VR12          IS CONSTANT SUBSCRIPT
      01250 -0500 00 0 77524         CAL     VARNAM        IS VARIABLE SUBSCRIPT
      01251  0767 00 0 00006         ALS     6
      01252 -0501 00 0 77522         ORA     CHAR
      01253  0602 00 0 77524         SLW     VARNAM
      01254  0020 00 0 01133         TRA     VR10
                              *
      01255  0500 00 0 77524  VR12   CLA     VARNAM
      01256  0767 00 0 00002         ALS     2
      01257  0400 00 0 77524         ADD     VARNAM
      01260  0767 00 0 00001         ALS     1
      01261  0400 00 0 77522         ADD     CHAR
      01262  0601 00 0 77524         STO     VARNAM        VARNAM=10* VARNAM + CHAR
      01263  0140 00 0 03727         TOV     SUBERR        SUBSCRIPT TOO LARGE IF OVFLO
      01264  0020 00 0 01133         TRA     VR10


                                     SPACE   6
                              *      SEARCH SEARCHES THE SYMBOL TABLE FOR VARNAM, RETURNS WITH
                              *      ASSOCIATED INFORMATION IN THE MQ


                                     SPACE   3
      01265  0634 00 4 01305  SEARCH SXA     SR4,4

  BINARY CARD NO. IOH00029
      01266  0500 60 0 77771         CLA*    STLOC
      01267  0734 00 4 00000         PAX     0,4
      01270  0500 00 0 77771         CLA     STLOC
      01271  0621 00 0 01277         STA     VR4
      01272 -0500 00 0 77524         CAL     VARNAM
      01273  0560 00 0 04651         LDQ     =H
      01274 -0765 00 0 00006         LGR     6             LEFT ADJUST WITH TRAILING BLANKS
      01275 -0100 00 0 01274         TNZ     *-1
      01276 -0130 00 0 00000         XCL
      01277 -0340 00 4 00000  VR4    LAS     **,4
1            FAP                                                                                 PAGE 36
                           (IOH)     PART II FORMAT SCAN                       JSMI

      01300  0020 00 0 01302         TRA     *+2
      01301  1 77777 4 01304         TXI     VRFND,4,-1
      01302  2 00002 4 01277         TIX     VR4,4,2
      01303  0020 00 0 03722         TRA     NOVAR
                              *
      01304  0560 60 0 01277  VRFND  LDQ*    VR4
      01305  0774 00 4 00000  SR4    AXT     **,4
      01306  0020 00 4 00001         TRA     1,4


                                     SPACE   6
                              *      TYPE GETS NEW CHAR AND DECIDES TYPE ON BASIS OF LEFT 3 BITS OF
                              *      DECREMENT OF TRATAB -
                              *                  CHARS - DECR BITS - NAME - WHAT DONE
                              *                  BLANK       6       IGNORE    GET NEXT CHAR
                              *                  (,          5       SUBSCR    TRA 4,4
                              *                  )           4       STOPN     SET SW, TRA 3,4
                              *                  '           3       STOP      TRA 3,4
                              *                  0-9         2       NBR       TRA 2,4
                              *                  A-Z.        1       LTR       TRA 1,4
                              *                  ILLEGAL     0       ILCHAR    TRA TO ERROR PRINT


                                     SPACE   3
      01307  0634 00 4 01320  TYPE   SXA     TYPE4,4
      01310  0560 00 0 77533         LDQ     MQSAVE
      01311  0020 00 0 00520         TRA     NEXT

  BINARY CARD NO. IOH00030
      01312 -0600 00 0 77533  TYPE2  STQ     MQSAVE        RETURN FROM 'TRA NEXT'
      01313  0560 00 4 00510         LDQ     TRATAB,4
      01314 -0754 00 0 00000         ZAC
      01315 -0773 00 0 00003         RQL     3
      01316 -0763 00 0 00003         LGL     3
      01317  0100 00 0 03373         TZE     BAD
      01320  0774 00 4 00000  TYPE4  AXT     **,4
      01321  0402 00 0 01332         SUB     TRAL
      01322  0621 00 0 01323         STA     *+1
      01323  0020 00 0 00000         TRA     **
      01324  0020 00 0 01307         TRA     TYPE          BLANK
      01325  0020 00 4 00004         TRA     4,4           SUBSCRIPTING - LPAREN OR COMMA
      01326  0055 00  100000         SIR     LPSDSW        RIGHT PAREN
      01327  0020 00 4 00003         TRA     3,4           PRIME
      01330  0020 00 4 00002         TRA     2,4
      01331  0020 00 4 00001         TRA     1,4
      01332  0 00000 0 01332  TRAL   PZE     TRAL
1            FAP                                                                                 PAGE 37
                           (IOH)     PART III CONVERSION                       JSMI

                                     TTL     (IOH)     PART III CONVERSION                       JSMI


                                     SPACE   15
                              ***********************************************************************
                              ***********************************************************************
                              **                                                                   **
                              **                                                                   **
                              **                       P A R T   I I I                             **
                              **                                                                   **
                              **                     C O N V E R S I O N                           **
                              **                                                                   **
                              **                                                                   **
                              ***********************************************************************
                              ***********************************************************************
1            FAP                                                                                 PAGE 38
                           (IOH)     PART III CONVERSION                       JSMI

                                     EJECT
                              ***********************************************************************
                              *                                                                     *
                              *      GENERAL CONVERSION SUBROUTINE - SELECTS SPECIFIC CONVERSION    *
                              *      ROUTINE TO TRANSFER TO. WATCHES OUT FOR LONG LINE OR CARD.     *
                              *                                                                     *
                              ***********************************************************************


                                     SPACE   3
      01333  0054 00  000400  CNVRT2 RFT     PTDSW         THIS ENTRY FROM E OR F SPECIFICATION
      01334  0020 00 0 01343         TRA     CONVRT        IF A PERIOD HAS OCCURRED, IS SAME AS CONVRT
      01335  0020 00 0 01340         TRA     CNVRT3+2      OTHERWISE                              JSMI
                              *

  BINARY CARD NO. IOH00031
      01336  0520 00 0 77502  CNVRT3 ZET     FIELDW                                                 MI
      01337  0020 00 0 01342         TRA     CONVRT-1      SKIP IN CASE OF BAD FORMAT.E.G.O18.9     MI
      01340  0500 00 0 77510         CLA     CC                                                     MI
      01341  0601 00 0 77502         STO     FIELDW        THIS ENTRY FOR OTHER SPECS
      01342  0600 00 0 77510         STZ     CC
      01343  0500 00 0 77511  CONVRT CLA     MULT
      01344  0100 00 4 00001         TZE     1,4           IF ZERO MULTIPLICITY, RETURN
      01345  0621 00 0 01522         STA     COUNT
      01346  0634 00 1 01436         SXA     CV1,1
      01347  0634 00 2 01435         SXA     CV2,2
      01350  0634 00 4 01434         SXA     CV4,4         SAVE IR4
      01351 -0600 00 0 77533         STQ     MQSAVE
      01352  0534 00 4 77507         LXA     BASE,4
      01353 -3 00001 4 03705         TXL     ZERBAS,4,1
      01354  3 00023 4 03705         TXH     ZERBAS,4,19   BASE TOO LARGE
      01355 -0055 00  010000         SIL     CNVDSW
      01356  0074 00 4 03220  CV6    TSX     NLE,4         NEXT LIST ELEMENT
      01357  0500 00 0 77502         CLA     FIELDW
      01360 -0100 00 0 01366         TNZ     CV10
      01361 -0054 00  400000         LFT     OUTDSW        ZERO FIELD WIDTH -

  BINARY CARD NO. IOH00032
      01362  0020 00 0 01431         TRA     CV11               IF OUTPUT, SKIP LIST ITEM
      01363  0600 00 0 00226         STZ     SUM                IF INPUT, READ IN ZEROS
      01364  0600 00 0 00227         STZ     SUM+1
      01365  0020 00 0 02320         TRA     DBCZER
      01366  0400 00 0 77504  CV10   ADD     LPOINT
      01367  0734 00 4 00000         PAX     0,4
      01370  0522 00 0 01435         XEC     CV2
      01371  1 77777 4 01372         TXI     *+1,4,-1
      01372  0522 00 0 00562         XEC     SIZE1         CHECK TO MAKE SURE NOT LONG LINE OR CARD
      01373  1 00001 4 01374         TXI     *+1,4,1
      01374  0054 00  001000         RFT     BCDDSW
      01375  0020 00 0 01441         TRA     BCDIO         IS BCD CONVERSION
      01376 -0054 00  400000         LFT     OUTDSW
      01377  0020 00 0 01403         TRA     CV8
      01400  0054 00  034000         RFT     FDSW+EDSW+INTDSW IS INPUT
      01401  0020 00 0 02021         TRA     DBC               FOR I,E, OR F
1            FAP                                                                                 PAGE 39
                           (IOH)     PART III CONVERSION                       JSMI

      01402  0020 00 0 01754         TRA     OCTIN         OTHERWISE IS OCTAL CONVERSION
                              *
      01403 -0054 00  000200  CV8    LFT     BIZDSW
      01404  0020 00 0 01426         TRA     CV7
      01405  0056 00  400000   CV5   RNT     GDSW          IS G SWITCH ON                           MI

  BINARY CARD NO. IOH00033
      01406  0020 00 0 01416         TRA     *+8                                                    MI
      01407  0057 00  024000         RIR     INTDSW+FDSW                                            MI
      01410  0055 00  010000         SIR     EDSW                                                   MI
      01411 -0500 00 0 00230         CAL     VALUE                                                  MI
      01412 -0320 00 0 04644         ANA     =O300000777777                                         MI
      01413 -0100 00 0 01416         TNZ     *+3                                                    MI
      01414  0057 00  010000         RIR     EDSW          USE INTEGER                              MI
      01415  0055 00  004000         SIR     INTDSW                                                 MI
      01416  0054 00  010000         RFT     EDSW                                                   MI
      01417  0020 00 0 02446         TRA     EOUT          IS E
      01420  0054 00  020000         RFT     FDSW
      01421  0020 00 0 02522         TRA     FOUT          IS F
      01422  0054 00  004000         RFT     INTDSW
      01423  0020 00 0 01526         TRA     INTOUT            IS INTEGER
      01424  0774 00 1 00003         AXT     3,1                                                  JSMI
      01425  0020 00 0 01743         TRA     EVN2                                                 JSMI


                                     SPACE   5                                                    JSMI
                              *
      01426  0520 00 0 00230  CV7    ZET     VALUE
      01427  0020 00 0 01405         TRA     CV5
      01430  0634 00 4 77504         SXA     LPOINT,4
      01431  0054 00  000010  CV11   RFT     DDSW

  BINARY CARD NO. IOH00034
      01432  0074 00 4 03220         TSX     NLE,4
      01433  0020 00 0 01522         TRA     COUNT
                              *
      01434  0774 00 4 00000  CV4    AXT     **,4          RETURN FROM CONVERSION
      01435  0774 00 2 00000  CV2    AXT     **,2
      01436  0774 00 1 00000  CV1    AXT     **,1          RESTORE THINGS
      01437  0560 00 0 77533         LDQ     MQSAVE
      01440  0020 00 4 00001         TRA     1,4           AND RETURN
1            FAP                                                                                 PAGE 40
                           (IOH)     PART III CONVERSION                       JSMI

                                     EJECT
                              ***********************************************************************
                              *                                                                     *
                              *      BCD INPUT AND OUTPUT CONVERSION SUBROUTINE                     *
                              *                                                                     *
                              ***********************************************************************


                                     SPACE   3
      01441  0634 00 4 01465  BCDIO  SXA     BCD1,4
      01442  0534 00 3 77502         LXA     FIELDW,3      PUT NUMBER OF
      01443 -3 00006 3 01450         TXL     *+5,3,6       IF FIELD .G. 6, RIGHT ADJUST             MI
      01444 -0520 00 0 00232         NZT     ASWT          IS A FORMAT SWITCH ON                    MI
      01445  0020 00 0 01447         TRA     *+2            NO                                      MI
      01446  0055 00  000002         SIR     RDSW          YES. SET TO RIGHT ADJUST                 MI
      01447  0774 00 3 00006         AXT     6,3           IN IR1 AND IR2
      01450 -0054 00  400000         LFT     OUTDSW
      01451  0020 00 0 01477         TRA     BCD2
      01452  0054 00  000002         RFT     RDSW
      01453  0534 00 2 77502         LXA     FIELDW,2
                              *
      01454 -0754 00 0 00000         ZAC                   INPUT
      01455  0056 00  000001         RNT     ZDSW

  BINARY CARD NO. IOH00035
      01456 -0500 00 0 04651         CAL     =H
      01457  0602 00 0 77532         SLW     NL5           USE NL5 AS TEMP STORAGE
      01460  0535 00 4 77504         LAC     LPOINT,4
                                                           LOOP
      01461  0767 00 0 00006  BCD6   ALS     6             TO
      01462  0400 00 4 00007         ADD     BIMAGE-1,4    BUILD
      01463  1 77777 4 01464         TXI     *+1,4,-1      UP
      01464  2 00001 2 01461         TIX     BCD6,2,1      WORD
      01465  0774 00 4 00000  BCD1   AXT     **,4
      01466  0634 00 4 77504         SXA     LPOINT,4      MOVE LINE POINTER
      01467  0054 00  000002         RFT     RDSW
      01470  0020 00 0 01475         TRA     RADJT         WANTS IT RIGHT ADJUSTED
      01471  0560 00 0 77532         LDQ     NL5           WANTS IT LEFT ADJUSTED
      01472  0774 00 4 00006         AXT     6,4
      01473 -0763 00 1 00006         LGL     6,1
      01474  2 00001 4 01473         TIX     *-1,4,1
      01475  0602 00 0 00230  RADJT  SLW     VALUE
      01476  0020 00 0 01522         TRA     COUNT
                              *
      01477  0560 00 0 00230  BCD2   LDQ     VALUE         OUTPUT
      01500  0056 00  000002         RNT     RDSW
      01501  0020 00 0 01506         TRA     BCD4          LEFT ADJUSTED

  BINARY CARD NO. IOH00036
      01502 -0754 00 0 00000         ZAC                   RIGHT ADJUSTED
      01503  0774 00 4 00006         AXT     6,4
      01504 -0763 00 1 00006         LGL     6,1
      01505  2 00001 4 01504         TIX     *-1,4,1
      01506  0535 00 4 01465  BCD4   LAC     BCD1,4
1            FAP                                                                                 PAGE 41
                           (IOH)     PART III CONVERSION                       JSMI

      01507 -0634 00 2 01510         SXD     *+1,2
      01510  1 00000 4 01511         TXI     *+1,4,**
      01511  0056 00  000002         RNT     RDSW
      01512  0535 00 4 77504         LAC     LPOINT,4
      01513 -0754 00 0 00000  BCD5   ZAC                   LOOP
      01514 -0763 00 0 00006         LGL     6             TO
      01515  0601 00 4 00007         STO     BIMAGE-1,4    SPREAD
      01516  1 77777 4 01517         TXI     *+1,4,-1      OUT
      01517  2 00001 2 01513         TIX     BCD5,2,1      WORD
      01520  0522 00 0 01465         XEC     BCD1
      01521  0634 00 4 77504         SXA     LPOINT,4      MOVE LINE POINTER
1            FAP                                                                                 PAGE 42
                           (IOH)     PART III CONVERSION                       JSMI

                                     EJECT
                              ***********************************************************************
                              *                                                                     *
                              *      COUNT CHECKS TO SEE IF MULTIPLICITY IS EXHAUSTED               *
                              *                                                                     *
                              ***********************************************************************


                                     SPACE   3
      01522  0774 00 4 00000  COUNT  AXT     **,4
      01523 -2 00001 4 01434         TNX     CV4,4,1       ALL DONE
      01524  0634 00 4 01522         SXA     COUNT,4
      01525  0020 00 0 01356         TRA     CV6           COUNT NOT EXHAUSTED - CONVERT SOME MORE
1            FAP                                                                                 PAGE 43
                           (IOH)     PART III CONVERSION                       JSMI

                                     EJECT
                              ***********************************************************************
                              ***********************************************************************
                              *                                                                     *
                              *      INTEGER OUTPUT CONVERSION SUBROUTINE                           *
                              *                                                                     *
                              ***********************************************************************


                                     SPACE   3

  BINARY CARD NO. IOH00037
      01526  0500 00 0 00230  INTOUT CLA     VALUE
      01527 -0054 00  200000         LFT     FTNDSW
      01530  0020 00 0 01536         TRA     IOC
      01531  0500 00 0 77507         CLA     BASE
      01532  0760 00 0 00001         LBT
      01533  0020 00 0 01735         TRA     EVEN          BASE IS EVEN NUMBER
      01534  0500 00 0 00230  STDD   CLA     VALUE
      01535  0020 00 0 01537         TRA     *+2
      01536  0771 00 0 00022  IOC    ARS     18
      01537  0602 00 0 77736         SLW     VEC           MUST BE SLW TO REMOVE SIGN
      01540  0634 00 4 77504         SXA     LPOINT,4
      01541  0774 00 4 00001         AXT     1,4
      01542  0634 00 0 01610         ZAD     INT3
      01543  0020 00 0 01610         TRA     INT3
                              *
      01544  0634 00 4 77504  STD    SXA     LPOINT,4
      01545  0634 00 0 01610         ZAD     INT3
      01546  0534 00 4 77506  INT4   LXA     PREC,4        GET PRECISION AND PUT
      01547 -0634 00 4 01605         SXD     SI2,4         IN AS LOOP TERMINATION
      01550  0774 00 6 00000         AXT     0,6           IR2 INDEXES WORDS FROM LIST
                                                           IR4 INDEXES EXPANDED NUMBER
      01551  0500 00 0 00230         CLA     VALUE         IF NEGATIME, AND ALL

  BINARY CARD NO. IOH00038
      01552  0120 00 0 01561         TPL     SI            CONVERSION DONE BY SHIFTING
      01553 -0056 00  000004         LNT     KODSW         (KODSW IS ON)
      01554  0020 00 0 01561         TRA     SI            THEN
      01555  0500 00 0 04613         CLA     =O31          INSERT SIGN(7 ADDED LATER AND            MI
                                                                THUS BE 40 (MINUS SIGN))
      01556  0601 00 0 77736         STO     VEC
      01557  0056 00  002000         RNT     OCTDSW
      01560  0774 00 4 00001         AXT     1,4
      01561  0754 00 2 00000  SI     PXA     0,2
      01562 -0400 00 0 03234         SBM     STORE
      01563 -0056 00  002000         LNT     EFDSW
      01564  0500 00 0 00235         CLA     VALLOC
      01565  0621 00 0 01566         STA     *+1
      01566  0560 00 0 00000  WI     LDQ     **
      01567  0774 00 1 00000  SI3    AXT     **,1          IR1 INDEXES LOOP TO EXPAND SINGLE WORD
      01570 -0754 00 0 00000         ZAC
      01571  0056 00  002000         RNT     OCTDSW
      01572  0765 00 0 00000         LRS     0             ASSUMES ALL WORDS OF INTEGER HAVE SIGN AND
1            FAP                                                                                 PAGE 44
                           (IOH)     PART III CONVERSION                       JSMI

                                                           IGNORES IT
      01573 -0754 00 0 00000  MI     ZAC
      01574 -0763 00 0 00000  SHFT   LGL     **
      01575  0601 00 4 77736         STO     VEC,4

  BINARY CARD NO. IOH00039
      01576  0056 00  002000         RNT     OCTDSW
      01577  0020 00 0 01601         TRA     *+2           DELETE LEADING ZEROS ONLY WHEN NOT ACTUAL
      01600 -0056 00  000004         LNT     KODSW         OCTAL (BOTH KODSW AND OCTDSW SET)
      01601  0520 00 0 77736         ZET     VEC
      01602  1 00001 4 01603         TXI     *+1,4,1
      01603  2 00001 1 01573         TIX     MI,1,1
      01604  1 00001 2 01605         TXI     *+1,2,1       INCREMENT LIST COUNTER
      01605 -3 00000 2 01561  SI2    TXL     SI,2,**       AND RETURN FOR NEXT WORD
      01606 -0054 00  000004         LFT     KODSW
      01607  0020 00 0 01702         TRA     OCTDON
                              *
      01610  0774 00 2 00000  INT3   AXT     **,2
      01611  0774 00 1 00004         AXT     4,1
      01612 -0634 00 4 01630         SXD     SVIR,4        SAVE LENGTH OF WORKING REGION
      01613  0600 00 0 77527  AGAIN  STZ     TEST
      01614 -0754 00 0 00000         ZAC
      01615  0774 00 4 00001         AXT     1,4
      01616  0767 00 0 00033  BI     ALS     27            CONVERT-
      01617 -0501 00 4 77737         ORA     VEC+1,4       DIVIDING
      01620 -0130 00 0 00000         XCL                   THROUGH
      01621 -0754 00 0 00000         ZAC

  BINARY CARD NO. IOH00040
      01622  0221 00 0 77507         DVP     BASE          BY BASE
      01623 -0600 00 4 77737         STQ     VEC+1,4       FOR EACH
      01624 -0130 00 0 00000         XCL                   ELEMENT
      01625 -0602 00 0 77527         ORS     TEST
      01626 -0130 00 0 00000         XCL
      01627  1 00001 4 01630         TXI     *+1,4,1       OVER ALL ELEMENTS
      01630 -3 00000 4 01616  SVIR   TXL     BI,4,**
      01631  3 00134 2 03715         TXH     TOOLAR,2,DIGLEN-1
      01632  2 00001 1 01640         TIX     *+6,1,1
      01633  0560 00 0 04623         LDQ     =O64          INSERT COMMA                             MI
      01634 -0600 00 2 77672         STQ     DIG,2
      01635 -0054 00  040000         LFT     VDSW
      01636  1 00001 2 01637         TXI     *+1,2,1
      01637  0774 00 1 00003         AXT     3,1
      01640  0602 00 2 77672         SLW     DIG,2         FINAL REMAINDER IS OUTPUT DIGIT
      01641  1 00001 2 01642         TXI     *+1,2,1       INCREMENT POINTER
      01642  0520 00 0 77527         ZET     TEST
      01643  0020 00 0 01613         TRA     AGAIN         IF QUOTIENT NOT ZERO, REDO
      01644  0500 00 0 00230         CLA     VALUE
      01645  0120 00 0 01655  INT2   TPL     INT44
                              *              IF NUMBER IS -0 IN I1 FIELD, IGNORE SIGN               MI

  BINARY CARD NO. IOH00041
      01646  0534 00 1 77510         LXA     CC,1                                                   MI
      01647  3 00001 1 01652         TXH     *+3,1,1       FIELD WIDTH .G. 1, PUT IN SIGN           MI
      01650  0054 00  004000         RFT     INTDSW        IS IT INTEGER                            MI
1            FAP                                                                                 PAGE 45
                           (IOH)     PART III CONVERSION                       JSMI

      01651  0100 00 0 01655         TZE     INT44         YES. WIDTH =1 AND NO. IS 3 SO NO MINUS   MI
      01652  0500 00 0 04613         CLA     =O31          IF NEG., PUT MINUS SIGN IN               MI
      01653  0601 00 2 77672         STO     DIG,2
      01654  1 00001 2 01655         TXI     *+1,2,1
      01655 -0056 00  020000  INT44  LNT     MDSW
      01656  0020 00 0 01662         TRA     PUTIN
      01657  0500 00 0 04620         CLA     =O44          PUT IN DOLLAR SIGN                       MI
      01660  0601 00 2 77672         STO     DIG,2
      01661  1 00001 2 01662         TXI     PUTIN,2,1
1            FAP                                                                                 PAGE 46
                           (IOH)     PART III CONVERSION                       JSMI

                                     EJECT
                              ***********************************************************************
                              *                                                                     *
                              *      SUBROUTINE TO MOVE NUMBER INTO IMAGE REGION                    *
                              *                                                                     *
                              ***********************************************************************


                                     SPACE   3
      01662  0754 00 2 00000  PUTIN  PXA     0,2
      01663  0535 00 1 77510         LAC     CC,1
      01664 -0634 00 2 01665         SXD     *+1,2
      01665  1 00000 1 01666         TXI     *+1,1,**
                              *              WAS RNT GDSW    CHANGED FOR IBM G FORMAT               MI
      01666  0774 00 1 00000         AXT     0,1
      01667 -0634 00 1 01671         SXD     OD10,1
      01670  0774 00 1 77673         AXT     DIG+1,1       SET VECTOR NAME
      01671  2 00000 1 01672  OD10   TIX     *+1,1,**      FOR G SPEC IT'S  DIG+1+CC-IR2

  BINARY CARD NO. IOH00042
      01672  0054 00  400000         RFT     GDSW
      01673  0761 00 0 00000         NOP                  WAS CLA CC   CHANGED FOR IBM G FORMAT     MI
      01674  0634 00 1 01720         SXA     OD1,1
      01675  0340 00 0 77502         CAS     FIELDW
      01676  0020 00 0 03600  SIZSW  TRA     TOOWID        IF FIELD WIDTH EXCEEDED
      01677  0020 00 0 01700         TRA     *+1
      01700  0774 00 5 00001         AXT     1,5
      01701  0020 00 0 01711         TRA     OD4
                              *
      01702  0774 00 1 77737  OCTDON AXT     VEC+1,1       SET VECTOR NAME
      01703  0634 00 1 01720         SXA     OD1,1
      01704  0774 00 1 77777         AXT     -1,1
      01705  0754 00 4 00000  OD5    PXA     0,4           PICK SMALLEST
      01706  0340 00 0 77502         CAS     FIELDW        OF NUMBER SIZE
      01707  0020 00 0 01731         TRA     OD9           OR FIELD WIDTH
      01710  0020 00 0 01711         TRA     *+1
      01711 -0634 00 1 01726  OD4    SXD     OD8,1
      01712  0734 00 1 00000         PAX     0,1
      01713  0400 00 0 77504         ADD     LPOINT
      01714  0402 00 0 77502         SUB     FIELDW
      01715  0737 00 2 00000         PAC     0,2           LEFT-ADJUSTED

  BINARY CARD NO. IOH00043
      01716  0056 00  000004         RNT     LDSW
      01717  0535 00 2 77504         LAC     LPOINT,2      RIGHT-ADJUSTED
      01720  0500 00 4 00000  OD1    CLA     **,4
      01721  0340 00 0 04605         CAS     =9            FOR BASE .G. 10, ADJUST FOR
      01722  0400 00 0 04603         ADD     =7            ALPHABETIC CHARACTER
      01723  0020 00 0 01724         TRA     *+1           IF NECESSARY
      01724  0602 00 2 00006         SLW     BIMAGE-2,2    MUST BE SLW TO AVOID SIGN
      01725  1 00001 2 01726         TXI     *+1,2,1
      01726  1 00000 4 01727  OD8    TXI     *+1,4,**
      01727  2 00001 1 01720         TIX     OD1,1,1
      01730  0020 00 0 01522         TRA     COUNT
1            FAP                                                                                 PAGE 47
                           (IOH)     PART III CONVERSION                       JSMI

                              *
      01731  0500 00 0 77502  OD9    CLA     FIELDW        IF OCTAL, TRUNCATE FOR TOO SMALL FIELD
      01732  0056 00  002000         RNT     OCTDSW        WIDTH
      01733  0522 00 0 01676         XEC     SIZSW         IF NOT, ERROR UNLESS IOHSIZ HAS BEEN
      01734  0020 00 0 01711         TRA     OD4           EXECUTED WITH NON-ZERO PARAMETER
1            FAP                                                                                 PAGE 48
                           (IOH)     PART III CONVERSION                       JSMI

                                     EJECT
                              *      LEFT-OVER PIECES OF INTEGER OUTPUT SUBROUTINE


                                     SPACE   3
      01735  0774 00 1 00001  EVEN   AXT     1,1
      01736  0771 00 0 00001         ARS     1
      01737  0760 00 0 00001         LBT
      01740  1 00001 1 01736         TXI     EVEN+1,1,1
      01741  0771 00 0 00001         ARS     1

  BINARY CARD NO. IOH00044
      01742 -0100 00 0 01534         TNZ     STDD
      01743  0634 00 1 01574  EVN2   SXA     SHFT,1        AT THIS POINT, BASE=2 OR 4 OR 8 OR 16
      01744 -0055 00  000004         SIL     KODSW
      01745  0500 00 1 01754         CLA     STAMT,1
      01746  0621 00 0 01567         STA     SI3
      01747  0020 00 0 01544         TRA     STD
                              *
      01750 +000000000011            DEC     9
      01751 +000000000014            DEC     12
      01752 +000000000022            DEC     18
      01753 +000000000044            DEC     36
                       01754  STAMT  SYN     *
1            FAP                                                                                 PAGE 49
                           (IOH)     PART III CONVERSION                       JSMI

                                     EJECT
                              ***********************************************************************
                              *                                                                     *
                              *      OCTAL INPUT CONVERSION SUBROUTINE                              *
                              *                                                                     *
                              ***********************************************************************


                                     SPACE   3
      01754  0535 00 2 77504  OCTIN  LAC     LPOINT,2
      01755  0634 00 4 77504         SXA     LPOINT,4
      01756  0535 00 4 77504         LAC     LPOINT,4
      01757 -0634 00 4 01762         SXD     RET,4
      01760  0600 00 0 00226         STZ     SUM
      01761  0057 00  000200         RIR     SGNDSW
      01762 -3 00000 2 02007  RET    TXL     OCN2,2,**
      01763  0500 00 2 00007         CLA     BIMAGE-1,2
      01764  1 77777 2 01765         TXI     *+1,2,-1
      01765  0340 00 0 04622         CAS     =H00000

  BINARY CARD NO. IOH00045
      01766  0020 00 0 01770         TRA     *+2
      01767  0020 00 0 01762         TRA     RET           IS A BLANK, IGNORE
      01770  0340 00 0 04610         CAS     =H00000+
      01771  0020 00 0 01773         TRA     *+2
      01772  0020 00 0 01762         TRA     RET           IS A PLUS, IGNORE
      01773  0340 00 0 04617         CAS     =H00000-
      01774  0020 00 0 01776         TRA     *+2
      01775  0051 00  000200         IIR     SGNDSW        IS A MINUS, CHANGE SIGN
      01776  0340 00 0 04604         CAS     =8
      01777  0020 00 0 03551         TRA     BAD22         IS A CHARACTER
      02000  0020 00 0 03551         TRA     BAD22         LARGER THAN 7
      02001  0601 00 0 77522  RCVRA  STO     CHAR          RECOVERY FORM BAD22                      MI
      02002 -0500 00 0 00226         CAL     SUM           ACCUMULATE
      02003  0767 00 0 00003         ALS     3             NUMBER
      02004  0400 00 0 77522         ADD     CHAR
      02005  0602 00 0 00226         SLW     SUM
      02006  0020 00 0 01762         TRA     RET
                              *
      02007  0056 00  000004  OCN2   RNT     LDSW
      02010  0020 00 0 02014         TRA     OCN3          WANTS RIGHT ADJUSTED
      02011 -0765 00 0 00003         LGR     3             WANTS LEFT ADJUSTED

  BINARY CARD NO. IOH00046
      02012 -0100 00 0 02011         TNZ     *-1
      02013 -0600 00 0 00226         STQ     SUM
                              *
      02014  0500 00 0 00226  OCN3   CLA     SUM
      02015  0054 00  000200         RFT     SGNDSW        ADD
      02016  0760 00 0 00002         CHS                   SIGN
      02017  0601 00 0 00230         STO     VALUE
      02020  0020 00 0 01522         TRA     COUNT
                                     MIDDLE
1            FAP                                                                                 PAGE 50
                           (IOH)     PART III CONVERSION                       JSMI

                                     EJECT
                              ***********************************************************************
                              *                                                                     *
                              *      DBC - DECIMAL TO BINARY CONVERSION                             *
                              *                                                                     *
                              *              E  FIELD  INPUT                                        *
                              *              F  FIELD  INPUT                                        *
                              *              I  FIELD  INPUT                                        *
                              *                                                                     *
                              *              SINGLE AND DOUBLE PRECISION                            *
                              *                                                                     *
                              *                                                                     *
                              ***********************************************************************


                                     SPACE   3
      02021  0057 00  000660  DBC    RIR     SGNDSW+PTDSW+EXSDSW+EXPDSW  SET SIGN TO +, PTSW
                                                           OFF, SIGN EXP TO +, EXPSW OFF
      02022 -0057 00  001400         RIL     DGSDSW+TSWDSW TURN OFF SKIP DIGITS SWITCH
      02023  0754 00 4 00000         PXA     0,4
      02024  0737 00 4 00000         PAC     0,4
      02025 -0634 00 4 02052         SXD     DALPHA,4      SAVE LOCN OF END OF FIELD
      02026  0600 00 0 00225         STZ     SUM-1
      02027  0502 00 0 04577         CLS     =0            MINUS ZERO TO SUM (FIRST WORD)
      02030  0601 00 0 00226         STO     SUM
      02031  0600 00 0 77520         STZ     ESUM          ZERO EXPONENT SUM
      02032  0600 00 0 77517         STZ     PTCTR         ZERO DIGITS-AFTER-DEC-PT COUNT
      02033  0600 00 0 77514         STZ     DGSKP         ZERO DIGITS-SKIPPED COUNT
      02034  0535 00 4 77504         LAC     LPOINT,4
      02035  0500 00 0 77507         CLA     BASE          SET MAXIMUM

  BINARY CARD NO. IOH00047
      02036  0340 00 0 04606         CAS     =10           CHARACTER ALLOWED
      02037  0400 00 0 04603         ADD     =7            TO BE A LEGAL
      02040  0020 00 0 02041         TRA     *+1           NUMBER FOR
      02041  0601 00 0 77521         STO     TBASE         A GIVEN BASE.
      02042  0774 00 1 00012         AXT     10,1          SET NUMBER OF DIGITS PER PARTIALLY
      02043  0500 00 0 77507         CLA     BASE          PACKED WORD
      02044  0340 00 0 04606         CAS     =10           ON BASIS OF BASE
      02045  0774 00 1 00005         AXT     5,1
      02046  0020 00 0 02047         TRA     *+1
      02047  0634 00 1 02051  DBC24A SXA     BALPHA,1
      02050  0634 00 0 02122         ZAD     SUMLOC        SET SUM COUNT TO ZERO
      02051  0774 00 1 00012  BALPHA AXT     10,1          SET DIGIT COUNT
      02052 -3 00000 4 02172  DALPHA TXL     DBETA,4,**    GO IF SCAN OF FIELD IS DONE
      02053 -0500 00 4 00007         CAL     BIMAGE-1,4    GET CHARACTER
      02054  1 77777 4 02055         TXI     *+1,4,-1      INCREMENT LINE POINTER
      02055  0734 00 2 00000  RCVRB  PAX     0,2           RECOVERY FROM BAD2                       MI
      02056  0560 00 2 00510         LDQ     TRATAB,2
      02057 -0754 00 0 00000         ZAC
      02060  0763 00 0 00002         LLS     2             PREFIX OF TRATAB GIVES INFO
      02061  0100 00 0 03536         TZE     BAD2          ZERO PREFIX MEANS ILLEGAL CHAR
1            FAP                                                                                 PAGE 51
                           (IOH)     PART III CONVERSION                       JSMI

  BINARY CARD NO. IOH00048
      02062  0054 00  004000         RFT     INTDSW
      02063 -0120 00 0 03536         TMI     BAD2          IF INTEGER, MINUS PREFIX IS ILLEGAL
      02064  3 00057 2 02116         TXH     FTNCK,2,47    IF BLANK CHECK FTN OR MAD                MI
      02065  3 00037 2 02150         TXH     MNS,2,31      IF MINUS SIGN-                           MI
      02066  3 00032 2 02141         TXH     PD,2,26       IF PERIOD.                               MI
      02067  0754 00 2 00000   FTN.  PXA     0,2                                                    MI
      02070  0340 00 0 04610         CAS     =H00000+      TEST IF PLUS
      02071  0020 00 0 02073         TRA     *+2
      02072  0020 00 0 02145         TRA     PLS             - IT IS
      02073  0340 00 0 77521         CAS     TBASE         SEE IF SMALLER THAN BASE
      02074  0020 00 0 02157         TRA     BTEST         IT ISN'T
      02075  0020 00 0 02157         TRA     BTEST
      02076  0340 00 0 04605         CAS     =9
      02077  0402 00 0 04603         SUB     =7
      02100  0020 00 0 02101         TRA     *+1
      02101  0601 00 0 77522  NUMB   STO     CHAR          IT IS, THEREFORE, A DIGIT
      02102  0054 00  000020         RFT     EXPDSW
      02103  0020 00 0 02164         TRA     EXPSUM        IF NOW GETTING EXPONENT
      02104  0500 00 0 77517         CLA     PTCTR
      02105  0054 00  000400         RFT     PTDSW

  BINARY CARD NO. IOH00049
      02106  0400 00 0 04600         ADD     =1            IF PAST DECPT, INCREMENT COUNTER
      02107  0601 00 0 77517         STO     PTCTR
      02110 -0056 00  000400         LNT     DGSDSW
      02111  0020 00 0 02122         TRA     SUMLOC
      02112  0500 00 0 77514         CLA     DGSKP
      02113  0400 00 0 04600         ADD     =1
      02114  0601 00 0 77514         STO     DGSKP
      02115  0020 00 0 02052         TRA     DALPHA
      02116 -0056 00  200000   FTNCK LNT     FTNDSW                                                 MI
      02117  0020 00 0 02052         TRA     DALPHA                                                 MI
      02120  0774 00 2 00000         AXT     0,2                                                    MI
      02121  0020 00 0 02067         TRA     FTN.                                                   MI
      02122  0774 00 2 00000  SUMLOC AXT     **,2
      02123  0560 00 2 00226         LDQ     SUM,2         ACCUMULATE
      02124  0200 00 0 77507         MPY     BASE          SUM
      02125  0131 00 0 00000         XCA
      02126  0400 00 0 77522         ADD     CHAR
      02127  0760 00 0 00003         SSP
      02130  0601 00 2 00226         STO     SUM,2
      02131  3 00000 2 02133         TXH     *+2,2,0

  BINARY CARD NO. IOH00050
      02132  0100 00 0 02052         TZE     DALPHA
      02133  2 00001 1 02052         TIX     DALPHA,1,1    GO BACK FOR ANOTHER CHAR
      02134  1 00001 2 02135         TXI     *+1,2,1       UNLESS HAVE 10 (OR5) DIGITS
      02135  0634 00 2 02122         SXA     SUMLOC,2      THEN START ACCUMULATING SUM
      02136 -3 00001 2 02051         TXL     BALPHA,2,1    IN ANOTHER WORD
      02137 -0055 00  000400         SIL     DGSDSW        IF 2 WORDS FULL, SKIP REST
      02140  0020 00 0 02051         TRA     BALPHA
                              *
      02141  0054 00  000400  PD     RFT     PTDSW         HAVE WE ALREADY HAD A DEC PT
      02142  0020 00 0 03536         TRA     BAD2          YES - ERROR
1            FAP                                                                                 PAGE 52
                           (IOH)     PART III CONVERSION                       JSMI

      02143  0055 00  000400         SIR     PTDSW         NO - SET DEC. PT. SWITCH
      02144  0020 00 0 02052         TRA     DALPHA
                              *
      02145  0520 00 0 00226  PLS    ZET     SUM           IF SUM   0                             JSMI
      02146  0055 00  000020         SIR     EXPDSW        SET EXP SWITCH
      02147  0020 00 0 02052         TRA     DALPHA        OTHERWISE, DO NOTHING
                              *
      02150  0520 00 0 00226  MNS    ZET     SUM
      02151  0020 00 0 02154         TRA     *+3
      02152  0051 00  000200         IIR     SGNDSW        IF SUM=0, CHANGE SUM SIGN
      02153  0020 00 0 02052         TRA     DALPHA
      02154  0055 00  000020         SIR     EXPDSW        IF SUM   0, SET EXP SWITCH             JSMI
      02155  0051 00  000040         IIR     EXSDSW        AND CHANGE EXP SIGN

  BINARY CARD NO. IOH00051
      02156  0020 00 0 02052         TRA     DALPHA
                              *
      02157  0402 00 0 04612  BTEST  SUB     =H00000E      SEE IF IS E
      02160 -0100 00 0 03536         TNZ     BAD2          IS NOT, IS ILLEGAL
      02161  0054 00  000020  ECH    RFT     EXPDSW        ARE WE ALREADY IN EXPONENT
      02162  0020 00 0 03536         TRA     BAD2          YES - ERROR
      02163  0020 00 0 02146         TRA     PLS+1         NO - SET EXP SWITCH                    JSMI
                              *
      02164  0560 00 0 77520  EXPSUM LDQ     ESUM          ACCUMULATE
      02165  0200 00 0 77507         MPY     BASE          EXPONENT
      02166  0131 00 0 00000         XCA
      02167  0400 00 0 77522         ADD     CHAR
      02170  0601 00 0 77520         STO     ESUM          ESUM=BASE*ESUM+CHAR
      02171  0020 00 0 02052         TRA     DALPHA
                              *
                              *
                              *      HAVING GATHERED THE NUMBER, NOW CONVERT
                              *
      02172 -0535 00 4 02052  DBETA  LDC     DALPHA,4      SET LINE POINTER
      02173  0634 00 4 77504         SXA     LPOINT,4      TO NEW POSITION
      02174  0500 00 0 77520         CLA     ESUM
      02175  0054 00  000040         RFT     EXSDSW
      02176 -0760 00 0 00003         SSM
      02177  0601 00 0 77520         STO     ESUM
      02200  0074 00 4 02406         TSX     PACK,4
      02201  0054 00  004000         RFT     INTDSW

  BINARY CARD NO. IOH00052
      02202  0020 00 0 02327         TRA     DBINT         IS INTEGER
      02203 -0056 00  001000         LNT     TSWDSW
      02204  0020 00 0 02232         TRA     DBC5          IS ONLY ONE SUM WORD
      02205  0500 00 0 00225         CLA     SUM-1
      02206 -0520 00 0 00226         NZT     SUM
      02207  0020 00 0 02233         TRA     DBC5A
      02210  0774 00 1 00306         AXT     3*64+6,1      O306                                     MI
      02211  0131 00 0 00000         XCA
      02212  0500 00 0 00226         CLA     SUM
      02213  0763 00 0 00001         LLS     1
      02214 -0760 00 0 00001         PBT
      02215  1 77777 1 02213         TXI     *-2,1,-1
1            FAP                                                                                 PAGE 53
                           (IOH)     PART III CONVERSION                       JSMI

      02216  0765 00 0 00011         LRS     9
      02217  0602 00 0 00223         SLW     SUM-3
      02220 -0754 00 1 00000         PXD     ,1
      02221  0767 00 0 00011         ALS     9
      02222 -0602 00 0 00223         ORS     SUM-3
      02223  1 77745 1 02224         TXI     *+1,1,-27                                              MI
      02224  0754 00 1 00000         PXA     ,1
      02225  0765 00 0 00010         LRS     8

  BINARY CARD NO. IOH00053
      02226  0500 00 0 00223         CLA     SUM-3
      02227  0056 00  000010         RNT     DDSW
      02230  0760 00 0 00011         FRN                   IS NOT DOUBLE PREC, ROUND
      02231  0020 00 0 02241         TRA     DBC6
                              *
      02232  0500 00 0 00226  DBC5   CLA     SUM
      02233  0621 00 0 04446  DBC5A  STA     CONST
      02234  0560 00 0 04577         LDQ     =0            IN CASE OF DOUBLE PREC + TRA TAKEN NEXT
      02235  0100 00 0 02241         TZE     DBC6          NEEDED TO MAINTAIN -0
      02236  0771 00 0 00017         ARS     15
      02237 -0501 00 0 04643         ORA     =O252000000000 BEGIN                                   MI
      02240  0300 00 0 04446         FAD     CONST         FLOATING SUM
      02241  0054 00  000200  DBC6   RFT     SGNDSW        AFFIX
      02242 -0760 00 0 00003         SSM                   SIGN
      02243  0765 00 0 00000         LRS     0             PUT IT IN MQ TOO
      02244  0601 00 0 00226         STO     SUM           HIGH ORDER PART
      02245 -0600 00 0 00227         STQ     SUM+1         LOW ORDER PART
      02246 -0520 00 0 00226         NZT     SUM
      02247  0020 00 0 02320         TRA     DBCZER        IS ZERO
                              *
      02250  0500 00 0 77514         CLA     DGSKP
      02251  0400 00 0 77520  DBC7   ADD     ESUM

  BINARY CARD NO. IOH00054
      02252  0056 00  000020         RNT     EXPDSW        DO NOT SCALE INPUT IF E-TYPE ON CARD
      02253  0402 00 0 77505         SUB     SCALE         DIVIDE BY SCALE FACTOR ON INPUT
      02254  0402 00 0 77517         SUB     PTCTR
      02255  0056 00  000400         RNT     PTDSW         OR IF NO DEC PT IN FIELD,
      02256  0402 00 0 77510         SUB     CC            USE WHAT FORMAT SAID
      02257  0767 00 0 00001         ALS     1
      02260  0734 00 2 00000         PAX     0,2
      02261  3 00114 2 02350         TXH     ETEST,2,76                                           JSMI
      02262  3 00114 2 03573  DBC9   TXH     WAYOUT,2,76                                          JSMI
      02263  0601 00 0 77516         STO     TEMP
      02264  0500 00 2 04576         CLA     PWRTEN,2
      02265  0560 00 2 04575         LDQ     PWRTEN-1,2
      02266  0056 00  000010         RNT     DDSW
      02267  0760 00 0 00011         FRN                   ROUND IF SINGLE PRECISION
      02270  0601 00 0 00221         STO     SUM-5         USE AS
      02271 -0600 00 0 00222         STQ     SUM-4         TEMP LOCNS
      02272  0140 00 0 02273  DBC16  TOV     *+1           MAKE SURE INDICATOR IS OFF
      02273  0161 00 0 02274         TQO     *+1                                                    MI
      02274  0500 00 0 02347         CLA     DBFPT                                                JSMI
      02275  0602 00 0 00010         SLW     8                                                    JSMI
1            FAP                                                                                 PAGE 54
                           (IOH)     PART III CONVERSION                       JSMI

  BINARY CARD NO. IOH00055
      02276  0500 00 0 77516         CLA     TEMP
      02277 -0120 00 0 02312         TMI     DBC8
      02300  0054 00  000010         RFT     DDSW
      02301                          CALL    DFMP
                                     IFF     1,DFMP,SPRINT                                                    .001
                                     TSX     .SPRNT,4                                                         .001
                                     IFF     0,DFMP,SPRINT                                                    .001
      02301  0074 00 4 00001         TSX     $DFMP,4                                                          .001
                                     IFF     1,..005,...                                                      .001
                                     PZE     ..004,..005,..006                                                .001
      02302  0560 00 0 00226         LDQ     SUM
      02303  0260 00 0 00221         FMP     SUM-5
      02304  0601 00 0 00226         STO     SUM
      02305  0760 00 0 00011         FRN
      02306  0140 00 0 03573         TOV     WAYOUT
      02307  0056 00  000010         RNT     DDSW          IF NOT DOUBLE PREC,
      02310  0601 00 0 00226         STO     SUM               USE ROUNDED VALUE
      02311  0020 00 0 02320         TRA     DBCZER
                              *
      02312  0054 00  000010  DBC8   RFT     DDSW
      02313                          CALL    DFDP
                                     IFF     1,DFDP,SPRINT                                                    .001
                                     TSX     .SPRNT,4                                                         .001
                                     IFF     0,DFDP,SPRINT                                                    .001
      02313  0074 00 4 00002         TSX     $DFDP,4                                                          .001
                                     IFF     1,..008,...                                                      .001
                                     PZE     ..007,..008,..009                                                .001
      02314  0500 00 0 00226         CLA     SUM
      02315  0241 00 0 00221         FDP     SUM-5
      02316 -0600 00 0 00226         STQ     SUM
      02317  0161 00 0 03573         TQO     WAYOUT
      02320  0500 00 0 00226  DBCZER CLA     SUM
      02321  0601 00 0 00230         STO     VALUE

  BINARY CARD NO. IOH00056
      02322  0056 00  000010         RNT     DDSW
      02323  0020 00 0 01522         TRA     COUNT         END OF CONVERSION (SINGLE PREC)
      02324  0074 00 4 03220         TSX     NLE,4
      02325  0500 00 0 00227         CLA     SUM+1
      02326  0020 00 0 02017         TRA     OCN3+3        END OF CONVERSION (DBL PREC)           JSMI
                              *
      02327 -0054 00  001000  DBINT  LFT     TSWDSW
      02330  0020 00 0 02343         TRA     DBC37         IS 2 SUM WORDS
      02331  0520 00 0 00225         ZET     SUM-1         ONE SUM WORD, 2ND WORD SHOULD BE ZERO
      02332  0020 00 0 03573         TRA     WAYOUT        TOO LARGE
      02333  0500 00 0 00226         CLA     SUM
      02334  0054 00  000200  DBC38  RFT     SGNDSW        INSERT SIGN (IF NECESSARY)
      02335 -0760 00 0 00003         SSM
      02336  0140 00 0 02337         TOV     *+1
      02337 -0054 00  200000         LFT     FTNDSW
      02340  0767 00 0 00022         ALS     18
      02341  0140 00 0 03573         TOV     WAYOUT
      02342  0020 00 0 02017         TRA     OCN3+3        END OF CONVERSION (INTEGER)            JSMI
                              *
1            FAP                                                                                 PAGE 55
                           (IOH)     PART III CONVERSION                       JSMI

      02343  0520 00 0 00226  DBC37  ZET     SUM           2 SUM WORDS, FIRST WORD SHOULD BE ZERO
      02344  0020 00 0 03573         TRA     WAYOUT
      02345  0500 00 0 00225         CLA     SUM-1

  BINARY CARD NO. IOH00057
      02346  0020 00 0 02334         TRA     DBC38
      02347  0020 00 0 03573  DBFPT  TRA     WAYOUT                                               JSMI
      02350  0056 00  000060  ETEST  RNT     EXPDSW+EXSDSW TEST  NEGATIVE EXPONENT                JSMI
      02351  0020 00 0 02262         TRA     DBC9          NO,CONTINU                             JSMI
      02352  0634 00 2 02403         SXA     ETES1,2       YES,SAVE THING                         JSMI
      02353  0601 00 0 77516         STO     TEMP                                                 JSMI
      02354  0500 00 0 77514         CLA     DGSKP                                                JSMI
      02355  0402 00 0 77517         SUB     PTCTR         DIGITS AFTER DEC PT                    JSMI
      02356  0056 00  000400         RNT     PTDSW                                                JSMI
      02357  0402 00 0 77510         SUB     CC            OR FROM FORMA                          JSMI
      02360  0120 00 0 02403         TPL     ETES1                                                JSMI
      02361  0767 00 0 00001         ALS     1             = PARTIAL EXPONENT                     JSMI
      02362  0734 00 2 00000         PAX     0,2                                                  JSMI
      02363  3 00036 2 02403         TXH     ETES1,2,30                                           JSMI
      02364  0500 00 2 04576         CLA     PWRTEN,2                                             JSMI
      02365  0560 00 2 04575         LDQ     PWRTEN-1,2                                           JSMI
      02366  0056 00  000010         RNT     DDSW                                                 JSMI
      02367  0760 00 0 00011         FRN                   ROUND IF SINGLE PRECISION              JSMI
      02370  0601 00 0 00221         STO     SUM-5                                                JSMI
      02371 -0600 00 0 00222         STQ     SUM-4                                                JSMI

  BINARY CARD NO. IOH00058
      02372  0054 00  000010         RFT     DDSW                                                 JSMI
      02373                          CALL    DFDP                                                 JSMI
                                     IFF     1,DFDP,SPRINT                                                    .001
                                     TSX     .SPRNT,4                                                         .001
                                     IFF     0,DFDP,SPRINT                                                    .001
      02373  0074 00 4 00002         TSX     $DFDP,4                                                          .001
                                     IFF     1,..011,...                                                      .001
                                     PZE     ..010,..011,..012                                                .001
      02374  0500 00 0 00226         CLA     SUM                                                  JSMI
      02375  0241 00 0 00221         FDP     SUM-5         DIVIDED BY POWER OF TEN                JSMI
      02376 -0600 00 0 00226         STQ     SUM           = NEW SUM                              JSMI
      02377  0500 00 0 77520         CLA     ESUM                                                 JSMI
      02400  0767 00 0 00001         ALS     1             ORIGINAL EXPONENT                      JSMI
      02401  0734 00 2 00000         PAX     0,2           = NEW EXPONENT                         JSMI
      02402  0020 00 0 02262         TRA     DBC9          AND CONTINUE                           JSMI
      02403  0774 00 2 00000  ETES1  AXT     **,2          OTHERWISE                              JSMI
      02404  0500 00 0 77516         CLA     TEMP          RESTORE THIN                           JSMI
      02405  0020 00 0 02262         TRA     DBC9          AND CONTINUE                           JSMI
1            FAP                                                                                 PAGE 56
                           (IOH)     PART III CONVERSION                       JSMI

                                     EJECT                                                        JSMI
                                             PACK TAKES PIECES OF SUM AND PACKS THEM              JSMI


                                     SPACE   3                                                    JSMI
      02406 -0500 00 0 02122  PACK   CAL     SUMLOC
      02407 -0320 00 0 04630         ANA     =O77777                                                MI
      02410  0100 00 4 00001         TZE     1,4
      02411  0534 00 2 02122         LXA     SUMLOC,2
      02412 -3 00011 1 02414         TXL     *+2,1,9
      02413 -3 00001 2 02432         TXL     PCK6,2,1
      02414 -0055 00  001000         SIL     TSWDSW        THERE ARE TWO SUM WORDS
      02415  0534 00 2 77507         LXA     BASE,2

  BINARY CARD NO. IOH00059
      02416  3 00012 2 02433         TXH     PCK2,2,10
      02417 -3 00011 2 02433         TXL     PCK2,2,9
      02420  0140 00 0 02421  PCK1   TOV     *+1
      02421  0560 00 0 00226         LDQ     SUM
      02422  0200 60 2 02456         MPY*    PCK5+9,2
      02423  0131 00 0 00000         XCA
      02424  0400 00 0 00225         ADD     SUM-1
      02425  0601 00 0 00225         STO     SUM-1
      02426  0131 00 0 00000         XCA
      02427 -0140 00 0 02431         TNO     *+2
      02430  0400 00 0 04600         ADD     =1
      02431  0601 00 0 00226         STO     SUM
      02432  0020 00 4 00001  PCK6   TRA     1,4
                              *
                              *
      02433 -0634 00 1 02436  PCK2   SXD     PCK3,1        BASE   10, GENERATE                    JSMI
      02434  0534 00 2 02051         LXA     BALPHA,2      MULTIPLICATIVE CONSTANT
      02435  0560 00 0 04600         LDQ     =1
      02436  3 00000 2 02442  PCK3   TXH     PCK4,2,**
      02437 -0600 00 0 77515         STQ     MULCON
      02440  0774 00 2 00011         AXT     9,2
      02441  0020 00 0 02420         TRA     PCK1

  BINARY CARD NO. IOH00060
      02442  0200 00 0 77507  PCK4   MPY     BASE
      02443  2 00001 2 02436         TIX     PCK3,2,1
                              *
      02444  0200 00 1 04461         MPY     PITEN,1
      02445  0200 00 0 77515  PCK5   MPY     MULCON
1            FAP                                                                                 PAGE 57
                           (IOH)     PART III CONVERSION                       JSMI

                                     EJECT
                              ***********************************************************************
                              *                                                                     *
                              *      BDC   -  BINARY TO DECIMAL CONVERSION                          *
                              *                                                                     *
                              *              E FIELD OUTPUT    -ENTRY IS EOUT                       *
                              *              F FIELD OUTPUT    -ENTRY IS FOUT                       *
                              *              I FIELD OUTPUT    -ENTRY IS INTOUT                     *
                              *                                                                     *
                              *              SINGLE AND DOUBLE PRECISION                            *
                              *                                                                     *
                              *                                                                     *
                              ***********************************************************************


                                     SPACE   3
      02446  0500 00 0 00230  EOUT   CLA     VALUE
      02447 -0100 00 0 02452         TNZ     FL6
      02450  0600 00 0 77520         STZ     ESUM          NUMBER=0
      02451  0020 00 0 02503         TRA     FL5A
                              *
      02452  0760 00 0 00003  FL6    SSP                   NUMBER   0                             JSMI
      02453  0765 00 0 00033         LRS     27
      02454  0402 00 0 04625         SUB     =O200         GET TRUE 2'S EXPONENT                    MI
      02455  0765 00 0 00043  FL7    LRS     35
      02456  0200 00 0 04637         MPY     =0.3010299957B0   CONVERT TO 10'S EXPONENT
      02457  0767 00 0 00001         ALS     1
      02460  0734 00 2 00000         PAX     0,2
      02461  0601 00 0 77520         STO     ESUM
      02462  0120 00 0 02471         TPL     FL8
      02463  0560 00 0 00230         LDQ     VALUE
      02464  0260 00 2 04574         FMP     PWRTEN-2,2
      02465 -0340 00 0 04576         LAS     PWRTEN

  BINARY CARD NO. IOH00061
      02466  0020 00 0 02475         TRA     FL9
      02467  0020 00 0 02475         TRA     FL9
      02470  1 00002 2 02475         TXI     FL9,2,2
                              *
      02471  0500 00 0 00230  FL8    CLA     VALUE
      02472 -0340 00 2 04576         LAS     PWRTEN,2
      02473  1 00002 2 02475         TXI     *+2,2,2
      02474  1 00002 2 02475         TXI     *+1,2,2
      02475  0754 00 2 00000  FL9    PXA     0,2
      02476  0771 00 0 00001         ARS     1
      02477  0560 00 0 77520         LDQ     ESUM
      02500  0763 00 0 00000         LLS     0
      02501  0402 00 0 77505  FL3A   SUB     SCALE
      02502  0601 00 0 77520         STO     ESUM
      02503 -0500 00 0 04621   FL5A  CAL     =O51          IF EXPONENT.GE.0,                        MI
      02504  0560 00 0 77520         LDQ     ESUM
      02505  0162 00 0 02510         TQP     FL4A
      02506  0520 00 0 77520         ZET     ESUM
      02507 -0500 00 0 04613         CAL     =O31          IF EXPONENT.L.0,                         MI
1            FAP                                                                                 PAGE 58
                           (IOH)     PART III CONVERSION                       JSMI

      02510  0602 00 0 77670  FL4A   SLW     DIG-2             PUT IN APPROPRIATE SIGN
      02511 -0500 00 0 04607         CAL     =O16

  BINARY CARD NO. IOH00062
      02512  0602 00 0 77667         SLW     DIG-3             THE 'E'
      02513 -0754 00 0 00000         ZAC
      02514  0221 00 0 77507         DVP     BASE
      02515  0602 00 0 77672         SLW     DIG               EXPONENT DIGITS
      02516 -0600 00 0 77671         STQ     DIG-1         PUT IN
      02517  0774 00 1 77667         AXT     DIG-3,1
      02520  0634 00 1 02624         SXA     FOUT14,1
      02521  0020 00 0 02526         TRA     FOUT2
1            FAP                                                                                 PAGE 59
                           (IOH)     PART III CONVERSION                       JSMI

                                     EJECT
      02522  0502 00 0 77505  FOUT   CLS     SCALE         EXPONENT IS -(SCALE FACTOR)
      02523  0601 00 0 77520         STO     ESUM          FOR F CONVERSION
      02524  0774 00 1 77673         AXT     DIG+1,1       SET BEGINNING OF WHERE
      02525  0634 00 1 02624         SXA     FOUT14,1      TO STORE CONVERTED DIGITS
                              *
      02526  0500 00 0 00230  FOUT2  CLA     VALUE
      02527  0601 00 0 00227         STO     VALUE-1       VALUE-1 HAS FIRST WORD (HIGH ORDER PART)
      02530  0057 00  000001         RIR     ZDSW          USE AS TEMP FOR ZERO VALUE INDICATION
      02531 -0057 00  004000         RIL     SPDSW
      02532 -0055 00  002000         SIL     EFDSW
      02533  0634 00 4 77504         SXA     LPOINT,4      SET LINE POINTER
      02534  0054 00  000010         RFT     DDSW          IF DOUBLE PRECISION,
      02535  0074 00 4 03220         TSX     NLE,4             GET LOW ORDER PART

  BINARY CARD NO. IOH00063
      02536 -0520 00 0 00227         NZT     VALUE-1
      02537  0020 00 0 02735         TRA     FOUT3         IS ZERO
                              *
      02540  0500 00 0 77520  FOUT22 CLA     ESUM          BEGIN SCALING
      02541  0767 00 0 00001         ALS     1
      02542  0734 00 2 00000         PAX     0,2
      02543 -3 00000 2 02554         TXL     FOUT4,2,0     NO SCALING NEEDED
      02544 -3 00114 2 02551   TAGN  TXL     FOUT5,2,76    CAN SCALE IN ONE OPERATION               MI
      02545  0500 00 0 04462         CLA     PWRTEN-76     GET
      02546  0560 00 0 04461         LDQ     PWRTEN-77     CONSTANTS AND
      02547  0074 00 4 02760         TSX     SCALES,4      MPY BY 1E38 OR IE-38
      02550  1 77664 2 02544         TXI     TAGN,2,-76    TO COMPENSATE  FOR EXP. GREATER THAN 38  MI
      02551  0500 00 2 04576  FOUT5  CLA     PWRTEN,2
      02552  0560 00 2 04575         LDQ     PWRTEN-1,2    FINAL (OR FIRST)
      02553  0074 00 4 02760         TSX     SCALES,4      SCALING
                              *
                              *              THE FOLLOWING SECTION USES THE SUM REGION TO HOLD THE
                              *              FIXED POINT NUMBER AS FOLLOWS.  CONSIDER SUM TO BE ON THE
                              *              LEFT, AND SUM-10 ON THE RIGHT.  THE DECIMAL POINT IS
                              *              BETWEEN SUM-4 AND SUM-5.  'INTEGER PART' REFERS TO SUM TO
                              *              SUM-4, 'FRACTIONAL PART' REFERS TO SUM-5 TO SUM-10
                              *
      02554  0774 00 1 00013  FOUT4  AXT     11,1          PREPARE TO FIX
      02555  0600 00 1 00227         STZ     SUM+1,1       ZERO OUT SUM TO SUM-10 WHICH IS
      02556  2 00001 1 02555         TIX     *-1,1,1       WHERE NUMBER IS UFA'D INTO
      02557  0074 00 4 03005         TSX     SHIFT,4
 TD   02560  3 00000 0 00227         PAR     VALUE-1       SHIFT FIRST WORD
      02561 -0300 00 0 04642         UFA     =O233000000000                                         MI

  BINARY CARD NO. IOH00064
      02562 -0320 00 0 04635         ANA     =O777777777                                            MI
      02563  0601 00 1 00222         STO     SUM-4,1       PUT HIGH-ORDER PART IN REGION
      02564  0131 00 0 00000         XCA
      02565 -0320 00 0 04635         ANA     =O777777777                                            MI
      02566  0601 00 1 00221         STO     SUM-5,1       PUT LOW-ORDER PART IN REGION
      02567  0056 00  000010         RNT     DDSW
      02570  0020 00 0 02602         TRA     FOUT7         GO IF SINGLE PRECISION
      02571  0074 00 4 03005         TSX     SHIFT,4       DOUBLE PRECISION--
 TD   02572  3 00000 0 00230         PAR     VALUE         SHIFT SECOND WORD
1            FAP                                                                                 PAGE 60
                           (IOH)     PART III CONVERSION                       JSMI

      02573 -0300 00 0 04642         UFA     =O233000000000                                         MI
      02574 -0320 00 0 04635         ANA     =O777777777                                            MI
      02575  0400 00 1 00222         ADD     SUM-4,1
      02576  0601 00 1 00222         STO     SUM-4,1
      02577  0131 00 0 00000         XCA
      02600 -0320 00 0 04635         ANA     =O777777777                                            MI
      02601  0601 00 1 00221         STO     SUM-5,1       PUT LOW-ORDER PART IN REGION
                              *
      02602  0774 00 1 00005  FOUT7  AXT     5,1           SHIFT INTEGER PART PIECES
      02603 -0500 00 1 00227  FOUT9  CAL     SUM+1,1       SO THEY OCCUPY LEFT HAND
      02604  0767 00 0 00011         ALS     9             27 BITS OF EACH WORD (INCLUDING SIGN)
      02605  0602 00 1 00227         SLW     SUM+1,1

  BINARY CARD NO. IOH00065
      02606  2 00001 1 02603         TIX     FOUT9,1,1
                              *
                              *              PRODUCE FRACTIONAL PART
                              *
      02607  0057 00  000002         RIR     RDSW          USE AS TEMP SWITCH
      02610  0774 00 1 00006         AXT     6,1
      02611 -0520 00 1 00222         NZT     SUM-4,1       FIND FIRST NON ZERO FRACTIONAL-PART WORD
      02612  2 00001 1 02611         TIX     *-1,1,1       (FROM RIGHT)
      02613  0634 00 1 03030         SXA     FOUT15,1
                              *
      02614 -0520 00 0 77510         NZT     CC
      02615  0020 00 0 02742         TRA     FOUT12        GO IF NO DIGITS WANTED AFTER DEC PT
                              *
      02616  0534 00 2 77510         LXA     CC,2          IR2 HAS NBR OF DIGITS WANTED
      02617 -0634 00 2 02654         SXD     FOUT20,2
      02620  0774 00 4 00011         AXT     9,4           MAX OF 9 SIGNIFICANT DIGITS
      02621  0054 00  000010         RFT     DDSW
      02622  0774 00 4 00022         AXT     18,4
      02623  0074 00 1 03027  FOUT17 TSX     FRACT,1       CONVERT A DIGIT
      02624  0601 00 2 00000  FOUT14 STO     **,2          STORE DIGIT - ADDRESS IS  DIG+1
                                                           FOR F CONVERSION, DIG-3 FOR E CONVERSION
      02625  0100 00 0 02627         TZE     *+2
      02626  0055 00  000002         SIR     RDSW          SET SWITCH IF NON-ZERO DIGIT
      02627  0056 00  000002         RNT     RDSW
      02630  2 00001 2 02623         TIX     FOUT17,2,1    IF ALL ZEROS SO FAR, GO ONLY UNDER COUNT
      02631  2 00001 4 02634         TIX     FOUT13,4,1    ONCE A NON-ZERO DIGIT APPEARS

  BINARY CARD NO. IOH00066
      02632  0502 00 0 04577         CLS     =0
      02633  2 00001 2 02624         TIX     FOUT14,2,1    THEN PRODUCE ZEROS FOR
      02634  2 00001 2 02623  FOUT13 TIX     FOUT17,2,1    THE REST OF THE COUNT
                              *
                              *                            ROUNDING
                              *
      02635  0074 00 1 03027         TSX     FRACT,1       PRODUCE ONE MORE DIGIT
      02636  0340 00 0 04601         CAS     =4
      02637  0020 00 0 02642         TRA     *+3
      02640  0020 00 0 02664         TRA     FOUT18        NO CARRY DUE TO ROUNDING
      02641  0020 00 0 02664         TRA     FOUT18
      02642  0500 60 0 02624  FOUT19 CLA*    FOUT14        IS A CARRY - PROPAGATE IT
      02643  0340 00 0 04604         CAS     =8
1            FAP                                                                                 PAGE 61
                           (IOH)     PART III CONVERSION                       JSMI

      02644  0020 00 0 02652         TRA     FOUT24
      02645  0020 00 0 02646         TRA     *+1
      02646 -0120 00 0 02650         TMI     *+2
      02647  0400 00 0 04600         ADD     =1
      02650  0601 60 0 02624         STO*    FOUT14
      02651  0020 00 0 02664         TRA     FOUT18        PROPAGATION FINISHED
                              *
      02652  0600 60 0 02624  FOUT24 STZ*    FOUT14
      02653  1 00001 2 02654         TXI     *+1,2,1
      02654 -3 00000 2 02642  FOUT20 TXL     FOUT19,2,**   AND KEEP PROPAGATING--
      02655  0774 00 1 00005  FOUT25 AXT     5,1           CARRY HAS CARRIED OVER TO INTEGER PART

  BINARY CARD NO. IOH00067
      02656  0140 00 0 02657         TOV     *+1
      02657  0500 00 1 00227  FOUT8  CLA     SUM+1,1
      02660  0400 00 0 04627         ADD     =O1000                                                 MI
      02661  0601 00 1 00227         STO     SUM+1,1
      02662 -0140 00 0 02664         TNO     *+2
      02663  2 00001 1 02657         TIX     FOUT8,1,1
                              *
      02664  0534 00 2 77510  FOUT18 LXA     CC,2
      02665 -3 00000 2 02671         TXL     FOUT21,2,0    NO DEC POINT WANTED
      02666  1 00001 2 02667         TXI     *+1,2,1
      02667  0500 00 0 04611         CLA     =O24          (WILL BE DECIMAL POINT)                  MI
      02670  0601 60 0 02624         STO*    FOUT14        PUT IN DECIMAL POINT
      02671  0500 00 0 00227  FOUT21 CLA     VALUE-1
      02672  0054 00  010000         RFT     EDSW
      02673  1 00004 2 02674         TXI     *+1,2,4
      02674  0056 00  020000         RNT     FDSW          IS IT F                                  MI
      02675  0020 00 0 02707         TRA     FOU24.        NO                                       MI
      02676 -0100 00 0 02707         TNZ     FOU24.        YES BUT NON-ZERO                         MI
      02677  0634 00 2 02704         SXA     FOU23.,2                                               MI
      02700  0534 00 2 77510         LXA     CC,2                                                   MI
      02701  0560 00 0 04621         LDQ     =O51          WILL BE BLANK                            MI

  BINARY CARD NO. IOH00068
      02702 -0600 60 0 02624         STQ*    FOUT14                                                 MI
      02703  2 00001 2 02702         TIX     *-1,2,1                                                MI
      02704  0774 00 2 00000  FOU23. AXT     **,2                                                   MI
      02705  1 00001 2 02706         TXI     *+1,2,1                                                MI
      02706  0600 60 0 02624         STZ*   FOUT14         MAKE 0.                                  MI
                       02707  FOU24. SYN     *                                                      MI
      02707  0054 00  000001         RFT     ZDSW          IS NUMBER 0                              MI
      02710  0020 00 0 01645         TRA     INT2          YES  GO PRINT                            MI
      02711  0774 00 1 00000         AXT     0,1
      02712 -0520 00 1 00226         NZT     SUM,1
      02713  1 00001 1 02712         TXI     *-1,1,1
      02714  3 00004 1 01645         TXH     INT2,1,4      INTEGER PART IS ZERO
      02715 -0054 00  004000         LFT     SPDSW
      02716  1 77777 2 02717         TXI     *+1,2,-1
      02717  0754 00 1 00000         PXA     0,1
      02720  0402 00 0 00236         SUB     SUMLCN
      02721  0621 00 0 03234         STA     STORE
      02722  0625 00 0 03234         STT     STORE
      02723  0754 00 1 00000         PXA     0,1
1            FAP                                                                                 PAGE 62
                           (IOH)     PART III CONVERSION                       JSMI

      02724  0402 00 0 04601         SUB     =4
      02725  0601 00 0 77506         STO     PREC

  BINARY CARD NO. IOH00069
      02726  0774 00 1 00033         AXT     27,1
      02727  0634 00 1 01574         SXA     SHFT,1
      02730  0774 00 1 00001         AXT     1,1
      02731  0634 00 1 01567         SXA     SI3,1
      02732  0634 00 2 01610         SXA     INT3,2
      02733  0055 00  002000         SIR     OCTDSW        (TO AVOID CLOBBERING SIGN IN INTOUT)
      02734  0020 00 0 01546         TRA     INT4
                              *
                              *
                              *
                              *
      02735  0054 00  000010  FOUT3  RFT     DDSW
      02736 -0520 00 0 00230         NZT     VALUE
      02737  0020 00 0 02741         TRA     *+2
      02740  0020 00 0 02540         TRA     FOUT22        IS NOT ALL ZERO
      02741  0055 00  000001         SIR     ZDSW                                                   MI
      02742  0534 00 2 77510  FOUT12 LXA     CC,2          ENTRY IF ZERO DIG WANTED AFTER DEC POINT
      02743  1 00001 2 02744         TXI     *+1,2,1
      02744  0600 60 0 02624         STZ*    FOUT14
      02745  2 00001 2 02744         TIX     *-1,2,1
      02746  0520 00 0 77510         ZET     CC
      02747  0020 00 0 02664         TRA     FOUT18
      02750  0054 00  000001         RFT     ZDSW
      02751  0020 00 0 02671         TRA     FOUT21

  BINARY CARD NO. IOH00070
      02752  0074 00 1 03027         TSX     FRACT,1
      02753  0340 00 0 04601         CAS     =4
      02754  0020 00 0 02655         TRA     FOUT25
      02755  0020 00 0 02756         TRA     *+1
      02756 -0055 00  004000         SIL     SPDSW
      02757  0020 00 0 02671         TRA     FOUT21
1            FAP                                                                                 PAGE 63
                           (IOH)     PART III CONVERSION                       JSMI

                                     EJECT
                              *      SCALES  DOES SCALING


                                     SPACE   3
      02760  0634 00 4 03003  SCALES SXA     SCL3,4
      02761  0056 00  000010         RNT     DDSW
      02762  0760 00 0 00011         FRN
      02763  0601 00 0 00222         STO     SUM-4
      02764 -0600 00 0 00223         STQ     SUM-3
      02765  0500 00 0 77520         CLA     ESUM
      02766  0120 00 0 02776         TPL     SCL2
      02767  0054 00  000010         RFT     DDSW
      02770                          CALL    DFMP          MPY BY CONSTANT
                                     IFF     1,DFMP,SPRINT                                                    .001
                                     TSX     .SPRNT,4                                                         .001
                                     IFF     0,DFMP,SPRINT                                                    .001
      02770  0074 00 4 00001         TSX     $DFMP,4                                                          .001
                                     IFF     1,..014,...                                                      .001
                                     PZE     ..013,..014,..015                                                .001
      02771  0560 00 0 00227         LDQ     VALUE-1
      02772  0260 00 0 00222         FMP     SUM-4
      02773  0601 00 0 00227         STO     VALUE-1
      02774  0534 00 4 03003         LXA     SCL3,4
      02775  0020 00 4 00001         TRA     1,4
                              *

  BINARY CARD NO. IOH00071
      02776  0054 00  000010  SCL2   RFT     DDSW
      02777                          CALL    DFDP          DIVIDE BY CONSTANT
                                     IFF     1,DFDP,SPRINT                                                    .001
                                     TSX     .SPRNT,4                                                         .001
                                     IFF     0,DFDP,SPRINT                                                    .001
      02777  0074 00 4 00002         TSX     $DFDP,4                                                          .001
                                     IFF     1,..017,...                                                      .001
                                     PZE     ..016,..017,..018                                                .001
      03000  0500 00 0 00227         CLA     VALUE-1
      03001  0241 00 0 00222         FDP     SUM-4
      03002 -0600 00 0 00227         STQ     VALUE-1
      03003  0774 00 4 00000  SCL3   AXT     **,4
      03004  0020 00 4 00001         TRA     1,4


                                     SPACE   6
                              *      SHIFT   ADJUSTS EXPONENT - IR1 CONTAINS INDEX RELATIVE TO SUM-4
                              *              WHERE HIGH-ORDER PART IS TO GO AFTER UFA =K233K9
1            FAP                                                                                 PAGE 64
                           (IOH)     PART III CONVERSION                       JSMI

                                     SPACE   3
      03005 -0754 00 0 00000  SHIFT  ZAC
      03006  0774 00 1 00000         AXT     0,1
      03007  0560 60 4 00001         LDQ*    1,4
      03010  0763 00 0 00010         LLS     8
      03011  0760 00 0 00003         SSP
      03012  0340 00 0 04626   SHFT2 CAS     =O233                                                  MI
      03013  0020 00 0 03022         TRA     SHFT3
      03014  0020 00 0 03024         TRA     SHFT4
      03015  0340 00 0 04625   SHFT5 CAS     =O200                                                  MI
      03016  0020 00 0 03024         TRA     SHFT4
      03017  0020 00 0 03024         TRA     SHFT4
      03020  0400 00 0 04614         ADD     =O33                                                   MI
      03021  1 00001 1 03015         TXI     SHFT5,1,1

  BINARY CARD NO. IOH00072
      03022  0402 00 0 04614   SHFT3 SUB     =O33                                                   MI
      03023  1 77777 1 03012         TXI     SHFT2,1,-1
      03024  0765 00 0 00010  SHFT4  LRS     8
      03025  0131 00 0 00000         XCA
      03026  0020 00 4 00001         TRA     1,4
1            FAP                                                                                 PAGE 65
                           (IOH)     PART III CONVERSION                       JSMI

                                     EJECT
                              *      FRACT   CONVERTS ONE DIGIT OF FRACTION


                                     SPACE   3
      03027  0634 00 1 03046  FRACT  SXA     FOUT16,1
      03030  0774 00 1 00000  FOUT15 AXT     **,1
      03031  0600 00 0 77516         STZ     TEMP
      03032  0560 00 1 00222  FOUT11 LDQ     SUM-4,1
      03033  0200 00 0 77507         MPY     BASE
      03034  0131 00 0 00000         XCA
      03035  0400 00 0 77516         ADD     TEMP
      03036  0131 00 0 00000         XCA
      03037  0763 00 0 00010         LLS     8
      03040  0602 00 0 77516         SLW     TEMP
      03041 -0754 00 0 00000         ZAC
      03042  0765 00 0 00010         LRS     8
      03043 -0600 00 1 00222         STQ     SUM-4,1
      03044  2 00001 1 03032         TIX     FOUT11,1,1
      03045 -0500 00 0 77516         CAL     TEMP

  BINARY CARD NO. IOH00073
      03046  0774 00 1 00000  FOUT16 AXT     **,1
      03047  0020 00 1 00001         TRA     1,1
1            FAP                                                                                 PAGE 66
                           (IOH)     PART IV UTILITY ROUTINES                   JSMI

                                     TTL     (IOH)     PART IV UTILITY ROUTINES                   JSMI


                                     SPACE   15
                              ***********************************************************************
                              ***********************************************************************
                              **                                                                   **
                              **                                                                   **
                              **                        P A R T   I V                              **
                              **                                                                   **
                              **               U T I L I T Y   R O U T I N E S                     **
                              **                                                                   **
                              **                                                                   **
                              ***********************************************************************
                              ***********************************************************************
1            FAP                                                                                 PAGE 67
                           (IOH)     PART IV UTILITY ROUTINES                   JSMI

                                     EJECT
1            FAP                                                                                 PAGE 68
                           (IOH)     PART IV UTILITY ROUTINES                   JSMI

                                     EJECT
                              ***********************************************************************
                              *                                                                     *
                              *      SUBROUTINE TO READ A CARD OR PRINT A LINE                      *
                              *                                                                     *
                              ***********************************************************************


                                     SPACE   3
      03050 -0774 00 4 00315  INOUT2 AXC     BETA-1,4      DEPENDING ON WHETHER INPUT OR OUTPUT,
      03051 -0600 00 0 77533  INOUT  STQ     MQSAVE        SAVE NECESSARY THINGS
      03052 -0056 00  400000         LNT     OUTDSW
      03053  0020 00 0 03111         TRA     SLURP         IF INPUT
                              *
      03054  0634 00 4 03107  SPIT   SXA     IOT4,4        OUTPUT
      03055  0074 00 4 03136         TSX     SQUISH,4      CONDENSE IMAGE
      03056  2 00204 0 00214         BLK     IMAGE+1,,IMLEN
      03057  0500 00 0 77504         CLA     LPOINT        GET COUNT
      03060  0400 00 0 04601         ADD     =4            OF WORDS
      03061  0131 00 0 00000         XCA                   TO BE
      03062 -0754 00 0 00000         ZAC                   SENT OUT
      03063  0221 00 0 04602         DVP     =6
      03064  0131 00 0 00000         XCA                   COUNT=(NR.COL.+5)/6=(LPOINT+4)/6
      03065 -0100 00 0 03067         TNZ     *+2
      03066  0500 00 0 04600         CLA     =1            ONLY ONE WORD RECORD UNLIKE BACKGROUND JSMI
      03067  0621 00 0 77741         STA     COL
      03070  0767 00 0 00022         ALS     18                                                     MI
      03071  0622 00 0 03074         STD     SUBXIT+1                                               MI

  BINARY CARD NO. IOH00074
      03072  0604 00 0 77535         STI     SAVIND
      03073  0074 00 4 00000  SUBXIT TSX     **,4          CALL IN SUBROUTINE TO DISPOSE OF IMAGE
      03074  0 00000 0 77742         PZE     REC,,**                                                MI
      03075 -0054 00  100000         LFT     NDSW          IF 'DON'T' SWITCH SET -
      03076  0020 00 0 03105         TRA     IOT7               DON'T RESET
      03077  0500 00 0 04622         CLA     =H00000
      03100  0774 00 4 00204         AXT     IMLEN,4
      03101  0601 00 4 00214         STO     IMAGE+1,4
      03102  2 00001 4 03101         TIX     *-1,4,1
      03103  0500 00 0 04600         CLA     =1
      03104  0601 00 0 77504         STO     LPOINT
      03105  0560 00 0 77533  IOT7   LDQ     MQSAVE        RESTORE
      03106  0441 00 0 77535         LDI     SAVIND
      03107  0774 00 4 00000  IOT4   AXT     **,4          THINGS
      03110  0020 00 4 00001         TRA     1,4           AND RETURN
                              *
      03111  0634 00 4 03107  SLURP  SXA     IOT4,4
      03112  0634 00 2 03133         SXA     IOT2,2
      03113  0634 00 1 03134         SXA     IOT1,1        SAVE IR1
      03114  0604 00 0 77535         STI     SAVIND
      03115  0522 00 0 03073         XEC     SUBXIT        CALL IN SUBROUTINE TO PROCURE IMAGE
1            FAP                                                                                 PAGE 69
                           (IOH)     PART IV UTILITY ROUTINES                   JSMI

  BINARY CARD NO. IOH00075
      03116  0774 00 2 00000         AXT     0,2                                                    MI
      03117  0774 00 4 00000         AXT     0,4           EXPAND THE IMAGE- IR2 KEEPS TRACK OF COL MI
      03120  0560 00 4 77742  IOT8   LDQ     REC,4         IN EXPANDED IMAGE, IR4 KEEPS TRACK OF WORDS
      03121  0774 00 1 00006         AXT     6,1           IN COMPRESSED IMAGE
      03122 -0754 00 0 00000  IOT9   ZAC
      03123 -0763 00 0 00006         LGL     6
      03124  0601 00 2 00010  ERK    STO     BIMAGE,2
      03125  1 77777 2 03126         TXI     *+1,2,-1
      03126 -3 00000 2 03131  IOT11  TXL     IOT12,2,**
      03127  2 00001 1 03122         TIX     IOT9,1,1
      03130  1 77777 4 03120         TXI     IOT8,4,-1
      03131  0500 00 0 04600  IOT12  CLA     =1
      03132  0601 00 0 77504         STO     LPOINT        RESET LINE POINTER
      03133  0774 00 2 00000  IOT2   AXT     **,2          RESTORE
      03134  0774 00 1 00000  IOT1   AXT     **,1
      03135  0020 00 0 03105         TRA     IOT7
1            FAP                                                                                 PAGE 70
                           (IOH)     PART IV UTILITY ROUTINES                   JSMI

                                     EJECT
                              ***********************************************************************
                              *                                                                     *
                              *      SQUISH  COMPRESSES A LINE SO IT CAN BE SENT OUT                *
                              *              CALLING SEQUENCE IS     TSX SQUISH,4                   *
                              *                                      BLK LOC+1,,LEN                 *
                              *                                                                     *
                              *              WHERE   LOC = LOCN OF BTS REGION TO BE SQUISHED        *
                              *                      LEN = NUMBER OF WORDS IN LOC                   *
                              *                                                                     *
                              ***********************************************************************


                                     SPACE   3
      03136  0634 00 4 03155  SQUISH SXA     SQ4,4
      03137  0634 00 2 03156         SXA     SQ2,2
      03140  0500 00 4 00001         CLA     1,4
      03141 -0734 00 2 00000         PDX     0,2

  BINARY CARD NO. IOH00076
      03142  0621 00 0 03147         STA     SQ10
      03143  0774 00 4 00026         AXT     RECLEN,4
      03144 -0140 00 0 03145         TNO     *+1
      03145 -0500 00 0 04600  SQ5    CAL     =1
      03146  0767 00 0 00006  SQ6    ALS     6             HERE
      03147  0400 00 2 00000  SQ10   ADD     **,2          WE
      03150  1 77777 2 03151         TXI     *+1,2,-1      GO
      03151 -3 00000 2 03160         TXL     SQ7,2,0       ROUND
      03152 -0140 00 0 03146         TNO     SQ6           THE
      03153  0602 00 4 77770         SLW     REC+RECLEN,4  MULBERRY
      03154  2 00001 4 03145         TIX     SQ5,4,1       BUSH
      03155  0774 00 4 00000  SQ4    AXT     **,4
      03156  0774 00 2 00000  SQ2    AXT     **,2
      03157  0020 00 4 00002         TRA     2,4
                              *
      03160  0140 00 0 03164  SQ7    TOV     SQ8
      03161  0560 00 0 04651         LDQ     =H
      03162 -0763 00 0 00006         LGL     6
      03163 -0140 00 0 03162         TNO     *-1
      03164  0602 00 4 77770  SQ8    SLW     REC+RECLEN,4
      03165 -0500 00 0 04651         CAL     =H

  BINARY CARD NO. IOH00077
      03166  0020 00 0 03170         TRA     SQ9
      03167  0602 00 4 77770         SLW     REC+RECLEN,4
      03170  2 00001 4 03167  SQ9    TIX     *-1,4,1
      03171  0020 00 0 03155         TRA     SQ4
1            FAP                                                                                 PAGE 71
                           (IOH)     PART IV UTILITY ROUTINES                   JSMI

                                     EJECT
                              ***********************************************************************
                              *                                                                     *
                              *      RETURNS FROM FORTRAN TO CLOSE OUT I/O LIST                     *
                              *                                                                     *
                              ***********************************************************************


                                     SPACE   3
                              *              ENTRY TO (FIL)                                         MI
                              *              ENTRY TO (RTN)                                         MI
                       03172  P(FIL) SYN     *                                                      MI
                              *                                                                     MI
      03172 -0056 00  400000         LNT     OUTDSW
      03173  0020 00 0 03202         TRA     FL3           IF INPUT
      03174  0020 00 0 03200         TRA     FL5           IF OUTPUT
                              *
      03175  0634 00 4 03230  (FIL)  SXA     IR4,4
                              *                                                                     MI
      03176  0074 00 4 04363         TSX     SVMC,4                                                 MI
      03177  0441 00 0 77535         LDI     SAVIND        AND RESTORE OURS
      03200 -0056 00  100000  FL5    LNT     NDSW          UNLESS 'DON'T' SWITCH SET,
      03201  0074 00 4 03054         TSX     SPIT,4        PUT OUT CURRENT LINE
      03202  0074 00 4 04407   FL3   TSX     RSTMC,4                                                MI
      03203  0074 00 4 04442         TSX     RSTMC1,4                                               MI
      03204  0522 00 0 03230         XEC     IR4                                                    MI
      03205 -0500 00 0 04431         CAL     2SAVE                                                  MI
      03206  0602 00 0 00002         SLW     2                                                      MI
 TD   03207 -3 00000 0 03211  FL10   BRANCH  *+2
      03210  0020 60 0 00000         TRA*    0             IF MAD/UMAP
      03211  0020 00 4 00001         TRA     1,4           IF FORTRAN                               MI
                              *
                       03212  (RTN)  SYN     *                                                      MI

  BINARY CARD NO. IOH00078
      03212 -0500 00 0 04431         CAL     2SAVE                                                  MI
      03213  0602 00 0 00002         SLW     2                                                      MI
      03214  0634 00 4 03216         SXA     *+2,4                                                  MI
      03215  0074 00 4 04442         TSX     RSTMC1,4                                               MI
      03216  0774 00 4 00000         AXT     **,4                                                   MI
      03217  0020 00 4 00001         TRA     1,4                                                    MI
1            FAP                                                                                 PAGE 72
                           (IOH)     PART IV UTILITY ROUTINES                   JSMI

                                     EJECT
                              ***********************************************************************
                              *                                                                     *
                              *      SUBROUTINE TO GET NEXT LIST ELEMENT                            *
                              *                            DOES NOT SAVE IR1 OR MQ                  *
                              *                            DOES SAVE INDICATORS                     *
                              *                                                                     *
                              ***********************************************************************


                                     SPACE   3
      03220 -0760 00 0 00142  NLE    SLT     LISDSW
      03221  0020 00 0 03223         TRA     *+2
      03222  0020 00 4 00001         TRA     1,4
      03223  0634 00 4 03322         SXA     NL4,4
      03224  0634 00 2 03323         SXA     NL22,2
      03225  0560 00 0 00230         LDQ     VALUE
      03226  0604 00 0 77535         STI     SAVIND        SAVE INDS
      03227  0074 00 4 04407         TSX     RSTMC,4                                                MI
      03230  0774 00 4 00000   IR4   AXT     **,4   4                                               MI
      03231  0441 00 0 77535         LDI     SAVIND        RESTORE IOH'S INDICATORS TEMPORARILY     MI
 TD   03232 -3 00000 0 03235  NL12   BRANCH  NL13
      03233 -0056 00  400000         LNT     OUTDSW
      03234 -0600 00 0 00000  STORE  STQ     **,**
      03235  0441 00 0 77512  NL13   LDI     USISV         RESTORE USER'S SENSE INDICATORS

  BINARY CARD NO. IOH00079
      03236  0020 60 0 00000         TRA*    0             OUT WE GO                              JSMI
                                                                                                  JSMI
                                                               DURING THIS BRIEF INTERLUDE,       JSMI
                                                               THE USER HAS A CHANCE TO DO        JSMI
                                                               SOMETHING ABOUT THE MISERABLE      JSMI
                                                               STATE HE'S IN.                     JSMI
                                                                                                  JSMI
                       03237  INYCOM SYN     *                                                      MI
      03237  0634 00 4 03230         SXA     IR4,4
      03240  0074 00 4 04363         TSX     SVMC,4                                                 MI
      03241  0441 00 0 77535         LDI     SAVIND
      03242 -0054 00  200000         LFT     FTNDSW
      03243  0020 00 0 03321         TRA     NL1           IS FORTRAN
      03244 -0500 00 0 00000         CAL     0
      03245  0402 00 0 04600         SUB     =1
      03246  0621 00 0 03247         STA     *+1
      03247 -0500 00 0 00000         CAL     **
      03250 -0734 00 4 00000         PDX     0,4
      03251 -3 00000 4 03310         TXL     NL2,4,0
      03252  0734 00 2 00000         PAX     0,2           IS A BLOCK
      03253  0754 00 2 00000         PXA     0,2
      03254  0621 00 0 03277         STA     NL3
      03255  0601 00 0 77532         STO     NL5
      03256  0754 00 4 00000         PXA     0,4
      03257  0601 00 0 77531         STO     NL6
      03260  0402 00 0 77532         SUB     NL5
      03261  0522 00 0 04425         XEC     IR2
1            FAP                                                                                 PAGE 73
                           (IOH)     PART IV UTILITY ROUTINES                   JSMI

  BINARY CARD NO. IOH00080
      03262 -0100 00 0 03265         TNZ     NL7           TEST IF BLOCK LENGTH OF ONE
      03263 -0500 00 0 77532         CAL     NL5
      03264  0020 00 0 03310         TRA     NL2
                              *
      03265  0774 00 4 00001  NL7    AXT     1,4           SET
      03266  0120 00 0 03270         TPL     *+2           DIRECTION
      03267  0774 00 4 77777         AXT     -1,4          OF BLOCK
      03270 -0634 00 4 03304         SXD     NL8,4         INCREMENTING
      03271 -0500 00 0 00000         CAL     0
      03272  0621 00 0 03307         STA     NL9
      03273  0020 00 0 03275         TRA     NL3.                                                   MI
                              *
      03274  0634 00 2 03277  NL10   SXA     NL3,2         WHILE IN THE BLOCK
      03275  0074 00 4 04407   NL3.  TSX     RSTMC,4       RESTORE ALL USERS CONDITIONS             MI
      03276  0522 00 0 03230         XEC     IR4                                                    MI
      03277 -1 00000 0 00000  NL3    STR     **            EVERYTIME A LIST
                              *                            ELEMENT IS                               MI
      03300  0534 00 2 03277         LXA     NL3,2         WANTED
      03301  0754 00 2 00000         PXA     0,2
      03302  0402 00 0 77531         SUB     NL6
      03303  0100 00 0 03305         TZE     NL11
      03304  1 00000 2 03274  NL8    TXI     NL10,2,**
                              *
      03305  0074 00 4 04407   NL11  TSX     RSTMC,4                                                MI
                              *                            DO NOT RESTORE S. L. 2                   MI
                              *              SPMON                                                  MI

  BINARY CARD NO. IOH00081
      03306  0522 00 0 03230         XEC     IR4
      03307  0020 00 0 00000  NL9    TRA     **
                              *
      03310  0621 00 0 03234  NL2    STA     STORE         IS SINGLE VARIABLE
      03311  0625 00 0 03234         STT     STORE
      03312  0734 00 4 00000         PAX     0,4
      03313 -3 00000 4 03172         TXL     P(FIL),4,0
      03314  0074 00 4 04407         TSX     RSTMC,4       RESTORE PERTINENT MACHINE CONDITIONS     MI
      03315  0522 00 0 03230         XEC     IR4                                                    MI
      03316  0560 60 0 03234         LDQ*    STORE
      03317  0441 00 0 77535         LDI     SAVIND        RESTORE IOH'S SI                         MI
      03320 -0760 00 0 00016         EMTM                                                           MI
      03321 -0600 00 0 00230  NL1    STQ     VALUE
      03322  0774 00 4 00000  NL4    AXT     **,4
      03323  0774 00 2 00000  NL22   AXT     **,2
      03324  0020 00 4 00001         TRA     1,4           RETURN
1            FAP                                                                                 PAGE 74
                           (IOH)     PART IV UTILITY ROUTINES                   JSMI

                                     EJECT
                              ***********************************************************************
                              *                                                                     *
                              *      UTILITY ROUTINES                                               *
                              *                                                                     *
                              ***********************************************************************


                                     SPACE   3
      03325  0500 00 4 00001  CCUSE  CLA     1,4
      03326  0621 00 0 03337         STA     CC1
      03327 -0774 00 4 00516         AXC     NEXT-2,4
      03330  0020 00 0 03335         TRA     C2
                              *
      03331  0500 00 4 00001  CCTRST CLA     1,4

  BINARY CARD NO. IOH00082
      03332  0621 00 0 03337         STA     CC1
      03333  0500 00 0 77511         CLA     MULT
      03334  0054 00  000100         RFT     CCDSW
      03335  0500 00 0 77510  C2     CLA     CC
      03336  0600 00 0 77510         STZ     CC
      03337  0601 00 0 00000  CC1    STO     **
      03340  0057 00  000100         RIR     CCDSW
      03341  0020 00 4 00002         TRA     2,4
1            FAP                                                                                 PAGE 75
                           (IOH)     PART IV UTILITY ROUTINES                   JSMI

                                     EJECT
                              ***********************************************************************
                              *                                                                     *
                              *      IOHSIZ  WITH NON-ZERO PARAMETER TURNS OFF 'FIELD WIDTH         *
                              *              EXCEEDED' ERROR.  WITH ZERO PARAMETER TURNS IT BACK ON *
                              *                                                                     *
                              ***********************************************************************


                                     SPACE   3
      03342  0500 00 0 03347  IOHSIZ CLA     OPN
      03343 -0520 60 4 00001         NZT*    1,4
      03344  0500 00 0 03350         CLA     NOPN
      03345  0601 00 0 01676         STO     SIZSW
      03346  0020 00 4 00002         TRA     2,4
                              *
      03347  0500 00 0 77502  OPN    CLA     FIELDW
      03350  0020 00 0 03600  NOPN   TRA     TOOWID
1            FAP                                                                                 PAGE 76
                           (IOH)     PART V ERROR COMMENTS                     JSMI

                                     TTL     (IOH)     PART V ERROR COMMENTS                     JSMI


                                     SPACE   15
                              ***********************************************************************
                              ***********************************************************************
                              **                                                                   **
                              **                                                                   **
                              **                         P A R T   V                               **
                              **                                                                   **
                              **                 E R R O R    C O M M E N T S                      **
                              **                                                                   **
                              **                                                                   **
                              ***********************************************************************
                              ***********************************************************************
1            FAP                                                                                 PAGE 77
                           (IOH)     PART V ERROR COMMENTS                     JSMI

                                     EJECT
                              ***********************************************************************
                              *                                                                     *
                              *      ERROR PRINTOUTS                                              JSMI
                              *                                                                   JSMI
                              *      BAD    IS ENTRY FOR 'ILLEGAL CHARACTER IN FORMAT'            JSMI
                              *      TOOBIG IS ENTRY FOR 'FORMAT SPECIFIES MORE THAN XXX            *
                              *             COLUMNS'                                              JSMI
                              *      BAD2   IS ENTRY FOR 'ILLEGAL CHARACTER ON CARD IN              *
                              *             COLUMN XXX'                                           JSMI
                              *      WAYOUT IS ENTRY FOR 'NUMBER NOT IN MACHINE RANGE'            JSMI
                              *      TOOWID IS ENTRY FOR 'NUMBER EXCEEDS SPECIFIED FIELD            *
                              *             WIDTH.  NUMBER IS ...'                                JSMI
                              *      ZERBAS IS ENTRY FOR 'BASE FOR CONVERSION IS LESS THAN 2 OR     *
                              *             GREATER THAN 19'                                      JSMI
                              *      ERP    IS ENTRY FOR 'MORE RIGHT PARENS THAN LEFT PARENS'     JSMI
                              *      TOOLAR IS ENTRY FOR 'NUMBER EXCEEDS SPECIFIED FIELD WIDTH'   JSMI
                              *      NOVAR  IS ENTRY FOR 'THE NAME XXXXXX IS NOT A FORMAT           *
                              *             VARIABLE IN THE CALLING PROGRAM'                      JSMI
                              *      DIMERR                                                         *
                              *      SUBERR ARE ENTRIES FOR 'DIMENSIONING OR SUBSCRIPTING ERROR'  JSMI
                              *      MCOM   IS ENTRY FOR 'MULTIPLE CONVERSIONS SPECIFIED IN         *
                              *             SAME FORMAT TERM, PROBABLY DUE TO MISSING COMMA         *
                              *             OR BAD HOLLERITH COUNT'                               JSMI
                              *      EMPTY  IS ENTRY FOR 'LIST NON-EMPTY BUT FORMAT SPECIFIES       *
                              *             NO CONVERSIONS'                                       JSMI
                              *                                                                     *
                              ***********************************************************************
                       03351  .SPRNT SYN     *
      03351  0634 00 4 03361         SXA     X4,4
      03352 -0500 00 4 00001         CAL     1,4           GET CONTROL WORD FROM IOH
      03353  0621 00 0 03360         STA     B
      03354 -0734 00 4 00000         PDX     ,4            IX4=WORD COUNT
      03355  2 00016 4 03363         TIX     A,4,N         TRANSF IF MORE THAN N WORDS

  BINARY CARD NO. IOH00083
      03356 -0634 00 4 03360         SXD     B,4
      03357  0074 00 4 00003         TSX     $WRFLX,4      PRINT LINE NO MORE THAN N WORDS
      03360  0 00000 0 00000  B      PZE     **,,**        1ST OR 2ND
      03361  0774 00 4 00000  X4     AXT     **,4
      03362  0020 00 4 00002         TRA     2,4           RETURN TO IOH
      03363 -0634 00 4 03360  A      SXD     B,4           WORD COUNT FOR 2ND LINE
      03364  0534 00 4 03360         LXA     B,4
      03365  0634 00 4 03371         SXA     C,4           BUFFER ADDRESS FOR 1ST LINE
      03366  1 00016 4 03367         TXI     *+1,4,N
      03367  0634 00 4 03360         SXA     B,4           BUFFER ADDRESS FOR 2ND LINE
      03370  0074 00 4 00004         TSX     $WRFLXA,4                                            JSMI
      03371  0 00016 0 00000  C      PZE     **,,N
      03372  0020 00 0 03357         TRA     B-1           TO 2ND LINE
                       00016  N      EQU     14
1            FAP                                                                                 PAGE 78
                           (IOH)     PART V ERROR COMMENTS                     JSMI

                                     SPACE   3
                              *              BAD... ILLEGAL CHARACTER IN FORMAT... HPR 0,1
      03373  0634 00 4 03751   BAD   SXA     .IR4,4                                                 MI
      03374  0074 00 4 04310         TSX     .SAVE,4                                                MI
      03375 -0500 00 0 03772         CAL     HPR01         HPR 0,1                                  MI
      03376  0602 00 0 03776         SLW     ERREX                                                  MI
      03377 -0500 00 0 04631         CAL     =O1000000     ILLEGAL CHARACTER IN FORMAT            JSMI
      03400  0602 00 0 03501         SLW     EXENUM                                               JSMI
      03401  0534 00 4 03751         LXA     .IR4,4                                                 MI

  BINARY CARD NO. IOH00084
      03402  0634 00 2 77532         SXA     NL5,2                                                  MI
      03403  0754 00 4 00000         PXA     0,4
      03404  0601 00 0 77535         STO     SAVIND
      03405  0500 00 2 00000         CLA     0,2
      03406  0601 00 0 04045         STO     FWORD         INSERT FORMAT WORD
      03407                          CALL    SPRINT,ERC.A,...,6
                                     IFF     1,SPRINT,SPRINT                                                  .001
      03407  0074 00 4 03351         TSX     .SPRNT,4                                                         .001
                                     IFF     0,SPRINT,SPRINT                                                  .001
                                     TSX     $SPRINT,4                                                        .001
                                     IFF     1,...,...                                                        .001
      03410  0 00006 0 03777         PZE     ERC.A,...,6                                                      .001
      03411  0500 00 0 77535  BC     CLA     SAVIND
      03412 -0501 00 0 04650         ORA     =H    '0
      03413  0602 00 0 04033         SLW     CLOC          INSERT CHARACTER (BCD)
      03414  0500 00 0 77535         CLA     SAVIND
      03415 -0765 00 0 00003         LGR     3
      03416  0767 00 0 00003         ALS     3
      03417 -0763 00 0 00003         LGL     3
      03420  0621 00 0 04035         STA     OCLOC         INSERT CHARACTER (OCTAL)
      03421                   PERC.B CALL    SPRINT,ERC.B,...,9                                   JSMI
                                     IFF     1,SPRINT,SPRINT                                                  .001
      03421  0074 00 4 03351         TSX     .SPRNT,4                                                         .001
                                     IFF     0,SPRINT,SPRINT                                                  .001
                                     TSX     $SPRINT,4                                                        .001
                                     IFF     1,...,...                                                        .001
      03422  0 00011 0 04026         PZE     ERC.B,...,9                                                      .001
      03423  3 00001 2 03524         TXH     PERC.G,2,1
      03424                          CALL    SPRINT,ERC.C,...,8
                                     IFF     1,SPRINT,SPRINT                                                  .001
      03424  0074 00 4 03351         TSX     .SPRNT,4                                                         .001
                                     IFF     0,SPRINT,SPRINT                                                  .001
                                     TSX     $SPRINT,4                                                        .001
                                     IFF     1,...,...                                                        .001
      03425  0 00010 0 04037         PZE     ERC.C,...,8                                                      .001

  BINARY CARD NO. IOH00085
      03426  0535 00 1 77532  PERC.D LAC     NL5,1
      03427  0754 00 1 00000         PXA     0,1
      03430  0074 00 1 04354         TSX     ADROUT,1
      03431  0621 00 0 04055         STA     FLOC
      03432  0622 00 0 04055         STD     FLOC
      03433                          CALL    SPRINT,ERC.D,...,7
                                     IFF     1,SPRINT,SPRINT                                                  .001
1            FAP                                                                                 PAGE 79
                           (IOH)     PART V ERROR COMMENTS                     JSMI

      03433  0074 00 4 03351         TSX     .SPRNT,4                                                         .001
                                     IFF     0,SPRINT,SPRINT                                                  .001
                                     TSX     $SPRINT,4                                                        .001
                                     IFF     1,...,...                                                        .001
      03434  0 00007 0 04047         PZE     ERC.D,...,7                                                      .001
      03435  0500 00 0 04064         CLA     OUTP
      03436  0560 00 0 04066         LDQ     OUTPQ
      03437  0774 00 1 04331         AXT     4*8*64+3*64+3*8+1,1                                    MI
      03440 -0054 00  400000         LFT     OUTDSW
      03441  0020 00 0 03445         TRA     P.K
      03442  0500 00 0 04065         CLA     INPT
      03443  0560 00 0 04067         LDQ     INPTQ
      03444  0774 00 1 02321         AXT     2*8*64+3*64+2*8+1,1                                    MI
      03445  0601 00 0 04060  P.K    STO     ERC.K+2
      03446 -0600 00 0 04062         STQ     ERC.K+4
      03447  0634 00 1 04061         SXA     ERC.K+3,1
      03450                          CALL    SPRINT,ERC.K,...,6
                                     IFF     1,SPRINT,SPRINT                                                  .001
      03450  0074 00 4 03351         TSX     .SPRNT,4                                                         .001
                                     IFF     0,SPRINT,SPRINT                                                  .001
                                     TSX     $SPRINT,4                                                        .001
                                     IFF     1,...,...                                                        .001
      03451  0 00006 0 04056         PZE     ERC.K,...,6                                                      .001

  BINARY CARD NO. IOH00086
      03452  0500 00 0 03457         CLA     ERRPT
      03453  0771 00 0 00022         ARS     18
      03454  0401 00 0 03124         ADM     ERK
      03455  0621 00 0 03457         STA     ERRPT
      03456  0074 00 4 03136         TSX     SQUISH,4
      03457  2 00000 0 00214  ERRPT  BLK     IMAGE+1,,**
      03460  0500 00 0 03777         CLA     ERC.A
      03461  0601 00 0 77741         STO     REC-1
      03462                          CALL    SPRINT,REC-1,...,RECLEN
                                     IFF     1,SPRINT,SPRINT                                                  .001
      03462  0074 00 4 03351         TSX     .SPRNT,4                                                         .001
                                     IFF     0,SPRINT,SPRINT                                                  .001
                                     TSX     $SPRINT,4                                                        .001
                                     IFF     1,...,...                                                        .001
      03463  0 00026 0 77741         PZE     REC-1,...,RECLEN                                                 .001
      03464 -0535 00 4 77740         LDC     RTN,4                                                  MI
      03465  0754 00 4 00000         PXA     0,4                                                    MI
      03466  0074 00 1 04354         TSX     ADROUT,1                                               MI
      03467 -0501 00 0 04646         ORA     =H 00000                                               MI
      03470  0602 00 0 04077         SLW     ERC.E+7                                                MI
      03471                          CALL    SPRINT,ERC.E,...,9                                     MI
                                     IFF     1,SPRINT,SPRINT                                                  .001
      03471  0074 00 4 03351         TSX     .SPRNT,4                                                         .001
                                     IFF     0,SPRINT,SPRINT                                                  .001
                                     TSX     $SPRINT,4                                                        .001
                                     IFF     1,...,...                                                        .001
      03472  0 00011 0 04070         PZE     ERC.E,...,9                                                      .001
      03473  0441 00 0 03776         LDI     ERREX                                                  MI
      03474 -0754 00 4 03500         PXD     EXEIR4,4                                             JSMI
      03475  0074 00 4 00005         TSX     $RECOUP,4     CALL RECOUP DIRECTLY, NOT EXE          JSMI
1            FAP                                                                                 PAGE 80
                           (IOH)     PART V ERROR COMMENTS                     JSMI

  BINARY CARD NO. IOH00087
      03476  0 00000 0 03501         PZE     EXENUM                                             JSMI
      03477  0 00000 0 03500         PZE     EXEIR4                                             JSMI
      03500  0 00000 0 00000  EXEIR4 PZE                                                          JSMI
      03501  0 00000 0 00000  EXENUM PZE                                                          JSMI
                              *
                              *
                              *                                                                     MI
                              *                                                                     MI
      03502  0634 00 4 03751  TOOBIG SXA     .IR4,4                                                 MI
      03503  0074 00 4 04310         TSX     .SAVE,4                                                MI
      03504 -0500 00 0 03773         CAL     HPR61                                                  MI
      03505  0602 00 0 03776         SLW     ERREX                                                  MI
      03506 -0500 00 0 04634         CAL     =O22000000    TOO LONG FORMAT                        JSMI
      03507  0602 00 0 03501         SLW     EXENUM                                                JSM
      03510  0634 00 2 77532         SXA     NL5,2                                                  MI
      03511 -0534 00 4 77741         LXD     COL,4         MAXIMUM CHARACTERS AVAILABLE           JSMI
      03512  0754 00 4 00000         PXA     ,4            INTO ADDRESS                           JSMI
      03513  0074 00 1 04334         TSX     NROUT,1                                               JSM
      03514 -0320 00 0 04652         ANA     =O00777777770000        KEEP CONVERTED WORD      JSMI
      03515  0560 00 0 04577         LDQ     =0            CLEAR MQ                               JSMI
      03516 -0765 00 0 00022         LGR     18            LAST DIGIT TO MQ                       JSMI
      03517 -0602 00 0 04116         ORS     ERC.F+5       INSERT FIRST PART                      JSMI
      03520 -0130 00 0 00000         XCL                                                          JSMI
      03521 -0602 00 0 04117         ORS     ERC.F+6       INSERT LAST DIGIT                      JSMI
      03522                          CALL    SPRINT,ERC.F,...,8
                                     IFF     1,SPRINT,SPRINT                                                  .001

  BINARY CARD NO. IOH00088
      03522  0074 00 4 03351         TSX     .SPRNT,4                                                         .001
                                     IFF     0,SPRINT,SPRINT                                                  .001
                                     TSX     $SPRINT,4                                                        .001
                                     IFF     1,...,...                                                        .001
      03523  0 00010 0 04111         PZE     ERC.F,...,8                                                      .001
      03524  0534 00 1 77532  PERC.G LXA     NL5,1
      03525 -0500 00 1 00000         CAL     0,1
      03526  0560 00 0 04641         LDQ     =H'
      03527 -0765 00 0 00006         LGR     6
      03530 -0501 00 0 04640         ORA     =H'00000
      03531  0602 00 0 04131         SLW     ERC.G+8
      03532 -0600 00 0 04132         STQ     ERC.G+9
      03533                          CALL    SPRINT,ERC.G,...,10
                                     IFF     1,SPRINT,SPRINT                                                  .001
      03533  0074 00 4 03351         TSX     .SPRNT,4                                                         .001
                                     IFF     0,SPRINT,SPRINT                                                  .001
                                     TSX     $SPRINT,4                                                        .001
                                     IFF     1,...,...                                                        .001
      03534  0 00012 0 04121         PZE     ERC.G,...,10                                                     .001
      03535  0020 00 0 03426         TRA     PERC.D
                              *
      03536  0634 00 4 03751   BAD2  SXA     .IR4,4        ILLEGAL CHARACTER                        MI
      03537  0074 00 4 04310         TSX     .SAVE,4       ON INPUT RECORD                          MI
      03540 -0500 00 0 03774         CAL     HPR11         HPR 1,1                                  MI
      03541  0602 00 0 03776         SLW     ERREX                                                  MI
      03542  0534 00 4 03751         LXA     .IR4,4                                                 MI
1            FAP                                                                                 PAGE 81
                           (IOH)     PART V ERROR COMMENTS                     JSMI

      03543  0754 00 2 00000         PXA     0,2                                                    MI
      03544  0601 00 0 77535         STO     SAVIND                                                 MI
      03545 -0500 00 0 04632         CAL     =O2000000                                          JSMI

  BINARY CARD NO. IOH00089
      03546  0602 00 0 03501         SLW     EXENUM                                             JSMI
      03547  0634 00 4 00233         SXA     MODE,4                                                 MI
      03550  0020 00 0 03561         TRA     BAD22X                                                 MI
      03551  0601 00 0 77535   BAD22 STO     SAVIND        ILLEGAL CHARACTER                        MI
      03552  0634 00 4 03751         SXA     .IR4,4        IN OCTAL INPUT RECORD                    MI
      03553  0074 00 4 04310         TSX     .SAVE,4                                                MI
      03554 -0500 00 0 03775         CAL     HPR51         HPR 5,1                                  MI
      03555  0602 00 0 03776         SLW     ERREX                                                  MI
      03556 -0500 00 0 04633         CAL     =O3000000                                            JSMI
      03557  0602 00 0 03501         SLW     EXENUM                                               JSMI
      03560  0634 00 2 00233         SXA     MODE,2                                                 MI
      03561  0522 00 0 01435  BAD22X XEC     CV2                                                    MI
      03562  0634 00 2 77532         SXA     NL5,2                                                  MI
      03563  0535 00 4 00233         LAC     MODE,4
      03564  0754 00 4 00000         PXA     0,4
      03565  0402 00 0 04600         SUB     =1
      03566  0074 00 1 04334         TSX     NROUT,1
      03567  0602 00 0 04110         SLW     COLNR
      03570                          CALL    SPRINT,ERC.J,...,8
                                     IFF     1,SPRINT,SPRINT                                                  .001
      03570  0074 00 4 03351         TSX     .SPRNT,4                                                         .001
                                     IFF     0,SPRINT,SPRINT                                                  .001
                                     TSX     $SPRINT,4                                                        .001
                                     IFF     1,...,...                                                        .001
      03571  0 00010 0 04101         PZE     ERC.J,...,8                                                      .001

  BINARY CARD NO. IOH00090
      03572  0020 00 0 03411         TRA     BC
                              *
      03573  0522 00 0 01435  WAYOUT XEC     CV2
      03574  0634 00 2 77532         SXA     NL5,2
      03575                          CALL    SPRINT,ERC.M,...,6
                                     IFF     1,SPRINT,SPRINT                                                  .001
      03575  0074 00 4 03351         TSX     .SPRNT,4                                                         .001
                                     IFF     0,SPRINT,SPRINT                                                  .001
                                     TSX     $SPRINT,4                                                        .001
                                     IFF     1,...,...                                                        .001
      03576  0 00006 0 04133         PZE     ERC.M,...,6                                                      .001
      03577  0020 00 0 03524         TRA     PERC.G
                              *
      03600 -0056 00  000004  TOOWID LNT     KODSW
      03601  0020 00 0 03607         TRA     TW3
      03602  0774 00 2 00000         AXT     0,2           IF BASE IS POWER OF TWO,
      03603  1 00001 2 03604  TW2    TXI     *+1,2,1       SHIFT INTO DIG, REVERSING ORDER
      03604  0500 00 4 77737         CLA     VEC+1,4
      03605  0601 00 2 77673         STO     DIG+1,2
      03606  2 00001 4 03603         TIX     TW2,4,1
      03607 -0634 00 2 03640  TW3    SXD     PARAM,2
      03610  0500 00 2 77673  TW1    CLA     DIG+1,2       FINISH
      03611  0340 00 0 04605         CAS     =9            NUMBER
1            FAP                                                                                 PAGE 82
                           (IOH)     PART V ERROR COMMENTS                     JSMI

      03612  0400 00 0 04603         ADD     =7            TRANSFORMATION
      03613  0020 00 0 03614         TRA     *+1
      03614  0602 60 0 03610         SLW*    TW1
      03615  2 00001 2 03610         TIX     TW1,2,1

  BINARY CARD NO. IOH00091
      03616  0522 00 0 01435         XEC     CV2
      03617  0634 00 2 77532         SXA     NL5,2
      03620  0560 00 0 00230         LDQ     VALUE         GET NUMBER
      03621  0054 00  000010         RFT     DDSW
      03622  0560 00 0 00227         LDQ     VALUE-1
      03623  0074 00 1 04355         TSX     NBROUT,1
      03624  0767 00 0 00003         ALS     3
      03625 -0763 00 0 00003         LGL     3
      03626  0602 00 0 04174         SLW     ERC.Z+1       CONVERT
      03627  0074 00 1 04355         TSX     NBROUT,1      TO
      03630  0767 00 0 00003         ALS     3             OCTAL
      03631 -0763 00 0 00003         LGL     3
      03632  0602 00 0 04175         SLW     ERC.Z+2
      03633                          CALL    SPRINT,ERC.S,...,14
                                     IFF     1,SPRINT,SPRINT                                                  .001
      03633  0074 00 4 03351         TSX     .SPRNT,4                                                         .001
                                     IFF     0,SPRINT,SPRINT                                                  .001
                                     TSX     $SPRINT,4                                                        .001
                                     IFF     1,...,...                                                        .001
      03634  0 00016 0 04162         PZE     ERC.S,...,14                                                     .001
      03635                          CALL    SPRINT,ERC.AB,...,ERC.AC-ERC.AB
                                     IFF     1,SPRINT,SPRINT                                                  .001
      03635  0074 00 4 03351         TSX     .SPRNT,4                                                         .001
                                     IFF     0,SPRINT,SPRINT                                                  .001
                                     TSX     $SPRINT,4                                                        .001
                                     IFF     1,...,...                                                        .001
      03636  0 00011 0 04201         PZE     ERC.AB,...,ERC.AC-ERC.AB                                         .001
      03637  0074 00 4 03136         TSX     SQUISH,4
      03640  2 00000 0 77673  PARAM  BLK     DIG+1,,**
      03641  0500 00 0 03777         CLA     ERC.A

  BINARY CARD NO. IOH00092
      03642  0601 00 0 77741         STO     REC-1
      03643                          CALL    SPRINT,REC-1,...,RECLEN
                                     IFF     1,SPRINT,SPRINT                                                  .001
      03643  0074 00 4 03351         TSX     .SPRNT,4                                                         .001
                                     IFF     0,SPRINT,SPRINT                                                  .001
                                     TSX     $SPRINT,4                                                        .001
                                     IFF     1,...,...                                                        .001
      03644  0 00026 0 77741         PZE     REC-1,...,RECLEN                                                 .001
      03645 -0500 00 0 00000         CAL     0
      03646  0340 00 0 04200         CAS     LNL3          GET
      03647  0020 00 0 03651         TRA     *+2           LOCATIONS
      03650 -0500 00 0 03307         CAL     NL9           OF
      03651  0402 00 0 04600         SUB     =1
      03652  0621 00 0 77516         STA     TEMP          STR
      03653 -0054 00  200000         LFT     FTNDSW
      03654  0402 00 0 04600         SUB     =1
      03655  0621 00 0 03656         STA     *+1
1            FAP                                                                                 PAGE 83
                           (IOH)     PART V ERROR COMMENTS                     JSMI

      03656 -0500 00 0 00000         CAL     **
      03657  0621 00 0 77531         STA     NL6
      03660 -0765 00 0 00022         LGR     18
      03661 -0754 00 0 00000         ZAC
      03662 -0763 00 0 00003         LGL     3
      03663  0100 00 0 03672         TZE     AO.                                                    MI
      03664  0074 00 1 04354         TSX     ADROUT,1      GET IR OF LIST ELEMENT                   MI
      03665 -0765 00 0 00006         LGR     6                                                      MI

  BINARY CARD NO. IOH00093
      03666 -0500 00 0 04221         CAL     TW4+1                                                  MI
      03667  0771 00 0 00006         ARS     6                                                      MI
      03670 -0763 00 0 00006         LGL     6                                                      MI
      03671  0602 00 0 04221         SLW     TW4+1                                                  MI
      03672 -0500 00 0 77531   AO.   CAL     NL6                                                    MI
      03673  0074 00 1 04354         TSX     ADROUT,1      CONVERT
      03674  0621 00 0 04220         STA     TW4
      03675  0622 00 0 04220         STD     TW4
      03676 -0500 00 0 77516         CAL     TEMP
      03677  0074 00 1 04354         TSX     ADROUT,1
      03700  0621 00 0 04226         STA     TW5
      03701  0622 00 0 04226         STD     TW5
      03702                          CALL    SPRINT,ERC.AA,...,13                                   MI
                                     IFF     1,SPRINT,SPRINT                                                  .001
      03702  0074 00 4 03351         TSX     .SPRNT,4                                                         .001
                                     IFF     0,SPRINT,SPRINT                                                  .001
                                     TSX     $SPRINT,4                                                        .001
                                     IFF     1,...,...                                                        .001
      03703  0 00015 0 04212         PZE     ERC.AA,...,13                                                    .001
      03704  0020 00 0 03524         TRA     PERC.G
                              *
      03705  0634 00 2 77532  ZERBAS SXA     NL5,2
      03706                          CALL    SPRINT,ERC.P,...,10
                                     IFF     1,SPRINT,SPRINT                                                  .001
      03706  0074 00 4 03351         TSX     .SPRNT,4                                                         .001
                                     IFF     0,SPRINT,SPRINT                                                  .001
                                     TSX     $SPRINT,4                                                        .001
                                     IFF     1,...,...                                                        .001
      03707  0 00012 0 04141         PZE     ERC.P,...,10                                                     .001
      03710  0020 00 0 03524         TRA     PERC.G
                              *
      03711  0634 00 2 77532  ERP    SXA     NL5,2
      03712                          CALL    SPRINT,ERC.Q,...,7
                                     IFF     1,SPRINT,SPRINT                                                  .001

  BINARY CARD NO. IOH00094
      03712  0074 00 4 03351         TSX     .SPRNT,4                                                         .001
                                     IFF     0,SPRINT,SPRINT                                                  .001
                                     TSX     $SPRINT,4                                                        .001
                                     IFF     1,...,...                                                        .001
      03713  0 00007 0 04153         PZE     ERC.Q,...,7                                                      .001
      03714  0020 00 0 03524         TRA     PERC.G
                              *
      03715  0522 00 0 01435  TOOLAR XEC     CV2
      03716  0634 00 2 77532         SXA     NL5,2
1            FAP                                                                                 PAGE 84
                           (IOH)     PART V ERROR COMMENTS                     JSMI

      03717                          CALL    SPRINT,ERC.S,...,8
                                     IFF     1,SPRINT,SPRINT                                                  .001
      03717  0074 00 4 03351         TSX     .SPRNT,4                                                         .001
                                     IFF     0,SPRINT,SPRINT                                                  .001
                                     TSX     $SPRINT,4                                                        .001
                                     IFF     1,...,...                                                        .001
      03720  0 00010 0 04162         PZE     ERC.S,...,8                                                      .001
      03721  0020 00 0 03524         TRA     PERC.G
                              *
      03722  0602 00 0 04232  NOVAR  SLW     VR5
      03723  0634 00 2 77532         SXA     NL5,2
      03724                          CALL    SPRINT,ERC.T,...,13
                                     IFF     1,SPRINT,SPRINT                                                  .001
      03724  0074 00 4 03351         TSX     .SPRNT,4                                                         .001
                                     IFF     0,SPRINT,SPRINT                                                  .001
                                     TSX     $SPRINT,4                                                        .001
                                     IFF     1,...,...                                                        .001
      03725  0 00015 0 04227         PZE     ERC.T,...,13                                                     .001
      03726  0020 00 0 03524         TRA     PERC.G
                              *
                       03727  DIMERR SYN     *
      03727  0634 00 2 77532  SUBERR SXA     NL5,2
      03730                          CALL    SPRINT,ERC.U,...,7
                                     IFF     1,SPRINT,SPRINT                                                  .001
      03730  0074 00 4 03351         TSX     .SPRNT,4                                                         .001
                                     IFF     0,SPRINT,SPRINT                                                  .001
                                     TSX     $SPRINT,4                                                        .001
                                     IFF     1,...,...                                                        .001
      03731  0 00007 0 04244         PZE     ERC.U,...,7                                                      .001
      03732  0020 00 0 03524         TRA     PERC.G
                              *
      03733  0634 00 2 77532  MCOM   SXA     NL5,2
      03734                          CALL    SPRINT,ERC.W,...,19
                                     IFF     1,SPRINT,SPRINT                                                  .001
      03734  0074 00 4 03351         TSX     .SPRNT,4                                                         .001
                                     IFF     0,SPRINT,SPRINT                                                  .001
                                     TSX     $SPRINT,4                                                        .001
                                     IFF     1,...,...                                                        .001
      03735  0 00023 0 04253         PZE     ERC.W,...,19                                                     .001

  BINARY CARD NO. IOH00095
      03736  0020 00 0 03524         TRA     PERC.G
                              *
      03737                   EMPTY  CALL    SPRINT,ERC.Y,...,EERC.Y-ERC.Y                        JSMI
                                     IFF     1,SPRINT,SPRINT                                                  .001
      03737  0074 00 4 03351         TSX     .SPRNT,4                                                         .001
                                     IFF     0,SPRINT,SPRINT                                                  .001
                                     TSX     $SPRINT,4                                                        .001
                                     IFF     1,...,...                                                        .001
      03740  0 00012 0 04276         PZE     ERC.Y,...,EERC.Y-ERC.Y                                           .001
      03741  0020 00 0 03524         TRA     PERC.G
                              *
                              *              IOH'S PUSH-DOWN LIST IN ERASABLE OVERLAPSCOMMON        MI
      03742  0634 00 2 77532   PCOL. SXA     NL5,2                                                  MI
      03743                          CALL    SPRINT,ERC.XX,...,N.RCXX                               MI
1            FAP                                                                                 PAGE 85
                           (IOH)     PART V ERROR COMMENTS                     JSMI

                                     IFF     1,SPRINT,SPRINT                                                  .001
      03743  0074 00 4 03351         TSX     .SPRNT,4                                                         .001
                                     IFF     0,SPRINT,SPRINT                                                  .001
                                     TSX     $SPRINT,4                                                        .001
                                     IFF     1,...,...                                                        .001
      03744  0 00021 0 04005         PZE     ERC.XX,...,N.RCXX                                                .001
      03745  0020 00 0 03524         TRA     PERC.G                                                 MI
                              *                                                                     MI
                              ****** ******** RETURN POINTS FROM RECOUP  *************************  MI
      03746 -0500 00 0 00455   ENDFT CAL     TXL           FROM BAD                                 MI
      03747  0630 00 0 00746         STP     RP4           SET UP END OF FORMAT                     MI
      03750  0074 00 4 04320         TSX     .REST,4                                                MI
      03751  0774 00 4 00000   .IR4  AXT     **,4                                                   MI
      03752  0600 00 0 03776         STZ     ERREX                                                  MI
      03753  0500 00 0 04645         CLA     =HHAN 00                                            JSMI
      03754  0601 00 0 04116         STO     ERC.F+5                                             JSMI
      03755  0500 00 0 04636         CLA     =H0 COLU                                            JSMI
      03756  0601 00 0 04117         STO     ERC.F+6                                             JSMI
      03757  0020 00 0 00740         TRA     RPAREN                                                 MI
                              *              FROM BAD2, BAD DATA                                    MI
                       03760   BDDAT SYN     *                                                      MI
      03760  0074 00 4 04320         TSX     .REST,4                                                MI
      03761  0534 00 4 03751         LXA     .IR4,4                                                 MI

  BINARY CARD NO. IOH00096
      03762  0600 00 0 03776         STZ     ERREX                                                  MI
      03763 -0754 00 0 00000         ZAC                   TREAT BAD CHARACTER                      MI
      03764  0020 00 0 02055         TRA     RCVRB         AS A ZERO                                MI
                              *              FROM BAD22, BAD OCTAL DATA                             MI
                       03765   BDOCT SYN     *                                                      MI
      03765  0074 00 4 04320         TSX     .REST,4                                                MI
      03766  0534 00 4 03751         LXA     .IR4,4                                                 MI
      03767  0600 00 0 03776         STZ     ERREX                                                  MI
      03770 -0754 00 0 00000         ZAC                   TREAT BAD CHARACTER                      MI
      03771  0020 00 0 02001         TRA     RCVRA         AS A ZERO                                MI
                              *                                                                     MI
      03772  0 03746 1 00000  HPR01  PZE     0,1,ENDFT                                              MI
      03773  0 03746 1 00006  HPR61  PZE     6,1,ENDFT                                              MI
      03774  0 03760 1 00001  HPR11  PZE     1,1,BDDAT                                              MI
      03775  0 03765 1 00005  HPR51  PZE     5,1,BDOCT                                              MI
                              *                                                                     MI
                              *
      03776  0 00000 0 00000   ERREX PZE                                                            MI
      03777  545454545454     ERC.A  BCI     6,****** ILLEGAL CHARACTER IN FORMAT                 JSMI
      04000  603143432527
      04001  214360233021
      04002  512123632551
      04003  603145602646
      04004  514421636060
      04005  545454545454     ERC.XX BCI     9,****** THE PUSH-DOWN LIST IN SUBROUTINE ERASABLE OVERLA

  BINARY CARD NO. IOH00097
      04006  606330256047
      04007  646230402446
      04010  664560433162
1            FAP                                                                                 PAGE 86
                           (IOH)     PART V ERROR COMMENTS                     JSMI

      04011  636031456062
      04012  642251466463
      04013  314525602551
      04014  216221224325
      04015  604665255143
      04016  476260644747            BCI     8,PS UPPER MEMORY PROGRAM COMMON (OR ERASABLE).        MI
      04017  255160442544
      04020  465170604751
      04021  462751214460
      04022  234644444645
      04023  607446516025
      04024  512162212243
      04025  253433606060
                       00021  N.RCXX EQU     *-ERC.XX                                               MI
      04026  545454545454     ERC.B  BCI     5,****** OFFENDING CHARACTER IS                      JSMI
      04027  604626262545
      04030  243145276023
      04031  302151212363

  BINARY CARD NO. IOH00098
      04032  255160316260
      04033  0 00000 0 00000  CLOC   PZE
      04034  146060744623            BCI     1,'  (OC
      04035  632143606060     OCLOC  BCI     1,TAL
      04036  346060606060            BCI     1,)
      04037  545454545454     ERC.C  BCI     6,****** IT APPEARED IN FORMAT WORD  '               JSMI
      04040  603163602147
      04041  472521512524
      04042  603145602646
      04043  514421636066
      04044  465124606014
      04045  0 00000 0 00000  FWORD  PZE
      04046  146060606060            BCI     1,'
      04047  545454545454     ERC.D  BCI     6,****** WHICH OCCURRED AT LOCATION                 JSMI
      04050  606630312330
      04051  604623236451
      04052  512524602163
      04053  604346232163
      04054  314645606060
      04055  600000000000     FLOC   BCI     1, 00000

  BINARY CARD NO. IOH00099
      04056  545454545454     ERC.K  BCI     6,****** PRESE000000PUT 00000000GE IS                JSMI
      04057  604751256225
      04060  000000000000
      04061  476463600000
      04062  000000000000
      04063  272560316260
      04064  456360466463     OUTP   BCI     1,NT OUT
      04065  456360603145     INPT   BCI     1,NT  IN
      04066  452560314421     OUTPQ  BCI     1,NE IMA
      04067  512460314421     INPTQ  BCI     1,RD IMA
      04070  545454545454      ERC.E BCI     9,****** I/O  STATEMENT  BEGINS AT LOCATION ******.
      04071  603161466060
      04072  626321632544
1            FAP                                                                                 PAGE 87
                           (IOH)     PART V ERROR COMMENTS                     JSMI

      04073  254563606022
      04074  252731456260
      04075  216360434623
      04076  216331464560
      04077  545454545454
      04100  336060606060
      04101  545454545454     ERC.J  BCI     7,****** ILLEGAL CHARACTER ON CARD IN COLUMN         JSMI

  BINARY CARD NO. IOH00100
      04102  603143432527
      04103  214360233021
      04104  512123632551
      04105  604645602321
      04106  512460314560
      04107  234643644445
      04110  0 00000 0 00000  COLNR  PZE
      04111  545454545454     ERC.F  BCI     8,****** FORMAT SPECIFIES MORE THAN 000 COLUMNS       JS
      04112  602646514421
      04113  636062472523
      04114  312631256260
      04115  444651256063
      04116  302145600000
      04117  006023464364
      04120  444562606060
      04121  545454545454     ERC.G  BCI     9,****** ERROR FOUND WHILE PROCESSING FORMAT WORD '  JSMI
      04122  602551514651
      04123  602646644524
      04124  606630314325
      04125  604751462325

  BINARY CARD NO. IOH00101
      04126  626231452760
      04127  264651442163
      04130  606646512460
      04131  146060416244
      04132  0 00000 0 00000         PZE
      04133  545454545454     ERC.M  BCI     6,****** NUMBER NOT IN MACHINE RANGE                 JSMI
      04134  604564442225
      04135  516045466360
      04136  314560442123
      04137  303145256051
      04140  214527256060
      04141  545454545454     ERC.P  BCI     9,****** BASE FOR CONVERSION IS LESS THAN 2 OR GREATER T
      04142  602221622560
      04143  264651602346
      04144  456525516231
      04145  464560316260
      04146  432562626063
      04147  302145600260
      04150  465160275125
      04151  216325516063

  BINARY CARD NO. IOH00102
      04152  302145600111            BCI     1,HAN 19
      04153  545454545454     ERC.Q  BCI     7,****** MORE RIGHT PRENS THAN LEFT PARENS           JSMI
1            FAP                                                                                 PAGE 88
                           (IOH)     PART V ERROR COMMENTS                     JSMI

      04154  604446512560
      04155  513127306360
      04156  475125456260
      04157  633021456043
      04160  252663604721
      04161  512545626060
      04162  545454545454     ERC.S  BCI     9,****** NUMBER EXCEEDS SPECIFIED FIELD WIDTH.   NUMBER
      04163  604564442225
      04164  516025672325
      04165  252462606247
      04166  252331263125
      04167  246026312543
      04170  246066312463
      04171  303360606045
      04172  644422255160
      04173  603162606060     ERC.Z  BCI     5, IS                 (OCTAL)
      04174  606060606060
      04175  606060606060

  BINARY CARD NO. IOH00103
      04176  606074462363
      04177  214334606060
      04200  0 00000 0 03300  LNL3   PZE     NL3+1
      04201  545454545454     ERC.AB BCI     9,****** SAME NUMBER, CONVERTED ACCORDING TO FORMAT, IS
      04202  606221442560
      04203  456444222551
      04204  736023464565
      04205  255163252460
      04206  212323465124
      04207  314527606346
      04210  602646514421
      04211  637360316260
                       04212  ERC.AC SYN     *
      04212  545454545454     ERC.AA BCI     6,****** THE NUMBER CAME FROM LOCATION               JSMI
      04213  606330256045
      04214  644422255160
      04215  232144256026
      04216  514644604346
      04217  232163314645
      04220  600000000000     TW4    BCI     1, 00000
      04221  606321276060            BCI     1, TAG                                                 MI

  BINARY CARD NO. IOH00104
      04222  606531216063            BCI     4, VIA THE STR AT LOCATION
      04223  302560626351
      04224  602163604346
      04225  232163314645
      04226  600000000000     TW5    BCI     1, 00000
      04227  545454545454     ERC.T  BCI     3,****** THE NAME '                                  JSMI
      04230  606330256045
      04231  214425601460
      04232  0 00000 0 00000  VR5    PZE
      04233  146031626045            BCI     9,' IS NOT A FORMAT VARIABLE IN THE CALLING PROGRAM
      04234  466360216026
      04235  465144216360
1            FAP                                                                                 PAGE 89
                           (IOH)     PART V ERROR COMMENTS                     JSMI

      04236  652151312122
      04237  432560314560
      04240  633025602321
      04241  434331452760
      04242  475146275121
      04243  446060606060
      04244  545454545454     ERC.U  BCI     7,****** DIMENSIONING OR SUBSCRIPTING ERROR          JSMI
      04245  602431442545

  BINARY CARD NO. IOH00105
      04246  623146453145
      04247  276046516062
      04250  642262235131
      04251  476331452760
      04252  255151465160
      04253  545454545454     ERC.W  BCI     9,****** MULTIPLE CONVERSIONS SPECIFIED IN SAME FORMAT T
      04254  604464436331
      04255  474325602346
      04256  456525516231
      04257  464562606247
      04260  252331263125
      04261  246031456062
      04262  214425602646
      04263  514421636063
      04264  255144736047            BCI     6,ERM, PROBABLY DUE TO MISSING COMMA O
      04265  514622212243
      04266  706024642560
      04267  634660443162
      04270  623145276023
      04271  464444216046

  BINARY CARD NO. IOH00106
      04272  516022212460            BCI     4,R BAD HOLLERITH COUNT
      04273  304643432551
      04274  316330602346
      04275  644563606060
                       04276  EERC.X SYN     *
      04276  545454545454     ERC.Y  BCI     7,****** LIST NON-EMPTY BUT FORMAT SPECIFIES         JSMI
      04277  604331626360
      04300  454645402544
      04301  476370602264
      04302  636026465144
      04303  216360624725
      04304  233126312562
      04305  604546602346            BCI     3, NO CONVERSIONS
      04306  456525516231
      04307  464562606060
                       04310  EERC.Y SYN     *
                              *                                                                     MI
                              *              .SAVE--SAVE MACHINE CONDITIONS BEFORE GOING            MI
                              *                 TO (EXE), IN CASE OF RETURN VIA RECOUP.             MI
      04310  0634 00 2 04326  .SAVE  SXA     .IR2,2        IOH25998                                 MI
      04311  0634 00 1 04327         SXA     .IR1,1                                                 MI
      04312 -0600 00 0 04331         STQ     .MQSV                                                  MI
      04313  0600 00 0 04332         STZ     .OVFL                                                  MI
1            FAP                                                                                 PAGE 90
                           (IOH)     PART V ERROR COMMENTS                     JSMI

      04314 -0140 00 0 04316         TNO     *+2                                                    MI
      04315 -0625 00 0 04332         STL     .OVFL                                                  MI

  BINARY CARD NO. IOH00107
      04316  0604 00 0 04333         STI     .SIND                                                  MI
      04317  0020 00 4 00001         TRA     1,4                                                    MI
                              *              .REST-- RESTORE MACHINE CONDITIONS FROM .SAVE          MI
      04320 -0500 00 0 04320  .REST  CAL     *                                                      MI
      04321  0767 00 0 00011         ALS     9                                                      MI
      04322 -0520 00 0 04332         NZT     .OVFL                                                  MI
      04323  0140 00 0 04324         TOV     *+1                                                    MI
      04324  0441 00 0 04333         LDI     .SIND                                                  MI
      04325  0560 00 0 04331         LDQ     .MQSV                                                  MI
      04326  0774 00 2 00000   .IR2  AXT     **,2                                                   MI
      04327  0774 00 1 00000   .IR1  AXT     **,1                                                   MI
      04330  0020 00 4 00001         TRA     1,4                                                    MI
      04331  0 00000 0 00000  .MQSV                                                                 MI
      04332  0 00000 0 00000  .OVFL                                                                 MI
      04333  0 00000 0 00000  .SIND                                                                 MI
                              *                                                                     MI
                              *NROUT  CONVERTS ONE-WORD BINARY TO BCD WITH LEADING ZEROES           MI
                              *              SUPPRESSED.  ENTRY WITH BINARY                         MI
                              *                            IN AC, OUT WITH BCD CENTRALIZED IN AC.
                              *
      04334  0131 00 0 00000  NROUT  XCA
      04335 -0754 00 0 00000         ZAC
      04336  0221 00 0 77507         DVP     BASE
      04337  0767 00 0 00014         ALS     12
      04340  0602 00 0 77516         SLW     TEMP
      04341 -0754 00 0 00000         ZAC

  BINARY CARD NO. IOH00108
      04342  0221 00 0 77507         DVP     BASE
      04343  0767 00 0 00022         ALS     18
      04344 -0602 00 0 77516         ORS     TEMP
      04345  0131 00 0 00000         XCA
      04346 -0100 00 0 04350         TNZ     *+2
      04347 -0500 00 0 04622         CAL     =H00000
      04350  0767 00 0 00030         ALS     24
      04351 -0501 00 0 77516         ORA     TEMP
      04352 -0501 00 0 04647         ORA     =H 000
      04353  0020 00 1 00001         TRA     1,1
                              *
                              *                            NBROUT,ADROUT  CONVERT BINARY
                              *                            ADDRESSES TO OCTAL
                              *                            EXIT WITH RESULT IN ACCUMULATOR
                              *
      04354 -0765 00 0 00017  ADROUT LGR     15            CONVERT
      04355 -0754 00 0 00000  NBROUT ZAC
      04356  0774 00 4 00005         AXT     5,4           WORD
      04357  0767 00 0 00003         ALS     3             LOCATION
      04360 -0763 00 0 00003         LGL     3             TO
      04361  2 00001 4 04357         TIX     *-2,4,1       BCD
      04362  0020 00 1 00001         TRA     1,1
                              *              SAVMC AND RSTMC                                        MI
1            FAP                                                                                 PAGE 91
                           (IOH)     PART V ERROR COMMENTS                     JSMI

                       04363   SVMC  SYN     *      4                                               MI
      04363  0634 00 4 04405         SXA     SVI4,4                                                 MI
      04364  0634 00 1 04424         SXA     IR1,1                                                  MI
      04365  0634 00 2 04425         SXA     IR2,2                                                  MI

  BINARY CARD NO. IOH00109
      04366  0604 00 0 77512         STI     USISV                                                  MI
      04367  0600 00 0 04432         STZ     OVIND                                                  MI
      04370 -0140 00 0 04372         TNO     *+2                                                    MI
      04371 -0625 00 0 04432         STL     OVIND         OVERFLOW LIGHT ON                        MI
      04372  0634 00 3 04423         SXA     IR3,3                                                  MI
      04373  0774 00 1 00000         AXT     0,1                                                    MI
      04374  0774 00 3 00001         AXT     1,3                                                    MI
      04375  0600 00 0 04433         STZ     3TAGM                                                  MI
      04376  3 00000 1 04400         TXH     *+2,1,0                                                MI
      04377 -0625 00 0 04433         STL     3TAGM         IN 7 TAG MODE                            MI
      04400 -0760 00 0 00016         EMTM                                                           MI
      04401 -0500 00 0 00010         CAL     8                                                      MI
      04402  0602 00 0 04434         SLW     8SAVE                                                  MI
      04403 -0500 00 0 00000         CAL     0                                                      MI
      04404  0602 00 0 04435         SLW     OSAVE                                                  MI
      04405  0774 00 4 00000   SVI4  AXT     **,4                                                   MI
      04406  0020 00 4 00001         TRA     1,4                                                    MI
                              *                                                                     MI
                       04407   RSTMC SYN     *                                                      MI
      04407  0634 00 4 04427         SXA     SVI41,4                                                MI
      04410 -0500 00 0 04410         CAL     *             TURN ON                                  MI
      04411  0767 00 0 00014         ALS     12            OVERFLOW LIGHT                           MI

  BINARY CARD NO. IOH00110
      04412 -0520 00 0 04432         NZT     OVIND                                                  MI
      04413  0140 00 0 04414         TOV     *+1                                                    MI
      04414 -0500 00 0 04434         CAL     8SAVE                                                  MI
      04415  0602 00 0 00010         SLW     8                                                      MI
      04416 -0500 00 0 04435         CAL     OSAVE                                                JSMI
      04417  0602 00 0 00000         SLW     0                                                    JSMI
      04420  0760 00 0 00016         LMTM                                                           MI
      04421 -0520 00 0 04433         NZT     3TAGM                                                  MI
      04422 -0760 00 0 00016         EMTM                  IN 3 TAG MODE                            MI
      04423  0774 00 3 00000   IR3   AXT     **,3                                                   MI
      04424  0774 00 1 00000   IR1   AXT     **,1                                                   MI
      04425  0774 00 2 00000   IR2   AXT     **,2                                                   MI
      04426  0441 00 0 77512         LDI     USISV                                                  MI
      04427  0774 00 4 00000  SVI41  AXT     **,4                                                   MI
      04430  0020 00 4 00001         TRA     1,4                                                    MI
      04431  0 00000 0 00000   2SAVE                                                                MI
      04432  0 00000 0 00000   OVIND                                                                MI
      04433  0 00000 0 00000   3TAGM                                                                MI
      04434  0 00000 0 00000   8SAVE                                                                MI
      04435  0 00000 0 00000   OSAVE                                                                MI
                              *                                                                     MI
                       04436  SVMC1  SYN     *                                                      MI
1            FAP                                                                                 PAGE 92
                           (IOH)     PART V ERROR COMMENTS                     JSMI

  BINARY CARD NO. IOH00111
      04436  0600 00 0 77513         STZ     SL2SV                                                  MI
      04437 -0760 00 0 00142         SLT     2                                                      MI
      04440 -0625 00 0 77513         STL     SL2SV                                                  MI
      04441  0020 00 4 00001         TRA     1,4                                                    MI
                              *                                                                     MI
      04442 -0520 00 0 77513  RSTMC1 NZT     SL2SV                                                  MI
      04443  0760 00 0 00142         SLN     2                                                      MI
      04444  0020 00 4 00001         TRA     1,4                                                    MI
1            FAP                                                                                 PAGE 93
                           (IOH)     PART VI CONSTANTS                         JSMI

                                     TTL     (IOH)     PART VI CONSTANTS                         JSMI


                                     SPACE   15                                                     MI
                              **********************************************************************MI
                              **********************************************************************MI
                              **                                                                   **
                              **                                                                   **
                              **                        P A R T   V I                              **
                              **                                                                   **
                              **                      C O N S T A N T S                            **
                              **                                                                   **
                              **                                                                   **
                              ***********************************************************************
                              ***********************************************************************
1            FAP                                                                                 PAGE 94
                           (IOH)     PART VI CONSTANTS                         JSMI

                                     EJECT
      04445 -007400403541     MCCON  OCT     407400403541
      04446 +233000000000     CONST  OCT     233000000000
      04447 +112402762000            DEC     10000000000,10,100,1000,10000,100000,1000000,10000000
      04450 +000000000012
      04451 +000000000144
      04452 +000000001750
      04453 +000000023420
      04454 +000000303240
      04455 +000003641100
      04456 +000046113200
      04457 +000575360400            DEC     100000000,1000000000
      04460 +007346545000
                       04461  PITEN  SYN     *
      04461 +344413241536            OCT     344413241536                 DOUBLE

  BINARY CARD NO. IOH00112
      04462 +377454732312            OCT     377454732312     1E38        PRECISION
      04463 +340653551060            OCT     340653551060                 POWERS
      04464 +373741367020            OCT     373741367020     1E37        OF
      04465 +335674440700            OCT     335674440700                 TEN
      04466 +370601137163            OCT     370601137163     1E36
      04467 +332543515400            OCT     332543515400
      04470 +365464114134            OCT     365464114134     1E35
      04471 +326554174001            OCT     326554174001
      04472 +361755023372            OCT     361755023372     1E34
      04473 +323443311464            OCT     323443311464
      04474 +356612334310            OCT     356612334310     1E33
      04475 +320202556052            OCT     320202556052
      04476 +353473426555            OCT     353473426555     1E32
      04477 +314004260104            OCT     314004260104
      04500 +347770675742            OCT     347770675742     1E31
      04501 +311320214720            OCT     311320214720
      04502 +344623713116            OCT     344623713116     1E30
      04503 +306563327100            OCT     306563327100
      04504 +341503074076            OCT     341503074076     1E29
      04505 +303617422401            OCT     303617422401

  BINARY CARD NO. IOH00113
      04506 +336402374713            OCT     336402374713     1E28
      04507 +277177204002            OCT     277177204002
      04510 +332635456171            OCT     332635456171     1E27
      04511 +274631003150            OCT     274631003150
      04512 +327512676455            OCT     327512676455     1E26
      04513 +271024002440            OCT     271024002440
      04514 +324410545213            OCT     324410545213     1E25
      04515 +265354635550            OCT     265354635550
      04516 +320647410336            OCT     320647410336     1E24
      04517 +262760512755            OCT     262760512755
      04520 +315522640261            OCT     315522640261     1E23
      04521 +257446725444            OCT     257446725444
      04522 +312417031701            OCT     312417031701     1E22
      04523 +253561357240            OCT     253561357240
      04524 +306661534465            OCT     306661534465     1E21
      04525 +250132614200            OCT     250132614200
1            FAP                                                                                 PAGE 95
                           (IOH)     PART VI CONSTANTS                         JSMI

      04526 +303532743536            OCT     303532743536     1E20
      04527 +245110475000            OCT     245110475000
      04530 +300425434430            OCT     300425434430     1E19
      04531 +241647310000            OCT     241647310000

  BINARY CARD NO. IOH00114
      04532 +274674055531            OCT     274674055531     1E18
      04533 +236354240000            OCT     236354240000
      04534 +271543212741            OCT     271543212741     1E17
      04535 +233760200000            OCT     233760200000
      04536 +266434157115            OCT     266434157115     1E16
      04537 +227432000000            OCT     227432000000
      04540 +262706576511            OCT     262706576511     1E15
      04541 +224510000000            OCT     224510000000
      04542 +257553630407            OCT     257553630407     1E14
      04543 +221240000000            OCT     221240000000
      04544 +254443023471            OCT     254443023471     1E13
      04545 +215400000000            OCT     215400000000
      04546 +250721522450            OCT     250721522450     1E12
      04547 +212000000000            OCT     212000000000
      04550 +245564416672            OCT     245564416672     1E11
      04551 +207000000000            OCT     207000000000
      04552 +242452013710            OCT     242452013710     1E10
      04553 +203000000000            OCT     203000000000
      04554 +236734654500            OCT     236734654500     1E 9
      04555 +200000000000            OCT     200000000000

  BINARY CARD NO. IOH00115
      04556 +233575360400            OCT     233575360400     1E 8
      04557 +175000000000            OCT     175000000000
      04560 +230461132000            OCT     230461132000     1E 7
      04561 +171000000000            OCT     171000000000
      04562 +224750220000            OCT     224750220000     1E 6
      04563 +166000000000            OCT     166000000000
      04564 +221606500000            OCT     221606500000     1E 5
      04565 +163000000000            OCT     163000000000
      04566 +216470400000            OCT     216470400000     1E 4
      04567 +157000000000            OCT     157000000000
      04570 +212764000000            OCT     212764000000     1E 3
      04571 +154000000000            OCT     154000000000
      04572 +207620000000            OCT     207620000000     1E 2
      04573 +151000000000            OCT     151000000000
      04574 +204500000000            OCT     204500000000     1E 1
      04575 +000000000000            OCT     000000000000
      04576 +201400000000     PWRTEN OCT     201400000000     1E 0
                              *                                                                     MI


                                     SPACE   3
                              *              END OF . IOH                                           MI
                                     END
1            FAP                                                                                 PAGE 96
                           (IOH)     PART VI CONSTANTS                         JSMI

        LITERALS
      04577  000000000000
      04600  000000000001
      04601  000000000004

  BINARY CARD NO. IOH00116
      04602  000000000006
      04603  000000000007
      04604  000000000010
      04605  000000000011
      04606  000000000012
      04607  000000000016
      04610  000000000020
      04611  000000000024
      04612  000000000025
      04613  000000000031
      04614  000000000033
      04615  000000000034
      04616  000000000037
      04617  000000000040
      04620  000000000044
      04621  000000000051
      04622  000000000060
      04623  000000000064
      04624  000000000074
      04625  000000000200

  BINARY CARD NO. IOH00117
      04626  000000000233
      04627  000000001000
      04630  000000077777
      04631  000001000000
      04632  000002000000
      04633  000003000000
      04634  000022000000
      04635  000777777777
      04636  006023464364
      04637  115040465025
      04640  140000000000
      04641  146060606060
      04642  233000000000
      04643  252000000000
      04644  300000777777
      04645  302145600000
      04646  600000000000
      04647  600000006060
      04650  606060601400
      04651  606060606060

  BINARY CARD NO. IOH00118
      04652  777777770000
1            FAP                                                                                 PAGE 1
                        POST PROCESSOR ASSEMBLY DATA

       77477 IS THE LAST LOCATION NOT USED BY THIS PROGRAM
       4653 IS THE FIRST LOCATION NOT USED BY THIS PROGRAM

0REFERENCES TO DEFINED SYMBOLS
       3363      A  3355
       3360      B  3353, 3356, 3363, 3364, 3367, 3372
       3371      C  3365
         16      N  3355, 3366, 3371, 3373
       3411     BC  3572
       1616     BI  1630
        625     C1   623
       3335     C2  3330
      77510     CC    10,  320,  512,  514,  517,  523,  560,  561,  601,  604,  611, 1033, 1233, 1340, 1342, 1646, 1663
                    2256, 2357, 2614, 2616, 2664, 2700, 2742, 2746, 3335, 3336
        655     I1   666,  670,  676,  700
        656     I2   645
       1573     MI  1603
       2141     PD  2066
        620     S1   600,  606
        616     S2   607
        607     S3   617
       1561     SI  1552, 1554, 1605
        564     T1   556
       1566     WI
       3361     X4  3351
       3672    AO.  3663
       3373    BAD   411,  412,  413,  416,  420,  424,  431,  432,  433,  435,  436,  440,  447,  451,  452,  453,  456
                     471,  472,  473,  475,  476, 1317
        546    BAS   466
        672    BCD   465
        537    BIZ   422
       3337    CC1  3326, 3332
      77741    COL    10,  270,  274,  276, 3067, 3511
       1436    CV1  1346
       1435    CV2  1347, 1370, 3561, 3573, 3616, 3715
       1434    CV4  1350, 1523
       1405    CV5  1427
       1356    CV6  1525
       1426    CV7  1404
       1403    CV8  1377
       2021    DBC  1401
      77672    DIG    10, 1634, 1640, 1653, 1660, 1670, 2510, 2512, 2515, 2516, 2517, 2524, 3605, 3610, 3640
        522    DIR   262
       1005    DN1   772
       2161    ECH
       3124    ERK  3454
       3711    ERP   745
        624    FFN   326,  327,  551,  567,  656
       3202    FL3  3173
       3200    FL5  3174
       2452    FL6  2447
       2455    FL7
       2471    FL8  2462
       2475    FL9  2466, 2467, 2470
1            FAP                                                                                 PAGE 2
                        POST PROCESSOR ASSEMBLY DATA

      77737    FMT    10,  260
       1040    HL1   374
       1037    HL2  1061, 1066
       1042    HL3  1064
       1052    HL4  1104
       1102    HL5  1077
        305    IO1   273
       1536    IOC  1530
       4424    IR1  4364
       4425    IR2  3261, 4365
       4423    IR3  4372
       3230    IR4   243, 3175, 3204, 3237, 3276, 3306, 3315
          0    ...    10, 3410, 3422, 3425, 3434, 3451, 3463, 3472, 3523, 3534, 3571, 3576, 3634, 3636, 3644, 3703, 3707
                    3713, 3720, 3725, 3731, 3735, 3740, 3744
      77523    LOC    10, 1131, 1170
        726    LP1   733,  737
      10000    LTR   240,  417,  420,  421,  422,  423,  424,  425,  426,  437,  440,  441,  442,  443,  444,  445,  446
                     447,  455,  457,  460,  461,  462,  463,  464,  465,  466,  467
       2150    MNS  2065
      20000    NBR   240,  477,  500,  501,  502,  503,  504,  505,  506,  507,  510
        365    NDX   354
       3321    NL1  3243
       3310    NL2  3251, 3264
       3277    NL3  3254, 3274, 3300, 4200
       3322    NL4  3223
      77532    NL5    10, 1003, 1173, 1206, 1457, 1471, 3255, 3260, 3263, 3402, 3426, 3510, 3524, 3562, 3574, 3617, 3705
                    3711, 3716, 3723, 3727, 3733, 3742
      77531    NL6    10, 3257, 3302, 3657, 3672
       3265    NL7  3262
       3304    NL8  3270
       3307    NL9  3272, 3650
       3220    NLE  1005, 1356, 1432, 2324, 2535
        511    NUM   477,  500,  501,  502,  503,  504,  505,  506,  507,  510
       1720    OD1  1674, 1703, 1727
       1711    OD4  1701, 1734
       1705    OD5
       1726    OD8  1711
       1731    OD9  1707
       3347    OPN  3342
       3445    P.K  3441
       2145    PLS  2072, 2163
      77742    REC    10, 3074, 3120, 3153, 3164, 3167, 3461, 3463, 3642, 3644
       1762    RET  1757, 1767, 1772, 2006
        770    RP1   746
        747    RP3   770
        746    RP4   265,  332,  362, 3747
        755    RP5  1026
      77740    RTN    10,  345, 3464
       1605    SI2  1547
       1567    SI3  1746, 2731
       3156    SQ2  3137
       3155    SQ4  3136, 3171
       3145    SQ5  3154
       3146    SQ6  3152
       3160    SQ7  3151
1            FAP                                                                                 PAGE 3
                        POST PROCESSOR ASSEMBLY DATA

       3164    SQ8  3160
       3170    SQ9  3166
       1305    SR4  1265
       1544    STD  1747
        226    SUM   236, 1363, 1364, 1760, 2002, 2005, 2013, 2014, 2026, 2030, 2123, 2130, 2145, 2150, 2205, 2206, 2212
                    2217, 2222, 2226, 2232, 2244, 2245, 2246, 2270, 2271, 2302, 2303, 2304, 2310, 2314, 2315, 2316, 2320
                    2325, 2331, 2333, 2343, 2345, 2370, 2371, 2374, 2375, 2376, 2421, 2424, 2425, 2431, 2555, 2563, 2566
                    2575, 2576, 2601, 2603, 2605, 2611, 2657, 2661, 2712, 2763, 2764, 2772, 3001, 3032, 3043
        234    TMP
        550    TRA   425
       3610    TW1  3614, 3615
       3603    TW2  3606
       3607    TW3  3601
       4220    TW4  3666, 3671, 3674, 3675
       4226    TW5  3700, 3701
        455    TXL   240,  361, 3746
      77736    VEC    10, 1537, 1556, 1575, 1601, 1617, 1623, 1702, 3604
       1240    VR3  1123, 1124
       1277    VR4  1271, 1302, 1304
       4232    VR5  3722
       1171    VR6  1130
       1132    VR7  1164
       1122    VR8  1244
       1245    VR9  1135
        671   ABCD   467
         40   ADSW   240, 1117, 1134, 1140, 1163, 1246
        232   ASWT   321,  671, 1444
       3536   BAD2  2061, 2063, 2142, 2160, 2162
      77507   BASE    10,  325,  547, 1352, 1531, 1622, 2035, 2043, 2124, 2165, 2415, 2442, 2514, 3033, 4336, 4342
       1465   BCD1  1441, 1506, 1520
       1477   BCD2  1451
       1506   BCD4  1501
       1513   BCD5  1517
       1461   BCD6  1464
        316   BETA   254,  304,  307,  622,  754,  767, 1001, 1014, 1106, 3050
        633   CETD   423
      77522   CHAR    10,  376,  516,  575, 1242, 1252, 1261, 2001, 2004, 2101, 2126, 2167
       4033   CLOC  3413
       1366   CV10  1360
       1431   CV11  1362
       2232   DBC5  2204
       2241   DBC6  2231, 2235
       2251   DBC7
       2312   DBC8  2277
       2262   DBC9  2351, 2402, 2405
         10   DDSW   240,  525, 1431, 2227, 2266, 2300, 2307, 2312, 2322, 2366, 2372, 2534, 2567, 2621, 2735, 2761, 2767
                    2776, 3621
          2   DFDP  2313, 2373, 2777
          1   DFMP  2301, 2770
      77525   DIM1    10, 1116, 1157, 1166, 1204, 1210, 1215
      77526   DIM2    10, 1167, 1216
        366   DIRQ   263
       1002   DONE   434
        631   DONT   443
      10000   EDSW   240,  552,  570,  635,  641,  646,  650,  652,  662,  672, 1030, 1400, 1410, 1414, 1416, 2672
1            FAP                                                                                 PAGE 4
                        POST PROCESSOR ASSEMBLY DATA

       2446   EOUT  1417
      77501   ERAS    10,  343,  344,  715,  717,  721,  722,  723,  747,  751,  755, 1013, 1020, 1025
      77520   ESUM    10, 2031, 2164, 2170, 2174, 2177, 2251, 2377, 2450, 2461, 2477, 2502, 2504, 2506, 2523, 2540, 2765
       1735   EVEN  1533, 1740
       1743   EVN2  1425
      20000   FDSW   240,  552,  570,  635,  637,  641,  643,  646,  652,  662,  672, 1030, 1400, 1407, 1420, 2674
       3207   FL10   267
       2501   FL3A
       2510   FL4A  2505
       2503   FL5A  2451
       4055   FLOC  3431, 3432
       2522   FOUT  1421
        301   FSW2   264
       2067   FTN.  2121
     400000   GDSW   240,  552,  570,  635,  637,  641,  646,  652,  662,  672, 1030, 1405, 1672
       1067   HLIN  1050
       1027   HOLL   460
       4065   INPT  3442
       1645   INT2  2710, 2714
       1610   INT3  1542, 1543, 1545, 2732
       1546   INT4  2734
       3134   IOT1  3113
       3133   IOT2  3112
       3107   IOT4  3054, 3111
       3105   IOT7  3076, 3135
       3120   IOT8  3130
       3122   IOT9  3127
        243   .IOH
       4327   .IR1  4311
       4326   .IR2  4310
       3751   .IR4  3373, 3401, 3502, 3536, 3542, 3552, 3761, 3766
        527   LADJ   445
          4   LDSW   240,  527,  533,  665,  675,  677, 1716, 2007
       4200   LNL3  3646
       1115   MASK  1067, 1115
       3733   MCOM   553,  571,  636,  642,  647,  653,  663,  673, 1031
      20000   MDSW   240,  627, 1655
        233   MODE  1200, 1226, 3547, 3560, 3563
      77511   MULT    10,  323,  574,  605,  660,  706,  711,  714,  727, 1343, 3333
     100000   NDSW   240,  631, 3075, 3200
        520   NEXT   336,  402,  410,  430,  470,  526,  531,  534,  536,  540,  555,  577,  630,  632,  634,  661,  730
                     777, 1037, 1237, 1311, 3327
       3274   NL10  3304
       3305   NL11  3303
       3232   NL12   266
       3235   NL13  3232
       3323   NL22  3224
       3275   NL3.  3273
       3350   NOPN  3344
       2101   NUMB
       2007   OCN2  1762
       2014   OCN3  2010, 2326, 2342
       1671   OD10  1667
       4064   OUTP  3435
       2406   PACK  2200
1            FAP                                                                                 PAGE 5
                        POST PROCESSOR ASSEMBLY DATA

       2420   PCK1  2441
       2433   PCK2  2416, 2417
       2436   PCK3  2433, 2443
       2442   PCK4  2436
       2445   PCK5  2422
       2432   PCK6  2413
      77506   PREC    10,  316, 1022, 1023, 1024, 1043, 1065, 1546, 2725
        532   RADJ   437
          2   RDSW   240,  530,  532,  665,  667,  675, 1446, 1452, 1467, 1500, 1511, 2607, 2626, 2627
      77530   SAVE    10
       2776   SCL2  2766
       3003   SCL3  2760, 2774
       1574   SHFT  1743, 2727
        566   SKIP   421,  426
       3054   SPIT  3201
       3147   SQ10  3142
       1534   STDD  1742
      30000   STOP   240,  474
       4405   SVI4  4363
       1630   SVIR  1612
       4363   SVMC   245, 3176, 3240, 4363
       2544   TAGN  2550
      77516   TEMP    10, 2263, 2276, 2353, 2404, 3031, 3035, 3040, 3045, 3652, 3676, 4340, 4344, 4351
      77527   TEST    10, 1613, 1625, 1642
        556   TRAF   550
       1332   TRAL  1321, 1332
       1307   TYPE  1122, 1133, 1324
      40000   VDSW   240,  633, 1635
       1133   VR10  1254, 1264
       1153   VR11  1141
       1255   VR12  1247
       1221   VR13  1177, 1212, 1214, 1223
       1212   VR14  1203
       1224   VR15  1205, 1211
       1222   VR16  1217
       1233   VR17  1227
       1147   VR18  1144
       1165   VR66  1156
          1   ZDSW   240,  535, 1032, 1040, 1062, 1455, 2530, 2707, 2741, 2750
        535   ZERO   417
       4431  2SAVE   247, 3205, 3212
       4433  3TAGM  4375, 4377, 4421
       4434  8SAVE  4402, 4414
       1613  AGAIN  1643
        310  ALPHA
       3551  BAD22  1777, 2000
       1441  BCDIO  1375
       3760  BDDAT  3760, 3774
       3765  BDOCT  3765, 3775
        345  BEGIN
       2157  BTEST  2074, 2075
        100  CCDSW   240,  511, 1034, 1042, 1063, 1234, 3334, 3340
       3325  CCUSE   542,  544,  546
        375  CHAR4   356,  360,  364
       4110  COLNR  3567
1            FAP                                                                                 PAGE 6
                        POST PROCESSOR ASSEMBLY DATA

        623  COMMA   701,  740, 1002
       4446  CONST  2233, 2240
       1522  COUNT  1345, 1433, 1476, 1524, 1730, 2020, 2323
       2272  DBC16
       2343  DBC37  2330
       2334  DBC38  2346
       2233  DBC5A  2207
       2172  DBETA  2052
       2347  DBFPT  2274
       2327  DBINT  2202
      77514  DGSKP    10, 2033, 2112, 2114, 2250, 2354
        525  DPREC   464
       2000  EFDSW   240, 1563, 2532
       3737  EMPTY  1010
       3746  ENDFT  3772, 3773
       3777  ERC.A  3410, 3460, 3641
       4026  ERC.B  3422
       4037  ERC.C  3425
       4047  ERC.D  3434
       4070  ERC.E  3470, 3472
       4111  ERC.F  3517, 3521, 3523, 3754, 3756
       4121  ERC.G  3531, 3532, 3534
       4101  ERC.J  3571
       4056  ERC.K  3445, 3446, 3447, 3451
       4133  ERC.M  3576
       4141  ERC.P  3707
       4153  ERC.Q  3713
       4162  ERC.S  3634, 3720
       4227  ERC.T  3725
       4244  ERC.U  3731
       4253  ERC.W  3735
       4276  ERC.Y  3740
       4173  ERC.Z  3626, 3632
       3776  ERREX   251, 3376, 3473, 3505, 3541, 3555, 3752, 3762, 3767
       3457  ERRPT   272, 3452, 3455
        646  ESPEC   463
       2403  ETES1  2352, 2360, 2363
       2350  ETEST  2261
        644  FECHK   640,  651
       2526  FOUT2  2521
       2735  FOUT3  2537
       2554  FOUT4  2543
       2551  FOUT5  2544
       2602  FOUT7  2570
       2657  FOUT8  2663
       2603  FOUT9  2606
       3027  FRACT  2623, 2635, 2752
        641  FSPEC   462
       2116  FTNCK  2064
       4045  FWORD  3406
        635  GSPEC   461
       3772  HPR01  3375
       3774  HPR11  3540
       3775  HPR51  3554
       3773  HPR61  3504
1            FAP                                                                                 PAGE 7
                        POST PROCESSOR ASSEMBLY DATA

          1  HTDSW   240,  377, 1120, 1236
        213  IMAGE   312, 3056, 3101, 3457
        204  IMLEN    10,  311, 3056, 3100
       3051  INOUT  1011
       4067  INPTQ  3443
       1655  INT44  1645, 1651
        652  INTGR   457
       3126  IOT11   275
       3131  IOT12  3126
       4331  .MQSV  4312, 4325
       4332  .OVFL  4313, 4315, 4322
       4320  .REST  3750, 3760, 3765
       4310  .SAVE  3374, 3503, 3537, 3553
       4333  .SIND  4316, 4324
          4  KODSW   240, 1553, 1600, 1606, 1744, 3600
        346  LKLP1   366
        350  LKLP2   365
        734  LPOFF   704
       4445  MCCON   257
        523  MINUS   450
       1062  MSTBK  1041
        517  NEXTB   524
       3722  NOVAR  1303
       4334  NROUT  3513, 3566
        367  NXTWD   522
       4035  OCLOC  3420
        662  OCTAL   442,  446
       1754  OCTIN  1402
       4435  OSAVE  4404, 4416
       4066  OUTPQ  3436
       1105  OUTTT  1045, 1057
       4432  OVIND  4367, 4371, 4412
       3640  PARAM  3607
       3742  PCOL.   710
      77503  PDPTR    10,  342,  707,  725,  743,  753,  757
       4461  PITEN  2444, 4461
      77517  PTCTR    10, 2032, 2104, 2107, 2254, 2355
        400  PTDSW   240,  541, 1333, 2021, 2105, 2141, 2143, 2255, 2356
       1662  PUTIN  1656, 1661
       1475  RADJT  1470
       2001  RCVRA  3771
       2055  RCVRB  3764
       4407  RSTMC  3202, 3227, 3275, 3305, 3314, 4407
      77505  SCALE    10,  250,  334,  545, 2253, 2501, 2522
        544  SCFAC   441
       3012  SHFT2  3023
       3022  SHFT3  3013
       3024  SHFT4  3014, 3016, 3017
       3015  SHFT5  3021
       3005  SHIFT  2557, 2571
        562  SIZE1   271,  614, 1053, 1372
       1676  SIZSW  1733, 3345
        600  SKIPF   566
      77513  SL2SV    10, 4436, 4440, 4442
        701  SLASH   427
1            FAP                                                                                 PAGE 8
                        POST PROCESSOR ASSEMBLY DATA

       3111  SLURP   306, 3053
       4000  SPDSW   240, 2531, 2715, 2756
       1754  STAMT  1745, 1754
      77771  STLOC    10, 1266, 1270
      40000  STOPN   240,  454
       3234  STORE   255,  256, 1562, 2721, 2722, 3310, 3311, 3316
        304  STQSW   241,  340
        240  STQUO     0
       4427  SVI41  4407
       4436  SVMC1   244, 4436
      77521  TBASE    10, 2041, 2073
       1312  TYPE2   400
       1320  TYPE4  1307
      77512  USISV    10, 3235, 4366, 4426
        230  VALUE   235, 1411, 1426, 1475, 1477, 1526, 1534, 1551, 1644, 2017, 2321, 2446, 2463, 2471, 2526, 2527, 2536
                    2560, 2572, 2671, 2736, 2771, 2773, 3000, 3002, 3225, 3321, 3620, 3622
       1304  VRFND  1301
          3  WRFLX  3357
       3175  (FIL)     0
        243  (IOH)     0,  243
       3212  (RTN)     0, 3212
       4354 ADROUT  3430, 3466, 3664, 3673, 3677
       3561 BAD22X  3550
       2051 BALPHA  2047, 2136, 2140, 2434
       1000 BCDDSW   240,  552,  570,  635,  641,  646,  652,  662,  672,  674, 1030, 1374
         10 BIMAGE  1051, 1072, 1462, 1515, 1724, 1763, 2053, 3124
        200 BIZDSW   240,  537, 1403
       3331 CCTRST   557,  573,  657,  705
      10000 CNVDSW   240,  277, 1007, 1355
       1333 CNVRT2   644
       1336 CNVRT3   655, 1335
        622 COMMA2   415,  576
       1343 CONVRT  1334, 1337
       2052 DALPHA  2025, 2115, 2117, 2132, 2133, 2144, 2147, 2153, 2156, 2171, 2172
       2047 DBC24A
       2320 DBCZER  1365, 2247, 2311
        400 DGSDSW   240, 2022, 2110, 2137
        135 DIGLEN    10, 1631
       3727 DIMERR  1161, 3727
         20 DM2DSW   240, 1117, 1160, 1162, 1165, 1202
       4276 EERC.X  4276
       4310 EERC.Y  3740, 4310
         10 ENDDSW   240, 1117, 1125, 1127, 1136, 1155
      77760 ERASRR    10,  710
       4212 ERC.AA  3703
       4201 ERC.AB  3636
       4212 ERC.AC  3636, 4212
       4005 ERC.XX  3744, 4026
       3500 EXEIR4  3474, 3477
       3501 EXENUM  3400, 3476, 3507, 3546, 3557
         20 EXPDSW   240, 2021, 2102, 2146, 2154, 2161, 2252, 2350
       2164 EXPSUM  2103
         40 EXSDSW   240, 2021, 2155, 2175, 2350
      77502 FIELDW    10,  317,  543, 1036, 1056, 1060, 1336, 1341, 1357, 1442, 1453, 1675, 1706, 1714, 1731, 3347
      40000 FIRDSW   240,  303,  335,  341,  520, 1012, 1015
1            FAP                                                                                 PAGE 9
                        POST PROCESSOR ASSEMBLY DATA

        627 FLDSGN   444
          2 FOFDSW   240,  277,  403,  703,  732,  741, 1000
       2704 FOU23.  2677
       2707 FOU24.  2675, 2676, 2707
       3032 FOUT11  3044
       2742 FOUT12  2615
       2634 FOUT13  2631
       2624 FOUT14  2520, 2525, 2633, 2642, 2650, 2652, 2670, 2702, 2706, 2744
       3030 FOUT15  2613
       3046 FOUT16  3027
       2623 FOUT17  2630, 2634
       2664 FOUT18  2640, 2641, 2651, 2747
       2642 FOUT19  2654
       2654 FOUT20  2617
       2671 FOUT21  2665, 2751, 2757
       2540 FOUT22  2740
       2652 FOUT24  2644
       2655 FOUT25  2754
     200000 FTNDSW   240,  300,  302, 1527, 2116, 2337, 3242, 3653
      77461 HIGHCM    10
        100 HOLDSW   240,  373, 1027, 1105
      60000 IGNORE   240,  430
          0 ILCHAR   240
       3050 INOUT2   702
       4000 INTDSW   240,  552,  570,  635,  641,  646,  652,  654,  662,  672, 1030, 1400, 1407, 1415, 1422, 1650, 2062
                    2201
       1526 INTOUT  1423
       3237 INYCOM   237, 3237
        237 INYTTR   252
       3342 IOHSIZ     0
          0 . 3311  1220
       3351 .SPRNT  3351, 3407, 3421, 3424, 3433, 3450, 3462, 3471, 3522, 3533, 3570, 3575, 3633, 3635, 3643, 3702, 3706
                    3712, 3717, 3724, 3730, 3734, 3737, 3743
          2 LISDSW   240, 1006, 3220
        703 LPAREN   414
      77504 LPOINT    10,  315,  563,  610,  615, 1046, 1052, 1055, 1366, 1430, 1460, 1466, 1512, 1521, 1540, 1544, 1713
                    1717, 1754, 1755, 1756, 2034, 2173, 2533, 3057, 3104, 3132
     100000 LPSDSW   240,  401,  520,  766, 1326
      77533 MQSAVE    10, 1071, 1103, 1121, 1235, 1310, 1312, 1351, 1437, 3051, 3105
      77515 MULCON    10, 2437, 2445
       4355 NBROUT  3623, 3627
         21 N.RCXX  3744, 4026
        371 NXTCHR   521
       1702 OCTDON  1607
       2000 OCTDSW   240,  552,  570,  635,  641,  646,  652,  662,  664,  672, 1030, 1557, 1571, 1576, 1732, 2733
     400000 OUTDSW   240, 1047, 1361, 1376, 1450, 3052, 3172, 3233, 3440
       3421 PERC.B
       3426 PERC.D  3535
       3524 PERC.G  3423, 3577, 3704, 3710, 3714, 3721, 3726, 3732, 3736, 3741, 3745
        541 PERIOD   455
       4576 PWRTEN  2264, 2265, 2364, 2365, 2464, 2465, 2472, 2545, 2546, 2551, 2552
       3172 P(FIL)  3172, 3313
         26 RECLEN    10, 3143, 3153, 3164, 3167, 3463, 3644
          5 RECOUP  3475
       1000 REINST   775
1            FAP                                                                                 PAGE 10
                        POST PROCESSOR ASSEMBLY DATA

        740 RPAREN   454, 3757
        773 RPFOFF   742
       4442 RSTMC1  3203, 3215
      77535 SAVIND    10, 3072, 3106, 3114, 3177, 3226, 3231, 3241, 3317, 3404, 3411, 3414, 3544, 3551
       2760 SCALES  2547, 2553
       1265 SEARCH  1126, 1142
        200 SGNDSW   240, 1761, 1775, 2015, 2021, 2152, 2241, 2334
      77534 SPARCT    10,  731,  734,  736,  773,  776
       3136 SQUISH  3055, 3456, 3637
     200000 STXDSW   240,  552,  554,  570,  572,  635,  641,  646,  652,  662,  672, 1030
       3727 SUBERR  1154, 1207, 1213, 1263
      50000 SUBSCR   240,  414,  415
       3073 SUBXIT   261, 3071, 3115
        236 SUMLCN  2720
       2122 SUMLOC  2050, 2111, 2135, 2406, 2411
       3502 TOOBIG   562
       3715 TOOLAR  1631
       3600 TOOWID  1676, 3350
        510 TRATAB   337,  404,  407, 1313, 2056
       1000 TSWDSW   240, 2022, 2203, 2327, 2414
        235 VALLOC  1564
       1115 VARBEG   474
      77524 VARNAM    10, 1115, 1132, 1137, 1240, 1243, 1250, 1253, 1255, 1257, 1262, 1272
         44 VECLEN    10
       3573 WAYOUT  2262, 2306, 2317, 2332, 2341, 2344, 2347
          4 WRFLXA  3370
       3705 ZERBAS  1353, 1354
        731 ZERMUL   712

0 NO ERROR IN ABOVE ASSEMBLY.


  ISIN   BCD 06/25/69 2042.6     135         00000
1     FAP ASSEMBLY LISTING  ...  ...  ...        FILE ISIN__ _____FAP___         06/21/69 1700.2 PAGE 1

                       00000         ENTRY   ISIN
      00000  0101 00 0 00001  ISIN   TIA     =HISIN
                                     END

        LITERALS
      00001  316231456060
1     FAP ASSEMBLY LISTING  ...  ...  ...        FILE ISIN__ _____FAP___         06/21/69 1700.2 PAGE 1
                        POST PROCESSOR ASSEMBLY DATA

          2 IS THE FIRST LOCATION NOT USED BY THIS PROGRAM

0REFERENCES TO DEFINED SYMBOLS
          0   ISIN     0

0 NO ERROR IN ABOVE ASSEMBLY.


  LDFL   BCD 05/28/67 2346.5    1313         00000
