1            FAP                                                                                 PAGE 1

                              *XSIMEQ      JULY 26, 1961     KORN
                              *SOLUTION OF SIMULTANEOUS LINEAR EQUATIONS / EVALUATION OF DETERMINANTS
                              *    REASSEMBLE XSIMEQ TO CORRECT ERROR INDUCED BY CHANGE TO FORTRAN
                              *      AUGUST 22,1962

  BINARY CARD NO. XDET0000
                       00371         ENTRY   XSIMEQ
                       00526         ENTRY   XDETRM

                                             XSIMEQ WILL SOLVE THE MATRIX EQUATION AX=B FOR THE
                                             UNKNOWN MATRIX X AND WILL COMPUTE THE DETERMINANT OF A.
                                             FORTRAN STATEMENT TYPE

                                             XDETRM WILL COMPUTE THE DETERMINANT OF A.
                                             FORTRAN STATEMENT TYPE      M=XDETRMF(N,LN,A,D)

                                             WHERE

                                             N=FIXED POINT CONSTANT OR VARIABLE EQUAL TO MAXIMUM
                                             POSSIBLE NUMBER OF ROWS (=COLUMNS) IN MATRIX A AS
                                             SPECIFIED BY DIMENSION STATEMENT IN SOURCE PROGRAM

                                             LN=FIXED POINT CONSTANT OR VARIABLE EQUAL TO OBJECT
                                             PROGRAM DIMENSION OF A

                                             LM=FIXED POINT CONSTANT OR VARIABLE EQUAL TO OBJECT
                                             PROGRAM NUMBER OF COLUMNS IN MATRIX B (NOT LARGER THAN N)

                                             A=SOURCE PROGRAM FLOATING POINT VARIABLE USED TO
                                             DESIGNATE THE ELEMENTS OF THE MATRIX A

                                             B=SOURCE PROGRAM FLOATING POINT VARIABLE USED TO
                                             DESIGNATE THE ELEMENTS OF THE MATRIX B

                                             D=SOURCE PROGRAM FLOATING POINT VARIABLE USED TO DENOTE
                                             SCALING FACTOR. AFTER EXECUTION D CONTAINS SCALED VALUE
                                             OF THE DETERMINANT

                                             E=SOURCE PROGRAM FIXED OR FLOATING POINT VARIABLE
                                             DENOTING AT LEAST LN ERASABLE CELLS

                                             M WILL BE SET TO

                                             1 IF SOLUTION IS SUCCESSFUL
                                             2 IF SPILL OCCURRED
                                             3 IF MATRIX A IS SINGULAR.

                                             LOCATE PIVOT AND RECORD I AND J

            LINKAGE DIRECTOR

  BINARY CARD NO. XDET0001
      00000  000000000000
      00001  676231442550
1            FAP                                                                                 PAGE 2

      00002 -0534 00 1 00563   T1    LXD     AKK,1            INITIALIZE ELEMENT LOCATION INDEX
      00003 -0634 00 1 00564         SXD     AKQ,1
      00004 -0534 00 2 00575         LXD     K,2              INITIALIZE ROW INDEX
      00005 -0534 00 4 00575         LXD     K,4              INITIALIZE COLUMN INDEX
      00006 -0634 00 2 00573         SXD     I,2              INITIALIZE MAXIMUM PIVOT ROW
      00007 -0634 00 4 00574         SXD     J,4              INITIALIZE MAXIMUM PIVOT COLUMN
      00010 -0754 00 0 00000   T7    PXD     0,0
      00011  0401 00 1 00000   T8    ADM     0,1              AC CONTAINS MAGNITUDE CURRENT MAXIMUM
      00012  1 00001 1 00013         TXI     T10,1,1          NEXT ELEMENT
      00013  1 00001 2 00014   T10   TXI     T11,2,1          NEXT ROW
      00014  3 00602 2 00022   T11   TXH     T17,2,LN         TRANSFER IF LAST ROW TESTED
      00015 -0400 00 1 00000   T12   SBM     0,1              TEST CURRENT ELEMENT
      00016  0120 00 0 00011         TPL     T8               CURRENT MAXIMUM PIVOT HOLDS
      00017 -0634 00 2 00573         SXD     I,2              CHANGE MAXIMUM PIVOT
      00020 -0634 00 4 00574         SXD     J,4
      00021  0020 00 0 00010         TRA     T7
      00022 -0534 00 1 00564   T17   LXD     AKQ,1            KTH ELEMENT, CURRENT COLUMN
      00023  1 00603 1 00024   T18   TXI     T19,1,N

  BINARY CARD NO. XDET0002
      00024 -0634 00 1 00564   T19   SXD     AKQ,1            KTH ELEMENT, NEXT COLUMN
      00025 -0534 00 2 00575         LXD     K,2              KTH ROW
      00026  1 00001 4 00027         TXI     T20,4,1          NEXT COLUMN
      00027 -3 00602 4 00015   T20   TXL     T12,4,LN         EXIT IF LAST COLUMN TESTED

                                             INTERCHANGE ROWS IF NECESSARY

      00030  0500 00 0 00573   T21   CLA     I
      00031  0402 00 0 00575         SUB     K
      00032  0100 00 0 00071         TZE     T55              NO ROW INTERCHANGE
      00033  0400 00 0 00563         ADD     AKK
      00034 -0734 00 2 00000         PDX     0,2              INITIALIZE ITH ROW INDEX
      00035 -0534 00 1 00563         LXD     AKK,1            INITIALIZE KTH ROW INDEX
      00036 -0534 00 4 00575         LXD     K,4              INITIALIZE COLUMN INDEX
      00037  0502 00 0 00000   T28   CLS  ,  D                CHANGE SIGN OF
      00040  0601 00 0 00000   T29   STO  ,  D                     DETERMINANT
      00041  0560 00 1 00000   T30   LDQ     0,1              INTERCHANGE
      00042  0500 00 2 00000         CLA     0,2                   KTH AND ITH
      00043  0601 00 1 00000         STO     0,1                   ROWS OF
      00044 -0600 00 2 00000         STQ     0,2                   MATRIX A
      00045  1 00603 1 00046   T34   TXI     T35,1,N          NEXT ELEMENT, KTH ROW
      00046  1 00603 2 00047   T35   TXI     T36,2,N          NEXT ELEMENT, ITH ROW
      00047  1 00001 4 00050   T36   TXI     T37,4,1          NEXT COLUMN

  BINARY CARD NO. XDET0003
      00050 -3 00602 4 00041   T37   TXL     T30,4,LN
      00051  0761 00 0 00000   T38   NOP                      TRANSFER TO T55 FOR XDETRM
      00052  0500 00 0 00576         CLA     KM1
      00053  0400 00 0 00565         ADD     B
      00054 -0734 00 1 00000         PDX     0,1              INITIALIZE KTH ROW INDEX
      00055  0402 00 0 00575         SUB     K
      00056  0400 00 0 00573         ADD     I
      00057 -0734 00 2 00000         PDX     0,2              INITIALIZE ITH ROW INDEX
      00060 -0534 00 4 00630         LXD     =O1000000,4      INITIALIZE COLUMN INDEX
      00061  0560 00 1 00000   T46   LDQ     0,1              INTERCHANGE
      00062  0500 00 2 00000         CLA     0,2                   KTH AND ITH
1            FAP                                                                                 PAGE 3

      00063  0601 00 1 00000         STO     0,1                   ROWS OF
      00064 -0600 00 2 00000         STQ     0,2                   MATRIX B
      00065  1 00603 1 00066   T50   TXI     T51,1,N          NEXT ELEMENT, KTH ROW
      00066  1 00603 2 00067   T51   TXI     T52,2,N          NEXT ELEMENT, ITH ROW
      00067  1 00001 4 00070   T52   TXI     T53,4,1          NEXT COLUMN
      00070 -3 00601 4 00061   T53   TXL     T46,4,LM         EXIT IF LAST COLUMN PROCESSED

                                             INTERCHANGE COLUMNS IF NECESSARY

      00071  0500 00 0 00574   T55   CLA     J
      00072  0402 00 0 00575         SUB     K
      00073  0100 00 0 00126         TZE     T85              NO COLUMN INTERCHANGE

  BINARY CARD NO. XDET0004
      00074  0400 00 0 00576         ADD     KM1
      00075  0765 00 0 00043         LRS     35
      00076  0200 00 0 00603         MPY     N
      00077  0767 00 0 00021         ALS     17
      00100  0400 00 0 00562         ADD     A
      00101 -0734 00 1 00000         PDX     0,1              INITIALIZE JTH COLUMN INDEX
      00102  0500 00 0 00577         CLA     KM1N
      00103  0400 00 0 00562         ADD     A
      00104 -0734 00 2 00000         PDX     0,2              INITIALIZE KTH COLUMN INDEX
      00105 -0534 00 4 00602         LXD     LN,4             INITIALIZE COMPLEMENTARY ROW INDEX
      00106  0502 00 0 00000   T68   CLS  ,  D                CHANGE SIGN OF
      00107  0601 00 0 00000   T69   STO  ,  D                     DETERMINANT
      00110  0560 00 1 00000   T70   LDQ     0,1              INTERCHANGE
      00111  0500 00 2 00000         CLA     0,2                   KTH AND JTH
      00112  0601 00 1 00000         STO     0,1                   COLUMNS OF
      00113 -0600 00 2 00000         STQ     0,2                   MATRIX A
      00114  1 00001 1 00115         TXI     T75,1,1          NEXT ELEMENT, JTH COLUMN
      00115  1 00001 2 00116   T75   TXI     T76,2,1          NEXT ELEMENT, KTH COLUMN
      00116  2 00001 4 00110   T76   TIX     T70,4,1
      00117  0761 00 0 00000   T77   NOP                      TRANSFER TO T85 FOR XDETRM

  BINARY CARD NO. XDET0005
      00120 -0534 00 1 00574         LXD     J,1
      00121 -0534 00 2 00575         LXD     K,2
      00122  0500 00 1 00000   T80   CLA  ,1 E+1,1            INTERCHANGE
      00123  0560 00 2 00000   T81   LDQ  ,2 E+1,2                 JTH AND KTH
      00124  0601 00 2 00000   T82   STO  ,2 E+1,2                 ELEMENTS OF
      00125 -0600 00 1 00000   T83   STQ  ,1 E+1,1                 ARRAY E

                                             COMPUTE DETERMINANT

      00126 -0534 00 1 00563   T85   LXD     AKK,1
      00127  0500 00 1 00000         CLA     0,1              PIVOT ELEMENT
      00130  0100 00 0 00367         TZE     T251             MATRIX A SINGULAR
      00131  0765 00 0 00043         LRS     35
      00132  0260 00 0 00000   T89   FMP  ,  D
      00133  0601 00 0 00000   T90   STO  ,  D

                                             ROW REDUCTION
1            FAP                                                                                 PAGE 4

      00134 -0534 00 1 00600         LXD     KP1,1
      00135 -0634 00 1 00566         SXD     E1,1             INITIALIZE ROW TO BE REDUCED
      00136 -0534 00 1 00563         LXD     AKK,1
      00137 -0634 00 1 00567         SXD     E2,1
      00140  0500 00 0 00576         CLA     KM1
      00141  0400 00 0 00565         ADD     B
      00142  0622 00 0 00570         STD     E3
      00143 -0534 00 1 00570   T99   LXD     E3,1

  BINARY CARD NO. XDET0006
      00144  1 00001 1 00145         TXI     T101,1,1
      00145 -0634 00 1 00570   T101  SXD     E3,1             FIRST ELEMENT, CURRENT ROW, MATRIX B
      00146 -0534 00 1 00567         LXD     E2,1
      00147  1 00001 1 00150         TXI     T104,1,1
      00150 -0634 00 1 00567   T104  SXD     E2,1             LEADING ELEMENT, CURRENT ROW, MATRIX A
      00151 -0534 00 2 00563         LXD     AKK,2
      00152 -0534 00 4 00600         LXD     KP1,4            INITIALIZE COLUMN INDEX
      00153  0500 00 1 00000         CLA     0,1
      00154  0100 00 0 00210         TZE     T136             ROW NEEDS NO REDUCTION
      00155  0241 00 2 00000         FDP     0,2
      00156 -0600 00 0 00572         STQ     G
      00157  1 00603 1 00160   T111  TXI     T112,1,N
      00160  1 00603 2 00161   T112  TXI     T113,2,N
      00161  0560 00 0 00572   T113  LDQ     G
      00162  0260 00 2 00000         FMP     0,2
      00163  0760 00 0 00002         CHS
      00164  0300 00 1 00000         FAD     0,1
      00165  0601 00 1 00000         STO     0,1              ELEMENT REDUCED
      00166  1 00603 1 00167   T118  TXI     T119,1,N         NEXT ELEMENT, CURRENT ROW
      00167  1 00603 2 00170   T119  TXI     T120,2,N         NEXT ELEMENT, KTH ROW

  BINARY CARD NO. XDET0007
      00170  1 00001 4 00171   T120  TXI     T121,4,1         NEXT COLUMN
      00171 -3 00602 4 00161   T121  TXL     T113,4,LN
      00172  0761 00 0 00000   T122  NOP                      TRANSFER TO T136 FOR XDETRM
      00173 -0534 00 1 00570         LXD     E3,1             BEGIN REDUCTION OF MATRIX B
      00174  0500 00 0 00576         CLA     KM1
      00175  0400 00 0 00565         ADD     B
      00176 -0734 00 2 00000         PDX     0,2
      00177 -0534 00 4 00601         LXD     LM,4
      00200  0560 00 2 00000   T128  LDQ     0,2
      00201  0260 00 0 00572         FMP     G
      00202  0760 00 0 00002         CHS
      00203  0300 00 1 00000         FAD     0,1
      00204  0601 00 1 00000         STO     0,1              ELEMENT REDUCED
      00205  1 00603 1 00206   T133  TXI     T134,1,N         NEXT ELEMENT, CURRENT ROW
      00206  1 00603 2 00207   T134  TXI     T135,2,N         NEXT ELEMENT, KTH ROW
      00207  2 00001 4 00200   T135  TIX     T128,4,1
      00210 -0534 00 1 00566   T136  LXD     E1,1
      00211  1 00001 1 00212         TXI     T138,1,1
      00212 -0634 00 1 00566   T138  SXD     E1,1             NEXT ROW TO BE REDUCED
      00213 -3 00602 1 00143   T139  TXL     T99,1,LN

  BINARY CARD NO. XDET0008
      00214 -0534 00 1 00600         LXD     KP1,1
      00215  1 00001 1 00216         TXI     T142,1,1
1            FAP                                                                                 PAGE 5

      00216  3 00602 1 00234   T142  TXH     T156,1,LN        REDUCTION COMPLETE
      00217 -0634 00 1 00600         SXD     KP1,1            K+1
      00220  2 00001 1 00221         TIX     T145,1,1
      00221 -0634 00 1 00575   T145  SXD     K,1              K
      00222  2 00001 1 00223         TIX     T147,1,1
      00223 -0634 00 1 00576   T147  SXD     KM1,1            K-1
      00224  0500 00 0 00577         CLA     KM1N
      00225  0400 00 0 00603         ADD     N
      00226  0601 00 0 00577         STO     KM1N             (K-1)N
      00227  0500 00 0 00563         CLA     AKK
      00230  0400 00 0 00603         ADD     N
      00231  0400 00 0 00630         ADD     =O1000000
      00232  0601 00 0 00563         STO     AKK
      00233  0020 00 0 00002         TRA     T1               BEGIN NEW STAGE
      00234  0500 00 0 00563   T156  CLA     AKK
      00235  0400 00 0 00603         ADD     N
      00236  0400 00 0 00630         ADD     =O1000000
      00237 -0734 00 1 00000         PDX     0,1

  BINARY CARD NO. XDET0009
      00240  0500 00 1 00000         CLA     0,1              LAST PIVOT
      00241  0100 00 0 00367         TZE     T251             MATRIX A SINGULAR
      00242  0765 00 0 00043         LRS     35
      00243  0260 00 0 00000   T163  FMP  ,  D                FINAL VALUE OF
      00244  0601 00 0 00000   T164  STO  ,  D                     DETERMINANT
      00245  0761 00 0 00000   T165  NOP                      THRU FOR XDETRM

                                             BACK SUBSTITUTION

      00246 -0634 00 1 00563         SXD     AKK,1
      00247  0500 00 0 00602         CLA     LN
      00250  0402 00 0 00630         SUB     =O1000000
      00251  0400 00 0 00565         ADD     B
      00252  0622 00 0 00570         STD     E3
      00253 -0534 00 1 00601         LXD     LM,1
      00254 -0634 00 1 00566         SXD     E1,1
      00255 -0534 00 1 00602   T174  LXD     LN,1
      00256 -0634 00 1 00571         SXD     E4,1
      00257 -0534 00 1 00563         LXD     AKK,1
      00260 -0634 00 1 00567         SXD     E2,1
      00261 -0534 00 2 00570         LXD     E3,2
      00262  0500 00 2 00000         CLA     0,2
      00263  0241 00 1 00000         FDP     0,1

  BINARY CARD NO. XDET0010
      00264 -0600 00 2 00000         STQ     0,2
      00265 -0534 00 1 00567   T182  LXD     E2,1
      00266  1 77777 1 00267         TXI     T184,1,-1
      00267 -0634 00 1 00567   T184  SXD     E2,1             LAST ELEMENT, CURRENT ROW, MATRIX A
      00270  0600 00 0 00572         STZ     G
      00271 -0534 00 4 00571         LXD     E4,4
      00272 -2 00001 4 00312         TNX     T204,4,1
      00273 -0634 00 4 00571         SXD     E4,4             ROW TO BE PROCESSED
      00274 -0534 00 2 00570         LXD     E3,2
      00275  0560 00 1 00000   T191  LDQ     0,1
      00276  0260 00 2 00000         FMP     0,2
1            FAP                                                                                 PAGE 6

      00277  0300 00 0 00572         FAD     G
      00300  0601 00 0 00572         STO     G
      00301  1 00000 1 00302   T195  TXI     T196,1, -N
      00302  1 77777 2 00303   T196  TXI     T197,2,-1
      00303  1 00001 4 00304   T197  TXI     T198,4,1
      00304 -3 00601 4 00275   T198  TXL     T191,4,LN-1
      00305  0500 00 2 00000         CLA     0,2
      00306  0302 00 0 00572         FSB     G
      00307  0241 00 1 00000         FDP     0,1

  BINARY CARD NO. XDET0011
      00310 -0600 00 2 00000         STQ     0,2              VALUE OF UNKNOWN
      00311  0020 00 0 00265         TRA     T182
      00312 -0534 00 2 00570   T204  LXD     E3,2
      00313  1 00603 2 00314   T205  TXI     T206,2,N
      00314 -0634 00 2 00570   T206  SXD     E3,2             LAST ROW, NEXT COLUMN, MATRIX B
      00315 -0534 00 2 00566         LXD     E1,2
      00316 -2 00001 2 00321         TNX     T212,2,1
      00317 -0634 00 2 00566   T209  SXD     E1,2             NUMBER OF REMAINING COLUMNS
      00320  0020 00 0 00255         TRA     T174             USE (LM-E1+1)TH COLUMN OF B

                                             REARRANGEMENT AND PERMANENT STORAGE ASSIGNMENT

      00321  0500 00 0 00562   T212  CLA     A
      00322  0622 00 0 00566         STD     E1
      00323  0500 00 0 00630         CLA     =O1000000
      00324  0622 00 0 00567         STD     E2
      00325 -0534 00 1 00626   T216  LXD     =0,1
      00326  0500 00 0 00567   T217  CLA     E2
      00327  0402 00 1 00000   T218  SUB  ,1 E,1
      00330  0100 00 0 00332         TZE     T221
      00331  1 00001 1 00326         TXI     T217,1,1
      00332 -0754 00 1 00000   T221  PXD     0,1
      00333  0400 00 0 00565         ADD     B

  BINARY CARD NO. XDET0012
      00334 -0734 00 1 00000         PDX     0,1
      00335 -0534 00 2 00566         LXD     E1,2
      00336 -0534 00 4 00601         LXD     LM,4
      00337  0500 00 1 00000   T226  CLA     0,1
      00340  0601 00 2 00000         STO     0,2
      00341  1 00603 1 00342   T228  TXI     T229,1,N
      00342  1 00603 2 00343   T229  TXI     T230,2,N
      00343  2 00001 4 00337   T230  TIX     T226,4,1
      00344 -0534 00 4 00602         LXD     LN,4
      00345 -2 00001 4 00356         TNX     T242,4,1         THRU WITH XSIMEQ
      00346 -0634 00 4 00602         SXD     LN,4
      00347  0500 00 0 00566         CLA     E1
      00350  0400 00 0 00630         ADD     =O1000000
      00351  0601 00 0 00566         STO     E1               FIRST ELEMENT, NEXT ROW, MATRIX A
      00352  0500 00 0 00567         CLA     E2
      00353  0400 00 0 00630         ADD     =O1000000
      00354  0601 00 0 00567         STO     E2               NEXT ROW
      00355  0020 00 0 00325         TRA     T216
1            FAP                                                                                 PAGE 7

                                             FINAL RESULTS

      00356  0500 00 0 00630   T242  CLA     =O1000000        SOLUTION SUCCESSFUL
      00357 -0534 00 1 00604   T243  LXD     REG12,1          RESTORE INDEX REGISTERS

  BINARY CARD NO. XDET0013
      00360  0534 00 2 00604         LXA     REG12,2
      00361 -0534 00 4 00000         LXD     T1-2,4
      00362  0560 00 0 00605         LDQ     SAVE             RESTORE LOCATION 8
      00363 -0600 00 0 00010         STQ     8
      00364  0020 00 4 00001         TRA     1,4              EXIT FROM SUBROUTINE
      00365  0500 00 0 00631   T249  CLA     =O2000000        SPILL
      00366  0020 00 0 00357         TRA     T243
      00367  0500 00 0 00632   T251  CLA     =O3000000        MATRIX A SINGULAR
      00370  0020 00 0 00357         TRA     T243

                                             ENTRY POINTS

      00371  0601 00 0 00603   T254  STO     N                ENTRY FOR XSIMEQ
      00372 -0600 00 0 00602         STQ     LN
      00373  0500 00 0 00634         CLA     =O76100000000    OCTAL CODE FOR NOP
      00374  0601 00 0 00051         STO     T38
      00375  0601 00 0 00117         STO     T77
      00376  0601 00 0 00172         STO     T122
      00377  0601 00 0 00245         STO     T165
      00400  0601 00 0 00452         STO     T298
      00401 -0634 00 4 00000         SXD     T1-2,4
      00402 -0500 00 4 77777         CAL     -1,4            CHECH WORD PRECEEDING THE TSX           M
      00403  0771 00 0 00017         ARS     15            TO SEE IF IT WAS AN SXD                   M

  BINARY CARD NO. XDET0014
      00404  0322 00 0 00633         ERA     =O4634004                                               M
      00405 -0100 00 0 00407         TNZ     *+2
      00406  1 00001 4 00407         TXI     *+1,4,1       HAS SXD  REDUCE IR 4  BY ONE
      00407  0500 00 4 77767         CLA     -9,4             FOURTH ARGUMENT (A)
      00410  0767 00 0 00022         ALS     18
      00411  0622 00 0 00562         STD     A
      00412  0500 00 4 77775         CLA     -3,4             SEVENTH ARGUMENT (E)
      00413  0621 00 0 00327         STA     T218
      00414  0621 00 0 00455         STA     T301
      00415  0400 00 0 00627         ADD     =1
      00416  0621 00 0 00122         STA     T80
      00417  0621 00 0 00123         STA     T81
      00420  0621 00 0 00124         STA     T82
      00421  0621 00 0 00125         STA     T83
      00422  0500 00 0 77775         CLA     COMMON-2         THIRD ARGUMENT (LM)
      00423  0601 00 0 00601         STO     LM
      00424  0500 00 4 77771         CLA     -7,4             FIFTH ARGUMENT (B)
      00425  0767 00 0 00022         ALS     18
      00426  0622 00 0 00565         STD     B
      00427  0500 00 4 77773         CLA     -5,4             SIXTH ARGUMENT (D)

  BINARY CARD NO. XDET0015
      00430  0621 00 0 00037   T280  STA     T28
      00431  0621 00 0 00040         STA     T29
      00432  0621 00 0 00106         STA     T68
1            FAP                                                                                 PAGE 8

      00433  0621 00 0 00107         STA     T69
      00434  0621 00 0 00132         STA     T89
      00435  0621 00 0 00133         STA     T90
      00436  0621 00 0 00243         STA     T163
      00437  0621 00 0 00244         STA     T164
      00440  0500 00 0 00602         CLA     LN
      00441  0622 00 0 00014         STD     T11
      00442  0622 00 0 00027         STD     T20
      00443  0622 00 0 00050         STD     T37
      00444  0622 00 0 00171         STD     T121
      00445  0622 00 0 00213         STD     T139
      00446  0622 00 0 00216         STD     T142
      00447  0402 00 0 00630         SUB     =O1000000
      00450  0622 00 0 00304         STD     T198
      00451  0622 00 0 00460         STD     T304
      00452  0761 00 0 00000   T298  NOP                      TRANSFER TO T305 FOR XDETRM
      00453 -0534 00 4 00626         LXD     =0,4

  BINARY CARD NO. XDET0016
      00454  0500 00 0 00630         CLA     =O1000000
      00455  0601 00 4 00000   T301  STO  ,4 E,4              FILL ARRAY E
      00456  0400 00 0 00630         ADD     =O1000000
      00457  1 00001 4 00460         TXI     T304,4,1
      00460 -3 00601 4 00455   T304  TXL     T301,4,LN-1
      00461 -0634 00 1 00604   T305  SXD     REG12,1
      00462  0634 00 2 00604         SXA     REG12,2
      00463 -0535 00 4 00562         LDC     A,4
      00464 -0634 00 4 00562         SXD     A,4
      00465 -0634 00 4 00563         SXD     AKK,4
      00466 -0535 00 4 00565         LDC     B,4
      00467 -0634 00 4 00565         SXD     B,4
      00470  0500 00 0 00630         CLA     =O1000000
      00471  0601 00 0 00575         STO     K
      00472  0400 00 0 00630         ADD     =O1000000
      00473  0601 00 0 00600         STO     KP1
      00474  0600 00 0 00576         STZ     KM1
      00475  0600 00 0 00577         STZ     KM1N
      00476  0500 00 0 00601         CLA     LM
      00477  0622 00 0 00070         STD     T53

  BINARY CARD NO. XDET0017
      00500  0500 00 0 00603         CLA     N
      00501  0622 00 0 00023         STD     T18
      00502  0622 00 0 00045         STD     T34
      00503  0622 00 0 00046         STD     T35
      00504  0622 00 0 00065         STD     T50
      00505  0622 00 0 00066         STD     T51
      00506  0622 00 0 00157         STD     T111
      00507  0622 00 0 00160         STD     T112
      00510  0622 00 0 00166         STD     T118
      00511  0622 00 0 00167         STD     T119
      00512  0622 00 0 00205         STD     T133
      00513  0622 00 0 00206         STD     T134
      00514  0622 00 0 00313         STD     T205
      00515  0622 00 0 00341         STD     T228
      00516  0622 00 0 00342         STD     T229
1            FAP                                                                                 PAGE 9

      00517 -0535 00 4 00603         LDC     N,4
      00520 -0634 00 4 00301         SXD     T195,4
      00521  0500 00 0 00010         CLA     8
      00522  0601 00 0 00605         STO     SAVE
      00523  0500 00 0 00606         CLA     SPILL

  BINARY CARD NO. XDET0018
      00524  0601 00 0 00010         STO     8
      00525  0020 00 0 00002         TRA     T1
      00526  0601 00 0 00603   T343  STO     N                ENTRY FOR XDETRM
      00527 -0600 00 0 00602         STQ     LN
      00530 -0634 00 4 00000         SXD     T1-2,4
      00531  0500 00 0 00555         CLA     TRA1
      00532  0601 00 0 00051         STO     T38
      00533  0500 00 0 00556         CLA     TRA2
      00534  0601 00 0 00117         STO     T77
      00535  0500 00 0 00557         CLA     TRA3
      00536  0601 00 0 00172         STO     T122
      00537  0500 00 0 00560         CLA     TRA4
      00540  0601 00 0 00245         STO     T165
      00541  0500 00 0 00561         CLA     TRA5
      00542  0601 00 0 00452         STO     T298
      00543 -0500 00 4 77777         CAL     -1,4          CHECK FOR PRECEEDING SXD                 MI
      00544  0771 00 0 00017         ARS     15                                                     MI
      00545  0322 00 0 00633         ERA     =O4634004     SXD,4                                    MI
      00546 -0100 00 0 00550         TNZ     *+2                                                    MI
      00547  1 00001 4 00550         TXI     *+1,4,1                                                MI

  BINARY CARD NO. XDET0019
      00550  0500 00 4 77773         CLA     -5,4             THIRD ARGUMENT (A)
      00551  0767 00 0 00022         ALS     18
      00552  0622 00 0 00562         STD     A
      00553  0500 00 4 77775         CLA     -3,4             FOURTH ARGUMENT (D)
      00554  0020 00 0 00430         TRA     T280

      00555  0020 00 0 00071   TRA1  TRA     T55
      00556  0020 00 0 00126   TRA2  TRA     T85
      00557  0020 00 0 00210   TRA3  TRA     T136
      00560  0020 00 0 00356   TRA4  TRA     T242
      00561  0020 00 0 00461   TRA5  TRA     T305
      00562  0 00000 0 00000   A     PZE                      -A
      00563  0 00000 0 00000   AKK   PZE                      -A+(K-1)(N+1)
      00564  0 00000 0 00000   AKQ   PZE
      00565  0 00000 0 00000   B     PZE                      -B
      00566  0 00000 0 00000   E1    PZE
      00567  0 00000 0 00000   E2    PZE
      00570  0 00000 0 00000   E3    PZE
      00571  0 00000 0 00000   E4    PZE
      00572  0 00000 0 00000   G     PZE
      00573  0 00000 0 00000   I     PZE

  BINARY CARD NO. XDET0020
      00574  0 00000 0 00000   J     PZE
      00575  0 00000 0 00000   K     PZE                      STAGE OF REDUCTION
      00576  0 00000 0 00000   KM1   PZE                      K-1
      00577  0 00000 0 00000   KM1N  PZE                      (K-1)N
1            FAP                                                                                 PAGE 10

      00600  0 00000 0 00000   KP1   PZE                      K+1
      00601  0 00000 0 00000   LM    PZE
      00602  0 00000 0 00000   LN    PZE
      00603  0 00000 0 00000   N     PZE
      00604  0 00000 0 00000   REG12 PZE
      00605  0 00000 0 00000   SAVE  PZE                      CONTENTS OF LOCATION 8
      00606  0020 00 0 00610   SPILL TRA     TEST             MODIFIED TREATMENT OF UNDERFLOWS
      00607  0 00000 0 00000   TMP   PZE                      CONTENTS OF INDICATORS
      00610  0604 00 0 00607   TEST  STI     TMP
      00611  0441 00 0 00000         LDI     0
      00612 -0054 00  000004         LFT     4
      00613  0020 00 0 00624         TRA     OVER             SKIPPED IF UNDERFLOW
      00614 -0054 00  000002         LFT     2
      00615  0760 00 0 00000         CLM                      SKIPPED IF ONLY MQ UNDERFLOW
      00616  0131 00 0 00000         XCA
      00617 -0054 00  000001         LFT     1

  BINARY CARD NO. XDET0021
      00620  0760 00 0 00000         CLM                      SKIPPED IF ONLY AC UNDERFLOW
      00621  0131 00 0 00000         XCA
      00622  0441 00 0 00607         LDI     TMP
      00623  0020 60 0 00000         TRA*    0
      00624  0441 00 0 00607   OVER  LDI     TMP
      00625  0020 00 0 00365         TRA     T249
                       00371  XSIMEQ SYN     T254
                       00526  XDETRM SYN     T343
                       77777         COMMON  -206
                       77777  COMMON COMMON  1
                                     END

        LITERALS
      00626  000000000000
      00627  000000000001
      00630  000001000000
      00631  000002000000
      00632  000003000000
      00633  000004634004
      00634  076100000000
1            FAP                                                                                 PAGE 1
                        POST PROCESSOR ASSEMBLY DATA

       77776 IS THE LAST LOCATION NOT USED BY THIS PROGRAM
        635 IS THE FIRST LOCATION NOT USED BY THIS PROGRAM

0REFERENCES TO DEFINED SYMBOLS
        562      A   100,  103,  321,  411,  463,  464,  552
        565      B    53,  141,  175,  251,  333,  426,  466,  467
        572      G   156,  161,  201,  270,  277,  300,  306
        573      I     6,   17,   30,   56
        574      J     7,   20,   71,  120
        575      K     4,    5,   25,   31,   36,   55,   72,  121,  221,  471
        603      N    23,   45,   46,   65,   66,   76,  157,  160,  166,  167,  205,  206,  225,  230,  235,  313,  341
                     342,  371,  500,  517,  526
        566     E1   135,  210,  212,  254,  315,  317,  322,  335,  347,  351
        567     E2   137,  146,  150,  260,  265,  267,  324,  326,  352,  354
        570     E3   142,  143,  145,  173,  252,  261,  274,  312,  314
        571     E4   256,  271,  273
        601     LM    70,  177,  253,  336,  423,  476
        602     LN    14,   27,   50,  105,  171,  213,  216,  247,  255,  304,  344,  346,  372,  440,  460,  527
          2     T1   233,  361,  401,  525,  530
         10     T7    21
         11     T8    16
        563    AKK     2,   33,   35,  126,  136,  151,  227,  232,  234,  246,  257,  465
        564    AKQ     3,   22,   24
        576    KM1    52,   74,  140,  174,  223,  474
        600    KP1   134,  152,  214,  217,  473
         13    T10    12
         14    T11    13,  441
         15    T12    27
         22    T17    14
         23    T18   501
         24    T19    23
         27    T20    26,  442
         30    T21
         37    T28   430
         40    T29   431
         41    T30    50
         45    T34   502
         46    T35    45,  503
         47    T36    46
         50    T37    47,  443
         51    T38   374,  532
         61    T46    70
         65    T50   504
         66    T51    65,  505
         67    T52    66
         70    T53    67,  477
         71    T55    32,  555
        106    T68   432
        107    T69   433
        110    T70   116
        115    T75   114
        116    T76   115
        117    T77   375,  534
        122    T80   416
1            FAP                                                                                 PAGE 2
                        POST PROCESSOR ASSEMBLY DATA

        123    T81   417
        124    T82   420
        125    T83   421
        126    T85    73,  556
        132    T89   434
        133    T90   435
        143    T99   213
        607    TMP   610,  622,  624
        577   KM1N   102,  224,  226,  475
        624   OVER   613
        605   SAVE   362,  522
        145   T101   144
        150   T104   147
        157   T111   506
        160   T112   157,  507
        161   T113   160,  171
        166   T118   510
        167   T119   166,  511
        170   T120   167
        171   T121   170,  444
        172   T122   376,  536
        200   T128   207
        205   T133   512
        206   T134   205,  513
        207   T135   206
        210   T136   154,  557
        212   T138   211
        213   T139   445
        216   T142   215,  446
        221   T145   220
        223   T147   222
        234   T156   216
        243   T163   436
        244   T164   437
        245   T165   377,  540
        255   T174   320
        265   T182   311
        267   T184   266
        275   T191   304
        301   T195   520
        302   T196   301
        303   T197   302
        304   T198   303,  450
        312   T204   272
        313   T205   514
        314   T206   313
        317   T209
        321   T212   316
        325   T216   355
        326   T217   331
        327   T218   413
        332   T221   330
        337   T226   343
        341   T228   515
        342   T229   341,  516
1            FAP                                                                                 PAGE 3
                        POST PROCESSOR ASSEMBLY DATA

        343   T230   342
        356   T242   345,  560
        357   T243   366,  370
        365   T249   625
        367   T251   130,  241
        371   T254   626
        430   T280   554
        452   T298   400,  542
        455   T301   414,  460
        460   T304   451,  457
        461   T305   561
        526   T343   626
        610   TEST   606
        555   TRA1   531
        556   TRA2   533
        557   TRA3   535
        560   TRA4   537
        561   TRA5   541
        604  REG12   357,  360,  461,  462
        606  SPILL   523
      77777 COMMON   422,  626
        526 XDETRM     0,  626
        371 XSIMEQ     0,  626

0 NO ERROR IN ABOVE ASSEMBLY.


  XDIM   BCD 05/29/67 0010.1     274         00000
1            FAP                                                                                 PAGE 1

                              *XDIM          ARG1-MIN(ARG1,ARG2)
                              *              CALLING SEQUENCE TSX XDIM,4
                              *                            TXH ARG1
                              *                            TXH ARG2
                              *                            3,4 RETURN
                              *              ARGUEMENTS AND FUNCTION FIXED
                       00002         ENTRY   XDIM

            LINKAGE DIRECTOR
      00000  000000000000
      00001  672431446060

      00002  0500 60 4 00001  XDIM   CLA*    1,4
      00003  0402 60 4 00002         SUB*    2,4
      00004  0120 00 0 00006         TPL     *+2
 T    00005 -0754 00 0 00000         PXD
      00006  0020 00 4 00003         TRA     3,4
                                             FUNCTING IN ARITHMETIC ACCUMULATOR
                                     END
1            FAP                                                                                 PAGE 1
                        POST PROCESSOR ASSEMBLY DATA

          7 IS THE FIRST LOCATION NOT USED BY THIS PROGRAM

0REFERENCES TO DEFINED SYMBOLS
          2   XDIM     0

0 NO ERROR IN ABOVE ASSEMBLY.


  XECM   BCD 05/29/67 0010.1    2298         00000
1            FAP                                                                                 PAGE 1

                              *      XECOM   EXECUTES ONE COMMAND
                              *      SAVES COMMAND LIST AND COUNTER
                              *      LOADS   3 COMMANDS, INCLUDING 'SAVE' AND 'RESUME'
                              *      STARTS  THE CHAIN
                              *      ON RETURN, RESTORES LIST AND COUNTER, RETURNS TO CALLER
                                             MODIFIED FOR NEW FILE SYSTEM  AUG 65   EMK
                              * CALLING SEQUENCE
                              * FAP  TSX     XECOM,4
                              *      PZE     NAME
                              *      PZE     ARG1
                              *      ...      ..
                              *      PZE     ARGN
                              *      STO     ERROR CODE
                              * MAD  ERR. = XECOM.($NAME$, A, B(P)...B(Q), C, ... , N)
                              * FORTRAN,  K=XECOM(NH  NAME  ARG1  ARG2  ...)
                              * COMPUTATION CENTER     LOUIS POUZIN
                              *      JULY 64


                              TSS    MACRO   A,X
                                     TSX     A,X
                                     RMT
                              A      TIA     *+1
                                     BCI     1,A
                                     RMT
                              TSS    END

  BINARY CARD NO. XECOM000
                       00016         ENTRY   XECOM


        TRANSFER VECTOR

  BINARY CARD NO. XECOM001
      00000  234643636060     COLT
      00001  444665250160     MOVE1
      00002  444665250260     MOVE2
      00003  514164626360     RJUST
      00004  444665250360     MOVE3
      00005  272563234362     GETCLS
      00006  272563234323     GETCLC
      00007  242543256325     DELETE
      00010  622563234362     SETCLS
      00011  276345214460     GTNAM
      00012  622563234323     SETCLC
      00013  242543263143     DELFIL

            LINKAGE DIRECTOR
      00014  000000000000
      00015  672523464460

                       00014  X4     SYN     *-2
1            FAP                                                                                 PAGE 2

      00016 -0634 00 4 00014  XECOM  SXD     X4,4
      00017  0634 00 1 00140         SXA     X1,1
      00020  0634 00 2 00141         SXA     X2,2
      00021  0636 00 4 00035         SCA     AB,4


                              * GET ACTUAL VALUES OF ARGUMENTS

      00022  0074 00 4 00000         TSX     $COLT,4
      00023  0 00000 0 00014         PZE     X4

  BINARY CARD NO. XECOM002
      00024 -0737 00 1 00000         PDC     ,1
      00025 -0634 00 1 00047         SXD     AE,1          -LENGTH OF CALLING SEQUENCE
      00026  0636 00 1 00143         SCA     AH,1
      00027  0500 00 0 00154         CLA     SAVE+3        FENCE AS ERROR CODE
 D    00030 -3 00000 1 00137         TXL     AG,1          RETURN IF NO ARGUMENT
      00031  0074 00 4 00001         TSX     $MOVE1,4      SETS TARGET BUFFER
      00032  2 00301 0 00257         TIX     ACTARG,,ACTARG+CL-2
      00033  0774 00 1 77777         AXT     -1,1          STARTS WITH 1ST ARGUMENT
      00034  0774 00 2 00000         AXT     ,2
      00035 -0500 00 1 00000  AB     CAL     **,1          IX1 FROM -1 TO -LENGTH OF CALL. SEQ.
      00036  0602 00 0 00040         SLW     AC
      00037  0074 00 4 00002         TSX     $MOVE2,4      SETS SOURCE BUFFER
      00040  0 00000 0 00000  AC     ***     **,,**
      00041  0601 00 0 00303  AK     STO     K
      00042  1 77777 2 00043         TXI     *+1,2,-1      IX2 FROM -1 TO -WORD COUNT
      00043  0074 00 4 00003         TSX     $RJUST,4      RIGHT JUSTIFIES ARGUMENTS
      00044  0 00000 0 00303         PZE     K
      00045 -1 00047 0 00053         STR     AD,,AE
      00046  0020 00 0 00041         TRA     AK
      00047 -3 00000 1 00051  AE     TXL     *+2,1,**      ARGUMENT EXHAUSTED

  BINARY CARD NO. XECOM003
      00050  1 77777 1 00035         TXI     AB,1,-1       NEXT ARGUMENT
      00051  0500 00 0 00154         CLA     SAVE+3        FENCE
      00052 -1 00053 0 00053         STR     AD,,AD
                       00053  AD     SYN     *             CALLING SEQUENCE EXHAUSTED
      00053  0074 00 4 00004         TSX     $MOVE3,4      RESET TRAPPING MODE


                              * SAVES COMMAND LIST AND COUNTER

      00054  0774 00 1 00001         AXT     1,1
      00055  0774 00 2 00163         AXT     CBUF,2
      00056  0634 00 2 00061  U      SXA     *+3,2
      00057 -0634 00 1 00061         SXD     *+2,1
      00060  0074 00 4 00005         TSX     $GETCLS,4
      00061  0 00000 0 00000         PZE     **,,**
      00062  1 00024 2 00063         TXI     *+1,2,CL
      00063  1 00001 1 00064         TXI     *+1,1,1
      00064 -3 00003 1 00056         TXL     U,1,CN
      00065  0074 00 4 00006         TSX     $GETCLC,4
      00066  0602 00 0 00162         SLW     CLC
      00067 -0100 00 0 00074         TNZ     B1            SKIP WHEN NOT AT CONSOLE LEVEL
      00070  0074 00 4 00007         TSX     $DELETE,4
1            FAP                                                                                 PAGE 3

      00071  0 00000 0 00147         PZE     BASFIL        STARTS WITH ...001
      00072  0100 00 0 00074         TZE     B1
      00073  0020 00 0 00145         TRA     ZZ+1


                              * LOADS COMMAND

                       00074  B1     SYN     *

  BINARY CARD NO. XECOM004
      00074  0074 00 4 00010         TSX     $SETCLS,4
      00075  0 00002 0 00257         PZE     ACTARG,,2


                              * GETS A FILE NAME FOR TEMPORARY STORAGE

      00076  0074 00 4 00011         TSX     $GTNAM,4
      00077  0 00000 0 00157         PZE     RESUME+2
      00100  0601 00 0 00152         STO     SAVE+1
      00101  0601 00 0 00156         STO     RESUME+1


                              * SELECTS MODE FOR SAVED FILE

      00102                          TSS     GETCF,4
      00103  0560 00 0 00154         LDQ     SAVE+3        FENCE
      00104 -0100 00 0 00106         TNZ     A             SKIP WHEN IN SOME COMMON FILE
      00105  0560 00 0 00312         LDQ     =H     T      TEMPORARY FLAG
      00106 -0600 00 0 00153  A      STQ     SAVE+2        SET FENCE OR T FLAG


                              * SETS BRACKET COMMANDS

      00107  0074 00 4 00010         TSX     $SETCLS,4
      00110  0 00001 0 00151         PZE     SAVE,,1
      00111  0074 00 4 00010         TSX     $SETCLS,4
      00112  0 00003 0 00155         PZE     RESUME,,CN


                              * STARTS CHAIN

      00113 -0500 00 0 00311         CAL     =O3000001     1 TO 3
      00114  0074 00 4 00012         TSX     $SETCLC,4
      00115                          TSS     CHNCOM,4
      00116  0 00000 0 00001         PZE     1             KEEP CORE IMAGE


                              * RETURN AFTER COMMANDS EXECUTED

      00117  0074 00 4 00013         TSX     $DELFIL,4

  BINARY CARD NO. XECOM005
      00120  3 00000 0 00156         PTH     RESUME+1
      00121  3 00000 0 00157         PTH     RESUME+2
      00122  3 00000 0 00123         PTH     *+1
1            FAP                                                                                 PAGE 4

                              * RESTORES COMMAND LISTS AND COUNTER

      00123  0774 00 1 00001         AXT     1,1
      00124  0774 00 2 00163         AXT     CBUF,2
      00125  0634 00 2 00130  V      SXA     *+3,2
      00126 -0634 00 1 00130         SXD     *+2,1
      00127  0074 00 4 00010         TSX     $SETCLS,4
      00130  0 00000 0 00000         PZE     **,,**
      00131  1 00024 2 00132         TXI     *+1,2,CL
      00132  1 00001 1 00133         TXI     *+1,1,1
      00133 -3 00003 1 00125         TXL     V,1,CN
      00134 -0500 00 0 00162         CAL     CLC
      00135  0074 00 4 00012         TSX     $SETCLC,4


                              * END OF PROCESS

      00136  0500 00 0 00161         CLA     FAIL
      00137 -0534 00 4 00014  AG     LXD     X4,4
      00140  0774 00 1 00000  X1     AXT     **,1
      00141  0774 00 2 00000  X2     AXT     **,2
      00142  1 77777 4 00143         TXI     *+1,4,-1
      00143  0020 00 4 00000  AH     TRA     **,4


  BINARY CARD NO. XECOM006
      00144  0500 00 0 00310  ZZ     CLA     =1
      00145  0601 00 0 00161         STO     FAIL
      00146  0020 00 0 00123         TRA     V-2


      00147  333333000001     BASFIL BCI     2,...001 SAVED
      00150  606221652524
      00151  606062216525     SAVE   VFD     H36/SAVE,36/,O36//,O36//
      00152  000000000000
      00153  777777777777
      00154  777777777777
      00155  512562644425     RESUME VFD     H36/RESUME,36/,H36/SAVED,O36//
      00156  000000000000
      00157  606221652524
      00160  777777777777
                       00003  CN     EQU     3
                       00024  CL     EQU     20
      00161                   FAIL   BSS     1             ZERO IF NO ERROR
      00162                   CLC    BSS     1             SAVE COMMAND COUNTER
      00163                   CBUF   BSS     CL*CN         SAVE COMMAND LISTS
      00257                   ACTARG BSS     CL
      00303                   K      BSS     1
                                     END
                                              REMOTE SEQUENCES

  BINARY CARD NO. XECOM007
1            FAP                                                                                 PAGE 1
                        POST PROCESSOR ASSEMBLY DATA

        313 IS THE FIRST LOCATION NOT USED BY THIS PROGRAM

0REFERENCES TO DEFINED SYMBOLS
        106      A   104
        303      K    41,   44
         56      U    64
        125      V   133,  146
         35     AB    21,   50
         40     AC    36
         53     AD    45,   52,   53
         47     AE    25,   45
        137     AG    30
        143     AH    26
         41     AK    46
         74     B1    67,   72,   74
         24     CL    32,   62,  131,  161,  163,  257
          3     CN    64,  112,  133,  161,  163
        140     X1    17
        141     X2    20
         14     X4    16,   23,  137
        144     ZZ    73
        162    CLC    66,  134
        163   CBUF    55,  124
          0   COLT    22
        161   FAIL   136,  145
        151   SAVE    27,   51,  100,  103,  106,  110
        304  GETCF   102
         11  GTNAM    76
          1  MOVE1    31
          2  MOVE2    37
          4  MOVE3    53
          3  RJUST    43
         16  XECOM     0
        257 ACTARG    32,   75
        147 BASFIL    71
        306 CHNCOM   115
          7 DELETE    70
         13 DELFIL   117
          6 GETCLC    65
          5 GETCLS    60
        155 RESUME    77,  101,  112,  120,  121
         12 SETCLC   114,  135
         10 SETCLS    74,  107,  111,  127

0 NO ERROR IN ABOVE ASSEMBLY.


  XFIX   BCD 05/29/67 0010.9     328         00000
1            FAP                                                                                 PAGE 1

                              *XINT          TRUNCATION, ARGUEMENT FLOATING, FUNCTION FIXED
                              *              FOR MADTRAN TRANSLATED PROGRAMS
                              *              CALLING SEQU(NCE EXECUTE XINT.(FLOAT ARG) RESULT FIXED PT
                              *                            2,4 RETURN
                              *              RESULT IN ARITHMETIC ACCUM ADDRESS ONLY
                       00002         ENTRY   XFIX
                       00002         ENTRY   XINT

            LINKAGE DIRECTOR
      00000  000000000000
      00001  672631676060

      00002  0500 60 4 00001  XINT   CLA*    1,4
      00003 -0300 00 0 00011         UFA     =O233000000000
      00004  0765 00 0 00000         LRS     0             SIGN OF AC TO MQ
      00005 -0320 00 0 00010         ANA     =O377777
      00006  0763 00 0 00000         LLS     0             SIGN OF MQ TO AC
      00007  0020 00 4 00002         TRA     2,4
                       00002  XFIX   SYN     XINT
                                     END

        LITERALS
      00010  000000377777
      00011  233000000000
1            FAP                                                                                 PAGE 1
                        POST PROCESSOR ASSEMBLY DATA

         12 IS THE FIRST LOCATION NOT USED BY THIS PROGRAM

0REFERENCES TO DEFINED SYMBOLS
          2   XFIX     0,   10
          2   XINT     0,   10

0 NO ERROR IN ABOVE ASSEMBLY.


  XLOC   BCD 05/29/67 0010.9     606         00000
1            FAP                                                                                 PAGE 1

                              *      AUGUST 21,1962
                              *  709 FORTRAN LIBRARY / RELOCATED LOCATION FUNCTION ROUTINE / 9XL0
                              *  IBM / APPLIED PROGRAMMING / JANUARY 1960
                              *   REVISED TO ACCEPT MAD CALLING SEQUENCES   JULY 11, 1961

                              *  THE CALLING SEQUENCE MAY BE

                              *        CALL  XLOC      OR      TSX  $XLOC,4   (MAD FORMAT)
                              *                                TXH  N


  BINARY CARD NO. XLOC0000
                       00002         ENTRY   XLOC


            LINKAGE DIRECTOR

  BINARY CARD NO. XLOC0001
      00000  000000000000
      00001  674346236060

      00002  0500 00 0 00025  XLOC   CLA     TXH           TEST FOR MAD ARGUMENT
      00003  0560 00 4 00001         LDQ     1,4            .
      00004  0040 00 0 00010         TLQ     *+4            .  NONE
      00005  0131 00 0 00000         XCA                    .
      00006 -0320 00 0 00023         ANA     XCON2          .
      00007  0020 00 4 00002         TRA     2,4            .  EXIT--N IN AC

      00010  0634 00 4 00020         SXA     XLOC1,4
      00011 -0500 00 4 77777         CAL     -1,4          SEARCH
      00012 -0765 00 0 00022         LGR     18            FOR
      00013  0402 00 0 00022         SUB     XCON1         PREVIOUS
      00014  0100 00 0 00016         TZE     *+2           CLA N
      00015  1 00001 4 00011         TXI     *-4,4,1       TO
      00016 -0130 00 0 00000         XCL                   OBTAIN
      00017 -0320 00 0 00024         ANA     XCON3         LOCATION
      00020  0774 00 4 00000  XLOC1  AXT     **,4          OF N.
      00021  0020 00 4 00001         TRA     1,4           .  EXIT--N IN AC


                                          . . . . . . . . . . . . . . . . . . . . . . . . . . . . .
      00022 +000000050000     XCON1  OCT     50000         MASKS
      00023 +000000777777     XCON2  OCT     777777         .

  BINARY CARD NO. XLOC0002
      00024  0 77777 0 00000  XCON3  PZE     ,,-1           .
 ATD  00025  3 00000 0 00000  TXH    TXH                    .
                                          . . . . . . . . . . . . . . . . . . . . . . . . . . . . .
                                     END
1            FAP                                                                                 PAGE 1
                        POST PROCESSOR ASSEMBLY DATA

         26 IS THE FIRST LOCATION NOT USED BY THIS PROGRAM

0REFERENCES TO DEFINED SYMBOLS
         25    TXH     2
          2   XLOC     0
         22  XCON1    13
         23  XCON2     6
         24  XCON3    17
         20  XLOC1    10

0 NO ERROR IN ABOVE ASSEMBLY.


  XMAX   BCD 05/29/67 0010.9     452         00000
1            FAP                                                                                 PAGE 1

                              *XMAX1         FIXED POINT FUNCTION,FLOATING POINT ARGUEMENTS
                              *              FINDING THE MAXIMUM VALUE OF THE ARGUEMENTS
                              *              CALLING SEQUENCE TSX XMAX1,4
                              *                             TXH ARGU1
                              *              MAD USE        TXH ARGN
                              *              ANY NUMBER OF ARGUEMENT BUT AT LEAST TWO
                       00002         ENTRY   XMAX1

            LINKAGE DIRECTOR
      00000  000000000000
      00001  674421670160

      00002  0774 00 1 77777  XMAX1  AXT     -1,1
      00003  0500 00 4 00001  BEGIN  CLA     1,4
      00004 -0320 00 0 00026         ANA     =O777777700000
      00005  0402 00 0 00025         SUB     =O300000000000
      00006 -0100 00 0 00011         TNZ     DONE
      00007  1 77777 4 00010         TXI     *+1,4,-1
      00010  1 00001 1 00003         TXI     BEGIN,1,1
      00011  0500 60 4 00000  DONE   CLA*    0,4
      00012  0560 60 4 77777  LDQ    LDQ*    -1,4
      00013  0040 00 0 00015         TLQ     HERE           MQ LOW
      00014  0131 00 0 00000         XCA                    MQ HIGH
      00015  1 00001 4 00016  HERE   TXI     *+1,4,1
      00016  2 00001 1 00012         TIX     LDQ,1,1
      00017 -0300 00 0 00024         UFA     =O233000000000
      00020 -0320 00 0 00023         ANA     =O377777
      00021  0763 00 0 00000         LLS     0
      00022  0020 00 4 00001         TRA     1,4
                                     END

        LITERALS
      00023  000000377777
      00024  233000000000
      00025  300000000000
      00026  777777700000
1            FAP                                                                                 PAGE 1
                        POST PROCESSOR ASSEMBLY DATA

         27 IS THE FIRST LOCATION NOT USED BY THIS PROGRAM

0REFERENCES TO DEFINED SYMBOLS
         12    LDQ    16
         11   DONE     6
         15   HERE    13
          3  BEGIN    10
          2  XMAX1     0

0 NO ERROR IN ABOVE ASSEMBLY.


  XMIN   BCD 05/29/67 0010.9     438         00000
1            FAP                                                                                 PAGE 1

                              *XMIN1         FLOATING POINT ARGUEMENT,FIXED POINT FUNCTION
                              *              FINDING THE MINIMUM VALUE
                              *              MAD CALLING SEQUENCE EXECUTE XMIN1.(ARG1,...ARGN)
                              *              WHERE N IS ANY NUMBER
                       00002         ENTRY   XMIN1

            LINKAGE DIRECTOR
      00000  000000000000
      00001  674431450160

      00002  0774 00 1 77777  XMIN1  AXT     -1,1
      00003  0500 00 4 00001  BEGIN  CLA     1,4
      00004 -0320 00 0 00030         ANA     =O777777700000
      00005  0402 00 0 00027         SUB     =O300000000000
      00006 -0100 00 0 00011         TNZ     DONE
      00007  1 77777 4 00010         TXI     *+1,4,-1
      00010  1 00001 1 00003         TXI     BEGIN,1,1
      00011  0500 60 4 00000  DONE   CLA*    0,4
      00012  0560 60 4 77777  LDQ    LDQ*    -1,4
      00013  0040 00 0 00015         TLQ     *+2            MQ LOW
      00014  0020 00 0 00016         TRA     HERE           MQ HIGH
      00015  0131 00 0 00000         XCA
      00016  1 00001 4 00017  HERE   TXI     *+1,4,1
      00017  2 00001 1 00012         TIX     LDQ,1,1
      00020 -0300 00 0 00026         UFA     =O233000000000
      00021  0765 00 0 00000         LRS     0
      00022 -0320 00 0 00025         ANA     =O377777
      00023  0763 00 0 00000         LLS     0
      00024  0020 00 4 00001         TRA     1,4
                                     END

        LITERALS
      00025  000000377777
      00026  233000000000
      00027  300000000000
      00030  777777700000
1            FAP                                                                                 PAGE 1
                        POST PROCESSOR ASSEMBLY DATA

         31 IS THE FIRST LOCATION NOT USED BY THIS PROGRAM

0REFERENCES TO DEFINED SYMBOLS
         12    LDQ    17
         11   DONE     6
         16   HERE    14
          3  BEGIN    10
          2  XMIN1     0

0 NO ERROR IN ABOVE ASSEMBLY.


  XMOD   BCD 05/29/67 0010.9     280         00000
1            FAP                                                                                 PAGE 1

                              *XMOD          REMAINDERING ARG1(MOD ARG2)
                              *              CALLING SEQUENCE TSX XMOD,4
                              *                            TXH ARG1(FIXED)
                              *                            TXH ARG2(FIXED)
                              *                            3,4 RETURN
                              *              FUNCTION FIXED
                       00002         ENTRY   XMOD

            LINKAGE DIRECTOR
      00000  000000000000
      00001  674446246060

      00002  0760 00 0 00000  XMOD   CLM
      00003  0560 60 4 00001         LDQ*    1,4
 A    00004  0763 00 0 00000         LLS                   SIGN OF MQ TO AC
      00005  0221 60 4 00002         DVP*    2,4
      00006  0020 00 4 00003         TRA     3,4
                                                           FUNCTION IN ARITHMETIC AC FIXED
                                     END
1            FAP                                                                                 PAGE 1
                        POST PROCESSOR ASSEMBLY DATA

          7 IS THE FIRST LOCATION NOT USED BY THIS PROGRAM

0REFERENCES TO DEFINED SYMBOLS
          2   XMOD     0

0 NO ERROR IN ABOVE ASSEMBLY.


  ZEL0   BCD 05/29/67 0010.9     353         00000
1            FAP                                                                                 PAGE 1

                              *      ZEL     FILLS OUT LEADING BLANKS WITH ZEROS


  BINARY CARD NO. ZEL00000
                       00002         ENTRY   ZEL


            LINKAGE DIRECTOR

  BINARY CARD NO. ZEL00001
      00000  000000000000
      00001  712543606060

                       00002  ZEL    SYN     *
                       00000  X4     SYN     *-2
      00002 -0634 00 4 00000         SXD     X4,4
      00003  0560 60 4 00001         LDQ*    1,4
      00004  0774 00 4 00044         AXT     36,4
      00005 -0754 00 0 00000  A      ZAC
      00006 -0763 00 0 00006         LGL     6
      00007  0100 00 0 00012         TZE     B
      00010 -0340 00 0 00017         LAS     =H00000
      00011  0020 00 0 00013         TRA     *+2
      00012  2 00006 4 00005  B      TIX     A,4,6
      00013 -0765 00 4 00052         LGR     42,4
      00014  0131 00 0 00000         XCA
      00015 -0534 00 4 00000         LXD     X4,4
      00016  0020 00 4 00002         TRA     2,4
                                     END

        LITERALS
      00017  000000000060
1            FAP                                                                                 PAGE 1
                        POST PROCESSOR ASSEMBLY DATA

         20 IS THE FIRST LOCATION NOT USED BY THIS PROGRAM

0REFERENCES TO DEFINED SYMBOLS
          5      A    12
         12      B     7
          0     X4     2,   15
          2    ZEL     0,    2

0 NO ERROR IN ABOVE ASSEMBLY.


  XDTR   BCD 05/29/67 0137.3     829         00000
1     MAD PROGRAM LISTING ... ... ...                 FILE    XDTR   MAD            05/29/67    0135.8
-
                 ..INTERFACE FOR MAD OR MADTRN CALLS TO XDETRM                                         LM00001
                  EXTERNAL FUNCTION (ARG1, ARG2, ARG3, ARG4)                                      *001 LM00002
                  NORMAL MODE IS INTEGER                                                          *002 LM00003
                  FLOATING POINT ARG3, ARG4                                                       *003 LM00004
                  ENTRY TO XDTRM.                                                                 *004 LM00005
                 ..VALUE OF DETERMINANT INVARIANT UNDER TRANSPOSITION                                  LM00006
                  FARG1 = FINT.(ARG1)                                                             *005 LM00007
                  FARG2 = FINT.(ARG2)                                                             *006 LM00008
                  EXECUTE DETCS.(FARG1, FARG2, ARG3, ARG4, FM)                                    *007 LM00009
                  M =   MINT.(FM)                                                                 *008 LM00010
                  FUNCTION RETURN M                                                               *009 LM00011
                  END   OF FUNCTION                                                               *010 LM00012
1MAD PROGRAM,TYPE NOV 1963      (ALL NUMBERS ARE OCTAL)
0TOTAL LOCATIONS   00062 TRANSFER VECTOR LENGTH  00004 PROGRAM BEGINS    00013
0 PROGRAM IS AN EXTERNAL FUNCTION.   THE FOLLOWING ARE ENTRIES
      XDTRM  00014   0
0VARIABLE STORAGE (A=ARRAY,C=COMMON,E=ERASABLE,DIGIT=MODE)
      FARG1  00005   1        FARG2  00006   1        FM     00007   1        M      00010   1
0FUNCTION DICTIONARY
      DETCS  00000   1        EXIT   00001   1        FINT   00002   1        MINT   00003   1
0ABSOLUTE CONSTANTS
 00011 +000000000001     00012 +233000000000
0PROGRAM
                 EXTERNAL FUNCTION (ARG1, ARG2, ARG3, ARG4)                         001  LM00002
                 NORMAL MODE IS INTEGER                                             002  LM00003
                 FLOATING POINT ARG3, ARG4                                          003  LM00004
                 ENTRY TO XDTRM.                                                    004  LM00005
 00013 TRA +0 02000 0 00016    00014 SXA +0 63400 2 00040    00015 TSX +0 07400 2 00040
                 FARG1 = FINT.(ARG1)                                                005  LM00007
 00016 TSX +0 07400 4 00002    00017 TXH +3 00000 0 00024    00020 STO +0 60100 0 00005
                 FARG2 = FINT.(ARG2)                                                006  LM00008
 00021 TSX +0 07400 4 00002    00022 TXH +3 00000 0 00024    00023 STO +0 60100 0 00006
                 EXECUTE DETCS.(FARG1, FARG2, ARG3, ARG4, FM)                       007  LM00009
 00024 TSX +0 07400 4 00000    00025 TXH +3 00000 0 00005    00026 TXH +3 00000 0 00006    00027 TXH +3 00000 0 00024
 00030 TXH +3 00000 0 00024    00031 TXH +3 00000 0 00007
                 M =   MINT.(FM)                                                    008  LM00010
 00032 TSX +0 07400 4 00003    00033 TXH +3 00000 0 00007    00034 STO +0 60100 0 00010
                 FUNCTION RETURN M                                                  009  LM00011
 00035 CLA +0 50000 0 00010    00036 TRA +0 02000 0 00054
                 END   OF FUNCTION                                                  010  LM00012
 00037 TSX +0 07400 4 00001    00040 TXH +3 00000 0 00000    00041 SXD -0 63400 1 00040    00042 SXA +0 63400 4 00054
 00043 CLA +0 50000 4 00001    00044 STO +0 60100 0 00017    00045 CLA +0 50000 4 00002    00046 STO +0 60100 0 00022
 00047 CLA +0 50000 4 00003    00050 STO +0 60100 0 00027    00051 CLA +0 50000 4 00004    00052 STO +0 60100 0 00030
 00053 TRA +0 02000 2 00001    00054 AXT +0 77400 4 00000    00055 LXA +0 53400 2 00040    00056 LXD -0 53400 1 00040
 00057 TRA +0 02000 4 00001
