1            FAP                                                                                 PAGE 1

                              *.SET,.SAVE,.SAVRN,.RSTOR,.RSTRN LIST MANIPULATION ROUTINES
                              *
                              *              MAY 4, 1964
                              *

  BINARY CARD NO. RSTO0000
                       00114         ENTRY   .SET
                       00002         ENTRY   .SAVE
                       00002         ENTRY   .SAVRN
                       00012         ENTRY   .RSTOR
                       00012         ENTRY   .RSTRN
                              *

        TRANSFER VECTOR

  BINARY CARD NO. RSTO0001
      00000  665126436760     WRFLX
      00001  256731636060     EXIT

                       00002   .SAVE SYN     *
                       00002  .SAVRN SYN     *
      00002  0500 00 0 00045         CLA     TXL
      00003  0630 00 0 00053         STP     TXH1          SET SWITCHES
      00004  0630 00 0 00101         STP     TXH2
      00005 -0500 00 0 00002         CAL     2             SAVE AND RESET
      00006  0560 00 0 00033         LDQ     RETRN         TRAP LOCATION
      00007  0602 00 0 00032         SLW     SAVE2
      00010 -0600 00 0 00002         STQ     2
      00011  0020 00 4 00001         TRA     1,4
                              *
                       00012  .RSTOR SYN     *
                       00012  .RSTRN SYN     *
      00012 -0500 00 0 00045         CAL     TXL
      00013  0020 00 0 00003         TRA     .SAVE+1
                              *
                       00014   CHK1  SYN     *
      00014 -3 00000 1 00127         TXL     LOWCK,1,0
      00015  0621 00 0 00016         STA     *+1           SET PICK-UP ADDRESS
      00016 -0500 60 0 00000         CAL*    **            SAVE ONE WORD
      00017  0602 00 1 00000   SET2  SLW     **,1
                              *
      00020  0634 00 1 00000   SET3  SXA     **,1          RESET LIST LENGTH
      00021  0774 00 1 00000   IR    AXT     **,1          RESET IR'S AND
      00022  0774 00 2 00000         AXT     **,2          RETURN TO LIST
      00023  0441 00 0 00141         LDI     INDCAT

  BINARY CARD NO. RSTO0002
      00024  0535 00 4 00000         LAC     0,4
      00025  0020 00 4 00000         TRA     0,4
                              *
      00026  0560 00 1 00000   SET4  LDQ     **,1          RESTORE ONE WORD
      00027  0621 00 0 00030         STA     *+1
      00030 -0600 60 0 00000         STQ*    **
      00031  1 77777 1 00020         TXI     SET3,1,-1
                              *
      00032  0 00000 0 00000   SAVE2 PZE
1            FAP                                                                                 PAGE 2

                              *
      00033  0020 00 0 00034   RETRN TRA     *+1
      00034  0634 00 1 00021         SXA     IR,1
      00035  0634 00 2 00022         SXA     IR+1,2
      00036  0604 00 0 00141         STI     INDCAT
      00037  0534 00 1 00000   SET1  LXA     **,1          GET LIST LENGTH
      00040 -0500 00 0 00000         CAL     0             GET CALLING SEQUENCE WORD
      00041  0402 00 0 00142         SUB     =1
      00042  0621 00 0 00043         STA     *+1
      00043  0441 00 0 00000   PARAM LDI     **
      00044  0444 00 0 00143         OFT     =O77777777777
 TD   00045 -3 00000 0 00051   TXL   TXL     A
      00046 -0500 00 0 00032         CAL     SAVE2
      00047  0602 00 0 00002         SLW     2

  BINARY CARD NO. RSTO0003
      00050  0020 00 0 00021         TRA     IR
      00051 -0054 00  077777   A     LFT     77777
      00052  0020 00 0 00055         TRA     *+3
      00053  3 00000 0 00026   TXH1  TXH     SET4,,0       TXHOR TXL
      00054  1 00001 1 00014         TXI     CHK1,1,1
      00055 -0046 00 0 00000         PIA                   BLOCK PARAMETER
      00056  0634 00 4 00077         SXA     IR1,4
      00057  0734 00 2 00000         PAX     0,2
      00060  0622 00 0 00061         STD     *+1
      00061  2 00000 2 00071         TIX     OTHR,2,**
      00062 -0634 00 2 00064         SXD     *+2,2         DEC .G. ADD
      00063 -0734 00 2 00000         PDX     0,2
      00064  2 00000 2 00067         TIX     *+3,2,**
      00065 -0500 00 0 00043         CAL     PARAM
      00066  0020 00 0 00053         TRA     TXH1          DEC .E. ADD
      00067  0774 00 4 00001         AXT     1,4           DEC .G. ADD
      00070  0020 00 0 00072         TRA     GO
                              *
      00071 -0774 00 4 00001   OTHR  AXC     1,4           DEC .L. ADD
      00072 -0634 00 4 00075   GO    SXD     LOOP,4        SET ADDRESS CHANGE
      00073  0734 00 4 00000         PAX     0,4

  BINARY CARD NO. RSTO0004
      00074  1 00001 2 00101         TXI     TXH2,2,1
                              *
      00075  1 00000 4 00076   LOOP  TXI     *+1,4,**      CHANGE ADDRESS BY ONE
      00076  2 00001 2 00101         TIX     TXH2,2,1      CHECK FOR END OF BLOCK
      00077  0774 00 4 00000   IR1   AXT     **,4
      00100  0020 00 0 00020         TRA     SET3
                              *
      00101  3 00000 0 00103   TXH2  TXH     RST2,,0       TXH OR TXL
      00102  1 00001 1 00107         TXI     CHK2,1,1
                              *
      00103  0634 00 4 00105   RST2  SXA     *+2,4         BLOCK RESTORE
      00104 -0500 00 1 00000   SET5  CAL     **,1
      00105  0602 00 0 00000         SLW     **
      00106  1 77777 1 00075         TXI     LOOP,1,-1
                              *
                       00107   CHK2  SYN     *
      00107 -3 00000 1 00127         TXL     LOWCK,1,0
1            FAP                                                                                 PAGE 3

      00110  0634 00 4 00111         SXA     *+1,4
      00111 -0500 00 0 00000         CAL     **
      00112  0602 00 1 00000   SET6  SLW     **,1
      00113  0020 00 0 00075         TRA     LOOP
                              *
                              *              .SET
                              *
                       00114   .SET  SYN     *
      00114 -0500 00 4 00001         CAL     1,4
      00115  0625 00 0 00116         STT     *+1           IN CASE MAD PUTS SUBSCRIPT IN INDEX
      00116  0754 00 0 00000         PXA     0,**
      00117  0402 00 4 00001         SUB     1,4

  BINARY CARD NO. RSTO0005
      00120  0621 00 0 00037         STA     SET1
      00121  0621 00 0 00017         STA     SET2
      00122  0621 00 0 00020         STA     SET3
      00123  0621 00 0 00026         STA     SET4
      00124  0621 00 0 00104         STA     SET5
      00125  0621 00 0 00112         STA     SET6
                              *
                              *              DELETE LOW CORE CHECKS
                              *                        USED AT MICHIGAN
                              *               RETURN TO USER
      00126  0020 00 4 00002         TRA     2,4
                              *
      00127  0074 00 4 00000  LOWCK  TSX    $WRFLX,4
      00130  0 00007 0 00132                 BCI,,7
      00131  0074 00 4 00001         TSX     $EXIT,4
      00132  605454545460      BCI   BCI     7, **** ERROR IN .SAVE. LIST ABOVE LIST(0).
      00133  255151465160
      00134  314560336221
      00135  652533604331
      00136  626360212246
      00137  652560433162
      00140  637400343360
                              *
                              *
      00141  0 00000 0 00000  INDCAT
                                     END

        LITERALS
      00142  000000000001
      00143  077777777777
1            FAP                                                                                 PAGE 1
                        POST PROCESSOR ASSEMBLY DATA

        144 IS THE FIRST LOCATION NOT USED BY THIS PROGRAM

0REFERENCES TO DEFINED SYMBOLS
         51      A    45
         72     GO    70
         21     IR    34,   35,   50
        132    BCI   130
         77    IR1    56
         45    TXL     2,   12
         14   CHK1    14,   54
        107   CHK2   102,  107
          1   EXIT   131
        114   .SET     0,  114
         75   LOOP    72,  106,  113
         71   OTHR    61
        103   RST2   101
         37   SET1   120
         17   SET2   121
         20   SET3    31,  100,  122
         26   SET4    53,  123
        104   SET5   124
        112   SET6   125
         53   TXH1     3,   66
        101   TXH2     4,   74,   76
          2  .SAVE     0,    2,   13
        127  LOWCK    14,  107
         43  PARAM    65
         33  RETRN     6
         32  SAVE2     7,   46
          0  WRFLX   127
        141 INDCAT    23,   36
         12 .RSTOR     0,   12
         12 .RSTRN     0,   12
          2 .SAVRN     0,    2

0 NO ERROR IN ABOVE ASSEMBLY.


  SCH0   BCD 05/29/67 0008.3    2914         00000
1            FAP                                                                                 PAGE 1

                              * (STH), (SCH), .PUNCH, .TAPWR  FOR FOREGROUND.  MODIFIED FOR MICHIGANIO
                              *               FEBRUARY 1965 SPALL ACLIGHT FIXED AND CLEAN UP
                                             WRITE-AROUND TO DISK ROUTINES FOR FORTRAN-TYPE I/O
                                             (STH),(SCH) TO DISK FILES
                                             STH WRITES VARIABLE LENGTH LINES WITH LINE MARKER.
                                             FIRST WORD OF RECORD IS 77777700000N, N IS WORD COUNT.
                                             STH CREATES FILE CALLED .TAPE.     N
                                             SCH CREATES FILE CALLED .TAPE.     3


  BINARY CARD NO. SCH00000
                       00010         ENTRY   (SCH)
                       00014         ENTRY   (STH)
                       00014         ENTRY   (STHM)
                       00051         ENTRY   .PUNCH
                       00051         ENTRY   .PNCHL
                       00061         ENTRY   .TAPWR
                                     EXTERN  .WRITE,.FSTAT


        TRANSFER VECTOR

  BINARY CARD NO. SCH00001
      00000  336651316325     .WRITE
      00001  332662632163     .FSTAT
      00002  743146303460     (IOH)
      00003  214747254524     APPEND
      00004  216262312745     ASSIGN
      00005  624521476060     SNAP

            LINKAGE DIRECTOR
      00006  000000000000
      00007  746223303460

      00010  0500 00 0 00270  (SCH)  CLA     CDCNT
      00011  0601 00 0 00275         STO     COLIND
      00012  0560 00 0 00300         LDQ     =3
      00013  0020 00 0 00017         TRA     SAVE4
                       00014  (STH)  SYN     *
                       00014  (STHM) SYN     *
      00014  0560 00 0 00271         LDQ     TPCNT
      00015 -0600 00 0 00275         STQ     COLIND
      00016 -0765 00 0 00066         LGR     36+18         TAPE NO IN MQ ADDRESS
      00017  0634 00 4 00021  SAVE4  SXA     IXR4,4
      00020  0074 00 4 00223         TSX     CALLDK,4
      00021  0774 00 4 00000  IXR4   AXT     **,4
      00022 -0500 00 4 00001         CAL     1,4
      00023  0560 00 0 00267         LDQ     FORT

  BINARY CARD NO. SCH00002
      00024  0634 00 4 00041         SXA     JN21,4
      00025 -0634 00 4 77740         SXD     RTN,4
      00026  0600 00 0 00000         STZ     0
      00027  1 77776 4 00030         TXI     *+1,4,-2
      00030  0636 00 4 00000         SCA     0,4
      00031 -0734 00 4 00000         PDX     0,4           IS DECREMENT ZERO
1            FAP                                                                                 PAGE 2

      00032 -3 00000 4 00041         TXL     JN21,4,0      FORTRAN, BACKWARDS
      00033 -0600 00 0 00272         STQ     TEMP
      00034 -0130 00 0 00000         XCL
      00035 -0500 00 0 00265         CAL     UMAP          -1 IN DECR. SET FOR FORWARDS
      00036  0622 00 0 00272         STD     TEMP
      00037 -0130 00 0 00000         XCL
      00040  0560 00 0 00272         LDQ     TEMP
      00041  0774 00 4 00000   JN21  AXT     **,4
      00042 -0600 00 0 77737         STQ     FMT
      00043  0621 00 0 77740         STA     RTN
      00044 -0500 00 0 00266         CAL     MAD
      00045  0630 00 0 77740         STP     RTN
      00046 -0500 00 0 00275         CAL     COLIND
      00047  0602 00 0 77741         SLW     COL

  BINARY CARD NO. SCH00003
      00050  0020 60 0 00002         TRA*    $(IOH)
                              *
                              *
                       00051  .PUNCH SYN     *
                       00051  .PNCHL SYN     .PUNCH
      00051  0560 00 0 00270         LDQ     CDCNT
      00052 -0600 00 0 00275         STQ     COLIND
      00053  0634 00 4 00056         SXA     .PU1,4
      00054  0560 00 0 00300         LDQ     =3
      00055  0074 00 4 00223         TSX     CALLDK,4
      00056  0774 00 4 00000   .PU1  AXT     **,4
      00057  0560 00 0 00104         LDQ     T1
      00060  0020 00 0 00064         TRA     JOIN1
                              *
                       00061  .TAPWR SYN     *
      00061  0560 00 0 00271         LDQ     TPCNT
      00062 -0600 00 0 00275         STQ     COLIND
      00063  0560 00 0 00071         LDQ     .TR
      00064 -0500 00 0 00002   JOIN1 CAL     2
      00065  0602 00 0 00274         SLW     2SAVE
      00066 -0600 00 0 00002         STQ     2
      00067 -0634 00 4 77740         SXD     RTN,4         SAVE CALLER LOC. IN RTN
      00070  0020 00 4 00001         TRA     1,4
                              *              BACK HERE FOR TAPE NUMBER
      00071  0020 00 0 00072   .TR   TRA     *+1
      00072 -0500 00 0 00000         CAL     0             TAPE ENTRY
      00073  0402 00 0 00277         SUB     =1

  BINARY CARD NO. SCH00004
      00074  0621 00 0 00075         STA     *+1           GO BACK AND GET THE
      00075  0560 60 0 00000         LDQ*    **            TAPE NUMBER
      00076  0634 00 4 00100         SXA     *+2,4
      00077  0074 00 4 00223         TSX     CALLDK,4
      00100  0774 00 4 00000         AXT     **,4
      00101  0560 00 0 00104         LDQ     T1
      00102 -0600 00 0 00002         STQ     2             FORMAT STATEMENT.
      00103  0020 60 0 00000         TRA*    0
                              *
      00104  0020 00 0 00105   T1    TRA     *+1
      00105  0634 00 4 00115         SXA     T4,4
1            FAP                                                                                 PAGE 3

      00106  0535 00 4 00000         LAC     0,4           GET FORMAT
      00107 -0500 00 4 77777         CAL     -1,4          PARAMETER.
      00110 -0734 00 4 00000         PDX     0,4           IS FORMAT BACKWARD
      00111  0560 00 0 00266         LDQ     MAD           (D .NE. 0)
      00112  3 00000 4 00114         TXH     *+2,4,0       OR
      00113  0560 00 0 00265         LDQ     UMAP          FORWARD (D .E. 0)
      00114  3 00001 4 00125         TXH     SYT,4,1
      00115  0774 00 4 00000   T4    AXT     **,4
      00116 -0600 00 0 00272         STQ     TEMP
      00117 -0130 00 0 00000         XCL

  BINARY CARD NO. SCH00005
      00120 -0500 00 0 00267         CAL     FORT
      00121  0621 00 0 00272         STA     TEMP
      00122 -0130 00 0 00000         XCL
      00123  0560 00 0 00272         LDQ     TEMP
      00124  0020 00 0 00042         TRA     JN21+1
                              *
                              *              TEST FOR SYMBOL TABLE
      00125  0560 00 0 00266   SYT   LDQ     MAD
      00126  0625 00 0 00273         STT     TGTMP
      00127 -0520 00 0 00273         NZT     TGTMP
      00130  0560 00 0 00265         LDQ     UMAP
      00131  0734 00 4 00000         PAX     0,4
      00132  0600 00 0 77771         STZ     STLOC
      00133  0634 00 4 77771         SXA     STLOC,4
      00134 -0734 00 4 00000         PDX     0,4
      00135  0754 00 4 00000         PXA     0,4
      00136  0020 00 0 00115         TRA     T4
                              *


      00137  0634 00 4 00170  STH    SXA     STHX,4        SAVE IOH RETURN.
      00140  0634 00 2 00163  A1     SXA     WRTX2,2
      00141  0774 00 2 00026         AXT     22,2          BLANK
      00142 -0500 00 0 00302         CAL     =H            OUT
      00143  0602 00 2 00223         SLW     OUTPUT+22,2   OUTPUT

  BINARY CARD NO. SCH00006
      00144  2 00001 2 00143         TIX     *-1,2,1       BUFFER.
      00145 -0500 00 4 00001         CAL     1,4           IOH CONTROL WORD.
      00146  0771 00 0 00022         ARS     18            MOVE WORDS
      00147  0400 00 4 00001         ADD     1,4           FROM
      00150 -0734 00 2 00000         PDX     0,2           IOH
      00151 -0734 00 4 00000         PDX     0,4
      00152  0621 00 0 00160         STA     MOVE          BUFFER
      00153  0634 00 4 00174         SXA     CNTRL,4
      00154  1 00001 4 00155         TXI     *+1,4,1
      00155 -0634 00 4 00166         SXD     STHC,4
      00156  1 00174 4 00157         TXI     *+1,4,OUTPUT-1     TO
      00157  0634 00 4 00161         SXA     MOVE+1,4      STH
      00160 -0500 00 2 00000  MOVE   CAL     **,2          BUFFER
      00161  0602 00 2 00000         SLW     **,2          ...
      00162  2 00001 2 00160         TIX     MOVE,2,1      ...
      00163  0774 00 2 00000  WRTX2  AXT     **,2
      00164  0074 00 4 00000         TSX     .WRITE,4
1            FAP                                                                                 PAGE 4

      00165  0 00000 0 00172                 FILNAM        TO
      00166  0 00000 0 00174  STHC           CNTRL,,**     DISK.
      00167  0 00000 0 00264         PZE     ZZZ

  BINARY CARD NO. SCH00007
      00170  0774 00 4 00000  STHX   AXT     **,4
      00171  0020 00 4 00002         TRA     2,4           RETURN TO IOH.
      00172  336321472533     FILNAM BCI     1,.TAPE.
      00173  0 00000 0 00000         PZE
      00174 -377777000000     CNTRL  OCT     777777000000
      00175                   OUTPUT BSS     22


                              *  CONVERTS A BINARY VALUE IN MQ INTO A BCD NUMBER WITH LEADING BLANKS
                              *ROUTINE TO WRITE ON THE DISK

  BINARY CARD NO. SCH00008
      00223  0634 00 4 00262  CALLDK SXA     IR4,4

      00224  0634 00 1 00247  INTBC  SXA     IX1,1
      00225  0600 00 0 00276         STZ     ACLITE
      00226 -0140 00 0 00230         TNO     *+2
      00227 -0625 00 0 00276         STL     ACLITE
      00230  0600 00 0 00173         STZ    FILNAM+1
      00231  0774 00 1 00044         AXT     36,1
      00232 -0754 00 0 00000  RR     ZAC
      00233  0221 00 0 00301         DVP     =10
      00234  0767 00 1 00044         ALS     36,1
      00235 -0602 00 0 00173         ORS    FILNAM+1
      00236  2 00006 1 00232         TIX     RR,1,6
      00237 -0500 00 0 00173         CAL    FILNAM+1
      00240  0774 00 1 00044         AXT     36,1
      00241 -2 00006 1 00245  RT     TNX     RS,1,6
      00242 -0765 00 0 00006         LGR     6
      00243 -0100 00 0 00241         TNZ     RT
      00244 -0500 00 0 00302         CAL     =H
      00245 -0763 00 1 00044  RS     LGL     36,1
      00246  0602 00 0 00173         SLW    FILNAM+1

  BINARY CARD NO. SCH00009
      00247  0774 00 1 00000  IX1    AXT     **,1
      00250 -0520 00 0 00276         NZT     ACLITE
      00251  0140 00 0 00252         TOV     *+1
      00252  0074 00 4 00001         TSX     $.FSTAT,4
      00253  0 00000 0 00172                 FILNAM
      00254 -0 00000 0 00260         MZE     *+4
      00255  0074 00 4 00003         TSX     $APPEND,4
      00256  0 00000 0 00172                 FILNAM
      00257  0020 00 0 00262         TRA     *+3
      00260  0074 00 4 00004         TSX     $ASSIGN,4
      00261  0 00000 0 00172                 FILNAM
      00262  0774 00 4 00000  IR4    AXT     **,4
      00263  0020 00 4 00001         TRA     1,4
1            FAP                                                                                 PAGE 5

      00264  0020 60 0 00005  ZZZ    TRA*    $SNAP
                              *
      00265  3 77777 0 00000   UMAP  TXH     **,,-1
      00266  3 00001 0 00000   MAD   TXH     **,,1
      00267 -3 00001 0 00137   FORT  TXL     STH,,1
      00270 -3 00120 0 00000   CDCNT TXL     ,,80
      00271 -3 00204 0 00000   TPCNT TXL     ,,132
      00272  0 00000 0 00000  TEMP

  BINARY CARD NO. SCH00010
      00273  0 00000 0 00000   TGTMP
      00274  0 00000 0 00000   2SAVE
      00275  0 00000 0 00000  COLIND
      00276                   ACLITE BSS     1             ZERO IF AC LITE WAS OFF - J WOOD 1 FEB 1965
                              *
                              *
                       00026  RECLEN EQU     22
                       77771         COMMON  -200
                       77771   STLOC COMMON  1
                       77742         COMMON  RECLEN
                       77742   REC   COMMON  1
                       77741   COL   COMMON  1
                       77740   RTN   COMMON  1
                       77737   FMT   COMMON  1
                                     END

        LITERALS

  BINARY CARD NO. SCH00011
      00277  000000000001
      00300  000000000003
      00301  000000000012
      00302  606060606060
1            FAP                                                                                 PAGE 1
                        POST PROCESSOR ASSEMBLY DATA

       77736 IS THE LAST LOCATION NOT USED BY THIS PROGRAM
        303 IS THE FIRST LOCATION NOT USED BY THIS PROGRAM

0REFERENCES TO DEFINED SYMBOLS
        140     A1
        232     RR   236
        245     RS   241
        241     RT   243
        104     T1    57,  101
        115     T4   105,  136
      77741    COL    47,  277
      77737    FMT    42,  277
        262    IR4   223
        247    IX1   224
         71    .TR    63
        266    MAD    44,  111,  125
      77742    REC   277
      77740    RTN    25,   43,   45,   67,  277
        137    STH   267
        125    SYT   114
        264    ZZZ   167
        267   FORT    23,  120
         21   IXR4    17
         56   .PU1    53
         41   JN21    24,   32,  124
        160   MOVE   152,  157,  162
          5   SNAP   264
        166   STHC   155
        170   STHX   137
        272   TEMP    33,   36,   40,  116,  121,  123
        265   UMAP    35,  113,  130
        274  2SAVE    65
        270  CDCNT    10,   51
        174  CNTRL   153,  166
        224  INTBC
         64  JOIN1    60
         17  SAVE4    13
      77771  STLOC   132,  133,  277
        273  TGTMP   126,  127
        271  TPCNT    14,   61
        163  WRTX2   140
          2  (IOH)    50
         10  (SCH)     0
         14  (STH)     0,   14
        276 ACLITE   225,  227,  250
          3 APPEND   255
          4 ASSIGN   260
        223 CALLDK    20,   55,   77
        275 COLIND    11,   15,   46,   52,   62
        172 FILNAM   165,  230,  235,  237,  246,  253,  256,  261
          1 .FSTAT   252
         51 .PNCHL     0,   51
         51 .PUNCH     0,   51
         61 .TAPWR     0,   61
1            FAP                                                                                 PAGE 2
                        POST PROCESSOR ASSEMBLY DATA

          0 .WRITE   164
        175 OUTPUT   143,  156
         26 RECLEN   277
         14 (STHM)     0,   14

0 NO ERROR IN ABOVE ASSEMBLY.


  SCHN   BCD 06/25/69 2049.0   10852         00000
1            SCHAIN  SETS AND EXECUTES A CHAIN OF COMMANDS.                      04/23/69 2323.0 PAGE 1

                              *      SAVES COMMAND LISTS AND COUNTERS.
                              *      READS A BCD FILE, JUSTIFIES THE ARGUMENTS, SUBSTITUTES DUMMIES
                              *      WITH ACTUAL VALUES.
                              *      LOADS 3 COMMANDS, BRACKETTED BY 'SAVE' AND 'RESUME'.
                              *      STARTS EXECUTION OF THE CHAIN.
                              *      ON RETURN LOADS 3 MORE COMMANDS, AND SO FORTH, UNTIL THE FILE OF
                              *      COMMANDS IS EXHAUSTED.
                              *      RESTORE PREVIOUS COMMAND BUFFERS AND COUNTERS, RETURN TO CALLER.
                              * CALLING SEQUENCE
                              * MAD  A = SCHAIN.(FIL, ANY MAD LIST OR NOTHING)
                              *      WHERE FIL IS A 2 WORDS VECT.VAL. GIVING THE NAMES OF THE FILE OF
                              *      COMMANDS
                              *      RETURNS A=0 IF EXECUTION WITHOUT ERROR (AS FAR AS SCHAIN CAN KNOW
                              *      OR A=ERROR CODE
                              *      OR A=...XXX  WHICH IS THE NAME OF A FILE ...XXX SAVED REPRESENTIN
                              *      THE LAST CORE IMAGE LEFT BY THE LAST COMMAND IN THE CHAIN.
                              *      A MAD LIST IS E.G. B, C(3), D(I)...D(J), W(-7), ETC...
                              *      WITH THE EXCEPTION OF FILE NAMES, NO ARGUMENT NEED BE RIGHT JUSTI
                              * COMPUTATION CENTER            LOUIS POUZIN
                              *      MAY 64
                              *
                                             MODIFIED FOR NEW FILE SYSTEM  JUNE 65  EMK

                              *      SWITCHES TO COMMON FILE A
                              SWUS   MACRO   A
                                     CAL     A
                                     TSX     SWCF,3
                              SWUS   END


                              *      SAVES MACHINE REGISTERS
                              SAV    MACRO
                                     STI     IND
                                     SXA     X1,1
                                     SXA     X2,2
                                     SXA     X3,3
                                     SXD     X4,4
                                     AXT     -1,2
                                     AXT     ,3
                                     SXA     XMOD,2
                                     LMTM
                                     NZT     XMOD
                                     SXA     X3,3
                                     SXA     X5,5
                                     SXA     X6,6
                                     SXA     X7,7
                              SAV    END


                              *      RESTORES MACHINE REGISTERS
                              RSTOR  MACRO
                                     LDI     IND
                              X3     AXT     **,3
                              X5     AXT     **,5
                              X6     AXT     **,6
                              X7     AXT     **,7
1            SCHAIN  SETS AND EXECUTES A CHAIN OF COMMANDS.                      04/23/69 2323.0 PAGE 2

                                     NZT     XMOD
                                     EMTM
                              X1     AXT     **,1
                              X2     AXT     **,2
                                     LXD     X4,4
                              RSTOR  END
                              TEMP1  MACRO   A,B           UNTIL T MODE FILES ARE KEPT IN COMMON FILES
                                     ZET     FAIL
                                     NZT     LCF
                                     TRA     B
                                     TSX     $CHFILE,4
                                     PTH     RESTOR+1
                                     PTH     RESTOR+2
                                     PTH     =1
                                     PTH     =-0           DO NOT ALTER
                                     PTH     =-0           ..
                                     PTH     *+1           ERROR RETURN
                              B      SYN     *
                              TEMP1  END


  BINARY CARD NO. SCHAIN00
                       00035         ENTRY   SCHAIN

        TRANSFER VECTOR

  BINARY CARD NO. SCHAIN01
      00000  274521446060     GNAM
      00001  272563232645     GETCFN
      00002  234643636060     COLT
      00003  266263216325     FSTATE
      00004  622525426060     SEEK
      00005  444665250160     MOVE1
      00006  444665250260     MOVE2
      00007  514164626360     RJUST
      00010  444665250360     MOVE3
      00011  272563234362     GETCLS
      00012  272563234323     GETCLC
      00013  242543256325     DELETE
      00014  665126436760     WRFLX
      00015  622563254626     SETEOF
      00016  655125212460     VREAD
      00017  644547214243     UNPAKL
      00020  712543606060     ZEL
      00021  622563234362     SETCLS
      00022  276345214460     GTNAM
      00023  464725456060     OPEN

  BINARY CARD NO. SCHAIN02
      00024  665126314325     WRFILE
      00025  234346622560     CLOSE
      00026  622563234323     SETCLC
1            SCHAIN  SETS AND EXECUTES A CHAIN OF COMMANDS.                      04/23/69 2323.0 PAGE 3

      00027  233026314325     CHFILE
      00030  233045234644     CHNCOM
      00031  234644263143     COMFIL
      00032  244651444563     DORMNT

            LINKAGE DIRECTOR
      00033  000000000000
      00034  622330213145

                       00660  DBUF   EQU     432


                       00033  X4     SYN     *-2

                       00035  SCHAIN SYN     *
      00035                          SAV
      00035  0604 00 0 01120         STI     IND                                                              .001
      00036  0634 00 1 00677         SXA     X1,1                                                             .001
      00037  0634 00 2 00700         SXA     X2,2                                                             .001
      00040  0634 00 3 00671         SXA     X3,3                                                             .001
      00041 -0634 00 4 00033         SXD     X4,4                                                             .001
      00042  0774 00 2 77777         AXT     -1,2                                                             .001
      00043  0774 00 3 00000         AXT     ,3                                                               .001
      00044  0634 00 2 01121         SXA     XMOD,2                                                           .001
      00045  0760 00 0 00016         LMTM                                                                     .001
      00046 -0520 00 0 01121         NZT     XMOD                                                             .001
      00047  0634 00 3 00671         SXA     X3,3                                                             .001

  BINARY CARD NO. SCHAIN03
      00050  0634 00 5 00672         SXA     X5,5                                                             .001
      00051  0634 00 6 00673         SXA     X6,6                                                             .001
      00052  0634 00 7 00674         SXA     X7,7                                                             .001
      00053  0057 00  777777         RIR     /
      00054  0600 00 0 01123         STZ     FAIL
      00055  0634 00 0 00165         ZSA     BL            CLEAR READING COUNTER
      00056  0055 00  000200         SIR     COMSW         IN CASE 1ST COMMAND SWITCHES U.F.D.
      00057  0774 00 4 00024         AXT     CL,4
      00060 -0500 00 0 01663         CAL     =H
      00061  0602 00 4 01203         SLW     ARG1+CL,4
      00062  2 00001 4 00061         TIX     *-1,4,1
      00063  0074 00 4 00000         TSX     $GNAM,4       GET FILE NAMES
      00064  0 00000 0 00033         PZE     X4
      00065  0 00000 0 01131         PZE     FIL
      00066  0074 00 4 00001         TSX     $GETCFN,4
      00067  0602 00 0 01125         SLW     HCF           HOME COMMON FILE
      00070  0602 00 0 01124         SLW     CCF           CURRENT COMMON FILE SWITCHED
      00071  0602 00 0 01127         SLW     PCF           PREVIOUS LOCAL COMMON FILE
      00072  0602 00 0 01126         SLW     LCF
      00073  0074 00 4 00002         TSX     $COLT,4

  BINARY CARD NO. SCHAIN04
      00074  0 00000 0 00033         PZE     X4
      00075 -0734 00 1 00000         PDX     ,1            LENGTH OF CALLING SEQUENCE
      00076  0636 00 4 00703         SCA     AH,4          SAVE RETURN
      00077  0636 00 4 00115         SCA     AB,4          LST ADDRESS AFTER CALLING SEQUENCE
      00100  0074 00 4 00003         TSX     $FSTATE,4
1            SCHAIN  SETS AND EXECUTES A CHAIN OF COMMANDS.                      04/23/69 2323.0 PAGE 4

      00101  3 00000 0 01131         PTH     FIL
      00102  3 00000 0 01132         PTH     FIL+1
      00103  3 00010 0 01110         PTH     ARRAY,,8
      00104  3 00000 0 00705         PTH     ZZ+1          ERROR RETURN
      00105 -0500 00 0 01132         CAL     FIL+1         SET NAMES BACKWARD
      00106  0602 00 0 01130         SLW     FIL-1         FOR MAD CALL TO VREAD
      00107  0074 00 4 00004         TSX     $SEEK,4
      00110  0 00000 0 01131         PZE     FIL
      00111  0074 00 4 00005         TSX     $MOVE1,4
      00112  2 01250 0 01226         TIX     ACTARG,,ACTARG+CL-2
      00113  0774 00 2 00000         AXT     ,2            INIT ARGUMENTS WORD COUNT
      00114  0020 00 0 00131         TRA     AE            CHECK IF ANY ARGUMENT
      00115 -0500 00 1 00000  AB     CAL     **,1          FROM 2ND TO LAST ARGUMENT
      00116  0602 00 0 00120         SLW     AC
      00117  0074 00 4 00006         TSX     $MOVE2,4

  BINARY CARD NO. SCHAIN05
      00120  0 00000 0 00000  AC     ***     **,,**        SUCCESSIVE ARGUMENTS FROM CALL TO SCHAIN
      00121  0601 00 0 01277  AK     STO     K
      00122  1 77777 2 00123         TXI     *+1,2,-1      WORD COUNTER
      00123  0402 00 0 01663         SUB     =H
      00124  0100 00 0 00127         TZE     BT            SKIP IF ALL BLANK
      00125  0074 00 4 00007         TSX     $RJUST,4
      00126  0 00000 0 01277         PZE     K
      00127 -1 00131 0 00132  BT     STR     AD,,AE
      00130  0020 00 0 00121         TRA     AK
      00131  2 00001 1 00115  AE     TIX     AB,1,1
      00132 -0634 00 2 00343  AD     SXD     SS,2          ARGUMENT LIST EXHAUSTED
      00133  0074 00 4 00010         TSX     $MOVE3,4


                              *      SAVE COMMAND LISTS BUFFERS AND COUNTERS.

      00134  0774 00 1 00001         AXT     1,1
      00135  0774 00 2 01504         AXT     CBUF,2
      00136  0634 00 2 00141  U      SXA     *+3,2
      00137 -0634 00 1 00141         SXD     *+2,1
      00140  0074 00 4 00011         TSX     $GETCLS,4
      00141  0 00000 0 00000         PZE     **,,**
      00142  1 00024 2 00143         TXI     *+1,2,CL
      00143  1 00001 1 00144         TXI     *+1,1,1

  BINARY CARD NO. SCHAIN06
      00144 -3 00005 1 00136         TXL     U,1,CN
      00145  0074 00 4 00012         TSX     $GETCLC,4
      00146  0602 00 0 01122         SLW     CLC
      00147 -0100 00 0 00157         TNZ     A
      00150  0074 00 4 00013         TSX     $DELETE,4
      00151  0 00000 0 01036         PZE     FIL1
      00152  0100 00 0 00157         TZE     A
      00153  0601 00 0 01123         STO     FAIL
      00154  0074 00 4 00014         TSX     $WRFLX,4
      00155  0 00003 0 01045         PZE     MES1,,3
      00156  0020 00 0 00670         TRA     OUT
                       00157  A      SYN     *
      00157  0074 00 4 00015         TSX     $SETEOF,4
1            SCHAIN  SETS AND EXECUTES A CHAIN OF COMMANDS.                      04/23/69 2323.0 PAGE 5

      00160  0 00000 0 00630         PZE     EOF           RETURN WHEN FILE ENDS
      00161  0774 00 2 00002         AXT     FC,2          BEGIN WITH COMMAND NO. 2  (USUALLY)
                       00162  B      SYN     *
                       00162  BE     SYN     *
      00162  0074 00 4 00016         TSX     $VREAD,4
      00163  3 00000 0 01131         PAR     FIL
      00164  2 01276 0 01251         TIX     AG,,AG+RL-1
      00165  0774 00 4 00000  BL     AXT     **,4          READING COUNTER
      00166  1 00001 4 00167         TXI     *+1,4,1
      00167  0634 00 4 00165         SXA     *-2,4

  BINARY CARD NO. SCHAIN07
      00170  0120 00 0 00174         TPL     BS            SKIP IF VARIABLE LENGTH RECORD
      00171 -0340 00 0 01654         LAS     =12           CARD IMAGE NOT LONGER THAN 12 WORDS
      00172 -0500 00 0 01654         CAL     =12
      00173  0761 00 0 00000         NOP
      00174 -0340 00 0 01655  BS     LAS     =22           BCD RECORD NOT LONGER THAN 22 WORDS
      00175 -0500 00 0 01655         CAL     =22
      00176  0761 00 0 00000         NOP
      00177 -0130 00 0 00000         XCL                   IGNORE SIGN
      00200  0200 00 0 01653         MPY     =6             CHARACTER COUNT
      00201 -0763 00 0 00066         LGL     36+18
      00202  0760 00 0 00006         COM                   -COUNT-1
      00203  0622 00 0 00272         STD     AA
      00204  0622 00 0 00245         STD     GG


                              *      TEST FOR 1ST CHARACTER IN THE LINE

      00205  0074 00 4 00017         TSX     $UNPAKL,4     UNPACKS LINE
      00206  2 01276 0 01251         TIX     AG,,AG+RL-1
      00207  2 01503 0 01300         TIX     K+1,,K+6*RL
      00210  0500 00 0 01300         CLA     K+1
      00211  0402 00 0 01660         SUB     =H*00000
      00212  0100 00 0 00162         TZE     B
      00213  0500 00 0 01300         CLA     K+1

  BINARY CARD NO. SCHAIN08
      00214  0402 00 0 01657         SUB     =H$00000
      00215 -0100 00 0 00236         TNZ     F
      00216  0056 00  000100         RNT     COMSET
      00217  0020 00 0 00232         TRA     BB
      00220  0056 00  000040         RNT     LKHED
      00221 -3 00002 2 00232         TXL     BB,2,FC
      00222  0054 00  000020         RFT     PRINT
      00223  0020 00 0 00232         TRA     BB            KEEP PRINTING
      00224  0055 00  000021         SIR     NDLOT+PRINT
      00225  0057 00  000040         RIR     LKHED
      00226 -0500 00 0 01157  BQ     CAL     ARG1          CHECKS CURRENT COMMAND
      00227  0020 00 0 00443         TRA     J-1           GO CHECK CN-1 TH.
                       00230  BA     SYN     *
      00230  0056 00  000020         RNT     PRINT
      00231  0020 00 0 00367         TRA     BC            GO ON WITH NEXT COMMAND
      00232  0055 00  000020  BB     SIR     PRINT
      00233  0074 00 4 00014         TSX     $WRFLX,4
      00234  0 00014 0 01251         PZE     AG,,12
1            SCHAIN  SETS AND EXECUTES A CHAIN OF COMMANDS.                      04/23/69 2323.0 PAGE 6

      00235  0020 00 0 00162         TRA     B             NEXT LINE FROM FILE


                              *      TEST OF 1ST WORD

                       00236  F      SYN     *
      00236  0774 00 6 00024         AXT     CL,6
      00237 -0500 00 0 01663         CAL     =H

  BINARY CARD NO. SCHAIN09
      00240  0602 00 6 01157         SLW     ARG+CL,6      BLANK OUT ARGUMENT LIST
      00241  2 00001 6 00240         TIX     *-1,6,1
      00242  0774 00 6 00000         AXT     0,6           WORD INDEX
      00243  0774 00 7 77777         AXT     -1,7          CHARACTER INDEX
      00244  0020 00 0 00246         TRA     *+2
      00245 -3 00000 7 00311  GG     TXL     L,7,**        -CHAR COUNT - 1
      00246 -0500 00 7 01277         CAL     K,7
      00247 -0340 00 0 01661         LAS     =O570000000000
      00250  0020 00 0 00252         TRA     G-4
      00251 -0500 00 0 01662         CAL     =H 00000
      00252 -0340 00 0 01662         LAS     =H 00000
      00253  0020 00 0 00265         TRA     C
      00254  1 77777 7 00245         TXI     GG,7,-1
      00255  0020 00 0 00265         TRA     C
      00256 -0500 00 7 01277  G      CAL     K,7
      00257 -0340 00 0 01661         LAS     =O570000000000
      00260  0020 00 0 00262         TRA     C-3
      00261 -0500 00 0 01662         CAL     =H 00000
      00262 -0340 00 0 01662         LAS     =H 00000      ANY BLANK FIELD IS A DELIMITER
      00263  0020 00 0 00265         TRA     *+2           BETWEEN ARGUMENTS

  BINARY CARD NO. SCHAIN10
      00264  1 77777 6 00274         TXI     D,6,-1
      00265 -0130 00 0 00000  C      XCL
      00266 -0500 00 6 01133         CAL     ARG,6
      00267 -0763 00 0 00006         LGL     6             AT MOST 6 RIGHTMOST CHARACTERS ARE KEPT
      00270  0602 00 6 01133         SLW     ARG,6
      00271  1 77777 7 00272         TXI     *+1,7,-1
      00272  3 00000 7 00256  AA     TXH     G,7,**        LOOP IF MORE CHARACTERS
      00273  1 77777 6 00274         TXI     *+1,6,-1
      00274 -3 77776 6 00307  D      TXL     H,6,-2        SKIP UNLESS 1ST WORD
                              *      INSERT HERE CHECK OF ALWAYS PERMITTED KEYWORDS
      00275  0057 00  000020         RIR     PRINT
      00276 -0500 00 0 01133         CAL     ARG
      00277  0056 00  000002         RNT     TCHAIN        SKIP WHEN 'CHAIN' ALREADY OCCURRED
      00300 -0340 00 0 01035         LAS     CHAIN
      00301  0020 00 0 00303         TRA     *+2
      00302  0020 00 0 00304         TRA     AJ
      00303  0020 00 0 00307         TRA     H
      00304  0054 00  000100  AJ     RFT     COMSET        SKIP IF NO EXECUTABLE COMMAND YET
      00305  0020 00 0 00727         TRA     ERROR
      00306  0055 00  000006         SIR     TCHAIN+ARGLIS
                              *      INSERT HERE CHECK OF KEYWORDS ALLOWED AFTER 'CHAIN' ONLY
      00307 -3 77755 6 00311  H      TXL     L,6,-CL+1     SKIP WHEN ONLY FENCE LEFT
1            SCHAIN  SETS AND EXECUTES A CHAIN OF COMMANDS.                      04/23/69 2323.0 PAGE 7

  BINARY CARD NO. SCHAIN11
      00310  1 77777 7 00245         TXI     GG,7,-1       NEXT WORD

      00311 -3 00000 6 00162  L      TXL     B,6,0         NEXT LINE IF ALL BLANK
      00312 -0500 00 0 01072         CAL     FENCE
      00313  0602 00 6 01133         SLW     ARG,6         SET FENCE
      00314  0056 00  000004         RNT     ARGLIS
      00315  0020 00 0 00327         TRA     P             NOT A 'CHAIN' KEYWORD


                              *      SETS DUMMY ARGUMENTS LIST

      00316 -0634 00 6 00324         SXD     N,6
      00317 -0634 00 6 00344         SXD     S,6
      00320  0774 00 1 00000         AXT     0,1
      00321 -0500 00 1 01133  M      CAL     ARG,1         FENCE IS NOT TRANSMITTED
      00322  0602 00 1 01203         SLW     ARLIS,1
      00323  1 77777 1 00324         TXI     *+1,1,-1
      00324  3 00000 1 00321  N      TXH     M,1,**        ** = -NR. OF DUMMIES
      00325  0057 00  000004         RIR     ARGLIS
      00326  0020 00 0 00162         TRA     B             NEXT COMMAND


                              *      SUBSTITUTES DUMMY ARGUMENTS

                       00327  P      SYN     *
      00327 -0634 00 6 00350         SXD     S1,6
      00330  0056 00  000002         RNT     TCHAIN
      00331  0020 00 0 00351         TRA     W1            NO DUMMY ARGUMENTS
      00332 -0534 00 4 00343         LXD     SS,4
      00333 -3 00000 4 00351         TXL     W1,4,0        SKIP WHEN NO ACTUAL ARGUMENTS

  BINARY CARD NO. SCHAIN12
      00334  0774 00 1 00000         AXT     0,1           IX1 = ARGUMENT IN COMMAND
      00335 -0500 00 1 01133  R      CAL     ARG,1
      00336  0774 00 4 00000         AXT     0,4           IX4 = DUMMY IN CHAIN PSEUDO
      00337 -0340 00 4 01204  Q      LAS     ARLIS+1,4
      00340  1 77777 4 00343         TXI     SS,4,-1       NEXT DUMMY ARGUMENT
      00341  1 77777 1 00346         TXI     BU,1,-1       GO TO SUBSTITUTION
      00342  1 77777 4 00343         TXI     SS,4,-1       NEXT DUMMY ARGUMENT
      00343 -3 00000 4 00345  SS     TXL     *+2,4,**      SKIP WHEN NO MORE ACTUAL ARGUMENTS. **=-WC
      00344  3 00000 4 00337  S      TXH     Q,4,**        NEXT ARGUMENT IN 'CHAIN'   ** = -NR OF DUMM
      00345  1 77777 1 00350         TXI     *+3,1,-1
      00346 -0500 00 4 01226  BU     CAL     ACTARG,4      GET ACTUAL VALUE
      00347  0602 00 1 01132         SLW     ARG-1,1       AND SUBSTITUTES IN COMMAND LIST
      00350  3 00000 1 00335  S1     TXH     R,1,**        NEXT ARGUMENT IN COMMAND.  ** = -N-1 ARG


                              *      CHECKS IF (NIL) OR (END) PSEUDO-COMMAND
                       00351  W1     SYN     *
      00351  0500 00 0 01133         CLA     ARG
      00352  0402 00 0 01033         SUB     NIL
      00353  0100 00 0 00162         TZE     B             NIL IGNORED. TO NEXT COMMAND
      00354  0500 00 0 01133         CLA     ARG
      00355  0402 00 0 01034         SUB     END
      00356  0100 00 0 00630         TZE     EOF           FORCES END OF PROCESS
1            SCHAIN  SETS AND EXECUTES A CHAIN OF COMMANDS.                      04/23/69 2323.0 PAGE 8

      00357  0054 00  000040         RFT     LKHED         SKIP WHEN LOOK UP NEXT COMMAND

  BINARY CARD NO. SCHAIN13
      00360  0020 00 0 00432         TRA     AF
      00361  0074 00 4 00707         TSX     SWUFD,4       CHECK FOR A SWITCHING COMMAND
      00362 -3 00000 3 00366         TXL     BN,3,0        SKIP IF NO
      00363  0055 00  000200         SIR     COMSW         IT MIGHT
      00364  3 00002 3 00366         TXH     BN,3,AQ-COMF-1          IT IS COMFIL
      00365  0055 00  000400         SIR     COPY          ANOTHER IMPLICIT SWITCHING COMMAND
      00366  0055 00  000140  BN     SIR     COMSET+LKHED
                              *      SET CURRENT COMMAND. SQUEEZES 'NIL'S AND REPLACES 'END'S.
                       00367  BC     SYN     *
      00367  0560 00 0 01072         LDQ     FENCE         FENCE
      00370  0774 00 4 00024         AXT     CL,4
      00371  0774 00 1 00025         AXT     CL+1,1
      00372 -0500 00 4 01157  BG     CAL     ARG+CL,4
      00373 -0340 00 0 01033         LAS     NIL
      00374  0020 00 0 00376         TRA     *+2
      00375  0020 00 0 00403         TRA     BM
      00376 -0340 00 0 01034         LAS     END
      00377  0020 00 0 00401         TRA     *+2
      00400 -0130 00 0 00000         XCL                   END REPLACED BY A FENCE
      00401  1 77777 1 00402         TXI     *+1,1,-1
      00402  0602 00 1 01203         SLW     ARG1+CL,1
      00403  2 00001 4 00372  BM     TIX     BG,4,1
                              *      CHECKS IF COMMAND MAY SWITCH U.F.D.

  BINARY CARD NO. SCHAIN14
      00404  0056 00  000200         RNT     COMSW
      00405  0020 00 0 00162         TRA     B             TO NEXT COMMAND
      00406  0054 00  000400         RFT     COPY
      00407  0020 00 0 00426         TRA     AM
      00410  0500 00 0 01157         CLA     ARG1
      00411  0402 00 0 00755         SUB     COMF
      00412 -0100 00 0 00430         TNZ     AN            SKIP IF NOT 'COMFIL'
      00413 -0534 00 1 00350         LXD     S1,1
      00414  0600 00 0 01126         STZ     LCF
      00415  3 77776 1 00424         TXH     AL,1,-2       SKIP IF NO ARGUMENT
      00416 -0500 00 0 01160         CAL     ARG1+1        1ST ARGUMENT
      00417  0322 00 0 01072         ERA     FENCE
      00420  0100 00 0 00424         TZE     AL            SKIP IF FENCE
      00421  0074 00 4 00020         TSX     $ZEL,4
      00422  0 00000 0 01160         PZE     ARG1+1
      00423  0601 00 0 01126         STO     LCF           NEW COMMON FILE
      00424  0057 00  000040  AL     RIR     LKHED
      00425  0020 00 0 00162         TRA     B             TO NEXT COMMAND
      00426  0600 00 0 01126  AM     STZ     LCF
      00427  0057 00  000400         RIR     COPY

  BINARY CARD NO. SCHAIN15
      00430  0057 00  000200  AN     RIR     COMSW
      00431  0020 00 0 00162         TRA     B             TO NEXT COMMAND
                       00432  AF     SYN     *
      00432  0074 00 4 00707         TSX     SWUFD,4       IS IT A SWITCHING COMMAND
      00433  3 00002 3 00440         TXH     AT,3,AQ-COMF-1 COMFIL IS NEXT
      00434 -3 00000 3 00442         TXL     AS,3,0        NO SWITCHING IN NEXT
1            SCHAIN  SETS AND EXECUTES A CHAIN OF COMMANDS.                      04/23/69 2323.0 PAGE 9

      00435 -0520 00 0 01126         NZT     LCF
      00436  0020 00 0 00464         TRA     W
      00437  0055 00  000400         SIR     COPY
      00440  0055 00  000201  AT     SIR     NDLOT+COMSW
      00441  0020 00 0 00464         TRA     W
      00442 -3 00002 2 00464  AS     TXL     W,2,CN-3      NO COMFIL SWITCHING IN NEXT COMMAND
      00443  3 00003 2 00464         TXH     W,2,CN-2
                              *      SPECIAL PROCEDURE FOR THE (CN-2)TH COMMAND
                       00444  J      SYN     *
      00444  0774 00 3 00037         AXT     AY-AX,3
      00445 -0340 00 3 01033         LAS     AY,3          DOES NEXT LET CORE IMAGE.  LAC = ARG
      00446  0020 00 0 00450         TRA     *+2
      00447  0020 00 0 00452         TRA     AZ            YES
      00450  2 00001 3 00445         TIX     *-3,3,1
      00451  0020 00 0 00464         TRA     W             NO
                       00452  AZ     SYN     *
      00452  0054 00  000030         RFT     PRINT+EF
      00453  0020 00 0 00462         TRA     X

  BINARY CARD NO. SCHAIN16
      00454  0774 00 3 00014         AXT     AW-AV,3
      00455 -0340 00 3 00774         LAS     AW,3          DOES NEXT EXPECT CORE IMAGE
      00456  0020 00 0 00460         TRA     *+2
      00457  0020 00 0 00462         TRA     X             YES
      00460  2 00001 3 00455         TIX     *-3,3,1
      00461  0020 00 0 00463         TRA     X+1
      00462  0055 00  002000  X      SIR     CORE
      00463  0055 00  000001         SIR     NDLOT
                              *      LOADS COMMAND LIST

      00464 -0634 00 2 00466  W      SXD     *+2,2
      00465  0074 00 4 00021         TSX     $SETCLS,4
      00466  0 00000 0 01157         PZE     ARG1,,**
      00467  1 00001 2 00470         TXI     *+1,2,1       NEXT COMMAND
      00470  3 00004 2 00473         TXH     AP,2,CN-1     SKIP IF LAST-1 COMMAND
      00471  0056 00  000001         RNT     NDLOT
      00472  0020 00 0 00367         TRA     BC            TO NEXT COMMAND
                       00473  AP     SYN     *
      00473                          SWUS    LCF
      00473 -0500 00 0 01126         CAL     LCF                                                              .001
      00474  0074 00 3 00717         TSX     SWCF,3                                                           .001
      00475 -0500 00 0 01126         CAL     LCF
      00476  0402 00 0 01127         SUB     PCF
      00477  0100 00 0 00501         TZE     *+2           SKIP IF SAME COMFIL FOR CHAIN

  BINARY CARD NO. SCHAIN17
      00500  0057 00  005000         RIR     NAM+NAM1      TO GET NEW NAMES
      00501  0054 00  001000         RFT     NAM
      00502  0020 00 0 00510         TRA     Y


                              *      GETS A FILE NAME FOR TEMPORARY STORAGE
1            SCHAIN  SETS AND EXECUTES A CHAIN OF COMMANDS.                      04/23/69 2323.0 PAGE 10

      00503  0074 00 4 00022         TSX     $GTNAM,4
      00504  0 00000 0 01037         PZE     SAVED
      00505  0055 00  001000         SIR     NAM
      00506  0601 00 0 01070         STO     SAVE+1
      00507  0601 00 0 01074         STO     RESUME+1


                              *      SETS BRACKET COMMANDS

                       00510  Y      SYN     *
      00510  0074 00 4 00021         TSX     $SETCLS,4
      00511  0 00001 0 01067         PZE     SAVE,,1
      00512  0056 00  002000         RNT     CORE
      00513  0020 00 0 00551         TRA     Z
      00514  0054 00  004000         RFT     NAM1
      00515  0020 00 0 00545         TRA     T             SKIP IF NAME ASSIGNED
      00516  0074 00 4 00023         TSX     $OPEN,4       CREATE DUMMY FILE
      00517  3 00000 0 01664         PTH     =H     W
      00520  3 00000 0 01074         PTH     RESUME+1
      00521  3 00000 0 01075         PTH     RESUME+2
      00522  3 00000 0 01651         PTH     =1            TEMPORARY FILE
      00523  3 00000 0 01652         PTH     =2            DISK

  BINARY CARD NO. SCHAIN18
      00524  0074 00 4 00024         TSX     $WRFILE,4
      00525  3 00000 0 01074         PTH     RESUME+1
      00526  3 00000 0 01075         PTH     RESUME+2
      00527  3 00000 0 01650         PTH     =0            CONTINUE WRITING.
      00530  3 00024 0 01157         PTH     ARG1,,CL
      00531  3 00000 0 01656         PTH     =-0           EOF ON WRITE
      00532  3 00000 0 01656         PTH     =-0           EOFCT ON WRITE
      00533  3 00000 0 00705         PTH     ZZ+1
      00534  0074 00 4 00025         TSX     $CLOSE,4
      00535  3 00000 0 01074         PTH     RESUME+1
      00536  3 00000 0 01075         PTH     RESUME+2
      00537  3 00000 0 00705         PTH     ZZ+1
      00540  0074 00 4 00022         TSX     $GTNAM,4
      00541  0 00000 0 01037         PZE     SAVED
      00542  0055 00  004000         SIR     NAM1
      00543  0601 00 0 01100         STO     SAVE1+1       SET NAMES FOR CORE IMAGE
      00544  0601 00 0 01104         STO     RESTOR+1
                       00545  T      SYN     *
      00545 -0634 00 2 00547         SXD     *+2,2
      00546  0074 00 4 00021         TSX     $SETCLS,4
      00547  0 00000 0 01077         PZE     SAVE1,,**     SAVE CORE IMAGE

  BINARY CARD NO. SCHAIN19
      00550  1 00001 2 00551         TXI     *+1,2,1
                       00551  Z      SYN     *
      00551 -0634 00 2 00553         SXD     *+2,2
      00552  0074 00 4 00021         TSX     $SETCLS,4
      00553  0 00000 0 01073         PZE     RESUME,,**
1            SCHAIN  SETS AND EXECUTES A CHAIN OF COMMANDS.                      04/23/69 2323.0 PAGE 11

                              *      STARTS CHAIN

      00554 -0754 00 2 00000         PXD     ,2
      00555  0400 00 0 01651         ADD     =1
      00556  0074 00 4 00026         TSX     $SETCLC,4
      00557                          TEMP1
      00557  0520 00 0 01123         ZET     FAIL                                                             .001
      00560 -0520 00 0 01126         NZT     LCF                                                              .001
      00561  0020 00 0 00571         TRA     ..002                                                            .001
      00562  0074 00 4 00027         TSX     $CHFILE,4                                                        .001
      00563  3 00000 0 01104         PTH     RESTOR+1                                                         .001
      00564  3 00000 0 01105         PTH     RESTOR+2                                                         .001
      00565  3 00000 0 01651         PTH     =1                                                               .001
      00566  3 00000 0 01656         PTH     =-0           DO NOT ALTER                                       .001
      00567  3 00000 0 01656         PTH     =-0           ..                                                 .001
      00570  3 00000 0 00571         PTH     *+1                                                              .001
                       00571  ..002  SYN     *                                                                .001
      00571  0600 00 0 01123         STZ     FAIL          RESET POSSIBLE FILE NAME
      00572  0074 00 4 00030         TSX     $CHNCOM,4
      00573  3 00000 0 01651         PAR     =1            KEEP CORE IMAGE


                              *      RETURN  AFTER CHAIN EXECUTED


  BINARY CARD NO. SCHAIN20
      00574  0056 00  002000         RNT     CORE
      00575  0020 00 0 00605         TRA     BJ+1
      00576  0074 00 4 00003         TSX     $FSTATE,4
      00577  3 00000 0 01104         PTH     RESTOR+1
      00600  3 00000 0 01105         PTH     RESTOR+2
      00601  3 00010 0 01110         PTH     ARRAY,,8
      00602  3 00000 0 00604         PTH     BJ
      00603  0020 00 0 00607         TRA     BP
      00604  0057 00  002000  BJ     RIR     CORE          NO FILE FOR CORE IMAGE
      00605  0074 00 4 00013         TSX     $DELETE,4
      00606  0 00000 0 01074         PZE     RESUME+1      DELETE CHAIN CORE IMAGE
                       00607  BP     SYN     *
      00607  0054 00  000010         RFT     EF
      00610  0020 00 0 00635         TRA     E
      00611 -0500 00 0 01126         CAL     LCF
      00612  0602 00 0 01127         SLW     PCF           LOCAL COMFIL BECOMES PREVIOUS
      00613                          SWUS    HCF
      00613 -0500 00 0 01125         CAL     HCF                                                              .001
      00614  0074 00 3 00717         TSX     SWCF,3                                                           .001
      00615  0057 00  000001         RIR     NDLOT
      00616  0774 00 2 00002         AXT     FC,2
      00617  0056 00  002000         RNT     CORE

  BINARY CARD NO. SCHAIN21
      00620  0020 00 0 00230         TRA     BA            TO NEXT BATCH
      00621 -0634 00 2 00623         SXD     *+2,2
      00622  0074 00 4 00021         TSX     $SETCLS,4
      00623  0 00000 0 01103         PZE     RESTOR,,**    RESTORE CORE IMAGE
      00624 -0500 00 0 01104         CAL     RESTOR+1
      00625  0602 00 0 01123         SLW     FAIL          CORE IMAGE FLAG
1            SCHAIN  SETS AND EXECUTES A CHAIN OF COMMANDS.                      04/23/69 2323.0 PAGE 12

      00626  0057 00  002000         RIR     CORE
      00627  1 00001 2 00230         TXI     BA,2,1        TO NEXT BATCH
                              *      WHEN END OF FILE
      00630  0055 00  000011  EOF    SIR     EF+NDLOT
      00631  0056 00  000100         RNT     COMSET
      00632  0020 00 0 00635         TRA     E
      00633  0054 00  000040         RFT     LKHED
      00634  0020 00 0 00226         TRA     BQ            GO CHECK CORE IMAGE LEFT BY COMMAND


                              *      RESTORE COMMAND LISTS AND COUNTERS

                       00635  E      SYN     *
      00635  0774 00 1 00001         AXT     1,1
      00636  0774 00 2 01504         AXT     CBUF,2
      00637  0634 00 2 00642  V      SXA     *+3,2
      00640 -0634 00 1 00642         SXD     *+2,1
      00641  0074 00 4 00021         TSX     $SETCLS,4
      00642  0 00000 0 00000         PZE     **,,**
      00643  1 00024 2 00644         TXI     *+1,2,CL

  BINARY CARD NO. SCHAIN22
      00644  1 00001 1 00645         TXI     *+1,1,1
      00645 -3 00005 1 00637         TXL     V,1,CN
      00646 -0500 00 0 01122         CAL     CLC
      00647  0074 00 4 00026         TSX     $SETCLC,4
      00650                          SWUS    LCF
      00650 -0500 00 0 01126         CAL     LCF                                                              .001
      00651  0074 00 3 00717         TSX     SWCF,3                                                           .001
      00652  0056 00  002000         RNT     CORE
      00653  0020 00 0 00670         TRA     E1            NO CORE IMAGE LEFT
      00654  0074 00 4 00013         TSX     $DELETE,4
      00655  0 00000 0 01074         PZE     RESUME+1      DELETE CHAIN SAVED FILE
      00656 -0100 00 0 00667         TNZ     BR            ERROR
      00657  0074 00 4 00027         TSX     $CHFILE,4
      00660  3 00000 0 01104         PTH     RESTOR+1
      00661  3 00000 0 01105         PTH     RESTOR+2
      00662  3 00000 0 01651         PTH     =1            TEMPORARY MODE
      00663  3 00000 0 01074         PTH     RESUME+1
      00664  3 00000 0 01075         PTH     RESUME+2
      00665  3 00000 0 00667         PTH     BR            TO A LOWER NAME IN THE LIST
      00666 -0500 00 0 01074         CAL     RESUME+1      OF TEMPORARY FILES
      00667  0602 00 0 01123  BR     SLW     FAIL          SET ERROR CODE OR FILE NAME
                       00670  E1     SYN     *


                              *      END OF PROCESS

                       00670  OUT    SYN     *
      00670                          RSTOR

  BINARY CARD NO. SCHAIN23
      00670  0441 00 0 01120         LDI     IND                                                              .001
      00671  0774 00 3 00000  X3     AXT     **,3                                                             .001
      00672  0774 00 5 00000  X5     AXT     **,5                                                             .001
      00673  0774 00 6 00000  X6     AXT     **,6                                                             .001
1            SCHAIN  SETS AND EXECUTES A CHAIN OF COMMANDS.                      04/23/69 2323.0 PAGE 13

      00674  0774 00 7 00000  X7     AXT     **,7                                                             .001
      00675 -0520 00 0 01121         NZT     XMOD                                                             .001
      00676 -0760 00 0 00016         EMTM                                                                     .001
      00677  0774 00 1 00000  X1     AXT     **,1                                                             .001
      00700  0774 00 2 00000  X2     AXT     **,2                                                             .001
      00701 -0534 00 4 00033         LXD     X4,4                                                             .001
      00702  0500 00 0 01123         CLA     FAIL
      00703  0020 00 0 00000  AH     TRA     **

      00704  0500 00 0 01651  ZZ     CLA     =1
      00705  0601 00 0 01123         STO     FAIL
      00706  0020 00 0 00670         TRA     E1
                              *      SWUFD S/R.  CHECKS WHETHER A COMMAND MAY SWITCH U.F.D.
      00707 -0500 00 0 01133  SWUFD  CAL     ARG
      00710  0774 00 3 00003         AXT     AQ-COMF,3
      00711 -0340 00 3 00760  AR     LAS     AQ,3          NEXT MIGHT SWITCH FILE DIRECTORY
      00712  0020 00 0 00714         TRA     *+2
      00713  0020 00 4 00001         TRA     1,4           YES

  BINARY CARD NO. SCHAIN24
      00714  2 00001 3 00711         TIX     AR,3,1
      00715  0774 00 3 00000         AXT     ,3            NO
      00716  0020 00 4 00001         TRA     1,4           RETURN WITH IX3 SETTING

                              *      SWCF S/R. SWITCHES TO SPECIFIED COMMON FILE
      00717 -0340 00 0 01124  SWCF   LAS     CCF           IS IT NEW COMMON FILE
      00720  0020 00 0 00722         TRA     *+2
      00721  0020 00 3 00001         TRA     1,3           YES. IGNORE CALL
      00722  0602 00 0 01124         SLW     CCF           SAVE NEW COMMON FILE NO.
      00723  0057 00  002000         RIR     CORE          COMFIL LEAVES NO CORE IMAGE
      00724  0074 00 4 00031         TSX     $COMFIL,4
      00725  3 00000 0 00741         BRN     BUSY
      00726  0020 00 3 00001         TRA     1,3
                              *      ERROR PROCEDURES
      00727  0602 00 0 01040  ERROR  SLW     MES
      00730  0074 00 4 00014         TSX     $WRFLX,4
      00731  0 00005 0 01040         PZE     MES,,5
      00732  0020 00 0 00704         TRA     ZZ
      00733 -0500 00 0 01157  BD     CAL     ARG1
      00734  0602 00 0 01050         SLW     MES2
      00735  0074 00 4 00014         TSX     $WRFLX,4
      00736  0 00005 0 01050         PZE     MES2,,5       ILLEGAL COMMON FILE
      00737 -0500 00 0 01157         CAL     ARG1

  BINARY CARD NO. SCHAIN25
      00740  0020 00 0 00705         TRA     ZZ+1
      00741  0636 00 4 00754  BUSY   SCA     BF,4
      00742  0602 00 0 01055         SLW     MES3
      00743 -0600 00 0 01056         STQ     MES3+1
      00744 -0500 00 0 01061         CAL     MES3+4
      00745 -0320 00 0 01665         ANA     =O777777777700
      00746 -0501 00 0 01124         ORA     CCF           SET COMFIL NO.
      00747  0602 00 0 01061         SLW     MES3+4
      00750  0074 00 4 00014         TSX     $WRFLX,4
      00751  0 00012 0 01055         PZE     MES3,,10
      00752  0074 00 4 00032         TSX     $DORMNT,4
1            SCHAIN  SETS AND EXECUTES A CHAIN OF COMMANDS.                      04/23/69 2323.0 PAGE 14

      00753 -0500 00 0 01124         CAL     CCF
      00754  0020 00 0 00000  BF     TRA     **            TRY AGAIN
                              *      THESE COMMANDS MAY SWITCH TO ANOTHER U.F.D.


      00755  234644263143     COMF   BCI     1,COMFIL
      00756  512544215142            BCI     1,REMARK
      00757  606060434627            BCI     1,   LOG
                       00760  AQ     SYN     *
                       00760  AV     SYN     *             THESE COMMANDS EXPECT A CORE IMAGE
      00760  262147242227            BCI     1,FAPDBG
      00761  462363472163            BCI     1,OCTPAT
      00762  462363635121            BCI     1,OCTTRA
      00763  604623634342            BCI     1, OCTLK

  BINARY CARD NO. SCHAIN26
      00764  626346472163            BCI     1,STOPAT
      00765  604721632330            BCI     1, PATCH
      00766  606060635121            BCI     1,   TRA
      00767  606060604744            BCI     1,    PM
      00770  606060646225            BCI     1,   USE
      00771  606263215163            BCI     1, START
      00772  606062216525            BCI     1,  SAVE
      00773  626351212325            BCI     1,STRACE
                       00774  AW     SYN     *
                       00774  AX     SYN     *             THESE COMMANDS LET A CORE IMAGE
      00774  262147242227            BCI     1,FAPDBG
      00775  606043212524            BCI     1,  LAED
      00776  606043462124            BCI     1,  LOAD
      00777  604324212262            BCI     1, LDABS
      01000  462363472163            BCI     1,OCTPAT
      01001  462363635121            BCI     1,OCTTRA
      01002  604623634342            BCI     1, OCTLK
      01003  626346472163            BCI     1,STOPAT
      01004  604721632330            BCI     1, PATCH
      01005  606060635121            BCI     1,   TRA
      01006  606060604744            BCI     1,    PM
      01007  606060646225            BCI     1,   USE

  BINARY CARD NO. SCHAIN27
      01010  606263215163            BCI     1, START
      01011  512562634651            BCI     1,RESTOR
      01012  512562644425            BCI     1,RESUME
      01013  606060606051            BCI     1,     R
      01014  606062216525            BCI     1,  SAVE
      01015  606543462124            BCI     1, VLOAD
      01016  452343462124            BCI     1,NCLOAD
      01017  434621242746            BCI     1,LOADGO
      01020  626351212325            BCI     1,STRACE
      01021  516445234644            BCI     1,RUNCOM
      01022  236325626301            BCI     1,CTEST1
      01023  236325626302            BCI     1,CTEST2
      01024  236325626303            BCI     1,CTEST3
      01025  236325626304            BCI     1,CTEST4
      01026  236325626305            BCI     1,CTEST5
      01027  236325626306            BCI     1,CTEST6
1            SCHAIN  SETS AND EXECUTES A CHAIN OF COMMANDS.                      04/23/69 2323.0 PAGE 15

      01030  236325626307            BCI     1,CTEST7
      01031  236325626310            BCI     1,CTEST8
      01032  236325626311            BCI     1,CTEST9
                       01033  AY     SYN     *
      01033  607445314334     NIL    BCI     1, (NIL)

  BINARY CARD NO. SCHAIN28
      01034  607425452434     END    BCI     1, (END)
      01035  602330213145     CHAIN  BCI     1, CHAIN
      01036  333333000001     FIL1   BCI     2,...001 SAVED
      01037  606221652524
      01040  606060606060     MES    BCI     5,      ...ILLEGAL OCCURENCE
      01041  333333314343
      01042  252721436046
      01043  232364512545
      01044  232560606060
      01045  604546602567     MES1   BCI     3, NO EXECUTION
      01046  252364633146
      01047  456060606060
      01050  234644444645     MES2   BCI     5,COMMON FILE        UNKNOWN
      01051  602631432560
      01052  606060606060
      01053  606445424546
      01054  664560606060
      01055  606060606060     MES3   BCI ,             IS USING COMFIL 0, TYPE 'START' TO TRY AGAIN
      01056  606060606060
      01057  603162606462

  BINARY CARD NO. SCHAIN29
      01060  314527602346
      01061  442631436000
      01062  736063704725
      01063  601462632151
      01064  631460634660
      01065  635170602127
      01066  213145606060
      01067  606062216525     SAVE   VFD     H36/SAVE,36/,H36/T,O36//
      01070  000000000000
      01071  606060606063
      01072  777777777777
      01073  512562644425     RESUME VFD     H36/RESUME,36/,H36/SAVED,O36//
      01074  000000000000
      01075  606221652524
      01076  777777777777
      01077  606062216525     SAVE1  VFD     H36/SAVE,36/,H36/T,O36//
      01100  000000000000
      01101  606060606063
      01102  777777777777
      01103  512562634651     RESTOR VFD     H36/RESTOR,36/,H36/SAVED,O36//

  BINARY CARD NO. SCHAIN30
      01104  000000000000
      01105  606221652524
      01106  777777777777
                       00002  FC     EQU     2             FIRST COMMAND LIST AVAILABLE FOR USER'S
                       00005  CN     EQU     5             NUMBER OF COMMAND LISTS
1            SCHAIN  SETS AND EXECUTES A CHAIN OF COMMANDS.                      04/23/69 2323.0 PAGE 16

                       00024  CL     EQU     20            COMMAND BUFFER LENGTH
                       00026  RL     EQU     22            BCD RECORD BUFFER LENGTH
                      000001  NDLOT  BOOL    1             ON = CLOSE SUB-CHAIN
                      000002  TCHAIN BOOL    2             ON = 'CHAIN' OCCURRED
                      000004  ARGLIS BOOL    4             ON = WHILE PROCESSING 'CHAIN' PSEUDO
                      000010  EF     BOOL    10            ON = END FILE OCCURED
                      000020  PRINT  BOOL    20            ON = WHILE PRINT ON-LINE
                      000040  LKHED  BOOL    40            ON = NEXT COMMAND TO BE READ
                      000100  COMSET BOOL    100           ON = SOME EXECUTABLE COMMAND READ
                      000200  COMSW  BOOL    200           ON = NEXT COMMAND MAY SWITCH DIRECTORY
                      000400  COPY   BOOL    400           ON = NEXT COMMAND SWITCHES IMPLICITLY UFD
                      001000  NAM    BOOL    1000          ON = FILE NAME ASSIGNED TO 'SCHAIN'
                      002000  CORE   BOOL    2000          ON = CORE IMAGE TO BE SAVED
                      004000  NAM1   BOOL    4000          ON = FILE NAME ASSIGNED TO CORE IMAGE
                      010000  FILOST BOOL    10000         ON = SOURCE FILE STATUS LOST
      01107 +000000000660     BUFSIZ DEC     432
      01110                   ARRAY  BSS     8
      01120                   IND    BSS     1             SAVE INDICATORS
      01121                   XMOD   BSS     1             0 FOR 3 IX'S MODE. 77777 FOR 7 IX'S MODE
      01122                   CLC    BSS     1             SAVE COMMAND COUNTERS
      01123                   FAIL   BSS     1             ZERO IF NO ERROR
      01124                   CCF    BSS     1             CURRENT COMMON FILE
      01125                   HCF    BSS     1             HOME COMMON FILE
      01126                   LCF    BSS     1             LOCAL COMMON FILE, IN THE SUBCHAIN
      01127                   PCF    BSS     1             PREVIOUS LOCAL COMMON FILE
      01130                   BK     BSS     3             FILE NAMES
                       01131  FIL    SYN     BK+1
      01133                   ARG    BSS     CL            COMMAND JUST READ
      01157                   ARG1   BSS     CL            COMMAND TO BE LOADED
      01203                   ARLIS  BSS     CL-1          CHAIN PSEUDO COMMAND
      01226                   ACTARG BSS     CL-1          ACTUAL VALUES OF ARGUMENTS
      01251                   AG     BSS     RL            READ INPUT BUFFER
      01277                   K      BSS     6*RL+1        UNPACKED LINE BUFFER
      01504                   CBUF   BSS     CL*CN         SAVE COMMAND LISTS
                       01037  SAVED  SYN     FIL1+1
                       01072  FENCE  SYN     SAVE+3
                                     END

        LITERALS

  BINARY CARD NO. SCHAIN31
      01650  000000000000
      01651  000000000001
      01652  000000000002
      01653  000000000006
      01654  000000000014
      01655  000000000026
      01656  400000000000
      01657  530000000000
      01660  540000000000
      01661  570000000000
      01662  600000000000
      01663  606060606060
      01664  606060606066
      01665  777777777700
1            SCHAIN  SETS AND EXECUTES A CHAIN OF COMMANDS.                      04/23/69 2323.0 PAGE 1
                        POST PROCESSOR ASSEMBLY DATA

       1666 IS THE FIRST LOCATION NOT USED BY THIS PROGRAM

0REFERENCES TO DEFINED SYMBOLS
        157      A   147,  152,  157
        162      B   162,  212,  235,  311,  326,  353,  405,  425,  431
        265      C   253,  255,  260
        274      D   264
        635      E   610,  632,  635
        236      F   215,  236
        256      G   250,  272
        307      H   274,  303
        444      J   227,  444
       1277      K   121,  126,  207,  210,  213,  246,  256
        311      L   245,  307
        321      M   324
        324      N   316
        327      P   315,  327
        337      Q   344
        335      R   350
        344      S   317
        545      T   515,  545
        136      U   144
        637      V   645
        464      W   436,  441,  442,  443,  451
        462      X   453,  457,  461
        510      Y   502,  510
        551      Z   513,  551
        272     AA   203
        115     AB    77,  131
        120     AC   116
        132     AD   127
        131     AE   114,  127
        432     AF   360,  432
       1251     AG   164,  206,  234
        703     AH    76
        304     AJ   302
        121     AK   130
        424     AL   415,  420
        426     AM   407
        430     AN   412
        473     AP   470,  473
        760     AQ   364,  433,  710,  711,  760
        711     AR   714
        442     AS   434
        440     AT   433
        760     AV   454,  760
        774     AW   454,  455,  774
        774     AX   444,  774
       1033     AY   444,  445, 1033
        452     AZ   447,  452
        230     BA   230,  620,  627
        232     BB   217,  221,  223
        367     BC   231,  367,  472
        733     BD
1            SCHAIN  SETS AND EXECUTES A CHAIN OF COMMANDS.                      04/23/69 2323.0 PAGE 2
                        POST PROCESSOR ASSEMBLY DATA

        162     BE   162
        754     BF   741
        372     BG   403
        604     BJ   575,  602
       1130     BK  1133
        165     BL    55
        403     BM   375
        366     BN   362,  364
        607     BP   603,  607
        226     BQ   634
        667     BR   656,  665
        174     BS   170
        127     BT   124
        346     BU   341
         24     CL    57,   61,  112,  142,  236,  240,  307,  370,  371,  372,  402,  530,  643, 1107, 1133, 1157, 1203
                    1226, 1504
          5     CN   144,  442,  443,  470,  645, 1107, 1504
        670     E1   653,  670,  706
         10     EF   452,  607,  630, 1107
          2     FC   161,  221,  616, 1107
        245     GG   204,  254,  310
         26     RL   164,  206,  207, 1107, 1251, 1277
        350     S1   327,  413
        343     SS   132,  332,  340,  342
        351     W1   331,  333,  351
        677     X1    36
        700     X2    37
        671     X3    40,   47
         33     X4    35,   41,   64,   74,  701
        672     X5    50
        673     X6    51
        674     X7    52
        704     ZZ   104,  533,  537,  732,  740
       1133    ARG   240,  266,  270,  276,  313,  321,  335,  347,  351,  354,  372,  707
       1124    CCF    70,  717,  722,  746,  753
       1122    CLC   146,  646
       1034    END   355,  376
        630    EOF   160,  356
       1131    FIL    65,  101,  102,  105,  106,  110,  163, 1133
       1125    HCF    67,  613
       1120    IND    35,  670
       1126    LCF    72,  414,  423,  426,  435,  473,  475,  560,  611,  650
       1040    MES   727,  731
       1000    NAM   500,  501,  505, 1107
       1033    NIL   352,  373
        670    OUT   156,  670
       1127    PCF    71,  476,  612
         20    ZEL   421
       1157   ARG1    61,  226,  402,  410,  416,  422,  466,  530,  733,  737
        741   BUSY   725
       1504   CBUF   135,  636
          2   COLT    73
        755   COMF   364,  411,  433,  710
        400   COPY   365,  406,  427,  437, 1107
       2000   CORE   462,  512,  574,  604,  617,  626,  652,  723, 1107
1            SCHAIN  SETS AND EXECUTES A CHAIN OF COMMANDS.                      04/23/69 2323.0 PAGE 3
                        POST PROCESSOR ASSEMBLY DATA

        660   DBUF    35
       1123   FAIL    54,  153,  557,  571,  625,  667,  702,  705
       1036   FIL1   151, 1650
          0   GNAM    63
       1045   MES1   155
       1050   MES2   734,  736
       1055   MES3   742,  743,  744,  747,  751
       4000   NAM1   500,  514,  542, 1107
         23   OPEN   516
       1067   SAVE   506,  511, 1650
          4   SEEK   107
        717   SWCF   474,  614,  651
       1121   XMOD    44,   46,  675
       1203  ARLIS   322,  337
       1110  ARRAY   103,  601
       1035  CHAIN   300
         25  CLOSE   534
        200  COMSW    56,  363,  404,  430,  440, 1107
        727  ERROR   305
       1072  FENCE   312,  367,  417, 1650
         22  GTNAM   503,  540
        571  ..002   561,  571
         40  LKHED   220,  225,  357,  366,  424,  633, 1107
          5  MOVE1   111
          6  MOVE2   117
         10  MOVE3   133
          1  NDLOT   224,  440,  463,  471,  615,  630, 1107
         20  PRINT   222,  224,  230,  232,  275,  452, 1107
          7  RJUST   125
       1077  SAVE1   543,  547
       1037  SAVED   504,  541, 1650
        707  SWUFD   361,  432
         16  VREAD   162
         14  WRFLX   154,  233,  730,  735,  750
       1226 ACTARG   112,  346
          4 ARGLIS   306,  314,  325, 1107
       1107 BUFSIZ
         27 CHFILE   562,  657
         30 CHNCOM   572
         31 COMFIL   724
        100 COMSET   216,  304,  366,  631, 1107
         13 DELETE   150,  605,  654
         32 DORMNT   752
      10000 FILOST  1107
          3 FSTATE   100,  576
          1 GETCFN    66
         12 GETCLC   145
         11 GETCLS   140
       1103 RESTOR   544,  563,  564,  577,  600,  623,  624,  660,  661
       1073 RESUME   507,  520,  521,  525,  526,  535,  536,  553,  606,  655,  663,  664,  666
         35 SCHAIN     0,   35
         26 SETCLC   556,  647
         21 SETCLS   465,  510,  546,  552,  622,  641
         15 SETEOF   157
          2 TCHAIN   277,  306,  330, 1107
1            SCHAIN  SETS AND EXECUTES A CHAIN OF COMMANDS.                      04/23/69 2323.0 PAGE 4
                        POST PROCESSOR ASSEMBLY DATA

         17 UNPAKL   205
         24 WRFILE   524

0 NO ERROR IN ABOVE ASSEMBLY.


  SETC   BCD 05/29/67 0008.3     219         00000
1            FAP                                                                                 PAGE 1

                              *      SETCLC, GETCLC.  DUMMIES FOR TSS SUPERVISOR ENTRIES.
                              *      AUGUST 64             LOUIS POUZIN


  BINARY CARD NO. TSEN1800
                       00000         ENTRY   SETCLC
                       00001         ENTRY   SETCLS

  BINARY CARD NO. TSEN1801
      00000  0101 00 0 00002  SETCLC TIA     =HSETCLC
      00001  0101 00 0 00003  SETCLS TIA     =HSETCLS
                                     END

        LITERALS
      00002  622563234323
      00003  622563234362
1            FAP                                                                                 PAGE 1
                        POST PROCESSOR ASSEMBLY DATA

          4 IS THE FIRST LOCATION NOT USED BY THIS PROGRAM

0REFERENCES TO DEFINED SYMBOLS
          0 SETCLC     0
          1 SETCLS     0

0 NO ERROR IN ABOVE ASSEMBLY.


  SETE   BCD 05/29/67 0008.3     977         00000
1            FAP                                                                                 PAGE 1

                              *    SETERR PROVIDES THE MEANS OF SETTING AN ERROR RETURN
                              *    FROM SNAP WHICH IS CALLED BY SOME ERROR FOUND BY
                              *    THE DISK ROUTINES.
                              *        EXECUTE SETERR(RETURN,ERROR)
                              *        CALL SETERR(N,ERROR)
                              *        TSX    SETERR,4
                              *        PZE    RETURN
                              *        PZE    ERROR
                              *    ERROR WILL CONTAIN THE LOGICAL AC(ERROR CODE).
                              *    RETURN IS THE ERROR RETURN WITH NO PRINT OUT FROM SNAP.
                              *    IF ONLY ONE ARGUMENT, ASSUMED TO BE RETURN.
                              *    NO ARGUMENT RESETS SNAP TO ITS ORIGINAL STATE.

  BINARY CARD NO. SETERR00
                       00005         ENTRY   SETERR

        TRANSFER VECTOR

  BINARY CARD NO. SETERR01
      00000  624521476060     SNAP
      00001  234643636060     COLT
      00002  665126436760     WRFLX

            LINKAGE DIRECTOR
      00003  000000000000
      00004  622563255151

      00005 -0634 00 4 00003  SETERR SXD     SETXT,4
                       00003  SETXT  EQU     SETERR-2
      00006  0500 00 0 00000         CLA     $SNAP
      00007  0361 00 0 00065         ACL     =3
      00010  0361 00 0 00064         ACL     =1            WILL MODIFY FOURTH AND FIFTH
      00011  0621 00 0 00060         STA     SETCOD
      00012  0361 00 0 00064         ACL     =1
      00013  0621 00 0 00057         STA     SETRET
      00014  0074 00 4 00001         TSX     $COLT,4       HOW MANY ARGS
      00015  0 00000 0 00003         PZE     SETXT
      00016  0636 00 4 00027         SCA     SETFIN,4      FINAL RETURN
      00017 -0734 00 4 00000         PDX     0,4
      00020  3 00002 4 00044         TXH     ERR2,4,2      TOO MANY ARGS
      00021  0020 00 4 00024         TRA     SETTRA,4      HOW MANY ARGS
      00022  0020 00 0 00037         TRA     SET2
      00023  0020 00 0 00030         TRA     SET1

  BINARY CARD NO. SETERR02
      00024  0560 00 0 00061  SETTRA LDQ     AXT           NOP TO RESTORE SNAP
      00025 -0600 60 0 00057         STQ*    SETRET
      00026 -0600 60 0 00060         STQ*    SETCOD
      00027  0020 00 0 00000  SETFIN TRA     **
      00030 -0534 00 4 00003  SET1   LXD     SETXT,4       ONE ARG WILL BE TRA RETURN
      00031  0560 00 0 00061         LDQ     AXT           AND NOP TO STORE ERR CODE
      00032  0500 00 4 00001         CLA     1,4
      00033  0621 00 0 00062         STA     TRA
      00034  0500 00 0 00062         CLA     TRA
      00035  0601 60 0 00057         STO*    SETRET
      00036  0020 00 0 00026         TRA     SETFIN-1
1            FAP                                                                                 PAGE 2

      00037 -0534 00 4 00003  SET2   LXD     SETXT,4       TWO ARGS WILL BE TRA RETURN
      00040  0500 00 4 00002         CLA     2,4           AND SLW ERROR CODE
      00041  0621 00 0 00063         STA     SLW
      00042  0560 00 0 00063         LDQ     SLW
      00043  0020 00 0 00032         TRA     SET1+2
      00044  0074 00 4 00002  ERR2   TSX     $WRFLX,4
      00045  0 00010 0 00047         PZE     MSSG2,,8
      00046  0020 00 0 00037         TRA     SET2
      00047  634646604421     MSSG2  BCI     8,TOO MANY ARGUMENTS TO SETERR. USED FIRST TWO.

  BINARY CARD NO. SETERR03
      00050  457060215127
      00051  644425456362
      00052  606346606225
      00053  632551513360
      00054  646225246026
      00055  315162636063
      00056  664633606060
      00057  0 00000 0 00000  SETRET PZE
      00060  0 00000 0 00000  SETCOD PZE
 AT   00061  0774 00 0 00000  AXT    AXT
 A    00062  0020 00 0 00000  TRA    TRA
 A    00063  0602 00 0 00000  SLW    SLW
                                     END

        LITERALS
      00064  000000000001
      00065  000000000003
1            FAP                                                                                 PAGE 1
                        POST PROCESSOR ASSEMBLY DATA

         66 IS THE FIRST LOCATION NOT USED BY THIS PROGRAM

0REFERENCES TO DEFINED SYMBOLS
         61    AXT    24,   31
         63    SLW    41,   42
         62    TRA    33,   34
          1   COLT    14
         44   ERR2    20
         30   SET1    23,   43
         37   SET2    22,   46
          0   SNAP     6
         47  MSSG2    45
          3  SETXT     5,    6,   15,   30,   37
          2  WRFLX    44
         60 SETCOD    11,   26
          5 SETERR     0,    6
         27 SETFIN    16,   36
         57 SETRET    13,   25,   35
         24 SETTRA    21

0 NO ERROR IN ABOVE ASSEMBLY.


  SETF   BCD 05/29/67 0008.3     538         00000
1            FAP                                                                                 PAGE 1

                              *      SETFMT * SETNAM * FOREGROUND LIBRARY * MOD 13A * JUN 63 *
                                             SET A POINTER TO FORMAT BEGINNING, OR FIRST NAME
                                             FOR FORTRAN OR MAD CALLS TO DISK I/O SUBROUTINES
                                             CALL SETFMT(FMT,NH(....))
                                             CALL SETNAM(NAME,12H NAME1 NAME2)
                                             EXECUTE SETFMT.(FMT,$(....)$)
                                             EXECUTE SETNAM.(NAME,$ NAME1 NAME2$)

                                             SETFMT MAY BE USED IN FORTRAN TO PRESET FORMATS
                                             VALUES INSTEAD WRITING IN THE ARGUMENT LIST OF A CALL
                                             STATEMENT. SETFMT CREATES A SINGLE WORD POINTER IN WHICH
                                             IS STORED THE FORMAT LIST ADDRESS. PREFIX IS THX OR TSX
                                             ACCORDING TO THE COMPILER USED, MADTRAN + MAD, OR
                                             FORTRAN + FAP. A MARKER (77) IS SET BETWEEN PREFIX
                                             AND ADDRESS, SO AS TO PREVENT CONFUSION WITH THE FORMAT
                                             ITSELF, WHILE USING BY OTHER PROGRAMS AS DREAD AND
                                             DWRITE. SETFMT MAY BE USED IN MAD AND FAP, ALTHOUGH
                                             THERE ARE SOME SHORTER WAYS TO PRESET THE FORMAT LIST.

  BINARY CARD NO. SETFMT01
                       00002         ENTRY   SETFMT
                       00002         ENTRY   SETNAM

            LINKAGE DIRECTOR

  BINARY CARD NO. SETFMT02
      00000  000000000000
      00001  622563264463

      00002 -0500 00 4 00002  SETFMT CAL     2,4           PICK-UP FIRST WORD ADDRESS
      00003 -0501 00 0 00006         ORA     =O77000000    SET POINTER FLAG
      00004  0602 60 4 00001         SLW*    1,4           STORE IN FMT OR IN NAME
      00005  0020 00 4 00003         TRA     3,4
                       00002  SETNAM SYN     SETFMT
                                     END

        LITERALS
      00006  000077000000
1            FAP                                                                                 PAGE 1
                        POST PROCESSOR ASSEMBLY DATA

          7 IS THE FIRST LOCATION NOT USED BY THIS PROGRAM

0REFERENCES TO DEFINED SYMBOLS
          2 SETFMT     0,    6
          2 SETNAM     0,    6

0 NO ERROR IN ABOVE ASSEMBLY.


  SETP   BCD 05/29/67 0008.3     135         00000
1                                                                                                PAGE 1

                       00000         ENTRY   SETPRI
      00000  0101 00 0 00001  SETPRI TIA     =HSETPRI
                                     END

        LITERALS
      00001  622563475131
1                                                                                                PAGE 1
                        POST PROCESSOR ASSEMBLY DATA

          2 IS THE FIRST LOCATION NOT USED BY THIS PROGRAM

0REFERENCES TO DEFINED SYMBOLS
          0 SETPRI     0

0 NO ERROR IN ABOVE ASSEMBLY.


  SETU   BCD 05/29/67 0008.3     265         00000
1            FAP                                                                                 PAGE 1

                              *SETUP SETUP FOR MOD 14 CTSS  *  LP - JULY 63  *
                       00004         ENTRY   .SETUP

        TRANSFER VECTOR
      00000  742647633460     (FPT)
      00001  742526634434     (EFTM)

            LINKAGE DIRECTOR
      00002  000000000000
      00003  336225636447

      00004 -0634 00 4 00002  .SETUP SXD     *-2,4
      00005 -0760 00 0 00016         EMTM
      00006 -0500 00 0 00000         CAL     $(FPT)        SET UP LOCATION 8
      00007  0602 00 0 00010         SLW     8             TO TRAP TO (FPT)
      00010  0074 00 4 00001         TSX     $(EFTM),4     ENTER FL. TR. MODE
      00011 -0534 00 4 00002         LXD     .SETUP-2,4
      00012  0020 00 4 00001         TRA     1,4
                                     END
1            FAP                                                                                 PAGE 1
                        POST PROCESSOR ASSEMBLY DATA

         13 IS THE FIRST LOCATION NOT USED BY THIS PROGRAM

0REFERENCES TO DEFINED SYMBOLS
          0  (FPT)     6
          4 .SETUP     0,   11
          1 (EFTM)    10

0 NO ERROR IN ABOVE ASSEMBLY.


  SIMC   BCD 05/29/67 0008.3     525         00000
1           FAP                                                                                  PAGE 1

                              *      GENERATE CALLING SEQUENCE FOR XSIMEQ
                       00003         ENTRY SIMCS

        TRANSFER VECTOR
      00000  676231442550     XSIMEQ

            LINKAGE DIRECTOR
      00001  000000000000
      00002  623144236260

      00003  0634 00 4 00036  SIMCS  SXA     XR4,4
      00004  0500 60 4 00003         CLA*    3,4
      00005  0601 00 0 77775         STO     COMMON-2
      00006  0500 00 4 00004         CLA     4,4
      00007  0402 00 0 00041         SUB     =1
      00010  0621 00 0 00024         STA     ARG4
      00011  0500 00 4 00005         CLA     5,4
      00012  0402 00 0 00041         SUB     =1
      00013  0621 00 0 00026         STA     ARG5
      00014  0500 00 4 00006         CLA     6,4
      00015  0621 00 0 00030         STA     ARG6
      00016  0500 00 4 00007         CLA     7,4
      00017  0402 00 0 00041         SUB     =1
      00020  0621 00 0 00032         STA     ARG7
      00021  0500 60 4 00001         CLA*    1,4
      00022  0560 60 4 00002         LDQ*    2,4
      00023  0020 00 0 00035         TRA     CALL
      00024  0 00000 0 00000  ARG4   PZE     **
      00025  0420 00 0 00000         HPR
      00026  0 00000 0 00000  ARG5   PZE     **
      00027  0420 00 0 00000         HPR
      00030  0 00000 0 00000  ARG6   PZE     **
      00031  0420 00 0 00000         HPR
      00032  0 00000 0 00000  ARG7   PZE     **
      00033  0420 00 0 00000         HPR
      00034  0420 00 0 00000         HPR
      00035  0074 00 4 00000  CALL   TSX     $XSIMEQ,4
      00036  0774 00 4 00000  XR4    AXT     **,4
      00037  0601 60 4 00010         STO*    8,4
      00040  0020 00 4 00011         TRA     9,4
                       77777         COMMON  -206
                       77777  COMMON COMMON  1
                                     END

        LITERALS
      00041  000000000001
1           FAP                                                                                  PAGE 1
                        POST PROCESSOR ASSEMBLY DATA

       77776 IS THE LAST LOCATION NOT USED BY THIS PROGRAM
         42 IS THE FIRST LOCATION NOT USED BY THIS PROGRAM

0REFERENCES TO DEFINED SYMBOLS
         36    XR4     3
         24   ARG4    10
         26   ARG5    13
         30   ARG6    15
         32   ARG7    20
         35   CALL    23
          3  SIMCS     0
      77777 COMMON     5,   41
          0 XSIMEQ    35

0 NO ERROR IN ABOVE ASSEMBLY.


  SLEE   BCD 05/29/67 0008.3     135         00000
1       TSS ENTRIES FOREGROUND LIBRARY L. P.    JULY 64                                          PAGE 1

                       00000         ENTRY   SLEEP
      00000  0101 00 0 00001  SLEEP  TIA     =HSLEEP
                                     END

        LITERALS
      00001  624325254760
1       TSS ENTRIES FOREGROUND LIBRARY L. P.    JULY 64                                          PAGE 1
                        POST PROCESSOR ASSEMBLY DATA

          2 IS THE FIRST LOCATION NOT USED BY THIS PROGRAM

0REFERENCES TO DEFINED SYMBOLS
          0  SLEEP     0

0 NO ERROR IN ABOVE ASSEMBLY.


  SLI0   BCD 05/29/67 0008.3     556         00000
1            FAP                                                                                 PAGE 1

                              *      32K 709/7090 FORTRAN LIBRARY      9SLI
                              *      32K 709/7090 FORTRAN LIBRARY
1            FAP                                                                                 PAGE 2
                           SHORT LIST INPUT / 9SLI

                              *           SHORT LIST INPUT         LINKAGE COMPILED BY I/O TRANSLATOR.
                              *
                              *      TSX  (SLI),4                  FOR INPUT OF NON-SUBSCRIPTED LIST.
                              *      PZE  SYMBOL+1                 LOCATION OF THE ARRAY +1.
                              *      PZE  N                        NUMBER OF ELEMENTS.
                              *

  BINARY CARD NO. SLI00000
                       00002         ENTRY   (SLI)
                                          . . . . . . . . . . . . . . . . . . . . . . . . . . . . . .

            LINKAGE DIRECTOR

  BINARY CARD NO. SLI00001
      00000  000000000000
      00001  746243313460

      00002  0634 00 4 00015   (SLI) SXA  SLIX,4                   SAVE RETURN INDEX.
      00003 -0500 00 4 00001         CAL  1,4                      INITIALIZE
      00004  0621 00 0 00012         STA  *+6                      LDQ ADDRESS.
      00005 -0500 00 4 00002         CAL  2,4                      INITIALIZE
      00006  0734 00 4 00000         PAX  ,4                       TXL
      00007 -0634 00 4 00014         SXD  *+5,4                    DECREMENT.
      00010  0774 00 4 00001         AXT  1,4                      INITIALIZE XR4.
      00011 -1 00000 0 00000         STR                         * TRAP TO (IOH) OR (IOB).
      00012 -0600 00 4 00000         STQ  ..,4                     STORE ELEMENT.
      00013  1 00001 4 00014         TXI  *+1,4,1                  MOVE DOWNWARDS
      00014 -3 00000 4 00011         TXL  *-3,4,..                 THROUGH ARRAY.
      00015  0774 00 4 00000   SLIX  AXT  ..,4                     RESTORE RETURN INDEX.
      00016  0020 00 4 00003         TRA  3,4                    * EXIT TO MAIN PROGRAM.
                                          . . . . . . . . . . . . . . . . . . . . . . . . . . . . . .
                       00000    ..   EQU  0
                                     END
1            FAP                                                                                 PAGE 1
                        POST PROCESSOR ASSEMBLY DATA

         17 IS THE FIRST LOCATION NOT USED BY THIS PROGRAM

0REFERENCES TO DEFINED SYMBOLS
          0     ..    12,   14,   15,   17
         15   SLIX     2
          2  (SLI)     0

0 NO ERROR IN ABOVE ASSEMBLY.


  SLO0   BCD 05/29/67 0008.3     556         00000
1            FAP                                                                                 PAGE 1

                              *      32K 709/7090 FORTRAN LIBRARY      9SLO
                              *      32K 709/7090 FORTRAN LIBRARY
1            FAP                                                                                 PAGE 2
                           SHORT LIST OUTPUT / 9SLO

                              *           SHORT LIST OUTPUT        LINKAGE COMPILED BY I/O TRANSLATOR.
                              *
                              *      TSX  (SLO),4                  FOR OUTPUT OF NON-SUBSCRIPTED LIST.
                              *      PZE  SYMBOL+1                 LOCATION OF THE ARRAY +1.
                              *      PZE  N                        NUMBER OF ELEMENTS.
                              *

  BINARY CARD NO. SLO00000
                       00002         ENTRY   (SLO)
                                          . . . . . . . . . . . . . . . . . . . . . . . . . . . . . .

            LINKAGE DIRECTOR

  BINARY CARD NO. SLO00001
      00000  000000000000
      00001  746243463460

      00002  0634 00 4 00015   (SLO) SXA  SLOX,4                   SAVE RETURN INDEX.
      00003 -0500 00 4 00001         CAL  1,4                      INITIALIZE
      00004  0621 00 0 00011         STA  *+5                      LDQ ADDRESS.
      00005 -0500 00 4 00002         CAL  2,4                      INITIALIZE
      00006  0734 00 4 00000         PAX  ,4                       TXL
      00007 -0634 00 4 00014         SXD  *+5,4                    DECREMENT.
      00010  0774 00 4 00001         AXT  1,4                      INITIALIZE XR4.
      00011  0560 00 4 00000         LDQ  ..,4                     PICKUP ELEMENT.
      00012 -1 00000 0 00000         STR                         * TRAP TO (IOH) OR (IOB).
      00013  1 00001 4 00014         TXI  *+1,4,1                  MOVE DOWNWARDS
      00014 -3 00000 4 00011         TXL  *-3,4,..                 THROUGH ARRAY.
      00015  0774 00 4 00000   SLOX  AXT  ..,4                     RESTORE RETURN INDEX.
      00016  0020 00 4 00003         TRA  3,4                    * EXIT TO MAIN PROGRAM.
                                          . . . . . . . . . . . . . . . . . . . . . . . . . . . . . .
                       00000    ..   EQU  0
                                     END
1            FAP                                                                                 PAGE 1
                        POST PROCESSOR ASSEMBLY DATA

         17 IS THE FIRST LOCATION NOT USED BY THIS PROGRAM

0REFERENCES TO DEFINED SYMBOLS
          0     ..    11,   14,   15,   17
         15   SLOX     2
          2  (SLO)     0

0 NO ERROR IN ABOVE ASSEMBLY.


  SLOC   BCD 05/04/68 2239.3     285         00000
1       SLOC - MAD CALL TO SETLOC.                                                               PAGE 1

                              *  REWRITTEN TO USE AN EXTERNAL CALL TO SETLOC  ROGER ROACH 2/21/68
                              *  CALLING SEQUENCE -
                              *       SLOC.(WORD,LOC)
                              *
                       00003         ENTRY   SLOC

        TRANSFER VECTOR
      00000  622563434623     SETLOC

            LINKAGE DIRECTOR
      00001  000000000000
      00002  624346236060

      00003 -0634 00 4 00001  SLOC   SXD     SLOC-2,4
      00004 -0500 60 4 00002         CAL*    2,4
      00005  0621 00 0 00010         STA     A
      00006 -0500 60 4 00001         CAL*    1,4
      00007  0074 00 4 00000         TSX     $SETLOC,4
      00010  0 00000 0 00000  A      PZE     **
      00011 -0534 00 4 00001         LXD     SLOC-2,4
      00012  0020 00 4 00003         TRA     3,4
                                     END
1       SLOC - MAD CALL TO SETLOC.                                                               PAGE 1
                        POST PROCESSOR ASSEMBLY DATA

         13 IS THE FIRST LOCATION NOT USED BY THIS PROGRAM

0REFERENCES TO DEFINED SYMBOLS
         10      A     5
          3   SLOC     0,    3,   11
          0 SETLOC     7

0 NO ERROR IN ABOVE ASSEMBLY.


  SNAP   BCD 12/14/70 1743.7     658         00000
1      M1416 3845  PETER R. BOS ..... REJUVENATED SNAP FOR LIBRARY .......       11/30/70 1321.3 PAGE 1

                                     PCC     ON
                       00006         ENTRY   SNAP
                                     LBL     SNAP,X
                                     PCC     OFF

                                     EXTERN  PRDIAG,OCABC,WRFLX,RECOUP


        TRANSFER VECTOR

  BINARY CARD NO. SNAP0001
      00000  475124312127     PRDIAG
      00001  462321222360     OCABC
      00002  665126436760     WRFLX
      00003  512523466447     RECOUP

        LINKAGE DIRECTOR
      00004  000000000000
      00005  624521476060

      00006 -0634 00 4 00004  SNAP   SXD     *-2,4         SAVE X4 IN (UGH) LINKAGE DIRECTOR
      00007  0636 00 4 00040         SCA     T,4           .. FOR CONVERSION ALSO
      00010  0604 00 0 00041         STI     IND           SAVE SI
      00011  0602 00 0 00042         SLW     AC            AND 'ERROR CODE'
      00012  0774 00 0 00000         AXT     0,0           SNAP+4 PATCHED BY SETERR
      00013  0774 00 0 00000         AXT     0,0           SNAP+5
      00014  0074 00 4 00000         TSX     PRDIAG,4      PRINT FILE DIAGNOSTIC (IF ANY)
      00015  0074 00 4 00001         TSX     OCABC,4       CONVERT CALLING LOC
      00016  3 00000 0 00040         PAR     T             ..
      00017  0601 00 0 00034         STO     LOC           ..
      00020  0074 00 4 00002         TSX     WRFLX,4       PRINT MESSAGE
      00021  3 00011 0 00027         PAR     M,,ML         ..
      00022  0074 00 4 00003         TSX     RECOUP,4      ONWARD...
      00023  3 00000 0 00042         PAR     AC            POSSIBLE ERROR CODE

  BINARY CARD NO. SNAP0002
      00024  3 00000 0 00004         PAR     SNAP-2        LINKAGE DIRECTOR
      00025  3 00000 0 00041         PAR     IND           SI
      00026  0020 00 0 00022         TRA     *-4           SHOULD NOT RETURN

      00027  606245214760     M      BCI     / SNAP CALLED FROM ABSOLUTE LOC/
      00030  232143432524
      00031  602651464460
      00032  212262464364
      00033  632560434623
      00034  600000000000     LOC    BCI     / 00000. RECOUP CALLED./
      00035  336051252346
      00036  644760232143
      00037  432524335757
                       00011  ML     EQU     *-M
      00040  0 00000 0 00000  T      PZE
      00041  0 00000 0 00000  IND    PZE
      00042  0 00000 0 00000  AC     PZE
1      M1416 3845  PETER R. BOS ..... REJUVENATED SNAP FOR LIBRARY .......       11/30/70 1321.3 PAGE 2

                                     END
1      M1416 3845  PETER R. BOS ..... REJUVENATED SNAP FOR LIBRARY .......       11/30/70 1321.3 PAGE 1
                        POST PROCESSOR ASSEMBLY DATA

         43 IS THE FIRST LOCATION NOT USED BY THIS PROGRAM

0REFERENCES TO DEFINED SYMBOLS
         27      M    21,   40
         40      T     7,   16
         42     AC    11,   23
         11     ML    21,   40
         41    IND    10,   25
         34    LOC    17
          6   SNAP     0,   24
          1  OCABC    15
          2  WRFLX    20
          0 PRDIAG    14
          3 RECOUP    22

0 NO ERROR IN ABOVE ASSEMBLY.


  SPH0   BCD 06/25/69 2048.5    1618         00000
1            FAP                                                                                 PAGE 1

                              * (SPH), .PRINT, .SPRNT   FOR FOREGROUND. MODIFIED FOR MICHIGAN I/O
                              *              MAY 1966  CLEANUP

                                             (SPH) STRAIGHT TO FLEXO
                                             GOES THROUGH IOH TO WRFLX. IF RECORD IS MORE THAN
                                             14 WORDS, USE WRFLXA, THEN WRFLX.  THE SUPERVISOR
                                             ADD A CARRIAGE RETURN, IF NECESSARY.
                                             FEB. 21, 1965

  BINARY CARD NO. SPH00000
                       00005         ENTRY   (SPH)
                       00005         ENTRY   (SPHM)
                       00034         ENTRY   .PRINT
                       00034         ENTRY   .COMNT
                       00072         ENTRY   .SPRNT

        TRANSFER VECTOR

  BINARY CARD NO. SPH00001
      00000  743146303460     (IOH)
      00001  665126436760     WRFLX
      00002  665126436721     WRFLXA

            LINKAGE DIRECTOR
      00003  000000000000
      00004  746247303460

                       00005   (SPH) SYN     *
      00005 -0500 00 4 00001  (SPHM) CAL     1,4
      00006  0560 00 0 00114         LDQ     FORT
      00007  0634 00 4 00024         SXA     JN21,4
      00010 -0634 00 4 77740         SXD     RTN,4
      00011  0600 00 0 00000         STZ     0
      00012  1 77776 4 00013         TXI     *+1,4,-2
      00013  0636 00 4 00000         SCA     0,4
      00014 -0734 00 4 00000         PDX     0,4           IS DECREMENT ZERO
      00015 -3 00000 4 00024         TXL     JN21,4,0      FORTRAN, BACKWARDS
      00016 -0600 00 0 00121         STQ     TEMP
      00017 -0130 00 0 00000         XCL
      00020 -0500 00 0 00116         CAL     UMAP          -1 IN DECR. SET FOR FORWARDS
      00021  0622 00 0 00121         STD     TEMP
      00022 -0130 00 0 00000         XCL
      00023  0560 00 0 00121         LDQ     TEMP

  BINARY CARD NO. SPH00002
      00024  0774 00 4 00000   JN21  AXT     **,4
      00025 -0600 00 0 77737         STQ     FMT
      00026  0621 00 0 77740         STA     RTN
      00027 -0500 00 0 00117         CAL     MAD
      00030  0630 00 0 77740         STP     RTN
      00031 -0500 00 0 00115         CAL     TPCNT
      00032  0602 00 0 77741         SLW     COL
      00033  0020 60 0 00000         TRA*    $(IOH)
                              *
                       00034  .PRINT SYN     *
      00034 -0500 00 0 00002  .COMNT CAL     2
1            FAP                                                                                 PAGE 2

      00035  0602 00 0 00120         SLW     2SAVE
      00036  0560 00 0 00042         LDQ     T1
      00037 -0600 00 0 00002         STQ     2
      00040 -0634 00 4 77740         SXD     RTN,4         SAVE CALLER LOC. IN RTN
      00041  0020 00 4 00001         TRA     1,4
                              *
      00042  0020 00 0 00043   T1    TRA     *+1
      00043  0634 00 4 00024         SXA     JN21,4
      00044  0535 00 4 00000         LAC     0,4           GET FORMAT
      00045 -0500 00 4 77777         CAL     -1,4          PARAMETER.
      00046 -0734 00 4 00000         PDX     0,4           IS FORMAT BACKWARD
      00047  0560 00 0 00117         LDQ     MAD           (D .NE. 0)

  BINARY CARD NO. SPH00003
      00050  3 00000 4 00052         TXH     *+2,4,0       OR
      00051  0560 00 0 00116         LDQ     UMAP          FORWARD (D .E. 0)
      00052  3 00001 4 00060         TXH     SYT,4,1
      00053 -0600 00 0 00121  T4     STQ     TEMP
      00054 -0130 00 0 00000         XCL
      00055 -0500 00 0 00114         CAL     FORT
      00056  0621 00 0 00121         STA     TEMP
      00057  0020 00 0 00022         TRA     JN21-2
                              *
                              *              TEST FOR SYMBOL TABLE
      00060  0560 00 0 00117   SYT   LDQ     MAD
      00061  0625 00 0 00122         STT     TGTMP
      00062 -0520 00 0 00122         NZT     TGTMP
      00063  0560 00 0 00116         LDQ     UMAP
      00064  0734 00 4 00000         PAX     0,4
      00065  0600 00 0 77771         STZ     STLOC
      00066  0634 00 4 77771         SXA     STLOC,4
      00067 -0734 00 4 00000         PDX     0,4
      00070  0754 00 4 00000         PXA     0,4
      00071  0020 00 0 00053         TRA     T4
                              *
      00072  0634 00 4 00102  .SPRNT SXA     X4,4
      00073 -0500 00 4 00001         CAL     1,4           GET CONTROL WORD FROM IOH

  BINARY CARD NO. SPH00004
      00074  0621 00 0 00101         STA     B
      00075 -0734 00 4 00000         PDX     ,4            IX4=WORD COUNT
      00076  2 00016 4 00104         TIX     A,4,N         TRANSF IF MORE THAN N WORDS
      00077 -0634 00 4 00101         SXD     B,4
      00100  0074 00 4 00001         TSX     $WRFLX,4      PRINT LINE NO MORE THAN N WORDS
      00101  0 00000 0 00000  B      PZE     **,,**        1ST OR 2ND
      00102  0774 00 4 00000  X4     AXT     **,4
      00103  0020 00 4 00002         TRA     2,4           RETURN TO IOH
      00104 -0634 00 4 00101  A      SXD     B,4           WORD COUNT FOR 2ND LINE
      00105  0534 00 4 00101         LXA     B,4
      00106  0634 00 4 00112         SXA     C,4           BUFFER ADDRESS FOR 1ST LINE
      00107  1 00016 4 00110         TXI     *+1,4,N
      00110  0634 00 4 00101         SXA     B,4           BUFFER ADDRESS FOR 2ND LINE
      00111  0074 00 4 00002         TSX     $WRFLXA,4      MORE THAN N WORDS. SEND OUT FIRST PART
      00112  0 00016 0 00000  C      PZE     **,,N          OF LINE.  SUPERVISOR WILL ADD C.R. IF
      00113  0020 00 0 00100         TRA     B-1            NEEDED. TO PRINT LAST HALF.
                              *
1            FAP                                                                                 PAGE 3

                       00016  N      EQU     14
      00114 -3 00001 0 00072   FORT  TXL     .SPRNT,,1
      00115 -3 00204 0 00000   TPCNT TXL     ,,132
      00116  3 77777 0 00000   UMAP  TXH     **,,-1
      00117  3 00001 0 00000   MAD   TXH     **,,1

  BINARY CARD NO. SPH00005
      00120  0 00000 0 00000   2SAVE
      00121  0 00000 0 00000   TEMP
      00122  0 00000 0 00000   TGTMP
                              *
                              *
                       00026  RECLEN EQU     22
                       77771         COMMON  -200
                       77771   STLOC COMMON  1
                       77742         COMMON  RECLEN
                       77742   REC   COMMON  1
                       77741   COL   COMMON  1
                       77740   RTN   COMMON  1
                       77737   FMT   COMMON  1
                                     END
1            FAP                                                                                 PAGE 1
                        POST PROCESSOR ASSEMBLY DATA

       77736 IS THE LAST LOCATION NOT USED BY THIS PROGRAM
        123 IS THE FIRST LOCATION NOT USED BY THIS PROGRAM

0REFERENCES TO DEFINED SYMBOLS
        104      A    76
        101      B    74,   77,  104,  105,  110,  113
        112      C   106
         16      N    76,  107,  112,  114
         42     T1    36
         53     T4    71
        102     X4    72
      77741    COL    32,  123
      77737    FMT    25,  123
        117    MAD    27,   47,   60
      77742    REC   123
      77740    RTN    10,   26,   30,   40,  123
         60    SYT    52
        114   FORT     6,   55
         24   JN21     7,   15,   43,   57
        121   TEMP    16,   21,   23,   53,   56
        116   UMAP    20,   51,   63
        120  2SAVE    35
      77771  STLOC    65,   66,  123
        122  TGTMP    61,   62
        115  TPCNT    31
          1  WRFLX   100
          0  (IOH)    33
          5  (SPH)     0,    5
         34 .COMNT     0
         34 .PRINT     0,   34
         72 .SPRNT     0,  114
         26 RECLEN   123
          2 WRFLXA   111
          5 (SPHM)     0

0 NO ERROR IN ABOVE ASSEMBLY.


  SPRY   BCD 06/25/69 2048.5     631         00000
1       XLIBE ROUTINE SPRAY - RECONSTRUCTED BY ROGER ROACH  2/22/68              06/21/69 1833.8 PAGE 1

                              *
                              * SPRAY FILLS AN ARRAY WITH A CERTAIN WORD
                              * ZERO FILLS THAT ARRAY WITH ZEROS
                              *
                              * CALLING SEQUENCES ARE :
                              *                SPRAY.(WORD,LOC1,LOC2...LOC2(N),LOC3,...)
                              *                ZERO.(LOC1,LOC2...LOC2(N),LOC3,....)
                              *
                       00015         ENTRY   SPRAY
                       00000         ENTRY   ZERO
      00000  0560 00 0 00033  ZERO   LDQ     =0
      00001 -0600 00 0 00032         STQ     WORD
      00002  0634 00 1 00013         SXA     XR1,1         SAVE IX 1
      00003  0500 00 4 00001  LOOP   CLA     1,4           GET THE ARGUMENT FROM THE LIST
      00004  0734 00 1 00000         PAX     ,1            PLACE INTO XR1
      00005  0622 00 0 00017         STD     TNX           SAVE COUNT(IF ANY) IN TNX INSTR.
      00006  0634 00 1 00022         SXA     DST,1         PLACE ADDRESS IN DOUBLE STORE INSTR.
      00007 -0320 00 0 00031         ANA     SEVEN         TEST THE PREFIX
      00010  0340 00 0 00030         CAS     TWO           COMPARE WITH A PTW
      00011  0020 00 0 00025         TRA     OVER          NOPE, A PTH (NO COUNT)
      00012  0020 00 0 00017         TRA     TNX           A COUNT, WE HAVE A BLOCK TO FILL
      00013  0774 00 1 00000  XR1    AXT     **,1          EXIT
      00014  0020 00 4 00001         TRA     1,4


      00015  0560 60 4 00001  SPRAY  LDQ*    1,4
      00016  1 77777 4 00001         TXI     ZERO+1,4,-1  MAKE THEM THINK IT WASN'T THERE

      00017 -2 00000 1 00025  TNX    TNX     OVER,1,** IF WE HAVE ONE LOC, SKIP
      00020  0500 00 0 00032         CLA     WORD
      00021  0774 00 0 00000         EVEN
      00022 -0603 00 1 00000  DST    DST     **,1          STORE BOTH AT ONCE
      00023  2 00002 1 00022         TIX     DST,1,2       LOOP FOR ENTIRE BLOCK
      00024 -2 00001 1 00027         TNX     *+3,1,1       SKIP IF NO MORE TO STORE
      00025  0774 00 1 00000  OVER   AXT     0,1
      00026 -0600 60 0 00022         STQ*    DST           STORE THAT LAST ONE
      00027  1 77777 4 00003         TXI     LOOP,4,-1     GO BACK FOR NEXT ARG

      00030  2 00000 0 00000  TWO    TWO
      00031 -3 00000 0 00000  SEVEN  SEVEN
      00032  0 00000 0 00000  WORD   PZE
                                     END

        LITERALS
      00033  000000000000
1       XLIBE ROUTINE SPRAY - RECONSTRUCTED BY ROGER ROACH  2/22/68              06/21/69 1833.8 PAGE 1
                        POST PROCESSOR ASSEMBLY DATA

         34 IS THE FIRST LOCATION NOT USED BY THIS PROGRAM

0REFERENCES TO DEFINED SYMBOLS
         22    DST     6,   23,   26
         17    TNX     5,   12
         30    TWO    10
         13    XR1     2
          3   LOOP    27
         25   OVER    11,   17
         32   WORD     1,   20
          0   ZERO     0,   16
         31  SEVEN     7
         15  SPRAY     0

0 NO ERROR IN ABOVE ASSEMBLY.


  SQRT   BCD 05/29/67 0009.3    1436         00000
1            FAP                                                                                 PAGE 1

                              *SQRT  709 FORTRAN LIBRARY / FORTRAN VERSION OF CCSQT4
                              *FLOATING POINT SQUARE ROOT FOR 709
                              * THIS ROUTINE HAS BEEN REVISED TO ACCOMODATE MAD/ MAY 1960
                              *      AUGUST 22,1962

                              *  THE CALLING SEQUENCE IS

                              *       CALL  SQRT                TSX  $SQRT,4
                              *       N=ARG IN THE AC           TXH  N
                              *                                 TXH  ERROR
                              *    FOR FORTRAN               FOR MAD


                              *  ERROR RETURNS
                              *    IF N IS NEGATIVE, GOES TO ERROR
                              *    THE MAD ERROR RETURN IS OPTIONAL.  IF THE PROGRAMMER DOES NOT
                              *      SPECIFY HIS OWN, THE FORTRAN ERROR ROUTINES WILL BE USED.


  BINARY CARD NO. SQRT0000
                       00004         ENTRY   SQRT
                       00004         ENTRY   SQR

        TRANSFER VECTOR

  BINARY CARD NO. SQRT0001
      00000  255151465160     ERROR
      00001  432464444760     LDUMP

            LINKAGE DIRECTOR
      00002  000000000000
      00003  625051636060

                       00004  SQR    EQU     *
      00004  0601 00 0 77776  SQRT   STO     COMMON        MODE TEST--MAD OR FORTRAN
      00005  0500 00 0 00107         CLA     TXH            .
      00006  0560 00 4 00001         LDQ     1,4            .
      00007  0040 00 0 00012         TLQ     *+3            .  FORTRAN
      00010  0500 60 4 00001         CLA*    1,4            .  GET MAD ARGUMENT
      00011  0601 00 0 77776         STO     COMMON         .
      00012  0500 00 0 77776         CLA     COMMON
      00013 -0320 00 0 00102         ANA     MSK1          SEPARATE MANTISSA AND ODD BIT
      00014  0771 00 0 00003         ARS     3             1/8 M OR M/4+1/8
      00015  0340 00 0 00103         CAS     MSK2          SEPARATE
      00016  0020 00 0 00025         TRA     ODD
      00017  0020 00 0 00047         TRA     APPRX
      00020  0100 00 4 00001         TZE     1,4           ZERO ARGUMENT
      00021  0400 00 0 77776         ADD     COMMON        9/8 M
      00022  0361 00 0 00104         ACL     A             9/8 M+7/8
      00023  0120 00 0 00030         TPL     NEWIN

  BINARY CARD NO. SQRT0002
      00024  0020 00 0 00047         TRA     APPRX
      00025  0402 00 0 77776   ODD   SUB     COMMON        -(7/4 M-1/8+1)
1            FAP                                                                                 PAGE 2

      00026  0361 00 0 00105         ACL     B             -(7/4 M+9/16+2)
      00027  0120 00 0 00047         TPL     APPRX
      00030  0771 00 0 00001   NEWIN ARS     1             -(7/8 M+9/32+1) OR 9/16 M+7/16
      00031  0602 00 0 77777         SLW     COMMON+1      STORE POSITIVE
      00032  0500 00 0 77776         CLA     COMMON
      00033  0241 00 0 77777         FDP     COMMON+1
      00034  0131 00 0 00000         XCA
      00035  0361 00 0 77777         ACL     COMMON+1
      00036  0771 00 0 00001         ARS     1
      00037  0601 00 0 77777         STO     COMMON+1
      00040  0500 00 0 77776         CLA     COMMON
      00041  0241 00 0 77777         FDP     COMMON+1
      00042  0131 00 0 00000         XCA
      00043  0361 00 0 77777         ACL     COMMON+1
      00044  0765 00 0 00001         LRS     1
      00045  0760 00 0 00010         RND
      00046  0020 00 4 00001         TRA     1,4
      00047  0500 00 0 77776   APPRX CLA     COMMON

  BINARY CARD NO. SQRT0003
      00050 -0120 00 0 00054         TMI     SQTER
      00051  0771 00 0 00001         ARS     1
      00052  0361 00 0 00106         ACL     C
      00053  0020 00 4 00001         TRA     1,4


      00054  0500 00 0 00107  SQTER  CLA     TXH           TEST FOR MAD ERROR RETURN
      00055  0560 00 4 00002         LDQ     2,4            .
      00056  0040 00 0 00060         TLQ     *+2            .  NONE SPECIFIED, USE FORTRAN
      00057  0020 60 4 00002         TRA*    2,4            .
      00060 -0634 00 4 00002         SXD     SQRT-2,4      FORTRAN ERROR ROUTINE
      00061  0074 00 4 00000         TSX     $ERROR,4
      00062  0 00000 0 00076         PZE     ARG
      00063  1 00000 0 00065         TXI     *+2,,0
      00064  0 00000 0 00002         PZE     SQRT-2,,0
      00065  0500 00 0 77776         CLA     COMMON        ARGUMENT IN AC
      00066  0074 00 4 00001         TSX     $LDUMP,4
      00067  0 00000 0 00003         PZE     SQRT-1
      00070  0020 00 0 00072         TRA     REPT
      00071  0020 00 0 00074         TRA     OUT


      00072 -0534 00 4 00002  REPT   LXD     SQRT-2,4
      00073  0020 00 4 00000         TRA     0,4           REPEAT MATH ROUTINE

  BINARY CARD NO. SQRT0004
      00074 -0534 00 4 00002  OUT    LXD     SQRT-2,4
      00075  0020 00 4 00001         TRA     1,4           LEAVE MATH ROUTINE
      00076  604525272163     ARG    BCI     3, NEGATIVE ARGUMENT
      00077  316525602151
      00100  276444254563
      00101 -377777777777            OCT     777777777777
1            FAP                                                                                 PAGE 3

                              *                            CONSTANTS

      00102 +001777777777      MSK1  OCT     1777777777
      00103 +000077777777      MSK2  OCT     77777777
      00104 +200700000000      A     DEC     .875
      00105 +201540000000      B     DEC     1.375         USED AS 1+11/16 IN MANTISSA
      00106 +100400000000      C     OCT     100400000000
 ATD  00107  3 00000 0 00000  TXH    TXH                   CONSTANT FOR MAD-FORTRAN TEST


                              *                            ERASABLES

                       77776         COMMON  -206+1
                       77776  COMMON COMMON  1
                                     END
1            FAP                                                                                 PAGE 1
                        POST PROCESSOR ASSEMBLY DATA

       77775 IS THE LAST LOCATION NOT USED BY THIS PROGRAM
        110 IS THE FIRST LOCATION NOT USED BY THIS PROGRAM

0REFERENCES TO DEFINED SYMBOLS
        104      A    22
        105      B    26
        106      C    52
         76    ARG    62
         25    ODD    16
         74    OUT    71
          4    SQR     0,    4
        107    TXH     5,   54
        102   MSK1    13
        103   MSK2    15
         72   REPT    70
          4   SQRT     0,   60,   64,   67,   72,   74
         47  APPRX    17,   24,   27
          0  ERROR    61
          1  LDUMP    66
         30  NEWIN    23
         54  SQTER    50
      77776 COMMON     4,   11,   12,   21,   25,   31,   32,   33,   35,   37,   40,   41,   43,   47,   65,  110

0 NO ERROR IN ABOVE ASSEMBLY.


  SRCH   BCD 05/29/67 0009.3    3376         00000
1            FAP                                                                                 PAGE 1

                              *      SRCH, BLK, FLK, ENDF, CLOUT.  UTILITY DISK ROUTINES.
                                             MODIFIED FOR NEW FILE SYSTEM  JUNE 1965     EMK

                              *      TSX     $SRCH,4       CALLING SEQUENCE TO SEARCH
                              *      PZE     FILNAM        ACTIVE FILE DIRECTORY (FTB) FOR FILE
                              *              ERROR RET.    RETURNS TO (2,4)IF FILE NOT FOUND
                              *              NORMAL RET.   RETURNS TO (3,4) NORMAL WITH
                              *                            STATUS WORD IN AC
                              *
                              *      TSX     $BLK,4        CALLING SEQUENCE TO ASSIGN BUFFER
                              *              ERROR RET.    RETURNS (1,4) IF NO BUFFER AVAILABLE
                              *              NORMAL RET.   RETURNS (2,4) NORMAL WITH
                              *                            AC=BUFFER ADDRESS,,POINTER
                              *
                              *      TSX     $FLK,4        CALLING SEQUENCE TO PUT FILE IN
                              *      PZE     FILNAM        DIRECTORY IF SPACE ALLOWS
                              *      PFX     STATUS,,PTR1 SETS STATUS OF FILE AND POINTERS TO
                              *      PZE     ,,PTR2        ASSIGNED BUFFERS.  IF SIGN OF PFX IS
                              *              ERROR RET.    POS, USE BUFFERED DISK CALLS.  IF NEG,
                              *              NORMAL RET.   USE DIRECT SUPERVISOR CALLS.
                              *                            RETURNS (3,4) IF NO SPACE IN (FTB)
                              *                            RETURNS (4,4) NORMAL
                              *
                              *      TSX     $ENDF,4       CALLING SEQUENCE TO RESET
                              *      PZE     FILNAM        STATUS OF FILE TO ZERO AND FREE
                              *                            BUFFER (NO ERROR RETURN)
                              *
                              *      TSX     $CLOUT,4      CALLING SEQUENCE TO CLOSE OUT ALL
                              *                            ACTIVE FILES AND FREE ALL BUFFERS
                              *
                              *      SETUP OF FTB TABLE  LENGTH = 40   4 WORDS FOR EACH FILE.
                              *              WORD 1  PFX STATUS,,POINTER TO FIRST BUFFER
                              *              WORD 2  PZE ,,POINTER TO SECOND BUFFER
                              *              WORD 3  PRIMARY NAME OF FILE
                              *              WORD 4  SECONDARY NAME OF FILE
                              *              FTB-40,-39,-38,-37 REFER TO THE FIRST FILE IN THE TABLE
                              *
                              *      SETUP OF BTB TABLE  LENGTH=20   1 WORD FOR EACH ASSIGNED BUFFER
                              *              PZE BUFADR,,PTR TO FIRST WORD OF INFO IN FTB CONCERNING
                              *                             THE FILE WHICH USES THIS BUFFER.
                              *

  BINARY CARD NO. SRCH0000
                       00006         ENTRY   SRCH
                       00040         ENTRY   BLK
                       00062         ENTRY   FLK
                       00123         ENTRY   ENDF
                       00161         ENTRY   CLOUT

        TRANSFER VECTOR

  BINARY CARD NO. SRCH0001
      00000  265125516060     FRER
      00001  265125636060     FRET
      00002  222623434662     BFCLOS
      00003  234346622560     CLOSE
1            FAP                                                                                 PAGE 2

            LINKAGE DIRECTOR
      00004  000000000000
      00005  625123306060

                       00004  I4     SYN     *-2

                       00006   SRCH  SYN     *
      00006 -0634 00 4 00004         SXD     I4,4
      00007  0634 00 1 00036         SXA     SRCHX,1
      00010  0534 00 1 00220    FILO LXA     SIZE,1
      00011  1 77776 1 00012         TXI     *+1,1,-2
      00012 -0634 00 1 00031         SXD     FIL41,1
      00013 -0500 60 4 00001         CAL*    1,4
      00014 -0340 00 1 00272  FIL1   LAS     FTB,1         LOOK FOR FILE NAME IN
      00015  0020 00 0 00017         TRA     *+2           ACTIVE FILE TABLE
      00016  1 77777 1 00021         TXI     FIL2,1,-1     PRIMARY NAME FOUND
      00017  2 00004 1 00014         TIX     *-3,1,4
      00020  1 00001 4 00036         TXI     SRCHX,4,1     PRIMARY NAME NOT FOUND. ERROR RETURN
      00021 -0500 00 4 00001   FIL2  CAL     1,4           CHECK FOR SECONDARY NAME
      00022  0400 00 0 00317         ADD     =1
      00023  0621 00 0 00024         STA     *+1

  BINARY CARD NO. SRCH0002
      00024 -0500 00 0 00000         CAL     **
      00025 -0340 00 1 00272  FIL4   LAS     FTB,1
      00026  0020 00 0 00030         TRA     *+2
      00027  1 00003 1 00033         TXI     FIL3,1,3      SECONDARY NAME FOUND
      00030  1 77775 1 00031         TXI     *+1,1,-3      SET COUNTER FOR NEXT NAME
      00031 -3 00000 1 00013  FIL41  TXL     FIL1-1,1,**
      00032  1 00001 4 00036         TXI     SRCHX,4,1     FILE NOT FOUND. ERROR RETURN
      00033  0500 00 1 00272  FIL3   CLA     FTB,1         STATUS WORD IN AC
      00034  0100 00 0 00032         TZE     *-2
      00035  0634 00 1 00217         SXA     TEMP,1
      00036  0774 00 1 00000  SRCHX  AXT     **,1
      00037  0020 00 4 00003         TRA     3,4           RETURN.

                       00040   BLK   SYN     *
      00040 -0634 00 4 00004         SXD     I4,4
      00041  0634 00 1 00036         SXA     SRCHX,1
      00042 -0534 00 1 00220    BLKO LXD     SIZE,1
      00043  0500 00 1 00316  BLK1   CLA     BTB,1         IS ANY BUFFER SPACE AVAILABLE
      00044  0100 00 0 00047         TZE     *+3           BUFF ADDR,,PTR TO (FTB)
      00045  2 00001 1 00043         TIX     *-2,1,1
      00046  1 00002 4 00036         TXI     SRCHX,4,2     NO ROOM.  ERROR RETURN
      00047 -0634 00 1 00217         SXD     TEMP,1

  BINARY CARD NO. SRCH0003
      00050  0074 00 4 00000         TSX     $FRER,4       GET FREE STORAGE BLOCK.
      00051  0 00000 0 00221         PZE     BUFLEN
      00052 -0100 00 0 00055         TNZ     *+3
      00053 -0534 00 4 00004         LXD     I4,4          NO ROOM FOR FREE BUFFER
      00054  1 00002 4 00036         TXI     SRCHX,4,2     EXIT WITH ERROR RETURN
      00055  0621 00 1 00316         STA     BTB,1
      00056  0621 00 0 00217         STA     TEMP          ADDR. OF BUFFER
      00057  0500 00 0 00217         CLA     TEMP          BUFFER ADDR,,POINTER
      00060 -0534 00 4 00004  GT4    LXD     I4,4
1            FAP                                                                                 PAGE 3

      00061  1 00001 4 00036         TXI     SRCHX,4,1     NORMAL RETURN

                       00062   FLK   SYN     *
      00062 -0634 00 4 00004         SXD     I4,4
      00063  0634 00 1 00036         SXA     SRCHX,1
      00064  0534 00 1 00220    FLKO LXA     SIZE,1        IS THERE SPACE IN ACTIVE FILE TABLE
      00065  0500 00 1 00272  FLK1   CLA     FTB,1
      00066  0100 00 0 00071         TZE     *+3           YES
      00067  2 00004 1 00065         TIX     *-2,1,4
      00070  1 77777 4 00036         TXI     SRCHX,4,-1    NO. ERROR RETURN
      00071  0500 00 4 00002         CLA     2,4
      00072  0601 00 1 00272  FLK2   STO     FTB,1         STORE STATUS WORD IN TABLE
      00073  0500 00 4 00003         CLA     3,4

  BINARY CARD NO. SRCH0004
      00074  0601 00 1 00273         STO     FTB+1,1       STORE SECOND BUFFER WD. IN TABLE.
      00075 -0500 60 4 00001         CAL*    1,4           STORE PRIMARY FILE NAME
      00076  1 77776 1 00077         TXI     *+1,1,-2
      00077  0602 00 1 00272  FLK3   SLW     FTB,1
      00100 -0500 00 4 00001         CAL     1,4           GET SECONDARY NAME AND
      00101  0400 00 0 00317         ADD     =1            STORE IN TABLE
      00102  0621 00 0 00103         STA     *+1
      00103 -0500 00 0 00000         CAL     **
      00104  1 77777 1 00105         TXI     *+1,1,-1
      00105  0602 00 1 00272  FLK4   SLW     FTB,1
      00106 -0500 00 4 00002         CAL     2,4
      00107  1 00003 1 00110         TXI     *+1,1,3
      00110 -0634 00 1 00217         SXD     TEMP,1        GET POINTER IF BUFFER ASSIGNED
      00111 -0734 00 1 00000         PDX     ,1            POINTER=0 IS BUFFER PROVIDED
      00112 -3 00000 1 00122         TXL     FLK5+1,1,0
      00113  0500 00 0 00217         CLA     TEMP
      00114  0622 00 1 00316         STD     BTB,1
      00115 -0500 00 4 00003         CAL     3,4           GET POINTER TO SECOND BUFFER
      00116 -0734 00 1 00000         PDX     ,1            IF ANY
      00117 -3 00000 1 00122         TXL     FLK5+1,1,0

  BINARY CARD NO. SRCH0005
      00120  0500 00 0 00217         CLA     TEMP
      00121  0622 00 1 00316  FLK5   STD     BTB,1
      00122  1 77776 4 00036         TXI     SRCHX,4,-2    RETURN.

                       00123   ENDF  SYN     *
      00123  0634 00 4 00157         SXA     XR4,4
      00124 -0500 00 4 00001         CAL     1,4
      00125  0621 00 0 00127         STA     *+2
      00126  0074 00 4 00006         TSX     SRCH,4        SEARCH FOR FILE
      00127  0 00000 0 00000         PZE     **
      00130  0020 00 0 00157         TRA     XR4           FILE NOT THERE, IGNORE REQUEST
      00131  0534 00 1 00217         LXA     TEMP,1
      00132  0600 00 1 00272  END1   STZ     FTB,1         DROP FILE BY RESETTING STATUS
      00133 -0734 00 1 00000         PDX     ,1
      00134 -3 00000 1 00157         TXL     XR4,1,0
      00135  0500 00 1 00316         CLA     BTB,1
      00136  0621 00 0 00216         STA     TMP
      00137  0074 00 4 00001         TSX     $FRET,4
      00140  0 00000 0 00221         PZE     BUFLEN
1            FAP                                                                                 PAGE 4

      00141  0 00000 0 00216         PZE     TMP
      00142  0600 00 1 00316         STZ     BTB,1
      00143  0534 00 1 00217         LXA     TEMP,1

  BINARY CARD NO. SRCH0006
      00144  1 77777 1 00145         TXI     *+1,1,-1
      00145  0500 00 1 00272         CLA     FTB,1         GET SECOND STATUS WORD.
      00146  0600 00 1 00272         STZ     FTB,1
      00147 -0734 00 1 00000         PDX     ,1
      00150 -3 00000 1 00157         TXL     XR4,1,0       IF PTR. IS ZERO, BUFFER NOT ASSIGNED.
      00151  0500 00 1 00316         CLA     BTB,1
      00152  0621 00 0 00216         STA     TMP
      00153  0074 00 4 00001         TSX     $FRET,4
      00154  0 00000 0 00221         PZE     BUFLEN
      00155  0 00000 0 00216         PZE     TMP
      00156  0600 00 1 00316         STZ     BTB,1
      00157  0774 00 4 00000  XR4    AXT     **,4
      00160  1 00001 4 00036         TXI     SRCHX,4,1

                       00161   CLOUT SYN     *
      00161 -0634 00 4 00004         SXD     I4,4
      00162  0634 00 1 00036         SXA     SRCHX,1
      00163  0634 00 2 00213         SXA     X2,2
      00164  0634 00 4 00214         SXA     X4,4
      00165  0600 00 0 00217         STZ     TEMP
      00166  0534 00 1 00220     CLO LXA     SIZE,1
      00167  0600 00 1 00272  CL1    STZ     FTB,1         ZERO ALL STATUS WORDS.

  BINARY CARD NO. SRCH0007
      00170  0600 00 1 00273         STZ     FTB+1,1
      00171  2 00004 1 00167         TIX     *-2,1,4
      00172  0074 00 4 00002         TSX     $BFCLOS,4
      00173  3 00000 0 00321         PTH     =H   ALL
      00174  3 00000 0 00320         PTH     =-0
      00175  3 00000 0 00176         PTH     *+1
      00176  0074 00 4 00003         TSX     $CLOSE,4      CLOSE OUT ALL FILES
      00177  3 00000 0 00321         PTH     =H   ALL
      00200  3 00000 0 00320         PTH     =-0
      00201  3 00000 0 00202         PTH     *+1
      00202 -0534 00 1 00220  CL4    LXD     SIZE,1        RETURN ALL BUFFERS TO FREE STORAGE
      00203  0500 00 1 00316         CLA     BTB,1
      00204  0100 00 0 00212         TZE     X2-1
      00205  0621 00 0 00217         STA     TEMP
      00206  0074 00 4 00001         TSX     $FRET,4
      00207  0 00000 0 00221         PZE     BUFLEN
      00210  0 00000 0 00217         PZE     TEMP
      00211  0600 00 1 00316         STZ     BTB,1
      00212  2 00001 1 00203         TIX     CL4+1,1,1
      00213  0774 00 2 00000   X2    AXT     **,2          RESTORE XRS

  BINARY CARD NO. SRCH0008
      00214  0774 00 4 00000   X4    AXT     **,4          AND
      00215  1 00002 4 00036         TXI     SRCHX,4,2     RETURN.
1            FAP                                                                                 PAGE 5

      00216  0 00000 0 00000  TMP    PZE
      00217 +000000000000      TEMP  DEC     0
      00220  0 00024 0 00050  SIZE   PZE     40,,20
      00221 +000000000660     BUFLEN DEC     432
                       00222         DUP     1,10*4
      00222  0 00000 0 00000         PZE     0
      00223  0 00000 0 00000
      00224  0 00000 0 00000
      00225  0 00000 0 00000
      00226  0 00000 0 00000
      00227  0 00000 0 00000
      00230  0 00000 0 00000
      00231  0 00000 0 00000
      00232  0 00000 0 00000
      00233  0 00000 0 00000
      00234  0 00000 0 00000
      00235  0 00000 0 00000
      00236  0 00000 0 00000
      00237  0 00000 0 00000

  BINARY CARD NO. SRCH0009
      00240  0 00000 0 00000
      00241  0 00000 0 00000
      00242  0 00000 0 00000
      00243  0 00000 0 00000
      00244  0 00000 0 00000
      00245  0 00000 0 00000
      00246  0 00000 0 00000
      00247  0 00000 0 00000
      00250  0 00000 0 00000
      00251  0 00000 0 00000
      00252  0 00000 0 00000
      00253  0 00000 0 00000
      00254  0 00000 0 00000
      00255  0 00000 0 00000
      00256  0 00000 0 00000
      00257  0 00000 0 00000
      00260  0 00000 0 00000
      00261  0 00000 0 00000
      00262  0 00000 0 00000
      00263  0 00000 0 00000

  BINARY CARD NO. SRCH0010
      00264  0 00000 0 00000
      00265  0 00000 0 00000
      00266  0 00000 0 00000
      00267  0 00000 0 00000
      00270  0 00000 0 00000
      00271  0 00000 0 00000
                       00272  FTB    SYN     *
                       00272         DUP     1,10*2
      00272  0 00000 0 00000         PZE     0
      00273  0 00000 0 00000
      00274  0 00000 0 00000
      00275  0 00000 0 00000
      00276  0 00000 0 00000
1            FAP                                                                                 PAGE 6

      00277  0 00000 0 00000
      00300  0 00000 0 00000
      00301  0 00000 0 00000
      00302  0 00000 0 00000
      00303  0 00000 0 00000
      00304  0 00000 0 00000
      00305  0 00000 0 00000
      00306  0 00000 0 00000
      00307  0 00000 0 00000

  BINARY CARD NO. SRCH0011
      00310  0 00000 0 00000
      00311  0 00000 0 00000
      00312  0 00000 0 00000
      00313  0 00000 0 00000
      00314  0 00000 0 00000
      00315  0 00000 0 00000
      00316  0 00000 0 00000  BTB    PZE     0
                                     END

        LITERALS
      00317  000000000001
      00320  400000000000
      00321  606060214343
1            FAP                                                                                 PAGE 1
                        POST PROCESSOR ASSEMBLY DATA

        322 IS THE FIRST LOCATION NOT USED BY THIS PROGRAM

0REFERENCES TO DEFINED SYMBOLS
          4     I4     6,   40,   53,   60,   62,  161
        213     X2   163,  204
        214     X4   164
         40    BLK     0,   40
        316    BTB    43,   55,  114,  121,  135,  142,  151,  156,  203,  211
        167    CL1
        202    CL4   212
        166    CLO
         62    FLK     0,   62
        272    FTB    14,   25,   33,   65,   72,   74,   77,  105,  132,  145,  146,  167,  170,  272
         60    GT4
        216    TMP   136,  141,  152,  155
        157    XR4   123,  130,  134,  150
         43   BLK1
         42   BLKO
        132   END1
        123   ENDF     0,  123
         14   FIL1    31
         21   FIL2    16
         33   FIL3    27
         25   FIL4
         10   FILO
         65   FLK1
         72   FLK2
         77   FLK3
        105   FLK4
        121   FLK5   112,  117
         64   FLKO
          0   FRER    50
          1   FRET   137,  153,  206
        220   SIZE    10,   42,   64,  166,  202
          6   SRCH     0,    6,  126
        217   TEMP    35,   47,   56,   57,  110,  113,  120,  131,  143,  165,  205,  210
          3  CLOSE   176
        161  CLOUT     0,  161
         31  FIL41    12
         36  SRCHX     7,   20,   32,   41,   46,   54,   61,   63,   70,  122,  160,  162,  215
          2 BFCLOS   172
        221 BUFLEN    51,  140,  154,  207

0 NO ERROR IN ABOVE ASSEMBLY.


  STB0   BCD 05/29/67 0009.3    1465         00000
1            FAP                                                                                 PAGE 1

                              *      JULY 64


  BINARY CARD NO. STB00000
                       00012         ENTRY   (STB)
                       00101         ENTRY   (WLR)
                       00057         ENTRY   (TSB)
                       00113         ENTRY   (RLR)


        TRANSFER VECTOR

  BINARY CARD NO. STB00001
      00000  266263216360     FSTAT
      00001  214747254524     APPEND
      00002  216262312745     ASSIGN
      00003  622525426060     SEEK
      00004  225125212460     BREAD
      00005  226651316325     BWRITE
      00006  242543222360     DELBC
      00007  227125436060     BZEL

            LINKAGE DIRECTOR
      00010  000000000000
      00011  746263223460

      00012  0634 00 4 00031  (STB)  SXA     RET1,4
      00013  0074 00 4 00126         TSX     CONV,4
      00014  0074 00 4 00000  OPEN   TSX     $FSTAT,4
      00015  3 00000 0 00125         BRN     FILNAM
      00016  0100 00 0 00033  NOFIL  TZE     NOFILE
      00017  0074 00 4 00001         TSX     $APPEND,4
      00020  3 00000 0 00125         BRN     FILNAM
      00021 -0500 00 0 00000         CAL     0
      00022  0602 00 0 00115         SLW     LOC0
      00023 -0500 00 0 00002         CAL     2

  BINARY CARD NO. STB00002
      00024  0602 00 0 00116         SLW     LOC2
      00025 -0500 00 0 00117         CAL     TRAWRT
      00026  0602 00 0 00002         SLW     2
      00027  0500 00 0 00121         CLA     INIT
      00030  0601 00 0 00104         STO     BUFCNT
      00031  0774 00 4 00000  RET1   AXT     **,4
      00032  0020 00 4 00001         TRA     1,4
      00033  0074 00 4 00002  NOFILE TSX     $ASSIGN,4
      00034  3 00000 0 00125         BRN     FILNAM
      00035  0020 00 0 00017         TRA     NOFIL+1
      00036  0634 00 4 00045  WRITE  SXA     INDEX4,4
      00037 -0534 00 4 00104         LXD     BUFCNT,4
      00040  1 00001 4 00041         TXI     *+1,4,1
      00041  3 00304 4 00047         TXH     FULL,4,FSTBUF+100-1
      00042 -0634 00 4 00104         SXD     BUFCNT,4
      00043  0634 00 4 00044         SXA     *+1,4
1            FAP                                                                                 PAGE 2

      00044 -0600 00 0 00000         STQ     **            WORD
      00045  0774 00 4 00000  INDEX4 AXT     **,4
      00046  0020 60 0 00000         TRA*    0
      00047 -0600 00 0 00140    FULL STQ     TEMP

  BINARY CARD NO. STB00003
      00050  0074 00 4 00005         TSX     BWRITE,4
 TD   00051  3 00000 0 00125         TXH     FILNAM
      00052  2 00304 0 00141         TIX     FSTBUF,,FSTBUF+100-1
      00053  0500 00 0 00121         CLA     INIT
      00054  0601 00 0 00104         STO     BUFCNT
      00055  0560 00 0 00140         LDQ     TEMP
      00056  0020 00 0 00037         TRA     WRITE+1
      00057  0634 00 4 00071  (TSB)  SXA     RET3,4
      00060  0074 00 4 00126         TSX     CONV,4
      00061  0074 00 4 00003         TSX     $SEEK,4       NO ERROR RETURN WHEN FILE NOT FOUND
      00062  3 00000 0 00125         BRN     FILNAM
      00063 -0500 00 0 00000         CAL     0
      00064  0602 00 0 00115         SLW     LOC0
      00065 -0500 00 0 00002         CAL     2
      00066  0602 00 0 00116         SLW     LOC2
      00067 -0500 00 0 00120         CAL     TRARD
      00070  0602 00 0 00002         SLW     2
      00071  0774 00 4 00000  RET3   AXT     **,4
      00072  0020 00 4 00001         TRA     1,4
      00073  0634 00 4 00045  READ   SXA     INDEX4,4      LOC 0 AND LOC 2 NOT RESTORED ON EOF

  BINARY CARD NO. STB00004
      00074  0074 00 4 00004         TSX     $BREAD,4
      00075  3 00000 0 00125         BRN     FILNAM
 TD   00076  3 00000 0 00123         TXH     WORD
      00077  0560 00 0 00123         LDQ     WORD
      00100  0020 00 0 00045         TRA     INDEX4
      00101  0634 00 4 00111  (WLR)  SXA     RET2,4        FILE NOT CLOSED OUT AT END OF WRITING
      00102  0074 00 4 00005         TSX     $BWRITE,4
 TD   00103  3 00000 0 00125         TXH     FILNAM
      00104  2 00140 0 00141  BUFCNT TIX     FSTBUF,,FSTBUF-1
      00105  0500 00 0 00115  RESTOR CLA     LOC0
      00106  0601 00 0 00000         STO     0
      00107  0500 00 0 00116         CLA     LOC2
      00110  0601 00 0 00002         STO     2
      00111  0774 00 4 00000  RET2   AXT     **,4
      00112  0020 00 4 00001         TRA     1,4
      00113  0634 00 4 00111  (RLR)  SXA     RET2,4        FILE NOT CLOSE OUT AT END OF READING
      00114  0020 00 0 00105         TRA     RESTOR
      00115  0 00000 0 00000  LOC0   PZE
      00116  0 00000 0 00000  LOC2   PZE
      00117  0020 00 0 00036  TRAWRT TRA     WRITE

  BINARY CARD NO. STB00005
      00120  0020 00 0 00073  TRARD  TRA     READ
      00121  2 00140 0 00141  INIT   TIX     FSTBUF,,FSTBUF-1
      00122  0761 00 0 00000  NOP    NOP
      00123  0 00000 0 00000  WORD   PZE
      00124  0 00000 0 00000         PZE     **            FILNAM-1
      00125  336321472533     FILNAM BCI     1,.TAPE.
1            FAP                                                                                 PAGE 3

      00126  0634 00 4 00136  CONV   SXA     X4,4
      00127  0601 00 0 00124         STO     FILNAM-1
      00130  0074 00 4 00006         TSX     $DELBC,4
      00131  0 00000 0 00124         PZE     FILNAM-1
      00132  0601 00 0 00124         STO     FILNAM-1
      00133  0074 00 4 00007         TSX     $BZEL,4
      00134  0 00000 0 00124         PZE     FILNAM-1
      00135  0601 00 0 00124         STO     FILNAM-1
      00136  0774 00 4 00000  X4     AXT     **,4
      00137  0020 00 4 00001         TRA     1,4
      00140  0 00000 0 00000    TEMP PZE
      00141                   FSTBUF BSS     100
                                     END
1            FAP                                                                                 PAGE 1
                        POST PROCESSOR ASSEMBLY DATA

        305 IS THE FIRST LOCATION NOT USED BY THIS PROGRAM

0REFERENCES TO DEFINED SYMBOLS
        136     X4   126
        122    NOP
          7   BZEL   133
        126   CONV    13,   60
         47   FULL    41
        121   INIT    27,   53
        115   LOC0    22,   64,  105
        116   LOC2    24,   66,  107
         14   OPEN
         73   READ   120
         31   RET1    12
        111   RET2   101,  113
         71   RET3    57
          3   SEEK    61
        140   TEMP    47,   55
        123   WORD    76,   77
          4  BREAD    74
          6  DELBC   130
          0  FSTAT    14
         16  NOFIL    35
        120  TRARD    67
         36  WRITE    56,  117
        113  (RLR)     0
         12  (STB)     0
         57  (TSB)     0
        101  (WLR)     0
          1 APPEND    17
          2 ASSIGN    33
        104 BUFCNT    30,   37,   42,   54
          5 BWRITE    50,  102
        125 FILNAM    15,   20,   34,   51,   62,   75,  103,  127,  131,  132,  134,  135
        141 FSTBUF    41,   52,  104,  121
         45 INDEX4    36,   73,  100
         33 NOFILE    16
        105 RESTOR   114
        117 TRAWRT    25

0 NO ERROR IN ABOVE ASSEMBLY.


  STFL   BCD 10/22/67 2154.7     259         00000
1                                                                                                PAGE 1

                       00000         ENTRY   SETBCD
                       00001         ENTRY   SETFUL
                       00002         ENTRY   SETNCV
                       00003         ENTRY   SETNBK
                       00004         ENTRY   KILNBK
      00000  0101 00 0 00006  SETBCD TIA     =HSETBCD
      00001  0101 00 0 00007  SETFUL TIA     =HSETFUL
      00002  0101 00 0 00011  SETNCV TIA     =HSETNCV
      00003  0101 00 0 00010  SETNBK TIA     =HSETNBK
      00004  0101 00 0 00005  KILNBK TIA     =HKILNBK
                                     END

        LITERALS
      00005  423143452242
      00006  622563222324
      00007  622563266443
      00010  622563452242
      00011  622563452365
1                                                                                                PAGE 1
                        POST PROCESSOR ASSEMBLY DATA

         12 IS THE FIRST LOCATION NOT USED BY THIS PROGRAM

0REFERENCES TO DEFINED SYMBOLS
          4 KILNBK     0
          0 SETBCD     0
          1 SETFUL     0
          3 SETNBK     0
          2 SETNCV     0

0 NO ERROR IN ABOVE ASSEMBLY.


  STOM   BCD 05/29/67 0009.3    1500         00000
1            FAP                                                                                 PAGE 1

                              *     STOMAP      SYMBOL TABLE PRINT  JANUARY 30, 1961    LYNDA KORN
                       00004         ENTRY   STOMAP

                                                   CALL STOMAP
                                                  1,4       RETURN
                                             PRINTS A STORAGE MAP OF THE SYMBOL TABLE USING MOVIE)


        TRANSFER VECTOR
      00000  444665312534     MOVIE)
      00001  665126436760     WRFLX

            LINKAGE DIRECTOR
      00002  000000000000
      00003  626346442147

      00004 -0634 00 4 00002  STOMAP SXD     STOMAP-2,4
      00005  0634 00 1 00066         SXA     IX1,1
      00006  0634 00 2 00067         SXA     IX2,2
      00007  0500 60 0 00000         CLA*    $MOVIE)
      00010  0622 00 0 00056         STD     FULST
      00011  0771 00 0 00022         ARS     18
      00012  0400 60 0 00000         ADD*    $MOVIE)
      00013  0621 00 0 00025         STA     SRCH
      00014  0621 00 0 00035         STA     AGAIN
      00015  0400 00 0 00153         ADD     =1
      00016  0621 00 0 00040         STA     ORG

      00017  0074 00 4 00001         TSX     $WRFLX,4
      00020  0 00010 0 00100         PZE     HEAD,,8
      00021  0074 00 4 00001         TSX     $WRFLX,4
      00022  0 00013 0 00110         PZE     PHEAD,,11
      00023  0774 00 2 00002         AXT     2,2
      00024  0774 00 1 00000         AXT     0,1                 IX1 USED TO INDEX IN BCD LINE
      00025  0500 00 2 00000    SRCH CLA     **,2           TOP ADDRESS OF SYMBOL TABLE +1
      00026 -0100 00 0 00032         TNZ     TSTTV
      00027 -0500 00 0 00076         CAL     (MAIN)         ZERO INDICATES MAIN PROGRAM
      00030  0602 00 1 00123         SLW     NAME1,1
 TD   00031 -3 00000 0 00046         TXL     CADR
      00032  0522 00 0 00025  TSTTV  XEC     SRCH
      00033  0402 00 0 00077         SUB     TXL
      00034  0100 00 0 00040         TZE     ORG
      00035 -0500 00 2 00000  AGAIN  CAL     **,2
      00036 -0320 00 0 00077         ANA     TXL
      00037 -0100 00 0 00044         TNZ     SUBPR
                                             ADDRESS NON ZERO THEREFORE BCD NAME
      00040  0560 00 2 00000  ORG    LDQ     **,2
      00041  0074 00 4 00136         TSX     CNVRT,4
      00042  0602 00 0 00152         SLW     ORGTNT
      00043  0020 00 0 00055         TRA     UPIX2
      00044  0522 00 0 00035  SUBPR  XEC     AGAIN                   CAL   SYMT,2
      00045  0602 00 1 00123         SLW     NAME1,1
      00046  0522 00 0 00040  CADR   XEC     ORG
      00047  0074 00 4 00136         TSX     CNVRT,4     E.P. IN MQ FOR DECIMAL CONVERSION
      00050  0602 00 1 00125         SLW     ENTRY1,1
      00051 -0500 00 0 00152         CAL     ORGTNT
1            FAP                                                                                 PAGE 2

      00052  0602 00 1 00124         SLW     ORGIN1,1
      00053  1 77774 1 00054         TXI     *+1,1,-4
      00054 -3 77765 1 00072         TXL     TPRT,1,-11     IX1 TO PRINT AFTER 3 NAMES
      00055  1 00002 2 00056  UPIX2  TXI     *+1,2,2
      00056 -3 00000 2 00025  FULST  TXL     SRCH,2,**         A DONE SYMBOL TABLE PRINT
      00057  0754 00 1 00000         PXA     ,1      CHECK IX 1 FOR PART OF NUMBER TO PRINT
      00060  0737 00 1 00000         PAC     0,1
      00061  0754 00 1 00000         PXA     0,1
      00062  0100 00 0 00066         TZE     IX1
      00063 -0634 00 1 00065         SXD     LASTT,1
      00064  0074 00 4 00001         TSX     $WRFLX,4
      00065  0 00000 0 00123  LASTT  PZE     NUMBER,,**       LAST TIME
      00066  0774 00 1 00000  IX1    AXT     **,1
      00067  0774 00 2 00000  IX2    AXT     **,2
      00070 -0534 00 4 00002         LXD     STOMAP-2,4
      00071  0020 00 4 00001         TRA     1,4

      00072  0074 00 4 00001  TPRT   TSX     $WRFLX,4
      00073  0 00013 0 00123         PZE     NUMBER,,11
      00074  0774 00 1 00000         AXT     0,1
 TD   00075 -3 00000 0 00055         TXL     UPIX2

      00076  744421314534     (MAIN) BCI     1,(MAIN)
 ATD  00077 -3 00000 0 00000  TXL    TXL
      00100  606060606060     HEAD   BCI     8,                       SUBPROGRAM STORAGE MAP
      00101  606060606060
      00102  606060606060
      00103  606060606062
      00104  642247514627
      00105  512144606263
      00106  465121272560
      00107  442147606060
      00110  604521442560     PHEAD  BCI     9, NAME ORIGIN ENTRY       NAME ORIGIN ENTRY       NAME
      00111  465131273145
      00112  602545635170
      00113  606060606060
      00114  604521442560
      00115  465131273145
      00116  602545635170
      00117  606060606060
      00120  604521442560
      00121  465131273145            BCI     2,ORIGIN ENTRY
      00122  602545635170
      00123  606060606060     NUMBER BCI ,
      00124  606060606060
      00125  606060606060
      00126  606060606060
      00127  606060606060
      00130  606060606060
      00131  606060606060
      00132  606060606060
      00133  606060606060
      00134  606060606060
      00135  606060606060            BCI     1,
                       00123  NAME1  SYN     0+NUMBER
                       00124  ORGIN1 SYN     1+NUMBER
1            FAP                                                                                 PAGE 3

                       00125  ENTRY1 SYN     2+NUMBER

      00136  0634 00 1 00146  CNVRT  SXA     RESTOR,1
      00137 -0773 00 0 00025         RQL     21
      00140 -0754 00 0 00005  FIVE   PXD     5,0
      00141  0534 00 1 00140         LXA     FIVE,1
      00142  0767 00 0 00003  MOVE   ALS     3
      00143 -0763 00 0 00003         LGL     3
      00144  2 00001 1 00142         TIX     MOVE,1,1
      00145 -0501 00 0 00151         ORA     BLANK
      00146  0774 00 1 00000  RESTOR AXT     **,1
      00147  0020 00 4 00001         TRA     1,4
      00150  606060606060     BLANKS BCI     1,
      00151  600000000000     BLANK  BCI     1, 00000
      00152  0 00000 0 00000  ORGTNT PZE                             TEMPORARY STORAGE OF ORIGIN
                                     END

        LITERALS
      00153  000000000001
1            FAP                                                                                 PAGE 1
                        POST PROCESSOR ASSEMBLY DATA

        154 IS THE FIRST LOCATION NOT USED BY THIS PROGRAM

0REFERENCES TO DEFINED SYMBOLS
         66    IX1     5,   62
         67    IX2     6
         40    ORG    16,   34,   46
         77    TXL    33,   36
         46   CADR    31
        140   FIVE   141
        100   HEAD    20
        142   MOVE   144
         25   SRCH    13,   32,   56
         72   TPRT    54
         35  AGAIN    14,   44
        151  BLANK   145
        136  CNVRT    41,   47
         56  FULST    10
         65  LASTT    63
        123  NAME1    30,   45,  136
        110  PHEAD    22
         44  SUBPR    37
         32  TSTTV    26
         55  UPIX2    43,   75
          1  WRFLX    17,   21,   64,   72
        150 BLANKS
        125 ENTRY1    50,  136
          0 MOVIE)     7,   12
        123 NUMBER    65,   73,  136
        124 ORGIN1    52,  136
        152 ORGTNT    42,   51
        146 RESTOR   136
          4 STOMAP     0,    4,   70
         76 (MAIN)    27

0 NO ERROR IN ABOVE ASSEMBLY.


  STOR   BCD 05/29/67 0009.3     135         00000
1                                                                                                PAGE 1

                       00000         ENTRY   STORGE
      00000  0101 00 0 00001  STORGE TIA     =HSTORGE
                                     END

        LITERALS
      00001  626346512725
1                                                                                                PAGE 1
                        POST PROCESSOR ASSEMBLY DATA

          2 IS THE FIRST LOCATION NOT USED BY THIS PROGRAM

0REFERENCES TO DEFINED SYMBOLS
          0 STORGE     0

0 NO ERROR IN ABOVE ASSEMBLY.


  SYPR   BCD 05/29/67 0009.3    1145         00000
1            FAP                                                                                 PAGE 1

                              *      SYPAR   RETURNS SUPERVISOR PARAMETERS
                              *              V = SYPAR.(N)
                              *      N = 0   NOTHING
                              *      N = 1   LAST COMMON LOCATION NOT USED
                              *      N = 2   LENGTH OF COMMON AREA
                              *      N = 3   FIRST LOCATION LOADED IN CORE A
                              *      N = 4   LENGTH OF PROGRAM BLOCK
                              *      N = 5   NAME OF THE LOADING SET
                              *      N.G.P   LOCATION N
                              *              P = 10 IN PRESENT SYSTEM


                              TSS    MACRO   B,X
                                     TSX     $B,X
                              TSS    END                                                            **

  BINARY CARD NO. SYPAR000
                       00011         ENTRY   SYPAR


        TRANSFER VECTOR

  BINARY CARD NO. SYPAR001
      00000  636262263143     TSSFIL
      00001  464725456060     OPEN
      00002  512426314325     RDFILE
      00003  234346622560     CLOSE
      00004  646251263143     USRFIL
      00005  272563434623     GETLOC
      00006  624521476060     SNAP

            LINKAGE DIRECTOR
      00007  000000000000
      00010  627047215160

                       00007  X4     SYN     *-2

                       00011  SYPAR  SYN     *
      00011 -0634 00 4 00007         SXD     X4,4
      00012 -0500 00 4 00001         CAL     1,4
      00013 -0320 00 0 00111         ANA     =O777777700000
      00014  0322 00 0 00070         ERA     TSX
      00015  0560 60 4 00001         LDQ*    1,4
      00016  0602 00 0 00071         SLW     S
      00017  0100 00 0 00021         TZE     *+2           SKIP IF FORTRAN CALL
      00020 -0763 00 0 00022         LGL     18
      00021 -0763 00 0 00022         LGL     18
      00022  0734 00 4 00000         PAX     ,4
      00023 -0754 00 0 00000         ZAC

  BINARY CARD NO. SYPAR002
 D    00024 -3 00000 4 00062         TXL     A,4           TRANSFER IF N=0
      00025  3 00012 4 00055         TXH     B,4,P         TRANSFER IF N.G.10
      00026  0634 00 4 00052         SXA     C,4
      00027                          TSS     TSSFIL,4
1            FAP                                                                                 PAGE 2

      00030  0074 00 4 00001         TSX     $OPEN,4
      00031  3 00000 0 00110         PTH     =HR
      00032  3 00000 0 00072         PTH     FIL
      00033  3 00000 0 00073         PTH     FIL+1
      00034  3 00000 0 00107         PTH     =-0
      00035  3 00000 0 00107         PTH     =-0
      00036  3 00000 0 00064         PTH     ZZ
      00037  0074 00 4 00002         TSX     $RDFILE,4
      00040  3 00000 0 00072         PTH     FIL
      00041  3 00000 0 00073         PTH     FIL+1
      00042  3 00000 0 00106         PTH     =0
      00043  3 00012 0 00074         PTH     D,,P
      00044  3 00000 0 00064         PTH     ZZ
      00045  0074 00 4 00003         TSX     $CLOSE,4
      00046  3 00000 0 00072         PTH     FIL
      00047  3 00000 0 00073         PTH     FIL+1

  BINARY CARD NO. SYPAR003
      00050  3 00000 0 00064         PTH     ZZ
      00051                          TSS     USRFIL,4
      00052 -0774 00 4 00000  C      AXC     **,4
      00053  0500 00 4 00073         CLA     D-1,4
      00054  0020 00 0 00062         TRA     A
      00055  0634 00 4 00057  B      SXA     E,4
      00056                          TSS     GETLOC,4
      00057  0 00000 0 00000  E      PZE     **
      00060 -0130 00 0 00000         XCL
      00061  0131 00 0 00000         XCA
      00062 -0534 00 4 00007  A      LXD     X4,4
      00063  0020 00 4 00002         TRA     2,4


      00064  0634 00 4 00066  ZZ     SXA     F,4
      00065                          TSS     USRFIL,4
      00066  0774 00 4 00000  F      AXT     **,4
      00067  0020 60 0 00006         TRA*    $SNAP


                       00012  P      EQU     10            (LOAD FILE) TITLE
 AT   00070  0074 00 0 00000  TSX    TSX
      00071  0 00000 0 00000  S      PZE                   NON ZERO IF NOT FORTRAN CALL
      00072  607443462124     FIL    BCI     2, (LOAD FILE)
      00073  602631432534
      00074                   D      BSS     P
                                     END

        LITERALS

  BINARY CARD NO. SYPAR004
      00106  000000000000
      00107  400000000000
      00110  516060606060
      00111  777777700000
1            FAP                                                                                 PAGE 1
                        POST PROCESSOR ASSEMBLY DATA

        112 IS THE FIRST LOCATION NOT USED BY THIS PROGRAM

0REFERENCES TO DEFINED SYMBOLS
         62      A    24,   54
         55      B    25
         52      C    26
         74      D    43,   53
         57      E    55
         66      F    64
         12      P    25,   43,   70,   74
         71      S    16
          7     X4    11,   62
         64     ZZ    36,   44,   50
         72    FIL    32,   33,   40,   41,   46,   47
         70    TSX    14
          1   OPEN    30
          6   SNAP    67
          3  CLOSE    45
         11  SYPAR     0,   11
          5 GETLOC    56
          2 RDFILE    37
          0 TSSFIL    27
          4 USRFIL    51,   65

0 NO ERROR IN ABOVE ASSEMBLY.


  TANH   BCD 05/29/67 0009.3    1697         00000
1            FAP                                                                                 PAGE 1

                              *TANH  709 FORTRAN LIBRARY / FLOATING POINT HYBERBOLIC TANGENT / 9TNH
                              *      AUGUST 22,1962
                              *  THIS ROUTINE HAS BEEN REVISED TO ACCOMODATE MAD / MAY 1960

                              *  THE CALLING SEQUENCE IS

                              *       CALL  TANH                TSX  $TANH,4
                              *       N=ARG IN THE AC           TXH  N
                              *    FOR FORTRAN               FOR MAD


  BINARY CARD NO. TANH0000
                       00002         ENTRY   TANH

            LINKAGE DIRECTOR

  BINARY CARD NO. TANH0001
      00000  000000000000
      00001  632145306060

      00002  0601 00 0 77775  TANH   STO     F             MODE TEST--MAD OR FORTRAN
      00003  0500 00 0 00142         CLA     =O300000000000                                       JSMI
      00004  0560 00 4 00001         LDQ     1,4            .
      00005  0040 00 0 00010         TLQ     *+3            .  FORTRAN
      00006  0500 60 4 00001         CLA*    1,4            .  GET MAD ARGUMENT
      00007  0601 00 0 77775         STO     F              .  .
      00010  0500 00 0 77775         CLA     F
      00011  0760 00 0 00003         SSP
      00012  0402 00 0 00132         SUB     =.00034                                              JSMI
      00013  0120 00 0 00016         TPL T5
      00014  0500 00 0 77775         CLA F                 TEST IF ARGUMENT LESS THAN .00034
      00015  0020 00 4 00001         TRA 1,4               IF SO LET TANH X EQUAL X
      00016  0402 00 0 00127  T5     SUB     =O017000000000                                       JSMI
      00017 -0120 00 0 00026         TMI     T6
      00020  0500 00 0 77775         CLA     F                                                    JSMI
      00021 -0120 00 0 00024         TMI     MINUS                                                JSMI
      00022  0500 00 0 00134         CLA     =1.                                                  JSMI
      00023  0020 00 4 00001         TRA     1,4           SET TANH (X) = 1

  BINARY CARD NO. TANH0002
      00024  0502 00 0 00134  MINUS  CLS     =1.                                                  JSMI
      00025  0020 00 4 00001         TRA     1,4                                                  JSMI
      00026  0500 00 0 77775   T6    CLA F
      00027  0765 00 0 00033         LRS 27
      00030 -0760 00 0 00003         SSM
      00031  0400 00 0 00125         ADD     =O242                                                JSMI
      00032  0621 00 0 00034         STA SH1
      00033  0200 00 0 00141         MPY     =1.4426950409B1                                      JSMI
 A    00034  0765 00 0 00000   SH1   LRS                   SEPARATE INTEGER AND FRACTION
      00035  0767 00 0 00033         ALS 27
      00036  0601 00 0 77774         STO M
      00037  0763 00 0 00002         LLS 2
      00040  0100 00 0 00103         TZE T2                IF ARGUMENT LESS THAN .25 TRANSFER
      00041  0765 00 0 00006         LRS 6                 IF GREATER COMPUTE E TO THE X
1            FAP                                                                                 PAGE 2

      00042 -0600 00 0 77775         STQ F
      00043  0200 00 0 77775         MPY F                 COMPUTE FRACTION SQUARED
      00044  0601 00 0 77776         STO SQ                COMPUTE CONTINUED FRACTION
      00045  0400 00 0 00131         ADD     =87.417497202B8                                      JSMI
      00046  0601 00 0 77777         STO T                 8,27
      00047  0500 00 0 00130         CLA     =617.9722695B12                                      JSMI

  BINARY CARD NO. TANH0003
      00050  0221 00 0 77777         DVP T                 8,27 4,31
      00051 -0600 00 0 77777         STQ T                 4,31
      00052  0560 00 0 77776         LDQ SQ                8,27
      00053  0200 00 0 00126         MPY     =.03465735903B0                                      JSMI
      00054  0763 00 0 00004         LLS 4                 4,31
      00055  0402 00 0 77777         SUB T                 4,31
      00056  0400 00 0 00140         ADD     =9.9545957821B4                                      JSMI
      00057  0402 00 0 77775         SUB F                 4,31
      00060  0601 00 0 77777         STO T                 4,31
      00061  0500 00 0 77775         CLA F                 5,31 NUMERATOR EQUALS 2F
      00062  0560 00 0 00134         LDQ     =1.                                                  JSMI
      00063  0225 33 0 77777         VDP     T,0,27
      00064  0131 00 0 00000         XCA
      00065  0400 00 0 00134         ADD     =1.                                                  JSMI
      00066  0400 00 0 77774   T1    ADD M
      00067  0601 00 0 77774         STO M                 COMPUTE TANH X FROM E TO THE X
      00070  0500 00 0 00134         CLA     =1.                                                  JSMI
      00071  0241 00 0 77774         FDP M
      00072 -0600 00 0 77775         STQ F
      00073  0500 00 0 77774         CLA M

  BINARY CARD NO. TANH0004
      00074  0300 00 0 77775         FAD F
      00075  0601 00 0 77777         STO T
      00076  0500 00 0 77774         CLA M
      00077  0302 00 0 77775         FSB F
      00100  0241 00 0 77777   T10   FDP T
      00101  0131 00 0 00000         XCA
      00102  0020 00 4 00001         TRA 1,4               RETURN
      00103  0560 00 0 77775   T2    LDQ F                 COMPUTE TANH 4LOGE IF X SMALL
      00104  0260 00 0 00135         FMP     =5.7707801636                                        JSMI
      00105  0601 00 0 77775         STO F
      00106  0131 00 0 00000         XCA
      00107  0260 00 0 77775         FMP F
      00110  0601 00 0 77776         STO SQ
      00111  0300 00 0 00137         FAD     =349.6699888                                         JSMI
      00112  0601 00 0 77777         STO T
      00113  0500 00 0 00136         CLA     =14.1384114018                                       JSMI
      00114  0241 00 0 77777         FDP T
      00115  0131 00 0 00000         XCA
      00116  0300 00 0 00133         FAD     =.01732867951                                        JSMI
      00117  0131 00 0 00000         XCA

  BINARY CARD NO. TANH0005
      00120  0260 00 0 77776         FMP SQ
      00121  0300 00 0 00135         FAD     =5.7707801636                                        JSMI
      00122  0601 00 0 77777     T12 STO T
      00123  0500 00 0 77775         CLA F
1            FAP                                                                                 PAGE 3

      00124  0020 00 0 00100         TRA T10


                              *                            ERASABLES

                       77777         COMMON  -206
                       77777  T      COMMON  1
                       77776  SQ     COMMON  1
                       77775  F      COMMON  1
                       77774  M      COMMON  1
                                     END                                                          JSMI

        LITERALS
      00125  000000000242
      00126  010676467774
      00127  017000000000
      00130  046477071523
      00131  127325604305
      00132  165544410070
      00133  173433723377
      00134  201400000000
      00135  203561250731
      00136  204704333566
      00137  211535527021
      00140  237214030720
      00141  270524354513
      00142  300000000000
1            FAP                                                                                 PAGE 1
                        POST PROCESSOR ASSEMBLY DATA

       77773 IS THE LAST LOCATION NOT USED BY THIS PROGRAM
        143 IS THE FIRST LOCATION NOT USED BY THIS PROGRAM

0REFERENCES TO DEFINED SYMBOLS
      77775      F     2,    7,   10,   14,   20,   26,   42,   43,   57,   61,   72,   74,   77,  103,  105,  107,  123
                     125
      77774      M    36,   66,   67,   71,   73,   76,  125
      77777      T    46,   50,   51,   55,   60,   63,   75,  100,  112,  114,  122,  125
      77776     SQ    44,   52,  110,  120,  125
         66     T1
        103     T2    40
         16     T5    13
         26     T6    17
         34    SH1    32
        100    T10   124
        122    T12
          2   TANH     0
         24  MINUS    21

0 NO ERROR IN ABOVE ASSEMBLY.


  TIMR   BCD 05/29/67 0009.3    4599         00000
1            FAP                                                                                 PAGE 1

                              *  FABRY'S FRM7 MODIFICATION FOR FORGROUND TIMING 7/15/64
                       00122         ENTRY   TIMER
                       00035         ENTRY   JOBTM
                       00077         ENTRY   RSCLCK
                       00104         ENTRY   STOPCL
                       00253         ENTRY   KILLTR
                       00062         ENTRY   TIMLFT
                       00321         ENTRY   RSTRTN
                              *
                              *              RSCLCK...RESET CLOCK TO TIME,,ZERO,,
                              *              STOPCL        GIVES BACK TIME SINCE LAST RSCLCK.
                              *              JOBTM         GIVES BACK TIME SINCE START OF JOB.
                              *              TIMER         SETS CLOCK TO ACT LIKE ALARM CLOCK.
                              *              KILLTR        RESETS ALARM CLOCK BEFORE IT GOES OFF.
                              *              TIMLFT        GIVES BACK TIME LEFT FOR JOB TO RUN.
                              *              RTNRST        RETURN TO INTERRUPTED PROGRAM
                              *                                 WITH MACHINE CONDITIONS RESTORED AS OF
                              *                                 LAST INTERRUPT.
                              *              CALLING SEQUENCE...CALL RSCLCK
                              *              CALLING SEQUENCE...CALL STOPCL(I)
                              *               CALLING SEQUENCE... CALL TIMLFT(I)
                              *              CALLING SEQUENCE...CALL TIMER(I,STMT)
                              *              CALLING SEQUENCE...CALL KILLTR
                              *              CALLING SEQUENCE...CALL JOBTM(I)
                              *              CALLING SEQUENCE...CALLRSTRTN
                              *

            LINKAGE DIRECTOR
      00000  000000000000
      00001  633144255160

                       00005   CLKRD SYN     5
                       00006  CLKLOC SYN     6
                       00007  CLKTRA SYN     7
                              *      SETUP ROUTINE FOR CLOCK AND PUSHDOWN.
                              *      THIS ROUTINE USED TO BE CALLED BY .SETUP TO SETUP PUSHDOWN
      00002  0500 00 0 00423  TIME   CLA     =O777777    ASSUME APPROX. 72 HR. JOBTIME
      00003  0601 00 0 00030         STO     JOBTIM
      00004  0601 00 0 00421         STO     TMLEFT
      00005  0601 00 0 00237         STO     LSTSET
      00006 -0501 00 0 00027         ORA     STRT
      00007  0534 00 1 00252         LXA     NTBL,1
      00010  0602 00 1 00252         SLW     TMTBL,1
      00011  1 77777 1 00012         TXI     *+1,1,-1      OPCODE VAR.FIELD
      00012  0634 00 1 00252         SXA     NTBL,1
      00013 -0500 00 0 00026         CAL     TRA7
      00014  0602 00 0 00007         SLW     CLKTRA
      00015 -0500 00 0 00421         CAL     TMLEFT
      00016  0760 00 0 00006         COM
      00017  0601 00 0 00005         STO     CLKRD
      00020  0634 00 4 00022         SXA     *+2,4
      00021  0074 00 4 00032         TSX     CLOCON,4
      00022  0774 00 4 00000         AXT     **,4
      00023  0774 00 1 00000   TM2   AXT     **,1
      00024 -0625 00 0 00031         STL     TIMET
      00025  0021 00 4 00001         TTR     1,4
1            FAP                                                                                 PAGE 2

      00026  0021 00 0 00335   TRA7  TTR     FROM7
      00027  1 00034 0 00000   STRT  PON     0,0,GOMON     VECTOR ENTRY FOR JOB TIME UP.
      00030  0 00000 0 00000  JOBTIM
      00031  0 00000 0 00000  TIMET
      00032  0101 00 0 00425  CLOCON TIA     =HCLOCON
      00033  0101 00 0 00424  CLOCOF TIA     =HCLOCOF
      00034  0000 00 0 00321  GOMON  HTR     RSTRTN
                              ************************************************************************
                              *              JOBTM
                              *              CALLING SEQUENCE... TSX JOBTM,4
                              *                                  PZE TIMEX      RESULT IN DECR.
                              *                                (TXH)            RESULT IN ADDR.
      00035  0634 00 4 00060  JOBTM  SXA     JT4,4
      00036 -0520 00 0 00031         NZT     TIMET
      00037  0074 00 4 00002         TSX     TIME,4
      00040  0534 00 4 00060         LXA     JT4,4
      00041 -0500 00 4 00001         CAL     1,4
      00042  0630 00 0 00236         STP     PRFX
      00043  0074 00 4 00033         TSX     CLOCOF,4
      00044 -0500 00 0 00005         CAL     CLKRD
      00045  0760 00 0 00006         COM
      00046 -0320 00 0 00423         ANA     =O777777
      00047 -0760 00 0 00003         SSM
      00050  0400 00 0 00237         ADD     LSTSET
      00051  0400 00 0 00030         ADD     JOBTIM
      00052  0402 00 0 00421         SUB     TMLEFT
      00053 -0520 00 0 00236         NZT     PRFX
      00054  0767 00 0 00022         ALS     18
      00055  0534 00 4 00060         LXA     JT4,4
      00056  0601 60 4 00001         STO*    1,4
      00057  0074 00 4 00032         TSX     CLOCON,4
      00060  0774 00 4 00000  JT4    AXT     **,4
      00061  0020 00 4 00002         TRA     2,4
                              ************************************************************************
                              *              TIMLFT
                              *              CALLING SEQUENCE...TSX TIMLFT,4
                              *                                 PZE LEFT       RESULT IN DECR.
                              *                                (TXH) LEFT      RESULT IN ADDR.
                       00062  TIMLFT SYN     *
      00062  0634 00 4 00065         SXA     TML1,4
      00063  0074 00 4 00035         TSX     JOBTM,4
 TD   00064  3 00000 0 00076         TXH     RUNR
      00065  0774 00 4 00000   TML1  AXT     **,4
      00066 -0500 00 4 00001         CAL     1,4
      00067  0630 00 0 00236         STP     PRFX
      00070  0500 00 0 00030         CLA     JOBTIM
      00071  0402 00 0 00076         SUB     RUNR
      00072 -0520 00 0 00236         NZT     PRFX
      00073  0767 00 0 00022         ALS     18
      00074  0601 60 4 00001         STO*    1,4
      00075  0021 00 4 00002         TTR     2,4
      00076  0 00000 0 00000   RUNR  PZE
                              ************************************************************************
                              *              RSCLCK
                              *              CALLING SEQUENCE...TSX RSCLCK,4
                       00077  RSCLCK SYN     *
1            FAP                                                                                 PAGE 3

      00077  0634 00 4 00102         SXA     RSC1,4
      00100  0074 00 4 00035         TSX     JOBTM,4
 TD   00101  3 00000 0 00120         TXH     CNTRL
      00102  0774 00 4 00000   RSC1  AXT     **,4
      00103  0021 00 4 00001         TTR     1,4
                              *******************************************************************
                              *              STOPCL
                              *              CALLING SEQUENCE...CALL STOPCL(J)
                              *
                       00104  STOPCL SYN     *
      00104  0634 00 4 00107         SXA     STP1,4
      00105  0074 00 4 00035         TSX     JOBTM,4
 TD   00106  3 00000 0 00121         TXH     NEWT
      00107  0774 00 4 00000   STP1  AXT     **,4
      00110 -0500 00 4 00001         CAL     1,4
      00111  0630 00 0 00236         STP     PRFX
      00112  0500 00 0 00121         CLA     NEWT
      00113  0402 00 0 00120         SUB     CNTRL
      00114 -0520 00 0 00236         NZT     PRFX
      00115  0767 00 0 00022         ALS     18            0=FORTRAN TYPE
      00116  0601 60 4 00001         STO*    1,4           NON-ZERO=MAD TYPE
      00117  0021 00 4 00002         TTR     2,4
      00120  0 00000 0 00000   CNTRL                       OLD TIME LEFT. BASE POINT
      00121  0 00000 0 00000   NEWT
                              ************************************************************************
                              *              TIMER
                              *              CALLING SEQUENCE...CALL TIMER(I,N)
                              *                            ...EXECUTE TIMER.(A,B)
                              *              WHERE I GIVES TIME IN 60THS OF SECOND FOR CLOCK TO RUN
                              *              BEFORE ALARM. N CONTAINS LOCATION WHERE CONTROL IS SENT
                              *              AFTER ALARM CLOCK GOES OFF.
      00122  0634 00 4 00231  TIMER  SXA     CLK11,4
      00123 -0520 00 0 00031         NZT     TIMET
      00124  0074 00 4 00002         TSX     TIME,4
      00125  0074 00 4 00033         TSX     CLOCOF,4
      00126  0634 00 1 00230         SXA     CLK10,1
      00127  0534 00 4 00231         LXA     CLK11,4
      00130 -0500 00 4 00001         CAL     1,4
      00131  0630 00 0 00236         STP     PRFX
      00132 -0500 60 4 00001         CAL*    1,4           TIME INTERVAL IN SECONDS
      00133 -0520 00 0 00236         NZT     PRFX
      00134  0771 00 0 00022         ARS     18            0=FORTRAN. NON-ZERO=MAD
      00135  0602 00 0 00234         SLW     NEWINT        TIME INTERVAL IN 60THS OF A SECOND
                              *              COMPUTE ELAPSED TIME FROM LAST READING
      00136  0534 00 1 00252         LXA     NTBL,1        NO. OF OPENINGS IN TABLE
      00137 -3 00000 1 00227         TXL     CLK10A,1,0
      00140 -0634 00 1 00155         SXD     CLK2,1
      00141 -0500 00 0 00005         CAL     CLKRD
      00142  0600 00 0 00005         STZ     CLKRD
      00143  0760 00 0 00006         COM
      00144 -0130 00 0 00000         XCL
      00145  0131 00 0 00000         XCA                   -TIME LEFT IN AC
      00146  0400 00 0 00237         ADD     LSTSET        LAST SETTING-TIME LEFT
      00147  0601 00 0 00233         STO     TMUSED        =TIME USED IN 60THS OF SECOND.
      00150  0774 00 1 00012         AXT     N,1
      00151  0500 00 1 00252   CLK1  CLA     TMTBL,1       DECREASE TIME LIMITS
1            FAP                                                                                 PAGE 4

      00152  0402 00 0 00233         SUB     TMUSED        ON ALL ENTRIES
      00153  0601 00 1 00252         STO     TMTBL,1       IN THE TABLE
      00154  1 77777 1 00155         TXI     *+1,1,-1
      00155  3 00000 1 00151   CLK2  TXH     CLK1,1,**
      00156 -0500 00 4 00002         CAL     2,4           PICK UP LOCATION
      00157 -0320 00 0 00422         ANA     =O77777                                                 A
      00160  0767 00 0 00022         ALS     18            TO TRANSFER TO WHEN CLOCK GOES OFF
      00161 -0501 00 0 00234         ORA     NEWINT
      00162  0602 00 0 00235         SLW     TEMP
                              *              SEARCH FOR PROPER POSITION IN TABLE.
      00163  0534 00 1 00252         LXA     NTBL,1
      00164 -0634 00 1 00176         SXD     CLK5,1
      00165 -0634 00 1 00212         SXD     CLK8,1
      00166  0774 00 1 00012         AXT     N,1
      00167 -0500 00 1 00252   CLK3  CAL     TMTBL,1
      00170 -0320 00 0 00423         ANA     =O777777
      00171 -0340 00 0 00234         LAS     NEWINT
      00172  0020 00 0 00175         TRA     CLK4
      00173  0761 00 0 00000         NOP
      00174  0020 00 0 00202         TRA     SMLR
      00175  1 77777 1 00176   CLK4  TXI     *+1,1,-1
      00176  3 00000 1 00167   CLK5  TXH     CLK3,1,**
      00177  0560 00 0 00235         LDQ     TEMP          IF NEW INTERVAL IS LESS
      00200 -0600 00 1 00252         STQ     TMTBL,1       THAN REST THAT ARE
      00201  0020 00 0 00214         TRA     CLK9          IN THE TABLE
                              *
                              *              FOUND A LARGER VALUE. INSERT NEW VALUE
                              *              IN TABLE AND PUSH DOWN THE REST.
      00202  0560 00 1 00252   SMLR  LDQ     TMTBL,1
      00203 -0500 00 0 00235         CAL     TEMP
      00204  0602 00 1 00252         SLW     TMTBL,1
      00205  0020 00 0 00211         TRA     CLK7
      00206 -0500 00 1 00252   CLK6  CAL     TMTBL,1
      00207 -0600 00 1 00252         STQ     TMTBL,1
      00210 -0130 00 0 00000         XCL
      00211  1 77777 1 00212   CLK7  TXI     *+1,1,-1
      00212  3 00000 1 00206   CLK8  TXH     CLK6,1,**
      00213 -0600 00 1 00252         STQ     TMTBL,1
      00214  1 77777 1 00215   CLK9  TXI     *+1,1,-1
      00215  0634 00 1 00252         SXA     NTBL,1
                              *              SET CLOCK FOR NEW VALUE
      00216  0500 00 0 00421         CLA     TMLEFT
      00217  0402 00 0 00233         SUB     TMUSED
      00220  0402 00 0 00005         SUB     CLKRD
      00221  0601 00 0 00421         STO     TMLEFT        ADJUST TOTAL TIME COUNT
      00222 -0130 00 0 00000         XCL                   LOWEST INTERVAL IN MQ
      00223 -0320 00 0 00423         ANA     =O777777
      00224  0602 00 0 00237         SLW     LSTSET
      00225  0760 00 0 00006         COM
      00226  0601 00 0 00005         STO     CLKRD         RESET C(5) TO NEW VALUE
      00227  0074 00 4 00032  CLK10A TSX     CLOCON,4
      00230  0774 00 1 00000   CLK10 AXT     **,1
      00231  0774 00 4 00000  CLK11  AXT     **,4
      00232  0020 00 4 00003         TRA     3,4           EXIT
      00233  0 00000 0 00000  TMUSED
      00234  0 00000 0 00000  NEWINT
1            FAP                                                                                 PAGE 5

      00235  0 00000 0 00000   TEMP
      00236  0 00000 0 00000   PRFX
      00237  0 00000 0 00000  LSTSET
                       00012   N     EQU     10
      00252                    TMTBL BES     N
      00252  0 00000 0 00012   NTBL  PZE     N
                              ************************************************************************
                              *              KILLTR
                              *              CALLING SEQUENCE...CALL KILLTR
                              *              KILLS LAST TIMER ALARM CLOCK SETTING
                              *              EXCEPT IF LAST SET FOR JOB TIME SETTING.
      00253  0634 00 1 00316  KILLTR SXA     KILL1,1
      00254  0634 00 4 00317         SXA     KILL4,4
      00255 -0520 00 0 00031         NZT     TIMET
      00256  0074 00 4 00002         TSX     TIME,4
      00257  0074 00 4 00033         TSX     CLOCOF,4
      00260  0534 00 1 00252         LXA     NTBL,1
      00261  1 00001 1 00262         TXI     *+1,1,1
      00262 -0500 00 1 00252         CAL     TMTBL,1
      00263  0630 00 0 00236         STP     PRFX
      00264  0520 00 0 00236         ZET     PRFX
      00265  0020 00 0 00315         TRA     RTN           JOB TIME SETTING CANNOT BE KILLED
      00266 -0500 00 0 00005         CAL     CLKRD
      00267  0760 00 0 00006         COM
      00270 -0320 00 0 00423         ANA     =O777777
      00271 -0760 00 0 00003         SSM
      00272  0400 00 0 00237         ADD     LSTSET
      00273  0601 00 0 00237         STO     LSTSET
      00274  0634 00 1 00252         SXA     NTBL,1
      00275 -0634 00 1 00303         SXD     RTNM,1
      00276  0774 00 1 00012         AXT     N,1
      00277  0500 00 1 00252  RTNL   CLA     TMTBL,1
      00300  0402 00 0 00237         SUB     LSTSET
      00301  0601 00 1 00252         STO     TMTBL,1
      00302  1 77777 1 00303         TXI     *+1,1,-1
      00303  3 00000 1 00277  RTNM   TXH     RTNL,1,**
      00304 -0320 00 0 00423         ANA     =O777777
      00305  0602 00 0 00234         SLW     NEWINT
      00306  0500 00 0 00421         CLA     TMLEFT
      00307  0402 00 0 00237         SUB     LSTSET
      00310  0601 00 0 00421         STO     TMLEFT
      00311 -0500 00 0 00234         CAL     NEWINT
      00312  0602 00 0 00237         SLW     LSTSET
      00313  0760 00 0 00006         COM
      00314  0601 00 0 00005         STO     CLKRD
      00315  0074 00 4 00032  RTN    TSX     CLOCON,4
      00316  0774 00 1 00000  KILL1  AXT     **,1
      00317  0774 00 4 00000  KILL4  AXT     **,4
      00320  0020 00 4 00001         TRA     1,4
                              ************************************************************************
                              *              RSTRTN
                              *              CALLING SEQUENCE...CALL RSTRTN
                       00321  RSTRTN SYN     *
      00321 -0500 00 0 00321         CAL     *
      00322  0767 00 0 00003         ALS     3
      00323  0500 00 0 00416         CLA     SPQ
1            FAP                                                                                 PAGE 6

      00324  0767 00 0 00002         ALS     2
      00325 -0501 00 0 00417         ORA     LOGAC
      00326 -0520 00 0 00415         NZT     OVFL
      00327  0140 00 0 00330         TOV     *+1
      00330  0560 00 0 00420         LDQ     MQ
      00331  0534 00 1 00411         LXA     CL1,1
      00332  0534 00 2 00412         LXA     CL2,2
      00333  0534 00 4 00413         LXA     CL4,4
      00334  0021 60 0 00006         TTR*    6
                              ************************************************************************
                              *              ENTRY FROM 7 AFTER CLOCK HAS GONE OFF.
                       00335   FROM7 SYN     *
      00335  0634 00 1 00411         SXA     CL1,1
      00336  0634 00 2 00412         SXA     CL2,2
      00337  0634 00 4 00413         SXA     CL4,4
      00340  0074 00 4 00033         TSX     CLOCOF,4
      00341  0600 00 0 00415         STZ     OVFL
      00342 -0600 00 0 00420         STQ     MQ
      00343  0602 00 0 00417         SLW     LOGAC         SAVE LOGICAL ACCUMULATOR
      00344  0771 00 0 00002         ARS     2
      00345  0601 00 0 00416         STO     SPQ
      00346 -0140 00 0 00350         TNO     *+2
      00347 -0625 00 0 00415         STL     OVFL
      00350  0534 00 1 00252         LXA     NTBL,1
      00351  1 00001 1 00352         TXI     *+1,1,1
      00352 -0500 00 1 00252         CAL     TMTBL,1
      00353 -0734 00 2 00000         PDX     0,2           SET TRANSFER
      00354  0634 00 2 00414         SXA     TRAD,2        LOCATION.
      00355  0767 00 0 00002         ALS     2                                                       A
      00356 -0760 00 0 00001         PBT                                                             B
      00357  0021 00 0 00361         TTR     *+2                                                     C
      00360  0021 00 0 00402         TTR     CLKN          GO TO MONITOR SETTING. DONT RESET CLOCK   D
      00361  0634 00 1 00252         SXA     NTBL,1
      00362 -0634 00 1 00370         SXD     CLKM,1
      00363  0774 00 1 00012         AXT     N,1
      00364  0500 00 1 00252  CLKL   CLA     TMTBL,1       REVISE PREVIOUS
      00365  0402 00 0 00237         SUB     LSTSET        ENTRIES IN THE TABLE.
      00366  0601 00 1 00252         STO     TMTBL,1
      00367  1 77777 1 00370         TXI     *+1,1,-1
      00370  3 00000 1 00364  CLKM   TXH     CLKL,1,**
      00371 -0320 00 0 00423         ANA     =O777777      USE LAST ENTRY IN TABLE
      00372  0602 00 0 00234         SLW     NEWINT        FOR NEW SETTING
      00373  0500 00 0 00421         CLA     TMLEFT        REVISE TOTAL TIME
      00374  0402 00 0 00237         SUB     LSTSET        LEFT FOR JOB.
      00375  0601 00 0 00421         STO     TMLEFT
      00376 -0500 00 0 00234         CAL     NEWINT        UPDATE LSTSET AND
      00377  0602 00 0 00237         SLW     LSTSET        CHANGE SETTING OF
      00400  0760 00 0 00006         COM                   LOCATION 5 TO NEXT
      00401  0601 00 0 00005         STO     CLKRD         ENTRY IN THE TABLE.
                              *              RESTORE MACHINE CONDITIONS
                       00402   CLKN  SYN     *                                                       A
      00402  0767 00 0 00002         ALS     2   TURN ON OVERFLOW LIGHT
      00403  0500 00 0 00416         CLA     SPQ
      00404  0767 00 0 00002         ALS     2   RESTORE +, Q, AND S
      00405 -0501 00 0 00417         ORA     LOGAC
      00406 -0520 00 0 00415         NZT     OVFL
1            FAP                                                                                 PAGE 7

      00407  0140 00 0 00410         TOV     *+1
      00410  0560 00 0 00420         LDQ     MQ
      00411  0774 00 1 00000   CL1   AXT     **,1          RESTORE INDEX REGISTERS
      00412  0774 00 2 00000   CL2   AXT     **,2
      00413  0774 00 4 00000   CL4   AXT     **,4
      00414  0021 00 0 00000   TRAD  TTR     **
      00415  0 00000 0 00000   OVFL
      00416  0 00000 0 00000   SPQ
      00417  0 00000 0 00000   LOGAC
      00420  0 00000 0 00000   MQ
      00421  0 00000 0 00000  TMLEFT PZE
                                     END

        LITERALS
      00422  000000077777
      00423  000000777777
      00424  234346234626
      00425  234346234645
1            FAP                                                                                 PAGE 1
                        POST PROCESSOR ASSEMBLY DATA

        426 IS THE FIRST LOCATION NOT USED BY THIS PROGRAM

0REFERENCES TO DEFINED SYMBOLS
         12      N   150,  166,  240,  252,  276,  363
        420     MQ   330,  342,  410
        411    CL1   331,  335
        412    CL2   332,  336
        413    CL4   333,  337
         60    JT4    35,   40,   55
        315    RTN   265
        416    SPQ   323,  345,  403
         23    TM2
        151   CLK1   155
        155   CLK2   140
        167   CLK3   176
        175   CLK4   172
        176   CLK5   164
        206   CLK6   212
        211   CLK7   205
        212   CLK8   165
        214   CLK9   201
        364   CLKL   370
        370   CLKM   362
        402   CLKN   360,  402
        121   NEWT   106,  112
        252   NTBL     7,   12,  136,  163,  215,  260,  274,  350,  361
        415   OVFL   326,  341,  347,  406
        236   PRFX    42,   53,   67,   72,  111,  114,  131,  133,  263,  264
        102   RSC1    77
        277   RTNL   303
        303   RTNM   275
         76   RUNR    64,   71
        202   SMLR   174
        107   STP1   104
         27   STRT     6
        235   TEMP   162,  177,  203
          2   TIME    37,  124,  256
         65   TML1    62
         26   TRA7    13
        414   TRAD   354
        230  CLK10   126
        231  CLK11   122,  127
          5  CLKRD     2,   17,   44,  141,  142,  220,  226,  266,  314,  401
        120  CNTRL   101,  113
        335  FROM7    26,  335
         34  GOMON    27
         35  JOBTM     0,   63,  100,  105
        316  KILL1   253
        317  KILL4   254
        417  LOGAC   325,  343,  405
        122  TIMER     0
         31  TIMET    24,   36,  123,  255
        252  TMTBL    10,  151,  153,  167,  200,  202,  204,  206,  207,  213,  262,  277,  301,  352,  364,  366
        227 CLK10A   137
1            FAP                                                                                 PAGE 2
                        POST PROCESSOR ASSEMBLY DATA

          6 CLKLOC     2
          7 CLKTRA     2,   14
         33 CLOCOF    43,  125,  257,  340
         32 CLOCON    21,   57,  227,  315
         30 JOBTIM     3,   51,   70
        253 KILLTR     0
        237 LSTSET     5,   50,  146,  224,  272,  273,  300,  307,  312,  365,  374,  377
        234 NEWINT   135,  161,  171,  305,  311,  372,  376
         77 RSCLCK     0,   77
        321 RSTRTN     0,   34,  321
        104 STOPCL     0,  104
         62 TIMLFT     0,   62
        421 TMLEFT     4,   15,   52,  216,  221,  306,  310,  373,  375
        233 TMUSED   147,  152,  217

0 NO ERROR IN ABOVE ASSEMBLY.


  TLCK   BCD 05/29/67 0009.3     166         00000
1                                                                                                PAGE 1

                       00000         ENTRY   TILOCK
                       00001         ENTRY   FERRTN
      00000  0101 00 0 00003  TILOCK TIA     =HTILOCK
      00001  0101 00 0 00002  FERRTN TIA     =HFERRTN
                                     END

        LITERALS
      00002  262551516345
      00003  633143462342
1                                                                                                PAGE 1
                        POST PROCESSOR ASSEMBLY DATA

          4 IS THE FIRST LOCATION NOT USED BY THIS PROGRAM

0REFERENCES TO DEFINED SYMBOLS
          1 FERRTN     0
          0 TILOCK     0

0 NO ERROR IN ABOVE ASSEMBLY.


  TRAN   BCD 05/29/67 0010.1     855         00000
1           LABEL                                                                                PAGE 1

                              *      FAP
                              *TRANSP        TRANSPOSED MATRIX SUBSCRIPTION
                       00033         ENTRY   TRANSP
                       00002         ENTRY   (SUBS         CHECKING PROCEEDURE FOR SPECIAL SUBSCRIPTS
                       00002         ENTRY   .SUBS
                       00002         ENTRY   .03310        SECONDARY ENTRIES TO PREVENT
                       00002         ENTRY   .03311        DUPLICATION IN CORE.

            LINKAGE DIRECTOR
      00000  000000000000
      00001  635121456247

      00002  0601 00 0 00026  (SUBS  STO     I
                       00002  .03310 SYN     (SUBS
                       00002  .03311 SYN     (SUBS
                       00002  .SUBS  SYN     (SUBS
      00003 -0600 00 0 00027         STQ     J
      00004  0634 00 1 00060         SXA     IR1,1
      00005  0500 00 4 00001         CLA     1,4
      00006  0601 00 0 00020         STO     L1
      00007  0771 00 0 00022         ARS     18
      00010  0621 00 0 00047         STA     L4
      00011  0621 00 0 00053         STA     L5
      00012  0621 00 0 00013         STA     *+1
      00013  0500 00 0 00000         CLA     **            PICK UP FIRST D.V. ELEMENT
      00014  0120 00 0 00042         TPL     L2            TRANSFER FOR (03310 OR (03311
      00015 -0634 00 4 00041         SXD     IR4,4
      00016  0621 00 0 00017         STA     *+1           SET CALL FOR ROUTINE DESIRED
      00017  0074 00 4 00000         TSX     **,4          PERFORM SUBSCRIPTION CALCULATION.
      00020  0 00000 0 00000  L1     PZE
      00021  3 00000 0 00026         TXH     I,,0
      00022  3 00000 0 00027         TXH     J,,0
      00023 -0534 00 4 00041         LXD     IR4,4
      00024  0534 00 1 00060         LXA     IR1,1
      00025  0020 00 4 00002         TRA     2,4
      00026  0 00000 0 00000  I      PZE
      00027  0 00000 0 00000  J      PZE
      00030  0 00000 0 00001  AE1    PZE     1
      00031  0 00002 0 00003  IR     PZE     3,,2
      00032  0 00000 0 00000  SAVE   PZE
      00033  0500 00 0 00027  TRANSP CLA     J             TRANSPOSED MATRIX SUBSCRIPTION-ENTER HERE
      00034  0560 00 0 00026         LDQ     I
      00035 -0600 00 0 00027         STQ     J
      00036  0601 00 0 00026         STO     I
      00037  0634 00 1 00060         SXA     IR1,1
      00040  0534 00 1 00031         LXA     IR,1
      00041 -3 00000 0 00044  IR4    TXL     L3,,**
      00042 -0534 00 1 00031  L2     LXD     IR,1
      00043  0500 00 0 00026         CLA     I
      00044  0402 00 0 00030  L3     SUB     AE1
      00045  0601 00 0 00032         STO     SAVE
      00046  0560 00 0 00032         LDQ     SAVE
      00047  0200 00 1 00000  L4     MPY     **,1
      00050 -0600 00 0 00032         STQ     SAVE
      00051  0500 00 0 00032         CLA     SAVE
      00052  1 77777 1 00053         TXI     *+1,1,-1
1           LABEL                                                                                PAGE 2

      00053  0400 00 1 00000  L5     ADD     **,1
      00054  0400 00 0 00027         ADD     J
      00055  0402 00 0 00030         SUB     AE1           (I-1)N+B+(J-1) LINEAR SUBSCRIPT.
      00056  0534 00 1 00060         LXA     IR1,1
      00057  0020 00 4 00002         TRA     2,4
      00060  0 00000 0 00000  IR1    PZE
                                     END
1           LABEL                                                                                PAGE 1
                        POST PROCESSOR ASSEMBLY DATA

         61 IS THE FIRST LOCATION NOT USED BY THIS PROGRAM

0REFERENCES TO DEFINED SYMBOLS
         26      I     2,   21,   34,   36,   43
         27      J     3,   22,   33,   35,   54
         31     IR    40,   42
         20     L1     6
         42     L2    14
         44     L3    41
         47     L4    10
         53     L5    11
         30    AE1    44,   55
         60    IR1     4,   24,   37,   56
         41    IR4    15,   23
         32   SAVE    45,   46,   50,   51
          2  .SUBS     0,    3
          2  (SUBS     0,    3
          2 . 3310     0,    3
          2 . 3311     0,    3
         33 TRANSP     0

0 NO ERROR IN ABOVE ASSEMBLY.


  TRFL   BCD 05/29/67 0010.1     135         00000
1                                                                                                PAGE 1

                       00000         ENTRY   TRFILE
      00000  0101 00 0 00001  TRFILE TIA     =HTRFILE
                                     END

        LITERALS
      00001  635126314325
1                                                                                                PAGE 1
                        POST PROCESSOR ASSEMBLY DATA

          2 IS THE FIRST LOCATION NOT USED BY THIS PROGRAM

0REFERENCES TO DEFINED SYMBOLS
          0 TRFILE     0

0 NO ERROR IN ABOVE ASSEMBLY.


  TSH0   BCD 05/29/67 0010.1    3022         00000
1            FAP                                                                                 PAGE 1

                              * (TSH), .TAPRD, (TSHM)    FOR FOREGROUND. MODIFIED FOR MICHIGAN I/O
                              *               FEBRUARY 1965 SPALL FIX AC LITE AND CLEAN UP
                                             WRITE-AROUND TO DISK ROUTINES FOR FORTRAN-TYPE I/O
                                             (TSH) FROM DISK
                                             TSH CHECKS FOR LINE MARKER.
                                             IF PRESENT, READS VARIABLE LNNGTH LINE.
                                             IF MISSING, READS 14 WORD RECORDS.

                                             MODIFIED FOR NEW FILE SYSTEM JUNE 65  EMK

  BINARY CARD NO. TSH00000
                       00010         ENTRY   (TSH)
                       00010         ENTRY   (TSHM)
                       00056         ENTRY   .TAPRD


        TRANSFER VECTOR

  BINARY CARD NO. TSH00001
      00000  622525426060     SEEK
      00001  743146303460     (IOH)
      00002  222651252124     BFREAD
      00003  624521476060     SNAP
      00004  254524512460     ENDRD
      00005  254626673163     EOFXIT

            LINKAGE DIRECTOR
      00006  000000000000
      00007  746362303460

                       00010  (TSH)  SYN     *
                       00010  (TSHM) SYN     (TSH)
      00010 -0765 00 0 00066         LGR     36+18         TAPE NO IN MQ ADDRESS
      00011  0600 00 0 00254         STZ     MADTST
      00012  0634 00 4 00024  CALLDK SXA     INIT,4
      00013 -0634 00 4 00006         SXD     (TSH)-2,4
      00014  0074 00 4 00225         TSX     INTBC,4       CONVERT TO BCD
      00015  0 00000 0 00256         PZE     FILNAM+1
      00016 -0500 00 0 00132         CAL     MODE1
      00017  0602 00 0 00141         SLW     BRNCH1
      00020 -0500 00 0 00133         CAL     MODE2
      00021  0602 00 0 00142         SLW     BRNCH2
                                             GO CHECK IF ACTIVE, AND IF NOT, ACTIVATE.
      00022  0074 00 4 00000         TSX     $SEEK,4
      00023  0 00000 0 00255                 FILNAM

  BINARY CARD NO. TSH00002
      00024  0774 00 4 00000   INIT  AXT     **,4
      00025  0520 00 0 00254         ZET     MADTST
      00026  0020 00 0 00073         TRA     SETRTN
      00027 -0500 00 4 00001         CAL     1,4
      00030  0560 00 0 00257         LDQ     FORT
      00031  0634 00 4 00046         SXA     JN21,4
      00032 -0634 00 4 77740         SXD     RTN,4
      00033  0600 00 0 00000         STZ     0
1            FAP                                                                                 PAGE 2

      00034  1 77776 4 00035         TXI     *+1,4,-2
      00035  0636 00 4 00000         SCA     0,4
      00036 -0734 00 4 00000         PDX     0,4           IS DECREMENT ZERO
      00037 -3 00000 4 00046         TXL     JN21,4,0      FORTRAN, BACKWARDS
      00040 -0600 00 0 00264         STQ     TEMP
      00041 -0130 00 0 00000         XCL
      00042 -0500 00 0 00261         CAL     UMAP          -1 IN DECR. SET FOR FORWARDS
      00043  0622 00 0 00264         STD     TEMP
      00044 -0130 00 0 00000         XCL
      00045  0560 00 0 00264         LDQ     TEMP
      00046  0774 00 4 00000   JN21  AXT     **,4
      00047 -0600 00 0 77737         STQ     FMT

  BINARY CARD NO. TSH00003
      00050  0621 00 0 77740         STA     RTN
      00051 -0500 00 0 00262         CAL     MAD
      00052  0630 00 0 77740         STP     RTN
      00053 -0500 00 0 00260         CAL     TPCNT
      00054  0602 00 0 77741         SLW     COL
      00055  0020 60 0 00001         TRA*    $(IOH)
                              *
                              *              .TAPRD     ENTRY FROM MAD READ BCD TAPE
                              *
                       00056  .TAPRD SYN     *
      00056 -0500 00 0 00002         CAL     2
      00057  0602 00 0 00263         SLW     2SAVE
      00060  0560 00 0 00064         LDQ     .TR
      00061 -0600 00 0 00002         STQ     2
      00062 -0634 00 4 77740         SXD     RTN,4         SAVE CALLER LOC. IN RTN
      00063  0020 00 4 00001         TRA     1,4
                              *              BACK HERE FOR TAPE NUMBER
      00064  0020 00 0 00065   .TR   TRA     *+1
      00065 -0500 00 0 00000         CAL     0             TAPE ENTRY
      00066  0402 00 0 00270         SUB     =1
      00067  0621 00 0 00070         STA     *+1           GO BACK AND GET THE
      00070  0560 60 0 00000         LDQ*    **            TAPE NUMBER
      00071 -0625 00 0 00254         STL     MADTST
      00072  0020 00 0 00012         TRA     CALLDK
      00073  0560 00 0 00076  SETRTN LDQ     T1            SET RETURN FOR

  BINARY CARD NO. TSH00004
      00074 -0600 00 0 00002         STQ     2             FORMAT STATEMENT.
      00075  0020 60 0 00000         TRA*    0
                              *
      00076  0020 00 0 00077   T1    TRA     *+1
      00077  0634 00 4 00107         SXA     T4,4
      00100  0535 00 4 00000         LAC     0,4           GET FORMAT
      00101 -0500 00 4 77777         CAL     -1,4          PARAMETER.
      00102 -0734 00 4 00000         PDX     0,4           IS FORMAT BACKWARD
      00103  0560 00 0 00262         LDQ     MAD           (D .NE. 0)
      00104  3 00000 4 00106         TXH     *+2,4,0       OR
      00105  0560 00 0 00261         LDQ     UMAP          FORWARD (D .E. 0)
      00106  3 00001 4 00117         TXH     SYT,4,1
      00107  0774 00 4 00000   T4    AXT     **,4
      00110 -0600 00 0 00264         STQ     TEMP
      00111 -0130 00 0 00000         XCL
1            FAP                                                                                 PAGE 3

      00112 -0500 00 0 00257         CAL     FORT
      00113  0621 00 0 00264         STA     TEMP
      00114 -0130 00 0 00000         XCL
      00115  0560 00 0 00264         LDQ     TEMP
      00116  0020 00 0 00047         TRA     JN21+1
                              *
                              *              TEST FOR SYMBOL TABLE
      00117  0560 00 0 00262   SYT   LDQ     MAD

  BINARY CARD NO. TSH00005
      00120  0625 00 0 00265         STT     TGTMP
      00121 -0520 00 0 00265         NZT     TGTMP
      00122  0560 00 0 00261         LDQ     UMAP
      00123  0734 00 4 00000         PAX     0,4
      00124  0600 00 0 77771         STZ     STLOC
      00125  0634 00 4 77771         SXA     STLOC,4
      00126 -0734 00 4 00000         PDX     0,4
      00127  0754 00 4 00000         PXA     0,4
      00130  0020 00 0 00107         TRA     T4
                              *

      00131  0 00000 0 00000  CNTRL
 TD   00132  3 00000 0 00211  MODE1  TXH     VARLIN
 TD   00133  3 00000 0 00173  MODE2  TXH     FIXLIN

      00134  0634 00 4 00171  TSH    SXA     TSHX,4
      00135  0774 00 4 00026         AXT     22,4          BLANKS OUT INPUT BUFFER
      00136 -0500 00 0 00273         CAL     =H            ..
      00137  0602 00 4 77770         SLW     REC+22,4
      00140  2 00001 4 00137         TIX     *-1,4,1
 TD   00141  3 00000 0 00211  BRNCH1 TXH     VARLIN
 TD   00142  3 00000 0 00173  BRNCH2 TXH     FIXLIN
      00143  0074 00 4 00002         TSX     $BFREAD,4

  BINARY CARD NO. TSH00006
      00144  3 00000 0 00255         PTH     FILNAM
      00145  3 00000 0 00256         PTH     FILNAM+1
      00146  3 00001 0 00131         PTH     CNTRL,,1
      00147  3 00000 0 00221         PTH     NDFILA
      00150  3 00000 0 00266         PTH     EOFCT
      00151  3 00000 0 00003         PTH     $SNAP
      00152 -0500 00 0 00131         CAL     CNTRL
      00153 -0765 00 0 00022         LGR     18
      00154  0322 00 0 00272         ERA     =O777777
      00155  0100 00 0 00175         TZE     NORMAL
      00156 -0500 00 0 00131         CAL     CNTRL
      00157  0602 00 0 77742         SLW     REC
      00160  0074 00 4 00002         TSX     $BFREAD,4
      00161  3 00000 0 00255         PTH     FILNAM
      00162  3 00000 0 00256         PTH     FILNAM+1
      00163  3 00015 0 77743         PTH     REC+1,,13
      00164  3 00000 0 00221         PTH     NDFILA
      00165  3 00000 0 00266         PTH     EOFCT
      00166  3 00000 0 00003         PTH     $SNAP
      00167  0502 00 0 00142         CLS     BRNCH2
1            FAP                                                                                 PAGE 4

  BINARY CARD NO. TSH00007
      00170  0601 00 0 00142         STO     BRNCH2
      00171  0774 00 4 00000  TSHX   AXT     **,4
      00172  0020 00 4 00001         TRA     1,4

      00173  0774 00 4 00016  FIXLIN AXT     14,4
      00174  0020 00 0 00200         TRA     VAR1+1

      00175  0502 00 0 00141  NORMAL CLS     BRNCH1
      00176  0601 00 0 00141         STO     BRNCH1
      00177  0534 00 4 00131  VAR1   LXA     CNTRL,4
      00200 -0634 00 4 00204         SXD     CT,4
      00201  0074 00 4 00002  READ   TSX     $BFREAD,4
      00202  3 00000 0 00255         PTH     FILNAM
      00203  3 00000 0 00256         PTH     FILNAM+1
      00204  3 00000 0 77742  CT     PTH     REC,,**
      00205  3 00000 0 00221         PTH     NDFILA
      00206  3 00000 0 00266         PTH     EOFCT
      00207  3 00000 0 00003         PTH     $SNAP
      00210  0020 00 0 00171         TRA     TSHX

      00211  0074 00 4 00002  VARLIN TSX     $BFREAD,4
      00212  3 00000 0 00255         PTH     FILNAM
      00213  3 00000 0 00256         PTH     FILNAM+1

  BINARY CARD NO. TSH00008
      00214  3 00001 0 00131         PTH     CNTRL,,1
      00215  3 00000 0 00221         PTH     NDFILA
      00216  3 00000 0 00266         PTH     EOFCT
      00217  3 00000 0 00003         PTH     $SNAP         ERROR RETURN
      00220  0020 00 0 00177         TRA     VAR1

      00221  0074 00 4 00004  NDFILA TSX     $ENDRD,4      GO DROP FILE FROM BTB/FTB TABLES
      00222  0 00000 0 00255                 FILNAM
      00223  0074 00 4 00005         TSX     $EOFXIT,4
      00224  0 00000 0 00255                 FILNAM

      00225  0634 00 1 00250  INTBC  SXA     IX1,1
      00226  0600 00 0 00267         STZ     ACLITE
      00227 -0140 00 0 00231         TNO     *+2
      00230 -0625 00 0 00267         STL     ACLITE
      00231  0600 60 4 00001         STZ*    1,4
      00232  0774 00 1 00044         AXT     36,1
      00233 -0754 00 0 00000  RR     ZAC
      00234  0221 00 0 00271         DVP     =10
      00235  0767 00 1 00044         ALS     36,1
      00236 -0602 60 4 00001         ORS*    1,4
      00237  2 00006 1 00233         TIX     RR,1,6

  BINARY CARD NO. TSH00009
      00240 -0500 60 4 00001         CAL*    1,4
      00241  0774 00 1 00044         AXT     36,1
      00242 -2 00006 1 00246  RT     TNX     RS,1,6
      00243 -0765 00 0 00006         LGR     6
      00244 -0100 00 0 00242         TNZ     RT
      00245 -0500 00 0 00273         CAL     =H
1            FAP                                                                                 PAGE 5

      00246 -0763 00 1 00044  RS     LGL     36,1
      00247  0602 60 4 00001         SLW*    1,4
      00250  0774 00 1 00000  IX1    AXT     **,1
      00251 -0520 00 0 00267         NZT     ACLITE
      00252  0140 00 0 00253         TOV     *+1
      00253  0020 00 4 00002         TRA     2,4


      00254  0 00000 0 00000  MADTST

      00255  336321472533     FILNAM BCI     1,.TAPE.
      00256  0 00000 0 00000         PZE
                       00026  BUFSIZ EQU     22
      00257 -3 00001 0 00134   FORT  TXL     TSH,,1
      00260  3 00204 0 00000   TPCNT TXH     ,,132
      00261  3 77777 0 00000   UMAP  TXH     **,,-1
      00262  3 00001 0 00000   MAD   TXH     **,,1
      00263  0 00000 0 00000   2SAVE

  BINARY CARD NO. TSH00010
      00264  0 00000 0 00000   TEMP
      00265  0 00000 0 00000   TGTMP
      00266  0 00000 0 00000  EOFCT  PZE
      00267                   ACLITE BSS     1           ZERO IF AC LITE WAS OFF - J WOOD 1 FEB 1965
                              *
                              *
                              *
                       00026  RECLEN EQU     22
                       77771         COMMON  -200
                       77771   STLOC COMMON  1
                       77742         COMMON  RECLEN
                       77742   REC   COMMON  1
                       77741   COL   COMMON  1
                       77740   RTN   COMMON  1
                       77737   FMT   COMMON  1
                       77742  BUF    SYN     REC
                                     END

        LITERALS

  BINARY CARD NO. TSH00011
      00270  000000000001
      00271  000000000012
      00272  000000777777
      00273  606060606060
1            FAP                                                                                 PAGE 1
                        POST PROCESSOR ASSEMBLY DATA

       77736 IS THE LAST LOCATION NOT USED BY THIS PROGRAM
        274 IS THE FIRST LOCATION NOT USED BY THIS PROGRAM

0REFERENCES TO DEFINED SYMBOLS
        204     CT   200
        233     RR   237
        246     RS   242
        242     RT   244
         76     T1    73
        107     T4    77,  130
      77742    BUF   270
      77741    COL    54,  270
      77737    FMT    47,  270
        250    IX1   225
         64    .TR    60
        262    MAD    51,  103,  117
      77742    REC   137,  157,  163,  204,  270
      77740    RTN    32,   50,   52,   62,  270
        117    SYT   106
        134    TSH   257
        257   FORT    30,  112
         24   INIT    12
         46   JN21    31,   37,  116
        201   READ
          0   SEEK    22
          3   SNAP   151,  166,  207,  217
        264   TEMP    40,   43,   45,  110,  113,  115
        171   TSHX   134,  210
        261   UMAP    42,  105,  122
        177   VAR1   174,  220
        263  2SAVE    57
        131  CNTRL   146,  152,  156,  177,  214
          4  ENDRD   221
        266  EOFCT   150,  165,  206,  216
        225  INTBC    14
        132  MODE1    16
        133  MODE2    20
      77771  STLOC   124,  125,  270
        265  TGTMP   120,  121
        260  TPCNT    53
          1  (IOH)    55
         10  (TSH)     0,   10,   13
        267 ACLITE   226,  230,  251
          2 BFREAD   143,  160,  201,  211
        141 BRNCH1    17,  175,  176
        142 BRNCH2    21,  167,  170
         26 BUFSIZ   257
         12 CALLDK    72
          5 EOFXIT   223
        255 FILNAM    15,   23,  144,  145,  161,  162,  202,  203,  212,  213,  222,  224
        173 FIXLIN   133,  142
         56 .TAPRD     0,   56
        254 MADTST    11,   25,   71
        221 NDFILA   147,  164,  205,  215
1            FAP                                                                                 PAGE 2
                        POST PROCESSOR ASSEMBLY DATA

        175 NORMAL   155
         26 RECLEN   270
         73 SETRTN    26
        211 VARLIN   132,  141
         10 (TSHM)     0,   10

0 NO ERROR IN ABOVE ASSEMBLY.


  TSSF   BCD 05/29/67 0010.1     183         00000
1            FAP                                                                                 PAGE 1

                              *      SUBROUTINIZED ENTRIES TO CTSS SUPERVISOR - LP - DEC 63
                       00000         ENTRY   TSSFIL
                       00001         ENTRY   USRFIL
      00000  0101 00 0 00002  TSSFIL TIA     =HTSSFIL
      00001  0101 00 0 00003  USRFIL TIA     =HUSRFIL
                                     END

        LITERALS
      00002  636262263143
      00003  646251263143
1            FAP                                                                                 PAGE 1
                        POST PROCESSOR ASSEMBLY DATA

          4 IS THE FIRST LOCATION NOT USED BY THIS PROGRAM

0REFERENCES TO DEFINED SYMBOLS
          0 TSSFIL     0
          1 USRFIL     0

0 NO ERROR IN ABOVE ASSEMBLY.


  UPDM   BCD 05/29/67 0010.1     333         00000
1            PRIVILEGED FILE SYSTEM ENTRIES TO CTSS.                                             PAGE 1


                       00003         ENTRY   MOVFIL
                       00000         ENTRY   UPDMFD
                       00001         ENTRY   DELMFD
                       00002         ENTRY   ATTACH
                       00004         ENTRY   SETFIL
                       00005         ENTRY   LINK
                       00006         ENTRY   ALLOT

      00000  0101 00 0 00015  UPDMFD TIA     =HUPDMFD
      00001  0101 00 0 00011  DELMFD TIA     =HDELMFD
      00002  0101 00 0 00010  ATTACH TIA     =HATTACH
      00003  0101 00 0 00013  MOVFIL TIA     =HMOVFIL
      00004  0101 00 0 00014  SETFIL TIA     =HSETFIL
      00005  0101 00 0 00012  LINK   TIA     =HLINK
      00006  0101 00 0 00007  ALLOT  TIA     =HALLOT

                                     END

        LITERALS
      00007  214343466360
      00010  216363212330
      00011  242543442624
      00012  433145426060
      00013  444665263143
      00014  622563263143
      00015  644724442624
1            PRIVILEGED FILE SYSTEM ENTRIES TO CTSS.                                             PAGE 1
                        POST PROCESSOR ASSEMBLY DATA

         16 IS THE FIRST LOCATION NOT USED BY THIS PROGRAM

0REFERENCES TO DEFINED SYMBOLS
          5   LINK     0
          6  ALLOT     0
          2 ATTACH     0
          1 DELMFD     0
          3 MOVFIL     0
          4 SETFIL     0
          0 UPDMFD     0

0 NO ERROR IN ABOVE ASSEMBLY.


  VREA   BCD 06/25/69 2048.6    4912         00000
1            FAP                                                                                 PAGE 1

                              *  VREAD, VWRITE, FWRITE, SETVB, SETVBF
                              *      READ AND WRITE FIXED LENGTH RECORDS.
                                             NO FORMAT NEEDED.
                                             MODIFIED FOR NEW FILE SYSTEM  JUNE 65   EMK

  BINARY CARD NO. VRED0000
                       00434         ENTRY   SETVB
                       00434         ENTRY   SETVBF
                       00045         ENTRY   VREAD
                       00204         ENTRY   VWRITE
                       00333         ENTRY   FWRITE


        TRANSFER VECTOR

  BINARY CARD NO. VRED0001
      00000  274521446060     GNAM
      00001  234643636060     COLT
      00002  222651252124     BFREAD
      00003  624521476060     SNAP
      00004  625123306060     SRCH
      00005  222666513163     BFWRIT
      00006  665166213163     WRWAIT
      00007  254524266060     ENDF
      00010  222623434662     BFCLOS
      00011  254626673163     EOFXIT
      00012  665126436760     WRFLX
      00013  256731636060     EXIT

            LINKAGE DIRECTOR
      00014  000000000000
      00015  622563652260

                       00014  XR4    SYN     *-2
                       00026  H      EQU     22            LONGEST POSSIBLE LINE LENGTH
                       00003  L      EQU     3             SHORTEST POSSIBLE LINE LENGTH

                       00016  INIT   SYN     *
      00016 -0634 00 4 00014         SXD     XR4,4
      00017  0600 00 0 00474         STZ     FTNSW
      00020  0634 00 2 00330         SXA     X4+1,2         SAVE XRS
      00021  0634 00 1 00043         SXA     I1,1
      00022  0074 00 4 00000         TSX     $GNAM,4       GET FILE NAME
      00023  0 00000 0 00014         PZE     XR4

  BINARY CARD NO. VRED0002
      00024  0 00000 0 00532         PZE     FILNAM
      00025  0100 00 0 00036         TZE     FAP           AC HAS CODE FOR CALLING PROGRAM TYPE
      00026  0402 00 0 00535         SUB     =1            1=FAP
      00027  0100 00 0 00036         TZE     FAP
      00030  0402 00 0 00535         SUB     =1            2=FORTRAN
      00031  0100 00 0 00034         TZE     FRTRN
      00032  0601 00 0 00473         STO     MADSW         3=MAD, SET MAD SWITCH
      00033  0020 00 0 00036         TRA     FAP
      00034  0500 00 0 00535   FRTRN CLA     =1            SET FORTRAN SWITCH
      00035  0601 00 0 00474         STO     FTNSW
1            FAP                                                                                 PAGE 2

      00036  0074 00 4 00001   FAP   TSX     $COLT,4       COUNT ARGUMENTS
      00037  0 00000 0 00014         PZE     XR4
      00040  0636 00 4 00332         SCA     IOEXT,4
      00041  0636 00 4 00145         SCA     BIB1,4
      00042  0636 00 4 00236         SCA     BGEW,4
      00043  0774 00 1 00000   I1    AXT     **,1
      00044  0020 00 1 00001         TRA     1,1

                       00045  VREAD  SYN     *
      00045  0634 00 1 00331         SXA     X4+2,1
      00046  0074 00 1 00016         TSX     INIT,1        INITIATE
      00047 -0734 00 2 00000         PDX     ,2

  BINARY CARD NO. VRED0003
      00050 -3 00000 2 00423         TXL     CERR,2,0
      00051 -3 00001 2 00327         TXL     X4,2,1
      00052 -0500 60 0 00001         CAL*    $COLT         SET UP TO USE UTILITY ROUTINES
      00053  0621 00 0 00471         STA     SELAR         SELAR AND MDL
      00054  0771 00 0 00022         ARS     18
      00055  0 00000 0 00000  EOFCT  PZE
      00056  0621 00 0 00470         STA     MDL
      00057  0600 00 0 00472         STZ     EOF           CLEAR EOF SWITCH
      00060  0600 00 0 00475         STZ     WC            ZERO WORD COUNT
      00061  0774 00 1 00027         AXT     H+1,1
      00062 -0500 00 0 00540         CAL     =H            BLANK OUT READ BUFFER
      00063  0602 00 1 00532         SLW     REC+H+1,1
      00064  2 00001 1 00063         TIX     *-1,1,1
      00065  0074 00 4 00002  BIBLE  TSX     $BFREAD,4     READ FIRST WORD OF RECORD
      00066  3 00000 0 00532         PTH     FILNAM
      00067  3 00000 0 00533         PTH     FILNAM+1
      00070  3 00001 0 00502         PTH     CNTRL,,1
      00071  3 00000 0 00377         PTH     C
      00072  3 00000 0 00055         PTH     EOFCT
      00073  3 00000 0 00003         PTH     $SNAP

  BINARY CARD NO. VRED0004
      00074 -0500 00 0 00502         CAL     CNTRL
      00075 -0765 00 0 00022         LGR     18
      00076  0322 00 0 00537         ERA     =O777777      IS THIS WORD A CONTROL WORD
      00077  0100 00 0 00124         TZE     NORMAL        YES
      00100 -0534 00 1 00467         LXD     BSIZ,1        NO.  GET FIXED RECORD SIZE
      00101  1 77777 1 00102         TXI     *+1,1,-1
      00102 -0634 00 1 00112         SXD     BSZ2,1
      00103 -0500 00 0 00535         CAL     =1
      00104  0602 00 0 00475         SLW     WC
      00105 -0500 00 0 00502         CAL     CNTRL         PUT FIRST WORD IN FIRST
      00106  0602 00 0 00503         SLW     REC           LOCATION OF READ BUFFER
      00107  0074 00 4 00002         TSX     $BFREAD,4     READ REMAINDER OF RECORD
      00110  3 00000 0 00532         PTH     FILNAM
      00111  3 00000 0 00533         PTH     FILNAM+1
      00112  3 00000 0 00504  BSZ2   PTH     REC+1,,**
      00113  3 00000 0 00377         PTH     C
      00114  3 00000 0 00055         PTH     EOFCT
      00115  3 00000 0 00003         PTH     $SNAP
      00116 -0534 00 4 00112         LXD     BSZ2,4        NO. OF WORDS READ
      00117  0754 00 4 00000         PXA     ,4
1            FAP                                                                                 PAGE 3

  BINARY CARD NO. VRED0005
      00120  0400 00 0 00475         ADD     WC
      00121 -0760 00 0 00003         SSM
      00122  0601 00 0 00475         STO     WC            MINUS MEANS FIXED LENGTH RECORD
      00123  0020 00 0 00140         TRA     BIB-2
      00124  0534 00 1 00502  NORMAL LXA     CNTRL,1
      00125 -3 00026 1 00127         TXL     *+2,1,22
      00126  0774 00 1 00026         AXT     22,1
      00127 -0634 00 1 00133         SXD     WCNT,1        READ INDICATED NUMBER OF WORDS
      00130  0074 00 4 00002         TSX     $BFREAD,4
      00131  3 00000 0 00532         PTH     FILNAM
      00132  3 00000 0 00533         PTH     FILNAM+1
      00133  3 00000 0 00503  WCNT   PTH     REC,,**
      00134  3 00000 0 00377         PTH     C
      00135  3 00000 0 00055         PTH     EOFCT
      00136  3 00000 0 00003         PTH     $SNAP
      00137  0634 00 1 00475         SXA     WC,1          NO. OF WORDS READ
      00140  0774 00 4 00000         AXT     0,4           PREPARE TO MOVE WORDS FROM BUFFER TO ARGS
      00141  1 77777 2 00142         TXI     *+1,2,-1
      00142 -0634 00 0 00176  BIB    ZSD     TXI
      00143  0500 00 0 00465         CLA     TXHZ

  BINARY CARD NO. VRED0006
      00144  0601 00 0 00177         STO     TXHL
      00145 -0500 00 2 00000  BIB1   CAL     **,2
      00146  0621 00 0 00172         STA     HEDLIS
      00147 -0520 00 0 00473         NZT     MADSW         IS THIS MAD CALLING
      00150  0020 00 0 00170         TRA     SINGAR        NO
      00151  0774 00 1 00153         AXT     *+2,1
      00152  0020 60 0 00471         TRA*    SELAR         IS THIS MAD LIST ARGUMENT
      00153 -3 00003 1 00170         TXL     SINGAR,1,3    NO
      00154 -0500 60 0 00145         CAL*    BIB1
      00155  0074 00 1 00470         TSX     MDL,1         LIST INSPECTION
      00156  0734 00 1 00000         PAX     ,1            XR1=NO. WORDS IN LIST = N
 D    00157 -3 00000 1 00170         TXL     SINGAR,1      NO LIST
      00160  0630 00 0 00177         STP     TXHL
      00161  0120 00 0 00165         TPL     FORDR         PREFIX TXH..FORWARD
      00162  1 77777 1 00163         TXI     *+1,1,-1
      00163 -0634 00 1 00177         SXD     TXHL,1        N-1
      00164  0020 00 0 00166         TRA     *+2
      00165 -0636 00 1 00177  FORDR  SCD     TXHL,1        -N
      00166 -0734 00 1 00000         PDX     ,1            DECREMENT=-1..FORWARD,  =1..BACKWARD
      00167 -0634 00 1 00176         SXD     TXI,1

  BINARY CARD NO. VRED0007
      00170  0774 00 1 00000  SINGAR AXT     ,1
      00171 -0500 00 4 00503         CAL     REC,4         MOVE WORDS
      00172  0602 00 1 00000  HEDLIS SLW     **,1          INTO ARGUMENT LIST
      00173  1 77777 4 00174         TXI     *+1,4,-1      BUFFER EMPTY
      00174  3 00026 4 00176  N1     TXH     TXI,4,22
      00175  0020 00 0 00201         TRA     OUT           YES
      00176  1 00000 1 00177  TXI    TXI     *+1,1,**      NO
      00177  3 00000 1 00171  TXHL   TXH     HEDLIS-1,1,** MORE ARGUMENTS IN LIST
      00200  2 00001 2 00142  TERM   TIX     BIB,2,1
      00201  0520 00 0 00472  OUT    ZET     EOF           HAS END OF FILE BEEN READ
      00202  0020 00 0 00414         TRA     E             YES
1            FAP                                                                                 PAGE 4

      00203  0020 00 0 00324         TRA     X41           NO. RETURN

                       00204  VWRITE SYN     *
      00204  0634 00 1 00331         SXA     X4+2,1
      00205  0600 00 0 00500         STZ     FIX           ZERO FIXED LENGTH RECORD INDICATOR
      00206  0600 00 0 00475         STZ     WC            ZERO WORD COUNT
      00207  0600 00 0 00501         STZ     BF            BUFFER OR DIRECT CALL SWITCH.
      00210  0074 00 1 00016         TSX     INIT,1        INITIATE
      00211 -0734 00 2 00000         PDX     ,2
      00212 -3 00000 2 00423         TXL     CERR,2,0
      00213 -3 00001 2 00327         TXL     X4,2,1

  BINARY CARD NO. VRED0008
      00214  0074 00 4 00004         TSX     $SRCH,4
      00215  0 00000 0 00532         PZE     FILNAM
      00216  0020 00 0 00220         TRA     *+2
      00217  0120 00 0 00221         TPL     *+2
      00220 -0625 00 0 00501         STL     BF
      00221 -0500 60 0 00001         CAL*    $COLT
      00222  0621 00 0 00471         STA     SELAR
      00223  0771 00 0 00022         ARS     18
      00224  0621 00 0 00470         STA     MDL
      00225  0774 00 1 00026         AXT     H,1
      00226 -0500 00 0 00540         CAL     =H            BLANK WRITE BUFFER
      00227  0602 00 1 00532         SLW     REC+H+1,1
      00230  2 00001 1 00227         TIX     *-1,1,1
      00231  0774 00 1 00026         AXT     H,1
      00232  1 77777 2 00233         TXI     *+1,2,-1
      00233  0634 00 1 00261  BLST1  SXA     IOARG-2,1     INTO WRITE BUFFER
      00234  0500 00 0 00466         CLA     TXHLBZ
      00235  0601 00 0 00267         STO     TXHLB
      00236 -0500 00 2 00000  BGEW   CAL     **,2
      00237  0621 00 0 00263         STA     IOARG

  BINARY CARD NO. VRED0009
      00240  0774 00 4 00000         AXT     ,4
      00241 -0520 00 0 00473         NZT     MADSW
      00242  0020 00 0 00260         TRA     NOLSTB
      00243  0774 00 1 00245         AXT     *+2,1
      00244  0020 60 0 00471         TRA*    SELAR         IS THIS MAD LIST ARGUMENT
      00245 -3 00003 1 00260         TXL     NOLSTB,1,3    NO
      00246 -0500 60 0 00236         CAL*    BGEW
      00247  0074 00 1 00470         TSX     MDL,1         INSPECT LIST
      00250  0734 00 4 00000         PAX     ,4            XR4=N=NO. WORDS IN LIST
      00251  0630 00 0 00267         STP     TXHLB
      00252  0120 00 0 00256         TPL     BFORD         PREFIX=TXH..FORWARD
      00253  1 77777 4 00254         TXI     *+1,4,-1
      00254 -0634 00 4 00267         SXD     TXHLB,4       N-1
      00255  0020 00 0 00257         TRA     *+2
      00256 -0636 00 4 00267  BFORD  SCD     TXHLB,4       -N
      00257 -0734 00 4 00000         PDX     ,4            DECREMENT=-1,FORWARD..=1,BACKWARD
      00260 -0634 00 4 00266  NOLSTB SXD     TXIB,4
      00261  0774 00 1 00000         AXT     **,1
      00262  0774 00 4 00000         AXT     0,4
      00263  0500 00 4 00000  IOARG  CLA     **,4          MOVE WORDS FROM ARG LIST
1            FAP                                                                                 PAGE 5

  BINARY CARD NO. VRED0010
      00264  0601 00 1 00532         STO     REC+H+1,1     TO WRITE BUFFER
      00265 -2 00001 1 00272         TNX     VWROUT,1,1
      00266  1 00000 4 00267  TXIB   TXI     *+1,4,**      GO BACK IF DOT NOTATION
      00267  3 00000 4 00263  TXHLB  TXH     IOARG,4,**
      00270  2 00001 2 00233  TERM1  TIX     BLST1,2,1     GO ON TO NEST
      00271  0020 00 0 00277         TRA     THRU          NO MORE ARGUMENTS

      00272  0520 00 0 00500  VWROUT ZET     FIX           IS THIS FIXED RECORD
      00273  0020 00 0 00341         TRA     FWR           YES
      00274  0774 00 1 00026         AXT     H,1           NO
      00275  0020 00 0 00306         TRA     THRU2
      00276  0020 00 0 00324         TRA     X41

      00277  0520 00 0 00500  THRU   ZET     FIX           IS THIS FIXED RECORD
      00300  0020 00 0 00341         TRA     FWR           YES
      00301  0754 00 1 00000         PXA     ,1            NO
      00302  0737 00 1 00000         PAC     ,1
      00303  1 00026 1 00304         TXI     *+1,1,H       NOW MANY WORDS TO WRITE
      00304  3 00002 1 00306         TXH     *+2,1,L-1
      00305  0774 00 1 00003         AXT     L,1
      00306  0634 00 1 00463  THRU2  SXA     VCNT,1
      00307  0500 00 0 00463         CLA     VCNT

  BINARY CARD NO. VRED0011
      00310  0601 00 0 00503         STO     REC           SET CONTROL WORD
      00311  0634 00 1 00475         SXA     WC,1          NO. OF WORDS WRITTEN
      00312  1 00001 1 00313         TXI     *+1,1,1
      00313 -0634 00 1 00322         SXD     THRU1,1
      00314 -0634 00 1 00361         SXD     THRU3,1
      00315  0520 00 0 00501         ZET     BF
      00316  0020 00 0 00355         TRA     DIRCL1        NEED DIRECT RATHER THAN BUFFERED CALL.
      00317  0074 00 4 00005         TSX     $BFWRIT,4     WRITE VARIABLE LENGTH RECORD
      00320  3 00000 0 00532         PTH     FILNAM
      00321  3 00000 0 00533         PTH     FILNAM+1
      00322  3 00000 0 00503  THRU1  PTH     REC,,**
      00323  3 00000 0 00003         PTH     $SNAP         ERROR RETURN
      00324  0500 00 0 00475  X41    CLA     WC            RETURN WITH WORD COUNT IN AC
      00325  0520 00 0 00474         ZET     FTNSW
      00326  0767 00 0 00022         ALS     18
      00327 -0534 00 4 00014  X4     LXD     XR4,4
      00330  0774 00 2 00000         AXT     **,2
      00331  0774 00 1 00000         AXT     **,1
      00332  0020 00 0 00000  IOEXT  TRA     **
                              *
      00333 -0625 00 0 00500  FWRITE STL     FIX           SET FIXED INDICATOR

  BINARY CARD NO. VRED0012
      00334  0634 00 1 00331         SXA     X4+2,1
      00335 -0534 00 1 00467         LXD     BSIZ,1
      00336 -0634 00 1 00346         SXD     CT,1          SET WORD COUNT FOR WRITE
      00337 -0634 00 1 00372         SXD     CT2,1
      00340  0020 00 0 00206         TRA     VWRITE+2
                       00341  FWR    SYN     *
      00341  0520 00 0 00501         ZET     BF
      00342  0020 00 0 00366         TRA     DIRCL2        NEED DIRECT CALL.
1            FAP                                                                                 PAGE 6

      00343  0074 00 4 00005         TSX     $BFWRIT,4
      00344  3 00000 0 00532         PTH     FILNAM        BSIZ LONG
      00345  3 00000 0 00533         PTH     FILNAM+1
      00346  3 00000 0 00504  CT     PTH     REC+1,,**
      00347  3 00000 0 00003         PTH     $SNAP
                       00350  FWR1   SYN     *
      00350  0500 00 0 00346         CLA     CT            RETURN WITH WORD COUNT IN AC
      00351  0771 00 0 00022         ARS     18
      00352 -0760 00 0 00003         SSM                   MINUS SIGN MEANS FIXED LENGTH
      00353  0601 00 0 00475         STO     WC
      00354  0020 00 0 00324         TRA     X41

      00355  0074 00 4 00006  DIRCL1 TSX     $WRWAIT,4
      00356  3 00000 0 00532         PTH     FILNAM
      00357  3 00000 0 00533         PTH     FILNAM+1

  BINARY CARD NO. VRED0013
      00360  3 00000 0 00534         PTH     =0
      00361  3 00000 0 00503  THRU3  PTH     REC,,**
      00362  3 00000 0 00003         PTH     $SNAP         EOF ON WRITE.
      00363  3 00000 0 00055         PTH     EOFCT
      00364  3 00000 0 00003         PTH     $SNAP         ERROR RETURN
      00365  0020 00 0 00324         TRA     X41           RETURN TO MAIN FLOW.

      00366  0074 00 4 00006  DIRCL2 TSX     $WRWAIT,4
      00367  3 00000 0 00532         PTH     FILNAM
      00370  3 00000 0 00533         PTH     FILNAM+1
      00371  3 00000 0 00534         PTH     =0
      00372  3 00000 0 00504  CT2    PTH     REC+1,,**
      00373  3 00000 0 00003         PTH     $SNAP         EOF ON WRITE
      00374  3 00000 0 00055         PTH     EOFCT
      00375  3 00000 0 00003         PTH     $SNAP         ERROR RETURN
      00376  0020 00 0 00350         TRA     FWR1          RETURN TO MAIN FLOW.
                              *
                       00377  C      SYN     *
      00377  0500 00 0 00055         CLA     EOFCT
      00400  0400 00 0 00475         ADD     WC
      00401 -0625 00 0 00472         STL     EOF           SET EOF SWITCH
      00402  0621 00 0 00475         STA     WC
      00403  0074 00 4 00007         TSX     $ENDF,4       GO TO DROPPING FROM (FTB)

  BINARY CARD NO. VRED0014
      00404  0 00000 0 00532         PZE     FILNAM
      00405  0074 00 4 00010         TSX     $BFCLOS,4
      00406  3 00000 0 00532         PTH     FILNAM
      00407  3 00000 0 00533         PTH     FILNAM+1
      00410  3 00000 0 00411         PTH     *+1
      00411  0534 00 4 00475         LXA     WC,4
      00412 -3 00000 4 00415         TXL     E+1,4,0
      00413  0020 00 0 00140         TRA     BIB-2

      00414  0534 00 4 00475  E      LXA     WC,4
      00415  0754 00 4 00000         PXA     ,4            SET WORD COUNT IN AC (20-35)
      00416  0020 00 0 00417         TRA     ENDFIL
1            FAP                                                                                 PAGE 7

      00417  0534 00 2 00330  ENDFIL LXA     X4+1,2
      00420  0534 00 1 00331         LXA     X4+2,1
      00421  0074 00 4 00011         TSX     $EOFXIT,4
      00422  0 00000 0 00532                 FILNAM

      00423  0074 00 4 00012  CERR   TSX     $WRFLX,4
      00424  0 00006 0 00426                 MES,,6
      00425  0074 00 4 00013         TSX     $EXIT,4
      00426  603143432527     MES    BCI     6, ILLEGAL CALL TO VWRITE OR VREAD
      00427  214360232143

  BINARY CARD NO. VRED0015
      00430  436063466065
      00431  665131632560
      00432  465160655125
      00433  212460606060
                       00434  SETVB  SYN     *             RESET FIXED LENGTH BUFFER LENGTH
                       00434  SETVBF SYN     *
      00434  0600 00 0 00474         STZ     FTNSW
      00435 -0634 00 4 00014         SXD     XR4,4
      00436  0074 00 4 00000         TSX     $GNAM,4
      00437  0 00000 0 00014         PZE     XR4
      00440  0402 00 0 00536         SUB     =2
      00441 -0100 00 0 00444         TNZ     *+3
      00442 -0500 00 0 00535         CAL     =1
      00443  0601 00 0 00474         STO     FTNSW
      00444 -0500 00 0 00467         CAL     BSIZ
      00445 -0520 00 0 00474         NZT     FTNSW
      00446  0771 00 0 00022         ARS     18
      00447  0602 00 0 00476         SLW     TEMP
      00450 -0534 00 4 00014         LXD     XR4,4
      00451 -0500 60 4 00001         CAL*    1,4
      00452 -0520 00 0 00474         NZT     FTNSW
      00453  0734 00 4 00000         PAX     ,4

  BINARY CARD NO. VRED0016
      00454  2 00026 4 00456         TIX     *+2,4,H
      00455  0020 00 0 00457         TRA     *+2
      00456  0774 00 4 00026         AXT     H,4           CANNOT BE GREATER THAN 22 WORDS
      00457 -0634 00 4 00467         SXD     BSIZ,4
      00460 -0534 00 4 00014         LXD     XR4,4
      00461 -0500 00 0 00476         CAL     TEMP
      00462  0020 00 4 00002         TRA     2,4

      00463 -377777000000     VCNT   OCT     777777000000
      00464 -377777000026     VCNTR  OCT     777777000026
      00465  3 00000 1 00171  TXHZ   TXH     HEDLIS-1,1,0
      00466  3 00000 4 00263  TXHLBZ TXH     IOARG,4,0
      00467  0 00016 0 00000  BSIZ   PZE     ,,14
 A    00470  0020 00 0 00000  MDL    TRA
      00471  0 00000 0 00000  SELAR  PZE
      00472  0 00000 0 00000  EOF    PZE                   NOT ZERO IF EOF
      00473  0 00000 0 00000  MADSW  PZE
      00474  0 00000 0 00000  FTNSW  PZE
      00475  0 00000 0 00000  WC     PZE
      00476  0 00000 0 00000  TEMP   PZE
1            FAP                                                                                 PAGE 8

      00477  0 00000 0 00000  SIND   PZE

  BINARY CARD NO. VRED0017
      00500  0 00000 0 00000  FIX    PZE
      00501  0 00000 0 00000  BF     PZE
      00502  0 00000 0 00000  CNTRL  PZE
      00503                   REC    BSS     23
      00532                   FILNAM BSS     2
                                     END

        LITERALS

  BINARY CARD NO. VRED0018
      00534  000000000000
      00535  000000000001
      00536  000000000002
      00537  000000777777
      00540  606060606060
1            FAP                                                                                 PAGE 1
                        POST PROCESSOR ASSEMBLY DATA

        541 IS THE FIRST LOCATION NOT USED BY THIS PROGRAM

0REFERENCES TO DEFINED SYMBOLS
        377      C    71,  113,  134,  377
        414      E   202,  412
         26      H    16,   61,   63,  225,  227,  231,  264,  274,  303,  454,  456
          3      L    16,  304,  305
        501     BF   207,  220,  315,  341
        346     CT   336,  350
         43     I1    21
        174     N1
        475     WC    60,  104,  120,  122,  137,  206,  311,  324,  353,  400,  402,  411,  414
        327     X4    20,   45,   51,  204,  213,  334,  417,  420
        142    BIB   123,  200,  413
        372    CT2   337
        472    EOF    57,  201,  401
         36    FAP    25,   27,   33
        500    FIX   205,  272,  277,  333
        341    FWR   273,  300,  341
        470    MDL    56,  155,  224,  247
        426    MES   424
        201    OUT   175
        503    REC    63,  106,  112,  133,  171,  227,  264,  310,  322,  346,  361,  372
        176    TXI   142,  167,  174
        324    X41   203,  276,  354,  365
         14    XR4    16,   23,   37,  327,  435,  437,  450,  460
        236   BGEW    42,  246
        145   BIB1    41,  154
        467   BSIZ   100,  335,  444,  457
        112   BSZ2   102,  116
        423   CERR    50,  212
          1   COLT    36,   52,  221
          7   ENDF   403
         13   EXIT   425
        350   FWR1   350,  376
          0   GNAM    22,  436
         16   INIT    16,   46,  210
        477   SIND
          3   SNAP    73,  115,  136,  323,  347,  362,  364,  373,  375
          4   SRCH   214
        476   TEMP   447,  461
        200   TERM
        277   THRU   271
        177   TXHL   144,  160,  163,  165
        465   TXHZ   143
        266   TXIB   260
        463   VCNT   306,  307
        133   WCNT   127
        256  BFORD   252
         65  BIBLE
        233  BLST1   270
        502  CNTRL    70,   74,  105,  124
         55  EOFCT    72,  114,  135,  363,  374,  377
        165  FORDR   161
1            FAP                                                                                 PAGE 2
                        POST PROCESSOR ASSEMBLY DATA

         34  FRTRN    31
        474  FTNSW    17,   35,  325,  434,  443,  445,  452
        263  IOARG   233,  237,  267,  466
        332  IOEXT    40
        473  MADSW    32,  147,  241
        471  SELAR    53,  152,  222,  244
        434  SETVB     0,  434
        270  TERM1
        322  THRU1   313
        306  THRU2   275
        361  THRU3   314
        267  TXHLB   235,  251,  254,  256
        464  VCNTR
         45  VREAD     0,   45
         12  WRFLX   423
         10 BFCLOS   405
          2 BFREAD    65,  107,  130
          5 BFWRIT   317,  343
        355 DIRCL1   316
        366 DIRCL2   342
        417 ENDFIL   416
         11 EOFXIT   421
        532 FILNAM    24,   66,   67,  110,  111,  131,  132,  215,  320,  321,  344,  345,  356,  357,  367,  370,  404
                     406,  407,  422
        333 FWRITE     0
        172 HEDLIS   146,  177,  465
        260 NOLSTB   242,  245
        124 NORMAL    77
        434 SETVBF     0,  434
        170 SINGAR   150,  153,  157
        466 TXHLBZ   234
        204 VWRITE     0,  204,  340
        272 VWROUT   265
          6 WRWAIT   355,  366

0 NO ERROR IN ABOVE ASSEMBLY.


  WAIT   BCD 06/25/69 2048.6     135         00000
1     FAP ASSEMBLY LISTING  ...  ...  ...        FILE WAIT__ _____FAP___         06/21/69 1701.0 PAGE 1

                       00000         ENTRY   WAIT
      00000  0101 00 0 00001  WAIT   TIA     =HWAIT
                                     END

        LITERALS
      00001  662131636060
1     FAP ASSEMBLY LISTING  ...  ...  ...        FILE WAIT__ _____FAP___         06/21/69 1701.0 PAGE 1
                        POST PROCESSOR ASSEMBLY DATA

          2 IS THE FIRST LOCATION NOT USED BY THIS PROGRAM

0REFERENCES TO DEFINED SYMBOLS
          0   WAIT     0

0 NO ERROR IN ABOVE ASSEMBLY.


  WHOA   BCD 05/29/67 0010.1     135         00000
1                                                                                                PAGE 1

                       00000         ENTRY   WHOAMI
      00000  0101 00 0 00001  WHOAMI TIA     =HWHOAMI
                                     END

        LITERALS
      00001  663046214431
1                                                                                                PAGE 1
                        POST PROCESSOR ASSEMBLY DATA

          2 IS THE FIRST LOCATION NOT USED BY THIS PROGRAM

0REFERENCES TO DEFINED SYMBOLS
          0 WHOAMI     0

0 NO ERROR IN ABOVE ASSEMBLY.


  WRFL   BCD 05/29/67 0010.1     224         00000
1            CONSOLE INPUT/OUTPUT CALLS TO SUPERVISOR                                            PAGE 1
                           D.R. WIDRIG  NOV. 1966


                       00000         ENTRY   WRFLX
                       00001         ENTRY   WRFLXA
                       00002         ENTRY   RDFLXA

      00000  0101 00 0 00005  WRFLX  TIA     =HWRFLX
      00001  0101 00 0 00004  WRFLXA TIA     =HWRFLXA
      00002  0101 00 0 00003  RDFLXA TIA     =HRDFLXA

                                     END

        LITERALS
      00003  512426436721
      00004  665126436721
      00005  665126436760
1            CONSOLE INPUT/OUTPUT CALLS TO SUPERVISOR                                            PAGE 1
                        POST PROCESSOR ASSEMBLY DATA

          6 IS THE FIRST LOCATION NOT USED BY THIS PROGRAM

0REFERENCES TO DEFINED SYMBOLS
          0  WRFLX     0
          2 RDFLXA     0
          1 WRFLXA     0

0 NO ERROR IN ABOVE ASSEMBLY.


  WRWT   BCD 05/29/67 0010.1     166         00000
1                                                                                                PAGE 1

                       00000         ENTRY   WRFILE
                       00001         ENTRY   WRWAIT
      00000  0101 00 0 00002  WRFILE TIA     =HWRFILE
      00001  0101 00 0 00003  WRWAIT TIA     =HWRWAIT
                                     END

        LITERALS
      00002  665126314325
      00003  665166213163
1                                                                                                PAGE 1
                        POST PROCESSOR ASSEMBLY DATA

          4 IS THE FIRST LOCATION NOT USED BY THIS PROGRAM

0REFERENCES TO DEFINED SYMBOLS
          0 WRFILE     0
          1 WRWAIT     0

0 NO ERROR IN ABOVE ASSEMBLY.


  XDET   BCD 05/29/67 0010.1    6794         00000
