1       M1416 3845  PETER R. BOS ...... CTSS MAIN CONTROL SECTION .......        02/04/71 2001.2 PAGE 1

                                     PCC     ON                                                       CTRL0002
                                     NOLNK                                                            CTRL0003
                       00045         ENTRY   CYCLE         ENTRY TO FIND MORE WORK                    CTRL0004
                       00155         ENTRY   CMPROC        ENTRY TO PROCESS USER WAITING COMMAND      CTRL0005
                       00347         ENTRY   CHNCOM        USER ENTRY TO CONTINUE COMMAND CHAIN       CTRL0006
                       00371         ENTRY   NEWCOM        ENTRY TO START UP NEW COMMAND FOR USER     CTRL0007
                       00422         ENTRY   DEAD          ENTRY TO PLACE USER IN DEAD STATUS         CTRL0008
                       00424         ENTRY   DORMNT        ENTRY TO PLACE USER IN DORMANT STATUS      CTRL0009
                       00425         ENTRY   ENDUSR        ENTRY AT END OF COMMAND, SET USER STATUS   CTRL0010
                       00463         ENTRY   ENDSYS        SPECIAL ENDUSR FOR SUBSYS EXIT             CTRL0011
                       00523         ENTRY   CKQUIT        ENTRY TO CHECK USER STILL WORKING          CTRL0012
                       00601         ENTRY   CHNERR        ENTRY TO INTERRUPT COMMAND CHAIN           CTRL0013
                       00624         ENTRY   ILLCOM        ENTRY FOR ILLEGAL COMMAND SEQUENCE         CTRL0014
                       00626         ENTRY   COLD          MANUAL ENTRY FOR SYSTEM RESTART            CTRL0015
                       00706         ENTRY   GODOWN        ENTRY TO BRING CTSS DOWN                   CTRL0016
                                     LBL     CTRL0000                                                 CTRL0017
                                     PCC     OFF                                                      CTRL0018
                                                                                                      CTRL0019
                                                                                                      CTRL0020
                                     EXTERN  ADDTIM,ATTSYS,BTDC,CHANLI,CHNGUS,COMSCH                  CTRL0021
                                     EXTERN  CPYCOM,CTIME,DUMP,EPRINT,FILRST,GETUFD                   CTRL0022
                                     EXTERN  IOFINI,IORSET,IOSTRT,KILL,NBL                            CTRL0023
                                     EXTERN  PRDIAG,RCLOCK,RDYTIM,RESET,RESETF,RSSRB                  CTRL0024
                                     EXTERN  RSTCPU,RSTUFD,SCHEDL,SETAB,SETSWS,SETUFD                 CTRL0025
                                     EXTERN  STCLOC,SUBSYS,ULOAD,UNDUMP,WRFLX,WRTOPR                  CTRL0026
                                                                                                      CTRL0027
                                                                                                      CTRL0028
                                     UNLIST                                                           CTRL0029

                                                                                                      CTRL0035
                                                                                                      CTRL0036
                                             ..... PRIMARY SECTION OF MAIN CONTROL .....              CTRL0037
                                                                                                      CTRL0038
      00045  0564 00 0 77777  CYCLE  ENB     ENBWD         INSURE ALL TRAPS ENABLED                   CTRL0039
      00046 -0520 60 0 00043         NZT*    $DOWNSW       IS SWITCH SET TO BRING DOWN CTSS           CTRL0040
      00047  0020 00 0 00056         TRA     CYCLE0        NO, SKIP                                   CTRL0041
      00050                          SCHEDL  =13,Q0,Q0     HAVE QUEUES BEEN DRAINED                   CTRL0042
      00054  0564 00 0 77777         ENB     ENBWD         ..                                         CTRL0043
      00055  0100 00 0 00706         TZE     GODOWN        YES, BRING CTSS DOWN                       CTRL0044
                                                                                                      CTRL0045
      00056 -0520 00 0 74454  CYCLE0 NZT     AUTOND        IS SWITCH SET TO LOGOUT ALL USERS          CTRL0046
      00057  0020 00 0 00067         TRA     CYCLE1        NO, GO LOOK FOR NEW WORK                   CTRL0047
      00060  0520 00 0 01034         ZET     DONESW        YES, HAVE ALL USERS BEEN LOGGED OUT        CTRL0048
      00061  0020 00 0 00067         TRA     CYCLE1        .. YES, SKIP                               CTRL0049
      00062  0534 00 4 74532         LXA     NUSERS,4      CHECK NUMBER OF USERS LOGGED IN            CTRL0050
      00063  3 00000 4 00067         TXH     CYCLE1,4,0    ALL USERS NOT YET LOGGED OUT               CTRL0051
      00064 -0625 00 0 01034         STL     DONESW        HERE IF ALL USERS LOGGED OUT               CTRL0052
      00065  0074 00 4 00042         TSX     WRTOPR,4      TELL OPERATOR OF THIS                      CTRL0053
      00066  0 00011 0 00767         PZE     DONE,,9       ..                                         CTRL0054
                                                                                                      CTRL0055
      00067  0074 00 4 00000  CYCLE1 TSX     ADDTIM,4      UPDATE ALL TIME COUNTERS                   CTRL0056
      00070                          SCHEDL  Q10,Q0,Q0     INSURE SOME USER TO RUN                    CTRL0057
      00074  0564 00 0 77777         ENB     ENBWD         REENABLE AFTER SCHEDL                      CTRL0058
      00075 -0520 00 0 74616         NZT     SWAP          IS SWITCH SET TO SWAP USERS                CTRL0059
      00076  0020 00 0 00027         TRA     RSTCPU        NO, CONTINUE RUNNING CURRENT USER          CTRL0060
      00077 -0500 00 0 74626         CAL     NEWUSR        IS NEW USER TO BE LOADED                   CTRL0061
1       M1416 3845  PETER R. BOS ...... CTSS MAIN CONTROL SECTION .......        02/04/71 2001.2 PAGE 2

      00100  0402 00 0 74502         SUB     USER          ..                                         CTRL0062
      00101 -0100 00 0 00113         TNZ     URUN1         YES, GO DUMP OLD USER                      CTRL0063
      00102                          SCHEDL  Q3,USER,Q0    DUMMY CALL IF USER ALREADY IN CORE         CTRL0064
      00106                          SCHEDL  Q4,USER,Q0    ..                                         CTRL0065
      00112  0020 00 0 00136         TRA     URUN2         SKIP                                       CTRL0066
                                                                                                      CTRL0067
      00113  0074 00 4 00000  URUN1  TSX     ADDTIM,4      UPDATE ALL TIME COUNTERS                   CTRL0068
      00114 -0625 00 0 74475         STL     SWPSW         CHARGE AS SWAP TIME                        CTRL0069
      00115  0074 00 4 00010         TSX     DUMP,4        DUMP OLD USER ON HIGH SPEED DRUM           CTRL0070
      00116 -0500 00 0 74626         CAL     NEWUSR        ..                                         CTRL0071
      00117  0602 00 0 74502         SLW     USER          ..                                         CTRL0072
      00120  0074 00 4 00040         TSX     UNDUMP,4      RESTORE USER                               CTRL0073
      00121  0074 00 4 00000         TSX     ADDTIM,4      UPDATE TIME COUNTERS AFTER SWAP            CTRL0074
      00122  0600 00 0 74475         STZ     SWPSW         CHARGE AS USER TIME                        CTRL0075
      00123  0074 00 4 00004         TSX     CHNGUS,4      SET USER TO BE DISK USER                   CTRL0076
      00124  3 00000 0 74667         PAR     Q2            .. USER NO. 2                              CTRL0077
      00125                          SETAB   LA,LB,LB      SET MEMORY SWITCHES FOR CALLS FROM MEM. A  CTRL0078
      00131 -0520 00 0 72161         NZT     MEMBND        RESET ACTIVE FILES IF NO CORE              CTRL0079
      00132  0074 00 4 00025         TSX     RESETF,4      ..                                         CTRL0080
      00133  3 00000 0 00134         PAR     *+1           ..                                         CTRL0081
      00134  0074 00 4 00016         TSX     IOSTRT,4      RESTART BLOCKED I/O FOR USER               CTRL0082
      00135  3 00000 0 74667         PAR     Q2            ..                                         CTRL0083
                                                                                                      CTRL0084
      00136  0535 00 1 74502  URUN2  LAC     USER,1        GET USER NUMBER OF NEW USER                CTRL0085
      00137  0564 00 0 74671         ENB     Q0            DISABLE ALL TRAPS                          CTRL0086
      00140 -0500 00 1 77726         CAL     STATUS,1      GET CURRENT USER STATUS                    CTRL0087
      00141  0402 00 0 74666         SUB     Q3            ..                                         CTRL0088
      00142  0602 00 0 01035         SLW     COMDSW        ZERO IF USER WAS IN COMMAND WAIT           CTRL0089
      00143                          SCHEDL  Q5,USER,Q0    INFORM SCHEDL USER READY TO RUN            CTRL0090
      00147  0520 00 0 01035         ZET     COMDSW        WAS THIS A WAITING COMMAND                 CTRL0091
      00150  0020 00 0 00346         TRA     URUN3         NO, GO RUN USER PROGRAM                    CTRL0092
      00151 -0500 00 1 75575         CAL     COMMND,1      YES, SET UP COMMAND NAME AND FLAGS         CTRL0093
      00152  0602 00 0 74414         SLW     UCOMND        ..                                         CTRL0094
      00153 -0500 00 1 75524         CAL     USWICH,1      ..                                         CTRL0095
      00154  0602 00 0 74413         SLW     UCOMSW        ..                                         CTRL0096
                                                                                                      CTRL0097
      00155  0074 00 4 00000  CMPROC TSX     ADDTIM,4      UPDATE ALL TIME COUNTERS                   CTRL0098
      00156 -0625 00 0 74474         STL     COMSW         CHARGE AS COMMAND LOAD TIME                CTRL0099
      00157 -0520 00 0 74502         NZT     USER          IS USER THE BACKGROUND SYSTEM              CTRL0100
      00160  0600 00 0 74444         STZ     BKGKEY        .. RESET REQUEST CODE IF SO                CTRL0101
      00161  0074 00 4 00006         TSX     CPYCOM,4      SET UP COMMAND BUFFER FOR USER COMMAND     CTRL0102
      00162  3 00000 0 00533         PAR     CPYERR        .. POSSIBLE (UNLIKELY) ERROR               CTRL0103
      00163  0564 00 0 77777         ENB     ENBWD         ENABLE FOR ALL TRAPS NOW                   CTRL0104
      00164  0074 00 4 00013         TSX     GETUFD,4      PICK UP CURRENT USER ATTACHED UFD          CTRL0105
      00165  0074 00 4 00005         TSX     COMSCH,4      SEARCH COMMAND DIRECTORY FOR COMMAND       CTRL0106
      00166  3 00000 0 00534         PAR     CHKERR        .. ERROR, COMMAND NOT FOUND                CTRL0107
      00167  0441 00 2 00001         LDI     1,2           LOAD COMMAND FLAGS                         CTRL0108
      00170 -0056 00  002000         LNT     .SAV          IS CURRENT CORE IMAGE TO BE PRESERVED      CTRL0109
      00171  0020 00 0 00203         TRA     CMPRC1        .. NO, RESET CURRENT USER STATUS           CTRL0110
                                                                                                      CTRL0111
      00172  0520 00 0 72161         ZET     MEMBND        DOES USER HAVE CORE IMAGE                  CTRL0112
      00173 -0520 00 0 72434         NZT     FSBCT         .. AND SAVED FILE STATUS                   CTRL0113
      00174  0020 00 0 00253         TRA     CMPRC2        .. NO, SKIP                                CTRL0114
      00175  0074 00 4 00012         TSX     FILRST,4      .. YES, RESTORE USER ACTIVE FILE STATUS    CTRL0115
      00176  3 00000 0 00177         PAR     *+1           .. IGNORE POSSIBLE ERROR                   CTRL0116
      00177 -0500 00 2 00003         CAL     3,2           PICK UP COMMAND OPTIONS                    CTRL0117
1       M1416 3845  PETER R. BOS ...... CTSS MAIN CONTROL SECTION .......        02/04/71 2001.2 PAGE 3

      00200 -0320 00 0 74644         ANA     LMASK         MASK OUT JUNK                              CTRL0118
      00201 -0602 00 1 75770         ORS     USROPT,1      PRESERVE CURRENT OPTIONS IF ANY            CTRL0119
      00202  0020 00 0 00253         TRA     CMPRC2        .. AND SKIP                                CTRL0120
                                                                                                      CTRL0121
      00203  0074 00 4 00004  CMPRC1 TSX     CHNGUS,4      HERE TO RESET USER STATUS                  CTRL0122
      00204  3 00000 0 74667         PAR     Q2            SET USER TO BE DISK USER                   CTRL0123
      00205                          SETAB   LA,LB,LB      SET MEMORY SWITCHES FOR USER FILES         CTRL0124
      00211                          NZTBIT  USROPT,1,,RSTFBT  DOES USER WANT FILES RESET             CTRL0125
      00213 -0520 00 0 72161         NZT     MEMBND        .. OR LACK CORE IMAGE                      CTRL0126
      00214  0020 00 0 00216         TRA     *+2           .. SKIP TO RESET FILES IF SO               CTRL0127
      00215  0074 00 4 00024         TSX     RESET,4       HERE TO CLOSE ACTIVE FILES                 CTRL0128
      00216  0074 00 4 00025         TSX     RESETF,4      RESET ANY THAT GOT AWAY                    CTRL0129
      00217  3 00000 0 00220         PAR     *+1           ..                                         CTRL0130
      00220  0756 00 1 00000         PCA     ,1            GET USER NO. OF THIS USER                  CTRL0131
      00221  0402 60 0 00044         SUB*    $GE.USR       IS THIS USER RESETTING 6.36 PROGRAM        CTRL0132
      00222 -0100 00 0 00224         TNZ     *+2           .. NO                                      CTRL0133
      00223  0600 60 0 00044         STZ*    $GE.USR       .. YES, FREE UP 6.36 ENTRIES               CTRL0134
      00224  0441 00 0 74413         LDI     UCOMSW        IS THIS CONSOLE-ISSUED COMMAND             CTRL0135
      00225 -0054 00  000400         LFT     UCMLBT        ..                                         CTRL0136
      00226 -0056 00  000100         LNT     UCOMBT        ..                                         CTRL0137
      00227  0020 00 0 00233         TRA     *+4           .. NO, SKIP                                CTRL0138
      00230  0441 00 1 75770         LDI     USROPT,1      HERE IF COMMAND ISSUED BY USER FROM CONSOLECTRL0139
      00231  0057 00  000040         RIR     SYSBIT        RESET SUBSYSTEM FLAG                       CTRL0140
      00232  0604 00 1 75770         STI     USROPT,1      ..                                         CTRL0141
      00233  0774 00 4 00044         AXT     SAVEM1-MEMBND,4 CLEAR ALL USER MACHINE CONDITIONS        CTRL0142
      00234  0600 00 4 72225         STZ     SAVEM1,4      ..                                         CTRL0143
      00235  2 00001 4 00234         TIX     *-1,4,1       ..                                         CTRL0144
      00236  0760 00 0 00005         IOT                   .. TURN OFF I/O CHECK                      CTRL0145
      00237  0761 00 0 00000         NOP                   ..                                         CTRL0146
      00240 -0625 00 0 72201         STL     FLMD          .. SET USER IN FLOATING TRAP MODE          CTRL0147
      00241 -0625 00 0 72200         STL     MTMD          .. AND 3-TAG MODE                          CTRL0148
      00242 -0625 00 0 72156         STL     MACOND        INDICATE MACHINE CONDITIONS MEANINGFUL     CTRL0149
      00243  0600 00 0 72233         STZ     TSSFSW        RESET USER FROM TSS FILES                  CTRL0150
      00244 -0520 00 1 76500         NZT     PROBN,1       IS THIS USER LOGGED IN                     CTRL0151
      00245  0600 00 0 72236         STZ     USRFIL        NO, RESET HIM FROM ANY U.F.D.              CTRL0152
      00246  0560 00 2 00003         LDQ     3,2           SET ALL OPTIONS FOR THIS COMMAND           CTRL0153
      00247 -0620 00 1 75770         SLQ     USROPT,1      ..                                         CTRL0154
      00250  0074 00 4 00033         TSX     SETSWS,4      SET CONSOLE MODE                           CTRL0155
      00251  0 00000 0 74502         PZE     USER          ..                                         CTRL0156
      00252  0564 00 0 77777         ENB     ENBWD         REENABLE FOR ALL TRAPS NOW                 CTRL0157
                                                                                                      CTRL0158
      00253  0600 00 0 72434  CMPRC2 STZ     FSBCT         RESET USAVE BLOCK COUNT                    CTRL0159
      00254  0441 00 1 75770         LDI     USROPT,1      RELOAD USER OPTIONS                        CTRL0160
      00255 -0500 00 1 76041         CAL     RCODE,1       PICK UP BASIC USER RESTRICTION CODE        CTRL0161
      00256 -0501 60 2 00003         ORA*    3,2           OR IN COMMAND RESTRICTION CODE             CTRL0162
      00257  0054 00  000040         RFT     SYSBIT        IF THIS IS USER'S SUBSYSTEM                CTRL0163
      00260 -0501 00 0 01054         ORA     =VO36/RSYSBT  .. ADD SUBSYSTEM PRIVILEGES                CTRL0164
      00261  0602 00 0 72232         SLW     URCODE        SET UP AS USER CURRENT RESTRICTION CODE    CTRL0165
      00262                          ZETBIT  UCOMSW,,UCHNBT IS USER IN COMMAND CHAIN                  CTRL0166
      00264  0020 00 0 00272         TRA     CMPRC3        .. YES, SKIP                               CTRL0167
      00265  0441 00 2 00001         LDI     1,2           .. NO, RELOAD COMMAND FLAGS                CTRL0168
      00266 -0054 00  004000         LFT     .CLC          .. IS COMMAND COUNTER TO BE PRESERVED      CTRL0169
      00267  0020 00 0 00272         TRA     CMPRC3        .. YES                                     CTRL0170
      00270  0600 00 0 72241         STZ     COMCTR        .. NO, RESET COMMAND COUNTER               CTRL0171
      00271  0600 00 0 72433         STZ     WATCOM        .. AND WAITING COMMAND SWITCH              CTRL0172
                                                                                                      CTRL0173
1       M1416 3845  PETER R. BOS ...... CTSS MAIN CONTROL SECTION .......        02/04/71 2001.2 PAGE 4

      00272  0441 00 2 00001  CMPRC3 LDI     1,2           RELOAD COMMAND FLAGS                       CTRL0174
      00273 -0056 00  000010         LNT     .CPY          IS COMMAND BUFFER TO BE PASSED TO USER     CTRL0175
      00274  0020 00 0 00304         TRA     CMPRC4        .. NO, SKIP                                CTRL0176
      00275 -0500 00 0 74441         CAL     COMPTR        .. YES, PICK UP COMMAND POINTER            CTRL0177
      00276  0621 00 0 00300         STA     MV1           ..                                         CTRL0178
      00277 -0774 00 4 00000         AXC     0,4           ..                                         CTRL0179
      00300 -0500 00 4 00000  MV1    CAL     -,4           .. COPY COMMAND BUFFER                     CTRL0180
      00301  0602 00 4 72242         SLW     UCOMBF,4      .. FOR USER                                CTRL0181
      00302  1 77777 4 00303         TXI     *+1,4,-1      ..                                         CTRL0182
      00303  3 77754 4 00300         TXH     MV1,4,-LCBUF  ..                                         CTRL0183
                                                                                                      CTRL0184
      00304 -0500 00 0 72162  CMPRC4 CAL     ILC           SAVE PREVIOUS USER ILC                     CTRL0185
      00305  0602 00 0 72214         SLW     OLDILC        .. IN CASE OF TRANSFER COMMAND             CTRL0186
      00306 -0500 00 2 00002         CAL     2,2           PICK UP COMMAND START LOCATION             CTRL0187
      00307  0771 00 0 00022         ARS     18            ..                                         CTRL0188
      00310  0100 00 0 00314         TZE     *+4           .. SKIP IF NOT SPECIFIED                   CTRL0189
      00311  0602 00 0 72162         SLW     ILC           .. SAVE FOR USER                           CTRL0190
      00312 -0056 00  002000         LNT     .SAV          .. IF PREVIOUS PROGRAM RESET,              CTRL0191
      00313  0602 00 0 72214         SLW     OLDILC        .. SET OLDILC SAME AS STARTING ILC         CTRL0192
                                                                                                      CTRL0193
      00314 -0056 00  000002         LNT     .DSK          IS THIS COMMAND DISK LOADED                CTRL0194
      00315  0020 00 0 00336         TRA     CMPRC5        .. NO, SKIP FOR TRANSFER COMMAND           CTRL0195
      00316  0500 60 2 00002         CLA*    2,2           PICK UP COMMAND FILE NAME FOR DISK COMMAND CTRL0196
      00317  0560 00 0 74637         LDQ     TSSDC.        .. 'TSSDC.' FOR SYSTEM COMMAND             CTRL0197
      00320 -0054 00  001000         LFT     .UFL          ..                                         CTRL0198
      00321  0560 00 0 74636         LDQ     SAVED         .. 'SAVED' FOR USER COMMAND                CTRL0199
      00322 -0603 00 0 01036         DST     COMD          .. SAVE                                    CTRL0200
      00323  0074 00 4 00001         TSX     ATTSYS,4      INSURE TSS ATTACHED TO SYSTEM FILES        CTRL0201
      00324  3 00000 0 00021         PAR     PRDIAG        .. POSSIBLE ERROR                          CTRL0202
      00325  0441 00 2 00001         LDI     1,2           RELOAD COMMAND FLAGS AGAIN                 CTRL0203
      00326 -0054 00  001000         LFT     .UFL          IS THIS COMMAND TO BE LOADED FROM USER UFD CTRL0204
      00327  0074 00 4 00004         TSX     CHNGUS,4      .. YES, SET USER TO BE DISK USER           CTRL0205
      00330  3 00000 0 74667         PAR     Q2            .. (COMSCH HAS ATTACHED USER TO OWN UFD)   CTRL0206
      00331  0074 00 4 00037         TSX     ULOAD,4       LOAD COMMAND FILE                          CTRL0207
      00332  3 00000 0 01040         PAR     COMDOP        .. OPTIONS FOR DISK COMMAND                CTRL0208
      00333  3 00000 0 01036         PAR     COMD          ..                                         CTRL0209
      00334  3 00000 0 01037         PAR     COMD+1        ..                                         CTRL0210
      00335  3 00622 0 00622         PAR     COMERR,,COMERR .. POSSIBLE ERROR, ABORT COMMAND          CTRL0211
                                                                                                      CTRL0212
      00336  0074 00 4 00030  CMPRC5 TSX     RSTUFD,4      HERE WHEN COMMAND READY TO RUN             CTRL0213
      00337  0761 00 0 00000         NOP                   .. RESTORE USER TO PROPER UFD              CTRL0214
      00340  0441 00 2 00001         LDI     1,2           RELOAD COMMAND FLAGS ONCE MORE             CTRL0215
      00341 -0054 00  000001         LFT     .ATR          IS THIS A-CORE TRANSFER COMMAND            CTRL0216
      00342  0020 60 2 00002         TRA*    2,2           .. YES, GO TO COMMAND ROUTINE              CTRL0217
      00343  0074 00 4 00523         TSX     CKQUIT,4      COPY COMMAND NAME INTO BUFFER              CTRL0218
      00344 -0500 00 0 74414         CAL     UCOMND        .. IF NO NEW COMMAND OR QUIT               CTRL0219
      00345  0602 00 1 75575         SLW     COMMND,1      ..                                         CTRL0220
                                                                                                      CTRL0221
      00346  0020 00 0 00027  URUN3  TRA     RSTCPU        GO START UP USER PROGRAM                   CTRL0222
1       M1416 3845  PETER R. BOS ...... CTSS MAIN CONTROL SECTION .......        02/04/71 2001.2 PAGE 5

                                                                                                      CTRL0224
                                             ..... ENTRY TO SET UP NEXT COMMAND FROM CHAIN .....      CTRL0225
                                                                                                      CTRL0226
      00347  0564 00 0 77777  CHNCOM ENB     ENBWD         ENABLE FOR ALL TRAPS                       CTRL0227
      00350  0056 00  000001         RNT     1             DID USER SPECIFY DORMANT STATUS            CTRL0228
      00351  0600 00 0 72161         STZ     MEMBND        .. NO, RESET USER MEMORY SIZE              CTRL0229
      00352 -0500 00 0 72241         CAL     COMCTR        GET USER SUB-COMMAND POINTER               CTRL0230
      00353  0734 00 4 00000         PAX     ,4            NEXT COMMAND TO LOAD FROM CHAIN            CTRL0231
      00354  3 00005 4 00416         TXH     ENDCHN,4,CDEPTH .. SEE IF OUT OF BOUNDS                  CTRL0232
      00355 -3 00000 4 00416         TXL     ENDCHN,4,0    SKIP IF NO COMMAND CHAIN SET UP            CTRL0233
      00356  0622 00 0 00357         STD     *+1           TEST IF END OF CHAIN REACHED               CTRL0234
      00357  3 00000 4 00416         TXH     ENDCHN,4,-    ..                                         CTRL0235
      00360 -0774 00 2 72266         AXC     SUBCOM,2      SET UP POINTER TO NEXT COMMAND             CTRL0236
      00361 -2 00001 4 00363         TNX     *+2,4,1       ..                                         CTRL0237
      00362  1 77754 2 00361         TXI     *-1,2,-CLNGTH ..                                         CTRL0238
      00363 -0520 00 2 00000         NZT     0,2           INSURE COMMAND NON-ZERO                    CTRL0239
      00364  0020 00 0 00416         TRA     ENDCHN        EXIT FOR COMMAND NAME 000000               CTRL0240
      00365  0400 00 0 74670         ADD     Q1            INCREMENT COMMAND COUNTER                  CTRL0241
      00366  0621 00 0 72241         STA     COMCTR        ..                                         CTRL0242
      00367  0756 00 2 00000         PCA     ,2            POINTER TO COMMAND BUFFER FOR THIS COMMAND CTRL0243
      00370  0602 00 0 72432         SLW     CHNPTR        .. SAVE                                    CTRL0244
                                                                                                      CTRL0245
      00371  0535 00 1 74502  NEWCOM LAC     USER,1        PICK UP USER NO. IF NOT DONE ALREADY       CTRL0246
      00372  0441 00 0 74667         LDI     Q2            INDICATE WAITING CURRENT COMMAND           CTRL0247
      00373  0604 00 0 72433         STI     WATCOM        .. IN CASE USER HIT QUIT                   CTRL0248
      00374  0074 00 4 00523         TSX     CKQUIT,4      INSURE USER STILL WORKING                  CTRL0249
      00375  0600 00 0 72433         STZ     WATCOM        IF SO, RESET WAITING COMMAND SWITCH        CTRL0250
      00376  0560 00 0 01056         LDQ     =VO18/UCOMBT+UCHNBT+UCBFBT SET UP COMMAND SWITCHES       CTRL0251
      00377 -0600 00 0 74413         STQ     UCOMSW        .. FOR CHAINED COMMAND                     CTRL0252
      00400 -0620 00 1 75524         SLQ     USWICH,1      ..                                         CTRL0253
      00401 -0500 00 0 72432         CAL     CHNPTR        COPY COMMAND INTO UTILITY BUFFER           CTRL0254
      00402  0621 00 0 00404         STA     MV2           ..                                         CTRL0255
      00403 -0774 00 4 00000         AXC     0,4           START WITH WORD 0                          CTRL0256
      00404 -0500 00 4 00000  MV2    CAL     -,4           ..                                         CTRL0257
      00405  0602 00 4 74415         SLW     COMBUF,4      ..                                         CTRL0258
      00406  1 77777 4 00407         TXI     *+1,4,-1      ..                                         CTRL0259
      00407  3 77754 4 00404         TXH     MV2,4,-LCBUF  REPEAT TILL ALL COPIED                     CTRL0260
      00410 -0774 00 4 74415         AXC     COMBUF,4      SET UP POINTER TO BUFFER                   CTRL0261
      00411  0636 00 4 74441         SCA     COMPTR,4      ..                                         CTRL0262
      00412 -0500 00 4 00000         CAL     0,4           PICK UP COMMAND NAME FROM BUFFER           CTRL0263
      00413  0602 00 1 75575         SLW     COMMND,1      .. SAVE                                    CTRL0264
      00414  0602 00 0 74414         SLW     UCOMND        ..                                         CTRL0265
      00415  0020 00 0 00155         TRA     CMPROC        GO PROCESS COMMAND                         CTRL0266
                                                                                                      CTRL0267
      00416  0600 00 0 72241  ENDCHN STZ     COMCTR        HERE IF NO COMMAND LEFT IN CHAIN           CTRL0268
      00417  0600 00 0 72433         STZ     WATCOM        ..                                         CTRL0269
      00420  0074 00 4 00425         TSX     ENDUSR,4      .. GO SET USER DEAD OR DORMANT             CTRL0270
      00421  000000000004            VFD     O36/SB.CHN    ..                                         CTRL0271
1       M1416 3845  PETER R. BOS ...... CTSS MAIN CONTROL SECTION .......        02/04/71 2001.2 PAGE 6

                                                                                                      CTRL0273
                                             ..... ENTRY AT END OF COMMAND .....                      CTRL0274
                                                                                                      CTRL0275
      00422  0441 00 0 74671  DEAD   LDI     Q0            HERE TO PUT USER IN DEAD STATUS            CTRL0276
      00423  0020 00 0 00425         TRA     ENDUSR        ..                                         CTRL0277
                                                                                                      CTRL0278
      00424  0441 00 0 74670  DORMNT LDI     Q1            HERE TO PUT USER IN DORMANT STATUS         CTRL0279
                                                                                                      CTRL0280
      00425 -0520 00 0 74502  ENDUSR NZT     USER          IS USER THE BACKGROUND SYSTEM              CTRL0281
      00426  0600 00 0 74444         STZ     BKGKEY        INSURE REQUEST KEY SWITCH RESET IF SO      CTRL0282
      00427  0535 00 1 74502         LAC     USER,1        PICK UP USER NUMBER                        CTRL0283
      00430  0560 00 4 00001         LDQ     1,4           LOAD SUBSYSTEM CONDITION CODE              CTRL0284
      00431 -0773 00 0 00022         RQL     18            ..                                         CTRL0285
      00432 -0620 00 1 76163         SLQ     SUBSWS,1      SAVE FOR USER                              CTRL0286
      00433  3 77776 1 00436         TXH     *+3,1,-2      SKIP IF FIB                                CTRL0287
      00434  0520 00 0 72241         ZET     COMCTR        DAEMON GOES TO CHNCOM                      CTRL0288
      00435  3 77775 1 00347         TXH     CHNCOM,1,-3   .. IF CHAIN EXISTS                         CTRL0289
      00436 -0046 00 0 00000         PIA                   STATUS CODE TO AC                          CTRL0290
      00437 -0320 00 0 74670         ANA     Q1            INSURE PROPER FORMAT                       CTRL0291
      00440  0602 00 0 01033         SLW     TMP           .. SAVE                                    CTRL0292
      00441  0054 00  000001         RFT     1             IS STATUS TO BE 'DEAD'                     CTRL0293
      00442  0020 00 0 00452         TRA     ENDUS1        .. NO, SKIP                                CTRL0294
      00443  0600 00 0 72161         STZ     MEMBND        .. YES, RESET MEMORY SIZE                  CTRL0295
      00444  0074 00 4 00024         TSX     RESET,4       .. INSURE NO ACTIVE FILES                  CTRL0296
      00445  0520 00 1 76500         ZET     PROBN,1       .. IS USER LOGGED IN                       CTRL0297
      00446  0020 00 0 00452         TRA     ENDUS1        .. YES, SKIP                               CTRL0298
      00447  0600 00 0 72236         STZ     USRFIL        .. NOT LOGGED IN, DETACH HIM               CTRL0299
      00450  0074 00 4 00034         TSX     SETUFD,4      ..                                         CTRL0300
      00451  0761 00 0 00000         NOP                   .. IGNORE IMPOSSIBLE ERROR                 CTRL0301
      00452  0074 00 4 00523  ENDUS1 TSX     CKQUIT,4      INSURE USER STILL IN WORKING STATUS        CTRL0302
      00453                          ZETBIT  USROPT,1,,ENBBIT IS USER SUBSYSTEM TURNED ON             CTRL0303
      00455  0054 00  000040         RFT     SYSBIT        .. AND NOT INHIBITED                       CTRL0304
      00456  0020 00 0 00463         TRA     ENDSYS        .. NO                                      CTRL0305
      00457 -0500 60 0 00036         CAL*    SUBSYS        GET NAME OF SUBSYS COMMAND                 CTRL0306
      00460  0602 00 0 74414         SLW     UCOMND        SET IT UP                                  CTRL0307
      00461  0600 00 0 74413         STZ     UCOMSW        ..                                         CTRL0308
      00462  0020 00 0 00155         TRA     CMPROC        GO PROCESS COMMAND                         CTRL0309
                                                                                                      CTRL0310
      00463                   ENDSYS SCHEDL  Q2,USER,TMP   SET USER DEAD OR DORMANT                   CTRL0311
      00467                          STZBIT  USROPT,1,NINTBT INSURE BIT RESET                         CTRL0312
      00472  0600 00 1 75575         STZ     COMMND,1      RESET LAST USER COMMAND                    CTRL0313
      00473 -3 77776 1 00477         TXL     ENDUS3,1,-2   SKIP IF NOT FIB                            CTRL0314
      00474  0074 00 4 00017         TSX     KILL,4        FIB MAY NOT GO DEAD/DORMANT                CTRL0315
      00475  3 00001 0 74502         PAR     USER,,1       ..                                         CTRL0316
      00476  0020 00 0 00045         TRA     CYCLE         GO LOOK FOR NEW WORK                       CTRL0317
                                                                                                      CTRL0318
      00477  0441 00 1 76163  ENDUS3 LDI     SUBSWS,1      WAS CALL FOR ERROR                         CTRL0319
      00500 -0056 00  000010         LNT     SB.ERR        ..                                         CTRL0320
      00501  0020 00 0 00513         TRA     ENDUS4        .. NO                                      CTRL0321
      00502  0441 00 1 75524         LDI     USWICH,1      WAS USER IN COMMAND CHAIN                  CTRL0322
      00503 -0054 00  000200         LFT     UCHNBT        ..                                         CTRL0323
      00504 -0520 00 0 72241         NZT     COMCTR        IS CHAIN UNFINISHED                        CTRL0324
      00505  0020 00 0 00513         TRA     ENDUS4        .. NO                                      CTRL0325
      00506  0441 00 0 74670         LDI     Q1            INCOMPLETE COMMAND CHAIN                   CTRL0326
      00507  0604 00 0 72433         STI     WATCOM        MAKE RSTART GO TO CHNCOM                   CTRL0327
      00510                          TYPE    (/ TYPE RSTART TO IGNORE./)                              CTRL0328
1       M1416 3845  PETER R. BOS ...... CTSS MAIN CONTROL SECTION .......        02/04/71 2001.2 PAGE 7

                                                                                                      CTRL0329
      00513  0560 00 0 74671  ENDUS4 LDQ     Q0            RESET TYPEWRITER MODE                      CTRL0330
      00514 -0620 00 1 75524         SLQ     USWICH,1      .. TO 6-BIT                                CTRL0331
      00515  0074 00 4 00026         TSX     RSSRB,4       RESET USER INPUT BUFFER                    CTRL0332
      00516  3 00000 0 74502         PAR     USER          ..                                         CTRL0333
      00517  0074 00 4 00000         TSX     ADDTIM,4      UPDATE ALL TIME COUNTERS                   CTRL0334
      00520  0074 00 4 00023         TSX     RDYTIM,4      TELL USER HIS TIME USED                    CTRL0335
      00521  3 00000 0 74502         PAR     USER          ..                                         CTRL0336
      00522  0020 00 0 00045         TRA     CYCLE         AND GO LOOK FOR MORE WORK                  CTRL0337
1       M1416 3845  PETER R. BOS ...... CTSS MAIN CONTROL SECTION .......        02/04/71 2001.2 PAGE 8

                                                                                                      CTRL0339
                                             ..... ENTRY TO CHECK USER STILL WORKING .....            CTRL0340
                                                                                                      CTRL0341
      00523  0564 00 0 74671  CKQUIT ENB     Q0            ENTRY TO INSURE USER STILL WORKING         CTRL0342
      00524  0634 00 1 00530         SXA     CKQTX1,1      ..                                         CTRL0343
      00525  0535 00 1 74502         LAC     USER,1        PICK UP USER NUMBER                        CTRL0344
      00526 -0500 00 1 77726         CAL     STATUS,1      ..                                         CTRL0345
      00527  0402 00 0 74667         SUB     Q2            STATUS = 2, USER STILL WORKING             CTRL0346
      00530  0774 00 1 00000  CKQTX1 AXT     -,1           RESTORE X1                                 CTRL0347
      00531  0100 00 4 00001         TZE     1,4           RETURN TO CALLER IF USER WORKING           CTRL0348
      00532  0020 00 0 00045         TRA     CYCLE         OTHERWISE LOOK FOR MORE WORK               CTRL0349
1       M1416 3845  PETER R. BOS ...... CTSS MAIN CONTROL SECTION .......        02/04/71 2001.2 PAGE 9

                                                                                                      CTRL0351
                                             ..... MISCELLANEOUS ERROR PROCEDURES .....               CTRL0352
                                                                                                      CTRL0353
      00533 -0754 00 0 00000  CPYERR ZAC                   ERROR RETURN FROM CPYCOM                   CTRL0354
                                                                                                      CTRL0355
      00534  0600 00 0 01033  CHKERR STZ     TMP           CLEAR COMMAND NAME PRINT FLAG              CTRL0356
      00535                          ZETBIT  UCOMSW,,UCHNBT WAS USER IN COMMAND CHAIN                 CTRL0357
      00537 -0625 00 0 01033         STL     TMP           .. YES, SET FLAG                           CTRL0358
      00540  0734 00 4 00000         PAX     ,4            GET ERROR CODE TO X4                       CTRL0359
      00541 -3 00005 4 00543         TXL     *+2,4,NMESG   ..                                         CTRL0360
      00542  0774 00 4 00000         AXT     0,4           .. UNKNOWN ERROR CODE                      CTRL0361
      00543  0441 00 4 00730         LDI     MESG,4        PICK UP POINTER TO COMMENT                 CTRL0362
      00544  0054 00  200000         RFT     200000        IS COMMAND NAME PRINTING INHIBITED         CTRL0363
      00545  0600 00 0 01033         STZ     TMP           .. YES                                     CTRL0364
      00546  0054 00  400000         RFT     400000        IS COMMAND NAME TO PRINT IN ANY CASE       CTRL0365
      00547 -0625 00 0 01033         STL     TMP           .. YES, SET FLAG TO PRINT COMMAND NAME     CTRL0366
      00550 -0500 00 4 00730         CAL     MESG,4        ..                                         CTRL0367
      00551  0630 00 0 00731         STP     MSGPTR        PREFIX CODE (PZE, MZE FOR WRFLX)           CTRL0368
      00552  0622 00 0 00731         STD     MSGPTR        ..                                         CTRL0369
      00553 -0734 00 6 00000         PDX     ,6            WORD COUNT OF COMMENT                      CTRL0370
      00554 -3 00000 6 00601         TXL     CHNERR,6,0    SKIP IF ZERO LENGTH                        CTRL0371
      00555  0754 00 6 00000         PXA     ,6            COMPUTE BASE ADDRESS                       CTRL0372
      00556  0401 00 4 00730         ADM     MESG,4        .. FOR COPYING COMMENT                     CTRL0373
      00557  0621 00 0 00561         STA     *+2           ..                                         CTRL0374
      00560 -0774 00 7 00000         AXC     0,7           ..                                         CTRL0375
      00561 -0500 00 6 00000         CAL     -,6           COPY COMMENT INTO TEXT BUFFER              CTRL0376
      00562  0602 00 7 00735         SLW     CMESG+3,7     ..                                         CTRL0377
      00563  1 77777 7 00564         TXI     *+1,7,-1      ..                                         CTRL0378
      00564  2 00001 6 00561         TIX     *-3,6,1       ..                                         CTRL0379
      00565 -0500 00 0 74414         CAL     UCOMND        GET COMMAND NAME OF CURRENT USER COMMAND   CTRL0380
      00566  0074 00 4 00020         TSX     NBL,4         .. STRIP BLANKS                            CTRL0381
      00567  0602 00 0 00733         SLW     CMESG+1       INSERT COMMAND NAME INTO BUFFER            CTRL0382
      00570 -0500 00 0 00731         CAL     MSGPTR        PICK UP CANNED POINTER                     CTRL0383
      00571  0520 00 0 01033         ZET     TMP           ARE WE TO PRINT COMMAND NAME TOO           CTRL0384
      00572  0401 00 0 01055         ADM     =O2777775     .. YES                                     CTRL0385
      00573  0602 00 0 00575         SLW     *+2           .. INSERT IN CALL TO WRFLX                 CTRL0386
      00574  0074 00 4 00041         TSX     WRFLX,4       TYPE ERROR MESSAGE AT USER                 CTRL0387
      00575  0 00000 0 00000         ***     -,,-          ..                                         CTRL0388
      00576  0 00001 0 74502         PZE     USER,,.F.     ..                                         CTRL0389
      00577  0074 00 4 00030         TSX     RSTUFD,4      RESET USER TO PROPER U.F.D.                CTRL0390
      00600  0761 00 0 00000         NOP                   .. IGNORE POSSIBLE ERROR                   CTRL0391
                                                                                                      CTRL0392
      00601  0535 00 1 74502  CHNERR LAC     USER,1        ENTRY TO INTERRUPT CHAIN                   CTRL0393
      00602                          NZTBIT  USROPT,1,,SYSBIT+ENBBIT WAS THIS USER SUBSYSTEM          CTRL0394
      00604  0020 00 0 00620         TRA     CHNER1        .. NO, SKIP                                CTRL0395
      00605  0057 00  000050         RIR     SYSBIT+ENBBIT DISABLE IT                                 CTRL0396
      00606  0604 00 1 75770         STI     USROPT,1      ..                                         CTRL0397
      00607                          TYPE    (/ YOUR SUBSYSTEM STATUS IS RESET./)                     CTRL0398
      00612  0441 00 1 76041         LDI     RCODE,1       SEE IF USER IS SUBSYSTEM-RESTRICTED        CTRL0399
      00613  0054 00  001000         RFT     RSYSBT        ..                                         CTRL0400
      00614  0020 00 0 00620         TRA     CHNER1        .. NO                                      CTRL0401
      00615  0074 00 4 00017         TSX     KILL,4        RESTRICTED USER GETS ENDLOG ON SUBSYS ERRORCTRL0402
      00616  3 00001 0 74502         PAR     USER,,1       ..                                         CTRL0403
      00617  0020 00 0 00045         TRA     CYCLE         GO LOOK FOR MORE WORK                      CTRL0404
      00620  0074 00 4 00424  CHNER1 TSX     DORMNT,4      .. AND SET USER DORMANT                    CTRL0405
      00621  000000000010            VFD     O36/SB.ERR    ..                                         CTRL0406
1       M1416 3845  PETER R. BOS ...... CTSS MAIN CONTROL SECTION .......        02/04/71 2001.2 PAGE 10

                                                                                                      CTRL0407
      00622 -0500 00 0 74664  COMERR CAL     Q5            ' ERROR LOADING COMMAND.'                  CTRL0408
      00623  0020 00 0 00534         TRA     CHKERR        .. GO TO COMMON CODE                       CTRL0409
                                                                                                      CTRL0410
      00624 -0500 00 0 74665  ILLCOM CAL     Q4            ' ILLEGAL SEQUENCE OF COMMANDS.'           CTRL0411
      00625  0020 00 0 00534         TRA     CHKERR        ..                                         CTRL0412
1       M1416 3845  PETER R. BOS ...... CTSS MAIN CONTROL SECTION .......        02/04/71 2001.2 PAGE 11

                                                                                                      CTRL0414
                                             ..... ENTRY ON MANUAL RESTART .....                      CTRL0415
                                                                                                      CTRL0416
      00626  0564 00 0 74671  COLD   ENB     Q0            HERE ON COLD START, DISABLE ALL TRAPS      CTRL0417
      00627  0760 00 0 00016         LMTM                  INSURE RUNNING IN 7-TAG MODE               CTRL0418
      00630 -0760 00 0 00004         LFTM                  .. AND OUT OF TRAP MODE                    CTRL0419
      00631  0600 00 0 74526         STZ     ENBSW         INDICATE WE ARE NOT YET ENABLED            CTRL0420
      00632  0535 00 4 74502         LAC     USER,4        PICK UP USER NUMBER OF LOSER               CTRL0421
      00633  0500 00 4 76500         CLA     PROBN,4       GET PROB-PROG FOR COLD START COMMENT       CTRL0422
      00634  0560 00 4 76427         LDQ     PROGN,4       ..                                         CTRL0423
      00635 -0100 00 0 00640         TNZ     *+3           SKIP IF USER LOGGED IN                     CTRL0424
      00636  0500 00 0 74643         CLA     NULLS         NO USER LOGGED IN, BLANK OUT FIELD         CTRL0425
      00637  0560 00 0 74643         LDQ     NULLS         ..                                         CTRL0426
      00640 -0603 00 0 01027         DST     COLDMS+7      ..                                         CTRL0427
      00641  0560 00 0 74476         LDQ     TIMNOW        GET TIME OF DAY FOR COMMENT TO OPER.       CTRL0428
      00642  0074 00 4 00007         TSX     CTIME,4       CONVERT                                    CTRL0429
      00643  0602 00 0 01024         SLW     COLDMS+4      ..                                         CTRL0430
      00644  0560 00 0 74502         LDQ     USER          CONVERT USER NO. FOR PRINTING              CTRL0431
      00645  0074 00 4 00002         TSX     BTDC,4        ..                                         CTRL0432
      00646  0602 00 0 01032         SLW     COLDMS+10     .. ADD TO MESSAGE                          CTRL0433
      00647  0074 00 4 00011         TSX     EPRINT,4      PRINT COLD START MESSAGE TO OPERATOR       CTRL0434
      00650  0 00013 0 01020         PZE     COLDMS,,11    ..                                         CTRL0435
      00651  0074 00 4 00003         TSX     CHANLI,4      RE-INITIALIZE 7750 CHANNEL                 CTRL0436
      00652  0074 00 4 00022         TSX     RCLOCK,4      READ CHRONOLOG CLOCK AND UPDATE TIME       CTRL0437
      00653  0 00000 0 00000         PZE     0             ..                                         CTRL0438
      00654  0074 00 4 00035         TSX     STCLOC,4      RESTART INTERVAL TIMER                     CTRL0439
      00655 -0625 00 0 74526         STL     ENBSW         NOW INDICATE WE WILL BE ENABLED            CTRL0440
      00656  0074 00 4 00015         TSX     IORSET,4      INFORM FILE SYSTEM OF MACHINE RESET        CTRL0441
      00657  0564 00 0 77777         ENB     ENBWD         ENABLE FOR ALL TRAPS                       CTRL0442
      00660                          SETAB   LA,*,*        SETAB FOR CALLS FROM CORE A                CTRL0443
      00664  0074 00 4 00004         TSX     CHNGUS,4      RESET ANY ACTIVE FILES                     CTRL0444
      00665  3 00000 0 74670         PAR     Q1            ..                                         CTRL0445
      00666  0074 00 4 00025         TSX     RESETF,4      ..                                         CTRL0446
      00667  3 00000 0 00021         PAR     PRDIAG        ..                                         CTRL0447
      00670  0074 00 4 00004         TSX     CHNGUS,4      .. FOR BOTH USERS                          CTRL0448
      00671  3 00000 0 74667         PAR     Q2            ..                                         CTRL0449
      00672  0074 00 4 00025         TSX     RESETF,4      ..                                         CTRL0450
      00673  3 00000 0 00021         PAR     PRDIAG        ..                                         CTRL0451
      00674  0074 00 4 00014         TSX     IOFINI,4      CLOSE OUT FILE SYSTEM                      CTRL0452
      00675  0074 00 4 00001         TSX     ATTSYS,4      INSURE TSS ATTACHED TO SYSTEM FILES        CTRL0453
      00676  3 00000 0 00021         PAR     PRDIAG        .. POSSIBLE ERROR RETURN                   CTRL0454
      00677  0074 00 4 00026         TSX     RSSRB,4       RESET FOREGROUND USER INPUT BUFFER         CTRL0455
      00700  3 00000 0 74502         PAR     USER          ..                                         CTRL0456
      00701                          TYPEX   WRFLX,COLDCM,9,USER,.F.,0 TELL USER OF SYSTEM RESET      CTRL0457
      00704  0074 00 4 00422         TSX     DEAD,4        .. AND PLACE IN DEAD STATUS                CTRL0458
      00705  000000000010            VFD     O36/SB.ERR    ..                                         CTRL0459
1       M1416 3845  PETER R. BOS ...... CTSS MAIN CONTROL SECTION .......        02/04/71 2001.2 PAGE 12

                                                                                                      CTRL0461
                                             ..... ENTRY TO BRING DOWN CTSS .....                     CTRL0462
                                                                                                      CTRL0463
      00706  0074 00 4 00004  GODOWN TSX     CHNGUS,4      SET TSS TO BE DISK USER                    CTRL0464
      00707  3 00000 0 74670         PAR     Q1            ..                                         CTRL0465
      00710                          SETAB   LA,LA,LA      SET CORE SWITCHES                          CTRL0466
      00714  0074 00 4 00024         TSX     RESET,4       CLOSE ANY ACTIVE FILES                     CTRL0467
      00715  0074 00 4 00014         TSX     IOFINI,4      FINISH UP IN DISK ROUTINES                 CTRL0468
      00716  0074 00 4 00042         TSX     WRTOPR,4      PRINT MESSAGE TO OPERATOR                  CTRL0469
      00717  0 00007 0 01000         PZE     DOWN,,7       ..                                         CTRL0470
      00720  0600 60 0 00043         STZ*    $DOWNSW       RESET SWITCH                               CTRL0471
      00721  0564 00 0 74671         ENB     Q0            AND STOP DISABLED                          CTRL0472
      00722  0000 00 0 00722         HTR     *             ..                                         CTRL0473
1       M1416 3845  PETER R. BOS ...... CTSS MAIN CONTROL SECTION .......        02/04/71 2001.2 PAGE 13

                                                                                                      CTRL0475
                                             ..... STORAGE AND CONSTANTS .....                        CTRL0476
                                                                                                      CTRL0477
                       00723  TMESG  SYN     *             POINTER TO ERROR COMMENTS FOR CMPROC       CTRL0478
      00723  0 00004 0 00742         PZE     DSKER,,4      ' ERROR LOADING COMMAND.'                  CTRL0479
      00724  0 00005 0 00746         PZE     ILLCM,,5      ' ILLEGAL SEQUENCE OF COMMANDS.'           CTRL0480
      00725  0 00005 4 00753         PZE     LTPLS,4,5     ' NOT USABLE WHEN LOGGED IN.'              CTRL0481
      00726  0 00003 0 00760         PZE     LNPLS,,3      ' LOGIN PLEASE.'                           CTRL0482
      00727  0 00002 4 00763         PZE     NOCMD,4,2     ' NOT FOUND.'                              CTRL0483
      00730 -0 00002 2 00765  MESG   MZE     URK,2,2       ' URK..'                                   CTRL0484
                       00005  NMESG  EQU     MESG-TMESG    ..                                         CTRL0485
                                                                                                      CTRL0486
      00731  0 00000 0 00735  MSGPTR PZE     CMESG+3,,-    POINTER TO TEXT BUFFER                     CTRL0487
      00732 -201457575757     CMESG  OCT     601457575757,0,145757575757                              CTRL0488
      00733 +000000000000
      00734 +145757575757
      00735                          BSS     5             .. BUFFER FOR ERROR COMMENT                CTRL0489
                                                                                                      CTRL0490
      00742  602551514651     DSKER  BCI     / ERROR LOADING COMMAND./                                CTRL0492
      00746  603143432527     ILLCM  BCI     / ILLEGAL SEQUENCE OF COMMANDS./                         CTRL0493
      00753  604546636064     LTPLS  BCI     / NOT USABLE WHEN LOGGED IN./                            CTRL0494
      00760  604346273145     LNPLS  BCI     / LOGIN PLEASE./                                         CTRL0495
      00763  604546636026     NOCMD  BCI     / NOT FOUND./                                            CTRL0496
      00765  006001640151     URK    12BIT   / URK../                                                 CTRL0497
      00767  602143436026     DONE   BCI     / ALL FOREGROUND USERS LOGGED OUT. DO NOT CLEAR CORE./   CTRL0498
      01000  602363626260     DOWN   BCI     / CTSS IS FINISHED. YOU MAY NOW CLEAR CORE./             CTRL0499
      01007  602544255127     COLDCM BCI     / EMERGENCY RESTART, YOUR PROGRAM STATUS IS RESET./      CTRL0500
      01020  602544255127     COLDMS BCI     / EMERGENCY RESTART AT /                                 CTRL0501
      01024  303044443344            BCI     /HHMM.M, USER IS /                                       CTRL0502
      01027  604751462245            BCI     / PROBN  PROG LINE 000000/                               CTRL0503
      01033  0 00000 0 00000  TMP    PZE                   TEMPORARY                                  CTRL0504
      01034  0 00000 0 00000  DONESW PZE                   NON-ZERO IF ALL USERS LOGGED OUT           CTRL0505
      01035  0 00000 0 00000  COMDSW PZE                   ZERO AFTER SWAP IF USER WAITING FOR COMMANDCTRL0506
      01036                   COMD   BSS     2             COMMAND NAME (USED BY CMPROC)              CTRL0507
      01040  000000000100     COMDOP VFD     O18/0,O18/L.MEM OPTIONS FOR ULOAD                        CTRL0508
                                                                                                      CTRL0509
      01041                          RMT     *             REMOTE SEQUENCES                           CTRL0511
      01041  606370472560     ..001  BCI     / TYPE RSTART TO IGNORE./                                CTRL0511.001
      01045  607046645160     ..003  BCI     / YOUR SUBSYSTEM STATUS IS RESET./                       CTRL0511.001
                                                                                                      CTRL0512
                                     END                                                              CTRL0514

        LITERALS
      01053  000000000015
      01054  000000001000
      01055  000002777775
      01056  001300000000
1       M1416 3845  PETER R. BOS ...... CTSS MAIN CONTROL SECTION .......        02/04/71 2001.2 PAGE 1
                        POST PROCESSOR ASSEMBLY DATA

       72127 IS THE LAST LOCATION NOT USED BY THIS PROGRAM
       1057 IS THE FIRST LOCATION NOT USED BY THIS PROGRAM

0REFERENCES TO DEFINED SYMBOLS
      74653     LA   126,  206,  661,  711,  712,  713
      74652     LB   127,  130,  207,  210
      74654     M0   662,  663
      74671     Q0    52,   53,   72,   73,  105,  111,  137,  146,  422,  513,  523,  626,  721
      74670     Q1   365,  424,  437,  506,  665,  707
      74667     Q2   124,  135,  204,  330,  372,  464,  527,  671
      74666     Q3   103,  141
      74665     Q4   107,  624
      74664     Q5   144,  622
      72162    ILC   304,  311
          1    .F.   512,  576,  611,  703
        300    MV1   276,  303
        404    MV2   402,  407
         20    NBL   566
      74657    Q10    71
       1033    TMP   440,  466,  534,  537,  545,  547,  571
        765    URK   730
          2   BTDC   645
        626   COLD     0
       1036   COMD   322,  333,  334
        422   DEAD     0,  704
        767   DONE    66
       1000   DOWN   717
         10   DUMP   115
      72201   FLMD   240
          1   .ATR   341
       4000   .CLC   266
         10   .CPY   273
          2   .DSK   314
       2000   .SAV   170,  312
       1000   .UFL   320,  326
         17   KILL   474,  615
        730   MESG   543,  550,  556,  731
      72200   MTMD   241
      74616   SWAP    75
      74502   USER   100,  104,  110,  117,  136,  145,  157,  251,  371,  425,  427,  465,  475,  512,  516,  521,  525
                     576,  601,  611,  616,  632,  644,  700,  703
        732  CMESG   562,  567,  731
      74474  COMSW   156
          7  CTIME   642
         45  CYCLE     0,  476,  522,  532,  617
        742  DSKER   723
      74526  ENBSW   631,  655
      77777  ENBWD    45,   54,   74,  163,  252,  347,  657
      72434  FSBCT   173,  253
        746  ILLCM   724
       1041  ..001   511, 1045
          4  ..002   511, 1045
       1045  ..003   610, 1053
          6  ..004   610, 1053
1       M1416 3845  PETER R. BOS ...... CTSS MAIN CONTROL SECTION .......        02/04/71 2001.2 PAGE 2
                        POST PROCESSOR ASSEMBLY DATA

         24  LCBUF   303,  407
        100  L.MEM  1040
      74644  LMASK   200
        760  LNPLS   726
        753  LTPLS   725
          5  NMESG   541,  731
        763  NOCMD   727
      74643  NULLS   636,  637
      76500  PROBN   244,  445,  633
      76427  PROGN   634
      76041  RCODE   255,  612
         24  RESET   215,  444,  714
         26  RSSRB   515,  677
      74636  SAVED   321
         32  SETAB   125,  205,  660,  710
      74475  SWPSW   114,  122
        723  TMESG   723,  731
         37  ULOAD   331
        113  URUN1   101
        136  URUN2   112
        346  URUN3   150
         41  WRFLX   510,  574,  607,  701
          0 ADDTIM    67,  113,  121,  155,  517
          1 ATTSYS   323,  675
      74454 AUTOND    56
      74444 BKGKEY   160,  426
          5 CDEPTH   354
          3 CHANLI   651
        534 CHKERR   166,  623,  625
        347 CHNCOM     0,  435
        620 CHNER1   604,  614
        601 CHNERR     0,  554
          4 CHNGUS   123,  203,  327,  664,  670,  706
      72432 CHNPTR   370,  401
        530 CKQTX1   524
        523 CKQUIT     0,  343,  374,  452
         24 CLNGTH   362
        203 CMPRC1   171
        253 CMPRC2   174,  202
        272 CMPRC3   264,  267
        304 CMPRC4   274
        336 CMPRC5   315
        155 CMPROC     0,  415,  462
       1007 COLDCM   702
       1020 COLDMS   640,  643,  646,  650
      74415 COMBUF   405,  410
      72241 COMCTR   270,  352,  366,  416,  434,  504
       1040 COMDOP   332
       1035 COMDSW   142,  147
        622 COMERR   335
      75575 COMMND   151,  345,  413,  472
      74441 COMPTR   275,  411
          5 COMSCH   165
          6 CPYCOM   161
        533 CPYERR   162
1       M1416 3845  PETER R. BOS ...... CTSS MAIN CONTROL SECTION .......        02/04/71 2001.2 PAGE 3
                        POST PROCESSOR ASSEMBLY DATA

         56 CYCLE0    47
         67 CYCLE1    57,   61,   63
       1034 DONESW    60,   64
        424 DORMNT     0,  620
         43 DOWNSW    46,  720
         10 ENBBIT   454,  603,  605
        416 ENDCHN   354,  355,  357,  364
        463 ENDSYS     0,  456
        452 ENDUS1   442,  446
        477 ENDUS3   473
        513 ENDUS4   501,  505
        425 ENDUSR     0,  420,  423
         11 EPRINT   647
         12 FILRST   175
         44 GE.USR   221,  223
         13 GETUFD   164
        706 GODOWN     0,   55
        624 ILLCOM     0
         14 IOFINI   674,  715
         15 IORSET   656
         16 IOSTRT   134
      72156 MACOND   242
      72161 MEMBND   131,  172,  213,  233,  351,  443
        731 MSGPTR   551,  552,  570
        371 NEWCOM     0
      74626 NEWUSR    77,  116
        400 NINTBT   470
      74532 NUSERS    62
      72214 OLDILC   305,  313
         21 PRDIAG   324,  667,  673,  676
         22 RCLOCK   652
         23 RDYTIM   520
         25 RESETF   132,  216,  666,  672
         27 RSTCPU    76,  346
          4 RSTFBT   212
         30 RSTUFD   336,  577
       1000 RSYSBT   613
      72225 SAVEM1   233,  234
          4 SB.CHN   421
         10 SB.ERR   500,  621,  705
         31 SCHEDL    50,   70,  102,  106,  143,  463
         33 SETSWS   250
         34 SETUFD   450
      77726 STATUS   140,  526
         35 STCLOC   654
      72266 SUBCOM   360
      76163 SUBSWS   432,  477
         36 SUBSYS   457
         40 SYSBIT   231,  257,  455,  603,  605
      74476 TIMNOW   641
      74637 TSSDC.   317
      72233 TSSFSW   243
        200 UCHNBT   263,  503,  536
        400 UCMLBT   225
      72242 UCOMBF   301
1       M1416 3845  PETER R. BOS ...... CTSS MAIN CONTROL SECTION .......        02/04/71 2001.2 PAGE 4
                        POST PROCESSOR ASSEMBLY DATA

        100 UCOMBT   226
      74414 UCOMND   152,  344,  414,  460,  565
      74413 UCOMSW   154,  224,  262,  377,  461,  535
         40 UNDUMP   120
      72232 URCODE   261
      72236 USRFIL   245,  447
      75770 USROPT   201,  211,  230,  232,  247,  254,  453,  467,  471,  602,  606
      75524 USWICH   153,  400,  502,  514
      72433 WATCOM   271,  373,  375,  417,  507
         42 WRTOPR    65,  716

0 NO ERROR IN ABOVE ASSEMBLY.


SAVC8C   BCD 03/04/70 1439.3    7051         00000
1      M1416 3845  PETER R. BOS ......... SYSTEM TRANSFER COMMANDS .........     03/04/70 1354.5 PAGE 1

                                     PCC     ON                                                       SAVC0002
                                     NOLNK                                                            SAVC0003
                       00025         ENTRY   ENDLG.        TSS ENDLOG COMMAND                         SAVC0004
                       00050         ENTRY   SBSYS.        TSS SUBSYS COMMAND                         SAVC0005
                       00134         ENTRY   SAVE.         TSS SAVE COMMAND                           SAVC0006
                       00136         ENTRY   MSAVE.        TSS MYSAVE COMMAND                         SAVC0007
                       00224         ENTRY   DO.           TSS DO COMMAND                             SAVC0008
                       00303         ENTRY   RSTOR.        TSS RESTOR COMMAND                         SAVC0009
                       00305         ENTRY   RSUME.        TSS RESUME COMMAND                         SAVC0010
                       00320         ENTRY   RCALL.        TSS RECALL COMMAND                         SAVC0011
                       00322         ENTRY   CNTIN.        TSS CONTIN COMMAND                         SAVC0012
                       00367         ENTRY   RSTRT.        TSS RSTART COMMAND                         SAVC0013
                       00374         ENTRY   START.        TSS START COMMAND                          SAVC0014
                       00403         ENTRY   RSETF.        TSS RESETF COMMAND                         SAVC0015
                                     LBL     SAVC0000                                                 SAVC0016
                                     PCC     OFF                                                      SAVC0017
                                                                                                      SAVC0018
                                     EXTERN  ATTFIL,CHNCOM,CHNERR,CHNGUS,CMPROC                       SAVC0019
                                     EXTERN  DORMNT,GETUFD,ILLCOM,NEWCOM,OTOLOG                       SAVC0020
                                     EXTERN  PRDIAG,RESETF,RSTCPU,SETUSR,UDUMP                        SAVC0021
                                     EXTERN  ULOAD,WRFLX,ZBL                                          SAVC0022
                                                                                                      SAVC0023
                                     UNLIST                                                           SAVC0024

                                                                                                      SAVC0030
                                                                                                      SAVC0031
      00025                   ENDLG. TYPE    (/ AUTOMATIC LOGOUT./)  TELL USER THIS IS AUTOLOGOUT     SAVC0032
      00030  0535 00 1 74502         LAC     USER,1        GET USER NO.                               SAVC0033
      00031 -0520 00 0 72161         NZT     MEMBND        CREATE SAVED FILE ONLY IF CORE IMAGE       SAVC0034
      00032  0520 00 0 72433         ZET     WATCOM        .. OR WAITING COMMAND IN CHAIN             SAVC0035
      00033  0020 00 0 00035         TRA     *+2           .. BY POPULAR DEMAND                       SAVC0036
      00034  0020 00 0 00045         TRA     ENDLG1        ..                                         SAVC0037
      00035 -0500 00 1 76427         CAL     PROGN,1       FUDGE UP A SAVED FILE NAME                 SAVC0038
      00036  0767 00 0 00006         ALS     6             .. 'PROG'L                                 SAVC0039
      00037 -0501 00 0 00436         ORA     =H00000L      ..                                         SAVC0040
      00040  0602 00 0 00412         SLW     SN1           SAVE FILE NAME                             SAVC0041
      00041 -0625 00 0 00413         STL     MSW           INDICATE SAVE IN USER UFD                  SAVC0042
      00042  0074 00 4 00170         TSX     SAVE,4        CREATE SAVED FILE                          SAVC0043
      00043  0 00001 0 00412         PZE     SN1,,1        .. IN TEMP. MODE                           SAVC0044
      00044  0761 00 0 00000         NOP                   .. IGNORE ERROR                            SAVC0045
      00045 -0500 60 0 00011  ENDLG1 CAL*    OTOLOG        SET UP CHAIN TO OTOLOG                     SAVC0046
      00046  0602 00 0 74414         SLW     UCOMND        ..                                         SAVC0047
      00047  0020 00 0 00004         TRA     CMPROC        .. FINISH UP AUTOLOGOUT                    SAVC0048
                                                                                                      SAVC0049
      00050  0535 00 1 74502  SBSYS. LAC     USER,1        HERE FOR 'SUBSYS' COMMAND                  SAVC0050
      00051  0441 00 1 75770         LDI     USROPT,1      PICK UP USER STANDARD OPTIONS              SAVC0051
      00052  0054 00  000100         RFT     SAVEBT        DOES USER SUBSYSTEM WISH SAVED FILE        SAVC0052
      00053  0054 00  000040         RFT     SYSBIT        AND IS THIS NON-SUBSYSTEM CORE IMAGE       SAVC0053
      00054  0020 00 0 00065         TRA     SBSYS1        .. NO                                      SAVC0054
      00055 -0520 00 0 72161         NZT     MEMBND        CREATE SAVED FILE ONLY IF CORE IMAGE LEFT  SAVC0055
      00056  0520 00 0 72241         ZET     COMCTR        .. OR INCOMPLETE COMMAND CHAIN             SAVC0056
      00057  0020 00 0 00061         TRA     *+2           ..                                         SAVC0057
      00060  0020 00 0 00065         TRA     SBSYS1        .. ELSE, SKIP SAVE                         SAVC0058
      00061 -0625 00 0 00413         STL     MSW           SIMULATE 'MYSAVE PROGN T'                  SAVC0059
      00062  0074 00 4 00170         TSX     SAVE,4        CREATE SAVED FILE                          SAVC0060
      00063  0 00001 1 76427         PZE     PROGN,1,1     .. IN TEMPORARY MODE                       SAVC0061
1      M1416 3845  PETER R. BOS ......... SYSTEM TRANSFER COMMANDS .........     03/04/70 1354.5 PAGE 2

      00064  0761 00 0 00000         NOP                   IGNORE POSSIBLE ERROR                      SAVC0062
                                                                                                      SAVC0063
      00065  0441 00 0 74413  SBSYS1 LDI     UCOMSW        MAIN BODY OF SUBSYSTEM PROCESSOR           SAVC0064
      00066 -0056 00  000100         LNT     UCOMBT        WAS SUBSYS ISSUED BY USER                  SAVC0065
      00067  0020 00 0 00073         TRA     *+4           .. NO, SKIP                                SAVC0066
      00070  0560 00 0 74671         LDQ     Q0            .. YES, SET CONDITION CODE TO 0            SAVC0067
      00071 -0620 00 1 76163         SLQ     SUBSWS,1      ..                                         SAVC0068
      00072  0020 00 0 00120         TRA     SBSYS4        LOAD SUBSYSTEM UNCONDITIONALLY             SAVC0069
                                                                                                      SAVC0070
      00073 -0520 00 1 76234         NZT     SUBNAM,1      CHECK IF USER HAS SUBSYSTEM                SAVC0071
      00074  0020 00 0 00103         TRA     SBSYS2        SKIP IF NO SUBSYSTEM SET UP                SAVC0072
      00075  0441 00 1 76163         LDI     SUBSWS,1      LOAD SUBSYSTEM CONDITION SWITCHES          SAVC0073
      00076 -0500 00 1 76163         CAL     SUBSWS,1      ..                                         SAVC0074
      00077  0771 00 0 00011         ARS     9             SHIFT TO POSITION                          SAVC0075
      00100 -0520 00 0 72161         NZT     MEMBND        ..                                         SAVC0076
      00101  0771 00 0 00011         ARS     9             ..                                         SAVC0077
      00102  0042 00 0 00113         TIO     SBSYS3        IF CONDITION MET, LOAD IT                  SAVC0078
                                                                                                      SAVC0079
      00103  0441 00 0 74413  SBSYS2 LDI     UCOMSW        HERE IF NO SUBSYSTEM LOADING               SAVC0080
      00104 -0056 00  000100         LNT     UCOMBT        WAS SUBSYS USER-ISSUED                     SAVC0081
      00105 -0056 00  000400         LNT     UCMLBT        .. NO, DID USER ISSUE A COMMAND            SAVC0082
      00106  0020 00 0 00022         TRA     $ENDSYS       .. NO, EXIT                                SAVC0083
      00107 -0500 60 0 74441         CAL*    COMPTR        .. YES, GET COMMAND TYPED                  SAVC0084
      00110 -0055 00  000100         SIL     UCOMBT        INDICATE COMMAND ISSUED BY USER            SAVC0085
      00111  0604 00 0 74413         STI     UCOMSW        ..                                         SAVC0086
      00112  0020 00 0 00132         TRA     SBSYS5        GO PROCESS NEW COMMAND                     SAVC0087
                                                                                                      SAVC0088
      00113  0441 00 1 75770  SBSYS3 LDI     USROPT,1      HERE TO START UP SUBSYSTEM                 SAVC0089
      00114  0056 00  000040         RNT     SYSBIT        IS CURRENT USER PROGRAM SUBSYSTEM          SAVC0090
      00115  0020 00 0 00120         TRA     SBSYS4        .. NO, GO LOAD SUBSYSTEM                   SAVC0091
      00116 -0500 60 0 00023         CAL*    $START        .. YES, RESTART IT                         SAVC0092
      00117  0020 00 0 00132         TRA     SBSYS5        GO PROCESS NEW COMMAND                     SAVC0093
                                                                                                      SAVC0094
      00120  0441 00 1 75770  SBSYS4 LDI     USROPT,1      HERE TO LOAD SUBSYSTEM FOR USER            SAVC0095
      00121  0055 00  000040         SIR     SYSBIT        INDICATE USER PROGRAM WILL BE SUBSYSTEM    SAVC0096
      00122  0604 00 1 75770         STI     USROPT,1      ..                                         SAVC0097
      00123  0441 00 0 74413         LDI     UCOMSW        INDICATE NEXT COMMAND                      SAVC0098
      00124 -0057 00  000100         RIL     UCOMBT        .. INITIATED BY SYSTEM                     SAVC0099
      00125  0604 00 0 74413         STI     UCOMSW        ..                                         SAVC0100
      00126 -0500 00 0 74654         CAL     M0            SET CORE IMAGE BIT                         SAVC0101
      00127  0520 00 0 72161         ZET     MEMBND        ..                                         SAVC0102
      00130 -0602 00 1 76163         ORS     SUBSWS,1      .. IF USER HAS CORE IMAGE                  SAVC0103
      00131 -0500 00 1 76234         CAL     SUBNAM,1      GET NAME OF USER SUBSYSTEM COMMAND         SAVC0104
                                                                                                      SAVC0105
      00132  0602 00 0 74414  SBSYS5 SLW     UCOMND        SET UP NEW COMMAND TO RUN                  SAVC0106
      00133  0020 00 0 00004         TRA     CMPROC        EXIT TO COMMAND PROCESSOR                  SAVC0107
                                                                                                      SAVC0108
      00134  0600 00 0 00413  SAVE.  STZ     MSW           SAVE COMMAND, CURRENT UFD                  SAVC0109
      00135  0020 00 0 00137         TRA     MSAVE.+1      ..                                         SAVC0110
                                                                                                      SAVC0111
      00136 -0625 00 0 00413  MSAVE. STL     MSW           MYSAVE COMMAND, RESET TO OWN UFD           SAVC0112
      00137  0535 00 1 74502         LAC     USER,1        GET USER NO.                               SAVC0113
      00140 -0500 00 1 76427         CAL     PROGN,1       THIS IS FILE NAME IF NOT GIVEN             SAVC0114
      00141  0602 00 0 00412         SLW     SN1           ..                                         SAVC0115
      00142 -0634 00 0 00157         ZSD     MODE          MODE IS '0' IF NOT SPECIFIED               SAVC0116
      00143  0535 00 2 74441         LAC     COMPTR,2      LOAD POINTER TO COMMAND BUFFER             SAVC0117
1      M1416 3845  PETER R. BOS ......... SYSTEM TRANSFER COMMANDS .........     03/04/70 1354.5 PAGE 3

      00144 -0500 00 2 00001         CAL     1,2           GET FIRST ARGUMENT                         SAVC0118
      00145 -0340 00 0 74641         LAS     FENCE         CHECK FOR FENCE                            SAVC0119
      00146  0020 00 0 00150         TRA     *+2           ..                                         SAVC0120
      00147  0020 00 0 00156         TRA     SAVE.1        YES, SKIP                                  SAVC0121
      00150  0602 00 0 00412         SLW     SN1           NO, SAVE FILE NAME                         SAVC0122
      00151 -0500 00 2 00002         CAL     2,2           CHECK FOR 'T' ARGUMENT                     SAVC0123
      00152  0322 00 0 00442         ERA     =H     T      ..                                         SAVC0124
      00153 -0100 00 0 00156         TNZ     SAVE.1        NOT T, SKIP                                SAVC0125
      00154  0774 00 4 00001         AXT     1,4           'T' SPECIFIED, USE TEMP. MODE              SAVC0126
      00155 -0634 00 4 00157         SXD     MODE,4        ..                                         SAVC0127
      00156  0074 00 4 00170  SAVE.1 TSX     SAVE,4        CREATE SAVED FILE                          SAVC0128
      00157  0 00000 0 00412  MODE   PZE     SN1,,-        ..                                         SAVC0129
      00160  0020 00 0 00365         TRA     LER1          .. POSSIBLE ERROR                          SAVC0130
                                                                                                      SAVC0131
      00161                   SVRET  NZTBIT  UCOMSW,,UCHNBT DID COMMAND COME VIA CHNCOM               SAVC0132
      00163  0020 00 0 00166         TRA     SVRET1        .. NO, SKIP                                SAVC0133
      00164  0441 00 0 74670         LDI     Q1            .. YES, CONTINUE CHAIN                     SAVC0134
      00165  0020 00 0 00001         TRA     CHNCOM        ..                                         SAVC0135
      00166  0074 00 4 00005  SVRET1 TSX     DORMNT,4      GO DORMANT                                 SAVC0136
      00167  000000000002            VFD     O36/SB.TSX    ..                                         SAVC0137
                                                                                                      SAVC0138
                                                                                                      SAVC0139
      00170  0634 00 4 00220  SAVE   SXA     SVX4,4        ROUTINE TO CREATE SAVED FILE               SAVC0140
      00171 -0500 60 4 00001         CAL*    1,4           PICK UP SAVED FILE NAME                    SAVC0141
      00172  0602 00 0 00412         SLW     SN1           .. SAVE                                    SAVC0142
      00173 -0500 00 4 00001         CAL     1,4           PICK UP DESIRED FILE MODE                  SAVC0143
      00174  0622 00 0 00214         STD     SVMD          ..                                         SAVC0144
      00175  0074 00 4 00006         TSX     GETUFD,4      PICK UP CURRENT USRFIL NAME                SAVC0145
      00176 -0520 00 0 00413         NZT     MSW           IS FILE TO BE CREATED IN CURRENT UFD       SAVC0146
      00177  0020 00 0 00202         TRA     *+3           .. YES, SKIP                               SAVC0147
      00200 -0500 00 1 76500         CAL     PROBN,1       .. NO, GET USER OWN UFD NAME               SAVC0148
      00201  0560 00 1 76305         LDQ     UFDNM,1       ..                                         SAVC0149
      00202  0074 00 4 00000         TSX     ATTFIL,4      ATTACH HIM THERE                           SAVC0150
      00203  0020 00 0 00222         TRA     SVERR         .. POSSIBLE ERROR                          SAVC0151
      00204                          CALL    SETUSR(Q2,(RCODE,1),M0,PRIND,RLIND,M0)  ..               SAVC0152
      00213  0074 00 4 00016         TSX     UDUMP,4       DUMP USER ON DISK                          SAVC0153
      00214  3 00000 0 00414  SVMD   PAR     SVOPT,,-      ..                                         SAVC0154
      00215  3 00000 0 00412         PAR     SN1           ..                                         SAVC0155
      00216  3 00000 0 74636         PAR     SAVED         ..                                         SAVC0156
      00217  3 00222 0 00220         PAR     *+1,,SVERR    .. IGNORE NON-FATAL ERROR                  SAVC0157
      00220  0774 00 4 00000  SVX4   AXT     -,4           RESTORE LINKAGE                            SAVC0158
      00221  0020 00 4 00003         TRA     3,4           RETURN                                     SAVC0159
                                                                                                      SAVC0160
      00222  0534 00 4 00220  SVERR  LXA     SVX4,4        RESTORE LINKAGE                            SAVC0161
      00223  0020 00 4 00002         TRA     2,4           GIVE ERROR RETURN                          SAVC0162
1      M1416 3845  PETER R. BOS ......... SYSTEM TRANSFER COMMANDS .........     03/04/70 1354.5 PAGE 4

                                                                                                      SAVC0164
      00224 -0625 00 0 00410  DO.    STL     RUNSW         TSS DO COMMAND, INDICATE WANT TO RUN       SAVC0165
      00225 -0625 00 0 00411         STL     CHNSW         ALLOW CHNCOM IF NOT RUNNABLE               SAVC0166
      00226 -0500 00 0 74441         CAL     COMPTR        GET COMMAND POINTER                        SAVC0167
      00227  0737 00 2 00000         PAC     ,2            ..                                         SAVC0168
      00230  0621 00 0 00232         STA     *+2           ..                                         SAVC0169
      00231 -0774 00 4 00002         AXC     2,4           COPY COMMAND, MOVED DOWN TWO WORDS         SAVC0170
      00232 -0500 00 4 00000         CAL     -,4           ..                                         SAVC0171
      00233  0602 00 4 72240         SLW     UCOMBF-2,4    ..                                         SAVC0172
      00234  1 77777 4 00235         TXI     *+1,4,-1      ..                                         SAVC0173
      00235  3 77754 4 00232         TXH     *-3,4,-LCBUF  ..                                         SAVC0174
      00236  0535 00 1 74502         LAC     USER,1        GET USER NO.                               SAVC0175
      00237  0560 00 0 00415         LDQ     LDOPT0        PICK UP LOAD OPTIONS FOR DO                SAVC0176
      00240 -0500 00 2 00001         CAL     1,2           LOOK AT COMFIL NUMBER                      SAVC0177
      00241 -0340 00 0 74641         LAS     FENCE         CHECK FOR NOT SPECIFIED                    SAVC0178
      00242  0020 00 0 00244         TRA     *+2           ..                                         SAVC0179
      00243  0020 00 0 00332         TRA     LOAD2         ASSUME 'DO * PROGN'                        SAVC0180
      00244 -0340 00 0 00441         LAS     =H     *      DOES USER WANT LOAD FROM CURRENT UFD       SAVC0181
      00245  0020 00 0 00247         TRA     *+2           .. NO                                      SAVC0182
      00246  0020 00 0 00270         TRA     DO.1          .. YES                                     SAVC0183
      00247  0074 00 4 00021         TSX     ZBL,4         STRIP LEADING BLANKS                       SAVC0184
      00250 -0320 00 0 00440         ANA     =O7777        SAVE ONLY TWO CHARACTERS                   SAVC0185
      00251  0100 00 0 00272         TZE     DO.2          DO 0 MEANS OWN DIRECTORY                   SAVC0186
      00252  0441 00 1 76041         LDI     RCODE,1       CHECK FOR DISK-RESTRICTED USER             SAVC0187
      00253  0054 00  000200         RFT     RDSKBT        ..                                         SAVC0188
      00254  0020 00 0 00277         TRA     NODO          .. MAY ONLY USE 'DO 0' OR 'DO *'           SAVC0189
      00255 -0340 00 0 00437         LAS     =H00000P      IS THIS COMFIL P                           SAVC0190
      00256  0020 00 0 00260         TRA     *+2           ..                                         SAVC0191
      00257  0020 00 0 00274         TRA     DO.3          .. YES, GO PICK UP TSSFID                  SAVC0192
      00260  0056 00  000001         RNT     RCOMBT        SEE IF USER ALLOWED IN COMMON FILES        SAVC0193
      00261  0020 00 0 00277         TRA     NODO          .. NO, ERROR                               SAVC0194
      00262 -0501 00 0 74640         ORA     CMFL00        FORM FILE DIRECTORY NAME2                  SAVC0195
      00263 -0130 00 0 00000         XCL                   ..                                         SAVC0196
      00264 -0500 00 1 76500         CAL     PROBN,1       .. AND NAME1                               SAVC0197
      00265  0074 00 4 00000  DO.0   TSX     ATTFIL,4      ATTACH TO SPECIFIED COMFIL                 SAVC0198
      00266  0020 00 0 00002         TRA     CHNERR        .. POSSIBLE ERROR RETURN                   SAVC0199
      00267  0560 00 0 00415         LDQ     LDOPT0        RELOAD OPTION FLAGS FOR ULOAD              SAVC0200
      00270 -0500 00 2 00002  DO.1   CAL     2,2           PICK UP SAVED FILE NAME                    SAVC0201
      00271  0020 00 0 00330         TRA     LOAD1         .. SKIP TO COMMON CODE                     SAVC0202
                                                                                                      SAVC0203
      00272  0560 00 1 76305  DO.2   LDQ     UFDNM,1       HERE FOR DO 0 ...                          SAVC0204
      00273  0020 00 0 00264         TRA     DO.0-1        REJOIN COMMON CODE                         SAVC0205
                                                                                                      SAVC0206
      00274 -0500 00 0 72130  DO.3   CAL     TSSFID        HERE FOR 'DO P ...'                        SAVC0207
      00275  0560 00 0 72131         LDQ     TSSFID+1      PICK UP TSSFIL NAME                        SAVC0208
      00276  0020 00 0 00265         TRA     DO.0          GO TO ATTFIL                               SAVC0209
                                                                                                      SAVC0210
      00277                   NODO   TYPE    (/ USER MAY NOT USE COMMON FILES./)                      SAVC0211
      00302  0020 00 0 00002         TRA     CHNERR        GO PUT HIM IN DORMANT STATUS               SAVC0212
                                                                                                      SAVC0213
      00303  0600 00 0 00410  RSTOR. STZ     RUNSW         RESTOR COMMAND, INDICATE DORMANT AFTER LOADSAVC0214
      00304  0020 00 0 00306         TRA     RSUME.+1      .. SKIP                                    SAVC0215
                                                                                                      SAVC0216
      00305 -0625 00 0 00410  RSUME. STL     RUNSW         RESUME COMMAND, INDICATE DESIRE TO RUN     SAVC0217
      00306 -0625 00 0 00411         STL     CHNSW         .. GO TO CHNCOM AT END                     SAVC0218
      00307 -0500 00 0 74441         CAL     COMPTR        COPY COMMAND BUFFER FOR USER               SAVC0219
1      M1416 3845  PETER R. BOS ......... SYSTEM TRANSFER COMMANDS .........     03/04/70 1354.5 PAGE 5

      00310  0621 00 0 00312         STA     *+2           ..                                         SAVC0220
      00311 -0774 00 4 00001         AXC     1,4           .. MOVED DOWN ONE WORD                     SAVC0221
      00312 -0500 00 4 00000         CAL     -,4           ..                                         SAVC0222
      00313  0602 00 4 72241         SLW     UCOMBF-1,4    ..                                         SAVC0223
      00314  1 77777 4 00315         TXI     *+1,4,-1      ..                                         SAVC0224
      00315  3 77754 4 00312         TXH     *-3,4,-LCBUF  ..                                         SAVC0225
      00316  0560 00 0 00416         LDQ     LDOPT1        PICK UP ULOAD OPTIONS FOR RESTOR/RESUME    SAVC0226
      00317  0020 00 0 00325         TRA     LOAD0         AND GO LOOK FOR FILE NAME                  SAVC0227
                                                                                                      SAVC0228
      00320  0600 00 0 00410  RCALL. STZ     RUNSW         RECALL COMMAND, NO START                   SAVC0229
      00321  0020 00 0 00323         TRA     CNTIN.+1      .. SKIP                                    SAVC0230
                                                                                                      SAVC0231
      00322 -0625 00 0 00410  CNTIN. STL     RUNSW         CONTIN COMMAND WANTS TO START UP           SAVC0232
      00323  0600 00 0 00411         STZ     CHNSW         .. GO TO DORMNT IF NOT STARTING            SAVC0233
      00324  0560 00 0 00417         LDQ     LDOPT2        PICK UP ULOAD OPTIONS FOR RECALL/CONTIN    SAVC0234
                                                                                                      SAVC0235
      00325  0535 00 1 74502  LOAD0  LAC     USER,1        GET USER NO.                               SAVC0236
      00326  0535 00 2 74441         LAC     COMPTR,2      .. AND COMMAND BUFFER POINTER              SAVC0237
      00327 -0500 00 2 00001         CAL     1,2           GET SAVED FILE NAME IF SPECIFIED           SAVC0238
      00330 -0340 00 0 74641  LOAD1  LAS     FENCE         CHECK FOR FENCE                            SAVC0239
      00331  0020 00 0 00333         TRA     *+2           .. NO                                      SAVC0240
      00332  0602 00 0 72243  LOAD2  SLW     UCOMBF+1      .. YES, MAKE SURE USER COMMAND HAS A FENCE SAVC0241
      00333 -0340 00 0 74641         LAS     FENCE         CHECK IT AGAIN TO MAKE SURE                SAVC0242
      00334  0020 00 0 00336         TRA     *+2           .. STILL NO FENCE                          SAVC0243
      00335 -0500 00 1 76427         CAL     PROGN,1       FILE NAME NOT GIVEN, USE PROGNO.           SAVC0244
      00336  0602 00 0 00412         SLW     SN1           .. FOR NAME OF SAVED FILE                  SAVC0245
      00337  0602 00 0 72242         SLW     UCOMBF        .. PROGRAM MAY WANT TO KNOW TOO            SAVC0246
      00340  0602 00 0 74414         SLW     UCOMND        .. AND SO MAY ROGER                        SAVC0247
      00341 -0600 00 0 00420         STQ     ULOPT         SAVE ULOAD OPTIONS                         SAVC0248
      00342                          CALL    CHNGUS(Q2)    SET USER TO BE DISK USER                   SAVC0249
      00344  0074 00 4 00017         TSX     ULOAD,4       LOAD SAVED FILE                            SAVC0250
      00345  3 00000 0 00420         PAR     ULOPT         ..                                         SAVC0251
      00346  3 00000 0 00412         PAR     SN1           ..                                         SAVC0252
      00347  3 00000 0 74636         PAR     SAVED         ..                                         SAVC0253
      00350  3 00002 0 00360         PAR     LERR,,CHNERR  ..                                         SAVC0254
      00351  0520 00 0 00410         ZET     RUNSW         DO WE WANT TO START UP PROGRAM             SAVC0255
      00352  0020 00 0 00367         TRA     RSTRT.        .. YES, SIMULATE RSTART COMMAND            SAVC0256
      00353  0441 00 0 74670         LDI     Q1            .. NO, GO DORMANT                          SAVC0257
      00354  0520 00 0 00411         ZET     CHNSW         IS THIS TO GO TO CHNCOM                    SAVC0258
      00355  0020 00 0 00001         TRA     CHNCOM        .. YES, DO SO                              SAVC0259
      00356  0074 00 4 00005         TSX     DORMNT,4      .. NO, GO DORMANT (RECALL ONLY)            SAVC0260
      00357  000000000002            VFD     O36/SB.TSX    ..                                         SAVC0261
                                                                                                      SAVC0262
      00360 -0520 00 0 00410  LERR   NZT     RUNSW         IS USER EXPECTING TO RUN                   SAVC0263
      00361  0020 00 0 00365         TRA     LER1          .. NO, SKIP                                SAVC0264
      00362                          TYPE    (/ TYPE RSTART TO PROCEED./)  ELSE, TELL HIM             SAVC0265
      00365  0074 00 4 00005  LER1   TSX     DORMNT,4      .. AND THEN GO DORMANT                     SAVC0266
      00366  000000000002            VFD     O36/SB.TSX    ..                                         SAVC0267
1      M1416 3845  PETER R. BOS ......... SYSTEM TRANSFER COMMANDS .........     03/04/70 1354.5 PAGE 6

                                                                                                      SAVC0269
      00367  0534 00 4 72433  RSTRT. LXA     WATCOM,4      RSTART COMMAND .. IS USER BETWEEN COMMANDS SAVC0270
      00370 -3 00000 4 00374         TXL     START.,4,0    .. NO, START UP USER PROGRAM               SAVC0271
      00371  0441 00 0 74670         LDI     Q1            .. YES, ARE WE TO GO TO CHNCOM             SAVC0272
      00372 -3 00001 4 00001         TXL     CHNCOM,4,1    ..                                         SAVC0273
      00373 -3 00002 4 00010         TXL     NEWCOM,4,2    .. OR NEWCOM (IF USER QUIT IN CHAIN)       SAVC0274
                                                                                                      SAVC0275
      00374  0600 00 0 72433  START. STZ     WATCOM        START COMMAND, RESET WAITING COMMAND SWITCHSAVC0276
      00375 -0520 00 0 72161         NZT     MEMBND        DOES USER HAVE CORE IMAGE                  SAVC0277
      00376  0020 00 0 00007         TRA     ILLCOM        .. IF NOT, RETURN TO MAIN CONTROL          SAVC0278
      00377  0074 00 4 00024         TSX     $CKQUIT,4     INSURE USER STILL RUNNING                  SAVC0279
      00400 -0500 00 0 74414         CAL     UCOMND        SET UP CURRENT COMMAND NAME                SAVC0280
      00401  0602 00 1 75575         SLW     COMMND,1      .. FOR THOSE OF US WHO ARE NOSY            SAVC0281
      00402  0020 00 0 00014         TRA     RSTCPU        GO RUN USER PROGRAM                        SAVC0282
                                                                                                      SAVC0283
                                                                                                      SAVC0284
      00403  0074 00 4 00003  RSETF. TSX     CHNGUS,4      SET USER TO BE DISK USER                   SAVC0285
      00404  3 00000 0 74667         PAR     Q2            ..                                         SAVC0286
      00405  0074 00 4 00013         TSX     RESETF,4      RESET ACTIVE FILES                         SAVC0287
      00406  3 00000 0 00012         PAR     PRDIAG        .. POSSIBLE ERROR RETURN                   SAVC0288
      00407  0020 00 0 00161         TRA     SVRET         .. EXIT                                    SAVC0289
                                                                                                      SAVC0290
                                                                                                      SAVC0291
                                                                                                      SAVC0292
      00410  0 00000 0 00000  RUNSW  PZE                   INDICATES LOAD, START SEQUENCE             SAVC0293
      00411  0 00000 0 00000  CHNSW  PZE                   INDICATES COMMAND MAY GO TO CHNCOM         SAVC0294
      00412  0 00000 0 00000  SN1    PZE                   SAVED FILE NAME TO DUMP OR LOAD            SAVC0295
      00413  0 00000 0 00000  MSW    PZE                   MYSAVE SWITCH (OWN UFD)                    SAVC0296
      00414  000000000077     SVOPT  VFD     O18/0,O18/D.DSK+D.OPT+D.DIR+D.TSF+D.COM+D.SAV            SAVC0297
      00415  000000000100     LDOPT0 VFD     O18/0,O18/L.MEM                                          SAVC0298
      00416  000000000143     LDOPT1 VFD     O18/0,O18/L.DSK+L.OPT+L.CPU+L.MEM                        SAVC0299
      00417  000000000177     LDOPT2 VFD     O18/0,O18/L.DSK+L.OPT+L.DIR+L.TSF+L.COM+L.CPU+L.MEM      SAVC0300
      00420  0 00000 0 00000  ULOPT  PZE                   ..                                         SAVC0301
                                                                                                      SAVC0302
      00421                          RMT     *                                                        SAVC0305
      00421  602164634644     ..001  BCI     / AUTOMATIC LOGOUT./                                     SAVC0305.001
      00424  606462255160     ..003  BCI     / USER MAY NOT USE COMMON FILES./                        SAVC0305.001
      00432  606370472560     ..005  BCI     / TYPE RSTART TO PROCEED./                               SAVC0305.001
                                                                                                      SAVC0307
                                     END                                                              SAVC0308

        LITERALS
      00436  000000000043
      00437  000000000047
      00440  000000007777
      00441  606060606054
      00442  606060606063
1      M1416 3845  PETER R. BOS ......... SYSTEM TRANSFER COMMANDS .........     03/04/70 1354.5 PAGE 1
                        POST PROCESSOR ASSEMBLY DATA

       72127 IS THE LAST LOCATION NOT USED BY THIS PROGRAM
        443 IS THE FIRST LOCATION NOT USED BY THIS PROGRAM

0REFERENCES TO DEFINED SYMBOLS
      74654     M0   126,  207,  212
      74671     Q0    70
      74670     Q1   164,  353,  371
      74667     Q2   205,  343,  404
        224    DO.     0
          1    .F.    27,  301,  364
        413    MSW    41,   61,  134,  136,  176
        412    SN1    40,   43,  141,  150,  157,  172,  215,  336,  346
         21    ZBL   247
        265   DO.0   273,  276
        270   DO.1   246
        272   DO.2   251
        274   DO.3   257
        365   LER1   160,  361
        360   LERR   350
        157   MODE   142,  155
        277   NODO   254,  261
        170   SAVE    42,   62,  156
        214   SVMD   174
        220   SVX4   170,  222
      74502   USER    27,   30,   50,  137,  236,  301,  325,  364
        411  CHNSW   225,  306,  323,  354
         20  D.COM   414
          4  D.DIR   414
          1  D.DSK   414
          2  D.OPT   414
         40  D.SAV   414
         10  D.TSF   414
      74641  FENCE   145,  241,  330,  333
        421  ..001    26,  424
          3  ..002    26,  424
        424  ..003   300,  432
          6  ..004   300,  432
        432  ..005   363,  436
          4  ..006   363,  436
         24  LCBUF   235,  315
         20  L.COM   417
         40  L.CPU   416,  417
          4  L.DIR   417
          1  L.DSK   416,  417
        100  L.MEM   415,  416,  417
          2  L.OPT   416,  417
         10  L.TSF   417
        325  LOAD0   317
        330  LOAD1   271
        332  LOAD2   243
      72157  PRIND   210
      76500  PROBN   200,  264
      76427  PROGN    35,   63,  140,  335
      76041  RCODE   206,  252
1      M1416 3845  PETER R. BOS ......... SYSTEM TRANSFER COMMANDS .........     03/04/70 1354.5 PAGE 2
                        POST PROCESSOR ASSEMBLY DATA

      72160  RLIND   211
        410  RUNSW   224,  303,  305,  320,  322,  351,  360
      74636  SAVED   216,  347
        134  SAVE.     0
         23  START   116
        222  SVERR   203,  217
        414  SVOPT   214
        161  SVRET   407
         16  UDUMP   213
      76305  UFDNM   201,  272
         17  ULOAD   344
        420  ULOPT   341,  345
         20  WRFLX    25,  277,  362
          0 ATTFIL   202,  265
          1 CHNCOM   165,  355,  372
          2 CHNERR   266,  302,  350
          3 CHNGUS   342,  403
         24 CKQUIT   377
      74640 CMFL00   262
          4 CMPROC    47,  133
        322 CNTIN.     0,  321
      72241 COMCTR    56
      75575 COMMND   401
      74441 COMPTR   107,  143,  226,  307,  326
          5 DORMNT   166,  356,  365
         45 ENDLG1    34
         25 ENDLG.     0
         22 ENDSYS   106
          6 GETUFD   175
          7 ILLCOM   376
        415 LDOPT0   237,  267
        416 LDOPT1   316
        417 LDOPT2   324
      72161 MEMBND    31,   55,  100,  127,  375
        136 MSAVE.     0,  135
         10 NEWCOM   373
         11 OTOLOG    45
         12 PRDIAG   406
        320 RCALL.     0
          1 RCOMBT   260
        200 RDSKBT   253
         13 RESETF   405
        403 RSETF.     0
         14 RSTCPU   402
        303 RSTOR.     0
        367 RSTRT.     0,  352
        305 RSUME.     0,  304
        100 SAVEBT    52
        156 SAVE.1   147,  153
          2 SB.TSX   167,  357,  366
         65 SBSYS1    54,   60
        103 SBSYS2    74
        113 SBSYS3   102
        120 SBSYS4    72,  115
        132 SBSYS5   112,  117
1      M1416 3845  PETER R. BOS ......... SYSTEM TRANSFER COMMANDS .........     03/04/70 1354.5 PAGE 3
                        POST PROCESSOR ASSEMBLY DATA

         50 SBSYS.     0
         15 SETUSR   204
        374 START.     0,  370
      76234 SUBNAM    73,  131
      76163 SUBSWS    71,   75,   76,  130
        166 SVRET1   163
         40 SYSBIT    53,  114,  121
      72130 TSSFID   274,  275
        200 UCHNBT   162
        400 UCMLBT   105
      72242 UCOMBF   233,  313,  332,  337
        100 UCOMBT    66,  104,  110,  124
      74414 UCOMND    46,  132,  340,  400
      74413 UCOMSW    65,  103,  111,  123,  125,  161
      75770 USROPT    51,  113,  120,  122
      72433 WATCOM    32,  367,  374

0 NO ERROR IN ABOVE ASSEMBLY.


ULOD8A   BCD 03/04/70 1439.3   17980         00000
1      M1416 3845  PETER R. BOS ..... USER DUMP, RESTORE ROUTINES ......         03/04/70 1357.6 PAGE 1

                                                                                                      ULOD0002
                              *  PORTIONS OF THIS PROGRAM WERE BROUGHT TO YOU BY D.A. ANDERSON        ULOD0003
                                                                                                      ULOD0004
                                     PCC     ON                                                       ULOD0005
                                     NOLNK                                                            ULOD0006
                       00034         ENTRY   UDUMP         ENTRY TO SAVE USER PROGRAM ON DISK         ULOD0007
                       00261         ENTRY   ULOAD         ENTRY TO RESTORE USER FROM SAVED FILE      ULOD0008
                       01003         ENTRY   FILRST        ENTRY TO RESTORE USER ACTIVE FILE STATUS   ULOD0009
                       01172         ENTRY   SETSWS        ENTRY TO SET CONSOLE STATUS                ULOD0010
                       01457         ENTRY   OLDCT         COUNTER FOR COMPATIBILITY FEATURE          ULOD0011
                                     LBL     ULOD0000                                                 ULOD0012
                                     PCC     OFF                                                      ULOD0013
                                                                                                      ULOD0014
                                     EXTERN  ATTFIL,BTOC,BUFFER,CHKDIR,CHKTSS,CHNGUS,CLOSE            ULOD0015
                                     EXTERN  FERRTN,FREEUP,GETUSR,ILKRTN,LONGSV,NBL,OPEN              ULOD0016
                                     EXTERN  PRDIAG,RDWAIT,RESET,RESETF,RSSRB,RSTUFD,SCHEDL           ULOD0017
                                     EXTERN  SETAB,SETUSR,TRFILE,USAVE,WRFLX,WRFLXA,WRWAIT            ULOD0018
                                                                                                      ULOD0019
                                     UNLIST                                                           ULOD0020

                                                                                                      ULOD0026
                                                                                                      ULOD0027
      00034  0600 00 0 01460  UDUMP  STZ     LOADSW        ENTRY TO DUMP USER ON DISK, FLAG DUMP      ULOD0028
      00035 -0500 00 0 00033         CAL     WRWAIT        I/O ROUTINE TO DO WRITING                  ULOD0029
      00036  0074 00 7 01225         TSX     SETUP,7       INITIALIZE AND BEGIN                       ULOD0030
      00037                          CALL    CHNGUS(Q2)    SET USER TO BE DISK USER                   ULOD0031
      00041  0600 00 0 72434         STZ     FSBCT         RESET USAVE BLOCK COUNT                    ULOD0032
      00042                          CALL    USAVE(FSBCT,(FSBLK,,FSBLKL),USAVER) ..                   ULOD0033
      00046                          SETAB   LA,LB,LB      SET CORE SWITCHES FOR USER PROG.           ULOD0034
      00052  0074 00 4 00020         TSX     RESET,4       AND CLOSE ALL ACTIVE FILES FOR USER        ULOD0035
      00053 -0520 00 0 01452         NZT     FLAGS         IS THERE ANY WORK TO DO                    ULOD0036
      00054  0020 00 0 01254         TRA     RETURN        NO, EXIT                                   ULOD0037
      00055  0535 00 1 74502         LAC     USER,1        PICK UP USER NO.                           ULOD0038
      00056  0441 00 1 76041         LDI     RCODE,1       GET USER BASIC RESTRICTION CODE            ULOD0039
      00057  0054 00  000020         RFT     RPATBT        ..                                         ULOD0040
      00060  0020 00 0 00073         TRA     UDUMP0        PRIVILEGED USER MAY SAVE XEQ-ONLY PROGRAM  ULOD0041
      00061  0441 00 0 72232         LDI     URCODE        IN CASE OF PRIV. COMMAND OR EXECUTE-ONLY   ULOD0042
      00062 -0054 00  000020         LFT     UPRCBT        ..                                         ULOD0043
      00063  0020 00 0 00067         TRA     XQONLY        ..                                         ULOD0044
      00064                          NZTBIT  USROPT,1,XEQBIT ..                                       ULOD0045
      00066  0020 00 0 00073         TRA     UDUMP0        ..                                         ULOD0046
      00067                   XQONLY TYPEA   (/ EXECUTE-ONLY CORE IMAGE,/)                            ULOD0047
      00072  0020 00 0 01367         TRA     NO            .. NO SAVED FILE CREATED                   ULOD0048
                                                                                                      ULOD0049
      00073                   UDUMP0 CALL    CHNGUS(FSUSR) SET DISK USER NO.                          ULOD0050
      00075                          SETAB   LA,LA,LA      .. AND CORE SWITCHES                       ULOD0051
      00101 -0500 00 0 01572         CAL     =HW           OPEN SAVED FILE IN WRITE STATUS            ULOD0052
      00102  0074 00 4 01302         TSX     FILOPN,4      ..                                         ULOD0053
      00103                          CALL    TRFILE(N1,N2,Q0) ERASE PREVIOUS CONTENTS                 ULOD0054
      00107  0441 00 0 01452         LDI     FLAGS         PICK UP CALLER SAVE FLAGS                  ULOD0055
      00110  0056 00  000040         RNT     D.SAV         .. ARE WE TO SAVE PROGRAM                  ULOD0056
      00111  0020 00 0 00147         TRA     UDUMP1        .. NO, SKIP                                ULOD0057
                                                                                                      ULOD0058
      00112  0074 00 4 00013         TSX     LONGSV,4      SAVE COMPLETE MACHINE CONDITIONS           ULOD0059
      00113 -0500 00 0 74651         CAL     AMASK         INSURE MEMBND HAS CORRECT FORMAT           ULOD0060
      00114  0320 00 0 72161         ANS     MEMBND        ..                                         ULOD0061
1      M1416 3845  PETER R. BOS ..... USER DUMP, RESTORE ROUTINES ......         03/04/70 1357.6 PAGE 2

      00115  0500 00 0 74646         CLA     PMASK         SET PREFIX PTH FOR OLD FORMAT              ULOD0062
      00116  0630 00 0 72161         STP     MEMBND        ..                                         ULOD0063
      00117  0441 00 0 72204         LDI     SLTS          INVERT SENSE LIGHTS                        ULOD0064
      00120  0051 00  000017         IIR     17            ..                                         ULOD0065
      00121  0604 00 0 72204         STI     SLTS          ..                                         ULOD0066
      00122  0774 00 4 00043         AXT     UILOCK-MEMBND,4 WORD COUNT FOR MACHINE CONDITIONS        ULOD0067
      00123 -0634 00 4 72161         SXD     MEMBND,4      .. IN DECREMENT OF CONTROL WORD            ULOD0068
      00124  0074 00 4 01317         TSX     RW,4          WRITE OUT CONTROL WORD                     ULOD0069
      00125  3 00044 0 72161         PAR     MEMBND,,UILOCK-MEMBND+1 .. FOR MACH. AND CORE            ULOD0070
      00126 -0500 00 0 74651         CAL     AMASK         .. RESTORE MEMBND TO PROPER FORMAT         ULOD0071
      00127  0320 00 0 72161         ANS     MEMBND        ..                                         ULOD0072
      00130                          SETAB   LA,LA,LBN     SET CORE SWITCHES FOR BCORE TRANSMISSION   ULOD0073
      00134  0074 00 4 01317         TSX     RW,4          WRITE OUT USER CORE IMAGE                  ULOD0074
      00135  2 72161 0 00000         BLK     0,,MEMBND     .. ONTO DISK                               ULOD0075
      00136  0074 00 4 01317         TSX     RW,4          .. WRITE OUT LAST WORD OF USER PROG        ULOD0076
      00137  3 00001 0 77777         PAR     -1,,1         ..                                         ULOD0077
      00140                          SETAB   LA,LA,LA      .. CORE SWITCHES FOR ACORE                 ULOD0078
      00144  0441 00 0 72204         LDI     SLTS          RESTORE SENSE LIGHT STATUS                 ULOD0079
      00145  0051 00  000017         IIR     17            ..                                         ULOD0080
      00146  0604 00 0 72204         STI     SLTS          ..                                         ULOD0081
                                                                                                      ULOD0082
      00147  0535 00 1 74502  UDUMP1 LAC     USER,1        HERE FOR DUMPING CONTROL BLOCKS            ULOD0083
      00150  0774 00 4 00001         AXT     NOPT,4        SET UP TABLE OF USER OPTION WORDS          ULOD0084
      00151 -0500 60 4 01432         CAL*    OPT+NOPT,4    .. USROPT, ETC.                            ULOD0085
      00152  0602 00 4 01440         SLW     UOPSAV+NOPT,4 ..                                         ULOD0086
      00153  2 00001 4 00151         TIX     *-2,4,1       .. FOR DISK ROUTINE TO ACCESS              ULOD0087
      00154  0774 00 1 00010         AXT     NDW,1         DUMP CONTROL FUNCTION TABLE SIZE           ULOD0088
      00155 -3 00000 1 00203  UDUMP2 TXL     DMPEND,1,0    .. SKIP IF DONE                            ULOD0089
      00156  0441 00 0 01452         LDI     FLAGS         LOAD CALLER JOB FLAGS                      ULOD0090
      00157 -0055 00  777777         SIL     /             .. MAKE ONT WORK                           ULOD0091
      00160  0446 00 1 00261         ONT     DTYPES,1      .. DO WE NEED THIS BLOCK                   ULOD0092
      00161  2 00002 1 00160         TIX     *-1,1,2       .. NO, TRY NEXT                            ULOD0093
      00162  0522 00 1 00262         XEC     DTYPES+1,1    THIS MAY BE TRANSFER FOR SPECIAL BLOCK     ULOD0094
      00163 -0500 00 1 00262         CAL     DTYPES+1,1    PAR LOC,,N FOR RW ROUTINE                  ULOD0095
      00164  0602 00 0 00201         SLW     WBLK          .. INSERT IN CALL                          ULOD0096
      00165 -0737 00 4 00000         PDC     ,4            GET WORD COUNT                             ULOD0097
      00166  0044 00 0 00000         PAI                   CHECK FOR 'BLK'                            ULOD0098
      00167 -0051 00  500000         IIL     500000        ..                                         ULOD0099
      00170 -0500 00 4 00000         CAL     0,4           INDIRECT WORD IF 'BLK'                     ULOD0100
      00171 -0056 00  700000         LNT     700000        ..                                         ULOD0101
      00172  0756 00 4 00000         PCA     ,4            ELSE, RESTORE CORRECT COUNT                ULOD0102
      00173  0602 00 0 01432         SLW     CTL           BUILD CONTROL WORD                         ULOD0103
      00174  0560 00 1 00261         LDQ     DTYPES,1      .. THREE CHARACTER NAME                    ULOD0104
      00175 -0620 00 0 01432         SLQ     CTL           .. INSERT                                  ULOD0105
      00176  0074 00 4 01317         TSX     RW,4          WRITE OUT CONTROL WORD                     ULOD0106
      00177  3 00001 0 01432         PAR     CTL,,1        ..                                         ULOD0107
      00200  0074 00 4 01317         TSX     RW,4          WRITE OUT ASSOCIATED BLOCK                 ULOD0108
      00201  0 00000 0 00000  WBLK   ***     -,,-          ..                                         ULOD0109
      00202  1 77776 1 00155         TXI     UDUMP2,1,-2   GO LOOK FOR MORE WORK                      ULOD0110
                                                                                                      ULOD0111
      00203                   DMPEND CALL    CLOSE(N1,N2)  HERE WHEN DONE WRITING FILE                ULOD0112
      00206  0020 00 0 01254         TRA     RETURN        .. AND RETURN TO CALLING PROG.             ULOD0113
                                                                                                      ULOD0114
                                                                                                      ULOD0115
      00207 -0500 00 0 72233  DPOPT  CAL     TSSFSW        OLD FORMAT SAVED FILE DUMP, PICK UP TSSFSW ULOD0116
      00210  0602 00 0 01446         SLW     TEMP          PUT AWAY                                   ULOD0117
1      M1416 3845  PETER R. BOS ..... USER DUMP, RESTORE ROUTINES ......         03/04/70 1357.6 PAGE 3

      00211  0441 00 0 01437         LDI     UOPSAV        PICK UP USER OPTIONS WORD                  ULOD0118
      00212  0057 00  777777         RIR     /             RESET ALL RIGHT HALF BITS                  ULOD0119
      00213 -0054 00  000100         LFT     CLKBIT        SET BITS TO OLD FORMAT USWICH CONFIGURATIONULOD0120
      00214  0055 00  200040         SIR     OLDCLK        ..                                         ULOD0121
      00215 -0054 00  000001         LFT     FULBIT        ..                                         ULOD0122
      00216  0055 00  001004         SIR     OLDFUL        ..                                         ULOD0123
      00217 -0054 00  000002         LFT     NCVBIT        ..                                         ULOD0124
      00220  0055 00  006000         SIR     OLDNCV        ..                                         ULOD0125
      00221 -0054 00  000004         LFT     NBKBIT        ..                                         ULOD0126
      00222  0055 00  030000         SIR     OLDNBK        ..                                         ULOD0127
      00223 -0054 00  000010         LFT     GPHBIT        ..                                         ULOD0128
      00224  0055 00  140000         SIR     OLDGPH        ..                                         ULOD0129
      00225 -0057 00  777777         RIL     /             RESET LEFT HALF                            ULOD0130
      00226  0604 00 0 01447         STI     TEMP+1        PUT AWAY                                   ULOD0131
      00227 -0500 00 0 00246         CAL     OPTWD         PICK UP POINTER TO BUFFER                  ULOD0132
      00230  0020 00 7 00002         TRA     2,7           REJOIN LOOP                                ULOD0133
                                                                                                      ULOD0134
      00231  0074 00 4 01317  DPCOM  TSX     RW,4          OLD FORMAT SAVED FILE COMMAND BLOCK        ULOD0135
      00232  3 00001 0 00247         PAR     COMCTL,,1     WRITE OUT CONTROL WORD                     ULOD0136
      00233  0074 00 4 01317         TSX     RW,4          WRITE OUT SUBCOMMAND BUFFERS, WATCOM       ULOD0137
      00234  3 00146 0 72266         PAR     SUBCOM,,CLNGTH*CDEPTH+2 ..                               ULOD0138
      00235  0074 00 4 01317         TSX     RW,4          WRITE OUT COMCTR AND UCOMBF                ULOD0139
      00236  3 00025 0 72241         PAR     COMCTR,,LCBUF+1 ..                                       ULOD0140
      00237  0074 00 4 01317         TSX     RW,4          WRITE OUT COMFSW                           ULOD0141
      00240  3 00001 0 72240         PAR     COMFSW,,1     ..                                         ULOD0142
      00241  1 77776 1 00155         TXI     UDUMP2,1,-2   RETURN FOR NEXT BLOCK IF ANY               ULOD0143
                                                                                                      ULOD0144
      00242 -0520 00 0 72434  DPDSK  NZT     FSBCT         OLD FORMAT, DO NOT DUMP IF ZERO            ULOD0145
      00243  0020 00 7 77777         TRA     -1,7          ..                                         ULOD0146
      00244 -0500 00 0 00250         CAL     DSKWD         PICK UP CONTROL WORD                       ULOD0147
      00245  0020 00 7 00002         TRA     2,7           REJOIN LOOP                                ULOD0148
                                                                                                      ULOD0149
      00246  3 00002 0 01446  OPTWD  PAR     TEMP,,2       ..                                         ULOD0150
      00247  234644000174     COMCTL VFD     H18/COM,18/CLNGTH*CDEPTH+LCBUF+4                         ULOD0151
      00250  2 72434 0 72435  DSKWD  BLK     FSBLK,,FSBCT  ..                                         ULOD0152
                                                                                                      ULOD0153
                                                                                                      ULOD0154
                       00251  DTOP   SYN     *             TABLE OF CONTROL HEADERS FOR UDUMP         ULOD0155
                                                                                                      ULOD0156
      00251  246242000001            VFD     H18/DSK,O18/D.DSK                                        ULOD0157
      00252  0074 00 7 00242         TSX     DPDSK,7                                                  ULOD0158
                                                                                                      ULOD0159
      00253  464763000000            VFD     H18/OPT,O18/0                                            ULOD0160
      00254  0074 00 7 00207         TSX     DPOPT,7                                                  ULOD0161
                                                                                                      ULOD0162
      00255  234644000000            VFD     H18/COM,O18/0                                            ULOD0163
      00256  0020 00 0 00231         TRA     DPCOM                                                    ULOD0164
                                                                                                      ULOD0165
      00257  645142000000            VFD     H18/URK,O18/0                                            ULOD0166
      00260  0020 00 0 00203         TRA     DMPEND        .. DONE, EXIT                              ULOD0167
                                                                                                      ULOD0168
                       00261  DTYPES SYN     *                                                        ULOD0169
                       00010  NDW    EQU     *-DTOP        TABLE SIZE                                 ULOD0170
1      M1416 3845  PETER R. BOS ..... USER DUMP, RESTORE ROUTINES ......         03/04/70 1357.6 PAGE 4

                                                                                                      ULOD0172
      00261 -0625 00 0 01460  ULOAD  STL     LOADSW        HERE TO RESTORE USER FROM DISK, FLAG LOAD  ULOD0173
      00262 -0500 00 0 00017         CAL     RDWAIT        I/O TO DO IS READING                       ULOD0174
      00263  0074 00 7 01225         TSX     SETUP,7       INITIALIZE AND BEGIN                       ULOD0175
      00264  0441 00 0 01452         LDI     FLAGS         SEE IF USER FILE STATUS TO BE RESTORED     ULOD0176
      00265  0056 00  000001         RNT     L.DSK         ..                                         ULOD0177
      00266  0020 00 0 00277         TRA     ULOAD1        .. NO, LEAVE CURRENT FILES ALONE           ULOD0178
      00267                          CALL    CHNGUS(Q2)    SET USER TO BE DISK USER                   ULOD0179
      00271                          SETAB   LA,*,*        CORE SWITCHES FOR CALLS FROM ACORE         ULOD0180
      00275                          CALL    RESETF(*+1)   RESET USER'S ACTIVE FILES IF ANY           ULOD0181
      00277                   ULOAD1 CALL    CHNGUS(FSUSR) SET DISK USER NO.                          ULOD0182
      00301                          SETAB   LA,LA,LA      .. AND CORE SWITCHES FOR ACORE             ULOD0183
      00305 -0500 00 0 01566         CAL     =HR           OPEN CORE IMAGE FILE FOR READING           ULOD0184
      00306  0074 00 4 01302         TSX     FILOPN,4      ..                                         ULOD0185
      00307 -0500 00 0 74670         CAL     Q1            INITIALIZE RELLOC                          ULOD0186
      00310  0602 00 0 01434         SLW     RELLOC        .. FOR READING FROM BEGINNING              ULOD0187
      00311 -0625 00 0 01451         STL     FIRST         INDICATE NEXT CONTROL WORD IS FIRST        ULOD0188
      00312  0020 00 0 00314         TRA     READ+1        .. SKIP                                    ULOD0189
                                                                                                      ULOD0190
      00313  0600 00 0 01451  READ   STZ     FIRST         RESET FIRST BLOCK INDICATOR                ULOD0191
      00314 -0520 00 0 01452         NZT     FLAGS         IS THERE MORE TO LOAD STILL                ULOD0192
      00315  0020 00 0 00367         TRA     ULODN         .. NO, WE ARE DONE                         ULOD0193
      00316  0600 00 0 01433         STZ     EOFSW         INDICATE EOF NOT FATAL                     ULOD0194
      00317  0074 00 4 01317         TSX     RW,4          READ NEXT CONTROL WORD                     ULOD0195
      00320  3 00001 0 01432         PAR     CTL,,1        ..                                         ULOD0196
      00321 -0625 00 0 01433         STL     EOFSW         .. AND SET FLAG TO INDICATE EOF IS FATAL   ULOD0197
      00322  0774 00 1 00041         AXT     NLW+3,1       SIZE OF OPTIONS TABLE                      ULOD0198
      00323 -2 00003 1 00504         TNX     CKFST,1,3     NOT FOUND IN TABLE, SKIP TO CHECK FOR FIRSTULOD0199
      00324  0441 00 0 01432         LDI     CTL           GET CONTROL WORD                           ULOD0200
      00325  0440 00 1 01003         IIS     LTYPES,1      SEE IF LEFT HALF MATCHES                   ULOD0201
      00326 -0054 00  777777         LFT     /             ..                                         ULOD0202
      00327  0020 00 0 00323         TRA     *-4           .. NO, LOOK AT NEXT                        ULOD0203
      00330  0522 00 1 01004         XEC     LTYPES+1,1    THIS MAY BE TRANSFER FOR SPECIAL BLOCK     ULOD0204
      00331  0441 00 1 01003         LDI     LTYPES,1      NORMAL DATA BLOCK, CHECK IF WE WANT IT     ULOD0205
      00332  0444 00 0 01452         OFT     FLAGS         ..                                         ULOD0206
      00333  0020 00 0 00341         TRA     USEIT         .. YES, GO CHECK VALIDITY                  ULOD0207
      00334 -0500 00 0 01432  SKIP   CAL     CTL           HERE TO SKIP BLOCK                         ULOD0208
      00335 -0320 00 0 74651         ANA     AMASK         ..                                         ULOD0209
      00336  0400 00 0 01434         ADD     RELLOC        FIX UP RELLOC FOR READING                  ULOD0210
      00337  0602 00 0 01434         SLW     RELLOC        ..                                         ULOD0211
      00340  0020 00 0 00313         TRA     READ          .. ON TO NEXT BLOCK                        ULOD0212
                                                                                                      ULOD0213
      00341 -0500 00 0 01432  USEIT  CAL     CTL           HERE TO LOAD STANDARD BLOCK                ULOD0214
      00342  0621 60 1 01005         STA*    LTYPES+2,1    .. SAVE WORD COUNT                         ULOD0215
      00343  0734 00 4 00000         PAX     ,4            .. CHECK IF TOO LARGE                      ULOD0216
      00344 -0500 00 1 01005         CAL     LTYPES+2,1    ..                                         ULOD0217
      00345  0622 00 0 00346         STD     *+1           ..                                         ULOD0218
      00346  3 00000 4 01402         TXH     BAD,4,-       .. COMPLAIN AND EXIT IF SO (FATAL ERROR)   ULOD0219
      00347 -0500 00 1 01004         CAL     LTYPES+1,1    CHECK IF BLOCK CORRECT SIZE                ULOD0220
      00350 -0737 00 4 00000         PDC     ,4            ..                                         ULOD0221
      00351  0756 00 4 00000         PCA     ,4            ..                                         ULOD0222
      00352  0441 00 1 01004         LDI     LTYPES+1,1    ..                                         ULOD0223
      00353 -0056 00  100000         LNT     100000        .. INDIRECT WORD COUNT FOR BLK             ULOD0224
      00354 -0500 00 4 00000         CAL     0,4           ..                                         ULOD0225
      00355  0402 60 1 01005         SUB*    LTYPES+2,1    WORD COUNT OF BLOCK IN FILE                ULOD0226
      00356 -0100 00 0 01402         TNZ     BAD           .. ERROR IF WRONG SIZE                     ULOD0227
1      M1416 3845  PETER R. BOS ..... USER DUMP, RESTORE ROUTINES ......         03/04/70 1357.6 PAGE 5

      00357 -0500 00 1 01004         CAL     LTYPES+1,1    .. ELSE, PICK UP LOC,,N WORD               ULOD0228
      00360  0602 00 0 00362         SLW     *+2           .. INSERT IN CALL                          ULOD0229
      00361  0074 00 4 01317         TSX     RW,4          READ IN BLOCK FROM DISK                    ULOD0230
      00362  0 00000 0 00000         ***     -,,-          ..                                         ULOD0231
      00363  0441 00 0 01452  RFLAG  LDI     FLAGS         RESET THIS FLAG FROM TASKS                 ULOD0232
      00364  0445 00 1 01003         RIS     LTYPES,1      ..                                         ULOD0233
      00365  0604 00 0 01452         STI     FLAGS         ..                                         ULOD0234
      00366  0020 00 0 00313         TRA     READ          AND GO ON TO NEXT BLOCK                    ULOD0235
                                                                                                      ULOD0236
      00367                   ULODN  CALL    CLOSE(N1,N2)  DONE LOADING, CLOSE FILE                   ULOD0237
      00372  0441 00 0 01452         LDI     FLAGS         PICK UP TASK FLAGS                         ULOD0238
      00373  0520 00 0 01443         ZET     IIRSW         WAS THIS OLD FORMAT FILE                   ULOD0239
      00374  0057 00  000001         RIR     L.DSK         .. YES, MAY LACK DSK BLOCK                 ULOD0240
      00375  0604 00 0 01452         STI     FLAGS         .. IGNORE IF MISSING                       ULOD0241
      00376 -0520 00 0 01452         NZT     FLAGS         ARE THERE ANY JOBS LEFT TO DO              ULOD0242
      00377  0020 00 0 00442         TRA     ULODN1        .. NO, SKIP                                ULOD0243
      00400 -0625 00 0 01440         STL     ERRSW         .. YES, INDICATE ERROR                     ULOD0244
      00401  0074 00 4 01413         TSX     FN,4          .. AND TELL USER OF THIS                   ULOD0245
      00402  3 00000 0 01454         PAR     N1            ..                                         ULOD0246
      00403  3 00000 0 01455         PAR     N2            ..                                         ULOD0247
      00404  3 00000 0 01474         PAR     INCMP+1       ..                                         ULOD0248
      00405                          TYPE    (/ FILE  NAME1 ***** NAME2 INCOMPLETE .../),INCMP        ULOD0249
      00410  0774 00 1 00036         AXT     NLW,1         SEARCH FOR THINGS WE DID NOT FIND IN FILE  ULOD0250
      00411  0441 00 0 01452         LDI     FLAGS         ..                                         ULOD0251
      00412  0444 00 1 01003         OFT     LTYPES,1      .. DID WE WANT THIS ONE                    ULOD0252
      00413  0020 00 0 00430         TRA     NFD           .. YES, TELL USER                          ULOD0253
      00414  2 00003 1 00411  NTIX   TIX     *-3,1,3       .. CONTINUE                                ULOD0254
      00415 -0520 00 0 01452         NZT     FLAGS         .. ARE THERE STILL ANY LEFT                ULOD0255
      00416  0020 00 0 00442         TRA     ULODN1        .. NO, SKIP                                ULOD0256
      00417  0560 00 0 01452         LDQ     FLAGS         .. YES, CONVERT FOR PRINTING               ULOD0257
      00420 -0773 00 0 00022         RQL     18            ..                                         ULOD0258
      00421  0074 00 4 00001         TSX     BTOC,4        ..                                         ULOD0259
      00422 -0501 00 0 01567         ORA     =H 00000      .. LEADING BLANK                           ULOD0260
      00423  0602 00 0 01505         SLW     UNK+3         .. INSERT INTO COMMENT                     ULOD0261
      00424                          TYPE    (/   OPTIONS UNKNOWN 00000./),UNK                        ULOD0262
      00427  0020 00 0 00442         TRA     ULODN1        .. AND SKIP                                ULOD0263
      00430  0445 00 1 01003  NFD    RIS     LTYPES,1      HERE FOR MISSING FLAG FOUND IN TABLE       ULOD0264
      00431  0604 00 0 01452         STI     FLAGS         .. RESET IT                                ULOD0265
      00432 -0500 00 1 01003         CAL     LTYPES,1      PICK UP OPTION NAME                        ULOD0266
      00433  0771 00 0 00022         ARS     18            ..                                         ULOD0267
      00434 -0501 00 0 01571         ORA     =H   000      WITH 3 BLANKS LEADING                      ULOD0268
      00435  0602 00 0 01507         SLW     NOTFD         .. INSERT INTO COMMENT                     ULOD0269
      00436                          TYPE    (/   XXX BLOCK NOT FOUND./),NOTFD                        ULOD0270
      00441  0020 00 0 00414         TRA     NTIX          CONTINUE SEARCH                            ULOD0271
                                                                                                      ULOD0272
      00442                   ULODN1 CALL    CHNGUS(Q2)    SET USER TO BE DISK USER                   ULOD0273
      00444 -0520 00 0 72434         NZT     FSBCT         HERE TO RESTORE ACTIVE FILE STATUS         ULOD0274
      00445  0020 00 0 00452         TRA     ULODN2        .. SKIP IF NO FILES TO RESTORE             ULOD0275
      00446  0074 00 4 01003         TSX     FILRST,4      GO RESTORE FILE STATUS                     ULOD0276
      00447  3 00000 0 00451         PAR     FLER          .. POSSIBLE ERROR RETURN                   ULOD0277
      00450  0020 00 0 00452         TRA     ULODN2        ..                                         ULOD0278
                                                                                                      ULOD0279
      00451 -0625 00 0 01440  FLER   STL     ERRSW         INDICATE ERROR PROCESSING RESTORE          ULOD0280
                                                                                                      ULOD0281
      00452 -0520 00 0 72233  ULODN2 NZT     TSSFSW        IS TSSFIL STATUS TO BE RESTORED            ULOD0282
      00453  0020 00 0 00460         TRA     ULODN3        .. NO, SKIP                                ULOD0283
1      M1416 3845  PETER R. BOS ..... USER DUMP, RESTORE ROUTINES ......         03/04/70 1357.6 PAGE 6

      00454 -0500 00 0 72234         CAL     TSSFIL        .. YES, PICK UP TSSFIL NAME                ULOD0284
      00455  0560 00 0 72235         LDQ     TSSFIL+1      ..                                         ULOD0285
      00456  0074 00 4 00004         TSX     CHKTSS,4      .. SEE IF IN TABLE                         ULOD0286
      00457  3 00000 0 00732         PAR     BADTSS        .. ERROR, TSSFIL NOT FOUND IN TABLE        ULOD0287
                                                                                                      ULOD0288
      00460 -0520 00 0 01436  ULODN3 NZT     USRTMP+1      IS THERE A FILE DIRECTORY TO ATTACH TO     ULOD0289
      00461  0020 00 0 00471         TRA     ULODN4        .. NO, SKIP                                ULOD0290
      00462                          CALL    CHKDIR(USRTMP,USRTMP+1,BADUSR)  MAY USER ATTACH THERE    ULOD0291
      00466  0500 00 0 01435         CLA     USRTMP        .. APPARENTLY.                             ULOD0292
      00467  0560 00 0 01436         LDQ     USRTMP+1      .. COPY DIRECTORY NAME                     ULOD0293
      00470 -0603 00 0 72236         DST     USRFIL        ..                                         ULOD0294
                                                                                                      ULOD0295
      00471  0534 00 4 01444  ULODN4 LXA     UOPCT,4       GET COUNT OF OPTION WORDS LOADED           ULOD0296
      00472 -3 00000 4 00503         TXL     ULODN5,4,0    .. NONE, SKIP                              ULOD0297
                                                                                                      ULOD0298
      00473  0535 00 1 74502         LAC     USER,1        HERE TO RESTORE USROPT LEFT HALF           ULOD0299
      00474 -0500 00 0 01437         CAL     UOPSAV        PICK UP SAVED USROPT                       ULOD0300
      00475 -0320 00 0 01464         ANA     UOPMSK        .. MASK ALLOWED BITS                       ULOD0301
      00476 -0130 00 0 00000         XCL                   ..                                         ULOD0302
      00477 -0620 00 1 75770         SLQ     USROPT,1      .. INSERT                                  ULOD0303
      00500  0074 00 4 01172         TSX     SETSWS,4      SET CONSOLE STATUS                         ULOD0304
      00501  0 00000 0 74502         PZE     USER          ..                                         ULOD0305
      00502  0564 00 0 77777         ENB     ENBWD         .. REENABLE AFTER POSSIBLE RSSRB           ULOD0306
                                                                                                      ULOD0307
      00503  0020 00 0 01254  ULODN5 TRA     RETURN        RETURN TO CALLER                           ULOD0308
                                                                                                      ULOD0309
                                                                                                      ULOD0310
      00504 -0520 00 0 01451  CKFST  NZT     FIRST         BLOCK ID NOT FOUND IN TABLE, SEE IF FIRST  ULOD0311
      00505  0020 00 0 01402         TRA     BAD           .. NOT FIRST BLOCK, BAD FILE FORMAT        ULOD0312
      00506 -0500 00 0 01432         CAL     CTL           PICK UP CONTROL WORD                       ULOD0313
      00507  0771 00 0 00041         ARS     33            .. GET PREFIX                              ULOD0314
      00510  0602 00 0 01443         SLW     IIRSW         .. NON-ZERO FOR OLD FORMAT FILE            ULOD0315
      00511  0441 00 0 01452  LDCPU  LDI     FLAGS         HERE TO LOAD MACH. COND. + CORE IMAGE      ULOD0316
      00512  0056 00  000040         RNT     L.CPU         DO WE WANT MACHINE CONDITIONS              ULOD0317
      00513  0020 00 0 00533         TRA     SKIPMC        .. NO, SKIP                                ULOD0318
      00514  0057 00  000040         RIR     L.CPU         RESET FLAG                                 ULOD0319
      00515  0604 00 0 01452         STI     FLAGS         ..                                         ULOD0320
      00516 -0534 00 4 01432         LXD     CTL,4         EXTRACT WORD COUNT FROM CONTROL WORD       ULOD0321
      00517  3 00043 4 01402         TXH     BAD,4,SAVEM1-ILC  .. EXIT IF TOO LARGE                   ULOD0322
      00520 -3 00000 4 00537         TXL     LDMEM,4,0     .. SKIP IF NO MACHINE STATUS               ULOD0323
      00521 -0634 00 4 00523         SXD     MCSIZ,4       .. SAVE                                    ULOD0324
      00522  0074 00 4 01317         TSX     RW,4          READ IN MACHINE CONDITIONS                 ULOD0325
      00523  3 00000 0 72162  MCSIZ  PAR     ILC,,-        ..                                         ULOD0326
      00524 -0520 00 0 01443         NZT     IIRSW         DO WE NEED TO INVERT SENSE LIGHTS          ULOD0327
      00525  0020 00 0 00531         TRA     *+4           .. NO                                      ULOD0328
      00526  0441 00 0 72204         LDI     SLTS          .. YES, GET THE LIGHTS                     ULOD0329
      00527  0051 00  000017         IIR     17            .. INVERT THEM                             ULOD0330
      00530  0604 00 0 72204         STI     SLTS          ..                                         ULOD0331
      00531 -0625 00 0 72156         STL     MACOND        INDICATE MACHINE CONDITIONS MEANINGFUL     ULOD0332
      00532  0020 00 0 00537         TRA     LDMEM         .. AND GO CHECK UP ON CORE IMAGE           ULOD0333
      00533 -0534 00 4 01432  SKIPMC LXD     CTL,4         HERE TO SKIP MACH. CON.                    ULOD0334
      00534  0754 00 4 00000         PXA     ,4            .. WORD COUNT                              ULOD0335
      00535  0400 00 0 01434         ADD     RELLOC        ..                                         ULOD0336
      00536  0602 00 0 01434         SLW     RELLOC        ..                                         ULOD0337
      00537  0441 00 0 01452  LDMEM  LDI     FLAGS         HERE TO LOAD CORE IMAGE                    ULOD0338
      00540  0056 00  000100         RNT     L.MEM         .. DO WE WANT IT                           ULOD0339
1      M1416 3845  PETER R. BOS ..... USER DUMP, RESTORE ROUTINES ......         03/04/70 1357.6 PAGE 7

      00541  0020 00 0 00614         TRA     SKPMEM        .. NO, SKIP OVER IT                        ULOD0340
      00542  0057 00  000100         RIR     L.MEM         RESET FLAG                                 ULOD0341
      00543  0604 00 0 01452         STI     FLAGS         ..                                         ULOD0342
      00544  0534 00 4 01432         LXA     CTL,4         PICK UP OLD MEMBND                         ULOD0343
      00545  0754 00 4 00000         PXA     ,4            ..                                         ULOD0344
      00546  0602 00 0 72161         SLW     MEMBND        .. SAVE AS NEW MEMORY BOUND                ULOD0345
      00547  0602 00 0 74451         SLW     NWORDS        ..                                         ULOD0346
      00550  0074 00 4 00010         TSX     FREEUP,4      INSURE ENOUGH ROOM FOR INCOMING PROGRAM    ULOD0347
      00551                          SCHEDL  Q6,USER,MEMBND TELL SCHEDL NEW USER SIZE                 ULOD0348
      00555  0564 00 0 77777         ENB     ENBWD         .. REENABLE AFTER SCHEDL                   ULOD0349
      00556 -0500 00 0 74447         CAL     BASEAD        SET UP RELOCATION AND PROTECTION WORDS     ULOD0350
      00557  0602 00 0 72160         SLW     RLIND         ..                                         ULOD0351
      00560  0602 00 0 72157         SLW     PRIND         ..                                         ULOD0352
      00561  0400 00 0 72161         ADD     MEMBND        ..                                         ULOD0353
      00562  0767 00 0 00022         ALS     18            ..                                         ULOD0354
      00563  0622 00 0 72157         STD     PRIND         ..                                         ULOD0355
      00564                          CALL    SETUSR(Q2,M0,M0,PRIND,RLIND,M0) TELL FILE COORDINATOR    ULOD0356
      00573                          CALL    CHNGUS(FSUSR) RESTORE DISK USER NO.                      ULOD0357
      00575 -0520 00 0 72161         NZT     MEMBND        SKIP IF NOTHING TO READ                    ULOD0358
      00576  0020 00 0 00614         TRA     SKPMEM        ..                                         ULOD0359
      00577                          SETAB   LA,LA,LBN     SET MEMORY SWITCHES FOR B-CORE             ULOD0360
      00603  0074 00 4 01317         TSX     RW,4          READ IN BODY OF USER PROGRAM               ULOD0361
      00604  2 72161 0 00000         BLK     0,,MEMBND     ..                                         ULOD0362
      00605  0074 00 4 01317         TSX     RW,4          READ IN 'SAVEM1'                           ULOD0363
      00606  3 00001 0 77777         PAR     -1,,1         .. INTO 77777                              ULOD0364
      00607                          SETAB   LA,LA,LA      RESET MEMORY SWITCHES FOR CORE A           ULOD0365
      00613  0020 00 0 00313         TRA     READ          .. AND GO TO NEXT BLOCK                    ULOD0366
      00614  0534 00 4 01432  SKPMEM LXA     CTL,4         HERE TO SKIP CORE IMAGE                    ULOD0367
      00615  1 00001 4 00616         TXI     *+1,4,1       .. (COUNT SAVEM1)                          ULOD0368
      00616  0754 00 4 00000         PXA     ,4            ..                                         ULOD0369
      00617  0400 00 0 01434         ADD     RELLOC        ..                                         ULOD0370
      00620  0602 00 0 01434         SLW     RELLOC        ..                                         ULOD0371
      00621  0020 00 0 00313         TRA     READ          .. ONWARD.....                             ULOD0372
                                                                                                      ULOD0373
      00622  0074 00 4 01317  LDOPT  TSX     RW,4          HERE FOR OLD FORMAT OPTIONS BLOCK          ULOD0374
      00623  3 00002 0 01446         PAR     TEMP,,2       ..                                         ULOD0375
      00624  0441 00 0 01452         LDI     FLAGS         DO WE WISH TO RESTORE TSSFIL               ULOD0376
      00625  0056 00  000010         RNT     L.TSF         ..                                         ULOD0377
      00626  0020 00 0 00636         TRA     CKUOP         .. NO, SKIP                                ULOD0378
      00627  0074 00 7 00724         TSX     OLD,7         .. COUNT OCCURENCES                        ULOD0379
      00630 -0500 00 0 01446         CAL     TEMP          SET TSSFIL INDICATOR                       ULOD0380
      00631  0602 00 0 72233         SLW     TSSFSW        ..                                         ULOD0381
      00632  0100 00 0 00636         TZE     CKUOP         .. SKIP IF NOT IN TSS FILES                ULOD0382
      00633  0500 00 0 72130         CLA     TSSFID        .. USE DEFAULT TSSFIL NAME                 ULOD0383
      00634  0560 00 0 72131         LDQ     TSSFID+1      ..                                         ULOD0384
      00635 -0603 00 0 72234         DST     TSSFIL        ..                                         ULOD0385
      00636  0056 00  000002  CKUOP  RNT     L.OPT         DO WE WANT FULBIT, ETC.                    ULOD0386
      00637  0020 00 0 00363         TRA     RFLAG         .. NO                                      ULOD0387
      00640  0074 00 7 00724         TSX     OLD,7         .. COUNT USAGE OF COMPATIBILITY CODE       ULOD0388
      00641  0441 00 0 01447         LDI     TEMP+1        PICK UP OLD FORMAT USWICH BITS             ULOD0389
      00642 -0057 00  777777         RIL     /             INSURE LEFT HALF ALL OFF                   ULOD0390
      00643  0054 00  200040         RFT     OLDCLK        WAS USER CORE CLOCK ON                     ULOD0391
      00644 -0055 00  000100         SIL     CLKBIT        .. YES                                     ULOD0392
      00645  0054 00  001004         RFT     OLDFUL        WAS USER IN 12-BIT MODE                    ULOD0393
      00646 -0055 00  000001         SIL     FULBIT        .. YES                                     ULOD0394
      00647  0054 00  006000         RFT     OLDNCV        WAS USER IN NO-CONVERT MODE                ULOD0395
1      M1416 3845  PETER R. BOS ..... USER DUMP, RESTORE ROUTINES ......         03/04/70 1357.6 PAGE 8

      00650 -0055 00  000002         SIL     NCVBIT        .. YES                                     ULOD0396
      00651  0054 00  030000         RFT     OLDNBK        WAS USER IN NO-BREAK MODE                  ULOD0397
      00652 -0055 00  000004         SIL     NBKBIT        .. YES                                     ULOD0398
      00653  0054 00  140000         RFT     OLDGPH        WAS USER IN GRAPHIC INPUT MODE             ULOD0399
      00654 -0055 00  000010         SIL     GPHBIT        .. YES                                     ULOD0400
      00655  0604 00 0 01437         STI     UOPSAV        PUT AWAY                                   ULOD0401
      00656  0774 00 4 00001         AXT     1,4           SET OPTION WORD COUNT                      ULOD0402
      00657  0634 00 4 01444         SXA     UOPCT,4       ..                                         ULOD0403
      00660  0020 00 0 00363         TRA     RFLAG         .. AND GO LOOK FOR MORE WORK               ULOD0404
                                                                                                      ULOD0405
                      200040  OLDCLK BOOL    200040        USWICH BIT EQUIVALENCES (OLD FORMAT)       ULOD0406
                      001004  OLDFUL BOOL    1004          .. FULBIT+FULBT                            ULOD0407
                      006000  OLDNCV BOOL    6000          .. NCVBIT+NCVBT                            ULOD0408
                      030000  OLDNBK BOOL    30000         .. NBKBIT+NBKBT                            ULOD0409
                      140000  OLDGPH BOOL    140000        .. GPHBIT+GPHBT                            ULOD0410
                                                                                                      ULOD0411
      00661  0441 00 0 01452  LDCOM  LDI     FLAGS         RELOAD CALLER FLAGS                        ULOD0412
      00662  0056 00  000020         RNT     L.COM         DO WE WANT COMMAND BUFFERS                 ULOD0413
      00663  0020 00 0 00700         TRA     SKPCM         .. NO, SKIP OVER THEM                      ULOD0414
      00664  0074 00 7 00724         TSX     OLD,7         COUNT COMPATIBILITY USAGE                  ULOD0415
      00665  0074 00 4 01317         TSX     RW,4          READ IN SUBCOMMAND BUFFERS                 ULOD0416
      00666  3 00146 0 72266         PAR     SUBCOM,,CLNGTH*CDEPTH+2 ..                               ULOD0417
      00667  0074 00 4 01317         TSX     RW,4          READ IN COMCTR+UCOMBF                      ULOD0418
      00670  3 00025 0 72241         PAR     COMCTR,,LCBUF+1 ..                                       ULOD0419
      00671  0774 00 7 72266         AXT     SUBCOM,7      FUDGE UP A COMMAND CHAIN BUFFER POINTER    ULOD0420
      00672  0534 00 6 72241         LXA     COMCTR,6      ..                                         ULOD0421
      00673 -2 00001 6 00675         TNX     *+2,6,1       ..                                         ULOD0422
      00674  1 00024 7 00673         TXI     *-1,7,CLNGTH  ..                                         ULOD0423
      00675  0634 00 7 72432         SXA     CHNPTR,7      ..                                         ULOD0424
      00676  0441 00 0 01452         LDI     FLAGS         RELOAD FLAGS                               ULOD0425
      00677  0020 00 0 00704         TRA     CHKCF         .. AND GO CHECK COMFIL                     ULOD0426
      00700  0774 00 4 00173  SKPCM  AXT     LCBUF+CLNGTH*CDEPTH+3,4  HERE TO SKIP OVER COMMANDS      ULOD0427
      00701  0754 00 4 00000         PXA     ,4                                                       ULOD0428
      00702  0400 00 0 01434         ADD     RELLOC        ..                                         ULOD0429
      00703  0602 00 0 01434         SLW     RELLOC        ..                                         ULOD0430
      00704  0056 00  000004  CHKCF  RNT     L.DIR         HERE FOR OLD FORMAT COMFIL SWITCHING       ULOD0431
      00705  0020 00 0 00720         TRA     SKPCF         .. DON'T WANT IT, SKIP                     ULOD0432
      00706  0074 00 7 00724         TSX     OLD,7         COUNT COMPATIBILITIES                      ULOD0433
      00707  0074 00 4 01317         TSX     RW,4          READ IN CFSAVE                             ULOD0434
      00710  3 00001 0 72240         PAR     COMFSW,,1     ..                                         ULOD0435
      00711  0535 00 4 74502         LAC     USER,4        GET USER NO.                               ULOD0436
      00712  0500 00 4 76500         CLA     PROBN,4       SET UP USER FILE ATTACHMENT                ULOD0437
      00713  0560 00 0 72240         LDQ     COMFSW        ..                                         ULOD0438
      00714 -0520 00 0 72240         NZT     COMFSW        ..                                         ULOD0439
      00715  0560 00 4 76305         LDQ     UFDNM,4       ..                                         ULOD0440
      00716 -0603 00 0 01435         DST     USRTMP        ..                                         ULOD0441
      00717  0020 00 0 00363         TRA     RFLAG         .. GO LOOK FOR MORE WORK                   ULOD0442
      00720  0500 00 0 01434  SKPCF  CLA     RELLOC        HERE TO SKIP OVER CFSAVE                   ULOD0443
      00721  0400 00 0 74670         ADD     Q1            ..                                         ULOD0444
      00722  0602 00 0 01434         SLW     RELLOC        ..                                         ULOD0445
      00723  0020 00 0 00363         TRA     RFLAG         GO LOOK FOR MORE WORK                      ULOD0446
                                                                                                      ULOD0447
      00724  0500 00 0 01457  OLD    CLA     OLDCT         HERE TO COUNT COMPATIBILITY                ULOD0448
      00725  0400 00 0 74670         ADD     Q1            ..                                         ULOD0449
      00726 -0520 00 0 01442         NZT     OLDSW         .. COUNT ONLY ONCE FOR EACH FILE           ULOD0450
      00727  0602 00 0 01457         SLW     OLDCT         ..                                         ULOD0451
1      M1416 3845  PETER R. BOS ..... USER DUMP, RESTORE ROUTINES ......         03/04/70 1357.6 PAGE 9

      00730 -0625 00 0 01442         STL     OLDSW         ..                                         ULOD0452
      00731  0020 00 7 00001         TRA     1,7           .. RETURN                                  ULOD0453
                                                                                                      ULOD0454
                                                                                                      ULOD0455
      00732                   BADTSS TYPE    (/ UNABLE TO RESTORE TSSFIL SWITCHING./)                 ULOD0456
      00735  0600 00 0 72233         STZ     TSSFSW        .. RESET TSSFIL INDICATOR                  ULOD0457
      00736 -0625 00 0 01440         STL     ERRSW         .. INDICATE ERROR                          ULOD0458
      00737  0020 00 0 00460         TRA     ULODN3        .. CONTINUE RESTORE                        ULOD0459
                                                                                                      ULOD0460
      00740                   BADUSR TYPE    (/ UNABLE TO RESTORE DIRECTORY SWITCHING./)              ULOD0461
      00743 -0625 00 0 01440         STL     ERRSW         .. SET ERROR FLAG                          ULOD0462
      00744  0020 00 0 00471         TRA     ULODN4        .. CONTINUE                                ULOD0463
1      M1416 3845  PETER R. BOS ..... USER DUMP, RESTORE ROUTINES ......         03/04/70 1357.6 PAGE 10

                                                                                                      ULOD0465
                                                                                                      ULOD0466
                       00745  LTOP   SYN     *             TABLE OF LOAD OPTIONS                      ULOD0467
                                                                                                      ULOD0468
      00745  246242000001            VFD     H18/DSK,O18/L.DSK                                        ULOD0469
      00746  2 72434 0 72435         BLK     FSBLK,,FSBCT                                             ULOD0470
      00747  0 00120 0 72434         PZE     FSBCT,,FSBLKL                                            ULOD0471
                                                                                                      ULOD0472
      00750  644647000002            VFD     H18/UOP,O18/L.OPT                                        ULOD0473
      00751  2 01444 0 01437         BLK     UOPSAV,,UOPCT                                            ULOD0474
      00752  0 00001 0 01444         PZE     UOPCT,,NOPT                                              ULOD0475
                                                                                                      ULOD0476
      00753  232226000020            VFD     H18/CBF,O18/L.COM                                        ULOD0477
      00754  3 00173 0 72241         PAR     COMCTR,,WATCOM-COMCTR+1                                  ULOD0478
      00755  0 00173 0 01445         PZE     CTLCT,,WATCOM-COMCTR+1                                   ULOD0479
                                                                                                      ULOD0480
      00756  243151000004            VFD     H18/DIR,O18/L.DIR                                        ULOD0481
      00757  3 00002 0 01435         PAR     USRTMP,,2                                                ULOD0482
      00760  0 00002 0 01445         PZE     CTLCT,,2                                                 ULOD0483
                                                                                                      ULOD0484
      00761  636226000010            VFD     H18/TSF,O18/L.TSF                                        ULOD0485
      00762  3 00003 0 72233         PAR     TSSFSW,,3                                                ULOD0486
      00763  0 00003 0 01445         PZE     CTLCT,,3                                                 ULOD0487
                                                                                                      ULOD0488
      00764  234764000040            VFD     H18/CPU,O18/L.CPU                                        ULOD0489
      00765  0020 00 0 01402         TRA     BAD           .. NOT USED YET                            ULOD0490
      00766  0 00000 0 00000         PZE                                                              ULOD0491
                                                                                                      ULOD0492
      00767  442544000100            VFD     H18/MEM,O18/L.MEM                                        ULOD0493
      00770  0020 00 0 01402         TRA     BAD           .. NOT USED YET                            ULOD0494
      00771  0 00000 0 00000         PZE                                                              ULOD0495
                                                                                                      ULOD0496
      00772  464763000012            VFD     H18/OPT,O18/L.TSF+L.OPT                                  ULOD0497
      00773  0020 00 0 00622         TRA     LDOPT                                                    ULOD0498
      00774  0 00000 0 00000         PZE                                                              ULOD0499
                                                                                                      ULOD0500
      00775  234644000024            VFD     H18/COM,O18/L.COM+L.DIR                                  ULOD0501
      00776  0020 00 0 00661         TRA     LDCOM                                                    ULOD0502
      00777  0 00000 0 00000         PZE                                                              ULOD0503
                                                                                                      ULOD0504
      01000  632544000000            VFD     H18/TEM,O18/0                                            ULOD0505
      01001  0020 00 0 00334         TRA     SKIP                                                     ULOD0506
      01002  0 00000 0 00000         PZE                                                              ULOD0507
                                                                                                      ULOD0508
                       01003  LTYPES SYN     *                                                        ULOD0509
                       00036  NLW    EQU     *-LTOP                                                   ULOD0510
1      M1416 3845  PETER R. BOS ..... USER DUMP, RESTORE ROUTINES ......         03/04/70 1357.6 PAGE 11

                                                                                                      ULOD0512
      01003 -0520 00 0 72434  FILRST NZT     FSBCT         HERE TO RESTORE ACTIVE FILES               ULOD0513
      01004  0020 00 4 00002         TRA     2,4           .. NONE, RETURN                            ULOD0514
      01005                          SAVE    FL(X1,X2,X3,X4) SAVE XRS                                 ULOD0515
      01011                          CALL    CHNGUS(Q2)    SET USER TO BE DISK USER                   ULOD0516
      01013  0074 00 4 00012         TSX     ILKRTN,4      SET UP FILE INTERLOCK RETURN               ULOD0517
      01014  0 00000 0 01162                 RSTLOK        .. FOR FILE RESTORE                        ULOD0518
      01015  0074 00 4 00007         TSX     FERRTN,4      SET UP ERROR RETURN                        ULOD0519
      01016  0 00000 0 01157         PZE     RSTFLR        ..                                         ULOD0520
      01017  0621 00 0 01134         STA     OLDERR        ..                                         ULOD0521
      01020                          SETAB   LA,LB,LB      CORE SWITCHES SET FOR BUFFERS, DATA IN B   ULOD0522
      01024                          CALL    RESETF(*+1)   RESET ANY ACTIVE FILES FOR USER            ULOD0523
      01026 -0774 00 3 72435         AXC     FSBLK,3       POINT AT USAVE BLOCK                       ULOD0524
      01027  0534 00 2 72434         LXA     FSBCT,2       .. SIZE OF BLOCK                           ULOD0525
      01030  2 00010 2 01030         TIX     *,2,FSBENL    .. MAKE SURE IS MULTIPLE OF ENTRY SIZE     ULOD0526
      01031 -3 00007 2 01127         TXL     FLRSTR,2,FSBENL-1 .. WRONG SIZE, ERROR                   ULOD0527
      01032  0534 00 2 72434         LXA     FSBCT,2       .. RELOAD BLOCK SIZE                       ULOD0528
      01033  0535 00 1 74502         LAC     USER,1        ..                                         ULOD0529
      01034  0441 00 0 72232         LDI     URCODE        SAVE USER CURRENT RESTRICTION CODE         ULOD0530
      01035  0604 00 0 01461         STI     URSAVE        .. FOR RTSSBT                              ULOD0531
      01036  0600 00 0 01450         STZ     FLERSW        RESET ERROR SWITCH                         ULOD0532
      01037                   FLRST  CALL    CHKDIR((0,3),(1,3),TRYTSF) CAN HE GET THERE              ULOD0533
      01043 -0500 00 0 01461         CAL     URSAVE        RESTORE RESTRICTION CODE                   ULOD0534
      01044  0602 00 0 72232         SLW     URCODE        .. WHEN OUT OF TSS FILES                   ULOD0535
      01045 -0500 00 3 00000  FLRST1 CAL     0,3           .. GET DIRECTORY NAME                      ULOD0536
      01046  0560 00 3 00001         LDQ     1,3           ..                                         ULOD0537
      01047  0074 00 4 00000         TSX     ATTFIL,4      .. PUT HIM THERE                           ULOD0538
      01050  0020 00 0 01160         TRA     RSTFR1        .. ERROR RETURN                            ULOD0539
      01051                          CALL    SETUSR(Q2,URCODE,M0,M0,M0,M0)  ..                        ULOD0540
      01060  0500 00 3 00002         CLA     2,3           GET FILE NAME TO RESTORE                   ULOD0541
      01061  0560 00 3 00003         LDQ     3,3           ..                                         ULOD0542
      01062 -0603 00 0 01454         DST     N1            ..                                         ULOD0543
      01063 -0500 00 3 00004         CAL     4,3           STATUS OF FILE (R, W, RW)                  ULOD0544
      01064  0602 00 0 01446         SLW     TEMP          ..                                         ULOD0545
      01065                          CALL    OPEN(TEMP,N1,N2) OPEN FILE                               ULOD0546
      01071 -0500 00 3 00005         CAL     5,3           CHECK BUFFER ADDRESS                       ULOD0547
      01072  0100 00 0 01101         TZE     NBRST         .. NO BUFFER, SKIP                         ULOD0548
      01073  0621 00 0 01100         STA     RSTBF+3       ..                                         ULOD0549
      01074  0622 00 0 01100         STD     RSTBF+3       ..                                         ULOD0550
      01075                   RSTBF  CALL    BUFFER(N1,N2,(-,,-)) ASSIGN BUFFER                       ULOD0551
      01101 -0500 00 3 00006  NBRST  CAL     6,3           READ POINTER                               ULOD0552
      01102  0100 00 0 01112         TZE     NRRST         .. NONE, IGNORE                            ULOD0553
      01103  0602 00 0 01446         SLW     TEMP          ..                                         ULOD0554
      01104                          CALL    RDWAIT(N1,N2,TEMP,(0,,0),*)                              ULOD0555
      01112 -0500 00 3 00007  NRRST  CAL     7,3           WRITE POINTER                              ULOD0556
      01113  0100 00 0 01123         TZE     FLRSNX        .. DONE WITH THIS FILE                     ULOD0557
      01114  0602 00 0 01446         SLW     TEMP          .. ALMOST                                  ULOD0558
      01115                          CALL    WRWAIT(N1,N2,TEMP,(0,,0),*)                              ULOD0559
      01123 -2 00010 2 01125  FLRSNX TNX     *+2,2,FSBENL  ARE THERE ANY MORE FILES                   ULOD0560
      01124  1 77770 3 01037         TXI     FLRST,3,-FSBENL .. YES, GO DO THEM                       ULOD0561
      01125 -0520 00 0 01450         NZT     FLERSW        WERE THERE ANY ERRORS RESTORING            ULOD0562
      01126  0020 00 0 01133         TRA     FLRXIT        .. ACTIVE FILE STATUS                      ULOD0563
      01127                   FLRSTR TYPE    (/ UNABLE TO RESTORE ACTIVE FILE STATUS./)               ULOD0564
      01132 -0625 00 0 01450         STL     FLERSW        .. SET ERROR SWITCH IF NOT DONE ALREADY    ULOD0565
      01133  0074 00 4 00007  FLRXIT TSX     FERRTN,4      RESET FILE ERROR RETURN                    ULOD0566
      01134  0 00000 0 00000  OLDERR PZE     -             ..                                         ULOD0567
1      M1416 3845  PETER R. BOS ..... USER DUMP, RESTORE ROUTINES ......         03/04/70 1357.6 PAGE 12

      01135                          RESTOR  FL(X1,X2,X3,X4),* RESTORE XRS                            ULOD0568
      01141  0600 00 0 72434         STZ     FSBCT         RESET FILE STATUS BLOCK COUNT              ULOD0569
      01142 -0500 00 0 01461         CAL     URSAVE        RESTORE RESTRICTION CODE                   ULOD0570
      01143  0602 00 0 72232         SLW     URCODE        ..                                         ULOD0571
      01144 -0520 00 0 01450         NZT     FLERSW        WAS THERE AN ERROR RESTORING STATUS        ULOD0572
      01145  0020 00 4 00002         TRA     2,4           NO, RETURN NORMALLY                        ULOD0573
      01146  0020 60 4 00001         TRA*    1,4           YES, GIVE ERROR RETURN                     ULOD0574
                                                                                                      ULOD0575
      01147 -0500 00 3 00000  TRYTSF CAL     0,3           HERE TO CHECK TSSFIL IN FLRST              ULOD0576
      01150  0560 00 3 00001         LDQ     1,3           .. FILE NAME                               ULOD0577
      01151  0074 00 4 00004         TSX     CHKTSS,4      LOOK UP IN TSSFIL TABLE                    ULOD0578
      01152  3 00000 0 01160         PAR     RSTFR1        .. ERROR RETURN                            ULOD0579
      01153  0441 00 0 72232         LDI     URCODE        SET TSSFIL RESTRICTION BIT IN URCODE       ULOD0580
      01154  0055 00  000400         SIR     RTSSBT        ..                                         ULOD0581
      01155  0604 00 0 72232         STI     URCODE        ..                                         ULOD0582
      01156  0020 00 0 01045         TRA     FLRST1        AND REJOIN FLRST                           ULOD0583
                                                                                                      ULOD0584
      01157  0074 00 4 00016  RSTFLR TSX     PRDIAG,4      DISK ERROR IN FLRST, TYPE DIAGNOSTIC       ULOD0585
      01160 -0625 00 0 01450  RSTFR1 STL     FLERSW        .. INDICATE FLRST ERROR                    ULOD0586
      01161  0020 00 0 01123         TRA     FLRSNX        .. CONTINUE                                ULOD0587
                                                                                                      ULOD0588
      01162  0074 00 4 01413  RSTLOK TSX     FN,4          HERE FOR FILE INTERLOCK DURING FLRST       ULOD0589
      01163  3 00000 0 01454         PAR     N1            .. CONVERT NAME FOR PRINTING               ULOD0590
      01164  3 00000 0 01455         PAR     N2            ..                                         ULOD0591
      01165  3 00000 0 01540         PAR     LOCKD+1       ..                                         ULOD0592
      01166                          TYPEX   WRFLX,LOCKD,LOCKDL,USER,.F.,0                            ULOD0593
      01171  0020 00 0 01160         TRA     RSTFR1        .. INDICATE FLRST ERROR                    ULOD0594
                                                                                                      ULOD0595
                                                                                                      ULOD0596
      01172  0564 00 0 74671  SETSWS ENB     Q0            DISABLE TO PREVENT REENTRY                 ULOD0597
      01173                          SAVE    SW(X1,X4)     SAVE REGISTERS                             ULOD0598
      01175 -0500 60 4 00001         CAL*    1,4           PICK UP USER NUMBER                        ULOD0599
      01176  0737 00 1 00000         PAC     ,1            ..                                         ULOD0600
      01177 -0500 00 4 00001         CAL     1,4           PICK UP CONTROL WORD                       ULOD0601
      01200  0602 00 0 01215         SLW     SETSW1        FEED TO RSSRB                              ULOD0602
      01201 -0734 00 4 00000         PDX     ,4            CALLER SPECIFIED OPTION                    ULOD0603
      01202 -0500 00 1 75770         CAL     USROPT,1      GET CURRENT USER OPTIONS                   ULOD0604
      01203 -0320 00 0 01565         ANA     =VO18/TPWRSW  .. MASK                                    ULOD0605
      01204  0602 00 0 01462         SLW     TMP           .. SAVE                                    ULOD0606
      01205  3 00001 4 01214         TXH     SETSW1-1,4,1  OPTION = 2, ALWAYS RESET INPUT             ULOD0607
      01206  3 00000 4 01216         TXH     SETSW1+1,4,0  OPTION = 1, NEVER RESET INPUT              ULOD0608
      01207  0441 00 1 75524         LDI     USWICH,1      GET STATUS SWITCHES                        ULOD0609
      01210  0041 00 0 00000         IIA                   SEE IF CHANGING CONSOLE MODE               ULOD0610
      01211 -0054 00  000077         LFT     TPWRSW        ..                                         ULOD0611
      01212  0020 00 0 01214         TRA     *+2           .. YES                                     ULOD0612
      01213  0020 00 0 01216         TRA     SETSW1+1      .. NO, SKIP                                ULOD0613
      01214  0074 00 4 00022         TSX     RSSRB,4       RESET USER READ BUFFERS                    ULOD0614
      01215  0 00000 0 00000  SETSW1 ***     -             ..                                         ULOD0615
      01216  0441 00 1 75524         LDI     USWICH,1      RELOAD STATUS SWITCHES                     ULOD0616
      01217 -0057 00  000077         RIL     TPWRSW        RESET CURRENT CONSOLE MODE                 ULOD0617
      01220  0442 00 0 01462         OSI     TMP           SET NEW MODE                               ULOD0618
      01221  0604 00 1 75524         STI     USWICH,1      PUT BACK                                   ULOD0619
      01222                          RETURN  (2,4),SW(X1,X4) AND RETURN                               ULOD0620
1      M1416 3845  PETER R. BOS ..... USER DUMP, RESTORE ROUTINES ......         03/04/70 1357.6 PAGE 13

                                                                                                      ULOD0622
                                             INITIALIZATION AND COMMON ROUTINES                       ULOD0623
                                                                                                      ULOD0624
      01225                   SETUP  SAVE    UL(X1,X4)     SAVE XRS                                   ULOD0625
      01227  0634 00 7 01252         SXA     SX7,7         SAVE LINKAGE                               ULOD0626
      01230  0621 00 0 01331         STA     RWC           RDWAIT OR WRWAIT FOR RW                    ULOD0627
      01231 -0500 60 4 00001         CAL*    1,4           JOB FLAGS                                  ULOD0628
      01232  0602 00 0 01452         SLW     FLAGS         .. SAVE                                    ULOD0629
      01233 -0500 00 4 00001         CAL     1,4           GET FILE MODE FOR UDUMP                    ULOD0630
      01234  0771 00 0 00022         ARS     18            ..                                         ULOD0631
      01235  0621 00 0 01456         STA     MODE          ..                                         ULOD0632
      01236  0500 60 4 00002         CLA*    2,4           PICK UP FILE NAME TO RESTORE               ULOD0633
      01237  0560 60 4 00003         LDQ*    3,4           ..                                         ULOD0634
      01240 -0603 00 0 01454         DST     N1            ..                                         ULOD0635
      01241                          CALL    GETUSR((FSUSR,,1)) ASK FILE COORDINATOR                  ULOD0636
      01243  0074 00 4 00012         TSX     ILKRTN,4      SET UP FILE INTERLOCK RETURN               ULOD0637
      01244  0 00000 0 01352         PZE     FILOKD        ..                                         ULOD0638
      01245  0074 00 4 00007         TSX     FERRTN,4      SET FILE ERROR RETURN                      ULOD0639
      01246  0 00000 0 01362         PZE     IOERR         ..                                         ULOD0640
      01247  0774 00 4 00016         AXT     NZERO,4       RESET VARIABLE STORAGE                     ULOD0641
      01250  0600 00 4 01450         STZ     ZERO+NZERO,4  ..                                         ULOD0642
      01251  2 00001 4 01250         TIX     *-1,4,1       ..                                         ULOD0643
      01252  0774 00 7 00000  SX7    AXT     -,7           RESTORE LINKAGE                            ULOD0644
      01253  0020 00 7 00001         TRA     1,7           RETURN                                     ULOD0645
                                                                                                      ULOD0646
      01254  0074 00 4 00023  RETURN TSX     RSTUFD,4      COMMON EXIT, RESTORE USER TO PROPER UFD    ULOD0647
      01255 -0625 00 0 01440         STL     ERRSW         .. POSSIBLE ERROR, SET FLAG                ULOD0648
      01256  0074 00 4 00007         TSX     FERRTN,4      RESET ERROR RETURN                         ULOD0649
      01257  0 00000 0 00000         PZE     0             ..                                         ULOD0650
      01260                          CALL    CHNGUS(Q1)    SET TSS AS DISK USER                       ULOD0651
      01262                          SETAB   LA,LA,LA      RESET A/B SWITCHES                         ULOD0652
      01266                          CALL    RESETF(*+1)   RESET ANY ACTIVE FILE FOR TSS              ULOD0653
      01270                          RESTOR  UL(X1,X4),*   RESTORE XRS                                ULOD0654
      01272 -0500 00 4 00004         CAL     4,4           GET CALLER ERROR RETURN WORD               ULOD0655
      01273  0520 00 0 01441         ZET     FATERR        WAS THERE A FATAL ERROR                    ULOD0656
      01274  0771 00 0 00022         ARS     18            .. YES, GET FATAL RETURN                   ULOD0657
      01275  0621 00 0 01300         STA     ERRTN         ..                                         ULOD0658
      01276 -0520 00 0 01441         NZT     FATERR        CHECK FOR ANY ERROR                        ULOD0659
      01277  0520 00 0 01440         ZET     ERRSW         ..                                         ULOD0660
      01300  0020 00 0 00000  ERRTN  TRA     -             .. YES, GIVE ERROR RETURN                  ULOD0661
      01301  0020 00 4 00005         TRA     5,4           .. NO ERROR, RETURN NORMALLY               ULOD0662
                                                                                                      ULOD0663
      01302  0602 00 0 01446  FILOPN SLW     TEMP          SAVE A FEW WORDS HERE AND THERE            ULOD0664
      01303  0634 00 4 01315         SXA     OPNX4,4       ..                                         ULOD0665
      01304                          CALL    OPEN(TEMP,N1,N2,MODE)                                    ULOD0666
      01311                          CALL    BUFFER(N1,N2,(DBUF1,,NWDSPT))                            ULOD0667
      01315  0774 00 4 00000  OPNX4  AXT     -,4           RESTORE X4                                 ULOD0668
      01316  0020 00 4 00001         TRA     1,4           RETURN                                     ULOD0669
                                                                                                      ULOD0670
      01317  0634 00 4 01343  RW     SXA     RWX4,4        ROUTINE TO READ OR WRITE SAVED FILE        ULOD0671
      01320 -0500 00 4 00001         CAL     1,4           GET CONTROL WORD                           ULOD0672
      01321  0602 00 0 01335         SLW     RWC+4         ..                                         ULOD0673
      01322 -0737 00 4 00000         PDC     ,4            GET WORD COUNT                             ULOD0674
      01323  0044 00 0 00000         PAI                   AND WORD TO SI TO CHECK PREFIX             ULOD0675
      01324  0756 00 4 00000         PCA     ,4            ..                                         ULOD0676
      01325 -0056 00  100000         LNT     100000        CHECK FOR 'BLK'                            ULOD0677
1      M1416 3845  PETER R. BOS ..... USER DUMP, RESTORE ROUTINES ......         03/04/70 1357.6 PAGE 14

      01326 -0500 00 4 00000         CAL     0,4           .. YES, GET INDIRECT WORD COUNT            ULOD0678
      01327  0100 00 0 01343         TZE     RWX4          EXIT FOR ZERO WORD COUNT                   ULOD0679
      01330  0602 00 0 01463         SLW     RTMP          .. SAVE                                    ULOD0680
      01331                   RWC    CALL    **(N1,N2,RELLOC,(-,,-),RWEOF)                            ULOD0681
      01337 -0500 00 0 01434         CAL     RELLOC        UPDATE RELLOC                              ULOD0682
      01340  0400 00 0 01463         ADD     RTMP          ..                                         ULOD0683
      01341  0520 00 0 01434         ZET     RELLOC        .. UNLESS APPENDING                        ULOD0684
      01342  0602 00 0 01434         SLW     RELLOC        ..                                         ULOD0685
      01343  0774 00 4 00000  RWX4   AXT     -,4           RESTORE X4                                 ULOD0686
      01344  0020 00 4 00002         TRA     2,4           RETURN                                     ULOD0687
                                                                                                      ULOD0688
      01345 -0520 00 0 01460  RWEOF  NZT     LOADSW        HERE FOR EOF RETURN FROM RW                ULOD0689
      01346  0000 00 0 01346         HTR     *             SHOULD NOT GET EOF APPENDING               ULOD0690
      01347  0520 00 0 01433         ZET     EOFSW         EOF RETURN FROM RDWAIT                     ULOD0691
      01350  0020 00 0 01402         TRA     BAD           ILLEGAL FORMAT IF WITHIN BLOCK             ULOD0692
      01351  0020 00 0 00367         TRA     ULODN         ELSE, SKIP TO END                          ULOD0693
                                                                                                      ULOD0694
      01352  0074 00 4 01413  FILOKD TSX     FN,4          HERE IF SAVED FILE LOCKED                  ULOD0695
      01353  3 00000 0 01454         PAR     N1            ..                                         ULOD0696
      01354  3 00000 0 01455         PAR     N2            ..                                         ULOD0697
      01355  3 00000 0 01540         PAR     LOCKD+1       ..                                         ULOD0698
      01356                          TYPEA   (/ FILE  NAME1 ***** NAME2 IS LOCKED./),LOCKD,LOCKDL     ULOD0699
      01361  0020 00 0 01367         TRA     NO            .. NO DUMP OR LOAD                         ULOD0700
                                                                                                      ULOD0701
      01362  0074 00 4 00016  IOERR  TSX     PRDIAG,4      DISK ERROR READING OR WRITING SAVED FILE   ULOD0702
      01363                          SETAB   LA,LA,LA      RESET CORE SWITCHES                        ULOD0703
                                                                                                      ULOD0704
      01367 -0520 00 0 01460  NO     NZT     LOADSW        WERE WE LOADING                            ULOD0705
      01370  0020 00 0 01375         TRA     NOSAV         .. NO, DUMPING                             ULOD0706
      01371                   NOLOD  TYPE    (/ FILE NOT RESTORED./)                                  ULOD0707
      01374  0020 00 0 01400         TRA     ERRXIT        .. FATAL ERROR                             ULOD0708
      01375                   NOSAV  TYPE    (/ SAVE NOT EXECUTED./)                                  ULOD0709
                                                                                                      ULOD0710
      01400 -0625 00 0 01441  ERRXIT STL     FATERR        HERE FOR FATAL ERROR, SET FLAG             ULOD0711
      01401  0020 00 0 01254         TRA     RETURN        ..                                         ULOD0712
                                                                                                      ULOD0713
      01402  0074 00 4 01413  BAD    TSX     FN,4          HERE FOR BAD FORMAT IN FILE                ULOD0714
      01403  3 00000 0 01454         PAR     N1            ..                                         ULOD0715
      01404  3 00000 0 01455         PAR     N2            ..                                         ULOD0716
      01405  3 00000 0 01556         PAR     LBAD+1        ..                                         ULOD0717
      01406                          TYPEA   (/ FILE  NAME1 ***** NAME2 HAS ILLEGAL FORMAT./),LBAD    ULOD0718
      01411  0020 00 0 01367         TRA     NO            .. TELL USER NO RESTORE                    ULOD0719
                                                                                                      ULOD0720
      01412  0000 00 0 01412  USAVER HTR     *             UNLIKELY ERROR RETURN FROM USAVE           ULOD0721
                                                                                                      ULOD0722
      01413  0634 00 4 01422  FN     SXA     FNX4,4        ROUTINE TO PRODUCE NEAT FILE NAME          ULOD0723
      01414 -0500 60 4 00001         CAL*    1,4           .. PICK UP FILE NAME1                      ULOD0724
      01415  0074 00 4 00014         TSX     NBL,4         .. STRIP BLANKS                            ULOD0725
      01416  0534 00 4 01422         LXA     FNX4,4        .. RESTORE X4                              ULOD0726
      01417  0602 60 4 00003         SLW*    3,4           .. FIRST WORD                              ULOD0727
      01420 -0500 60 4 00002         CAL*    2,4           .. PICK UP NAME2                           ULOD0728
      01421  0074 00 4 00014         TSX     NBL,4         .. STRIP BLANKS                            ULOD0729
      01422  0774 00 4 00000  FNX4   AXT     -,4           .. RESTORE X4                              ULOD0730
      01423 -0130 00 0 00000         XCL                   .. SAVE NAME2                              ULOD0731
      01424 -0500 00 4 00003         CAL     3,4           .. GET ADDRESS FOR 2ND, 3RD WORD           ULOD0732
      01425  0737 00 7 00000         PAC     ,7            ..                                         ULOD0733
1      M1416 3845  PETER R. BOS ..... USER DUMP, RESTORE ROUTINES ......         03/04/70 1357.6 PAGE 15

      01426  0500 00 0 01570         CLA     =O605757575757 .. GET SINGLE BLANK                       ULOD0734
      01427 -0603 00 7 00001         DST     1,7           .. STORE.                                  ULOD0735
      01430  0020 00 4 00004         TRA     4,4           RETURN                                     ULOD0736
1      M1416 3845  PETER R. BOS ..... USER DUMP, RESTORE ROUTINES ......         03/04/70 1357.6 PAGE 16

                                                                                                      ULOD0738
                                             STORAGE AND CONSTANTS                                    ULOD0739
                                                                                                      ULOD0740
                       01431  OPT    SYN     *             TABLE OF OPTION WORDS                      ULOD0741
      01431  0 00000 1 75770         PZE     USROPT,1      ..                                         ULOD0742
                       00001  NOPT   EQU     *-OPT         .. TABLE SIZE                              ULOD0743
                       00002  NTEMP  EQU     2             SIZE OF TEMPORARY BLOCK                    ULOD0744
                                                                                                      ULOD0745
                       01432  ZERO   SYN     *             STORAGE TO BE CLEARED BY SETUP             ULOD0746
      01432  0 00000 0 00000  CTL    PZE                   .. CONTROL WORD                            ULOD0747
      01433  0 00000 0 00000  EOFSW  PZE                   .. NON-ZERO IF EOF IS ERROR                ULOD0748
      01434  0 00000 0 00000  RELLOC PZE                   .. RELLOC FOR 'RW'                         ULOD0749
      01435                   USRTMP BSS     2             .. TEMP. STORAGE FOR 'USRFIL'              ULOD0750
      01437                   UOPSAV BSS     NOPT          .. USER OPTIONS SAVED OR RESTORED          ULOD0751
      01440  0 00000 0 00000  ERRSW  PZE                   .. NON-ZERO IF ERROR                       ULOD0752
      01441  0 00000 0 00000  FATERR PZE                   .. NON-ZERO IF FATAL ERROR                 ULOD0753
      01442  0 00000 0 00000  OLDSW  PZE                   .. NON-ZERO IF COMPATIBILITY COUNTED       ULOD0754
      01443  0 00000 0 00000  IIRSW  PZE                   .. NON-ZERO IF SENSE LIGHTS TO BE INVERTED ULOD0755
      01444  0 00000 0 00000  UOPCT  PZE                   .. NO. WORDS RETURNED FROM UOP BLOCK       ULOD0756
      01445  0 00000 0 00000  CTLCT  PZE                   .. NO. WORDS RETURNED FOR NORMAL BLOCK     ULOD0757
      01446                   TEMP   BSS     NTEMP         .. TEMPORARY STORAGE                       ULOD0758
                       00016  NZERO  EQU     *-ZERO        ..                                         ULOD0759
                                                                                                      ULOD0760
      01450  0 00000 0 00000  FLERSW PZE                   ERROR FLAG FOR FILRST                      ULOD0761
      01451  0 00000 0 00000  FIRST  PZE                   NON-ZERO FOR FIRST ULOAD BLOCK             ULOD0762
      01452  0 00000 0 00000  FLAGS  PZE                   CALLER OPTION FLAGS                        ULOD0763
      01453  0 00000 0 00000  FSUSR  PZE                   FILE SYSTEM USER ON ENTRY                  ULOD0764
      01454  0 00000 0 00000  N1     PZE                   SAVED FILE NAME1                           ULOD0765
      01455  0 00000 0 00000  N2     PZE                   SAVED FILE NAME2                           ULOD0766
      01456  0 00000 0 00000  MODE   PZE                   SAVED FILE MODE (UDUMP)                    ULOD0767
      01457  0 00000 0 00000  OLDCT  PZE                   COMPATIBILITY CODE USAGE                   ULOD0768
      01460  0 00000 0 00000  LOADSW PZE                   LOAD/DUMP SWITCH                           ULOD0769
      01461  0 00000 0 00000  URSAVE PZE                   SAVED COPY OF URCODE                       ULOD0770
      01462  0 00000 0 00000  TMP    PZE                   SUPER-TEMPORARY                            ULOD0771
      01463  0 00000 0 00000  RTMP   PZE                   TEMP FOR 'RW'                              ULOD0772
                                                                                                      ULOD0773
      01464  000117000000     UOPMSK VFD     O18/FULBIT+NCVBIT+NBKBIT+GPHBIT+CLKBIT                   ULOD0774
                                                                                                      ULOD0775
      01465  0 00000 0 00002  LBN    PZE     B             MEMORY FLAG FOR UNPROT. B-CORE TRANSMISSIONULOD0776
                                                                                                      ULOD0777
      01466                          RMT     *                                                        ULOD0780
      01466  602567252364     ..001  BCI     / EXECUTE-ONLY CORE IMAGE,/                              ULOD0780.001
      01473  602631432560     INCMP  BCI     / FILE  NAME1 ***** NAME2 INCOMPLETE .../                ULOD0780.001
      01502  606060464763     UNK    BCI     /   OPTIONS UNKNOWN 00000./                              ULOD0780.001
      01507  606060676767     NOTFD  BCI     /   XXX BLOCK NOT FOUND./                                ULOD0780.001
      01513  606445212243     ..006  BCI     / UNABLE TO RESTORE TSSFIL SWITCHING./                   ULOD0780.001
      01521  606445212243     ..008  BCI     / UNABLE TO RESTORE DIRECTORY SWITCHING./                ULOD0780.001
      01530  606445212243     ..010  BCI     / UNABLE TO RESTORE ACTIVE FILE STATUS./                 ULOD0780.001
      01537  602631432560     LOCKD  BCI     / FILE  NAME1 ***** NAME2 IS LOCKED./                    ULOD0780.001
      01545  602631432560     ..012  BCI     / FILE NOT RESTORED./                                    ULOD0780.001
      01551  606221652560     ..014  BCI     / SAVE NOT EXECUTED./                                    ULOD0780.001
      01555  602631432560     LBAD   BCI     / FILE  NAME1 ***** NAME2 HAS ILLEGAL FORMAT./           ULOD0780.001
                                                                                                      ULOD0782
                                     END                                                              ULOD0783
1      M1416 3845  PETER R. BOS ..... USER DUMP, RESTORE ROUTINES ......         03/04/70 1357.6 PAGE 17

        LITERALS
      01565  000077000000
      01566  516060606060
      01567  600000000000
      01570  605757575757
      01571  606060000000
      01572  666060606060
1      M1416 3845  PETER R. BOS ..... USER DUMP, RESTORE ROUTINES ......         03/04/70 1357.6 PAGE 1
                        POST PROCESSOR ASSEMBLY DATA

       72127 IS THE LAST LOCATION NOT USED BY THIS PROGRAM
       1573 IS THE FIRST LOCATION NOT USED BY THIS PROGRAM

0REFERENCES TO DEFINED SYMBOLS
          2      B  1465
       1413     FN   401, 1162, 1352, 1402
      74653     LA    47,   76,   77,  100,  131,  132,  141,  142,  143,  272,  302,  303,  304,  600,  601,  610,  611
                     612, 1021, 1263, 1264, 1265, 1364, 1365, 1366
      74652     LB    50,   51, 1022, 1023
      74654     M0   273,  274,  566,  567,  572, 1054, 1055, 1056, 1057
       1454     N1   104,  204,  370,  402, 1062, 1067, 1076, 1105, 1116, 1163, 1240, 1306, 1312, 1332, 1353, 1403
       1455     N2   105,  205,  371,  403, 1070, 1077, 1106, 1117, 1164, 1307, 1313, 1333, 1354, 1404
       1367     NO    72, 1361, 1411
      74671     Q0   106, 1172
      74670     Q1   307,  721,  725, 1261
      74667     Q2    40,  270,  443,  565, 1012, 1052
      74663     Q6   552
       1317     RW   124,  134,  136,  176,  200,  231,  233,  235,  237,  317,  361,  522,  603,  605,  622,  665,  667
                     707
       1402    BAD   346,  356,  505,  517,  765,  770, 1350
       1432    CTL   173,  175,  177,  320,  324,  334,  341,  506,  516,  533,  544,  614
      72162    ILC   517,  523
          1    .F.    71,  407,  426,  440,  734,  742, 1131, 1170, 1360, 1373, 1377, 1410
       1465    LBN   133,  602
         14    NBL  1415, 1421
         10    NDW   154,  261
        430    NFD   413
         36    NLW   322,  410, 1003
        724    OLD   627,  640,  664,  706
       1431    OPT   151, 1431, 1432
       1331    RWC  1230, 1321
       1252    SX7  1227
       1462    TMP  1204, 1220
       1502    UNK   423,  425, 1507
          1   BTOC   421
        251   DTOP   251,  261
        451   FLER   447
       1135   FLX1  1005
       1136   FLX2  1006
       1137   FLX3  1007
       1140   FLX4  1010
       1422   FNX4  1413, 1416
       1555   LBAD  1405, 1407, 1565
        745   LTOP   745, 1003
       1456   MODE  1235, 1310
          1   NOPT   150,  151,  152,  752, 1432, 1437
        414   NTIX   441
         15   OPEN  1065, 1304
        313   READ   312,  340,  366,  613,  621
       1463   RTMP  1330, 1340
       1343   RWX4  1317, 1327
        334   SKIP  1001
      72204   SLTS   117,  121,  144,  146,  526,  530
       1222   SWX1  1173
1      M1416 3845  PETER R. BOS ..... USER DUMP, RESTORE ROUTINES ......         03/04/70 1357.6 PAGE 2
                        POST PROCESSOR ASSEMBLY DATA

       1223   SWX4  1174
       1446   TEMP   210,  226,  246,  623,  630,  641, 1064, 1066, 1103, 1107, 1114, 1120, 1302, 1305
       1270   ULX1  1225
       1271   ULX4  1226
      74502   USER    55,   71,  147,  407,  426,  440,  473,  501,  553,  711,  734,  742, 1033, 1131, 1170, 1360, 1373
                    1377, 1410
        201   WBLK   164
       1432   ZERO  1250, 1432, 1450
      74651  AMASK   113,  126,  335
        704  CHKCF   677
        504  CKFST   323
        636  CKUOP   626,  632
          6  CLOSE   203,  367
       1445  CTLCT   755,  760,  763
      73442  DBUF1  1314
          1  D.DSK   251
         40  D.SAV   110
        231  DPCOM   256
        242  DPDSK   252
        207  DPOPT   254
        250  DSKWD   244
      77777  ENBWD   502,  555
       1433  EOFSW   316,  321, 1347
       1440  ERRSW   400,  451,  736,  743, 1255, 1277
       1300  ERRTN  1275
       1451  FIRST   311,  313,  504
       1452  FLAGS    53,  107,  156,  264,  314,  332,  363,  365,  372,  375,  376,  411,  415,  417,  431,  511,  515
                     537,  543,  624,  661,  676, 1232
       1037  FLRST  1124
      72434  FSBCT    41,   43,  242,  250,  444,  746,  747, 1003, 1027, 1032, 1141
      72435  FSBLK    44,  250,  746, 1026
       1453  FSUSR    74,  300,  574, 1242
       1443  IIRSW   373,  510,  524
       1473  INCMP   404,  406, 1502
       1362  IOERR  1246
       1466  ..001    70, 1473
          5  ..002    70, 1473
          7  ..003   406, 1502
          5  ..004   425, 1507
          4  ..005   437, 1513
       1513  ..006   733, 1521
          6  ..007   733, 1521
       1521  ..008   741, 1530
          7  ..009   741, 1530
       1530  ..010  1130, 1537
          7  ..011  1130, 1537
       1545  ..012  1372, 1551
          4  ..013  1372, 1551
       1551  ..014  1376, 1555
          4  ..015  1376, 1555
         10  ..016  1407, 1565
         24  LCBUF   236,  247,  670,  700
        661  LDCOM   776
        511  LDCPU
        537  LDMEM   520,  532
1      M1416 3845  PETER R. BOS ..... USER DUMP, RESTORE ROUTINES ......         03/04/70 1357.6 PAGE 3
                        POST PROCESSOR ASSEMBLY DATA

        622  LDOPT   773
         20  L.COM   662,  753,  775
         40  L.CPU   512,  514,  764
          4  L.DIR   704,  756,  775
          1  L.DSK   265,  374,  745
        100  L.MEM   540,  542,  767
          2  L.OPT   636,  750,  772
         10  L.TSF   625,  761,  772
       1537  LOCKD  1165, 1167, 1355, 1357, 1545
        523  MCSIZ   521
       1101  NBRST  1072
       1371  NOLOD
       1375  NOSAV  1370
       1507  NOTFD   435,  437, 1513
       1112  NRRST  1102
          2  NTEMP  1432, 1446
         16  NZERO  1247, 1250, 1450
       1457  OLDCT     0,  724,  727
       1442  OLDSW   726,  730
       1315  OPNX4  1303
        246  OPTWD   227
      74646  PMASK   115
      72157  PRIND   560,  563,  570
      76500  PROBN   712
      76041  RCODE    56
         20  RESET    52
        363  RFLAG   637,  660,  717,  723
      72160  RLIND   557,  571
         22  RSSRB  1214
       1075  RSTBF  1073, 1074
       1345  RWEOF  1336
         25  SETAB    46,   75,  130,  140,  271,  301,  577,  607, 1020, 1262, 1363
       1225  SETUP    36,  263
        720  SKPCF   705
        700  SKPCM   663
         34  UDUMP     0
      76305  UFDNM   715
        261  ULOAD     0
        367  ULODN   315, 1351
       1444  UOPCT   471,  657,  751,  752
         30  USAVE    42
        341  USEIT   333
         31  WRFLX   405,  424,  436,  732,  740, 1127, 1166, 1371, 1375
          0 ATTFIL  1047
        732 BADTSS   457
        740 BADUSR   465
      74447 BASEAD   556
          2 BUFFER  1075, 1311
          5 CDEPTH   234,  247,  666,  700
          3 CHKDIR   462, 1037
          4 CHKTSS   456, 1151
          5 CHNGUS    37,   73,  267,  277,  442,  573, 1011, 1260
      72432 CHNPTR   675
        100 CLKBIT   213,  644, 1464
         24 CLNGTH   234,  247,  666,  674,  700
1      M1416 3845  PETER R. BOS ..... USER DUMP, RESTORE ROUTINES ......         03/04/70 1357.6 PAGE 4
                        POST PROCESSOR ASSEMBLY DATA

        247 COMCTL   232
      72241 COMCTR   236,  670,  672,  754,  755
      72240 COMFSW   240,  710,  713,  714
        203 DMPEND   155,  260
        261 DTYPES   160,  162,  163,  174,  261
       1400 ERRXIT  1374
       1441 FATERR  1273, 1276, 1400
          7 FERRTN  1015, 1133, 1245, 1256
       1352 FILOKD  1244
       1302 FILOPN   102,  306
       1003 FILRST     0,  446
       1450 FLERSW  1036, 1125, 1132, 1144, 1160
       1123 FLRSNX  1113, 1161
       1045 FLRST1  1156
       1127 FLRSTR  1031
       1133 FLRXIT  1126
         10 FREEUP   550
         10 FSBENL  1030, 1031, 1123, 1124
        120 FSBLKL    44,  747
          1 FULBIT   215,  646, 1464
         11 GETUSR  1241
         10 GPHBIT   223,  654, 1464
         12 ILKRTN  1013, 1243
       1460 LOADSW    34,  261, 1345, 1367
          6 LOCKDL  1167, 1357, 1545
         13 LONGSV   112
       1003 LTYPES   325,  330,  331,  342,  344,  347,  352,  355,  357,  364,  412,  430,  432, 1003
      72156 MACOND   531
      72161 MEMBND   114,  116,  122,  123,  125,  127,  135,  546,  554,  561,  575,  604
          4 NBKBIT   221,  652, 1464
          2 NCVBIT   217,  650, 1464
        660 NWDSPT  1314
      74451 NWORDS   547
     200040 OLDCLK   214,  643,  661
       1134 OLDERR  1017
       1004 OLDFUL   216,  645,  661
     140000 OLDGPH   224,  653,  661
      30000 OLDNBK   222,  651,  661
       6000 OLDNCV   220,  647,  661
         16 PRDIAG  1157, 1362
         17 RDWAIT   262, 1104
       1434 RELLOC   310,  336,  337,  535,  536,  617,  620,  702,  703,  720,  722, 1334, 1337, 1341, 1342
         21 RESETF   275, 1024, 1266
       1254 RETURN    54,  206,  503, 1401
         20 RPATBT    57
       1157 RSTFLR  1016
       1160 RSTFR1  1050, 1152, 1171
       1162 RSTLOK  1014
         23 RSTUFD  1254
        400 RTSSBT  1154
      72225 SAVEM1   517
         24 SCHEDL   551
       1215 SETSW1  1200, 1205, 1206, 1213
       1172 SETSWS     0,  500
         26 SETUSR   564, 1051
1      M1416 3845  PETER R. BOS ..... USER DUMP, RESTORE ROUTINES ......         03/04/70 1357.6 PAGE 5
                        POST PROCESSOR ASSEMBLY DATA

        533 SKIPMC   513
        614 SKPMEM   541,  576
      72266 SUBCOM   234,  666,  671
         77 TPWRSW  1211, 1217
         27 TRFILE   103
       1147 TRYTSF  1042
      72130 TSSFID   633,  634
      72234 TSSFIL   454,  455,  635
      72233 TSSFSW   207,  452,  631,  735,  762
         73 UDUMP0    60,   66
        147 UDUMP1   111
        155 UDUMP2   202,  241
      72224 UILOCK   122,  125
        277 ULOAD1   266
        442 ULODN1   377,  416,  427
        452 ULODN2   445,  450
        460 ULODN3   453,  737
        471 ULODN4   461,  744
        503 ULODN5   472
       1464 UOPMSK   475
       1437 UOPSAV   152,  211,  474,  655,  751
         20 UPRCBT    62
      72232 URCODE    61, 1034, 1044, 1053, 1143, 1153, 1155
       1461 URSAVE  1035, 1043, 1142
       1412 USAVER    45
      72236 USRFIL   470
      75770 USROPT    64,  477, 1202, 1431
       1435 USRTMP   460,  463,  464,  466,  467,  716,  757
      75524 USWICH  1207, 1216, 1221
      72433 WATCOM   754,  755
         32 WRFLXA    67, 1356, 1406
         33 WRWAIT    35, 1115
       2000 XEQBIT    65
         67 XQONLY    63

0 NO ERROR IN ABOVE ASSEMBLY.


BRKP8D   BCD 07/23/70 1553.5    3585         00000
1       M1416 3845  PETER R. BOS ...... TYPEWRITER BREAK INTERPRETER .........   07/22/70 1319.2 PAGE 1

                                     PCC     ON                                                       BRKP0002
                       00014         ENTRY   BRKPRC        ENTRY TO HANDLE BREAK CONDITION (TCOORD)   BRKP0003
                                     LBL     BRKP                                                     BRKP0004
                                     PCC     OFF                                                      BRKP0005
                                                                                                      BRKP0006
                                     EXTERN  SCHEDL,CHKCOM,.WRFX,.WRFXA,RSSRB,RSSWB,NOTIM             BRKP0007
                                     EXTERN  ERSUNI,RDYTIM,HELLO                                      BRKP0008
                                                                                                      BRKP0009
                                     UNLIST                                                           BRKP0010

                                                                                                      BRKP0016
                                                                                                      BRKP0017
                                                                                                      BRKP0018
                                             BRKPRC ..... BREAK PROCESSOR, CALLED BY TCOORD .....     BRKP0019
                                                                                                      BRKP0020
      00014                   BRKPRC SAVE    BR(X1,X2,X3,X4,X5,X6,X7,MQ) SAVE XRS AND MQ              BRKP0021
      00024 -0737 00 1 00000         PDC     ,1            AC IS PZE CODE,,USER                       BRKP0022
      00025  0636 00 1 00264         SCA     UTEMP,1       SAVE USER NO.                              BRKP0023
      00026  0734 00 4 00000         PAX     ,4            BREAK CODE TO X4                           BRKP0024
      00027 -0500 00 1 77726         CAL     STATUS,1      GET CURRENT USER STATUS                    BRKP0025
      00030  0734 00 2 00000         PAX     ,2            ..                                         BRKP0026
      00031 -0500 00 1 75065         CAL     ADOPT,1       AND ADOPTER IF AN ADOPTEE                  BRKP0027
      00032  0621 00 0 00265         STA     ADOPTR        ..                                         BRKP0028
      00033 -3 00000 4 00052         TXL     CKINP.,4,0    CODE = 0, INPUT LINE COMPLETE              BRKP0029
      00034 -3 00001 4 00077         TXL     DIALUP,4,1    CODE = 1, USER DIALUP COMPLETE             BRKP0030
      00035 -3 00002 4 00144         TXL     INTRPT,4,2    CODE = 2, USER HIT INTERRUPT               BRKP0031
      00036 -3 00003 4 00177         TXL     QUIT.,4,3     CODE = 3, USER HIT QUIT                    BRKP0032
      00037 -3 00004 4 00227         TXL     HANGP.,4,4    CODE = 4, USER PHONE HUNG UP               BRKP0033
      00040 -3 00005 4 00254         TXL     CMPLT.,4,5    CODE = 5, OUTPUT COMPLETION                BRKP0034
                                                                                                      BRKP0035
      00041                   BRKRTN RETURN  (1,4),BR(X1,X2,X3,X4,X5,X6,X7,MQ)  RETURN TO TCOORD      BRKP0036
                                                                                                      BRKP0037
      00052  0534 00 4 00265  CKINP. LXA     ADOPTR,4      NON-ZERO IF ADOPTEE                        BRKP0038
      00053  3 00000 4 00055         TXH     *+2,4,0       IF NOT ADOPTED,                            BRKP0039
      00054  0636 00 1 00265         SCA     ADOPTR,1      GET USER NO. INSTEAD                       BRKP0040
      00055  0535 00 1 00265         LAC     ADOPTR,1      USER OR ADOPTER                            BRKP0041
      00056 -0500 00 1 77726         CAL     STATUS,1      GET STATUS FOR THIS LUN                    BRKP0042
      00057  0734 00 2 00000         PAX     ,2            ..                                         BRKP0043
      00060  3 00000 4 00062         TXH     *+2,4,0       IF NOT ADOPTED,                            BRKP0044
      00061 -3 00001 2 00072         TXL     CKCOMD,2,1    AND STATUS .L. 2, CHECK FOR COMMAND        BRKP0045
      00062 -3 00003 2 00041         TXL     BRKRTN,2,3    IS USER IN INPUT WAIT                      BRKP0046
      00063  3 00004 2 00041         TXH     BRKRTN,2,4    ..                                         BRKP0047
      00064                          SCHEDL  Q2,ADOPTR,Q2  SCHEDL (HOME) LINE TO RUN                  BRKP0048
      00070  0600 00 1 75207         STZ     AWAKE,1       INSURE ALARM CLOCK RESET                   BRKP0049
      00071  0020 00 0 00041         TRA     BRKRTN        AND RETURN                                 BRKP0050
                                                                                                      BRKP0051
      00072  0520 00 0 74454  CKCOMD ZET     AUTOND        NO COMMANDS IF SWITCH SET                  BRKP0052
      00073  0520 00 1 76500         ZET     PROBN,1       AND USER NOT LOGGED IN                     BRKP0053
      00074                          CALL    CHKCOM(UTEMP) HERE FOR COMMAND LINE                      BRKP0054
      00076  0020 00 0 00041         TRA     BRKRTN        .. AND RETURN                              BRKP0055
                                                                                                      BRKP0056
      00077  0074 00 4 00004  DIALUP TSX     RSSRB,4       HERE FOR DIALUP SIGNAL                     BRKP0057
      00100  3 00000 0 00264         PAR     UTEMP         RESET INPUT AND OUTPUT                     BRKP0058
      00101  0074 00 4 00005         TSX     RSSWB,4       ..                                         BRKP0059
      00102  3 00000 0 00264         PAR     UTEMP         ..                                         BRKP0060
      00103                          WRTYPE  ,*,0,UTEMP,0  TYPE BLANK LINE                            BRKP0061
1       M1416 3845  PETER R. BOS ...... TYPEWRITER BREAK INTERPRETER .........   07/22/70 1319.2 PAGE 2

      00107 -0520 00 1 76500         NZT     PROBN,1       IS THIS NEW USER DIALING COMPUTER          BRKP0062
      00110  0520 00 1 77726         ZET     STATUS,1      .. NOT LOGGED IN, ALSO DEAD                BRKP0063
      00111  0020 00 0 00041         TRA     BRKRTN        .. NO, EXIT                                BRKP0064
      00112  0520 00 0 74454         ZET     AUTOND        ARE WE FLUSHING FOREGROUND USERS           BRKP0065
      00113  0020 00 0 00140         TRA     DIALP1        .. YES, GET RID OF HIM                     BRKP0066
      00114                          SCHEDL  Q11,UTEMP,Q0  FRESH USER, TELL SCHEDL OF DIALUP          BRKP0067
      00120  0600 00 1 75524         STZ     USWICH,1      RESET ALL USER SWITCHES                    BRKP0068
      00121  0600 00 1 75770         STZ     USROPT,1      ..                                         BRKP0069
      00122  0600 00 1 75065         STZ     ADOPT,1       ..                                         BRKP0070
      00123  0600 00 1 75014         STZ     OKPROB,1      ..                                         BRKP0071
      00124  0600 00 1 75331         STZ     UCLOCK,1      ..                                         BRKP0072
      00125  0600 00 1 75260         STZ     UCHARG,1      ..                                         BRKP0073
      00126  0600 00 1 75402         STZ     IOD,1         ..                                         BRKP0074
      00127 -0500 00 0 74635         CAL     FORCOD        SET RESTRICTION CODE                       BRKP0075
      00130  0602 00 1 76041         SLW     RCODE,1       .. TO BASIC                                BRKP0076
      00131 -0500 60 0 00011         CAL*    HELLO         SET UP COMMAND 'HELLO'                     BRKP0077
      00132  0602 00 1 75575         SLW     COMMND,1      ..                                         BRKP0078
      00133                          SCHEDL  Q2,UTEMP,Q3   INFORM SCHEDL OF WAITING COMMAND           BRKP0079
      00137  0020 00 0 00041         TRA     BRKRTN        AND EXIT                                   BRKP0080
                                                                                                      BRKP0081
      00140 -0500 00 0 00264  DIALP1 CAL     UTEMP         HERE WHEN SWITCH IS SET                    BRKP0082
      00141  0074 00 4 00007         TSX     ERSUNI,4      ERASE THIS UNIT NO.                        BRKP0083
      00142  0600 00 1 75646         STZ     UNITID,1      RESET CONSOLE I.D.                         BRKP0084
      00143  0020 00 0 00041         TRA     BRKRTN        AND EXIT                                   BRKP0085
                                                                                                      BRKP0086
      00144  0074 00 4 00004  INTRPT TSX     RSSRB,4       USER HIT INTERRUPT, RESET ALL              BRKP0087
      00145  0 00000 0 00264         PZE     UTEMP         .. INPUT AND OUTPUT                        BRKP0088
      00146  0074 00 4 00005         TSX     RSSWB,4       ..                                         BRKP0089
      00147  0 00000 0 00264         PZE     UTEMP         ..                                         BRKP0090
      00150                          WTYPEA  UTEMP,(/INT. /) LET USER KNOW WE HEARD HIM               BRKP0091
      00154 -3 00000 2 00172         TXL     IGNORE,2,0    IGNORE IF IN DEAD STATUS                   BRKP0092
      00155 -0520 00 1 75207         NZT     AWAKE,1       CHECK FOR USER SLEEPING                    BRKP0093
      00156 -3 00001 2 00172         TXL     IGNORE,2,1    IGNORE IF DORMANT                          BRKP0094
      00157                          STLBIT  ,1,INTBIT     SET INTERRUPT BIT FOR RSTCPU               BRKP0095
      00162  0600 00 1 75207         STZ     AWAKE,1       INSURE ALARM RESET                         BRKP0096
      00163 -3 00001 2 00165         TXL     *+2,2,1       MAKE USER WORK IF SLEEPING                 BRKP0097
      00164 -3 00003 2 00041         TXL     BRKRTN,2,3    SEE IF USER IN I/O WAIT                    BRKP0098
      00165                          SCHEDL  Q2,UTEMP,Q2   .. IF SO, TELL SCHEDL USER READY TO RUN    BRKP0099
      00171  0020 00 0 00041         TRA     BRKRTN        .. AND RETURN                              BRKP0100
      00172                   IGNORE WTYPE   UTEMP,(/IGNORED./) INT. IGNORED.                         BRKP0101
      00176  0020 00 0 00041         TRA     BRKRTN        .. RETURN                                  BRKP0102
                                                                                                      BRKP0103
      00177  0520 00 0 00265  QUIT.  ZET     ADOPTR        IS THIS LINE ADOPTED                       BRKP0104
      00200  0600 00 1 75065         STZ     ADOPT,1       .. YES, RESET ADOPT WORD                   BRKP0105
      00201                          ZETBIT  USROPT,1,NINTBT,INHBIT IS USER INHIBITED                 BRKP0106
      00203  0020 00 0 00041         TRA     BRKRTN        IGNORE QUIT SIGNAL IF SO                   BRKP0107
      00204  0074 00 4 00004         TSX     RSSRB,4       OTHERWISE, RESET USER READ BUFFERS         BRKP0108
      00205  0 00000 0 00264         PZE     UTEMP         ..                                         BRKP0109
      00206  0074 00 4 00005         TSX     RSSWB,4       RESET USER WRITE BUFFERS                   BRKP0110
      00207  0 00000 0 00264         PZE     UTEMP         ..                                         BRKP0111
      00210  0560 00 0 74671         LDQ     Q0            RESET STATUS SWITCHES (INTBIT, ETC.)       BRKP0112
      00211 -0620 00 1 75524         SLQ     USWICH,1      ..                                         BRKP0113
      00212                          WTYPE   UTEMP,(/ QUIT,/) YOU RANG, SIR                           BRKP0114
      00216  0600 00 1 75014         STZ     OKPROB,1      FORBID I/C COMMUNICATION                   BRKP0115
      00217  0600 00 1 75207         STZ     AWAKE,1       RESET ALARM CLOCK                          BRKP0116
      00220                          SCHEDL  Q2,UTEMP,Q1   INFORM SCHEDL USER NOW DORMANT             BRKP0117
1       M1416 3845  PETER R. BOS ...... TYPEWRITER BREAK INTERPRETER .........   07/22/70 1319.2 PAGE 3

      00224                          CALL    RDYTIM(UTEMP) TELL USER HIS TIME USED                    BRKP0118
      00226  0020 00 0 00241         TRA     UNADOP        GO CHECK UP ON ADOPTER IF ANY              BRKP0119
                                                                                                      BRKP0120
      00227  0074 00 4 00006  HANGP. TSX     NOTIM,4       USER IS LOGGED IN, LOG HIM OUT             BRKP0121
      00230  3 00000 0 00264         PAR     UTEMP         ..                                         BRKP0122
      00231  3 00000 0 74664         PAR     Q5            .. NOTIME CODE 5, PHONE HUNG UP            BRKP0123
      00232                          STLBIT  ,1,,HUNGBT    .. AND INDICATE USER PHONE IS HUNG UP      BRKP0124
      00235 -0500 00 0 00264         CAL     UTEMP         IS THIS SYSTEM OUTPUT LINE                 BRKP0125
      00236  0402 00 0 74534         SUB     SYSMSG        .. FOR OPERATOR                            BRKP0126
      00237 -0100 00 0 00241         TNZ     *+2           .. NO                                      BRKP0127
      00240  0600 00 0 74534         STZ     SYSMSG        .. YES, NO LONGER THERE                    BRKP0128
                                                                                                      BRKP0129
      00241  0535 00 1 00265  UNADOP LAC     ADOPTR,1      HERE TO CHECK FOR WAITING ADOPTR           BRKP0130
      00242 -3 00000 1 00041         TXL     BRKRTN,1,0    .. SKIP IF LINE WAS NOT ADOPTED            BRKP0131
      00243 -0500 00 1 77726         CAL     STATUS,1      GET STATUS OF ADOPTER                      BRKP0132
      00244  0734 00 2 00000         PAX     ,2            ..                                         BRKP0133
      00245 -3 00003 2 00041         TXL     BRKRTN,2,3    IF ADOPTER IN INPUT-WAIT                   BRKP0134
      00246  3 00005 2 00041  UNADP1 TXH     BRKRTN,2,5    .. OR OUTPUT WAIT                          BRKP0135
      00247                          SCHEDL  Q2,ADOPTR,Q2  .. TELL SCHEDL HE IS TO RUN                BRKP0136
      00253  0020 00 0 00041         TRA     BRKRTN        EXIT                                       BRKP0137
                                                                                                      BRKP0138
      00254 -0520 00 0 00265  CMPLT. NZT     ADOPTR        HERE FOR COMPLETION SIGNAL                 BRKP0139
      00255  0636 00 1 00265         SCA     ADOPTR,1      MAKE USER OR ADOPTER RUN AGAIN             BRKP0140
      00256  0535 00 1 00265         LAC     ADOPTR,1      ..                                         BRKP0141
      00257 -0500 00 1 77726         CAL     STATUS,1      PICK UP USER STATUS                        BRKP0142
      00260  0734 00 2 00000         PAX     ,2            ..                                         BRKP0143
      00261 -3 00004 2 00041         TXL     BRKRTN,2,4    INSURE USER IN OUTPUT WAIT                 BRKP0144
      00262  0020 00 0 00246         TRA     UNADP1        ..                                         BRKP0145
                                                                                                      BRKP0146
      00263  0 00000 0 00000  BRMQ   PZE                   TEMP. FOR MQ SAVE                          BRKP0147
      00264  0 00000 0 00000  UTEMP  PZE                   USER NO.                                   BRKP0148
      00265  0 00000 0 00000  ADOPTR PZE                   ADOPTER IF ANY                             BRKP0149
                                                                                                      BRKP0150
      00266                          RMT     *                                                        BRKP0152
      00266  314563336057     ..001  BCI     /INT. /                                                  BRKP0152.001
      00267  312745465125     ..003  BCI     /IGNORED./                                               BRKP0152.001
      00271  605064316373     ..005  BCI     / QUIT,/                                                 BRKP0152.001
                                     END                                                              BRKP0154

        LITERALS
      00272  000400000020
1       M1416 3845  PETER R. BOS ...... TYPEWRITER BREAK INTERPRETER .........   07/22/70 1319.2 PAGE 1
                        POST PROCESSOR ASSEMBLY DATA

       72127 IS THE LAST LOCATION NOT USED BY THIS PROGRAM
        273 IS THE FIRST LOCATION NOT USED BY THIS PROGRAM

0REFERENCES TO DEFINED SYMBOLS
      74671     Q0   117,  210
      74670     Q1   223
      74667     Q2    65,   67,  134,  166,  170,  221,  250,  252
      74666     Q3   136
      74664     Q5   231
      75402    IOD   126
      74656    Q11   115
        263   BRMQ    23,   50
         41   BRX1    14
         42   BRX2    15
         43   BRX3    16
         44   BRX4    17
         45   BRX5    20
         46   BRX6    21
         47   BRX7    22
      75065  ADOPT    31,  122,  200
      75207  AWAKE    70,  155,  162,  217
         11  HELLO   131
        266  ..001   151,  267
          1  ..002   151,  267
        267  ..003   173,  271
          2  ..004   173,  271
        271  ..005   213,  272
          1  ..006   213,  272
          2  .WRFX   103,  172,  212
          6  NOTIM   227
      76500  PROBN    73,  107
        177  QUIT.    36
      76041  RCODE   130
          4  RSSRB    77,  144,  204
          5  RSSWB   101,  146,  206
        264  UTEMP    25,   75,  100,  102,  105,  116,  135,  140,  145,  147,  152,  167,  174,  205,  207,  214,  222
                     225,  230,  235
        265 ADOPTR    32,   52,   54,   55,   66,  177,  241,  251,  254,  255,  256
      74454 AUTOND    72,  112
         14 BRKPRC     0
         41 BRKRTN    62,   63,   71,   76,  111,  137,  143,  164,  171,  176,  203,  242,  245,  246,  253,  261
          1 CHKCOM    74
         72 CKCOMD    61
         52 CKINP.    33
        254 CMPLT.    40
      75575 COMMND   132
        140 DIALP1   113
         77 DIALUP    34
          7 ERSUNI   141
      74635 FORCOD   127
        227 HANGP.    37
          2 HUNGBT   233
        172 IGNORE   154,  156
       2000 INTBIT   160
1       M1416 3845  PETER R. BOS ...... TYPEWRITER BREAK INTERPRETER .........   07/22/70 1319.2 PAGE 2
                        POST PROCESSOR ASSEMBLY DATA

        144 INTRPT    35
          3 .WRFXA   150
      75014 OKPROB   123,  216
         10 RDYTIM   224
          0 SCHEDL    64,  114,  133,  165,  220,  247
      77726 STATUS    27,   56,  110,  243,  257
      74534 SYSMSG   236,  240
      75260 UCHARG   125
      75331 UCLOCK   124
        241 UNADOP   226
        246 UNADP1   262
      75646 UNITID   142
      75770 USROPT   121,  201
      75524 USWICH   120,  157,  161,  211,  232,  234

0 NO ERROR IN ABOVE ASSEMBLY.


CPYC8B   BCD 03/04/70 1439.3    5218         00000
1      M1416 3845  PETER R. BOS .... COMMAND SCAN AND SETUP ROUTINES .......     03/04/70 1359.2 PAGE 1

                                     PCC     ON                                                       CPYC0002
                                     NOLNK                                                            CPYC0003
                       00011         ENTRY   CHKCOM        TO SET UP COMMAND (BRKPRC)                 CPYC0004
                       00131         ENTRY   CPYCOM        TO COPY COMMAND LINE INTO BUFFER           CPYC0005
                                     LBL     CPYC0000                                                 CPYC0006
                                     PCC     OFF                                                      CPYC0007
                                                                                                      CPYC0008
                                     EXTERN  COMCHK,CTIME,NBL,RDLINE,RSSRB,SCHEDL                     CPYC0009
                                     EXTERN  SETSWS,SUBSYS,.WRFX                                      CPYC0010
                                                                                                      CPYC0011
                                     UNLIST                                                           CPYC0012

                                                                                                      CPYC0018
                                                                                                      CPYC0019
      00011  0564 00 0 74671  CHKCOM ENB     Q0            ROUTINE TO CHECK FOR CONSOLE COMMAND       CPYC0020
      00012                          SAVE    CK(X1,X2,X4)  SAVE INDEX REGISTERS                       CPYC0021
      00015 -0500 60 4 00001         CAL*    1,4           PICK UP USER NO.                           CPYC0022
      00016  0602 00 0 00321         SLW     UTEMP         ..                                         CPYC0023
      00017  0737 00 1 00000         PAC     ,1            ..                                         CPYC0024
      00020  0074 00 4 00003         TSX     RDLINE,4      READ COMMAND LINE                          CPYC0025
      00021  3 00016 0 00324         PAR     LINE,,WDSLIN  ..                                         CPYC0026
      00022  3 00022 0 00321         PAR     UTEMP,,*      .. DO NOT DELETE LINE                      CPYC0027
      00023  0020 00 0 00106         TRA     CHKXIT        ERROR RETURN, IGNORE                       CPYC0028
      00024 -0500 00 0 00324         CAL     LINE          CHECK FIRST CHARACTER                      CPYC0029
      00025  0771 00 0 00036         ARS     30            ..                                         CPYC0030
      00026  0402 00 0 00344         SUB     =H00000$      IS IT '$'                                  CPYC0031
      00027  0100 00 0 00112         TZE     IGN           .. YES, IS COMMENT LINE                    CPYC0032
      00030  0074 00 4 00177         TSX     PARSE,4       GO PARSE COMMAND LINE                      CPYC0033
      00031  3 00016 0 00324         PAR     LINE,,WDSLIN  ..                                         CPYC0034
      00032  3 00002 0 00322         PAR     WORD,,2       .. ONE WORD (PLUS INEVITABLE FENCE)        CPYC0035
      00033  3 00000 0 00115         PAR     CKLONG        .. END OF LINE RETURN W/O C.R.             CPYC0036
      00034 -0500 00 0 00322  CHKCM0 CAL     WORD          PICK UP FIRST WORD OF COMMAND LINE         CPYC0037
      00035 -0340 00 0 74641         LAS     FENCE         CHECK FOR NULL COMMAND                     CPYC0038
      00036  0020 00 0 00040         TRA     *+2           ..                                         CPYC0039
      00037  0020 00 0 00112         TRA     IGN           .. IGNORE NULL COMMAND LINE ALSO           CPYC0040
      00040  0560 00 0 00347         LDQ     =VO18/UCOMBT+UCMLBT SET COMMAND SWITCHES                 CPYC0041
      00041 -0620 00 0 00323         SLQ     WORD+1        .. FOR CONSOLE COMMAND                     CPYC0042
      00042  0602 00 1 75575  CHKCM1 SLW     COMMND,1      SET UP COMMAND FOR USER                    CPYC0043
      00043  0074 00 4 00000         TSX     COMCHK,4      GO LOOK UP IN TABLE                        CPYC0044
      00044  3 00000 0 00321         PAR     UTEMP         ..                                         CPYC0045
      00045  3 00000 0 00323         PAR     WORD+1        ..                                         CPYC0046
      00046  3 00000 0 00047         PAR     *+1           .. IGNORE POSSIBLE ERROR RETURN            CPYC0047
      00047  0441 00 2 00001         LDI     1,2           PICK UP COMMAND FLAGS                      CPYC0048
      00050 -0054 00  010000         LFT     .SUB          IS THIS COMMAND IMMUNE TO SUBSYSTEM        CPYC0049
      00051  0020 00 0 00064         TRA     CHKCM2        .. YES, SKIP                               CPYC0050
      00052  0441 00 1 75770         LDI     USROPT,1      LOAD USER OPTION BITS                      CPYC0051
      00053  0056 00  000010         RNT     ENBBIT        IS USER SUBSYSTEM ENABLED                  CPYC0052
      00054  0020 00 0 00064         TRA     CHKCM2        .. NO                                      CPYC0053
      00055  0560 00 0 00346         LDQ     =VO18/SB.CMD  INDICATE SUBSYS TRAPPED COMMAND            CPYC0054
      00056 -0620 00 1 76163         SLQ     SUBSWS,1      ..                                         CPYC0055
      00057                          STZBIT  WORD+1,,UCOMBT INDICATE COMMAND ISSUED BY TSS            CPYC0056
      00062 -0500 60 0 00007         CAL*    SUBSYS        PICK UP NAME OF SUBSYS COMMAND             CPYC0057
      00063  0020 00 0 00042         TRA     CHKCM1        GO BACK AND TRY AGAIN                      CPYC0058
      00064  0560 00 0 00323  CHKCM2 LDQ     WORD+1        SET COMMAND SWITCHES FOR USER              CPYC0059
      00065 -0620 00 1 75524         SLQ     USWICH,1      ..                                         CPYC0060
      00066  0441 00 2 00001         LDI     1,2           PICK UP COMMAND FLAGS                      CPYC0061
1      M1416 3845  PETER R. BOS .... COMMAND SCAN AND SETUP ROUTINES .......     03/04/70 1359.2 PAGE 2

      00067 -0056 00  000400         LNT     .LOG          IS THIS COMMAND LOGOUT                     CPYC0062
      00070  0020 00 0 00075         TRA     CHKCM3        .. NO, SKIP                                CPYC0063
      00071                          STLBIT  ,1,LOGTBT     .. YES, SET WAITING LOGOUT BIT             CPYC0064
      00074  0441 00 2 00001         LDI     1,2           RELOAD COMMAND FLAGS                       CPYC0065
      00075 -0054 00  002000  CHKCM3 LFT     .SAV          IS CORE STATUS TO BE PRESERVED             CPYC0066
      00076  0074 00 4 00006         TSX     SETSWS,4      .. YES, RESTORE USER CONSOLE MODE          CPYC0067
      00077  3 00001 0 00321         PAR     UTEMP,,1      .. WITHOUT FLUSHING INPUT                  CPYC0068
      00100                          SCHEDL  Q2,UTEMP,Q3   TELL SCHEDL OF WAITING COMMAND             CPYC0069
      00104  0600 00 1 75207         STZ     AWAKE,1       RESET ALARM CLOCK                          CPYC0070
      00105  0074 00 4 00301         TSX     TPWAIT,4      TYPE WAIT TO USER                          CPYC0071
      00106                   CHKXIT RETURN  (2,4),CK(X1,X2,X4)  RETURN                               CPYC0072
                                                                                                      CPYC0073
      00112  0074 00 4 00004  IGN    TSX     RSSRB,4       HERE FOR NO COMMAND                        CPYC0074
      00113  3 00000 0 00321         PAR     UTEMP         .. RESET LINE                              CPYC0075
      00114  0020 00 0 00106         TRA     CHKXIT        .. RETURN                                  CPYC0076
                                                                                                      CPYC0077
      00115  0520 00 0 00300  CKLONG ZET     FLAG          HAS FIRST WORD BEEN FOUND ALREADY          CPYC0078
      00116  0020 00 0 00034         TRA     CHKCM0        .. YES, PROCESS NORMALLY                   CPYC0079
      00117  0074 00 4 00003         TSX     RDLINE,4      ELSE, DELETE ALL BUT LAST 6 CHARS OF LINE  CPYC0080
      00120  3 00015 0 00324         PAR     LINE,,WDSLIN-1 ..                                        CPYC0081
      00121  3 00000 0 00321         PAR     UTEMP,,0      ..                                         CPYC0082
      00122  0020 00 0 00112         TRA     IGN           .. IGNORE IN CASE NO LINE                  CPYC0083
      00123  0074 00 4 00003         TSX     RDLINE,4      READ NEXT N WORDS                          CPYC0084
      00124  3 00016 0 00324         PAR     LINE,,WDSLIN  ..                                         CPYC0085
      00125  3 00125 0 00321         PAR     UTEMP,,*      .. NOT DELETING THESE                      CPYC0086
      00126  0020 00 0 00244         TRA     ENDLIN        .. EMPTY RETURN, SIMULATE CR               CPYC0087
      00127  0074 00 4 00215         TSX     RPARSE,4      AND CONTINUE SCAN FROM THERE               CPYC0088
      00130  3 00015 0 00325         PAR     LINE+1,,WDSLIN-1  .. DO NOT RE-SCAN FIRST WORD           CPYC0089
1      M1416 3845  PETER R. BOS .... COMMAND SCAN AND SETUP ROUTINES .......     03/04/70 1359.2 PAGE 3

                                                                                                      CPYC0091
      00131                   CPYCOM SAVE    CP(X1,X4)     HERE TO COPY COMMAND INTO BUFFER           CPYC0092
      00133  0535 00 1 74502         LAC     USER,1        .. FOR CURRENT USER (CMPROC)               CPYC0093
      00134                          ZETBIT  UCOMSW,,UCBFBT IS COMMAND ALREADY SET UP                 CPYC0094
      00136  0020 00 0 00163         TRA     CPYRTN        .. YES                                     CPYC0095
      00137 -0056 00  000400         LNT     UCMLBT        .. NO, WAS IT ISSUED BY USER               CPYC0096
      00140  0020 00 0 00155         TRA     FAKE          .. NO, GO MAGIC UP A COMMAND BUFFER        CPYC0097
                                                                                                      CPYC0098
      00141  0074 00 4 00003         TSX     RDLINE,4      READ LINE FROM INPUT BUFFER                CPYC0099
      00142  3 00016 0 00324         PAR     LINE,,WDSLIN  ..                                         CPYC0100
      00143  3 00000 0 74502         PAR     USER,,0       .. DELETE IT THIS TIME                     CPYC0101
      00144  0020 00 0 00174         TRA     CPYERR        .. BUFFER EMPTY RETURN (USER QUIT)         CPYC0102
      00145  0074 00 4 00177         TSX     PARSE,4       GO SCAN LINE                               CPYC0103
      00146  3 00016 0 00324         PAR     LINE,,WDSLIN  ..                                         CPYC0104
      00147  3 00024 0 74415         PAR     COMBUF,,LCBUF .. WHOLE COMMAND THIS TIME                 CPYC0105
      00150  3 00000 0 00166         PAR     CPYMOR        .. INCOMPLETE LINE RETURN                  CPYC0106
      00151                          STLBIT  UCOMSW,,UCBFBT INDICATE USER COMMAND IN BUFFER           CPYC0107
      00154  0020 00 0 00160         TRA     CPYXIT        NORMAL RETURN, EXIT                        CPYC0108
                                                                                                      CPYC0109
      00155  0500 00 0 74414  FAKE   CLA     UCOMND        HERE FOR SUPERVISOR ISSUED COMMAND         CPYC0110
      00156  0560 00 0 74641         LDQ     FENCE         .. FUDGE UP COMMAND BUFFER                 CPYC0111
      00157 -0603 00 0 74415         DST     COMBUF        ..                                         CPYC0112
                                                                                                      CPYC0113
      00160  0564 00 0 77777  CPYXIT ENB     ENBWD         ENABLE FOR ALL TRAPS                       CPYC0114
      00161 -0774 00 4 74415         AXC     COMBUF,4      SET UP POINTER TO COMMAND BUFFER           CPYC0115
      00162  0636 00 4 74441         SCA     COMPTR,4      ..                                         CPYC0116
      00163                   CPYRTN RETURN  (2,4),CP(X1,X4)  RETURN TO MAIN CONTROL                  CPYC0117
                                                                                                      CPYC0118
      00166  0074 00 4 00003  CPYMOR TSX     RDLINE,4      HERE FOR INCOMPLETE LINE RETURN FROM PARSE CPYC0119
      00167  3 00016 0 00324         PAR     LINE,,WDSLIN  .. READ SOME MORE                          CPYC0120
      00170  3 00000 0 74502         PAR     USER,,0       ..                                         CPYC0121
      00171  0020 00 0 00244         TRA     ENDLIN        .. UNLIKELY ERROR RETURN                   CPYC0122
      00172  0074 00 4 00215         TSX     RPARSE,4      AND CONTINUE WITH SCAN OF LINE             CPYC0123
      00173  3 00016 0 00324         PAR     LINE,,WDSLIN  ..                                         CPYC0124
                                                                                                      CPYC0125
      00174                   CPYERR RESTOR  CP(X1,X4)     ERROR EXIT                                 CPYC0126
      00176  0020 60 4 00001         TRA*    1,4           ..                                         CPYC0127
1      M1416 3845  PETER R. BOS .... COMMAND SCAN AND SETUP ROUTINES .......     03/04/70 1359.2 PAGE 4

                                                                                                      CPYC0129
      00177  0634 00 4 00252  PARSE  SXA     PX4,4         ROUTINE TO PARSE LINE                      CPYC0130
      00200 -0500 00 0 74642         CAL     BLANKS        INITIALIZE                                 CPYC0131
      00201  0602 00 0 00276         SLW     TEMP          ..                                         CPYC0132
      00202 -0625 00 0 00277         STL     BLNK          ..                                         CPYC0133
      00203  0600 00 0 00300         STZ     FLAG          ..                                         CPYC0134
      00204 -0500 00 4 00002         CAL     2,4           PICK UP BUFFER LOCATION                    CPYC0135
      00205 -0734 00 5 00000         PDX     ,5            ..                                         CPYC0136
      00206  0754 00 5 00000         PXA     ,5            ..                                         CPYC0137
      00207  1 00001 5 00210         TXI     *+1,5,1       .. MAKE TNX WORK RIGHT                     CPYC0138
      00210  0361 00 4 00002         ACL     2,4           ..                                         CPYC0139
      00211  0621 00 0 00265         STA     PUT           ..                                         CPYC0140
      00212 -0500 00 4 00003         CAL     3,4           GET END OF LINE RETURN                     CPYC0141
      00213  0621 00 0 00243         STA     EMPTY         ..                                         CPYC0142
      00214  0020 00 0 00216         TRA     *+2           .. SKIP RPARSE AXT                         CPYC0143
      00215  0774 00 5 00000  RPARSE AXT     -,5           REENTRY FOR NEW LINE                       CPYC0144
      00216 -0500 00 4 00001         CAL     1,4           GET LINE LOCATION AND WORD COUNT           CPYC0145
      00217 -0734 00 7 00000         PDX     ,7            ..                                         CPYC0146
      00220  0754 00 7 00000         PXA     ,7            ..                                         CPYC0147
      00221  0361 00 4 00001         ACL     1,4           ..                                         CPYC0148
      00222  0621 00 0 00224         STA     GET           .. SAVE ADDRESS                            CPYC0149
                                                                                                      CPYC0150
      00223  0774 00 6 00006  WRD    AXT     6,6           SIX CHARACTERS PER WORD                    CPYC0151
      00224  0560 00 7 00000  GET    LDQ     -,7           PICK UP NEXT WORD TO SCAN                  CPYC0152
      00225 -0500 00 0 00276  CHR    CAL     TEMP          HERE FOR NEXT CHAR, RESTORE PREVIOUS RESULTCPYC0153
      00226 -0763 00 0 00006         LGL     6             SHIFT OUT A CHARACTER                      CPYC0154
      00227  0044 00 0 00000         PAI                   SAVE AC                                    CPYC0155
      00230 -0320 00 0 00345         ANA     =O77          MASK THIS CHARACTER                        CPYC0156
      00231  0774 00 4 00006         AXT     NSPCHR,4      LOOK FOR IT IN TABLE OF CONTROL CHARACTERS CPYC0157
      00232 -0340 00 4 00276         LAS     SPCHR,4       ..                                         CPYC0158
      00233  0020 00 0 00235         TRA     *+2           ..                                         CPYC0159
      00234  0020 60 4 00277         TRA*    SPCHR+1,4     .. SPECIAL CHAR. FOUND, GO DO IT           CPYC0160
      00235  2 00002 4 00232         TIX     *-3,4,2       ..                                         CPYC0161
      00236  0604 00 0 00276         STI     TEMP          NORMAL CHARACTER, SAVE NEW RESULT          CPYC0162
      00237  0600 00 0 00277         STZ     BLNK          RESET BLANK WORD INDICATOR                 CPYC0163
      00240  2 00001 6 00225  TIX    TIX     CHR,6,1       AND GO GET NEXT CHARACTER                  CPYC0164
      00241  2 00001 7 00223         TIX     WRD,7,1       OR NEXT WORD IF OUT OF CHARACTERS          CPYC0165
                                                                                                      CPYC0166
      00242  0634 00 5 00215         SXA     RPARSE,5      HERE WHEN BUFFER EMPTY, SAVE X5            CPYC0167
      00243  0020 00 0 00000  EMPTY  TRA     -             TAKE LINE EMPTY RETURN                     CPYC0168
                                                                                                      CPYC0169
      00244  0534 00 5 00215  ENDLIN LXA     RPARSE,5      END OF LINE W/O CARR. RET.                 CPYC0170
                                                                                                      CPYC0171
      00245  0074 00 4 00261  ENDIN  TSX     STWRD,4       HERE FOR CARRIAGE RETURN                   CPYC0172
      00246 -2 00001 5 00247         TNX     *+1,5,1       .. DECREMENT COUNTER                       CPYC0173
      00247 -0500 00 0 74641         CAL     FENCE         .. INSURE FENCE IS LAST ARGUMENT           CPYC0174
      00250  0522 00 0 00265         XEC     PUT           ..                                         CPYC0175
      00251  2 00001 5 00250         TIX     *-1,5,1       .. FILL OUT REMAINDER OF BUFFER            CPYC0176
      00252  0774 00 4 00000  PX4    AXT     -,4           RESTORE X4                                 CPYC0177
      00253  0020 00 4 00004         TRA     4,4           RETURN NORMALLY                            CPYC0178
                                                                                                      CPYC0179
      00254  0074 00 4 00261  BLANK  TSX     STWRD,4       HERE FOR BLANK IN LINE, STORE CURRENT WORD CPYC0180
      00255 -0500 00 0 74642         CAL     BLANKS        RESET TEMPORARY WORD                       CPYC0181
      00256  0602 00 0 00276         SLW     TEMP          ..                                         CPYC0182
      00257 -0625 00 0 00277         STL     BLNK          INDICATE BLANK FOUND                       CPYC0183
      00260  0020 00 0 00240         TRA     TIX           KEEP LOOKING                               CPYC0184
1      M1416 3845  PETER R. BOS .... COMMAND SCAN AND SETUP ROUTINES .......     03/04/70 1359.2 PAGE 5

                                                                                                      CPYC0185
      00261  0520 00 0 00277  STWRD  ZET     BLNK          ROUTINE TO STORE WORD IN BUFFER            CPYC0186
      00262  0020 00 4 00001         TRA     1,4           EXIT FOR REDUNDANT BLANKS                  CPYC0187
      00263 -2 00001 5 00262         TNX     *-1,5,1       EXIT IF BUFFER FILLED                      CPYC0188
      00264 -0500 00 0 00276         CAL     TEMP          GET THIS WORD                              CPYC0189
      00265  0602 00 5 00000  PUT    SLW     -,5           PUT IT AWAY                                CPYC0190
      00266 -0625 00 0 00300         STL     FLAG          INDICATE WORD FOUND                        CPYC0191
      00267  0020 00 4 00001         TRA     1,4           RETURN                                     CPYC0192
                                                                                                      CPYC0193
                       00270  TSPCHR SYN     *             TABLE OF CONTROL CHARACTERS FOR PARSE      CPYC0194
      00270 +000000000055            OCT     55            CARRIAGE RETURN                            CPYC0195
      00271  0020 00 0 00245         TRA     ENDIN         .. ENDS LINE                               CPYC0196
      00272 +000000000057            OCT     57            NULL (UNLIKELY)                            CPYC0197
      00273  0020 00 0 00240         TRA     TIX           .. IS IGNORED                              CPYC0198
      00274 +000000000060            OCT     60            BLANK                                      CPYC0199
      00275  0020 00 0 00254         TRA     BLANK         .. MARKS WORD                              CPYC0200
                       00276  SPCHR  SYN     *             ..                                         CPYC0201
                       00006  NSPCHR EQU     *-TSPCHR      TABLE COUNT                                CPYC0202
                                                                                                      CPYC0203
      00276  0 00000 0 00000  TEMP   PZE                                                              CPYC0204
      00277  0 00000 0 00000  BLNK   PZE                                                              CPYC0205
      00300  0 00000 0 00000  FLAG   PZE                                                              CPYC0206
1      M1416 3845  PETER R. BOS .... COMMAND SCAN AND SETUP ROUTINES .......     03/04/70 1359.2 PAGE 6

                                                                                                      CPYC0208
      00301  0634 00 4 00317  TPWAIT SXA     TX4,4         ROUTINE TO TYPE 'W HHMM.M' AT USER         CPYC0209
      00302  0560 00 0 74476         LDQ     TIMNOW        GET TIME OF DAY                            CPYC0210
      00303  0074 00 4 00001         TSX     CTIME,4       .. CONVERT                                 CPYC0211
      00304  0074 00 4 00002         TSX     NBL,4         STRIP LEADING BLANK IF ANY                 CPYC0212
      00305 -0765 00 0 00014         LGR     12            ..                                         CPYC0213
      00306 -0501 00 0 00350         ORA     =HW 0000      PUT IN W (WAIT)                            CPYC0214
      00307  0602 00 0 00342         SLW     HOUR.         ..                                         CPYC0215
      00310 -0500 00 0 74643         CAL     NULLS         FILL OUT SECOND WORD WITH NULLS            CPYC0216
      00311 -0763 00 0 00014         LGL     12            ..                                         CPYC0217
      00312  0602 00 0 00343         SLW     HOUR.+1       ..                                         CPYC0218
      00313                          WTYPE   UTEMP,(/W HHMM.M/),HOUR.                                 CPYC0219
      00317  0774 00 4 00000  TX4    AXT     -,4           RESTORE X4                                 CPYC0220
      00320  0020 00 4 00001         TRA     1,4           RETURN                                     CPYC0221
                                                                                                      CPYC0222
                                                                                                      CPYC0223
      00321  0 00000 0 00000  UTEMP  PZE                   USER NO.                                   CPYC0224
      00322                   WORD   BSS     2             TEMPORARY BUFFER FOR CHKCOM                CPYC0225
      00324                   LINE   BSS     WDSLIN        BUFFER FOR INPUT LINE                      CPYC0226
                                                                                                      CPYC0227
      00342                          RMT     *                                                        CPYC0230
      00342  666030304444     HOUR.  BCI     /W HHMM.M/                                               CPYC0230.001
                                                                                                      CPYC0232
                                     END                                                              CPYC0233

        LITERALS
      00344  000000000053
      00345  000000000077
      00346  000001000000
      00347  000500000000
      00350  666000000000
1      M1416 3845  PETER R. BOS .... COMMAND SCAN AND SETUP ROUTINES .......     03/04/70 1359.2 PAGE 1
                        POST PROCESSOR ASSEMBLY DATA

       72127 IS THE LAST LOCATION NOT USED BY THIS PROGRAM
        351 IS THE FIRST LOCATION NOT USED BY THIS PROGRAM

0REFERENCES TO DEFINED SYMBOLS
      74671     Q0    11
      74667     Q2   101
      74666     Q3   103
        225    CHR   240
        224    GET   222
        112    IGN    27,   37,  122
          2    NBL   304
        265    PUT   211,  250
        252    PX4   177
        240    TIX   260,  273
        317    TX4   301
        223    WRD   241
        277   BLNK   202,  237,  257,  261
        106   CKX1    12
        107   CKX2    13
        110   CKX4    14
        163   CPX1   131,  174
        164   CPX4   132,  175
        155   FAKE   140
        300   FLAG   115,  203,  266
        400   .LOG    67
       2000   .SAV    75
      10000   .SUB    50
        324   LINE    21,   24,   31,  120,  124,  130,  142,  146,  167,  173
        276   TEMP   201,  225,  236,  256,  264
      74502   USER   133,  143,  170
        322   WORD    32,   34,   41,   45,   57,   61,   64
      75207  AWAKE   104
        254  BLANK   275
          1  CTIME   303
        243  EMPTY   213
      77777  ENBWD   160
        245  ENDIN   271
      74641  FENCE    35,  156,  247
        342  HOUR.   307,  312,  314,  344
          2  ..001   314,  344
         10  .WRFX   313
         24  LCBUF   147
      74643  NULLS   310
        177  PARSE    30,  145
          4  RSSRB   112
        276  SPCHR   232,  234,  276
        261  STWRD   245,  254
        321  UTEMP    16,   22,   44,   77,  102,  113,  121,  125,  315
      74642 BLANKS   200,  255
         34 CHKCM0   116
         42 CHKCM1    63
         64 CHKCM2    51,   54
         75 CHKCM3    70
         11 CHKCOM     0
1      M1416 3845  PETER R. BOS .... COMMAND SCAN AND SETUP ROUTINES .......     03/04/70 1359.2 PAGE 2
                        POST PROCESSOR ASSEMBLY DATA

        106 CHKXIT    23,  114
        115 CKLONG    33
      74415 COMBUF   147,  157,  161
          0 COMCHK    43
      75575 COMMND    42
      74441 COMPTR   162
        131 CPYCOM     0
        174 CPYERR   144
        166 CPYMOR   150
        163 CPYRTN   136
        160 CPYXIT   154
         10 ENBBIT    53
        244 ENDLIN   126,  171
      10000 LOGTBT    72
          6 NSPCHR   231,  276
          3 RDLINE    20,  117,  123,  141,  166
        215 RPARSE   127,  172,  242,  244
          5 SCHEDL   100
          6 SETSWS    76
      76163 SUBSWS    56
          7 SUBSYS    62
      74476 TIMNOW   302
        301 TPWAIT   105
        270 TSPCHR   270,  276
       1000 UCBFBT   135,  152
        400 UCMLBT   137
        100 UCOMBT    60
      74414 UCOMND   155
      74413 UCOMSW   134,  151,  153
      75770 USROPT    52
      75524 USWICH    65,   71,   73
         16 WDSLIN    21,   31,  120,  124,  130,  142,  146,  167,  173,  324

0 NO ERROR IN ABOVE ASSEMBLY.


COMC8G   BCD 07/05/71 1912.7   12328         00000
1      M1416 3845  PETER R. BOS .... COMMAND DIRECTORY SEARCH .. COMCHK ....     07/05/71 1908.3 PAGE 1

                                     PCC     ON                                                       COMC0002
                                     NOLNK                                                            COMC0003
                       00025         ENTRY   COMCHK        TO CHECK COMMAND TYPE (TRAP TIME)          COMC0004
                       00117         ENTRY   COMSCH        TO SEARCH COMMAND DIRECTORY (CMPROC)       COMC0005
                       00235         ENTRY   INIT          INITIALIZATION COMMAND                     COMC0006
                       00241         ENTRY   HELLO         DIALUP COMMAND                             COMC0007
                       00251         ENTRY   LOGIN         LOGIN COMMAND                              COMC0008
                       00265         ENTRY   ENDLOG        ENDLOG COMMAND                             COMC0009
                       00271         ENTRY   Q             QUIT COMMAND                               COMC0010
                       00275         ENTRY   START         START COMMAND                              COMC0011
                       00261         ENTRY   OTOLOG        OTOLOG COMMAND                             COMC0012
                       00351         ENTRY   SUBSYS        SUBSYS COMMAND                             COMC0013
                       00645         ENTRY   COMDIR        POINTER TO COMMAND TABLE                   COMC0014
                                     LBL     COMC0000                                                 COMC0015
                                     PCC     OFF                                                      COMC0016
                                                                                                      COMC0017
                                     EXTERN  CHNGUS,SETAB,ATTFIL,FSTATE,DEAD                          COMC0018
                                                                                                      COMC0019
                                     EXTERN  SAVE.,MSAVE.,START.,RSTRT.,RSUME.                        COMC0020
                                     EXTERN  RSTOR.,RCALL.,DO.,RSETF.,SBSYS.                          COMC0021
                                     EXTERN  CNTIN.,ENDLG.                                            COMC0022
                                                                                                      COMC0023
                                     EXTERN  TKFPM.,LDCRD.,BKSTP.,BKDIE.                              COMC0024
                                                                                                      COMC0025
                                     UNLIST                                                           COMC0026

                                                                                                      COMC0032
                                                                                                      COMC0033
      00025  0564 00 0 74671  COMCHK ENB     Q0            DISABLE ALL TRAPS TO PREVENT REENTRY       COMC0034
      00026                          SAVE    CK(X1,X4)     SAVE XRS                                   COMC0035
      00030  0602 00 0 00635         SLW     DENTRY        SAVE COMMAND NAME IN DEFAULT ENTRY         COMC0036
      00031  0602 00 0 00641         SLW     UENTRY        ..                                         COMC0037
      00032  0560 60 4 00001         LDQ*    1,4           PICK UP USERNO                             COMC0038
      00033 -0600 00 0 00661         STQ     UTEMP         .. SAVE                                    COMC0039
      00034  0535 00 1 00661         LAC     UTEMP,1       .. AND PLACE IN X1                         COMC0040
                                                                                                      COMC0041
      00035  0774 00 2 00410         AXT     CSIZE,2       SEARCH COMMAND TABLE                       COMC0042
      00036 -0340 00 2 00645         LAS     CTABLE,2      .. FOR USER COMMAND                        COMC0043
      00037  0020 00 0 00041         TRA     *+2           ..                                         COMC0044
      00040  0020 00 0 00044         TRA     COMCK2        .. SKIP                                    COMC0045
      00041  2 00004 2 00036  COMCK1 TIX     *-3,2,4       ..                                         COMC0046
                                                                                                      COMC0047
      00042  0560 00 0 74670         LDQ     Q1            HERE IF COMMAND NOT FOUND                  COMC0048
      00043  0020 00 0 00103         TRA     CKXIT         .. EXIT                                    COMC0049
                                                                                                      COMC0050
      00044  0441 00 1 76041  COMCK2 LDI     RCODE,1       PICK UP USER RESTRICTION CODE              COMC0051
      00045  0446 60 2 00646         ONT*    CTABLE+1,2    CHECK AGAINST RESTRICTION CODE MASK        COMC0052
      00046  0020 00 0 00115         TRA     COMCK7        USER MAY NOT USE COMMAND, SKIP             COMC0053
                                                                                                      COMC0054
      00047  0441 60 4 00002         LDI*    2,4           PICK UP COMMAND FLAGS                      COMC0055
      00050 -0056 00  000100         LNT     UCOMBT        WAS COMMAND ISSUED BY USER                 COMC0056
      00051  0020 00 0 00055         TRA     COMCK3        .. NO, SKIP                                COMC0057
      00052  0441 00 2 00646         LDI     CTABLE+1,2    .. PICK UP COMMAND FLAGS FROM TABLE        COMC0058
      00053 -0056 00  000040         LNT     .USR          .. MAY COMMAND BE ISSUED BY USER           COMC0059
      00054  0020 00 0 00115         TRA     COMCK7        .. NO, IGNORE THIS ENTRY                   COMC0060
                                                                                                      COMC0061
1      M1416 3845  PETER R. BOS .... COMMAND DIRECTORY SEARCH .. COMCHK ....     07/05/71 1908.3 PAGE 2

      00055  0560 00 0 74667  COMCK3 LDQ     Q2            ERROR CODE FOR USER NOT LOGGED IN          COMC0062
      00056  0441 00 2 00646         LDI     CTABLE+1,2    LOAD COMMAND FLAGS                         COMC0063
      00057 -0054 00  000200         LFT     .LGT          MAY COMMAND BE USED WHEN LOGGED OUT        COMC0064
      00060  0020 00 0 00063         TRA     COMCK4        .. YES, SKIP                               COMC0065
      00061 -0520 00 1 76500         NZT     PROBN,1       .. NO, IS USER LOGGED OUT                  COMC0066
      00062  0020 00 0 00103         TRA     CKXIT         .. YES, ERROR                              COMC0067
                                                                                                      COMC0068
      00063  0560 00 0 74666  COMCK4 LDQ     Q3            ERROR CODE FOR USER NOT LOGGED OUT         COMC0069
      00064 -0054 00  000100         LFT     .LGN          MAY COMMAND BE USED WHEN LOGGED IN         COMC0070
      00065  0020 00 0 00070         TRA     COMCK5        .. YES, SKIP                               COMC0071
      00066  0520 00 1 76500         ZET     PROBN,1       .. NO, SEE IF USER LOGGED IN               COMC0072
      00067  0020 00 0 00103         TRA     CKXIT         .. YES, ERROR                              COMC0073
                                                                                                      COMC0074
      00070  0560 00 0 74665  COMCK5 LDQ     Q4            ERROR CODE FOR NO CORE IMAGE               COMC0075
      00071 -0056 00  000020         LNT     .MEM          IS CORE IMAGE NEEDED                       COMC0076
      00072  0020 00 0 00102         TRA     COMCK6        .. NO, SKIP                                COMC0077
      00073 -0500 00 1 75402         CAL     IOD,1         .. YES, SEE IF USER HAS CORE IMAGE         COMC0078
      00074 -0734 00 4 00000         PDX     ,4            ..                                         COMC0079
      00075 -0500 00 0 00661         CAL     UTEMP         IF CURRENT USER, CHECK MEMBND              COMC0080
      00076  0402 00 0 74502         SUB     USER          ..                                         COMC0081
      00077  0100 00 0 00101         TZE     *+2           ..                                         COMC0082
      00100  0534 00 4 72161         LXA     MEMBND,4      ..                                         COMC0083
      00101 -3 00000 4 00103         TXL     CKXIT,4,0     .. NO CORE IMAGE, COMMAND MAY NOT BE USED  COMC0084
                                                                                                      COMC0085
      00102  0560 00 0 74671  COMCK6 LDQ     Q0            HERE IF COMMAND FOUND, NO ERROR            COMC0086
                                                                                                      COMC0087
      00103                   CKXIT  RESTOR  CK(X1,X4),*   RESTORE XRS                                COMC0088
      00105  0756 00 2 00000         PCA     ,2            SET POINTER TO COMMAND ENTRY IN X2         COMC0089
      00106  0734 00 2 00000         PAX     ,2            ..                                         COMC0090
      00107  1 00645 2 00110         TXI     *+1,2,CTABLE  ..                                         COMC0091
      00110  0754 00 2 00000         PXA     ,2            ..                                         COMC0092
      00111  0737 00 2 00000         PAC     ,2            .. COMPLEMENTED                            COMC0093
      00112 -0130 00 0 00000         XCL                   GET ERROR CODE IF ANY TO AC                COMC0094
      00113  0100 00 4 00004         TZE     4,4           NORMAL RETURN                              COMC0095
      00114  0020 60 4 00003         TRA*    3,4           ERROR RETURN                               COMC0096
                                                                                                      COMC0097
      00115  0600 00 0 00635  COMCK7 STZ     DENTRY        HERE TO IGNORE ILLEGAL COMMAND             COMC0098
      00116  0020 00 0 00041         TRA     COMCK1        REFUSE TO LOAD SYSTEM COMMAND OF THIS NAME COMC0099
1      M1416 3845  PETER R. BOS .... COMMAND DIRECTORY SEARCH .. COMCHK ....     07/05/71 1908.3 PAGE 3

                                                                                                      COMC0101
                                                                                                      COMC0102
      00117                   COMSCH SAVE    CM(X1,X4)     COMMAND SEARCH, SAVE XRS                   COMC0103
      00121  0535 00 1 74502         LAC     USER,1        GET USER NO. OF CURRENT USER               COMC0104
      00122 -0500 00 0 74414         CAL     UCOMND        PICK UP USER COMMAND NAME                  COMC0105
      00123  0074 00 4 00025         TSX     COMCHK,4      GO LOOK IN TABLE                           COMC0106
      00124  3 00000 0 74502         PAR     USER          ..                                         COMC0107
      00125  3 00000 0 74413         PAR     UCOMSW        ..                                         COMC0108
      00126  3 00000 0 00226         PAR     ERRTN         .. POSSIBLE ERROR RETURN                   COMC0109
      00127  0564 00 0 77777         ENB     ENBWD         REENABLE FOR ALL TRAPS                     COMC0110
      00130  0441 00 2 00001         LDI     1,2           IS THIS A DISK LOADED COMMAND              COMC0111
      00131 -0056 00  000002         LNT     .DSK          ..                                         COMC0112
      00132  0020 00 0 00232         TRA     FOUND         .. NO, SKIP DISK SEARCH                    COMC0113
      00133 -0500 00 0 74414         CAL     UCOMND        PICK UP COMMAND NAME                       COMC0114
      00134  0774 00 4 00012         AXT     NCOM,4        CHECK FOR RESTRICTED TSSDC. NAME           COMC0115
      00135 -0340 00 4 00660         LAS     COMNAM+NCOM,4 ..                                         COMC0116
      00136  0020 00 0 00140         TRA     *+2           ..                                         COMC0117
      00137 -0774 00 2 00641         AXC     UENTRY,2      .. IF SO, LOAD FROM USER FILES ONLY        COMC0118
      00140  2 00001 4 00135         TIX     *-3,4,1       ..                                         COMC0119
      00141  0500 60 2 00002         CLA*    2,2           PICK UP TSSDC. NAME                        COMC0120
      00142 -0100 00 0 00144         TNZ     *+2           .. CHECK FOR '-0'                          COMC0121
      00143 -0120 00 0 00225         TMI     NOTCOM        .. '-0' GIVES FSTATE ERROR                 COMC0122
      00144  0601 00 0 00660         STO     FILE.         SAVE TSSDC. NAME                           COMC0123
      00145                          SETAB   LA,LA,LA      SET MEMORY SWITCHES                        COMC0124
      00151  0441 00 2 00001         LDI     1,2           PICK UP COMMAND FLAGS                      COMC0125
      00152 -0054 00  000004         LFT     .SYS          SEE IF COMMAND MUST COME FROM SYSTEM FILES COMC0126
      00153  0020 00 0 00203         TRA     CKSYSF        .. YES, IGNORE USER PRIVATE VERSION        COMC0127
      00154  0441 00 1 76041         LDI     RCODE,1       GET USER RESTRICTION CODE                  COMC0128
      00155  0054 00  000200         RFT     RDSKBT        IS USER DISK-RESTRICTED                    COMC0129
      00156 -0774 00 2 00641         AXC     UENTRY,2      IF SO, MAY LOAD ONLY FROM OWN UFD          COMC0130
      00157                          NZTBIT  USROPT,1,,UFLBIT ARE WE TO SEARCH USER UFD FIRST         COMC0131
      00161  0020 00 0 00203         TRA     CKSYSF        .. NO, GO LOOK IN SYSTEM FILES             COMC0132
                                                                                                      COMC0133
      00162 -0520 00 1 76500  CKUSRF NZT     PROBN,1       HERE TO SEARCH USER DIRECTORY              COMC0134
      00163  0020 00 0 00177         TRA     NOUSRF        .. DIFFICULT IF NOT LOGGED IN              COMC0135
      00164 -0500 00 1 76500         CAL     PROBN,1       ATTACH USER TO OWN FILES                   COMC0136
      00165  0560 00 1 76305         LDQ     UFDNM,1       ..                                         COMC0137
      00166  0074 00 4 00002         TSX     ATTFIL,4      ..                                         COMC0138
      00167  0020 00 0 00177         TRA     NOUSRF        .. POSSIBLE ERROR                          COMC0139
      00170                          CALL    FSTATE(UCOMND,SAVED,M0,NOUSRF)                           COMC0140
      00175 -0774 00 2 00641         AXC     UENTRY,2      FILE EXISTS, POINT AT DUMMY ENTRY          COMC0141
      00176  0020 00 0 00232         TRA     FOUND         .. SKIP                                    COMC0142
      00177  0441 00 1 75770  NOUSRF LDI     USROPT,1      PICK UP USER OPTIONS                       COMC0143
      00200  0056 00  000002         RNT     UFLBT         MAY WE SEARCH SYSTEM FILES ALSO            COMC0144
      00201  0056 00  000001         RNT     UFLBIT        .. ONLY IF WE HAVEN'T ALREADY              COMC0145
      00202  0020 00 0 00225         TRA     NOTCOM        .. NO, COMMAND NOT FOUND                   COMC0146
                                                                                                      COMC0147
      00203  0441 00 2 00001  CKSYSF LDI     1,2           HERE TO SEARCH TSS SYSTEM FILES            COMC0148
      00204 -0054 00  001000         LFT     .UFL          .. ARE WE ALLOWED                          COMC0149
      00205  0020 00 0 00216         TRA     NOSYSF        .. NO, SKIP SYSTEM FILE SEARCH             COMC0150
      00206                          CALL    CHNGUS(Q1)    SET TSS TO BE DISK USER                    COMC0151
      00210                          CALL    FSTATE(FILE.,TSSDC.,M0,NOSYSF)                           COMC0152
      00215  0020 00 0 00232         TRA     FOUND         .. FILE FOUND, SKIP                        COMC0153
      00216  0441 00 2 00001  NOSYSF LDI     1,2           FILE NOT IN TSS FILES, RELOAD FLAGS        COMC0154
      00217 -0054 00  000004         LFT     .SYS          IS THIS SYSTEM-FILES-ONLY COMMAND          COMC0155
      00220  0020 00 0 00225         TRA     NOTCOM        .. YES, COMMAND NOT FOUND                  COMC0156
1      M1416 3845  PETER R. BOS .... COMMAND DIRECTORY SEARCH .. COMCHK ....     07/05/71 1908.3 PAGE 4

      00221  0441 00 1 75770         LDI     USROPT,1      GET USER OPTIONS                           COMC0157
      00222  0054 00  000003         RFT     UFLBIT+UFLBT  MAY WE SEARCH USER FILES ALSO              COMC0158
      00223  0020 00 0 00225         TRA     NOTCOM        .. NO OR ALREADY HAVE                      COMC0159
      00224  0020 00 0 00162         TRA     CKUSRF        .. YES                                     COMC0160
                                                                                                      COMC0161
      00225 -0500 00 0 74670  NOTCOM CAL     Q1            HERE FOR DISK COMMAND NOT FOUND            COMC0162
      00226                   ERRTN  RESTOR  CM(X1,X4)     RESTORE XRS                                COMC0163
      00230  0564 00 0 77777         ENB     ENBWD         REENABLE AFTER COMCHK                      COMC0164
      00231  0020 60 4 00001         TRA*    1,4           GIVE ERROR RETURN                          COMC0165
                                                                                                      COMC0166
      00232                   FOUND  RETURN  (2,4),CM(X1,X4) COMMAND FOUND, RETURN                    COMC0167
1      M1416 3845  PETER R. BOS .... COMMAND DIRECTORY SEARCH .. COMCHK ....     07/05/71 1908.3 PAGE 5

                                                                                                      COMC0169
                                                                                                      COMC0170
                                             ABBREVIATED COMMAND DIRECTORY                            COMC0171
                                                                                                      COMC0172
                                                                                                      COMC0173
                      000024  STARTL BOOL    24            STARTING LOCATION FOR DISK COMMANDS        COMC0174
                                                                                                      COMC0175
                       00235  TOP    SYN     *             DEFINE TOP OF COMMAND TABLE                COMC0176
                                                                                                      COMC0177
                                                                                                      COMC0178
                              *      SYSTEM INITIALIZATION                                            COMC0179
                                                                                                      COMC0180
      00235  606031453163     INIT   BCI     1,  INIT                                                 COMC0181
      00236  0 00212 0 00666         PZE     RFMS,,.DSK+.CPY+.LGT                                     COMC0182
      00237  0 00024 0 00646         PZE     SINIT,,STARTL                                            COMC0183
      00240  0 00400 0 00662         PZE     PRVCOM,,NINTBT                                           COMC0184
                                                                                                      COMC0185
                                                                                                      COMC0186
                              *      LOGIN, LOGOUT, ETC.                                              COMC0187
                                                                                                      COMC0188
      00241  603025434346     HELLO  BCI     1, HELLO                                                 COMC0189
      00242  0 00356 0 74671         PZE     Q0,,.DSK+.SYS+.CPY+.USR+.LGN+.LGT                        COMC0190
      00243  0 00024 0 00650         PZE     SHELO,,STARTL                                            COMC0191
      00244  0 00000 0 74671         PZE     Q0,,0                                                    COMC0192
      00245  606024312143     DIAL   BCI     1,  DIAL                                                 COMC0193
      00246  0 00256 0 74671         PZE     Q0,,.DSK+.SYS+.CPY+.USR+.LGT                             COMC0194
      00247  0 00024 0 00651         PZE     SDIAL,,STARTL                                            COMC0195
      00250  0 00000 0 00662         PZE     PRVCOM,,0                                                COMC0196
      00251  604346273145     LOGIN  BCI     1, LOGIN                                                 COMC0197
      00252  0 00356 0 74671         PZE     Q0,,.DSK+.SYS+.CPY+.USR+.LGN+.LGT                        COMC0198
      00253  0 00024 0 00652         PZE     SLOGN,,STARTL                                            COMC0199
      00254  0 00000 0 00662         PZE     PRVCOM,,0                                                COMC0200
      00255  434627466463     LOGOUT BCI     1,LOGOUT                                                 COMC0201
      00256  0 00556 0 74671         PZE     Q0,,.DSK+.SYS+.CPY+.USR+.LGN+.LOG                        COMC0202
      00257  0 00024 0 00653         PZE     SLOGT,,STARTL                                            COMC0203
      00260  0 00400 0 00662         PZE     PRVCOM,,NINTBT                                           COMC0204
      00261  466346434627     OTOLOG BCI     1,OTOLOG                                                 COMC0205
      00262  0 00516 0 74671         PZE     Q0,,.DSK+.SYS+.CPY+.LGN+.LOG                             COMC0206
      00263  0 00024 0 00653         PZE     SLOGT,,STARTL                                            COMC0207
      00264  0 00400 0 00662         PZE     PRVCOM,,NINTBT                                           COMC0208
                                                                                                      COMC0209
                                                                                                      COMC0210
                              *      A-CORE TRANSFER COMMANDS                                         COMC0211
                                                                                                      COMC0212
      00265  254524434627     ENDLOG BCI     1,ENDLOG                                                 COMC0213
      00266  0 16501 0 74671         PZE     Q0,,.ATR+.LGN+.LOG+.SAV+.CLC+.SUB                        COMC0214
      00267  0 00000 0 00020         PZE     ENDLG.                                                   COMC0215
      00270  0 00400 0 72232         PZE     URCODE,,NINTBT                                           COMC0216
      00271  606060606050     Q      BCI     1,     Q                                                 COMC0217
      00272  0 00341 0 74671         PZE     Q0,,.ATR+.USR+.LGN+.LGT                                  COMC0218
      00273  0 00000 0 00004         PZE     DEAD                                                     COMC0219
      00274  0 00000 0 74671         PZE     Q0,,0                                                    COMC0220
      00275  606263215163     START  BCI     1, START                                                 COMC0221
      00276  0 16351 0 74671         PZE     Q0,,.ATR+.CPY+.USR+.LGN+.LGT+.SAV+.CLC+.SUB              COMC0222
      00277  0 00000 0 00007         PZE     START.                                                   COMC0223
      00300  0 00000 0 72232         PZE     URCODE,,0                                                COMC0224
1      M1416 3845  PETER R. BOS .... COMMAND DIRECTORY SEARCH .. COMCHK ....     07/05/71 1908.3 PAGE 6

      00301  516263215163     RSTART BCI     1,RSTART                                                 COMC0225
      00302  0 16341 0 74671         PZE     Q0,,.ATR+.USR+.LGN+.LGT+.SAV+.CLC+.SUB                   COMC0226
      00303  0 00000 0 00010         PZE     RSTRT.                                                   COMC0227
      00304  0 00000 0 72232         PZE     URCODE,,0                                                COMC0228
      00305  606062216525     SAVE   BCI     1,  SAVE                                                 COMC0229
      00306  0 16141 0 74671         PZE     Q0,,.ATR+.USR+.LGN+.SAV+.CLC+.SUB                        COMC0230
      00307  0 00000 0 00005         PZE     SAVE.                                                    COMC0231
      00310  0 00000 0 72232         PZE     URCODE,,0                                                COMC0232
      00311  447062216525     MYSAVE BCI     1,MYSAVE                                                 COMC0233
      00312  0 16141 0 74671         PZE     Q0,,.ATR+.USR+.LGN+.SAV+.CLC+.SUB                        COMC0234
      00313  0 00000 0 00006         PZE     MSAVE.                                                   COMC0235
      00314  0 00000 0 72232         PZE     URCODE,,0                                                COMC0236
      00315  512562634651     RESTOR BCI     1,RESTOR                                                 COMC0237
      00316  0 00151 0 74671         PZE     Q0,,.ATR+.CPY+.USR+.LGN                                  COMC0238
      00317  0 00000 0 00012         PZE     RSTOR.                                                   COMC0239
      00320  0 00000 0 74671         PZE     Q0,,0                                                    COMC0240
      00321  512523214343     RECALL BCI     1,RECALL                                                 COMC0241
      00322  0 00151 0 74671         PZE     Q0,,.ATR+.CPY+.USR+.LGN                                  COMC0242
      00323  0 00000 0 00013         PZE     RCALL.                                                   COMC0243
      00324  0 00000 0 74671         PZE     Q0,,0                                                    COMC0244
      00325  512562644425     RESUME BCI     1,RESUME                                                 COMC0245
      00326  0 00141 0 74671         PZE     Q0,,.ATR+.USR+.LGN                                       COMC0246
      00327  0 00000 0 00011         PZE     RSUME.                                                   COMC0247
      00330  0 00000 0 74671         PZE     Q0,,0                                                    COMC0248
      00331  606060606051     R      BCI     1,     R                                                 COMC0249
      00332  0 00141 0 74671         PZE     Q0,,.ATR+.USR+.LGN                                       COMC0250
      00333  0 00000 0 00011         PZE     RSUME.                                                   COMC0251
      00334  0 00000 0 74671         PZE     Q0,,0                                                    COMC0252
      00335  234645633145     CONTIN BCI     1,CONTIN                                                 COMC0253
      00336  0 00141 0 74671         PZE     Q0,,.ATR+.USR+.LGN                                       COMC0254
      00337  0 00000 0 00017         PZE     CNTIN.                                                   COMC0255
      00340  0 00000 0 74671         PZE     Q0,,0                                                    COMC0256
      00341  606060602446     DO     BCI     1,    DO                                                 COMC0257
      00342  0 00141 0 74671         PZE     Q0,,.ATR+.USR+.LGN                                       COMC0258
      00343  0 00024 0 00014         PZE     DO.,,STARTL                                              COMC0259
      00344  0 00000 0 74671         PZE     Q0,,0                                                    COMC0260
      00345  512562256326     RESETF BCI     1,RESETF                                                 COMC0261
      00346  0 12141 0 00673         PZE     RSYSB,,.ATR+.USR+.LGN+.SAV+.SUB                          COMC0262
      00347  0 00000 0 00015         PZE     RSETF.                                                   COMC0263
      00350  0 00000 0 74671         PZE     Q0,,0                                                    COMC0264
      00351  626422627062     SUBSYS BCI     1,SUBSYS                                                 COMC0265
      00352  0 16141 0 74671         PZE     Q0,,.ATR+.USR+.LGN+.SAV+.CLC+.SUB                        COMC0266
      00353  0 00000 0 00016         PZE     SBSYS.                                                   COMC0267
      00354  0 00000 0 72232         PZE     URCODE,,0                                                COMC0268
                                                                                                      COMC0269
                                                                                                      COMC0270
                              *      B-CORE TRANSFER COMMANDS                                         COMC0271
                                                                                                      COMC0272
      00355  606060646225     USE    BCI     1,   USE                                                 COMC0273
      00356  0 06170 0 74671         PZE     Q0,,.CPY+.MEM+.USR+.LGN+.SAV+.CLC                        COMC0274
      00357  0 00025 0 00000         PZE     0,,STARTL+1                                              COMC0275
      00360  0 00000 0 74671         PZE     Q0,,0                                                    COMC0276
      00361  606060604744     PM     BCI     1,    PM                                                 COMC0277
      00362  0 02170 0 74671         PZE     Q0,,.CPY+.MEM+.USR+.LGN+.SAV                             COMC0278
      00363  0 00026 0 00000         PZE     0,,STARTL+2                                              COMC0279
      00364  0 00000 0 74671         PZE     Q0,,0                                                    COMC0280
1      M1416 3845  PETER R. BOS .... COMMAND DIRECTORY SEARCH .. COMCHK ....     07/05/71 1908.3 PAGE 7

      00365  626346472163     STOPAT BCI     1,STOPAT                                                 COMC0281
      00366  0 02170 0 74671         PZE     Q0,,.CPY+.MEM+.USR+.LGN+.SAV                             COMC0282
      00367  0 00026 0 00000         PZE     0,,STARTL+2                                              COMC0283
      00370  0 00000 0 74671         PZE     Q0,,0                                                    COMC0284
      00371  606060635121     TRA    BCI     1,   TRA                                                 COMC0285
      00372  0 02170 0 74671         PZE     Q0,,.CPY+.MEM+.USR+.LGN+.SAV                             COMC0286
      00373  0 00026 0 00000         PZE     0,,STARTL+2                                              COMC0287
      00374  0 00000 0 74671         PZE     Q0,,0                                                    COMC0288
      00375  604721632330     PATCH  BCI     1, PATCH                                                 COMC0289
      00376  0 02170 0 74671         PZE     Q0,,.CPY+.MEM+.USR+.LGN+.SAV                             COMC0290
      00377  0 00026 0 00000         PZE     0,,STARTL+2                                              COMC0291
      00400  0 00000 0 74671         PZE     Q0,,0                                                    COMC0292
      00401  262147242227     FAPDBG BCI     1,FAPDBG                                                 COMC0293
      00402  0 02170 0 74671         PZE     Q0,,.CPY+.MEM+.USR+.LGN+.SAV                             COMC0294
      00403  0 00026 0 00000         PZE     0,,STARTL+2                                              COMC0295
      00404  0 00000 0 74671         PZE     Q0,,0                                                    COMC0296
      00405  602425226427     DEBUG  BCI     1, DEBUG                                                 COMC0297
      00406  0 02170 0 74671         PZE     Q0,,.CPY+.MEM+.USR+.LGN+.SAV                             COMC0298
      00407  0 00026 0 00000         PZE     0,,STARTL+2                                              COMC0299
      00410  0 00000 0 74671         PZE     Q0,,0                                                    COMC0300
      00411  626351212325     STRACE BCI     1,STRACE                                                 COMC0301
      00412  0 02170 0 74671         PZE     Q0,,.CPY+.MEM+.USR+.LGN+.SAV                             COMC0302
      00413  0 00026 0 00000         PZE     0,,STARTL+2                                              COMC0303
      00414  0 00000 0 74671         PZE     Q0,,0                                                    COMC0304
                                                                                                      COMC0305
                                                                                                      COMC0306
                              *      COMMANDS USED BY DAEMON                                          COMC0307
                                                                                                      COMC0308
      00415  242125444645     DAEMON BCI     1,DAEMON                                                 COMC0309
      00416  0 00156 0 00667         PZE     RDAEM,,.DSK+.SYS+.CPY+.USR+.LGN                          COMC0310
      00417  0 00024 0 00654         PZE     SDAEM,,STARTL                                            COMC0311
      00420  0 00000 0 74671         PZE     Q0,,0                                                    COMC0312
      00421  246224644447     DSDUMP BCI     1,DSDUMP                                                 COMC0313
      00422  0 00156 0 00667         PZE     RDAEM,,.DSK+.SYS+.CPY+.USR+.LGN                          COMC0314
      00423  0 00024 0 00655         PZE     SDSDP,,STARTL                                            COMC0315
      00424  0 00000 0 74671         PZE     Q0,,0                                                    COMC0316
      00425  246243462124     DSLOAD BCI     1,DSLOAD                                                 COMC0317
      00426  0 00156 0 00667         PZE     RDAEM,,.DSK+.SYS+.CPY+.USR+.LGN                          COMC0318
      00427  0 00024 0 00656         PZE     SDSLD,,STARTL                                            COMC0319
      00430  0 00000 0 74671         PZE     Q0,,0                                                    COMC0320
                                                                                                      COMC0321
                                                                                                      COMC0322
                              *      COMMANDS FOR FMS FUNCTION REQUESTS                               COMC0323
                                                                                                      COMC0324
      00431  634226024744     TKF2PM BCI     1,TKF2PM                                                 COMC0325
      00432  0 02261 0 00666         PZE     RFMS,,.ATR+.MEM+.USR+.LGT+.SAV                           COMC0326
      00433  0 00000 0 00021         PZE     TKFPM.                                                   COMC0327
      00434  0 00000 0 74671         PZE     Q0,,0                                                    COMC0328
      00435  432423215124     LDCARD BCI     1,LDCARD                                                 COMC0329
      00436  0 02241 0 00666         PZE     RFMS,,.ATR+.USR+.LGT+.SAV                                COMC0330
      00437  0 00000 0 00022         PZE     LDCRD.                                                   COMC0331
      00440  0 00100 0 74671         PZE     Q0,,CLKBIT                                               COMC0332
      00441  234351432423     CLRLDC BCI     1,CLRLDC                                                 COMC0333
      00442  0 00241 0 00666         PZE     RFMS,,.ATR+.USR+.LGT                                     COMC0334
      00443  0 00000 0 00022         PZE     LDCRD.                                                   COMC0335
      00444  0 00100 0 74671         PZE     Q0,,CLKBIT                                               COMC0336
1      M1416 3845  PETER R. BOS .... COMMAND DIRECTORY SEARCH .. COMCHK ....     07/05/71 1908.3 PAGE 8

      00445  224262634647     BKSTOP BCI     1,BKSTOP                                                 COMC0337
      00446  0 02261 0 00666         PZE     RFMS,,.ATR+.MEM+.USR+.LGT+.SAV                           COMC0338
      00447  0 00000 0 00023         PZE     BKSTP.                                                   COMC0339
      00450  0 00000 0 72232         PZE     URCODE,,0                                                COMC0340
      00451  264462243125     FMSDIE BCI     1,FMSDIE                                                 COMC0341
      00452  0 00241 0 00666         PZE     RFMS,,.ATR+.USR+.LGT                                     COMC0342
      00453  0 00000 0 00024         PZE     BKDIE.                                                   COMC0343
      00454  0 00000 0 74671         PZE     Q0,,0                                                    COMC0344
      00455  224243242344     BKLDCM BCI     1,BKLDCM                                                 COMC0345
      00456  0 00346 0 00666         PZE     RFMS,,.DSK+.SYS+.USR+.LGN+.LGT                           COMC0346
      00457  0 00024 0 00455         PZE     *-2,,STARTL                                              COMC0347
      00460  0 00000 0 74671         PZE     Q0,,0                                                    COMC0348
                                                                                                      COMC0349
                                                                                                      COMC0350
                              *      COMMANDS USABLE BY BACKGROUND ONLY                               COMC0351
                                                                                                      COMC0352
      00461  246242252463     DSKEDT BCI     1,DSKEDT                                                 COMC0353
      00462  0 00256 0 00666         PZE     RFMS,,.DSK+.SYS+.CPY+.USR+.LGT                           COMC0354
      00463  0 00024 0 00461         PZE     *-2,,STARTL                                              COMC0355
      00464  0 00100 0 00662         PZE     PRVCOM,,CLKBIT                                           COMC0356
      00465  220147516301     B1PRT1 BCI     1,B1PRT1                                                 COMC0357
      00466  0 00256 0 00666         PZE     RFMS,,.DSK+.SYS+.CPY+.USR+.LGT                           COMC0358
      00467  0 00024 0 00465         PZE     *-2,,STARTL                                              COMC0359
      00470  0 00100 0 74671         PZE     Q0,,CLKBIT                                               COMC0360
      00471  220131454701     B1INP1 BCI     1,B1INP1                                                 COMC0361
      00472  0 00256 0 00666         PZE     RFMS,,.DSK+.SYS+.CPY+.USR+.LGT                           COMC0362
      00473  0 00024 0 00471         PZE     *-2,,STARTL                                              COMC0363
      00474  0 00100 0 00663         PZE     PRVCM1,,CLKBIT                                           COMC0364
      00475  606347636263     TPTST  BCI     1, TPTST                                                 COMC0365
      00476  0 00256 0 00666         PZE     RFMS,,.DSK+.SYS+.CPY+.USR+.LGT                           COMC0366
      00477  0 00024 0 00475         PZE     *-2,,STARTL                                              COMC0367
      00500  0 00100 0 74671         PZE     Q0,,CLKBIT                                               COMC0368
      00501  475131442551     PRIMER BCI     1,PRIMER                                                 COMC0369
      00502  0 00256 0 00666         PZE     RFMS,,.DSK+.SYS+.CPY+.USR+.LGT                           COMC0370
      00503  0 00024 0 00501         PZE     *-2,,STARTL                                              COMC0371
      00504  0 00100 0 00662         PZE     PRVCOM,,CLKBIT                                           COMC0372
                                                                                                      COMC0373
                                                                                                      COMC0374
                              *      PRIVILEGED COMMANDS                                              COMC0375
                                                                                                      COMC0376
      00505  606060263122     FIB    BCI     1,   FIB                                                 COMC0377
      00506  0 00152 0 74671         PZE     Q0,,.DSK+.CPY+.USR+.LGN                                  COMC0378
      00507  0 00024 0 00505         PZE     *-2,,STARTL                                              COMC0379
      00510  0 02000 0 00662         PZE     PRVCOM,,XEQBIT                                           COMC0380
      00511  242543263122     DELFIB BCI     1,DELFIB                                                 COMC0381
      00512  0 00152 0 74671         PZE     Q0,,.DSK+.CPY+.USR+.LGN                                  COMC0382
      00513  0 00024 0 00511         PZE     *-2,,STARTL                                              COMC0383
      00514  0 02000 0 00664         PZE     PRVCM2,,XEQBIT                                           COMC0384
      00515  604751263122     PRFIB  BCI     1, PRFIB                                                 COMC0385
      00516  0 00152 0 74671         PZE     Q0,,.DSK+.CPY+.USR+.LGN                                  COMC0386
      00517  0 00024 0 00515         PZE     *-2,,STARTL                                              COMC0387
      00520  0 00000 0 00664         PZE     PRVCM2,,0                                                COMC0388
      00521  263122444645     FIBMON BCI     1,FIBMON                                                 COMC0389
      00522  0 00156 0 00670         PZE     RFIBM,,.DSK+.SYS+.CPY+.USR+.LGN                          COMC0390
      00523  0 00024 0 00521         PZE     *-2,,STARTL                                              COMC0391
      00524  0 00000 0 00662         PZE     PRVCOM,,0                                                COMC0392
1      M1416 3845  PETER R. BOS .... COMMAND DIRECTORY SEARCH .. COMCHK ....     07/05/71 1908.3 PAGE 9

      00525  606043314542     LINK   BCI     1,  LINK                                                 COMC0393
      00526  0 00152 0 74671         PZE     Q0,,.DSK+.CPY+.USR+.LGN                                  COMC0394
      00527  0 00024 0 00525         PZE     *-2,,STARTL                                              COMC0395
      00530  0 02000 0 00664         PZE     PRVCM2,,XEQBIT                                           COMC0396
      00531  216363212330     ATTACH BCI     1,ATTACH                                                 COMC0397
      00532  0 00152 0 74671         PZE     Q0,,.DSK+.CPY+.USR+.LGN                                  COMC0398
      00533  0 00024 0 00525         PZE     LINK,,STARTL                                             COMC0399
      00534  0 02000 0 00664         PZE     PRVCM2,,XEQBIT                                           COMC0400
      00535  644543314542     UNLINK BCI     1,UNLINK                                                 COMC0401
      00536  0 00152 0 74671         PZE     Q0,,.DSK+.CPY+.USR+.LGN                                  COMC0402
      00537  0 00024 0 00535         PZE     *-2,,STARTL                                              COMC0403
      00540  0 00000 0 00663         PZE     PRVCM1,,0                                                COMC0404
      00541  444665263143     MOVFIL BCI     1,MOVFIL                                                 COMC0405
      00542  0 00152 0 74671         PZE     Q0,,.DSK+.CPY+.USR+.LGN                                  COMC0406
      00543  0 00024 0 00535         PZE     UNLINK,,STARTL                                           COMC0407
      00544  0 00000 0 00663         PZE     PRVCM1,,0                                                COMC0408
      00545  606044213143     MAIL   BCI     1,  MAIL                                                 COMC0409
      00546  0 00152 0 74671         PZE     Q0,,.DSK+.CPY+.USR+.LGN                                  COMC0410
      00547  0 00024 0 00545         PZE     *-2,,STARTL                                              COMC0411
      00550  0 00000 0 00663         PZE     PRVCM1,,0                                                COMC0412
      00551  512563516525     RETRVE BCI     1,RETRVE                                                 COMC0413
      00552  0 00152 0 74671         PZE     Q0,,.DSK+.CPY+.USR+.LGN                                  COMC0414
      00553  0 00024 0 00551         PZE     *-2,,STARTL                                              COMC0415
      00554  0 02000 0 00662         PZE     PRVCOM,,XEQBIT                                           COMC0416
      00555  264462632147     FMSTAP BCI     1,FMSTAP                                                 COMC0417
      00556  0 00152 0 00672         PZE     R6.36,,.DSK+.CPY+.USR+.LGN                               COMC0418
      00557  0 00024 0 00657         PZE     SFMST,,STARTL                                            COMC0419
      00560  0 03000 0 00665         PZE     636COM,,XEQBIT+NKILBT                                    COMC0420
      00561  060306632147     636TAP BCI     1,636TAP                                                 COMC0421
      00562  0 00152 0 00672         PZE     R6.36,,.DSK+.CPY+.USR+.LGN                               COMC0422
      00563  0 00024 0 00561         PZE     *-2,,STARTL                                              COMC0423
      00564  0 03000 0 00665         PZE     636COM,,XEQBIT+NKILBT                                    COMC0424
      00565  602124443145     ADMIN  BCI     1, ADMIN                                                 COMC0425
      00566  0 00152 0 00671         PZE     RPRIV,,.DSK+.CPY+.USR+.LGN                               COMC0426
      00567  0 00024 0 00647         PZE     SADMN,,STARTL                                            COMC0427
      00570  0 01000 0 00662         PZE     PRVCOM,,NKILBT                                           COMC0428
      00571  515021622331     RQASCI BCI     1,RQASCI                                                 COMC0429
      00572  0 00152 0 74671         PZE     Q0,,.DSK+.CPY+.USR+.LGN                                  COMC0430
      00573  0 00024 0 00571         PZE     *-2,,STARTL                                              COMC0431
      00574  0 00000 0 00664         PZE     PRVCM2,,0                                                COMC0432
      00575  226470633144     BUYTIM BCI     1,BUYTIM                                                 COMC0433
      00576  0 00152 0 74671         PZE     Q0,,.DSK+.CPY+.USR+.LGN                                  COMC0434
      00577  0 00024 0 00575         PZE     *-2,,STARTL                                              COMC0435
      00600  0 03000 0 00664         PZE     PRVCM2,,XEQBIT+NKILBT                                    COMC0436
      00601  512543462124     RELOAD BCI     1,RELOAD                                                 COMC0437
      00602  0 00152 0 00671         PZE     RPRIV,,.DSK+.CPY+.USR+.LGN                               COMC0438
      00603  0 00024 0 00601         PZE     *-2,,STARTL                                              COMC0439
      00604  0 00000 0 00662         PZE     PRVCOM,,0                                                COMC0440
                                                                                                      COMC0441
                                                                                                      COMC0442
                              *      OPTION COMMAND                                                   COMC0443
                                                                                                      COMC0444
      00605  464763314645     OPTION BCI     1,OPTION                                                 COMC0445
      00606  0 10156 0 00673         PZE     RSYSB,,.DSK+.SYS+.CPY+.USR+.LGN+.SUB                     COMC0446
      00607  0 00024 0 00605         PZE     *-2,,STARTL                                              COMC0447
      00610  0 00000 0 74671         PZE     Q0,,0                                                    COMC0448
1      M1416 3845  PETER R. BOS .... COMMAND DIRECTORY SEARCH .. COMCHK ....     07/05/71 1908.3 PAGE 10

                                                                                                      COMC0449
                                                                                                      COMC0450
                              *      SYSTEM TEST COMMANDS                                             COMC0451
                                                                                                      COMC0452
      00611  236325626300     CTEST0 BCI     1,CTEST0                                                 COMC0453
      00612  0 00252 0 74671         PZE     Q0,,.DSK+.CPY+.USR+.LGT                                  COMC0454
      00613  0 00024 0 00611         PZE     *-2,,STARTL                                              COMC0455
      00614  0 00000 0 74671         PZE     Q0,,0                                                    COMC0456
      00615  236325626304     CTEST4 BCI     1,CTEST4                                                 COMC0457
      00616  0 00152 0 00672         PZE     R6.36,,.DSK+.CPY+.USR+.LGN                               COMC0458
      00617  0 00024 0 00615         PZE     *-2,,STARTL                                              COMC0459
      00620  0 00000 0 00662         PZE     PRVCOM,,0                                                COMC0460
      00621  236325626306     CTEST6 BCI     1,CTEST6                                                 COMC0461
      00622  0 00152 0 74671         PZE     Q0,,.DSK+.CPY+.USR+.LGN                                  COMC0462
      00623  0 00024 0 00621         PZE     *-2,,STARTL                                              COMC0463
      00624  0 00000 0 00662         PZE     PRVCOM,,0                                                COMC0464
      00625  236325626310     CTEST8 BCI     1,CTEST8                                                 COMC0465
      00626  0 00152 0 00671         PZE     RPRIV,,.DSK+.CPY+.USR+.LGN                               COMC0466
      00627  0 00024 0 00625         PZE     *-2,,STARTL                                              COMC0467
      00630  0 00000 0 00662         PZE     PRVCOM,,0                                                COMC0468
      00631  236325626311     CTEST9 BCI     1,CTEST9                                                 COMC0469
      00632  0 00152 0 00672         PZE     R6.36,,.DSK+.CPY+.USR+.LGN                               COMC0470
      00633  0 00024 0 00631         PZE     *-2,,STARTL                                              COMC0471
      00634  0 00000 0 00663         PZE     PRVCM1,,0                                                COMC0472
                                                                                                      COMC0473
                                                                                                      COMC0474
                              *      DEFAULT COMMAND ENTRY                                            COMC0475
                                                                                                      COMC0476
      00635  545454545454     DENTRY BCI     1,******                                                 COMC0477
      00636  0 00152 0 74671         PZE     Q0,,.DSK+.CPY+.USR+.LGN                                  COMC0478
      00637  0 00024 0 74414         PZE     UCOMND,,STARTL                                           COMC0479
      00640  0 00000 0 74671         PZE     Q0,,0                                                    COMC0480
      00641  545454545454     UENTRY BCI     1,******                                                 COMC0481
      00642  0 01152 0 74671         PZE     Q0,,.DSK+.CPY+.USR+.LGN+.UFL                             COMC0482
      00643  0 00024 0 74414         PZE     UCOMND,,STARTL                                           COMC0483
      00644  0 00000 0 74671         PZE     Q0,,0                                                    COMC0484
                                                                                                      COMC0485
                       00645  CTABLE SYN     *             END OF COMMAND TABLE                       COMC0486
                                                                                                      COMC0487
                       00410  CSIZE  EQU     CTABLE-TOP    COMMAND TABLE LENGTH                       COMC0488
      00645  0 00410 0 00645  COMDIR PZE     CTABLE,,CSIZE POINTER TO COMMAND TABLE                   COMC0489
                                                                                                      COMC0490
                       00646  COMNAM SYN     *             COMMON-DEPENDENT COMMANDS                  COMC0491
      00646                   SINIT  COMNAM  INIT          .. INIT                                    COMC0492
      00647                   SADMN  COMNAM  ADMN          .. ADMIN                                   COMC0493
      00650                   SHELO  COMNAM  HELO          .. HELLO                                   COMC0494
      00651                   SDIAL  COMNAM  DIAL          .. DIAL                                    COMC0495
      00652                   SLOGN  COMNAM  LOGN          .. LOGIN                                   COMC0496
      00653                   SLOGT  COMNAM  LOGT          .. LOGOUT, OTOLOG                          COMC0497
      00654                   SDAEM  COMNAM  DAEM          .. DAEMON                                  COMC0498
      00655                   SDSDP  COMNAM  DSDP          .. DSDUMP                                  COMC0499
      00656                   SDSLD  COMNAM  DSLD          .. DSLOAD                                  COMC0500
      00657                   SFMST  COMNAM  FMST          .. FMSTAP                                  COMC0501
                       00012  NCOM   EQU     *-COMNAM      ..                                         COMC0502
                                                                                                      COMC0503
      00660  0 00000 0 00000  FILE.  PZE                                                              COMC0504
1      M1416 3845  PETER R. BOS .... COMMAND DIRECTORY SEARCH .. COMCHK ....     07/05/71 1908.3 PAGE 11

      00661  0 00000 0 00000  UTEMP  PZE                                                              COMC0505
                                                                                                      COMC0506
                      001137  PRIVBT BOOL    RSYSBT+R636BT+RPATBT+RPRVBT+RPROBT+RCALBT+RCOMBT         COMC0507
      00662  000020001137     PRVCOM VFD     O18/UPRCBT,O18/PRIVBT                                    COMC0508
      00663  000000000003     PRVCM1 VFD     O18/0,O18/RCALBT+RCOMBT                                  COMC0509
      00664  000000000017     PRVCM2 VFD     O18/0,O18/RPRVBT+RPROBT+RCALBT+RCOMBT                    COMC0510
      00665  000020000122     636COM VFD     O18/UPRCBT,O18/R636BT+RPATBT+RCALBT                      COMC0511
                                                                                                      COMC0512
      00666  000001000000     RFMS   VFD     O18/UBACBT,O18/0                                         COMC0513
      00667  000010000036     RDAEM  VFD     O18/UDEMBT,O18/RPATBT+RPRVBT+RPROBT+RCALBT               COMC0514
      00670  000004000000     RFIBM  VFD     O18/UFIBBT,O18/0                                         COMC0515
      00671  000000000022     RPRIV  VFD     O18/0,O18/RPATBT+RCALBT                                  COMC0516
      00672  000000000100     R6.36  VFD     O18/0,O18/R636BT                                         COMC0517
      00673  000000001000     RSYSB  VFD     O18/0,O18/RSYSBT                                         COMC0518
                                                                                                      COMC0519
                                                                                                      COMC0520
      00674                          RMT     *             REMOTE SEQUENCES                           COMC0522
                                                                                                      COMC0523
                                     END                                                              COMC0524
1      M1416 3845  PETER R. BOS .... COMMAND DIRECTORY SEARCH .. COMCHK ....     07/05/71 1908.3 PAGE 1
                        POST PROCESSOR ASSEMBLY DATA

       72127 IS THE LAST LOCATION NOT USED BY THIS PROGRAM
        674 IS THE FIRST LOCATION NOT USED BY THIS PROGRAM

0REFERENCES TO DEFINED SYMBOLS
        271      Q     0
        331      R
        341     DO
      74653     LA   146,  147,  150
      74654     M0   173,  213
        361     PM
      74671     Q0    25,  102,  242,  244,  246,  252,  256,  262,  266,  272,  274,  276,  302,  306,  312,  316,  320
                     322,  324,  326,  330,  332,  334,  336,  340,  342,  344,  350,  352,  356,  360,  362,  364,  366
                     370,  372,  374,  376,  400,  402,  404,  406,  410,  412,  414,  420,  424,  430,  434,  440,  444
                     454,  460,  470,  500,  506,  512,  516,  526,  532,  536,  542,  546,  552,  572,  576,  610,  612
                     614,  622,  636,  640,  642,  644
      74670     Q1    42,  207,  225
      74667     Q2    55
      74666     Q3    63
      74665     Q4    70
         14    DO.   343
        505    FIB
      75402    IOD    73
        235    TOP   235,  645
        371    TRA
        355    USE
        103   CKX1    26
        104   CKX4    27
        232   CMX1   117,  226
        233   CMX4   120,  227
          4   DEAD   273
        245   DIAL
        235   INIT     0
          1   .ATR   266,  272,  276,  302,  306,  312,  316,  322,  326,  332,  336,  342,  346,  352,  432,  436,  442
                     446,  452
       4000   .CLC   266,  276,  302,  306,  312,  352,  356
         10   .CPY   236,  242,  246,  252,  256,  262,  276,  316,  322,  356,  362,  366,  372,  376,  402,  406,  412
                     416,  422,  426,  462,  466,  472,  476,  502,  506,  512,  516,  522,  526,  532,  536,  542,  546
                     552,  556,  562,  566,  572,  576,  602,  606,  612,  616,  622,  626,  632,  636,  642
          2   .DSK   131,  236,  242,  246,  252,  256,  262,  416,  422,  426,  456,  462,  466,  472,  476,  502,  506
                     512,  516,  522,  526,  532,  536,  542,  546,  552,  556,  562,  566,  572,  576,  602,  606,  612
                     616,  622,  626,  632,  636,  642
        100   .LGN    64,  242,  252,  256,  262,  266,  272,  276,  302,  306,  312,  316,  322,  326,  332,  336,  342
                     346,  352,  356,  362,  366,  372,  376,  402,  406,  412,  416,  422,  426,  456,  506,  512,  516
                     522,  526,  532,  536,  542,  546,  552,  556,  562,  566,  572,  576,  602,  606,  616,  622,  626
                     632,  636,  642
        200   .LGT    57,  236,  242,  246,  252,  272,  276,  302,  432,  436,  442,  446,  452,  456,  462,  466,  472
                     476,  502,  612
        400   .LOG   256,  262,  266
         20   .MEM    71,  356,  362,  366,  372,  376,  402,  406,  412,  432,  446
       2000   .SAV   266,  276,  302,  306,  312,  346,  352,  356,  362,  366,  372,  376,  402,  406,  412,  432,  436
                     446
      10000   .SUB   266,  276,  302,  306,  312,  346,  352,  606
          4   .SYS   152,  217,  242,  246,  252,  256,  262,  416,  422,  426,  456,  462,  466,  472,  476,  502,  522
                     606
1      M1416 3845  PETER R. BOS .... COMMAND DIRECTORY SEARCH .. COMCHK ....     07/05/71 1908.3 PAGE 2
                        POST PROCESSOR ASSEMBLY DATA

       1000   .UFL   204,  642
         40   .USR    53,  242,  246,  252,  256,  272,  276,  302,  306,  312,  316,  322,  326,  332,  336,  342,  346
                     352,  356,  362,  366,  372,  376,  402,  406,  412,  416,  422,  426,  432,  436,  442,  446,  452
                     456,  462,  466,  472,  476,  502,  506,  512,  516,  522,  526,  532,  536,  542,  546,  552,  556
                     562,  566,  572,  576,  602,  606,  612,  616,  622,  626,  632,  636,  642
        525   LINK   533
        545   MAIL
         12   NCOM   134,  135,  660
        666   RFMS   236,  432,  436,  442,  446,  452,  456,  462,  466,  472,  476,  502
        305   SAVE
      74502   USER    76,  121,  124
        565  ADMIN
        103  CKXIT    43,   62,   67,  101
        410  CSIZE    35,  645
        405  DEBUG
      77777  ENBWD   127,  230
        226  ERRTN   126
        660  FILE.   144,  211
        232  FOUND   132,  176,  215
        241  HELLO     0
        251  LOGIN     0
        375  PATCH
        515  PRFIB
      76500  PROBN    61,   66,  162,  164
        672  R6.36   556,  562,  616,  632
      76041  RCODE    44,  154
        667  RDAEM   416,  422,  426
        670  RFIBM   522
        671  RPRIV   566,  602,  626
        673  RSYSB   346,  606
        647  SADMN   567
      74636  SAVED   172
          5  SAVE.   307
        654  SDAEM   417
        651  SDIAL   247
        655  SDSDP   423
        656  SDSLD   427
          1  SETAB   145
        657  SFMST   557
        650  SHELO   243
        646  SINIT   237
        652  SLOGN   253
        653  SLOGT   257,  263
        275  START     0
        475  TPTST
      76305  UFDNM   165
          2  UFLBT   200,  222
        661  UTEMP    33,   34,   75
        665 636COM   560,  564
        561 636TAP
        531 ATTACH
          2 ATTFIL   166
        471 B1INP1
        465 B1PRT1
         24 BKDIE.   453
1      M1416 3845  PETER R. BOS .... COMMAND DIRECTORY SEARCH .. COMCHK ....     07/05/71 1908.3 PAGE 3
                        POST PROCESSOR ASSEMBLY DATA

        455 BKLDCM
        445 BKSTOP
         23 BKSTP.   447
        575 BUYTIM
          0 CHNGUS   206
        203 CKSYSF   153,  161
        162 CKUSRF   224
        100 CLKBIT   440,  444,  464,  470,  474,  500,  504
        441 CLRLDC
         17 CNTIN.   337
         25 COMCHK     0,  123
         41 COMCK1   116
         44 COMCK2    40
         55 COMCK3    51
         63 COMCK4    60
         70 COMCK5    65
        102 COMCK6    72
        115 COMCK7    46,   54
        645 COMDIR     0
        646 COMNAM   135,  646,  660
        117 COMSCH     0
        335 CONTIN
        645 CTABLE    36,   45,   52,   56,  107,  645
        611 CTEST0
        615 CTEST4
        621 CTEST6
        625 CTEST8
        631 CTEST9
        415 DAEMON
        511 DELFIB
        635 DENTRY    30,  115
        421 DSDUMP
        461 DSKEDT
        425 DSLOAD
         20 ENDLG.   267
        265 ENDLOG     0
        401 FAPDBG
        521 FIBMON
        451 FMSDIE
        555 FMSTAP
          3 FSTATE   170,  210
        435 LDCARD
         22 LDCRD.   437,  443
        255 LOGOUT
      72161 MEMBND   100
        541 MOVFIL
          6 MSAVE.   313
        311 MYSAVE
        400 NINTBT   240,  260,  264,  270
       1000 NKILBT   560,  564,  570,  600
        216 NOSYSF   205,  214
        225 NOTCOM   143,  202,  220,  223
        177 NOUSRF   163,  167,  174
        605 OPTION
        261 OTOLOG     0
1      M1416 3845  PETER R. BOS .... COMMAND DIRECTORY SEARCH .. COMCHK ....     07/05/71 1908.3 PAGE 4
                        POST PROCESSOR ASSEMBLY DATA

        501 PRIMER
       1137 PRIVBT   662
        663 PRVCM1   474,  540,  544,  550,  634
        664 PRVCM2   514,  520,  530,  534,  574,  600
        662 PRVCOM   240,  250,  254,  260,  264,  464,  504,  510,  524,  554,  570,  604,  620,  624,  630
        100 R636BT   662,  665,  672
          2 RCALBT   662,  663,  664,  665,  667,  671
         13 RCALL.   323
          1 RCOMBT   662,  663,  664
        200 RDSKBT   155
        321 RECALL
        601 RELOAD
        345 RESETF
        315 RESTOR
        325 RESUME
        551 RETRVE
         20 RPATBT   662,  665,  667,  671
          4 RPROBT   662,  664,  667
         10 RPRVBT   662,  664,  667
        571 RQASCI
         15 RSETF.   347
        301 RSTART
         12 RSTOR.   317
         10 RSTRT.   303
         11 RSUME.   327,  333
       1000 RSYSBT   662,  673
         16 SBSYS.   353
          7 START.   277
         24 STARTL   235,  237,  243,  247,  253,  257,  263,  343,  357,  363,  367,  373,  377,  403,  407,  413,  417
                     423,  427,  457,  463,  467,  473,  477,  503,  507,  513,  517,  523,  527,  533,  537,  543,  547
                     553,  557,  563,  567,  573,  577,  603,  607,  613,  617,  623,  627,  633,  637,  643
        365 STOPAT
        411 STRACE
        351 SUBSYS     0
        431 TKF2PM
         21 TKFPM.   433
      74637 TSSDC.   212
          1 UBACBT   666
        100 UCOMBT    50
      74414 UCOMND   122,  133,  171,  637,  643
      74413 UCOMSW   125
         10 UDEMBT   667
        641 UENTRY    31,  137,  156,  175
          4 UFIBBT   670
          1 UFLBIT   160,  201,  222
        535 UNLINK   543
         20 UPRCBT   662,  665
      72232 URCODE   270,  300,  304,  310,  314,  354,  450
      75770 USROPT   157,  177,  221
       2000 XEQBIT   510,  514,  530,  534,  554,  560,  564,  600

0 NO ERROR IN ABOVE ASSEMBLY.


FINT8B   BCD 03/04/70 1439.3    4243         00000
1       M1416 3845  PETER R. BOS ..... FILE INTERRUPT HANDLER ..........         03/04/70 1406.3 PAGE 1

                                     PCC     ON                                                       FINT0002
                                     NOLNK                                                            FINT0003
                       00012         ENTRY   IFUNCT        FILE SYSTEM INTERRUPT ENTRY                FINT0004
                       00162         ENTRY   ILKRTN        SET FILE INTERLOCK RETURN                  FINT0005
                       00170         ENTRY   FIOERR        FILE SYSTEM ERROR ENTRY                    FINT0006
                       00222         ENTRY   FERRTN        SET FILE ERROR RETURN                      FINT0007
                                     LBL     FINT                                                     FINT0008
                                     PCC     OFF                                                      FINT0009
                                                                                                      FINT0010
                                                                                                      FINT0011
                                     EXTERN  CYCLE,DORMNT,EPRINT,GETUSR,PRDIAG,RSTCPU                 FINT0012
                                     EXTERN  SCHEDL,SETAB,WRFLX,.WRFX                                 FINT0013
                                                                                                      FINT0014
                                     UNLIST                                                           FINT0015

                                                                                                      FINT0021
                                                                                                      FINT0022
      00012  0564 00 0 74671  IFUNCT ENB     Q0            HERE ON FILE SYSTEM TRAP, DISABLE          FINT0023
      00013                          SAVE    IF(X1,X2,X3,X4) SAVE INDEX REGISTERS                     FINT0024
      00017 -0500 60 4 00002         CAL*    2,4           GET INTERRUPT CODE                         FINT0025
      00020  0737 00 1 00000         PAC     ,1            ..                                         FINT0026
      00021 -3 77771 1 00076         TXL     IFERR,1,-ICODES-1 INSURE VALID INTERRUPT CODE            FINT0027
      00022  0020 60 1 00022         TRA*    ICODE,1       .. DISPATCH ON CODE                        FINT0028
                                                                                                      FINT0029
                       00022  ICODE  SYN     *-1           INTERRUPT DISPATCH TABLE                   FINT0030
      00023  0020 00 0 00036         TRA     IOBLOK        .. CODE 1, I/O BLOCKED (TAPE, ETC.)        FINT0031
      00024  0020 00 0 00041         TRA     UNBLOK        .. CODE 2, I/O UNBLOCKED OR DEVICE READY   FINT0032
      00025  0020 00 0 00031         TRA     RET           .. CODE 3, NOP                             FINT0033
      00026  0020 00 0 00072         TRA     FILOCK        .. CODE 4, FILE INTERLOCK                  FINT0034
      00027  0020 00 0 00043         TRA     UNLOCK        .. CODE 5, FILE NO LONGER INTERLOCKED      FINT0035
      00030  0020 00 0 00117         TRA     QWAIT         .. CODE 6, USER I/O QUEUES FULL            FINT0036
                       00006  ICODES EQU     *-ICODE-1                                                FINT0037
                                                                                                      FINT0038
      00031                   RET    RETURN  (6,4),IF(X1,X2,X3,X4) RETURN TO FILE SYSTEM              FINT0039
                                                                                                      FINT0040
                                                                                                      FINT0041
      00036 -0500 60 4 00005  IOBLOK CAL*    5,4           PICK UP DEVICE (STRATEGY MODULE) I.D.      FINT0042
      00037  0602 00 0 00313         SLW     QBLOCK        PUT AWAY, WAIT FOR QWAIT TRAP              FINT0043
      00040  0020 00 0 00031         TRA     RET           .. RETURN                                  FINT0044
                                                                                                      FINT0045
                                                                                                      FINT0046
      00041 -0774 00 2 74662  UNBLOK AXC     Q7,2          LOOK FOR USERS IN STATUS 7                 FINT0047
      00042  0020 00 0 00044         TRA     UNLOCK+1      .. SKIP TO COMMON CODE                     FINT0048
                                                                                                      FINT0049
      00043 -0774 00 2 74663  UNLOCK AXC     Q6,2          FILE WAIT IS STATUS 6                      FINT0050
      00044 -0500 60 4 00005         CAL*    5,4           GET FILE CHECKSUM OR DEVICE I.D.           FINT0051
      00045  0602 00 0 00311         SLW     TEMP          .. SAVE                                    FINT0052
      00046 -0340 00 0 00313         LAS     QBLOCK        RESETTING PENDING QUEUE BLOCK WORD         FINT0053
      00047  0020 00 0 00051         TRA     *+2           .. NO                                      FINT0054
      00050  0600 00 0 00313         STZ     QBLOCK        SOMEBODY RIGHT ON THE BALL THERE           FINT0055
      00051 -0774 00 1 00000         AXC     0,1           START WITH USER 0                          FINT0056
      00052  0636 00 1 00312  UNLK1  SCA     UTEMP,1       SAVE USER NO.                              FINT0057
      00053 -0500 00 1 00240         CAL     FCKSM,1       PICK UP USER STATUS WORD                   FINT0058
      00054  0322 00 0 00311         ERA     TEMP          COMPARE                                    FINT0059
      00055 -0100 00 0 00067         TNZ     UNLK2         ..                                         FINT0060
      00056  0600 00 1 00240         STZ     FCKSM,1       RESET CHECKSUM OR DEVICE NO., WAKE UP USER FINT0061
1       M1416 3845  PETER R. BOS ..... FILE INTERRUPT HANDLER ..........         03/04/70 1406.3 PAGE 2

      00057 -0500 00 1 77726         CAL     STATUS,1      INSURE USER STILL WAITING                  FINT0062
      00060  0402 00 2 00000         SUB     0,2           ..                                         FINT0063
      00061 -0100 00 0 00067         TNZ     UNLK2         .. USER NOT WAITING, SKIP                  FINT0064
      00062  0600 00 1 75207         STZ     AWAKE,1       RESET USER ALARM CLOCK                     FINT0065
      00063                          SCHEDL  Q2,UTEMP,Q2   INFORM SCHEDL USER READY TO RUN            FINT0066
      00067  1 77777 1 00070  UNLK2  TXI     *+1,1,-1      INCREMENT USER NO.                         FINT0067
      00070  3 77727 1 00052         TXH     UNLK1,1,-N-1  REPEAT FOR ALL USERS                       FINT0068
      00071  0020 00 0 00031         TRA     RET           RETURN WHEN DONE                           FINT0069
                                                                                                      FINT0070
                                                                                                      FINT0071
      00072  0441 60 4 00004  FILOCK LDI*    4,4           HERE WHEN FILE INTERLOCKED, GET ILC        FINT0072
      00073 -0054 00  000002         LFT     B             WAS THIS CALL FROM CORE A                  FINT0073
      00074  0020 00 0 00100         TRA     FILOK1        .. NO, SKIP                                FINT0074
      00075 -0520 00 0 00167         NZT     LOCRTN        IS FILE INTERLOCK RETURN SET               FINT0075
      00076  0000 00 0 00076  IFERR  HTR     *             .. NO, STOP                                FINT0076
      00077  0021 60 0 00167         TTR*    LOCRTN        .. YES, TAKE INTERLOCK RETURN TO SUPERVISORFINT0077
                                                                                                      FINT0078
      00100 -0500 00 0 72224  FILOK1 CAL     UILOCK        HERE FOR USER CALL, GET ILOCK RETURN       FINT0079
      00101  0100 00 0 00106         TZE     FILOK2        NO RETURN SET, SKIP                        FINT0080
      00102  0621 00 0 72162         STA     ILC           SET AS ILC                                 FINT0081
      00103 -0500 60 4 00003         CAL*    3,4           RESTORE USER IR4                           FINT0082
      00104  0621 00 0 72166         STA     IR4           ..                                         FINT0083
      00105  0020 00 0 00005         TRA     RSTCPU        RESTART USER AT NEW ILC                    FINT0084
                                                                                                      FINT0085
      00106  0535 00 1 74502  FILOK2 LAC     USER,1        HERE TO SET USER IN FILE WAIT              FINT0086
      00107 -0500 60 4 00005         CAL*    5,4           GET CHECKSUM OF FILE WHICH IS LOCKED       FINT0087
      00110  0602 00 1 00240         SLW     FCKSM,1       PUT AWAY                                   FINT0088
      00111                          SCHEDL  Q2,USER,Q6    INFORM SCHEDL OF THIS                      FINT0089
      00115 -0774 00 2 00000         AXC     0,2           .. ' FILE WAIT '                           FINT0090
      00116  0020 00 0 00141         TRA     TPWT          GO TYPE MESSAGE                            FINT0091
                                                                                                      FINT0092
                                                                                                      FINT0093
      00117 -0500 00 0 00313  QWAIT  CAL     QBLOCK        SEE IF THIS QWAIT IS FOR BLOCKED CALL      FINT0094
      00120  0600 00 0 00313         STZ     QBLOCK        .. RESET BLOCK WORD                        FINT0095
      00121  0100 00 0 00031         TZE     RET           USER NOT BLOCKED FROM DEVICE, RETURN       FINT0096
      00122  0441 60 4 00004         LDI*    4,4           WAS THIS CALL FROM MEM. B                  FINT0097
      00123 -0056 00  000002         LNT     B             ..                                         FINT0098
      00124  0020 00 0 00031         TRA     RET           .. NO                                      FINT0099
      00125  0535 00 1 74502         LAC     USER,1        GET USER NUMBER OF CURRENT USER            FINT0100
      00126  0441 00 1 75770         LDI     USROPT,1      PICK UP USER OPTIONS                       FINT0101
      00127 -0054 00  000400         LFT     NINTBT        IS THIS USER NOT TO BE INTERRUPTED         FINT0102
      00130  0020 00 0 00031         TRA     RET           YES, LOOP ON QWAIT UNTIL DEVICE UNBLOCKED  FINT0103
                                                                                                      FINT0104
      00131  0602 00 1 00240         SLW     FCKSM,1       USER TO WAIT, SET DEVICE CODE              FINT0105
      00132  0737 00 2 00000         PAC     ,2            ..                                         FINT0106
      00133                          SCHEDL  Q2,USER,Q7    INFORM SCHEDL. USER WAITING FOR I/O DEVICE FINT0107
      00137 -0500 00 0 00321         CAL     =V36/30*60    SET USER ALARM CLOCK                       FINT0108
      00140  0602 00 1 75207         SLW     AWAKE,1       .. FOR 30 SECONDS                          FINT0109
                                                                                                      FINT0110
      00141 -0500 00 2 00230  TPWT   CAL     COMNT,2       PICK UP WORD FOR COMMENT                   FINT0111
      00142  0602 00 0 00236         SLW     FWT           ..                                         FINT0112
      00143 -0520 00 0 74502         NZT     USER          IS USER THE BACKGROUND SYSTEM              FINT0113
      00144  0020 00 0 00152         TRA     TPWT1         .. YES                                     FINT0114
      00145                          WRTYPE  ,FWT,2,USER,0 .. NO, TYPE MESSAGE ON USER TERMINAL       FINT0115
      00151  0020 00 0 00154         TRA     TPWT2         ..                                         FINT0116
                                                                                                      FINT0117
1       M1416 3845  PETER R. BOS ..... FILE INTERRUPT HANDLER ..........         03/04/70 1406.3 PAGE 3

      00152  0074 00 4 00002  TPWT1  TSX     EPRINT,4      HERE IF USER BACKGROUND SYSTEM             FINT0118
      00153  0 00004 0 00234         PZE     BKFWT,,4      PRINT MESSAGE ONLINE                       FINT0119
                                                                                                      FINT0120
      00154                   TPWT2  RESTOR  IF(X4)        .. YES, RESTORE CALLER IR4                 FINT0121
      00155 -0500 60 4 00003         CAL*    3,4           RESTORE USER IR4                           FINT0122
      00156  0621 00 0 72166         STA     IR4           ..                                         FINT0123
      00157 -0500 60 4 00004         CAL*    4,4           RESTORE USER ILC                           FINT0124
      00160  0621 00 0 72162         STA     ILC           ..                                         FINT0125
      00161  0020 00 0 00000         TRA     CYCLE         RETURN TO MAIN CONTROL                     FINT0126
                                                                                                      FINT0127
                                                                                                      FINT0128
      00162  0560 00 0 00167  ILKRTN LDQ     LOCRTN        ROUTINE TO SET SUPERVISOR ILOCK RETURN     FINT0129
      00163 -0500 00 4 00001         CAL     1,4           GET NEW RETURN ADDRESS                     FINT0130
      00164  0621 00 0 00167         STA     LOCRTN        ..                                         FINT0131
      00165 -0130 00 0 00000         XCL                   RETURN OLD VALUE IN AC                     FINT0132
      00166  0020 00 4 00002         TRA     2,4           ..                                         FINT0133
                                                                                                      FINT0134
      00167  0 00000 0 00000  LOCRTN PZE     0             SUPERVISOR FILE INTERLOCK RETURN           FINT0135
                                                                                                      FINT0136
                                                                                                      FINT0137
      00170                   FIOERR SAVE    FER(X4)       FILE ERROR ENTRY, SAVE X4                  FINT0138
      00171  0074 00 4 00003         TSX     GETUSR,4      GET MEMORY SWITCH FOR CALL                 FINT0139
      00172  3 00002 0 00311         PAR     TEMP,,2       ..                                         FINT0140
      00173  0441 00 0 00312         LDI     TEMP+1        ..                                         FINT0141
      00174  0056 00  000002         RNT     B             WAS THIS CALL FROM CORE B                  FINT0142
      00175  0020 00 0 00215         TRA     FIOER1        NO, SKIP                                   FINT0143
      00176  0534 00 4 72223         LXA     UFERTN,4      PICK UP USER FILE ERROR RETURN             FINT0144
      00177  0634 00 4 72162         SXA     ILC,4         SET AS USER ILC                            FINT0145
      00200  3 00000 4 00005         TXH     RSTCPU,4,0    RETURN TO USER AT NEW LOCATION IF SPECIFIEDFINT0146
      00201                          SETAB   LA,*,*        NO RETURN SPECIFIED, SET CALLS FROM MEM A  FINT0147
      00205  0074 00 4 00004         TSX     PRDIAG,4      PRINT ERROR DIAGNOSTIC                     FINT0148
      00206                          TYPE    (/ NO ERROR RETURN SPECIFIED./)                          FINT0149
      00211  0535 00 4 72166         LAC     IR4,4         SET UP ILC FOR RETRY BY USER               FINT0150
      00212  0634 00 4 72162         SXA     ILC,4         ..                                         FINT0151
      00213  0074 00 4 00001         TSX     DORMNT,4      AND SET USER DORMANT                       FINT0152
      00214  000000000010            VFD     O36/SB.ERR    ..                                         FINT0153
                                                                                                      FINT0154
      00215                   FIOER1 RESTOR  FER(X4),*     RESTORE CALLER IR4                         FINT0155
      00216  0520 00 0 00227         ZET     FILRTN        IS SUPERVISOR ERROR RETURN DEFINED         FINT0156
      00217  0021 60 0 00227         TTR*    FILRTN        .. YES                                     FINT0157
      00220  0074 00 4 00004         TSX     PRDIAG,4      NO RETURN SPECIFIED, PRINT DIAGNOSTIC      FINT0158
      00221  0000 00 0 00221         HTR     *             AND STOP.                                  FINT0159
                                                                                                      FINT0160
      00222  0560 00 0 00227  FERRTN LDQ     FILRTN        ROUTINE TO SET SUPERVISOR FILE ERROR RETURNFINT0161
      00223 -0500 00 4 00001         CAL     1,4           PICK UP NEW ERROR ADDRESS                  FINT0162
      00224  0621 00 0 00227         STA     FILRTN        ..                                         FINT0163
      00225 -0130 00 0 00000         XCL                   RETURN OLD VALUE IN AC                     FINT0164
      00226  0020 00 4 00002         TRA     2,4           ..                                         FINT0165
                                                                                                      FINT0166
      00227  0 00000 0 00000  FILRTN PZE     0             SUPERVISOR FILE ERROR RETURN LOCATION      FINT0167
                                                                                                      FINT0168
                                                                                                      FINT0169
      00230  602631432557     COMNT  BCI     / FILE/                                                  FINT0170
      00231  602431624257            BCI     / DISK/                                                  FINT0171
      00232  602431624257            BCI     / DISK/                                                  FINT0172
      00233  606321472557            BCI     / TAPE/                                                  FINT0173
1       M1416 3845  PETER R. BOS ..... FILE INTERRUPT HANDLER ..........         03/04/70 1406.3 PAGE 4

                       00003  FMAX   EQU     *-1-COMNT                                                FINT0174
                                                                                                      FINT0175
      00234  602221234227     BKFWT  BCI     / BACKGROUND/                                            FINT0176
      00235  514664452457
      00236  602651466371     FWT    BCI     / FROTZ WAIT/                                            FINT0177
      00237  606621316357
                                                                                                      FINT0178
      00240                   FCKSM  BSS     N+1                                                      FINT0179
                                                                                                      FINT0180
      00311  0 00000 0 00000  TEMP   PZE                                                              FINT0181
      00312  0 00000 0 00000  UTEMP  PZE                                                              FINT0182
      00313  0 00000 0 00000  QBLOCK PZE     0             NON-ZERO IF QWAIT BLOCKED                  FINT0183
                                                                                                      FINT0184
      00314                          RMT     *                                                        FINT0186
      00314  604546602551     ..001  BCI     / NO ERROR RETURN SPECIFIED./                            FINT0186.001
                                     END                                                              FINT0188

        LITERALS
      00321  000000003410
1       M1416 3845  PETER R. BOS ..... FILE INTERRUPT HANDLER ..........         03/04/70 1406.3 PAGE 1
                        POST PROCESSOR ASSEMBLY DATA

       72127 IS THE LAST LOCATION NOT USED BY THIS PROGRAM
        322 IS THE FIRST LOCATION NOT USED BY THIS PROGRAM

0REFERENCES TO DEFINED SYMBOLS
          2      B    73,  123,  174
         50      N    70,  240
      74653     LA   202
      74654     M0   203,  204
      74671     Q0    12
      74667     Q2    64,   66,  112,  134
      74663     Q6    43,  114
      74662     Q7    41,  136
        236    FWT   142,  146
      72162    ILC   102,  160,  177,  212
      72166    IR4   104,  156,  211
          1    .F.   210
         31    RET    25,   40,   71,  121,  124,  130
          3   FMAX   234
         31   IFX1    13
         32   IFX2    14
         33   IFX3    15
         34   IFX4    16,  154
        311   TEMP    45,   54,  172,  173
        141   TPWT   116
      74502   USER   106,  113,  125,  135,  143,  147,  210
      75207  AWAKE    62,  140
        234  BKFWT   153
        230  COMNT   141,  234
          0  CYCLE   161
        240  FCKSM    53,   56,  110,  131
        215  FERX4   170
         22  ICODE    22,   23,   31
         76  IFERR    21
        314  ..001   207,  321
          5  ..002   207,  321
         11  .WRFX   145
        117  QWAIT    30
          7  SETAB   201
        152  TPWT1   144
        154  TPWT2   151
         52  UNLK1    70
         67  UNLK2    55,   61
        312  UTEMP    52,   65
         10  WRFLX   206
          1 DORMNT   213
          2 EPRINT   152
        222 FERRTN     0
         72 FILOCK    26
        100 FILOK1    74
        106 FILOK2   101
        227 FILRTN   216,  217,  222,  224
        215 FIOER1   175
        170 FIOERR     0
          3 GETUSR   171
1       M1416 3845  PETER R. BOS ..... FILE INTERRUPT HANDLER ..........         03/04/70 1406.3 PAGE 2
                        POST PROCESSOR ASSEMBLY DATA

          6 ICODES    21,   31
         12 IFUNCT     0
        162 ILKRTN     0
         36 IOBLOK    23
        167 LOCRTN    75,   77,  162,  164
        400 NINTBT   127
          4 PRDIAG   205,  220
        313 QBLOCK    37,   46,   50,  117,  120
          5 RSTCPU   105,  200
         10 SB.ERR   214
          6 SCHEDL    63,  111,  133
      77726 STATUS    57
      72223 UFERTN   176
      72224 UILOCK   100
         41 UNBLOK    24
         43 UNLOCK    27,   42
      75770 USROPT   126

0 NO ERROR IN ABOVE ASSEMBLY.


DUMP8B   BCD 03/04/70 1439.3   13053         00000
1       M1416 3845  PETER R. BOS ..... DUMP UNDUMP AND FREEUP .............      03/04/70 1407.9 PAGE 1

                                                                                                      DUMP0002
                              *  REVISION OF PREVIOUS VERSION BY R. DALEY                             DUMP0003
                                                                                                      DUMP0004
                                     PCC     ON                                                       DUMP0005
                                     NOLNK                                                            DUMP0006
                       00034         ENTRY   DUMP          TO INITIATE USER DUMP                      DUMP0007
                       00174         ENTRY   UNDUMP        TO RESTORE USER FROM DISK OR DRUM          DUMP0008
                       00375         ENTRY   FREEUP        TO FREE UP 'NWORDS' OF MEMORY B            DUMP0009
                       01477         ENTRY   NDERRS        POINTER TO ERROR COUNT                     DUMP0010
                                     LBL     DUMP0000                                                 DUMP0011
                                     PCC     OFF                                                      DUMP0012
                                                                                                      DUMP0013
                                     EXTERN  SCHEDL,LONGSV,LNGRST,SETAB,CHNGUS,IOSTRT,IOSTOP          DUMP0014
                                     EXTERN  OPEN,TRFILE,RDFILE,WRFILE,CLOSE,WRFLX,PRINT              DUMP0015
                                     EXTERN  EPRINT,ADDTIM,DTBC,BTOC,STARTD,STOPD,STARTE              DUMP0016
                                     EXTERN  STOPE,SETUFD,DEAD,USTAT,ILKRTN,FERRTN                    DUMP0017
                                                                                                      DUMP0018
                                     UNLIST                                                           DUMP0019

                                                                                                      DUMP0025
                                                                                                      DUMP0026
      00034                   DUMP   SAVE    DMP(X1,X4)    HERE TO BEGIN USER DUMP                    DUMP0027
      00036  0535 00 1 74502         LAC     USER,1        GET USER NO. OF CURRENT USER               DUMP0028
      00037  0600 00 1 75402         STZ     IOD,1         RESET HIS DUMP WORD COUNT                  DUMP0029
      00040  0600 00 1 01353         STZ     SEGPNT,1      .. SECTOR POINTER                          DUMP0030
      00041  0600 00 1 01424         STZ     SEGCNT,1      .. AND SECTOR COUNT                        DUMP0031
      00042                          CALL    CHNGUS(Q1)    SET TSS TO BE DISK USER                    DUMP0032
      00044                          SCHEDL  Q3,USER,Q0    TELL SCHEDL NOW DUMPING USER               DUMP0033
      00050  0564 00 0 77777         ENB     ENBWD         REENABLE AFTER SCHEDL                      DUMP0034
      00051                          CALL    IOSTOP(Q2)    BLOCK FURTHER I/O FOR USER                 DUMP0035
      00053 -0500 00 1 76500         CAL     PROBN,1       SKIP DUMP IF USER LOGGED OUT               DUMP0036
      00054 -0501 00 1 77726         ORA     STATUS,1      .. AND ALSO DEAD                           DUMP0037
      00055  0100 00 0 00371         TZE     DMPRTN        ..                                         DUMP0038
                                                                                                      DUMP0039
      00056  0756 00 1 00000  DMP1   PCA     ,1            USER NO. TO AC                             DUMP0040
      00057  0074 00 7 01066         TSX     DRMPTR,7      PICK UP DRUM ADDRESS FOR DUMP              DUMP0041
      00060  0602 00 0 00066         SLW     DMP2          ..                                         DUMP0042
      00061  0074 00 4 00001         TSX     LONGSV,4      SAVE ALL OF USER MACHINE CONDITIONS        DUMP0043
      00062  0074 00 4 01016         TSX     CSTOP,4       STOP AND DISABLE ALL CHANNELS              DUMP0044
      00063  0074 00 4 00702         TSX     SETDER,4      SET UP DRUM ERROR PROCEDURE                DUMP0045
      00064  0 00000 0 00553                 DMPERR        ..                                         DUMP0046
      00065  0074 00 4 00656         TSX     FWRITE,4      WRITE OUT USER MACHINE CONDITIONS TABLE    DUMP0047
      00066  0 00000 0 00000  DMP2   PZE     -,,-          .. ON HIGH SPEED DRUM                      DUMP0048
      00067 -0 00377 0 72156         IOCP    MACOND,,EMCOND-MACOND  ..                                DUMP0049
      00070  0 00537 0 72556         IOCD    Q3U2,,Q3U1-Q3U2 ..                                       DUMP0050
      00071  0074 00 4 00705         TSX     DRMWAT,4      WAIT FOR DRUM I/O COMPLETION               DUMP0051
      00072  0074 00 4 01034         TSX     CSTART,4      RESTART AND REENABLE CHANNELS              DUMP0052
      00073                          STLBIT  IOD,1,,20     INDICATE USER MACHINE CONDITIONS DUMPED    DUMP0053
      00076 -0520 00 1 77726         NZT     STATUS,1      IS USER IN DEAD STATUS                     DUMP0054
      00077  0020 00 0 00371         TRA     DMPRTN        .. YES, IGNORE CORE STATUS                 DUMP0055
      00100  0534 00 4 72161         LXA     MEMBND,4      GET USER MEMORY SIZE                       DUMP0056
      00101 -3 00000 4 00371         TXL     DMPRTN,4,0    SKIP IF ZERO                               DUMP0057
      00102 -0754 00 4 00000         PXD     ,4            ..                                         DUMP0058
      00103  0622 00 1 75402         STD     IOD,1         SAVE FOR UNDUMP LATER                      DUMP0059
      00104  0520 00 0 74457         ZET     DISKSW        IS THIS FORCED SLODMP                      DUMP0060
      00105  0020 00 0 00123         TRA     SLODMP        .. YES, GO DUMP USER ON DISK               DUMP0061
1       M1416 3845  PETER R. BOS ..... DUMP UNDUMP AND FREEUP .............      03/04/70 1407.9 PAGE 2

      00106  0754 00 4 00000         PXA     ,4            WORD COUNT TO AC                           DUMP0062
      00107  0771 00 0 00013         ARS     11            GET HIGH ORDER FOUR BITS                   DUMP0063
      00110 -0320 00 0 01514         ANA     =O17          .. OF MEMBND                               DUMP0064
      00111  0400 00 0 74670         ADD     Q1            COMPUTE NUMBER OF SECTORS REQUIRED         DUMP0065
      00112  0602 00 1 01424         SLW     SEGCNT,1      ..                                         DUMP0066
      00113 -0500 00 0 01077         CAL     SCOUNT        DO WE HAVE THIS MANY LEFT                  DUMP0067
      00114  0402 00 1 01424         SUB     SEGCNT,1      .. ON THE HIGH SPEED DRUM                  DUMP0068
      00115 -0120 00 0 00123         TMI     SLODMP        NO, GO DUMP USER ON DISK OR LOW SPEED DRUM DUMP0069
      00116  0602 00 0 01077         SLW     SCOUNT        YES, SAVE NEW SECTOR COUNT                 DUMP0070
      00117                          STLBIT  IOD,1,,1      INDICATE USER DUMP IS PARTIAL              DUMP0071
      00122  0020 00 0 00371         TRA     DMPRTN        .. AND RETURN                              DUMP0072
                                                                                                      DUMP0073
      00123  0600 00 1 01424  SLODMP STZ     SEGCNT,1      HERE TO DUMP USER ON DISK                  DUMP0074
      00124  0600 00 0 74457         STZ     DISKSW        RESET FORCE SWITCH                         DUMP0075
      00125 -0500 00 1 75402         CAL     IOD,1         PICK UP USER DUMP WORD COUNT               DUMP0076
      00126  0622 00 0 00163         STD     DMP3+4        .. INSERT IN CALL                          DUMP0077
      00127                          STLBIT  IOD,1,,2      INDICATE USER DUMP IS ON DISK              DUMP0078
      00132  0074 00 4 00017         TSX     ADDTIM,4      UPDATE ALL TIME COUNTERS                   DUMP0079
      00133 -0625 00 0 74473         STL     DSKSW         INDICATE DISK SWAP TIME                    DUMP0080
      00134  0564 00 0 77777         ENB     ENBWD         REENABLE AFTER ADDTIM                      DUMP0081
      00135                          SETAB   LA,LA,LB      SET CORE SWITCHES FOR DATA FROM MEM. B     DUMP0082
      00141  0074 00 4 00031         TSX     ILKRTN,4      SET FILE INTERLOCK RETURN                  DUMP0083
      00142  0 00000 0 00560         PZE     DMPER2        ..                                         DUMP0084
      00143  0074 00 4 00032         TSX     FERRTN,4      SET FILE ERROR RETURN                      DUMP0085
      00144  0 00000 0 00560         PZE     DMPER2        ..                                         DUMP0086
      00145                          CALL    OPEN(W,USER,UDUMP.,=O21,Q1)                              DUMP0087
      00153                          CALL    TRFILE(USER,UDUMP.,Q0)                                   DUMP0088
      00157                   DMP3   CALL    WRFILE(USER,UDUMP.,Q1,(0,,-))                            DUMP0089
      00164                          CALL    CLOSE(USER,UDUMP.)                                       DUMP0090
      00167  0074 00 4 00032         TSX     FERRTN,4      RESET ERROR RETURN                         DUMP0091
      00170  0 00000 0 00000         PZE     0             ..                                         DUMP0092
      00171  0074 00 4 00017         TSX     ADDTIM,4      UPDATE ALL TIME COUNTERS                   DUMP0093
      00172  0600 00 0 74473         STZ     DSKSW         RESET DISK SWAP SWITCH                     DUMP0094
      00173  0020 00 0 00371         TRA     DMPRTN        .. *SIGH*                                  DUMP0095
1       M1416 3845  PETER R. BOS ..... DUMP UNDUMP AND FREEUP .............      03/04/70 1407.9 PAGE 3

                                                                                                      DUMP0097
      00174                   UNDUMP SAVE    DMP(X1,X2,X3,X4) HERE TO RESTORE USER DUMP               DUMP0098
      00200  0564 00 0 77777         ENB     ENBWD         REENABLE AFTER ADDTIM                      DUMP0099
      00201  0535 00 1 74502         LAC     USER,1        GET USER NO. OF CURRENT USER               DUMP0100
      00202                          STZBIT  IOD,1,,1      RESET PARTIAL DUMP INDICATOR               DUMP0101
      00205 -0500 00 1 75402         CAL     IOD,1         PICK UP USER DUMP WORD COUNT               DUMP0102
      00206 -0734 00 4 00000         PDX     ,4            ..                                         DUMP0103
      00207 -0634 00 4 74451         SXD     NWORDS,4      SET WORD COUNT FOR CORE CLEAR              DUMP0104
      00210 -0520 00 0 74502         NZT     USER          IF USER IS THE BACKGROUND SYSTEM           DUMP0105
      00211  0774 00 4 77777         AXT     -1,4          .. FREE UP ALL OF CORE                     DUMP0106
      00212  0634 00 4 74451         SXA     NWORDS,4      SET NUMBER OF WORDS NEEDED                 DUMP0107
      00213 -3 00000 4 00215         TXL     *+2,4,0       SKIP IF NONE NEEDED                        DUMP0108
      00214  0074 00 4 00375         TSX     FREEUP,4      INSURE ENOUGH ROOM FOR INCOMING USER       DUMP0109
      00215                          SCHEDL  Q4,USER,Q0    TELL SCHEDL STARTING TO RESTORE USER       DUMP0110
      00221  0441 00 1 75402         LDI     IOD,1         GET USER DUMP STATUS                       DUMP0111
      00222  0056 00  000020         RNT     20            WERE MACHINE CONDITIONS DUMPED             DUMP0112
      00223  0020 00 0 00302         TRA     UDMP6         .. NO, RESET AND EXIT                      DUMP0113
      00224  0564 00 0 77777         ENB     ENBWD         REENABLE AFTER SCHEDL                      DUMP0114
                                                                                                      DUMP0115
      00225  0756 00 1 00000  UDMP1  PCA     ,1            GET USER NO. TO AC FOR DRUM ADDRESS ROUTINEDUMP0116
      00226  0074 00 7 01066         TSX     DRMPTR,7      PICK UP SELECT ADDRESS FOR DUMP            DUMP0117
      00227  0602 00 0 00234         SLW     UDMP2         ..                                         DUMP0118
      00230  0074 00 4 01016         TSX     CSTOP,4       STOP AND DIASBLE ALL CHANNELS              DUMP0119
      00231  0074 00 4 00702         TSX     SETDER,4      DEFINE DRUM ERROR PROCEDURE                DUMP0120
      00232  0 00000 0 00553                 DMPERR        ..                                         DUMP0121
      00233  0074 00 4 00651         TSX     FREAD,4       RESTORE USER MACHINE CONDITION DUMP        DUMP0122
      00234  0 00000 0 00000  UDMP2  PZE     -,,-          ..                                         DUMP0123
      00235 -0 00377 0 72156         IOCP    MACOND,,EMCOND-MACOND  ..                                DUMP0124
      00236  0 00537 0 72556         IOCD    Q3U2,,Q3U1-Q3U2  ..                                      DUMP0125
      00237  0074 00 4 00705         TSX     DRMWAT,4      WAIT FOR DRUM TO FINISH UP                 DUMP0126
      00240 -0500 00 1 75402         CAL     IOD,1         PICK UP USER CORE SIZE                     DUMP0127
      00241  0771 00 0 00022         ARS     18            ..                                         DUMP0128
      00242 -0320 00 0 74651         ANA     AMASK         MASK POSSIBLE JUNK                         DUMP0129
      00243  0602 00 0 72161         SLW     MEMBND        INSURE MEMBND AGREES WITH NWORDS LOADED    DUMP0130
      00244  0767 00 0 00022         ALS     18            ..                                         DUMP0131
      00245 -0520 00 0 74502         NZT     USER          IN CASE OF BACKGROUND SYSTEM,              DUMP0132
      00246 -0500 00 0 74647         CAL     DMASK         .. ALLOW ACCESS TO ALL OF CORE             DUMP0133
      00247  0622 00 0 72157         STD     PRIND         SET PROTECTION LIMITS FOR USER             DUMP0134
      00250                          ZETBIT  IOD,1,,2      IS THIS USER DUMPED ON HIGH SPEED DRUM     DUMP0135
      00252  0020 00 0 00322         TRA     SLOLOD        .. NO, GO RESTORE USER FROM DISK           DUMP0136
                                                                                                      DUMP0137
      00253  0074 00 4 00702         TSX     SETDER,4      REDEFINE DRUM ERROR PROCEDURE              DUMP0138
      00254  0 00000 0 00560                 DMPER2        .. FOR CORE ERRORS                         DUMP0139
      00255 -0500 00 1 01353         CAL     SEGPNT,1      PICK UP POINTER TO FIRST SECTOR OF DUMP    DUMP0140
      00256 -0734 00 3 00000         PDX     ,3            ..                                         DUMP0141
      00257 -0500 00 1 75402         CAL     IOD,1         AND WORD COUNT TO RESTORE                  DUMP0142
      00260 -0734 00 2 00000         PDX     ,2            ..                                         DUMP0143
      00261 -3 00000 2 00303         TXL     UNCHAN,2,0    SKIP IF NOTHING TO RESTORE                 DUMP0144
      00262  0774 00 1 00000         AXT     0,1           SET UP INITIAL LOAD ADDRESS                DUMP0145
      00263  0774 00 4 04000         AXT     2048,4        INITIALIZE FREAD CALL                      DUMP0146
      00264 -0634 00 4 00276         SXD     UDMP5,4       .. FOR ALL BUT LAST SECTOR                 DUMP0147
                                                                                                      DUMP0148
      00265 -3 00000 3 00303  UDMP3  TXL     UNCHAN,3,0    SKIP IF LAST SECTOR HAS BEEN READ          DUMP0149
      00266  2 04000 2 00270         TIX     *+2,2,2048    IF THIS IS LAST SECTOR,                    DUMP0150
      00267 -0634 00 2 00276         SXD     UDMP5,2       SET PARTIAL SECTOR WORD COUNT INTO CALL    DUMP0151
      00270  0754 00 3 00000         PXA     ,3            GET DRUM ADDRESS FOR THIS SECTOR           DUMP0152
1       M1416 3845  PETER R. BOS ..... DUMP UNDUMP AND FREEUP .............      03/04/70 1407.9 PAGE 4

      00271  0074 00 7 01063         TSX     DADDR,7       ..                                         DUMP0153
      00272  0602 00 0 00275         SLW     UDMP4         ..                                         DUMP0154
      00273  0634 00 1 00276         SXA     UDMP5,1       STARTING ADDRESS FOR THIS SECTOR           DUMP0155
      00274  0074 00 4 00651         TSX     FREAD,4       READ IN THIS SECTOR                        DUMP0156
      00275  0 00000 0 00000  UDMP4  PZE     -,,-          ..                                         DUMP0157
      00276  0 00000 1 00000  UDMP5  IOCD    -,1,-         ..                                         DUMP0158
      00277 -0500 00 3 01353         CAL     DCHAIN,3      GET POINTER TO NEXT SECTOR IF ANY          DUMP0159
      00300 -0734 00 3 00000         PDX     ,3            ..                                         DUMP0160
      00301  1 04000 1 00265         TXI     UDMP3,1,2048  SET STARTING LOCATION FOR THIS SECTOR      DUMP0161
                                                                                                      DUMP0162
      00302  0074 00 4 00631  UDMP6  TSX     RSUSR,4       HERE IF MACHINE CONDITIONS NEVER DUMPED    DUMP0163
                                                                                                      DUMP0164
      00303  0535 00 1 74502  UNCHAN LAC     USER,1        RETURN SECTORS TO USE                      DUMP0165
      00304 -0500 00 1 01353         CAL     SEGPNT,1      GET USER SECTOR POINTER                    DUMP0166
      00305  0600 00 1 01353         STZ     SEGPNT,1      .. RESET IT                                DUMP0167
      00306 -0734 00 4 00000  UNCHN1 PDX     ,4            POINTER TO NEXT SECTOR IF ANY              DUMP0168
      00307 -3 00000 4 00313         TXL     UNCHN2,4,0    SKIP IF AT END OF CHAIN                    DUMP0169
      00310 -0500 00 4 01353         CAL     DCHAIN,4      GET NEXT SECTOR IN CHAIN                   DUMP0170
      00311  0600 00 4 01353         STZ     DCHAIN,4      .. RESET IT                                DUMP0171
      00312  0020 00 0 00306         TRA     UNCHN1        KEEP LOOKING                               DUMP0172
                                                                                                      DUMP0173
      00313 -0500 00 0 01077  UNCHN2 CAL     SCOUNT        RETURN USER SECTORS TO SYSTEM              DUMP0174
      00314  0400 00 1 01424         ADD     SEGCNT,1      ..                                         DUMP0175
      00315 -0320 00 0 74651         ANA     AMASK         .. MASK POSSIBLE JUNK (PRTIAL)             DUMP0176
      00316  0602 00 0 01077         SLW     SCOUNT        ..                                         DUMP0177
      00317  0074 00 4 00705         TSX     DRMWAT,4      WAIT FOR DRUM I/O COMPLETION               DUMP0178
      00320  0074 00 4 01034         TSX     CSTART,4      RESTART AND REENABLE ALL CHANNELS          DUMP0179
      00321  0020 00 0 00363         TRA     UDMP8         EXIT                                       DUMP0180
                                                                                                      DUMP0181
      00322  0074 00 4 01034  SLOLOD TSX     CSTART,4      HERE TO RESTORE USER FROM DISK             DUMP0182
      00323 -0520 00 0 72161         NZT     MEMBND        IS USER CORE IMAGE NEEDED                  DUMP0183
      00324  0020 00 0 00366         TRA     UDMPX         .. NO, RETURN                              DUMP0184
      00325 -0500 00 1 75402         CAL     IOD,1         PICK UP USER DUMP WORD COUNT               DUMP0185
      00326  0622 00 0 00352         STD     UDMP7+4       .. INSERT IN CALL                          DUMP0186
      00327  0074 00 4 00017         TSX     ADDTIM,4      UPDATE ALL TIME COUNTERS                   DUMP0187
      00330 -0625 00 0 74473         STL     DSKSW         CHARGE DISK SWAP TIME                      DUMP0188
      00331  0564 00 0 77777         ENB     ENBWD         REENABLE AFTER ADDTIM                      DUMP0189
      00332                          SETAB   LA,LA,LB      SET MEMORY SWITCHES FOR DATA IN MEM. B     DUMP0190
      00336  0074 00 4 00031         TSX     ILKRTN,4      SET INTERLOCK RETURN                       DUMP0191
      00337  0 00000 0 00560         PZE     DMPER2        ..                                         DUMP0192
      00340  0074 00 4 00032         TSX     FERRTN,4      SET ERROR RETURN                           DUMP0193
      00341  0 00000 0 00560         PZE     DMPER2        ..                                         DUMP0194
      00342                          CALL    OPEN(R,USER,UDUMP.)                                      DUMP0195
      00346                   UDMP7  CALL    RDFILE(USER,UDUMP.,Q0,(0,,-),DMPER2)                     DUMP0196
      00354                          CALL    CLOSE(USER,UDUMP.)                                       DUMP0197
      00357  0074 00 4 00032         TSX     FERRTN,4      RESET ERROR RETURN                         DUMP0198
      00360  0 00000 0 00000         PZE     0             ..                                         DUMP0199
      00361  0074 00 4 00017         TSX     ADDTIM,4      UPDATE TIME COUNTERS AFTER DISK SWAP       DUMP0200
      00362  0600 00 0 74473         STZ     DSKSW         RESET DISK SWAP SWITCH                     DUMP0201
                                                                                                      DUMP0202
      00363                   UDMP8  ZETBIT  IOD,1,,14     CHECK FOR ERRORS RESTORING USER            DUMP0203
      00365  0020 00 0 00567         TRA     UDMPER        .. YES, GO TO ERROR SECTION                DUMP0204
      00366  0074 00 4 00002  UDMPX  TSX     LNGRST,4      RESTORE USER MACHINE CONDITIONS            DUMP0205
      00367                          RESTOR  DMP(X2,X3),*  RESTORE UNDUMP XRS                         DUMP0206
                                                                                                      DUMP0207
      00371  0564 00 0 77777  DMPRTN ENB     ENBWD         REENABLE AFTER ADDTIM                      DUMP0208
1       M1416 3845  PETER R. BOS ..... DUMP UNDUMP AND FREEUP .............      03/04/70 1407.9 PAGE 5

      00372                          RETURN  (1,4),DMP(X1,X4)  .. RETURN TO CALLER                    DUMP0209
1       M1416 3845  PETER R. BOS ..... DUMP UNDUMP AND FREEUP .............      03/04/70 1407.9 PAGE 6

                                                                                                      DUMP0211
      00375                   FREEUP SAVE    FREE(X1,X4)   ROUTINE TO FREE UP 'NWORDS' OF MEM. B      DUMP0212
      00377 -0500 00 0 74451         CAL     NWORDS        PICK UP NUMBER OF WORDS NEEDED             DUMP0213
      00400  0622 00 0 00412         STD     FREE0         SAVE BASE OF AREA TO BE CLEARED            DUMP0214
      00401  0771 00 0 00013         ARS     11            GET HIGH ORDER 4 BITS                      DUMP0215
      00402  0361 00 0 74670         ACL     Q1            ..                                         DUMP0216
      00403  0767 00 0 00035         ALS     29            MAKE IT A MULTIPLE OF 2048                 DUMP0217
      00404 -0320 00 0 74647         ANA     DMASK         MASK TO 15 BITS                            DUMP0218
      00405 -0100 00 0 00407         TNZ     *+2           .. CHECK FOR 100000                        DUMP0219
      00406 -0500 00 0 74647         CAL     DMASK         .. MAKE IT 77777                           DUMP0220
      00407  0602 00 0 74451         SLW     NWORDS        SAVE                                       DUMP0221
      00410 -0734 00 4 00000         PDX     ,4            BOTTOM OF AREA TO BE CLEARED               DUMP0222
      00411  0634 00 4 00456         SXA     FREE5,4       .. SAVE                                    DUMP0223
      00412  2 00000 4 00414  FREE0  TIX     *+2,4,-       COMPUTE WORD COUNT TO CLEAR                DUMP0224
      00413  0774 00 4 00000         AXT     0,4           NONE IF .LE. OLD                           DUMP0225
      00414  0634 00 4 00453         SXA     FREE4,4       .. SAVE                                    DUMP0226
      00415  0074 00 4 00702         TSX     SETDER,4      SET UP DRUM ERROR PROCEDURE                DUMP0227
      00416  0 00000 0 00562                 FRDERR        ..                                         DUMP0228
      00417 -0774 00 1 00000         AXC     0,1           START WITH USER 0                          DUMP0229
      00420                   FREE1  NZTBIT  IOD,1,,1      DOES THIS USER HAVE PARTIAL DUMP           DUMP0230
      00422  0020 00 0 00450         TRA     FREE3         .. NO, SKIP                                DUMP0231
      00423  0636 00 1 01475         SCA     FRUSER,1      SAVE USER NUMBER OF THIS USER              DUMP0232
      00424 -0500 00 1 75402         CAL     IOD,1         GET USER CURRENT MEMORY SIZE               DUMP0233
      00425 -0320 00 0 74647         ANA     DMASK         ..                                         DUMP0234
      00426  0057 00  000001         RIR     1             RESET PARTIAL DUMP FLAG                    DUMP0235
      00427 -0340 00 0 74451         LAS     NWORDS        WILL USER STILL BE PARTIALLY DUMPED        DUMP0236
      00430  0055 00  000001         SIR     1             .. YES                                     DUMP0237
      00431 -0500 00 0 74451         CAL     NWORDS        GET NUMBER OF WORDS TO DUMP                DUMP0238
      00432  0602 00 0 01476         SLW     LCOUNT        ..                                         DUMP0239
      00433  0604 00 1 75402         STI     IOD,1         SAVE NEW PARTIAL DUMP FLAG AND MEMORY SIZE DUMP0240
      00434 -0500 00 1 01424         CAL     PRTIAL,1      GET USER PARTIAL DUMP WORD COUNT           DUMP0241
      00435 -0734 00 4 00000         PDX     ,4            ..                                         DUMP0242
      00436 -0754 00 4 00000         PXD     ,4            ..                                         DUMP0243
      00437  0402 00 0 01476         SUB     LCOUNT        COMPUTE NUMBER OF WORDS TO DUMP            DUMP0244
      00440  0120 00 0 00450         TPL     FREE3         SKIP IF ENOUGH DUMPED ALREADY FOR THIS USERDUMP0245
      00441  0622 00 0 00447         STD     FREE2         DUMP WORD COUNT FOR THIS USER              DUMP0246
      00442  0634 00 4 00447         SXA     FREE2,4       STARTING LOCATION FOR DUMP                 DUMP0247
      00443 -0500 00 0 01476         CAL     LCOUNT        SET NEW USER PARTIAL DUMP WORD COUNT       DUMP0248
      00444  0622 00 1 01424         STD     PRTIAL,1      ..                                         DUMP0249
      00445  0074 00 4 01016         TSX     CSTOP,4       STOP AND DISABLE ALL CHANNELS              DUMP0250
      00446  0074 00 4 00465         TSX     FDUMP,4       EXTEND OR COMPLETE USER DUMP ON DRUM       DUMP0251
      00447  0 00000 0 00000  FREE2  PZE     -,,-          ..                                         DUMP0252
      00450  1 77777 1 00451  FREE3  TXI     *+1,1,-1      COUNT USERS                                DUMP0253
      00451  3 77727 1 00420         TXH     FREE1,1,-N-1  RETURN FOR NEXT USER                       DUMP0254
      00452  0074 00 4 01034         TSX     CSTART,4      RESTART AND REENABLE CHANNELS WHEN DONE    DUMP0255
      00453  0774 00 4 00000  FREE4  AXT     -,4           WORD COUNT OF AREA TO CLEAR                DUMP0256
      00454 -3 00000 4 00462         TXL     FREEX,4,0     SKIP IF NOTHING TO CLEAR                   DUMP0257
      00455 -0761 00 0 00042         SEB                   SET ECC TO CORE 'B'                        DUMP0258
                                     EVEN                  SAVE A FEW CYCLES HERE AND THERE           DUMP0259
      00456  0600 00 4 00000  FREE5  STZ     -,4           CLEAR AREA OUTSIDE USER CURRENT LIMITS     DUMP0260
      00457  2 00001 4 00456         TIX     *-1,4,1       ..                                         DUMP0261
      00460  0600 00 0 77777         STZ     -1            CANNOT GET HERE UNLESS 77777 OUTSIDE LIMITSDUMP0262
      00461 -0761 00 0 00041         SEA                   RESET ECC TO CORE 'A'                      DUMP0263
      00462                   FREEX  RETURN  (1,4),FREE(X1,X4)  RETURN                                DUMP0264
1       M1416 3845  PETER R. BOS ..... DUMP UNDUMP AND FREEUP .............      03/04/70 1407.9 PAGE 7

                                                                                                      DUMP0266
      00465                   FDUMP  SAVE    FDMP(X4,X2,X1) ROUTINE TO DUMP PART OF USER CORE         DUMP0267
      00470 -0500 00 4 00001         CAL     1,4           PZE FIRST,,N                               DUMP0268
      00471 -0734 00 2 00000         PDX     0,2           COUNT TO IR2                               DUMP0269
      00472  0734 00 1 00000         PAX     0,1           STARTING LOCATION TO IR1                   DUMP0270
      00473                          SCHEDL  Q3,FRUSER,Q0  TELL SCHEDL. NOW DUMPING USER              DUMP0271
                                                                                                      DUMP0272
      00477  0634 00 1 00530  FDMP1  SXA     SECTX1,1      SAVE STARTING LOCATION                     DUMP0273
      00500  0774 00 4 00253  LSTSEC AXT     NSECTS,4      LAST SECTOR ASSIGNED SAVED HERE            DUMP0274
      00501 -0520 00 4 01353  SECT1  NZT     DCHAIN,4      FIND UNUSED SECTOR                         DUMP0275
      00502  0020 00 0 00506         TRA     SECT2         .. SKIP WHEN FOUND                         DUMP0276
      00503  2 00001 4 00501         TIX     SECT1,4,1     ..                                         DUMP0277
      00504  0774 00 4 00253         AXT     NSECTS,4      ..                                         DUMP0278
      00505  0020 00 0 00501         TRA     SECT1         ..                                         DUMP0279
                                                                                                      DUMP0280
      00506  0634 00 4 00500  SECT2  SXA     LSTSEC,4      SAVE LAST SECTOR ASSIGNED                  DUMP0281
      00507 -0625 00 4 01353         STL     DCHAIN,4      INDICATE THAT THIS SECTOR IS IN USE        DUMP0282
      00510  0535 00 1 01475         LAC     FRUSER,1      GET THIS USER NO.                          DUMP0283
      00511 -0500 00 1 01353         CAL     SEGPNT,1      GET HIS DRUM SECTOR POINTER                DUMP0284
      00512 -0100 00 0 00520         TNZ     SECT3         SKIP IF NOT FIRST SECTOR                   DUMP0285
      00513  0754 00 4 00000         PXA     0,4           HERE FOR FIRST SECTOR FOR THIS USER        DUMP0286
      00514  0621 00 1 01353         STA     SEGPNT,1      SET POINTER TO FIRST SECTOR IN CHAIN       DUMP0287
      00515 -0754 00 4 00000         PXD     0,4           .. ALSO LAST SECTOR IN CHAIN               DUMP0288
      00516  0622 00 1 01353         STD     SEGPNT,1      ..                                         DUMP0289
      00517  0020 00 0 00526         TRA     SECT4         GO TO WRITE THIS SECTOR                    DUMP0290
                                                                                                      DUMP0291
      00520  0734 00 1 00000  SECT3  PAX     0,1           HERE IF NOT FIRST SECTOR FOR THIS USER     DUMP0292
      00521 -0754 00 4 00000         PXD     0,4           CHAIN THIS SECTOR                          DUMP0293
      00522  0622 00 1 01353         STD     DCHAIN,1      .. TO PREVIOUS SECTOR                      DUMP0294
      00523  0535 00 1 01475         LAC     FRUSER,1      RESTORE USER NO.                           DUMP0295
      00524  0754 00 4 00000         PXA     0,4           UPDATE POINTER TO LAST SECTOR              DUMP0296
      00525  0621 00 1 01353         STA     SEGPNT,1      .. IN THIS USER'S DUMP CHAIN               DUMP0297
                                                                                                      DUMP0298
      00526  0754 00 4 00000  SECT4  PXA     ,4            PICK UP ADDRESS OF THIS SECTOR             DUMP0299
      00527  0074 00 7 01063         TSX     DADDR,7       ..                                         DUMP0300
      00530  0774 00 1 00000  SECTX1 AXT     **,1          RESTORE IR1                                DUMP0301
      00531 -2 04000 2 00540         TNX     FDMP4,2,2048  COUNT SECTORS                              DUMP0302
      00532  0602 00 0 00535         SLW     FDMP2         SET UP THIS SECTOR ADDRESS                 DUMP0303
      00533  0634 00 1 00536         SXA     FDMP3,1       SET STARTING ADDRESS FOR THIS SECTOR       DUMP0304
      00534  0074 00 4 00656         TSX     FWRITE,4      WRITE OUT THIS SECTOR                      DUMP0305
      00535  0 00000 0 00000  FDMP2  PZE     **,,**        ..                                         DUMP0306
      00536  0 04000 1 00000  FDMP3  IOCD    **,1,2048     ..                                         DUMP0307
      00537  1 04000 1 00477         TXI     FDMP1,1,2048  BUMP STARTING ADDRESS FOR NEXT SECTOR      DUMP0308
                                                                                                      DUMP0309
      00540  0602 00 0 00544  FDMP4  SLW     FDMP5         SET DRUM SECTOR ADDRESS                    DUMP0310
      00541  0634 00 1 00545         SXA     FDMP6,1       SET STARTING ADDRESS FOR THIS SECTOR       DUMP0311
      00542 -0634 00 2 00545         SXD     FDMP6,2       SET WORD COUNT FOR THIS SECTOR             DUMP0312
      00543  0074 00 4 00656         TSX     FWRITE,4      WRITE OUT THIS SECTOR                      DUMP0313
      00544  0 00000 0 00000  FDMP5  PZE     **,,**        ..                                         DUMP0314
      00545  0 00000 1 00000  FDMP6  IOCD    **,1,**       ..                                         DUMP0315
      00546  0074 00 4 00705         TSX     DRMWAT,4      WAIT UNTIL LAST SECTOR WRITTEN             DUMP0316
      00547                   FDMPX  RETURN  (2,4),FDMP(X4,X2,X1) RETURN TO FREEUP                    DUMP0317
1       M1416 3845  PETER R. BOS ..... DUMP UNDUMP AND FREEUP .............      03/04/70 1407.9 PAGE 8

                                                                                                      DUMP0319
                                             ..... ERROR ROUTINES FOR DUMP/UNDUMP .....               DUMP0320
                                                                                                      DUMP0321
      00553  0535 00 7 74502  DMPERR LAC     USER,7        ERROR DUMPING OR LOADING MACH. COND.       DUMP0322
      00554                          STLBIT  IOD,7,,4      SET ERROR BIT                              DUMP0323
      00557  0020 00 4 00001         TRA     1,4           RETURN TO CALLING ROUTINE                  DUMP0324
                                                                                                      DUMP0325
      00560  0535 00 7 74502  DMPER2 LAC     USER,7        ERROR DUMPING OR LOADING CORE IMAGE        DUMP0326
      00561  0020 00 0 00563         TRA     *+2           .. SKIP                                    DUMP0327
      00562  0535 00 7 01475  FRDERR LAC     FRUSER,7      FREEUP ERROR, GET CURRENT USER BEING DUMPEDDUMP0328
      00563                          STLBIT  IOD,7,,10     SET CORE ERROR BIT                         DUMP0329
      00566  0020 00 4 00001         TRA     1,4           RETURN                                     DUMP0330
                                                                                                      DUMP0331
                                                                                                      DUMP0332
      00567  0535 00 1 74502  UDMPER LAC     USER,1        TERMINAL ERROR ROUTINE                     DUMP0333
      00570  0441 00 1 75402         LDI     IOD,1         PICK UP USER DUMP ERROR FLAGS              DUMP0334
      00571  0056 00  000004         RNT     4             WAS ERROR ON MACHINE CONDITIONS            DUMP0335
      00572  0020 00 0 00614         TRA     UDMPR1        .. NO, ERROR ON CORE DUMP                  DUMP0336
      00573  0074 00 4 00631         TSX     RSUSR,4       RESET ALL USER MACHINE CONDITIONS          DUMP0337
      00574                          CALL    CHNGUS(Q2)    SET USER TO BE DISK USER                   DUMP0338
      00576                          SETAB   LA,LA,LA      CALLS FROM CORE A                          DUMP0339
      00602 -0500 00 1 76427         CAL     PROGN,1       FUDGE UP AN AUTHOR NUMBER                  DUMP0340
      00603 -0320 00 0 01523         ANA     =O171717171717 ..                                        DUMP0341
      00604 -0130 00 0 00000         XCL                   ..                                         DUMP0342
      00605  0074 00 4 00020         TSX     DTBC,4        ..                                         DUMP0343
      00606  0602 00 0 72231         SLW     AUTHOR        PUT AWAY                                   DUMP0344
      00607  0500 00 1 76500         CLA     PROBN,1       RESET USER TO HOME U.F.D.                  DUMP0345
      00610  0560 00 1 76305         LDQ     UFDNM,1       ..                                         DUMP0346
      00611 -0603 00 0 72236         DST     USRFIL        ..                                         DUMP0347
      00612  0074 00 4 00026         TSX     SETUFD,4      ..                                         DUMP0348
      00613  0761 00 0 00000         NOP                   IGNORE POSSIBLE ERROR                      DUMP0349
      00614                   UDMPR1 TYPE    (/ DRUM ERROR IN DUMP, YOUR PROGRAM STATUS IS RESET./)   DUMP0350
                                                                                                      DUMP0351
      00617                   GODEAD SCHEDL  Q5,USER,Q0    DUMMY CALL TO FINISH USER IN SCHEDL        DUMP0352
      00623  0074 00 4 00017         TSX     ADDTIM,4      UPDATE TIME COUNTERS                       DUMP0353
      00624  0600 00 0 74475         STZ     SWPSW         CHARGE FOREGROUND TIME                     DUMP0354
      00625  0600 00 0 74473         STZ     DSKSW         ..                                         DUMP0355
      00626  0564 00 0 77777         ENB     ENBWD         REENABLE AFTER SCHEDL                      DUMP0356
      00627  0074 00 4 00027         TSX     DEAD,4        AND PLACE USER IN DEAD STATUS              DUMP0357
      00630  000000000010            VFD     O36/SB.ERR    ..                                         DUMP0358
                                                                                                      DUMP0359
      00631  0634 00 4 00646  RSUSR  SXA     RSX4,4        SAVE LINKAGE                               DUMP0360
      00632  0774 00 7 00377         AXT     EMCOND-MACOND,7 ROUTINE TO RESET USER MACHINE STATUS     DUMP0361
      00633  0600 00 7 72555         STZ     EMCOND,7      ..                                         DUMP0362
      00634  2 00001 7 00633         TIX     *-1,7,1       ..                                         DUMP0363
      00635  0074 00 4 00004         TSX     CHNGUS,4      SET USER TO BE DISK USER                   DUMP0364
      00636  3 00000 0 74667         PAR     Q2            .. USER NO. 2                              DUMP0365
      00637  0074 00 4 00030         TSX     USTAT,4       SET UP USER WITH CLEAN AFST                DUMP0366
      00640  3 00366 0 72727         PAR     AFSTU2,,AFS2LN ..                                        DUMP0367
      00641  3 00100 0 72627         PAR     Q1U2,,Q1U2LN  ..                                         DUMP0368
      00642  3 00000 0 72627         PAR     Q1U2,,0       ..                                         DUMP0369
      00643  3 00051 0 72556         PAR     Q3U2,,Q3U2LN  ..                                         DUMP0370
      00644  0074 00 4 00004         TSX     CHNGUS,4      RESTORE TSS AS DISK USER                   DUMP0371
      00645  3 00000 0 74670         PAR     Q1            ..                                         DUMP0372
      00646  0774 00 4 00000  RSX4   AXT     -,4           RESTORE LINKAGE                            DUMP0373
      00647  0020 00 4 00001         TRA     1,4           .. RETURN                                  DUMP0374
1       M1416 3845  PETER R. BOS ..... DUMP UNDUMP AND FREEUP .............      03/04/70 1407.9 PAGE 9

                                                                                                      DUMP0376
                                             ..... HIGH-SPEED DRUM I/O ROUTINES .....                 DUMP0377
                                                                                                      DUMP0378
                      007000  U      BOOL    7000          HIGH SPEED DRUM CHANNEL 'G'                DUMP0379
             0647 71 1 60000  SCDU   OPD     064771160000  SCDG (NOT DEFINED IN FAP)                  DUMP0380
                      007330  DRMADR BOOL    U+330         HIGH SPEED DRUM SELECT ADDRESS             DUMP0381
                      000026  DRMTRP BOOL    26            HIGH SPEED DRUM TRAP LOCATIONS             DUMP0382
      00650 +000000000100     UENB   OCT     100           HIGH SPEED DRUM ENABLE WORD                DUMP0383
                                                                                                      DUMP0384
      00651  0634 00 4 00662  FREAD  SXA     FRWX4,4       ROUTINE TO READ FROM HIGH SPEED DRUM       DUMP0385
      00652  0074 00 4 00705         TSX     DRMWAT,4      WAIT UNTIL DRUM CHANNEL FREE               DUMP0386
      00653 -0625 00 0 00761         STL     DRMSEL        SAVE SELECT IN CASE OF ERROR               DUMP0387
      00654  0762 00 0 07330         RDS     DRMADR        SELECT DRUM FOR READING                    DUMP0388
      00655  0020 00 0 00662         TRA     FRWX4         GO PICK UP I/O COMMANDS                    DUMP0389
                                                                                                      DUMP0390
      00656  0634 00 4 00662  FWRITE SXA     FRWX4,4       ROUTINE TO WRITE ON HIGH SPEED DRUM        DUMP0391
      00657  0074 00 4 00705         TSX     DRMWAT,4      WAIT UNTIL DRUM CHANNEL FREE               DUMP0392
      00660 -0625 00 0 00761         STL     DRMSEL        SAVE SELECT IN CASE OF ERROR               DUMP0393
      00661  0766 00 0 07330         WRS     DRMADR        SELECT DRUM FOR WRITING                    DUMP0394
                                                                                                      DUMP0395
      00662  0774 00 4 00000  FRWX4  AXT     **,4          RESTORE CALLER'S IR4                       DUMP0396
      00663 -0500 00 4 00001         CAL     1,4           PICK UP I/O COMMANDS                       DUMP0397
      00664  0602 00 0 01053         SLW     DRMCOM        ..                                         DUMP0398
      00665  0441 00 4 00002         LDI     2,4           .. KEEP 2,4 IN SI                          DUMP0399
      00666  0604 00 0 01054         STI     DRMCOM+1      ..                                         DUMP0400
      00667 -0500 00 4 00003         CAL     3,4           ..                                         DUMP0401
      00670  0602 00 0 01055         SLW     DRMCOM+2      ..                                         DUMP0402
      00671  0564 00 0 74671         ENB     Q0            DISABLE TRAPS                              DUMP0403
      00672  0543 00 0 01053         RCHU    DRMCOM        START UP HIGH SPEED DRUM CHANNEL           DUMP0404
      00673 -0625 00 0 01051         STL     UCHECK        SET SWITCH TO CHECK THIS OPERATION         DUMP0405
      00674 -0625 00 0 01050         STL     UBUSY         INDICATE DRUM CHANNEL BUSY                 DUMP0406
      00675  0600 00 0 00026         STZ     DRMTRP        RESET PREVIOUS TRAP                        DUMP0407
      00676  0564 00 0 00650         ENB     UENB          REENABLE DRUM TRAP                         DUMP0408
      00677 -0054 00  700000         LFT     700000        WAS 2,4 AN IOCP                            DUMP0409
      00700  0020 00 4 00004         TRA     4,4           YES, RETURN 4,4                            DUMP0410
      00701  0020 00 4 00003         TRA     3,4           NO, RETURN 3,4                             DUMP0411
                                                                                                      DUMP0412
      00702 -0500 00 4 00001  SETDER CAL     1,4           ROUTINE TO SET DRUM ERROR PROCEDURE        DUMP0413
      00703  0621 00 0 01014         STA     DRMERR        SAVE ADDRESS OF DRUM ERROR ROUTINE         DUMP0414
      00704  0020 00 4 00002         TRA     2,4                                                      DUMP0415
                                                                                                      DUMP0416
      00705  0020 00 0 00706  DRMWAT TRA     *+1           WAIT AND CHECK PREVIOUS DRUM OPERATION     DUMP0417
      00706  0760 00 0 07352         RDCU                  FIRST PASS SETUP                           DUMP0418
      00707  0600 00 0 00026         STZ     DRMTRP        SET UP DRUM TRAP LOCATIONS                 DUMP0419
      00710 -0500 00 0 00766         CAL     UTRAP         ..                                         DUMP0420
      00711  0602 00 0 00027         SLW     DRMTRP+1      ..                                         DUMP0421
      00712 -0625 00 0 00705         STL     DRMWAT        CLOSE THIS PATH                            DUMP0422
                                                                                                      DUMP0423
      00713 -0520 00 0 01051         NZT     UCHECK        IS THERE A PREVIOUS OPERATION TO CHECK     DUMP0424
      00714  0020 00 4 00001         TRA     1,4           NO, RETURN                                 DUMP0425
      00715  0600 00 0 01051         STZ     UCHECK        YES, RESET CHECK SWITCH                    DUMP0426
      00716  0634 00 4 00747         SXA     DRMWX4,4                                                 DUMP0427
      00717  0774 00 4 00012         AXT     10,4          NO. OF TIMES TO RETRY AFTER DRUM ERROR     DUMP0428
      00720  0564 00 0 00650  DRMW1  ENB     UENB          INSURE DRUM IS ENABLED                     DUMP0429
      00721 -0500 00 0 74455         CAL     SWPWAT        COUNT SWAP OR USER WAIT TIME IN CYCLES     DUMP0430
      00722 -0520 00 0 74475         NZT     SWPSW         ..                                         DUMP0431
1       M1416 3845  PETER R. BOS ..... DUMP UNDUMP AND FREEUP .............      03/04/70 1407.9 PAGE 10

      00723 -0500 00 0 74456         CAL     USRWAT        ..                                         DUMP0432
      00724 -0520 00 0 01050  CHBUSY NZT     UBUSY         IS DRUM CHANNEL BUSY                       DUMP0433
      00725  0020 00 0 00732         TRA     CHDONE        NO, GO CHECK LAST OPERATION                DUMP0434
      00726 -0066 00 0 00732         TCNU    CHDONE        CHECK FOR MISSED TRAP                      DUMP0435
      00727  0400 00 0 74662         ADD     Q7            CHANNEL STILL BUSY,  KEEP COUNTING         DUMP0436
      00730  0774 00 0 00000         AXT     0,0           .. INSURE NO OVERLAP                       DUMP0437
      00731  0020 00 0 00724         TRA     CHBUSY        ..                                         DUMP0438
                                                                                                      DUMP0439
      00732  0520 00 0 74475  CHDONE ZET     SWPSW         HERE WHEN CHANNEL FINISHED                 DUMP0440
      00733  0602 00 0 74455         SLW     SWPWAT        SAVE SWAP WAIT TIME                        DUMP0441
      00734 -0520 00 0 74475         NZT     SWPSW         .. OR                                      DUMP0442
      00735  0602 00 0 74456         SLW     USRWAT        .. USER WAIT TIME                          DUMP0443
      00736  0647 00 0 01052         SCDU    DRMFLG        SAVE CHANNEL FLAGS                         DUMP0444
      00737  0441 00 0 01052         LDI     DRMFLG        CHECK FOR ERROR                            DUMP0445
      00740 -0054 00  700020         LFT     700020        ..                                         DUMP0446
      00741  0020 00 0 00751         TRA     DRMW2         SKIP TO RETRY ON ERROR                     DUMP0447
      00742  0441 00 0 00026         LDI     DRMTRP        CHECK DRUM TRAP FLAGS                      DUMP0448
      00743 -0054 00  000006         LFT     6             WAS THERE AN EOF OR REDUNDANCY             DUMP0449
      00744  0020 00 0 00754         TRA     DRMW2A        YES, ERROR                                 DUMP0450
      00745 -0056 00  000001         LNT     1             NO, IS THIS A NORMAL END                   DUMP0451
      00746  0020 00 0 00754         TRA     DRMW2A        NO, ERROR                                  DUMP0452
      00747  0774 00 4 00000  DRMWX4 AXT     **,4          YES, RETURN                                DUMP0453
      00750  0020 00 4 00001         TRA     1,4           ..                                         DUMP0454
                                                                                                      DUMP0455
      00751 -0054 00  400000  DRMW2  LFT     400000        WAS THERE AN I/O CHECK                     DUMP0456
      00752  0760 00 0 00005         IOT                   IF SO TURN OFF I/O CHECK TRIGGER           DUMP0457
      00753  0761 00 0 00000         NOP                   ..                                         DUMP0458
      00754 -0500 00 0 01477  DRMW2A CAL     NDERRS        COUNT DRUM ERRORS FOR RECORD               DUMP0459
      00755  0400 00 0 74670         ADD     Q1            ..                                         DUMP0460
      00756  0602 00 0 01477         SLW     NDERRS        ..                                         DUMP0461
      00757 -2 00001 4 00772         TNX     DRMW3,4,1     DO WE TRY AGAIN                            DUMP0462
      00760  0564 00 0 74671         ENB     Q0            YES                                        DUMP0463
      00761  0522 00 0 00000  DRMSEL XEC     **            RESELECT DRUM                              DUMP0464
      00762  0543 00 0 01053         RCHU    DRMCOM        ..                                         DUMP0465
      00763 -0625 00 0 01050         STL     UBUSY         ..                                         DUMP0466
      00764  0600 00 0 00026         STZ     DRMTRP        ..                                         DUMP0467
      00765  0020 00 0 00720         TRA     DRMW1         AND WAIT                                   DUMP0468
                                                                                                      DUMP0469
      00766  0021 00 0 00767  UTRAP  TTR     *+1           DRUM TRAP ROUTINE                          DUMP0470
      00767  0600 00 0 01050         STZ     UBUSY         RESET BUSY SWITCH ON DRUM TRAP             DUMP0471
      00770  0564 00 0 00650         ENB     UENB          REENABLE                                   DUMP0472
      00771  0020 60 0 00026         TRA*    DRMTRP        RETURN                                     DUMP0473
                                                                                                      DUMP0474
      00772  0066 00 0 00772  DRMW3  TCOU    *                                                        DUMP0475
      00773  0441 60 0 00761         LDI*    DRMSEL        HERE ON FATAL DRUM ERROR                   DUMP0476
      00774 -0500 00 0 01525         CAL     =HWRITE       SET UP ERROR COMMENT                       DUMP0477
      00775 -0056 00  076600         LNT     076600        ..                                         DUMP0478
      00776 -0500 00 0 01524         CAL     =HREAD        ..                                         DUMP0479
      00777  0602 00 0 01057         SLW     DERCOM+1      ..                                         DUMP0480
      01000 -0500 00 0 01053         CAL     DRMCOM        .. GET SECTOR ADDRESS                      DUMP0481
      01001  0621 00 0 01052         STA     DRMFLG        ..                                         DUMP0482
      01002 -0500 00 0 00026         CAL     DRMTRP        .. GET TRAP FLAGS                          DUMP0483
      01003  0771 00 0 00003         ARS     3             .. INTO TAG                                DUMP0484
      01004  0625 00 0 01052         STT     DRMFLG        ..                                         DUMP0485
      01005  0560 00 0 01052         LDQ     DRMFLG        ..                                         DUMP0486
      01006  0074 00 4 00021         TSX     BTOC,4        .. CONVERT FLAGS TO OCTAL                  DUMP0487
1       M1416 3845  PETER R. BOS ..... DUMP UNDUMP AND FREEUP .............      03/04/70 1407.9 PAGE 11

      01007  0602 00 0 01061         SLW     DERCOM+3      ..                                         DUMP0488
      01010  0074 00 4 00021         TSX     BTOC,4        ..                                         DUMP0489
      01011  0602 00 0 01062         SLW     DERCOM+4      ..                                         DUMP0490
      01012  0074 00 4 00016         TSX     EPRINT,4      PRINT DRUM ERROR COMMENT ON LINE           DUMP0491
      01013  0 00005 0 01056                 DERCOM,,5     ..                                         DUMP0492
      01014  0074 00 4 00000  DRMERR TSX     **,4          EXECUTE DRUM ERROR PROCEDURE               DUMP0493
      01015  0020 00 0 00747         TRA     DRMWX4        AND RETURN                                 DUMP0494
                                                                                                      DUMP0495
      01016  0634 00 4 01032  CSTOP  SXA     STPX4,4       ROUTINE TO SHUT DOWN ALL I/O CHANNELS      DUMP0496
      01017  0520 00 0 01047         ZET     CSTSW         HAVE CHANNELS ALREADY BEEN STOPPED         DUMP0497
      01020  0020 00 4 00001         TRA     1,4           .. YES, RETURN STRAIGHTAWAY                DUMP0498
      01021  0564 00 0 77777         ENB     ENBWD         INSURE ENABLE                              DUMP0499
      01022  0074 00 4 00006         TSX     IOSTOP,4      STOP ALL I/O                               DUMP0500
      01023  3 00000 0 74671         PAR     Q0                                                       DUMP0501
      01024  0060 00 0 01024         TCOA    *             WAIT ON TAPE CHANNELS                      DUMP0502
      01025  0061 00 0 01025         TCOB    *             ..                                         DUMP0503
      01026  0564 00 0 74671         ENB     Q0            DISABLE ALL CHANNELS                       DUMP0504
      01027  0074 00 4 00023         TSX     STOPD,4       SHUT DOWN DIRECT DATA AND CHANNEL D        DUMP0505
      01030  0074 00 4 00025         TSX     STOPE,4       SHUT DOWN CHANNEL E (7750 CHANNEL)         DUMP0506
      01031 -0625 00 0 01047         STL     CSTSW         RECORD CHANNELS HAVE BEEN STOPPED          DUMP0507
      01032  0774 00 4 00000  STPX4  AXT     **,4                                                     DUMP0508
      01033  0020 00 4 00001         TRA     1,4                                                      DUMP0509
                                                                                                      DUMP0510
      01034  0634 00 4 01045  CSTART SXA     STRTX4,4      ROUTINE TO RESTART I/O CHANNELS            DUMP0511
      01035 -0520 00 0 01047         NZT     CSTSW         HAVE CHANNELS BEEN STOPPED                 DUMP0512
      01036  0020 00 4 00001         TRA     1,4           .. NO, RETURN STRAIGHT AWAY                DUMP0513
      01037  0074 00 4 00022         TSX     STARTD,4      RESTART DIRECT DATA AND CHANNEL D          DUMP0514
      01040  0074 00 4 00024         TSX     STARTE,4      RESTART CHANNEL E (7750 CHANNEL)           DUMP0515
      01041  0074 00 4 00005         TSX     IOSTRT,4      RESTART I/O                                DUMP0516
      01042  3 00000 0 74671         PAR     Q0            FOR CTSS                                   DUMP0517
      01043  0600 00 0 01047         STZ     CSTSW         .. RECORD THAT CHANNELS HAVE BEEN STARTED  DUMP0518
      01044  0564 00 0 77777         ENB     ENBWD         REENABLE ALL TRAPS                         DUMP0519
      01045  0774 00 4 00000  STRTX4 AXT     **,4                                                     DUMP0520
      01046  0020 00 4 00001         TRA     1,4                                                      DUMP0521
      01047  0 00000 0 00000  CSTSW  PZE     0             SWITCH TO INDICATE CHANNELS STOPPED        DUMP0522
                                                                                                      DUMP0523
      01050  0 00000 0 00000  UBUSY  PZE     0             DRUM CHANNEL BUSY SWITCH                   DUMP0524
      01051  0 00000 0 00000  UCHECK PZE     0             SWITCH TO CHECK PREVIOUS OPERATION         DUMP0525
      01052  0 00000 0 00000  DRMFLG PZE     0             TEMP FOR DRUM CHANNEL FLAGS                DUMP0526
      01053 +000000000000     DRMCOM OCT     0,0,0         7389 DRUM CHANNEL COMMANDS                 DUMP0527
      01054 +000000000000
      01055 +000000000000
      01056  602451644460     DERCOM BCI     5, DRUM WRITE ERROR 000000000000                         DUMP0528
      01057  665131632560
      01060  255151465160
      01061  000000000000
      01062  000000000000
                                                                                                      DUMP0529
1       M1416 3845  PETER R. BOS ..... DUMP UNDUMP AND FREEUP .............      03/04/70 1407.9 PAGE 12

                                                                                                      DUMP0531
                                             DEFINE DRUM CONFIGURATION                                DUMP0533
                                                                                                      DUMP0534
                       00002  DRUMS  EQU     2             NUMBER OF DRUMS ATTACHED                   DUMP0535
                       00000  FIRST  EQU     0             ADDRESS OF FIRST DRUM                      DUMP0536
                                                                                                      DUMP0537
                       00253  NSECTS EQU     DRUMS*6*16-N/2-1 SECTORS AVAILABLE FOR CORE DUMP         DUMP0538
                                                                                                      DUMP0539
                                                                                                      DUMP0540
                                             ....... COMPUTE DRUM ADDRESS FROM INDEX ........         DUMP0541
                                                                                                      DUMP0542
      01063  0100 00 7 00001  DADDR  TZE     1,7           CORE SECTOR INDEX MAY NOT BE 0             DUMP0543
      01064  0400 00 0 01516         ADD     =V36/N/2      FIRST SECTOR IS AFTER MACH. COND. AREA     DUMP0544
      01065  0767 00 0 00001         ALS     1             BLOCKS OF 2 GROUPS (ONE SECTOR)            DUMP0545
                                                                                                      DUMP0546
      01066  0767 00 0 00012  DRMPTR ALS     10            MACHINE CONDITIONS, ONE GROUP EACH         DUMP0547
      01067 -0130 00 0 00000         XCL                   ..                                         DUMP0548
      01070 -0754 00 0 00000         ZAC                   ..                                         DUMP0549
      01071  0225 36 0 01517         VDP     =6B25,,30     (=6*32768) COMPUTE PHYSICAL DRUM NO.       DUMP0550
      01072  0225 14 0 01521         VDP     =1B13,,12     (=32768) COMPUTE LOGICAL DRUM NO.          DUMP0551
      01073  0225 22 0 01522         VDP     =1B10,,18     (=1024) COMPUTE GROUP ADDRESS              DUMP0552
      01074 -0130 00 0 00000         XCL                   TO AC                                      DUMP0553
      01075  0361 00 0 01520         ACL     =V4/0,2/FIRST,12/1,18/0  OFFSET                          DUMP0554
      01076  0020 00 7 00001         TRA     1,7           RETURN                                     DUMP0555
                                                                                                      DUMP0556
                                                                                                      DUMP0557
      01077  0 00000 0 00253  SCOUNT PZE     NSECTS        NUMBER OF SECTORS LEFT                     DUMP0558
                                                                                                      DUMP0559
      01353                   DCHAIN BES     NSECTS        SECTOR CHAIN TABLE                         DUMP0560
                                                                                                      DUMP0561
                       01353  SEGPNT DUP     1,N+1         POINTERS TO FIRST AND LAST DUMP SECTORS    DUMP0562
      01353  0 00000 0 00000         PZE     0             ..                                         DUMP0563
                                                                                                      DUMP0564
                       01424  SEGCNT DUP     1,N+1         NUMBER OF SECTORS USED PER USER            DUMP0565
      01424  0 00000 0 00000         PZE     0             ..                                         DUMP0566
                                                                                                      DUMP0567
                       01424  PRTIAL SYN     SEGCNT        PARTIAL DUMP WORD COUNT IN DECREMENT       DUMP0568
                                                                                                      DUMP0569
      01475  0 00000 0 00000  FRUSER PZE     0                                                        DUMP0570
      01476  0 00000 0 00000  LCOUNT PZE     0                                                        DUMP0571
      01477  0 00000 0 00000  NDERRS PZE     0             NO. OF DRUM FAILURES SAVED HERE            DUMP0572
      01500  642464444733     UDUMP. BCI     1,UDUMP.                                                 DUMP0573
      01501  516060606060     R      BCI     1,R                                                      DUMP0574
      01502  666060606060     W      BCI     1,W                                                      DUMP0575
                                                                                                      DUMP0576
      01503                          RMT     *                                                        DUMP0577
      01503  602451644460     ..001  BCI     / DRUM ERROR IN DUMP, YOUR PROGRAM STATUS IS RESET./     DUMP0577.001
                                                                                                      DUMP0579
                                     END                                                              DUMP0580

        LITERALS
      01514  000000000017
      01515  000000000021
      01516  000000000024
      01517  000000014000
      01520  000001000000
1       M1416 3845  PETER R. BOS ..... DUMP UNDUMP AND FREEUP .............      03/04/70 1407.9 PAGE 13

      01521  000020000000
      01522  000200000000
      01523  171717171717
      01524  512521246060
      01525  665131632560
1       M1416 3845  PETER R. BOS ..... DUMP UNDUMP AND FREEUP .............      03/04/70 1407.9 PAGE 1
                        POST PROCESSOR ASSEMBLY DATA

       72127 IS THE LAST LOCATION NOT USED BY THIS PROGRAM
       1526 IS THE FIRST LOCATION NOT USED BY THIS PROGRAM

0REFERENCES TO DEFINED SYMBOLS
         50      N   451, 1063, 1353, 1424
       1501      R   343
       7000      U   650,  672,  706,  726,  762,  772
       1502      W   146
      74653     LA   136,  137,  333,  334,  577,  600,  601
      74652     LB   140,  335
      74671     Q0    47,  156,  220,  351,  476,  622,  671,  760, 1023, 1026, 1042
      74670     Q1    43,  111,  152,  162,  402,  645,  755
      74667     Q2    52,  575,  636
      74666     Q3    45,  474
      74665     Q4   216
      74664     Q5   620
      74662     Q7   727
      75402    IOD    37,   73,   75,  103,  117,  121,  125,  127,  131,  202,  204,  205,  221,  240,  250,  257,  325
                     363,  420,  424,  433,  554,  556,  563,  565,  570
          1    .F.   616
         21   BTOC  1006, 1010
         27   DEAD   627
         56   DMP1
         66   DMP2    60
        157   DMP3   126
         20   DTBC   605
         34   DUMP     0
          7   OPEN   145,  342
      72627   Q1U2   641,  642
      73315   Q3U1    70,  236
      72556   Q3U2    70,  236,  643
        646   RSX4   631
        650   UENB   676,  720,  770
      74502   USER    36,   46,  147,  154,  160,  165,  201,  210,  217,  245,  303,  344,  347,  355,  553,  560,  567
                     616,  621
      74651  AMASK   242,  315
         13  CLOSE   164,  354
       1016  CSTOP    62,  230,  445
       1047  CSTSW  1017, 1031, 1035, 1043
       1063  DADDR   271,  527
      74647  DMASK   246,  404,  406,  425
        372  DMPX1    34,  174
        367  DMPX2   175
        370  DMPX3   176
        373  DMPX4    35,  177
        720  DRMW1   765
        751  DRMW2   741
        772  DRMW3   757
          2  DRUMS  1063
      74473  DSKSW   133,  172,  330,  362,  625
      77777  ENBWD    50,  134,  200,  224,  331,  371,  626, 1021, 1044
        477  FDMP1   537
        535  FDMP2   532
        536  FDMP3   533
1       M1416 3845  PETER R. BOS ..... DUMP UNDUMP AND FREEUP .............      03/04/70 1407.9 PAGE 2
                        POST PROCESSOR ASSEMBLY DATA

        540  FDMP4   531
        544  FDMP5   540
        545  FDMP6   541,  542
        547  FDMPX
        465  FDUMP   446
          0  FIRST  1063
        651  FREAD   233,  274
        412  FREE0   400
        420  FREE1   451
        447  FREE2   441,  442
        450  FREE3   422,  440
        453  FREE4   414
        456  FREE5   411
        462  FREEX   454
        662  FRWX4   651,  655,  656
       1503  ..001   615, 1514
         11  ..002   615, 1514
      72157  PRIND   247
         15  PRINT
      76500  PROBN    53,  607
      76427  PROGN   602
        631  RSUSR   302,  573
        501  SECT1   503,  505
        506  SECT2   502
        520  SECT3   512
        526  SECT4   517
          3  SETAB   135,  332,  576
         23  STOPD  1027
         25  STOPE  1030
       1032  STPX4  1016
      74475  SWPSW   624,  722,  732,  734
       1050  UBUSY   674,  724,  763,  767
        225  UDMP1
        234  UDMP2   227
        265  UDMP3   301
        275  UDMP4   272
        276  UDMP5   264,  267,  273
        302  UDMP6   223
        346  UDMP7   326
        363  UDMP8   321
        366  UDMPX   324
      76305  UFDNM   610
         30  USTAT   637
        766  UTRAP   710
         14  WRFLX   614
         17 ADDTIM   132,  171,  327,  361,  623
        366 AFS2LN   640
      72727 AFSTU2   640
      72231 AUTHOR   606
        724 CHBUSY   731
        732 CHDONE   725,  726
          4 CHNGUS    42,  574,  635,  644
       1034 CSTART    72,  320,  322,  452
       1353 DCHAIN   277,  310,  311,  501,  507,  522
       1056 DERCOM   777, 1007, 1011, 1013
1       M1416 3845  PETER R. BOS ..... DUMP UNDUMP AND FREEUP .............      03/04/70 1407.9 PAGE 3
                        POST PROCESSOR ASSEMBLY DATA

      74457 DISKSW   104,  124
        560 DMPER2   142,  144,  254,  337,  341,  353
        553 DMPERR    64,  232
        371 DMPRTN    55,   77,  101,  122,  173
       7330 DRMADR   650,  654,  661
       1053 DRMCOM   664,  666,  670,  672,  762, 1000
       1014 DRMERR   703
       1052 DRMFLG   736,  737, 1001, 1004, 1005
       1066 DRMPTR    57,  226
        761 DRMSEL   653,  660,  773
         26 DRMTRP   650,  675,  707,  711,  742,  764,  771, 1002
        754 DRMW2A   744,  746
        705 DRMWAT    71,  237,  317,  546,  652,  657,  712
        747 DRMWX4   716, 1015
      72555 EMCOND    67,  235,  632,  633
         16 EPRINT  1012
        551 FDMPX1   467
        550 FDMPX2   466
        547 FDMPX4   465
         32 FERRTN   143,  167,  340,  357
        562 FRDERR   416
        375 FREEUP     0,  214
        462 FREEX1   375
        463 FREEX4   376
       1475 FRUSER   423,  475,  510,  523,  562
        656 FWRITE    65,  534,  543
        617 GODEAD
         31 ILKRTN   141,  336
          6 IOSTOP    51, 1022
          5 IOSTRT  1041
       1476 LCOUNT   432,  437,  443
          2 LNGRST   366
          1 LONGSV    61
        500 LSTSEC   506
      72156 MACOND    67,  235,  632
      72161 MEMBND   100,  243,  323
       1477 NDERRS     0,  754,  756
        253 NSECTS   500,  504, 1063, 1077, 1100
      74451 NWORDS   207,  212,  377,  407,  427,  431
       1424 PRTIAL   434,  444, 1475
        100 Q1U2LN   641
         51 Q3U2LN   643
         11 RDFILE   346
         10 SB.ERR   630
          0 SCHEDL    44,  215,  473,  617
       1077 SCOUNT   113,  116,  313,  316
        530 SECTX1   477
       1424 SEGCNT    41,  112,  114,  123,  314, 1475
       1353 SEGPNT    40,  255,  304,  305,  511,  514,  516,  525
        702 SETDER    63,  231,  253,  415
         26 SETUFD   612
        123 SLODMP   105,  115
        322 SLOLOD   252
         22 STARTD  1037
         24 STARTE  1040
1       M1416 3845  PETER R. BOS ..... DUMP UNDUMP AND FREEUP .............      03/04/70 1407.9 PAGE 4
                        POST PROCESSOR ASSEMBLY DATA

      77726 STATUS    54,   76
       1045 STRTX4  1034
      74455 SWPWAT   721,  733
         10 TRFILE   153
       1051 UCHECK   673,  713,  715
        567 UDMPER   365
        614 UDMPR1   572
       1500 UDUMP.   150,  155,  161,  166,  345,  350,  356
        303 UNCHAN   261,  265
        306 UNCHN1   312
        313 UNCHN2   307
        174 UNDUMP     0
      72236 USRFIL   611
      74456 USRWAT   723,  735
         12 WRFILE   157

0 NO ERROR IN ABOVE ASSEMBLY.


TCOR8B   BCD 03/04/70 1439.3   11214         00000
