1       M1416   R. CREASY AND R. DALEY ... TCOORD ... BREAK PROCESSOR SECTION    03/04/70 1414.1 PAGE 1

                                                                                                      TCOR0004
                       00010         ENTRY   TOPOOL        ENTER CHARACTER INTO COMMON INPUT BUFFER   TCOR0005
                       00174         ENTRY   .WRSCP        ENTER TO WRITE INFORMATION ON ESL DISPLAY  TCOR0006
                       00170         ENTRY   .WRFX         TYPE A LINE ON A CONSOLE (W/C.R.)          TCOR0007
                       00200         ENTRY   .WRFXA        TYPE A LINE ON A CONSOLE (NO C.R.)         TCOR0008
                       00443         ENTRY   RSSRB         RESET ALL WAITING USER INPUT LINES         TCOR0009
                       00446         ENTRY   RSSWB         RESET ALL WAITING USER OUTPUT LINES        TCOR0010
                       00515         ENTRY   BROOM         SCAN FOR ATTACHED CONSOLES                 TCOR0011
                       00530         ENTRY   SWEEP         .. CONTINUATION ENTRY                      TCOR0012
                                                                                                      TCOR0013
                                     EXTERN  WRTELY,ENTCHR,ENDLIN,KILCHR,KILLIN,KILBUF,BRKPRC         TCOR0014
                                                                                                      TCOR0015
                                                                                                      TCOR0016

        TRANSFER VECTOR
      00000  665163254370     WRTELY
      00001  254563233051     ENTCHR
      00002  254524433145     ENDLIN
      00003  423143233051     KILCHR
      00004  423143433145     KILLIN
      00005  423143226426     KILBUF
      00006  225142475123     BRKPRC

                      400000  IISLAV BOOL    400000                                                   TCOR0017
                      200000  INSLAV BOOL    200000                                                   TCOR0018
                      100000  OUTSLV BOOL    100000                                                   TCOR0019
                      077777  MINUS1 BOOL    77777                                                    TCOR0020
                                                                                                      TCOR0021
                                     UNLIST                                                           TCOR0022

                                                                                                      TCOR0028
                       00035  SWBSZ  EQU     2*WDSLIN+1    MAX. OUTPUT BUFFER SIZE                    TCOR0029
                              *****          WARNING ... SWBSZ MUST NEVER BE ZERO ... SEE STQSWB      TCOR0030
                                                                                                      TCOR0031
                                             ............... TABLE OF BREAK CHARACTERS ...............TCOR0032
                                                                                                      TCOR0033
      00007 +000000000055     NEWLIN OCT     55            CARRIAGE RETURN                            TCOR0034
                      002000  CNTROL BOOL    2000          FLAG FOR CONTROL CHARACTERS                TCOR0035
                      002002  CNOFST BOOL    2002          VALUE OF LOWEST CONTROL                    TCOR0036
                       00004  NCTL   EQU     4             NUMBER OF (CONSECUTIVE) CONTROLS           TCOR0037
1       M1416   R. CREASY AND R. DALEY ... TCOORD ... BREAK PROCESSOR SECTION    03/04/70 1414.1 PAGE 2

                                                                                                      TCOR0039
                                             TOPOOL ..... ENTER CHARACTER IN COMMON INPUT BUFFERS ....TCOR0040
                                                    ..... CHECKS FOR BREAK AND DELETE CHARACTERS      TCOR0041
                                                                                                      TCOR0042
      00010  0634 00 1 00144  TOPOOL SXA     TPLIR1,1                                                 TCOR0043
      00011  0634 00 4 00145         SXA     TPLIR4,4                                                 TCOR0044
      00012 -0737 00 1 00000         PDC     0,1           -USER NO. TO IR1                           TCOR0045
      00013  0601 00 0 00164         STO     COMMON        SAVE 'PZE CHAR,,USERNO'                    TCOR0046
      00014 -0120 00 0 00134         TMI     CMPLET        SKIP IF THIS IS A COMPLETION SIGNAL        TCOR0047
      00015  0044 00 0 00000         PAI                   IS THIS CONTROL                            TCOR0048
      00016  0054 00  002000         RFT     CNTROL          ..                                       TCOR0049
      00017  0020 00 0 00136         TRA     QUITCH          YES, GO PROCESS                          TCOR0050
      00020  0600 00 0 00167         STZ     BREAK           NO, RESET END-LINE FLAG                  TCOR0051
      00021                          ZETBIT  ,1,NCVBIT,,   IF IN NO-CONVERT MODE, IO-SLAVE LOSES.     TCOR0052
      00023  0020 00 0 00117         TRA     INOK2           JUST INSERT IT                           TCOR0053
      00024  0600 00 0 00165         STZ     OMIT          SET SWITCH TO SEND TO ALL SLAVES           TCOR0054
      00025 -0500 00 1 75065         CAL     ADOPT,1       IS HE AN II SLAVE                          TCOR0055
      00026  0044 00 0 00000         PAI                   ..                                         TCOR0056
      00027  0056 00  400000         RNT     IISLAV        ..                                         TCOR0057
      00030  0020 00 0 00036         TRA     NOTII         ..  *NO                                    TCOR0058
      00031  0737 00 4 00000         PAC     ,4            ..                                         TCOR0059
      00032 -2 00000 4 00036         TNX     NOTII,4,0     ..  *NO                                    TCOR0060
      00033  0634 00 1 00165         SXA     OMIT,1        ..  *YES.  -REAL SOU4CE IN OMIT            TCOR0061
      00034 -0636 00 4 00164         SCD     COMMON,4      PRETEND ENCODED CHAR CAME FROM ADOPTER     TCOR0062
      00035  0737 00 1 00000         PAC     0,1           ..                                         TCOR0063
                                                                                                      TCOR0064
      00036                   NOTII  ZETBIT  ,1,NBKBIT     IS USER IGNORING  CR'S                     TCOR0065
      00040  0020 00 0 00046         TRA     INOKAY          YES                                      TCOR0066
      00041 -0500 00 0 00164         CAL     COMMON          NO, GRAB CHARACTER                       TCOR0067
      00042 -0320 00 0 00654         ANA     =O777           AND REMOVE GARBAGE                       TCOR0068
      00043 -0340 00 0 00007         LAS     NEWLIN        IS THIS END-OF-LINE CHAR.                  TCOR0069
      00044  0020 00 0 00046         TRA     *+2             ..                                       TCOR0070
      00045 -0625 00 0 00167         STL     BREAK           YES, SET FLAG                            TCOR0071
                                                                                                      TCOR0072
      00046  0520 00 0 00165  INOKAY ZET     OMIT          WAS THIS CHARACTER DONATED BY AN II SLAVE  TCOR0073
      00047  0074 00 4 00147         TSX     SENDCH,4      *YES, SEND IT TO ADOPTER                   TCOR0074
      00050 -0500 00 1 75065  INOK   CAL     ADOPT,1       IS THIS USER AN IO SLAVER                  TCOR0075
      00051 -0320 00 0 00550         ANA     INWORD        ..  LOOK AT ONLY PREFIX AND SLAVE FLAG     TCOR0076
      00052  0322 00 0 00550         ERA     INWORD        ..                                         TCOR0077
      00053 -0100 00 0 00066         TNZ     INOK1         *NO                                        TCOR0078
      00054  0074 00 4 00515         TSX     BROOM,4       SEND TO ALL SLAVES                         TCOR0079
      00055  0020 00 0 00066         TRA     INOK1         *NO MORE ADOPTEES                          TCOR0080
      00056  0044 00 0 00000         PAI                   IS THIS ADOPTEE AN INPUT SLAVE             TCOR0081
      00057  0056 00  200000         RNT     INSLAV        ..                                         TCOR0082
      00060  0020 00 0 00530         TRA     SWEEP         *NO                                        TCOR0083
      00061  0754 00 1 00000         PXA     ,1            IS THIS THE II SLAVE TO OMIT               TCOR0084
      00062  0322 00 0 00165         ERA     OMIT          ..                                         TCOR0085
      00063  0100 00 0 00530         TZE     SWEEP         .. *YES                                    TCOR0086
      00064  0074 00 4 00147         TSX     SENDCH,4      *NO,  SEND HIM THE CHARACTER               TCOR0087
      00065  0020 00 0 00530         TRA     SWEEP         LOOK FOR MORE INPUT SLAVES                 TCOR0088
                                                                                                      TCOR0089
      00066  0520 00 0 00167  INOK1  ZET     BREAK         IS THIS CHARACTER A BREAK CHARACTER        TCOR0090
      00067  0020 00 0 00117         TRA     INOK2         YES, SKIP                                  TCOR0091
      00070                          ZETBIT  ,1,FULBIT,,   NO, IS USER IN 12-BIT MODE                 TCOR0092
      00072  0020 00 0 00117         TRA     INOK2         YES, SKIP                                  TCOR0093
      00073 -0054 00  000004         LFT     NBKBIT        NO, IS USER IN NO-BREAK MODE               TCOR0094
1       M1416   R. CREASY AND R. DALEY ... TCOORD ... BREAK PROCESSOR SECTION    03/04/70 1414.1 PAGE 3

      00074  0020 00 0 00114         TRA     NOK1.5        IF SO, KILL/ERASE TIME DEPENDENT, SKIP     TCOR0095
      00075 -0500 00 0 00164         CAL     COMMON        NO, GET CHARACTER IN AC                    TCOR0096
      00076  0044 00 0 00000         PAI                   AND IN SI                                  TCOR0097
      00077 -0320 00 0 00653         ANA     =O177         MASK THE CHARACTER                         TCOR0098
                                                                                                      TCOR0099
      00100 -0340 00 0 00552         LAS     ERASE1        CHECK FOR FIRST ERASE                      TCOR0100
      00101  0020 00 0 00103         TRA     *+2           ..                                         TCOR0101
      00102  0020 00 0 00126         TRA     DLCHAR        ..                                         TCOR0102
      00103 -0340 00 0 00553         LAS     ERASE2        CHECK FOR SECOND ERASE                     TCOR0103
      00104  0020 00 0 00106         TRA     *+2           ..                                         TCOR0104
      00105  0020 00 0 00126         TRA     DLCHAR        ..                                         TCOR0105
      00106 -0340 00 0 00554         LAS     KILL1         CHECK FOR FIRST KILL                       TCOR0106
      00107  0020 00 0 00111         TRA     *+2           ..                                         TCOR0107
      00110  0020 00 0 00131         TRA     DLMESS        ..                                         TCOR0108
      00111 -0340 00 0 00555         LAS     KILL2         CHECK FOR SECOND KILL                      TCOR0109
      00112  0020 00 0 00114         TRA     *+2           ..                                         TCOR0110
      00113  0020 00 0 00131         TRA     DLMESS        ..                                         TCOR0111
                                                                                                      TCOR0112
      00114  0441 00 0 00164  NOK1.5 LDI     COMMON        RESTORE TO SI FOR NBK                      TCOR0113
      00115  0054 00  000400         RFT     400           IS THE IGNORE IN 6-BIT MODE FLAG ON        TCOR0114
      00116  0020 00 0 00144         TRA     TPLIR1        YES, DO NOT ENTER IN INPUT BUFFER          TCOR0115
                                                                                                      TCOR0116
      00117 -0500 00 0 00164  INOK2  CAL     COMMON        PICK UP CHAR,,USERNO                       TCOR0117
      00120  0074 00 4 00001         TSX     ENTCHR,4      ENTER CHARACTER IN COMMON INPUT BUFFER     TCOR0118
      00121 -0520 00 0 00167         NZT     BREAK         WAS CHARACTER A BREAK CHARACTER            TCOR0119
      00122  0020 00 0 00144         TRA     TPLIR1        NO, GO TO RETURN TO CALLER                 TCOR0120
      00123 -0500 00 0 00164         CAL     COMMON        YES, PICK UP CHAR,,USERNO AGAIN            TCOR0121
      00124  0074 00 4 00002         TSX     ENDLIN,4      AND TERMINATE THIS LINE                    TCOR0122
      00125  0020 00 0 00144         TRA     TPLIR1        GO TO RETURN TO CALLER                     TCOR0123
                                                                                                      TCOR0124
      00126 -0500 00 0 00164  DLCHAR CAL     COMMON        HERE TO DELETE LAST CHARACTER IN LINE      TCOR0125
      00127  0074 00 4 00003         TSX     KILCHR,4      ..                                         TCOR0126
      00130  0020 00 0 00144         TRA     TPLIR1        AND RETURN TO CALLER                       TCOR0127
                                                                                                      TCOR0128
      00131 -0500 00 0 00164  DLMESS CAL     COMMON        HERE TO DELETE LAST USER INPUT LINE        TCOR0129
      00132  0074 00 4 00004         TSX     KILLIN,4      ..                                         TCOR0130
      00133  0020 00 0 00144         TRA     TPLIR1        RETURN TO CALLER                           TCOR0131
                                                                                                      TCOR0132
      00134 -0774 00 4 00005  CMPLET AXC     NCTL+1,4      HERE ON COMPLETION, GET CODE               TCOR0133
      00135  0020 00 0 00141         TRA     QUITC1        SKIP TO CALL BREAK PROCESSOR               TCOR0134
                                                                                                      TCOR0135
      00136  0535 00 4 00164  QUITCH LAC     COMMON,4      HERE FOR CONTROL CHAR                      TCOR0136
      00137  1 02001 4 00140         TXI     *+1,4,CNOFST-1                                           TCOR0137
      00140 -3 77773 4 00144         TXL     TPLIR1,4,-NCTL-1                                         TCOR0138
      00141  0636 00 4 00164  QUITC1 SCA     COMMON,4                                                 TCOR0139
      00142 -0500 00 0 00164         CAL     COMMON                                                   TCOR0140
      00143  0074 00 4 00006         TSX     BRKPRC,4      TELL SYSTEM ABOUT IT                       TCOR0141
                                                                                                      TCOR0142
      00144  0774 00 1 00000  TPLIR1 AXT     **,1          RESTORE IRS AND RETURN TO CALLER           TCOR0143
      00145  0774 00 4 00000  TPLIR4 AXT     **,4          ..                                         TCOR0144
      00146  0020 00 4 00001         TRA     1,4           ..                                         TCOR0145
                                                                                                      TCOR0146
                              *  *  *  *  *  *  *  *  *  *  *  *  *  *  *  *  *  *  *  *  *  *  *  *  TCOR0147
                                                                                                      TCOR0148
                                             SENDCH ...... SEND CHARACTER IN COMMON TO CONSOLE        TCOR0149
                                                    ...... -USERNO IN IR1                             TCOR0150
1       M1416   R. CREASY AND R. DALEY ... TCOORD ... BREAK PROCESSOR SECTION    03/04/70 1414.1 PAGE 4

                                                                                                      TCOR0151
      00147  0634 00 4 00162  SENDCH SXA     SENDX,4                                                  TCOR0152
      00150 -0500 00 0 00164         CAL     COMMON        PICK UP 12-BIT CHARACTER                   TCOR0153
      00151 -0320 00 0 00655         ANA     =O7777        ISOLATE IT                                 TCOR0154
      00152 -0501 00 0 00661         ORA     =O005700570000  PRECEDE CHARACTER WITH NULL CHARS.       TCOR0155
      00153 -0130 00 0 00000         XCL                   MOVE TO SWB                                TCOR0156
      00154  0074 00 4 00234         TSX     STQSWB,4      ..                                         TCOR0157
      00155  0074 00 4 00246         TSX     GETSWB,4      DUMP SWB                                   TCOR0158
      00156  0602 00 0 00160         SLW     *+2           ..                                         TCOR0159
      00157  0074 00 4 00000         TSX     WRTELY,4      ..                                         TCOR0160
      00160  0 00000 0 00000                 **,,**        ..                                         TCOR0161
      00161  0020 00 0 00162         TRA     *+1           INPROBABLE FULL RETURN                     TCOR0162
      00162  0774 00 4 00000  SENDX  AXT     **,4          RETURN TO CALLER                           TCOR0163
      00163  0020 00 4 00001         TRA     1,4                                                      TCOR0164
                                                                                                      TCOR0165
      00164                          TEMPS   (COMMON,OMIT,BRKCHK,BREAK)                               TCOR0166
                                                                                                      TCOR0167
1       M1416   R. CREASY AND R. DALEY ... TCOORD ... BREAK PROCESSOR SECTION    03/04/70 1414.1 PAGE 5

                                                                                                      TCOR0169
                                             WRFX./WRFXA. ..... OUTPUT BCD LINE TO USER CONSOLE       TCOR0170
                                                                                                      TCOR0171
                                             TSX   WRFX.,4     OR WRFXA.,4                            TCOR0172
                                             PZE   BUFF,,N                                            TCOR0173
                                             PZE   USER                                               TCOR0174
                                             ***   ******      BUFFER FULL RETURN                     TCOR0175
                                             ***   ******      NORMAL RETURN                          TCOR0176
                                                                                                      TCOR0177
      00170  0564 00 0 74671  .WRFX  ENB     Q0                                                       TCOR0178
      00171  0600 00 0 00556         STZ     SCOPF                                                    TCOR0179
      00172 -0625 00 0 00442         STL     EXTRA         INDICATE ADDED CARRAGE RETURN              TCOR0180
      00173  0020 00 0 00203         TRA     WRADP1        GO TO WORK ON LINE                         TCOR0181
                                                                                                      TCOR0182
      00174  0564 00 0 74671  .WRSCP ENB     Q0                                                       TCOR0183
      00175  0600 00 0 00442         STZ     EXTRA         NO EXTRA CR ON THE SCOPE                   TCOR0184
      00176 -0625 00 0 00556         STL     SCOPF                                                    TCOR0185
      00177  0020 00 0 00203         TRA     WRADP1                                                   TCOR0186
                                                                                                      TCOR0187
      00200  0564 00 0 74671  .WRFXA ENB     Q0            DISABLE ALL TRAPS                          TCOR0188
      00201  0600 00 0 00556         STZ     SCOPF                                                    TCOR0189
      00202  0600 00 0 00442         STZ     EXTRA         INDICATE NO EXTRA CARRIAGE RETURN          TCOR0190
                                                                                                      TCOR0191
      00203  0634 00 4 00225  WRADP1 SXA     WRXR4,4       SAVE INDEX REGISTERS                       TCOR0192
      00204  0634 00 2 00226         SXA     WRXR2,2       ..                                         TCOR0193
      00205  0634 00 1 00227         SXA     WRXR1,1       ..                                         TCOR0194
      00206  0600 00 0 00233         STZ     FULLSW        RESET MODE SWITCH                          TCOR0195
      00207  0600 00 0 00557         STZ     CALLR         ****RESET CALLR FOR SCOPE**********        TCOR0196
      00210 -0500 60 4 00002         CAL*    2,4           PICK UP USER                               TCOR0197
      00211  0737 00 1 00000         PAC     ,1            -USER TO XR1                               TCOR0198
      00212                          ZETBIT  ,1,INTBIT,HUNGBT IS USER'S DATA PHONE HUNG-UP            TCOR0199
      00214  0020 00 0 00225         TRA     WRXR4         IF SO EXIT                                 TCOR0200
      00215  0500 00 4 00001         CLA     1,4           PICK UP CONTROL WORD                       TCOR0201
      00216  0625 00 0 00557         STT     CALLR         TAG IS NON-ZERO FOR FORCED CALLS ONLY      TCOR0202
      00217  0602 00 0 00223         SLW     WRCALL        SETUP CALL TO SLWSWB                       TCOR0203
      00220  0120 00 0 00222         TPL     *+2           NOT FULL IF PREFIX PLUS                    TCOR0204
      00221 -0625 00 0 00233         STL     FULLSW        FULL IF PREFIX MINUS                       TCOR0205
      00222  0074 00 4 00254  WROKAY TSX     SLWSWB,4      PUT WORDS IN BUFFER                        TCOR0206
      00223  0 00000 0 00000  WRCALL PZE     **,,**        USING CONTROL WORD AT 1,4                  TCOR0207
      00224  0020 00 0 00231         TRA     WRADP2        NOT ENTERED                                TCOR0208
      00225  0774 00 4 00000  WRXR4  AXT     **,4          RESTORE XRS                                TCOR0209
      00226  0774 00 2 00000  WRXR2  AXT     **,2          ..                                         TCOR0210
      00227  0774 00 1 00000  WRXR1  AXT     **,1          RESTORE XR1                                TCOR0211
      00230  0020 00 4 00004  EXIT   TRA     4,4           DIRECT RETURN DISABLED                     TCOR0212
1       M1416   R. CREASY AND R. DALEY ... TCOORD ... BREAK PROCESSOR SECTION    03/04/70 1414.1 PAGE 6

                                                                                                      TCOR0214
      00231  0534 00 4 00225  WRADP2 LXA     WRXR4,4       RETURN TO 3,4                              TCOR0215
      00232  1 00001 4 00226         TXI     WRXR2,4,1     ..                                         TCOR0216
                                                                                                      TCOR0217
      00233  0 00000 0 00000  FULLSW PZE     0             NON-ZERO TO OUTPUT 12-BIT CHARACTERS       TCOR0218
                                                                                                      TCOR0219
                                             STQSWB AND GETSWB                                        TCOR0220
                                             BOTH ROUTINES RETURN 1,4                                 TCOR0221
                                             STQSWB STORES MQ IN SEC WRITE BUFFER                     TCOR0222
                                             GETSWB RETURNS F,,N AND RESETS BUFFER                    TCOR0223
                                                                                                      TCOR0224
                       00234  STQSWB EQU     *                                                        TCOR0225
      00234 -0500 00 0 00244         CAL     STQSW1        INCREMENT ADDRESS AND COUNT                TCOR0226
      00235  0361 00 0 00657         ACL     =O1000001                                                TCOR0227
      00236 -0340 00 0 00245         LAS     STQSW2        TEST FOR COUNT OVERFLOW                    TCOR0228
      00237  0020 00 0 00242         TRA     STQSWA                                                   TCOR0229
      00240  0000 00 0 00240         HTR     *             CONTROL SHOULD NEVER COME HERE             TCOR0230
      00241  0602 00 0 00244         SLW     STQSW1        SET FOR NEXT WORD                          TCOR0231
      00242 -0600 60 0 00244  STQSWA STQ*    STQSW1        STORE AWAY WORD                            TCOR0232
      00243  0020 00 4 00001         TRA     1,4                                                      TCOR0233
                                                                                                      TCOR0234
      00244  0 00000 0 00557  STQSW1 PZE     SWBUF-1,,0    START AT FRESH BUFFER                      TCOR0235
      00245  0 00036 0 00557  STQSW2 PZE     SWBUF-1,,SWBSZ+1                                         TCOR0236
                                                                                                      TCOR0237
      00246 -0500 00 0 00245  GETSWB CAL     STQSW2        GET ADDRESS                                TCOR0238
      00247  0621 00 0 00244         STA     STQSW1        RESET POINTER                              TCOR0239
      00250 -0500 00 0 00244         CAL     STQSW1                                                   TCOR0240
      00251  0400 00 0 74670         ADD     Q1            NOW HAVE F,,N                              TCOR0241
      00252 -0634 00 0 00244         SXD     STQSW1,0      INDICATE ZERO WORDS                        TCOR0242
      00253  0020 00 4 00001         TRA     1,4                                                      TCOR0243
                                                                                                      TCOR0244
                                             SLWSWB        STORE STRING IN SECONDARY WRITE BUFFER     TCOR0245
                                             -USER IS IN XR1                                          TCOR0246
                                             TSX           SLWSWB,4                                   TCOR0247
                                             FIRST,,NUMBER OF WORDS                                   TCOR0248
                                             2,4 IS 'NOT ENTERED' RETURN                              TCOR0249
                                             3,4 IS 'ENTERED' RETURN                                  TCOR0250
                                             NOTE THAT SEPERATE ACTION IS TAKEN FOR FULL OR BCD CHARS.TCOR0251
                                                                                                      TCOR0252
      00254  0634 00 4 00433  SLWSWB SXA     SLWSW9,4      SAVE XR4                                   TCOR0253
      00255  0634 00 2 00434         SXA     SLWS10,2      AND XR2                                    TCOR0254
      00256  0634 00 1 00435         SXA     SLWS16,1      ..                                         TCOR0255
      00257 -0500 00 4 00001         CAL     1,4           GET PZE FIRST,,N(WORDS)                    TCOR0256
      00260  0621 00 0 00273         STA     SLWSW1        SET UP BUFFER REFERENCES                   TCOR0257
      00261  0621 00 0 00303         STA     SLWSW3        ..                                         TCOR0258
      00262 -0737 00 2 00000         PDC     0,2           MINUS COUNT TO XR2                         TCOR0259
      00263 -3 00000 2 00361         TXL     SLWSW8,2,0    NO WORDS TO TRANSMIT                       TCOR0260
      00264  1 00001 2 00265         TXI     *+1,2,1       DECREASE COUNT BU ONE                      TCOR0261
      00265 -0520 00 0 00442         NZT     EXTRA         REMOVE NO BLANKS FOR WRFLXA                TCOR0262
      00266  0020 00 0 00300         TRA     SLWSW2        ..                                         TCOR0263
      00267  0560 00 0 74642         LDQ     BLANKS        BCD BLANKS                                 TCOR0264
      00270  0520 00 0 00233         ZET     FULLSW        CHECK MODE                                 TCOR0265
      00271  0560 00 0 00663         LDQ     =H0 0 0       FULL MODE BLANKS                           TCOR0266
      00272 -0600 00 0 00441         STQ     SLWS11        SET UP COMPARE WORD                        TCOR0267
      00273 -0500 00 2 00000  SLWSW1 CAL     **,2          GET WORD FROM BUFFER -- NOTE BACKWARD      TCOR0268
      00274  0322 00 0 00441         ERA     SLWS11        CHECK FOR EQUAL   ALL BLANKS               TCOR0269
1       M1416   R. CREASY AND R. DALEY ... TCOORD ... BREAK PROCESSOR SECTION    03/04/70 1414.1 PAGE 7

      00275 -0100 00 0 00300         TNZ     SLWSW2        NON-BLANK GO OUTPUT BUFVER                 TCOR0270
      00276 -3 00000 2 00361         TXL     SLWSW8,2,0    GO HERE IF NO NON-BLANK WORDS              TCOR0271
      00277  1 00001 2 00273         TXI     SLWSW1,2,1    BACK FOR NEXT WORD                         TCOR0272
      00300 -0634 00 2 00327  SLWSW2 SXD     SLWSW5,2      SET FOR TEST                               TCOR0273
      00301 -3 00000 2 00330         TXL     SLWSW5+1,2,0  GO IF ONLY ONE (-WORDS +1 IN XR2)          TCOR0274
      00302  0774 00 2 00000         AXT     0,2           SET XR2 TO GO FROM BEGINNING OF BUFFER     TCOR0275
      00303  0560 00 2 00000  SLWSW3 LDQ     **,2          PICK UP WORD FROM BUFFER                   TCOR0276
      00304 -0520 00 0 00233         NZT     FULLSW        CHECK MODE                                 TCOR0277
      00305  0020 00 0 00310         TRA     SLWSW4        GO TO MAKE BCD WORD INTO TWO FULL WORDS    TCOR0278
      00306  0074 00 4 00234         TSX     STQSWB,4      INSERT FULL WORD INTO SECONDARY WRITE BUFFETCOR0279
      00307  1 77777 2 00326         TXI     SLWSW6,2,-1   INCREMENT COUNT AND GO TO TEST             TCOR0280
      00310  0774 00 4 00011  SLWSW4 AXT     9,4           BCD WORD COMES HERE TO BE SPREAD.          TCOR0281
      00311  0767 00 0 00006         ALS     6             ZERO OVER                                  TCOR0282
      00312 -0763 00 0 00006         LGL     6             THEN CHARACTER                             TCOR0283
      00313  2 00003 4 00311         TIX     *-2,4,3       DO ONE WORDS WORTH                         TCOR0284
      00314  0602 00 0 00441         SLW     SLWS11        SAVE IN TEMPORARY                          TCOR0285
      00315  0767 00 0 00006         ALS     6             NOW FOR THE LONG FELLOW                    TCOR0286
      00316 -0763 00 0 00006         LGL     6             ..                                         TCOR0287
      00317  2 00001 4 00315         TIX     *-2,4,1       SPREAD SECOND WORD                         TCOR0288
      00320  0560 00 0 00441         LDQ     SLWS11        PICK UP LEFT HALF                          TCOR0289
      00321  0602 00 0 00441         SLW     SLWS11        STORE RIGHT HALF                           TCOR0290
      00322  0074 00 4 00234         TSX     STQSWB,4      PLACE IN BUFFER                            TCOR0291
      00323  0560 00 0 00441         LDQ     SLWS11        GET RIGHT HALF                             TCOR0292
      00324  0074 00 4 00234         TSX     STQSWB,4      TORE IT IN BUFFER                          TCOR0293
      00325  1 77777 2 00326         TXI     *+1,2,-1      INCREMENT BY ONE                           TCOR0294
      00326  3 00000 0 00357  SLWSW6 BRN     SLWSW7        CHECK FOR LAST WORD PROCESSED              TCOR0295
      00327  3 00000 2 00303  SLWSW5 TXH     SLWSW3,2,**   TEST SIZE OF COUNT  GO GET NEXT WORD OR    TCOR0296
      00330  0522 00 0 00303         XEC     SLWSW3        NOT PROCESSED -- GET IN MQ                 TCOR0297
      00331 -0520 00 0 00442         NZT     EXTRA         REMOVE NO TRAILING BLANKS FOR WRFLXA       TCOR0298
      00332  0020 00 0 00353         TRA     SLWS14+2      ..                                         TCOR0299
      00333 -0754 00 0 00000         ZAC                   CLEAR AC -- PREPARE TO REMOVE TRAILING     TCOR0300
      00334 -0130 00 0 00000  SLWS13 XCL                   WORD TO AC                                 TCOR0301
      00335 -0765 00 0 00006         LGR     6             CHARACTER TO MQ                            TCOR0302
      00336 -0130 00 0 00000         XCL                   BACK TO THE AC                             TCOR0303
      00337 -0340 00 0 00664         LAS     =H 00000      CHECK FOR BLANK                            TCOR0304
      00340  0020 00 0 00351         TRA     SLWS14        NOT BLANK -- LEAVE                         TCOR0305
      00341  0020 00 0 00343         TRA     *+2           BLANK -- REMOVE IT                         TCOR0306
      00342  0020 00 0 00351         TRA     SLWS14        NOT BLANK --FIX UP WORD                    TCOR0307
      00343 -0500 00 0 00652         CAL     =O57          REPLACE LEFT ADJUSTED BLANK WITH NOP       TCOR0308
      00344 -0773 00 0 00006         RQL     6             POSITION                                   TCOR0309
      00345  0520 00 0 00233         ZET     FULLSW        PUT IT IN FRONT OF NON-BLANK CHARACTERS    TCOR0310
      00346 -0765 00 0 00006         LGR     6             12 BITS WORTHS FOR FULL MODE               TCOR0311
      00347 -0765 00 0 00006         LGR     6             6 BITS FOR BCD                             TCOR0312
      00350  0020 00 0 00334         TRA     SLWS13        BACK FOR NEXT CHARACTER                    TCOR0313
      00351 -0130 00 0 00000  SLWS14 XCL                   CHARACTER BACK TO THE MQ                   TCOR0314
      00352 -0765 00 0 00036         LGR     30            EVERYBODY OVER -- POSITION IN MQ           TCOR0315
      00353 -0500 00 0 00326         CAL     SLWSW6        SWITCH SWITCH                              TCOR0316
      00354 -0760 00 0 00003         SSM                   TO TXL OR BRA                              TCOR0317
      00355  0601 00 0 00326         STO     SLWSW6        ..                                         TCOR0318
      00356  0020 00 0 00304         TRA     SLWSW3+1      GO WITH LAST WORD IN THE MQ TO INSERT      TCOR0319
      00357 -0500 00 0 00326  SLWSW7 CAL     SLWSW6        RESET SWITCH TO BRN                        TCOR0320
      00360  0601 00 0 00326         STO     SLWSW6        ..                                         TCOR0321
      00361  0560 00 0 00662  SLWSW8 LDQ     =O005700570055  TWO NULLIFIES AND A CARRIAGE RETURN      TCOR0322
      00362  0520 00 0 00442         ZET     EXTRA         CHECK WHETHER CARRIAGE RETURN NEEDED       TCOR0323
      00363  0074 00 4 00234         TSX     STQSWB,4      NEED CARRIAGE RETURN  STORE IT             TCOR0324
      00364  0074 00 4 00246         TSX     GETSWB,4                                                 TCOR0325
1       M1416   R. CREASY AND R. DALEY ... TCOORD ... BREAK PROCESSOR SECTION    03/04/70 1414.1 PAGE 8

      00365 -0734 00 4 00000         PDX     0,4                                                      TCOR0326
      00366 -3 00000 4 00433         TXL     SLWSW9,4,0    NO CALL FOR NO OUTPUT                      TCOR0327
      00367  0621 00 0 00557         STA     CALLR         ADDRESS OF OUT BUFFER TO CALLR             TCOR0328
      00370  0622 00 0 00557         STD     CALLR         COUNT TO DECREMENT OF CALLR                TCOR0329
      00371  0500 00 0 00557         CLA     CALLR         GET CALLR FOR STORING                      TCOR0330
      00372  0520 00 0 00556         ZET     SCOPF         IS THIS A DSCOPE CALL                      TCOR0331
      00373 -0760 00 0 00003         SSM                   YES, SET SIGN OF CALLR TO MINUS            TCOR0332
      00374  0601 00 0 00421         STO     SLWS20+1      STORE FOR PRIME USER                       TCOR0333
      00375  0601 00 0 00413         STO     SLWS18        STORE FOR SLAVES                           TCOR0334
      00376  0601 00 0 00431         STO     NOSLAV+1      STORE FOR NON-SLAVER                       TCOR0335
      00377 -0500 00 1 75065         CAL     ADOPT,1       IS THIS USER AN OUTPUT SLAVER              TCOR0336
      00400 -0320 00 0 00551         ANA     OUTWRD        ..  LOOK AT ONLY PREFIX AND SLAVE FLAG     TCOR0337
      00401  0322 00 0 00551         ERA     OUTWRD        ..                                         TCOR0338
      00402 -0100 00 0 00430         TNZ     NOSLAV        *NO                                        TCOR0339
                                                                                                      TCOR0340
                                             GIVE THIS MESSAGE TO ALL SLAVES                          TCOR0341
                                                                                                      TCOR0342
      00403  0074 00 4 00515         TSX     BROOM,4                                                  TCOR0343
      00404  0020 00 0 00420         TRA     SLWS20        *NO MORE ADOPTEES                          TCOR0344
      00405  0044 00 0 00000         PAI                   IS THIS ADOPTEE AN OUTPUT SLAVE            TCOR0345
      00406  0056 00  100000         RNT     OUTSLV        ..                                         TCOR0346
      00407  0020 00 0 00530         TRA     SWEEP         *NO                                        TCOR0347
      00410 -0054 00  077777         LFT     MINUS1        HAVE WE HIT THIS ADOPTEE ALREADY           TCOR0348
      00411  0020 00 0 00530         TRA     SWEEP         *YES                                       TCOR0349
                                                                                                      TCOR0350
                                             GIVE TO THIS ONE                                         TCOR0351
                                                                                                      TCOR0352
      00412  0074 00 4 00000         TSX     WRTELY,4      SEND LINE TO SLAVED CONSOLE                TCOR0353
      00413  0 00000 0 00000  SLWS18         **,,**        BUFF,,WDCT  SET ABOVE                      TCOR0354
      00414  0020 00 0 00437         TRA     SLWFUL        FULL RETURN                                TCOR0355
      00415 -0500 00 0 00656         CAL     =1B17         NORMAL RETURN.  MARK THIS ADOPTEE          TCOR0356
      00416  0622 00 1 75065         STD     ADOPT,1                                                  TCOR0357
      00417  0020 00 0 00530         TRA     SWEEP                                                    TCOR0358
                                                                                                      TCOR0359
                                             ALL ADOPTEES SERVICED.  SERVICE SLAVER                   TCOR0360
                                                                                                      TCOR0361
      00420  0074 00 4 00000  SLWS20 TSX     WRTELY,4                                                 TCOR0362
      00421  0 00000 0 00000                 **,,**                                                   TCOR0363
      00422  0020 00 0 00437         TRA     SLWFUL        FULL RETUR                                 TCOR0364
                                                                                                      TCOR0365
                                             EVERYONE SERVICED.  REMOVE FLAGS ON ADOPTEES             TCOR0366
                                                                                                      TCOR0367
      00423  0074 00 4 00515         TSX     BROOM,4                                                  TCOR0368
      00424  0020 00 0 00433         TRA     SLWSW9        *ALL WIPED                                 TCOR0369
      00425 -0754 00 0 00000         ZAC                   WIPE DECREMENT OF THIS ONE                 TCOR0370
      00426  0622 00 1 75065         STD     ADOPT,1       ..                                         TCOR0371
      00427  0020 00 0 00530         TRA     SWEEP                                                    TCOR0372
                                                                                                      TCOR0373
                                             THIS USER IS NOT A SLAVER. DON'T WASTE TIME              TCOR0374
                                                  LOOKING FOR SLAVES.                                 TCOR0375
                                                                                                      TCOR0376
      00430  0074 00 4 00000  NOSLAV TSX     WRTELY,4                                                 TCOR0377
      00431  0 00000 0 00000                 **,,**                                                   TCOR0378
      00432  0020 00 0 00437         TRA     SLWFUL        FULL RETURN                                TCOR0379
                                                                                                      TCOR0380
                                             RETURN TO CALLER                                         TCOR0381
1       M1416   R. CREASY AND R. DALEY ... TCOORD ... BREAK PROCESSOR SECTION    03/04/70 1414.1 PAGE 9

                                                                                                      TCOR0382
      00433  0774 00 4 00000  SLWSW9 AXT     **,4          NORMAL RETURN TO CALLER AT 3,4             TCOR0383
      00434  0774 00 2 00000  SLWS10 AXT     **,2          ..                                         TCOR0384
      00435  0774 00 1 00000  SLWS16 AXT     **,1          ..                                         TCOR0385
      00436  0020 00 4 00003         TRA     3,4           ..                                         TCOR0386
                                                                                                      TCOR0387
      00437  0534 00 4 00433  SLWFUL LXA     SLWSW9,4      FULL RETURN AT 2,4                         TCOR0388
      00440  1 00001 4 00434         TXI     SLWS10,4,1                                               TCOR0389
                                                                                                      TCOR0390
      00441                          TEMPS   (SLWS11,EXTRA)                                           TCOR0391
                                                                                                      TCOR0392
1       M1416   R. CREASY AND R. DALEY ... TCOORD ... BREAK PROCESSOR SECTION    03/04/70 1414.1 PAGE 10

                                                                                                      TCOR0394
                                             RSSRB/RSSWB ...... RESET USER INPUT OR OUTPUT BUFFERS    TCOR0395
                                                                                                      TCOR0396
                                             TSX   RSSRB,4     OR RSSWB,4                             TCOR0397
                                             ***   USER        PZE RESET ADOPTEES, MZE DON'T          TCOR0398
                                                                                                      TCOR0399
      00443  0564 00 0 74671  RSSRB  ENB     Q0                                                       TCOR0400
      00444  0600 00 0 00512         STZ     RSWFLG        SET SWITCH TO RESET READ BUFFERS           TCOR0401
      00445  0020 00 0 00450         TRA     RSA           GO TO COMMON SECTION                       TCOR0402
                                                                                                      TCOR0403
      00446  0564 00 0 74671  RSSWB  ENB     Q0                                                       TCOR0404
      00447 -0625 00 0 00512         STL     RSWFLG        SET SWITCH TO RESET WRITE BUFFERS          TCOR0405
                                                                                                      TCOR0406
      00450  0634 00 1 00507  RSA    SXA     RSX1,1        SAVE XR1                                   TCOR0407
      00451  0634 00 4 00510         SXA     RSX4,4        AND XR4                                    TCOR0408
      00452 -0625 00 0 00513         STL     GOBACK        WE WILL SWEEP ADOPTEES UNTIL THIS IS 0     TCOR0409
      00453 -0500 60 4 00001         CAL*    1,4           USER NO TO AC                              TCOR0410
      00454  0737 00 1 00000         PAC     ,1            -LUN TO XR1                                TCOR0411
      00455 -0500 00 1 75065         CAL     ADOPT,1       SAVE ADOPT WORD AND CHECK FOR ADOPTEDNESS  TCOR0412
      00456  0602 00 0 00514         SLW     RSTEMP        HERE IS THE SAVE                           TCOR0413
      00457  0737 00 4 00000         PAC     ,4            AND HERE IS THE CHECK                      TCOR0414
      00460  2 00000 4 00465         TIX     ADPTEE,4,0    ..  *DON'T LOOK FOR ADOPTEES' ADOPTEES     TCOR0415
      00461  0534 00 4 00510         LXA     RSX4,4        RELOAD  XR4 TO EXAMINE CALL                TCOR0416
      00462  0500 00 4 00001         CLA     1,4           BUT SEE IF ADOPTEES SHOULD BE SWEPT        TCOR0417
      00463 -0120 00 0 00465         TMI     ADPTEE        *NO                                        TCOR0418
      00464  0074 00 4 00515         TSX     BROOM,4       BUT DO LOOK FOR ANYONE ELSE'S              TCOR0419
      00465  0600 00 0 00513  ADPTEE STZ     GOBACK        LAST TIME AROUND                           TCOR0420
      00466  0441 00 1 75065         LDI     ADOPT,1       TEST EACH ADOPTEE FOR SLAVING              TCOR0421
      00467  0520 00 0 00513         ZET     GOBACK        USER,NOT ADOPTEE, IF ZERO                  TCOR0422
      00470  0054 00  700000         RFT     IISLAV+INSLAV+OUTSLV TEST SLAVE BITS                     TCOR0423
      00471  0020 00 0 00473         TRA     *+2           IF SLAVE OR USER, THEN RESET               TCOR0424
      00472  0020 00 0 00503         TRA     RSLOP         IF NOT SLAVE AND NOT USER, THEN IGNORE     TCOR0425
      00473 -0520 00 0 00512         NZT     RSWFLG        NOW, WHAT ARE WE DOING HERE                TCOR0426
      00474  0020 00 0 00501         TRA     RSSRBA        *RESETTING READ BUFFERS                    TCOR0427
                                                                                                      TCOR0428
      00475  0074 00 4 00000         TSX     WRTELY,4      *RESETTING WRITE BUFFERS                   TCOR0429
      00476  0 00000 0 00000                 0,,0          ..                                         TCOR0430
      00477  0020 00 0 00500         TRA     *+1           IMPOSSIBLE FULL RETURN                     TCOR0431
      00500  0020 00 0 00503         TRA     RSLOP         ON TO NEXT ADOPTEE                         TCOR0432
                                                                                                      TCOR0433
      00501 -0756 00 1 00000  RSSRBA PCD     0,1           USER NO TO AC DECREMENT                    TCOR0434
      00502  0074 00 4 00005         TSX     KILBUF,4      RESET THIS USER'S INPUT BUFFER             TCOR0435
                                                                                                      TCOR0436
      00503  0520 00 0 00513  RSLOP  ZET     GOBACK        WAS THIS JUST ANOTHER ADOPTEE              TCOR0437
      00504  0020 00 0 00530         TRA     SWEEP         *YES., GO BACK FOR MORE                    TCOR0438
      00505 -0500 00 0 00514         CAL     RSTEMP        *NO., RESTORE USER'S ADOPT WORD            TCOR0439
      00506  0602 00 1 75065         SLW     ADOPT,1       ..                                         TCOR0440
      00507  0774 00 1 00000  RSX1   AXT     **,1          RESTORE XRS                                TCOR0441
      00510  0774 00 4 00000  RSX4   AXT     **,4          ..                                         TCOR0442
      00511  0020 00 4 00002         TRA     2,4           AND RETURN TO CALLER                       TCOR0443
                                                                                                      TCOR0444
      00512                          TEMPS   (RSWFLG,GOBACK,RSTEMP)                                   TCOR0445
                                                                                                      TCOR0446
1       M1416   R. CREASY AND R. DALEY ... TCOORD ... BREAK PROCESSOR SECTION    03/04/70 1414.1 PAGE 11

                                                                                                      TCOR0448
                              *      THE BROOM ROUTINE IS USED TO SCAN THE ADOPT ARRAY FOR ADOPTEES   TCOR0449
                              *  OF THE USER WHOSE LUN IS COMPLEMENTED IN XR1.                        TCOR0450
                                                                                                      TCOR0451
                              *  CALLING SEQUENCE..                                                   TCOR0452
                                                                                                      TCOR0453
                              *      LAC     USERNUMBER,1                                             TCOR0454
                              *      TSX     BROOM,4                                                  TCOR0455
                              *      NO-MORE-ADOPTEES RETURN                                          TCOR0456
                              *      SCA     LUN OF ADOPTEE,1                                         TCOR0457
                              *      SLW     ADOPT WORD OF ADOPTEE                                    TCOR0458
                              *      (CODE OPERATING ON THIS ADOPTEE)                                 TCOR0459
                              *      (MUST BE TRANSPARENT W.R.T. XR 1)                                TCOR0460
                              *      ..                                                               TCOR0461
                              *      ..                                                               TCOR0462
                              *      ..                                                               TCOR0463
                              *      TRA     SWEEP         GET NEXT ADOPTEE                           TCOR0464
                                                                                                      TCOR0465
      00515  0564 00 0 74671  BROOM  ENB     Q0            INSURE ALL TRAPS DISABLED                  TCOR0466
      00516  0756 00 1 00000         PCA     ,1            SEE IF USER BACKGROUND SYSTEM              TCOR0467
      00517  0100 00 4 00001         TZE     1,4           NO ADOPTEES IF SO                          TCOR0468
      00520  0636 00 1 00547         SCA     USERNO,1                                                 TCOR0469
      00521  0634 00 4 00530         SXA     SWEEP,4                                                  TCOR0470
      00522  0600 00 0 00545         STZ     NEWTAG        START UPDATING SLAVER BITS FROM ZERO       TCOR0471
      00523 -0774 00 1 00001         AXC     1,1           NOW, STARTING WITH USER NO. 1...           TCOR0472
      00524 -0500 00 1 75065  BRM1   CAL     ADOPT,1       FIND OUT IF EACH OR ANY IS AN ADOPTEE      TCOR0473
      00525 -0320 00 0 00546         ANA     SVNADR        WE ARE INTERESTED ONLY IN PREFIX AND ADDRESTCOR0474
      00526  0322 00 0 00547         ERA     USERNO        IS USER'S LUN IN THE ADDRESS               TCOR0475
      00527  0100 00 0 00542         TZE     GOTHIM        *YES, GO TO GIVE HIM TO USER               TCOR0476
      00530  0774 00 4 00000  SWEEP  AXT     **,4          XR4 MAY HAVE BEEN CLOBBERED AT 2,4         TCOR0477
      00531 -3 77730 1 00533         TXL     *+2,1,-N      *NO, AND PERHAPS THERE ARE NO MORE         TCOR0478
      00532  1 77777 1 00524         TXI     BRM1,1,-1     *NO, BUT THERE IS STILL HOPE               TCOR0479
                                                                                                      TCOR0480
      00533 -0500 00 0 00545         CAL     NEWTAG        UPDATE SLAVER'S SLAVEBITS                  TCOR0481
      00534 -0320 00 0 74650         ANA     TMASK         DON'T MESS WITH NON-TAG BITS               TCOR0482
      00535  0100 00 0 00537         TZE     *+2           *DON'T BOTHER WITH VACUOUS SLAVER          TCOR0483
      00536 -0501 00 0 74646         ORA     PMASK         PUT IN SLAVER FLAG                         TCOR0484
      00537  0535 00 1 00547         LAC     USERNO,1                                                 TCOR0485
      00540  0602 00 1 75065         SLW     ADOPT,1       AND UPDATE USER'S SLAVE BITS               TCOR0486
      00541  0020 00 4 00001         TRA     1,4           RETURN TO CALLER                           TCOR0487
                                                                                                      TCOR0488
      00542 -0500 00 1 75065  GOTHIM CAL     ADOPT,1       REFRESH ADOPT WORD                         TCOR0489
      00543 -0602 00 0 00545         ORS     NEWTAG        CONTINUE UPDATING SLAVER BITS              TCOR0490
      00544  0020 00 4 00002         TRA     2,4           RETURN TO CALLER                           TCOR0491
                                                                                                      TCOR0492
      00545  0 00000 0 00000  NEWTAG PZE     0                                                        TCOR0493
      00546 -3 00000 0 77777  SVNADR SEVEN   -1,0,0                                                   TCOR0494
      00547  0 00000 0 00000  USERNO PZE     0                                                        TCOR0495
                                                                                                      TCOR0496
1       M1416   R. CREASY AND R. DALEY ... TCOORD ... BREAK PROCESSOR SECTION    03/04/70 1414.1 PAGE 12

                                                                                                      TCOR0498
      00550  700000200000     INWORD VFD     3/7,O33/INSLAV                                           TCOR0499
      00551  700000100000     OUTWRD VFD     3/7,O33/OUTSLV                                           TCOR0500
                                                                                                      TCOR0501
      00552  000000000137     ERASE1 VFD     O36/137                                                  TCOR0502
      00553  000000000104     ERASE2 VFD     O36/104                                                  TCOR0503
      00554  000000000156     KILL1  VFD     O36/156                                                  TCOR0504
      00555  000000000106     KILL2  VFD     O36/106                                                  TCOR0505
                                                                                                      TCOR0506
      00556  0 00000 0 00000  SCOPF  PZE                   NONZERO IF SCOPE CALL                      TCOR0507
      00557  0 00000 0 00000  CALLR  PZE                   TEMP FOR CALLING WORD                      TCOR0508
      00560                   SWBUF  BSS     2*SWBSZ       TEMPORARY OUTPUT BUFFER                    TCOR0509
                                                                                                      TCOR0510
                                     END                                                              TCOR0511

        LITERALS
      00652  000000000057
      00653  000000000177
      00654  000000000777
      00655  000000007777
      00656  000001000000
      00657  000001000001
      00660  002000000002
      00661  005700570000
      00662  005700570055
      00663  006000600060
      00664  600000000000
1       M1416   R. CREASY AND R. DALEY ... TCOORD ... BREAK PROCESSOR SECTION    03/04/70 1414.1 PAGE 1
                        POST PROCESSOR ASSEMBLY DATA

       72127 IS THE LAST LOCATION NOT USED BY THIS PROGRAM
        665 IS THE FIRST LOCATION NOT USED BY THIS PROGRAM

0REFERENCES TO DEFINED SYMBOLS
         50      N   531
      74671     Q0   170,  174,  200,  443,  446,  515
      74670     Q1   251
        450    RSA   445
        524   BRM1   532
        230   EXIT
         50   INOK
          4   NCTL    10,  134,  140
        165   OMIT    24,   33,   46,   62
        507   RSX1   450
        510   RSX4   451,  461
      75065  ADOPT    25,   50,  377,  416,  426,  455,  466,  506,  524,  540,  542
        167  BREAK    20,   45,   66,  121
        515  BROOM     0,   54,  403,  423,  464
        557  CALLR   207,  216,  367,  370,  371
        442  EXTRA   172,  175,  202,  265,  331,  362
         66  INOK1    53,   55
        117  INOK2    23,   67,   72
        170  .WRFX     0
        554  KILL1   106
        555  KILL2   111
         36  NOTII    30,   32
      74646  PMASK   536
        503  RSLOP   472,  500
        443  RSSRB     0
        446  RSSWB     0
        556  SCOPF   171,  176,  201,  372
        162  SENDX   147
         35  SWBSZ     7,  245,  560
        560  SWBUF   244,  245
        530  SWEEP     0,   60,   63,   65,  407,  411,  417,  427,  504,  521
      74650  TMASK   534
        227  WRXR1   205
        226  WRXR2   204,  232
        225  WRXR4   203,  214,  231
        465 ADPTEE   460,  463
      74642 BLANKS   267
        166 BRKCHK
          6 BRKPRC   143
        134 CMPLET    14
       2002 CNOFST    10,  137
       2000 CNTROL    10,   16
        164 COMMON    13,   34,   41,   75,  114,  117,  123,  126,  131,  136,  141,  142,  150
        126 DLCHAR   102,  105
        131 DLMESS   110,  113
          2 ENDLIN   124
          1 ENTCHR   120
        552 ERASE1   100
        553 ERASE2   103
          1 FULBIT    71
1       M1416   R. CREASY AND R. DALEY ... TCOORD ... BREAK PROCESSOR SECTION    03/04/70 1414.1 PAGE 2
                        POST PROCESSOR ASSEMBLY DATA

        233 FULLSW   206,  221,  270,  304,  345
        246 GETSWB   155,  364
        513 GOBACK   452,  465,  467,  503
        542 GOTHIM   527
     400000 IISLAV     7,   27,  470
         46 INOKAY    40
     200000 INSLAV     7,   57,  470,  550
        550 INWORD    51,   52
        200 .WRFXA     0
        174 .WRSCP     0
          5 KILBUF   502
          3 KILCHR   127
          4 KILLIN   132
      77777 MINUS1     7,  410
          4 NBKBIT    37,   73
          2 NCVBIT    22
          7 NEWLIN    43
        545 NEWTAG   522,  533,  543
        114 NOK1.5    74
        430 NOSLAV   376,  402
     100000 OUTSLV     7,  406,  470,  551
        551 OUTWRD   400,  401
        141 QUITC1   135
        136 QUITCH    17
        501 RSSRBA   474
        514 RSTEMP   456,  505
        512 RSWFLG   444,  447,  473
        147 SENDCH    47,   64
        437 SLWFUL   414,  422,  432
        434 SLWS10   255,  440
        441 SLWS11   272,  274,  314,  320,  321,  323
        334 SLWS13   350
        351 SLWS14   332,  340,  342
        435 SLWS16   256
        413 SLWS18   375
        420 SLWS20   374,  404
        273 SLWSW1   260,  277
        300 SLWSW2   266,  275
        303 SLWSW3   261,  327,  330,  356
        310 SLWSW4   305
        327 SLWSW5   300,  301
        326 SLWSW6   307,  353,  355,  357,  360
        357 SLWSW7   326
        361 SLWSW8   263,  276
        433 SLWSW9   254,  366,  424,  437
        254 SLWSWB   222
        244 STQSW1   234,  241,  242,  247,  250,  252
        245 STQSW2   236,  246
        242 STQSWA   237
        234 STQSWB   154,  234,  306,  322,  324,  363
        546 SVNADR   525
         10 TOPOOL     0
        144 TPLIR1    10,  116,  122,  125,  130,  133,  140
        145 TPLIR4    11
        547 USERNO   520,  526,  537
1       M1416   R. CREASY AND R. DALEY ... TCOORD ... BREAK PROCESSOR SECTION    03/04/70 1414.1 PAGE 3
                        POST PROCESSOR ASSEMBLY DATA

      75524 USWICH    21,   36,   70,  212
         16 WDSLIN     7
        203 WRADP1   173,  177
        231 WRADP2   224
        223 WRCALL   217
        222 WROKAY
          0 WRTELY   157,  412,  420,  430,  475

0 NO ERROR IN ABOVE ASSEMBLY.


IBUF8B   BCD 07/20/70 1813.2   15377         00000
1            INPUT BUFFERING ROUTINE   S. DUNTEN                                 07/20/70 1810.0 PAGE 1

                       00002         ENTRY   ENTCHR        TO ENTER A CHAR (TOPOOL)                   IBUF0003
                       00115         ENTRY   ENDLIN        TO TERMINATE A LINE                        IBUF0004
                       00136         ENTRY   KILCHR        ON QUOTE                                   IBUF0005
                       00222         ENTRY   KILLIN        ON QUES MARK                               IBUF0006
                       00247         ENTRY   KILBUF        RESET                                      IBUF0007
                       00255         ENTRY   ENTLIN        TO ENTER AN ENTIRE LINE (WRMESS)           IBUF0008
                       00354         ENTRY   RDLINE        TO READ A LINE (RDFLXA)                    IBUF0009
                       00754         ENTRY   CBINIT        TO PROVIDE BUFFERS (MAIN)                  IBUF0010
                              $      ENTRY   CKQOTC        TO CHECK CHARACTER QUOTA                   IBUF0011
                              *                                                                       IBUF0012
                                     EXTERN  WRTELY        TO TYPE PLEASE STOP TYPING                 IBUF0013
                                     EXTERN  BRKPRC        TELL SYSTEM TO START USER                  IBUF0014
                                     UNLIST                                                           IBUF0015

                       00004  BLEN   EQU     4             LENGTH OF BLOCK                            IBUF0021
                              *      CAL     =(CHAR,,USER)                                            IBUF0022
                              *      TSX     ENTCHR,4                                                 IBUF0023
                              *                                                                       IBUF0024
      00002  0636 00 4 00072  ENTCHR SCA     XRC+1,4       SAVE IRS                                   IBUF0025
      00003  0074 00 4 01057         TSX     SAVE,4                                                   IBUF0026
      00004  0621 00 0 00076         STA     CHAR                                                     IBUF0027
      00005 -0737 00 1 00000         PDC     ,USR                                                     IBUF0028
      00006 -0500 00 0 74670         CAL     Q1            CHECK QUOTA                                IBUF0029
      00007  0074 00 4 00607         TSX     CKQOTA,4                                                 IBUF0030
      00010  0020 00 0 00012         TRA     *+2           IF EXCEEDED                                IBUF0031
      00011  0020 00 0 00014         TRA     ENTON                                                    IBUF0032
      00012  0074 00 4 00647         TSX     PLSTOP,4      ASK HIM TO STOP                            IBUF0033
      00013  0020 00 0 00071         TRA     XRC           IF ALREADY SAID, IGNORE HIM                IBUF0034
      00014  0074 00 4 00553  ENTON  TSX     CKNEWL,4      IF NO LINE STARTED, START ONE              IBUF0035
      00015  0500 00 5 00000         CLA     0,BL          CHECK FOR END OF LINE                      IBUF0036
      00016  0120 00 0 00022         TPL     *+4                                                      IBUF0037
      00017  0074 00 4 00700         TSX     ADBL,4        START NEW BLOCK                            IBUF0038
      00020 -0500 00 0 01225         CAL     =6B17                                                    IBUF0039
      00021  0602 00 5 00000         SLW     0,BL                                                     IBUF0040
      00022  0074 00 4 00715         TSX     SPLIT,4       GET WC AND CC FROM 0,BL                    IBUF0041
      00023                          ZETBIT  ,USR,FULBIT+NCVBIT                                       IBUF0042
      00025  1 00002 2 00027         TXI     *+2,CC,2      BUMP CHAR COUNT BY 2 OR 1 CHARS            IBUF0043
      00026  1 00001 2 00027         TXI     *+1,CC,1                                                 IBUF0044
      00027 -3 00006 2 00037         TXL     NNEW,CC,6     TRA IF NO CARRY TO NEW WORD                IBUF0045
      00030  1 77772 2 00031         TXI     *+1,CC,-6     DOWN ON CHAR                               IBUF0046
      00031  1 77777 3 00032         TXI     *+1,WC,-1     AND UP ON WORD                             IBUF0047
      00032  3 77774 3 00037         TXH     NNEW,WC,-BLEN              TRA IF NO CARRY TO NEW BLOCK  IBUF0048
      00033 -0500 00 0 00077         CAL     FULBL         SET WORD COUNT AND CHAR COUNT TO MAX       IBUF0049
      00034  0602 00 5 00000         SLW     0,BL                                                     IBUF0050
      00035  0074 00 4 00700         TSX     ADBL,4        GET NEW BLOCK                              IBUF0051
      00036  0774 00 3 77777         AXT     -1,WC         RESET WORD COUNT                           IBUF0052
      00037  0636 00 5 00060  NNEW   SCA     SLW,BL        SET ORIG OF BLOCK FOR MOVE                 IBUF0053
      00040 -0500 00 0 00076         CAL     CHAR                                                     IBUF0054
      00041  0560 00 0 74642         LDQ     BLANKS        PLACE CHAR IN PROPER POSITION FOLLOWED BY BIBUF0055
      00042                          ZETBIT  ,USR,FULBIT                                              IBUF0056
      00044  0560 00 0 01227         LDQ     =H0 0 0                                                  IBUF0057
      00045                          ZETBIT  ,USR,NCVBIT,, IF NON-CONVERT, USE                        IBUF0058
      00047  0560 00 0 74671         LDQ     Q0            ZEROS INSTEAD OF BLANKS.                   IBUF0059
      00050  0522 00 2 00106         XEC     SFT,CC                                                   IBUF0060
      00051  0322 60 0 00060         ERA*    SLW                                                      IBUF0061
      00052 -0320 00 2 00115         ANA     MASKS+1,CC                                               IBUF0062
1            INPUT BUFFERING ROUTINE   S. DUNTEN                                 07/20/70 1810.0 PAGE 2

      00053                          ZETBIT  ,USR,FULBIT+NCVBIT                                       IBUF0063
      00055  0020 00 0 00057         TRA     *+2           SKIP FOR NCV OR FULL                       IBUF0064
      00056 -0320 00 2 00114         ANA     MASKS,CC                                                 IBUF0065
      00057  0322 60 0 00060         ERA*    SLW                                                      IBUF0066
      00060  0602 00 3 00000  SLW    SLW     **,WC                                                    IBUF0067
      00061  0074 00 4 00725         TSX     PACK,4        RESTOR CC AND WC TO 0,BL                   IBUF0068
      00062  0756 00 5 00000         PCA     ,BL           UPDATE LAST BLOCK POINTER                  IBUF0069
      00063  0621 00 1 01077         STA     CHART,USR                                                IBUF0070
      00064                          NZTBIT  ,USR,NBKBIT                                              IBUF0071
      00066  0020 00 0 00071         TRA     XRC             ..                                       IBUF0072
      00067 -0756 00 1 00000         PCD     ,USR            ANY CHAR. STARTS USER                    IBUF0073
      00070  0602 00 0 01222         SLW     ILINE                                                    IBUF0074
      00071  0074 00 4 01070  XRC    TSX     REST,4                                                   IBUF0075
      00072 -0774 00 4 00000         AXC     ,4                                                       IBUF0076
      00073  0500 00 0 01222         CLA     ILINE         IS USER STARTING                           IBUF0077
      00074 -0120 00 4 00001         TMI     1,4           NO                                         IBUF0078
      00075  0020 00 0 00001         TRA     BRKPRC        YES                                        IBUF0079
                              *                                                                       IBUF0080
      00076  0 00000 0 00000  CHAR                                                                    IBUF0081
      00077  000306000000     FULBL  VFD     6/0,6/BLEN-1,6/6,18/0  FULL WC CC                        IBUF0082
                       00100         DUP     1,6           TABLE TO SHIFT CHARS                       IBUF0083
      00100 -0763 00 0 00000         LGL     36+**6-SFT*6                                             IBUF0084
      00101 -0763 00 0 00006
      00102 -0763 00 0 00014
      00103 -0763 00 0 00022
      00104 -0763 00 0 00030
      00105 -0763 00 0 00036
                       00106  SFT    SYN     *                                                        IBUF0085
                              *                            TABLE OF MASKS                             IBUF0086
      00106 +000000000077            OCT     77,7777,777777,77777777,7777777777,777777777777          IBUF0087
      00107 +000000007777
      00110 +000000777777
      00111 +000077777777
      00112 +007777777777
      00113 -377777777777
      00114 -377777777777     MASKS  OCT     777777777777                                             IBUF0088
                              *                                                                       IBUF0089
                              *      CAL     =(,,USER)                                                IBUF0090
                              *      TSX     ENDLIN,4      ON BREAK CHARS                             IBUF0091
                              *                                                                       IBUF0092
      00115  0636 00 4 00132  ENDLIN SCA     XRE+1,4       SAVE IRS                                   IBUF0093
      00116  0074 00 4 01057         TSX     SAVE,4                                                   IBUF0094
      00117 -0737 00 1 00000         PDC     ,USR          GET LAST BLOCK                             IBUF0095
      00120 -0500 00 1 01077         CAL     CHART,USR                                                IBUF0096
      00121  0737 00 5 00000         PAC     ,BL                                                      IBUF0097
      00122 -3 00000 5 00131         TXL     XRE,BL,0      IF EMPTY                                   IBUF0098
      00123 -0500 00 0 74654         CAL     M0            AND SET MINUS                              IBUF0099
      00124 -0602 00 5 00000         ORS     0,BL                                                     IBUF0100
      00125 -0756 00 5 00000         PCD     ,BL           SET LAST LINE                              IBUF0101
      00126  0622 00 1 01150         STD     LINET,USR                                                IBUF0102
      00127 -0756 00 1 00000         PCD     ,USR                                                     IBUF0103
      00130  0602 00 0 01222         SLW     ILINE                                                    IBUF0104
      00131  0074 00 4 01070  XRE    TSX     REST,4                                                   IBUF0105
      00132 -0774 00 4 00000         AXC     ,4                                                       IBUF0106
      00133  0500 00 0 01222         CLA     ILINE         START USER.Q                               IBUF0107
      00134 -0120 00 4 00001         TMI     1,4           NO                                         IBUF0108
1            INPUT BUFFERING ROUTINE   S. DUNTEN                                 07/20/70 1810.0 PAGE 3

      00135  0020 00 0 00001         TRA     BRKPRC                                                   IBUF0109
                              *                                                                       IBUF0110
                              *      CAL     =(,,USER)                                                IBUF0111
                              *      TSX     KILCHR,4      ON QUOTE CHAR                              IBUF0112
                              *                                                                       IBUF0113
      00136  0636 00 4 00220  KILCHR SCA     XRKC+1,4      SAVE IR'S                                  IBUF0114
      00137  0074 00 4 01057         TSX     SAVE,4                                                   IBUF0115
      00140 -0737 00 1 00000         PDC     ,USR                                                     IBUF0116
      00141 -0500 00 1 01077         CAL     CHART,USR     GET LAST BLOCK                             IBUF0117
      00142  0737 00 5 00000         PAC     ,BL                                                      IBUF0118
      00143 -3 00000 5 00217         TXL     XRKC,BL,0     TRA IF NO LAST BLOCK                       IBUF0119
      00144  0500 00 5 00000         CLA     0,BL          DON'T DELETE IF END OF LINE                IBUF0120
      00145 -0120 00 0 00217         TMI     XRKC                                                     IBUF0121
      00146  0074 00 4 00715         TSX     SPLIT,4       GET CC AND WC                              IBUF0122
                                             *WK*                                                     IBUF0123
      00147 -0500 00 0 01230         CAL     =H900000      COMPARE DEVICE CODE                        IBUF0124
      00150 -0340 00 1 75646         LAS     UNITID,USR    IS THIS AN ARDS                            IBUF0125
      00151  0020 00 0 00170         TRA     NXTKLC-1      GO AWAY , NOT SCOPE                        IBUF0126
                                             IN CASE OF GRAPHICAL INPUT FROM SCOPE                    IBUF0127
                                             THE KILLCHAR DELETES THE SIX CHARACTERS                  IBUF0128
                                             MARKING ONE POINT.                                       IBUF0129
      00152  0774 00 0 00000         AXT     0,0           CONTROL NEVER HERE BUT JUST IN CASE ...    IBUF0130
      00153  0560 00 0 74671         LDQ     Q0            FIND THE LAST CHAR IN BUFFER               IBUF0131
      00154  0754 00 2 00000         PXA     ,CC           MULTIPLY CHAR COUNT FOR SHIFTING           IBUF0132
      00155  0131 00 0 00000         XCA                   ..                                         IBUF0133
      00156  0200 00 0 74663         MPY     Q6            ..                                         IBUF0134
      00157  0131 00 0 00000         XCA                   RESULT BACK INTO AC                        IBUF0135
      00160  0621 00 0 00163         STA     *+3           ..                                         IBUF0136
      00161  0636 00 5 00162         SCA     *+1,BL        GET ADDRESS OF BLOCK                       IBUF0137
      00162  0560 00 3 00000         LDQ     **,WC         PICK UP LAST WORD                          IBUF0138
      00163 -0763 00 0 00000         LGL     **            SHIFT IT INTO AC                           IBUF0139
      00164 -0320 00 0 01223         ANA     =O77          KEEP ONLY LAST CHAR                        IBUF0140
      00165  0774 00 6 00006         AXT     6,6           ASSUME CHAR WAS END OF GRAPHICAL           IBUF0141
      00166  0322 00 0 01221         ERA     GIPSCE        TEST IT NOW                                IBUF0142
      00167  0100 00 0 00171         TZE     *+2           YES, END OF GRAPHICAL INPUT                IBUF0143
      00170  0774 00 6 00001         AXT     1,6           NO, SOMETHING ELSE                         IBUF0144
                                             XR6 TELLS HOW MANY CHARACTERS ARE TO BE DELETED          IBUF0145
                       00171  NXTKLC EQU     * HERE TO LOOP BACK OVER SEV CHARS                       IBUF0146
                                             *WK*                                                     IBUF0147
      00171  1 77777 2 00172         TXI     *+1,CC,-1     DROP CHAR                                  IBUF0148
      00172 -3 00000 2 00174         TXL     *+2,CC,0      IF BARROW                                  IBUF0149
      00173 -3 77014 2 00215         TXL     KCN,CC,-500                                              IBUF0150
      00174  1 00006 2 00175         TXI     *+1,CC,6      BUMP CHAR                                  IBUF0151
      00175  1 00001 3 00176         TXI     *+1,WC,1      DROP WORD                                  IBUF0152
      00176  3 00001 3 00215         TXH     KCN,WC,1      IF BORROW                                  IBUF0153
      00177  1 77775 3 00200         TXI     *+1,WC,-BLEN+1  BUMP WORD                                IBUF0154
      00200  0756 00 5 00000         PCA     ,BL           DROP BLOCK                                 IBUF0155
      00201  0074 00 4 01036         TSX     GIVE,4                                                   IBUF0156
      00202  0756 00 5 00000         PCA     ,BL           BACKUP LAST BLOCK POINTER                  IBUF0157
      00203  0074 00 4 00734         TSX     BACKUP,4                                                 IBUF0158
      00204 -0100 00 0 00211         TNZ     KCNB                                                     IBUF0159
      00205  0600 00 1 01077         STZ     CHART,USR     IF NOTHING LEFT                            IBUF0160
      00206  0621 00 1 01150         STA     LINET,USR                                                IBUF0161
      00207  0622 00 1 01150         STD     LINET,USR                                                IBUF0162
      00210  0020 00 0 00217         TRA     XRKC                                                     IBUF0163
      00211  0737 00 5 00000  KCNB   PAC     ,BL           TERMINATE LIST AT THIS POINT               IBUF0164
1            INPUT BUFFERING ROUTINE   S. DUNTEN                                 07/20/70 1810.0 PAGE 4

      00212  0621 00 1 01077         STA     CHART,USR                                                IBUF0165
      00213 -0754 00 0 00000         ZAC                                                              IBUF0166
      00214  0621 00 5 00000         STA     0,BL                                                     IBUF0167
                                             *WK*                                                     IBUF0168
      00215  2 00001 6 00171  KCN    TIX     NXTKLC,6,1    LOOP BACK OVER NEXT CHARS                  IBUF0169
                                             *WK*                                                     IBUF0170
      00216  0074 00 4 00725         TSX     PACK,4        RESTORE CC AND WC                          IBUF0171
      00217  0074 00 4 01070  XRKC   TSX     REST,4                                                   IBUF0172
      00220 -0774 00 4 00000         AXC     ,4                                                       IBUF0173
      00221  0020 00 4 00001         TRA     1,4                                                      IBUF0174
                              *                                                                       IBUF0175
                              *      CAL     =(,,USER)                                                IBUF0176
                              *      TSX     KILLIN,4      ON QUES MARK                               IBUF0177
                              *                                                                       IBUF0178
      00222  0636 00 4 00245  KILLIN SCA     XRKL+1,4                                                 IBUF0179
      00223  0074 00 4 01057         TSX     SAVE,4                                                   IBUF0180
      00224 -0737 00 1 00000         PDC     ,USR          GET POINTER TO LAST LINE                   IBUF0181
      00225 -0500 00 1 01150  KILL   CAL     LINET,USR                                                IBUF0182
      00226 -0737 00 5 00000         PDC     ,BL                                                      IBUF0183
      00227 -0500 00 5 00000         CAL     0,BL          RESET FROM LAST LINE                       IBUF0184
      00230  3 00000 5 00232         TXH     *+2,BL,0      UNLESS NO LAST LINE                        IBUF0185
      00231 -0500 00 1 01150         CAL     LINET,USR     THEN RESET FROM FIRST LINE                 IBUF0186
      00232  0074 00 4 00706         TSX     RESET,4                                                  IBUF0187
      00233 -0754 00 0 00000         ZAC                                                              IBUF0188
      00234 -3 00000 5 00241         TXL     *+5,BL,0      IF ALL GONE                                IBUF0189
      00235  0621 00 5 00000         STA     0,BL                                                     IBUF0190
      00236  0756 00 5 00000         PCA     ,BL           UPDATE LAST LINE                           IBUF0191
      00237  0621 00 1 01077         STA     CHART,USR                                                IBUF0192
      00240  0020 00 0 00243         TRA     *+3                                                      IBUF0193
      00241  0600 00 1 01077         STZ     CHART,USR                                                IBUF0194
      00242  0621 00 1 01150         STA     LINET,USR                                                IBUF0195
      00243  0074 00 4 00570         TSX     CKQOTS,4      CHECK QUOTAS                               IBUF0196
      00244  0074 00 4 01070  XRKL   TSX     REST,4        ..                                         IBUF0197
      00245 -0774 00 4 00000         AXC     ,4                                                       IBUF0198
      00246  0020 00 4 00001         TRA     1,4                                                      IBUF0199
                              *                                                                       IBUF0200
                              *      CAL     =(,,USER)                                                IBUF0201
                              *      TSX     KILBUF,4      TO RESET ALL LINES FOR USER                IBUF0202
                              *                                                                       IBUF0203
      00247  0636 00 4 00245  KILBUF SCA     XRKL+1,4        SAVE IR'S                                IBUF0204
      00250  0074 00 4 01057         TSX     SAVE,4                                                   IBUF0205
      00251 -0737 00 1 00000         PDC     ,USR          GET FIRST LINE                             IBUF0206
      00252 -0754 00 0 00000         ZAC                   RESET LAST LINE                            IBUF0207
      00253  0622 00 1 01150         STD     LINET,USR                                                IBUF0208
      00254  0020 00 0 00225         TRA     KILL                                                     IBUF0209
                              *                                                                       IBUF0210
                              *      TSX     ENTLIN,4      TO ENTER A COMPLETE LINE                   IBUF0211
                              *      PZE     A,,N                                                     IBUF0212
                              *      PZE     USER                                                     IBUF0213
                              *      NOT ENTERED RETURN                                               IBUF0214
                              *                                                                       IBUF0215
      00255  0564 00 0 74671  ENTLIN ENB     Q0                                                       IBUF0216
      00256  0636 00 4 00343         SCA     XREL+1,4        SAVE IR'S                                IBUF0217
      00257  0074 00 4 01057         TSX     SAVE,4                                                   IBUF0218
      00260  0535 00 4 00343         LAC     XREL+1,4                                                 IBUF0219
      00261 -0500 60 4 00002         CAL*    2,4           GET USER                                   IBUF0220
1            INPUT BUFFERING ROUTINE   S. DUNTEN                                 07/20/70 1810.0 PAGE 5

      00262  0737 00 1 00000         PAC     ,USR                                                     IBUF0221
      00263 -0500 00 4 00001         CAL     1,4           GET LINE                                   IBUF0222
      00264  0771 00 0 00022         ARS     18                                                       IBUF0223
      00265  0361 00 4 00001         ACL     1,4                                                      IBUF0224
      00266  0621 00 0 00317         STA     ELCAL                                                    IBUF0225
      00267 -0734 00 6 00000         PDX     ,IWC          WORD COUNT                                 IBUF0226
      00270  0600 00 0 00352         STZ     FULL                                                     IBUF0227
      00271 -3 00000 6 00342         TXL     XREL,IWC,0    CHECK FOR ZERO                             IBUF0228
      00272 -0625 00 0 00352         STL     FULL          CHECK QUOTA                                IBUF0229
      00273  0754 00 6 00000         PXA     ,IWC                                                     IBUF0230
      00274  0771 00 0 00001         ARS     1             ABOUT 2 WORDS PER BLOCK                    IBUF0231
      00275  0074 00 4 00607         TSX     CKQOTA,4                                                 IBUF0232
      00276  0020 00 0 00342         TRA     XREL          IF FULL, GIVE FULL RET                     IBUF0233
      00277  0600 00 0 00352         STZ     FULL                                                     IBUF0234
      00300 -0500 00 1 01150         CAL     LINET,USR     GET POINTER TO LAST LINE                   IBUF0235
      00301 -0737 00 5 00000         PDC     ,BL                                                      IBUF0236
      00302 -0500 00 5 00000         CAL     0,BL          SAVE ANY PARTIAL LINE                      IBUF0237
      00303  3 00000 5 00310         TXH     EL1,BL,0      IF NO COMPLETE LINES                       IBUF0238
      00304 -0500 00 1 01150         CAL     LINET,USR     SAVE FIRST LINE                            IBUF0239
      00305 -0774 00 5 01150         AXC     LINET,BL      AND START FROM VECTOR                      IBUF0240
      00306 -0634 00 1 00307         SXD     *+1,USR                                                  IBUF0241
      00307  1 00000 5 00310         TXI     *+1,BL,**                                                IBUF0242
      00310  0621 00 0 00353  EL1    STA     ENDSTR                                                   IBUF0243
      00311  0074 00 4 00700  ELBL   TSX     ADBL,4        GET NEW BLOCK                              IBUF0244
      00312 -0500 00 0 00077         CAL     FULBL         SET FULL WC,CC                             IBUF0245
      00313  0602 00 5 00000         SLW     0,BL                                                     IBUF0246
      00314  0636 00 5 00320         SCA     ELSLW,BL      SET BASE OF BLOCK                          IBUF0247
      00315 -0774 00 3 00001         AXC     1,WC          SET BLOCK COUNTER                          IBUF0248
                       00316  ELWL   SYN     *                                                        IBUF0249
      00316 -3 77774 3 00311  TXL    TXL     ELBL,WC,-BLEN TEST FOR END OF BLOCK                      IBUF0250
      00317 -0500 00 6 00000  ELCAL  CAL     **,IWC        MOVE WORD                                  IBUF0251
      00320  0602 00 3 00000  ELSLW  SLW     **,WC                                                    IBUF0252
      00321  1 77777 3 00322         TXI     *+1,WC,-1                                                IBUF0253
      00322  2 00001 6 00316         TIX     ELWL,IWC,1                                               IBUF0254
      00323  0774 00 2 00006         AXT     6,CC          SET FULL CC                                IBUF0255
      00324  1 00001 3 00325         TXI     *+1,WC,1                                                 IBUF0256
      00325  0074 00 4 00725         TSX     PACK,4        AND SAVE CC AND WC                         IBUF0257
      00326 -0500 00 5 00000         CAL     0,BL                                                     IBUF0258
      00327 -0760 00 0 00003         SSM                   MARK END OF LINE                           IBUF0259
      00330  0601 00 5 00000         STO     0,BL                                                     IBUF0260
      00331 -0500 00 0 00353         CAL     ENDSTR                                                   IBUF0261
      00332  0621 00 5 00000         STA     0,BL                                                     IBUF0262
      00333 -0756 00 5 00000         PCD     ,BL           UPDATE LAST LINE                           IBUF0263
      00334  0622 00 1 01150         STD     LINET,USR                                                IBUF0264
      00335  0756 00 5 00000         PCA     ,BL           FILL LAST BLOCK POINTER                    IBUF0265
      00336 -0520 00 0 00353         NZT     ENDSTR        IF NOTHING HERE BEFORE                     IBUF0266
      00337  0621 00 1 01077         STA     CHART,USR                                                IBUF0267
      00340 -0756 00 1 00000         PCD     ,USR                                                     IBUF0268
      00341  0602 00 0 01222         SLW     ILINE                                                    IBUF0269
      00342  0074 00 4 01070  XREL   TSX     REST,4                                                   IBUF0270
      00343 -0774 00 4 00000         AXC     ,4                                                       IBUF0271
      00344  0520 00 0 00352         ZET     FULL          IF FULL                                    IBUF0272
      00345  1 77776 4 00347         TXI     *+2,4,-2      GIVE FULL RET                              IBUF0273
      00346  1 77775 4 00347         TXI     *+1,4,-3                                                 IBUF0274
      00347  0500 00 0 01222         CLA     ILINE         SEE IF TO START USER                       IBUF0275
      00350 -0120 00 4 00001         TMI     1,4           NO                                         IBUF0276
1            INPUT BUFFERING ROUTINE   S. DUNTEN                                 07/20/70 1810.0 PAGE 6

      00351  0020 00 0 00001         TRA     BRKPRC        START HIM                                  IBUF0277
      00352  0 00000 0 00000  FULL                                                                    IBUF0278
      00353  0 00000 0 00000  ENDSTR                                                                  IBUF0279
                              *                                                                       IBUF0280
                              *      TSX     RDLINE,4      TO READ A LINE                             IBUF0281
                              *      PZE/MZE A,,N          MZE=CORE B                                 IBUF0282
                              *      PZE     USER,,PEEK                                               IBUF0283
                              *                                                                       IBUF0284
      00354  0564 00 0 74671  RDLINE ENB     Q0                                                       IBUF0285
      00355  0636 00 4 00544         SCA     XRR4,4          SAVE IR'S                                IBUF0286
      00356  0074 00 4 01057         TSX     SAVE,4                                                   IBUF0287
      00357  0535 00 4 00544         LAC     XRR4,4                                                   IBUF0288
      00360 -0500 60 4 00002         CAL*    2,4           GET USER                                   IBUF0289
      00361  0737 00 1 00000         PAC     ,USR                                                     IBUF0290
      00362 -0500 00 1 01150         CAL     LINET,USR     IF COMPLETELY EMPTY                        IBUF0291
      00363  0737 00 5 00000         PAC     ,BL                                                      IBUF0292
      00364 -0625 00 0 00352         STL     EMPTY                                                    IBUF0293
      00365 -3 00000 5 00542         TXL     XRR,BL,0      GIVE EMPTY RETURN                          IBUF0294
      00366 -0737 00 4 00000         PDC     ,4            IF NO LAST LINE                            IBUF0295
      00367  3 00000 4 00376         TXH     RDOK,4,0                                                 IBUF0296
      00370                          ZETBIT  ,USR,NBKBIT                                              IBUF0297
      00372  0020 00 0 00376         TRA     RDOK          RETURN ANYTHING.                           IBUF0298
      00373  0767 00 0 00001         ALS     1             AND WE DIDN'T ASK FOR HIM                  IBUF0299
      00374 -0760 00 0 00001         PBT                                                              IBUF0300
      00375  0020 00 0 00542         TRA     XRR           GIVE EMPTY RETURN                          IBUF0301
      00376  0600 00 0 00352  RDOK   STZ     EMPTY                                                    IBUF0302
      00377  0535 00 4 00544         LAC     XRR+2,4                                                  IBUF0303
      00400 -0500 00 4 00002         CAL     2,4           GET PEEK SWITCH                            IBUF0304
      00401  0622 00 0 00550         STD     PEEK                                                     IBUF0305
      00402 -0500 00 4 00001         CAL     1,4           GET BLOCK                                  IBUF0306
      00403  0560 00 0 00552         LDQ     SEB           SET SEA/SEB                                IBUF0307
      00404 -0760 00 0 00001         PBT                                                              IBUF0308
      00405  0560 00 0 00551         LDQ     SEA                                                      IBUF0309
      00406 -0600 00 0 00457         STQ     SEX                                                      IBUF0310
      00407  0771 00 0 00022         ARS     18                                                       IBUF0311
      00410  0361 00 4 00001         ACL     1,4                                                      IBUF0312
      00411  0621 00 0 00460         STA     RDSLW         SAVE ADR                                   IBUF0313
      00412  0621 00 0 00517         STA     RDSLW1                                                   IBUF0314
      00413 -0734 00 6 00000         PDX     ,IWC          AND COUNT                                  IBUF0315
      00414  0774 00 7 00000         AXT     0,TCC         RESET TOTAL CHAR COUNT                     IBUF0316
      00415  0520 00 0 00550         ZET     PEEK          RESET KICK SWITCH                          IBUF0317
      00416  0020 00 0 00421         TRA     *+3           IF NOT PEEKING                             IBUF0318
      00417 -0500 00 0 01232         CAL     =O577777777777                                           IBUF0319
      00420  0320 00 1 01150         ANS     LINET,USR                                                IBUF0320
      00421  0020 00 0 00435         TRA     RDBL                                                     IBUF0321
      00422  0500 00 5 00000  RDBLE  CLA     0,BL                                                     IBUF0322
      00423  0520 00 0 00550         ZET     PEEK          IF NOT PEEKING                             IBUF0323
      00424  0020 00 0 00427         TRA     PEEKNG                                                   IBUF0324
      00425  0756 00 5 00000         PCA     ,BL           RETURN BLOCK TO FREE STO                   IBUF0325
      00426  0074 00 4 01036         TSX     GIVE,4        RETURNS CLA ORIG 0,AC                      IBUF0326
      00427  0737 00 5 00000  PEEKNG PAC     ,BL                                                      IBUF0327
      00430 -0120 00 0 00511         TMI     RDONE         QUIT IF THIS IS LINE MARK                  IBUF0328
      00431                          ZETBIT  ,USR,NBKBIT                                              IBUF0329
      00433 -3 00000 5 00511         TXL     RDONE,BL,0    DONE.                                      IBUF0330
      00434 -3 00000 5 00510         TXL     RDPART,BL,0                                              IBUF0331
      00435 -3 00000 6 00510  RDBL   TXL     RDPART,IWC,0  IF USER FULL, DON'T USE NEW BLOCK          IBUF0332
1            INPUT BUFFERING ROUTINE   S. DUNTEN                                 07/20/70 1810.0 PAGE 7

      00436  0500 00 5 00000         CLA     0,BL          GET POINTER WORD                           IBUF0333
      00437 -0120 00 0 00445         TMI     RDOK1         IF LAST IN LINE USEIT                      IBUF0334
      00440                          ZETBIT  ,USR,NBKBIT                                              IBUF0335
      00442  0020 00 0 00445         TRA     RDOK1         USE EVERYTHING                             IBUF0336
      00443  0737 00 4 00000         PAC     ,4            IF LAST                                    IBUF0337
      00444 -3 00000 4 00510         TXL     RDPART,4,0     DON'T USE IT                              IBUF0338
      00445  0074 00 4 00715  RDOK1  TSX     SPLIT,4       GET CC, WC                                 IBUF0339
      00446 -0634 00 2 00447         SXD     *+1,CC        ADD PARTIAL CHAR COUNT                     IBUF0340
      00447  1 00000 7 00450         TXI     *+1,TCC,**                                               IBUF0341
      00450  1 77772 7 00451         TXI     *+1,TCC,-6                                               IBUF0342
      00451  1 77777 3 00452         TXI     *+1,WC,-1                                                IBUF0343
      00452 -0634 00 3 00455         SXD     RDTXL,WC                                                 IBUF0344
      00453  0636 00 5 00456         SCA     RDCAL,BL                                                 IBUF0345
      00454 -0774 00 3 00001         AXC     1,WC                                                     IBUF0346
      00455 -3 00000 3 00422  RDTXL  TXL     RDBLE,WC,**   CHECK FOR END OF BLOCK                     IBUF0347
      00456 -0500 00 3 00000  RDCAL  CAL     **,WC         MOVE WORDS                                 IBUF0348
      00457  0 00000 0 00000  SEX    ***                                                              IBUF0349
      00460  0602 00 6 00000  RDSLW  SLW     **,IWC                                                   IBUF0350
      00461 -0761 00 0 00041         SEA                                                              IBUF0351
      00462  1 00006 7 00463         TXI     *+1,TCC,6     COUNT 6 CHAR                               IBUF0352
      00463  1 77777 3 00464         TXI     *+1,WC,-1                                                IBUF0353
      00464  2 00001 6 00455         TIX     RDTXL,IWC,1                                              IBUF0354
      00465  0774 00 6 00000         AXT     0,IWC         USER IS FULL                               IBUF0355
      00466  0522 00 0 00455         XEC     RDTXL         IF LAST WORD QUE UP NEW BLOCK              IBUF0356
      00467  0520 00 0 00550         ZET     PEEK          IF NOT PEEKING                             IBUF0357
      00470  0020 00 0 00510         TRA     RDPART                                                   IBUF0358
      00471  0754 00 3 00000         PXA     ,WC           MOVE REMAINDER OF BLOCK                    IBUF0359
      00472  0734 00 6 00000         PAX     ,IWC          TO TOP OF BLOCK                            IBUF0360
      00473 -0774 00 3 00001         AXC     1,WC                                                     IBUF0361
      00474 -0500 00 0 00455         CAL     RDTXL                                                    IBUF0362
      00475  0622 00 0 00500         STD     RDTXL1                                                   IBUF0363
      00476  0636 00 5 00501         SCA     *+3,BL                                                   IBUF0364
      00477  0636 00 5 00502         SCA     *+3,BL                                                   IBUF0365
      00500 -3 00000 6 00505  RDTXL1 TXL     *+5,IWC,**                                               IBUF0366
      00501 -0500 00 6 00000         CAL     **,IWC                                                   IBUF0367
      00502  0602 00 3 00000         SLW     **,WC                                                    IBUF0368
      00503  1 77777 6 00504         TXI     *+1,IWC,-1                                               IBUF0369
      00504  1 77777 3 00500         TXI     *-4,WC,-1                                                IBUF0370
      00505  1 00001 3 00506         TXI     *+1,WC,1                                                 IBUF0371
      00506  0774 00 6 00000         AXT     0,IWC                                                    IBUF0372
      00507  0074 00 4 00725         TSX     PACK,4        FILL NEW WC                                IBUF0373
      00510  1 40000 7 00511  RDPART TXI     *+1,TCC,16384 IF ONLY PART READ, ADD FLAG                IBUF0374
      00511 -3 00000 6 00522  RDONE  TXL     RDEND,IWC,0   IF USER IS NOT FULL                        IBUF0375
      00512 -0500 00 0 74642         CAL     BLANKS        FILL HIM WITH BLANKS                       IBUF0376
      00513                          ZETBIT  ,USR,FULBIT                                              IBUF0377
      00515 -0500 00 0 01227         CAL     =H0 0 0                                                  IBUF0378
      00516  0522 00 0 00457         XEC     SEX           A OR B CORE                                IBUF0379
      00517  0602 00 6 00000  RDSLW1 SLW     **,IWC                                                   IBUF0380
      00520  2 00001 6 00517         TIX     *-1,IWC,1                                                IBUF0381
      00521 -0761 00 0 00041         SEA                                                              IBUF0382
      00522  0520 00 0 00550  RDEND  ZET     PEEK          IF NOT PEEKING UPDATE POINTERS             IBUF0383
      00523  0020 00 0 00541         TRA     CKQ                                                      IBUF0384
      00524  0756 00 5 00000         PCA     ,BL           UPDATE FIRST LINE                          IBUF0385
      00525  0621 00 1 01150         STA     LINET,USR                                                IBUF0386
      00526  3 00000 5 00532         TXH     RDMORE,BL,0   TRA IF MORE TO READ                        IBUF0387
      00527  0621 00 1 01077         STA     CHART,USR                                                IBUF0388
1            INPUT BUFFERING ROUTINE   S. DUNTEN                                 07/20/70 1810.0 PAGE 8

      00530  0622 00 1 01150         STD     LINET,USR                                                IBUF0389
      00531  0020 00 0 00541         TRA     CKQ                                                      IBUF0390
      00532 -0500 00 1 01150  RDMORE CAL     LINET,USR                                                IBUF0391
      00533 -0737 00 4 00000         PDC     ,4            IF LAST LINE IS NOT -                      IBUF0392
      00534 -3 00000 4 00541         TXL     CKQ,4,0                                                  IBUF0393
      00535  0500 00 4 00000         CLA     0,4                                                      IBUF0394
      00536 -0120 00 0 00541         TMI     CKQ                                                      IBUF0395
      00537 -0754 00 0 00000         ZAC                   RESET IT                                   IBUF0396
      00540  0622 00 1 01150         STD     LINET,USR                                                IBUF0397
      00541  0074 00 4 00570  CKQ    TSX     CKQOTS,4      CHECK FOR 'PLEASE CONTINUE'                IBUF0398
      00542  0754 00 7 00000  XRR    PXA     ,TCC          RETURN 6 BIT CHAR COUNT IN AC              IBUF0399
      00543  0074 00 4 01070         TSX     REST,4                                                   IBUF0400
      00544 -0774 00 4 00000  XRR4   AXC     ,4                                                       IBUF0401
      00545  0520 00 0 00352         ZET     EMPTY                                                    IBUF0402
      00546  0020 00 4 00003         TRA     3,4                                                      IBUF0403
      00547  0020 00 4 00004         TRA     4,4                                                      IBUF0404
                       00352  EMPTY  SYN     FULL                                                     IBUF0405
      00550  0 00000 0 00000  PEEK                                                                    IBUF0406
      00551 -0761 00 0 00041  SEA    SEA                                                              IBUF0407
      00552 -0761 00 0 00042  SEB    SEB                                                              IBUF0408
                              *                                                                       IBUF0409
                              *      TSX     CKNEWL,4      IF USR HAS NO BUFFER, START ONE            IBUF0410
                              *                                                                       IBUF0411
      00553  0636 00 4 00566  CKNEWL SCA     XRCKNL,4                                                 IBUF0412
      00554 -0500 00 1 01077         CAL     CHART,USR                                                IBUF0413
      00555  0737 00 5 00000         PAC     ,BL           GET LAST BLOCK                             IBUF0414
      00556  3 00000 5 00566         TXH     XRCKNL,BL,0   IF ANY                                     IBUF0415
      00557  0074 00 4 01017         TSX     GET,4         GET FRESH BLOCK                            IBUF0416
      00560  0737 00 5 00000         PAC     ,BL                                                      IBUF0417
      00561  0602 00 1 01150         SLW     LINET,USR                                                IBUF0418
      00562 -0501 00 0 01224         ORA     =1B17         ADD ONE BLOCK COUNT                        IBUF0419
      00563  0602 00 1 01077         SLW     CHART,USR                                                IBUF0420
      00564 -0500 00 0 01225         CAL     =6B17         MANY CHARS, NO WORDS                       IBUF0421
      00565  0602 00 5 00000         SLW     0,BL                                                     IBUF0422
      00566 -0774 00 4 00000  XRCKNL AXC     ,4                                                       IBUF0423
      00567  0020 00 4 00001         TRA     1,4                                                      IBUF0424
                              *                                                                       IBUF0425
                              *      TSX     CKQOTS,4      TO TYPE PLEASE CONTINUE WHERE NEEDED       IBUF0426
                              *                                                                       IBUF0427
      00570  0636 00 4 00604  CKQOTS SCA     XRQS,4        SAVE IR'S                                  IBUF0428
      00571  0634 00 1 00605         SXA     XRQS+1,USR                                               IBUF0429
      00572 -0774 00 1 00001         AXC     1,USR         THROUGH ALL USERS                          IBUF0430
      00573  0500 00 1 01150  CKL    CLA     LINET,USR     IF STOP HAS BEEN TYPED                     IBUF0431
      00574                          NZTBIT  ,USR,,INPBIT  OR USER WAIT INHIBITED                     IBUF0432
      00576  0120 00 0 00602         TPL     CKL1                                                     IBUF0433
      00577 -0754 00 0 00000         ZAC                                                              IBUF0434
      00600  0074 00 4 00607         TSX     CKQOTA,4      CHECK IF NOW FREE                          IBUF0435
      00601  0020 00 0 00602         TRA     *+1           INGORE FULL                                IBUF0436
      00602  1 77777 1 00603  CKL1   TXI     *+1,USR,-1                                               IBUF0437
      00603  3 77727 1 00573         TXH     CKL,USR,-N-1                                             IBUF0438
      00604 -0774 00 4 00000  XRQS   AXC     ,4                                                       IBUF0439
      00605  0774 00 1 00000         AXT     ,USR                                                     IBUF0440
      00606  0020 00 4 00001         TRA     1,4                                                      IBUF0441
                              *                                                                       IBUF0442
                              *      CAL     MAX CHAR COUNT,,USER                                     IBUF0443
                              *      TSX     CKQOTC,4      CHECK IF QUOTA WILL EXCEED                 IBUF0444
1            INPUT BUFFERING ROUTINE   S. DUNTEN                                 07/20/70 1810.0 PAGE 9

                              *      IT WILL                                                          IBUF0445
                              *                                                                       IBUF0446
                              $CKQOTC        SCA           CKQC,4 SAVE 4                              IBUF0447
                              $      SCA     CKQC+1,USR    SAVE THIS ONE TOO                          IBUF0448
                              $      PDC     ,USR          USER TO X                                  IBUF0449
                              $      ANA     AMASK         ADR ONLY                                   IBUF0450
                              $      ADD     YBLEN         ROUND UP                                   IBUF0451
                              $*     SUB     Q1            THIS MAKES IT EXACT                        IBUF0452
                              $      LRS     35                                                       IBUF0453
                              $      DVP     YBLEN                                                    IBUF0454
                              $      XCA                   DIVIDES BY CHARS IN BLOCK                  IBUF0455
                              $      ZETBIT  ,USR,NCVBIT,, CHECK FOR CHAR SIZE                        IBUF0456
                              $      ALS     1             FUL+NCV TAKE TWICE AS MANY                 IBUF0457
                              $      TSX     CKQOTA,4      CHECK BLOCKS                               IBUF0458
                              $      TRA     CFULL                                                    IBUF0459
                              $CKQC  AXC     ,4            RESTORE                                    IBUF0460
                              $      AXC     ,USR          INDEX REGS                                 IBUF0461
                              $      TRA     2,4           GOOD RETURN                                IBUF0462
                              $CFULL XEC     CKQC          RESTOR X4                                  IBUF0463
                              $      TXI     CKQC+1,4,1    FAKE RET 1,4                               IBUF0464
                              $YBLEN PZE     6*BLEN-6      NUMBER OF CHARS STORED IN BLOCK            IBUF0465
                              *                                                                       IBUF0466
                              *      CAL     MAX BLOCK COUNT TO BE ADDED                              IBUF0467
                              *      TSX     CKQOTA,4      CHECK IF QUOTA WILL EXCEED                 IBUF0468
                              *      IT WILL                                                          IBUF0469
                              *                                                                       IBUF0470
      00607  0636 00 4 00645  CKQOTA SCA     CKQA,4                                                   IBUF0471
      00610  0767 00 0 00022         ALS     18                                                       IBUF0472
      00611  0361 00 1 01077         ACL     CHART,USR     TOTAL BLOCK COUNT                          IBUF0473
      00612  0767 00 0 00001         ALS     1             TIMES 2                                    IBUF0474
      00613 -0340 00 0 01055         LAS     LEFT          IF TOTAL .G. LEFT/2                        IBUF0475
      00614  0020 00 0 00622         TRA     CKQO                                                     IBUF0476
      00615  0020 00 0 00622         TRA     CKQO                                                     IBUF0477
      00616                          STZBIT  ,USR,,INPBIT  RESET FORBID BIT                           IBUF0478
      00621  0020 00 0 00637         TRA     UNDER                                                    IBUF0479
      00622  0771 00 0 00001  CKQO   ARS     1                                                        IBUF0480
      00623 -0130 00 0 00000         XCL                   START USER                                 IBUF0481
      00624 -0756 00 1 00000         PCD     ,USR                                                     IBUF0482
      00625  0602 00 0 01222         SLW     ILINE                                                    IBUF0483
      00626                          STLBIT  ,USR,,INPBIT  NO WAITING                                 IBUF0484
      00631 -0500 00 0 01231         CAL     =1B1         AND SET READ PARTIAL LINE BIT               IBUF0485
      00632 -0602 00 1 01150         ORS     LINET,USR                                                IBUF0486
      00633 -0130 00 0 00000         XCL                                                              IBUF0487
      00634 -0340 00 0 01055         LAS     LEFT          IF TOTAL .G. LEFT                          IBUF0488
      00635  0020 00 4 00001         TRA     1,4           GIVE FULL RET                              IBUF0489
      00636  0020 00 0 00637         TRA     *+1                                                      IBUF0490
      00637  0500 00 1 01150  UNDER  CLA     LINET,USR     IF WE HAVEN'T TYPED PLEASE STOP            IBUF0491
      00640  0120 00 4 00002         TPL     2,4                                                      IBUF0492
      00641  0602 00 1 01150         SLW     LINET,USR     RESET SWITCH                               IBUF0493
      00642  0074 00 4 00000         TSX     WRTELY,4      TYPE PLEASE CONTINUE                       IBUF0494
      00643  0 00007 0 00671                 PC,,NPC                                                  IBUF0495
      00644  0020 00 0 00645         TRA     *+1           IGNORE FULL                                IBUF0496
      00645 -0774 00 4 00000  CKQA   AXC     ,4                                                       IBUF0497
      00646  0020 00 4 00002         TRA     2,4                                                      IBUF0498
                              *                                                                       IBUF0499
                              *      TSX     PLSTOP,4      TO TYPE PLEASE STOP                        IBUF0500
1            INPUT BUFFERING ROUTINE   S. DUNTEN                                 07/20/70 1810.0 PAGE 10

                              *      ALREADY SAID RETURN                                              IBUF0501
                              *                                                                       IBUF0502
      00647  0636 00 4 00657  PLSTOP SCA     XRPS,4                                                   IBUF0503
      00650  0500 00 1 01150         CLA     LINET,USR     IF WE SAID PLEASE BEFORE                   IBUF0504
      00651 -0120 00 4 00001         TMI     1,4           FLUSH CHAR                                 IBUF0505
      00652  0074 00 4 00000         TSX     WRTELY,4      TYPE PLEASE STOP TYPING                    IBUF0506
      00653  0 00010 0 00661                 PS,,NPS                                                  IBUF0507
      00654  0020 00 0 00655         TRA     *+1                                                      IBUF0508
      00655 -0500 00 0 74654         CAL     M0            AND SET SWITCH                             IBUF0509
      00656 -0602 00 1 01150         ORS     LINET,USR                                                IBUF0510
      00657 -0774 00 4 00000  XRPS   AXC     ,4                                                       IBUF0511
      00660  0020 00 4 00002         TRA     2,4                                                      IBUF0512
                              *                                                                       IBUF0513
      00661  004701430125     PS     12BIT   /*PLEASE STOP TYPING./                                   IBUF0514
      00662  012101620125
      00663  006001620163
      00664  014601470060
      00665  016301700147
      00666  013101450127
      00667  003300570057
      00670 +005500570057            OCT     005500570057                                             IBUF0515
                       00010  NPS    SYN     *-PS                                                     IBUF0516
      00671  004701430125     PC     12BIT   /*PLEASE CONTINUE./                                      IBUF0517
      00672  012101620125
      00673  006001230146
      00674  014501630131
      00675  014501640125
      00676  003300570057
      00677 +005500570057            OCT     005500570057                                             IBUF0518
                       00007  NPC    SYN     *-PC                                                     IBUF0519
                              *                                                                       IBUF0520
                              *      TSX     ADBL,4        TO GET AND CHAIN A NEW BLOCK               IBUF0521
                              *                                                                       IBUF0522
      00700  0636 00 4 00704  ADBL   SCA     XRADBL,4                                                 IBUF0523
      00701  0074 00 4 01017         TSX     GET,4                                                    IBUF0524
      00702  0621 00 5 00000         STA     0,BL                                                     IBUF0525
      00703  0737 00 5 00000         PAC     ,BL                                                      IBUF0526
      00704 -0774 00 4 00000  XRADBL AXC     ,4                                                       IBUF0527
      00705  0020 00 4 00001         TRA     1,4                                                      IBUF0528
                              *                                                                       IBUF0529
                              *      CAL     POINTER                                                  IBUF0530
                              *      TSX     RESET,4       TO RETURN ALL BLOCKS AFTER POINTER         IBUF0531
                              *                                                                       IBUF0532
      00706  0636 00 4 00713  RESET  SCA     XRRS,4                                                   IBUF0533
      00707  0737 00 4 00000  RSL    PAC     ,4            GET POINTER                                IBUF0534
      00710 -3 00000 4 00713         TXL     XRRS,4,0      RET IF DONE                                IBUF0535
      00711  0074 00 4 01036         TSX     GIVE,4        RETURN BLOCK                               IBUF0536
      00712  0020 00 0 00707         TRA     RSL                                                      IBUF0537
      00713 -0774 00 4 00000  XRRS   AXC     ,4                                                       IBUF0538
      00714  0020 00 4 00001         TRA     1,4                                                      IBUF0539
                              *                                                                       IBUF0540
                              *      TSX     SPLIT,4       TO GET WC AND CC FROM 0,BL                 IBUF0541
                              *                                                                       IBUF0542
      00715 -0500 00 5 00000  SPLIT  CAL     0,BL                                                     IBUF0543
      00716 -0320 00 0 01226         ANA     =O77000000                                               IBUF0544
      00717 -0734 00 2 00000         PDX     ,CC                                                      IBUF0545
1            INPUT BUFFERING ROUTINE   S. DUNTEN                                 07/20/70 1810.0 PAGE 11

      00720 -0500 00 5 00000         CAL     0,BL                                                     IBUF0546
      00721  0771 00 0 00006         ARS     6                                                        IBUF0547
      00722 -0320 00 0 01226         ANA     =O77000000                                               IBUF0548
      00723 -0737 00 3 00000         PDC     ,WC                                                      IBUF0549
      00724  0020 00 4 00001         TRA     1,4                                                      IBUF0550
                              *                                                                       IBUF0551
                              *      TSX     PACK,4        WC AND CC TO 0,BL                          IBUF0552
                              *                                                                       IBUF0553
      00725 -0634 00 2 00733  PACK   SXD     TEMP,CC                                                  IBUF0554
      00726 -0756 00 3 00000         PCD     ,WC                                                      IBUF0555
      00727  0767 00 0 00006         ALS     6                                                        IBUF0556
      00730 -0501 00 0 00733         ORA     TEMP                                                     IBUF0557
      00731  0622 00 5 00000         STD     0,BL                                                     IBUF0558
      00732  0020 00 4 00001         TRA     1,4                                                      IBUF0559
      00733  0 00000 0 00000  TEMP                                                                    IBUF0560
                              *                                                                       IBUF0561
                              *      CAL     POINTER                                                  IBUF0562
                              *      TSX     BACKUP,4      TO GET PREV. BLOCK                         IBUF0563
                              *      STA     POINTER                                                  IBUF0564
                              *                                                                       IBUF0565
      00734  0636 00 4 00750  BACKUP SCA     XRBK,4                                                   IBUF0566
      00735  0621 00 0 00733         STA     TEMP          SAVE POINTER                               IBUF0567
      00736 -0500 00 1 01150         CAL     LINET,USR     AND SEARCH STRING FOR IT                   IBUF0568
      00737  0020 00 0 00741         TRA     *+2                                                      IBUF0569
      00740 -0500 00 4 00000  BLOOP  CAL     0,4                                                      IBUF0570
      00741  0737 00 4 00000         PAC     ,4                                                       IBUF0571
      00742 -3 00000 4 00752         TXL     BNF,4,0       IF NOT FOUND                               IBUF0572
      00743 -0500 00 4 00000         CAL     0,4                                                      IBUF0573
      00744  0322 00 0 00733         ERA     TEMP                                                     IBUF0574
      00745 -0320 00 0 74651         ANA     AMASK                                                    IBUF0575
      00746 -0100 00 0 00740         TNZ     BLOOP         KEEP LOOKING                               IBUF0576
      00747  0756 00 4 00000         PCA     ,4            FOUND RETURN ADR                           IBUF0577
      00750 -0774 00 4 00000  XRBK   AXC     ,4                                                       IBUF0578
      00751  0020 00 4 00001         TRA     1,4                                                      IBUF0579
      00752 -0754 00 0 00000  BNF    ZAC                                                              IBUF0580
      00753  0020 00 0 00750         TRA     XRBK                                                     IBUF0581
                              *                                                                       IBUF0582
                              *      TSX     CBINIT,4                                                 IBUF0583
                              *              A,,N          BUFFERS                                    IBUF0584
                              *              RETURN                                                   IBUF0585
                              *                                                                       IBUF0586
      00754  0634 00 1 01013  CBINIT SXA     XRI+1,1                                                  IBUF0587
      00755  0634 00 2 01014         SXA     XRI+2,2                                                  IBUF0588
      00756 -0500 00 4 00001         CAL     1,4           GET LOC OF BUF                             IBUF0589
      00757  0621 00 0 01056         STA     FREE          SET START OF STRING                        IBUF0590
      00760  0771 00 0 00022         ARS     18                                                       IBUF0591
      00761  0361 00 4 00001         ACL     1,4                                                      IBUF0592
      00762  0621 00 0 00770         STA     STZ                                                      IBUF0593
      00763  0621 00 0 00776         STA     SLWI                                                     IBUF0594
      00764 -0734 00 1 00000         PDX     ,1            LENGTH                                     IBUF0595
      00765  0634 00 1 00773         SXA     CNT,1                                                    IBUF0596
      00766 -0500 00 4 00002         CAL     2,4           SAVE RETURN                                IBUF0597
      00767  0621 00 0 01012         STA     XRI                                                      IBUF0598
      00770  0600 00 1 00000  STZ    STZ     **,1          ZERO BUFFER                                IBUF0599
      00771  2 00001 1 00770         TIX     *-1,1,1                                                  IBUF0600
      00772  0774 00 2 00000         AXT     0,2           RESET BLOCK COUNT                          IBUF0601
1            INPUT BUFFERING ROUTINE   S. DUNTEN                                 07/20/70 1810.0 PAGE 12

      00773  0774 00 1 00000  CNT    AXT     **,1          RESTOR LENGTH                              IBUF0602
      00774 -0500 00 0 01056         CAL     FREE          CHAIN BLOCK TOGETHER                       IBUF0603
      00775  0361 00 0 01016         ACL     XBLEN                                                    IBUF0604
      00776  0602 00 1 00000  SLWI   SLW     **,1                                                     IBUF0605
      00777  1 00001 2 01000         TXI     *+1,2,1       COUNT BLOCKS                               IBUF0606
      01000  2 00004 1 00775         TIX     *-3,1,BLEN                                               IBUF0607
      01001  3 00003 1 01004         TXH     *+3,1,BLEN-1  IF LAST BLOCK IS INCOMPLETE                IBUF0608
      01002  1 00004 1 01003         TXI     *+1,1,BLEN    BACK UP ONE                                IBUF0609
      01003  1 77777 2 01004         TXI     *+1,2,-1                                                 IBUF0610
      01004  0600 60 0 00776         STZ*    SLWI          TERMINATE LIST                             IBUF0611
      01005 -0634 00 2 01055         SXD     LEFT,2        SET NUMBER LEFT                            IBUF0612
      01006  0774 00 1 00051         AXT     N+1,1         RESET POINTERS                             IBUF0613
      01007  0600 00 1 01150         STZ     CHART+N+1,1                                              IBUF0614
      01010  0600 00 1 01221         STZ     LINET+N+1,1                                              IBUF0615
      01011  2 00001 1 01007         TIX     *-2,1,1                                                  IBUF0616
      01012 -0774 00 4 00000  XRI    AXC     ,4                                                       IBUF0617
      01013  0774 00 1 00000         AXT     ,1                                                       IBUF0618
      01014  0774 00 2 00000         AXT     ,2                                                       IBUF0619
      01015  0020 00 4 00000         TRA     0,4                                                      IBUF0620
      01016  0 00000 0 00004  XBLEN          BLEN                                                     IBUF0621
                              *                                                                       IBUF0622
                              *      TSX     GET,4         TO GET A NEW BLOCK                         IBUF0623
                              *      STA     POINTER                                                  IBUF0624
                              *                                                                       IBUF0625
      01017  0636 00 4 01034  GET    SCA     XRGT,4                                                   IBUF0626
      01020 -0500 00 0 01055         CAL     LEFT          UPDATE NUMBER LEFT                         IBUF0627
      01021  0402 00 0 01224         SUB     =1B17                                                    IBUF0628
      01022  0622 00 0 01055         STD     LEFT                                                     IBUF0629
      01023 -0500 00 1 01077         CAL     CHART,USR     AND NUMBER USED BY USER                    IBUF0630
      01024  0361 00 0 01224         ACL     =1B17                                                    IBUF0631
      01025  0622 00 1 01077         STD     CHART,USR                                                IBUF0632
      01026  0535 00 4 01056         LAC     FREE,4        GET BLOCK                                  IBUF0633
      01027 -3 00000 4 01027         TXL     *,4,0         NONE LEFT                                  IBUF0634
      01030 -0500 00 4 00000         CAL     0,4                                                      IBUF0635
      01031  0600 00 4 00000         STZ     0,4                                                      IBUF0636
      01032  0621 00 0 01056         STA     FREE                                                     IBUF0637
      01033  0756 00 4 00000         PCA     ,4                                                       IBUF0638
      01034 -0774 00 4 00000  XRGT   AXC     ,4                                                       IBUF0639
      01035  0020 00 4 00001         TRA     1,4                                                      IBUF0640
                              *                                                                       IBUF0641
                              *      CAL     POINTER                                                  IBUF0642
                              *      TSX     GIVE,4        TO RETURN BLOCK                            IBUF0643
                              *                                                                       IBUF0644
      01036  0636 00 4 01053  GIVE   SCA     XRGI,4                                                   IBUF0645
      01037  0737 00 4 00000         PAC     ,4            GET POINTER                                IBUF0646
      01040  0560 00 4 00000         LDQ     0,4           SAVE 0,POINTER                             IBUF0647
      01041 -0500 00 0 01056         CAL     FREE          PUT ON FRONT OF FREE                       IBUF0648
      01042  0602 00 4 00000         SLW     0,4                                                      IBUF0649
      01043  0636 00 4 01056         SCA     FREE,4                                                   IBUF0650
      01044 -0500 00 0 01055         CAL     LEFT          UPDATE LEFT                                IBUF0651
      01045  0361 00 0 01224         ACL     =1B17                                                    IBUF0652
      01046  0622 00 0 01055         STD     LEFT                                                     IBUF0653
      01047 -0500 00 1 01077         CAL     CHART,USR     UPDATE NUMBER USED                         IBUF0654
      01050  0402 00 0 01224         SUB     =1B17                                                    IBUF0655
      01051  0622 00 1 01077         STD     CHART,USR                                                IBUF0656
      01052  0131 00 0 00000         XCA                   RETURN OLD C(POINTER)                      IBUF0657
1            INPUT BUFFERING ROUTINE   S. DUNTEN                                 07/20/70 1810.0 PAGE 13

      01053 -0774 00 4 00000  XRGI   AXC     ,4                                                       IBUF0658
      01054  0020 00 4 00001         TRA     1,4                                                      IBUF0659
      01055  0 00000 0 00000  LEFT                         NUMBER OF BLOCKS LEFT                      IBUF0660
      01056  0 00000 0 00000  FREE                         POINTER TO NEXT FREE BLOCK                 IBUF0661
                              *                                                                       IBUF0662
      01057  0634 00 1 01070  SAVE   SXA     XR,1                                                     IBUF0663
      01060  0634 00 2 01071         SXA     XR+1,2                                                   IBUF0664
      01061  0634 00 3 01072         SXA     XR+2,3                                                   IBUF0665
      01062  0634 00 5 01073         SXA     XR+3,5                                                   IBUF0666
      01063  0634 00 6 01074         SXA     XR+4,6                                                   IBUF0667
      01064  0634 00 7 01075         SXA     XR+5,7                                                   IBUF0668
      01065  0441 00 0 74654         LDI     M0                                                       IBUF0669
      01066  0604 00 0 01222         STI     ILINE                                                    IBUF0670
      01067  0020 00 4 00001         TRA     1,4                                                      IBUF0671
                              *                                                                       IBUF0672
                       01070  REST   SYN     *                                                        IBUF0673
      01070  0774 00 1 00000  XR     AXT     ,1                                                       IBUF0674
      01071  0774 00 2 00000         AXT     ,2                                                       IBUF0675
      01072  0774 00 3 00000         AXT     ,3                                                       IBUF0676
      01073  0774 00 5 00000         AXT     ,5                                                       IBUF0677
      01074  0774 00 6 00000         AXT     ,6                                                       IBUF0678
      01075  0774 00 7 00000         AXT     ,7                                                       IBUF0679
      01076  0020 00 4 00001         TRA     1,4                                                      IBUF0680
                              *                                                                       IBUF0681
                       00001  USR    EQU     1             IR FOR USER NUMBER                         IBUF0682
                       00002  CC     EQU     2                                                        IBUF0683
                       00003  WC     EQU     3                                                        IBUF0684
                       00005  BL     EQU     5                                                        IBUF0685
                       00006  IWC    EQU     6                                                        IBUF0686
                       00007  TCC    EQU     7                                                        IBUF0687
      01077                   CHART  BSS     N+1           LAST BLOCK,,BLOCK COUNT                    IBUF0688
      01150                   LINET  BSS     N+1           FIRST BLOCK,,LAST LINE                     IBUF0689
      01221 +000000000076     GIPSCE OCT     76            CHAR AT END OF GRAPHICAL INPUT (ARDS SCOPE)IBUF0690
      01222  0 00000 0 00000  ILINE  PZE                   0,,USER IF TO START HIM                    IBUF0691
                                     END                                                              IBUF0692

        LITERALS
      01223  000000000077
      01224  000001000000
      01225  000006000000
      01226  000077000000
      01227  006000600060
      01230  110000000000
      01231  200000000000
      01232  577777777777
1            INPUT BUFFERING ROUTINE   S. DUNTEN                                 07/20/70 1810.0 PAGE 1
                        POST PROCESSOR ASSEMBLY DATA

       72127 IS THE LAST LOCATION NOT USED BY THIS PROGRAM
       1233 IS THE FIRST LOCATION NOT USED BY THIS PROGRAM

0REFERENCES TO DEFINED SYMBOLS
         50      N   603, 1006, 1007, 1010, 1077, 1150
          5     BL    15,   21,   34,   37,   62,  121,  122,  124,  125,  142,  143,  144,  161,  200,  202,  211,  214
                     226,  227,  230,  234,  235,  236,  301,  302,  303,  305,  307,  313,  314,  326,  330,  332,  333
                     335,  363,  365,  422,  425,  427,  433,  434,  436,  453,  476,  477,  524,  526,  555,  556,  560
                     565,  702,  703,  715,  720,  731, 1077
          2     CC    25,   26,   27,   30,   50,   52,   56,  154,  171,  172,  173,  174,  323,  446,  717,  725, 1077
      74654     M0   123,  655, 1065
        671     PC   643,  700
        661     PS   653,  671
      74671     Q0    47,  153,  255,  354
      74670     Q1     6
      74663     Q6   156
          3     WC    31,   32,   36,   60,  162,  175,  176,  177,  315,  316,  320,  321,  324,  451,  452,  454,  455
                     456,  463,  471,  473,  502,  504,  505,  723,  726, 1077
       1070     XR  1057, 1060, 1061, 1062, 1063, 1064
        752    BNF   742
        573    CKL   603
        541    CKQ   523,  531,  534,  536
        773    CNT   765
        310    EL1   303
       1017    GET   557,  701
          6    IWC   267,  271,  273,  317,  322,  413,  435,  460,  464,  465,  472,  500,  501,  503,  506,  511,  517
                     520, 1077
        215    KCN   173,  176
          7    NPC   643,  700
         10    NPS   653,  671
        707    RSL   712
        551    SEA   405
        552    SEB   403
        457    SEX   406,  516
        106    SFT    50,  100,  101,  102,  103,  104,  105,  106
         60    SLW    37,   51,   57
        770    STZ   762
          7    TCC   414,  447,  450,  462,  510,  542, 1077
        316    TXL
          1    USR     5,   23,   42,   45,   53,   63,   64,   67,  117,  120,  126,  127,  140,  141,  150,  205,  206
                     207,  212,  224,  225,  231,  237,  241,  242,  251,  253,  262,  300,  304,  306,  334,  337,  340
                     361,  362,  370,  420,  431,  440,  513,  525,  527,  530,  532,  540,  554,  561,  563,  571,  572
                     573,  574,  602,  603,  605,  611,  616,  620,  624,  626,  630,  632,  637,  641,  650,  656,  736
                    1023, 1025, 1047, 1051, 1077
         71    XRC     2,   13,   66
        131    XRE   115,  122
       1012    XRI   754,  755,  767
        542    XRR   365,  375,  377
        700   ADBL    17,   35,  311
          4   BLEN     2,   32,   77,  177,  316, 1000, 1001, 1002, 1016
         76   CHAR     4,   40
        602   CKL1   576
        645   CKQA   607
        622   CKQO   614,  615
1            INPUT BUFFERING ROUTINE   S. DUNTEN                                 07/20/70 1810.0 PAGE 2
                        POST PROCESSOR ASSEMBLY DATA

        311   ELBL   316
        316   ELWL   316,  322
       1056   FREE   757,  774, 1026, 1032, 1041, 1043
        352   FULL   270,  272,  277,  344,  550
       1036   GIVE   201,  426,  711
        211   KCNB   204
        225   KILL   254
       1055   LEFT   613,  634, 1005, 1020, 1022, 1044, 1046
         37   NNEW    27,   32
        725   PACK    61,  216,  325,  507
        550   PEEK   401,  415,  423,  467,  522
        435   RDBL   421
        376   RDOK   367,  372
       1070   REST    71,  131,  217,  244,  342,  543, 1070
       1057   SAVE     3,  116,  137,  223,  250,  257,  356
        776   SLWI   763, 1004
        733   TEMP   725,  730,  735,  744
        750   XRBK   734,  753
        342   XREL   256,  260,  271,  276
       1053   XRGI  1036
       1034   XRGT  1017
        217   XRKC   136,  143,  145,  210
        244   XRKL   222,  247
        657   XRPS   647
        604   XRQS   570,  571
        544   XRR4   355,  357
        713   XRRS   706,  710
      74651  AMASK   745
        740  BLOOP   746
       1077  CHART    63,  120,  141,  205,  212,  237,  241,  337,  527,  554,  563,  611, 1007, 1023, 1025, 1047, 1051
        317  ELCAL   266
        320  ELSLW   314
        352  EMPTY   364,  376,  545,  550
         14  ENTON    11
         77  FULBL    33,  312
       1222  ILINE    70,   73,  130,  133,  341,  347,  625, 1066
       1150  LINET   126,  206,  207,  225,  231,  242,  253,  300,  304,  305,  334,  362,  420,  525,  530,  532,  540
                     561,  573,  632,  637,  641,  650,  656,  736, 1010
        114  MASKS    52,   56
        422  RDBLE   455
        456  RDCAL   453
        522  RDEND   511
        445  RDOK1   437,  442
        511  RDONE   430,  433
        460  RDSLW   411
        455  RDTXL   452,  464,  466,  474
        706  RESET   232
        715  SPLIT    22,  146,  445
        637  UNDER   621
       1016  XBLEN   775
        734 BACKUP   203
      74642 BLANKS    41,  512
          1 BRKPRC    75,  135,  351
        754 CBINIT     0
        553 CKNEWL    14
1            INPUT BUFFERING ROUTINE   S. DUNTEN                                 07/20/70 1810.0 PAGE 3
                        POST PROCESSOR ASSEMBLY DATA

        607 CKQOTA     7,  275,  600
        570 CKQOTS   243,  541
        115 ENDLIN     0
        353 ENDSTR   310,  331,  336
          2 ENTCHR     0
        255 ENTLIN     0
          1 FULBIT    24,   43,   54,  514
       1221 GIPSCE   166
         20 INPBIT   575,  617,  627
        247 KILBUF     0
        136 KILCHR     0
        222 KILLIN     0
          4 NBKBIT    65,  371,  432,  441
          2 NCVBIT    24,   46,   54
        171 NXTKLC   151,  171,  215
        427 PEEKNG   424
        647 PLSTOP    12
        354 RDLINE     0
        532 RDMORE   526
        510 RDPART   434,  435,  444,  470
        517 RDSLW1   412
        500 RDTXL1   475
      75646 UNITID   150
      75524 USWICH    23,   42,   45,   53,   64,  370,  431,  440,  513,  574,  616,  620,  626,  630
          0 WRTELY   642,  652
        704 XRADBL   700
        566 XRCKNL   553,  556

0 NO ERROR IN ABOVE ASSEMBLY.


SCDA8C   BCD 07/23/70 1553.6   19706         00000
1        SCDA   ************* TIME SHARING SCHEDULING ALGORITHM *************    07/22/70 1321.5 PAGE 1

                              *                         T. HASTINGS AND R. DALEY                      SCDA0002
                              *                                                                       SCDA0003
                              *               MINOR MODIFICATIONS BY G. SCHROEDER WHEN NEW            SCDA0004
                              *                I/O PACKAGE INSTALLED....SUMMER,1965.                  SCDA0005
                              *               MINOR CHANGES FOR NEW COMMAND PROCESSOR                 SCDA0006
                              *                SPRING 1969 ...... P.R. BOS                            SCDA0007
                              *                                                                       SCDA0008
                              *           THE SCHEDULING ALGORITHM PERFORMS THE FOLLOWING FUNCTIONS   SCDA0009
                              *                                                                       SCDA0010
                              *            1. DETERMINES WHICH USER IS TO RUN NEXT                    SCDA0011
                              *            2. DETERMINES WHEN NEXT USER IS TO RUN                     SCDA0012
                              *            3. DETERMINES HOW LONG NEXT USER IS TO RUN                 SCDA0013
                              *            4. CHARGES USERS FOR SWAPPING AND RUNNING TIME             SCDA0014
                              *            5. KEEPS TRACK OF THE STATUS OF EACH USER                  SCDA0015
                              *                                                                       SCDA0016
                              *           THE SCHEDULING ALGORITHM IS CALLED FROM THE SUPERVISOR BY   SCDA0017
                              *           EXECUTE SCHED. (EVENT, USER, ARG)                           SCDA0018
                              *           AFTER ALL TRAPS HAVE BEEN DISABLED                          SCDA0019
                              *                                                                       SCDA0020
                              *           THE SIGNIFICANCE OF 'USER' AND 'ARG' DEPEND ON 'EVENT'      SCDA0021
                              *           OR ARE MEANINGLESS AS DESCRIBED BELOW                       SCDA0022
                              *              'EVENT'      DESCRIPTION                                 SCDA0023
                              *                 0         INITIALIZATION OF SCHED.                    SCDA0024
                              *                 1         CLOCK INTERRUPT                             SCDA0025
                              *                 2         'USER' HAS CHANGED TO STATE 'ARG'           SCDA0026
                              *                 3         BEGINNING OF SAVING 'USER' CORE IMAGE       SCDA0027
                              *                 4         BEGINNING OF RESTORING 'USER' CORE IMAGE    SCDA0028
                              *                 5         'USER' BEGINS RUNNING, AFTER SWAP           SCDA0029
                              *                 6         'USER' CORE IMAGE NOW HAS LENGTH 'ARG'      SCDA0030
                              *                 7         OPERATOR SET BACKGROUND KEYS TO 'ARG'       SCDA0031
                              *                 8         'USER' LOGGED IN                            SCDA0032
                              *                 9         'USER' LOGGED OUT                           SCDA0033
                              *                10         IS 'NEWUSR' STILL RUNABLE                   SCDA0034
                              *                11         'USER' DIALED UP COMPUTER                   SCDA0035
                              *                12         SCHEDULE BACKGROUND                         SCDA0036
                              *                13         HAVE QUEUES BEEN DRAINED                    SCDA0037
                              *                                                                       SCDA0038
                              *           ALL TIME IS KEPT IN SIXTIETHS OF A SECOND AND VARIABLES     SCDA0039
                              *           ENDING WITH 'TIM' ARE TIMES SINCE SYSTEM WAS LOADED         SCDA0040
                              *           WITH THE EXCEPTION OF 'SYSTIM', 'WRKTIM', AND 'STRTIM'      SCDA0041
                              *                                                                       SCDA0042
                              *           SCHED. HAS SOLE RESPONSIBILITY FOR SETTING AND CHANGING     SCDA0043
                              *           THE FOLLOWING COMMON ARRAYS AND VARIABLES                   SCDA0044
                              *                                                                       SCDA0045
                              *           THE FOLLOWING COMMON ARRAYS ARE USED                        SCDA0046
                              *            'STATUS' - THE STATUS OF EACH USER                         SCDA0047
                              *               WHERE STATUS(J) MAY BE                                  SCDA0048
                              *                 0 DEAD - NOT WAITING TO RUN AND NO CORE IMAGE         SCDA0049
                              *                 1 DORMNT - NOT WAITING TO RUN                         SCDA0050
                              *                 2 WORKING - WAITING IN QUEUES OR RUNNING              SCDA0051
                              *                 3 WAITING COMMAND - WAITING IN QUEUES FOR COM.        SCDA0052
                              *                 4 INPUT WAIT - PROGRAM WAITING FOR INPUT              SCDA0053
                              *                 5 OUTPUT WAIT - OUTPUT BUFFERS FILLED                 SCDA0054
                              *                 6 FILE WAIT - LOCK ON FILE TO BE READ OR WRITTEN      SCDA0055
                              *                 7 I/O QUEUE WAIT - WAITING FOR TAPE OR QUEUES FULL    SCDA0056
                              *                 8 TIMER WAIT - WAITING FOR ALARM CLOCK RUN-OUT        SCDA0057
1        SCDA   ************* TIME SHARING SCHEDULING ALGORITHM *************    07/22/70 1321.5 PAGE 2

                              *            'LENGTH' - LENGTH OF USER CORE IMAGE IN WORDS              SCDA0058
                              *            'LEVEL'  - USER'S PRIORITY LEVEL(0, ... , 'MAXLVL')        SCDA0059
                              *            'TIMLEV' - ELAPSED TIME RUN AT CURRENT LEVEL               SCDA0060
                              *            'WATTIM' - THE LAST TIME THAT A USER BEGAN TO WAIT         SCDA0061
                              *            'QLIST'  - QUEUE POSITION LIST OF USERS WAITING TO RUN     SCDA0062
                              *            'PB'     - PERCENTAGE USER MUST RUN WHILE IN WORK STAT     SCDA0063
                              *                                                                       SCDA0064
                              *           THE FOLLOWING COMMON VARIABLES ARE USED                     SCDA0065
                              *            'MXUSRS' - MAX. NO. OF FOREGROUND USERS                    SCDA0066
                              *            'CURUSR' - CURRENT USER, RUNNING OR SWAPPING               SCDA0067
                              *            'OLDUSR' - LAST USER TO BE RUN, WHEN 'SWAP' .NE. 0         SCDA0068
                              *            'NEWUSR' - NEXT USER TO BE RUN, WHEN 'SWAP' .NE. 0         SCDA0069
                              *            'PAYUSR' - THE USER CURRENTLY PAYING FOR TIME              SCDA0070
                              *            'SYSTIM' - TIME SYSTEM WAS INITIALIZED                     SCDA0071
                              *            'SYSDAT' - DATE SYSTEM WAS INITIALIZED                     SCDA0072
                              *            'BEGTIM' - THE LAST TIME 'CURUSR' BEGAN TO RUN             SCDA0073
                              *            'QUANTM' - MAXIMUM RUNNING TIME AT LEVEL 0                 SCDA0074
                              *            'MAXTIM' - USER RUNS AT SAME LEVEL UNTIL 'MAXTIM'          SCDA0075
                              *            'PAYTIM' - LAST TIME A USER WAS CHARGED FOR TIME           SCDA0076
                              *            'LEVTIM' - LAST TIME 'CURUSR' WAS RUNNING AT CURRENT LEVEL SCDA0077
                              *            'SWAP'   - NON-ZERO REQUESTS SUPERVISOR TO RUN             SCDA0078
                              *                       'NEWUSR' AS SOON AS IT CAN                      SCDA0079
                              *            'MAXLVL' - THE MAXIMUM PRIORITY LEVEL(0 ... 'MAXLVL')      SCDA0080
                              *            'MINLVL' - THE MINIMUM PRIORITY LEVEL ALLOWED              SCDA0081
                              *            'FULLVL' - INIT. LEVEL FOR 'FULLEN' TO FULL CORE USER      SCDA0082
                              *            'EMPLVL' - INITIAL LEVEL FOR EMPTY CORE USER               SCDA0083
                              *            'FULLEN' - LENGTH FOR ENTRY AT LEVEL 'FULLVL'              SCDA0084
                              *            'ESTTIM' - TIME LIMIT FOR CURRENT FIB JOB                  SCDA0085
                              *            'QNTWAT' - QUANTM WAITING TIME BEFORE LEVEL CHANGE         SCDA0086
                              *                       TO NEXT HIGHEST PRIORITY LEVEL                  SCDA0087
                              *            'LEVINC' - AMOUNT PRIORITY LEVEL IS INCREASED WHEN         SCDA0088
                              *                       USER RETURNS TO WORKING FROM I/O WAIT           SCDA0089
                              *            'INACTV' - MAX. TIME INACTIVE BEFORE LOGOUT                SCDA0090
                              *            'HANGUP' - MAX. TIME BEFORE INACTIVE LINE IS HUNGUP        SCDA0091
                              *                                                                       SCDA0092
                              *           COMMON VARIABLES REFERRED TO BY SCHED. BUT NOT SET OR       SCDA0093
                              *           CHANGED BY SCHED.                                           SCDA0094
                              *            'BKGTIM' - TOTAL TIME BACKGROUND HAS RUN                   SCDA0095
                              *            'SWPSW'  - NON-ZERO WHEN SUPERVISOR IS SWAPPING            SCDA0096
                              *            'PROBN(J)' - NON-ZERO WHEN USER J IS LOGGED IN             SCDA0097
                              *            'ADOPT(J)' - IF ADOPT(J) .NE. 0, THEN USER J ADOPTED       SCDA0098
                              *            'UNITID(J)' - USER CONSOLE I.D. (.G. 0 WHEN DIALED IN)     SCDA0099
                              *                                                                       SCDA0100
                              *           SCHED. CALLS THE FOLLOWING SUBROUTINES ...                  SCDA0101
                              *            INITQ. - INITIALIZES QUEUES                                SCDA0102
                              *            HEDUSR. - RETURNS THE HEAD OF QUEUE USER                   SCDA0103
                              *               AT HIGHEST NON-EMPTY PRIORITY LEVEL OR 0                SCDA0104
                              *            DELQUE.(J) - DELETES USER J FROM QUEUES                    SCDA0105
                              *            ENDQUE.(J) - PLACES USER J AT END OF QUEUE LEVEL(J)        SCDA0106
                              *            ILOG2.(N) - RETURNS INTEGER PART OF LOG TO BASE 2 N        SCDA0107
                              *            I.(J) - CONVERTS FORWARD INDEX 'J' TO BACKWARD             SCDA0108
                              *               INDEX FOR REFERRING TO MAD ARRAYS                       SCDA0109
                              *            INITIM. - INITIALIZE TIME ACCOUNTING                       SCDA0110
                              *            INTIM. - USER 'U' LOGGED IN                                SCDA0111
                              *            OUTTIM. - USER 'U' LOGGED OUT                              SCDA0112
                              *            CHARGE.(U,T) - CHARGE USER 'U' FOR TIME 'T'                SCDA0113
1        SCDA   ************* TIME SHARING SCHEDULING ALGORITHM *************    07/22/70 1321.5 PAGE 3

                              *            GETOTL. - RETURNS THE TOTAL TIME SYSTEM HAS RUN            SCDA0114
                              *            DELTIM.(T) - RETURNS DELTA 'T' - THE DIFFERENCE            SCDA0115
                              *               BETWEEN 'GETOTL.()' AND TIME 'T'                        SCDA0116
                              *               TIME 'T' IS ALSO SET TO GETOTL.(0)                      SCDA0117
                              *               OF DAY SYSTEM WAS INITIALIZED                           SCDA0118
                              *            MONSCD. - CALLED AT EVENT 1, MONITORS QUEUE LENGTHS AND    SCDA0119
                              *               SWAP PERCENTAGE, MAY ALTER QUANTM AND MXUSRS IN         SCDA0120
                              *               RESPONSE TO LOAD CONDITIONS, AND MAY LOG OUT USERS      SCDA0121
                              *               IN CASE OF CONTINUED OVERLOAD                           SCDA0122
                              *            NOTIM.(J,CODE) - INDICATES THAT USER 'J' IS TO BE LOGGED   SCDA0123
                              *               OUT FOR REASON 'CODE' IF NOT ALREADY LOGGING OUT        SCDA0124
                              *                                                                       SCDA0125
                              *                                                                       SCDA0126
                              *          EXTERNAL FUNCTION (A, B, C)                                  SCDA0127
                              *          ENTRY TO SCHED.                                              SCDA0128
                              *          NORMAL MODE IS INTEGER                                       SCDA0129
                              *          VECTOR VALUES BGMAX = 120                                    SCDA0130
                              *          VECTOR VALUES FIRST3 = 1B                                    SCDA0131
                              *                                                                       SCDA0132
                              *          .. SHORTEN LINKAGE, SET UP USER INDEX                        SCDA0133
                              *                                                                       SCDA0134
                              *          EVENT = A                                                    SCDA0135
                              *          USR = B                                                      SCDA0136
                              *          IUSER = I.(USR)                                              SCDA0137
                              *          ARG = C                                                      SCDA0138
                              *          TRANSFER TO EVNT(EVENT)                                      SCDA0139
                              *                                                                       SCDA0140
                              *                                                                       SCDA0141
                              *          .. 'EVENT' .E. 0, INITIALIZE SCHEDULING ALGORITHM            SCDA0142
                              *                                                                       SCDA0143
                              * EVNT(0)  EXECUTE INITQ.                                               SCDA0144
                              *          EXECUTE INITIM.                                              SCDA0145
                              *                                                                       SCDA0146
                              *          SYSTIM = TIMNOW                                              SCDA0147
                              *          SYSDAT = DATEYR                                              SCDA0148
                              *          TRANSFER TO RETURN                                           SCDA0149
                              *                                                                       SCDA0150
                              *                                                                       SCDA0151
                              *          .. 'EVENT' .E. 1, CLOCK INTERRUPT                            SCDA0152
                              *                                                                       SCDA0153
                              * EVNT(1)  ICUR = I.(CURUSR)                                            SCDA0154
                              *          EXECUTE MONSCD.                                              SCDA0155
                              *          T = GETOTL.(0)                                               SCDA0156
                              *                                                                       SCDA0157
                              *          .. DO THE FOLLOWING CHECKING EVERY 10 SECONDS                SCDA0158
                              *          ..   CHARGE PAYING USER FOR TIME                             SCDA0159
                              *          ..   MOVE LONG WAITING USERS UP IN PRIORITY                  SCDA0160
                              *          ..   ALSO LOGOUT INACTIVE USERS                              SCDA0161
                              *          ..   AND HANGUP INACTIVE LINES                               SCDA0162
                              *          ..   DECREASE LEVEL OF USER NOT MEETING PERCENTAGE BY 1      SCDA0163
                              *          ..     PERCENTAGE CALCULATED ON TIME SINCE USER ENTERED      SCDA0164
                              *          ..     WORKING STATUS                                        SCDA0165
                              *                                                                       SCDA0166
                              *          WHENEVER T .GE. CHECKT                                       SCDA0167
                              *            CHECKT = T + 600                                           SCDA0168
                              *            WHENEVER .NOT. SWPSW, CHARGE.(PAYUSR, DELTIM.(PAYTIM))     SCDA0169
1        SCDA   ************* TIME SHARING SCHEDULING ALGORITHM *************    07/22/70 1321.5 PAGE 4

                              *            THROUGH KLOOP, FOR K = 0, 1, K .G. N                       SCDA0170
                              *              WHENEVER K .E. CURUSR, TRANSFER TO KLOOP                 SCDA0171
                              *              KUSER = I.(K)                                            SCDA0172
                              *              WHENEVER K .G. 2 .AND. STATUS(KUSER) .NE. 2              SCDA0173
                              *        1     .AND. K .NE. SYSMSG                                      SCDA0174
                              *                DELT = T - WATTIM(KUSER)                               SCDA0175
                              *                WHENEVER DELT .GE. INACTV .AND. PROBN(KUSER) .NE. 0    SCDA0176
                              *        1       .OR. DELT .GE. HANGUP .AND. ADOPT(KUSER) .E. 0 .AND.   SCDA0177
                              *        2       PROBN(KUSER) .E. 0 .AND. UNITID(KUSER) .G. 0           SCDA0178
                              *                  EXECUTE NOTIM.(K,3)                                  SCDA0179
                              *                  WATTIM(KUSER) = T                                    SCDA0180
                              *                END OF CONDITIONAL                                     SCDA0181
                              *              END OF CONDITIONAL                                       SCDA0182
                              *              WHENEVER 100 * WRKTIM (KUSER) .L. PB (KUSER) * (TOTTIM - SCDA0183
                              *        1     STRTIM(KUSER)) .AND. (STATUS(KUSER) .E. 2 .OR.           SCDA0184
                              *        2     STATUS(KUSER) .E. 3) .AND. LEVEL (KUSER) .G. MINLVL      SCDA0185
                              *                LEVEL(KUSER) = LEVEL(KUSER) - 1                        SCDA0186
                              *                EXECUTE ENDQUE.(K)                                     SCDA0187
                              *              END OF CONDITIONAL                                       SCDA0188
                              * KLOOP      CONTINUE                                                   SCDA0189
                              *          END OF CONDITIONAL                                           SCDA0190
                              *                                                                       SCDA0191
                              *          .. MOVE LONG RUNNING 'CURUSR' DOWN IN PRIORITY               SCDA0192
                              *                                                                       SCDA0193
                              *          WHENEVER T .G. MAXTIM .AND. (STATUS (ICUR) .E. 2 .OR.        SCDA0194
                              *        1 STATUS (ICUR) .E. 3) .AND. .NOT. SWAP                        SCDA0195
                              *            WHENEVER LEVEL(ICUR) .L. MAXLVL .AND. 100 * WRKTIM(ICUR)   SCDA0196
                              *        1     .G. PB(ICUR) * (TOTTIM - STRTIM(ICUR)), LEVEL(ICUR) =    SCDA0197
                              *        2     LEVEL(ICUR) + 1                                          SCDA0198
                              *            EXECUTE ENDQUE.(CURUSR)                                    SCDA0199
                              *            LEVTIM = T                                                 SCDA0200
                              *            TIMLEV(ICUR) = 0                                           SCDA0201
                              *            MAXTIM = T + TRUN.(LEVEL(ICUR))                            SCDA0202
                              *          END OF CONDITIONAL                                           SCDA0203
                              *          TRANSFER TO DECIDE                                           SCDA0204
                              *                                                                       SCDA0205
                              *                                                                       SCDA0206
                              *          .. 'EVENT' .E. 2, 'USR'('IUSER') CHANGED STATE               SCDA0207
                              *          .. DISPATCH ON NEW STATE, IGNORE REDUNDANT TRANSITIONS       SCDA0208
                              *                                                                       SCDA0209
                              * EVNT(2)  TRANSFER TO STAT(ARG)                                        SCDA0210
                              *                                                                       SCDA0211
                              *          .. 'USR'('IUSER') WENT DEAD                                  SCDA0212
                              *                                                                       SCDA0213
                              * STAT(0)  STATUS(IUSER) = 0                                            SCDA0214
                              *          LENGTH(IUSER) = 0                                            SCDA0215
                              *          CONTINUE                                                     SCDA0216
                              *                                                                       SCDA0217
                              *          .. 'USR'('IUSER') WENT DORMANT WHILE RUNNING                 SCDA0218
                              *          .. OR PUSHED QUIT BUTTON                                     SCDA0219
                              *                                                                       SCDA0220
                              * STAT(1)  EXECUTE DELQUE.(USR)                                         SCDA0221
                              *          WHENEVER STATUS(IUSER) .NE. 0, STATUS(IUSER) = 1             SCDA0222
                              *          WATTIM(IUSER) = GETOTL.(0)                                   SCDA0223
                              *          WHENEVER USR .E. CURUSR, TRANSFER TO DECIDE                  SCDA0224
                              *          TRANSFER TO RETURN                                           SCDA0225
1        SCDA   ************* TIME SHARING SCHEDULING ALGORITHM *************    07/22/70 1321.5 PAGE 5

                              *                                                                       SCDA0226
                              *          .. 'USR'('IUSER') TO BEGIN WORKING AFTER I/O WAITING         SCDA0227
                              *          .. OR ALARM CLOCK RETURN FROM DORMANT TO WORKING             SCDA0228
                              *                                                                       SCDA0229
                              * STAT(2)  WHENEVER STATUS(IUSER) .GE. 4 .OR. STATUS(IUSER) .E. 1       SCDA0230
                              *            WRKTIM(IUSER) = 0                                          SCDA0231
                              *            STRTIM(IUSER) = TOTTIM                                     SCDA0232
                              *            WHENEVER STATUS(IUSER) .NE. 1 .AND. USR .NE. 0             SCDA0233
                              *              LEVEL(IUSER) = LEVELF.(LENGTH(IUSER))                    SCDA0234
                              *              TIMLEV(IUSER) = 0                                        SCDA0235
                              *            END OF CONDITIONAL                                         SCDA0236
                              *            EXECUTE ENDQUE.(USR)                                       SCDA0237
                              *            WATTIM(IUSER) = GETOTL.(0)                                 SCDA0238
                              *            STATUS(IUSER) = 2                                          SCDA0239
                              *            TRANSFER TO DECIDE                                         SCDA0240
                              *          END OF CONDITIONAL                                           SCDA0241
                              *          TRANSFER TO RETURN                                           SCDA0242
                              *                                                                       SCDA0243
                              *          .. 'USR'('IUSER') BEGAN WAITING FOR A COMMAND                SCDA0244
                              *                                                                       SCDA0245
                              * STAT(3)  LEV = LEVELF.(LENGTH(IUSER))                                 SCDA0246
                              *          WHENEVER STATUS(IUSER) .E. 2 .OR. STATUS(IUSER) .E. 3        SCDA0247
                              *            WHENEVER LEV .G. LEVEL(IUSER), TRANSFER TO COMAND          SCDA0248
                              *          OTHERWISE                                                    SCDA0249
                              * COMAND     WHENEVER USR .NE. 0, LEVEL(IUSER) = LEV                    SCDA0250
                              *            EXECUTE ENDQUE.(USR)                                       SCDA0251
                              *            TIMLEV(IUSER) = 0                                          SCDA0252
                              *            WATTIM(IUSER) = GETOTL.(0)                                 SCDA0253
                              *          END OF CONDITIONAL                                           SCDA0254
                              *          STATUS(IUSER) = 3                                            SCDA0255
                              *          TRANSFER TO DECIDE                                           SCDA0256
                              *                                                                       SCDA0257
                              *          .. 'USR'('IUSER') ENTERED INPUT WAIT.                        SCDA0258
                              * STAT(4)                                                               SCDA0259
                              *                                                                       SCDA0260
                              *          .. 'USR'('IUSER') ENTERED OUTPUT WAIT.                       SCDA0261
                              * STAT(5)                                                               SCDA0262
                              *                                                                       SCDA0263
                              *          .. 'USR'('IUSER') ENTERED FILE WAIT                          SCDA0264
                              * STAT(6)                                                               SCDA0265
                              *                                                                       SCDA0266
                              *          .. 'USR'('IUSER') ENTERED QUEUE WAIT                         SCDA0267
                              * STAT(7)                                                               SCDA0268
                              *                                                                       SCDA0269
                              *          .. 'USR'('IUSER') ENTERED TIMER WAIT                         SCDA0270
                              * STAT(8)                                                               SCDA0271
                              *                                                                       SCDA0272
                              *          WHENEVER STATUS(IUSER) .E. 2                                 SCDA0273
                              *            EXECUTE DELQUE.(USR)                                       SCDA0274
                              *            STATUS(IUSER) = ARG                                        SCDA0275
                              *            WATTIM(IUSER) = GETOTL.(0)                                 SCDA0276
                              *            TRANSFER TO DECIDE                                         SCDA0277
                              *          END OF CONDITIONAL                                           SCDA0278
                              *          TRANSFER TO RETURN                                           SCDA0279
                              *                                                                       SCDA0280
                              *          .. THE NEXT THREE EVENTS ALWAYS OCCUR IN SEQUENCE            SCDA0281
1        SCDA   ************* TIME SHARING SCHEDULING ALGORITHM *************    07/22/70 1321.5 PAGE 6

                              *          .. WHEN CONTROL IS TRANSFERRED FROM 'OLDUSR' TO 'NEWUSR'     SCDA0282
                              *          .. AS A RESULT OF 'SWAP' BEING SET NON-ZERO.                 SCDA0283
                              *          .. 'NEWUSR' PAYS FOR CORE FREEUP AND HIS OWN LOAD            SCDA0284
                              *                                                                       SCDA0285
                              *          .. 'EVENT' .E. 3, SAVING OF 'USR'('IUSER') IS BEGINNING      SCDA0286
                              *                                                                       SCDA0287
                              *          .. EVENT 3 MAY BE CALLED FOR ANY OF THE FOLLOWING:           SCDA0288
                              *             1. FREEING UP CORE B BECAUSE 'CURUSR' EXTENDED SIZE       SCDA0289
                              *             2. FREEING UP CORE A DRUM BUFFERS FOR SWAPPING            SCDA0290
                              *             3. DUMPING 'OLDUSR'                                       SCDA0291
                              *             4. DUMPING OTHER USERS TO MAKE ROOM FOR 'NEWUSR'          SCDA0292
                              *                                                                       SCDA0293
                              *          BOOLEAN FIRST3                                               SCDA0294
                              * EVNT(3)  WHENEVER SWPSW                                               SCDA0295
                              *            WHENEVER FIRST3                                            SCDA0296
                              *              FIRST3 = 0B                                              SCDA0297
                              *              CHARGE.(PAYUSR, DELTIM.(PAYTIM))                         SCDA0298
                              *              OLDUSI = I. (OLDUSR)                                     SCDA0299
                              *              TIMLEV (OLDUSI) = TIMLEV (OLDUSI) + DELTIM.(LEVTIM)      SCDA0300
                              *              PAYUSR = NEWUSR                                          SCDA0301
                              *            END OF CONDITIONAL                                         SCDA0302
                              *            TRANSFER TO RETURN                                         SCDA0303
                              *          END OF CONDITIONAL                                           SCDA0304
                              *          TRANSFER TO RETURN                                           SCDA0305
                              *                                                                       SCDA0306
                              *                                                                       SCDA0307
                              *          .. 'EVENT' .E. 4, RESTORING OF 'NEWUSR' IS BEGINNING         SCDA0308
                              *                                                                       SCDA0309
                              * EVNT(4)  OLDUSI = I. (OLDUSR)                                         SCDA0310
                              *          WHENEVER STATUS (OLDUSI) .E. 2,                              SCDA0311
                              *        1   WATTIM (OLDUSI) = GETOTL.(0)                               SCDA0312
                              *          CURUSR = NEWUSR                                              SCDA0313
                              *          TRANSFER TO RETURN                                           SCDA0314
                              *                                                                       SCDA0315
                              *                                                                       SCDA0316
                              *          .. 'EVENT' .E. 5, 'NEWUSR' BEGINS RUNNING AFTER RESTORE      SCDA0317
                              *                                                                       SCDA0318
                              *          .. NEWUSR'S TIME ALLOTMENT IS SET TO THE QUANTUM AT THIS     SCDA0319
                              *          .. LEVEL LESS HIS TWO-WAY SWAP TIME FROM DRUM, AND LESS      SCDA0320
                              *          .. ANY TIME ALREADY RUN AT THIS LEVEL.                       SCDA0321
                              *                                                                       SCDA0322
                              * EVNT(5)  TDEL = DELTIM.(PAYTIM)                                       SCDA0323
                              *          WHENEVER TDEL .GE. BGMAX                                     SCDA0324
                              *            EXECUTE CHARGE.(PAYUSR, BGMAX)                             SCDA0325
                              *            EXECUTE CHARGE.(OLDUSR, TDEL-BGMAX)                        SCDA0326
                              *          OTHERWISE                                                    SCDA0327
                              *            EXECUTE CHARGE.(PAYUSR, TDEL)                              SCDA0328
                              *          END OF CONDITIONAL                                           SCDA0329
                              *          NEWUSI = I. (NEWUSR)                                         SCDA0330
                              *          WHENEVER STATUS (NEWUSI) .E. 3                               SCDA0331
                              *            STATUS (NEWUSI) = 2                                        SCDA0332
                              *            WRKTIM (NEWUSI) = 0                                        SCDA0333
                              *            STRTIM (NEWUSI) = TOTTIM                                   SCDA0334
                              *          END OF CONDITIONAL                                           SCDA0335
                              *          BEGTIM = GETOTL.(0)                                          SCDA0336
                              *          LEVTIM = BEGTIM                                              SCDA0337
1        SCDA   ************* TIME SHARING SCHEDULING ALGORITHM *************    07/22/70 1321.5 PAGE 7

                              *          MAXTIM = BEGTIM + TRUN.(LEVEL (NEWUSI))                      SCDA0338
                              *        1   -LENGTH (NEWUSI)/1024 - TIMLEV (NEWUSI)                    SCDA0339
                              *          SWAP = 0B                                                    SCDA0340
                              *          FIRST3 = 1B                                                  SCDA0341
                              *          TRANSFER TO DECIDE                                           SCDA0342
                              *                                                                       SCDA0343
                              *                                                                       SCDA0344
                              *          .. 'EVENT' .E. 6, 'USR'('IUSER') CORE IS OF LENGTH 'ARG'     SCDA0345
                              *                                                                       SCDA0346
                              *          .. JUST BEFORE ENTERING WAITING COMMAND                      SCDA0347
                              *          .. OR LENGTH CHANGED WHILE RUNNING                           SCDA0348
                              *                                                                       SCDA0349
                              * EVNT(6)  LENGTH(IUSER) = ARG                                          SCDA0350
                              *          TRANSFER TO RETURN                                           SCDA0351
                              *                                                                       SCDA0352
                              *                                                                       SCDA0353
                              *          .. 'EVENT' .E. 7, OPERATOR SET KEYS TO 'ARG'                 SCDA0354
                              *                                                                       SCDA0355
                              * EVNT(7)  BKGATT = ARG                                                 SCDA0356
                              *          TRANSFER TO DECIDE                                           SCDA0357
                              *                                                                       SCDA0358
                              *                                                                       SCDA0359
                              *          .. 'EVENT' .E. 8, 'USR'('IUSER') LOGGED IN PROPERLY          SCDA0360
                              *                                                                       SCDA0361
                              * EVNT(8)  EXECUTE INTIM.(USR)                                          SCDA0362
                              *          TRANSFER TO RETURN                                           SCDA0363
                              *                                                                       SCDA0364
                              *                                                                       SCDA0365
                              *          .. 'EVENT' .E. 9, 'USR'('IUSER') LOGGED OUT                  SCDA0366
                              *                                                                       SCDA0367
                              * EVNT(9)  EXECUTE OUTTIM.(USR)                                         SCDA0368
                              *          TRANSFER TO RETURN                                           SCDA0369
                              *                                                                       SCDA0370
                              *                                                                       SCDA0371
                              *          .. 'EVENT' .E. 10, IS 'NEWUSR' STILL RUNABLE                 SCDA0372
                              *                                                                       SCDA0373
                              * EVNT(10) NEWUSI = I. (NEWUSR)                                         SCDA0374
                              *          WHENEVER STATUS (NEWUSI) .E. 2 .OR. STATUS (NEWUSI) .E. 3    SCDA0375
                              *        1  .OR. NEWUSR .E. DUSER, TRANSFER TO RETURN                   SCDA0376
                              *          SWAP = 0B                                                    SCDA0377
                              *          TRANSFER TO DECIDE                                           SCDA0378
                              *                                                                       SCDA0379
                              *                                                                       SCDA0380
                              *          .. 'EVENT' .E. 11, 'USR'('IUSER') DIALED UP COMPUTER         SCDA0381
                              *                                                                       SCDA0382
                              * EVNT(11) WATTIM(IUSER) = GETOTL.(0)                                   SCDA0383
                              *          TRANSFER TO RETURN                                           SCDA0384
                              *                                                                       SCDA0385
                              *                                                                       SCDA0386
                              *          .. SCHEDULE BACKGROUND (USER 0) AT LEVEL 9                   SCDA0387
                              *                                                                       SCDA0388
                              * EVNT(12) LEVEL (IUSER) = 9                                            SCDA0389
                              *          TRANSFER TO RETURN                                           SCDA0390
                              *                                                                       SCDA0391
                              *                                                                       SCDA0392
                              *          .. 'EVENT' .E. 13, HAVE QUEUES BEEN DRAINED                  SCDA0393
1        SCDA   ************* TIME SHARING SCHEDULING ALGORITHM *************    07/22/70 1321.5 PAGE 8

                              *                                                                       SCDA0394
                              * EVNT(13) FUNCTION RETURN QLEN                                         SCDA0395
                              *                                                                       SCDA0396
                              *                                                                       SCDA0397
                              *          .. COMMON EXIT FROM SCHED.                                   SCDA0398
                              *          .. DECIDE IF IT IS TIME TO RUN A NEW USER                    SCDA0399
                              *                                                                       SCDA0400
                              * DECIDE   CONTINUE                                                     SCDA0401
                              *                                                                       SCDA0402
                              *          .. NO DECISION WHILE SWAPPING                                SCDA0403
                              *                                                                       SCDA0404
                              *          WHENEVER SWAP, TRANSFER TO RETURN                            SCDA0405
                              *                                                                       SCDA0406
                              *                                                                       SCDA0407
                              *          .. WHENEVER NO-INTERRUPT SWITCH IS ON,                       SCDA0408
                              *          .. USER CANNOT BE SWAPPED                                    SCDA0409
                              *                                                                       SCDA0410
                              *          BOOLEAN NINTSW.                                              SCDA0411
                              *          CURUSI = I. (CURUSR)                                         SCDA0412
                              *          WHENEVER STATUS (CURUSI) .E. 2 .AND. NINTSW. (CURUSI),       SCDA0413
                              *        1   TRANSFER TO RETURN                                         SCDA0414
                              *                                                                       SCDA0415
                              *          U = HEDUSR.(0)                                               SCDA0416
                              *          WHENEVER BKGATT .NE. 0 , U = 0                               SCDA0417
                              *                                                                       SCDA0418
                              *          .. RUN USER 'U' IF 'CURUSR' HAS RUN AS LONG AS 'U' WOULD     SCDA0419
                              *          WHENEVER U .NE. CURUSR .AND. (TRUN.(LEVEL(I.(U))) .L.        SCDA0420
                              *        1 GETOTL.(0) - BEGTIM .OR. (STATUS (CURUSI) .NE. 2             SCDA0421
                              *        2 .AND. STATUS (CURUSI) .NE. 3) .OR. BKGATT .NE. 0)            SCDA0422
                              *        3 .OR. U .E. CURUSR .AND. STATUS (CURUSI) .E. 3                SCDA0423
                              *            SWAP = 1B                                                  SCDA0424
                              *            NEWUSR = U                                                 SCDA0425
                              *            OLDUSR = CURUSR                                            SCDA0426
                              *          END OF CONDITIONAL                                           SCDA0427
                              *                                                                       SCDA0428
                              * RETURN   FUNCTION RETURN                                              SCDA0429
                              *                                                                       SCDA0430
                              *                                                                       SCDA0431
                              *          .. INTERNAL FUNCTIONS                                        SCDA0432
                              *                                                                       SCDA0433
                              *          .. 'TRUN' - COMPUTES RUN TIME AT LEVEL 'DL'                  SCDA0434
                              *                                                                       SCDA0435
                              *          INTERNAL FUNCTION TRUN.(DL) = QUANTM .LS. DL                 SCDA0436
                              *                                                                       SCDA0437
                              *          .. 'LEVELF' - COMPUTE PRIORITY LEVEL BASED ON LENGTH 'LEN'   SCDA0438
                              *                                                                       SCDA0439
                              *          INTERNAL FUNCTION(LEN)                                       SCDA0440
                              *          ENTRY TO LEVELF.                                             SCDA0441
                              *          WHENEVER LEN .GE. FULLEN                                     SCDA0442
                              *            L = FULLVL                                                 SCDA0443
                              *          OTHERWISE                                                    SCDA0444
                              *            L = EMPLVL + ILOG2.(LEN/(FULLEN .RS. (FULLVL-EMPLVL)))     SCDA0445
                              *          END OF CONDITIONAL                                           SCDA0446
                              *          FUNCTION RETURN L                                            SCDA0447
                              *          END OF FUNCTION                                              SCDA0448
                              *                                                                       SCDA0449
1        SCDA   ************* TIME SHARING SCHEDULING ALGORITHM *************    07/22/70 1321.5 PAGE 9

                              *                                                                       SCDA0450
                              *          .. COMMON VARIABLES                                          SCDA0451
                              *                                                                       SCDA0452
                              *          INSERT FILE COMMON                                           SCDA0453
                              *                                                                       SCDA0454
                              *          END OF FUNCTION                                              SCDA0455
1        SCDA   ************* TIME SHARING SCHEDULING ALGORITHM *************    07/22/70 1321.5 PAGE 10

                                                                                                      SCDA0457
                                                                                                      SCDA0458
                                     PCC     ON                                                       SCDA0459
                                     NOLNK                                                            SCDA0460
                       00014         ENTRY   SCHEDL                                                   SCDA0461
                                     LBL     SCDA0000                                                 SCDA0462
                                     PCC     OFF                                                      SCDA0463
                                                                                                      SCDA0464
                                     EXTERN  CHARGE,DELQUE,DELTIM,ENDQUE,GETOTL                       SCDA0465
                                     EXTERN  HEDUSR,INITIM,INITQ,INTIM,MONSCD                         SCDA0466
                                     EXTERN  NOTIM,OUTTIM                                             SCDA0467
                                                                                                      SCDA0468
                                     UNLIST                                                           SCDA0469

      00014  0564 00 0 74671  SCHEDL ENB     Q0            DISABLE ALL TRAPS                          SCDA0475
      00015                          SAVE    SCD(X1,X2,X4) SAVE LINKAGE                               SCDA0476
      00020 -0500 60 4 00001         CAL*    1,4           PICK UP EVENT NUMBER                       SCDA0477
      00021  0737 00 2 00000         PAC     ,2            .. TO X2                                   SCDA0478
      00022 -0500 60 4 00002         CAL*    2,4           PICK UP USER NUMBER                        SCDA0479
      00023  0602 00 0 00621         SLW     USR           .. SAVE                                    SCDA0480
      00024  0737 00 1 00000         PAC     ,1            .. TO X1                                   SCDA0481
      00025 -0500 60 4 00003         CAL*    3,4           PICK UP ARG IF ANY                         SCDA0482
      00026  0602 00 0 00610         SLW     ARG           .. SAVE                                    SCDA0483
      00027  0020 60 2 00030         TRA*    EVNT,2        DISPATCH ON EVENT                          SCDA0484
                                                                                                      SCDA0485
      00030  0020 00 0 00046  EVNT   TRA     EVNT0         INITIALIZE SCHEDL                          SCDA0486
      00031  0020 00 0 00055         TRA     EVNT1         CLOCK INTERRUPT                            SCDA0487
      00032  0020 00 0 00234         TRA     EVNT2         USER CHANGED STATE                         SCDA0488
      00033  0020 00 0 00344         TRA     EVNT3         DUMPING USER                               SCDA0489
      00034  0020 00 0 00366         TRA     EVNT4         RESTORING USER                             SCDA0490
      00035  0020 00 0 00377         TRA     EVNT5         USER RUNNING AFTER RESTORE                 SCDA0491
      00036  0020 00 0 00447         TRA     EVNT6         USER CHANGED SIZE                          SCDA0492
      00037  0020 00 0 00451         TRA     EVNT7         OPERATOR SET BACKGROUND KEYS               SCDA0493
      00040  0020 00 0 00453         TRA     EVNT8         USER LOGGED IN                             SCDA0494
      00041  0020 00 0 00456         TRA     EVNT9         USER LOGGED OUT                            SCDA0495
      00042  0020 00 0 00461         TRA     EVNT10        IS NEWUSR STILL RUNNABLE                   SCDA0496
      00043  0020 00 0 00473         TRA     EVNT11        USER DIALED UP                             SCDA0497
      00044  0020 00 0 00476         TRA     EVNT12        RESCHEDULE BACKGROUND                      SCDA0498
      00045  0020 00 0 00501         TRA     EVNT13        CHECK IF QUEUES DRAINED                    SCDA0499
                                                                                                      SCDA0500
                                                                                                      SCDA0501
      00046  0074 00 4 00007  EVNT0  TSX     INITQ,4       INITIALIZE QUEUES                          SCDA0502
      00047  0074 00 4 00006         TSX     INITIM,4      INITIALIZE TIME ACC.                       SCDA0503
      00050 -0500 00 0 74476         CAL     TIMNOW        SET DATE AND TIME CTSS STARTED             SCDA0504
      00051  0602 00 0 74624         SLW     SYSTIM        ..                                         SCDA0505
      00052 -0500 00 0 74500         CAL     DATEYR        ..                                         SCDA0506
      00053  0602 00 0 74623         SLW     SYSDAT        ..                                         SCDA0507
      00054  0020 00 0 00551         TRA     RETURN                                                   SCDA0508
                                                                                                      SCDA0509
                                                                                                      SCDA0510
      00055  0074 00 4 00011  EVNT1  TSX     MONSCD,4      TELL MONITOR OF CLOCK INTERRUPT            SCDA0511
      00056  0074 00 4 00004         TSX     GETOTL,4      GET TIME SINCE CTSS CAME UP                SCDA0512
      00057  0602 00 0 00617         SLW     T             .. SAVE                                    SCDA0513
      00060  0402 00 0 00612         SUB     CHECKT        DO THE FOLLOWING CHECKING EVERY TEN SECONDSSCDA0514
      00061 -0120 00 0 00166         TMI     EV1.1         .. NOT TIME YET                            SCDA0515
      00062 -0500 00 0 00617         CAL     T             SET UP NEW TIME TO CHECK                   SCDA0516
1        SCDA   ************* TIME SHARING SCHEDULING ALGORITHM *************    07/22/70 1321.5 PAGE 11

      00063  0400 00 0 00623         ADD     =V36/60*10    ..                                         SCDA0517
      00064  0602 00 0 00612         SLW     CHECKT        ..                                         SCDA0518
      00065  0520 00 0 74475         ZET     SWPSW         DO NOT CHARGE DURING SWAP HERE             SCDA0519
      00066  0020 00 0 00075         TRA     *+7           ..                                         SCDA0520
      00067  0074 00 4 00002         TSX     DELTIM,4      CHARGE PAYING USER FOR TIME                SCDA0521
      00070  3 00000 0 74620         PAR     PAYTIM        ..                                         SCDA0522
      00071  0602 00 0 00616         SLW     TMP           ..                                         SCDA0523
      00072  0074 00 4 00000         TSX     CHARGE,4      ..                                         SCDA0524
      00073  3 00000 0 74625         PAR     PAYUSR        ..                                         SCDA0525
      00074  3 00000 0 00616         PAR     TMP           ..                                         SCDA0526
      00075 -0774 00 1 00000         AXC     0,1           START WITH USER 0                          SCDA0527
      00076  0636 00 1 00614  KLP.0  SCA     K,1           SAVE USER NO.                              SCDA0528
      00077  0756 00 1 00000         PCA     ,1            IS THIS CURRENT USER                       SCDA0529
      00100  0402 00 0 74630         SUB     CURUSR        ..                                         SCDA0530
      00101  0100 00 0 00164         TZE     KLOOP         .. YES, SKIP                               SCDA0531
      00102  3 77775 1 00134         TXH     KLP.2,1,-3    IGNORE INACTIVE TIME FOR FIB, DAEMON       SCDA0532
      00103  0756 00 1 00000         PCA     ,1            .. ALSO FOR SYSMSG LINE                    SCDA0533
      00104  0402 00 0 74534         SUB     SYSMSG        ..                                         SCDA0534
      00105  0100 00 0 00134         TZE     KLP.2         ..                                         SCDA0535
      00106 -0500 00 1 77726         CAL     STATUS,1      CHECK STATUS                               SCDA0536
      00107  0402 00 0 74667         SUB     Q2            ..                                         SCDA0537
      00110  0100 00 0 00134         TZE     KLP.2         IGNORE INACTIVE IF USER WORKING            SCDA0538
      00111 -0500 00 0 00617         CAL     T             COMPUTE TIME SINCE USER                    SCDA0539
      00112  0402 00 1 77462         SUB     WATTIM,1      .. LAST BEGAN TO WAIT                      SCDA0540
      00113 -0520 00 1 76500         NZT     PROBN,1       IS THIS USER LOGGED IN                     SCDA0541
      00114  0020 00 0 00120         TRA     *+4           .. NO, CHECK INACTIVE LINE                 SCDA0542
      00115  0402 00 0 74606         SUB     INACTV        .. YES, CHECK INACTIVE USER                SCDA0543
      00116  0120 00 0 00127         TPL     KLP.1         USER INACTIVE TOO LONG, LOG HIM OUT        SCDA0544
      00117  0020 00 0 00134         TRA     KLP.2         OTHERWISE SKIP                             SCDA0545
      00120  0402 00 0 74605         SUB     HANGUP        HERE IF USER NOT LOGGED IN                 SCDA0546
      00121 -0120 00 0 00134         TMI     KLP.2         .. INACTIVE TIME NOT EXCEEDED              SCDA0547
      00122  0520 00 1 75065         ZET     ADOPT,1       INSURE THIS LINE NOT ADOPTED               SCDA0548
      00123  0020 00 0 00134         TRA     KLP.2         .. SKIP IF SO                              SCDA0549
      00124  0500 00 1 75646         CLA     UNITID,1      IGNORE IF NOT DIALED IN                    SCDA0550
      00125 -0120 00 0 00134         TMI     KLP.2         .. OR IN PROCESS OF DIALING                SCDA0551
      00126  0100 00 0 00134         TZE     KLP.2         ..                                         SCDA0552
      00127  0074 00 4 00012  KLP.1  TSX     NOTIM,4       HERE FOR INACTIVE USER                     SCDA0553
      00130  3 00000 0 00614         PAR     K             .. SET NOTIME SWITCH                       SCDA0554
      00131  3 00000 0 74666         PAR     Q3            .. NOTIME CODE 3, USER INACTIVE TOO LONG   SCDA0555
      00132 -0500 00 0 00617         CAL     T             SET NEW TIME USER BEGAN TO WAIT            SCDA0556
      00133  0602 00 1 77462         SLW     WATTIM,1      ..                                         SCDA0557
                                                                                                      SCDA0558
      00134 -0520 00 1 74672  KLP.2  NZT     PB,1          DOES THIS USER HAVE GUARANTEED PERCENTAGE  SCDA0559
      00135  0020 00 0 00164         TRA     KLOOP         .. NO, SKIP                                SCDA0560
      00136 -0500 00 0 74614         CAL     MINLVL        CHECK USER PRIORITY LEVEL                  SCDA0561
      00137  0402 00 1 77604         SUB     LEVEL,1       ..                                         SCDA0562
      00140  0120 00 0 00164         TPL     KLOOP         .. USER ALREADY AT HIGHEST PRIORITY        SCDA0563
      00141 -0500 00 1 77726         CAL     STATUS,1      INSURE USER RUNNABLE                       SCDA0564
      00142  0734 00 4 00000         PAX     ,4            ..                                         SCDA0565
      00143 -3 00001 4 00164         TXL     KLOOP,4,1     .. WORKING OR WAITING COMMAND              SCDA0566
      00144  3 00003 4 00164         TXH     KLOOP,4,3     ..                                         SCDA0567
      00145 -0500 00 0 74472         CAL     TOTTIM        COMPUTE TIME USER SHOULD HAVE RUN          SCDA0568
      00146  0402 00 1 77411         SUB     STRTIM,1      ..                                         SCDA0569
      00147 -0130 00 0 00000         XCL                   ..                                         SCDA0570
      00150  0200 00 1 74672         MPY     PB,1          ..                                         SCDA0571
      00151 -0600 00 0 00616         STQ     TMP           .. SAVE                                    SCDA0572
1        SCDA   ************* TIME SHARING SCHEDULING ALGORITHM *************    07/22/70 1321.5 PAGE 12

      00152  0560 00 1 77340         LDQ     WRKTIM,1      COMPUTE ACTUAL RUN TIME                    SCDA0573
      00153  0200 00 0 00622         MPY     =100          ..                                         SCDA0574
      00154 -0130 00 0 00000         XCL                   ..                                         SCDA0575
      00155  0402 00 0 00616         SUB     TMP           IS USER MEETING PERCENTAGE                 SCDA0576
      00156  0120 00 0 00164         TPL     KLOOP         .. YES, SKIP                               SCDA0577
      00157 -0500 00 1 77604         CAL     LEVEL,1       .. NO, INCREASE USER PRIORITY              SCDA0578
      00160  0402 00 0 74670         SUB     Q1            ..                                         SCDA0579
      00161  0602 00 1 77604         SLW     LEVEL,1       ..                                         SCDA0580
      00162  0074 00 4 00003         TSX     ENDQUE,4      .. PLACE USER IN QUEUES AT NEW LEVEL       SCDA0581
      00163  3 00000 0 00614         PAR     K             ..                                         SCDA0582
      00164  1 77777 1 00165  KLOOP  TXI     *+1,1,-1      BUMP USER NUMBER                           SCDA0583
      00165  3 77727 1 00076         TXH     KLP.0,1,-N-1  REPEAT FOR ALL USERS                       SCDA0584
                                                                                                      SCDA0585
      00166  0520 00 0 74616  EV1.1  ZET     SWAP          ARE WE WAITING FOR A SWAP                  SCDA0586
      00167  0020 00 0 00233         TRA     EV1.4         .. YES, SKIP                               SCDA0587
      00170  0535 00 1 74630         LAC     CURUSR,1      PICK UP USER NO. OF CURRENT USER           SCDA0588
      00171 -0500 00 1 77726         CAL     STATUS,1      INSURE USER IN RUNNABLE STATUS             SCDA0589
      00172  0734 00 4 00000         PAX     ,4            ..                                         SCDA0590
      00173 -3 00001 4 00233         TXL     EV1.4,4,1     ..                                         SCDA0591
      00174  3 00003 4 00233         TXH     EV1.4,4,3     ..                                         SCDA0592
      00175 -0500 00 0 74621         CAL     MAXTIM        HAS USER RUN HIS ALLOTMENT AT THIS LEVEL   SCDA0593
      00176  0402 00 0 00617         SUB     T             ..                                         SCDA0594
      00177  0120 00 0 00233         TPL     EV1.4         .. NOT YET, SKIP                           SCDA0595
      00200 -0520 00 1 74672         NZT     PB,1          DOES THIS USER HAVE PERCENTAGE             SCDA0596
      00201  0020 00 0 00214         TRA     EV1.2         .. NO, PROCESS NORMALLY                    SCDA0597
      00202 -0500 00 0 74472         CAL     TOTTIM        COMPUTE TIME USER SHOULD HAVE RUN          SCDA0598
      00203  0402 00 1 77411         SUB     STRTIM,1      ..                                         SCDA0599
      00204 -0130 00 0 00000         XCL                   ..                                         SCDA0600
      00205  0200 00 1 74672         MPY     PB,1          ..                                         SCDA0601
      00206 -0600 00 0 00616         STQ     TMP           ..                                         SCDA0602
      00207  0560 00 1 77340         LDQ     WRKTIM,1      COMPUTE ACTUAL RUN TIME                    SCDA0603
      00210  0200 00 0 00622         MPY     =100          .. SINCE USER ENTERED WORKING STATUS       SCDA0604
      00211 -0130 00 0 00000         XCL                   ..                                         SCDA0605
      00212  0402 00 0 00616         SUB     TMP           IS USER MEETING HIS PERCENTAGE             SCDA0606
      00213 -0120 00 0 00222         TMI     EV1.3         .. NO, REASSIGN THIS LEVEL                 SCDA0607
      00214 -0500 00 1 77604  EV1.2  CAL     LEVEL,1       REDUCE USER PRIORITY                       SCDA0608
      00215 -0340 00 0 74615         LAS     MAXLVL        .. BUT NOT BELOW MAXLVL                    SCDA0609
      00216  0020 00 0 00222         TRA     *+4           ..                                         SCDA0610
      00217  0020 00 0 00222         TRA     *+3           ..                                         SCDA0611
      00220  0400 00 0 74670         ADD     Q1            ..                                         SCDA0612
      00221  0602 00 1 77604         SLW     LEVEL,1       ..                                         SCDA0613
      00222  0074 00 4 00003  EV1.3  TSX     ENDQUE,4      PUT USER IN QUEUES AT NEW LEVEL            SCDA0614
      00223  3 00000 0 74630         PAR     CURUSR        ..                                         SCDA0615
      00224 -0500 00 0 00617         CAL     T             RESET TIME USER STARTED AT THIS LEVEL      SCDA0616
      00225  0602 00 0 74617         SLW     LEVTIM        ..                                         SCDA0617
      00226  0600 00 1 77533         STZ     TIMLEV,1      RESET TIME RUN AT THIS LEVEL               SCDA0618
      00227  0074 00 4 00555         TSX     TRUN,4        COMPUTE TIME TO RUN AT NEW LEVEL           SCDA0619
      00230  0761 00 1 77604         EFA     LEVEL,1       ..                                         SCDA0620
      00231  0400 00 0 00617         ADD     T             ..                                         SCDA0621
      00232  0602 00 0 74621         SLW     MAXTIM        ..                                         SCDA0622
      00233  0020 00 0 00503  EV1.4  TRA     DECIDE        SEE IF IT IS TIME TO RUN A NEW USER        SCDA0623
                                                                                                      SCDA0624
                                                                                                      SCDA0625
      00234 -0500 00 1 77726  EVNT2  CAL     STATUS,1      GET CURRENT USER STATUS                    SCDA0626
      00235  0734 00 2 00000         PAX     ,2            ..                                         SCDA0627
      00236  0535 00 4 00610         LAC     ARG,4         NEW STATE IS 'ARG'                         SCDA0628
1        SCDA   ************* TIME SHARING SCHEDULING ALGORITHM *************    07/22/70 1321.5 PAGE 13

      00237  0020 60 4 00240         TRA*    STAT,4        DISPATCH ON NEW STATE                      SCDA0629
                                                                                                      SCDA0630
      00240  0020 00 0 00251  STAT   TRA     STAT0         .. DEAD                                    SCDA0631
      00241  0020 00 0 00253         TRA     STAT1         .. DORMANT                                 SCDA0632
      00242  0020 00 0 00266         TRA     STAT2         .. WORKING                                 SCDA0633
      00243  0020 00 0 00311         TRA     STAT3         .. COMMAND WAIT                            SCDA0634
      00244  0020 00 0 00333         TRA     STAT4         .. INPUT WAIT                              SCDA0635
      00245  0020 00 0 00333         TRA     STAT5         .. OUTPUT WAIT                             SCDA0636
      00246  0020 00 0 00333         TRA     STAT6         .. FILE WAIT                               SCDA0637
      00247  0020 00 0 00333         TRA     STAT7         .. I/O QUEUE WAIT                          SCDA0638
      00250  0020 00 0 00333         TRA     STAT8         .. DOZING                                  SCDA0639
                                                                                                      SCDA0640
      00251  0600 00 1 77726  STAT0  STZ     STATUS,1      USER WENT DEAD, SET STATUS AND CONTINUE    SCDA0641
      00252  0600 00 1 77655         STZ     LENGTH,1      .. MEMORY SIZE IS 0 WHEN DEAD              SCDA0642
                                                                                                      SCDA0643
      00253  0074 00 4 00001  STAT1  TSX     DELQUE,4      USER WENT DORMANT (OR DEAD)                SCDA0644
      00254  3 00000 0 00621         PAR     USR           .. PULL HIM OUT OF QUEUES                  SCDA0645
      00255 -0500 00 0 74670         CAL     Q1            SET STATUS TO DORMANT                      SCDA0646
      00256  0520 00 1 77726         ZET     STATUS,1      .. IF NOT DEAD                             SCDA0647
      00257  0602 00 1 77726         SLW     STATUS,1      ..                                         SCDA0648
      00260  0074 00 4 00004         TSX     GETOTL,4      SET TIME USER BEGAN WAITING                SCDA0649
      00261  0602 00 1 77462         SLW     WATTIM,1      ..                                         SCDA0650
      00262  0756 00 1 00000         PCA     ,1            IS THIS CURRENT USER                       SCDA0651
      00263  0402 00 0 74630         SUB     CURUSR        ..                                         SCDA0652
      00264  0100 00 0 00503         TZE     DECIDE        .. YES, FIND A NEW USER TO RUN             SCDA0653
      00265  0020 00 0 00551         TRA     RETURN        .. NO, JUST EXIT                           SCDA0654
                                                                                                      SCDA0655
                                                                                                      SCDA0656
      00266 -3 00000 2 00551  STAT2  TXL     RETURN,2,0    USER RETURNING TO WORKING STATUS           SCDA0657
      00267 -3 00001 2 00271         TXL     *+2,2,1       .. FROM DORMANT OR I/O WAIT                SCDA0658
      00270 -3 00003 2 00551         TXL     RETURN,2,3    ..                                         SCDA0659
      00271  0600 00 1 77340         STZ     WRKTIM,1      RESET TIME USER HAS WORKED                 SCDA0660
      00272 -0500 00 0 74472         CAL     TOTTIM        .. AND TIME USER BEGAN TO WORK             SCDA0661
      00273  0602 00 1 77411         SLW     STRTIM,1      ..                                         SCDA0662
      00274 -3 00001 2 00302         TXL     ST2.1,2,1     IF USER NOT RETURNING FROM SLEEPING        SCDA0663
      00275 -3 00000 1 00302         TXL     ST2.1,1,0     AND USER NOT THE BACKGROUND SYSTEM         SCDA0664
      00276  0074 00 4 00562         TSX     LEVELF,4      .. COMPUTE NEW PRIORITY LEVEL              SCDA0665
      00277  0761 00 1 77655         EFA     LENGTH,1      .. BASED ON CORE SIZE                      SCDA0666
      00300  0602 00 1 77604         SLW     LEVEL,1       ..                                         SCDA0667
      00301  0600 00 1 77533         STZ     TIMLEV,1      .. RESET TIME RUN AT THIS LEVEL            SCDA0668
      00302  0074 00 4 00003  ST2.1  TSX     ENDQUE,4      PLACE USER IN QUEUES                       SCDA0669
      00303  3 00000 0 00621         PAR     USR           ..                                         SCDA0670
      00304  0074 00 4 00004         TSX     GETOTL,4      SET TIME USER BEGAN TO WAIT                SCDA0671
      00305  0602 00 1 77462         SLW     WATTIM,1      ..                                         SCDA0672
      00306 -0500 00 0 74667         CAL     Q2            USER STATUS = WORKING                      SCDA0673
      00307  0602 00 1 77726         SLW     STATUS,1      ..                                         SCDA0674
      00310  0020 00 0 00503         TRA     DECIDE        GO SEE IF IT IS TIME TO RUN NEW USER       SCDA0675
                                                                                                      SCDA0676
                                                                                                      SCDA0677
      00311  0074 00 4 00562  STAT3  TSX     LEVELF,4      USER WAITING FOR A COMMAND                 SCDA0678
      00312  0761 00 1 77655         EFA     LENGTH,1      .. COMPUTE LEVEL BASED ON CORE SIZE        SCDA0679
      00313 -3 00001 2 00321         TXL     ST3.1,2,1     IF USER ALREADY WORKING                    SCDA0680
      00314  3 00003 2 00321         TXH     ST3.1,2,3     .. OR WAITING FOR A COMMAND                SCDA0681
      00315 -0340 00 1 77604         LAS     LEVEL,1       .. USE NEW LEVEL ONLY IF LOWER PRIORITY    SCDA0682
      00316  0020 00 0 00321         TRA     COMAND        ..                                         SCDA0683
      00317  0020 00 0 00330         TRA     ST3.2         ..                                         SCDA0684
1        SCDA   ************* TIME SHARING SCHEDULING ALGORITHM *************    07/22/70 1321.5 PAGE 14

      00320  0020 00 0 00330         TRA     ST3.2         ..                                         SCDA0685
                       00321  ST3.1  SYN     *                                                        SCDA0686
      00321  0520 00 0 00621  COMAND ZET     USR           IF NOT THE BACKGROUND SYSTEM,              SCDA0687
      00322  0602 00 1 77604         SLW     LEVEL,1       SET NEW LEVEL                              SCDA0688
      00323  0074 00 4 00003         TSX     ENDQUE,4      PLACE USER IN QUEUES                       SCDA0689
      00324  3 00000 0 00621         PAR     USR           ..                                         SCDA0690
      00325  0600 00 1 77533         STZ     TIMLEV,1      RESET TIME RUN AT THIS LEVEL               SCDA0691
      00326  0074 00 4 00004         TSX     GETOTL,4      AND TIME USER BEGAN TO WAIT                SCDA0692
      00327  0602 00 1 77462         SLW     WATTIM,1      ..                                         SCDA0693
      00330 -0500 00 0 74666  ST3.2  CAL     Q3            SET USER IN WAITING COMMAND STATUS         SCDA0694
      00331  0602 00 1 77726         SLW     STATUS,1      ..                                         SCDA0695
      00332  0020 00 0 00503         TRA     DECIDE        GO FIND USER TO RUN NOW                    SCDA0696
                                                                                                      SCDA0697
                                                                                                      SCDA0698
                       00333  STAT4  SYN     *             USER ENTERED INPUT WAIT                    SCDA0699
                                                                                                      SCDA0700
                       00333  STAT5  SYN     *             USER ENTERED OUTPUT WAIT                   SCDA0701
                                                                                                      SCDA0702
                       00333  STAT6  SYN     *             USER ENTERED FILE WAIT                     SCDA0703
                                                                                                      SCDA0704
                       00333  STAT7  SYN     *             USER ENTERED QUEUE WAIT                    SCDA0705
                                                                                                      SCDA0706
                       00333  STAT8  SYN     *             USER ENTERED TIMER WAIT                    SCDA0707
                                                                                                      SCDA0708
      00333 -3 00001 2 00551         TXL     RETURN,2,1    USER ENTERING I/O WAIT                     SCDA0709
      00334  3 00002 2 00551         TXH     RETURN,2,2    .. FROM WORKING STATUS ONLY                SCDA0710
      00335  0074 00 4 00001         TSX     DELQUE,4      GRAB USER OUT OF QUEUES                    SCDA0711
      00336  3 00000 0 00621         PAR     USR           ..                                         SCDA0712
      00337 -0500 00 0 00610         CAL     ARG           SET USER STATUS TO 'ARG'                   SCDA0713
      00340  0602 00 1 77726         SLW     STATUS,1      ..                                         SCDA0714
      00341  0074 00 4 00004         TSX     GETOTL,4      RESET TIME USER BEGAN TO WAIT              SCDA0715
      00342  0602 00 1 77462         SLW     WATTIM,1      ..                                         SCDA0716
      00343  0020 00 0 00503         TRA     DECIDE        .. AND GO SEE WHO TO RUN NEXT              SCDA0717
                                                                                                      SCDA0718
                                                                                                      SCDA0719
      00344  0520 00 0 74475  EVNT3  ZET     SWPSW         DUMPING OF 'USR' IS BEGINNING              SCDA0720
      00345 -0520 00 0 00613         NZT     FIRST3        IF THIS IS FIRST CALL DURING SWAP          SCDA0721
      00346  0020 00 0 00551         TRA     RETURN        ..                                         SCDA0722
      00347  0600 00 0 00613         STZ     FIRST3        .. RESET FIRST CALL INDICATOR              SCDA0723
      00350  0074 00 4 00002         TSX     DELTIM,4      .. CLOSE OUT CHARGING FOR PREVIOUS USER    SCDA0724
      00351  3 00000 0 74620         PAR     PAYTIM        ..                                         SCDA0725
      00352  0602 00 0 00616         SLW     TMP           ..                                         SCDA0726
      00353  0074 00 4 00000         TSX     CHARGE,4      ..                                         SCDA0727
      00354  3 00000 0 74625         PAR     PAYUSR        ..                                         SCDA0728
      00355  3 00000 0 00616         PAR     TMP           ..                                         SCDA0729
      00356  0535 00 1 74627         LAC     OLDUSR,1      .. GET USER NUMBER OF OLD USER             SCDA0730
      00357  0074 00 4 00002         TSX     DELTIM,4      .. UPDATE HIS TIME RUN AT THIS LEVEL       SCDA0731
      00360  3 00000 0 74617         PAR     LEVTIM        ..                                         SCDA0732
      00361  0400 00 1 77533         ADD     TIMLEV,1      ..                                         SCDA0733
      00362  0602 00 1 77533         SLW     TIMLEV,1      ..                                         SCDA0734
      00363 -0500 00 0 74626         CAL     NEWUSR        .. MAKE NEWUSR PAY FOR SWAP                SCDA0735
      00364  0602 00 0 74625         SLW     PAYUSR        ..                                         SCDA0736
      00365  0020 00 0 00551         TRA     RETURN        .. RETURN                                  SCDA0737
                                                                                                      SCDA0738
                                                                                                      SCDA0739
      00366  0535 00 1 74627  EVNT4  LAC     OLDUSR,1      RESTORING OF NEWUSR IS BEGINNING           SCDA0740
1        SCDA   ************* TIME SHARING SCHEDULING ALGORITHM *************    07/22/70 1321.5 PAGE 15

      00367 -0500 00 1 77726         CAL     STATUS,1      IF USER STILL WORKING                      SCDA0741
      00370  0402 00 0 74667         SUB     Q2            ..                                         SCDA0742
      00371 -0100 00 0 00374         TNZ     *+3           ..                                         SCDA0743
      00372  0074 00 4 00004         TSX     GETOTL,4      .. UPDATE TIME USER BEGAN TO WAIT          SCDA0744
      00373  0602 00 1 77462         SLW     WATTIM,1      ..                                         SCDA0745
      00374 -0500 00 0 74626         CAL     NEWUSR        CURRENT USER IS NOW 'NEWUSR'               SCDA0746
      00375  0602 00 0 74630         SLW     CURUSR        ..                                         SCDA0747
      00376  0020 00 0 00551         TRA     RETURN        RETURN                                     SCDA0748
                                                                                                      SCDA0749
                                                                                                      SCDA0750
      00377  0074 00 4 00002  EVNT5  TSX     DELTIM,4      USER BEGINS RUNNING AFTER RESTORE          SCDA0751
      00400  3 00000 0 74620         PAR     PAYTIM        .. COMPUTE TIME TO CHARGE FOR SWAP         SCDA0752
      00401  0602 00 0 00615         SLW     TDEL          ..                                         SCDA0753
      00402  0402 00 0 00611         SUB     BGMAX         INSURE NOT CHARGING FOR TAPE HANG          SCDA0754
      00403 -0120 00 0 00414         TMI     EV5.1         ..                                         SCDA0755
      00404  0602 00 0 00616         SLW     TMP           .. CHARGE NEWUSR FOR NO MORE THAN 'BGMAX'  SCDA0756
      00405  0074 00 4 00000         TSX     CHARGE,4      ..                                         SCDA0757
      00406  3 00000 0 74625         PAR     PAYUSR        ..                                         SCDA0758
      00407  3 00000 0 00611         PAR     BGMAX         ..                                         SCDA0759
      00410  0074 00 4 00000         TSX     CHARGE,4      .. CHARGE OLDUSR FOR REST OF SWAP          SCDA0760
      00411  3 00000 0 74627         PAR     OLDUSR        ..                                         SCDA0761
      00412  3 00000 0 00616         PAR     TMP           ..                                         SCDA0762
      00413  0020 00 0 00417         TRA     EV5.2         .. SKIP                                    SCDA0763
      00414  0074 00 4 00000  EV5.1  TSX     CHARGE,4      NORMAL SWAP CHARGING, FOR PAYUSR           SCDA0764
      00415  3 00000 0 74625         PAR     PAYUSR        ..                                         SCDA0765
      00416  3 00000 0 00615         PAR     TDEL          ..                                         SCDA0766
      00417  0535 00 1 74626  EV5.2  LAC     NEWUSR,1      GET USER NUMBER                            SCDA0767
      00420 -0500 00 1 77726         CAL     STATUS,1      CHECK FOR WAITING COMMAND STATUS           SCDA0768
      00421  0402 00 0 74666         SUB     Q3            ..                                         SCDA0769
      00422 -0100 00 0 00430         TNZ     EV5.3         ..                                         SCDA0770
      00423 -0500 00 0 74667         CAL     Q2            .. YES, CHANGE STATUS TO WORKING           SCDA0771
      00424  0602 00 1 77726         SLW     STATUS,1      ..                                         SCDA0772
      00425  0600 00 1 77340         STZ     WRKTIM,1      .. RESET TIME USER WORKED                  SCDA0773
      00426 -0500 00 0 74472         CAL     TOTTIM        .. AND TIME USER ENTERED WORKING STATUS    SCDA0774
      00427  0602 00 1 77411         SLW     STRTIM,1      ..                                         SCDA0775
      00430  0074 00 4 00004  EV5.3  TSX     GETOTL,4      REINITIALIZE TIME CURUSR STARTED TO RUN    SCDA0776
      00431  0602 00 0 74622         SLW     BEGTIM        ..                                         SCDA0777
      00432  0602 00 0 74617         SLW     LEVTIM        .. AND TIME USER BEGAN TO RUN AT THIS LEVELSCDA0778
      00433 -0500 00 1 77655         CAL     LENGTH,1      COMPUTE TIME TO RUN AT THIS LEVEL          SCDA0779
      00434  0771 00 0 00012         ARS     10            .. LESS ESTIMATED TWO-WAY DRUM SWAP TIME   SCDA0780
      00435  0602 00 0 00616         SLW     TMP           ..                                         SCDA0781
      00436  0074 00 4 00555         TSX     TRUN,4        ..                                         SCDA0782
      00437  0761 00 1 77604         EFA     LEVEL,1       ..                                         SCDA0783
      00440  0400 00 0 74622         ADD     BEGTIM        ..                                         SCDA0784
      00441  0402 00 0 00616         SUB     TMP           ..                                         SCDA0785
      00442  0402 00 1 77533         SUB     TIMLEV,1      .. AND ANY TIME ALREADY RUN AT THIS LEVEL  SCDA0786
      00443  0602 00 0 74621         SLW     MAXTIM        ..                                         SCDA0787
      00444  0600 00 0 74616         STZ     SWAP          SWAP HAS BEEN COMPLETED                    SCDA0788
      00445 -0625 00 0 00613         STL     FIRST3        NEXT CALL TO DUMP IS FIRST                 SCDA0789
      00446  0020 00 0 00503         TRA     DECIDE        GO SEE WHO TO RUN                          SCDA0790
                                                                                                      SCDA0791
                                                                                                      SCDA0792
      00447  0602 00 1 77655  EVNT6  SLW     LENGTH,1      USER CHANGED SIZE, SET NEW VALUE           SCDA0793
      00450  0020 00 0 00551         TRA     RETURN        .. AND RETURN                              SCDA0794
                                                                                                      SCDA0795
                                                                                                      SCDA0796
1        SCDA   ************* TIME SHARING SCHEDULING ALGORITHM *************    07/22/70 1321.5 PAGE 16

      00451  0602 00 0 74445  EVNT7  SLW     BKGATT        OPERATOR SET BKGATTOUND KEYS               SCDA0797
      00452  0020 00 0 00503         TRA     DECIDE        .. DECIDE WHO TO RUN                       SCDA0798
                                                                                                      SCDA0799
                                                                                                      SCDA0800
      00453  0074 00 4 00010  EVNT8  TSX     INTIM,4       USER LOGGED IN, INFORM TIME ACC.           SCDA0801
      00454  3 00000 0 00621         PAR     USR           ..                                         SCDA0802
      00455  0020 00 0 00551         TRA     RETURN        .. RETURN                                  SCDA0803
                                                                                                      SCDA0804
                                                                                                      SCDA0805
      00456  0074 00 4 00013  EVNT9  TSX     OUTTIM,4      USER LOGGED OUT, TELL TIME ACC. ROUTINES   SCDA0806
      00457  3 00000 0 00621         PAR     USR           ..                                         SCDA0807
      00460  0020 00 0 00551         TRA     RETURN        .. AND RETURN                              SCDA0808
                                                                                                      SCDA0809
                                                                                                      SCDA0810
      00461  0535 00 1 74626  EVNT10 LAC     NEWUSR,1      MAIN CONTROL INQUIRING STATUS OF NEWUSR    SCDA0811
      00462 -0500 00 0 74626         CAL     NEWUSR        GET USER NUMBER OF NEW USER                SCDA0812
      00463  0402 00 0 74443         SUB     DUSER         IS THIS DUMMY USER (IDLE TIME)             SCDA0813
      00464  0100 00 0 00551         TZE     RETURN        DUMMY USER IS ALWAYS RUNNABLE              SCDA0814
      00465 -0500 00 1 77726         CAL     STATUS,1      IF NEWUSR WORKING OR WAITING COMMAND       SCDA0815
      00466  0734 00 2 00000         PAX     ,2            ..                                         SCDA0816
      00467 -3 00001 2 00471         TXL     *+2,2,1       ..                                         SCDA0817
      00470 -3 00003 2 00551         TXL     RETURN,2,3    .. HE IS STILL RUNNABLE                    SCDA0818
      00471  0600 00 0 74616         STZ     SWAP          OTHERWISE, BLAST SWAP SWITCH               SCDA0819
      00472  0020 00 0 00503         TRA     DECIDE        AND GO LOOK FOR SOMEONE ELSE TO RUN        SCDA0820
                                                                                                      SCDA0821
      00473  0074 00 4 00004  EVNT11 TSX     GETOTL,4      SET TIME USER BEGAN TO WAIT                SCDA0822
      00474  0602 00 1 77462         SLW     WATTIM,1      ..                                         SCDA0823
      00475  0020 00 0 00551         TRA     RETURN        RETURN                                     SCDA0824
                                                                                                      SCDA0825
                                                                                                      SCDA0826
      00476 -0500 00 0 74660  EVNT12 CAL     Q9            RESET PRIORITY LEVEL TO LOWEST PRIORITY    SCDA0827
      00477  0602 00 1 77604         SLW     LEVEL,1       ..                                         SCDA0828
      00500  0020 00 0 00551         TRA     RETURN        .. RETURN                                  SCDA0829
                                                                                                      SCDA0830
                                                                                                      SCDA0831
      00501 -0500 00 0 74602  EVNT13 CAL     QLEN          CTSS BEING BROUGHT DOWN                    SCDA0832
      00502  0020 00 0 00551         TRA     RETURN        RETURN NO. OF USERS IN QUEUES              SCDA0833
                                                                                                      SCDA0834
                                                                                                      SCDA0835
                       00503  DECIDE SYN     *             HERE TO DECIDE IF TIME TO RUN NEW USER     SCDA0836
      00503  0520 00 0 74616         ZET     SWAP          NO DECISION WHILE WAITING FOR SWAP         SCDA0837
      00504  0020 00 0 00551         TRA     RETURN        ..                                         SCDA0838
                                                                                                      SCDA0839
      00505  0535 00 1 74630         LAC     CURUSR,1      GET USER NUMBER OF CURRENT USER            SCDA0840
      00506 -0500 00 1 77726         CAL     STATUS,1      IF CURUSR WORKING AND NON-INTERRUPTIBLE,   SCDA0841
      00507  0402 00 0 74667         SUB     Q2            .. USER CANNOT BE SWAPPED                  SCDA0842
      00510 -0100 00 0 00514         TNZ     DCD.1         ..                                         SCDA0843
      00511                          ZETBIT  USROPT,1,NINTBT ..                                       SCDA0844
      00513  0020 00 0 00551         TRA     RETURN        .. RETURN                                  SCDA0845
                                                                                                      SCDA0846
      00514  0074 00 4 00005  DCD.1  TSX     HEDUSR,4      FIND HEAD-OF-QUEUES USER                   SCDA0847
      00515  0520 00 0 74445         ZET     BKGATT        IF BACKGROUND NEEDS ATTENTION,             SCDA0848
      00516 -0754 00 0 00000         ZAC                   .. MAKE BACKGROUND RUN (USER 0)            SCDA0849
      00517  0602 00 0 00620         SLW     U             .. SAVE USER NUMBER                        SCDA0850
      00520  0402 00 0 74630         SUB     CURUSR        IF HEAD-OF-QUEUES USER IS CURUSR,          SCDA0851
      00521 -0100 00 0 00526         TNZ     DCD.2         ..                                         SCDA0852
1        SCDA   ************* TIME SHARING SCHEDULING ALGORITHM *************    07/22/70 1321.5 PAGE 17

      00522 -0500 00 1 77726         CAL     STATUS,1      SET SWAP SWITCH ONLY FOR WAITING COMMAND   SCDA0853
      00523  0402 00 0 74666         SUB     Q3            ..                                         SCDA0854
      00524  0100 00 0 00544         TZE     DCD.3         .. SKIP TO SET SWITCH IF STATUS = 3        SCDA0855
      00525  0020 00 0 00551         TRA     RETURN        ..                                         SCDA0856
      00526  0520 00 0 74445  DCD.2  ZET     BKGATT        HERE IF DIFFERENT USER                     SCDA0857
      00527  0020 00 0 00544         TRA     DCD.3         FORCE SWAP IF BACKGROUND NEEDS ATTENTION   SCDA0858
      00530 -0500 00 1 77726         CAL     STATUS,1      NO, CHECK IF CURUSR RUNNABLE               SCDA0859
      00531  0734 00 2 00000         PAX     ,2            ..                                         SCDA0860
      00532 -3 00001 2 00544         TXL     DCD.3,2,1     IF USER NOT RUNNABLE, RUN NEW USER         SCDA0861
      00533  3 00003 2 00544         TXH     DCD.3,2,3     ..                                         SCDA0862
      00534  0535 00 1 00620         LAC     U,1           PICK UP USER NO. OF HEAD-OF-QUEUES USER    SCDA0863
      00535  0074 00 4 00555         TSX     TRUN,4        COMPUTE RUN TIME FOR USER                  SCDA0864
      00536  0761 00 1 77604         EFA     LEVEL,1       .. AT HIS CURRENT LEVEL                    SCDA0865
      00537  0602 00 0 00616         SLW     TMP           ..                                         SCDA0866
      00540  0074 00 4 00004         TSX     GETOTL,4      SEE IF NEW USER MAY PREEMPT CURUSR         SCDA0867
      00541  0402 00 0 74622         SUB     BEGTIM        ..                                         SCDA0868
      00542  0402 00 0 00616         SUB     TMP           ..                                         SCDA0869
      00543 -0120 00 0 00551         TMI     RETURN        YES IF CURUSR HAS RUN AS LONG AS 'U' WILL  SCDA0870
      00544 -0625 00 0 74616  DCD.3  STL     SWAP          REQUEST SUPERVISOR TO SWAP USERS           SCDA0871
      00545 -0500 00 0 00620         CAL     U             NEW USER TO RUN IS USER 'U'                SCDA0872
      00546  0602 00 0 74626         SLW     NEWUSR        ..                                         SCDA0873
      00547 -0500 00 0 74630         CAL     CURUSR        OLD USER DURING SWAP IS CURUSR             SCDA0874
      00550  0602 00 0 74627         SLW     OLDUSR        ..                                         SCDA0875
                                                                                                      SCDA0876
      00551                   RETURN RETURN  (1,4),SCD(X1,X2,X4)  RESTORE LINKAGE AND RETURN          SCDA0877
1        SCDA   ************* TIME SHARING SCHEDULING ALGORITHM *************    07/22/70 1321.5 PAGE 18

                                                                                                      SCDA0879
      00555 -0500 60 4 00001  TRUN   CAL*    1,4           COMPUTE RUN TIME FOR USER                  SCDA0880
      00556  0737 00 7 00000         PAC     ,7            .. AT SPECIFIED LEVEL                      SCDA0881
      00557 -0500 00 0 74560         CAL     QUANTM        ..                                         SCDA0882
      00560  0767 00 7 00000         ALS     0,7           .. = QUANTM * (2 .P. LEV)                  SCDA0883
      00561  0020 00 4 00002         TRA     2,4           ..                                         SCDA0884
                                                                                                      SCDA0885
                                                                                                      SCDA0886
      00562 -0500 60 4 00001  LEVELF CAL*    1,4           COMPUTE PRIORITY LEVEL BASED ON LENGTH     SCDA0887
      00563  0402 00 0 74611         SUB     FULLEN        ..                                         SCDA0888
      00564 -0120 00 0 00567         TMI     LVF.1         SKIP FOR LENGTH .L. FULLEN                 SCDA0889
      00565 -0500 00 0 74613         CAL     FULLVL        FULL CORE USER ASSIGNED LEVEL 'FULLVL'     SCDA0890
      00566  0020 00 0 00607         TRA     LVF.2         ..                                         SCDA0891
      00567 -0500 00 0 74613  LVF.1  CAL     FULLVL        INTERMEDIATE SIZE USER, COMPUTE LEVEL      SCDA0892
      00570  0402 00 0 74612         SUB     EMPLVL        .. BETWEEN EMPLVL AND FULLVL               SCDA0893
      00571  0737 00 7 00000         PAC     ,7            ..                                         SCDA0894
      00572 -0500 00 0 74611         CAL     FULLEN        ..                                         SCDA0895
      00573  0771 00 7 00000         ARS     0,7           ..                                         SCDA0896
      00574  0602 00 0 00616         SLW     TMP           ..                                         SCDA0897
      00575  0560 60 4 00001         LDQ*    1,4           ..                                         SCDA0898
      00576 -0754 00 0 00000         ZAC                   ..                                         SCDA0899
      00577  0221 00 0 00616         DVP     TMP           ..                                         SCDA0900
      00600 -0130 00 0 00000         XCL                   ..                                         SCDA0901
      00601  0774 00 7 00000         AXT     0,7           ..                                         SCDA0902
      00602  0771 00 0 00001         ARS     1             ..                                         SCDA0903
      00603  0100 00 0 00605         TZE     *+2           ..                                         SCDA0904
      00604  1 00001 7 00602         TXI     *-2,7,1       ..                                         SCDA0905
      00605  0754 00 7 00000         PXA     ,7            ..                                         SCDA0906
      00606  0400 00 0 74612         ADD     EMPLVL        ..                                         SCDA0907
      00607  0020 00 4 00002  LVF.2  TRA     2,4           RETURN                                     SCDA0908
                                                                                                      SCDA0909
                                                                                                      SCDA0910
      00610  0 00000 0 00000  ARG    PZE                                                              SCDA0911
      00611  0 00000 0 00170  BGMAX  PZE     120                                                      SCDA0912
      00612  0 00000 0 00000  CHECKT PZE                                                              SCDA0913
      00613  0 00000 0 00613  FIRST3 PZE     *                                                        SCDA0914
      00614  0 00000 0 00000  K      PZE                                                              SCDA0915
      00615  0 00000 0 00000  TDEL   PZE                                                              SCDA0916
      00616  0 00000 0 00000  TMP    PZE                                                              SCDA0917
      00617  0 00000 0 00000  T      PZE                                                              SCDA0918
      00620  0 00000 0 00000  U      PZE                                                              SCDA0919
      00621  0 00000 0 00000  USR    PZE                                                              SCDA0920
                                                                                                      SCDA0921
      00622                          RMT     *                                                        SCDA0922
                                     END                                                              SCDA0924

        LITERALS
      00622  000000000144
      00623  000000001130
1        SCDA   ************* TIME SHARING SCHEDULING ALGORITHM *************    07/22/70 1321.5 PAGE 1
                        POST PROCESSOR ASSEMBLY DATA

       72127 IS THE LAST LOCATION NOT USED BY THIS PROGRAM
        624 IS THE FIRST LOCATION NOT USED BY THIS PROGRAM

0REFERENCES TO DEFINED SYMBOLS
        614      K    76,  130,  163
         50      N   165
        617      T    57,   62,  111,  132,  176,  224,  231
        620      U   517,  534,  545
      74672     PB   134,  150,  200,  205
      74671     Q0    14
      74670     Q1   160,  220,  255
      74667     Q2   107,  306,  370,  423,  507
      74666     Q3   131,  330,  421,  523
      74660     Q9   476
        610    ARG    26,  236,  337
        616    TMP    71,   74,  151,  155,  206,  212,  352,  355,  404,  412,  435,  441,  537,  542,  574,  577
        621    USR    23,  254,  303,  321,  324,  336,  454,  457
         30   EVNT    27
      74602   QLEN   501
        240   STAT   237
      74616   SWAP   166,  444,  471,  503,  544
        615   TDEL   401,  416
        555   TRUN   227,  436,  535
      75065  ADOPT   122
        611  BGMAX   402,  407
        514  DCD.1   510
        526  DCD.2   521
        544  DCD.3   524,  527,  532,  533
      74443  DUSER   463
        166  EV1.1    61
        214  EV1.2   201
        222  EV1.3   213
        233  EV1.4   167,  173,  174,  177
        414  EV5.1   403
        417  EV5.2   413
        430  EV5.3   422
         46  EVNT0    30
         55  EVNT1    31
        234  EVNT2    32
        344  EVNT3    33
        366  EVNT4    34
        377  EVNT5    35
        447  EVNT6    36
        451  EVNT7    37
        453  EVNT8    40
        456  EVNT9    41
          7  INITQ    46
         10  INTIM   453
        164  KLOOP   101,  135,  140,  143,  144,  156
         76  KLP.0   165
        127  KLP.1   116
        134  KLP.2   102,  105,  110,  117,  121,  123,  125,  126
      77604  LEVEL   137,  157,  161,  214,  221,  230,  300,  315,  322,  437,  477,  536
        567  LVF.1   564
1        SCDA   ************* TIME SHARING SCHEDULING ALGORITHM *************    07/22/70 1321.5 PAGE 2
                        POST PROCESSOR ASSEMBLY DATA

        607  LVF.2   566
         12  NOTIM   127
      76500  PROBN   113
        551  SCDX1    15
        552  SCDX2    16
        553  SCDX4    17
        302  ST2.1   274,  275
        321  ST3.1   313,  314,  321
        330  ST3.2   317,  320
        251  STAT0   240
        253  STAT1   241
        266  STAT2   242
        311  STAT3   243
        333  STAT4   244,  333
        333  STAT5   245,  333
        333  STAT6   246,  333
        333  STAT7   247,  333
        333  STAT8   250,  333
      74475  SWPSW    65,  344
      74622 BEGTIM   431,  440,  541
      74445 BKGATT   451,  515,  526
          0 CHARGE    72,  353,  405,  410,  414
        612 CHECKT    60,   64
        321 COMAND   316
      74630 CURUSR   100,  170,  223,  263,  375,  505,  520,  547
      74500 DATEYR    52
        503 DECIDE   233,  264,  310,  332,  343,  446,  452,  472,  503
          1 DELQUE   253,  335
          2 DELTIM    67,  350,  357,  377
      74612 EMPLVL   570,  606
          3 ENDQUE   162,  222,  302,  323
        461 EVNT10    42
        473 EVNT11    43
        476 EVNT12    44
        501 EVNT13    45
        613 FIRST3   345,  347,  445
      74611 FULLEN   563,  572
      74613 FULLVL   565,  567
          4 GETOTL    56,  260,  304,  326,  341,  372,  430,  473,  540
      74605 HANGUP   120
          5 HEDUSR   514
      74606 INACTV   115
          6 INITIM    47
      77655 LENGTH   252,  277,  312,  433,  447
        562 LEVELF   276,  311
      74617 LEVTIM   225,  360,  432
      74615 MAXLVL   215
      74621 MAXTIM   175,  232,  443
      74614 MINLVL   136
         11 MONSCD    55
      74626 NEWUSR   363,  374,  417,  461,  462,  546
        400 NINTBT   512
      74627 OLDUSR   356,  366,  411,  550
         13 OUTTIM   456
      74620 PAYTIM    70,  351,  400
1        SCDA   ************* TIME SHARING SCHEDULING ALGORITHM *************    07/22/70 1321.5 PAGE 3
                        POST PROCESSOR ASSEMBLY DATA

      74625 PAYUSR    73,  354,  364,  406,  415
      74560 QUANTM   557
        551 RETURN    54,  265,  266,  270,  333,  334,  346,  365,  376,  450,  455,  460,  464,  470,  475,  500,  502
                     504,  513,  525,  543
         14 SCHEDL     0
      77726 STATUS   106,  141,  171,  234,  251,  256,  257,  307,  331,  340,  367,  420,  424,  465,  506,  522,  530
      77411 STRTIM   146,  203,  273,  427
      74623 SYSDAT    53
      74534 SYSMSG   104
      74624 SYSTIM    51
      77533 TIMLEV   226,  301,  325,  361,  362,  442
      74476 TIMNOW    50
      74472 TOTTIM   145,  202,  272,  426
      75646 UNITID   124
      75770 USROPT   511
      77462 WATTIM   112,  133,  261,  305,  327,  342,  373,  474
      77340 WRKTIM   152,  207,  271,  425

0 NO ERROR IN ABOVE ASSEMBLY.


SCDB8A   BCD 03/04/70 1439.3    1907         00000
