


COM800   BCD 05/26/71 1718.4   19590         00000
1            ..... MACRO, EQUIVALENCE AND COMMON INSERTS FOR CTSS .....          04/06/71 1958.8 PAGE 1

                                                                                                      COM80002
                                     INSERT  MACRO                                                    COM80003
                                                                                                      MACR0001
                                             .... CTSS MACRO INSERT ....                              MACR0002
                                                                                                      MACR0003
                                                                                                      MACR0005
                                             SUBROUTINE CALL MACRO ....                               MACR0006
                                                                                                      MACR0007
                              CALL   MACRON  NAME,LIST     SUBROUTINE CALL MACRO                      MACR0008
                                     PMC     OFF                                                      MACR0009
                                     MTSX    NAME,,        MAY BE (SUBR,TAG)                          MACR0010
                                     IRP     LIST          ..                                         MACR0011
                                     CALL1   LIST,,,       ARGUMENT MAY BE (A,T,D)                    MACR0012
                                     IRP                   ..                                         MACR0013
                              CALL   END                   ..                                         MACR0014
                                                                                                      MACR0015
                              CALL1  MACRO   A,T,D         FIRST LEVEL ARGUMENT DECODER               MACR0016
                                     IFF     0,...,T       TAG OF '...' IS FOR BLK                    MACR0017
                                     CALL2   A,T,D,        NO '...', GO TO NEXT LEVEL                 MACR0018
                                     IFF     1,...,T       '...' SPECIFIED                            MACR0019
                                     BLK     A,,D          .. USE MAD BLOCK NOTATION                  MACR0020
                              CALL1  END                   ..                                         MACR0021
                                                                                                      MACR0022
                              CALL2  MACRO   A,T,D         HERE IF NOT BLK ARGUMENT                   MACR0023
                                     IFF     0,,T          IF TAG SPECIFIED, GO ON                    MACR0024
                                     CALL3   A,T,D,        ..                                         MACR0025
                                     IFF     1,,T          ELSE, USE 'PAR' (PTH)                      MACR0026
                                     CALL4   A,D,          GO SEE ABOUT DECREMENT FIELD               MACR0027
                              CALL2  END                   ..                                         MACR0028
                                                                                                      MACR0029
                              CALL3  MACRO   A,T,D         NOT PAR, DECODE FOR EFA, STR               MACR0030
                                     IFF     0,,D          IF ADDRESS, TAG, DECREMENT ALL GIVEN,      MACR0031
                                     STR     A,T,D         USE STR PREFIX                             MACR0032
                                     IFF     1,,D          NO DECREMENT GIVEN, USE EFA                MACR0033
                                     EFA     A,T           ..                                         MACR0034
                              CALL3  END                   ..                                         MACR0035
                                                                                                      MACR0036
                              CALL4  MACRO   A,D           DECODE ARGUMENTS FOR 'PAR'                 MACR0037
                                     IFF     0,,D          IF DECREMENT SPECIFIED,                    MACR0038
                                     PAR     A,,D          ASSEMBLE IT                                MACR0039
                                     IFF     1,,D          IF NO DECREMENT,                           MACR0040
                                     PAR     A             ASSEMBLE ADDRESS ONLY                      MACR0041
                              CALL4  END                   ..                                         MACR0042
                                                                                                      MACR0043
                              MTSX   MACRO   NAME,TAG      GENERATE TSX WITH DEFAULT TAG OF 4         MACR0044
                                     IFF     0,,TAG        IF TAG SPECIFIED,                          MACR0045
                                     TSX     NAME,TAG      ASSEMBLE WITH TAG GIVEN                    MACR0046
                                     IFF     1,,TAG        .. NO TAG SPECIFIED, USE TAG OF 4          MACR0047
                                     TSX     NAME,4        FOR STANDARD SUBROUTINE CALL               MACR0048
                              MTSX   END                   ..                                         MACR0049
                                                                                                      MACR0050
                                                                                                      MACR0051
                                             SAVE, RESTORE MACROS ....                                MACR0052
                                                                                                      MACR0053
                              SAVE   MACRO   ID,LIST       SAVE BASIC MACHINE CONDITIONS              MACR0054
                                     PMC     OFF           .. NO PRINTING                             MACR0055
1            ..... MACRO, EQUIVALENCE AND COMMON INSERTS FOR CTSS .....          04/06/71 1958.8 PAGE 2

                                     IRP     LIST          .. E.G. 'AC', 'X1'                         MACR0056
                                     SAV1    (ID),LIST,,   CONTEXT FREE MACROS                        MACR0057
                                     IRP                   ..                                         MACR0058
                              SAVE   END                   ..                                         MACR0059
                                                                                                      MACR0060
                              RESTOR MACRON  ID,LIST,FLG   RESTORE MACRO FOR BASIC MACH. COND.        MACR0061
                                     PMC     OFF           ..                                         MACR0062
                                     IRP     LIST          USED IN SAME MANNER AS SAVE                MACR0063
                                     IFF     1,*,FLG       IF '*' SPECIFIED,                          MACR0064
                                     RST1    (ID),0,LIST,, ASSEMBLES 'AXT' FOR 'X1' ... 'X7'          MACR0065
                                     IFF     0,*,FLG       IF NO '*' SPECIFIED,                       MACR0066
                                     RST1    (ID),,LIST,,  ASSEMBLES 'LXA' FOR 'X1'...'X7'            MACR0067
                                     IRP                   ..                                         MACR0068
                              RESTOR END                   ..                                         MACR0069
                                                                                                      MACR0070
                              RETURN MACRO   LOC,ID,LIST   RESTORE WITH OPTIONAL RETURN               MACR0071
                                     PMC     OFF           .. DON'T PRINT EXPANSION                   MACR0072
                                     IRP     LIST          .. ASSEMBLES 'AXT' FOR X1 ... X7,          MACR0073
                                     RST1    (ID),0,LIST,, .. DEFINING DESIRED SYMBOL                 MACR0074
                                     IRP                   ..                                         MACR0075
                                     IFF     0,,LOC        IF RETURN LOCATION GIVEN,                  MACR0076
                                     TRA     LOC           USE AS TRANSFER ADDRESS (E.G. (1,4) )      MACR0077
                              RETURN END                   ..                                         MACR0078
                                                                                                      MACR0079
                              SAV1   MACRO   ID,REG,LOC    MACRO TO PRODUCE CODE TO SAVE ITEM         MACR0080
                                     IFF     1,,LOC        IF LOCATION NOT SPECIFIED,                 MACR0081
                                     SV'REG  ID'REG        USE NAME OF ITEM WITH PREFIX               MACR0082
                                     IFF     0,,LOC        IF LOCATION SPECIFIED,                     MACR0083
                                     SV'REG  LOC           USE SPECIFIED LOCATION                     MACR0084
                              SAV1   END                   ..                                         MACR0085
                                                                                                      MACR0086
                              RST1   MACRO   ID,FLAG,REG,LOC MACRO TO RESTORE ITEM                    MACR0087
                                     IFF     1,,LOC        IF LOCATION NOT SPECIFIED                  MACR0088
                                     LD'REG  ID'REG,FLAG,  USE REGISTER NAME AND PREFIX               MACR0089
                                     IFF     0,,LOC        IF SPECIFIED,                              MACR0090
                                     LD'REG  LOC,FLAG,     USE IT                                     MACR0091
                              RST1   END                   ..                                         MACR0092
                                                                                                      MACR0093
                              DFNX   MACRO   N             MACRO TO DEFINE SVX1 ... SVX7              MACR0094
                                     IRP     N             AS MANY AS DESIRED..                       MACR0095
                                     SVXN    SVX'N,N       THIS BECAUSE OF FAP MACRO COMPILER..       MACR0096
                                     LDXN    LDX'N,N       .. WHICH WON'T CONCATENATE LOCATION FIELD  MACR0097
                                     IRP                   ..                                         MACR0098
                              DFNX   END                   ..                                         MACR0099
                                                                                                      MACR0100
                              SVXN   MACRO   NAME,N        MACRO TO DEFINE SINGLE SVX(N) OPERATION    MACR0101
                              NAME   MACRO   LOC           DEFINE MACRO                               MACR0102
                                     SXA     LOC,N         .. AS SXA  LOC,TAG                         MACR0103
                              NAME   END                   ..                                         MACR0104
                              SVXN   END                   ..                                         MACR0105
                                                                                                      MACR0106
                              LDXN   MACRO   NAME,N        DEFINE LOAD INDEX MACROS                   MACR0107
                              NAME   MACRO   LOC,FLG       ..                                         MACR0108
                                     IFF     1,,FLG        IF SECOND SUBFIELD OMITTED,                MACR0109
                                     LXA     LOC,N         ASSEMBLE LXA  LOC,TAG                      MACR0110
                                     IFF     0,,FLG        IF NOT OMITTED, (USED BY RETURN)           MACR0111
1            ..... MACRO, EQUIVALENCE AND COMMON INSERTS FOR CTSS .....          04/06/71 1958.8 PAGE 3

                              LOC    AXT     -,N           ASSEMBLE AXT  **,TAG                       MACR0112
                              NAME   END                   ..                                         MACR0113
                              LDXN   END                   ..                                         MACR0114
                                                                                                      MACR0115
             0602 71 1 60000  SVAC   OPSYN   SLW           OPERATIONS FOR SAVE/RESTOR .. AC           MACR0116
            -0500 71 1 60000  LDAC   OPSYN   CAL           ..                                         MACR0117
            -0600 71 1 60000  SVMQ   OPSYN   STQ           .. MQ                                      MACR0118
             0560 71 1 60000  LDMQ   OPSYN   LDQ           ..                                         MACR0119
             0604 71 1 20000  SVSI   OPSYN   STI           .. SI                                      MACR0120
             0441 71 1 20000  LDSI   OPSYN   LDI           ..                                         MACR0121
      00000                          DFNX    (1,2,3,4,5,6,7) .. X1 TO X7                              MACR0122
                                                                                                      MACR0123
                                                                                                      MACR0124
                              TYPE   MACRO   MESG,LOC,N    TYPE COMMENT TO USER                       MACR0125
                                     TSX     WRFLX,4       ..                                         MACR0126
                                     MZE     LOC,,N        .. IN SIX-BIT MODE                         MACR0127
                                     RMT                                                              MACR0128
                                     PMC     ON                                                       MACR0129
                              LOC    BCI     MESG                                                     MACR0130
                                     PMC     OFF                                                      MACR0131
                              N      EQU     *-LOC                                                    MACR0132
                                     RMT                                                              MACR0133
                              TYPE   END                                                              MACR0134
                                                                                                      MACR0135
                              TYPEA  MACRO   MESG,LOC,N    TYPE COMMENT WITHOUT CR                    MACR0136
                                     TSX     WRFLXA,4      ..                                         MACR0137
                                     MZE     LOC,,N        .. FORCE SIX-BIT MODE                      MACR0138
                                     RMT                                                              MACR0139
                                     PMC     ON                                                       MACR0140
                              LOC    BCI     MESG                                                     MACR0141
                                     PMC     OFF                                                      MACR0142
                              N      EQU     *-LOC                                                    MACR0143
                                     RMT                                                              MACR0144
                              TYPEA  END                                                              MACR0145
                                                                                                      MACR0146
                              TYPEF  MACRO   MESG,LOC,N    TYPE COMMENT IN FULL MODE                  MACR0147
                                     TSX     WRFLX,4       ..                                         MACR0148
                                     MON     LOC,,N        .. FORCE 12-BIT MODE                       MACR0149
                                     RMT                                                              MACR0150
                                     PMC     ON                                                       MACR0151
                              LOC    12BIT   MESG                                                     MACR0152
                                     PMC     OFF                                                      MACR0153
                              N      EQU     *-LOC                                                    MACR0154
                                     RMT                                                              MACR0155
                              TYPEF  END                                                              MACR0156
                                                                                                      MACR0157
                                                                                                      MACR0158
                                             WHENEVER MACRO ....                                      MACR0159
                                                                                                      MACR0160
                              WHEN   MACRO   A,TF,LOC,OP,VAR .. 'A' IS EXPR., 'TF' IS T OR F          MACR0161
                                     PMC     OFF           .. NO NEED TO PRINT JUNK                   MACR0162
                                     IFF     1,T,TF        SEE IF CONDITION 'TRUE'                    MACR0163
                                     GENIF   (A),0,0,(LOC),(OP),(VAR) ..                              MACR0164
                                     IFF     1,F,TF        SEE IF CONDITION 'FALSE'                   MACR0165
                                     GENIF   (A),0,1,(LOC),(OP),(VAR) ..                              MACR0166
                              WHEN   END                   ..                                         MACR0167
1            ..... MACRO, EQUIVALENCE AND COMMON INSERTS FOR CTSS .....          04/06/71 1958.8 PAGE 4

                                                                                                      MACR0168
                              GENIF  MACRO   IF1,IF2,IF3,LOC,OP,VAR                                   MACR0169
                                     IFF     IF1,IF2,IF3   SEE IF CONDITION MET                       MACR0170
                              LOC    OP      VAR           YES, ASSEMBLE OPERATION                    MACR0171
                              GENIF  END                   ..                                         MACR0172
                                                                                                      MACR0173
                                                                                                      MACR0174
                                             OVERLAY MACRO ....                                       MACR0175
                                                                                                      MACR0176
                              OVLBGN MACRO                 TO OVERLAY UNNECESSARY CODE                MACR0177
                                     PMC     OFF           ..                                         MACR0178
                                     UNLIST                ..                                         MACR0179
                              OVLORG SET     *             SET ORIGIN FOR OVLEND                      MACR0180
                              OVLBGN END                   ..                                         MACR0181
                                                                                                      MACR0182
                              OVLEND MACRO                 USED AT END OF SECTION TO BE OVERLAID      MACR0183
                                     ORG     OVLORG        RE-ORIGIN TO PREVIOUS OVLBGN               MACR0184
                                     LIST                  .. AND LIST ASSEMBLY                       MACR0185
                              OVLEND END                   ..                                         MACR0186
                                                                                                      MACR0187
                                                                                                      MACR0188
                                             BIT MANIPULATION MACROS ....                             MACR0189
                                                                                                      MACR0190
                              DEFINE MACRO   OPN           DEFINE ALL COMBINATIONS OF MACROS          MACR0191
                                     IRP     OPN           (STL, STZ, NZT, ZET)                       MACR0192
                                     DFIN1   OPN,OPN'BIT,OPN'BT,OPN'BT1,OPN'BT2                       MACR0193
                                     IRP                   ..                                         MACR0194
                              DEFINE END                   ..                                         MACR0195
                                                                                                      MACR0196
                              DFIN1  MACRO   XXX,XXXBIT,XXXBT,XXXBT1,XXXBT2                           MACR0197
                              XXXBIT MACRON  LOC,T,B1,B2   LOADS SENSE INDICATORS FROM 'LOC,T'        MACR0198
                                     LDISW   LOC,T,        .. GET WORD INTO SI                        MACR0199
                                     XXX'BT  B1,B2,        OPERATE ON BITS                            MACR0200
                                     IFF     1,STL,XXX     IN CASE OF STLBIT, STZBIT                  MACR0201
                                     STISW   LOC,T,        STORE NEW VALUE                            MACR0202
                                     IFF     1,STZ,XXX     ..                                         MACR0203
                                     STISW   LOC,T,        ..                                         MACR0204
                              XXXBIT END                   ..                                         MACR0205
                              XXXBT  MACRON  B1,B2         EXAMINE OR MODIFY BINARY SWITCHES IN SI    MACR0206
                                     IFF     0,,B1         SEE IF ANY LEFT HALF BITS INVOLVED         MACR0207
                                     XXX'BT1 B1,B2,        .. IF SO, GO CHECK FOR RIGHT HALF          MACR0208
                                     IFF     1,,B1         NO LEFT HALF BITS USED,                    MACR0209
                                     XXX'R   B2            .. TEST OR MODIFY RIGHT HALF BITS          MACR0210
                              XXXBT  END                   ..                                         MACR0211
                              XXXBT1 MACRO   B1,B2         TEST WHETHER FULL WORD OR LEFT HALF        MACR0212
                                     IFF     0,,B2         SEE IF ANY RIGHT HALF BITS USED            MACR0213
                                     XXX'F   =VO18/B1,O18/B2                                          MACR0214
                                     IFF     1,,B2         IF NO RIGHT HALF BITS INVOLVED,            MACR0215
                                     XXX'L   B1            .. SET UP LEFT HALF OPERATION              MACR0216
                              XXXBT1 END                   ..                                         MACR0217
                              DFIN1  END                   ..                                         MACR0218
                                                                                                      MACR0219
      00000                          DEFINE  (STL,STZ,NZT,ZET) DEFINE ALL MACROS                      MACR0220
                                                                                                      MACR0221
             0055 11  120001  STLR   OPSYN   SIR           OPERATION CODES FOR BIT MACROS             MACR0222
            -0055 11  120001  STLL   OPSYN   SIL           ..                                         MACR0223
1            ..... MACRO, EQUIVALENCE AND COMMON INSERTS FOR CTSS .....          04/06/71 1958.8 PAGE 5

             0442 71 1 20000  STLF   OPSYN   OSI           ..                                         MACR0224
             0057 11  120001  STZR   OPSYN   RIR           ..                                         MACR0225
            -0057 11  120001  STZL   OPSYN   RIL           ..                                         MACR0226
             0445 71 1 20000  STZF   OPSYN   RIS           ..                                         MACR0227
             0056 11  120001  NZTR   OPSYN   RNT           ..                                         MACR0228
            -0056 11  120001  NZTL   OPSYN   LNT           ..                                         MACR0229
             0446 71 1 20000  NZTF   OPSYN   ONT           ..                                         MACR0230
             0054 11  120001  ZETR   OPSYN   RFT           ..                                         MACR0231
            -0054 11  120001  ZETL   OPSYN   LFT           ..                                         MACR0232
             0444 71 1 20000  ZETF   OPSYN   OFT           ..                                         MACR0233
                                                                                                      MACR0235
1            ..... MACRO, EQUIVALENCE AND COMMON INSERTS FOR CTSS .....          04/06/71 1958.8 PAGE 6

                                                                                                      COM80005
                                     INSERT  EQU                                                      COM80006
                                                                                                      EQU00002
                                             ... CTSS EQUIVALENCE PACKAGE ...                         EQU00003
                                                                                                      EQU00004
                       00050  N      EQU     40            NO. OF CONSOLES THAT MAY BE CONNECTED      EQU00005
                       00001  A      EQU     1             FLAG FOR MEMORY UNIT A                     EQU00006
                       00002  B      EQU     2             FLAG FOR MEMORY UNIT B                     EQU00007
                       00004  P      EQU     4             FLAG FOR PROTECTED TRANSMISSION            EQU00008
                       00003  QUITL  EQU     3             MAX. USER BREAK LEVEL                      EQU00009
                       00024  LCBUF  EQU     20            LENGTH OF USER COMMAND BUFFER              EQU00010
                       00012  MAXLV  EQU     10            MAX. NO. OF LEVELS IN SCHEDULING QUEUES    EQU00011
                       00005  CDEPTH EQU     5             MAX. NO. OF SUB-COMMANDS                   EQU00012
                       00024  CLNGTH EQU     LCBUF         MAX. LENGTH OF SINGLE SUB-COMMAND          EQU00013
                       00660  NWDSPT EQU     432           NO. OF WORDS PER DISK RECORD               EQU00014
                       00000  BASE   EQU     0             STARTING LOCATION FOR ALL CTSS USERS       EQU00015
                       00016  WDSLIN EQU     14            NO. OF WORDS PER FULL TYPED LINE           EQU00016
                       00043  GROUPS EQU     35            MAX. NO. OF PARTY GROUPS                   EQU00017
                       00024  TSSMAX EQU     20            2*NUMBER OF SLOTS FOR TSSFIL'S             EQU00018
                       00012  ACTFIL EQU     10            MAX. NO. OF ACTIVE FILES FOR USER          EQU00019
                       00032  AFSCON EQU     26            ACTIVE FILE STATUS TABLE LENGTH CONSTANT   EQU00020
                       00026  AFSENL EQU     22            ACTIVE FILE STATUS TABLE LENGTH PER FILE   EQU00021
                       00060  AFS1LN EQU     AFSCON+1*AFSENL FILE STATUS TABLE FOR CTSS               EQU00022
                       00366  AFS2LN EQU     AFSCON+ACTFIL*AFSENL FILE STATUS TABLE FOR USER          EQU00023
                       00045  Q1U1LN EQU     1+9*4         LENGTH OF QUEUE FOR DISK/DRUM FOR CTSS     EQU00024
                       00100  Q1U2LN EQU     1+9*7         LENGTH OF QUEUE FOR DISK/DRUM FOR USER     EQU00025
                       00000  Q3U1LN EQU     0             LENGTH OF QUEUE FOR TAPE FOR CTSS          EQU00026
                       00051  Q3U2LN EQU     1+8*5         LENGTH OF QUEUE FOR TAPE FOR USER          EQU00027
                       00010  FSBENL EQU     8             FILE SAVE BLOCK ENTRY LENGTH PER FILE      EQU00028
                       00120  FSBLKL EQU     FSBENL*ACTFIL FILE STATUS BLOCK LENGTH FOR USAVE         EQU00029
                      077461  OLDTOP BOOL    77461         NORMAL END OF COMMON PACKAGE               EQU00030
                      077777  NEWTOP BOOL    77777         DESIRED END OF COMMON PACKAGE              EQU00031
                       77462  COMRLC EQU     OLDTOP-NEWTOP COMMON RELOCATION                          EQU00032
                                                                                                      EQU00033
                                             BLOCK EQUIVALENCES FOR QLOAD VARIABLES                   EQU00034
                                                                                                      EQU00035
                       00000  Q.CUR  EQU     0             CURRENT VALUE OF PARAMETER                 EQU00036
                       00001  Q.MAX  EQU     1             MAXIMUM VALUE                              EQU00037
                       00002  Q.MIN  EQU     2             MINIMUM VALUE (PLATEAU FOR MXUSRS)         EQU00038
                       00003  Q.UPDT EQU     3             TIME INCREMENT BEFORE INCREASING           EQU00039
                       00004  Q.DNDT EQU     4             TIME INCREMENT BEFORE DECREASING           EQU00040
                       00005  Q.UPTM EQU     5             TOTTIM TO INCREASE PARAMETER               EQU00041
                       00006  Q.DNTM EQU     6             TOTTIM TO DECREASE IT                      EQU00042
                       00007  Q.UPVR EQU     7             AMOUNT TO INCREMENT PARAMETER              EQU00043
                       00010  Q.DNVR EQU     8             AMOUNT TO DECREMENT PARAMETER              EQU00044
                       00011  Q.TBL  EQU     9             SIZE OF STANDARD PARAMATER BLOCK           EQU00045
                                                                                                      EQU00046
                                             BIT EQUIVALENCES FOR USER STATUS SWITCHES IN THE         EQU00047
                                             ARRAY 'USWICH'. THESE ARE ALTERABLE AT TRAP TIME.        EQU00048
                                                                                                      EQU00049
                                             .. RIGHT HALF EQUIVALENCES                               EQU00050
                                                                                                      EQU00051
                      000001  NOTIME BOOL    1             1 IF USER OUT OF TIME                      EQU00052
                      000002  HUNGBT BOOL    2             1 IF USER DATA PHONE HUNG UP               EQU00053
                      000004  MESGBT BOOL    4             1 IF OPERATOR MESSAGE TO BE SENT           EQU00054
                      000010  USRBIT BOOL    10            1 IF USER HAS BEEN INITIALIZED AT DIALUP   EQU00055
1            ..... MACRO, EQUIVALENCE AND COMMON INSERTS FOR CTSS .....          04/06/71 1958.8 PAGE 7

                      000020  INPBIT BOOL    20            1 IF USER INPUT BUFFERS FULL               EQU00056
                                                                                                      EQU00057
                      700000  NTIMCD BOOL    700000        THREE BIT NOTIME CODE (0-7)                EQU00058
                                                           .. 0 = UNSPECIFIED                         EQU00059
                                                           .. 1 = SYSTEM COMEDOWN                     EQU00060
                                                           .. 2 = ALLOTTED TIME EXCEEDED              EQU00061
                                                           .. 3 = INACTIVE TIME EXCEEDED              EQU00062
                                                           .. 4 = FIB ESTTIM EXCEEDED                 EQU00063
                                                           .. 5 = USER HUNG UP PHONE                  EQU00064
                                                           .. 6 = QLOAD KILL                          EQU00065
                                                           .. 7 = OTHER (LOGIN, ETC.)                 EQU00066
                                                                                                      EQU00067
                                             .. LEFT HALF EQUIVALENCES                                EQU00068
                                                                                                      EQU00069
                      000100  UCOMBT BOOL    100           1 IF CURRENT COMMAND INITIATED BY USER     EQU00070
                      000200  UCHNBT BOOL    200           1 IF USER COMMAND SET VIA CHNCOM           EQU00071
                      000400  UCMLBT BOOL    400           1 IF USER TYPED COMMAND LINE               EQU00072
                      001000  UCBFBT BOOL    1000          1 IF COMMAND BUFFER SET UP                 EQU00073
                      002000  INTBIT BOOL    2000          1 IF USER HIT INTERRUPT                    EQU00074
                      010000  LOGTBT BOOL    10000         1 IF USER WAITING FOR LOGOUT               EQU00075
                                                                                                      EQU00076
                                             BIT EQUIVALENCES FOR USER OPTION BITS FOUND IN           EQU00077
                                             'USROPT'. THESE MUST NEVER BE SET AT TRAP TIME           EQU00078
                                                                                                      EQU00079
                                             .. RIGHT HALF EQUIVALENCES                               EQU00080
                                                                                                      EQU00081
                      000001  UFLBIT BOOL    1             1 IF TO LOAD COMMAND FROM USER UFD FIRST   EQU00082
                      000002  UFLBT  BOOL    2             1 IF TO LOAD FROM OTHER UFD IF NOT FOUND   EQU00083
                      000004  RSTFBT BOOL    4             1 IF FILES TO BE RESET ON DISK COMMAND     EQU00084
                      000010  ENBBIT BOOL    10            1 IF USER SUBSYSTEM ENABLED                EQU00085
                      000020  INHBIT BOOL    20            1 IF SUBSYSTEM INHIBITED FOR END OF COMMANDEQU00086
                      000040  SYSBIT BOOL    40            1 IF CURRENT USER PROGRAM IS SUBSYSTEM     EQU00087
                      000100  SAVEBT BOOL    100           1 IF SUBSYSTEM SAVE ENABLED                EQU00088
                      000200  DIALBT BOOL    200           1 IF USER 'DIALABLE'                       EQU00089
                                                                                                      EQU00090
                                             .. LEFT HALF EQUIVALENCES                                EQU00091
                                                                                                      EQU00092
                      000100  CLKBIT BOOL    100           1 IF USER SIMULATED INTERVAL TIMER ON      EQU00093
                      000200  NQTBIT BOOL    200           1 IF USER MAY NOT 'QUIT' CURRENT COMMAND   EQU00094
                      000400  NINTBT BOOL    400           1 IF USER NOT TO BE INTERRUPTED            EQU00095
                      001000  NKILBT BOOL    1000          1 IF USER IMMUNE TO AUTO-LOGOUT            EQU00096
                      002000  XEQBIT BOOL    2000          1 IF CURRENT USER PROGRAM EXECUTE-ONLY     EQU00097
                                                                                                      EQU00098
                                             BIT DEFINITIONS FOR TYPEWRITER MODE SWITCHES.            EQU00099
                                             THESE ARE COMMON TO BOTH USWICH AND USROPT               EQU00100
                                                                                                      EQU00101
                      000001  FULBIT BOOL    1             1 IF USER IN 12-BIT MODE                   EQU00102
                      000002  NCVBIT BOOL    2             1 IF USER IN NO-CONVERT MODE               EQU00103
                      000004  NBKBIT BOOL    4             1 IF USER IN NO-BREAK MODE                 EQU00104
                      000010  GPHBIT BOOL    10            1 IF USER IN GRAPHIC INPUT MODE            EQU00105
                                                                                                      EQU00106
                      000077  TPWRSW BOOL    77            MASK FOR TYPEWRITER SWITCHES               EQU00107
                                                                                                      EQU00108
                                             BIT EQUIVALENCES FOR SUBSYSTEM STATUS SWITCHES           EQU00109
                                                                                                      EQU00110
                      000001  SB.CMD BOOL    1             1 IF SUBSYSTEM ENABLED FOR NEW COMMAND     EQU00111
1            ..... MACRO, EQUIVALENCE AND COMMON INSERTS FOR CTSS .....          04/06/71 1958.8 PAGE 8

                      000002  SB.TSX BOOL    2             1 IF SUBSYSTEM ENABLED FOR DEAD/DORMNT CALLEQU00112
                      000004  SB.CHN BOOL    4             1 IF SUBSYSTEM ENABLED FOR END OF CHAIN    EQU00113
                      000010  SB.ERR BOOL    10            1 IF SUBSYSTEM ENABLED FOR ERROR           EQU00114
                                                                                                      EQU00115
                                             BIT EQUIVALENCES FOR COMMAND TYPE SPECIFICATION          EQU00116
                                             WITHIN THE COMMAND PROCESSOR                             EQU00117
                                                                                                      EQU00118
                      000001  .ATR   BOOL    1             1 IF COMMAND IS A-CORE TRANSFER            EQU00119
                      000002  .DSK   BOOL    2             1 IF CORE IMAGE TO BE LOADED FROM DISK     EQU00120
                      000004  .SYS   BOOL    4             1 IF COMMAND MAY BE LOADED FROM SYSTEM ONLYEQU00121
                      000010  .CPY   BOOL    10            1 IF COMMAND BUFFER TO BE COPIED           EQU00122
                      000020  .MEM   BOOL    20            1 IF USER CORE IMAGE REQUIRED              EQU00123
                      000040  .USR   BOOL    40            1 IF COMMAND MAY BE ISSUED BY USER         EQU00124
                      000100  .LGN   BOOL    100           1 IF COMMAND USABLE WHEN LOGGED IN         EQU00125
                      000200  .LGT   BOOL    200           1 IF COMMAND USABLE WHEN LOGGED OUT        EQU00126
                      000400  .LOG   BOOL    400           1 IF COMMAND IS LOGOUT, OTOLOG, ETC.       EQU00127
                      001000  .UFL   BOOL    1000          1 IF COMMAND TO BE LOADED FROM USER UFD    EQU00128
                      002000  .SAV   BOOL    2000          1 IF USER CORE IMAGE TO BE PRESERVED       EQU00129
                      004000  .CLC   BOOL    4000          1 IF USER COMMAND COUNTER PRESERVED        EQU00130
                      010000  .SUB   BOOL    10000         1 IF COMMAND IMMUNE TO SUBSYS TRAP         EQU00131
                                                                                                      EQU00132
                                             BIT EQUIVALENCES FOR USER DUMP AND RESTORE OPTIONS       EQU00133
                                                                                                      EQU00134
                      000001  D.DSK  BOOL    1             ACTIVE FILE STATUS                         EQU00135
                      000002  D.OPT  BOOL    2             USER OPTIONS                               EQU00136
                      000004  D.DIR  BOOL    4             DIRECTORY SWITCHING                        EQU00137
                      000010  D.TSF  BOOL    10            TSSFIL SWITCHING                           EQU00138
                      000020  D.COM  BOOL    20            COMMAND BUFFERS                            EQU00139
                      000040  D.SAV  BOOL    40            MACH. COND., CORE IMAGE                    EQU00140
                                                                                                      EQU00141
                      000001  L.DSK  BOOL    1             ACTIVE FILE STATUS                         EQU00142
                      000002  L.OPT  BOOL    2             USER OPTIONS                               EQU00143
                      000004  L.DIR  BOOL    4             DIRECTORY SWITCHING                        EQU00144
                      000010  L.TSF  BOOL    10            TSSFIL SWITCHING                           EQU00145
                      000020  L.COM  BOOL    20            COMMAND BUFFERS                            EQU00146
                      000040  L.CPU  BOOL    40            MACHINE CONDITIONS                         EQU00147
                      000100  L.MEM  BOOL    100           CORE IMAGE                                 EQU00148
                                                                                                      EQU00149
                                             BIT EQUIVALENCES FOR USER RESTRICTION CODE IN            EQU00150
                                             'RCODE' ARRAY AND 'URCODE'                               EQU00151
                                                                                                      EQU00152
                                             .. RIGHT HALF EQUIVALENCES                               EQU00153
                                                                                                      EQU00154
                      000001  RCOMBT BOOL    1             1 IF USER MAY USE COMMON FILES             EQU00155
                      000002  RCALBT BOOL    2             1 IF USER MAY MAKE PRIVILEGED FILE CALLS   EQU00156
                      000004  RPROBT BOOL    4             1 IF USER MAY MODIFY 'P' FILE OF OTHER USEREQU00157
                      000010  RPRVBT BOOL    10            1 IF USER MAY READ 'V' FILE OF OTHER USER  EQU00158
                      000020  RPATBT BOOL    20            1 IF USER MAY PATCH THE SUPERVISOR         EQU00159
                      000040  RKLDBT BOOL    40            1 IF USER MAY USE THE ESL DISPLAY (KLUDGE) EQU00160
                      000100  R636BT BOOL    100           1 IF USER MAY USE THE 636 TAPE CALLS       EQU00161
                      000200  RDSKBT BOOL    200           1 IF USER MAY NOT USE DISK LOADED COMMANDS EQU00162
                      000400  RTSSBT BOOL    400           1 IF USER MAY NOT ALTER FILE DIRECTORY     EQU00163
                      001000  RSYSBT BOOL    1000          1 IF USER MAY ALTER SUBSYSTEM STATUS       EQU00164
                      002000  ROPRBT BOOL    2000          1 IF USER MAY USE OPERATOR FUNCTIONS       EQU00165
                                                                                                      EQU00166
                                             .. LEFT HALF EQUIVALENCES                                EQU00167
1            ..... MACRO, EQUIVALENCE AND COMMON INSERTS FOR CTSS .....          04/06/71 1958.8 PAGE 9

                                                                                                      EQU00168
                      000001  UBACBT BOOL    1             USER IS BACKGROUND SYSTEM                  EQU00169
                      000002  UFORBT BOOL    2             USER IS FOREGROUND                         EQU00170
                      000004  UFIBBT BOOL    4             USER IS FIB                                EQU00171
                      000010  UDEMBT BOOL    10            USER IS INCREMENTAL DUMPER (DAEMON)        EQU00172
                      000020  UPRCBT BOOL    20            USER IS PRIVILEGED COMMAND                 EQU00173
                                                                                                      EQU00174
                      001000  NBACBT BOOL    1000          USER IS NOT BACKGROUND SYSTEM              EQU00175
                      002000  NFORBT BOOL    2000          USER IS NOT FOREGROUND                     EQU00176
                      004000  NFIBBT BOOL    4000          USER IS NOT FIB                            EQU00177
                      010000  NDEMBT BOOL    10000         USER IS NOT INCREMENTAL DUMPER             EQU00178
                      020000  NPRCBT BOOL    20000         USER IS NOT PRIVILEGED COMMAND             EQU00179
                                                                                                      EQU00180
                                                                                                      EQU00181
                                                                                                      EQU00182
                                                                                                      EQU00184
                              COMNAM MACRO   NAME          TO GENERATE CTSS MODULE NAMES              EQU00185
                                     BCI     1,NAME'8A     .. MACRO MUST BE CORRECTED EVERY TIME      EQU00186
                              COMNAM END                   .. CTSS IS REASSEMBLED...                  EQU00187
                                                                                                      EQU00188
                              CTSSID MACRO                 CTSS FILE DIRECTORY NAME                   EQU00189
                                     BCI     2, M1416CMFL02                                           EQU00190
                              CTSSID END                                                              EQU00191
                                                                                                      EQU00192
                              TSSFID MACRO                 SYSTEM TSSFIL NAME                         EQU00193
                                     BCI     2, M1416CMFL04                                           EQU00194
                              TSSFID END                                                              EQU00195
                                                                                                      EQU00196
                              SCHEDL MACRO   EVENT,USER,ARG CALL SCHEDULING ALGORITHM                 EQU00197
                                     TSX     SCHEDL,4      ..                                         EQU00198
                                     PAR     EVENT         ..                                         EQU00199
                                     PAR     USER          ..                                         EQU00200
                                     PAR     ARG           ..                                         EQU00201
                              SCHEDL END                                                              EQU00202
                                                                                                      EQU00203
                              SETAB  MACRO   A,B,C         SET CORE SWITCHES IN FILE SYSTEM           EQU00204
                                     TSX     SETAB,4       ..                                         EQU00205
                                     IFF     1,*,A         ..                                         EQU00206
                                     PAR     M0            ..                                         EQU00207
                                     IFF     0,*,A         ..                                         EQU00208
                                     PAR     A             ..                                         EQU00209
                                     IFF     1,*,B         ..                                         EQU00210
                                     PAR     M0            ..                                         EQU00211
                                     IFF     0,*,B         ..                                         EQU00212
                                     PAR     B             ..                                         EQU00213
                                     IFF     1,*,C         ..                                         EQU00214
                                     PAR     M0            ..                                         EQU00215
                                     IFF     0,*,C         ..                                         EQU00216
                                     PAR     C             ..                                         EQU00217
                              SETAB  END                                                              EQU00218
                                                                                                      EQU00219
                              TYPEX  MACRO   NAME,LOC,N,USERNO,OPTION,MODE                            EQU00220
                                     TSX     NAME,4        ..                                         EQU00221
                                     IFF     MODE,,,       ..                                         EQU00222
                                     MZE     LOC,,N        ..                                         EQU00223
                                     IFF     MODE,0,,      ..                                         EQU00224
1            ..... MACRO, EQUIVALENCE AND COMMON INSERTS FOR CTSS .....          04/06/71 1958.8 PAGE 10

                                     PZE     LOC,,N        ..                                         EQU00225
                                     PZE     USERNO,,OPTION                                           EQU00226
                              TYPEX  END                                                              EQU00227
                                                                                                      EQU00228
                              TYPE   MACRO   MESG,LOC,N    TYPE COMMENT TO CURRENT USER               EQU00229
                                     TYPEX   WRFLX,LOC,N,USER,.F.,0                                   EQU00230
                                     RMT                                                              EQU00231
                                     PMC     ON                                                       EQU00232
                              LOC    BCI     MESG                                                     EQU00233
                                     PMC     OFF                                                      EQU00234
                              N      EQU     *-LOC                                                    EQU00235
                                     RMT                                                              EQU00236
                              TYPE   END                                                              EQU00237
                                                                                                      EQU00238
                              TYPEA  MACRO   MESG,LOC,N    TYPE COMMENT TO USER W/O C.R.              EQU00239
                                     TYPEX   WRFLXA,LOC,N,USER,.F.,0                                  EQU00240
                                     RMT                                                              EQU00241
                                     PMC     ON                                                       EQU00242
                              LOC    BCI     MESG                                                     EQU00243
                                     PMC     OFF                                                      EQU00244
                              N      EQU     *-LOC                                                    EQU00245
                                     RMT                                                              EQU00246
                              TYPEA  END                                                              EQU00247
                                                                                                      EQU00248
                              TYPEF  MACRO   MESG,LOC,N    TYPE COMMENT IN FULL MODE                  EQU00249
                                     TYPEX   WRFLX,LOC,N,USER,.F.,1                                   EQU00250
                                     RMT                                                              EQU00251
                                     PMC     ON                                                       EQU00252
                              LOC    12BIT   MESG                                                     EQU00253
                                     PMC     OFF                                                      EQU00254
                              N      EQU     *-LOC                                                    EQU00255
                                     RMT                                                              EQU00256
                              TYPEF  END                                                              EQU00257
                                                                                                      EQU00258
                              WRTYPE MACRO   L,LOC,N,USERNO,MODE TYPE LINE ON USER CONSOLE            EQU00259
                                     TSX     $.WRFX'L,4    ..                                         EQU00260
                                     IFF     MODE,,,       ..                                         EQU00261
                                     MZE     LOC,,N        ..                                         EQU00262
                                     IFF     MODE,0,,      ..                                         EQU00263
                                     PZE     LOC,,N        ..                                         EQU00264
                                     PZE     USERNO        ..                                         EQU00265
                                     TRA     *+1           .. NULL FULL RETURN                        EQU00266
                              WRTYPE END                                                              EQU00267
                                                                                                      EQU00268
                              WTYPE  MACRO   USERNO,MESG,LOC,N TYPE COMMENT TO FOREGROUND USER        EQU00269
                                     WRTYPE  ,LOC,N,USERNO,0                                          EQU00270
                                     RMT                                                              EQU00271
                                     PMC     ON                                                       EQU00272
                              LOC    BCI     MESG                                                     EQU00273
                                     PMC     OFF                                                      EQU00274
                              N      EQU     *-LOC                                                    EQU00275
                                     RMT                                                              EQU00276
                              WTYPE  END                                                              EQU00277
                                                                                                      EQU00278
                              WTYPEA MACRO   USERNO,MESG,LOC,N TYPE COMMENT W/O C.R.                  EQU00279
                                     WRTYPE  A,LOC,N,USERNO,0                                         EQU00280
1            ..... MACRO, EQUIVALENCE AND COMMON INSERTS FOR CTSS .....          04/06/71 1958.8 PAGE 11

                                     RMT                                                              EQU00281
                                     PMC     ON                                                       EQU00282
                              LOC    BCI     MESG                                                     EQU00283
                                     PMC     OFF                                                      EQU00284
                              N      EQU     *-LOC                                                    EQU00285
                                     RMT                                                              EQU00286
                              WTYPEA END                                                              EQU00287
                                                                                                      EQU00288
                              WTYPEF MACRO   USERNO,MESG,LOC,N TYPE COMMENT IN FULL MODE              EQU00289
                                     WRTYPE  ,LOC,N,USERNO,1                                          EQU00290
                                     RMT                                                              EQU00291
                                     PMC     ON                                                       EQU00292
                              LOC    12BIT   MESG                                                     EQU00293
                                     PMC     OFF                                                      EQU00294
                              N      EQU     *-LOC                                                    EQU00295
                                     RMT                                                              EQU00296
                              WTYPEF END                                                              EQU00297
                                                                                                      EQU00298
                       00000  .I.    EQU     0             CODE FOR IGNORE OPTION IN TYPEX            EQU00299
                       00001  .F.    EQU     1             CODE FOR FORCE OPTION IN TYPEX             EQU00300
                                                                                                      EQU00301
                              TEMPS  MACRO   SYMBOL        GENERATE TEPORARY STORAGE                  EQU00302
                                     IRP     SYMBOL        ..                                         EQU00303
                              SYMBOL PZE     0             ..                                         EQU00304
                                     IRP                   ..                                         EQU00305
                              TEMPS  END                                                              EQU00306
                                                                                                      EQU00307
                              LDISW  MACRO   LOC,T         LOAD USER SWITCHES                         EQU00308
                                     IFF     1,,LOC        ..                                         EQU00309
                                     LDI     USWICH,T      ..                                         EQU00310
                                     IFF     0,,LOC        ..                                         EQU00311
                                     LDI     LOC,T         ..                                         EQU00312
                              LDISW  END                                                              EQU00313
                                                                                                      EQU00314
                              STISW  MACRO   LOC,T         STORE USER SWITCHES                        EQU00315
                                     IFF     1,,LOC        ..                                         EQU00316
                                     STI     USWICH,T      ..                                         EQU00317
                                     IFF     0,,LOC        ..                                         EQU00318
                                     STI     LOC,T         ..                                         EQU00319
                              STISW  END                                                              EQU00320
                                                                                                      EQU00321
                                                                                                      EQU00323
1            ..... MACRO, EQUIVALENCE AND COMMON INSERTS FOR CTSS .....          04/06/71 1958.8 PAGE 12

                                                                                                      COM80008
                                     INSERT  COMMON                                                   COM80009
                                                                                                      COMM0002
                                             .... CTSS COMMON STORAGE ....                            COMM0003
                                                                                                      COMM0004
                       77777         COMMON  COMRLC        RELOCATE COMMON TO TOP OF CORE             COMM0005
                                                                                                      COMM0006
                       77777  ENBWD  COMMON  1             COMMON TRAP ENABLE WORD                    COMM0007
                                                                                                      COMM0008
                                             TABLES SET BY SCHEDL.                                    COMM0009
                                                                                                      COMM0010
                       77726  STATUS COMBSS  N+1           CURRENT USER STATUS (0-6)                  COMM0011
                       77655  LENGTH COMBSS  N+1           LENGTH OF USER PROGRAM                     COMM0012
                       77604  LEVEL  COMBSS  N+1           USER PRIORITY LEVEL (0...MAXLVL)           COMM0013
                       77533  TIMLEV COMBSS  N+1           ELAPSED TIME RUN AT CURRENT LEVEL          COMM0014
                       77462  WATTIM COMBSS  N+1           TIME USER BEGAN WAITING, -1= NOT WAITING   COMM0015
                       77411  STRTIM COMBSS  N+1           TIME USER ENTERED WORKING STATUS           COMM0016
                       77340  WRKTIM COMBSS  N+1           TIME USER HAS RUN SINCE STRTIM             COMM0017
                       77254  QLIST  COMBSS  N+1+MAXLV+1   QUEUE POSITION LIST OF WORKING USERS       COMM0018
                                                                                                      COMM0019
                                             TABLES SET BY INITILIZATION PROGRAM                      COMM0020
                                                                                                      COMM0021
                       77210  GRPTBL COMBSS  GROUPS+1      PARTY GROUP TABLE                          COMM0022
                                                                                                      COMM0023
                                             TABLES SET BY LOGIN, UPDATED BY TIME ACC.                COMM0024
                                                                                                      COMM0025
                       77137  TAU1   COMBSS  N+1           USER TIME ALLOTTED BY SHIFT                COMM0026
                       77066  TAU2   COMBSS  N+1           ..                                         COMM0027
                       77015  TAU3   COMBSS  N+1           ..                                         COMM0028
                       76744  TAU4   COMBSS  N+1           .. WEEKEND                                 COMM0029
                       76673  TAU5   COMBSS  N+1           FIB TIME                                   COMM0030
                       76622  UTIME  COMBSS  N+1           TIME USER HAS USED SINCE LOGIN             COMM0031
                                                                                                      COMM0032
                                             TABLES SET BY LOGIN                                      COMM0033
                                                                                                      COMM0034
                       76551  ITIME  COMBSS  N+1           TIME USER LOGGED IN                        COMM0035
                       76500  PROBN  COMBSS  N+1           USER PROBLEM NO.                           COMM0036
                       76427  PROGN  COMBSS  N+1           USER PROGRAMMER NO.                        COMM0037
                       76356  UNAME  COMBSS  N+1           USER NAME                                  COMM0038
                       76305  UFDNM  COMBSS  N+1           USER HOME FILE DIRECTORY                   COMM0039
                       76234  SUBNAM COMBSS  N+1           USER SUBSYSTEM NAME                        COMM0040
                       76163  SUBSWS COMBSS  N+1           USER SUBSYSTEM STATUS BITS                 COMM0041
                       76112  GRPNO. COMBSS  N+1           USER GROUP NUMBER                          COMM0042
                       76041  RCODE  COMBSS  N+1           USER RESTRICTION CODE                      COMM0043
                       75770  USROPT COMBSS  N+1           USER OPTIONS                               COMM0044
                                                                                                      COMM0045
                                             OTHER USER TABLES                                        COMM0046
                                                                                                      COMM0047
                       75717         COMBSS  N+1           SPARE USER ARRAY.....                      COMM0048
                       75646  UNITID COMBSS  N+1           USER CONSOLE IDENT. CODE                   COMM0049
                       75575  COMMND COMBSS  N+1           NAME OF USER COMMAND                       COMM0050
                       75524  USWICH COMBSS  N+1           USER BINARY SWITCHES                       COMM0051
                       75453  UARRAY COMBSS  N+1           USER-SETTABLE ARRAY                        COMM0052
                       75402  IOD    COMBSS  N+1           TOTAL WORD COUNT OF USER DUMP              COMM0053
                       75331  UCLOCK COMBSS  N+1           TIME CURRENT USER COMMAND HAS RUN          COMM0054
                       75260  UCHARG COMBSS  N+1           .. SAME AS UCLOCK BUT INCLUDES SWAP TIME   COMM0055
1            ..... MACRO, EQUIVALENCE AND COMMON INSERTS FOR CTSS .....          04/06/71 1958.8 PAGE 13

                       75207  AWAKE  COMBSS  N+1           TIME TO RESTART USER (ALARM CLOCK)         COMM0056
                       75136  TIMINC COMBSS  N+1           USER INTERVAL TIMER INCREMENT              COMM0057
                       75065  ADOPT  COMBSS  N+1           ADOPT ARRAY EXPLAINED IN PMTA MODULE       COMM0058
                       75014  OKPROB COMBSS  N+1           ..                                         COMM0059
                       74743  OKPROG COMBSS  N+1           ..                                         COMM0060
                       74672  PB     COMBSS  N+1           PB(0)=PERCENT OF TOTTIM TO RUN BACKGROUND  COMM0061
                                             PB(1)-PB(N)=PERCENTAGE TO MEET WHEN USER IN WORKING STAT COMM0062
                                                                                                      COMM0063
                                             MISCELLANEOUS CONSTANTS                                  COMM0064
                                                                                                      COMM0065
                       74671  Q0     COMMON  1             LITERAL 0                                  COMM0066
                       74670  Q1     COMMON  1             LITERAL 1                                  COMM0067
                       74667  Q2     COMMON  1             LITERAL 2                                  COMM0068
                       74666  Q3     COMMON  1             LITERAL 3                                  COMM0069
                       74665  Q4     COMMON  1             LITERAL 4                                  COMM0070
                       74664  Q5     COMMON  1             LITERAL 5                                  COMM0071
                       74663  Q6     COMMON  1             LITERAL 6                                  COMM0072
                       74662  Q7     COMMON  1             LITERAL 7                                  COMM0073
                       74661  Q8     COMMON  1             LITERAL 8                                  COMM0074
                       74660  Q9     COMMON  1             LITERAL 9                                  COMM0075
                       74657  Q10    COMMON  1             LITERAL 10                                 COMM0076
                       74656  Q11    COMMON  1             LITERAL 11                                 COMM0077
                       74655  Q12    COMMON  1             LITERAL 12                                 COMM0078
                       74654  M0     COMMON  1             LITERAL -0                                 COMM0079
                       74653  LA     COMMON  1             FLAG FOR TRANSMISSION IN A-CORE            COMM0080
                       74652  LB     COMMON  1             FLAG FOR TRANSMISSION IN B-CORE            COMM0081
                       74651  AMASK  COMMON  1             OCT  000000077777                          COMM0082
                       74650  TMASK  COMMON  1             OCT  000000700000                          COMM0083
                       74647  DMASK  COMMON  1             OCT  077777000000                          COMM0084
                       74646  PMASK  COMMON  1             OCT  700000000000                          COMM0085
                       74645  RMASK  COMMON  1             OCT  000000777777                          COMM0086
                       74644  LMASK  COMMON  1             OCT  777777000000                          COMM0087
                       74643  NULLS  COMMON  1             OCT  575757575757                          COMM0088
                       74642  BLANKS COMMON  1             OCT  606060606060                          COMM0089
                       74641  FENCE  COMMON  1             OCT  777777777777                          COMM0090
                       74640  CMFL00 COMMON  1             BCI  1,CMFL00                              COMM0091
                       74637  TSSDC. COMMON  1             BCI  1,TSSDC.                              COMM0092
                       74636  SAVED  COMMON  1             BCI  1, SAVED                              COMM0093
                       74635  FORCOD COMMON  1             BASIC RESTRICTION CODE FOR FOREGROUND      COMM0094
                       74634  BKRPRV COMMON  1             PRIVILEGED RESTRICTION CODE FOR BACKGROUND COMM0095
                       74633  TSRCOD COMMON  1             SUPERVISOR RESTRICTION CODE                COMM0096
                       74631  CTSSID COMBSS  2             SYSTEM FILE DIRECTORY NAME                 COMM0097
                                                                                                      COMM0098
                                             VARIABLES SET AND CHANGED BY SCHEDL.                     COMM0099
                                                                                                      COMM0100
                       74630  CURUSR COMMON  1             CURRENT USER NO. (RUNNING OR SWAPPING)     COMM0101
                       74627  OLDUSR COMMON  1             OLD USER WHEN SWAP NON-ZERO                COMM0102
                       74626  NEWUSR COMMON  1             NEW USER WHEN SWAP NON-ZERO                COMM0103
                       74625  PAYUSR COMMON  1             USER BEING CHARGED FOR TIME                COMM0104
                       74624  SYSTIM COMMON  1             TIME SYSTEM WAS INITIALIZED                COMM0105
                       74623  SYSDAT COMMON  1             DATE SYSTEM WAS INITIALIZED                COMM0106
                       74622  BEGTIM COMMON  1             TIME CURUSR BEGAN RUNNING                  COMM0107
                       74621  MAXTIM COMMON  1             CURUSR RUNS AT SAME LEVEL UNTIL MAXTIM     COMM0108
                       74620  PAYTIM COMMON  1             LAST TIME A USER WAS CHARGED FOR TIME      COMM0109
                       74617  LEVTIM COMMON  1             LAST TIME CURUSR RAN AT HIS CUR. LEVEL     COMM0110
                       74616  SWAP   COMMON  1             NON-ZERO MEANS RUN NEWUSR ASAP             COMM0111
1            ..... MACRO, EQUIVALENCE AND COMMON INSERTS FOR CTSS .....          04/06/71 1958.8 PAGE 14

                       74615  MAXLVL COMMON  1             MAX. PRIORITY LEVEL (0...MAXLVL)           COMM0112
                       74614  MINLVL COMMON  1             THE MINIMUM LEVEL ALLOWED                  COMM0113
                       74613  FULLVL COMMON  1             INITIAL LEVEL FOR HALF TO FULL CORE USER   COMM0114
                       74612  EMPLVL COMMON  1             INITIAL LEVEL EMPTY CORE USER              COMM0115
                       74611  FULLEN COMMON  1             LENGTH FOR ENTRY AT LEVEL 'FULLVL'         COMM0116
                       74610  QNTWAT COMMON  1             QUANTUM WAITING TIME BEFORE LEVEL CHANGE   COMM0117
                       74607  LEVINC COMMON  1             INCREASE IN PRIORITY ON EACH INTERACTION   COMM0118
                       74606  INACTV COMMON  1             MAX. TIME(60THS) INACTIVE BEFORE LOGOUT    COMM0119
                       74605  HANGUP COMMON  1             MAX TIME(60THS) BEFORE INACTIVE LINE HUNGUPCOMM0120
                       74604  SHIFT  COMMON  1             CURRENT SHIFT NUMBER                       COMM0121
                                                                                                      COMM0122
                                             VARIABLES SET AND CHANGED BY QLOAD                       COMM0123
                                                                                                      COMM0124
                       74603  AVQLEN COMMON  1             AVERAGE QUEUE LENGTH (FLOATING PT.)        COMM0125
                       74602  QLEN   COMMON  1             NUMBER OF USERS IN QUEUES                  COMM0126
                       74571  MXUSRS COMBSS  Q.TBL         MAXIMUM NUMBER OF USERS ALLOWED ON         COMM0127
                       74560  QUANTM COMBSS  Q.TBL         MAX. RUNNING TIME AT LEVEL 0               COMM0128
                       74557  QMAX   COMMON  1             QUEUE THRESHOLD TO CUT MXUSRS              COMM0129
                       74556  QMIN   COMMON  1             QUEUE THRESHOLD TO RAISE MXUSRS            COMM0130
                       74555  QKILL  COMMON  1             QUEUE THRESHOLD TO KILL STANDBY USER       COMM0131
                       74554  KILLDT COMMON  1             TIME INTERVAL BEFORE KILL                  COMM0132
                       74553  KILLTM COMMON  1             TOTTIM TO KILL LOSER                       COMM0133
                       74551  KILLSW COMBSS  2             NON-ZERO IF KILLING ALLOWED                COMM0134
                       74550  QLOSER COMMON  1             LAST USER KILLED,,NO. KILLS                COMM0135
                       74547  SWPMAX COMMON  1             SWAP TIME THRESHOLD TO RAISE QUANTM        COMM0136
                       74546  SWPMIN COMMON  1             SWAP TIME THRESHOLD TO CUT QUANTM          COMM0137
                                                                                                      COMM0138
                                             RESERVED VARIABLES FOR DEBUGGING, ETC.                   COMM0139
                                                                                                      COMM0140
                       74545  DUMMY0 COMMON  1             ..                                         COMM0141
                       74544  DUMMY1 COMMON  1             ..                                         COMM0142
                       74543  DUMMY2 COMMON  1             ..                                         COMM0143
                       74542  DUMMY3 COMMON  1             ..                                         COMM0144
                       74541  DUMMY4 COMMON  1             ..                                         COMM0145
                                                                                                      COMM0146
                       74540  TRPTIM COMMON  1             TOTAL TIME SPENT PROCESSING TRAPS          COMM0147
                       74537  TRPPCT COMMON  1             INTEGRATED AVERAGE OF SAME                 COMM0148
                                                                                                      COMM0149
                                             OPERATOR MESSAGE AND ONLINE PRINTER STATUS               COMM0150
                                                                                                      COMM0151
                       74536  RCLKSW COMMON  1             NON-ZERO IF CHRONOLOG CLOCK NOT FUNCTIONINGCOMM0152
                       74535  PRDOWN COMMON  1             NON-ZERO IF PRINTER NOT FUNCTIONING        COMM0153
                       74534  SYSMSG COMMON  1             LINE NUMBER OF SYSTEM OUTPUT CONSOLE       COMM0154
                                                                                                      COMM0155
                                             VARIABLES SET BY LOGIN                                   COMM0156
                                                                                                      COMM0157
                       74533  STNBY  COMMON  1             NO. STANDBY USER IN SYSTEM                 COMM0158
                       74532  NUSERS COMMON  1             NO. OF FOREGROUND USERS LOGGED IN          COMM0159
                       74531  FIBRUN COMMON  1             SET BY LOGOUT..INDIC. TO RUN FIB           COMM0160
                       74530  FIBPTR COMMON  1             POINTS TO CURRENT FIB USER IN FILE         COMM0161
                       74527  ESTTIM COMMON  1             TIME LIMIT FOR CURRENT FIB JOB             COMM0162
                                                                                                      COMM0163
                                             TRAP TIME SAVE AREA                                      COMM0164
                                                                                                      COMM0165
                       74526  ENBSW  COMMON  1             ZERO IF MACHINE STATUS SAVED AT TRAP       COMM0166
                       74525  (SLTS) COMMON  1             .. SENSE LIGHTS, MQ OVERFLOW               COMM0167
1            ..... MACRO, EQUIVALENCE AND COMMON INSERTS FOR CTSS .....          04/06/71 1958.8 PAGE 15

                       74524  (DVCK) COMMON  1             .. DIVIDE CHECK STATUS                     COMM0168
                       74523  (IOCK) COMMON  1             .. I/O CHECK STATUS (NOT USED)             COMM0169
                       74522  (FLMD) COMMON  1             .. FLOATING TRAP MODE                      COMM0170
                       74521  (MTMD) COMMON  1             .. MULTIPLE TAG MODE                       COMM0171
                       74520  (OV)   COMMON  1             .. AC OVERFLOW                             COMM0172
                       74517  (SI)   COMMON  1             .. SENSE INDICATORS                        COMM0173
                       74516  (MQ)   COMMON  1             .. MQ REGISTER                             COMM0174
                       74515  (SQ)   COMMON  1             .. SIGN AND Q BITS                         COMM0175
                       74514  (LAC)  COMMON  1             .. ACCUMULATOR P, 1-35                     COMM0176
                       74513  (IR0)  COMMON  1             .. INDEX REGISTERS                         COMM0177
                       74512  (IR1)  COMMON  1             ..                                         COMM0178
                       74511  (IR2)  COMMON  1             ..                                         COMM0179
                       74510  (IR3)  COMMON  1             ..                                         COMM0180
                       74507  (IR4)  COMMON  1             ..                                         COMM0181
                       74506  (IR5)  COMMON  1             ..                                         COMM0182
                       74505  (IR6)  COMMON  1             ..                                         COMM0183
                       74504  (IR7)  COMMON  1             ..                                         COMM0184
                       74503  (ILC)  COMMON  1             .. LOCATION COUNTER, MEMORY FLAGS          COMM0185
                                                                                                      COMM0186
                                             OTHER VARIABLES                                          COMM0187
                                                                                                      COMM0188
                       74502  USER   COMMON  1             CURRENT USER NO.                           COMM0189
                       74501  DATE   COMMON  1             TODAYS DATE BCI 1,MM/DD                    COMM0190
                       74500  DATEYR COMMON  1             TODAYS DATE BCI 1,MMDDYY                   COMM0191
                       74477  SYSNAM COMMON  1             SYSTEM NAME                                COMM0192
                       74476  TIMNOW COMMON  1             TIME OF DAY IN BINARY                      COMM0193
                       74475  SWPSW  COMMON  1             NON-ZERO WHEN SWAPPING USERS               COMM0194
                       74474  COMSW  COMMON  1             NON-ZERO WHEN LOADING COMMAND              COMM0195
                       74473  DSKSW  COMMON  1             NON-ZERO WHEN SWAPPING FROM DISK           COMM0196
                       74472  TOTTIM COMMON  1             TOTAL TIME SYSTEM HAS RUN                  COMM0197
                       74471  BKGTIM COMMON  1             TOTAL TIME BACKGROUND HAS RUN              COMM0198
                       74470  BKGPCT COMMON  1             PERCENTAGE BACKGROUND HAS RUN              COMM0199
                       74467  SWPTIM COMMON  1             TOTAL TIME SPENT SWAPPING                  COMM0200
                       74466  SWPPCT COMMON  1             PERCENTAGE SWAP TIME                       COMM0201
                       74465  DSKTIM COMMON  1             TOTAL TIME SWAPPING FROM DISK              COMM0202
                       74464  DSKPCT COMMON  1             PERCENTAGE DISK SWAP TIME                  COMM0203
                       74463  PRMTIM COMMON  1             TOTAL TIME SWAPPING WHEN OLDUSR PREEMPTED  COMM0204
                       74462  PRMPCT COMMON  1             PERCENTAGE SWAP TIME PREEMPTING            COMM0205
                       74461  COMTIM COMMON  1             TOTAL TIME SPENT LOADING COMMANDS          COMM0206
                       74460  COMPCT COMMON  1             PERCENTAGE COMMAND LOAD TIME               COMM0207
                       74457  DISKSW COMMON  1             NON-ZERO IF DISK SWAP FORCED               COMM0208
                       74456  USRWAT COMMON  1             USER DISK WAIT TIME IN CYCLES              COMM0209
                       74455  SWPWAT COMMON  1             SWAP DISK/DRUM WAIT TIME IN CYCLES         COMM0210
                       74454  AUTOND COMMON  1             NON-ZERO TO LOGOUT ALL FOREGROUND USERS    COMM0211
                       74453  CLKTIM COMMON  1             NO. OF CLOCK INCREMENTS BEFORE CLOCK TRAP  COMM0212
                       74452  RCLKDT COMMON  1             TIME INTERVAL TO READ THE CHRONOLOG CLOCK  COMM0213
                       74451  NWORDS COMMON  1             NO. OF WORDS CURRENT OR INCOMING USER NEEDSCOMM0214
                       74450  STOPSW COMMON  1             NON-ZERO IF BACKGROUND STOPPED             COMM0215
                       74447  BASEAD COMMON  1             PZE BASE                                   COMM0216
                       74446  DEMKEY COMMON  1             CONSOLE ENTRY KEYS, REFERENCED BY DAEMON   COMM0217
                       74445  BKGATT COMMON  1             IF NON-ZERO, BACKGROUND NEEDS ATTENTION    COMM0218
                       74444  BKGKEY COMMON  1             BACKGROUND KEY CODE ISSUED BY OPERATOR     COMM0219
                       74443  DUSER  COMMON  1             DUMMY USER TO RUN WHEN IDLE                COMM0220
                       74442  ATLOST COMMON  1             NON-ZERO IF TRAP LOST ON CHANNEL A         COMM0221
                       74441  COMPTR COMMON  1             .. POINTER TO CURRENT USER COMMAND         COMM0222
                       74415  COMBUF COMBSS  LCBUF         .. CURRENT USER COMMAND IF TYPED AT CONSOLECOMM0223
1            ..... MACRO, EQUIVALENCE AND COMMON INSERTS FOR CTSS .....          04/06/71 1958.8 PAGE 16

                       74414  UCOMND COMMON  1             CURRENT USER COMMAND BEING PROCESSED       COMM0224
                       74413  UCOMSW COMMON  1             COMMAND FLAGS FOR CURRENT COMMAND          COMM0225
                       74357         COMBSS  2*WDSLIN      .. SPARE BUFFER                            COMM0226
                       74322  PBUFF  COMBSS  2*WDSLIN+1    COMMON PRINT/PUNCH UTILITY BUFFER          COMM0227
                       73442  DBUF1  COMBSS  NWDSPT        COMMON DISK BUFFER(S)                      COMM0228
                       73362  AFSTU1 COMBSS  AFS1LN        ACTIVE FILE STATUS TABLE FOR CTSS          COMM0229
                       73315  Q1U1   COMBSS  Q1U1LN        QUEUE FOR DISK/DRUM FOR CTSS               COMM0230
                       73315  Q3U1   COMBSS  Q3U1LN        QUEUE FOR TAPE FOR CTSS                    COMM0231
                       72727  AFSTU2 COMBSS  AFS2LN        ACTIVE FILE STATUS TABLE FOR CURRENT USER  COMM0232
                       72627  Q1U2   COMBSS  Q1U2LN        QUEUE FOR DISK/DRUM FOR CURRENT USER       COMM0233
                       72556  Q3U2   COMBSS  Q3U2LN        QUEUE FOR TAPE FOR CURRENT USER            COMM0234
                                                                                                      COMM0235
                       72555  EMCOND COMMON  1             USER MACHINE CONDITION STATUS TABLE        COMM0236
                       72435  FSBLK  COMBSS  FSBLKL        .. FILE STATUS AREA FOR USAVE              COMM0237
                       72434  FSBCT  COMMON  1             .. WORD COUNT FOR FILE STATUS BLOCK        COMM0238
                       72433  WATCOM COMMON  1             .. INDICATES WAITING COMMAND IN CHAIN      COMM0239
                       72432  CHNPTR COMMON  1             .. POINTER TO COMMAND BUFFER IN CHAIN      COMM0240
                       72266  SUBCOM COMBSS  CLNGTH*CDEPTH .. USER SUB-COMMAND TABLES                 COMM0241
                       72242  UCOMBF COMBSS  LCBUF         .. CURRENT COMMAND BUFFER FOR USER         COMM0242
                       72241  COMCTR COMMON  1             .. CURRENT COMMAND LOCATION COUNTER        COMM0243
                       72240  COMFSW COMMON  1             .. FROM LAST USER CALL TO 'COMFIL'         COMM0244
                       72236  USRFIL COMBSS  2             .. LAST DIRECTORY ATTACHMENT IF IN TSSFIL  COMM0245
                       72234  TSSFIL COMBSS  2             .. ATTACHMENT IF TSSFSW NON-ZERO           COMM0246
                       72233  TSSFSW COMMON  1             .. NON-ZERO IF USER READING TSS FILES      COMM0247
                       72232  URCODE COMMON  1             .. RESTRICTION CODE OF CURRENT USER        COMM0248
                       72231  AUTHOR COMMON  1             .. USER'S AUTHOR NUMBER                    COMM0249
                       72230  BLIPCH COMMON  1             .. BLIP OPTION CHARACTER SEQUENCE          COMM0250
                       72227  BLIPDT COMMON  1             .. TIME INTERVAL                           COMM0251
                       72226  BLIPTM COMMON  1             .. TIME SINCE LAST 'BLIP'                  COMM0252
                       72225  SAVEM1 COMMON  1             .. C(77777)                                COMM0253
                       72224  UILOCK COMMON  1             .. CORE B RETURN IN CASE OF FILE LOCKED    COMM0254
                       72223  UFERTN COMMON  1             .. USER STANDARD DISK ERROR RETURN         COMM0255
                       72222  BRKILC COMMON  1             .. USER ILC WHEN HE HIT INTERRUPT SEQ.     COMM0256
                       72221  BREAKL COMMON  1             .. USER BREAK LEVEL COUNT                  COMM0257
                       72216         COMBSS  QUITL         .. USER BREAK LEVELS                       COMM0258
                       72214         COMMON  1             .. SPARE MACHINE CONDITION REGISTER        COMM0259
                       72214  OLDILC COMMON  1             .. USER ILC SAVED                          COMM0260
                       72213  BTRILC COMMON  1             .. CHANNEL B TRAP CONDITIONS SAVED         COMM0261
                       72212  ATRILC COMMON  1             .. CHANNEL A TRAP CONDITIONS SAVED         COMM0262
                       72211  UENBWD COMMON  1             .. USER ENABLE WORD                        COMM0263
                       72210  TINHIB COMMON  1             .. NON-ZERO IF USER INHIBITED FROM TRAPS   COMM0264
                       72206         COMMON  1             .. SPARE REGISTER                          COMM0265
                       72206  BSTAT  COMMON  1             .. CHANNEL B SAVED                         COMM0266
                       72205  ASTAT  COMMON  1             .. CHANNEL A SAVED                         COMM0267
                       72204  SLTS   COMMON  1             .. SENSE LIGHTS                            COMM0268
                       72203  DVCK   COMMON  1             .. NON-ZERO IF DIVIDE CHECK ON             COMM0269
                       72202  IOCK   COMMON  1             .. NON-ZERO IF I/O CHECK ON                COMM0270
                       72201  FLMD   COMMON  1             .. NON-ZERO IF USER IN FLOATING TRAP MODE  COMM0271
                       72200  MTMD   COMMON  1             .. NON-ZERO IF USER IN MULTIPLE TAG MODE   COMM0272
                       72177  OV     COMMON  1             .. NON-ZERO IF AC OVERFLOW ON              COMM0273
                       72176  SI     COMMON  1             .. USER SENSE INDICATORS                   COMM0274
                       72175  MQ     COMMON  1             .. MQ                                      COMM0275
                       72174  SQ     COMMON  1             .. SIGN AND Q BITS                         COMM0276
                       72173  LAC    COMMON  1             .. LOGICAL AC                              COMM0277
                       72172  PTIRS  COMMON  1             .. USER INDEX TABLE (IR0= 0)               COMM0278
                       72171  IR1    COMMON  1             ..                                         COMM0279
1            ..... MACRO, EQUIVALENCE AND COMMON INSERTS FOR CTSS .....          04/06/71 1958.8 PAGE 17

                       72170  IR2    COMMON  1             ..                                         COMM0280
                       72167  IR3    COMMON  1             ..                                         COMM0281
                       72166  IR4    COMMON  1             ..                                         COMM0282
                       72165  IR5    COMMON  1             ..                                         COMM0283
                       72164  IR6    COMMON  1             ..                                         COMM0284
                       72163  IR7    COMMON  1             ..                                         COMM0285
                       72162  ILC    COMMON  1             .. CURRENT USER INSTRUCTION COUNTER        COMM0286
                       72161  MEMBND COMMON  1             .. NO. OF WORDS OF MEMORY ASSIGNED TO USER COMM0287
                       72160  RLIND  COMMON  1             .. USER RELOCATION SETTING                 COMM0288
                       72157  PRIND  COMMON  1             .. USER PROTECTION SETTING                 COMM0289
                       72156  MACOND COMMON  1             .. NON-ZERO IF MACHINE CONDITIONS SAVED    COMM0290
                                                                                                      COMM0291
                       72132  TSSTBL COMBSS  TSSMAX        TSSFIL TABLE SET BY LOGIN                  COMM0292
                       72130  TSSFID COMBSS  2             .. SYSTEM TSSFIL NAME                      COMM0293
                                                                                                      COMM0294
                       72127  LOWCOM COMMON  0             COMMON BREAK                               COMM0295
                                                                                                      COMM0296
                                                                                                      COM80010
                                     END                                                              COM80011
1            ..... MACRO, EQUIVALENCE AND COMMON INSERTS FOR CTSS .....          04/06/71 1958.8 PAGE 1
                        POST PROCESSOR ASSEMBLY DATA

       72127 IS THE LAST LOCATION NOT USED BY THIS PROGRAM
          0 IS THE FIRST LOCATION NOT USED BY THIS PROGRAM

0REFERENCES TO DEFINED SYMBOLS
          1      A
          2      B
         50      N
          4      P
      74653     LA
      74652     LB
      74654     M0
      72175     MQ
      72177     OV
      74672     PB
      74671     Q0
      74670     Q1
      74667     Q2
      74666     Q3
      74665     Q4
      74664     Q5
      74663     Q6
      74662     Q7
      74661     Q8
      74660     Q9
      72176     SI
      72174     SQ
      72162    ILC
      75402    IOD
      72171    IR1
      72170    IR2
      72167    IR3
      72166    IR4
      72165    IR5
      72164    IR6
      72163    IR7
          1    .F.
          0    .I.
      72173    LAC
      74657    Q10
      74656    Q11
      74655    Q12
          0   BASE
      74501   DATE
      72203   DVCK
      72201   FLMD
      72202   IOCK
          1   .ATR
       4000   .CLC
         10   .CPY
          2   .DSK
        100   .LGN
        200   .LGT
        400   .LOG
         20   .MEM
1            ..... MACRO, EQUIVALENCE AND COMMON INSERTS FOR CTSS .....          04/06/71 1958.8 PAGE 2
                        POST PROCESSOR ASSEMBLY DATA

       2000   .SAV
      10000   .SUB
          4   .SYS
       1000   .UFL
         40   .USR
      72200   MTMD
      73315   Q1U1
      72627   Q1U2
      73315   Q3U1
      72556   Q3U2
      74602   QLEN
      74557   QMAX
      74556   QMIN
      72204   SLTS
      74616   SWAP
      77137   TAU1
      77066   TAU2
      77015   TAU3
      76744   TAU4
      76673   TAU5
      74502   USER
      74516   (MQ)
      74520   (OV)
      74517   (SI)
      74515   (SQ)
      75065  ADOPT
      74651  AMASK
      72205  ASTAT
      75207  AWAKE
      72206  BSTAT
      74474  COMSW
      73442  DBUF1
         20  D.COM
          4  D.DIR
          1  D.DSK
          2  D.OPT
         40  D.SAV
         10  D.TSF
      74647  DMASK
      74473  DSKSW
      74443  DUSER
      74526  ENBSW
      77777  ENBWD
      74641  FENCE
      72434  FSBCT
      72435  FSBLK
      76551  ITIME
         24  LCBUF
      77604  LEVEL
         20  L.COM
         40  L.CPU
          4  L.DIR
          1  L.DSK
        100  L.MEM
          2  L.OPT
1            ..... MACRO, EQUIVALENCE AND COMMON INSERTS FOR CTSS .....          04/06/71 1958.8 PAGE 3
                        POST PROCESSOR ASSEMBLY DATA

         10  L.TSF
      74644  LMASK
         12  MAXLV
      74643  NULLS
      74322  PBUFF
      74646  PMASK
      72157  PRIND
      76500  PROBN
      76427  PROGN
      72172  PTIRS
          0  Q.CUR
          1  Q.MAX
          2  Q.MIN
         11  Q.TBL
      74555  QKILL
      77254  QLIST
          3  QUITL
      76041  RCODE
      72160  RLIND
      74645  RMASK
      74636  SAVED
      74604  SHIFT
      74533  STNBY
      74475  SWPSW
      74650  TMASK
      76305  UFDNM
          2  UFLBT
      76356  UNAME
      76622  UTIME
      74503  (ILC)
      74513  (IR0)
      74512  (IR1)
      74511  (IR2)
      74510  (IR3)
      74507  (IR4)
      74506  (IR5)
      74505  (IR6)
      74504  (IR7)
      74514  (LAC)
         12 ACTFIL
         60 AFS1LN
        366 AFS2LN
         32 AFSCON
         26 AFSENL
      73362 AFSTU1
      72727 AFSTU2
      74442 ATLOST
      72212 ATRILC
      72231 AUTHOR
      74454 AUTOND
      74603 AVQLEN
      74447 BASEAD
      74622 BEGTIM
      74445 BKGATT
      74444 BKGKEY
1            ..... MACRO, EQUIVALENCE AND COMMON INSERTS FOR CTSS .....          04/06/71 1958.8 PAGE 4
                        POST PROCESSOR ASSEMBLY DATA

      74470 BKGPCT
      74471 BKGTIM
      74634 BKRPRV
      74642 BLANKS
      72230 BLIPCH
      72227 BLIPDT
      72226 BLIPTM
      72221 BREAKL
      72222 BRKILC
      72213 BTRILC
          5 CDEPTH
      72432 CHNPTR
        100 CLKBIT
      74453 CLKTIM
         24 CLNGTH
      74640 CMFL00
      74415 COMBUF
      72241 COMCTR
      72240 COMFSW
      75575 COMMND
      74460 COMPCT
      74441 COMPTR
      77462 COMRLC
      74461 COMTIM
      74631 CTSSID
      74630 CURUSR
      74500 DATEYR
      74446 DEMKEY
        200 DIALBT
      74457 DISKSW
      74464 DSKPCT
      74465 DSKTIM
      74545 DUMMY0
      74544 DUMMY1
      74543 DUMMY2
      74542 DUMMY3
      74541 DUMMY4
      72555 EMCOND
      74612 EMPLVL
         10 ENBBIT
      74527 ESTTIM
      74530 FIBPTR
      74531 FIBRUN
      74635 FORCOD
         10 FSBENL
        120 FSBLKL
          1 FULBIT
      74611 FULLEN
      74613 FULLVL
         10 GPHBIT
         43 GROUPS
      76112 GRPNO.
      77210 GRPTBL
      74605 HANGUP
          2 HUNGBT
1            ..... MACRO, EQUIVALENCE AND COMMON INSERTS FOR CTSS .....          04/06/71 1958.8 PAGE 5
                        POST PROCESSOR ASSEMBLY DATA

      74606 INACTV
         20 INHBIT
         20 INPBIT
       2000 INTBIT
      74554 KILLDT
      74551 KILLSW
      74553 KILLTM
      77655 LENGTH
      74607 LEVINC
      74617 LEVTIM
      10000 LOGTBT
      72127 LOWCOM
      72156 MACOND
      74615 MAXLVL
      74621 MAXTIM
      72161 MEMBND
          4 MESGBT
      74614 MINLVL
      74571 MXUSRS
       1000 NBACBT
          4 NBKBIT
          2 NCVBIT
      10000 NDEMBT
      77777 NEWTOP
      74626 NEWUSR
       4000 NFIBBT
       2000 NFORBT
        400 NINTBT
       1000 NKILBT
          1 NOTIME
      20000 NPRCBT
        200 NQTBIT
     700000 NTIMCD
      74532 NUSERS
        660 NWDSPT
      74451 NWORDS
      75014 OKPROB
      74743 OKPROG
      72214 OLDILC
      77461 OLDTOP
      74627 OLDUSR
      74620 PAYTIM
      74625 PAYUSR
      74535 PRDOWN
      74462 PRMPCT
      74463 PRMTIM
         45 Q1U1LN
        100 Q1U2LN
          0 Q3U1LN
         51 Q3U2LN
          4 Q.DNDT
          6 Q.DNTM
         10 Q.DNVR
          3 Q.UPDT
          5 Q.UPTM
1            ..... MACRO, EQUIVALENCE AND COMMON INSERTS FOR CTSS .....          04/06/71 1958.8 PAGE 6
                        POST PROCESSOR ASSEMBLY DATA

          7 Q.UPVR
      74550 QLOSER
      74610 QNTWAT
      74560 QUANTM
        100 R636BT
          2 RCALBT
      74452 RCLKDT
      74536 RCLKSW
          1 RCOMBT
        200 RDSKBT
         40 RKLDBT
       2000 ROPRBT
         20 RPATBT
          4 RPROBT
         10 RPRVBT
          4 RSTFBT
       1000 RSYSBT
        400 RTSSBT
        100 SAVEBT
      72225 SAVEM1
          4 SB.CHN
          1 SB.CMD
         10 SB.ERR
          2 SB.TSX
      77726 STATUS
      74450 STOPSW
      77411 STRTIM
      72266 SUBCOM
      76234 SUBNAM
      76163 SUBSWS
      74547 SWPMAX
      74546 SWPMIN
      74466 SWPPCT
      74467 SWPTIM
      74455 SWPWAT
         40 SYSBIT
      74623 SYSDAT
      74534 SYSMSG
      74477 SYSNAM
      74624 SYSTIM
      75136 TIMINC
      77533 TIMLEV
      74476 TIMNOW
      72210 TINHIB
      74472 TOTTIM
         77 TPWRSW
      74537 TRPPCT
      74540 TRPTIM
      74633 TSRCOD
      74637 TSSDC.
      72130 TSSFID
      72234 TSSFIL
      72233 TSSFSW
         24 TSSMAX
      72132 TSSTBL
1            ..... MACRO, EQUIVALENCE AND COMMON INSERTS FOR CTSS .....          04/06/71 1958.8 PAGE 7
                        POST PROCESSOR ASSEMBLY DATA

      75453 UARRAY
          1 UBACBT
       1000 UCBFBT
      75260 UCHARG
        200 UCHNBT
      75331 UCLOCK
        400 UCMLBT
      72242 UCOMBF
        100 UCOMBT
      74414 UCOMND
      74413 UCOMSW
         10 UDEMBT
      72211 UENBWD
      72223 UFERTN
          4 UFIBBT
          1 UFLBIT
          2 UFORBT
      72224 UILOCK
      75646 UNITID
         20 UPRCBT
      72232 URCODE
         10 USRBIT
      72236 USRFIL
      75770 USROPT
      74456 USRWAT
      75524 USWICH
      72433 WATCOM
      77462 WATTIM
         16 WDSLIN
      77340 WRKTIM
       2000 XEQBIT
      74524 (DVCK)
      74522 (FLMD)
      74523 (IOCK)
      74521 (MTMD)
      74525 (SLTS)

0 NO ERROR IN ABOVE ASSEMBLY.


MAIN8C   BCD 02/10/71 1455.7    7559         00000
1       M1416 3845  PETER R. BOS ......... TSS INITIALIZATION ROUTINE .......    02/01/71 1520.1 PAGE 1

                                     PCC     ON                                                       MAIN0002
                                     LBL     MAIN                                                     MAIN0003
                                     PCC     OFF                                                      MAIN0004
                                                                                                      MAIN0005
                                     EXTERN  RCLOCK,STCLOC,FIOERR,IOINIT,CHNGUS,USTAT,SETUSR          MAIN0006
                                     EXTERN  IFUNCT,SETRAP,SETAB,ATTACH,SCHEDL,CHANLI,CBINIT          MAIN0007
                                     EXTERN  INIT,EPRINT,LOGIN,CYCLE                                  MAIN0008
                                                                                                      MAIN0009
                                     UNLIST                                                           MAIN0010

                                                                                                      MAIN0015
                                                                                                      MAIN0016
                      000061  HITRAP BOOL    61            HIGHEST CHANNEL INTERRUPT LOCATION         MAIN0017
                                                                                                      MAIN0018
                                                                                                      MAIN0019
                                                                                                      MAIN0020
      00036  0564 00 0 00562         ENB     =0            ENTER HERE TO INITIALIZE TSS               MAIN0021
      00037  0774 00 4 00062         AXT     HITRAP+1,4    ZERO OUT TRAP REGION                       MAIN0022
      00040  0600 00 4 00062         STZ     HITRAP+1,4    ..                                         MAIN0023
      00041  2 00001 4 00040         TIX     *-1,4,1       ..                                         MAIN0024
      00042  0774 00 4 05651         AXT     ENBWD-LOWCOM+1,4 ZERO OUT COMMON STORAGE                 MAIN0025
      00043  0600 00 4 00000         STZ     ENBWD+1,4     ..                                         MAIN0026
      00044  2 00001 4 00043         TIX     *-1,4,1       ..                                         MAIN0027
      00045  0602 00 0 74477         SLW     SYSNAM        SAVE SYSTEM NAME FROM LOADER               MAIN0028
      00046  0000 00 0 00047         HTR     *+1           PAUSE FOR OPERATOR                         MAIN0029
      00047  0760 00 0 00016         LMTM                  CTSS RUNS IN 7-TAG MODE                    MAIN0030
      00050 -0760 00 0 00004         LFTM                  NO FLOATING POINT TRAP                     MAIN0031
      00051  0760 00 0 00163         SWT     3             IS SENSE SWITCH 3 SET                      MAIN0032
      00052  0020 00 0 00057         TRA     *+5           .. NO, SKIP                                MAIN0033
      00053  0760 00 0 00004         ENK                   YES, READ LOGIN NAME FROM KEYS             MAIN0034
      00054 -0130 00 0 00000         XCL                   ..                                         MAIN0035
      00055  0100 00 0 00054         TZE     *-1           IF KEYS EMPTY, USE SYSTEM NAME             MAIN0036
      00056  0602 60 0 00020         SLW*    LOGIN         ..                                         MAIN0037
      00057  0774 00 4 00244         AXT     INITN,4       INITIALIZE TRAP REGION AND COMMON STORAGE  MAIN0038
      00060 -0500 60 4 00466         CAL*    IWORD+INITN,4 ..                                         MAIN0039
      00061  0602 60 4 00467         SLW*    IWORD+INITN+1,4 ..                                       MAIN0040
      00062  2 00002 4 00060         TIX     *-2,4,2       ..                                         MAIN0041
      00063  0774 00 4 00045         AXT     N-3,4         INITIALIZE RCODE VECTOR                    MAIN0042
      00064 -0500 00 0 74635         CAL     FORCOD        .. FOR FOREGROUND                          MAIN0043
      00065  0602 00 4 76111         SLW     RCODE+N,4     ..                                         MAIN0044
      00066  2 00001 4 00065         TIX     *-1,4,1       ..                                         MAIN0045
      00067 -0761 00 0 00042         SEB                   CLEAR MEMORY 'B'                           MAIN0046
      00070  0774 00 4 77777         AXT     -1,4          ..                                         MAIN0047
      00071  0600 00 4 77777         STZ     -1,4          ..                                         MAIN0048
      00072  2 00001 4 00071         TIX     *-1,4,1       ..                                         MAIN0049
      00073  0600 00 0 77777         STZ     -1            ..                                         MAIN0050
      00074 -0761 00 0 00041         SEA                   RESET ECC TO MEMORY 'A'                    MAIN0051
                                                                                                      MAIN0052
      00075  0074 00 4 00000         TSX     RCLOCK,4      READ TIME OF DAY FROM CHRONOLOG CLOCK      MAIN0053
      00076  0 00000 0 00000         PZE     0             ..                                         MAIN0054
      00077  0074 00 4 00001         TSX     STCLOC,4      START UP INTERVAL TIMER NOW                MAIN0055
      00100                          SCHEDL  =0,=0,=0      INITIALIZE SCHEDULING ALGORITHM            MAIN0056
      00104 -0625 00 0 74526         STL     ENBSW         INDICATE WE WILL BE ENABLED                MAIN0057
      00105  0564 00 0 77777         ENB     ENBWD         ENABLE FOR ALL TRAPS                       MAIN0058
      00106 -0500 00 0 00002         CAL     FIOERR        PICK UP LOCATION OF DISK ERROR RETURN      MAIN0059
      00107  0621 00 0 00111         STA     *+2           .. T.V. ARRAY DESTROYED BY CBINIT          MAIN0060
1       M1416 3845  PETER R. BOS ......... TSS INITIALIZATION ROUTINE .......    02/01/71 1520.1 PAGE 2

      00110  0074 00 4 00003         TSX     IOINIT,4      INITIALIZE DISK ROUTINES                   MAIN0061
      00111  3 00000 0 00002         PAR     FIOERR        .. ERROR RETURN                            MAIN0062
      00112  3 00000 0 74500         PAR     DATEYR        .. DATE                                    MAIN0063
      00113  3 00000 0 74476         PAR     TIMNOW        .. TIME                                    MAIN0064
      00114  3 00000 0 77777         PAR     ENBWD         .. COMMON ENABLE WORD                      MAIN0065
      00115  3 00000 0 00212         PAR     NOINIT        .. POSSIBLE ERROR                          MAIN0066
      00116  0074 00 4 00004         TSX     CHNGUS,4      SET TSS TO BE DISK USER                    MAIN0067
      00117  3 00000 0 00563         PAR     =1            .. USER NO. 1                              MAIN0068
      00120  0074 00 4 00005         TSX     USTAT,4       ASSIGN ACTIVE FILE STATUS TABLE            MAIN0069
      00121  3 00060 0 73362         PAR     AFSTU1,,AFS1LN .. FOR TSS                                MAIN0070
      00122  3 00045 0 73315         PAR     Q1U1,,Q1U1LN  .. QUEUE FOR DEVICE 1                      MAIN0071
      00123  3 00000 0 73315         PAR     Q1U1,,0       .. DEVICE 2                                MAIN0072
      00124  3 00000 0 73315         PAR     Q3U1,,Q3U1LN  .. DEVICE 3                                MAIN0073
      00125 -0500 00 0 00007         CAL     IFUNCT        LOCATION OF SUPERVISOR INTERRUPT PROCEDURE MAIN0074
      00126  0621 00 0 00130         STA     *+2           ..                                         MAIN0075
      00127  0074 00 4 00010         TSX     SETRAP,4      ..                                         MAIN0076
      00130  3 00000 0 00007         PAR     IFUNCT        ..                                         MAIN0077
      00131  0074 00 4 00006         TSX     SETUSR,4      DEFINE USER OPTIONS FOR DISK ROUTINES      MAIN0078
      00132  3 00000 0 00563         PAR     =1            .. USER NO. 1                              MAIN0079
      00133  3 00000 0 74633         PAR     TSRCOD        .. RESTRICTION CODE                        MAIN0080
      00134  3 00000 0 00562         PAR     =0            .. AUTHOR NUMBER                           MAIN0081
      00135  3 00000 0 74647         PAR     DMASK         .. PROTECTION LIMITS                       MAIN0082
      00136  3 00000 0 00562         PAR     =0            .. RELOCATION                              MAIN0083
      00137  3 00000 0 00563         PAR     =1            .. HIGHEST PRIORITY                        MAIN0084
      00140                          SETAB   LA,LA,LA      SET MEMORY SWITCHES FOR MEMORY 'A'         MAIN0085
      00144  0074 00 4 00012         TSX     ATTACH,4      SIGN TSS ONTO DISK                         MAIN0086
      00145  3 00000 0 74631         PAR     CTSSID        ..                                         MAIN0087
      00146  3 00000 0 74632         PAR     CTSSID+1      ..                                         MAIN0088
      00147  3 00000 0 00212         PAR     NOINIT        .. POSSIBLE ERROR                          MAIN0089
      00150  0074 00 4 00004         TSX     CHNGUS,4      SET BACKGROUND SYSTEM TO BE DISK USER      MAIN0090
      00151  3 00000 0 00564         PAR     =2            .. USER NO. 2                              MAIN0091
      00152  0074 00 4 00005         TSX     USTAT,4       ASSIGN A.F.S.T. FOR BACKGROUND             MAIN0092
      00153  3 00366 0 72727         PAR     AFSTU2,,AFS2LN .. FILE STATUS TABLE                      MAIN0093
      00154  3 00100 0 72627         PAR     Q1U2,,Q1U2LN  .. QUEUE FOR DEVICE 1                      MAIN0094
      00155  3 00000 0 72627         PAR     Q1U2,,0       .. DEVICE 2                                MAIN0095
      00156  3 00051 0 72556         PAR     Q3U2,,Q3U2LN  .. DEVICE 3                                MAIN0096
      00157  0074 00 4 00006         TSX     SETUSR,4      SET UP OPTIONS FOR BACKGROUND SYSTEM       MAIN0097
      00160  3 00000 0 00564         PAR     =2            .. USER 2                                  MAIN0098
      00161  3 00000 0 76041         PAR     RCODE         .. RESTRICTION CODE                        MAIN0099
      00162  3 00000 0 00562         PAR     =0            .. AUTHOR                                  MAIN0100
      00163  3 00000 0 72157         PAR     PRIND         .. PROTECTION LIMITS                       MAIN0101
      00164  3 00000 0 00562         PAR     =0            .. RELOCATION                              MAIN0102
      00165  3 00000 0 00564         PAR     =2            .. SECOND HIGHEST PRIORITY                 MAIN0103
      00166  0074 00 4 00004         TSX     CHNGUS,4      RESTORE TSS AS DISK USER                   MAIN0104
      00167  3 00000 0 00563         PAR     =1            ..                                         MAIN0105
                                                                                                      MAIN0106
      00170                          SCHEDL  =12,=0,=0     INITIALIZE BACKGROUND SYSTEM               MAIN0107
      00174 -0500 60 0 00016         CAL*    INIT          SET UP BACKGROUND TO FINISH INITIALIZATION MAIN0108
      00175  0602 00 0 75575         SLW     COMMND        ..                                         MAIN0109
      00176                          SCHEDL  =2,=0,=3      .. VIA THE 'INIT' COMMAND                  MAIN0110
                                                                                                      MAIN0111
      00202  0074 00 4 00014         TSX     CHANLI,4      INITIALIZE 7750 CHANNEL                    MAIN0112
      00203 -0500 00 0 00501         CAL     INPBUF        GIVE INPUT BUFFER BOUNDS                   MAIN0113
      00204  0602 60 0 00022         SLW*    $INPBND       .. TO PROTECTION PROCESSOR                 MAIN0114
      00205 -0500 00 0 00021         CAL     CYCLE         GO TO MAIN CONTROL WHEN DONE               MAIN0115
      00206  0621 00 0 00211         STA     *+3           ..                                         MAIN0116
1       M1416 3845  PETER R. BOS ......... TSS INITIALIZATION ROUTINE .......    02/01/71 1520.1 PAGE 3

      00207  0074 00 4 00015         TSX     CBINIT,4      INITIALIZE COMMON TYPEWRITER INPUT BUFFER  MAIN0117
      00210  3 00550 0 00062         PAR     HITRAP+1,,END-HITRAP  .. USE EVERYTHING                  MAIN0118
      00211  3 00000 0 00021         PAR     CYCLE         .. EXIT TO MAIN CONTROL WHEN DONE          MAIN0119
                                                                                                      MAIN0120
                                                                                                      MAIN0121
      00212  0074 00 4 00017  NOINIT TSX     EPRINT,4      HERE ON ERROR INITIALIZING DISK ROUTINES   MAIN0122
      00213  0 00005 0 00215         PZE     NOINCM,,5     .. PRINT ERROR MESSAGE                     MAIN0123
      00214  0000 00 0 00214         HTR     *             .. AND STOP                                MAIN0124
                                                                                                      MAIN0125
      00215  602431624260     NOINCM BCI     / DISK ERROR INITIALIZING TSS./                          MAIN0126
      00216  255151465160
      00217  314531633121
      00220  433171314527
      00221  606362623357
                                                                                                      MAIN0127
                                                                                                      MAIN0128
                       00222  IWORD  SYN     *             INITIALIZATION TABLE                       MAIN0129
      00222  0 00000 0 00023         PZE     $STRTRP       .. SET UP FOR 'STR' TRAP                   MAIN0130
      00223  0 00000 0 00002         PZE     2             ..                                         MAIN0131
      00224  0 00000 0 00024         PZE     $DDTRAP       SET UP FOR DIRECT DATA TRAP                MAIN0132
      00225  0 00000 0 00004         PZE     4             ..                                         MAIN0133
      00226  0 00000 0 00025         PZE     $CLKINT       SET UP FOR INTERVAL TIMER TRAP             MAIN0134
      00227  0 00000 0 00007         PZE     7             ..                                         MAIN0135
      00230  0 00000 0 00026         PZE     $FLPTRP       SET UP FOR FLOATING POINT TRAP             MAIN0136
      00231  0 00000 0 00010         PZE     8             ..                                         MAIN0137
      00232  0 00000 0 00027         PZE     $PANIC        SET UP FOR PANIC DUMP PROCEDURE            MAIN0138
      00233  0 00000 0 00011         PZE     9             ..                                         MAIN0139
      00234  0 00000 0 00030         PZE     $ATRAP        SET UP FOR DATA CHANNEL TRAP FROM 'A'      MAIN0140
      00235  0 00000 0 00013         PZE     11            ..                                         MAIN0141
      00236  0 00000 0 00031         PZE     $BTRAP        SET UP FOR DATA CHANNEL TRAP FROM 'B'      MAIN0142
      00237  0 00000 0 00015         PZE     13            ..                                         MAIN0143
      00240  0 00000 0 00032         PZE     $DTRAP        SET UP FOR DATA CHANNEL TRAP FROM 'D'      MAIN0144
      00241  0 00000 0 00021         PZE     17            ..                                         MAIN0145
      00242  0 00000 0 00033         PZE     $ETRAP        SET UP FOR DATA CHANNEL TRAP FROM 'E'      MAIN0146
      00243  0 00000 0 00023         PZE     19            ..                                         MAIN0147
      00244  0 00000 0 00034         PZE     $PTRAP        SET UP FOR PROTECTION TRAP                 MAIN0148
      00245  0 00000 0 00033         PZE     27            ..                                         MAIN0149
      00246  0 00000 0 00035         PZE     $COLD         SET UP FOR COLD START PROCEDURE            MAIN0150
      00247  0 00000 0 00034         PZE     28            ..                                         MAIN0151
      00250  0 00000 0 00614         PZE     =O3410037     SET UP COMMON ENABLE WORD                  MAIN0152
      00251  0 00000 0 77777         PZE     ENBWD         ..                                         MAIN0153
      00252  0 00000 0 00466         PZE     SYSID         SYSTEM FILE DIRECTORY NAME                 MAIN0154
      00253  0 00000 0 74631         PZE     CTSSID        ..                                         MAIN0155
      00254  0 00000 0 00467         PZE     SYSID+1       ..                                         MAIN0156
      00255  0 00000 0 74632         PZE     CTSSID+1      ..                                         MAIN0157
      00256  0 00000 0 00470         PZE     TSFID         SYSTEM PUBLIC FILE NAME                    MAIN0158
      00257  0 00000 0 72130         PZE     TSSFID        ..                                         MAIN0159
      00260  0 00000 0 00471         PZE     TSFID+1       ..                                         MAIN0160
      00261  0 00000 0 72131         PZE     TSSFID+1      ..                                         MAIN0161
      00262  0 00000 0 00472         PZE     RTSS          RESTRICTION CODE FOR TSS                   MAIN0162
      00263  0 00000 0 74633         PZE     TSRCOD        ..                                         MAIN0163
      00264  0 00000 0 00473         PZE     RBACK         .. FOR BACKGROUND                          MAIN0164
      00265  0 00000 0 76041         PZE     RCODE         ..                                         MAIN0165
      00266  0 00000 0 00474         PZE     RBKPRV        .. FOR PRIVILEGED BACKGROUND               MAIN0166
      00267  0 00000 0 74634         PZE     BKRPRV        ..                                         MAIN0167
      00270  0 00000 0 00475         PZE     RFIB          .. FOR FIB                                 MAIN0168
1       M1416 3845  PETER R. BOS ......... TSS INITIALIZATION ROUTINE .......    02/01/71 1520.1 PAGE 4

      00271  0 00000 0 76042         PZE     RCODE+1       ..                                         MAIN0169
      00272  0 00000 0 00476         PZE     RDAEM         .. FOR INCREMENTAL DUMPER                  MAIN0170
      00273  0 00000 0 76043         PZE     RCODE+2       ..                                         MAIN0171
      00274  0 00000 0 00500         PZE     RDUMMY        .. FOR DUMMY USER (IDLE TIME)              MAIN0172
      00275  0 00000 0 76111         PZE     RCODE+N       ..                                         MAIN0173
      00276  0 00000 0 00477         PZE     RFOREG        .. FOR FOREGROUND                          MAIN0174
      00277  0 00000 0 74635         PZE     FORCOD        ..                                         MAIN0175
      00300  0 00000 0 00563         PZE     =1            SET UP SCHEDL VARIABLES                    MAIN0176
      00301  0 00000 0 74614         PZE     MINLVL        ..                                         MAIN0177
      00302  0 00000 0 00572         PZE     =8            ..                                         MAIN0178
      00303  0 00000 0 74615         PZE     MAXLVL        ..                                         MAIN0179
      00304  0 00000 0 00565         PZE     =3            ..                                         MAIN0180
      00305  0 00000 0 74613         PZE     FULLVL        ..                                         MAIN0181
      00306  0 00000 0 00564         PZE     =2            ..                                         MAIN0182
      00307  0 00000 0 74612         PZE     EMPLVL        ..                                         MAIN0183
      00310  0 00000 0 00604         PZE     =4096         ..                                         MAIN0184
      00311  0 00000 0 74611         PZE     FULLEN        ..                                         MAIN0185
      00312  0 00000 0 00621         PZE     =O377777777777 ..                                        MAIN0186
      00313  0 00000 0 74610         PZE     QNTWAT        ..                                         MAIN0187
      00314  0 00000 0 00562         PZE     =0            ..                                         MAIN0188
      00315  0 00000 0 74607         PZE     LEVINC        ..                                         MAIN0189
      00316  0 00000 0 00611         PZE     =V36/60*60*60 ..                                         MAIN0190
      00317  0 00000 0 74606         PZE     INACTV        ..                                         MAIN0191
      00320  0 00000 0 00605         PZE     =V36/60*60*2  ..                                         MAIN0192
      00321  0 00000 0 74605         PZE     HANGUP        ..                                         MAIN0193
      00322  0 00000 0 00602         PZE     =V36/N        SET UP USER NO. OF DUMMY USER              MAIN0194
      00323  0 00000 0 74443         PZE     DUSER         ..                                         MAIN0195
      00324  0 00000 0 00600         PZE     =30           SET UP QLOAD VARIABLES                     MAIN0196
      00325  0 00000 0 74571         PZE     MXUSRS        ..                                         MAIN0197
      00326  0 00000 0 00600         PZE     =30           ..                                         MAIN0198
      00327  0 00000 0 74573         PZE     MXUSRS+Q.MIN  ..                                         MAIN0199
      00330  0 00000 0 00601         PZE     =V36/N-3      ..                                         MAIN0200
      00331  0 00000 0 74572         PZE     MXUSRS+Q.MAX  ..                                         MAIN0201
      00332  0 00000 0 00600         PZE     =30           ..                                         MAIN0202
      00333  0 00000 0 74560         PZE     QUANTM        ..                                         MAIN0203
      00334  0 00000 0 00577         PZE     =15           ..                                         MAIN0204
      00335  0 00000 0 74562         PZE     QUANTM+Q.MIN  ..                                         MAIN0205
      00336  0 00000 0 00603         PZE     =60           ..                                         MAIN0206
      00337  0 00000 0 74561         PZE     QUANTM+Q.MAX  ..                                         MAIN0207
      00340  0 00000 0 00606         PZE     =V36/60*60*5  ..                                         MAIN0208
      00341  0 00000 0 74574         PZE     MXUSRS+Q.UPDT ..                                         MAIN0209
      00342  0 00000 0 00606         PZE     =V36/60*60*5  ..                                         MAIN0210
      00343  0 00000 0 74575         PZE     MXUSRS+Q.DNDT ..                                         MAIN0211
      00344  0 00000 0 00606         PZE     =V36/60*60*5  ..                                         MAIN0212
      00345  0 00000 0 74563         PZE     QUANTM+Q.UPDT ..                                         MAIN0213
      00346  0 00000 0 00606         PZE     =V36/60*60*5  ..                                         MAIN0214
      00347  0 00000 0 74564         PZE     QUANTM+Q.DNDT ..                                         MAIN0215
      00350  0 00000 0 00610         PZE     =V36/60*60*10 ..                                         MAIN0216
      00351  0 00000 0 74554         PZE     KILLDT        ..                                         MAIN0217
      00352  0 00000 0 00563         PZE     =1            ..                                         MAIN0218
      00353  0 00000 0 74600         PZE     MXUSRS+Q.UPVR ..                                         MAIN0219
      00354  0 00000 0 00563         PZE     =1            ..                                         MAIN0220
      00355  0 00000 0 74601         PZE     MXUSRS+Q.DNVR ..                                         MAIN0221
      00356  0 00000 0 00567         PZE     =5            ..                                         MAIN0222
      00357  0 00000 0 74567         PZE     QUANTM+Q.UPVR ..                                         MAIN0223
      00360  0 00000 0 00567         PZE     =5            ..                                         MAIN0224
1       M1416 3845  PETER R. BOS ......... TSS INITIALIZATION ROUTINE .......    02/01/71 1520.1 PAGE 5

      00361  0 00000 0 74570         PZE     QUANTM+Q.DNVR ..                                         MAIN0225
      00362  0 00000 0 00616         PZE     =10000.       ..                                         MAIN0226
      00363  0 00000 0 74557         PZE     QMAX          ..                                         MAIN0227
      00364  0 00000 0 00616         PZE     =10000.       ..                                         MAIN0228
      00365  0 00000 0 74556         PZE     QMIN          ..                                         MAIN0229
      00366  0 00000 0 00617         PZE     =15000.       ..                                         MAIN0230
      00367  0 00000 0 74555         PZE     QKILL         ..                                         MAIN0231
      00370  0 00000 0 00370         PZE     *             ..                                         MAIN0232
      00371  0 00000 0 74551         PZE     KILLSW        ..                                         MAIN0233
      00372  0 00000 0 00000         PZE     0             INDICATE WE ARE DISABLED                   MAIN0234
      00373  0 00000 0 74526         PZE     ENBSW         ..                                         MAIN0235
      00374  0 00000 0 00610         PZE     =V36/60*60*10 SET UP INTERVAL FOR READING CHRONOLOG      MAIN0236
      00375  0 00000 0 74452         PZE     RCLKDT        ..                                         MAIN0237
      00376  0 00000 0 00576         PZE     =12           SET UP CLOCK TRAP INTERVAL                 MAIN0238
      00377  0 00000 0 74453         PZE     CLKTIM        ..                                         MAIN0239
      00400  0 00000 0 00625         PZE     =H SAVED      CONSTANTS                                  MAIN0240
      00401  0 00000 0 74636         PZE     SAVED         ..                                         MAIN0241
      00402  0 00000 0 00626         PZE     =HTSSDC.      ..                                         MAIN0242
      00403  0 00000 0 74637         PZE     TSSDC.        ..                                         MAIN0243
      00404  0 00000 0 00620         PZE     =HCMFL00      ..                                         MAIN0244
      00405  0 00000 0 74640         PZE     CMFL00        ..                                         MAIN0245
      00406  0 00000 0 00631         PZE     =O777777777777 ..                                        MAIN0246
      00407  0 00000 0 74641         PZE     FENCE         ..                                         MAIN0247
      00410  0 00000 0 00624         PZE     =O606060606060 ..                                        MAIN0248
      00411  0 00000 0 74642         PZE     BLANKS        ..                                         MAIN0249
      00412  0 00000 0 00623         PZE     =O575757575757 ..                                        MAIN0250
      00413  0 00000 0 74643         PZE     NULLS         ..                                         MAIN0251
      00414  0 00000 0 00630         PZE     =O777777000000 ..                                        MAIN0252
      00415  0 00000 0 74644         PZE     LMASK         ..                                         MAIN0253
      00416  0 00000 0 00613         PZE     =O000000777777 ..                                        MAIN0254
      00417  0 00000 0 74645         PZE     RMASK         ..                                         MAIN0255
      00420  0 00000 0 00627         PZE     =O700000000000 ..                                        MAIN0256
      00421  0 00000 0 74646         PZE     PMASK         ..                                         MAIN0257
      00422  0 00000 0 00615         PZE     =O077777000000 ..                                        MAIN0258
      00423  0 00000 0 74647         PZE     DMASK         ..                                         MAIN0259
      00424  0 00000 0 00612         PZE     =O000000700000 ..                                        MAIN0260
      00425  0 00000 0 74650         PZE     TMASK         ..                                         MAIN0261
      00426  0 00000 0 00607         PZE     =O000000077777 ..                                        MAIN0262
      00427  0 00000 0 74651         PZE     AMASK         ..                                         MAIN0263
      00430  0 00000 0 00570         PZE     =V36/B+P      MEMORY FLAGS                               MAIN0264
      00431  0 00000 0 74652         PZE     LB            ..                                         MAIN0265
      00432  0 00000 0 00563         PZE     =V36/A        ..                                         MAIN0266
      00433  0 00000 0 74653         PZE     LA            ..                                         MAIN0267
      00434  0 00000 0 00622         PZE     =-0           LITERALS                                   MAIN0268
      00435  0 00000 0 74654         PZE     M0            ..                                         MAIN0269
      00436  0 00000 0 00576         PZE     =12           ..                                         MAIN0270
      00437  0 00000 0 74655         PZE     Q12           ..                                         MAIN0271
      00440  0 00000 0 00575         PZE     =11           ..                                         MAIN0272
      00441  0 00000 0 74656         PZE     Q11           ..                                         MAIN0273
      00442  0 00000 0 00574         PZE     =10           ..                                         MAIN0274
      00443  0 00000 0 74657         PZE     Q10           ..                                         MAIN0275
      00444  0 00000 0 00573         PZE     =9            ..                                         MAIN0276
      00445  0 00000 0 74660         PZE     Q9            ..                                         MAIN0277
      00446  0 00000 0 00572         PZE     =8            ..                                         MAIN0278
      00447  0 00000 0 74661         PZE     Q8            ..                                         MAIN0279
      00450  0 00000 0 00571         PZE     =7            ..                                         MAIN0280
1       M1416 3845  PETER R. BOS ......... TSS INITIALIZATION ROUTINE .......    02/01/71 1520.1 PAGE 6

      00451  0 00000 0 74662         PZE     Q7            ..                                         MAIN0281
      00452  0 00000 0 00570         PZE     =6            ..                                         MAIN0282
      00453  0 00000 0 74663         PZE     Q6            ..                                         MAIN0283
      00454  0 00000 0 00567         PZE     =5            ..                                         MAIN0284
      00455  0 00000 0 74664         PZE     Q5            ..                                         MAIN0285
      00456  0 00000 0 00566         PZE     =4            ..                                         MAIN0286
      00457  0 00000 0 74665         PZE     Q4            ..                                         MAIN0287
      00460  0 00000 0 00565         PZE     =3            ..                                         MAIN0288
      00461  0 00000 0 74666         PZE     Q3            ..                                         MAIN0289
      00462  0 00000 0 00564         PZE     =2            ..                                         MAIN0290
      00463  0 00000 0 74667         PZE     Q2            ..                                         MAIN0291
      00464  0 00000 0 00563         PZE     =1            ..                                         MAIN0292
      00465  0 00000 0 74670         PZE     Q1            ..                                         MAIN0293
                       00244  INITN  EQU     *-IWORD       SIZE OF TABLE                              MAIN0294
                                                                                                      MAIN0295
      00466                   SYSID  CTSSID                                                           MAIN0296
      00470                   TSFID  TSSFID                                                           MAIN0297
                                                                                                      MAIN0298
      00472  000020000016     RTSS   VFD     O18/UPRCBT,O18/RPRVBT+RPROBT+RCALBT                      MAIN0299
      00473  016001000000     RBACK  VFD     O18/UBACBT+NFORBT+NFIBBT+NDEMBT                          MAIN0300
                              RBKPRV VFD     O18/UBACBT+UPRCBT+NFORBT+NFIBBT+NDEMBT,                  MAIN0301
      00474  016021000036            ETC     O18/RPATBT+RPRVBT+RPROBT+RCALBT                          MAIN0302
      00475  013004000000     RFIB   VFD     O18/UFIBBT+NBACBT+NFORBT+NDEMBT                          MAIN0303
      00476  007010000000     RDAEM  VFD     O18/UDEMBT+NBACBT+NFORBT+NFIBBT                          MAIN0304
      00477  015002000000     RFOREG VFD     O18/UFORBT+NBACBT+NFIBBT+NDEMBT                          MAIN0305
      00500  017000000000     RDUMMY VFD     O18/NBACBT+NFORBT+NFIBBT+NDEMBT                          MAIN0306
                                                                                                      MAIN0307
      00501  0 00631 0 00062  INPBUF PZE     HITRAP+1,,END LIMITS OF COMMON INPUT BUFFER              MAIN0308
                                                                                                      MAIN0309
      00502                          RMT     *                                                        MAIN0310
                                                                                                      MAIN0312
                       00036         ORG     0                                                        MAIN0313
                       00524  LCMBF  EQU     340           MINIMUM SIZE OF INPUT BUFFER               MAIN0314
      00036                          BSS     LCMBF         ..                                         MAIN0315
                              END    END                                                              MAIN0316

        LITERALS
      00562  000000000000
      00563  000000000001
      00564  000000000002
      00565  000000000003
      00566  000000000004
      00567  000000000005
      00570  000000000006
      00571  000000000007
      00572  000000000010
      00573  000000000011
      00574  000000000012
      00575  000000000013
      00576  000000000014
      00577  000000000017
      00600  000000000036
      00601  000000000045
      00602  000000000050
      00603  000000000074
      00604  000000010000
1       M1416 3845  PETER R. BOS ......... TSS INITIALIZATION ROUTINE .......    02/01/71 1520.1 PAGE 7

      00605  000000016040
      00606  000000043120
      00607  000000077777
      00610  000000106240
      00611  000000645700
      00612  000000700000
      00613  000000777777
      00614  000003410037
      00615  077777000000
      00616  216470400000
      00617  216724600000
      00620  234426430000
      00621  377777777777
      00622  400000000000
      00623  575757575757
      00624  606060606060
      00625  606221652524
      00626  636262242333
      00627  700000000000
      00630  777777000000
      00631  777777777777
1       M1416 3845  PETER R. BOS ......... TSS INITIALIZATION ROUTINE .......    02/01/71 1520.1 PAGE 1
                        POST PROCESSOR ASSEMBLY DATA

       72127 IS THE LAST LOCATION NOT USED BY THIS PROGRAM
        632 IS THE FIRST LOCATION NOT USED BY THIS PROGRAM

0REFERENCES TO DEFINED SYMBOLS
         50      N    63,   65,  275
      74653     LA   141,  142,  143,  433
      74652     LB   431
      74654     M0   435
      74670     Q1   465
      74667     Q2   463
      74666     Q3   461
      74665     Q4   457
      74664     Q5   455
      74663     Q6   453
      74662     Q7   451
      74661     Q8   447
      74660     Q9   445
        631    END   210,  501
      74657    Q10   443
      74656    Q11   441
      74655    Q12   437
         35   COLD   246
         16   INIT   174
      73315   Q1U1   122,  123
      72627   Q1U2   154,  155
      73315   Q3U1   124
      72556   Q3U2   156
      74557   QMAX   363
      74556   QMIN   365
        475   RFIB   270
        472   RTSS   262
      74651  AMASK   427
         30  ATRAP   234
         31  BTRAP   236
         21  CYCLE   205,  211
      74647  DMASK   135,  423
         32  DTRAP   240
      74443  DUSER   323
      74526  ENBSW   104,  373
      77777  ENBWD    42,   43,  105,  114,  251
         33  ETRAP   242
      74641  FENCE   407
        244  INITN    57,   60,   61,  466
        222  IWORD    60,   61,  222,  466
        524  LCMBF    36
      74644  LMASK   415
         20  LOGIN    56
      74643  NULLS   413
         27  PANIC   232
      74646  PMASK   421
      72157  PRIND   163
         34  PTRAP   244
          1  Q.MAX   331,  337
          2  Q.MIN   327,  335
1       M1416 3845  PETER R. BOS ......... TSS INITIALIZATION ROUTINE .......    02/01/71 1520.1 PAGE 2
                        POST PROCESSOR ASSEMBLY DATA

      74555  QKILL   367
        473  RBACK   264
      76041  RCODE    65,  161,  265,  271,  273,  275
        476  RDAEM   272
      74645  RMASK   417
      74636  SAVED   401
         11  SETAB   140
        466  SYSID   252,  254
      74650  TMASK   425
        470  TSFID   256,  260
          5  USTAT   120,  152
         60 AFS1LN   121
        366 AFS2LN   153
      73362 AFSTU1   121
      72727 AFSTU2   153
         12 ATTACH   144
      74634 BKRPRV   267
      74642 BLANKS   411
         15 CBINIT   207
         14 CHANLI   202
          4 CHNGUS   116,  150,  166
         25 CLKINT   226
      74453 CLKTIM   377
      74640 CMFL00   405
      75575 COMMND   175
      74631 CTSSID   145,  146,  253,  255
      74500 DATEYR   112
         24 DDTRAP   224
      74612 EMPLVL   307
         17 EPRINT   212
          2 FIOERR   106,  111
         26 FLPTRP   230
      74635 FORCOD    64,  277
      74611 FULLEN   311
      74613 FULLVL   305
      74605 HANGUP   321
         61 HITRAP    36,   37,   40,  210,  501
          7 IFUNCT   125,  130
      74606 INACTV   317
         22 INPBND   204
        501 INPBUF   203
          3 IOINIT   110
      74554 KILLDT   351
      74551 KILLSW   371
      74607 LEVINC   315
      72127 LOWCOM    42
      74615 MAXLVL   303
      74614 MINLVL   301
      74571 MXUSRS   325,  327,  331,  341,  343,  353,  355
       1000 NBACBT   475,  476,  477,  500
      10000 NDEMBT   473,  474,  475,  477,  500
       4000 NFIBBT   473,  474,  476,  477,  500
       2000 NFORBT   473,  474,  475,  476,  500
        215 NOINCM   213
        212 NOINIT   115,  147
1       M1416 3845  PETER R. BOS ......... TSS INITIALIZATION ROUTINE .......    02/01/71 1520.1 PAGE 3
                        POST PROCESSOR ASSEMBLY DATA

         45 Q1U1LN   122
        100 Q1U2LN   154
          0 Q3U1LN   124
         51 Q3U2LN   156
          4 Q.DNDT   343,  347
         10 Q.DNVR   355,  361
          3 Q.UPDT   341,  345
          7 Q.UPVR   353,  357
      74610 QNTWAT   313
      74560 QUANTM   333,  335,  337,  345,  347,  357,  361
        474 RBKPRV   266
          2 RCALBT   472,  474
      74452 RCLKDT   375
          0 RCLOCK    75
        500 RDUMMY   274
        477 RFOREG   276
         20 RPATBT   474
          4 RPROBT   472,  474
         10 RPRVBT   472,  474
         13 SCHEDL   100,  170,  176
         10 SETRAP   127
          6 SETUSR   131,  157
          1 STCLOC    77
         23 STRTRP   222
      74477 SYSNAM    45
      74476 TIMNOW   113
      74633 TSRCOD   133,  263
      74637 TSSDC.   403
      72130 TSSFID   257,  261
          1 UBACBT   473,  474
         10 UDEMBT   476
          4 UFIBBT   475
          2 UFORBT   477
         20 UPRCBT   472,  474

0 NO ERROR IN ABOVE ASSEMBLY.


CLOC8H   BCD 05/26/71 1710.5   12550         00000
1            M1416 786 ..... R. DALEY ..... CLOCK CONTROL SECTION ............   05/03/71 1621.4 PAGE 1

                                                                                                      CLOC0002
                              *  MODIFIED MARCH 1969 FOR NEW COMMAND PROCESSOR ..... P.R. BOS         CLOC0003
                                                                                                      CLOC0004
                                                                                                      CLOC0007
                       00026         ENTRY   STCLOC        ENTRY TO START UP INTERVAL TIMER CLOCK     CLOC0008
                       00036         ENTRY   CLKINT        ENTRY ON ALL INTERVAL TIMER CLOCK TRAPS    CLOC0009
                       00543         ENTRY   GETOTL        ENTRY TO GET TOTAL TIME CTSS HAS RUN       CLOC0010
                       00551         ENTRY   ADDTIM        ENTRY TO UPDATE TIMES USED                 CLOC0011
                       00622         ENTRY   NOTIM         ENTRY TO SET USER NOTIME SWITCH            CLOC0012
                       00645         ENTRY   TRACSW        POINTER TO TRAP TRACE SWITCH               CLOC0013
                       00642         ENTRY   DOWNSW        POINTER TO GODOWN SWITCH                   CLOC0014
                                                                                                      CLOC0015
                                     EXTERN  ALLRST,ALLSAV,BKSERV,BTDC,BTOC,CMEXIT,CORDMP             CLOC0016
                                     EXTERN  CTIME,CYCLE,WRTOPR,KILL,NZL,RCLOCK,RSSRB,SAVCPU          CLOC0017
                                     EXTERN  SCHEDL,SETSWS,TAPKEY,UPCLOC                              CLOC0018
                                                                                                      CLOC0019
                                                                                                      CLOC0021
                                     UNLIST                                                           CLOC0022

                       00011  PANIC  EQU     9             PANIC TRANSFER LOCATION                    CLOC0028
                                                                                                      CLOC0029
                                                                                                      CLOC0030
                       00005  CLOCK. EQU     5             LOCATION OF INTERVAL TIMER                 CLOC0031
                       00006  CLKLOC SYN     CLOCK.+1      LOC OF CURRENT ILC, SAVED ON CLOCK TRAP    CLOC0032
                                                                                                      CLOC0033
                       00005  FMSKY  EQU     5             FMS KEY SETTINGS (0-5)                     CLOC0034
                       00001  BKPBKY EQU     1             BACKGROUND PERCENTAGE (6)                  CLOC0035
                       00004  TAPEKY EQU     4             TAPE STRATEGY MODULE (7-12)                CLOC0036
                       00001  DUMPKY EQU     1             DUMP CORE (13)                             CLOC0037
                       00001  TRACKY EQU     1             TRAP TRACE (14)                            CLOC0038
                       00003  LOGKY  EQU     3             AUTOMATIC LOGOUT (15-17)                   CLOC0039
                       00010  DAEMKY EQU     8             DAEMON KEYS (20-27)                        CLOC0040
                       00001  BCLKON EQU     1             FMS CLOCK ON KEY (30)                      CLOC0041
                       00001  BCLKOF EQU     1             FMS CLOCK OFF KEY (31)                     CLOC0042
                       00001  TSSDUN EQU     1             BRING CTSS DOWN (32)                       CLOC0043
                       00001  BKCMKY EQU     1             BACKGROUND COMMAND (33)                    CLOC0044
                       00001  TRACOF EQU     1             RESET TRAP TRACE (34)                      CLOC0045
                       00001  PRTKY  EQU     1             ONLINE PRINTER (35)                        CLOC0046
                       00002  CLOCKY EQU     2             CHRONOLOG CLOCK (36-37)                    CLOC0047
                                                                                                      CLOC0048
                                                                                                      CLOC0049
                              *  *  *  *  *  *  *  *  *  *  *  *  *  *  *  *  *  *  *  *  *  *  *  *  CLOC0050
                                                                                                      CLOC0051
                                             STCLOC ..... RESTART INTERVAL TIMER FOR 'CLKTIM'         CLOC0052
                                                                                                      CLOC0053
      00026 -0500 00 0 74453  STCLOC CAL     CLKTIM        RESTART CLOCK TO RUN FOR CLKTIM            CLOC0054
      00027  0760 00 0 00006         COM                   ..                                         CLOC0055
      00030  0400 00 0 74670         ADD     Q1            ..                                         CLOC0056
      00031  0560 00 0 00005         LDQ     CLOCK.        .. PICK UP CURRENT VALUE                   CLOC0057
      00032  0601 00 0 00005         STO     CLOCK.        .. DONT STORE SIGN BIT                     CLOC0058
      00033  0131 00 0 00000         XCA                   ..                                         CLOC0059
      00034  0400 00 0 74453         ADD     CLKTIM        .. COMPUTE TIME SINCE CLOCK STARTED        CLOC0060
      00035  0020 00 4 00001         TRA     1,4           ..                                         CLOC0061
                                                                                                      CLOC0062
1            M1416 786 ..... R. DALEY ..... CLOCK CONTROL SECTION ............   05/03/71 1621.4 PAGE 2

                                                                                                      CLOC0064
                                             CLKINT ..... ENTRY ON INTERVAL TIMER RUNOUT ............ CLOC0065
                                                                                                      CLOC0066
      00036  0564 00 0 74671  CLKINT ENB     Q0            HERE ON ALL CLOCK TRAPS                    CLOC0067
      00037  0634 00 4 00637         SXA     CLKIR4,4      ..                                         CLOC0068
      00040  0074 00 4 00001         TSX     ALLSAV,4      SAVE USER MACHINE CONDITIONS               CLOC0069
      00041 -0500 00 0 00006         CAL     CLKLOC        PICK UP RETURN LOCATION                    CLOC0070
      00042  0602 00 0 00636         SLW     CTMP1.        ..                                         CLOC0071
      00043  0322 00 0 00652         ERA     PCTRP         DID WE TRAP FROM THE PANIC TRANSFER LOC.   CLOC0072
      00044 -0100 00 0 00050         TNZ     *+4           ..                                         CLOC0073
      00045  0074 00 4 00000         TSX     ALLRST,4      .. YES, RESTORE MACHINE CONDITIONS         CLOC0074
      00046  0534 00 4 00637         LXA     CLKIR4,4      ..                                         CLOC0075
      00047  0020 00 0 00011         TRA     PANIC         .. AND GO TAKE DUMP.                       CLOC0076
                                                                                                      CLOC0077
      00050  0500 00 0 00005         CLA     CLOCK.        CHECK FOR DELAYED TRAP                     CLOC0078
      00051  0361 00 0 74453         ACL     CLKTIM        ..                                         CLOC0079
      00052 -0320 00 0 01012         ANA     =O377777777777 .. IN CASE OF CARRY TO P-BIT              CLOC0080
      00053  0402 00 0 00734         SUB     OKTIM         .. IS IT WORTH COMPLAINING ABOUT           CLOC0081
      00054 -0120 00 0 00067         TMI     CLINT.        .. NO, IGNORE DELAY                        CLOC0082
      00055  0560 00 0 00005         LDQ     CLOCK.        PICK UP CLOCK CONTENTS FOR PRINTING        CLOC0083
      00056  0074 00 4 00004         TSX     BTOC,4        .. CONVERT FOR MESSAGE                     CLOC0084
      00057  0602 00 0 00740         SLW     DELAY+3       ..                                         CLOC0085
      00060  0074 00 4 00004         TSX     BTOC,4        ..                                         CLOC0086
      00061  0602 00 0 00741         SLW     DELAY+4       ..                                         CLOC0087
      00062  0560 00 0 74476         LDQ     TIMNOW        TIME OF DAY IS INTERESTING TOO             CLOC0088
      00063  0074 00 4 00007         TSX     CTIME,4       ..                                         CLOC0089
      00064  0602 00 0 00746         SLW     DELAY+9       ..                                         CLOC0090
      00065  0074 00 4 00011         TSX     WRTOPR,4      PRINT MESSAGE ON-LINE                      CLOC0091
      00066  0 00012 0 00735         PZE     DELAY,,10     ..                                         CLOC0092
                                                                                                      CLOC0093
      00067  0074 00 4 00551  CLINT. TSX     ADDTIM,4      UPDATE ALL TIME COUNTERS                   CLOC0094
                                                                                                      CLOC0095
      00070 -0774 00 1 00001         AXC     1,1           CHECK USER QUIT, NOTIME, ETC.              CLOC0096
      00071  0636 00 1 00640  CKUSR. SCA     UTEMP,1       SAVE USER NO. OF THIS USER                 CLOC0097
      00072  0500 00 1 77726         CLA     STATUS,1      .. PICK UP USER STATUS                     CLOC0098
      00073  0734 00 2 00000         PAX     ,2            ..                                         CLOC0099
      00074                          ZETBIT  USROPT,1,NINTBT+NKILBT  IS THIS USER INHIBITED           CLOC0100
      00076  3 00001 2 00135         TXH     CKEND.,2,1    .. FROM AUTOLOGOUTS                        CLOC0101
      00077  0441 00 1 75524         LDI     USWICH,1      SEE IF USER OUT OF TIME                    CLOC0102
      00100  0054 00  000001         RFT     NOTIME        ..                                         CLOC0103
      00101 -0054 00  010000         LFT     LOGTBT        AND NOT ALREADY LOGGING OUT                CLOC0104
      00102  0020 00 0 00135         TRA     CKEND.        ..                                         CLOC0105
      00103 -0520 00 1 76500         NZT     PROBN,1       IS THIS USER LOGGED IN                     CLOC0106
      00104  0020 00 0 00110         TRA     CKUSR1        .. NO, GO HANG UP PHONE                    CLOC0107
      00105                          CALL    KILL(UTEMP)   .. YES, LOG HIM OUT NOW                    CLOC0108
      00107  0020 00 0 00135         TRA     CKEND.        .. AND SKIP                                CLOC0109
                                                                                                      CLOC0110
      00110  3 77775 1 00135  CKUSR1 TXH     CKEND.,1,-3   DON'T BOTHER TO HANG UP FIB, DAEMON        CLOC0111
      00111                          WTYPE   UTEMP,(/HANGUP/) HANGUP INACTIVE LINE                    CLOC0112
      00115                          WRTYPE  A,HNGCOD,1,UTEMP,1 ..                                    CLOC0113
      00121 -0500 00 0 00640         CAL     UTEMP         ERASE THIS LOGICAL UNIT NO.                CLOC0114
      00122  0074 00 4 00025         TSX     $ERSUNI,4     ..                                         CLOC0115
      00123  0600 00 1 75646         STZ     UNITID,1      FREE HIS ID NO.                            CLOC0116
      00124  0600 00 1 75065         STZ     ADOPT,1       LEAVE HIM UNADOPTABLE                      CLOC0117
      00125  0600 00 1 75770         STZ     USROPT,1      RESET ALL USER SWITCHES                    CLOC0118
      00126  0600 00 1 75524         STZ     USWICH,1      ..                                         CLOC0119
1            M1416 786 ..... R. DALEY ..... CLOCK CONTROL SECTION ............   05/03/71 1621.4 PAGE 3

      00127                          SCHEDL  Q2,UTEMP,Q0   PLACE IN DEAD STATUS                       CLOC0120
      00133  0074 00 4 00015         TSX     RSSRB,4       RESET ANY INPUT                            CLOC0121
      00134  3 00000 0 00640         PAR     UTEMP         ..                                         CLOC0122
                                                                                                      CLOC0123
      00135  1 77777 1 00136  CKEND. TXI     *+1,1,-1      COUNT USERS                                CLOC0124
      00136  3 77727 1 00071         TXH     CKUSR.,1,-N-1 ONWARD...                                  CLOC0125
                                                                                                      CLOC0126
1            M1416 786 ..... R. DALEY ..... CLOCK CONTROL SECTION ............   05/03/71 1621.4 PAGE 4

                                                                                                      CLOC0128
                                             SKPROC ... HERE AFTER ALL USER CONSOLES SERVICED ....... CLOC0129
                                                                                                      CLOC0130
      00137  0760 00 0 00004  SKPROC ENK                   PICK UP CONSOLE KEYS                       CLOC0131
      00140 -0600 00 0 00641         STQ     CLKEYS        .. SAVE THEM                               CLOC0132
      00141  0441 00 0 00641         LDI     CLKEYS        KEYS TO SI                                 CLOC0133
      00142  0056 00  040000         RNT     40000         IS KEY '21' DOWN                           CLOC0134
      00143  0020 00 0 00331         TRA     KEYSUP        NO, SKIP                                   CLOC0135
      00144  0520 00 0 00644         ZET     KEYSW         YES, IS THIS A PREVIOUS REQUEST            CLOC0136
      00145  0020 00 0 00355         TRA     ENDKEY        YES, CHECK FOR TIME EXCEEDED               CLOC0137
      00146 -0625 00 0 00644         STL     KEYSW         NO, SERVICE NEW KEY REQUEST                CLOC0138
      00147  0600 00 0 00651         STZ     KEYTIM        ..                                         CLOC0139
      00150  0074 00 4 00004         TSX     BTOC,4        ..                                         CLOC0140
      00151  0602 00 0 00761         SLW     KEYSRD+2      ..                                         CLOC0141
      00152  0074 00 4 00004         TSX     BTOC,4        ..                                         CLOC0142
      00153  0602 00 0 00762         SLW     KEYSRD+3      ..                                         CLOC0143
      00154  0560 00 0 74476         LDQ     TIMNOW        ..                                         CLOC0144
      00155  0074 00 4 00007         TSX     CTIME,4       ..                                         CLOC0145
      00156  0602 00 0 00764         SLW     KEYSRD+5      ..                                         CLOC0146
      00157  0074 00 4 00011         TSX     WRTOPR,4      TELL OPERATOR THAT KEYS HAVE BEEN READ     CLOC0147
      00160  0 00006 0 00757                 KEYSRD,,6     ..                                         CLOC0148
      00161 -0500 00 0 00641         CAL     CLKEYS        RESTORE KEYS TO AC                         CLOC0149
      00162 -0320 00 0 01006         ANA     =O7777        IGNORE ALL BUT KEYS 24-35                  CLOC0150
      00163  0734 00 2 00000         PAX     0,2           C(KEYS 24-35) TO IR2                       CLOC0151
      00164 -2 00005 2 00205         TNX     K0,2,FMSKY    FMS (0-5)                                  CLOC0152
      00165 -2 00001 2 00211         TNX     K1,2,BKPBKY   BACKGROUND PB (6)                          CLOC0153
      00166 -2 00004 2 00226         TNX     K2,2,TAPEKY   TAPE STRATEGY (7-12)                       CLOC0154
      00167 -2 00001 2 00232         TNX     K3,2,DUMPKY   DUMP CORE (13)                             CLOC0155
      00170 -2 00001 2 00236         TNX     K4,2,TRACKY   TRAP TRACE (14)                            CLOC0156
      00171 -2 00003 2 00240         TNX     K5,2,LOGKY    AUTOMATIC LOGOUT (15-17)                   CLOC0157
      00172 -2 00010 2 00267         TNX     K6,2,DAEMKY   STORAGE DAEMON (20-27)                     CLOC0158
      00173 -2 00001 2 00272         TNX     K7,2,BCLKON   FMS CLOCK ON  (30)                         CLOC0159
      00174 -2 00001 2 00276         TNX     K8,2,BCLKOF   FMS CLOCK OFF  (31)                        CLOC0160
      00175 -2 00001 2 00302         TNX     K9,2,TSSDUN   BRING CTSS DOWN (32)                       CLOC0161
      00176 -2 00001 2 00312         TNX     K10,2,BKCMKY  BACKGROUND COMMAND (33)                    CLOC0162
      00177 -2 00001 2 00313         TNX     K11,2,TRACOF  TRAP TRACE OFF (34)                        CLOC0163
      00200 -2 00001 2 00315         TNX     K12,2,PRTKY   ONLINE PRINTER (35)                        CLOC0164
      00201 -2 00002 2 00323         TNX     K13,2,CLOCKY  CHRONOLOG CLOCK (36-37)                    CLOC0165
      00202  0074 00 4 00011         TSX     WRTOPR,4      HERE FOR ILLEGAL KEY SETTING               CLOC0166
      00203  0 00010 0 00747                 KEYSNG,,8     ..                                         CLOC0167
      00204  0020 00 0 00363         TRA     SKPKEY                                                   CLOC0168
                                                                                                      CLOC0169
      00205  0634 00 2 00641  K0     SXA     CLKEYS,2      HERE FOR FMS REQUEST                       CLOC0170
      00206  0074 00 4 00002         TSX     BKSERV,4      CALL BACKGROUND PROCESSOR                  CLOC0171
      00207  3 00000 0 00641         PAR     CLKEYS        .. WITH KEY SETTING                        CLOC0172
      00210  0020 00 0 00363         TRA     SKPKEY        ..                                         CLOC0173
                                                                                                      CLOC0174
      00211  0600 00 0 77340  K1     STZ     WRKTIM        HERE TO RAISE BACKGROUND PERCENTAGE        CLOC0175
      00212 -0500 00 0 74472         CAL     TOTTIM        ..                                         CLOC0176
      00213  0602 00 0 77411         SLW     STRTIM        ..                                         CLOC0177
      00214 -0500 00 0 74672         CAL     PB            PICK UP CURRENT VALUE                      CLOC0178
      00215  0400 00 0 74664         ADD     Q5            .. INCREMENT                               CLOC0179
      00216  0602 00 0 74672         SLW     PB            .. PUT BACK                                CLOC0180
      00217 -0130 00 0 00000         XCL                   ..                                         CLOC0181
      00220  0074 00 4 00003         TSX     BTDC,4        CONVERT FOR PRINTING                       CLOC0182
      00221  0074 00 4 00013         TSX     NZL,4         ..                                         CLOC0183
1            M1416 786 ..... R. DALEY ..... CLOCK CONTROL SECTION ............   05/03/71 1621.4 PAGE 5

      00222  0602 00 0 00777         SLW     PCT           ..                                         CLOC0184
      00223  0074 00 4 00011         TSX     WRTOPR,4      PRINT MESSAGE TO OPERATOR                  CLOC0185
      00224  0 00006 0 00772         PZE     PCTCOM,,6     .. CONFIRMING NEW PERCENTAGE               CLOC0186
      00225  0020 00 0 00363         TRA     SKPKEY        ..                                         CLOC0187
                                                                                                      CLOC0188
      00226  0634 00 2 00641  K2     SXA     CLKEYS,2      HERE FOR TAPE CONTROL KEYS                 CLOC0189
      00227  0074 00 4 00021         TSX     TAPKEY,4      CALL TAPE STRATEGY MODULE                  CLOC0190
      00230  3 00000 0 00641         PTH     CLKEYS        .. WITH KEY SETTING                        CLOC0191
      00231  0020 00 0 00363         TRA     SKPKEY                                                   CLOC0192
                                                                                                      CLOC0193
      00232  0074 00 4 00000  K3     TSX     ALLRST,4                                                 CLOC0194
      00233  0074 00 4 00006         TSX     CORDMP,4      HERE TO DUMP BOTH CORE MEMORIES            CLOC0195
      00234  3 00000 0 00637         PTH     CLKIR4                                                   CLOC0196
      00235  0020 00 0 00363         TRA     SKPKEY        DUMP WILL HTR, PROCEED NORMALLY            CLOC0197
                                                                                                      CLOC0198
      00236 -0625 00 0 00645  K4     STL     TRACSW        HERE TO SET TRAP TRACE MODE                CLOC0199
      00237  0020 00 0 00363         TRA     SKPKEY                                                   CLOC0200
                                                                                                      CLOC0201
      00240  0634 00 2 74454  K5     SXA     AUTOND,2      HERE TO SET UP FOR AUTOMATIC LOGOUT        CLOC0202
      00241 -0774 00 1 00001         AXC     1,1           START WITH USER 1                          CLOC0203
      00242  0441 00 1 75524  K5.1   LDI     USWICH,1      SEE IF USER ALREADY LOGGING OUT            CLOC0204
      00243 -0056 00  010000         LNT     LOGTBT        ..                                         CLOC0205
      00244 -0520 00 1 76500         NZT     PROBN,1       .. OR NOT LOGGED IN                        CLOC0206
      00245  0020 00 0 00264         TRA     K5.3          .. SKIP AUTOLOG PROCESSING IF SO           CLOC0207
      00246  3 00002 2 00255         TXH     K5.2,2,2      EVERYBODY GOES                             CLOC0208
      00247 -3 77775 1 00255         TXL     K5.2,1,-3     CONSOLE USER ALWAYS GOES                   CLOC0209
      00250 -3 77776 1 00264         TXL     K5.3,1,-2     LEAVE DUMPER LOGGED IN                     CLOC0210
      00251  3 00001 2 00255         TXH     K5.2,2,1      CLOBBER FIB USER.Q                         CLOC0211
      00252  0500 00 0 77727         CLA     STATUS+1      CHECK IF FIB IN FIB-WAIT                   CLOC0212
      00253  0402 00 0 74670         SUB     Q1            ..                                         CLOC0213
      00254 -0100 00 0 00264         TNZ     K5.3          NO, LEAVE FIB USER TO RUN                  CLOC0214
      00255  0636 00 1 00640  K5.2   SCA     UTEMP,1       SAVE USERNO.                               CLOC0215
      00256  0074 00 4 00622         TSX     NOTIM,4       SET UP USER FOR ENDLOG                     CLOC0216
      00257  3 00000 0 00640         PAR     UTEMP         ..                                         CLOC0217
      00260  3 00000 0 74670         PAR     Q1            .. NOTIME CODE 1, CTSS COMING DOWN         CLOC0218
      00261 -3 00001 2 00264         TXL     K5.3,2,1      SKIP FOR AUTOLOGOUT CODE 1                 CLOC0219
      00262  0074 00 4 00012         TSX     KILL,4        FOR CODE 2, 3 KILL USER ALSO               CLOC0220
      00263  3 00000 0 00640         PAR     UTEMP         ..                                         CLOC0221
      00264  1 77777 1 00265  K5.3   TXI     *+1,1,-1      COUNT USERS                                CLOC0222
      00265  3 77727 1 00242         TXH     K5.1,1,-N-1   DO FOR ALL LINE NUMBERS                    CLOC0223
      00266  0020 00 0 00363         TRA     SKPKEY                                                   CLOC0224
                                                                                                      CLOC0225
      00267  0634 00 2 74446  K6     SXA     DEMKEY,2      HERE TO SET UP OPTIONS FOR STORAGE DAEMON  CLOC0226
      00270  0601 00 0 75211         STO     AWAKE+2       INSURE DAEMON WAKES UP TO SEE IT           CLOC0227
      00271  0020 00 0 00363         TRA     SKPKEY                                                   CLOC0228
                                                                                                      CLOC0229
      00272                   K7     STLBIT  USROPT,0,CLKBIT HERE TO TURN ON BACKGROUND CLOCK         CLOC0230
      00275  0020 00 0 00363         TRA     SKPKEY                                                   CLOC0231
                                                                                                      CLOC0232
      00276                   K8     STZBIT  USROPT,0,CLKBIT HERE TO TURN OFF BACKGROUND CLOCK        CLOC0233
      00301  0020 00 0 00363         TRA     SKPKEY                                                   CLOC0234
                                                                                                      CLOC0235
      00302 -0520 00 0 74532  K9     NZT     NUSERS        ALL FOREGROUND USERS MUST BE LOGGED OUT    CLOC0236
      00303  0520 00 0 00642         ZET     DOWNSW        .. ONLY SET UP ONCE                        CLOC0237
      00304  0020 00 0 00363         TRA     SKPKEY        ..                                         CLOC0238
      00305 -0625 00 0 00642         STL     DOWNSW        SET SWITCH FOR MAIN CONTROL                CLOC0239
1            M1416 786 ..... R. DALEY ..... CLOCK CONTROL SECTION ............   05/03/71 1621.4 PAGE 6

      00306  0600 00 0 75770         STZ     USROPT        INSURE OPTION BITS RESET FOR FMS           CLOC0240
      00307  0074 00 4 00012         TSX     KILL,4        THIS GETS RID OF HIM ONE WAY OR ANOTHER    CLOC0241
      00310  3 00001 0 74671         PAR     Q0,,1         ..                                         CLOC0242
      00311  0020 00 0 00363         TRA     SKPKEY                                                   CLOC0243
                                                                                                      CLOC0244
      00312  1 00005 2 00205  K10    TXI     K0,2,FMSKY    CODE 33 IS BACKGROUND CODE 6               CLOC0245
                                                                                                      CLOC0246
      00313  0600 00 0 00645  K11    STZ     TRACSW        RESET TRAP TRACE MODE                      CLOC0247
      00314  0020 00 0 00363         TRA     SKPKEY                                                   CLOC0248
                                                                                                      CLOC0249
      00315 -0520 00 0 74535  K12    NZT     PRDOWN        HERE TO VARY PRINTER ON/OFF LINE           CLOC0250
      00316 -0500 00 0 00316         CAL     *             ..                                         CLOC0251
      00317  0520 00 0 74535         ZET     PRDOWN        ..                                         CLOC0252
      00320 -0754 00 0 00000         ZAC                   ..                                         CLOC0253
      00321  0602 00 0 74535         SLW     PRDOWN        SET SWITCH AFTER INVERTING                 CLOC0254
      00322  0020 00 0 00363         TRA     SKPKEY                                                   CLOC0255
                                                                                                      CLOC0256
      00323  3 00001 2 00327  K13    TXH     K13.1,2,1     SKIP IF OFFLINE SETTING                    CLOC0257
      00324  0600 00 0 74536         STZ     RCLKSW        SET CHRONOLOG CLOCK ONLINE                 CLOC0258
      00325  0600 00 0 00400         STZ     RCLKTM        CAUSE CHRONOLOG TO BE READ, 15 MIN. TOL.   CLOC0259
      00326  0020 00 0 00363         TRA     SKPKEY        ..                                         CLOC0260
      00327 -0625 00 0 74536  K13.1  STL     RCLKSW        SET CHRONOLOG OFFLINE ON REQUEST           CLOC0261
      00330  0020 00 0 00363         TRA     SKPKEY                                                   CLOC0262
                                                                                                      CLOC0263
      00331 -0520 00 0 00644  KEYSUP NZT     KEYSW         HERE IF KEY '21' UP                        CLOC0264
      00332  0020 00 0 00345         TRA     *+11          ..                                         CLOC0265
      00333  0600 00 0 00644         STZ     KEYSW         ..                                         CLOC0266
      00334  0074 00 4 00004         TSX     BTOC,4        ..                                         CLOC0267
      00335  0602 00 0 00766         SLW     RSTKEY+1      ..                                         CLOC0268
      00336  0074 00 4 00004         TSX     BTOC,4        ..                                         CLOC0269
      00337  0602 00 0 00767         SLW     RSTKEY+2      ..                                         CLOC0270
      00340  0560 00 0 74476         LDQ     TIMNOW        ..                                         CLOC0271
      00341  0074 00 4 00007         TSX     CTIME,4       ..                                         CLOC0272
      00342  0602 00 0 00771         SLW     RSTKEY+4      ..                                         CLOC0273
      00343  0074 00 4 00011         TSX     WRTOPR,4      ..                                         CLOC0274
      00344  0 00005 0 00765                 RSTKEY,,5     ..                                         CLOC0275
      00345 -0520 00 0 74444         NZT     BKGKEY        LEAVE PRIORITY SET IF REQUEST WAITING      CLOC0276
      00346 -0520 00 0 74445         NZT     BKGATT        DOES BACKGROUND HAVE PRIORITY              CLOC0277
      00347  0020 00 0 00363         TRA     SKPKEY        NO, SKIP                                   CLOC0278
      00350                          SCHEDL  Q7,Q0,Q0      YES, TAKE IT AWAY NOW                      CLOC0279
      00354  0020 00 0 00363         TRA     SKPKEY                                                   CLOC0280
                                                                                                      CLOC0281
      00355 -0500 00 0 00651  ENDKEY CAL     KEYTIM        HERE IF KEY '21' STILL DOWN                CLOC0282
      00356  0402 00 0 01005         SUB     =V36/15*60    IF LONGER THAN 15 SECONDS                  CLOC0283
      00357 -0120 00 0 00363         TMI     SKPKEY        ..                                         CLOC0284
      00360  0600 00 0 00651         STZ     KEYTIM        OPERATOR PROBABLY FORGOT                   CLOC0285
      00361  0074 00 4 00011         TSX     WRTOPR,4      REMIND HIM                                 CLOC0286
      00362  0 00004 0 01000         PZE     PP21UP,,4     ..                                         CLOC0287
                                                                                                      CLOC0288
1            M1416 786 ..... R. DALEY ..... CLOCK CONTROL SECTION ............   05/03/71 1621.4 PAGE 7

                                                                                                      CLOC0290
                                             SKPKEY ... HERE AFTER CONSOLE KEYS SERVICED              CLOC0291
                                                                                                      CLOC0292
      00363  0074 00 4 00026  SKPKEY TSX     STCLOC,4      RESTART INTERVAL TIMER FOR 'CLKTIM'        CLOC0293
      00364  0621 00 0 00643         STA     CHARGE        .. SAVE LENGTH OF PREVIOUS INTERVAL        CLOC0294
      00365  0400 00 0 74476         ADD     TIMNOW        ..                                         CLOC0295
      00366  0602 00 0 74476         SLW     TIMNOW        UPDATE TIME OF DAY                         CLOC0296
      00367 -0500 00 0 74472         CAL     TOTTIM        ..                                         CLOC0297
      00370  0400 00 0 00643         ADD     CHARGE        ..                                         CLOC0298
      00371  0602 00 0 74472         SLW     TOTTIM        UPDATE TOTAL TIME CTSS HAS RUN             CLOC0299
      00372  0402 00 0 00400         SUB     RCLKTM        .. IS IT TIME TO READ CHRONOLOG            CLOC0300
      00373  0120 00 0 00377         TPL     RDCLK         .. YES, DO SO                              CLOC0301
      00374 -0500 00 0 74476         CAL     TIMNOW        CHECK FOR TIME .G. 2400                    CLOC0302
      00375  0402 00 0 01007         SUB     =V36/24*60*60*60 ..                                      CLOC0303
      00376 -0120 00 0 00412         TMI     SKPKY1        .. NO, SKIP                                CLOC0304
      00377  0074 00 4 00014  RDCLK  TSX     RCLOCK,4      READ CHRONOLOG CLOCK, UPDATE TIME          CLOC0305
      00400  000000106240     RCLKTM VFD     36/10*60*60   .. SAVE A WORD HERE, A WORD THERE, ...     CLOC0306
      00401 -0500 00 0 00005         CAL     CLOCK.        INSURE WILL BE CORRECT NEXT TIME           CLOC0307
      00402  0401 00 0 74453         ADM     CLKTIM        .. AFTER UPDATED BY INTERVAL TIMER         CLOC0308
      00403 -0320 00 0 74651         ANA     AMASK         ..                                         CLOC0309
      00404 -0760 00 0 00003         SSM                   ..                                         CLOC0310
      00405  0400 00 0 74476         ADD     TIMNOW        .. NEEDED BECAUSE OF POSSIBLE TAPE WAIT    CLOC0311
      00406  0601 00 0 74476         STO     TIMNOW        .. WHILE IN RCLOCK SECTION                 CLOC0312
      00407 -0500 00 0 74472         CAL     TOTTIM        ..                                         CLOC0313
      00410  0400 00 0 74452         ADD     RCLKDT        .. COMPUTE NEXT TIME TO READ CLOCK         CLOC0314
      00411  0602 00 0 00400         SLW     RCLKTM        ..                                         CLOC0315
                                                                                                      CLOC0316
      00412  0774 00 4 00060  SKPKY1 AXT     NTBL,4        UPDATE ALL TIME INTEGRATORS                CLOC0317
      00413 -0520 00 4 00735         NZT     TBL+NTBL+2,4  ..                                         CLOC0318
      00414  0020 00 0 00420         TRA     *+4           SKIP IF NOTHING TO UPDATE                  CLOC0319
      00415  0560 60 4 00735         LDQ*    TBL+NTBL+2,4  PICK UP CURRENT VALUE                      CLOC0320
      00416  0260 00 0 01010         FMP     =.999         SCALE IT                                   CLOC0321
      00417  0601 60 4 00735         STO*    TBL+NTBL+2,4  PUT BACK                                   CLOC0322
      00420  2 00004 4 00413         TIX     SKPKY1+1,4,4  LOOP TILL DONE                             CLOC0323
                                                                                                      CLOC0324
      00421 -0774 00 1 00000         AXC     0,1           CHECK IF TIME TO AWAKE ANY SLEEPING USER   CLOC0325
      00422 -0500 00 1 75207  CAWAK1 CAL     AWAKE,1       CHECK ALARM CLOCK                          CLOC0326
      00423  0100 00 0 00454         TZE     CAWAK4        .. SKIP IF NOT SET                         CLOC0327
      00424  0402 00 0 00643         SUB     CHARGE        .. DECREMENT IT                            CLOC0328
      00425  0602 00 1 75207         SLW     AWAKE,1       .. PUT BACK                                CLOC0329
      00426  0100 00 0 00430         TZE     CAWAK2        IF ZERO, TIME TO WAKE UP USER              CLOC0330
      00427  0120 00 0 00454         TPL     CAWAK4        .. STILL TIME LEFT, SKIP                   CLOC0331
                                                                                                      CLOC0332
      00430  0600 00 1 75207  CAWAK2 STZ     AWAKE,1       HERE IF TIMER RAN OUT, RESET IT            CLOC0333
      00431 -0500 00 1 77726         CAL     STATUS,1      PICK UP USER CURRENT STATUS                CLOC0334
      00432  0734 00 2 00000         PAX     ,2            ..                                         CLOC0335
      00433 -3 00000 2 00454         TXL     CAWAK4,2,0    IGNORE IF USER DEAD                        CLOC0336
      00434 -3 00001 2 00437         TXL     CAWAK3,2,1    WAKE UP IF DORMANT (SLEEP)                 CLOC0337
      00435 -3 00003 2 00454         TXL     CAWAK4,2,3    IGNORE IF WORKING                          CLOC0338
      00436  3 00010 2 00454         TXH     CAWAK4,2,8    WAKE UP FOR ANY I/O WAIT                   CLOC0339
                                                                                                      CLOC0340
      00437  0636 00 1 00640  CAWAK3 SCA     UTEMP,1       SAVE USER NO. FOR SCHEDL                   CLOC0341
      00440  0441 00 1 76041         LDI     RCODE,1       PICK UP USER RESTRICTION CODE              CLOC0342
      00441  0056 00  002000         RNT     ROPRBT        IS THIS USER OPERATOR CLASS                CLOC0343
      00442                          SCHEDL  Q2,UTEMP,Q1   IF NOT, INSURE USER NOT RESCHEDULED        CLOC0344
      00446                          SCHEDL  Q2,UTEMP,Q2   TELL SCHEDL USER READY TO RUN              CLOC0345
1            M1416 786 ..... R. DALEY ..... CLOCK CONTROL SECTION ............   05/03/71 1621.4 PAGE 8

      00452  0074 00 4 00020         TSX     SETSWS,4      RESTORE USER TYPEWRITER MODE               CLOC0346
      00453 -0 00000 0 00640         MZE     UTEMP         ..                                         CLOC0347
                                                                                                      CLOC0348
      00454  1 77777 1 00455  CAWAK4 TXI     *+1,1,-1      INCREMENT USER NO.                         CLOC0349
      00455  3 77727 1 00422         TXH     CAWAK1,1,-N-1 END TEST                                   CLOC0350
                                                                                                      CLOC0351
      00456  0535 00 1 74502         LAC     USER,1                                                   CLOC0352
      00457 -0520 00 0 74475         NZT     SWPSW         SKIP BLIP DURING SWAP                      CLOC0353
      00460 -0520 00 0 72227         NZT     BLIPDT        DOES CURRENT USER EXPECT RESPONSE          CLOC0354
      00461  0020 00 0 00472         TRA     SIMCLK        NO, SKIP                                   CLOC0355
      00462 -0500 00 0 72226         CAL     BLIPTM        SEE IF TIME TO BLIP AT USER                CLOC0356
      00463  0402 00 0 72227         SUB     BLIPDT        ..                                         CLOC0357
      00464 -0120 00 0 00472         TMI     SIMCLK        .. NOT YET                                 CLOC0358
      00465  0602 00 0 72226         SLW     BLIPTM        SAVE DELTA                                 CLOC0359
      00466                          WRTYPE  A,BLIPCH,1,USER,1  TYPE CHARACTERS TO USER               CLOC0360
                                                                                                      CLOC0361
      00472                   SIMCLK NZTBIT  USROPT,1,CLKBIT IS CURRENT USER CLOCK ON                 CLOC0362
      00474  0020 00 0 00502         TRA     ENDCLK        NO, SKIP TO END                            CLOC0363
      00475  0441 00 0 00636         LDI     CTMP1.        YES, RELOAD CLOCK TRAP INDICATORS          CLOC0364
      00476 -0056 00  060000         LNT     60000         WAS THIS CLOCK TRAP FROM MEMORY B          CLOC0365
      00477  0020 00 0 00502         TRA     ENDCLK        NO, SKIP TO END                            CLOC0366
      00500  0074 00 4 00022         TSX     UPCLOC,4      YES, UPDATE USER CLOCK AND CHECK FOR TRAP  CLOC0367
      00501  0 00000 0 00636                 CTMP1.        ..                                         CLOC0368
                                                                                                      CLOC0369
1            M1416 786 ..... R. DALEY ..... CLOCK CONTROL SECTION ............   05/03/71 1621.4 PAGE 9

                                                                                                      CLOC0371
                                             ENDCLK .......... END OF CLOCK SECTION ................  CLOC0372
                                                                                                      CLOC0373
      00502                   ENDCLK SCHEDL  Q1,Q0,CHARGE  TELL SCHEDL THAT CLOCK HAS TRAPPED         CLOC0374
                                                                                                      CLOC0375
      00506 -0520 00 0 00636         NZT     CTMP1.        WAS TRAP FROM 00000 CORE A (IDLE)          CLOC0376
      00507  0020 00 0 00526         TRA     ENDCL1        .. YES, SKIP                               CLOC0377
      00510  0441 00 0 00636         LDI     CTMP1.        LOAD TRAP WORD                             CLOC0378
      00511 -0056 00  060000         LNT     60000         WAS TRAP FROM WITHIN SUPERVISOR            CLOC0379
      00512  0020 00 0 00530         TRA     IGNCLK        .. YES, RETURN                             CLOC0380
      00513  0535 00 1 74502         LAC     USER,1        GET USER NUMBER OF CURRENT USER            CLOC0381
      00514  0441 00 1 75770         LDI     USROPT,1      PICK UP USER OPTIONS                       CLOC0382
      00515 -0054 00  000400         LFT     NINTBT        IS USER NOT TO BE INTERRUPTED              CLOC0383
      00516  0020 00 0 00530         TRA     IGNCLK        .. YES, RETURN                             CLOC0384
      00517  0441 00 1 75524         LDI     USWICH,1      GET USER STATUS SWITCHES                   CLOC0385
      00520 -0054 00  002000         LFT     INTBIT        HAS USER HIT INTERRUPT                     CLOC0386
      00521  0020 00 0 00534         TRA     INTUSR        .. YES, GO INTERRUPT HIM                   CLOC0387
      00522 -0761 00 0 00042         SEB                   GET CURRENT USER INSTRUCTION               CLOC0388
      00523  0441 60 0 00636         LDI*    CTMP1.        ..                                         CLOC0389
      00524 -0761 00 0 00041         SEA                   ..                                         CLOC0390
      00525 -0054 00  376000         LFT     376000        IS INST. AN HTR OR ILLEGAL                 CLOC0391
      00526  0520 00 0 74616  ENDCL1 ZET     SWAP          OR IS IT TIME TO SWAP USERS                CLOC0392
      00527  0020 00 0 00534         TRA     INTUSR        .. YES, INTERRUPT CURRENT USER             CLOC0393
                                                                                                      CLOC0394
      00530  0074 00 4 00000  IGNCLK TSX     ALLRST,4      RESTORE MACHINE CONDITIONS                 CLOC0395
      00531  0074 00 4 00005         TSX     CMEXIT,4      RETURN TO INTERRUPTED PROGRAM              CLOC0396
      00532  0534 00 4 00637         LXA     CLKIR4,4      ..                                         CLOC0397
      00533  0 00000 0 00636                 CTMP1.        ..                                         CLOC0398
                                                                                                      CLOC0399
      00534  0074 00 4 00000  INTUSR TSX     ALLRST,4      HERE TO INTERRUPT CURRENT USER             CLOC0400
      00535  0534 00 4 00637         LXA     CLKIR4,4      RESTORE AND RESAVE HIS MACHINE STATUS      CLOC0401
      00536  0634 00 4 72166         SXA     IR4,4         ..                                         CLOC0402
      00537  0074 00 4 00016         TSX     SAVCPU,4      ..                                         CLOC0403
      00540  0 00000 0 00636                 CTMP1.        ..                                         CLOC0404
      00541  0564 00 0 77777         ENB     ENBWD         REENABLE ALL TRAPS                         CLOC0405
      00542  0020 00 0 00010         TRA     CYCLE         RETURN TO MAIN CONTROL SECTION             CLOC0406
                                                                                                      CLOC0407
1            M1416 786 ..... R. DALEY ..... CLOCK CONTROL SECTION ............   05/03/71 1621.4 PAGE 10

                                                                                                      CLOC0409
                                             GETOTL/ADDTIM ..... TIME ACCOUNTING UTILITY ROUTINES ....CLOC0410
                                                                                                      CLOC0411
      00543  0564 00 0 74671  GETOTL ENB     Q0            ROUTINE TO RETURN TOTAL TIME CTSS HAS RUN  CLOC0412
      00544  0500 00 0 00005         CLA     CLOCK.        .. ACCURATE TO 1/60 SECOND                 CLOC0413
      00545  0361 00 0 74453         ACL     CLKTIM                                                   CLOC0414
      00546 -0320 00 0 74645         ANA     RMASK                                                    CLOC0415
      00547  0361 00 0 74472         ACL     TOTTIM                                                   CLOC0416
      00550  0020 00 4 00001         TRA     1,4                                                      CLOC0417
                                                                                                      CLOC0418
      00551  0564 00 0 74671  ADDTIM ENB     Q0            ROUTINE TO UPDATE ALL TIME COUNTERS        CLOC0419
      00552                          SAVE    ADDT(X1,X2,X4) SAVE STATUS                               CLOC0420
      00555  0074 00 4 00543         TSX     GETOTL,4      FIND OUT TOTAL TIME TSS HAS RUN            CLOC0421
      00556  0044 00 0 00000         PAI                   SAVE                                       CLOC0422
      00557  0402 00 0 00646         SUB     SAVTOT        - TIME AT LAST CALL                        CLOC0423
      00560  0100 00 0 00606         TZE     ADDXIT        EXIT IF NOT TIME ELAPSED                   CLOC0424
      00561  0602 00 0 00647         SLW     DELTAT        SAVE DIFFERENCE                            CLOC0425
      00562  0604 00 0 00646         STI     SAVTOT        AND NEW VALUE                              CLOC0426
      00563 -0501 00 0 01011         ORA     =O233000000000 FLOAT                                     CLOC0427
      00564  0300 00 0 01011         FAD     =O233000000000 ..                                        CLOC0428
      00565  0602 00 0 00650         SLW     DELTAF        SAVE ALSO                                  CLOC0429
                                                                                                      CLOC0430
      00566  0535 00 1 74502         LAC     USER,1        GET USER NO. OF CURRENT USER               CLOC0431
      00567  0535 00 2 74625         LAC     PAYUSR,2      AND USER CURRENTLY PAYING FOR TIME         CLOC0432
      00570  0441 00 1 75770         LDI     USROPT,1      LOAD CURRENT USER OPTIONS                  CLOC0433
      00571  0774 00 4 00060         AXT     NTBL,4        SIZE OF TABLE                              CLOC0434
                                                                                                      CLOC0435
      00572  0522 00 4 00733  ADDT1  XEC     TBL+NTBL,4    SEE IF CONDITION MET                       CLOC0436
      00573  0020 00 0 00605         TRA     ADDT2         .. NO                                      CLOC0437
      00574 -0500 60 4 00734         CAL*    TBL+NTBL+1,4  TIME IN 1/60 SECOND                        CLOC0438
      00575  0400 00 0 00647         ADD     DELTAT        UPDATE                                     CLOC0439
      00576  0602 60 4 00734         SLW*    TBL+NTBL+1,4  ..                                         CLOC0440
      00577 -0520 00 4 00735         NZT     TBL+NTBL+2,4  IS THERE TIME AVERAGE TO UPDATE            CLOC0441
      00600  0020 00 0 00604         TRA     ADDT1A        .. NO                                      CLOC0442
      00601 -0500 60 4 00735         CAL*    TBL+NTBL+2,4  YES, LOAD CURRENT VALUE OF INTEGRATOR      CLOC0443
      00602  0300 00 0 00650         FAD     DELTAF        UPDATE                                     CLOC0444
      00603  0602 60 4 00735         SLW*    TBL+NTBL+2,4  ..                                         CLOC0445
      00604  0522 00 4 00736  ADDT1A XEC     TBL+NTBL+3,4  MAY BE 'TRA ADDXIT' FOR SWPSW, COMSW       CLOC0446
      00605  2 00004 4 00572  ADDT2  TIX     ADDT1,4,4     REPEAT FOR ALL COUNTERS                    CLOC0447
                                                                                                      CLOC0448
      00606                   ADDXIT RETURN  (1,4),ADDT(X1,X2,X4) RESTORE XRS AND RETURN              CLOC0449
                                                                                                      CLOC0450
      00612 -0520 00 0 74475  CKPMPT NZT     SWPSW         ROUTINE TO CHECK IF SWAP PREEMPTS          CLOC0451
      00613  0020 00 7 00001         TRA     1,7           NOT SWAPPING, EXIT                         CLOC0452
      00614  0535 00 6 74627         LAC     OLDUSR,6      GET STATUS OF OLDUSR                       CLOC0453
      00615 -0500 00 6 77726         CAL     STATUS,6      .. DURING SWAP                             CLOC0454
      00616  0734 00 6 00000         PAX     ,6            ..                                         CLOC0455
      00617 -3 00001 6 00613         TXL     CKPMPT+1,6,1  OLDUSR NOT RUNNABLE IF DORMANT             CLOC0456
      00620  3 00003 6 00613         TXH     CKPMPT+1,6,3  OR IN I/O WAIT                             CLOC0457
      00621  0020 00 7 00002         TRA     2,7           OLDUSR RUNNABLE, INDICATE PREEMPTING       CLOC0458
1            M1416 786 ..... R. DALEY ..... CLOCK CONTROL SECTION ............   05/03/71 1621.4 PAGE 11

                                                                                                      CLOC0460
                                             ....... UTILITY ROUTINES FOR SCHEDL .........            CLOC0461
                                                                                                      CLOC0462
                                                                                                      CLOC0463
      00622  0564 00 0 74671  NOTIM  ENB     Q0            ENTRY TO SET USER NOTIME SWITCH            CLOC0464
      00623 -0500 60 4 00001         CAL*    1,4           PICK UP USER NO.                           CLOC0465
      00624  0737 00 7 00000         PAC     ,7            .. USERNO.                                 CLOC0466
      00625  0441 00 7 75524         LDI     USWICH,7      PICK UP CURRENT USER SWITCHES              CLOC0467
      00626  0054 00  000001         RFT     NOTIME        IS NOTIME ALREADY SET                      CLOC0468
      00627  0020 00 4 00003         TRA     3,4           .. YES, LEAVE IT ALONE                     CLOC0469
      00630  0055 00  000001         SIR     NOTIME        SET NOTIME SWITCH                          CLOC0470
      00631  0604 00 7 75524         STI     USWICH,7      .. PUT BACK                                CLOC0471
      00632 -0500 60 4 00002         CAL*    2,4           PICK UP NOTIME CODE                        CLOC0472
      00633  0767 00 0 00017         ALS     15            POSITION                                   CLOC0473
      00634  0625 00 7 75524         STT     USWICH,7      INSERT                                     CLOC0474
      00635  0020 00 4 00003         TRA     3,4           RETURN                                     CLOC0475
1            M1416 786 ..... R. DALEY ..... CLOCK CONTROL SECTION ............   05/03/71 1621.4 PAGE 12

                                                                                                      CLOC0477
                                                                                                      CLOC0478
                                             TEMPS, VARIABLES, AND CONSTANTS FOR CLOCK CONTROL ROUTINECLOC0479
                                                                                                      CLOC0480
      00636                          TEMPS   (CTMP1.,CLKIR4,UTEMP,CLKEYS,DOWNSW)                      CLOC0481
      00643                          TEMPS   (CHARGE,KEYSW,TRACSW,SAVTOT,DELTAT)                      CLOC0482
      00650                          TEMPS   (DELTAF,KEYTIM)                                          CLOC0483
                                                                                                      CLOC0484
      00652  0 00000 0 00011  PCTRP  PZE     PANIC                                                    CLOC0485
                                                                                                      CLOC0486
                                                                                                      CLOC0487
                       00653  TBL    SYN     *             TABLE OF TIME COUNTERS FOR ADDTIM          CLOC0488
                                                                                                      CLOC0489
      00653  0761 00 0 00000         NOP                   TIME SPENT PROCESSING TRAPS                CLOC0490
      00654  0 00000 0 00000         PZE     0             .. (TRPTIM)                                CLOC0491
      00655  0 00000 0 74537         PZE     TRPPCT        ..                                         CLOC0492
      00656  0761 00 0 00000         NOP                   ..                                         CLOC0493
      00657 -0520 00 0 00644         NZT     KEYSW         TIME KEY '21' LEFT DOWN                    CLOC0494
      00660  0 00000 0 00651         PZE     KEYTIM        ..                                         CLOC0495
      00661  0 00000 0 00000         PZE     0             ..                                         CLOC0496
      00662  0761 00 0 00000         NOP                   ..                                         CLOC0497
      00663 -0520 00 0 00663         NZT     *             CURRENT USER CHARGE TIME                   CLOC0498
      00664  0 00000 2 75260         PZE     UCHARG,2      ..                                         CLOC0499
      00665  0 00000 0 00000         PZE     0             ..                                         CLOC0500
      00666  0761 00 0 00000         NOP                   ..                                         CLOC0501
      00667 -0520 00 0 00667         NZT     *             USER TIME IN WORKING STATUS                CLOC0502
      00670  0 00000 2 77340         PZE     WRKTIM,2      ..                                         CLOC0503
      00671  0 00000 0 00000         PZE     0             ..                                         CLOC0504
      00672  0761 00 0 00000         NOP                   ..                                         CLOC0505
      00673 -0520 00 0 74473         NZT     DSKSW         TIME SPENT SWAPPING TO DISK                CLOC0506
      00674  0 00000 0 74465         PZE     DSKTIM        ..                                         CLOC0507
      00675  0 00000 0 74464         PZE     DSKPCT        ..                                         CLOC0508
      00676  0761 00 0 00000         NOP                   ..                                         CLOC0509
      00677  0074 00 7 00612         TSX     CKPMPT,7      TIME SPENT SWAPPING DUE TO PREEMPT         CLOC0510
      00700  0 00000 0 74463         PZE     PRMTIM        ..                                         CLOC0511
      00701  0 00000 0 74462         PZE     PRMPCT        ..                                         CLOC0512
      00702  0761 00 0 00000         NOP                   ..                                         CLOC0513
      00703 -0520 00 0 74475         NZT     SWPSW         TOTAL TIME SPENT SWAPPING USERS            CLOC0514
      00704  0 00000 0 74467         PZE     SWPTIM        ..                                         CLOC0515
      00705  0 00000 0 74466         PZE     SWPPCT        ..                                         CLOC0516
      00706  0020 00 0 00606         TRA     ADDXIT        ..                                         CLOC0517
      00707 -0520 00 0 74474         NZT     COMSW         TIME SPENT LOADING COMMANDS                CLOC0518
      00710  0 00000 0 74461         PZE     COMTIM        ..                                         CLOC0519
      00711  0 00000 0 74460         PZE     COMPCT        ..                                         CLOC0520
      00712  0020 00 0 00606         TRA     ADDXIT        ..                                         CLOC0521
      00713  0520 00 0 74502         ZET     USER          TOTAL TIME BACKGROUND SYSTEM HAS RUN       CLOC0522
      00714  0 00000 0 74471         PZE     BKGTIM        ..                                         CLOC0523
      00715  0 00000 0 74470         PZE     BKGPCT        ..                                         CLOC0524
      00716  0761 00 0 00000         NOP                   ..                                         CLOC0525
      00717 -0520 00 0 00717         NZT     *             TIME CURRENT USER HAS RUN                  CLOC0526
      00720  0 00000 1 75331         PZE     UCLOCK,1      ..                                         CLOC0527
      00721  0 00000 0 00000         PZE     0             ..                                         CLOC0528
      00722  0761 00 0 00000         NOP                   ..                                         CLOC0529
      00723 -0520 00 0 72227         NZT     BLIPDT        TIME SINCE LAST RESPONSE TO RUNNING USER   CLOC0530
      00724  0 00000 0 72226         PZE     BLIPTM        ..                                         CLOC0531
      00725  0 00000 0 00000         PZE     0             ..                                         CLOC0532
1            M1416 786 ..... R. DALEY ..... CLOCK CONTROL SECTION ............   05/03/71 1621.4 PAGE 13

      00726  0761 00 0 00000         NOP                   ..                                         CLOC0533
      00727 -0056 00  000100         LNT     CLKBIT        USER INTERVAL TIMER INCREMENT              CLOC0534
      00730  0 00000 1 75136         PZE     TIMINC,1      ..                                         CLOC0535
      00731  0 00000 0 00000         PZE     0             ..                                         CLOC0536
      00732  0761 00 0 00000         NOP                   ..                                         CLOC0537
                                                                                                      CLOC0538
                       00060  NTBL   EQU     *-TBL         LENGTH OF TABLE                            CLOC0539
                                                                                                      CLOC0540
                                                                                                      CLOC0541
      00733 +011601160116     HNGCOD OCT     011601160116                                             CLOC0542
      00734  000000000454     OKTIM  VFD     36/5*60       TOLERATE 5 SECONDS TRAP DELAY              CLOC0543
                                                                                                      CLOC0544
      00735  603145632551     DELAY  BCI     / INTERVAL TIMER /                                       CLOC0545
      00740 +000000000000            OCT     0,0                                                      CLOC0546
      00742  602126632551            BCI     / AFTER CLOCK TRAP AT /                                  CLOC0547
      00746 +000000000000            OCT     0                                                        CLOC0548
      00747  545454545454     KEYSNG BCI     8,****** ILLEGAL KEY SETTING, TRY AGAIN. ******          CLOC0549
      00757  604225706260     KEYSRD BCI     6, KEYS READ. ************  AT  ******                   CLOC0550
      00765  604225706260     RSTKEY BCI     5, KEYS ************  AT  ******                         CLOC0551
      00772  602221234227     PCTCOM BCI     / BACKGROUND PERCENTAGE AT /                             CLOC0552
      00777  0 00000 0 00000  PCT    PZE                                                              CLOC0553
      01000  604743252162     PP21UP BCI     / PLEASE RESET KEY '21'./                                CLOC0554
                                                                                                      CLOC0555
                                                                                                      CLOC0556
      01004                          RMT     *                                                        CLOC0558
      01004  302145276447     ..001  BCI     /HANGUP/                                                 CLOC0558.001
                                                                                                      CLOC0560
                                     END                                                              CLOC0561

        LITERALS
      01005  000000001604
      01006  000000007777
      01007  000023615000
      01010  200777371666
      01011  233000000000
      01012  377777777777
1            M1416 786 ..... R. DALEY ..... CLOCK CONTROL SECTION ............   05/03/71 1621.4 PAGE 1
                        POST PROCESSOR ASSEMBLY DATA

       72127 IS THE LAST LOCATION NOT USED BY THIS PROGRAM
       1013 IS THE FIRST LOCATION NOT USED BY THIS PROGRAM

0REFERENCES TO DEFINED SYMBOLS
         50      N   136,  265,  455
        205     K0   164,  312
        211     K1   165
        226     K2   166
        232     K3   167
        236     K4   170
        240     K5   171
        267     K6   172
        272     K7   173
        276     K8   174
        302     K9   175
      74672     PB   214,  216
      74671     Q0    36,  132,  310,  352,  353,  504,  543,  551,  622
      74670     Q1    30,  253,  260,  445,  503
      74667     Q2   130,  443,  447,  451
      74664     Q5   215
      74662     Q7   351
      72166    IR4   536
        312    K10   176
        313    K11   177
        315    K12   200
        323    K13   201
         13    NZL   221
        777    PCT   222
        653    TBL   413,  415,  417,  572,  574,  576,  577,  601,  603,  604,  653,  733
          3   BTDC   220
          4   BTOC    56,   60,  150,  152,  334,  336
        242   K5.1   265
        255   K5.2   246,  247,  251
        264   K5.3   245,  250,  254,  261
         12   KILL   105,  262,  307
         60   NTBL   412,  413,  415,  417,  571,  572,  574,  576,  577,  601,  603,  604,  733
      74616   SWAP   526
      74502   USER   456,  470,  513,  566,  713
        572  ADDT1   605
        605  ADDT2   573
      75065  ADOPT   124
      74651  AMASK   403
      75207  AWAKE   270,  422,  425,  430
      74474  COMSW   707
          7  CTIME    63,  155,  341
         10  CYCLE   542
        735  DELAY    57,   61,   64,   66
      74473  DSKSW   673
      77777  ENBWD   541
          5  FMSKY    26,  164,  312
       1004  ..001   112, 1005
          1  ..002   112, 1005
         23  .WRFX   111
        327  K13.1   323
1            M1416 786 ..... R. DALEY ..... CLOCK CONTROL SECTION ............   05/03/71 1621.4 PAGE 2
                        POST PROCESSOR ASSEMBLY DATA

        644  KEYSW   144,  146,  331,  333,  657
          3  LOGKY    26,  171
        622  NOTIM     0,  256
        734  OKTIM    53
         11  PANIC    26,   47,  652
        652  PCTRP    43
      76500  PROBN   103,  244
          1  PRTKY    26,  200
      76041  RCODE   440
        377  RDCLK   373
      74645  RMASK   546
         15  RSSRB   133
      74475  SWPSW   457,  612,  703
        640  UTEMP    71,  106,  113,  117,  121,  131,  134,  255,  257,  263,  437,  444,  450,  453
        604 ADDT1A   600
        551 ADDTIM     0,   67
        606 ADDTX1   552
        607 ADDTX2   553
        610 ADDTX4   554
        606 ADDXIT   560,  706,  712
          0 ALLRST    45,  232,  530,  534
          1 ALLSAV    40
      74454 AUTOND   240
          1 BCLKOF    26,  174
          1 BCLKON    26,  173
          1 BKCMKY    26,  176
      74445 BKGATT   346
      74444 BKGKEY   345
      74470 BKGPCT   715
      74471 BKGTIM   714
          1 BKPBKY    26,  165
          2 BKSERV   206
      72230 BLIPCH   467
      72227 BLIPDT   460,  463,  723
      72226 BLIPTM   462,  465,  724
        422 CAWAK1   455
        430 CAWAK2   426
        437 CAWAK3   434
        454 CAWAK4   423,  427,  433,  435,  436
        643 CHARGE   364,  370,  424,  505
        135 CKEND.    76,  102,  107,  110
        612 CKPMPT   617,  620,  677
        110 CKUSR1   104
         71 CKUSR.   136
         67 CLINT.    54
        100 CLKBIT   273,  277,  473,  727
        641 CLKEYS   140,  141,  161,  205,  207,  226,  230
         36 CLKINT     0
        637 CLKIR4    37,   46,  234,  532,  535
          6 CLKLOC    26,   41
      74453 CLKTIM    26,   34,   51,  402,  545
          5 CLOCK.    26,   31,   32,   50,   55,  401,  544
          2 CLOCKY    26,  201
          5 CMEXIT   531
      74460 COMPCT   711
1            M1416 786 ..... R. DALEY ..... CLOCK CONTROL SECTION ............   05/03/71 1621.4 PAGE 3
                        POST PROCESSOR ASSEMBLY DATA

      74461 COMTIM   710
          6 CORDMP   233
        636 CTMP1.    42,  475,  501,  506,  510,  523,  533,  540
         10 DAEMKY    26,  172
        650 DELTAF   565,  602
        647 DELTAT   561,  575
      74446 DEMKEY   267
        642 DOWNSW     0,  303,  305
      74464 DSKPCT   675
      74465 DSKTIM   674
          1 DUMPKY    26,  167
        526 ENDCL1   507
        502 ENDCLK   474,  477
        355 ENDKEY   145
         25 ERSUNI   122
        543 GETOTL     0,  555
        733 HNGCOD   116
        530 IGNCLK   512,  516
       2000 INTBIT   520
        534 INTUSR   521,  527
         24 .WRFXA   115,  466
        747 KEYSNG   203
        757 KEYSRD   151,  153,  156,  160
        331 KEYSUP   143
        651 KEYTIM   147,  355,  360,  660
      10000 LOGTBT   101,  243
        400 NINTBT    75,  515
       1000 NKILBT    75
          1 NOTIME   100,  626,  630
      74532 NUSERS   302
      74627 OLDUSR   614
      74625 PAYUSR   567
        772 PCTCOM   224
       1000 PP21UP   362
      74535 PRDOWN   315,  317,  321
      74462 PRMPCT   701
      74463 PRMTIM   700
      74452 RCLKDT   410
      74536 RCLKSW   324,  327
        400 RCLKTM   325,  372,  411
         14 RCLOCK   377
       2000 ROPRBT   441
        765 RSTKEY   335,  337,  342,  344
         16 SAVCPU   537
        646 SAVTOT   557,  562
         17 SCHEDL   127,  350,  442,  446,  502
         20 SETSWS   452
        472 SIMCLK   461,  464
        363 SKPKEY   204,  210,  225,  231,  235,  237,  266,  271,  275,  301,  304,  311,  314,  322,  326,  330,  347
                     354,  357
        412 SKPKY1   376,  420
        137 SKPROC
      77726 STATUS    72,  252,  431,  615
         26 STCLOC     0,  363
      77411 STRTIM   213
1            M1416 786 ..... R. DALEY ..... CLOCK CONTROL SECTION ............   05/03/71 1621.4 PAGE 4
                        POST PROCESSOR ASSEMBLY DATA

      74466 SWPPCT   705
      74467 SWPTIM   704
          4 TAPEKY    26,  166
         21 TAPKEY   227
      75136 TIMINC   730
      74476 TIMNOW    62,  154,  340,  365,  366,  374,  405,  406
      74472 TOTTIM   212,  367,  371,  407,  547
          1 TRACKY    26,  170
          1 TRACOF    26,  177
        645 TRACSW     0,  236,  313
      74537 TRPPCT   655
          1 TSSDUN    26,  175
      75260 UCHARG   664
      75331 UCLOCK   720
      75646 UNITID   123
         22 UPCLOC   500
      75770 USROPT    74,  125,  272,  274,  276,  300,  306,  472,  514,  570
      75524 USWICH    77,  126,  242,  517,  625,  631,  634
      77340 WRKTIM   211,  670
         11 WRTOPR    65,  157,  202,  223,  343,  361

0 NO ERROR IN ABOVE ASSEMBLY.


CTRL8F   BCD 02/10/71 1455.8   11604         00000
