1            ADPI    M1416 1019 S. DUNTEN ... 7750 ADAPTER                       03/04/70 1429.5 PAGE 1

                              *                                                                       ADPI0002
                              *      MODIFIED BY CHRISTOPHER L. REEVE, M1416 4123 , 7-10/67           ADPI0003
                              *      FOR USE WITH TE ARDS-II (ESL) DISPLAY UNIT                       ADPI0004
                              *                                                                       ADPI0005
                              *                                                                       ADPI0006
                              *                                                                       ADPI0007
                       00636         ENTRY   WRTELY        TO WRITE A LINE ON A TELETYPE              ADPI0009
                       00015         ENTRY   RDTELY        TO READ A LINE FROM A TELETYPE             ADPI0010
                       03110         ENTRY   TXCHAR                                                   ADPI0011
                       02600         ENTRY   TACHAR        ASCII TABLE CONVERSION                     ADPI0012
                       01746         ENTRY   SETPRM        ENTRY TO DEFINE WRITING AREA ON SCOPE      ADPI0013
                       02026         ENTRY   GETPRM        ENTRY TO READ OFF WRITING AREA ON SCOPE    ADPI0014
                                                                                                      ADPI0015
                       00013         ENTRY   INCC                                                     ADPI0016
                       00014         ENTRY   OTCC                                                     ADPI0017
                       00622         ENTRY   BDCHAR                                                   ADPI0018
                       00623         ENTRY   BTCNT                                                    ADPI0019
                       00624         ENTRY   PARER                                                    ADPI0020
                                                                                                      ADPI0021
                                     EXTERN  TOPOOL,WT7750,TGIVE,RDHIGH                               ADPI0022
                                     EXTERN  US2BS,BS2US,ASNUNI                                       ADPI0023
                                     EXTERN  ENTCHR,ASHUNI                                            ADPI0024
                                     EXTERN  SCHEDL                                                   ADPI0025

        TRANSFER VECTOR
      00000  634647464643     TOPOOL
      00001  666307070500     WT7750
      00002  632731652560     TGIVE
      00003  512430312730     RDHIGH
      00004  646202226260     US2BS
      00005  226202646260     BS2US
      00006  216245644531     ASNUNI
      00007  254563233051     ENTCHR
      00010  216230644531     ASHUNI
      00011  622330252443     SCHEDL
      00012  665130312730     WRHIGH

                       00003  NH     EQU     3             HIGH SPEED LINES (0-3)                     ADPI0027
                       00134  OUTSIZ EQU     92            EXPANSION FACTOR OF 3                      ADPI0028
                       00076  NLINES EQU     62            NUMBER OF BS NUMBERS                       ADPI0029
                                                                                                      ADPI0030
                                             TABLE OF SPECIAL CHARACTERS FOR ARDS                     ADPI0031
                                                                                                      ADPI0032
                      000032  GRAPH1 BOOL    32            SET POINT                                  ADPI0033
                      000036  GRAPH2 BOOL    36            LINE                                       ADPI0034
                      000055  CRGRET BOOL    55            CARRIAGE RETURN                            ADPI0035
                      000536  CRNOLF BOOL    536           CARRIAGE RETURN NO LINE FEED               ADPI0036
                      000072  TABCHR BOOL    72            TAB                                        ADPI0037
                      000052  FFCHR  BOOL    52            ERASE (FORM-FEED)                          ADPI0038
                                                                                                      ADPI0039
                                     UNLIST                                                           ADPI0040

                                                                                                      ADPI0046
                              GET    MACRO   N             MACRO TO GET NEXT N*6BITS FROM INPUT STRINGADPI0047
                                     ZAC                   USES IR1, IR2, AND MQ WITHOUT SAVING       ADPI0048
                                     LDQ     RDMMQ                                                    ADPI0049
1            ADPI    M1416 1019 S. DUNTEN ... 7750 ADAPTER                       03/04/70 1429.5 PAGE 2

                                     LGL     N*6           GET FIRST OR NEXT 12 BITS                  ADPI0050
                                     TIX     *+6,2,N       COUNT IT                                   ADPI0051
                                     LXD     INBUF,4       INPUT BUFFER POINTER                       ADPI0052
                                     TNX     RDEND.,4,1    HERE TO PICK UP NEXT WORD FROM STRING      ADPI0053
                                     SXD     INBUF,4       SAVE COUNT                                 ADPI0054
                                     LDQ*    INBUF         ..                                         ADPI0055
                                     AXT     6,2           RESET IR2                                  ADPI0056
                                     STQ     RDMMQ                                                    ADPI0057
                              GET    END                                                              ADPI0058
                                                                                                      ADPI0059
                              TOLIN  MACRO                                                            ADPI0060
                                     TSX     TOLINN,4                                                 ADPI0061
                              TOLIN  END                                                              ADPI0062
                                                                                                      ADPI0063
                              TOLINE MACRO                 MACRO TO INSERT CHAR IN OUTPTR             ADPI0064
                                     LDQ     OUTMQ         RESTOR MQ (DOES NOT SAVE IR3)              ADPI0065
                                     XCL                                                              ADPI0066
                                     TOV     *+1           TURN OFF OVERFLOW                          ADPI0067
                                     LGL     12            SHIFT CHAR INTO AC                         ADPI0068
                                     TNO     *+4           TEST FOR FULL WORD                         ADPI0069
                                     SLW*    OUTPTR        FULL, GET RID OF IT                        ADPI0070
                                     TNX     WRTTN2,3,1                                               ADPI0071
                                     CAL     Q7            RESTOR OVERFLOW BITS                       ADPI0072
                                     XCL                                                              ADPI0073
                                     STQ     OUTMQ                                                    ADPI0074
                                     TXI     *+1,1,1       ADD ONE TO CHAR COUNT                      ADPI0075
                              TOLINE END                                                              ADPI0076
                                                                                                      ADPI0077
                              GETCHR MACRO                 MACRO TO GET CHAR FROM TCORDS BUFF         ADPI0078
                                     LDQ     INMQ          RESTOR MQ                                  ADPI0079
                                     TIX     *+4,6,1       COUNTS 3CHAR /WORD, INIT TO 0              ADPI0080
                                     TNX     WRDONE,7,1    TRA IF FINISHED                            ADPI0081
                                     LDQ*    WRINPT        GET FRESH WORD                             ADPI0082
                                     AXT     3,6                                                      ADPI0083
                                     ZAC                                                              ADPI0084
                                     LGL     12                                                       ADPI0085
                                     STQ     INMQ                                                     ADPI0086
                              GETCHR END                                                              ADPI0087
                                                                                                      ADPI0088
                              TOPOOL MACRO                 MACRO TO STORE IN POOL                     ADPI0089
                                     TSX     TOPOOL,4                                                 ADPI0090
                              TOPOOL END                                                              ADPI0091
                                                                                                      ADPI0092
                              DAC    MACRO   A,B,C                                                    ADPI0093
                                     VFD     O12/A,O12/B,O12/C                                        ADPI0094
                              DAC    END                                                              ADPI0095
                                                                                                      ADPI0096
                              CALTAB MACRO   A                                                        ADPI0097
                                     LDQ     Q0                                                       ADPI0098
                                     ANA     =O177                                                    ADPI0099
                                     LGR     3                                                        ADPI0100
                                     PAC     ,4                                                       ADPI0101
                                     RQL     3                                                        ADPI0102
                                     MPY     Q3                                                       ADPI0103
                                     XCA                                                              ADPI0104
                                     SSM                                                              ADPI0105
1            ADPI    M1416 1019 S. DUNTEN ... 7750 ADAPTER                       03/04/70 1429.5 PAGE 3

                                     ADD     =21                                                      ADPI0106
                                     STA     *+2                                                      ADPI0107
                                     CAL*    PTAB,A                                                   ADPI0108
                                     ARS     **                                                       ADPI0109
                                     ANA     Q7                                                       ADPI0110
                              CALTAB END                                                              ADPI0111
                                                                                                      ADPI0112
                              UNTAB  MACRO   UNIT          MACRO TO BUILD TABLE OF SPECIAL TWX I.D.S  ADPI0113
                              NN     SET     0                                                        ADPI0114
                                     IRP     UNIT                                                     ADPI0115
                                     PMC     ON                                                       ADPI0116
                                     BCI     1,'UNIT                                                  ADPI0117
                                     PZE     NN                                                       ADPI0118
                                     PMC     OFF                                                      ADPI0119
                              NN     SET     NN+1                                                     ADPI0120
                                     IRP                                                              ADPI0121
                              UNTAB  END                                                              ADPI0122
                                                                                                      ADPI0123
      00013  0 00000 0 00000  INCC   PZE                   INPUT CHAR CNT                             ADPI0124
      00014  0 00000 0 00000  OTCC   PZE                   OUTPUT CHAR CNT                            ADPI0125
                                             RDTELY ......HERE TO PROCESS INPUT STRING FROM 7750      ADPI0126
                                                                                                      ADPI0127
      00015  0634 00 4 00471  RDTELY SXA     RDIR4,4       SAVE IR4                                   ADPI0128
      00016  0634 00 1 00466         SXA     RDIR1,1       SAVE REMAINING MACHINE CONDITIONS          ADPI0129
      00017  0634 00 2 00467         SXA     RDIR2,2       .. EXCEPT SI                               ADPI0130
      00020  0634 00 3 00470         SXA     RDIR3,3       AND IR3                                    ADPI0131
      00021 -0500 00 4 00001         CAL     1,4           PZE BUFF,,N                                ADPI0132
      00022  0771 00 0 00022         ARS     18            WORD COUNT TO ADDRESS OF AC                ADPI0133
      00023  0361 00 4 00001         ACL     1,4           WORD COUNT + STARTING ADDRESS              ADPI0134
      00024  0621 00 0 00635         STA     INBUF         SET UP FOR LINE SCAN                       ADPI0135
      00025 -0734 00 4 00000         PDX     ,4            SET DEC OF INBUF                           ADPI0136
      00026 -0634 00 4 00635         SXD     INBUF,4                                                  ADPI0137
      00027  0774 00 2 00006         AXT     6,2           ..                                         ADPI0138
      00030  0560 60 0 00635         LDQ*    INBUF         ..                                         ADPI0139
      00031 -0600 00 0 00631         STQ     RDMMQ                                                    ADPI0140
      00032                          GET     2             CHECK TRANSMISSION NUMBER                  ADPI0141
      00044  0044 00 0 00000         PAI                                                              ADPI0142
      00045  0322 00 0 00625         ERA     TCNT                                                     ADPI0143
      00046  0100 00 0 00052         TZE     *+4                                                      ADPI0144
      00047 -0500 00 0 00623         CAL     BTCNT                                                    ADPI0145
      00050  0361 00 0 74670         ACL     Q1                                                       ADPI0146
      00051  0602 00 0 00623         SLW     BTCNT         COUNT BAD NUMBERS                          ADPI0147
      00052 -0046 00 0 00000         PIA                                                              ADPI0148
      00053  0361 00 0 74670         ACL     Q1                                                       ADPI0149
      00054 -0320 00 0 03402         ANA     =O3777                                                   ADPI0150
      00055  0602 00 0 00625         SLW     TCNT                                                     ADPI0151
      00056                   RDUNIT GET     2             PICK UP FIRST OR NEXT 12 BIT UNIT NO.      ADPI0152
      00070  0734 00 4 00000         PAX     0,4           INTO IR4                                   ADPI0153
      00071 -3 01777 4 00074         TXL     BDCH,4,1023   NOT IN YET                                 ADPI0154
      00072 -3 03776 4 00112         TXL     RDTTYP,4,2046 TELETYPE LINE (BIT 2**10 ON)               ADPI0155
      00073  0020 00 0 00466         TRA     RDEND.        END OF MESSAGE (3777 OCTAL)                ADPI0156
      00074 -0500 00 0 00622  BDCH   CAL     BDCHAR        HERE IF ILLEGAL UNIT NO.                   ADPI0157
      00075  0400 00 0 74670         ADD     Q1            COUNT AS BAD CHARACTER                     ADPI0158
      00076  0621 00 0 00622         STA     BDCHAR        ..                                         ADPI0159
      00077                   RDIGOR GET     2             SKIP NEXT CHAR                             ADPI0160
      00111  0020 00 0 00056         TRA     RDUNIT        AND GO TO GET NEXT UNIT NO.                ADPI0161
1            ADPI    M1416 1019 S. DUNTEN ... 7750 ADAPTER                       03/04/70 1429.5 PAGE 4

                                                                                                      ADPI0162
      00112  0754 00 4 00000  RDTTYP PXA     ,4            UNIT NUMBER IN AC                          ADPI0163
      00113 -0320 00 0 03400         ANA     =O1777        ANA OFF LOW SPEED BIT                      ADPI0164
      00114  0601 00 0 00626         STO     RDBS          SAVE BS NO                                 ADPI0165
      00115  0734 00 1 00000         PAX     ,1                                                       ADPI0166
      00116  3 00076 1 00074         TXH     BDCH,1,NLINES IGNORE IF BS NUMBER TOO HIGH               ADPI0167
      00117                          GET     2             GET CHAR                                   ADPI0168
      00131  3 00003 1 00135         TXH     *+4,1,NH      TRA IF NOT HIGH LINE                       ADPI0169
      00132  0560 00 0 00626         LDQ     RDBS          CHAR IN AC, BS IN MQ                       ADPI0170
      00133  0074 00 4 00003         TSX     RDHIGH,4      AND CALL HIGH SPEED LINE ADPI              ADPI0171
      00134  0020 00 0 00056         TRA     RDUNIT                                                   ADPI0172
      00135  0044 00 0 00000         PAI                   SAVE IN IND                                ADPI0173
      00136  0322 00 0 03401         ERA     =O2001        IS IT A DIALUP                             ADPI0174
      00137  0100 00 0 00375         TZE     DIALUP                                                   ADPI0175
      00140  0500 00 0 00626         CLA     RDBS          GET USER NO                                ADPI0176
      00141  0074 00 4 00005         TSX     BS2US,4                                                  ADPI0177
      00142  0020 00 0 00056         TRA     RDUNIT                                                   ADPI0178
      00143  0737 00 4 00000         PAC     ,4            SET DEC OF RDUSER                          ADPI0179
      00144 -0636 00 4 00627         SCD     RDUSER,4                                                 ADPI0180
      00145  0520 00 4 75646         ZET     UNITID,4      IF UNITID =0                               ADPI0181
      00146  0020 00 0 00154         TRA     NOTDEV                                                   ADPI0182
      00147 -0046 00 0 00000         PIA                   THIS CHAR IS DEVICE NUMBER                 ADPI0183
      00150  0767 00 0 00036         ALS     30                                                       ADPI0184
      00151 -0760 00 0 00003         SSM                                                              ADPI0185
      00152  0601 00 4 75646         STO     UNITID,4      STO IN UNITID                              ADPI0186
      00153  0020 00 0 00056         TRA     RDUNIT                                                   ADPI0187
                              *                                                                       ADPI0188
      00154  0560 00 4 75646  NOTDEV LDQ     UNITID,4      IF UNITID FILLED, USE DEVICE CODE FROM IT  ADPI0189
      00155 -0754 00 0 00000         ZAC                                                              ADPI0190
      00156  0763 00 0 00005         LLS     5             GET DEVICE NUMBER                          ADPI0191
      00157  0737 00 1 00000         PAC     ,1                                                       ADPI0192
      00160  0636 00 1 00633         SCA     DEVICE,1                                                 ADPI0193
      00161 -3 77766 1 00056         TXL     RDUNIT,1,-NDIV-1 IF BAD DEVICE NO, IGNORE                ADPI0194
      00162 -0046 00 0 00000         PIA                   RESTOR CHAR TO AC                          ADPI0195
      00163  0054 00  002000         RFT     2000          IS IT QUIT, INTER, HANGUP                  ADPI0196
      00164  0020 00 0 00361         TRA     RDTTCC        COMPL., OR DIALUP - YES                    ADPI0197
      00165                          ZETBIT  ,4,NCVBIT,,   IF NO-CONVERT MODE,                        ADPI0198
      00167  0162 00 0 00321         TQP     NCV           AND NOT IDCODE, SKIP.                      ADPI0199
      00170  0044 00 0 00000         PAI                   RESTOR INDICATORS AFTER ZETBIT             ADPI0200
      00171 -0520 00 1 02126         NZT     RPAR,1        CKECK PARITY OF RECIEVED CHAR              ADPI0201
      00172  0020 00 0 00215         TRA     NPAR                                                     ADPI0202
      00173  0560 00 4 75646         LDQ     UNITID,4      IF NOT READING ID                          ADPI0203
      00174  0162 00 0 00176         TQP     *+2                                                      ADPI0204
      00175  0020 00 0 00215         TRA     NPAR                                                     ADPI0205
      00176 -0765 00 0 00011         LGR     9                                                        ADPI0206
      00177  0774 00 1 00010         AXT     8,1                                                      ADPI0207
      00200 -0754 00 0 00000         ZAC                                                              ADPI0208
      00201  0760 00 0 00010         RND                                                              ADPI0209
      00202 -0773 00 0 00001         RQL     1                                                        ADPI0210
      00203  2 00001 1 00201         TIX     *-2,1,1       COUNTS ONE BITS                            ADPI0211
      00204  0535 00 1 00633         LAC     DEVICE,1                                                 ADPI0212
      00205  0322 00 1 02126         ERA     RPAR,1        COMPARE PAR WITH WHAT IT SHOULD BE         ADPI0213
      00206  0760 00 0 00001         LBT                                                              ADPI0214
      00207  0020 00 0 00214         TRA     *+5                                                      ADPI0215
      00210 -0500 00 0 00624         CAL     PARER         COUNT ERRORS                               ADPI0216
      00211  0361 00 0 74670         ACL     Q1                                                       ADPI0217
1            ADPI    M1416 1019 S. DUNTEN ... 7750 ADAPTER                       03/04/70 1429.5 PAGE 5

      00212  0602 00 0 00624         SLW     PARER                                                    ADPI0218
      00213  0020 00 0 00056         TRA     RDUNIT        AND IGNORE CHAR                            ADPI0219
      00214 -0046 00 0 00000         PIA                   RESTOR CHAR                                ADPI0220
      00215 -0520 00 1 02161  NPAR   NZT     SHIFTR,1      UPDATE CARRAGE COUNT                       ADPI0221
      00216  0020 00 0 00222         TRA     *+4                                                      ADPI0222
      00217 -0320 00 0 03374         ANA     =O77                                                     ADPI0223
      00220  0520 00 4 02307         ZET     SHFT,4                                                   ADPI0224
      00221 -0501 00 0 03375         ORA     =O100                                                    ADPI0225
      00222                          CALTAB  1             GET TABEL ENTRY FOR THIS CHAR ND SHIFT     ADPI0226
      00237  0737 00 1 00000         PAC     ,1                                                       ADPI0227
      00240 -0535 00 4 00627         LDC     RDUSER,4                                                 ADPI0228
      00241  0560 00 4 02357         LDQ     POSIT,4                                                  ADPI0229
      00242 -0130 00 0 00000         XCL                                                              ADPI0230
      00243  0734 00 4 00000         PAX     ,4                                                       ADPI0231
      00244 -3 77773 1 00261         TXL     RDPUD,1,-5    IGNORE IF TAB                              ADPI0232
      00245  3 00000 4 00247         TXH     *+2,4,0       TRA IF NOT INDEFINED POSITION              ADPI0233
      00246  3 77774 1 00261         TXH     RDPUD,1,-4    IGNORE ALL BUT CR                          ADPI0234
      00247  0020 00 1 00247         TRA     *,1                                                      ADPI0235
      00250  1 00001 4 00254         TXI     RDPON,4,1     NORMAL, ADD ONE TO POSIT                   ADPI0236
      00251  1 77777 4 00254         TXI     RDPON,4,-1    B.S.                                       ADPI0237
      00252  0020 00 0 00336         TRA     RDTAB         TAB                                        ADPI0238
      00253  0774 00 4 00001         AXT     1,4                                                      ADPI0239
      00254 -3 01750 4 00256  RDPON  TXL     *+2,4,1000    TEST FOR NEGITIVE                          ADPI0240
      00255  0774 00 4 00001         AXT     1,4                                                      ADPI0241
      00256  0754 00 4 00000         PXA     ,4                                                       ADPI0242
      00257 -0535 00 4 00627         LDC     RDUSER,4      UPDATE POSIT                               ADPI0243
      00260  0602 00 4 02357         SLW     POSIT,4                                                  ADPI0244
      00261  0535 00 1 00633  RDPUD  LAC     DEVICE,1                                                 ADPI0245
      00262 -0046 00 0 00000         PIA                                                              ADPI0246
      00263  0602 00 0 00570         SLW     UNOUT         SAVE FOR SCOPE ECHO                        ADPI0247
      00264 -0320 00 0 03374         ANA     =O77                                                     ADPI0248
      00265  0737 00 4 00000         PAC     ,4            -CHAR                                      ADPI0249
      00266 -0500 60 1 02137         CAL*    TABL,1        CONVERT                                    ADPI0250
      00267 -0535 00 4 00627         LDC     RDUSER,4      -USER NO.                                  ADPI0251
      00270  0520 00 1 02161         ZET     SHIFTR,1      IS THIS DEVICE A SHIFTER                   ADPI0252
      00271  0020 00 0 00275         TRA     RDTPA                                                    ADPI0253
      00272  0054 00  000100         RFT     100                                                      ADPI0254
      00273  0771 00 0 00011         ARS     9                                                        ADPI0255
      00274  0020 00 0 00277         TRA     *+3                                                      ADPI0256
      00275  0520 00 4 02307  RDTPA  ZET     SHFT,4                                                   ADPI0257
      00276  0771 00 0 00011         ARS     9             IN UPPER SHIFT                             ADPI0258
      00277 -0320 00 0 03377         ANA     =O777                                                    ADPI0259
      00300  0044 00 0 00000         PAI                   7090 CODE                                  ADPI0260
      00301  0054 00  000200         RFT     200           IS IT CONTROL, FUNCTION, OR SPECIAL CHAR.  ADPI0261
      00302  0020 00 0 00351         TRA     RDTC2         YES                                        ADPI0262
      00303  0441 00 4 75646         LDI     UNITID,4      ARE WE READING ID                          ADPI0263
      00304 -0056 00  400000         LNT     400000                                                   ADPI0264
      00305  0020 00 0 00322         TRA     NOTID         NO                                         ADPI0265
      00306 -0320 00 0 03374         ANA     =O77          YES, SAVE 6BITS                            ADPI0266
      00307  0602 00 0 00632         SLW     TEMP                                                     ADPI0267
      00310 -0500 00 4 75646         CAL     UNITID,4      GET DEVICE NO                              ADPI0268
      00311 -0320 00 0 03421         ANA     =O770000000000                                           ADPI0269
      00312 -0602 00 0 00632         ORS     TEMP          ADD TO NEW CHAR                            ADPI0270
      00313 -0500 00 4 75646         CAL     UNITID,4      SHIFT OLDER CHARACTERS                     ADPI0271
      00314  0767 00 0 00006         ALS     6                                                        ADPI0272
      00315 -0320 00 0 03412         ANA     =O007777777700                                           ADPI0273
1            ADPI    M1416 1019 S. DUNTEN ... 7750 ADAPTER                       03/04/70 1429.5 PAGE 6

      00316 -0501 00 0 00632         ORA     TEMP          ADD DEVICE AND NEW CHAR                    ADPI0274
      00317  0602 00 4 75646         SLW     UNITID,4                                                 ADPI0275
      00320  0020 00 0 00056         TRA     RDUNIT                                                   ADPI0276
                                                                                                      ADPI0277
      00321 -0320 00 0 03377  NCV    ANA     =O777         NO CONVERSION, SEND TO POOL                ADPI0278
                                                                                                      ADPI0279
      00322 -0501 00 0 00627  NOTID  ORA     RDUSER        ADD USER NO.                               ADPI0280
      00323  0044 00 0 00000         PAI                   SAVE IN INDICATORS                         ADPI0281
      00324 -0500 00 4 75646         CAL     UNITID,4      GET UNITID                                 ADPI0282
      00325 -0320 00 0 03421         ANA     =O770000000000 CHECK FOR ARDS                            ADPI0283
      00326  0322 00 0 03416         ERA     =O110000000000                                           ADPI0284
      00327  0100 00 0 00473         TZE     SCOPEC        YES                                        ADPI0285
      00330 -0046 00 0 00000  BACKIT PIA                   RESTORE CHAR AND USER                      ADPI0286
      00331                          TOPOOL                PUT IN POOL BUFF                           ADPI0287
      00332 -0500 00 0 00013  CCCHAR CAL     INCC                                                     ADPI0288
      00333  0361 00 0 74670         ACL     Q1                                                       ADPI0289
      00334  0602 00 0 00013         SLW     INCC                                                     ADPI0290
      00335  0020 00 0 00056         TRA     RDUNIT        GET NEXT CHAR.                             ADPI0291
                                                                                                      ADPI0292
      00336  0754 00 4 00000  RDTAB  PXA     ,4            FIND NEXT TAB STOP                         ADPI0293
      00337  0774 00 4 00016         AXT     NTABST,4                                                 ADPI0294
      00340 -0340 00 4 02277         LAS     TABSET+NTABST,4                                          ADPI0295
      00341  2 00001 4 00340         TIX     *-1,4,1                                                  ADPI0296
      00342  2 00001 4 00340         TIX     *-2,4,1                                                  ADPI0297
      00343 -0500 00 4 02277         CAL     TABSET+NTABST,4                                          ADPI0298
      00344  0734 00 4 00000         PAX     ,4                                                       ADPI0299
      00345 -0535 00 1 00627         LDC     RDUSER,1                                                 ADPI0300
      00346  0402 00 1 02357         SUB     POSIT,1                                                  ADPI0301
      00347  0601 00 0 00571         STO     NXXTAB        SAVE FOR SCOPE ECHO                        ADPI0302
      00350  0020 00 0 00254         TRA     RDPON                                                    ADPI0303
                                                                                                      ADPI0304
                                                                                                      ADPI0305
      00351  0056 00  000001  RDTC2  RNT     1             IS IT DOWNSHIFT                            ADPI0306
      00352  0020 00 0 00355         TRA     *+3           NO                                         ADPI0307
      00353  0600 00 4 02307         STZ     SHFT,4        YES-CLEAR SHIFT INDIC.                     ADPI0308
      00354  0020 00 0 00056         TRA     RDUNIT                                                   ADPI0309
      00355  0056 00  000010         RNT     10            IS IT UPPER SHIFT                          ADPI0310
      00356  0020 00 0 00056         TRA     RDUNIT        NO-IGNORE                                  ADPI0311
      00357 -0625 00 4 02307         STL     SHFT,4        SET UPPER SHIFT                            ADPI0312
      00360  0020 00 0 00056         TRA     RDUNIT                                                   ADPI0313
                                                                                                      ADPI0314
      00361  0054 00  001000  RDTTCC RFT     1000          TEST FOR COMPLETION                        ADPI0315
      00362  0020 00 0 00452         TRA     COMP                                                     ADPI0316
      00363 -0535 00 1 00627         LDC     RDUSER,1      USER NO.                                   ADPI0317
      00364 -0320 00 0 03374         ANA     =O77          GET CONTROL CODE                           ADPI0318
      00365  0737 00 4 00000         PAC     ,4                                                       ADPI0319
      00366 -3 77772 4 00056         TXL     RDUNIT,4,-NCC CHECK FOR BAD CONTROL CHAR                 ADPI0320
      00367  0020 00 4 00367         TRA     CCTV,4        DISPATCH ON CONTROL CHAR                   ADPI0321
                       00367  CCTV   SYN     *-1                                                      ADPI0322
      00370  0020 00 0 00375         TRA     DIALUP                                                   ADPI0323
      00371  0020 00 0 00404         TRA     ENDID                                                    ADPI0324
      00372  0020 00 0 00440         TRA     NCVCC         INTERRUPT                                  ADPI0325
      00373  0020 00 0 00440         TRA     NCVCC         QUIT                                       ADPI0326
      00374  0020 00 0 00440         TRA     NCVCC         HANGUP                                     ADPI0327
                       00006  NCC    SYN     *-CCTV                                                   ADPI0328
                                                                                                      ADPI0329
1            ADPI    M1416 1019 S. DUNTEN ... 7750 ADAPTER                       03/04/70 1429.5 PAGE 7

      00375  0500 00 0 00626  DIALUP CLA     RDBS          ASIGN USER NUMBER                          ADPI0330
      00376  0074 00 4 00006         TSX     ASNUNI,4                                                 ADPI0331
      00377  0020 00 0 00056         TRA     RDUNIT                                                   ADPI0332
      00400  0737 00 1 00000         PAC     ,1            SET RDUSER                                 ADPI0333
      00401  0600 00 1 02307         STZ     SHFT,1        RESET SHIFT                                ADPI0334
      00402  0600 00 1 75646         STZ     UNITID,1      SET UNITID TO 0                            ADPI0335
      00403  0020 00 0 00056         TRA     RDUNIT                                                   ADPI0336
      00404  0500 00 1 75646  ENDID  CLA     UNITID,1      DROP SIGN BIT                              ADPI0337
      00405  0600 00 1 02357         STZ     POSIT,1       (CLEAR CARRIAGE POSITION)                  ADPI0338
      00406  0602 00 1 75646         SLW     UNITID,1                                                 ADPI0339
      00407 -0320 00 0 03421         ANA     =O770000000000 CHECK FOR '4'                             ADPI0340
      00410  0322 00 0 03413         ERA     =H400000                                                 ADPI0341
      00411 -0100 00 0 00420         TNZ     SCDED         NO SKIP SEARCH                             ADPI0342
      00412 -0500 00 1 75646         CAL     UNITID,1      GET UNITID AGAIN                           ADPI0343
      00413  0774 00 4 00010         AXT     SNUNIT,4      SEARCH FOR SPECIAL ARDS CASE               ADPI0344
      00414 -0340 00 4 00606         LAS     SPEUNT+SNUNIT,4 TABLE POINTER                            ADPI0345
      00415  0020 00 0 00417         TRA     *+2                                                      ADPI0346
      00416  0020 00 0 00422         TRA     ARDFIX        GO FIX UP I.D.                             ADPI0347
      00417  2 00002 4 00414         TIX     *-3,4,2       TWO AT A TIME                              ADPI0348
      00420 -0774 00 4 00002  SCDED  AXC     2,4           RESTORE ENDID CODE                         ADPI0349
      00421  0020 00 0 00440         TRA     NCVCC           AND SEND TO TCOR.                        ADPI0350
      00422  0361 00 0 03414  ARDFIX ACL     =H500000      FUDGE ID                                   ADPI0351
      00423  0602 00 1 75646         SLW     UNITID,1      STORE IT                                   ADPI0352
      00424 -0500 00 4 00607         CAL     SPEUNT+SNUNIT+1,4 PICK UP H.S.L. FROM TABLE              ADPI0353
      00425  0636 00 1 00630         SCA     TOMUNI,1      PUT USER INTO 'TOMUNI'                     ADPI0354
      00426  0560 00 0 00630         LDQ     TOMUNI        INTO MQ                                    ADPI0355
      00427  0074 00 4 00010         TSX     ASHUNI,4      GO ASSIGN HIGH SPEED LINE                  ADPI0356
      00430  0774 00 0 00000         AXT     0,0           NOP ON ERROR                               ADPI0357
      00431  0074 00 4 01746         TSX     SETPRM,4      GO RESET USERS PARAMETERS                  ADPI0358
      00432  0 00004 0 00572         PZE     NORMBF,,4     . .                                        ADPI0359
      00433  0 00000 0 00630         PZE     TOMUNI                                                   ADPI0360
      00434  0074 00 4 00636         TSX     WRTELY,4      ERASE SCREEN                               ADPI0361
      00435  0 00001 0 03407         PZE     =O005200570057,,1                                        ADPI0362
      00436  0020 00 0 00437         TRA     *+1           IGNORE FULL RETURN                         ADPI0363
      00437  0020 00 0 00420         TRA     SCDED                                                    ADPI0364
      00440  1 76000 4 00441  NCVCC  TXI     *+1,4,-1024                                              ADPI0365
      00441  0756 00 4 00000         PCA     ,4                                                       ADPI0366
      00442 -0501 00 0 00627  CCSTO  ORA     RDUSER        FILL IN USER NO                            ADPI0367
      00443                          TOPOOL                                                           ADPI0368
      00444  0535 00 4 00633  RRESET LAC     DEVICE,4                                                 ADPI0369
      00445 -0520 00 4 02161         NZT     SHIFTR,4                                                 ADPI0370
      00446  0020 00 0 00056         TRA     RDUNIT        SKIP IF NOT SHIFTER                        ADPI0371
      00447 -0500 00 4 02203         CAL     QSHFT,4       RESET SHIFT                                ADPI0372
      00450  0602 00 1 02307         SLW     SHFT,1                                                   ADPI0373
      00451  0020 00 0 00056         TRA     RDUNIT                                                   ADPI0374
      00452 -0046 00 0 00000  COMP   PIA                   COMPLETION COUNT TO AC                     ADPI0375
      00453 -0320 00 0 03372         ANA     =O37                                                     ADPI0376
      00454  0602 00 0 00634         SLW     TCOUNT                                                   ADPI0377
      00455  0361 00 0 00014         ACL     OTCC                                                     ADPI0378
      00456  0602 00 0 00014         SLW     OTCC                                                     ADPI0379
      00457  0074 00 4 00002         TSX     TGIVE,4       INFORM ALLOCATER OF EXTRA ROOM             ADPI0380
      00460  3 00000 0 00626         TXH     RDBS,0,0                                                 ADPI0381
      00461  3 00000 0 00634         TXH     TCOUNT,0,0                                               ADPI0382
      00462  0100 00 0 00056         TZE     RDUNIT        USUAL RETURN                               ADPI0383
      00463  0502 00 0 00627  RSTART CLS     RDUSER        OK TO START USER PROGRAM                   ADPI0384
      00464                          TOPOOL                SEND COMPLETION TO TCORD                   ADPI0385
1            ADPI    M1416 1019 S. DUNTEN ... 7750 ADAPTER                       03/04/70 1429.5 PAGE 8

      00465  0020 00 0 00056         TRA     RDUNIT                                                   ADPI0386
                                                                                                      ADPI0387
      00466                   RDEND. BSS     0             HERE AFTER END OF MESSAGE FOUND            ADPI0388
      00466  0774 00 1 00000  RDIR1  AXT     **,1          ..                                         ADPI0389
      00467  0774 00 2 00000  RDIR2  AXT     **,2          ..                                         ADPI0390
      00470  0774 00 3 00000  RDIR3  AXT     **,3          ..                                         ADPI0391
      00471  0774 00 4 00000  RDIR4  AXT     **,4          ..                                         ADPI0392
      00472  0020 00 4 00002         TRA     2,4           RETURN TO 7750 CHANNEL PROGRAM             ADPI0393
1            ADPI    M1416 1019 S. DUNTEN ... 7750 ADAPTER                       03/04/70 1429.5 PAGE 9

                                                                                                      ADPI0395
                              *                                                                       ADPI0396
                              *                                                                       ADPI0397
                              *                                                                       ADPI0398
      00473  0756 00 4 00000  SCOPEC PCA     ,4            -USER TO AC                                ADPI0399
      00474  0737 00 1 00000         PAC     ,1            TO XR1                                     ADPI0400
      00475  0074 00 4 00004         TSX     US2BS,4       GET HSL NUMBER (IT IS LOG ARDS NO)         ADPI0401
      00476  0020 00 0 00056         TRA     RDUNIT        SKIP ON ERROR                              ADPI0402
      00477  0737 00 4 00000         PAC     ,4            INTO IR4                                   ADPI0403
      00500 -0046 00 0 00000         PIA                   CHARACTER AND USER TO AC                   ADPI0404
      00501  0602 00 0 00567         SLW     TTEEMM        SAVE                                       ADPI0405
      00502 -0320 00 0 74645         ANA     RMASK         REMOVE USER                                ADPI0406
      00503  0520 00 4 02574         ZET     COORCT,4      ARE WE IN THE MIDDLE OF GRAPHICAL INPUT .Q.ADPI0407
      00504  0020 00 0 00552         TRA     GRINPT        YES, GO PROCESS                            ADPI0408
                                                                                                      ADPI0409
                                             SEARCH FOR SPECIAL ARDS FUNCTION                         ADPI0410
                                                                                                      ADPI0411
      00505  0774 00 3 00014         AXT     NFCN,3        USE XR3 FOR SEARCHING                      ADPI0412
      00506 -0340 00 3 00622         LAS     SCPFCN+NFCN,3 LOOK IN TABLE                              ADPI0413
      00507  0020 00 0 00511         TRA     *+2           NO                                         ADPI0414
      00510  0020 60 3 00623         TRA*    SCPFCN+NFCN+1,3 GO TO SPECIAL CODE                       ADPI0415
      00511  2 00002 3 00506         TIX     *-3,3,2       SEARCH ENTIRE TABLE                        ADPI0416
      00512  0020 00 0 00330         TRA     BACKIT        NONE FOUND , GO INSERT CHAR IN TOPOOL      ADPI0417
                                                                                                      ADPI0418
                                             HERE TO PROCESS ERASE,CR,TAB,CRNOLF,GRAPH1 AND 2         ADPI0419
                                                                                                      ADPI0420
      00513  0600 00 4 02564  RESTRT STZ     SCOFUL,4      SCOPE IS NO LONGER FULL                    ADPI0421
      00514  0502 00 0 00627         CLS     RDUSER        SEND A RESTART SIGNAL TO SUPERVISOR        ADPI0422
      00515                          TOPOOL                                                           ADPI0423
      00516 -0625 00 0 02114         STL     LOCAL         TELL WRTELY THIS IS A LOCAL ERASE          ADPI0424
      00517  0074 00 4 00636         TSX     WRTELY,4      GO TO WRITE ERASE                          ADPI0425
      00520  0 00001 1 03407         PZE     =O005200570057,1,1 USE FF TO WRITE                       ADPI0426
      00521  0020 00 0 00522         TRA     *+1           KEEP TRYING                                ADPI0427
      00522  0600 00 0 02114         STZ     LOCAL         RESET LOCAL FLAG                           ADPI0428
      00523  0020 00 0 00550         TRA     GTST          TEST IF IN GRAPH INPUT, IF SO SEND ERASE   ADPI0429
      00524 -0500 00 1 02357  SCPTAB CAL     POSIT,1       GET POS                                    ADPI0430
      00525  0402 00 0 00571         SUB     NXXTAB                                                   ADPI0431
      00526  0602 00 1 02357         SLW     POSIT,1       RESET POS FOR WRTELY                       ADPI0432
      00527  0074 00 4 00636         TSX     WRTELY,4                                                 ADPI0433
      00530  0 00001 1 03410         PZE     =O005700570072,1,1                                       ADPI0434
      00531  0020 00 0 00532         TRA     *+1                                                      ADPI0435
      00532  0441 00 0 00567         LDI     TTEEMM                                                   ADPI0436
      00533  0020 00 0 00330         TRA     BACKIT                                                   ADPI0437
      00534  0074 00 4 00636  SCPRET TSX     WRTELY,4      GO TO WRTELY TO ECHO RETURN                ADPI0438
      00535  0 00001 1 03411         PZE     =O005700570136,1,1                                       ADPI0439
      00536  0020 00 0 00537         TRA     *+1           FORCE ECHO                                 ADPI0440
      00537  0441 00 0 00567         LDI     TTEEMM        RESTORE RECODED CHARACTER                  ADPI0441
      00540  0020 00 0 00330         TRA     BACKIT        GO BACK                                    ADPI0442
      00541  0500 00 4 02070  SCPCAR CLA     LINCNT,4      PICK UP LINE COUNT                         ADPI0443
      00542  0400 00 0 74670         ADD     Q1            BUMP BY ONE                                ADPI0444
      00543  0601 00 4 02070         STO     LINCNT,4                                                 ADPI0445
      00544  0020 00 0 00330         TRA     BACKIT                                                   ADPI0446
      00545 -0500 00 0 74664  GRINIT CAL     Q5            INITIALIZE GRAPH COUNT                     ADPI0447
      00546  0602 00 4 02574         SLW     COORCT,4                                                 ADPI0448
      00547  0600 00 4 02570         STZ     OLCALL,4      FORCE NEXT WRFLX TO POSITION BEAM          ADPI0449
      00550 -0500 00 0 00567  GTST   CAL     TTEEMM        PICK UP CHAR AND USER                      ADPI0450
1            ADPI    M1416 1019 S. DUNTEN ... 7750 ADAPTER                       03/04/70 1429.5 PAGE 10

      00551  0020 00 0 00562         TRA     ENTST         GO INSRT CHAR                              ADPI0451
      00552  0500 00 4 02574  GRINPT CLA     COORCT,4      GRAPH DATA COUNT IT                        ADPI0452
      00553  0402 00 0 74670         SUB     Q1            . .                                        ADPI0453
      00554  0601 00 4 02574         STO     COORCT,4                                                 ADPI0454
      00555  0100 00 0 00550         TZE     GTST          IS THIS THE LAST (I.E. TERMINATOR)         ADPI0455
      00556 -0500 00 0 00570         CAL     UNOUT         NO CONVERT OF CHAR                         ADPI0456
      00557  0760 00 0 00006         COM                   COMPLEMEMT CODE                            ADPI0457
      00560 -0320 00 0 03374         ANA     =O77          STRIP OFF GARBAGE                          ADPI0458
      00561 -0501 00 0 00627         ORA     RDUSER        ADD USET                                   ADPI0459
      00562                   ENTST  NZTBIT  ,1,GPHBIT,,   IS ACEPTING GRAPH INPT .Q.                 ADPI0460
      00564  0020 00 0 00056         TRA     RDUNIT        NO, SKIP                                   ADPI0461
      00565  0074 00 4 00007         TSX     ENTCHR,4      YES, SKIP SLAVE CHECKS ETC.                ADPI0462
      00566  0020 00 0 00332         TRA     CCCHAR        KEEP COUNT OF CHARACTERS                   ADPI0463
                                                                                                      ADPI0464
      00567  0 00000 0 00000  TTEEMM PZE                                                              ADPI0465
      00570  0 00000 0 00000  UNOUT                                                                   ADPI0466
      00571  0 00000 0 00000  NXXTAB                                                                  ADPI0467
      00572  0 00000 0 00000  NORMBF PZE     0             NORMAL PRESENT LINE COUNT                  ADPI0468
      00573 +000000000062            DEC     50            NORMAL LINES PER PAGE                      ADPI0469
      00574 +000000001274            DEC     700           NORMAL PAGE TOP                            ADPI0470
      00575 +000000000120            DEC     80            NORMAL MAX NO. OF CHARS PER LINE           ADPI0471
                                                                                                      ADPI0472
                                             TABLE OF SPECIAL TWX NUMBERS THAT ARE ARDS               ADPI0473
                                                                                                      ADPI0474
      00576                   SPEUNT UNTAB(400006,400007,400008,XXXXXX)                               ADPI0475
      00576  040000000006            BCI     1,400006                                                 ADPI0475.001
      00577  0 00000 0 00000         PZE     NN                                                       ADPI0475.001
      00600  040000000007            BCI     1,400007                                                 ADPI0475.001
      00601  0 00000 0 00001         PZE     NN                                                       ADPI0475.001
      00602  040000000010            BCI     1,400008                                                 ADPI0475.001
      00603  0 00000 0 00002         PZE     NN                                                       ADPI0475.001
      00604  676767676767            BCI     1,XXXXXX                                                 ADPI0475.001
      00605  0 00000 0 00003         PZE     NN                                                       ADPI0475.001
                       00010  SNUNIT EQU     *-SPEUNT      NUMBER OF ID TIMES 2                       ADPI0477
                                                                                                      ADPI0478
                                             TABLE OF SPECIAL ARDS INPUT FUNCTIONS                    ADPI0479
                                                                                                      ADPI0480
                       00606  SCPFCN SYN     *                                                        ADPI0481
      00606  0 00000 0 00032  GIPSC1 PZE     GRAPH1        1ST GRAPHICAL CHARACTER                    ADPI0482
      00607  0020 00 0 00545         TRA     GRINIT                                                   ADPI0483
      00610  0 00000 0 00036  GIPSC2 PZE     GRAPH2        2ND GRAPHICAL CHARACTER                    ADPI0484
      00611  0020 00 0 00545         TRA     GRINIT                                                   ADPI0485
      00612  0 00000 0 00052  ERASCP PZE     FFCHR         ERASE                                      ADPI0486
      00613  0020 00 0 00513         TRA     RESTRT        GO PULL USER OUT OF OUTPUT WAIT            ADPI0487
      00614  0 00000 0 00055  CARSCP PZE     CRGRET        C.R.                                       ADPI0488
      00615  0020 00 0 00541         TRA     SCPCAR        UPDATE LINE COUNT                          ADPI0489
      00616  0 00000 0 00072  TABSCP PZE     TABCHR        TAB                                        ADPI0490
      00617  0020 00 0 00524         TRA     SCPTAB        GO ECHO THROUGH WRTELY                     ADPI0491
      00620  0 00000 0 00536  RETSCP PZE     CRNOLF        C.R. NO L.F.                               ADPI0492
      00621  0020 00 0 00534         TRA     SCPRET        ECHO IT                                    ADPI0493
                       00014  NFCN   EQU     *-SCPFCN                                                 ADPI0494
                                                                                                      ADPI0495
                                                                                                      ADPI0496
      00622  0 00000 0 00000  BDCHAR                                                                  ADPI0497
      00623  0 00000 0 00000  BTCNT                        COUNT OF LOST MESSAGES AT LEAST ONE        ADPI0498
      00624  0 00000 0 00000  PARER                        COUNT OF BAD PARITY CHARACTERS             ADPI0499
1            ADPI    M1416 1019 S. DUNTEN ... 7750 ADAPTER                       03/04/70 1429.5 PAGE 11

      00625  0 00000 0 00000  TCNT                         NEXT 7750 MESSAGE NUMBER                   ADPI0500
      00626  0 00000 0 00000  RDBS                                                                    ADPI0501
      00627  0 00000 0 00000  RDUSER                                                                  ADPI0502
      00630  0 00000 0 00000  TOMUNI                                                                  ADPI0503
      00631  0 00000 0 00000  RDMMQ                                                                   ADPI0504
      00632  0 00000 0 00000  TEMP                                                                    ADPI0505
      00633  0 00000 0 00000  DEVICE                                                                  ADPI0506
      00634  0 00000 0 00000  TCOUNT                                                                  ADPI0507
      00635  0 00000 4 00000  INBUF  PZE     **,4,**                                                  ADPI0508
1            ADPI    M1416 1019 S. DUNTEN ... 7750 ADAPTER                       03/04/70 1429.5 PAGE 12

                                             WRTELY ..... HERE FROM BRKPRC TO WRITE DATA ON A TELETYPEADPI0510
                              *      IR ASIGNMENT FOR WRITE                                           ADPI0511
                              *      1       COUNTS OUT CHAR 0 TO COUNT                               ADPI0512
                              *      2       SPARE                                                    ADPI0513
                              *      3       OUTPUT POINTER N TO 1                                    ADPI0514
                              *      4       TEMP                                                     ADPI0515
                              *      5       DEVICE NUMBER                                            ADPI0516
                              *      6       COUNTS IN CHAR 3-1                                       ADPI0517
                              *      7       COUNTS IN WORDS N TO 1                                   ADPI0518
                                                                                                      ADPI0519
      00636  0634 00 4 00642  WRTELY SXA     XRW,4         TEMP CALL TO WRHIGH                        ADPI0520
      00637  0756 00 1 00000         PCA     ,1                                                       ADPI0521
      00640  0074 00 4 00004         TSX     US2BS,4                                                  ADPI0522
      00641  0020 00 0 00647         TRA     ERW                                                      ADPI0523
      00642  0774 00 4 00000  XRW    AXT     ,4                                                       ADPI0524
      00643 -0340 00 0 74666         LAS     Q3            THIS IS S. WARD'S GOODIE                   ADPI0525
      00644  0020 00 0 00651         TRA     OKW                                                      ADPI0526
      00645  0020 00 0 00012         TRA     $WRHIGH                                                  ADPI0527
      00646  0020 00 0 00651         TRA     OKW           MUST BE AN ARDS..                          ADPI0528
      00647  0534 00 4 00642  ERW    LXA     XRW,4                                                    ADPI0529
      00650  0020 00 4 00003         TRA     3,4                                                      ADPI0530
      00651  0760 00 0 00016  OKW    LMTM                  GO TO 7 TAG MODE                           ADPI0531
      00652  0634 00 1 01442         SXA     WRTTX1,1      SAVE IRS IF WRITING TO DO                  ADPI0532
      00653  0634 00 2 01456         SXA     WRTTX2,2      ..                                         ADPI0533
      00654  0634 00 4 01457         SXA     WRTTX4,4      ..                                         ADPI0534
      00655  0634 00 3 01443         SXA     WRTTX3,3                                                 ADPI0535
      00656  0634 00 5 01444         SXA     WRTTX5,5                                                 ADPI0536
      00657  0634 00 6 01445         SXA     WRTTX6,6                                                 ADPI0537
      00660  0634 00 7 01446         SXA     WRTTX7,7                                                 ADPI0538
      00661  0600 00 0 02116         STZ     INFO                                                     ADPI0539
      00662  0600 00 0 02117         STZ     FULL                                                     ADPI0540
      00663 -0625 00 0 02060         STL     CHCKL                                                    ADPI0541
      00664  0600 00 0 02124         STZ     SAVCHR                                                   ADPI0542
      00665  0600 00 0 02057         STZ     SCOFLG        SET FOR NO SCOPE CALL                      ADPI0543
      00666  0756 00 1 00000         PCA     ,1            GET USER NO                                ADPI0544
      00667  0074 00 4 00004         TSX     US2BS,4                                                  ADPI0545
      00670  0020 00 0 01442         TRA     WRRET         NO BS NO FOR THIS USER NO                  ADPI0546
      00671  0621 00 0 02115         STA     UNITNO        SET BS NO                                  ADPI0547
      00672  0534 00 4 01457         LXA     WRTTX4,4                                                 ADPI0548
      00673  0500 00 4 00001         CLA     1,4           GET CALLING CONTROL WORD                   ADPI0549
      00674  0601 00 0 02062         STO     DSCOPF        SAVE                                       ADPI0550
      00675  0100 00 0 01467         TZE     WRESET                                                   ADPI0551
      00676  0600 00 0 02056         STZ     FORCE         RESET FORCE FLAG                           ADPI0552
      00677  0625 00 0 02056         STT     FORCE         SAVE TAG FOR FORCED WRITE                  ADPI0553
      00700  0625 00 0 01453         STT     PAR           AND CALL TO ADAPTER                        ADPI0554
      00701  0771 00 0 00022         ARS     18                                                       ADPI0555
      00702  0361 00 4 00001         ACL     1,4                                                      ADPI0556
      00703  0621 00 0 02126         STA     WRINPT        SETUP TO GET CHAR FROM TCORD               ADPI0557
      00704 -0734 00 7 00000         PDX     ,7            WORD COUNT TO 7                            ADPI0558
      00705  1 00001 7 00706         TXI     *+1,7,1       BUMP BY 1 SO GETCHR WILL WORK THE FIRST TIMADPI0559
      00706  0774 00 6 00000         AXT     0,6           RESET CHAR COUNT                           ADPI0560
      00707 -0534 00 3 02125         LXD     OUTPTR,3      OUTPUT WORD COUNTER                        ADPI0561
      00710  0560 00 0 74662         LDQ     Q7            SET OVERFLOW BITS                          ADPI0562
      00711 -0600 00 0 02121         STQ     OUTMQ                                                    ADPI0563
      00712  0534 00 2 01442         LXA     WRTTX1,2      SAVE POSIT IN CASE THE LINE IS NOT SENT    ADPI0564
      00713 -0500 00 2 02357         CAL     POSIT,2                                                  ADPI0565
1            ADPI    M1416 1019 S. DUNTEN ... 7750 ADAPTER                       03/04/70 1429.5 PAGE 13

      00714  0602 00 0 02123         SLW     SPOSIT                                                   ADPI0566
      00715  0774 00 1 00000         AXT     0,1           RESET CHAR COUNT                           ADPI0567
      00716  0560 00 2 75646         LDQ     UNITID,2      USE UNITID TO GET DEVICE CODE              ADPI0568
      00717 -0754 00 0 00000         ZAC                                                              ADPI0569
      00720 -0763 00 0 00006         LGL     6                                                        ADPI0570
      00721  0737 00 5 00000         PAC     ,5                                                       ADPI0571
      00722 -3 00000 5 01442         TXL     WRRET,5,0     IF ZERO IGNORE CALL                        ADPI0572
      00723 -3 77766 5 01442         TXL     WRRET,5,-NDIV-1 IF TOO HIGH IGNORE CALL                  ADPI0573
      00724 -3 77767 5 01516         TXL     SCOCAL,5,-9   IF EQUAL TO 9, MUST BE SCOPE               ADPI0574
      00725  0520 00 0 02124  WRTN50 ZET     SAVCHR        IS A CHAR SAVED UP                         ADPI0575
      00726  0020 00 0 01132         TRA     NSRTCH          YES, INSERT IN OUTPUT                    ADPI0576
      00727                          GETCHR                  NO, GET NEXT                             ADPI0577
      00737  0044 00 0 00000         PAI                                                              ADPI0578
      00740  0534 00 2 01442         LXA     WRTTX1,2      CHECK FOR FULL LINE                        ADPI0579
      00741 -0500 00 2 02357         CAL     POSIT,2                                                  ADPI0580
      00742 -0340 00 5 02276         LAS     LINLTH,5                                                 ADPI0581
      00743  0020 00 0 01072         TRA     ADDCR                                                    ADPI0582
      00744  0020 00 0 00745         TRA     *+1                                                      ADPI0583
      00745 -0046 00 0 00000  WRTN51 PIA                                                              ADPI0584
      00746 -0320 00 0 03374         ANA     =O77                                                     ADPI0585
      00747  0737 00 4 00000         PAC     ,4                                                       ADPI0586
      00750 -0500 60 5 02137         CAL*    TABL,5                                                   ADPI0587
      00751  0054 00  000100         RFT     100           IS THIS UPPER CASE                         ADPI0588
      00752  0767 00 0 00011         ALS     9             YES, SHIFT CODE                            ADPI0589
      00753  0044 00 0 00000         PAI                   RECODED VAL TO SI                          ADPI0590
      00754 -0054 00  200000         LFT     200000        IS CONTROL BIT ON                          ADPI0591
      00755  0020 00 0 01150         TRA     WRTN5         YES                                        ADPI0592
      00756  0520 00 0 02057         ZET     SCOFLG        IS THIS A SCOPE CALL                       ADPI0593
      00757  0020 00 0 01561         TRA     MDCHCK        CHECK WHAT MODE THE SCOPE IS IN            ADPI0594
      00760 -0520 00 5 02161         NZT     SHIFTR,5                                                 ADPI0595
      00761  0020 00 0 00767         TRA     WRTN3                                                    ADPI0596
      00762  0534 00 4 01442         LXA     WRTTX1,4      -USER NO.                                  ADPI0597
      00763 -0520 00 4 02307         NZT     SHFT,4        SEE IF SHIFT CHAR. TO BE ADDED             ADPI0598
      00764  0020 00 0 01400         TRA     WRTZR         TRA=IN LOWER SHIFT                         ADPI0599
      00765 -0056 00  400000         LNT     400000        IN UPPER-IS THIS CHAR. UPPER               ADPI0600
      00766  0020 00 0 01405         TRA     WRTSFT        NO-INSERT SHIFT                            ADPI0601
                       00767  WRTN3  SYN     *                                                        ADPI0602
      00767 -0320 00 0 03417         ANA     =O177000000000 GET RID OF CONTROL BITS                   ADPI0603
      00770  0044 00 0 00000         PAI                   SAVE CHAR                                  ADPI0604
      00771 -0520 00 5 02172         NZT     WPAR,5        COMPUTE PARITY                             ADPI0605
      00772  0020 00 0 01010         TRA     NOWPAR        IF NEEDED                                  ADPI0606
      00773 -0130 00 0 00000         XCL                                                              ADPI0607
      00774  0774 00 2 00010         AXT     8,2           COUNT BITS                                 ADPI0608
      00775 -0754 00 0 00000         ZAC                                                              ADPI0609
      00776  0760 00 0 00010         RND                                                              ADPI0610
      00777 -0773 00 0 00001         RQL     1                                                        ADPI0611
      01000  2 00001 2 00776         TIX     *-2,2,1                                                  ADPI0612
      01001  0322 00 5 02172         ERA     WPAR,5                                                   ADPI0613
      01002  0760 00 0 00001         LBT                                                              ADPI0614
      01003  0020 00 0 01007         TRA     *+4                                                      ADPI0615
      01004 -0046 00 0 00000         PIA                                                              ADPI0616
      01005 -0501 00 5 02172         ORA     WPAR,5                                                   ADPI0617
      01006  0020 00 0 01010         TRA     *+2                                                      ADPI0618
      01007 -0046 00 0 00000         PIA                                                              ADPI0619
      01010  0771 00 0 00002  NOWPAR ARS     3-1                                                      ADPI0620
      01011 -0501 00 0 03406         ORA     =O000100000000                                           ADPI0621
1            ADPI    M1416 1019 S. DUNTEN ... 7750 ADAPTER                       03/04/70 1429.5 PAGE 14

      01012                          TOLINE                ADD TO OUTPUT                              ADPI0622
      01025 -0520 00 0 02060         NZT     CHCKL         IS THIS IN CHARACTER MODE                  ADPI0623
      01026  0020 00 4 00001         TRA     1,4           NO, RETURN USING IR4                       ADPI0624
      01027 -0046 00 0 00000         PIA                                                              ADPI0625
      01030  0771 00 0 00033         ARS     27            UPDATE CARRAGE POSITION                    ADPI0626
      01031  0534 00 2 01442  DOPOS  LXA     WRTTX1,2      USER NO                                    ADPI0627
      01032 -0520 00 5 02161         NZT     SHIFTR,5                                                 ADPI0628
      01033  0020 00 0 01037         TRA     *+4                                                      ADPI0629
      01034 -0320 00 0 03374         ANA     =O77                                                     ADPI0630
      01035  0520 00 2 02307         ZET     SHFT,2                                                   ADPI0631
      01036 -0501 00 0 03375         ORA     =O100                                                    ADPI0632
      01037                          CALTAB  5                                                        ADPI0633
      01054  0737 00 4 00000         PAC     ,4            TABLE ENTRY                                ADPI0634
      01055 -0500 00 2 02357         CAL     POSIT,2       CURRENT POSITION                           ADPI0635
      01056  0100 00 0 00725         TZE     WRTN50        IGNORE IF POSITION UNDEFINED               ADPI0636
      01057  0734 00 2 00000         PAX     ,2                                                       ADPI0637
      01060 -3 77775 4 00725         TXL     WRTN50,4,-3   IGNORE CR AND TAB                          ADPI0638
      01061  0020 00 4 01061         TRA     *,4                                                      ADPI0639
      01062  1 00001 2 01064         TXI     WRPON,2,1                                                ADPI0640
      01063  1 77777 2 01064         TXI     WRPON,2,-1                                               ADPI0641
      01064 -3 01750 2 01066  WRPON  TXL     *+2,2,1000                                               ADPI0642
      01065  0774 00 2 00001         AXT     1,2                                                      ADPI0643
      01066  0754 00 2 00000         PXA     ,2                                                       ADPI0644
      01067  0534 00 2 01442         LXA     WRTTX1,2                                                 ADPI0645
      01070  0602 00 2 02357         SLW     POSIT,2                                                  ADPI0646
      01071  0020 00 0 00725         TRA     WRTN50                                                   ADPI0647
                                                                                                      ADPI0648
      01072 -0046 00 0 00000  ADDCR  PIA                   AT END OF LINE, SHOULD CR BE INSERTED      ADPI0649
      01073  0602 00 0 02124         SLW     SAVCHR        SAVE THIS CHARACTER                        ADPI0650
      01074 -0320 00 0 03374         ANA     =O77            ..                                       ADPI0651
      01075  0737 00 4 00000         PAC     ,4              AND LOOK IT UP IN THE TABLE              ADPI0652
      01076 -0500 60 5 02137         CAL*    TABL,5          ..                                       ADPI0653
      01077  0056 00  000100         RNT     100           GET CONVERSION FOR CHARS. GREATER          ADPI0654
      01100  0771 00 0 00011         ARS     9               OR LESS THAN 64                          ADPI0655
      01101  0771 00 0 00022         ARS     18            RIGHT-ADJUST                               ADPI0656
      01102  0044 00 0 00000         PAI                     ..                                       ADPI0657
      01103  0054 00  000200         RFT     200           IS THIS A CONTROL CHAR.                    ADPI0658
      01104  0020 00 0 01127         TRA     ADDCR1          YES                                      ADPI0659
      01105                          CALTAB  5               NO, IT IS A PRINTING CHAR.               ADPI0660
      01122  0402 00 0 74670         SUB     Q1                ONLY IF MAGIC NUMBER IS ONE            ADPI0661
      01123 -0100 00 0 01132         TNZ     NSRTCH        NON-PRINTING (OR B.S.), NO CR              ADPI0662
      01124 -0634 00 5 02124  ADDCR. SXD     SAVCHR,5      HERE TO ADD CR, ENSURE FLAG NOT ZERO       ADPI0663
      01125  0441 00 0 03373         LDI     =O55          PICK UP A CR                               ADPI0664
      01126  0020 00 0 00745         TRA     WRTN51          AND INSERT IT                            ADPI0665
      01127 -0320 00 0 03374  ADDCR1 ANA     =O77          HERE FOR CONTROL,                          ADPI0666
      01130  0402 00 0 74667         SUB     Q2              IS IT TAB.                               ADPI0667
      01131  0100 00 0 01124         TZE     ADDCR.          YES, INSERT CR FIRST                     ADPI0668
                                                                                                      ADPI0669
      01132  0441 00 0 02124  NSRTCH LDI     SAVCHR        GET SAVED CHAR                             ADPI0670
      01133  0600 00 0 02124         STZ     SAVCHR          AND RESET FLAG                           ADPI0671
      01134 -0057 00  777777         RIL     /             FLUSH GARBAGE                              ADPI0672
      01135  0020 00 0 00745         TRA     WRTN51          AND INSERT IN OUTPUT                     ADPI0673
                                                                                                      ADPI0674
      01136                   WRTN54 GETCHR                KLUDGE FOR ARDS                            ADPI0675
      01146  0044 00 0 00000         PAI                   ..                                         ADPI0676
      01147  0020 00 0 00745         TRA     WRTN51                                                   ADPI0677
1            ADPI    M1416 1019 S. DUNTEN ... 7750 ADAPTER                       03/04/70 1429.5 PAGE 15

                                                                                                      ADPI0678
      01150 -0054 00  400000  WRTN5  LFT     400000        SHOULD SHIFT BE IGNORED                    ADPI0679
      01151  0020 00 0 00767         TRA     WRTN3         YES                                        ADPI0680
      01152  0771 00 0 00011         ARS     9                                                        ADPI0681
      01153 -0320 00 0 03404         ANA     =O17000000                                               ADPI0682
      01154 -0737 00 4 00000         PDC     ,4                                                       ADPI0683
      01155 -3 00000 4 00725         TXL     WRTN50,4,0    IGNORE IF ZERO                             ADPI0684
      01156 -3 77762 4 01577         TXL     OWNSCP,4,-14  COULD BE SCOPE IF TOO BIG                  ADPI0685
      01157  0600 00 0 02122         STZ     EXDLY         RESET EXTRA DELAY                          ADPI0686
      01160 -0056 00  300000         LNT     300000        IS THIS A SPACING                          ADPI0687
      01161  0020 00 0 01201         TRA     NOTSPC                                                   ADPI0688
      01162  0520 00 0 02057         ZET     SCOFLG        IS THIS SCOPE HANGING UP                   ADPI0689
      01163  0020 00 0 01304         TRA     FILL          YES, SKIP 'TURN LINE ON'                   ADPI0690
      01164 -0500 00 0 03420         CAL     =O377000000000 TURN LINE ON                              ADPI0691
      01165                          TOLINE                                                           ADPI0692
      01200  0020 00 0 01304         TRA     FILL                                                     ADPI0693
      01201 -3 77775 4 01331  NOTSPC TXL     CHCKFF,4,-3   WORK ONLY ON C.R. AND TAB                  ADPI0694
      01202  0534 00 2 01442         LXA     WRTTX1,2      USER NO                                    ADPI0695
      01203 -3 77776 4 01250         TXL     WRTAB,4,-2    TRA IF TAB                                 ADPI0696
      01204 -0520 00 0 02057         NZT     SCOFLG        CHECK FOR SCOPE                            ADPI0697
      01205  0020 00 0 01236         TRA     NOSCO         GO ON IF NOT                               ADPI0698
                                                                                                      ADPI0699
                                             HERE FOR SCOPE CARRIAGE RETURNS ONLY                     ADPI0700
                                                                                                      ADPI0701
      01206 -0500 00 0 02065         CAL     CHRMOD        SET MODE TO CHARACTER                      ADPI0702
      01207  0602 00 0 02061         SLW     OLMODE        . .                                        ADPI0703
      01210  0520 00 0 02062         ZET     DSCOPF        IF IN WSCOPE MODE DON'T UPDATE LINE COUNT  ADPI0704
      01211  0020 00 0 01235         TRA     NOSCO-1       . .                                        ADPI0705
      01212  0535 00 4 02055         LAC     SCUSER,4      SCOPE USER TO IR4                          ADPI0706
      01213 -0500 00 4 02070         CAL     LINCNT,4      GET CURRENT LINE COUNT                     ADPI0707
      01214  0361 00 0 74670         ACL     Q1            BUMP                                       ADPI0708
      01215  0602 00 4 02070         SLW     LINCNT,4      AND SAVE                                   ADPI0709
      01216 -0520 00 0 02056         NZT     FORCE         IS THIS A FORCE IF SO DON'T TEST FOR FULL  ADPI0710
      01217 -0520 00 4 02564         NZT     SCOFUL,4      IS SCOPE FULL .Q.                          ADPI0711
      01220  0020 00 0 01230         TRA     NOTFUL        NO, GO ON                                  ADPI0712
      01221  0074 00 4 00001         TSX     WT7750,4      YES, GLICH SCREEN AND FULL RETURN          ADPI0713
      01222  0 00001 0 02730         PZE     GLICH,,1                                                 ADPI0714
      01223  0 00000 0 02115         PZE     UNITNO                                                   ADPI0715
      01224  0020 00 0 01225         TRA     *+1           IGNORE FULL RETURN                         ADPI0716
      01225  0600 00 0 02116  WAITR  STZ     INFO          SIMULATE A BUFFER FULL RETURN TO ENTER O.W.ADPI0717
      01226 -0625 00 0 02117         STL     FULL          . .                                        ADPI0718
      01227  0020 00 0 01442         TRA     WRRET                                                    ADPI0719
      01230  0402 00 4 02074  NOTFUL SUB     MAXLIN,4      HERE IF NOT YEST FULL, GET MAX LINES       ADPI0720
      01231 -0120 00 0 01235         TMI     NOSCO-1       OK GO ON                                   ADPI0721
      01232 -0625 00 4 02564         STL     SCOFUL,4      SET SCOPE FULL FLAG                        ADPI0722
      01233 -0500 00 0 02730         CAL     GLICH         ADD GLICH IN PRESENT LINE                  ADPI0723
      01234                          TOLIN                                                            ADPI0724
      01235  0774 00 4 77777         AXT     -1,4          RESET IR4 FOR C.R.                         ADPI0725
      01236  0560 00 2 02357  NOSCO  LDQ     POSIT,2                                                  ADPI0726
      01237 -0520 00 2 02357         NZT     POSIT,2                                                  ADPI0727
      01240  0560 00 5 02276         LDQ     LINLTH,5      MAX DELAY IF POSITION UNDEFINED            ADPI0728
      01241  0200 00 5 02247         MPY     CRATE,5                                                  ADPI0729
      01242 -0763 00 0 00017         LGL     18-BPOINT                                                ADPI0730
      01243 -0320 00 0 03377         ANA     =O777                                                    ADPI0731
      01244  0602 00 0 02122         SLW     EXDLY         STORE EXTRA DELAY                          ADPI0732
      01245 -0500 00 0 74670         CAL     Q1            RESET POSITION                             ADPI0733
1            ADPI    M1416 1019 S. DUNTEN ... 7750 ADAPTER                       03/04/70 1429.5 PAGE 16

      01246  0602 00 2 02357         SLW     POSIT,2                                                  ADPI0734
      01247  0020 00 0 01304         TRA     FILL                                                     ADPI0735
      01250 -0500 00 2 02357  WRTAB  CAL     POSIT,2                                                  ADPI0736
      01251  0100 00 0 01263         TZE     MAXTAB        MAX DELAY IF UNDEFINED                     ADPI0737
      01252  0774 00 4 00016         AXT     NTABST,4      FIND NEXT TAB STOP                         ADPI0738
      01253 -0340 00 4 02277         LAS     TABSET+NTABST,4                                          ADPI0739
      01254  2 00001 4 01253         TIX     *-1,4,1                                                  ADPI0740
      01255  2 00001 4 01253         TIX     *-2,4,1                                                  ADPI0741
      01256  0560 00 4 02277         LDQ     TABSET+NTABST,4                                          ADPI0742
      01257 -0600 00 2 02357         STQ     POSIT,2       UPDATE POSITION                            ADPI0743
      01260 -0760 00 0 00003         SSM                   FIND DISTANCE TO TAB                       ADPI0744
      01261  0400 00 4 02277         ADD     TABSET+NTABST,4                                          ADPI0745
      01262  0020 00 0 01264         TRA     *+2                                                      ADPI0746
      01263  0500 00 0 03370  MAXTAB CLA     =20                                                      ADPI0747
      01264 -0520 00 0 02057         NZT     SCOFLG        IS THIS SCOPE                              ADPI0748
      01265  0020 00 0 01275         TRA     NOSCO2        NOT SCOPE GO ON                            ADPI0749
                                                                                                      ADPI0750
                                             HERE FOR TABS ON THE SCOPE                               ADPI0751
                                                                                                      ADPI0752
      01266  0734 00 2 00000         PAX     ,2            NUMBER OF NECESSARY BLANKS IN XR2          ADPI0753
      01267 -0500 00 0 02731  SPACIT CAL     BLANCK        PICKUP A SPACE CHAR                        ADPI0754
      01270                          TOLIN                 INTO OUTPUT                                ADPI0755
      01271  2 00001 2 01267         TIX     SPACIT,2,1    DO ALL IN XR2                              ADPI0756
      01272 -0500 00 0 02065         CAL     CHRMOD        SET MODE TO CHARACTER                      ADPI0757
      01273  0602 00 0 02061         SLW     OLMODE        . .                                        ADPI0758
      01274  0020 00 0 00725         TRA     WRTN50        GO AWAY                                    ADPI0759
                                                                                                      ADPI0760
      01275  0131 00 0 00000  NOSCO2 XCA                   AC TO MQ FOR MULTIPLY                      ADPI0761
      01276  0200 00 5 02247         MPY     CRATE,5                                                  ADPI0762
      01277  0131 00 0 00000         XCA                                                              ADPI0763
      01300  0771 00 0 00003         ARS     BPOINT                                                   ADPI0764
      01301 -0320 00 0 03377         ANA     =O777                                                    ADPI0765
      01302  0602 00 0 02122         SLW     EXDLY                                                    ADPI0766
      01303  0774 00 4 77776         AXT     -2,4          RESTOR XR4                                 ADPI0767
      01304 -0500 60 5 02214  FILL   CAL*    DELDCH,5      GET THREE CHAR GROUP                       ADPI0768
      01305  0361 00 0 02122         ACL     EXDLY         ADD EXTRA DELAY (IF NOT ZERO)              ADPI0769
      01306  0044 00 0 00000         PAI                                                              ADPI0770
      01307  0774 00 4 00003         AXT     3,4                                                      ADPI0771
      01310                   WRTN8  TOLINE                                                           ADPI0772
      01323  2 00001 4 01310         TIX     WRTN8,4,1                                                ADPI0773
      01324 -0046 00 0 00000         PIA                   RESTOR CAHR                                ADPI0774
      01325  0771 00 0 00031         ARS     24+1          POSITION                                   ADPI0775
      01326 -0056 00  377700         LNT     377700        IF NOT SPACEING                            ADPI0776
      01327  0020 00 0 01031         TRA     DOPOS         COMPUT NEW POSITION                        ADPI0777
      01330  0020 00 0 00725         TRA     WRTN50        DO NEXT CHAR                               ADPI0778
                                                                                                      ADPI0779
                                             HERE FOR SCOPE FORM FEED                                 ADPI0780
                                                                                                      ADPI0781
      01331 -0520 00 0 02057  CHCKFF NZT     SCOFLG        IS THIS SCOPE                              ADPI0782
      01332  0020 00 0 01304         TRA     FILL          NO, CONTINUE                               ADPI0783
      01333 -3 77774 4 01304         TXL     FILL,4,-4     SCOPE, BUT NOT FORMFEED                    ADPI0784
      01334  0520 00 0 02114         ZET     LOCAL         SEE IF WE MUST SUPPLY ERASE                ADPI0785
      01335  0020 00 0 01340         TRA     DELAYT        LOCAL, ONLY DELAY AND SET BEAM             ADPI0786
      01336 -0500 00 0 02716         CAL     ERASIN        PICKUP THE ERASE INSTRUCTION               ADPI0787
      01337                          TOLIN                 INTO OUTPUT                                ADPI0788
      01340 -0754 00 0 00000  DELAYT ZAC                   ZERO AC                                    ADPI0789
1            ADPI    M1416 1019 S. DUNTEN ... 7750 ADAPTER                       03/04/70 1429.5 PAGE 17

      01341  0774 00 2 00036         AXT     30,2          THIRTY NULLS                               ADPI0790
      01342                   DELAIT TOLIN                 INTO BUFFER                                ADPI0791
      01343  2 00001 2 01342         TIX     DELAIT,2,1                                               ADPI0792
      01344  0535 00 2 02055         LAC     SCUSER,2      -SCOPE USER TO IR2                         ADPI0793
      01345  0600 00 2 02070         STZ     LINCNT,2      ZERO LINE COUNT                            ADPI0794
      01346 -0500 00 2 02100         CAL     TOPPAG,2      CHECK IF SETPOINT NEEDED                   ADPI0795
      01347  0771 00 0 00015         ARS     12+1          SHIFT IT                                   ADPI0796
      01350  0322 00 0 00574         ERA     NORMBF+2      IS IT THE SAME                             ADPI0797
      01351  0100 00 0 00725         TZE     WRTN50        NO SKIP SETPOINT                           ADPI0798
      01352  0020 00 0 01651         TRA     STASET        GO SE THE BEAM POSITION                    ADPI0799
      01353 -0520 00 5 02161  WRDONE NZT     SHIFTR,5      TEST FOR SHIFTING DEVICE                   ADPI0800
      01354  0020 00 0 01426         TRA     WRTTND        NO SHIFT                                   ADPI0801
      01355  0534 00 4 01442         LXA     WRTTX1,4      USER NO.                                   ADPI0802
      01356 -0520 00 4 02307         NZT     SHFT,4                                                   ADPI0803
      01357  0020 00 0 01426         TRA     WRTTND                                                   ADPI0804
      01360  0600 00 4 02307         STZ     SHFT,4        SET TO DOWNSHIFT                           ADPI0805
      01361 -0500 00 5 02225         CAL     DWNSFT,5      DOWN SHIFT CHAR                            ADPI0806
      01362  0767 00 0 00001         ALS     1                                                        ADPI0807
      01363 -0501 00 0 03406         ORA     =O000100000000 ADD STRT BIT                              ADPI0808
      01364                          TOLINE                                                           ADPI0809
      01377  0020 00 0 01426         TRA     WRTTND                                                   ADPI0810
                                                                                                      ADPI0811
                                                                                                      ADPI0812
      01400 -0056 00  400000   WRTZR LNT     400000        IN LOWER-IS THIS CHAR. LOWER               ADPI0813
      01401  0020 00 0 00767         TRA     WRTN3         YES                                        ADPI0814
      01402 -0625 00 4 02307         STL     SHFT,4        SET SHIFT UPPER                            ADPI0815
      01403 -0500 00 5 02236         CAL     UPSFT,5       UP SHIFT CHAR                              ADPI0816
      01404  0020 00 0 01407         TRA     *+3                                                      ADPI0817
      01405  0600 00 4 02307  WRTSFT STZ     SHFT,4        SET SHIFT LOW                              ADPI0818
      01406 -0500 00 5 02225         CAL     DWNSFT,5                                                 ADPI0819
      01407  0767 00 0 00001         ALS     1             ADD START BIT                              ADPI0820
      01410 -0501 00 0 03406         ORA     =O000100000000                                           ADPI0821
      01411                          TOLINE                PUT SHIFT IN OUTPUT                        ADPI0822
      01424 -0046 00 0 00000         PIA                   RESTOR CHAR                                ADPI0823
      01425  0020 00 0 00767         TRA     WRTN3         AND PUT IN OUTPUT                          ADPI0824
                                                                                                      ADPI0825
      01426 -0520 00 0 02057  WRTTND NZT     SCOFLG        IS THIS A SCOPE CALL                       ADPI0826
      01427  0020 00 0 01432         TRA     WRTTN2        NO CONTINUE                                ADPI0827
      01430 -0500 00 0 02733         CAL     ETX           PICK UP MESSAGE ENDER                      ADPI0828
      01431                          TOLIN                 INTO OUTPUT BUFFER                         ADPI0829
      01432 -0634 00 1 01453  WRTTN2 SXD     PAR,1         STORE CHAR COUNT                           ADPI0830
      01433  0634 00 1 02116         SXA     INFO,1        POSIBLE RESET OF INFO                      ADPI0831
      01434  0560 00 0 74671         LDQ     Q0            PLACE LAST CHAR IN BUFF                    ADPI0832
      01435 -0500 00 0 02121         CAL     OUTMQ                                                    ADPI0833
      01436  0140 00 0 01437         TOV     *+1                                                      ADPI0834
      01437 -0763 00 0 00014         LGL     12                                                       ADPI0835
      01440 -0140 00 0 01437         TNO     *-1                                                      ADPI0836
      01441  0602 60 0 02125         SLW*    OUTPTR                                                   ADPI0837
                                                                                                      ADPI0838
                       01442  WRRET  SYN     *                                                        ADPI0839
      01442  0774 00 1 00000  WRTTX1 AXT     **,1          -USER NO.                                  ADPI0840
      01443  0774 00 3 00000  WRTTX3 AXT     ,3                                                       ADPI0841
      01444  0774 00 5 00000  WRTTX5 AXT     ,5                                                       ADPI0842
      01445  0774 00 6 00000  WRTTX6 AXT     ,6                                                       ADPI0843
      01446  0774 00 7 00000  WRTTX7 AXT     ,7                                                       ADPI0844
      01447 -0520 00 0 02116         NZT     INFO          IS THERE ANYTHING TO WRITE                 ADPI0845
1            ADPI    M1416 1019 S. DUNTEN ... 7750 ADAPTER                       03/04/70 1429.5 PAGE 18

      01450  0020 00 0 01456         TRA     WRTTX2        NO                                         ADPI0846
      01451  0600 00 0 02117         STZ     FULL          YES, RESET FULL                            ADPI0847
      01452  0074 00 4 00001         TSX     WT7750,4                                                 ADPI0848
      01453  0 00000 0 02430  PAR    PZE     OUTBF1,,**                                               ADPI0849
      01454  0 00000 0 02115         PZE     UNITNO                                                   ADPI0850
      01455 -0625 00 0 02117         STL     FULL                                                     ADPI0851
      01456  0774 00 2 00000  WRTTX2 AXT     **,2          RESTORE IRS 2 AND 4                        ADPI0852
      01457  0774 00 4 00000  WRTTX4 AXT     **,4          ..                                         ADPI0853
      01460 -0520 00 0 02117         NZT     FULL          TEST FOR FULL RETURN                       ADPI0854
      01461  0020 00 4 00003         TRA     3,4           ENTERED RETURN                             ADPI0855
      01462 -0500 00 0 02123         CAL     SPOSIT        NOT ENTERED, RESTOR POSIT                  ADPI0856
      01463  0602 00 1 02357         SLW     POSIT,1                                                  ADPI0857
      01464  0520 00 0 02057         ZET     SCOFLG        IS THIS A SCOPE CALL                       ADPI0858
      01465  0020 00 0 01734         TRA     SCBFUL        YES GO KEEP TRACK OF LINE COUNT            ADPI0859
      01466  0020 00 4 00002         TRA     2,4           FULL RETURN                                ADPI0860
                                                                                                      ADPI0861
      01467  0074 00 4 00001  WRESET TSX     WT7750,4                                                 ADPI0862
      01470  0 00000 0 00000         PZE                             GIVE RESET CALL                  ADPI0863
      01471  0 00000 0 02115         PZE     UNITNO                                                   ADPI0864
      01472  0761 00 0 00000         NOP                                                              ADPI0865
      01473  0074 00 4 00001         TSX     WT7750,4      SEND ZERO CHAR TO SYNC LINE                ADPI0866
      01474  0 00001 0 74671         PZE     Q0,,1                                                    ADPI0867
      01475  0 00000 0 02115         PZE     UNITNO                                                   ADPI0868
      01476  0761 00 0 00000         NOP                                                              ADPI0869
      01477  0534 00 4 01442         LXA     WRTTX1,4                                                 ADPI0870
      01500  0600 00 4 02357         STZ     POSIT,4       POSITION UNDEFINED                         ADPI0871
      01501  0020 00 0 01442         TRA     WRRET                                                    ADPI0872
1            ADPI    M1416 1019 S. DUNTEN ... 7750 ADAPTER                       03/04/70 1429.5 PAGE 19

                              *************THE FOLLOWING CODE IS USED FOR SCOPE CALLS ONLY********    ADPI0874
                       00004  NSCOPE EQU     4             NUMBER OF AVAILABLE SCOPE LINES            ADPI0875
                                                                                                      ADPI0876
                                                                                                      ADPI0877
                                             SCOCAL IS USED TO INITIALIZE PARAMETERS FOR              ADPI0878
                                             TEH SCOPE, IT CHECKS FOR ERASING AND FORCED WRITES       ADPI0879
                                             ETC.                                                     ADPI0880
                                                                                                      ADPI0881
                                             TOLINN IS A SUBROUTINE FORM OF TOLINE MACRO              ADPI0882
                                                                                                      ADPI0883
      01502                   TOLINN TOLINE                                                           ADPI0884
      01515  0020 00 4 00001         TRA     1,4                                                      ADPI0885
                                                                                                      ADPI0886
      01516  0534 00 4 01442  SCOCAL LXA     WRTTX1,4      USER TO IR4                                ADPI0887
      01517 -0500 00 0 02115         CAL     UNITNO        PICK UP H.S.L. NO.                         ADPI0888
      01520  0737 00 2 00000         PAC     ,2            TO IR2                                     ADPI0889
      01521  0602 00 0 02055         SLW     SCUSER        SAVE                                       ADPI0890
      01522  0500 00 0 02062         CLA     DSCOPF        IS IT WSCOPE                               ADPI0891
      01523 -0120 00 0 01542         TMI     WSCOPE        YES                                        ADPI0892
      01524  0600 00 0 02062         STZ     DSCOPF                                                   ADPI0893
      01525 -0520 00 2 02564         NZT     SCOFUL,2      IS SCOPE FULL                              ADPI0894
      01526  0020 00 0 01535         TRA     NTTFUL        NO, IGNORE                                 ADPI0895
      01527                          ZETBIT  USROPT,4,NINTBT IS IT A NINTBIT CALL                     ADPI0896
      01531 -0625 00 0 02056         STL     FORCE         YES, MAKE IT FORCED                        ADPI0897
      01532 -0520 00 0 02056         NZT     FORCE         IS THIS A FORCED WRITE                     ADPI0898
      01533  0020 00 0 01225         TRA     WAITR         NO, GO GIVE FULL RETURN                    ADPI0899
      01534  0600 00 2 02564         STZ     SCOFUL,2      RESET SCOPE FULL INDICATOR                 ADPI0900
      01535 -0500 00 2 02070  NTTFUL CAL     LINCNT,2      GET LINE COUNT                             ADPI0901
      01536  0602 00 0 02112         SLW     NOSEND        SAVE IT                                    ADPI0902
      01537 -0500 00 2 02104         CAL     LINLT,2       GET LINE LENGTH                            ADPI0903
      01540  0602 00 0 02307         SLW     LINLTH+9                                                 ADPI0904
      01541  0020 00 0 01544         TRA     IDSCOP                                                   ADPI0905
                                                                                                      ADPI0906
                                             WSCOPE  IS USED TO SET PARAMETERS FOR WRITING GRAPHICS   ADPI0907
                                                                                                      ADPI0908
                                                                                                      ADPI0909
      01542  0535 00 2 02055  WSCOPE LAC     SCUSER,2      ARDS NO. TO IR2                            ADPI0910
      01543  0600 00 2 02570         STZ     OLCALL,2      SET WSCOPE CALL FLAG                       ADPI0911
                                                                                                      ADPI0912
                                             IDSCOP TAKES CARE OF BEAM RE POSITIONING                 ADPI0913
                                                                                                      ADPI0914
                                                                                                      ADPI0915
      01544 -0500 00 2 02570  IDSCOP CAL     OLCALL,2      GET OLD CALL                               ADPI0916
      01545  0602 00 0 02063         SLW     VOCALL        SAVE IN CASE LINE NOT SENT                 ADPI0917
      01546 -0625 00 0 02057         STL     SCOFLG        SET FLAG FOR A SCOPE                       ADPI0918
      01547 -0500 00 0 02732         CAL     STX           GET MESSAGE STARTER                        ADPI0919
      01550                          TOLIN                 INTO BUFFER                                ADPI0920
      01551 -0500 00 0 74670  CHECKC CAL     Q1            RESET TO CHAR MODE                         ADPI0921
      01552  0602 00 0 02061         SLW     OLMODE                                                   ADPI0922
      01553  0520 00 0 02062         ZET     DSCOPF        IS THIS A DSCOPF CALL                      ADPI0923
      01554  0020 00 0 01136         TRA     WRTN54        YES, GO START GETTING CHARS                ADPI0924
      01555  0520 00 2 02570         ZET     OLCALL,2      NO, MUST BE WRFLX, CHECK LAST CALL         ADPI0925
      01556  0020 00 0 00725         TRA     WRTN50        LAST CALL WAS WRFLX NO FUDGE               ADPI0926
      01557 -0625 00 2 02570  ONWARD STL     OLCALL,2      SET FLAG FOR WRFLX                         ADPI0927
      01560  0020 00 0 01651         TRA     STASET        GO RESET BEAM                              ADPI0928
                                                                                                      ADPI0929
1            ADPI    M1416 1019 S. DUNTEN ... 7750 ADAPTER                       03/04/70 1429.5 PAGE 20

                                             MODCHCK IS USED T SEE IF SCOPE IS IN ONE OF THREE MODES  ADPI0930
                                             MODES ARE  1)  0---SETPOINT                              ADPI0931
                                                        2)  1---CHARACTER                             ADPI0932
                                                        3)  2---LONG LINE                             ADPI0933
                                                        4)  3---SHORT LINE                            ADPI0934
                                                                                                      ADPI0935
      01561 -0520 00 0 02062  MDCHCK NZT     DSCOPF        IS THIS A DSCOPE CALL                      ADPI0936
      01562  0020 00 0 00767         TRA     WRTN3         NO, ASSUME CHARACTER MODE                  ADPI0937
      01563 -0500 00 0 02061         CAL     OLMODE        PICK UP OLDMODE                            ADPI0938
      01564  0322 00 0 02065         ERA     CHRMOD        IS IT CHARACTER                            ADPI0939
      01565  0100 00 0 01575         TZE     PIA           OK GO RESTORE CHARACTER                    ADPI0940
      01566 -0500 00 0 02065         CAL     CHRMOD        RESET MODE                                 ADPI0941
      01567  0602 00 0 02061         SLW     OLMODE        . .                                        ADPI0942
      01570 -0500 00 0 02734         CAL     CHARNS        GET  A CHARACTER MODE INSTRUCTION          ADPI0943
      01571                          TOLIN                 INTO OUTPUT BUFFER                         ADPI0944
      01572  0534 00 4 01442         LXA     WRTTX1,4      USER                                       ADPI0945
      01573 -0500 00 0 74670         CAL     Q1            RESET CHARCOUNT                            ADPI0946
      01574  0602 00 4 02357         SLW     POSIT,4       . .                                        ADPI0947
      01575 -0046 00 0 00000  PIA    PIA                   RESTORE CHARACTER                          ADPI0948
      01576  0020 00 0 00767         TRA     WRTN3         GO INSERT IT                               ADPI0949
                                                                                                      ADPI0950
                                                                                                      ADPI0951
                                             HERE ON SET POINTS AND LINES                             ADPI0952
                                                                                                      ADPI0953
      01577  0520 00 0 02057  OWNSCP ZET     SCOFLG        IS IT SCOPE                                ADPI0954
      01600 -0520 00 0 02062         NZT     DSCOPF        AND DSCOPE                                 ADPI0955
      01601  0020 00 0 00725         TRA     WRTN50        NO, GO AWAY NO GOOD                        ADPI0956
      01602  0535 00 2 02055         LAC     SCUSER,2      SCOPE USER TO IR2                          ADPI0957
      01603  3 77761 4 01617         TXH     LINE,4,-15    LINE, GO PROCESS                           ADPI0958
      01604 -3 77760 4 01136         TXL     WRTN54,4,-16  NO GOOD SKIP                               ADPI0959
                                                                                                      ADPI0960
                                             HERE ON SET POINT                                        ADPI0961
                                                                                                      ADPI0962
      01605 -0500 00 0 02061  SETPNT CAL     OLMODE        GET OLD MODE                               ADPI0963
      01606  0322 00 0 02064         ERA     SETMOD        IS IT SET POINT .Q.                        ADPI0964
      01607  0100 00 0 01614         TZE     NOCHG1        YES, DON'T CHANGE MODES                    ADPI0965
      01610 -0500 00 0 02064         CAL     SETMOD        RESET MODE                                 ADPI0966
      01611  0602 00 0 02061         SLW     OLMODE        . .                                        ADPI0967
      01612 -0500 00 0 02735         CAL     SETINS        PICK UP SETPOINT INSTRUCTION               ADPI0968
      01613                          TOLIN                 INTO OUTPUT                                ADPI0969
      01614  0074 00 4 01667  NOCHG1 TSX     GET4,4        GET NEXT FOUR INPUT CHARACTERS             ADPI0970
      01615  0074 00 4 01712         TSX     INCORD,4      FIX THEM UP AND PUT THEM IN THE LINE       ADPI0971
      01616  0020 00 0 01136         TRA     WRTN54        CONTINUE                                   ADPI0972
                                                                                                      ADPI0973
                                             HERE FOR LINE                                            ADPI0974
                                                                                                      ADPI0975
      01617  0074 00 4 01667  LINE   TSX     GET4,4        GET  COORDINATE CHARACTERS                 ADPI0976
      01620  0044 00 0 00000         PAI                   SAVE IN INDICATORS                         ADPI0977
      01621 -0320 00 0 03405         ANA     =O77007700    CHECK FOR SHORT                            ADPI0978
      01622  0100 00 0 01634         TZE     SHORTL        GO PROCESS                                 ADPI0979
      01623 -0500 00 0 02061         CAL     OLMODE        CHECK FOR MODE CHANGE                      ADPI0980
      01624  0322 00 0 02066         ERA     LINMOD        . .                                        ADPI0981
      01625  0100 00 0 01632         TZE     NOCHG2                                                   ADPI0982
      01626 -0500 00 0 02066         CAL     LINMOD        RESET MODE                                 ADPI0983
      01627  0602 00 0 02061         SLW     OLMODE        RESET MODE                                 ADPI0984
      01630 -0500 00 0 02736         CAL     LLINNS        GET A LINE MODE CHARACTER                  ADPI0985
1            ADPI    M1416 1019 S. DUNTEN ... 7750 ADAPTER                       03/04/70 1429.5 PAGE 21

      01631                          TOLIN                 INTO BUFFER                                ADPI0986
      01632 -0046 00 0 00000  NOCHG2 PIA                   RESTORE CHARACTERS                         ADPI0987
      01633  0020 00 0 01615         TRA     NOCHG1+1      INSERT THEM                                ADPI0988
      01634 -0500 00 0 02061  SHORTL CAL     OLMODE        CHECK FOR MODE CHANGE                      ADPI0989
      01635  0322 00 0 02067         ERA     SLNMOD        . .                                        ADPI0990
      01636  0100 00 0 01643         TZE     NOCHG3                                                   ADPI0991
      01637 -0500 00 0 02067         CAL     SLNMOD        RESET MODE                                 ADPI0992
      01640  0602 00 0 02061         SLW     OLMODE        . .                                        ADPI0993
      01641 -0500 00 0 02737         CAL     SLINE                                                    ADPI0994
      01642                          TOLIN                 SHORT LINE MODE TO BUFFER                  ADPI0995
      01643 -0046 00 0 00000  NOCHG3 PIA                   CHARACTER BACK TO AV                       ADPI0996
      01644 -0765 00 0 00006         LGR     6             REMOVE ZERO CHARS                          ADPI0997
      01645  0771 00 0 00006         ARS     6             . .                                        ADPI0998
      01646 -0763 00 0 00006         LGL     6             . .                                        ADPI0999
      01647  0074 00 4 01710         TSX     INCOR2,4      INSERT TWO CHARS                           ADPI1000
      01650  0020 00 0 01136         TRA     WRTN54        CONTINUE                                   ADPI1001
                                                                                                      ADPI1002
                                             HERE ON ALL BEAM RE-POSITIONINGS                         ADPI1003
                                                                                                      ADPI1004
      01651 -0500 00 0 02735  STASET CAL     SETINS        THIS IS LIKE A SETPOINT                    ADPI1005
      01652                          TOLIN                 SO PUT A SETPOINT CHAR IN THE LINE         ADPI1006
      01653  0535 00 2 02055         LAC     SCUSER,2      -SCOPE USER TO IR2                         ADPI1007
      01654  0560 00 2 02070         LDQ     LINCNT,2      GET LINE COUNT                             ADPI1008
      01655  0200 00 0 02110         MPY     LINSPC        MULTIPLY BY SPACING BETWEEN                ADPI1009
      01656  0131 00 0 00000         XCA                   RESULT TO AC                               ADPI1010
      01657  0400 00 2 02100         ADD     TOPPAG,2      FUDGE WITH TOP OF THE PAGE                 ADPI1011
      01660  0120 00 0 01662         TPL     *+2           FUDGE SIGN                                 ADPI1012
      01661 -0501 00 0 03403         ORA     =O10000       . .                                        ADPI1013
      01662 -0501 00 0 02111         ORA     LMARG         AND LEFT MARGIN                            ADPI1014
      01663  0074 00 4 01712         TSX     INCORD,4      GO INSERT                                  ADPI1015
      01664 -0500 00 0 02734         CAL     CHARNS        RESET TO CHARACTER MODE                    ADPI1016
      01665                          TOLIN                                                            ADPI1017
      01666  0020 00 0 00725         TRA     WRTN50        CONTINUE                                   ADPI1018
                                                                                                      ADPI1019
                                             GET4 GETS THE NEXT FOUR CHARACTERS FROM THE INPUT STREAM ADPI1020
                                                                                                      ADPI1021
                       01667  GET4   SYN     *                                                        ADPI1022
      01667  0600 00 0 02113         STZ     TEMPOS        INITIALIZE TEMPORARY                       ADPI1023
      01670  0774 00 2 00004         AXT     4,2           COUNT FOUR CHARACTERS                      ADPI1024
      01671                   GETONE GETCHR                GET A CHAR                                 ADPI1025
      01701  0560 00 0 02113         LDQ     TEMPOS                                                   ADPI1026
      01702 -0765 00 0 00006         LGR     6             INTO TEMPOS                                ADPI1027
      01703 -0600 00 0 02113         STQ     TEMPOS        SAVE                                       ADPI1028
      01704  2 00001 2 01671         TIX     GETONE,2,1    COUNT                                      ADPI1029
      01705 -0763 00 0 00030         LGL     24            PUT WORD IN LOW ORDER AC                   ADPI1030
      01706  0602 00 0 02113         SLW     TEMPOS                                                   ADPI1031
      01707  0020 00 4 00001         TRA     1,4                                                      ADPI1032
                                                                                                      ADPI1033
                                             INCORD AND INCOR2 INSERT 4 AND 2 CHARACTERS INTO THE LINEADPI1034
                                                                                                      ADPI1035
      01710  0774 00 2 00002  INCOR2 AXT     2,2           SET COUNT                                  ADPI1036
      01711  0020 00 0 01713         TRA     *+2                                                      ADPI1037
      01712  0774 00 2 00004  INCORD AXT     4,2           FOUR HERE                                  ADPI1038
      01713  0600 00 0 02060         STZ     CHCKL         FUDGE 'WRTN3' TO BE A SUBROUTINE           ADPI1039
      01714  0634 00 4 01732         SXA     INCX4,4       SAVE XR4                                   ADPI1040
      01715  0560 00 0 74671  LOOPCH LDQ     Q0            ZERO MQ                                    ADPI1041
1            ADPI    M1416 1019 S. DUNTEN ... 7750 ADAPTER                       03/04/70 1429.5 PAGE 22

      01716 -0765 00 0 00006         LGR     6             LX THEN HX THEN LY THEN HY TO MQ           ADPI1042
      01717 -0773 00 0 00041         RQL     33            POSITION IN MQ                             ADPI1043
      01720  0602 00 0 02113         SLW     TEMPOS        SAVE AC                                    ADPI1044
      01721 -0130 00 0 00000         XCL                   CHARACTER FOUND TO AC                      ADPI1045
      01722 -0501 00 0 03415         ORA     =O100000000000 OR IN THE BINARY BIT                      ADPI1046
      01723  0760 00 0 00006         COM                   COMPLEMENT CODE                            ADPI1047
      01724  0634 00 2 01726         SXA     SVX2,2        SAVE THE COUNTER                           ADPI1048
      01725  0074 00 4 00767         TSX     WRTN3,4       MAKE A CALL TO GET PARITY AND INSERT       ADPI1049
      01726  0774 00 2 00000  SVX2   AXT     **,2          RESTORE IR2                                ADPI1050
      01727 -0500 00 0 02113         CAL     TEMPOS        RESTORE PARTIAL WORD                       ADPI1051
      01730  2 00001 2 01715         TIX     LOOPCH,2,1    LOOP THROUGH                               ADPI1052
      01731 -0625 00 0 02060         STL     CHCKL         ALLOW WRTN3 TO WORK NORMALLY               ADPI1053
      01732  0774 00 4 00000  INCX4  AXT     **,4          RESTORE INDEX REGISTER 4                   ADPI1054
      01733  0020 00 4 00001         TRA     1,4           AND RETURN                                 ADPI1055
                                                                                                      ADPI1056
                                                                                                      ADPI1057
                              *HALFFD        STL           HALFFF SET FLAG FOR FEED                   ADPI1058
                              *      TRA     *+2                                                      ADPI1059
                              *HALFRT        STZ           HALFFF SET FLAG FOR REVERSE                ADPI1060
                              *      CAL     LINSPC        GET CURRENT LINE SPACING                   ADPI1061
                              *      LRS     35            TO MQ WITH RIGHT SIGN                      ADPI1062
                              *      DVP     Q2            CUT IN HALF                                ADPI1063
                              *      XCA                   TO AC                                      ADPI1064
                              *      NZT     HALFFF        IS IT FEED OR REVERSE                      ADPI1065
                              *      CHS                   REVERSE, CHANGE SIGN OF SPACE              ADPI1066
                              *      ADD*    WRFXYP        ADD TO PRESENT X POSITION                  ADPI1067
                              *      TPL     *+2           SKIP SIGN DIDDLE ON PLUS                   ADPI1068
                              *      ORA     Q1            INSERT SIGN BIT                            ADPI1069
                              *      STO*    WRFXYP        SAVE                                       ADPI1070
                              *      TRA     STASET        GO SET BEAM                                ADPI1071
                              *HALFFF        PZE            FLAG FOR HALF LINE FEED OR REV            ADPI1072
                                                                                                      ADPI1073
                                                                                                      ADPI1074
                                              THE FOLLOWING IS FOR SCOPE HANG UP                      ADPI1075
                                                                                                      ADPI1076
                                                                                                      ADPI1077
                                             HERE IF BUFFER IS FULL ON SCOPE CALL                     ADPI1078
                                                                                                      ADPI1079
      01734  0535 00 2 02055  SCBFUL LAC     SCUSER,2      SCOPE USER TO IR2                          ADPI1080
      01735  0520 00 0 02062         ZET     DSCOPF        IS THIS WSCOPE                             ADPI1081
      01736  0020 00 0 01741         TRA     RESMOD        YES, JUST RESET MODES                      ADPI1082
      01737 -0500 00 0 02112         CAL     NOSEND        GET OLD LINE COUNT                         ADPI1083
      01740  0602 00 2 02070         SLW     LINCNT,2      SAVE FOR NEXT TRY                          ADPI1084
      01741 -0500 00 0 02063  RESMOD CAL     VOCALL        RESTORE OLCALL                             ADPI1085
      01742  0602 00 2 02570         SLW     OLCALL,2      RESTORE                                    ADPI1086
      01743  0522 00 0 01457         XEC     WRTTX4        RESTORE IR4                                ADPI1087
      01744  0522 00 0 01456         XEC     WRTTX2        RESTORE IR2                                ADPI1088
      01745  0020 00 4 00002         TRA     2,4           MAKE A FULL RETURN                         ADPI1089
                                                                                                      ADPI1090
1            ADPI    M1416 1019 S. DUNTEN ... 7750 ADAPTER                       03/04/70 1429.5 PAGE 23

                                                                                                      ADPI1092
                                             HERE TO SET SCOPE SIZE PARAMETERS                        ADPI1093
                                                                                                      ADPI1094
                       00004  NPARAM EQU     4             NUMBER OF SETTABLE PARAMETERS              ADPI1095
      01746  0564 00 0 74671  SETPRM ENB     Q0            DISABLE ALL TRAPS                          ADPI1096
      01747  0634 00 4 02024         SXA     SETXR4,4      SAVE IR4                                   ADPI1097
      01750  0634 00 2 02023         SXA     SETXR2,2                                                 ADPI1098
      01751  0600 00 0 02057         STZ     SCOFLG        ***SCOFLG TELLS WHETHER PAGE TOP RESET**   ADPI1099
      01752 -0500 60 4 00002         CAL*    2,4           PICK UP USER                               ADPI1100
      01753  0074 00 4 00004         TSX     US2BS,4       GET BS NUMBER (ARDS NUMBER)                ADPI1101
      01754  0020 00 0 02023         TRA     SETXR2        ERROR , GO AWAY                            ADPI1102
      01755  0737 00 2 00000         PAC     ,2            -ARDS NO. TO IR2                           ADPI1103
      01756  0602 00 0 02055         SLW     SCUSER        SAVE                                       ADPI1104
      01757 -0634 00 2 01773         SXD     POSII,2       SAVE FOR INCREMENT                         ADPI1105
      01760  0534 00 4 02024         LXA     SETXR4,4      RESTORE IR4                                ADPI1106
      01761 -0500 00 4 00001         CAL     1,4           PICK UP CONTROL WORD                       ADPI1107
      01762 -0734 00 2 00000         PDX     ,2            COUNT OF PARAMS TO IR2                     ADPI1108
      01763 -3 00004 2 01765         TXL     *+2,2,NPARAM  IS IT LEQ MAX                              ADPI1109
      01764  0774 00 2 00004         AXT     NPARAM,2      NO, SET IT TO MAX                          ADPI1110
      01765  0754 00 2 00000         PXA     ,2            COUNT TO AC                                ADPI1111
      01766  0361 00 4 00001         ACL     1,4           BUMP BY BUFFER ADDR                        ADPI1112
      01767  0621 00 0 01774         STA     A12           SAVE FOR PICKUP                            ADPI1113
      01770 -3 00002 2 01772         TXL     *+2,2,2       SET FLAG IF GREATER THAN 2                 ADPI1114
      01771 -0625 00 0 02057         STL     SCOFLG                                                   ADPI1115
      01772  0774 00 4 00024         AXT     NSCOPE*NUMGET,4 SET IR4                                  ADPI1116
      01773  1 00000 4 01774  POSII  TXI     *+1,4,**      MODIFY BY LINE NUMBER                      ADPI1117
      01774 -0500 00 2 00000  A12    CAL     **,2          GET FIRST PARAMETER                        ADPI1118
      01775  0602 00 4 02114         SLW     INFOM+NSCOPE*NUMGET,4 STORE                              ADPI1119
      01776  1 77774 4 01777         TXI     *+1,4,-NSCOPE                                            ADPI1120
      01777  2 00001 2 01774         TIX     *-3,2,1       COUNT WORDS                                ADPI1121
      02000  0535 00 2 02055         LAC     SCUSER,2                                                 ADPI1122
      02001  0600 00 2 02570         STZ     OLCALL,2      MAKE SURE OF POS RESET OM NEXT             ADPI1123
      02002 -0520 00 0 02057         NZT     SCOFLG        WAS PAGE TOP CHANGED .Q.                   ADPI1124
      02003  0020 00 0 02011         TRA     NOPPAG        NO, SKIP FUDGE                             ADPI1125
      02004  0500 00 2 02100         CLA     TOPPAG,2      YES , FUDGE IT                             ADPI1126
      02005  0767 00 0 00015         ALS     12+1          POSITION IT                                ADPI1127
      02006  0120 00 0 02010         TPL     *+2           SKIP SIGN DIDDLE IF PLUS                   ADPI1128
      02007 -0501 00 0 03403         ORA     =O10000                                                  ADPI1129
      02010  0601 00 2 02100         STO     TOPPAG,2      SAVE                                       ADPI1130
      02011  0500 00 2 02074  NOPPAG CLA     MAXLIN,2      CHECK MAXLIN                               ADPI1131
      02012  0402 00 0 74657         SUB     Q10           IS IT GREATER THAN 10                      ADPI1132
      02013  0120 00 0 02016         TPL     *+3           O.K. SKIP                                  ADPI1133
      02014 -0500 00 0 74657         CAL     Q10           GET MIN LINE COUNT                         ADPI1134
      02015  0602 00 2 02074         SLW     MAXLIN,2      STORE IN MAXLIN                            ADPI1135
      02016  0500 00 2 02104         CLA     LINLT,2       GET CHAR/LINE                              ADPI1136
      02017  0402 00 0 74657         SUB     Q10           IS THIS LESS THAN TEN                      ADPI1137
      02020  0120 00 0 02023         TPL     *+3           NO SKIP                                    ADPI1138
      02021 -0500 00 0 74657         CAL     Q10           GET MIN AND SAVEI                          ADPI1139
      02022  0602 00 2 02104         SLW     LINLT,2                                                  ADPI1140
      02023  0774 00 2 00000  SETXR2 AXT     **,2                                                     ADPI1141
      02024  0774 00 4 00000  SETXR4 AXT     **,4          RESTORE IR4                                ADPI1142
      02025  0020 00 4 00003         TRA     3,4           RETURN                                     ADPI1143
1            ADPI    M1416 1019 S. DUNTEN ... 7750 ADAPTER                       03/04/70 1429.5 PAGE 24

                                             GETPRM I SUED TO READ BACK VARIABLES ASSOCIATED WIT ARDS ADPI1145
                                                                                                      ADPI1146
                       00005  NUMGET EQU     NPARAM+1                                                 ADPI1147
      02026  0634 00 4 02053  GETPRM SXA     GETXR4,4      SAVE IR4                                   ADPI1148
      02027  0634 00 2 02052         SXA     GETXR2,2                                                 ADPI1149
      02030 -0500 00 0 74502         CAL     USER          PICK UP USER NUMBER                        ADPI1150
      02031  0074 00 4 00004         TSX     US2BS,4       GET ARDS NUMBER                            ADPI1151
      02032  0020 00 0 02052         TRA     GETXR2        ERROR, RETURN                              ADPI1152
      02033  0737 00 2 00000         PAC     ,2            -ARDS NO. TO IR2                           ADPI1153
      02034 -0634 00 2 02037         SXD     *+3,2         INSRT FOR BUMPING                          ADPI1154
      02035  0774 00 2 00005         AXT     NUMGET,2      NO. OF PARAM TO GET                        ADPI1155
      02036  0774 00 4 00024         AXT     NSCOPE*NUMGET,4 TABLE LENGTH                             ADPI1156
      02037  1 00000 4 02040         TXI     *+1,4,**      POSITION IN TABLE                          ADPI1157
      02040 -0500 00 4 02114         CAL     INFOM+NSCOPE*NUMGET,4 GET WORD                           ADPI1158
      02041  0602 00 2 74327         SLW     PBUFF+NUMGET,2 TO BUFFER                                 ADPI1159
      02042  1 77777 2 02043         TXI     *+1,2,-1                                                 ADPI1160
      02043  2 00004 4 02040         TIX     *-3,4,NSCOPE  DO SIX  OF THEM                            ADPI1161
      02044  0500 00 0 74324         CLA     PBUFF+2       FUDGE TOPPAG                               ADPI1162
      02045  0771 00 0 00015         ARS     1+12          TIMES 1/2                                  ADPI1163
      02046  0601 00 0 74324         STO     PBUFF+2                                                  ADPI1164
      02047  0500 00 0 02110         CLA     LINSPC        RETURN LINE SPACING ALSO                   ADPI1165
      02050  0771 00 0 00015         ARS     12+1          FIX IT                                     ADPI1166
      02051  0602 00 0 74326         SLW     PBUFF+4       DROP SIGN BIT                              ADPI1167
      02052  0774 00 2 00000  GETXR2 AXT     **,2                                                     ADPI1168
      02053  0774 00 4 00000  GETXR4 AXT     **,4                                                     ADPI1169
      02054  0020 00 4 00001         TRA     1,4           RETURN                                     ADPI1170
                                                                                                      ADPI1171
                                             SECTION TO ASSIGN LOGICAL ARDS NUMBERS                   ADPI1172
                                                                                                      ADPI1173
1            ADPI    M1416 1019 S. DUNTEN ... 7750 ADAPTER                       03/04/70 1429.5 PAGE 25
                           CONSTANTS, TEMPORARIES , SWITCHES AND POINTERS

      02055  0 00000 0 00000  SCUSER PZE     0             PRESENT SCOPE NUMBER                       ADPI1177
      02056  0 00000 0 00000  FORCE  PZE                   FLAG TO SEE IF WRITE IS FORCED             ADPI1178
      02057  0 00000 0 00000  SCOFLG                                                                  ADPI1179
      02060  0 00000 0 00000  CHCKL                                                                   ADPI1180
      02061  0 00000 0 00000  OLMODE                       RECORD OF PRESENT SCOPE MODE               ADPI1181
      02062  0 00000 0 00000  DSCOPF                       ON IF PRESENT CALL IS WSCOPE               ADPI1182
      02063  0 00000 0 00000  VOCALL                       SAVES OLCALL IN CASE NOT SENT              ADPI1183
      02064  0 00000 0 00000  SETMOD PZE     0             MODE FOR SET POINTS                        ADPI1184
      02065  0 00000 0 00001  CHRMOD PZE     1             CHARACTER                                  ADPI1185
      02066  0 00000 0 00002  LINMOD PZE     2             LINE                                       ADPI1186
      02067  0 00000 0 00003  SLNMOD PZE     3             SHORT LINE                                 ADPI1187
                       02070  LINCNT DUP     1,NSCOPE                                                 ADPI1188
      02070 +000000000000            DEC     0                                                        ADPI1189
                       02074  MAXLIN DUP     1,NSCOPE                                                 ADPI1190
      02074 +000000000070            DEC     56                                                       ADPI1191
                       02100  TOPPAG SYN     *                                                        ADPI1192
                       02100         DUP     1,NSCOPE                                                 ADPI1193
      02100 +000025700000            OCT     25700000                                                 ADPI1194
                       02104  LINLT  SYN     *                                                        ADPI1195
                       02104         DUP     1,NSCOPE                                                 ADPI1196
      02104 +000000000120            DEC     80                                                       ADPI1197
      02110 -000000700000     LINSPC OCT     -700000                                                  ADPI1198
      02111 -000000006017     LMARG  OCT     -6017                                                    ADPI1199
      02112  0 00000 0 00000  NOSEND                                                                  ADPI1200
      02113  0 00000 0 00000  TEMPOS                                                                  ADPI1201
                       02070  INFOM  SYN     LINCNT                                                   ADPI1202
      02114  0 00000 0 00000  LOCAL  PZE     0                                                        ADPI1203
      02115  0 00000 0 00000  UNITNO                                                                  ADPI1204
      02116  0 00000 0 00000  INFO                                                                    ADPI1205
      02117  0 00000 0 00000  FULL                                                                    ADPI1206
      02120  0 00000 0 00000  INMQ                                                                    ADPI1207
      02121  0 00000 0 00000  OUTMQ                                                                   ADPI1208
      02122  0 00000 0 00000  EXDLY                                                                   ADPI1209
      02123  0 00000 0 00000  SPOSIT                                                                  ADPI1210
      02124  0 00000 0 00000  SAVCHR                                                                  ADPI1211
      02125  0 00134 3 02564  OUTPTR PZE     OUTBF1+OUTSIZ,3,OUTSIZ                                   ADPI1212
      02126  0 00000 7 00000  WRINPT PZE     **,7                                                     ADPI1213
                                                                                                      ADPI1214
                              *      0       NO PARITY                                                ADPI1215
                              *      1       ODD PARITY                                               ADPI1216
                              *      2       EVEN PARITY                                              ADPI1217
                       02126  RPAR   SYN     *-1                                                      ADPI1218
      02127  0 00000 0 00000                 0                                                        ADPI1219
      02130  0 00000 0 00002                 2                                                        ADPI1220
      02131  0 00000 0 00000                 0                                                        ADPI1221
      02132  0 00000 0 00000                 0                                                        ADPI1222
      02133  0 00000 0 00000                 0                                                        ADPI1223
      02134  0 00000 0 00000                 0                                                        ADPI1224
      02135  0 00000 0 00002                 2                                                        ADPI1225
      02136  0 00000 0 00002                 2                                                        ADPI1226
      02137  0 00000 0 00002                 2                                                        ADPI1227
                       00011  NDIV   EQU     *-RPAR-1      NUMBER OF DEVICES                          ADPI1228
                       02137  TABL   SYN     *-1                                                      ADPI1229
      02140  0 00000 4 03233         PZE     TWCHAR,4      35 CODE TABLE                              ADPI1230
      02141  0 00000 4 02761         PZE     T2CHAR,4      1050                                       ADPI1231
1            ADPI    M1416 1019 S. DUNTEN ... 7750 ADAPTER                       03/04/70 1429.5 PAGE 26
                           CONSTANTS, TEMPORARIES , SWITCHES AND POINTERS

      02142  0 00000 4 03110         PZE     TXCHAR,4      TELEX                                      ADPI1232
      02143  0 00000 4 03233         PZE     TWCHAR,4      TWX                                        ADPI1233
      02144  0 00000 4 03233         PZE     TWCHAR,4      IN HOUSE TWX                               ADPI1234
      02145  0 00000 4 03233         PZE     TWCHAR,4      STANDARD 35                                ADPI1235
      02146  0 00000 4 02600         PZE     TACHAR,4      MOD 37                                     ADPI1236
      02147  0 00000 4 02761         PZE     T2CHAR,4  2741 TABLE                                     ADPI1237
      02150  0 00000 4 02600         PZE     TACHAR,4      ESL SCOPE                                  ADPI1238
                       02150  PTAB   SYN     *-1                                                      ADPI1239
      02151  0 00000 4 03350                 TWCNT,4                                                  ADPI1240
      02152  0 00000 4 03070                 T2CNT,4                                                  ADPI1241
      02153  0 00000 4 03213                 TXCNT,4                                                  ADPI1242
      02154  0 00000 4 03350                 TWCNT,4                                                  ADPI1243
      02155  0 00000 4 03350                 TWCNT,4                                                  ADPI1244
      02156  0 00000 4 03350                 TWCNT,4                                                  ADPI1245
      02157  0 00000 4 02741                 TACNT,4                                                  ADPI1246
      02160  0 00000 4 03070                 T2CNT,4                                                  ADPI1247
      02161  0 00000 4 02741                 TACNT,4                                                  ADPI1248
                       02161  SHIFTR SYN     *-1                                                      ADPI1249
      02162  0 00000 0 00000                 0                                                        ADPI1250
      02163  0 00000 0 02163                 *                                                        ADPI1251
      02164  0 00000 0 02164                 *                                                        ADPI1252
      02165  0 00000 0 00000                 0                                                        ADPI1253
      02166  0 00000 0 00000                 0                                                        ADPI1254
      02167  0 00000 0 00000                 0                                                        ADPI1255
      02170  0 00000 0 00000                 0                                                        ADPI1256
      02171  0 00000 0 02171                 *                                                        ADPI1257
      02172  0 00000 0 00000                 0                                                        ADPI1258
                       02172  WPAR   SYN     *-1                                                      ADPI1259
                              *      VFD     O9/PARITY BIT POSITION,O27/1 FOR ODD, 0 FOR EVEN         ADPI1260
      02173  0 00000 0 00000                 0                                                        ADPI1261
      02174  0 00000 0 00000                 0                                                        ADPI1262
      02175  0 00000 0 00000                 0                                                        ADPI1263
      02176  0 00000 0 00000                 0                                                        ADPI1264
      02177  0 00000 0 00000                 0                                                        ADPI1265
      02200  0 00000 0 00000                 0                                                        ADPI1266
      02201  200000000002            VFD     O9/200,O27/2                                             ADPI1267
      02202  0 00000 0 00000                 0                                                        ADPI1268
      02203  200000000002            VFD     O9/200,O27/2                                             ADPI1269
                       02203  QSHFT  SYN     *-1                                                      ADPI1270
      02204  0 00000 0 00000         PZE                                                              ADPI1271
      02205  0 00000 0 00000         PZE                   LOWER CASE FOR 1050                        ADPI1272
      02206  0 00000 0 02206         PZE     *             UPER FOR TELX                              ADPI1273
      02207  0 00000 0 00000                 0                                                        ADPI1274
      02210  0 00000 0 00000                 0                                                        ADPI1275
      02211  0 00000 0 00000                 0                                                        ADPI1276
      02212  0 00000 0 00000                 0                                                        ADPI1277
      02213  0 00000 0 00000                 0                                                        ADPI1278
      02214  0 00000 0 00000                 0                                                        ADPI1279
                       02214  DELDCH SYN     *-1                                                      ADPI1280
      02215  0 00000 4 03340                 DLS35,4                                                  ADPI1281
      02216  0 00000 4 03060                 DL2741,4                                                 ADPI1282
      02217  0 00000 4 03207                 DLTLX,4                                                  ADPI1283
      02220  0 00000 4 03332                 DLTWX,4                                                  ADPI1284
      02221  0 00000 4 03332                 DLTWX,4                                                  ADPI1285
      02222  0 00000 4 03340                 DLS35,4                                                  ADPI1286
1            ADPI    M1416 1019 S. DUNTEN ... 7750 ADAPTER                       03/04/70 1429.5 PAGE 27
                           CONSTANTS, TEMPORARIES , SWITCHES AND POINTERS

      02223  0 00000 4 02677                 DL37,4                                                   ADPI1287
      02224  0 00000 4 03060                 DL2741,4                                                 ADPI1288
      02225  0 00000 4 02713                 DLARDS,4                                                 ADPI1289
                       02225  DWNSFT SYN     *-1                                                      ADPI1290
      02226                          DAC     0,0,0         NONE FOR 35                                ADPI1291
      02227                          DAC     140,0,0       1050                                       ADPI1292
      02230                          DAC     0,0,0                                                    ADPI1293
      02231                          DAC     0,0,0                                                    ADPI1294
      02232                          DAC     0,0,0                                                    ADPI1295
      02233                          DAC     0,0,0                                                    ADPI1296
      02234                          DAC     0,0,0                                                    ADPI1297
      02235                          DAC     140,0,0                                                  ADPI1298
      02236                          DAC     0,0,0                                                    ADPI1299
                       02236  UPSFT  SYN     *-1                                                      ADPI1300
      02237                          DAC     0,0,0         NONE FOR 35                                ADPI1301
      02240                          DAC     143,0,0                                                  ADPI1302
      02241                          DAC     4,0,0                                                    ADPI1303
      02242                          DAC     0,0,0                                                    ADPI1304
      02243                          DAC     0,0,0                                                    ADPI1305
      02244                          DAC     0,0,0                                                    ADPI1306
      02245                          DAC     0,0,0                                                    ADPI1307
      02246                          DAC     143,0,0                                                  ADPI1308
      02247                          DAC     0,0,0                                                    ADPI1309
                       00003  BPOINT SYN     3                                                        ADPI1310
                       02247  CRATE  SYN     *-1                                                      ADPI1311
      02250  0 00002 0 00030                 3*8,,2        TAB,,CR                                    ADPI1312
      02251  0 00010 0 00010                 8,,8                                                     ADPI1313
      02252  0 00000 0 00000                 0,,0                                                     ADPI1314
      02253  0 00000 0 00000                 0,,0                                                     ADPI1315
      02254  0 00000 0 00000                 0,,0                                                     ADPI1316
      02255  0 00002 0 00030                 3*8,,2                                                   ADPI1317
      02256  0 00002 0 00030                 3*8,,2                                                   ADPI1318
      02257  0 00010 0 00010                 8,,8                                                     ADPI1319
      02260  0 00000 0 00000                 0,0,0                                                    ADPI1320
                       02261         DUP     1,14                                                     ADPI1321
      02261  0 00000 0 00013  TABSET PZE     **10-TABSET*10+11 TABS AT 11 21 31 ...                   ADPI1322
                       00016  NTABST SYN     *-TABSET                                                 ADPI1323
                       02276  LINLTH SYN     *-1                                                      ADPI1324
      02277  0 00000 0 00125                 85                                                       ADPI1325
      02300  0 00000 0 00202                 130                                                      ADPI1326
      02301  0 00000 0 00105                 69                                                       ADPI1327
      02302  0 00000 0 00105                 69                                                       ADPI1328
      02303  0 00000 0 00105                 69                                                       ADPI1329
      02304  0 00000 0 00125                 85                                                       ADPI1330
      02305  0 00000 0 00130                 88                                                       ADPI1331
      02306  0 00000 0 00202                 130                                                      ADPI1332
      02307  0 00000 0 00110                 72                                                       ADPI1333
                       02307  SHFT   SYN     *-1                                                      ADPI1334
                       02310         DUP     1,N                                                      ADPI1335
      02310  0 00000 0 00000         PZE     **                                                       ADPI1336
                       02357  POSIT  SYN     *-1                                                      ADPI1337
                       02360         DUP     1,N                                                      ADPI1338
      02360  0 00000 0 00000         PZE                                                              ADPI1339
                                                                                                      ADPI1340
      02430                   OUTBF1 BSS     OUTSIZ                                                   ADPI1341
1            ADPI    M1416 1019 S. DUNTEN ... 7750 ADAPTER                       03/04/70 1429.5 PAGE 28
                           CONSTANTS, TEMPORARIES , SWITCHES AND POINTERS

                                                                                                      ADPI1342
                                             VECTORS FOR ARDS USERS                                   ADPI1343
                                                                                                      ADPI1344
      02564                   SCOFUL BSS     NSCOPE        SCOPE FULL FLAG                            ADPI1345
      02570                   OLCALL BSS     NSCOPE        IF 0 LASTCALL WRFLX IF NONZERO WSCOPE      ADPI1346
      02574                   COORCT BSS     NSCOPE        COUNS CHARACTERS IN GRAPH INPUT            ADPI1347
                                                                                                      ADPI1348
1            ADPI    M1416 1019 S. DUNTEN ... 7750 ADAPTER                       03/04/70 1429.5 PAGE 29
                           CONSTANTS, TEMPORARIES , SWITCHES AND POINTERS

                                     INSERT  TACHAR                                                   ADPI1350
                                             TACHAR        M37/BCD CODE TABLE                         TACH0001
                                             ASCII AS OF DEC 1 66                                     TACH0002
                              *      1       USED TO TRANSMIT LOWER CASE BCD                          TACH0003
                              *      2       USED TO TRANSMIT UPPER CASE BCD                          TACH0004
                              *      3       USED TO RECIEVE TELY CHAR .GE. 64                        TACH0005
                              *      4       USED TO RECIEVE TELY CHAR .L. 64                         TACH0006
                                                                                                      TACH0007
                       02600  TACHAR SYN     *                                                        TACH0008
                                     VFD     O9/117,       00   1                                     TACH0009
                                     ETC     O9/003,       00   2                                     TACH0010
                                     ETC     O9/156,       00   3                                     TACH0011
      02600  117003156200            ETC     O9/200        00   4                                     TACH0012
                                     VFD     O9/116,       01   1                                     TACH0013
                                     ETC     O9/042,       01   2                                     TACH0014
                                     ETC     O9/555,       01   3                                     TACH0015
      02601  116042555534            ETC     O9/534        01   4                                     TACH0016
                                     VFD     O9/115,       02   1                                     TACH0017
                                     ETC     O9/043,       02   2                                     TACH0018
                                     ETC     O9/013,       02   3                                     TACH0019
      02602  115043013574            ETC     O9/574        02   4                                     TACH0020
                                     VFD     O9/114,       03   1                                     TACH0021
                                     ETC     O9/104,       03   2                                     TACH0022
                                     ETC     O9/552,       03   3                                     TACH0023
      02603  114104552500            ETC     O9/500        03   4                                     TACH0024
                                     VFD     O9/113,       04   1                                     TACH0025
                                     ETC     O9/134,       04   2                                     TACH0026
                                     ETC     O9/503,       04   3                                     TACH0027
      02604  113134503573            ETC     O9/573        04   4                                     TACH0028
                                     VFD     O9/112,       05   1                                     TACH0029
                                     ETC     O9/132,       05   2                                     TACH0030
                                     ETC     O9/035,       05   3                                     TACH0031
      02605  112132035171            ETC     O9/171        05   4                                     TACH0032
                                     VFD     O9/111,       06   1                                     TACH0033
                                     ETC     O9/077,       06   2                                     TACH0034
                                     ETC     O9/011,       06   3                                     TACH0035
      02606  111077011170            ETC     O9/170        06   4                                     TACH0036
                                     VFD     O9/110,       07   1                                     TACH0037
                                     ETC     O9/207,       07   2                                     TACH0038
                                     ETC     O9/010,       07   3                                     TACH0039
      02607  110207010167            ETC     O9/167        07   4                                     TACH0040
                                     VFD     O9/107,       10   1                                     TACH0041
                                     ETC     O9/155,       10   2                                     TACH0042
                                     ETC     O9/007,       10   3                                     TACH0043
      02610  107155007166            ETC     O9/166        10   4                                     TACH0044
                                     VFD     O9/106,       11   1                                     TACH0045
                                     ETC     O9/153,       11   2                                     TACH0046
                                     ETC     O9/006,       11   3                                     TACH0047
      02611  106153006165            ETC     O9/165        11   4                                     TACH0048
                                     VFD     O9/200,       12   1                                     TACH0049
                                     ETC     O9/041,       12   2                                     TACH0050
                                     ETC     O9/005,       12   3                                     TACH0051
      02612  200041005164            ETC     O9/164        12   4                                     TACH0052
                                     VFD     O9/102,       13   1                                     TACH0053
                                     ETC     O9/170,       13   2                                     TACH0054
1            ADPI    M1416 1019 S. DUNTEN ... 7750 ADAPTER                       03/04/70 1429.5 PAGE 30
                           CONSTANTS, TEMPORARIES , SWITCHES AND POINTERS

                                     ETC     O9/004,       13   3                                     TACH0055
      02613  102170004163            ETC     O9/163        13   4                                     TACH0056
                                     VFD     O9/130,       14   1                                     TACH0057
                                     ETC     O9/136,       14   2                                     TACH0058
                                     ETC     O9/003,       14   3                                     TACH0059
      02614  130136003162            ETC     O9/162        14   4                                     TACH0060
                                     VFD     O9/200,       15   1                                     TACH0061
                                     ETC     O9/172,       15   2                                     TACH0062
                                     ETC     O9/002,       15   3                                     TACH0063
      02615  200172002151            ETC     O9/151        15   4                                     TACH0064
                                     VFD     O9/200,       16   1                                     TACH0065
                                     ETC     O9/305,       16   2                                     TACH0066
                                     ETC     O9/001,       16   3                                     TACH0067
      02616  200305001150            ETC     O9/150        16   4                                     TACH0068
                                     VFD     O9/200,       17   1                                     TACH0069
                                     ETC     O9/210,       17   2                                     TACH0070
                                     ETC     O9/000,       17   3                                     TACH0071
      02617  200210000147            ETC     O9/147        17   4                                     TACH0072
                                     VFD     O9/124,       20   1                                     TACH0073
                                     ETC     O9/131,       20   2                                     TACH0074
                                     ETC     O9/061,       20   3                                     TACH0075
      02620  124131061146            ETC     O9/146        20   4                                     TACH0076
                                     VFD     O9/076,       21   1                                     TACH0077
                                     ETC     O9/036,       21   2                                     TACH0078
                                     ETC     O9/033,       21   3                                     TACH0079
      02621  076036033145            ETC     O9/145        21   4                                     TACH0080
                                     VFD     O9/075,       22   1                                     TACH0081
                                     ETC     O9/035,       22   2                                     TACH0082
                                     ETC     O9/040,       22   3                                     TACH0083
      02622  075035040144            ETC     O9/144        22   4                                     TACH0084
                                     VFD     O9/074,       23   1                                     TACH0085
                                     ETC     O9/034,       23   2                                     TACH0086
                                     ETC     O9/073,       23   3                                     TACH0087
      02623  074034073143            ETC     O9/143        23   4                                     TACH0088
                                     VFD     O9/073,       24   1                                     TACH0089
                                     ETC     O9/033,       24   2                                     TACH0090
                                     ETC     O9/020,       24   3                                     TACH0091
      02624  073033020142            ETC     O9/142        24   4                                     TACH0092
                                     VFD     O9/072,       25   1                                     TACH0093
                                     ETC     O9/032,       25   2                                     TACH0094
                                     ETC     O9/054,       25   3                                     TACH0095
      02625  072032054141            ETC     O9/141        25   4                                     TACH0096
                                     VFD     O9/071,       26   1                                     TACH0097
                                     ETC     O9/031,       26   2                                     TACH0098
                                     ETC     O9/034,       26   3                                     TACH0099
      02626  071031034131            ETC     O9/131        26   4                                     TACH0100
                                     VFD     O9/070,       27   1                                     TACH0101
                                     ETC     O9/030,       27   2                                     TACH0102
                                     ETC     O9/074,       27   3                                     TACH0103
      02627  070030074130            ETC     O9/130        27   4                                     TACH0104
                                     VFD     O9/067,       30   1                                     TACH0105
                                     ETC     O9/027,       30   2                                     TACH0106
                                     ETC     O9/014,       30   3                                     TACH0107
      02630  067027014127            ETC     O9/127        30   4                                     TACH0108
                                     VFD     O9/066,       31   1                                     TACH0109
1            ADPI    M1416 1019 S. DUNTEN ... 7750 ADAPTER                       03/04/70 1429.5 PAGE 31
                           CONSTANTS, TEMPORARIES , SWITCHES AND POINTERS

                                     ETC     O9/026,       31   2                                     TACH0110
                                     ETC     O9/120,       31   3                                     TACH0111
      02631  066026120126            ETC     O9/126        31   4                                     TACH0112
                                     VFD     O9/217,       32   1 THIS IS ARDS SETPOINT               TACH0113
                                     ETC     O9/213,       32   2                                     TACH0114
                                     ETC     O9/505,       32   3                                     TACH0115
      02632  217213505125            ETC     O9/125        32   4                                     TACH0116
                                     VFD     O9/121,       33   1                                     TACH0117
                                     ETC     O9/214,       33   2                                     TACH0118
                                     ETC     O9/053,       33   3                                     TACH0119
      02633  121214053124            ETC     O9/124        33   4                                     TACH0120
                                     VFD     O9/126,       34   1                                     TACH0121
                                     ETC     O9/001,       34   2                                     TACH0122
                                     ETC     O9/504,       34   3                                     TACH0123
      02634  126001504123            ETC     O9/123        34   4                                     TACH0124
                                     VFD     O9/105,       35   1                                     TACH0125
                                     ETC     O9/167,       35   2                                     TACH0126
                                     ETC     O9/137,       35   3                                     TACH0127
      02635  105167137122            ETC     O9/122,       35   4                                     TACH0128
                                     VFD     O9/216,       36   1 THIS IS ARDS VECTOR                 TACH0129
                                     ETC     O9/206,       36   2                                     TACH0130
                                     ETC     O9/514,       36   3                                     TACH0131
      02636  216206514121            ETC     O9/121        36   4                                     TACH0132
                                     VFD     O9/216,       37   1                                     TACH0133
                                     ETC     O9/135,       37   2                                     TACH0134
                                     ETC     O9/060,       37   3                                     TACH0135
      02637  216135060560            ETC     O9/560        37   4                                     TACH0136
                                     VFD     O9/122,       40   1                                     TACH0137
                                     ETC     O9/040,       40   2                                     TACH0138
                                     ETC     O9/200,       40   3                                     TACH0139
      02640  122040200540            ETC     O9/540        40   4                                     TACH0140
                                     VFD     O9/065,       41   1                                     TACH0141
                                     ETC     O9/025,       41   2                                     TACH0142
                                     ETC     O9/036,       41   3                                     TACH0143
      02641  065025036512            ETC     O9/512        41   4                                     TACH0144
                                     VFD     O9/064,       42   1                                     TACH0145
                                     ETC     O9/024,       42   2                                     TACH0146
                                     ETC     O9/032,       42   3                                     TACH0147
      02642  064024032501            ETC     O9/501        42   4                                     TACH0148
                                     VFD     O9/063,       43   1                                     TACH0149
                                     ETC     O9/023,       43   2                                     TACH0150
                                     ETC     O9/076,       43   3                                     TACH0151
      02643  063023076502            ETC     O9/502        43   4                                     TACH0152
                                     VFD     O9/062,       44   1                                     TACH0153
                                     ETC     O9/022,       44   2                                     TACH0154
                                     ETC     O9/554,       44   3                                     TACH0155
      02644  062022554553            ETC     O9/553        44   4                                     TACH0156
                                     VFD     O9/061,       45   1                                     TACH0157
                                     ETC     O9/021,       45   2                                     TACH0158
                                     ETC     O9/200,       45   3                                     TACH0159
      02645  061021200071            ETC     O9/071        45   4                                     TACH0160
                                     VFD     O9/060,       46   1                                     TACH0161
                                     ETC     O9/020,       46   2                                     TACH0162
                                     ETC     O9/200,       46   3                                     TACH0163
      02646  060020200070            ETC     O9/070        46   4                                     TACH0164
1            ADPI    M1416 1019 S. DUNTEN ... 7750 ADAPTER                       03/04/70 1429.5 PAGE 32
                           CONSTANTS, TEMPORARIES , SWITCHES AND POINTERS

                                     VFD     O9/057,       47   1                                     TACH0165
                                     ETC     O9/017,       47   2                                     TACH0166
                                     ETC     O9/200,       47   3                                     TACH0167
      02647  057017200067            ETC     O9/067        47   4                                     TACH0168
                                     VFD     O9/056,       50   1                                     TACH0169
                                     ETC     O9/016,       50   2                                     TACH0170
                                     ETC     O9/200,       50   3                                     TACH0171
      02650  056016200066            ETC     O9/066        50   4                                     TACH0172
                                     VFD     O9/055,       51   1                                     TACH0173
                                     ETC     O9/015,       51   2                                     TACH0174
                                     ETC     O9/200,       51   3                                     TACH0175
      02651  055015200065            ETC     O9/065        51   4                                     TACH0176
                                     VFD     O9/203,       52   1                                     TACH0177
                                     ETC     O9/103,       52   2                                     TACH0178
                                     ETC     O9/561,       52   3                                     TACH0179
      02652  203103561064            ETC     O9/064        52   4                                     TACH0180
                                     VFD     O9/133,       53   1                                     TACH0181
                                     ETC     O9/044,       53   2                                     TACH0182
                                     ETC     O9/511,       53   3                                     TACH0183
      02653  133044511063            ETC     O9/063        53   4                                     TACH0184
                                     VFD     O9/125,       54   1                                     TACH0185
                                     ETC     O9/144,       54   2                                     TACH0186
                                     ETC     O9/200,       54   3                                     TACH0187
      02654  125144200062            ETC     O9/062        54   4                                     TACH0188
                                     VFD     O9/201,       55   1                                     TACH0189
                                     ETC     O9/101,       55   2                                     TACH0190
                                     ETC     O9/510,       55   3                                     TACH0191
      02655  201101510051            ETC     O9/051        55   4                                     TACH0192
                                     VFD     O9/200,       56   1                                     TACH0193
                                     ETC     O9/100,       56   2                                     TACH0194
                                     ETC     O9/576,       56   3                                     TACH0195
      02656  200100576050            ETC     O9/050        56   4                                     TACH0196
                                     VFD     O9/200,       57   1                                     TACH0197
                                     ETC     O9/200,       57   2                                     TACH0198
                                     ETC     O9/200,       57   3                                     TACH0199
      02657  200200200047            ETC     O9/047        57   4                                     TACH0200
                                     VFD     O9/137,       60   1                                     TACH0201
                                     ETC     O9/037,       60   2                                     TACH0202
                                     ETC     O9/532,       60   3                                     TACH0203
      02660  137037532046            ETC     O9/046        60   4                                     TACH0204
                                     VFD     O9/120,       61   1                                     TACH0205
                                     ETC     O9/304,       61   2                                     TACH0206
                                     ETC     O9/533,       61   3                                     TACH0207
      02661  120304533045            ETC     O9/045        61   4                                     TACH0208
                                     VFD     O9/054,       62   1                                     TACH0209
                                     ETC     O9/014,       62   2                                     TACH0210
                                     ETC     O9/536,       62   3                                     TACH0211
      02662  054014536044            ETC     O9/044        62   4                                     TACH0212
                                     VFD     O9/053,       63   1                                     TACH0213
                                     ETC     O9/013,       63   2                                     TACH0214
                                     ETC     O9/052,       63   3                                     TACH0215
      02663  053013052043            ETC     O9/043        63   4                                     TACH0216
                                     VFD     O9/052,       64   1                                     TACH0217
                                     ETC     O9/012,       64   2                                     TACH0218
                                     ETC     O9/572,       64   3                                     TACH0219
1            ADPI    M1416 1019 S. DUNTEN ... 7750 ADAPTER                       03/04/70 1429.5 PAGE 33
                           CONSTANTS, TEMPORARIES , SWITCHES AND POINTERS

      02664  052012572042            ETC     O9/042        64   4                                     TACH0220
                                     VFD     O9/051,       65   1                                     TACH0221
                                     ETC     O9/011,       65   2                                     TACH0222
                                     ETC     O9/055,       65   3                                     TACH0223
      02665  051011055041            ETC     O9/041        65   4                                     TACH0224
                                     VFD     O9/050,       66   1                                     TACH0225
                                     ETC     O9/010,       66   2                                     TACH0226
                                     ETC     O9/072,       66   3                                     TACH0227
      02666  050010072031            ETC     O9/031        66   4                                     TACH0228
                                     VFD     O9/047,       67   1                                     TACH0229
                                     ETC     O9/007,       67   2                                     TACH0230
                                     ETC     O9/135,       67   3                                     TACH0231
      02667  047007135030            ETC     O9/030        67   4                                     TACH0232
                                     VFD     O9/046,       70   1                                     TACH0233
                                     ETC     O9/006,       70   2                                     TACH0234
                                     ETC     O9/513,       70   3                                     TACH0235
      02670  046006513027            ETC     O9/027        70   4                                     TACH0236
                                     VFD     O9/045,       71   1                                     TACH0237
                                     ETC     O9/005,       71   2                                     TACH0238
                                     ETC     O9/576,       71   3                                     TACH0239
      02671  045005576026            ETC     O9/026        71   4                                     TACH0240
                                     VFD     O9/202,       72   1                                     TACH0241
                                     ETC     O9/212,       72   2                                     TACH0242
                                     ETC     O9/515,       72   3                                     TACH0243
      02672  202212515025            ETC     O9/025        72   4                                     TACH0244
                                     VFD     O9/123,       73   1                                     TACH0245
                                     ETC     O9/004,       73   2                                     TACH0246
                                     ETC     O9/200,       73   3                                     TACH0247
      02673  123004200024            ETC     O9/024        73   4                                     TACH0248
                                     VFD     O9/127,       74   1                                     TACH0249
                                     ETC     O9/002,       74   2                                     TACH0250
                                     ETC     O9/200,       74   3                                     TACH0251
      02674  127002200023            ETC     O9/023        74   4                                     TACH0252
                                     VFD     O9/200,       75   1                                     TACH0253
                                     ETC     O9/211,       75   2                                     TACH0254
                                     ETC     O9/200,       75   3                                     TACH0255
      02675  200211200022            ETC     O9/022        75   4                                     TACH0256
                                     VFD     O9/200,       76   1                                     TACH0257
                                     ETC     O9/171,       76   2                                     TACH0258
                                     ETC     O9/200,       76   3                                     TACH0259
      02676  200171200021            ETC     O9/021        76   4                                     TACH0260
                                     VFD     O9/200,       77   1                                     TACH0261
                                     ETC     O9/000,       77   2                                     TACH0262
                                     ETC     O9/200,       77   3                                     TACH0263
      02677  200000200506            ETC     O9/506        77   4                                     TACH0264
                       02677  DL37   SYN     *-1                                                      TACH0265
      02700                          DAC     753,3777,0    CR                                         TACH0266
      02701                          DAC     755,3777,1    TAB                                        TACH0267
      02702                          DAC     747,3777,240  FORM                                       TACH0268
      02703                          DAC     3777,24,0     200 MS SPACE                               TACH0269
      02704                          DAC     3777,1000,0   4 SEC SPACE                                TACH0270
      02705                          DAC     345,3777,24   CR NO LF                                   TACH0271
      02706                          DAC     333,333,0     LF                                         TACH0272
      02707                          DAC     711,613,0     P OFF                                      TACH0273
      02710                          DAC     711,211,0     PON                                        TACH0274
1            ADPI    M1416 1019 S. DUNTEN ... 7750 ADAPTER                       03/04/70 1429.5 PAGE 34
                           CONSTANTS, TEMPORARIES , SWITCHES AND POINTERS

      02711                          DAC     351,3777,30   VERT TAB                                   TACH0275
      02712                          DAC     711,227,0     BLACK                                      TACH0276
      02713                          DAC     711,631,0     RED                                        TACH0277
                                             CAUTION SHOULD BE EXERCISED BEFORE INCREASING THIS TABLE TACH0278
                                                                                                      TACH0279
                                             ARDS SPECILA CHARACTERS                                  TACH0280
                                                                                                      TACH0281
                       02713  DLARDS SYN     *-1                                                      TACH0282
      02714                          DAC     753,0,0       C.R.                                       TACH0283
      02715                          DAC     755,0,0       TAB                                        TACH0284
      02716                   ERASIN DAC     747,0,0       ERASE (F.F.)                               TACH0285
      02717                          DAC     3777,24,0     PROB NOT USED , FOR COMPLETENESS           TACH0286
      02720                          DAC     337,367,0     HANGUP                                     TACH0287
      02721                          DAC     345,0,0       CR NO LF                                   TACH0288
      02722                          DAC     333,0,0       LF NOT IMPLEMENTED                         TACH0289
      02723                          DAC     733,0,0       POFF                                       TACH0290
      02724                          DAC     727,0,0       PON                                        TACH0291
      02725                          DAC     351,3777,30   VERT TAB NOT IMPLEMENTED                   TACH0292
      02726                          DAC     0,0,0         BLACK SHIFT FOR ARDS....                   TACH0293
      02727                          DAC     0,0,0         RED SHIFT FOR ARDS....                     TACH0294
      02730                   GLICH  DAC     1,0,0         BOTTOMOM OF PAGE                           TACH0295
      02731                   BLANCK DAC     277,0,0       BALNK FOR SIMULATING TAB                   TACH0296
      02732                   STX    DAC     373,0,0       MESSAGE BEGINNER                           TACH0297
      02733                   ETX    DAC     771,0,0       MESSAGE TERMINATOR                         TACH0298
      02734                   CHARNS DAC     307,0,0       CHARACTER MODE CHARACTER                   TACH0299
      02735                   SETINS DAC     705,0,0       SETPOINT MODE CHARACTER                    TACH0300
      02736                   LLINNS DAC     703,0,0       LINE MODE CHARACTER                        TACH0301
      02737                   SLINE  DAC     301,0,0       SHORT LINE MODE CHARACTER                  TACH0302
                              *                                                                       TACH0303
1            ADPI    M1416 1019 S. DUNTEN ... 7750 ADAPTER                       03/04/70 1429.5 PAGE 35
                           CONSTANTS, TEMPORARIES , SWITCHES AND POINTERS

      02740  0 00000 0 00000                                                                          TACH0305
                       02741  TACNT  SYN     *                                                        TACH0306
      02741 +000001111111            OCT     01111111      000                                        TACH0307
      02742 +000011111111            OCT     11111111      010                                        TACH0308
      02743 +000011111111            OCT     11111111      020                                        TACH0309
      02744 +000011111111            OCT     11111111      030                                        TACH0310
      02745 +000011111111            OCT     11111111      040                                        TACH0311
      02746 +000011111111            OCT     11111111      050                                        TACH0312
      02747 +000011111111            OCT     11111111      060                                        TACH0313
      02750 +000011111111            OCT     11111111      070                                        TACH0314
      02751 +000011111111            OCT     11111111      100                                        TACH0315
      02752 +000011111111            OCT     11111111      110                                        TACH0316
      02753 +000011111111            OCT     11111111      120                                        TACH0317
      02754 +000011111111            OCT     11111111      130                                        TACH0318
      02755 +000000000000            OCT     00000000      140                                        TACH0319
      02756 +000000000000            OCT     00000000      150                                        TACH0320
      02757 +000000400432            OCT     00400432      160                                        TACH0321
      02760 +000000000000            OCT     00000000      170                                        TACH0322
                                     INSERT  T2CHAR                                                   ADPI1351
                                             2741 CODE TABLE                                          T2CH0001
                              *      1       TRANSMIT      BCD-4XXINDICATES UPPER SHIFT               T2CH0002
                              *      2                     6XX IGNORE SHIFT                           T2CH0003
                              *      3       RECEIVE 2741  UPPER CASE                                 T2CH0004
                              *      4       RECEIVE 2741  LOWER CASE                                 T2CH0005
                                                                                                      T2CH0006
                       02761  T2CHAR SYN     *                                                        T2CH0007
                                     VFD     O9/053,       00   1                                     T2CH0008
                                     ETC     O9/411,       00   2                                     T2CH0009
                                     ETC     O9/200,       00   3                                     T2CH0010
      02761  053411200200            ETC     O9/200        00   4                                     T2CH0011
                                     VFD     O9/137,       01   1                                     T2CH0012
                                     ETC     O9/200,       01   2                                     T2CH0013
                                     ETC     O9/554,       01   3                                     T2CH0014
      02762  137200554554            ETC     O9/554        01   4                                     T2CH0015
                                     VFD     O9/157,       02   1                                     T2CH0016
                                     ETC     O9/575,       02   2                                     T2CH0017
                                     ETC     O9/200,       02   3                                     T2CH0018
      02763  157575200200            ETC     O9/200        02   4                                     T2CH0019
                                     VFD     O9/017,       03   1                                     T2CH0020
                                     ETC     O9/417,       03   2                                     T2CH0021
                                     ETC     O9/200,       03   3                                     T2CH0022
      02764  017417200200            ETC     O9/200        03   4                                     T2CH0023
                                     VFD     O9/167,       04   1                                     T2CH0024
                                     ETC     O9/113,       04   2                                     T2CH0025
                                     ETC     O9/027,       04   3                                     T2CH0026
      02765  167113027127            ETC     O9/127        04   4                                     T2CH0027
                                     VFD     O9/027,       05   1                                     T2CH0028
                                     ETC     O9/427,       05   2                                     T2CH0029
                                     ETC     O9/067,       05   3                                     T2CH0030
      02766  027427067167            ETC     O9/167        05   4                                     T2CH0031
                                     VFD     O9/047,       06   1                                     T2CH0032
                                     ETC     O9/175,       06   2                                     T2CH0033
                                     ETC     O9/047,       06   3                                     T2CH0034
      02767  047175047147            ETC     O9/147        06   4                                     T2CH0035
                                     VFD     O9/107,       07   1                                     T2CH0036
1            ADPI    M1416 1019 S. DUNTEN ... 7750 ADAPTER                       03/04/70 1429.5 PAGE 36
                           CONSTANTS, TEMPORARIES , SWITCHES AND POINTERS

                                     ETC     O9/203,       07   2                                     T2CH0037
                                     ETC     O9/555,       07   3                                     T2CH0038
      02770  107203555007            ETC     O9/007        07   4                                     T2CH0039
                                     VFD     O9/173,       10   1                                     T2CH0040
                                     ETC     O9/200,       10   2                                     T2CH0041
                                     ETC     O9/512,       10   3                                     T2CH0042
      02771  173200512033            ETC     O9/033        10   4                                     T2CH0043
                                     VFD     O9/033,       11   1                                     T2CH0044
                                     ETC     O9/200,       11   2                                     T2CH0045
                                     ETC     O9/500,       11   3                                     T2CH0046
      02772  033200500073            ETC     O9/073        11   4                                     T2CH0047
                                     VFD     O9/200,       12   1                                     T2CH0048
                                     ETC     O9/510,       12   2                                     T2CH0049
                                     ETC     O9/514,       12   3                                     T2CH0050
      02773  200510514053            ETC     O9/053        12   4                                     T2CH0051
                                     VFD     O9/537,       13   1                                     T2CH0052
                                     ETC     O9/200,       13   2                                     T2CH0053
                                     ETC     O9/137,       13   3                                     T2CH0054
      02774  537200137504            ETC     O9/504        13   4                                     T2CH0055
                                     VFD     O9/447,       14   1                                     T2CH0056
                                     ETC     O9/412,       14   2                                     T2CH0057
                                     ETC     O9/023,       14   3                                     T2CH0058
      02775  447412023123            ETC     O9/123        14   4                                     T2CH0059
                                     VFD     O9/200,       15   1                                     T2CH0060
                                     ETC     O9/200,       15   2                                     T2CH0061
                                     ETC     O9/063,       15   3                                     T2CH0062
      02776  200200063163            ETC     O9/163        15   4                                     T2CH0063
                                     VFD     O9/200,       16   1                                     T2CH0064
                                     ETC     O9/304,       16   2                                     T2CH0065
                                     ETC     O9/043,       16   3                                     T2CH0066
      02777  200304043143            ETC     O9/143        16   4                                     T2CH0067
                                     VFD     O9/200,       17   1                                     T2CH0068
                                     ETC     O9/761,       17   2                                     T2CH0069
                                     ETC     O9/503,       17   3                                     T2CH0070
      03000  200761503003            ETC     O9/003        17   4                                     T2CH0071
                                     VFD     O9/474,       20   1                                     T2CH0072
                                     ETC     O9/074,       20   2                                     T2CH0073
                                     ETC     O9/072,       20   3                                     T2CH0074
      03001  474074072072            ETC     O9/072        20   4                                     T2CH0075
                                     VFD     O9/534,       21   1                                     T2CH0076
                                     ETC     O9/134,       21   2                                     T2CH0077
                                     ETC     O9/507,       21   3                                     T2CH0078
      03002  534134507507            ETC     O9/507        21   4                                     T2CH0079
                                     VFD     O9/554,       22   1                                     T2CH0080
                                     ETC     O9/154,       22   2                                     T2CH0081
                                     ETC     O9/055,       22   3                                     T2CH0082
      03003  554154055055            ETC     O9/055        22   4                                     T2CH0083
                                     VFD     O9/414,       23   1                                     T2CH0084
                                     ETC     O9/014,       23   2                                     T2CH0085
                                     ETC     O9/200,       23   3                                     T2CH0086
      03004  414014200200            ETC     O9/200        23   4                                     T2CH0087
                                     VFD     O9/564,       24   1                                     T2CH0088
                                     ETC     O9/164,       24   2                                     T2CH0089
                                     ETC     O9/025,       24   3                                     T2CH0090
      03005  564164025125            ETC     O9/125        24   4                                     T2CH0091
1            ADPI    M1416 1019 S. DUNTEN ... 7750 ADAPTER                       03/04/70 1429.5 PAGE 37
                           CONSTANTS, TEMPORARIES , SWITCHES AND POINTERS

                                     VFD     O9/424,       25   1                                     T2CH0092
                                     ETC     O9/024,       25   2                                     T2CH0093
                                     ETC     O9/065,       25   3                                     T2CH0094
      03006  424024065165            ETC     O9/165        25   4                                     T2CH0095
                                     VFD     O9/444,       26   1                                     T2CH0096
                                     ETC     O9/044,       26   2                                     T2CH0097
                                     ETC     O9/045,       26   3                                     T2CH0098
      03007  444044045145            ETC     O9/145        26   4                                     T2CH0099
                                     VFD     O9/504,       27   1                                     T2CH0100
                                     ETC     O9/104,       27   2                                     T2CH0101
                                     ETC     O9/505,       27   3                                     T2CH0102
      03010  504104505005            ETC     O9/005        27   4                                     T2CH0103
                                     VFD     O9/570,       30   1                                     T2CH0104
                                     ETC     O9/170,       30   2                                     T2CH0105
                                     ETC     O9/031,       30   3                                     T2CH0106
      03011  570170031131            ETC     O9/131        30   4                                     T2CH0107
                                     VFD     O9/430,       31   1                                     T2CH0108
                                     ETC     O9/030,       31   2                                     T2CH0109
                                     ETC     O9/071,       31   3                                     T2CH0110
      03012  430030071171            ETC     O9/171        31   4                                     T2CH0111
                                     VFD     O9/200,       32   1                                     T2CH0112
                                     ETC     O9/206,       32   2                                     T2CH0113
                                     ETC     O9/051,       32   3                                     T2CH0114
      03013  200206051151            ETC     O9/151        32   4                                     T2CH0115
                                     VFD     O9/110,       33   1                                     T2CH0116
                                     ETC     O9/205,       33   2                                     T2CH0117
                                     ETC     O9/074,       33   3                                     T2CH0118
      03014  110205074011            ETC     O9/011        33   4                                     T2CH0119
                                     VFD     O9/453,       34   1                                     T2CH0120
                                     ETC     O9/200,       34   2                                     T2CH0121
                                     ETC     O9/021,       34   3                                     T2CH0122
      03015  453200021121            ETC     O9/121        34   4                                     T2CH0123
                                     VFD     O9/567,       35   1                                     T2CH0124
                                     ETC     O9/207,       35   2                                     T2CH0125
                                     ETC     O9/156,       35   3                                     T2CH0126
      03016  567207156061            ETC     O9/061        35   4                                     T2CH0127
                                     VFD     O9/200,       36   1                                     T2CH0128
                                     ETC     O9/200,       36   2                                     T2CH0129
                                     ETC     O9/041,       36   3                                     T2CH0130
      03017  200200041141            ETC     O9/141        36   4                                     T2CH0131
                                     VFD     O9/200,       37   1                                     T2CH0132
                                     ETC     O9/513,       37   2                                     T2CH0133
                                     ETC     O9/013,       37   3                                     T2CH0134
      03020  200513013001            ETC     O9/001        37   4                                     T2CH0135
                                     VFD     O9/176,       40   1                                     T2CH0136
                                     ETC     O9/576,       40   2                                     T2CH0137
                                     ETC     O9/201,       40   3                                     T2CH0138
      03021  176576201201            ETC     O9/201        40   4                                     T2CH0139
                                     VFD     O9/436,       41   1                                     T2CH0140
                                     ETC     O9/036,       41   2                                     T2CH0141
                                     ETC     O9/200,       41   3                                     T2CH0142
      03022  436036200200            ETC     O9/200        41   4                                     T2CH0143
                                     VFD     O9/456,       42   1                                     T2CH0144
                                     ETC     O9/056,       42   2                                     T2CH0145
                                     ETC     O9/135,       42   3                                     T2CH0146
1            ADPI    M1416 1019 S. DUNTEN ... 7750 ADAPTER                       03/04/70 1429.5 PAGE 38
                           CONSTANTS, TEMPORARIES , SWITCHES AND POINTERS

      03023  456056135135            ETC     O9/135        42   4                                     T2CH0147
                                     VFD     O9/516,       43   1                                     T2CH0148
                                     ETC     O9/116,       43   2                                     T2CH0149
                                     ETC     O9/210,       43   3                                     T2CH0150
      03024  516116210210            ETC     O9/210        43   4                                     T2CH0151
                                     VFD     O9/466,       44   1                                     T2CH0152
                                     ETC     O9/066,       44   2                                     T2CH0153
                                     ETC     O9/026,       44   3                                     T2CH0154
      03025  466066026126            ETC     O9/126        44   4                                     T2CH0155
                                     VFD     O9/526,       45   1                                     T2CH0156
                                     ETC     O9/126,       45   2                                     T2CH0157
                                     ETC     O9/066,       45   3                                     T2CH0158
      03026  526126066166            ETC     O9/166        45   4                                     T2CH0159
                                     VFD     O9/546,       46   1                                     T2CH0160
                                     ETC     O9/146,       46   2                                     T2CH0161
                                     ETC     O9/046,       46   3                                     T2CH0162
      03027  546146046146            ETC     O9/146        46   4                                     T2CH0163
                                     VFD     O9/406,       47   1                                     T2CH0164
                                     ETC     O9/006,       47   2                                     T2CH0165
                                     ETC     O9/014,       47   3                                     T2CH0166
      03030  406006014006            ETC     O9/006        47   4                                     T2CH0167
                                     VFD     O9/472,       50   1                                     T2CH0168
                                     ETC     O9/072,       50   2                                     T2CH0169
                                     ETC     O9/200,       50   3                                     T2CH0170
      03031  472072200200            ETC     O9/200        50   4                                     T2CH0171
                                     VFD     O9/532,       51   1                                     T2CH0172
                                     ETC     O9/132,       51   2                                     T2CH0173
                                     ETC     O9/200,       51   3                                     T2CH0174
      03032  532132200200            ETC     O9/200        51   4                                     T2CH0175
                                     VFD     O9/200,       52   1                                     T2CH0176
                                     ETC     O9/557,       52   2                                     T2CH0177
                                     ETC     O9/200,       52   3                                     T2CH0178
      03033  200557200200            ETC     O9/200        52   4                                     T2CH0179
                                     VFD     O9/012,       53   1                                     T2CH0180
                                     ETC     O9/200,       53   2                                     T2CH0181
                                     ETC     O9/034,       53   3                                     T2CH0182
      03034  012200034000            ETC     O9/000        53   4                                     T2CH0183
                                     VFD     O9/573,       54   1                                     T2CH0184
                                     ETC     O9/101,       54   2                                     T2CH0185
                                     ETC     O9/022,       54   3                                     T2CH0186
      03035  573101022122            ETC     O9/122        54   4                                     T2CH0187
                                     VFD     O9/201,       55   1                                     T2CH0188
                                     ETC     O9/507,       55   2                                     T2CH0189
                                     ETC     O9/062,       55   3                                     T2CH0190
      03036  201507062162            ETC     O9/162        55   4                                     T2CH0191
                                     VFD     O9/200,       56   1                                     T2CH0192
                                     ETC     O9/435,       56   2                                     T2CH0193
                                     ETC     O9/042,       56   3                                     T2CH0194
      03037  200435042142            ETC     O9/142        56   4                                     T2CH0195
                                     VFD     O9/200,       57   1                                     T2CH0196
                                     ETC     O9/200,       57   2                                     T2CH0197
                                     ETC     O9/552,       57   3                                     T2CH0198
      03040  200200552002            ETC     O9/002        57   4                                     T2CH0199
                                     VFD     O9/677,       60   1                                     T2CH0200
                                     ETC     O9/200,       60   2                                     T2CH0201
1            ADPI    M1416 1019 S. DUNTEN ... 7750 ADAPTER                       03/04/70 1429.5 PAGE 39
                           CONSTANTS, TEMPORARIES , SWITCHES AND POINTERS

                                     ETC     O9/200,       60   3                                     T2CH0202
      03041  677200200200            ETC     O9/200        60   4                                     T2CH0203
                                     VFD     O9/035,       61   1                                     T2CH0204
                                     ETC     O9/200,       61   2                                     T2CH0205
                                     ETC     O9/517,       61   3                                     T2CH0206
      03042  035200517517            ETC     O9/517        61   4                                     T2CH0207
                                     VFD     O9/455,       62   1                                     T2CH0208
                                     ETC     O9/055,       62   2                                     T2CH0209
                                     ETC     O9/575,       62   3                                     T2CH0210
      03043  455055575575            ETC     O9/575        62   4                                     T2CH0211
                                     VFD     O9/515,       63   1                                     T2CH0212
                                     ETC     O9/115,       63   2                                     T2CH0213
                                     ETC     O9/200,       63   3                                     T2CH0214
      03044  515115200200            ETC     O9/200        63   4                                     T2CH0215
                                     VFD     O9/465,       64   1                                     T2CH0216
                                     ETC     O9/065,       64   2                                     T2CH0217
                                     ETC     O9/024,       64   3                                     T2CH0218
      03045  465065024124            ETC     O9/124        64   4                                     T2CH0219
                                     VFD     O9/525,       65   1                                     T2CH0220
                                     ETC     O9/125,       65   2                                     T2CH0221
                                     ETC     O9/064,       65   3                                     T2CH0222
      03046  525125064164            ETC     O9/164        65   4                                     T2CH0223
                                     VFD     O9/545,       66   1                                     T2CH0224
                                     ETC     O9/145,       66   2                                     T2CH0225
                                     ETC     O9/044,       66   3                                     T2CH0226
      03047  545145044144            ETC     O9/144        66   4                                     T2CH0227
                                     VFD     O9/405,       67   1                                     T2CH0228
                                     ETC     O9/005,       67   2                                     T2CH0229
                                     ETC     O9/035,       67   3                                     T2CH0230
      03050  405005035004            ETC     O9/004        67   4                                     T2CH0231
                                     VFD     O9/471,       70   1                                     T2CH0232
                                     ETC     O9/071,       70   2                                     T2CH0233
                                     ETC     O9/030,       70   3                                     T2CH0234
      03051  471071030130            ETC     O9/130        70   4                                     T2CH0235
                                     VFD     O9/531,       71   1                                     T2CH0236
                                     ETC     O9/131,       71   2                                     T2CH0237
                                     ETC     O9/070,       71   3                                     T2CH0238
      03052  531131070170            ETC     O9/170        71   4                                     T2CH0239
                                     VFD     O9/202,       72   1                                     T2CH0240
                                     ETC     O9/200,       72   2                                     T2CH0241
                                     ETC     O9/050,       72   3                                     T2CH0242
      03053  202200050150            ETC     O9/150        72   4                                     T2CH0243
                                     VFD     O9/011,       73   1                                     T2CH0244
                                     ETC     O9/200,       73   2                                     T2CH0245
                                     ETC     O9/054,       73   3                                     T2CH0246
      03054  011200054010            ETC     O9/010        73   4                                     T2CH0247
                                     VFD     O9/433,       74   1                                     T2CH0248
                                     ETC     O9/200,       74   2                                     T2CH0249
                                     ETC     O9/020,       74   3                                     T2CH0250
      03055  433200020120            ETC     O9/120        74   4                                     T2CH0251
                                     VFD     O9/200,       75   1                                     T2CH0252
                                     ETC     O9/762,       75   2                                     T2CH0253
                                     ETC     O9/502,       75   3                                     T2CH0254
      03056  200762502506            ETC     O9/506        75   4                                     T2CH0255
                                     VFD     O9/200,       76   1                                     T2CH0256
1            ADPI    M1416 1019 S. DUNTEN ... 7750 ADAPTER                       03/04/70 1429.5 PAGE 40
                           CONSTANTS, TEMPORARIES , SWITCHES AND POINTERS

                                     ETC     O9/200,       76   2                                     T2CH0257
                                     ETC     O9/540,       76   3                                     T2CH0258
      03057  200200540040            ETC     O9/040        76   4                                     T2CH0259
                                     VFD     O9/200,       77   1                                     T2CH0260
                                     ETC     O9/200,       77   2                                     T2CH0261
                                     ETC     O9/060,       77   3                                     T2CH0262
      03060  200200060060            ETC     O9/060        77   4                                     T2CH0263
                                                                                                      T2CH0264
                                                                                                      T2CH0265
                       03060  DL2741 SYN     *-1                                                      T2CH0266
      03061                          DAC     45,3777,10    CR                                         T2CH0267
      03062                          DAC     241,3777,4    TAB                                        T2CH0268
      03063                          DAC     43,3777,10    LF                                         T2CH0269
      03064                          DAC     3777,1000,0   4 SEC SPACE                                T2CH0270
      03065                          DAC     203,271,0     RED RIBBON                                 T2CH0271
      03066                          DAC     203,331,0     BLACK                                      T2CH0272
      03067                          DAC     105,3777,5    BS                                         T2CH0273
1            ADPI    M1416 1019 S. DUNTEN ... 7750 ADAPTER                       03/04/70 1429.5 PAGE 41
                           CONSTANTS, TEMPORARIES , SWITCHES AND POINTERS

                       03070  T2CNT  SYN     *                                                        T2CH0275
      03070 +000000001111            OCT     00001111      000                                        T2CH0276
      03071 +000011111111            OCT     11111111      010                                        T2CH0277
      03072 +000030401111            OCT     30401111      020                                        T2CH0278
      03073 +000011111111            OCT     11111111      030                                        T2CH0279
      03074 +000000201111            OCT     00201111      040                                        T2CH0280
      03075 +000000011111            OCT     00011111      050                                        T2CH0281
      03076 +000000001111            OCT     00001111      060                                        T2CH0282
      03077 +000011111111            OCT     11111111      070                                        T2CH0283
      03100 +000000001111            OCT     00001111      100                                        T2CH0284
      03101 +000011111111            OCT     11111111      110                                        T2CH0285
      03102 +000030401111            OCT     30401111      120                                        T2CH0286
      03103 +000011111111            OCT     11111111      130                                        T2CH0287
      03104 +000000201111            OCT     00201111      140                                        T2CH0288
      03105 +000000011111            OCT     00011111      150                                        T2CH0289
      03106 +000000001111            OCT     00001111      160                                        T2CH0290
      03107 +000011111111            OCT     11111111      170                                        T2CH0291
                                     INSERT  TXCHAR                                                   ADPI1352
                                             TELEX CODE TABLE                                         TXCH0001
                              *      1       OUTPUT LOWER BCD CASE                                    TXCH0002
                              *      2              UPPER                                             TXCH0003
                              *      3       INPUT UPPER TEXEX CASE                                   TXCH0004
                              *      4             LOWER                                              TXCH0005
                              *                                                                       TXCH0006
                              *      FOR FORGIEN TELEX MAKE CHANGES INDICATED IN COMMENTS (8 CHANGES) TXCH0007
                              *      HIS MAPINGS ARE THEN                                             TXCH0008
                              *      SHIFT C IS TAB                                                   TXCH0009
                              *      SHIFT V IS =                                                     TXCH0010
                              *      SHIFT G IS                                                       TXCH0011
                              *      SHIFT H IS *                                                     TXCH0012
                              *      SHIFT J IS LOGICAL BS (035)                                      TXCH0013
                              *                                                                       TXCH0014
                       03110  TXCHAR SYN     *                                                        TXCH0015
                                     VFD     O9/411,       00   1                                     TXCH0016
                                     ETC     O9/200,       00   2                                     TXCH0017
                                     ETC     O9/201,       00   3                                     TXCH0018
      03110  411200201200            ETC     O9/200        00   4                                     TXCH0019
                                     VFD     O9/410,       01   1                                     TXCH0020
                                     ETC     O9/200,       01   2                                     TXCH0021
                                     ETC     O9/072,       01   3  013                                TXCH0022
      03111  410200072065            ETC     O9/065        01   4                                     TXCH0023
                                     VFD     O9/414,       02   1                                     TXCH0024
                                     ETC     O9/200,       02   2                                     TXCH0025
                                     ETC     O9/061,       02   3                                     TXCH0026
      03112  414200061067            ETC     O9/067        02   4                                     TXCH0027
                                     VFD     O9/436,       03   1                                     TXCH0028
                                     ETC     O9/401,       03   2                                     TXCH0029
                                     ETC     O9/033,       03   3                                     TXCH0030
      03113  436401033044            ETC     O9/044        03   4                                     TXCH0031
                                     VFD     O9/425,       04   1                                     TXCH0032
                                     ETC     O9/413,       04   2                                     TXCH0033
                                     ETC     O9/200,       04   3                                     TXCH0034
      03114  425413200210            ETC     O9/210        04   4                                     TXCH0035
                                     VFD     O9/417,       05   1                                     TXCH0036
                                     ETC     O9/200,       05   2                                     TXCH0037
1            ADPI    M1416 1019 S. DUNTEN ... 7750 ADAPTER                       03/04/70 1429.5 PAGE 42
                           CONSTANTS, TEMPORARIES , SWITCHES AND POINTERS

                                     ETC     O9/020,       05   3  137                                TXCH0038
      03115  417200020027            ETC     O9/027        05   4                                     TXCH0039
                                     VFD     O9/412,       06   1                                     TXCH0040
                                     ETC     O9/200,       06   2                                     TXCH0041
                                     ETC     O9/156,       06   3                                     TXCH0042
      03116  412200156022            ETC     O9/022        06   4                                     TXCH0043
                                     VFD     O9/430,       07   1                                     TXCH0044
                                     ETC     O9/635,       07   2                                     TXCH0045
                                     ETC     O9/011,       07   3                                     TXCH0046
      03117  430635011046            ETC     O9/046        07   4                                     TXCH0047
                                     VFD     O9/431,       10   1                                     TXCH0048
                                     ETC     O9/200,       10   2                                     TXCH0049
                                     ETC     O9/001,       10   3                                     TXCH0050
      03120  431200001050            ETC     O9/050        10   4                                     TXCH0051
                                     VFD     O9/407,       11   1                                     TXCH0052
                                     ETC     O9/200,       11   2                                     TXCH0053
                                     ETC     O9/000,       11   3                                     TXCH0054
      03121  407200000047            ETC     O9/047        11   4                                     TXCH0055
                                     VFD     O9/200,       12   1                                     TXCH0056
                                     ETC     O9/200,       12   2                                     TXCH0057
                                     ETC     O9/006,       12   3                                     TXCH0058
      03122  200200006070            ETC     O9/070        12   4                                     TXCH0059
                                     VFD     O9/421,       13   1  401                                TXCH0060
                                     ETC     O9/424,       13   2                                     TXCH0061
                                     ETC     O9/054,       13   3                                     TXCH0062
      03123  421424054030            ETC     O9/030        13   4                                     TXCH0063
                                     VFD     O9/432,       14   1                                     TXCH0064
                                     ETC     O9/200,       14   2                                     TXCH0065
                                     ETC     O9/002,       14   3                                     TXCH0066
      03124  432200002066            ETC     O9/066        14   4                                     TXCH0067
                                     VFD     O9/200,       15   1                                     TXCH0068
                                     ETC     O9/426,       15   2                                     TXCH0069
                                     ETC     O9/034,       15   3                                     TXCH0070
      03125  200426034043            ETC     O9/043        15   4                                     TXCH0071
                                     VFD     O9/200,       16   1                                     TXCH0072
                                     ETC     O9/200,       16   2                                     TXCH0073
                                     ETC     O9/137,       16   3  020                                TXCH0074
      03126  200200137071            ETC     O9/071        16   4                                     TXCH0075
                                     VFD     O9/200,       17   1                                     TXCH0076
                                     ETC     O9/200,       17   2                                     TXCH0077
                                     ETC     O9/005,       17   3                                     TXCH0078
      03127  200200005063            ETC     O9/063        17   4                                     TXCH0079
                                     VFD     O9/405,       20   1  416                                TXCH0080
                                     ETC     O9/405,       20   2                                     TXCH0081
                                     ETC     O9/074,       20   3                                     TXCH0082
      03130  405405074042            ETC     O9/042        20   4                                     TXCH0083
                                     VFD     O9/034,       21   1                                     TXCH0084
                                     ETC     O9/034,       21   2                                     TXCH0085
                                     ETC     O9/013,       21   3  072                                TXCH0086
      03131  034034013023            ETC     O9/023        21   4                                     TXCH0087
                                     VFD     O9/006,       22   1                                     TXCH0088
                                     ETC     O9/006,       22   2                                     TXCH0089
                                     ETC     O9/053,       22   3                                     TXCH0090
      03132  006006053026            ETC     O9/026        22   4                                     TXCH0091
                                     VFD     O9/021,       23   1                                     TXCH0092
1            ADPI    M1416 1019 S. DUNTEN ... 7750 ADAPTER                       03/04/70 1429.5 PAGE 43
                           CONSTANTS, TEMPORARIES , SWITCHES AND POINTERS

                                     ETC     O9/021,       23   2                                     TXCH0093
                                     ETC     O9/073,       23   3                                     TXCH0094
      03133  021021073045            ETC     O9/045        23   4                                     TXCH0095
                                     VFD     O9/026,       24   1                                     TXCH0096
                                     ETC     O9/026,       24   2                                     TXCH0097
                                     ETC     O9/035,       24   3                                     TXCH0098
      03134  026026035041            ETC     O9/041        24   4                                     TXCH0099
                                     VFD     O9/036,       25   1                                     TXCH0100
                                     ETC     O9/036,       25   2                                     TXCH0101
                                     ETC     O9/004,       25   3                                     TXCH0102
      03135  036036004051            ETC     O9/051        25   4                                     TXCH0103
                                     VFD     O9/022,       26   1                                     TXCH0104
                                     ETC     O9/022,       26   2                                     TXCH0105
                                     ETC     O9/515,       26   3                                     TXCH0106
      03136  022022515024            ETC     O9/024        26   4                                     TXCH0107
                                     VFD     O9/005,       27   1                                     TXCH0108
                                     ETC     O9/005,       27   2                                     TXCH0109
                                     ETC     O9/055,       27   3                                     TXCH0110
      03137  005005055055            ETC     O9/055        27   4                                     TXCH0111
                                     VFD     O9/013,       30   1                                     TXCH0112
                                     ETC     O9/013,       30   2                                     TXCH0113
                                     ETC     O9/007,       30   3                                     TXCH0114
      03140  013013007064            ETC     O9/064        30   4                                     TXCH0115
                                     VFD     O9/031,       31   1                                     TXCH0116
                                     ETC     O9/031,       31   2                                     TXCH0117
                                     ETC     O9/010,       31   3                                     TXCH0118
      03141  031031010031            ETC     O9/031        31   4                                     TXCH0119
                                     VFD     O9/200,       32   1                                     TXCH0120
                                     ETC     O9/200,       32   2                                     TXCH0121
                                     ETC     O9/014,       32   3                                     TXCH0122
      03142  200200014062            ETC     O9/062        32   4                                     TXCH0123
                                     VFD     O9/403,       33   1                                     TXCH0124
                                     ETC     O9/200,       33   2                                     TXCH0125
                                     ETC     O9/060,       33   3                                     TXCH0126
      03143  403200060060            ETC     O9/060        33   4                                     TXCH0127
                                     VFD     O9/415,       34   1                                     TXCH0128
                                     ETC     O9/200,       34   2                                     TXCH0129
                                     ETC     O9/040,       34   3                                     TXCH0130
      03144  415200040021            ETC     O9/021        34   4                                     TXCH0131
                                     VFD     O9/424,       35   1                                     TXCH0132
                                     ETC     O9/200,       35   2                                     TXCH0133
                                     ETC     O9/507,       35   3                                     TXCH0134
      03145  424200507507            ETC     O9/507        35   4                                     TXCH0135
                                     VFD     O9/200,       36   1                                     TXCH0136
                                     ETC     O9/203,       36   2                                     TXCH0137
                                     ETC     O9/003,       36   3                                     TXCH0138
      03146  200203003025            ETC     O9/025        36   4                                     TXCH0139
                                     VFD     O9/200,       37   1                                     TXCH0140
                                     ETC     O9/416,       37   2  405                                TXCH0141
                                     ETC     O9/200,       37   3                                     TXCH0142
      03147  200416200200            ETC     O9/200        37   4                                     TXCH0143
                                     VFD     O9/434,       40   1                                     TXCH0144
                                     ETC     O9/200,       40   2                                     TXCH0145
                                     ETC     O9/200,       40   3                                     TXCH0146
      03150  434200200210            ETC     O9/210        40   4                                     TXCH0147
1            ADPI    M1416 1019 S. DUNTEN ... 7750 ADAPTER                       03/04/70 1429.5 PAGE 44
                           CONSTANTS, TEMPORARIES , SWITCHES AND POINTERS

                                     VFD     O9/024,       41   1                                     TXCH0148
                                     ETC     O9/024,       41   2                                     TXCH0149
                                     ETC     O9/200,       41   3                                     TXCH0150
      03151  024024200200            ETC     O9/200        41   4                                     TXCH0151
                                     VFD     O9/020,       42   1                                     TXCH0152
                                     ETC     O9/020,       42   2                                     TXCH0153
                                     ETC     O9/200,       42   3                                     TXCH0154
      03152  020020200200            ETC     O9/200        42   4                                     TXCH0155
                                     VFD     O9/015,       43   1                                     TXCH0156
                                     ETC     O9/015,       43   2                                     TXCH0157
                                     ETC     O9/200,       43   3                                     TXCH0158
      03153  015015200200            ETC     O9/200        43   4                                     TXCH0159
                                     VFD     O9/003,       44   1                                     TXCH0160
                                     ETC     O9/003,       44   2                                     TXCH0161
                                     ETC     O9/200,       44   3                                     TXCH0162
      03154  003003200200            ETC     O9/200        44   4                                     TXCH0163
                                     VFD     O9/023,       45   1                                     TXCH0164
                                     ETC     O9/023,       45   2                                     TXCH0165
                                     ETC     O9/200,       45   3                                     TXCH0166
      03155  023023200200            ETC     O9/200        45   4                                     TXCH0167
                                     VFD     O9/007,       46   1                                     TXCH0168
                                     ETC     O9/007,       46   2                                     TXCH0169
                                     ETC     O9/200,       46   3                                     TXCH0170
      03156  007007200200            ETC     O9/200        46   4                                     TXCH0171
                                     VFD     O9/011,       47   1                                     TXCH0172
                                     ETC     O9/011,       47   2                                     TXCH0173
                                     ETC     O9/200,       47   3                                     TXCH0174
      03157  011011200200            ETC     O9/200        47   4                                     TXCH0175
                                     VFD     O9/010,       50   1                                     TXCH0176
                                     ETC     O9/010,       50   2                                     TXCH0177
                                     ETC     O9/200,       50   3                                     TXCH0178
      03160  010010200200            ETC     O9/200        50   4                                     TXCH0179
                                     VFD     O9/025,       51   1                                     TXCH0180
                                     ETC     O9/025,       51   2                                     TXCH0181
                                     ETC     O9/200,       51   3                                     TXCH0182
      03161  025025200200            ETC     O9/200        51   4                                     TXCH0183
                                     VFD     O9/200,       52   1                                     TXCH0184
                                     ETC     O9/200,       52   2                                     TXCH0185
                                     ETC     O9/200,       52   3                                     TXCH0186
      03162  200200200200            ETC     O9/200        52   4                                     TXCH0187
                                     VFD     O9/422,       53   1                                     TXCH0188
                                     ETC     O9/200,       53   2                                     TXCH0189
                                     ETC     O9/200,       53   3                                     TXCH0190
      03163  422200200200            ETC     O9/200        53   4                                     TXCH0191
                                     VFD     O9/413,       54   1                                     TXCH0192
                                     ETC     O9/200,       54   2                                     TXCH0193
                                     ETC     O9/200,       54   3                                     TXCH0194
      03164  413200200200            ETC     O9/200        54   4                                     TXCH0195
                                     VFD     O9/201,       55   1                                     TXCH0196
                                     ETC     O9/200,       55   2                                     TXCH0197
                                     ETC     O9/200,       55   3                                     TXCH0198
      03165  201200200200            ETC     O9/200        55   4                                     TXCH0199
                                     VFD     O9/200,       56   1                                     TXCH0200
                                     ETC     O9/406,       56   2                                     TXCH0201
                                     ETC     O9/200,       56   3                                     TXCH0202
1            ADPI    M1416 1019 S. DUNTEN ... 7750 ADAPTER                       03/04/70 1429.5 PAGE 45
                           CONSTANTS, TEMPORARIES , SWITCHES AND POINTERS

      03166  200406200200            ETC     O9/200        56   4                                     TXCH0203
                                     VFD     O9/200,       57   1                                     TXCH0204
                                     ETC     O9/200,       57   2                                     TXCH0205
                                     ETC     O9/200,       57   3                                     TXCH0206
      03167  200200200200            ETC     O9/200        57   4                                     TXCH0207
                                     VFD     O9/633,       60   1                                     TXCH0208
                                     ETC     O9/200,       60   2                                     TXCH0209
                                     ETC     O9/200,       60   3                                     TXCH0210
      03170  633200200200            ETC     O9/200        60   4                                     TXCH0211
                                     VFD     O9/402,       61   1                                     TXCH0212
                                     ETC     O9/200,       61   2                                     TXCH0213
                                     ETC     O9/200,       61   3                                     TXCH0214
      03171  402200200200            ETC     O9/200        61   4                                     TXCH0215
                                     VFD     O9/032,       62   1                                     TXCH0216
                                     ETC     O9/032,       62   2                                     TXCH0217
                                     ETC     O9/200,       62   3                                     TXCH0218
      03172  032032200200            ETC     O9/200        62   4                                     TXCH0219
                                     VFD     O9/017,       63   1                                     TXCH0220
                                     ETC     O9/017,       63   2                                     TXCH0221
                                     ETC     O9/200,       63   3                                     TXCH0222
      03173  017017200200            ETC     O9/200        63   4                                     TXCH0223
                                     VFD     O9/030,       64   1                                     TXCH0224
                                     ETC     O9/030,       64   2                                     TXCH0225
                                     ETC     O9/200,       64   3                                     TXCH0226
      03174  030030200200            ETC     O9/200        64   4                                     TXCH0227
                                     VFD     O9/001,       65   1                                     TXCH0228
                                     ETC     O9/001,       65   2                                     TXCH0229
                                     ETC     O9/200,       65   3                                     TXCH0230
      03175  001001200200            ETC     O9/200        65   4                                     TXCH0231
                                     VFD     O9/014,       66   1                                     TXCH0232
                                     ETC     O9/014,       66   2                                     TXCH0233
                                     ETC     O9/200,       66   3                                     TXCH0234
      03176  014014200200            ETC     O9/200        66   4                                     TXCH0235
                                     VFD     O9/002,       67   1                                     TXCH0236
                                     ETC     O9/002,       67   2                                     TXCH0237
                                     ETC     O9/200,       67   3                                     TXCH0238
      03177  002002200200            ETC     O9/200        67   4                                     TXCH0239
                                     VFD     O9/012,       70   1                                     TXCH0240
                                     ETC     O9/012,       70   2                                     TXCH0241
                                     ETC     O9/200,       70   3                                     TXCH0242
      03200  012012200200            ETC     O9/200        70   4                                     TXCH0243
                                     VFD     O9/016,       71   1                                     TXCH0244
                                     ETC     O9/016,       71   2                                     TXCH0245
                                     ETC     O9/200,       71   3                                     TXCH0246
      03201  016016200200            ETC     O9/200        71   4                                     TXCH0247
                                     VFD     O9/401,       72   1  421                                TXCH0248
                                     ETC     O9/200,       72   2                                     TXCH0249
                                     ETC     O9/200,       72   3                                     TXCH0250
      03202  401200200200            ETC     O9/200        72   4                                     TXCH0251
                                     VFD     O9/423,       73   1                                     TXCH0252
                                     ETC     O9/200,       73   2                                     TXCH0253
                                     ETC     O9/200,       73   3                                     TXCH0254
      03203  423200200200            ETC     O9/200        73   4                                     TXCH0255
                                     VFD     O9/420,       74   1                                     TXCH0256
                                     ETC     O9/200,       74   2                                     TXCH0257
1            ADPI    M1416 1019 S. DUNTEN ... 7750 ADAPTER                       03/04/70 1429.5 PAGE 46
                           CONSTANTS, TEMPORARIES , SWITCHES AND POINTERS

                                     ETC     O9/200,       74   3                                     TXCH0258
      03204  420200200200            ETC     O9/200        74   4                                     TXCH0259
                                     VFD     O9/200,       75   1                                     TXCH0260
                                     ETC     O9/200,       75   2                                     TXCH0261
                                     ETC     O9/200,       75   3                                     TXCH0262
      03205  200200200200            ETC     O9/200        75   4                                     TXCH0263
                                     VFD     O9/200,       76   1                                     TXCH0264
                                     ETC     O9/200,       76   2                                     TXCH0265
                                     ETC     O9/200,       76   3                                     TXCH0266
      03206  200200200200            ETC     O9/200        76   4                                     TXCH0267
                                     VFD     O9/200,       77   1                                     TXCH0268
                                     ETC     O9/200,       77   2                                     TXCH0269
                                     ETC     O9/200,       77   3                                     TXCH0270
      03207  200200200200            ETC     O9/200        77   4                                     TXCH0271
                                                                                                      TXCH0272
                       03207  DLTLX  SYN     *-1                                                      TXCH0273
      03210                          DAC     57,73,0       CR,LF,DELAY                                TXCH0274
      03211  0 00000 0 00000         PZE                                                              TXCH0275
      03212                          DAC     57,3777,10                                               TXCH0276
1            ADPI    M1416 1019 S. DUNTEN ... 7750 ADAPTER                       03/04/70 1429.5 PAGE 47
                           CONSTANTS, TEMPORARIES , SWITCHES AND POINTERS

                       03213  TXCNT  SYN     *                                                        TXCH0278
      03213 +000001110111            OCT     01110111      000                                        TXCH0279
      03214 +000011111111            OCT     11111111      010                                        TXCH0280
      03215 +000011111114            OCT     11111114      020                                        TXCH0281
      03216 +000011111010            OCT     11111010      030                                        TXCH0282
      03217 +000000000000            OCT     00000000      040                                        TXCH0283
      03220 +000000000000            OCT     00000000      050                                        TXCH0284
      03221 +000000000000            OCT     00000000      060                                        TXCH0285
      03222 +000000000000            OCT     00000000      070                                        TXCH0286
      03223 +000001110111            OCT     01110111      100                                        TXCH0287
      03224 +000011111111            OCT     11111111      110                                        TXCH0288
      03225 +000011110104            OCT     11110104      120                                        TXCH0289
      03226 +000011111010            OCT     11111010      130                                        TXCH0290
      03227 +000000000000            OCT     00000000      140                                        TXCH0291
      03230 +000000000000            OCT     00000000      150                                        TXCH0292
      03231 +000000000000            OCT     00000000      160                                        TXCH0293
      03232 +000000000000            OCT     00000000      170                                        TXCH0294
                                     INSERT  TWCHAR                                                   ADPI1353
                                             TWCHAR        TWX/BCD CODE TABLE                         TWCH0001
                              *      1       USED TO TRANSMIT LOWER CASE BCD                          TWCH0002
                              *      2       USED TO TRANSMIT UPPER CASE BCD                          TWCH0003
                              *      3       USED TO RECIEVE TELY CHAR .GE. 64                        TWCH0004
                              *      4       USED TO RECIEVE TELY CHAR .L. 64                         TWCH0005
                                                                                                      TWCH0006
                       03233  TWCHAR SYN     *                                                        TWCH0007
                                     VFD     O9/117,       00   1                                     TWCH0008
                                     ETC     O9/041,       00   2                                     TWCH0009
                                     ETC     O9/156,       00   3                                     TWCH0010
      03233  117041156200            ETC     O9/200        00   4                                     TWCH0011
                                     VFD     O9/116,       01   1                                     TWCH0012
                                     ETC     O9/042,       01   2                                     TWCH0013
                                     ETC     O9/555,       01   3                                     TWCH0014
      03234  116042555200            ETC     O9/200        01   4                                     TWCH0015
                                     VFD     O9/115,       02   1                                     TWCH0016
                                     ETC     O9/043,       02   2                                     TWCH0017
                                     ETC     O9/013,       02   3                                     TWCH0018
      03235  115043013577            ETC     O9/577        02   4                                     TWCH0019
                                     VFD     O9/114,       03   1                                     TWCH0020
                                     ETC     O9/104,       03   2                                     TWCH0021
                                     ETC     O9/552,       03   3                                     TWCH0022
      03236  114104552200            ETC     O9/200        03   4                                     TWCH0023
                                     VFD     O9/113,       04   1                                     TWCH0024
                                     ETC     O9/134,       04   2                                     TWCH0025
                                     ETC     O9/503,       04   3                                     TWCH0026
      03237  113134503200            ETC     O9/200        04   4                                     TWCH0027
                                     VFD     O9/112,       05   1                                     TWCH0028
                                     ETC     O9/132,       05   2                                     TWCH0029
                                     ETC     O9/035,       05   3                                     TWCH0030
      03240  112132035200            ETC     O9/200        05   4                                     TWCH0031
                                     VFD     O9/111,       06   1                                     TWCH0032
                                     ETC     O9/077,       06   2                                     TWCH0033
                                     ETC     O9/011,       06   3                                     TWCH0034
      03241  111077011200            ETC     O9/200        06   4                                     TWCH0035
                                     VFD     O9/110,       07   1                                     TWCH0036
                                     ETC     O9/165,       07   2                                     TWCH0037
1            ADPI    M1416 1019 S. DUNTEN ... 7750 ADAPTER                       03/04/70 1429.5 PAGE 48
                           CONSTANTS, TEMPORARIES , SWITCHES AND POINTERS

                                     ETC     O9/010,       07   3                                     TWCH0038
      03242  110165010200            ETC     O9/200        07   4                                     TWCH0039
                                     VFD     O9/107,       10   1                                     TWCH0040
                                     ETC     O9/200,       10   2                                     TWCH0041
                                     ETC     O9/007,       10   3                                     TWCH0042
      03243  107200007200            ETC     O9/200        10   4                                     TWCH0043
                                     VFD     O9/106,       11   1                                     TWCH0044
                                     ETC     O9/200,       11   2                                     TWCH0045
                                     ETC     O9/006,       11   3                                     TWCH0046
      03244  106200006200            ETC     O9/200        11   4                                     TWCH0047
                                     VFD     O9/200,       12   1                                     TWCH0048
                                     ETC     O9/200,       12   2                                     TWCH0049
                                     ETC     O9/005,       12   3                                     TWCH0050
      03245  200200005200            ETC     O9/200        12   4                                     TWCH0051
                                     VFD     O9/102,       13   1                                     TWCH0052
                                     ETC     O9/170,       13   2                                     TWCH0053
                                     ETC     O9/004,       13   3                                     TWCH0054
      03246  102170004200            ETC     O9/200        13   4                                     TWCH0055
                                     VFD     O9/130,       14   1                                     TWCH0056
                                     ETC     O9/136,       14   2                                     TWCH0057
                                     ETC     O9/003,       14   3                                     TWCH0058
      03247  130136003200            ETC     O9/200        14   4                                     TWCH0059
                                     VFD     O9/200,       15   1                                     TWCH0060
                                     ETC     O9/172,       15   2                                     TWCH0061
                                     ETC     O9/002,       15   3                                     TWCH0062
      03250  200172002200            ETC     O9/200        15   4                                     TWCH0063
                                     VFD     O9/200,       16   1                                     TWCH0064
                                     ETC     O9/305,       16   2                                     TWCH0065
                                     ETC     O9/001,       16   3                                     TWCH0066
      03251  200305001200            ETC     O9/200        16   4                                     TWCH0067
                                     VFD     O9/200,       17   1                                     TWCH0068
                                     ETC     O9/155,       17   2                                     TWCH0069
                                     ETC     O9/000,       17   3                                     TWCH0070
      03252  200155000200            ETC     O9/200        17   4                                     TWCH0071
                                     VFD     O9/124,       20   1                                     TWCH0072
                                     ETC     O9/131,       20   2                                     TWCH0073
                                     ETC     O9/061,       20   3                                     TWCH0074
      03253  124131061200            ETC     O9/200        20   4                                     TWCH0075
                                     VFD     O9/076,       21   1                                     TWCH0076
                                     ETC     O9/076,       21   2                                     TWCH0077
                                     ETC     O9/033,       21   3                                     TWCH0078
      03254  076076033200            ETC     O9/200        21   4                                     TWCH0079
                                     VFD     O9/075,       22   1                                     TWCH0080
                                     ETC     O9/075,       22   2                                     TWCH0081
                                     ETC     O9/040,       22   3                                     TWCH0082
      03255  075075040200            ETC     O9/200        22   4                                     TWCH0083
                                     VFD     O9/074,       23   1                                     TWCH0084
                                     ETC     O9/074,       23   2                                     TWCH0085
                                     ETC     O9/073,       23   3                                     TWCH0086
      03256  074074073200            ETC     O9/200        23   4                                     TWCH0087
                                     VFD     O9/073,       24   1                                     TWCH0088
                                     ETC     O9/073,       24   2                                     TWCH0089
                                     ETC     O9/020,       24   3                                     TWCH0090
      03257  073073020200            ETC     O9/200        24   4                                     TWCH0091
                                     VFD     O9/072,       25   1                                     TWCH0092
1            ADPI    M1416 1019 S. DUNTEN ... 7750 ADAPTER                       03/04/70 1429.5 PAGE 49
                           CONSTANTS, TEMPORARIES , SWITCHES AND POINTERS

                                     ETC     O9/072,       25   2                                     TWCH0093
                                     ETC     O9/054,       25   3                                     TWCH0094
      03260  072072054200            ETC     O9/200        25   4                                     TWCH0095
                                     VFD     O9/071,       26   1                                     TWCH0096
                                     ETC     O9/071,       26   2                                     TWCH0097
                                     ETC     O9/034,       26   3                                     TWCH0098
      03261  071071034200            ETC     O9/200        26   4                                     TWCH0099
                                     VFD     O9/070,       27   1                                     TWCH0100
                                     ETC     O9/070,       27   2                                     TWCH0101
                                     ETC     O9/074,       27   3                                     TWCH0102
      03262  070070074200            ETC     O9/200        27   4                                     TWCH0103
                                     VFD     O9/067,       30   1                                     TWCH0104
                                     ETC     O9/067,       30   2                                     TWCH0105
                                     ETC     O9/014,       30   3                                     TWCH0106
      03263  067067014200            ETC     O9/200        30   4                                     TWCH0107
                                     VFD     O9/066,       31   1                                     TWCH0108
                                     ETC     O9/066,       31   2                                     TWCH0109
                                     ETC     O9/120,       31   3                                     TWCH0110
      03264  066066120200            ETC     O9/200        31   4                                     TWCH0111
                                     VFD     O9/200,       32   1                                     TWCH0112
                                     ETC     O9/200,       32   2                                     TWCH0113
                                     ETC     O9/505,       32   3                                     TWCH0114
      03265  200200505200            ETC     O9/200        32   4                                     TWCH0115
                                     VFD     O9/121,       33   1                                     TWCH0116
                                     ETC     O9/200,       33   2                                     TWCH0117
                                     ETC     O9/053,       33   3                                     TWCH0118
      03266  121200053200            ETC     O9/200        33   4                                     TWCH0119
                                     VFD     O9/126,       34   1                                     TWCH0120
                                     ETC     O9/200,       34   2                                     TWCH0121
                                     ETC     O9/504,       34   3                                     TWCH0122
      03267  126200504200            ETC     O9/200        34   4                                     TWCH0123
                                     VFD     O9/105,       35   1                                     TWCH0124
                                     ETC     O9/200,       35   2                                     TWCH0125
                                     ETC     O9/137,       35   3                                     TWCH0126
      03270  105200137200            ETC     O9/200,       35   4                                     TWCH0127
                                     VFD     O9/200,       36   1                                     TWCH0128
                                     ETC     O9/206,       36   2                                     TWCH0129
                                     ETC     O9/514,       36   3                                     TWCH0130
      03271  200206514200            ETC     O9/200        36   4                                     TWCH0131
                                     VFD     O9/200,       37   1                                     TWCH0132
                                     ETC     O9/135,       37   2                                     TWCH0133
                                     ETC     O9/060,       37   3                                     TWCH0134
      03272  200135060200            ETC     O9/200        37   4                                     TWCH0135
                                     VFD     O9/122,       40   1                                     TWCH0136
                                     ETC     O9/040,       40   2                                     TWCH0137
                                     ETC     O9/200,       40   3                                     TWCH0138
      03273  122040200540            ETC     O9/540        40   4                                     TWCH0139
                                     VFD     O9/065,       41   1                                     TWCH0140
                                     ETC     O9/065,       41   2                                     TWCH0141
                                     ETC     O9/200,       41   3                                     TWCH0142
      03274  065065200500            ETC     O9/500        41   4                                     TWCH0143
                                     VFD     O9/064,       42   1                                     TWCH0144
                                     ETC     O9/064,       42   2                                     TWCH0145
                                     ETC     O9/200,       42   3                                     TWCH0146
      03275  064064200501            ETC     O9/501        42   4                                     TWCH0147
1            ADPI    M1416 1019 S. DUNTEN ... 7750 ADAPTER                       03/04/70 1429.5 PAGE 50
                           CONSTANTS, TEMPORARIES , SWITCHES AND POINTERS

                                     VFD     O9/063,       43   1                                     TWCH0148
                                     ETC     O9/063,       43   2                                     TWCH0149
                                     ETC     O9/200,       43   3                                     TWCH0150
      03276  063063200502            ETC     O9/502        43   4                                     TWCH0151
                                     VFD     O9/062,       44   1                                     TWCH0152
                                     ETC     O9/062,       44   2                                     TWCH0153
                                     ETC     O9/200,       44   3                                     TWCH0154
      03277  062062200553            ETC     O9/553        44   4                                     TWCH0155
                                     VFD     O9/061,       45   1                                     TWCH0156
                                     ETC     O9/061,       45   2                                     TWCH0157
                                     ETC     O9/200,       45   3                                     TWCH0158
      03300  061061200071            ETC     O9/071        45   4                                     TWCH0159
                                     VFD     O9/060,       46   1                                     TWCH0160
                                     ETC     O9/060,       46   2                                     TWCH0161
                                     ETC     O9/200,       46   3                                     TWCH0162
      03301  060060200070            ETC     O9/070        46   4                                     TWCH0163
                                     VFD     O9/057,       47   1                                     TWCH0164
                                     ETC     O9/057,       47   2                                     TWCH0165
                                     ETC     O9/200,       47   3                                     TWCH0166
      03302  057057200067            ETC     O9/067        47   4                                     TWCH0167
                                     VFD     O9/056,       50   1                                     TWCH0168
                                     ETC     O9/056,       50   2                                     TWCH0169
                                     ETC     O9/200,       50   3                                     TWCH0170
      03303  056056200066            ETC     O9/066        50   4                                     TWCH0171
                                     VFD     O9/055,       51   1                                     TWCH0172
                                     ETC     O9/055,       51   2                                     TWCH0173
                                     ETC     O9/200,       51   3                                     TWCH0174
      03304  055055200065            ETC     O9/065        51   4                                     TWCH0175
                                     VFD     O9/203,       52   1                                     TWCH0176
                                     ETC     O9/103,       52   2                                     TWCH0177
                                     ETC     O9/200,       52   3                                     TWCH0178
      03305  203103200064            ETC     O9/064        52   4                                     TWCH0179
                                     VFD     O9/133,       53   1                                     TWCH0180
                                     ETC     O9/044,       53   2                                     TWCH0181
                                     ETC     O9/575,       53   3                                     TWCH0182
      03306  133044575063            ETC     O9/063        53   4                                     TWCH0183
                                     VFD     O9/125,       54   1                                     TWCH0184
                                     ETC     O9/200,       54   2                                     TWCH0185
                                     ETC     O9/200,       54   3                                     TWCH0186
      03307  125200200062            ETC     O9/062        54   4                                     TWCH0187
                                     VFD     O9/201,       55   1                                     TWCH0188
                                     ETC     O9/101,       55   2                                     TWCH0189
                                     ETC     O9/517,       55   3                                     TWCH0190
      03310  201101517051            ETC     O9/051        55   4                                     TWCH0191
                                     VFD     O9/200,       56   1                                     TWCH0192
                                     ETC     O9/100,       56   2                                     TWCH0193
                                     ETC     O9/576,       56   3                                     TWCH0194
      03311  200100576050            ETC     O9/050        56   4                                     TWCH0195
                                     VFD     O9/200,       57   1                                     TWCH0196
                                     ETC     O9/200,       57   2                                     TWCH0197
                                     ETC     O9/200,       57   3                                     TWCH0198
      03312  200200200047            ETC     O9/047        57   4                                     TWCH0199
                                     VFD     O9/137,       60   1                                     TWCH0200
                                     ETC     O9/200,       60   2                                     TWCH0201
                                     ETC     O9/200,       60   3                                     TWCH0202
1            ADPI    M1416 1019 S. DUNTEN ... 7750 ADAPTER                       03/04/70 1429.5 PAGE 51
                           CONSTANTS, TEMPORARIES , SWITCHES AND POINTERS

      03313  137200200046            ETC     O9/046        60   4                                     TWCH0203
                                     VFD     O9/120,       61   1                                     TWCH0204
                                     ETC     O9/304,       61   2                                     TWCH0205
                                     ETC     O9/200,       61   3                                     TWCH0206
      03314  120304200045            ETC     O9/045        61   4                                     TWCH0207
                                     VFD     O9/054,       62   1                                     TWCH0208
                                     ETC     O9/054,       62   2                                     TWCH0209
                                     ETC     O9/055,       62   3                                     TWCH0210
      03315  054054055044            ETC     O9/044        62   4                                     TWCH0211
                                     VFD     O9/053,       63   1                                     TWCH0212
                                     ETC     O9/053,       63   2                                     TWCH0213
                                     ETC     O9/052,       63   3                                     TWCH0214
      03316  053053052043            ETC     O9/043        63   4                                     TWCH0215
                                     VFD     O9/052,       64   1                                     TWCH0216
                                     ETC     O9/052,       64   2                                     TWCH0217
                                     ETC     O9/572,       64   3                                     TWCH0218
      03317  052052572042            ETC     O9/042        64   4                                     TWCH0219
                                     VFD     O9/051,       65   1                                     TWCH0220
                                     ETC     O9/051,       65   2                                     TWCH0221
                                     ETC     O9/507,       65   3                                     TWCH0222
      03320  051051507041            ETC     O9/041        65   4                                     TWCH0223
                                     VFD     O9/050,       66   1                                     TWCH0224
                                     ETC     O9/050,       66   2                                     TWCH0225
                                     ETC     O9/072,       66   3                                     TWCH0226
      03321  050050072031            ETC     O9/031        66   4                                     TWCH0227
                                     VFD     O9/047,       67   1                                     TWCH0228
                                     ETC     O9/047,       67   2                                     TWCH0229
                                     ETC     O9/200,       67   3                                     TWCH0230
      03322  047047200030            ETC     O9/030        67   4                                     TWCH0231
                                     VFD     O9/046,       70   1                                     TWCH0232
                                     ETC     O9/046,       70   2                                     TWCH0233
                                     ETC     O9/513,       70   3                                     TWCH0234
      03323  046046513027            ETC     O9/027        70   4                                     TWCH0235
                                     VFD     O9/045,       71   1                                     TWCH0236
                                     ETC     O9/045,       71   2                                     TWCH0237
                                     ETC     O9/200,       71   3                                     TWCH0238
      03324  045045200026            ETC     O9/026        71   4                                     TWCH0239
                                     VFD     O9/202,       72   1                                     TWCH0240
                                     ETC     O9/164,       72   2                                     TWCH0241
                                     ETC     O9/515,       72   3                                     TWCH0242
      03325  202164515025            ETC     O9/025        72   4                                     TWCH0243
                                     VFD     O9/123,       73   1                                     TWCH0244
                                     ETC     O9/200,       73   2                                     TWCH0245
                                     ETC     O9/200,       73   3                                     TWCH0246
      03326  123200200024            ETC     O9/024        73   4                                     TWCH0247
                                     VFD     O9/127,       74   1                                     TWCH0248
                                     ETC     O9/200,       74   2                                     TWCH0249
                                     ETC     O9/200,       74   3                                     TWCH0250
      03327  127200200023            ETC     O9/023        74   4                                     TWCH0251
                                     VFD     O9/200,       75   1                                     TWCH0252
                                     ETC     O9/153,       75   2                                     TWCH0253
                                     ETC     O9/200,       75   3                                     TWCH0254
      03330  200153200022            ETC     O9/022        75   4                                     TWCH0255
                                     VFD     O9/200,       76   1                                     TWCH0256
                                     ETC     O9/156,       76   2                                     TWCH0257
1            ADPI    M1416 1019 S. DUNTEN ... 7750 ADAPTER                       03/04/70 1429.5 PAGE 52
                           CONSTANTS, TEMPORARIES , SWITCHES AND POINTERS

                                     ETC     O9/200,       76   3                                     TWCH0258
      03331  200156200021            ETC     O9/021        76   4                                     TWCH0259
                                     VFD     O9/200,       77   1                                     TWCH0260
                                     ETC     O9/002,       77   2                                     TWCH0261
                                     ETC     O9/200,       77   3                                     TWCH0262
      03332  200002200506            ETC     O9/506        77   4                                     TWCH0263
                       03332  DLTWX  SYN     *-1                                                      TWCH0264
      03333                          DAC     345,353,0     CR                                         TWCH0265
      03334                          DAC     107,3777,1    TAB                                        TWCH0266
      03335                          DAC     347,3777,54   FORM                                       TWCH0267
      03336                          DAC     3777,24,0     200 MS SPACE                               TWCH0268
      03337                          DAC     3777,1000,0   4 SEC SPACE                                TWCH0269
      03340                          DAC     345,3777,13   CR NO LF                                   TWCH0270
                              *                                                                       TWCH0271
                       03340  DLS35  SYN     *-1                                                      TWCH0272
      03341                          DAC     345,3777,0    CR                                         TWCH0273
      03342                          DAC     355,3777,22   TAB (CHANGE 22 TO 0 WHEN '35 TABS FIXED)   TWCH0274
      03343                          DAC     347,3777,54   FORM                                       TWCH0275
      03344                          DAC     3777,24,0     200MS SPACE                                TWCH0276
      03345                          DAC     3777,1000,0   4 SEC SPACE                                TWCH0277
      03346                          DAC     345,3777,13                                              TWCH0278
1            ADPI    M1416 1019 S. DUNTEN ... 7750 ADAPTER                       03/04/70 1429.5 PAGE 53
                           CONSTANTS, TEMPORARIES , SWITCHES AND POINTERS

      03347  0 00000 0 00000                                                                          TWCH0280
                       03350  TWCNT  SYN     *                                                        TWCH0281
      03350 +000000000000            OCT     00000000      000                                        TWCH0282
      03351 +000000000000            OCT     00000000      010                                        TWCH0283
      03352 +000000000000            OCT     00000000      020                                        TWCH0284
      03353 +000000000000            OCT     00000000      030                                        TWCH0285
      03354 +000011111111            OCT     11111111      040                                        TWCH0286
      03355 +000011111111            OCT     11111111      050                                        TWCH0287
      03356 +000011111111            OCT     11111111      060                                        TWCH0288
      03357 +000011111111            OCT     11111111      070                                        TWCH0289
      03360 +000011111111            OCT     11111111      100                                        TWCH0290
      03361 +000011111111            OCT     11111111      110                                        TWCH0291
      03362 +000011111111            OCT     11111111      120                                        TWCH0292
      03363 +000011111111            OCT     11111111      130                                        TWCH0293
      03364 +000000000000            OCT     00000000      140                                        TWCH0294
      03365 +000000000000            OCT     00000000      150                                        TWCH0295
      03366 +000000400030            OCT     00400030      160                                        TWCH0296
      03367 +000000000000            OCT     00000000      170                                        TWCH0297
                                     END                                                              ADPI1355

        LITERALS
      03370  000000000024
      03371  000000000025
      03372  000000000037
      03373  000000000055
      03374  000000000077
      03375  000000000100
      03376  000000000177
      03377  000000000777
      03400  000000001777
      03401  000000002001
      03402  000000003777
      03403  000000010000
      03404  000017000000
      03405  000077007700
      03406  000100000000
      03407  005200570057
      03410  005700570072
      03411  005700570136
      03412  007777777700
      03413  040000000000
      03414  050000000000
      03415  100000000000
      03416  110000000000
      03417  177000000000
      03420  377000000000
      03421  770000000000
1            ADPI    M1416 1019 S. DUNTEN ... 7750 ADAPTER                       03/04/70 1429.5 PAGE 1
                        POST PROCESSOR ASSEMBLY DATA

       72127 IS THE LAST LOCATION NOT USED BY THIS PROGRAM
       3422 IS THE FIRST LOCATION NOT USED BY THIS PROGRAM

0REFERENCES TO DEFINED SYMBOLS
         50      N  2310, 2360
          3     NH    13,  131
          4     NN   576,  577,  600,  601,  602,  603,  604,  605,  606
      74671     Q0   222, 1037, 1105, 1434, 1474, 1715, 1746
      74670     Q1    50,   53,   75,  211,  333,  542,  553, 1122, 1214, 1245, 1551, 1573
      74667     Q2  1130
      74666     Q3   227,  643, 1044, 1112
      74664     Q5   545
      74662     Q7   236,  710, 1021, 1053, 1121, 1174, 1317, 1373, 1420, 1511
       1774    A12  1767
        647    ERW   641
       2733    ETX  1430
          6    NCC   366,  375
        321    NCV   167
        651    OKW   644,  646
       1453    PAR   700, 1432
       1575    PIA  1565
      74657    Q10  2012, 2014, 2017, 2021
       2732    STX  1547
        642    XRW   636,  647
         74   BDCH    71,  116
        367   CCTV   367,  370,  375
        452   COMP   362
       2677   DL37  2223, 2700
       1304   FILL  1163, 1200, 1247, 1332, 1333
       2117   FULL   662, 1226, 1451, 1455, 1460
       1667   GET4  1614, 1617, 1667
        550   GTST   523,  555
         13   INCC     0,  332,  334
       2116   INFO   661, 1225, 1433, 1447
       2120   INMQ   727,  736, 1136, 1145, 1671, 1700
       1617   LINE  1603
         11   NDIV   161,  723, 2140
         14   NFCN   505,  506,  510,  622
        215   NPAR   172,  175
         14   OTCC     0,  455,  456
       2150   PTAB   234, 1051, 1117, 2151
        626   RDBS   114,  132,  140,  375,  460
       2126   RPAR   171,  205, 2127, 2140
       2307   SHFT   220,  275,  353,  357,  401,  450,  763, 1035, 1356, 1360, 1402, 1405, 2310
       1726   SVX2  1724
       2137   TABL   266,  750, 1076, 2140
        625   TCNT    45,   55
        632   TEMP   307,  312,  316
      74502   USER  2030
       2172   WPAR   771, 1001, 1005, 2173
       1072  ADDCR   743
          5  BS2US   141
        623  BTCNT     0,   47,   51
        442  CCSTO
1            ADPI    M1416 1019 S. DUNTEN ... 7750 ADAPTER                       03/04/70 1429.5 PAGE 2
                        POST PROCESSOR ASSEMBLY DATA

       2060  CHCKL   663, 1025, 1713, 1731
       2247  CRATE  1241, 1276, 2250
       3340  DLS35  2215, 2222, 3341
       3207  DLTLX  2217, 3210
       3332  DLTWX  2220, 2221, 3333
       1031  DOPOS  1327
        404  ENDID   371
        562  ENTST   551
       2122  EXDLY  1157, 1244, 1302, 1305
         52  FFCHR    13,  612
       2056  FORCE   676,  677, 1216, 1531, 1532
       2730  GLICH  1222, 1233
        635  INBUF    24,   26,   30,   36,   40,   41,   62,   64,   65,  103,  105,  106,  123,  125,  126
       1732  INCX4  1714
       2070  INFOM  1775, 2040, 2114
       2104  LINLT  1537, 2016, 2022, 2104
       2111  LMARG  1662
       2114  LOCAL   516,  522, 1334
        440  NCVCC   372,  373,  374,  421
       1236  NOSCO  1205, 1211, 1231
        322  NOTID   305
       2121  OUTMQ   711, 1012, 1023, 1165, 1176, 1310, 1321, 1364, 1375, 1411, 1422, 1435, 1502, 1513
        624  PARER     0,  210,  212
      74322  PBUFF  2041, 2044, 2046, 2051
       1773  POSII  1757
       2357  POSIT   241,  260,  346,  405,  524,  526,  713,  741, 1055, 1070, 1236, 1237, 1246, 1250, 1257, 1463, 1500
                    1574, 2360
       2203  QSHFT   447, 2204
        466  RDIR1    16
        467  RDIR2    17
        470  RDIR3    20
        471  RDIR4    15
        631  RDMMQ    31,   33,   43,   57,   67,  100,  110,  120,  130
        254  RDPON   250,  251,  350
        261  RDPUD   244,  246
        336  RDTAB   252
        351  RDTC2   302
        275  RDTPA   271
      74645  RMASK   502
        420  SCDED   411,  437
       2737  SLINE  1641
       3070  T2CNT  2152, 2160, 3070
       2741  TACNT  2157, 2161, 2741
          2  TGIVE   457
       3350  TWCNT  2151, 2154, 2155, 2156, 3350
       3213  TXCNT  2153, 3213
        570  UNOUT   263,  556
       2236  UPSFT  1403, 2237
          4  US2BS   475,  640,  667, 1753, 2031
       1225  WAITR  1533
       1064  WRPON  1062, 1063
       1442  WRRET   670,  722,  723, 1227, 1442, 1501
       1250  WRTAB  1203
        767  WRTN3   761,  767, 1151, 1401, 1425, 1562, 1576, 1725
       1150  WRTN5   755
1            ADPI    M1416 1019 S. DUNTEN ... 7750 ADAPTER                       03/04/70 1429.5 PAGE 3
                        POST PROCESSOR ASSEMBLY DATA

       1310  WRTN8  1323
       1400  WRTZR   764
       1127 ADDCR1  1104
       1124 ADDCR.  1131
        422 ARDFIX   416
         10 ASHUNI   427
          6 ASNUNI   376
        330 BACKIT   512,  533,  540,  544
        622 BDCHAR     0,   74,   76
       2731 BLANCK  1267
          3 BPOINT  1242, 1300, 2250
        614 CARSCP
        332 CCCHAR   566
       2734 CHARNS  1570, 1664
       1331 CHCKFF  1201
       1551 CHECKC
       2065 CHRMOD  1206, 1272, 1564, 1566
       2574 COORCT   503,  546,  552,  554
         55 CRGRET    13,  614
        536 CRNOLF    13,  620
       1342 DELAIT  1343
       1340 DELAYT  1335
       2214 DELDCH  1304, 2215
        633 DEVICE   160,  204,  261,  444
        375 DIALUP   137,  370
       3060 DL2741  2216, 2224, 3061
       2713 DLARDS  2225, 2714
       2062 DSCOPF   674, 1210, 1522, 1524, 1553, 1561, 1600, 1735
       2225 DWNSFT  1361, 1406, 2226
          7 ENTCHR   565
        612 ERASCP
       2716 ERASIN  1336
       1671 GETONE  1704
       2026 GETPRM     0
       2052 GETXR2  2027, 2032
       2053 GETXR4  2026
        606 GIPSC1
        610 GIPSC2
         10 GPHBIT   563
         32 GRAPH1    13,  606
         36 GRAPH2    13,  610
        545 GRINIT   607,  611
        552 GRINPT   504
       1544 IDSCOP  1541
       1710 INCOR2  1647
       1712 INCORD  1615, 1663
       2070 LINCNT   541,  543, 1213, 1215, 1345, 1535, 1654, 1740, 2114
       2276 LINLTH   742, 1240, 1540, 2277
       2066 LINMOD  1624, 1626
       2110 LINSPC  1655, 2047
       2736 LLINNS  1630
       1715 LOOPCH  1730
       2074 MAXLIN  1230, 2011, 2015
       1263 MAXTAB  1251
       1561 MDCHCK   757
1            ADPI    M1416 1019 S. DUNTEN ... 7750 ADAPTER                       03/04/70 1429.5 PAGE 4
                        POST PROCESSOR ASSEMBLY DATA

          2 NCVBIT   166
        400 NINTBT  1530
         76 NLINES    13,  116
       1614 NOCHG1  1607, 1633
       1632 NOCHG2  1625
       1643 NOCHG3  1636
       2011 NOPPAG  2003
        572 NORMBF   432, 1350
       1275 NOSCO2  1265
       2112 NOSEND  1536, 1737
        154 NOTDEV   146
       1230 NOTFUL  1220
       1201 NOTSPC  1161
       1010 NOWPAR   772
          4 NPARAM  1746, 1763, 1764, 2026
          4 NSCOPE  1502, 1772, 1775, 1776, 2036, 2040, 2043, 2070, 2074, 2100, 2104, 2564, 2570, 2574
       1132 NSRTCH   726, 1123
         16 NTABST   337,  340,  343, 1252, 1253, 1256, 1261, 2277
       1535 NTTFUL  1526
          5 NUMGET  1772, 1775, 2026, 2035, 2036, 2040, 2041
        571 NXXTAB   347,  525
       2570 OLCALL   547, 1543, 1544, 1555, 1557, 1742, 2001
       2061 OLMODE  1207, 1273, 1552, 1563, 1567, 1605, 1611, 1623, 1627, 1634, 1640
       1557 ONWARD
       2430 OUTBF1  1453, 2125
       2125 OUTPTR   707, 1017, 1172, 1315, 1371, 1416, 1441, 1507
        134 OUTSIZ    13, 2125, 2430
       1577 OWNSCP  1156
        466 RDEND.    37,   63,   73,  104,  124
          3 RDHIGH   133
         77 RDIGOR
         15 RDTELY     0
        361 RDTTCC   164
        112 RDTTYP    72
         56 RDUNIT   111,  134,  142,  153,  161,  213,  320,  335,  354,  356,  360,  366,  377,  403,  446,  451,  462
                     465,  476,  564
        627 RDUSER   144,  240,  257,  267,  322,  345,  363,  442,  463,  514,  561
       1741 RESMOD  1736
        513 RESTRT   613
        620 RETSCP
        444 RRESET
        463 RSTART
       2124 SAVCHR   664,  725, 1073, 1124, 1132, 1133
       1734 SCBFUL  1465
         11 SCHEDL
       1516 SCOCAL   724
       2057 SCOFLG   665,  756, 1162, 1204, 1264, 1331, 1426, 1464, 1546, 1577, 1751, 1771, 2002
       2564 SCOFUL   513, 1217, 1232, 1525, 1534
        473 SCOPEC   327
        541 SCPCAR   615
        606 SCPFCN   506,  510,  606,  622
        534 SCPRET   621
        524 SCPTAB   617
       2055 SCUSER  1212, 1344, 1521, 1542, 1602, 1653, 1734, 1756, 2000
       2735 SETINS  1612, 1651
1            ADPI    M1416 1019 S. DUNTEN ... 7750 ADAPTER                       03/04/70 1429.5 PAGE 5
                        POST PROCESSOR ASSEMBLY DATA

       2064 SETMOD  1606, 1610
       1605 SETPNT
       1746 SETPRM     0,  431
       2023 SETXR2  1750, 1754
       2024 SETXR4  1747, 1760
       2161 SHIFTR   215,  270,  445,  760, 1032, 1353, 2162
       1634 SHORTL  1622
       2067 SLNMOD  1635, 1637
         10 SNUNIT   413,  414,  424,  606
       1267 SPACIT  1271
        576 SPEUNT   414,  424,  606
       2123 SPOSIT   714, 1462
       1651 STASET  1352, 1560
       2761 T2CHAR  2141, 2147, 2761
         72 TABCHR    13,  616
        616 TABSCP
       2261 TABSET   340,  343, 1253, 1256, 1261, 2261, 2262, 2263, 2264, 2265, 2266, 2267, 2270, 2271, 2272, 2273, 2274
                    2275, 2276, 2277
       2600 TACHAR     0, 2146, 2150, 2600
        634 TCOUNT   454,  461
       2113 TEMPOS  1667, 1701, 1703, 1706, 1720, 1727
       1502 TOLINN  1234, 1270, 1337, 1342, 1431, 1550, 1571, 1613, 1631, 1642, 1652, 1665
        630 TOMUNI   425,  426,  433
          0 TOPOOL   331,  443,  464,  515
       2100 TOPPAG  1346, 1657, 2004, 2010, 2100
        567 TTEEMM   501,  532,  537,  550
       3233 TWCHAR  2140, 2143, 2144, 2145, 3233
       3110 TXCHAR     0, 2142, 3110
      75646 UNITID   145,  152,  154,  173,  303,  310,  313,  317,  324,  402,  404,  406,  412,  423,  716
       2115 UNITNO   671, 1223, 1454, 1471, 1475, 1517
      75770 USROPT  1527
      75524 USWICH   165,  562
       2063 VOCALL  1545, 1741
       1353 WRDONE   731, 1140, 1673
       1467 WRESET   675
         12 WRHIGH   645
       2126 WRINPT   703,  732, 1141, 1674
        636 WRTELY     0,  434,  517,  527,  534
        725 WRTN50  1056, 1060, 1071, 1155, 1274, 1330, 1351, 1556, 1601, 1666
        745 WRTN51  1126, 1135, 1147
       1136 WRTN54  1554, 1604, 1616, 1650
       1405 WRTSFT   766
       1432 WRTTN2  1020, 1173, 1316, 1372, 1417, 1427, 1510
       1426 WRTTND  1354, 1357, 1377
       1442 WRTTX1   652,  712,  740,  762, 1031, 1067, 1202, 1355, 1477, 1516, 1572
       1456 WRTTX2   653, 1450, 1744
       1443 WRTTX3   655
       1457 WRTTX4   654,  672, 1743
       1444 WRTTX5   656
       1445 WRTTX6   657
       1446 WRTTX7   660
       1542 WSCOPE  1523
          1 WT7750  1221, 1452, 1467, 1473
1            ADPI    M1416 1019 S. DUNTEN ... 7750 ADAPTER                       03/04/70 1429.5 PAGE 6
                        POST PROCESSOR ASSEMBLY DATA

0 NO ERROR IN ABOVE ASSEMBLY.


HIGH8A   BCD 03/04/70 1439.3    3927         00000
