1            HIGH SPEED LINE ADAPTER                                             03/04/70 1430.5 PAGE 1

                       00006         ENTRY   RDHIGH                                                   HIGH0002
                       00114         ENTRY   WRHIGH                                                   HIGH0003
                                     EXTERN  WT7750,TGIVE,TOPOOL,US2BS,BS2US,ASNUNI                   HIGH0004
                              *      CAL     CHAR                                                     HIGH0006
                              *      LDQ     BS                                                       HIGH0007
                              *      TSX     RDHIGH,4                                                 HIGH0008
                              *                                                                       HIGH0009
                              *      TSX     WRHIGH,4                                                 HIGH0010
                              *              FIRST,,NWORDS 57 NOT IGNORED                             HIGH0011
                              *      FULL RETURN                                                      HIGH0012
                              *      ENTERED RETURN                                                   HIGH0013
                              *              JUST LIKE ANY OTHER ADAPTER                              HIGH0014
                              *                                                                       HIGH0015
                                     UNLIST                                                           HIGH0016

                       00012  NBUF   SYN     10                                                       HIGH0021
      00006  0634 00 4 00110  RDHIGH SXA     XRR,4                                                    HIGH0022
      00007  0634 00 1 00111         SXA     XRR+1,1                                                  HIGH0023
      00010  0634 00 2 00112         SXA     XRR+2,2                                                  HIGH0024
      00011  0044 00 0 00000         PAI                                                              HIGH0025
      00012 -0600 00 0 00225         STQ     BS                                                       HIGH0026
      00013  0056 00  003000         RNT     3000          TEST FOR COMPLETEION                       HIGH0027
      00014  0020 00 0 00032         TRA     NOTCMP                                                   HIGH0028
      00015 -0320 00 0 00255         ANA     =O777         STRIP OFF CONTROL BITS                     HIGH0029
      00016  0601 00 0 00226         STO     COUNT                                                    HIGH0030
      00017  0074 00 4 00001         TSX     TGIVE,4       RETURN THE STORAGE                         HIGH0031
      00020  3 00000 0 00225         TXH     BS,0,0                                                   HIGH0032
      00021  3 00000 0 00226         TXH     COUNT,0,0                                                HIGH0033
      00022  0100 00 0 00110         TZE     XRR           NORMAL RETURN                              HIGH0034
      00023  0500 00 0 00225         CLA     BS            GET USER NUMBER                            HIGH0035
      00024  0074 00 4 00004         TSX     BS2US,4                                                  HIGH0036
      00025  0020 00 0 00110         TRA     XRR           ERROR, IGNORE                              HIGH0037
      00026  0767 00 0 00022         ALS     18            USER NUMBER TO DEC                         HIGH0038
      00027 -0760 00 0 00003         SSM                   SEND COMPLETION TO TCOORD                  HIGH0039
      00030  0074 00 4 00002         TSX     TOPOOL,4                                                 HIGH0040
      00031  0020 00 0 00110         TRA     XRR                                                      HIGH0041
      00032  0535 00 4 00225  NOTCMP LAC     BS,4                                                     HIGH0042
      00033 -3 00000 4 00035         TXL     *+2,4,0                                                  HIGH0043
      00034 -3 77774 4 00034         TXL     *,4,-4                                                   HIGH0044
      00035  0500 00 4 00230         CLA     CNTS,4        IF COUNT IS ZERO THIS IS A COUNT           HIGH0045
      00036 -0100 00 0 00044         TNZ     NOTCNT                                                   HIGH0046
      00037 -0046 00 0 00000         PIA                   GET CHAR                                   HIGH0047
      00040 -0320 00 0 00254         ANA     =O77          SIX BITS IS ENOUGH                         HIGH0048
      00041 -0760 00 0 00003         SSM                                                              HIGH0049
      00042  0601 00 4 00230         STO     CNTS,4        MINUS MEANS LOGICAL UNIT TO FOLLOW         HIGH0050
      00043  0020 00 0 00110         TRA     XRR                                                      HIGH0051
      00044  0120 00 0 00056  NOTCNT TPL     NOTUNT        TEST FOR UNIT                              HIGH0052
      00045 -0046 00 0 00000         PIA                                                              HIGH0053
      00046  0601 00 4 00234         STO     UNIT,4        SAVE IT                                    HIGH0054
      00047  0500 00 4 00230         CLA     CNTS,4        DROP COUNT BY 2                            HIGH0055
      00050  0760 00 0 00003         SSP                                                              HIGH0056
      00051  0402 00 0 74667         SUB     Q2                                                       HIGH0057
      00052  0120 00 0 00054         TPL     *+2                                                      HIGH0058
      00053 -0754 00 0 00000         ZAC                   BAD COUNT                                  HIGH0059
      00054  0601 00 4 00230         STO     CNTS,4                                                   HIGH0060
      00055  0020 00 0 00110         TRA     XRR                                                      HIGH0061
1            HIGH SPEED LINE ADAPTER                                             03/04/70 1430.5 PAGE 2

      00056 -0500 00 0 00225  NOTUNT CAL     BS            GET USER NUMBER                            HIGH0062
      00057  0074 00 4 00004         TSX     BS2US,4                                                  HIGH0063
      00060  0020 00 0 00062         TRA     ASN                                                      HIGH0064
      00061  0020 00 0 00065         TRA     CTOPOL                                                   HIGH0065
      00062 -0500 00 0 00225  ASN    CAL     BS            HERE IF USER NUMBER NOT ASSIGNED           HIGH0066
      00063  0074 00 4 00005         TSX     ASNUNI,4                                                 HIGH0067
      00064  0020 00 0 00104         TRA     NOROOM        NO USER NUMBER LEFT                        HIGH0068
      00065  0737 00 1 00000  CTOPOL PAC     ,1                                                       HIGH0069
      00066  0056 00  000017         RNT     17            INT, QUIT, HANG = 17, 57, 77               HIGH0070
      00067  0020 00 0 00075         TRA     CTOPL1                                                   HIGH0071
      00070 -0046 00 0 00000         PIA                   GET CHAR                                   HIGH0072
      00071  0771 00 0 00004         ARS     4                                                        HIGH0073
      00072  0734 00 4 00000         PAX     ,4                                                       HIGH0074
      00073  3 00003 4 00075         TXH     CTOPL1,4,3                                               HIGH0075
      00074  0441 00 4 00224         LDI     CTL,4         PICK UP CTL CODE                           HIGH0076
      00075 -0756 00 1 00000  CTOPL1 PCD     ,1                                                       HIGH0077
      00076  0043 00 0 00000         OAI                                                              HIGH0078
      00077 -0046 00 0 00000         PIA                                                              HIGH0079
      00100  0074 00 4 00002         TSX     TOPOOL,4      SEND TO TCOORD                             HIGH0080
      00101 -0500 00 0 00225         CAL     BS            SET UNITID TO BS+1                         HIGH0081
      00102  0361 00 0 74670         ACL     Q1                                                       HIGH0082
      00103  0602 00 1 75646         SLW     UNITID,1                                                 HIGH0083
      00104  0535 00 4 00225  NOROOM LAC     BS,4          DROP COUNT                                 HIGH0084
      00105 -0500 00 4 00230         CAL     CNTS,4                                                   HIGH0085
      00106  0402 00 0 74670         SUB     Q1                                                       HIGH0086
      00107  0602 00 4 00230         SLW     CNTS,4                                                   HIGH0087
      00110  0774 00 4 00000  XRR    AXT     ,4                                                       HIGH0088
      00111  0774 00 1 00000         AXT     ,1                                                       HIGH0089
      00112  0774 00 2 00000         AXT     ,2                                                       HIGH0090
      00113  0020 00 4 00001         TRA     1,4                                                      HIGH0091
                              *                                                                       HIGH0092
      00114  0634 00 4 00206  WRHIGH SXA     XRW,4         SAVE XRS                                   HIGH0093
      00115  0634 00 1 00207         SXA     XRW+1,1                                                  HIGH0094
      00116  0634 00 2 00210         SXA     XRW+2,2                                                  HIGH0095
      00117  0756 00 1 00000         PCA     ,1                                                       HIGH0096
      00120  0074 00 4 00003         TSX     US2BS,4                                                  HIGH0097
      00121  0020 00 0 00206         TRA     XRW                                                      HIGH0098
      00122  0621 00 0 00240         STA     WBS                                                      HIGH0099
      00123  0534 00 4 00206         LXA     XRW,4         RESTOR XR4                                 HIGH0100
      00124 -0500 00 4 00001         CAL     1,4                                                      HIGH0101
      00125  0100 00 0 00214         TZE     WRESET        ZERO PAR                                   HIGH0102
      00126 -0734 00 1 00000         PDX     ,1            IN WORD COUNT                              HIGH0103
      00127  0771 00 0 00022         ARS     18            GET BES                                    HIGH0104
      00130  0361 00 4 00001         ACL     1,4                                                      HIGH0105
      00131  0621 00 0 00147         STA     A1                                                       HIGH0106
      00132 -3 00000 1 00206         TXL     XRW,1,0                                                  HIGH0107
      00133  0754 00 1 00000         PXA     ,1                                                       HIGH0108
      00134  0131 00 0 00000         XCA                                                              HIGH0109
      00135  0200 00 0 74666         MPY     Q3                                                       HIGH0110
      00136 -0600 00 0 00241         STQ     WCNT          STORE CHAR COUNT                           HIGH0111
      00137  1 00001 1 00140         TXI     *+1,1,1                                                  HIGH0112
      00140  0774 00 2 00000         AXT     0,2                                                      HIGH0113
      00141 -0500 00 0 00256  WRL    CAL     =O70001       ADD OVERFLOW AND UNIT NO                   HIGH0114
      00142  0560 00 0 00227         LDQ     WRMQ          RESTOR MQ                                  HIGH0115
      00143  0774 00 4 00012         AXT     NBUF,4                                                   HIGH0116
      00144  0140 00 0 00144         TOV     *                                                        HIGH0117
1            HIGH SPEED LINE ADAPTER                                             03/04/70 1430.5 PAGE 3

      00145  2 00001 2 00151  LOOP   TIX     *+4,2,1                                                  HIGH0118
      00146 -2 00001 1 00201         TNX     OUT,1,1                                                  HIGH0119
      00147  0560 00 1 00000  A1     LDQ     **,1                                                     HIGH0120
      00150  0774 00 2 00003         AXT     3,2                                                      HIGH0121
      00151 -0773 00 0 00006         RQL     6                                                        HIGH0122
      00152 -0763 00 0 00006         LGL     6                                                        HIGH0123
      00153 -0140 00 0 00145         TNO     LOOP                                                     HIGH0124
      00154  0602 00 4 00254         SLW     BUF+NBUF,4                                               HIGH0125
      00155 -0500 00 0 74662         CAL     Q7                                                       HIGH0126
      00156  2 00001 4 00145         TIX     LOOP,4,1                                                 HIGH0127
      00157  0774 00 4 00074         AXT     6*NBUF,4                                                 HIGH0128
      00160 -0600 00 0 00227  WT     STQ     WRMQ                                                     HIGH0129
      00161 -0634 00 4 00173         SXD     PAR,4                                                    HIGH0130
      00162 -0754 00 4 00000         PXD     ,4                                                       HIGH0131
      00163  0767 00 0 00014         ALS     2*6                                                      HIGH0132
      00164 -0602 00 0 00242         ORS     BUF                                                      HIGH0133
      00165  0754 00 4 00000         PXA     ,4                                                       HIGH0134
      00166  0402 00 0 74667         SUB     Q2                                                       HIGH0135
      00167 -0760 00 0 00003         SSM                                                              HIGH0136
      00170  0400 00 0 00241         ADD     WCNT                                                     HIGH0137
      00171  0602 00 0 00241         SLW     WCNT                                                     HIGH0138
      00172  0074 00 4 00000         TSX     WT7750,4                                                 HIGH0139
      00173 -0 00000 0 00242  PAR    MZE     BUF,,**                                                  HIGH0140
      00174  0 00000 0 00240         PZE     WBS                                                      HIGH0141
      00175  0020 00 0 00212         TRA     FULL                                                     HIGH0142
      00176  0520 00 0 00241         ZET     WCNT                                                     HIGH0143
      00177  0020 00 0 00141         TRA     WRL                                                      HIGH0144
      00200  0020 00 0 00206         TRA     XRW                                                      HIGH0145
      00201  0767 00 0 00006  OUT    ALS     6                                                        HIGH0146
      00202 -0140 00 0 00201         TNO     *-1                                                      HIGH0147
      00203  0602 00 4 00254         SLW     BUF+NBUF,4                                               HIGH0148
      00204  0534 00 4 00241         LXA     WCNT,4                                                   HIGH0149
      00205  1 00002 4 00160         TXI     WT,4,2                                                   HIGH0150
      00206  0774 00 4 00000  XRW    AXT     ,4                                                       HIGH0151
      00207  0774 00 1 00000         AXT     ,1                                                       HIGH0152
      00210  0774 00 2 00000         AXT     ,2                                                       HIGH0153
      00211  0020 00 4 00003         TRA     3,4                                                      HIGH0154
                              *                                                                       HIGH0155
      00212  0534 00 4 00206  FULL   LXA     XRW,4                                                    HIGH0156
      00213  1 00001 4 00207         TXI     XRW+1,4,1                                                HIGH0157
                              *                                                                       HIGH0158
      00214  0074 00 4 00000  WRESET TSX     WT7750,4                                                 HIGH0159
      00215  0 00000 0 00000         PZE                                                              HIGH0160
      00216  0 00000 0 00240         PZE     WBS                                                      HIGH0161
      00217  0761 00 0 00000         NOP                                                              HIGH0162
      00220  0020 00 0 00206         TRA     XRW                                                      HIGH0163
                              *                                                                       HIGH0164
      00221 +000000002005            OCT     2005          77                                         HIGH0165
      00222 +000000002004            OCT     2004          57                                         HIGH0166
      00223 +000000000037            OCT     37            37                                         HIGH0167
      00224 +000000002003     CTL    OCT     2003          17                                         HIGH0168
                              *                                                                       HIGH0169
      00225  0 00000 0 00000  BS                                                                      HIGH0170
      00226  0 00000 0 00000  COUNT                                                                   HIGH0171
      00227  0 00000 0 00000  WRMQ                                                                    HIGH0172
                       00230         DUP     1,4                                                      HIGH0173
1            HIGH SPEED LINE ADAPTER                                             03/04/70 1430.5 PAGE 4

      00230  0 00000 0 00000  CNTS   PZE                                                              HIGH0174
      00231  0 00000 0 00000
      00232  0 00000 0 00000
      00233  0 00000 0 00000
      00234                   UNIT   BSS     4                                                        HIGH0175
      00240  0 00000 0 00000  WBS                                                                     HIGH0176
      00241  0 00000 0 00000  WCNT                                                                    HIGH0177
      00242                   BUF    BSS     NBUF                                                     HIGH0178
                                     END                                                              HIGH0179

        LITERALS
      00254  000000000077
      00255  000000000777
      00256  000000070001
1            HIGH SPEED LINE ADAPTER                                             03/04/70 1430.5 PAGE 1
                        POST PROCESSOR ASSEMBLY DATA

       72127 IS THE LAST LOCATION NOT USED BY THIS PROGRAM
        257 IS THE FIRST LOCATION NOT USED BY THIS PROGRAM

0REFERENCES TO DEFINED SYMBOLS
        147     A1   131
        225     BS    12,   20,   23,   32,   56,   62,  101,  104
      74670     Q1   102,  106
      74667     Q2    51,  166
      74666     Q3   135
      74662     Q7   155
        160     WT   205
         62    ASN    60
        242    BUF   154,  164,  173,  203
        224    CTL    74
        201    OUT   146
        173    PAR   161
        240    WBS   122,  174,  216
        141    WRL   177
        110    XRR     6,    7,   10,   22,   25,   31,   43,   55
        206    XRW   114,  115,  116,  121,  123,  132,  200,  212,  213,  220
        230   CNTS    35,   42,   47,   54,  105,  107
        212   FULL   175
        145   LOOP   153,  156
         12   NBUF     6,  143,  154,  157,  203,  242
        234   UNIT    46
        241   WCNT   136,  170,  171,  176,  204
        227   WRMQ   142,  160
          4  BS2US    24,   57
        226  COUNT    16,   21
          1  TGIVE    17
          3  US2BS   120
          5 ASNUNI    63
         75 CTOPL1    67,   73
         65 CTOPOL    61
        104 NOROOM    64
         32 NOTCMP    14
         44 NOTCNT    36
         56 NOTUNT    44
          6 RDHIGH     0
          2 TOPOOL    30,  100
      75646 UNITID   103
        214 WRESET   125
        114 WRHIGH     0
          0 WT7750   172,  214

0 NO ERROR IN ABOVE ASSEMBLY.


WRHI8A   BCD 03/04/70 1439.3    1341         00000
1            SUPER ENTRY TO ALLOW USER TO WRITE HIS LINE IN BINARY               03/04/70 1430.9 PAGE 1

                              *        OR TO WRITE HIGH SPEED LINE 2 (OR 3) WITH SIX-BIT DATA         WRHI0002
                              *      TSX     WRHI,4                                                   WRHI0003
                              *      PZE     FIRST,,NWORDS                                            WRHI0004
                              *      FULL RETURN                                                      WRHI0005
                              *      ENTERED RETURN                                                   WRHI0006
                              *                                                                       WRHI0007
                       00002         ENTRY   WRHI                                                     WRHI0008
                                     EXTERN  US2BS,WT7750                                             WRHI0009
                                     UNLIST                                                           WRHI0011

                              *                                                                       WRHI0016
      00002  0634 00 4 00035  WRHI   SXA     XR,4                                                     WRHI0017
      00003  0564 00 0 74671         ENB     Q0                                                       WRHI0018
      00004 -0500 00 4 00001         CAL     1,4                                                      WRHI0019
      00005  0622 00 0 00054         STD     WC                                                       WRHI0020
      00006  0361 00 0 74656         ACL     Q11                                                      WRHI0021
      00007  0621 00 0 00016         STA     CAL                                                      WRHI0022
      00010 -0500 00 0 74502         CAL     USER                                                     WRHI0023
      00011  0074 00 4 00000         TSX     US2BS,4       GET BS NO                                  WRHI0024
      00012  0020 00 0 00040         TRA     FULL                                                     WRHI0025
      00013  0621 00 0 00055         STA     BS                                                       WRHI0026
      00014  0774 00 4 00013         AXT     11,4                                                     WRHI0027
      00015 -0761 00 0 00042         SEB                                                              WRHI0028
      00016 -0500 00 4 00000  CAL    CAL     **,4                                                     WRHI0029
      00017 -0761 00 0 00041         SEA                                                              WRHI0030
      00020  0602 00 4 00071         SLW     BUF+11,4                                                 WRHI0031
      00021  2 00001 4 00015         TIX     *-4,4,1                                                  WRHI0032
      00022  0534 00 4 00055         LXA     BS,4                                                     WRHI0033
      00023  3 00003 4 00043         TXH     LOW,4,3       USE 12 BIT CALL FOR BS .G. 3               WRHI0034
      00024 -3 00001 4 00043         TXL     LOW,4,1       USE 12 BIT CALL FOR HSL 0 OR 1             WRHI0035
      00025  0560 00 0 00056         LDQ     BUF           USE 6 BIT CALL FOR HSL 2 OR 3 ONLY         WRHI0036
      00026 -0754 00 0 00000         ZAC                                                              WRHI0037
      00027 -0763 00 0 00030         LGL     6+18                                                     WRHI0038
      00030  0622 00 0 00032         STD     PAR                                                      WRHI0039
      00031  0074 00 4 00001         TSX     WT7750,4                                                 WRHI0040
      00032 -0 00000 0 00056  PAR    MZE     BUF,,**                                                  WRHI0041
      00033  0 00000 0 00055                 BS                                                       WRHI0042
      00034  0020 00 0 00040         TRA     FULL                                                     WRHI0043
      00035  0774 00 4 00000  XR     AXT     ,4                                                       WRHI0044
      00036  0564 00 0 77777         ENB     ENBWD                                                    WRHI0045
      00037  0020 00 4 00003         TRA     3,4                                                      WRHI0046
      00040  0534 00 4 00035  FULL   LXA     XR,4                                                     WRHI0047
      00041  0564 00 0 77777         ENB     ENBWD                                                    WRHI0048
      00042  0020 00 4 00002         TRA     2,4                                                      WRHI0049
      00043 -0500 00 0 00054  LOW    CAL     WC            WC*3                                       WRHI0050
      00044  0767 00 0 00001         ALS     1                                                        WRHI0051
      00045  0361 00 0 00054         ACL     WC                                                       WRHI0052
      00046  0622 00 0 00050         STD     PAR1                                                     WRHI0053
      00047  0074 00 4 00001         TSX     WT7750,4                                                 WRHI0054
      00050  0 00000 0 00056  PAR1   PZE     BUF,,**                                                  WRHI0055
      00051  0 00000 0 00055                 BS                                                       WRHI0056
      00052  0020 00 0 00040         TRA     FULL                                                     WRHI0057
      00053  0020 00 0 00035         TRA     XR                                                       WRHI0058
      00054  0 00000 0 00000  WC                                                                      WRHI0059
      00055  0 00000 0 00000  BS                                                                      WRHI0060
      00056                   BUF    BSS     11                                                       WRHI0061
1            SUPER ENTRY TO ALLOW USER TO WRITE HIS LINE IN BINARY               03/04/70 1430.9 PAGE 2

                                     END                                                              WRHI0062
1            SUPER ENTRY TO ALLOW USER TO WRITE HIS LINE IN BINARY               03/04/70 1430.9 PAGE 1
                        POST PROCESSOR ASSEMBLY DATA

       72127 IS THE LAST LOCATION NOT USED BY THIS PROGRAM
         71 IS THE FIRST LOCATION NOT USED BY THIS PROGRAM

0REFERENCES TO DEFINED SYMBOLS
         55     BS    13,   22,   33,   51
      74671     Q0     3
         54     WC     5,   43,   45
         35     XR     2,   40,   53
         56    BUF    20,   25,   32,   50
         16    CAL     7
         43    LOW    23,   24
         32    PAR    30
      74656    Q11     6
         40   FULL    12,   34,   52
         50   PAR1    46
      74502   USER    10
          2   WRHI     0
      77777  ENBWD    36,   41
          0  US2BS    11
          1 WT7750    31,   47

0 NO ERROR IN ABOVE ASSEMBLY.


AP758A   BCD 03/04/70 1439.3    2613         00000
1            PROGRAM TO HANDLE 7750 INTERFACE, 7909 BUFFERS, 7750 OUT BUFFERS    03/04/70 1431.5 PAGE 1

                       00004         ENTRY   WT7750                                                   AP750003
                                     EXTERN  TGET,TGIVE,TRESET,WR7750                                 AP750004
                                                                                                      AP750005
                                     UNLIST                                                           AP750006

                       00136  OUTSIZ SYN     94                                                       AP750011
                              *      TSX     WT7750,4                                                 AP750012
                              *      PZE-MZE FIRST,,CHAR COUNT                                        AP750013
                              *      PZE     =BS                                                      AP750014
                              *      FULL RETURN                                                      AP750015
                              *      GOOD RETURN                                                      AP750016
                              *                                                                       AP750017
      00004  0634 00 4 00107  WT7750 SXA     XR,4                                                     AP750018
      00005  0634 00 1 00110         SXA     XR+1,1                                                   AP750019
      00006  0634 00 2 00111         SXA     XR+2,2                                                   AP750020
      00007  0064 00 0 00007         TCOE    *                                                        AP750021
      00010 -0500 60 4 00002         CAL*    2,4           GET BS NUMBER                              AP750022
      00011  0621 00 0 00134         STA     BS                                                       AP750023
      00012  0625 00 0 00140         STT     FORCE         SET FORCE SWITCH                           AP750024
      00013  0500 00 4 00001         CLA     1,4                                                      AP750025
      00014  0600 00 0 00135         STZ     SIX           SET SIX BIT SWITCH                         AP750026
      00015  0120 00 0 00017         TPL     *+2                                                      AP750027
      00016 -0625 00 0 00135         STL     SIX                                                      AP750028
      00017 -0734 00 1 00000         PDX     ,1            GET CHAR COUNT                             AP750029
      00020 -3 00000 1 00115         TXL     CONTRL,1,0    ZERO CHAR COUNT MEANS CONTROL INFO         AP750030
      00021  0634 00 1 00136         SXA     COUNT,1       STO COUNT FOR MAD                          AP750031
      00022  0074 00 4 00000         TSX     TGET,4        GET STO FROM 7750                          AP750032
      00023  3 00000 0 00134         PAR     BS                                                       AP750033
      00024  3 00000 0 00136         PAR     COUNT                                                    AP750034
      00025  3 00000 0 00140         PAR     FORCE                                                    AP750035
      00026  0601 00 0 00137         STO     FULL          NOT ZERO IF NO ROOM                        AP750036
      00027 -0100 00 0 00107         TNZ     XR            RETURN IF FULL                             AP750037
      00030  0534 00 1 00136         LXA     COUNT,1                                                  AP750038
      00031  0754 00 1 00000         PXA     ,1                                                       AP750039
      00032 -0520 00 0 00135         NZT     SIX                                                      AP750040
      00033  0767 00 0 00001         ALS     1                                                        AP750041
      00034  0402 00 0 74670         SUB     Q1                                                       AP750042
      00035  0131 00 0 00000         XCA                                                              AP750043
      00036 -0754 00 0 00000         ZAC                                                              AP750044
      00037  0221 00 0 74663         DVP     Q6                                                       AP750045
      00040  0621 00 0 00075         STA     POSIT         REMAINDER INDICATES POSITION OF LAST CHAR  AP750046
      00041  0131 00 0 00000         XCA                                                              AP750047
      00042  0400 00 0 74670         ADD     Q1                                                       AP750048
      00043  0734 00 2 00000         PAX     ,2            PUT WORD COUNT+1 FOR EOM                   AP750049
      00044  1 00001 2 00045         TXI     *+1,2,1                                                  AP750050
      00045 -0634 00 2 00106         SXD     PAR,2                                                    AP750051
      00046  0734 00 2 00000         PAX     ,2            RESTOR REAL WORD COUNT                     AP750052
      00047  0534 00 4 00107         LXA     XR,4          RESTOR XR4                                 AP750053
      00050  0361 00 4 00001         ACL     1,4           GET INPUT BES                              AP750054
      00051  0621 00 0 00065         STA     INPT                                                     AP750055
      00052  0754 00 2 00000         PXA     ,2            WORD COUNT AGAIN                           AP750056
      00053  0361 00 0 00147         ACL     BUFPTR                                                   AP750057
      00054  0621 00 0 00067         STA     OUTPT                                                    AP750058
      00055 -0500 00 0 00147         CAL     BUFPTR        SET FIRST IN CALL TO WR7750                AP750059
      00056  0621 00 0 00106         STA     PAR                                                      AP750060
      00057  0754 00 1 00000         PXA     ,1            GENERATE PREF OF BS, COUNT                 AP750061
1            PROGRAM TO HANDLE 7750 INTERFACE, 7909 BUFFERS, 7750 OUT BUFFERS    03/04/70 1431.5 PAGE 2

      00060 -0765 00 0 00014         LGR     12            SAVE COUNT                                 AP750062
      00061 -0500 00 0 00134         CAL     BS                                                       AP750063
      00062 -0520 00 0 00135         NZT     SIX           ADD 12 BIT BIT (MAYBE)                     AP750064
      00063 -0501 00 0 00306         ORA     =O2000                                                   AP750065
      00064 -0763 00 0 00014         LGL     12            RESTOR COUNT                               AP750066
                       00065  LOOP   SYN     *             COPY MESS BEHIND PREF                      AP750067
      00065  0560 00 2 00000  INPT   LDQ     **,2                                                     AP750068
      00066 -0763 00 0 00014         LGL     12                                                       AP750069
      00067  0602 00 2 00000  OUTPT  SLW     **,2                                                     AP750070
      00070 -0763 00 0 00030         LGL     24                                                       AP750071
      00071  2 00001 2 00065         TIX     LOOP,2,1                                                 AP750072
      00072  0774 00 2 00000         AXT     0,2           FILL FINAL CHAR                            AP750073
      00073 -0763 00 0 00014         LGL     12                                                       AP750074
      00074  0602 60 0 00067         SLW*    OUTPT                                                    AP750075
      00075  0774 00 4 00000  POSIT  AXT     **,4          INDICATES POSITION OF LAST CHAR            AP750076
      00076 -0500 00 4 00146         CAL     EOM,4         INSERT EOM AFTER LAST CHAR                 AP750077
      00077  3 00000 4 00104         TXH     *+5,4,0       TRA IF NEXT TO LAST WORD FULL              AP750078
      00100  0774 00 2 00001         AXT     1,2                                                      AP750079
      00101 -0602 60 0 00067         ORS*    OUTPT         FILL REST OF NEXT TO LAST WORD             AP750080
      00102 -0500 00 0 74641         CAL     FENCE                                                    AP750081
      00103  0774 00 2 00000         AXT     0,2                                                      AP750082
      00104 -0602 60 0 00067         ORS*    OUTPT         FILL LAST WORD                             AP750083
      00105  0074 00 4 00003  WRITE  TSX     WR7750,4      WRITE PREF, MESS, EOM                      AP750084
      00106 -1 00000 0 00000  PAR    CPYD    **,,**                                                   AP750085
      00107  0774 00 4 00000  XR     AXT     **,4                                                     AP750086
      00110  0774 00 1 00000         AXT     ,1                                                       AP750087
      00111  0774 00 2 00000         AXT     ,2                                                       AP750088
      00112  0520 00 0 00137         ZET     FULL          RETURN FULL OR OK                          AP750089
      00113  0020 00 4 00003         TRA     3,4                                                      AP750090
      00114  0020 00 4 00004         TRA     4,4                                                      AP750091
                              *                                                                       AP750092
      00115  0734 00 1 00000  CONTRL PAX     ,1            SAVE CONTROL TYPE IN XR1 AND MQ            AP750093
      00116 -0765 00 0 00014         LGR     12                                                       AP750094
      00117 -0500 00 0 00134         CAL     BS            ADD BS AND CONTROL BITS                    AP750095
      00120 -0501 00 0 00307         ORA     =O3000                                                   AP750096
      00121 -0763 00 0 00030         LGL     24            PICKUP TYPE                                AP750097
      00122 -0501 00 0 00310         ORA     =O7777        ADD EOM                                    AP750098
      00123  0602 60 0 00147         SLW*    BUFPTR        INSERT MESSAGE                             AP750099
      00124 -0500 00 0 00147         CAL     BUFPTR        SET PAR                                    AP750100
      00125  0621 00 0 00106         STA     PAR                                                      AP750101
      00126  0774 00 4 00001         AXT     1,4           ONE WORK                                   AP750102
      00127 -0634 00 4 00106         SXD     PAR,4                                                    AP750103
      00130  3 00000 1 00105         TXH     WRITE,1,0                                                AP750104
      00131  0074 00 4 00002         TSX     TRESET,4      CONTROL 0 MEANS RESET                      AP750105
      00132  3 00000 0 00134         TXH     BS,0,0                                                   AP750106
      00133  0020 00 0 00105         TRA     WRITE                                                    AP750107
                              *                                                                       AP750108
      00134  0 00000 0 00000  BS                                                                      AP750109
      00135  0 00000 0 00000  SIX                                                                     AP750110
      00136  0 00000 0 00000  COUNT                                                                   AP750111
      00137  0 00000 0 00000  FULL                                                                    AP750112
      00140  0 00000 0 00000  FORCE                                                                   AP750113
      00141 +000000007777            OCT     7777,777777,77777777                                     AP750114
      00142 +000000777777
      00143 +000077777777
      00144 +007777777777            OCT     7777777777,777777777777,77                               AP750115
1            PROGRAM TO HANDLE 7750 INTERFACE, 7909 BUFFERS, 7750 OUT BUFFERS    03/04/70 1431.5 PAGE 3

      00145 -377777777777
      00146 +000000000077
                       00146  EOM    SYN     *-1                                                      AP750116
      00147  0 00000 0 00150  BUFPTR         OUTB1                                                    AP750117
      00150                   OUTB1  BSS     OUTSIZ                                                   AP750118
                                     END                                                              AP750119

        LITERALS
      00306  000000002000
      00307  000000003000
      00310  000000007777
1            PROGRAM TO HANDLE 7750 INTERFACE, 7909 BUFFERS, 7750 OUT BUFFERS    03/04/70 1431.5 PAGE 1
                        POST PROCESSOR ASSEMBLY DATA

       72127 IS THE LAST LOCATION NOT USED BY THIS PROGRAM
        311 IS THE FIRST LOCATION NOT USED BY THIS PROGRAM

0REFERENCES TO DEFINED SYMBOLS
        134     BS    11,   23,   61,  117,  132
      74670     Q1    34,   42
      74663     Q6    37
        107     XR     4,    5,    6,   27,   47
        146    EOM    76,  147
        106    PAR    45,   56,  125,  127
        135    SIX    14,   16,   32,   62
        137   FULL    26,  112
         65   INPT    51
         65   LOOP    65,   71
          0   TGET    22
        136  COUNT    21,   24,   30
      74641  FENCE   102
        140  FORCE    12,   25
        150  OUTB1   147
         67  OUTPT    54,   74,  101,  104
         75  POSIT    40
          1  TGIVE
        105  WRITE   130,  133
        147 BUFPTR    53,   55,  123,  124
        115 CONTRL    20
        136 OUTSIZ     4,  150
          2 TRESET   131
          3 WR7750   105
          4 WT7750     0

0 NO ERROR IN ABOVE ASSEMBLY.


TSTO8B   BCD 03/04/70 1439.3    1685         00000
1       M1416 3845  PETER R. BOS ....... 7750 STORAGE ALLOCATOR ...........      03/04/70 1432.3 PAGE 1

                              * REVISION OF PREVIOUS MAD PROGRAM                                      TSTO0002
                                                                                                      TSTO0003
                                     PCC     ON                                                       TSTO0004
                                     NOLNK                                                            TSTO0005
                       00000         ENTRY   TGET          TO OBTAIN 7750 STORAGE SPACE               TSTO0006
                       00021         ENTRY   TGIVE         TO RETURN BUFFER SPACE TO POOL             TSTO0007
                       00044         ENTRY   TRESET        TO RESET ALLOCATION FOR USER (RSSWB)       TSTO0008
                                     LBL     TSTO                                                     TSTO0009
                                     PCC     OFF                                                      TSTO0010
                                                                                                      TSTO0011
                                     UNLIST                                                           TSTO0012

                                                                                                      TSTO0018
                                                                                                      TSTO0019
      00000                   TGET   SAVE    ,(X1)         NEED AN INDEX REGISTER                     TSTO0020
      00001 -0500 60 4 00001         CAL*    1,4           GET BS NO. FOR THIS USER                   TSTO0021
      00002  0734 00 1 00000         PAX     ,1            ..                                         TSTO0022
      00003  0500 00 0 00157         CLA     TOTAL         COMPUTE ALLOTMENT                          TSTO0023
      00004  0520 60 4 00003         ZET*    3,4           IF THIS IS FORCED WRITE                    TSTO0024
      00005  0020 00 0 00010         TRA     *+3           .. USE ANYTHING                            TSTO0025
      00006  0771 00 0 00002         ARS     2             .. NOT FORCED OUTPUT, TOTAL/4              TSTO0026
      00007  0402 00 1 00156         SUB     CHARCT,1      .. LESS ANY ALREADY GIVEN                  TSTO0027
      00010  0402 60 4 00002         SUB*    2,4           DO WE HAVE THIS MUCH FOR USER              TSTO0028
      00011 -0120 00 0 00055         TMI     RETRN1        .. NO                                      TSTO0029
      00012  0500 00 1 00156         CLA     CHARCT,1      .. YES                                     TSTO0030
      00013  0400 60 4 00002         ADD*    2,4           UPDATE COUNT FOR USER                      TSTO0031
      00014  0601 00 1 00156         STO     CHARCT,1      ..                                         TSTO0032
      00015  0500 00 0 00157         CLA     TOTAL         UPDATE TOTAL                               TSTO0033
      00016  0402 60 4 00002         SUB*    2,4           ..                                         TSTO0034
      00017  0601 00 0 00157         STO     TOTAL         ..                                         TSTO0035
      00020  0020 00 0 00053         TRA     RETRN0        OK RETURN                                  TSTO0036
                                                                                                      TSTO0037
      00021                   TGIVE  SAVE    ,(X1)         HERE TO RETURN SPACE TO POOL               TSTO0038
      00022 -0500 60 4 00001         CAL*    1,4           GET USER BS NO.                            TSTO0039
      00023  0734 00 1 00000         PAX     ,1            ..                                         TSTO0040
      00024  0500 00 1 00156         CLA     CHARCT,1      REDUCE CHAR COUNT                          TSTO0041
      00025  0402 60 4 00002         SUB*    2,4           ..                                         TSTO0042
      00026  0131 00 0 00000         XCA                   SAVE IN MQ                                 TSTO0043
      00027 -0600 00 1 00156         STQ     CHARCT,1      STORE ALSO                                 TSTO0044
      00030  0500 00 0 00157         CLA     TOTAL         GET TOTAL SPACE CURRENTLY FREE             TSTO0045
      00031  0400 60 4 00002         ADD*    2,4           .. UPDATE                                  TSTO0046
      00032  0162 00 0 00035         TQP     *+3           IF RETURNING TOO MUCH,                     TSTO0047
      00033  0400 00 1 00156         ADD     CHARCT,1      .. (IS NEGATIVE, SAME AS MQ)               TSTO0048
      00034  0600 00 1 00156         STZ     CHARCT,1      .. AND RESET IT                            TSTO0049
      00035  0601 00 0 00157         STO     TOTAL         SAVE NEW TOTAL                             TSTO0050
      00036  0500 00 1 00156         CLA     CHARCT,1      GET NEW USER CHAR COUNT                    TSTO0051
      00037  0402 00 0 00160         SUB     RESTRT        SEE IF TIME TO RESTART WAITING USER        TSTO0052
      00040  3 00003 1 00042         TXH     *+2,1,3       .. ARDS STARTS UP SOONER                   TSTO0053
      00041  0402 00 0 00161         SUB     FASTRS        ..                                         TSTO0054
      00042 -0120 00 0 00055         TMI     RETRN1        START HIM UP                               TSTO0055
      00043  0020 00 0 00053         TRA     RETRN0        .. OR NOT                                  TSTO0056
                                                                                                      TSTO0057
      00044                   TRESET SAVE    ,(X1)         HERE WHEN BUFFER RESET                     TSTO0058
      00045 -0500 60 4 00001         CAL*    1,4           GET THE NUMBER OF THAT TRUCK               TSTO0059
      00046  0734 00 1 00000         PAX     ,1            ..                                         TSTO0060
      00047  0500 00 0 00157         CLA     TOTAL         NEW TOTAL UPDATED                          TSTO0061
1       M1416 3845  PETER R. BOS ....... 7750 STORAGE ALLOCATOR ...........      03/04/70 1432.3 PAGE 2

      00050  0400 00 1 00156         ADD     CHARCT,1      .. BY AMOUNT RESET                         TSTO0062
      00051  0601 00 0 00157         STO     TOTAL         ..                                         TSTO0063
      00052  0600 00 1 00156         STZ     CHARCT,1      RESET USER COUNT                           TSTO0064
                                                                                                      TSTO0065
      00053 -0754 00 0 00000  RETRN0 ZAC                   THIS WAS ONCE A 'FUNCTION RETURN 0'        TSTO0066
      00054  0020 00 0 00056         TRA     EXIT          ..                                         TSTO0067
      00055 -0500 00 0 74670  RETRN1 CAL     Q1            'FUNCTION RETURN 1'                        TSTO0068
      00056                   EXIT   RETURN  (1,4),,(X1)   RESTORE X1 AND RETURN                      TSTO0069
                                                                                                      TSTO0070
                                                                                                      TSTO0071
                       00060         DUP     1,62                                                     TSTO0073
      00060  0 00000 0 00000         PZE                                                              TSTO0074
      00156  0 00000 0 00000  CHARCT PZE                                                              TSTO0075
      00157  0 00000 0 13560  TOTAL  PZE     6000          INITIAL TOTAL 6000 CHARS                   TSTO0076
      00160  0 00000 0 00120  RESTRT PZE     80            RESTART USER WHEN .L. 80 LEFT              TSTO0077
      00161  0 00000 0 00170  FASTRS PZE     120           EXCEPT ARDS WHEN .L. 200                   TSTO0078
                                                                                                      TSTO0079
      00162                          RMT     *                                                        TSTO0080
                                     END                                                              TSTO0082
1       M1416 3845  PETER R. BOS ....... 7750 STORAGE ALLOCATOR ...........      03/04/70 1432.3 PAGE 1
                        POST PROCESSOR ASSEMBLY DATA

       72127 IS THE LAST LOCATION NOT USED BY THIS PROGRAM
        162 IS THE FIRST LOCATION NOT USED BY THIS PROGRAM

0REFERENCES TO DEFINED SYMBOLS
      74670     Q1    55
         56     X1     0,   21,   44
         56   EXIT    54
          0   TGET     0
         21  TGIVE     0
        157  TOTAL     3,   15,   17,   30,   35,   47,   51
        156 CHARCT     7,   12,   14,   24,   27,   33,   34,   36,   50,   52
        161 FASTRS    41
        160 RESTRT    37
         53 RETRN0    20,   43
         55 RETRN1    11,   42
         44 TRESET     0

0 NO ERROR IN ABOVE ASSEMBLY.


UNIT8B   BCD 03/04/70 1439.3    2386         00000
1       M1416 3845  PETER R. BOS ..... ASSIGN LOGICAL UNIT NUMBER .........      03/04/70 1434.2 PAGE 1

                                                                                                      UNIT0002
                                     PCC     ON                                                       UNIT0003
                                     NOLNK                                                            UNIT0004
                       00000         ENTRY   ASNUNI        TO ASSIGN LOGICAL UNIT NO.                 UNIT0005
                       00023         ENTRY   ERSUNI        TO ERASE LOGICAL UNIT NO.                  UNIT0006
                       00043         ENTRY   ASHUNI        TO ASSIGN HIGH SPEED LINE TO ARDS          UNIT0007
                       00071         ENTRY   BS2US         CONVERT PHYSICAL LINE TO LOGICAL LINE      UNIT0008
                       00067         ENTRY   US2BS         CONVERT LOGICAL LINE TO PHYSICAL LINE      UNIT0009
                       00203         ENTRY   LUTBL         POINTER TO UNIT TABLE                      UNIT0010
                                     LBL     UNIT                                                     UNIT0011
                                     PCC     OFF                                                      UNIT0012
                                                                                                      UNIT0013
                                     UNLIST                                                           UNIT0014

                                                                                                      UNIT0020
                                                                                                      UNIT0021
                       00076  NPU    EQU     62            HIGHEST BS NO.                             UNIT0022
                       00003  FIRST  EQU     3             FIRST AVAILABLE US NO                      UNIT0023
                       00047  LAST   EQU     N-1           LAST AVAILABLE US NO                       UNIT0024
                       00004  NSCOPE EQU     4             NUMBER OF SCOPE LINES                      UNIT0025
                                                                                                      UNIT0026
                                                                                                      UNIT0027
      00000                   ASNUNI SAVE    ASN(X1,X2)    ENTRY TO ASSIGN LOGICAL LINE NO.           UNIT0028
      00002  0737 00 2 00000         PAC     ,2            GET BS FOR THIS USER                       UNIT0029
      00003 -3 77701 2 00014         TXL     ASNER,2,-NPU-1 INSURE BS WITHIN RANGE                    UNIT0030
      00004  0500 00 2 00104         CLA     PUTBL,2       DOES BS ALREADY HAVE USER NO               UNIT0031
      00005  0120 00 0 00063         TPL     ASNRET        .. IF SO RETURN OLD NO.                    UNIT0032
      00006 -0774 00 1 00003         AXC     FIRST,1       INITIALIZE SEARCH OF US TABLE              UNIT0033
      00007  0500 00 1 00203  ASN.1  CLA     LUTBL,1       GET TABLE ENTRY                            UNIT0034
      00010 -0100 00 0 00012         TNZ     *+2           FREE LINE HAS MZE 0                        UNIT0035
      00011 -0120 00 0 00016         TMI     ASN.2         .. LINE IS FREE, ASSIGN IT                 UNIT0036
      00012  1 77777 1 00013         TXI     *+1,1,-1      TRY NEXT SLOT                              UNIT0037
      00013  3 77730 1 00007         TXH     ASN.1,1,-LAST-1 ..                                       UNIT0038
                                                                                                      UNIT0039
      00014 -0754 00 0 00000  ASNER  ZAC                   HERE FOR ERROR FROM ASNUNI                 UNIT0040
      00015  1 00001 4 00064         TXI     ASNX2,4,1     .. RETURN 1,4 WITH AC=0                    UNIT0041
                                                                                                      UNIT0042
      00016  0756 00 2 00000  ASN.2  PCA     ,2            HERE WHEN FREE SLOT FOUND                  UNIT0043
      00017  0602 00 1 00203         SLW     LUTBL,1       BS NUMBER TO USER TABLE                    UNIT0044
      00020  0756 00 1 00000         PCA     ,1            USER NUMBER TO BS TABLE                    UNIT0045
      00021  0602 00 2 00104         SLW     PUTBL,2       ..                                         UNIT0046
      00022  0020 00 0 00064         TRA     ASNX2         RETURN 2,4 WITH AC=USER NO                 UNIT0047
                                                                                                      UNIT0048
                                                                                                      UNIT0049
      00023  0564 00 0 74671  ERSUNI ENB     Q0            ENTRY TO ERASE LINE. INSURE DISABLED       UNIT0050
      00024                          SAVE    ASN(X1)       SAVE X1 AT COMMON EXIT                     UNIT0051
      00025  0560 00 0 74654         LDQ     M0            MZE 0 TO MQ                                UNIT0052
      00026  0737 00 1 00000         PAC     ,1            USER NO. TO X1                             UNIT0053
      00027  0500 00 1 00203         CLA     LUTBL,1       GET BS NO FOR THIS USER                    UNIT0054
      00030 -0120 00 0 00042         TMI     ERSRET        EXIT IF ALREADY FLUSHED                    UNIT0055
      00031 -0600 00 1 00203         STQ     LUTBL,1       RESET USER ENTRY                           UNIT0056
      00032  0737 00 1 00000         PAC     ,1            GET BS NO.                                 UNIT0057
      00033 -0600 00 1 00104         STQ     PUTBL,1       RESET BS ENTRY ALSO                        UNIT0058
      00034 -3 00000 1 00036         TXL     *+2,1,0       SEE IF ON HIGH SPEED LINE                  UNIT0059
      00035 -3 77774 1 00042         TXL     ERSRET,1,-NSCOPE .. NO                                   UNIT0060
      00036  0500 00 1 00100         CLA     HITBL,1       .. YES, GET LOW SPEED BS                   UNIT0061
1       M1416 3845  PETER R. BOS ..... ASSIGN LOGICAL UNIT NUMBER .........      03/04/70 1434.2 PAGE 2

      00037 -0600 00 1 00100         STQ     HITBL,1       RESET HIGH SPEED LINE ENTRY                UNIT0062
      00040  0737 00 1 00000         PAC     ,1            ..                                         UNIT0063
      00041 -0600 00 1 00104         STQ     PUTBL,1       AND FINALLY ORIGINAL BS NO.                UNIT0064
      00042  1 00001 4 00065  ERSRET TXI     ASNX1,4,1     RETURN 1,4                                 UNIT0065
                                                                                                      UNIT0066
                                                                                                      UNIT0067
      00043                   ASHUNI SAVE    ASN(X1,X2,X3) HERE TO ASSIGN HIGH SPEED LINE TO ARDS     UNIT0068
      00046  0737 00 2 00000         PAC     ,2            BS NO. TO X2                               UNIT0069
      00047 -0130 00 0 00000         XCL                   .. CROCK CALLING SEQUENCE                  UNIT0070
      00050  0737 00 1 00000         PAC     ,1            USER NO. TO X1                             UNIT0071
      00051  0500 00 1 00203         CLA     LUTBL,1       DOES USER HAVE A BS                        UNIT0072
      00052  0120 00 0 00054         TPL     *+2           .. YES                                     UNIT0073
      00053  1 00001 4 00063         TXI     ASNX3,4,1     .. NO, ERROR RETURN 1,4                    UNIT0074
      00054  0734 00 3 00000         PAX     ,3            GET CURRENT BS                             UNIT0075
      00055 -3 00003 3 00063         TXL     ASNX3,3,NSCOPE-1 IS ALREADY ON HIGH SPEED LINE           UNIT0076
      00056  0601 00 2 00100         STO     HITBL,2       PUT OLD BS AWAY IN HSL TABLE               UNIT0077
      00057  0756 00 1 00000         PCA     ,1            ..                                         UNIT0078
      00060  0602 00 2 00104         SLW     PUTBL,2       ASSIGN HIGH SPEED LINE TO USER             UNIT0079
      00061  0756 00 2 00000         PCA     ,2            ..                                         UNIT0080
      00062  0602 00 1 00203         SLW     LUTBL,1       ..                                         UNIT0081
                                                                                                      UNIT0082
      00063                   ASNRET RETURN  (2,4),ASN(X3,X2,X1) COMMON EXIT                          UNIT0083
                                                                                                      UNIT0084
                                                                                                      UNIT0085
      00067  0361 00 0 00255  US2BS  ACL     LUTBLA        CONVERT USER NO TO BS NO                   UNIT0086
      00070  0020 00 0 00072         TRA     BS2US+1       .. SKIP TO COMMON CODE                     UNIT0087
                                                                                                      UNIT0088
      00071  0361 00 0 00254  BS2US  ACL     PUTBLA        CONVERT BS NO TO USER NO                   UNIT0089
      00072                          SAVE    ASN(X1)       SAVE AN INDEX REGISTER                     UNIT0090
      00073  0737 00 1 00000         PAC     ,1            ADDRESS OF BS OR US ENTRY                  UNIT0091
      00074  0500 00 1 00000         CLA     0,1           GRAB IT                                    UNIT0092
      00075  0120 00 0 00065         TPL     ASNX1         RETURN 2,4 IF ASSIGNED                     UNIT0093
      00076 -0754 00 0 00000         ZAC                   NOT ASSIGNED, ERROR                        UNIT0094
      00077  1 00001 4 00065         TXI     ASNX1,4,1     RETURN 1,4                                 UNIT0095
                                                                                                      UNIT0096
                                                                                                      UNIT0097
                       00100  HITBL  DUP     1,NSCOPE      TABLE OF LOW SPEED BS FOR ARDS             UNIT0099
      00100 -0 00000 0 00000         MZE     0             .. WHEN HIGH SPEED LINE ASSIGNED           UNIT0100
                                                                                                      UNIT0101
                       00104  PUTBL  DUP     1,NPU+1       TABLE OF LOGICAL LINE NOS. BY BS           UNIT0102
      00104 -0 00000 0 00000         MZE     0             ..                                         UNIT0103
                                                                                                      UNIT0104
                       00203  LUTBL  DUP     1,N+1         TABLE OF PHYSICAL LINE NOS. BY USER NO     UNIT0105
      00203 -0 00000 0 00000         MZE     0             ..                                         UNIT0106
                                                                                                      UNIT0107
      00254  0 00000 0 00104  PUTBLA PZE     PUTBL                                                    UNIT0108
      00255  0 00000 0 00203  LUTBLA PZE     LUTBL                                                    UNIT0109
                                                                                                      UNIT0110
      00256                          RMT     *                                                        UNIT0111
                                     END                                                              UNIT0113
1       M1416 3845  PETER R. BOS ..... ASSIGN LOGICAL UNIT NUMBER .........      03/04/70 1434.2 PAGE 1
                        POST PROCESSOR ASSEMBLY DATA

       72127 IS THE LAST LOCATION NOT USED BY THIS PROGRAM
        256 IS THE FIRST LOCATION NOT USED BY THIS PROGRAM

0REFERENCES TO DEFINED SYMBOLS
         50      N     0,  203
      74654     M0    25
      74671     Q0    23
         76    NPU     0,    3,  104
         47   LAST     0,   13
         14  ASNER     3
          7  ASN.1    13
         16  ASN.2    11
         65  ASNX1     0,   24,   42,   43,   72,   75,   77
         64  ASNX2     1,   15,   22,   44
         63  ASNX3    45,   53,   55
         71  BS2US     0,   70
          3  FIRST     0,    6
        100  HITBL    36,   37,   56
        203  LUTBL     0,    7,   17,   27,   31,   51,   62,  255
        104  PUTBL     4,   21,   33,   41,   60,  254
         67  US2BS     0
         43 ASHUNI     0
         63 ASNRET     5
          0 ASNUNI     0
         42 ERSRET    30,   35
         23 ERSUNI     0
        255 LUTBLA    67
          4 NSCOPE     0,   35,   55,  100
        254 PUTBLA    71

0 NO ERROR IN ABOVE ASSEMBLY.


PDPA8B   BCD 03/04/70 1439.3   26371         00000
1       ESL CONSOLE ADAPTER - PDP-7 VERSION 3 - 10/10/67 - DAN THORNHILL         03/04/70 1435.0 PAGE 1
                           ESL CONSOLE ADAPTER - MACROS, ENTRIES, AND EXTERNS

                                                                                                      PDPA0003
                                     PCC     ON                                                       PDPA0004
                                     NOLNK                                                            PDPA0005
                       00007         ENTRY   STOPD         STOP DISPLAY BEFORE 7289 DRUM SWAP         PDPA0006
                       00007         ENTRY   STARTD        START DISPLAY AFTER 7289 DRUM SWAP         PDPA0007
                       00010         ENTRY   DSCOPE        ENTRY FOR B-CORE USERS                     PDPA0008
                       00007         ENTRY   PLOTS         DUMMY ENTRY                                PDPA0009
                       01543         ENTRY   DDTRAP        ENTRY TO INTERRUPT PROCESSOR ON DIRECT DATAPDPA0010
                       01622         ENTRY   DTRAP         ENTRY TO INTERRUPT PROCESSOR ON CHANNEL D  PDPA0011
                                     LBL     PDPA0000                                                 PDPA0012
                                     PCC     OFF                                                      PDPA0013
                                                                                                      PDPA0014
                                     EXTERN  CMEXIT,CYCLE,SCHEDL                                      PDPA0015
                                     EXTERN  BLKCHK,CKRLC                                             PDPA0016
                                     EXTERN  ALLSAV,ALLRST                                            PDPA0017
                                                                                                      PDPA0018
                                     HEAD    C                                                        PDPA0019
                                     UNLIST                                                           PDPA0020

                                     HEAD    0                                                        PDPA0025
                                                                                                      PDPA0026
                              *-*-*-*-*-*-*-*-*-*-*-*-*-*-*-*-*-*-*-*-*-*-*-*-*-*-*-*-*-*-*-*-*-*-*-* PDPA0027
                       00002  NOCONS EQU     2             NUMBER OF CONSOLES CONNECTED               PDPA0028
                              *-*-*-*-*-*-*-*-*-*-*-*-*-*-*-*-*-*-*-*-*-*-*-*-*-*-*-*-*-*-*-*-*-*-*-* PDPA0029
                                                                                                      PDPA0030
                       00007  KKKORG SYN     *                                                        PDPA0031
                       00007  STARTD SYN     *                                                        PDPA0032
                       00007  STOPD  SYN     *                                                        PDPA0033
                       00007  PLOTS  SYN     *                                                        PDPA0034
      00007  0020 00 4 00001         TRA     1,4                                                      PDPA0035
                                                                                                      PDPA0036
                              SWITCH MACRO   LIST                                                     PDPA0037
                                     IRP     LIST                                                     PDPA0038
                                     TRA     LIST                                                     PDPA0039
                                     IRP                                                              PDPA0040
                                     END                                                              PDPA0041
                                                                                                      PDPA0042
                              ERRSET MACRO   OP,FLAG                                                  PDPA0043
                                     OP      *+3                                                      PDPA0044
                                     SIL     FLAG                                                     PDPA0045
                                     TRA     SETER                                                    PDPA0046
                                     END                                                              PDPA0047
                                                                                                      PDPA0048
                              ACTIVR MACRO   NUM                                                      PDPA0049
                                     TSX     COMGET,4      GET COMMON FROM PDP-7.                     PDPA0050
                                     CAL     NUM           GET DESIRED ITEM                           PDPA0051
                                     SLW     AC,1          INTO USER'S AC                             PDPA0052
                                     TRA     FNXT                                                     PDPA0053
                                     END                                                              PDPA0054
                                                                                                      PDPA0055
 M                            MIN    MACRO                                                            PDPA0056
                                     TLQ     *+2                                                      PDPA0057
                                     TRA     *+2                                                      PDPA0058
                                     XCA                                                              PDPA0059
                                     END                                                              PDPA0060
1       ESL CONSOLE ADAPTER - PDP-7 VERSION 3 - 10/10/67 - DAN THORNHILL         03/04/70 1435.0 PAGE 2
                           ESL CONSOLE ADAPTER - USER'S ACORE ENTRY

      00010  0564 00 0 01677  DSCOPE ENB     =0            DISABLE ALL TRAPS                          PDPA0062
      00011  0604 00 0 01014         STI     SIND                                                     PDPA0063
      00012  0634 00 4 00102         SXA     MNX4,4                                                   PDPA0064
      00013  0500 00 4 00001         CLA     1,4           GET ADDRESS OF COMMAND LIST                PDPA0065
      00014  0621 00 0 00111         STA     COML                                                     PDPA0066
      00015  0621 00 0 00021         STA     COML1                                                    PDPA0067
      00016  0500 00 4 00002         CLA     2,4           GET ADDRESS OF STATE RETURN                PDPA0068
      00017  0621 00 0 00075         STA     RSTATE        ..                                         PDPA0069
      00020 -0761 00 0 00042         SEB                                                              PDPA0070
      00021 -0500 00 0 00000  COML1  CAL     **            GET B-CORE COMMAND                         PDPA0071
      00022 -0761 00 0 00041         SEA                                                              PDPA0072
      00023  0602 00 0 01015         SLW     COMND         SAVE IN A-CORE                             PDPA0073
      00024 -0774 00 1 00000  DSCP.1 AXC     0,1           GET LOGICAL USER NUMBER                    PDPA0074
      00025  0535 00 4 74502         LAC     C$USER,4      WHO IS THIS                                PDPA0075
      00026 -0500 00 4 75646         CAL     C$UNITID,4    WHERE IS HE                                PDPA0076
      00027  0322 00 1 01024         ERA     KLUNIT,1                                                 PDPA0077
      00030  0100 00 0 00036         TZE     DSCP.2        FOUND                                      PDPA0078
      00031  1 77777 1 00032         TXI     *+1,1,-1      TRY NEXT UNIT                              PDPA0079
      00032  3 77776 1 00026         TXH     *-4,1,-NOCONS ARE THERE ANY MORE                         PDPA0080
      00033  0441 00 0 01677         LDI     =0            NO, ERROR                                  PDPA0081
      00034 -0055 00  400040         SIL     ERBIT+NOT908                                             PDPA0082
      00035  0020 00 0 00074         TRA     RET.1                                                    PDPA0083
      00036  0600 00 0 01052  DSCP.2 STZ     COMGOT        RESET COMMON GOTTEN FLAG.                  PDPA0084
      00037  0560 00 0 01677         LDQ     =0            CLEAR OUT ERROR BITS IN STATES             PDPA0085
      00040 -0620 00 1 01032         SLQ     STATE,1       ..                                         PDPA0086
      00041  0441 00 1 01032         LDI     STATE,1       GET HIS STATE ALSO                         PDPA0087
      00042 -3 00000 1 00044         TXL     *+2,1,0       USER IS THE SLAVE                          PDPA0088
      00043  0055 00  000040         SIR     CONBIT        YES                                        PDPA0089
      00044  0520 00 1 01026         ZET     SIGNED,1      IS USER SIGNED N                           PDPA0090
      00045  0020 00 0 00107         TRA     INTRP         YES                                        PDPA0091
      00046 -0500 00 0 01015         CAL     COMND         NO - CHECK FOR LOGON                       PDPA0092
      00047  0771 00 0 00022         ARS     18            ..                                         PDPA0093
      00050  0402 00 0 01700         SUB     =1            ..                                         PDPA0094
      00051  0100 00 0 00107         TZE     INTRP         LOGIN COMMAND FOUND                        PDPA0095
      00052  0774 00 4 00001         AXT     1,4           ERROR IN COMMAND LINE 1                    PDPA0096
      00053  0020 00 0 00055         TRA     SETER2+1                                                 PDPA0097
                       00054  SETER  SYN     *                                                        PDPA0098
      00054  0535 00 4 00140  SETER2 LAC     FNXT,4        GET LOCATION OF ERROR IN COMMAND LIST      PDPA0099
      00055  0754 00 4 00000         PXA     ,4            ..                                         PDPA0100
      00056  0601 00 0 72173         STO     C$LAC         PUT ERROR LOC IN HIS AC                    PDPA0101
      00057 -0055 00  400000         SIL     ERBIT         ..                                         PDPA0102
      00060  0604 00 1 01032  RET    STI     STATE,1       STORE STATE WORD INTERNALLY                PDPA0103
      00061 -0520 00 0 01066         NZT     HOLDUP        DID WE TELL PDP7 TO HOLD PICTURE           PDPA0104
      00062  0020 00 0 00074         TRA     RET.1         NO                                         PDPA0105
      00063  0600 00 0 01066         STZ     HOLDUP        YES, RELEASE IT                            PDPA0106
      00064  0604 00 1 01032         STI     STATE,1                                                  PDPA0107
      00065  0441 00 0 01673         LDI     94STAT                                                   PDPA0108
      00066 -0057 00  000400         RIL     HOLD                                                     PDPA0109
      00067  0604 00 0 01673         STI     94STAT                                                   PDPA0110
      00070 -0055 00  001000         SIL     INT                                                      PDPA0111
      00071  0604 00 0 01067         STI     TEMP                                                     PDPA0112
      00072 -0665 00 0 01067         PSLD    TEMP                                                     PDPA0113
      00073  0441 00 1 01032         LDI     STATE,1                                                  PDPA0114
      00074 -0761 00 0 00042  RET.1  SEB                   AND IN USERS LOCATION ALSO                 PDPA0115
      00075  0604 00 0 00000  RSTATE STI     **            ..                                         PDPA0116
1       ESL CONSOLE ADAPTER - PDP-7 VERSION 3 - 10/10/67 - DAN THORNHILL         03/04/70 1435.0 PAGE 3
                           ESL CONSOLE ADAPTER - USER'S ACORE ENTRY

      00076 -0761 00 0 00041         SEA                                                              PDPA0117
      00077  0441 00 0 01014  RET.2  LDI     SIND          RESTORE INDICATORS                         PDPA0118
      00100  0760 00 0 00005         IOT                   TURN OFF IOCHECK LIGHT                     PDPA0119
      00101  0761 00 0 00000         NOP                                                              PDPA0120
      00102  0774 00 4 00000  MNX4   AXT     **,4                                                     PDPA0121
      00103 -0520 00 0 01065         NZT     CYCSW         SHOULD WE CYCLE IN PLACE OF RETURN         PDPA0122
      00104  0020 00 4 00003         TRA     3,4                                                      PDPA0123
      00105  0600 00 0 01065         STZ     CYCSW         YES - CYCLE USER                           PDPA0124
      00106  0020 00 0 00001         TRA     CYCLE         ..                                         PDPA0125
                                                                                                      PDPA0126
                              * A-CORE COMMAND INTERPRETER                                            PDPA0127
                                                                                                      PDPA0128
      00107 -0774 00 2 00000  INTRP  AXC     0,2           COUNT OF COMMANDS                          PDPA0129
      00110 -0761 00 0 00042  SEB    SEB                   NO,PICK UP COMMAND FROM B-CORE             PDPA0130
      00111 -0500 00 2 00000  COML   CAL     **,2          GET COMMAND                                PDPA0131
      00112 -0761 00 0 00041         SEA                   BACK TO A-CORE                             PDPA0132
      00113  0602 00 0 01015         SLW     COMND         SAVE IT                                    PDPA0133
      00114  0600 00 0 01020         STZ     A                                                        PDPA0134
      00115  0621 00 0 01020         STA     A             BREAK UP INTO FIELDS                       PDPA0135
      00116 -0765 00 0 00022         LGR     18            GET DECREMENT                              PDPA0136
      00117  0621 00 0 01023         STA     D             ..                                         PDPA0137
      00120  0771 00 0 00017         ARS     15            GET OPCODE                                 PDPA0138
      00121  0737 00 4 00000         PAC     ,4            AND SAVE FOR TRANSFER                      PDPA0139
      00122 -0754 00 0 00000         PXD     ,0            OBTAIN INDIRECT AND CONFIGURATION BITS     PDPA0140
      00123 -0763 00 0 00001         LGL     1             ..                                         PDPA0141
      00124  0621 00 0 01016         STA     IND           ..                                         PDPA0142
      00125 -0754 00 0 00000         PXD     ,0                                                       PDPA0143
      00126 -0763 00 0 00002         LGL     2                                                        PDPA0144
      00127  0621 00 0 01017         STA     CONF          CONFIGURATION                              PDPA0145
      00130  0634 00 4 00135         SXA     OPSAVE,4      GET EFFECTIVE ADDRESS                      PDPA0146
      00131  0500 00 0 01020         CLA     A             ..                                         PDPA0147
      00132  0074 00 4 00736         TSX     EFAD,4        ..                                         PDPA0148
      00133  0621 00 0 01021         STA     EFFA                                                     PDPA0149
      00134  0601 00 0 01022         STO     EFFA1                                                    PDPA0150
      00135  0774 00 4 00000  OPSAVE AXT     **,4          RESTORE OPERATION CODE VALUE               PDPA0151
      00136  0634 00 2 00140         SXA     FNXT,2        SAVE COUNT OF COMMANDS                     PDPA0152
      00137  0020 00 4 00150         TRA     OPS,4                                                    PDPA0153
      00140  0774 00 2 00000  FNXT   AXT     **,2          COUNT OF COMMANDS                          PDPA0154
      00141  1 77777 2 00142         TXI     *+1,2,-1      MOVE ON TO NEXT COMMAND                    PDPA0155
      00142 -3 77634 2 00144         TXL     *+2,2,-100    TOO MANY COMMANDS                          PDPA0156
      00143  0020 00 0 00110         TRA     SEB           GET NEXT COMMAND                           PDPA0157
      00144 -0055 00  000100         SIL     GRT100        INDICATE GREATER THAN 100 COMMANDS         PDPA0158
      00145  0020 00 0 00054         TRA     SETER         AND RETURN THROUGH ERROR EXIT              PDPA0159
                                                                                                      PDPA0160
      00146 -0055 00  000020  ILL    SIL     ILLOP         ILLEGAL OPERATION CODE                     PDPA0161
      00147  0020 00 0 00054         TRA     SETER         INDICATE ERROR                             PDPA0162
                                                                                                      PDPA0163
                                             OPCODE TRANSFER TABLE                                    PDPA0164
                                                                                                      PDPA0165
      00150                   OPS    SWITCH  (OPR,LDA,DAC,SHA,XMTAA,XMTAB,XMTBA,LCC)                  PDPA0166
1       ESL CONSOLE ADAPTER - PDP-7 VERSION 3 - 10/10/67 - DAN THORNHILL         03/04/70 1435.0 PAGE 4
                           ESL CONSOLE ADAPTER - USER COMMANDS

                                             TABLE USED BY DAC COMMAND FOR CONFIGURED STORES          PDPA0168
                                                                                                      PDPA0169
                       00160  STOTB  SYN     *                                                        PDPA0170
      00160  0601 00 4 00000         STO     0,4                                                      PDPA0171
      00161  0621 00 4 00000         STA     0,4                                                      PDPA0172
      00162  0622 00 4 00000         STD     0,4                                                      PDPA0173
      00163  0625 00 4 00000         STT     0,4                                                      PDPA0174
                                                                                                      PDPA0175
                       00164  DAC    SYN     *                                                        PDPA0176
      00164  0535 00 2 01017         LAC     CONF,2                                                   PDPA0177
      00165 -0520 00 0 01023         NZT     D                                                        PDPA0178
      00166  0020 00 0 00200         TRA     DAC.2                                                    PDPA0179
      00167  0500 00 0 01021         CLA     EFFA                                                     PDPA0180
      00170  0074 00 4 00004         TSX     CKRLC,4                                                  PDPA0181
      00171  0020 00 0 00777         TRA     BERR                                                     PDPA0182
      00172  0737 00 4 00000         PAC     0,4                                                      PDPA0183
      00173  0500 00 1 01034         CLA     AC,1                                                     PDPA0184
      00174 -0761 00 0 00042         SEB                                                              PDPA0185
      00175  0522 00 2 00160  DAC.1  XEC     STOTB,2       PERFORM CONFIGURED STORE                   PDPA0186
      00176 -0761 00 0 00041         SEA                                                              PDPA0187
      00177  0020 00 0 00140         TRA     FNXT                                                     PDPA0188
      00200  0500 00 1 01034  DAC.2  CLA     AC,1                                                     PDPA0189
      00201  0601 00 0 01067         STO     TEMP                                                     PDPA0190
      00202  0500 00 0 01021         CLA     EFFA                                                     PDPA0191
      00203  0074 00 4 00767         TSX     ACHEK,4                                                  PDPA0192
      00204  0621 00 0 01021         STA     EFFA                                                     PDPA0193
      00205 -3 00000 2 00213         TXL     DAC.3,2,0     WHOLE WORD STORE                           PDPA0194
      00206 -0501 00 0 01707         ORA     =O1000000     ONE WORD                                   PDPA0195
      00207  0560 00 0 01071         LDQ     TEMPTR                                                   PDPA0196
      00210  0074 00 4 01163         TSX     XMT7N,4       READ WORD INTO ACORE                       PDPA0197
      00211 -0774 00 4 01067         AXC     TEMP,4                                                   PDPA0198
      00212  0522 00 2 00160         XEC     STOTB,2                                                  PDPA0199
      00213  0500 00 0 01071  DAC.3  CLA     TEMPTR                                                   PDPA0200
      00214  0560 00 0 01021         LDQ     EFFA                                                     PDPA0201
      00215 -0625 00 0 01066         STL     HOLDUP        TELL 7 TO HOLD UP PICTURE                  PDPA0202
      00216  0074 00 4 01177         TSX     SEND,4        SEND WORD TO PDP-7                         PDPA0203
      00217  0020 00 0 00140         TRA     FNXT                                                     PDPA0204
                                                                                                      PDPA0205
                       00220  LDA    SYN     *                                                        PDPA0206
      00220 -0520 00 0 01023         NZT     D                                                        PDPA0207
      00221  0020 00 0 00232         TRA     LDA.2                                                    PDPA0208
      00222  0500 00 0 01021         CLA     EFFA                                                     PDPA0209
      00223  0074 00 4 00004         TSX     CKRLC,4                                                  PDPA0210
      00224  0020 00 0 00777         TRA     BERR                                                     PDPA0211
      00225 -0761 00 0 00042         SEB                                                              PDPA0212
      00226  0500 60 0 01021  LDA.1  CLA*    EFFA                                                     PDPA0213
      00227 -0761 00 0 00041         SEA                                                              PDPA0214
      00230  0601 00 1 01034         STO     AC,1                                                     PDPA0215
      00231  0020 00 0 00140         TRA     FNXT                                                     PDPA0216
      00232  0500 00 0 01021  LDA.2  CLA     EFFA                                                     PDPA0217
      00233  0074 00 4 00767         TSX     ACHEK,4                                                  PDPA0218
      00234 -0501 00 0 01707         ORA     =O1000000                                                PDPA0219
      00235  0560 00 1 01072         LDQ     ACPNT,1                                                  PDPA0220
      00236  0074 00 4 01163         TSX     XMT7N,4                                                  PDPA0221
      00237  0020 00 0 00140         TRA     FNXT                                                     PDPA0222
1       ESL CONSOLE ADAPTER - PDP-7 VERSION 3 - 10/10/67 - DAN THORNHILL         03/04/70 1435.0 PAGE 5
                           ESL CONSOLE ADAPTER - USER COMMANDS

                                                                                                      PDPA0223
      00240  0500 00 0 01021  LCC    CLA     EFFA                                                     PDPA0224
      00241  0520 00 0 01017         ZET     CONF                                                     PDPA0225
      00242  0771 00 0 00022         ARS     18                                                       PDPA0226
      00243  0560 00 1 01044         LDQ     HIMEM,1       LIMIT NO. OF WORDS POSSIBLE                PDPA0227
      00244                          MIN                                                              PDPA0228
      00247  0621 00 1 01036         STA     CNT,1                                                    PDPA0229
      00250  0020 00 0 00140         TRA     FNXT                                                     PDPA0230
                                                                                                      PDPA0231
                                                                                                      PDPA0232
      00251  0500 00 0 01021  SHA    CLA     EFFA                                                     PDPA0233
      00252  0737 00 4 00000         PAC     ,4                                                       PDPA0234
      00253 -0500 00 1 01034         CAL     AC,1          PICK UP ACCUMULATOR                        PDPA0235
      00254 -0520 00 0 01023         NZT     D             SHIFT LEFT OR RIGHT                        PDPA0236
      00255  0020 00 0 00260         TRA     *+3                                                      PDPA0237
      00256  0767 00 4 00000         ALS     0,4           ..                                         PDPA0238
      00257  0020 00 0 00261         TRA     *+2           ..                                         PDPA0239
      00260  0771 00 4 00000         ARS     0,4                                                      PDPA0240
      00261  0602 00 1 01034         SLW     AC,1          SAVE ACCUMULATOR AFTER SHIFT               PDPA0241
      00262  0020 00 0 00140         TRA     FNXT                                                     PDPA0242
                                                                                                      PDPA0243
      00263  0500 00 0 01023  XMTAA  CLA     D             TO ADDRESS                                 PDPA0244
      00264  0074 00 4 00745         TSX     CKXMA,4                                                  PDPA0245
      00265  0361 00 0 01653         ACL     MOVEF         MOVE FUNCTION                              PDPA0246
      00266  0131 00 0 00000         XCA                                                              PDPA0247
      00267  0500 00 0 01020         CLA     A             FROM ADDRESS                               PDPA0248
      00270  0074 00 4 00745         TSX     CKXMA,4                                                  PDPA0249
      00271 -0734 00 4 00000         PDX     ,4                                                       PDPA0250
      00272 -3 00000 4 00140         TXL     FNXT,4,0      CHECK FOR COUNT OF ZERO                    PDPA0251
      00273 -0625 00 0 01066         STL     HOLDUP        TELL 7 TO HOLD UP PICTURE                  PDPA0252
      00274  0074 00 4 01177         TSX     SEND,4                                                   PDPA0253
      00275  0020 00 0 00140         TRA     FNXT                                                     PDPA0254
                                                                                                      PDPA0255
      00276  0500 00 0 01023  XMTAB  CLA     D             FROM ADDRESS                               PDPA0256
      00277  0074 00 4 00736         TSX     EFAD,4                                                   PDPA0257
      00300  0400 00 1 01036         ADD     CNT,1                                                    PDPA0258
      00301  0074 00 4 00004         TSX     CKRLC,4                                                  PDPA0259
      00302  0020 00 0 00777         TRA     BERR                                                     PDPA0260
      00303  0402 00 1 01036         SUB     CNT,1                                                    PDPA0261
      00304 -0501 00 0 01647         ORA     TAG1          TAG1 FOR BCORE                             PDPA0262
      00305  0131 00 0 00000         XCA                                                              PDPA0263
      00306  0500 00 0 01020         CLA     A                                                        PDPA0264
      00307  0074 00 4 00745         TSX     CKXMA,4                                                  PDPA0265
      00310 -0734 00 4 00000         PDX     ,4                                                       PDPA0266
      00311 -3 00000 4 00140         TXL     FNXT,4,0      CHECK FOR COUNT OF ZERO                    PDPA0267
      00312  0074 00 4 01163         TSX     XMT7N,4                                                  PDPA0268
      00313  0020 00 0 00140         TRA     FNXT                                                     PDPA0269
                                                                                                      PDPA0270
      00314 -0500 00 1 01036  XMTBA  CAL     CNT,1                                                    PDPA0271
      00315  0100 00 0 00140         TZE     FNXT                                                     PDPA0272
      00316  0767 00 0 00022         ALS     18                                                       PDPA0273
      00317  0622 00 0 01022         STD     EFFA1                                                    PDPA0274
      00320  0500 00 0 01023         CLA     D             TO ADDRESS                                 PDPA0275
      00321  0074 00 4 00745         TSX     CKXMA,4                                                  PDPA0276
      00322  0602 00 0 01067         SLW     TEMP                                                     PDPA0277
1       ESL CONSOLE ADAPTER - PDP-7 VERSION 3 - 10/10/67 - DAN THORNHILL         03/04/70 1435.0 PAGE 6
                           ESL CONSOLE ADAPTER - USER COMMANDS

      00323  0500 00 0 01022         CLA     EFFA1         FROM ADDRESS                               PDPA0278
      00324  0074 00 4 00003         TSX     BLKCHK,4                                                 PDPA0279
      00325  0020 00 0 00777         TRA     BERR                                                     PDPA0280
      00326 -0625 00 0 01066         STL     HOLDUP        TELL 7 TO HOLD UP PICTURE                  PDPA0281
      00327  0560 00 0 01067         LDQ     TEMP                                                     PDPA0282
      00330  0074 00 4 01175         TSX     SENDB,4                                                  PDPA0283
      00331  0020 00 0 00140         TRA     FNXT                                                     PDPA0284
1       ESL CONSOLE ADAPTER - PDP-7 VERSION 3 - 10/10/67 - DAN THORNHILL         03/04/70 1435.0 PAGE 7
                           ESL CONSOLE ADAPTER - EXTENDED OP CODES ('OPR')

      00332  0535 00 4 01023  OPR    LAC     D,4                                                      PDPA0286
      00333 -3 00000 4 00060         TXL     ENDD,4,0      SKIP TEST IF ZERO                          PDPA0287
      00334 -3 77740 4 00146         TXL     ILL,4,-OPCNT  SEE IF IN BOUNDS                           PDPA0288
      00335  0020 00 4 00336         TRA     OPRS,4                                                   PDPA0289
                                                                                                      PDPA0290
                                             OPR TRANSFER TABLE                                       PDPA0291
                                                                                                      PDPA0292
                       00336  OPRS   SYN     *                                                        PDPA0293
      00336                          SWITCH  (ENDD,LOGON,LOGOF,SSC,SAB,GAT,WAIT,OP07,CLEAR,CLATN)     PDPA0294
      00350                          SWITCH  (REALT,OP11,OP12,CAM,OP14,OP15,OP16,OP17,OP18,OP19,DIGI) PDPA0295
      00363                          SWITCH  (TOGA,TOGB,ANLOG,PEN,OP25,XMT77,XMT7B,GAT7,XMTB7,OP30)   PDPA0296
      00375                          SWITCH  (CALL7)                                                  PDPA0297
                       00040  OPCNT  SYN     *-OPRS        COUNT OF OPR CLASS INSTRUCTIONS            PDPA0298
                                                                                                      PDPA0299
                       00060  ENDD   SYN     RET                                                      PDPA0300
                                                                                                      PDPA0301
                       00146  OP07   SYN     ILL                                                      PDPA0302
                       00146  OP11   SYN     ILL                                                      PDPA0303
                       00146  OP12   SYN     ILL                                                      PDPA0304
                       00146  OP14   SYN     ILL                                                      PDPA0305
                       00146  OP15   SYN     ILL                                                      PDPA0306
                       00146  OP16   SYN     ILL                                                      PDPA0307
                       00146  OP17   SYN     ILL                                                      PDPA0308
                       00146  OP18   SYN     ILL                                                      PDPA0309
                       00146  OP19   SYN     ILL                                                      PDPA0310
                       00146  OP25   SYN     ILL                                                      PDPA0311
                       00146  OP30   SYN     ILL                                                      PDPA0312
                                                                                                      PDPA0313
      00376  0074 00 4 00721  LOGON  TSX     TEST7,4       SEE IF PDP7 IS THERE                       PDPA0314
      00377                          ERRSET  TNZ,NOKLUD    IF NOT SET ERROR                           PDPA0315
      00402  0074 00 4 00506         TSX     LOFF,4        GET RID OF PREVIOUS USER IF ANY            PDPA0316
      00403  0634 00 1 00411         SXA     LOG.1,1       SAVE USER                                  PDPA0317
      00404  0754 00 1 00000         PXA     ,1            GET OTHER USER                             PDPA0318
      00405  0737 00 1 00000         PAC     ,1                                                       PDPA0319
      00406  1 77777 1 00407         TXI     *+1,1,-1                                                 PDPA0320
      00407  0074 00 4 00474         TSX     CKLOFF,4      LOG OFF OTHER USER IF HE IS GONE           PDPA0321
      00410  0020 00 0 00411         TRA     *+1           HE IS GONE                                 PDPA0322
      00411  0774 00 1 00000  LOG.1  AXT     **,1          RESTORE THIS USER                          PDPA0323
      00412  0500 00 0 01022         CLA     EFFA1         GET NUMBER OF CONSOLES REQUESTED           PDPA0324
      00413  0340 00 0 01707         CAS     =O1000000     SEE IF EXEC SEND REQUEST, DECR. NON-ZERO   PDPA0325
      00414  0020 00 0 00466         TRA     EXSEND                                                   PDPA0326
      00415  3 00000 0 00000         TXH     0,0,0         NOP                                        PDPA0327
      00416  0601 00 0 01064         STO     WANTED        AND SAVE FOR WANTED                        PDPA0328
      00417  0400 00 0 01062         ADD     CONUSD        ADD PREVIOUS TOTAL                         PDPA0329
      00420  0340 00 0 01701         CAS     =2            COMPARE WITH MAXIMUM                       PDPA0330
      00421  0020 00 0 00424         TRA     *+3           ILLEGAL                                    PDPA0331
      00422  0020 00 0 00426         TRA     LOG.3                                                    PDPA0332
      00423  0020 00 0 00426         TRA     LOG.3         ..                                         PDPA0333
      00424 -0055 00  000010         SIL     FULL          SET FULL CONSOLE ALLOTMENT BIT             PDPA0334
      00425  0020 00 0 00054         TRA     SETER2        AND SET ERROR                              PDPA0335
      00426  0621 00 0 01062  LOG.3  STA     CONUSD        ..                                         PDPA0336
      00427  0500 00 0 74502         CLA     C$USER                                                   PDPA0337
      00430  0621 00 1 01026         STA     SIGNED,1                                                 PDPA0338
      00431  0737 00 2 00000         PAC     0,2                                                      PDPA0339
      00432  0500 00 2 76427         CLA     C$PROGN,2     GET USER'S PROGRAMMER NUMBER               PDPA0340
1       ESL CONSOLE ADAPTER - PDP-7 VERSION 3 - 10/10/67 - DAN THORNHILL         03/04/70 1435.0 PAGE 8
                           ESL CONSOLE ADAPTER - EXTENDED OP CODES ('OPR')

      00433  0601 00 1 01030         STO     USERNO,1                                                 PDPA0341
      00434  0600 00 1 01046         STZ     ATNSTR,1                                                 PDPA0342
      00435  0600 00 1 01050         STZ     ATNLNG,1                                                 PDPA0343
      00436 -0625 00 1 01040         STL     WAITSW,1      AND FORCE INPUT WAIT ON EMPTY ATNBUF       PDPA0344
      00437  0500 00 0 01700         CLA     =1                                                       PDPA0345
      00440  0402 00 0 01064         SUB     WANTED                                                   PDPA0346
      00441  0621 00 0 01063         STA     BOTHSW                                                   PDPA0347
      00442  0600 00 1 01042         STZ     RELOC,1       ZERO IF NOT ON KLUDGE                      PDPA0348
      00443  0520 00 0 01017         ZET     CONF          NON-ZERO TO LOGON PDP-7 ONLY               PDPA0349
      00444  0020 00 0 00456         TRA     LOG.4                                                    PDPA0350
      00445  0560 00 0 01075         LDQ     SGNON7        7 SGNON CALL CODE                          PDPA0351
      00446 -0500 00 0 01063         CAL     BOTHSW        ARG IS BOTHSW                              PDPA0352
      00447  0074 00 4 01177         TSX     SEND,4        CALL 7 SGNON ROUTINE                       PDPA0353
      00450  0074 00 4 01001         TSX     COMGET,4      GET COMMON PARAMETERS                      PDPA0354
      00451  0500 00 0 01054         CLA     DFPAR                                                    PDPA0355
      00452  0621 00 1 01042         STA     RELOC,1       ABS ADDR OF START OF DISP FILE             PDPA0356
      00453  0771 00 0 00022         ARS     18                                                       PDPA0357
      00454  0621 00 1 01044         STA     HIMEM,1       LENGTH OF D.F. IN 7094 WORDS               PDPA0358
      00455  0601 00 1 01034         STO     AC,1                                                     PDPA0359
      00456  0055 00  000020  LOG.4  SIR     SIGNBT        INDICATE USER SIGNED ON                    PDPA0360
      00457  0500 00 0 01103         CLA     BTHCON        SET STATE BITS FOR SIGNED ON               PDPA0361
      00460 -0520 00 0 01063         NZT     BOTHSW                                                   PDPA0362
      00461 -0320 00 1 01104         ANA     CONSBT,1      ONLY ON ONE CONSOLE                        PDPA0363
      00462  0043 00 0 00000         OAI                   PUT CHANGE IN THIS STATE WORD              PDPA0364
      00463 -0602 00 0 01032         ORS     STATE                                                    PDPA0365
      00464 -0602 00 0 01033         ORS     STATE+1                                                  PDPA0366
      00465  0020 00 0 00140         TRA     FNXT                                                     PDPA0367
                                                                                                      PDPA0368
      00466  0500 00 0 01022  EXSEND CLA     EFFA1         GET 94FROM,,N                              PDPA0369
      00467  0074 00 4 00003         TSX     BLKCHK,4                                                 PDPA0370
      00470  0020 00 0 00777         TRA     BERR                                                     PDPA0371
      00471  0560 00 0 01703         LDQ     =6            TO ADDRESS FOR EXEC                        PDPA0372
      00472  0074 00 4 01175         TSX     SENDB,4       SEND IT                                    PDPA0373
      00473  0020 00 0 00140         TRA     FNXT                                                     PDPA0374
                                                                                                      PDPA0375
      00474 -0500 00 1 01026  CKLOFF CAL     SIGNED,1      LOG OFF USER IF HE HAS GONE AWAY           PDPA0376
      00475  0100 00 4 00002         TZE     2,4           NO ONE THERE                               PDPA0377
      00476  0737 00 2 00000         PAC     ,2                                                       PDPA0378
      00477 -0520 00 2 76500         NZT     C$PROBN,2                                                PDPA0379
      00500  0020 00 0 00506         TRA     LOFF          LOGGED OUT                                 PDPA0380
      00501 -0500 00 2 76427         CAL     C$PROGN,2                                                PDPA0381
      00502  0322 00 1 01030         ERA     USERNO,1                                                 PDPA0382
      00503 -0100 00 0 00506         TNZ     LOFF          SOMEONE ELSE                               PDPA0383
      00504  0020 00 4 00002         TRA     2,4           STILL HERE                                 PDPA0384
                                                                                                      PDPA0385
      00505 -0774 00 4 00057  LOGOF  AXC     RET-1,4       LOG OFF,RETURN TO RET.                     PDPA0386
                                                                                                      PDPA0387
      00506  0634 00 4 00542  LOFF   SXA     LOFFX4,4      SAVE XR4                                   PDPA0388
      00507  0520 00 1 01026         ZET     SIGNED,1      IS USER ON                                 PDPA0389
      00510 -0520 00 0 01062         NZT     CONUSD        IS ANYBODY ON                              PDPA0390
      00511  0020 00 4 00001         TRA     1,4           NO                                         PDPA0391
      00512  0502 00 0 01700         CLS     =1            RESET CONUSD                               PDPA0392
      00513  0520 00 0 01063         ZET     BOTHSW                                                   PDPA0393
      00514  0502 00 0 01701         CLS     =2                                                       PDPA0394
      00515  0400 00 0 01062         ADD     CONUSD        ..                                         PDPA0395
1       ESL CONSOLE ADAPTER - PDP-7 VERSION 3 - 10/10/67 - DAN THORNHILL         03/04/70 1435.0 PAGE 9
                           ESL CONSOLE ADAPTER - EXTENDED OP CODES ('OPR')

      00516  0621 00 0 01062         STA     CONUSD        AND READJUST COUNT                         PDPA0396
      00517  0057 00  777437         RIR     777777-MASBIT-SLABIT-CONBIT                              PDPA0397
      00520  0600 00 1 01026         STZ     SIGNED,1      ZERO SIGNON                                PDPA0398
      00521  0500 00 0 01103         CLA     BTHCON        RESET CONSOLE USED BIT(S) IN STATE WORD    PDPA0399
      00522 -0520 00 0 01063         NZT     BOTHSW                                                   PDPA0400
      00523 -0320 00 1 01104         ANA     CONSBT,1      ONLY ON ONE CONSOLE                        PDPA0401
      00524 -0042 00 0 00000         RIA                   RESET THIS STATE WORD                      PDPA0402
      00525  0760 00 0 00006         COM                                                              PDPA0403
      00526  0320 00 0 01032         ANS     STATE                                                    PDPA0404
      00527  0320 00 0 01033         ANS     STATE+1                                                  PDPA0405
      00530  0600 00 0 01063         STZ     BOTHSW        RESET BOTHSW                               PDPA0406
      00531 -0520 00 1 01042         NZT     RELOC,1       IS USER USING KLUDGE                       PDPA0407
      00532  0020 00 4 00001         TRA     1,4           NO, ONLY PDP-7                             PDPA0408
      00533  0500 00 0 01022         CLA     EFFA1         IS THIS SGNOFF ON EXEC SEND REQUEST        PDPA0409
      00534  0340 00 0 01707         CAS     =O1000000                                                PDPA0410
      00535  0020 00 4 00001         TRA     1,4           YES                                        PDPA0411
      00536  0020 00 4 00001         TRA     1,4           HMMMM                                      PDPA0412
      00537  0560 00 0 01074         LDQ     SGNOF7        TELL PDP-7                                 PDPA0413
      00540 -0754 00 0 00000         ZAC                                                              PDPA0414
      00541  0074 00 4 01177         TSX     SEND,4                                                   PDPA0415
      00542  0774 00 4 00000  LOFFX4 AXT     **,4          RESTORE XR4                                PDPA0416
      00543  0020 00 4 00001         TRA     1,4           ..                                         PDPA0417
                                                                                                      PDPA0418
      00544  0020 00 0 00140  SSC    TRA     FNXT          SET TRAP COUNTER, NOW IGNORED              PDPA0419
                                                                                                      PDPA0420
      00545  0500 00 0 01021  SAB    CLA     EFFA          SET ATTENTION BUFFER                       PDPA0421
      00546  0600 00 0 01067         STZ     TEMP                                                     PDPA0422
      00547 -0100 00 0 00554         TNZ     SAB1                                                     PDPA0423
      00550  0600 00 1 01046         STZ     ATNSTR,1                                                 PDPA0424
      00551  0600 00 1 01050         STZ     ATNLNG,1                                                 PDPA0425
      00552  0057 00  002000         RIR     ATNBIT        RESET EXISTENCE                            PDPA0426
      00553  0020 00 0 00571         TRA     SAB2          AND RETURN                                 PDPA0427
      00554  0074 00 4 00767  SAB1   TSX     ACHEK,4       CHECK ADDRESS                              PDPA0428
      00555  0621 00 0 01067         STA     TEMP                                                     PDPA0429
      00556  0500 00 0 01021         CLA     EFFA                                                     PDPA0430
      00557  0601 00 1 01046         STO     ATNSTR,1                                                 PDPA0431
      00560  0400 00 1 01036         ADD     CNT,1         FIND LENGTH OF BUFFER                      PDPA0432
      00561  0340 00 1 01044         CAS     HIMEM,1       COMPARE WITH MAX                           PDPA0433
      00562  0500 00 1 01044         CLA     HIMEM,1                                                  PDPA0434
      00563  3 00000 0 00000         TXH     0,0,0         NOP                                        PDPA0435
      00564  0402 00 1 01046         SUB     ATNSTR,1      A LEGAL COUNT                              PDPA0436
      00565  0601 00 1 01050         STO     ATNLNG,1      LENGTH OF BUFFER                           PDPA0437
      00566  0767 00 0 00022         ALS     18                                                       PDPA0438
      00567  0622 00 0 01067         STD     TEMP                                                     PDPA0439
      00570  0055 00  002000         SIR     ATNBIT        INDICATE USER HAS ATTENTION BUFFER         PDPA0440
      00571  0560 00 0 01100  SAB2   LDQ     SAB7                                                     PDPA0441
      00572  0500 00 0 01067  SET7   CLA     TEMP                                                     PDPA0442
      00573  0074 00 4 01177         TSX     SEND,4        CALL EXEC TO INITIALIZE                    PDPA0443
      00574  0020 00 0 00140         TRA     FNXT                                                     PDPA0444
                                                                                                      PDPA0445
      00575  0500 00 0 01021  REALT  CLA     EFFA          SET REAL-TIME BUFFERS                      PDPA0446
      00576  0600 00 0 01067         STZ     TEMP                                                     PDPA0447
      00577 -0100 00 0 00602         TNZ     *+3                                                      PDPA0448
      00600  0057 00  000001         RIR     REALBT        ..                                         PDPA0449
      00601  0020 00 0 00610         TRA     REALT7                                                   PDPA0450
1       ESL CONSOLE ADAPTER - PDP-7 VERSION 3 - 10/10/67 - DAN THORNHILL         03/04/70 1435.0 PAGE 10
                           ESL CONSOLE ADAPTER - EXTENDED OP CODES ('OPR')

      00602  0074 00 4 00767         TSX     ACHEK,4       CHECK ADDRESS                              PDPA0451
      00603  0621 00 0 01067         STA     TEMP          ..                                         PDPA0452
      00604  0500 00 1 01036         CLA     CNT,1         ..                                         PDPA0453
      00605  0767 00 0 00022         ALS     18                                                       PDPA0454
      00606  0622 00 0 01067         STD     TEMP          ..                                         PDPA0455
      00607  0055 00  000001         SIR     REALBT        ..                                         PDPA0456
      00610  0560 00 0 01101  REALT7 LDQ     RLT7                                                     PDPA0457
      00611  0020 00 0 00572         TRA     SET7                                                     PDPA0458
                                                                                                      PDPA0459
      00612  0500 00 0 01021  WAIT   CLA     EFFA          SET WAIT-NOWAIT SWITCH                     PDPA0460
      00613  0601 00 1 01040         STO     WAITSW,1                                                 PDPA0461
      00614  0020 00 0 00140         TRA     FNXT                                                     PDPA0462
                                                                                                      PDPA0463
      00615  0560 00 0 01021  CAM    LDQ     EFFA          N FOR FRAME COUNT                          PDPA0464
      00616 -0773 00 0 00022         RQL     18                                                       PDPA0465
      00617 -0500 00 0 01021         CAL     EFFA                                                     PDPA0466
      00620  0361 00 0 01712         ACL     =O777777000000                                           PDPA0467
      00621 -0520 00 0 01017         NZT     CONF          SEND N,,-0 TO START WITH CAMERA OFF        PDPA0468
      00622 -0763 00 0 00022         LGL     18            SEND N,,N FOR ON                           PDPA0469
      00623  0560 00 0 01102         LDQ     CAM7                                                     PDPA0470
      00624  0020 00 0 00573         TRA     SET7+1                                                   PDPA0471
                                                                                                      PDPA0472
      00625  0500 00 0 01021  CLEAR  CLA     EFFA          POINTER TO EFFA, IF NON-ZERO ALSO CLATN    PDPA0473
      00626  0560 00 0 01076         LDQ     CLEAR7                                                   PDPA0474
      00627  0074 00 4 01177         TSX     SEND,4                                                   PDPA0475
      00630  0020 00 0 00140         TRA     FNXT                                                     PDPA0476
                                                                                                      PDPA0477
      00631  0560 00 0 01077  CLATN  LDQ     CLATN7                                                   PDPA0478
      00632 -0754 00 0 00000         ZAC                                                              PDPA0479
      00633  0074 00 4 01177         TSX     SEND,4                                                   PDPA0480
      00634  0020 00 0 00140         TRA     FNXT                                                     PDPA0481
                                                                                                      PDPA0482
      00635  0056 00  002000  GAT    RNT     ATNBIT        HAS HE SET AN ATTENTION BUFFER             PDPA0483
      00636  0020 00 0 00140         TRA     FNXT          NO                                         PDPA0484
      00637  0500 00 0 01704         CLA     =20           SET A MAXIMUM                              PDPA0485
      00640  0601 00 1 01034         STO     AC,1                                                     PDPA0486
      00641  0020 00 0 01136         TRA     GAT7                                                     PDPA0487
                                                                                                      PDPA0488
                                             NO ATTENTIONS AVAILABLE                                  PDPA0489
                                                                                                      PDPA0490
      00642 -0520 00 1 01040  NOATN  NZT     WAITSW,1      DOES USER WANT INPUT WAIT                  PDPA0491
      00643  0020 00 0 00655         TRA     GAT.1         NO                                         PDPA0492
      00644  0055 00  000400         SIR     INWBIT        YES - INDICATE USER IN INPUT WAIT          PDPA0493
      00645  0604 00 1 01032         STI     STATE,1       SAVE INDICATORS                            PDPA0494
      00646                          SCHEDL  =2,C$USER,=4                                             PDPA0495
      00652 -0625 00 0 01065         STL     CYCSW         INDICATE TO CONTROL FOR CYCLE              PDPA0496
      00653  0441 00 1 01032         LDI     STATE,1       RESTORE INDICATORS                         PDPA0497
      00654  0020 00 0 00140         TRA     FNXT          ..                                         PDPA0498
      00655  0500 00 0 01021  GAT.1  CLA     EFFA          SET FIRST WORD ZERO                        PDPA0499
      00656  0074 00 4 00004         TSX     CKRLC,4       CHECK B-CORE ADDRESS                       PDPA0500
      00657  0020 00 0 00777         TRA     BERR          RELOC ERROR.                               PDPA0501
      00660  0737 00 4 00000         PAC     0,4           ..                                         PDPA0502
      00661 -0761 00 0 00042         SEB                                                              PDPA0503
      00662  0600 00 4 00000         STZ     0,4           ..                                         PDPA0504
      00663 -0761 00 0 00041         SEA                                                              PDPA0505
1       ESL CONSOLE ADAPTER - PDP-7 VERSION 3 - 10/10/67 - DAN THORNHILL         03/04/70 1435.0 PAGE 11
                           ESL CONSOLE ADAPTER - EXTENDED OP CODES ('OPR')

      00664  0020 00 0 00140         TRA     FNXT          ..                                         PDPA0506
                                                                                                      PDPA0507
      00665                   DIGI   ACTIVR  DIGISW                                                   PDPA0508
                                                                                                      PDPA0509
      00671                   TOGA   ACTIVR  BANKA                                                    PDPA0510
                                                                                                      PDPA0511
      00675                   TOGB   ACTIVR  BANKB                                                    PDPA0512
                                                                                                      PDPA0513
      00701                   ANLOG  ACTIVR  SHAFT                                                    PDPA0514
                                                                                                      PDPA0515
                       00705  PEN    SYN     *                                                        PDPA0516
                              *      USE ACTIVR IF DON'T NEED TO CONVERT PEN                          PDPA0517
      00705  0074 00 4 01001         TSX     COMGET,4                                                 PDPA0518
      00706 -0500 00 0 01055         CAL     PNPOS                                                    PDPA0519
      00707  0604 00 1 01032         STI     STATE,1                                                  PDPA0520
      00710  0044 00 0 00000         PAI                                                              PDPA0521
      00711  0445 00 0 01711         RIS     =O760000760000                                           PDPA0522
      00712  0054 00  001000         RFT     1000          IS IT MINUS                                PDPA0523
      00713  0055 00  017000         SIR     17000         YES                                        PDPA0524
      00714 -0054 00  001000         LFT     1000                                                     PDPA0525
      00715 -0055 00  017000         SIL     17000                                                    PDPA0526
      00716  0604 00 1 01034         STI     AC,1                                                     PDPA0527
      00717  0441 00 1 01032         LDI     STATE,1       RESTORE STATE TO INDICATORS                PDPA0528
      00720  0020 00 0 00140         TRA     FNXT          NEXT..                                     PDPA0529
1       ESL CONSOLE ADAPTER - PDP-7 VERSION 3 - 10/10/67 - DAN THORNHILL         03/04/70 1435.0 PAGE 12
                           ESL CONSOLE ADAPTER - UTILTY ROUTINES FOR DSCOPE

                                             TEST FOR PRESENCE OF PDP-7 ON CHANNEL D                  PDPA0531
                                                                                                      PDPA0532
      00721  0634 00 1 00734  TEST7  SXA     TEST7X,1                                                 PDPA0533
      00722  0604 00 0 01067         STI     TEMP                                                     PDPA0534
      00723 -0661 00 0 01672         SSLD    SENSE                                                    PDPA0535
      00724  0441 00 0 01672         LDI     SENSE                                                    PDPA0536
      00725 -0754 00 0 00000         ZAC                                                              PDPA0537
      00726 -0054 00  777777         LFT     777777                                                   PDPA0538
      00727  0020 00 0 00731         TRA     *+2                                                      PDPA0539
      00730  0020 00 0 00733         TRA     TEST7N        ALL OFF                                    PDPA0540
      00731 -0056 00  001000         LNT     NOTRUN        IS 7 NOT RUNNING                           PDPA0541
      00732  0760 00 0 00006         COM                   NO, NON-ZERO AC                            PDPA0542
      00733  0441 00 0 01067  TEST7N LDI     TEMP                                                     PDPA0543
      00734  0774 00 1 00000  TEST7X AXT     **,1                                                     PDPA0544
      00735  0020 00 4 00001         TRA     1,4           AC NON-ZERO IF PDP-7 THERE.                PDPA0545
                                                                                                      PDPA0546
                                             CALCULATE EFFECTIVE ADDRESS                              PDPA0547
                                                                                                      PDPA0548
      00736 -0520 00 0 01016  EFAD   NZT     IND                                                      PDPA0549
      00737  0020 00 4 00001         TRA     1,4                                                      PDPA0550
      00740  0621 00 0 00742         STA     *+2                                                      PDPA0551
      00741 -0761 00 0 00042         SEB                                                              PDPA0552
      00742  0500 00 0 00000         CLA     **                                                       PDPA0553
      00743 -0761 00 0 00041         SEA                                                              PDPA0554
      00744  0020 00 4 00001         TRA     1,4                                                      PDPA0555
                                                                                                      PDPA0556
                                             CHECK TRANSMISSION TO DISPLAY FILE                       PDPA0557
                                             ASSURE THAT IT IS NOT INTO ATTENTION BUFFER              PDPA0558
                                             OR BEYOND END OF FILE                                    PDPA0559
                                                                                                      PDPA0560
      00745  0601 00 0 01067  CKXMA  STO     TEMP          ADDR IS IN AC, N IN CNT,1.                 PDPA0561
      00746  0402 00 1 01046         SUB     ATNSTR,1      IF ADDR LES ATNSTR                         PDPA0562
      00747  0120 00 0 00753         TPL     CKXMA1                                                   PDPA0563
      00750  0400 00 1 01036         ADD     CNT,1         THEN IF ADDR+COUNT GRT ATNSTR              PDPA0564
      00751  0120 00 0 00775         TPL     AERR               THEN ERROR                            PDPA0565
      00752  0020 00 0 00761         TRA     CKXMA2             ELSE OK                               PDPA0566
      00753  0402 00 1 01050  CKXMA1 SUB     ATNLNG,1      ELSE IF ADDR LES ATNSTR+ATNLNG             PDPA0567
      00754 -0120 00 0 00775         TMI     AERR               THEN ERROR                            PDPA0568
      00755  0500 00 1 01044         CLA     HIMEM,1            ELSE IF ADDR+CNT GRT HIMEM            PDPA0569
      00756  0402 00 1 01036         SUB     CNT,1                                                    PDPA0570
      00757  0402 00 0 01067         SUB     TEMP                                                     PDPA0571
      00760 -0120 00 0 00775         TMI     AERR                    THEN ERROR                       PDPA0572
                                                                     ELSE OK                          PDPA0573
      00761  0500 00 1 01036  CKXMA2 CLA     CNT,1                                                    PDPA0574
      00762  0767 00 0 00022         ALS     18                                                       PDPA0575
      00763  0361 00 0 01067         ACL     TEMP                                                     PDPA0576
      00764  0361 00 0 01067         ACL     TEMP          DOUBLE FOR PDP-7 ADDRESS                   PDPA0577
      00765  0361 00 1 01042         ACL     RELOC,1       ABS ADDR,,COUNT IN AC                      PDPA0578
      00766  0020 00 4 00001         TRA     1,4                                                      PDPA0579
                                                                                                      PDPA0580
                                             CHECK THAT ADDRESS IS IN DISPLAY FILE                    PDPA0581
                                                                                                      PDPA0582
      00767 -0340 00 1 01044  ACHEK  LAS     HIMEM,1                                                  PDPA0583
      00770  0020 00 0 00775         TRA     AERR                                                     PDPA0584
      00771  3 00000 0 00000  NOP    TXH     0,0,0         NOP                                        PDPA0585
1       ESL CONSOLE ADAPTER - PDP-7 VERSION 3 - 10/10/67 - DAN THORNHILL         03/04/70 1435.0 PAGE 13
                           ESL CONSOLE ADAPTER - UTILTY ROUTINES FOR DSCOPE

      00772  0767 00 0 00001         ALS     1             DOUBLE FOR 7 ADDRESS                       PDPA0586
      00773  0400 00 1 01042         ADD     RELOC,1       RELOCATE IT                                PDPA0587
      00774  0020 00 4 00001         TRA     1,4                                                      PDPA0588
                                                                                                      PDPA0589
                                             ERROR ROUTINES                                           PDPA0590
      00775 -0055 00  000001  AERR   SIL     PROTA         PROTECTION ERROR - CORE 'A'                PDPA0591
      00776  0020 00 0 00054         TRA     SETER                                                    PDPA0592
                                                                                                      PDPA0593
      00777 -0055 00  000002  BERR   SIL     PROTB         PROTECTION ERROR - CORE B                  PDPA0594
      01000  0020 00 0 00054         TRA     SETER                                                    PDPA0595
                                                                                                      PDPA0596
                                             GET USER COMMON FROM PDP-7                               PDPA0597
                                                                                                      PDPA0598
      01001  0520 00 0 01052  COMGET ZET     COMGOT        HAS IT BEEN GOTTEN THIS DSCOPE CALL        PDPA0599
      01002  0020 00 4 00001         TRA     1,4           YES                                        PDPA0600
      01003  0634 00 4 01012         SXA     CGX4,4                                                   PDPA0601
      01004  0500 00 0 01053         CLA     COMPNT        DECREMENT HAS COUNT, ADDR NOT USED         PDPA0602
      01005  0560 00 0 01652         LDQ     GETCMF        EVENTUALLY COMBINE WITH XMT7N              PDPA0603
      01006  0074 00 4 01177         TSX     SEND,4                                                   PDPA0604
      01007  0500 00 0 01053         CLA     COMPNT                                                   PDPA0605
      01010  0074 00 4 01320         TSX     RECEIV,4                                                 PDPA0606
      01011 -0625 00 0 01052         STL     COMGOT                                                   PDPA0607
      01012  0774 00 4 00000  CGX4   AXT     **,4                                                     PDPA0608
      01013  0020 00 4 00001         TRA     1,4                                                      PDPA0609
1       ESL CONSOLE ADAPTER - PDP-7 VERSION 3 - 10/10/67 - DAN THORNHILL         03/04/70 1435.0 PAGE 14
                           ESL CONSOLE ADAPTER - DSCOPE CONSTANTS AND STORAGE

      01014                   SIND   BSS     1             STORAGE FOR SENSE INDICATORS               PDPA0611
      01015                   COMND  BSS     1             CURRENT COMMAND BEING RUN                  PDPA0612
      01016                   IND    BSS     1             INDIRECT FILES OF COMMAND WORD             PDPA0613
      01017                   CONF   BSS     1             CONFIGURATION FILES OF COMMAND WORD        PDPA0614
      01020                   A      BSS     1             ADDRESS FILES OF COMMAND WORD              PDPA0615
      01021                   EFFA   BSS     1             EFFECTIVE ADDRESS OF COMMAND WORD          PDPA0616
      01022                   EFFA1  BSS     1             FULL WORD EFFA                             PDPA0617
      01023                   D      BSS     1             DECREMENT FIELD OF COMMAND WORD            PDPA0618
                                                                                                      PDPA0619
      01024  070000000400     KLUNIT BCI     1,700040      TYPEWRITER I.D. CODES FOR KLUDGE USERS     PDPA0620
      01025  070000000402            BCI     1,700042      ..                                         PDPA0621
                                                                                                      PDPA0622
      01026                   SIGNED BSS     NOCONS        NON-ZERO IF USER SIGNED ON. ADDR=C$USER.   PDPA0623
      01030                   USERNO BSS     NOCONS        USER PROGRAMMER NUMBERS                    PDPA0624
      01032                   STATE  BSS     NOCONS        USER STATE WORDS                           PDPA0625
      01034                   AC     BSS     NOCONS        USER'S PSEUDO-ACCUMULATOR                  PDPA0626
      01036                   CNT    BSS     NOCONS        USER'S CONTROL COUNTER FOR XMT             PDPA0627
      01040                   WAITSW BSS     NOCONS        NON-ZERO IF USER PERMITTED INPUT WAIT      PDPA0628
      01042                   RELOC  BSS     NOCONS        RELOCATION VALUES FOR USER'S DISPLAY FILE  PDPA0629
      01044                   HIMEM  BSS     NOCONS        USER'S UPPER MEMORY BOUND                  PDPA0630
      01046                   ATNSTR BSS     NOCONS        START OF USER ATTENTION BUFFER             PDPA0631
      01050                   ATNLNG BSS     NOCONS        LENGTH OF USER ATTENTION BUFFER            PDPA0632
                                                                                                      PDPA0633
                                             COMMON COPIED FROM PDP-7                                 PDPA0634
      01052  0 00000 0 00000  COMGOT PZE                   NON-ZERO IF COMMON GOTTEN THIS DSCOPE CALL PDPA0635
      01053  0 00006 0 01054  COMPNT PZE     COMMON,,COMLNG                                           PDPA0636
                       01054  COMMON SYN     *                                                        PDPA0637
      01054  0 00000 0 00000  DFPAR                        OR DOES THIS GO AT OTHER END               PDPA0638
      01055  0 00000 0 00000  PNPOS                                                                   PDPA0639
      01056  0 00000 0 00000  BANKA                                                                   PDPA0640
      01057  0 00000 0 00000  BANKB                                                                   PDPA0641
      01060  0 00000 0 00000  SHAFT                                                                   PDPA0642
      01061  0 00000 0 00000  DIGISW                                                                  PDPA0643
                       00006  COMLNG SYN     *-COMMON                                                 PDPA0644
                                                                                                      PDPA0645
                                             OTHER STORAGE                                            PDPA0646
      01062  0 00000 0 00000  CONUSD PZE     0             NUMBER OF CONSOLES IN USE                  PDPA0647
      01063  0 00000 0 00000  BOTHSW PZE     0             NON-ZERO IF USER IS ON BOTH CONSOLES       PDPA0648
      01064                   WANTED BSS     1             NUMBER OF CONSOLES DESIRED AT SGNON        PDPA0649
      01065  0 00000 0 00000  CYCSW  PZE     0             NON-ZERO TO CYCLE USER                     PDPA0650
      01066  0 00000 0 00000  HOLDUP PZE     0             NON-ZERO TO HOLD UP PICT FOR DSCOPE CALL   PDPA0651
      01067                   TEMP   BSS     2                                                        PDPA0652
                                                                                                      PDPA0653
                                             POINTERS                                                 PDPA0654
      01071  0 00001 0 01067  TEMPTR PZE     TEMP,,1       TEMP,ACORE,ONE WORD                        PDPA0655
      01072  0 00000 0 01034  ACPNT  PZE     AC                                                       PDPA0656
      01073  0 00000 0 01035         PZE     AC+1                                                     PDPA0657
                                                                                                      PDPA0658
                                             PDP-7 SUBROUTINE CALL CODES                              PDPA0659
      01074  0 00000 3 00000  SGNOF7 PZE     0,3           TAG 3 IS CALL CODE, ADDRESS IS ROUTINE CODEPDPA0660
      01075  0 00000 3 00001  SGNON7 PZE     1,3                                                      PDPA0661
      01076  0 00000 3 00002  CLEAR7 PZE     2,3                                                      PDPA0662
      01077  0 00000 3 00003  CLATN7 PZE     3,3                                                      PDPA0663
      01100  0 00000 3 00004  SAB7   PZE     4,3                                                      PDPA0664
      01101  0 00000 3 00005  RLT7   PZE     5,3                                                      PDPA0665
1       ESL CONSOLE ADAPTER - PDP-7 VERSION 3 - 10/10/67 - DAN THORNHILL         03/04/70 1435.0 PAGE 15
                           ESL CONSOLE ADAPTER - DSCOPE CONSTANTS AND STORAGE

      01102  0 00000 3 00006  CAM7   PZE     6,3                                                      PDPA0666
1       ESL CONSOLE ADAPTER - PDP-7 VERSION 3 - 10/10/67 - DAN THORNHILL         03/04/70 1435.0 PAGE 16
                           ESL CONSOLE ADAPTER - STATE WORD DEFINITION

                                             ERROR BITS FOR STATE WORDS                               PDPA0668
                                                                                                      PDPA0669
                      400000  ERBIT  BOOL    400000        ERROR BIT                                  PDPA0670
                      000001  PROTA  BOOL    1             PROTECTION ERROR - CORE A                  PDPA0671
                      000002  PROTB  BOOL    2             PROTECTION ERROR - CORE B                  PDPA0672
                      000004  NOKLUD BOOL    4             KLUDGE IS NOT ATTACHED                     PDPA0673
                      000010  FULL   BOOL    10            CONSOLE UNAVAILABLE NOW                    PDPA0674
                      000020  ILLOP  BOOL    20            ILLEGAL OPERATE CLASS INSTRUCTION          PDPA0675
                      000040  NOT908 BOOL    40            USER NOT IN 908 T.S.                       PDPA0676
                      000100  GRT100 BOOL    100           MORE THAN 100 COMMANDS SPECIFIED           PDPA0677
                                                                                                      PDPA0678
                                             DEFINITION OF BITS IN USER STATE WORDS                   PDPA0679
                                                                                                      PDPA0680
                      000001  REALBT BOOL    1             IF USER HAS SPECIFIED REAL-TIME INTERACTIONPDPA0681
                      000020  SIGNBT BOOL    20            IF THIS USER IS SIGNED ON                  PDPA0682
                      000040  CONBIT BOOL    40            USER NO.                                   PDPA0683
                      000100  MASBIT BOOL    100           MASTER CONSOLE IN USE                      PDPA0684
                      000200  SLABIT BOOL    200           SLAVE CONSOLE IN USE                       PDPA0685
                      000400  INWBIT BOOL    400           USER IN INPUT WAIT STATUS                  PDPA0686
                      001000  OUWBIT BOOL    1000          USER IN OUTPUT WAIT STATUS                 PDPA0687
                      002000  ATNBIT BOOL    2000          USER HAS SPECIFIED AN ATTENTION BUFFER     PDPA0688
                      004000  TYPEBT BOOL    4000          USER HAS A NON-EMPTY TYPEWRITER BUFFER     PDPA0689
                      010000  ATNFUL BOOL    10000         USERS ATTENTION BUFFER IS NOT EMPTY        PDPA0690
                      020000  TRKBIT BOOL    20000         USER IS TRACKING                           PDPA0691
                      040000  DOUBIT BOOL    40000         USER IS DRAWING AT DOUBLE BIT SPACING      PDPA0692
                      100000  ATNOFL BOOL    100000        USER'S ATTENTION BUFFER HAS OVERFLOWED     PDPA0693
                                                                                                      PDPA0694
      01103  0 00000 0 00300  BTHCON PZE     MASBIT+SLABIT USED BY LOGON TO SET STATE WORD            PDPA0695
      01104  0 00000 0 00100  CONSBT PZE     MASBIT                                                   PDPA0696
      01105  0 00000 0 00200         PZE     SLABIT                                                   PDPA0697
1       ESL CONSOLE ADAPTER - PDP-7 VERSION 3 - 10/10/67 - DAN THORNHILL         03/04/70 1435.0 PAGE 17
                           ESL CONSOLE ADAPTER - PDP-7 COMMUNICATION PACKAGE

                       00005  TRIES  EQU     5                                                        PDPA0699
                                                                                                      PDPA0700
                                             CHECK PDP7 AND 7094 ADDRESSES FOR LEGALITY.....          PDPA0701
                                                                                                      PDPA0702
                       01106  XMT77  SYN     *             MOVE DATA WITHIN PDP-7                     PDPA0703
      01106 -0500 00 0 01021         CAL     EFFA          GET 7TO                                    PDPA0704
      01107 -0501 00 0 01653         ORA     MOVEF         ADD MOVE FCN CODE                          PDPA0705
      01110  0131 00 0 00000         XCA                                                              PDPA0706
      01111 -0500 00 1 01034         CAL     AC,1          GET 7FROM,,N                               PDPA0707
      01112 -0734 00 4 00000         PDX     ,4                                                       PDPA0708
      01113 -3 00000 4 00140         TXL     FNXT,4,0      COUNT OF ZERO                              PDPA0709
      01114  0074 00 4 01177         TSX     SEND,4                                                   PDPA0710
      01115  0020 00 0 00140         TRA     FNXT                                                     PDPA0711
                                                                                                      PDPA0712
                       01116  XMT7B  SYN     *             SEND DATA FROM 7 TO B-CORE                 PDPA0713
      01116 -0500 00 0 01021         CAL     EFFA          GET 94TO                                   PDPA0714
      01117 -0501 00 0 01647         ORA     TAG1          TAG1 FOR BCORE                             PDPA0715
      01120  0131 00 0 00000         XCA                                                              PDPA0716
      01121 -0500 00 1 01034         CAL     AC,1          GET 7FROM,,N                               PDPA0717
      01122 -0734 00 4 00000         PDX     ,4                                                       PDPA0718
      01123 -3 00000 4 00140         TXL     FNXT,4,0      COUNT OF ZERO                              PDPA0719
      01124  0074 00 4 01163         TSX     XMT7N,4                                                  PDPA0720
      01125  0020 00 0 00140         TRA     FNXT                                                     PDPA0721
                                                                                                      PDPA0722
                       01126  CALL7  SYN     *             CALL ROUTINE IN PDP-7                      PDPA0723
      01126 -0500 00 0 01021         CAL     EFFA          GET ENTRY (OR ROUTINE NUMBER)              PDPA0724
      01127  0361 00 0 01654         ACL     CALLF         CALL FCN CODE                              PDPA0725
      01130 -0130 00 0 00000         XCL                                                              PDPA0726
      01131  0020 00 0 01133         TRA     XMTB7+1                                                  PDPA0727
                                                                                                      PDPA0728
                       01132  XMTB7  SYN     *             TRANSMIT DATA FROM 94 TO 7 (OR CALL 7 SUB) PDPA0729
      01132  0560 00 0 01021         LDQ     EFFA          GET 7TO,FCN 0                              PDPA0730
      01133 -0500 00 1 01034         CAL     AC,1          GET 94FROM (OR ARG1),,N (OR ARG2)          PDPA0731
      01134  0074 00 4 01175         TSX     SENDB,4                                                  PDPA0732
      01135  0020 00 0 00140         TRA     FNXT                                                     PDPA0733
                                                                                                      PDPA0734
                       01136  GAT7   SYN     *                                                        PDPA0735
      01136  0604 00 1 01032         STI     STATE,1                                                  PDPA0736
      01137 -0661 00 0 01672         SSLD    SENSE                                                    PDPA0737
      01140  0441 00 0 01672         LDI     SENSE                                                    PDPA0738
      01141 -0500 00 1 01641         CAL     USRST,1                                                  PDPA0739
      01142  0042 00 0 01147         TIO     GETIT         7 HAS ATTENTION WAITING                    PDPA0740
      01143 -0602 00 0 01673         ORS     94STAT        NONE WAITING. OR IN USRBIT TO 94 STATE WORDPDPA0741
      01144 -0665 00 0 01673         PSLD    94STAT                                                   PDPA0742
      01145  0441 00 1 01032         LDI     STATE,1       RESTORE STATE                              PDPA0743
      01146  0020 00 0 00642         TRA     NOATN                                                    PDPA0744
                                                                                                      PDPA0745
      01147  0441 00 1 01032  GETIT  LDI     STATE,1       RESTORE STATE                              PDPA0746
      01150 -0500 00 1 01034         CAL     AC,1          GET MAX LENGTH WANTED                      PDPA0747
      01151  0767 00 0 00022         ALS     18                                                       PDPA0748
      01152  0361 00 0 01021         ACL     EFFA                                                     PDPA0749
      01153  0074 00 4 00003         TSX     BLKCHK,4                                                 PDPA0750
      01154  0020 00 0 00777         TRA     BERR                                                     PDPA0751
      01155  0602 00 0 01174         SLW     SAVE          EVENTUALLY COMBINE WITH XMT7N              PDPA0752
      01156  0560 00 0 01651         LDQ     ATTNF                                                    PDPA0753
1       ESL CONSOLE ADAPTER - PDP-7 VERSION 3 - 10/10/67 - DAN THORNHILL         03/04/70 1435.0 PAGE 18
                           ESL CONSOLE ADAPTER - PDP-7 COMMUNICATION PACKAGE

      01157  0074 00 4 01177         TSX     SEND,4                                                   PDPA0754
      01160 -0500 00 0 01174         CAL     SAVE                                                     PDPA0755
      01161  0074 00 4 01316         TSX     RECVB,4                                                  PDPA0756
      01162  0020 00 0 00140         TRA     FNXT                                                     PDPA0757
                                                                                                      PDPA0758
                       01163  XMT7N  SYN     *             SEND FROM PDP-7 TO 7094                    PDPA0759
                                             AC IS FROM,,N. MQ IS TO WITH TAG1 FOR B-CORE             PDPA0760
      01163  0634 00 4 01172         SXA     XMT7NX,4                                                 PDPA0761
      01164 -0600 00 0 01174         STQ     SAVE                                                     PDPA0762
      01165  0622 00 0 01174         STD     SAVE                                                     PDPA0763
      01166  0560 00 0 01650         LDQ     XMT7NF        OR ATTNF OR GETCMF                         PDPA0764
      01167  0074 00 4 01177         TSX     SEND,4                                                   PDPA0765
      01170 -0500 00 0 01174         CAL     SAVE                                                     PDPA0766
      01171  0074 00 4 01320         TSX     RECEIV,4                                                 PDPA0767
      01172  0774 00 4 00000  XMT7NX AXT     **,4                                                     PDPA0768
      01173  0020 00 4 00001         TRA     1,4                                                      PDPA0769
                                                                                                      PDPA0770
      01174  0 00000 0 00000  SAVE   PZE                                                              PDPA0771
1       ESL CONSOLE ADAPTER - PDP-7 VERSION 3 - 10/10/67 - DAN THORNHILL         03/04/70 1435.0 PAGE 19
                           SUBROUTINE TO SEND CONTROL AND DATA TO PDP-7

                                             AC IS FROM (OR ARG),TAG1 FOR BCORE,N                     PDPA0773
                                             MQ IS TO (OR ENTRY OR SUBRCODE),FCN                      PDPA0774
                                                                                                      PDPA0775
      01175 -0320 00 0 01710  SENDB  ANA     =O077777077777                                           PDPA0776
      01176 -0501 00 0 01647         ORA     TAG1                                                     PDPA0777
      01177  0634 00 4 01301  SEND   SXA     SEND4,4                                                  PDPA0778
      01200  0604 00 1 01032         STI     STATE,1                                                  PDPA0779
      01201  0602 00 0 01664         SLW     WHERE         SAVE CHANNEL WORD                          PDPA0780
      01202  0602 00 0 01670         SLW     N                                                        PDPA0781
      01203  0131 00 0 00000         XCA                   TO IN AC                                   PDPA0782
      01204  0044 00 0 00000         PAI                                                              PDPA0783
      01205  0074 00 4 01534         TSX     MACOM,4                                                  PDPA0784
      01206  0602 00 0 01667         SLW     TO                                                       PDPA0785
      01207  0131 00 0 00000         XCA                                                              PDPA0786
      01210  0054 00  700000         RFT     FCN           IS THIS SEND DATA FCN                      PDPA0787
      01211  0020 00 0 01213         TRA     *+2           NO                                         PDPA0788
      01212  0074 00 4 01457         TSX     CHKSUM,4      YES, CALC CHECKSUM. ELSE USE ARG.          PDPA0789
      01213  0074 00 4 01534         TSX     MACOM,4                                                  PDPA0790
      01214  0602 00 0 01671         SLW     SUM                                                      PDPA0791
      01215 -0500 00 0 01670         CAL     N             GET N AGAIN                                PDPA0792
      01216  0771 00 0 00022         ARS     18                                                       PDPA0793
      01217  0074 00 4 01534         TSX     MACOM,4                                                  PDPA0794
      01220  0602 00 0 01670         SLW     N                                                        PDPA0795
      01221  0054 00  700000         RFT     FCN           IS THIS SEND DATA                          PDPA0796
      01222 -0634 00 0 01664         ZSD     WHERE         NO, NO MESSAGE WORDS TRANSMITTED           PDPA0797
      01223  0734 00 2 00000         PAX     ,2            FIND COUNT FOR TIMER**********             PDPA0798
      01224  1 00144 2 01225         TXI     *+1,2,100     CALC TIMER = (100+N)*2                     PDPA0799
      01225  0754 00 2 00000         PXA     ,2                                                       PDPA0800
      01226  0767 00 0 00002         ALS     2             1 ENOUGH EXCEPT FOR SLOW MOVE              PDPA0801
      01227  0601 00 0 01675         STO     TIMER                                                    PDPA0802
      01230  0774 00 2 00005         AXT     TRIES,2                                                  PDPA0803
                                                                                                      PDPA0804
      01231 -0661 00 0 01672  RESEND SSLD    SENSE                                                    PDPA0805
      01232  0441 00 0 01672         LDI     SENSE                                                    PDPA0806
      01233 -0054 00  001000         LFT     NOTRUN                                                   PDPA0807
      01234  0020 00 0 01311         TRA     XERR                                                     PDPA0808
      01235  0760 00 0 04352         RDCD                                                             PDPA0809
      01236 -0520 00 0 01066         NZT     HOLDUP                                                   PDPA0810
      01237 -0665 00 1 01633         PSLD    ISNDST,1      INTERRUPT AND SEND FOR USER                PDPA0811
      01240  0520 00 0 01066         ZET     HOLDUP                                                   PDPA0812
      01241 -0665 00 1 01635         PSLD    ISNHST,1      INTERRUPT AND RELEASE PICTURE              PDPA0813
      01242  0766 00 0 04240         WDDD                  HERE IT COMES                              PDPA0814
      01243 -0541 00 0 01663         RCHD    WRITE         THE CONTROL COMES, THEN DATA               PDPA0815
      01244  0774 00 4 77777         AXT     -1,4          TIMER                                      PDPA0816
      01245 -0661 00 0 01672  MOVTRY SSLD    SENSE         SEE WHAT THE 7 IS UP TO                    PDPA0817
      01246  0441 00 0 01672         LDI     SENSE                                                    PDPA0818
      01247 -0056 00  000240         LNT     BUSY+RCV      IS IT BUSY RECEIVING                       PDPA0819
      01250  0020 00 0 01254         TRA     MOVTIX        NOT YET                                    PDPA0820
      01251 -0054 00  000130         LFT     KLUDGE+MSGNG+MSGOK IS IT TO 94 WITH MSG STATUS RESET     PDPA0821
      01252  0020 00 0 01254         TRA     MOVTIX        NOT YET                                    PDPA0822
      01253  0020 00 0 01256         TRA     CKMESS        IT HAS STARTED RECEIVING                   PDPA0823
      01254  2 00001 4 01245  MOVTIX TIX     MOVTRY,4,1                                               PDPA0824
      01255  0020 00 0 01267         TRA     TIMEUP                                                   PDPA0825
                                                                                                      PDPA0826
      01256 -0634 00 4 01661  CKMESS SXD     WAKTIM,4      SAVE TIME                                  PDPA0827
1       ESL CONSOLE ADAPTER - PDP-7 VERSION 3 - 10/10/67 - DAN THORNHILL         03/04/70 1435.0 PAGE 20
                           SUBROUTINE TO SEND CONTROL AND DATA TO PDP-7

      01257  0534 00 4 01675         LXA     TIMER,4       SET TIMER                                  PDPA0828
      01260 -0661 00 0 01672         SSLD    SENSE         SEE WHAT THE 7 IS DOING                    PDPA0829
      01261  0441 00 0 01672         LDI     SENSE                                                    PDPA0830
      01262 -0054 00  000010         LFT     MSGOK         IS IT GOOD                                 PDPA0831
      01263  0020 00 0 01273         TRA     SENDOK        YES                                        PDPA0832
      01264 -0054 00  000020         LFT     MSGNG         IS IT BAD                                  PDPA0833
      01265  0020 00 0 01305         TRA     SENDNG        YES                                        PDPA0834
      01266  2 00001 4 01260         TIX     CKMESS+2,4,1  STILL COGITATING                           PDPA0835
      01267  0534 00 2 01655  TIMEUP LXA     TICNT,2       ADD ONE TO TIMEUP COUNT                    PDPA0836
      01270  1 00001 2 01271         TXI     *+1,2,1                                                  PDPA0837
      01271  0634 00 2 01655         SXA     TICNT,2                                                  PDPA0838
      01272  0020 00 0 01311         TRA     XERR          PDP-7 IS LOST - GIVE UP                    PDPA0839
                                                                                                      PDPA0840
      01273 -0500 00 0 01643  SENDOK CAL     OKST          MESSAGE IS GOOD                            PDPA0841
      01274  0634 00 4 01661  SNDXIT SXA     SNDTIM,4      SAVE TIME                                  PDPA0842
      01275  0074 00 4 01521         TSX     CHKIW,4                                                  PDPA0843
      01276  0602 00 0 01673         SLW     94STAT                                                   PDPA0844
      01277 -0665 00 0 01673         PSLD    94STAT                                                   PDPA0845
      01300  0441 00 1 01032         LDI     STATE,1       RESTORE STATE                              PDPA0846
      01301  0774 00 4 00000  SEND4  AXT     **,4                                                     PDPA0847
      01302 -0056 00  002000         LNT     SNDBAD                                                   PDPA0848
      01303  0020 00 4 00001         TRA     1,4                                                      PDPA0849
      01304  0020 00 0 00054         TRA     SETER2                                                   PDPA0850
                                                                                                      PDPA0851
      01305 -0534 00 4 01655  SENDNG LXD     NGCNT,4       COUNT ONE FAILURE                          PDPA0852
      01306  1 00001 4 01307         TXI     *+1,4,1                                                  PDPA0853
      01307 -0634 00 4 01655         SXD     NGCNT,4                                                  PDPA0854
      01310  2 00001 2 01231         TIX     RESEND,2,1    SHALL WE RETRY                             PDPA0855
      01311  0760 00 0 04352  XERR   RDCD                                                             PDPA0856
      01312 -0500 00 0 01630         CAL     SBADBT        ADD SEND BAD BIT TO STATE                  PDPA0857
      01313 -0602 00 1 01032         ORS     STATE,1                                                  PDPA0858
      01314 -0500 00 0 01644         CAL     NGST          MESSAGE IS NO GOOD, WE GIVE UP.            PDPA0859
      01315  0020 00 0 01274         TRA     SNDXIT                                                   PDPA0860
1       ESL CONSOLE ADAPTER - PDP-7 VERSION 3 - 10/10/67 - DAN THORNHILL         03/04/70 1435.0 PAGE 21
                           SUBROUTINE TO READ CONTROL FROM PDP-7 AND MESSAGE TO 7094

                                             AC IS TO,TAG1 FOR BCORE,MAX COUNT                        PDPA0862
                                                                                                      PDPA0863
      01316 -0320 00 0 01710  RECVB  ANA     =O077777077777                                           PDPA0864
      01317 -0501 00 0 01647         ORA     TAG1                                                     PDPA0865
      01320  0634 00 4 01415  RECEIV SXA     READ4,4                                                  PDPA0866
      01321  0604 00 1 01032         STI     STATE,1                                                  PDPA0867
      01322  0602 00 0 01666         SLW     READD                                                    PDPA0868
      01323  0622 00 0 01361         STD     MAXMSG                                                   PDPA0869
      01324 -0661 00 0 01672         SSLD    SENSE         SEE IF PDP-7 IS ALIVE                      PDPA0870
      01325  0441 00 0 01672         LDI     SENSE                                                    PDPA0871
      01326 -0054 00  001000         LFT     NOTRUN        IS IT DEAD                                 PDPA0872
      01327  0020 00 0 01452         TRA     NOGET         YES                                        PDPA0873
      01330  0774 00 2 00005         AXT     TRIES,2                                                  PDPA0874
      01331 -0665 00 1 01637  REGET  PSLD    RCVST,1                                                  PDPA0875
      01332  0760 00 0 04352         RDCD                                                             PDPA0876
      01333  0762 00 0 04240         RDDD                                                             PDPA0877
      01334 -0541 00 0 01665         RCHD    READC         READ THE CONTROL BLOCK                     PDPA0878
      01335  0774 00 4 77777         AXT     -1,4          TIMER                                      PDPA0879
      01336 -0063 00 0 01344         TCND    CKCTRL        WAIT FOR CHANNEL TO FINISH                 PDPA0880
      01337  2 00001 4 01336         TIX     *-1,4,1       NOPE, TRY AGAIN                            PDPA0881
      01340 -0534 00 4 01656         LXD     CTIUP,4                                                  PDPA0882
      01341  1 00001 4 01342         TXI     *+1,4,1       ADD 1 TO CONTROL TIMEUP COUNT              PDPA0883
      01342 -0634 00 4 01656         SXD     CTIUP,4                                                  PDPA0884
      01343  0020 00 0 01452         TRA     NOGET         GIVE UP                                    PDPA0885
                                                                                                      PDPA0886
      01344 -0634 00 4 01662  CKCTRL SXD     CTRTIM,4      SAVE CTRL TIME                             PDPA0887
      01345  0774 00 4 00003         AXT     3,4           THREE CONTROL WORDS                        PDPA0888
      01346 -0500 00 4 01672  CKCTR2 CAL     CTRL+3,4      SEE THAT LEFT HALF IS COM OF RIGHT HALF    PDPA0889
      01347 -0765 00 0 00022         LGR     18                                                       PDPA0890
      01350  0760 00 0 00006         COM                                                              PDPA0891
      01351 -0320 00 0 01706         ANA     =O777777      CLEAR LEFT HALF                            PDPA0892
      01352  0602 00 0 01676         SLW     SUMTEM        TEMPORARY STORAGE                          PDPA0893
      01353 -0754 00 0 00000         ZAC                                                              PDPA0894
      01354 -0763 00 0 00022         LGL     18                                                       PDPA0895
      01355  0402 00 0 01676         SUB     SUMTEM                                                   PDPA0896
      01356 -0100 00 0 01424         TNZ     CTRLNG                                                   PDPA0897
      01357  2 00001 4 01346         TIX     CKCTR2,4,1                                               PDPA0898
      01360  0534 00 4 01670         LXA     N,4           SET UP CHANNEL COMMANDS TO READ DATA       PDPA0899
      01361  3 00000 4 01421  MAXMSG TXH     TOOBIG,4,**                                              PDPA0900
      01362 -0634 00 4 01666         SXD     READD,4                                                  PDPA0901
      01363  0762 00 0 04240         RDDD                                                             PDPA0902
      01364 -0541 00 0 01666         RCHD    READD         AND READ                                   PDPA0903
      01365  0754 00 4 00000         PXA     ,4                                                       PDPA0904
      01366  0767 00 0 00003         ALS     3             GET A TIMER                                PDPA0905
      01367  0734 00 4 00000         PAX     ,4                                                       PDPA0906
      01370 -0063 00 0 01376         TCND    INOK          WAIT FOR CHANNEL TO FINISH                 PDPA0907
      01371  2 00001 4 01370         TIX     *-1,4,1       TRY AGAIN                                  PDPA0908
      01372  0534 00 4 01656         LXA     MTIUP,4       ADD 1 TO MESSAGE TIME UP COUNT             PDPA0909
      01373  1 00001 4 01374         TXI     *+1,4,1                                                  PDPA0910
      01374  0634 00 4 01656         SXA     MTIUP,4                                                  PDPA0911
      01375  0020 00 0 01452         TRA     NOGET         GIVE UP                                    PDPA0912
                                                                                                      PDPA0913
      01376  0634 00 4 01662  INOK   SXA     MSGTIM,4      SAVE MESSAGE TIME                          PDPA0914
      01377 -0500 00 0 01666         CAL     READD         IT'S HERE, CHECK SUM                       PDPA0915
      01400  0074 00 4 01457         TSX     CHKSUM,4                                                 PDPA0916
1       ESL CONSOLE ADAPTER - PDP-7 VERSION 3 - 10/10/67 - DAN THORNHILL         03/04/70 1435.0 PAGE 22
                           SUBROUTINE TO READ CONTROL FROM PDP-7 AND MESSAGE TO 7094

      01401  0322 00 0 01671         ERA     SUM           CLEARS Q BIT OF AC TOO.                    PDPA0917
      01402 -0320 00 0 01706         ANA     =O777777                                                 PDPA0918
      01403 -0100 00 0 01434         TNZ     SUMERR                                                   PDPA0919
      01404 -0661 00 0 01672         SSLD    SENSE         BE SURE HE HASN'T GIVEN UP                 PDPA0920
      01405  0441 00 0 01672         LDI     SENSE                                                    PDPA0921
      01406 -0054 00  000020         LFT     MSGNG                                                    PDPA0922
      01407  0020 00 0 01430         TRA     OOPS          HE HAS                                     PDPA0923
      01410 -0500 00 0 01643         CAL     OKST                                                     PDPA0924
      01411  0074 00 4 01521  RCVXIT TSX     CHKIW,4                                                  PDPA0925
      01412  0602 00 0 01673         SLW     94STAT                                                   PDPA0926
      01413 -0665 00 0 01673         PSLD    94STAT        TELL TO THE 7                              PDPA0927
      01414  0441 00 1 01032         LDI     STATE,1       RESTORE STATE                              PDPA0928
      01415  0774 00 4 00000  READ4  AXT     **,4                                                     PDPA0929
      01416 -0054 00  014000         LFT     RCVBAD+RCVBIG                                            PDPA0930
      01417  0020 00 0 00054         TRA     SETER2                                                   PDPA0931
      01420  0020 00 4 00001         TRA     1,4                                                      PDPA0932
                                                                                                      PDPA0933
      01421 -0500 00 0 01632  TOOBIG CAL     RBIGBT        MESSAGE TOO BIG, SET STATE                 PDPA0934
      01422 -0602 00 1 01032         ORS     STATE,1                                                  PDPA0935
      01423  0020 00 0 01274         TRA     SNDXIT                                                   PDPA0936
                                                                                                      PDPA0937
      01424 -0534 00 4 01657  CTRLNG LXD     NGCTR,4                                                  PDPA0938
      01425  1 00001 4 01426         TXI     *+1,4,1       ADD ONE TO NO GOOD CONTROL COUNT           PDPA0939
      01426 -0634 00 4 01657         SXD     NGCTR,4                                                  PDPA0940
      01427  0020 00 0 01437         TRA     LOSE                                                     PDPA0941
                                                                                                      PDPA0942
      01430 -0534 00 4 01660  OOPS   LXD     OOP,4                                                    PDPA0943
      01431  1 00001 4 01432         TXI     *+1,4,1                                                  PDPA0944
      01432 -0634 00 4 01660         SXD     OOP,4                                                    PDPA0945
      01433  0020 00 0 01437         TRA     LOSE                                                     PDPA0946
                                                                                                      PDPA0947
      01434  0534 00 4 01657  SUMERR LXA     NGSUM,4       ADD 1 TO BAD CHECKSUM COUNT                PDPA0948
      01435  1 00001 4 01436         TXI     *+1,4,1                                                  PDPA0949
      01436  0634 00 4 01657         SXA     NGSUM,4                                                  PDPA0950
      01437 -2 00001 2 01452  LOSE   TNX     NOGET,2,1     DO WE RETRY                                PDPA0951
      01440 -0500 00 0 01644         CAL     NGST          YES                                        PDPA0952
      01441  0074 00 4 01521         TSX     CHKIW,4                                                  PDPA0953
      01442  0602 00 0 01673         SLW     94STAT                                                   PDPA0954
      01443 -0665 00 0 01673         PSLD    94STAT                                                   PDPA0955
      01444  0774 00 4 77777         AXT     -1,4                                                     PDPA0956
      01445 -0661 00 0 01672         SSLD    SENSE         WATCH FOR 7 TO AGREE NO GOOD               PDPA0957
      01446  0441 00 0 01672         LDI     SENSE                                                    PDPA0958
      01447 -0054 00  000020         LFT     MSGNG                                                    PDPA0959
      01450  0020 00 0 01331         TRA     REGET                                                    PDPA0960
      01451  2 00001 4 01445         TIX     *-4,4,1                                                  PDPA0961
      01452  0760 00 0 04352  NOGET  RDCD                                                             PDPA0962
      01453 -0500 00 0 01631         CAL     RBADBT                                                   PDPA0963
      01454 -0602 00 1 01032         ORS     STATE,1                                                  PDPA0964
      01455 -0500 00 0 01645         CAL     QUITST                                                   PDPA0965
      01456  0020 00 0 01411         TRA     RCVXIT                                                   PDPA0966
1       ESL CONSOLE ADAPTER - PDP-7 VERSION 3 - 10/10/67 - DAN THORNHILL         03/04/70 1435.0 PAGE 23
                           PDP-7 COMMUNICATION PACKAGE UTILTY ROUTINES

      01457  0634 00 4 01517  CHKSUM SXA     CHKX4,4                                                  PDPA0968
      01460  0734 00 4 00000         PAX     ,4                                                       PDPA0969
      01461  0622 00 0 01462         STD     *+1                                                      PDPA0970
      01462  1 00000 4 01463         TXI     *+1,4,**      CALC END OF BLOCK                          PDPA0971
      01463  0634 00 4 01474         SXA     CHKGET+1,4                                               PDPA0972
      01464 -0734 00 4 00000         PDX     ,4                                                       PDPA0973
      01465  0625 00 0 01674         STT     BCORE         TAG1 FOR BCORE                             PDPA0974
      01466 -0500 00 0 00771         CAL     NOP                                                      PDPA0975
      01467  0520 00 0 01674         ZET     BCORE                                                    PDPA0976
      01470 -0500 00 0 00110         CAL     SEB                                                      PDPA0977
      01471  0602 00 0 01473         SLW     CHKGET                                                   PDPA0978
      01472  0600 00 0 01676         STZ     SUMTEM                                                   PDPA0979
      01473 -0761 00 0 00042  CHKGET SEB                   B-CORE PLEASE                              PDPA0980
      01474  0560 00 4 00000         LDQ     **,4                                                     PDPA0981
      01475 -0761 00 0 00041         SEA                                                              PDPA0982
      01476 -0754 00 0 00000         ZAC                                                              PDPA0983
      01477 -0763 00 0 00022         LGL     18                                                       PDPA0984
      01500  0361 00 0 01676         ACL     SUMTEM                                                   PDPA0985
      01501  0602 00 0 01676         SLW     SUMTEM                                                   PDPA0986
      01502 -0754 00 0 00000         ZAC                                                              PDPA0987
      01503 -0763 00 0 00022         LGL     18                                                       PDPA0988
      01504  0361 00 0 01676         ACL     SUMTEM                                                   PDPA0989
      01505  0602 00 0 01676         SLW     SUMTEM                                                   PDPA0990
      01506  2 00001 4 01473         TIX     CHKGET,4,1                                               PDPA0991
      01507 -0765 00 0 00022         LGR     18                                                       PDPA0992
      01510  0602 00 0 01676  CHKAGN SLW     SUMTEM        ADD IN LEFT HALF TO RIGHT                  PDPA0993
      01511 -0754 00 0 00000         ZAC                                                              PDPA0994
      01512 -0763 00 0 00022         LGL     18                                                       PDPA0995
      01513  0361 00 0 01676         ACL     SUMTEM                                                   PDPA0996
      01514 -0765 00 0 00022         LGR     18                                                       PDPA0997
      01515 -0100 00 0 01510         TNZ     CHKAGN        DID WE GET ANOTHER CARRY                   PDPA0998
      01516 -0763 00 0 00022         LGL     18                                                       PDPA0999
      01517  0774 00 4 00000  CHKX4  AXT     **,4                                                     PDPA1000
      01520  0020 00 4 00001         TRA     1,4                                                      PDPA1001
                                                                                                      PDPA1002
      01521  0634 00 4 01532  CHKIW  SXA     CHKIW4,4                                                 PDPA1003
      01522  0636 00 1 01523         SCA     *+1,1         OR IN BIT IF OTHER USER IN I.W.            PDPA1004
      01523  0774 00 4 00000         AXT     **,4          OTHER USER NO. INTO X4                     PDPA1005
      01524  1 77777 4 01525         TXI     *+1,4,-1                                                 PDPA1006
      01525  0441 00 4 01032         LDI     STATE,4                                                  PDPA1007
      01526  0054 00  000400         RFT     INWBIT                                                   PDPA1008
      01527 -0501 00 4 01641         ORA     USRST,4                                                  PDPA1009
      01530  0520 00 0 01066         ZET     HOLDUP        IS PICTURE HELD UP                         PDPA1010
      01531 -0501 00 0 01646         ORA     HOLDST        YES, TELL 7                                PDPA1011
      01532  0774 00 4 00000  CHKIW4 AXT     **,4                                                     PDPA1012
      01533  0020 00 4 00001         TRA     1,4                                                      PDPA1013
                                                                                                      PDPA1014
      01534  0600 00 0 01676  MACOM  STZ     SUMTEM                                                   PDPA1015
      01535  0625 00 0 01676         STT     SUMTEM                                                   PDPA1016
      01536  0621 00 0 01676         STA     SUMTEM                                                   PDPA1017
      01537  0760 00 0 00006         COM                                                              PDPA1018
      01540  0767 00 0 00022         ALS     18                                                       PDPA1019
      01541  0361 00 0 01676         ACL     SUMTEM                                                   PDPA1020
      01542  0020 00 4 00001         TRA     1,4                                                      PDPA1021
1       ESL CONSOLE ADAPTER - PDP-7 VERSION 3 - 10/10/67 - DAN THORNHILL         03/04/70 1435.0 PAGE 24
                           PDP-7 INTERRUPT ENTRY

                       00003  DDILC  EQU     3                                                        PDPA1023
                       00020  DCILC  EQU     16                                                       PDPA1024
      01543  0564 00 0 01677  DDTRAP ENB     =0            DISABLE ALL TRAPS                          PDPA1025
      01544  0634 00 4 01620         SXA     DDX4,4                                                   PDPA1026
      01545  0074 00 4 00005         TSX     ALLSAV,4      SAVE M C                                   PDPA1027
      01546 -0661 00 0 01672         SSLD    SENSE                                                    PDPA1028
      01547  0441 00 0 01672         LDI     SENSE         IS HE SENDING US INFO FOR USER0            PDPA1029
      01550 -0056 00  001777         LNT     1777                                                     PDPA1030
      01551  0020 00 0 01553         TRA     *+2                                                      PDPA1031
      01552  0020 00 0 01616         TRA     DDTRET        SHOE OUT                                   PDPA1032
      01553 -0054 00  001777         LFT     1777                                                     PDPA1033
      01554  0020 00 0 01556         TRA     *+2                                                      PDPA1034
      01555  0020 00 0 01616         TRA     DDTRET        POWER OFF                                  PDPA1035
      01556 -0054 00  000001         LFT     USER0                                                    PDPA1036
      01557 -0625 00 0 01627         STL     WAKE0                                                    PDPA1037
      01560 -0056 00  000002         LNT     USER1                                                    PDPA1038
      01561  0020 00 0 01611         TRA     SCHED1                                                   PDPA1039
      01562 -0774 00 1 00001         AXC     1,1                                                      PDPA1040
      01563  0441 00 0 01673  SCHED2 LDI     94STAT                                                   PDPA1041
      01564  0445 00 1 01641         RIS     USRST,1                                                  PDPA1042
      01565 -0057 00  001000         RIL     INT           FOR SAFETY                                 PDPA1043
      01566  0604 00 0 01673         STI     94STAT                                                   PDPA1044
      01567 -0665 00 0 01673         PSLD    94STAT                                                   PDPA1045
      01570  0441 00 1 01032         LDI     STATE,1       GET HIS STATE                              PDPA1046
      01571  0056 00  000400         RNT     INWBIT        IN I.W.                                    PDPA1047
      01572  0020 00 0 01611         TRA     SCHED1                                                   PDPA1048
      01573  0057 00  000400         RIR     INWBIT        TURN OFF I.W.                              PDPA1049
      01574  0604 00 1 01032         STI     STATE,1                                                  PDPA1050
      01575  0074 00 4 00474         TSX     CKLOFF,4      SEE IF USER STILL HERE. LOG OFF IF NOT.    PDPA1051
      01576  0020 00 0 01563         TRA     SCHED2        GONE                                       PDPA1052
      01577 -0500 00 2 77726         CAL     C$STATUS,2    GET T.S. STATUS                            PDPA1053
      01600 -0320 00 0 01705         ANA     =O77777                                                  PDPA1054
      01601  0402 00 0 01702         SUB     =4                                                       PDPA1055
      01602 -0100 00 0 01611         TNZ     SCHED1                                                   PDPA1056
      01603 -0500 00 1 01026         CAL     SIGNED,1                                                 PDPA1057
      01604  0602 00 0 01067         SLW     TEMP                                                     PDPA1058
      01605                          SCHEDL  =2,TEMP,=2                                               PDPA1059
      01611 -0520 00 0 01627  SCHED1 NZT     WAKE0                                                    PDPA1060
      01612  0020 00 0 01616         TRA     DDTRET                                                   PDPA1061
      01613  0600 00 0 01627         STZ     WAKE0                                                    PDPA1062
      01614 -0774 00 1 00000         AXC     0,1           USER 0                                     PDPA1063
      01615  0020 00 0 01563         TRA     SCHED2                                                   PDPA1064
                                                                                                      PDPA1065
      01616  0074 00 4 00006  DDTRET TSX     ALLRST,4      RESTORE M C                                PDPA1066
      01617  0074 00 4 00000         TSX     CMEXIT,4                                                 PDPA1067
      01620  0774 00 4 00000  DDX4   AXT     **,4                                                     PDPA1068
      01621  0021 60 0 00003         TTR*    DDILC                                                    PDPA1069
                                                                                                      PDPA1070
      01622  0564 00 0 01677  DTRAP  ENB     =0                                                       PDPA1071
      01623  0634 00 4 01625         SXA     DTX4,4                                                   PDPA1072
      01624  0074 00 4 00000         TSX     CMEXIT,4                                                 PDPA1073
      01625  0774 00 4 00000  DTX4   AXT     **,4                                                     PDPA1074
      01626  0021 60 0 00020         TTR*    DCILC                                                    PDPA1075
      01627  0 00000 0 00000  WAKE0                                                                   PDPA1076
1       ESL CONSOLE ADAPTER - PDP-7 VERSION 3 - 10/10/67 - DAN THORNHILL         03/04/70 1435.0 PAGE 25
                           PDP-7 STORAGE AND COUNTERS

                                                                                                      PDPA1079
                                             SENSE LINE BIT DEFINITIONS                               PDPA1080
                                                                                                      PDPA1081
                      001000  INT    BOOL    1000                                                     PDPA1082
                      001000  NOTRUN BOOL    1000                                                     PDPA1083
                      000400  ENB    BOOL    400                                                      PDPA1084
                      000400  HOLD   BOOL    400           HOLDUP PICTURE PENDING 94 INTERRUPTS       PDPA1085
                      000200  BUSY   BOOL    200                                                      PDPA1086
                      000100  KLUDGE BOOL    100                                                      PDPA1087
                      000040  RCV    BOOL    40                                                       PDPA1088
                      000020  MSGNG  BOOL    20                                                       PDPA1089
                      000010  MSGOK  BOOL    10                                                       PDPA1090
                      000002  USER1  BOOL    2                                                        PDPA1091
                      000001  USER0  BOOL    1                                                        PDPA1092
                                                                                                      PDPA1093
                                             ADDITIONAL ERROR BIT DEFINITIONS                         PDPA1094
                                                                                                      PDPA1095
                      001000  PROT7  BOOL    1000          PDP-7 PROTECTION ERROR                     PDPA1096
                      002000  SNDBAD BOOL    2000          UNSUCCESSFUL ATTEMPT TO SEND TO PDP-7      PDPA1097
                      004000  RCVBAD BOOL    4000          UNSUCCESSFUL ATTEMPT TO RECEIVE FROM PDP-7 PDPA1098
                      010000  RCVBIG BOOL    10000         MESSAGE RECEIVED WAS TOO BIG               PDPA1099
                                                                                                      PDPA1100
      01630  0 02000 0 00000  SBADBT PZE     0,,SNDBAD                                                PDPA1101
      01631  0 04000 0 00000  RBADBT PZE     0,,RCVBAD                                                PDPA1102
      01632  0 10000 0 00000  RBIGBT PZE     0,,RCVBIG                                                PDPA1103
                                                                                                      PDPA1104
                                                           USER STATUS BIT DEFINITIONS                PDPA1105
                                                                                                      PDPA1106
      01633  0 01201 0 00000  ISNDST PZE     ,,INT+BUSY+USER0 SENDING                                 PDPA1107
      01634  0 01202 0 00000         PZE     ,,INT+BUSY+USER1 SENDING                                 PDPA1108
      01635  0 01601 0 00000  ISNHST PZE     ,,INT+HOLD+BUSY+USER0                                    PDPA1109
      01636  0 01602 0 00000         PZE     ,,INT+HOLD+BUSY+USER1                                    PDPA1110
      01637  0 00241 0 00000  RCVST  PZE     ,,BUSY+RCV+USER0                                         PDPA1111
      01640  0 00242 0 00000         PZE     ,,BUSY+RCV+USER1                                         PDPA1112
      01641  0 00001 0 00000  USRST  PZE     ,,USER0                                                  PDPA1113
      01642  0 00002 0 00000         PZE     ,,USER1                                                  PDPA1114
      01643  0 00010 0 00000  OKST   PZE     ,,MSGOK       MESSAGE OK                                 PDPA1115
      01644  0 00020 0 00000  NGST   PZE     ,,MSGNG                                                  PDPA1116
      01645  0 00030 0 00000  QUITST PZE     ,,MSGOK+MSGNG                                            PDPA1117
      01646  0 00400 0 00000  HOLDST PZE     ,,HOLD                                                   PDPA1118
                                                                                                      PDPA1119
                                             CONTROL BITS                                             PDPA1120
                                                                                                      PDPA1121
                      700000  FCN    BOOL    700000        FCN BITS                                   PDPA1122
      01647  0 00000 1 00000  TAG1   PZE     ,1                                                       PDPA1123
                                                                                                      PDPA1124
                                             FUNCTION CODES FOR HEADER BLOCK                          PDPA1125
                                                                                                      PDPA1126
      01650  0 00000 1 00000  XMT7NF PZE     0,1                                                      PDPA1127
      01651  0 00000 1 00001  ATTNF  PZE     1,1                                                      PDPA1128
      01652  0 00000 1 00002  GETCMF PZE     2,1                                                      PDPA1129
      01653  0 00000 2 00000  MOVEF  PZE     0,2                                                      PDPA1130
      01654  0 00000 3 00000  CALLF  PZE     0,3                                                      PDPA1131
                                                                                                      PDPA1132
                                             ERROR COUNTERS                                           PDPA1133
1       ESL CONSOLE ADAPTER - PDP-7 VERSION 3 - 10/10/67 - DAN THORNHILL         03/04/70 1435.0 PAGE 26
                           PDP-7 STORAGE AND COUNTERS

                                                                                                      PDPA1134
                       01655  NGCNT  EQU     *             IN DECREMENT                               PDPA1135
      01655  0 00000 0 00000  TICNT  PZE                   IN ADDRESS                                 PDPA1136
                       01656  CTIUP  EQU     *             IN DECREMENT                               PDPA1137
      01656  0 00000 0 00000  MTIUP  PZE                   IN ADDRESS                                 PDPA1138
                       01657  NGCTR  EQU     *             IN DECREMENT                               PDPA1139
      01657  0 00000 0 00000  NGSUM  PZE                   IN ADDRESS                                 PDPA1140
                       01660  OOP    SYN     *             IN DECREMENT                               PDPA1141
      01660  0 00000 0 00000         PZE                   IN ADDRESS                                 PDPA1142
                                                                                                      PDPA1143
                                             TIME WATCHERS                                            PDPA1144
                                                                                                      PDPA1145
                       01661  WAKTIM EQU     *             IN DECREMENT                               PDPA1146
      01661  0 00000 0 00000  SNDTIM PZE                   IN ADDRESS                                 PDPA1147
                       01662  CTRTIM EQU     *             IN DECREMENT                               PDPA1148
      01662  0 00000 0 00000  MSGTIM PZE                   IN ADDRESS                                 PDPA1149
                                                                                                      PDPA1150
                                             CHANNEL COMMANDS                                         PDPA1151
                                                                                                      PDPA1152
      01663 -0 00003 0 01667  WRITE  IOCP    CTRL,,3       SEND CONTROL BLOCK                         PDPA1153
      01664  0 00000 1 00000  WHERE  IOCD    **,1,**       TAG 1 FOR DATA IN B-CORE                   PDPA1154
                                                                                                      PDPA1155
      01665  0 00003 0 01667  READC  IOCD    CTRL,,3       READ CONTROL                               PDPA1156
      01666  0 00000 1 00000  READD  IOCD    **,1,**       READ DATA INTO B-CORE BUFFER               PDPA1157
                                                                                                      PDPA1158
                                                           CONTROL BLOCK                              PDPA1159
                                                                                                      PDPA1160
                       01667  CTRL   SYN     *                                                        PDPA1161
      01667  0 00000 0 00000  TO     PZE                                                              PDPA1162
      01670  0 00000 0 00000  N      PZE                                                              PDPA1163
                       01671  FROM   SYN     *                                                        PDPA1164
      01671  0 00000 0 00000  SUM    PZE                                                              PDPA1165
                                                                                                      PDPA1166
                                                           OTHER STORAGE                              PDPA1167
      01672  0 00000 0 00000  SENSE                        SENSE LINE STORAGE (STATUS OF PDP-7)       PDPA1168
      01673  0 00000 0 00000  94STAT                       STATUS OF 7094                             PDPA1169
      01674  0 00000 0 00000  BCORE                        NON-ZERO FOR TRANSMISSION TO OR FROM B-COREPDPA1170
      01675  0 00000 0 00000  TIMER                                                                   PDPA1171
      01676  0 00000 0 00000  SUMTEM                                                                  PDPA1172
1       ESL CONSOLE ADAPTER - PDP-7 VERSION 3 - 10/10/67 - DAN THORNHILL         03/04/70 1435.0 PAGE 27
                           ESL ADAPTER CROSS REFERENCE LISTING

                                     END                                                              PDPA1175

        LITERALS
      01677  000000000000
      01700  000000000001
      01701  000000000002
      01702  000000000004
      01703  000000000006
      01704  000000000024
      01705  000000077777
      01706  000000777777
      01707  000001000000
      01710  077777077777
      01711  760000760000
      01712  777777000000
1       ESL CONSOLE ADAPTER - PDP-7 VERSION 3 - 10/10/67 - DAN THORNHILL         03/04/70 1435.0 PAGE 1
                        POST PROCESSOR ASSEMBLY DATA

       72127 IS THE LAST LOCATION NOT USED BY THIS PROGRAM
       1713 IS THE FIRST LOCATION NOT USED BY THIS PROGRAM

0REFERENCES TO DEFINED SYMBOLS
       1020      A   114,  115,  131,  267,  306
       1023      D   117,  165,  220,  254,  263,  276,  320,  332
       1670      N  1202, 1215, 1220, 1360
       1034     AC   173,  200,  230,  253,  261,  455,  640,  667,  673,  677,  703,  716, 1072, 1073, 1111, 1121, 1133
                    1150
       1667     TO  1206
        615    CAM   353
       1036    CNT   247,  300,  303,  314,  560,  604,  750,  756,  761
        164    DAC   152,  164
        400    ENB  1630
     700000    FCN  1210, 1221, 1647
        635    GAT   343
        146    ILL   334,  376
       1016    IND   124,  736
       1000    INT    70, 1565, 1630, 1633, 1634, 1635, 1636
        240    LCC   157
        220    LDA   151,  220
        771    NOP  1466
       1660    OOP  1430, 1432, 1660
        332    OPR   150
        150    OPS   137
        705    PEN   366,  705
         40    RCV  1247, 1630, 1637, 1640
         60    RET   376,  505
        545    SAB   342
        110    SEB   143, 1470
        251    SHA   153
        544    SSC   341
       1671    SUM  1214, 1401
        775   AERR   751,  754,  760,  770
        777   BERR   171,  224,  302,  325,  470,  657, 1154
        200   BUSY  1247, 1630, 1633, 1634, 1635, 1636, 1637, 1640
       1102   CAM7   623
       1012   CGX4  1003
        111   COML    14
       1017   CONF   127,  164,  241,  443,  621
       1667   CTRL  1346, 1663, 1665, 1667
       1620   DDX4  1544
        665   DIGI   362
       1625   DTX4  1623
        736   EFAD   132,  277
       1021   EFFA   133,  167,  202,  204,  214,  222,  226,  232,  240,  251,  545,  556,  575,  612,  615,  617,  625
                     655, 1106, 1116, 1126, 1132, 1152
         60   ENDD   333,  336,  376
        140   FNXT    54,  136,  177,  217,  231,  237,  250,  262,  272,  275,  311,  313,  315,  331,  465,  473,  544
                     574,  614,  630,  634,  636,  654,  664,  670,  674,  700,  704,  720, 1113, 1115, 1123, 1125, 1135
                    1162
       1671   FROM  1671
         10   FULL   424, 1103
       1136   GAT7   372,  641, 1136
1       ESL CONSOLE ADAPTER - PDP-7 VERSION 3 - 10/10/67 - DAN THORNHILL         03/04/70 1435.0 PAGE 2
                        POST PROCESSOR ASSEMBLY DATA

        400   HOLD    66, 1630, 1635, 1636, 1646
       1376   INOK  1370
        506   LOFF   402,  500,  503
       1437   LOSE  1427, 1433
        102   MNX4    12
       1644   NGST  1314, 1440
       1643   OKST  1273, 1410
       1430   OOPS  1407
        146   OP07   345,  376
        146   OP11   351,  376
        146   OP12   352,  376
        146   OP14   354,  376
        146   OP15   355,  376
        146   OP16   356,  376
        146   OP17   357,  376
        146   OP18   360,  376
        146   OP19   361,  376
        146   OP25   367,  376
        146   OP30   374,  376
        336   OPRS   335,  336,  376
       1101   RLT7   610
        554   SAB1   547
        571   SAB2   553
       1100   SAB7   571
       1174   SAVE  1155, 1160, 1164, 1165, 1170
       1177   SEND   216,  274,  447,  541,  573,  627,  633, 1006, 1114, 1157, 1167
        572   SET7   611,  624
       1014   SIND    11,   77
       1647   TAG1   304, 1117, 1176, 1317
       1067   TEMP    71,   72,  201,  211,  322,  327,  546,  555,  567,  572,  576,  603,  606,  722,  733,  745,  757
                     763,  764, 1071, 1604, 1607
        671   TOGA   363
        675   TOGB   364
        612   WAIT   344
       1311   XERR  1234, 1272
        767  ACHEK   203,  233,  554,  602
       1072  ACPNT   235
        701  ANLOG   365
       1651  ATTNF  1156
       1056  BANKA   672
       1057  BANKB   676
       1674  BCORE  1465, 1467
       1126  CALL7   375, 1126
       1654  CALLF  1127
       1521  CHKIW  1275, 1411, 1441
       1517  CHKX4  1457
          4  CKRLC   170,  223,  301,  656
        745  CKXMA   264,  270,  307,  321
        631  CLATN   347
        625  CLEAR   346
         21  COML1    15
       1015  COMND    23,   46,  113
       1656  CTIUP  1340, 1342, 1656
          1  CYCLE   106
       1065  CYCSW   103,  105,  652
1       ESL CONSOLE ADAPTER - PDP-7 VERSION 3 - 10/10/67 - DAN THORNHILL         03/04/70 1435.0 PAGE 3
                        POST PROCESSOR ASSEMBLY DATA

        175  DAC.1
        200  DAC.2   166
        213  DAC.3   205
         20  DCILC  1543, 1626
          3  DDILC  1543, 1621
       1054  DFPAR   451
       1622  DTRAP     0
       1022  EFFA1   134,  317,  323,  412,  466,  533
     400000  ERBIT    34,   57, 1103
        655  GAT.1   643
       1147  GETIT  1142
       1044  HIMEM   243,  454,  561,  562,  755,  767
         20  ILLOP   146, 1103
        107  INTRP    45,   51
        226  LDA.1
        232  LDA.2   221
        411  LOG.1   403
        426  LOG.3   422,  423
        456  LOG.4   444
        505  LOGOF   340
        376  LOGON   337
       1534  MACOM  1205, 1213, 1217
       1653  MOVEF   265, 1107
         20  MSGNG  1251, 1264, 1406, 1447, 1630, 1644, 1645
         10  MSGOK  1251, 1262, 1630, 1643, 1645
       1656  MTIUP  1372, 1374
       1655  NGCNT  1305, 1307, 1655
       1657  NGCTR  1424, 1426, 1657
       1657  NGSUM  1434, 1436
        642  NOATN  1146
       1452  NOGET  1327, 1343, 1375, 1437
         40  OPCNT   334,  376
          7  PLOTS     0,    7
       1055  PNPOS   706
       1000  PROT7  1630
          1  PROTA   775, 1103
          2  PROTB   777, 1103
       1637  RCVST  1331
       1415  READ4  1320
       1665  READC  1334
       1666  READD  1322, 1362, 1364, 1377
        575  REALT   350
       1316  RECVB  1161
       1331  REGET  1450
       1042  RELOC   442,  452,  531,  765,  773
         74  RET.1    35,   62
         77  RET.2
       1301  SEND4  1177
       1175  SENDB   330,  472, 1134
       1672  SENSE   723,  724, 1137, 1140, 1231, 1232, 1245, 1246, 1260, 1261, 1324, 1325, 1404, 1405, 1445, 1446, 1546
                    1547
         54  SETER    54,  145,  147,  401,  776, 1000
       1060  SHAFT   702
       1032  STATE    40,   41,   60,   64,   73,  463,  464,  526,  527,  645,  653,  707,  717, 1136, 1145, 1147, 1200
                    1300, 1313, 1321, 1414, 1422, 1454, 1525, 1570, 1574
1       ESL CONSOLE ADAPTER - PDP-7 VERSION 3 - 10/10/67 - DAN THORNHILL         03/04/70 1435.0 PAGE 4
                        POST PROCESSOR ASSEMBLY DATA

          7  STOPD     0,    7
        160  STOTB   160,  175,  212
        721  TEST7   376
       1655  TICNT  1267, 1271
       1675  TIMER  1227, 1257
          5  TRIES  1106, 1230, 1330
          1  USER0  1556, 1630, 1633, 1635, 1637, 1641
          2  USER1  1560, 1630, 1634, 1636, 1640, 1642
       1641  USRST  1141, 1527, 1564
       1627  WAKE0  1557, 1611, 1613
       1664  WHERE  1201, 1222
       1663  WRITE  1243
       1106  XMT77   370, 1106
       1116  XMT7B   371, 1116
       1163  XMT7N   210,  236,  312, 1124, 1163
        263  XMTAA   154
        276  XMTAB   155
       1132  XMTB7   373, 1131, 1132
        314  XMTBA   156
       1673 94STAT    65,   67, 1143, 1144, 1276, 1277, 1412, 1413, 1442, 1443, 1563, 1566, 1567
          6 ALLRST  1616
          5 ALLSAV  1545
       2000 ATNBIT   552,  570,  635, 1103
      10000 ATNFUL  1103
       1050 ATNLNG   435,  551,  565,  753
     100000 ATNOFL  1103
       1046 ATNSTR   434,  550,  557,  564,  746
          3 BLKCHK   324,  467, 1153
       1063 BOTHSW   441,  446,  460,  513,  522,  530
       1103 BTHCON   457,  521
      72173 C  LAC    56
      74502 C USER    25,  427,  650
       1510 CHKAGN  1515
       1473 CHKGET  1463, 1471, 1506
       1532 CHKIW4  1521
       1457 CHKSUM  1212, 1400
       1346 CKCTR2  1357
       1344 CKCTRL  1336
        474 CKLOFF   407, 1575
       1256 CKMESS  1253, 1266
        753 CKXMA1   747
        761 CKXMA2   752
       1077 CLATN7   631
       1076 CLEAR7   626
          0 CMEXIT  1617, 1624
       1001 COMGET   450,  665,  671,  675,  701,  705
       1052 COMGOT    36, 1001, 1011
          6 COMLNG  1053, 1062
       1054 COMMON  1053, 1054, 1062
       1053 COMPNT  1004, 1007
         40 CONBIT    43,  517, 1103
       1104 CONSBT   461,  523
       1062 CONUSD   417,  426,  510,  515,  516
      76500 CPROBN   477
      76427 CPROGN   432,  501
1       ESL CONSOLE ADAPTER - PDP-7 VERSION 3 - 10/10/67 - DAN THORNHILL         03/04/70 1435.0 PAGE 5
                        POST PROCESSOR ASSEMBLY DATA

       1424 CTRLNG  1356
       1662 CTRTIM  1344, 1662
       1543 DDTRAP     0
       1616 DDTRET  1552, 1555, 1612
       1061 DIGISW   666
      40000 DOUBIT  1103
         10 DSCOPE     0
         24 DSCP.1
         36 DSCP.2    30
        466 EXSEND   414
       1652 GETCMF  1005
        100 GRT100   144, 1103
       1646 HOLDST  1531
       1066 HOLDUP    61,   63,  215,  273,  326, 1236, 1240, 1530
        400 INWBIT   644, 1103, 1526, 1571, 1573
       1633 ISNDST  1237
       1635 ISNHST  1241
          7 KKKORG     7
        100 KLUDGE  1251, 1630
       1024 KLUNIT    27
        542 LOFFX4   506
        100 MASBIT   517, 1103, 1104
       1361 MAXMSG  1323
       1254 MOVTIX  1250, 1252
       1245 MOVTRY  1254
       1662 MSGTIM  1376
          2 NOCONS     7,   32, 1026, 1030, 1032, 1034, 1036, 1040, 1042, 1044, 1046, 1050
          4 NOKLUD   400, 1103
         40 NOT908    34, 1103
       1000 NOTRUN   731, 1233, 1326, 1630
        135 OPSAVE   130
       1000 OUWBIT  1103
       1645 QUITST  1455
       1631 RBADBT  1453
       1632 RBIGBT  1421
       4000 RCVBAD  1416, 1630, 1631
      10000 RCVBIG  1416, 1630, 1632
       1411 RCVXIT  1456
          1 REALBT   600,  607, 1103
        610 REALT7   601
       1320 RECEIV  1010, 1171
       1231 RESEND  1310
         75 RSTATE    17
       1630 SBADBT  1312
       1611 SCHED1  1561, 1572, 1602
       1563 SCHED2  1576, 1615
          2 SCHEDL   646, 1605
       1305 SENDNG  1265
       1273 SENDOK  1263
         54 SETER2    53,  425, 1304, 1417
       1074 SGNOF7   537
       1075 SGNON7   445
         20 SIGNBT   456, 1103
       1026 SIGNED    44,  430,  474,  507,  520, 1603
        200 SLABIT   517, 1103, 1105
1       ESL CONSOLE ADAPTER - PDP-7 VERSION 3 - 10/10/67 - DAN THORNHILL         03/04/70 1435.0 PAGE 6
                        POST PROCESSOR ASSEMBLY DATA

       2000 SNDBAD  1302, 1630
       1661 SNDTIM  1274
       1274 SNDXIT  1315, 1423
          7 STARTD     0,    7
      77726 STATUS  1577
       1434 SUMERR  1403
       1676 SUMTEM  1352, 1355, 1472, 1500, 1501, 1504, 1505, 1510, 1513, 1534, 1535, 1536, 1541
       1071 TEMPTR   207,  213
        733 TEST7N   730
        734 TEST7X   721
       1267 TIMEUP  1255
       1421 TOOBIG  1361
      20000 TRKBIT  1103
       4000 TYPEBT  1103
      75646 UNITID    26
       1030 USERNO   433,  502
       1040 WAITSW   436,  613,  642
       1661 WAKTIM  1256, 1661
       1064 WANTED   416,  440
       1650 XMT7NF  1166
       1172 XMT7NX  1163

0 NO ERROR IN ABOVE ASSEMBLY.
