1      M1416 786 R. DALEY ..... RSTCPU CMEXIT ALLSAV AND ALLRST FOR CTSS .....   05/03/71 1623.4 PAGE 1

                                                                                                      RTRN0003
                       00020         ENTRY   RSTCPU        ENTRY TO RETURN TO USER PROGRAM            RTRN0004
                       00160         ENTRY   FILXIT        ENTRY FROM FILE SYSTEM TO RETURN TO USER   RTRN0005
                       00172         ENTRY   CMEXIT        ENTRY TO RETURN TO INTERRUPTED PROGRAM     RTRN0006
                       00247         ENTRY   STZ.A)        ENTRY TO BLAST TRAP ON CHANNEL A           RTRN0007
                       00252         ENTRY   ALLSAV        ENTRY TO SAVE MACHINE CONDITIONS ON TRAP   RTRN0008
                       00254         ENTRY   STZ.SW        ENTRY TO INDICATE TRAP TIME (XEC* $STZ.SW) RTRN0009
                       00316         ENTRY   ALLRST        ENTRY TO RESTORE MACHINE CONDITIONS        RTRN0010
                       00321         ENTRY   STL.SW        ENTRY TO INDICATE LEAVING TRAP TIME        RTRN0011
                       00372         ENTRY   CMXRTN        ENTRY TO COMMON EXIT RETURN LOCATION       RTRN0012
                       00205         ENTRY   LOAD.4        ENTRY TO COMMON EXIT USER IR4              RTRN0013
                                                                                                      RTRN0014
                                     EXTERN  ADDTIM,BTOC,CYCLE,DORMNT,GETOTL,GETUSR,NZL               RTRN0015
                                     EXTERN  PRDIAG,RESTOR,SAVCPU,SCHEDL,SETAB,SETUSR                 RTRN0016
                                     EXTERN  UPCLOC,WRFLX,WRTOPR                                      RTRN0017
                                                                                                      RTRN0019
                                     UNLIST                                                           RTRN0020

                                                                                                      RTRN0026
                       00012  ATRLOC EQU     10            ILC SAVED HERE ON CHANNEL 'A' TRAP         RTRN0027
                       00013  ADCTRP EQU     11            TRANSFER FROM HERE ON CHANNEL 'A' TRAP     RTRN0028
                                                                                                      RTRN0029
                                             RSTCPU ....... COMMON RETURN TO USER PROGRAMS IN B MEM.  RTRN0030
                                                                                                      RTRN0031
      00020  0520 00 0 74616  RSTCPU ZET     SWAP          IS IT TIME TO SWAP USERS                   RTRN0032
      00021  0020 00 0 00002         TRA     CYCLE         .. YES, RETURN TO MAIN CONTROL             RTRN0033
      00022  0535 00 1 74502         LAC     USER,1        GET USER NUMBER OF CURRENT USER            RTRN0034
      00023 -0500 00 1 77726         CAL     STATUS,1      INSURE USER IN WORKING STATUS              RTRN0035
      00024  0402 00 0 74667         SUB     Q2            ..                                         RTRN0036
      00025 -0100 00 0 00154         TNZ     IDLE          OTHERWISE MUST BE IDLE USER                RTRN0037
      00026  0564 00 0 74671         ENB     Q0            DISABLE TRAPS TO MODIFY USWICH             RTRN0038
      00027  0441 00 1 75524         LDI     USWICH,1      PICK UP USER STATUS SWITCHES               RTRN0039
      00030 -0056 00  002000         LNT     INTBIT        HAS USER HIT INTERRUPT                     RTRN0040
      00031  0020 00 0 00057         TRA     RST1          .. NO                                      RTRN0041
      00032 -0057 00  002000         RIL     INTBIT        YES, RESET BIT                             RTRN0042
      00033  0604 00 1 75524         STI     USWICH,1      PUT BACK                                   RTRN0043
      00034  0564 00 0 77777         ENB     ENBWD         REENABLE FOR ALL TRAPS                     RTRN0044
      00035  0534 00 2 72221         LXA     BREAKL,2      GET USER BREAK LEVEL SETTING               RTRN0045
      00036 -3 00000 2 00054         TXL     NOBRK,2,0     SKIP IF NONE SET                           RTRN0046
      00037 -0500 00 0 72162         CAL     ILC           SAVE OLD USER ILC                          RTRN0047
      00040  0621 00 0 72222         STA     BRKILC        ..                                         RTRN0048
      00041 -0500 00 2 72221         CAL     BREAKL,2      PICK UP BREAK ILC                          RTRN0049
      00042  0621 00 0 72162         STA     ILC           SET AS NEW USER ILC                        RTRN0050
      00043  1 77777 2 00044         TXI     *+1,2,-1      DROP BREAK LEVEL BY ONE                    RTRN0051
      00044  0634 00 2 72221         SXA     BREAKL,2      PUT BACK                                   RTRN0052
      00045  0754 00 2 00000         PXA     ,2            CURRENT BREAK LEVEL TO AC                  RTRN0053
      00046  0074 00 4 00006         TSX     NZL,4         STRIP LEADING ZEROES                       RTRN0054
      00047  0602 00 0 00375         SLW     TEMP          ..                                         RTRN0055
      00050                          TYPEX   WRFLX,TEMP,1,USER,.F.,0 TYPE NEW USER LEVEL              RTRN0056
      00053  0020 00 0 00057         TRA     RST1          SLIP                                       RTRN0057
                                                                                                      RTRN0058
      00054                   NOBRK  TYPE    (/NO ACTION./) HERE IF NO INTERRUPT LEVEL SET            RTRN0059
                                                                                                      RTRN0060
      00057  0564 00 0 77777  RST1   ENB     ENBWD         INSURE TRAPS ENABLED                       RTRN0061
      00060 -0500 00 0 72162         CAL     ILC           CHECK THAT ILC IS WITHIN BOUNDS            RTRN0062
      00061  0400 00 0 72160         ADD     RLIND         ..                                         RTRN0063
1      M1416 786 R. DALEY ..... RSTCPU CMEXIT ALLSAV AND ALLRST FOR CTSS .....   05/03/71 1623.4 PAGE 2

      00062  0734 00 4 00000         PAX     ,4            ..                                         RTRN0064
      00063 -0500 00 0 72157         CAL     PRIND         ..                                         RTRN0065
      00064  0622 00 0 00065         STD     *+1           ..                                         RTRN0066
      00065  3 00000 4 00106         TXH     RST2,4,-      COMPLAIN IF USER ILC INCORRECT             RTRN0067
      00066 -0761 00 0 00042         SEB                   PICK UP CURRENT USER INSTRUCTION           RTRN0068
      00067  0441 60 0 72162         LDI*    ILC           ..                                         RTRN0069
      00070 -0761 00 0 00041         SEA                   ..                                         RTRN0070
      00071 -0054 00  376000         LFT     376000        IS IT AN HTR OR ILLEGAL                    RTRN0071
      00072  0020 00 0 00124         TRA     RST5          .. NO                                      RTRN0072
      00073 -0500 00 0 72162         CAL     ILC           YES, CONVERT ILC FOR PRINTING              RTRN0073
      00074 -0765 00 0 00022         LGR     18            ..                                         RTRN0074
      00075  0074 00 4 00001         TSX     BTOC,4        ..                                         RTRN0075
      00076 -0501 00 0 00430         ORA     =H 00000      ..                                         RTRN0076
      00077  0602 00 0 00412         SLW     STPCOM+3      ..                                         RTRN0077
      00100 -0520 00 0 74502         NZT     USER          IS USER BACKGROUND SYSTEM                  RTRN0078
      00101  0020 00 0 00112         TRA     RST3          .. YES, SKIP TO PRINT ONLINE               RTRN0079
      00102                          TYPEX   WRFLX,STPCOM,4,USER,.F.,0                                RTRN0080
      00105  0020 00 0 00122         TRA     RST4          SKIP                                       RTRN0081
                                                                                                      RTRN0082
      00106                   RST2   TYPE    (/ ILC IS OUT OF BOUNDS./)                               RTRN0083
      00111  0020 00 0 00122         TRA     RST4          ..                                         RTRN0084
                                                                                                      RTRN0085
      00112  0520 00 0 74445  RST3   ZET     BKGATT        IS BACKGROUND FORCED                       RTRN0086
      00113  0020 00 0 00124         TRA     RST5          .. YES, CONTINUE TO RUN HTR                RTRN0087
      00114  0074 00 4 00017         TSX     WRTOPR,4      NO, PRINT STOP COMMENT TO OPERATOR         RTRN0088
      00115  0 00010 0 00407         PZE     STPCOM,,8     ..                                         RTRN0089
      00116                          SCHEDL  Q12,Q0,Q0     SET BACKGROUND PRIORITY TO LOWEST          RTRN0090
                                                                                                      RTRN0091
      00122  0074 00 4 00003  RST4   TSX     DORMNT,4      PLACE IN DORMANT STATUS                    RTRN0092
      00123  000000000010            VFD     O36/SB.ERR    .. ON ERROR CONDITION                      RTRN0093
                                                                                                      RTRN0094
      00124                   RST5   CALL    SETUSR(Q2,URCODE,AUTHOR,PRIND,RLIND,M0)                  RTRN0095
      00133                          SETAB   LB,LB,LB      MEMORY SWITCHES FOR MEM. B                 RTRN0096
      00137  0074 00 4 00000         TSX     ADDTIM,4      INSURE TIME CHARGED AS FOREGROUND TIME     RTRN0097
      00140  0600 00 0 74475         STZ     SWPSW         ..                                         RTRN0098
      00141  0600 00 0 74474         STZ     COMSW         ..                                         RTRN0099
                                                                                                      RTRN0100
      00142  0074 00 4 00015  RST6   TSX     UPCLOC,4      UPDATE CLOCK AND CHECK FOR TRAP            RTRN0101
      00143  3 00000 0 72162         PAR     ILC           ..                                         RTRN0102
      00144 -0500 00 0 72162         CAL     ILC           GET USER ILC                               RTRN0103
      00145  0621 00 0 00153         STA     RST7          PUT INTO CMEXIT RETURN WORD                RTRN0104
      00146  0074 00 4 00010         TSX     RESTOR,4      RESTORE USER MACHINE STATUS                RTRN0105
      00147  0600 00 0 72433         STZ     WATCOM        INSURE WAITING COMMAND SWITCH RESET        RTRN0106
      00150  0074 00 4 00172         TSX     CMEXIT,4      EXIT TO USER PROGRAM IN CORE B             RTRN0107
      00151  0534 00 4 72166         LXA     IR4,4         ..                                         RTRN0108
      00152  0 00000 0 00153                 RST7          ..                                         RTRN0109
                                                                                                      RTRN0110
      00153  060000000000     RST7   VFD     O18/060000,18/0   B CORE RETURN WORD FOR CMEXIT          RTRN0111
                                                                                                      RTRN0112
                                                                                                      RTRN0113
      00154  0074 00 4 00010  IDLE   TSX     RESTOR,4      RESTORE (CLEARED) MACHINE STATUS           RTRN0114
      00155  0600 00 0 00000         STZ     0             PROVIDE HTR 0 AT 00000 CORE A              RTRN0115
      00156  0564 00 0 77777         ENB     ENBWD         ENABLE FOR ALL TRAPS                       RTRN0116
      00157  0020 00 0 00000         TRA     0             AND GO RUN IDLE                            RTRN0117
                                                                                                      RTRN0118
                                                                                                      RTRN0119
1      M1416 786 R. DALEY ..... RSTCPU CMEXIT ALLSAV AND ALLRST FOR CTSS .....   05/03/71 1623.4 PAGE 3

                                             FILXIT ...... RETURN TO USER FROM FILE SYSTEM            RTRN0120
                                                                                                      RTRN0121
      00160 -0500 60 4 00002  FILXIT CAL*    2,4           PICK UP RETURN LOCATION                    RTRN0122
      00161  0621 00 0 00165         STA     FILX1         .. AND SAVE FOR CORE A RETURN              RTRN0123
      00162 -0734 00 7 00000         PDX     0,7           IS RETURN TO CORE A OR B                   RTRN0124
      00163  3 00001 7 00166         TXH     BRET,7,1      .. DECR. = 2 MEANS CORE B                  RTRN0125
      00164  0522 00 4 00001         XEC     1,4           OTHERWISE, RELOAD XR4 FROM 1,4             RTRN0126
      00165  0020 00 0 00000  FILX1  TRA     **            .. AND RETURN TO CORE A PROGRAM            RTRN0127
      00166  0621 00 0 72162  BRET   STA     ILC           SAVE CORE B RETURN LOCATION                RTRN0128
      00167  0520 00 0 74616         ZET     SWAP          IS IT TIME TO SWAP USERS                   RTRN0129
      00170  0074 00 4 00002         TSX     CYCLE,4       .. YES, RETURN TO MAIN CONTROL             RTRN0130
      00171  0020 00 0 00142         TRA     RST6          .. NO, SAME RETURN SEQUENCE AS RSTCPU      RTRN0131
                                                                                                      RTRN0132
1      M1416 786 R. DALEY ..... RSTCPU CMEXIT ALLSAV AND ALLRST FOR CTSS .....   05/03/71 1623.4 PAGE 4

                                                                                                      RTRN0134
                                             CMEXIT ...... COMMON RETURN TO TRAPPED PROGRAM ..........RTRN0135
                                                                                                      RTRN0136
      00172  0564 00 0 74671  CMEXIT ENB     Q0            INSURE ALL TRAPS DISABLED                  RTRN0137
      00173  0634 00 4 00373         SXA     CMXIR4,4      SAVE CALLERS IR4 FOR REFERENCE             RTRN0138
      00174  0604 00 0 00374         STI     CMXSI         SAVE SI                                    RTRN0139
      00175  0441 60 4 00002         LDI*    2,4           PICK UP RETURN ADDRESS                     RTRN0140
      00176  0604 00 0 00372         STI     CMXRTN        .. SAVE IT                                 RTRN0141
      00177  0522 00 4 00001         XEC     1,4           PICK UP USER IR4                           RTRN0142
      00200  0520 00 0 74442         ZET     ATLOST        WAS A TRAP LOST ON CHANNEL 'A'             RTRN0143
      00201  0020 00 0 00240         TRA     SIMTRP        YES, GO SIMULATE LOST TRAP                 RTRN0144
      00202  0634 00 4 00205         SXA     LOAD.4,4      NO, SAVE USER'S IR4 FOR EXIT               RTRN0145
      00203  0534 00 4 00372         LXA     CMXRTN,4      SET UP IN CASE OF TIB RETURN               RTRN0146
      00204  0634 00 4 00233         SXA     CMRTN3,4      ..                                         RTRN0147
      00205  0774 00 4 00000  LOAD.4 AXT     **,4          RESTORE USER IR4                           RTRN0148
      00206 -0054 00  040000         LFT     40000         WERE WE IN MEMORY B                        RTRN0149
      00207  0020 00 0 00222         TRA     CMRTN2        YES, EXIT TO MEMORY B                      RTRN0150
      00210 -0054 00  020000         LFT     20000         WAS ECC SET FOR MEMORY B                   RTRN0151
      00211  0020 00 0 00215         TRA     CMRTN1        YES, EXIT WITH SEB                         RTRN0152
      00212  0441 00 0 00374         LDI     CMXSI         NO, RETURN TO SUPERVISOR                   RTRN0153
      00213  0564 00 0 77777         ENB     ENBWD         ..                                         RTRN0154
      00214  0020 60 0 00372         TRA*    CMXRTN        ..                                         RTRN0155
                                                                                                      RTRN0156
      00215  0441 00 0 00374  CMRTN1 LDI     CMXSI         HERE TO RETURN WITH SEB                    RTRN0157
      00216  0564 00 0 77777         ENB     ENBWD         .. REENABLE                                RTRN0158
      00217  0562 00 0 74671         LRI     Q0            .. DUMMY TO PROTECT SEQUENCE FROM TRAP     RTRN0159
      00220 -0761 00 0 00042         SEB                   ..                                         RTRN0160
      00221  0020 60 0 00372         TRA*    CMXRTN        ..                                         RTRN0161
                                                                                                      RTRN0162
      00222  0441 00 0 00374  CMRTN2 LDI     CMXSI         HERE TO RETURN TO USER PROGRAM             RTRN0163
      00223  0520 00 0 74616         ZET     SWAP          ..                                         RTRN0164
      00224  0020 00 0 00234         TRA     CMRTN4        ..                                         RTRN0165
      00225  0520 00 0 72201         ZET     FLMD          SET FLOATING TRAP STATUS FOR USER          RTRN0166
      00226 -0760 00 0 00002         EFTM                  ..                                         RTRN0167
      00227  0564 00 0 77777         ENB     ENBWD         ..                                         RTRN0168
      00230  0562 00 0 72160         LRI     RLIND         .. RETURN TO USER IN ALL MODES             RTRN0169
      00231 -0564 00 0 72157         LPI     PRIND         ..                                         RTRN0170
      00232 -0761 00 0 00042         SEB                   ..                                         RTRN0171
      00233 -0101 00 0 00000  CMRTN3 TIB     **            ..                                         RTRN0172
                                                                                                      RTRN0173
      00234  0634 00 4 72166  CMRTN4 SXA     IR4,4         HERE TO INTERRUPT USER, SAVE IR4           RTRN0174
      00235  0074 00 4 00011         TSX     SAVCPU,4      SAVE USER MACHINE CONDITIONS               RTRN0175
      00236  0 00000 0 00372                 CMXRTN        ..                                         RTRN0176
      00237  0020 00 0 00002         TRA     CYCLE         AND RETURN TO MAIN CONTROL SECTION         RTRN0177
                                                                                                      RTRN0178
      00240  0441 00 0 74442  SIMTRP LDI     ATLOST        HERE TO SIMULATE LOST TRAP ON CHANNEL 'A'  RTRN0179
      00241  0445 00 0 00431         RIS     =O777770777777  RESET ALL FLAGS EXCEPT BITS 15-17        RTRN0180
      00242  0604 00 0 00012         STI     ATRLOC        SAVE FLAGS IN TRAP LOCATION FOR CHANNEL 'A'RTRN0181
      00243  0441 00 0 00372         LDI     CMXRTN        GET TRAP RETURN LOCATION AND MEMORY FLAGS  RTRN0182
      00244 -0057 00  717777         RIL     717777        .. SAVE MEMORY FLAGS AND RETURN ONLY       RTRN0183
      00245  0442 00 0 00012         OSI     ATRLOC        COMPLETE TRAP WORD                         RTRN0184
      00246  0604 00 0 00012         STI     ATRLOC        ..                                         RTRN0185
      00247  0600 00 0 74442  STZ.A) STZ     ATLOST        RESET LOST TRAP FLAG                       RTRN0186
      00250  0441 00 0 00374         LDI     CMXSI         RESTORE USER'S SENSE INDICATORS            RTRN0187
      00251  0020 60 0 00013         TRA*    ADCTRP        AND SIMULATE TRAP ON CHANNEL 'A'           RTRN0188
                                                                                                      RTRN0189
1      M1416 786 R. DALEY ..... RSTCPU CMEXIT ALLSAV AND ALLRST FOR CTSS .....   05/03/71 1623.4 PAGE 5

                                                                                                      RTRN0191
                                             ALLSAV/ALLRST .... SAVE AND RESTORE MACHINE CONDITIONS   RTRN0192
                                                                                                      RTRN0193
      00252 -0520 00 0 74526  ALLSAV NZT     ENBSW         IF TRAP COMES FROM DISABLED ROUTINE,       RTRN0194
      00253  0000 00 0 00253         HTR     *             .. STOP FOR DUMP                           RTRN0195
      00254  0600 00 0 74526  STZ.SW STZ     ENBSW         RESET SWITCH ON ENTRY TO DISABLED SECTION  RTRN0196
      00255  0634 00 4 00371         SXA     ALLXR4,4      .. SAVE XR4 FOR POSSIBLE DEBUGGING         RTRN0197
      00256  0634 00 1 00335         SXA     TRPIR1,1      SAVE BASIC MACHINE CONDITIONS              RTRN0198
      00257  0634 00 2 00336         SXA     TRPIR2,2      ..                                         RTRN0199
      00260  0634 00 3 00337         SXA     TRPIR3,3      ..                                         RTRN0200
      00261  0774 00 3 00000         AXT     0,3           .. SAVE TAG MODE                           RTRN0201
      00262  0774 00 1 77777         AXT     -1,1          ..                                         RTRN0202
      00263  0600 00 0 00376         STZ     TRPMTM        ..                                         RTRN0203
      00264 -3 00000 3 00270         TXL     7TAG,3,0      .. SKIP IF IN 7-TAG (7094) MODE            RTRN0204
      00265 -0625 00 0 00376         STL     TRPMTM        .. OTHERWISE SET 3-TAG (7090) MODE         RTRN0205
      00266  0760 00 0 00016         LMTM                  ..                                         RTRN0206
      00267  0634 00 3 00337         SXA     TRPIR3,3      .. RESAVE IR3                              RTRN0207
      00270  0634 00 5 00340  7TAG   SXA     TRPIR5,5      ..                                         RTRN0208
      00271  0634 00 6 00341         SXA     TRPIR6,6      ..                                         RTRN0209
      00272  0634 00 7 00342         SXA     TRPIR7,7      ..                                         RTRN0210
      00273  0604 00 0 00377         STI     TRPSI         .. SAVE SENSE INDICATORS                   RTRN0211
      00274 -0600 00 0 00400         STQ     TRPMQ         .. MQ                                      RTRN0212
      00275  0602 00 0 00401         SLW     TRPLAC        .. LOGICAL AC                              RTRN0213
      00276  0771 00 0 00002         ARS     2             ..                                         RTRN0214
      00277  0601 00 0 00402         STO     TRPSQ         .. S AND Q BITS                            RTRN0215
      00300  0600 00 0 00405         STZ     TRPDCT        .. DIVIDE CHECK TRIGGER                    RTRN0216
      00301  0760 00 0 00012         DCT                   ..                                         RTRN0217
      00302 -0625 00 0 00405         STL     TRPDCT        ..                                         RTRN0218
      00303  0600 00 0 00403         STZ     TRPOV         .. AC OVERFLOW CONDITION                   RTRN0219
      00304 -0140 00 0 00306         TNO     *+2           ..                                         RTRN0220
      00305 -0625 00 0 00403         STL     TRPOV         ..                                         RTRN0221
      00306 -0625 00 0 00404         STL     TRPQO         .. MQ OVERFLOW CONDITION                   RTRN0222
      00307  0161 00 0 00311         TQO     *+2           ..                                         RTRN0223
      00310  0600 00 0 00404         STZ     TRPQO         ..                                         RTRN0224
      00311 -0760 00 0 00004         LFTM                  .. AND LEAVE FLOATING TRAP MODE            RTRN0225
      00312  0074 00 4 00004         TSX     GETOTL,4      TIME STAMP ON ENTRY TO TRAP                RTRN0226
      00313  0602 00 0 00406         SLW     TIMEIN        ..                                         RTRN0227
      00314  0534 00 4 00371         LXA     ALLXR4,4      RESTORE XR4                                RTRN0228
      00315  0020 00 4 00001         TRA     1,4           AND RETURN TO CALLER                       RTRN0229
                                                                                                      RTRN0230
      00316  0564 00 0 74671  ALLRST ENB     Q0            RESTORE BASIC MACHINE CONDITIONS           RTRN0231
      00317  0520 00 0 74526         ZET     ENBSW         IF THIS CALL DOES NOT COME AT TRAP TIME,   RTRN0232
      00320  0000 00 0 00320         HTR     *             STOP AND TAKE A DUMP.                      RTRN0233
      00321 -0625 00 0 74526  STL.SW STL     ENBSW         SET SWITCH--WE ARE LEAVING TRAP TIME.      RTRN0234
      00322 -0634 00 4 00371         SXD     ALLXR4,4      .. SAVE XR4 FOR POSSIBLE DEBUGGING         RTRN0235
      00323  0760 00 0 00016         LMTM                  ASSURE 7-TAG MODE ... SHOULD BE REDUNDANT  RTRN0236
      00324  0074 00 4 00004         TSX     GETOTL,4      FIND TIME SPENT IN TRAP                    RTRN0237
      00325  0402 00 0 00406         SUB     TIMEIN        ..                                         RTRN0238
      00326  0602 00 0 00375         SLW     TEMP          SAVE                                       RTRN0239
      00327  0400 00 0 74540         ADD     TRPTIM        UPDATE COUNTER                             RTRN0240
      00330  0602 00 0 74540         SLW     TRPTIM        ..                                         RTRN0241
      00331 -0500 00 0 00375         CAL     TEMP          FLOAT VALUE                                RTRN0242
      00332 -0501 00 0 00426         ORA     =O233000000000  ..                                       RTRN0243
      00333  0300 00 0 74537         FAD     TRPPCT        UPDATE INTEGRATOR                          RTRN0244
      00334  0602 00 0 74537         SLW     TRPPCT        ..                                         RTRN0245
      00335  0774 00 1 00000  TRPIR1 AXT     **,1          ..                                         RTRN0246
1      M1416 786 R. DALEY ..... RSTCPU CMEXIT ALLSAV AND ALLRST FOR CTSS .....   05/03/71 1623.4 PAGE 6

      00336  0774 00 2 00000  TRPIR2 AXT     **,2          ..                                         RTRN0247
      00337  0774 00 3 00000  TRPIR3 AXT     **,3          ..                                         RTRN0248
      00340  0774 00 5 00000  TRPIR5 AXT     **,5          ..                                         RTRN0249
      00341  0774 00 6 00000  TRPIR6 AXT     **,6          ..                                         RTRN0250
      00342  0774 00 7 00000  TRPIR7 AXT     **,7          ..                                         RTRN0251
      00343  0520 00 0 00376         ZET     TRPMTM        .. RESTORE TAG MODE                        RTRN0252
      00344 -0760 00 0 00016         EMTM                  ..                                         RTRN0253
      00345  0161 00 0 00346         TQO     *+1           .. MQ OVERFLOW STATUS                      RTRN0254
      00346 -0520 00 0 00404         NZT     TRPQO         ..                                         RTRN0255
      00347  0020 00 0 00352         TRA     *+3           ..                                         RTRN0256
      00350  0500 00 0 00427         CLA     =O377400000000 ..                                        RTRN0257
      00351  0241 00 0 00425         FDP     =O176400000000 .. CAUSE MQ OVERFLOW                      RTRN0258
      00352  0221 00 0 74671         DVP     Q0            .. RESTORE DIVIDE CHECK STATUS             RTRN0259
      00353 -0520 00 0 00405         NZT     TRPDCT        ..                                         RTRN0260
      00354  0760 00 0 00012         DCT                   ..                                         RTRN0261
      00355  0761 00 0 00000         NOP                   .. DON'T TRUST HARDWARE                    RTRN0262
      00356  0560 00 0 00402         LDQ     TRPSQ         .. RESTORE S AND Q BITS                    RTRN0263
      00357  0500 00 0 00357         CLA     *             .. AND TURN ON AC OVERFLOW TRIGGER         RTRN0264
      00360  0763 00 0 00001         LLS     1             ..                                         RTRN0265
      00361  0767 00 0 00044         ALS     36            ..                                         RTRN0266
      00362 -0501 00 0 00401         ORA     TRPLAC        .. RESTORE LOGICAL AC                      RTRN0267
      00363  0560 00 0 00400         LDQ     TRPMQ         .. RESTORE MQ                              RTRN0268
      00364  0441 00 0 00377         LDI     TRPSI         .. RESTORE SI                              RTRN0269
      00365 -0520 00 0 00403         NZT     TRPOV         .. RESTORE USER AC OVERFLOW STATUS         RTRN0270
      00366  0140 00 0 00367         TOV     *+1           ..                                         RTRN0271
      00367 -0534 00 4 00371         LXD     ALLXR4,4      RESTORE CALLER XR4                         RTRN0272
      00370  0020 00 4 00001         TRA     1,4           AND RETURN TO CALLER                       RTRN0273
      00371  0 00000 0 00000  ALLXR4 PZE     0,,0          XR4 SAVED FROM LAST ALLSAV,,ALLRST CALLS   RTRN0274
                                                                                                      RTRN0275
                              *  *  *  *  *  *  *  *  *  *  *  *  *  *  *  *  *  *  *  *  *  *  *  *  RTRN0276
                                                                                                      RTRN0277
                                                                                                      RTRN0279
      00372                          TEMPS   (CMXRTN,CMXIR4,CMXSI,TEMP)                               RTRN0280
                                                                                                      RTRN0281
      00376                          TEMPS   (TRPMTM,TRPSI,TRPMQ,TRPLAC,TRPSQ)                        RTRN0282
      00403                          TEMPS   (TRPOV,TRPQO,TRPDCT,TIMEIN)                              RTRN0283
                                                                                                      RTRN0284
                                                                                                      RTRN0285
      00407  604751462751     STPCOM BCI     / PROGRAM STOP AT/                                       RTRN0286
      00412  600000000000            BCI     / 00000 IN BACKGROUND SYSTEM./                           RTRN0287
                                                                                                      RTRN0288
      00417                          RMT     *                                                        RTRN0289
      00417  454660212363     ..001  BCI     /NO ACTION./                                             RTRN0289.001
      00421  603143236031     ..003  BCI     / ILC IS OUT OF BOUNDS./                                 RTRN0289.001
                                     END                                                              RTRN0291

        LITERALS
      00425  176400000000
      00426  233000000000
      00427  377400000000
      00430  600000000000
      00431  777770777777
1      M1416 786 R. DALEY ..... RSTCPU CMEXIT ALLSAV AND ALLRST FOR CTSS .....   05/03/71 1623.4 PAGE 1
                        POST PROCESSOR ASSEMBLY DATA

       72127 IS THE LAST LOCATION NOT USED BY THIS PROGRAM
        432 IS THE FIRST LOCATION NOT USED BY THIS PROGRAM

0REFERENCES TO DEFINED SYMBOLS
      74652     LB   134,  135,  136
      74654     M0   132
      74671     Q0    26,  120,  121,  172,  217,  316,  352
      74667     Q2    24,  125
      72162    ILC    37,   42,   60,   67,   73,  143,  144,  166
      72166    IR4   151,  234
          1    .F.    52,   56,  104,  110
          6    NZL    46
      74655    Q12   117
        270   7TAG   264
        166   BRET   163
          1   BTOC    75
      72201   FLMD   225
        154   IDLE    25
         57   RST1    31,   53
        106   RST2    65
        112   RST3   101
        122   RST4   105,  111
        124   RST5    72,  113
        142   RST6   171
        153   RST7   145,  152
      74616   SWAP    20,  167,  223
        375   TEMP    47,   51,  326,  331
      74502   USER    22,   52,   56,  100,  104,  110
        374  CMXSI   174,  212,  215,  222,  250
      74474  COMSW   141
          2  CYCLE    21,  170,  237
      74526  ENBSW   252,  254,  317,  321
      77777  ENBWD    34,   57,  156,  213,  216,  227
        165  FILX1   161
        417  ..001    55,  421
          2  ..002    55,  421
        421  ..003   107,  425
          4  ..004   107,  425
         54  NOBRK    36
      72157  PRIND    63,  130,  231
      72160  RLIND    61,  131,  230
         13  SETAB   133
      74475  SWPSW   140
        400  TRPMQ   274,  363
        403  TRPOV   303,  305,  365
        404  TRPQO   306,  310,  346
        377  TRPSI   273,  364
        402  TRPSQ   277,  356
         16  WRFLX    50,   54,  102,  106
         13 ADCTRP    20,  251
          0 ADDTIM   137
        316 ALLRST     0
        252 ALLSAV     0
        371 ALLXR4   255,  314,  322,  367
1      M1416 786 R. DALEY ..... RSTCPU CMEXIT ALLSAV AND ALLRST FOR CTSS .....   05/03/71 1623.4 PAGE 2
                        POST PROCESSOR ASSEMBLY DATA

      74442 ATLOST   200,  240,  247
         12 ATRLOC    20,  242,  245,  246
      72231 AUTHOR   127
      74445 BKGATT   112
      72221 BREAKL    35,   41,   44
      72222 BRKILC    40
        172 CMEXIT     0,  150
        215 CMRTN1   211
        222 CMRTN2   207
        233 CMRTN3   204
        234 CMRTN4   224
        373 CMXIR4   173
        372 CMXRTN     0,  176,  203,  214,  221,  236,  243
          3 DORMNT   122
        160 FILXIT     0
          4 GETOTL   312,  324
          5 GETUSR
       2000 INTBIT    30,   32
        205 LOAD.4     0,  202
          7 PRDIAG
         10 RESTOR   146,  154
         20 RSTCPU     0
         11 SAVCPU   235
         10 SB.ERR   123
         12 SCHEDL   116
         14 SETUSR   124
        240 SIMTRP   201
      77726 STATUS    23
        321 STL.SW     0
        407 STPCOM    77,  103,  115
        247 STZ.A)     0
        254 STZ.SW     0
        406 TIMEIN   313,  325
        405 TRPDCT   300,  302,  353
        335 TRPIR1   256
        336 TRPIR2   257
        337 TRPIR3   260,  267
        340 TRPIR5   270
        341 TRPIR6   271
        342 TRPIR7   272
        401 TRPLAC   275,  362
        376 TRPMTM   263,  265,  343
      74537 TRPPCT   333,  334
      74540 TRPTIM   327,  330
         15 UPCLOC   142
      72232 URCODE   126
      75524 USWICH    27,   33
      72433 WATCOM   147
         17 WRTOPR   114

0 NO ERROR IN ABOVE ASSEMBLY.


SAVR8B   BCD 03/04/70 1439.3    3982         00000
1       M1416 786 R. DALEY ....... CTSS USER SAVE AND RESTORE ROUTINES .......   03/04/70 1423.8 PAGE 1

                       00000         ENTRY   SAVCPU        ENTRY TO SAVE BASIC MACHINE CONDITIONS     SAVR0004
                       00053         ENTRY   RESTOR        ENTRY TO RESTORE BASIC MACHINE CONDITIONS  SAVR0005
                       00107         ENTRY   RSTIRS        ENTRY TO RESTORE USER INDEX REGISTERS      SAVR0006
                       00123         ENTRY   LONGSV        ENTRY TO SAVE COMPLETE MACHINE CONDITIONS  SAVR0007
                       00142         ENTRY   LNGRST        ENTRY TO RESTORE COMPLETE MACHINE COND.    SAVR0008
                       00205         ENTRY   SVSIRS        ENTRY TO SAVE SYSTEM INDEX REGISTERS       SAVR0009
                       00211         ENTRY   GTSIRS        ENTRY TO RESTORE SYSTEM INDEX REGISTERS    SAVR0010
                                                                                                      SAVR0011
                                     UNLIST                                                           SAVR0012

                                                                                                      SAVR0017
                                             SAVCPU .......... SAVE BASIC USER MACHINE CONDITIONS     SAVR0018
                                                                                                      SAVR0019
      00000 -0625 00 0 72156  SAVCPU STL     MACOND        INDICATE MACHINE CONDITIONS SAVED          SAVR0020
      00001  0634 00 4 00046         SXA     SVCPUX,4                                                 SAVR0021
      00002 -0600 00 0 72175         STQ     MQ            SAVE MQ                                    SAVR0022
      00003  0602 00 0 72173         SLW     LAC           LOGICAL AC                                 SAVR0023
      00004  0771 00 0 00002         ARS     2                                                        SAVR0024
      00005  0601 00 0 72174         STO     SQ            S AND Q BITS                               SAVR0025
      00006  0604 00 0 72176         STI     SI            SENSE INDICATORS                           SAVR0026
      00007  0600 00 0 72177         STZ     OV            OVERFLOW TRIGGER                           SAVR0027
      00010 -0140 00 0 00012         TNO     *+2           ..                                         SAVR0028
      00011 -0625 00 0 72177         STL     OV            ..                                         SAVR0029
      00012  0634 00 1 72171         SXA     IR1,1         SAVE ALL INDEX REGISTERS, EITHER MODE      SAVR0030
      00013  0634 00 2 72170         SXA     IR2,2         ..IR4 ALL READY SAVED                      SAVR0031
      00014  0634 00 3 72167         SXA     IR3,3         ..                                         SAVR0032
      00015  0774 00 3 00000         AXT     0,3           SAVE TAG MODE                              SAVR0033
      00016  0774 00 1 77777         AXT     -1,1                                                     SAVR0034
      00017  0600 00 0 72200         STZ     MTMD          ASSURE THAT MTMD INDICATOR RESET           SAVR0035
      00020  0634 00 3 72200         SXA     MTMD,3        0 IF 7-TAG, -1 IF MTM                      SAVR0036
      00021  0760 00 0 00016         LMTM                  STANDARD MODE FOR CTSS                     SAVR0037
      00022  0520 00 0 72200         ZET     MTMD          HAS XR3 ALREADY BEEN SAVED                 SAVR0038
      00023  0634 00 3 72167         SXA     IR3,3         NOT IF USER IN MTM                         SAVR0039
      00024  0634 00 5 72165         SXA     IR5,5         ..                                         SAVR0040
      00025  0634 00 6 72164         SXA     IR6,6         ..                                         SAVR0041
      00026  0634 00 7 72163         SXA     IR7,7         ..                                         SAVR0042
      00027  0600 00 0 72203         STZ     DVCK          SAVE DIVIDE CHECK STATUS                   SAVR0043
      00030  0760 00 0 00012         DCT                   ..                                         SAVR0044
      00031 -0625 00 0 72203         STL     DVCK          ..                                         SAVR0045
      00032 -0754 00 0 00000         ZAC                                                              SAVR0046
      00033  0774 00 4 00004         AXT     4,4           SAVE SENSE LIGHT STATUS                    SAVR0047
      00034  0767 00 0 00001         ALS     1             ..                                         SAVR0048
      00035 -0760 00 4 00145         SLT     5,4           ..                                         SAVR0049
      00036  0020 00 0 00040         TRA     *+2           ..                                         SAVR0050
      00037 -0501 00 0 74670         ORA     Q1            ..                                         SAVR0051
      00040  2 00001 4 00034         TIX     *-4,4,1       ..                                         SAVR0052
      00041  0602 00 0 72204         SLW     SLTS          ..                                         SAVR0053
      00042  0161 00 0 00044         TQO     *+2           TEST FOR MQ OVERFLOW                       SAVR0054
      00043  0774 00 4 00000         AXT     0,4           .. IF NONE, RESET SWITCH                   SAVR0055
      00044 -0634 00 4 72204         SXD     SLTS,4        .. SAVE MQ OVERFLOW SWITCH                 SAVR0056
      00045 -0760 00 0 00004         LFTM                  NORMAL MODE IS 704                         SAVR0057
      00046  0774 00 4 00000  SVCPUX AXT     **,4                                                     SAVR0058
      00047 -0500 60 4 00001         CAL*    1,4           SAVE RETURN                                SAVR0059
      00050  0100 00 4 00002         TZE     2,4           LEAVE PREVIOUS ILC IF 00000 CORE A         SAVR0060
      00051  0621 00 0 72162         STA     ILC           ..                                         SAVR0061
      00052  0020 00 4 00002         TRA     2,4           RETURN TO CALLER                           SAVR0062
1       M1416 786 R. DALEY ....... CTSS USER SAVE AND RESTORE ROUTINES .......   03/04/70 1423.8 PAGE 2

                                                                                                      SAVR0064
                                             RESTOR .......... RESTORE BASIC USER MACHINE CONDITIONS  SAVR0065
                                                                                                      SAVR0066
                       00053  RESTOR SYN     *             ROUTINE TO RESTORE BASIC M.C.              SAVR0067
      00053  0634 00 4 00072         SXA     TMPX4,4       ..                                         SAVR0068
      00054  0774 00 4 00004         AXT     4,4           RESTORE SENSE LIGHT STATUS                 SAVR0069
      00055 -0500 00 0 72204         CAL     SLTS          ..                                         SAVR0070
      00056 -0765 00 0 00004         LGR     4             ..                                         SAVR0071
      00057  0162 00 0 00061         TQP     *+2           ..                                         SAVR0072
      00060  0760 00 4 00145         SLN     5,4           ..                                         SAVR0073
      00061 -0763 00 0 00001         LGL     1             ..                                         SAVR0074
      00062  2 00001 4 00057         TIX     *-3,4,1       ..                                         SAVR0075
      00063 -0734 00 4 00000         PDX     0,4           PICK UP MQ OVERFLOW SWITCH                 SAVR0076
      00064  0161 00 0 00065         TQO     *+1           RESET MQ OVERFLOW INDICATOR                SAVR0077
      00065 -3 00000 4 00070         TXL     *+3,4,0       SKIP IF NO MQ OVERFLOW                     SAVR0078
      00066  0500 00 0 00223         CLA     =O377400000000   CAUSE MQ OVERFLOW                       SAVR0079
      00067  0241 00 0 00222         FDP     =O176400000000   ..                                      SAVR0080
      00070  0520 00 0 72201         ZET     FLMD          RESTORE FLOATING TRAP STATUS               SAVR0081
      00071 -0760 00 0 00002         EFTM                  ..                                         SAVR0082
      00072  0774 00 4 00000  TMPX4  AXT     -,4           ..                                         SAVR0083
      00073  0221 00 0 74671         DVP     Q0            RESTORE DIVIDE CHECK STATUS                SAVR0084
      00074 -0520 00 0 72203         NZT     DVCK          ..                                         SAVR0085
      00075  0760 00 0 00012         DCT                   ..                                         SAVR0086
      00076  0441 00 0 72176         LDI     SI            SENSE INDICATORS                           SAVR0087
      00077  0560 00 0 72174         LDQ     SQ            S AND Q BITS                               SAVR0088
      00100  0500 00 0 00100         CLA     *                                                        SAVR0089
      00101  0763 00 0 00001         LLS     1                                                        SAVR0090
      00102  0767 00 0 00044         ALS     36            OVERFLOW TRIGGER                           SAVR0091
      00103 -0501 00 0 72173         ORA     LAC           LOGICAL AC                                 SAVR0092
      00104 -0520 00 0 72177         NZT     OV                                                       SAVR0093
      00105  0140 00 0 00106         TOV     *+1                                                      SAVR0094
      00106  0560 00 0 72175         LDQ     MQ            MQ                                         SAVR0095
                                                                                                      SAVR0096
      00107  1 77777 4 00110  RSTIRS TXI     *+1,4,-1      ROUTINE TO RESTORE INDEX REGISTERS         SAVR0097
      00110  0636 00 4 00122         SCA     RESTOX,4      SET UP RETURN                              SAVR0098
      00111  0534 00 1 72171         LXA     IR1,1         ..                                         SAVR0099
      00112  0534 00 2 72170         LXA     IR2,2         ..                                         SAVR0100
      00113  0534 00 3 72167         LXA     IR3,3         ..                                         SAVR0101
      00114  0534 00 4 72166         LXA     IR4,4         ..                                         SAVR0102
      00115  0534 00 5 72165         LXA     IR5,5         ..                                         SAVR0103
      00116  0534 00 6 72164         LXA     IR6,6         ..                                         SAVR0104
      00117  0534 00 7 72163         LXA     IR7,7         ..                                         SAVR0105
      00120  0520 00 0 72200         ZET     MTMD          RESTORE TAG MODE                           SAVR0106
      00121 -0760 00 0 00016         EMTM                                                             SAVR0107
      00122  0020 00 0 00000  RESTOX TRA     **            RETURN TO CALLER                           SAVR0108
1       M1416 786 R. DALEY ....... CTSS USER SAVE AND RESTORE ROUTINES .......   03/04/70 1423.8 PAGE 3

                                                                                                      SAVR0110
                                             LONGSV ..... SAVE COMPLETE MACHINE CONDITIONS            SAVR0111
                                                                                                      SAVR0112
      00123  0634 00 4 00140  LONGSV SXA     LSAVX,4       SAVE RETURN INDEX                          SAVR0113
      00124  0564 00 0 77777         ENB     ENBWD         INSURE WE ARE ENABLED                      SAVR0114
      00125  0060 00 0 00125         TCOA    *             AND TAKE ANY WAITING I/O TRAPS             SAVR0115
      00126  0061 00 0 00126         TCOB    *             ON CHANNELS A AND B                        SAVR0116
      00127  0640 00 0 72205         SCHA    ASTAT         SAVE CHANNEL STATUS                        SAVR0117
      00130 -0640 00 0 72206         SCHB    BSTAT         FOR CHANNELS A AND B                       SAVR0118
      00131  0600 00 0 72202         STZ     IOCK          SAVE I/O CHECK STATUS                      SAVR0119
      00132  0760 00 0 00005         IOT                   ..                                         SAVR0120
      00133 -0625 00 0 72202         STL     IOCK          ..                                         SAVR0121
      00134 -0761 00 0 00042         SEB                   SAVE C(-1)                                 SAVR0122
      00135  0500 00 0 77777         CLA     -1            ..                                         SAVR0123
      00136 -0761 00 0 00041         SEA                   ..                                         SAVR0124
      00137  0601 00 0 72225         STO     SAVEM1        ..                                         SAVR0125
      00140  0774 00 4 00000  LSAVX  AXT     **,4                                                     SAVR0126
      00141  0020 00 4 00001         TRA     1,4           RETURN                                     SAVR0127
1       M1416 786 R. DALEY ....... CTSS USER SAVE AND RESTORE ROUTINES .......   03/04/70 1423.8 PAGE 4

                                                                                                      SAVR0129
                                             LNGRST ..... RESTORE COMPLETE MACHINE CONDITIONS         SAVR0130
                                                                                                      SAVR0131
      00142  0634 00 4 00203  LNGRST SXA     LRSTX,4       SAVE RETURN INDEX                          SAVR0132
      00143 -0500 00 0 72212         CAL     ATRILC        SAVE USER TRAP STATUS                      SAVR0133
      00144  0602 00 0 00216         SLW     ATRSAV        ..                                         SAVR0134
      00145 -0500 00 0 72213         CAL     BTRILC        ..                                         SAVR0135
      00146  0602 00 0 00217         SLW     BTRSAV        ..                                         SAVR0136
      00147  0564 00 0 74671         ENB     Q0            INSURE ALL TRAP DISABLED                   SAVR0137
      00150  0774 00 7 00002         AXT     2,7           RESTORE CHANNEL A AND B STATUS             SAVR0138
      00151  0441 00 7 72207  LRST.  LDI     ASTAT+2,7     ..                                         SAVR0139
      00152 -0046 00 0 00000         PIA                   ..                                         SAVR0140
      00153 -0737 00 4 00000         PDC     0,4           ..                                         SAVR0141
      00154 -0320 00 0 00224         ANA     =O700000377777 ..                                        SAVR0142
      00155  0054 00  400000         RFT     400000        ..                                         SAVR0143
      00156 -0761 00 0 00042         SEB                   ..                                         SAVR0144
      00157  0560 00 4 77777         LDQ     -1,4          ..                                         SAVR0145
      00160  0602 00 4 77777         SLW     -1,4          ..                                         SAVR0146
      00161  0522 00 7 00222         XEC     RCHA+2,7      ..                                         SAVR0147
      00162 -0600 00 4 77777         STQ     -1,4          ..                                         SAVR0148
      00163 -0761 00 0 00041         SEA                   ..                                         SAVR0149
      00164  2 00001 7 00151         TIX     LRST.,7,1     ..                                         SAVR0150
      00165 -0520 00 0 72202         NZT     IOCK          RESTORE I/O CHECK STATUS                   SAVR0151
      00166  0760 00 0 00005         IOT                   ..                                         SAVR0152
      00167  0761 00 0 00000         NOP                   DON'T TRUST HARDWARE                       SAVR0153
      00170  0564 00 0 77777         ENB     ENBWD         RE-ENABLE ALL TRAPS                        SAVR0154
      00171  0060 00 0 00171         TCOA    *             INSURE ANY TRAP TAKEN NOW                  SAVR0155
      00172  0061 00 0 00172         TCOB    *             ..                                         SAVR0156
      00173 -0500 00 0 00216         CAL     ATRSAV        RESTORE USER TRAP STATUS                   SAVR0157
      00174  0602 00 0 72212         SLW     ATRILC        ..                                         SAVR0158
      00175 -0500 00 0 00217         CAL     BTRSAV        ..                                         SAVR0159
      00176  0602 00 0 72213         SLW     BTRILC        ..                                         SAVR0160
      00177  0500 00 0 72225         CLA     SAVEM1        RESTORE C(-1)                              SAVR0161
      00200 -0761 00 0 00042         SEB                   ..                                         SAVR0162
      00201  0601 00 0 77777         STO     -1            ..                                         SAVR0163
      00202 -0761 00 0 00041         SEA                   ..                                         SAVR0164
      00203  0774 00 4 00000  LRSTX  AXT     **,4                                                     SAVR0165
      00204  0020 00 4 00001         TRA     1,4           RETURN TO CALLER                           SAVR0166
                                                                                                      SAVR0167
      00205  0634 00 1 00212  SVSIRS SXA     SIR1,1        ROUTINE TO SAVE SYSTEM XRS 1-3             SAVR0168
      00206  0634 00 2 00213         SXA     SIR2,2        ..                                         SAVR0169
      00207  0634 00 3 00214         SXA     SIR3,3        ..                                         SAVR0170
      00210  0020 00 4 00001         TRA     1,4           RETURN                                     SAVR0171
                                                                                                      SAVR0172
      00211  0760 00 0 00016  GTSIRS LMTM                  ROUTINE TO RESTORE SYSTEM XRS AND MODE     SAVR0173
      00212  0774 00 1 00000  SIR1   AXT     **,1          ..                                         SAVR0174
      00213  0774 00 2 00000  SIR2   AXT     **,2          ..                                         SAVR0175
      00214  0774 00 3 00000  SIR3   AXT     **,3          ..                                         SAVR0176
      00215  0020 00 4 00001         TRA     1,4           RETURN                                     SAVR0177
                                                                                                      SAVR0178
      00216  0 00000 0 00000  ATRSAV PZE     0                                                        SAVR0179
      00217  0 00000 0 00000  BTRSAV PZE     0                                                        SAVR0180
                                                                                                      SAVR0181
      00220  0540 00 4 77777  RCHA   RCHA    -1,4                                                     SAVR0182
      00221 -0540 00 4 77777         RCHB    -1,4                                                     SAVR0183
                                                                                                      SAVR0184
1       M1416 786 R. DALEY ....... CTSS USER SAVE AND RESTORE ROUTINES .......   03/04/70 1423.8 PAGE 5

                                     END                                                              SAVR0185

        LITERALS
      00222  176400000000
      00223  377400000000
      00224  700000377777
1       M1416 786 R. DALEY ....... CTSS USER SAVE AND RESTORE ROUTINES .......   03/04/70 1423.8 PAGE 1
                        POST PROCESSOR ASSEMBLY DATA

       72127 IS THE LAST LOCATION NOT USED BY THIS PROGRAM
        225 IS THE FIRST LOCATION NOT USED BY THIS PROGRAM

0REFERENCES TO DEFINED SYMBOLS
      72175     MQ     2,  106
      72177     OV     7,   11,  104
      74671     Q0    73,  147
      74670     Q1    37
      72176     SI     6,   76
      72174     SQ     5,   77
      72162    ILC    51
      72171    IR1    12,  111
      72170    IR2    13,  112
      72167    IR3    14,   23,  113
      72166    IR4   114
      72165    IR5    24,  115
      72164    IR6    25,  116
      72163    IR7    26,  117
      72173    LAC     3,  103
      72203   DVCK    27,   31,   74
      72201   FLMD    70
      72202   IOCK   131,  133,  165
      72200   MTMD    17,   20,   22,  120
        220   RCHA   161
        212   SIR1   205
        213   SIR2   206
        214   SIR3   207
      72204   SLTS    41,   44,   55
      72205  ASTAT   127,  151
      72206  BSTAT   130
      77777  ENBWD   124,  170
        151  LRST.   164
        203  LRSTX   142
        140  LSAVX   123
         72  TMPX4    53
      72212 ATRILC   143,  174
        216 ATRSAV   144,  173
      72213 BTRILC   145,  176
        217 BTRSAV   146,  175
        211 GTSIRS     0
        142 LNGRST     0
        123 LONGSV     0
      72156 MACOND     0
         53 RESTOR     0,   53
        122 RESTOX   110
        107 RSTIRS     0
          0 SAVCPU     0
      72225 SAVEM1   137,  177
         46 SVCPUX     1
        205 SVSIRS     0

0 NO ERROR IN ABOVE ASSEMBLY.


UTRP8A   BCD 03/04/70 1439.3    2664         00000
1       M1416 786 R. DALEY ..... ATRAP, BTRAP, FLPTRP, STRTRP, CTRAPS, UPCLOC    03/04/70 1425.5 PAGE 1

                                                                                                      UTRP0003
                       00005         ENTRY   ATRAP         TO PROCESS DATA CHANNEL TRAP FROM A        UTRP0004
                       00020         ENTRY   BTRAP         TO PROCESS DATA CHANNEL TRAP FROM B        UTRP0005
                       00037         ENTRY   STRTRP        TO PROCESS STR TRAP                        UTRP0006
                       00050         ENTRY   FLPTRP        TO PROCESS FLOATING POINT TRAP             UTRP0007
                       00073         ENTRY   UPCLOC        TO UPDATE CORE CLOCK FOR CURRENT USER      UTRP0008
                                                                                                      UTRP0009
                                     EXTERN  ALLSAV,ALLRST,TRAPA,TRAPB,CMEXIT                         UTRP0010
                                                                                                      UTRP0012

        TRANSFER VECTOR
      00000  214343622165     ALLSAV
      00001  214343516263     ALLRST
      00002  635121472160     TRAPA
      00003  635121472260     TRAPB
      00004  234425673163     CMEXIT

                       00005  CLOCK. EQU     5             LOCATION OF INTERVAL TIMER                 UTRP0013
                       00006  CLKLOC EQU     6             TRAP LOCATION FOR INTERVAL TIMER           UTRP0014
                       00012  ATRIC. EQU     10            TRAP LOCATION FOR CHANNEL A                UTRP0015
                       00014  BTRIC. SYN     ATRIC.+2      TRAP LOCATION FOR CHANNEL B                UTRP0016
                                                                                                      UTRP0017
                                     UNLIST                                                           UTRP0018

                                                                                                      UTRP0024
                                                                                                      UTRP0025
1       M1416 786 R. DALEY ..... ATRAP, BTRAP, FLPTRP, STRTRP, CTRAPS, UPCLOC    03/04/70 1425.5 PAGE 2

                                                                                                      UTRP0027
                                             ATRAP/BTRAP ..... PROCESS DATA CHANNEL TRAPS ON A AND B  UTRP0028
                                                                                                      UTRP0029
      00005  0564 00 0 74671  ATRAP  ENB     Q0            HERE FOR DATA CHANNEL TRAP ON A            UTRP0030
      00006  0634 00 4 00034         SXA     ABTIR4,4      SAVE USER'S MACHINE CONDITIONS             UTRP0031
      00007  0074 00 4 00000         TSX     ALLSAV,4      ..                                         UTRP0032
      00010 -0500 00 0 00012         CAL     ATRIC.        SAVE RETURN LOCATION                       UTRP0033
      00011  0602 00 0 00036         SLW     ABTRTN        ..                                         UTRP0034
      00012  0074 00 4 00002         TSX     TRAPA,4       PASS TRAP TO TAPE I/O ADAPTER              UTRP0035
      00013  3 00000 0 00036         PTH     ABTRTN        ..                                         UTRP0036
      00014  0020 00 0 00032         TRA     ABTXIT        SKIP IF TRAP TAKEN BY TAPE ADAPTER         UTRP0037
      00015 -0500 00 0 00036         CAL     ABTRTN        OTHERWISE RECORD USER TRAP                 UTRP0038
      00016 -0602 00 0 72212         ORS     ATRILC        ..                                         UTRP0039
      00017  0020 00 0 00032         TRA     ABTXIT                                                   UTRP0040
                                                                                                      UTRP0041
      00020  0564 00 0 74671  BTRAP  ENB     Q0            HERE FOR DATA CHANNEL TRAP ON B            UTRP0042
      00021  0634 00 4 00034         SXA     ABTIR4,4      SAVE USER'S MACHINE CONDITIONS             UTRP0043
      00022  0074 00 4 00000         TSX     ALLSAV,4      ..                                         UTRP0044
      00023 -0500 00 0 00014         CAL     BTRIC.        SAVE RETURN LOCATION                       UTRP0045
      00024  0602 00 0 00036         SLW     ABTRTN        ..                                         UTRP0046
      00025  0074 00 4 00003         TSX     TRAPB,4       PASS TRAP TO TAPE I/O ADAPTER              UTRP0047
      00026  3 00000 0 00036         PTH     ABTRTN        ..                                         UTRP0048
      00027  0020 00 0 00032         TRA     ABTXIT        SKIP IF TRAP TAKEN BY TAPE ADAPTER         UTRP0049
      00030 -0500 00 0 00036         CAL     ABTRTN        OTHERWISE RECORD USER TRAP                 UTRP0050
      00031 -0602 00 0 72213         ORS     BTRILC        ..                                         UTRP0051
                                                                                                      UTRP0052
      00032  0074 00 4 00001  ABTXIT TSX     ALLRST,4      HERE AFTER TRAP HAS BEEN PROCESSED         UTRP0053
      00033  0074 00 4 00004         TSX     CMEXIT,4      RETURN THRU COMMON EXIT ROUTINE            UTRP0054
      00034  0774 00 4 00000  ABTIR4 AXT     **,4          ..                                         UTRP0055
      00035  0 00000 0 00036                 ABTRTN        ..                                         UTRP0056
                                                                                                      UTRP0057
      00036  0 00000 0 00000  ABTRTN PZE     0             TRAP RETURN LOCATION                       UTRP0058
                                                                                                      UTRP0059
1       M1416 786 R. DALEY ..... ATRAP, BTRAP, FLPTRP, STRTRP, CTRAPS, UPCLOC    03/04/70 1425.5 PAGE 3

                                                                                                      UTRP0061
                                             STRTRP ....... PROCESS TRAP ON STR INSTRUCTION           UTRP0062
                                                                                                      UTRP0063
      00037  0634 00 4 00046  STRTRP SXA     STRIR4,4      HERE FOR STR TRAP                          UTRP0064
      00040  0534 00 4 00000         LXA     0,4           GET LOCATION ADDRESS                       UTRP0065
      00041 -0761 00 0 00042         SEB                   AND PLACE                                  UTRP0066
      00042  0634 00 4 00000         SXA     0,4           IN LOCATION 0 OF MEMORY B                  UTRP0067
      00043 -0761 00 0 00041         SEA                                                              UTRP0068
      00044  0564 00 0 74671         ENB     Q0            DISABLE ALL TRAPS                          UTRP0069
      00045  0074 00 4 00004         TSX     CMEXIT,4      EXIT TO LOCATION 2 IN MEMORY B             UTRP0070
      00046  0774 00 4 00000  STRIR4 AXT     **,4          ..                                         UTRP0071
      00047  0 00000 0 00122                 =O60000000002 ..                                         UTRP0072
                                                                                                      UTRP0073
                                             FLPTRP ....... PROCESS FLOATING POINT TRAP ..............UTRP0074
                                                                                                      UTRP0075
      00050  0634 00 4 00070  FLPTRP SXA     FLTIR4,4      HERE FOR FLOATING POINT TRAP               UTRP0076
      00051  0604 00 0 00072         STI     FLTSI                                                    UTRP0077
      00052  0441 00 0 00000         LDI     0             RESET  BITS 3 AND 4 LOCATION 0             UTRP0078
      00053 -0057 00  060000         RIL     60000         ..                                         UTRP0079
      00054  0604 00 0 00000         STI     0             ..                                         UTRP0080
      00055  0441 00 0 00072         LDI     FLTSI                                                    UTRP0081
      00056  0534 00 4 00000         LXA     0,4           MOVE LOCATION 0 ADDRESS AND DECREMENT      UTRP0082
      00057 -0761 00 0 00042         SEB                   TO LOCATION 0 IN MEMORY B                  UTRP0083
      00060  0634 00 4 00000         SXA     0,4           ..                                         UTRP0084
      00061 -0761 00 0 00041         SEA                   ..                                         UTRP0085
      00062 -0534 00 4 00000         LXD     0,4           ..                                         UTRP0086
      00063 -0761 00 0 00042         SEB                   ..                                         UTRP0087
      00064 -0634 00 4 00000         SXD     0,4           ..                                         UTRP0088
      00065 -0761 00 0 00041         SEA                                                              UTRP0089
      00066  0564 00 0 74671         ENB     Q0            DISABLE ALL TRAPS                          UTRP0090
      00067  0074 00 4 00004         TSX     CMEXIT,4      EXIT TO LOCATION 8 IN MEMORY B             UTRP0091
      00070  0774 00 4 00000  FLTIR4 AXT     **,4          ..                                         UTRP0092
      00071  0 00000 0 00123                 =O60000000010 ..                                         UTRP0093
                                                                                                      UTRP0094
      00072  0 00000 0 00000  FLTSI  PZE     0                                                        UTRP0095
                                                                                                      UTRP0096
1       M1416 786 R. DALEY ..... ATRAP, BTRAP, FLPTRP, STRTRP, CTRAPS, UPCLOC    03/04/70 1425.5 PAGE 4

                                                                                                      UTRP0098
                                             UPCLOC ...... UPDATE USER INTERVAL TIMER, CHECK FOR TRAP UTRP0099
                                                                                                      UTRP0100
      00073  0535 00 5 74502  UPCLOC LAC     USER,5                                                   UTRP0101
      00074                          NZTBIT  USROPT,5,CLKBIT IS USER CORE CLOCK RUNNING               UTRP0102
      00076  0020 00 4 00002         TRA     2,4           NO, RETURN                                 UTRP0103
      00077  0140 00 0 00100         TOV     *+1           YES, TURN OVERFLOW TRIGGER OFF             UTRP0104
      00100 -0500 00 5 75136         CAL     TIMINC,5      USER CLOCK INCREMENT                       UTRP0105
      00101  0600 00 5 75136         STZ     TIMINC,5      RESET IT                                   UTRP0106
      00102  0535 00 5 72160         LAC     RLIND,5       USER RELOCATION IF ANY                     UTRP0107
      00103 -0761 00 0 00042         SEB                   UPDATE USER STORAGE CLOCK                  UTRP0108
      00104  0401 00 5 00005         ADM     CLOCK.,5      ..                                         UTRP0109
      00105  0601 00 5 00005         STO     CLOCK.,5      ..                                         UTRP0110
      00106 -0761 00 0 00041         SEA                   ..                                         UTRP0111
      00107 -0140 00 4 00002         TNO     2,4           RETURN IF NO TRAP (OVERFLOW)               UTRP0112
      00110  0774 00 5 00007         AXT     CLKLOC+1,5    SIMULATE USER CLOCK TRAP                   UTRP0113
      00111  0754 00 5 00000         PXA     0,5           ..                                         UTRP0114
      00112  0560 60 4 00001         LDQ*    1,4           .. GET CURRENT USER ILC                    UTRP0115
      00113  0621 60 4 00001         STA*    1,4           .. SET USER TRAP ILC                       UTRP0116
      00114 -0130 00 0 00000         XCL                   .. OLD USER ILC TO AC                      UTRP0117
      00115  0535 00 5 72160         LAC     RLIND,5       .. RELOCATION IF ANY                       UTRP0118
      00116 -0761 00 0 00042         SEB                   ..                                         UTRP0119
      00117  0621 00 5 00006         STA     CLKLOC,5      ..                                         UTRP0120
      00120 -0761 00 0 00041         SEA                   ..                                         UTRP0121
      00121  0020 00 4 00002         TRA     2,4                                                      UTRP0122
                                                                                                      UTRP0123
                                     END                                                              UTRP0125

        LITERALS
      00122  060000000002
      00123  060000000010
1       M1416 786 R. DALEY ..... ATRAP, BTRAP, FLPTRP, STRTRP, CTRAPS, UPCLOC    03/04/70 1425.5 PAGE 1
                        POST PROCESSOR ASSEMBLY DATA

       72127 IS THE LAST LOCATION NOT USED BY THIS PROGRAM
        124 IS THE FIRST LOCATION NOT USED BY THIS PROGRAM

0REFERENCES TO DEFINED SYMBOLS
      74671     Q0     5,   20,   44,   66
      74502   USER    73
          5  ATRAP     0
         20  BTRAP     0
         72  FLTSI    51,   55
      72160  RLIND   102,  115
          2  TRAPA    12
          3  TRAPB    25
         34 ABTIR4     6,   21
         36 ABTRTN    11,   13,   15,   24,   26,   30,   35
         32 ABTXIT    14,   17,   27
          1 ALLRST    32
          0 ALLSAV     7,   22
         12 ATRIC.     5,   10
      72212 ATRILC    16
         14 BTRIC.     5,   23
      72213 BTRILC    31
        100 CLKBIT    75
          6 CLKLOC     5,  110,  117
          5 CLOCK.     5,  104,  105
          4 CMEXIT    33,   45,   67
         50 FLPTRP     0
         70 FLTIR4    50
         46 STRIR4    37
         37 STRTRP     0
      75136 TIMINC   100,  101
         73 UPCLOC     0
      75770 USROPT    74

0 NO ERROR IN ABOVE ASSEMBLY.


WRFL8B   BCD 07/23/70 1554.6    5276         00000
1       N. I. MORRIS  ...  WRFLX(A) - SEND OUTPUT LINE TO APPROPRIATE DEVICE.    07/22/70 1322.8 PAGE 1

                                             3/23/66                                                  WRFL0002
                                             ORIGINAL VERSION BY M. WAGNER.                           WRFL0003
                                                                                                      WRFL0004
                       00023         ENTRY   WRFLX         PRINT MESSAGE WITH APPENDED CARRIAGE RETURNWRFL0005
                       00026         ENTRY   WRFLXA        PRINT WITHOUT CARRIAGE RETURN              WRFL0006
                       00021         ENTRY   WRSCFX        WRITE INFORMATION ON SCOPE                 WRFL0007
                       00267         ENTRY   WRTOPR        WRITE LINE TO OPERATOR                     WRFL0008
                                                                                                      WRFL0009
                                     EXTERN  .WRFX,.WRFXA,.WRSCP,PRINT,GETUSR,CHNGUS,SETAB            WRFL0010
                                     EXTERN  ATTUSR,ATTSYS,OPEN,BUFFER,WRFILE,CLOSE,FSTATE            WRFL0011
                                     EXTERN  RESET,PRDIAG,EPRINT                                      WRFL0012
                                                                                                      WRFL0014
                                                                                                      WRFL0015
                                     UNLIST                                                           WRFL0016

                                                                                                      WRFL0022
                                                                                                      WRFL0023
      00021 -0500 00 0 00002  WRSCFX CAL     .WRSCP        GET SCOPE WRITE ENTRY                      WRFL0024
      00022  0020 00 0 00030         TRA     WRFLX3                                                   WRFL0025
      00023 -0500 00 0 00000  WRFLX  CAL     .WRFX         WRFLX ENTRY                                WRFL0026
      00024  0600 00 0 00330         STZ     .XA           SET SWITCH TO INDICATE WRFLX               WRFL0027
      00025  0020 00 0 00030         TRA     WRFLX3                                                   WRFL0028
                                                                                                      WRFL0029
      00026 -0500 00 0 00001  WRFLXA CAL     .WRFXA        WRFLXA ENTRY                               WRFL0030
      00027 -0625 00 0 00330         STL     .XA           SET SWITCH TO INDICATE WRFLXA              WRFL0031
      00030  0621 00 0 00236  WRFLX3 STA     CALL          SET UP WRFLX(A) CALL                       WRFL0032
                                                                                                      WRFL0033
      00031  0634 00 4 00244         SXA     X4,4          SAVE XRS                                   WRFL0034
      00032  0634 00 2 00245         SXA     X2,2          ..                                         WRFL0035
      00033  0634 00 1 00246         SXA     X1,1          ..                                         WRFL0036
      00034  0604 00 0 00323         STI     IND           AND THE SI                                 WRFL0037
                                                                                                      WRFL0038
      00035  0560 00 4 00001         LDQ     1,4           PICK UP CONTROL WORD                       WRFL0039
      00036 -0500 00 4 00002         CAL     2,4           PICK UP ENABLE CODE                        WRFL0040
      00037  0621 00 0 00240         STA     CALL+2        STORE ADDRESS OF USER NUMBER               WRFL0041
      00040 -0734 00 2 00000         PDX     ,2            ENABLE CODE IN XR2                         WRFL0042
      00041 -0500 60 4 00002         CAL*    2,4           GET USER NUMBER                            WRFL0043
      00042  0737 00 1 00000         PAC     ,1            -USER IN XR1                               WRFL0044
      00043  0441 00 1 76041         LDI     RCODE,1       GET USER RESTRICTION CODE                  WRFL0045
      00044 -0054 00  000002         LFT     UFORBT        DOES THIS USER HAVE A CONSOLE              WRFL0046
      00045  0020 00 0 00231         TRA     FOREG         YES                                        WRFL0047
      00046  0322 00 0 74502         ERA     USER          OTHERWISE, MAKE SURE HE IS CURRENT USER    WRFL0048
      00047 -0100 00 0 00244         TNZ     X4            .. IF NOT, EXIT                            WRFL0049
      00050 -0056 00  000004         LNT     UFIBBT        IS THIS FIB .Q.                            WRFL0050
      00051  0020 00 0 00263         TRA     FMSDMP        NO, USE ONLINE PRINT ROUTINE               WRFL0051
                                                                                                      WRFL0052
                              ********** FIB - WRITE OUTPUT LINE INTO '$$$FIB OUTPUT' FILE. **********WRFL0053
                                                                                                      WRFL0054
      00052  0634 00 2 00223         SXA     ENCODE,2      SAVE ENABLE CODE                           WRFL0055
      00053  0600 00 0 00324         STZ     FULLSW        6-BIT MODE IF PLUS                         WRFL0056
      00054  0162 00 0 00056         TQP     *+2           OR                                         WRFL0057
      00055 -0625 00 0 00324         STL     FULLSW        12-BIT MODE IF MINUS                       WRFL0058
                                                                                                      WRFL0059
      00056  0131 00 0 00000  SETBUF XCA                   CONTROL WORD IN AC                         WRFL0060
      00057  0621 00 0 00100         STA     GCHAR         SAVE BUFFER LOC'N                          WRFL0061
                                                                                                      WRFL0062
1       N. I. MORRIS  ...  WRFLX(A) - SEND OUTPUT LINE TO APPROPRIATE DEVICE.    07/22/70 1322.8 PAGE 2

      00060  0774 00 4 00016         AXT     WDSLIN,4      MAXIMUM WORD COUNT                         WRFL0063
      00061  0520 00 0 00324         ZET     FULLSW        TEST FOR 12-BIT MODE                       WRFL0064
      00062  0774 00 4 00034         AXT     2*WDSLIN,4    IN 12-BIT, ALLOW TWICE AS MANY             WRFL0065
      00063  0622 00 0 00064         STD     *+1           STORE WORD COUNT FOR CHECKING              WRFL0066
      00064  3 00000 4 00066         TXH     *+2,4,**      IF MAXIMUM .LE. WORD COUNT THEN            WRFL0067
      00065 -0754 00 4 00000         PXD     ,4            SET COUNT TO MAXIMUM                       WRFL0068
                                                                                                      WRFL0069
      00066 -0737 00 1 00000         PDC     ,1            -COUNT IN XR1                              WRFL0070
      00067  0767 00 0 00001         ALS     1             MULTIPLY BY 2                              WRFL0071
      00070 -0737 00 2 00000         PDC     ,2            -2*COUNT IN XR2                            WRFL0072
                                                                                                      WRFL0073
      00071  0520 00 0 00324         ZET     FULLSW        CHECK FOR 6-BIT MODE                       WRFL0074
      00072 -0756 00 1 00000         PCD     ,1            IF 12-BIT, THEN USE ORIGINAL LENGTH        WRFL0075
      00073 -0734 00 4 00000         PDX     ,4            RESULTANT LENGTH OF OUTPUT LINE            WRFL0076
      00074  0634 00 4 00325         SXA     LTH,4         ..                                         WRFL0077
                                                                                                      WRFL0078
      00075  1 00001 1 00076         TXI     *+1,1,1       DECREASE COUNT BY 1                        WRFL0079
      00076  0560 00 0 74671         LDQ     Q0            INITIALIZE MQ CONTENTS                     WRFL0080
      00077 -3 00000 2 00114         TXL     ENDCHR,2,0    CHECK FOR COMPLETION                       WRFL0081
      00100 -0500 00 1 00000  GCHAR  CAL     **,1          PICK UP WORD                               WRFL0082
      00101  0520 00 0 00324         ZET     FULLSW        CHECK FOR ALREADY IN FULL MODE             WRFL0083
      00102  0020 00 0 00227         TRA     FULLV         JUST MOVE THE WORDS IF 12-BIT              WRFL0084
      00103  0774 00 4 00006         AXT     3*2,4         XPAND THE WORDS INTO 12-BIT MODE           WRFL0085
      00104 -0765 00 0 00006  XPAND  LGR     6             CHARACTER INTO MQ                          WRFL0086
      00105 -0773 00 0 00036         RQL     30            PLUS 6 ZERO BITS                           WRFL0087
      00106  2 00002 4 00104         TIX     *-2,4,2       DO THIS THREE TIMES                        WRFL0088
      00107 -0600 00 2 74321         STQ     PBUFF-1,2     STORE IT AWAY                              WRFL0089
      00110  1 00001 2 00111         TXI     *+1,2,1       AND DECREASE OUTPUT COUNT                  WRFL0090
      00111 -2 00001 4 00113         TNX     *+2,4,1       DO OUTER LOOP TWICE                        WRFL0091
      00112  1 00004 4 00104         TXI     XPAND,4,3*2-2 ONE XR FOR TWO LOOPS (NIM)                 WRFL0092
                                                                                                      WRFL0093
      00113  1 00001 1 00077  TXI1   TXI     GCHAR-1,1,1   DECREASE THE INPUT INDEX                   WRFL0094
                                                                                                      WRFL0095
      00114  0074 00 4 00004  ENDCHR TSX     GETUSR,4      GET CURRENT USER AND AB SWITCHES           WRFL0096
      00115  3 00004 0 00343         PAR     SAVUSR,,4     ..                                         WRFL0097
      00116  0074 00 4 00005         TSX     CHNGUS,4      SET CURRENT DISK USER                      WRFL0098
      00117  3 00000 0 74670         PAR     Q1            .. TO USER 1                               WRFL0099
      00120                          SETAB   LA,LA,LA      SET MEMORY SWITCHES FOR CORE A             WRFL0100
      00124  0074 00 4 00007         TSX     ATTUSR,4      ATTACH TSS TO FIB USER UFD, SET AUTH.      WRFL0101
      00125  3 00000 0 00213         PAR     RE.ATT        .. ERROR RETURN                            WRFL0102
                                                                                                      WRFL0103
      00126  0600 00 0 00342         STZ     BLOCK+5       INITIALIZE WRITE POINTER                   WRFL0104
      00127                          CALL    FSTATE(FIBFIL,FIBFIL+1,(BLOCK,,6),SETLIN)                WRFL0105
      00134 -0500 00 0 00337         CAL     BLOCK+2       TEST TO SEE IF FILE LOCKED                 WRFL0106
      00135  0402 00 0 74670         SUB     Q1            IF NOT ONE, FILE IS OPEN                   WRFL0107
      00136 -0100 00 0 00213         TNZ     RE.ATT        ..                                         WRFL0108
                                                                                                      WRFL0109
      00137 -0500 00 0 00342  SETLIN CAL     BLOCK+5       GET WRITE POINTER FROM FSTATE              WRFL0110
      00140  0520 00 0 00331         ZET     LAST.A        WAS LAST LINE WRITTEN BY WRFLXA .Q.        WRFL0111
      00141  0020 00 0 00145         TRA     MORE          YES, DON'T RESET LOC1 AND LMARK            WRFL0112
      00142  0602 00 0 00326         SLW     LOC1          SET RELLOC FOR LINE-MARK WRITE             WRFL0113
      00143 -0754 00 0 00000         ZAC                   RESET                                      WRFL0114
      00144  0621 00 0 00334         STA     LMARK         THE LINE-MARK                              WRFL0115
                                                                                                      WRFL0116
      00145  0602 00 0 00327  MORE   SLW     LOC2          SET RELLOC FOR WRITING THE LINE OUT        WRFL0117
      00146 -0500 00 0 00334         CAL     LMARK         GET THE LINE-MARK                          WRFL0118
1       N. I. MORRIS  ...  WRFLX(A) - SEND OUTPUT LINE TO APPROPRIATE DEVICE.    07/22/70 1322.8 PAGE 3

      00147  0361 00 0 00325         ACL     LTH           ADD LENGTH OF THIS LINE                    WRFL0119
      00150  0621 00 0 00334         STA     LMARK         AND SAVE                                   WRFL0120
                                                                                                      WRFL0121
      00151                          CALL    OPEN(W,FIBFIL,FIBFIL+1,Q0,Q2,CLOS)                       WRFL0122
      00160                          CALL    BUFFER(FIBFIL,FIBFIL+1,(DBUF1,,NWDSPT),CLOS)             WRFL0123
      00165                          CALL    WRFILE(FIBFIL,FIBFIL+1,LOC1,(LMARK,,1),*,M0,CLOS)        WRFL0124
      00175                          CALL    WRFILE(FIBFIL,FIBFIL+1,LOC2,(PBUFF,...,LTH),*,M0,CLOS)   WRFL0125
      00205                   CLOS   CALL    CLOSE(FIBFIL,FIBFIL+1,RESET)                             WRFL0126
                                                                                                      WRFL0127
      00211 -0500 00 0 00330         CAL     .XA           LAST.A = .XA                               WRFL0128
      00212  0602 00 0 00331         SLW     LAST.A        ..                                         WRFL0129
                                                                                                      WRFL0130
      00213                   RE.ATT CALL    ATTSYS(PRDIAG)   RESTORE TSS TO SYSTEM FILES             WRFL0131
      00215                          CALL    CHNGUS(SAVUSR)   RESTORE FILE SYSTEM USER                WRFL0132
      00217                          SETAB   SAVUSR+1,SAVUSR+2,SAVUSR+3   ..                          WRFL0133
                                                                                                      WRFL0134
      00223  0774 00 2 00000  ENCODE AXT     **,2          RESTORE ENABLE CODE                        WRFL0135
      00224  3 00000 2 00244  TX4    TXH     X4,2,.I.      IF .I. OPTION,                             WRFL0136
      00225  0564 00 0 74671         ENB     Q0            EXIT DISABLED                              WRFL0137
      00226  0020 00 0 00244         TRA     X4            RETURN                                     WRFL0138
                                                                                                      WRFL0139
                                                                                                      WRFL0140
      00227  0602 00 1 74322  FULLV  SLW     PBUFF,1       JUST TRANSFER WORDS IF ALREADY FULL MODE   WRFL0141
      00230  1 00002 2 00113         TXI     TXI1,2,2      ..                                         WRFL0142
                                                                                                      WRFL0143
                              ********** FOREGROUND - OUTPUT IS WRITTEN ONTO CONSOLE. **********      WRFL0144
                                                                                                      WRFL0145
      00231 -0600 00 0 00237  FOREG  STQ     CALL+1        HERE IF USER HAS CONSOLE                   WRFL0146
      00232 -0754 00 2 00000         PXD     ,2            ENABLE CODE TO AC                          WRFL0147
      00233  3 00001 2 00235         TXH     *+2,2,.F.     IS THIS THE .F. OPTION                     WRFL0148
      00234  0771 00 0 00003         ARS     3             YES, SHIFT TO TAG OF AC                    WRFL0149
      00235  0625 00 0 00237         STT     CALL+1        STORE IN TAG FOR WRTELY                    WRFL0150
      00236  0074 00 4 00000  CALL   TSX     **,4          .WRFX/.WRFXA                               WRFL0151
      00237  0 00000 0 00000         ***     **,,**        ..                                         WRFL0152
      00240  0 00000 0 00000         PZE     **            .. USER                                    WRFL0153
      00241  0020 00 0 00251         TRA     BUSY          .. BUFFER FULL RETURN                      WRFL0154
      00242 -3 00000 2 00244         TXL     *+2,2,.I.     NORMAL RETURN   SKIP ENABLE IF .I. OPTION  WRFL0155
      00243  0564 00 0 77777         ENB     ENBWD         RE-ENABLE                                  WRFL0156
      00244  0774 00 4 00000  X4     AXT     **,4          RESTORE XRS                                WRFL0157
      00245  0774 00 2 00000  X2     AXT     **,2          ..                                         WRFL0158
      00246  0774 00 1 00000  X1     AXT     **,1          ..                                         WRFL0159
      00247  0441 00 0 00323         LDI     IND           AND THE SI                                 WRFL0160
      00250  0020 00 4 00003         TRA     3,4           RETURN TO WRFLX/A CALLER                   WRFL0161
                                                                                                      WRFL0162
      00251 -3 00000 2 00244  BUSY   TXL     X4,2,.I.      HERE IF BUFFER FULL  IGNORE IF .I.         WRFL0163
      00252 -3 00001 2 00261         TXL     BUSY1,2,.F.   WAS OPTION .F. USED                        WRFL0164
      00253  0634 00 2 00260         SXA     RET,2         HERE IF OPTION WAS RETURN LOCATION         WRFL0165
      00254  0522 00 0 00244         XEC     X4            RESTORE XRS                                WRFL0166
      00255  0522 00 0 00245         XEC     X2            ..                                         WRFL0167
      00256  0522 00 0 00246         XEC     X1            ..                                         WRFL0168
      00257  0441 00 0 00323         LDI     IND           AND THE SI                                 WRFL0169
      00260  0020 00 0 00000  RET    TRA     **            AND RETURN                                 WRFL0170
                                                                                                      WRFL0171
      00261  0564 00 0 77777  BUSY1  ENB     ENBWD         HERE FOR OPTION .F.                        WRFL0172
      00262  0020 00 0 00236         TRA     CALL          TRY AGAIN, AFTER REENABLING                WRFL0173
                                                                                                      WRFL0174
1       N. I. MORRIS  ...  WRFLX(A) - SEND OUTPUT LINE TO APPROPRIATE DEVICE.    07/22/70 1322.8 PAGE 4

                              ********** BACKGROUND/DAEMON - WRITE OUTPUT ON-LINE. **********         WRFL0175
                                                                                                      WRFL0176
                       00263  FMSDMP SYN     *                                                        WRFL0177
      00263 -0600 00 0 00265         STQ     *+2           ROUTINE FOR BACKGROUND, DAEMON             WRFL0178
      00264  0074 00 4 00267         TSX     WRTOPR,4      SEND TO OPERATOR DEVICE                    WRFL0179
      00265  0 00000 0 00000         ***     **,,**        ..                                         WRFL0180
      00266  0020 00 0 00224         TRA     TX4           AND RETURN                                 WRFL0181
                                                                                                      WRFL0182
                              ********** OPERATOR MESSAGES - ONLINE AND/OR 'SYSMSG' LINE **********   WRFL0183
                                                                                                      WRFL0184
                                             N.B. CALL 'WRTOPR' ONLY WHEN 'PRINT' CAN BE CALLED       WRFL0185
                                             (EPRINT DURING TRAP), AND 7750 IS ALSO RUNNING.          WRFL0186
                                                                                                      WRFL0187
      00267 -0520 00 0 74534  WRTOPR NZT     SYSMSG        DOES OPERATOR HAVE TERMINAL                WRFL0188
      00270  0020 00 0 00317         TRA     WRTOP4        .. NO, SKIP TO ONLINE PRINT                WRFL0189
      00271  0564 00 0 74671         ENB     Q0            HERE IF OPERATOR HAS TERMINAL              WRFL0190
      00272  0634 00 4 00316         SXA     WRX4,4        SAVE X4                                    WRFL0191
      00273 -0500 00 4 00001         CAL     1,4           GET CONTROL WORD                           WRFL0192
      00274 -0734 00 4 00000  WRTOP2 PDX     ,4            EXTRACT WORD COUNT                         WRFL0193
      00275 -2 00016 4 00310         TNX     WRTOP3,4,14   SEE IF MUST MAKE TWO CALLS                 WRFL0194
      00276  0621 00 0 00303         STA     WRT1          .. YES, SET BUFFER ADDRESS IN CALL         WRFL0195
      00277  0361 00 0 00350         ACL     =14           INCREMENT ADDRESS FOR NEXT CALL            WRFL0196
      00300  0621 00 0 00322         STA     TMP           SAVE                                       WRFL0197
      00301 -0634 00 4 00322         SXD     TMP,4         WORD COUNT ALSO                            WRFL0198
      00302  0074 00 4 00001         TSX     .WRFXA,4      TYPE PARTIAL LINE                          WRFL0199
      00303  0 00016 1 00000  WRT1   PZE     -,1,14        .. WITH FORCE SWITCH SET                   WRFL0200
      00304  0 00000 0 74534         PZE     SYSMSG        .. ON OPERATOR OUTPUT LINE                 WRFL0201
      00305  0020 00 0 00316         TRA     WRX4          .. FULL RETURN, NO HOPE                    WRFL0202
      00306 -0500 00 0 00322         CAL     TMP           PICK UP POINTER TO REMAINING LINE          WRFL0203
      00307  0020 00 0 00274         TRA     WRTOP2        REPEAT                                     WRFL0204
      00310  0621 00 0 00313  WRTOP3 STA     WRT2          HERE FOR LAST PART OF LINE                 WRFL0205
      00311  0622 00 0 00313         STD     WRT2          SET ADDRESS AND WORD COUNT                 WRFL0206
      00312  0074 00 4 00000         TSX     .WRFX,4       TYPE LINE                                  WRFL0207
      00313  0 00000 1 00000  WRT2   PZE     -,1,-         .. WITH PRIORITY                           WRFL0208
      00314  0 00000 0 74534         PZE     SYSMSG        .. TO OPERATOR                             WRFL0209
      00315  0020 00 0 00316         TRA     WRX4          .. FULL                                    WRFL0210
      00316  0774 00 4 00000  WRX4   AXT     -,4           RESTORE X4                                 WRFL0211
      00317 -0520 00 0 74526  WRTOP4 NZT     ENBSW         NOW GO TO ONLINE PRINTER                   WRFL0212
      00320  0020 00 0 00020         TRA     EPRINT        .. DURING TRAP TO EPRINT                   WRFL0213
      00321  0020 00 0 00003         TRA     PRINT         .. TO PRINT OTHERWISE                      WRFL0214
                                                                                                      WRFL0215
      00322  0 00000 0 00000  TMP    PZE                   .. TEMP STORAGE                            WRFL0216
1       N. I. MORRIS  ...  WRFLX(A) - SEND OUTPUT LINE TO APPROPRIATE DEVICE.    07/22/70 1322.8 PAGE 5
                           STORAGE AND CONSTANTS.

      00323  0 00000 0 00000  IND    PZE                   CELL FOR SAVING SI                         WRFL0218
      00324  0 00000 0 00000  FULLSW PZE                   NON-ZERO FOR 12-BIT MODE                   WRFL0219
      00325  0 00000 0 00000  LTH    PZE                   LENGTH OF OUTPUT LINE                      WRFL0220
      00326  0 00000 0 00000  LOC1   PZE                   LOC'N IN FIB OUTPUT OF LINE-MARK           WRFL0221
      00327  0 00000 0 00000  LOC2   PZE                   LOC'N IN FIB OUTPUT OF OUTPUT LINE         WRFL0222
      00330  0 00000 0 00000  .XA    PZE                   NON-ZERO IF WRFLXA CALLED                  WRFL0223
      00331  0 00000 0 00000  LAST.A PZE                   NON-ZERO IF WRFLXA CALLED LAST TIME        WRFL0224
                                                                                                      WRFL0225
      00332  535353263122     FIBFIL BCI     2,$$$FIBOUTPUT                                           WRFL0227
      00334  777777000000     LMARK  VFD     O18//,18/0                                               WRFL0228
                                                                                                      WRFL0229
      00335                   BLOCK  BSS     6                                                        WRFL0230
      00343                   SAVUSR BSS     4                                                        WRFL0231
      00347  666060606060     W      BCI     1,W                                                      WRFL0232
                                                                                                      WRFL0233
      00350                          RMT     *                                                        WRFL0234
                                                                                                      WRFL0236
                                     END                                                              WRFL0237

        LITERALS
      00350  000000000016
1       N. I. MORRIS  ...  WRFLX(A) - SEND OUTPUT LINE TO APPROPRIATE DEVICE.    07/22/70 1322.8 PAGE 1
                        POST PROCESSOR ASSEMBLY DATA

       72127 IS THE LAST LOCATION NOT USED BY THIS PROGRAM
        351 IS THE FIRST LOCATION NOT USED BY THIS PROGRAM

0REFERENCES TO DEFINED SYMBOLS
        347      W   152
      74653     LA   121,  122,  123
      74654     M0   173,  203
      74671     Q0    76,  155,  225,  271
      74670     Q1   117,  135
      74667     Q2   156
        246     X1    33,  256
        245     X2    32,  255
        244     X4    31,   47,  224,  226,  251,  254
        323    IND    34,  247,  257
          1    .F.   233,  252
          0    .I.   224,  242,  251
        330    .XA    24,   27,  211
        325    LTH    74,  147,  201
        260    RET   253
        322    TMP   300,  301,  306
        224    TX4   266
        251   BUSY   241
        236   CALL    30,   37,  231,  235,  262
        205   CLOS   157,  164,  174,  204
        326   LOC1   142,  170
        327   LOC2   145,  200
        145   MORE   141
         11   OPEN   151
        113   TXI1   230
      74502   USER    46
        303   WRT1   276
        313   WRT2   310,  311
        316   WRX4   272,  305,  315
        335  BLOCK   126,  132,  134,  137
        261  BUSY1   252
         14  CLOSE   205
      73442  DBUF1   163
      74526  ENBSW   317
      77777  ENBWD   243,  261
        231  FOREG    45
        227  FULLV   102
        100  GCHAR    57,  113
          0  .WRFX    23,  312
        334  LMARK   144,  146,  150,  171
      74322  PBUFF   107,  201,  227
          3  PRINT   321
      76041  RCODE    43
         16  RESET   210
          6  SETAB   120,  217
         23  WRFLX     0
        104  XPAND   112
         10 ATTSYS   213
          7 ATTUSR   124
         12 BUFFER   160
1       N. I. MORRIS  ...  WRFLX(A) - SEND OUTPUT LINE TO APPROPRIATE DEVICE.    07/22/70 1322.8 PAGE 2
                        POST PROCESSOR ASSEMBLY DATA

          5 CHNGUS   116,  215
        223 ENCODE    52
        114 ENDCHR    77
         20 EPRINT   320
        332 FIBFIL   130,  131,  153,  154,  161,  162,  166,  167,  176,  177,  206,  207
        263 FMSDMP    51,  263
         15 FSTATE   127
        324 FULLSW    53,   55,   61,   71,  101
          4 GETUSR   114
          1 .WRFXA    26,  302
          2 .WRSCP    21
        331 LAST.A   140,  212
        660 NWDSPT   163
         17 PRDIAG   214
        213 RE.ATT   125,  136
        343 SAVUSR   115,  216,  220,  221,  222
         56 SETBUF
        137 SETLIN   133
      74534 SYSMSG   267,  304,  314
          4 UFIBBT    50
          2 UFORBT    44
         16 WDSLIN    60,   62
         13 WRFILE   165,  175
         30 WRFLX3    22,   25
         26 WRFLXA     0
         21 WRSCFX     0
        274 WRTOP2   307
        310 WRTOP3   275
        317 WRTOP4   270
        267 WRTOPR     0,  264

0 NO ERROR IN ABOVE ASSEMBLY.


CONV8A   BCD 03/04/70 1439.3    4860         00000
1             J. W. PODUSKA ... CONV - UTILITY CONVERSION ROUTINES.              03/04/70 1427.5 PAGE 1

                       00001         ENTRY   CTIME         CONVERT 60TH'S TO 'HHMM.M'.                CONV0003
                       00017         ENTRY   TCTIME        CONVERT 60TH'S TO ' HH.HH'.                CONV0004
                       00027         ENTRY   RDYTIM        CONVERT 60TH'S TO TIME USED.               CONV0005
                                                                                                      CONV0006
                       00135         ENTRY   DTBC          DECIMAL-TO-BINARY CONVERSION.              CONV0007
                       00152         ENTRY   BTDC          BINARY-TO-DECIMAL CONVERSION.              CONV0008
                       00163         ENTRY   OTBC          OCTAL-TO-BINARY CONVERSION.                CONV0009
                       00171         ENTRY   BTOC          BINARY-TO-OCTAL CONVERSION.                CONV0010
                                                                                                      CONV0011
                       00177         ENTRY   RPL           REPLACE LEADING A'S BY B'S                 CONV0012
                       00211         ENTRY   BZL           .. ZEROS BY BLANKS                         CONV0013
                       00215         ENTRY   NZL           .. ZEROS BY NULLS                          CONV0014
                       00221         ENTRY   NBL           .. BLANKS BY NULLS                         CONV0015
                       00225         ENTRY   ZBL           .. BLANKS BY ZEROS                         CONV0016
                                                                                                      CONV0017
                                                                                                      CONV0019
                                     UNLIST                                                           CONV0020

                                                                                                      CONV0025
                                                                                                      CONV0026
                                             CTIME - CONVERT 60TH'S TO HOURS, MINUTES, AND TENTHS.    CONV0027
                                                                                                      CONV0028
      00001 -0754 00 0 00000  CTIME  ZAC                   CLEAR AC, ARG IN MQ, B35.                  CONV0029
      00002  0225 34 0 00242         VDP     =216E4B42,,28  =10*60*60*60, GET TENS OF HOURS.          CONV0030
      00003  0225 06 0 00245         VDP     =216E3B36,,6  =60*60*60, GET UNITS OF HOURS.             CONV0031
      00004  0225 06 0 00252         VDP     =36E3B30,,6   =10*60*60, GET TENS OF MINUTES.            CONV0032
      00005  0225 06 0 00255         VDP     =36E2B24,,6   =60*60, GET UNITS OF MINUTES.              CONV0033
      00006  0225 14 0 00262         VDP     =36E1B12,,12  =6*60, INSERT TENTHS.                      CONV0034
      00007 -0754 00 0 00000         ZAC                   CLEAR OUT REMAINING GARBAGE.               CONV0035
      00010 -0763 00 0 00006         LGL     6             GET TENS OF HOURS,                         CONV0036
      00011 -0100 00 0 00013         TNZ     *+2           IF ZERO,                                   CONV0037
      00012 -0500 00 0 00234         CAL     =H00000       REPLACE BY BLANK.                          CONV0038
      00013 -0765 00 0 00006         LGR     6             RESTORE TIME,                              CONV0039
      00014 -0130 00 0 00000         XCL                   MOVE TO LAC,                               CONV0040
      00015 -0501 00 0 00236         ORA     =H0000.0      INSERT DECIMAL POINT,                      CONV0041
      00016  0020 00 4 00001         TRA     1,4           AND RETURN WITH 'HHMM.M'.                  CONV0042
                                                                                                      CONV0043
                                                                                                      CONV0044
                                             TCTIME - CONVERT 60TH'S TO HOURS AND HUNDRETHS.          CONV0045
                                                                                                      CONV0046
      00017 -0754 00 0 00000  TCTIME ZAC                   CLEAR AC, ARG IN MQ.                       CONV0047
      00020  0225 34 0 00242         VDP     =216E4B42,,28  =10*60*60*60, GET TENS OF HOURS.          CONV0048
      00021  0225 06 0 00245         VDP     =216E3B36,,6  =60*60*60, GET UNITS OF HOURS.             CONV0049
      00022  0225 14 0 00257         VDP     =216E2B24,,12 =6*60*60, GET TENTHS AND ROOM FOR POINT.   CONV0050
      00023  0225 06 0 00260         VDP     =216E1B18,,6  =6*6*60, GET HUNDRETHS OF HOURS.           CONV0051
      00024 -0130 00 0 00000         XCL                   MOVE TO LAC,                               CONV0052
      00025 -0501 00 0 00265         ORA     =H 00.00      INSERT BLANK AND PERIOD,                   CONV0053
      00026  0020 00 4 00001         TRA     1,4           AND RETURN WITH ' HH.HH'.                  CONV0054
1             J. W. PODUSKA ... CONV - UTILITY CONVERSION ROUTINES.              03/04/70 1427.5 PAGE 2

                                                                                                      CONV0056
                                             RDYTIM - CONVERT 60TH'S TO TIME USED, TYPE AT USER       CONV0057
                                                                                                      CONV0058
      00027  0564 00 0 74671  RDYTIM ENB     Q0            PREVENT RE-ENTRY FROM CLOCK SECTION.       CONV0059
      00030  0634 00 1 00106         SXA     RTX1,1        SAVE XRS.                                  CONV0060
      00031  0634 00 2 00107         SXA     RTX2,2        ..                                         CONV0061
      00032  0634 00 4 00110         SXA     RTX4,4        ..                                         CONV0062
      00033 -0500 60 4 00001         CAL*    1,4           MOVE USER NUMBER                           CONV0063
      00034  0602 00 0 00131         SLW     UTEMP         ..                                         CONV0064
      00035  0737 00 1 00000         PAC     ,1            TO XR1.                                    CONV0065
      00036  0520 00 1 76500         ZET     PROBN,1       IS THIS USER LOGGED IN                     CONV0066
      00037  0020 00 0 00047         TRA     RDYTM1        ..                                         CONV0067
      00040 -0500 00 0 00263         CAL     =HREADY.      USER NOT LOGGED IN, JUST TYPE              CONV0068
      00041  0602 00 0 00132         SLW     RDYCOM        .. 'READY.'                                CONV0069
      00042  0500 00 0 74643         CLA     NULLS         ..                                         CONV0070
      00043  0560 00 0 74643         LDQ     NULLS         ..                                         CONV0071
      00044 -0763 00 0 00006         LGL     6             ..                                         CONV0072
      00045 -0603 00 0 00133         DST     RDYCOM+1      ..                                         CONV0073
      00046  0020 00 0 00076         TRA     RDYTM2        SKIP TO ADD CARRIAGE RETURN                CONV0074
      00047  0560 00 1 75331  RDYTM1 LDQ     UCLOCK,1      GET TIME USED,                             CONV0075
      00050  0074 00 4 00112         TSX     CMTIME,4      CONVERT TO MILLISECONDS.                   CONV0076
      00051 -0754 00 0 00000         ZAC                   FORM 'R SSS.'SSS000'.                      CONV0077
      00052 -0763 00 0 00022         LGL     18            ..                                         CONV0078
      00053  0767 00 0 00006         ALS     6             ..                                         CONV0079
      00054 -0501 00 0 00264         ORA     =HR 000.      ..                                         CONV0080
      00055  0602 00 0 00132         SLW     RDYCOM        SAVE BOTH HALVES.                          CONV0081
      00056 -0600 00 0 00133         STQ     RDYCOM+1      ..                                         CONV0082
      00057 -0500 00 1 75260         CAL     UCHARG,1      COMPUTE SWAP TIME,                         CONV0083
      00060  0402 00 1 75331         SUB     UCLOCK,1      ..                                         CONV0084
      00061  0120 00 0 00063         TPL     *+2           INSURE NON-NEGATIVE,                       CONV0085
      00062 -0754 00 0 00000         ZAC                   HISTORICAL, SHOULD BE UNNECESSARY.         CONV0086
      00063  0131 00 0 00000         XCA                   MOVE TO MQ,                                CONV0087
      00064  0074 00 4 00112         TSX     CMTIME,4      CONVERT TO MILLISECONDS.                   CONV0088
      00065 -0500 00 0 00232         CAL     =H00000+      INSERT PLUS AND FORM SECOND WORD.          CONV0089
      00066 -0763 00 0 00014         LGL     12            ..                                         CONV0090
      00067 -0602 00 0 00133         ORS     RDYCOM+1      WORD IS 'SSS+SS'.                          CONV0091
      00070 -0754 00 0 00000         ZAC                   FORM THIRD WORD.                           CONV0092
      00071 -0763 00 0 00006         LGL     6             ..                                         CONV0093
      00072  0767 00 0 00006         ALS     6             ..                                         CONV0094
      00073 -0763 00 0 00030         LGL     24            ..                                         CONV0095
      00074 -0501 00 0 00261         ORA     =O003300000000  WORD IS 'S.SSS0'.                        CONV0096
      00075  0602 00 0 00134         SLW     RDYCOM+2      INSERT.                                    CONV0097
      00076 -0500 00 0 00233  RDYTM2 CAL     =O55          ADD A CARRIAGE RETURN TO TIME              CONV0098
      00077 -0602 00 0 00134         ORS     RDYCOM+2      ..                                         CONV0099
      00100                          WRTYPE  ,RDYCOM,3,UTEMP TYPE LINE AT USER                        CONV0100
      00104  0600 00 1 75260         STZ     UCHARG,1      RESET TIMES,                               CONV0101
      00105  0600 00 1 75331         STZ     UCLOCK,1      ..                                         CONV0102
                                                                                                      CONV0103
      00106  0774 00 1 00000  RTX1   AXT     -,1           RESTORE XRS,                               CONV0104
      00107  0774 00 2 00000  RTX2   AXT     -,2           ..                                         CONV0105
      00110  0774 00 4 00000  RTX4   AXT     -,4           ..                                         CONV0106
      00111  0020 00 4 00002         TRA     2,4           AND RETURN TO CALLER.                      CONV0107
                                                                                                      CONV0108
                                                                                                      CONV0109
                                             CMTIME - INTERNAL ROUTINE USED BY RDYTIM.                CONV0110
                                                                                                      CONV0111
1             J. W. PODUSKA ... CONV - UTILITY CONVERSION ROUTINES.              03/04/70 1427.5 PAGE 3

      00112 -0754 00 0 00000  CMTIME ZAC                   CLEAR AC, ARG IN MQ.                       CONV0112
      00113  0225 37 0 00235         VDP     =6000B39,,31  =100*60, FORM HUNDREDS OF SECONDS.         CONV0113
      00114  0225 06 0 00237         VDP     =600B33,,6    =10*60, FORM TENS OF SECONDS.              CONV0114
      00115  0225 06 0 00241         VDP     =60B27,,6     =60, FORM UNITS OF SECONDS.                CONV0115
      00116  0225 06 0 00244         VDP     =6B21,,6      =6, FORM TENTHS OF SECONDS.                CONV0116
      00117  0225 06 0 00250         VDP     =0.6B15,,6    =0.6, FORM HUNDRETHS OF SECONDS.           CONV0117
      00120  0225 06 0 00253         VDP     =0.06B9,,6    =0.06, FORM THOUSANTHS OF SECONDS.         CONV0118
      00121 -0754 00 0 00000         ZAC                   REPLACE LEADING ZEROES WITH NULLS.         CONV0119
      00122 -0763 00 0 00022         LGL     18            ..                                         CONV0120
      00123  0774 00 7 00003         AXT     3,7           ..                                         CONV0121
      00124 -0100 00 0 00126         TNZ     *+2           ..                                         CONV0122
      00125 -0500 00 0 74643         CAL     NULLS         ..                                         CONV0123
      00126 -0765 00 0 00006         LGR     6             ..                                         CONV0124
      00127  2 00001 7 00124         TIX     *-3,7,1       ..                                         CONV0125
      00130  0020 00 4 00001         TRA     1,4           RETURN TO CALLER.                          CONV0126
                                                                                                      CONV0127
                                                                                                      CONV0128
      00131  0 00000 0 00000  UTEMP  PZE                   TEMPORARY FOR USER NUMBER                  CONV0129
                                                                                                      CONV0130
      00132  516062626233     RDYCOM BCI     3,R SSS.SSS+SSS.SSS                                      CONV0131
      00133  626262206262
      00134  623362626260
1             J. W. PODUSKA ... CONV - UTILITY CONVERSION ROUTINES.              03/04/70 1427.5 PAGE 4

                                                                                                      CONV0133
                                             DTBC - CONVERT 6 BCD DIGITS TO BINARY INTEGER.           CONV0134
                                                                                                      CONV0135
      00135  0564 00 0 74671  DTBC   ENB     Q0            DTBC MUST DISABLE                          CONV0136
      00136 -0754 00 0 00000         ZAC                   CLEAR AC (ARG IN MQ),                      CONV0137
      00137  0774 00 7 00006         AXT     6,7           AND SET FOR 6 ITERATIONS.                  CONV0138
      00140  0601 00 0 00151  DTBCLP STO     TNUM          SAVE PARTIAL CONVERSION.                   CONV0139
      00141 -0773 00 0 00002         RQL     2             N+D/16.                                    CONV0140
      00142 -0763 00 0 00001         LGL     1             2*N+D/8.                                   CONV0141
      00143  0402 00 0 00151         SUB     TNUM          N+D/8.                                     CONV0142
      00144 -0763 00 0 00002         LGL     2             4*N+D/2.                                   CONV0143
      00145  0400 00 0 00151         ADD     TNUM          5*N+D.                                     CONV0144
      00146 -0763 00 0 00001         LGL     1             10*N+D.                                    CONV0145
      00147  2 00001 7 00140         TIX     DTBCLP,7,1    LOOP 6 TIMES.                              CONV0146
      00150  0020 00 4 00001         TRA     1,4           AND RETURN WITH RESULT IN AC.              CONV0147
                                                                                                      CONV0148
      00151  0 00000 0 00000  TNUM   PZE                   TEMP USED BY DTBC.                         CONV0149
                                                                                                      CONV0150
                                                                                                      CONV0151
                                             BTDC - CONVERT BINARY INTEGER TO 6 BCD DIGITS.           CONV0152
                                                                                                      CONV0153
      00152 -0754 00 0 00000  BTDC   ZAC                   CLEAR AC, ARG IN MQ.                       CONV0154
      00153  0225 36 0 00240         VDP     =1E5B40,,30   FORM HUNDRED THOUSANDS DIGIT.              CONV0155
      00154  0225 06 0 00243         VDP     =1E4B34,,6    FORM TEN THOUSANDS DIGIT.                  CONV0156
      00155  0225 06 0 00246         VDP     =1E3B28,,6    FORM THOUSANDS DIGIT.                      CONV0157
      00156  0225 06 0 00251         VDP     =1E2B22,,6    FORM HUNDREDS DIGIT.                       CONV0158
      00157  0225 06 0 00254         VDP     =1E1B16,,6    FORM TENS DIGIT.                           CONV0159
      00160  0225 06 0 00256         VDP     =1E0B10,,6    FORM UNITS DIGIT.                          CONV0160
      00161 -0130 00 0 00000         XCL                   MOVE RESULT TO AC,                         CONV0161
      00162  0020 00 4 00001         TRA     1,4           AND RETURN TO CALLER.                      CONV0162
                                                                                                      CONV0163
                                                                                                      CONV0164
                                             OTBC - CONVERT 6 OCTAL BCD DIGITS TO BINARY.             CONV0165
                                                                                                      CONV0166
      00163 -0500 00 0 00247  OTBC   CAL     =1B16         GET BIT FOR SETTING OVERFLOW               CONV0167
      00164  0140 00 0 00165         TOV     *+1           TURN OFF OVERFLOW                          CONV0168
      00165 -0773 00 0 00003         RQL     3             SKIP THREE BITS AND                        CONV0169
      00166 -0763 00 0 00003         LGL     3             SHIFT IN THREE BITS.                       CONV0170
      00167 -0140 00 0 00165         TNO     *-2           CONTINUE UNTIL OVERFLOW SET.               CONV0171
      00170  0020 00 4 00001         TRA     1,4           RETURN WITH ANSWER IN LAC.                 CONV0172
                                                                                                      CONV0173
                                                                                                      CONV0174
                                             BTOC - CONVERT BINARY TO OCTAL BCD.                      CONV0175
                                                                                                      CONV0176
      00171 -0500 00 0 00231  BTOC   CAL     =1B34         GET BIT FOR SETTING OVERFLOW.              CONV0177
      00172  0140 00 0 00173         TOV     *+1           TURN OFF OVERFLOW                          CONV0178
      00173  0767 00 0 00003         ALS     3             PULL IN THREE ZERO BITS.                   CONV0179
      00174 -0763 00 0 00003         LGL     3             SHIFT IN THE DIGIT.                        CONV0180
      00175 -0140 00 0 00173         TNO     *-2           CONTINUE UNTIL OVERFLOW SET.               CONV0181
      00176  0020 00 4 00001         TRA     1,4           RETURN WITH ANSWER IN LAC.                 CONV0182
1             J. W. PODUSKA ... CONV - UTILITY CONVERSION ROUTINES.              03/04/70 1427.5 PAGE 5

                                                                                                      CONV0184
                                             RPL, ETC. - REPLACE LEADING A'S BY B'S                   CONV0185
                                                                                                      CONV0186
      00177  0322 60 7 00001  RPL    ERA*    1,7           MAKE ALL A'S 0                             CONV0187
      00200  0774 00 6 00044         AXT     36,6          6 CHARS                                    CONV0188
      00201 -0765 00 0 00006         LGR     6             ..                                         CONV0189
      00202  0100 00 0 00204         TZE     *+2           ARE WE THERE YET                           CONV0190
      00203  2 00006 6 00201         TIX     *-2,6,6       NO, KEEP SHIFTING                          CONV0191
      00204 -0500 60 7 00002         CAL*    2,7           YES, GET B'S                               CONV0192
      00205  0322 60 7 00001         ERA*    1,7           SET UP FOR FINAL 'ERA'                     CONV0193
      00206 -0763 00 6 00052         LGL     42,6          BACK TO AC                                 CONV0194
      00207  0322 60 7 00001         ERA*    1,7           CONVERT CHARS BACK                         CONV0195
      00210  0020 00 7 00003         TRA     3,7           RETURN                                     CONV0196
                                                                                                      CONV0197
                                                                                                      CONV0198
      00211  0074 00 7 00177  BZL    TSX     RPL,7         CALL CONVERTER                             CONV0199
      00212  3 00000 0 74671         PAR     Q0            .. TO MAKE 0'S                             CONV0200
      00213  3 00000 0 74642         PAR     BLANKS        .. BLANKS                                  CONV0201
      00214  0020 00 4 00001         TRA     1,4           RETURN                                     CONV0202
                                                                                                      CONV0203
                                                                                                      CONV0204
      00215  0074 00 7 00177  NZL    TSX     RPL,7         CALL CONVERTER                             CONV0205
      00216  3 00000 0 74671         PAR     Q0            .. TO MAKE 0'S                             CONV0206
      00217  3 00000 0 74643         PAR     NULLS         .. NULLS                                   CONV0207
      00220  0020 00 4 00001         TRA     1,4           RETURN                                     CONV0208
                                                                                                      CONV0209
                                                                                                      CONV0210
      00221  0074 00 7 00177  NBL    TSX     RPL,7         CALL CONVERTER                             CONV0211
      00222  3 00000 0 74642         PAR     BLANKS        TO MAKE LEADING BLANKS                     CONV0212
      00223  3 00000 0 74643         PAR     NULLS         .. NULLS                                   CONV0213
      00224  0020 00 4 00001         TRA     1,4           RETURN                                     CONV0214
                                                                                                      CONV0215
                                                                                                      CONV0216
      00225  0074 00 7 00177  ZBL    TSX     RPL,7         CALL CONVERTER                             CONV0217
      00226  3 00000 0 74642         PAR     BLANKS        TO MAKE LEADING BLANKS                     CONV0218
      00227  3 00000 0 74671         PAR     Q0            .. ZEROS                                   CONV0219
      00230  0020 00 4 00001         TRA     1,4           RETURN                                     CONV0220
                                                                                                      CONV0221
1             J. W. PODUSKA ... CONV - UTILITY CONVERSION ROUTINES.              03/04/70 1427.5 PAGE 6
                           STORAGE AND CONSTANTS.

                                                                                                      CONV0223
                                     END                                                              CONV0224

        LITERALS
      00231  000000000002
      00232  000000000020
      00233  000000000055
      00234  000000000060
      00235  000000000567
      00236  000000003300
      00237  000000004540
      00240  000000006065
      00241  000000036000
      00242  000000040753
      00243  000000047040
      00244  000000300000
      00245  000000322740
      00246  000000372000
      00247  000002000000
      00250  000002314631
      00251  000003100000
      00252  000004312000
      00253  000017270243
      00254  000024000000
      00255  000034100000
      00256  000200000000
      00257  000250600000
      00260  002070000000
      00261  003300000000
      00262  026400000000
      00263  512521247033
      00264  516000000033
      00265  600000330000
1             J. W. PODUSKA ... CONV - UTILITY CONVERSION ROUTINES.              03/04/70 1427.5 PAGE 1
                        POST PROCESSOR ASSEMBLY DATA

       72127 IS THE LAST LOCATION NOT USED BY THIS PROGRAM
        266 IS THE FIRST LOCATION NOT USED BY THIS PROGRAM

0REFERENCES TO DEFINED SYMBOLS
      74671     Q0    27,  135,  212,  216,  227
        211    BZL     0
        221    NBL     0
        215    NZL     0
        177    RPL     0,  211,  215,  221,  225
        225    ZBL     0
        152   BTDC     0
        171   BTOC     0
        135   DTBC     0
        163   OTBC     0
        106   RTX1    30
        107   RTX2    31
        110   RTX4    32
        151   TNUM   140,  143,  145
          1  CTIME     0
          0  .WRFX   100
      74643  NULLS    42,   43,  125,  217,  223
      76500  PROBN    36
        131  UTEMP    34,  102
      74642 BLANKS   213,  222,  226
        112 CMTIME    50,   64
        140 DTBCLP   147
        132 RDYCOM    41,   45,   55,   56,   67,   75,   77,  101
         27 RDYTIM     0
         47 RDYTM1    37
         76 RDYTM2    46
         17 TCTIME     0
      75260 UCHARG    57,  104
      75331 UCLOCK    47,   60,  105

0 NO ERROR IN ABOVE ASSEMBLY.


ONLN8F   BCD 08/24/72 2336.1   11371         00000
1       M1416 786  R. DALEY ... ON LINE PRINT, PUNCH AND READ CHRONOLOG CLOCK    11/10/71 1846.8 PAGE 1

                                                                                                      ONLN0003
                       00004         ENTRY   PRINT         PRINT ON ON-LINE PRINTER                   ONLN0004
                       00011         ENTRY   PUNCH         PUNCH ON ON-LINE PUNCH                     ONLN0005
                       00024         ENTRY   EPRINT        PRINT ROUTINE USED DURING A TRAP           ONLN0006
                       00426         ENTRY   RCLOCK        READ CHRONOLOG, SET TIMNOW AND DATEYR      ONLN0007
                                                                                                      ONLN0008
                                     EXTERN  BTDC,CTIME,DTB,WRTOPR                                    ONLN0009
                                                                                                      ONLN0011
                                     UNLIST                                                           ONLN0012

                                                                                                      ONLN0019
                       01207  Z      TAPENO  A7            CHRONOLOG CLOCK SET AS 'TAPE' A7           ONLN0020
                       10624  DELAY  EQU     4500          9 MILLESECOND DELAY AFTER READING CHRONOLOGONLN0021
                       00012  ATRLOC EQU     10            ILC SAVED HERE ON CHANNEL 'A' TRAP         ONLN0022
                       00013  ADCTRP EQU     11            TRANSFER FROM HERE ON CHANNEL 'A' TRAP     ONLN0023
                                                                                                      ONLN0024
                              *  *  *  *  *  *  *  *  *  *  *  *  *  *  *  *  *  *  *  *  *  *  *  *  ONLN0025
                                                                                                      ONLN0026
                                             .. PRINT/PUNCH/EPRINT .. ON LINE PRINT AND PUNCH ROUTINESONLN0027
                                                                                                      ONLN0028
      00004  0564 00 0 74671  PRINT  ENB     Q0            DISABLE ALL TRAPS                          ONLN0029
      00005  0520 00 0 74535         ZET     PRDOWN        IS PRINTER DOWN                            ONLN0030
      00006  0020 00 4 00002         TRA     2,4           .. YES, EXIT AND PRAY                      ONLN0031
      00007 -0625 00 0 00254         STL     PRSW          ROUTINE TO PRINT ON LINE                   ONLN0032
      00010  0020 00 0 00013         TRA     PUNCH+2       ..                                         ONLN0033
                                                                                                      ONLN0034
      00011  0564 00 0 74671  PUNCH  ENB     Q0            DISABLE ALL TRAPS                          ONLN0035
      00012  0600 00 0 00254         STZ     PRSW          ROUTINE TO PUNCH CARD ON LINE              ONLN0036
      00013  0634 00 4 00022         SXA     PRPUX4,4      SAVE IR4 FROM CALL TO 'PRINT' OR 'PUNCH'   ONLN0037
      00014  0560 00 4 00001         LDQ     1,4           PICK UP USER CALLING SEQUENCE              ONLN0038
      00015 -0600 00 0 00017         STQ     *+2           SET IN CALL                                ONLN0039
      00016  0074 00 4 00030         TSX     WPRPU,4       CALL PRINT/PUNCH ROUTINE                   ONLN0040
      00017  0 00000 0 00000                 **,,**        ..                                         ONLN0041
      00020  0074 00 4 00410         TSX     CHKCHA,4      CHECK FOR LOST TRAP ON CHANNEL 'A'         ONLN0042
      00021  0564 00 0 77777         ENB     ENBWD         RE-ENABLE                                  ONLN0043
      00022  0774 00 4 00000  PRPUX4 AXT     **,4          RESTORE USER'S IR4                         ONLN0044
      00023  0020 00 4 00002         TRA     2,4           AND RETURN                                 ONLN0045
                                                                                                      ONLN0046
      00024  0564 00 0 74671  EPRINT ENB     Q0            DISABLE ALL TRAPS                          ONLN0047
      00025  0520 00 0 74535         ZET     PRDOWN        IS PRINTER DOWN                            ONLN0048
      00026  0020 00 4 00002         TRA     2,4           .. *SNIFF*                                 ONLN0049
      00027 -0625 00 0 00254         STL     PRSW          ROUTINE TO PRINT DURING ANY TRAP           ONLN0050
                                                                                                      ONLN0051
      00030  0634 00 1 00154  WPRPU  SXA     PRX1,1        SAVE XRS.                                  ONLN0052
      00031  0634 00 2 00155         SXA     PRX2,2        ..                                         ONLN0053
      00032  0634 00 4 00156         SXA     PRX4,4        ..                                         ONLN0054
      00033  0074 00 4 00330         TSX     SAVCHA,4      DISABLE AND SAVE CHANNEL 'A'               ONLN0055
      00034  0534 00 4 00156         LXA     PRX4,4        RELOAD CALLER'S XR4.                       ONLN0056
      00035 -0500 00 4 00001         CAL     1,4           PZE FIRST,,N                               ONLN0057
      00036 -0734 00 2 00000         PDX     ,2            GET WORD COUNT                             ONLN0058
      00037  0754 00 2 00000         PXA     ,2            ..                                         ONLN0059
      00040  0361 00 4 00001         ACL     1,4           BES LOCATION OF USER DATA                  ONLN0060
      00041  0621 00 0 00063         STA     PRPU.2        FOR WORD PICKUP.                           ONLN0061
      00042 -0520 00 0 00254         NZT     PRSW          IF CALL IS FOR PUNCH,                      ONLN0062
      00043  0020 00 0 00051         TRA     PRPU.1        SKIP SENSE INSTRUCTION SETUP               ONLN0063
      00044  0771 00 0 00017         ARS     15            ELSE, PREFIX TO X7                         ONLN0064
1       M1416 786  R. DALEY ... ON LINE PRINT, PUNCH AND READ CHRONOLOG CLOCK    11/10/71 1846.8 PAGE 2

      00045 -0737 00 7 00000         PDC     ,7            ..                                         ONLN0065
      00046 -0500 00 7 00260         CAL     SPRTBL,7      PICK UP USER REQUESTED SPRA                ONLN0066
      00047  0602 00 0 00143         SLW     SPRA          SAVE                                       ONLN0067
      00050  0602 00 0 00137         SLW     SPRX          THERE ALSO IN CASE BLANK LINE              ONLN0068
                                                                                                      ONLN0069
      00051  0774 00 7 00060  PRPU.1 AXT     48,7          CLEAR CARD IMAGE BUFFER                    ONLN0070
      00052  0600 00 7 00254         STZ     CBUF2+48,7    ..                                         ONLN0071
      00053  2 00001 7 00052         TIX     *-1,7,1       ..                                         ONLN0072
      00054 -0500 00 0 00761         CAL     =-0           INITIALIZE COLUMN MARKER TO FIRST COLUMN   ONLN0073
      00055  0602 00 0 00255         SLW     PRCOL         ..                                         ONLN0074
      00056  0774 00 4 00001         AXT     1,4           INITIALIZE CHARACTER COUNT                 ONLN0075
      00057  0774 00 5 00001         AXT     1,5           START ON RIGHT HALF                        ONLN0076
      00060  0774 00 6 00001         AXT     1,6           OF FIRST BUFFER                            ONLN0077
      00061 -3 00000 2 00123         TXL     DONE,2,0      SKIP FOR ZERO WORD COUNT.                  ONLN0078
      00062  0600 00 0 00256         STZ     DONESW        INDICATE THERE IS MORE PRINTING TO DO      ONLN0079
                                                                                                      ONLN0080
      00063  0560 00 2 00000  PRPU.2 LDQ     -,2           LOAD FIRST OR NEXT USER DATA WORD          ONLN0081
      00064  0774 00 1 00006         AXT     6,1           SIX CHARACTERS PER WORD                    ONLN0082
      00065 -0754 00 0 00000  PRPU.3 ZAC                                                              ONLN0083
      00066 -0763 00 0 00006         LGL     6             CHARACTER TO AC                            ONLN0084
      00067 -0600 00 0 00257         STQ     MQ.T          SAVE PARTIAL MQ CONTENTS                   ONLN0085
      00070 -0765 00 0 00001         LGR     1             DIVIDE BY 2, SAVE REMAINDER                ONLN0086
      00071  0737 00 7 00000         PAC     ,7            TABLE POSITION FOR CHARACTER               ONLN0087
      00072 -0500 00 7 00270         CAL     CHRTB,7       GET PUNCH CONFIGURATION FOR THIS           ONLN0088
      00073  0162 00 0 00075         TQP     *+2           CHARACTER                                  ONLN0089
      00074  0771 00 0 00022         ARS     18            TO ADDRESS                                 ONLN0090
      00075  0044 00 0 00000         PAI                   ..                                         ONLN0091
      00076  0737 00 7 00000         PAC     ,7            TRANSFER ADDRESS IF CONTROL CHAR.          ONLN0092
      00077  0054 00  100000         RFT     100000        TEST FOR SPECIAL CHARACTER                 ONLN0093
      00100  0020 00 7 00000         TRA     0,7           YES, GO PROCESS SPECIAL CHARACTER          ONLN0094
      00101 -0765 00 0 00014         LGR     12            ORDINARY CHARACTER, PUNCHES TO MQ          ONLN0095
      00102 -0500 00 0 00255         CAL     PRCOL         PICKUP COLUMN MARKER                       ONLN0096
      00103  0774 00 7 00030         AXT     24,7          24 WORD CARD IMAGE BUFFER, EVERY           ONLN0097
      00104  0162 00 0 00106         TQP     *+2           IF BIT IS OFF, IGNORE.                     ONLN0098
      00105  0522 00 5 00170         XEC     ORINBT,5      ELSE, ADD PUNCH TO PROPER BUFFER.          ONLN0099
      00106 -0773 00 0 00001         RQL     1             ONWARD TO NEXT ROW OF CARD THIS COLUMN     ONLN0100
      00107  2 00002 7 00104         TIX     *-3,7,2       ..                                         ONLN0101
      00110  0771 00 0 00001         ARS     1             MOVE COLUMN MARKER TO NEXT COLUMN          ONLN0102
      00111  1 00001 4 00112         TXI     *+1,4,1       INCREMENT WORD COUNT                       ONLN0103
      00112  3 00170 4 00123         TXH     DONE,4,120    SEE IF OUT OF BOUNDS                       ONLN0104
      00113 -0100 00 0 00117         TNZ     PRPU.4        IF DONE WITH HALF OF CARD,                 ONLN0105
      00114 -0500 00 0 00761         CAL     =-0           REINITIALIZE COLUMN MARKER                 ONLN0106
      00115  1 00001 5 00116         TXI     *+1,5,1       INDICATE ON NEXT HALF OF CARD              ONLN0107
      00116  2 00002 5 00124         TIX     PRPU.5,5,2    IF TWO HALVES DONE, GO PRINT BUFFER OUT    ONLN0108
      00117  0602 00 0 00255  PRPU.4 SLW     PRCOL         SAVE COLUMN MARKER FOR NEXT CHARACTER      ONLN0109
      00120  0560 00 0 00257  SKP    LDQ     MQ.T          RESTORE PARTIAL MQ. ENTER HERE TO IGNORE   ONLN0110
      00121  2 00001 1 00065         TIX     PRPU.3,1,1    GO GET NEXT CHARACTER                      ONLN0111
      00122  2 00001 2 00063         TIX     PRPU.2,2,1    WORD EXHAUSTED, GO GET NEXT WORD           ONLN0112
      00123 -0625 00 0 00256  DONE   STL     DONESW        FINISHED, INDICATE LAST BUFFER TO PRINT.   ONLN0113
      00124  0520 00 0 00254  PRPU.5 ZET     PRSW          ARE WE PRINTING OR PUNCHING. Q             ONLN0114
      00125  0020 00 0 00131         TRA     PRNT.1        WE ARE PRINTING, GO TO PRINT ROUTINE       ONLN0115
      00126  0766 00 0 01341         WPUA                  HERE TO PUNCH CARD.                        ONLN0116
      00127  0540 00 0 00162         RCHA    PUCOM         START CHANNEL                              ONLN0117
      00130  0020 00 0 00153         TRA     PEND          AND SKIP TO EXIT AFTER ONE CARD.           ONLN0118
      00131  0774 00 7 00030  PRNT.1 AXT     24,7          HERE TO PRINT PARTIAL LINE.                ONLN0119
      00132  0520 60 6 00172         ZET*    CARD,6        SEE IF BUFFER ALL BLANK                    ONLN0120
1       M1416 786  R. DALEY ... ON LINE PRINT, PUNCH AND READ CHRONOLOG CLOCK    11/10/71 1846.8 PAGE 3

      00133  0020 00 0 00142         TRA     PNOW          NON-ZERO WORD FOUND, GO PRINT.             ONLN0121
      00134  2 00001 7 00132         TIX     *-2,7,1       ..                                         ONLN0122
      00135  3 00001 6 00153         TXH     PEND,6,1      HAVE WE PRINTED ANYTHING ON THIS LINE      ONLN0123
      00136  0766 00 0 01361         WPRA                  NO, SELECT PRINTER                         ONLN0124
      00137  0760 00 0 01360  SPRX   SPRA    **            USER REQUESTED SPRA                        ONLN0125
      00140  0540 00 0 00163         RCHA    IOCD          AND DISCONNECT CHANNEL                     ONLN0126
      00141  0020 00 0 00145         TRA     PRT2.2        SKIP                                       ONLN0127
      00142  0766 00 0 01361  PNOW   WPRA                  SELECT PRINTER ON CHANNEL 'A'              ONLN0128
      00143  0760 00 0 01360  SPRA   SPRA    **            USER REQUESTED SPRA OR SPRA 9.             ONLN0129
      00144  0540 60 6 00162         RCHA*   PRCOM,6       START UP CHANNEL ON RIGHT BUFFER           ONLN0130
      00145  0520 00 0 00256  PRT2.2 ZET     DONESW        IS THERE MORE TO DO. Q                     ONLN0131
      00146  0020 00 0 00153         TRA     PEND          NO, SKIP TO END                            ONLN0132
      00147 -0500 00 0 00263         CAL     SPRA9         YES, SET UP TO PRINT RIGHT HALF LINE       ONLN0133
      00150  0602 00 0 00143         SLW     SPRA          ..                                         ONLN0134
      00151 -0500 00 0 00761         CAL     =-0           RESET COLUMN MARKER                        ONLN0135
      00152  1 00001 6 00117         TXI     PRPU.4,6,1    AND RE-ENTER ROUTINE                       ONLN0136
                                                                                                      ONLN0137
      00153  0074 00 4 00356  PEND   TSX     RSTCHA,4      HERE WHEN DONE, RESTORE CHANNEL 'A'        ONLN0138
      00154  0774 00 1 00000  PRX1   AXT     -,1           RESTORE XRS                                ONLN0139
      00155  0774 00 2 00000  PRX2   AXT     -,2           ..                                         ONLN0140
      00156  0774 00 4 00000  PRX4   AXT     -,4           ..                                         ONLN0141
      00157  0020 00 4 00002         TRA     2,4           RETURN TO CALLER.                          ONLN0142
                                                                                                      ONLN0143
                                                                                                      ONLN0144
      00160  0 00000 0 00164         PZE     PRCM2         CHANNEL COMMANDS FOR SECOND BUFFER         ONLN0145
      00161  0 00000 0 00162         PZE     PRCM1         .. FOR FIRST BUFFER                        ONLN0146
                       00162  PRCOM  SYN     *             ..                                         ONLN0147
                                                                                                      ONLN0148
      00162 -2 00030 0 00224  PRCM1  IOSP    CBUF1,,24     WHEN PRINTING, THIS SEQUENCE DISCONNECTS   ONLN0149
      00163  0 00000 0 00000  IOCD   IOCD    0,,0          13 MS. FASTER THAN IOCD                    ONLN0150
      00164 -2 00030 0 00174  PRCM2  IOSP    CBUF2,,24     ..                                         ONLN0151
      00165  0 00000 0 00000         IOCD    0,,0          ..                                         ONLN0152
                                                                                                      ONLN0153
                       00162  PUCOM  SYN     PRCM1         DISCONNECTS 25 MS FASTER THAN IOCD         ONLN0154
                                                                                                      ONLN0155
      00166 -0602 60 6 00174         ORS*    CARD+2,6      TO ADD PUNCH INTO RIGHT HALF CARD          ONLN0156
      00167 -0602 60 6 00172         ORS*    CARD,6        .. LEFT HALF CARD                          ONLN0157
                       00170  ORINBT SYN     *             ' XEC ORINBT,5 '                           ONLN0158
                                                                                                      ONLN0159
      00170  0 00000 7 00224         PZE     CBUF2+24,7    RIGHT HALF LINE                            ONLN0160
      00171  0 00000 7 00254         PZE     CBUF1+24,7    LEFT HALF LINE                             ONLN0161
                       00172  CARD   SYN     *             .. 'ORS* CARD,6'                           ONLN0162
      00172  0 00000 7 00225         PZE     CBUF2+25,7    FOR RIGHT HALF CARD COL 37-72              ONLN0163
      00173  0 00000 7 00255         PZE     CBUF1+25,7    ..                                         ONLN0164
                                                                                                      ONLN0165
      00174                   CBUF2  BSS     24            PRINT BUFFER 2                             ONLN0166
      00224                   CBUF1  BSS     24            PRINT BUFFER 1, PUNCH BUFFER               ONLN0167
                                                                                                      ONLN0168
      00254  0 00000 0 77777  PRSW   PZE     -1            PRINT/PUNCH SWITCH                         ONLN0169
      00255  0 00000 0 00000  PRCOL  PZE                   STORAGE FOR COLUMN MARKER                  ONLN0170
      00256  0 00000 0 00000  DONESW PZE                   NON-ZERO IF CONTENTS OF BUFFER IS LAST     ONLN0171
      00257  0 00000 0 00000  MQ.T   PZE                   STORAGE FOR PARTIAL MQ DURING CONVERSION   ONLN0172
                                                                                                      ONLN0173
                       00260  SPRTBL SYN     *             TABLE OF VALID SPR'S                       ONLN0174
      00260  0761 00 0 00000  NOP    NOP                   (PZE)  SINGLE SPACE                        ONLN0175
      00261  0760 00 0 01361         SPRA    1             (PON)  NEW PAGE                            ONLN0176
1       M1416 786  R. DALEY ... ON LINE PRINT, PUNCH AND READ CHRONOLOG CLOCK    11/10/71 1846.8 PAGE 4

      00262  0760 00 0 01362         SPRA    2             (PTW)  HALF-PAGE SKIP                      ONLN0177
      00263  0760 00 0 01371  SPRA9  SPRA    9             (PTH)  PRINT RIGHT-HALF LINE               ONLN0178
      00264  0761 00 0 00000         NOP                   (MZE)  SINGLE SPACE                        ONLN0179
      00265  0761 00 0 00000         NOP                   (MON)  SINGLE SPACE                        ONLN0180
      00266  0760 00 0 01364  SPRA4  SPRA    4             (MTW)  DOUBLE SPACE                        ONLN0181
      00267  0761 00 0 00000         NOP                   (MTH)  SINGLE SPACE                        ONLN0182
                                                                                                      ONLN0183
                      000001  P12    BOOL    1             BIT FOR 12-PUNCH                           ONLN0184
                      000002  P11    BOOL    2                     11-PUNCH                           ONLN0185
                      000004  P0     BOOL    4                      0-PUNCH                           ONLN0186
                      000010  P1     BOOL    10                     1-PUNCH                           ONLN0187
                      000020  P2     BOOL    20                     2-PUNCH                           ONLN0188
                      000040  P3     BOOL    40                     3-PUNCH                           ONLN0189
                      000100  P4     BOOL    100                    4-PUNCH                           ONLN0190
                      000200  P5     BOOL    200                    5-PUNCH                           ONLN0191
                      000400  P6     BOOL    400                    6-PUNCH                           ONLN0192
                      001000  P7     BOOL    1000                   7-PUNCH                           ONLN0193
                      002000  P8     BOOL    2000                   8-PUNCH                           ONLN0194
                      004000  P9     BOOL    4000                   9-PUNCH                           ONLN0195
                                                                                                      ONLN0196
                       00270  CHRTB  SYN     *             CONVERSION TABLE FOR CHARACTERS            ONLN0197
      00270  0 00010 0 00004         PZE     P0,,P1        DIGITS 0, 1                                ONLN0198
      00271  0 00040 0 00020         PZE     P2,,P3        2, 3                                       ONLN0199
      00272  0 00200 0 00100         PZE     P4,,P5        4, 5                                       ONLN0200
      00273  0 01000 0 00400         PZE     P6,,P7        6, 7                                       ONLN0201
      00274  0 04000 0 02000         PZE     P8,,P9        8, 9                                       ONLN0202
      00275  0 02040 1 00120         PZE     SKP,1,P8+P3   ILL., =                                    ONLN0203
      00276  1 00120 0 02100         PON     P8+P4,,SKP    ', ILL.                                    ONLN0204
      00277  1 00120 1 00120         PON     SKP,1,SKP     ILL, ILL.                                  ONLN0205
      00300  0 00011 0 00001         PZE     P12,,P12+P1   +, A                                       ONLN0206
      00301  0 00041 0 00021         PZE     P12+P2,,P12+P3 B, C                                      ONLN0207
      00302  0 00201 0 00101         PZE     P12+P4,,P12+P5 D, E                                      ONLN0208
      00303  0 01001 0 00401         PZE     P12+P6,,P12+P7 F, G                                      ONLN0209
      00304  0 04001 0 02001         PZE     P12+P8,,P12+P9 H, I                                      ONLN0210
      00305  0 02041 1 00120         PZE     SKP,1,P12+P8+P3 ILL., '.'                                ONLN0211
      00306  0 02041 0 02101         PZE     P12+P8+P4,,P12+P8+P3 ), COLON (USE .)                    ONLN0212
      00307  1 00120 1 00120         PON     SKP,1,SKP     ILL., ILL.                                 ONLN0213
      00310  0 00012 0 00002         PZE     P11,,P11+P1   -, J                                       ONLN0214
      00311  0 00042 0 00022         PZE     P11+P2,,P11+P3 K, L                                      ONLN0215
      00312  0 00202 0 00102         PZE     P11+P4,,P11+P5 M, N                                      ONLN0216
      00313  0 01002 0 00402         PZE     P11+P6,,P11+P7 O, P                                      ONLN0217
      00314  0 04002 0 02002         PZE     P11+P8,,P11+P9 Q, R                                      ONLN0218
      00315  0 02042 1 00120         PZE     SKP,1,P11+P8+P3 ILL., $                                  ONLN0219
      00316  1 00120 0 02102         PON     P11+P8+P4,,SKP *, ILL.                                   ONLN0220
      00317  1 00120 1 00120         PON     SKP,1,SKP     ILL., NULL                                 ONLN0221
      00320  0 00014 0 00000         PZE     0,,P0+P1      BLANK, /                                   ONLN0222
      00321  0 00044 0 00024         PZE     P0+P2,,P0+P3  S, T                                       ONLN0223
      00322  0 00204 0 00104         PZE     P0+P4,,P0+P5  U, V                                       ONLN0224
      00323  0 01004 0 00404         PZE     P0+P6,,P0+P7  W, X                                       ONLN0225
      00324  0 04004 0 02004         PZE     P0+P8,,P0+P9  Y, Z                                       ONLN0226
      00325  0 02044 1 00120         PZE     SKP,1,P0+P8+P3 TAB, ','                                  ONLN0227
      00326  1 00120 0 02104         PON     P0+P8+P4,,SKP (, ILL.                                    ONLN0228
      00327  1 00120 1 00120         PON     SKP,1,SKP     ILL., ILL.                                 ONLN0229
                                                                                                      ONLN0230
                                                                                                      ONLN0231
                              *  *  *  *  *  *  *  *  *  *  *  *  *  *  *  *  *  *  *  *  *  *  *  *  ONLN0232
1       M1416 786  R. DALEY ... ON LINE PRINT, PUNCH AND READ CHRONOLOG CLOCK    11/10/71 1846.8 PAGE 5

                                                                                                      ONLN0233
                                             ... SAVCHA/RSTCHA/CHKCHA ... SAVE RESTORE AND CHECK 'A'  ONLN0234
                                                                                                      ONLN0235
      00330  0564 00 0 74671  SAVCHA ENB     Q0            SAVE STATUS OF CHANNEL 'A'                 ONLN0236
      00331  0520 00 0 00423         ZET     SAVSW         HAVE WE SAVED CHANNEL BEFORE               ONLN0237
      00332  0020 00 4 00001         TRA     1,4           YES, IGNORE THIS CALL                      ONLN0238
      00333 -0625 00 0 00423         STL     SAVSW         NO, SET CHANNEL SAVED SWITCH               ONLN0239
      00334  0520 00 0 74442         ZET     ATLOST        HAVE WE LOST A TRAP ALREADY                ONLN0240
      00335  0020 00 0 00351         TRA     SVCHA2        YES, SKIP                                  ONLN0241
      00336 -0500 00 0 00344         CAL     TSTRAP        NO, SET UP TO CHECK FOR TRAP ON CHANNEL 'A'ONLN0242
      00337  0441 00 0 00013         LDI     ADCTRP        SAVE CHANNEL 'A' TRAP INSTRUCTION          ONLN0243
      00340  0602 00 0 00013         SLW     ADCTRP        .. AND SUBSTITUTE NEW TRAP INSTRUCTION     ONLN0244
      00341  0564 00 0 00755         ENB     =O1000001     ENABLE FOR ALL TRAPS ON CHANNEL 'A'        ONLN0245
      00342  0060 00 0 00342         TCOA    *             AND WAIT                                   ONLN0246
      00343  0020 00 0 00347         TRA     SVCHA1        GO RESTORE TRAP INSTRUCTION IF NO TRAP     ONLN0247
                                                                                                      ONLN0248
      00344  0021 00 0 00345  TSTRAP TTR     *+1           TRANSFER ON CHANNEL 'A' TRAP               ONLN0249
                                                                                                      ONLN0250
      00345 -0500 00 0 00012         CAL     ATRLOC        PICK UP FLAGS FROM TRAP ON CHANNEL 'A'     ONLN0251
      00346  0602 00 0 74442         SLW     ATLOST        SET FLAGS FOR LOST TRAP                    ONLN0252
      00347  0564 00 0 74671  SVCHA1 ENB     Q0            DISABLE ALL TRAPS                          ONLN0253
      00350  0604 00 0 00013         STI     ADCTRP        RESTORE PREVIOUS TRAP INSTRUCTION          ONLN0254
                                                                                                      ONLN0255
      00351  0640 00 0 00424  SVCHA2 SCHA    SVCHAN        SAVE CHANNEL 'A' REGISTERS                 ONLN0256
      00352  0600 00 0 00425         STZ     SVIOCK        AND I/O CHECK CONDITION                    ONLN0257
      00353  0760 00 0 00005         IOT                   ..                                         ONLN0258
      00354 -0625 00 0 00425         STL     SVIOCK        ..                                         ONLN0259
      00355  0020 00 4 00001         TRA     1,4           AND RETURN                                 ONLN0260
                                                                                                      ONLN0261
      00356 -0520 00 0 00423  RSTCHA NZT     SAVSW         WAS CHANNEL STATUS SAVED                   ONLN0262
      00357  0020 00 4 00001         TRA     1,4           NO, RETURN                                 ONLN0263
      00360  0634 00 4 00406         SXA     RSTCX4,4      RESTORE CHANNEL STATUS                     ONLN0264
      00361  0060 00 0 00361         TCOA    *                                                        ONLN0265
      00362  0600 00 0 00423         STZ     SAVSW         RESET CHANNEL SAVED SWITCH                 ONLN0266
      00363  0760 00 0 01352         RDCA                  RESET ALL CONDITIONS ON CHANNEL 'A'        ONLN0267
      00364 -0500 00 0 00424         CAL     SVCHAN        PICK UP PREVIOUS CHANNEL STATUS            ONLN0268
      00365 -0737 00 4 00000         PDC     0,4           -LOCATION COUNTER TO IR4                   ONLN0269
      00366 -0320 00 0 00762         ANA     =O700000377777  RESTORE CHANNEL 'A' REGISTERS            ONLN0270
      00367  0560 00 4 77777         LDQ     -1,4          ..                                         ONLN0271
      00370  0602 00 4 77777         SLW     -1,4          ..                                         ONLN0272
      00371  0540 00 4 77777         RCHA    -1,4          ..                                         ONLN0273
      00372 -0600 00 4 77777         STQ     -1,4          ..                                         ONLN0274
      00373 -0520 00 0 00425         NZT     SVIOCK        RESTORE PREVIOUS CONDITIONS OF I/O CHECK   ONLN0275
      00374  0760 00 0 00005         IOT                   ..                                         ONLN0276
      00375  0761 00 0 00000         NOP                   .. FOR SAFETY ONLY (IOT SHOULD BE ON)      ONLN0277
      00376 -0500 00 0 00403         CAL     FORGET        SET UP TO LOOSE ANY TRAP ON CHANNEL 'A'    ONLN0278
      00377  0441 00 0 00013         LDI     ADCTRP        SAVE CHANNEL 'A' TRAP INSTRUCTION          ONLN0279
      00400  0602 00 0 00013         SLW     ADCTRP        .. SUBSTITUTE NEW TRAP INSTRUCTION         ONLN0280
      00401  0564 00 0 00755         ENB     =O1000001     ENABLE ALL TRAPS ON CHANNEL 'A'            ONLN0281
      00402  0060 00 0 00402         TCOA    *             AND WAIT                                   ONLN0282
      00403  0021 00 0 00404  FORGET TTR     RSCHA1        GO RESTORE TRAP INSTRUCTION IF NO TRAP     ONLN0283
                                                                                                      ONLN0284
      00404  0564 00 0 74671  RSCHA1 ENB     Q0            DISABLE ALL TRAPS                          ONLN0285
      00405  0604 00 0 00013         STI     ADCTRP        RESTORE PREVIOUS TRAP INSTRUCTION          ONLN0286
      00406  0774 00 4 00000  RSTCX4 AXT     **,4                                                     ONLN0287
      00407  0020 00 4 00001         TRA     1,4           AND RETURN                                 ONLN0288
1       M1416 786  R. DALEY ... ON LINE PRINT, PUNCH AND READ CHRONOLOG CLOCK    11/10/71 1846.8 PAGE 6

                                                                                                      ONLN0289
      00410  0564 00 0 74671  CHKCHA ENB     Q0            SIMULATE LOST TRAP ON CHANNEL 'A'          ONLN0290
      00411 -0500 00 0 74442         CAL     ATLOST        DID WE LOOSE A TRAP ON CHANNEL 'A'         ONLN0291
      00412  0100 00 4 00001         TZE     1,4           .. NO, RETURN                              ONLN0292
      00413  0600 00 0 74442         STZ     ATLOST        .. YES, SIMULATE TRAP ON CHANNEL 'A'       ONLN0293
      00414 -0320 00 0 00756         ANA     =O7000000     ..                                         ONLN0294
      00415 -0501 00 0 00420         ORA     SIMRTN        ..                                         ONLN0295
      00416  0602 00 0 00012         SLW     ATRLOC        ..                                         ONLN0296
      00417  0020 60 0 00013         TRA*    ADCTRP        ..                                         ONLN0297
                                                                                                      ONLN0298
      00420  0 00000 0 00421  SIMRTN PZE     *+1           RETURN LOCATION FROM SIMULATED TRAP        ONLN0299
      00421  0564 00 0 74671         ENB     Q0            DISABLE ALL TRAPS                          ONLN0300
      00422  0020 00 4 00001         TRA     1,4           AND RETURN                                 ONLN0301
                                                                                                      ONLN0302
      00423  0 00000 0 00000  SAVSW  PZE     0                                                        ONLN0303
      00424  0 00000 0 00000  SVCHAN PZE     0                                                        ONLN0304
      00425  0 00000 0 00000  SVIOCK PZE     0                                                        ONLN0305
                                                                                                      ONLN0306
                              *  *  *  *  *  *  *  *  *  *  *  *  *  *  *  *  *  *  *  *  *  *  *  *  ONLN0307
                                                                                                      ONLN0308
                                             ... RCLOCK ... READ CHRONOLOG, SET TIMNOW AND DATEYR ... ONLN0309
                                                                                                      ONLN0310
      00426  0564 00 0 74671  RCLOCK ENB     Q0            DISABLE ALL TRAPS                          ONLN0311
      00427                          SAVE    RCLK(X1,X2,X4) SAVE REGISTERS                            ONLN0312
      00432  0020 00 0 00433  RCLOC0 TRA     *+1           ON FIRST CALL, CHECK LEAP YEAR             ONLN0313
      00433  0560 00 0 00706         LDQ     YEAR          GET ASSEMBLED IN YEAR                      ONLN0314
      00434 -0773 00 0 00030         RQL     24            ..                                         ONLN0315
      00435  0074 00 7 00002         TSX     DTB,7         CONVERT TO BINARY                          ONLN0316
      00436  0044 00 0 00000         PAI                   ..                                         ONLN0317
      00437 -0500 00 0 00703         CAL     FEB           STARTS OUT AS 29 DAYS                      ONLN0318
      00440  0054 00  000003         RFT     3             IS THIS A LEAP YEAR                        ONLN0319
      00441  0402 00 0 74670         SUB     Q1            .. NO, MAKE IT 28                          ONLN0320
      00442  0602 00 0 00703         SLW     FEB           PUT BACK                                   ONLN0321
      00443 -0625 00 0 00432         STL     RCLOC0        CLOSE THIS PATH                            ONLN0322
                                                                                                      ONLN0323
      00444  0520 00 0 74536         ZET     RCLKSW        IS CHRONOLOG OPERATIONAL                   ONLN0324
      00445  0020 00 0 00616         TRA     CKDATE        NO, LIMP ALONG ON INTERVAL TIMER           ONLN0325
      00446  0074 00 4 00330         TSX     SAVCHA,4      YES, FREE UP CHANNEL 'A'                   ONLN0326
                                                                                                      ONLN0327
      00447  0774 00 1 00002         AXT     2,1           TRY TWICE IN CASE OF BAD DATE              ONLN0328
      00450  0600 00 0 00751  RCLOC1 STZ     MMDDHH        RESET                                      ONLN0329
      00451  0600 00 0 00752         STZ     MMSS66        ..                                         ONLN0330
      00452  0762 00 0 01207         RTDZ                  SELECT CHRONOLOG AS TAPE 'A7'              ONLN0331
      00453  0540 00 0 00705         RCHZ    RDCLOC        START UP CHANNEL TO READ CLOCK             ONLN0332
      00454  0774 00 2 00002         AXT     2,2           COUNT TRIES                                ONLN0333
      00455  0774 00 4 10624  RCLOC2 AXT     DELAY,4       9 MS DELAY WITH TIX *                      ONLN0334
      00456  2 00001 4 00456         TIX     *,4,1         ..                                         ONLN0335
      00457  0520 00 0 00751         ZET     MMDDHH        HAS FIRST WORD BEEN READ                   ONLN0336
      00460  0020 00 0 00464         TRA     RCLOC3        YES, SKIP TO WAIT ON CHANNEL               ONLN0337
      00461  2 00001 2 00455         TIX     RCLOC2,2,1    NO, COUNT TRIES                            ONLN0338
      00462  0760 00 0 01352         RDCZ                  AFTER 18 MS GIVE UP, RESET CHANNEL         ONLN0339
      00463  0020 00 0 00573         TRA     BADCLK        SKIP TO INFORM OPERATOR                    ONLN0340
      00464  0060 00 0 00464  RCLOC3 TCOZ    *             WAIT UNTIL BOTH WORDS ARE READ             ONLN0341
      00465  0022 00 0 00466         TRCZ    *+1           INSURE RTT TRIGGER RESET                   ONLN0342
                                                                                                      ONLN0343
      00466  0774 00 2 00002  RCLOC4 AXT     2,2           INSURE ALL CHARACTERS READ ARE LEGAL       ONLN0344
1       M1416 786  R. DALEY ... ON LINE PRINT, PUNCH AND READ CHRONOLOG CLOCK    11/10/71 1846.8 PAGE 7

      00467  0560 00 2 00753  RCLK4A LDQ     MMDDHH+2,2    PICK UP WORD READ                          ONLN0345
      00470  0774 00 4 00006         AXT     6,4           6 DIGITS PER WORD                          ONLN0346
      00471 -0754 00 0 00000  RCLOC5 ZAC                   ..                                         ONLN0347
      00472 -0763 00 0 00006         LGL     6             SHIFT CHAR                                 ONLN0348
      00473  0734 00 7 00000         PAX     ,7            TO X7                                      ONLN0349
      00474  3 00011 7 00572         TXH     RCLOC8,7,9    ERROR IF .G. 9                             ONLN0350
      00475  2 00001 4 00471         TIX     RCLOC5,4,1    DO FOR ALL CHARS                           ONLN0351
      00476  2 00001 2 00467         TIX     RCLK4A,2,1    .. OF EACH WORD                            ONLN0352
                                                                                                      ONLN0353
      00477  0560 00 0 00751         LDQ     MMDDHH        PICK UP HOUR                               ONLN0354
      00500 -0773 00 0 00030         RQL     24            ..                                         ONLN0355
      00501  0074 00 7 00002         TSX     DTB,7         CONVERT TO BINARY                          ONLN0356
      00502  0734 00 7 00000         PAX     ,7            ..                                         ONLN0357
      00503  3 00027 7 00572         TXH     RCLOC8,7,23   INSURE LEGAL VALUE                         ONLN0358
      00504  0560 00 0 00752         LDQ     MMSS66        NOW GET REST OF TIME                       ONLN0359
      00505  0774 00 4 00003         AXT     3,4           MINUTES, SECONDS, 60THS                    ONLN0360
      00506  0767 00 0 00002  RCLOC6 ALS     2             MULTIPLY PREVIOUS VALUE BY 60              ONLN0361
      00507  0602 00 0 00711         SLW     TMP           .. N * 4                                   ONLN0362
      00510  0774 00 7 00003         AXT     3,7           ..                                         ONLN0363
      00511  0767 00 0 00001         ALS     1             .. 8, 16, 32                               ONLN0364
      00512  0400 00 0 00711         ADD     TMP           ..                                         ONLN0365
      00513  2 00001 7 00511         TIX     *-2,7,1       ..                                         ONLN0366
      00514  0602 00 0 00710         SLW     60THS         .. = 60                                    ONLN0367
      00515  0074 00 7 00002         TSX     DTB,7         NOW CONVERT NEXT FIELD FROM MQ             ONLN0368
      00516  0734 00 7 00000         PAX     ,7            ..                                         ONLN0369
      00517  3 00073 7 00572         TXH     RCLOC8,7,59   MUST BE LESS THAN 60                       ONLN0370
      00520  0400 00 0 00710         ADD     60THS         ADD PREVIOUS RESULT                        ONLN0371
      00521  2 00001 4 00506         TIX     RCLOC6,4,1    GO BACK TO MULTIPLY AGAIN                  ONLN0372
      00522  0602 00 0 00707         SLW     NEWTIM        .. UNTIL WE HAVE 60THS OF SECOND           ONLN0373
                                                                                                      ONLN0374
      00523 -0520 00 0 74472         NZT     TOTTIM        IS THIS FIRST CALL AT SYSTEM COMEUP        ONLN0375
      00524  0020 00 0 00551         TRA     RCLOC7        .. NOTHING TO COMPARE WITH                 ONLN0376
                                                                                                      ONLN0377
      00525  0074 00 4 00647         TSX     CVDAY,4       COMPUTE 60THS SINCE JAN. 1                 ONLN0378
      00526  3 00000 0 00751         PAR     MMDDHH        .. FOR DATE READ                           ONLN0379
      00527  3 00000 0 00572         PAR     RCLOC8        .. ERROR, BAD DATE                         ONLN0380
      00530  0400 00 0 00707         ADD     NEWTIM        ADD 60THS TODAY                            ONLN0381
      00531  0602 00 0 00710         SLW     60THS         SAVE                                       ONLN0382
      00532  0074 00 4 00647         TSX     CVDAY,4       COMPUTE 60THS FOR INTERNAL TIME            ONLN0383
      00533  3 00000 0 74500         PAR     DATEYR        ..                                         ONLN0384
      00534  3 00000 0 00565         PAR     CLKRTN        ..                                         ONLN0385
      00535  0400 00 0 74476         ADD     TIMNOW        ..                                         ONLN0386
      00536  0402 00 0 00710         SUB     60THS         COMPARE                                    ONLN0387
      00537  0771 00 0 00002         ARS     2             ALLOW A BIT OF SLOP                        ONLN0388
      00540  0100 00 0 00551         TZE     RCLOC7        ..                                         ONLN0389
      00541  0120 00 0 00572         TPL     RCLOC8        INTERNAL TIME SHOULD NEVER BE FAST         ONLN0390
      00542  0771 00 0 00012         ARS     10            .. BUT MAY BE SLOW UP TO ABOUT 1 MIN.      ONLN0391
      00543  0100 00 0 00551         TZE     RCLOC7        ..                                         ONLN0392
      00544  0771 00 0 00006         ARS     6             ..                                         ONLN0393
      00545                          RESTOR  RCLK(X4)      ..                                         ONLN0394
      00546 -0520 00 4 00001         NZT     1,4           ON FORCED READ OR SYSTEM RESTART,          ONLN0395
      00547  0100 00 0 00551         TZE     RCLOC7        ALLOW UP TO ABOUT ONE HOUR ERROR           ONLN0396
      00550  0020 00 0 00572         TRA     RCLOC8        OTHERWISE ASSUME CHRONOLOG IN ERROR        ONLN0397
                                                                                                      ONLN0398
      00551 -0500 00 0 00707  RCLOC7 CAL     NEWTIM        DATE AND TIME OK, PUT IN COMMON            ONLN0399
      00552  0602 00 0 74476         SLW     TIMNOW        ..                                         ONLN0400
1       M1416 786  R. DALEY ... ON LINE PRINT, PUNCH AND READ CHRONOLOG CLOCK    11/10/71 1846.8 PAGE 8

      00553 -0500 00 0 00751         CAL     MMDDHH        ..                                         ONLN0401
      00554 -0320 00 0 00763         ANA     =O777777770000 MASK OUT HOUR                             ONLN0402
      00555 -0501 00 0 00706         ORA     YEAR          ADD IN YEAR TO FORM                        ONLN0403
      00556  0602 00 0 74500         SLW     DATEYR        .. MMDDYY                                  ONLN0404
      00557 -0765 00 0 00030         LGR     24            .. AND MM/DD                               ONLN0405
      00560  0767 00 0 00006         ALS     6             ..                                         ONLN0406
      00561 -0763 00 0 00014         LGL     12            ..                                         ONLN0407
      00562  0767 00 0 00006         ALS     6             ..                                         ONLN0408
      00563 -0501 00 0 00760         ORA     =H00/00       ..                                         ONLN0409
      00564  0602 00 0 74501         SLW     DATE          ..                                         ONLN0410
                                                                                                      ONLN0411
      00565  0074 00 4 00356  CLKRTN TSX     RSTCHA,4      COMMON RETURN FROM RCLOCK, RESTORE CHANNEL ONLN0412
      00566                          RETURN  (2,4),RCLK(X1,X2,X4)  AND RETURN TO CALLER.              ONLN0413
                                                                                                      ONLN0414
      00572  2 00001 1 00450  RCLOC8 TIX     RCLOC1,1,1    HERE FOR BAD DATE FROM CHRONOLOG, RETRY    ONLN0415
                                                                                                      ONLN0416
      00573  0560 00 0 74476  BADCLK LDQ     TIMNOW        HERE IF CHRONOLOG WILL NOT READ PROPERLY   ONLN0417
      00574  0074 00 4 00001         TSX     CTIME,4       CONVERT TIME FOR PRINTING                  ONLN0418
      00575  0602 00 0 00754         SLW     MMSS66+2      ..                                         ONLN0419
      00576  0074 00 4 00003         TSX     WRTOPR,4      TELL OPERATOR ABOUT IT                     ONLN0420
      00577  0 00014 0 00741         PZE     CLKBAD,,12    .. THOUGH IT PROBABLY IS A WASTED EFFORT   ONLN0421
      00600  0520 00 0 74472         ZET     TOTTIM        IS THIS FIRST CALL AT COMEUP TIME          ONLN0422
      00601  0020 00 0 00616         TRA     CKDATE        NO, GO ADJUST DATE/TIME IF 2400            ONLN0423
      00602  0074 00 4 00024         TSX     EPRINT,4      YES, MUST HAVE A DATE AND TIME             ONLN0424
      00603  0 00014 0 00712         PZE     SETMDH,,12    PRETEND OPERATOR IS CHRONOLOG              ONLN0425
      00604  0000 00 0 00605         HTR     *+1           WAIT FOR OPERATOR                          ONLN0426
      00605  0760 00 0 00004         ENK                   GET KEYS (MMDDHH)                          ONLN0427
      00606 -0600 00 0 00751         STQ     MMDDHH        PRETEND THE CHRONOLOG DID IT               ONLN0428
      00607  0074 00 4 00024         TSX     EPRINT,4      NOW ASK FOR THE REST OF IT                 ONLN0429
      00610  0 00013 0 00726         PZE     SETMS6,,11    ..                                         ONLN0430
      00611  0000 00 0 00612         HTR     *+1           .. WAIT AGAIN                              ONLN0431
      00612  0760 00 0 00004         ENK                   MMSS66                                     ONLN0432
      00613 -0600 00 0 00752         STQ     MMSS66        ..                                         ONLN0433
      00614 -0625 00 0 74536         STL     RCLKSW        INDICATE CHRONOLOG CLOCK OFFLINE           ONLN0434
      00615  0020 00 0 00466         TRA     RCLOC4        PROCESS NORMALLY                           ONLN0435
                                                                                                      ONLN0436
      00616  0074 00 4 00647  CKDATE TSX     CVDAY,4       HERE FOR CARRY AFTER 2400                  ONLN0437
      00617  3 00000 0 74500         PAR     DATEYR        ..                                         ONLN0438
      00620  3 00000 0 00565         PAR     CLKRTN        IF BAD DATE, IGNORE                        ONLN0439
      00621  0400 00 0 74476         ADD     TIMNOW        COMPUTE 60THS SINCE JAN. 1                 ONLN0440
      00622 -0130 00 0 00000         XCL                   ..                                         ONLN0441
      00623 -0754 00 0 00000         ZAC                   ..                                         ONLN0442
      00624  0221 00 0 00757         DVP     =V36/24*60*60*60 COMPUTE DAY AND TIME                    ONLN0443
      00625  0602 00 0 00707         SLW     NEWTIM        REMAINDER IS TIME                          ONLN0444
      00626 -0130 00 0 00000         XCL                   DAY OF YEAR TO MQ                          ONLN0445
      00627  0774 00 1 00001         AXT     1,1           FIND OUT WHICH MONTH                       ONLN0446
      00630  0020 00 0 00632         TRA     *+2           ..                                         ONLN0447
      00631  0402 00 1 00706         SUB     DAYS+1,1      SUBTRACT DAYS THIS MONTH                   ONLN0448
      00632 -0340 00 1 00705         LAS     DAYS,1        COMPARE REMAINDER WITH NEXT MONTH          ONLN0449
      00633  1 00001 1 00631         TXI     *-2,1,1       STILL TOO BIG, BUMP MONTH                  ONLN0450
      00634  0761 00 0 00000         NOP                   .. JUST RIGHT                              ONLN0451
      00635 -0130 00 0 00000         XCL                   TO MQ                                      ONLN0452
      00636  0074 00 4 00000         TSX     BTDC,4        CONVERT TO BCD                             ONLN0453
      00637  0767 00 0 00014         ALS     12            POSITION (00DD00)                          ONLN0454
      00640  0602 00 0 00751         SLW     MMDDHH        ..                                         ONLN0455
      00641  0754 00 1 00000         PXA     ,1            GET MONTH                                  ONLN0456
1       M1416 786  R. DALEY ... ON LINE PRINT, PUNCH AND READ CHRONOLOG CLOCK    11/10/71 1846.8 PAGE 9

      00642 -0130 00 0 00000         XCL                   ..                                         ONLN0457
      00643  0074 00 4 00000         TSX     BTDC,4        CONVERT TO BCD                             ONLN0458
      00644  0767 00 0 00030         ALS     24            POSITION                                   ONLN0459
      00645 -0602 00 0 00751         ORS     MMDDHH        FORM MMDD00                                ONLN0460
      00646  0020 00 0 00551         TRA     RCLOC7        UPDATE INTO COMMON                         ONLN0461
                                                                                                      ONLN0462
                                                                                                      ONLN0463
      00647  0560 60 4 00001  CVDAY  LDQ*    1,4           ROUTINE TO CONVERT MMDD TO 60THS           ONLN0464
      00650  0074 00 7 00002         TSX     DTB,7         CONVERT MONTH TO BINARY                    ONLN0465
      00651  0100 00 0 00670         TZE     CVERR         MUST BE 1 TO 12                            ONLN0466
      00652  0734 00 6 00000         PAX     ,6            ..                                         ONLN0467
      00653  3 00014 6 00670         TXH     CVERR,6,12    ..                                         ONLN0468
      00654  0074 00 7 00002         TSX     DTB,7         CONVERT DAY TO BINARY                      ONLN0469
      00655  0100 00 0 00670         TZE     CVERR         MAY NOT BE 0                               ONLN0470
      00656 -0340 00 6 00705         LAS     DAYS,6        COMPARE WITH DAYS THIS MONTH               ONLN0471
      00657  0020 00 0 00670         TRA     CVERR         .. TOO BIG                                 ONLN0472
      00660  0761 00 0 00000         NOP                   ..                                         ONLN0473
      00661  0020 00 0 00663         TRA     *+2           SKIP ADD FIRST TIME                        ONLN0474
      00662  0400 00 6 00705         ADD     DAYS,6        ADD UP TOTAL DAYS THIS YEAR                ONLN0475
      00663  2 00001 6 00662         TIX     *-1,6,1       .. UNTIL ALL OUT OF DAYS                   ONLN0476
      00664 -0130 00 0 00000         XCL                   ..                                         ONLN0477
      00665  0200 00 0 00757         MPY     =V36/24*60*60*60 CONVERT TO 60THS                        ONLN0478
      00666 -0130 00 0 00000         XCL                   RESULT TO AC                               ONLN0479
      00667  0020 00 4 00003         TRA     3,4           RETURN                                     ONLN0480
                                                                                                      ONLN0481
      00670  0020 60 4 00002  CVERR  TRA*    2,4           BAD DATE, ERROR RETURN                     ONLN0482
                                                                                                      ONLN0483
      00671 +000000000037     DEC    DEC     31            TABLE OF DAYS PER MONTH                    ONLN0484
      00672 +000000000036     NOV    DEC     30            ..                                         ONLN0485
      00673 +000000000037     OCT    DEC     31            ..                                         ONLN0486
      00674 +000000000036     SEP    DEC     30            ..                                         ONLN0487
      00675 +000000000037     AUG    DEC     31            ..                                         ONLN0488
      00676 +000000000037     JUL    DEC     31            ..                                         ONLN0489
      00677 +000000000036     JUN    DEC     30            ..                                         ONLN0490
      00700 +000000000037     MAY    DEC     31            ..                                         ONLN0491
      00701 +000000000036     APR    DEC     30            ..                                         ONLN0492
      00702 +000000000037     MAR    DEC     31            ..                                         ONLN0493
      00703 +000000000035     FEB    DEC     29            .. CHANGED TO 28 IF NOT LEAP YEAR          ONLN0494
      00704 +000000000037     JAN    DEC     31            ..                                         ONLN0495
                       00705  DAYS   SYN     *             INDEX POINT FOR TABLE                      ONLN0496
                                                                                                      ONLN0497
                                                                                                      ONLN0498
      00705  3 00002 0 00751  RDCLOC IORT    MMDDHH,,2     CHANNEL COMMAND TO READ CHRONOLOG CLOCK    ONLN0499
      00706  000000000702     YEAR   BCI     1,000072      MUST BE CHANGED EVERY YEAR **************  ONLN0500
      00707  0 00000 0 00000  NEWTIM PZE                                                              ONLN0501
      00710  0 00000 0 00000  60THS  PZE                                                              ONLN0502
      00711  0 00000 0 00000  TMP    PZE                                                              ONLN0503
                                                                                                      ONLN0504
      00712  464725512163     SETMDH BCI     9,OPERATOR ENTER BCD MONTH, DAY, HOUR IN KEYS, FORMAT MM ONLN0505
      00723  242430303360            BCI     3,DDHH. PRESS START.                                     ONLN0506
      00726  254563255160     SETMS6 BCI     9,ENTER BCD MINUTE, SECOND, 60TH IN KEYS, FORMAT MMSS66. ONLN0507
      00737  604751256262            BCI     2, PRESS START.                                          ONLN0508
      00741  233051464546     CLKBAD BCI     /CHRONOLOG CLOCK MALFUNCTIONING. CLOCK READ '/           ONLN0509
      00751  444424243030     MMDDHH BCI     1,MMDDHH                                                 ONLN0510
      00752  444462620606     MMSS66 BCI     1,MMSS66                                                 ONLN0511
      00753  146021636057            BCI     /' AT /                                                  ONLN0512
1       M1416 786  R. DALEY ... ON LINE PRINT, PUNCH AND READ CHRONOLOG CLOCK    11/10/71 1846.8 PAGE 10

      00754  303044443344            BCI     1,HHMM.M                                                 ONLN0513
                                                                                                      ONLN0514
                                     END                                                              ONLN0516

        LITERALS
      00755  000001000001
      00756  000007000000
      00757  000023615000
      00760  000061000060
      00761  400000000000
      00762  700000377777
      00763  777777770000
1       M1416 786  R. DALEY ... ON LINE PRINT, PUNCH AND READ CHRONOLOG CLOCK    11/10/71 1846.8 PAGE 1
                        POST PROCESSOR ASSEMBLY DATA

       72127 IS THE LAST LOCATION NOT USED BY THIS PROGRAM
        764 IS THE FIRST LOCATION NOT USED BY THIS PROGRAM

0REFERENCES TO DEFINED SYMBOLS
       1207      Z     4,  452,  453,  462,  464,  465
          4     P0   270,  320,  321,  322,  323,  324,  325,  326
         10     P1   270,  300,  310,  320
         20     P2   270,  271,  301,  311,  321
         40     P3   270,  271,  275,  301,  305,  306,  311,  315,  321,  325
        100     P4   270,  272,  276,  302,  306,  312,  316,  322,  326
        200     P5   270,  272,  302,  312,  322
        400     P6   270,  273,  303,  313,  323
       1000     P7   270,  273,  303,  313,  323
       2000     P8   270,  274,  275,  276,  304,  305,  306,  314,  315,  316,  324,  325,  326
       4000     P9   270,  274,  304,  314,  324
      74671     Q0     4,   11,   24,  330,  347,  404,  410,  421,  426
      74670     Q1   441
        701    APR
        675    AUG
        671    DEC
          2    DTB   435,  501,  515,  650,  654
        703    FEB   437,  442
        704    JAN
        676    JUL
        677    JUN
        702    MAR
        700    MAY
        260    NOP
        672    NOV
        673    OCT
          2    P11   270,  310,  311,  312,  313,  314,  315,  316
          1    P12   270,  300,  301,  302,  303,  304,  305,  306
        674    SEP
        120    SKP   275,  276,  277,  305,  307,  315,  316,  317,  325,  326,  327
        711    TMP   507,  512
          0   BTDC   636,  643
        172   CARD   132,  166,  167,  172
      74501   DATE   564
        705   DAYS   631,  632,  656,  662,  705
        123   DONE    61,  112
        163   IOCD   140
        257   MQ.T    67,  120
        153   PEND   130,  135,  146
        142   PNOW   133
        254   PRSW     7,   12,   27,   42,  124
        154   PRX1    30
        155   PRX2    31
        156   PRX4    32,   34
        143   SPRA    47,  150
        137   SPRX    50
        706   YEAR   433,  555
        710  60THS   514,  520,  531,  536
        224  CBUF1   162,  171,  173
        174  CBUF2    52,  164,  170,  172
1       M1416 786  R. DALEY ... ON LINE PRINT, PUNCH AND READ CHRONOLOG CLOCK    11/10/71 1846.8 PAGE 2
                        POST PROCESSOR ASSEMBLY DATA

        270  CHRTB    72,  270
          1  CTIME   574
        647  CVDAY   525,  532,  616
        670  CVERR   651,  653,  655,  657
      10624  DELAY     4,  455
      77777  ENBWD    21
        162  PRCM1   161,  166
        164  PRCM2   160
        255  PRCOL    55,  102,  117
        162  PRCOM   144,  162
          4  PRINT     0
        162  PUCOM   127,  166
         11  PUNCH     0,   10
        423  SAVSW   331,  333,  356,  362
        266  SPRA4
        263  SPRA9   147
         30  WPRPU    16
         13 ADCTRP     4,  337,  340,  350,  377,  400,  405,  417
      74442 ATLOST   334,  346,  411,  413
         12 ATRLOC     4,  345,  416
        573 BADCLK   463
        410 CHKCHA    20
        616 CKDATE   445,  601
        741 CLKBAD   577
        565 CLKRTN   534,  620
      74500 DATEYR   533,  556,  617
        256 DONESW    62,  123,  145
         24 EPRINT     0,  602,  607
        403 FORGET   376
        751 MMDDHH   450,  457,  467,  477,  526,  553,  606,  640,  645,  705
        752 MMSS66   451,  504,  575,  613
        707 NEWTIM   522,  530,  551,  625
        170 ORINBT   105,  170
      74535 PRDOWN     5,   25
        131 PRNT.1   125
         51 PRPU.1    43
         63 PRPU.2    41,  122
         65 PRPU.3   121
        117 PRPU.4   113,  152
        124 PRPU.5   116
         22 PRPUX4    13
        145 PRT2.2   141
        467 RCLK4A   476
      74536 RCLKSW   444,  614
        566 RCLKX1   427
        567 RCLKX2   430
        570 RCLKX4   431,  545
        432 RCLOC0   443
        450 RCLOC1   572
        455 RCLOC2   461
        464 RCLOC3   460
        466 RCLOC4   615
        471 RCLOC5   475
        506 RCLOC6   521
        551 RCLOC7   524,  540,  543,  547,  646
1       M1416 786  R. DALEY ... ON LINE PRINT, PUNCH AND READ CHRONOLOG CLOCK    11/10/71 1846.8 PAGE 3
                        POST PROCESSOR ASSEMBLY DATA

        572 RCLOC8   474,  503,  517,  527,  541,  550
        426 RCLOCK     0
        705 RDCLOC   453
        404 RSCHA1   403
        356 RSTCHA   153,  565
        406 RSTCX4   360
        330 SAVCHA    33,  446
        712 SETMDH   603
        726 SETMS6   610
        420 SIMRTN   415
        260 SPRTBL    46,  260
        347 SVCHA1   343
        351 SVCHA2   335
        424 SVCHAN   351,  364
        425 SVIOCK   352,  354,  373
      74476 TIMNOW   535,  552,  573,  621
      74472 TOTTIM   523,  600
        344 TSTRAP   336
          3 WRTOPR   576

0 NO ERROR IN ABOVE ASSEMBLY.


EDBG8A   BCD 03/04/70 1439.3    3885         00000
1      M1416-4882 J. PODOLSKY   CTSS DIAGNOSTIC ROUTINES $PANIC, $CORDMP         03/04/70 1428.2 PAGE 1

                                     PCC     ON                                                       EDBG0002
                                     NOLNK                                                            EDBG0003
                                     LBL     DGPAC                                                    EDBG0004
                       00003         ENTRY   PANIC         MANUAL ENTRY TO DEBUG PACKAGE              EDBG0005
                       00006         ENTRY   CORDMP        ENTRY UPON 'CODE 13'                       EDBG0006
                       00002         ENTRY   TRACE         DUMMY ENTRY TO TRACE TRAPS                 EDBG0007

        TRANSFER VECTOR
      00000  234643246060     COLD
      00001  626371336266     STZ.SW

                       00002  BEGIN  EQU     *             ..                                         EDBG0008
                                                                                                      EDBG0009
                                             CALLING SEQUENCES ..                                     EDBG0010
                                                                                                      EDBG0011
                                             1.  TO CALL FOR PANIC DUMP ..                            EDBG0012
                                                                                                      EDBG0013
                                                           TTR* $PANIC                                EDBG0014
                                                                                                      EDBG0015
                                                 'PANIC' IS NORMALLY ENTERED MANUALLY FROM THE OP-    EDBG0016
                                                 ERATOR'S CONSOLE VIA THE FOLLOWING SEQUENCE ..       EDBG0017
                                                                                                      EDBG0018
                                                     1)  INTERVAL TIMER OFF                           EDBG0019
                                                     2)  AUTO/MANUAL SWITCH TO 'MANUAL'               EDBG0020
                                                     3)  KEYS 'S' AND '2' DOWN (STR 500000000000)     EDBG0021
                                                     4)  DEPRESS 'ENTER INSTRUCTION' ONCE             EDBG0022
                                                     5)  KEYS '7', '32', AND '35' DOWN (TRA 11)       EDBG0023
                                                     6)  DEPRESS 'ENTER INSTRUCTION'                  EDBG0024
                                                     7)  AUTO/MANUAL SWITCH TO 'AUTOMATIC'            EDBG0025
                                                     8)  DEPRESS 'START'                              EDBG0026
                                                                                                      EDBG0027
                                                 A BINARY DUMP OF CPU AND CORE WILL RESULT ON TAPE    EDBG0028
                                                 'T'.  A SYMBOLIC LISTING OF THIS DUMP CAN BE OB-     EDBG0029
                                                 TAINED BY RUNNING THE CTSS DUMP INTERPRETER PROGRAM. EDBG0030
                                                                                                      EDBG0031
                                             2.  TO CALL FOR 'NON-PANIC' DUMP ..                      EDBG0032
                                                                                                      EDBG0033
                                                           TSX  $CORDMP,4      USE NORMAL 'TSX'       EDBG0034
                                                                                                      EDBG0035
                                                 'CORDMP' IS NORMALLY CALLED BY THE CLOCK CONTROL     EDBG0036
                                                 MODULE WHEN A CODE '13' IS READ IN THE KEYS.         EDBG0037
1      M1416-4882 J. PODOLSKY   CTSS DIAGNOSTIC ROUTINES $PANIC, $CORDMP         03/04/70 1428.2 PAGE 2
                           PARAMETERS VARIABLE AT ASSEMBLY TIME ..

                                     TTL     PARAMETERS VARIABLE AT ASSEMBLY TIME ..                  EDBG0038
                                                                                                      EDBG0039
                                                                                                      EDBG0040
                                                                                                      EDBG0041
                       02201  T      TAPENO  B1            CTSS PANIC DUMP TAPE                       EDBG0042
                       00000  (AC)   EQU     0             PZE AC(S,1-35)     ARITHMETIC ACCUMULATOR  EDBG0043
                       00001  (MQ)   EQU     1             PZE MQ(S,1-35)     MQ (MUST FOLLOW AC)     EDBG0044
                       00002  (SI)   EQU     2             PZE SI(0,1-35)     SENSE INDICATORS        EDBG0045
                       00003  (SQP)  EQU     3             PZE AC(S,Q,P,1-33) ACCUMULATOR (S,Q,P)     EDBG0046
                       00004  (IR1)  EQU     4             PZE IR1            INDEX REGISTER 1        EDBG0047
                       00005  (IR2)  EQU     5             PZE IR2            INDEX REGISTER 2        EDBG0048
                       00006  (IR3)  EQU     6             PZE IR3            INDEX REGISTER 3        EDBG0049
                       00007  (IR4)  EQU     7             PZE IR4            INDEX REGISTER 4        EDBG0050
                       00010  (IR5)  EQU     8             PZE IR5            INDEX REGISTER 5        EDBG0051
                       00011  (IR6)  EQU     9             PZE IR6            INDEX REGISTER 6        EDBG0052
                       00012  (IR7)  EQU     10            PZE IR7            INDEX REGISTER 7        EDBG0053
                       00013  (FLGS) EQU     11            PZE INDBTS         INDICATOR BITS          EDBG0054
                       00014  (PI)   EQU     12            PZE PTIND          PROTECTION INDICATORS   EDBG0055
                       00015  (RI)   EQU     13            PZE RLIND          RELOCATION INDICATORS   EDBG0056
                       00016  (KEYS) EQU     14            PZE KEYS           CONSOLE KEYS            EDBG0057
                       00017  NBUFF  EQU     15            LENGTH OF MACHINE CONDITIONS BUFFER        EDBG0058
                      000001  MTFLG  BOOL    1             BIT 35    MULTIPLE TAG MODE                EDBG0059
                      000002  ACOVF  BOOL    2             BIT 34    ACCUMULATOR OVERFLOW             EDBG0060
                      000004  DCFLG  BOOL    4             BIT 33    DIVIDE CHECK INDICATOR           EDBG0061
                      000170  SLTS   BOOL    170           BIT 32-29 SENSE LIGHTS                     EDBG0062
                      000200  FPTMD  BOOL    200           BIT 28    FLOATING TRAP MODE               EDBG0063
                      000400  MQOVF  BOOL    400           BIT 27    MQ OVERFLOW                      EDBG0064
                      001000  IOCHK  BOOL    1000          BIT 26    I/O CHECK INDICATOR              EDBG0065
                      176000  SWTS   BOOL    176000        BIT 25-20 SENSE SWITCHES                   EDBG0066
1      M1416-4882 J. PODOLSKY   CTSS DIAGNOSTIC ROUTINES $PANIC, $CORDMP         03/04/70 1428.2 PAGE 3
                           MAIN PROGRAM FOR $PANIC, $CORDMP

                                     TTL     MAIN PROGRAM FOR $PANIC, $CORDMP                         EDBG0067
                                                                                                      EDBG0068
      00002  0020 00 4 00001  TRACE  TRA     1,4           DUMMY ENTRY FOR 'TRACE'                    EDBG0069
                                                                                                      EDBG0070
      00003  0564 00 0 00156  PANIC  ENB     =0            JUST IN CASE, DISABLE THE WORLD.           EDBG0071
      00004 -0625 00 0 00150         STL     PNCSW         SET PANIC SWITCH.                          EDBG0072
      00005  0020 00 0 00007         TRA     SAVE          AND ENTER CONSOLE SAVER.                   EDBG0073
                                                                                                      EDBG0074
      00006  0600 00 0 00150  CORDMP STZ     PNCSW         CORE DUMP, THIS IS NOT A PANIC DUMP.       EDBG0075
                                                                                                      EDBG0076
      00007 -0603 00 0 00127  SAVE   DST     BUFF+(AC)     SAVE MACHINE CONDITIONS - AC AND MQ        EDBG0077
      00010  0604 00 0 00131         STI     BUFF+(SI)     SAVE SENSE INDICATORS                      EDBG0078
      00011 -0604 00 0 00143         SPI     BUFF+(PI)     SAVE PROTECTION INDICATORS                 EDBG0079
      00012 -0601 00 0 00144         SRI     BUFF+(RI)     SAVE RELOCATION INDICATORS                 EDBG0080
      00013  0760 00 0 00004         ENK                   SAVE CONSOLE KEYS                          EDBG0081
      00014 -0600 00 0 00145         STQ     BUFF+(KEYS)   ..                                         EDBG0082
      00015  0765 00 0 00045         LRS     37            GET AC(S,Q,P) IN MQ(S,1,2)                 EDBG0083
      00016 -0600 00 0 00132         STQ     BUFF+(SQP)    SAVE AC(S,Q,P)                             EDBG0084
      00017  0634 00 1 00133         SXA     BUFF+(IR1),1  SAVE INDEX REGISTER 1                      EDBG0085
      00020  0774 00 1 00570         AXT     SLTS+MQOVF,1  INITIALIZE FLAG WORD                       EDBG0086
      00021 -0140 00 0 00023         TNO     *+2           SAVE ACCUMULATOR OVERFLOW NOW              EDBG0087
      00022  1 00002 1 00023         TXI     *+1,1,ACOVF   ..                                         EDBG0088
      00023 -0500 00 0 00000         CAL     0             SAVE FLOATING TRAP FLAG CELL               EDBG0089
      00024  0602 00 0 00146         SLW     SAVE0         ..                                         EDBG0090
      00025  0441 00 0 00010         LDI     8             SAVE FLOATING TRAP CELL                    EDBG0091
      00026 -0500 00 0 00147         CAL     FPTRP         SET FLOATING TRAP RETURN                   EDBG0092
      00027  0602 00 0 00010         SLW     8             ..                                         EDBG0093
      00030  0500 00 0 00161         CLA     =O377400000000  GENERATE FLOATING TRAP CONDITION         EDBG0094
      00031  0300 00 0 00161         FAD     =O377400000000  ..                                       EDBG0095
      00032  0604 00 0 00010  FPTRTN STI     8             RESTORE FLOATING TRAP CELL                 EDBG0096
      00033 -0500 00 0 00146         CAL     SAVE0         RESTORE FPT FLAG CELL                      EDBG0097
      00034  0602 00 0 00000         SLW     0             ..                                         EDBG0098
      00035  0754 00 1 00000         PXA     ,1            SET INDICATOR FLAG WORD                    EDBG0099
      00036  0044 00 0 00000         PAI                   ..                                         EDBG0100
      00037  0760 00 0 00012         DCT                   SAVE DIVIDE CHECK INDICATOR                EDBG0101
      00040  0055 00  000004         SIR     DCFLG         ..                                         EDBG0102
      00041 -0760 00 0 00004         LFTM                  SAVE MQ OVERFLOW INDICATOR                 EDBG0103
      00042  0161 00 0 00044         TQO     *+2           ..                                         EDBG0104
      00043  0057 00  000400         RIR     MQOVF         ..                                         EDBG0105
      00044  0760 00 0 00005         IOT                   SAVE INPUT/OUTPUT CHECK INDICATOR          EDBG0106
      00045  0055 00  001000         SIR     IOCHK         ..                                         EDBG0107
      00046 -0500 00 0 00157         CAL     =8            INITIALIZE FOR SENSE LIGHT TEST            EDBG0108
      00047  0774 00 1 00004         AXT     4,1           ..                                         EDBG0109
      00050 -0760 00 1 00145         SLT     5,1           ..                                         EDBG0110
      00051 -0042 00 0 00000         RIA                   NO, RE-SET INDICATOR BIT                   EDBG0111
      00052  0767 00 0 00001         ALS     1             SHIFT POINTER TO NEXT LIGHT                EDBG0112
      00053  2 00001 1 00050         TIX     *-3,1,1       WHEN FINISHED WITH LIGHTS,                 EDBG0113
      00054  0774 00 1 00006         AXT     6,1           DO SAME WITH SWITCHES                      EDBG0114
      00055 -0500 00 0 00160         CAL     =1024         ..                                         EDBG0115
      00056  0760 00 1 00167         SWT     7,1           ..                                         EDBG0116
      00057  0020 00 0 00061         TRA     *+2           ..                                         EDBG0117
      00060  0043 00 0 00000         OAI                   ..                                         EDBG0118
      00061  0767 00 0 00001         ALS     1             ..                                         EDBG0119
      00062  2 00001 1 00056         TIX     *-4,1,1       ..                                         EDBG0120
      00063  0634 00 2 00134         SXA     BUFF+(IR2),2  SAVE INDEX REGISTERS 2 AND 3               EDBG0121
1      M1416-4882 J. PODOLSKY   CTSS DIAGNOSTIC ROUTINES $PANIC, $CORDMP         03/04/70 1428.2 PAGE 4
                           MAIN PROGRAM FOR $PANIC, $CORDMP

      00064  0634 00 3 00135         SXA     BUFF+(IR3),3  ..                                         EDBG0122
      00065  0774 00 1 00000         AXT     0,1           TEST FOR MULTIPLE TAG MODE                 EDBG0123
      00066  0774 00 3 00001         AXT     1,3           ..                                         EDBG0124
      00067 -3 00000 1 00073         TXL     *+4,1,0       WAS INDEX REGISTER 1 LOADED.               EDBG0125
      00070  0055 00  000001         SIR     MTFLG         YES, SET MULTIPLE TAG INDICATOR            EDBG0126
      00071  0760 00 0 00016         LMTM                  GO TO 7-TAG MODE                           EDBG0127
      00072  0634 00 3 00135         SXA     BUFF+(IR3),3  AND SAVE THE REAL INDEX REG. 3             EDBG0128
      00073  0634 00 4 00136         SXA     BUFF+(IR4),4  SAVE OTHER INDEX REGISTERS                 EDBG0129
      00074  0634 00 5 00137         SXA     BUFF+(IR5),5  ..                                         EDBG0130
      00075  0634 00 6 00140         SXA     BUFF+(IR6),6  ..                                         EDBG0131
      00076  0634 00 7 00141         SXA     BUFF+(IR7),7  ..                                         EDBG0132
      00077  0604 00 0 00142         STI     BUFF+(FLGS)   SAVE COMPOSITE FLAG WORD                   EDBG0133
      00100 -0500 60 4 00001         CAL*    1,4           PICK UP IR4 IF NOT PANIC DUMP              EDBG0134
      00101 -0520 00 0 00150         NZT     PNCSW         ..                                         EDBG0135
      00102  0621 00 0 00136         STA     BUFF+(IR4)    TRUE VALUE AT TRAP TIME                    EDBG0136
      00103  0760 00 0 02352         RDCT                  RESET I/O ON CHANNEL 'T'                   EDBG0137
      00104  0772 00 0 02201         REWT                  REWIND CTSS DUMP TAPE                      EDBG0138
      00105  0774 00 1 00005         AXT     5,1           COUNT 5 FILES FOR DUMP TAPE                EDBG0139
      00106  0774 00 2 00002  DUMP1  AXT     2,2           RE-ENTRY FOR NEW FILE, 2 GOOD RECORDS      EDBG0140
      00107  0766 00 0 02221  DUMP2  WTBT                  WRITE-SELECT DUMP TAPE                     EDBG0141
      00110 -0540 00 1 00156         RCHT    IOLST+5,1     LOAD I/O COMMAND FOR THIS FILE             EDBG0142
      00111  0061 00 0 00111         TCOT    *             AND WAIT FOR WRITE COMPLETION              EDBG0143
      00112 -0022 00 0 00107         TRCT    DUMP2         WAS THERE A REDUNDANCY WRITING.            EDBG0144
      00113  2 00001 2 00107         TIX     DUMP2,2,1     NO, IS THIS THE SECOND GOOD RECORD.        EDBG0145
      00114  0770 00 0 02201         WEFT                  YES, CLOSE OUT THIS FILE                   EDBG0146
      00115  2 00001 1 00106         TIX     DUMP1,1,1     WAS THIS THE 5'TH FILE.                    EDBG0147
      00116  0772 00 0 02201         REWT                  YES, REWIND THE COMPLETED DUMP.            EDBG0148
      00117  0061 00 0 00117         TCOT    *             WAIT FOR I/O ACTIVITY ON CHANNEL 'T'       EDBG0149
      00120  0520 00 0 00150         ZET     PNCSW         WAS THIS A PANIC DUMP.                     EDBG0150
      00121  0000 60 0 00000         HTR*    $COLD         YES, WAIT FOR 'OK' TO COLD START           EDBG0151
      00122  0441 00 0 00142         LDI     BUFF+(FLGS)   NO, PICK UP INDICATOR BITS                 EDBG0152
      00123  0054 00  001000         RFT     IOCHK         WAS I/O CHECK ON ORIGINALLY.               EDBG0153
      00124 -0540 00 0 00156         RCHT    =0            YES, SET I/O CHECK INDICATOR               EDBG0154
      00125  0522 60 0 00001         XEC*    $STZ.SW       ALLOW A SECOND 'ALLRST' FROM CLOCK MODULE  EDBG0155
      00126  0000 00 4 00001         HTR     1,4           AND RETURN WHEN START IS PRESSED.          EDBG0156
                                                                                                      EDBG0157
                                                                                                      EDBG0158
      00127                   BUFF   BSS     NBUFF         MACHINE CONDITIONS BUFFER                  EDBG0159
      00146                   SAVE0  BSS     1             STORAGE FOR CORE 'A', LOC. 0               EDBG0160
      00147  1 00200 1 00032  FPTRP  TXI     FPTRTN,1,FPTMD  FLOATING TRAP RETURN TRANSFER            EDBG0161
      00150  0 00000 0 00000  PNCSW  PZE     0             THIS IS NON-ZERO IF PANIC DUMP.            EDBG0162
      00151  3 00017 0 00127  IOLST  IORT    BUFF,,NBUFF   I/O COMMANDS - MACHINE CONDITIONS FIRST.   EDBG0163
      00152  3 40000 0 00000         IORT    00000,0,16384 FIRST HALF OF CORE 'A'                     EDBG0164
      00153  3 40000 0 40000         IORT    16384,0,16384 SECOND HALF OF CORE 'A'                    EDBG0165
      00154  3 40000 1 00000         IORT    00000,1,16384 FIRST HALF OF CORE 'B'                     EDBG0166
      00155  3 40000 1 40000         IORT    16384,1,16384 SECOND HALF OF CORE 'B'                    EDBG0167
                                                                                                      EDBG0168
                                     END                                                              EDBG0169

        LITERALS
      00156  000000000000
      00157  000000000010
      00160  000000002000
      00161  377400000000
1      M1416-4882 J. PODOLSKY   CTSS DIAGNOSTIC ROUTINES $PANIC, $CORDMP         03/04/70 1428.2 PAGE 1
                        POST PROCESSOR ASSEMBLY DATA

        162 IS THE FIRST LOCATION NOT USED BY THIS PROGRAM

0REFERENCES TO DEFINED SYMBOLS
       2201      T     2,  103,  104,  107,  110,  111,  112,  114,  116,  117,  124
        127   BUFF     7,   10,   11,   12,   14,   16,   17,   63,   64,   72,   73,   74,   75,   76,   77,  102,  122
                     151
          0   COLD   121
          7   SAVE     5
        170   SLTS     2,   20
     176000   SWTS     2
          0   (AC)     2,    7
          1   (MQ)     2
         14   (PI)     2,   11
         15   (RI)     2,   12
          2   (SI)     2,   10
          2  ACOVF     2,   22
          2  BEGIN     2
          4  DCFLG     2,   40
        106  DUMP1   115
        107  DUMP2   112,  113
        200  FPTMD     2,  147
        147  FPTRP    26
       1000  IOCHK     2,   45,  123
        151  IOLST   110
        400  MQOVF     2,   20,   43
          1  MTFLG     2,   70
         17  NBUFF     2,  127,  151
          3  PANIC     0
        150  PNCSW     4,    6,  101,  120
        146  SAVE0    24,   33
          2  TRACE     0
          4  (IR1)     2,   17
          5  (IR2)     2,   63
          6  (IR3)     2,   64,   72
          7  (IR4)     2,   73,  102
         10  (IR5)     2,   74
         11  (IR6)     2,   75
         12  (IR7)     2,   76
          3  (SQP)     2,   16
          6 CORDMP     0
         32 FPTRTN   147
          1 STZ.SW   125
         13 (FLGS)     2,   77,  122
         16 (KEYS)     2,   14

0 NO ERROR IN ABOVE ASSEMBLY.


CHNE8A   BCD 03/04/70 1439.3    5292         00000
1       M1416 786 R. DALEY ....... 7909 CHANNEL PROGRAMS FOR 7750 .........      03/04/70 1428.5 PAGE 1

                                                                                                      CHNE0003
                       00005         ENTRY   CHANLI        TO INITIALIZE 7750 AND CHANNEL             CHNE0004
                       00022         ENTRY   WR7750        TO TRANSMIT DATA TO THE 7750               CHNE0005
                       00031         ENTRY   STOPE         TO SHUT DOWN CHANNEL E FOR HIGH SPEED DRUM CHNE0006
                       00036         ENTRY   STARTE        TO RESTART CHANNEL E AFTER STOPE           CHNE0007
                       00043         ENTRY   ETRAP         FROM DATA CHANNEL TRAP (CHAN.E)            CHNE0008
                                                                                                      CHNE0009
                                     EXTERN  CMEXIT,RDTELY,EPRINT,ALLSAV,ALLRST                       CHNE0010
                                                                                                      CHNE0012

        TRANSFER VECTOR
      00000  234425673163     CMEXIT
      00001  512463254370     RDTELY
      00002  254751314563     EPRINT
      00003  214343622165     ALLSAV
      00004  214343516263     ALLRST

                       11610  10MS   EQU     5000          NO. OF CYCLES FOR 10 MILLESECONDS          CHNE0013
                       00062  TBUFL  EQU     50            7750 INPUT BUFFER LENGTH                   CHNE0014
                      000022  CHNTRP BOOL    22            DATA CHANNEL TRAP LOCATIONS FOR CHANNEL E  CHNE0015
                       00022  DCTILC SYN     CHNTRP        ..                                         CHNE0016
                      000052  CHNINT BOOL    52            CHANNEL INTERRUPT LOCATIONS FOR CHANNEL E  CHNE0017
                       00053  INTLOC SYN     CHNINT+1      ..                                         CHNE0018
                                                                                                      CHNE0019
                              TSTERR MACRO   ERRFLG,N,COMMNT,LOC                                      CHNE0020
                                     TSX     TSTERR,4      CALL ERROR CHECK ROUTINE                   CHNE0021
                                             ERRFLG        .. ERROR FLAG                              CHNE0022
                                     PTW     LOC,,N        .. ERROR COMMENT                           CHNE0023
                                     RMT                                                              CHNE0024
                                     IFF     ERRFLG,0,1                                               CHNE0025
                              ERRFLG PZE     **                                                       CHNE0026
                                     IFF     LOC,0,1                                                  CHNE0027
                              LOC    BCI     N,COMMNT                                                 CHNE0028
                                     RMT                                                              CHNE0029
                              TSTERR END                                                              CHNE0030
                                                                                                      CHNE0031
                              SETSW  MACRO   A                                                        CHNE0032
                                     LAR     =O77                                                     CHNE0033
                                     SAR     A                                                        CHNE0034
                                     SAR     TRAP                                                     CHNE0035
                              SETSW  END                                                              CHNE0036
                                                                                                      CHNE0037
1       M1416 786 R. DALEY ....... 7909 CHANNEL PROGRAMS FOR 7750 .........      03/04/70 1428.5 PAGE 2

                                                                                                      CHNE0039
                                             CHANLI ..... INITIALIZE 7750 AND ITS CHANNEL 'E' ........CHNE0040
                                                                                                      CHNE0041
      00005  0760 00 0 05350  CHANLI RICE                  RESET THE CHANNEL                          CHNE0042
      00006  0774 00 5 00012         AXT     10,5          DELAY FOR 100 MILLESECONDS                 CHNE0043
      00007  0774 00 6 11610         AXT     10MS,6        ..                                         CHNE0044
      00010  2 00001 6 00010         TIX     *,6,1         ..                                         CHNE0045
      00011  2 00001 5 00007         TIX     *-2,5,1       ..                                         CHNE0046
      00012 -0500 00 0 00200         CAL     TCHCOM        SET UP CHANNEL INTERRUPT LOCATIONS         CHNE0047
      00013  0602 00 0 00053         SLW     INTLOC        ..                                         CHNE0048
      00014  0600 00 0 00052         STZ     CHNINT        ..                                         CHNE0049
      00015 -0500 00 0 00230         CAL     TURNON        SET UP COMMAND TO TURN ON 7750             CHNE0050
      00016  0602 00 0 00151         SLW     WT7750        ..                                         CHNE0051
      00017  0542 00 0 00145         RSCE    WRTEL.        TURN 7750 ON LINE                          CHNE0052
      00020 -0625 00 0 00233         STL     RUNING        INDICATE 7750 RUNNING                      CHNE0053
      00021  0020 00 4 00001         TRA     1,4           AND RETURN                                 CHNE0054
                                                                                                      CHNE0055
                              *  *  *  *  *  *  *  *  *  *  *  *  *  *  *  *  *  *  *  *  *  *  *  *  CHNE0056
                                                                                                      CHNE0057
                                             WR7750 ..... TRANSMIT A BUFFER TO 7750 .......           CHNE0058
                                                                                                      CHNE0059
      00022  0064 00 0 00022  WR7750 TCOE    *             WAIT ON ANY PREVIOUS OUTPUT                CHNE0060
      00023 -0520 00 0 00233         NZT     RUNING        MAKE SURE E IS RUNNING                     CHNE0061
      00024  0000 00 0 00025         HTR     *+1           SPACE FOR STOP                             CHNE0062
      00025  0441 00 4 00001         LDI     1,4           CPYD FIRST,,N  FROM CALLING SEQUENCE       CHNE0063
      00026  0604 00 0 00151         STI     WT7750        .. INTO CHANNEL OUTPUT PROGRAM             CHNE0064
      00027  0542 00 0 00145         RSCE    WRTEL.        START UP 7909 OUTPUT PROGRAM               CHNE0065
      00030  0020 00 4 00002         TRA     2,4           AND RETURN                                 CHNE0066
                                                                                                      CHNE0067
                              *  *  *  *  *  *  *  *  *  *  *  *  *  *  *  *  *  *  *  *  *  *  *  *  CHNE0068
                                                                                                      CHNE0069
                                             STOPE/STARTE ..... STOP AND START ROUTINES FOR CHANNEL E CHNE0070
                                                                                                      CHNE0071
      00031 -0520 00 0 00233  STOPE  NZT     RUNING        STOP CHANNEL E                             CHNE0072
      00032  0000 00 0 00033         HTR     *+1           SPACE FOR STOP IF ALREADY STOPED           CHNE0073
      00033  0600 00 0 00233         STZ     RUNING        INDICATE STOPED                            CHNE0074
      00034  0542 00 0 00157         RSCE    ESTOP         AND STOP IT                                CHNE0075
      00035  0020 00 4 00001         TRA     1,4           .. FOR HIGH SPEED DRUM                     CHNE0076
                                                                                                      CHNE0077
      00036  0520 00 0 00233  STARTE ZET     RUNING        RESTART CHANNEL E                          CHNE0078
      00037  0000 00 0 00040         HTR     *+1           SPACE FOR STOP IF ALREADY RUNNING          CHNE0079
      00040 -0625 00 0 00233         STL     RUNING        INDICATE RUNNING                           CHNE0080
      00041  0546 00 0 00000         STCE                  AND START IT                               CHNE0081
      00042  0020 00 4 00001         TRA     1,4           .. AFTER STOPE                             CHNE0082
                                                                                                      CHNE0083
1       M1416 786 R. DALEY ....... 7909 CHANNEL PROGRAMS FOR 7750 .........      03/04/70 1428.5 PAGE 3

                                                                                                      CHNE0085
                                             ETRAP ....... HERE FROM DATA CHANNEL TRAP CHANNEL E      CHNE0086
                                                                                                      CHNE0087
      00043  0564 00 0 00364  ETRAP  ENB     =0            INSURE NO TRAPS                            CHNE0088
      00044  0634 00 4 00107         SXA     DCTIR4,4      SAVE BASIC MACHINE CONDITIONS              CHNE0089
      00045  0074 00 4 00003         TSX     ALLSAV,4      ..                                         CHNE0090
      00046  0600 00 0 00234         STZ     TRAP                                                     CHNE0091
      00047 -0520 00 0 00232         NZT     SW7750        IF INPUT CALL CODE CONVERTER               CHNE0092
      00050  0020 00 0 00054         TRA     DCT1                                                     CHNE0093
      00051  0074 00 4 00001         TSX     RDTELY,4      AND GO TO THE 7750 ADAPTER TO PROCESS      CHNE0094
      00052  0 00062 0 00236                 TELBUF,,TBUFL ..                                         CHNE0095
      00053  0600 00 0 00232         STZ     SW7750        RESET SWITCH                               CHNE0096
      00054 -0520 00 0 00350  DCT1   NZT     IOCHEK        WAS THERE AN I/O CHECK ERROR               CHNE0097
      00055  0020 00 0 00060         TRA     CHKERR        NO, SKIP                                   CHNE0098
      00056  0760 00 0 00005         IOT                   YES, TURN OFF I/O CHECK LIGHT              CHNE0099
      00057  0761 00 0 00000         NOP                   .. WE DON'T TRUST THE HARDWARE             CHNE0100
                                                                                                      CHNE0101
      00060                   CHKERR TSTERR  RDCHK,5,(ERROR READING ON CHANNEL E.)                    CHNE0102
      00063                          TSTERR  WRCHK,5,(ERROR WRITING ON CHANNEL E.)                    CHNE0103
      00066                          TSTERR  UNUEND,5,(UNUSUAL END ON CHANNEL E.)                     CHNE0104
      00071                          TSTERR  SEQCHK,5,(SEQUENCE CHECK ON CHANNEL E.)                  CHNE0105
      00074                          TSTERR  IOCHEK,4,(I/O CHECK ON CHANNEL E.)                       CHNE0106
      00077                          TSTERR  ADAPTC,5,(ADAPTER CHECK ON CHANNEL E.)                   CHNE0107
                              $      TSTERR  FALSE,5,(FALSE START ON CHANNEL E.)                      CHNE0108
                                     RMT                                                              CHNE0109
                              FALSE  PZE                                                              CHNE0110
                                     RMT                                                              CHNE0111
                                                                                                      CHNE0112
      00102 -0500 00 0 00365         CAL     =O77          SET FLAG TO 7909 THAT TRAP TOOK            CHNE0113
      00103  0602 00 0 00235         SLW     TRAPTK                                                   CHNE0114
      00104  0546 00 0 00000         STCE                                                             CHNE0115
      00105  0074 00 4 00004         TSX     ALLRST,4      RESTORE INTERRUPTED PROGRAM'S MACHINE COND.CHNE0116
      00106  0074 00 4 00000         TSX     CMEXIT,4      AND RETURN VIA COMMON EXIT ROUTINE         CHNE0117
      00107  0774 00 4 00000  DCTIR4 AXT     **,4          ..                                         CHNE0118
      00110  0 00000 0 00022                 DCTILC        ..                                         CHNE0119
                                                                                                      CHNE0120
      00111 -0520 60 4 00001  TSTERR NZT*    1,4           ROUTINE TO CHECK FOR AND PRINT ERROR       CHNE0121
      00112  0020 00 4 00003         TRA     3,4           SKIP IF ERROR SWITCH NOT SET               CHNE0122
      00113  0600 60 4 00001         STZ*    1,4           OTHERWISE RESET ERROR SWITCH               CHNE0123
      00114  0634 00 4 00121         SXA     TSTERX,4                                                 CHNE0124
      00115 -0500 00 4 00002         CAL     2,4           PICK UP POINTER TO ERROR COMMENT           CHNE0125
      00116  0602 00 0 00120         SLW     *+2           .. INTO CALLING SEQUENCE                   CHNE0126
      00117  0074 00 4 00002         TSX     EPRINT,4      PRINT ERROR COMMENT ON LINE                CHNE0127
      00120  0 00000 0 00000                 **,,**        ..                                         CHNE0128
      00121  0774 00 4 00000  TSTERX AXT     **,4          AND RETURN                                 CHNE0129
      00122  0020 00 4 00003         TRA     3,4           ..                                         CHNE0130
                                                                                                      CHNE0131
1       M1416 786 R. DALEY ....... 7909 CHANNEL PROGRAMS FOR 7750 .........      03/04/70 1428.5 PAGE 4

                                                                                                      CHNE0133
                                             7909 CHANNEL ROUTINE FOR READING AND WRITING THE 7750    CHNE0134
                                                                                                      CHNE0135
      00123 -30 0000 0 00006  CHECK  SMS     6             HERE FROM INTERRUPT, INHIBIT ATTENTIONS    CHNE0136
      00124 -10 0104 2 00126         TCM     RD7750,,.104  SKIP TO READ 7750 ON ATTENTION 1           CHNE0137
      00125  1 00000 0 00203         TCH     CKER10        OTHERWISE CHECK FOR ERROR                  CHNE0138
                                                                                                      CHNE0139
      00126  1 00000 2 00127  RD7750 LIPT    *+1           HERE TO READ FROM 7750                     CHNE0140
      00127  0 00001 2 00053         XMT     INTLOC,,1     SET UP ERROR PROCEDURE                     CHNE0141
      00130  1 00000 0 00141         TCH     ER7750        ..                                         CHNE0142
      00131 -24 0000 6 00232         LCC*    SW7750        IF SW IS STILL ON, DON'T READ              CHNE0143
      00132 -24 0000 0 00171         TDC     FLSST         BUT TRAP AGAIN                             CHNE0144
      00133  22 0000 2 00000         CTLRN   0             READ FROM 7750                             CHNE0145
      00134 -1 00062 0 00236         CPYD    TELBUF,,TBUFL ..                                         CHNE0146
      00135                          SETSW   SW7750        SET UP SWITCH FOR NORMAL READ FOR CPU      CHNE0147
      00140  1 00000 0 00166         TCH     RSTRAP        AND GO TO TRAP CPU                         CHNE0148
                                                                                                      CHNE0149
      00141                   ER7750 SETSW   RDCHK         HERE FOR ERROR READING 7750                CHNE0150
      00144  1 00000 0 00204         TCH     ERCHEK        GO TO CHECK FOR CHANNEL ERROR              CHNE0151
                                                                                                      CHNE0152
      00145 -30 0000 0 00006  WRTEL. SMS     6             ROUTINE TO WRITE 7750                      CHNE0153
      00146  0 00001 2 00053         XMT     INTLOC,,1     SET UP WRITE 7750 ERROR PROCEDURE          CHNE0154
      00147  1 00000 0 00153         TCH     EW7750        ..                                         CHNE0155
      00150  26 0000 0 00000         CTLWN   0             WRITE DATA BLOCK ON 7750                   CHNE0156
      00151 -1 00000 0 00000  WT7750 CPYD    **,,**        ..                                         CHNE0157
      00152  1 00000 0 00161         TCH     CKTRAP        AND GO TRAP  WHEN FINISHED                 CHNE0158
                                                                                                      CHNE0159
      00153                   EW7750 SETSW   WRCHK         HERE FOR ERROR WRITING 7750, TEST COUNT    CHNE0160
      00156  1 00000 0 00204         TCH     ERCHEK        GO TO CHECK FOR CHANNEL ERROR              CHNE0161
                                                                                                      CHNE0162
      00157 -30 0000 0 00006  ESTOP  SMS     6             HERE TO STOP CHANNEL, INHIBIT ATTENTIONS   CHNE0163
      00160  0 00000 0 00161         WTR     CKTRAP        AND WAIT FOR RESTART                       CHNE0164
                                                                                                      CHNE0165
      00161 -24 0000 6 00234  CKTRAP LCC*    TRAP          CHECK IF 7094 NEEDS TRAPED                 CHNE0166
      00162 -24 0000 0 00166         TDC     RSTRAP        YES                                        CHNE0167
      00163 -24 0000 6 00232         LCC*    SW7750        OR IF IN BUFFER FULL                       CHNE0168
      00164 -24 0000 0 00166         TDC     RSTRAP                                                   CHNE0169
      00165  1 00000 0 00177         TCH     WAIT          NO, JUST WAIT                              CHNE0170
                                                                                                      CHNE0171
      00166  34 0000 0 00167  RSTRAP TWT     *+1                                                      CHNE0172
      00167 -24 0000 6 00235         LCC*    TRAPTK        TEST TRAP TOOK SWITCH                      CHNE0173
      00170 -24 0000 0 00175         TDC     TOK                                                      CHNE0174
      00171                   FLSST  SETSW   FALSE         SET FLAG INDICATING A FALSE START CHANNEL  CHNE0175
      00174  1 00000 0 00166         TCH     RSTRAP                                                   CHNE0176
      00175  0 00001 2 00235  TOK    XMT     TRAPTK,,1     RESET TRAP TOOK SWITCH                     CHNE0177
      00176  0 00000 0 00000         PZE     0                                                        CHNE0178
      00177  0 00001 2 00053  WAIT   XMT     INTLOC,,1     HERE TO RESET CHANNEL INTERRUPT PROCEDURE  CHNE0179
      00200  1 00000 0 00123  TCHCOM TCH     CHECK         .. TO TCH CHECK                            CHNE0180
      00201 -30 0000 0 00000         SMS     0             HERE AFTER TRAP, ALLOW ALL INTERRUPTS      CHNE0181
      00202  0 00000 0 00202         WTR     *             AND WAIT                                   CHNE0182
                                                                                                      CHNE0183
      00203 -10 0110 2 00210  CKER10 TCM     ERR.10,,.110  CHECK FOR UNUSUAL END                      CHNE0184
      00204 -10 0120 2 00214  ERCHEK TCM     ERR.20,,.120  .. SEQUENCE CHECK                          CHNE0185
      00205 -10 0140 2 00220  CKER40 TCM     ERR.40,,.140  .. I/O CHECK                               CHNE0186
      00206 -10 0101 2 00224  CKER01 TCM     ERR.01,,.101  .. ADAPTER CHECK                           CHNE0187
      00207  1 00000 2 00161         LIPT    CKTRAP        AFTER CHECKING GO TO TRAP CPU              CHNE0188
1       M1416 786 R. DALEY ....... 7909 CHANNEL PROGRAMS FOR 7750 .........      03/04/70 1428.5 PAGE 5

                                                                                                      CHNE0189
      00210                   ERR.10 SETSW   UNUEND        HERE FOR UNUSUAL END FOUND OUT OF PLACE    CHNE0190
                                                           .. SET ERROR SWITCH FOR CPU                CHNE0191
      00213  1 00000 0 00204         TCH     ERCHEK        AND GO CHECK FOR OTHER ERRORS              CHNE0192
      00214                   ERR.20 SETSW   SEQCHK        HERE FOR SEQUENCE CHECK                    CHNE0193
                                                           .. SET ERROR SWITCH FOR CPU                CHNE0194
      00217  1 00000 0 00205         TCH     CKER40        AND GO CHECK FOR OTHER ERRORS              CHNE0195
      00220                   ERR.40 SETSW   IOCHEK        HERE FOR I/O CHECK                         CHNE0196
                                                           .. SET ERROR SWITCH FOR CPU                CHNE0197
      00223  1 00000 0 00206         TCH     CKER01        AND CHECK FOR OTHER ERRORS                 CHNE0198
      00224                   ERR.01 SETSW   ADAPTC        HERE FOR ADAPTER CHECK                     CHNE0199
                                                           .. SET ERROR SWITCH FOR CPU                CHNE0200
      00227  1 00000 2 00166         LIPT    RSTRAP        NOW GO TRAP CPU                            CHNE0201
                                                                                                      CHNE0202
1       M1416 786 R. DALEY ....... 7909 CHANNEL PROGRAMS FOR 7750 .........      03/04/70 1428.5 PAGE 6

                                                                                                      CHNE0204
                                             ............... CONSTANT AND VARIABLE STORAGE ...........CHNE0205
                                                                                                      CHNE0206
      00230 -1 00001 0 00231  TURNON CPYD    *+1,,1        CHANNEL COMMAND TO TURN 7750 ON LINE       CHNE0207
      00231 -377777777777            OCT     777777777777  .. COPIES NULL DATA WORD TO 7750           CHNE0208
                                                                                                      CHNE0209
                      000101  .101   BOOL    101                                                      CHNE0210
                      000104  .104   BOOL    104                                                      CHNE0211
                      000110  .110   BOOL    110                                                      CHNE0212
                      000120  .120   BOOL    120                                                      CHNE0213
                      000140  .140   BOOL    140                                                      CHNE0214
                                                                                                      CHNE0215
      00232  0 00000 0 00000  SW7750 PZE     0             NON-ZERO IF SOMETHING READ FROM 7750       CHNE0216
      00233  0 00000 0 00001  RUNING PZE     1             NONZERO IF CHANNEL RUNNING                 CHNE0217
      00234  0 00000 0 00000  TRAP                         SET BY 7909 IF CPU SHOULD BE TRAPED        CHNE0218
      00235  0 00000 0 00000  TRAPTK                       INDICATES TO 7909 THAT TRAP WAS TAKEN      CHNE0219
                                                                                                      CHNE0220
      00236                   TELBUF BSS     TBUFL         BUFFER FOR INPUT FROM 7750                 CHNE0221
                                                                                                      CHNE0222
      00320                          RMT     *                                                        CHNE0225
      00320  0 00000 0 00000  RDCHK  PZE     **                                                       CHNE0225.001
      00321  255151465160     ..001  BCI     5,ERROR READING ON CHANNEL E.                            CHNE0225.001
      00326  0 00000 0 00000  WRCHK  PZE     **                                                       CHNE0225.001
      00327  255151465160     ..002  BCI     5,ERROR WRITING ON CHANNEL E.                            CHNE0225.001
      00334  0 00000 0 00000  UNUEND PZE     **                                                       CHNE0225.001
      00335  644564626421     ..003  BCI     5,UNUSUAL END ON CHANNEL E.                              CHNE0225.001
      00342  0 00000 0 00000  SEQCHK PZE     **                                                       CHNE0225.001
      00343  622550642545     ..004  BCI     5,SEQUENCE CHECK ON CHANNEL E.                           CHNE0225.001
      00350  0 00000 0 00000  IOCHEK PZE     **                                                       CHNE0225.001
      00351  316146602330     ..005  BCI     4,I/O CHECK ON CHANNEL E.                                CHNE0225.001
      00355  0 00000 0 00000  ADAPTC PZE     **                                                       CHNE0225.001
      00356  212421476325     ..006  BCI     5,ADAPTER CHECK ON CHANNEL E.                            CHNE0225.001
      00363  0 00000 0 00000  FALSE  PZE                                                              CHNE0225.001
                                     END                                                              CHNE0227

        LITERALS
      00364  000000000000
      00365  000000000077
1       M1416 786 R. DALEY ....... 7909 CHANNEL PROGRAMS FOR 7750 .........      03/04/70 1428.5 PAGE 1
                        POST PROCESSOR ASSEMBLY DATA

        366 IS THE FIRST LOCATION NOT USED BY THIS PROGRAM

0REFERENCES TO DEFINED SYMBOLS
        175    TOK   170
      11610   10MS     5,    7
         54   DCT1    50
        101   .101   206,  232
        104   .104   124,  232
        110   .110   203,  232
        120   .120   204,  232
        140   .140   205,  232
        234   TRAP    46,  137,  143,  155,  161,  173,  212,  216,  222,  226
        177   WAIT   165
        123  CHECK   200
        157  ESTOP    34
         43  ETRAP     0
        363  FALSE   172
        171  FLSST   132
        321  ..001    62
        327  ..002    65
        335  ..003    70
        343  ..004    73
        351  ..005    76
        356  ..006   101
        320  RDCHK    61,  142
         31  STOPE     0
         62  TBUFL     5,   52,  134,  236
        326  WRCHK    64,  154
        355 ADAPTC   100,  225
          4 ALLRST   105
          3 ALLSAV    45
          5 CHANLI     0
         60 CHKERR    55
         52 CHNINT     5,   14
         22 CHNTRP     5
        206 CKER01   223
        203 CKER10   125
        205 CKER40   217
        161 CKTRAP   152,  160,  207
          0 CMEXIT   106
         22 DCTILC     5,  110
        107 DCTIR4    44
          2 EPRINT   117
        141 ER7750   130
        204 ERCHEK   144,  156,  213
        224 ERR.01   206
        210 ERR.10   203
        214 ERR.20   204
        220 ERR.40   205
        153 EW7750   147
         53 INTLOC     5,   13,  127,  146,  177
        350 IOCHEK    54,   75,  221
        126 RD7750   124
          1 RDTELY    51
1       M1416 786 R. DALEY ....... 7909 CHANNEL PROGRAMS FOR 7750 .........      03/04/70 1428.5 PAGE 2
                        POST PROCESSOR ASSEMBLY DATA

        166 RSTRAP   140,  162,  164,  174,  227
        233 RUNING    20,   23,   31,   33,   36,   40
        342 SEQCHK    72,  215
         36 STARTE     0
        232 SW7750    47,   53,  131,  136,  163
        200 TCHCOM    12
        236 TELBUF    52,  134
        235 TRAPTK   103,  167,  175
        111 TSTERR    60,   63,   66,   71,   74,   77
        121 TSTERX   114
        230 TURNON    15
        334 UNUEND    67,  211
         22 WR7750     0
        145 WRTEL.    17,   27
        151 WT7750    16,   26

0 NO ERROR IN ABOVE ASSEMBLY.


ADPI8A   BCD 03/04/70 1439.3   54927         00000
