1      M1416 3845  PETER R. BOS .... SCHEDULER QUEUE MANIPULATION ......         03/04/70 1416.5 PAGE 1

                                     PCC     ON                                                       SCDB0002
                                     NOLNK                                                            SCDB0003
                       00000         ENTRY   INITQ         ENTRY TO INITIALIZE THE QUEUES             SCDB0004
                       00012         ENTRY   HEDUSR        TO FIND USER AT HEAD OF QUEUES             SCDB0005
                       00024         ENTRY   ENDQUE        TO ADD USER TO BOTTOM OF QUEUE             SCDB0006
                       00054         ENTRY   DELQUE        TO REMOVE USER FROM THE QUEUES             SCDB0007
                                     LBL     SCDB0000                                                 SCDB0008
                                     PCC     OFF                                                      SCDB0009
                                                                                                      SCDB0010
                                     UNLIST                                                           SCDB0011

                                                                                                      SCDB0016
                                                                                                      SCDB0017
      00000 -0774 00 7 00000  INITQ  AXC     0,7           ENTRY TO INITIALIZE TABLE OF QUEUE POINTERSSCDB0018
      00001  0600 00 7 77254         STZ     QLIST,7       ZERO USER TABLE PORTION OF LIST            SCDB0019
      00002  3 77727 7 00007         TXH     *+5,7,-N-1    SKIP IF STILL IN USER PORTION              SCDB0020
      00003  0756 00 7 00000         PCA     ,7            INITIALIZE LEVEL TABLE TO                  SCDB0021
      00004  0621 00 7 77254         STA     QLIST,7       '*-QLIST,,*-QLIST'                         SCDB0022
      00005 -0756 00 7 00000         PCD     ,7            ..                                         SCDB0023
      00006  0622 00 7 77254         STD     QLIST,7       ..                                         SCDB0024
      00007  1 77777 7 00010         TXI     *+1,7,-1      BUMP TABLE INDEX FOR NEXT ENTRY            SCDB0025
      00010  3 77714 7 00001         TXH     INITQ+1,7,-N-1-MAXLV-1 LENGTH IS N+1+MAXLV+1             SCDB0026
      00011  0020 00 4 00001         TRA     1,4           INITIALIZATION COMPLETED, RETURN           SCDB0027
                                                                                                      SCDB0028
                                                                                                      SCDB0029
      00012 -0774 00 7 00051  HEDUSR AXC     N+1,7         FIND HEAD OF QUEUES USER. BEGIN AT LEVEL 0.SCDB0030
      00013 -0500 00 7 77254         CAL     QLIST,7       GET USER POINTER                           SCDB0031
      00014  0734 00 6 00000         PAX     ,6            TO INDEX FOR SIZE CHECK                    SCDB0032
      00015 -3 00050 6 00022         TXL     GOTUSR,6,N    IF POINTER IS TO USER PART OF TABLE,       SCDB0033
      00016  1 77777 7 00017         TXI     *+1,7,-1      ELSE, LEVEL IS EMPTY. GO GET NEXT.         SCDB0034
      00017  3 77714 7 00013         TXH     *-4,7,-N-1-MAXLV-1 LAST LEVEL IS MAXLV.                  SCDB0035
      00020 -0500 00 0 74443         CAL     DUSER         QUEUES EMPTY, RUN DUMMY USER               SCDB0036
      00021  0020 00 4 00001         TRA     1,4           ..                                         SCDB0037
      00022  0754 00 6 00000  GOTUSR PXA     ,6            USER INDEX TO AC                           SCDB0038
      00023  0020 00 4 00001         TRA     1,4           RETURN                                     SCDB0039
                                                                                                      SCDB0040
                                                                                                      SCDB0041
      00024  0634 00 1 00035  ENDQUE SXA     ENDX1,1       NEED MORE THAN 3 INDICES                   SCDB0042
      00025 -0500 60 4 00001         CAL*    1,4           CALL IS 'ENDQUE.(USER)'                    SCDB0043
      00026  0737 00 1 00000         PAC     ,1            USER NUMBER TO X1.                         SCDB0044
      00027  0520 00 1 77254         ZET     QLIST,1       MAKE SURE USER IS NOT ALREADY IN QUEUES    SCDB0045
      00030  0074 00 7 00063         TSX     DELQ,7        IF SO, REMOVE HIM.                         SCDB0046
      00031 -0500 00 1 77604         CAL     LEVEL,1       GET LEVEL AT WHICH TO INSERT USER          SCDB0047
      00032  0737 00 6 00000         PAC     ,6            NOW GET TABLE INDEX FOR CORRESPONDING      SCDB0048
      00033  1 77727 6 00034         TXI     *+1,6,-N-1    QUEUE ENTRY IN LIST                        SCDB0049
      00034  0074 00 7 00037         TSX     ADDQ,7        INSERT USER AT END OF QUEUE 'LEVEL(USER)'  SCDB0050
      00035  0774 00 1 00000  ENDX1  AXT     -,1           ..                                         SCDB0051
      00036  0020 00 4 00002         TRA     2,4           RETURN                                     SCDB0052
                                                                                                      SCDB0053
      00037  0534 00 5 74602  ADDQ   LXA     QLEN,5        INTERNAL ROUTINE TO ADD USER TO QUEUE.     SCDB0054
      00040  1 00001 5 00041         TXI     *+1,5,1       UPDATE INSTANTANEOUS QUEUE LENGTH          SCDB0055
      00041  0634 00 5 74602         SXA     QLEN,5        ..                                         SCDB0056
      00042 -0500 00 6 77254         CAL     QLIST,6       ..                                         SCDB0057
      00043 -0737 00 5 00000         PDC     ,5            USER TO ADD IS IN -XR1. HE IS TO BE        SCDB0058
      00044  0622 00 1 77254         STD     QLIST,1       INSERTED IN THE RING BEFORE THE ENTRY      SCDB0059
      00045 -0500 00 5 77254         CAL     QLIST,5       SPECIFIED BY -XR6.                         SCDB0060
1      M1416 3845  PETER R. BOS .... SCHEDULER QUEUE MANIPULATION ......         03/04/70 1416.5 PAGE 2

      00046  0621 00 1 77254         STA     QLIST,1       ADDRESSES CONTAIN FORWARD POINTERS,        SCDB0061
      00047  0756 00 1 00000         PCA     ,1            DECREMENTS CONTAIN BACKWARD POINTERS,      SCDB0062
      00050  0621 00 5 77254         STA     QLIST,5       AND TABLE POSITION, IF .LE. N, IS          SCDB0063
      00051 -0756 00 1 00000         PCD     ,1            USER NUMBER. IF USER IS NOT IN THE         SCDB0064
      00052  0622 00 6 77254         STD     QLIST,6       QUEUES, HIS USER ENTRY IS ALL ZERO.        SCDB0065
      00053  0020 00 7 00001         TRA     1,7           RETURN TO CALLER.                          SCDB0066
                                                                                                      SCDB0067
                                                                                                      SCDB0068
      00054  0634 00 1 00061  DELQUE SXA     DELX1,1       SAVE X1 FOR USER NUMBER                    SCDB0069
      00055 -0500 60 4 00001         CAL*    1,4           CALL IS 'DELQUE.(USER)'                    SCDB0070
      00056  0737 00 1 00000         PAC     ,1            USER NUMBER TO -X1                         SCDB0071
      00057  0520 00 1 77254         ZET     QLIST,1       SEE IF USER ALREADY OUT OF QUEUES          SCDB0072
      00060  0074 00 7 00063         TSX     DELQ,7        IF NOT, DELETE HIM                         SCDB0073
      00061  0774 00 1 00000  DELX1  AXT     -,1           ..                                         SCDB0074
      00062  0020 00 4 00002         TRA     2,4           RETURN.                                    SCDB0075
                                                                                                      SCDB0076
      00063  0534 00 5 74602  DELQ   LXA     QLEN,5        ROUTINE TO REMOVE USER QUEUE ENTRY.        SCDB0077
      00064  1 77777 5 00065         TXI     *+1,5,-1      .. UPDATE QUEUE LENGTH                     SCDB0078
      00065  0634 00 5 74602         SXA     QLEN,5        ..                                         SCDB0079
      00066 -0500 00 1 77254         CAL     QLIST,1       GET USER WORD (ELEMENTS TO CONNECT)        SCDB0080
      00067  0600 00 1 77254         STZ     QLIST,1       CLEAR IT. AC CONTAINS FWP,,BKP             SCDB0081
      00070  0737 00 6 00000         PAC     ,6            FORWARD POINTER. BACKWARD POINTER TO       SCDB0082
      00071  0622 00 6 77254         STD     QLIST,6       BE INSERTED INTO THIS CELL.                SCDB0083
      00072 -0737 00 5 00000         PDC     ,5            SIMILARLY, FORWARD POINTER TO BE INSERTED  SCDB0084
      00073  0621 00 5 77254         STA     QLIST,5       INTO PLACE POINTED AT BY BACKWARD POINTER. SCDB0085
      00074  0020 00 7 00001         TRA     1,7           RETURN.                                    SCDB0086
                                                                                                      SCDB0087
                                                                                                      SCDB0088
                                     END                                                              SCDB0089
1      M1416 3845  PETER R. BOS .... SCHEDULER QUEUE MANIPULATION ......         03/04/70 1416.5 PAGE 1
                        POST PROCESSOR ASSEMBLY DATA

       72127 IS THE LAST LOCATION NOT USED BY THIS PROGRAM
         75 IS THE FIRST LOCATION NOT USED BY THIS PROGRAM

0REFERENCES TO DEFINED SYMBOLS
         50      N     2,   10,   12,   15,   17,   33
         37   ADDQ    34
         63   DELQ    30,   60
      74602   QLEN    37,   41,   63,   65
         61  DELX1    54
      74443  DUSER    20
         35  ENDX1    24
          0  INITQ     0,   10
      77604  LEVEL    31
         12  MAXLV    10,   17
      77254  QLIST     1,    4,    6,   13,   27,   42,   44,   45,   46,   50,   52,   57,   66,   67,   71,   73
         54 DELQUE     0
         24 ENDQUE     0
         22 GOTUSR    15
         12 HEDUSR     0

0 NO ERROR IN ABOVE ASSEMBLY.


SCDC8C   BCD 02/10/71 1455.9    4281         00000
1       M1416 3845  PETER R. BOS ..... TIME ACCOUNTING ROUTINES ..........       01/31/71 1951.2 PAGE 1

                                     PCC     ON                                                       SCDC0002
                                     NOLNK                                                            SCDC0003
                       00077         ENTRY   INITIM        INTITIALIZE TIME ACCOUNTING ROUTINE        SCDC0004
                       00053         ENTRY   DELTIM        TO RETURN DELTA TIME                       SCDC0005
                       00062         ENTRY   INTIM         USER LOGGED IN                             SCDC0006
                       00076         ENTRY   OUTTIM        USER LOGGED OUT                            SCDC0007
                       00002         ENTRY   CHARGE        CHARGE USER FOR TIME                       SCDC0008
                       00166         ENTRY   DTB           TRAP-TIME CONVERSION ROUTINE (FOR RCLOCK)  SCDC0009
                                     LBL     SCDC0000                                                 SCDC0010
                                     PCC     OFF                                                      SCDC0011
                                                                                                      SCDC0012
                                     EXTERN  GETOTL,NOTIM                                             SCDC0013
                                                                                                      SCDC0014
                                     UNLIST                                                           SCDC0015

                                                                                                      SCDC0021
                                                                                                      SCDC0022
      00002                   CHARGE SAVE    CG(X1,X4)     ROUTINE TO CHARGE USER FOR TIME            SCDC0023
      00004 -0500 60 4 00001         CAL*    1,4           PICK UP USER NUMBER                        SCDC0024
      00005  0602 00 0 00224         SLW     UTEMP                                                    SCDC0025
      00006  0737 00 1 00000         PAC     ,1            ..                                         SCDC0026
      00007 -0500 60 4 00002         CAL*    2,4           AND TIME TO CHARGE (IN 60'THS)             SCDC0027
      00010  0120 00 0 00012         TPL     *+2           INSURE NON-NEGATIVE                        SCDC0028
      00011 -0754 00 0 00000         ZAC                   ..                                         SCDC0029
      00012  0602 00 0 00226         SLW     T             .. SAVE                                    SCDC0030
      00013  0074 00 4 00077         TSX     INITIM,4      UPDATE SHIFT NUMBER IF NECESSARY           SCDC0031
      00014 -0500 00 1 76622         CAL     UTIME,1       GET USER TIME USED SINCE LOGIN             SCDC0032
      00015  0400 00 0 00226         ADD     T             ADD NEW TIME USED                          SCDC0033
      00016  0602 00 1 76622         SLW     UTIME,1       PUT AWAY                                   SCDC0034
      00017  0535 00 4 74604         LAC     SHIFT,4       PICK UP SHIFT NUMBER                       SCDC0035
      00020  3 77773 4 00022         TXH     *+2,4,-5      INSURE SHIFT NUMBER WITHIN BOUNDS          SCDC0036
      00021  0000 00 0 00021         HTR     *             IF NOT, STOP FOR DUMP                      SCDC0037
      00022 -3 77776 1 00032         TXL     CHARG1,1,-2   IS THIS FIB USER                           SCDC0038
      00023  0402 00 0 74527         SUB     ESTTIM        CHECK FOR ESTIMATED TIME EXCEEDED          SCDC0039
      00024 -0120 00 0 00031         TMI     *+5           .. NO, SKIP                                SCDC0040
      00025  0520 00 1 76500         ZET     PROBN,1       INSURE USER IS LOGGED IN                   SCDC0041
      00026  0074 00 4 00001         TSX     NOTIM,4       ESTTIM EXCEEDED, LOG HIM OUT               SCDC0042
      00027  3 00000 0 00224         PAR     UTEMP         ..                                         SCDC0043
      00030  3 00000 0 74665         PAR     Q4            .. NOTIME CODE 4, FIB TIME EXCEEDED        SCDC0044
      00031 -0774 00 4 00005         AXC     5,4           FIB TIME CHARGED TO SHIFT 5                SCDC0045
      00032 -0500 60 4 00177  CHARG1 CAL*    TAU,4         GET CURRENT TAU CONTENTS                   SCDC0046
      00033  0361 00 0 00226         ACL     T             ADD IN NEW USAGE                           SCDC0047
      00034  0602 60 4 00177         SLW*    TAU,4         PUT BACK                                   SCDC0048
      00035 -0520 00 1 76500         NZT     PROBN,1       IS USER LOGGED IN                          SCDC0049
      00036  0020 00 0 00050         TRA     CHGRTN        .. NO, IGNORE ALLOTMENT                    SCDC0050
      00037  0044 00 0 00000         PAI                   ..                                         SCDC0051
      00040  0445 00 0 00253         RIS     =O777760000000  MASK OUT ALLOTTED TIME                   SCDC0052
      00041  0604 00 0 00223         STI     TMP           .. SAVE                                    SCDC0053
      00042  0771 00 0 00016         ARS     14            GET ALLOTTED TIME                          SCDC0054
      00043  0402 00 0 00223         SUB     TMP           AND CHECK FOR LIMIT EXCEEDED               SCDC0055
      00044  0120 00 0 00050         TPL     CHGRTN        ..                                         SCDC0056
      00045  0074 00 4 00001         TSX     NOTIM,4       USER OUT OF TIME, SET UP FOR ENDLOG        SCDC0057
      00046  3 00000 0 00224         PAR     UTEMP         ..                                         SCDC0058
      00047  3 00000 0 74667         PAR     Q2            .. NOTIME CODE 2, ALLOTTED TIME EXCEEDED   SCDC0059
      00050                   CHGRTN RETURN  (3,4),CG(X1,X4)  RETURN                                  SCDC0060
                                                                                                      SCDC0061
1       M1416 3845  PETER R. BOS ..... TIME ACCOUNTING ROUTINES ..........       01/31/71 1951.2 PAGE 2

                                                                                                      SCDC0062
      00053  0634 00 4 00055  DELTIM SXA     DX4,4         ENTRY TO RETURN DELTA T                    SCDC0063
      00054  0074 00 4 00000         TSX     GETOTL,4      FIND TOTAL TIME TSS HAS BEEN RUNNING       SCDC0064
      00055  0774 00 4 00000  DX4    AXT     -,4           RESTORE XR4                                SCDC0065
      00056  0044 00 0 00000         PAI                   SAVE NEW TIME                              SCDC0066
      00057  0402 60 4 00001         SUB*    1,4           COMPUTE DIFFERENCE                         SCDC0067
      00060  0604 60 4 00001         STI*    1,4           UPDATE NEW VALUE                           SCDC0068
      00061  0020 00 4 00002         TRA     2,4           RETURN RESULT IN AC                        SCDC0069
                                                                                                      SCDC0070
                                                                                                      SCDC0071
      00062  0634 00 4 00074  INTIM  SXA     INX4,4        USER LOGGED IN, CHECK TIME ALLOTTED        SCDC0072
      00063 -0500 60 4 00001         CAL*    1,4           PICK UP USER NO.                           SCDC0073
      00064  0602 00 0 00225         SLW     USR           ..                                         SCDC0074
      00065  0737 00 4 00000         PAC     ,4            ..                                         SCDC0075
      00066                          STZBIT  ,4,,NOTIME+NTIMCD RESET USER NOTIME FLAG                 SCDC0076
      00071                          CALL    CHARGE(USR,Q0)  CHECK FOR TIME EXCEEDED                  SCDC0077
      00074  0774 00 4 00000  INX4   AXT     -,4           RESTORE XR4                                SCDC0078
      00075  0020 00 4 00002         TRA     2,4           RETURN                                     SCDC0079
                                                                                                      SCDC0080
                                                                                                      SCDC0081
      00076  0020 00 4 00002  OUTTIM TRA     2,4           USER LOGGED OUT, IGNORE                    SCDC0082
                                                                                                      SCDC0083
                                                                                                      SCDC0084
      00077 -0500 00 0 74500  INITIM CAL     DATEYR        ROUTINE TO SET DAY OF WEEK AND SHIFT NUMBERSCDC0085
      00100 -0340 00 0 00230         LAS     OLDDAT        HAS DAY CHANGED SINCE LAST CALL            SCDC0086
      00101  0020 00 0 00103         TRA     *+2           ..                                         SCDC0087
      00102  0020 00 0 00140         TRA     SHIFT.        .. NO, GO SET SHIFT NUMBER                 SCDC0088
      00103  0602 00 0 00230         SLW     OLDDAT        .. YES, SAVE NEW DATE                      SCDC0089
      00104 -0130 00 0 00000         XCL                   ..                                         SCDC0090
      00105  0074 00 7 00166         TSX     DTB,7         GET MONTH IN BINARY                        SCDC0091
      00106  0737 00 6 00000         PAC     ,6            ..                                         SCDC0092
      00107 -0500 00 6 00233         CAL     DAYS,6        PICK UP NUMBER OF DAYS THIS YEAR           SCDC0093
      00110  0602 00 0 00233         SLW     DAYS          .. SAVE                                    SCDC0094
      00111  0074 00 7 00166         TSX     DTB,7         CONVERT DAYS THIS MONTH TO BINARY          SCDC0095
      00112  0400 00 0 00233         ADD     DAYS          ..                                         SCDC0096
      00113  0602 00 0 00233         SLW     DAYS          ..                                         SCDC0097
      00114  0074 00 7 00166         TSX     DTB,7         CONVERT YEAR TO BINARY                     SCDC0098
      00115  0044 00 0 00000         PAI                   .. SAVE                                    SCDC0099
      00116  0402 00 0 00232         SUB     YEAR.1        REFERENCE DATE IS JAN. 6, 1964             SCDC0100
      00117  0602 00 0 00223         SLW     TMP           ..                                         SCDC0101
      00120  0400 00 0 74666         ADD     Q3            COMPUTE NO. OF LEAP YEARS                  SCDC0102
      00121  0771 00 0 00002         ARS     2             DIVIDE BY 4 TO GET LEAP YEARS              SCDC0103
      00122  0400 00 0 00233         ADD     DAYS          ..                                         SCDC0104
      00123  0602 00 0 00233         SLW     DAYS          ..                                         SCDC0105
      00124  0560 00 0 00223         LDQ     TMP           RETRIEVE YEARS SINCE 1964                  SCDC0106
      00125  0200 00 0 00251         MPY     =365          CONVERT TO DAYS                            SCDC0107
      00126 -0130 00 0 00000         XCL                   ..                                         SCDC0108
      00127  0400 00 0 00233         ADD     DAYS          ..                                         SCDC0109
      00130  0402 00 0 74664         SUB     Q5            SUBTRACT FOR JAN 6, LEAVE DAY FOR LEAP YEARSCDC0110
      00131  3 77775 6 00133         TXH     *+2,6,-3      SKIP IF JAN. OR FEB.                       SCDC0111
      00132  0054 00  000003         RFT     3             IS THIS LEAP YEAR                          SCDC0112
      00133  0402 00 0 74670         SUB     Q1            .. NO, REMOVE DAY ADDED                    SCDC0113
      00134 -0130 00 0 00000         XCL                   ..                                         SCDC0114
      00135 -0754 00 0 00000         ZAC                   ..                                         SCDC0115
      00136  0221 00 0 74662         DVP     Q7            COMPUTE DAY OF WEEK, MONDAY = 0            SCDC0116
      00137  0602 00 0 00231         SLW     MTWTFS        .. SAVE                                    SCDC0117
1       M1416 3845  PETER R. BOS ..... TIME ACCOUNTING ROUTINES ..........       01/31/71 1951.2 PAGE 3

                                                                                                      SCDC0118
      00140  0560 00 0 74476  SHIFT. LDQ     TIMNOW        HERE TO SET UP SHIFT NUMBER                SCDC0119
      00141 -0754 00 0 00000         ZAC                   ..                                         SCDC0120
      00142  0221 00 0 00252         DVP     =V36/60*60*60 GET CURRENT HOUR                           SCDC0121
      00143 -0600 00 0 00227         STQ     HOUR          ..                                         SCDC0122
      00144  0560 00 0 00231         LDQ     MTWTFS        GET DAY OF WEEK BACK                       SCDC0123
      00145  0200 00 0 00250         MPY     =24           CONVERT TO HOURS                           SCDC0124
      00146 -0130 00 0 00000         XCL                   ..                                         SCDC0125
      00147  0400 00 0 00227         ADD     HOUR          FIND HOUR OF WEEK FROM 0000.0 MONDAY       SCDC0126
      00150 -0130 00 0 00000         XCL                   ..                                         SCDC0127
      00151 -0754 00 0 00000         ZAC                   ..                                         SCDC0128
      00152  0221 00 0 74655         DVP     Q12           COMPUTE TABLE INDEX AND SHIFT COUNT        SCDC0129
      00153  0601 00 0 00223         STO     TMP           .. MULTIPLY BY 3 FOR SHIFT COUNT           SCDC0130
      00154  0767 00 0 00001         ALS     1             ..                                         SCDC0131
      00155  0400 00 0 00223         ADD     TMP           ..                                         SCDC0132
      00156  0734 00 7 00000         PAX     ,7            ..                                         SCDC0133
      00157 -0130 00 0 00000         XCL                   RESTORE TABLE INDEX                        SCDC0134
      00160  0737 00 6 00000         PAC     ,6            ..                                         SCDC0135
      00161 -0500 00 6 00205         CAL     SHIFTS,6      GET HALF DAYS WORTH OF SHIFTS              SCDC0136
      00162  0771 00 7 00041         ARS     33,7          PICK OUT SHIFT FOR THIS HOUR               SCDC0137
      00163 -0320 00 0 74662         ANA     Q7            MASK                                       SCDC0138
      00164  0601 00 0 74604         STO     SHIFT         AND PUT AWAY                               SCDC0139
      00165  0020 00 4 00001         TRA     1,4           RETURN                                     SCDC0140
                                                                                                      SCDC0141
                                                                                                      SCDC0142
      00166 -0754 00 0 00000  DTB    ZAC                   ROUTINE TO CONVERT TWO BCD DIGITS TO BINARYSCDC0143
      00167 -0763 00 0 00006         LGL     6             ..                                         SCDC0144
      00170  0601 00 0 00223         STO     TMP           ..                                         SCDC0145
      00171 -0754 00 0 00000         ZAC                   ..                                         SCDC0146
      00172 -0763 00 0 00003         LGL     3             ..                                         SCDC0147
      00173  0400 00 0 00223         ADD     TMP           ..                                         SCDC0148
      00174 -0763 00 0 00002         LGL     2             ..                                         SCDC0149
      00175  0400 00 0 00223         ADD     TMP           ..                                         SCDC0150
      00176 -0763 00 0 00001         LGL     1             ..                                         SCDC0151
      00177  0020 00 7 00001         TRA     1,7           ..                                         SCDC0152
                                                                                                      SCDC0153
1       M1416 3845  PETER R. BOS ..... TIME ACCOUNTING ROUTINES ..........       01/31/71 1951.2 PAGE 4

                                                                                                      SCDC0155
                                                                                                      SCDC0156
                       00177  TAU    SYN     *-1           TABLE OF TAU POINTERS                      SCDC0157
      00200  0 00000 1 77137         PZE     TAU1,1        .. SHIFT 1                                 SCDC0158
      00201  0 00000 1 77066         PZE     TAU2,1        .. SHIFT 2                                 SCDC0159
      00202  0 00000 1 77015         PZE     TAU3,1        .. SHIFT 3                                 SCDC0160
      00203  0 00000 1 76744         PZE     TAU4,1        .. SHIFT 4 (WEEKEND)                       SCDC0161
      00204  0 00000 1 76673         PZE     TAU5,1        .. SHIFT 5 (FIB)                           SCDC0162
                                                                                                      SCDC0163
      00205 +333333331111     SHIFTS OCT     333333331111  MONDAY                                     SCDC0164
      00206 +111111222222            OCT     111111222222  ..                                         SCDC0165
      00207 +333333331111            OCT     333333331111  TUESDAY                                    SCDC0166
      00210 +111111222222            OCT     111111222222  ..                                         SCDC0167
      00211 +333333331111            OCT     333333331111  WEDNESDAY                                  SCDC0168
      00212 +111111222222            OCT     111111222222  ..                                         SCDC0169
      00213 +333333331111            OCT     333333331111  THURSDAY                                   SCDC0170
      00214 +111111222222            OCT     111111222222  ..                                         SCDC0171
      00215 +333333331111            OCT     333333331111  FRIDAY                                     SCDC0172
      00216 +111111222222            OCT     111111222222  ..                                         SCDC0173
      00217 +333333334444            OCT     333333334444  SATURDAY                                   SCDC0174
      00220 -044444444444            OCT     444444444444  ..                                         SCDC0175
      00221 +333333334444            OCT     333333334444  SUNDAY                                     SCDC0176
      00222 -044444444444            OCT     444444444444  ..                                         SCDC0177
                                                                                                      SCDC0178
                                                                                                      SCDC0179
      00223  0 00000 0 00000  TMP    PZE                   TEMPORARY                                  SCDC0180
      00224  0 00000 0 00000  UTEMP  PZE                                                              SCDC0181
      00225  0 00000 0 00000  USR    PZE                   ..                                         SCDC0182
      00226  0 00000 0 00000  T      PZE                   ..                                         SCDC0183
      00227  0 00000 0 00000  HOUR   PZE                   ..                                         SCDC0184
      00230  0 00000 0 00000  OLDDAT PZE                   ..                                         SCDC0185
      00231  0 00000 0 00000  MTWTFS PZE                   ..                                         SCDC0186
      00232 +000000000100     YEAR.1 DEC     64            YEAR 1 IS 1964                             SCDC0187
                                                                                                      SCDC0188
      00233 +000000000000     DAYS   DEC     0,0,31,59,90,120,151,181,212,243,273,304,334             SCDC0189
      00234 +000000000000
      00235 +000000000037
      00236 +000000000073
      00237 +000000000132
      00240 +000000000170
      00241 +000000000227
      00242 +000000000265
      00243 +000000000324
      00244 +000000000363
      00245 +000000000421
      00246 +000000000460
      00247 +000000000516
                                                                                                      SCDC0190
      00250                          RMT     *                                                        SCDC0191
                                     END                                                              SCDC0193

        LITERALS
      00250  000000000030
      00251  000000000555
      00252  000000645700
      00253  777760000000
1       M1416 3845  PETER R. BOS ..... TIME ACCOUNTING ROUTINES ..........       01/31/71 1951.2 PAGE 1
                        POST PROCESSOR ASSEMBLY DATA

       72127 IS THE LAST LOCATION NOT USED BY THIS PROGRAM
        254 IS THE FIRST LOCATION NOT USED BY THIS PROGRAM

0REFERENCES TO DEFINED SYMBOLS
        226      T    12,   15,   33
      74671     Q0    73
      74670     Q1   133
      74667     Q2    47
      74666     Q3   120
      74665     Q4    30
      74664     Q5   130
      74662     Q7   136,  163
        166    DTB     0,  105,  111,  114
         55    DX4    53
      74655    Q12   152
        177    TAU    32,   34,  200
        223    TMP    41,   43,  117,  124,  153,  155,  170,  173,  175
        225    USR    64,   72
         50   CGX1     2
         51   CGX4     3
        233   DAYS   107,  110,  112,  113,  122,  123,  127
        227   HOUR   143,  147
         74   INX4    62
      77137   TAU1   200
      77066   TAU2   201
      77015   TAU3   202
      76744   TAU4   203
      76673   TAU5   204
         62  INTIM     0
          1  NOTIM    26,   45
      76500  PROBN    25,   35
      74604  SHIFT    17,  164
        224  UTEMP     5,   27,   46
      76622  UTIME    14,   16
         32 CHARG1    22
          2 CHARGE     0,   71
         50 CHGRTN    36,   44
      74500 DATEYR    77
         53 DELTIM     0
      74527 ESTTIM    23
          0 GETOTL    54
         77 INITIM     0,   13
        231 MTWTFS   137,  144
          1 NOTIME    67
     700000 NTIMCD    67
        230 OLDDAT   100,  103
         76 OUTTIM     0
        140 SHIFT.   102
        205 SHIFTS   161
      74476 TIMNOW   140
      75524 USWICH    66,   70
        232 YEAR.1   116
1       M1416 3845  PETER R. BOS ..... TIME ACCOUNTING ROUTINES ..........       01/31/71 1951.2 PAGE 2
                        POST PROCESSOR ASSEMBLY DATA

0 NO ERROR IN ABOVE ASSEMBLY.


SCDD8A   BCD 03/04/70 1439.3    2450         00000
1       M1416 3845  PETER R. BOS ..... QUEUE LENGTH MONITOR FOR CTSS .....       03/04/70 1418.0 PAGE 1

                                     PCC     ON                                                       SCDD0002
                                     NOLNK                                                            SCDD0003
                       00003         ENTRY   MONSCD        TO UPDATE AND CHECK QUEUE STATUS           SCDD0004
                       00012         ENTRY   QLOAD         TO CHECK QUEUE LOAD ONLY                   SCDD0005
                                     LBL     QLOD0000                                                 SCDD0006
                                     PCC     OFF                                                      SCDD0007
                                                                                                      SCDD0008
                                     EXTERN  FINDSB,FINDUS,NOTIM                                      SCDD0009
                                                                                                      SCDD0010
                                     UNLIST                                                           SCDD0011

                                                                                                      SCDD0017
                                                                                                      SCDD0018
      00003  0560 00 0 74603  MONSCD LDQ     AVQLEN        CURRENT VALUE OF INTEGRATOR                SCDD0019
      00004  0260 00 0 00126         FMP     =.999         SCALE IT                                   SCDD0020
      00005  0601 00 0 74603         STO     AVQLEN        ..                                         SCDD0021
      00006  0500 00 0 74602         CLA     QLEN          NUMBER OF USERS IN QUEUES                  SCDD0022
      00007 -0501 00 0 00127         ORA     =O233000000000 FLOAT.                                    SCDD0023
      00010  0300 00 0 74603         FAD     AVQLEN        .. AND ADD INTO INTEGRATOR                 SCDD0024
      00011  0601 00 0 74603         STO     AVQLEN        ..                                         SCDD0025
                                                                                                      SCDD0026
      00012                   QLOAD  SAVE    Q(X4)         SAVE X4.                                   SCDD0027
      00013  0500 00 0 74603         CLA     AVQLEN        GET CURRENT AVERAGE VALUE                  SCDD0028
      00014  0402 00 0 74557         SUB     QMAX          SEE IF OVER FIRST THRESHOLD                SCDD0029
      00015  0120 00 0 00044         TPL     CUT           YES, GO TEND TO IT                         SCDD0030
      00016  0600 00 0 74553         STZ     KILLTM        HERE IF NO OVERLOAD NOW                    SCDD0031
      00017  0600 00 0 74577         STZ     MXUSRS+Q.DNTM RESET TIMERS FOR CUT AND KILL              SCDD0032
      00020  0500 00 0 74576         CLA     MXUSRS+Q.UPTM CHECK TIMER FOR RAISING MXUSRS             SCDD0033
      00021  0100 00 0 00040         TZE     SETUPT        .. NOT SET YET, GO SET IT                  SCDD0034
      00022  0402 00 0 74472         SUB     TOTTIM        IS IT TIME YET                             SCDD0035
      00023  0120 00 0 00124         TPL     QRET          NO, EXIT                                   SCDD0036
      00024  0500 00 0 74571         CLA     MXUSRS        YES, RAISE MXUSRS IF NOT                   SCDD0037
      00025  0560 00 0 74573         LDQ     MXUSRS+Q.MIN  .. ABOVE NUSERS                            SCDD0038
      00026  0040 00 0 00030         TLQ     *+2           BUT DON'T KEEP IT ABOVE 30                 SCDD0039
      00027  0131 00 0 00000         XCA                   ..                                         SCDD0040
      00030  0500 00 0 74532         CLA     NUSERS        ..                                         SCDD0041
      00031  0400 00 0 74600         ADD     MXUSRS+Q.UPVR ..                                         SCDD0042
      00032  0040 00 0 00034         TLQ     *+2           IS NUSERS+1 HIGHER                         SCDD0043
      00033  0131 00 0 00000         XCA                   IF NOT, LEAVE CURRENT VALUE                SCDD0044
      00034  0560 00 0 74572         LDQ     MXUSRS+Q.MAX  NEVER ALLOW MXUSRS ABOVE N-3               SCDD0045
      00035  0040 00 0 00037         TLQ     *+2           ..                                         SCDD0046
      00036  0131 00 0 00000         XCA                   ..                                         SCDD0047
      00037 -0600 00 0 74571         STQ     MXUSRS        SET NEW VALUE                              SCDD0048
      00040  0500 00 0 74472  SETUPT CLA     TOTTIM        HERE TO SET TIME FOR NEXT INCREASE         SCDD0049
      00041  0400 00 0 74574         ADD     MXUSRS+Q.UPDT ..                                         SCDD0050
      00042  0601 00 0 74576         STO     MXUSRS+Q.UPTM ..                                         SCDD0051
      00043  0020 00 0 00124         TRA     QRET          GO TO COMMON EXIT                          SCDD0052
                                                                                                      SCDD0053
      00044  0600 00 0 74576  CUT    STZ     MXUSRS+Q.UPTM HERE ON HIGH VALUE OF AVQLEN               SCDD0054
      00045  0500 00 0 74577         CLA     MXUSRS+Q.DNTM RESET TIME TO RAISE, CHECK TIME            SCDD0055
      00046  0100 00 0 00060         TZE     SETDWN        NOT SET YET, GO DO IT                      SCDD0056
      00047  0402 00 0 74472         SUB     TOTTIM        .. IS IT TIME YET                          SCDD0057
      00050  0120 00 0 00063         TPL     CKILL         NOT TIME YET, CHECK IF TO KILL USER        SCDD0058
      00051  0560 00 0 74571         LDQ     MXUSRS        SEE IF MXUSRS .GE. NUSRERS                 SCDD0059
      00052  0500 00 0 74532         CLA     NUSERS        ..                                         SCDD0060
      00053  0040 00 0 00063         TLQ     CKILL         IF NOT, LEAVE TIMER SET, CHECK FOR KILL    SCDD0061
1       M1416 3845  PETER R. BOS ..... QUEUE LENGTH MONITOR FOR CTSS .....       03/04/70 1418.0 PAGE 2

      00054  0131 00 0 00000         XCA                   .. MXUSRS TO AC                            SCDD0062
      00055  0402 00 0 74601         SUB     MXUSRS+Q.DNVR CUT IT BY 1                                SCDD0063
      00056  0601 00 0 74571         STO     MXUSRS        PUT BACK,                                  SCDD0064
      00057  0600 00 0 74553         STZ     KILLTM        AND RESET KILL TIMER (WE'LL WAIT)          SCDD0065
      00060  0500 00 0 74472  SETDWN CLA     TOTTIM        HERE TO SET TIMER FOR CUT                  SCDD0066
      00061  0400 00 0 74575         ADD     MXUSRS+Q.DNDT ..                                         SCDD0067
      00062  0601 00 0 74577         STO     MXUSRS+Q.DNTM ..                                         SCDD0068
                                                                                                      SCDD0069
      00063 -0520 00 0 74551  CKILL  NZT     KILLSW        SEE IF WE ARE ALLOWED                      SCDD0070
      00064  0020 00 0 00123         TRA     NOKILL        .. (SIGH)...                               SCDD0071
      00065  0500 00 0 74603         CLA     AVQLEN        HERE TO CHECK FOR KILL                     SCDD0072
      00066  0402 00 0 74555         SUB     QKILL         IF QUEUE LENGTH ABOVE HIGH THRESHOLD       SCDD0073
      00067 -0120 00 0 00123         TMI     NOKILL        ..                                         SCDD0074
      00070  0500 00 0 74553         CLA     KILLTM        .. SEE IF TIME TO DUMP ONE                 SCDD0075
      00071  0100 00 0 00117         TZE     SETKIL        TIMER NOT SET YET                          SCDD0076
      00072  0402 00 0 74472         SUB     TOTTIM        ..                                         SCDD0077
      00073  0120 00 0 00124         TPL     QRET          NOT YET, WAIT A WHILE                      SCDD0078
      00074  0500 00 0 74571         CLA     MXUSRS        MUST HAVE MXUSRS BELOW NUSERS              SCDD0079
      00075  0402 00 0 74532         SUB     NUSERS        ..                                         SCDD0080
      00076  0120 00 0 00123         TPL     NOKILL        IF NOT, RESET TIMER, USER LOGGED OUT       SCDD0081
      00077  0074 00 4 00000         TSX     FINDSB,4      FIND A LOSER (PICK ON ONE WITH             SCDD0082
      00100  3 00000 0 74671         PAR     Q0            .. LARGE TIME USED THIS SESSION)           SCDD0083
      00101 -0100 00 0 00107         TNZ     KILL          STANDBY FOUND, GO DO IT                    SCDD0084
      00102 -0520 00 0 74552         NZT     KILLSW+1      ARE WE ALLOWED TO KILL PRIME USERS         SCDD0085
      00103  0020 00 0 00123         TRA     NOKILL        .. NO, IGNORE OVERLOAD                     SCDD0086
      00104  0074 00 4 00001         TSX     FINDUS,4      FIND LOGGED IN USER WITH                   SCDD0087
      00105  3 00000 0 74671         PAR     Q0            .. GREATEST TIME USED                      SCDD0088
      00106  0100 00 0 00123         TZE     NOKILL        NOBODY HAS GREATEST UTIME, SKIP            SCDD0089
      00107  0621 00 0 74550  KILL   STA     QLOSER        SAVE USER NUMBER OF LOSER                  SCDD0090
      00110 -0534 00 4 74550         LXD     QLOSER,4      INCREMENT COUNT                            SCDD0091
      00111  1 00001 4 00112         TXI     *+1,4,1       .. OF USERS KILLED HERE                    SCDD0092
      00112 -0634 00 4 74550         SXD     QLOSER,4      ..                                         SCDD0093
      00113  0737 00 4 00000         PAC     ,4            LOSER NUMBER TO X4                         SCDD0094
      00114  0074 00 4 00002         TSX     NOTIM,4       SET UP USER FOR ENDLOG                     SCDD0095
      00115  3 00000 0 74550         PAR     QLOSER        ..                                         SCDD0096
      00116  3 00000 0 74663         PAR     Q6            .. NOTIME CODE 6, QLOAD KILL               SCDD0097
      00117  0500 00 0 74472  SETKIL CLA     TOTTIM        HERE TO SET UP FOR NEXT KILL               SCDD0098
      00120  0400 00 0 74554         ADD     KILLDT        ..                                         SCDD0099
      00121  0601 00 0 74553         STO     KILLTM        ..                                         SCDD0100
      00122  0020 00 0 00124         TRA     QRET          GO TO COMMON EXIT                          SCDD0101
                                                                                                      SCDD0102
      00123  0600 00 0 74553  NOKILL STZ     KILLTM        HERE IF NOT TO KILL, RESET TIMER           SCDD0103
                                                                                                      SCDD0104
      00124                   QRET   RETURN  (1,4),Q(X4)   RETURN                                     SCDD0105
                                                                                                      SCDD0106
                                                                                                      SCDD0107
      00126                          RMT     *                                                        SCDD0110
                                                                                                      SCDD0112
                                     END                                                              SCDD0113

        LITERALS
      00126  200777371666
      00127  233000000000
1       M1416 3845  PETER R. BOS ..... QUEUE LENGTH MONITOR FOR CTSS .....       03/04/70 1418.0 PAGE 1
                        POST PROCESSOR ASSEMBLY DATA

       72127 IS THE LAST LOCATION NOT USED BY THIS PROGRAM
        130 IS THE FIRST LOCATION NOT USED BY THIS PROGRAM

0REFERENCES TO DEFINED SYMBOLS
      74671     Q0   100,  105
      74663     Q6   116
         44    CUT    15
        124    QX4    12
        107   KILL   101
      74602   QLEN     6
      74557   QMAX    14
        124   QRET    23,   43,   73,  122
         63  CKILL    50,   53
          2  NOTIM   114
          1  Q.MAX    34
          2  Q.MIN    25
      74555  QKILL    66
         12  QLOAD     0
      74603 AVQLEN     3,    5,   10,   11,   13,   65
          0 FINDSB    77
          1 FINDUS   104
      74554 KILLDT   120
      74551 KILLSW    63,  102
      74553 KILLTM    16,   57,   70,  121,  123
          3 MONSCD     0
      74571 MXUSRS    17,   20,   24,   25,   31,   34,   37,   41,   42,   44,   45,   51,   55,   56,   61,   62,   74
        123 NOKILL    64,   67,   76,  103,  106
      74532 NUSERS    30,   52,   75
          4 Q.DNDT    61
          6 Q.DNTM    17,   45,   62
         10 Q.DNVR    55
          3 Q.UPDT    41
          5 Q.UPTM    20,   42,   44
          7 Q.UPVR    31
      74550 QLOSER   107,  110,  112,  115
         60 SETDWN    46
        117 SETKIL    71
         40 SETUPT    21
      74472 TOTTIM    22,   40,   47,   60,   72,  117

0 NO ERROR IN ABOVE ASSEMBLY.


UTIL8C   BCD 01/18/71 1610.5    9348         00000
1      M1416 3845  PETER R. BOS ....... UTILITY ROUTINES FOR CTSS ......         01/18/71 1558.4 PAGE 1

                                     PCC     ON                                                       UTIL0002
                                     NOLNK                                                            UTIL0003
                       00022         ENTRY   ISIN          CHECK IF USER LOGGED IN                    UTIL0004
                       00036         ENTRY   FINDSB        FIND STANDBY USER WITH GREATEST UTIME      UTIL0005
                       00041         ENTRY   FINDUS        FIND ANY USER WITH GREATEST UTIME          UTIL0006
                       00101         ENTRY   KILL          SET UP ENDLOG FOR USER                     UTIL0007
                       00147         ENTRY   ATTSYS        ATTACH TSS TO SYSTEM FILES                 UTIL0008
                       00201         ENTRY   ATTUSR        ATTACH TSS TO USER FILES WITH USER OPTIONS UTIL0009
                       00237         ENTRY   GETUFD        SET UP 'USRFIL' FOR TSSFIL CALL            UTIL0010
                       00323         ENTRY   RSTUFD        RESTORE USER FILE ATTACHMENT AFTER FILRST  UTIL0011
                       00264         ENTRY   SETUFD        RESET USER FROM TSS FILES                  UTIL0012
                       00402         ENTRY   ATTFIL        ATTACH USER TO FILE DIRECTORY              UTIL0013
                       00336         ENTRY   CHKTSS        CHECK TSSFIL NAME                          UTIL0014
                       00256         ENTRY   TSSFL.        ATTACH USER TO TSS FILES                   UTIL0015
                       00260         ENTRY   SETSS         ATTACH USER TO TSSFIL, TSSFIL+1            UTIL0016
                       00452         ENTRY   CHKDIR        MAY USER ACCESS DIRECTORY                  UTIL0017
                       00501         ENTRY   RESET         CLOSE ACTIVE FILES FOR USER                UTIL0018
                       00522         ENTRY   PRDIAG        PRINT FILE ERROR DIAGNOSTIC                UTIL0019
                                     LBL     UTIL0000                                                 UTIL0020
                                     PCC     OFF                                                      UTIL0021
                                                                                                      UTIL0022
                                     EXTERN  ATTACH,ATTNAM,BTDC,BTOC,CHNGUS,CLOSE                     UTIL0023
                                     EXTERN  ENDLOG,GETUSR,IODIAG,WRTOPR,Q,RESETF                     UTIL0024
                                     EXTERN  RSSWB,SCHEDL,SETAB,SETUSR,WRFLX,.WRFX                    UTIL0025
                                                                                                      UTIL0026
                                     UNLIST                                                           UTIL0027

                                                                                                      UTIL0033
                                                                                                      UTIL0034
      00022 -0774 00 7 00001  ISIN   AXC     1,7           START LOOKING WITH USER 1                  UTIL0035
                                                                                                      UTIL0036
      00023 -0500 60 4 00001  ISN1   CAL*    1,4           GET PROBN OF DESIRED USER                  UTIL0037
      00024  0322 00 7 76500         ERA     PROBN,7       COMPARE                                    UTIL0038
      00025 -0100 00 0 00031         TNZ     ISN2          .. NO                                      UTIL0039
      00026 -0500 60 4 00002         CAL*    2,4           GET PROGN                                  UTIL0040
      00027  0322 00 7 76427         ERA     PROGN,7       COMPARE                                    UTIL0041
      00030  0100 00 0 00034         TZE     ISN3          .. *GOTCHA*                                UTIL0042
      00031  1 77777 7 00032  ISN2   TXI     *+1,7,-1      COUNT USERS                                UTIL0043
      00032  3 77727 7 00023         TXH     ISN1,7,-N-1   CONTINUE TILL DONE                         UTIL0044
      00033  0774 00 7 00000         AXT     0,7           HERE IF USER NOT FOUND                     UTIL0045
      00034  0756 00 7 00000  ISN3   PCA     ,7            RETURN USER INDEX OR 0                     UTIL0046
      00035  0020 00 4 00003         TRA     3,4           ..                                         UTIL0047
                                                                                                      UTIL0048
                                                                                                      UTIL0049
      00036  0564 00 0 74671  FINDSB ENB     Q0            DISABLE ALL TRAPS                          UTIL0050
      00037 -0625 00 0 00610         STL     SBIND         AND SET INDICATOR TO FIND STANDBY          UTIL0051
      00040  0020 00 0 00043         TRA     FINDUS+2      SKIP.                                      UTIL0052
                                                                                                      UTIL0053
      00041  0564 00 0 74671  FINDUS ENB     Q0            DISABLE ALL TRAPS                          UTIL0054
      00042  0600 00 0 00610         STZ     SBIND         RESET STANDBY INDIC.                       UTIL0055
      00043  0634 00 4 00077         SXA     FX4,4         SAVE X4                                    UTIL0056
      00044 -0500 60 4 00001         CAL*    1,4           GET USER PARTY GROUP IF SPECIFIED          UTIL0057
      00045  0602 00 0 00613         SLW     TGRP          .. SAVE                                    UTIL0058
      00046 -0500 00 4 00002         CAL     2,4           SEE IF SECOND ARGUMENT SPECIFIED           UTIL0059
      00047  0734 00 4 00000         PAX     ,4            .. GIVING ARRAY ADDRESS                    UTIL0060
      00050  0044 00 0 00000         PAI                   ..                                         UTIL0061
1      M1416 3845  PETER R. BOS ....... UTILITY ROUTINES FOR CTSS ......         01/18/71 1558.4 PAGE 2

      00051 -0056 00  400000         LNT     400000        ..                                         UTIL0062
      00052 -0056 00  300000         LNT     300000        .. YES, SKIP                               UTIL0063
      00053  0774 00 4 76622         AXT     UTIME,4       NO ARGUMENT, USE 'UTIME'                   UTIL0064
      00054  0634 00 4 00070         SXA     CKT,4         AND SAVE FOR SEARCH.                       UTIL0065
      00055  0600 00 0 00612         STZ     LOSER         CLEAR TEMPS.                               UTIL0066
      00056  0600 00 0 00611         STZ     UTM           ..                                         UTIL0067
                                                                                                      UTIL0068
      00057 -0774 00 4 00003         AXC     3,4           START WITH USER 3                          UTIL0069
      00060 -0520 00 4 76500  SBLOOP NZT     PROBN,4       INSURE USER LOGGED IN                      UTIL0070
      00061  0020 00 0 00074         TRA     SBTIX         NOT LOGGED IN, IGNORE                      UTIL0071
      00062  0500 00 4 76112         CLA     GRPNO.,4      PICK UP USER PARTY GROUP                   UTIL0072
      00063  0520 00 0 00610         ZET     SBIND         SEE IF TO CHECK STANDBY STATUS             UTIL0073
      00064  0120 00 0 00074         TPL     SBTIX         YES, MAKE SURE USER IS STANDBY             UTIL0074
      00065  0322 00 0 00613         ERA     TGRP          CHECK GROUP NUMBER                         UTIL0075
      00066  0520 00 0 00613         ZET     TGRP          CHECK IF GROUP SPECIFIED                   UTIL0076
      00067 -0100 00 0 00074         TNZ     SBTIX         NOT SAME GROUP, SKIP                       UTIL0077
      00070 -0500 00 4 00000  CKT    CAL     -,4           VALID USER, CHECK (UTIME) USED             UTIL0078
      00071 -0340 00 0 00611         LAS     UTM           ..                                         UTIL0079
      00072  0602 00 0 00611         SLW     UTM           AHAAA...                                   UTIL0080
      00073  0636 00 4 00612         SCA     LOSER,4       SAVE HIS USER NUMBER                       UTIL0081
      00074  1 77777 4 00075  SBTIX  TXI     *+1,4,-1      INCREMENT USER INDEX                       UTIL0082
      00075  3 77727 4 00060         TXH     SBLOOP,4,-N-1 CONTINUE UNTIL DONE                        UTIL0083
                                                                                                      UTIL0084
      00076  0500 00 0 00612         CLA     LOSER         THIS IS USER NUMBER DESIRED OR '0'         UTIL0085
      00077  0774 00 4 00000  FX4    AXT     -,4           RESTORE X4                                 UTIL0086
      00100  0020 00 4 00002         TRA     2,4           RETURN.                                    UTIL0087
                                                                                                      UTIL0088
                                                                                                      UTIL0089
      00101  0564 00 0 74671  KILL   ENB     Q0            ENTRY TO LOG OUT USER                      UTIL0090
      00102                          SAVE    KL(X1,X4)     ..                                         UTIL0091
      00104 -0500 60 4 00001         CAL*    1,4           GET USER NO. OF LOSER                      UTIL0092
      00105  0737 00 1 00000         PAC     ,1            ..                                         UTIL0093
      00106  0602 00 0 00612         SLW     LOSER         ..                                         UTIL0094
      00107  0402 00 0 74534         SUB     SYSMSG        IF THIS USER IS SYSTEM OUTPUT,             UTIL0095
      00110  0100 00 0 00122         TZE     KILL1         .. DON'T RESET BUFFER                      UTIL0096
      00111 -0500 00 4 00001         CAL     1,4           PICK UP CONTROL WORD                       UTIL0097
      00112 -0734 00 4 00000         PDX     ,4            CHECK OPTION                               UTIL0098
      00113  3 00000 4 00122         TXH     KILL1,4,0     IF RSSWB INHIBITED, SKIP                   UTIL0099
      00114  0074 00 4 00014         TSX     RSSWB,4       RESET USER OUTPUT BUFFERS                  UTIL0100
      00115  3 00000 0 00612         PAR     LOSER         ..                                         UTIL0101
      00116                          WTYPE   LOSER,(/WAIT/) .. AAAUGH                                 UTIL0102
      00122 -0500 60 0 00006  KILL1  CAL*    ENDLOG        GET NAME OF ENDLOG COMMAND                 UTIL0103
      00123 -0520 00 1 76500         NZT     PROBN,1       IF USER NOT LOGGED IN,                     UTIL0104
      00124 -0500 60 0 00012         CAL*    Q             DETACH AND SET HIM DEAD                    UTIL0105
      00125  0602 00 1 75575         SLW     COMMND,1      .. SET IT UP                               UTIL0106
      00126                          SCHEDL  Q2,LOSER,Q1   GRAB USER OUT OF QUEUES                    UTIL0107
      00132                          SCHEDL  Q6,LOSER,Q0   GIVE ENDLOG HIGHEST PRIORITY               UTIL0108
      00136                          SCHEDL  Q2,LOSER,Q3   INFORM SCHEDL. OF WAITING COMMAND          UTIL0109
      00142  0560 00 0 00632         LDQ     =VO18/LOGTBT  SET COMMAND SWITCHES                       UTIL0110
      00143 -0620 00 1 75524         SLQ     USWICH,1      .. FOR WAITING LOGOUT                      UTIL0111
      00144                          RETURN  (2,4),KL(X1,X4)  .. RETURN                               UTIL0112
1      M1416 3845  PETER R. BOS ....... UTILITY ROUTINES FOR CTSS ......         01/18/71 1558.4 PAGE 3

                                                                                                      UTIL0114
                                             ..... ATTACH TSS TO SYSTEM OR USER FILES .....           UTIL0115
                                                                                                      UTIL0116
      00147                   ATTSYS SAVE    AT(X1,X4)     ATTACH TSS TO SYSTEM FILES                 UTIL0117
      00151                          CALL    SETUSR(Q1,TSRCOD,Q0,DMASK,Q0,M0)                         UTIL0118
      00160                          SETAB   LA,*,*        SET MEMORY SWITCHES FOR CALLS FROM 'A'     UTIL0119
      00164                          CALL    ATTNAM((TEMP,,2))  ..                                    UTIL0120
      00166 -0500 00 0 00615         CAL     TEMP          DO WE NEED TO PERFORM ATTACH               UTIL0121
      00167  0322 00 0 74631         ERA     CTSSID        ..                                         UTIL0122
      00170 -0100 00 0 00174         TNZ     ATSYS1        .. YES                                     UTIL0123
      00171 -0500 00 0 00616         CAL     TEMP+1        ..                                         UTIL0124
      00172  0322 00 0 74632         ERA     CTSSID+1      ..                                         UTIL0125
      00173  0100 00 0 00231         TZE     ATTRTN        .. NO                                      UTIL0126
      00174                   ATSYS1 CALL    ATTACH(CTSSID,CTSSID+1,ATERTN)                           UTIL0127
      00200  0020 00 0 00231         TRA     ATTRTN        .. RETURN                                  UTIL0128
                                                                                                      UTIL0129
      00201                   ATTUSR SAVE    AT(X1,X4)     ATTACH TSS TO USER FILES                   UTIL0130
      00203  0535 00 1 74502         LAC     USER,1        GET USER NO. OF CURRENT USER               UTIL0131
      00204  0500 00 1 76500         CLA     PROBN,1       PICK UP USER UFD NAME                      UTIL0132
      00205  0100 00 0 00234         TZE     ATERTN        .. ERROR IF NOT LOGGED IN                  UTIL0133
      00206  0560 00 1 76305         LDQ     UFDNM,1       ..                                         UTIL0134
      00207 -0603 00 0 00615         DST     TEMP          ..                                         UTIL0135
      00210  0074 00 4 00004         TSX     CHNGUS,4      SET TSS TO BE DISK USER                    UTIL0136
      00211  3 00000 0 74670         PAR     Q1            ..                                         UTIL0137
      00212                          SETAB   LA,*,*        CALLS FROM MEMORY 'A'                      UTIL0138
      00216                          CALL    ATTACH(TEMP,TEMP+1,ATERTN)                               UTIL0139
      00222                          CALL    SETUSR(Q1,(RCODE,1),AUTHOR,PRIND,RLIND,M0)               UTIL0140
      00231                   ATTRTN RETURN  (2,4),AT(X1,X4)  .. RETURN                               UTIL0141
                                                                                                      UTIL0142
      00234                   ATERTN RESTOR  AT(X1,X4)     HERE FOR ERROR DURING ATTACH               UTIL0143
      00236  0020 60 4 00001         TRA*    1,4           TAKE ERROR RETURN                          UTIL0144
1      M1416 3845  PETER R. BOS ....... UTILITY ROUTINES FOR CTSS ......         01/18/71 1558.4 PAGE 4

                                                                                                      UTIL0146
                                             ..... GETUFD, SETUFD, RSTUFD, TSSFL., SETSS .....        UTIL0147
                                             ......... SET USER DIRECTORY ATTACHMENT .........        UTIL0148
                                                                                                      UTIL0149
      00237  0520 00 0 72233  GETUFD ZET     TSSFSW        ROUTINE TO PICK UP CURRENT USRFIL          UTIL0150
      00240  0020 00 0 00253         TRA     GETUF1        .. ALREADY SET UP, SKIP                    UTIL0151
      00241  0634 00 4 00252         SXA     GTX4,4        SAVE X4                                    UTIL0152
      00242  0074 00 4 00004         TSX     CHNGUS,4      SET USER TO BE DISK USER                   UTIL0153
      00243  3 00000 0 74667         PAR     Q2            ..                                         UTIL0154
      00244                          SETAB   LA,*,*        CALLS FROM MEM. 'A'                        UTIL0155
      00250  0074 00 4 00001         TSX     ATTNAM,4      FIND OUT USER CURRENT UFD                  UTIL0156
      00251  3 00002 0 72236         PAR     USRFIL,,2     .. PUT AWAY HERE                           UTIL0157
      00252  0774 00 4 00000  GTX4   AXT     -,4           RESTORE X4                                 UTIL0158
      00253 -0500 00 0 72236  GETUF1 CAL     USRFIL        PICK UP FILE DIRECTORY NAME                UTIL0159
      00254  0560 00 0 72237         LDQ     USRFIL+1      ..                                         UTIL0160
      00255  0020 00 4 00001         TRA     1,4           RETURN                                     UTIL0161
                                                                                                      UTIL0162
                                                                                                      UTIL0163
      00256  0602 00 0 72234  TSSFL. SLW     TSSFIL        ROUTINE TO SET USER IN TSS FILES           UTIL0164
      00257 -0600 00 0 72235         STQ     TSSFIL+1      .. SPECIFIED IN AC-MQ                      UTIL0165
                                                                                                      UTIL0166
      00260  0074 00 7 00315  SETSS  TSX     SVX,7         ENTRY IF TSSFIL ALREADY SET UP             UTIL0167
      00261  0074 00 4 00237         TSX     GETUFD,4      PICK UP USRFIL IF NOT DONE ALREADY         UTIL0168
      00262  0774 00 2 00010         AXT     .TSS.,2       POINT AT TSSFIL PORTION OF TABLE           UTIL0169
      00263  0020 00 0 00266         TRA     *+3           SKIP                                       UTIL0170
                                                                                                      UTIL0171
      00264  0074 00 7 00315  SETUFD TSX     SVX,7         ROUTINE TO RESET USER FROM TSS FILES       UTIL0172
      00265  0774 00 2 00006         AXT     .USR.,2       POINT AT TOP OF USER PORTION OF TABLE      UTIL0173
      00266 -0520 60 2 00336  SET1   NZT*    UFDTBL,2      IF THIS ENTRY LOOKS FISHY,                 UTIL0174
      00267  0774 00 2 00002         AXT     .DET.,2       DETACH USER INSTEAD                        UTIL0175
      00270 -0500 60 2 00336         CAL*    UFDTBL,2      PICK UP FILE DIRECTORY NAME1               UTIL0176
      00271  0560 60 2 00337         LDQ*    UFDTBL+1,2    .. AND NAME2                               UTIL0177
      00272 -3 00006 2 00275         TXL     *+3,2,.USR.   SKIP CHKTSS IF NOT TSSFIL AREA             UTIL0178
      00273  0074 00 4 00336         TSX     CHKTSS,4      USER WANTS TSSFIL, CHECK TABLE             UTIL0179
      00274  3 00000 0 00276         PAR     *+2           POSSIBLE ERROR, RESET TO OWN FILES         UTIL0180
      00275  0074 00 4 00402         TSX     ATTFIL,4      LEGAL FILE DIRECTORY, ATTACH HIM           UTIL0181
      00276  2 00002 2 00266         TIX     SET1,2,2      ERROR RETURN, TRY NEXT LEVEL               UTIL0182
      00277  0441 00 0 72232         LDI     URCODE        PICK UP USER RESTRICTION CODE              UTIL0183
      00300  0055 00  000400         SIR     RTSSBT        SET TSSFIL RESTRICTION BIT                 UTIL0184
      00301 -0625 00 0 72233         STL     TSSFSW        AND TSSFIL SWITCH                          UTIL0185
      00302  3 00006 2 00305         TXH     *+3,2,.USR.   IF USER ENDS UP IN TSS FILES, SKIP         UTIL0186
      00303  0057 00  000400         RIR     RTSSBT        ELSE RESET BIT                             UTIL0187
      00304  0600 00 0 72233         STZ     TSSFSW        AND SWITCH                                 UTIL0188
      00305  0442 00 1 76041         OSI     RCODE,1       AND RESTORE POSSIBLE RESTRICTION BIT       UTIL0189
      00306  0604 00 0 72232         STI     URCODE        SAVE AS NEW USER RESTRICTION CODE          UTIL0190
                                                                                                      UTIL0191
      00307  0774 00 1 00000  X1     AXT     -,1           RESTORE XRS                                UTIL0192
      00310  0774 00 2 00000  X2     AXT     -,2           ..                                         UTIL0193
      00311  0774 00 4 00000  X4     AXT     -,4           ..                                         UTIL0194
      00312  0520 00 0 00617         ZET     ERRSW         WAS AN ERROR ENCOUNTERED                   UTIL0195
      00313  0020 00 4 00001         TRA     1,4           YES, ERROR RETURN                          UTIL0196
      00314  0020 00 4 00002         TRA     2,4           NO, NORMAL RETURN                          UTIL0197
                                                                                                      UTIL0198
      00315  0634 00 1 00307  SVX    SXA     X1,1          SETUP ROUTINE FOR SETSS/SETUFD             UTIL0199
      00316  0634 00 2 00310         SXA     X2,2          ..                                         UTIL0200
      00317  0634 00 4 00311         SXA     X4,4          ..                                         UTIL0201
1      M1416 3845  PETER R. BOS ....... UTILITY ROUTINES FOR CTSS ......         01/18/71 1558.4 PAGE 5

      00320  0535 00 1 74502         LAC     USER,1        PICK UP USER NO.                           UTIL0202
      00321  0600 00 0 00617         STZ     ERRSW         RESET ERROR SWITCH                         UTIL0203
      00322  0020 00 7 00001         TRA     1,7           RETURN                                     UTIL0204
                                                                                                      UTIL0205
      00323 -0520 00 0 72233  RSTUFD NZT     TSSFSW        ROUTINE TO RESTORE USER ATTACHMENT         UTIL0206
      00324  0020 00 0 00264         TRA     SETUFD        USER FILES                                 UTIL0207
      00325  0020 00 0 00260         TRA     SETSS         OR TSS FILES                               UTIL0208
                                                                                                      UTIL0209
                                                                                                      UTIL0210
      00326  0 00000 0 72234  TSSTOP PZE     TSSFIL        POINTERS TO DIRECTORY NAMES                UTIL0211
      00327  0 00000 0 72235         PZE     TSSFIL+1      ..                                         UTIL0212
      00330  0 00000 0 72236  USRTOP PZE     USRFIL        ..                                         UTIL0213
      00331  0 00000 0 72237         PZE     USRFIL+1      ..                                         UTIL0214
      00332  0 00000 1 76500         PZE     PROBN,1       ..                                         UTIL0215
      00333  0 00000 1 76305         PZE     UFDNM,1       ..                                         UTIL0216
      00334  0 00000 0 74671  DETACH PZE     Q0            .. DESPERATION MEASURE, DETACH             UTIL0217
      00335  0 00000 0 74670         PZE     Q1            ..                                         UTIL0218
                       00336  UFDTBL SYN     *                                                        UTIL0219
                                                                                                      UTIL0220
                       00010  .TSS.  EQU     UFDTBL-TSSTOP                                            UTIL0221
                       00006  .USR.  EQU     UFDTBL-USRTOP                                            UTIL0222
                       00002  .DET.  EQU     UFDTBL-DETACH                                            UTIL0223
1      M1416 3845  PETER R. BOS ....... UTILITY ROUTINES FOR CTSS ......         01/18/71 1558.4 PAGE 6

                                                                                                      UTIL0225
                                             ..... CHKTSS, SEARCH TSSFIL TABLE FOR UFD NAME .....     UTIL0226
                                                                                                      UTIL0227
      00336  0634 00 4 00400  CHKTSS SXA     CKX4,4        ROUTINE TO CHECK TSSFIL VALIDITY           UTIL0228
      00337  0774 00 4 00026         AXT     TSSMAX+2,4    TABLE SIZE TO X4                           UTIL0229
      00340 -0340 00 4 72156         LAS     TSSFID+TSSMAX+2,4 CHECK NAME1                            UTIL0230
      00341  0020 00 0 00343         TRA     *+2           ..                                         UTIL0231
      00342  0020 00 0 00353         TRA     CHKTS1        .. MATCHES, GO TRY NAME2                   UTIL0232
      00343  2 00002 4 00340  CHKTIX TIX     *-3,4,2       KEEP TRYING                                UTIL0233
      00344  0535 00 4 74502         LAC     USER,4        NO MATCH IN TABLE, GET USER NO.            UTIL0234
      00345 -0340 00 4 76500         LAS     PROBN,4       IS USER CALLING FOR OWN PROBNO             UTIL0235
      00346  0020 00 0 00350         TRA     *+2           .. NO, TOO BAD                             UTIL0236
      00347  0020 00 0 00361         TRA     CHKTS2        .. YES, GO CHECK FOR HOME OR COMFIL        UTIL0237
      00350  0534 00 4 00400  CHKTS0 LXA     CKX4,4        ERROR RETURN, RESTORE X4                   UTIL0238
      00351 -0625 00 0 00617         STL     ERRSW         SET ERROR SWITCH FOR SETUFD                UTIL0239
      00352  0020 60 4 00001         TRA*    1,4           .. AND RETURN                              UTIL0240
                                                                                                      UTIL0241
      00353 -0130 00 0 00000  CHKTS1 XCL                   HERE TO CHECK PROGN OF REQUESTED TSSFIL    UTIL0242
      00354 -0340 00 4 72157         LAS     TSSFID+TSSMAX+3,4  ..                                    UTIL0243
      00355  0020 00 0 00357         TRA     *+2           .. NO GOOD, SKIP                           UTIL0244
      00356  0020 00 0 00377         TRA     CHKXIT        .. HOO-HAA                                 UTIL0245
      00357 -0130 00 0 00000         XCL                   RESTORE PROBN TO AC                        UTIL0246
      00360  0020 00 0 00343         TRA     CHKTIX        GO TRY AGAIN                               UTIL0247
                                                                                                      UTIL0248
      00361 -0130 00 0 00000  CHKTS2 XCL                   HERE IF ON USER'S PROBN                    UTIL0249
      00362 -0340 00 4 76305         LAS     UFDNM,4       IS THIS USER'S HOME UFD                    UTIL0250
      00363  0020 00 0 00365         TRA     *+2           .. NO                                      UTIL0251
      00364  0020 00 0 00377         TRA     CHKXIT        .. YES, ALLOW HOME UFD                     UTIL0252
      00365  0044 00 0 00000         PAI                   SAVE PROGN                                 UTIL0253
      00366  0057 00  007777         RIR     7777          .. CHECK FOR 'CMFL**'                      UTIL0254
      00367  0440 00 0 74640         IIS     CMFL00        ..                                         UTIL0255
      00370  0444 00 0 74641         OFT     FENCE         ..                                         UTIL0256
      00371  0020 00 0 00375         TRA     CHKTS3        .. NO, ILLEGAL TSSFIL REQUEST              UTIL0257
      00372  0441 00 0 72232         LDI     URCODE        USER WANTS COMMON FILE, CHECK RCODE BIT    UTIL0258
      00373  0054 00  000001         RFT     RCOMBT        ..                                         UTIL0259
      00374  0020 00 0 00377         TRA     CHKXIT        .. ALLOW COMMON FILE FOR PRIVILEGED USER   UTIL0260
      00375 -0130 00 0 00000  CHKTS3 XCL                   HERE IF NOT HOME UFD OR COMFIL             UTIL0261
      00376  0020 00 0 00350         TRA     CHKTS0        .. GIVE ERROR RETURN                       UTIL0262
                                                                                                      UTIL0263
      00377 -0130 00 0 00000  CHKXIT XCL                   COMMON RETURN, RESTORE PROBN TO AC         UTIL0264
      00400  0774 00 4 00000  CKX4   AXT     -,4           RESTORE X4                                 UTIL0265
      00401  0020 00 4 00002         TRA     2,4           RETURN                                     UTIL0266
1      M1416 3845  PETER R. BOS ....... UTILITY ROUTINES FOR CTSS ......         01/18/71 1558.4 PAGE 7

                                                                                                      UTIL0268
                                             ..... ATTACH USER TO UFD IN AC-MQ .....                  UTIL0269
                                                                                                      UTIL0270
      00402  0634 00 4 00445  ATTFIL SXA     ATFX4,4       ROUTINE TO ATTACH USER TO UFD              UTIL0271
      00403  0602 00 0 00621         SLW     ATFN1         ..                                         UTIL0272
      00404 -0600 00 0 00622         STQ     ATFN2         ..                                         UTIL0273
      00405  0600 00 0 00620         STZ     ATTER         RESET ERROR SWITCH                         UTIL0274
      00406                          CALL    SETUSR(Q2,TRCODE,M0,M0,M0,M0)                            UTIL0275
      00415                          SETAB   LA,*,*        MEMORY SWITCHES FOR CALLS FROM MEM. A      UTIL0276
      00421  0074 00 4 00001         TSX     ATTNAM,4      SEE IF ATTACH CALL NEEDED                  UTIL0277
      00422  3 00002 0 00615         PAR     TEMP,,2       ..                                         UTIL0278
      00423 -0500 00 0 00615         CAL     TEMP          ..                                         UTIL0279
      00424  0322 00 0 00621         ERA     ATFN1         ..                                         UTIL0280
      00425 -0100 00 0 00431         TNZ     ATTFL.        .. YES                                     UTIL0281
      00426 -0500 00 0 00616         CAL     TEMP+1        ..                                         UTIL0282
      00427  0322 00 0 00622         ERA     ATFN2         ..                                         UTIL0283
      00430  0100 00 0 00436         TZE     RSUSR         .. NO                                      UTIL0284
      00431                   ATTFL. CALL    ATTACH(ATFN1,ATFN2,PRDIAG,ATTER)                         UTIL0285
      00436                   RSUSR  CALL    SETUSR(Q2,URCODE,M0,M0,M0,M0)                            UTIL0286
      00445  0774 00 4 00000  ATFX4  AXT     -,4           ..                                         UTIL0287
      00446 -0520 00 0 00620         NZT     ATTER         CHECK FOR ERROR                            UTIL0288
      00447  0020 00 4 00002         TRA     2,4           NO, NORMAL RETURN                          UTIL0289
      00450 -0625 00 0 00617         STL     ERRSW         SET ERROR SWITCH FOR SETUFD                UTIL0290
      00451  0020 00 4 00001         TRA     1,4           ERROR RETURN                               UTIL0291
                                                                                                      UTIL0292
                                                                                                      UTIL0293
      00452  0535 00 7 74502  CHKDIR LAC     USER,7        MAY USER ACCESS FILE DIRECTORY             UTIL0294
      00453  0441 00 0 72232         LDI     URCODE        .. GET RESTRICTION CODE                    UTIL0295
      00454  0054 00  000002         RFT     RCALBT        .. SEE IF PRIVILEGED                       UTIL0296
      00455  0020 00 4 00004         TRA     4,4           .. YES, ANY UFD IS OK                      UTIL0297
      00456 -0500 60 4 00001         CAL*    1,4           CHECK PROBN                                UTIL0298
      00457  0322 00 7 76500         ERA     PROBN,7       ..                                         UTIL0299
      00460 -0100 00 0 00472         TNZ     CHKCUR        .. SKIP IF NO MATCH                        UTIL0300
      00461 -0500 60 4 00002         CAL*    2,4           .. CHECK PROGN                             UTIL0301
      00462  0322 00 7 76305         ERA     UFDNM,7       ..                                         UTIL0302
      00463  0100 00 4 00004         TZE     4,4           .. OWN UFD IS OK                           UTIL0303
      00464  0056 00  000001         RNT     RCOMBT        MAY USER USE COMMON FILES                  UTIL0304
      00465  0020 00 0 00472         TRA     CHKCUR        .. NO                                      UTIL0305
      00466 -0500 60 4 00002         CAL*    2,4           .. SEE IF COMMON FILE                      UTIL0306
      00467  0322 00 0 74640         ERA     CMFL00        ..                                         UTIL0307
      00470 -0320 00 0 00637         ANA     =O777777770000 ..                                        UTIL0308
      00471  0100 00 4 00004         TZE     4,4           .. COMMON FILE IS OK.                      UTIL0309
      00472 -0500 60 4 00001  CHKCUR CAL*    1,4           IS THIS USER'S CURRENT UFD                 UTIL0310
      00473  0322 00 0 72236         ERA     USRFIL        ..                                         UTIL0311
      00474 -0100 60 4 00003         TNZ*    3,4           NO, CAN'T GET THERE FROM HERE              UTIL0312
      00475 -0500 60 4 00002         CAL*    2,4           ..                                         UTIL0313
      00476  0322 00 0 72237         ERA     USRFIL+1      ..                                         UTIL0314
      00477  0100 00 4 00004         TZE     4,4           .. CURRENT ATTACHED UFD IS OK              UTIL0315
      00500 -0100 60 4 00003         TNZ*    3,4           .. ANYTHING ELSE NOT ALLOWED               UTIL0316
1      M1416 3845  PETER R. BOS ....... UTILITY ROUTINES FOR CTSS ......         01/18/71 1558.4 PAGE 8

                                                                                                      UTIL0318
                                             ..... CLOSE USER ACTIVE FILES .....                      UTIL0319
                                                                                                      UTIL0320
      00501  0634 00 1 00514  RESET  SXA     RESET1,1      SAVE XRS                                   UTIL0321
      00502  0634 00 4 00515         SXA     RESET4,4      ..                                         UTIL0322
      00503  0600 00 0 00617         STZ     ERRSW         RESET ERROR SWITCH                         UTIL0323
                                                                                                      UTIL0324
      00504  0774 00 1 00012         AXT     ACTFIL,1      MAX. NUMBER OF ACTIVE FILES                UTIL0325
      00505  0074 00 4 00005  RESET3 TSX     CLOSE,4       TRY TO RESET FILES NORMALLY                UTIL0326
      00506  3 00000 0 00633         PAR     =HALL         ..                                         UTIL0327
      00507  3 00000 0 00634         PAR     =-0           ..                                         UTIL0328
      00510  3 00000 0 00517         PAR     RESERR        .. POSSIBLE ERROR                          UTIL0329
                                                                                                      UTIL0330
      00511  0520 00 0 00617         ZET     ERRSW         HAS THERE BEEN AN ERROR CLOSING            UTIL0331
      00512  0074 00 4 00013  RESET2 TSX     RESETF,4      .. YES, CLOSE OUT REST OF UFD              UTIL0332
      00513  3 00000 0 00514         PAR     *+1           .. AND IGNORE POSSIBLE ERROR RETURN        UTIL0333
                                                                                                      UTIL0334
      00514  0774 00 1 00000  RESET1 AXT     **,1          RETURN TO CALLER                           UTIL0335
      00515  0774 00 4 00000  RESET4 AXT     **,4          ..                                         UTIL0336
      00516  0020 00 4 00001         TRA     1,4           ..                                         UTIL0337
                                                                                                      UTIL0338
      00517 -0625 00 0 00617  RESERR STL     ERRSW         SET SWITCH TO DENOTE ERROR                 UTIL0339
      00520  2 00001 1 00505         TIX     RESET3,1,1    LOOP BACK ON NUMBER OF POSSIBLE FILES      UTIL0340
      00521  0020 00 0 00512         TRA     RESET2        RESET REST OF UFD                          UTIL0341
                                                                                                      UTIL0342
                                                                                                      UTIL0343
                                             ..... PRINT BASIC DISK DIAGNOSTIC .....                  UTIL0344
                                                                                                      UTIL0345
      00522  0634 00 4 00571  PRDIAG SXA     PRDX4,4       SAVE XR4                                   UTIL0346
      00523  0074 00 4 00010         TSX     IODIAG,4      GET DISK DIAGNOSTIC                        UTIL0347
      00524  3 00006 0 00623         PAR     BLOCK,,6      ..                                         UTIL0348
      00525  0500 00 0 00627         CLA     BLOCK+4       PRIMARY NAME OF FILE                       UTIL0349
      00526  0560 00 0 00630         LDQ     BLOCK+5       SECONDARY                                  UTIL0350
      00527 -0603 00 0 00605         DST     DIAG+10       PLACE IN ERROR MESSAGE                     UTIL0351
      00530 -0500 00 0 00624         CAL     BLOCK+1       DISK ROUTINE CALLED                        UTIL0352
      00531  0602 00 0 00603         SLW     DIAG+8        ..                                         UTIL0353
      00532 -0500 00 0 00623         CAL     BLOCK         LOC'N OF ERROR                             UTIL0354
      00533 -0765 00 0 00022         LGR     18            ..                                         UTIL0355
      00534  0074 00 4 00003         TSX     BTOC,4        CONVERT TO BCD                             UTIL0356
      00535 -0501 00 0 00635         ORA     =O570000000000 ..                                        UTIL0357
      00536  0602 00 0 00600         SLW     DIAG+5        ..                                         UTIL0358
      00537  0560 00 0 00607         LDQ     I.O           CHECK FOR I/O ERROR                        UTIL0359
      00540 -0500 00 0 00626         CAL     BLOCK+3       ..                                         UTIL0360
      00541 -0100 00 0 00544         TNZ     *+3           IF NON ZERO, I/O ERROR                     UTIL0361
      00542  0560 00 0 74643         LDQ     NULLS         OTHERWISE, REGULAR ERROR                   UTIL0362
      00543 -0500 00 0 00625         CAL     BLOCK+2       ..                                         UTIL0363
      00544 -0600 00 0 00573         STQ     DIAG          ..                                         UTIL0364
      00545 -0130 00 0 00000         XCL                   ..                                         UTIL0365
      00546  0074 00 4 00002         TSX     BTDC,4        CONVERT                                    UTIL0366
      00547 -0501 00 0 00636         ORA     =O575760000000 ..                                        UTIL0367
      00550  0602 00 0 00575         SLW     DIAG+2        ..                                         UTIL0368
      00551                          TYPEX   WRFLX,DIAG,12,USER,.F.,0  TYPE TO USER                   UTIL0369
      00554  0074 00 4 00007         TSX     GETUSR,4      FIND OUT CURRENT FILE SYSTEM USER          UTIL0370
      00555  3 00002 0 00615         PAR     TEMP,,2       ..                                         UTIL0371
      00556 -0500 00 0 00615         CAL     TEMP          CHECK FOR CTSS AS DISK USER                UTIL0372
      00557  0402 00 0 74670         SUB     Q1            ..                                         UTIL0373
1      M1416 3845  PETER R. BOS ....... UTILITY ROUTINES FOR CTSS ......         01/18/71 1558.4 PAGE 9

      00560  0100 00 0 00567         TZE     PRNTON        PRINT DIAGNOSTIC ONLINE FOR TSS            UTIL0374
      00561  0441 00 0 00616         LDI     TEMP+1        GET CALL MEMORY SWITCH                     UTIL0375
      00562  0056 00  000001         RNT     1             WAS THIS CALL FROM MEM. A                  UTIL0376
      00563  0020 00 0 00571         TRA     PRDX4         .. NO, EXIT                                UTIL0377
      00564 -0500 00 0 00625         CAL     BLOCK+2       PICK UP ERROR CODE                         UTIL0378
      00565  0402 00 0 74670         SUB     Q1            WAS THIS ILLEGAL CALLING SEQUENCE          UTIL0379
      00566 -0100 00 0 00571         TNZ     PRDX4         .. NO, EXIT                                UTIL0380
      00567  0074 00 4 00011  PRNTON TSX     WRTOPR,4      HERE IF TSS IS DISK USER, PRINT ONLINE     UTIL0381
      00570  0 00014 0 00573         PZE     DIAG,,12      ..                                         UTIL0382
      00571  0774 00 4 00000  PRDX4  AXT     **,4          RETURN TO CALLER                           UTIL0383
      00572  0020 00 4 00001         TRA     1,4                                                      UTIL0384
                                                                                                      UTIL0385
      00573  0 00000 0 00000  DIAG   PZE                                                              UTIL0387
      00574  602551514651            BCI     * ERROR*                                                 UTIL0388
      00575  0 00000 0 00000         PZE                                                              UTIL0389
      00576  602646644524            BCI     * FOUND AT *                                             UTIL0390
      00600  0 00000 0 00000         PZE                                                              UTIL0391
      00601  603145602321            BCI     * IN CALL TO *                                           UTIL0392
      00603  0 00000 0 00000         PZE                                                              UTIL0393
      00604  602646516057            BCI     * FOR *                                                  UTIL0394
      00605  0 00000 0 00000         PZE                                                              UTIL0395
      00606  0 00000 0 00000         PZE                                                              UTIL0396
                                                                                                      UTIL0397
      00607  603161465757     I.O    BCI     * I/O*                                                   UTIL0398
1      M1416 3845  PETER R. BOS ....... UTILITY ROUTINES FOR CTSS ......         01/18/71 1558.4 PAGE 10

                                                                                                      UTIL0400
                                             ..... STORAGE AND CONSTANTS .....                        UTIL0401
                                                                                                      UTIL0402
      00610  0 00000 0 00000  SBIND  PZE                   INDICATOR FOR STANDBY USER SEARCH          UTIL0403
      00611  0 00000 0 00000  UTM    PZE                   TIME USED BY USER                          UTIL0404
      00612  0 00000 0 00000  LOSER  PZE                   USER NUMBER OF LOSER                       UTIL0405
      00613  0 00000 0 00000  TGRP   PZE                   USER GROUP NUMBER FOR FINDSB               UTIL0406
      00614  000000000002     TRCODE VFD     O18/0,O18/RCALBT                                         UTIL0407
      00615                   TEMP   BSS     2             TEMP. STORAGE                              UTIL0408
      00617  0 00000 0 00000  ERRSW  PZE                   ERROR FLAG FOR SETUFD                      UTIL0409
      00620  0 00000 0 00000  ATTER  PZE                   ERROR FLAG FOR ATTFIL                      UTIL0410
      00621  0 00000 0 00000  ATFN1  PZE                   FILE DIRECTORY NAME FOR ATTFIL             UTIL0411
      00622  0 00000 0 00000  ATFN2  PZE                   ..                                         UTIL0412
      00623                   BLOCK  BSS     6             DIAGNOSTIC STORAGE FOR IODIAG              UTIL0413
                                                                                                      UTIL0414
      00631                          RMT     *                                                        UTIL0416
      00631  662131635757     ..001  BCI     /WAIT/                                                   UTIL0416.001
                                     END                                                              UTIL0418

        LITERALS
      00632  010000000000
      00633  214343606060
      00634  400000000000
      00635  570000000000
      00636  575760000000
      00637  777777770000
1      M1416 3845  PETER R. BOS ....... UTILITY ROUTINES FOR CTSS ......         01/18/71 1558.4 PAGE 1
                        POST PROCESSOR ASSEMBLY DATA

       72127 IS THE LAST LOCATION NOT USED BY THIS PROGRAM
        640 IS THE FIRST LOCATION NOT USED BY THIS PROGRAM

0REFERENCES TO DEFINED SYMBOLS
         50      N    32,   75
         12      Q   124
      74653     LA   161,  213,  245,  416
      74654     M0   157,  162,  163,  214,  215,  230,  246,  247,  411,  412,  413,  414,  417,  420,  441,  442,  443
                     444
      74671     Q0    36,   41,  101,  135,  154,  156,  334
      74670     Q1   131,  152,  211,  223,  335,  557,  565
      74667     Q2   127,  137,  243,  407,  437
      74666     Q3   141
      74663     Q6   133
        307     X1   315
        310     X2   316
        311     X4   317
         70    CKT    54
         77    FX4    43
        607    I.O   537
          1    .F.   553
        315    SVX   260,  264
        611    UTM    56,   71,   72
        231   ATX1   147,  201,  234
        232   ATX4   150,  202,  235
          2   BTDC   546
          3   BTOC   534
        400   CKX4   336,  350
        573   DIAG   527,  531,  536,  544,  550,  552,  570
        252   GTX4   241
         22   ISIN     0
         23   ISN1    32
         31   ISN2    25
         34   ISN3    30
        101   KILL     0
        144   KLX1   102
        145   KLX4   103
        266   SET1   276
        615   TEMP   165,  166,  171,  207,  217,  220,  422,  423,  426,  555,  556,  561
        613   TGRP    45,   65,   66
      74502   USER   203,  320,  344,  452,  553
        621  ATFN1   403,  424,  432
        622  ATFN2   404,  427,  433
        445  ATFX4   402
        620  ATTER   405,  435,  446
        623  BLOCK   524,  525,  526,  530,  532,  540,  543,  564
          5  CLOSE   505
      74647  DMASK   155
        617  ERRSW   312,  321,  351,  450,  503,  511,  517
      74641  FENCE   370
          2  .DET.   267,  336
        631  ..001   117,  632
          1  ..002   117,  632
         10  .TSS.   262,  336
1      M1416 3845  PETER R. BOS ....... UTILITY ROUTINES FOR CTSS ......         01/18/71 1558.4 PAGE 2
                        POST PROCESSOR ASSEMBLY DATA

          6  .USR.   265,  272,  302,  336
         21  .WRFX   116
        122  KILL1   110,  113
        612  LOSER    55,   73,   76,  106,  115,  120,  130,  134,  140
      74643  NULLS   542
        571  PRDX4   522,  563,  566
      72157  PRIND   226
      76500  PROBN    24,   60,  123,  204,  332,  345,  457
      76427  PROGN    27
      76041  RCODE   224,  305
        501  RESET     0
      72160  RLIND   227
         14  RSSWB   114
        436  RSUSR   430
        610  SBIND    37,   42,   63
         74  SBTIX    61,   64,   67
         16  SETAB   160,  212,  244,  415
        260  SETSS     0,  325
      76305  UFDNM   206,  333,  362,  462
      76622  UTIME    53
         20  WRFLX   551
         12 ACTFIL   504
        234 ATERTN   177,  205,  221
        174 ATSYS1   170
          0 ATTACH   174,  216,  431
        402 ATTFIL     0,  275
        431 ATTFL.   425
          1 ATTNAM   164,  250,  421
        231 ATTRTN   173,  200
        147 ATTSYS     0
        201 ATTUSR     0
      72231 AUTHOR   225
        472 CHKCUR   460,  465
        452 CHKDIR     0
        343 CHKTIX   360
        350 CHKTS0   376
        353 CHKTS1   342
        361 CHKTS2   347
        375 CHKTS3   371
        336 CHKTSS     0,  273
        377 CHKXIT   356,  364,  374
          4 CHNGUS   210,  242
      74640 CMFL00   367,  467
      75575 COMMND   125
      74631 CTSSID   167,  172,  175,  176
        334 DETACH   336
          6 ENDLOG   122
         36 FINDSB     0
         41 FINDUS     0,   40
        253 GETUF1   240
        237 GETUFD     0,  261
          7 GETUSR   554
      76112 GRPNO.    62
         10 IODIAG   523
        522 PRDIAG     0,  434
1      M1416 3845  PETER R. BOS ....... UTILITY ROUTINES FOR CTSS ......         01/18/71 1558.4 PAGE 3
                        POST PROCESSOR ASSEMBLY DATA

        567 PRNTON   560
          2 RCALBT   454,  614
          1 RCOMBT   373,  464
        517 RESERR   510
        514 RESET1   501
        512 RESET2   521
        505 RESET3   520
        515 RESET4   502
         13 RESETF   512
        323 RSTUFD     0
        400 RTSSBT   300,  303
         60 SBLOOP    75
         15 SCHEDL   126,  132,  136
        264 SETUFD     0,  324
         17 SETUSR   151,  222,  406,  436
      74534 SYSMSG   107
        614 TRCODE   410
      74633 TSRCOD   153
      72130 TSSFID   340,  354
      72234 TSSFIL   256,  257,  326,  327
        256 TSSFL.     0
      72233 TSSFSW   237,  301,  304,  323
         24 TSSMAX   337,  340,  354
        326 TSSTOP   336
        336 UFDTBL   266,  270,  271,  336
      72232 URCODE   277,  306,  372,  440,  453
      72236 USRFIL   251,  253,  254,  330,  331,  473,  476
        330 USRTOP   336
      75524 USWICH   143
         11 WRTOPR   567

0 NO ERROR IN ABOVE ASSEMBLY.


PMTI8A   BCD 03/04/70 1439.3   11340         00000
1       M1416 786  R. DALEY ..... PROTECTION TRAP PROCESSOR ..............       03/04/70 1419.6 PAGE 1

                                                                                                      PMTI0005
                       00011         ENTRY   PTRAP         ENTRY ON ALL PROTECTION TRAPS              PMTI0006
                       00352         ENTRY   PTERR         ENTRY FOR PROTECTION ERROR RETURN          PMTI0007
                       00575         ENTRY   PCKIO         ENTRY TO CHECK I/O IN PROGRESS FOR FMS     PMTI0008
                       00334         ENTRY   PIOSEL        POINTER TO I/O SELECT INSTRUCTION          PMTI0009
                       00417         ENTRY   CKXEC         UTILITY ROUTINE TO CHECK XEC               PMTI0010
                       00512         ENTRY   CKRLC         ROUTINE TO CHECK ADDRESS REQUEST           PMTI0011
                       00520         ENTRY   BLKCHK        ROUTINE TO CHECK BLOCK ADDRESSES           PMTI0012
                                                                                                      PMTI0013
                                     EXTERN  SAVCPU,RSTCPU,DORMNT,PCKSUB,BTOC,WRFLX                   PMTI0014
                                     EXTERN  SVSIRS,RSTIRS,GTSIRS                                     PMTI0015
                                                                                                      PMTI0016
                                     UNLIST                                                           PMTI0017

                                                                                                      PMTI0023
                       00032  PTILC  EQU     26            ILC+1 SAVED HERE ON PROTECTION TRAP        PMTI0024
                       00033  PTLOC  SYN     PTILC+1       CONTROL TRANSFERED HERE ON PROTECTION TRAP PMTI0025
                                                                                                      PMTI0026
                                                                                                      PMTI0027
                                                                                                      PMTI0028
                                                                                                      PMTI0029
      00011  0564 00 0 77777  PTRAP  ENB     ENBWD         HERE ON ALL PROTECTION TRAPS               PMTI0030
      00012  0634 00 4 72166         SXA     IR4,4         SAVE MACHINE CONDITIONS                    PMTI0031
      00013  0074 00 4 00000         TSX     SAVCPU,4      ..                                         PMTI0032
      00014  0 00000 0 00032                 PTILC         ..                                         PMTI0033
      00015  0534 00 4 72162         LXA     ILC,4         ILC+1 OF INSTRUCTION CAUSING TRAP          PMTI0034
      00016  1 77777 4 00017         TXI     *+1,4,-1      ADDRESS OF TRAPPED INSTRUCTION             PMTI0035
      00017  0754 00 4 00000         PXA     0,4           INTO AC                                    PMTI0036
      00020  0074 00 4 00512         TSX     CKRLC,4       CHECK IF THIS CAUSED TRAP                  PMTI0037
      00021  0 00000 0 00351                 ERRILC        ERROR RETURN                               PMTI0038
      00022  0737 00 1 00000         PAC     0,1           NORMAL RETURN ABS LOCATION IN AC           PMTI0039
      00023  0621 00 0 00352         STA     PTERR         SET UP PTERR LOCATION FOR POSSIBLE ERROR   PMTI0040
      00024 -0761 00 0 00042         SEB                                                              PMTI0041
      00025 -0500 00 1 00000         CAL     0,1           PICK UP VIOLATING INSTRUCTION              PMTI0042
      00026 -0761 00 0 00041         SEA                                                              PMTI0043
      00027  0074 00 4 00417         TSX     CKXEC,4       CHECK FOR EXECUTE                          PMTI0044
      00030  0602 00 0 00730         SLW     PTOP          SAVE INSTRUCTION EXECUTED                  PMTI0045
      00031  0734 00 2 00000         PAX     0,2           CHECK FOR SUBROUTINE CALL (TIA)            PMTI0046
      00032 -0320 00 0 00775         ANA     =O777777700000                                           PMTI0047
      00033  0322 00 0 00765         ERA     =O010100000000                                           PMTI0048
      00034  0100 00 0 00003         TZE     PCKSUB        TIA FOUND, GO TO CHECK SUBROUTINE NAME     PMTI0049
      00035  0520 00 0 74502         ZET     USER          NOT TIA, IS USER BACKGROUND                PMTI0050
      00036  0020 00 0 00352         TRA     PTERR         NO, ERROR                                  PMTI0051
                                                                                                      PMTI0052
                                             PINTRP ...... I/O INTERPRETER FOR BACKGROUND SYSTEM      PMTI0053
                                                                                                      PMTI0054
      00037  0560 00 0 00733  PINTRP LDQ     NOP           RESET I/O SETTINGS                         PMTI0055
      00040 -0600 00 0 00332         STQ     PTTCO         ..                                         PMTI0056
      00041 -0600 00 0 00334         STQ     PIOSEL        ..                                         PMTI0057
      00042 -0600 00 0 00336         STQ     PTRCH         ..                                         PMTI0058
      00043 -0600 00 0 00344         STQ     PTSPRT-1      ..                                         PMTI0059
      00044 -0600 00 0 00343         STQ     PTSPRT-2      ..                                         PMTI0060
      00045 -0600 00 0 00342         STQ     PTSPRT-3      ..                                         PMTI0061
      00046  0634 00 0 00340         SXA     PSPRCT,0      RESET SPR COUNT                            PMTI0062
      00047  0600 00 0 00732         STZ     PCKSW         RESET I/O MONITOR SWITCH                   PMTI0063
                                                                                                      PMTI0064
1       M1416 786  R. DALEY ..... PROTECTION TRAP PROCESSOR ..............       03/04/70 1419.6 PAGE 2

      00050  0774 00 2 00025         AXT     EPTAB-PTAB,2  CHECK LIST OF SPECIAL INSTRUCTIONS         PMTI0065
      00051 -0500 00 0 00730         CAL     PTOP          GET OP                                     PMTI0066
      00052 -0320 00 0 00774         ANA     =O777700000000                                           PMTI0067
      00053  0602 00 0 00731         SLW     PTTMP         SAVE OP.                                   PMTI0068
      00054 -0500 00 2 00641  PTSRH1 CAL     EPTAB,2       SEARCH OP. TABLE                           PMTI0069
      00055 -0320 00 0 00774         ANA     =O777700000000                                           PMTI0070
      00056 -0340 00 0 00731         LAS     PTTMP         ..                                         PMTI0071
      00057  0020 00 0 00061         TRA     *+2           ..                                         PMTI0072
      00060  0020 60 2 00641         TRA*    EPTAB,2       .. FOUND                                   PMTI0073
      00061  2 00001 2 00054         TIX     PTSRH1,2,1    ..                                         PMTI0074
      00062  0020 00 0 00353         TRA     PTERR1        NOT FOUND, MUST BE AN ERROR                PMTI0075
                                                                                                      PMTI0076
      00063 -0500 00 0 00730  PSEL   CAL     PTOP          PICK UP SELECT                             PMTI0077
      00064  0074 00 4 00552         TSX     CKIOA,4       CHECK IO ADDRESS                           PMTI0078
      00065  0 00000 0 00353                 PTERR1        ERROR RETURN                               PMTI0079
      00066  0602 00 0 00334         SLW     PIOSEL        NORMAL RETURN, INST IN AC                  PMTI0080
      00067  0771 00 0 00011         ARS     9             GET CHANNEL NO.                            PMTI0081
      00070 -0320 00 0 74666         ANA     Q3            ..                                         PMTI0082
      00071  0441 00 0 72211         LDI     UENBWD        USER ENABLE WORD                           PMTI0083
      00072  0042 00 0 00100         TIO     CKSPR         SKIP IF USER ENABLED FOR EOC               PMTI0084
      00073  0771 00 0 00001         ARS     1             EOC DISABLED FOR THIS CHANNEL              PMTI0085
      00074  0737 00 4 00000         PAC     0,4           LOOSE EOC TRAP                             PMTI0086
      00075 -0500 00 4 72212         CAL     ATRILC,4      ..                                         PMTI0087
      00076 -0320 00 0 00761         ANA     =O6000000     ..                                         PMTI0088
      00077  0602 00 4 72212         SLW     ATRILC,4      ..                                         PMTI0089
      00100  1 77777 1 00101  CKSPR  TXI     *+1,1,-1      PICK UP NEXT INSTRUCTION                   PMTI0090
      00101 -0761 00 0 00042         SEB                   ..                                         PMTI0091
      00102 -0500 00 1 00000         CAL     0,1           ..                                         PMTI0092
      00103 -0761 00 0 00041         SEA                   ..                                         PMTI0093
      00104  0074 00 4 00417         TSX     CKXEC,4       CHECK FOR EXECUTE                          PMTI0094
      00105  0602 00 0 00730         SLW     PTOP          SAVE INSTRUCTION EXECUTED                  PMTI0095
      00106 -0320 00 0 00776         ANA     =O777777777740 CHECK FOR SPRA OR SPUA                    PMTI0096
      00107 -0340 00 0 00770         LAS     =O076000001340 ..                                        PMTI0097
      00110  0020 00 0 00112         TRA     *+2           ...NOT FOUND                               PMTI0098
      00111  0020 00 0 00123         TRA     PSPR          ..FOUND, GO TO PROCESS                     PMTI0099
      00112 -0320 00 0 00774         ANA     =O777700000000                                           PMTI0100
      00113 -0340 00 0 00733         LAS     NOP           CHECK FOR NOP                              PMTI0101
      00114  0020 00 0 00116         TRA     *+2           ..NOT FOUND                                PMTI0102
      00115  0020 00 0 00123         TRA     PSPR          ..FOUND, TREAT AS SPR                      PMTI0103
      00116 -0320 00 0 00773         ANA     =O377700000000                                           PMTI0104
      00117 -0340 00 0 00767         LAS     =O054000000000 CHECK FOR RCHA OR RCHB                    PMTI0105
      00120  1 00001 1 00326         TXI     PTENDS,1,1    ..NOT FOUND, EXIT                          PMTI0106
      00121  0020 00 0 00133         TRA     PRCH          ..RCH FOUND, GO TO PROCESS                 PMTI0107
      00122  1 00001 1 00326         TXI     PTENDS,1,1    ..NOT FOUND                                PMTI0108
                                                                                                      PMTI0109
      00123  0534 00 4 00340  PSPR   LXA     PSPRCT,4      SPRA FOUND                                 PMTI0110
      00124  1 00001 4 00125         TXI     *+1,4,1       UP TABLE COUNT                             PMTI0111
      00125 -3 00003 4 00127         TXL     *+2,4,3                                                  PMTI0112
      00126  0774 00 4 00001         AXT     1,4           RESET COUNT IF MORE THAN 3 SPRAS FOUND     PMTI0113
      00127 -0500 00 0 00730         CAL     PTOP          MOVE SPRA TO TABLE                         PMTI0114
      00130  0602 00 4 00345         SLW     PTSPRT,4      ..                                         PMTI0115
      00131  0634 00 4 00340         SXA     PSPRCT,4                                                 PMTI0116
      00132  0020 00 0 00100         TRA     CKSPR         GO BACK TO LOOK FOR MORE                   PMTI0117
                                                                                                      PMTI0118
      00133 -0500 00 0 00730  PRCH   CAL     PTOP          PICK UP RCHA OR RCHB                       PMTI0119
      00134  0074 00 4 00446         TSX     CKRLOC,4      CHECK ADDRESS                              PMTI0120
1       M1416 786  R. DALEY ..... PROTECTION TRAP PROCESSOR ..............       03/04/70 1419.6 PAGE 3

      00135  0 00000 0 00353                 PTERR1        ERROR RETURN                               PMTI0121
      00136  0602 00 0 00336         SLW     PTRCH                                                    PMTI0122
      00137  0044 00 0 00000         PAI                   RCHX TO SI                                 PMTI0123
      00140 -0320 00 0 00764         ANA     =O000300000000 CONVERT RCHX TO TCOX                      PMTI0124
      00141  0767 00 0 00001         ALS     1              ..                                        PMTI0125
      00142 -0054 00  400000         LFT     400000         ..                                        PMTI0126
      00143  0400 00 0 00763         ADD     =O000100000000 ..                                        PMTI0127
      00144 -0501 00 0 00721         ORA     PTCOS          .. TCOA PTTCO                             PMTI0128
      00145  0602 00 0 00332         SLW     PTTCO         PRECEDE RCHX WITH TCOX                     PMTI0129
      00146  0535 00 2 00336         LAC     PTRCH,2       -ADDRESS OF I/O COMMAND                    PMTI0130
      00147 -0761 00 0 00042         SEB                                                              PMTI0131
      00150  0441 00 2 00000         LDI     0,2           PICK UP I/O COMMAND                        PMTI0132
      00151  0055 00  100000         SIR     100000        INSURE BIT 20 SET FOR CORE B               PMTI0133
      00152  0604 00 2 00000         STI     0,2           ..                                         PMTI0134
      00153 -0761 00 0 00041         SEA                                                              PMTI0135
      00154 -0500 00 0 00334         CAL     PIOSEL        I/O SELECT INSTR. IF ANY                   PMTI0136
      00155 -0320 00 0 00774         ANA     =O777700000000                                           PMTI0137
      00156 -0340 00 0 00771         LAS     =O076200000000 IS IT A READ SELECT                       PMTI0138
      00157  0020 00 0 00326         TRA     PTENDS        NO, SKIP CHECKING                          PMTI0139
      00160  0020 00 0 00162         TRA     *+2           YES, GO CHECK FOR VIOLATION                PMTI0140
      00161  0020 00 0 00326         TRA     PTENDS        NO, SKIP CHECKING                          PMTI0141
      00162 -0046 00 0 00000         PIA                   HERE FOR RDS, RESTORE I/O COMMAND TO AC    PMTI0142
      00163  0771 00 0 00017         ARS     15            COMMAND OP CODE INTO DECR.                 PMTI0143
      00164 -0734 00 4 00000         PDX     0,4           OPERATION CODE INTO IR4                    PMTI0144
      00165 -0625 00 0 00732         STL     PCKSW         SET CHECK SWITCH IN CASE OF EXIT TO PTENDS PMTI0145
      00166 -3 00000 4 00174         TXL     PCKCOM,4,0    IOCD                                       PMTI0146
      00167 -3 00002 4 00326         TXL     PTENDS,4,2    TCH OR IORP                                PMTI0147
      00170 -3 00003 4 00174         TXL     PCKCOM,4,3    IORT                                       PMTI0148
      00171 -3 00004 4 00326         TXL     PTENDS,4,4    IOCP                                       PMTI0149
      00172 -3 00005 4 00174         TXL     PCKCOM,4,5    IOCT                                       PMTI0150
      00173 -3 00006 4 00326         TXL     PTENDS,4,6    IOSP                                       PMTI0151
      00174  0600 00 0 00732  PCKCOM STZ     PCKSW         RESET CHECK SWITCH FOR IOCD IORT IOCT IOST PMTI0152
      00175  0056 00  400000         RNT     400000        IS COMMAND INDIRECTLY ADDRESSED            PMTI0153
      00176  0020 00 0 00326         TRA     PTENDS        NO, SKIP TO END                            PMTI0154
      00177 -0046 00 0 00000         PIA                   YES, COMMAND TO AC                         PMTI0155
      00200  0737 00 2 00000         PAC     0,2           GET INDIRECT ADDRESS                       PMTI0156
      00201 -0761 00 0 00042         SEB                                                              PMTI0157
      00202  0441 00 2 00000         LDI     0,2           PICK UP DIRECT ADDRESS                     PMTI0158
      00203  0055 00  100000         SIR     100000        INSURE BIT 20 SET FOR CORE B               PMTI0159
      00204  0604 00 2 00000         STI     0,2           ..                                         PMTI0160
      00205 -0761 00 0 00041         SEA                                                              PMTI0161
      00206  0020 00 0 00326         TRA     PTENDS        SKIP TO END                                PMTI0162
                                                                                                      PMTI0163
      00207 -0500 00 0 00730  PMPSE  CAL     PTOP          PICK UP PSE OR MSE                         PMTI0164
      00210  0044 00 0 00000         PAI                   TO SI                                      PMTI0165
      00211  0445 00 0 00762         RIS     =O77777777    MASK OUT ADDR,TAG AND LOW ORDER DECR.      PMTI0166
      00212 -0320 00 0 00760         ANA     =O717777      ADDRESS AND TAG ONLY IN AC                 PMTI0167
      00213  0074 00 4 00472         TSX     CMPEFA,4      COMPUTE EFFECTIVE ADDRESS                  PMTI0168
      00214  0043 00 0 00000         OAI                   OR IN OP. CODE (PZE OR MZE)                PMTI0169
      00215 -0046 00 0 00000         PIA                   COMPLETED SENSE INSTR. IN AC               PMTI0170
      00216  0774 00 2 00011         AXT     PESTAB-PSTAB,2                                           PMTI0171
      00217 -0340 00 2 00652         LAS     PESTAB,2      SEARCH TABLE OF PERMITED SENSE INSTRUCTIONSPMTI0172
      00220  0020 00 0 00222         TRA     *+2           ..                                         PMTI0173
      00221  0020 00 0 00231         TRA     PSINST        FOUND                                      PMTI0174
      00222  2 00001 2 00217         TIX     *-3,2,1       ..                                         PMTI0175
      00223  0774 00 2 00006         AXT     PESTB1-PSTAB1,2 NOT FOUND, TRY INTERPRETED SENSE INSTS.  PMTI0176
1       M1416 786  R. DALEY ..... PROTECTION TRAP PROCESSOR ..............       03/04/70 1419.6 PAGE 4

      00224 -0340 00 2 00660         LAS     PESTB1,2        ..                                       PMTI0177
      00225  0020 00 0 00227         TRA     *+2             ..                                       PMTI0178
      00226  0020 00 0 00235         TRA     PSINS1        FOUND                                      PMTI0179
      00227  2 00002 2 00224         TIX     *-3,2,2                                                  PMTI0180
      00230  0020 00 0 00353         TRA     PTERR1        NOT FOUND, ERROR                           PMTI0181
      00231  0602 00 0 00232  PSINST SLW     *+1           EXECUTE SENSE INSTRUCTION                  PMTI0182
      00232  0760 00 0 00000         PSE     **            ..                                         PMTI0183
      00233  0020 00 0 00326         TRA     PTENDS        NORMAL EXIT TO PTENDS                      PMTI0184
      00234  1 77777 1 00326         TXI     PTENDS,1,-1   SKIP, ADJUST RETURN                        PMTI0185
      00235  0522 00 2 00661  PSINS1 XEC     PESTB1+1,2    INTERPRET SENSE INSTRUCTION                PMTI0186
      00236  0020 00 0 00326         TRA     PTENDS          ..                                       PMTI0187
                                                                                                      PMTI0188
      00237 -0500 00 0 00730  PNDSEL CAL     PTOP          HERE FOR NON DATA SELECT                   PMTI0189
      00240  0074 00 4 00552         TSX     CKIOA,4       CHECK I/O UNIT ADDRESS                     PMTI0190
      00241  0 00000 0 00353                 PTERR1        ERROR RETURN                               PMTI0191
      00242  0602 00 0 00334         SLW     PIOSEL        SAVE TO EXECUTE ON EXIT                    PMTI0192
      00243  0020 00 0 00326         TRA     PTENDS                                                   PMTI0193
                                                                                                      PMTI0194
      00244  0441 00 0 72211  PTRCA  LDI     UENBWD        HERE FOR TRCA INSTRUCTION                  PMTI0195
      00245 -0054 00  000001         LFT     1             WAS USER ENABLED FOR RTT ON A              PMTI0196
      00246  0020 00 0 00326         TRA     PTENDS        YES, IGNORE TRCA                           PMTI0197
      00247  0441 00 0 72212         LDI     ATRILC        NO, PICK UP TRAP BITS FOR A                PMTI0198
      00250 -0056 00  000002         LNT     2             IS THE REDUNDANCY BIT ON                   PMTI0199
      00251  0020 00 0 00326         TRA     PTENDS        NO, RETURN TO TRCA+1                       PMTI0200
      00252 -0057 00  000002         RIL     2             YES, RESET THE BIT                         PMTI0201
      00253  0604 00 0 72212         STI     ATRILC        ..                                         PMTI0202
      00254  0020 00 0 00307         TRA     PIOTRA        AND SIMULATE TRANSFER                      PMTI0203
                                                                                                      PMTI0204
      00255  0441 00 0 72211  PTRCB  LDI     UENBWD        HERE FOR TRCB INSTRUCTION                  PMTI0205
      00256 -0054 00  000002         LFT     2             WAS USER ENABLED FOR RTT ON B              PMTI0206
      00257  0020 00 0 00326         TRA     PTENDS        YES, IGNORE TRCB                           PMTI0207
      00260  0441 00 0 72213         LDI     BTRILC        NO, PICK UP TRAP BITS FOR B                PMTI0208
      00261 -0056 00  000002         LNT     2             IS THE REDUNDANCY BIT ON                   PMTI0209
      00262  0020 00 0 00326         TRA     PTENDS        NO, RETURN TO TRCB+1                       PMTI0210
      00263 -0057 00  000002         RIL     2             YES, RESET THE BIT                         PMTI0211
      00264  0604 00 0 72213         STI     BTRILC        ..                                         PMTI0212
      00265  0020 00 0 00307         TRA     PIOTRA        AND SIMULATE TRANSFER                      PMTI0213
                                                                                                      PMTI0214
      00266  0441 00 0 72211  PTEFA  LDI     UENBWD        HERE FOR TEFA INSTRUCTION                  PMTI0215
      00267  0054 00  000001         RFT     1             WAS USER ENABLED FOR EOF ON A              PMTI0216
      00270  0020 00 0 00326         TRA     PTENDS        YES, IGNORE TEFA                           PMTI0217
      00271  0441 00 0 72212         LDI     ATRILC        NO, PICK UP TRAP BITS FOR A                PMTI0218
      00272 -0056 00  000004         LNT     4             IS THE EOF BIT ON                          PMTI0219
      00273  0020 00 0 00326         TRA     PTENDS        NO, RETURN TO TEFA+1                       PMTI0220
      00274 -0057 00  000004         RIL     4             YES, RESET THE BIT                         PMTI0221
      00275  0604 00 0 72212         STI     ATRILC        ..                                         PMTI0222
      00276  0020 00 0 00307         TRA     PIOTRA        AND SIMULATE TRANSFER                      PMTI0223
                                                                                                      PMTI0224
      00277  0441 00 0 72211  PTEFB  LDI     UENBWD        HERE FOR TEFB INSTRUCTION                  PMTI0225
      00300  0054 00  000002         RFT     2             WAS USER ENABLED FOR EOF ON B              PMTI0226
      00301  0020 00 0 00326         TRA     PTENDS        YES, IGNORE TEFB                           PMTI0227
      00302  0441 00 0 72213         LDI     BTRILC        NO, PICK UP TRAP BITS FOR B                PMTI0228
      00303 -0056 00  000004         LNT     4             IS THE EOF BIT ON                          PMTI0229
      00304  0020 00 0 00326         TRA     PTENDS        NO, RETURN TO TEFB+1                       PMTI0230
      00305 -0057 00  000004         RIL     4             YES, RESET THE BIT                         PMTI0231
      00306  0604 00 0 72213         STI     BTRILC        ..                                         PMTI0232
1       M1416 786  R. DALEY ..... PROTECTION TRAP PROCESSOR ..............       03/04/70 1419.6 PAGE 5

      00307 -0500 00 0 00730  PIOTRA CAL     PTOP          HERE TO SIMULATE TRC OR TEF TRANSFER       PMTI0233
      00310  0074 00 4 00446         TSX     CKRLOC,4      COMPUTE EFFECTIVE ADDRESS                  PMTI0234
      00311  0 00000 0 00353                 PTERR1        ..                                         PMTI0235
      00312  0737 00 1 00000         PAC     0,1           ..                                         PMTI0236
      00313  1 00001 1 00326         TXI     PTENDS,1,1    AND RETURN TO IT                           PMTI0237
                                                                                                      PMTI0238
      00314 -0500 00 0 00730  PTCOAB CAL     PTOP          HERE FOR TCOA,TCOB,TCNA,TCNB               PMTI0239
      00315  0074 00 4 00446         TSX     CKRLOC,4      COMPUTE EFFECTIVE ADDRESS                  PMTI0240
      00316  0 00000 0 00353                 PTERR1        ..                                         PMTI0241
      00317  0621 00 0 00324         STA     PTCO1         SAVE IT                                    PMTI0242
      00320 -0130 00 0 00000         XCL                   OP CODE TO MQ                              PMTI0243
      00321 -0620 00 0 00322         SLQ     *+1           SET UP                                     PMTI0244
      00322  0 00000 0 00324         ***     PTCO1         AND EXECUTE IT                             PMTI0245
      00323  0020 00 0 00326         TRA     PTENDS        TRANSFER NOT TAKEN, RETURN INST+1          PMTI0246
      00324 -0774 00 1 00000  PTCO1  AXC     **,1          HERE IF TRANSFER TAKEN                     PMTI0247
      00325  1 00001 1 00326         TXI     PTENDS,1,1    EXIT TO TRANSFER ADDRESS                   PMTI0248
                                                                                                      PMTI0249
      00326  0754 00 1 00000  PTENDS PXA     0,1           SET UP RETURN ADDRESS                      PMTI0250
      00327  0760 00 0 00006         COM                   ..                                         PMTI0251
      00330  0400 00 0 74667         ADD     Q2            ..                                         PMTI0252
      00331  0621 00 0 72162         STA     ILC           ..                                         PMTI0253
      00332  0761 00 0 00000  PTTCO  NOP                   BECOMES TCO * IF DATA SELECT FOUND         PMTI0254
      00333  0564 00 0 74671         ENB     Q0            DISABLE ALL TRAPS                          PMTI0255
      00334  0761 00 0 00000  PIOSEL NOP                   EXECUTE WAITING SELECT IF ANY              PMTI0256
      00335 -0761 00 0 00042         SEB                                                              PMTI0257
      00336  0761 00 0 00000  PTRCH  NOP                   EXECUTE WAITING RCH IF ANY                 PMTI0258
      00337 -0761 00 0 00041         SEA                                                              PMTI0259
      00340  0774 00 4 00000  PSPRCT AXT     **,4          COUNT OF SPRAS TO BE EXECUTED IF ANY       PMTI0260
      00341  0020 00 4 00345         TRA     PTSPRT,4      EXECUTE ANY SPRAS FOUND                    PMTI0261
      00342  0761 00 0 00000         NOP                   ..                                         PMTI0262
      00343  0761 00 0 00000         NOP                   ..                                         PMTI0263
      00344  0761 00 0 00000         NOP                   ..                                         PMTI0264
      00345  0520 00 0 00732  PTSPRT ZET     PCKSW         DO WE NEED TO CHECK THIS INPUT             PMTI0265
      00346  0074 00 4 00575         TSX     PCKIO,4       YES                                        PMTI0266
      00347  0564 00 0 77777         ENB     ENBWD         REENABLE                                   PMTI0267
      00350  0020 00 0 00001         TRA     RSTCPU        RESTART FMS                                PMTI0268
1       M1416 786  R. DALEY ..... PROTECTION TRAP PROCESSOR ..............       03/04/70 1419.6 PAGE 6

                                                                                                      PMTI0270
                                             PTERR ..... COMES HERE FOR ALL PROTECTION ERRORS         PMTI0271
                                             PTERR1 .....  COMES HERE WHEN XR1 ALREADY SET UP         PMTI0272
                                                                                                      PMTI0273
      00351  0621 00 0 00352  ERRILC STA     PTERR         SET UP LOCATION FOR ERROR PRINTOUT         PMTI0274
                                                                                                      PMTI0275
      00352 -0774 00 1 00000  PTERR  AXC     **,1          ADDRESS MODIFIED BY PMTRAP MODULE          PMTI0276
      00353  0754 00 1 00000  PTERR1 PXA     0,1           IR1 = -LOCATION OF INSTRUCTION IN ERROR    PMTI0277
      00354  0737 00 2 00000         PAC     0,2           COMPUTE ERROR LOCATION                     PMTI0278
      00355  0535 00 4 72160         LAC     RLIND,4       ..                                         PMTI0279
      00356 -0634 00 4 00357         SXD     *+1,4         ..                                         PMTI0280
      00357  1 00000 2 00360         TXI     *+1,2,**      ..                                         PMTI0281
      00360  0754 00 2 00000         PXA     0,2           ..                                         PMTI0282
      00361 -0765 00 0 00022         LGR     18                                                       PMTI0283
      00362  0074 00 4 00004         TSX     BTOC,4        CONVERT TO BCD                             PMTI0284
      00363  0767 00 0 00006         ALS     6                                                        PMTI0285
      00364 -0501 00 0 00754         ORA     =H00000.                                                 PMTI0286
      00365  0602 00 0 00741         SLW     PTRCM1+5      BCD LOCATION INTO ERROR COMMENT            PMTI0287
      00366 -0761 00 0 00042         SEB                   PICK UP INSTRUCTION CAUSING ERROR          PMTI0288
      00367  0560 00 1 00000         LDQ     0,1           ..                                         PMTI0289
      00370 -0761 00 0 00041         SEA                                                              PMTI0290
      00371  0074 00 4 00004         TSX     BTOC,4        CONVERT TO BCD                             PMTI0291
      00372  0602 00 0 00743         SLW     PTRCM2+1      ..                                         PMTI0292
      00373  0074 00 4 00004         TSX     BTOC,4        ..                                         PMTI0293
      00374  0602 00 0 00744         SLW     PTRCM2+2      ..                                         PMTI0294
      00375  0560 00 0 72160         LDQ     RLIND         RELOCATION INDICATORS                      PMTI0295
      00376  0074 00 4 00004         TSX     BTOC,4        ..                                         PMTI0296
      00377  0602 00 0 00746         SLW     PTRCM2+4      ..                                         PMTI0297
      00400  0074 00 4 00004         TSX     BTOC,4        ..                                         PMTI0298
      00401  0602 00 0 00747         SLW     PTRCM2+5      ..                                         PMTI0299
      00402  0560 00 0 72157         LDQ     PRIND         PROTECTION INDICATORS                      PMTI0300
      00403  0074 00 4 00004         TSX     BTOC,4        ..                                         PMTI0301
      00404  0602 00 0 00751         SLW     PTRCM2+7                                                 PMTI0302
      00405  0074 00 4 00004         TSX     BTOC,4        ..                                         PMTI0303
      00406  0602 00 0 00752         SLW     PTRCM2+8                                                 PMTI0304
      00407                          TYPEX   WRFLX,PTRCM1,6,USER,.F.   TYPE ERROR COMMENTS            PMTI0305
      00412                          TYPEX   WRFLX,PTRCM2,9,USER,.F.   ..                             PMTI0306
      00415  0074 00 4 00002         TSX     DORMNT,4      AND GO DORMANT                             PMTI0307
      00416  000000000010            VFD     O36/SB.ERR    ..                                         PMTI0308
1       M1416 786  R. DALEY ..... PROTECTION TRAP PROCESSOR ..............       03/04/70 1419.6 PAGE 7

                                                                                                      PMTI0310
                                             UTILITY ROUTINES FOR PM MODULES                          PMTI0311
                                                                                                      PMTI0312
      00417  0044 00 0 00000  CKXEC  PAI                   ROUTINE TO CHECK FOR EXECUTE INSTRUCTION   PMTI0313
      00420 -0056 00  052200         LNT     052200        SKIP OUT QUICKLY FOR MOST INSTRUCTIONS     PMTI0314
      00421  0020 00 4 00001         TRA     1,4           .. (PARTICULARLY 'TIA')                    PMTI0315
      00422  0634 00 4 00443         SXA     CKXECX,4      OTHERWISE CHECK FOR 'XEC' INSTRUCTION      PMTI0316
      00423  0634 00 2 00444         SXA     CKXECX+1,2                                               PMTI0317
      00424  0774 00 2 00062         AXT     50,2          UPPER LIMIT FOR XEC DEPTH                  PMTI0318
      00425  0602 00 0 00753  CKXEC1 SLW     PTTMP1        SAVE INSTRUCTION                           PMTI0319
      00426 -0320 00 0 00774         ANA     =O777700000000                                           PMTI0320
      00427  0322 00 0 00766         ERA     =O052200000000                                           PMTI0321
      00430 -0100 00 0 00442         TNZ     CKXEC2        SKIP TO EXIT IF XEC NOT FOUND              PMTI0322
      00431 -0500 00 0 00753         CAL     PTTMP1        PICK UP XEC INSTRUCTION                    PMTI0323
      00432  0074 00 4 00446         TSX     CKRLOC,4      GET ITS EFFECTIVE ADDRESS                  PMTI0324
      00433  0 00000 0 00353                 PTERR1        ..                                         PMTI0325
      00434  0737 00 4 00000         PAC     0,4                                                      PMTI0326
      00435 -0761 00 0 00042         SEB                   PICK UP INSTRUCTION TO BE EXECUTED         PMTI0327
      00436 -0500 00 4 00000         CAL     0,4           ..                                         PMTI0328
      00437 -0761 00 0 00041         SEA                                                              PMTI0329
      00440  2 00001 2 00425         TIX     CKXEC1,2,1    CHECK AGAIN FOR XEC                        PMTI0330
      00441  0020 00 0 00353         TRA     PTERR1        TOO MANY XEC INSTRUCTIONS                  PMTI0331
                                                                                                      PMTI0332
      00442 -0500 00 0 00753  CKXEC2 CAL     PTTMP1        INSTRUCTION EXECUTED TO AC                 PMTI0333
      00443  0774 00 4 00000  CKXECX AXT     **,4                                                     PMTI0334
      00444  0774 00 2 00000         AXT     **,2                                                     PMTI0335
      00445  0020 00 4 00001         TRA     1,4           RETURN WITH INST IN AC                     PMTI0336
                                                                                                      PMTI0337
      00446  0634 00 4 00466  CKRLOC SXA     CKIR4,4       SUBROUTINE TO RELOCATE AND CHECK ADDRESS   PMTI0338
      00447  0044 00 0 00000         PAI                   SAVE INST                                  PMTI0339
      00450  0074 00 4 00472  CKRL1  TSX     CMPEFA,4      COMPUTE EFFECTIVE ADDRESS                  PMTI0340
      00451  0074 00 4 00512         TSX     CKRLC,4       RELOCATE AND CHECK IT                      PMTI0341
      00452  0 00000 0 00470                 CKERST        ERROR RETURN                               PMTI0342
      00453 -0056 00  000060         LNT     60            IS THIS INST INDIRECTLY ADDRESSED          PMTI0343
      00454  0020 00 0 00463         TRA     CKRL2         NO OR ALL READY DONE                       PMTI0344
      00455 -0057 00  000077         RIL     77            RESET INDIRECT ADDRESS BITS                PMTI0345
      00456  0737 00 4 00000         PAC     0,4           PICK UP INDIRECT ADDRESS                   PMTI0346
      00457 -0761 00 0 00042         SEB                   ..                                         PMTI0347
      00460 -0500 00 4 00000         CAL     0,4           ..                                         PMTI0348
      00461 -0761 00 0 00041         SEA                   ..                                         PMTI0349
      00462  0020 00 0 00450         TRA     CKRL1                                                    PMTI0350
      00463  0057 00  777777  CKRL2  RIR     777777        HERE WITH FINAL ADDRESS IN AC              PMTI0351
      00464  0043 00 0 00000         OAI                                                              PMTI0352
      00465 -0046 00 0 00000         PIA                   COMPLETED INST IN AC                       PMTI0353
      00466  0774 00 4 00000  CKIR4  AXT     **,4                                                     PMTI0354
      00467  0020 00 4 00002         TRA     2,4           NORMAL RETURN                              PMTI0355
      00470  0534 00 4 00466  CKERST LXA     CKIR4,4                                                  PMTI0356
      00471  0020 60 4 00001         TRA*    1,4           ERROR RETURN                               PMTI0357
                                                                                                      PMTI0358
      00472  0634 00 4 00507  CMPEFA SXA     CMPEFX,4      SUBROUTINE TO COMPUTE EFFECTIVE ADDRESS    PMTI0359
      00473  0625 00 0 00503         STT     CMPEFT        SAVE TAG                                   PMTI0360
      00474  0621 00 0 00511         STA     CMPEFL        SAVE ADDRESS                               PMTI0361
      00475 -0320 00 0 00756         ANA     =O700000      IS TAG NEEDED                              PMTI0362
      00476 -0100 00 0 00501         TNZ     *+3           YES, DO LONG CMPEFA                        PMTI0363
      00477 -0500 00 0 00511         CAL     CMPEFL        .. NO, SKIP TAG SECTION                    PMTI0364
      00500  0020 00 4 00001         TRA     1,4           .. AND SAVE UMPTEEN CYCLES                 PMTI0365
1       M1416 786  R. DALEY ..... PROTECTION TRAP PROCESSOR ..............       03/04/70 1419.6 PAGE 8

      00501  0074 00 4 00006         TSX     SVSIRS,4      SAVE CTSS VALUES OF XRS                    PMTI0366
      00502  0074 00 4 00007         TSX     RSTIRS,4      RESTORE USER XR VALUES                     PMTI0367
      00503  0756 00 0 00000  CMPEFT PCA     0,**          COMPLEMENT OF TAG TO AC                    PMTI0368
      00504  0361 00 0 00511         ACL     CMPEFL        .. ADD ADDRESS TO GET EFFECTIVE ADDRESS    PMTI0369
      00505 -0320 00 0 74651         ANA     AMASK                                                    PMTI0370
      00506  0074 00 4 00010         TSX     GTSIRS,4      RESTORE CTSS XR VALUES                     PMTI0371
      00507  0774 00 4 00000  CMPEFX AXT     **,4                                                     PMTI0372
      00510  0020 00 4 00001         TRA     1,4                                                      PMTI0373
      00511  0 00000 0 00000  CMPEFL PZE     0                                                        PMTI0374
                                                                                                      PMTI0375
      00512  0734 00 7 00000  CKRLC  PAX     0,7           SUBROUTINE TO RELOCATE AND CHECK ADDRESS   PMTI0376
      00513  0754 00 7 00000         PXA     0,7           .. MODIFIED FOR SPEED (NO RELOCATION)      PMTI0377
      00514 -0340 00 0 72161         LAS     MEMBND        IS USER ADDRESS .G. C(MEMBND)              PMTI0378
      00515  0020 60 4 00001         TRA*    1,4           .. YES, ERROR RETURN                       PMTI0379
      00516  0020 00 4 00002         TRA     2,4           .. NO, NORMAL RETURN                       PMTI0380
      00517  0020 00 4 00002         TRA     2,4           .. NO, NORMAL RETURN                       PMTI0381
                                                                                                      PMTI0382
      00520  0634 00 4 00544  BLKCHK SXA     BLKX4,4       RELOCATE AND CHECK BLOCK ADDRESSES         PMTI0383
      00521  0602 00 0 00550         SLW     STMP1.                                                   PMTI0384
      00522 -0320 00 0 00772         ANA     =O077777077777                                           PMTI0385
      00523  0602 00 0 00551         SLW     STMP2.                                                   PMTI0386
      00524  0100 00 0 00526         TZE     *+2                                                      PMTI0387
      00525  0402 00 0 74670         SUB     Q1                                                       PMTI0388
      00526  0771 00 0 00022         ARS     18                                                       PMTI0389
      00527  0361 00 0 00551         ACL     STMP2.        CHECK FOR WRAP-AROUND                      PMTI0390
      00530 -0765 00 0 00017         LGR     15            TEST FOR OVERFLOW                          PMTI0391
      00531  0760 00 0 00001         LBT                                                              PMTI0392
      00532  0020 00 0 00534         TRA     *+2                                                      PMTI0393
      00533  0020 00 0 00546         TRA     BLKERR                                                   PMTI0394
      00534 -0763 00 0 00017         LGL     15                                                       PMTI0395
      00535  0074 00 4 00512         TSX     CKRLC,4       CHECK IT                                   PMTI0396
      00536  0 00000 0 00546                 BLKERR        ERROR RETURN                               PMTI0397
      00537 -0500 00 0 00551         CAL     STMP2.                                                   PMTI0398
      00540  0074 00 4 00512         TSX     CKRLC,4       CHECK INITIAL ADDRESS                      PMTI0399
      00541  0 00000 0 00546                 BLKERR        ERROR RETURN                               PMTI0400
      00542  0621 00 0 00551         STA     STMP2.        SAVE RELOCATED ADDRESS                     PMTI0401
      00543 -0500 00 0 00551         CAL     STMP2.                                                   PMTI0402
      00544  0774 00 4 00000  BLKX4  AXT     **,4                                                     PMTI0403
      00545  0020 00 4 00002         TRA     2,4           NORMAL RETURN                              PMTI0404
      00546  0534 00 4 00544  BLKERR LXA     BLKX4,4       HERE FOR ERROR                             PMTI0405
      00547  0020 60 4 00001         TRA*    1,4           TAKE ERROR RETURN                          PMTI0406
      00550  0 00000 0 00000  STMP1. PZE     0                                                        PMTI0407
      00551  0 00000 0 00000  STMP2. PZE     0                                                        PMTI0408
1       M1416 786  R. DALEY ..... PROTECTION TRAP PROCESSOR ..............       03/04/70 1419.6 PAGE 9

                                                                                                      PMTI0410
                                             UTILITY ROUTINES USED BY PM BACKGROUND MODULE            PMTI0411
                                                                                                      PMTI0412
      00552  0634 00 4 00572  CKIOA  SXA     CKIOX,4       CHECK FMS I/O UNIT ADDRESS                 PMTI0413
      00553  0044 00 0 00000         PAI                                                              PMTI0414
      00554  0057 00  700777         RIR     700777        MASK OUT UNIT ADDRESS AND TAG              PMTI0415
      00555 -0320 00 0 00757         ANA     =O700777      KEEP ONLY ADDRESS AND TAG IN AC            PMTI0416
      00556  0074 00 4 00472         TSX     CMPEFA,4      COMPUTE EFFECTIVE ADDRESS ON BITS 27-35    PMTI0417
      00557 -0320 00 0 00755         ANA     =O777         EFFECTIVE UNIT ADDRESS IN AC               PMTI0418
      00560  0043 00 0 00000         OAI                   COMPLETE SELECT INSTRUCTION                PMTI0419
      00561 -0046 00 0 00000         PIA                                                              PMTI0420
      00562 -0320 00 0 74651         ANA     AMASK         CHECK I/O UNIT                             PMTI0421
      00563  0774 00 4 00041         AXT     EIOTB-IOTB,4                                             PMTI0422
      00564 -0340 00 4 00721         LAS     EIOTB,4       SEARCH TABLE OF LEGAL I/O ADDRESSES        PMTI0423
      00565  0020 00 0 00567         TRA     *+2           ..                                         PMTI0424
      00566  0020 00 0 00572         TRA     CKIOX         .. FOUND                                   PMTI0425
      00567  2 00001 4 00564         TIX     *-3,4,1       ..                                         PMTI0426
      00570  0534 00 4 00572         LXA     CKIOX,4       HERE IF NOT FOUND, MUST BE AN ERROR        PMTI0427
      00571  0020 60 4 00001         TRA*    1,4           TAKE ERROR RETURN                          PMTI0428
      00572  0774 00 4 00000  CKIOX  AXT     **,4          HERE IF FOUND                              PMTI0429
      00573 -0046 00 0 00000         PIA                   COMPLETED INSTRUCTION INTO AC              PMTI0430
      00574  0020 00 4 00002         TRA     2,4           NORMAL RETURN                              PMTI0431
                                                                                                      PMTI0432
                       00575  PCKIO  EQU     *             ROUTINE TO CHECK I/O IN PROGRESS           PMTI0433
      00575  0634 00 2 00612         SXA     PCKIR2,2                                                 PMTI0434
      00576 -0500 00 0 00334         CAL     PIOSEL        PICK UP DATA SELECT                        PMTI0435
      00577 -0320 00 0 74651         ANA     AMASK                                                    PMTI0436
      00600  0771 00 0 00011         ARS     9             CHANNEL NO. TO ADDRESS                     PMTI0437
      00601  0734 00 2 00000         PAX     0,2                                                      PMTI0438
      00602  0522 00 2 00724  PCK1   XEC     PCTNC,2       TCN PCKIR2                                 PMTI0439
      00603  0522 00 2 00726         XEC     PCSCH,2       SCH PTTMP                                  PMTI0440
      00604  0441 00 0 00731         LDI     PTTMP                                                    PMTI0441
      00605  0054 00  300000         RFT     300000        IS BIT 19 OR 20 ON                         PMTI0442
      00606  0020 00 0 00602         TRA     PCK1          YES, OK                                    PMTI0443
      00607  0522 00 2 00730         XEC     PCRDC,2       NO, ERROR SO RESET DATA CHANNEL            PMTI0444
      00610  0564 00 0 77777         ENB     ENBWD         REENABLE                                   PMTI0445
      00611  0020 00 0 00353         TRA     PTERR1        AND TAKE ERROR EXIT                        PMTI0446
      00612  0774 00 2 00000  PCKIR2 AXT     **,2          HERE WHEN CHANNEL DONE                     PMTI0447
      00613  0020 00 4 00001         TRA     1,4           RETURN                                     PMTI0448
                                                                                                      PMTI0449
1       M1416 786  R. DALEY ..... PROTECTION TRAP PROCESSOR ..............       03/04/70 1419.6 PAGE 10

                                             TEMPS, CONSTANTS, VARIABLES AND TABLES USED BY PTRAP ETC.PMTI0451
                                                                                                      PMTI0452
      00614  0766 00 0 00063  PTAB   WRS     PSEL          TABLE OF PERMITTED PTRAP INSTRUCTIONS      PMTI0454
      00615  0762 00 0 00063         RDS     PSEL          ..                                         PMTI0455
      00616 -0760 00 0 00207         MSE     PMPSE         ..                                         PMTI0456
      00617  0760 00 0 00207         PSE     PMPSE         ..                                         PMTI0457
      00620  0540 00 0 00133         RCHA    PRCH          ..                                         PMTI0458
      00621 -0540 00 0 00133         RCHB    PRCH          ..                                         PMTI0459
      00622  0030 00 0 00266         TEFA    PTEFA         ..                                         PMTI0460
      00623 -0030 00 0 00277         TEFB    PTEFB         ..                                         PMTI0461
      00624  0022 00 0 00244         TRCA    PTRCA         ..                                         PMTI0462
      00625 -0022 00 0 00255         TRCB    PTRCB         ..                                         PMTI0463
      00626  0060 00 0 00314         TCOA    PTCOAB        ..                                         PMTI0464
      00627  0061 00 0 00314         TCOB    PTCOAB        ..                                         PMTI0465
      00630 -0060 00 0 00314         TCNA    PTCOAB        ..                                         PMTI0466
      00631 -0061 00 0 00314         TCNB    PTCOAB        ..                                         PMTI0467
      00632  0564 00 0 00326         ENB     PTENDS        ..                                         PMTI0468
      00633  076400000237            VFD     O12/0764,24/PNDSEL  BSR                                  PMTI0469
      00634  476400000237            VFD     O12/4764,24/PNDSEL  BSF                                  PMTI0470
      00635  077000000237            VFD     O12/0770,24/PNDSEL  WEF                                  PMTI0471
      00636  077200000237            VFD     O12/0772,24/PNDSEL  REW                                  PMTI0472
      00637  477200000237            VFD     O12/4772,24/PNDSEL  RUN                                  PMTI0473
      00640  077600000237            VFD     O12/0776,24/PNDSEL  SDN                                  PMTI0474
                       00641  EPTAB  SYN     *             ..                                         PMTI0475
                                                                                                      PMTI0476
      00641  0760 00 0 00005  PSTAB  IOT                   TABLE OF PERMITTED SENSE INSTRUCTIONS      PMTI0477
      00642 -0760 00 0 01000         ETTA                  ..                                         PMTI0478
      00643 -0760 00 0 02000         ETTB                  ..                                         PMTI0479
      00644  0760 00 0 01000         BTTA                  ..                                         PMTI0480
      00645  0760 00 0 02000         BTTB                  ..                                         PMTI0481
      00646  0760 00 0 01352         RDCA                  ..                                         PMTI0482
      00647  0760 00 0 02352         RDCB                  ..                                         PMTI0483
      00650 -0760 00 0 00007         LTM                   ..                                         PMTI0484
      00651 -0760 00 0 00010         LSNM                  ..                                         PMTI0485
                       00652  PESTAB SYN     *             ..                                         PMTI0486
                                                                                                      PMTI0487
      00652 -0760 00 0 00004  PSTAB1 LFTM                                                             PMTI0488
      00653  0600 00 0 72201         STZ     FLMD                                                     PMTI0489
      00654 -0760 00 0 00002         EFTM                                                             PMTI0490
      00655 -0625 00 0 72201         STL     FLMD                                                     PMTI0491
      00656  0760 00 0 00014         RCT                                                              PMTI0492
      00657  0761 00 0 00000         NOP                                                              PMTI0493
                       00660  PESTB1 SYN     *                                                        PMTI0494
                                                                                                      PMTI0495
      00660 +000000001321     IOTB   OCT     1321,1341,1361 I/O UNIT ADDRESS TABLE                    PMTI0496
      00663 +000000001201            OCT     1201,1221,1202,1222,1203,1223,1204,1224,1205,1225        PMTI0497
      00675 +000000001206            OCT     1206,1226,1207,1227,2201,2221,2202,2222,2203,2223        PMTI0498
      00707 +000000002204            OCT     2204,2224,2205,2225,2206,2226,2212,2232,1212,1232        PMTI0499
                       00721  EIOTB  SYN     *                                                        PMTI0500
                                                                                                      PMTI0501
      00721  0060 00 0 00332  PTCOS  TCOA    PTTCO                                                    PMTI0502
                                                                                                      PMTI0503
      00722 -0061 00 0 00612         TCNB    PCKIR2        ..2                                        PMTI0504
      00723 -0060 00 0 00612         TCNA    PCKIR2        ..1                                        PMTI0505
                       00724  PCTNC  SYN     *             ..                                         PMTI0506
      00724 -0640 00 0 00731         SCHB    PTTMP         ..2                                        PMTI0507
1       M1416 786  R. DALEY ..... PROTECTION TRAP PROCESSOR ..............       03/04/70 1419.6 PAGE 11

      00725  0640 00 0 00731         SCHA    PTTMP         ..1                                        PMTI0508
                       00726  PCSCH  SYN     *             ..                                         PMTI0509
      00726  0760 00 0 02352         RDCB                  ..2                                        PMTI0510
      00727  0760 00 0 01352         RDCA                  ..1                                        PMTI0511
                       00730  PCRDC  SYN     *             ..                                         PMTI0512
                                                                                                      PMTI0513
      00730  0 00000 0 00000  PTOP   PZE     0                                                        PMTI0514
      00731  0 00000 0 00000  PTTMP  PZE     0                                                        PMTI0515
      00732  0 00000 0 00000  PCKSW  PZE     0                                                        PMTI0516
      00733  0761 00 0 00000  NOP    NOP                                                              PMTI0517
      00734  604751466325     PTRCM1 BCI     6, PROTECTION MODE VIOLATION AT 00000.                   PMTI0518
      00742  603145623313     PTRCM2 BCI     9, INS.=000000000000, RI.=000000000000, PI.=000000000000 PMTI0519
      00753  0 00000 0 00000  PTTMP1 PZE     0                                                        PMTI0520
                                                                                                      PMTI0521
      00754                          RMT     *                                                        PMTI0522
                                     END                                                              PMTI0524

        LITERALS
      00754  000000000033
      00755  000000000777
      00756  000000700000
      00757  000000700777
      00760  000000717777
      00761  000006000000
      00762  000077777777
      00763  000100000000
      00764  000300000000
      00765  010100000000
      00766  052200000000
      00767  054000000000
      00770  076000001340
      00771  076200000000
      00772  077777077777
      00773  377700000000
      00774  777700000000
      00775  777777700000
      00776  777777777740
1       M1416 786  R. DALEY ..... PROTECTION TRAP PROCESSOR ..............       03/04/70 1419.6 PAGE 1
                        POST PROCESSOR ASSEMBLY DATA

       72127 IS THE LAST LOCATION NOT USED BY THIS PROGRAM
        777 IS THE FIRST LOCATION NOT USED BY THIS PROGRAM

0REFERENCES TO DEFINED SYMBOLS
      74671     Q0   333
      74670     Q1   525
      74667     Q2   330
      74666     Q3    70
      72162    ILC    15,  331
      72166    IR4    12
          1    .F.   411,  414
        733    NOP    37,  113
          4   BTOC   362,  371,  373,  376,  400,  403,  405
      72201   FLMD   653,  655
        660   IOTB   563
        602   PCK1   606
        133   PRCH   121,  620,  621
         63   PSEL   614,  615
        123   PSPR   111,  115
        614   PTAB    50
        730   PTOP    30,   51,   63,  105,  127,  133,  207,  237,  307,  314
      74502   USER    35,  411,  414
      74651  AMASK   505,  562,  577
        544  BLKX4   520,  546
        552  CKIOA    64,  240
        572  CKIOX   552,  566,  570
        466  CKIR4   446,  470
        450  CKRL1   462
        463  CKRL2   454
        512  CKRLC     0,   20,  451,  535,  540
        100  CKSPR    72,  132
        417  CKXEC     0,   27,  104
        721  EIOTB   563,  564,  721
      77777  ENBWD    11,  347,  610
        641  EPTAB    50,   54,   60,  641
        575  PCKIO     0,  346,  575
        732  PCKSW    47,  165,  174,  345
        730  PCRDC   607,  730
        726  PCSCH   603,  726
        724  PCTNC   602,  724
        207  PMPSE   616,  617
      72157  PRIND   402
        641  PSTAB   216
        324  PTCO1   317,  322
        721  PTCOS   144
        266  PTEFA   622
        277  PTEFB   623
        352  PTERR     0,   23,   36,  351
         32  PTILC    11,   14
         33  PTLOC    11
         11  PTRAP     0
        244  PTRCA   624
        255  PTRCB   625
        336  PTRCH    42,  136,  146
1       M1416 786  R. DALEY ..... PROTECTION TRAP PROCESSOR ..............       03/04/70 1419.6 PAGE 2
                        POST PROCESSOR ASSEMBLY DATA

        332  PTTCO    40,  145,  721
        731  PTTMP    53,   56,  604,  724,  725
      72160  RLIND   355,  375
          5  WRFLX   407,  412
      72212 ATRILC    75,   77,  247,  253,  271,  275
        520 BLKCHK     0
        546 BLKERR   533,  536,  541
      72213 BTRILC   260,  264,  302,  306
        470 CKERST   452
        446 CKRLOC   134,  310,  315,  432
        425 CKXEC1   440
        442 CKXEC2   430
        443 CKXECX   422,  423
        472 CMPEFA   213,  450,  556
        511 CMPEFL   474,  477,  504
        503 CMPEFT   473
        507 CMPEFX   472
          2 DORMNT   415
        351 ERRILC    21
         10 GTSIRS   506
      72161 MEMBND   514
        174 PCKCOM   166,  170,  172
        612 PCKIR2   575,  722,  723
          3 PCKSUB    34
        652 PESTAB   216,  217,  652
        660 PESTB1   223,  224,  235,  660
         37 PINTRP
        334 PIOSEL     0,   41,   66,  154,  242,  576
        307 PIOTRA   254,  265,  276
        237 PNDSEL   633,  634,  635,  636,  637,  640
        235 PSINS1   226
        231 PSINST   221
        340 PSPRCT    46,  123,  131
        652 PSTAB1   223
        314 PTCOAB   626,  627,  630,  631
        326 PTENDS   120,  122,  157,  161,  167,  171,  173,  176,  206,  233,  234,  236,  243,  246,  251,  257,  262
                     270,  273,  301,  304,  313,  323,  325,  632
        353 PTERR1    62,   65,  135,  230,  241,  311,  316,  433,  441,  611
        734 PTRCM1   365,  410
        742 PTRCM2   372,  374,  377,  401,  404,  406,  413
        345 PTSPRT    43,   44,   45,  130,  341
         54 PTSRH1    61
        753 PTTMP1   425,  431,  442
          1 RSTCPU   350
          7 RSTIRS   502
          0 SAVCPU    13
         10 SB.ERR   416
        550 STMP1.   521
        551 STMP2.   523,  527,  537,  542,  543
          6 SVSIRS   501
      72211 UENBWD    71,  244,  255,  266,  277

0 NO ERROR IN ABOVE ASSEMBLY.


ULIB8H   BCD 07/05/71 1912.7   48050         00000
