1       ............ ULIB ...... USER SUBROUTINE LIBRARY MODULE .............    07/05/71 1909.0 PAGE 1

                                                                                                      ULIB0005
                       00123         ENTRY   PCKSUB        ENTRY FOR USER 'TIA' ENTRY                 ULIB0006
                       00352         ENTRY   GE.USR        ENTRY TO 636 TAPE USER NO.                 ULIB0007
                       01664         ENTRY   INPBND        POINTER TO INPUT BUFFERS (FIRST,,LAST)     ULIB0008
                       01671         ENTRY   CHBCNT        POINTER TO CHBALL COUNTER                  ULIB0009
                                                                                                      ULIB0010
                                     EXTERN  WRFLX,WRFLXA,WRTOPR,PTERR,BTOC,SETAB,SETSWS,ILKRTN       ULIB0011
                                     EXTERN  CYCLE,SCHEDL,CKQUIT,RDLINE,BROOM,SWEEP,RSSRB,RSSWB       ULIB0012
                                     EXTERN  BLKCHK,CKRLC,MOVE,ENTLIN,.WRFX,.WRFXA,CHNCOM,PUNCH       ULIB0013
                                     EXTERN  FINDSB,KILL,NOTIM,ERSUNI,GTDYTM,SETUFD,DEAD              ULIB0014
                                     EXTERN  TSSFL.,DSCOPE,FREEUP,NEWCOM,ERSILC,ERPILC,RSTCPU         ULIB0015
                                     EXTERN  DORMNT,CHKCOM,SETPRM,GETPRM,WRSCFX,LOGIN,WRHI,ISIN       ULIB0016
                                     EXTERN  RDYTIM,SETUSR,UPCLOC,ADDTIM                              ULIB0017
                                                                                                      ULIB0018
                                     UNLIST                                                           ULIB0019

                                                                                                      ULIB0025
                                                                                                      ULIB0026
                                                                                                      ULIB0027
                                             PCKSUB ....... TIA FOUND, CHECK FOR CTSS SUBROUTINE CALL ULIB0028
                                                                                                      ULIB0029
      00123  0754 00 2 00000  PCKSUB PXA     0,2           TIA FOUND, ADDRESS TO AC                   ULIB0030
      00124  0074 00 4 00272         TSX     GETIND,4      .. PICK UP SUBROUTINE NAME                 ULIB0031
      00125  0602 00 0 03326         SLW     SNAME                                                    ULIB0032
      00126  0535 00 4 72166         LAC     IR4,4         SAVE USER ILC FROM IR4                     ULIB0033
      00127  0634 00 4 72162         SXA     ILC,4         ..                                         ULIB0034
      00130  0774 00 4 00007         AXT     7,4           CHECK IF THIS SUBROUTINE IS IN CORE        ULIB0035
      00131  0774 00 2 00000         AXT     0,2                                                      ULIB0036
      00132  0522 00 4 00163         XEC     PLUS,4        USE BINARY SEARCH ON SUBROUTINE TABLE      ULIB0037
      00133  1 77777 4 00134  SBSRH  TXI     *+1,4,-1                                                 ULIB0038
      00134  3 00372 2 00136         TXH     *+2,2,SUBTB-FSTSUB  IS ADDRESS TOO LARGE                 ULIB0039
      00135 -0340 00 2 03306         LAS     SUBTB,2                                                  ULIB0040
      00136  0522 00 4 00151         XEC     MINUS,4       ADDRESS TOO LOW                            ULIB0041
      00137  0020 00 0 00200         TRA     SUBFND        .. FOUND                                   ULIB0042
      00140  0522 00 4 00163         XEC     PLUS,4        ADDRESS TOO LARGE                          ULIB0043
                                                                                                      ULIB0044
      00141  1 77400 2 00133         TXI     SBSRH,2,-256   TABLE OF ADDRESS MODIFIERS FOR BINARY SEARULIB0045
      00142  1 77600 2 00133         TXI     SBSRH,2,-128  .. MUST BE ENLARGED IF MORE THAN 512 SUBS  ULIB0046
      00143  1 77700 2 00133         TXI     SBSRH,2,-64                                              ULIB0047
      00144  1 77740 2 00133         TXI     SBSRH,2,-32                                              ULIB0048
      00145  1 77760 2 00133         TXI     SBSRH,2,-16                                              ULIB0049
      00146  1 77770 2 00133         TXI     SBSRH,2,-8                                               ULIB0050
      00147  1 77774 2 00133         TXI     SBSRH,2,-4                                               ULIB0051
      00150  1 77776 2 00133         TXI     SBSRH,2,-2                                               ULIB0052
      00151  0020 00 0 00164  MINUS  TRA     SUBNFD        TABLE COMPLETELY SEARCHED                  ULIB0053
      00152  1 01000 2 00133         TXI     SBSRH,2,512   TABLE OF POSITIVE ADDRESS MODIFICATIONS    ULIB0054
      00153  1 00400 2 00133         TXI     SBSRH,2,256                                              ULIB0055
      00154  1 00200 2 00133         TXI     SBSRH,2,128                                              ULIB0056
      00155  1 00100 2 00133         TXI     SBSRH,2,64                                               ULIB0057
      00156  1 00040 2 00133         TXI     SBSRH,2,32                                               ULIB0058
      00157  1 00020 2 00133         TXI     SBSRH,2,16                                               ULIB0059
      00160  1 00010 2 00133         TXI     SBSRH,2,8                                                ULIB0060
      00161  1 00004 2 00133         TXI     SBSRH,2,4                                                ULIB0061
      00162  1 00002 2 00133         TXI     SBSRH,2,2                                                ULIB0062
      00163  0020 00 0 00164  PLUS   TRA     SUBNFD        TABLE COMPLETELY SEARCHED                  ULIB0063
                                                                                                      ULIB0064
1       ............ ULIB ...... USER SUBROUTINE LIBRARY MODULE .............    07/05/71 1909.0 PAGE 2

      00164 -0500 00 0 03326  SUBNFD CAL     SNAME         NOT FOUND                                  ULIB0065
      00165  0602 00 0 03315         SLW     PMSUBC+2      SET UP ERROR COMMENT                       ULIB0066
      00166                          TYPEX   WRFLX,PMSUBC,6,USER,.F.    PRINT ERROR                   ULIB0067
      00171  0020 00 0 00003         TRA     PTERR         GO TO ERROR ROUTINE                        ULIB0068
                                                                                                      ULIB0069
      00172 -0500 00 0 03326  ILLEGL CAL     SNAME         HERE FOR ILLEGAL CALL TO SUBROUTINE        ULIB0070
      00173  0602 00 0 03324         SLW     ILLCSB+3      SAVE SUBR NAME                             ULIB0071
      00174                          TYPEX   WRFLX,ILLCSB,5,USER,.F.                                  ULIB0072
      00177  0020 00 0 00003         TRA     PTERR         AND GO TO ERROR SECTION.                   ULIB0073
                                                                                                      ULIB0074
      00200  0500 00 2 03307  SUBFND CLA     SUBTB+1,2     HERE WHEN SUBR. FOUND                      ULIB0075
      00201 -0737 00 4 00000         PDC     0,4           PICK UP POINTER TO RESTRICTION WORD        ULIB0076
      00202  0621 00 0 00220         STA     SUBTRA        SAVE TRANSFER ADDRESS                      ULIB0077
      00203 -3 00000 4 00217         TXL     OUT,4,0       SKIP TEST IF CALL TO DISK ROUTINE          ULIB0078
      00204  0120 00 0 00206         TPL     *+2           IF BIT ZERO IS ON,                         ULIB0079
      00205  0564 00 0 74671         ENB     Q0              RUN DISABLED.                            ULIB0080
      00206  0441 00 0 72232         LDI     URCODE        GET USER CODE WORD                         ULIB0081
      00207  0446 00 4 00000         ONT     0,4           IS USER ALLOWED TO MAKE THIS CALL          ULIB0082
      00210  0020 00 0 00164         TRA     SUBNFD        .. NO, PROTECTION ERROR                    ULIB0083
      00211                          SETAB   LA,LB,LB      SETAB FOR ALL POSSIBLE DISK CALLS          ULIB0084
      00215  0074 00 4 00007         TSX     ILKRTN,4      SET ILOCK RETURN                           ULIB0085
      00216  0 00000 0 00221         PZE     FILWAT        ..                                         ULIB0086
      00217  0534 00 4 72166  OUT    LXA     IR4,4         TRANSFER DIRECT TO DISK ROUTINES, W. XR4   ULIB0087
      00220  0020 00 0 00000  SUBTRA TRA     **            AND TRANSFER TO SUBROUTINE                 ULIB0088
                                                                                                      ULIB0089
      00221                   FILWAT SCHEDL  Q2,USER,Q6    TELL SCHEDL USER IN FILE WAIT STATUS       ULIB0090
      00225  0074 00 4 00010         TSX     CYCLE,4       RETURN TO MAIN CONTROL SECTION             ULIB0091
                                                                                                      ULIB0092
      00226  0634 00 2 00243  GETARG SXA     GETX2,2       PICK UP ARGUMENTS FOR USER SUBROUTINE CALL ULIB0093
      00227  0634 00 4 00244         SXA     GETX4,4                                                  ULIB0094
      00230  0535 00 4 72160         LAC     RLIND,4       RELOCATE USER IR4                          ULIB0095
      00231  0754 00 4 00000         PXA     ,4              ..                                       ULIB0096
      00232  0401 00 0 72166         ADM     IR4             ..                                       ULIB0097
      00233  0734 00 4 00000         PAX     ,4              ..                                       ULIB0098
      00234  0774 00 2 00004         AXT     4,2                                                      ULIB0099
      00235 -0761 00 0 00042  GETR1  SEB                   MOVE ARGUMENTS                             ULIB0100
      00236 -0500 00 4 00001         CAL     1,4           ..                                         ULIB0101
      00237 -0761 00 0 00041         SEA                   ..                                         ULIB0102
      00240  0602 00 2 03313         SLW     1C4+4,2       ..                                         ULIB0103
      00241 -2 00001 2 00243         TNX     GETX2,2,1     ..                                         ULIB0104
      00242  1 77777 4 00235         TXI     GETR1,4,-1    ..                                         ULIB0105
      00243  0774 00 2 00000  GETX2  AXT     **,2                                                     ULIB0106
      00244  0774 00 4 00000  GETX4  AXT     **,4                                                     ULIB0107
      00245  0020 00 4 00001         TRA     1,4           RETURN                                     ULIB0108
                                                                                                      ULIB0109
                              *      GETBUF FILLS PBUFF FROM B CORE.  ALONG THE WAY THE LOCATIONS ARE ULIB0110
                              * RELOCATED AND CHECKED.                                                ULIB0111
                                                                                                      ULIB0112
                              *      CALLING SEQUENCE..                                               ULIB0113
                                                                                                      ULIB0114
                              *      CAL    (BUFF,,WDCT)                                              ULIB0115
                              *      TSX    GETBUF,4                                                  ULIB0116
                              *      RETURN                                                           ULIB0117
                                                                                                      ULIB0118
      00246  0634 00 4 00270  GETBUF SXA     GETBFX,4                                                 ULIB0119
      00247 -0734 00 4 00000         PDX     ,4            INSURE WDCT IS .LE. 2*WDSLIN               ULIB0120
1       ............ ULIB ...... USER SUBROUTINE LIBRARY MODULE .............    07/05/71 1909.0 PAGE 3

      00250 -3 00034 4 00255         TXL     WDCTOK,4,2*WDSLIN   ..                                   ULIB0121
      00251  0602 00 0 03333         SLW     GBFTMP        ..                                         ULIB0122
      00252  0774 00 4 00034         AXT     2*WDSLIN,4    ..                                         ULIB0123
      00253 -0634 00 4 03333         SXD     GBFTMP,4      ..                                         ULIB0124
      00254 -0500 00 0 03333         CAL     GBFTMP        ..                                         ULIB0125
      00255  0074 00 4 00020  WDCTOK TSX     BLKCHK,4      RELOCATE AND CHECK ADDRESSES               ULIB0126
      00256  0 00000 0 00003                 PTERR         ..   ERROR RETURN                          ULIB0127
      00257 -0737 00 4 00000         PDC     ,4            -WDCT TO XR4                               ULIB0128
      00260 -2 00000 4 00270         TNX     GETBFX,4,0    DON'T WASTE TIME WITH 0 WORDS              ULIB0129
      00261  0621 00 0 00264         STA     GBFMOV+2      INITIALIZE RELOCATED LOCATION IN B CORE    ULIB0130
      00262  1 00001 4 00263  GBFMOV TXI     *+1,4,1                                                  ULIB0131
      00263 -0761 00 0 00042         SEB                   PICK UP FIRST (NEXT) WORD AT HIGH END IN B ULIB0132
      00264  0560 00 4 00000         LDQ     **,4          ..                                         ULIB0133
      00265 -0761 00 0 00041         SEA                   STORE AT NEXT LOWER PLACE IN A CORE        ULIB0134
      00266 -0600 00 4 74322         STQ     PBUFF,4       ..                                         ULIB0135
      00267  2 00000 4 00262         TIX     GBFMOV,4,0    GET OTHER WORDS, IF ANY THERE BE           ULIB0136
      00270  0774 00 4 00000  GETBFX AXT     **,4          RESTORE XR4                                ULIB0137
      00271  0020 00 4 00001         TRA     1,4           RETURN TO CALLER                           ULIB0138
                                                                                                      ULIB0139
                                                                                                      ULIB0140
                              *      THIS IS GETIND, A ROUTINE USED TO BRING INDIRECTLY               ULIB0141
                              *  SPECIFIED ARGUMENTS INTO A CORE FROM B CORE.                         ULIB0142
                                                                                                      ULIB0143
                              *  CALLING SEQUENCE..                                                   ULIB0144
                                                                                                      ULIB0145
                              *      CAL     L(ARG)                                                   ULIB0146
                              *      TSX     GETIND,4                                                 ULIB0147
                              *      SLW     ARG                                                      ULIB0148
                                                                                                      ULIB0149
      00272  0634 00 4 00301  GETIND SXA     GETINX,4                                                 ULIB0150
      00273  0074 00 4 00021         TSX     CKRLC,4       CHECK LOCATION GIVEN                       ULIB0151
      00274  0 00000 0 00003                 PTERR         ..                                         ULIB0152
      00275  0737 00 4 00000         PAC     ,4            ..                                         ULIB0153
      00276 -0761 00 0 00042         SEB                   GO INTO B                                  ULIB0154
      00277 -0500 00 4 00000         CAL     0,4           PICK UP THE WORD                           ULIB0155
      00300 -0761 00 0 00041         SEA                   AND RETURN                                 ULIB0156
      00301  0774 00 4 00000  GETINX AXT     **,4          ..                                         ULIB0157
      00302  0020 00 4 00001         TRA     1,4                                                      ULIB0158
                                                                                                      ULIB0159
                                                                                                      ULIB0160
                                                                                                      ULIB0161
                              *      THIS IS QATTCH, A ROUTINE TO DETERMINE WHETHER OR NOT THE        ULIB0162
                              *  CONSOLE DESIGNATED AT 1,4 HAS BEEN ATTACHED BY THE USER.             ULIB0163
                                                                                                      ULIB0164
                              *  CALLING SEQUENCE..                                                   ULIB0165
                                                                                                      ULIB0166
                              *      TSX     QATTCH,4                                                 ULIB0167
                              *      TNZ     (NOT ATTACHED)          THE LAC CELL IS JUST LIKE THE AC ULIB0168
                              *      SCA     LUN(ATTACHED UNIT),1                                     ULIB0169
                                                                                                      ULIB0170
      00303  0634 00 4 00314  QATTCH SXA     QATX,4                                                   ULIB0171
      00304  0074 00 4 00226         TSX     GETARG,4      SET UP 1C4 AND, INCIDENTALLY, OTHER ARGS   ULIB0172
      00305 -0500 00 0 03307         CAL     1C4           PICK UP CONSOLE ID                         ULIB0173
      00306  0074 00 4 00272         TSX     GETIND,4      ..                                         ULIB0174
      00307  0602 00 0 03335         SLW     (ID)          ..                                         ULIB0175
      00310  0322 00 0 03400         ERA     =H(HOME)      ALWAYS APPROVE OF I.D. '(HOME)'            ULIB0176
1       ............ ULIB ...... USER SUBROUTINE LIBRARY MODULE .............    07/05/71 1909.0 PAGE 4

      00311  0535 00 1 74502         LAC     USER,1        '(HOME)' HAS USER'S LUN                    ULIB0177
      00312 -0100 00 0 00316         TNZ     QALOOP        *BUT THIS ISN'T IT                         ULIB0178
      00313  0602 00 0 72173  QATOUT SLW     LAC           GIVE SUCCESS INDICATION TO USER            ULIB0179
      00314  0774 00 4 00000  QATX   AXT     **,4          RESTORE XR4                                ULIB0180
      00315  0020 00 4 00001         TRA     1,4                                                      ULIB0181
                                                                                                      ULIB0182
                              *      SEE IF USER HAS ATTACHED A UNIT WITH THIS I.D.                   ULIB0183
                                                                                                      ULIB0184
      00316  0074 00 4 00014  QALOOP TSX     BROOM,4                                                  ULIB0185
      00317  0020 00 0 00324         TRA     QANG          *NO UNIT FOUND                             ULIB0186
      00320 -0500 00 1 75646         CAL     UNITID,1      HOW ABOUT THIS ONE                         ULIB0187
      00321  0322 00 0 03335         ERA     (ID)          ..                                         ULIB0188
      00322  0100 00 0 00313         TZE     QATOUT        *YES                                       ULIB0189
      00323  0020 00 0 00015         TRA     SWEEP         *NO                                        ULIB0190
                                                                                                      ULIB0191
      00324  0500 00 0 00324  QANG   CLA     *             NO UNIT FOUND                              ULIB0192
      00325  0020 00 0 00313         TRA     QATOUT        ..                                         ULIB0193
                                                                                                      ULIB0194
                              *      THIS IS CHK636, A ROUTINE TO CHECK RESERVEDNESS OF THE 6.36      ULIB0195
                              *  CODE.  THIS ROUTINE UNASHAMEDLY CLOBBERS XR1 AND XR2.                ULIB0196

                              *  CALLING SEQUENCE..                                                   ULIB0198

                              *      TSX     CHK636,4                                                 ULIB0200
                              *      (BUSY RETURN)                                                    ULIB0201
                              *      (NORMAL RETURN)                                                  ULIB0202

      00326  0535 00 2 00352  CHK636 LAC     636USR,2      IS 636 BUSY                                ULIB0204
      00327 -2 00000 2 00347         TNX     636FRE,2,0    *NO                                        ULIB0205
      00330  0535 00 1 74502         LAC     USER,1        BUSY WITH USER (Q)                         ULIB0206
      00331 -0500 00 1 76500         CAL     PROBN,1       ..                                         ULIB0207
      00332  0322 00 0 00350         ERA     PRB636        ..                                         ULIB0208
      00333 -0100 00 0 00337         TNZ     636A          ..  *NO.  MAYBE RESERVER FORGOT            ULIB0209
      00334 -0500 00 1 76427         CAL     PROGN,1       ..  STILL LOOKING                          ULIB0210
      00335  0322 00 0 00351         ERA     PRG636        ..                                         ULIB0211
      00336  0100 00 4 00002         TZE     2,4           *YES, BUSY WITH USER.                      ULIB0212
      00337 -0500 00 0 00350  636A   CAL     PRB636        ..                                         ULIB0213
      00340  0602 00 0 72173         SLW     LAC           LEAVE NOTE FOR LATECOMER                   ULIB0214
      00341  0322 00 2 76500         ERA     PROBN,2       IS RESERVER STILL AROUND                   ULIB0215
      00342 -0100 00 4 00002         TNZ     2,4           *NO.  WHOEVER HE IS, HE IS GONE            ULIB0216
      00343 -0500 00 0 00351         CAL     PRG636        MAYBE HE'S STILL HERE                      ULIB0217
      00344  0602 00 0 72175         SLW     MQ            LEAVE NOTE FOR LATECOMER                   ULIB0218
      00345  0322 00 2 76427         ERA     PROGN,2       IS RESERVER STILL AROUND                   ULIB0219
      00346  0100 00 4 00001         TZE     1,4           *YES, BUSY RETURN                          ULIB0220
      00347  0020 00 4 00002  636FRE TRA     2,4           *NO, 636 IS FREE                           ULIB0221

      00350                          TEMPS   (PRB636,PRG636,636USR)                                   ULIB0223
                       00352  GE.USR SYN     636USR                                                   ULIB0224
                                                                                                      ULIB0225
                                                                                                      ULIB0226
                                                                                                      ULIB0227
                              *  *  *  *  *  *  *  *  *  *  *  *  *  *  *  *  *  *  *  *  *  *  *  *  ULIB0228
                                                                                                      ULIB0229
1       ............ ULIB ...... USER SUBROUTINE LIBRARY MODULE .............    07/05/71 1909.0 PAGE 5

                                                           TSS USER SYSTEM SUBROUTINES                ULIB0231
                                                                                                      ULIB0232
      00353  0074 00 4 00226  RDFLX  TSX     GETARG,4      ROUTINE TO READ FROM TYPEWRITER BUFFERS    ULIB0233
      00354 -0500 00 0 03307         CAL     1C4           CHECK FOR                                  ULIB0234
      00355  0074 00 2 01407         TSX     MADBLK,2        MAD BLOCK PARAMETER                      ULIB0235
      00356  0602 00 0 03307         SLW     1C4             UPDATE POINTER                           ULIB0236
      00357 -0734 00 4 00000         PDX     ,4            GET WORD COUNT                             ULIB0237
      00360  3 00000 4 00362         TXH     *+2,4,0       IF NOT SPECIFIED, SUPPLY STANDARD COUNT    ULIB0238
      00361  0774 00 4 00016         AXT     WDSLIN,4                                                 ULIB0239
      00362 -0634 00 4 03307         SXD     1C4,4                                                    ULIB0240
      00363 -0500 00 0 03307         CAL     1C4           PZE  BUFF,,WDCT                            ULIB0241
      00364  0074 00 4 00020         TSX     BLKCHK,4      RELOCATE AND CHECK BUFFER ADDRESS          ULIB0242
      00365  0 00000 0 00003                 PTERR         .. ERROR RETURN                            ULIB0243
      00366 -0760 00 0 00003         SSM                   SET SIGN FOR CORE B                        ULIB0244
      00367  0601 00 0 00372         STO     RDFLX.        SET USER BUFFER ADDRESS                    ULIB0245
      00370  0074 00 4 00012         TSX     CKQUIT,4      CHECK IF USER HIT QUIT                     ULIB0246
      00371  0074 00 4 00013         TSX     RDLINE,4      READ A LINE FROM COMMON INPUT BUFFER       ULIB0247
      00372 -0 00000 0 00000  RDFLX. MZE     **,,**        ..                                         ULIB0248
      00373  0 00000 0 74502                 USER,,0       TELL RDFLXA WHICH CONSOLE TO READ          ULIB0249
      00374  0020 00 0 00377         TRA     INWAIT        ..EMPTY BUFFER RETURN                      ULIB0250
      00375  0602 00 0 72173         SLW     LAC           SET AC FROM IND                            ULIB0251
      00376  0020 00 0 02672         TRA     RETRN2        .. NORMAL RETURN                           ULIB0252
                                                                                                      ULIB0253
      00377                   INWAIT SCHEDL  Q2,USER,Q4    TELL SCHEDL. USER WAITING FOR INPUT        ULIB0254
      00403  0074 00 4 00010         TSX     CYCLE,4       RETURN TO MAIN CONTROL SECTION             ULIB0255
                                                                                                      ULIB0256
                              *  *  *  *  *  *  *  *  *  *  *  *  *  *  *  *  *  *  *  *  *  *  *  *  ULIB0257
                                                                                                      ULIB0258
      00404  0774 00 4 00001  (WFXA) AXT     WRFLXA,4      ROUTINE TO WRITE ON USER TYPEWRITER (WO/CR)ULIB0259
      00405  0020 00 0 00407         TRA     (WRFX)+1                                                 ULIB0260
                                                                                                      ULIB0261
      00406  0774 00 4 00000  (WRFX) AXT     WRFLX,4       ROUTINE TO WRITE ON USER TYPEWRITER (W/CR) ULIB0262
      00407  0634 00 4 00452         SXA     WTCALL,4      SET UP CALL TO WRFLXA OR WRFLX             ULIB0263
      00410  0600 00 0 00460         STZ     PSWTCH        ZERO PRIV. COM. SWITCH                     ULIB0264
      00411  0074 00 4 00226         TSX     GETARG,4      PICK UP ARGUMENTS                          ULIB0265
      00412  0560 00 0 74502         LDQ     USER                                                     ULIB0266
      00413  0774 00 1 00461         AXT     OWAIT,1       SET ASSUMED OPTION                         ULIB0267
      00414  0535 00 4 74502         LAC     USER,4        GET USER NO.                               ULIB0268
      00415                          ZETBIT  USROPT,4,NINTBT   IS THIS USER NOT TO BE INTERRUPTED     ULIB0269
      00417  0774 00 1 00001         AXT     .F.,1         YES, SET FORCE OPTION                      ULIB0270
      00420  0441 00 0 72232         LDI     URCODE        RELOAD RESTRICTION CODE                    ULIB0271
      00421 -0500 00 0 03310         CAL     2C4           PICK UP SECOND ARGUMENT                    ULIB0272
      00422 -0320 00 0 03401         ANA     =O777776000000    TEST IF USERNO SUPPLIED BY CALLER      ULIB0273
      00423 -0100 00 0 00437         TNZ     WFX1          NO                                         ULIB0274
      00424  0446 00 0 03347         ONT     MSKD5         YES ..                                     ULIB0275
      00425  0020 00 0 00437         TRA     WFX1          IF NOT PRIV. COMMAND, IGNORE ARGUMENT.     ULIB0276
      00426 -0625 00 0 00460         STL     PSWTCH        SET 3,4 RETURN SWITCH                      ULIB0277
      00427 -0500 00 0 03310         CAL     2C4           PICK UP INDIRECTLY SPECIFIED USER NUMBER   ULIB0278
      00430  0734 00 4 00000         PAX     ,4            SEE IF SUPPLIED                            ULIB0279
      00431 -3 00000 4 00434         TXL     *+3,4,0       .. NO, 'USER' STILL IN MQ, SKIP            ULIB0280
      00432  0074 00 4 00272         TSX     GETIND,4      ..                                         ULIB0281
      00433  0131 00 0 00000         XCA                                                              ULIB0282
      00434 -0534 00 4 03310         LXD     2C4,4         DID USER SPECIFY .F.                       ULIB0283
      00435 -3 00000 4 00437         TXL     WFX1,4,.I.      NO, SKIP                                 ULIB0284
      00436  0774 00 1 00001         AXT     .F.,1           YES, SET FORCE OPTION                    ULIB0285
      00437 -0600 00 0 03310  WFX1   STQ     2C4           SET UP WRFLX(A) CALL                       ULIB0286
1       ............ ULIB ...... USER SUBROUTINE LIBRARY MODULE .............    07/05/71 1909.0 PAGE 6

      00440 -0634 00 1 00454         SXD     WTCALL+2,1    SET OPTION INTO CALL                       ULIB0287
      00441 -0500 00 0 03307         CAL     1C4           PZE BUFF,,WDCNT                            ULIB0288
      00442  0074 00 2 01407         TSX     MADBLK,2      CHECK FOR MAD CALLING SEQ.                 ULIB0289
      00443  0074 00 4 00246         TSX     GETBUF,4      CHECK LOC OF BUFFER AND MOVE CONTENTS TO A ULIB0290
      00444  0622 00 0 00453         STD     WTCALL+1      SET WORD COUNT FOR WRFLX CALL              ULIB0291
      00445  0535 00 1 03310         LAC     2C4,1         -RECIPIENT IN X1                           ULIB0292
      00446  0500 00 0 03307         CLA     1C4           PREFIX SPECIFIES MODE                      ULIB0293
      00447  0074 00 4 00466         TSX     CKFULL,4      DECIDE WHAT MODE                           ULIB0294
      00450  0630 00 0 00453         STP     WTCALL+1      PLUS FOR 6-BIT, MINUS FOR 12-BIT           ULIB0295
      00451  0074 00 4 00012         TSX     CKQUIT,4      CHECK IF USER HIT QUIT                     ULIB0296
      00452  0074 00 4 00000  WTCALL TSX     **,4          GO TO WRFLX OR WRFLXA TO TYPE LINE         ULIB0297
      00453  0 00000 0 74322         ***     PBUFF,,**     PREFIX PLUS FOR 6-BIT, MINUS FOR 12-BIT.   ULIB0298
      00454  0 00461 0 03310                 2C4,,OWAIT    ..                                         ULIB0299
      00455 -0520 00 0 00460         NZT     PSWTCH        TEST RETURN SWITCH                         ULIB0300
      00456  0020 00 0 02672         TRA     RETRN2        NORMAL RETURN, EXIT 2,4                    ULIB0301
      00457  0020 00 0 02674         TRA     RETRN3        RETURN 3,4                                 ULIB0302
      00460  0 00000 0 00000  PSWTCH PZE                                                              ULIB0303
      00461                   OWAIT  SCHEDL  Q2,USER,Q5    TELL SCHEDL. USER IN OUTPUT WAIT           ULIB0304
      00465  0074 00 4 00010         TSX     CYCLE,4       RETURN TO MAIN CONTROL                     ULIB0305
                                                                                                      ULIB0306
                                                           -RECIPIENT IN X1, MODE PREFIX IN AC.       ULIB0307
      00466  0120 00 0 00472  CKFULL TPL     CKFUL1        USE FULBIT FOR PFX=0,1,2,3                 ULIB0308
      00467  0767 00 0 00001         ALS     1                                                        ULIB0309
      00470 -0760 00 0 00001         PBT                                                              ULIB0310
      00471  0020 00 0 00477         TRA     CKFUL2        MODE SPECIFIED BY USER, PFX=4,5            ULIB0311
      00472 -0754 00 0 00000  CKFUL1 ZAC                   USE FULBIT                                 ULIB0312
      00473                          ZETBIT  ,1,FULBIT     IS HE IN FULL MODE                         ULIB0313
      00475 -0500 00 0 74654         CAL     M0            PREFIX NEGATIVE IF SO                      ULIB0314
      00476  0020 00 4 00001         TRA     1,4                                                      ULIB0315
      00477  0767 00 0 00001  CKFUL2 ALS     1             PFX=4 (6-BIT) OR =5 (12-BIT)               ULIB0316
      00500  0020 00 4 00001         TRA     1,4           RETURN PFX + FOR 6-BIT, - FOR 12-BIT.      ULIB0317
                                                                                                      ULIB0318
                              *  *  *  *  *  *  *  *  *  *  *  *  *  *  *  *  *  *  *  *  *  *  *  *  ULIB0319
                                                                                                      ULIB0320
                              *      WSCOPE PERFORMS SEVERAL FUNCTIONS FOR ARDS SCOPE USERS           ULIB0321
                                                                                                      ULIB0322
                              *      CALLING SEQUENCE                                                 ULIB0323
                                                                                                      ULIB0324
                              *      TSX     WSCOPE,4                                                 ULIB0325
                              *      OPCODE  ADDR,TAG,DECR                                            ULIB0326
                                                                                                      ULIB0327
                              *      PZE     BUFF,0,COUNT  WRITE SCOPE IN 6 BIT MODE                  ULIB0328
                              *      PZE     BUFF,1,COUNT  WRITE SCOPE IN 12 BIT MODE                 ULIB0329
                                                                                                      ULIB0330
                              *      PON     LOC,0,N       GETPRM                                     ULIB0331
                              *      PON     LOC,1,N       SETPRM                                     ULIB0332
                                                                                                      ULIB0333
                              *      PTW     ,0,           TURN OFF BITS FOR GRAPHICAL INPUT          ULIB0334
                              *      PTW     ,1,           TURN ON THES BITS                          ULIB0335
                                                                                                      ULIB0336
                              *      PTH     ,0,           SGNOFF                                     ULIB0337
                              *      PTH     LINE,1,       SGNON                                      ULIB0338
                                                                                                      ULIB0339
      00501  0535 00 4 74502  (WSCP) LAC     USER,4        -USER TO XR4                               ULIB0340
      00502 -0500 00 4 75646         CAL     UNITID,4      GET HIS UNIT NUMBER                        ULIB0341
      00503 -0320 00 0 03374         ANA     =O170000000000    AND CHECK IF IT BELONGS TO A SCOPE     ULIB0342
1       ............ ULIB ...... USER SUBROUTINE LIBRARY MODULE .............    07/05/71 1909.0 PAGE 7

      00504  0322 00 0 03373         ERA     =O110000000000    FIRST CHAR MUST BE 9 THEN              ULIB0343
      00505 -0100 00 0 00164         TNZ     SUBNFD        NOT SCOPE USER, PMV                        ULIB0344
                                                                                                      ULIB0345
      00506  0074 00 4 00226         TSX     GETARG,4      PICK UP THE ARGUMENT                       ULIB0346
      00507 -0500 00 0 03307         CAL     1C4           ..                                         ULIB0347
      00510  0625 00 0 00520         STT     SCPTAG        SAVE THE TAG                               ULIB0348
      00511  0771 00 0 00041         ARS     33            SHIFT OPCODE TO THE RIGHT                  ULIB0349
      00512  0734 00 2 00000         PAX     ,2            AND INTO XR2                               ULIB0350
      00513 -3 00000 2 00521         TXL     WSCP1,2,0     TAG WAS ZERO, WSCOPE                       ULIB0351
      00514 -3 00001 2 00533         TXL     GTSTPR,2,1    TAG WAS ONE, GET SET PARMS                 ULIB0352
      00515 -3 00002 2 00563         TXL     STGRPH,2,2    TAG TWO, SET BIT IN USWITCH                ULIB0353
      00516 -3 00003 2 02672         TXL     RETRN2,2,3    TAG THREE, SIGN ON OR OFF--NO LONGER USED  ULIB0354
      00517  0020 00 0 00172         TRA     ILLEGL        WE DON'T KNOW WHAT HE WANTS                ULIB0355
                                                                                                      ULIB0356
      00520  0 00000 0 00000  SCPTAG PZE                   KEEPS TAG OF ARGUMENT                      ULIB0357
                                                                                                      ULIB0358
      00521 -0500 00 0 00520  WSCP1  CAL     SCPTAG        PICK UP TAG OF ARGUMENT                    ULIB0359
      00522  0361 00 0 03371         ACL     =O400000      MAKE PREFIX 4 OR 5 TO SPECIFY MODE         ULIB0360
      00523  0767 00 0 00022         ALS     18                                                       ULIB0361
      00524  0630 00 0 03307         STP     1C4           AND STORE IN ARGS                          ULIB0362
      00525  0774 00 4 00052         AXT     WRSCFX,4      CHANGE CALLED ENTRY TOO                    ULIB0363
      00526  0634 00 4 00452         SXA     WTCALL,4      ..                                         ULIB0364
      00527  0600 00 0 00460         STZ     PSWTCH        INDICATE 2,4 RETURN                        ULIB0365
      00530  0560 00 0 74502         LDQ     USER          GET USER INTO MQ                           ULIB0366
      00531  0774 00 1 00461         AXT     OWAIT,1       SET WRFLX OPTION OUTPUT WAIT               ULIB0367
      00532  0020 00 0 00437         TRA     WFX1          PROCEED NOW LIKE WRFLX                     ULIB0368
                                                                                                      ULIB0369
      00533 -0520 00 0 00520  GTSTPR NZT     SCPTAG        WAS TAG OF ARG ZERO .Q.                    ULIB0370
      00534  0020 00 0 00546         TRA     GETP          YES, SO IT IS GET PARMS                    ULIB0371
      00535 -0500 00 0 03307  SETP   CAL     1C4           PICK UP ARGUMENT                           ULIB0372
      00536 -0320 00 0 03402         ANA     =O777777077777    MASK OUT TAG TO AVOID CONFUSION        ULIB0373
      00537  0074 00 4 00246         TSX     GETBUF,4      GET BUFFER OF PARAMETERS                   ULIB0374
      00540  0622 00 0 00543         STD     GETP-3        SET COUNT IN CALL                          ULIB0375
      00541  0074 00 4 00012         TSX     CKQUIT,4      CHECK FOR QUITTER                          ULIB0376
      00542  0074 00 4 00050         TSX     SETPRM,4      HE IS STILL HERE, GO SET PARAMETERS        ULIB0377
      00543  0 00005 0 74322         PZE     PBUFF,,5      FROM PBUFF                                 ULIB0378
      00544  0 00000 0 74502         PZE     USER          CURRENT USER                               ULIB0379
      00545  0020 00 0 02672         TRA     RETRN2        AND RETURN                                 ULIB0380
      00546  0074 00 4 00051  GETP   TSX     GETPRM,4      GET PARAMETERS                             ULIB0381
      00547 -0500 00 0 03307         CAL     1C4           PICK UP CONTROL WORD                       ULIB0382
      00550  0621 00 0 00557         STA     MOVLOC        SET ADDRESS IN B-CORE                      ULIB0383
      00551  0771 00 0 00022         ARS     18            COUNT TO ADDR                              ULIB0384
      00552 -0320 00 0 74662         ANA     Q7            MAKE SURE LESS THAN 8                      ULIB0385
      00553  0621 00 0 00560         STA     MOVLOC+1      COUNT IN MOVE CALL                         ULIB0386
      00554  0074 00 4 00022         TSX     MOVE,4        AND MOVE THE BUFFER THERE                  ULIB0387
      00555  0 74652 0 74653         PZE     LA,,LB        TELL MOVE A TO B                           ULIB0388
      00556  0 00000 0 74322         PZE     PBUFF                                                    ULIB0389
      00557  0 00000 0 00000  MOVLOC PZE     **            ..                                         ULIB0390
      00560  0 00000 0 00000         PZE     **            ..                                         ULIB0391
      00561  0 00000 0 00003         PZE     PTERR         ..                                         ULIB0392
      00562  0020 00 0 02672         TRA     RETRN2        AND RETURN                                 ULIB0393
                                                                                                      ULIB0394
      00563  0560 00 0 00736  STGRPH LDQ     SIL           LOAD INSTRUCTION TO SET BITS               ULIB0395
      00564 -0520 00 0 00520         NZT     SCPTAG        WAS TAG OF ARGUMENT ON .Q.                 ULIB0396
      00565  0560 00 0 00737         LDQ     RIL           NO, SO BITS ARE TO BE RESET                ULIB0397
      00566 -0620 00 0 00575         SLQ     CHNGE         STORE INSTRUCTION CODE                     ULIB0398
1       ............ ULIB ...... USER SUBROUTINE LIBRARY MODULE .............    07/05/71 1909.0 PAGE 8

      00567  0535 00 4 74502         LAC     USER,4        -USER TO XR4                               ULIB0399
      00570  0600 00 0 72173         STZ     LAC           BRING BACK OLD STATUS IN AC                ULIB0400
      00571  0564 00 0 74671         ENB     Q0              ..                                       ULIB0401
      00572                          ZETBIT  USROPT,4,GPHBIT   WAS BIT ON .Q.                         ULIB0402
      00574 -0625 00 0 72173         STL     LAC           YES, RETURN WITH AC NON ZERO               ULIB0403
      00575 -0055 00  000010  CHNGE  SIL     GPHBIT        SET-RESET BIT IN USROPT                    ULIB0404
      00576  0604 00 4 75770         STI     USROPT,4      AND STORE IT BACK                          ULIB0405
      00577  0074 00 4 00006         TSX     SETSWS,4      SET NEW MODE                               ULIB0406
      00600 -0 00002 0 74502         MZE     USER,,2       ..                                         ULIB0407
      00601  0020 00 0 02672         TRA     RETRN2        AND RETURN                                 ULIB0408
                                                                                                      ULIB0409
                                                                                                      ULIB0410
                              *  *  *  *  *  *  *  *  *  *  *  *  *  *  *  *  *  *  *  *  *  *  *  *  ULIB0411
                              ************************************************************************ULIB0412
                              ************************************************************************ULIB0413
                                                                                                      ULIB0414
                              *      ENTRY POINTS CONCERNED WITH ATTACHED REMOTE CONSOLES             ULIB0415
                                                                                                      ULIB0416
                              *      THE FORMAT OF THE ADOPT ARRAY IS CRUCIAL TO THESE ROUTINES.  A   ULIB0417
                              *  USER'S ENTRY IN THIS ARRAY IS                                        ULIB0418
                                                                                                      ULIB0419
                              *      PZE     0             IF HE IS IN THE NON-ADOPTABLE STATE.,      ULIB0420
                                                                                                      ULIB0421
                              *      MZE     0             IF HE IS IN THE ADOPTABLE STATE.,          ULIB0422
                                                                                                      ULIB0423
                              *      PZE     L,S           IF HE HAS BEEN ADOPTED BY USER NO. L,      ULIB0424
                              *                              AND HE IS A SLAVE AS SPECIFIED BY THE    ULIB0425
                              *                              BITS S.,                                 ULIB0426
                                                                                                      ULIB0427
                              *      SEVEN   ,T            IF HE IS A SLAVER.  T IS THEN THE LOGICAL  ULIB0428
                              *                              OR OF THE SLAVE BITS OF HIS ADOPTEES.    ULIB0429
                                                                                                      ULIB0430
                              *      BITS 18, 19, AND 20 ARE USED TO INDICATE II, IO, AND OO          ULIB0431
                              *  SLAVING, RESPECTIVELY.                                               ULIB0432
                                                                                                      ULIB0433
                              *  CALLING SEQUENCE FOR THE ATTCON ENTRY..                              ULIB0434
                                                                                                      ULIB0435
                              *      TSX     ATTCON,4                                                 ULIB0436
                              *              =HID          1C4                                        ULIB0437
                              *      RETURN                2,4  AC NON-ZERO FOR ERROR                 ULIB0438
                                                                                                      ULIB0439
      00602  0074 00 4 00226  ATTCON TSX     GETARG,4      SET UP ID AT 1C4                           ULIB0440
      00603 -0625 00 0 72173         STL     LAC           ANTICIPATE FAILURE                         ULIB0441
      00604 -0500 00 0 03307         CAL     1C4           PICK UP DESIGNATED I.D.                    ULIB0442
      00605  0074 00 4 00272         TSX     GETIND,4      ..                                         ULIB0443
      00606  0602 00 0 03335         SLW     (ID)          ..                                         ULIB0444
      00607  0322 00 0 03400         ERA     =H(HOME)      ALWAYS ACCEPT I.D. '(HOME)'                ULIB0445
      00610  0100 00 0 00634         TZE     ATCHRT-1      ..                                         ULIB0446
      00611 -0774 00 1 00050         AXC     N,1           SEARCH UNITID TABLE FOR IT                 ULIB0447
      00612 -0500 00 0 03335  ATCH1  CAL     (ID)          ..                                         ULIB0448
      00613  0322 00 1 75646         ERA     UNITID,1      ..                                         ULIB0449
      00614  0100 00 0 00617         TZE     ATCH2         *CONSOLE I.D. OK                           ULIB0450
      00615  3 77776 1 00635  ATCH4  TXH     ATCHRT,1,-2   *NO MORE IDS TO TRY                        ULIB0451
      00616  1 00001 1 00612         TXI     ATCH1,1,1     *TRY FOR MORE                              ULIB0452
                                                                                                      ULIB0453
                              *      IS THIS FELLOW ADOPTABLE OR ALREADY ATTACHED BY THE USER         ULIB0454
1       ............ ULIB ...... USER SUBROUTINE LIBRARY MODULE .............    07/05/71 1909.0 PAGE 9

                                                                                                      ULIB0455
      00617  0500 00 1 75065  ATCH2  CLA     ADOPT,1                                                  ULIB0456
      00620 -0120 00 0 00623         TMI     ATCH3         *ADOPTABLE OR A SLAVER                     ULIB0457
      00621  0322 00 0 74502         ERA     USER          PERHAPS HE IS ALREADY ATTACHED TO USER     ULIB0458
      00622 -0320 00 0 74651         ANA     AMASK         ..                                         ULIB0459
      00623 -0100 00 0 00615  ATCH3  TNZ     ATCH4         *TRY ANOTHER LUN                           ULIB0460
      00624 -0500 00 0 74502         CAL     USER          ATTACH THIS ONE                            ULIB0461
      00625 -0501 00 1 75065         ORA     ADOPT,1       PRESERVE HIS OLD SLAVE MODE                ULIB0462
      00626  0601 00 1 75065         STO     ADOPT,1       NOTE CAL-STO FOR + SIGN                    ULIB0463
      00627  0636 00 1 03327         SCA     ADPTEE,1      GUARANTEE                                  ULIB0464
      00630                          SCHEDL  Q2,ADPTEE,Q0  DEAD STATUS                                ULIB0465
      00634  0600 00 0 72173         STZ     LAC           BADGE OF SUCCESSFUL RETURN                 ULIB0466
      00635  0020 00 0 02672  ATCHRT TRA     RETRN2        RETURN TO USER AT 2,4                      ULIB0467
                                                                                                      ULIB0468
                                                                                                      ULIB0469
                              *  CALLING SEQUENCE FOR THE REDLIN ENTRY..                              ULIB0470
                                                                                                      ULIB0471
                              *      TSX     REDLIN,4                                                 ULIB0472
                              *              =HID          1C4                                        ULIB0473
                              *              BUFF,,WDCT    2C4                                        ULIB0474
                              *      EMPTY                 3C4                                        ULIB0475
                              *      NORMAL RETURN         4,4                                        ULIB0476
                                                                                                      ULIB0477
      00636  0074 00 4 00303  REDLIN TSX     QATTCH,4      IS THE DESIGNATED CONSOLE ATTACHED         ULIB0478
      00637 -0100 00 0 00653         TNZ     RDLRTN        *NO.  RETURN AT ONCE                       ULIB0479
      00640  0636 00 1 03327         SCA     ADPTEE,1      LUN(DESIGNATED CONSOLE)                    ULIB0480
      00641 -0500 00 0 03310         CAL     2C4           BUFF,,WDCT                                 ULIB0481
      00642  0074 00 2 01407         TSX     MADBLK,2      CHECK FOR MAD CALL                         ULIB0482
      00643  0074 00 4 00020         TSX     BLKCHK,4      RELOCATE AND CHECK BUFFER SPECS            ULIB0483
      00644  0 00000 0 00003                 PTERR         ..                                         ULIB0484
      00645 -0760 00 0 00003         SSM                   .. SET UP MZE TO INDICATE CORE B           ULIB0485
      00646  0601 00 0 00650         STO     READIT+1      ..                                         ULIB0486
                                                                                                      ULIB0487
      00647  0074 00 4 00013  READIT TSX     RDLINE,4                                                 ULIB0488
      00650 -0 00000 0 00000         MZE     **,,**        BUFF,,WDCT                                 ULIB0489
      00651  0 00000 0 03327                 ADPTEE,,0                                                ULIB0490
      00652  0020 00 0 00654         TRA     *+2           EMPTY RETURN                               ULIB0491
      00653  0020 00 0 02676  RDLRTN TRA     RETRN4        RETURN TO USER AT 4,4                      ULIB0492
                                                                                                      ULIB0493
      00654 -0520 00 0 03311         NZT     3C4           DID THIS USER HAVE AN EMPTY RETURN IN MIND ULIB0494
      00655  0020 00 0 00377         TRA     INWAIT        *NO., SET HIM INTO INPUT WAIT              ULIB0495
      00656  0020 00 0 02674         TRA     RETRN3        *YES., RETURN TO USER AT 3,4               ULIB0496
                                                                                                      ULIB0497
                                                                                                      ULIB0498
                              *      CALLING SEQUENCE FOR RDLINA ENTRY..                              ULIB0499
                                                                                                      ULIB0500
                              *      TSX     RDLINA,4                                                 ULIB0501
                              *              =HUNITID      1C4                                        ULIB0502
                              *              BUFF,,WDCT    2C4                                        ULIB0503
                              *              EMPTY         3C4                                        ULIB0504
                              *              NOTATT        4C4                                        ULIB0505
                              *      NORMAL RETURN         5,4                                        ULIB0506
                                                                                                      ULIB0507
                              *      ON NORMAL RETURN, THE AC CONTAINS A 6BIT CHARACTER COUNT         ULIB0508
                              *      AND THE PARTIAL LINE FLAG.                                       ULIB0509
                                                                                                      ULIB0510
1       ............ ULIB ...... USER SUBROUTINE LIBRARY MODULE .............    07/05/71 1909.0 PAGE 10

                              *      IF THE INPUT BUFFER IS EMPTY, THE RETURN IS TO EMPTY.  IF        ULIB0511
                              *      EMPTY IS ZERO, THE USER IS PUT INTO INPUT WAIT STATUS.           ULIB0512
                                                                                                      ULIB0513
                              *      IF THE CONSOLE SPECIFIED IS NOT ATTACHED, THE RETURN             ULIB0514
                              *      IS TO NOTATT.                                                    ULIB0515
                                                                                                      ULIB0516
      00657  0074 00 4 00303  RDLINA TSX     QATTCH,4      SEE IF THE CONSOLE GIVEN IS ATTACHED.      ULIB0517
      00660  0534 00 4 03312         LXA     4C4,4         RETURN THROUGH 4,4                         ULIB0518
      00661 -0100 00 0 02706         TNZ     RETRNX        ..IF NOT ATTACHED.                         ULIB0519
      00662  0636 00 1 03327         SCA     ADPTEE,1      LUN(DESIGNATED CONSOLE)                    ULIB0520
      00663 -0500 00 0 03310         CAL     2C4           BUF,,WDCT                                  ULIB0521
      00664  0074 00 2 01407         TSX     MADBLK,2      CHECK FOR MAD CALL                         ULIB0522
      00665  0074 00 4 00020         TSX     BLKCHK,4      RELOCATE AND CHECK BUFFER SPECS            ULIB0523
      00666  0 00000 0 00003                 PTERR         ..                                         ULIB0524
      00667  0621 00 0 00672         STA     RDLWD         STORE ADDRESS (BUFFER LOCATION)            ULIB0525
      00670  0622 00 0 00672         STD     RDLWD         ..AND DECREMENT (WORD COUNT)               ULIB0526
      00671  0074 00 4 00013         TSX     RDLINE,4                                                 ULIB0527
      00672 -0 00000 0 00000  RDLWD  MZE     **,,**        MZE SAYS B-CORE                            ULIB0528
      00673  0 00000 0 03327                 ADPTEE,,0                                                ULIB0529
      00674  0020 00 0 00677         TRA     RDLEMP                                                   ULIB0530
      00675  0602 00 0 72173         SLW     LAC           RETURN 6BIT CHAR COUNT AND INDICATOR       ULIB0531
      00676  0020 00 0 02700         TRA     RETRN5        ..AND TAKE NORMAL RETURN                   ULIB0532
                                                                                                      ULIB0533
      00677  0534 00 4 03311  RDLEMP LXA     3C4,4         OBTAIN EMPTY RETURN                        ULIB0534
      00700 -3 00000 4 00377         TXL     INWAIT,4,0    IF ZERO, PUT USER IN INPUT WAIT            ULIB0535
      00701  0020 00 0 02706         TRA     RETRNX        ELSE RETURN WHERE HE SAID.                 ULIB0536
                                                                                                      ULIB0537
                                                                                                      ULIB0538
                              *  CALLING SEQUENCE FOR THE RELEAS ENTRY..                              ULIB0539
                                                                                                      ULIB0540
                              *      TSX     RELEAS,4                                                 ULIB0541
                              *              =HID          1C4                                        ULIB0542
                              *      RETURN                2,4                                        ULIB0543
                                                                                                      ULIB0544
      00702  0074 00 4 00303  RELEAS TSX     QATTCH,4      IS THE DESIGNATED CONSOLE ATTACHED         ULIB0545
      00703 -0100 00 0 00720         TNZ     RLSRTN        *NO.  RETURN AT ONCE                       ULIB0546
      00704  0756 00 1 00000         PCA     ,1            DON'T LET HIM RELEASE HIS HOME CONSOLE     ULIB0547
      00705  0402 00 0 74502         SUB     USER          ..                                         ULIB0548
      00706  0100 00 0 00720         TZE     RLSRTN        ..                                         ULIB0549
      00707 -0500 00 0 74654         CAL     M0            SET RELEASEE BACK TO ATTACHABLE STATE      ULIB0550
      00710  0602 00 1 75065         SLW     ADOPT,1       ..                                         ULIB0551
      00711                          STZBIT  USROPT,1,FULBIT+NCVBIT+NBKBIT+GPHBIT SET TO 6-BIT MODE   ULIB0552
      00714  0756 00 1 00000         PCA     ,1            SAVE USERNO                                ULIB0553
      00715  0602 00 0 03332         SLW     WRTEMP        ..                                         ULIB0554
      00716  0074 00 4 00006         TSX     SETSWS,4      SET NEW MODE                               ULIB0555
      00717 -0 00000 0 03332         MZE     WRTEMP        ..                                         ULIB0556
      00720  0020 00 0 02672  RLSRTN TRA     RETRN2        RETURN TO USER AT 2,4                      ULIB0557
                                                                                                      ULIB0558
                                                                                                      ULIB0559
                              *  CALLING SEQUENCES FOR THE SET6 AND SET12 ENTRIES..                   ULIB0560
                                                                                                      ULIB0561
                              *      TSX     SETX,4                                                   ULIB0562
                              *              =HID          1C4                                        ULIB0563
                              *      RETURN                2,4                                        ULIB0564
                                                                                                      ULIB0565
      00721  0560 00 0 00737  SET6   LDQ     RIL                                                      ULIB0566
1       ............ ULIB ...... USER SUBROUTINE LIBRARY MODULE .............    07/05/71 1909.0 PAGE 11

      00722  0020 00 0 00724         TRA     SET12+1       JOIN STREAM WITH 0 FOR FULLSW              ULIB0567
                                                                                                      ULIB0568
      00723  0560 00 0 00736  SET12  LDQ     SIL           JOIN STREAM WITH NON-ZERO SET FOR FULBIT   ULIB0569
      00724 -0620 00 0 00731         SLQ     SETA1         FIX UP SETBIT MACRO TO SET/RESET FULBIT    ULIB0570
      00725  0074 00 4 00303         TSX     QATTCH,4      SEE IF DESIGNATED CONSOLE IS ATTACHED      ULIB0571
      00726 -0100 00 0 00735         TNZ     SETRTN        *IT IS NOT ATTACHED., RETURN NOW           ULIB0572
      00727  0636 00 1 03327         SCA     ADPTEE,1      LUN OF DESIGNATED CONSOLE                  ULIB0573
      00730  0441 00 1 75770         LDI     USROPT,1        ..                                       ULIB0574
      00731 -0055 00  000001  SETA1  SIL     FULBIT        SET/RESET MODAL BIT                        ULIB0575
      00732  0604 00 1 75770         STI     USROPT,1        ..                                       ULIB0576
      00733  0074 00 4 00006         TSX     SETSWS,4      SET MODE                                   ULIB0577
      00734 -0 00000 0 03327         MZE     ADPTEE,,0     ..                                         ULIB0578
      00735  0020 00 0 02672  SETRTN TRA     RETRN2        RETURN TO USER AT 2,4                      ULIB0579
                                                                                                      ULIB0580
      00736 -0055 00  000000  SIL    SIL     **            USED FOR MODIFYING TO STLBIT MACRO         ULIB0581
      00737 -0057 00  000000  RIL    RIL     **            USED FOR MODIFYING TO STZBIT MACRO         ULIB0582
                                                                                                      ULIB0583
                                                                                                      ULIB0584
                              *  CALLING SEQUENCE FOR THE SLAVE ENTRY..                               ULIB0585
                                                                                                      ULIB0586
                              *      TSX     SLAVE,4                                                  ULIB0587
                              *              =HID          1C4                                        ULIB0588
                              *              =HMODE        2C4                                        ULIB0589
                              *      RETURN                3,4                                        ULIB0590
                                                                                                      ULIB0591
                              *              WHERE ID IS THE CONSOLE I.D. AND MODE                    ULIB0592
                              *  IS 0 OR ANY STRING OF II, IO, AND OO.                                ULIB0593
                                                                                                      ULIB0594
      00740  0074 00 4 00303  SLAVE  TSX     QATTCH,4      SEE IF DESIGNATED UNIT IS ATTACHED         ULIB0595
      00741 -0100 00 0 00773         TNZ     SLVRET        *NOT ATTACHED                              ULIB0596
      00742  0756 00 1 00000         PCA     ,1            DON'T LET USER SLAVE HIMSELF               ULIB0597
      00743  0402 00 0 74502         SUB     USER          ..                                         ULIB0598
      00744  0100 00 0 00773         TZE     SLVRET        ..                                         ULIB0599
      00745 -0500 00 0 03310         CAL     2C4           GET DESIGNATED SLAVE MODE                  ULIB0600
      00746  0074 00 4 00272         TSX     GETIND,4      ..                                         ULIB0601
      00747  0441 00 0 74671         LDI     Q0            INITIALIZE USER'S TENTATIVE SLAVE WORD     ULIB0602
      00750  0100 00 0 00765         TZE     ALLSET        *NO SLAVING REQUIRED                       ULIB0603
      00751 -0130 00 0 00000         XCL                   PUT CHARACTERS IN MQ                       ULIB0604
      00752  0774 00 4 00003         AXT     3,4           GO THROUGH ALL THREE PAIRS                 ULIB0605
      00753 -0754 00 0 00000  SLVLOP ZAC                   FIRST (NEXT) PAIR IN LOW AC                ULIB0606
      00754 -0763 00 0 00014         LGL     12            ..                                         ULIB0607
      00755  0774 00 2 00006         AXT     SLVMDS,2      RUN THROUGH ALL POSSIBLE MODES             ULIB0608
      00756 -0340 00 2 01002         LAS     EMDTBL,2      ..                                         ULIB0609
      00757  0020 00 0 00761         TRA     *+2           *NOT THIS ONE                              ULIB0610
      00760  0020 00 0 00763         TRA     FOUND         *GOT IT                                    ULIB0611
      00761  2 00002 2 00756         TIX     *-3,2,2       *NOT THIS ONE, BUT STILL HOPE              ULIB0612
      00762  0020 00 0 00764         TRA     FOUND+1       *IGNORE NON-STANDARD SPECIFICATION         ULIB0613
                                                                                                      ULIB0614
      00763  0442 00 2 01003  FOUND  OSI     EMDTBL+1,2    UPDATE USER'S TENTATIVE SLAVE WORD         ULIB0615
      00764  2 00001 4 00753         TIX     SLVLOP,4,1    BACK FOR MORE SLAVE MODE SPECS             ULIB0616
                                                                                                      ULIB0617
      00765 -0046 00 0 00000  ALLSET PIA                   SET ADOPTEE'S SLAVE WORD                   ULIB0618
      00766  0625 00 1 75065         STT     ADOPT,1       ..                                         ULIB0619
      00767  0535 00 1 74502         LAC     USER,1        UPDATE USER'S SLAVE WORD                   ULIB0620
      00770  0442 00 1 75065         OSI     ADOPT,1       ADD IN OLD PREFIX AND TAG                  ULIB0621
      00771 -0055 00  700000         SIL     700000        MAKE SURE PREFIX IS SET SLAVE              ULIB0622
1       ............ ULIB ...... USER SUBROUTINE LIBRARY MODULE .............    07/05/71 1909.0 PAGE 12

      00772  0604 00 1 75065         STI     ADOPT,1       ..                                         ULIB0623
      00773  0020 00 0 02674  SLVRET TRA     RETRN3        RETURN TO USER AT 3,4                      ULIB0624
                                                                                                      ULIB0625
      00774  000000003131     BMDTBL BCI     1,0000II                                                 ULIB0626
      00775  0 00000 4 00000                 ,4                                                       ULIB0627
      00776  000000003146            BCI     1,0000IO                                                 ULIB0628
      00777  0 00000 2 00000                 ,2                                                       ULIB0629
      01000  000000004646            BCI     1,0000OO                                                 ULIB0630
      01001  0 00000 1 00000                 ,1                                                       ULIB0631
                       01002  EMDTBL EQU     *                                                        ULIB0632
                       00006  SLVMDS EQU     EMDTBL-BMDTBL                                            ULIB0633
                                                                                                      ULIB0634
                                                                                                      ULIB0635
                              *  CALLING SEQUENCES FOR THE SNDLIN AND SNDLNA ENTRIES..                ULIB0636
                                                                                                      ULIB0637
                              *      TSX     XXXXXX,4                                                 ULIB0638
                              *              =HID          1C4                                        ULIB0639
                              *      PFX     BUFF,,WDCT    PFX=4 FOR 6-BIT, 5 FOR 12-BIT, ELSE FULBIT ULIB0640
                              *      FULL                  3C4                                        ULIB0641
                              *      NORMAL RETURN         4,4                                        ULIB0642
                                                                                                      ULIB0643
      01002  0774 00 4 00024  SNDLIN AXT     .WRFX,4       SET UP CALL FOR C.R.'S                     ULIB0644
      01003  0020 00 0 01005         TRA     SNDLNA+1      JOIN MAIN STREAM                           ULIB0645
                                                                                                      ULIB0646
      01004  0774 00 4 00025  SNDLNA AXT     .WRFXA,4      SET UP CALL FOR NO C.R.'S                  ULIB0647
      01005  0634 00 4 01020         SXA     SENDIT,4      ..                                         ULIB0648
      01006  0074 00 4 00303         TSX     QATTCH,4      IS THE DESIGNATED CONSOLE ATTACHED         ULIB0649
      01007 -0100 00 0 01024         TNZ     SNDRTN        *NO.  RETURN AT ONCE                       ULIB0650
      01010  0636 00 1 03327         SCA     ADPTEE,1      LUN(ADOPTEE)                               ULIB0651
      01011 -0500 00 0 03310         CAL     2C4           BUFF,,WDCT                                 ULIB0652
      01012  0074 00 2 01407         TSX     MADBLK,2      CHECK FOR MAD CALL                         ULIB0653
      01013  0074 00 4 00246         TSX     GETBUF,4      MOVE THESE B-CORE WORDS TO PBUFF           ULIB0654
      01014  0622 00 0 01021         STD     SENDIT+1      SET THEIR NUMBER IN THE CALL               ULIB0655
      01015  0500 00 0 03310         CLA     2C4           GET PREFIX WHICH SPECIFIES MODE            ULIB0656
      01016  0074 00 4 00466         TSX     CKFULL,4      DECIDE WHETHER FULL OR NOT                 ULIB0657
      01017  0630 00 0 01021         STP     SENDIT+1      PREFIX PLUS FOR 6-BIT, MINUS FOR 12-BIT    ULIB0658
                                                                                                      ULIB0659
      01020  0074 00 4 00000  SENDIT TSX     **,4          WRFLX OR WRFLXA                            ULIB0660
      01021 -0 00000 0 74322         MZE     PBUFF,,**     WDCT                                       ULIB0661
      01022  0 00000 0 03327                 ADPTEE                                                   ULIB0662
      01023  0020 00 0 01025         TRA     *+2           FULL RETURN                                ULIB0663
      01024  0020 00 0 02676  SNDRTN TRA     RETRN4        RETURN TO USER AT 4,4                      ULIB0664
                                                                                                      ULIB0665
      01025 -0520 00 0 03311         NZT     3C4           DID THIS USER HAVE A FULL RETURN IN MIND   ULIB0666
      01026  0020 00 0 00461         TRA     OWAIT         *NO., SET HIM INTO OUTPUT WAIT             ULIB0667
      01027  0020 00 0 02674         TRA     RETRN3        *YES., RETURN TO USER AT 3,4               ULIB0668
                                                                                                      ULIB0669
      01030  0535 00 1 74502  VACUUM LAC     USER,1        ROUTINE FOR LOGOUT                         ULIB0670
      01031  0441 00 0 74654         LDI     M0            LEAVE ADOPTEES ADOPTABLE                   ULIB0671
      01032  0074 00 4 00014         TSX     BROOM,4       START SCANNING ADOPT ARRAY                 ULIB0672
      01033  0020 00 0 02670         TRA     RETRN1        HERE IF FINISHED WITH ADOPTEES..1,4        ULIB0673
      01034  0604 00 1 75065         STI     ADOPT,1       HERE AFTER EACH ADOPTEE IS FOUND           ULIB0674
      01035  0020 00 0 00015         TRA     SWEEP         GO BACK FOR MORE                           ULIB0675
                                                                                                      ULIB0676
                                                                                                      ULIB0677
                                                                                                      ULIB0678
1       ............ ULIB ...... USER SUBROUTINE LIBRARY MODULE .............    07/05/71 1909.0 PAGE 13

                              *      END OF ENTRY POINTS CONCERNED WITH ATTACHED REMOTE CONSOLES      ULIB0679
                                                                                                      ULIB0680
                              ************************************************************************ULIB0681
                              ************************************************************************ULIB0682
                                                                                                      ULIB0683
                              *      ENTRY POINTS CONCERNED WITH INTER-PROGRAM COMMUNICATION          ULIB0684
                                                                                                      ULIB0685
                                                                                                      ULIB0686
                              *  CALLING SEQUENCE FOR THE ALLOW ENTRY..                               ULIB0687
                                                                                                      ULIB0688
                              *      TSX     ALLOW,4                                                  ULIB0689
                              *              =HPROBN       1C4                                        ULIB0690
                              *              =HPROGN       2C4                                        ULIB0691
                              *      RETURN                                                           ULIB0692
                                                                                                      ULIB0693
      01036  0074 00 4 00226  ALLOW  TSX     GETARG,4      SET UP 1C4 AND 2C4                         ULIB0694
      01037  0535 00 1 74502         LAC     USER,1                                                   ULIB0695
      01040 -0500 00 0 03307         CAL     1C4           FIND APPROVED PROBN                        ULIB0696
      01041  0074 00 4 00272         TSX     GETIND,4      ..                                         ULIB0697
      01042 -0501 00 0 01050         ORA     HIGH77        ..  TACK ON PERMIT FLAG                    ULIB0698
      01043  0602 00 1 75014         SLW     OKPROB,1      ..                                         ULIB0699
      01044 -0500 00 0 03310         CAL     2C4           FIND APPROVED PROGN                        ULIB0700
      01045  0074 00 4 00272         TSX     GETIND,4      ..                                         ULIB0701
      01046  0602 00 1 74743         SLW     OKPROG,1      ..                                         ULIB0702
      01047  0020 00 0 02674         TRA     RETRN3        RETURN TO USER AT 3,4                      ULIB0703
                                                                                                      ULIB0704
      01050  770000000000     HIGH77 VFD     O6/77,30/0                                               ULIB0705
                                                                                                      ULIB0706
                                                                                                      ULIB0707
                              *  CALLING SEQUENCE FOR THE FORBID ENTRY..                              ULIB0708
                                                                                                      ULIB0709
                              *      TSX     FORBID,4                                                 ULIB0710
                              *      RETURN                                                           ULIB0711
                                                                                                      ULIB0712
      01051  0535 00 4 74502  FORBID LAC     USER,4        GET PERMIT BITS OUT OF OKPROB              ULIB0713
      01052  0600 00 4 75014         STZ     OKPROB,4      ..                                         ULIB0714
      01053  0020 00 0 02670         TRA     RETRN1        RETURN TO USER AT 1,4                      ULIB0715
                                                                                                      ULIB0716
                                                                                                      ULIB0717
                              *  CALLING SEQUENCE FOR THE RDMESS ENTRY..                              ULIB0718
                                                                                                      ULIB0719
                              *      TSX     RDMESS,4                                                 ULIB0720
                              *              BUFF,,WDCT    1C4                                        ULIB0721
                              *      EMPTY                 2C4                                        ULIB0722
                              *      NORMAL RETURN         3,4                                        ULIB0723
                                                                                                      ULIB0724
      01054  0074 00 4 00226  RDMESS TSX     GETARG,4      SET UP ARGUMENTS                           ULIB0725
      01055 -0500 00 0 03307         CAL     1C4           RELOCATE AND CHECK BUFFER SPECS            ULIB0726
      01056  0074 00 2 01407         TSX     MADBLK,2      CHECK FOR MAD                              ULIB0727
      01057  0074 00 4 00020         TSX     BLKCHK,4      ..                                         ULIB0728
      01060  0 00000 0 00003                 PTERR         ..                                         ULIB0729
      01061 -0760 00 0 00003         SSM                   CHANGE TO MZE TO INDICATE CORE B           ULIB0730
      01062  0601 00 0 01064         STO     REDIT+1       ..                                         ULIB0731
                                                                                                      ULIB0732
      01063  0074 00 4 00013  REDIT  TSX     RDLINE,4      GET LINE FROM USER'S INPUT BUFFER          ULIB0733
      01064 -0 00000 0 00000         MZE     **,,**        BUFF,,WDCT                                 ULIB0734
1       ............ ULIB ...... USER SUBROUTINE LIBRARY MODULE .............    07/05/71 1909.0 PAGE 14

      01065  0 00000 0 74502                 USER,,0                                                  ULIB0735
      01066  0020 00 0 01071         TRA     *+3           EMPTY RETURN                               ULIB0736
      01067  0602 00 0 72173         SLW     LAC           RETURN CHAR COUNT                          ULIB0737
      01070  0020 00 0 02674         TRA     RETRN3        NORMAL RETURN TO 3,4                       ULIB0738
      01071 -0520 00 0 03310         NZT     2C4           DID THIS USER HAVE AN EMPTY RETURN IN MIND ULIB0739
      01072  0020 00 0 00377         TRA     INWAIT        *NO., GO TO INPUT WAIT                     ULIB0740
      01073  0020 00 0 02672         TRA     RETRN2        *YES., RETURN TO USER AT 2,4               ULIB0741
                                                                                                      ULIB0742
                                                                                                      ULIB0743
                              *  CALLING SEQUENCE FOR THE WRMESS ENTRY..                              ULIB0744
                                                                                                      ULIB0745
                              *      TSX     WRMESS,4                                                 ULIB0746
                              *              =HPROBN       1C4                                        ULIB0747
                              *              =HPROGN       2C4                                        ULIB0748
                              *              BUFF,,WDCT    3C4                                        ULIB0749
                              *      RETURN                4,4                                        ULIB0750
                                                                                                      ULIB0751
                              *              WHERE THE AC WILL BE 0 UPON RETURN EXCEPT THAT           ULIB0752
                              *  THE FOLLOWING ERROR CODES MAY APPEAR AS NEEDED..                     ULIB0753
                              *      1.  DESIGNATED ADDRESSEE DOES NOT EXIST.                         ULIB0754
                              *      2.  INPUT BUFFERS ARE FULL.                                      ULIB0755
                              *      3.  DESIGNATED ADDRESSEE DENIES PERMISSION.                      ULIB0756
                                                                                                      ULIB0757
      01074  0074 00 4 00226  WRMESS TSX     GETARG,4      SET UP 1C4, 2C4, AND 3C4                   ULIB0758
      01075  0774 00 2 00001         AXT     1,2           ERROR FLAG FOR NON-EXISTENCE               ULIB0759
      01076 -0500 00 0 03307         CAL     1C4           FIND ADDRESSEE'S PROBN                     ULIB0760
      01077  0074 00 4 00272         TSX     GETIND,4      ..                                         ULIB0761
      01100  0602 00 0 03330         SLW     WRPROB        ..                                         ULIB0762
      01101 -0500 00 0 03310         CAL     2C4           FIND ADDRESSEE'S PROGN                     ULIB0763
      01102  0074 00 4 00272         TSX     GETIND,4      ..                                         ULIB0764
      01103  0602 00 0 03331         SLW     WRPROG        ..                                         ULIB0765
                                                                                                      ULIB0766
      01104  0074 00 4 00055         TSX     ISIN,4        SEE IF USER LOGGED IN                      ULIB0767
      01105  3 00000 0 03330         PAR     WRPROB        ..                                         ULIB0768
      01106  3 00000 0 03331         PAR     WRPROG        ..                                         ULIB0769
      01107  0100 00 0 01165         TZE     WROUT         .. HUH UH                                  ULIB0770
      01110  0737 00 1 00000         PAC     ,1            SEE IF USER ON FIB                         ULIB0771
      01111  3 77776 1 01165         TXH     WROUT,1,-2    FIB USER MAY NOT READ INPUT BUFFER         ULIB0772
                                                                                                      ULIB0773
                              *      SEE IF ADDRESSEE PERMITS THIS SORT OF THING                      ULIB0774
                                                                                                      ULIB0775
      01112  0441 00 1 75014  GOTLUN LDI     OKPROB,1      THIS IS HIS APPROVED PROBN                 ULIB0776
      01113 -0056 00  770000         LNT     770000        DOES HE APPROVE OF ANYONE AT ALL           ULIB0777
      01114  1 00002 2 01165  NOALOW TXI     WROUT,2,2     *NO                                        ULIB0778
      01115 -0500 00 1 74743         CAL     OKPROG,1      DOES HE APPROVE OF USER'S PROGN            ULIB0779
      01116  0535 00 4 74502         LAC     USER,4        ..                                         ULIB0780
      01117  0100 00 0 01122         TZE     CHPROB        ..  *YES                                   ULIB0781
      01120  0322 00 4 76427         ERA     PROGN,4       ..                                         ULIB0782
      01121 -0100 00 0 01114         TNZ     NOALOW        ..  *NO                                    ULIB0783
                                                                                                      ULIB0784
      01122 -0057 00  770000  CHPROB RIL     770000        WIPE PERMIT BITS FROM OKPROB               ULIB0785
      01123 -0046 00 0 00000         PIA                   GET SET TO CHECK USER'S PROBN              ULIB0786
      01124  0100 00 0 01130         TZE     PROBOK        *ADDRESSEE LIKES EVERYBODY                 ULIB0787
      01125  0322 00 4 76500         ERA     PROBN,4       DON'T FORGET LEADING BLANK IN PROBN ARRAY  ULIB0788
      01126 -0320 00 0 03336         ANA     5CHAR         ..                                         ULIB0789
      01127 -0100 00 0 01114         TNZ     NOALOW        *ADDRESSEE DOESN'T LIKE USER'S PROBN       ULIB0790
1       ............ ULIB ...... USER SUBROUTINE LIBRARY MODULE .............    07/05/71 1909.0 PAGE 15

                                                                                                      ULIB0791
                              *      FINALLY, LOAD BUFFER FOR ADDRESSEE                               ULIB0792
                                                                                                      ULIB0793
      01130  0774 00 4 00016  PROBOK AXT     WDSLIN,4      BLANK OUT PBUFF                            ULIB0794
      01131 -0500 00 0 74642         CAL     BLANKS        ..                                         ULIB0795
      01132  0602 00 4 74340         SLW     PBUFF+WDSLIN,4          ..                               ULIB0796
      01133  2 00001 4 01132         TIX     *-1,4,1       ..                                         ULIB0797
      01134 -0500 00 0 03311         CAL     3C4           MOVE THE DESIGNATED LINE IN                ULIB0798
      01135  0074 00 2 01407         TSX     MADBLK,2      CHECK FOR MAD                              ULIB0799
      01136  0074 00 4 00246         TSX     GETBUF,4      ..                                         ULIB0800
      01137  0774 00 4 00001         AXT     1,4           MOVE THE LINE DOWN TWO SPACES              ULIB0801
      01140 -0500 00 4 74336         CAL     PBUFF+WDSLIN-2,4        ..                               ULIB0802
      01141  0602 00 4 74340         SLW     PBUFF+WDSLIN,4          ..                               ULIB0803
      01142  1 00001 4 01143         TXI     *+1,4,1       ..                                         ULIB0804
      01143 -3 00014 4 01140         TXL     *-3,4,WDSLIN-2          ..                               ULIB0805
      01144  0535 00 4 74502         LAC     USER,4        NOW TAG THE LINE                           ULIB0806
      01145 -0500 00 4 76500         CAL     PROBN,4       ..                                         ULIB0807
      01146 -0501 00 0 01050         ORA     HIGH77        ..                                         ULIB0808
      01147  0602 00 0 74322         SLW     PBUFF         ..                                         ULIB0809
      01150 -0500 00 4 76427         CAL     PROGN,4       ..                                         ULIB0810
      01151  0602 00 0 74323         SLW     PBUFF+1       ..                                         ULIB0811
      01152  0636 00 1 03332         SCA     WRTEMP,1      LUN OF ADDRESSEE                           ULIB0812
      01153  0564 00 0 74671         ENB     Q0            DON'T LET BUFFER FILL AFTER TEST           ULIB0813
      01154                          SCHEDL  Q2,WRTEMP,Q2  SET USER WORKING                           ULIB0814
      01160  0074 00 4 00023         TSX     ENTLIN,4      DON'T FORGET THAT ENTLIN MUST RUN DISABLED ULIB0815
      01161  0 00016 0 74322                 PBUFF,,WDSLIN                                            ULIB0816
      01162  0 00000 0 03332                 WRTEMP                                                   ULIB0817
      01163  1 00001 2 01165         TXI     WROUT,2,1     .. BUFFER FULL RETURN                      ULIB0818
      01164  0774 00 2 00000         AXT     0,2           SET OK RETURN                              ULIB0819
      01165  0754 00 2 00000  WROUT  PXA     ,2            AND RETURN TO USER AT 4,4                  ULIB0820
      01166  0602 00 0 72173         SLW     LAC           ..                                         ULIB0821
      01167  0020 00 0 02676         TRA     RETRN4        ..                                         ULIB0822
                                                                                                      ULIB0823
                                                                                                      ULIB0824
                                                                                                      ULIB0825
                                                                                                      ULIB0826
                              *      END OF ENTRY POINTS CONCERNED WITH INTERPROGRAM COMMUNICATION    ULIB0827
                                                                                                      ULIB0828
                              *  *  *  *  *  *  *  *  *  *  *  *  *  *  *  *  *  *  *  *  *  *  *  *  ULIB0829
                                                                                                      ULIB0830
                                                           TSSFIL, USRFIL, COMFIL                     ULIB0831
                                                                                                      ULIB0832
      01170  0535 00 4 74502  COMFL. LAC     USER,4        USER SUBROUTINE TO REFERENCE COMMON FILES  ULIB0833
      01171  0056 00  000001         RNT     RCOMBT        IF USER HASN'T COMFIL PRIV.                ULIB0834
      01172 -0520 00 0 72173         NZT     LAC             AND HE DOESN'T WANT HIS HOME DIRECTORY,  ULIB0835
      01173 -0520 00 4 76500         NZT     PROBN,4         OR HE ISN'T LOGGED IN,                   ULIB0836
      01174  0020 00 0 00172         TRA     ILLEGL            SCREAM...                              ULIB0837
      01175 -0774 00 2 02672         AXC     RETRN2,2      SET UP 2,4 RETURN.                         ULIB0838
      01176 -0500 00 0 72173         CAL     LAC           GET ARGUMENT                               ULIB0839
      01177 -0340 00 0 03365         LAS     =H00000P      TEST FOR COMFIL P                          ULIB0840
      01200  0020 00 0 01202         TRA     *+2           .. NO                                      ULIB0841
      01201  0020 00 0 01256         TRA     SYSTSF        .. YES,  MAP INTO TSSFIL                   ULIB0842
      01202 -0320 00 0 03370         ANA     =O7777        ELSE, MASK OUT JUNK                        ULIB0843
      01203  0560 00 4 76305         LDQ     UFDNM,4       GET HOME DIRECTORY                         ULIB0844
      01204  0600 00 0 72240         STZ     COMFSW        RESET IN CASE COMFIL 0                     ULIB0845
      01205  0100 00 0 01211         TZE     *+4           .. TEST FOR 0                              ULIB0846
1       ............ ULIB ...... USER SUBROUTINE LIBRARY MODULE .............    07/05/71 1909.0 PAGE 16

      01206 -0501 00 0 74640         ORA     CMFL00        CREATE COMMON FILE NAME                    ULIB0847
      01207 -0130 00 0 00000         XCL                     ..                                       ULIB0848
      01210 -0600 00 0 72240         STQ     COMFSW        SAVE CMFLXX                                ULIB0849
      01211  0500 00 4 76500         CLA     PROBN,4       GET PROBLEM NUMBER                         ULIB0850
      01212 -0603 00 0 72236         DST     USRFIL          AND SET NEW DIRECTORY                    ULIB0851
      01213  0074 00 4 00035         TSX     SETUFD,4      PUT HIM IN IT                              ULIB0852
      01214  0020 00 0 01272         TRA     SETUFR          FLUSH HIM ON ERROR                       ULIB0853
      01215  0020 00 2 00000         TRA     0,2              ..                                      ULIB0854
                                                                                                      ULIB0855
      01216  0074 00 4 00226  TSSFL  TSX     GETARG,4      GET POSSIBLE ARGS AT 1C4, 2C4              ULIB0856
      01217 -0774 00 2 02670         AXC     RETRN1,2      SET UP 1,4 RETURN IF NO ARGS               ULIB0857
      01220  0441 00 0 03307         LDI     1C4           CHECK FOR FIRST ARG                        ULIB0858
      01221  0442 00 0 03310         OSI     2C4           AND SECOND ARG AT SAME TIME                ULIB0859
      01222  0604 00 0 03312         STI     4C4           .. SAVE SI FOR LATER                       ULIB0860
      01223  0444 00 0 03376         OFT     =O477777700000    ..                                     ULIB0861
      01224  0020 00 0 01256         TRA     SYSTSF        NO ARG, GO TO SYSTEM FILES                 ULIB0862
      01225 -0500 00 0 03307         CAL     1C4           HERE WHEN ARGS VERIFIED                    ULIB0863
      01226  0074 00 4 00272         TSX     GETIND,4      GET INDIRECTLY SPECIFIED PROBN             ULIB0864
      01227  0602 00 0 03307         SLW     1C4           SAVE.                                      ULIB0865
      01230 -0500 00 0 03310         CAL     2C4           ..                                         ULIB0866
      01231  0074 00 4 00272         TSX     GETIND,4      ALSO PROGN.                                ULIB0867
      01232 -0130 00 0 00000         XCL                   PROGN TO MQ,                               ULIB0868
      01233 -0500 00 0 03307         CAL     1C4           PROBN TO AC.                               ULIB0869
      01234 -0774 00 2 02674         AXC     RETRN3,2      NOW SET UP 3,4 RETURN FROM TSSFIL          ULIB0870
      01235  0602 00 0 01265  TSSF.1 SLW     NOFL+1        SAVE FILE NAME IN CASE OF ERROR            ULIB0871
      01236 -0600 00 0 01267         STQ     NOFL+3        ..                                         ULIB0872
      01237  0074 00 4 00037         TSX     TSSFL.,4      SET USER IN TSSFIL IF LEGAL                ULIB0873
      01240  0020 00 0 01242         TRA     NOTSSF        NOT IN TABLE, BAD CALL                     ULIB0874
      01241  0020 00 2 00000         TRA     0,2           AND ONWARD....                             ULIB0875
      01242  0441 00 0 03312  NOTSSF LDI     4C4           HERE FOR BAD CALL.                         ULIB0876
      01243  0442 00 0 03311         OSI     3C4           SEE IF ERROR RETURN SPECIFIED              ULIB0877
      01244  0444 00 0 03376         OFT     =O477777700000    TEST FOR OPTIONAL ARGUMENTS            ULIB0878
      01245  0020 00 0 01250         TRA     BADTSF        NOT GIVEN, SKIP                            ULIB0879
      01246  0534 00 4 03311         LXA     3C4,4         ERROR RETURN, SET RETURN ADDRESS           ULIB0880
      01247  0020 00 0 02706         TRA     RETRNX        AND EXIT TO USER PROGRAM                   ULIB0881
      01250                   BADTSF TYPEX   WRFLXA,NOFL,6,USER,.F.,0  TYPE COMMENT,                  ULIB0882
      01253  0074 00 4 00035         TSX     SETUFD,4      RESET USER TO HIS OWN FILES,               ULIB0883
      01254  0020 00 0 01272         TRA     SETUFR          FLUSH USER ON ERROR                      ULIB0884
      01255  0020 00 0 00172         TRA     ILLEGL        AND GIVE P.M.V.                            ULIB0885
      01256 -0500 00 0 72130  SYSTSF CAL     TSSFID        HERE TO ATTACH TO SYSTEM FILES             ULIB0886
      01257  0560 00 0 72131         LDQ     TSSFID+1      GET SYSTEM FILE NAME                       ULIB0887
      01260  0020 00 0 01235         TRA     TSSF.1        AND GO SET UP ATTACH.                      ULIB0888
                                                                                                      ULIB0889
      01261  0074 00 4 00035  USRFL  TSX     SETUFD,4      SET HIM TO HIS OWN UFD                     ULIB0890
      01262  0020 00 0 01272         TRA     SETUFR          FLUSH HIM ON ERROR                       ULIB0891
      01263  0020 00 0 02670         TRA     RETRN1        RETURN TO USER.                            ULIB0892
                                                                                                      ULIB0893
                                                                                                      ULIB0894
      01264  636262263143     NOFL   BCI     /TSSFIL/                                                 ULIB0895
      01265  0 00000 0 00000         PZE                                                              ULIB0896
      01266  605757575757            BCI     / /                                                      ULIB0897
      01267  0 00000 0 00000         PZE                                                              ULIB0898
      01270  604546636026            BCI     / NOT FOUND./                                            ULIB0899
                                                                                                      ULIB0900
                                                                                                      ULIB0901
      01272  0074 00 4 00046  SETUFR TSX     DORMNT,4      GO DORMANT ON ERROR                        ULIB0902
1       ............ ULIB ...... USER SUBROUTINE LIBRARY MODULE .............    07/05/71 1909.0 PAGE 17

      01273  000000000010            VFD     O36/SB.ERR    ..                                         ULIB0903
                                                                                                      ULIB0904
                                                                                                      ULIB0905
                                                                                                      ULIB0906
                              *  *  *  *  *  *  *  *  *  *  *  *  *  *  *  *  *  *  *  *  *  *  *  *  ULIB0907
                                                                                                      ULIB0908
                                                           SETFUL, SETBCD                             ULIB0909
                                                                                                      ULIB0910
      01274  0560 00 0 01320  SETNCV LDQ     SILNCV        SET 'NCVBIT' NON-ZERO FOR NO-CONVERT       ULIB0911
      01275  0020 00 0 01301         TRA     SETFB1        ..                                         ULIB0912
                                                                                                      ULIB0913
      01276  0560 00 0 01321  SETFUL LDQ     SILFUL        SET FULBIT NON-ZERO FOR 12-BIT MODE        ULIB0914
      01277  0020 00 0 01301         TRA     SETFB1                                                   ULIB0915
                                                                                                      ULIB0916
      01300  0560 00 0 01322  SETBCD LDQ     NOP           SET NO BITS FOR 6-BIT MODE                 ULIB0917
      01301 -0600 00 0 01313  SETFB1 STQ     SETFB2        MODIFY SIR/RIR TO SET/RESET MODAL BITS     ULIB0918
      01302  0535 00 4 74502         LAC     USER,4                                                   ULIB0919
      01303 -0754 00 0 00000         ZAC                   RETURN PREVIOUS MODAL SETTING IN AC        ULIB0920
      01304  0441 00 4 75770         LDI     USROPT,4      ..                                         ULIB0921
      01305 -0054 00  000001         LFT     FULBIT        IF IN 12-BIT MODE, RETURN 1                ULIB0922
      01306 -0500 00 0 74670         CAL     Q1            ..                                         ULIB0923
      01307 -0054 00  000002         LFT     NCVBIT        IF NO-CONVERT, RETURN 2                    ULIB0924
      01310  0400 00 0 74667         ADD     Q2                                                       ULIB0925
      01311  0602 00 0 72173         SLW     LAC           STORE THE SILLY THING.                     ULIB0926
      01312 -0057 00  000003         RIL     FULBIT+NCVBIT RESET ALL BITS                             ULIB0927
      01313  0 00000 0 00000  SETFB2 ***     **            THEN SET SOME                              ULIB0928
      01314  0604 00 4 75770         STI     USROPT,4      STORE SWITCHES BACK IN USWICH              ULIB0929
      01315  0074 00 4 00006         TSX     SETSWS,4      SET MODE                                   ULIB0930
      01316 -0 00002 0 74502         MZE     USER,,2       ..                                         ULIB0931
      01317  0020 00 0 02670         TRA     RETRN1        AND RETURN                                 ULIB0932
                                                                                                      ULIB0933
      01320 -0055 00  000006  SILNCV SIL     NCVBIT+NBKBIT                                            ULIB0934
      01321 -0055 00  000001  SILFUL SIL     FULBIT                                                   ULIB0935
      01322  0761 00 0 00000  NOP    NOP                                                              ULIB0936
                                                                                                      ULIB0937
                              *  *  *  *  *  *  *  *  *  *  *  *  *  *  *  *  *  *  *  *  *  *  *  *  ULIB0938
                                                                                                      ULIB0939
                                                           SETNBK, KILNBK                             ULIB0940
                                                                                                      ULIB0941
      01323  0560 00 0 00736  SETNBK LDQ     SIL           SET 'NBKBIT' FOR NO-BREAK MODE             ULIB0942
      01324  0020 00 0 01326         TRA     STNBK1                                                   ULIB0943
                                                                                                      ULIB0944
      01325  0560 00 0 00737  KILNBK LDQ     RIL           RESET IT FOR NORMAL MODE                   ULIB0945
      01326 -0620 00 0 01334  STNBK1 SLQ     STNBK2        ..                                         ULIB0946
      01327  0535 00 4 74502         LAC     USER,4        RETURN PREVIOUS SETTING IN AC              ULIB0947
      01330  0600 00 0 72173         STZ     LAC           ZERO FOR NORMAL MODE,                      ULIB0948
      01331                          ZETBIT  USROPT,4,NBKBIT                                          ULIB0949
      01333 -0625 00 0 72173         STL     LAC           NON-ZERO FOR NO-BREAK MODE                 ULIB0950
      01334 -0055 00  000004  STNBK2 SIL     NBKBIT        SET/RESET BIT                              ULIB0951
      01335  0604 00 4 75770         STI     USROPT,4      THEN PUT BACK IN USROPT                    ULIB0952
      01336  0074 00 4 00006         TSX     SETSWS,4      SET NEW TYPEWRITER STATUS                  ULIB0953
      01337 -0 00002 0 74502         MZE     USER,,2       .. AND RESET INPUT BUFFER                  ULIB0954
      01340  0020 00 0 02670         TRA     RETRN1        THEN RETURN                                ULIB0955
                                                                                                      ULIB0956
                              *  *  *  *  *  *  *  *  *  *  *  *  *  *  *  *  *  *  *  *  *  *  *  *  ULIB0957
                                                                                                      ULIB0958
1       ............ ULIB ...... USER SUBROUTINE LIBRARY MODULE .............    07/05/71 1909.0 PAGE 18

                                                           SETBRK, SAVBRK                             ULIB0959
                                                                                                      ULIB0960
      01341  0074 00 4 00226  SETBRK TSX     GETARG,4      ROUTINE TO ADD NEW BREAK LEVEL FOR USER    ULIB0961
      01342  0534 00 2 72221         LXA     BREAKL,2      CURRENT BREAK LEVEL                        ULIB0962
      01343  1 00001 2 01344         TXI     *+1,2,1       INCREASE BY ONE                            ULIB0963
      01344  3 00003 2 01351         TXH     BRKERR,2,QUITL ERROR IF MAX LEVEL NO. EXCEEDED           ULIB0964
      01345 -0500 00 0 03307         CAL     1C4           PZE BRKLOC                                 ULIB0965
      01346  0621 00 2 72221         STA     BREAKL,2      ADD NEW BREAK SETTING TO TABLE             ULIB0966
      01347  0634 00 2 72221         SXA     BREAKL,2      SAVE NEW LEVEL NO.                         ULIB0967
      01350  0020 00 0 02672         TRA     RETRN2        RETURN 2,4                                 ULIB0968
                                                                                                      ULIB0969
      01351                   BRKERR TYPE    (/BREAK COUNT EXCEEDED./)                                ULIB0970
      01354  0535 00 4 72166  SETRS2 LAC     IR4,4         SET UP RETURN TO 2,4                       ULIB0971
      01355  1 00002 4 02177         TXI     SETRSX,4,2    IN CASE USER GIVES START COMMAND           ULIB0972
                                                                                                      ULIB0973
      01356  0600 00 0 72173  SAVBRK STZ     LAC           ROUTINE TO SAVE LAST BREAK SETTING         ULIB0974
      01357  0534 00 4 72221         LXA     BREAKL,4                                                 ULIB0975
      01360 -3 00000 4 02670         TXL     RETRN1,4,0    SKIP TO END IF BREAK LEVEL IS ZERO         ULIB0976
      01361 -0500 00 4 72221         CAL     BREAKL,4      PICK UP CURRENT BREAK SETTING              ULIB0977
      01362  0602 00 0 72173         SLW     LAC           RETURN IN LOG. AC                          ULIB0978
      01363  1 77777 4 01364         TXI     *+1,4,-1      REDUCE BREAK LEVEL COUNT                   ULIB0979
      01364  0634 00 4 72221         SXA     BREAKL,4      SAVE NEW LEVEL                             ULIB0980
      01365  0020 00 0 02670         TRA     RETRN1        RETURN 1,4                                 ULIB0981
                                                                                                      ULIB0982
                              *  *  *  *  *  *  *  *  *  *  *  *  *  *  *  *  *  *  *  *  *  *  *  *  ULIB0983
                                                                                                      ULIB0984
                                                           TILOCK, FERRTN                             ULIB0985
                                                                                                      ULIB0986
      01366  0074 00 4 00226  TILOCK TSX     GETARG,4      ROUTINE TO SET USER FILE-WAIT RETURN       ULIB0987
      01367 -0500 00 0 72224         CAL     UILOCK        PICK UP OLD VALUE                          ULIB0988
      01370  0602 00 0 72173         SLW     LAC           .. AND RETURN IN AC                        ULIB0989
      01371  0074 00 2 01402         TSX     CHKMAD,2      GET ARGUMENT FOR MAD OR FAP CALL           ULIB0990
      01372  0602 00 0 72224         SLW     UILOCK        SET TO NEW VALUE                           ULIB0991
      01373  0020 00 0 02672         TRA     RETRN2        AND RETURN 2,4                             ULIB0992
                                                                                                      ULIB0993
      01374  0074 00 4 00226  FERRTN TSX     GETARG,4      ROUTINE TO SET USER DISK-ERROR RETURN      ULIB0994
      01375 -0500 00 0 72223         CAL     UFERTN        PICK UP OLD VALUE                          ULIB0995
      01376  0602 00 0 72173         SLW     LAC           .. AND RETURN IN AC                        ULIB0996
      01377  0074 00 2 01402         TSX     CHKMAD,2      GET ARGUMENT FOR MAD OR FAP CALL           ULIB0997
      01400  0602 00 0 72223         SLW     UFERTN        SET TO NEW VALUE                           ULIB0998
      01401  0020 00 0 02672         TRA     RETRN2        AND RETURN 2,4                             ULIB0999
                                                                                                      ULIB1000
      01402  0500 00 0 03307  CHKMAD CLA     1C4           ROUTINE TO GET 1,4 ARGUMENT (FAP OR MAD)   ULIB1001
      01403  0630 00 0 01404         STP     *+1                                                      ULIB1002
      01404  0020 00 0 01406         TRA     CHKMD1        INSTRUCTION MODIFIED..TRA IFF FAP CALL     ULIB1003
      01405  0074 00 4 00272         TSX     GETIND,4      .. FOR MAD, ARGUMENT SPECIFIED INDIRECTLY  ULIB1004
      01406  0020 00 2 00001  CHKMD1 TRA     1,2           RETURN WITH EFFECTIVE ARG. IN AC           ULIB1005
                                                                                                      ULIB1006
      01407  0602 00 0 03334  MADBLK SLW     BLKTMP        SAVE FOR RETURN                            ULIB1007
      01410 -0320 00 0 03377         ANA     =O700000000000    CHECK FOR 'TIX' CALLING SEQUENCE       ULIB1008
      01411  0402 00 0 03375         SUB     =O200000000000    OPCODE FOR 'TIX'                       ULIB1009
      01412 -0100 00 0 01421         TNZ     MDBLK1                                                   ULIB1010
      01413 -0500 00 0 03334         CAL     BLKTMP                                                   ULIB1011
      01414  0771 00 0 00022         ARS     18            GET DECREMENT                              ULIB1012
      01415 -0320 00 0 74651         ANA     AMASK         MASK                                       ULIB1013
      01416  0074 00 4 00272         TSX     GETIND,4                                                 ULIB1014
1       ............ ULIB ...... USER SUBROUTINE LIBRARY MODULE .............    07/05/71 1909.0 PAGE 19

      01417  0767 00 0 00022         ALS     18            PUT VALUE BACK INTO PARAMETER              ULIB1015
      01420  0622 00 0 03334         STD     BLKTMP        ..                                         ULIB1016
      01421 -0500 00 0 03334  MDBLK1 CAL     BLKTMP        RESTORE TO AC                              ULIB1017
      01422  0020 00 2 00001         TRA     1,2                                                      ULIB1018
                                                                                                      ULIB1019
                              *  *  *  *  *  *  *  *  *  *  *  *  *  *  *  *  *  *  *  *  *  *  *  *  ULIB1020
                                                                                                      ULIB1021
                                                           SETCLS, GETCLS, CHNCOM, SETCLC             ULIB1022
                                                                                                      ULIB1023
      01423  0074 00 4 01447  SETCLS TSX     CHKCLS,4      ROUTINE TO SET COMMAND IN SUB COMMAND LIST ULIB1024
      01424  0621 00 0 01430         STA     STCLS2                                                   ULIB1025
      01425  0771 00 0 00022         ARS     18                                                       ULIB1026
      01426  0621 00 0 01432         STA     STCLS3                                                   ULIB1027
      01427 -0761 00 0 00042  STCLS1 SEB                   MOVE NEW COMMAND TO BUFFER                 ULIB1028
      01430 -0500 00 2 00000  STCLS2 CAL     **,2          ..                                         ULIB1029
      01431 -0761 00 0 00041         SEA                   ..                                         ULIB1030
      01432  0602 00 2 00000  STCLS3 SLW     **,2          ..                                         ULIB1031
      01433  2 00001 2 01427         TIX     STCLS1,2,1    ..                                         ULIB1032
      01434  0020 00 0 02672         TRA     RETRN2        RETURN 2,4                                 ULIB1033
                                                                                                      ULIB1034
      01435  0074 00 4 01447  GETCLS TSX     CHKCLS,4      ROUTINE TO GET COMMAND FROM COMMAND LIST   ULIB1035
      01436  0621 00 0 01443         STA     GTCLS2                                                   ULIB1036
      01437  0771 00 0 00022         ARS     18                                                       ULIB1037
      01440  0621 00 0 01441         STA     GTCLS1                                                   ULIB1038
      01441 -0500 00 2 00000  GTCLS1 CAL     **,2          MOVE SUB COMMAND TO USER BUFFER            ULIB1039
      01442 -0761 00 0 00042         SEB                   ..                                         ULIB1040
      01443  0602 00 2 00000  GTCLS2 SLW     **,2          ..                                         ULIB1041
      01444 -0761 00 0 00041         SEA                   ..                                         ULIB1042
      01445  2 00001 2 01441         TIX     GTCLS1,2,1    ..                                         ULIB1043
      01446  0020 00 0 02672         TRA     RETRN2        RETURN 2,4                                 ULIB1044
                                                                                                      ULIB1045
      01447  0634 00 4 01502  CHKCLS SXA     CKCLSX,4      ROUTINE TO SET UP AND CHECK ADDRESSES      ULIB1046
      01450  0074 00 4 00226         TSX     GETARG,4      ..FOR SETCLS AND GETCLS                    ULIB1047
      01451 -0500 00 0 03307         CAL     1C4           PZE BUFADR,,CN0.                           ULIB1048
      01452 -0734 00 1 00000         PDX     0,1                                                      ULIB1049
      01453  3 00005 1 00172         TXH     ILLEGL,1,CDEPTH   CHECK COMMAND NO.                      ULIB1050
      01454  0534 00 4 03307         LXA     1C4,4         USER BUFFER ADDRESS                        ULIB1051
      01455  0754 00 4 00000         PXA     ,4            CHECK BEGINNING OF BUFFER                  ULIB1052
      01456 -0340 00 0 72161         LAS     MEMBND          AGAINST MEMORY BOUND                     ULIB1053
      01457  0020 00 0 00003         TRA     PTERR           OOPS...                                  ULIB1054
      01460  0761 00 0 00000         NOP                     ..                                       ULIB1055
      01461  3 00000 1 01463         TXH     *+2,1,0       IF CURRENT COMMAND BUFFER                  ULIB1056
      01462  1 00024 4 01464         TXI     *+2,4,LCBUF     ADD ITS LENGTH                           ULIB1057
      01463  1 00024 4 01464         TXI     *+1,4,CLNGTH    OTHERWISE, STANDARD LENGTH               ULIB1058
      01464  0754 00 4 00000         PXA     0,4                                                      ULIB1059
      01465  0074 00 4 00021         TSX     CKRLC,4       CHECK BUFFER ADDRESS                       ULIB1060
      01466  0 00000 0 00003                 PTERR         ..                                         ULIB1061
      01467  0602 00 0 03307         SLW     1C4           SAVE BUFF+CLNGTH                           ULIB1062
      01470 -3 00000 1 01476         TXL     CKCLS0,1,0    IF NOT CURRENT BUFFER,                     ULIB1063
      01471  0774 00 4 72266         AXT     SUBCOM,4      GET ADDRESS OF THIS SUB COMMAND            ULIB1064
      01472  1 00024 4 01473         TXI     *+1,4,CLNGTH  ..                                         ULIB1065
      01473  2 00001 1 01472         TIX     *-1,1,1       ..                                         ULIB1066
      01474  0774 00 2 00024         AXT     CLNGTH,2      SET BUFFER LENGTH                          ULIB1067
      01475  0020 00 0 01500         TRA     CKCLS1          ..                                       ULIB1068
      01476  0774 00 4 72266  CKCLS0 AXT     UCOMBF+LCBUF,4    SET ADDRESS                            ULIB1069
      01477  0774 00 2 00024         AXT     LCBUF,2         AND LENGTH                               ULIB1070
1       ............ ULIB ...... USER SUBROUTINE LIBRARY MODULE .............    07/05/71 1909.0 PAGE 20

      01500 -0634 00 4 03307  CKCLS1 SXD     1C4,4         SAVE IT                                    ULIB1071
      01501 -0500 00 0 03307         CAL     1C4           RETURN BOTH ADDRESSES IN AC                ULIB1072
      01502  0774 00 4 00000  CKCLSX AXT     **,4                                                     ULIB1073
      01503  0020 00 4 00001         TRA     1,4                                                      ULIB1074
                                                                                                      ULIB1075
      01504  0074 00 4 00226  CHCOM. TSX     GETARG,4      ..                                         ULIB1076
      01505  0441 00 0 03307         LDI     1C4           GET ARGUMENT FOR CORE IMAGE                ULIB1077
      01506 -0057 00  700000         RIL     700000        IGNORE PREFIX                              ULIB1078
      01507  0444 00 0 03372         OFT     =O77777777776  SHOULD BE 0 OR 1, ANY PREFIX              ULIB1079
      01510  0441 00 0 74671         LDI     Q0            SOMETHING ELSE. GO DEAD.                   ULIB1080
      01511  0535 00 4 72166         LAC     IR4,4         SET UP RETURN IN CASE OF NO COMMAND        ULIB1081
      01512  1 00002 4 01513         TXI     *+1,4,2       ..FOR 2,4                                  ULIB1082
      01513  0634 00 4 72162         SXA     ILC,4         ..                                         ULIB1083
      01514  0020 00 0 00026         TRA     CHNCOM        GET NEXSUB COMMAND IF ANY                  ULIB1084
                                                                                                      ULIB1085
      01515 -0500 00 0 72173  SETCLC CAL     LAC           ROUTINE TO SET COMMAND LOCATION COUNTER    ULIB1086
      01516 -0734 00 4 00000         PDX     0,4                                                      ULIB1087
      01517  3 00005 4 00172         TXH     ILLEGL,4,CDEPTH                                          ULIB1088
      01520  0734 00 4 00000         PAX     0,4                                                      ULIB1089
      01521  3 00005 4 00172         TXH     ILLEGL,4,CDEPTH                                          ULIB1090
      01522  0602 00 0 72241         SLW     COMCTR                                                   ULIB1091
      01523  0020 00 0 02670         TRA     RETRN1                                                   ULIB1092
                                                                                                      ULIB1093
                                                                                                      ULIB1094
                              *  *  *  *  *  *  *  *  *  *  *  *  *  *  *  *  *  *  *  *  *  *  *  *  ULIB1095
                                                                                                      ULIB1096
                                                           GETLOC, GETARY, SETLOC                     ULIB1097
                                                                                                      ULIB1098
                                                                                                      ULIB1099
                              *      TSX     GETLOC,4                                                 ULIB1100
                                                                                                      ULIB1101
                              *      PZE     ALOC,,-NWDS-   (OPTIONAL COUNT FOR BLOCK CALL)           ULIB1102
                              *    - PZE     BLOC,0,0 -     (BCORE LOC'N FOR BLOCK CALL)              ULIB1103
                              * OR   RETURN (IN AC)                                                   ULIB1104
                                                                                                      ULIB1105
      01524  0074 00 4 00226  GETLOC TSX     GETARG,4      GET A-CORE LOC'N FROM 1C4                  ULIB1106
      01525 -0500 00 0 03310  GETL.1 CAL     2C4           LOOK FOR OPTIONAL BLOCK ARGUMENT           ULIB1107
      01526 -0320 00 0 03376         ANA     =O477777700000    OF FORM PZE/PTH LOC,0,0                ULIB1108
      01527 -0100 00 0 01534         TNZ     GETL.2        IF NOT, SKIP TO RETURN SINGLE WORD         ULIB1109
      01530 -0500 00 0 03307         CAL     1C4           THIS IS BLOCK GETLOC CALL,                 ULIB1110
      01531  0622 00 0 03310         STD     2C4           MAP INTO CALL TO GETARY                    ULIB1111
      01532 -0634 00 0 03307         ZSD     1C4           ..                                         ULIB1112
      01533  0020 00 0 01550         TRA     GETA.1        AND SKIP TO CODE IN GETARY                 ULIB1113
      01534 -0500 00 0 03307  GETL.2 CAL     1C4           CHECK ARGUMENT VALIDITY                    ULIB1114
      01535  0074 00 4 01647         TSX     CKPROT,4        ..                                       ULIB1115
      01536  0535 00 4 03307         LAC     1C4,4         SINGLE CELL GETLOC,                        ULIB1116
      01537 -0500 00 4 00000         CAL     0,4           PICK UP WORD                               ULIB1117
      01540  0602 00 0 72173         SLW     LAC           RETURN IN AC                               ULIB1118
      01541  0020 00 0 02672         TRA     RETRN2        AND GO RETURN 2,4                          ULIB1119
                                                                                                      ULIB1120
                                                                                                      ULIB1121
                              *      TSX     GETARY,4                                                 ULIB1122
                              *              ALOC          OR  PTH =ALOC                              ULIB1123
                              *      PZE/PTH BLOC,,CNT     OR  PTW BLOC,,=CNT                         ULIB1124
                              *      RETURN                                                           ULIB1125
                                                                                                      ULIB1126
1       ............ ULIB ...... USER SUBROUTINE LIBRARY MODULE .............    07/05/71 1909.0 PAGE 21

      01542  0074 00 4 00226  GETARY TSX     GETARG,4      PICK UP ARGS.                              ULIB1127
      01543  0074 00 2 01402         TSX     CHKMAD,2      CHECK FOR MAD ARG AT 1C4                   ULIB1128
      01544  0602 00 0 03307         SLW     1C4           ..                                         ULIB1129
      01545 -0500 00 0 03310         CAL     2C4           CHECK FOR MAD A...N BLOCK                  ULIB1130
      01546  0074 00 2 01407         TSX     MADBLK,2      ..                                         ULIB1131
      01547  0602 00 0 03310         SLW     2C4           ..                                         ULIB1132
      01550 -0500 00 0 03307  GETA.1 CAL     1C4           CHECK LOCATION VALIDITY                    ULIB1133
      01551  0074 00 4 01647         TSX     CKPROT,4        ..                                       ULIB1134
      01552  0534 00 4 03307         LXA     1C4,4         A-CORE LOCATION                            ULIB1135
      01553  0634 00 4 01562         SXA     TO-1,4        ..                                         ULIB1136
      01554  0534 00 4 03310         LXA     2C4,4         B-CORE LOCATION                            ULIB1137
      01555  0634 00 4 01563         SXA     TO,4          ..                                         ULIB1138
      01556 -0534 00 4 03310         LXD     2C4,4         WORD COUNT                                 ULIB1139
      01557  0634 00 4 01564         SXA     TO+1,4        INSERT IN CALL TOO                         ULIB1140
      01560  0074 00 4 00022         TSX     MOVE,4        CALL FAST MOVE ROUTINE IN FILE SYSTEM      ULIB1141
      01561  0 74652 0 74653         PZE     LA,,LB        MOVING FROM A TO B                         ULIB1142
      01562  0 00000 0 00000         PZE     -             A-CORE LOCATION                            ULIB1143
      01563  0 00000 0 00000  TO     PZE     -             B-CORE LOCATION, NOT RELOCATED             ULIB1144
      01564  0 00000 0 00000         PZE     -             WORD COUNT                                 ULIB1145
      01565  0 00000 0 00003                 PTERR         ERROR RETURN GOES TO P.M.V.                ULIB1146
      01566  0020 00 0 02674         TRA     RETRN3        AND RETURN TO 3,4                          ULIB1147
                                                                                                      ULIB1148
                              *      CAL     (WORD)                                                   ULIB1149
                              *      TSX     SETLOC,4                                                 ULIB1150
                              *              LOC                                                      ULIB1151
                              *      RETURN                                                           ULIB1152
                                                                                                      ULIB1153
      01567  0074 00 4 00226  SETLOC TSX     GETARG,4      USER SUBROUTINE TO WRITE MEMORY A          ULIB1154
      01570  0535 00 1 03307         LAC     1C4,1         PICK UP LOCATION OF PATCH                  ULIB1155
      01571  0534 00 2 74502         LXA     USER,2        GET USER NUMBER                            ULIB1156
      01572  3 00002 2 01574         TXH     *+2,2,2       IS THIS THE DAEMON                         ULIB1157
      01573  3 00001 2 01631         TXH     SETLC1,2,1    YES, TREAT AS PRIVILEGED                   ULIB1158
      01574 -0054 00  000020         LFT     UPRCBT        IS THIS A PRIVILEGED COMMAND               ULIB1159
      01575  0020 00 0 01631         TRA     SETLC1        .. YES, SKIP COMMENT ONLINE                ULIB1160
      01576  0760 00 0 00004         ENK                   IF NOT A PRIVILEGED COMMAND,               ULIB1161
      01577 -0773 00 0 00026         RQL     22            .. MUST HAVE KEY 22 DOWN                   ULIB1162
      01600  0162 00 0 00172         TQP     ILLEGL        .. ON MACHINE CONSOLE                      ULIB1163
      01601  0535 00 4 74502         LAC     USER,4        FORMAT AND PRINT ONLINE MESSAGE            ULIB1164
      01602 -0500 00 4 76500         CAL     PROBN,4                                                  ULIB1165
      01603  0602 00 0 01634         SLW     PATCHC                                                   ULIB1166
      01604 -0500 00 4 76427         CAL     PROGN,4                                                  ULIB1167
      01605  0602 00 0 01635         SLW     PATCHC+1                                                 ULIB1168
      01606 -0500 00 0 03307         CAL     1C4                                                      ULIB1169
      01607  0560 00 0 74671         LDQ     Q0                                                       ULIB1170
      01610 -0765 00 0 00017         LGR     3*5                                                      ULIB1171
      01611  0564 00 0 74671         ENB     Q0                                                       ULIB1172
      01612  0074 00 4 00004         TSX     BTOC,4                                                   ULIB1173
      01613 -0501 00 0 03366         ORA     =H00000                                                  ULIB1174
      01614  0602 00 0 01640         SLW     PATCHC+4                                                 ULIB1175
      01615  0560 00 1 00000         LDQ     0,1                                                      ULIB1176
      01616  0074 00 4 00004         TSX     BTOC,4                                                   ULIB1177
      01617  0602 00 0 01642         SLW     PATCHC+6                                                 ULIB1178
      01620  0074 00 4 00004         TSX     BTOC,4                                                   ULIB1179
      01621  0602 00 0 01643         SLW     PATCHC+7                                                 ULIB1180
      01622  0560 00 0 72173         LDQ     LAC                                                      ULIB1181
      01623  0074 00 4 00004         TSX     BTOC,4                                                   ULIB1182
1       ............ ULIB ...... USER SUBROUTINE LIBRARY MODULE .............    07/05/71 1909.0 PAGE 22

      01624  0602 00 0 01645         SLW     PATCHC+9                                                 ULIB1183
      01625  0074 00 4 00004         TSX     BTOC,4                                                   ULIB1184
      01626  0602 00 0 01646         SLW     PATCHC+10                                                ULIB1185
      01627  0074 00 4 00002         TSX     WRTOPR,4                                                 ULIB1186
      01630  0 00013 0 01634                 PATCHC,,11                                               ULIB1187
      01631 -0500 00 0 72173  SETLC1 CAL     LAC                                                      ULIB1188
      01632  0602 00 1 00000         SLW     0,1           MAKE PATCH                                 ULIB1189
      01633  0020 00 0 02672         TRA     RETRN2        RETURN 2,4 TO USER                         ULIB1190
      01634  604401040106     PATCHC BCI     6, M1416 32768  PATCHING   77777 FROM                    ULIB1191
      01642  070707070707            BCI     5,777777777777  TO  777777777777                         ULIB1192
                                                                                                      ULIB1193
      01647  0056 00  000020  CKPROT RNT     RPATBT        IF HE CAN PATCH CORE,                      ULIB1194
      01650 -0054 00  000020         LFT     UPRCBT          OR HE IS PRIVILEGED COMMAND,             ULIB1195
      01651  0020 00 4 00001         TRA     1,4             ALL IS OK.                               ULIB1196
      01652 -0320 00 0 74651         ANA     AMASK         CHECK ONLY ADDRESS                         ULIB1197
      01653 -0130 00 0 00000         XCL                     ..                                       ULIB1198
      01654  0534 00 7 01664         LXA     INPBND,7      GET BEGINNING OF                           ULIB1199
      01655  0754 00 7 00000         PXA     ,7              INPUT BUFFERS                            ULIB1200
      01656  0040 00 4 00001         TLQ     1,4           OK IF LESS                                 ULIB1201
      01657 -0534 00 7 01664         LXD     INPBND,7      TRY LAST LOC'N                             ULIB1202
      01660  1 00001 7 01661         TXI     *+1,7,1         PLUS ONE                                 ULIB1203
      01661  0754 00 7 00000         PXA     ,7              ..                                       ULIB1204
      01662  0040 00 0 00172         TLQ     ILLEGL        BAD IF LESS                                ULIB1205
      01663  0020 00 4 00001         TRA     1,4             ..                                       ULIB1206
                                                                                                      ULIB1207
      01664  0 00000 0 00000  INPBND                       CONTAINS INPUT BUFFER LOC'N (FIRST,,LAST)  ULIB1208
                                                                                                      ULIB1209
                              *  *  *  *  *  *  *  *  *  *  *  *  *  *  *  *  *  *  *  *  *  *  *  *  ULIB1210
                                                                                                      ULIB1211
      01665 -0500 00 0 01671  CHBALL CAL     CHBCNT        DUMMY CHBALL, FOR COMPATIBILITY            ULIB1212
      01666  0400 00 0 74670         ADD     Q1            COUNT NUMBER OF TIMES USED                 ULIB1213
      01667  0602 00 0 01671         SLW     CHBCNT          ..                                       ULIB1214
      01670  0020 00 0 02670         TRA     RETRN1          ..                                       ULIB1215
                                                                                                      ULIB1216
      01671  0 00000 0 00000  CHBCNT                                                                  ULIB1217
                                                                                                      ULIB1218
                              *  *  *  *  *  *  *  *  *  *  *  *  *  *  *  *  *  *  *  *  *  *  *  *  ULIB1219
                                                                                                      ULIB1220
                                                    GETCF, GETCLC, GETBRK, GETILC, GETMEM, GETCOM     ULIB1221
                                                                                                      ULIB1222
      01672 -0500 00 0 72240  GETCF  CAL     COMFSW        GET VALUE FROM LAST CALL TO COMFIL         ULIB1223
      01673 -0320 00 0 03370         ANA     =O7777        MASK                                       ULIB1224
      01674  0020 00 0 01722         TRA     GETN          SKIP                                       ULIB1225
      01675  0535 00 1 74502  GETOPT LAC     USER,1        GET USER OPTION BITS                       ULIB1226
      01676 -0500 00 1 75770         CAL     USROPT,1      ..                                         ULIB1227
      01677  0020 00 0 01722         TRA     GETN          ..                                         ULIB1228
      01700  0074 00 4 00226  GETWRD TSX     GETARG,4      CHECK FOR OPTIONAL ARGUMENT (USERNO)       ULIB1229
      01701 -0500 00 0 03307         CAL     1C4           ..                                         ULIB1230
      01702  0044 00 0 00000         PAI                   ..                                         ULIB1231
      01703  0444 00 0 03376         OFT     =O477777700000    ..                                     ULIB1232
      01704  0020 00 0 01710         TRA     *+4           NO, GET USER'S OWN WORD                    ULIB1233
      01705  0074 00 4 00272         TSX     GETIND,4      ..                                         ULIB1234
      01706  0737 00 1 00000         PAC     ,1            .. USER NO. OF DESIRED USER                ULIB1235
      01707  0020 00 0 01711         TRA     *+2           ..                                         ULIB1236
      01710  0535 00 1 74502         LAC     USER,1        GET 'UARRAY' WORD                          ULIB1237
      01711 -0500 00 1 75453         CAL     UARRAY,1      ..                                         ULIB1238
1       ............ ULIB ...... USER SUBROUTINE LIBRARY MODULE .............    07/05/71 1909.0 PAGE 23

      01712  0020 00 0 01722         TRA     GETN                                                     ULIB1239
      01713 -0500 00 0 72241  GETCLC CAL     COMCTR                                                   ULIB1240
      01714  0020 00 0 01722         TRA     GETN                                                     ULIB1241
      01715 -0500 00 0 72222  GETBRK CAL     BRKILC        ROUTINE TO GET INTERRUPTED LOCATION        ULIB1242
      01716  0020 00 0 01722         TRA     GETN          AFTER BREAK                                ULIB1243
      01717 -0500 00 0 72214  GETILC CAL     OLDILC                                                   ULIB1244
      01720  0020 00 0 01722         TRA     GETN                                                     ULIB1245
      01721 -0500 00 0 72161  GETMEM CAL     MEMBND                                                   ULIB1246
      01722  0602 00 0 72173  GETN   SLW     LAC                                                      ULIB1247
      01723  0020 00 0 02670         TRA     RETRN1                                                   ULIB1248
                                                                                                      ULIB1249
      01724                   GETCOM BSS     0             ROUTINE TO PICK UP WORD OF CURRENT COMMAND ULIB1250
      01724  0074 00 4 00226         TSX     GETARG,4                                                 ULIB1251
      01725  0535 00 4 03307         LAC     1C4,4                                                    ULIB1252
      01726 -3 00000 4 01733         TXL     GETCM1,4,0    CHECK IF ARGUMENT NUMBER TOO LARGE         ULIB1253
      01727  3 77754 4 01733         TXH     GETCM1,4,-LCBUF  ..                                      ULIB1254
      01730 -0500 00 0 74641         CAL     FENCE                                                    ULIB1255
      01731  0602 00 0 72173         SLW     LAC                                                      ULIB1256
      01732  0020 00 0 02672         TRA     RETRN2                                                   ULIB1257
      01733 -0500 00 4 72242  GETCM1 CAL     UCOMBF,4      PICK UP APPROPRIATE ARGUMENT               ULIB1258
      01734  0602 00 0 72173         SLW     LAC                                                      ULIB1259
      01735  0020 00 0 02672         TRA     RETRN2                                                   ULIB1260
                                                                                                      ULIB1261
                              *  *  *  *  *  *  *  *  *  *  *  *  *  *  *  *  *  *  *  *  *  *  *  *  ULIB1262
                                                                                                      ULIB1263
      01736  0074 00 4 00226  (WRHI  TSX     GETARG,4      ROUTINE TO WRITE HIGH SPEED LINES          ULIB1264
      01737 -0500 00 0 03307         CAL     1C4           PZE BUFF,,N                                ULIB1265
      01740  0074 00 2 01407         TSX     MADBLK,2      CHECK FOR MAD CALL                         ULIB1266
      01741  0074 00 4 00020         TSX     BLKCHK,4      CHECK ADDRESSES                            ULIB1267
      01742  0 00000 0 00003                 PTERR         ..                                         ULIB1268
      01743  0602 00 0 01745         SLW     *+2                                                      ULIB1269
      01744  0074 00 4 00054         TSX     WRHI,4        GO TO WRITE HIGH SPEED LINES               ULIB1270
      01745  0 00000 0 00000                 **,,**        ..                                         ULIB1271
      01746  0020 00 0 02672         TRA     RETRN2        ERROR, RETURN 2,4                          ULIB1272
      01747  0020 00 0 02674         TRA     RETRN3        NORMAL RETURN 3,4                          ULIB1273
                                                                                                      ULIB1274
                              *  *  *  *  *  *  *  *  *  *  *  *  *  *  *  *  *  *  *  *  *  *  *  *  ULIB1275
                                                                                                      ULIB1276
      01750  0074 00 4 00226  DSCOP. TSX     GETARG,4      USER INTERFACE TO ESL SCOPE                ULIB1277
      01751 -0500 00 0 03307         CAL     1C4           PZE A                                      ULIB1278
      01752  0074 00 4 00021         TSX     CKRLC,4                                                  ULIB1279
      01753  0 00000 0 00003                 PTERR                                                    ULIB1280
      01754  0621 00 0 01762         STA     DSCOP1+1      A                                          ULIB1281
      01755 -0500 00 0 03310         CAL     2C4           PZE C                                      ULIB1282
      01756  0074 00 4 00021         TSX     CKRLC,4                                                  ULIB1283
      01757  0 00000 0 00003                 PTERR                                                    ULIB1284
      01760  0621 00 0 01763         STA     DSCOP1+2      C                                          ULIB1285
      01761  0074 00 4 00040  DSCOP1 TSX     DSCOPE,4      CALL ESL SCOPE ROUTINE                     ULIB1286
      01762  0 00000 0 00000                 **            ..                                         ULIB1287
      01763  0 00000 0 00000                 **            ..                                         ULIB1288
      01764  0020 00 0 02674         TRA     RETRN3        RETURN 3,4                                 ULIB1289
                                                                                                      ULIB1290
                              *  *  *  *  *  *  *  *  *  *  *  *  *  *  *  *  *  *  *  *  *  *  *  *  ULIB1291
                                                                                                      ULIB1292
      01765 -0500 00 0 72173  SETMEM CAL     LAC           USER ROUTINE TO SET NO. OF WORDS USED      ULIB1293
      01766 -0320 00 0 74651         ANA     AMASK                                                    ULIB1294
1       ............ ULIB ...... USER SUBROUTINE LIBRARY MODULE .............    07/05/71 1909.0 PAGE 24

      01767  0602 00 0 74451         SLW     NWORDS                                                   ULIB1295
      01770 -0500 00 0 72161         CAL     MEMBND                                                   ULIB1296
      01771  0734 00 4 00000         PAX     ,4            .. SAVE CLEAR AREA BASE                    ULIB1297
      01772 -0320 00 0 74651         ANA     AMASK                                                    ULIB1298
      01773  0402 00 0 74451         SUB     NWORDS                                                   ULIB1299
      01774  0100 00 0 02670         TZE     RETRN1        BOUND THE SAME IGNORE CALL TO SETMEM       ULIB1300
      01775  0120 00 0 02021         TPL     CHKILC        CHECK IF ILC WITHIN MEMBND                 ULIB1301
      01776 -0634 00 4 74451         SXD     NWORDS,4      .. = CURRENT MEMBND                        ULIB1302
      01777  0074 00 4 00041         TSX     FREEUP,4      AND READ OUT ENOUGH WORDS OF MEMORY        ULIB1303
      02000 -0500 00 0 72173  STMEM1 CAL     LAC           SET UP NEW USER MEMORY SIZE                ULIB1304
      02001  0621 00 0 72161         STA     MEMBND                                                   ULIB1305
      02002  0401 00 0 72160         ADM     RLIND                                                    ULIB1306
      02003  0734 00 4 00000         PAX     0,4                                                      ULIB1307
      02004 -0634 00 4 72157         SXD     PRIND,4                                                  ULIB1308
      02005                          SCHEDL  Q6,USER,MEMBND  TELL SCHEDL. OF CHANGE IN USER SIZE      ULIB1309
      02011                          CALL    SETUSR(Q2,M0,M0,PRIND,RLIND,M0)  TELL FCOR               ULIB1310
      02020  0020 00 0 02670         TRA     RETRN1                                                   ULIB1311
      02021  0535 00 4 72166  CHKILC LAC     IR4,4         GET RETURN ILC                             ULIB1312
      02022  1 00001 4 02023         TXI     *+1,4,1       ..                                         ULIB1313
      02023  0754 00 4 00000         PXA     ,4                                                       ULIB1314
      02024  0402 00 0 74451         SUB     NWORDS        IS IT ABOVE ILC                            ULIB1315
      02025 -0120 00 0 02000         TMI     STMEM1        NO                                         ULIB1316
      02026  0534 00 4 74451         LXA     NWORDS,4      SEE IF FULL CORE USER                      ULIB1317
      02027  3 77776 4 02000         TXH     STMEM1,4,-2   ..                                         ULIB1318
      02030  0020 00 0 00172         TRA     ILLEGL        GIVE P.M.V.                                ULIB1319
                                                                                                      ULIB1320
                              *  *  *  *  *  *  *  *  *  *  *  *  *  *  *  *  *  *  *  *  *  *  *  *  ULIB1321
                                                                                                      ULIB1322
                                             SETOPT, LDOPT, RSOPT, SETSYS, GETSYS, SETWRD             ULIB1323
                                                                                                      ULIB1324
      02031  0074 00 4 00226  SETOPT TSX     GETARG,4      ROUTINE TO SET USER OPTIONS                ULIB1325
      02032  0074 00 2 01402         TSX     CHKMAD,2      PZE BITS OR PAR =BITS                      ULIB1326
      02033  0535 00 1 74502         LAC     USER,1        GET USERNO.                                ULIB1327
      02034 -0320 00 0 74645         ANA     RMASK         MASK ANY JUNK                              ULIB1328
      02035  0560 00 1 75770         LDQ     USROPT,1      PICK UP OLD VALUE                          ULIB1329
      02036 -0602 00 1 75770         ORS     USROPT,1      SET NEW BITS                               ULIB1330
      02037  0020 00 0 02056         TRA     OPTRTN        GO TO RETURN                               ULIB1331
                                                                                                      ULIB1332
      02040  0074 00 4 00226  LDOPT  TSX     GETARG,4      ROUTINE TO SET ALL USER OPTIONS            ULIB1333
      02041  0074 00 2 01402         TSX     CHKMAD,2      SAME CALL AS SETOPT                        ULIB1334
      02042  0535 00 1 74502         LAC     USER,1        ..                                         ULIB1335
      02043  0560 00 1 75770         LDQ     USROPT,1      OLD VALUE                                  ULIB1336
      02044  0621 00 1 75770         STA     USROPT,1      SET RIGHT HALF OF OPTIONS WORD             ULIB1337
      02045  0625 00 1 75770         STT     USROPT,1      ..                                         ULIB1338
      02046  0020 00 0 02056         TRA     OPTRTN        RETURN                                     ULIB1339
                                                                                                      ULIB1340
      02047  0074 00 4 00226  RSOPT  TSX     GETARG,4      ROUTINE TO RESET USER OPTIONS              ULIB1341
      02050  0074 00 2 01402         TSX     CHKMAD,2      ..                                         ULIB1342
      02051  0535 00 1 74502         LAC     USER,1        ..                                         ULIB1343
      02052  0760 00 0 00006         COM                   ..                                         ULIB1344
      02053 -0501 00 0 74644         ORA     LMASK         INSURE NOT RESETTING I/O MODE              ULIB1345
      02054  0560 00 1 75770         LDQ     USROPT,1      PICK UP OLD VALUE                          ULIB1346
      02055  0320 00 1 75770         ANS     USROPT,1      MASK OUT SPECIFIED BITS                    ULIB1347
      02056 -0600 00 0 72173  OPTRTN STQ     LAC           GIVE OLD VALUE TO USER IN AC               ULIB1348
      02057  0020 00 0 02672         TRA     RETRN2        RETURN 2,4                                 ULIB1349
                                                                                                      ULIB1350
1       ............ ULIB ...... USER SUBROUTINE LIBRARY MODULE .............    07/05/71 1909.0 PAGE 25

                                                                                                      ULIB1351
      02060  0074 00 4 00226  SETSYS TSX     GETARG,4      ROUTINE TO SET UP USER SUBSYSTEM           ULIB1352
      02061  0535 00 1 74502         LAC     USER,1        PICK UP USER NO.                           ULIB1353
      02062 -0500 00 0 03307         CAL     1C4           PAR SUBNAM                                 ULIB1354
      02063  0074 00 4 00272         TSX     GETIND,4      ..                                         ULIB1355
      02064  0602 00 0 03307         SLW     1C4           TEMPORARY SAVE                             ULIB1356
      02065 -0500 00 0 03310         CAL     2C4           PAR BITS                                   ULIB1357
      02066  0074 00 4 00272         TSX     GETIND,4      ..                                         ULIB1358
      02067  0602 00 1 76163         SLW     SUBSWS,1      SET CONDITION CODE MASK                    ULIB1359
      02070 -0500 00 0 03307         CAL     1C4           PICK UP SUBSYSTEM NAME                     ULIB1360
      02071  0602 00 1 76234         SLW     SUBNAM,1      ..                                         ULIB1361
      02072                          STLBIT  USROPT,1,,ENBBIT  ENABLE SUBSYSTEM                       ULIB1362
      02075  0020 00 0 02674         TRA     RETRN3        RETURN 3,4                                 ULIB1363
                                                                                                      ULIB1364
      02076  0074 00 4 00226  GETSYS TSX     GETARG,4      TELL USER SUBSYSTEM STATUS                 ULIB1365
      02077 -0500 00 0 03307         CAL     1C4           PAR NAME                                   ULIB1366
      02100  0074 00 4 00021         TSX     CKRLC,4       CHECK ADDRESS                              ULIB1367
      02101  0 00000 0 00003                 PTERR         ..                                         ULIB1368
      02102  0602 00 0 03307         SLW     1C4           ..                                         ULIB1369
      02103 -0500 00 0 03310         CAL     2C4           PAR BITS                                   ULIB1370
      02104  0074 00 4 00021         TSX     CKRLC,4       CHECK                                      ULIB1371
      02105  0 00000 0 00003                 PTERR         ..                                         ULIB1372
      02106  0602 00 0 03310         SLW     2C4           ..                                         ULIB1373
      02107  0535 00 1 74502         LAC     USER,1        GET USER NO.                               ULIB1374
      02110 -0500 00 1 76234         CAL     SUBNAM,1      GET SUBSYSTEM NAME                         ULIB1375
      02111  0560 00 1 76163         LDQ     SUBSWS,1      AND CONDITION CODES                        ULIB1376
      02112 -0761 00 0 00042         SEB                   SET ECC FOR MEMORY B                       ULIB1377
      02113  0602 60 0 03307         SLW*    1C4           GIVE TO USER                               ULIB1378
      02114 -0600 60 0 03310         STQ*    2C4           ..                                         ULIB1379
      02115 -0761 00 0 00041         SEA                   BACK TO MEM. A                             ULIB1380
      02116  0020 00 0 02674         TRA     RETRN3        RETURN TO USER 3,4                         ULIB1381
                                                                                                      ULIB1382
                                                                                                      ULIB1383
      02117  0074 00 4 00226  SETWRD TSX     GETARG,4      SET 'UARRAY' WORD FOR USER                 ULIB1384
      02120 -0500 00 0 03307         CAL     1C4           PAR WORD                                   ULIB1385
      02121  0074 00 4 00272         TSX     GETIND,4      ..                                         ULIB1386
      02122  0535 00 1 74502         LAC     USER,1        ..                                         ULIB1387
      02123  0560 00 1 75453         LDQ     UARRAY,1      PICK UP OLD VALUE                          ULIB1388
      02124  0602 00 1 75453         SLW     UARRAY,1      SET NEW VALUE                              ULIB1389
      02125  0020 00 0 02056         TRA     OPTRTN        'UARRAY' IGNORED BY SUPERVISOR.........    ULIB1390
                                                                                                      ULIB1391
                              *  *  *  *  *  *  *  *  *  *  *  *  *  *  *  *  *  *  *  *  *  *  *  *  ULIB1392
                                                                                                      ULIB1393
                                             SETBLP, GETBLP                                           ULIB1394
                                                                                                      ULIB1395
      02126  0074 00 4 00226  SETBLP TSX     GETARG,4      ROUTINE TO SET BLIP CHARACTER              ULIB1396
      02127 -0500 00 0 03307         CAL     1C4           GET CHARACTER SEQUENCE                     ULIB1397
      02130  0074 00 4 00272         TSX     GETIND,4      ..                                         ULIB1398
      02131  0602 00 0 72230         SLW     BLIPCH        PUT AWAY                                   ULIB1399
      02132 -0500 00 0 03310         CAL     2C4           ..                                         ULIB1400
      02133  0074 00 4 00272         TSX     GETIND,4      GET TIME INTERVAL                          ULIB1401
      02134 -0130 00 0 00000         XCL                   ..                                         ULIB1402
      02135  0200 00 0 03367         MPY     =60           CONVERT TO 60THS                           ULIB1403
      02136 -0600 00 0 72227         STQ     BLIPDT        ..                                         ULIB1404
      02137  0600 00 0 72226         STZ     BLIPTM        RESET TIME COUNTER                         ULIB1405
      02140  0020 00 0 02674         TRA     RETRN3        ..                                         ULIB1406
1       ............ ULIB ...... USER SUBROUTINE LIBRARY MODULE .............    07/05/71 1909.0 PAGE 26

                                                                                                      ULIB1407
      02141  0074 00 4 00226  GETBLP TSX     GETARG,4      ROUTINE TO RETURN BLIP OPTION              ULIB1408
      02142 -0500 00 0 03307         CAL     1C4           'PAR CHAR'                                 ULIB1409
      02143  0074 00 4 00021         TSX     CKRLC,4       ..                                         ULIB1410
      02144  0 00000 0 00003                 PTERR         ..                                         ULIB1411
      02145  0602 00 0 03307         SLW     1C4           ..                                         ULIB1412
      02146 -0500 00 0 03310         CAL     2C4           'PAR T'                                    ULIB1413
      02147  0074 00 4 00021         TSX     CKRLC,4       ..                                         ULIB1414
      02150  0 00000 0 00003                 PTERR         ..                                         ULIB1415
      02151  0602 00 0 03310         SLW     2C4           ..                                         ULIB1416
      02152  0560 00 0 72227         LDQ     BLIPDT        GET INTERVAL                               ULIB1417
      02153 -0754 00 0 00000         ZAC                   ..                                         ULIB1418
      02154  0221 00 0 03367         DVP     =60           CONVERT TO SECONDS                         ULIB1419
      02155 -0500 00 0 72230         CAL     BLIPCH        GET CHARACTER                              ULIB1420
      02156 -0761 00 0 00042         SEB                   ..                                         ULIB1421
      02157  0602 60 0 03307         SLW*    1C4           GIVE TO USER                               ULIB1422
      02160 -0600 60 0 03310         STQ*    2C4           ..                                         ULIB1423
      02161 -0761 00 0 00041         SEA                   RESET ECC TO MEM. A                        ULIB1424
      02162  0020 00 0 02674         TRA     RETRN3        EXIT                                       ULIB1425
                                                                                                      ULIB1426
                              *  *  *  *  *  *  *  *  *  *  *  *  *  *  *  *  *  *  *  *  *  *  *  *  ULIB1427
                                                                                                      ULIB1428
      02163  0600 00 0 72201  (LFTM) STZ     FLMD          MODAL ROUTINES                             ULIB1429
      02164  0020 00 0 02670         TRA     RETRN1                                                   ULIB1430
      02165 -0625 00 0 72201  (EFTM) STL     FLMD                                                     ULIB1431
      02166  0020 00 0 02670         TRA     RETRN1                                                   ULIB1432
                                                                                                      ULIB1433
                              *  *  *  *  *  *  *  *  *  *  *  *  *  *  *  *  *  *  *  *  *  *  *  *  ULIB1434
                                                                                                      ULIB1435
                                                           DEAD, DORMNT, FNRTN                        ULIB1436
                                                                                                      ULIB1437
      02167  0074 00 4 00036  (DEAD  TSX     DEAD,4        CALL ENTRY IN MAIN CONTROL                 ULIB1438
      02170  000000000002            VFD     O36/SB.TSX    .. WITH SUBSYSTEM OPTION                   ULIB1439
                                                                                                      ULIB1440
      02171  0535 00 4 72166  DRMNT  LAC     IR4,4         EXIT ROUTINE   DORMNT                      ULIB1441
      02172  1 00001 4 02174         TXI     FNRTN+1,4,1   SET UP TO RETURN 1,4 IF USER TYPES START   ULIB1442
                                                                                                      ULIB1443
      02173  0534 00 4 72214  FNRTN  LXA     OLDILC,4                                                 ULIB1444
      02174  0634 00 4 72162         SXA     ILC,4                                                    ULIB1445
      02175  0074 00 4 00046         TSX     DORMNT,4      ..                                         ULIB1446
      02176  000000000002            VFD     O36/SB.TSX    ..                                         ULIB1447
                                                                                                      ULIB1448
      02177  0634 00 4 72162  SETRSX SXA     ILC,4         SETS UP RESTART LOCATION                   ULIB1449
      02200                          TYPE    (/ TYPE RSTART TO IGNORE./)                              ULIB1450
      02203  0074 00 4 00046         TSX     DORMNT,4                                                 ULIB1451
      02204  000000000010            VFD     O36/SB.ERR    ..                                         ULIB1452
                                                                                                      ULIB1453
                              *  *  *  *  *  *  *  *  *  *  *  *  *  *  *  *  *  *  *  *  *  *  *  *  ULIB1454
                                                                                                      ULIB1455
      02205                   NEXCOM BSS     0             SUBROUTINE TO SET UP NEXT COMMAND          ULIB1456
      02205  0534 00 4 72162         LXA     ILC,4         BUMP ILC BY ONE                            ULIB1457
      02206  1 00001 4 02207         TXI     *+1,4,1                                                  ULIB1458
      02207  0634 00 4 72162         SXA     ILC,4         ..                                         ULIB1459
      02210  0500 00 0 72173         CLA     LAC           LAC CONTAINS COMMAND NAME                  ULIB1460
      02211  0560 00 0 72175         LDQ     MQ              AND MQ FIRST ARGUMENT                    ULIB1461
      02212 -0603 00 0 72242         DST     UCOMBF          ..                                       ULIB1462
1       ............ ULIB ...... USER SUBROUTINE LIBRARY MODULE .............    07/05/71 1909.0 PAGE 27

      02213 -0774 00 4 72242         AXC     UCOMBF,4      SET UP COMMAND POINTER FOR THIS COMMAND    ULIB1463
      02214  0636 00 4 72432         SCA     CHNPTR,4      ..                                         ULIB1464
      02215  0020 00 0 00042         TRA     NEWCOM        RETURN TO MAIN CONTROL TO PROCESS COMMAND  ULIB1465
                                                                                                      ULIB1466
                              *  *  *  *  *  *  *  *  *  *  *  *  *  *  *  *  *  *  *  *  *  *  *  *  ULIB1467

                              *      THIS IS WHOAMI, A ROUTINE TO GIVE THE USER MISCELLANEOUS USEFUL  ULIB1469
                              *  ITEMS OF INFORMATION.  THE ITEMS GIVEN NOW ARE                       ULIB1470
                              *      1.  PROBLEM NUMBER                                               ULIB1471
                              *      2.  PROGRAMMER NUMBER                                            ULIB1472
                              *      3.  SYSTEM NAME                                                  ULIB1473
                              *      4.  UNITID                                                       ULIB1474
                              *      5.  NAME OF LOGIN COMMAND                                        ULIB1475
                              *      6.  NAME OF USERS HOME UFD                                       ULIB1476
                              *      7.  USERS NAME                                                   ULIB1477
                              *      8.  RESTRICTION CODE                                             ULIB1478

                              *      OTHER ITEMS MAY BE ADDED FROM TIME TO TIME.  IN ANY EVENT, THE   ULIB1480
                              *  USER GETS ONLY AS MANY OF THESE ITEMS AS HE ASKS FOR.                ULIB1481

                              *  CALLING SEQUENCE..                                                   ULIB1483

                              *      TSSX    WHOAMI,4                                                 ULIB1485
                              *              BUFF,,N                                                  ULIB1486
                              *      ...                                                              ULIB1487
                              *      ...                                                              ULIB1488
                              * BUFF BSS     N                                                        ULIB1489

      02216  0074 00 4 00226  WHOAMI TSX     GETARG,4      SET UP 1C4                                 ULIB1491
      02217 -0500 00 0 03307         CAL     1C4                                                      ULIB1492
      02220  0074 00 2 01407         TSX     MADBLK,2      CHECK FOR 'MAD' A(N)...N CALLING SEQUENCE  ULIB1493
      02221  0622 00 0 03307         STD     1C4           MODIFY ARGUMENT                            ULIB1494
      02222  0074 00 4 00020         TSX     BLKCHK,4      CHECK BUFFER LOCATION FOR PROTECTION       ULIB1495
      02223  0 00000 0 00003                 PTERR         ..                                         ULIB1496
      02224 -0734 00 4 00000         PDX     ,4            BUFFER LENGTH                              ULIB1497
      02225 -2 00000 4 02672         TNX     RETRN2,4,0    *ZERO WORDS WANTED                         ULIB1498
      02226 -0636 00 4 02237         SCD     WHOBOT,4      LOOP RUNS OVER BUFFER LENGTH               ULIB1499
      02227  0621 00 0 02234         STA     WHOPUT        STORE ITEMS IN RELOCATED BUFFER            ULIB1500
      02230  0535 00 1 74502         LAC     USER,1        THIS IS THE USER ABOUT WHOM ITEMS TELL     ULIB1501

      02231 -0774 00 2 00000         AXC     0,2           START AT BUFF-(-0)                         ULIB1503
      02232  0522 00 2 02241  WHONXT XEC     WHOTAB,2      FILL THE LAC WITH AN ITEM                  ULIB1504
      02233 -0761 00 0 00042         SEB                   DEPOSIT IT IN THE USER'S BUFFER            ULIB1505
      02234  0602 00 2 00000  WHOPUT SLW     **,2          ..                                         ULIB1506
      02235 -0761 00 0 00041         SEA                   ..                                         ULIB1507
      02236  1 77777 2 02237         TXI     *+1,2,-1      ON TO THE NEXT ITEM                        ULIB1508
      02237  3 00000 2 02232  WHOBOT TXH     WHONXT,2,**   *THIS WAS NOT THE LAST                     ULIB1509
      02240  0020 00 0 02672         TRA     RETRN2        RETURN TO USER                             ULIB1510

      02241 -0500 00 1 76500  WHOTAB CAL     PROBN,1       1.  PROBLEM NUMBER                         ULIB1512
      02242 -0500 00 1 76427         CAL     PROGN,1       2.  PROGRAMMER NUMBER                      ULIB1513
      02243 -0500 00 0 74477         CAL     SYSNAM        3.  SYSTEM NAME                            ULIB1514
      02244 -0500 00 1 75646         CAL     UNITID,1      4.  UNIT IDENTIFICATION                    ULIB1515
      02245 -0500 60 0 00053         CAL*    LOGIN         5.  NAME OF LOGIN COMMAND                  ULIB1516
      02246 -0500 00 1 76305         CAL     UFDNM,1       6.  USERS HOME UFD                         ULIB1517
      02247 -0500 00 1 76356         CAL     UNAME,1       7.  USERS NAME                             ULIB1518
1       ............ ULIB ...... USER SUBROUTINE LIBRARY MODULE .............    07/05/71 1909.0 PAGE 28

      02250 -0500 00 1 76041         CAL     RCODE,1       8. RESTRICTION CODE                        ULIB1519
      02251  0020 00 0 02672         TRA     RETRN2        *NO MORE ITEMS TO SUPPLY                   ULIB1520
                                                                                                      ULIB1521
                              *  *  *  *  *  *  *  *  *  *  *  *  *  *  *  *  *  *  *  *  *  *  *  *  ULIB1522
                                                                                                      ULIB1523
      02252 -0500 00 0 74476  GETIME CAL     TIMNOW        ROUTINE TO GET CURRENT DATE AND TIME       ULIB1524
      02253  0602 00 0 72173         SLW     LAC                                                      ULIB1525
      02254 -0500 00 0 74500         CAL     DATEYR                                                   ULIB1526
      02255  0602 00 0 72175         SLW     MQ                                                       ULIB1527
      02256  0020 00 0 02670         TRA     RETRN1                                                   ULIB1528
                                                                                                      ULIB1529
                                                                                                      ULIB1530
      02257  0074 00 4 00034  (GDYTM TSX     GTDYTM,4      ROUTINE TO GET FILE SYSTEM DATE AND TIME   ULIB1531
      02260  0602 00 0 72173         SLW     LAC                                                      ULIB1532
      02261  0020 00 0 02670         TRA     RETRN1                                                   ULIB1533
                                                                                                      ULIB1534
                              *  *  *  *  *  *  *  *  *  *  *  *  *  *  *  *  *  *  *  *  *  *  *  *  ULIB1535
                                                                                                      ULIB1536
                                                           CLOCON, CLOCOF, UPCLOC                     ULIB1537
                                                                                                      ULIB1538
      02262  0535 00 4 74502  CLKON  LAC     USER,4        ROUTINE TO TURN USER INTERVAL TIMER ON     ULIB1539
      02263                          STLBIT  USROPT,4,CLKBIT                                          ULIB1540
      02266  0020 00 0 02670         TRA     RETRN1                                                   ULIB1541
                                                                                                      ULIB1542
      02267  0535 00 4 74502  CLKOFF LAC     USER,4        ROUTINE TO TURN USER INTERVAL TIMER OFF    ULIB1543
      02270                          STZBIT  USROPT,4,CLKBIT                                          ULIB1544
      02273  0020 00 0 02670         TRA     RETRN1                                                   ULIB1545
                                                                                                      ULIB1546
      02274  0535 00 4 72166  (UPCLK LAC     IR4,4         USER CALL TO UPDATE CORE CLOCK             ULIB1547
      02275  1 00001 4 02276         TXI     *+1,4,1       SET USER ILC                               ULIB1548
      02276  0634 00 4 72162         SXA     ILC,4         ..                                         ULIB1549
      02277  0074 00 4 00061         TSX     ADDTIM,4      UPDATE TIME COUNTERS                       ULIB1550
      02300  0074 00 4 00060         TSX     UPCLOC,4      UPDATE CLOCK AND CHECK FOR TRAP            ULIB1551
      02301  3 00000 0 72162         PAR     ILC           ..                                         ULIB1552
      02302  0020 00 0 00045         TRA     RSTCPU        ABNORMAL EXIT SINCE ILC MAY CHANGE         ULIB1553
                                                                                                      ULIB1554
                                                                                                      ULIB1555
                              *  *  *  *  *  *  *  *  *  *  *  *  *  *  *  *  *  *  *  *  *  *  *  *  ULIB1556
                                                                                                      ULIB1557
                                                           SLEEP, WAIT                                ULIB1558
                                                                                                      ULIB1559
      02303 -0500 00 0 72173  SLEEP  CAL     LAC           ALARM CLOCK VALUE FROM AC                  ULIB1560
      02304  0602 00 0 03310         SLW     2C4           SET UP TO SIMULATE 'WAIT.(2,T)'            ULIB1561
      02305 -0500 00 0 74667         CAL     Q2            ..                                         ULIB1562
      02306  0535 00 4 72166         LAC     IR4,4         GET IR4 FOR RETURN ILC                     ULIB1563
      02307 -0054 00  004020         LFT     NFIBBT+UPRCBT ALLOW SLEEP FOR FIBMON                     ULIB1564
      02310  1 00001 4 02321         TXI     WAIT1,4,1     SET TO RETURN 1,4 ON AWAKENING             ULIB1565
      02311  0020 00 0 00172         TRA     ILLEGL        FIB USER TRYING TO SLEEP, CLOBBER HIM      ULIB1566
                                                                                                      ULIB1567
      02312  0074 00 4 00226  WAIT   TSX     GETARG,4      'WAIT.(MODE,TIME)'                         ULIB1568
      02313 -0500 00 0 03310         CAL     2C4           GET INDIRECTLY SPECIFIED VALUE             ULIB1569
      02314  0074 00 4 00272         TSX     GETIND,4      ..                                         ULIB1570
      02315  0602 00 0 03310         SLW     2C4           ..                                         ULIB1571
      02316  0074 00 2 01402         TSX     CHKMAD,2      ALLOW PZE 'MODE' OR PAR =MODE              ULIB1572
      02317  0535 00 4 72166         LAC     IR4,4         SET UP RESTART LOCATION                    ULIB1573
      02320  1 00003 4 02321         TXI     *+1,4,3       ..                                         ULIB1574
1       ............ ULIB ...... USER SUBROUTINE LIBRARY MODULE .............    07/05/71 1909.0 PAGE 29

      02321  0044 00 0 00000  WAIT1  PAI                   MODE BITS TO SI                            ULIB1575
      02322  0634 00 4 72162         SXA     ILC,4         SET RESTART ILC                            ULIB1576
      02323  0535 00 1 74502         LAC     USER,1        GET USER NO                                ULIB1577
      02324 -0500 00 0 74661         CAL     Q8            DEFAULT STATUS = TIMER WAIT                ULIB1578
      02325  0054 00  000002         RFT     2             WAS DORMANT STATUS SPECIFIED               ULIB1579
      02326 -0500 00 0 74670         CAL     Q1            .. YES                                     ULIB1580
      02327  0054 00  000001         RFT     1             WAS INPUT WAIT SPECIFIED                   ULIB1581
      02330 -0500 00 0 74665         CAL     Q4            .. YES                                     ULIB1582
      02331  0602 00 0 03311         SLW     3C4           SAVE STATUS                                ULIB1583
      02332  0734 00 7 00000         PAX     ,7            ..                                         ULIB1584
      02333 -3 00001 7 02337         TXL     WAIT2,7,1     SKIP IF TO BE DORMANT                      ULIB1585
      02334                          ZETBIT  ,1,,INPBIT    FORBID WAITING IF INPUT BUFFERS FULL       ULIB1586
      02336  0020 00 0 02706         TRA     RETRNX        .. MAKE HIM RUN AGAIN                      ULIB1587
      02337                   WAIT2  SCHEDL  Q2,USER,3C4   SET NEW USER STATUS                        ULIB1588
      02343  0560 00 0 03310         LDQ     2C4           COMPUTE WAIT TIME IN 1/60 SEC.             ULIB1589
      02344  0200 00 0 03367         MPY     =60           ..                                         ULIB1590
      02345 -0600 00 1 75207         STQ     AWAKE,1       ..                                         ULIB1591
      02346  0534 00 7 03311         LXA     3C4,7         RELOAD STATUS                              ULIB1592
      02347  3 00001 7 00010         TXH     CYCLE,7,1     RETURN TO MAIN CONTROL IF NOT DORMANT      ULIB1593
      02350                          ZETBIT  ,1,TPWRSW     IS USER CURRENTLY IN 6-BIT MODE            ULIB1594
      02352  0020 00 0 02356         TRA     WAIT3         .. NO                                      ULIB1595
      02353  0074 00 4 00047         TSX     CHKCOM,4      .. YES, SEE ABOUT COMMAND LINE             ULIB1596
      02354  3 00000 0 74502         PAR     USER          ..                                         ULIB1597
      02355  0020 00 0 00010         TRA     CYCLE         GO LOOK FOR MORE WORK                      ULIB1598
      02356 -0057 00  000077  WAIT3  RIL     TPWRSW        HERE IF NOT 6-BIT, RESET MODE              ULIB1599
      02357  0604 00 1 75524         STI     USWICH,1      ..                                         ULIB1600
      02360  0074 00 4 00016         TSX     RSSRB,4       RESET ANY INPUT                            ULIB1601
      02361 -0 00000 0 74502         MZE     USER          ..                                         ULIB1602
      02362  0020 00 0 00010         TRA     CYCLE         BETTER NOT HAVE COMMAND LINE ANYMORE       ULIB1603
                                                                                                      ULIB1604
                                                                                                      ULIB1605
                                                                                                      ULIB1606
                              *  *  *  *  *  *  *  *  *  *  *  *  *  *  *  *  *  *  *  *  *  *  *  *  ULIB1607

                              *      THIS IS 6.36AA, THE SIGN-ON AND 'SELECT' CALL FOR 6.36 USERS.    ULIB1609

                              *  CALLING SEQUENCE..                                                   ULIB1611

                              *      TSX     6.36AA,4                                                 ULIB1613
                              *      (PRIVILEGED INSTRUCTION)                                         ULIB1614
                              *      (PRIVILEGED INSTRUCTION)                                         ULIB1615
                              *      (NORMAL RETURN)                                                  ULIB1616
                              *      (BUSY RETURN)                                                    ULIB1617
                              *      SLW     PROBN         CURRENT USER                               ULIB1618
                              *      STQ     PROGN         ..                                         ULIB1619

                              *      THE BUSY RETURN WILL BE TAKEN ONLY IF THE 6.36 CODE IS CURRENTLY ULIB1621
                              *  RESERVED BY SOMEONE NOT THE USER.  IT SHOULD BE NOTED THAT LOGGED-OUTULIB1622
                              *  PEOPLE WILL NOT SUCCEED IN RESERVING ANYTHING.                       ULIB1623

      02363  0074 00 4 00326  6.36AA TSX     CHK636,4      LEGAL CALL (Q)                             ULIB1625
      02364  0020 00 0 02676         TRA     RETRN4        *NO.  BUSY RETURN                          ULIB1626
      02365  0535 00 4 74502         LAC     USER,4        *YES.  SET USER                            ULIB1627
      02366  0636 00 4 00352         SCA     636USR,4      ..                                         ULIB1628
      02367 -0500 00 4 76500         CAL     PROBN,4       ..                                         ULIB1629
      02370  0602 00 0 00350         SLW     PRB636        ..                                         ULIB1630
1       ............ ULIB ...... USER SUBROUTINE LIBRARY MODULE .............    07/05/71 1909.0 PAGE 30

      02371 -0500 00 4 76427         CAL     PROGN,4       ..                                         ULIB1631
      02372  0602 00 0 00351         SLW     PRG636        ..                                         ULIB1632

                                                                                                      ULIB1634
      02373  0534 00 4 72166  SELECT LXA     IR4,4         BACKGROUND ROUTINE TO EXECUTE              ULIB1635
      02374  0534 00 2 72170         LXA     IR2,2         .. SELECT AND,                             ULIB1636
      02375  0534 00 1 72171         LXA     IR1,1         .. RESET AND LOAD CHANNEL                  ULIB1637
      02376  0564 00 0 74671         ENB     Q0            DISABLE ALL TRAPS DURING SEB SECTION       ULIB1638
      02377 -0500 00 0 02404         CAL     SELRTN        SET UP RETURN IN 3,4                       ULIB1639
      02400 -0761 00 0 00042         SEB                   ..                                         ULIB1640
      02401  0560 00 4 00003         LDQ     3,4           ..  HOLD OLD C(3,4) IN MQ                  ULIB1641
      02402  0602 00 4 00003         SLW     3,4           ..                                         ULIB1642
      02403 -0101 00 4 00001         TIB     1,4           EXECUTE 1,4 AND 2,4                        ULIB1643
                                                                                                      ULIB1644
      02404  0101 00 0 02405  SELRTN TIA     *+1           RETURN FROM MEMORY B                       ULIB1645
      02405 -0600 00 4 00003         STQ     3,4           RESTORE OLD C(3,4)                         ULIB1646
      02406 -0761 00 0 00041         SEA                   RETURN ECC TO MEMORY A                     ULIB1647
      02407  0020 00 0 02674         TRA     RETRN3                                                   ULIB1648
                                                                                                      ULIB1649
                              *      THIS IS 6.36ZZ, THE SIGN-OFF CALL FOR 6.36 USERS.                ULIB1650

                              *  CALLING SEQUENCE..                                                   ULIB1652

                              *      TSX     6.36ZZ,4                                                 ULIB1654
                              *      RETURN                                                           ULIB1655

      02410  0074 00 4 00326  6.36ZZ TSX     CHK636,4      LEGAL CALL (Q)                             ULIB1657
      02411  0020 00 0 02670         TRA     RETRN1        IGNORE BAD CALL                            ULIB1658
      02412  0600 00 0 00352         STZ     636USR        RESET BUSY SWITCH                          ULIB1659
      02413  0020 00 0 02670         TRA     RETRN1        RETURN TO 1,4                              ULIB1660

                                                                                                      ULIB1662
                                                                                                      ULIB1663
                              *  *  *  *  *  *  *  *  *  *  *  *  *  *  *  *  *  *  *  *  *  *  *  *  ULIB1664
                                                                                                      ULIB1665
                              *      THIS IS 636CHK, THE 636 VERSION OF THE BACKGROUND ROUTINE 'CHECK'ULIB1666

                              *  CALLING SEQUENCE..                                                   ULIB1668

                              *      TSX     636CHK,4                                                 ULIB1670
                              *              CHANNELNUMBER 1,4                                        ULIB1671
                              *      IOT RETURN            2,4                                        ULIB1672
                              *      ETT RETURN            3,4                                        ULIB1673
                              *      BOT RETURN            4,4                                        ULIB1674
                              *      TRC RETURN            5,4                                        ULIB1675
                              *      EOF RETURN            6,4                                        ULIB1676
                              *      NORMAL OR 636 BUSY RETURN      7,4                               ULIB1677

      02414  0074 00 4 00326  636CHK TSX     CHK636,4      LEGAL CALL (Q)                             ULIB1679
      02415  0020 00 0 02704         TRA     RETRN7        *NO.  636 BUSY, SO IGNORE CALL             ULIB1680
                                                           *YES, PROCEED TO CHECK                     ULIB1681

      02416  0534 00 4 72166  CHECK  LXA     IR4,4         BACKGROUND ROUTINE TO WAIT,                ULIB1683
      02417 -0761 00 0 00042         SEB                   AND CHECK CHANNEL                          ULIB1684
      02420 -0500 00 4 00001         CAL     1,4           GET CHANNEL NO.                            ULIB1685
      02421 -0761 00 0 00041         SEA                                                              ULIB1686
1       ............ ULIB ...... USER SUBROUTINE LIBRARY MODULE .............    07/05/71 1909.0 PAGE 31

      02422  0737 00 2 00000         PAC     0,2           -CHANNEL NO. TO IR2                        ULIB1687
      02423  1 00001 2 02424         TXI     *+1,2,1       .. +1                                      ULIB1688
      02424 -0625 00 2 03337         STL     PTWAIT,2                                                 ULIB1689
      02425  0522 00 2 03337         XEC     PTWAIT,2      WAIT ON CHANNEL                            ULIB1690
      02426  0760 00 0 00005         IOT                   CHECK FOR I/O CHECK                        ULIB1691
      02427  0020 00 0 02672         TRA     RETRN2        ..                                         ULIB1692
      02430  0522 00 2 03341         XEC     PTETT,2       CHECK FOR END OF TAPE                      ULIB1693
      02431  0020 00 0 02674         TRA     RETRN3        ..                                         ULIB1694
      02432  0522 00 2 03343         XEC     PTBTT,2       CHECK FOR BEGINNING OF TAPE                ULIB1695
      02433  0020 00 0 02676         TRA     RETRN4        ..                                         ULIB1696
      02434  0441 00 2 72212         LDI     ATRILC,2      GET CHANNEL FLAGS                          ULIB1697
      02435 -0056 00  000002         LNT     2             IS THE REDUNDANCY BIT ON                   ULIB1698
      02436  0020 00 0 02442         TRA     CHECK1        NO, SKIP TO CHECK FOR EOF                  ULIB1699
      02437 -0057 00  000002         RIL     2             YES, TURN IT OFF                           ULIB1700
      02440  0604 00 2 72212         STI     ATRILC,2      ..                                         ULIB1701
      02441  0020 00 0 02700         TRA     RETRN5        AND GIVE REDUNANCY RETURN (5,4)            ULIB1702
                                                                                                      ULIB1703
      02442 -0056 00  000004  CHECK1 LNT     4             IS THE EOF BIT ON                          ULIB1704
      02443  0020 00 0 02704         TRA     RETRN7        NO, GIVE NORMAL RETURN (7,4)               ULIB1705
      02444 -0057 00  000004         RIL     4             YES, TURN IT OFF                           ULIB1706
      02445  0604 00 2 72212         STI     ATRILC,2      ..                                         ULIB1707
      02446  0020 00 0 02702         TRA     RETRN6        AND GIVE EOF RETURN (6,4)                  ULIB1708
                                                                                                      ULIB1709
                              *  *  *  *  *  *  *  *  *  *  *  *  *  *  *  *  *  *  *  *  *  *  *  *  ULIB1710
                                                                                                      ULIB1711
      02447  0535 00 1 74502  HNGUSR LAC     USER,1        HANGUP USER DATA-PHONE AFTER LOGOUT        ULIB1712
      02450                          SCHEDL  Q2,USER,Q0    MAKE HIM DEAD                              ULIB1713
      02454  0600 00 1 75770         STZ     USROPT,1      RESET USER OPTIONS                         ULIB1714
      02455  0441 00 1 75524         LDI     USWICH,1      GRAB USER SWITCHES                         ULIB1715
      02456  0600 00 1 75524         STZ     USWICH,1        BEFORE RESETTING THEM                    ULIB1716
      02457  0056 00  000002         RNT     HUNGBT        HAS HE HUNG UP YET                         ULIB1717
      02460  0020 00 0 02464         TRA     HNGUS1          NO, HANG HIM UP.                         ULIB1718
      02461 -0500 00 0 74502         CAL     USER                                                     ULIB1719
      02462  0074 00 4 00033         TSX     ERSUNI,4      ERASE THIS UNIT NO. FROM TABLE             ULIB1720
      02463  0074 00 4 00010         TSX     CYCLE,4       AND RETURN TO MAIN CONTROL                 ULIB1721
      02464  3 77775 1 00010  HNGUS1 TXH     CYCLE,1,-3    SKIP HANGING UP FOR FIB, DAEMON            ULIB1722
      02465 -0500 00 0 74502         CAL     USER          .. AND FOR SYSTEM OUTPUT LINE              ULIB1723
      02466  0402 00 0 74534         SUB     SYSMSG        ..                                         ULIB1724
      02467  0100 00 0 00010         TZE     CYCLE         ..                                         ULIB1725
      02470  0074 00 4 00001         TSX     WRFLXA,4      OTHERWISE,                                 ULIB1726
      02471 -0 00001 0 02474         MZE     HNGCOD,,1       WRITE HANGUP CODE AT HIM                 ULIB1727
      02472  0 00001 0 74502         PZE     USER,,.F.       ..                                       ULIB1728
      02473  0074 00 4 00010         TSX     CYCLE,4       THEN RETURN TO MAIN CONTROL                ULIB1729
                                                                                                      ULIB1730
      02474 +011601160116     HNGCOD OCT     011601160116  HANGUP CODE                                ULIB1731
                                                                                                      ULIB1732
      02475  0074 00 4 00226  (SCHED TSX     GETARG,4      DUMMY ENTRY TO SCHEDULER FOR LOGIN         ULIB1733
      02476  0774 00 1 00003         AXT     3,1                                                      ULIB1734
      02477 -0500 00 1 03312  SCHED1 CAL     1C4+3,1                                                  ULIB1735
      02500  0074 00 4 00272         TSX     GETIND,4                                                 ULIB1736
      02501  0602 00 1 03312         SLW     1C4+3,1                                                  ULIB1737
      02502  2 00001 1 02477         TIX     SCHED1,1,1                                               ULIB1738
      02503  0534 00 4 03310         LXA     2C4,4         MAKE SURE USER NO. IN BOUNDS               ULIB1739
      02504  3 00050 4 00003         TXH     PTERR,4,N     ..                                         ULIB1740
      02505                          SCHEDL  1C4,2C4,3C4                                              ULIB1741
      02511  0020 00 0 02676         TRA     RETRN4        RETURN 4,4                                 ULIB1742
1       ............ ULIB ...... USER SUBROUTINE LIBRARY MODULE .............    07/05/71 1909.0 PAGE 32

                                                                                                      ULIB1743
      02512  0774 00 4 00027  (PUNCH AXT     PUNCH,4       INTERFACE TO ONLINE PUNCH ROUTINE          ULIB1744
      02513  0020 00 0 02515         TRA     (PRINT+1      .. USED BY LOGIN                           ULIB1745
                                                                                                      ULIB1746
      02514  0774 00 4 00002  (PRINT AXT     WRTOPR,4      PRINT MESSAGE TO OPERATOR ONLINE           ULIB1747
      02515  0634 00 4 02523         SXA     (PRNT1,4      .. USED BY LOGIN                           ULIB1748
      02516  0074 00 4 00226         TSX     GETARG,4      PICK UP ARGUMENTS FROM CORE B              ULIB1749
      02517 -0500 00 0 03307         CAL     1C4           ..                                         ULIB1750
      02520  0630 00 0 02524         STP     (PRNT1+1      ..                                         ULIB1751
      02521  0074 00 4 00246         TSX     GETBUF,4      TRANSFER PRINT/PUNCH BUFFER TO PBUFF       ULIB1752
      02522  0622 00 0 02524         STD     (PRNT1+1      SAVE WORD COUNT                            ULIB1753
      02523  0074 00 4 00000  (PRNT1 TSX     **,4          CALL TO PRINT/PUNCH                        ULIB1754
      02524  0 00000 0 74322         PZE     PBUFF,,**                                                ULIB1755
      02525  0020 00 0 02672         TRA     RETRN2        RETURN 2,4                                 ULIB1756
                                                                                                      ULIB1757
      02526  0774 00 4 00016  (RSSRB AXT     RSSRB,4       SET CALL TO RESET READ BUFFER              ULIB1758
      02527  0020 00 0 02531         TRA     *+2             ..                                       ULIB1759
      02530  0774 00 4 00017  (RSSWB AXT     RSSWB,4       SET CALL TO RESET WRITE BUFFER             ULIB1760
      02531  0634 00 4 02544         SXA     RSSXB,4         SET INTO CALL                            ULIB1761
      02532  0074 00 4 00226         TSX     GETARG,4      INTERFACE TO RSSWB AND RSSRB               ULIB1762
      02533 -0500 00 0 03307         CAL     1C4           PICK UP ARGUMENT FROM CORE B               ULIB1763
      02534  0630 00 0 02545         STP     RSSXB+1       SET PREFIX FOR ADOPTEES                    ULIB1764
      02535  0074 00 4 00272         TSX     GETIND,4      ..                                         ULIB1765
      02536  0441 00 0 72232         LDI     URCODE        IF CALLER NOT PRIV. COMMAND                ULIB1766
      02537 -0056 00  000020         LNT     UPRCBT        ..                                         ULIB1767
      02540 -0500 00 0 74502         CAL     USER          .. DO ONLY TO USERS OWN                    ULIB1768
      02541  0602 00 0 03307         SLW     1C4           ..                                         ULIB1769
      02542  0734 00 4 00000         PAX     ,4            CHECK USER WITHIN REASON                   ULIB1770
      02543  3 00050 4 00003         TXH     PTERR,4,N     ..                                         ULIB1771
      02544  0074 00 4 00000  RSSXB  TSX     **,4                                                     ULIB1772
      02545  0 00000 0 03307         PZE     1C4                                                      ULIB1773
      02546  0020 00 0 02672         TRA     RETRN2        RETURN 2,4                                 ULIB1774
                                                                                                      ULIB1775
      02547  0074 00 4 00056  (RDYTM TSX     RDYTIM,4      INTERFACE TO RDYTIM FOR SUBSYSTEMS         ULIB1776
      02550  3 00000 0 74502         PAR     USER          ..                                         ULIB1777
      02551  0020 00 0 02670         TRA     RETRN1        ..                                         ULIB1778
                                                                                                      ULIB1779
      02552  0560 00 0 74476  CLKIN  LDQ     TIMNOW        INTERFACE TO CLOCIN (FAKED)                ULIB1780
      02553 -0600 00 0 72175         STQ     MQ            RETURN VALUE OF MQ                         ULIB1781
      02554  0020 00 0 02670         TRA     RETRN1                                                   ULIB1782
                                                                                                      ULIB1783
      02555  0074 00 4 00226  (ENTLN TSX     GETARG,4      ENTLIN INTERFACE FOR ADMIN                 ULIB1784
      02556 -0500 00 0 03310         CAL     2C4                                                      ULIB1785
      02557  0074 00 4 00272         TSX     GETIND,4      GET INDIRECTLY SPECIFIED USER NO           ULIB1786
      02560  0602 00 0 03332         SLW     WRTEMP                                                   ULIB1787
      02561  0734 00 4 00000         PAX     ,4            CHECK USER NO.                             ULIB1788
      02562  3 00050 4 00003         TXH     PTERR,4,N     ..                                         ULIB1789
      02563 -0500 00 0 03307         CAL     1C4           BUFFER ADDRESS,,COUNT                      ULIB1790
      02564  0074 00 2 01407         TSX     MADBLK,2      CHECK FOR MAD CALL (HAPPY NOW ROGER.Q.)    ULIB1791
      02565  0622 00 0 02570         STD     ENTLN1        SET COUNT INTO CALL                        ULIB1792
      02566  0074 00 4 00246         TSX     GETBUF,4      PICK UP BUFFER CONTENTS                    ULIB1793
      02567  0074 00 4 00023         TSX     ENTLIN,4      GO INSERT LINE IN INPUT BUFFER             ULIB1794
      02570  0 00000 0 74322  ENTLN1 PZE     PBUFF,,**                                                ULIB1795
      02571  0 00000 0 03332         PZE     WRTEMP                                                   ULIB1796
      02572  0020 00 0 02674         TRA     RETRN3        UNLIKELY FULL RETURN                       ULIB1797
      02573  0020 00 0 02676         TRA     RETRN4        NORMAL RETURN                              ULIB1798
1       ............ ULIB ...... USER SUBROUTINE LIBRARY MODULE .............    07/05/71 1909.0 PAGE 33

                                                                                                      ULIB1799
      02574  0074 00 4 00226  (FNDSB TSX     GETARG,4      INTERFACE TO FINDSB                        ULIB1800
      02575 -0500 00 0 03307         CAL     1C4             ..                                       ULIB1801
      02576  0074 00 4 00272         TSX     GETIND,4      PICK UP INDERICTLY SPECIFIED GROUP         ULIB1802
      02577  0602 00 0 03307         SLW     1C4             ..                                       ULIB1803
      02600  0074 00 4 00030         TSX     FINDSB,4      CALL FIND STANDBY ROUTINE                  ULIB1804
      02601  3 00000 0 03307         PAR     1C4             ..                                       ULIB1805
      02602  0602 00 0 72173         SLW     LAC           RETURN LOSER                               ULIB1806
      02603  0020 00 0 02672         TRA     RETRN2          ..                                       ULIB1807
                                                                                                      ULIB1808
      02604  0074 00 4 00226  (KILL  TSX     GETARG,4      INTERFACE TO KILL ROUTINE FOR ADMIN, LOGIN ULIB1809
      02605 -0500 00 0 03307         CAL     1C4             ..                                       ULIB1810
      02606  0074 00 4 00272         TSX     GETIND,4      PICK UP USER                               ULIB1811
      02607  0737 00 1 00000         PAC     ,1            CHECK VALIDITY                             ULIB1812
      02610 -3 77727 1 00172         TXL     ILLEGL,1,-N-1   BAD IF BACKGROUND OR .G. MAXIMUM         ULIB1813
      02611  0602 00 0 03307         SLW     1C4           SAVE FOR KILL                              ULIB1814
      02612  0074 00 4 00031         TSX     KILL,4        GO MURDER HIM                              ULIB1815
      02613  3 00000 0 03307         PAR     1C4             ..                                       ULIB1816
      02614  0020 00 0 02672         TRA     RETRN2          ..                                       ULIB1817
                                                                                                      ULIB1818
      02615  0074 00 4 00226  (NOTIM TSX     GETARG,4      INTERFACE TO NOTIM ROUTINE                 ULIB1819
      02616 -0500 00 0 03307         CAL     1C4           .. USER NO.                                ULIB1820
      02617  0074 00 4 00272         TSX     GETIND,4      ..                                         ULIB1821
      02620  0602 00 0 03307         SLW     1C4           ..                                         ULIB1822
      02621  0737 00 1 00000         PAC     ,1            CHECK VALIDITY                             ULIB1823
      02622 -3 77727 1 00172         TXL     ILLEGL,1,-N-1 ..                                         ULIB1824
      02623 -0500 00 0 03310         CAL     2C4           NOTIME CODE                                ULIB1825
      02624  0074 00 4 00272         TSX     GETIND,4      ..                                         ULIB1826
      02625  0734 00 4 00000         PAX     ,4            ..                                         ULIB1827
      02626  3 00007 4 00172         TXH     ILLEGL,4,7    .. CHECK                                   ULIB1828
      02627  0754 00 4 00000         PXA     ,4            ..                                         ULIB1829
      02630  0602 00 0 03310         SLW     2C4           ..                                         ULIB1830
      02631  0074 00 4 00032         TSX     NOTIM,4       SET NOTIME FOR USER                        ULIB1831
      02632  3 00000 0 03307         PAR     1C4           ..                                         ULIB1832
      02633  3 00000 0 03310         PAR     2C4           ..                                         ULIB1833
      02634  0020 00 0 02674         TRA     RETRN3        RETURN                                     ULIB1834
                                                                                                      ULIB1835
      02635  0074 00 4 00226  (ISIN  TSX     GETARG,4      INTERFACE TO ISIN FOR B-CORE PROGRAMS      ULIB1836
      02636 -0500 00 0 03307         CAL     1C4           PROBN OF DESIRED USER                      ULIB1837
      02637  0074 00 4 00272         TSX     GETIND,4      ..                                         ULIB1838
      02640  0602 00 0 03307         SLW     1C4           ..                                         ULIB1839
      02641 -0500 00 0 03310         CAL     2C4           PROGN OF DESIRED USER                      ULIB1840
      02642  0074 00 4 00272         TSX     GETIND,4      ..                                         ULIB1841
      02643  0602 00 0 03310         SLW     2C4           ..                                         ULIB1842
      02644  0074 00 4 00055         TSX     ISIN,4        SEE IF USER IS THERE                       ULIB1843
      02645  3 00000 0 03307         PAR     1C4           ..                                         ULIB1844
      02646  3 00000 0 03310         PAR     2C4           ..                                         ULIB1845
      02647  0602 00 0 72173         SLW     LAC           RETURN LINE NO, TO USER                    ULIB1846
      02650  0020 00 0 02674         TRA     RETRN3        RETURN 3,4                                 ULIB1847
                                                                                                      ULIB1848
                                                                                                      ULIB1849
                                                                                                      ULIB1850
                              *  *  *  *  *  *  *  *  *  *  *  *  *  *  *  *  *  *  *  *  *  *  *  *  ULIB1851
                                                                                                      ULIB1852
                                                                                                      ULIB1853
                                             ROUTINES CALLED BY BACKGROUND SYSTEM ONLY                ULIB1854
1       ............ ULIB ...... USER SUBROUTINE LIBRARY MODULE .............    07/05/71 1909.0 PAGE 34

                                                                                                      ULIB1855
      02651  0600 00 0 76622  RSTIME STZ     UTIME         RESET BACKGROUND TIME USED                 ULIB1856
      02652  0535 00 4 72166         LAC     IR4,4         RETURN 1,4                                 ULIB1857
      02653  1 00001 4 02706         TXI     RETRNX,4,1    ..                                         ULIB1858
                                                                                                      ULIB1859
      02654  0534 00 4 72166  DEFERR LXA     IR4,4         ROUTINE TO SET UP ERROR PROCEDURE          ULIB1860
      02655  1 77777 4 02656         TXI     *+1,4,-1      PICK UP ARGUMENT AT 1,4                    ULIB1861
      02656 -0500 00 0 72160         CAL     RLIND         ..                                         ULIB1862
      02657  0621 00 0 02661         STA     *+2           ..                                         ULIB1863
      02660 -0761 00 0 00042         SEB                   ..                                         ULIB1864
      02661 -0500 00 4 00000         CAL     **,4          PZE       ERRILC,,ERRTRA                   ULIB1865
      02662 -0761 00 0 00041         SEA                   ..                                         ULIB1866
      02663  0621 60 0 00043         STA*    ERSILC        ..                                         ULIB1867
      02664  0771 00 0 00022         ARS     18            ..                                         ULIB1868
      02665  0621 60 0 00044         STA*    ERPILC        ..                                         ULIB1869
      02666  0535 00 4 72166         LAC     IR4,4         AND RETURN 2,4                             ULIB1870
      02667  1 00002 4 02706         TXI     RETRNX,4,2    ..                                         ULIB1871
                                                                                                      ULIB1872
                                                                                                      ULIB1873
                              *  *  *  *  *  *  *  *  *  *  *  *  *  *  *  *  *  *  *  *  *  *  *  *  ULIB1874
                                                                                                      ULIB1875
      02670  0535 00 4 72166  RETRN1 LAC     IR4,4         RETURN 1,4                                 ULIB1876
      02671  1 00001 4 02706         TXI     RETRNX,4,1                                               ULIB1877
                                                                                                      ULIB1878
      02672  0535 00 4 72166  RETRN2 LAC     IR4,4         RETURN 2,4                                 ULIB1879
      02673  1 00002 4 02706         TXI     RETRNX,4,2                                               ULIB1880
                                                                                                      ULIB1881
      02674  0535 00 4 72166  RETRN3 LAC     IR4,4         RETURN 3,4                                 ULIB1882
      02675  1 00003 4 02706         TXI     RETRNX,4,3                                               ULIB1883
                                                                                                      ULIB1884
      02676  0535 00 4 72166  RETRN4 LAC     IR4,4         RETURN 4,4                                 ULIB1885
      02677  1 00004 4 02706         TXI     RETRNX,4,4                                               ULIB1886
                                                                                                      ULIB1887
      02700  0535 00 4 72166  RETRN5 LAC     IR4,4         RETURN 5,4                                 ULIB1888
      02701  1 00005 4 02706         TXI     RETRNX,4,5                                               ULIB1889
                                                                                                      ULIB1890
      02702  0535 00 4 72166  RETRN6 LAC     IR4,4         RETURN 6,4                                 ULIB1891
      02703  1 00006 4 02706         TXI     RETRNX,4,6                                               ULIB1892
                                                                                                      ULIB1893
      02704  0535 00 4 72166  RETRN7 LAC     IR4,4         RETURN 7,4                                 ULIB1894
      02705  1 00007 4 02706         TXI     RETRNX,4,7                                               ULIB1895
                                                                                                      ULIB1896
      02706  0634 00 4 72162  RETRNX SXA     ILC,4         SET USER RETURN LOCATION                   ULIB1897
      02707  0564 00 0 77777         ENB     ENBWD         REENABLE AFTER POSSIBLE DISABLING CALLS    ULIB1898
      02710  0500 00 0 72173         CLA     LAC           PICK UP ANY CHANGES TO LAC                 ULIB1899
      02711  0760 00 0 00000         CLM                   REMOVE ALL BUT SIGN                        ULIB1900
      02712  0601 00 0 72174         STO     SQ            RETURN TO USER WITH SIGN AND P-BIT EQUAL   ULIB1901
      02713  0020 00 0 00045         TRA     RSTCPU        GO TRY TO RESTART USER                     ULIB1902
                                                                                                      ULIB1903
                                                                                                      ULIB1904
                                                                                                      ULIB1905
                                             CONSTANTS FOR PROTECT MODE TRAP MODULE                   ULIB1906
                                                                                                      ULIB1907
                                                                                                      ULIB1908
                       02714  FSTSUB SYN     *             SYSTEM SUBROUTINE ENTRY TABLE              ULIB1909
      02714  0020 00 4 00001         TRA     1,4                                                      ULIB1910
1       ............ ULIB ...... USER SUBROUTINE LIBRARY MODULE .............    07/05/71 1909.0 PAGE 35

      02715  0 03345 0 02672         PZE     RETRN2,,MSKD1                                            ULIB1911
      02716  060306233042            BCI     1,636CHK                                                 ULIB1912
      02717  0 03354 0 02414         PZE     636CHK,,636MSK                                           ULIB1913
      02720  063303062121            BCI     1,6.36AA                                                 ULIB1914
      02721  0 03354 0 02363         PZE     6.36AA,,636MSK                                           ULIB1915
      02722  063303067171            BCI     1,6.36ZZ                                                 ULIB1916
      02723  0 03354 0 02410         PZE     6.36ZZ,,636MSK                                           ULIB1917
      02724  214343466360            BCI     1,ALLOT                                                  ULIB1918
      02725  0 00000 0 00062         PZE     $ALLOT                                                   ULIB1919
      02726  214343466660            BCI     1,ALLOW                                                  ULIB1920
      02727  0 74671 0 01036         PZE     ALLOW,,Q0                                                ULIB1921
      02730  216363212330            BCI     1,ATTACH                                                 ULIB1922
      02731  0 00000 0 00063         PZE     $ATTACH                                                  ULIB1923
      02732  216363234645            BCI     1,ATTCON                                                 ULIB1924
      02733  0 03346 0 00602         PZE     ATTCON,,MSKD2                                            ULIB1925
      02734  216363452144            BCI     1,ATTNAM                                                 ULIB1926
      02735  0 00000 0 00064         PZE     $ATTNAM                                                  ULIB1927
      02736  226426262551            BCI     1,BUFFER                                                 ULIB1928
      02737  0 00000 0 00065         PZE     $BUFFER                                                  ULIB1929
      02740  233022214343            BCI     1,CHBALL                                                 ULIB1930
      02741  0 03350 0 01665         PZE     CHBALL,,MSKN1                                            ULIB1931
      02742  233025234260            BCI     1,CHECK                                                  ULIB1932
      02743  0 03345 0 02416         PZE     CHECK,,MSKD1                                             ULIB1933
      02744  233026314325            BCI     1,CHFILE                                                 ULIB1934
      02745  0 00000 0 00066         PZE     $CHFILE                                                  ULIB1935
      02746  233045234644            BCI     1,CHNCOM                                                 ULIB1936
      02747  0 74671 0 01504         PZE     CHCOM.,,Q0                                               ULIB1937
      02750  234346233145            BCI     1,CLOCIN                                                 ULIB1938
      02751  0 03347 0 02552         PZE     CLKIN,,MSKD5                                             ULIB1939
      02752  234346234626            BCI     1,CLOCOF                                                 ULIB1940
      02753 -0 03350 0 02267         MZE     CLKOFF,,MSKN1                                            ULIB1941
      02754  234346234645            BCI     1,CLOCON                                                 ULIB1942
      02755 -0 03350 0 02262         MZE     CLKON,,MSKN1                                             ULIB1943
      02756  234346622560            BCI     1,CLOSE                                                  ULIB1944
      02757  0 00000 0 00067         PZE     $CLOSE                                                   ULIB1945
      02760  234644263143            BCI     1,COMFIL                                                 ULIB1946
      02761  0 74671 0 01170         PZE     COMFL.,,Q0                                               ULIB1947
      02762  242521246060            BCI     1,DEAD                                                   ULIB1948
      02763  0 74671 0 02167         PZE     (DEAD,,Q0                                                ULIB1949
      02764  242526255151            BCI     1,DEFERR                                                 ULIB1950
      02765  0 03345 0 02654         PZE     DEFERR,,MSKD1                                            ULIB1951
      02766  242543263143            BCI     1,DELFIL                                                 ULIB1952
      02767  0 00000 0 00070         PZE     $DELFIL                                                  ULIB1953
      02770  242543442624            BCI     1,DELMFD                                                 ULIB1954
      02771  0 00000 0 00071         PZE     $DELMFD                                                  ULIB1955
      02772  244651444563            BCI     1,DORMNT                                                 ULIB1956
      02773  0 74671 0 02171         PZE     DRMNT,,Q0                                                ULIB1957
      02774  246223464725            BCI     1,DSCOPE                                                 ULIB1958
      02775  0 03352 0 01750         PZE     DSCOP.,,MSKA6                                            ULIB1959
      02776  254563433145            BCI     1,ENTLIN                                                 ULIB1960
      02777 -0 03347 0 02555         MZE     (ENTLN,,MSKD5                                            ULIB1961
      03000  262330252342            BCI     1,FCHECK                                                 ULIB1962
      03001  0 00000 0 00072         PZE     $FCHECK                                                  ULIB1963
      03002  262551516345            BCI     1,FERRTN                                                 ULIB1964
      03003  0 74671 0 01374         PZE     FERRTN,,Q0                                               ULIB1965
      03004  263145246222            BCI     1,FINDSB                                                 ULIB1966
1       ............ ULIB ...... USER SUBROUTINE LIBRARY MODULE .............    07/05/71 1909.0 PAGE 36

      03005  0 03347 0 02574         PZE     (FNDSB,,MSKD5                                            ULIB1967
      03006  264551634560            BCI     1,FNRTN                                                  ULIB1968
      03007  0 74671 0 02173         PZE     FNRTN,,Q0                                                ULIB1969
      03010  264651223124            BCI     1,FORBID                                                 ULIB1970
      03011  0 74671 0 01051         PZE     FORBID,,Q0                                               ULIB1971
      03012  266263216325            BCI     1,FSTATE                                                 ULIB1972
      03013  0 00000 0 00073         PZE     $FSTATE                                                  ULIB1973
      03014  266621316360            BCI     1,FWAIT                                                  ULIB1974
      03015  0 00000 0 00074         PZE     $FWAIT                                                   ULIB1975
      03016  272563215170            BCI     1,GETARY                                                 ULIB1976
      03017  0 74671 0 01542         PZE     GETARY,,Q0                                               ULIB1977
      03020  272563224347            BCI     1,GETBLP                                                 ULIB1978
      03021  0 03346 0 02141         PZE     GETBLP,,MSKD2                                            ULIB1979
      03022  272563225142            BCI     1,GETBRK                                                 ULIB1980
      03023  0 74671 0 01715         PZE     GETBRK,,Q0                                               ULIB1981
      03024  272563232660            BCI     1,GETCF                                                  ULIB1982
      03025  0 74671 0 01672         PZE     GETCF,,Q0                                                ULIB1983
      03026  272563234323            BCI     1,GETCLC                                                 ULIB1984
      03027  0 74671 0 01713         PZE     GETCLC,,Q0                                               ULIB1985
      03030  272563234362            BCI     1,GETCLS                                                 ULIB1986
      03031  0 74671 0 01435         PZE     GETCLS,,Q0                                               ULIB1987
      03032  272563234644            BCI     1,GETCOM                                                 ULIB1988
      03033  0 74671 0 01724         PZE     GETCOM,,Q0                                               ULIB1989
      03034  272563314323            BCI     1,GETILC                                                 ULIB1990
      03035  0 74671 0 01717         PZE     GETILC,,Q0                                               ULIB1991
      03036  272563314425            BCI     1,GETIME                                                 ULIB1992
      03037  0 74671 0 02252         PZE     GETIME,,Q0                                               ULIB1993
      03040  272563434623            BCI     1,GETLOC                                                 ULIB1994
      03041  0 74671 0 01524         PZE     GETLOC,,Q0                                               ULIB1995
      03042  272563442544            BCI     1,GETMEM                                                 ULIB1996
      03043  0 74671 0 01721         PZE     GETMEM,,Q0                                               ULIB1997
      03044  272563464763            BCI     1,GETOPT                                                 ULIB1998
      03045  0 74671 0 01675         PZE     GETOPT,,Q0                                               ULIB1999
      03046  272563627062            BCI     1,GETSYS                                                 ULIB2000
      03047  0 74671 0 02076         PZE     GETSYS,,Q0                                               ULIB2001
      03050  272563665124            BCI     1,GETWRD                                                 ULIB2002
      03051  0 74671 0 01700         PZE     GETWRD,,Q0                                               ULIB2003
      03052  276324706344            BCI     1,GTDYTM                                                 ULIB2004
      03053  0 74671 0 02257         PZE     (GDYTM,,Q0                                               ULIB2005
      03054  304527646251            BCI     1,HNGUSR                                                 ULIB2006
      03055 -0 03347 0 02447         MZE     HNGUSR,,MSKD5                                            ULIB2007
      03056  314624312127            BCI     1,IODIAG                                                 ULIB2008
      03057  0 00000 0 00075         PZE     $IODIAG                                                  ULIB2009
      03060  316231456060            BCI     1,ISIN                                                   ULIB2010
      03061  0 74671 0 02635         PZE     (ISIN,,Q0                                                ULIB2011
      03062  423143436060            BCI     1,KILL                                                   ULIB2012
      03063  0 03347 0 02604         PZE     (KILL,,MSKD5                                             ULIB2013
      03064  423143452242            BCI     1,KILNBK                                                 ULIB2014
      03065 -0 74671 0 01325         MZE     KILNBK,,Q0                                               ULIB2015
      03066  432122254360            BCI     1,LABEL                                                  ULIB2016
      03067  0 00000 0 00076         PZE     $LABEL                                                   ULIB2017
      03070  432446476360            BCI     1,LDOPT                                                  ULIB2018
      03071  0 03353 0 02040         PZE     LDOPT,,MSKA10                                            ULIB2019
      03072  433145426060            BCI     1,LINK                                                   ULIB2020
      03073  0 00000 0 00077         PZE     $LINK                                                    ULIB2021
      03074  444664456360            BCI     1,MOUNT                                                  ULIB2022
1       ............ ULIB ...... USER SUBROUTINE LIBRARY MODULE .............    07/05/71 1909.0 PAGE 37

      03075  0 00000 0 00100         PZE     $MOUNT                                                   ULIB2023
      03076  444665263143            BCI     1,MOVFIL                                                 ULIB2024
      03077  0 00000 0 00101         PZE     $MOVFIL                                                  ULIB2025
      03100  452567234644            BCI     1,NEXCOM                                                 ULIB2026
      03101  0 74671 0 02205         PZE     NEXCOM,,Q0                                               ULIB2027
      03102  454663314460            BCI     1,NOTIM                                                  ULIB2028
      03103 -0 03347 0 02615         MZE     (NOTIM,,MSKD5                                            ULIB2029
      03104  464725456060            BCI     1,OPEN                                                   ULIB2030
      03105  0 00000 0 00102         PZE     $OPEN                                                    ULIB2031
      03106  475131456360            BCI     1,PRINT                                                  ULIB2032
      03107  0 03347 0 02514         PZE     (PRINT,,MSKD5                                            ULIB2033
      03110  476445233060            BCI     1,PUNCH                                                  ULIB2034
      03111  0 03347 0 02512         PZE     (PUNCH,,MSKD5                                            ULIB2035
      03112  512426314325            BCI     1,RDFILE                                                 ULIB2036
      03113  0 00000 0 00103         PZE     $RDFILE                                                  ULIB2037
      03114  512426436721            BCI     1,RDFLXA                                                 ULIB2038
      03115  0 03346 0 00353         PZE     RDFLX,,MSKD2                                             ULIB2039
      03116  512443314521            BCI     1,RDLINA                                                 ULIB2040
      03117  0 03346 0 00657         PZE     RDLINA,,MSKD2                                            ULIB2041
      03120  512444256262            BCI     1,RDMESS                                                 ULIB2042
      03121  0 03346 0 01054         PZE     RDMESS,,MSKD2                                            ULIB2043
      03122  512466213163            BCI     1,RDWAIT                                                 ULIB2044
      03123  0 00000 0 00104         PZE     $RDWAIT                                                  ULIB2045
      03124  512470633144            BCI     1,RDYTIM                                                 ULIB2046
      03125  0 74671 0 02547         PZE     (RDYTM,,Q0                                               ULIB2047
      03126  512524433145            BCI     1,REDLIN                                                 ULIB2048
      03127  0 03346 0 00636         PZE     REDLIN,,MSKD2                                            ULIB2049
      03130  512543252162            BCI     1,RELEAS                                                 ULIB2050
      03131 -0 03346 0 00702         MZE     RELEAS,,MSKD2                                            ULIB2051
      03132  512562256326            BCI     1,RESETF                                                 ULIB2052
      03133  0 00000 0 00105         PZE     $RESETF                                                  ULIB2053
      03134  516226314325            BCI     1,RSFILE                                                 ULIB2054
      03135  0 00000 0 00106         PZE     $RSFILE                                                  ULIB2055
      03136  516246476360            BCI     1,RSOPT                                                  ULIB2056
      03137  0 03353 0 02047         PZE     RSOPT,,MSKA10                                            ULIB2057
      03140  516262512260            BCI     1,RSSRB                                                  ULIB2058
      03141  0 74671 0 02526         PZE     (RSSRB,,Q0                                               ULIB2059
      03142  516262662260            BCI     1,RSSWB                                                  ULIB2060
      03143  0 03347 0 02530         PZE     (RSSWB,,MSKD5                                            ULIB2061
      03144  516263314425            BCI     1,RSTIME                                                 ULIB2062
      03145  0 03345 0 02651         PZE     RSTIME,,MSKD1                                            ULIB2063
      03146  622165225142            BCI     1,SAVBRK                                                 ULIB2064
      03147  0 74671 0 01356         PZE     SAVBRK,,Q0                                               ULIB2065
      03150  622330252443            BCI     1,SCHEDL                                                 ULIB2066
      03151  0 03347 0 02475         PZE     (SCHED,,MSKD5                                            ULIB2067
      03152  622543252363            BCI     1,SELECT                                                 ULIB2068
      03153  0 03345 0 02670         PZE     RETRN1,,MSKD1                                            ULIB2069
      03154  622563010260            BCI     1,SET12                                                  ULIB2070
      03155 -0 03346 0 00723         MZE     SET12,,MSKD2                                             ULIB2071
      03156  622563066060            BCI     1,SET6                                                   ULIB2072
      03157 -0 03346 0 00721         MZE     SET6,,MSKD2                                              ULIB2073
      03160  622563222324            BCI     1,SETBCD                                                 ULIB2074
      03161 -0 74671 0 01300         MZE     SETBCD,,Q0                                               ULIB2075
      03162  622563224347            BCI     1,SETBLP                                                 ULIB2076
      03163  0 03346 0 02126         PZE     SETBLP,,MSKD2                                            ULIB2077
      03164  622563225142            BCI     1,SETBRK                                                 ULIB2078
1       ............ ULIB ...... USER SUBROUTINE LIBRARY MODULE .............    07/05/71 1909.0 PAGE 38

      03165  0 74671 0 01341         PZE     SETBRK,,Q0                                               ULIB2079
      03166  622563234323            BCI     1,SETCLC                                                 ULIB2080
      03167  0 74671 0 01515         PZE     SETCLC,,Q0                                               ULIB2081
      03170  622563234362            BCI     1,SETCLS                                                 ULIB2082
      03171  0 74671 0 01423         PZE     SETCLS,,Q0                                               ULIB2083
      03172  622563263143            BCI     1,SETFIL                                                 ULIB2084
      03173  0 00000 0 00107         PZE     $SETFIL                                                  ULIB2085
      03174  622563266443            BCI     1,SETFUL                                                 ULIB2086
      03175 -0 74671 0 01276         MZE     SETFUL,,Q0                                               ULIB2087
      03176  622563434623            BCI     1,SETLOC                                                 ULIB2088
      03177  0 03351 0 01567         PZE     SETLOC,,MSKA5                                            ULIB2089
      03200  622563442544            BCI     1,SETMEM                                                 ULIB2090
      03201  0 74671 0 01765         PZE     SETMEM,,Q0                                               ULIB2091
      03202  622563452242            BCI     1,SETNBK                                                 ULIB2092
      03203 -0 74671 0 01323         MZE     SETNBK,,Q0                                               ULIB2093
      03204  622563452365            BCI     1,SETNCV                                                 ULIB2094
      03205 -0 74671 0 01274         MZE     SETNCV,,Q0                                               ULIB2095
      03206  622563464763            BCI     1,SETOPT                                                 ULIB2096
      03207  0 03353 0 02031         PZE     SETOPT,,MSKA10                                           ULIB2097
      03210  622563475131            BCI     1,SETPRI                                                 ULIB2098
      03211  0 00000 0 00110         PZE     $SETPRI                                                  ULIB2099
      03212  622563627062            BCI     1,SETSYS                                                 ULIB2100
      03213  0 03353 0 02060         PZE     SETSYS,,MSKA10                                           ULIB2101
      03214  622563665124            BCI     1,SETWRD                                                 ULIB2102
      03215  0 74671 0 02117         PZE     SETWRD,,Q0                                               ULIB2103
      03216  624321652560            BCI     1,SLAVE                                                  ULIB2104
      03217 -0 03346 0 00740         MZE     SLAVE,,MSKD2                                             ULIB2105
      03220  624325254760            BCI     1,SLEEP                                                  ULIB2106
      03221 -0 74671 0 02303         MZE     SLEEP,,Q0                                                ULIB2107
      03222  624524433145            BCI     1,SNDLIN                                                 ULIB2108
      03223  0 03346 0 01002         PZE     SNDLIN,,MSKD2                                            ULIB2109
      03224  624524434521            BCI     1,SNDLNA                                                 ULIB2110
      03225  0 03346 0 01004         PZE     SNDLNA,,MSKD2                                            ULIB2111
      03226  626346512725            BCI     1,STORGE                                                 ULIB2112
      03227  0 00000 0 00111         PZE     $STORGE                                                  ULIB2113
      03230  632147263143            BCI     1,TAPFIL                                                 ULIB2114
      03231  0 00000 0 00112         PZE     $TAPFIL                                                  ULIB2115
      03232  633143462342            BCI     1,TILOCK                                                 ULIB2116
      03233  0 74671 0 01366         PZE     TILOCK,,Q0                                               ULIB2117
      03234  635126314325            BCI     1,TRFILE                                                 ULIB2118
      03235  0 00000 0 00113         PZE     $TRFILE                                                  ULIB2119
      03236  636262263143            BCI     1,TSSFIL                                                 ULIB2120
      03237  0 74671 0 01216         PZE     TSSFL,,Q0                                                ULIB2121
      03240  644446644563            BCI     1,UMOUNT                                                 ULIB2122
      03241  0 00000 0 00114         PZE     $UMOUNT                                                  ULIB2123
      03242  644543314542            BCI     1,UNLINK                                                 ULIB2124
      03243  0 00000 0 00115         PZE     $UNLINK                                                  ULIB2125
      03244  644723434623            BCI     1,UPCLOC                                                 ULIB2126
      03245  0 74671 0 02274         PZE     (UPCLK,,Q0                                               ULIB2127
      03246  644724216325            BCI     1,UPDATE                                                 ULIB2128
      03247  0 00000 0 00116         PZE     $UPDATE                                                  ULIB2129
      03250  644724442624            BCI     1,UPDMFD                                                 ULIB2130
      03251  0 00000 0 00117         PZE     $UPDMFD                                                  ULIB2131
      03252  646251263143            BCI     1,USRFIL                                                 ULIB2132
      03253  0 74671 0 01261         PZE     USRFL,,Q0                                                ULIB2133
      03254  652123646444            BCI     1,VACUUM                                                 ULIB2134
1       ............ ULIB ...... USER SUBROUTINE LIBRARY MODULE .............    07/05/71 1909.0 PAGE 39

      03255  0 03347 0 01030         PZE     VACUUM,,MSKD5                                            ULIB2135
      03256  652551312670            BCI     1,VERIFY                                                 ULIB2136
      03257  0 00000 0 00120         PZE     $VERIFY                                                  ULIB2137
      03260  662131636060            BCI     1,WAIT                                                   ULIB2138
      03261  0 03346 0 02312         PZE     WAIT,,MSKD2                                              ULIB2139
      03262  663046214431            BCI     1,WHOAMI                                                 ULIB2140
      03263  0 74671 0 02216         PZE     WHOAMI,,Q0                                               ULIB2141
      03264  665126314325            BCI     1,WRFILE                                                 ULIB2142
      03265  0 00000 0 00121         PZE     $WRFILE                                                  ULIB2143
      03266  665126436721            BCI     1,WRFLXA                                                 ULIB2144
      03267  0 74671 0 00404         PZE     (WFXA),,Q0                                               ULIB2145
      03270  665126436760            BCI     1,WRFLX                                                  ULIB2146
      03271  0 74671 0 00406         PZE     (WRFX),,Q0                                               ULIB2147
      03272  665130312730            BCI     1,WRHIGH                                                 ULIB2148
      03273  0 03346 0 01736         PZE     (WRHI,,MSKD2                                             ULIB2149
      03274  665144256262            BCI     1,WRMESS                                                 ULIB2150
      03275  0 03346 0 01074         PZE     WRMESS,,MSKD2                                            ULIB2151
      03276  665166213163            BCI     1,WRWAIT                                                 ULIB2152
      03277  0 00000 0 00122         PZE     $WRWAIT                                                  ULIB2153
      03300  666223464725            BCI     1,WSCOPE                                                 ULIB2154
      03301  0 03346 0 00501         PZE     (WSCP),,MSKD2                                            ULIB2155
      03302  742526634434            BCI     1,(EFTM)                                                 ULIB2156
      03303  0 74671 0 02165         PZE     (EFTM),,Q0                                               ULIB2157
      03304  744326634434            BCI     1,(LFTM)                                                 ULIB2158
      03305  0 74671 0 02163         PZE     (LFTM),,Q0                                               ULIB2159
      03306  0 00000 0 00372  SUBTB  PZE     *-FSTSUB                                                 ULIB2160
                                                                                                      ULIB2161
      03307  0 00000 0 00000  1C4    PZE     0             SYSTEM SUBROUTINE ARGUMENT TABLE           ULIB2162
      03310  0 00000 0 00000  2C4    PZE     0             ..                                         ULIB2163
      03311  0 00000 0 00000  3C4    PZE     0             ..                                         ULIB2164
      03312  0 00000 0 00000  4C4    PZE     0             ..                                         ULIB2165
                                                                                                      ULIB2166
      03313  606264225146     PMSUBC BCI     6, SUBROUTINE 000000 NOT FOUND.                          ULIB2167
      03321  603143432527     ILLCSB BCI     5, ILLEGAL CALL TO  000000.                              ULIB2168
                                                                                                      ULIB2169
      03326  0 00000 0 00000  SNAME  PZE     0                                                        ULIB2170
      03327                          TEMPS   (ADPTEE,WRPROB,WRPROG,WRTEMP,GBFTMP)                     ULIB2171
      03334  0 00000 0 00000  BLKTMP PZE                   USED BY 'MADBLK'                           ULIB2172
      03335  0 00000 0 00000  (ID)   PZE     0                                                        ULIB2173
                                                                                                      ULIB2174
      03336 +007777777777     5CHAR  OCT     7777777777                                               ULIB2175
                                                                                                      ULIB2176
                              *  *  *  *  *  *  *  *  *  *  *  *  *  *  *  *  *  *  *  *  *  *  *  *  ULIB2177
                                                                                                      ULIB2178
      03337  0060 00 0 00000  PTWAIT TCOA    **            I/O INSTRUCTION TABLE FOR BACKGROUND       ULIB2179
      03340  0061 00 0 00000         TCOB    **            .. ROUTINE CHECK                           ULIB2180
      03341 -0760 00 0 01000  PTETT  ETTA                  ..                                         ULIB2181
      03342 -0760 00 0 02000         ETTB                  ..                                         ULIB2182
      03343  0760 00 0 01000  PTBTT  BTTA                  ..                                         ULIB2183
      03344  0760 00 0 02000         BTTB                  ..                                         ULIB2184
                                                                                                      ULIB2185
      03345  000001000000     MSKD1  VFD     O18/UBACBT                                               ULIB2186
      03346  000002000000     MSKD2  VFD     O18/UFORBT                                               ULIB2187
      03347  000020000000     MSKD5  VFD     O18/UPRCBT                                               ULIB2188
      03350  001000000000     MSKN1  VFD     O18/NBACBT                                               ULIB2189
      03351  000000000020     MSKA5  VFD     O36/RPATBT                                               ULIB2190
1       ............ ULIB ...... USER SUBROUTINE LIBRARY MODULE .............    07/05/71 1909.0 PAGE 40

      03352  000000000040     MSKA6  VFD     O36/RKLDBT                                               ULIB2191
      03353  000000001000     MSKA10 VFD     O36/RSYSBT                                               ULIB2192
      03354  000020000100     636MSK VFD     O18/UPRCBT,O18/R636BT                                    ULIB2193
                                                                                                      ULIB2194
      03355                          RMT     *             REMOTE SEQUENCES                           ULIB2195
      03355  225125214260     ..003  BCI     /BREAK COUNT EXCEEDED./                                  ULIB2195.001
      03361  606370472560     ..005  BCI     / TYPE RSTART TO IGNORE./                                ULIB2195.001
                                                                                                      ULIB2196
                                     END                                                              ULIB2198

        LITERALS
      03365  000000000047
      03366  000000000060
      03367  000000000074
      03370  000000007777
      03371  000000400000
      03372  077777777776
      03373  110000000000
      03374  170000000000
      03375  200000000000
      03376  477777700000
      03377  700000000000
      03400  743046442534
      03401  777776000000
      03402  777777077777
1       ............ ULIB ...... USER SUBROUTINE LIBRARY MODULE .............    07/05/71 1909.0 PAGE 1
                        POST PROCESSOR ASSEMBLY DATA

       72127 IS THE LAST LOCATION NOT USED BY THIS PROGRAM
       3403 IS THE FIRST LOCATION NOT USED BY THIS PROGRAM

0REFERENCES TO DEFINED SYMBOLS
         50      N   611, 2504, 2543, 2562, 2610, 2622
      74653     LA   212,  555, 1561
      74652     LB   213,  214,  555, 1561
      74654     M0   475,  707, 1031, 2013, 2014, 2017
      72175     MQ   344, 2211, 2255, 2553
      74671     Q0   205,  571,  633,  747, 1153, 1510, 1607, 1611, 2376, 2453, 2727, 2747, 2761, 2763, 2773, 3003, 3007
                    3011, 3017, 3023, 3025, 3027, 3031, 3033, 3035, 3037, 3041, 3043, 3045, 3047, 3051, 3053, 3061, 3065
                    3101, 3125, 3141, 3147, 3161, 3165, 3167, 3171, 3175, 3201, 3203, 3205, 3215, 3221, 3233, 3237, 3245
                    3253, 3263, 3267, 3271, 3303, 3305
      74670     Q1  1306, 1666, 2326
      74667     Q2   222,  400,  462,  631, 1155, 1157, 1310, 2012, 2305, 2340, 2451
      74665     Q4   402, 2330
      74664     Q5   464
      74663     Q6   224, 2006
      74662     Q7   552
      74661     Q8  2324
      72174     SQ  2712
       1563     TO  1553, 1555, 1557
       3307    1C4   240,  305,  354,  356,  362,  363,  441,  446,  507,  524,  535,  547,  604, 1040, 1055, 1076, 1220
                    1225, 1227, 1233, 1345, 1402, 1451, 1454, 1467, 1500, 1501, 1505, 1530, 1532, 1534, 1536, 1544, 1550
                    1552, 1570, 1606, 1701, 1725, 1737, 1751, 2062, 2064, 2070, 2077, 2102, 2113, 2120, 2127, 2142, 2145
                    2157, 2217, 2221, 2477, 2501, 2506, 2517, 2533, 2541, 2545, 2563, 2575, 2577, 2601, 2605, 2611, 2613
                    2616, 2620, 2632, 2636, 2640, 2645
       3310    2C4   421,  427,  434,  437,  445,  454,  641,  663,  745, 1011, 1015, 1044, 1071, 1101, 1221, 1230, 1525
                    1531, 1545, 1547, 1554, 1556, 1755, 2065, 2103, 2106, 2114, 2132, 2146, 2151, 2160, 2304, 2313, 2315
                    2343, 2503, 2507, 2556, 2623, 2630, 2633, 2641, 2643, 2646
       3311    3C4   654,  677, 1025, 1134, 1243, 1246, 2331, 2342, 2346, 2510
       3312    4C4   660, 1222, 1242
      72162    ILC   127, 1513, 2174, 2177, 2205, 2207, 2276, 2301, 2322, 2706
      72171    IR1  2375
      72170    IR2  2374
      72166    IR4   126,  217,  232, 1354, 1511, 2021, 2171, 2274, 2306, 2317, 2373, 2416, 2652, 2654, 2666, 2670, 2672
                    2674, 2676, 2700, 2702, 2704
          1    .F.   170,  176,  417,  436, 1252, 1353, 2202, 2472
          0    .I.   435
      72173    LAC   313,  340,  375,  570,  574,  603,  634,  675, 1067, 1166, 1172, 1176, 1311, 1330, 1333, 1356, 1362
                    1370, 1376, 1515, 1540, 1622, 1631, 1722, 1731, 1734, 1765, 2000, 2056, 2210, 2253, 2260, 2303, 2602
                    2647, 2710
       1322    NOP  1300
        217    OUT   203
        737    RIL   565,  721, 1325
        736    SIL   563,  723, 1323
        337   636A   333
          4   BTOC  1612, 1616, 1620, 1623, 1625
         36   DEAD  2167
      72201   FLMD  2163, 2165
       1722   GETN  1674, 1677, 1712, 1714, 1716, 1720
        546   GETP   534,  540
         55   ISIN  1104, 2644
         31   KILL  2612
1       ............ ULIB ...... USER SUBROUTINE LIBRARY MODULE .............    07/05/71 1909.0 PAGE 2
                        POST PROCESSOR ASSEMBLY DATA

         77   LINK  3073
         22   MOVE   554, 1560
       1264   NOFL  1235, 1236, 1251
        102   OPEN  3105
        163   PLUS   132,  140
        324   QANG   317
        314   QATX   303
        721   SET6  3157
        535   SETP
      74502   USER   170,  176,  223,  311,  330,  373,  401,  412,  414,  463,  501,  530,  544,  567,  600,  621,  624
                     705,  743,  767, 1030, 1037, 1051, 1065, 1116, 1144, 1170, 1252, 1302, 1316, 1327, 1337, 1353, 1571
                    1601, 1675, 1710, 2007, 2033, 2042, 2051, 2061, 2107, 2122, 2202, 2230, 2262, 2267, 2323, 2341, 2354
                    2361, 2365, 2447, 2452, 2461, 2465, 2472, 2540, 2550
       2312   WAIT  3261
        437   WFX1   423,  425,  435,  532
         54   WRHI  1744
       3335   (ID)   307,  321,  606,  612
       3336  5CHAR  1126
      75065  ADOPT   617,  625,  626,  710,  766,  770,  772, 1034
         62  ALLOT  2725
       1036  ALLOW  2727
      74651  AMASK   622, 1415, 1652, 1766, 1772
        612  ATCH1   616
        617  ATCH2   614
        623  ATCH3   620
        615  ATCH4   623
      75207  AWAKE  2345
         14  BROOM   316, 1032
       2416  CHECK  2743
        575  CHNGE   566
         21  CKRLC   273, 1465, 1752, 1756, 2100, 2104, 2143, 2147
       2552  CLKIN  2751
       2262  CLKON  2755
         67  CLOSE  2757
         10  CYCLE   225,  403,  465, 2347, 2355, 2362, 2463, 2464, 2467, 2473
       2171  DRMNT  2773
      77777  ENBWD  2707
      74641  FENCE  1730
       2173  FNRTN  2172, 3007
        763  FOUND   760,  762
         74  FWAIT  3015
       1672  GETCF  3025
        235  GETR1   242
        243  GETX2   226,  241
        244  GETX4   227
       3355  ..003  1352, 3361
          4  ..004  1352, 3361
       3361  ..005  2201, 3365
          4  ..006  2201, 3365
         24  .WRFX  1002
         76  LABEL  3067
         24  LCBUF  1462, 1476, 1477, 1727
       2040  LDOPT  3071
      74644  LMASK  2053
         53  LOGIN  2245
1       ............ ULIB ...... USER SUBROUTINE LIBRARY MODULE .............    07/05/71 1909.0 PAGE 3
                        POST PROCESSOR ASSEMBLY DATA

        151  MINUS   136
        100  MOUNT  3075
       3351  MSKA5  3177
       3352  MSKA6  2775
       3345  MSKD1  2715, 2743, 2765, 3145, 3153
       3346  MSKD2  2733, 3021, 3115, 3117, 3121, 3127, 3131, 3155, 3157, 3163, 3217, 3223, 3225, 3261, 3273, 3275, 3301
       3347  MSKD5   424, 2751, 2777, 3005, 3055, 3063, 3103, 3107, 3111, 3143, 3151, 3255
       3350  MSKN1  2741, 2753, 2755
         32  NOTIM  2631
        461  OWAIT   413,  454,  531, 1026
      74322  PBUFF   266,  453,  543,  556, 1021, 1132, 1140, 1141, 1147, 1151, 1161, 2524, 2570
      72157  PRIND  2004, 2015
      76500  PROBN   331,  341, 1125, 1145, 1173, 1211, 1602, 2241, 2367
      76427  PROGN   334,  345, 1120, 1150, 1604, 2242, 2371
       3343  PTBTT  2432
          3  PTERR   171,  177,  256,  274,  365,  561,  644,  666, 1060, 1457, 1466, 1565, 1742, 1753, 1757, 2101, 2105
                    2144, 2150, 2223, 2504, 2543, 2562
       3341  PTETT  2430
         27  PUNCH  2512
          3  QUITL  1344
      76041  RCODE  2250
        353  RDFLX  3115
        672  RDLWD   667,  670
       1063  REDIT  1062
      72160  RLIND   230, 2002, 2016, 2656
      74645  RMASK  2034
       2047  RSOPT  3137
         16  RSSRB  2360, 2526
         17  RSSWB  2530
       2544  RSSXB  2531, 2534
        133  SBSRH   141,  142,  143,  144,  145,  146,  147,  150,  152,  153,  154,  155,  156,  157,  160,  161,  162
        723  SET12   722, 3155
        731  SETA1   724
          5  SETAB   211
        740  SLAVE  3217
       2303  SLEEP  3221
       3326  SNAME   125,  164,  172
       3306  SUBTB   134,  135,  200
         15  SWEEP   323, 1035
       1216  TSSFL  3237
      76305  UFDNM  1203, 2246
      76356  UNAME  2247
       1261  USRFL  3253
      76622  UTIME  2651
       2321  WAIT1  2310
       2337  WAIT2  2333
       2356  WAIT3  2352
          0  WRFLX   166,  174,  406, 1351, 2200
       1165  WROUT  1107, 1111, 1114, 1163
        521  WSCP1   513
       2167  (DEAD  2763
       2635  (ISIN  3061
       2604  (KILL  3063
       1736  (WRHI  3273
       2414 636CHK  2717
1       ............ ULIB ...... USER SUBROUTINE LIBRARY MODULE .............    07/05/71 1909.0 PAGE 4
                        POST PROCESSOR ASSEMBLY DATA

        347 636FRE   327
       3354 636MSK  2717, 2721, 2723
        352 636USR   326,  353, 2366, 2412
       2363 6.36AA  2721
       2410 6.36ZZ  2723
         61 ADDTIM  2277
       3327 ADPTEE   627,  632,  640,  651,  662,  673,  727,  734, 1010, 1022
        765 ALLSET   750
        635 ATCHRT   610,  615
      72212 ATRILC  2434, 2440, 2445
         63 ATTACH  2731
        602 ATTCON  2733
         64 ATTNAM  2735
       1250 BADTSF  1245
      74642 BLANKS  1131
      72230 BLIPCH  2131, 2155
      72227 BLIPDT  2136, 2152
      72226 BLIPTM  2137
         20 BLKCHK   255,  364,  643,  665, 1057, 1741, 2222
       3334 BLKTMP  1407, 1413, 1420, 1421
        774 BMDTBL  1002
      72221 BREAKL  1342, 1346, 1347, 1357, 1361, 1364
       1351 BRKERR  1344
      72222 BRKILC  1715
         65 BUFFER  2737
          5 CDEPTH  1453, 1517, 1521
       1665 CHBALL  2741
       1671 CHBCNT     0, 1665, 1667
       1504 CHCOM.  2747
       2442 CHECK1  2436
         66 CHFILE  2745
        326 CHK636  2363, 2410, 2414
       1447 CHKCLS  1423, 1435
         47 CHKCOM  2353
       2021 CHKILC  1775
       1402 CHKMAD  1371, 1377, 1543, 2032, 2041, 2050, 2316
       1406 CHKMD1  1404
         26 CHNCOM  1514
      72432 CHNPTR  2214
       1122 CHPROB  1117
       1476 CKCLS0  1470
       1500 CKCLS1  1475
       1502 CKCLSX  1447
        472 CKFUL1   466
        477 CKFUL2   471
        466 CKFULL   447, 1016
       1647 CKPROT  1535, 1551
         12 CKQUIT   370,  451,  541
        100 CLKBIT  2264, 2271
       2267 CLKOFF  2753
         24 CLNGTH  1463, 1472, 1474
      74640 CMFL00  1206
      72241 COMCTR  1522, 1713
       1170 COMFL.  2761
      72240 COMFSW  1204, 1210, 1672
1       ............ ULIB ...... USER SUBROUTINE LIBRARY MODULE .............    07/05/71 1909.0 PAGE 5
                        POST PROCESSOR ASSEMBLY DATA

      74500 DATEYR  2254
       2654 DEFERR  2765
         70 DELFIL  2767
         71 DELMFD  2771
         46 DORMNT  1272, 2175, 2203
       1761 DSCOP1  1754, 1760
         40 DSCOPE  1761
       1750 DSCOP.  2775
       1002 EMDTBL   756,  763, 1002
         10 ENBBIT  2073
         23 ENTLIN  1160, 2567
       2570 ENTLN1  2565
         44 ERPILC  2665
         43 ERSILC  2663
         33 ERSUNI  2462
         72 FCHECK  3001
       1374 FERRTN  3003
        221 FILWAT   216
         30 FINDSB  2600
       1051 FORBID  3011
         41 FREEUP  1777
         73 FSTATE  3013
       2714 FSTSUB   134, 2714, 3306
          1 FULBIT   474,  712,  731, 1305, 1312, 1321
        262 GBFMOV   261,  267
       3333 GBFTMP   251,  253,  254
        352 GE.USR     0,  353
       1550 GETA.1  1533
        226 GETARG   304,  353,  411,  506,  602, 1036, 1054, 1074, 1216, 1341, 1366, 1374, 1450, 1504, 1524, 1542, 1567
                    1700, 1724, 1736, 1750, 2031, 2040, 2047, 2060, 2076, 2117, 2126, 2141, 2216, 2312, 2475, 2516, 2532
                    2555, 2574, 2604, 2615, 2635
       1542 GETARY  3017
        270 GETBFX   246,  260
       2141 GETBLP  3021
       1715 GETBRK  3023
        246 GETBUF   443,  537, 1013, 1136, 2521, 2566
       1713 GETCLC  3027
       1435 GETCLS  3031
       1733 GETCM1  1726, 1727
       1724 GETCOM  3033
       1717 GETILC  3035
       2252 GETIME  3037
        272 GETIND   124,  306,  432,  605,  746, 1041, 1045, 1077, 1102, 1226, 1231, 1405, 1416, 1705, 2063, 2066, 2121
                    2130, 2133, 2314, 2500, 2535, 2557, 2576, 2606, 2617, 2624, 2637, 2642
        301 GETINX   272
       1525 GETL.1
       1534 GETL.2  1527
       1524 GETLOC  3041
       1721 GETMEM  3043
       1675 GETOPT  3045
         51 GETPRM   546
       2076 GETSYS  3047
       1700 GETWRD  3051
       1112 GOTLUN
         10 GPHBIT   573,  575,  712
1       ............ ULIB ...... USER SUBROUTINE LIBRARY MODULE .............    07/05/71 1909.0 PAGE 6
                        POST PROCESSOR ASSEMBLY DATA

       1441 GTCLS1  1440, 1445
       1443 GTCLS2  1436
         34 GTDYTM  2257
        533 GTSTPR   514
       1050 HIGH77  1042, 1146
       2474 HNGCOD  2471
       2464 HNGUS1  2460
       2447 HNGUSR  3055
          2 HUNGBT  2457
          7 ILKRTN   215
       3321 ILLCSB   173,  175
        172 ILLEGL   517, 1174, 1255, 1453, 1517, 1521, 1600, 1662, 2030, 2311, 2610, 2622, 2626
         20 INPBIT  2335
       1664 INPBND     0, 1654, 1657
        377 INWAIT   374,  655,  700, 1072
         75 IODIAG  3057
         25 .WRFXA  1004
       1325 KILNBK  3065
       1407 MADBLK   355,  442,  642,  664, 1012, 1056, 1135, 1546, 1740, 2220, 2564
       1421 MDBLK1  1412
      72161 MEMBND  1456, 1721, 1770, 2001, 2010
        101 MOVFIL  3077
        557 MOVLOC   550,  553
       3353 MSKA10  3071, 3137, 3207, 3213
       1000 NBACBT  3350
          4 NBKBIT   712, 1320, 1332, 1334
          2 NCVBIT   712, 1307, 1312, 1320
         42 NEWCOM  2215
       2205 NEXCOM  3101
       4000 NFIBBT  2307
        400 NINTBT   416
       1114 NOALOW  1121, 1127
       1242 NOTSSF  1240
      74451 NWORDS  1767, 1773, 1776, 2024, 2026
      75014 OKPROB  1043, 1052, 1112
      74743 OKPROG  1046, 1115
      72214 OLDILC  1717, 2173
       2056 OPTRTN  2037, 2046, 2125
       1634 PATCHC  1603, 1605, 1614, 1617, 1621, 1624, 1626, 1630
        123 PCKSUB     0
       3313 PMSUBC   165,  167
        350 PRB636   332,  337, 2370
        351 PRG636   335,  343, 2372
       1130 PROBOK  1124
        460 PSWTCH   410,  426,  455,  527
       3337 PTWAIT  2424, 2425
        316 QALOOP   312
        313 QATOUT   322,  325
        303 QATTCH   636,  657,  702,  725,  740, 1006
        100 R636BT  3354
          1 RCOMBT  1171
        103 RDFILE  3113
        372 RDFLX.   367
        677 RDLEMP   674
        657 RDLINA  3117
1       ............ ULIB ...... USER SUBROUTINE LIBRARY MODULE .............    07/05/71 1909.0 PAGE 7
                        POST PROCESSOR ASSEMBLY DATA

         13 RDLINE   371,  647,  671, 1063
        653 RDLRTN   637
       1054 RDMESS  3121
        104 RDWAIT  3123
         56 RDYTIM  2547
        647 READIT   646
        636 REDLIN  3127
        702 RELEAS  3131
        105 RESETF  3133
       2670 RETRN1  1033, 1053, 1217, 1263, 1317, 1340, 1360, 1365, 1523, 1670, 1723, 1774, 2020, 2164, 2166, 2256, 2261
                    2266, 2273, 2411, 2413, 2551, 2554, 3153
       2672 RETRN2   376,  456,  516,  545,  562,  601,  635,  720,  735, 1073, 1175, 1350, 1373, 1401, 1434, 1446, 1541
                    1633, 1732, 1735, 1746, 2057, 2225, 2240, 2251, 2427, 2525, 2546, 2603, 2614, 2715
       2674 RETRN3   457,  656,  773, 1027, 1047, 1070, 1234, 1566, 1747, 1764, 2075, 2116, 2140, 2162, 2407, 2431, 2572
                    2634, 2650
       2676 RETRN4   653, 1024, 1167, 2364, 2433, 2511, 2573
       2700 RETRN5   676, 2441
       2702 RETRN6  2446
       2704 RETRN7  2415, 2443
       2706 RETRNX   661,  701, 1247, 2336, 2653, 2667, 2671, 2673, 2675, 2677, 2701, 2703, 2705
         40 RKLDBT  3352
        720 RLSRTN   703,  706
         20 RPATBT  1647, 3351
        106 RSFILE  3135
         45 RSTCPU  2302, 2713
       2651 RSTIME  3145
       1000 RSYSBT  3353
       1356 SAVBRK  3147
         10 SB.ERR  1273, 2204
          2 SB.TSX  2170, 2176
       2477 SCHED1  2502
         11 SCHEDL   221,  377,  461,  630, 1154, 2005, 2337, 2450, 2505
        520 SCPTAG   510,  521,  533,  564
       2373 SELECT
       2404 SELRTN  2377
       1020 SENDIT  1005, 1014, 1017
       1300 SETBCD  3161
       2126 SETBLP  3163
       1341 SETBRK  3165
       1515 SETCLC  3167
       1423 SETCLS  3171
       1301 SETFB1  1275, 1277
       1313 SETFB2  1301
        107 SETFIL  3173
       1276 SETFUL  3175
       1631 SETLC1  1573, 1575
       1567 SETLOC  3177
       1765 SETMEM  3201
       1323 SETNBK  3203
       1274 SETNCV  3205
       2031 SETOPT  3207
        110 SETPRI  3211
         50 SETPRM   542
       1354 SETRS2
       2177 SETRSX  1355
1       ............ ULIB ...... USER SUBROUTINE LIBRARY MODULE .............    07/05/71 1909.0 PAGE 8
                        POST PROCESSOR ASSEMBLY DATA

        735 SETRTN   726
          6 SETSWS   577,  716,  733, 1315, 1336
       2060 SETSYS  3213
         35 SETUFD  1213, 1253, 1261
       1272 SETUFR  1214, 1254, 1262
         57 SETUSR  2011
       2117 SETWRD  3215
       1321 SILFUL  1276
       1320 SILNCV  1274
        753 SLVLOP   764
          6 SLVMDS   755, 1002
        773 SLVRET   741,  744
       1002 SNDLIN  3223
       1004 SNDLNA  1003, 3225
       1024 SNDRTN  1007
       1427 STCLS1  1433
       1430 STCLS2  1424
       1432 STCLS3  1426
        563 STGRPH   515
       2000 STMEM1  2025, 2027
       1326 STNBK1  1324
       1334 STNBK2  1326
        111 STORGE  3227
      72266 SUBCOM  1471
        200 SUBFND   137
      76234 SUBNAM  2071, 2110
        164 SUBNFD   151,  163,  210,  505
      76163 SUBSWS  2067, 2111
        220 SUBTRA   202
      74534 SYSMSG  2466
      74477 SYSNAM  2243
       1256 SYSTSF  1201, 1224
        112 TAPFIL  3231
       1366 TILOCK  3233
      74476 TIMNOW  2252, 2552
         77 TPWRSW  2351, 2356
        113 TRFILE  3235
      72130 TSSFID  1256, 1257
       1235 TSSF.1  1260
         37 TSSFL.  1237
      75453 UARRAY  1711, 2123, 2124
          1 UBACBT  3345
      72242 UCOMBF  1476, 1733, 2212, 2213
      72223 UFERTN  1375, 1400
          2 UFORBT  3346
      72224 UILOCK  1367, 1372
        114 UMOUNT  3241
      75646 UNITID   320,  502,  613, 2244
        115 UNLINK  3243
         60 UPCLOC  2300
        116 UPDATE  3247
        117 UPDMFD  3251
         20 UPRCBT  1574, 1650, 2307, 2537, 3347, 3354
      72232 URCODE   206,  420, 2536
      72236 USRFIL  1212
1       ............ ULIB ...... USER SUBROUTINE LIBRARY MODULE .............    07/05/71 1909.0 PAGE 9
                        POST PROCESSOR ASSEMBLY DATA

      75770 USROPT   415,  572,  576,  711,  713,  730,  732, 1304, 1314, 1331, 1335, 1676, 2035, 2036, 2043, 2044, 2045
                    2054, 2055, 2072, 2074, 2263, 2265, 2270, 2272, 2454
      75524 USWICH   473, 2334, 2350, 2357, 2455, 2456
       1030 VACUUM  3255
        120 VERIFY  3257
        255 WDCTOK   250
         16 WDSLIN   250,  252,  361, 1130, 1132, 1140, 1141, 1143, 1161
       2216 WHOAMI  3263
       2237 WHOBOT  2226
       2232 WHONXT  2237
       2234 WHOPUT  2227
       2241 WHOTAB  2232
        121 WRFILE  3265
          1 WRFLXA   404, 1250, 2470
       1074 WRMESS  3275
       3330 WRPROB  1100, 1105
       3331 WRPROG  1103, 1106
         52 WRSCFX   525
       3332 WRTEMP   715,  717, 1152, 1156, 1162, 2560, 2571
          2 WRTOPR  1627, 2514
        122 WRWAIT  3277
        452 WTCALL   407,  440,  444,  450,  526
       2165 (EFTM)  3303
       2555 (ENTLN  2777
       2574 (FNDSB  3005
       2257 (GDYTM  3053
       2163 (LFTM)  3305
       2615 (NOTIM  3103
       2514 (PRINT  2513, 3107
       2523 (PRNT1  2515, 2520, 2522
       2512 (PUNCH  3111
       2547 (RDYTM  3125
       2526 (RSSRB  3141
       2530 (RSSWB  3143
       2475 (SCHED  3151
       2274 (UPCLK  3245
        404 (WFXA)  3267
        406 (WRFX)   405, 3271
        501 (WSCP)  3301

0 NO ERROR IN ABOVE ASSEMBLY.


BKSV8C   BCD 07/23/70 1557.1    3146         00000
1       M1416 3845  PETER R. BOS ....... BACKGROUND REQUEST PROCESSOR .......    07/22/70 1333.5 PAGE 1

                                     PCC     ON                                                       BKSV0002
                                     NOLNK                                                            BKSV0003
                       00016         ENTRY   BKSERV        CALLED BY CLKINT TO PROCESS REQUEST        BKSV0004
                       00066         ENTRY   ERSILC        ILC SAVE LOCATION FOR F2PM                 BKSV0005
                       00070         ENTRY   ERPILC        ILC FOR ERROR PROCEDURE                    BKSV0006
                       00064         ENTRY   TKFPM.        FMS ERROR PROCEDURE                        BKSV0007
                       00073         ENTRY   LDCRD.        LOAD UTILITY CARD FOR BACKGROUND SYSTEM    BKSV0008
                       00133         ENTRY   BKSTP.        STOP BACKGROUND SYSTEM                     BKSV0009
                       00160         ENTRY   BKDIE.        KILL BACKGROUND SYSTEM                     BKSV0010
                                     LBL     BKSV0000                                                 BKSV0011
                                     PCC     OFF                                                      BKSV0012
                                                                                                      BKSV0013
                                     EXTERN  SCHEDL,FREEUP,PIOSEL,PCKIO,TCTIME,WRTOPR,CYCLE           BKSV0014
                                     EXTERN  RESET,UMOUNT,UPDATE,PRDIAG,SETUFD,DEAD,RSTCPU            BKSV0015
                                     EXTERN  WRTOPR                                                   BKSV0016
                                                                                                      BKSV0017
                                     UNLIST                                                           BKSV0018

                                                                                                      BKSV0024
                                                                                                      BKSV0025
      00016  0564 00 0 74671  BKSERV ENB     Q0            ROUTINE TO SERVICE FMS REQUEST             BKSV0026
      00017                          SAVE    BK(X1,X4)     SAVE LINKAGE                               BKSV0027
      00021 -0500 60 4 00001         CAL*    1,4           PICK UP REQUEST CODE                       BKSV0028
      00022  0737 00 1 00000         PAC     ,1            ..                                         BKSV0029
      00023 -0520 00 0 74444         NZT     BKGKEY        ARE WE WAITING FOR PREVIOUS REQUEST        BKSV0030
      00024  0020 00 0 00030         TRA     *+4           .. NO, SKIP TO SET UP COMMAND              BKSV0031
      00025  0074 00 4 00005         TSX     WRTOPR,4      HERE IF WAITING FMS REQUEST                BKSV0032
      00026  0 00011 0 00215         PZE     BGKYWT,,9     PRINT MESSAGE TO OPERATOR                  BKSV0033
      00027  0020 00 0 00046         TRA     BKXIT         SKIP TO COMMON EXIT, INSURE SERVICE        BKSV0034
                                                                                                      BKSV0035
      00030  0636 00 1 74444         SCA     BKGKEY,1      SAVE REQUEST CODE                          BKSV0036
      00031  0600 00 0 74450         STZ     STOPSW        RESET STOP INDICATOR                       BKSV0037
      00032 -0500 00 1 00055         CAL     COMTBL,1      PICK UP NAME OF COMMAND                    BKSV0038
      00033  0602 00 0 75575         SLW     COMMND        PUT AWAY                                   BKSV0039
      00034                          SCHEDL  Q2,Q0,Q1      GRAB BACKGROUND OUT OF QUEUES              BKSV0040
      00040                          SCHEDL  Q2,Q0,Q3      AND INFORM SCHEDL OF WAITING COMMAND       BKSV0041
      00044  0560 00 0 74671         LDQ     Q0            RESET COMMAND SWITCHES                     BKSV0042
      00045 -0620 00 0 75524         SLQ     USWICH        ..                                         BKSV0043
      00046                   BKXIT  SCHEDL  Q7,Q0,Q1      TELL SCHEDL GIVE FMS IMMEDIATE SERVICE     BKSV0044
      00052                          RETURN  (2,4),BK(X1,X4) RETURN TO CLKINT                         BKSV0045
                                                                                                      BKSV0046
                                                                                                      BKSV0047
                       00055  COMTBL SYN     *             DISPATCH TABLE FOR REQUEST PROCESSOR       BKSV0048
      00055  516263215163            BCI     1,RSTART      CODE 0, RUN BACKGROUND SYSTEM              BKSV0049
      00056  634226024744            BCI     1,TKF2PM      CODE 1, FMS ERROR PROCEDURE                BKSV0050
      00057  432423215124            BCI     1,LDCARD      CODE 2, LOAD UTILITY CARD                  BKSV0051
      00060  234351432423            BCI     1,CLRLDC      CODE 3, CLEAR AND LOAD UTILITY CARD        BKSV0052
      00061  224262634647            BCI     1,BKSTOP      CODE 4, STOP BACKGROUND                    BKSV0053
      00062  264462243125            BCI     1,FMSDIE      CODE 5, KILL BACKGROUND SYSTEM             BKSV0054
      00063  224243242344            BCI     1,BKLDCM      CODE 6, INITIATE COMMAND                   BKSV0055
                       00064  ENDTBL SYN     *             ..                                         BKSV0056
1       M1416 3845  PETER R. BOS ....... BACKGROUND REQUEST PROCESSOR .......    07/22/70 1333.5 PAGE 2

                                                                                                      BKSV0058
      00064 -0500 00 0 72162  TKFPM. CAL     ILC           FMS ERROR PROCEDURE                        BKSV0059
      00065 -0761 00 0 00042         SEB                   ..                                         BKSV0060
      00066  0602 00 0 00000  ERSILC SLW     -             GIVE CURRENT ILC TO FMS MONITOR            BKSV0061
      00067 -0761 00 0 00041         SEA                   ..                                         BKSV0062
      00070  0774 00 4 00000  ERPILC AXT     -,4           AND SET ERROR ILC                          BKSV0063
      00071  0634 00 4 72162         SXA     ILC,4         ..                                         BKSV0064
      00072  0020 00 0 00015         TRA     RSTCPU        GO RUN BACKGROUND                          BKSV0065
                                                                                                      BKSV0066
                                                                                                      BKSV0067
      00073 -0500 00 0 72161  LDCRD. CAL     MEMBND        LOAD UTILITY CARD FOR BACKGROUND SYSTEM    BKSV0068
      00074  0767 00 0 00022         ALS     18            SET UP NUMBER OF WORDS TO CLEAR            BKSV0069
      00075 -0501 00 0 74651         ORA     AMASK         ..                                         BKSV0070
      00076  0602 00 0 74451         SLW     NWORDS        FOR CLEAR, LOAD CARDS, MEMBND = 0          BKSV0071
      00077  0074 00 4 00001         TSX     FREEUP,4      FREE UP AND CLEAR CORE IF NECESSARY        BKSV0072
      00100  0600 00 0 76622         STZ     UTIME         RESET BACKGROUND TIME USED                 BKSV0073
      00101  0600 00 0 74672         STZ     PB            RESET PERCENTAGE                           BKSV0074
      00102  0760 00 0 01352         RDCA                  RESET DATA CHANNELS                        BKSV0075
      00103  0760 00 0 02352         RDCB                  ..                                         BKSV0076
      00104 -0761 00 0 00042         SEB                   SET UP HTR IN CASE OF EOF                  BKSV0077
      00105  0600 00 0 00001         STZ     1             ..                                         BKSV0078
      00106 -0761 00 0 00041         SEA                   ..                                         BKSV0079
      00107  0774 00 4 00001         AXT     1,4           STARTING ILC IS 00001                      BKSV0080
      00110  0634 00 4 72162         SXA     ILC,4         ..                                         BKSV0081
      00111 -0774 00 1 00000         AXC     0,1           LOCATION FOR POSSIBLE P.M.V.               BKSV0082
      00112 -0500 00 0 00115         CAL     RCDA          PICK UP I/O SELECT FOR PCKIO               BKSV0083
      00113  0602 60 0 00002         SLW*    PIOSEL        ..                                         BKSV0084
      00114  0564 00 0 74671         ENB     Q0            DISABLE ALL TRAPS                          BKSV0085
      00115  0762 00 0 01321  RCDA   RCDA                  SELECT CARD READER ON CHANNEL 'A'          BKSV0086
      00116  0540 00 0 00226         RCHA    CARD          SIMULATE LOAD CARD SEQUENCE                BKSV0087
      00117  0074 00 4 00003         TSX     PCKIO,4       INSURE DATA GOES TO B-CORE                 BKSV0088
      00120  0564 00 0 77777         ENB     ENBWD         ENABLE FOR ALL TRAPS NOW                   BKSV0089
      00121 -0500 00 0 74651         CAL     AMASK         SET UP NEW MEMORY SIZE                     BKSV0090
      00122  0602 00 0 72161         SLW     MEMBND        .. FOR BACKGROUND                          BKSV0091
      00123  0767 00 0 00022         ALS     18            ..                                         BKSV0092
      00124  0602 00 0 72157         SLW     PRIND         ..                                         BKSV0093
      00125  0600 00 0 72160         STZ     RLIND         .. NO RELOCATION, PLEASE                   BKSV0094
      00126                          SCHEDL  Q6,Q0,MEMBND  INFORM SCHEDL OF NEW SIZE                  BKSV0095
      00132  0020 00 0 00015         TRA     RSTCPU        AND GO RUN BACKGROUND SYSTEM               BKSV0096
                                                                                                      BKSV0097
                                                                                                      BKSV0098
      00133                   BKSTP. SCHEDL  Q7,Q0,Q0      RESET BACKGROUND PRIORITY                  BKSV0099
      00137                          SCHEDL  Q2,Q0,Q1      TELL SCHEDL BACKGROUND DORMANT             BKSV0100
      00143                          SCHEDL  Q12,Q0,Q0     SET BACKGROUND TO LOWEST PRIORITY          BKSV0101
      00147  0600 00 0 74672         STZ     PB            RESET PERCENTAGE                           BKSV0102
      00150  0560 00 0 76622         LDQ     UTIME         GET TIME USED                              BKSV0103
      00151  0074 00 4 00004         TSX     TCTIME,4      CONVERT TO HH.HH FOR COMMENT               BKSV0104
      00152  0602 00 0 00205         SLW     TIMCOM+4      ..                                         BKSV0105
      00153  0074 00 4 00005         TSX     WRTOPR,4      PRINT COMMENT TO OPERATOR                  BKSV0106
      00154  0 00007 0 00201         PZE     TIMCOM,,7     ..                                         BKSV0107
      00155 -0625 00 0 74457         STL     DISKSW        INDICATE SWAP TO BE ON DISK                BKSV0108
      00156  0600 00 0 74444         STZ     BKGKEY        REQUEST HAS BEEN PROCESSED                 BKSV0109
      00157  0020 00 0 00006         TRA     CYCLE         RETURN TO MAIN CONTROL                     BKSV0110
                                                                                                      BKSV0111
                                                                                                      BKSV0112
      00160                   BKDIE. SCHEDL  Q7,Q0,Q0      RESET PRIORITY FOR BACKGROUND              BKSV0113
1       M1416 3845  PETER R. BOS ....... BACKGROUND REQUEST PROCESSOR .......    07/22/70 1333.5 PAGE 3

      00164  0074 00 4 00007         TSX     RESET,4       RESET ANY ACTIVE FILES FOR BACKGROUND      BKSV0114
      00165  0074 00 4 00010         TSX     UMOUNT,4      UNMOUNT ANY TAPES                          BKSV0115
      00166  3 00000 0 00230         PAR     =HALL         ..                                         BKSV0116
      00167  3 00005 0 00210         PAR     UMTCM,,5      ..                                         BKSV0117
      00170  3 00000 0 00171         PAR     *+1           ..                                         BKSV0118
      00171  0074 00 4 00011         TSX     UPDATE,4      UPDATE FILE DIRECTORY                      BKSV0119
      00172  3 00000 0 00012         PAR     PRDIAG        ..                                         BKSV0120
      00173  0600 00 0 72236         STZ     USRFIL        DETACH BACKGROUND FROM ANY U.F.D.          BKSV0121
      00174  0074 00 4 00013         TSX     SETUFD,4      ..                                         BKSV0122
      00175  0761 00 0 00000         NOP                   ..                                         BKSV0123
      00176  0600 00 0 74672         STZ     PB            RESET BACKGROUND PERCENTAGE                BKSV0124
      00177  0074 00 4 00014         TSX     DEAD,4        AND PLACE IN DEAD STATUS                   BKSV0125
      00200  000000000002            VFD     O36/SB.TSX    ..                                         BKSV0126
                                                                                                      BKSV0127
                                                                                                      BKSV0128
                                                                                                      BKSV0129
      00201  602364515125     TIMCOM BCI     / CURRENT JOB HAS RUN/                                   BKSV0131
      00205  603030333030            BCI     / HH.HH HOURS./                                          BKSV0132
      00210  602221234227     UMTCM  BCI     / BACKGROUND TAPES UNMOUNTED./                           BKSV0133
      00215  605454545454     BGKYWT BCI     / ***** PREVIOUS FMS REQUEST NOT YET PROCESSED *****/    BKSV0134
                                                                                                      BKSV0135
      00226 -0 00003 1 00000  CARD   IOCP    0,1,3         CHANNEL COMMANDS TO SIMULATE 'LOAD CARDS'  BKSV0136
      00227  1 00000 1 00000         TCH     0,1           ..                                         BKSV0137
                                                                                                      BKSV0138
      00230                          RMT     *             REMOTE SEQUENCES                           BKSV0139
                                     END                                                              BKSV0141

        LITERALS
      00230  214343606060
1       M1416 3845  PETER R. BOS ....... BACKGROUND REQUEST PROCESSOR .......    07/22/70 1333.5 PAGE 1
                        POST PROCESSOR ASSEMBLY DATA

       72127 IS THE LAST LOCATION NOT USED BY THIS PROGRAM
        231 IS THE FIRST LOCATION NOT USED BY THIS PROGRAM

0REFERENCES TO DEFINED SYMBOLS
      74672     PB   101,  147,  176
      74671     Q0    16,   36,   42,   44,   50,  114,  130,  135,  136,  141,  145,  146,  162,  163
      74670     Q1    37,   51,  142
      74667     Q2    35,   41,  140
      74666     Q3    43
      74663     Q6   127
      74662     Q7    47,  134,  161
      72162    ILC    64,   71,  110
      74655    Q12   144
         52   BKX1    17
         53   BKX4    20
        226   CARD   116
         14   DEAD   177
        115   RCDA   112
      74651  AMASK    75,  121
         46  BKXIT    27
          6  CYCLE   157
      77777  ENBWD   120
          3  PCKIO   117
      72157  PRIND   124
          7  RESET   164
      72160  RLIND   125
        210  UMTCM   167
      76622  UTIME   100,  150
        215 BGKYWT    26
        160 BKDIE.     0
      74444 BKGKEY    23,   30,  156
         16 BKSERV     0
        133 BKSTP.     0
      75575 COMMND    33
         55 COMTBL    32,   55
      74457 DISKSW   155
         64 ENDTBL    64
         70 ERPILC     0
         66 ERSILC     0
          1 FREEUP    77
         73 LDCRD.     0
      72161 MEMBND    73,  122,  131
      74451 NWORDS    76
          2 PIOSEL   113
         12 PRDIAG   172
         15 RSTCPU    72,  132
          2 SB.TSX   200
          0 SCHEDL    34,   40,   46,  126,  133,  137,  143,  160
         13 SETUFD   174
      74450 STOPSW    31
          4 TCTIME   151
        201 TIMCOM   152,  154
         64 TKFPM.     0
         10 UMOUNT   165
1       M1416 3845  PETER R. BOS ....... BACKGROUND REQUEST PROCESSOR .......    07/22/70 1333.5 PAGE 2
                        POST PROCESSOR ASSEMBLY DATA

         11 UPDATE   171
      72236 USRFIL   173
      75524 USWICH    45
          5 WRTOPR    25,  153

0 NO ERROR IN ABOVE ASSEMBLY.


RTRN8E   BCD 05/26/71 1710.6    6504         00000
