


ERNOTE   BCD 01/29/68 1552.4    2127         00000
1     MAD PROGRAM LISTING ... ... ...                 FILE  ERNOTE   MAD            01/29/68    1539.8
-
                  EXTERNAL FUNCTION (I,FOBCD)                                                     *001 LM00001
                  ENTRY TO ERNOTE.                                                                *002 LM00002
                  TRANSFER TO Q4(I)                                                               *003 LM00003
      Q4(1)       PRINT ONLINE FORMATQ11                                                          *004 LM00004
                  VECTOR VALUES Q11=$28H STRTPL HAS NOT BEEN CALLED.*$                            *005 LM00005
                  TRANSFER TO Q12                                                                 *006 LM00006
      Q4(2)       PRINT ONLINE FORMAT Q13,FOBCD                                                   *007 LM00007
                  VECTOR VALUESQ13=$27H WRONG NO. OF ARGUEMENTS IN ,C6*$                          *008 LM00008
                  TRANSFER TO Q12                                                                 *009 LM00009
      Q4(3)       PRINT ONLINE FORMATQ14,FOBCD                                                    *010 LM00010
                  VECTOR VALUES Q14=$23H NUMBR1 ERROR. FNUMBER=E15.7*$                            *011 LM00011
                  FUNCTION RETURN                                                                 *012 LM00012
      Q4(4)       PRINT ONLINE FORMAT Q15                                                         *013 LM00013
                  VECTOR VALUES Q15=$23H DXDY1 ERROR. XMAX=XMIN*$                                 *014 LM00014
                  FUNCTION RETURN                                                                 *015 LM00015
      Q4(5)       PRINT ONLINE FORMAT Q16, FOBCD                                                  *016 LM00016
                  VECTOR VALUES Q16=$17H AXIS1 ERROR. FM=E15.7*$                                  *017 LM00017
      Q12         EXECUTE EXIT.(0)                                                                *018 LM00018
      Q4(6)       PRINT ONLINE FORMAT Q17,FOBCD                                                   *019 LM00019
                  VECTOR VALUES Q17=$34H SYMBL5 ERROR. SPECIAL CARACTER = I5*$                    *020 LM00020
                  FUNCTION RETURN                                                                 *021 LM00021
      Q4(7)       PRINT FORMAT Q18                                                                *022 LM00022
                  VECTOR VALUES Q18=$30H STRTPL - ENDPL SEQUENCE ERROR*$                          *023 LM00023
                  TRANSFER TO Q12                                                                 *024 LM00024
      Q4(8)       PRINT FORMAT Q19                                                                *025 LM00025
                  VECTOR VALUES Q19=$31H MULTIPLE STRTPL SEQUENCE ERROR*$                         *026 LM00026
                  TRANSFER TO Q12                                                                 *027 LM00027
                  INTEGER I                                                                       *028 LM00028
                  END OF FUNCTION                                                                 *029 LM00029
1MAD PROGRAM,TYPE NOV 1963      (ALL NUMBERS ARE OCTAL)
0TOTAL LOCATIONS   00174 TRANSFER VECTOR LENGTH  00003 PROGRAM BEGINS    00100
0 PROGRAM IS AN EXTERNAL FUNCTION.   THE FOLLOWING ARE ENTRIES
      ERNOTE 00101   0
0VARIABLE STORAGE (A=ARRAY,C=COMMON,E=ERASABLE,DIGIT=MODE)
      Q11    00023 A 1        Q13    00031 A 1        Q15    00044 A 1        Q17    00060 A 1        Q19    00074 A 1
      Q12    00004   4        Q14    00037 A 1        Q16    00051 A 1        Q18    00066 A 1        Q4     00015 A 4
0FUNCTION DICTIONARY
      EXIT   00000   0        .COMNT 00001   0        .PRINT 00002   0
0ABSOLUTE CONSTANTS
 00075 +000000000000     00076 +000000000001     00077 +233000000000
0STATEMENT DICTIONARY
 00004 TXL -300135000133       00005 TXL -300151000146       00006 TXL -300145000142       00007 TXL -300141000135
 00010 TXL -300133000127       00011 TXL -300126000123       00012 TXL -300122000116       00013 TXL -300115000111
 00014 TXL -300110000105
0PROGRAM
                 EXTERNAL FUNCTION (I,FOBCD)                                        001  LM00001
                 ENTRY TO ERNOTE.                                                   002  LM00002
 00100 TRA +0 02000 0 00103    00101 SXA +0 63400 2 00153    00102 TSX +0 07400 2 00153
                 T'O Q4(I)                                                          003  LM00003
 00103 LXA +0 53400 2 00024    00104 TRA +0 02000 2 00015
      Q4(1)      PRINT ONLINE FORMATQ11                                             004  LM00004
 00105 TSX +0 07400 4 00001    00106 STR -1 00023 1 00172    00107 STR -1 00000 0 00000
                 V'S Q11=$28H STRTPL HAS NOT BEEN CALLED.*$                         005  LM00005
 00016     +3 35460 6 06060    00017     +2 32143 4 32524    00020     -2 02225 2 54560    00021     +2 16260 4 54663
 00022     -1 16347 4 36030    00023     +0 21030 6 06263
                 T'O Q12                                                            006  LM00006
 00110 TRA +0 02000 0 00004
      Q4(2)      PRINT ONLINE FORMAT Q13,FOBCD                                      007  LM00007
 00111 TSX +0 07400 4 00001    00112 STR -1 00031 1 00172    00113 STR -1 00000 0 00024    00114 STR -1 00000 0 00000
                 V'SQ13=$27H WRONG NO. OF ARGUEMENTS IN ,C6*$                       008  LM00008
 00024     -2 07323 0 65460    00025     -0 56362 6 03145    00026     -1 12764 2 54425    00027     +3 36046 2 66021
 00030     -0 64527 6 04546    00031     +0 20730 6 06651
                 T'O Q12                                                            009  LM00009
 00115 TRA +0 02000 0 00004
      Q4(3)      PRINT ONLINE FORMATQ14,FOBCD                                       010  LM00010
 00116 TSX +0 07400 4 00001    00117 STR -1 00037 1 00172    00120 STR -1 00000 0 00024    00121 STR -1 00000 0 00000
                 V'S Q14=$23H NUMBR1 ERROR. FNUMBER=E15.7*$                         011  LM00011
 00032     +0 75460 6 06060    00033     -1 11325 0 10533    00034     +2 64564 4 42225    00035     -1 15146 5 13360
 00036     -0 42251 0 16025    00037     +0 20330 6 04564
                 FUNCTION RETURN                                                    012  LM00012
 00122 TRA +0 02000 0 00166
      Q4(4)      PRINT ONLINE FORMAT Q15                                            013  LM00013
 00123 TSX +0 07400 4 00001    00124 STR -1 00044 1 00172    00125 STR -1 00000 0 00000
                 V'S Q15=$23H DXDY1 ERROR. XMAX=XMIN*$                              014  LM00014
 00040     +3 14554 6 06060    00041     -0 42167 1 36744    00042     -1 14651 3 36067    00043     +2 47001 6 02551
 00044     +0 20330 6 02467
                 FUNCTION RETURN                                                    015  LM00015
 00126 TRA +0 02000 0 00166
      Q4(5)      PRINT ONLINE FORMAT Q16, FOBCD                                     016  LM00016
 00127 TSX +0 07400 4 00001    00130 STR -1 00051 1 00172    00131 STR -1 00000 0 00024    00132 STR -1 00000 0 00000
                 V'S Q16=$17H AXIS1 ERROR. FM=E15.7*$                               017  LM00017
 00045     +0 75460 6 06060    00046     -0 41325 0 10533    00047     -1 14651 3 36026    00050     +3 16201 6 02551
 00051     +0 10730 6 02167
      Q12        EXECUTE EXIT.(0)                                                   018  LM00018
 00133 TSX +0 07400 4 00000    00134 TXH +3 00000 0 00075
      Q4(6)      PRINT ONLINE FORMAT Q17,FOBCD                                      019  LM00019
 00135 TSX +0 07400 4 00001    00136 STR -1 00060 1 00172    00137 STR -1 00000 0 00024    00140 STR -1 00000 0 00000
                 V'S Q17=$34H SYMBL5 ERROR. SPECIAL CARACTER = I5*$                 020  LM00020
 00052     -2 03105 5 46060    00053     +2 36325 5 16013    00054     -0 36023 2 15121    00055     -2 24725 2 33121
 00056     -1 15146 5 13360    00057     -0 42243 0 56025    00060     +0 30430 6 06270
                 FUNCTION RETURN                                                    021  LM00021
 00141 TRA +0 02000 0 00166
      Q4(7)      P'T Q18                                                            022  LM00022
 00142 TSX +0 07400 4 00002    00143 STR -1 00066 1 00172    00144 STR -1 00000 0 00000
                 V'S Q18=$30H STRTPL - ENDPL SEQUENCE ERROR*$                       023  LM00023
 00061     -1 14651 5 46060    00062     -0 52325 6 02551    00063     -2 06225 5 06425    00064     -2 02545 2 44743
 00065     -1 16347 4 36040    00066     +0 30030 6 06263
                 T'O Q12                                                            024  LM00024
 00145 TRA +0 02000 0 00004
      Q4(8)      P'T Q19                                                            025  LM00025
 00146 TSX +0 07400 4 00002    00147 STR -1 00074 1 00172    00150 STR -1 00000 0 00000
                 V'S Q19=$31H MULTIPLE STRTPL SEQUENCE ERROR*$                      026  LM00026
 00067     -1 15146 5 15460    00070     +2 54523 2 56025    00071     -0 36062 2 55064    00072     -2 06263 5 16347
 00073     -0 36331 4 74325    00074     +0 30130 6 04464
                 T'O Q12                                                            027  LM00027
 00151 TRA +0 02000 0 00004
                 INTEGER I                                                          028  LM00028
                 END OF FUNCTION                                                    029  LM00029
 00152 TSX +0 07400 4 00000    00153 TXH +3 00000 0 00000    00154 SXD -0 63400 1 00153    00155 SXA +0 63400 4 00166
 00156 CLA +0 50000 4 00001    00157 STA +0 62100 0 00103    00160 CLA +0 50000 4 00002    00161 STA +0 62100 0 00113
 00162 STA +0 62100 0 00120    00163 STA +0 62100 0 00131    00164 STA +0 62100 0 00137    00165 TRA +0 02000 2 00001
 00166 AXT +0 77400 4 00000    00167 LXA +0 53400 2 00153    00170 LXD -0 53400 1 00153    00171 TRA +0 02000 4 00001


SCLGPH   BCD 01/29/68 1552.4    1474         00000
1     MAD PROGRAM LISTING ... ... ...                 FILE  SCLGPH   MAD            01/29/68    1539.9
-
                  EXTERNAL FUNCTION (X,Y,NNN,S,LLS,XMIN,DX,YMIN,DY)                               *001 LM00001
                  INSERT FILE .XR.                                                                *002 LM00002
                  DEFINE UNARY OPERATOR .XR., PRECIDENCE SAME AS -                                *003 LM00001
                  MODE STRUCTURE .XR.1 TO 1                                                       *004 LM00002
             JMP      *+2,MQ,*+1                                                                  *005 LM00003
             JMP      *+2,AC,*+3                                                                  *006 LM00004
             JMP      *+7,BT,*+9                                                                  *007 LM00005
             JMP      *+2,BT,*+10                                                                 *008 LM00006
             CLA      B                                                                           *009 LM00007
             ALS      15                                                                          *010 LM00008
             STT      LOC+1                                                                       *011 LM00009
             PXA      0,0                                                                         *012 LM00010
             OUT      AC                                                                          *013 LM00011
             XCA                                                                                  *014 LM00012
             JMP      *-5                                                                         *015 LM00013
             STQ      T                                                                           *016 LM00014
             JMP      *-8                                                                         *017 LM00015
             STO      T                                                                           *018 LM00016
             JMP      *-10                                                                        *019 LM00017
             END                                                                                  *020 LM00018
                  ENTRY TO SCLGPH.                                                                *021 LM00003
                  EXECUTE NUMP.(-4,N,.XR.4)                                                       *022 LM00004
                  WHENEVER N.E.9, TRANSFER TO QQ0004                                              *023 LM00005
                  EXECUTE ERNOTE.(2,QQ0006(1))                                                    *024 LM00006
                  VECTOR VALUES QQ0005=777777777777K,$SCLGPH$                                     *025 LM00007
                  EQUIVALENCE (QQ0005,QQ0006)                                                     *026 LM00008
                  DIMENSION QQ0006(1)                                                             *027 LM00009
      QQ0004      EXECUTE GRAPH1.(X,Y,NNN,S,LLS,XMIN,DX,YMIN,DY,1)                                *028 LM00010
                  FUNCTION RETURN                                                                 *029 LM00011
                  INTEGER NUMP.,N,NNN,LLS                                                         *030 LM00012
      QQ0001      END OF FUNCTION                                                                 *031 LM00013
                                               MODE STRUCTURE .XR.1 TO 1      004  LM00002
 (THE NUMERIC FORM OF THE OPERATOR-MODE ARGUMENT IS    11101 )
1MAD PROGRAM,TYPE NOV 1963      (ALL NUMBERS ARE OCTAL)
0TOTAL LOCATIONS   00116 TRANSFER VECTOR LENGTH  00004 PROGRAM BEGINS    00016
0 PROGRAM IS AN EXTERNAL FUNCTION.   THE FOLLOWING ARE ENTRIES
      SCLGPH 00017   0
0VARIABLE STORAGE (A=ARRAY,C=COMMON,E=ERASABLE,DIGIT=MODE)
      N      00010   1        QQ0004 00007   4        QQ0005 00006 A 1        QQ0006 00006 A 0
0FUNCTION DICTIONARY
      ERNOTE 00000   0        EXIT   00001   0        GRAPH1 00002   0        NUMP   00003   1
0ABSOLUTE CONSTANTS
 00012 +000000000002     00014 +000000000011     00013 +000000000004     00011 +000000000001     00015 +233000000000
0STATEMENT DICTIONARY
 00007 TXL -300056000043
0PROGRAM
                 EXTERNAL FUNCTION (X,Y,NNN,S,LLS,XMIN,DX,YMIN,DY)                  001  LM00001
                 INSERT FILE .XR.                                                   002  LM00002
                 DEFINE UNARY OPERATOR .XR., PRECIDENCE SAME AS -                   003  LM00001
                 MODE STRUCTURE .XR.1 TO 1                                          004  LM00002
                 ENTRY TO SCLGPH.                                                   021  LM00003
 00016 TRA +0 02000 0 00021    00017 SXA +0 63400 2 00060    00020 TSX +0 07400 2 00060
                 EXECUTE NUMP.(-4,N,.XR.4)                                          022  LM00004
 00021 CLA +0 50000 0 00013    00022 ALS +0 76700 0 00017    00023 STT +0 62500 0 00024    00024 PXA +0 75400 0 00000
 00025 STO +0 60100 0 00112    00026 CLS +0 50200 0 00013    00027 STO +0 60100 0 00113    00030 TSX +0 07400 4 00003
 00031 TXH +3 00000 0 00113    00032 TXH +3 00000 0 00010    00033 TXH +3 00000 0 00112
                 WHENEVER N.E.9, TRANSFER TO QQ0004                                 023  LM00005
 00034 CLA +0 50000 0 00010    00035 SUB +0 40200 0 00014    00036 TNZ -0 10000 0 00040    00037 TRA +0 02000 0 00007
                 EXECUTE ERNOTE.(2,QQ0006(1))                                       024  LM00006
 00040 TSX +0 07400 4 00000    00041 TXH +3 00000 0 00012    00042 TXH +3 00000 0 00005
                 VECTOR VALUES QQ0005=777777777777K,$SCLGPH$                        025  LM00007
 00005     -2 22343 2 74730    00006     -3 77777 7 77777
                 EQUIVALENCE (QQ0005,QQ0006)                                        026  LM00008
                 DIMENSION QQ0006(1)                                                027  LM00009
      QQ0004     EXECUTE GRAPH1.(X,Y,NNN,S,LLS,XMIN,DX,YMIN,DY,1)                   028  LM00010
 00043 TSX +0 07400 4 00002    00044 TXH +3 00000 0 00024    00045 TXH +3 00000 0 00024    00046 TXH +3 00000 0 00024
 00047 TXH +3 00000 0 00024    00050 TXH +3 00000 0 00024    00051 TXH +3 00000 0 00024    00052 TXH +3 00000 0 00024
 00053 TXH +3 00000 0 00024    00054 TXH +3 00000 0 00024    00055 TXH +3 00000 0 00011
                 FUNCTION RETURN                                                    029  LM00011
 00056 TRA +0 02000 0 00106
                 INTEGER NUMP.,N,NNN,LLS                                            030  LM00012
      QQ0001     END OF FUNCTION                                                    031  LM00013
 00057 TSX +0 07400 4 00001    00060 TXH +3 00000 0 00000    00061 SXD -0 63400 1 00060    00062 SXA +0 63400 4 00106
 00063 CLA +0 50000 4 00001    00064 STO +0 60100 0 00044    00065 CLA +0 50000 4 00002    00066 STO +0 60100 0 00045
 00067 CLA +0 50000 4 00003    00070 STO +0 60100 0 00046    00071 CLA +0 50000 4 00004    00072 STO +0 60100 0 00047
 00073 CLA +0 50000 4 00005    00074 STO +0 60100 0 00050    00075 CLA +0 50000 4 00006    00076 STO +0 60100 0 00051
 00077 CLA +0 50000 4 00007    00100 STO +0 60100 0 00052    00101 CLA +0 50000 4 00010    00102 STO +0 60100 0 00053
 00103 CLA +0 50000 4 00011    00104 STO +0 60100 0 00054    00105 TRA +0 02000 2 00001    00106 AXT +0 77400 4 00000
 00107 LXA +0 53400 2 00060    00110 LXD -0 53400 1 00060    00111 TRA +0 02000 4 00001


SCALE1   BCD 01/29/68 1552.4    2179         00000
1     MAD PROGRAM LISTING ... ... ...                 FILE  SCALE1   MAD            01/29/68    1540.0
-
                           SCALE1                                                                      LM00001
                  EXTERNAL FUNCTION (X,N,S,XMIN,DX,ND,K)                                          *001 LM00002
                  INSERT FILE .XR.                                                                *002 LM00003
                  DEFINE UNARY OPERATOR .XR., PRECIDENCE SAME AS -                                *003 LM00001
                  MODE STRUCTURE .XR.1 TO 1                                                       *004 LM00002
             JMP      *+2,MQ,*+1                                                                  *005 LM00003
             JMP      *+2,AC,*+3                                                                  *006 LM00004
             JMP      *+7,BT,*+9                                                                  *007 LM00005
             JMP      *+2,BT,*+10                                                                 *008 LM00006
             CLA      B                                                                           *009 LM00007
             ALS      15                                                                          *010 LM00008
             STT      LOC+1                                                                       *011 LM00009
             PXA      0,0                                                                         *012 LM00010
             OUT      AC                                                                          *013 LM00011
             XCA                                                                                  *014 LM00012
             JMP      *-5                                                                         *015 LM00013
             STQ      T                                                                           *016 LM00014
             JMP      *-8                                                                         *017 LM00015
             STO      T                                                                           *018 LM00016
             JMP      *-10                                                                        *019 LM00017
             END                                                                                  *020 LM00018
                  ENTRY TO SCALE1.                                                                *021 LM00004
                  EQUIVALENCE (NN,AN)                                                             *022 LM00005
                  NN=N                                                                            *023 LM00006
                  NND=ND                                                                          *024 LM00007
                  KK=K                                                                            *025 LM00008
                  EXECUTE NUMP.(7,M,.XR.4)                                                        *026 LM00009
                  WHENEVER M.E.7, TRANSFER TO QQ0005                                              *027 LM00010
                  EXECUTE ERNOTE.(2,QQ0007(1))                                                    *028 LM00011
                  VECTOR VALUES QQ0006=777777777777K,$SCALE1$                                     *029 LM00012
                  EQUIVALENCE (QQ0006,QQ0007)                                                     *030 LM00013
                  DIMENSION QQ0007(1)                                                             *031 LM00014
      QQ0005      WHENEVER DX.NE.0,TRANSFER TO QQ0009                                             *032 LM00015
                  EXECUTE DXDY1.(X,NN,S,XMIN,DX,NND,KK)                                           *033 LM00016
                  ND=NND                                                                          *034 LM00017
                  K=KK                                                                            *035 LM00018
      QQ0009      THROUGH QQ0010, FOR I=1,1,I.G.NN                                                *036 LM00019
      QQ0010      X(I)=(X(I)-XMIN)/DX                                                             *037 LM00020
                  FUNCTION RETURN                                                                 *038 LM00021
                  INTEGER NN,N,NND,ND,KK,K                                                        *039 LM00022
                  INTEGER NUMP.,M,I                                                               *040 LM00023
                  END OF FUNCTION                                                                 *041 LM00024
                                               MODE STRUCTURE .XR.1 TO 1      004  LM00002
 (THE NUMERIC FORM OF THE OPERATOR-MODE ARGUMENT IS    11101 )
1MAD PROGRAM,TYPE NOV 1963      (ALL NUMBERS ARE OCTAL)
0TOTAL LOCATIONS   00162 TRANSFER VECTOR LENGTH  00004 PROGRAM BEGINS    00024
0 PROGRAM IS AN EXTERNAL FUNCTION.   THE FOLLOWING ARE ENTRIES
      SCALE1 00025   0
0VARIABLE STORAGE (A=ARRAY,C=COMMON,E=ERASABLE,DIGIT=MODE)
      AN     00005   0        M      00014   1        NN     00005   1        QQ0006 00007 A 1        QQ0009 00011   4
      I      00012   1        NND    00015   1        QQ0005 00010   4        QQ0007 00007 A 0        QQ0010 00004   4
      KK     00013   1
0FUNCTION DICTIONARY
      DXDY1  00000   0        ERNOTE 00001   0        EXIT   00002   0        NUMP   00003   1
0ABSOLUTE CONSTANTS
 00016 +000000000000     00020 +000000000002     00022 +000000000007     00021 +000000000004     00017 +000000000001
 00023 +233000000000
0STATEMENT DICTIONARY
 00010 TXL -300064000055       00011 TXL -300112000100
0PROGRAM
                 EXTERNAL FUNCTION (X,N,S,XMIN,DX,ND,K)                             001  LM00002
                 INSERT FILE .XR.                                                   002  LM00003
                 DEFINE UNARY OPERATOR .XR., PRECIDENCE SAME AS -                   003  LM00001
                 MODE STRUCTURE .XR.1 TO 1                                          004  LM00002
                 ENTRY TO SCALE1.                                                   021  LM00004
 00024 TRA +0 02000 0 00027    00025 SXA +0 63400 2 00122    00026 TSX +0 07400 2 00122
                 EQUIVALENCE (NN,AN)                                                022  LM00005
                 NN=N                                                               023  LM00006
 00027 CLA +0 50000 0 00024    00030 STO +0 60100 0 00005
                 NND=ND                                                             024  LM00007
 00031 CLA +0 50000 0 00024    00032 STO +0 60100 0 00015
                 KK=K                                                               025  LM00008
 00033 CLA +0 50000 0 00024    00034 STO +0 60100 0 00013
                 EXECUTE NUMP.(7,M,.XR.4)                                           026  LM00009
 00035 CLA +0 50000 0 00021    00036 ALS +0 76700 0 00017    00037 STT +0 62500 0 00040    00040 PXA +0 75400 0 00000
 00041 STO +0 60100 0 00157    00042 TSX +0 07400 4 00003    00043 TXH +3 00000 0 00022    00044 TXH +3 00000 0 00014
 00045 TXH +3 00000 0 00157
                 WHENEVER M.E.7, TRANSFER TO QQ0005                                 027  LM00010
 00046 CLA +0 50000 0 00014    00047 SUB +0 40200 0 00022    00050 TNZ -0 10000 0 00052    00051 TRA +0 02000 0 00010
                 EXECUTE ERNOTE.(2,QQ0007(1))                                       028  LM00011
 00052 TSX +0 07400 4 00001    00053 TXH +3 00000 0 00020    00054 TXH +3 00000 0 00006
                 VECTOR VALUES QQ0006=777777777777K,$SCALE1$                        029  LM00012
 00006     -2 22321 4 32501    00007     -3 77777 7 77777
                 EQUIVALENCE (QQ0006,QQ0007)                                        030  LM00013
                 DIMENSION QQ0007(1)                                                031  LM00014
      QQ0005     W'R DX.NE.0,T'O QQ0009                                             032  LM00015
 00055 CLA +0 50000 0 00016    00056 ORA -0 50100 0 00023    00057 FAD +0 30000 0 00023    00060 CHS +0 76000 0 00002
 00061 ADD +0 40000 0 00024    00062 TZE +0 10000 0 00064    00063 TRA +0 02000 0 00011
                 EXECUTE DXDY1.(X,NN,S,XMIN,DX,NND,KK)                              033  LM00016
 00064 TSX +0 07400 4 00000    00065 TXH +3 00000 0 00024    00066 TXH +3 00000 0 00005    00067 TXH +3 00000 0 00024
 00070 TXH +3 00000 0 00024    00071 TXH +3 00000 0 00024    00072 TXH +3 00000 0 00015    00073 TXH +3 00000 0 00013
                 ND=NND                                                             034  LM00017
 00074 CLA +0 50000 0 00015    00075 STO +0 60100 0 00024
                 K=KK                                                               035  LM00018
 00076 CLA +0 50000 0 00013    00077 STO +0 60100 0 00024
      QQ0009     THROUGH QQ0010, FOR I=1,1,I.G.NN                                   036  LM00019
 00100 CLA +0 50000 0 00017    00101 STO +0 60100 0 00012    00102 TRA +0 02000 0 00106    00103 CLA +0 50000 0 00012
 00104 ADD +0 40000 0 00017    00105 STO +0 60100 0 00012    00106 CLA +0 50000 0 00012    00107 SUB +0 40200 0 00005
 00110 TZE +0 10000 0 00112    00111 TPL +0 12000 0 00120
      QQ0010     X(I)=(X(I)-XMIN)/DX                                                037  LM00020
 00112 LXA +0 53400 1 00012    00113 CLA +0 50000 1 00024    00114 FSB +0 30200 0 00024    00115 FDP +0 24100 0 00024
 00116 STQ -0 60000 1 00024    00117 TRA +0 02000 0 00103
                 FUNCTION RETURN                                                    038  LM00021
 00120 TRA +0 02000 0 00153
                 INTEGER NN,N,NND,ND,KK,K                                           039  LM00022
                 INTEGER NUMP.,M,I                                                  040  LM00023
                 END OF FUNCTION                                                    041  LM00024
 00121 TSX +0 07400 4 00002    00122 TXH +3 00000 0 00000    00123 SXD -0 63400 1 00122    00124 SXA +0 63400 4 00153
 00125 CLA +0 50000 4 00001    00126 STO +0 60100 0 00065    00127 STA +0 62100 0 00113    00130 STA +0 62100 0 00116
 00131 CLA +0 50000 4 00002    00132 STA +0 62100 0 00027    00133 CLA +0 50000 4 00003    00134 STO +0 60100 0 00067
 00135 CLA +0 50000 4 00004    00136 STO +0 60100 0 00070    00137 STA +0 62100 0 00114    00140 CLA +0 50000 4 00005
 00141 STA +0 62100 0 00061    00142 STO +0 60100 0 00071    00143 STA +0 62100 0 00115    00144 CLA +0 50000 4 00006
 00145 STA +0 62100 0 00031    00146 STA +0 62100 0 00075    00147 CLA +0 50000 4 00007    00150 STA +0 62100 0 00033
 00151 STA +0 62100 0 00077    00152 TRA +0 02000 2 00001    00153 AXT +0 77400 4 00000    00154 LXA +0 53400 2 00122
 00155 LXD -0 53400 1 00122    00156 TRA +0 02000 4 00001


PICTUR   BCD 01/29/68 1552.4    4649         00000
1     MAD PROGRAM LISTING ... ... ...                 FILE  PICTUR   MAD            01/29/68    1540.1
-
                           PICTUR                                                                      LM00001
                  EXTERNAL FUNCTION (XDIM,YDIM,XLABEL,NCX,YLABEL,NCY,X1,Y1,N1,S                   *001 LM00002
                1 1,LS1,X2,Y2,N2,S2,LS2,X3,Y3,N3,S3,LS3,X4,Y4,N4,S4,LS4,X5,Y5,N                   *001 LM00003
                1 5,S5,LS5)                                                                       *001 LM00004
                  INSERT FILE .XR.                                                                *002 LM00005
                  DEFINE UNARY OPERATOR .XR., PRECIDENCE SAME AS -                                *003 LM00001
                  MODE STRUCTURE .XR.1 TO 1                                                       *004 LM00002
             JMP      *+2,MQ,*+1                                                                  *005 LM00003
             JMP      *+2,AC,*+3                                                                  *006 LM00004
             JMP      *+7,BT,*+9                                                                  *007 LM00005
             JMP      *+2,BT,*+10                                                                 *008 LM00006
             CLA      B                                                                           *009 LM00007
             ALS      15                                                                          *010 LM00008
             STT      LOC+1                                                                       *011 LM00009
             PXA      0,0                                                                         *012 LM00010
             OUT      AC                                                                          *013 LM00011
             XCA                                                                                  *014 LM00012
             JMP      *-5                                                                         *015 LM00013
             STQ      T                                                                           *016 LM00014
             JMP      *-8                                                                         *017 LM00015
             STO      T                                                                           *018 LM00016
             JMP      *-10                                                                        *019 LM00017
             END                                                                                  *020 LM00018
                  ENTRY TO PICTUR.                                                                *021 LM00006
                  DIMENSION XM(10),YM(10)                                                         *022 LM00007
                  EXECUTE NUMP.(0,N,.XR.4)                                                        *023 LM00008
                  NN=N                                                                            *024 LM00009
                  N=(N-6)/5                                                                       *025 LM00010
                  M=N*5+6                                                                         *026 LM00011
                  WHENEVER NN.NE.M,TRANSFER TO QQ0004                                             *027 LM00012
                         STORE MIN, MAX OF AS MANY COORD. ARRAYS AS NECESSARY                          LM00013
                           STORE MIN, MAX OF X ARRAYS IN XM, OF Y ARRAYS IN YM                         LM00014
                  TRANSFER TO QQ0007(N)                                                           *028 LM00015
      QQ0007(05)  EXECUTE MINMAX.(X5,N5,XM(9),XM(10))                                             *029 LM00016
                  EXECUTE MINMAX.(Y5,N5,YM(9),YM(10))                                             *030 LM00017
      QQ0007(04)  EXECUTE MINMAX.(X4,N4,XM(7),XM(8))                                              *031 LM00018
                  EXECUTE MINMAX.(Y4,N4,YM(7),YM(8))                                              *032 LM00019
      QQ0007(03)  EXECUTE MINMAX.(X3,N3,XM(5),XM(6))                                              *033 LM00020
                  EXECUTE MINMAX.(Y3,N3,YM(5),YM(6))                                              *034 LM00021
      QQ0007(02)  EXECUTE MINMAX.(X2,N2,XM(3),XM(4))                                              *035 LM00022
                  EXECUTE MINMAX.(Y2,N2,YM(3),YM(4))                                              *036 LM00023
      QQ0007(01)  EXECUTE MINMAX.(X1,N1,XM(1),XM(2))                                              *037 LM00024
                  EXECUTE MINMAX.(Y1,N1,YM(1),YM(2))                                              *038 LM00025
                  NN=2*N                                                                          *039 LM00026
                           USE ARRAY OF MIN AND MAX VALUES FROM X ARRAYS TO                            LM00027
                           DETERMINE XMIN, DX FOR X ARRAYS AND DRAW X AXIS                             LM00028
                  DX=0.                                                                           *040 LM00029
                  EXECUTE DXDY1.(XM(1),NN,XDIM,XMIN,DX,ND,K)                                      *041 LM00030
                  EXECUTE AXIS1.(0,0,XLABEL,NCX,XDIM,0,XMIN,DX,ND,K,1.)                           *042 LM00031
                           USE ARRAY OF MIN AND MAX VALUES FROM Y ARRAYS TO                            LM00032
                           DETERMINE YMIN, DY FOR Y ARRAYS AND DRAW Y AXIS                             LM00033
                  DY=0.                                                                           *043 LM00034
                  EXECUTE DXDY1.(YM(1),NN,YDIM,YMIN,DY,ND,K)                                      *044 LM00035
                  EXECUTE AXIS1.(0,0,YLABEL,NCY,YDIM,90.,YMIN,DY,ND,K,1.)                         *045 LM00036
                           DRAW AS MANY GRAPHS AS REQUIRED, SCALING EACH POINT                         LM00037
                           AS IT IS NEEDED.                                                            LM00038
                  TRANSFER TO QQ0013(N)                                                           *046 LM00039
      QQ0013(05)  EXECUTE SCLGPH.(X5,Y5,N5,S5,LS5,XMIN,DX,YMIN,DY)                                *047 LM00040
      QQ0013(04)  EXECUTE SCLGPH.(X4,Y4,N4,S4,LS4,XMIN,DX,YMIN,DY)                                *048 LM00041
      QQ0013(03)  EXECUTE SCLGPH.(X3,Y3,N3,S3,LS3,XMIN,DX,YMIN,DY)                                *049 LM00042
      QQ0013(02)  EXECUTE SCLGPH.(X2,Y2,N2,S2,LS2,XMIN,DX,YMIN,DY)                                *050 LM00043
      QQ0013(01)  EXECUTE SCLGPH.(X1,Y1,N1,S1,LS1,XMIN,DX,YMIN,DY)                                *051 LM00044
                  EXECUTE PLOT1.(XDIM+3.,0.,-3)                                                   *052 LM00045
                           RETURN TO CALLING PROGRAM                                                   LM00046
                  EXECUTE PCTEXT.(0)                                                              *053 LM00047
      QQ0004      EXECUTE ERNOTE.(2,QQ0019(1))                                                    *054 LM00048
                  VECTOR VALUES QQ0018=777777777777K,$PICTUR$                                     *055 LM00049
                  EQUIVALENCE (QQ0018,QQ0019)                                                     *056 LM00050
                  DIMENSION QQ0019(1)                                                             *057 LM00051
                  INTEGER NCX,NCY,N1                                                              *058 LM00052
                  INTEGER N2, N3, N4                                                              *059 LM00053
                  INTEGER N5, LS1, LS2                                                            *060 LM00054
                  INTEGER LS3, LS4, LS5                                                           *061 LM00055
                  INTEGER NUMP.,N,NN,M,MINMAX.,ND                                                 *062 LM00056
                  INTEGER K                                                                       *063 LM00057
                  END OF FUNCTION                                                                 *064 LM00058
                                               MODE STRUCTURE .XR.1 TO 1      004  LM00002
 (THE NUMERIC FORM OF THE OPERATOR-MODE ARGUMENT IS    11101 )
1MAD PROGRAM,TYPE NOV 1963      (ALL NUMBERS ARE OCTAL)
0TOTAL LOCATIONS   00546 TRANSFER VECTOR LENGTH  00011 PROGRAM BEGINS    00103
0 PROGRAM IS AN EXTERNAL FUNCTION.   THE FOLLOWING ARE ENTRIES
      PICTUR 00104   0
0VARIABLE STORAGE (A=ARRAY,C=COMMON,E=ERASABLE,DIGIT=MODE)
      DX     00031   0        ND     00035   1        QQ0004 00014   4        QQ0018 00013 A 1        XM     00053 A 0
      DY     00032   0        NN     00036   1        QQ0007 00022 A 4        QQ0019 00013 A 0        YMIN   00054   0
      K      00033   1        N      00037   1        QQ0013 00030 A 4        XMIN   00040   0        YM     00067 A 0
      M      00034   1
0FUNCTION DICTIONARY
      AXIS1  00000   0        DXDY1  00001   0        ERNOTE 00002   0        EXIT   00003   0        MINMAX 00004   1
      NUMP   00005   1        PCTEXT 00006   0        PLOT1  00007   0        SCLGPH 00010   0
0ABSOLUTE CONSTANTS
 00100 +202600000000     00073 +000000000003     00101 +207550000000     00077 +201400000000     00072 +000000000002
 00075 +000000000005     00076 +000000000006     00070 +000000000000     00074 +000000000004     00071 +000000000001
 00102 +233000000000
0STATEMENT DICTIONARY
 00014 TXL -300404000401       00015 TXL -300146000141       00016 TXL -300160000153       00017 TXL -300172000165
 00020 TXL -300204000177       00021 TXL -300216000211       00023 TXL -300316000304       00024 TXL -300330000316
 00025 TXL -300342000330       00026 TXL -300354000342       00027 TXL -300366000354
0PROGRAM
                 EXTERNAL FUNCTION (XDIM,YDIM,XLABEL,NCX,YLABEL,NCY,X1,Y1,N1,S      001  LM00002
                11,LS1,X2,Y2,N2,S2,LS2,X3,Y3,N3,S3,LS3,X4,Y4,N4,S4,LS4,X5,Y5,N      001  LM00003
                15,S5,LS5)                                                          001  LM00004
                 INSERT FILE .XR.                                                   002  LM00005
                 DEFINE UNARY OPERATOR .XR., PRECIDENCE SAME AS -                   003  LM00001
                 MODE STRUCTURE .XR.1 TO 1                                          004  LM00002
                 ENTRY TO PICTUR.                                                   021  LM00006
 00103 TRA +0 02000 0 00106    00104 SXA +0 63400 2 00405    00105 TSX +0 07400 2 00405
                 DIMENSION XM(10),YM(10)                                            022  LM00007
                 EXECUTE NUMP.(0,N,.XR.4)                                           023  LM00008
 00106 CLA +0 50000 0 00074    00107 ALS +0 76700 0 00017    00110 STT +0 62500 0 00111    00111 PXA +0 75400 0 00000
 00112 STO +0 60100 0 00542    00113 TSX +0 07400 4 00005    00114 TXH +3 00000 0 00070    00115 TXH +3 00000 0 00037
 00116 TXH +3 00000 0 00542
                 NN=N                                                               024  LM00009
 00117 CLA +0 50000 0 00037    00120 STO +0 60100 0 00036
                 N=(N-6)/5                                                          025  LM00010
 00121 CLA +0 50000 0 00037    00122 SUB +0 40200 0 00076    00123 LRS +0 76500 0 00043    00124 DVP +0 22100 0 00075
 00125 STQ -0 60000 0 00037
                 M=N*5+6                                                            026  LM00011
 00126 LDQ +0 56000 0 00037    00127 MPY +0 20000 0 00075    00130 XCA +0 13100 0 00000    00131 ADD +0 40000 0 00076
 00132 STO +0 60100 0 00034
                 W'R NN.NE.M,T'O QQ0004                                             027  LM00012
 00133 CLA +0 50000 0 00036    00134 SUB +0 40200 0 00034    00135 TZE +0 10000 0 00137    00136 TRA +0 02000 0 00014
                 TRANSFER TO QQ0007(N)                                              028  LM00015
 00137 LXA +0 53400 2 00037    00140 TRA +0 02000 2 00022
      QQ0007(05) EXECUTE MINMAX.(X5,N5,XM(9),XM(10))                                029  LM00016
 00141 TSX +0 07400 4 00004    00142 TXH +3 00000 0 00024    00143 TXH +3 00000 0 00024    00144 TXH +3 00000 0 00042
 00145 TXH +3 00000 0 00041
                 EXECUTE MINMAX.(Y5,N5,YM(9),YM(10))                                030  LM00017
 00146 TSX +0 07400 4 00004    00147 TXH +3 00000 0 00024    00150 TXH +3 00000 0 00024    00151 TXH +3 00000 0 00056
 00152 TXH +3 00000 0 00055
      QQ0007(04) EXECUTE MINMAX.(X4,N4,XM(7),XM(8))                                 031  LM00018
 00153 TSX +0 07400 4 00004    00154 TXH +3 00000 0 00024    00155 TXH +3 00000 0 00024    00156 TXH +3 00000 0 00044
 00157 TXH +3 00000 0 00043
                 EXECUTE MINMAX.(Y4,N4,YM(7),YM(8))                                 032  LM00019
 00160 TSX +0 07400 4 00004    00161 TXH +3 00000 0 00024    00162 TXH +3 00000 0 00024    00163 TXH +3 00000 0 00060
 00164 TXH +3 00000 0 00057
      QQ0007(03) EXECUTE MINMAX.(X3,N3,XM(5),XM(6))                                 033  LM00020
 00165 TSX +0 07400 4 00004    00166 TXH +3 00000 0 00024    00167 TXH +3 00000 0 00024    00170 TXH +3 00000 0 00046
 00171 TXH +3 00000 0 00045
                 EXECUTE MINMAX.(Y3,N3,YM(5),YM(6))                                 034  LM00021
 00172 TSX +0 07400 4 00004    00173 TXH +3 00000 0 00024    00174 TXH +3 00000 0 00024    00175 TXH +3 00000 0 00062
 00176 TXH +3 00000 0 00061
      QQ0007(02) EXECUTE MINMAX.(X2,N2,XM(3),XM(4))                                 035  LM00022
 00177 TSX +0 07400 4 00004    00200 TXH +3 00000 0 00024    00201 TXH +3 00000 0 00024    00202 TXH +3 00000 0 00050
 00203 TXH +3 00000 0 00047
                 EXECUTE MINMAX.(Y2,N2,YM(3),YM(4))                                 036  LM00023
 00204 TSX +0 07400 4 00004    00205 TXH +3 00000 0 00024    00206 TXH +3 00000 0 00024    00207 TXH +3 00000 0 00064
 00210 TXH +3 00000 0 00063
      QQ0007(01) EXECUTE MINMAX.(X1,N1,XM(1),XM(2))                                 037  LM00024
 00211 TSX +0 07400 4 00004    00212 TXH +3 00000 0 00024    00213 TXH +3 00000 0 00024    00214 TXH +3 00000 0 00052
 00215 TXH +3 00000 0 00051
                 EXECUTE MINMAX.(Y1,N1,YM(1),YM(2))                                 038  LM00025
 00216 TSX +0 07400 4 00004    00217 TXH +3 00000 0 00024    00220 TXH +3 00000 0 00024    00221 TXH +3 00000 0 00066
 00222 TXH +3 00000 0 00065
                 NN=2*N                                                             039  LM00026
 00223 LDQ +0 56000 0 00072    00224 MPY +0 20000 0 00037    00225 STQ -0 60000 0 00036
                 DX=0.                                                              040  LM00029
 00226 CLA +0 50000 0 00070    00227 STO +0 60100 0 00031
                 EXECUTE DXDY1.(XM(1),NN,XDIM,XMIN,DX,ND,K)                         041  LM00030
 00230 TSX +0 07400 4 00001    00231 TXH +3 00000 0 00052    00232 TXH +3 00000 0 00036    00233 TXH +3 00000 0 00024
 00234 TXH +3 00000 0 00040    00235 TXH +3 00000 0 00031    00236 TXH +3 00000 0 00035    00237 TXH +3 00000 0 00033
                 EXECUTE AXIS1.(0,0,XLABEL,NCX,XDIM,0,XMIN,DX,ND,K,1.)              042  LM00031
 00240 TSX +0 07400 4 00000    00241 TXH +3 00000 0 00070    00242 TXH +3 00000 0 00070    00243 TXH +3 00000 0 00024
 00244 TXH +3 00000 0 00024    00245 TXH +3 00000 0 00024    00246 TXH +3 00000 0 00070    00247 TXH +3 00000 0 00040
 00250 TXH +3 00000 0 00031    00251 TXH +3 00000 0 00035    00252 TXH +3 00000 0 00033    00253 TXH +3 00000 0 00077
                 DY=0.                                                              043  LM00034
 00254 CLA +0 50000 0 00070    00255 STO +0 60100 0 00032
                 EXECUTE DXDY1.(YM(1),NN,YDIM,YMIN,DY,ND,K)                         044  LM00035
 00256 TSX +0 07400 4 00001    00257 TXH +3 00000 0 00066    00260 TXH +3 00000 0 00036    00261 TXH +3 00000 0 00024
 00262 TXH +3 00000 0 00054    00263 TXH +3 00000 0 00032    00264 TXH +3 00000 0 00035    00265 TXH +3 00000 0 00033
                 EXECUTE AXIS1.(0,0,YLABEL,NCY,YDIM,90.,YMIN,DY,ND,K,1.)            045  LM00036
 00266 TSX +0 07400 4 00000    00267 TXH +3 00000 0 00070    00270 TXH +3 00000 0 00070    00271 TXH +3 00000 0 00024
 00272 TXH +3 00000 0 00024    00273 TXH +3 00000 0 00024    00274 TXH +3 00000 0 00101    00275 TXH +3 00000 0 00054
 00276 TXH +3 00000 0 00032    00277 TXH +3 00000 0 00035    00300 TXH +3 00000 0 00033    00301 TXH +3 00000 0 00077
                 TRANSFER TO QQ0013(N)                                              046  LM00039
 00302 LXA +0 53400 2 00037    00303 TRA +0 02000 2 00030
      QQ0013(05) EXECUTE SCLGPH.(X5,Y5,N5,S5,LS5,XMIN,DX,YMIN,DY)                   047  LM00040
 00304 TSX +0 07400 4 00010    00305 TXH +3 00000 0 00024    00306 TXH +3 00000 0 00024    00307 TXH +3 00000 0 00024
 00310 TXH +3 00000 0 00024    00311 TXH +3 00000 0 00024    00312 TXH +3 00000 0 00040    00313 TXH +3 00000 0 00031
 00314 TXH +3 00000 0 00054    00315 TXH +3 00000 0 00032
      QQ0013(04) EXECUTE SCLGPH.(X4,Y4,N4,S4,LS4,XMIN,DX,YMIN,DY)                   048  LM00041
 00316 TSX +0 07400 4 00010    00317 TXH +3 00000 0 00024    00320 TXH +3 00000 0 00024    00321 TXH +3 00000 0 00024
 00322 TXH +3 00000 0 00024    00323 TXH +3 00000 0 00024    00324 TXH +3 00000 0 00040    00325 TXH +3 00000 0 00031
 00326 TXH +3 00000 0 00054    00327 TXH +3 00000 0 00032
      QQ0013(03) EXECUTE SCLGPH.(X3,Y3,N3,S3,LS3,XMIN,DX,YMIN,DY)                   049  LM00042
 00330 TSX +0 07400 4 00010    00331 TXH +3 00000 0 00024    00332 TXH +3 00000 0 00024    00333 TXH +3 00000 0 00024
 00334 TXH +3 00000 0 00024    00335 TXH +3 00000 0 00024    00336 TXH +3 00000 0 00040    00337 TXH +3 00000 0 00031
 00340 TXH +3 00000 0 00054    00341 TXH +3 00000 0 00032
      QQ0013(02) EXECUTE SCLGPH.(X2,Y2,N2,S2,LS2,XMIN,DX,YMIN,DY)                   050  LM00043
 00342 TSX +0 07400 4 00010    00343 TXH +3 00000 0 00024    00344 TXH +3 00000 0 00024    00345 TXH +3 00000 0 00024
 00346 TXH +3 00000 0 00024    00347 TXH +3 00000 0 00024    00350 TXH +3 00000 0 00040    00351 TXH +3 00000 0 00031
 00352 TXH +3 00000 0 00054    00353 TXH +3 00000 0 00032
      QQ0013(01) EXECUTE SCLGPH.(X1,Y1,N1,S1,LS1,XMIN,DX,YMIN,DY)                   051  LM00044
 00354 TSX +0 07400 4 00010    00355 TXH +3 00000 0 00024    00356 TXH +3 00000 0 00024    00357 TXH +3 00000 0 00024
 00360 TXH +3 00000 0 00024    00361 TXH +3 00000 0 00024    00362 TXH +3 00000 0 00040    00363 TXH +3 00000 0 00031
 00364 TXH +3 00000 0 00054    00365 TXH +3 00000 0 00032
                 EXECUTE PLOT1.(XDIM+3.,0.,-3)                                      052  LM00045
 00366 CLS +0 50200 0 00073    00367 STO +0 60100 0 00542    00370 CLA +0 50000 0 00024    00371 FAD +0 30000 0 00100
 00372 STO +0 60100 0 00543    00373 TSX +0 07400 4 00007    00374 TXH +3 00000 0 00543    00375 TXH +3 00000 0 00070
 00376 TXH +3 00000 0 00542
                 EXECUTE PCTEXT.(0)                                                 053  LM00047
 00377 TSX +0 07400 4 00006    00400 TXH +3 00000 0 00070
      QQ0004     EXECUTE ERNOTE.(2,QQ0019(1))                                       054  LM00048
 00401 TSX +0 07400 4 00002    00402 TXH +3 00000 0 00072    00403 TXH +3 00000 0 00012
                 VECTOR VALUES QQ0018=777777777777K,$PICTUR$                        055  LM00049
 00012     -0 73123 6 36451    00013     -3 77777 7 77777
                 EQUIVALENCE (QQ0018,QQ0019)                                        056  LM00050
                 DIMENSION QQ0019(1)                                                057  LM00051
                 INTEGER NCX,NCY,N1                                                 058  LM00052
                 INTEGER N2, N3, N4                                                 059  LM00053
                 INTEGER N5, LS1, LS2                                               060  LM00054
                 INTEGER LS3, LS4, LS5                                              061  LM00055
                 INTEGER NUMP.,N,NN,M,MINMAX.,ND                                    062  LM00056
                 INTEGER K                                                          063  LM00057
                 END OF FUNCTION                                                    064  LM00058
 00404 TSX +0 07400 4 00003    00405 TXH +3 00000 0 00000    00406 SXD -0 63400 1 00405    00407 SXA +0 63400 4 00536
 00410 CLA +0 50000 4 00001    00411 STO +0 60100 0 00233    00412 STO +0 60100 0 00245    00413 STA +0 62100 0 00370
 00414 CLA +0 50000 4 00002    00415 STO +0 60100 0 00261    00416 STO +0 60100 0 00273    00417 CLA +0 50000 4 00003
 00420 STO +0 60100 0 00243    00421 CLA +0 50000 4 00004    00422 STO +0 60100 0 00244    00423 CLA +0 50000 4 00005
 00424 STO +0 60100 0 00271    00425 CLA +0 50000 4 00006    00426 STO +0 60100 0 00272    00427 CLA +0 50000 4 00007
 00430 STO +0 60100 0 00212    00431 STO +0 60100 0 00355    00432 CLA +0 50000 4 00010    00433 STO +0 60100 0 00217
 00434 STO +0 60100 0 00356    00435 CLA +0 50000 4 00011    00436 STO +0 60100 0 00213    00437 STO +0 60100 0 00220
 00440 STO +0 60100 0 00357    00441 CLA +0 50000 4 00012    00442 STO +0 60100 0 00360    00443 CLA +0 50000 4 00013
 00444 STO +0 60100 0 00361    00445 CLA +0 50000 4 00014    00446 STO +0 60100 0 00200    00447 STO +0 60100 0 00343
 00450 CLA +0 50000 4 00015    00451 STO +0 60100 0 00205    00452 STO +0 60100 0 00344    00453 CLA +0 50000 4 00016
 00454 STO +0 60100 0 00201    00455 STO +0 60100 0 00206    00456 STO +0 60100 0 00345    00457 CLA +0 50000 4 00017
 00460 STO +0 60100 0 00346    00461 CLA +0 50000 4 00020    00462 STO +0 60100 0 00347    00463 CLA +0 50000 4 00021
 00464 STO +0 60100 0 00166    00465 STO +0 60100 0 00331    00466 CLA +0 50000 4 00022    00467 STO +0 60100 0 00173
 00470 STO +0 60100 0 00332    00471 CLA +0 50000 4 00023    00472 STO +0 60100 0 00167    00473 STO +0 60100 0 00174
 00474 STO +0 60100 0 00333    00475 CLA +0 50000 4 00024    00476 STO +0 60100 0 00334    00477 CLA +0 50000 4 00025
 00500 STO +0 60100 0 00335    00501 CLA +0 50000 4 00026    00502 STO +0 60100 0 00154    00503 STO +0 60100 0 00317
 00504 CLA +0 50000 4 00027    00505 STO +0 60100 0 00161    00506 STO +0 60100 0 00320    00507 CLA +0 50000 4 00030
 00510 STO +0 60100 0 00155    00511 STO +0 60100 0 00162    00512 STO +0 60100 0 00321    00513 CLA +0 50000 4 00031
 00514 STO +0 60100 0 00322    00515 CLA +0 50000 4 00032    00516 STO +0 60100 0 00323    00517 CLA +0 50000 4 00033
 00520 STO +0 60100 0 00142    00521 STO +0 60100 0 00305    00522 CLA +0 50000 4 00034    00523 STO +0 60100 0 00147
 00524 STO +0 60100 0 00306    00525 CLA +0 50000 4 00035    00526 STO +0 60100 0 00143    00527 STO +0 60100 0 00150
 00530 STO +0 60100 0 00307    00531 CLA +0 50000 4 00036    00532 STO +0 60100 0 00310    00533 CLA +0 50000 4 00037
 00534 STO +0 60100 0 00311    00535 TRA +0 02000 2 00001    00536 AXT +0 77400 4 00000    00537 LXA +0 53400 2 00405
 00540 LXD -0 53400 1 00405    00541 TRA +0 02000 4 00001


 GRAPH   BCD 01/29/68 1552.4    1707         00000
1     MAD PROGRAM LISTING ... ... ...                 FILE   GRAPH   MAD            01/29/68    1540.6
-
                         GRAPH                                                                         LM00001
                  EXTERNAL FUNCTION (X,Y,NN,S,LS)                                                 *001 LM00002
                  ENTRY TO GRAPH.                                                                 *002 LM00003
                  INSERT FILE .XR.                                                                *003 LM00004
                  DEFINE UNARY OPERATOR .XR., PRECIDENCE SAME AS -                                *004 LM00001
                  MODE STRUCTURE .XR.1 TO 1                                                       *005 LM00002
             JMP      *+2,MQ,*+1                                                                  *006 LM00003
             JMP      *+2,AC,*+3                                                                  *007 LM00004
             JMP      *+7,BT,*+9                                                                  *008 LM00005
             JMP      *+2,BT,*+10                                                                 *009 LM00006
             CLA      B                                                                           *010 LM00007
             ALS      15                                                                          *011 LM00008
             STT      LOC+1                                                                       *012 LM00009
             PXA      0,0                                                                         *013 LM00010
             OUT      AC                                                                          *014 LM00011
             XCA                                                                                  *015 LM00012
             JMP      *-5                                                                         *016 LM00013
             STQ      T                                                                           *017 LM00014
             JMP      *-8                                                                         *018 LM00015
             STO      T                                                                           *019 LM00016
             JMP      *-10                                                                        *020 LM00017
             END                                                                                  *021 LM00018
                  EQUIVALENCE (ANN,NNN)                                                           *022 LM00005
                  NNN=NN                                                                          *023 LM00006
                  LLS=LS                                                                          *024 LM00007
                         CHECK THAT NUMBER OF ARGUMENTS =5.                                            LM00008
                  EXECUTE NUMP.(-3,N,.XR.4)                                                       *025 LM00009
                  WHENEVER N.E.5, TRANSFER TO QQ0005                                              *026 LM00010
                  EXECUTE ERNOTE.(2,QQ0007(1))                                                    *027 LM00011
                  VECTOR VALUES QQ0006=777777777777K,$GRAPH $                                     *028 LM00012
                  EQUIVALENCE (QQ0006,QQ0007)                                                     *029 LM00013
                  DIMENSION QQ0007(1)                                                             *030 LM00014
                         CALL GRAPH1 WITH I=2 TO SIGNAL THAT SCALING IS                                LM00015
                         UNNECESSARY.                                                                  LM00016
      QQ0005      EXECUTE GRAPH1.(X,Y,NNN,S,LLS,0.,1.,0.,1.,2)                                    *031 LM00017
                  FUNCTION RETURN                                                                 *032 LM00018
                  INTEGER NNN,NN,LLS,LS,NUMP.,N                                                   *033 LM00019
                  END OF FUNCTION                                                                 *034 LM00020
                                               MODE STRUCTURE .XR.1 TO 1      005  LM00002
 (THE NUMERIC FORM OF THE OPERATOR-MODE ARGUMENT IS    11101 )
1MAD PROGRAM,TYPE NOV 1963      (ALL NUMBERS ARE OCTAL)
0TOTAL LOCATIONS   00117 TRANSFER VECTOR LENGTH  00004 PROGRAM BEGINS    00023
0 PROGRAM IS AN EXTERNAL FUNCTION.   THE FOLLOWING ARE ENTRIES
      GRAPH  00024   0
0VARIABLE STORAGE (A=ARRAY,C=COMMON,E=ERASABLE,DIGIT=MODE)
      ANN    00005   0        NNN    00005   1        QQ0005 00010   4        QQ0006 00007 A 1        QQ0007 00007 A 0
      LLS    00011   1        N      00012   1
0FUNCTION DICTIONARY
      ERNOTE 00000   0        EXIT   00001   0        GRAPH1 00002   0        NUMP   00003   1
0ABSOLUTE CONSTANTS
 00021 +201400000000     00013 +000000000000     00015 +000000000002     00020 +000000000005     00016 +000000000003
 00017 +000000000004     00014 +000000000001     00022 +233000000000
0STATEMENT DICTIONARY
 00010 TXL -300067000054
0PROGRAM
                 EXTERNAL FUNCTION (X,Y,NN,S,LS)                                    001  LM00002
                 ENTRY TO GRAPH.                                                    002  LM00003
 00023 TRA +0 02000 0 00026    00024 SXA +0 63400 2 00071    00025 TSX +0 07400 2 00071
                 INSERT FILE .XR.                                                   003  LM00004
                 DEFINE UNARY OPERATOR .XR., PRECIDENCE SAME AS -                   004  LM00001
                 MODE STRUCTURE .XR.1 TO 1                                          005  LM00002
                 EQUIVALENCE (ANN,NNN)                                              022  LM00005
                 NNN=NN                                                             023  LM00006
 00026 CLA +0 50000 0 00024    00027 STO +0 60100 0 00005
                 LLS=LS                                                             024  LM00007
 00030 CLA +0 50000 0 00024    00031 STO +0 60100 0 00011
                 EXECUTE NUMP.(-3,N,.XR.4)                                          025  LM00009
 00032 CLA +0 50000 0 00017    00033 ALS +0 76700 0 00017    00034 STT +0 62500 0 00035    00035 PXA +0 75400 0 00000
 00036 STO +0 60100 0 00113    00037 CLS +0 50200 0 00016    00040 STO +0 60100 0 00114    00041 TSX +0 07400 4 00003
 00042 TXH +3 00000 0 00114    00043 TXH +3 00000 0 00012    00044 TXH +3 00000 0 00113
                 WHENEVER N.E.5, TRANSFER TO QQ0005                                 026  LM00010
 00045 CLA +0 50000 0 00012    00046 SUB +0 40200 0 00020    00047 TNZ -0 10000 0 00051    00050 TRA +0 02000 0 00010
                 EXECUTE ERNOTE.(2,QQ0007(1))                                       027  LM00011
 00051 TSX +0 07400 4 00000    00052 TXH +3 00000 0 00015    00053 TXH +3 00000 0 00006
                 VECTOR VALUES QQ0006=777777777777K,$GRAPH $                        028  LM00012
 00006     +2 75121 4 73060    00007     -3 77777 7 77777
                 EQUIVALENCE (QQ0006,QQ0007)                                        029  LM00013
                 DIMENSION QQ0007(1)                                                030  LM00014
      QQ0005     EXECUTE GRAPH1.(X,Y,NNN,S,LLS,0.,1.,0.,1.,2)                       031  LM00017
 00054 TSX +0 07400 4 00002    00055 TXH +3 00000 0 00024    00056 TXH +3 00000 0 00024    00057 TXH +3 00000 0 00005
 00060 TXH +3 00000 0 00024    00061 TXH +3 00000 0 00011    00062 TXH +3 00000 0 00013    00063 TXH +3 00000 0 00021
 00064 TXH +3 00000 0 00013    00065 TXH +3 00000 0 00021    00066 TXH +3 00000 0 00015
                 FUNCTION RETURN                                                    032  LM00018
 00067 TRA +0 02000 0 00107
                 INTEGER NNN,NN,LLS,LS,NUMP.,N                                      033  LM00019
                 END OF FUNCTION                                                    034  LM00020
 00070 TSX +0 07400 4 00001    00071 TXH +3 00000 0 00000    00072 SXD -0 63400 1 00071    00073 SXA +0 63400 4 00107
 00074 CLA +0 50000 4 00001    00075 STO +0 60100 0 00055    00076 CLA +0 50000 4 00002    00077 STO +0 60100 0 00056
 00100 CLA +0 50000 4 00003    00101 STA +0 62100 0 00026    00102 CLA +0 50000 4 00004    00103 STO +0 60100 0 00060
 00104 CLA +0 50000 4 00005    00105 STA +0 62100 0 00030    00106 TRA +0 02000 2 00001    00107 AXT +0 77400 4 00000
 00110 LXA +0 53400 2 00071    00111 LXD -0 53400 1 00071    00112 TRA +0 02000 4 00001


GRAPH1   BCD 01/29/68 1552.4    5112         00000
1     MAD PROGRAM LISTING ... ... ...                 FILE  GRAPH1   MAD            01/29/68    1549.2
-
                         GRAPH1                                                                        LM00001
                  EXTERNAL FUNCTION (X,Y,NN,S,LS,XMIN,DX,YMIN,DY,I)                               *001 LM00002
                  INSERT FILE .XR.                                                                *002 LM00003
                  DEFINE UNARY OPERATOR .XR., PRECIDENCE SAME AS -                                *003 LM00001
                  MODE STRUCTURE .XR.1 TO 1                                                       *004 LM00002
             JMP      *+2,MQ,*+1                                                                  *005 LM00003
             JMP      *+2,AC,*+3                                                                  *006 LM00004
             JMP      *+7,BT,*+9                                                                  *007 LM00005
             JMP      *+2,BT,*+10                                                                 *008 LM00006
             CLA      B                                                                           *009 LM00007
             ALS      15                                                                          *010 LM00008
             STT      LOC+1                                                                       *011 LM00009
             PXA      0,0                                                                         *012 LM00010
             OUT      AC                                                                          *013 LM00011
             XCA                                                                                  *014 LM00012
             JMP      *-5                                                                         *015 LM00013
             STQ      T                                                                           *016 LM00014
             JMP      *-8                                                                         *017 LM00015
             STO      T                                                                           *018 LM00016
             JMP      *-10                                                                        *019 LM00017
             END                                                                                  *020 LM00018
                  ENTRY TO GRAPH1.                                                                *021 LM00004
                         GRAPH1 IS CALLED BY SCLGPH WITH I=1 OR BY GRAPH                               LM00005
                         WITH I=2 AND XMIN,DX,YMIN,DY SET TO 0,1,0,                                    LM00006
                  EQUIVALENCE (AN,NNN)                                                            *022 LM00007
                  NNN=NN                                                                          *023 LM00008
                  LLS=LS                                                                          *024 LM00009
                  II=I                                                                            *025 LM00010
                         CHECK THAT NUMBER OF ARGUMENTS =10.                                           LM00011
                  EXECUTE NUMP.(-8,N,.XR.4)                                                       *026 LM00012
                  WHENEVER (N-10).E.0, TRANSFER TO QQ0005                                         *027 LM00013
                  EXECUTE ERNOTE.(2,QQ0007(1))                                                    *028 LM00014
                  VECTOR VALUES QQ0006=777777777777K,$GRAPH1$                                     *029 LM00015
                  EQUIVALENCE (QQ0006,QQ0007)                                                     *030 LM00016
                  DIMENSION QQ0007(1)                                                             *031 LM00017
                         DETERMINE WHICH END OF PLOT PEN IS NEAREST                                    LM00018
      QQ0005      N=.ABS.(NNN)                                                                    *032 LM00019
                  EXECUTE WHERE.(XN,YN)                                                           *033 LM00020
                  XJ=(X(1)-XMIN)/DX                                                               *034 LM00021
                  YJ=(Y(1)-YMIN)/DY                                                               *035 LM00022
                  D1=SQRT.((XJ-XN).P.2+(YJ-YN).P.2)                                               *036 LM00023
                  XJ=(X(N)-XMIN)/DX                                                               *037 LM00024
                  YJ=(Y(N)-YMIN)/DY                                                               *038 LM00025
                  DN=SQRT.((XJ-XN).P.2+(YJ-YN).P.2)                                               *039 LM00026
                  WHENEVER D1.G.DN, TRANSFER TO QQ0008                                            *040 LM00027
                         SET TO DRAW FROM LEFT TO RIGHT                                                LM00028
                  J=1                                                                             *041 LM00029
                  K=1                                                                             *042 LM00030
                  TRANSFER TO QQ0010                                                              *043 LM00031
                         SET TO DRAW FROM RIGHT TO LEFT                                                LM00032
      QQ0008      J=N                                                                             *044 LM00033
                  K=-1                                                                            *045 LM00034
                         PEN UP BETWEEN POINTS TEST                                                    LM00035
      QQ0010      WHENEVER NNN.GE.0, TRANSFER TO QQ0011                                           *046 LM00036
                         SET FOR PEN UP BETWEEN POINTS                                                 LM00037
                  I3=3                                                                            *047 LM00038
                  N1=-1                                                                           *048 LM00039
                  TRANSFER TO QQ0013                                                              *049 LM00040
                         SET FOR PEN DOWN BETWEEN POINTS                                               LM00041
      QQ0011      I3=2                                                                            *050 LM00042
                  N1=-2                                                                           *051 LM00043
      QQ0013      XJ=(X(J)-XMIN)/DX                                                               *052 LM00044
                  YJ=(Y(J)-YMIN)/DY                                                               *053 LM00045
                         MOVE TO 1ST POINT WITH PEN UP                                                 LM00046
                  EXECUTE PLOT1.(XJ,YJ,3)                                                         *054 LM00047
                  THROUGH QQ0014, FOR III=1,1,III.G.N                                             *055 LM00048
                         TEST IF COORDINATES MUST BE SCALED                                            LM00049
                  TRANSFER TO QQ0016(II)                                                          *056 LM00050
      QQ0016(01)  XJ=(X(J)-XMIN)/DX                                                               *057 LM00051
                  YJ=(Y(J)-YMIN)/DY                                                               *058 LM00052
                  TRANSFER TO QQ0018                                                              *059 LM00053
      QQ0016(02)  XJ=X(J)                                                                         *060 LM00054
                  YJ=Y(J)                                                                         *061 LM00055
                         TEST IF SYMBOL PLOT                                                           LM00056
      QQ0018      WHENEVER (S).E.0, TRANSFER TO QQ0020                                            *062 LM00057
                         IF SYMBOL PLOT DRAW SYMBOL                                                    LM00058
                  EXECUTE SYMBL5.(XJ,YJ,S,LLS,0,N1)                                               *063 LM00059
                  TRANSFER TO QQ0014                                                              *064 LM00060
                         MOVE TO NEXT POINT                                                            LM00061
      QQ0020      EXECUTE PLOT1.(XJ,YJ,I3)                                                        *065 LM00062
                  WHENEVER NN.GE.0, TRANSFER TO QQ0014                                            *066 LM00063
                         IF POINT PLOT DROP PEN AT POINT                                               LM00064
                  EXECUTE PLOT1.(XJ,YJ,2)                                                         *067 LM00065
      QQ0014      J=J+K                                                                           *068 LM00066
                  M=J-K                                                                           *069 LM00067
                  XJ=(X(M)-XMIN)/DX                                                               *070 LM00068
                  YJ=(Y(M)-YMIN)/DY                                                               *071 LM00069
                         LIFT PEN AT LAST POINT                                                        LM00070
                  EXECUTE PLOT1.(XJ,YJ,3)                                                         *072 LM00071
                  FUNCTION RETURN                                                                 *073 LM00072
                  INTEGER NNN,NN,LLS,LS,II,I                                                      *074 LM00073
                  INTEGER NUMP.,N,J,K,I3,N1                                                       *075 LM00074
                  INTEGER III,M                                                                   *076 LM00075
                  END OF FUNCTION                                                                 *077 LM00076
                                               MODE STRUCTURE .XR.1 TO 1      004  LM00002
 (THE NUMERIC FORM OF THE OPERATOR-MODE ARGUMENT IS    11101 )
1MAD PROGRAM,TYPE NOV 1963      (ALL NUMBERS ARE OCTAL)
0TOTAL LOCATIONS   00462 TRANSFER VECTOR LENGTH  00010 PROGRAM BEGINS    00056
0 PROGRAM IS AN EXTERNAL FUNCTION.   THE FOLLOWING ARE ENTRIES
      GRAPH1 00057   0
0VARIABLE STORAGE (A=ARRAY,C=COMMON,E=ERASABLE,DIGIT=MODE)
      AN     00011   0        J      00034   1        N      00041   1        QQ0011 00017   4        QQ0020 00026   4
      D1     00027   0        K      00035   1        QQ0005 00014   4        QQ0013 00020   4        XJ     00042   0
      DN     00030   0        LLS    00036   1        QQ0006 00013 A 1        QQ0014 00021   4        XN     00043   0
      I3     00031   1        M      00037   1        QQ0007 00013 A 0        QQ0016 00024 A 4        YJ     00044   0
      III    00032   1        N1     00040   1        QQ0008 00015   4        QQ0018 00025   4        YN     00045   0
      II     00033   1        NNN    00011   1        QQ0010 00016   4
0FUNCTION DICTIONARY
      .01301 00000   0        ERNOTE 00001   0        EXIT   00002   0        NUMP   00003   1        PLOT1  00004   0
      SQRT   00005   0        SYMBL5 00006   0        WHERE  00007   0
0ABSOLUTE CONSTANTS
 00051 +000000000003     00050 +000000000002     00046 +000000000000     00054 +000000000012     00053 +000000000010
 00052 +000000000004     00047 +000000000001     00055 +233000000000
0STATEMENT DICTIONARY
 00014 TXL -300115000112       00015 TXL -300211000207       00016 TXL -300220000213       00017 TXL -300227000225
 00020 TXL -300236000231       00021 TXL -300341000335       00022 TXL -300277000274       00023 TXL -300267000262
 00025 TXL -300310000301       00026 TXL -300324000320
0PROGRAM
                 EXTERNAL FUNCTION (X,Y,NN,S,LS,XMIN,DX,YMIN,DY,I)                  001  LM00002
                 INSERT FILE .XR.                                                   002  LM00003
                 DEFINE UNARY OPERATOR .XR., PRECIDENCE SAME AS -                   003  LM00001
                 MODE STRUCTURE .XR.1 TO 1                                          004  LM00002
                 ENTRY TO GRAPH1.                                                   021  LM00004
 00056 TRA +0 02000 0 00061    00057 SXA +0 63400 2 00364    00060 TSX +0 07400 2 00364
                 EQUIVALENCE (AN,NNN)                                               022  LM00007
                 NNN=NN                                                             023  LM00008
 00061 CLA +0 50000 0 00023    00062 STO +0 60100 0 00011
                 LLS=LS                                                             024  LM00009
 00063 CLA +0 50000 0 00023    00064 STO +0 60100 0 00036
                 II=I                                                               025  LM00010
 00065 CLA +0 50000 0 00023    00066 STO +0 60100 0 00033
                 EXECUTE NUMP.(-8,N,.XR.4)                                          026  LM00012
 00067 CLA +0 50000 0 00052    00070 ALS +0 76700 0 00017    00071 STT +0 62500 0 00072    00072 PXA +0 75400 0 00000
 00073 STO +0 60100 0 00456    00074 CLS +0 50200 0 00053    00075 STO +0 60100 0 00457    00076 TSX +0 07400 4 00003
 00077 TXH +3 00000 0 00457    00100 TXH +3 00000 0 00041    00101 TXH +3 00000 0 00456
                 WHENEVER (N-10).E.0, TRANSFER TO QQ0005                            027  LM00013
 00102 CLA +0 50000 0 00041    00103 SUB +0 40200 0 00054    00104 SUB +0 40200 0 00046    00105 TNZ -0 10000 0 00107
 00106 TRA +0 02000 0 00014
                 EXECUTE ERNOTE.(2,QQ0007(1))                                       028  LM00014
 00107 TSX +0 07400 4 00001    00110 TXH +3 00000 0 00050    00111 TXH +3 00000 0 00012
                 VECTOR VALUES QQ0006=777777777777K,$GRAPH1$                        029  LM00015
 00012     +2 75121 4 73001    00013     -3 77777 7 77777
                 EQUIVALENCE (QQ0006,QQ0007)                                        030  LM00016
                 DIMENSION QQ0007(1)                                                031  LM00017
      QQ0005     N=.ABS.(NNN)                                                       032  LM00019
 00112 CLA +0 50000 0 00011    00113 SSP +0 76000 0 00003    00114 STO +0 60100 0 00041
                 EXECUTE WHERE.(XN,YN)                                              033  LM00020
 00115 TSX +0 07400 4 00007    00116 TXH +3 00000 0 00043    00117 TXH +3 00000 0 00045
                 XJ=(X(1)-XMIN)/DX                                                  034  LM00021
 00120 CLA +0 50000 0 00022    00121 FSB +0 30200 0 00023    00122 FDP +0 24100 0 00023    00123 STQ -0 60000 0 00042
                 YJ=(Y(1)-YMIN)/DY                                                  035  LM00022
 00124 CLA +0 50000 0 00022    00125 FSB +0 30200 0 00023    00126 FDP +0 24100 0 00023    00127 STQ -0 60000 0 00044
                 D1=SQRT.((XJ-XN).P.2+(YJ-YN).P.2)                                  036  LM00023
 00130 CLA +0 50000 0 00044    00131 FSB +0 30200 0 00045    00132 LDQ +0 56000 0 00050    00133 TSX +0 07400 4 00000
 00134 STO +0 60100 0 00457    00135 CLA +0 50000 0 00042    00136 FSB +0 30200 0 00043    00137 LDQ +0 56000 0 00050
 00140 TSX +0 07400 4 00000    00141 FAD +0 30000 0 00457    00142 STO +0 60100 0 00457    00143 TSX +0 07400 4 00005
 00144 TXH +3 00000 0 00457    00145 STO +0 60100 0 00027
                 XJ=(X(N)-XMIN)/DX                                                  037  LM00024
 00146 LXA +0 53400 1 00041    00147 CLA +0 50000 1 00023    00150 FSB +0 30200 0 00023    00151 FDP +0 24100 0 00023
 00152 STQ -0 60000 0 00042
                 YJ=(Y(N)-YMIN)/DY                                                  038  LM00025
 00153 CLA +0 50000 1 00023    00154 FSB +0 30200 0 00023    00155 FDP +0 24100 0 00023    00156 STQ -0 60000 0 00044
                 DN=SQRT.((XJ-XN).P.2+(YJ-YN).P.2)                                  039  LM00026
 00157 CLA +0 50000 0 00044    00160 FSB +0 30200 0 00045    00161 LDQ +0 56000 0 00050    00162 TSX +0 07400 4 00000
 00163 STO +0 60100 0 00457    00164 CLA +0 50000 0 00042    00165 FSB +0 30200 0 00043    00166 LDQ +0 56000 0 00050
 00167 TSX +0 07400 4 00000    00170 FAD +0 30000 0 00457    00171 STO +0 60100 0 00457    00172 TSX +0 07400 4 00005
 00173 TXH +3 00000 0 00457    00174 STO +0 60100 0 00030
                 W'R D1.G.DN, T'O QQ0008                                            040  LM00027
 00175 CLA +0 50000 0 00027    00176 SUB +0 40200 0 00030    00177 TZE +0 10000 0 00202    00200 TMI -0 12000 0 00202
 00201 TRA +0 02000 0 00015
                 J=1                                                                041  LM00029
 00202 CLA +0 50000 0 00047    00203 STO +0 60100 0 00034
                 K=1                                                                042  LM00030
 00204 CLA +0 50000 0 00047    00205 STO +0 60100 0 00035
                 TRANSFER TO QQ0010                                                 043  LM00031
 00206 TRA +0 02000 0 00016
      QQ0008     J=N                                                                044  LM00033
 00207 CLA +0 50000 0 00041    00210 STO +0 60100 0 00034
                 K=-1                                                               045  LM00034
 00211 CLS +0 50200 0 00047    00212 STO +0 60100 0 00035
      QQ0010     W'R NNN.GE.0, T'O QQ0011                                           046  LM00036
 00213 CLA +0 50000 0 00011    00214 SUB +0 40200 0 00046    00215 TZE +0 10000 0 00217    00216 TMI -0 12000 0 00220
 00217 TRA +0 02000 0 00017
                 I3=3                                                               047  LM00038
 00220 CLA +0 50000 0 00051    00221 STO +0 60100 0 00031
                 N1=-1                                                              048  LM00039
 00222 CLS +0 50200 0 00047    00223 STO +0 60100 0 00040
                 TRANSFER TO QQ0013                                                 049  LM00040
 00224 TRA +0 02000 0 00020
      QQ0011     I3=2                                                               050  LM00042
 00225 CLA +0 50000 0 00050    00226 STO +0 60100 0 00031
                 N1=-2                                                              051  LM00043
 00227 CLS +0 50200 0 00050    00230 STO +0 60100 0 00040
      QQ0013     XJ=(X(J)-XMIN)/DX                                                  052  LM00044
 00231 LXA +0 53400 1 00034    00232 CLA +0 50000 1 00023    00233 FSB +0 30200 0 00023    00234 FDP +0 24100 0 00023
 00235 STQ -0 60000 0 00042
                 YJ=(Y(J)-YMIN)/DY                                                  053  LM00045
 00236 CLA +0 50000 1 00023    00237 FSB +0 30200 0 00023    00240 FDP +0 24100 0 00023    00241 STQ -0 60000 0 00044
                 EXECUTE PLOT1.(XJ,YJ,3)                                            054  LM00047
 00242 TSX +0 07400 4 00004    00243 TXH +3 00000 0 00042    00244 TXH +3 00000 0 00044    00245 TXH +3 00000 0 00051
                 THROUGH QQ0014, FOR III=1,1,III.G.N                                055  LM00048
 00246 CLA +0 50000 0 00047    00247 STO +0 60100 0 00032    00250 TRA +0 02000 0 00254    00251 CLA +0 50000 0 00032
 00252 ADD +0 40000 0 00047    00253 STO +0 60100 0 00032    00254 CLA +0 50000 0 00032    00255 SUB +0 40200 0 00041
 00256 TZE +0 10000 0 00260    00257 TPL +0 12000 0 00341
                 TRANSFER TO QQ0016(II)                                             056  LM00050
 00260 LXA +0 53400 2 00033    00261 TRA +0 02000 2 00024
      QQ0016(01) XJ=(X(J)-XMIN)/DX                                                  057  LM00051
 00262 LXA +0 53400 1 00034    00263 CLA +0 50000 1 00023    00264 FSB +0 30200 0 00023    00265 FDP +0 24100 0 00023
 00266 STQ -0 60000 0 00042
                 YJ=(Y(J)-YMIN)/DY                                                  058  LM00052
 00267 CLA +0 50000 1 00023    00270 FSB +0 30200 0 00023    00271 FDP +0 24100 0 00023    00272 STQ -0 60000 0 00044
                 TRANSFER TO QQ0018                                                 059  LM00053
 00273 TRA +0 02000 0 00025
      QQ0016(02) XJ=X(J)                                                            060  LM00054
 00274 LXA +0 53400 2 00034    00275 CLA +0 50000 2 00023    00276 STO +0 60100 0 00042
                 YJ=Y(J)                                                            061  LM00055
 00277 CLA +0 50000 2 00023    00300 STO +0 60100 0 00044
      QQ0018     WHENEVER (S).E.0, TRANSFER TO QQ0020                               062  LM00057
 00301 CLA +0 50000 0 00046    00302 ORA -0 50100 0 00055    00303 FAD +0 30000 0 00055    00304 CHS +0 76000 0 00002
 00305 ADD +0 40000 0 00023    00306 TNZ -0 10000 0 00310    00307 TRA +0 02000 0 00026
                 EXECUTE SYMBL5.(XJ,YJ,S,LLS,0,N1)                                  063  LM00059
 00310 TSX +0 07400 4 00006    00311 TXH +3 00000 0 00042    00312 TXH +3 00000 0 00044    00313 TXH +3 00000 0 00023
 00314 TXH +3 00000 0 00036    00315 TXH +3 00000 0 00046    00316 TXH +3 00000 0 00040
                 TRANSFER TO QQ0014                                                 064  LM00060
 00317 TRA +0 02000 0 00021
      QQ0020     EXECUTE PLOT1.(XJ,YJ,I3)                                           065  LM00062
 00320 TSX +0 07400 4 00004    00321 TXH +3 00000 0 00042    00322 TXH +3 00000 0 00044    00323 TXH +3 00000 0 00031
                 W'R NN.GE.0, T'O QQ0014                                            066  LM00063
 00324 CLA +0 50000 0 00023    00325 SUB +0 40200 0 00046    00326 TZE +0 10000 0 00330    00327 TMI -0 12000 0 00331
 00330 TRA +0 02000 0 00021
                 EXECUTE PLOT1.(XJ,YJ,2)                                            067  LM00065
 00331 TSX +0 07400 4 00004    00332 TXH +3 00000 0 00042    00333 TXH +3 00000 0 00044    00334 TXH +3 00000 0 00050
      QQ0014     J=J+K                                                              068  LM00066
 00335 CLA +0 50000 0 00034    00336 ADD +0 40000 0 00035    00337 STO +0 60100 0 00034    00340 TRA +0 02000 0 00251
                 M=J-K                                                              069  LM00067
 00341 CLA +0 50000 0 00034    00342 SUB +0 40200 0 00035    00343 STO +0 60100 0 00037
                 XJ=(X(M)-XMIN)/DX                                                  070  LM00068
 00344 LXA +0 53400 1 00037    00345 CLA +0 50000 1 00023    00346 FSB +0 30200 0 00023    00347 FDP +0 24100 0 00023
 00350 STQ -0 60000 0 00042
                 YJ=(Y(M)-YMIN)/DY                                                  071  LM00069
 00351 CLA +0 50000 1 00023    00352 FSB +0 30200 0 00023    00353 FDP +0 24100 0 00023    00354 STQ -0 60000 0 00044
                 EXECUTE PLOT1.(XJ,YJ,3)                                            072  LM00071
 00355 TSX +0 07400 4 00004    00356 TXH +3 00000 0 00042    00357 TXH +3 00000 0 00044    00360 TXH +3 00000 0 00051
                 FUNCTION RETURN                                                    073  LM00072
 00361 TRA +0 02000 0 00452
                 INTEGER NNN,NN,LLS,LS,II,I                                         074  LM00073
                 INTEGER NUMP.,N,J,K,I3,N1                                          075  LM00074
                 INTEGER III,M                                                      076  LM00075
                 END OF FUNCTION                                                    077  LM00076
 00362 TSX +0 07400 4 00002    00363 PZE +0 00000 0 00001    00364 TXH +3 00000 0 00000    00365 SXD -0 63400 1 00364
 00366 SXA +0 63400 4 00452    00367 CLA +0 50000 4 00001    00370 STA +0 62100 0 00147    00371 STA +0 62100 0 00232
 00372 STA +0 62100 0 00263    00373 STA +0 62100 0 00275    00374 STA +0 62100 0 00345    00375 SUB +0 40200 0 00363
 00376 STA +0 62100 0 00120    00377 CLA +0 50000 4 00002    00400 STA +0 62100 0 00153    00401 STA +0 62100 0 00236
 00402 STA +0 62100 0 00267    00403 STA +0 62100 0 00277    00404 STA +0 62100 0 00351    00405 SUB +0 40200 0 00363
 00406 STA +0 62100 0 00124    00407 CLA +0 50000 4 00003    00410 STA +0 62100 0 00061    00411 STA +0 62100 0 00324
 00412 CLA +0 50000 4 00004    00413 STA +0 62100 0 00305    00414 STO +0 60100 0 00313    00415 CLA +0 50000 4 00005
 00416 STA +0 62100 0 00063    00417 CLA +0 50000 4 00006    00420 STA +0 62100 0 00121    00421 STA +0 62100 0 00150
 00422 STA +0 62100 0 00233    00423 STA +0 62100 0 00264    00424 STA +0 62100 0 00346    00425 CLA +0 50000 4 00007
 00426 STA +0 62100 0 00122    00427 STA +0 62100 0 00151    00430 STA +0 62100 0 00234    00431 STA +0 62100 0 00265
 00432 STA +0 62100 0 00347    00433 CLA +0 50000 4 00010    00434 STA +0 62100 0 00125    00435 STA +0 62100 0 00154
 00436 STA +0 62100 0 00237    00437 STA +0 62100 0 00270    00440 STA +0 62100 0 00352    00441 CLA +0 50000 4 00011
 00442 STA +0 62100 0 00126    00443 STA +0 62100 0 00155    00444 STA +0 62100 0 00240    00445 STA +0 62100 0 00271
 00446 STA +0 62100 0 00353    00447 CLA +0 50000 4 00012    00450 STA +0 62100 0 00065    00451 TRA +0 02000 2 00001
 00452 AXT +0 77400 4 00000    00453 LXA +0 53400 2 00364    00454 LXD -0 53400 1 00364    00455 TRA +0 02000 4 00001


 DXDY1   BCD 01/29/68 1552.4    6429         00000
1     MAD PROGRAM LISTING ... ... ...                 FILE   DXDY1   MAD            01/29/68    1542.7
-
                  EXTERNAL FUNCTION (X,N,S,XMIN,DX,ND,K)                                          *001 LM00001
                  INSERT FILE .XR.                                                                *002 LM00002
                  DEFINE UNARY OPERATOR .XR., PRECIDENCE SAME AS -                                *003 LM00001
                  MODE STRUCTURE .XR.1 TO 1                                                       *004 LM00002
             JMP      *+2,MQ,*+1                                                                  *005 LM00003
             JMP      *+2,AC,*+3                                                                  *006 LM00004
             JMP      *+7,BT,*+9                                                                  *007 LM00005
             JMP      *+2,BT,*+10                                                                 *008 LM00006
             CLA      B                                                                           *009 LM00007
             ALS      15                                                                          *010 LM00008
             STT      LOC+1                                                                       *011 LM00009
             PXA      0,0                                                                         *012 LM00010
             OUT      AC                                                                          *013 LM00011
             XCA                                                                                  *014 LM00012
             JMP      *-5                                                                         *015 LM00013
             STQ      T                                                                           *016 LM00014
             JMP      *-8                                                                         *017 LM00015
             STO      T                                                                           *018 LM00016
             JMP      *-10                                                                        *019 LM00017
             END                                                                                  *020 LM00018
                  ENTRY TO DXDY1.                                                                 *021 LM00003
                         CHECK THAT NUMBER OF ARGUMENTS = 7.                                           LM00004
                         DXDY1                                                                         LM00005
                  EQUIVALENCE (NN,AN)                                                             *022 LM00006
                  NN=N                                                                            *023 LM00007
                  EXECUTE NUMP.(6,M,.XR.4)                                                        *024 LM00008
                  WHENEVER M.E.7, TRANSFER TO QQ0005                                              *025 LM00009
                  EXECUTE ERNOTE.(2,QQ0007(1))                                                    *026 LM00010
                  VECTOR VALUES QQ0006=777777777777K,$DXDY1 $                                     *027 LM00011
                  EQUIVALENCE (QQ0006,QQ0007)                                                     *028 LM00012
                  DIMENSION QQ0007(1)                                                             *029 LM00013
      QQ0005      EXECUTE MINMAX.(X,NN,XMIN,XMAX)                                                 *030 LM00014
                  NS=0                                                                            *031 LM00015
      QQ0008      K=0                                                                             *032 LM00016
                  ND=0                                                                            *033 LM00017
                  DX=(XMAX-XMIN)/S                                                                *034 LM00018
                         CHECK THAT DX NOT = 0.                                                        LM00019
                  WHENEVER DX.NE.0, TRANSFER TO QQ0010                                            *035 LM00020
                  DX=1.                                                                           *036 LM00021
                  EXECUTE ERNOTE.(4,0)                                                            *037 LM00022
                  FUNCTION RETURN                                                                 *038 LM00023
                         CONVERT DX TO RANGE .91 TO 9.1                                                LM00024
      QQ0010      WHENEVER DX.GE..91, TRANSFER TO QQ0012                                          *039 LM00025
                  DX=DX*10.                                                                       *040 LM00026
                  K=K+1                                                                           *041 LM00027
                  TRANSFER TO QQ0010                                                              *042 LM00028
      QQ0012      WHENEVER DX.L.9.1, TRANSFER TO QQ0015                                           *043 LM00029
                  DX=DX/10.                                                                       *044 LM00030
                  K=K-1                                                                           *045 LM00031
                  TRANSFER TO QQ0012                                                              *046 LM00032
                         ROUND DX UP TO NEAREST 1/10 TH.                                               LM00033
                         IF DX LESS THAN 2.2 USE DX TO NEAREST HIGHER 1/10                             LM00034
                         IF DX LESS THAN 5.1 USE DX TO NEAREST HIGHER 1/2                              LM00035
                         OTHERWISE USE DX ROUNDED UP TO NEAREST INTEGER.                               LM00036
      QQ0015      IDX=DX*10.+.9                                                                   *047 LM00037
                  WHENEVER  IDX.GE.22, TRANSFER TO QQ0018                                         *048 LM00038
                  DX=IDX                                                                          *049 LM00039
      QQ0019      ND=1                                                                            *050 LM00040
                  TRANSFER TO QQ0020                                                              *051 LM00041
      QQ0018      JDX=DX+.09                                                                      *052 LM00042
                  JDX=JDX*10                                                                      *053 LM00043
                  KD=IDX-JDX                                                                      *054 LM00044
                  WHENEVER (KD).G.0, TRANSFER TO QQ0022                                           *055 LM00045
                  DX=IDX                                                                          *056 LM00046
                  TRANSFER TO QQ0020                                                              *057 LM00047
      QQ0022      WHENEVER KD.G.5, TRANSFER TO QQ0024                                             *058 LM00048
                  WHENEVER IDX.L.51, TRANSFER TO QQ0025                                           *059 LM00049
                  TRANSFER TO QQ0024                                                              *060 LM00050
      QQ0025      DX=(JDX+5)                                                                      *061 LM00051
                  TRANSFER TO QQ0019                                                              *062 LM00052
      QQ0024      DX=JDX+10                                                                       *063 LM00053
                         RETURN DX TO ORIGINAL RANGE                                                   LM00054
      QQ0020      DX=DX*10..P.(-K-1)                                                              *064 LM00055
                  WHENEVER NS.NE.0, TRANSFER TO QQ0027                                            *065 LM00056
                  NS=1                                                                            *066 LM00057
                         DETERMINE APPROPRIATE XMIN AND REPEAT TO ADJUST DX                            LM00058
                         FOR NEW XMIN IF NECESSARY.                                                    LM00059
                  EP=.00000001*10..P.K                                                            *067 LM00060
                  WHENEVER (XMIN).L.0, TRANSFER TO QQ0028                                         *068 LM00061
                  WHENEVER (XMIN).G.0, TRANSFER TO QQ0029                                         *069 LM00062
                  TRANSFER TO QQ0027                                                              *070 LM00063
      QQ0028      IV=XMIN*10..P.K-.9+EP                                                           *071 LM00064
                  TRANSFER TO QQ0030                                                              *072 LM00065
      QQ0029      IV=XMIN*10..P.K+EP                                                              *073 LM00066
      QQ0030      V=IV                                                                            *074 LM00067
                  XMIN=V*10..P.(-K)                                                               *075 LM00068
                  TRANSFER TO QQ0008                                                              *076 LM00069
      QQ0027      WHENEVER K.GE.0, TRANSFER TO QQ0032                                             *077 LM00070
                  ND=0                                                                            *078 LM00071
                  TRANSFER TO QQ0033                                                              *079 LM00072
                         ADJUST K AND ND APPROPRIATELY.                                                LM00073
      QQ0032      ND=ND+K                                                                         *080 LM00074
      QQ0033      WHENEVER (K-5).L.0, TRANSFER TO QQ0034                                          *081 LM00075
                  WHENEVER (K-5).G.0, TRANSFER TO QQ0035                                          *082 LM00076
                  TRANSFER TO QQ0036                                                              *083 LM00077
      QQ0034      WHENEVER (K+3).L.0, TRANSFER TO QQ0037                                          *084 LM00078
                  TRANSFER TO QQ0036                                                              *085 LM00079
      QQ0035      K=-K+5                                                                          *086 LM00080
                  ND=ND+K                                                                         *087 LM00081
                  TRANSFER TO QQ0039                                                              *088 LM00082
      QQ0037      K=-K-3                                                                          *089 LM00083
                  TRANSFER TO QQ0039                                                              *090 LM00084
      QQ0036      K=0                                                                             *091 LM00085
      QQ0039      FUNCTION RETURN                                                                 *092 LM00086
                  INTEGER NN,N,MAD,NUMP.,M,MINMAX.                                                *093 LM00087
                  INTEGER NS,K,ND,IDX,JDX,KD                                                      *094 LM00088
                  INTEGER IV                                                                      *095 LM00089
                  END OF FUNCTION                                                                 *096 LM00090
                                               MODE STRUCTURE .XR.1 TO 1      004  LM00002
 (THE NUMERIC FORM OF THE OPERATOR-MODE ARGUMENT IS    11101 )
1MAD PROGRAM,TYPE NOV 1963      (ALL NUMBERS ARE OCTAL)
0TOTAL LOCATIONS   00601 TRANSFER VECTOR LENGTH  00005 PROGRAM BEGINS    00073
0 PROGRAM IS AN EXTERNAL FUNCTION.   THE FOLLOWING ARE ENTRIES
      DXDY1  00074   0
0VARIABLE STORAGE (A=ARRAY,C=COMMON,E=ERASABLE,DIGIT=MODE)
      AN     00006   0        NN     00006   1        QQ0012 00014   4        QQ0025 00023   4        QQ0034 00032   4
      EP     00037   0        NS     00045   1        QQ0015 00015   4        QQ0027 00024   4        QQ0035 00033   4
      IDX    00040   1        QQ0005 00011   4        QQ0018 00016   4        QQ0028 00025   4        QQ0036 00034   4
      IV     00041   1        QQ0006 00010 A 1        QQ0019 00017   4        QQ0029 00026   4        QQ0037 00035   4
      JDX    00042   1        QQ0007 00010 A 0        QQ0020 00020   4        QQ0030 00027   4        QQ0039 00036   4
      KD     00043   1        QQ0008 00012   4        QQ0022 00021   4        QQ0032 00030   4        V      00046   0
      M      00044   1        QQ0010 00013   4        QQ0024 00022   4        QQ0033 00031   4        XMAX   00047   0
0FUNCTION DICTIONARY
      .01301 00000   0        ERNOTE 00001   0        EXIT   00002   0        MINMAX 00003   1        NUMP   00004   1
0ABSOLUTE CONSTANTS
 00053 +000000000003     00063 +146527461670     00062 +000000000063     00055 +000000000005     00060 +000000000012
 00064 +175560507534     00061 +000000000026     00065 +200714631463     00070 +204443146314     00071 +204500000000
 00066 +200721727024     00067 +201400000000     00050 +000000000000     00052 +000000000002     00057 +000000000007
 00056 +000000000006     00054 +000000000004     00051 +000000000001     00072 +233000000000
0STATEMENT DICTIONARY
 00011 TXL -300125000120       00012 TXL -300131000127       00013 TXL -300161000154       00014 TXL -300175000170
 00015 TXL -300213000204       00016 TXL -300235000227       00017 TXL -300226000224       00020 TXL -300313000303
 00021 TXL -300262000255       00022 TXL -300303000276       00023 TXL -300275000270       00024 TXL -300417000412
 00025 TXL -300363000350       00026 TXL -300376000364       00027 TXL -300402000376       00030 TXL -300425000422
 00031 TXL -300433000425       00032 TXL -300450000442       00033 TXL -300454000451       00034 TXL -300466000464
 00035 TXL -300463000460       00036 TXL -300467000466
0PROGRAM
                 EXTERNAL FUNCTION (X,N,S,XMIN,DX,ND,K)                             001  LM00001
                 INSERT FILE .XR.                                                   002  LM00002
                 DEFINE UNARY OPERATOR .XR., PRECIDENCE SAME AS -                   003  LM00001
                 MODE STRUCTURE .XR.1 TO 1                                          004  LM00002
                 ENTRY TO DXDY1.                                                    021  LM00003
 00073 TRA +0 02000 0 00076    00074 SXA +0 63400 2 00470    00075 TSX +0 07400 2 00470
                 EQUIVALENCE (NN,AN)                                                022  LM00006
                 NN=N                                                               023  LM00007
 00076 CLA +0 50000 0 00023    00077 STO +0 60100 0 00006
                 EXECUTE NUMP.(6,M,.XR.4)                                           024  LM00008
 00100 CLA +0 50000 0 00054    00101 ALS +0 76700 0 00017    00102 STT +0 62500 0 00103    00103 PXA +0 75400 0 00000
 00104 STO +0 60100 0 00576    00105 TSX +0 07400 4 00004    00106 TXH +3 00000 0 00056    00107 TXH +3 00000 0 00044
 00110 TXH +3 00000 0 00576
                 WHENEVER M.E.7, TRANSFER TO QQ0005                                 025  LM00009
 00111 CLA +0 50000 0 00044    00112 SUB +0 40200 0 00057    00113 TNZ -0 10000 0 00115    00114 TRA +0 02000 0 00011
                 EXECUTE ERNOTE.(2,QQ0007(1))                                       026  LM00010
 00115 TSX +0 07400 4 00001    00116 TXH +3 00000 0 00052    00117 TXH +3 00000 0 00007
                 VECTOR VALUES QQ0006=777777777777K,$DXDY1 $                        027  LM00011
 00007     +2 46724 7 00160    00010     -3 77777 7 77777
                 EQUIVALENCE (QQ0006,QQ0007)                                        028  LM00012
                 DIMENSION QQ0007(1)                                                029  LM00013
      QQ0005     EXECUTE MINMAX.(X,NN,XMIN,XMAX)                                    030  LM00014
 00120 TSX +0 07400 4 00003    00121 TXH +3 00000 0 00023    00122 TXH +3 00000 0 00006    00123 TXH +3 00000 0 00023
 00124 TXH +3 00000 0 00047
                 NS=0                                                               031  LM00015
 00125 CLA +0 50000 0 00050    00126 STO +0 60100 0 00045
      QQ0008     K=0                                                                032  LM00016
 00127 CLA +0 50000 0 00050    00130 STO +0 60100 0 00023
                 ND=0                                                               033  LM00017
 00131 CLA +0 50000 0 00050    00132 STO +0 60100 0 00023
                 DX=(XMAX-XMIN)/S                                                   034  LM00018
 00133 CLA +0 50000 0 00047    00134 FSB +0 30200 0 00023    00135 FDP +0 24100 0 00023    00136 STQ -0 60000 0 00023
                 W'R DX.NE.0, T'O QQ0010                                            035  LM00020
 00137 CLA +0 50000 0 00050    00140 ORA -0 50100 0 00072    00141 FAD +0 30000 0 00072    00142 CHS +0 76000 0 00002
 00143 ADD +0 40000 0 00023    00144 TZE +0 10000 0 00146    00145 TRA +0 02000 0 00013
                 DX=1.                                                              036  LM00021
 00146 CLA +0 50000 0 00067    00147 STO +0 60100 0 00023
                 EXECUTE ERNOTE.(4,0)                                               037  LM00022
 00150 TSX +0 07400 4 00001    00151 TXH +3 00000 0 00054    00152 TXH +3 00000 0 00050
                 FUNCTION RETURN                                                    038  LM00023
 00153 TRA +0 02000 0 00572
      QQ0010     W'R DX.GE..91, T'O QQ0012                                          039  LM00025
 00154 CLA +0 50000 0 00023    00155 SUB +0 40200 0 00066    00156 TZE +0 10000 0 00160    00157 TMI -0 12000 0 00161
 00160 TRA +0 02000 0 00014
                 DX=DX*10.                                                          040  LM00026
 00161 LDQ +0 56000 0 00023    00162 FMP +0 26000 0 00071    00163 STO +0 60100 0 00023
                 K=K+1                                                              041  LM00027
 00164 CLA +0 50000 0 00023    00165 ADD +0 40000 0 00051    00166 STO +0 60100 0 00023
                 TRANSFER TO QQ0010                                                 042  LM00028
 00167 TRA +0 02000 0 00013
      QQ0012     WHENEVER DX.L.9.1, TRANSFER TO QQ0015                              043  LM00029
 00170 CLA +0 50000 0 00023    00171 SUB +0 40200 0 00070    00172 TZE +0 10000 0 00175    00173 TPL +0 12000 0 00175
 00174 TRA +0 02000 0 00015
                 DX=DX/10.                                                          044  LM00030
 00175 CLA +0 50000 0 00023    00176 FDP +0 24100 0 00071    00177 STQ -0 60000 0 00023
                 K=K-1                                                              045  LM00031
 00200 CLA +0 50000 0 00023    00201 SUB +0 40200 0 00051    00202 STO +0 60100 0 00023
                 TRANSFER TO QQ0012                                                 046  LM00032
 00203 TRA +0 02000 0 00014
      QQ0015     IDX=DX*10.+.9                                                      047  LM00037
 00204 LDQ +0 56000 0 00023    00205 FMP +0 26000 0 00071    00206 FAD +0 30000 0 00065    00207 UFA -0 30000 0 00072
 00210 ERA +0 32200 0 00072    00211 LLS +0 76300 0 00000    00212 STO +0 60100 0 00040
                 W'R  IDX.GE.22, T'O QQ0018                                         048  LM00038
 00213 CLA +0 50000 0 00040    00214 SUB +0 40200 0 00061    00215 TZE +0 10000 0 00217    00216 TMI -0 12000 0 00220
 00217 TRA +0 02000 0 00016
                 DX=IDX                                                             049  LM00039
 00220 CLA +0 50000 0 00040    00221 ORA -0 50100 0 00072    00222 FAD +0 30000 0 00072    00223 STO +0 60100 0 00023
      QQ0019     ND=1                                                               050  LM00040
 00224 CLA +0 50000 0 00051    00225 STO +0 60100 0 00023
                 TRANSFER TO QQ0020                                                 051  LM00041
 00226 TRA +0 02000 0 00020
      QQ0018     JDX=DX+.09                                                         052  LM00042
 00227 CLA +0 50000 0 00023    00230 FAD +0 30000 0 00064    00231 UFA -0 30000 0 00072    00232 ERA +0 32200 0 00072
 00233 LLS +0 76300 0 00000    00234 STO +0 60100 0 00042
                 JDX=JDX*10                                                         053  LM00043
 00235 LDQ +0 56000 0 00042    00236 MPY +0 20000 0 00060    00237 STQ -0 60000 0 00042
                 KD=IDX-JDX                                                         054  LM00044
 00240 CLA +0 50000 0 00040    00241 SUB +0 40200 0 00042    00242 STO +0 60100 0 00043
                 WHENEVER (KD).G.0, TRANSFER TO QQ0022                              055  LM00045
 00243 CLA +0 50000 0 00043    00244 SUB +0 40200 0 00050    00245 TZE +0 10000 0 00250    00246 TMI -0 12000 0 00250
 00247 TRA +0 02000 0 00021
                 DX=IDX                                                             056  LM00046
 00250 CLA +0 50000 0 00040    00251 ORA -0 50100 0 00072    00252 FAD +0 30000 0 00072    00253 STO +0 60100 0 00023
                 TRANSFER TO QQ0020                                                 057  LM00047
 00254 TRA +0 02000 0 00020
      QQ0022     WHENEVER KD.G.5, TRANSFER TO QQ0024                                058  LM00048
 00255 CLA +0 50000 0 00043    00256 SUB +0 40200 0 00055    00257 TZE +0 10000 0 00262    00260 TMI -0 12000 0 00262
 00261 TRA +0 02000 0 00022
                 WHENEVER IDX.L.51, TRANSFER TO QQ0025                              059  LM00049
 00262 CLA +0 50000 0 00040    00263 SUB +0 40200 0 00062    00264 TZE +0 10000 0 00267    00265 TPL +0 12000 0 00267
 00266 TRA +0 02000 0 00023
                 TRANSFER TO QQ0024                                                 060  LM00050
 00267 TRA +0 02000 0 00022
      QQ0025     DX=(JDX+5)                                                         061  LM00051
 00270 CLA +0 50000 0 00042    00271 ADD +0 40000 0 00055    00272 ORA -0 50100 0 00072    00273 FAD +0 30000 0 00072
 00274 STO +0 60100 0 00023
                 TRANSFER TO QQ0019                                                 062  LM00052
 00275 TRA +0 02000 0 00017
      QQ0024     DX=JDX+10                                                          063  LM00053
 00276 CLA +0 50000 0 00042    00277 ADD +0 40000 0 00060    00300 ORA -0 50100 0 00072    00301 FAD +0 30000 0 00072
 00302 STO +0 60100 0 00023
      QQ0020     DX=DX*10..P.(-K-1)                                                 064  LM00055
 00303 CLS +0 50200 0 00023    00304 SUB +0 40200 0 00051    00305 XCA +0 13100 0 00000    00306 CLA +0 50000 0 00071
 00307 TSX +0 07400 4 00000    00310 XCA +0 13100 0 00000    00311 FMP +0 26000 0 00023    00312 STO +0 60100 0 00023
                 W'R NS.NE.0, T'O QQ0027                                            065  LM00056
 00313 CLA +0 50000 0 00045    00314 SUB +0 40200 0 00050    00315 TZE +0 10000 0 00317    00316 TRA +0 02000 0 00024
                 NS=1                                                               066  LM00057
 00317 CLA +0 50000 0 00051    00320 STO +0 60100 0 00045
                 EP=.00000001*10..P.K                                               067  LM00060
 00321 CLA +0 50000 0 00071    00322 LDQ +0 56000 0 00023    00323 TSX +0 07400 4 00000    00324 XCA +0 13100 0 00000
 00325 FMP +0 26000 0 00063    00326 STO +0 60100 0 00037
                 WHENEVER (XMIN).L.0, TRANSFER TO QQ0028                            068  LM00061
 00327 CLA +0 50000 0 00050    00330 ORA -0 50100 0 00072    00331 FAD +0 30000 0 00072    00332 CHS +0 76000 0 00002
 00333 ADD +0 40000 0 00023    00334 TZE +0 10000 0 00337    00335 TPL +0 12000 0 00337    00336 TRA +0 02000 0 00025
                 WHENEVER (XMIN).G.0, TRANSFER TO QQ0029                            069  LM00062
 00337 CLA +0 50000 0 00050    00340 ORA -0 50100 0 00072    00341 FAD +0 30000 0 00072    00342 CHS +0 76000 0 00002
 00343 ADD +0 40000 0 00023    00344 TZE +0 10000 0 00347    00345 TMI -0 12000 0 00347    00346 TRA +0 02000 0 00026
                 TRANSFER TO QQ0027                                                 070  LM00063
 00347 TRA +0 02000 0 00024
      QQ0028     IV=XMIN*10..P.K-.9+EP                                              071  LM00064
 00350 CLA +0 50000 0 00071    00351 LDQ +0 56000 0 00023    00352 TSX +0 07400 4 00000    00353 XCA +0 13100 0 00000
 00354 FMP +0 26000 0 00023    00355 FSB +0 30200 0 00065    00356 FAD +0 30000 0 00037    00357 UFA -0 30000 0 00072
 00360 ERA +0 32200 0 00072    00361 LLS +0 76300 0 00000    00362 STO +0 60100 0 00041
                 TRANSFER TO QQ0030                                                 072  LM00065
 00363 TRA +0 02000 0 00027
      QQ0029     IV=XMIN*10..P.K+EP                                                 073  LM00066
 00364 CLA +0 50000 0 00071    00365 LDQ +0 56000 0 00023    00366 TSX +0 07400 4 00000    00367 XCA +0 13100 0 00000
 00370 FMP +0 26000 0 00023    00371 FAD +0 30000 0 00037    00372 UFA -0 30000 0 00072    00373 ERA +0 32200 0 00072
 00374 LLS +0 76300 0 00000    00375 STO +0 60100 0 00041
      QQ0030     V=IV                                                               074  LM00067
 00376 CLA +0 50000 0 00041    00377 ORA -0 50100 0 00072    00400 FAD +0 30000 0 00072    00401 STO +0 60100 0 00046
                 XMIN=V*10..P.(-K)                                                  075  LM00068
 00402 CLS +0 50200 0 00023    00403 XCA +0 13100 0 00000    00404 CLA +0 50000 0 00071    00405 TSX +0 07400 4 00000
 00406 XCA +0 13100 0 00000    00407 FMP +0 26000 0 00046    00410 STO +0 60100 0 00023
                 TRANSFER TO QQ0008                                                 076  LM00069
 00411 TRA +0 02000 0 00012
      QQ0027     W'R K.GE.0, T'O QQ0032                                             077  LM00070
 00412 CLA +0 50000 0 00023    00413 SUB +0 40200 0 00050    00414 TZE +0 10000 0 00416    00415 TMI -0 12000 0 00417
 00416 TRA +0 02000 0 00030
                 ND=0                                                               078  LM00071
 00417 CLA +0 50000 0 00050    00420 STO +0 60100 0 00023
                 TRANSFER TO QQ0033                                                 079  LM00072
 00421 TRA +0 02000 0 00031
      QQ0032     ND=ND+K                                                            080  LM00074
 00422 CLA +0 50000 0 00023    00423 ADD +0 40000 0 00023    00424 STO +0 60100 0 00023
      QQ0033     WHENEVER (K-5).L.0, TRANSFER TO QQ0034                             081  LM00075
 00425 CLA +0 50000 0 00023    00426 SUB +0 40200 0 00055    00427 SUB +0 40200 0 00050    00430 TZE +0 10000 0 00433
 00431 TPL +0 12000 0 00433    00432 TRA +0 02000 0 00032
                 WHENEVER (K-5).G.0, TRANSFER TO QQ0035                             082  LM00076
 00433 CLA +0 50000 0 00023    00434 SUB +0 40200 0 00055    00435 SUB +0 40200 0 00050    00436 TZE +0 10000 0 00441
 00437 TMI -0 12000 0 00441    00440 TRA +0 02000 0 00033
                 TRANSFER TO QQ0036                                                 083  LM00077
 00441 TRA +0 02000 0 00034
      QQ0034     WHENEVER (K+3).L.0, TRANSFER TO QQ0037                             084  LM00078
 00442 CLA +0 50000 0 00023    00443 ADD +0 40000 0 00053    00444 SUB +0 40200 0 00050    00445 TZE +0 10000 0 00450
 00446 TPL +0 12000 0 00450    00447 TRA +0 02000 0 00035
                 TRANSFER TO QQ0036                                                 085  LM00079
 00450 TRA +0 02000 0 00034
      QQ0035     K=-K+5                                                             086  LM00080
 00451 CLS +0 50200 0 00023    00452 ADD +0 40000 0 00055    00453 STO +0 60100 0 00023
                 ND=ND+K                                                            087  LM00081
 00454 CLA +0 50000 0 00023    00455 ADD +0 40000 0 00023    00456 STO +0 60100 0 00023
                 TRANSFER TO QQ0039                                                 088  LM00082
 00457 TRA +0 02000 0 00036
      QQ0037     K=-K-3                                                             089  LM00083
 00460 CLS +0 50200 0 00023    00461 SUB +0 40200 0 00053    00462 STO +0 60100 0 00023
                 TRANSFER TO QQ0039                                                 090  LM00084
 00463 TRA +0 02000 0 00036
      QQ0036     K=0                                                                091  LM00085
 00464 CLA +0 50000 0 00050    00465 STO +0 60100 0 00023
      QQ0039     FUNCTION RETURN                                                    092  LM00086
 00466 TRA +0 02000 0 00572
                 INTEGER NN,N,MAD,NUMP.,M,MINMAX.                                   093  LM00087
                 INTEGER NS,K,ND,IDX,JDX,KD                                         094  LM00088
                 INTEGER IV                                                         095  LM00089
                 END OF FUNCTION                                                    096  LM00090
 00467 TSX +0 07400 4 00002    00470 TXH +3 00000 0 00000    00471 SXD -0 63400 1 00470    00472 SXA +0 63400 4 00572
 00473 CLA +0 50000 4 00001    00474 STO +0 60100 0 00121    00475 CLA +0 50000 4 00002    00476 STA +0 62100 0 00076
 00477 CLA +0 50000 4 00003    00500 STA +0 62100 0 00135    00501 CLA +0 50000 4 00004    00502 STO +0 60100 0 00123
 00503 STA +0 62100 0 00134    00504 STA +0 62100 0 00333    00505 STA +0 62100 0 00343    00506 STA +0 62100 0 00354
 00507 STA +0 62100 0 00370    00510 STA +0 62100 0 00410    00511 CLA +0 50000 4 00005    00512 STA +0 62100 0 00136
 00513 STA +0 62100 0 00143    00514 STA +0 62100 0 00147    00515 STA +0 62100 0 00154    00516 STA +0 62100 0 00161
 00517 STA +0 62100 0 00163    00520 STA +0 62100 0 00170    00521 STA +0 62100 0 00175    00522 STA +0 62100 0 00177
 00523 STA +0 62100 0 00204    00524 STA +0 62100 0 00223    00525 STA +0 62100 0 00227    00526 STA +0 62100 0 00253
 00527 STA +0 62100 0 00274    00530 STA +0 62100 0 00302    00531 STA +0 62100 0 00311    00532 STA +0 62100 0 00312
 00533 CLA +0 50000 4 00006    00534 STA +0 62100 0 00132    00535 STA +0 62100 0 00225    00536 STA +0 62100 0 00420
 00537 STA +0 62100 0 00422    00540 STA +0 62100 0 00424    00541 STA +0 62100 0 00454    00542 STA +0 62100 0 00456
 00543 CLA +0 50000 4 00007    00544 STA +0 62100 0 00130    00545 STA +0 62100 0 00164    00546 STA +0 62100 0 00166
 00547 STA +0 62100 0 00200    00550 STA +0 62100 0 00202    00551 STA +0 62100 0 00303    00552 STA +0 62100 0 00322
 00553 STA +0 62100 0 00351    00554 STA +0 62100 0 00365    00555 STA +0 62100 0 00402    00556 STA +0 62100 0 00412
 00557 STA +0 62100 0 00423    00560 STA +0 62100 0 00425    00561 STA +0 62100 0 00433    00562 STA +0 62100 0 00442
 00563 STA +0 62100 0 00451    00564 STA +0 62100 0 00453    00565 STA +0 62100 0 00455    00566 STA +0 62100 0 00460
 00567 STA +0 62100 0 00462    00570 STA +0 62100 0 00465    00571 TRA +0 02000 2 00001    00572 AXT +0 77400 4 00000
 00573 LXA +0 53400 2 00470    00574 LXD -0 53400 1 00470    00575 TRA +0 02000 4 00001


 AXIS1   BCD 01/29/68 1552.4    7458         00000
1     MAD PROGRAM LISTING ... ... ...                 FILE   AXIS1   MAD            01/29/68    1543.2
-
                         AXIS1                                                                         LM00001
                  EXTERNAL FUNCTION (X,Y,BCD,NC,S,THETA,YMIN,DY,ND,K,FM)                          *001 LM00002
                  INSERT FILE .XR.                                                                *002 LM00003
                  DEFINE UNARY OPERATOR .XR., PRECIDENCE SAME AS -                                *003 LM00001
                  MODE STRUCTURE .XR.1 TO 1                                                       *004 LM00002
             JMP      *+2,MQ,*+1                                                                  *005 LM00003
             JMP      *+2,AC,*+3                                                                  *006 LM00004
             JMP      *+7,BT,*+9                                                                  *007 LM00005
             JMP      *+2,BT,*+10                                                                 *008 LM00006
             CLA      B                                                                           *009 LM00007
             ALS      15                                                                          *010 LM00008
             STT      LOC+1                                                                       *011 LM00009
             PXA      0,0                                                                         *012 LM00010
             OUT      AC                                                                          *013 LM00011
             XCA                                                                                  *014 LM00012
             JMP      *-5                                                                         *015 LM00013
             STQ      T                                                                           *016 LM00014
             JMP      *-8                                                                         *017 LM00015
             STO      T                                                                           *018 LM00016
             JMP      *-10                                                                        *019 LM00017
             END                                                                                  *020 LM00018
                  ENTRY TO AXIS1.                                                                 *021 LM00004
                  EQUIVALENCE (ANC,NNC)                                                           *022 LM00005
                  NNC=NC                                                                          *023 LM00006
                  NND=ND                                                                          *024 LM00007
                  KK=K                                                                            *025 LM00008
                         TEST IF NUMBER OF ARGUMENTS =11.                                              LM00009
                  EXECUTE NUMP.(-5,N,.XR.4)                                                       *026 LM00010
                  WHENEVER N.E.11, TRANSFER TO QQ0005                                             *027 LM00011
                  EXECUTE ERNOTE.(2,QQ0007(1))                                                    *028 LM00012
                  VECTOR VALUES QQ0006=777777777777K,$AXIS1 $                                     *029 LM00013
                  EQUIVALENCE (QQ0006,QQ0007)                                                     *030 LM00014
                  DIMENSION QQ0007(1)                                                             *031 LM00015
      QQ0005      WHENEVER FM.GE..1, TRANSFER TO QQ0009                                           *032 LM00016
                  EXECUTE ERNOTE.(5,FM)                                                           *033 LM00017
                         INITIALIZE                                                                    LM00018
      QQ0009      SW=0.                                                                           *034 LM00019
                  WHENEVER NNC.GE.0, TRANSFER TO QQ0011                                           *035 LM00020
                  NNC=-NNC                                                                        *036 LM00021
                  SS=-.14                                                                         *037 LM00022
                  TRANSFER TO QQ0012                                                              *038 LM00023
      QQ0011      SS=.14                                                                          *039 LM00024
      QQ0012      WHENEVER THETA.NE.0, TRANSFER TO QQ0013                                         *040 LM00025
                         X AXIS ENTRY                                                                  LM00026
                  YB=0.                                                                           *041 LM00027
                  XB=1.                                                                           *042 LM00028
                  TRANSFER TO QQ0015                                                              *043 LM00029
                         YAXIS ENTRY                                                                   LM00030
      QQ0013      YB=1.                                                                           *044 LM00031
                  XB=0.                                                                           *045 LM00032
      QQ0015      XA=X-.1*YB                                                                      *046 LM00033
                  YA=Y-0.1*XB                                                                     *047 LM00034
                  XC=X                                                                            *048 LM00035
                  YC=Y                                                                            *049 LM00036
                  ST=X*XB+Y*YB                                                                    *050 LM00037
                  HS=S/2.                                                                         *051 LM00038
                  WHENEVER (KK).E.0, TRANSFER TO QQ0017                                           *052 LM00039
                  E=.36                                                                           *053 LM00040
                  TRANSFER TO QQ0018                                                              *054 LM00041
      QQ0017      E=0.                                                                            *055 LM00042
      QQ0018      I3=3                                                                            *056 LM00043
                         DRAW AXIS FROM LEFT TO RIGHT                                                  LM00044
                         MOVE TO TIP OF TIC MARK                                                       LM00045
      QQ0019      EXECUTE PLOT1.(XA,YA,I3)                                                        *057 LM00046
                         MOVE TO BASE OF TIC MARK                                                      LM00047
                  EXECUTE PLOT1.(XC,YC,2)                                                         *058 LM00048
                  XC=XC+XB*FM                                                                     *059 LM00049
                  YC=YC+YB*FM                                                                     *060 LM00050
                  XA=XA+XB*FM                                                                     *061 LM00051
                  YA=YA+YB*FM                                                                     *062 LM00052
                         MOVE TO BASE OF NEXT TIC MARK                                                 LM00053
                  EXECUTE PLOT1.(XC,YC,2)                                                         *063 LM00054
                  I3=2                                                                            *064 LM00055
                         END OF AXIS TEST                                                              LM00056
                  WHENEVER ((XC*XB+YC*YB)-S+.00001).L.0, TRANSFER TO QQ0019                       *065 LM00057
                  EXECUTE PLOT1.(XA,YA,2)                                                         *066 LM00058
                         WRITE NUMBERS UNDER AXIS MOVING FROM RIGHT TO L                               LM00059
                  XA=XA-.12*YB                                                                    *067 LM00060
                  YA=YA-.12*XB                                                                    *068 LM00061
                  XC=XC*XB                                                                        *069 LM00062
                  YC=YC*YB                                                                        *070 LM00063
                         USE POSITION ON AXIS TO COMPUTE NUMBER TO BE                                  LM00064
                         WRITTEN.                                                                      LM00065
                  VALUE=((XC+YC)*(DY/FM)*10..P.(-KK))+(YMIN*10..P.(-KK))                          *071 LM00066
      QQ0023      EXECUTE NUMBR1.(XA,YA,-.10,VALUE,THETA,NND)                                     *072 LM00067
                  TEST=XC+YC                                                                      *073 LM00068
                         TEST IF TIME TO WRITE LABEL                                                   LM00069
                  WHENEVER (TEST-HS-ST/2.).G.0, TRANSFER TO QQ0024                                *074 LM00070
                  TRANSFER TO QQ0025                                                              *075 LM00071
      QQ0024      XA=XA-XB*FM                                                                     *076 LM00072
                  YA=YA-YB*FM                                                                     *077 LM00073
                  XC=XC-FM*.ABS.(XB)                                                              *078 LM00074
                  YC=YC-FM*.ABS.(YB)                                                              *079 LM00075
                         DECREASE VALUE TO BE WRITTEN BY 1 UNIT                                        LM00076
                  VALUE=VALUE-DY*10..P.(-KK)                                                      *080 LM00077
                  TEST=XC+YC                                                                      *081 LM00078
                         TEST IF PAST STARTING POINT OF AXIS                                           LM00079
                  WHENEVER (TEST-ST+.00001).GE.0, TRANSFER TO QQ0023                              *082 LM00080
                  FUNCTION RETURN                                                                 *083 LM00081
                         IS LABEL WRITTEN                                                              LM00082
      QQ0025      WHENEVER SW.G.0, TRANSFER TO QQ0024                                             *084 LM00083
                         WRITE LABEL                                                                   LM00084
                  SW=1.                                                                           *085 LM00085
                  VAL=NNC/2                                                                       *086 LM00086
                  CP=HS-ST/2.-.12*VAL-E                                                           *087 LM00087
                  XD=X+XB*CP-.44*YB                                                               *088 LM00088
                  YD=Y+YB*CP-.44*XB                                                               *089 LM00089
                  EXECUTE SYMBL5.(XD,YD,SS,BCD,THETA,NNC)                                         *090 LM00090
                         IS EXPONENT TO BE WRITTEN AFTER LABEL                                         LM00091
                  WHENEVER (KK).E.0, TRANSFER TO QQ0024                                           *091 LM00092
                  TRANSFER TO QQ0029                                                              *092 LM00093
                         WRITE E XX.                                                                   LM00094
      QQ0029      FNC=NNC                                                                         *093 LM00095
                  CP=.12*FNC+.36                                                                  *094 LM00096
                  XD=XD+CP*XB                                                                     *095 LM00097
                  YD=YD+CP*YB                                                                     *096 LM00098
                  EXECUTE SYMBL5.(XD,YD,.14,QQ0031(1),THETA,1)                                    *097 LM00099
                  VECTOR VALUES QQ0030=777777777777K,$E     $                                     *098 LM00100
                  EQUIVALENCE (QQ0030,QQ0031)                                                     *099 LM00101
                  DIMENSION QQ0031(1)                                                             *100 LM00102
                  XD=XD+.12*XB                                                                    *101 LM00103
                  YD=YD+.12*YB                                                                    *102 LM00104
                  EXECUTE NUMBR1.(XD,YD,.14,KK,THETA,-1)                                          *103 LM00105
                  TRANSFER TO QQ0024                                                              *104 LM00106
                  INTEGER NNC,NC,NND,ND,KK,K                                                      *105 LM00107
                  INTEGER NUMP.,N,I3,NUMBR1.                                                      *106 LM00108
                  END OF FUNCTION                                                                 *107 LM00109
                                               MODE STRUCTURE .XR.1 TO 1      004  LM00002
 (THE NUMERIC FORM OF THE OPERATOR-MODE ARGUMENT IS    11101 )
1MAD PROGRAM,TYPE NOV 1963      (ALL NUMBERS ARE OCTAL)
0TOTAL LOCATIONS   00750 TRANSFER VECTOR LENGTH  00007 PROGRAM BEGINS    00101
0 PROGRAM IS AN EXTERNAL FUNCTION.   THE FOLLOWING ARE ENTRIES
      AXIS1  00102   0
0VARIABLE STORAGE (A=ARRAY,C=COMMON,E=ERASABLE,DIGIT=MODE)
      ANC    00010   0        N      00041   1        QQ0015 00022   4        QQ0030 00014 A 1        XA     00050   0
      CP     00032   0        QQ0005 00015   4        QQ0017 00023   4        QQ0031 00014 A 0        XB     00051   0
      E      00033   0        QQ0006 00012 A 1        QQ0018 00024   4        SS     00042   0        XC     00052   0
      FNC    00034   0        QQ0007 00012 A 0        QQ0019 00025   4        ST     00043   0        XD     00053   0
      HS     00035   0        QQ0009 00016   4        QQ0023 00026   4        SW     00044   0        YA     00054   0
      I3     00036   1        QQ0011 00017   4        QQ0024 00027   4        TEST   00045   0        YB     00055   0
      KK     00037   1        QQ0012 00020   4        QQ0025 00030   4        VAL    00046   0        YC     00056   0
      NNC    00010   1        QQ0013 00021   4        QQ0029 00031   4        VALUE  00047   0        YD     00057   0
      NND    00040   1
0FUNCTION DICTIONARY
      .01301 00000   0        ERNOTE 00001   0        EXIT   00002   0        NUMBR1 00003   1        NUMP   00004   1
      PLOT1  00005   0        SYMBL5 00006   0
0ABSOLUTE CONSTANTS
 00074 +177702436560     00077 +204500000000     00071 +175753412172     00067 +160517426542     00063 +000000000003
 00073 +177560507534     00076 +202400000000     00075 +201400000000     00072 +176436560507     00060 +000000000000
 00070 +175631463146     00062 +000000000002     00066 +000000000013     00065 +000000000005     00064 +000000000004
 00061 +000000000001     00100 +233000000000
0STATEMENT DICTIONARY
 00015 TXL -300141000134       00016 TXL -300146000144       00017 TXL -300162000160       00020 TXL -300171000162
 00021 TXL -300200000176       00022 TXL -300207000202       00023 TXL -300243000241       00024 TXL -300245000243
 00025 TXL -300251000245       00026 TXL -300410000377       00027 TXL -300440000433       00030 TXL -300524000514
 00031 TXL -300611000605
0PROGRAM
                 EXTERNAL FUNCTION (X,Y,BCD,NC,S,THETA,YMIN,DY,ND,K,FM)             001  LM00002
                 INSERT FILE .XR.                                                   002  LM00003
                 DEFINE UNARY OPERATOR .XR., PRECIDENCE SAME AS -                   003  LM00001
                 MODE STRUCTURE .XR.1 TO 1                                          004  LM00002
                 ENTRY TO AXIS1.                                                    021  LM00004
 00101 TRA +0 02000 0 00104    00102 SXA +0 63400 2 00657    00103 TSX +0 07400 2 00657
                 EQUIVALENCE (ANC,NNC)                                              022  LM00005
                 NNC=NC                                                             023  LM00006
 00104 CLA +0 50000 0 00023    00105 STO +0 60100 0 00010
                 NND=ND                                                             024  LM00007
 00106 CLA +0 50000 0 00023    00107 STO +0 60100 0 00040
                 KK=K                                                               025  LM00008
 00110 CLA +0 50000 0 00023    00111 STO +0 60100 0 00037
                 EXECUTE NUMP.(-5,N,.XR.4)                                          026  LM00010
 00112 CLA +0 50000 0 00064    00113 ALS +0 76700 0 00017    00114 STT +0 62500 0 00115    00115 PXA +0 75400 0 00000
 00116 STO +0 60100 0 00743    00117 CLS +0 50200 0 00065    00120 STO +0 60100 0 00744    00121 TSX +0 07400 4 00004
 00122 TXH +3 00000 0 00744    00123 TXH +3 00000 0 00041    00124 TXH +3 00000 0 00743
                 WHENEVER N.E.11, TRANSFER TO QQ0005                                027  LM00011
 00125 CLA +0 50000 0 00041    00126 SUB +0 40200 0 00066    00127 TNZ -0 10000 0 00131    00130 TRA +0 02000 0 00015
                 EXECUTE ERNOTE.(2,QQ0007(1))                                       028  LM00012
 00131 TSX +0 07400 4 00001    00132 TXH +3 00000 0 00062    00133 TXH +3 00000 0 00011
                 VECTOR VALUES QQ0006=777777777777K,$AXIS1 $                        029  LM00013
 00011     +2 16731 6 20160    00012     -3 77777 7 77777
                 EQUIVALENCE (QQ0006,QQ0007)                                        030  LM00014
                 DIMENSION QQ0007(1)                                                031  LM00015
      QQ0005     W'R FM.GE..1, T'O QQ0009                                           032  LM00016
 00134 CLA +0 50000 0 00023    00135 SUB +0 40200 0 00070    00136 TZE +0 10000 0 00140    00137 TMI -0 12000 0 00141
 00140 TRA +0 02000 0 00016
                 EXECUTE ERNOTE.(5,FM)                                              033  LM00017
 00141 TSX +0 07400 4 00001    00142 TXH +3 00000 0 00065    00143 TXH +3 00000 0 00023
      QQ0009     SW=0.                                                              034  LM00019
 00144 CLA +0 50000 0 00060    00145 STO +0 60100 0 00044
                 W'R NNC.GE.0, T'O QQ0011                                           035  LM00020
 00146 CLA +0 50000 0 00010    00147 SUB +0 40200 0 00060    00150 TZE +0 10000 0 00152    00151 TMI -0 12000 0 00153
 00152 TRA +0 02000 0 00017
                 NNC=-NNC                                                           036  LM00021
 00153 CLS +0 50200 0 00010    00154 STO +0 60100 0 00010
                 SS=-.14                                                            037  LM00022
 00155 CLS +0 50200 0 00072    00156 STO +0 60100 0 00042
                 TRANSFER TO QQ0012                                                 038  LM00023
 00157 TRA +0 02000 0 00020
      QQ0011     SS=.14                                                             039  LM00024
 00160 CLA +0 50000 0 00072    00161 STO +0 60100 0 00042
      QQ0012     W'R THETA.NE.0, T'O QQ0013                                         040  LM00025
 00162 CLA +0 50000 0 00060    00163 ORA -0 50100 0 00100    00164 FAD +0 30000 0 00100    00165 CHS +0 76000 0 00002
 00166 ADD +0 40000 0 00023    00167 TZE +0 10000 0 00171    00170 TRA +0 02000 0 00021
                 YB=0.                                                              041  LM00027
 00171 CLA +0 50000 0 00060    00172 STO +0 60100 0 00055
                 XB=1.                                                              042  LM00028
 00173 CLA +0 50000 0 00075    00174 STO +0 60100 0 00051
                 TRANSFER TO QQ0015                                                 043  LM00029
 00175 TRA +0 02000 0 00022
      QQ0013     YB=1.                                                              044  LM00031
 00176 CLA +0 50000 0 00075    00177 STO +0 60100 0 00055
                 XB=0.                                                              045  LM00032
 00200 CLA +0 50000 0 00060    00201 STO +0 60100 0 00051
      QQ0015     XA=X-.1*YB                                                         046  LM00033
 00202 LDQ +0 56000 0 00070    00203 FMP +0 26000 0 00055    00204 CHS +0 76000 0 00002    00205 FAD +0 30000 0 00023
 00206 STO +0 60100 0 00050
                 YA=Y-0.1*XB                                                        047  LM00034
 00207 LDQ +0 56000 0 00070    00210 FMP +0 26000 0 00051    00211 CHS +0 76000 0 00002    00212 FAD +0 30000 0 00023
 00213 STO +0 60100 0 00054
                 XC=X                                                               048  LM00035
 00214 CLA +0 50000 0 00023    00215 STO +0 60100 0 00052
                 YC=Y                                                               049  LM00036
 00216 CLA +0 50000 0 00023    00217 STO +0 60100 0 00056
                 ST=X*XB+Y*YB                                                       050  LM00037
 00220 LDQ +0 56000 0 00023    00221 FMP +0 26000 0 00055    00222 STO +0 60100 0 00744    00223 LDQ +0 56000 0 00023
 00224 FMP +0 26000 0 00051    00225 FAD +0 30000 0 00744    00226 STO +0 60100 0 00043
                 HS=S/2.                                                            051  LM00038
 00227 CLA +0 50000 0 00023    00230 FDP +0 24100 0 00076    00231 STQ -0 60000 0 00035
                 WHENEVER (KK).E.0, TRANSFER TO QQ0017                              052  LM00039
 00232 CLA +0 50000 0 00037    00233 SUB +0 40200 0 00060    00234 TNZ -0 10000 0 00236    00235 TRA +0 02000 0 00023
                 E=.36                                                              053  LM00040
 00236 CLA +0 50000 0 00073    00237 STO +0 60100 0 00033
                 TRANSFER TO QQ0018                                                 054  LM00041
 00240 TRA +0 02000 0 00024
      QQ0017     E=0.                                                               055  LM00042
 00241 CLA +0 50000 0 00060    00242 STO +0 60100 0 00033
      QQ0018     I3=3                                                               056  LM00043
 00243 CLA +0 50000 0 00063    00244 STO +0 60100 0 00036
      QQ0019     EXECUTE PLOT1.(XA,YA,I3)                                           057  LM00046
 00245 TSX +0 07400 4 00005    00246 TXH +3 00000 0 00050    00247 TXH +3 00000 0 00054    00250 TXH +3 00000 0 00036
                 EXECUTE PLOT1.(XC,YC,2)                                            058  LM00048
 00251 TSX +0 07400 4 00005    00252 TXH +3 00000 0 00052    00253 TXH +3 00000 0 00056    00254 TXH +3 00000 0 00062
                 XC=XC+XB*FM                                                        059  LM00049
 00255 LDQ +0 56000 0 00051    00256 FMP +0 26000 0 00023    00257 FAD +0 30000 0 00052    00260 STO +0 60100 0 00052
                 YC=YC+YB*FM                                                        060  LM00050
 00261 LDQ +0 56000 0 00055    00262 FMP +0 26000 0 00023    00263 FAD +0 30000 0 00056    00264 STO +0 60100 0 00056
                 XA=XA+XB*FM                                                        061  LM00051
 00265 LDQ +0 56000 0 00051    00266 FMP +0 26000 0 00023    00267 FAD +0 30000 0 00050    00270 STO +0 60100 0 00050
                 YA=YA+YB*FM                                                        062  LM00052
 00271 LDQ +0 56000 0 00055    00272 FMP +0 26000 0 00023    00273 FAD +0 30000 0 00054    00274 STO +0 60100 0 00054
                 EXECUTE PLOT1.(XC,YC,2)                                            063  LM00054
 00275 TSX +0 07400 4 00005    00276 TXH +3 00000 0 00052    00277 TXH +3 00000 0 00056    00300 TXH +3 00000 0 00062
                 I3=2                                                               064  LM00055
 00301 CLA +0 50000 0 00062    00302 STO +0 60100 0 00036
                 WHENEVER ((XC*XB+YC*YB)-S+.00001).L.0, TRANSFER TO QQ0019          065  LM00057
 00303 LDQ +0 56000 0 00056    00304 FMP +0 26000 0 00055    00305 STO +0 60100 0 00744    00306 LDQ +0 56000 0 00052
 00307 FMP +0 26000 0 00051    00310 FAD +0 30000 0 00744    00311 FSB +0 30200 0 00023    00312 FAD +0 30000 0 00067
 00313 STO +0 60100 0 00744    00314 CLA +0 50000 0 00060    00315 ORA -0 50100 0 00100    00316 FAD +0 30000 0 00100
 00317 CHS +0 76000 0 00002    00320 ADD +0 40000 0 00744    00321 TZE +0 10000 0 00324    00322 TPL +0 12000 0 00324
 00323 TRA +0 02000 0 00025
                 EXECUTE PLOT1.(XA,YA,2)                                            066  LM00058
 00324 TSX +0 07400 4 00005    00325 TXH +3 00000 0 00050    00326 TXH +3 00000 0 00054    00327 TXH +3 00000 0 00062
                 XA=XA-.12*YB                                                       067  LM00060
 00330 LDQ +0 56000 0 00071    00331 FMP +0 26000 0 00055    00332 CHS +0 76000 0 00002    00333 FAD +0 30000 0 00050
 00334 STO +0 60100 0 00050
                 YA=YA-.12*XB                                                       068  LM00061
 00335 LDQ +0 56000 0 00071    00336 FMP +0 26000 0 00051    00337 CHS +0 76000 0 00002    00340 FAD +0 30000 0 00054
 00341 STO +0 60100 0 00054
                 XC=XC*XB                                                           069  LM00062
 00342 LDQ +0 56000 0 00052    00343 FMP +0 26000 0 00051    00344 STO +0 60100 0 00052
                 YC=YC*YB                                                           070  LM00063
 00345 LDQ +0 56000 0 00056    00346 FMP +0 26000 0 00055    00347 STO +0 60100 0 00056
                 VALUE=((XC+YC)*(DY/FM)*10..P.(-KK))+(YMIN*10..P.(-KK))             071  LM00066
 00350 CLS +0 50200 0 00037    00351 XCA +0 13100 0 00000    00352 CLA +0 50000 0 00077    00353 TSX +0 07400 4 00000
 00354 XCA +0 13100 0 00000    00355 FMP +0 26000 0 00023    00356 STO +0 60100 0 00744    00357 CLS +0 50200 0 00037
 00360 XCA +0 13100 0 00000    00361 CLA +0 50000 0 00077    00362 TSX +0 07400 4 00000    00363 STO +0 60100 0 00743
 00364 CLA +0 50000 0 00023    00365 FDP +0 24100 0 00023    00366 STQ -0 60000 0 00745    00367 CLA +0 50000 0 00052
 00370 FAD +0 30000 0 00056    00371 XCA +0 13100 0 00000    00372 FMP +0 26000 0 00745    00373 XCA +0 13100 0 00000
 00374 FMP +0 26000 0 00743    00375 FAD +0 30000 0 00744    00376 STO +0 60100 0 00047
      QQ0023     EXECUTE NUMBR1.(XA,YA,-.10,VALUE,THETA,NND)                        072  LM00067
 00377 CLS +0 50200 0 00070    00400 STO +0 60100 0 00745    00401 TSX +0 07400 4 00003    00402 TXH +3 00000 0 00050
 00403 TXH +3 00000 0 00054    00404 TXH +3 00000 0 00745    00405 TXH +3 00000 0 00047    00406 TXH +3 00000 0 00023
 00407 TXH +3 00000 0 00040
                 TEST=XC+YC                                                         073  LM00068
 00410 CLA +0 50000 0 00052    00411 FAD +0 30000 0 00056    00412 STO +0 60100 0 00045
                 WHENEVER (TEST-HS-ST/2.).G.0, TRANSFER TO QQ0024                   074  LM00070
 00413 CLA +0 50000 0 00043    00414 FDP +0 24100 0 00076    00415 STQ -0 60000 0 00745    00416 CLA +0 50000 0 00045
 00417 FSB +0 30200 0 00035    00420 FSB +0 30200 0 00745    00421 STO +0 60100 0 00745    00422 CLA +0 50000 0 00060
 00423 ORA -0 50100 0 00100    00424 FAD +0 30000 0 00100    00425 CHS +0 76000 0 00002    00426 ADD +0 40000 0 00745
 00427 TZE +0 10000 0 00432    00430 TMI -0 12000 0 00432    00431 TRA +0 02000 0 00027
                 TRANSFER TO QQ0025                                                 075  LM00071
 00432 TRA +0 02000 0 00030
      QQ0024     XA=XA-XB*FM                                                        076  LM00072
 00433 LDQ +0 56000 0 00051    00434 FMP +0 26000 0 00023    00435 CHS +0 76000 0 00002    00436 FAD +0 30000 0 00050
 00437 STO +0 60100 0 00050
                 YA=YA-YB*FM                                                        077  LM00073
 00440 LDQ +0 56000 0 00055    00441 FMP +0 26000 0 00023    00442 CHS +0 76000 0 00002    00443 FAD +0 30000 0 00054
 00444 STO +0 60100 0 00054
                 XC=XC-FM*.ABS.(XB)                                                 078  LM00074
 00445 CLA +0 50000 0 00051    00446 SSP +0 76000 0 00003    00447 XCA +0 13100 0 00000    00450 FMP +0 26000 0 00023
 00451 CHS +0 76000 0 00002    00452 FAD +0 30000 0 00052    00453 STO +0 60100 0 00052
                 YC=YC-FM*.ABS.(YB)                                                 079  LM00075
 00454 CLA +0 50000 0 00055    00455 SSP +0 76000 0 00003    00456 XCA +0 13100 0 00000    00457 FMP +0 26000 0 00023
 00460 CHS +0 76000 0 00002    00461 FAD +0 30000 0 00056    00462 STO +0 60100 0 00056
                 VALUE=VALUE-DY*10..P.(-KK)                                         080  LM00077
 00463 CLS +0 50200 0 00037    00464 XCA +0 13100 0 00000    00465 CLA +0 50000 0 00077    00466 TSX +0 07400 4 00000
 00467 XCA +0 13100 0 00000    00470 FMP +0 26000 0 00023    00471 CHS +0 76000 0 00002    00472 FAD +0 30000 0 00047
 00473 STO +0 60100 0 00047
                 TEST=XC+YC                                                         081  LM00078
 00474 CLA +0 50000 0 00052    00475 FAD +0 30000 0 00056    00476 STO +0 60100 0 00045
                 WHENEVER (TEST-ST+.00001).GE.0, T'O QQ0023                         082  LM00080
 00477 CLA +0 50000 0 00045    00500 FSB +0 30200 0 00043    00501 FAD +0 30000 0 00067    00502 STO +0 60100 0 00745
 00503 CLA +0 50000 0 00060    00504 ORA -0 50100 0 00100    00505 FAD +0 30000 0 00100    00506 CHS +0 76000 0 00002
 00507 ADD +0 40000 0 00745    00510 TZE +0 10000 0 00512    00511 TMI -0 12000 0 00513    00512 TRA +0 02000 0 00026
                 FUNCTION RETURN                                                    083  LM00081
 00513 TRA +0 02000 0 00737
      QQ0025     W'R SW.G.0, T'O QQ0024                                             084  LM00083
 00514 CLA +0 50000 0 00060    00515 ORA -0 50100 0 00100    00516 FAD +0 30000 0 00100    00517 CHS +0 76000 0 00002
 00520 ADD +0 40000 0 00044    00521 TZE +0 10000 0 00524    00522 TMI -0 12000 0 00524    00523 TRA +0 02000 0 00027
                 SW=1.                                                              085  LM00085
 00524 CLA +0 50000 0 00075    00525 STO +0 60100 0 00044
                 VAL=NNC/2                                                          086  LM00086
 00526 LDQ +0 56000 0 00010    00527 PXD -0 75400 0 00000    00530 LLS +0 76300 0 00000    00531 DVP +0 22100 0 00062
 00532 XCA +0 13100 0 00000    00533 ORA -0 50100 0 00100    00534 FAD +0 30000 0 00100    00535 STO +0 60100 0 00046
                 CP=HS-ST/2.-.12*VAL-E                                              087  LM00087
 00536 LDQ +0 56000 0 00071    00537 FMP +0 26000 0 00046    00540 STO +0 60100 0 00745    00541 CLA +0 50000 0 00043
 00542 FDP +0 24100 0 00076    00543 XCA +0 13100 0 00000    00544 CHS +0 76000 0 00002    00545 FAD +0 30000 0 00035
 00546 FSB +0 30200 0 00745    00547 FSB +0 30200 0 00033    00550 STO +0 60100 0 00032
                 XD=X+XB*CP-.44*YB                                                  088  LM00088
 00551 LDQ +0 56000 0 00074    00552 FMP +0 26000 0 00055    00553 STO +0 60100 0 00745    00554 LDQ +0 56000 0 00051
 00555 FMP +0 26000 0 00032    00556 FAD +0 30000 0 00023    00557 FSB +0 30200 0 00745    00560 STO +0 60100 0 00053
                 YD=Y+YB*CP-.44*XB                                                  089  LM00089
 00561 LDQ +0 56000 0 00074    00562 FMP +0 26000 0 00051    00563 STO +0 60100 0 00745    00564 LDQ +0 56000 0 00055
 00565 FMP +0 26000 0 00032    00566 FAD +0 30000 0 00023    00567 FSB +0 30200 0 00745    00570 STO +0 60100 0 00057
                 EXECUTE SYMBL5.(XD,YD,SS,BCD,THETA,NNC)                            090  LM00090
 00571 TSX +0 07400 4 00006    00572 TXH +3 00000 0 00053    00573 TXH +3 00000 0 00057    00574 TXH +3 00000 0 00042
 00575 TXH +3 00000 0 00023    00576 TXH +3 00000 0 00023    00577 TXH +3 00000 0 00010
                 WHENEVER (KK).E.0, TRANSFER TO QQ0024                              091  LM00092
 00600 CLA +0 50000 0 00037    00601 SUB +0 40200 0 00060    00602 TNZ -0 10000 0 00604    00603 TRA +0 02000 0 00027
                 TRANSFER TO QQ0029                                                 092  LM00093
 00604 TRA +0 02000 0 00031
      QQ0029     FNC=NNC                                                            093  LM00095
 00605 CLA +0 50000 0 00010    00606 ORA -0 50100 0 00100    00607 FAD +0 30000 0 00100    00610 STO +0 60100 0 00034
                 CP=.12*FNC+.36                                                     094  LM00096
 00611 LDQ +0 56000 0 00071    00612 FMP +0 26000 0 00034    00613 FAD +0 30000 0 00073    00614 STO +0 60100 0 00032
                 XD=XD+CP*XB                                                        095  LM00097
 00615 LDQ +0 56000 0 00032    00616 FMP +0 26000 0 00051    00617 FAD +0 30000 0 00053    00620 STO +0 60100 0 00053
                 YD=YD+CP*YB                                                        096  LM00098
 00621 LDQ +0 56000 0 00032    00622 FMP +0 26000 0 00055    00623 FAD +0 30000 0 00057    00624 STO +0 60100 0 00057
                 EXECUTE SYMBL5.(XD,YD,.14,QQ0031(1),THETA,1)                       097  LM00099
 00625 TSX +0 07400 4 00006    00626 TXH +3 00000 0 00053    00627 TXH +3 00000 0 00057    00630 TXH +3 00000 0 00072
 00631 TXH +3 00000 0 00013    00632 TXH +3 00000 0 00023    00633 TXH +3 00000 0 00061
                 VECTOR VALUES QQ0030=777777777777K,$E     $                        098  LM00100
 00013     +2 56060 6 06060    00014     -3 77777 7 77777
                 EQUIVALENCE (QQ0030,QQ0031)                                        099  LM00101
                 DIMENSION QQ0031(1)                                                100  LM00102
                 XD=XD+.12*XB                                                       101  LM00103
 00634 LDQ +0 56000 0 00071    00635 FMP +0 26000 0 00051    00636 FAD +0 30000 0 00053    00637 STO +0 60100 0 00053
                 YD=YD+.12*YB                                                       102  LM00104
 00640 LDQ +0 56000 0 00071    00641 FMP +0 26000 0 00055    00642 FAD +0 30000 0 00057    00643 STO +0 60100 0 00057
                 EXECUTE NUMBR1.(XD,YD,.14,KK,THETA,-1)                             103  LM00105
 00644 CLS +0 50200 0 00061    00645 STO +0 60100 0 00745    00646 TSX +0 07400 4 00003    00647 TXH +3 00000 0 00053
 00650 TXH +3 00000 0 00057    00651 TXH +3 00000 0 00072    00652 TXH +3 00000 0 00037    00653 TXH +3 00000 0 00023
 00654 TXH +3 00000 0 00745
                 TRANSFER TO QQ0024                                                 104  LM00106
 00655 TRA +0 02000 0 00027
                 INTEGER NNC,NC,NND,ND,KK,K                                         105  LM00107
                 INTEGER NUMP.,N,I3,NUMBR1.                                         106  LM00108
                 END OF FUNCTION                                                    107  LM00109
 00656 TSX +0 07400 4 00002    00657 TXH +3 00000 0 00000    00660 SXD -0 63400 1 00657    00661 SXA +0 63400 4 00737
 00662 CLA +0 50000 4 00001    00663 STA +0 62100 0 00205    00664 STA +0 62100 0 00214    00665 STA +0 62100 0 00223
 00666 STA +0 62100 0 00556    00667 CLA +0 50000 4 00002    00670 STA +0 62100 0 00212    00671 STA +0 62100 0 00216
 00672 STA +0 62100 0 00220    00673 STA +0 62100 0 00566    00674 CLA +0 50000 4 00003    00675 STO +0 60100 0 00575
 00676 CLA +0 50000 4 00004    00677 STA +0 62100 0 00104    00700 CLA +0 50000 4 00005    00701 STA +0 62100 0 00227
 00702 STA +0 62100 0 00311    00703 CLA +0 50000 4 00006    00704 STA +0 62100 0 00166    00705 STO +0 60100 0 00406
 00706 STO +0 60100 0 00576    00707 STO +0 60100 0 00632    00710 STO +0 60100 0 00653    00711 CLA +0 50000 4 00007
 00712 STA +0 62100 0 00355    00713 CLA +0 50000 4 00010    00714 STA +0 62100 0 00364    00715 STA +0 62100 0 00470
 00716 CLA +0 50000 4 00011    00717 STA +0 62100 0 00106    00720 CLA +0 50000 4 00012    00721 STA +0 62100 0 00110
 00722 CLA +0 50000 4 00013    00723 STA +0 62100 0 00134    00724 STO +0 60100 0 00143    00725 STA +0 62100 0 00256
 00726 STA +0 62100 0 00262    00727 STA +0 62100 0 00266    00730 STA +0 62100 0 00272    00731 STA +0 62100 0 00365
 00732 STA +0 62100 0 00434    00733 STA +0 62100 0 00441    00734 STA +0 62100 0 00450    00735 STA +0 62100 0 00457
 00736 TRA +0 02000 2 00001    00737 AXT +0 77400 4 00000    00740 LXA +0 53400 2 00657    00741 LXD -0 53400 1 00657
 00742 TRA +0 02000 4 00001


   SET   BCD 01/29/68 1552.4    4067         00000
1     MAD PROGRAM LISTING ... ... ...                 FILE     SET   MAD            01/29/68    1543.9
-
                  EXTERNAL FUNCTION (A,B)                                                         *001 LM00001
                  NORMAL MODE IS INTEGER                                                          *002 LM00002
                  DIMENSION BUF(432)                                                              *003 LM00003
                  DIMENSION T(8)                                                                  *004 LM00004
                  VECTOR VALUES MODE = 0K                                                         *005 LM00005
                  VECTOR VALUES DEV = 2                                                           *006 LM00006
                  VECTOR VALUES CALLED = 0B                                                       *007 LM00007
                  ENTRY TO STRTPL.                                                                *008 LM00008
                  NAM1=$.PLOT.$                                                                   *009 LM00009
                  NAM2=BZEL.(DERBC.(A))                                                           *010 LM00010
                  WHENEVER CALLED, ERNOTE.(8,0)                                                   *011 LM00011
                  CALLED=1B                                                                       *012 LM00012
      BEGIN       FSTATE.(NAM1,NAM2,T(8)...8,NONE,ERCD)                                           *013 LM00013
                  WHENEVER T(7).A.1K.NE.0                                                         *014 LM00014
                     DELFIL.(NAM1,NAM2,ER1,ERCD)                                                  *015 LM00015
                  OTHERWISE                                                                       *016 LM00016
                     ASK(2)=NAM1                                                                  *017 LM00017
                     ASK(3)=NAM2                                                                  *018 LM00018
                     PRNTP.(ASK)                                                                  *019 LM00019
                     VECTOR VALUES ASK=$  OLD FILE  $,$$,$$,                                      *020 LM00020
                1       $  DO YOU WANT TO DELETE IT -  $,377777777777K                            *020 LM00021
                     RDFLXC.(ANS,6)                                                               *021 LM00022
                     WHENEVER LJUST.(ANS).E.$YES$                                                 *022 LM00023
                        DELFIL.(NAM1,NAM2,ER1,ERCD)                                               *023 LM00024
                     OTHERWISE                                                                    *024 LM00025
                        FIXUP.(BEGIN)                                                             *025 LM00026
                     END OF CONDITIONAL                                                           *026 LM00027
                  END OF CONDITIONAL                                                              *027 LM00028
      NONE        OPEN.($W$,NAM1,NAM2,MODE,DEV,ER2,ERCD)                                          *028 LM00029
                  BUFFER.(NAM1,NAM2,BUF(432)...432)                                               *029 LM00030
                  STRTUP.(NAM1,NAM2)                                                              *030 LM00031
                  FUNCTION RETURN                                                                 *031 LM00032
                                                                                                       LM00033
      ER1         WHENEVER ERCD.E.6                                                               *032 LM00034
                     FSTATE.(NAM1,NAM2,T(8)...8)                                                  *033 LM00035
                     PRIV(4)=$   000$.V.(OCABC.(T(7)).A.777777K)                                  *034 LM00036
                     PRNTP.(PRIV)                                                                 *035 LM00037
                     VECTOR VALUES PRIV=$  CAN'T DELETE FILE IN $,$$,$  MODE$                     *036 LM00038
                     VECTOR VALUES PRIV(6)=777777777777K                                          *037 LM00039
                     FIXUP.(BEGIN)                                                                *038 LM00040
                  OTHERWISE                                                                       *039 LM00041
                  PRNTER.(371K)                                                                   *040 LM00042
                     FIXUP.(BEGIN)                                                                *041 LM00043
                  END OF CONDITIONAL                                                              *042 LM00044
                                                                                                       LM00045
      ER2         WHENEVER ERCD.E.15                                                              *043 LM00046
                     PRNTP.(FULL)                                                                 *044 LM00047
                     VECTOR VALUES FULL=$ SPACE EXAUSTED - YOU MUST CLEAR TRACKS$                 *045 LM00048
                1       ,777777777777K                                                            *045 LM00049
                     FIXUP.(BEGIN)                                                                *046 LM00050
                  OTHERWISE                                                                       *047 LM00051
                     PRNTER.(371K)                                                                *048 LM00052
                     FIXUP.(BEGIN)                                                                *049 LM00053
                  END OF CONDITIONAL                                                              *050 LM00054
                                                                                                       LM00055
                  ENTRY TO ENDPL.                                                                 *051 LM00056
                  CALLED=0B                                                                       *052 LM00057
                  ENDUP.                                                                          *053 LM00058
                  CLOSE.(NAM1,NAM2,ER3,ERCD)                                                      *054 LM00059
                  FUNCTION RETURN                                                                 *055 LM00060
                                                                                                       LM00061
      ER3         PRNTER.(371K)                                                                   *056 LM00062
                  FUNCTION RETURN                                                                 *057 LM00063
                                                                                                       LM00064
                  END OF FUNCTION                                                                 *058 LM00065
1MAD PROGRAM,TYPE NOV 1963      (ALL NUMBERS ARE OCTAL)
0TOTAL LOCATIONS   01207 TRANSFER VECTOR LENGTH  00021 PROGRAM BEGINS    00776
0 PROGRAM IS AN EXTERNAL FUNCTION.   THE FOLLOWING ARE ENTRIES
      ENDPL  01153   0        STRTPL 00777   0
0VARIABLE STORAGE (A=ARRAY,C=COMMON,E=ERASABLE,DIGIT=MODE)
      ANS    00027   1        CALLED 00723 A 2        ER3    00025   4        MODE   00736 A 1        NONE   00026   4
      ASK    00041 A 1        DEV    00724 A 1        ERCD   00725   1        NAM1   00737   1        PRIV   00747 A 1
      BEGIN  00022   4        ER1    00023   4        FULL   00735 A 1        NAM2   00740   1        T      00760 A 1
      BUF    00722 A 1        ER2    00024   4
0FUNCTION DICTIONARY
      BUFFER 00000   1        BZEL   00001   1        CLOSE  00002   1        DELFIL 00003   1        DERBC  00004   1
      ENDUP  00005   1        ERNOTE 00006   1        EXIT   00007   1        FIXUP  00010   1        FSTATE 00011   1
      LJUST  00012   1        OCABC  00013   1        OPEN   00014   1        PRNTER 00015   1        PRNTP  00016   1
      RDFLXC 00017   1        STRTUP 00020   1
0ABSOLUTE CONSTANTS
 00765 +000000000017     00766 +000000000371     00773 -206060000000     00770 +000000777777     00767 +000000000660
 00774 -266060606060     00775 -302562606060     00763 +000000000006     00761 +000000000000     00764 +000000000010
 00772 +334743466333     00762 +000000000001     00771 +233000000000
0STATEMENT DICTIONARY
 00022 TXL -301026001020       00023 TXL -301112001107       00024 TXL -301141001136       00025 TXL -301170001166
 00026 TXL -301077001067
0PROGRAM
                 EXTERNAL FUNCTION (A,B)                                            001  LM00001
                 N'S INTEGER                                                        002  LM00002
                 D'N BUF(432)                                                       003  LM00003
                 D'N T(8)                                                           004  LM00004
                 V'S MODE = 0K                                                      005  LM00005
 00736     +0 00000 0 00000
                 V'S DEV = 2                                                        006  LM00006
 00724     +0 00000 0 00002
                 V'S CALLED = 0B                                                    007  LM00007
 00723     +0 00000 0 00000
                 ENTRY TO STRTPL.                                                   008  LM00008
 00776 TRA +0 02000 0 01001    00777 SXA +0 63400 2 01172    01000 TSX +0 07400 2 01172
                 NAM1=$.PLOT.$                                                      009  LM00009
 01001 CLA +0 50000 0 00772    01002 STO +0 60100 0 00737
                 NAM2=BZEL.(DERBC.(A))                                              010  LM00010
 01003 TSX +0 07400 4 00004    01004 TXH +3 00000 0 00024    01005 STO +0 60100 0 01204    01006 TSX +0 07400 4 00001
 01007 TXH +3 00000 0 01204    01010 STO +0 60100 0 00740
                 W'R CALLED, ERNOTE.(8,0)                                           011  LM00011
 01011 NZT -0 52000 0 00723    01012 TRA +0 02000 0 01016    01013 TSX +0 07400 4 00006    01014 TXH +3 00000 0 00764
 01015 TXH +3 00000 0 00761
                 CALLED=1B                                                          012  LM00012
 01016 CLA +0 50000 0 00762    01017 STO +0 60100 0 00723
      BEGIN      FSTATE.(NAM1,NAM2,T(8)...8,NONE,ERCD)                              013  LM00013
 01020 TSX +0 07400 4 00011    01021 TXH +3 00000 0 00737    01022 TXH +3 00000 0 00740    01023 TIX +2 00764 0 00750
 01024 TXH +3 00000 0 00026    01025 TXH +3 00000 0 00725
                 W'R T(7).A.1K.NE.0                                                 014  LM00014
 01026 CAL -0 50000 0 00751    01027 ANA -0 32000 0 00762    01030 SLW +0 60200 0 01204    01031 CLA +0 50000 0 01204
 01032 SUB +0 40200 0 00761    01033 TZE +0 10000 0 01042
                    DELFIL.(NAM1,NAM2,ER1,ERCD)                                     015  LM00015
 01034 TSX +0 07400 4 00003    01035 TXH +3 00000 0 00737    01036 TXH +3 00000 0 00740    01037 TXH +3 00000 0 00023
 01040 TXH +3 00000 0 00725
                 O'E                                                                016  LM00016
 01041 TRA +0 02000 0 01067
                    ASK(2)=NAM1                                                     017  LM00017
 01042 CLA +0 50000 0 00737    01043 STO +0 60100 0 00037
                    ASK(3)=NAM2                                                     018  LM00018
 01044 CLA +0 50000 0 00740    01045 STO +0 60100 0 00036
                    PRNTP.(ASK)                                                     019  LM00019
 01046 TSX +0 07400 4 00016    01047 TXH +3 00000 0 00041
                    V'S ASK=$  OLD FILE  $,$$,$$,                                   020  LM00020
                1      $  DO YOU WANT TO DELETE IT -  $,377777777777K               020  LM00021
 00030     +3 77777 7 77777    00031     +3 16360 4 06060    00032     +2 54325 6 32560    00033     -2 36063 4 66024
 00034     -0 66460 6 62145    00035     -2 06024 4 66070    00036     -2 06060 6 06060    00037     -2 06060 6 06060
 00040     +2 63143 2 56060    00041     -2 06046 4 32460
                    RDFLXC.(ANS,6)                                                  021  LM00022
 01050 TSX +0 07400 4 00017    01051 TXH +3 00000 0 00027    01052 TXH +3 00000 0 00763
                    W'R LJUST.(ANS).E.$YES$                                         022  LM00023
 01053 TSX +0 07400 4 00012    01054 TXH +3 00000 0 00027    01055 SUB +0 40200 0 00775    01056 TNZ -0 10000 0 01065
                       DELFIL.(NAM1,NAM2,ER1,ERCD)                                  023  LM00024
 01057 TSX +0 07400 4 00003    01060 TXH +3 00000 0 00737    01061 TXH +3 00000 0 00740    01062 TXH +3 00000 0 00023
 01063 TXH +3 00000 0 00725
                    O'E                                                             024  LM00025
 01064 TRA +0 02000 0 01067
                       FIXUP.(BEGIN)                                                025  LM00026
 01065 TSX +0 07400 4 00010    01066 TXH +3 00000 0 00022
                    E'L                                                             026  LM00027
                 E'L                                                                027  LM00028
      NONE       OPEN.($W$,NAM1,NAM2,MODE,DEV,ER2,ERCD)                             028  LM00029
 01067 TSX +0 07400 4 00014    01070 TXH +3 00000 0 00774    01071 TXH +3 00000 0 00737    01072 TXH +3 00000 0 00740
 01073 TXH +3 00000 0 00736    01074 TXH +3 00000 0 00724    01075 TXH +3 00000 0 00024    01076 TXH +3 00000 0 00725
                 BUFFER.(NAM1,NAM2,BUF(432)...432)                                  029  LM00030
 01077 TSX +0 07400 4 00000    01100 TXH +3 00000 0 00737    01101 TXH +3 00000 0 00740    01102 TIX +2 00767 0 00042
                 STRTUP.(NAM1,NAM2)                                                 030  LM00031
 01103 TSX +0 07400 4 00020    01104 TXH +3 00000 0 00737    01105 TXH +3 00000 0 00740
                 F'N                                                                031  LM00032
 01106 TRA +0 02000 0 01200
      ER1        W'R ERCD.E.6                                                       032  LM00034
 01107 CLA +0 50000 0 00725    01110 SUB +0 40200 0 00763    01111 TNZ -0 10000 0 01132
                    FSTATE.(NAM1,NAM2,T(8)...8)                                     033  LM00035
 01112 TSX +0 07400 4 00011    01113 TXH +3 00000 0 00737    01114 TXH +3 00000 0 00740    01115 TIX +2 00764 0 00750
                    PRIV(4)=$   000$.V.(OCABC.(T(7)).A.777777K)                     034  LM00036
 01116 TSX +0 07400 4 00013    01117 TXH +3 00000 0 00751    01120 STO +0 60100 0 01204    01121 CAL -0 50000 0 01204
 01122 ANA -0 32000 0 00770    01123 ORA -0 50100 0 00773    01124 SLW +0 60200 0 00743
                    PRNTP.(PRIV)                                                    035  LM00037
 01125 TSX +0 07400 4 00016    01126 TXH +3 00000 0 00747
                    V'S PRIV=$  CAN'T DELETE FILE IN $,$$,$  MODE$                  036  LM00038
 00742     -2 06044 4 62425    00743     -2 06060 6 06060    00744     +2 56031 4 56060    00745     -2 32560 2 63143
 00746     -2 36024 2 54325    00747     -2 06023 2 14514
                    V'S PRIV(6)=777777777777K                                       037  LM00039
 00741     -3 77777 7 77777
                    FIXUP.(BEGIN)                                                   038  LM00040
 01127 TSX +0 07400 4 00010    01130 TXH +3 00000 0 00022
                 O'E                                                                039  LM00041
 01131 TRA +0 02000 0 01136
                 PRNTER.(371K)                                                      040  LM00042
 01132 TSX +0 07400 4 00015    01133 TXH +3 00000 0 00766
                    FIXUP.(BEGIN)                                                   041  LM00043
 01134 TSX +0 07400 4 00010    01135 TXH +3 00000 0 00022
                 E'L                                                                042  LM00044
      ER2        W'R ERCD.E.15                                                      043  LM00046
 01136 CLA +0 50000 0 00725    01137 SUB +0 40200 0 00765    01140 TNZ -0 10000 0 01146
                    PRNTP.(FULL)                                                    044  LM00047
 01141 TSX +0 07400 4 00016    01142 TXH +3 00000 0 00735
                    V'S FULL=$ SPACE EXAUSTED - YOU MUST CLEAR TRACKS$              045  LM00048
                1      ,777777777777K                                               045  LM00049
 00726     -3 77777 7 77777    00727     +2 34262 6 06060    00730     +2 15160 6 35121    00731     -2 26360 2 34325
 00732     -3 04664 6 04464    00733     -2 32524 6 04060    00734     -2 02567 2 16462    00735     -2 06247 2 12325
                    FIXUP.(BEGIN)                                                   046  LM00050
 01143 TSX +0 07400 4 00010    01144 TXH +3 00000 0 00022
                 O'E                                                                047  LM00051
 01145 TRA +0 02000 0 01152
                    PRNTER.(371K)                                                   048  LM00052
 01146 TSX +0 07400 4 00015    01147 TXH +3 00000 0 00766
                    FIXUP.(BEGIN)                                                   049  LM00053
 01150 TSX +0 07400 4 00010    01151 TXH +3 00000 0 00022
                 E'L                                                                050  LM00054
                 E'O ENDPL.                                                         051  LM00056
 01152 TRA +0 02000 0 01155    01153 SXA +0 63400 2 01172    01154 TSX +0 07400 2 01172
                 CALLED=0B                                                          052  LM00057
 01155 CLA +0 50000 0 00761    01156 STO +0 60100 0 00723
                 ENDUP.                                                             053  LM00058
 01157 TSX +0 07400 4 00005
                 CLOSE.(NAM1,NAM2,ER3,ERCD)                                         054  LM00059
 01160 TSX +0 07400 4 00002    01161 TXH +3 00000 0 00737    01162 TXH +3 00000 0 00740    01163 TXH +3 00000 0 00025
 01164 TXH +3 00000 0 00725
                 F'N                                                                055  LM00060
 01165 TRA +0 02000 0 01200
      ER3        PRNTER.(371K)                                                      056  LM00062
 01166 TSX +0 07400 4 00015    01167 TXH +3 00000 0 00766
                 F'N                                                                057  LM00063
 01170 TRA +0 02000 0 01200
                 END OF FUNCTION                                                    058  LM00065
 01171 TSX +0 07400 4 00007    01172 TXH +3 00000 0 00000    01173 SXD -0 63400 1 01172    01174 SXA +0 63400 4 01200
 01175 CLA +0 50000 4 00001    01176 STO +0 60100 0 01004    01177 TRA +0 02000 2 00001    01200 AXT +0 77400 4 00000
 01201 LXA +0 53400 2 01172    01202 LXD -0 53400 1 01172    01203 TRA +0 02000 4 00001


CMBPLT   BCD 01/31/68 1305.9   10796         00000
1     MAD PROGRAM LISTING ... ... ...                 FILE  CMBPLT   MAD            01/30/68    1137.5
-
                  EXTERNAL FUNCTION                                                               *001 LM00001
                  NORMAL MODE IS INTEGER                                                          *002 LM00002
                  MODE NUMBER 5 CALL , BACK                                                       *003 LM00003
                  BOOLEAN EOF2SW, ENDSW, ALTSW                                                    *004 LM00004
                  DIMENSION NAM2(18), T(8), BUF(864)                                              *005 LM00005
                  INSERT FILE .OPS.                                                               *006 LM00006
                  MODE STRUCTURE 5=5, SAME SEQUENCE AS 1=1                                        *007 LM00001
                  DEFINE BINARY OPERATOR .ARG., PRECIDENCE SAME AS .RS.                           *008 LM00002
                  MODE STRUCTURE 5.ARG.1 TO 1                                                     *009 LM00003
             JMP       *+1,BT,*+3                                                                 *010 LM00004
             JMP       *+5,AC,*+1                                                                 *011 LM00005
             JMP       *+3,MQ,*+1                                                                 *012 LM00006
             CLA       B                                                                          *013 LM00007
             JMP       *+2                                                                        *014 LM00008
             XCA                                                                                  *015 LM00009
             STA       LOC+3                                                                      *016 LM00010
             SXA       LOC+3,4                                                                    *017 LM00011
             LXA       A,4                                                                        *018 LM00012
             CLA*      0,4                                                                        *019 LM00013
             AXT       0,4                                                                        *020 LM00014
             OUT       AC                                                                         *021 LM00015
             END                                                                                  *022 LM00016
                  DEFINE BINARY OPERATOR .OUT., PRECIDENCE LOWER THAN +                           *023 LM00017
                  MODE STRUCTURE 5.OUT.1 TO 1                                                     *024 LM00018
             JMP       *+1,BT,*+3                                                                 *025 LM00019
             JMP       *+5,AC,*+1                                                                 *026 LM00020
             JMP       *+3,AC,*+1                                                                 *027 LM00021
             CLA       B                                                                          *028 LM00022
             JMP       *+2                                                                        *029 LM00023
             XCA                                                                                  *030 LM00024
             LXA       A,4                                                                        *031 LM00025
             TRA       0,4                                                                        *032 LM00026
             END                                                                                  *033 LM00027
                  DEFINE UNARY OPERATOR .XR., PRECIDENCE SAME AS -                                *034 LM00028
                  MODE STRUCTURE .XR.1 TO 5                                                       *035 LM00029
             JMP      *+2,MQ,*+1                                                                  *036 LM00030
             JMP      *+2,AC,*+3                                                                  *037 LM00031
             JMP      *+7,BT,*+9                                                                  *038 LM00032
             JMP      *+2,BT,*+10                                                                 *039 LM00033
             CLA      B                                                                           *040 LM00034
             ALS      15                                                                          *041 LM00035
             STT      LOC+1                                                                       *042 LM00036
             PXA      0,0                                                                         *043 LM00037
             OUT      AC                                                                          *044 LM00038
             XCA                                                                                  *045 LM00039
             JMP      *-5                                                                         *046 LM00040
             STQ      T                                                                           *047 LM00041
             JMP      *-8                                                                         *048 LM00042
             STO      T                                                                           *049 LM00043
             JMP      *-10                                                                        *050 LM00044
             END                                                                                  *051 LM00045
                  DEFINE UNARY OPERATOR .UNPAC., PRECIDENCE SAME AS -                             *052 LM00046
                  MODE STRUCTURE .UNPAC. 1 TO 1                                                   *053 LM00047
             PXD       ,0                                                                         *054 LM00048
             XCA                                                                                  *055 LM00049
             CLA       B                                                                          *056 LM00050
             LGR       2                                                                          *057 LM00051
             RQL       3                                                                          *058 LM00052
             LGR       1                                                                          *059 LM00053
             ARS       3                                                                          *060 LM00054
             STO       B                                                                          *061 LM00055
             OUT       MQ                                                                         *062 LM00056
             END                                                                                  *063 LM00057
                  ENTRY TO COMBPL.                                                                *064 LM00007
                  CALL=.XR.4                                                                      *065 LM00008
                  TYPE=COLT.(CALL)                                                                *066 LM00009
                  BACK=.XR.4                                                                      *067 LM00010
                  NARGS=TYPE.RS.18                                                                *068 LM00011
                  TYPE=TYPE.A.7K                                                                  *069 LM00012
                  WHENEVER TYPE.E.0.OR.NARGS.L.3.OR.NARGS.G.19, TRANSFER TO ER1                   *070 LM00013
                  OUTFIL=BZEL.(DEFBC.(CALL.ARG.1))                                                *071 LM00014
      CK1         FSTATE.(PT,OUTFIL,T(8)...8,NONE)                                                *072 LM00015
                  TRANSFER TO ER2                                                                 *073 LM00016
      NONE        THROUGH CK2, FOR K=2,1,K.G.NARGS                                                *074 LM00017
                  NAM2(K)=BZEL.(DEFBC.(CALL.ARG.K))                                               *075 LM00018
                  FSTATE.(PT,NAM2(K),T(8)...8,ER3)                                                *076 LM00019
      CK2         CONTINUE                                                                        *077 LM00020
                  WHENEVER STOP, TRANSFER TO ER4                                                  *078 LM00021
                  STRTPL.(CALL.ARG.1)                                                             *079 LM00022
                  THROUGH GO, FOR K =2,1,K.G.NARGS                                                *080 LM00023
                  WHENEVER FLAG(K), TRNSFR.                                                       *081 LM00024
      GO          CONTINUE                                                                        *082 LM00025
                  ENDPL.                                                                          *083 LM00026
                  T=BACK.OUT.0                                                                    *084 LM00027
                                                                                                       LM00028
                    ERROR RETURNS                                                                      LM00029
                                                                                                       LM00030
      ER1         BADCL(4)=BZEL.(OCABC.(CALL))                                                    *085 LM00031
                  PRNTP.(BADCL)                                                                   *086 LM00032
                  VECTOR VALUES BADCL=$BAD CALL TO COMBPL FROM $,$$,$ ABS. $,                     *087 LM00033
                1    777777777777K                                                                *087 LM00034
                  EXIT.                                                                           *088 LM00035
                                                                                                       LM00036
      ER2         WHENEVER T(6).A.1K.E.1K                                                         *089 LM00037
                     DELFIL.(PT,OUTFIL,ER2A,ERCD)                                                 *090 LM00038
                     TRANSFER TO NONE                                                             *091 LM00039
                  END OF CONDITIONAL                                                              *092 LM00040
      ER2A        CBPL(4)=PT                                                                      *093 LM00041
                  CBPL(5)=OUTFIL                                                                  *094 LM00042
                  PRNTP.(CBPL)                                                                    *095 LM00043
                  VECTOR VALUES CBPL=$  COMBPL FOUND OLD FILE $,$$,$$,                            *096 LM00044
                1    777777777777K                                                                *096 LM00045
                  FIXUP.(CK1)                                                                     *097 LM00046
                                                                                                       LM00047
      ER3         NFND(1)=PT                                                                      *098 LM00048
                  NFND(2)=NAM2(K)                                                                 *099 LM00049
                  PRNTP.(NFND)                                                                    *100 LM00050
                  VECTOR VALUES NFND=$FILE$,$$,$$,$NOT FOUND - DO YOU WANT TO IGNORE IT$          *101 LM00051
                1    ,777777777777K                                                               *101 LM00052
                  T=RDFLXC.(ANS,6)                                                                *102 LM00053
                  WHENEVER LJUST.(ANS).E.$YES   $                                                 *103 LM00054
                     FLAG(K)=0B                                                                   *104 LM00055
                  OTHERWISE                                                                       *105 LM00056
                     STOP=1B                                                                      *106 LM00057
                  END OF CONDITIONAL                                                              *107 LM00058
                  TRANSFER TO CK2                                                                 *108 LM00059
                                                                                                       LM00060
      ER4         FIXUP.(RSTRT)                                                                   *109 LM00061
      RSTRT       STOP=0B                                                                         *110 LM00062
                  TRANSFER TO CK1                                                                 *111 LM00063
                                                                                                       LM00064
                    PROGRAM DATA                                                                       LM00065
                                                                                                       LM00066
                  VECTOR VALUES STOP=0B                                                           *112 LM00067
                  VECTOR VALUES FLAG(0)...FLAG(20)=1B                                             *113 LM00068
                  VECTOR VALUES PT=$.PLOT.$                                                       *114 LM00069
                                                                                                       LM00070
                    INTERNAL FUNCTIONS                                                                 LM00071
                                                                                                       LM00072
                  INTERNAL FUNCTION                                                               *115 LM00073
                  ENTRY TO TRNSFR.                                                                *116 LM00074
                  EOFCT=432                                                                       *117 LM00075
                  BLOCKS=33                                                                       *118 LM00076
                  LAST=6                                                                          *119 LM00077
                  WORD=429                                                                        *120 LM00078
                  ENDSW=0B                                                                        *121 LM00079
                  EOF2SW=0B                                                                       *122 LM00080
                  OPEN.($R$,PT,NAM2(K),-0,-0,ERRK1)                                               *123 LM00081
                  RDFILE.(PT,NAM2(K),0,BUF(432)...432, EOF,EOFCT,ERRK1,ERCD)                      *124 LM00082
                  RDFILE.(PT,NAM2(K),0,BUF(864)...432,EOF2,EOFCT,ERRK1,ERCD)                      *125 LM00083
      PLOTDK      WHENEVER BUF(WORD+4).NE.$ (PLOT$.OR.BUF(WORD+3).NE.$ TAPE)$,                    *126 LM00084
                1    TRANSFER TO ERRK2                                                            *126 LM00085
                  THROUGH LOOP1, FOR L1=0,1,L1.G.BLOCKS                                           *127 LM00086
                  WHENEVER L1.E.BLOCKS                                                            *128 LM00087
                     LIM=LAST                                                                     *129 LM00088
                  OTHERWISE                                                                       *130 LM00089
                     LIM=6                                                                        *131 LM00090
                  END OF CONDITIONAL                                                              *132 LM00091
                  TAGS=BUF(WORD)                                                                  *133 LM00092
                  THROUGH LOOP2, FORL2=1,1,L2.G.LIM                                               *134 LM00093
                  TAG=.UNPAC.TAGS                                                                 *135 LM00094
                  WHENEVER TAG.E.0                                                                *136 LM00095
                     FACTOR.(BUF(WORD-L2*2+1))                                                    *137 LM00096
                  OTHERWISE                                                                       *138 LM00097
                     PLOT1.(BUF(WORD-L2*2+1),BUF(WORD-L2*2),TAG)                                  *139 LM00098
                  END OF CONDITIONAL                                                              *140 LM00099
      LOOP2       CONTINUE                                                                        *141 LM00100
                     WORD=WORD-13                                                                 *142 LM00101
      LOOP1       CONTINUE                                                                        *143 LM00102
                  WHENEVER ENDSW, TRANSFER TO END                                                 *144 LM00103
                  WHENEVER ALTSW                                                                  *145 LM00104
                     J=432                                                                        *146 LM00105
                  WORD=861                                                                        *147 LM00106
                     ALTSW=0B                                                                     *148 LM00107
                  OTHERWISE                                                                       *149 LM00108
                     J=864                                                                        *150 LM00109
                     WORD=429                                                                     *151 LM00110
                     ALTSW=1B                                                                     *152 LM00111
                  END OF CONDITIONAL                                                              *153 LM00112
                  WHENEVER EOF2SW, TRANSFER TO EOF                                                *154 LM00113
                  EOFCT=432                                                                       *155 LM00114
                  RDFILE.(PT,NAM2(K),0,BUF(J)...432,EOF2,EOFCT,ERRK1,ERCD)                        *156 LM00115
                  TRANSFER TO PLOTDK                                                              *157 LM00116
                                                                                                       LM00117
      EOF         FWAIT.(PT,NAM2(K), ERRK1, ERCD)                                                 *158 LM00118
                  BLOCKS=(EOFCT-3)/13                                                             *159 LM00119
                  LAST=(EOFCT-BLOCKS*13-3)/2                                                      *160 LM00120
                  BLOCKS=BLOCKS+1                                                                 *161 LM00121
                  ENDSW=1B                                                                        *162 LM00122
                  TRANSFER TO PLOTDK                                                              *163 LM00123
                                                                                                       LM00124
      EOF2        EOF2SW=1B                                                                       *164 LM00125
                  TRANSFER TO PLOTDK                                                              *165 LM00126
                                                                                                       LM00127
      END         CLOSE.(PT,NAM2(K),ERRK1,ERCD)                                                   *166 LM00128
                  FUNCTION RETURN                                                                 *167 LM00129
      ERRK1       PRNTER.(371K)                                                                   *168 LM00130
                  EXIT.                                                                           *169 LM00131
      ERRK2       NOPLOT(1)=PT                                                                    *170 LM00132
                  NOPLOT(2)=NAM2(K)                                                               *171 LM00133
                  PRNTP.(NOPLOT)                                                                  *172 LM00134
                     VECTOR VALUES NOPLOT=$ FILE $,$$,$$,$ IS OF IMPROPER FORMAT$                 *173 LM00135
                1    ,777777777777K                                                               *173 LM00136
                  EXIT.                                                                           *174 LM00137
                                                                                                       LM00138
                  END OF FUNCTION                                                                 *175 LM00139
                                                                                                       LM00140
                  END OF FUNCTION                                                                 *176 LM00141
                             MODE STRUCTURE 5=5, SAME SEQUENCE AS 1=1         007  LM00001
 (THE NUMERIC FORM OF THE OPERATOR-MODE ARGUMENT IS    00555 )
                                         MODE STRUCTURE 5.ARG.1 TO 1          009  LM00003
 (THE NUMERIC FORM OF THE OPERATOR-MODE ARGUMENT IS    11151 )
                                         MODE STRUCTURE 5.OUT.1 TO 1          024  LM00018
 (THE NUMERIC FORM OF THE OPERATOR-MODE ARGUMENT IS    11251 )
                                               MODE STRUCTURE .XR.1 TO 5      035  LM00029
 (THE NUMERIC FORM OF THE OPERATOR-MODE ARGUMENT IS    11301 )
                                         MODE STRUCTURE .UNPAC. 1 TO 1        053  LM00047
 (THE NUMERIC FORM OF THE OPERATOR-MODE ARGUMENT IS    11401 )
1MAD PROGRAM,TYPE NOV 1963      (ALL NUMBERS ARE OCTAL)
0TOTAL LOCATIONS   02705 TRANSFER VECTOR LENGTH  00024 PROGRAM BEGINS    02004
0 PROGRAM IS AN EXTERNAL FUNCTION.   THE FOLLOWING ARE ENTRIES
      COMBPL 02005   0
0VARIABLE STORAGE (A=ARRAY,C=COMMON,E=ERASABLE,DIGIT=MODE)
      ALTSW  00045   2        END    00030   4        ER4    00037   4        LAST   01666   1        PLOTDK 00043   4
      ANS    00046   1        ENDSW  01631   2        ERCD   01634   1        LIM    01667   1        PT     01737 A 1
      BACK   00047   5        EOF2   00031   4        ERRK1  00040   4        LOOP1  00025   4        RSTRT  00044   4
      BADCL  00056 A 1        EOF2SW 01632   2        ERRK2  00041   4        LOOP2  00025   4        STOP   01740 A 2
      BLOCKS 00057   1        EOFCT  01633   1        FLAG   01661 A 2        NAM2   01712 A 1        TAG    01741   1
      BUF    01620 A 1        EOF    00032   4        GO     00025   4        NARGS  01713   1        TAGS   01742   1
      CALL   01621   5        ER1    00033   4        J      01662   1        NFND   01725 A 1        T      01753 A 1
      CBPL   01630 A 1        ER2A   00034   4        K      01663   1        NONE   00042   4        TYPE   01754   1
      CK1    00026   4        ER2    00035   4        L1     01664   1        NOPLOT 01735 A 1        WORD   01755   1
      CK2    00027   4        ER3    00036   4        L2     01665   1        OUTFIL 01736   1
0FUNCTION DICTIONARY
      BZEL   00000   1        CLOSE  00001   1        COLT   00002   1        DEFBC  00003   1        DELFIL 00004   1
      ENDPL  00005   1        EXIT   00006   1        FACTOR 00007   1        FIXUP  00010   1        FSTATE 00011   1
      FWAIT  00012   1        LJUST  00013   1        OCABC  00014   1        OPEN   00015   1        PLOT1  00016   1
      PRNTER 00017   1        PRNTP  00020   1        RDFILE 00021   1        RDFLXC 00022   1        STRTPL 00023   1
      TRNSFR 00024   1
0ABSOLUTE CONSTANTS
 01772 +000000000371     01776 +000000001540     01775 +000000001535     01766 +000000000015     02002 -207447434663
 02001 -206321472534     02000 -116060606060     01773 +000000000655     01771 +000000000041     01774 +000000000660
 02003 -302562606060     01763 +000000000006     01760 +000000000002     01765 +000000000010     01756 +000000000000
 01761 +000000000003     01770 +000000000023     01764 +000000000007     01767 +000000000022     01762 +000000000004
 01757 +000000000001     01777 +233000000000
0STATEMENT DICTIONARY
 00026 TXL -302072002065       00027 TXL -302135002134       00030 TXL -302642002631       00031 TXL -302630002626
 00032 TXL -302602002571       00033 TXL -302207002201       00034 TXL -302230002226       00035 TXL -302220002212
 00036 TXL -302240002236       00037 TXL -302266002264       00040 TXL -302645002643       00041 TXL -302650002646
 00042 TXL -302105002073       00043 TXL -302377002362       00044 TXL -302270002266
0PROGRAM
                 EXTERNAL FUNCTION                                                  001  LM00001
                 NORMAL MODE IS INTEGER                                             002  LM00002
                 MODE NUMBER 5 CALL , BACK                                          003  LM00003
                 BOOLEAN EOF2SW, ENDSW, ALTSW                                       004  LM00004
                 DIMENSION NAM2(18), T(8), BUF(864)                                 005  LM00005
                 I'E .OPS.                                                          006  LM00006
                 MODE STRUCTURE 5=5, SAME SEQUENCE AS 1=1                           007  LM00001
                 DEFINE BINARY OPERATOR .ARG., PRECIDENCE SAME AS .RS.              008  LM00002
                 MODE STRUCTURE 5.ARG.1 TO 1                                        009  LM00003
                 DEFINE BINARY OPERATOR .OUT., PRECIDENCE LOWER THAN +              023  LM00017
                 MODE STRUCTURE 5.OUT.1 TO 1                                        024  LM00018
                 DEFINE UNARY OPERATOR .XR., PRECIDENCE SAME AS -                   034  LM00028
                 MODE STRUCTURE .XR.1 TO 5                                          035  LM00029
                 DEFINE UNARY OPERATOR .UNPAC., PRECIDENCE SAME AS -                052  LM00046
                 MODE STRUCTURE .UNPAC. 1 TO 1                                      053  LM00047
                 ENTRY TO COMBPL.                                                   064  LM00007
 02004 TRA +0 02000 0 02007    02005 SXA +0 63400 2 02672    02006 TSX +0 07400 2 02672
                 CALL=.XR.4                                                         065  LM00008
 02007 CLA +0 50000 0 01762    02010 ALS +0 76700 0 00017    02011 STT +0 62500 0 02012    02012 PXA +0 75400 0 00000
 02013 STO +0 60100 0 01621
                 TYPE=COLT.(CALL)                                                   066  LM00009
 02014 TSX +0 07400 4 00002    02015 TXH +3 00000 0 01621    02016 STO +0 60100 0 01754
                 BACK=.XR.4                                                         067  LM00010
 02017 CLA +0 50000 0 01762    02020 ALS +0 76700 0 00017    02021 STT +0 62500 0 02022    02022 PXA +0 75400 0 00000
 02023 STO +0 60100 0 00047
                 NARGS=TYPE.RS.18                                                   068  LM00011
 02024 CAL -0 50000 0 01767    02025 STA +0 62100 0 02027    02026 CAL -0 50000 0 01754    02027 LGR -0 76500 0 00000
 02030 SLW +0 60200 0 01713
                 TYPE=TYPE.A.7K                                                     069  LM00012
 02031 CAL -0 50000 0 01754    02032 ANA -0 32000 0 01764    02033 SLW +0 60200 0 01754
                 W'R TYPE.E.0.OR.NARGS.L.3.OR.NARGS.G.19, T'O ER1                   070  LM00013
 02034 CLA +0 50000 0 01713    02035 SUB +0 40200 0 01770    02036 TZE +0 10000 0 02040    02037 TPL +0 12000 0 02047
 02040 CLA +0 50000 0 01713    02041 SUB +0 40200 0 01761    02042 TZE +0 10000 0 02044    02043 TMI -0 12000 0 02047
 02044 CLA +0 50000 0 01754    02045 SUB +0 40200 0 01756    02046 TNZ -0 10000 0 02050    02047 TRA +0 02000 0 00033
                 OUTFIL=BZEL.(DEFBC.(CALL.ARG.1))                                   071  LM00014
 02050 CLA +0 50000 0 01757    02051 STA +0 62100 0 02054    02052 SXA +0 63400 4 02055    02053 LXA +0 53400 4 01621
 02054 CLA +0 50060 4 00000    02055 AXT +0 77400 4 00000    02056 STO +0 60100 0 02702    02057 TSX +0 07400 4 00003
 02060 TXH +3 00000 0 02702    02061 STO +0 60100 0 02702    02062 TSX +0 07400 4 00000    02063 TXH +3 00000 0 02702
 02064 STO +0 60100 0 01736
      CK1        FSTATE.(PT,OUTFIL,T(8)...8,NONE)                                   072  LM00015
 02065 TSX +0 07400 4 00011    02066 TXH +3 00000 0 01737    02067 TXH +3 00000 0 01736    02070 TIX +2 01765 0 01743
 02071 TXH +3 00000 0 00042
                 T'O ER2                                                            073  LM00016
 02072 TRA +0 02000 0 00035
      NONE       T'H CK2, FOR K=2,1,K.G.NARGS                                       074  LM00017
 02073 CLA +0 50000 0 01760    02074 STO +0 60100 0 01663    02075 TRA +0 02000 0 02101    02076 CLA +0 50000 0 01663
 02077 ADD +0 40000 0 01757    02100 STO +0 60100 0 01663    02101 CLA +0 50000 0 01663    02102 SUB +0 40200 0 01713
 02103 TZE +0 10000 0 02105    02104 TPL +0 12000 0 02135
                 NAM2(K)=BZEL.(DEFBC.(CALL.ARG.K))                                  075  LM00018
 02105 CLA +0 50000 0 01663    02106 STA +0 62100 0 02111    02107 SXA +0 63400 4 02112    02110 LXA +0 53400 4 01621
 02111 CLA +0 50060 4 00000    02112 AXT +0 77400 4 00000    02113 STO +0 60100 0 02702    02114 TSX +0 07400 4 00003
 02115 TXH +3 00000 0 02702    02116 STO +0 60100 0 02702    02117 TSX +0 07400 4 00000    02120 TXH +3 00000 0 02702
 02121 LXA +0 53400 1 01663    02122 STO +0 60100 1 01712
                 FSTATE.(PT,NAM2(K),T(8)...8,ER3)                                   076  LM00019
 02123 CLA +0 50000 0 01663    02124 SUB +0 40200 0 02125    02125 TXH +3 00000 0 01712    02126 STA +0 62100 0 02131
 02127 TSX +0 07400 4 00011    02130 TXH +3 00000 0 01737    02131 TXH +3 00000 0 00000    02132 TIX +2 01765 0 01743
 02133 TXH +3 00000 0 00036
      CK2        CONTINUE                                                           077  LM00020
 02134 TRA +0 02000 0 02076
                 W'R STOP, T'O ER4                                                  078  LM00021
 02135 NZT -0 52000 0 01740    02136 TRA +0 02000 0 02140    02137 TRA +0 02000 0 00037
                 STRTPL.(CALL.ARG.1)                                                079  LM00022
 02140 CLA +0 50000 0 01757    02141 STA +0 62100 0 02144    02142 SXA +0 63400 4 02145    02143 LXA +0 53400 4 01621
 02144 CLA +0 50060 4 00000    02145 AXT +0 77400 4 00000    02146 STO +0 60100 0 02702    02147 TSX +0 07400 4 00023
 02150 TXH +3 00000 0 02702
                 T'H GO, FOR K =2,1,K.G.NARGS                                       080  LM00023
 02151 CLA +0 50000 0 01760    02152 STO +0 60100 0 01663    02153 TRA +0 02000 0 02157    02154 CLA +0 50000 0 01663
 02155 ADD +0 40000 0 01757    02156 STO +0 60100 0 01663    02157 CLA +0 50000 0 01663    02160 SUB +0 40200 0 01713
 02161 TZE +0 10000 0 02163    02162 TPL +0 12000 0 02170
                 W'R FLAG(K), TRNSFR.                                               081  LM00024
 02163 LXA +0 53400 2 01663    02164 NZT -0 52000 2 01661    02165 TRA +0 02000 0 02167    02166 TSX +0 07400 4 00024
      GO         CONTINUE                                                           082  LM00025
 02167 TRA +0 02000 0 02154
                 ENDPL.                                                             083  LM00026
 02170 TSX +0 07400 4 00005
                 T=BACK.OUT.0                                                       084  LM00027
 02171 CLA +0 50000 0 01756    02172 LXA +0 53400 4 00047    02173 TRA +0 02000 4 00000    02174 CLA +0 50000 0 01756
 02175 ALS +0 76700 0 00017    02176 STT +0 62500 0 02177    02177 PXA +0 75400 0 00000    02200 STO +0 60100 0 01753
      ER1        BADCL(4)=BZEL.(OCABC.(CALL))                                       085  LM00031
 02201 TSX +0 07400 4 00014    02202 TXH +3 00000 0 01621    02203 STO +0 60100 0 02702    02204 TSX +0 07400 4 00000
 02205 TXH +3 00000 0 02702    02206 STO +0 60100 0 00052
                 PRNTP.(BADCL)                                                      086  LM00032
 02207 TSX +0 07400 4 00020    02210 TXH +3 00000 0 00056
                 V'S BADCL=$BAD CALL TO COMBPL FROM $,$$,$ ABS. $,                  087  LM00033
                1   777777777777K                                                   087  LM00034
 00050     -3 77777 7 77777    00051     -2 02122 6 23360    00052     -2 06060 6 06060    00053     -2 02651 4 64460
 00054     +2 34644 2 24743    00055     -0 34360 6 34660    00056     +2 22124 6 02321
                 EXIT.                                                              088  LM00035
 02211 TSX +0 07400 4 00006
      ER2        W'R T(6).A.1K.E.1K                                                 089  LM00037
 02212 CAL -0 50000 0 01745    02213 ANA -0 32000 0 01757    02214 SLW +0 60200 0 02702    02215 CLA +0 50000 0 02702
 02216 SUB +0 40200 0 01757    02217 TNZ -0 10000 0 02226
                    DELFIL.(PT,OUTFIL,ER2A,ERCD)                                    090  LM00038
 02220 TSX +0 07400 4 00004    02221 TXH +3 00000 0 01737    02222 TXH +3 00000 0 01736    02223 TXH +3 00000 0 00034
 02224 TXH +3 00000 0 01634
                    T'O NONE                                                        091  LM00039
 02225 TRA +0 02000 0 00042
                 E'L                                                                092  LM00040
      ER2A       CBPL(4)=PT                                                         093  LM00041
 02226 CLA +0 50000 0 01737    02227 STO +0 60100 0 01624
                 CBPL(5)=OUTFIL                                                     094  LM00042
 02230 CLA +0 50000 0 01736    02231 STO +0 60100 0 01623
                 PRNTP.(CBPL)                                                       095  LM00043
 02232 TSX +0 07400 4 00020    02233 TXH +3 00000 0 01630
                 V'S CBPL=$  COMBPL FOUND OLD FILE $,$$,$$,                         096  LM00044
                1   777777777777K                                                   096  LM00045
 01622     -3 77777 7 77777    01623     -2 06060 6 06060    01624     -2 06060 6 06060    01625     -2 02631 4 32560
 01626     -0 52460 4 64324    01627     -0 74360 2 64664    01630     -2 06023 4 64422
                 FIXUP.(CK1)                                                        097  LM00046
 02234 TSX +0 07400 4 00010    02235 TXH +3 00000 0 00026
      ER3        NFND(1)=PT                                                         098  LM00048
 02236 CLA +0 50000 0 01737    02237 STO +0 60100 0 01724
                 NFND(2)=NAM2(K)                                                    099  LM00049
 02240 LXA +0 53400 2 01663    02241 CLA +0 50000 2 01712    02242 STO +0 60100 0 01723
                 PRNTP.(NFND)                                                       100  LM00050
 02243 TSX +0 07400 4 00020    02244 TXH +3 00000 0 01725
                 V'S NFND=$FILE$,$$,$$,$NOT FOUND - DO YOU WANT TO IGNORE IT$       101  LM00051
                1   ,777777777777K                                                  101  LM00052
 01714     -3 77777 7 77777    01715     -0 65125 6 03163    01716     -2 34660 3 12745    01717     -2 06621 4 56360
 01720     +2 44660 7 04664    01721     -2 44524 6 04060    01722     -0 54663 6 02646    01723     -2 06060 6 06060
 01724     -2 06060 6 06060    01725     +2 63143 2 56060
                 T=RDFLXC.(ANS,6)                                                   102  LM00053
 02245 TSX +0 07400 4 00022    02246 TXH +3 00000 0 00046    02247 TXH +3 00000 0 01763    02250 STO +0 60100 0 01753
                 W'R LJUST.(ANS).E.$YES   $                                         103  LM00054
 02251 TSX +0 07400 4 00013    02252 TXH +3 00000 0 00046    02253 SUB +0 40200 0 02003    02254 TNZ -0 10000 0 02261
                    FLAG(K)=0B                                                      104  LM00055
 02255 LXA +0 53400 1 01663    02256 CLA +0 50000 0 01756    02257 STO +0 60100 1 01661
                 O'E                                                                105  LM00056
 02260 TRA +0 02000 0 02263
                    STOP=1B                                                         106  LM00057
 02261 CLA +0 50000 0 01757    02262 STO +0 60100 0 01740
                 E'L                                                                107  LM00058
                 T'O CK2                                                            108  LM00059
 02263 TRA +0 02000 0 00027
      ER4        FIXUP.(RSTRT)                                                      109  LM00061
 02264 TSX +0 07400 4 00010    02265 TXH +3 00000 0 00044
      RSTRT      STOP=0B                                                            110  LM00062
 02266 CLA +0 50000 0 01756    02267 STO +0 60100 0 01740
                 T'O CK1                                                            111  LM00063
 02270 TRA +0 02000 0 00026
                 V'S STOP=0B                                                        112  LM00067
 01740     +0 00000 0 00000
                 V'S FLAG(0)...FLAG(20)=1B                                          113  LM00068
 01635     +0 00000 0 00001    01636     +0 00000 0 00001    01637     +0 00000 0 00001    01640     +0 00000 0 00001
 01641     +0 00000 0 00001    01642     +0 00000 0 00001    01643     +0 00000 0 00001    01644     +0 00000 0 00001
 01645     +0 00000 0 00001    01646     +0 00000 0 00001    01647     +0 00000 0 00001    01650     +0 00000 0 00001
 01651     +0 00000 0 00001    01652     +0 00000 0 00001    01653     +0 00000 0 00001    01654     +0 00000 0 00001
 01655     +0 00000 0 00001    01656     +0 00000 0 00001    01657     +0 00000 0 00001    01660     +0 00000 0 00001
 01661     +0 00000 0 00001
                 V'S PT=$.PLOT.$                                                    114  LM00069
 01737     +3 34743 4 66333
                 INTERNAL FUNCTION                                                  115  LM00073
 02271 TRA +0 02000 0 02671
                 ENTRY TO TRNSFR.                                                   116  LM00074
 02272 TRA +0 02000 0 02275    00024 TTR +0 02100 0 02273    02273 SXA +0 63400 2 02657    02274 TSX +0 07400 2 02657
                 EOFCT=432                                                          117  LM00075
 02275 CLA +0 50000 0 01774    02276 STO +0 60100 0 01633
                 BLOCKS=33                                                          118  LM00076
 02277 CLA +0 50000 0 01771    02300 STO +0 60100 0 00057
                 LAST=6                                                             119  LM00077
 02301 CLA +0 50000 0 01763    02302 STO +0 60100 0 01666
                 WORD=429                                                           120  LM00078
 02303 CLA +0 50000 0 01773    02304 STO +0 60100 0 01755
                 ENDSW=0B                                                           121  LM00079
 02305 CLA +0 50000 0 01756    02306 STO +0 60100 0 01631
                 EOF2SW=0B                                                          122  LM00080
 02307 CLA +0 50000 0 01756    02310 STO +0 60100 0 01632
                 OPEN.($R$,PT,NAM2(K),-0,-0,ERRK1)                                  123  LM00081
 02311 CLS +0 50200 0 01756    02312 STO +0 60100 0 02667    02313 CLS +0 50200 0 01756    02314 STO +0 60100 0 02670
 02315 CLA +0 50000 0 01663    02316 SUB +0 40200 0 02317    02317 TXH +3 00000 0 01712    02320 STA +0 62100 0 02324
 02321 TSX +0 07400 4 00015    02322 TXH +3 00000 0 02000    02323 TXH +3 00000 0 01737    02324 TXH +3 00000 0 00000
 02325 TXH +3 00000 0 02670    02326 TXH +3 00000 0 02667    02327 TXH +3 00000 0 00040
                 RDFILE.(PT,NAM2(K),0,BUF(432)...432, EOF,EOFCT,ERRK1,ERCD)         124  LM00082
 02330 CLA +0 50000 0 01663    02331 SUB +0 40200 0 02332    02332 TXH +3 00000 0 01712    02333 STA +0 62100 0 02336
 02334 TSX +0 07400 4 00021    02335 TXH +3 00000 0 01737    02336 TXH +3 00000 0 00000    02337 TXH +3 00000 0 01756
 02340 TIX +2 01774 0 00740    02341 TXH +3 00000 0 00032    02342 TXH +3 00000 0 01633    02343 TXH +3 00000 0 00040
 02344 TXH +3 00000 0 01634
                 RDFILE.(PT,NAM2(K),0,BUF(864)...432,EOF2,EOFCT,ERRK1,ERCD)         125  LM00083
 02345 CLA +0 50000 0 01663    02346 SUB +0 40200 0 02347    02347 TXH +3 00000 0 01712    02350 STA +0 62100 0 02353
 02351 TSX +0 07400 4 00021    02352 TXH +3 00000 0 01737    02353 TXH +3 00000 0 00000    02354 TXH +3 00000 0 01756
 02355 TIX +2 01774 0 00060    02356 TXH +3 00000 0 00031    02357 TXH +3 00000 0 01633    02360 TXH +3 00000 0 00040
 02361 TXH +3 00000 0 01634
      PLOTDK     W'R BUF(WORD+4).NE.$ (PLOT$.OR.BUF(WORD+3).NE.$ TAPE)$,            126  LM00084
                1   T'O ERRK2                                                       126  LM00085
 02362 CLA +0 50000 0 01755    02363 ADD +0 40000 0 01761    02364 PAX +0 73400 1 00000    02365 CLA +0 50000 1 01620
 02366 SUB +0 40200 0 02001    02367 TNZ -0 10000 0 02376    02370 CLA +0 50000 0 01755    02371 ADD +0 40000 0 01762
 02372 PAX +0 73400 1 00000    02373 CLA +0 50000 1 01620    02374 SUB +0 40200 0 02002    02375 TZE +0 10000 0 02377
 02376 TRA +0 02000 0 00041
                 T'H LOOP1, FOR L1=0,1,L1.G.BLOCKS                                  127  LM00086
 02377 CLA +0 50000 0 01756    02400 STO +0 60100 0 01664    02401 TRA +0 02000 0 02405    02402 CLA +0 50000 0 01664
 02403 ADD +0 40000 0 01757    02404 STO +0 60100 0 01664    02405 CLA +0 50000 0 01664    02406 SUB +0 40200 0 00057
 02407 TZE +0 10000 0 02411    02410 TPL +0 12000 0 02520
                 W'R L1.E.BLOCKS                                                    128  LM00087
 02411 CLA +0 50000 0 01664    02412 SUB +0 40200 0 00057    02413 TNZ -0 10000 0 02417
                    LIM=LAST                                                        129  LM00088
 02414 CLA +0 50000 0 01666    02415 STO +0 60100 0 01667
                 O'E                                                                130  LM00089
 02416 TRA +0 02000 0 02421
                    LIM=6                                                           131  LM00090
 02417 CLA +0 50000 0 01763    02420 STO +0 60100 0 01667
                 E'L                                                                132  LM00091
                 TAGS=BUF(WORD)                                                     133  LM00092
 02421 LXA +0 53400 2 01755    02422 CLA +0 50000 2 01620    02423 STO +0 60100 0 01742
                 T'H LOOP2, FORL2=1,1,L2.G.LIM                                      134  LM00093
 02424 CLA +0 50000 0 01757    02425 STO +0 60100 0 01665    02426 TRA +0 02000 0 02432    02427 CLA +0 50000 0 01665
 02430 ADD +0 40000 0 01757    02431 STO +0 60100 0 01665    02432 CLA +0 50000 0 01665    02433 SUB +0 40200 0 01667
 02434 TZE +0 10000 0 02436    02435 TPL +0 12000 0 02514
                 TAG=.UNPAC.TAGS                                                    135  LM00094
 02436 PXD -0 75400 0 00000    02437 XCA +0 13100 0 00000    02440 CLA +0 50000 0 01742    02441 LGR -0 76500 0 00002
 02442 RQL -0 77300 0 00003    02443 LGR -0 76500 0 00001    02444 ARS +0 77100 0 00003    02445 STO +0 60100 0 01742
 02446 STQ -0 60000 0 01741
                 W'R TAG.E.0                                                        136  LM00095
 02447 CLA +0 50000 0 01741    02450 SUB +0 40200 0 01756    02451 TNZ -0 10000 0 02466
                    FACTOR.(BUF(WORD-L2*2+1))                                       137  LM00096
 02452 LDQ +0 56000 0 01665    02453 MPY +0 20000 0 01760    02454 XCA +0 13100 0 00000    02455 CHS +0 76000 0 00002
 02456 ADD +0 40000 0 01755    02457 ADD +0 40000 0 01757    02460 SUB +0 40200 0 02461    02461 TXH +3 00000 0 01620
 02462 STA +0 62100 0 02464    02463 TSX +0 07400 4 00007    02464 TXH +3 00000 0 00000
                 O'E                                                                138  LM00097
 02465 TRA +0 02000 0 02513
                    PLOT1.(BUF(WORD-L2*2+1),BUF(WORD-L2*2),TAG)                     139  LM00098
 02466 LDQ +0 56000 0 01665    02467 MPY +0 20000 0 01760    02470 XCA +0 13100 0 00000    02471 CHS +0 76000 0 00002
 02472 ADD +0 40000 0 01755    02473 SUB +0 40200 0 02474    02474 TXH +3 00000 0 01620    02475 STA +0 62100 0 02511
 02476 LDQ +0 56000 0 01665    02477 MPY +0 20000 0 01760    02500 XCA +0 13100 0 00000    02501 CHS +0 76000 0 00002
 02502 ADD +0 40000 0 01755    02503 ADD +0 40000 0 01757    02504 SUB +0 40200 0 02505    02505 TXH +3 00000 0 01620
 02506 STA +0 62100 0 02510    02507 TSX +0 07400 4 00016    02510 TXH +3 00000 0 00000    02511 TXH +3 00000 0 00000
 02512 TXH +3 00000 0 01741
                 E'L                                                                140  LM00099
      LOOP2      CONTINUE                                                           141  LM00100
 02513 TRA +0 02000 0 02427
                    WORD=WORD-13                                                    142  LM00101
 02514 CLA +0 50000 0 01755    02515 SUB +0 40200 0 01766    02516 STO +0 60100 0 01755
      LOOP1      CONTINUE                                                           143  LM00102
 02517 TRA +0 02000 0 02402
                 W'R ENDSW, T'O END                                                 144  LM00103
 02520 NZT -0 52000 0 01631    02521 TRA +0 02000 0 02523    02522 TRA +0 02000 0 00030
                 W'R ALTSW                                                          145  LM00104
 02523 NZT -0 52000 0 00045    02524 TRA +0 02000 0 02534
                    J=432                                                           146  LM00105
 02525 CLA +0 50000 0 01774    02526 STO +0 60100 0 01662
                 WORD=861                                                           147  LM00106
 02527 CLA +0 50000 0 01775    02530 STO +0 60100 0 01755
                    ALTSW=0B                                                        148  LM00107
 02531 CLA +0 50000 0 01756    02532 STO +0 60100 0 00045
                 O'E                                                                149  LM00108
 02533 TRA +0 02000 0 02542
                    J=864                                                           150  LM00109
 02534 CLA +0 50000 0 01776    02535 STO +0 60100 0 01662
                    WORD=429                                                        151  LM00110
 02536 CLA +0 50000 0 01773    02537 STO +0 60100 0 01755
                    ALTSW=1B                                                        152  LM00111
 02540 CLA +0 50000 0 01757    02541 STO +0 60100 0 00045
                 E'L                                                                153  LM00112
                 W'R EOF2SW, T'O EOF                                                154  LM00113
 02542 NZT -0 52000 0 01632    02543 TRA +0 02000 0 02545    02544 TRA +0 02000 0 00032
                 EOFCT=432                                                          155  LM00114
 02545 CLA +0 50000 0 01774    02546 STO +0 60100 0 01633
                 RDFILE.(PT,NAM2(K),0,BUF(J)...432,EOF2,EOFCT,ERRK1,ERCD)           156  LM00115
 02547 CLA +0 50000 0 01662    02550 SUB +0 40200 0 02551    02551 TXH +3 00000 0 01620    02552 STA +0 62100 0 02563
 02553 CLA +0 50000 0 01663    02554 SUB +0 40200 0 02555    02555 TXH +3 00000 0 01712    02556 STA +0 62100 0 02561
 02557 TSX +0 07400 4 00021    02560 TXH +3 00000 0 01737    02561 TXH +3 00000 0 00000    02562 TXH +3 00000 0 01756
 02563 TIX +2 01774 0 00000    02564 TXH +3 00000 0 00031    02565 TXH +3 00000 0 01633    02566 TXH +3 00000 0 00040
 02567 TXH +3 00000 0 01634
                 T'O PLOTDK                                                         157  LM00116
 02570 TRA +0 02000 0 00043
      EOF        FWAIT.(PT,NAM2(K), ERRK1, ERCD)                                    158  LM00118
 02571 CLA +0 50000 0 01663    02572 SUB +0 40200 0 02573    02573 TXH +3 00000 0 01712    02574 STA +0 62100 0 02577
 02575 TSX +0 07400 4 00012    02576 TXH +3 00000 0 01737    02577 TXH +3 00000 0 00000    02600 TXH +3 00000 0 00040
 02601 TXH +3 00000 0 01634
                 BLOCKS=(EOFCT-3)/13                                                159  LM00119
 02602 CLA +0 50000 0 01633    02603 SUB +0 40200 0 01761    02604 LRS +0 76500 0 00043    02605 DVP +0 22100 0 01766
 02606 STQ -0 60000 0 00057
                 LAST=(EOFCT-BLOCKS*13-3)/2                                         160  LM00120
 02607 LDQ +0 56000 0 00057    02610 MPY +0 20000 0 01766    02611 XCA +0 13100 0 00000    02612 CHS +0 76000 0 00002
 02613 ADD +0 40000 0 01633    02614 SUB +0 40200 0 01761    02615 LRS +0 76500 0 00043    02616 DVP +0 22100 0 01760
 02617 STQ -0 60000 0 01666
                 BLOCKS=BLOCKS+1                                                    161  LM00121
 02620 CLA +0 50000 0 00057    02621 ADD +0 40000 0 01757    02622 STO +0 60100 0 00057
                 ENDSW=1B                                                           162  LM00122
 02623 CLA +0 50000 0 01757    02624 STO +0 60100 0 01631
                 T'O PLOTDK                                                         163  LM00123
 02625 TRA +0 02000 0 00043
      EOF2       EOF2SW=1B                                                          164  LM00125
 02626 CLA +0 50000 0 01757    02627 STO +0 60100 0 01632
                 T'O PLOTDK                                                         165  LM00126
 02630 TRA +0 02000 0 00043
      END        CLOSE.(PT,NAM2(K),ERRK1,ERCD)                                      166  LM00128
 02631 CLA +0 50000 0 01663    02632 SUB +0 40200 0 02633    02633 TXH +3 00000 0 01712    02634 STA +0 62100 0 02637
 02635 TSX +0 07400 4 00001    02636 TXH +3 00000 0 01737    02637 TXH +3 00000 0 00000    02640 TXH +3 00000 0 00040
 02641 TXH +3 00000 0 01634
                 F'N                                                                167  LM00129
 02642 TRA +0 02000 0 02663
      ERRK1      PRNTER.(371K)                                                      168  LM00130
 02643 TSX +0 07400 4 00017    02644 TXH +3 00000 0 01772
                 EXIT.                                                              169  LM00131
 02645 TSX +0 07400 4 00006
      ERRK2      NOPLOT(1)=PT                                                       170  LM00132
 02646 CLA +0 50000 0 01737    02647 STO +0 60100 0 01734
                 NOPLOT(2)=NAM2(K)                                                  171  LM00133
 02650 LXA +0 53400 2 01663    02651 CLA +0 50000 2 01712    02652 STO +0 60100 0 01733
                 PRNTP.(NOPLOT)                                                     172  LM00134
 02653 TSX +0 07400 4 00020    02654 TXH +3 00000 0 01735
                    V'S NOPLOT=$ FILE $,$$,$$,$ IS OF IMPROPER FORMAT$              173  LM00135
                1   ,777777777777K                                                  173  LM00136
 01726     -3 77777 7 77777    01727     -1 14421 6 36060    01730     -0 72551 6 02646    01731     -2 03144 4 75146
 01732     -2 03162 6 04626    01733     -2 06060 6 06060    01734     -2 06060 6 06060    01735     -2 02631 4 32560
                 EXIT.                                                              174  LM00137
 02655 TSX +0 07400 4 00006
                 END OF FUNCTION                                                    175  LM00139
 02656 TSX +0 07400 4 00006    02657 TXH +3 00000 0 00000    02660 SXD -0 63400 1 02657    02661 SXA +0 63400 4 02663
 02662 TRA +0 02000 2 00001    02663 AXT +0 77400 4 00000    02664 LXA +0 53400 2 02657    02665 LXD -0 53400 1 02657
 02666 TRA +0 02000 4 00001
                 END OF FUNCTION                                                    176  LM00141
 02671 TSX +0 07400 4 00006    02672 TXH +3 00000 0 00000    02673 SXD -0 63400 1 02672    02674 SXA +0 63400 4 02676
 02675 TRA +0 02000 2 00001    02676 AXT +0 77400 4 00000    02677 LXA +0 53400 2 02672    02700 LXD -0 53400 1 02672
 02701 TRA +0 02000 4 00001


 FIXUP   BCD 01/29/68 1552.4    1632         00000
1     MAD PROGRAM LISTING ... ... ...                 FILE   FIXUP   MAD            01/29/68    1545.4
-
                  EXTERNAL FUNCTION (OUT)                                                         *001 LM00001
                  STATEMENT LABEL OUT                                                             *002 LM00002
                  NORMAL MODE IS INTEGER                                                          *003 LM00003
                  ENTRY TO FIXUP.                                                                 *004 LM00004
                  WHOAMI.(A(2)...2)                                                               *005 LM00005
                  FSTATE.(A(1),$ SAVED$,T(8)...8,TEST,CODE)                                       *006 LM00006
      TEST        WHENEVER (T(7).G.0.AND.T(7).A.1K.NE.0).OR.CODE.E.3, TRANSFER TO PROGL           *007 LM00007
                  FIX(5)=$..PLOT$                                                                 *008 LM00008
                  TAB(1)=$..PLOT$                                                                 *009 LM00009
      GO          PRNTP.(FIX)                                                                     *010 LM00010
                     VECTOR VALUES FIX=$  FIX PROBLEM, THEN TYPE ' R $,$$,                        *011 LM00011
                1    $ ' TO CONTINUE $,777777777777K                                              *011 LM00012
                  SCLS.(TAB,1)                                                                    *012 LM00013
                     VECTOR VALUES TAB=$  SAVE$,$$,$     T$                                       *013 LM00014
                1    ,777777777777K                                                               *013 LM00015
                  SCLC.(1,1)                                                                      *014 LM00016
                  CHNCOM.(1)                                                                      *015 LM00017
                  TRANSFER TO OUT                                                                 *016 LM00018
      PROGL       FIX(5)=$$                                                                       *017 LM00019
                  TAB(1)=A(1)                                                                     *018 LM00020
                  TRANSFER TO GO                                                                  *019 LM00021
                  DIMENSION A(2), T(8)                                                            *020 LM00022
                  END OF FUNCTION                                                                 *021 LM00023
1MAD PROGRAM,TYPE NOV 1963      (ALL NUMBERS ARE OCTAL)
0TOTAL LOCATIONS   00153 TRANSFER VECTOR LENGTH  00007 PROGRAM BEGINS    00057
0 PROGRAM IS AN EXTERNAL FUNCTION.   THE FOLLOWING ARE ENTRIES
      FIXUP  00060   0
0VARIABLE STORAGE (A=ARRAY,C=COMMON,E=ERASABLE,DIGIT=MODE)
      A      00015 A 1        FIX    00030 A 1        PROGL  00011   4        TEST   00012   4        T      00045 A 1
      CODE   00016   1        GO     00010   4        TAB    00034 A 1
0FUNCTION DICTIONARY
      CHNCOM 00000   1        EXIT   00001   1        FSTATE 00002   1        PRNTP  00003   1        SCLC   00004   1
      SCLS   00005   1        WHOAMI 00006   1
0ABSOLUTE CONSTANTS
 00055 -206060606060     00054 +333347434663     00046 +000000000000     00051 +000000000003     00052 +000000000010
 00056 -206221652524     00050 +000000000002     00047 +000000000001     00053 +233000000000
0STATEMENT DICTIONARY
 00010 TXL -300117000115       00011 TXL -300132000130       00012 TXL -300111000072
0PROGRAM
                 EXTERNAL FUNCTION (OUT)                                            001  LM00001
                 STATEMENT LABEL OUT                                                002  LM00002
                 N'R                                                                003  LM00003
                 ENTRY TO FIXUP.                                                    004  LM00004
 00057 TRA +0 02000 0 00062    00060 SXA +0 63400 2 00136    00061 TSX +0 07400 2 00136
                 WHOAMI.(A(2)...2)                                                  005  LM00005
 00062 TSX +0 07400 4 00006    00063 TIX +2 00050 0 00013
                 FSTATE.(A(1),$ SAVED$,T(8)...8,TEST,CODE)                          006  LM00006
 00064 TSX +0 07400 4 00002    00065 TXH +3 00000 0 00014    00066 TXH +3 00000 0 00056    00067 TIX +2 00052 0 00035
 00070 TXH +3 00000 0 00012    00071 TXH +3 00000 0 00016
      TEST       W'R (T(7).G.0.AND.T(7).A.1K.NE.0).OR.CODE.E.3, T'O PROGL           007  LM00007
 00072 CLA +0 50000 0 00016    00073 SUB +0 40200 0 00051    00074 TZE +0 10000 0 00110    00075 CAL -0 50000 0 00036
 00076 ANA -0 32000 0 00047    00077 SLW +0 60200 0 00150    00100 CLA +0 50000 0 00150    00101 SUB +0 40200 0 00046
 00102 TZE +0 10000 0 00107    00103 CLA +0 50000 0 00036    00104 SUB +0 40200 0 00046    00105 TZE +0 10000 0 00107
 00106 TPL +0 12000 0 00110    00107 TRA +0 02000 0 00111    00110 TRA +0 02000 0 00011
                 FIX(5)=$..PLOT$                                                    008  LM00008
 00111 CLA +0 50000 0 00054    00112 STO +0 60100 0 00023
                 TAB(1)=$..PLOT$                                                    009  LM00009
 00113 CLA +0 50000 0 00054    00114 STO +0 60100 0 00033
      GO         PRNTP.(FIX)                                                        010  LM00010
 00115 TSX +0 07400 4 00003    00116 TXH +3 00000 0 00030
                    V'S FIX=$  FIX PROBLEM, THEN TYPE ' R $,$$,                     011  LM00011
                1   $ ' TO CONTINUE $,777777777777K                                 011  LM00012
 00017     -3 77777 7 77777    00020     -2 42560 6 06060    00021     +2 34645 6 33145    00022     -2 01460 6 34660
 00023     -2 06060 6 06060    00024     -2 01460 5 16060    00025     -0 56063 7 04725    00026     -0 47360 6 33025
 00027     -0 75146 2 24325    00030     -2 06026 3 16760
                 SCLS.(TAB,1)                                                       012  LM00013
 00117 TSX +0 07400 4 00005    00120 TXH +3 00000 0 00034    00121 TXH +3 00000 0 00047
                    V'S TAB=$  SAVE$,$$,$     T$                                    013  LM00014
                1   ,777777777777K                                                  013  LM00015
 00031     -3 77777 7 77777    00032     -2 06060 6 06063    00033     -2 06060 6 06060    00034     -2 06062 2 16525
                 SCLC.(1,1)                                                         014  LM00016
 00122 TSX +0 07400 4 00004    00123 TXH +3 00000 0 00047    00124 TXH +3 00000 0 00047
                 CHNCOM.(1)                                                         015  LM00017
 00125 TSX +0 07400 4 00000    00126 TXH +3 00000 0 00047
                 T'O OUT                                                            016  LM00018
 00127 TRA +0 02000 0 00024
      PROGL      FIX(5)=$$                                                          017  LM00019
 00130 CLA +0 50000 0 00055    00131 STO +0 60100 0 00023
                 TAB(1)=A(1)                                                        018  LM00020
 00132 CLA +0 50000 0 00014    00133 STO +0 60100 0 00033
                 T'O GO                                                             019  LM00021
 00134 TRA +0 02000 0 00010
                 DIMENSION A(2), T(8)                                               020  LM00022
                 END OF FUNCTION                                                    021  LM00023
 00135 TSX +0 07400 4 00001    00136 TXH +3 00000 0 00000    00137 SXD -0 63400 1 00136    00140 SXA +0 63400 4 00144
 00141 CLA +0 50000 4 00001    00142 STA +0 62100 0 00127    00143 TRA +0 02000 2 00001    00144 AXT +0 77400 4 00000
 00145 LXA +0 53400 2 00136    00146 LXD -0 53400 1 00136    00147 TRA +0 02000 4 00001


  NUMB   BCD 02/12/68 0923.1    3240         00000
1                                                                                                PAGE 1


  BINARY CARD NO. NUMBR100
                       00007         ENTRY   NUMBR1

        TRANSFER VECTOR

  BINARY CARD NO. NUMBR101
      00000  456444476060     NUMP
      00001  255145466325     ERNOTE
      00002  234662606060     COS
      00003  623145606060     SIN
      00004  627044224305     SYMBL5

            LINKAGE DIRECTOR
      00005  000000000000
      00006  456444225101

      00007  0634 00 1 00245  NUMBR1 SXA     X1,1
      00010 -0634 00 4 00005         SXD     NUMBR1-2,4
      00011  0634 00 4 00275         SXA     NUMARG,4
                                                           TEST THAT NUMBER OF ARGUMENTS = 6.
      00012  0074 00 4 00000         TSX     $NUMP,4
 T    00013  0074 00 0 00345         TSX     =O2
 T    00014  0074 00 0 00260         TSX     SIXQ
 T    00015  0074 00 0 00275         TSX     NUMARG
      00016 -0534 00 4 00005         LXD     NUMBR1-2,4
      00017  0500 00 0 00260         CLA     SIXQ
      00020  0402 00 0 00347         SUB     =O6
      00021  0100 00 0 00025         TZE     OK
      00022  0074 00 4 00001         TSX     $ERNOTE,4
 TD   00023  3 00000 0 00345         TXH     =O2

  BINARY CARD NO. NUMBR102
 TD   00024  3 00000 0 00364         TXH     =HNUMBR1
                                                           STORE ARGUMENTS
      00025  0500 60 4 00001   OK    CLA*    1,4
      00026  0601 00 0 00272         STO     X
      00027  0500 60 4 00002         CLA*    2,4
      00030  0601 00 0 00273         STO     Y
      00031  0500 60 4 00003         CLA*    3,4
      00032  0601 00 0 00276         STO     S
      00033  0500 60 4 00004         CLA*    4,4
      00034  0601 00 0 00274         STO     FLOAT
      00035  0500 60 4 00005         CLA*    5,4
      00036  0601 00 0 00277         STO     T
      00037  0500 60 4 00006         CLA*    6,4
      00040 -0120 00 0 00300         TMI     FIXED                   FIXED POINT NO. TEST
      00041  0767 00 0 00022         ALS     18
      00042  0601 00 0 00270         STO     N
      00043 -0734 00 1 00000         PDX     0,1
      00044 -0520 00 0 00270         NZT     N
      00045  0020 00 0 00253         TRA     NISZ
      00046  0500 00 0 00353         CLA     =.0501
      00047  0560 00 0 00274  GF     LDQ     FLOAT
1                                                                                                PAGE 2

  BINARY CARD NO. NUMBR103
      00050  0162 00 0 00052         TQP     *+2
      00051 -0760 00 0 00003         SSM
      00052  2 00001 1 00054  TIX    TIX     *+2,1,1
      00053  0020 00 0 00057         TRA     LN1
      00054  0131 00 0 00000         XCA
      00055  0260 00 0 00354         FMP     =.1
      00056  0020 00 0 00052         TRA     TIX
      00057  0120 00 0 00250  LN1    TPL     PLUS
      00060  0302 00 0 00274         FSB     FLOAT
      00061 -0120 00 0 00255         TMI     ZFL
      00062  0300 00 0 00274  NZF    FAD     FLOAT
      00063  0300 00 0 00274         FAD     FLOAT
      00064  0601 00 0 00274         STO     FLOAT
      00065  0131 00 0 00000         XCA                                                             M
      00066 -0600 00 0 00265  SBCD   STQ     BCD
      00067  0260 00 0 00360         FMP     =100000.
      00070  0601 00 0 00266         STO BCD+1                   FLOAT X 10 TO FIFTH
      00071  0560 00 0 00266         LDQ BCD+1
      00072  0260 00 0 00361         FMP     =1000000.
      00073  0601 00 0 00267         STO BCD+2                   FLOAT X 10 TO ELEVENTH
                                                           TEST IF NUMBER TOO BIG
                                                           ROUND TO LAST DIGIT TO BE WRITTEN

  BINARY CARD NO. NUMBR104
      00074  0500 00 0 00274         CLA     FLOAT
      00075  0760 00 0 00003         SSP
      00076  0306 00 0 00361         FSM     =1000000.
      00077  0120 00 0 00261         TPL     TOOB
      00100  0774 00 1 00003   CONV  AXT     3,1
      00101  0500 00 1 00270   CLA   CLA BCD+3,1
      00102  0074 00 4 00311         TSX     BCDFL1,4
      00103 -0600 00 1 00270         STQ     BCD+3,1
      00104  2 00001 1 00101         TIX CLA,1,1
      00105  0500 00 0 00266         CLA BCD+1
      00106 -0320 00 0 00352         ANA     =O1717171717  ELIMINATE FIRST CHARACTER
      00107 -0501 00 0 00363         ORA     =H.00000      INSERT DECIMAL POINT
      00110  0601 00 0 00266         STO BCD+1
                                                           GET COUNT OF NO. OF CH. TO LEFT OF DEC. AND
                                                             ADD 1 FOR DEC.
      00111  0774 00 1 00006  COUNT  AXT     6,1
      00112  0560 00 0 00265         LDQ     BCD
      00113  0760 00 0 00000         CLM
      00114 -0763 00 0 00006         LGL 6
      00115 -0100 00 0 00120         TNZ HOP
      00116  2 00001 1 00114         TIX *-2,1,1
      00117  0774 00 1 00000         AXT     0,1

  BINARY CARD NO. NUMBR105
      00120  1 00001 1 00121  HOP    TXI     *+1,1,1
      00121 -0754 00 1 00000         PXD     ,1
      00122 -0734 00 4 00000         PDX     0,4
      00123  0400 00 0 00270         ADD     N
      00124  0622 00 0 00271         STD     N1
                                                           SHIFT BCD(0),BCD(1), AND BCD(2), TO REMOVE
                                                           LEADING ZEROES FROM NO.
1                                                                                                PAGE 3

      00125  0500 00 0 00265         CLA     BCD
      00126  0560 00 0 00266         LDQ     BCD+1
      00127  3 00006 1 00132         TXH     *+3,1,6
      00130 -0763 00 0 00006         LGL     6
      00131  1 00001 1 00127         TXI     *-2,1,1
      00132 -0600 00 0 00266         STQ     BCD+1
      00133  0601 00 0 00265         STO     BCD
      00134 -0754 00 0 00000         ZAC
      00135  0560 00 0 00267         LDQ     BCD+2
      00136  3 00006 4 00141         TXH     *+3,4,6
      00137 -0763 00 0 00006         LGL     6
      00140  1 00001 4 00136         TXI     *-2,4,1
      00141 -0602 00 0 00266         ORS     BCD+1
      00142 -0600 00 0 00267         STQ     BCD+2
      00143  0500 00 0 00271         CLA     N1

  BINARY CARD NO. NUMBR106
      00144  0340 00 0 00351         CAS     =O1000000
      00145  0020 00 0 00150         TRA     NFLOAT
      00146  0020 00 0 00147         TRA     *+1
      00147  0600 00 0 00274         STZ     FLOAT                     IF YES, FORCE 0.
      00150  0560 00 0 00274  NFLOAT LDQ     FLOAT
      00151  0162 00 0 00170         TQP     NSET
                                                           INSERT - SIGN FOR NEGATIVE FLOAT
      00152  0400 00 0 00351         ADD     =O1000000
      00153  0601 00 0 00271         STO     N1
      00154  0500 00 0 00265         CLA     BCD
      00155  0560 00 0 00266         LDQ     BCD+1
      00156 -0765 00 0 00006         LGR     6
      00157 -0760 00 0 00003         SSM
      00160  0601 00 0 00265         STO     BCD
      00161  0500 00 0 00266         CLA     BCD+1
      00162 -0600 00 0 00266         STQ     BCD+1
      00163  0560 00 0 00267         LDQ     BCD+2
      00164 -0763 00 0 00036         LGL     30
      00165  0601 00 0 00267         STO     BCD+2
      00166  0500 00 0 00271         CLA     N1
      00167  0560 00 0 00274         LDQ     FLOAT
                                                           SEE NO DEC. POINT WRITTEN IF N WAS 0.

  BINARY CARD NO. NUMBR107
      00170  0520 00 0 00270  NSET   ZET     N
      00171  0020 00 0 00175         TRA     STO
      00172  0520 00 0 00274         ZET     FLOAT
      00173  0020 00 0 00307         TRA     SUB
      00174 -0600 00 0 00265         STQ     BCD
      00175  0601 00 0 00270  STO    STO     N
      00176  0500 00 0 00276         CLA     S
      00177  0120 00 0 00231         TPL     FINI
                                                           S IS NEG. SO CHANGE X,Y FOR CENTERING UNDER
                                                              TIC MARK
      00200  0500 00 0 00270         CLA     N
      00201  0771 00 0 00022         ARS     18
      00202 -0501 00 0 00362         ORA     =O233000000000
      00203  0300 00 0 00362         FAD     =O233000000000
      00204  0241 00 0 00357         FDP     =2.
1                                                                                                PAGE 4

      00205  0260 00 0 00354         FMP     =.1
      00206  0601 00 0 00274         STO     FLOAT
      00207  0500 00 0 00277         CLA     T
      00210 -0100 00 0 00213         TNZ     COSINE
      00211  0500 00 0 00356         CLA     =1.
      00212  0020 00 0 00214         TRA     COSINE+1      COSINE 0 DEGREES=1.
      00213  0074 00 4 00002  COSINE TSX     $COS,4

  BINARY CARD NO. NUMBR108
      00214  0131 00 0 00000         XCA
      00215  0260 00 0 00274         FMP     FLOAT
      00216  0760 00 0 00002         CHS
      00217  0300 00 0 00272         FAD     X
      00220  0601 00 0 00272         STO     X
      00221  0500 00 0 00277         CLA     T
      00222  0100 00 0 00224         TZE     *+2           SINE 0 DEGREES =0
      00223  0074 00 4 00003         TSX     $SIN,4
      00224  0131 00 0 00000         XCA
      00225  0260 00 0 00274         FMP     FLOAT
      00226  0760 00 0 00002         CHS
      00227  0300 00 0 00273         FAD     Y
      00230  0601 00 0 00273         STO     Y
      00231  0500 00 0 00276  FINI   CLA     S
      00232  0760 00 0 00003         SSP
      00233  0601 00 0 00276         STO     S
      00234  0074 00 4 00004         CALL    SYMBL5,X,Y,S,BCD,T,N
      00235  0074 00 0 00272
      00236  0074 00 0 00273
      00237  0074 00 0 00276

  BINARY CARD NO. NUMBR109
      00240  0074 00 0 00265
      00241  0074 00 0 00277
      00242  0074 00 0 00270
      00243  1 00000 0 00245
      00244  0 00352 0 00005
      00245  0774 00 1 00000  X1     AXT     **,1
      00246 -0534 00 4 00005         LXD     NUMBR1-2,4
      00247  0020 00 4 00007         TRA 7,4
      00250  0302 00 0 00274  PLUS   FSB     FLOAT
      00251  0120 00 0 00255         TPL     ZFL
      00252  0020 00 0 00062         TRA     NZF
      00253  0500 00 0 00355  NISZ   CLA     =.501
      00254  0020 00 0 00047         TRA     GF
      00255  0600 00 0 00274  ZFL    STZ     FLOAT
      00256  0560 00 0 00274         LDQ     FLOAT
      00257  0020 00 0 00066         TRA     SBCD
      00260  0 00000 0 00006  SIXQ   PZE     6
      00261  0074 00 4 00001  TOOB   TSX     $ERNOTE,4
 TD   00262  3 00000 0 00346         TXH     =O3
 TD   00263  3 00000 0 00274         TXH     FLOAT

  BINARY CARD NO. NUMBR110
      00264  0020 00 0 00100         TRA     CONV
      00265                   BCD    BSS     3
1                                                                                                PAGE 5

  BINARY CARD NO. NUMBR111
      00270  0 00000 0 00000  N      PZE     **
      00271  0 00000 0 00000  N1     PZE     **
      00272  0 00000 0 00000  X      PZE     **
      00273  0 00000 0 00000  Y      PZE     **
      00274  0 00000 0 00000  FLOAT  PZE     **
      00275  0 00000 0 00000  NUMARG PZE     **
      00276  0 00000 0 00000  S      PZE     **
      00277  0 00000 0 00000  T      PZE     **
      00300  0600 00 0 00270  FIXED  STZ     N
      00301  0500 00 0 00274         CLA     FLOAT
      00302  0765 00 0 00065         LRS     53
      00303  0074 00 4 00320         TSX     BCDFX1,4
      00304 -0600 00 0 00265         STQ     BCD
      00305  0600 00 0 00266         STZ     BCD+1
      00306  0020 00 0 00111         TRA     COUNT
      00307  0402 00 0 00351  SUB    SUB     =O1000000
      00310  0020 00 0 00175         TRA     STO
                                         CONVERT FIXED OR FLOATING NUMBER TO BCD
                                         ENTER AT BCDFL1 WITH FLOATING POINT NUMBER IN AC
                                         ENTER AT BCDFX1 WITH FIXED POINT NUMBER IN MQ
                                         ANSWER IS IN M Q

      00311  0634 00 1 00340  BCDFL1 SXA     XR1,1
      00312  0765 00 0 00033         LRS 27
      00313  0734 00 1 00000         PAX 0,1

  BINARY CARD NO. NUMBR112
      00314  0760 00 0 00000         CLM
      00315  0763 00 0 00043         LLS 35
      00316  0765 00 1 00306         LRS 198,1
      00317  0020 00 0 00321         TRA     BCDFX1+1
      00320  0634 00 1 00340  BCDFX1 SXA     XR1,1
      00321  0634 00 4 00337         SXA     X4,4
      00322  0600 00 0 00342         STZ IMAGE
      00323  0774 00 1 00044         AXT     36,1
      00324  0100 00 0 00331         TZE     DVP
      00325 -0600 00 0 00343  TOOBG  STQ     MQ
      00326  0131 00 0 00000         XCA                                                             M
      00327  0221 00 0 00350         DVP     =10
      00330  0560 00 0 00343         LDQ     MQ
      00331  0221 00 0 00350  DVP    DVP     =10
      00332  0767 00 1 00044         ALS     36,1
      00333 -0602 00 0 00342         ORS IMAGE
      00334  0760 00 0 00000         CLM
      00335  2 00006 1 00331         TIX     DVP,1,6
      00336  0560 00 0 00342         LDQ     IMAGE
      00337  0774 00 4 00000  X4     AXT     **,4

  BINARY CARD NO. NUMBR113
      00340  0774 00 1 00000  XR1    AXT     **,1
      00341  0020 00 4 00001         TRA 1,4
      00342  0 00000 0 00000   IMAGE PZE 0
      00343  0 00000 0 00000  MQ     PZE     0
      00344  0 00000 0 00000  MDSW   PZE
                                     END
1                                                                                                PAGE 6

        LITERALS
      00345  000000000002
      00346  000000000003
      00347  000000000006
      00350  000000000012
      00351  000001000000
      00352  001717171717
      00353  174632326502
      00354  175631463146
      00355  200400406111
      00356  201400000000
      00357  202400000000
      00360  221606500000
      00361  224750220000
      00362  233000000000
      00363  330000000000

  BINARY CARD NO. NUMBR114
      00364  456444225101
1                                                                                                PAGE 1
                        POST PROCESSOR ASSEMBLY DATA

        365 IS THE FIRST LOCATION NOT USED BY THIS PROGRAM

0REFERENCES TO DEFINED SYMBOLS
        270      N    42,   44,  123,  170,  175,  200,  242,  300
        276      S    32,  176,  231,  233,  237
        277      T    36,  207,  221,  241
        272      X    26,  217,  220,  235
        273      Y    30,  227,  230,  236
         47     GF   254
        343     MQ   325,  330
        271     N1   124,  143,  153,  166
         25     OK    21
        245     X1     7
        337     X4   321
        265    BCD    66,   70,   71,   73,  101,  103,  105,  110,  112,  125,  126,  132,  133,  135,  141,  142,  154
                     155,  160,  161,  162,  163,  165,  174,  240,  304,  305
        101    CLA   104
          2    COS   213
        331    DVP   324,  335
        120    HOP   115
         57    LN1    53
         62    NZF   252
          3    SIN   223
        175    STO   171,  310
        307    SUB   173
         52    TIX    56
        340    XR1   311,  320
        255    ZFL    61,  251
        100   CONV   264
        231   FINI   177
        344   MDSW
        253   NISZ    45
        170   NSET   151
          0   NUMP    12
        250   PLUS    57
         66   SBCD   257
        260   SIXQ    14,   17
        261   TOOB    77
        111  COUNT   306
        300  FIXED    40
        274  FLOAT    34,   47,   60,   62,   63,   64,   74,  147,  150,  167,  172,  206,  215,  225,  250,  255,  256
                     263,  301
        342  IMAGE   322,  333,  336
        325  TOOBG
        311 BCDFL1   102
        320 BCDFX1   303,  317
        213 COSINE   210,  212
          1 ERNOTE    22,  261
        150 NFLOAT   145
        275 NUMARG    11,   15
          7 NUMBR1     0,   10,   16,  246
          4 SYMBL5   234
1                                                                                                PAGE 2
                        POST PROCESSOR ASSEMBLY DATA

0 NO ERROR IN ABOVE ASSEMBLY.


  NUMP   BCD 01/29/68 1552.4     750         00000
1                                                                                                PAGE 1

                                                SUBROUTINE TO COUNT ARGUEMENTS

  BINARY CARD NO. NUMP0000
                       00003         ENTRY   NUMP
                       00043         ENTRY   PCTEXT
                                     EXTERN  PICTUR

        TRANSFER VECTOR

  BINARY CARD NO. NUMP0001
      00000  473123636451     PICTUR

            LINKAGE DIRECTOR
      00001  000000000000
      00002  456444476060

      00003 -0634 00 4 00001  NUMP   SXD     NUMP-2,4
      00004  0634 00 2 00037         SXA     IR2,2
      00005  0634 00 1 00033         SXA     REST,1
      00006  0500 60 4 00001         CLA*    1,4
      00007  0601 00 0 00042         STO     SOURCE
      00010  0500 60 4 00003  GET    CLA*    3,4
      00011  0734 00 1 00000         PAX     ,1
      00012  0774 00 2 00000         AXT     0,2
      00013 -0500 00 1 00001  TTST   CAL     1,1
      00014 -0320 00 0 00050         ANA     =O777777700000  CHECK DECREMENT AND PREFIX
      00015  0100 00 0 00024         TZE     OK              PZE NO DECREMENT,  F A P CALL
      00016  0402 00 0 00045         SUB     =O007400000000
      00017  0100 00 0 00024         TZE     OK              TAGLESS TSX, F II CALL
      00020 -0500 00 1 00001         CAL     1,1
      00021 -0320 00 0 00047         ANA     =O700000000000    KEEP ONLY PREFIX FOR MAD CHECK
      00022  0402 00 0 00046         SUB     =O300000000000  IS IT TXH, NO DECREMENT, M A D CALL
      00023 -0100 00 0 00027         TNZ     TOT

  BINARY CARD NO. NUMP0002
      00024  1 77777 1 00025  OK     TXI     *+1,1,-1      DECREASE X1 TO GET NEXT INSTRUCTION
      00025  1 00001 2 00026         TXI     *+1,2,1  INCREASE COUNT
      00026  0020 00 0 00013         TRA     TTST        TEST NEXT INST.
      00027  0520 00 0 00042  TOT    ZET     SOURCE          WAS IT A CALL FROM PICTUR
      00030  0020 00 0 00033         TRA     REST        NOT PICTUR
      00031  1 77777 1 00032         TXI     *+1,1,-1
      00032  0634 00 1 00043         SXA     PCTEXT,1
      00033  0774 00 1 00000  REST   AXT     **,1
      00034 -0534 00 4 00001         LXD     NUMP-2,4
      00035  0754 00 2 00000         PXA     ,2
      00036  0601 60 4 00002         STO*    2,4        IN N
      00037  0774 00 2 00000  IR2    AXT     **,2
      00040  0020 00 4 00004         TRA     4,4
      00041  0 00000 0 00000  EP     PZE     **
      00042  0 00000 0 00000  SOURCE PZE     **
                                                 RETURN FROM PICTUR TO CALLING PROGRAM - ALLOWING FOR
                                                    VARIABLE NUMBER OF ARGUMENTS.
      00043  0774 00 4 00000  PCTEXT AXT     **,4
      00044  0020 00 4 00000         TRA     0,4
                                     END
1                                                                                                PAGE 2

        LITERALS
      00045  007400000000
      00046  300000000000
      00047  700000000000

  BINARY CARD NO. NUMP0003
      00050  777777700000
1                                                                                                PAGE 1
                        POST PROCESSOR ASSEMBLY DATA

         51 IS THE FIRST LOCATION NOT USED BY THIS PROGRAM

0REFERENCES TO DEFINED SYMBOLS
         41     EP
         24     OK    15,   17
         10    GET
         37    IR2     4
         27    TOT    23
          3   NUMP     0,    3,   34
         33   REST     5,   30
         13   TTST    26
         43 PCTEXT     0,   32
          0 PICTUR
         42 SOURCE     7,   27

0 NO ERROR IN ABOVE ASSEMBLY.


  SYM5   BCD 01/29/68 1552.4    6187         00000
1            FORTRAN LINKAGE                                                                     PAGE 1


  BINARY CARD NO. SYMBL500
                       00007         ENTRY   SYMBL5
                              *      CALL SYMBL5(X,Y,SIZE,BCD,THETA,N)
                              *      WHERE X AND Y ARE THE PAGE COORDINATES OF THE
                              *      LOWER LEFT CORNER OF THE FIRST CHARACTER.
                              *      SIZE IS THE DESIRED LETTER HEIGHT. BCD IS THE
                              *      LOCATION OF ALPHA-NUMBERIC INFO. THETA IS THE
                              *      ANGLE OF LETTERING WITH RESPECT TO X AXIS.
                              *      N IS THE NUMBER OF CHARACTERS TO BE DRAWN.
                              *      X,Y,SIZE,THETA ARE FLOATING POINT NOS. THETA IS DEGREES
                              *      BCD IS BCD AND N IS A FORTRAN II FIXED POINT NUMBER
                              *      SIZE MAY BE NEGATIVE. THIS INDICATES THE BCD
                              *      INFO IS STACKED BACKWARD AND VICE-VERSA.
                              *      N MAY BE NEGATIVE. THIS MEANS BCD INFO IS A
                              *      FORTRAN II FIXED POINT NUMBER AND
                              *      IS A SPECIAL SYMBOL. FOR SPECIAL SYMBOLS N MAY
                              *      BE-1 OR-2.-2 INDICATES A LINE IS TO
                              *      BE DRAWN FROM CURRENT LOCATION TO
                              *      POSITION(X,Y).
                                                 INITIALIZE

        TRANSFER VECTOR

  BINARY CARD NO. SYMBL501
      00000  456444476060     NUMP
      00001  255145466325     ERNOTE
      00002  623145606060     SIN
      00003  234662606060     COS
      00004  474346630160     PLOT1

            LINKAGE DIRECTOR
      00005  000000000000
      00006  627044224305

      00007  0634 00 1 00257  SYMBL5 SXA     EXIT,1
      00010  0634 00 2 00260         SXA     EXIT+1,2
      00011 -0634 00 4 00005         SXD     SYMBL5-2,4
      00012  0634 00 4 00337         SXA     NUMARG,4

      00013  0074 00 4 00000         TSX     $NUMP,4
      00014  0 00000 0 00600         PZE     =O1
      00015  0 00000 0 00336         PZE     SIXQ
      00016  0 00000 0 00337         PZE     NUMARG
      00017 -0534 00 4 00005         LXD     SYMBL5-2,4
      00020  0500 00 0 00336         CLA     SIXQ
      00021  0402 00 0 00603         SUB     =O6
      00022  0100 00 0 00026         TZE     OK
      00023  0074 00 4 00001         TSX     $ERNOTE,4

  BINARY CARD NO. SYMBL502
 TD   00024  3 00000 0 00601         TXH     =O2
 TD   00025  3 00000 0 00616         TXH     =HSYMBL5
      00026  0500 00 0 00324   OK    CLA     COM
      00027  0601 00 0 00125         STO     VAR
1            FORTRAN LINKAGE                                                                     PAGE 2

      00030  0500 00 0 00607         CLA     =O400000      4 TAG
      00031  0601 00 0 00341         STO     STST

      00032  0500 60 4 00001         CLA*    1,4
      00033  0601 00 0 00317         STO     X0

      00034  0500 60 4 00002         CLA*    2,4
      00035  0601 00 0 00320         STO     Y0

      00036  0500 60 4 00003         CLA*    3,4
      00037  0100 00 0 00257         TZE     EXIT          IF NO CHARACTERS, GO OUT
      00040 -0120 00 0 00263         TMI     OUT
      00041  0774 00 2 77777         AXT     -1,2          SET INDEX FOR FORWARD STACK
      00042 -0634 00 2 00254  BACK   SXD     FF,2
      00043  0241 00 0 00614         FDP     =7.
      00044 -0600 00 0 00314         STQ     FACT

      00045  0500 00 4 00004         CLA     4,4                     PICK UP LOC. OF BCD INFO.
      00046  0621 00 0 00114         STA     LOC
      00047  0621 00 0 00272         STA     TEST

  BINARY CARD NO. SYMBL503
      00050  0621 00 0 00312         STA     FIXUP
      00051  0621 00 0 00306         STA     GOOFED+2      FOR ARGUMENT TO ERNOTE IF ERROR
      00052  0630 00 0 00577         STP     MADSW

      00053  0500 00 4 00005         CLA     5,4                     PICK UP LOC. OF THETA
      00054  0621 00 0 00070         STA     TH

      00055  0500 00 4 00006         CLA     6,4                                                     M
      00056  0630 00 0 00576         STP     MDSW
      00057  0500 60 4 00006         CLA*    6,4
      00060  0520 00 0 00576         ZET     MDSW
      00061  0767 00 0 00022         ALS     18
      00062  0601 00 0 00344         STO     XXK
      00063 -0120 00 0 00266         TMI     SPECL                   TRANSFER FOR SPECIAL CHARS.
      00064 -0734 00 1 00000         PDX     0,1             INDEX 1= NUMBER OF CHARACTERS
      00065  0774 00 2 00044         AXT     36,2          SET XR2 TO PICK UP FIRST BCD CHARACTER
      00066  0500 00 0 00602  LRTN   CLA     =O3           LINKAGE SET UP FOR PEN UP
      00067  0621 00 0 00340  RTN    STA     VL                      SET UP VARIABLE LINKAGE
      00070  0560 00 0 00000  TH     LDQ     **                      PICK UP THETA(DEGREES)
      00071  0260 00 0 00611         FMP     =.017453293
      00072  0601 00 0 00315         STO     INCC                    SAVE THETA(RADIANS)
      00073  0100 00 0 00077         TZE     *+4             SINE 0=0

  BINARY CARD NO. SYMBL504
      00074  0074 00 4 00002         TSX     $SIN,4                  COMPUTE SIN THETA
      00075  0131 00 0 00000         XCA                                                             M
      00076  0260 00 0 00314         FMP     FACT
      00077  0601 00 0 00316         STO     INCS                    SAVE FACTOR * SIN THETA
      00100  0131 00 0 00000         XCA
      00101  0260 00 0 00613         FMP     =6.
      00102  0601 00 0 00347         STO     YT
      00103  0500 00 0 00315         CLA     INCC
      00104  0074 00 4 00003         TSX     $COS,4                  COMPUTE COS THETA
      00105  0131 00 0 00000         XCA                                                             M
1            FORTRAN LINKAGE                                                                     PAGE 3

      00106  0260 00 0 00314         FMP     FACT
      00107  0601 00 0 00315         STO     INCC                    FACTOR * COS THETA
      00110  0131 00 0 00000         XCA
      00111  0260 00 0 00613         FMP     =6.
      00112  0601 00 0 00346         STO     XT


      00113  0774 00 4 00000         AXT     0,4
      00114  0500 00 4 00000  LOC    CLA     **,4
      00115  0560 00 0 00344         LDQ     XXK
      00116  0162 00 0 00121         TQP     NOTSPC
      00117  0520 00 0 00577         ZET     MADSW

  BINARY CARD NO. SYMBL505
      00120  0767 00 0 00022         ALS     18
      00121  0131 00 0 00000  NOTSPC XCA
      00122 -0754 00 0 00000         ZAC
      00123 -0763 00 2 00052         LGL     42,2                    SHIFT CHARS.
      00124  0634 00 1 00247         SXA     XR1,1
      00125  0761 00 0 00000  VAR    NOP
      00126 -0320 00 0 00606         ANA     =O77          GET SINGLE 6 BIT CHAR.
      00127  0760 00 0 00006         COM                             SKIPED FOR SPECIAL CHAR.

      00130  0734 00 1 00000         PAX     ,1
      00131  0634 00 2 00250  REENT  SXA     XR2,2
      00132  0634 00 4 00251         SXA     XR4,4
      00133  0500 00 1 00371         CLA     TABLE-1,1               PICK LOC OF OFFSET DATA
      00134  0621 00 0 00161         STA     DLOC
      00135  0621 00 0 00204         STA     OLOC
      00136  0771 00 0 00006         ARS     6
      00137 -0734 00 1 00000         PDX     ,1            PICK UP SHIFT COUNT
      00140  0771 00 0 00014         ARS     12
      00141 -0320 00 0 00606         ANA     =O77          SAVE ONLY PEN MOTION COUNT
      00142  0601 00 0 00342         STO     NO
      00143  0100 00 0 00237         TZE     CLAP                    END OF SYMBOL TEST

  BINARY CARD NO. SYMBL506
      00144  0500 00 0 00344         CLA     XXK
      00145  0120 00 0 00160         TPL     DLOC-1                  TRANSFER ON NORMAL CHAR.

      00146  0500 00 0 00316         CLA     INCS
      00147  0302 00 0 00315         FSB     INCC                    FOR SPECIAL SYMBOLS
      00150  0361 00 0 00610         ACL     =O1000000000
      00151  0300 00 0 00317         FAD     X0
      00152  0601 00 0 00317         STO     X0                      CORRESPONDS TO CENTER
      00153  0502 00 0 00315         CLS     INCC
      00154  0302 00 0 00316         FSB     INCS
      00155  0361 00 0 00610         ACL     =O1000000000
      00156  0300 00 0 00320         FAD     Y0
      00157  0601 00 0 00320         STO     Y0

      00160  0774 00 2 00000         AXT     0,2           TO GET INITIAL PEN MOTION WORD
      00161  0560 00 2 00000  DLOC   LDQ     **,2                    GET PEN MOTION WORD
      00162 -0763 00 1 00047         LGL     39,1                    SHIFT OFFSET CHAR INTO ACCUM
      00163 -0320 00 0 00604         ANA     =O7           SAVE ONLY 3 BITS FOR X
      00164  0734 00 4 00000         PAX     0,4                     X4=X COORD. IN BOX
1            FORTRAN LINKAGE                                                                     PAGE 4

      00165 -3 00006 4 00170         TXL     *+3,4,6                 PEN UP TEST
      00166  0500 00 0 00602         CLA     =O3
      00167  0020 00 0 00227         TRA     STD


  BINARY CARD NO. SYMBL507
      00170  0500 00 0 00317         CLA     X0                      PICK UP X0 FOR USE IN
      00171  0601 00 0 00343         STO     XX                      COMPUTING INTERMEDIATE X
      00172  0500 00 0 00320         CLA     Y0                      SAME FOR Y0.
      00173  0601 00 0 00345         STO     YY

      00174 -3 00000 4 00204         TXL     OLOC,4,0                SKIP X CALCUCATION IF 0

      00175  0500 00 0 00343  EN     CLA     XX
      00176  0300 00 0 00315         FAD     INCC                    COMPUTE Y COMPONENT
      00177  0601 00 0 00343         STO     XX                        OF NEW PLOT COORD.
      00200  0500 00 0 00345         CLA     YY
      00201  0300 00 0 00316         FAD     INCS
      00202  0601 00 0 00345         STO     YY
      00203  2 00001 4 00175         TIX     EN,4,1

      00204  0560 00 2 00000  OLOC   LDQ     **,2                    GET Y COORD. IN BOX
      00205 -0763 00 1 00052         LGL     42,1
      00206 -0320 00 0 00604         ANA     =O7           SAVE ONLY 3 BITS FOR Y
      00207  0734 00 4 00000         PAX     ,4

      00210 -3 00000 4 00220         TXL     JEN,4,0                 SKIP IF NO Y OFFSET COUNT

      00211  0500 00 0 00345  NEJ    CLA     YY                      COMPUTE X COMPONENT
      00212  0300 00 0 00315         FAD     INCC                      OF NEW PLOT COORD.
      00213  0601 00 0 00345         STO     YY

  BINARY CARD NO. SYMBL508
      00214  0500 00 0 00343         CLA     XX
      00215  0302 00 0 00316         FSB     INCS
      00216  0601 00 0 00343         STO     XX
      00217  2 00001 4 00211         TIX     NEJ,4,1

      00220  0 07400 4 00004  JEN    CALL    PLOT1,XX,YY,VL          MOVE PEN
      00221  0 07400 0 00343
      00222  0 07400 0 00345
      00223  0 07400 0 00340
      00224  1 00000 0 00226
      00225  0 00334 0 00005

      00226  0500 00 0 00601         CLA     =O2           RESET LINKAGE TO
      00227  0621 00 0 00340  STD    STA     VL                      LOWER PEN

      00230  0500 00 0 00342         CLA     NO                      PICK UP PEN MOTION COUNT
      00231  0402 00 0 00600         SUB     =1
      00232  0100 00 0 00237         TZE     CLAP                    EXIT WHEN FULFILLED
      00233  0601 00 0 00342         STO     NO
      00234  2 00006 1 00161         TIX     DLOC,1,6                DECREMENT SHIFT COUNT BY 6
      00235  0774 00 1 00044         AXT     36,1          RESET SHIFT COUNT BY 36
      00236  1 77777 2 00161         TXI     DLOC,2,-1               MOVE TO NEXT OFFSET WORD
1            FORTRAN LINKAGE                                                                     PAGE 5

      00237  0500 00 0 00602  CLAP   CLA     =O3           RESET LINKAGE TO LIFT PEN

  BINARY CARD NO. SYMBL509
      00240  0621 00 0 00340         STA     VL                      FOR NEXT SYMBOL
      00241  0500 00 0 00317         CLA     X0                      CALCULATE X AND Y FOR
      00242  0300 00 0 00346         FAD     XT                      NEXT CHARACTER IN SERIES
      00243  0601 00 0 00317         STO     X0
      00244  0500 00 0 00320         CLA     Y0
      00245  0300 00 0 00347         FAD     YT
      00246  0601 00 0 00320         STO     Y0

      00247  0774 00 1 00000  XR1    AXT     **,1
      00250  0774 00 2 00000  XR2    AXT     **,2
      00251  0774 00 4 00000  XR4    AXT     **,4

      00252  2 00006 2 00255         TIX     *+3,2,6                 CHANGE SHIFT COUNT FOR NEW CHAR.

      00253  0774 00 2 00044         AXT     36,2
      00254  1 00000 4 00255  FF     TXI     *+1,4,**                MOVE TO NEXT BCD WORD
      00255 -3 00001 1 00257         TXL     EXIT,1,1                END OF STRING OF CHARS.
      00256  1 77777 1 00114         TXI     LOC,1,-1                GO BACK FOR ANOTHER CHAR.

      00257  0774 00 1 00000  EXIT   AXT     **,1
      00260  0774 00 2 00000         AXT     **,2
      00261 -0534 00 4 00005         LXD     SYMBL5-2,4
      00262  0020 00 4 00007         TRA     7,4           RETURN

      00263  0760 00 0 00003  OUT    SSP                             SET HEIGHT PLUS

  BINARY CARD NO. SYMBL510
      00264  0774 00 2 00001         AXT     1,2
      00265  0020 00 0 00042         TRA     BACK
      00266  0774 00 1 00001  SPECL  AXT     1,1
      00267  0774 00 2 00030         AXT     24,2          SET IR2 TO GET NO. FROM DECREMENT
      00270  0500 00 0 00321         CLA     1X
      00271  0601 00 0 00125         STO     VAR                     SET VAR SWITCH FOR SPECIAL CH.
      00272  0500 00 0 00000  TEST   CLA     **
      00273 -0520 00 0 00577         NZT     MADSW
      00274  0771 00 0 00022         ARS     18              FORTRAN INTO ADDRESS
      00275  0400 00 0 00605         ADD     =18
      00276  0100 00 0 00300         TZE     *+2
      00277 -0120 00 0 00304         TMI     GOOFED
      00300 -0534 00 4 00344   RETRY LXD     XXK,4
      00301 -3 00001 4 00066         TXL     LRTN,4,1                IF N =-1 SET PEN TO LIFT
      00302  0500 00 0 00601         CLA     =O2           N=-2 SET PEN TO LOWER
      00303  0020 00 0 00067         TRA     RTN
      00304  0074 00 4 00001  GOOFED TSX     $ERNOTE,4
 TD   00305  3 00000 0 00603         TXH     =O6
 TD   00306  3 00000 0 00000         TXH     **
      00307  0500 00 0 00615         CLA     =-18

  BINARY CARD NO. SYMBL511
      00310 -0520 00 0 00577         NZT     MADSW
      00311  0767 00 0 00022         ALS     18            FORTRAN TYPE CALL
      00312  0601 00 0 00000  FIXUP  STO     **
      00313  0020 00 0 00300         TRA     RETRY
1            FORTRAN LINKAGE                                                                     PAGE 6

      00314  0 00000 0 00000  FACT   PZE     0                       LETTER FACTOR
      00315  0 00000 0 00000  INCC   PZE     0                       FACTOR * COS THETA
      00316  0 00000 0 00000  INCS   PZE     0                       FACTOR * SIN THETA
      00317  0 00000 0 00000  X0     PZE     0                       X COORDINATE OF FIRST CHAR.
      00320  0 00000 0 00000  Y0     PZE     0                       Y COORDINATE OF FIRST CHAR.
      00321  0020 00 0 00322  1X     TRA     MORE          VARIABLE INSTRUCTION SPECIAL
      00322  0320 00 0 00341  MORE   ANS     STST                    TEST FOR A NEGATIVE SPECIAL CH.
      00323 -0520 00 0 00341         NZT     STST
      00324  0020 00 0 00126  COM    TRA     VAR+1         YES
      00325  0734 00 1 00000         PAX     0,1             SET UP TABLE SUBSCRIPT FOR NEGATIVE CODE
      00326  1 77777 1 00327         TXI     *+1,1,-1
      00327  0560 00 0 00316         LDQ     INCS
      00330  0260 00 0 00612         FMP     =1.75
      00331  0601 00 0 00316         STO     INCS
      00332  0560 00 0 00315         LDQ     INCC
      00333  0260 00 0 00612         FMP     =1.75

  BINARY CARD NO. SYMBL512
      00334  0601 00 0 00315         STO     INCC
      00335  0020 00 0 00131         TRA     REENT
      00336  0 00000 0 00006  SIXQ   PZE     6
      00337  0 00000 0 00000  NUMARG PZE
      00340  0 00000 0 00000  VL     PZE     0,0,**
      00341  0 00000 4 00000  STST   PZE     0,4,0
      00342  0 00000 0 00000  NO     PZE     0
      00343  0 00000 0 00000  XX     PZE     0
      00344  0 00000 0 00000  XXK    PZE     0
      00345  0 00000 0 00000  YY     PZE     0
      00346  0 00000 0 00000  XT     PZE     0
      00347  0 00000 0 00000  YT     PZE     0
      00350  0 02207 0 00574         PZE     S18,0,64*18+7           -18
      00351  0 02206 0 00573         PZE     S17,0,64*18+6           -17
      00352  0 03007 0 00572         PZE     S16,0,64*24+7           -16
      00353  0 03013 0 00570         PZE     S15,0,64*24+11          -15
      00354  0 01404 0 00556         PZE     S4,0,64*12+4            -14
      00355  0 03006 0 00567         PZE     S13,0,64*24+6           -13
      00356  0 03615 0 00556         PZE     S4,0,64*30+13           -12
      00357  0 03616 0 00565         PZE     S11,0,64*30+14          -11

  BINARY CARD NO. SYMBL513
      00360  0 03607 0 00564         PZE     S10,0,64*30+7           -10
      00361  0 04410 0 00563         PZE     S9,0,64*36+8            -9
      00362  0 03606 0 00560         PZE     S8,0,64*30+6            -8
      00363  0 04407 0 00562         PZE     S7,0,64*36+7            -7
      00364  0 04407 0 00561         PZE     S6,0,64*36+7            -6
      00365  0 03607 0 00557         PZE     S5,0,64*30+7            -5
      00366  0 03607 0 00556         PZE     S4,0,64*30+7            -4
      00367  0 03006 0 00555         PZE     S3,0,64*24+6            -3
      00370  0 02214 0 00553         PZE     S2,0,64*18+12           -2
      00371  0 03010 0 00552         PZE     S1,0,64*24+8            -1
      00372  0 03011 0 00472  TABLE  PZE     O,0,64*24+9             00
      00373  0 02205 0 00474         PZE     N1,0,64*18+5            01
      00374  0 03010 0 00475         PZE     N2,0,64*24+8            02
      00375  0 03015 0 00500         PZE     N3,0,64*24+13           03
      00376  0 03611 0 00517         PZE     N4,0,64*30+9            04
      00377  0 00611 0 00531         PZE     N5,0,64*6+9             05
1            FORTRAN LINKAGE                                                                     PAGE 7

      00400  0 03013 0 00507         PZE     N6,0,64*24+11           06
      00401  0 04406 0 00503         PZE     N7,0,64*36+6            07
      00402  0 03021 0 00500         PZE     N3,0,64*24+17           10
      00403  0 02214 0 00534         PZE     N9,0,64*18+12           11

  BINARY CARD NO. SYMBL514
      00404  0 03003 0 00545         PZE     COLON,0,64*24+3         12
      00405  0 01405 0 00540         PZE     MINUS,0,64*12+5         13
      00406  0 01410 0 00540         PZE     MINUS,0,64*12+8         14
      00407  0 03006 0 00544         PZE     LE,0,64*24+6            15
      00410  0 01410 0 00503         PZE     N7,0,64*12+8            16
      00411  0 01404 0 00476         PZE     N2+1,0,64*12+4          17
      00412  0 01405 0 00537         PZE     PLUS,0,64*12+5          20
      00413  0 04412 0 00542         PZE     A,0,64*36+10            21
      00414  0 03614 0 00511         PZE     D+1,0,64*30+12          22
      00415  0 03010 0 00472         PZE     O,0,64*24+8             23
      00416  0 00607 0 00510         PZE     D,0,64*6+7              24
      00417  0 03607 0 00477         PZE     L,0,64*30+7             25
      00420  0 03006 0 00477         PZE     L,0,64*24+6             26
      00421  0 02214 0 00532         PZE     G,0,64*18+12            27
      00422  0 04406 0 00530         PZE     H,0,64*36+6             30
      00423  0 01406 0 00515         PZE     RP,0,64*12+6            31
      00424  0 03004 0 00476         PZE     N2+1,0,64*24+4          32
      00425  0 01405 0 00503         PZE     N7,0,64*12+5            33
      00426  0 03604 0 00515         PZE     RP,0,64*30+4            34
      00427  0 02205 0 00551         PZE     AR,0,64*18+5            35

  BINARY CARD NO. SYMBL515
      00430  0 03610 0 00540         PZE     MINUS,0,64*30+8         36
      00431  0 03003 0 00536         PZE     AST,0,64*24+3           37
      00432  0 03602 0 00540         PZE     MINUS,0,64*30+2         40
      00433  0 01405 0 00520         PZE     U,0,64*12+5             41
      00434  0 02207 0 00526         PZE     M,0,64*18+7             42
      00435  0 03603 0 00477         PZE     L,0,64*30+3             43
      00436  0 04405 0 00526         PZE     M,0,64*36+5             44
      00437  0 02204 0 00527         PZE     N,0,64*18+4             45
      00440  0 04413 0 00472         PZE     O,0,64*36+11            46
      00441  0 02207 0 00524         PZE     W,0,64*18+7             47
      00442  0 03013 0 00472         PZE     O,0,64*24+11            50
      00443  0 02212 0 00524         PZE     W,0,64*18+10            51
      00444  0 04416 0 00513         PZE     PER,0,64*36+14          52
      00445  0 00613 0 00504         PZE     N7+1,0,64*6+11          53
      00446  0 01413 0 00536         PZE     AST,0,64*12+11          54
      00447  0 03605 0 00474         PZE     N1,0,64*30+5            55
      00450  0 01405 0 00521         PZE     T,0,64*12+5             56
      00451  0 01403 0 00543         PZE     GR,0,64*12+3            57
      00452  0 00000 0 00472         PZE     O,0,0                   60
      00453  0 04402 0 00514         PZE     SLASH,0,64*36+2         61

  BINARY CARD NO. SYMBL516
      00454  0 02214 0 00506         PZE     S,0,64*18+12            62
      00455  0 03004 0 00521         PZE     T,0,64*24+4             63
      00456  0 02206 0 00520         PZE     U,0,64*18+6             64
      00457  0 01403 0 00523         PZE     X,0,64*12+3             65
      00460  0 04405 0 00524         PZE     W,0,64*36+5             66
      00461  0 04405 0 00523         PZE     X,0,64*36+5             67
1            FORTRAN LINKAGE                                                                     PAGE 8

      00462  0 03005 0 00522         PZE     Y,0,64*24+5             70
      00463  0 00610 0 00530         PZE     H,0,64*6+8              71
      00464  0 00603 0 00544         PZE     LE,0,64*6+3             72
      00465  0 03006 0 00546         PZE     DOT,0,64*24+6           73
      00466  0 02204 0 00516         PZE     LP,0,64*18+4            74
      00467  0 01406 0 00543         PZE     GR,0,64*12+6            75
      00470  0 03616 0 00547         PZE     QUEST,0,64*30+14        76
      00471  0 03003 0 00545         PZE     COLON,0,64*24+3         77
      00472 +254746371706     O      OCT     254746371706
      00473 +011030414640            OCT     011030414640
      00474 +222736162720     N1     OCT     222736162720
      00475 +103006173746     N2     OCT     103006173746
      00476 -040100404707            OCT     440100404707
      00477 +004000074707     L      OCT     004000074707

  BINARY CARD NO. SYMBL517
      00500 +043406173746     N3     OCT     043406173746
      00501 -053414344341            OCT     453414344341
      00502 +301001031405            OCT     301001031405
      00503 +060747462120     N7     OCT     060747462120
      00504 +101121702327            OCT     101121702327
      00505 +207002324334            OCT     207002324334
      00506 +140516463717     S      OCT     140516463717
      00507 +060514344341     N6     OCT     060514344341
      00510 +301001061737     D      OCT     301001061737
      00511 -064130000737            OCT     464130000737
      00512 -064534043443            OCT     464534043443
      00513 -014030314170     PER    OCT     414030314170
      00514 +004770171606     SLASH  OCT     004770171606
      00515 +071726211030     RP     OCT     071726211030
      00516 +202717372621     LP     OCT     202717372621
      00517 +303730204030     N4     OCT     303730204030
      00520 +324202070110     U      OCT     324202070110
      00521 +304147072720     T      OCT     304147072720
      00522 +113120250725     Y      OCT     113120250725
      00523 -070070400720     X      OCT     470070400720

  BINARY CARD NO. SYMBL518
      00524 -074024000737     W      OCT     474024000737
      00525 -064534043443            OCT     464534043443
      00526 -004723070070     M      OCT     404723070070
      00527 -002503474007     N      OCT     402503474007
      00530 +000704444740     H      OCT     000704444740
      00531 +002414342447     N5     OCT     002414342447
      00532 +070434434130     G      OCT     070434434130
      00533 +100106173746            OCT     100106173746
      00534 -303353443313     N9     OCT     703353443313
      00535 +040617374641            OCT     040617374641
      00536 +301001254105     AST    OCT     301001254105
      00537 +234501232125     PLUS   OCT     234501232125
      00540 +230343704505     MINUS  OCT     230343704505
      00541 -300141703610            OCT     700141703610
      00542 +000343463717     A      OCT     000343463717
      00543 +060343400244     GR     OCT     060343400244
      00544 +067001417042     LE     OCT     067001417042
      00545 +044605214525     COLON  OCT     044605214525
1            FORTRAN LINKAGE                                                                     PAGE 9

      00546 +247021111222     DOT    OCT     247021111222
      00547 +211011212010     QUEST  OCT     211011212010

  BINARY CARD NO. SYMBL519
      00550 -302224344546            OCT     702224344546
      00551 +371706034334     AR     OCT     371706034334
      00552 +324322240400     S1     OCT     324322240400
      00553 -004424222414     S2     OCT     404424222414
      00554 +030110304143            OCT     030110304143
      00555 +342422240141     S3     OCT     342422240141
      00556 +242242022220     S4     OCT     242242022220
      00557 +242244002204     S5     OCT     242244002204
      00560 -002200440440     S8     OCT     402200440440
      00561 +222402204224     S6     OCT     222402204224
      00562 +222024024224     S7     OCT     222024024224
      00563 +224404440040     S9     OCT     224404440040
      00564 +002204224422     S10    OCT     002204224422
      00565 +202244331304     S11    OCT     202244331304
      00566 +131100113140            OCT     131100113140
      00567 +313322440440     S13    OCT     313322440440
      00570 +002202031434     S15    OCT     002202031434
      00571 -034130100102            OCT     434130100102
      00572 -022243440422     S16    OCT     422243440422
      00573 +004041101404     S17    OCT     004041101404

  BINARY CARD NO. SYMBL520
      00574 -043430222432     S18    OCT     443430222432
      00575 +201224220000            OCT     201224220000
      00576  0 00000 0 00000  MDSW   PZE
      00577  0 00000 0 00000  MADSW  PZE
                                     END

        LITERALS
      00600  000000000001
      00601  000000000002
      00602  000000000003
      00603  000000000006
      00604  000000000007
      00605  000000000022
      00606  000000000077
      00607  000000400000
      00610  001000000000
      00611  173435750652
      00612  201700000000
      00613  203600000000
      00614  203700000000
      00615  400000000022
      00616  627044224305
1            FORTRAN LINKAGE                                                                     PAGE 1
                        POST PROCESSOR ASSEMBLY DATA

        617 IS THE FIRST LOCATION NOT USED BY THIS PROGRAM

0REFERENCES TO DEFINED SYMBOLS
        542      A   413
        510      D   414,  416
        532      G   421
        530      H   422,  463
        477      L   417,  420,  435
        526      M   434,  436
        527      N   437
        472      O   372,  415,  440,  442,  452
        506      S   454
        521      T   450,  455
        520      U   433,  456
        524      W   441,  443,  460
        523      X   457,  461
        522      Y   462
        321     1X   270
        551     AR   427
        175     EN   203
        254     FF    42
        543     GR   451,  467
        544     LE   407,  464
        516     LP   466
        474     N1   373,  447
        475     N2   374,  411,  424
        500     N3   375,  402
        517     N4   376
        531     N5   377
        507     N6   400
        503     N7   401,  410,  425,  445
        534     N9   403
        342     NO   142,  230,  233
         26     OK    22
        515     RP   423,  426
        552     S1   371
        553     S2   370
        555     S3   367
        556     S4   354,  356,  366
        557     S5   365
        561     S6   364
        562     S7   363
        560     S8   362
        563     S9   361
         70     TH    54
        340     VL    67,  223,  227,  240
        317     X0    33,  151,  152,  170,  241,  243
        346     XT   112,  242
        343     XX   171,  175,  177,  214,  216,  221
        320     Y0    35,  156,  157,  172,  244,  246
        347     YT   102,  245
        345     YY   173,  200,  202,  211,  213,  222
        536    AST   431,  446
        324    COM    26
1            FORTRAN LINKAGE                                                                     PAGE 2
                        POST PROCESSOR ASSEMBLY DATA

          3    COS   104
        546    DOT   465
        220    JEN   210
        114    LOC    46,  256
        211    NEJ   217
        263    OUT    40
        513    PER   444
         67    RTN   303
        564    S10   360
        565    S11   357
        567    S13   355
        570    S15   353
        572    S16   352
        573    S17   351
        574    S18   350
          2    SIN    74
        227    STD   167
        125    VAR    27,  271,  324
        247    XR1   124
        250    XR2   131
        251    XR4   132
        344    XXK    62,  115,  144,  300
         42   BACK   265
        237   CLAP   143,  232
        161   DLOC   134,  145,  234,  236
        257   EXIT     7,   10,   37,  255
        314   FACT    44,   76,  106
        315   INCC    72,  103,  107,  147,  153,  176,  212,  332,  334
        316   INCS    77,  146,  154,  201,  215,  327,  331
         66   LRTN   301
        576   MDSW    56,   60
        322   MORE   321
          0   NUMP    13
        204   OLOC   135,  174
        537   PLUS   412
        336   SIXQ    15,   20
        341   STST    31,  322,  323
        272   TEST    47
        545  COLON   404,  471
        312  FIXUP    50
        577  MADSW    52,  117,  273,  310
        540  MINUS   405,  406,  430,  432
          4  PLOT1   220
        547  QUEST   470
        131  REENT   335
        300  RETRY   313
        514  SLASH   453
        266  SPECL    63
        372  TABLE   133
          1 ERNOTE    23,  304
        304 GOOFED    51,  277
        121 NOTSPC   116
        337 NUMARG    12,   16
          7 SYMBL5     0,   11,   17,  261
1            FORTRAN LINKAGE                                                                     PAGE 3
                        POST PROCESSOR ASSEMBLY DATA

0 NO ERROR IN ABOVE ASSEMBLY.


MINMAX   BCD 01/29/68 1552.4     427         00000
