1                                                                                                PAGE 1

                       00002         ENTRY   MINMAX

            LINKAGE DIRECTOR
      00000  000000000000
      00001  443145442167

      00002  0634 00 1 00030  MINMAX SXA     X1,1
      00003 -0634 00 4 00000         SXD     MINMAX-2,4
      00004  0500 00 4 00001         CLA     1,4
      00005  0621 00 0 00013         STA     LOOP
      00006  0500 60 4 00001         CLA*    1,4
      00007  0601 00 0 00033         STO     MAX
      00010  0601 00 0 00032         STO     MIN
      00011  0500 60 4 00002         CLA*    2,4
      00012  0734 00 1 00000         PAX     ,1
      00013  0500 00 1 00000  LOOP   CLA     **,1
      00014  0340 00 0 00033         CAS     MAX
      00015  0601 00 0 00033         STO     MAX
      00016  0020 00 0 00023         TRA     END
      00017  0340 00 0 00032         CAS     MIN
      00020  0020 00 0 00023         TRA     END
      00021  0020 00 0 00023         TRA     END
      00022  0601 00 0 00032         STO     MIN
      00023  2 00001 1 00013  END    TIX     LOOP,1,1
      00024  0500 00 0 00032         CLA     MIN
      00025  0601 60 4 00003         STO*    3,4
      00026  0500 00 0 00033         CLA     MAX
      00027  0601 60 4 00004         STO*    4,4
      00030  0774 00 1 00000  X1     AXT     **,1
      00031  0020 00 4 00005         TRA     5,4


      00032  0 00000 0 00000  MIN    PZE
      00033  0 00000 0 00000  MAX    PZE


                                     END
1                                                                                                PAGE 1
                        POST PROCESSOR ASSEMBLY DATA

         34 IS THE FIRST LOCATION NOT USED BY THIS PROGRAM

0REFERENCES TO DEFINED SYMBOLS
         30     X1     2
         23    END    16,   20,   21
         33    MAX     7,   14,   15,   26
         32    MIN    10,   17,   22,   24
         13   LOOP     5,   23
          2 MINMAX     0,    3

0 NO ERROR IN ABOVE ASSEMBLY.


 PLOTR   BCD 01/31/68 1307.5    2555         00000
1                                                                                                PAGE 1

                       00146         ENTRY   ENDUP
                       00212         ENTRY   STRTUP
                       00004         ENTRY   FACTOR
                       00030         ENTRY   WHERE
                       00035         ENTRY   PLOT1
                                     EXTERN  WRFILE

        TRANSFER VECTOR
      00000  665126314325     WRFILE
      00001  255145466325     ERNOTE

            LINKAGE DIRECTOR
      00002  000000000000
      00003  254524644760

      00004 -0634 00 4 00002  FACTOR SXD     FACTOR-2,4
      00005  0500 00 0 00245         CLA     X
      00006  0601 00 0 02015         STO     TX
      00007  0500 00 0 00246         CLA     Y
      00010  0601 00 0 02016         STO     TY
      00011  0500 00 0 00247         CLA     P
      00012  0601 00 0 02017         STO     TP
      00013  0500 60 4 00001         CLA*    1,4
      00014  0601 00 0 00245         STO     X
      00015  0600 00 0 00246         STZ     Y
      00016  0600 00 0 00247         STZ     P
      00017  0074 00 4 00047         TSX     WRB,4
      00020  0500 00 0 02015         CLA     TX
      00021  0601 00 0 00245         STO     X
      00022  0500 00 0 02016         CLA     TY
      00023  0601 00 0 00246         STO     Y
      00024  0500 00 0 02017         CLA     TP
      00025  0601 00 0 00247         STO     P
      00026 -0534 00 4 00002         LXD     FACTOR-2,4
      00027  0020 00 4 00002         TRA     2,4


      00030  0500 00 0 00245  WHERE  CLA     X
      00031  0601 60 4 00001         STO*    1,4
      00032  0500 00 0 00246         CLA     Y
      00033  0601 60 4 00002         STO*    2,4
      00034  0020 00 4 00003         TRA     3,4


      00035  0020 00 0 00237  PLOT1  TRA     NSTRT
      00036  0500 60 4 00001         CLA*    1,4
      00037  0601 00 0 00245         STO     X
      00040  0500 60 4 00002         CLA*    2,4
      00041  0601 00 0 00246         STO     Y
      00042  0500 60 4 00003         CLA*    3,4
      00043  0601 00 0 00247         STO     P
      00044  0074 00 4 00047         TSX     WRB,4
      00045 -0534 00 4 00002         LXD     FACTOR-2,4
      00046  0020 00 4 00004         TRA     4,4
1                                                                                                PAGE 2


      00047 -0634 00 4 02024  WRB    SXD     XR4,4
      00050 -0634 00 1 02025         SXD     XR1,1
      00051 -0534 00 4 02020         LXD     USED,4
      00052 -0534 00 1 02023         LXD     TAGCNT,1
      00053  0500 00 0 00245         CLA     X
      00054  0601 00 4 00257  STOX   STO     ABF+4,4
      00055  0500 00 0 00246         CLA     Y
      00056  0601 00 4 00260  STOY   STO     ABF+5,4
      00057  0500 00 0 00247         CLA     P
      00060  0560 00 0 02022         LDQ     TAGS
      00061 -0765 00 0 00003         LGR     3
      00062  0765 00 0 00000         LRS     0
      00063 -0130 00 0 00000         XCL
      00064  0771 00 0 00003         ARS     3
      00065  2 00001 1 00073         TIX     NOP,1,1
      00066  0601 00 4 00244  STOP   STO     ABF-7,4
      00067  0774 00 1 00006         AXT     6,1
      00070 -0634 00 1 02023         SXD     TAGCNT,1
      00071  0600 00 0 02022         STZ     TAGS
      00072  1 77775 4 00076         TXI     TEST,4,-3
      00073  0601 00 0 02022  NOP    STO     TAGS
      00074 -0634 00 1 02023         SXD     TAGCNT,1
      00075  1 77776 4 00076         TXI     TEST,4,-2
      00076 -0534 00 1 02025  TEST   LXD     XR1,1
      00077 -3 77124 4 00103         TXL     WRD,4,-428
      00100 -0634 00 4 02020         SXD     USED,4
      00101 -0534 00 4 02024         LXD     XR4,4
      00102  0020 00 4 00001         TRA     1,4


      00103  0500 00 0 00250  WRD    CLA     BUFNO
      00104 -0100 00 0 00122         TNZ     USEA
      00105  0500 00 0 02033  USEB   CLA     =1
      00106  0601 00 0 00250         STO     BUFNO
      00107  0600 00 0 02020         STZ     USED
      00110  0500 00 0 00252         CLA     BBUFF
      00111  0400 00 0 02034         ADD     =4
      00112  0621 00 0 00054         STA     STOX
      00113  0400 00 0 02033         ADD     =1
      00114  0621 00 0 00056         STA     STOY
      00115  0402 00 0 02037         SUB     =12
      00116  0621 00 0 00066         STA     STOP
      00117  0500 00 0 00251         CLA     ABUFF
      00120  0621 00 0 00141         STA     WR1
      00121  0020 00 0 00135         TRA     WRITE
      00122  0600 00 0 00250  USEA   STZ     BUFNO
      00123  0600 00 0 02020         STZ     USED
      00124  0500 00 0 00251         CLA     ABUFF
      00125  0400 00 0 02034         ADD     =4
      00126  0621 00 0 00054         STA     STOX
      00127  0400 00 0 02033         ADD     =1
      00130  0621 00 0 00056         STA     STOY
      00131  0402 00 0 02037         SUB     =12
1                                                                                                PAGE 3

      00132  0621 00 0 00066         STA     STOP
      00133  0500 00 0 00252         CLA     BBUFF
      00134  0621 00 0 00141         STA     WR1
      00135  0074 00 4 00000  WRITE  TSX     WRFILE,4
 TD   00136  3 00000 0 02013         TXH     NAM1
 TD   00137  3 00000 0 02014         TXH     NAM2
 TD   00140  3 00000 0 02021         TXH     ZERO
      00141  3 00660 0 00253  WR1    TXH     ABF,,432
 TD   00142  3 00000 0 02021         TXH     ZERO
 TD   00143  3 00000 0 02021         TXH     ZERO
      00144 -0534 00 4 02024  DONE   LXD     XR4,4
      00145  0020 00 4 00001         TRA     1,4


      00146 -0634 00 4 02024  ENDUP  SXD     XR4,4
      00147 -0634 00 1 02025         SXD     XR1,1
      00150 -0500 00 0 02031         CAL     STOPD
      00151  0602 00 0 00035         SLW     PLOT1
      00152 -0534 00 4 02020         LXD     USED,4
      00153  0756 00 4 00000         PCA     ,4
      00154  0100 00 0 00144         TZE     DONE
      00155  0131 00 0 00000         XCA
      00156 -0754 00 0 00000         ZAC
      00157  0221 00 0 02040         DVP     =13
      00160  0100 00 0 00174         TZE     NOTAG
      00161  0200 00 0 02040         MPY     =13
      00162  0131 00 0 00000         XCA
      00163  0400 00 0 02036         ADD     =10
      00164  0737 00 4 00000         PAC     ,4
      00165 -0534 00 1 02023         LXD     TAGCNT,1
      00166  0500 00 0 02022         CLA     TAGS
      00167 -0765 00 0 00006         LGR     6
      00170  2 00001 1 00167         TIX     *-1,1,1
      00171  0601 60 0 00066         STO*    STOP
      00172 -0534 00 4 02020         LXD     USED,4
      00173  0020 00 0 00175         TRA     *+2
      00174  1 00001 4 00175  NOTAG  TXI     *+1,4,1
      00175  0756 00 4 00000         PCA     ,4
      00176  0400 00 0 02034         ADD     =4
      00177  0767 00 0 00022         ALS     18
      00200  0622 00 0 00141         STD     WR1
      00201  0500 00 0 00250         CLA     BUFNO
      00202 -0100 00 0 00207         TNZ     TAGA
      00203 -0534 00 4 00141         LXD     WR1,4
      00204  0634 00 4 00255         SXA     ATAG,4
      00205 -0534 00 1 02025         LXD     XR1,1
      00206  0020 00 0 00105         TRA     USEB
      00207 -0534 00 4 00141  TAGA   LXD     WR1,4
      00210  0634 00 4 01135         SXA     BTAG,4
      00211  0020 00 0 00122         TRA     USEA


      00212  0500 60 4 00001  STRTUP CLA*    1,4
      00213  0601 00 0 02013         STO NAM1
      00214  0500 60 4 00002         CLA*    2,4
      00215  0601 00 0 02014         STO     NAM2
1                                                                                                PAGE 4

      00216  0500 00 0 00251         CLA     ABUFF
      00217  0400 00 0 02034         ADD     =4
      00220  0621 00 0 00054         STA     STOX
      00221  0400 00 0 02033         ADD     =1
      00222  0621 00 0 00056         STA     STOY
      00223  0402 00 0 02037         SUB     =12
      00224  0621 00 0 00066         STA     STOP
      00225  0500 00 0 02027         CLA     WR1SET
      00226  0601 00 0 00141         STO     WR1
      00227  0600 00 0 00250         STZ     BUFNO
      00230  0600 00 0 02020         STZ     USED
      00231  0600 00 0 02022         STZ     TAGS
      00232  0500 00 0 02026         CLA     CNTSET
      00233  0601 00 0 02023         STO     TAGCNT
      00234 -0500 00 0 02030         CAL     STRTD
      00235  0602 00 0 00035         SLW     PLOT1
      00236  0020 00 4 00003         TRA     3,4


      00237  0074 00 4 00001  NSTRT  TSX     $ERNOTE,4
 TD   00240  3 00000 0 02033         TXH     =1
 TD   00241  3 00000 0 02032         TXH     =0


      00242  0074 00 4 00001  NRSTRT TSX     $ERNOTE,4
 TD   00243  3 00000 0 02035         TXH     =7
 TD   00244  3 00000 0 02032         TXH     =0


      00245  0 00000 0 00000  X      PZE
      00246  0 00000 0 00000  Y      PZE
      00247  0 00000 0 00000  P      PZE
      00250  0 00000 0 00000  BUFNO  PZE
      00251  0 00000 0 00253  ABUFF  PZE     ABF
      00252  0 00000 0 01133  BBUFF  PZE     BBF
      00253  607447434663     ABF    BCI     1, (PLOT
      00254  606321472534            BCI     1, TAPE)
      00255  0 00000 0 00000  ATAG   PZE
      00256                          BSS     429
      01133  607447434663     BBF    BCI     1, (PLOT
      01134  606321472534            BCI     1, TAPE)
      01135  0 00000 0 00000  BTAG   PZE
      01136                          BSS     429
      02013  0 00000 0 00000  NAM1   PZE     **
      02014  0 00000 0 00000  NAM2   PZE     **
      02015  0 00000 0 00000  TX     PZE
      02016  0 00000 0 00000  TY     PZE
      02017  0 00000 0 00000  TP     PZE
      02020  0 00000 0 00000  USED   PZE
      02021  0 00000 0 00000  ZERO   PZE
      02022  0 00000 0 00000  TAGS   PZE
      02023  0 00006 0 00000  TAGCNT PZE     ,,6
      02024  0 00000 0 00000  XR4    PZE
      02025  0 00000 0 00000  XR1    PZE
      02026  0 00006 0 00000  CNTSET PZE     ,,6
      02027  3 00660 0 00253  WR1SET TXH     ABF,,432
1                                                                                                PAGE 5

      02030 -0634 00 4 00002  STRTD  SXD     FACTOR-2,4
      02031  0020 00 0 00237  STOPD  TRA     NSTRT
                                     END

        LITERALS
      02032  000000000000
      02033  000000000001
      02034  000000000004
      02035  000000000007
      02036  000000000012
      02037  000000000014
      02040  000000000015
1                                                                                                PAGE 1
                        POST PROCESSOR ASSEMBLY DATA

       2041 IS THE FIRST LOCATION NOT USED BY THIS PROGRAM

0REFERENCES TO DEFINED SYMBOLS
        247      P    11,   16,   25,   43,   57
        245      X     5,   14,   21,   30,   37,   53
        246      Y     7,   15,   23,   32,   41,   55
       2017     TP    12,   24
       2015     TX     6,   20
       2016     TY    10,   22
        253    ABF    54,   56,   66,  141,  251, 2027
       1133    BBF   252
         73    NOP    65
        141    WR1   120,  134,  200,  203,  207,  226
         47    WRB    17,   44
        103    WRD    77
       2025    XR1    50,   76,  147,  205
       2024    XR4    47,  101,  144,  146
        255   ATAG   204
       1135   BTAG   210
        144   DONE   154
       2013   NAM1   136,  213
       2014   NAM2   137,  215
         66   STOP   116,  132,  171,  224
         54   STOX   112,  126,  220
         56   STOY   114,  130,  222
        207   TAGA   202
       2022   TAGS    60,   71,   73,  166,  231
         76   TEST    72,   75
        122   USEA   104,  211
        105   USEB   206
       2020   USED    51,  100,  107,  123,  152,  172,  230
       2021   ZERO   140,  142,  143
        251  ABUFF   117,  124,  216
        252  BBUFF   110,  133
        250  BUFNO   103,  106,  122,  201,  227
        146  ENDUP     0
        174  NOTAG   160
        237  NSTRT    35, 2031
         35  PLOT1     0,  151,  235
       2031  STOPD   150
       2030  STRTD   234
         30  WHERE     0
        135  WRITE   121
       2026 CNTSET   232
          1 ERNOTE   237,  242
          4 FACTOR     0,    4,   26,   45, 2030
        242 NRSTRT
        212 STRTUP     0
       2023 TAGCNT    52,   70,   74,  165,  233
       2027 WR1SET   225
          0 WRFILE   135
1                                                                                                PAGE 2
                        POST PROCESSOR ASSEMBLY DATA

0 NO ERROR IN ABOVE ASSEMBLY.
