1                                                                                                PAGE 1

                       00004         ENTRY   SPRNT         TO WRITE OFF-LINE LISTING TAPE
                       00056         ENTRY   SPRNI         SET OUTPUT TAPE NUMBER FOR SPRNT
                       00415         ENTRY   DPNCH         WRITE BCD CARD IMAGES ON PUNCH TAPE
                       00420         ENTRY   BPNCH         WRITE BINARY CARD IMAGES ON PUNCH TAPE
                       00523         ENTRY   RDTAP         READ A RECORD FROM ANY TAPE
                       00606         ENTRY   WRTAP         WRITE A STRING OF RECORDS ON ANY TAPE
                       01247         ENTRY   RCARD         READ ON-LINE BCD CARDS
                       01567         ENTRY   RWTAP         UNLOAD A TAPE
                       01571         ENTRY   CLTAP         CLOSE AN OUTPUT TAPE
                       01630         ENTRY   FOUT          TO COMPLETE AND CHECK ALL I/O
                       01671         ENTRY   RDYTST        TO ENSURE THAT A TAPE IS READY
                       01667         ENTRY   WRTST         TO ENSURE THAT A TAPE IS READY AND WRITABLE
                       02024         ENTRY   PRNT          TO PRINT ON THE ON-LINE PRINTER

                                             CALLING SEQUENCES ..

                                               TO PRINT A BCD STRING WITH CARRIAGE CONTROL ..

                                                           TSX $SPRNT,4       CALL OFF-LINE PRINT
                                                           PZE  STRING,,'N'    ..

                                                 SPRNT WRITES THE 'N'-WORD BCD STRING BEGINNING AT
                                                 'STRING' ONTO THE F.M.S. LISTING TAPE 'P'.  OUTPUT
                                                 IS PACKED AT A MAXIMUM OF 'NBUFF' WORDS PER RECORD,
                                                 WITH 'RCDMK' AS THE 1401 RECORD MARK CHARACTER.

                                               TO TELL SPRNT WHAT TAPE TO WRITE ON

                                                           TSX $SPRNI,4
                                                           PFX TAPENO,TAG

                                                 ANY WAITING OUTPUT WILL BE WRITTEN ON THE OLD
                                                 OUTPUT TAPE, AND CHECKED.  THEN SPRNT WILL BE
                                                 RE-INITIALIZED TO WRITE ON THE SPECIFIED TAPE.

                                               TO WRITE BCD CARD IMAGES ..

                                                           TSX $DPNCH,4
                                                           PFX CARD,,'N'

                                                 FOR 'N' .GE. 14, THE 14 WORDS STARTING AT 'CARD' WILL
                                                 BE WRITTEN ON THE PUNCH TAPE IN BCD MODE.
                                                 IF 'N' .L. 14, THE RECORD WILL BE FILLED
                                                 TO 14 WORDS WITH BLANKS.

                                               TO WRITE BINARY CARD IMAGES ..

                                                           TSX $BPNCH,4
                                                           PFX CARD,,'N'

                                                 FOR 'N' .GE. 28, THE 28 WORDS STARTING AT 'CARD' WILL
                                                 BE WRITTEN ON THE PUNCH TAPE IN BINARY MODE.
                                                 IF 'N' .L. 28, THE RECORD WILL BE FILLED
                                                 TO 28 WORDS WITH ZEROS.
1                                                                                                PAGE 2

                                               TO READ FROM ANY TAPE ..

                                                           TSX $RDTAP,4
                                                           PFX TAPENO,TAG
                                                           PAR REDUN,,EOF
                                                           OPN LOC,,N

                                                 PREVIOUS I/O ON THE SPECIFIED CHANNEL WILL
                                                 BE CHECKED, THEN (IF THE ARGUMENTS AT 2,4 AND 3,4
                                                 ARE SPECIFIED, ONE RECORD WILL BE READ FROM THE
                                                 SPECIFIED TAPE.  IF, WHEN A LATER CALL TO RDTAP
                                                 CAUSES THIS READ TO BE CHECKED, THE RECORD IS
                                                 UNREADABLE AFTER 10 TRIES, RDTAP WILL 'TSX REDUN,4'.
                                                 RETURNING TO '1,4' WILL ACCEPT THE RECORD AS READ,
                                                 RETURNING TO '2,4' WILL TRY TO READ THE RECORD 10
                                                 MORE TIMES. IF AN END-OF-FILE IS DETECTED, RDTAP
                                                 WILL 'TSX EOF,4'. A RETURN TO '1,4' WILL READ THE
                                                 RECORD FOLLOWING THE END-OF-FILE MARK, A RETURN
                                                 TO '2,4' WILL FORGET THE SELECT (IF THE WAITING
                                                 SELECT IS FOR THE SAME TAPE, IT WILL BE IGNORED).

                                               TO WRITE ON ANY TAPE ..

                                                           TSX $WRTAP,4
                                                           PFX TAPENO,TAG
                                                           -PAR EOT-
                                                           OPN BUFF1,,N1
                                                           ...
                                                           OPN BUFFN,,NN

                                                 'PFX' MAY BE 'PZE', 'EFA', OR 'PAR'. FOR 'PZE',
                                                 'TAPENO,TAG' IS EVALUATED AND USED LITERALLY FOR THE
                                                 TAPE ADDRESS, FOR 'EFA', THE CONTENTS OF 'TAPENO,TAG'
                                                 IS USED, FOR 'PAR', 'TAG' MUST BE 0 AND THE CONTENTS
                                                 OF 'TAPENO' IS USED.  ZERO OR MORE RECORDS WILL BE
                                                 WRITTEN ON THE TAPE, ONE RECORD FOR EACH ARRAY
                                                 SPECIFIED.  'OPN' MAY BE EITHER 'PAR' OR 'BLK'.
                                                 IF 'BLK', THE COUNT IS SPECIFIED INDIRECTLY.
                                                 IF '2,4 IS 'PAR EOT,0,0', WRTAP WILL
                                                 'TSX EOT,4' IF THE END-OF TAPE MARK IS PASSED.

                                               TO READ ON-LINE BCD CARDS

                                                           TSX $RCARD,4
                                                           OPN BUFF,,N
                                                           OPN BADCRD,,EOF

                                                 IF 'N' IS GREATER THAN 12, THE BUFFER WILL BE
                                                 FILLED WITH BLANKS.  'RCARD' WILL RETURN AS SOON
                                                 AS THE I/O HAS BEEN STARTED.  AN END-OF-FILE
                                                 CONDITION WILL CAUSE A 'TSX EOF,4'. A RETURN TO '1,4'
                                                 WILL READ ANOTHER CARD, TO '2,4' WILL FORGET THE
                                                 READ (IF ANOTHER CALL TO 'RCARD' IS WAITING, IT
                                                 WILL BE IGNORED).  IF AN ILLEGAL BCD CHARACTER IS
                                                 FOUND IN THE CARD, 'RCARD' WILL 'TSX BADCRD,4'.
                                                 A '1,4' RETURN WILL READ THE NEXT CARD INSTEAD,
1                                                                                                PAGE 3

                                                 A '2,4' RETURN WILL ACCEPT THE CARD AS IS.  IF
                                                 ANY ARGUMENTS WERE NOT SPECFIED, 'RCARD' WILL
                                                 NOT READ A NEW CARD, BUT ONLY CHECK THE
                                                 PREVIOUS READ.

                                               TO UNLOAD A TAPE ..

                                                           TSX $RWTAP,4
                                                           PFX TAPENO,TAG

                                                 THE SPECIFIED TAPE WILL BE REWOUND AND UNLOADED.

                                               TO CLOSE AN OUTPUT TAPE ..

                                                           TSX $CLTAP,4
                                                           PFX TAPENO,TAG

                                                 5 END-OF-FILE MARKS WILL BE WRITTEN ON THE SPECIFIED
                                                 TAPE, THEN IT WILL BE REWOUND AND UNLOADED.

                                               TO COMPLETE AND CHECK TAPE I/O

                                                           TSX $FOUT,4        ..

                                               TO ENSURE THAT A TAPE IS READY

                                                           TSX $RDYTST,4
                                                           PFX TAPENO,TAG

                                               TO ENSURE THAT A TAPE IS READY AND WRITABLE

                                                           TSX $WRTST,4
                                                           PFX TAPENO,TAG

                                               TO PRINT A MESSAGE ON-LINE ..

                                                           TSX $PRNT,4       CALL ON-LINE PRINT
                                                           PFX  STRING,T,N

                                                 PFX=PZE, T=0, NO SPACING OR HALT.
                                                 PFX=PZE, T NON-0, NO STOP BUT SPACE 5 LINES.
                                                 PFX=MZE, PRINT, SPACE 5 LINES, LIGHT UP CONSOLE,
                                                          AND HALT (HTR 2,4).
                                                 'N' MUST BE LESS THAN 20 - EXTRA WORDS IGNORED.


                                             PARAMETERS VARIABLE AT ASSEMBLY TIME ..

                                     EXTERN  SELECT,CHECK


      00000  622543252363     SELECT
      00001  233025234260     CHECK
1                                                                                                PAGE 4


                       00000  MEM    EQU     0             MEMORY FLAG (0 FOR A, 1 FOR B)
                       01203  P      TAPENO  A3            F.M.S. LISTING OUTPUT TAPE
                       02224  Q      TAPENO  B4B           F.M.S. PUNCH OUTPUT TAPE (BINARY MODE)
                       02204  R      TAPENO  B4            F.M.S. PUNCH OUTPUT TAPE (DECIMAL MODE)
                       00150  NBUFF  EQU     104           MAXIMUM RECORD SIZE ACCEPTED BY 1401
                      000072  RCDMK  BOOL    72            1401 RECORD MARK
                       00002  NCHNLS EQU     2             NUMBER OF TAPE CHANNELS

             0761 01 1 60000  EFA    OPSYN   NOP
             3 00001 1 60000  PAR    OPSYN   PTH
             2 00001 1 60000  BLK    OPSYN   PTW
1                                                                                                PAGE 5
                           SPRNT, BUFFERED OFF-LINE OUTPUT TAPE ROUTINE


      00004  0634 00 1 00036  SPRNT  SXA     SPRX1,1       SAVE INDEX REGISTERS
      00005  0634 00 2 00037         SXA     SPRX2,2       ..
      00006  0634 00 4 00040         SXA     SPRX4,4       ..
      00007 -0500 00 4 00001         CAL     1,4           PICK UP CONTROL WORD
      00010 -0734 00 1 00000         PDX     ,1            MOVE COUNT TO INDEX REG. 1
      00011 -3 00000 1 00036         TXL     SPRX1,1,0     EXIT IF COUNT FIELD IS ZERO.
      00012  0754 00 1 00000         PXA     ,1            OTHERWISE, FORM 'FIRST' + 'N'
      00013  0361 00 4 00001         ACL     1,4           ..
      00014  0621 00 0 00030         STA     PKUP          AND SAVE FOR STRING MOVING
      00015 -0634 00 1 00017         SXD     INCMT,1       SAVE TO INCREMENT COUNT OF BUFFER
      00016 -0534 00 2 00072         LXD     CURBUF,2      PICK UP WORD COUNT OF CURRENT BUFFER
      00017  1 00000 2 00020  INCMT  TXI     *+1,2,**      INCREMENT BY 'N'
      00020 -3 00150 2 00023         TXL     MOVE,2,NBUFF  WILL THIS OVERFLOW CURRENT BUFFER
      00021  0074 00 4 00042         TSX     WRIT1,4         YES, INITIATE WRITE ON CURRENT BUFFER
      00022 -0534 00 2 00017         LXD     INCMT,2       AND INITIALIZE WORD COUNT FOR NEW BUFFER
      00023  0754 00 2 00000  MOVE   PXA     ,2            SET UP TO COPY STRING INTO CURRENT BUFFER
      00024  0361 00 0 00072         ACL     CURBUF        ..
      00025  0621 00 0 00031         STA     COPY          ..
      00026  1 00001 2 00027         TXI     *+1,2,1       ADD 1 TO TOTAL COUNT FOR RECORD MARKER
      00027 -0634 00 2 00072         SXD     CURBUF,2      ..
      00030 -0500 00 1 00000  PKUP   CAL     **,1          NOW MOVE BCD STRING TO OUTPUT BUFFER
      00031  0602 00 1 00000  COPY   SLW     **,1          ..
      00032  2 00001 1 00030         TIX     PKUP,1,1      ..
      00033  0774 00 1 00000         AXT     0,1           ADD RECORD MARKER TO BUFFER
      00034 -0500 00 0 00071         CAL     RCDMKR        ..
      00035  0602 60 0 00031         SLW*    COPY          ..
      00036  0774 00 1 00000  SPRX1  AXT     **,1          RESTORE INDEX REGISTERS
      00037  0774 00 2 00000  SPRX2  AXT     **,2          ..
      00040  0774 00 4 00000  SPRX4  AXT     **,4          ..
      00041  0020 00 4 00002         TRA     2,4           AND RETURN TO CALLING PROGRAM

      00042  0634 00 4 00054  WRIT1  SXA     WR1X4,4       SAVE RETURN
      00043 -0500 00 0 00072         CAL     CURBUF        PICK UP CURRENT BUFFER POINTER
      00044  0402 00 0 02275         SUB     =O1000000     SUBTRACT 1 FROM WORD COUNT
      00045  0560 00 0 00053         LDQ     IOBUF         IN ORDER TO DELETE LAST RECORD MARKER
      00046  0602 00 0 00053         SLW     IOBUF         AND EXCHANGE BUFFER POINTERS
      00047 -0600 00 0 00072         STQ     CURBUF        ..
      00050 -0634 00 0 00072         ZSD     CURBUF        INITIALIZE WORD COUNT IN NEW 'CURBUF'
      00051  0074 00 4 00606         TSX     WRTAP,4       WRITE I/O BUFFER
      00052  0 00000 0 01203  SPRNTP         P               ONTO OUTPUT TAPE
      00053  3 00000 0 00244  IOBUF  PAR     BUFF2,,**       ..
      00054  0774 00 4 00000  WR1X4  AXT     **,4          RESTORE RETURN
      00055  0020 00 4 00001         TRA     1,4           AND RETURN TO CONTINUE MAIN PROGRAM

      00056  0634 00 4 00064  SPRNI  SXA     SPIX4,4       SAVE RETURN
      00057 -0534 00 4 00072         LXD     CURBUF,4      IS CURRENT OUTPUT BUFFER EMPTY
      00060 -3 00000 4 00062         TXL     *+2,4,0         ..
      00061  0074 00 4 00042         TSX     WRIT1,4         NO. WRITE IT OUT
      00062  0074 00 4 00606         TSX     WRTAP,4       IN ANY CASE, CHECK PREVIOUS OUTPUT
      00063  0761 00 0 00052         EFA     SPRNTP          ..
      00064  0774 00 4 00000  SPIX4  AXT     **,4          RESTORE RETURN
      00065  0634 00 4 01646         SXA     TPNX4,4         TO GIVE IT TO TAPENO.
      00066  0074 00 4 01644         TSX     TAPENO,4      GET NEW TAPE ADDRESS
1                                                                                                PAGE 6
                           SPRNT, BUFFERED OFF-LINE OUTPUT TAPE ROUTINE

      00067  0621 00 0 00052         STA     SPRNTP          AND SAVE FOR SPRNT
      00070  0020 00 0 01667         TRA     WRTST           THEN GO CHECK IF TAPE WRITEBLE

      00071  606060606072     RCDMKR VFD     O30/6060606060,6/RCDMK
      00072  3 00000 0 00073  CURBUF PAR     BUFF1,,**     POINTER TO CURRENT BUFFER FOR SPRNT
      00073                   BUFF1  BSS     NBUFF+1       BUFFERS FOR SPRNT
      00244                   BUFF2  BSS     NBUFF+1       ..
1                                                                                                PAGE 7
                           DPNCH AND BPNCH, WRITE CARD IMAGES FOR PUNCHING

      00415  0634 00 2 00454  DPNCH  SXA     PUX2,2        SAVE CALLER'S XR2
      00416  0774 00 2 00000         AXT     0,2             AND SET INDEX FOR DPUNCH
      00417  0020 00 0 00422         TRA     PUNCH         JOIN COMMON CODE

      00420  0634 00 2 00454  BPNCH  SXA     PUX2,2        SAVE CALLER'S XR2
      00421  0774 00 2 00001         AXT     1,2             AND SET INDEX FOR BPUNCH

      00422  0634 00 4 00453  PUNCH  SXA     PUX4,4        SAVE RETURN
      00423  0634 00 1 00455         SXA     PUX1,1          ..
      00424 -0500 00 4 00001         CAL     1,4           GET INPUT POINTER
      00425 -0734 00 1 00000         PDX     ,1            COUNT TO XR1
      00426  0754 00 1 00000         PXA     ,1              AND BACK TO ADDRESS
      00427  0401 00 4 00001         ADM     1,4           FORM 'FIRST+N'
      00430  0621 00 0 00435         STA     PLOOP           AND SAVE FOR MOVE
      00431  0074 00 4 00606         TSX     WRTAP,4       FORCE CHECKING OF PREVIOUS I/O
      00432  0761 00 0 00451         EFA     PTPAD1          BEFORE CLOBBERING BUFFER.
      00433  0522 00 2 00460         XEC     PBUFL,2       GET RECORD LENGTH FOR THIS TYPE IN XR4
      00434 -3 00000 1 00441         TXL     PFILL,1,0     IF NO INPUT, SKIP TO PAD BUFFER
      00435 -0500 00 1 00000  PLOOP  CAL     **,1          MOVE A WORD
      00436  0602 00 4 00523         SLW     BUFF,4          INTO BUFFER
      00437 -2 00001 4 00444         TNX     PFILLD,4,1    SKIP OUT IF BUFFER FILLED
      00440  2 00001 1 00435         TIX     PLOOP,1,1     IF NO MORE INPUT,
      00441 -0500 00 2 00462  PFILL  CAL     PFILLR,2        PAD BUFFER WITH THE
      00442  0602 00 4 00523         SLW     BUFF,4          FILLER WORD FOR THIS TYPE.
      00443  2 00001 4 00442         TIX     *-1,4,1       FILL ENTIRE BUFFER.
      00444 -0500 00 2 00464  PFILLD CAL     PNTR,2        GET BUFFER POINTER FOR
      00445  0602 00 0 00452         SLW     PIOCOM          THIS TYPE INTO WRITE CALL
      00446 -0500 00 2 00466         CAL     PTPAD,2       ALSO SELECT ADDRESS.
      00447  0602 00 0 00451         SLW     PTPAD1          ..
      00450  0074 00 4 00606         TSX     WRTAP,4       CALL WRITE ROUTINE
      00451  0 00000 0 00000  PTPAD1 PZE     **            SELECT ADDRESS
      00452  3 00000 0 00000  PIOCOM PAR     **,,**        POINTER TO DATA

      00453  0774 00 4 00000  PUX4   AXT     **,4          ALL DONE, RESTORE XR'S
      00454  0774 00 2 00000  PUX2   AXT     **,2            ..
      00455  0774 00 1 00000  PUX1   AXT     **,1            ..
      00456  0020 00 4 00002         TRA     2,4             AND RETURN TO CALLER

      00457  0774 00 4 00034         AXT     28,4          RECORD LENGTHS FOR BINARY
      00460  0774 00 4 00016  PBUFL  AXT     14,4            AND BCD PUNCHING.

      00461 +000000000000            OCT     0             FILLER WORDS FOR BINARY
      00462  606060606060     PFILLR BCI     1,              AND BCD CARD IMAGES.

      00463  3 00034 0 00467         PAR     BUFF-28,,28   DATA POINTERS FOR BINARY
      00464  3 00016 0 00505  PNTR   PAR     BUFF-14,,14     AND BCD CARD IMAGES.

      00465  0 00000 0 02224                 Q             SELECT ADDRESSES FOR BINARY
      00466  0 00000 0 02204  PTPAD          R               AND BCD PUNCHING.

      00523                   BUFF   BES     28            BUFFER FOR CARD IMAGES

1                                                                                                PAGE 8
                           RDTAP, ROUTINE TO READ FROM ANY TAPE

      00523  0634 00 4 01646  RDTAP  SXA     TPNX4,4       GIVE CALLER'S XR4 TO TAPENO
      00524  0074 00 4 01644         TSX     TAPENO,4        AND GET SELECT ADDRESS
      00525  0621 00 0 00600         STA     READ          SAVE TAPE ADDRESS
      00526  0634 00 4 00602         SXA     RDX4,4          AND INDEX REGISTERS
      00527  0634 00 2 00603         SXA     RDX2,2          ..
      00530  0634 00 1 00604         SXA     RDX1,1          ..
      00531  1 77776 4 00532         TXI     *+1,4,-2      FORM RETURN ADDRESS
      00532  0636 00 4 00605         SCA     RDRTN,4         AND SAVE IT
      00533  0771 00 0 00011         ARS     9             ISOLATE CHANNEL NUMBER
      00534  0737 00 1 00000         PAC     ,1              ..
      00535 -3 77775 1 00602         TXL     RDX4,1,-NCHNLS-1 SKIP OUT IF 0 OR .G. NCHNLS
      00536  0074 00 4 00717         TSX     CHEK,4        CHECK PREVIOUS I/O ON THIS CHANNEL
      00537 -0500 00 0 01176         CAL     FORGET        MUST THIS CALL BE IGNORED
      00540  0100 00 0 00543         TZE     *+3             NO, NOT A CHANCE
      00541  0322 00 0 00600         ERA     READ            MAYBE, IF THIS IS THE TAPE
      00542  0100 00 0 00602         TZE     RDX4            YES, FLUSH READ FOR THIS TAPE.
      00543 -0625 00 1 01244         STL     READFL,1      INDICATE THIS IS A CALL TO READ
      00544  0534 00 4 00602         LXA     RDX4,4        DID CALLER WANT TO READ, OR ONLY CHECK
      00545 -0500 00 4 00002         CAL     2,4             ..
      00546  0602 00 1 01240         SLW     ERROR,1       SAVE POSSIBLE REDUNDANCY AND EOF RETURNS
      00547 -0320 00 0 01163         ANA     PT              ..
      00550  0322 00 0 01167         ERA     PAR             ..
      00551 -0100 00 0 00603         TNZ     RDX2          EXIT TO 2,4 IF NOT SPECIFIED
      00552 -0500 00 4 00003         CAL     3,4           GET POSSIBLE RECORD POINTER
      00553  0621 00 1 01230         STA     CKIOCM,1        ..
      00554  0622 00 1 01230         STD     CKIOCM,1        ..
      00555 -0737 00 2 00000         PDC     ,2            SAVE DECREMENT IN CASE OF 'BLK'
      00556 -0320 00 0 01163         ANA     PT              ..
      00557  0322 00 0 01167         ERA     PAR             ..
      00560  0100 00 0 00566         TZE     RDTAP1        OK IF 'PAR'
      00561  0322 00 0 01170         ERA     2XOR3         TRY FOR 'BLK'
      00562 -0100 00 0 00603         TNZ     RDX2          NOPE, EXIT.
      00563 -0500 00 2 00000         CAL     0,2           GET INDIRECTLY SPECIFIED COUNT
      00564  0767 00 0 00022         ALS     18              ..
      00565  0622 00 1 01230         STD     CKIOCM,1        INTO I/O COMMAND
      00566 -0625 00 1 01242  RDTAP1 STL     BUSY,1        CHANNEL NOW BUSY
      00567 -0500 00 0 00605         CAL     RDRTN         BUMP RETURN LOC. PAST ARGUMENTS
      00570  0400 00 0 02270         ADD     =2              ..
      00571  0621 00 0 00605         STA     RDRTN           ..
      00572 -0500 00 0 00600         CAL     READ          SAVE READ SELECT
      00573  0602 00 1 01226         SLW     CKSEL,1         FOR CHEK
      00574  0621 00 1 01232         STA     CKBSR,1       SET UP ASSORTED ADDRESSES
      00575  0621 00 1 01234         STA     CKWEF,1         ..
      00576  0621 00 1 01236         STA     CKRUN,1         ..
      00577  0074 00 4 00000         TSX     SELECT,4        (COMPATIBILITY)
      00600  0762 00 0 00000  READ   RDS     **            START UP I/O
      00601  0522 00 1 01220         XEC     RCHX,1          ..
      00602  0774 00 4 00000  RDX4   AXT     **,4          AND RETURN TO CALLER
      00603  0774 00 2 00000  RDX2   AXT     **,2            ..
      00604  0774 00 1 00000  RDX1   AXT     **,1            ..
      00605  0020 00 0 00000  RDRTN  TRA     **              ..
1                                                                                                PAGE 9
                           WRTAP, ROUTINE TO WRITE RECORDS ON ANY TAPE

      00606  0634 00 4 01646  WRTAP  SXA     TPNX4,4       GIVE CALLER'S XR4 TO TAPENO
      00607  0074 00 4 01644         TSX     TAPENO,4        AND GET TAPE ADDRESS
      00610  0621 00 0 00651         STA     WRITE         SAVE NEW SELECT ADDRESS
      00611  0634 00 4 00707         SXA     WRTX4,4         AND INDEX REGISTERS
      00612  0634 00 2 00710         SXA     WRTX2,2         ..
      00613  0634 00 1 00711         SXA     WRTX1,1         ..
      00614  1 77776 4 00615         TXI     *+1,4,-2      CURRENT RETURN IS TO 2,4
      00615  0636 00 4 00712         SCA     RETURN,4        ..
      00616  0771 00 0 00011         ARS     9             ISOLATE CHANNEL NUMBER
      00617  0737 00 1 00000         PAC     ,1            PUT IN XR
      00620 -3 77775 1 00707         TXL     WRTX4,1,-NCHNLS-1 SKIP OUT IF 0 OR .G. NCHNLS
      00621  0074 00 4 00717         TSX     CHEK,4        CHECK PREVIOUS I/O ON THIS CHANNEL (IF ANY)
      00622 -0500 00 0 01176         CAL     FORGET        MUST WE IGNORE THIS CALL
      00623  0100 00 0 00626         TZE     *+3             NO.
      00624  0322 00 0 00651         ERA     WRITE           MAYBE, CHECK FURTHER
      00625  0100 00 0 00707         TZE     WRTX4           YES, THIS WAS THE TAPE
      00626  0600 00 1 01244         STZ     READFL,1      INDICATE WRITE CALL
      00627  0560 00 1 01220         LDQ     RCHX,1        GET 'RCH' FOR THIS CHANNEL
      00630 -0620 00 0 00652         SLQ     WRITE+1         AND SET UP WRITE SEQUENCE.
      00631 -0500 60 0 00712         CAL*    RETURN        CHECK FOR 'EOT' RETURN
      00632  0602 00 1 01240         SLW     ERROR,1       SAVE FOR CHECK
      00633  0322 00 0 01167         ERA     PAR           MUST BE 'PAR' WITH ZERO DECREMENT
      00634 -0320 00 0 01165         ANA     PDT             ..
      00635 -0100 00 0 00642         TNZ     *+5             ..
      00636 -0500 00 0 00712         CAL     RETURN        IT WAS THERE,
      00637  0400 00 0 02267         ADD     =1              BUMP RETURN
      00640  0621 00 0 00712         STA     RETURN          ..
      00641  0020 00 0 00643         TRA     *+2             ..
      00642  0600 00 1 01240         STZ     ERROR,1       NOT THERE, RESET FLAG

      00643  0074 00 4 00667         TSX     NXARG,4       GET FIRST COMMAND INTO 'IOCOM'
      00644 -0500 00 0 00651         CAL     WRITE         TELL CHEK ABOUT THIS WRITE
      00645  0621 00 1 01232         STA     CKBSR,1         ..
      00646  0621 00 1 01234         STA     CKWEF,1         ..
      00647  0621 00 1 01236         STA     CKRUN,1         ..
      00650  0074 00 4 00000  WRIT   TSX     SELECT,4        (COMPATIBILITY)
      00651  0766 00 0 00000  WRITE  WRS     **            SELECT THE TAPE
      00652  0540 00 0 01171         RCHA    IOCOM           AND INITIATE I/O
      00653 -0500 00 0 00651         CAL     WRITE         TELL CHEK ABOUT THIS WRITE
      00654  0602 00 1 01226         SLW     CKSEL,1         ..
      00655 -0500 00 0 01171         CAL     IOCOM         ALSO SAVE I/O COMMAND
      00656  0602 00 1 01230         SLW     CKIOCM,1        ..
      00657 -0625 00 1 01242         STL     BUSY,1        CHANNEL IS NOW BUSY
      00660  0074 00 4 00667  GTNXT  TSX     NXARG,4       IS THERE ANOTHER ARGUMENT
      00661  0074 00 4 00717         TSX     CHEK,4          YES, CHECK PREVIOUS I/O
      00662 -0500 00 0 01176         CAL     FORGET        MUST THIS CALL BE FORGOTTEN
      00663  0100 00 0 00666         TZE     *+3             NO.
      00664  0322 00 0 00651         ERA     WRITE           MAYBE
      00665  0100 00 0 00707         TZE     WRTX4           YES, THIS IS THE TAPE
      00666  0020 00 0 00650         TRA     WRIT              THEN GO WRITE SOME MORE.

      00667 -0500 60 0 00712  NXARG  CAL*    RETURN        GET NEXT (POSSSIBLE) ARGUMENT
      00670  0621 00 0 01171         STA     IOCOM         SAVE ADDRESS AND
      00671  0622 00 0 01171         STD     IOCOM           DECREMENT FOR I/O COMMAND
      00672 -0737 00 2 00000         PDC     ,2            GET DECREMENT IN CASE OF 'BLK'
1                                                                                                PAGE 10
                           WRTAP, ROUTINE TO WRITE RECORDS ON ANY TAPE

      00673 -0320 00 0 01163         ANA     PT            KEEP ONLY PREFIX AND TAG FOR TESTING
      00674  0322 00 0 01167         ERA     PAR           IS IT 'PAR'
      00675  0100 00 0 00703         TZE     ISNXT           YES, OK AS IS
      00676  0322 00 0 01170         ERA     2XOR3         HOW ABOUT 'BLK'
      00677 -0100 00 0 00707         TNZ     WRTX4           NOPE, END AF ARGUMENT LIST
      00700 -0500 00 2 00000         CAL     0,2             YES, GET INDIRECTLY SPECIFIED COUNT
      00701  0767 00 0 00022         ALS     18                INTO DECREMENT
      00702  0622 00 0 01171         STD     IOCOM               OF I/O COMMAND.
      00703 -0500 00 0 00712  ISNXT  CAL     RETURN        THIS IS AN ARGUMENT,
      00704  0400 00 0 02267         ADD     =1              SO INCREMENT THE RETURN LOCATION.
      00705  0621 00 0 00712         STA     RETURN          ..
      00706  0020 00 4 00001         TRA     1,4           BACK TO CALLER

      00707  0774 00 4 00000  WRTX4  AXT     **,4          RESTORE XR'S
      00710  0774 00 2 00000  WRTX2  AXT     **,2            ..
      00711  0774 00 1 00000  WRTX1  AXT     **,1            ..
      00712  0020 00 0 00000  RETURN TRA     **              AND RETURN AFTER LAST ARG.

1                                                                                                PAGE 11
                           CHEK, ROUTINE TO CHECK PREVIOUS I/O

      00713  0500 00 0 00755  CHK    CLA     CHKX4         SPECIAL CALL TO CHEK,
      00714  0560 00 0 00756         LDQ     CHKX2           DON'T CLOBBER SAVED INDEX REGISTERS
      00715 -0603 00 0 00766         DST     CHKSVX          ..
      00716 -0625 00 0 01175         STL     LATERS        REMEMBER ERRORS, DON'T PROCESS THEM

      00717 -0500 00 1 01242  CHEK   CAL     BUSY,1        IS THIS CHANNEL WORKING
      00720  0100 00 0 00757         TZE     NDCHK           NO, IGNORE THIS CALL.
      00721  0634 00 4 00755         SXA     CHKX4,4       SAVE RETURN
      00722  0634 00 2 00756         SXA     CHKX2,2         ..
      00723  0600 00 0 01176         STZ     FORGET        DON'T LOSE A SELECT UNNECESSARILY
      00724  0600 00 1 01242         STZ     BUSY,1        RESET BUSY FLAG
      00725 -0734 00 4 00000         PDX     ,4            GET ERROR FLAGS (IF ANY)
      00726  0600 00 0 01174         STZ     EOTFL           (NO END OF TAPE YET)
      00727  0020 00 4 00736         TRA     CHEK1,4         AND PROCESS WAITING ERRORS

      00730  0020 00 0 01460         TRA     RDREOF
      00731  0020 00 0 01444         TRA     BADCRD
      00732  0020 00 0 01331         TRA     CHKRDR          ..
      00733  0020 00 0 01102         TRA     ENDTP1          ..
      00734  0020 00 0 01063         TRA     EOF1            ..
      00735  0020 00 0 01003         TRA     REDUN1          ..

      00736  0600 00 0 01172  CHEK1  STZ     ERRFL         NO REDUNDANCY
      00737  0600 00 0 01173         STZ     EOFFL           OR EOF YET.
      00740  0774 00 2 00012         AXT     10,2          TRY 10 TIMES TO WRITE
      00741  0636 00 1 00743  CHEK2  SCA     *+2,1         SET CHANNEL TO WAIT ON AND
      00742  0074 00 4 00001         TSX     CHECK,4         WAIT AND CHECK WRITE
      00743  0 00000 0 00000                 **              ON CHANNEL 'N'
      00744  0 00000 0 01172                 ERRFL         FLAG FOR REDUNDANCY
      00745  0 00000 0 01173                 EOFFL           AND EOF
      00746  0 00000 0 01174                 EOTFL           AND EOT
      00747  0520 00 0 01172         ZET     ERRFL         WAS THERE A REDUNDANCY
      00750  0020 00 0 00770         TRA     REDUN           YES, GO PROCESS IT
      00751  0520 00 0 01173         ZET     EOFFL         HOW ABOUT END-OF-FILE
      00752  0020 00 0 01061         TRA     EOF             YES, WORRY ABOUT IT
      00753  0520 00 0 01174  ETTST  ZET     EOTFL           NO. ARE WE OUT OF TAPE
      00754  0074 00 2 01100         TSX     ENDTAP,2          YES. GO CLOSE THIS TAPE
      00755  0774 00 4 00000  CHKX4  AXT     **,4          RESTORE RETURN AND
      00756  0774 00 2 00000  CHKX2  AXT     **,2            ..
      00757 -0520 00 0 01175  NDCHK  NZT     LATERS        RESTORE SAVED REGISTERS
      00760  0020 00 4 00001         TRA     1,4             NO, GO BACK TO CALLER
      00761  0500 00 0 00766         CLA     CHKSVX          YES
      00762  0560 00 0 00767         LDQ     CHKSVX+1        ..
      00763 -0603 00 0 00755         DST     CHKX4           ..
      00764  0600 00 0 01175         STZ     LATERS        RESET FLAG
      00765  0020 00 4 00001         TRA     1,4             ..

      00766                   CHKSVX BSS     2

      00770 -2 00001 2 01003  REDUN  TNX     REDUN1,2,1    REDUNDANCY, IS THIS THE 10TH
      00771  0074 00 4 00000  REDUNX TSX     SELECT,4        NO, BACKSPACE OVER IT
      00772  0020 00 0 00777         TRA     RDNX1             NAD TRY AGAIN
      00773  0761 00 0 00000         NOP
      00774  0600 00 0 01172  RDNX1R STZ     ERRFL         RESET REDUNDANCY
      00775  0600 00 0 01173         STZ     EOFFL           AND EOF FLAGS
1                                                                                                PAGE 12
                           CHEK, ROUTINE TO CHECK PREVIOUS I/O

      00776  0020 00 0 00741         TRA     CHEK2           AND GO TO RE-CHECK

      00777  0522 00 1 01232  RDNX1  XEC     CKBSR,1
      01000  0522 00 1 01226         XEC     CKSEL,1
      01001  0522 00 1 01220         XEC     RCHX,1
      01002  0020 00 0 00774         TRA     RDNX1R

      01003 -0520 00 0 01175  REDUN1 NZT     LATERS        10 ERRORS, SHOULD WE SAVE CONDITION
      01004  0020 00 0 01010         TRA     *+4             NO, PROCESS IT NOW
      01005 -0500 00 0 02275         CAL     =O1000000       YES, ERROR TYPE 1
      01006  0622 00 1 01242         STD     BUSY,1        SAVE FLAGS FOR NEXT CALL
      01007  0020 00 0 00755         TRA     CHKX4           AND EXIT

      01010  0520 00 1 01244         ZET     READFL,1      IS THIS A READ CALL
      01011  0020 00 0 01034         TRA     REDUN2          YES, GO TELL CALLER ABOUT ERROR
      01012  0074 00 4 00000         TSX     SELECT,4
      01013  0522 00 1 01232         XEC     CKBSR,1         NO, BACKSPACE OVER RECORD
      01014  0522 00 1 01226         XEC     CKSEL,1           AND TRY TO ERASE
      01015  0600 00 0 01172         STZ     ERRFL         RESET REDUNDANCIES
      01016  0636 00 1 01020         SCA     *+2,1         SET CHANNEL NUMBER AND
      01017  0074 00 4 00001         TSX     CHECK,4         WAIT UNTIL DONE
      01020  0 00000 0 00000                 **              ..
      01021  0 00000 0 01172                 ERRFL           ..
      01022  0 00000 0 01173                 EOFFL           ..
      01023  0 00000 0 01174                 EOTFL           ..
      01024  0520 00 0 01172         ZET     ERRFL         WAS THERE A BAD SPOT
      01025  0020 00 0 01043         TRA     BADSPT          YES.
      01026  0520 00 0 01174         ZET     EOTFL         ARE WE OUT OF TAPE
      01027  0074 00 2 01100         TSX     ENDTAP,2        YES, CLOSE THIS TAPE
      01030  0074 00 4 00000  RETRY  TSX     SELECT,4
      01031  0522 00 1 01226         XEC     CKSEL,1       TRY 10 TIMES ON NEW AREA
      01032  0522 00 1 01220         XEC     RCHX,1          ..
      01033  0020 00 0 00736         TRA     CHEK1

      01034 -0500 00 1 01240  REDUN2 CAL     ERROR,1       10 REDUNDANCIES READING,
      01035  0737 00 2 00000         PAC     ,2              GET CALLER'S REDUNDANCY RETURN
      01036 -0774 00 4 01037         AXC     *+1,4         SIMULATE 'TSX'
      01037  0020 00 2 00000         TRA     0,2             ..
      01040  0020 00 0 00755         TRA     CHKX4         '1,4' RETURN, IGNORE ERROR
      01041  0774 00 2 00012         AXT     10,2          '2,4' RETURN, TRY 10 MORE TIMES
      01042  0020 00 0 00771         TRA     REDUNX          ..

      01043  0074 00 4 00000  BADSPT TSX     SELECT,4
      01044  0522 00 1 01232         XEC     CKBSR,1       BAD SPOT, BACK UP OVER IT
      01045  0761 00 0 00000         NOP
      01046  0074 00 4 01151         TSX     TAPNAM,4      GET BCD NAME FOR THIS SELECT ADDRESS
      01047  0 00000 1 01226                 CKSEL,1         ..
      01050  0767 00 0 00022         ALS     18              SHIFT TO POSITION
      01051  0622 00 0 01202         STD     BADTP+3         AND INSERT IN ERROR COMMENT.
      01052  0074 00 4 02024         TSX     PRNT,4        COMPLAIN ON-LINE
      01053  0 00004 0 01177         PZE     BADTP,,BADTPL   ..
      01054  0074 00 4 01127         TSX     CLOSE,4       CLOSE OUT THIS TAPE
      01055  0074 00 4 00000         TSX     SELECT,4
      01056  0522 00 1 01226         XEC     CKSEL,1       NEW TAPE IS UP, HERE WE GO AGAIN
      01057  0522 00 1 01220         XEC     RCHX,1          ..
1                                                                                                PAGE 13
                           CHEK, ROUTINE TO CHECK PREVIOUS I/O

      01060  0020 00 0 00736         TRA     CHEK1         TRY 10 TIMES AGAIN

      01061 -0520 00 1 01244  EOF    NZT     READFL,1      END-OF-FILE, ARE WE READING
      01062  0020 00 0 00753         TRA     ETTST           NO, IGNORE IT (IMPOSSIBLE)
      01063 -0520 00 0 01175  EOF1   NZT     LATERS          YES, SHALL WE SAVE IT
      01064  0020 00 0 01070         TRA     *+4               NO, DO IT NOW
      01065 -0500 00 0 02276         CAL     =O2000000       ERROR TYPE 2
      01066  0622 00 1 01242         STD     BUSY,1          SAVE FOR NEXT CALL
      01067  0020 00 0 00755         TRA     CHKX4             AND EXIT

      01070 -0500 00 1 01240         CAL     ERROR,1       GET CALLER'S EOF RETURN
      01071 -0737 00 2 00000         PDC     ,2              ..
      01072 -0774 00 4 01073         AXC     *+1,4         SIMULATE A 'TSX'
      01073  0020 00 2 00000         TRA     0,2             ..
      01074  0020 00 0 01030         TRA     RETRY         '1,4' RETURN, READ NEXT RECORD INSTEAD
      01075 -0500 00 1 01226         CAL     CKSEL,1       '2,4' RETURN, KILL REQUEST
      01076  0602 00 0 01176         SLW     FORGET          FOR THIS TAPE
      01077  0020 00 0 00755         TRA     CHKX4           AND RETURN TO CALLER

      01100  0520 00 1 01244  ENDTAP ZET     READFL,1      END OF TAPE, ARE WE READING
      01101  0020 00 2 00001         TRA     1,2             YES, IGNORE (IMPOSSIBLE)
      01102 -0520 00 0 01175  ENDTP1 NZT     LATERS          NO, MUST WE SAVE IT
      01103  0020 00 0 01107         TRA     *+4               NO, PROCESS IT
      01104 -0500 00 0 02277         CAL     =O3000000     ERROR TYPE 3
      01105  0622 00 1 01242         STD     BUSY,1        SAVE FOR LATER
      01106  0020 00 0 00755         TRA     CHKX4           AND EXIT

      01107 -0500 00 1 01240         CAL     ERROR,1       DID CALLER GIVE 'EOT' RETURN
      01110 -0100 00 0 01120         TNZ     GIVEOT          YES, USE IT
      01111  0074 00 4 01151         TSX     TAPNAM,4      GET BCD NAME
      01112  0 00000 1 01226                 CKSEL,1         ..
      01113  0621 00 0 01210         STA     ENDTP+5         AND INSERT IN COMMENT
      01114  0074 00 4 02024         TSX     PRNT,4        COMMENT ON-LINE
      01115  0 00007 0 01203         PZE     ENDTP,,ENDTPL   ..
      01116  0074 00 4 01127         TSX     CLOSE,4       CLOSE OUT THIS TAPE
      01117  0020 00 2 00001         TRA     1,2           NEW TAPE IS UP, EXIT.

      01120  0737 00 2 00000  GIVEOT PAC     ,2            SIMULATE A 'TSX'
      01121 -0774 00 4 01122         AXC     *+1,4           ..
      01122  0020 00 2 00000         TRA     0,2             ..
      01123  0020 00 0 01030         TRA     RETRY         '1,4' RETURN, RETRY
      01124 -0500 00 1 01226         CAL     CKSEL,1       '2,4' RETURN, KILL REQUEST
      01125  0602 00 0 01176         SLW     FORGET          FOR THIS TAPE
      01126  0020 00 0 00755         TRA     CHKX4           ..

      01127  0634 00 4 01142  CLOSE  SXA     CLSX4,4       HERE TO CLOSE OUT TAPE
      01130  0074 00 4 00000         TSX     SELECT,4
      01131  0020 00 0 01144         TRA     CLOS1
      01132 -0774 00 4 01130  CLOS1R AXC     *-2,4           (IN CASE RUNNING FOREGROUND)
      01133  0600 00 0 01172         STZ     ERRFL
      01134  0600 00 0 01173         STZ     EOFFL
      01135  0600 00 0 01174         STZ     EOTFL
      01136  0074 00 4 02024         TSX     PRNT,4        ASK OPERATOR TO CHANGE TAPES
      01137 -0 00007 0 01212         MZE     NEWTP,,NEWTPL   ..
      01140  0074 00 4 01667         TSX     WRTST,4       START PRESSED, MAKE SURE TAPE IS WRITABLE
1                                                                                                PAGE 14
                           CHEK, ROUTINE TO CHECK PREVIOUS I/O

      01141  0761 00 1 01226         EFA     CKSEL,1         (CONTAINS TAPE ADDRESS)
      01142  0774 00 4 00000  CLSX4  AXT     **,4          TAPE IS READY, RESTORE RETURN
      01143  0020 00 4 00001         TRA     1,4             AND GO BACK TO CALLER

      01144  0774 00 4 00005  CLOS1  AXT     5,4           WRITE 5 END-OF-FILE MARKS
      01145  0522 00 1 01234         XEC     CKWEF,1         ..
      01146  2 00001 4 01145         TIX     *-1,4,1         ..
      01147  0522 00 1 01236         XEC     CKRUN,1       UNLOAD THE TAPE
      01150  0020 00 0 01132         TRA     CLOS1R

      01151 -0500 60 4 00001  TAPNAM CAL*    1,4           PICK UP TAPE ADDRESS
      01152 -0320 00 0 02273         ANA     =O17          ISOLATE TAPE NUMBER
      01153 -0340 00 0 02272         LAS     =10           IF IT IS 10,
      01154  0761 00 0 00000         NOP                     ..
      01155 -0754 00 0 00000         ZAC                     MAKE IT ZERO
      01156 -0765 00 0 00006         LGR     6             SAVE IN MQ
      01157  0756 00 1 00000         PCA     ,1            GET CHANNEL NUMBER
      01160  0400 00 0 02274         ADD     =O20            PLUS OCTAL 20 FOR BCD CHANNEL NAME
      01161 -0763 00 0 00006         LGL     6             APPEND TAPE NUMBER
      01162  0020 00 4 00002         TRA     2,4           RETURN TO CALLER

      01163 -3 00000 7 00000  PT     SVN     0,-1,0
      01164 -3 77777 0 00000  PD     SVN     0,0,-1
      01165 -3 77777 7 00000  PDT    SVN     0,-1,-1
      01166  0761 00 0 00000  EFA    EFA
      01167  3 00000 0 00000  PAR    PAR
      01170  1 00000 0 00000  2XOR3  PON

      01171  3 00000 0 00000  IOCOM  IORT    **,,**        SKELETON I/O COMMAND

      01172  0 00000 0 00000  ERRFL
      01173  0 00000 0 00000  EOFFL
      01174  0 00000 0 00000  EOTFL
      01175  0 00000 0 00000  LATERS
      01176  0 00000 0 00000  FORGET


      01177  606022212460     BADTP  BCI     4,  BAD SPOT ON TAPE   .
                       00004  BADTPL EQU     *-BADTP
      01203  606025452460     ENDTP  BCI     7,  END OF TAPE SENSED WRITING TAPE   .
                       00007  ENDTPL EQU     *-ENDTP
      01212  606023302145     NEWTP  BCI     7,  CHANGE TAPES AND PRESS START TO CONTINUE.
                       00007  NEWTPL EQU     *-NEWTP


                              CHNLS  MACRO   OP,VAR
                                     IRP     OP
                                     CHNLS1  OP'X,OP(A,B,C,D,E,F,G,H)(VAR)
                                     IRP
                              CHNLS  END

                              CHNLS1 MACRO   LOC,OP1,OP2,VAR
                              LOC    EQU     *-1
                                     IRP     OP2
                                     OP1'OP2 VAR
1                                                                                                PAGE 15
                           CHEK, ROUTINE TO CHECK PREVIOUS I/O

                                     IRP
                                     ORG     LOC+NCHNLS+1
                              CHNLS1 END

      01221                          CHNLS   RCH(CKIOCM,1)
      01223                          CHNLS   (TCO,RDC)(0)
 N    01233  0760 00 0 07352         RDCG    0                                                                .002
 N    01234  0760 00 0 10352         RDCH    0                                                                .002
                       01226  CKSEL  EQU     *-1
                       01227         DUP     1,NCHNLS
      01227  0 00000 0 00000         PZE
                       01230  CKIOCM EQU     *-1
                       01231         DUP     1,NCHNLS
      01231  3 00000 0 00000         IORT    **,,**
                       01232  CKBSR  EQU     *-1
                       01233         DUP     1,NCHNLS
      01233  0764 00 0 00200         BSR     **
                       01234  CKWEF  EQU     *-1
                       01235         DUP     1,NCHNLS
      01235  0770 00 0 00200         WEF     **
                       01236  CKRUN  EQU     *-1
                       01237         DUP     1,NCHNLS
      01237 -0772 00 0 00200         RUN     **
                       01240  ERROR  EQU     *-1
                       01241         DUP     1,NCHNLS
      01241  0 00000 0 00000                 **,,**
                       01242  BUSY   EQU     *-1
                       01243         DUP     1,NCHNLS
      01243  0 00000 0 00000                 0
                       01244  READFL EQU     *-1
                       01245         DUP     1,NCHNLS
      01245  0 00000 0 00000                 **
1                                                                                                PAGE 16
                           RCARD, READ ON-LINE BCD CARDS

      01247  0634 00 4 01322  RCARD  SXA     RC4,4         SAVE REGISTERS
      01250  0634 00 2 01323         SXA     RC2,2           ..
      01251  0634 00 1 01324         SXA     RC1,1           ..
      01252  1 77777 4 01253         TXI     *+1,4,-1        AND SET RETURN
      01253  0636 00 4 01325         SCA     RCDRT,4
      01254 -0774 00 1 00001         AXC     1,1           SET UP AND
      01255  0074 00 4 00717         TSX     CHEK,4          CHECK CHANNEL 'A'
      01256 -0500 00 0 01176         CAL     FORGET        SHOULD WE IGNORE THIS CALL
      01257  0100 00 0 01262         TZE     *+3             NO.
      01260  0322 00 0 01316         ERA     RCD             MAYBE
      01261  0100 00 0 01322         TZE     RC4             YES, GO AWAY
      01262  0522 00 0 01322         XEC     RC4           RESTORE XR4
      01263 -0500 00 4 00001         CAL     1,4
      01264 -0737 00 2 00000         PDC     ,2
      01265  0636 00 2 01352         SCA     RCDLN,2
      01266  0400 00 0 02271         ADD     =6
      01267  0621 00 0 01565         STA     OUTPUT-2
      01270  0400 00 0 02271         ADD     =6
      01271  0621 00 0 01566         STA     OUTPUT-1
      01272 -0320 00 0 01163         ANA     PT
      01273  0322 00 0 01167         ERA     PAR
      01274  0100 00 0 01301         TZE     *+5
      01275  0322 00 0 01170         ERA     2XOR3
      01276 -0100 00 0 01322         TNZ     RC4
      01277 -0500 00 2 00000         CAL     0,2
      01300  0621 00 0 01352         STA     RCDLN
      01301 -0500 00 4 00002         CAL     2,4
      01302  0602 00 1 01240         SLW     ERROR,1
      01303 -0320 00 0 01163         ANA     PT
      01304  0322 00 0 01167         ERA     PAR
      01305  0100 00 0 01310         TZE     *+3
      01306  0322 00 0 01170         ERA     2XOR3
      01307 -0100 00 0 01322         TNZ     RC4
      01310 -0500 00 0 01325         CAL     RCDRT
      01311  0400 00 0 02270         ADD     =2
      01312  0621 00 0 01325         STA     RCDRT
      01313 -0500 00 0 02300         CAL     =O4000000
      01314  0602 00 1 01242         SLW     BUSY,1        SHOW BUSY WITH CARD READER
      01315  0074 00 4 00000         TSX     SELECT,4
      01316  0762 00 0 01321  RCD    RCDA
      01317  0540 00 0 01475         RCHA    RDCARD
      01320 -0500 00 0 01316         CAL     RCD
      01321  0602 00 1 01226         SLW     CKSEL,1
      01322  0774 00 4 00000  RC4    AXT     **,4
      01323  0774 00 2 00000  RC2    AXT     **,2
      01324  0774 00 1 00000  RC1    AXT     **,1
      01325  0020 00 0 00000  RCDRT  TRA     **

      01326  0074 00 4 00000  REREAD TSX     SELECT,4
      01327  0762 00 0 01321         RCDA
      01330  0540 00 0 01475         RCHA    RDCARD

      01331  0600 00 0 01173  CHKRDR STZ     EOFFL         CHECK THE ON-LINE READER
      01332  0074 00 4 00001         TSX     CHECK,4       WAIT UNTIL DONE
      01333  0 00000 0 00001                 1
1                                                                                                PAGE 17
                           RCARD, READ ON-LINE BCD CARDS

      01334  0 00000 0 01172                 ERRFL         REDUNDANCY IS IMPOSSIBLE
      01335  0 00000 0 01173                 EOFFL         REMEMBER EOF
      01336  0 00000 0 01174                 EOTFL         END-OF-TAPE IS IMPOSSIBLE
      01337  0520 00 0 01173         ZET     EOFFL         WAS THERE AN EOF
      01340  0020 00 0 01460         TRA     RDREOF          YES, PROCESS IT

      01341  0604 00 0 01530         STI     RCDSI
      01342  0634 00 3 01436         SXA     RC3,3
      01343  0774 00 3 00000         AXT     0,3
      01344  0600 00 0 01531         STZ     RCDMTM
      01345  3 00000 1 01351         TXH     *+4,1,0
      01346 -0625 00 0 01531         STL     RCDMTM
      01347  0760 00 0 00016         LMTM
      01350  0634 00 3 01436         SXA     RC3,3
      01351  0634 00 5 01437         SXA     RC5,5
      01352  0774 00 5 00000  RCDLN  AXT     **,5          GET BUFFER LENGTH
      01353 -3 00000 5 01435         TXL     RCDRST,5,0

      01354  0774 00 2 00002         AXT     2,2           CHECK FOR ILLEGAL CHARS. IN INPUT
      01355  0441 60 0 01536  VLDTS  LDI*    3ROW
      01356  0444 60 0 01537         OFT*    4ROW
      01357  0020 00 0 01444         TRA     BADCRD
      01360  0442 60 0 01537         OSI*    4ROW
      01361  0442 60 0 01540         OSI*    8ROW
      01362  0774 00 1 00006         AXT     6,1
      01363  0444 60 1 01547         OFT*    ROWS,1
      01364  0020 00 0 01444         TRA     BADCRD
      01365  0442 60 1 01547         OSI*    ROWS,1
      01366  2 00001 1 01363         TIX     *-3,1,1
      01367 -0046 00 0 00000         PIA
      01370  0441 60 0 01533         LDI*    12ROW
      01371  0444 60 0 01534         OFT*    11ROW
      01372  0020 00 0 01444         TRA     BADCRD
      01373  0442 60 0 01534         OSI*    11ROW
      01374  0444 60 0 01535         OFT*    ZROW
      01375  0020 00 0 01444         TRA     BADCRD
      01376  0043 00 0 00000         OAI
      01377  0440 00 0 01532         IIS     FENCE
      01400  0604 60 0 01547         STI*    ROWS
      01401  2 00001 2 01355         TIX     VLDTS,2,1

      01402  0774 00 2 00002         AXT     2,2           NOW CONVERT TO BCD
      01403  0774 00 3 00006  NXT36  AXT     6,3
      01404  0774 00 1 00014  NXT6   AXT     12,1
      01405  0441 00 0 02266         LDI     =0
      01406 -0754 00 0 00000  NXROW  ZAC
      01407  0560 60 1 01547         LDQ*    ROWS,1
      01410  0774 00 4 00006         AXT     6,4
      01411  0767 00 0 00006  NXCLM  ALS     6
      01412  0162 00 0 01414         TQP     *+2
      01413 -0501 00 1 01564         ORA     DIGIT,1
      01414 -0773 00 0 00001         RQL     1
      01415  2 00001 4 01411         TIX     NXCLM,4,1
      01416 -0600 60 1 01547         STQ*    ROWS,1
      01417 -3 00000 1 01424         TXL     INVERT,1,0
1                                                                                                PAGE 18
                           RCARD, READ ON-LINE BCD CARDS

      01420  0043 00 0 00000         OAI
      01421  2 00001 1 01406         TIX     NXROW,1,1
      01422  0774 00 1 00000         AXT     0,1
      01423  0020 00 0 01406         TRA     NXROW

      01424  0041 00 0 00000  INVERT IIA
      01425  0604 60 2 01567         STI*    OUTPUT,2
      01426 -2 00001 5 01435         TNX     RCDRST,5,1
      01427  2 00001 3 01404         TIX     NXT6,3,1
      01430  2 00001 2 01403         TIX     NXT36,2,1

      01431 -0500 00 0 02305         CAL     =H
      01432  1 77777 3 01433         TXI     *+1,3,-1
      01433  0602 60 2 01567         SLW*    OUTPUT,2
      01434  2 00001 5 01432         TIX     *-2,5,1

      01435  0441 00 0 01530  RCDRST LDI     RCDSI
      01436  0774 00 3 00000  RC3    AXT     **,3
      01437  0774 00 5 00000  RC5    AXT     **,5
      01440 -0774 00 1 00001         AXC     1,1
      01441  0520 00 0 01531         ZET     RCDMTM
      01442 -0760 00 0 00016         EMTM
      01443  0020 00 0 00755         TRA     CHKX4         RETURN TO CALLER

      01444 -0774 00 1 00001  BADCRD AXC     1,1
      01445 -0520 00 0 01175         NZT     LATERS        SHOULD WE LEAVE THIS TILL LATER
      01446  0020 00 0 01452         TRA     *+4             NO.
      01447 -0500 00 0 02301         CAL     =O5000000       YES.
      01450  0602 00 1 01242         SLW     BUSY,1
      01451  0020 00 0 00755         TRA     CHKX4

      01452 -0500 00 1 01240         CAL     ERROR,1
      01453  0737 00 2 00000         PAC     ,2
      01454 -0774 00 4 01455         AXC     *+1,4
      01455  0020 00 2 00000         TRA     0,2
      01456  0020 00 0 01326         TRA     REREAD        '1,4' RETURN, READ NEXT INSTEAD
      01457  0020 00 0 01402         TRA     NXT36-1       '2,4' RETURN, ACCEPT AS IS

      01460 -0520 00 0 01175  RDREOF NZT     LATERS        IGNORE FOR NOW.Q.
      01461  0020 00 0 01465         TRA     *+4             NO
      01462  0500 00 0 02302         CLA     =O6000000       YES
      01463  0602 00 1 01242         SLW     BUSY,1
      01464  0020 00 0 00755         TRA     CHKX4

      01465 -0500 00 1 01240         CAL     ERROR,1       GET CALLER'S EOF RETURN
      01466 -0737 00 2 00000         PDC     ,2              ..
      01467 -0774 00 4 01470         AXC     *+1,4         SIMULATE A 'TSX'
      01470  0020 00 2 00000         TRA     0,2             ..
      01471  0020 00 0 01326         TRA     REREAD        '1,4' RETURN, READ ANOTHER CARD
      01472  0500 00 1 01226         CLA     CKSEL,1       '2,4' RETURN, FORGET IT
      01473  0602 00 0 01176         SLW     FORGET
      01474  0020 00 0 00755         TRA     CHKX4           AND RETURN
1                                                                                                PAGE 19
                           RCARD, READ ON-LINE BCD CARDS

      01475 -1 00030 0 01476  RDCARD IOCT    RCRDBF,,24

      01476                   RCRDBF BSS     24
      01526                   NVRMSK BSS     2

      01530  0 00000 0 00000  RCDSI
      01531  0 00000 0 00000  RCDMTM
      01532 -377777777777     FENCE  OCT     777777777777

      01533  0 00000 2 01526  12ROW          RCRDBF+24,2
      01534  0 00000 2 01524  11ROW          RCRDBF+22,2
      01535  0 00000 2 01522  ZROW           RCRDBF+20,2
      01536  0 00000 2 01514  3ROW           RCRDBF+14,2
      01537  0 00000 2 01512  4ROW           RCRDBF+12,2
      01540  0 00000 2 01502  8ROW           RCRDBF+4,2
      01541  0 00000 2 01520                 RCRDBF+18,2
      01542  0 00000 2 01516                 RCRDBF+16,2
      01543  0 00000 2 01510                 RCRDBF+10,2
      01544  0 00000 2 01506                 RCRDBF+8,2
      01545  0 00000 2 01504                 RCRDBF+6,2
      01546  0 00000 2 01500                 RCRDBF+2,2
      01547  0 00000 2 01530  ROWS           NVRMSK+2,2

      01550 +000000000020            OCT     20,40,60,3,4,10,1,2,5,6,7,11
      01564 +000000000060     DIGIT  OCT     60

      01565  0 00000 3 00000                 **,3
      01566  0 00000 3 00006                 **+6,3
      01567                   OUTPUT BSS     0

1                                                                                                PAGE 20
                           CLTAP AND RWTAP, CLOSE AND UNLOAD TAPES

      01567  0600 00 0 01627  RWTAP  STZ     CLOSF         HERE TO JUST UNLOAD, DON'T WRITE EOF'S
      01570  0020 00 0 01572         TRA     *+2
      01571 -0625 00 0 01627  CLTAP  STL     CLOSF         HERE TO CLOSE TAPE, PUT EOF'S ON IT
      01572  0634 00 4 01646         SXA     TPNX4,4       GIVE CALLER'S XR4 TO TAPENO
      01573  0074 00 4 01644         TSX     TAPENO,4        AND GET TAPE ADDRESS
      01574  0634 00 4 01615         SXA     UNLX4,4       SAVE REGISTERS
      01575  0634 00 1 01616         SXA     UNLX1,1         ..
      01576  0621 00 0 01625         STA     CLSRUN        SAVE TAPE ADDRESS
      01577  0621 00 0 01623         STA     CLSWEF          IN USEFUL PLACES
      01600  0771 00 0 00011         ARS     9             ISOLATE CHANNEL NUMBER
      01601  0737 00 1 00000         PAC     ,1              ..
      01602 -3 77775 1 01615         TXL     UNLX4,1,-NCHNLS-1 EXIT IF 0 OR .G. NCHNLS
      01603  0074 00 4 00713         TSX     CHK,4         FREE UP THIS CHANNEL
      01604  0074 00 4 00000         TSX     SELECT,4
      01605  0020 00 0 01620         TRA     CLS1
      01606 -0774 00 4 01604  CLS1R  AXC     *-2,4
      01607  0636 00 1 01611         SCA     *+2,1         RESET ANY LEFTOVER FLAGS
      01610  0074 00 4 00001         TSX     CHECK,4         ..
      01611  0 00000 0 00000                 **              ..
      01612  0 00000 0 01627                 CLOSF
      01613  0 00000 0 01627                 CLOSF
      01614  0 00000 0 01627                 CLOSF
      01615  0774 00 4 00000  UNLX4  AXT     **,4          RESTORE REGISTERS
      01616  0774 00 1 00000  UNLX1  AXT     **,1            ..
      01617  0020 00 4 00002         TRA     2,4             AND RETURN

      01620 -0520 00 0 01627  CLS1   NZT     CLOSF         SHOULD WE WRITE EOF'S
      01621  0020 00 0 01625         TRA     CLSRUN          NO
      01622  0774 00 4 00005         AXT     5,4           5 END-OF-FILE'S
      01623  0770 00 0 00200  CLSWEF WEF     **              ..
      01624  2 00001 4 01623         TIX     *-1,4,1         ..
      01625 -0772 00 0 00200  CLSRUN RUN     **            NOW UNLOAD IT
      01626  0020 00 0 01606         TRA     CLS1R

      01627  0 00000 0 00000  CLOSF

1                                                                                                PAGE 21
                           FOUT, ROUTINE TO COMPLETE AND CHECK ALL I/O


      01630  0634 00 1 01642  FOUT   SXA     FOUX1,1       SAVE INDEX REGISTERS
      01631  0634 00 4 01641         SXA     FOUX4,4         ..
      01632 -0534 00 4 00072         LXD     CURBUF,4      GET WORD COUNT OF CURRENT BUFFER IN SPRNT
      01633 -3 00000 4 01635         TXL     *+2,4,0       IS IT EMPTY
      01634  0074 00 4 00042         TSX     WRIT1,4         NO. WRITE IT OUT.
      01635 -0774 00 1 00002         AXC     NCHNLS,1      GET NUMBER OF TAPE CHANNELS
      01636  0074 00 4 00717         TSX     CHEK,4        CHECK I/O ON EACH CHANNEL
      01637  1 00001 1 01640         TXI     *+1,1,1       ADVANCE TO NEXT CHANNEL
      01640  3 00000 1 01636         TXH     *-2,1,0       GET THEM ALL
      01641  0774 00 4 00000  FOUX4  AXT     **,4          RESTORE INDEX'S
      01642  0774 00 1 00000  FOUX1  AXT     **,1            ..
      01643  0020 00 4 00001         TRA     1,4             AND RETURN TO CALLER

1                                                                                                PAGE 22
                           TAPENO, ROUTINE TO PICK UP TAPE ADDRESS

      01644  1 77777 4 01645  TAPENO TXI     *+1,4,-1      GET RETURN LOCATION
      01645  0636 00 4 01666         SCA     TPNR,4          AND SAVE IT
      01646  0774 00 4 00000  TPNX4  AXT     **,4          RESTORE OLD XR4
      01647 -0500 00 4 00001         CAL     1,4           IF THE WORD AT '1,4' IS
      01650 -0320 00 0 01164         ANA     PD              A 'PZE', SELECT ADDRESS IS
      01651  0100 00 0 01662         TZE     LITAPN          SPECIFIED LITERALLY WITH INDEXING,
      01652  0322 00 0 01166         ERA     EFA           OR IF 'EFA',
      01653  0100 00 0 01660         TZE     EFARG           INDIRECTLY WITH INDEXING,
      01654 -0500 00 4 00001         CAL     1,4           OR IF IT IS A 'PAR'
      01655 -0320 00 0 01165         ANA     PDT             INDIRECTLY WITHOUT INDEXING.
      01656  0322 00 0 01167         ERA     PAR           OTHERWISE THIS CALL IS INVALID,
      01657 -0100 00 4 00001         TNZ     1,4             RETURN TO CALLER AT 1,4.
      01660 -0500 60 4 00001  EFARG  CAL*    1,4           'EFA' OR 'PAR', GET SELECT ADDRESS
      01661  0020 00 0 01666         TRA     TPNR            AND JOIN MAIN ROUTINE.
      01662 -0500 00 4 00001  LITAPN CAL     1,4           'PZE', COMPUTE EFFECTIVE ADDRESS
      01663  0625 00 0 01664         STT     *+1             ..
      01664  0756 00 0 00000         PCA     ,**             ..
      01665  0401 00 4 00001         ADM     1,4           USE THIS FOR SELECT ADDRESS
      01666  0020 00 0 00000  TPNR   TRA     **              ..


1                                                                                                PAGE 23
                           RDYTST AND WRTST, ENSURE THAT A TAPE IS READY

      01667 -0625 00 0 02021  WRTST  STL     WRTS          REMEMBER TO CHECK WRITABILITY
      01670  0020 00 0 01672         TRA     *+2
      01671  0600 00 0 02021  RDYTST STZ     WRTS          DON'T TRY TO WRITE ON IT
      01672  0634 00 4 01646         SXA     TPNX4,4         ..
      01673  0074 00 4 01644         TSX     TAPENO,4      GET ADDRESS OF TAPE TO CHECK
      01674  0634 00 4 01727         SXA     RDYX4,4         ..
      01675  0634 00 1 01730         SXA     RDYX1,1         ..
      01676  0621 00 0 01732         STA     RDY1          SET UP TAPE CALLS
      01677  0621 00 0 01742         STA     RDY2            ..
      01700  0621 00 0 01747         STA     RDY3            ..
      01701  0771 00 0 00011         ARS     9             GET CHANNEL NUMBER
      01702  0737 00 1 00000         PAC     ,1              ..
      01703 -3 77775 1 01727         TXL     RDYX4,1,-NCHNLS-1 EXIT IF 0 OR .G. NCHNLS
      01704  0074 00 4 00713         TSX     CHK,4         FREE UP THE CHANNEL
      01705  0560 00 1 01222         LDQ     TCOX,1        SET UP TEST LOCATIONS
      01706 -0620 00 0 01736         SLQ     RDY1.5          ..
      01707 -0620 00 0 01746         SLQ     RDY2.5          ..
      01710  0600 00 0 02022  RDY    STZ     NTRDY         CLEAR SOME FLAGS
      01711  0600 00 0 02023         STZ     NWRT
      01712  0074 00 4 00000         TSX     SELECT,4
      01713  0020 00 0 01732         TRA     RDY1
      01714 -0774 00 4 01712  RDYO1  AXC     *-2,4         RESTORE XR4 IN CASE RUNNING FOREGROUND

      01715  0520 00 0 02022         ZET     NTRDY         WAS IT READY
      01716  0020 00 0 01754         TRA     NOTRDY          NO, COMPLAIN
      01717  0520 00 0 02023         ZET     NWRT          AND WRITEABLE
      01720  0020 00 0 01765         TRA     ISPROT          GRUMBLE, GRUMBLE ...
      01721  0636 00 1 01723         SCA     *+2,1         TAPE OK,
      01722  0074 00 4 00001         TSX     CHECK,4         CLAER INDICATORS ON THIS CHANNEL
      01723  0 00000 0 00000                 **
      01724  0 00000 0 02021                 WRTS
      01725  0 00000 0 02021                 WRTS
      01726  0 00000 0 02021                 WRTS
      01727  0774 00 4 00000  RDYX4  AXT     **,4          RESTORE REGISTERS
      01730  0774 00 1 00000  RDYX1  AXT     **,1            ..
      01731  0020 00 4 00002         TRA     2,4             AND RETURN TO CALLER

      01732  0764 00 0 00200  RDY1   BSR     **            SEE IF TAPE IS READY, TRY TO BACKSPACE IT
      01733  0774 00 4 00036         AXT     BSRTIM,4      WAIT ENOUGH CYCLES FOR THE CHANNEL
      01734  2 00001 4 01734         TIX     *,4,1           TO HAVE GIVEN CONTRLO TO THE DRIVE
      01735 -0774 00 4 02022         AXC     NTRDY,4       SET FLAG TO USE
      01736  0060 00 0 01751  RDY1.5 TCOA    NR            IS THE CHANNEL STILL RUNNING
      01737  0522 00 1 01224         XEC     RDCX,1          NO, ITS READY, RESET IT BEFORE IT MOVES
      01740 -0520 00 0 02021         NZT     WRTS          SHOULD WE TRY WRITING
      01741  0020 00 0 01714         TRA     RDYO1           NO, GO AWAY
      01742  0770 00 0 00200  RDY2   WEF     **            NOW TRY WRITING ON IT
      01743  0774 00 4 72460         AXT     WEFTIM,4      WAIT LONG ENOUGH FOR THE
      01744  2 00001 4 01744         TIX     *,4,1           OPERATION TO TERMINATE
      01745 -0774 00 4 02023         AXC     NWRT,4        SET FLAG TO USE
      01746  0060 00 0 01751  RDY2.5 TCOA    NR            IS IT STILL RUNNING
      01747  0764 00 0 00200  RDY3   BSR     **              NO, ITS WRITEABLE, BACKSPACE OVER EOF
      01750  0020 00 0 01714         TRA     RDYO1           AND EXIT
1                                                                                                PAGE 24
                           RDYTST AND WRTST, ENSURE THAT A TAPE IS READY

      01751  0522 00 1 01224  NR     XEC     RDCX,1        RESET HANGING SELECT
      01752 -0625 00 4 00000         STL     0,4             AND SET FLAG
      01753  0020 00 0 01714         TRA     RDYO1           THEN RETURN

      01754  0074 00 4 01151  NOTRDY TSX     TAPNAM,4      GET BCD TAPE NAME
      01755  0 00000 0 01732                 RDY1            ..
      01756  0767 00 0 00022         ALS     18              SHIFT TO POSITION
      01757  0622 00 0 01777         STD     NTRDYM+1        AND INSERT IN COMMENT
      01760  0074 00 4 02024         TSX     PRNT,4        COMPLAIN ON-LINE
      01761  0 00004 0 01776         PZE     NTRDYM,,NTRDYL   ..
      01762  0074 00 4 02024         TSX     PRNT,4          ..
      01763 -0 00010 0 02011         MZE     RDYMS,,RDYMSL   ..
      01764  0020 00 0 01710         TRA     RDY           START PRESSED, TRY AGAIN.

      01765  0074 00 4 01151  ISPROT TSX     TAPNAM,4      GET BCD TAPE NAME
      01766  0 00000 0 01732                 RDY1            ..
      01767  0767 00 0 00022         ALS     18              SHIFT TO POSITION
      01770  0622 00 0 02003         STD     ISPRT+1         AND INSERT IN COMMENT
      01771  0074 00 4 02024         TSX     PRNT,4        COMPLAIN ON-LINE
      01772  0 00007 0 02002         PZE     ISPRT,,ISPRTL   ..
      01773  0074 00 4 02024         TSX     PRNT,4          ..
      01774 -0 00010 0 02011         MZE     RDYMS,,RDYMSL   ..
      01775  0020 00 0 01710         TRA     RDY           THEY CLAIM IT'S OK, GO CHECK

                       00036  BSRTIM EQU     30            CYCLES TO WAIT FOR BSR TO CLEAR CHANNEL
                       72460  WEFTIM EQU     30000         CYCLES TO WAIT FOR WEF TO TERMINATE

      01776  606063214725     NTRDYM BCI     4,  TAPE    IS NOT READY.
                       00004  NTRDYL EQU     *-NTRDYM
      02002  606063214725     ISPRT  BCI     7,  TAPE    IS PROTECTED.  INSERT A RING,
                       00007  ISPRTL EQU     *-ISPRT
      02011  606051252124     RDYMS  BCI     8,  READY THE TAPE AND PRESS START TO CONTINUE.
                       00010  RDYMSL EQU     *-RDYMS

      02021  0 00000 0 00000  WRTS                         FLAG FOR WRITEABLE TEST
      02022  0 00000 0 00000  NTRDY
      02023  0 00000 0 00000  NWRT
1                                                                                                PAGE 25
                           PRNT, ON-LINE PRINT ROUTINE


      02024  0634 00 4 02153  PRNT   SXA     PRTX4,4       SAVE INDEX REGISTERS
      02025  0634 00 2 02154         SXA     PRTX2,2       ..
      02026  0634 00 1 02155         SXA     PRTX1,1       ..
      02027 -0774 00 1 00001         AXC     1,1           SET FOR CHANNEL 'A'
      02030  0074 00 4 00713         TSX     CHK,4           AND CALL CHEK ROUTINE
      02031  0522 00 0 02153         XEC     PRTX4         RESTORE XR4
      02032 -0500 00 4 00001         CAL     1,4           GET CONTROL WORD
      02033  0625 00 0 02177         STT     TAG           SPACING CONTROL
      02034 -0734 00 2 00000         PDX     ,2            DECREMENT IS 'N'
      02035 -3 00000 2 02153         TXL     PRTX4,2,0     EXIT IF WORD COUNT IS ZERO.
      02036 -3 00024 2 02040         TXL     *+2,2,20      IF GREATER THAN 20,
      02037  0774 00 2 00024         AXT     20,2          PRINT FIRST 20 WORDS ONLY
      02040  0754 00 2 00000         PXA     ,2            MOVE N TO AC
      02041  0361 00 4 00001         ACL     1,4           FORM FIRST + N
      02042  0621 00 0 02120         STA     PRNT12        SAVE FOR CARD IMAGE ALGORITHM
      02043 -0754 00 0 00000         ZAC                   CLEAR AC
      02044  0522 00 0 02120         XEC     PRNT12        AND MOVE FIRST WORD TO MQ
      02045 -0763 00 0 00006         LGL     6             IF CARRIAGE CONTROL CHARACTER
      02046 -0340 00 0 02267         LAS     =1            IS GREATER THAN 1,
      02047 -0500 00 0 02270         CAL     =2            ASSUME SINGLE SPACE
      02050  0761 00 0 00000         NOP                   ..
      02051  0737 00 4 00000         PAC     ,4            MOVE CARRIAGE CONTROL INDEX
      02052 -0500 00 4 02201         CAL     CCLST,4       INSERT CARRIAGE CONTROL
      02053  0602 00 0 02150         SLW     PSPRA         FOR SENSING AFTER PRINTER SELECT
      02054 -0500 00 0 02303         CAL     =O200000000000   COLUMN MARKER--IGNORE FIRST CHARACTER
      02055  0774 00 4 00005         AXT     5,4           COUNT 5 CHARACTERS FOR FIRST WORD
      02056  0774 00 1 00030  PRNT1  AXT     24,1          COUNT 24 WORDS IN CARD IMAGE
      02057  0600 00 1 02236         STZ     CDIM+24,1     WIPE OUT 24 WORDS
      02060  2 00001 1 02057         TIX     *-1,1,1       IN CARD IMAGE BUFFER
      02061  0774 00 1 00002         AXT     2,1           SET HALF MARKER TO LEFT HALF
      02062 -0634 00 1 02111  PRNT2  SXD     PRNT9,1       SAVE HALF MARKER
      02063  0634 00 2 02115  PRNT3  SXA     PRNT11,2      SAVE CURRENT N
      02064  0602 00 0 02200  PRNT4  SLW     PTEMP         SAVE COLUMN MARKER
      02065 -0754 00 0 00000         ZAC                   CLEAR AC, AND
      02066 -0763 00 0 00006         LGL     6             GET NEXT CHARACTER
      02067  0767 00 0 00001         ALS     1             DOUBLE VALUE,
      02070  0734 00 2 00000         PAX     ,2            MOVE TO XR2
      02071 -0500 00 0 02200         CAL     PTEMP         RESTORE COLUMN MARKER
      02072 -3 00022 2 02111         TXL     PRNT9,2,18    IF NUMBER, SKIP ZONE CHECKING
      02073 -3 00137 2 02077  PRNT5  TXL     PRNT6,2,95    IF CHARACTER HAS ZERO ZONE,
      02074 -3 00140 2 02113         TXL     PRNT10,2,96   AND IS NOT BLANK,
      02075 -0602 00 1 02232         ORS     CDIM+20,1     SET BIT FOR ZERO ZONE,
      02076  1 77640 2 02105         TXI     PRNT8,2,-96   REMOVE ZONE, AND TRANSFER
      02077 -3 00077 2 02102  PRNT6  TXL     PRNT7,2,63    IF CHARACTER HAS ELEVEN ZONE,
      02100 -0602 00 1 02234         ORS     CDIM+22,1     SET BIT FOR ELEVEN ZONE,
      02101  1 77700 2 02105         TXI     PRNT8,2,-64   REMOVE ZONE, AND TRANSFER
      02102 -3 00037 2 02105  PRNT7  TXL     PRNT8,2,31    IF CHARACTER HAS TWELVE ZONE,
      02103 -0602 00 1 02236         ORS     CDIM+24,1     SET BIT FOR TWELVE ZONE,
      02104  1 77740 2 02105         TXI     PRNT8,2,-32   AND REMOVE ZONE
      02105 -3 00022 2 02110  PRNT8  TXL     *+3,2,18      IF NOT A NUMBER,
      02106 -0602 00 1 02212         ORS     CDIM+4,1      SET BIT FOR EIGHT ZONE
      02107  1 77760 2 02110         TXI     *+1,2,-16     AND REMOVE EIGHT ZONE
      02110 -3 00000 2 02113         TXL     PRNT10,2,0    IF NOT ZERO,
1                                                                                                PAGE 26
                           PRNT, ON-LINE PRINT ROUTINE

      02111  1 00000 2 02112  PRNT9  TXI     *+1,2,-       NUMBER, MARK LEFT OR RIGHT HALF
      02112 -0602 00 2 02232         ORS     CDIM+20,2     AND SET ZONE BIT OF NUMBER
      02113  0771 00 0 00001  PRNT10 ARS     1             FINISHED THIS COLUMN, SHIFT FOR NEXT
      02114  2 00001 4 02064         TIX     PRNT4,4,1     COUNT CHARACTERS IN THIS WORD
      02115  0774 00 2 00000  PRNT11 AXT     -,2           FINISHED THIS WORD, RESTORE N
      02116  1 77777 2 02117         TXI     *+1,2,-1      SUBTRACT 1
      02117 -3 00000 2 02125         TXL     PRNT13,2,0    IF NOT LAST WORD,
      02120  0560 00 2 00000  PRNT12 LDQ     -,2           GET NEXT WORD
      02121  0774 00 4 00006         AXT     6,4           COUNT 6 CHARACTERS FOR NEXT WORD
      02122 -0100 00 0 02063         TNZ     PRNT3         IF AC IS ZERO,
      02123 -0500 00 0 02304         CAL     =O400000000000   SET COLUMN MARKER TO FIRST COLUMN
      02124  2 00001 1 02062         TIX     PRNT2,1,1     OF NEXT HALF
      02125  0074 00 4 00001  PRNT13 TSX     CHECK,4       WHEN CHANNEL A IS FREE,
      02126  0 00000 0 00001                 1
      02127  0 00000 0 02200                 PTEMP
      02130  0 00000 0 02200                 PTEMP
      02131  0 00000 0 02200                 PTEMP
      02132  0774 00 1 00030         AXT     24,1          MOVE 24 WORDS
      02133 -0500 00 1 02236         CAL     CDIM+24,1     FROM CARD IMAGE BUFFER
      02134  0602 00 1 02266         SLW     PBUFF+24,1    TO PRINT BUFFER
      02135  2 00001 1 02133         TIX     *-2,1,1       ..
      02136  0074 00 4 00000         TSX     SELECT,4
      02137  0020 00 0 02147         TRA     PRNT14
      02140  0761 00 0 00000         NOP
      02141 -3 00000 2 02153  PRNT15 TXL     PRTX4,2,0     IF LAST WORD NOT WRITTEN,
      02142 -0500 00 0 02204         CAL     NOSPC         INSERT NON-SPACING CONTROL
      02143  0602 00 0 02150         SLW     PSPRA         FOR RIGHT-48 CHARACTERS
      02144 -0500 00 0 02304         CAL     =O400000000000   SET COLUMN MARKER TO FIRST COLUMN
      02145  0774 00 4 00006         AXT     6,4
      02146  0020 00 0 02056         TRA     PRNT1         RETURN TO FORM CARD IMAGE FOR RIGHT-48

      02147  0766 00 0 01361  PRNT14 WPRA                  WRITE-SELECT PRINTER
      02150  0761 00 0 00000  PSPRA  NOP                   SENSE PRINTER FOR CARRIAGE CONTROL
      02151  0540 00 0 02205         RCHA    PRCOM         AND LOAD I/O COMMAND
      02152  0020 00 0 02141         TRA     PRNT15

      02153  0774 00 4 00000  PRTX4  AXT     -,4           RESTORE INDEX REGISTERS
      02154  0774 00 2 00000  PRTX2  AXT     -,2           ..
      02155  0774 00 1 00000  PRTX1  AXT     -,1           ..
      02156  0500 00 4 00001         CLA     1,4           GET CONTROL WORD
      02157 -0520 00 0 02177         NZT     TAG           IF TAG IS 0,
      02160  0120 00 4 00002         TPL     2,4           RETURN IF PREFIX IS PZE
      02161  0074 00 4 00000         TSX     SELECT,4
      02162  0020 00 0 02173         TRA     PRNT16
      02163  0761 00 0 00000         NOP
      02164  0522 00 0 02153  PRNT17 XEC     PRTX4
      02165  0500 00 4 00001         CLA     1,4
      02166  0120 00 4 00002         TPL     2,4           IF PREFIX IS MZE,
      02167  0760 00 0 00000         CLM                   LIGHT UP AC
      02170  0760 00 0 00006         COM                   ..
      02171  0560 00 0 02306         LDQ     =O777777777777   LIGHT UP MQ
      02172  0000 00 4 00002         HTR     2,4           HALT COMPUTER
1                                                                                                PAGE 27
                           PRNT, ON-LINE PRINT ROUTINE


      02173  0766 00 0 01361  PRNT16 WPRA                  WRITE-SELECT PRINTER
      02174  0760 00 0 01364         SPRA    4             SPACE PRINTER
      02175  0760 00 0 01363         SPRA    3             ABOUT 1/10 PAGE
      02176  0020 00 0 02164         TRA     PRNT17

      02177  0 00000 0 00000  TAG    PZE     0             STORAGE FOR CONTROL WORD TAG
      02200  0 00000 0 00000  PTEMP  PZE     0             CURRENT COLUMN MARKER
      02201  0760 00 0 01364  CCLST  SPRA    4             CARRIAGE CONTROL.  0=DOUBLE SPACE
      02202  0760 00 0 01361         SPRA    1             CARRIAGE CONTROL.  1=NEW PAGE
      02203  0761 00 0 00000         NOP                   CARRIAGE CONTROL.  2=SINGLE SPACE
      02204  0760 00 0 01371  NOSPC  SPRA    9             NON-SPACING CARRIAGE CONTROL
1                                                                                                PAGE 28
                           I/O COMMANDS AND OTHER MISCELLANEOUS STORAGE


      02205  0 00030 0 02236  PRCOM  IOCD    PBUFF,,24     I/O COMMAND FOR PRINTER

      02206                   CDIM   BSS     24            AREA FOR CARD IMAGE FORMATION
      02236                   PBUFF  BSS     24            BUFFER BETWEEN CARD IMAGE AND PRINTER


                                     END

        LITERALS
      02266  000000000000
      02267  000000000001
      02270  000000000002
      02271  000000000006
      02272  000000000012
      02273  000000000017
      02274  000000000020
      02275  000001000000
      02276  000002000000
      02277  000003000000
      02300  000004000000
      02301  000005000000
      02302  000006000000
      02303  200000000000
      02304  400000000000
      02305  606060606060
      02306  777777777777
1                                                                                                PAGE 1
                        POST PROCESSOR ASSEMBLY DATA

       2307 IS THE FIRST LOCATION NOT USED BY THIS PROGRAM

0REFERENCES TO DEFINED SYMBOLS
       1203      P     4,   52
       2224      Q     4,  465
       2204      R     4,  466
       1751     NR  1736, 1746
       1164     PD  1650
       1163     PT   547,  556,  673, 1272, 1303
        713    CHK  1603, 1704, 2030
       1166    EFA  1652
       1061    EOF   752
          0    MEM     4
       1167    PAR   550,  557,  633,  674, 1273, 1304, 1656
       1165    PDT   634, 1655
       1324    RC1  1251
       1323    RC2  1250
       1436    RC3  1342, 1350
       1322    RC4  1247, 1261, 1262, 1276, 1307
       1437    RC5  1351
       1316    RCD  1260, 1320
       1710    RDY  1764, 1775
       2177    TAG  2033, 2157
       1536   3ROW  1355
       1537   4ROW  1356, 1360
       1540   8ROW  1361
        523   BUFF   436,  442,  463,  464
       1242   BUSY   566,  657,  717,  724, 1006, 1066, 1105, 1243, 1314, 1450, 1463
       2206   CDIM  2057, 2075, 2100, 2103, 2106, 2112, 2133
        717   CHEK   536,  621,  661, 1255, 1636
       1620   CLS1  1605
         31   COPY    25,   35
       1063   EOF1   734
       1630   FOUT     0
         23   MOVE    20
       2023   NWRT  1711, 1717, 1745
       1404   NXT6  1427
         30   PKUP    14,   32
        464   PNTR   444
       2024   PRNT     0, 1052, 1114, 1136, 1760, 1762, 1771, 1773
        455   PUX1   423
        454   PUX2   415,  420
        453   PUX4   422
       1220   RCHX   601,  627, 1001, 1032, 1057, 1221, 1223
       1224   RDCX  1225, 1227, 1737, 1751
        604   RDX1   530
        603   RDX2   527,  551,  562
        602   RDX4   526,  535,  542,  544
       1732   RDY1  1676, 1713, 1755, 1766
       1742   RDY2  1677
       1747   RDY3  1700
        600   READ   525,  541,  572
       1547   ROWS  1363, 1365, 1400, 1407, 1416
       1222   TCOX  1223, 1225, 1705
1                                                                                                PAGE 2
                        POST PROCESSOR ASSEMBLY DATA

       1666   TPNR  1645, 1661
        650   WRIT   666
       2021   WRTS  1667, 1671, 1724, 1725, 1726, 1740
       1535   ZROW  1374
       1534  11ROW  1371, 1373
       1533  12ROW  1370
       1170  2XOR3   561,  676, 1275, 1306
       1177  BADTP  1051, 1053, 1203
        420  BPNCH     0
         73  BUFF1    72
        244  BUFF2    53
       2201  CCLST  2052
          1  CHECK   742, 1017, 1332, 1610, 1722, 2125
        736  CHEK1   727, 1033, 1060
        741  CHEK2   776
        756  CHKX2   714,  722
        755  CHKX4   713,  721,  763, 1007, 1040, 1067, 1077, 1106, 1126, 1443, 1451, 1464, 1474
       1232  CKBSR   574,  645,  777, 1013, 1044, 1233
       1236  CKRUN   576,  647, 1147, 1237
       1226  CKSEL   573,  654, 1000, 1014, 1031, 1047, 1056, 1075, 1112, 1124, 1141, 1227, 1321, 1472
       1234  CKWEF   575,  646, 1145, 1235
       1144  CLOS1  1131
       1127  CLOSE  1054, 1116
       1627  CLOSF  1567, 1571, 1612, 1613, 1614, 1620
       1606  CLS1R  1626
       1142  CLSX4  1127
       1571  CLTAP     0
       1564  DIGIT  1413
        415  DPNCH     0
       1660  EFARG  1653
       1203  ENDTP  1113, 1115, 1212
       1173  EOFFL   737,  745,  751,  775, 1022, 1134, 1331, 1335, 1337
       1174  EOTFL   726,  746,  753, 1023, 1026, 1135, 1336
       1172  ERRFL   736,  744,  747,  774, 1015, 1021, 1024, 1133, 1334
       1240  ERROR   546,  632,  642, 1034, 1070, 1107, 1241, 1302, 1452, 1465
        753  ETTST  1062
       1532  FENCE  1377
       1642  FOUX1  1630
       1641  FOUX4  1631
        660  GTNXT
         17  INCMT    15,   22
         53  IOBUF    45,   46
       1171  IOCOM   652,  655,  670,  671,  702
        703  ISNXT   675
       2002  ISPRT  1770, 1772, 2011
        150  NBUFF     4,   20,   73,  244
        757  NDCHK   720
       1212  NEWTP  1137, 1221
       2204  NOSPC  2142
       2022  NTRDY  1710, 1715, 1735
        667  NXARG   643,  660
       1411  NXCLM  1415
       1406  NXROW  1421, 1423
       1403  NXT36  1430, 1457
       2236  PBUFF  2134, 2205
1                                                                                                PAGE 3
                        POST PROCESSOR ASSEMBLY DATA

        460  PBUFL   433
        441  PFILL   434
        435  PLOOP   430,  440
       2205  PRCOM  2151
       2056  PRNT1  2146
       2062  PRNT2  2124
       2063  PRNT3  2122
       2064  PRNT4  2114
       2073  PRNT5
       2077  PRNT6  2073
       2102  PRNT7  2077
       2105  PRNT8  2076, 2101, 2102, 2104
       2111  PRNT9  2062, 2072
       2155  PRTX1  2026
       2154  PRTX2  2025
       2153  PRTX4  2024, 2031, 2035, 2141, 2164
       2150  PSPRA  2053, 2143
       2200  PTEMP  2064, 2071, 2127, 2130, 2131
        466  PTPAD   446
        422  PUNCH   417
       1247  RCARD     0
       1352  RCDLN  1265, 1300
         72  RCDMK     4,   71
       1325  RCDRT  1253, 1310, 1312
       1530  RCDSI  1341, 1435
        777  RDNX1   772
        605  RDRTN   532,  567,  571
        523  RDTAP     0
       2011  RDYMS  1763, 1774, 2021
       1714  RDYO1  1741, 1750, 1753
       1730  RDYX1  1675
       1727  RDYX4  1674, 1703
        770  REDUN   750
       1030  RETRY  1074, 1123
       1567  RWTAP     0
         64  SPIX4    56
         56  SPRNI     0
          4  SPRNT     0
         36  SPRX1     4,   11
         37  SPRX2     5
         40  SPRX4     6
       1646  TPNX4    65,  523,  606, 1572, 1672
       1616  UNLX1  1575
       1615  UNLX4  1574, 1602
       1355  VLDTS  1401
         54  WR1X4    42
         42  WRIT1    21,   61, 1634
        651  WRITE   610,  624,  630,  644,  653,  664
        606  WRTAP     0,   51,   62,  431,  450
       1667  WRTST     0,   70, 1140
        711  WRTX1   613
        710  WRTX2   612
        707  WRTX4   611,  620,  625,  665,  677
       1444 BADCRD   731, 1357, 1364, 1372, 1375
       1043 BADSPT  1025
1                                                                                                PAGE 4
                        POST PROCESSOR ASSEMBLY DATA

          4 BADTPL  1053, 1203
         36 BSRTIM  1733, 1776
       1331 CHKRDR   732
        766 CHKSVX   715,  761,  762
       1230 CKIOCM   553,  554,  565,  656, 1221, 1222, 1223, 1224, 1225, 1226, 1227, 1230, 1231
       1132 CLOS1R  1150
       1625 CLSRUN  1576, 1621
       1623 CLSWEF  1577
         72 CURBUF    16,   24,   27,   43,   47,   50,   57, 1632
       1100 ENDTAP   754, 1027
       1102 ENDTP1   733
          7 ENDTPL  1115, 1212
       1176 FORGET   537,  622,  662,  723, 1076, 1125, 1256, 1473
       1120 GIVEOT  1110
       1424 INVERT  1417
       1765 ISPROT  1720
          7 ISPRTL  1772, 2011
       1175 LATERS   716,  757,  764, 1003, 1063, 1102, 1445, 1460
       1662 LITAPN  1651
          2 NCHNLS     4,  535,  620, 1223, 1225, 1227, 1231, 1233, 1235, 1237, 1241, 1243, 1245, 1602, 1635, 1703
          7 NEWTPL  1137, 1221
       1754 NOTRDY  1716
          4 NTRDYL  1761, 2002
       1776 NTRDYM  1757, 1761, 2002
       1526 NVRMSK  1547
       1567 OUTPUT  1267, 1271, 1425, 1433
        444 PFILLD   437
        462 PFILLR   441
        452 PIOCOM   445
       2113 PRNT10  2074, 2110
       2115 PRNT11  2063
       2120 PRNT12  2042, 2044
       2125 PRNT13  2117
       2147 PRNT14  2137
       2141 PRNT15  2152
       2173 PRNT16  2162
       2164 PRNT17  2176
        451 PTPAD1   432,  447
         71 RCDMKR    34
       1531 RCDMTM  1344, 1346, 1441
       1435 RCDRST  1353, 1426
       1476 RCRDBF  1475, 1533, 1534, 1535, 1536, 1537, 1540, 1541, 1542, 1543, 1544, 1545, 1546
       1475 RDCARD  1317, 1330
        774 RDNX1R  1002
       1460 RDREOF   730, 1340
        566 RDTAP1   560
       1736 RDY1.5  1706
       1746 RDY2.5  1707
         10 RDYMSL  1763, 1774, 2021
       1671 RDYTST     0
       1244 READFL   543,  626, 1010, 1061, 1100, 1245
       1003 REDUN1   735,  770
       1034 REDUN2  1011
        771 REDUNX  1042
       1326 REREAD  1456, 1471
1                                                                                                PAGE 5
                        POST PROCESSOR ASSEMBLY DATA

        712 RETURN   615,  631,  636,  640,  667,  703,  705
          0 SELECT   577,  650,  771, 1012, 1030, 1043, 1055, 1130, 1315, 1326, 1604, 1712, 2136, 2161
         52 SPRNTP    63,   67
       1644 TAPENO    66,  524,  607, 1573, 1673
       1151 TAPNAM  1046, 1111, 1754, 1765
      72460 WEFTIM  1743, 1776

0 NO ERROR IN ABOVE ASSEMBLY.


 FSSEL   BCD 09/19/68 1942.0     446         00000
1      IOPAC AND F.S. VERSIONS OF 'SELECT' AND 'CHECK' FOR IOA** AND IOB**                       PAGE 1

                       00003         ENTRY   SELECT
                       00004         ENTRY   CHECK


        TRANSFER VECTOR
      00000  634766213163     TPWAIT

            LINKAGE DIRECTOR
      00001  000000000000
      00002  622543252363

      00003  0020 00 4 00001  SELECT TRA     1,4

      00004  0634 00 4 00020  CHECK  SXA     XR4,4
      00005  0634 00 2 00021         SXA     XR2,2
      00006  0534 00 2 00020         LXA     XR4,2
      00007 -0500 00 2 00001         CAL     1,2
      00010  0602 00 0 00012         SLW     *+2
      00011  0074 00 4 00000  AGAIN  TSX     $TPWAIT,4
      00012  0 00000 0 00000                 **
      00013  0020 00 0 00023         TRA     REDUN
      00014  0020 00 0 00025         TRA     EOF
      00015  0535 00 4 00012         LAC     *-3,4
      00016  0522 00 4 00026         XEC     ETTX,4
      00017 -0625 60 2 00004         STL*    4,2
      00020  0774 00 4 00000  XR4    AXT     **,4
      00021  0774 00 2 00000  XR2    AXT     **,2
      00022  0020 00 4 00005         TRA     5,4

      00023 -0625 60 2 00002  REDUN  STL*    2,2
      00024  0020 00 0 00011         TRA     AGAIN

      00025 -0625 60 2 00003  EOF    STL*    3,2
      00026  0020 00 0 00011         TRA     AGAIN

                       00026  ETTX   EQU     *-1
      00027 -0760 00 0 01000         ETTA
      00030 -0760 00 0 02000         ETTB

                                     END
1      IOPAC AND F.S. VERSIONS OF 'SELECT' AND 'CHECK' FOR IOA** AND IOB**                       PAGE 1
                        POST PROCESSOR ASSEMBLY DATA

         31 IS THE FIRST LOCATION NOT USED BY THIS PROGRAM

0REFERENCES TO DEFINED SYMBOLS
         25    EOF    14
         21    XR2     5
         20    XR4     4,    6
         26   ETTX    16,   27
         11  AGAIN    24,   26
          4  CHECK     0
         23  REDUN    13
          3 SELECT     0
          0 TPWAIT    11

0 NO ERROR IN ABOVE ASSEMBLY.


PHASE2   BCD 02/09/69 0528.2   44448         00000


SMAINC   BCD 01/10/68 1513.9    5990         00000
1            LOAD SECONDARY STORAGE FROM DUMP TAPES (PRIOR TO TIME-SHARING)                      PAGE 1

                              *
                                     EXTERN  UPDMFD,ATTACH,TAPFIL,MOUNT,VERIFY
                                     EXTERN  SETIO,WRFLX,PRNTER,FERRTN,TILOCK
                                     EXTERN  UMOUNT,ALLOT,ATTACH,CLOSE,CHFILE
                                     EXTERN  INITTF,OPENDF
                                     EXTERN  LTFILE,TERMTF,UPDATE
                                     EXTERN  SETFIL,GETLSG,DELFIL,GTDYTM
                              *
                                     INSERT  BMCRSC
                              *
                              *  ZERO-IZE A THROUGH A+X-1
                              *
                               CLEAR MACRO   A,X
                                     AXT     X,1
                                     STZ     A+X,1
                                     TIX     *-1,1,1
                               CLEAR END
                              *
                              *      MOVE X WORDS FROM A ET SEQ TO B ET SEQ
                              *
                               MOVE  MACRO   X,A,B
                                     AXT     X,1
                                     CAL     A+X,1
                                     SLW     B+X,1
                                     TIX     *-2,1,1
                               MOVE  END
                              *
                              *  PRINT ONE LINE COMMENT
                              *
                              PRLINE MACRO   COMNT,NWC,LOC
                                     TSX     WRFLX,4
                                             LOC,,NWC
                                     RMT
                               LOC   BCI     NWC,COMNT
                                     RMT
                              PRLINE END
                              *
                              *
                              *      EXECUTE INST. IN CORE A
                              *
                              *
                              EXEC   MACRO   OPC,ADD
                                     TSX     $GETA,7
                                     OPC     ADD
                              EXEC   END
                              *
                              *      GET KEY SETTING VIA SUPERVISOR, SET ABANTP, NOCHAN IF APPROPRIATE
                              *
                              GETSIG MACRO
                                     TSX     GETLSG,4
                              GETSIG END
                              *
                              *      TEST WHETHER 2ND TAPE COPY IS NEEDED, IF NOT GO TO SKIP
                              *
                              SKIFNB MACRO   SKIP
                                     CLA     NOCHAN
1            LOAD SECONDARY STORAGE FROM DUMP TAPES (PRIOR TO TIME-SHARING)                      PAGE 2

                                     SUB     =1
                                     TZE     SKIP
                              SKIFNB END
                              *
                              *      PRINT AN N-WORD MESSAGE FROM  MESSGE
                              *
                              PRM    MACRO   MESSGE,N
                                     TSX     WRFLX,4
                                             MESSGE,,N
                              PRM    END
                              *
                              *      COMPARE 2 SETS OF N CONSECUTIVE WORDS IN A ETC., AND B ETC. ,
                              *      AND IF THEY DO NOT ALL MATCH, GO TO NF, OR OTHERWISE CONTINUE.
                              *
                              CMPWDS MACRO   N,A,B,NF
                                     AXT     N,1
                                     CAL     A+N,1
                                     LAS     B+N,1
                                     TRA     NF
                                     TRA     *+2
                                     TRA     NF
                                     TIX     *-5,1,1
                              CMPWDS END
                              *
                              *      WAIT FOR I/O ON FILE (A,B) TO END, GO TO E IF ERROR OCCURRED
                              *
                              WAIT   MACRO   A,B,E
                                     TSX     FWAIT,4
                                     PTH     A
                                     PTH     B
                                     PTH     E
                              WAIT   END
                              *
                              *      CLOSE THE FILE (A,B)
                              *
                              CLOSE  MACRO   A,B
                                     TSX     CLOSE,4
                                     PTH     A
                                     PTH     B
                              CLOSE  END
                              *
                              *
                              *  -  -  -  -  -  -  -  -  -  -  -  -  -  -  -  -  -  -  -  -  -  -
                              *      INITIALIZE I/O SYSTEM AND VARIABLES
                              *  -  -  -  -  -  -  -  -  -  -  -  -  -  -  -  -  -  -  -  -  -  -  -
                              *

      00000  644724442624     UPDMFD
      00001  216363212330     ATTACH
      00002  632147263143     TAPFIL
      00003  444664456360     MOUNT
      00004  652551312670     VERIFY
      00005  622563314660     SETIO
      00006  665126436760     WRFLX
      00007  475145632551     PRNTER
      00010  262551516345     FERRTN
1            LOAD SECONDARY STORAGE FROM DUMP TAPES (PRIOR TO TIME-SHARING)                      PAGE 3

      00011  633143462342     TILOCK
      00012  644446644563     UMOUNT
      00013  214343466360     ALLOT
      00014  234346622560     CLOSE
      00015  233026314325     CHFILE
      00016  314531636326     INITTF
      00017  464725452426     OPENDF
      00020  436326314325     LTFILE
      00021  632551446326     TERMTF
      00022  644724216325     UPDATE
      00023  622563263143     SETFIL
      00024  272563436227     GETLSG
      00025  242543263143     DELFIL
      00026  276324706344     GTDYTM
      00027  314651622563     IORSET
      00030  314626314531     IOFINI
      00031  256731636060     EXIT
      00032  216242464751     ASKOPR
      00033  512523214760     RECAP
      00034  433145426060     LINK

      00035  0000 00 0 00036         HTR     *+1
      00036  0760 00 0 00016         LMTM
      00037 -0500 00 0 00531         CAL     =H C0056
      00040  0602 00 0 75040         SLW     DU
      00041 -0500 00 0 00530         CAL     =H 99999
      00042  0602 00 0 75037         SLW     DP
      00043 -0500 00 0 00524         CAL     =H.LOAD.
      00044  0602 00 0 75036         SLW     LFNA
      00045 -0500 00 0 00525         CAL     =H.TAPE.
      00046  0602 00 0 75035         SLW     LFNB
      00047  0500 00 0 00524         CLA     =H.LOAD.
      00050  0602 00 0 75020         SLW     BFNA
      00051  0500 00 0 00521         CLA     =HB.COPY
      00052  0602 00 0 75017         SLW     BFNB
                              *
      00053  0074 00 4 00005         TSX     SETIO,4       INITIALIZE I/O SYSTEM FOR INDEPENDENT USE
      00054  0 00000 0 00517         PZE     =99999
      00055  0500 00 0 00101         CLA     PEXIT
      00056  0601 00 0 00034         STO     28
                              *
      00057  0074 00 4 00000         TSX     UPDMFD,4      PUT DUMP/LOAD PACKAGE 'AUTHOR' IN M.F.D.
 TD   00060  3 00000 0 75040         TXH     DU
 TD   00061  3 00000 0 75037         TXH     DP
 TD   00062  3 00000 0 00063         TXH     *+1
      00063  0074 00 4 00001         TSX     ATTACH,4
 TD   00064  3 00000 0 75040         TXH     DU
 TD   00065  3 00000 0 75037         TXH     DP
      00066  0774 00 1 00003         AXT     3,1
      00067  0634 00 1 00414         SXA     DEVICE,1
      00070  0074 00 4 00013         TSX     ALLOT,4
 TD   00071  3 00000 0 00414         TXH     DEVICE
 TD   00072  3 00000 0 00516         TXH     =32767
      00073  2 00001 1 00067         TIX     *-4,1,1
                              *
      00074  0074 00 4 00010         TSX     FERRTN,4      SET TRANSFER ADDRESS FOR UNSPECIFIED
1            LOAD SECONDARY STORAGE FROM DUMP TAPES (PRIOR TO TIME-SHARING)                      PAGE 4

      00075  0 00000 0 00114         PZE     ELOC          I/O SYSTEM ERROR RETURNS
      00076  0074 00 4 00011         TSX     TILOCK,4      NO TRAP GO DORMANT IF EVER READ-
      00077  0 00000 0 00510         PZE     =0            INTERLOCKED FROM A USER'S FILE.
      00100  0020 00 0 00124         TRA     LEH
                              *
      00101  0021 00 0 00102  PEXIT  TTR     *+1
      00102  0074 00 4 00027         TSX     $IORSET,4
      00103  0074 00 4 00014         TSX     CLOSE,4
 TD   00104  3 00000 0 00520         TXH     =HALL
 TD   00105  3 00000 0 00526         TXH     =-0
 TD   00106  3 00000 0 00107         TXH     *+1
      00107  0074 00 4 00012         TSX     UMOUNT,4
 TD   00110  3 00000 0 00520         TXH     =HALL
      00111  2 00445 0 00441         TIX     LMES,,LLMES
      00112  0074 00 4 00030         TSX     $IOFINI,4
      00113  0020 00 0 00031         TRA     $EXIT
                              *
      00114  0634 00 4 00120  ELOC   SXA     ELOC4,4       UNSPECIFIED I/O SYSTEM ERROR OCCURRED
      00115  0074 00 4 00006         TSX     WRFLX,4
      00116  0 00014 0 00451                 MESX,,12
      00117  0074 00 4 00007         TSX     PRNTER,4
      00120  0774 00 4 00000  ELOC4  AXT     **,4
      00121  0020 00 4 00001         TRA     1,4           RETURN TO I/O SYSTEM CALLER
                              *
                              *  -  -  -  -  -  -  -  -  -  -  -  -  -  -  -  -  -  -  -
                              *      LOAD ALL TAPE FILES BUT THE FIRST
                              *  -  -  -  -  -  -  -  -  -  -  -  -  -  -  -  -  -  -  -
                              *
      00122  0074 00 4 00021  LEG    TSX     TERMTF,4      CLOSE,UNMOUNT BOTH COPIES OF LOAD TAPE FILE
      00123  0600 00 0 75042         STZ     ABANTP        SO WE CAN LOAD OTHER TAPES. ***
                              *
      00124  0074 00 4 00032  LEH    TSX     $ASKOPR,4
      00125  3 00011 0 00366         PTH     MSSPLD,,9
      00126  3 00004 0 00275         PTH     LEUB,,STOPLD
      00127  3 00003 0 00446         PTH     MESEY,,3
      00130  3 00001 0 00131         PTH     *+1,,CTINUE
      00131  0500 00 0 00514         CLA     =11           (11 AND 12)
      00132  0601 00 0 75016         STO     AUN           CHANNEL A UNIT NO.
      00133  0400 00 0 00511         ADD     =1
      00134  0601 00 0 75015         STO     BUN           CHANNEL B UNIT NO.
                              *
      00135  0074 00 4 00155         TSX     DELTAP,4
      00136  0074 00 4 00002         TSX     TAPFIL,4      DECLARE LOAD TAPE FILE TO BE UNIT AUN
 TD   00137  3 00000 0 75036         TXH     LFNA
 TD   00140  3 00000 0 75035         TXH     LFNB
 TD   00141  3 00000 0 75016         TXH     AUN
 TD   00142  3 00000 0 00511         TXH     =1
      00143  0074 00 4 00002         TSX     TAPFIL,4      DECLARE CHANNEL B LOAD FILE TO BE UNIT BUN
 TD   00144  3 00000 0 75020         TXH     BFNA
 TD   00145  3 00000 0 75017         TXH     BFNB
 TD   00146  3 00000 0 75015         TXH     BUN
 TD   00147  3 00000 0 00511         TXH     =1
                              *
      00150  0074 00 4 00003  LEI    TSX     MOUNT,4
 TD   00151  3 00000 0 00511         TXH     =1
 TD   00152  3 00000 0 75016         TXH     AUN
1            LOAD SECONDARY STORAGE FROM DUMP TAPES (PRIOR TO TIME-SHARING)                      PAGE 5

      00153  2 00427 0 00417         TIX     MTP,,LMTP
      00154  0020 00 0 00206         TRA     DAMN
      00155  0634 00 4 00204  DELTAP SXA     DLTP,4
      00156  0074 00 4 00015         TSX     CHFILE,4
 TD   00157  3 00000 0 75036         TXH     LFNA
 TD   00160  3 00000 0 75035         TXH     LFNB
 TD   00161  3 00000 0 00510         TXH     =0
 TD   00162  3 00000 0 00526         TXH     =-0
 TD   00163  3 00000 0 00526         TXH     =-0
 TD   00164  3 00000 0 00165         TXH     *+1
      00165  0074 00 4 00025         TSX     DELFIL,4
 TD   00166  3 00000 0 75036         TXH     LFNA
 TD   00167  3 00000 0 75035         TXH     LFNB
 TD   00170  3 00000 0 00171         TXH     *+1
      00171  0074 00 4 00015         TSX     CHFILE,4
 TD   00172  3 00000 0 75020         TXH     BFNA
 TD   00173  3 00000 0 75017         TXH     BFNB
 TD   00174  3 00000 0 00510         TXH     =0
 TD   00175  3 00000 0 00526         TXH     =-0
 TD   00176  3 00000 0 00526         TXH     =-0
 TD   00177  3 00000 0 00200         TXH     *+1
      00200  0074 00 4 00025         TSX     DELFIL,4
 TD   00201  3 00000 0 75020         TXH     BFNA
 TD   00202  3 00000 0 75017         TXH     BFNB
 TD   00203  3 00000 0 00204         TXH     *+1
      00204  0774 00 4 00000  DLTP   AXT     **,4
      00205  0020 00 4 00001         TRA     1,4
                              *
                              *      VERIFY NEXT TAPE FILE
                              *
      00206                   DAMN   MOVE    4,NFTID,LABEL
      00206  0774 00 1 00004         AXT     4,1                                                              .001
      00207 -0500 00 1 00356         CAL     NFTID+4,1                                                        .001
      00210  0602 00 1 75014         SLW     LABEL+4,1                                                        .001
      00211  2 00001 1 00207         TIX     *-2,1,1                                                          .001
      00212  0074 00 4 00004         TSX     VERIFY,4      CHECK MOUNTED TAPE
 TD   00213  3 00000 0 75016         TXH     AUN
      00214  3 00004 0 75010         TXH     LABEL,,4
 TD   00215  3 00000 0 00217         TXH     LEK           TRANSFER IF NOT A NEW FILE TAPE
      00216  0020 00 0 00253         TRA     LEP           SKIP IF NO UDT'S LOADED YET
                              *
      00217                   LEK    MOVE    4,SDTID,LABEL
      00217  0774 00 1 00004         AXT     4,1                                                              .001
      00220 -0500 00 1 00362         CAL     SDTID+4,1                                                        .001
      00221  0602 00 1 75014         SLW     LABEL+4,1                                                        .001
      00222  2 00001 1 00220         TIX     *-2,1,1                                                          .001
      00223  0074 00 4 00004         TSX     VERIFY,4      CHECK MOUNTED TAPE
 TD   00224  3 00000 0 75016         TXH     AUN
      00225  3 00004 0 75010         TXH     LABEL,,4
 TD   00226  3 00000 0 00230         TXH     LEM           TRANSFER IF NOT SYSTEM FILES TAPE
      00227  0020 00 0 00253         TRA     LEP           SKIP IF SYSTEM FILES NOT PREVIOUSLY MOUNTED
                              *
      00230                   LEM    MOVE    4,UDTID,LABEL
      00230  0774 00 1 00004         AXT     4,1                                                              .001
      00231 -0500 00 1 00366         CAL     UDTID+4,1                                                        .001
      00232  0602 00 1 75014         SLW     LABEL+4,1                                                        .001
1            LOAD SECONDARY STORAGE FROM DUMP TAPES (PRIOR TO TIME-SHARING)                      PAGE 6

      00233  2 00001 1 00231         TIX     *-2,1,1                                                          .001
      00234  0074 00 4 00004         TSX     VERIFY,4      CHECK MOUNTED TAPE
 TD   00235  3 00000 0 75016         TXH     AUN
      00236  3 00004 0 75010         TXH     LABEL,,4
 TD   00237  3 00000 0 00242         TXH     LEMA          TRANSFER IF UNUSUAL CONDITION
 TD   00240  3 00000 0 00415         TXH     TEMP          TYPE
      00241  0020 00 0 00253         TRA     LEP           SKIP IF VERIFY O.K.
                              *
      00242  0500 00 0 00415  LEMA   CLA     TEMP
      00243  0402 00 0 00513         SUB     =7
      00244  0100 00 0 00247         TZE     LEO           SKIP IF WRONG TAPE
      00245  0074 00 4 00007         TSX     PRNTER,4      OTHER ERROR, TRY AGAIN
      00246  0020 00 0 00150         TRA     LEI
                              *
                              *
      00247  0074 00 4 00012  LEO    TSX     UMOUNT,4      WRONG TAPE - HAVE IT TAKEN OFF
 TD   00250  3 00000 0 75016         TXH     AUN
      00251  2 00413 0 00377         TIX     WRNGTP,,LWG
      00252  0020 00 0 00150         TRA     LEI
                              *
                              *      START READING NEXT TAPE FILE AND SKIP OVER 1ST MFD ON IT
                              *
      00253  0074 00 4 00024  LEP    TSX     GETLSG,4
      00254                          SKIFNB  LEIB
      00254  0500 00 0 75041         CLA     NOCHAN                                                           .001
      00255  0402 00 0 00511         SUB     =1                                                               .001
      00256  0100 00 0 00263         TZE     LEIB                                                             .001
      00257  0074 00 4 00003         TSX     MOUNT,4
 TD   00260  3 00000 0 00512         TXH     =2
 TD   00261  3 00000 0 75015         TXH     BUN
      00262  2 00440 0 00430         TIX     MTPB,,LMTPB
      00263  0074 00 4 00016  LEIB   TSX     INITTF,4      OPEN NEXT LOAD TAPE FILE, SPACE OVER AND
      00264  0020 00 0 00122         TRA     LEG           ABANDON TAPE FILE RETURN
                              *
      00265  0074 00 4 00017         TSX     OPENDF,4      INIT'LIZE READ FROM 1ST DUMPED FILE ON TAPE
 TD   00266  3 00000 0 00270         TXH     LERA          READ ERROR
 TD   00267  3 00000 0 00122         TXH     LEG           ABANDON TAPE FILE
                              *
                              *      LOAD BODY OF THIS DUMP TAPE FILE
                              *      DOWN TO M.F.D. AT END OF TAPE.
                              *
                              *
      00270  0074 00 4 00020  LERA   TSX     LTFILE,4      SKIP 1ST MFD, LOAD DOWN TO MFD AT END/TAPE
      00271  0074 00 4 00001         TSX     ATTACH,4
      00272  3 00000 0 75040         PTH     DU
      00273  3 00000 0 75037         PTH     DP
      00274  0020 00 0 00122         TRA     LEG           RETURN FOR NEXT FILE
                              *
                              *
      00275  0074 00 4 00032  LEUB   TSX     $ASKOPR,4
      00276  3 00006 0 00344         PTH     MESCAP,,6
      00277  3 00003 0 00307         PTH     LEU,,CACODE
      00300  3 00003 0 00446         PTH     MESEY,,3
      00301  3 00001 0 00302         PTH     *+1,,CTINUE
      00302  0074 00 4 00033         TSX     $RECAP,4
      00303  0074 00 4 00001         TSX     ATTACH,4
1            LOAD SECONDARY STORAGE FROM DUMP TAPES (PRIOR TO TIME-SHARING)                      PAGE 7

      00304  3 00000 0 75040         PTH     DU
      00305  3 00000 0 75037         PTH     DP
      00306  0020 00 0 00321         TRA     LEU2
      00307  0074 00 4 00001  LEU    TSX     ATTACH,4
 TD   00310  3 00000 0 75040         TXH     DU
 TD   00311  3 00000 0 75037         TXH     DP
      00312  0074 00 4 00026         TSX     GTDYTM,4      GET DATE, TIME NOW. ***
      00313  0602 00 0 00415         SLW     DAYTIM        SAVE IT. ***
      00314  0074 00 4 00023         TSX     SETFIL,4
 TD   00315  3 00000 0 00527         TXH     =HRESTOR
 TD   00316  3 00000 0 00523         TXH     =HFILE.1
 TD   00317  3 00000 0 00415         TXH     DAYTIM
 TD   00320  3 00000 0 00415         TXH     DAYTIM
      00321                   LEU2   PRLINE  ( LOADING WILL NOW BE SUSPENDED TO START UP CTSS.),8
      00321  0074 00 4 00006         TSX     WRFLX,4                                                          .001
      00322  0 00010 0 00500                 ..001,,8                                                         .001
                                     RMT                                                                      .001
                              ..001  BCI     8, LOADING WILL NOW BE SUSPENDED TO START UP CTSS.               .001
                                     RMT                                                                      .001
                              *
      00323  0534 00 1 00477         LXA     NLINKS,1
      00324 -0500 00 1 00477  LINKUP CAL     NLINKS,1
      00325  0602 00 0 00415         SLW     LNAM1
      00326 -0500 00 1 00500         CAL     NLINKS+1,1
      00327  0602 00 0 00416         SLW     LNAM2
      00330  0074 00 4 00034         TSX     $LINK,4
      00331  3 00000 0 00415         PTH     LNAM1
      00332  3 00000 0 00416         PTH     LNAM2
      00333  3 00000 0 00532         PTH     =H M1416
      00334  3 00000 0 00522         PTH     =HCMFL01
      00335  3 00000 0 00526         PTH     =-0
      00336  3 00000 0 00526         PTH     =-0
      00337  3 00000 0 00515         PTH     =O104
      00340  1 77776 1 00341         TXI     *+1,1,-2
      00341  3 00000 1 00324         TXH     LINKUP,1,**
      00342  0074 00 4 00022         TSX     UPDATE,4      UPDATE DAEMON'S FILES
      00343  0074 00 4 00031         TSX     $EXIT,4       GO START UP CTSS
                              *
                              * - - - - - - - - - - - - - - - - - - - -
                              *      CONSTANTS, VARIABLES, ETC.
                              * - - - - - - - - - - - - - - - - - - - -
                              *
      00344  603126602363     MESCAP BCI     6, IF CTSS RELOADING WILL FOLLOW
                      000003  CACODE BOOL    3
      00352  602351252163     NFTID  BCI     4, CREATED-FILE DUMP TAPE
      00356  606270626325     SDTID  BCI     4, SYSTEM-FILES DUMP TAPE
      00362  606462255162     UDTID  BCI     4, USERS'-FILES DUMP TAPE
      00366  606346606263     MSSPLD BCI     9, TO STOP LOADING, AND START UP CTSS
      00377  603144472551     WRNGTP BCI     8, IMPERMISSIBLE REEL MOUNTED FOR DISK RELOAD
      00407  604743252162            BCI     4, PLEASE TAKE IT OFF
      00413  0 00000 0 00014  LWG    PZE     *-WRNGTP
      00414  0 00000 0 00000  DEVICE PZE
      00415                   TEMP   BSS     2
                       00415  DAYTIM SYN     TEMP          ***
      00417  605125212470     MTP    BCI     8, READY THE 1ST REEL OF THE NEXT DUMP TAPE FILE.
      00427  0 00000 0 00010  LMTP   PZE     *-MTP
1            LOAD SECONDARY STORAGE FROM DUMP TAPES (PRIOR TO TIME-SHARING)                      PAGE 8

      00430  605125212470     MTPB   BCI     8, READY THE DUPLICATE COPY ON THE OTHER CHANNEL.
      00440  0 00000 0 00010  LMTPB  PZE     *-MTPB
      00441  604721453123     LMES   BCI     4, PANIC UNMOUNT AND CLOSE
      00445  0 00000 0 00004  LLMES  PZE     *-LMES
      00446  604663302551     MESEY  BCI     3, OTHERWISE, NOW.
      00451  606445256747     MESX   BCI     9, UNEXPECTED AND/OR NON-CRUCIAL I/O SYSTEM ERROR RETURN
      00462  736066303123            BCI     3,, WHICH IS IGNORED
                       00415  LNAM1  EQU     TEMP
                       00416  LNAM2  EQU     TEMP+1
                              *
      00465  242125440521     LINKS  BCI     2,DAEM5A SAVED
      00467  246224644447            BCI     2,DSDUMP SAVED
      00471  246243462124            BCI     2,DSLOAD SAVED
      00473  602551514651            BCI     2, ERRORRELOAD
      00475  645127254563            BCI     2,URGENTTRIEVE
      00477  0 00000 0 00012  NLINKS PZE     *-LINKS
                              *
                                     INSERT  BCMEQB
                              *
                              *  -  -  -  -  -  -  -  -  -  -  -  -  -  -  -  -  -  -
                              *      COMMON AND EQUIVALENCE FOR SECONDARY STORAGE LOAD
                              *         (TIME-SHARING VERSION)
                              *  -  -  -  -  -  -  -  -  -  -  -  -  -  -  -  -  -  -
                              *
                      075045  DEMKEY BOOL    75045         CORE A LOCATION FOR DAEMON KEY SETTING
                              *
                      000017  BASE   BOOL    17            KEY CODE BASE
                      000001  CTINUE BOOL    1             KEY CODE TO CONTINUE WITH PROGRAM,NO CHANGE
                      000002  PAUSE  BOOL    2             KEY CODE TO WAIT 60 SECS.
                      000003  CHLDFL BOOL    3             KEY CODE TO USE DIFFERENT LOAD FILE
                      000004  STOPLD BOOL    4             KEY CODE TO STOP LOADING, START DUMPING
                      000005  ABANKY BOOL    5             KEY CODE TO ABANDON LOAD TAPE FILE
                      000006  SWCHAN BOOL    6             KEY CODE TO GO FROM 1 OR 2 TO 2 OR 1 CHANS.
                      000007  LSREEL BOOL    7             KEY CODE TO INDICATE LAST REEL OF LOAD FILE
                      000010  CHREEL BOOL    10            KEY CODE TO CORRECT REEL ORDER ERROR
                       77777  NEWCOM EQU     -1            TOP OF MEMORY
                      077461  OLDCOM BOOL    77461         OLD TOP OF COMMON
                       77462  COMRLC EQU     OLDCOM-NEWCOM RELOCATION FACTOR
                       77777         COMMON  COMRLC        RELOCATE COMMON
                       01355  UF     EQU     32767/2-DEMKEY/2 LENGTH OF USER LIST
                       77777  UFL    COMMON  2*UF          USER FILE LIST  (1ST PARTS OF FILE NAMES)
                       75044         COMMON  1             INSERT DUMMY IF NECESSARY
                       75043         COMMON  1             DEMKEY CELL IN NON-CTSS VERSION
                       75043  KEYVAL COMMON  1
                       75042  ABANTP COMMON  1             ABANDON TAPE FILE INDICATOR
                       75041  NOCHAN COMMON  1             NO. OF CHANNELS BEING READ (1 OR 2)
                       75040  DU     COMMON  1             PROBLEM NO. OF DUMP/LOAD PACKAGE
                       75037  DP     COMMON  1             PROGRAMMER NO. OF DITTO.
                       75036  LFNA   COMMON  1             LOAD TAPE FILE NAME (PART 1)
                       75035  LFNB   COMMON  1              ,,   ,,   ,,   ,,  (PART 2)
                       75021         COMMON  11            DUMPED FILE'S PREAMBLE FROM DUMP TAPE
                       75021  PREAM  COMMON  1             DUMPED FILE'S DUMP TAPE PREAMBLE 1ST WORD
                       75020  BFNA   COMMON  1             CHANNEL B LOAD TAPE FILE NAME (PART 1)
                       75017  BFNB   COMMON  1             CHANNEL B LOAD TAPE FILE NAME (PART 2)
                       75016  AUN    COMMON  1             CHANNEL A UNIT NO.
                       75015  BUN    COMMON  1             CHANNEL B UNIT NO.
1            LOAD SECONDARY STORAGE FROM DUMP TAPES (PRIOR TO TIME-SHARING)                      PAGE 9

                       75014  TEOF   COMMON  1             TAPE EOF INDICATOR/WORD COUNT
                       75010         COMMON  3             LABEL OF TAPE FILE CURRENTLY BEING LOADED
                       75010  LABEL  COMMON  1             LABEL OF TAPE FILE DITTO.   1ST WORD
                       75007  X      COMMON  1             TAPE FILE POINTER
                                     END
                                              REMOTE SEQUENCES
      00500  604346212431     ..001  BCI     8, LOADING WILL NOW BE SUSPENDED TO START UP CTSS.               .001

1            LOAD SECONDARY STORAGE FROM DUMP TAPES (PRIOR TO TIME-SHARING)                      PAGE 1
                        POST PROCESSOR ASSEMBLY DATA

       75006 IS THE LAST LOCATION NOT USED BY THIS PROGRAM
        533 IS THE FIRST LOCATION NOT USED BY THIS PROGRAM

0REFERENCES TO DEFINED SYMBOLS
      75007      X   500
      75037     DP    42,   61,   65,  273,  305,  311,  500
      75040     DU    40,   60,   64,  272,  304,  310,  500
       1355     UF   500
      75016    AUN   132,  141,  152,  213,  224,  235,  250,  500
      75015    BUN   134,  146,  261,  500
        122    LEG   264,  267,  274
        124    LEH   100
        150    LEI   246,  252
        217    LEK   215
        230    LEM   226
        247    LEO   244
        253    LEP   216,  227,  241
        307    LEU   277
        413    LWG   251
        417    MTP   153,  427
      77777    UFL   500
         17   BASE   500
      75020   BFNA    50,  144,  172,  201,  500
      75017   BFNB    52,  145,  173,  202,  500
        206   DAMN   154
        204   DLTP   155
        114   ELOC    75
         31   EXIT   113,  343
        263   LEIB   256
        242   LEMA   237
        270   LERA   266
        321   LEU2   306
        275   LEUB   126
      75036   LFNA    44,  137,  157,  166,  500
      75035   LFNB    46,  140,  160,  167,  500
         34   LINK   330
        441   LMES   111,  445
        427   LMTP   153
        451   MESX   116
        430   MTPB   262,  440
        415   TEMP   240,  242,  417,  465
      75014   TEOF   500
         13  ALLOT    70
         14  CLOSE   103
        120  ELOC4   114
        500  ..001   322
      75010  LABEL   210,  214,  221,  225,  232,  236,  500
        465  LINKS   477
        445  LLMES   111
        440  LMTPB   262
        415  LNAM1   325,  331,  465
        416  LNAM2   327,  332,  465
        446  MESEY   127,  300
          3  MOUNT   150,  257
1            LOAD SECONDARY STORAGE FROM DUMP TAPES (PRIOR TO TIME-SHARING)                      PAGE 2
                        POST PROCESSOR ASSEMBLY DATA

        352  NFTID   207
          2  PAUSE   500
        101  PEXIT    55
      75021  PREAM   500
         33  RECAP   302
        356  SDTID   220
          5  SETIO    53
        362  UDTID   231
          6  WRFLX   115,  321
          5 ABANKY   500
      75042 ABANTP   123,  500
         32 ASKOPR   124,  275
          1 ATTACH    63,  271,  303,  307
          3 CACODE   277,  352
         15 CHFILE   156,  171
          3 CHLDFL   500
         10 CHREEL   500
      77462 COMRLC   500
          1 CTINUE   130,  301,  500
        415 DAYTIM   313,  317,  320,  417
         25 DELFIL   165,  200
        155 DELTAP   135
      75045 DEMKEY   500
        414 DEVICE    67,   71
         10 FERRTN    74
         24 GETLSG   253
         26 GTDYTM   312
         16 INITTF   263
         30 IOFINI   112
         27 IORSET   102
      75043 KEYVAL   500
        324 LINKUP   341
          7 LSREEL   500
         20 LTFILE   270
        344 MESCAP   276
        366 MSSPLD   125
      77777 NEWCOM   500
        477 NLINKS   323,  324,  326
      75041 NOCHAN   254,  500
      77461 OLDCOM   500
         17 OPENDF   265
          7 PRNTER   117,  245
         23 SETFIL   314
          4 STOPLD   126,  500
          6 SWCHAN   500
          2 TAPFIL   136,  143
         21 TERMTF   122
         11 TILOCK    76
         12 UMOUNT   107,  247
         22 UPDATE   342
          0 UPDMFD    57
          4 VERIFY   212,  223,  234
        377 WRNGTP   251,  413
1            LOAD SECONDARY STORAGE FROM DUMP TAPES (PRIOR TO TIME-SHARING)                      PAGE 3
                        POST PROCESSOR ASSEMBLY DATA

0 NO ERROR IN ABOVE ASSEMBLY.


SLDTFC   BCD 01/25/68 2055.9    6427         00000
1            LOAD MAIN BODY OF DUMP TAPE FILE BETWEEN MFDS...M.J.BAILEY,2/1/65                   PAGE 1

                              *           (TIME-SHARING VERSION)
                              *
                       00021         ENTRY   LTFILE
                              *
                                     EXTERN  OPENDF,RDF,GETLSG
                                     EXTERN  TRFILE
                                     EXTERN  ATTACH,BUFFER,FWAIT,FSTATE
                                     EXTERN  OPEN,CLOSE,WRFILE,SETFIL
                                     EXTERN  WRFLX,CHFILE
                              *
                                     INSERT  BMCRSC
                              *
                              *  ZERO-IZE A THROUGH A+X-1
                              *
                               CLEAR MACRO   A,X
                                     AXT     X,1
                                     STZ     A+X,1
                                     TIX     *-1,1,1
                               CLEAR END
                              *
                              *      MOVE X WORDS FROM A ET SEQ TO B ET SEQ
                              *
                               MOVE  MACRO   X,A,B
                                     AXT     X,1
                                     CAL     A+X,1
                                     SLW     B+X,1
                                     TIX     *-2,1,1
                               MOVE  END
                              *
                              *  PRINT ONE LINE COMMENT
                              *
                              PRLINE MACRO   COMNT,NWC,LOC
                                     TSX     WRFLX,4
                                             LOC,,NWC
                                     RMT
                               LOC   BCI     NWC,COMNT
                                     RMT
                              PRLINE END
                              *
                              *
                              *      EXECUTE INST. IN CORE A
                              *
                              *
                              EXEC   MACRO   OPC,ADD
                                     TSX     $GETA,7
                                     OPC     ADD
                              EXEC   END
                              *
                              *      GET KEY SETTING VIA SUPERVISOR, SET ABANTP, NOCHAN IF APPROPRIATE
                              *
                              GETSIG MACRO
                                     TSX     GETLSG,4
                              GETSIG END
                              *
                              *      TEST WHETHER 2ND TAPE COPY IS NEEDED, IF NOT GO TO SKIP
                              *
1            LOAD MAIN BODY OF DUMP TAPE FILE BETWEEN MFDS...M.J.BAILEY,2/1/65                   PAGE 2

                              SKIFNB MACRO   SKIP
                                     CLA     NOCHAN
                                     SUB     =1
                                     TZE     SKIP
                              SKIFNB END
                              *
                              *      PRINT AN N-WORD MESSAGE FROM  MESSGE
                              *
                              PRM    MACRO   MESSGE,N
                                     TSX     WRFLX,4
                                             MESSGE,,N
                              PRM    END
                              *
                              *      COMPARE 2 SETS OF N CONSECUTIVE WORDS IN A ETC., AND B ETC. ,
                              *      AND IF THEY DO NOT ALL MATCH, GO TO NF, OR OTHERWISE CONTINUE.
                              *
                              CMPWDS MACRO   N,A,B,NF
                                     AXT     N,1
                                     CAL     A+N,1
                                     LAS     B+N,1
                                     TRA     NF
                                     TRA     *+2
                                     TRA     NF
                                     TIX     *-5,1,1
                              CMPWDS END
                              *
                              *      WAIT FOR I/O ON FILE (A,B) TO END, GO TO E IF ERROR OCCURRED
                              *
                              WAIT   MACRO   A,B,E
                                     TSX     FWAIT,4
                                     PTH     A
                                     PTH     B
                                     PTH     E
                              WAIT   END
                              *
                              *      CLOSE THE FILE (A,B)
                              *
                              CLOSE  MACRO   A,B
                                     TSX     CLOSE,4
                                     PTH     A
                                     PTH     B
                              CLOSE  END
                              *
                              *
                              *  -  -  -  -  -  -  -  -  -  -  -  -  -  -  -  -  -  -  -  -  -  -
                              *      INITIALIZE AND GET PREAMBLE OF UFD FILE OF 1ST USER ON TAPE
                              *  -  -  -  -  -  -  -  -  -  -  -  -  -  -  -  -  -  -  -  -  -  -
                              *

      00000  464725452426     OPENDF
      00001  512426606060     RDF
      00002  272563436227     GETLSG
      00003  635126314325     TRFILE
      00004  216363212330     ATTACH
      00005  226426262551     BUFFER
      00006  266621316360     FWAIT
1            LOAD MAIN BODY OF DUMP TAPE FILE BETWEEN MFDS...M.J.BAILEY,2/1/65                   PAGE 3

      00007  266263216325     FSTATE
      00010  464725456060     OPEN
      00011  234346622560     CLOSE
      00012  665126314325     WRFILE
      00013  622563263143     SETFIL
      00014  665126436760     WRFLX
      00015  233026314325     CHFILE
      00016  475145632551     PRNTER


      00021  0634 00 1 00077  LTFILE SXA     X1,1
      00022  0634 00 2 00076         SXA     X2,2
      00023  0634 00 3 00075         SXA     X3,3
      00024  0634 00 4 00074         SXA     X4,4
                              *
      00025  0600 00 0 00365         STZ     LUSER
      00026  0600 00 0 00366         STZ     LUSER+1
                              *
                              *  -  -  -  -  -  -  -  -  -  -  -  -  -  -  -  -  -  -  -  -  -
                              *      EXAMINE NEXT DUMPED FILE ON TAPE
                              *  -  -  -  -  -  -  -  -  -  -  -  -  -  -  -  -  -  -  -  -  -
                              *
      00027                   XTA    CLEAR   PREAM,12
      00027  0774 00 1 00014         AXT     12,1                                                             .001
      00030  0600 00 1 75035         STZ     PREAM+12,1                                                       .001
      00031  2 00001 1 00030         TIX     *-1,1,1                                                          .001
      00032  0074 00 4 00000         TSX     OPENDF,4      INITIALIZE READING FROM NEXT DUMPED FILE
 TD   00033  3 00000 0 00036         TXH     XTC           (ERROR ADDRESS)
 TD   00034  3 00000 0 00074         TXH     ABANTF        ABANDON TAPE FILE
      00035  0020 00 0 00041         TRA     XTD           SKIP TO SEE WHAT KIND OF FILE IT IS
                              *
      00036  0520 00 0 75014  XTC    ZET     TEOF
      00037  0020 00 0 00074         TRA     ABANTF
      00040  0020 00 0 00300         TRA     ZTQB
                              *
      00041  0760 00 0 00166  XTD    SWT     6
      00042  0020 00 0 00055         TRA     XTDD
      00043                          MOVE    2,PREAM,SEE
      00043  0774 00 1 00002         AXT     2,1                                                              .001
      00044 -0500 00 1 75023         CAL     PREAM+2,1                                                        .001
      00045  0602 00 1 00371         SLW     SEE+2,1                                                          .001
      00046  2 00001 1 00044         TIX     *-2,1,1                                                          .001
      00047                          MOVE    2,PREAM+5,SEE+2
      00047  0774 00 1 00002         AXT     2,1                                                              .001
      00050 -0500 00 1 75030         CAL     PREAM+5+2,1                                                      .001
      00051  0602 00 1 00373         SLW     SEE+2+2,1                                                        .001
      00052  2 00001 1 00050         TIX     *-2,1,1                                                          .001
      00053                          PRM     SEE,4
      00053  0074 00 4 00014         TSX     WRFLX,4                                                          .001
      00054  0 00004 0 00367                 SEE,,4                                                           .001
                              *
      00055                   XTDD   CMPWDS  3,UFDNAM,PREAM+5,XTE
      00055  0774 00 1 00003         AXT     3,1                                                              .001
      00056 -0500 00 1 00376         CAL     UFDNAM+3,1                                                       .001
      00057 -0340 00 1 75031         LAS     PREAM+5+3,1                                                      .001
      00060  0020 00 0 00065         TRA     XTE                                                              .001
1            LOAD MAIN BODY OF DUMP TAPE FILE BETWEEN MFDS...M.J.BAILEY,2/1/65                   PAGE 4

      00061  0020 00 0 00063         TRA     *+2                                                              .001
      00062  0020 00 0 00065         TRA     XTE                                                              .001
      00063  2 00001 1 00056         TIX     *-5,1,1                                                          .001
      00064  0020 00 0 00027         TRA     XTA
                              *
      00065                   XTE    CMPWDS  2,MFDNAM,PREAM,ZTA
      00065  0774 00 1 00002         AXT     2,1                                                              .001
      00066 -0500 00 1 00413         CAL     MFDNAM+2,1                                                       .001
      00067 -0340 00 1 75023         LAS     PREAM+2,1                                                        .001
      00070  0020 00 0 00101         TRA     ZTA                                                              .001
      00071  0020 00 0 00073         TRA     *+2                                                              .001
      00072  0020 00 0 00101         TRA     ZTA                                                              .001
      00073  2 00001 1 00066         TIX     *-5,1,1                                                          .001
                              *
                              *      RETURN TO CALLER IF NEXT FILE IS MFD FILE
                              *
                       00074  ABANTF EQU     *
      00074  0774 00 4 00000  X4     AXT     **,4
      00075  0774 00 3 00000  X3     AXT     **,3
      00076  0774 00 2 00000  X2     AXT     **,2
      00077  0774 00 1 00000  X1     AXT     **,1
      00100  0020 00 4 00001         TRA     1,4
                              *
                              *  -  -  -  -  -  -  -  -  -  -  -  -  -  -  -  -  -  -  -  -
                              *      PROCESS REGULAR FILE (NOT MFD OR UFD)
                              *  -  -  -  -  -  -  -  -  -  -  -  -  -  -  -  -  -  -  -  -
                              *
      00101  0074 00 4 00002  ZTA    TSX     GETLSG,4
      00102                          CMPWDS  2,LUSER,PREAM,NOSAME
      00102  0774 00 1 00002         AXT     2,1                                                              .001
      00103 -0500 00 1 00367         CAL     LUSER+2,1                                                        .001
      00104 -0340 00 1 75023         LAS     PREAM+2,1                                                        .001
      00105  0020 00 0 00112         TRA     NOSAME                                                           .001
      00106  0020 00 0 00110         TRA     *+2                                                              .001
      00107  0020 00 0 00112         TRA     NOSAME                                                           .001
      00110  2 00001 1 00103         TIX     *-5,1,1                                                          .001
      00111  0020 00 0 00122         TRA     SAME
      00112                   NOSAME MOVE    2,PREAM,LUSER
      00112  0774 00 1 00002         AXT     2,1                                                              .001
      00113 -0500 00 1 75023         CAL     PREAM+2,1                                                        .001
      00114  0602 00 1 00367         SLW     LUSER+2,1                                                        .001
      00115  2 00001 1 00113         TIX     *-2,1,1                                                          .001
      00116  0074 00 4 00004         TSX     ATTACH,4
 TD   00117  3 00000 0 75021         TXH     PREAM
 TD   00120  3 00000 0 75022         TXH     PREAM+1
 TD   00121  3 00000 0 00027         TXH     XTA
                              *
      00122  0074 00 4 00007  SAME   TSX     FSTATE,4
 TD   00123  3 00000 0 75026         TXH     PREAM+5
 TD   00124  3 00000 0 75027         TXH     PREAM+6
      00125  3 00007 0 00401         TXH     STAT,,7
 TD   00126  3 00000 0 00027         TXH     XTA
                              *
      00127  0500 00 0 00404         CLA     STAT+3
      00130  0402 00 0 10060         SUB     =3
      00131  0100 00 0 00027         TZE     XTA
1            LOAD MAIN BODY OF DUMP TAPE FILE BETWEEN MFDS...M.J.BAILEY,2/1/65                   PAGE 5

      00132  0500 00 0 00402         CLA     STAT+1
      00133 -0120 00 0 00027         TMI     XTA
      00134 -0320 00 0 10062         ANA     =O200
      00135  0100 00 0 00027         TZE     XTA
      00136  0500 00 0 75023         CLA     PREAM+2
      00137  0402 00 0 00407         SUB     STAT+6
      00140 -0120 00 0 00027         TMI     XTA
      00141  0500 00 0 00401         CLA     STAT
      00142 -0100 00 0 00300         TNZ     ZTQB
      00143 -0520 00 0 75033         NZT     PREAM+10
      00144  0020 00 0 00322         TRA     CLANUP
                              *
      00145 -0754 00 0 00000         ZAC
      00146  0560 00 0 75032         LDQ     PREAM+9
      00147 -0763 00 0 00010         LGL     8
      00150  0602 00 0 00377         SLW     TEMP+1
                              *
      00151  0074 00 4 00010  OPAGIN TSX     OPEN,4
 TD   00152  3 00000 0 01277         TXH     W
 TD   00153  3 00000 0 75026         TXH     PREAM+5
 TD   00154  3 00000 0 75027         TXH     PREAM+6
 TD   00155  3 00000 0 10063         TXH     =-0
 TD   00156  3 00000 0 10063         TXH     =-0
 TD   00157  3 00000 0 00242         TXH     ZTQB1
 TD   00160  3 00000 0 00410         TXH     ZTCODE
                              *
                              *
      00161  0074 00 4 00005         TSX     BUFFER,4
 TD   00162  3 00000 0 75026         TXH     PREAM+5       ASSIGN INTERNAL BUFFERS FOR WRITE
 TD   00163  3 00000 0 75027         TXH     PREAM+6
      00164  2 00413 0 00414         TIX     DBUF,,LDBUF
 TD   00165  3 00000 0 00260         TXH     ZTQ           (ERROR)
                              *
      00166  0774 00 3 00000         AXT     0,3
      00167  0500 00 0 01274         CLA     LTPB
      00170  0601 00 0 00376         STO     TEMP
      00171  0774 00 2 00000         AXT     0,2
                              *
                              *      READ-WRITE LOOP (DOUBLE BUFFERS)
                              *
      00172  1 00001 2 00173  ZTM    TXI     *+1,2,1       SWITCH BUFFERS
      00173 -3 00001 2 00175         TXL     *+2,2,1
      00174  0774 00 2 00000         AXT     0,2
      00175  0500 00 2 01276         CLA     TBADR+1,2
      00176  0621 00 0 00201         STA     ZTN
      00177  0621 00 0 00216         STA     ZTO
                              *
      00200  0074 00 4 00001         TSX     RDF,4         READ BUFFER FULL FROM DUMP TAPE
      00201  2 01274 0 00000  ZTN    TIX     **,,LTPB
 TD   00202  3 00000 0 00262         TXH     ZTQA          READ ERROR
 TD   00203  3 00000 0 00236         TXH     ZTP           EOF
 TD   00204  3 00000 0 01300         TXH     EOFCT         EOF WORD COUNT
 TD   00205  3 00000 0 00221         TXH     ABANCL        ABANDON TAPE FILE
                              *
      00206  0074 00 4 00006  ZTNA   TSX     FWAIT,4       WAIT FOR PREVIOUS WRITE TO END
 TD   00207  3 00000 0 75026         TXH     PREAM+5
1            LOAD MAIN BODY OF DUMP TAPE FILE BETWEEN MFDS...M.J.BAILEY,2/1/65                   PAGE 6

 TD   00210  3 00000 0 75027         TXH     PREAM+6
 TD   00211  3 00000 0 00260         TXH     ZTQ           ERROR ON PREVIOUS WRITE
                              *
      00212  0074 00 4 00012         TSX     WRFILE,4      START WRITING BUFFER FULL ON DISK/DRUM
 TD   00213  3 00000 0 75026         TXH     PREAM+5
 TD   00214  3 00000 0 75027         TXH     PREAM+6
 TD   00215  3 00000 0 10056         TXH     =0
      00216  2 00376 0 00000  ZTO    TIX     **,,TEMP
                              *
      00217 -3 00000 3 00172         TXL     ZTM,3,0       RETURN TO READ MORE IF NO EOF YET
      00220  0020 00 0 00314         TRA     ZTS           FINISHED, GO CLOSE LOAD FILE
      00221  0074 00 4 00003  ABANCL TSX     TRFILE,4
 TD   00222  3 00000 0 75026         TXH     PREAM+5
 TD   00223  3 00000 0 75027         TXH     PREAM+6
 TD   00224  3 00000 0 10056         TXH     =0
      00225  0074 00 4 00011         TSX     CLOSE,4
 TD   00226  3 00000 0 75026         TXH     PREAM+5
 TD   00227  3 00000 0 75027         TXH     PREAM+6
      00230  0074 00 4 00013         TSX     SETFIL,4      RESET DATE/TIME CREATED SO
 TD   00231  3 00000 0 75026         TXH     PREAM+5       FILE CAN BE LOADED AGAIN LATER.
 TD   00232  3 00000 0 75027         TXH     PREAM+6
 TD   00233  3 00000 0 75030         TXH     PREAM+7
 TD   00234  3 00000 0 75031         TXH     PREAM+8
      00235  0020 00 0 00074         TRA     ABANTF
                              *
                              *
      00236  0534 00 3 01300  ZTP    LXA     EOFCT,3       EOF
      00237  0634 00 3 00376         SXA     TEMP,3
      00240  3 00000 3 00206         TXH     ZTNA,3,0      GO WRITE LAST PART BUFFER FULL, IF ANY
      00241  0020 00 0 00314         TRA     ZTS           NO MORE, GO CLOSE LOAD FILE
                              *
                              *      OPEN ERROR TRY CHANGING MODE
                              *
      00242  0074 00 4 00002  ZTQB1  TSX     GETLSG,4
      00243  0500 00 0 00410         CLA     ZTCODE
      00244  0402 00 0 10061         SUB     =15
      00245 -0100 00 0 00300         TNZ     ZTQB
      00246  0074 00 4 00015         TSX     CHFILE,4
      00247  3 00000 0 75026         PTH     PREAM+5
      00250  3 00000 0 75027         PTH     PREAM+6
      00251  3 00000 0 10057         PTH     =1
      00252  3 00000 0 10063         PTH     =-0
      00253  3 00000 0 10063         PTH     =-0
      00254  3 00000 0 00300         PTH     ZTQB
      00255 -0500 00 0 10057         CAL     =1
      00256 -0602 00 0 00377         ORS     TEMP+1
      00257  0020 00 0 00151         TRA     OPAGIN
                              *
                              *      PROCESS ERRORS LOADING DUMPED FILE
                              *
      00260  0074 00 4 00016  ZTQ    TSX     $PRNTER,4     UNEXPECTED I/O SYSTEM RETURN
      00261  0020 00 0 00264         TRA     ZTRA
      00262  0500 00 0 75014  ZTQA   CLA     TEOF
      00263 -0100 00 0 00221         TNZ     ABANCL        SKIP IF EOF ON TAPE
      00264  0074 00 4 00003  ZTRA   TSX     TRFILE,4      RESET FILE LENGTH.
      00265  3 00000 0 75026         PTH     PREAM+5
1            LOAD MAIN BODY OF DUMP TAPE FILE BETWEEN MFDS...M.J.BAILEY,2/1/65                   PAGE 7

      00266  3 00000 0 75027         PTH     PREAM+6
      00267  3 00000 0 10056         PTH     =0
      00270  0074 00 4 00011         TSX     CLOSE,4       CLOSE FILE.
 TD   00271  3 00000 0 75026         TXH     PREAM+5
 TD   00272  3 00000 0 75027         TXH     PREAM+6
      00273  0074 00 4 00013         TSX     SETFIL,4      NOW RESET DATE/TIME CREATED,
 TD   00274  3 00000 0 75026         TXH     PREAM+5       SO THAT WE CAN TRY TO LOAD
 TD   00275  3 00000 0 75027         TXH     PREAM+6       IT AGAIN LATER.   **********
 TD   00276  3 00000 0 75030         TXH     PREAM+7
 TD   00277  3 00000 0 75031         TXH     PREAM+8
      00300                   ZTQB   MOVE    2,PREAM,ERMES+3
      00300  0774 00 1 00002         AXT     2,1                                                              .001
      00301 -0500 00 1 75023         CAL     PREAM+2,1                                                        .001
      00302  0602 00 1 00362         SLW     ERMES+3+2,1                                                      .001
      00303  2 00001 1 00301         TIX     *-2,1,1                                                          .001
      00304                          MOVE    2,PREAM+5,ERMES+5
      00304  0774 00 1 00002         AXT     2,1                                                              .001
      00305 -0500 00 1 75030         CAL     PREAM+5+2,1                                                      .001
      00306  0602 00 1 00364         SLW     ERMES+5+2,1                                                      .001
      00307  2 00001 1 00305         TIX     *-2,1,1                                                          .001
      00310  0074 00 4 00014         TSX     WRFLX,4
      00311  0 00010 0 00355                 ERMES,,8
      00312  0074 00 4 00016         TSX     $PRNTER,4
      00313  0020 00 0 00027         TRA     XTA           GO FOR NEXT DUMPED FILE
                              *
                              *  -  -  -  -  -  -  -  -  -  -  -  -  -  -  -  -  -  -  -  -
                              *      SET UFD ENTRY FOR FILE JUST READ, FREE IT FOR USE
                              *      IF IT WAS ONE DEFINITELY TO BE LOADED
                              *  -  -  -  -  -  -  -  -  -  -  -  -  -  -  -  -  -  -  -  -
                              *
      00314  0074 00 4 00006  ZTS    TSX     FWAIT,4       WAIT FOR WRITE TO END
 TD   00315  3 00000 0 75026         TXH     PREAM+5
 TD   00316  3 00000 0 75027         TXH     PREAM+6
      00317  0074 00 4 00011         TSX     CLOSE,4
 TD   00320  3 00000 0 75026         TXH     PREAM+5
 TD   00321  3 00000 0 75027         TXH     PREAM+6
      00322  0074 00 4 00015  CLANUP TSX     CHFILE,4      DE-PROTECT, THEN . . . . .
 TD   00323  3 00000 0 75026         TXH     PREAM+5
 TD   00324  3 00000 0 75027         TXH     PREAM+6
 TD   00325  3 00000 0 00377         TXH     TEMP+1
 TD   00326  3 00000 0 10063         TXH     =-0
 TD   00327  3 00000 0 10063         TXH     =-0
 TD   00330  3 00000 0 00332         TXH     ZTSA          UNUSUAL CONDITION TRANSFER
      00331  0020 00 0 00333         TRA     ZTSB          SKIP IF O.K.
      00332  0074 00 4 00016  ZTSA   TSX     $PRNTER,4     ERROR, PRINT MESSAGE
                              *
      00333  0074 00 4 00013  ZTSB   TSX     SETFIL,4      SET ITS DATES, TIME, AUTHOR, AS
 TD   00334  3 00000 0 75026         TXH     PREAM+5       IN PREAMBLE OF DUMPED VERSION JUST READ
 TD   00335  3 00000 0 75027         TXH     PREAM+6
 TD   00336  3 00000 0 75030         TXH     PREAM+7
 TD   00337  3 00000 0 75031         TXH     PREAM+8
      00340  0760 00 0 00165         SWT     5
      00341  0020 00 0 00027         TRA     XTA
      00342                          MOVE    2,PREAM,MEST+1
      00342  0774 00 1 00002         AXT     2,1                                                              .001
      00343 -0500 00 1 75023         CAL     PREAM+2,1                                                        .001
1            LOAD MAIN BODY OF DUMP TAPE FILE BETWEEN MFDS...M.J.BAILEY,2/1/65                   PAGE 8

      00344  0602 00 1 01304         SLW     MEST+1+2,1                                                       .001
      00345  2 00001 1 00343         TIX     *-2,1,1                                                          .001
      00346                          MOVE    2,PREAM+5,MEST+3
      00346  0774 00 1 00002         AXT     2,1                                                              .001
      00347 -0500 00 1 75030         CAL     PREAM+5+2,1                                                      .001
      00350  0602 00 1 01306         SLW     MEST+3+2,1                                                       .001
      00351  2 00001 1 00347         TIX     *-2,1,1                                                          .001
      00352  0074 00 4 00014         TSX     WRFLX,4
      00353  0 00005 0 01301                 MEST,,5
      00354  0020 00 0 00027         TRA     XTA           GO LOOK AT NEXT DUMPED FILE
                              *
                              *  -  -  -  -  -  -  -  -  -  -  -  -  -  -  -  -  -  -
                              *
                              *  -  -  -  -  -  -  -  -  -  -  -  -
                              *      CONSTANTS, VARIABLES, ETC.
                              *  -  -  -  -  -  -  -  -  -  -  -  -
                              *
      00355  602631432560     ERMES  BCI     8, FILE NOT LOADED
      00365                   LUSER  BSS     2
      00367                   SEE    BSS     4
      00373  646225516026     UFDNAM BCI     3,USER FILE DIRECTRY
      00376                   TEMP   BSS     3
      00401                   STAT   BSS     7
      00410                   ZTCODE BSS     1
      00411  443326332433     MFDNAM BCI     2,M.F.D.(FILE)
      00413  0 00000 0 00660  LDBUF  PZE     432
      00414                   DBUF   BSS     432
      01274  0 00000 0 03264  LTPB   PZE     4*432-12
      01275  0 00000 0 01306  TBADR  PZE     TPB
      01276  0 00000 0 04572         PZE     TPB2
      01277  666060606060     W      BCI     1,W
      01300  0 00000 0 00000  EOFCT  PZE
      01301  434621242524     MEST   BCI     5,LOADED
      01306                   TPB    BSS     4*432-12
      04572                   TPB2   BSS     4*432-12
                              *
                                     INSERT  BCMEQB
                              *
                              *  -  -  -  -  -  -  -  -  -  -  -  -  -  -  -  -  -  -
                              *      COMMON AND EQUIVALENCE FOR SECONDARY STORAGE LOAD
                              *         (TIME-SHARING VERSION)
                              *  -  -  -  -  -  -  -  -  -  -  -  -  -  -  -  -  -  -
                              *
                      075045  DEMKEY BOOL    75045         CORE A LOCATION FOR DAEMON KEY SETTING
                              *
                      000017  BASE   BOOL    17            KEY CODE BASE
                      000001  CTINUE BOOL    1             KEY CODE TO CONTINUE WITH PROGRAM,NO CHANGE
                      000002  PAUSE  BOOL    2             KEY CODE TO WAIT 60 SECS.
                      000003  CHLDFL BOOL    3             KEY CODE TO USE DIFFERENT LOAD FILE
                      000004  STOPLD BOOL    4             KEY CODE TO STOP LOADING, START DUMPING
                      000005  ABANKY BOOL    5             KEY CODE TO ABANDON LOAD TAPE FILE
                      000006  SWCHAN BOOL    6             KEY CODE TO GO FROM 1 OR 2 TO 2 OR 1 CHANS.
                      000007  LSREEL BOOL    7             KEY CODE TO INDICATE LAST REEL OF LOAD FILE
                      000010  CHREEL BOOL    10            KEY CODE TO CORRECT REEL ORDER ERROR
                       77777  NEWCOM EQU     -1            TOP OF MEMORY
                      077461  OLDCOM BOOL    77461         OLD TOP OF COMMON
1            LOAD MAIN BODY OF DUMP TAPE FILE BETWEEN MFDS...M.J.BAILEY,2/1/65                   PAGE 9

                       77462  COMRLC EQU     OLDCOM-NEWCOM RELOCATION FACTOR
                       77777         COMMON  COMRLC        RELOCATE COMMON
                       01355  UF     EQU     32767/2-DEMKEY/2 LENGTH OF USER LIST
                       77777  UFL    COMMON  2*UF          USER FILE LIST  (1ST PARTS OF FILE NAMES)
                       75044         COMMON  1             INSERT DUMMY IF NECESSARY
                       75043         COMMON  1             DEMKEY CELL IN NON-CTSS VERSION
                       75043  KEYVAL COMMON  1
                       75042  ABANTP COMMON  1             ABANDON TAPE FILE INDICATOR
                       75041  NOCHAN COMMON  1             NO. OF CHANNELS BEING READ (1 OR 2)
                       75040  DU     COMMON  1             PROBLEM NO. OF DUMP/LOAD PACKAGE
                       75037  DP     COMMON  1             PROGRAMMER NO. OF DITTO.
                       75036  LFNA   COMMON  1             LOAD TAPE FILE NAME (PART 1)
                       75035  LFNB   COMMON  1              ,,   ,,   ,,   ,,  (PART 2)
                       75021         COMMON  11            DUMPED FILE'S PREAMBLE FROM DUMP TAPE
                       75021  PREAM  COMMON  1             DUMPED FILE'S DUMP TAPE PREAMBLE 1ST WORD
                       75020  BFNA   COMMON  1             CHANNEL B LOAD TAPE FILE NAME (PART 1)
                       75017  BFNB   COMMON  1             CHANNEL B LOAD TAPE FILE NAME (PART 2)
                       75016  AUN    COMMON  1             CHANNEL A UNIT NO.
                       75015  BUN    COMMON  1             CHANNEL B UNIT NO.
                       75014  TEOF   COMMON  1             TAPE EOF INDICATOR/WORD COUNT
                       75010         COMMON  3             LABEL OF TAPE FILE CURRENTLY BEING LOADED
                       75010  LABEL  COMMON  1             LABEL OF TAPE FILE DITTO.   1ST WORD
                       75007  X      COMMON  1             TAPE FILE POINTER
                                     END

1            LOAD MAIN BODY OF DUMP TAPE FILE BETWEEN MFDS...M.J.BAILEY,2/1/65                   PAGE 1
                        POST PROCESSOR ASSEMBLY DATA

       75006 IS THE LAST LOCATION NOT USED BY THIS PROGRAM
      10064 IS THE FIRST LOCATION NOT USED BY THIS PROGRAM

0REFERENCES TO DEFINED SYMBOLS
       1277      W   152
      75007      X 10056
      75037     DP 10056
      75040     DU 10056
       1355     UF 10056
         77     X1    21
         76     X2    22
         75     X3    23
         74     X4    24
      75016    AUN 10056
      75015    BUN 10056
          1    RDF   200
        367    SEE    45,   51,   54
       1306    TPB  1275
      77777    UFL 10056
         27    XTA    64,  121,  126,  131,  133,  135,  140,  313,  341,  354
         36    XTC    33
         41    XTD    35
         65    XTE    60,   62
        101    ZTA    70,   72
        172    ZTM   217
        201    ZTN   176
        216    ZTO   177
        236    ZTP   203
        260    ZTQ   165,  211
        314    ZTS   220,  241
         17   BASE 10056
      75020   BFNA 10056
      75017   BFNB 10056
        414   DBUF   164
      75036   LFNA 10056
      75035   LFNB 10056
       1274   LTPB   167,  201
       1301   MEST   344,  350,  353
         10   OPEN   151
        122   SAME   111
        401   STAT   125,  127,  132,  137,  141
        376   TEMP   150,  170,  216,  237,  256,  325
      75014   TEOF    36,  262,10056
       4572   TPB2  1276
         55   XTDD    42
        206   ZTNA   240
        262   ZTQA   202
        300   ZTQB    40,  142,  245,  254
        264   ZTRA   261
        332   ZTSA   330
        333   ZTSB   331
         11  CLOSE   225,  270,  317
       1300  EOFCT   204,  236
        355  ERMES   302,  306,  311
1            LOAD MAIN BODY OF DUMP TAPE FILE BETWEEN MFDS...M.J.BAILEY,2/1/65                   PAGE 2
                        POST PROCESSOR ASSEMBLY DATA

          6  FWAIT   206,  314
      75010  LABEL 10056
        413  LDBUF   164
        365  LUSER    25,   26,  103,  114
          2  PAUSE 10056
      75021  PREAM    30,   44,   50,   57,   67,  104,  113,  117,  120,  123,  124,  136,  143,  146,  153,  154,  162
                     163,  207,  210,  213,  214,  222,  223,  226,  227,  231,  232,  233,  234,  247,  250,  265,  266
                     271,  272,  274,  275,  276,  277,  301,  305,  315,  316,  320,  321,  323,  324,  334,  335,  336
                     337,  343,  347,10056
       1275  TBADR   175
         14  WRFLX    53,  310,  352
        242  ZTQB1   157
        221 ABANCL   205,  263
          5 ABANKY 10056
         74 ABANTF    34,   37,   74,  235
      75042 ABANTP 10056
          4 ATTACH   116
          5 BUFFER   161
         15 CHFILE   246,  322
          3 CHLDFL 10056
         10 CHREEL 10056
        322 CLANUP   144
      77462 COMRLC 10056
          1 CTINUE 10056
      75045 DEMKEY 10056
          7 FSTATE   122
          2 GETLSG   101,  242
      75043 KEYVAL 10056
          7 LSREEL 10056
         21 LTFILE     0
        411 MFDNAM    66
      77777 NEWCOM 10056
      75041 NOCHAN 10056
        112 NOSAME   105,  107
      77461 OLDCOM 10056
        151 OPAGIN   257
          0 OPENDF    32
         16 PRNTER   260,  312,  332
         13 SETFIL   230,  273,  333
          4 STOPLD 10056
          6 SWCHAN 10056
          3 TRFILE   221,  264
        373 UFDNAM    56
         12 WRFILE   212
        410 ZTCODE   160,  243

0 NO ERROR IN ABOVE ASSEMBLY.


LIORDE   BCD 01/10/68 1513.9    8076         00000
1       'OPEN' DUMPED FILE/READ N WORDS FROM DUMPED FILE...M.J.BAILEY,1/31/65                    PAGE 1

                              *           (TIME-SHARING VERSION)
                              *
                       00013         ENTRY   OPENDF
                       00166         ENTRY   RDF
                              *
                                     EXTERN  NLREC,GETLSG
                                     EXTERN  RDWAIT
                                     EXTERN  IODIAG,RDFILE,FWAIT
                                     EXTERN  WRFLX
                              *
                                     INSERT  BMCRSC
                              *
                              *  ZERO-IZE A THROUGH A+X-1
                              *
                               CLEAR MACRO   A,X
                                     AXT     X,1
                                     STZ     A+X,1
                                     TIX     *-1,1,1
                               CLEAR END
                              *
                              *      MOVE X WORDS FROM A ET SEQ TO B ET SEQ
                              *
                               MOVE  MACRO   X,A,B
                                     AXT     X,1
                                     CAL     A+X,1
                                     SLW     B+X,1
                                     TIX     *-2,1,1
                               MOVE  END
                              *
                              *  PRINT ONE LINE COMMENT
                              *
                              PRLINE MACRO   COMNT,NWC,LOC
                                     TSX     WRFLX,4
                                             LOC,,NWC
                                     RMT
                               LOC   BCI     NWC,COMNT
                                     RMT
                              PRLINE END
                              *
                              *
                              *      EXECUTE INST. IN CORE A
                              *
                              *
                              EXEC   MACRO   OPC,ADD
                                     TSX     $GETA,7
                                     OPC     ADD
                              EXEC   END
                              *
                              *      GET KEY SETTING VIA SUPERVISOR, SET ABANTP, NOCHAN IF APPROPRIATE
                              *
                              GETSIG MACRO
                                     TSX     GETLSG,4
                              GETSIG END
                              *
                              *      TEST WHETHER 2ND TAPE COPY IS NEEDED, IF NOT GO TO SKIP
                              *
1       'OPEN' DUMPED FILE/READ N WORDS FROM DUMPED FILE...M.J.BAILEY,1/31/65                    PAGE 2

                              SKIFNB MACRO   SKIP
                                     CLA     NOCHAN
                                     SUB     =1
                                     TZE     SKIP
                              SKIFNB END
                              *
                              *      PRINT AN N-WORD MESSAGE FROM  MESSGE
                              *
                              PRM    MACRO   MESSGE,N
                                     TSX     WRFLX,4
                                             MESSGE,,N
                              PRM    END
                              *
                              *      COMPARE 2 SETS OF N CONSECUTIVE WORDS IN A ETC., AND B ETC. ,
                              *      AND IF THEY DO NOT ALL MATCH, GO TO NF, OR OTHERWISE CONTINUE.
                              *
                              CMPWDS MACRO   N,A,B,NF
                                     AXT     N,1
                                     CAL     A+N,1
                                     LAS     B+N,1
                                     TRA     NF
                                     TRA     *+2
                                     TRA     NF
                                     TIX     *-5,1,1
                              CMPWDS END
                              *
                              *      WAIT FOR I/O ON FILE (A,B) TO END, GO TO E IF ERROR OCCURRED
                              *
                              WAIT   MACRO   A,B,E
                                     TSX     FWAIT,4
                                     PTH     A
                                     PTH     B
                                     PTH     E
                              WAIT   END
                              *
                              *      CLOSE THE FILE (A,B)
                              *
                              CLOSE  MACRO   A,B
                                     TSX     CLOSE,4
                                     PTH     A
                                     PTH     B
                              CLOSE  END
                              *
                              *
                              * - - - - - - - - - - - - - - - - - - - - - - - - - - - - - - -
                              *      'OPEN' NEXT DUMPED FILE -- SKIP TO NEXT (READABLE) FILE,
                              *      READ ITS PREAMBLE, AND ITS FIRST LOGICAL RECORD.
                              * - - - - - - - - - - - - - - - - - - - - - - - - - - - - - - - -
                              *

      00000  454351252360     NLREC
      00001  272563436227     GETLSG
      00002  512466213163     RDWAIT
      00003  314624312127     IODIAG
      00004  512426314325     RDFILE
      00005  266621316360     FWAIT
1       'OPEN' DUMPED FILE/READ N WORDS FROM DUMPED FILE...M.J.BAILEY,1/31/65                    PAGE 3

      00006  665126436760     WRFLX
      00007  475145632551     PRNTER
      00010  636263254626     TSTEOF


      00013  0634 00 1 00156  OPENDF SXA     X1,1
      00014  0634 00 2 00155         SXA     X2,2
      00015  0634 00 3 00154         SXA     X3,3
      00016  0634 00 4 00153         SXA     X4,4
      00017  0600 00 0 00633         STZ     M
      00020  0600 00 0 75014         STZ     TEOF
      00021  0500 00 0 00627         CLA     LEOROP
      00022  0621 00 0 00526         STA     ABNADD
      00023  0074 00 4 00001         TSX     GETLSG,4      IS OPERATOR'S TAPE FILE ABANDON
      00024  0500 00 0 75042         CLA     ABANTP        KEY CODE SETTING ON
      00025  0100 00 0 00031         TZE     *+4           SKIP IF NOT
      00026  0074 00 4 00006         TSX     WRFLX,4
      00027  0 00010 0 00615                 MESL,,8
      00030  0020 00 0 00526         TRA     EORABN        IF SO OBEY IT
      00031  0500 00 0 75007         CLA     X
      00032  0402 00 0 00574         SUB     PHYSRC
      00033 -0120 00 0 00161         TMI     ERTN          ERROR IF PTR SET BEFORE 1ST FILE,SKIP
      00034  0100 00 0 00122         TZE     OQ            SKIP IF FILE IS 1ST ON LOAD TAPE
                              *
                              * - - - - - - - - - - - - - - - - - - - - - - - - - - -
                              *      FIND START OF NEXT LOGICAL RECORD
                              * - - - - - - - - - - - - - - - - - - - - - - - - - - -
                              *
      00035  0500 00 0 00401         CLA     SOME
      00036 -0120 00 0 00057         TMI     JUMP
                              *
      00037  0500 00 0 75007         CLA     X
      00040  0400 00 0 00401         ADD     SOME
      00041  0601 00 0 75007         STO     X
      00042  0601 00 0 00604         STO     Y
      00043  0020 00 0 00051         TRA     *+6
                       00044  FL     EQU     *
      00044  0074 00 4 00001  FLA    TSX     GETLSG,4
      00045  0500 00 0 75007         CLA     X
      00046  0400 00 0 00574         ADD     PHYSRC
      00047  0601 00 0 75007         STO     X             X POINTS AT NEXT PHYSICAL RECORD
      00050  0601 00 0 00604         STO     Y             SO DOES Y
                              *
      00051  0074 00 4 00414  FLAB   TSX     BREAD,4       READ 12 WORDS FROM POSTN Y
 TD   00052  3 00000 0 00556         TXH     OPREAM
 TD   00053  3 00000 0 04123         TXH     =12
      00054  0020 00 0 00044         TRA     FLA           UNREAD, MOVE TO NEXT PHYSICAL REC.
      00055  0020 00 0 00044         TRA     FLA           READ ERROR, MOVE TO NEXT PHYS. REC.
      00056  0020 00 0 00160         TRA     REOF          REAL EOF EXIT
                              *
      00057  0500 00 0 00570  JUMP   CLA     OPREAM+10
      00060  0100 00 0 00044         TZE     FL
      00061  0074 00 4 00000         TSX     NLREC,4
      00062  3 00000 0 04120         PTH     =0
      00063  3 00000 0 04120         PTH     =0
      00064  3 00000 0 00570         PTH     OPREAM+10
1       'OPEN' DUMPED FILE/READ N WORDS FROM DUMPED FILE...M.J.BAILEY,1/31/65                    PAGE 4

      00065  3 00000 0 00573         PTH     LTPBF
      00066  3 00000 0 04123         PTH     =12
      00067  3 00000 0 00574         PTH     PHYSRC
      00070  3 00000 0 00575         PTH     NFLR
      00071  3 00000 0 00576         PTH     NLAST
      00072  0600 00 0 00601         STZ     TEMP
      00073 -0500 00 0 00571         CAL     OPREAM+11
      00074  0621 00 0 00601         STA     TEMP
      00075  0771 00 0 00022         ARS     18
      00076  0621 00 0 00577         STA     IREC
      00077  0500 00 0 00575         CLA     NFLR
      00100  0520 00 0 00576         ZET     NLAST
      00101  0400 00 0 04121         ADD     =1
      00102  0601 00 0 00600         STO     NREC
      00103  0402 00 0 00601         SUB     TEMP
      00104 -0100 00 0 00044         TNZ     FL
                              *
      00105  0500 00 0 00577         CLA     IREC          O.K.
      00106  0402 00 0 00600         SUB     NREC
      00107  0100 00 0 00111         TZE     *+2
      00110  0120 00 0 00044         TPL     FL            SKIP IF IREC .GR. NREC, PREAMBLE INVALID
                              *
      00111  0500 00 0 00577         CLA     IREC          THIS IS A LOGICAL RECORD
      00112  0402 00 0 04121         SUB     =1
      00113 -0100 00 0 00044         TNZ     FL            SPACE DOWN TO NEXT FILE IF NOT 1ST LOG.REC.
                              *
      00114                          MOVE    12,OPREAM,PREAM  THIS IS 1ST LOG.REC. IN FILE,AND WE WISH
      00114  0774 00 1 00014         AXT     12,1                                                             .001
      00115 -0500 00 1 00572         CAL     OPREAM+12,1                                                      .001
      00116  0602 00 1 75035         SLW     PREAM+12,1                                                       .001
      00117  2 00001 1 00115         TIX     *-2,1,1                                                          .001
      00120  0500 00 0 00570         CLA     OPREAM+10
      00121  0020 00 0 00130         TRA     OQC
                              *
                              * - - - - - - - - - - - - - - - - - - - - - - - - -
                              *      READ PREAMBLE OF 1ST DUMPED FILE OF LOAD FILE
                              * - - - - - - - - - - - - - - - - - - - - - - - - -
                              *
      00122  0500 00 0 75007  OQ     CLA     X
      00123  0400 00 0 04121         ADD     =1
      00124  0601 00 0 75007         STO     X
      00125  0601 00 0 00604         STO     Y
      00126  0600 00 0 00401         STZ     SOME
      00127  0020 00 0 00051         TRA     FLAB
                              *
                              *
      00130  0601 00 0 00625  OQC    STO     DWC
      00131  0500 00 0 75007         CLA     X
      00132  0400 00 0 04123         ADD     =12
      00133  0601 00 0 00604         STO     Y             Y=X+12
      00134  0500 00 0 00577         CLA     IREC
      00135  0402 00 0 00600         SUB     NREC
      00136 -0120 00 0 00141         TMI     *+3
      00137  0500 00 0 00625         CLA     DWC           (TRAILING ZEROS NOT INCLUDED IF
      00140  0020 00 0 00142         TRA     *+2            NOT A FULL LOGICAL RECORD)
      00141  0500 00 0 00573         CLA     LTPBF
1       'OPEN' DUMPED FILE/READ N WORDS FROM DUMPED FILE...M.J.BAILEY,1/31/65                    PAGE 5

      00142  0601 00 0 00626         STO     RWC           DATA WORD COUNT FOR LOGICAL RECORD
      00143  0074 00 4 00001         TSX     GETLSG,4
      00144  0074 00 4 00365         TSX     GSOME,4
                              *
                              *      READ IN THE DATA WORDS OF THE 1ST LOGICAL RECORD OF FILE
                              *
                              *
      00145  0074 00 4 00443         TSX     AREAD,4       READ IN RWC WORDS FROMPOSTN Y (=X+12)
 TD   00146  3 00000 0 00634         TXH     WBF
 TD   00147  3 00000 0 00626         TXH     RWC
      00150  0020 00 0 00161         TRA     ERTN          UNREAD, ERROR, SKIP
      00151  0020 00 0 00161         TRA     ERTN          READ ERROR, SKIP
      00152  0020 00 0 00160         TRA     REOF          TAPE EOF - SKIP
                              * - - - - - - - - - - - - - - - - - - - - -
                              *      RESTORE AND RETURN FROM OPENDF
                              * - - - - - - - - - - - - - - - - - - - - -
                              *
      00153  0774 00 4 00000  X4     AXT     **,4
      00154  0774 00 3 00000  X3     AXT     **,3
      00155  0774 00 2 00000  X2     AXT     **,2
      00156  0774 00 1 00000  X1     AXT     **,1
      00157  0020 00 4 00003         TRA     3,4           RETURN TO CALLER
                              *
      00160 -0625 00 0 75014  REOF   STL     TEOF          TAPE EOF RETURN
      00161  0534 00 4 00153  ERTN   LXA     X4,4          ERROR RETURN
      00162  0534 00 3 00154  IX3    LXA     X3,3
      00163  0534 00 2 00155         LXA     X2,2
      00164  0534 00 1 00156         LXA     X1,1
      00165  0020 60 4 00001         TRA*    1,4
                              *
                              * - - - - - - - - - - - - - - - - - - - - - - - - - - -
                              *      READ FROM DUMPED FILE ON TAPE N WORDS INTO ANAME ETC.
                              * - - - - - - - - - - - - - - - - - - - - - - - - - - -
                              *
      00166  0634 00 1 00270  RDF    SXA     DX1,1
      00167  0634 00 2 00267         SXA     DX2,2
      00170  0634 00 3 00266         SXA     DX3,3
      00171  0634 00 4 00265         SXA     DX4,4
      00172  0074 00 4 00001         TSX     GETLSG,4
      00173  0600 00 0 75014         STZ     TEOF
      00174  0534 00 4 00265         LXA     DX4,4
      00175  0500 00 4 00001         CLA     1,4
      00176  0621 00 0 00245         STA     RFF           ANAME
      00177  0771 00 0 00022         ARS     18            ADDRESS OF N
      00200  0621 00 0 00212         STA     RFA
      00201  0621 00 0 00215         STA     RFB
      00202  0500 00 0 00630         CLA     LEORRD
      00203  0621 00 0 00526         STA     ABNADD
      00204  0500 00 0 75042         CLA     ABANTP        TEST FOR OPRTR REQUESTED TAPE FILE ABANDON
      00205  0100 00 0 00211         TZE     *+4           SKIP IF NOT
      00206  0074 00 4 00006         TSX     WRFLX,4
      00207  0 00010 0 00615                 MESL,,8
      00210  0020 00 0 00526         TRA     EORABN        IF SO, SKIP
                              *
                              *      ENSURE THAT ONLY AS MANY WORDS AS ARE
                              *      LEFT IN THE DUMPED FILE GET READ.
1       'OPEN' DUMPED FILE/READ N WORDS FROM DUMPED FILE...M.J.BAILEY,1/31/65                    PAGE 6

                              *
      00211  0502 00 0 00625         CLS     DWC           NO. WDS. LEFT IN FILE
      00212  0400 00 0 00000  RFA    ADD     **            (N)
      00213  0100 00 0 00220         TZE     RFC
      00214  0120 00 0 00220         TPL     RFC           SKIP IF N LARGER THAN NO. WORDS IN FILE
      00215  0500 00 0 00000  RFB    CLA     **            (N)
      00216  0600 60 4 00004         STZ*    4,4           NO END TO FILE THIS TIME
      00217  0020 00 0 00222         TRA     RFD           SKIP
      00220  0500 00 0 00625  RFC    CLA     DWC           NO. OF WORDS LEFT IN FILE, IS
      00221  0601 60 4 00004         STO*    4,4           END (DUMPED) FILE WORD COUNT, AND
      00222  0734 00 3 00000  RFD    PAX     0,3           NO. OF WORDS TO BE RETURNED BY RDF
      00223  0601 00 0 00572         STO     NW1
      00224 -0520 00 0 00626         NZT     RWC
      00225  0020 00 0 00274         TRA     RFH           SKIP IF NOTHING LEFT IN BUFFER
                              *
                              *      MOVE UP TO A LOGICAL RECORD FULL OF WORDS TO CALLER'S AREA
                              *
      00226  0502 00 0 00626  RFDA   CLS     RWC           NO. OF WORDS LAST READ FROM LOGICAL REC.
      00227  0400 00 0 00572         ADD     NW1
      00230  0120 00 0 00233         TPL     *+3           SKIP IF NO. WORDS TO BE READ IS BIGGER
      00231  0500 00 0 00572         CLA     NW1           TOTAL NO. WORDS LEFT TO BE READ SMALLER
      00232  0020 00 0 00234         TRA     *+2           SKIP TO MOVE THAT NO. ONLY
      00233  0500 00 0 00626         CLA     RWC           ELSE USE NO. OF WORDS IN LOG. REC.
      00234  0601 00 0 00632         STO     T             SET NO. WORDS TO BE MOVED , = T
      00235  0734 00 1 00000         PAX     0,1
      00236  0400 00 0 00245         ADD     RFF           ANAME+........
      00237  0621 00 0 00245         STA     RFF           ANAME+........+T
      00240  0500 00 0 00632         CLA     T             T
      00241  0400 00 0 00631         ADD     LWBF          WBF
      00242  0400 00 0 00633         ADD     M             M
      00243  0621 00 0 00244         STA     RFE           WBF+M+T
                              *
      00244  0500 00 1 00000  RFE    CLA     **,1          (WBF+M+T)
      00245  0601 00 1 00000  RFF    STO     **,1          (ANAME + SUM OF ALL T'S)
      00246  2 00001 1 00244         TIX     RFE,1,1
                              *
                              *      DECREASE NO. WORDS LEFT IN FILE AND IN LOG. REC. BUFFER AND NO.
                              *      STILL NEEDED TO BE READ
                              *
      00247  0500 00 0 00625         CLA     DWC
      00250  0402 00 0 00632         SUB     T
      00251  0601 00 0 00625         STO     DWC
      00252  0500 00 0 00633         CLA     M
      00253  0400 00 0 00632         ADD     T
      00254  0601 00 0 00633         STO     M
      00255  0500 00 0 00626         CLA     RWC
      00256  0402 00 0 00632         SUB     T
      00257  0601 00 0 00626         STO     RWC
      00260  0500 00 0 00572         CLA     NW1
      00261  0402 00 0 00632         SUB     T
      00262  0601 00 0 00572         STO     NW1
      00263 -0100 00 0 00274         TNZ     RFH           SKIP IF MORE WORDS NEEDED
                              *
                              * - - - - - - - - - - - - - -
                              *      NORMAL RETURN FROM RDF
                              * - - - - - - - - - - - - - -
1       'OPEN' DUMPED FILE/READ N WORDS FROM DUMPED FILE...M.J.BAILEY,1/31/65                    PAGE 7

                              *
      00264  0074 00 4 00001         TSX     GETLSG,4
      00265  0774 00 4 00000  DX4    AXT     **,4
      00266  0774 00 3 00000  DX3    AXT     **,3
      00267  0774 00 2 00000  DX2    AXT     **,2
      00270  0774 00 1 00000  DX1    AXT     **,1
      00271  0520 60 4 00004         ZET*    4,4           TEST E.O.F. WORD COUNT
      00272  0020 60 4 00003         TRA*    3,4           EOF (IN DUMPED FILE) RETURN, IF NON-ZERO
      00273  0020 00 4 00006         TRA     6,4           NORMAL RETURN IF ZERO
                              *
                              *      READ IN ANOTHER LOGICAL RECORD FULL
                              *
      00274  0074 00 4 00001  RFH    TSX     GETLSG,4
      00275  0500 00 0 00577         CLA     IREC
      00276  0400 00 0 04121         ADD     =1
      00277  0601 00 0 00577         STO     IREC          INDEX OF NEXT LOGICAL RECORD
      00300  0402 00 0 00600         SUB     NREC          LAST LOG. RE. NO.
      00301 -0120 00 0 00304         TMI     *+3           SKIP IF NOT LAST LOG. REC.
      00302  0500 00 0 00625         CLA     DWC           LAST ONE, GET NO. WORDS LEFT IN FILE
      00303  0020 00 0 00305         TRA     *+2           SKIP
      00304  0500 00 0 00573         CLA     LTPBF         NOT LAST, GET SIZE OF A LOG. REC.
      00305  0601 00 0 00626         STO     RWC           FOR NO. OF DATA WORDS TO BE READ
      00306  0600 00 0 00633         STZ     M
      00307  0074 00 4 00365         TSX     GSOME,4
                              *
      00310  0500 00 0 75007  RFHA   CLA     X
      00311  0400 00 0 00603         ADD     LLR
      00312  0601 00 0 00604         STO     Y             MOVE Y TO START OF NEXT LOG. REC.
      00313  0601 00 0 75007         STO     X
                              *
      00314                          MOVE    12,OPREAM,PRPR
      00314  0774 00 1 00014         AXT     12,1                                                             .001
      00315 -0500 00 1 00572         CAL     OPREAM+12,1                                                      .001
      00316  0602 00 1 00556         SLW     PRPR+12,1                                                        .001
      00317  2 00001 1 00315         TIX     *-2,1,1                                                          .001
      00320  0074 00 4 00414         TSX     BREAD,4       READ PREAMBLE OF NEXT LOG. REC.
 TD   00321  3 00000 0 00556         TXH     OPREAM        AFTER MOVING 2ND COPY DOWN
 TD   00322  3 00000 0 04123         TXH     =12           TO X, AND SETTING X=Y.
      00323  0020 00 0 00357         TRA     DIX4          NOTHING READ
      00324  0020 00 0 00357         TRA     DIX4          READ ERROR
      00325  0020 00 0 00356         TRA     DIX47         TAPE EOF
                              *
      00326                          CMPWDS  11,OPREAM,PRPR,BADFIL
      00326  0774 00 1 00013         AXT     11,1                                                             .001
      00327 -0500 00 1 00571         CAL     OPREAM+11,1                                                      .001
      00330 -0340 00 1 00555         LAS     PRPR+11,1                                                        .001
      00331  0020 00 0 00352         TRA     BADFIL                                                           .001
      00332  0020 00 0 00334         TRA     *+2                                                              .001
      00333  0020 00 0 00352         TRA     BADFIL                                                           .001
      00334  2 00001 1 00327         TIX     *-5,1,1                                                          .001
                              *
      00335  0500 00 0 00571         CLA     OPREAM+11
      00336  0402 00 0 00555         SUB     PRPR+11
      00337  0100 00 0 00310         TZE     RFHA          IGNORE LOG.REC. IF SAME NO. AS LAST
                              *
      00340  0500 00 0 75007  RFI    CLA     X
1       'OPEN' DUMPED FILE/READ N WORDS FROM DUMPED FILE...M.J.BAILEY,1/31/65                    PAGE 8

      00341  0400 00 0 04123         ADD     =12
      00342  0601 00 0 00604         STO     Y             Y=X+12
                              *
      00343  0074 00 4 00443         TSX     AREAD,4       READ IN RWC DATA WORDS FROM
 TD   00344  3 00000 0 00634         TXH     WBF           POSTN. Y = X+12 OF TAPE FILE
 TD   00345  3 00000 0 00626         TXH     RWC
      00346  0020 00 0 00357         TRA     DIX4
      00347  0020 00 0 00357         TRA     DIX4
      00350  0020 00 0 00356         TRA     DIX47
                              *
      00351  0020 00 0 00226         TRA     RFDA          RETURN TO MOVE WORDS FROM BUFFER
                              *
      00352  0500 00 0 00401  BADFIL CLA     SOME
      00353 -0760 00 0 00003         SSM
      00354  0601 00 0 00401         STO     SOME
      00355  0020 00 0 00357         TRA     DIX4
                              *
                              *      ERROR RETURN FROM RDF
                              *
      00356 -0625 00 0 75014  DIX47  STL     TEOF
      00357  0074 00 4 00001  DIX4   TSX     GETLSG,4
      00360  0534 00 4 00265         LXA     DX4,4
      00361  0534 00 3 00266  DIX3   LXA     DX3,3
      00362  0534 00 2 00267         LXA     DX2,2
      00363  0534 00 1 00270         LXA     DX1,1
      00364  0020 60 4 00002         TRA*    2,4
                              *
      00365  0774 00 1 00001  GSOME  AXT     1,1
      00366  0500 00 0 00626         CLA     RWC
      00367  0400 00 0 04123         ADD     =12
      00370  0402 00 0 04124         SUB     =432
      00371 -0120 00 0 00374         TMI     *+3
      00372  0100 00 0 00374         TZE     *+2
      00373  1 00001 1 00370         TXI     *-3,1,1
      00374  0754 00 1 00000         PXA     ,1
      00375  0131 00 0 00000         XCA
      00376  0200 00 0 04124         MPY     =432
      00377 -0600 00 0 00401         STQ     SOME
      00400  0020 00 4 00001         TRA     1,4
                              *
      00401  0 00000 0 00000  SOME   PZE
                              *
                              * - - - - - - - - - - - - - - - - - - - - - - - - - - - - - - - - -
                              *      BASIC READ - SKIP 2ND COPY DOWN TO X, SET X=Y, READ FROM MAIN
                              *       COPY, POSITION Y, INTO (1,4), A NO. OF WORDS GIVEN BY (2,4).
                              * - - - - - - - - - - - - - - - - - - - - - - - - - - - - - - - - -
                              *
      00402  0634 00 4 00410  CHERR  SXA     CH4,4
      00403  0074 00 4 00003         TSX     IODIAG,4
      00404  3 00007 0 00533         TXH     ERAY,,7
      00405 -0500 00 0 00536         CAL     ERAY+3
      00406  0402 00 0 04122         SUB     =6
      00407  0100 00 0 00412         TZE     ANYEOF
      00410  0774 00 4 00000  CH4    AXT     **,4
      00411  0020 00 4 00002         TRA     2,4
      00412  0534 00 4 00410  ANYEOF LXA     CH4,4
1       'OPEN' DUMPED FILE/READ N WORDS FROM DUMPED FILE...M.J.BAILEY,1/31/65                    PAGE 9

      00413  0020 60 4 00001         TRA*    1,4
                              *
                              *
      00414  0634 00 4 00504  BREAD  SXA     BRX4,4
      00415  0500 00 4 00001         CLA     1,4
      00416  0621 00 0 00455         STA     BRE
      00417  0621 00 0 00500         STA     BRI
      00420  0500 60 4 00002         CLA*    2,4
      00421  0601 00 0 00605         STO     NWORDS
      00422                          SKIFNB  AREADA        SKIP IF NO 2ND TAPE COPY
      00422  0500 00 0 75041         CLA     NOCHAN                                                           .001
      00423  0402 00 0 04121         SUB     =1                                                               .001
      00424  0100 00 0 00451         TZE     AREADA                                                           .001
                              *
      00425  0074 00 4 00004         TSX     RDFILE,4
      00426  3 00000 0 75020         PTH     BFNA
      00427  3 00000 0 75017         PTH     BFNB
      00430  3 00000 0 75007         PTH     X
      00431  3 00001 0 00601         PTH     TEMP,,1
      00432  3 00000 0 00515         PTH     BRM
      00433  3 00000 0 00601         PTH     TEMP
      00434  3 00000 0 00436         PTH     BRB
      00435  0020 00 0 00451         TRA     AREADA
                              *
      00436  0074 00 4 00402  BRB    TSX     CHERR,4
 TD   00437  3 00000 0 00515         TXH     BRM
      00440                          PRM     MESK,7
      00440  0074 00 4 00006         TSX     WRFLX,4                                                          .001
      00441  0 00007 0 00606                 MESK,,7                                                          .001
      00442  0020 00 0 00451         TRA     AREADA
                              *
                              *      READ FROM MAIN COPY, POSITION Y, INTO (1,4) ET SEQ, (2,4) WORDS
                              *
      00443  0634 00 4 00504  AREAD  SXA     BRX4,4
      00444  0500 00 4 00001         CLA     1,4
      00445  0621 00 0 00455         STA     BRE
      00446  0621 00 0 00500         STA     BRI
      00447  0500 60 4 00002         CLA*    2,4
      00450  0601 00 0 00605         STO     NWORDS
      00451  0074 00 4 00002  AREADA TSX     RDWAIT,4
 TD   00452  3 00000 0 75036         TXH     LFNA
 TD   00453  3 00000 0 75035         TXH     LFNB
 TD   00454  3 00000 0 00604         TXH     Y
      00455  2 00605 0 00000  BRE    TIX     **,,NWORDS
 TD   00456  3 00000 0 00515         TXH     BRM
 TD   00457  3 00000 0 75014         TXH     TEOF
 TD   00460  3 00000 0 00463         TXH     BRF
      00461  0074 00 4 00001         TSX     GETLSG,4
      00462  0020 00 0 00504         TRA     BRX4
                              *
      00463  0074 00 4 00402  BRF    TSX     CHERR,4
 TD   00464  3 00000 0 00515         TXH     BRM
                              *
                              *      ERROR, TRY TO READ FROM SECONDARY COPY INSTEAD OF MAIN ONE
                              *
      00465                          SKIFNB  BRK           SKIP IF NO 2ND TAPE COPY
1       'OPEN' DUMPED FILE/READ N WORDS FROM DUMPED FILE...M.J.BAILEY,1/31/65                    PAGE 10

      00465  0500 00 0 75041         CLA     NOCHAN                                                           .001
      00466  0402 00 0 04121         SUB     =1                                                               .001
      00467  0100 00 0 00510         TZE     BRK                                                              .001
      00470  0074 00 4 00005         TSX     FWAIT,4       WAIT ON I/O.
 TD   00471  3 00000 0 75020         TXH     BFNA
 TD   00472  3 00000 0 75017         TXH     BFNB
 TD   00473  3 00000 0 00474         TXH     *+1
      00474  0074 00 4 00002         TSX     RDWAIT,4
 TD   00475  3 00000 0 75020         TXH     BFNA
 TD   00476  3 00000 0 75017         TXH     BFNB
 TD   00477  3 00000 0 00604         TXH     Y
      00500  2 00605 0 00000  BRI    TIX     **,,NWORDS
 TD   00501  3 00000 0 00515         TXH     BRM
 TD   00502  3 00000 0 75014         TXH     TEOF
 TD   00503  3 00000 0 00506         TXH     BRJ
      00504  0774 00 4 00000  BRX4   AXT     **,4
      00505  0020 00 4 00006         TRA     6,4
                              *
      00506  0074 00 4 00402  BRJ    TSX     CHERR,4
 TD   00507  3 00000 0 00515         TXH     BRM
      00510  0074 00 4 00007  BRK    TSX     $PRNTER,4
      00511  0534 00 4 00504         LXA     BRX4,4
      00512  0020 00 4 00004         TRA     4,4
                              *
      00513  0534 00 4 00504  BRLA   LXA     BRX4,4
      00514  0020 00 4 00005         TRA     5,4
                              *
      00515  0074 00 4 00010  BRM    TSX     $TSTEOF,4     END OF REEL
      00516  0020 00 0 00526         TRA     ABNADD        ABANDON TAPE FILE
      00517  0020 00 0 00521         TRA     *+2           ERROR
      00520  0020 00 0 00513         TRA     BRLA          END OF FILE (LAST REEL)
      00521  0500 00 0 00574         CLA     PHYSRC        END OF REEL, REELS CHANGED
      00522  0400 00 0 04121         ADD     =1
      00523  0601 00 0 75007         STO     X
      00524  0601 00 0 00604         STO     Y
      00525  0020 00 0 00451         TRA     AREADA
                              *
                       00526  EORABN EQU     *
      00526  0020 00 0 00000  ABNADD TRA     **            (OPENDF OR RDF RETURN)
                              *
      00527  0534 00 4 00153  EORAB1 LXA     X4,4          OPENDF RETURN
      00530  1 77777 4 00162         TXI     IX3,4,-1      GO RETURN VIA (2,4)
                              *
      00531  0534 00 4 00265  EORAB2 LXA     DX4,4         RDF RETURN
      00532  1 77775 4 00361         TXI     DIX3,4,-3     GO RETURN VIA (5,4)
                              *
                              * - - - - - - - - - - - - - - - - - - - - - - - - - - - -
                              *      CONSTANTS, VARIABLES, ETC.
                              * - - - - - - - - - - - - - - - - - - - - - - - - - - - -
                              *
      00533                   ERAY   BSS     7
      00542                   PRPR   BSS     12
      00556                   OPREAM BSS     12
      00572  0 00000 0 00000  NW1    PZE
      00573  0 00000 0 03264  LTPBF  PZE     4*432-12
      00574  0 00000 0 00660  PHYSRC PZE     432
1       'OPEN' DUMPED FILE/READ N WORDS FROM DUMPED FILE...M.J.BAILEY,1/31/65                    PAGE 11

      00575  0 00000 0 00000  NFLR   PZE
      00576  0 00000 0 00000  NLAST  PZE
      00577  0 00000 0 00000  IREC   PZE
      00600  0 00000 0 00000  NREC   PZE
      00601                   TEMP   BSS     2
      00603  0 00000 0 03300  LLR    PZE     4*432
      00604  0 00000 0 00000  Y      PZE
      00605  0 00000 0 00000  NWORDS PZE
      00606  606225234645     MESK   BCI     7, SECONDARY COPY NOT MOVED DOWN THIS TIME.
      00615  606321472560     MESL   BCI     8, TAPE FILE WILL BE ABANDONED, PUT KEY UP AGAIN.
      00625  0 00000 0 00000  DWC    PZE
      00626  0 00000 0 00000  RWC    PZE
      00627  0 00000 0 00527  LEOROP PZE     EORAB1
      00630  0 00000 0 00531  LEORRD PZE     EORAB2
      00631  0 00000 0 00634  LWBF   PZE     WBF
      00632  0 00000 0 00000  T      PZE
      00633  0 00000 0 00000  M      PZE
      00634                   WBF    BSS     4*432-12
                                     INSERT  BCMEQB
                              *
                              *  -  -  -  -  -  -  -  -  -  -  -  -  -  -  -  -  -  -
                              *      COMMON AND EQUIVALENCE FOR SECONDARY STORAGE LOAD
                              *         (TIME-SHARING VERSION)
                              *  -  -  -  -  -  -  -  -  -  -  -  -  -  -  -  -  -  -
                              *
                      075045  DEMKEY BOOL    75045         CORE A LOCATION FOR DAEMON KEY SETTING
                              *
                      000017  BASE   BOOL    17            KEY CODE BASE
                      000001  CTINUE BOOL    1             KEY CODE TO CONTINUE WITH PROGRAM,NO CHANGE
                      000002  PAUSE  BOOL    2             KEY CODE TO WAIT 60 SECS.
                      000003  CHLDFL BOOL    3             KEY CODE TO USE DIFFERENT LOAD FILE
                      000004  STOPLD BOOL    4             KEY CODE TO STOP LOADING, START DUMPING
                      000005  ABANKY BOOL    5             KEY CODE TO ABANDON LOAD TAPE FILE
                      000006  SWCHAN BOOL    6             KEY CODE TO GO FROM 1 OR 2 TO 2 OR 1 CHANS.
                      000007  LSREEL BOOL    7             KEY CODE TO INDICATE LAST REEL OF LOAD FILE
                      000010  CHREEL BOOL    10            KEY CODE TO CORRECT REEL ORDER ERROR
                       77777  NEWCOM EQU     -1            TOP OF MEMORY
                      077461  OLDCOM BOOL    77461         OLD TOP OF COMMON
                       77462  COMRLC EQU     OLDCOM-NEWCOM RELOCATION FACTOR
                       77777         COMMON  COMRLC        RELOCATE COMMON
                       01355  UF     EQU     32767/2-DEMKEY/2 LENGTH OF USER LIST
                       77777  UFL    COMMON  2*UF          USER FILE LIST  (1ST PARTS OF FILE NAMES)
                       75044         COMMON  1             INSERT DUMMY IF NECESSARY
                       75043         COMMON  1             DEMKEY CELL IN NON-CTSS VERSION
                       75043  KEYVAL COMMON  1
                       75042  ABANTP COMMON  1             ABANDON TAPE FILE INDICATOR
                       75041  NOCHAN COMMON  1             NO. OF CHANNELS BEING READ (1 OR 2)
                       75040  DU     COMMON  1             PROBLEM NO. OF DUMP/LOAD PACKAGE
                       75037  DP     COMMON  1             PROGRAMMER NO. OF DITTO.
                       75036  LFNA   COMMON  1             LOAD TAPE FILE NAME (PART 1)
                       75035  LFNB   COMMON  1              ,,   ,,   ,,   ,,  (PART 2)
                       75021         COMMON  11            DUMPED FILE'S PREAMBLE FROM DUMP TAPE
                       75021  PREAM  COMMON  1             DUMPED FILE'S DUMP TAPE PREAMBLE 1ST WORD
                       75020  BFNA   COMMON  1             CHANNEL B LOAD TAPE FILE NAME (PART 1)
                       75017  BFNB   COMMON  1             CHANNEL B LOAD TAPE FILE NAME (PART 2)
                       75016  AUN    COMMON  1             CHANNEL A UNIT NO.
1       'OPEN' DUMPED FILE/READ N WORDS FROM DUMPED FILE...M.J.BAILEY,1/31/65                    PAGE 12

                       75015  BUN    COMMON  1             CHANNEL B UNIT NO.
                       75014  TEOF   COMMON  1             TAPE EOF INDICATOR/WORD COUNT
                       75010         COMMON  3             LABEL OF TAPE FILE CURRENTLY BEING LOADED
                       75010  LABEL  COMMON  1             LABEL OF TAPE FILE DITTO.   1ST WORD
                       75007  X      COMMON  1             TAPE FILE POINTER
                                     END

1       'OPEN' DUMPED FILE/READ N WORDS FROM DUMPED FILE...M.J.BAILEY,1/31/65                    PAGE 1
                        POST PROCESSOR ASSEMBLY DATA

       75006 IS THE LAST LOCATION NOT USED BY THIS PROGRAM
       4125 IS THE FIRST LOCATION NOT USED BY THIS PROGRAM

0REFERENCES TO DEFINED SYMBOLS
        633      M    17,  242,  252,  254,  306
        632      T   234,  240,  250,  253,  256,  261
      75007      X    31,   37,   41,   45,   47,  122,  124,  131,  310,  313,  340,  430,  523, 4120
        604      Y    42,   50,  125,  133,  312,  342,  454,  477,  524
      75037     DP  4120
      75040     DU  4120
         44     FL    44,   60,  104,  110,  113
        122     OQ    34
       1355     UF  4120
        156     X1    13,  164
        155     X2    14,  163
        154     X3    15,  162
        153     X4    16,  161,  527
      75016    AUN  4120
        436    BRB   434
        455    BRE   416,  445
        463    BRF   460
        500    BRI   417,  446
        506    BRJ   503
        510    BRK   467
        515    BRM   432,  437,  456,  464,  501,  507
      75015    BUN  4120
        410    CH4   402,  412
        625    DWC   130,  137,  211,  220,  247,  251,  302
        270    DX1   166,  363
        267    DX2   167,  362
        266    DX3   170,  361
        265    DX4   171,  174,  360,  531
         44    FLA    54,   55
        162    IX3   530
        603    LLR   311
        572    NW1   223,  227,  231,  260,  262
        130    OQC   121
        166    RDF     0
        212    RFA   200
        215    RFB   201
        220    RFC   213,  214
        222    RFD   217
        244    RFE   243,  246
        245    RFF   176,  236,  237
        274    RFH   225,  263
        340    RFI
        626    RWC   142,  147,  224,  226,  233,  255,  257,  305,  345,  366
      77777    UFL  4120
        634    WBF   146,  344,  631
         17   BASE  4120
      75020   BFNA   426,  471,  475, 4120
      75017   BFNB   427,  472,  476, 4120
        513   BRLA   520
        504   BRX4   414,  443,  462,  511,  513
1       'OPEN' DUMPED FILE/READ N WORDS FROM DUMPED FILE...M.J.BAILEY,1/31/65                    PAGE 2
                        POST PROCESSOR ASSEMBLY DATA

        361   DIX3   532
        357   DIX4   323,  324,  346,  347,  355
        533   ERAY   404,  405
        161   ERTN    33,  150,  151
         51   FLAB   127
        577   IREC    76,  105,  111,  134,  275,  277
         57   JUMP    36
      75036   LFNA   452, 4120
      75035   LFNB   453, 4120
        631   LWBF   241
        606   MESK   441
        615   MESL    27,  207
        575   NFLR    70,   77
        600   NREC   102,  106,  135,  300
        542   PRPR   316,  330,  336
        160   REOF    56,  152
        226   RFDA   351
        310   RFHA   337
        401   SOME    35,   40,  126,  352,  354,  377
        601   TEMP    72,   74,  103,  431,  433
      75014   TEOF    20,  160,  173,  356,  457,  502, 4120
        443  AREAD   145,  343
        414  BREAD    51,  320
        402  CHERR   436,  463,  506
        356  DIX47   325,  350
          5  FWAIT   470
        365  GSOME   144,  307
      75010  LABEL  4120
        573  LTPBF    65,  141,  304
        576  NLAST    71,  100
          0  NLREC    61
          2  PAUSE  4120
      75021  PREAM   116, 4120
          6  WRFLX    26,  206,  440
          5 ABANKY  4120
      75042 ABANTP    24,  204, 4120
        526 ABNADD    22,  203,  516
        412 ANYEOF   407
        451 AREADA   424,  435,  442,  525
        352 BADFIL   331,  333
          3 CHLDFL  4120
         10 CHREEL  4120
      77462 COMRLC  4120
          1 CTINUE  4120
      75045 DEMKEY  4120
        527 EORAB1   627
        531 EORAB2   630
        526 EORABN    30,  210,  526
          1 GETLSG    23,   44,  143,  172,  264,  274,  357,  461
          3 IODIAG   403
      75043 KEYVAL  4120
        627 LEOROP    21
        630 LEORRD   202
          7 LSREEL  4120
      77777 NEWCOM  4120
1       'OPEN' DUMPED FILE/READ N WORDS FROM DUMPED FILE...M.J.BAILEY,1/31/65                    PAGE 3
                        POST PROCESSOR ASSEMBLY DATA

      75041 NOCHAN   422,  465, 4120
        605 NWORDS   421,  450,  455,  500
      77461 OLDCOM  4120
         13 OPENDF     0
        556 OPREAM    52,   57,   64,   73,  115,  120,  315,  321,  327,  335
        574 PHYSRC    32,   46,   67,  521
          7 PRNTER   510
          4 RDFILE   425
          2 RDWAIT   451,  474
          4 STOPLD  4120
          6 SWCHAN  4120
         10 TSTEOF   515

0 NO ERROR IN ABOVE ASSEMBLY.


LINTTB   BCD 01/12/68 1016.3   12458         00000
1       INITIATE AND TERMINATE DUMP TAPE FILE READS.....M.J.BAILEY..1/31/65                      PAGE 1

                              *           (TIME-SHARING VERSION)
                              *
                       00022         ENTRY   INITTF
                       00403         ENTRY   TERMTF
                       00437         ENTRY   TSTEOF
                              *
                                     EXTERN  GETLSG,IOBDT
                                     EXTERN  ATTACH
                                     EXTERN  ATTNAM
                                     EXTERN  RDWAIT,FWAIT
                                     EXTERN  VERIFY,BUFFER,OPEN,SLEEP
                                     EXTERN  MOUNT,UMOUNT,CLOSE,WRFLX
                              *
                                     INSERT  BMCRSC
                              *
                              *  ZERO-IZE A THROUGH A+X-1
                              *
                               CLEAR MACRO   A,X
                                     AXT     X,1
                                     STZ     A+X,1
                                     TIX     *-1,1,1
                               CLEAR END
                              *
                              *      MOVE X WORDS FROM A ET SEQ TO B ET SEQ
                              *
                               MOVE  MACRO   X,A,B
                                     AXT     X,1
                                     CAL     A+X,1
                                     SLW     B+X,1
                                     TIX     *-2,1,1
                               MOVE  END
                              *
                              *  PRINT ONE LINE COMMENT
                              *
                              PRLINE MACRO   COMNT,NWC,LOC
                                     TSX     WRFLX,4
                                             LOC,,NWC
                                     RMT
                               LOC   BCI     NWC,COMNT
                                     RMT
                              PRLINE END
                              *
                              *
                              *      EXECUTE INST. IN CORE A
                              *
                              *
                              EXEC   MACRO   OPC,ADD
                                     TSX     $GETA,7
                                     OPC     ADD
                              EXEC   END
                              *
                              *      GET KEY SETTING VIA SUPERVISOR, SET ABANTP, NOCHAN IF APPROPRIATE
                              *
                              GETSIG MACRO
                                     TSX     GETLSG,4
                              GETSIG END
1       INITIATE AND TERMINATE DUMP TAPE FILE READS.....M.J.BAILEY..1/31/65                      PAGE 2

                              *
                              *      TEST WHETHER 2ND TAPE COPY IS NEEDED, IF NOT GO TO SKIP
                              *
                              SKIFNB MACRO   SKIP
                                     CLA     NOCHAN
                                     SUB     =1
                                     TZE     SKIP
                              SKIFNB END
                              *
                              *      PRINT AN N-WORD MESSAGE FROM  MESSGE
                              *
                              PRM    MACRO   MESSGE,N
                                     TSX     WRFLX,4
                                             MESSGE,,N
                              PRM    END
                              *
                              *      COMPARE 2 SETS OF N CONSECUTIVE WORDS IN A ETC., AND B ETC. ,
                              *      AND IF THEY DO NOT ALL MATCH, GO TO NF, OR OTHERWISE CONTINUE.
                              *
                              CMPWDS MACRO   N,A,B,NF
                                     AXT     N,1
                                     CAL     A+N,1
                                     LAS     B+N,1
                                     TRA     NF
                                     TRA     *+2
                                     TRA     NF
                                     TIX     *-5,1,1
                              CMPWDS END
                              *
                              *      WAIT FOR I/O ON FILE (A,B) TO END, GO TO E IF ERROR OCCURRED
                              *
                              WAIT   MACRO   A,B,E
                                     TSX     FWAIT,4
                                     PTH     A
                                     PTH     B
                                     PTH     E
                              WAIT   END
                              *
                              *      CLOSE THE FILE (A,B)
                              *
                              CLOSE  MACRO   A,B
                                     TSX     CLOSE,4
                                     PTH     A
                                     PTH     B
                              CLOSE  END
                              *
                              * - - - - - - - - - - - - - - - - - - - - - - - - - - - - - -
                              *      INITIATE DUMP TAPE FILE READ (OPEN, AND READ I.D
                              *       LABELS FROM BOTH COPIES, AND CHECK THEY MATCH)
                              * - - - - - - - - - - - - - - - - - - - - - - - - - - - - - -
                              *

      00000  272563436227     GETLSG
      00001  314622246360     IOBDT
      00002  216363212330     ATTACH
      00003  216363452144     ATTNAM
1       INITIATE AND TERMINATE DUMP TAPE FILE READS.....M.J.BAILEY..1/31/65                      PAGE 3

      00004  512466213163     RDWAIT
      00005  266621316360     FWAIT
      00006  652551312670     VERIFY
      00007  226426262551     BUFFER
      00010  464725456060     OPEN
      00011  624325254760     SLEEP
      00012  444664456360     MOUNT
      00013  644446644563     UMOUNT
      00014  234346622560     CLOSE
      00015  665126436760     WRFLX
      00016  475145632551     PRNTER
      00017  216242464751     ASKOPR


      00022  0634 00 1 00401  INITTF SXA     X1,1
      00023  0634 00 2 00400         SXA     X2,2
      00024  0634 00 3 00377         SXA     X3,3
      00025  0634 00 4 00376         SXA     X4,4
      00026  0074 00 4 00000         TSX     GETLSG,4
      00027                          SKIFNB  IA            SKIP IF ONLY ONE TAPE COPY
      00027  0500 00 0 75041         CLA     NOCHAN                                                           .001
      00030  0402 00 0 03265         SUB     =1                                                               .001
      00031  0100 00 0 00077         TZE     IA                                                               .001
                              *
                              *      VERIFY THAT 2ND CHANNEL HAS CORRECT DUPLICATE MOUNTED
                              *
      00032  0774 00 2 00012         AXT     10,2
      00033  0074 00 4 00006  CHCKBA TSX     VERIFY,4
 TD   00034  3 00000 0 75015         TXH     BUN
      00035  3 00004 0 75010         TXH     LABEL,,4
 TD   00036  3 00000 0 00041         TXH     CHCKBB        ERROR
 TD   00037  3 00000 0 01014         TXH     ERCODE
      00040  0020 00 0 00077         TRA     IA            SKIP IF OTHER CHANNEL O.K.
                              *
      00041  0074 00 4 00016  CHCKBB TSX     $PRNTER,4
      00042  0500 00 0 01014         CLA     ERCODE
      00043  0402 00 0 03267         SUB     =7
      00044 -0100 00 0 00070         TNZ     CHCKBD        SKIP IF NOT INCORRECT-LABEL ERROR
      00045  2 00002 2 00033         TIX     CHCKBA,2,2    TRY 5 TIMES IF LABEL IS INCORRECT
                              *
      00046  0074 00 4 00013  WRONGB TSX     UMOUNT,4      IF STILL WRONG UNMOUNT THIS TAPE
 TD   00047  3 00000 0 75015         TXH     BUN
      00050  2 01103 0 01067         TIX     WRNGT2,,LWT2
      00051  0074 00 4 00017  CHCKBC TSX     $ASKOPR,4
      00052  3 00006 0 01035         PTH     MESC,,6
      00053  3 00001 0 00063         PTH     CONT,,CTINUE
      00054  3 00006 0 01043         PTH     MESD,,6
      00055  3 00003 0 00075         PTH     QUITFL,,CHLDFL
      00056  3 00006 0 01051         PTH     MESE,,6
      00057  3 00002 0 00060         PTH     REST,,PAUSE
                              *
      00060 -0500 00 0 03271  REST   CAL     =45
      00061  0074 00 4 00011         TSX     SLEEP,4
      00062  0020 00 0 00051         TRA     CHCKBC
      00063  0074 00 4 00012  CONT   TSX     MOUNT,4       MOUNT ANOTHER ON 2ND CHANNEL
 TD   00064  3 00000 0 03266         TXH     =2
1       INITIATE AND TERMINATE DUMP TAPE FILE READS.....M.J.BAILEY..1/31/65                      PAGE 4

 TD   00065  3 00000 0 75015         TXH     BUN
      00066  2 01113 0 01104         TIX     RMT2,,LRMT2
      00067  0020 00 0 00032         TRA     CHCKBA-1      AND RE-VERIFY
                              *
      00070  2 00001 2 00033  CHCKBD TIX     CHCKBA,2,1    TRY 10 TIMES IF SOME OTHER ERROR
      00071  0074 00 4 00013         TSX     UMOUNT,4      THEN UNMOUNT THIS TAPE
 TD   00072  3 00000 0 75015         TXH     BUN
      00073  2 01132 0 01114         TIX     BADT2,,LBT2
      00074  0020 00 0 00051         TRA     CHCKBC        THEN GO STOP TO SEE WHAT NEXT
                              *
                       00075  QUITFL EQU     *             TO ABANDON THIS TAPE FILE,
      00075  0534 00 4 00376  ABEXT  LXA     X4,4
      00076  1 00001 4 00377         TXI     X3,4,1        THEN GO EXIT VIA 1,4
                              *
                              *      OPEN TAPE FILE 1ST COPY AND READ ITS I.D.
                              *
      00077  0774 00 2 00012  IA     AXT     10,2
      00100  0074 00 4 00010  IAA    TSX     OPEN,4
 TD   00101  3 00000 0 01013         TXH     R
 TD   00102  3 00000 0 75036         TXH     LFNA
 TD   00103  3 00000 0 75035         TXH     LFNB
 TD   00104  3 00000 0 03273         TXH     =-0
 TD   00105  3 00000 0 03273         TXH     =-0
 TD   00106  3 00000 0 00162         TXH     ID            ERROR
                              *
      00107  0074 00 4 00007         TSX     BUFFER,4      ASSIGN BUFFERS
 TD   00110  3 00000 0 75036         TXH     LFNA
 TD   00111  3 00000 0 75035         TXH     LFNB
      00112  2 01015 0 01410         TIX     IB1,,LIB
      00113 -0500 00 0 03265         CAL     =1
      00114  0602 00 0 75007         SLW     X
                              *
      00115  0774 00 3 00066         AXT     RECSIZ/8,3
      00116  0074 00 4 00004  IB     TSX     RDWAIT,4      READ I.D. RECORD LABEL
 TD   00117  3 00000 0 75036         TXH     LFNA
 TD   00120  3 00000 0 75035         TXH     LFNB
 TD   00121  3 00000 0 75007         TXH     X
      00122  3 00010 0 02270         TXH     WBF,,8
 TD   00123  3 00000 0 00200         TXH     IE            EOF, ERROR
 TD   00124  3 00000 0 75014         TXH     TEOF
 TD   00125  3 00000 0 00136         TXH     IC
      00126  0074 00 4 00000         TSX     GETLSG,4
      00127  0600 00 0 01012         STZ     IDERR         I.D. LABEL READ O.K., SKIP TO DO 2ND COPY
      00130                          MOVE    8,WBF,TAPEID
      00130  0774 00 1 00010         AXT     8,1                                                              .001
      00131 -0500 00 1 02300         CAL     WBF+8,1                                                          .001
      00132  0602 00 1 02324         SLW     TAPEID+8,1                                                       .001
      00133  2 00001 1 00131         TIX     *-2,1,1                                                          .001
      00134  0600 00 0 02324         STZ     TAPEID+8
      00135  0020 00 0 00206         TRA     IG
                              *
      00136  0074 00 4 00016  IC     TSX     $PRNTER,4     READ ERROR
      00137  0500 00 0 75007         CLA     X
      00140  0400 00 0 03270         ADD     =8
      00141  0601 00 0 75007         STO     X
      00142  2 00001 3 00116         TIX     IB,3,1        TRY AGAIN AT NEXT REPETITION OF LABEL
1       INITIATE AND TERMINATE DUMP TAPE FILE READS.....M.J.BAILEY..1/31/65                      PAGE 5

      00143                          PRM     MESA,8        I.D. IS UNREAD,
      00143  0074 00 4 00015         TSX     WRFLX,4                                                          .001
      00144  0 00010 0 01020                 MESA,,8                                                          .001
      00145  0074 00 4 00017  BACK   TSX     $ASKOPR,4
      00146  3 00006 0 01035         PTH     MESC,,6
      00147  3 00001 0 00157         PTH     CONT1,,CTINUE
      00150  3 00006 0 01043         PTH     MESD,,6
      00151  3 00003 0 00075         PTH     QUITFL,,CHLDFL
      00152  3 00006 0 01051         PTH     MESE,,6
      00153  3 00002 0 00154         PTH     REST1,,PAUSE
                              *
      00154 -0500 00 0 03271  REST1  CAL     =45
      00155  0074 00 4 00011         TSX     SLEEP,4
      00156  0020 00 0 00145         TRA     BACK
                              *
      00157  0500 00 0 03265  CONT1  CLA     =1            OR CONTINUE WITHOUT CHECKING I.D.'S
      00160  0601 00 0 01012         STO     IDERR
      00161  0020 00 0 00206         TRA     IG
                              *
      00162                   ID     PRM     MESB,5        ERROR OPENING FILE
      00162  0074 00 4 00015         TSX     WRFLX,4                                                          .001
      00163  0 00005 0 01030                 MESB,,5                                                          .001
      00164  0074 00 4 00016         TSX     $PRNTER,4
      00165  2 00001 2 00100  IDA    TIX     IAA,2,1       TRY 10 TIMES TO OPEN
      00166  0074 00 4 00017  BACK1  TSX     $ASKOPR,4
      00167  3 00006 0 01035         PTH     MESC,,6
      00170  3 00001 0 00077         PTH     IA,,CTINUE
      00171  3 00006 0 01043         PTH     MESD,,6
      00172  3 00003 0 00075         PTH     QUITFL,,CHLDFL
      00173  3 00006 0 01051         PTH     MESE,,6
      00174  3 00002 0 00175         PTH     REST2,,PAUSE
                              *
      00175 -0500 00 0 03271  REST2  CAL     =45
      00176  0074 00 4 00011         TSX     SLEEP,4
      00177  0020 00 0 00166         TRA     BACK1
                              *
      00200                   IE     PRM     MESF,8        EOF IN WRONG PLACE
      00200  0074 00 4 00015         TSX     WRFLX,4                                                          .001
      00201  0 00010 0 01057                 MESF,,8                                                          .001
      00202                          CLOSE   LFNA,LFNB
      00202  0074 00 4 00014         TSX     CLOSE,4                                                          .001
      00203  3 00000 0 75036         PTH     LFNA                                                             .001
      00204  3 00000 0 75035         PTH     LFNB                                                             .001
      00205  0020 00 0 00165         TRA     IDA           TRY TEN TIMES TO NOT GET ONE
                              *
                              *
                              *      OPEN TAPE FILE 2ND COPY, READ ITS I.D. LABEL
                              *
      00206                   IG     SKIFNB  IS
      00206  0500 00 0 75041         CLA     NOCHAN                                                           .001
      00207  0402 00 0 03265         SUB     =1                                                               .001
      00210  0100 00 0 00350         TZE     IS                                                               .001
      00211  0774 00 2 00012         AXT     10,2
      00212  0074 00 4 00010  IH     TSX     OPEN,4
 TD   00213  3 00000 0 01013         TXH     R
 TD   00214  3 00000 0 75020         TXH     BFNA
1       INITIATE AND TERMINATE DUMP TAPE FILE READS.....M.J.BAILEY..1/31/65                      PAGE 6

 TD   00215  3 00000 0 75017         TXH     BFNB
 TD   00216  3 00000 0 03273         TXH     =-0
 TD   00217  3 00000 0 03273         TXH     =-0
 TD   00220  3 00000 0 00272         TXH     IK            ERROR
                              *
      00221  0074 00 4 00007         TSX     BUFFER,4      ASSIGN BUFFER
 TD   00222  3 00000 0 75020         TXH     BFNA
 TD   00223  3 00000 0 75017         TXH     BFNB
      00224  2 01015 0 02325         TIX     IB2,,LIB
      00225 -0500 00 0 03265         CAL     =1
      00226  0602 00 0 75007         SLW     X
                              *
      00227  0774 00 3 00066         AXT     RECSIZ/8,3
      00230  0074 00 4 00004  II     TSX     RDWAIT,4      READ I.D. RECORD LABEL
 TD   00231  3 00000 0 75020         TXH     BFNA
 TD   00232  3 00000 0 75017         TXH     BFNB
 TD   00233  3 00000 0 75007         TXH     X
      00234  2 01017 0 02300         TIX     WBF+8,,L8
 TD   00235  3 00000 0 00310         TXH     IM            EOF, ERROR
 TD   00236  3 00000 0 75014         TXH     TEOF
 TD   00237  3 00000 0 00243         TXH     IJ
      00240 -0520 00 0 01012         NZT     IDERR         I.D. READ O.K.
      00241  0020 00 0 00320         TRA     IO            SKIP TO COMPARE IF BOTH READ
      00242  0020 00 0 00342         TRA     IR            OR CARRY ON WITH NO CHECK
                              *
      00243  0074 00 4 00016  IJ     TSX     $PRNTER,4
      00244  0500 00 0 75007         CLA     X
      00245  0400 00 0 03270         ADD     =8
      00246  0601 00 0 75007         STO     X
      00247  2 00001 3 00230         TIX     II,3,1        TRY TO READ AGAIN AT REPETITION OF LABEL
      00250 -0500 00 0 03275         CAL     =H ON 2N
      00251  0602 00 0 01022         SLW     MESA+2
      00252 -0500 00 0 03272         CAL     =HD COPY
      00253  0602 00 0 01023         SLW     MESA+3
      00254                          PRM     MESA,8
      00254  0074 00 4 00015         TSX     WRFLX,4                                                          .001
      00255  0 00010 0 01020                 MESA,,8                                                          .001
      00256  0520 00 0 01012         ZET     IDERR
      00257  0020 00 0 00075         TRA     QUITFL        ABANDON BOTH TAPES IF NO I.D.'S READ
      00260  0074 00 4 00017  BACK2  TSX     $ASKOPR,4
      00261  3 00006 0 01035         PTH     MESC,,6
      00262  3 00001 0 00342         PTH     IR,,CTINUE
      00263  3 00006 0 01043         PTH     MESD,,6
      00264  3 00003 0 00075         PTH     QUITFL,,CHLDFL
      00265  3 00006 0 01051         PTH     MESE,,6
      00266  3 00002 0 00267         PTH     REST3,,PAUSE
                              *
      00267 -0500 00 0 03271  REST3  CAL     =45
      00270  0074 00 4 00011         TSX     SLEEP,4
      00271  0020 00 0 00260         TRA     BACK2
                              *
                              *
      00272                   IK     PRM     MESB,5
      00272  0074 00 4 00015         TSX     WRFLX,4                                                          .001
      00273  0 00005 0 01030                 MESB,,5                                                          .001
      00274  0074 00 4 00016         TSX     $PRNTER,4
1       INITIATE AND TERMINATE DUMP TAPE FILE READS.....M.J.BAILEY..1/31/65                      PAGE 7

      00275  2 00001 2 00212  IL     TIX     IH,2,1        TRY 10 TIMES TO OPEN
      00276  0074 00 4 00017  BACK3  TSX     $ASKOPR,4
      00277  3 00006 0 01035         PTH     MESC,,6
      00300  3 00001 0 00206         PTH     IG,,CTINUE
      00301  3 00006 0 01043         PTH     MESD,,6
      00302  3 00003 0 00075         PTH     QUITFL,,CHLDFL
      00303  3 00006 0 01051         PTH     MESE,,6
      00304  3 00002 0 00305         PTH     REST4,,PAUSE
                              *
      00305 -0500 00 0 03271  REST4  CAL     =45
      00306  0074 00 4 00011         TSX     SLEEP,4
      00307  0020 00 0 00276         TRA     BACK3
                              *
                              *
      00310 -0500 00 0 03274  IM     CAL     =H 2ND T
      00311  0602 00 0 01064         SLW     MESF+5
      00312                          PRM     MESF,8
      00312  0074 00 4 00015         TSX     WRFLX,4                                                          .001
      00313  0 00010 0 01057                 MESF,,8                                                          .001
      00314                          CLOSE   BFNA,BFNB
      00314  0074 00 4 00014         TSX     CLOSE,4                                                          .001
      00315  3 00000 0 75020         PTH     BFNA                                                             .001
      00316  3 00000 0 75017         PTH     BFNB                                                             .001
      00317  0020 00 0 00275         TRA     IL            GO RE-OPEN,READ AGAIN (10 TIMES)
                              *
                              *
                              *      COMPARE I.D. LABELS ON BOTH COPIES
                              *
      00320                   IO     CMPWDS  8,WBF,WBF+8,IP
      00320  0774 00 1 00010         AXT     8,1                                                              .001
      00321 -0500 00 1 02300         CAL     WBF+8,1                                                          .001
      00322 -0340 00 1 02310         LAS     WBF+8+8,1                                                        .001
      00323  0020 00 0 00330         TRA     IP                                                               .001
      00324  0020 00 0 00326         TRA     *+2                                                              .001
      00325  0020 00 0 00330         TRA     IP                                                               .001
      00326  2 00001 1 00321         TIX     *-5,1,1                                                          .001
      00327  0020 00 0 00337         TRA     IQ            SKIP IF COMPARISON O.K.
      00330                   IP     CLOSE   LFNA,LFNB     WRONG TAPE ON 2ND CHANNEL
      00330  0074 00 4 00014         TSX     CLOSE,4                                                          .001
      00331  3 00000 0 75036         PTH     LFNA                                                             .001
      00332  3 00000 0 75035         PTH     LFNB                                                             .001
      00333                          CLOSE   BFNA,BFNB
      00333  0074 00 4 00014         TSX     CLOSE,4                                                          .001
      00334  3 00000 0 75020         PTH     BFNA                                                             .001
      00335  3 00000 0 75017         PTH     BFNB                                                             .001
      00336  0020 00 0 00046         TRA     WRONGB        GO REMOUNT AT LEAST 2ND COPY
                              *
                              *      PRINT I.D. LABEL AND SET FILE POINTER AT START OF 1ST DUMPED FILE
                              *
      00337                   IQ     PRM     MESG,9        BOTH LABELS READ O.K.,PRINT MESSAGE
      00337  0074 00 4 00015         TSX     WRFLX,4                                                          .001
      00340  0 00011 0 01152                 MESG,,9                                                          .001
      00341  0020 00 0 00350         TRA     IS            SKIP
      00342 -0520 00 0 01012  IR     NZT     IDERR         SEE WHICH LABEL WAS READ
      00343  0020 00 0 00350         TRA     IS            SKIP IF IT WAS 1ST COPY
      00344                          MOVE    8,WBF+8,WBF   2ND COPY, MOVE IT DOWN
1       INITIATE AND TERMINATE DUMP TAPE FILE READS.....M.J.BAILEY..1/31/65                      PAGE 8

      00344  0774 00 1 00010         AXT     8,1                                                              .001
      00345 -0500 00 1 02310         CAL     WBF+8+8,1                                                        .001
      00346  0602 00 1 02300         SLW     WBF+8,1                                                          .001
      00347  2 00001 1 00345         TIX     *-2,1,1                                                          .001
      00350                   IS     PRM     MESH,7        PRINT MESSAGE
      00350  0074 00 4 00015         TSX     WRFLX,4                                                          .001
      00351  0 00007 0 01163                 MESH,,7                                                          .001
      00352                          PRM     WBF,4
      00352  0074 00 4 00015         TSX     WRFLX,4                                                          .001
      00353  0 00004 0 02270                 WBF,,4                                                           .001
      00354  0074 00 4 00000         TSX     GETLSG,4
      00355 -0500 00 0 02274         CAL     WBF+4
      00356  0602 00 0 01200         SLW     MESI+6
      00357 -0500 00 0 02275         CAL     WBF+5
      00360  0602 00 0 01202         SLW     MESI+8
      00361                          PRM     MESI,9        PRINT DATE/TIME DUMPING ON IT BEGAN
      00361  0074 00 4 00015         TSX     WRFLX,4                                                          .001
      00362  0 00011 0 01172                 MESI,,9                                                          .001
      00363 -0500 00 0 02277         CAL     WBF+7
      00364  0100 00 0 00374         TZE     IT            SKIP IF NO END OF DUMP 'DAY'
      00365  0074 00 4 00001         TSX     IOBDT,4
      00366  0602 00 0 01210         SLW     MESJ+5
      00367 -0600 00 0 01212         STQ     MESJ+7
      00370                          PRM     MESJ,8        PRINT END OF DUMP 'DAY'
      00370  0074 00 4 00015         TSX     WRFLX,4                                                          .001
      00371  0 00010 0 01203                 MESJ,,8                                                          .001
      00372                          PRM     MESK,5
      00372  0074 00 4 00015         TSX     WRFLX,4                                                          .001
      00373  0 00005 0 01213                 MESK,,5                                                          .001
                              *
      00374  0774 00 1 00660  IT     AXT     RECSIZ,1
      00375  0634 00 1 75007         SXA     X,1           SET FILE POINTER TO START OF 1ST FILE
                              *
      00376  0774 00 4 00000  X4     AXT     **,4
      00377  0774 00 3 00000  X3     AXT     **,3
      00400  0774 00 2 00000  X2     AXT     **,2
      00401  0774 00 1 00000  X1     AXT     **,1
      00402  0020 00 4 00002         TRA     2,4
                              *
                              * - - - - - - - - - - - - - - - - - - - - -
                              *      TERMINATE DUMP TAPE FILES
                              * - - - - - - - - - - - - - - - - - - - - -
                              *
      00403  0634 00 4 00435  TERMTF SXA     TX4,4
      00404  0074 00 4 00000         TSX     GETLSG,4
      00405                          PRM     MESL,7
      00405  0074 00 4 00015         TSX     WRFLX,4                                                          .001
      00406  0 00007 0 01220                 MESL,,7                                                          .001
      00407  0074 00 4 00005         TSX     FWAIT,4
 TD   00410  3 00000 0 75036         TXH     LFNA
 TD   00411  3 00000 0 75035         TXH     LFNB
 TD   00412  3 00000 0 00413         TXH     *+1
      00413                          CLOSE   LFNA,LFNB
      00413  0074 00 4 00014         TSX     CLOSE,4                                                          .001
      00414  3 00000 0 75036         PTH     LFNA                                                             .001
      00415  3 00000 0 75035         PTH     LFNB                                                             .001
1       INITIATE AND TERMINATE DUMP TAPE FILE READS.....M.J.BAILEY..1/31/65                      PAGE 9

 TD   00416  3 00000 0 00417         TXH     *+1
      00417  0074 00 4 00005         TSX     FWAIT,4
 TD   00420  3 00000 0 75020         TXH     BFNA
 TD   00421  3 00000 0 75017         TXH     BFNB
 TD   00422  3 00000 0 00423         TXH     *+1
      00423                          CLOSE   BFNA,BFNB
      00423  0074 00 4 00014         TSX     CLOSE,4                                                          .001
      00424  3 00000 0 75020         PTH     BFNA                                                             .001
      00425  3 00000 0 75017         PTH     BFNB                                                             .001
 TD   00426  3 00000 0 00427         TXH     *+1
      00427  0074 00 4 00013         TSX     UMOUNT,4
 TD   00430  3 00000 0 75016         TXH     AUN
      00431  2 01141 0 01133         TIX     UMA,,LUMA
      00432  0074 00 4 00013         TSX     UMOUNT,4
 TD   00433  3 00000 0 75015         TXH     BUN
      00434  2 01151 0 01142         TIX     UMB,,LUMB
      00435  0774 00 4 00000  TX4    AXT     **,4
      00436  0020 00 4 00001         TRA     1,4
                              *
                              * - - - - - - - - - - - - - - - - - - - - - - - - - - - -
                              *      TEST FOR END OF TAPE-FILE, IF NOT CHANGE REELS
                              * - - - - - - - - - - - - - - - - - - - - - - - - - - - -
                              *
      00437  0634 00 1 00401  TSTEOF SXA     X1,1
      00440  0634 00 2 00400         SXA     X2,2
      00441  0634 00 3 00377         SXA     X3,3
      00442  0634 00 4 00376         SXA     X4,4
      00443                          PRLINE  ( END OF REEL ON RELOAD TAPE FILE.),6
      00443  0074 00 4 00015         TSX     WRFLX,4                                                          .001
      00444  0 00006 0 03205                 ..001,,6                                                         .001
                                     RMT                                                                      .001
                              ..001  BCI     6, END OF REEL ON RELOAD TAPE FILE.                              .001
                                     RMT                                                                      .001
      00445  0074 00 4 00017         TSX     $ASKOPR,4
      00446  3 00010 0 01323         PTH     MESM,,8
      00447  3 00007 0 00452         PTH     EOTF,,LSREEL
      00450  3 00010 0 01333         PTH     MESN,,8
      00451  3 00001 0 00454         PTH     TB1,,CTINUE
                              *
      00452  0534 00 4 00376  EOTF   LXA     X4,4          LAST REEL OF TAPE LOAD-FILE
      00453  1 00001 4 00746         TXI     TV,4,1        GO EXIT VIA 3,4
                              *
      00454  0074 00 4 00003  TB1    TSX     ATTNAM,4
      00455  3 00002 0 01010         PTH     NM,,2
      00456  0074 00 4 00002         TSX     ATTACH,4
      00457  3 00000 0 75040         PTH     DU
      00460  3 00000 0 75037         PTH     DP
                              *
                              *
      00461  0074 00 4 00005  TB     TSX     FWAIT,4       JUST TO CATCH ERRORS.
 TD   00462  3 00000 0 75036         TXH     LFNA
 TD   00463  3 00000 0 75035         TXH     LFNB
 TD   00464  3 00000 0 00465         TXH     *+1
      00465                          CLOSE   LFNA,LFNB     CHANGE REELS
      00465  0074 00 4 00014         TSX     CLOSE,4                                                          .001
      00466  3 00000 0 75036         PTH     LFNA                                                             .001
1       INITIATE AND TERMINATE DUMP TAPE FILE READS.....M.J.BAILEY..1/31/65                      PAGE 10

      00467  3 00000 0 75035         PTH     LFNB                                                             .001
 TD   00470  3 00000 0 00471         TXH     *+1
      00471  0074 00 4 00005         TSX     FWAIT,4
 TD   00472  3 00000 0 75020         TXH     BFNA
 TD   00473  3 00000 0 75017         TXH     BFNB
 TD   00474  3 00000 0 00475         TXH     *+1
      00475                          CLOSE   BFNA,BFNB
      00475  0074 00 4 00014         TSX     CLOSE,4                                                          .001
      00476  3 00000 0 75020         PTH     BFNA                                                             .001
      00477  3 00000 0 75017         PTH     BFNB                                                             .001
 TD   00500  3 00000 0 00501         TXH     *+1
      00501  0074 00 4 00013         TSX     UMOUNT,4      UNMOUNT 'A' REEL
 TD   00502  3 00000 0 75016         TXH     AUN
      00503  2 01236 0 01227         TIX     UMRA,,LUMRA
      00504  0074 00 4 00013         TSX     UMOUNT,4
 TD   00505  3 00000 0 75015         TXH     BUN           UNMOUNT 'B' REEL TOO. ***
      00506  2 01246 0 01237         TIX     UMRB,,LUMRB
 TD   00507  3 00000 0 00510         TXH     *+1           NULL ERROR RETURN, IN CASE NO B COPY.
                              *
      00510  0074 00 4 00012  TD     TSX     MOUNT,4       MOUNT NEW 'A' REEL
 TD   00511  3 00000 0 03265         TXH     =1
 TD   00512  3 00000 0 75016         TXH     AUN
      00513  2 01257 0 01247         TIX     MRA,,LMRA
      00514  0774 00 2 00003         AXT     3,2
      00515  0074 00 4 00006  TE     TSX     VERIFY,4      CHECK I/O SYSTEM LABEL
 TD   00516  3 00000 0 75016         TXH     AUN
      00517  2 01016 0 75010         TIX     LABEL,,L4
 TD   00520  3 00000 0 00523         TXH     TF
 TD   00521  3 00000 0 01014         TXH     ERCODE
      00522  0020 00 0 00545         TRA     TH            SKIP IF O.K.
                              *
      00523  0074 00 4 00016  TF     TSX     $PRNTER,4     VERIFICATION ERROR
      00524  0500 00 0 01014         CLA     ERCODE
      00525  0402 00 0 03267         SUB     =7
      00526  0100 00 0 00530         TZE     TG
      00527  2 00001 2 00515         TIX     TE,2,1
      00530  0074 00 4 00013  TG     TSX     UMOUNT,4
 TD   00531  3 00000 0 75016         TXH     AUN
      00532  2 01305 0 01271         TIX     WRA,,LWRA
      00533  0074 00 4 00017  BACK5  TSX     $ASKOPR,4
      00534  3 00006 0 01035         PTH     MESC,,6
      00535  3 00001 0 00510         PTH     TD,,CTINUE
      00536  3 00006 0 01043         PTH     MESD,,6
      00537  3 00003 0 00075         PTH     ABEXT,,CHLDFL
      00540  3 00006 0 01051         PTH     MESE,,6
      00541  3 00002 0 00542         PTH     REST5,,PAUSE
                              *
      00542 -0500 00 0 03271  REST5  CAL     =45
      00543  0074 00 4 00011         TSX     SLEEP,4
      00544  0020 00 0 00533         TRA     BACK5
                              *
      00545  0074 00 4 00010  TH     TSX     OPEN,4
 TD   00546  3 00000 0 01013         TXH     R
 TD   00547  3 00000 0 75036         TXH     LFNA
 TD   00550  3 00000 0 75035         TXH     LFNB
 TD   00551  3 00000 0 03273         TXH     =-0
1       INITIATE AND TERMINATE DUMP TAPE FILE READS.....M.J.BAILEY..1/31/65                      PAGE 11

 TD   00552  3 00000 0 03273         TXH     =-0
 TD   00553  3 00000 0 00752         TXH     TW            ERROR
      00554  0074 00 4 00007         TSX     BUFFER,4
 TD   00555  3 00000 0 75036         TXH     LFNA
 TD   00556  3 00000 0 75035         TXH     LFNB
      00557  2 01015 0 01410         TIX     IB1,,LIB
                              *
      00560  0074 00 4 00004         TSX     RDWAIT,4      CHECK DAEMON'S TAPE I.D.
 TD   00561  3 00000 0 75036         TXH     LFNA
 TD   00562  3 00000 0 75035         TXH     LFNB
 TD   00563  3 00000 0 03265         TXH     =1
      00564  2 01376 0 01377         TIX     IDBF,,L9
 TD   00565  3 00000 0 00760         TXH     TX            EOF, ERROR
 TD   00566  3 00000 0 01375         TXH     JK
 TD   00567  3 00000 0 00752         TXH     TW            ERROR
                              *
      00570                          CMPWDS  8,IDBF,TAPEID,THA
      00570  0774 00 1 00010         AXT     8,1                                                              .001
      00571 -0500 00 1 01407         CAL     IDBF+8,1                                                         .001
      00572 -0340 00 1 02324         LAS     TAPEID+8,1                                                       .001
      00573  0020 00 0 00600         TRA     THA                                                              .001
      00574  0020 00 0 00576         TRA     *+2                                                              .001
      00575  0020 00 0 00600         TRA     THA                                                              .001
      00576  2 00001 1 00571         TIX     *-5,1,1                                                          .001
      00577  0020 00 0 00604         TRA     THB
      00600                   THA    CLOSE   LFNA,LFNB
      00600  0074 00 4 00014         TSX     CLOSE,4                                                          .001
      00601  3 00000 0 75036         PTH     LFNA                                                             .001
      00602  3 00000 0 75035         PTH     LFNB                                                             .001
      00603  0020 00 0 00530         TRA     TG
                              *
      00604  0500 00 0 01407  THB    CLA     IDBF+8        O.K., NOW CHECK REEL NO.
      00605  0402 00 0 03265         SUB     =1
      00606  0402 00 0 02324         SUB     TAPEID+8
      00607  0100 00 0 00624         TZE     TJ            SKIP IF REEL ALL O.K.
      00610                          PRLINE  ( REEL ORDER ERROR ON CHANNEL A.),6
      00610  0074 00 4 00015         TSX     WRFLX,4                                                          .001
      00611  0 00006 0 03213                 ..002,,6                                                         .001
                                     RMT                                                                      .001
                              ..002  BCI     6, REEL ORDER ERROR ON CHANNEL A.                                .001
                                     RMT                                                                      .001
      00612  0074 00 4 00017  TI     TSX     $ASKOPR,4
      00613  3 00011 0 01354         PTH     MESQ,,9
      00614  3 00001 0 00621         PTH     TJA,,CTINUE
      00615  3 00010 0 01043         PTH     MESD,,8
      00616  3 00003 0 00075         PTH     ABEXT,,CHLDFL
      00617  3 00006 0 01365         PTH     MESR,,6
      00620  3 00010 0 00461         PTH     TB,,CHREEL
                              *
      00621  0500 00 0 01407  TJA    CLA     IDBF+8
      00622  0601 00 0 02324         STO     TAPEID+8
      00623  0020 00 0 00627         TRA     TJAX
                              *
      00624  0500 00 0 02324  TJ     CLA     TAPEID+8      INCREMENT REEL NO.
      00625  0400 00 0 03265         ADD     =1
      00626  0601 00 0 02324         STO     TAPEID+8
1       INITIATE AND TERMINATE DUMP TAPE FILE READS.....M.J.BAILEY..1/31/65                      PAGE 12

      00627                   TJAX   SKIFNB  TU
      00627  0500 00 0 75041         CLA     NOCHAN                                                           .001
      00630  0402 00 0 03265         SUB     =1                                                               .001
      00631  0100 00 0 00742         TZE     TU                                                               .001
                              *
                       00632  TK     SYN     *             (MOVED UMOUNT FOR B.COPY UP)
                              *
      00632  0074 00 4 00012  TL     TSX     MOUNT,4       MOUNT NEW 'B' REEL
 TD   00633  3 00000 0 03266         TXH     =2
 TD   00634  3 00000 0 75015         TXH     BUN
      00635  2 01270 0 01260         TIX     MRB,,LMRB
      00636  0774 00 2 00003         AXT     3,2
      00637  0074 00 4 00006  TM     TSX     VERIFY,4      CHECK I/O SYSTEM LABEL
 TD   00640  3 00000 0 75015         TXH     BUN
      00641  2 01016 0 75010         TIX     LABEL,,L4
 TD   00642  3 00000 0 00645         TXH     TN
 TD   00643  3 00000 0 01014         TXH     ERCODE
      00644  0020 00 0 00667         TRA     TP            SKIP IF O.K.
                              *
      00645  0074 00 4 00016  TN     TSX     $PRNTER,4     VERIFICATION ERROR
      00646  0500 00 0 01014         CLA     ERCODE
      00647  0402 00 0 03267         SUB     =7
      00650  0100 00 0 00652         TZE     TO
      00651  2 00001 2 00637         TIX     TM,2,1
      00652  0074 00 4 00013  TO     TSX     UMOUNT,4
 TD   00653  3 00000 0 75015         TXH     BUN
      00654  2 01322 0 01306         TIX     WRB,,LWRB
      00655  0074 00 4 00017  BACK6  TSX     $ASKOPR,4
      00656  3 00006 0 01035         PTH     MESC,,6
      00657  3 00001 0 00632         PTH     TL,,CTINUE
      00660  3 00006 0 01043         PTH     MESD,,6
      00661  3 00003 0 00075         PTH     QUITFL,,CHLDFL
      00662  3 00006 0 01051         PTH     MESE,,6
      00663  3 00002 0 00664         PTH     REST6,,PAUSE
                              *
      00664 -0500 00 0 03271  REST6  CAL     =45
      00665  0074 00 4 00011         TSX     SLEEP,4
      00666  0020 00 0 00655         TRA     BACK6
                              *
      00667  0074 00 4 00010  TP     TSX     OPEN,4
 TD   00670  3 00000 0 01013         TXH     R
 TD   00671  3 00000 0 75020         TXH     BFNA
 TD   00672  3 00000 0 75017         TXH     BFNB
 TD   00673  3 00000 0 03273         TXH     =-0
 TD   00674  3 00000 0 03273         TXH     =-0
 TD   00675  3 00000 0 00763         TXH     TY            ERROR
      00676  0074 00 4 00007         TSX     BUFFER,4
 TD   00677  3 00000 0 75020         TXH     BFNA
 TD   00700  3 00000 0 75017         TXH     BFNB
      00701  2 01015 0 02325         TIX     IB2,,LIB
                              *
      00702  0074 00 4 00004         TSX     RDWAIT,4      CHECK DAEMON I.D. LABEL
 TD   00703  3 00000 0 75020         TXH     BFNA
 TD   00704  3 00000 0 75017         TXH     BFNB
 TD   00705  3 00000 0 03265         TXH     =1
      00706  3 00011 0 01377         TXH     IDBF,,9
1       INITIATE AND TERMINATE DUMP TAPE FILE READS.....M.J.BAILEY..1/31/65                      PAGE 13

 TD   00707  3 00000 0 00771         TXH     TZ            EOF,ERROR
 TD   00710  3 00000 0 01375         TXH     JK
 TD   00711  3 00000 0 00763         TXH     TY            ERROR
      00712                          CMPWDS  8,IDBF,TAPEID,TR
      00712  0774 00 1 00010         AXT     8,1                                                              .001
      00713 -0500 00 1 01407         CAL     IDBF+8,1                                                         .001
      00714 -0340 00 1 02324         LAS     TAPEID+8,1                                                       .001
      00715  0020 00 0 00722         TRA     TR                                                               .001
      00716  0020 00 0 00720         TRA     *+2                                                              .001
      00717  0020 00 0 00722         TRA     TR                                                               .001
      00720  2 00001 1 00713         TIX     *-5,1,1                                                          .001
      00721  0020 00 0 00726         TRA     TS
      00722                   TR     CLOSE   BFNA,BFNB
      00722  0074 00 4 00014         TSX     CLOSE,4                                                          .001
      00723  3 00000 0 75020         PTH     BFNA                                                             .001
      00724  3 00000 0 75017         PTH     BFNB                                                             .001
      00725  0020 00 0 00652         TRA     TO
                              *
      00726  0500 00 0 01407  TS     CLA     IDBF+8        NOW CHECK REEL NO.
      00727  0402 00 0 02324         SUB     TAPEID+8
      00730  0100 00 0 00742         TZE     TU            SKIP IF REEL O.K.
      00731                          PRLINE  ( POSSIBLE REEL ORDER ERROR ON CHANNEL B.),8
      00731  0074 00 4 00015         TSX     WRFLX,4                                                          .001
      00732  0 00010 0 03221                 ..003,,8                                                         .001
                                     RMT                                                                      .001
                              ..003  BCI     8, POSSIBLE REEL ORDER ERROR ON CHANNEL B.                       .001
                                     RMT                                                                      .001
      00733  0074 00 4 00017  TT     TSX     $ASKOPR,4
      00734  3 00011 0 01354         PTH     MESQ,,9
      00735  3 00001 0 00742         PTH     TU,,CTINUE
      00736  3 00010 0 01365         PTH     MESR,,8
      00737  3 00010 0 00632         PTH     TK,,CHREEL
      00740  3 00006 0 01043         PTH     MESD,,6
      00741  3 00003 0 00075         PTH     QUITFL,,CHLDFL
                              *
      00742  0074 00 4 00002  TU     TSX     ATTACH,4
      00743  3 00000 0 01010         PTH     NM
      00744  3 00000 0 01011         PTH     NM+1
      00745  0534 00 4 00376         LXA     X4,4
      00746  0534 00 3 00377  TV     LXA     X3,3
      00747  0534 00 2 00400         LXA     X2,2
      00750  0534 00 1 00401         LXA     X1,1
      00751  0020 00 4 00004         TRA     4,4           EXIT
                              *
      00752  0074 00 4 00016  TW     TSX     $PRNTER,4
      00753                          PRLINE  ( ERROR AT START OF NEW REEL ON CHANNEL A.),7
      00753  0074 00 4 00015         TSX     WRFLX,4                                                          .001
      00754  0 00007 0 03231                 ..004,,7                                                         .001
                                     RMT                                                                      .001
                              ..004  BCI     7, ERROR AT START OF NEW REEL ON CHANNEL A.                      .001
                                     RMT                                                                      .001
      00755                   TWA    PRM     MESP,9
      00755  0074 00 4 00015         TSX     WRFLX,4                                                          .001
      00756  0 00011 0 01343                 MESP,,9                                                          .001
      00757  0020 00 0 00612         TRA     TI
                              *
1       INITIATE AND TERMINATE DUMP TAPE FILE READS.....M.J.BAILEY..1/31/65                      PAGE 14

      00760                   TX     PRLINE  ( EOF AT START OF NEW REEL ON CHANNEL A.),7
      00760  0074 00 4 00015         TSX     WRFLX,4                                                          .001
      00761  0 00007 0 03240                 ..005,,7                                                         .001
                                     RMT                                                                      .001
                              ..005  BCI     7, EOF AT START OF NEW REEL ON CHANNEL A.                        .001
                                     RMT                                                                      .001
      00762  0020 00 0 00755         TRA     TWA
                              *
      00763  0074 00 4 00016  TY     TSX     $PRNTER,4
      00764                          PRLINE  ( ERROR AT START OF NEW REEL ON CHANNEL B.),7
      00764  0074 00 4 00015         TSX     WRFLX,4                                                          .001
      00765  0 00007 0 03247                 ..006,,7                                                         .001
                                     RMT                                                                      .001
                              ..006  BCI     7, ERROR AT START OF NEW REEL ON CHANNEL B.                      .001
                                     RMT                                                                      .001
      00766                   TYA    PRM     MESP,9
      00766  0074 00 4 00015         TSX     WRFLX,4                                                          .001
      00767  0 00011 0 01343                 MESP,,9                                                          .001
      00770  0020 00 0 00733         TRA     TT
                              *
      00771                   TZ     PRLINE  ( EOF AT START OF NEW REEL ON CHANNEL B.),7
      00771  0074 00 4 00015         TSX     WRFLX,4                                                          .001
      00772  0 00007 0 03256                 ..007,,7                                                         .001
                                     RMT                                                                      .001
                              ..007  BCI     7, EOF AT START OF NEW REEL ON CHANNEL B.                        .001
                                     RMT                                                                      .001
      00773  0020 00 0 00766         TRA     TYA
                              *
                              * - - - - - - - - - - - - - - - - - - - - -
                              *      CONSTANTS AND VARIABLES
                              * - - - - - - - - - - - - - - - - - - - - -
                              *
      00774                   PBF    BSS     12
      01010                   NM     BSS     2
      01012  0 00000 0 00000  IDERR  PZE
      01013  516060606060     R      BCI     1,R
      01014  0 00000 0 00000  ERCODE PZE
      01015  0 00000 0 00660  LIB    PZE     RECSIZ
      01016  0 00000 0 00004  L4     PZE     4
      01017  0 00000 0 00010  L8     PZE     8
      01020  603133243360     MESA   BCI     8, I.D. RECORD ON 1ST COPY OF TAPE FILE IS UNREAD.
      01030  602551514651     MESB   BCI     5, ERROR OPENING DUMP TAPE FILE.
      01035  606346602346     MESC   BCI     6, TO CONTINUE WITH THIS LOAD FILE,
      01043  606346606462     MESD   BCI     6, TO USE DIFFERENT LOAD FILE, OR
      01051  606346606264     MESE   BCI     6, TO SUSPEND LOADING FOR 1 MIN..
      01057  602545246046     MESF   BCI     8, END OF FILE IN WRONG PLACE ON 1ST TAPE COPY.
      01067  314523465151     WRNGT2 BCI     9,INCORRECT TAPE MOUNTED AS 2ND COPY OF LOAD FILE.
      01100  604743252162            BCI     3, PLEASE REMOVE IT.
      01103  0 00000 0 00014  LWT2   PZE     *-WRNGT2
      01104  604446644563     RMT2   BCI     7, MOUNT ANOTHER TAPE ON THE 2ND CHANNEL.
      01113  0 00000 0 00007  LRMT2  PZE     *-RMT2
      01114  600245246023     BADT2  BCI     8, 2ND COPY OF LOAD FILE UNREAD AFTER 10 TRIES TO
      01124  652551312670            BCI     6,VERIFY ITS I.D.. PLEASE REMOVE IT.
      01132  0 00000 0 00016  LBT2   PZE     *-BADT2
      01133  606445444664     UMA    BCI     6, UNMOUNT TAPE FILE ON MAIN CHANNEL.
      01141  0 00000 0 00006  LUMA   PZE     *-UMA
1       INITIATE AND TERMINATE DUMP TAPE FILE READS.....M.J.BAILEY..1/31/65                      PAGE 15

      01142  606445444664     UMB    BCI     7, UNMOUNT TAPE FILE ON SECONDARY CHANNEL.
      01151  0 00000 0 00007  LUMB   PZE     *-UMB
      01152  603133243360     MESG   BCI     9, I.D. LABELS ON BOTH COPIES OF NEW LOAD FILE MATCH O.K.
      01163  602464444760     MESH   BCI     7, DUMP TAPE FILE STARTING TO LOAD IS A
      01172  602464444731     MESI   BCI     9, DUMPING ON THIS TAPE FILE BEGAN AT         ON
      01203  604546602631     MESJ   BCI     8, NO FILE CREATED LATER THAN           ON
      01213  603162602464     MESK   BCI     5, IS DUMPED ON THIS TAPE FILE.
      01220  604346212431     MESL   BCI     7, LOADING FINISHED FROM THIS TAPE FILE
      01227  605125444665     UMRA   BCI     7, REMOVE CHANNEL A REEL OF RELOAD FILE.
      01236  0 00000 0 00007  LUMRA  PZE     *-UMRA
      01237  605125444665     UMRB   BCI     7, REMOVE CHANNEL B REEL OF RELOAD FILE.
      01246  0 00000 0 00007  LUMRB  PZE     *-UMRB
      01247  604446644563     MRA    BCI     8, MOUNT ANOTHER REEL OF RELOAD FILE ON CHANNEL A
      01257  0 00000 0 00010  LMRA   PZE     *-MRA
      01260  604446644563     MRB    BCI     8, MOUNT ANOTHER REEL OF RELOAD FILE ON CHANNEL B
      01270  0 00000 0 00010  LMRB   PZE     *-MRB
      01271  606651464527     WRA    BCI     8, WRONG REEL MOUNTED ON CHANNEL A FOR RELOAD, NOT
      01301  602225434645            BCI     4, BELONGING TO THIS SET.
      01305  0 00000 0 00014  LWRA   PZE     *-WRA
      01306  606651464527     WRB    BCI     8, WRONG REEL MOUNTED ON CHANNEL B FOR RELOAD, NOT
      01316  602225434645            BCI     4, BELONGING TO THIS SET.
      01322  0 00000 0 00014  LWRB   PZE     *-WRB
      01323  603126606330     MESM   BCI     8, IF THIS WAS LAST REEL OF THIS RELOAD FILE, OR
      01333  603126606330     MESN   BCI     8, IF THERE IS ANOTHER REEL TO THIS RELOAD FILE
      01343  512525436045     MESP   BCI     9,REEL NO. UNCHECKED, FUTURE REEL NO. ERRORS COULD OCCUR
      01354  606346605125     MESQ   BCI     9, TO RESUME RE-LOADING WITH THIS REEL NEVERTHELESS
      01365  603126607046     MESR   BCI     8, IF YOU WISH TO CHANGE THIS REEL FOR ANOTHER
      01375  0 00000 0 00000  JK     PZE
      01376  0 00000 0 00011  L9     PZE     9
      01377                   IDBF   BSS     9
                       00660  RECSIZ EQU     432
      01410                   IB1    BSS     432
      02270                   WBF    BSS     20
      02314                   TAPEID BSS     9
      02325                   IB2    BSS     432
                              *
                                     INSERT  BCMEQB
                              *
                              *  -  -  -  -  -  -  -  -  -  -  -  -  -  -  -  -  -  -
                              *      COMMON AND EQUIVALENCE FOR SECONDARY STORAGE LOAD
                              *         (TIME-SHARING VERSION)
                              *  -  -  -  -  -  -  -  -  -  -  -  -  -  -  -  -  -  -
                              *
                      075045  DEMKEY BOOL    75045         CORE A LOCATION FOR DAEMON KEY SETTING
                              *
                      000017  BASE   BOOL    17            KEY CODE BASE
                      000001  CTINUE BOOL    1             KEY CODE TO CONTINUE WITH PROGRAM,NO CHANGE
                      000002  PAUSE  BOOL    2             KEY CODE TO WAIT 60 SECS.
                      000003  CHLDFL BOOL    3             KEY CODE TO USE DIFFERENT LOAD FILE
                      000004  STOPLD BOOL    4             KEY CODE TO STOP LOADING, START DUMPING
                      000005  ABANKY BOOL    5             KEY CODE TO ABANDON LOAD TAPE FILE
                      000006  SWCHAN BOOL    6             KEY CODE TO GO FROM 1 OR 2 TO 2 OR 1 CHANS.
                      000007  LSREEL BOOL    7             KEY CODE TO INDICATE LAST REEL OF LOAD FILE
                      000010  CHREEL BOOL    10            KEY CODE TO CORRECT REEL ORDER ERROR
                       77777  NEWCOM EQU     -1            TOP OF MEMORY
                      077461  OLDCOM BOOL    77461         OLD TOP OF COMMON
1       INITIATE AND TERMINATE DUMP TAPE FILE READS.....M.J.BAILEY..1/31/65                      PAGE 16

                       77462  COMRLC EQU     OLDCOM-NEWCOM RELOCATION FACTOR
                       77777         COMMON  COMRLC        RELOCATE COMMON
                       01355  UF     EQU     32767/2-DEMKEY/2 LENGTH OF USER LIST
                       77777  UFL    COMMON  2*UF          USER FILE LIST  (1ST PARTS OF FILE NAMES)
                       75044         COMMON  1             INSERT DUMMY IF NECESSARY
                       75043         COMMON  1             DEMKEY CELL IN NON-CTSS VERSION
                       75043  KEYVAL COMMON  1
                       75042  ABANTP COMMON  1             ABANDON TAPE FILE INDICATOR
                       75041  NOCHAN COMMON  1             NO. OF CHANNELS BEING READ (1 OR 2)
                       75040  DU     COMMON  1             PROBLEM NO. OF DUMP/LOAD PACKAGE
                       75037  DP     COMMON  1             PROGRAMMER NO. OF DITTO.
                       75036  LFNA   COMMON  1             LOAD TAPE FILE NAME (PART 1)
                       75035  LFNB   COMMON  1              ,,   ,,   ,,   ,,  (PART 2)
                       75021         COMMON  11            DUMPED FILE'S PREAMBLE FROM DUMP TAPE
                       75021  PREAM  COMMON  1             DUMPED FILE'S DUMP TAPE PREAMBLE 1ST WORD
                       75020  BFNA   COMMON  1             CHANNEL B LOAD TAPE FILE NAME (PART 1)
                       75017  BFNB   COMMON  1             CHANNEL B LOAD TAPE FILE NAME (PART 2)
                       75016  AUN    COMMON  1             CHANNEL A UNIT NO.
                       75015  BUN    COMMON  1             CHANNEL B UNIT NO.
                       75014  TEOF   COMMON  1             TAPE EOF INDICATOR/WORD COUNT
                       75010         COMMON  3             LABEL OF TAPE FILE CURRENTLY BEING LOADED
                       75010  LABEL  COMMON  1             LABEL OF TAPE FILE DITTO.   1ST WORD
                       75007  X      COMMON  1             TAPE FILE POINTER
                                     END
                                              REMOTE SEQUENCES
      03205  602545246046     ..001  BCI     6, END OF REEL ON RELOAD TAPE FILE.                              .001
      03213  605125254360     ..002  BCI     6, REEL ORDER ERROR ON CHANNEL A.                                .001
      03221  604746626231     ..003  BCI     8, POSSIBLE REEL ORDER ERROR ON CHANNEL B.                       .001
      03231  602551514651     ..004  BCI     7, ERROR AT START OF NEW REEL ON CHANNEL A.                      .001
      03240  602546266021     ..005  BCI     7, EOF AT START OF NEW REEL ON CHANNEL A.                        .001
      03247  602551514651     ..006  BCI     7, ERROR AT START OF NEW REEL ON CHANNEL B.                      .001
      03256  602546266021     ..007  BCI     7, EOF AT START OF NEW REEL ON CHANNEL B.                        .001

1       INITIATE AND TERMINATE DUMP TAPE FILE READS.....M.J.BAILEY..1/31/65                      PAGE 1
                        POST PROCESSOR ASSEMBLY DATA

       75006 IS THE LAST LOCATION NOT USED BY THIS PROGRAM
       3276 IS THE FIRST LOCATION NOT USED BY THIS PROGRAM

0REFERENCES TO DEFINED SYMBOLS
       1013      R   101,  213,  546,  670
      75007      X   114,  121,  137,  141,  226,  233,  244,  246,  375, 3205
      75037     DP   460, 3205
      75040     DU   457, 3205
         77     IA    31,   40,  170
        116     IB   142
        136     IC   125
        162     ID   106
        200     IE   123
        206     IG   135,  161,  300
        212     IH   275
        230     II   247
        243     IJ   237
        272     IK   220
        275     IL   317
        310     IM   235
        320     IO   241
        330     IP   323,  325
        337     IQ   327
        342     IR   242,  262
        350     IS   210,  341,  343
        374     IT   364
       1375     JK   566,  710
       1016     L4   517,  641
       1017     L8   234
       1376     L9   564
       1010     NM   455,  743,  744
        461     TB   620
        510     TD   535
        515     TE   527
        523     TF   520
        530     TG   526,  603
        545     TH   522
        612     TI   757
        624     TJ   607
        632     TK   632,  737
        632     TL   657
        637     TM   651
        645     TN   642
        652     TO   650,  725
        667     TP   644
        722     TR   715,  717
        726     TS   721
        733     TT   770
        742     TU   631,  730,  735
        746     TV   453
        752     TW   553,  567
        760     TX   565
        763     TY   675,  711
        771     TZ   707
1       INITIATE AND TERMINATE DUMP TAPE FILE READS.....M.J.BAILEY..1/31/65                      PAGE 2
                        POST PROCESSOR ASSEMBLY DATA

       1355     UF  3205
        401     X1    22,  437,  750
        400     X2    23,  440,  747
        377     X3    24,   76,  441,  746
        376     X4    25,   75,  442,  452,  745
      75016    AUN   430,  502,  512,  516,  531, 3205
      75015    BUN    34,   47,   65,   72,  433,  505,  634,  640,  653, 3205
        100    IAA   165
       1410    IB1   112,  557
       2325    IB2   224,  701
        165    IDA   205
       1015    LIB   112,  224,  557,  701
       1247    MRA   513, 1257
       1260    MRB   635, 1270
        774    PBF
        454    TB1   451
        600    THA   573,  575
        604    THB   577
        621    TJA   614
        755    TWA   762
        435    TX4   403
        766    TYA   773
      77777    UFL  3205
       1133    UMA   431, 1141
       1142    UMB   434, 1151
       2270    WBF   122,  131,  234,  321,  322,  345,  346,  353,  355,  357,  363
       1271    WRA   532, 1305
       1306    WRB   654, 1322
        145   BACK   156
         17   BASE  3205
      75020   BFNA   214,  222,  231,  315,  334,  420,  424,  472,  476,  671,  677,  703,  723, 3205
      75017   BFNB   215,  223,  232,  316,  335,  421,  425,  473,  477,  672,  700,  704,  724, 3205
         63   CONT    53
        452   EOTF   447
       1377   IDBF   564,  571,  604,  621,  706,  713,  726
       1132   LBT2    73
      75036   LFNA   102,  110,  117,  203,  331,  410,  414,  462,  466,  547,  555,  561,  601, 3205
      75035   LFNB   103,  111,  120,  204,  332,  411,  415,  463,  467,  550,  556,  562,  602, 3205
       1257   LMRA   513
       1270   LMRB   635
       1141   LUMA   431
       1151   LUMB   434
       1305   LWRA   532
       1322   LWRB   654
       1103   LWT2    50
       1020   MESA   144,  251,  253,  255
       1030   MESB   163,  273
       1035   MESC    52,  146,  167,  261,  277,  534,  656
       1043   MESD    54,  150,  171,  263,  301,  536,  615,  660,  740
       1051   MESE    56,  152,  173,  265,  303,  540,  662
       1057   MESF   201,  311,  313
       1152   MESG   340
       1163   MESH   351
       1172   MESI   356,  360,  362
       1203   MESJ   366,  367,  371
1       INITIATE AND TERMINATE DUMP TAPE FILE READS.....M.J.BAILEY..1/31/65                      PAGE 3
                        POST PROCESSOR ASSEMBLY DATA

       1213   MESK   373
       1220   MESL   406
       1323   MESM   446
       1333   MESN   450
       1343   MESP   756,  767
       1354   MESQ   613,  734
       1365   MESR   617,  736
         10   OPEN   100,  212,  545,  667
         60   REST    57
       1104   RMT2    66, 1113
      75014   TEOF   124,  236, 3205
        627   TJAX   623
       1227   UMRA   503, 1236
       1237   UMRB   506, 1246
         75  ABEXT   537,  616
        166  BACK1   177
        260  BACK2   271
        276  BACK3   307
        533  BACK5   544
        655  BACK6   666
       1114  BADT2    73, 1132
         14  CLOSE   202,  314,  330,  333,  413,  423,  465,  475,  600,  722
        157  CONT1   147
          5  FWAIT   407,  417,  461,  471
       1012  IDERR   127,  160,  240,  256,  342
          1  IOBDT   365
       3205  ..001   444
       3213  ..002   611
       3221  ..003   732
       3231  ..004   754
       3240  ..005   761
       3247  ..006   765
       3256  ..007   772
      75010  LABEL    35,  517,  641, 3205
       1113  LRMT2    66
       1236  LUMRA   503
       1246  LUMRB   506
         12  MOUNT    63,  510,  632
          2  PAUSE    57,  153,  174,  266,  304,  541,  663, 3205
      75021  PREAM  3205
        154  REST1   153
        175  REST2   174
        267  REST3   266
        305  REST4   304
        542  REST5   541
        664  REST6   663
         11  SLEEP    61,  155,  176,  270,  306,  543,  665
         15  WRFLX   143,  162,  200,  254,  272,  312,  337,  350,  352,  361,  370,  372,  405,  443,  610,  731,  753
                     755,  760,  764,  766,  771
          5 ABANKY  3205
      75042 ABANTP  3205
         17 ASKOPR    51,  145,  166,  260,  276,  445,  533,  612,  655,  733
          2 ATTACH   456,  742
          3 ATTNAM   454
          7 BUFFER   107,  221,  554,  676
1       INITIATE AND TERMINATE DUMP TAPE FILE READS.....M.J.BAILEY..1/31/65                      PAGE 4
                        POST PROCESSOR ASSEMBLY DATA

         33 CHCKBA    45,   67,   70
         41 CHCKBB    36
         51 CHCKBC    62,   74
         70 CHCKBD    44
          3 CHLDFL    55,  151,  172,  264,  302,  537,  616,  661,  741, 3205
         10 CHREEL   620,  737, 3205
      77462 COMRLC  3205
          1 CTINUE    53,  147,  170,  262,  300,  451,  535,  614,  657,  735, 3205
      75045 DEMKEY  3205
       1014 ERCODE    37,   42,  521,  524,  643,  646
          0 GETLSG    26,  126,  354,  404
         22 INITTF     0
      75043 KEYVAL  3205
          7 LSREEL   447, 3205
      77777 NEWCOM  3205
      75041 NOCHAN    27,  206,  627, 3205
      77461 OLDCOM  3205
         16 PRNTER    41,  136,  164,  243,  274,  523,  645,  752,  763
         75 QUITFL    55,   75,  151,  172,  257,  264,  302,  661,  741
          4 RDWAIT   116,  230,  560,  702
        660 RECSIZ   115,  227,  374, 1015, 1410
          4 STOPLD  3205
          6 SWCHAN  3205
       2314 TAPEID   132,  134,  572,  606,  622,  624,  626,  714,  727
        403 TERMTF     0
        437 TSTEOF     0
         13 UMOUNT    46,   71,  427,  432,  501,  504,  530,  652
          6 VERIFY    33,  515,  637
       1067 WRNGT2    50, 1103
         46 WRONGB   336

0 NO ERROR IN ABOVE ASSEMBLY.


LRFLDC   BCD 01/10/68 1514.1    1348         00000
1            READ NEXT ENTRY FROM DISK U.F.D. FILE....M.J.BAILEY,2/5/65                          PAGE 1

                              *        (TIME-SHARING VERSION)
                              *
                       00003         ENTRY   GETLSG        GET LOADER SIGNALS FROM KEYS VIA CORE A
                              *
                              *
                              * - - - - - - - - - - - - - - - - - - - - - - - - - - - - - - -
                              *      GET KEY SETTINGS VIA CORE A, POSSIBLY SET LOADER SWITCHES
                              * - - - - - - - - - - - - - - - - - - - - - - - - - - - - - - -
                              *

        TRANSFER VECTOR
      00000  272563216060     GETA

            LINKAGE DIRECTOR
      00001  000000000000
      00002  272563436227

      00003  0634 00 1 00030  GETLSG SXA     GGX,1
      00004  0074 00 7 00000         TSX     $GETA,7
      00005  0560 00 0 75045         LDQ     DEMKEY
      00006 -0600 00 0 75043         STQ     KEYVAL
      00007  0074 00 7 00000         TSX     $GETA,7
      00010  0600 00 0 75045         STZ     DEMKEY
      00011  0774 00 1 00005         AXT     ABANKY,1
      00012  0754 00 1 00000         PXA     0,1
      00013  0402 00 0 75043         SUB     KEYVAL
      00014 -0100 00 0 00017         TNZ     GGA
      00015 -0625 00 0 75042         STL     ABANTP
      00016  0020 00 0 00030         TRA     GGX
      00017  0774 00 1 00006  GGA    AXT     SWCHAN,1
      00020  0754 00 1 00000         PXA     0,1
      00021  0402 00 0 75043         SUB     KEYVAL
      00022 -0100 00 0 00030         TNZ     GGX
      00023  0534 00 1 75041         LXA     NOCHAN,1
      00024  1 00001 1 00025         TXI     *+1,1,1
      00025 -3 00002 1 00027         TXL     GGB,1,2
      00026  0774 00 1 00001         AXT     1,1
      00027  0634 00 1 75041  GGB    SXA     NOCHAN,1
      00030  0774 00 1 00000  GGX    AXT     **,1
      00031  0020 00 4 00001         TRA     1,4
                              *
                                     INSERT  BCMEQB
                              *
                              *  -  -  -  -  -  -  -  -  -  -  -  -  -  -  -  -  -  -
                              *      COMMON AND EQUIVALENCE FOR SECONDARY STORAGE LOAD
                              *         (TIME-SHARING VERSION)
                              *  -  -  -  -  -  -  -  -  -  -  -  -  -  -  -  -  -  -
                              *
                      075045  DEMKEY BOOL    75045         CORE A LOCATION FOR DAEMON KEY SETTING
                              *
                      000017  BASE   BOOL    17            KEY CODE BASE
                      000001  CTINUE BOOL    1             KEY CODE TO CONTINUE WITH PROGRAM,NO CHANGE
                      000002  PAUSE  BOOL    2             KEY CODE TO WAIT 60 SECS.
                      000003  CHLDFL BOOL    3             KEY CODE TO USE DIFFERENT LOAD FILE
                      000004  STOPLD BOOL    4             KEY CODE TO STOP LOADING, START DUMPING
                      000005  ABANKY BOOL    5             KEY CODE TO ABANDON LOAD TAPE FILE
1            READ NEXT ENTRY FROM DISK U.F.D. FILE....M.J.BAILEY,2/5/65                          PAGE 2

                      000006  SWCHAN BOOL    6             KEY CODE TO GO FROM 1 OR 2 TO 2 OR 1 CHANS.
                      000007  LSREEL BOOL    7             KEY CODE TO INDICATE LAST REEL OF LOAD FILE
                      000010  CHREEL BOOL    10            KEY CODE TO CORRECT REEL ORDER ERROR
                       77777  NEWCOM EQU     -1            TOP OF MEMORY
                      077461  OLDCOM BOOL    77461         OLD TOP OF COMMON
                       77462  COMRLC EQU     OLDCOM-NEWCOM RELOCATION FACTOR
                       77777         COMMON  COMRLC        RELOCATE COMMON
                       01355  UF     EQU     32767/2-DEMKEY/2 LENGTH OF USER LIST
                       77777  UFL    COMMON  2*UF          USER FILE LIST  (1ST PARTS OF FILE NAMES)
                       75044         COMMON  1             INSERT DUMMY IF NECESSARY
                       75043         COMMON  1             DEMKEY CELL IN NON-CTSS VERSION
                       75043  KEYVAL COMMON  1
                       75042  ABANTP COMMON  1             ABANDON TAPE FILE INDICATOR
                       75041  NOCHAN COMMON  1             NO. OF CHANNELS BEING READ (1 OR 2)
                       75040  DU     COMMON  1             PROBLEM NO. OF DUMP/LOAD PACKAGE
                       75037  DP     COMMON  1             PROGRAMMER NO. OF DITTO.
                       75036  LFNA   COMMON  1             LOAD TAPE FILE NAME (PART 1)
                       75035  LFNB   COMMON  1              ,,   ,,   ,,   ,,  (PART 2)
                       75021         COMMON  11            DUMPED FILE'S PREAMBLE FROM DUMP TAPE
                       75021  PREAM  COMMON  1             DUMPED FILE'S DUMP TAPE PREAMBLE 1ST WORD
                       75020  BFNA   COMMON  1             CHANNEL B LOAD TAPE FILE NAME (PART 1)
                       75017  BFNB   COMMON  1             CHANNEL B LOAD TAPE FILE NAME (PART 2)
                       75016  AUN    COMMON  1             CHANNEL A UNIT NO.
                       75015  BUN    COMMON  1             CHANNEL B UNIT NO.
                       75014  TEOF   COMMON  1             TAPE EOF INDICATOR/WORD COUNT
                       75010         COMMON  3             LABEL OF TAPE FILE CURRENTLY BEING LOADED
                       75010  LABEL  COMMON  1             LABEL OF TAPE FILE DITTO.   1ST WORD
                       75007  X      COMMON  1             TAPE FILE POINTER
                                     END
1            READ NEXT ENTRY FROM DISK U.F.D. FILE....M.J.BAILEY,2/5/65                          PAGE 1
                        POST PROCESSOR ASSEMBLY DATA

       75006 IS THE LAST LOCATION NOT USED BY THIS PROGRAM
         32 IS THE FIRST LOCATION NOT USED BY THIS PROGRAM

0REFERENCES TO DEFINED SYMBOLS
      75007      X    32
      75037     DP    32
      75040     DU    32
       1355     UF    32
      75016    AUN    32
      75015    BUN    32
         17    GGA    14
         27    GGB    25
         30    GGX     3,   16,   22
      77777    UFL    32
         17   BASE    32
      75020   BFNA    32
      75017   BFNB    32
          0   GETA     4,    7
      75036   LFNA    32
      75035   LFNB    32
      75014   TEOF    32
      75010  LABEL    32
          2  PAUSE    32
      75021  PREAM    32
          5 ABANKY    11,   32
      75042 ABANTP    15,   32
          3 CHLDFL    32
         10 CHREEL    32
      77462 COMRLC    32
          1 CTINUE    32
      75045 DEMKEY     5,   10,   32
          3 GETLSG     0
      75043 KEYVAL     6,   13,   21,   32
          7 LSREEL    32
      77777 NEWCOM    32
      75041 NOCHAN    23,   27,   32
      77461 OLDCOM    32
          4 STOPLD    32
          6 SWCHAN    17,   32

0 NO ERROR IN ABOVE ASSEMBLY.


ASKOPR   BCD 01/10/68 1514.1    1876         00000
1       SUBROUTINE TO TALK TO OPERATOR AND CONVERSE UNTIL WE GET AN ANSWER                       PAGE 1

                              *
                              *
                       00006         ENTRY   ASKOPR
                              *
                              *

        TRANSFER VECTOR
      00000  272563216060     GETA
      00001  475123462425     PRCODE
      00002  624325254760     SLEEP
      00003  272563436227     GETLSG

            LINKAGE DIRECTOR
      00004  000000000000
      00005  216242464751

      00006  0634 00 1 00064  ASKOPR SXA     ASK1,1
      00007  0634 00 2 00065         SXA     ASK2,2
      00010  0634 00 3 00066         SXA     ASK3,3
      00011  0634 00 4 00067         SXA     ASK4,4
      00012  0634 00 7 00070         SXA     ASK7,7
      00013  0074 00 7 00000         TSX     $GETA,7
      00014  0600 00 0 75045         STZ     DEMKEY
      00015  0754 00 4 00000         PXA     ,4
      00016  0734 00 2 00000         PAX     ,2
      00017  0774 00 1 00000         AXT     0,1
      00020 -0500 00 2 00001  MORMES CAL     1,2
      00021  0602 00 0 00031         SLW     MESS+1
      00022  0074 00 4 00100         TSX     CKOP,4
 TD   00023  3 00000 0 00034         TXH     SNOOZE
      00024 -0500 00 2 00002         CAL     2,2
      00025 -0734 00 3 00000         PDX     ,3
      00026  0634 00 3 00030         SXA     MESS,3
      00027  0074 00 4 00001         TSX     $PRCODE,4
      00030  3 00000 0 00000  MESS   PTH     **
      00031  3 00000 0 00000         PTH     **,,**
      00032  1 00002 1 00033         TXI     *+1,1,2
      00033  1 77776 2 00020         TXI     MORMES,2,-2
      00034 -3 00000 1 00072  SNOOZE TXL     ABORT,1,0
      00035 -0500 00 0 00105         CAL     =15
      00036  0074 00 4 00002         TSX     $SLEEP,4
      00037 -0634 00 1 00040         SXD     *+1,1
      00040  1 00000 2 00041         TXI     *+1,2,**
      00041  0074 00 4 00003         TSX     $GETLSG,4
      00042  0774 00 1 00000         AXT     0,1
      00043 -0500 00 2 00001  NOMTCH CAL     1,2
      00044  0074 00 4 00100         TSX     CKOP,4
      00045  3 00000 0 00061         PTH     REPTMS
      00046 -0500 00 2 00002         CAL     2,2
      00047  0621 00 0 00071         STA     TRAFER
      00050 -0734 00 3 00000         PDX     ,3
      00051  0074 00 4 00100         TSX     CKOP,4
 TD   00052  3 00000 0 00061         TXH     REPTMS
      00053 -0754 00 0 00000         ZAC
      00054  0754 00 3 00000         PXA     ,3
      00055  0402 00 0 75043         SUB     KEYVAL
1       SUBROUTINE TO TALK TO OPERATOR AND CONVERSE UNTIL WE GET AN ANSWER                       PAGE 2

      00056  0100 00 0 00064         TZE     FOUND
      00057  1 00002 1 00060         TXI     *+1,1,2
      00060  1 77776 2 00043         TXI     NOMTCH,2,-2
      00061 -3 00000 1 00072  REPTMS TXL     ABORT,1,0
      00062 -0634 00 1 00063         SXD     *+1,1
      00063  1 00000 2 00017         TXI     MORMES-1,2,**
                              *
                       00064  FOUND  EQU     *
      00064  0774 00 1 00000  ASK1   AXT     **,1
      00065  0774 00 2 00000  ASK2   AXT     **,2
      00066  0774 00 3 00000  ASK3   AXT     **,3
      00067  0774 00 4 00000  ASK4   AXT     **,4
      00070  0774 00 7 00000  ASK7   AXT     **,7
      00071  0020 00 0 00000  TRAFER TRA     **
                              *
                              *
      00072  0534 00 4 00067  ABORT  LXA     ASK4,4
      00073  0534 00 3 00066         LXA     ASK3,3
      00074  0534 00 2 00065         LXA     ASK2,2
      00075  0534 00 1 00064         LXA     ASK1,1
      00076  0534 00 7 00070         LXA     ASK7,7
      00077  0020 00 4 00001         TRA     1,4
                              *
      00100 -0320 00 0 00107  CKOP   ANA     =O700000000000
      00101 -0340 00 0 00106         LAS     =O300000000000
      00102  0020 60 4 00001         TRA*    1,4
      00103  0020 00 4 00002         TRA     2,4
      00104  0020 60 4 00001         TRA*    1,4
                              *
                                     INSERT  BCMEQB
                              *
                              *  -  -  -  -  -  -  -  -  -  -  -  -  -  -  -  -  -  -
                              *      COMMON AND EQUIVALENCE FOR SECONDARY STORAGE LOAD
                              *         (TIME-SHARING VERSION)
                              *  -  -  -  -  -  -  -  -  -  -  -  -  -  -  -  -  -  -
                              *
                      075045  DEMKEY BOOL    75045         CORE A LOCATION FOR DAEMON KEY SETTING
                              *
                      000017  BASE   BOOL    17            KEY CODE BASE
                      000001  CTINUE BOOL    1             KEY CODE TO CONTINUE WITH PROGRAM,NO CHANGE
                      000002  PAUSE  BOOL    2             KEY CODE TO WAIT 60 SECS.
                      000003  CHLDFL BOOL    3             KEY CODE TO USE DIFFERENT LOAD FILE
                      000004  STOPLD BOOL    4             KEY CODE TO STOP LOADING, START DUMPING
                      000005  ABANKY BOOL    5             KEY CODE TO ABANDON LOAD TAPE FILE
                      000006  SWCHAN BOOL    6             KEY CODE TO GO FROM 1 OR 2 TO 2 OR 1 CHANS.
                      000007  LSREEL BOOL    7             KEY CODE TO INDICATE LAST REEL OF LOAD FILE
                      000010  CHREEL BOOL    10            KEY CODE TO CORRECT REEL ORDER ERROR
                       77777  NEWCOM EQU     -1            TOP OF MEMORY
                      077461  OLDCOM BOOL    77461         OLD TOP OF COMMON
                       77462  COMRLC EQU     OLDCOM-NEWCOM RELOCATION FACTOR
                       77777         COMMON  COMRLC        RELOCATE COMMON
                       01355  UF     EQU     32767/2-DEMKEY/2 LENGTH OF USER LIST
                       77777  UFL    COMMON  2*UF          USER FILE LIST  (1ST PARTS OF FILE NAMES)
                       75044         COMMON  1             INSERT DUMMY IF NECESSARY
                       75043         COMMON  1             DEMKEY CELL IN NON-CTSS VERSION
                       75043  KEYVAL COMMON  1
1       SUBROUTINE TO TALK TO OPERATOR AND CONVERSE UNTIL WE GET AN ANSWER                       PAGE 3

                       75042  ABANTP COMMON  1             ABANDON TAPE FILE INDICATOR
                       75041  NOCHAN COMMON  1             NO. OF CHANNELS BEING READ (1 OR 2)
                       75040  DU     COMMON  1             PROBLEM NO. OF DUMP/LOAD PACKAGE
                       75037  DP     COMMON  1             PROGRAMMER NO. OF DITTO.
                       75036  LFNA   COMMON  1             LOAD TAPE FILE NAME (PART 1)
                       75035  LFNB   COMMON  1              ,,   ,,   ,,   ,,  (PART 2)
                       75021         COMMON  11            DUMPED FILE'S PREAMBLE FROM DUMP TAPE
                       75021  PREAM  COMMON  1             DUMPED FILE'S DUMP TAPE PREAMBLE 1ST WORD
                       75020  BFNA   COMMON  1             CHANNEL B LOAD TAPE FILE NAME (PART 1)
                       75017  BFNB   COMMON  1             CHANNEL B LOAD TAPE FILE NAME (PART 2)
                       75016  AUN    COMMON  1             CHANNEL A UNIT NO.
                       75015  BUN    COMMON  1             CHANNEL B UNIT NO.
                       75014  TEOF   COMMON  1             TAPE EOF INDICATOR/WORD COUNT
                       75010         COMMON  3             LABEL OF TAPE FILE CURRENTLY BEING LOADED
                       75010  LABEL  COMMON  1             LABEL OF TAPE FILE DITTO.   1ST WORD
                       75007  X      COMMON  1             TAPE FILE POINTER
                                     END

        LITERALS
      00105  000000000017
      00106  300000000000
      00107  700000000000
1       SUBROUTINE TO TALK TO OPERATOR AND CONVERSE UNTIL WE GET AN ANSWER                       PAGE 1
                        POST PROCESSOR ASSEMBLY DATA

       75006 IS THE LAST LOCATION NOT USED BY THIS PROGRAM
        110 IS THE FIRST LOCATION NOT USED BY THIS PROGRAM

0REFERENCES TO DEFINED SYMBOLS
      75007      X   105
      75037     DP   105
      75040     DU   105
       1355     UF   105
      75016    AUN   105
      75015    BUN   105
      77777    UFL   105
         64   ASK1     6,   75
         65   ASK2     7,   74
         66   ASK3    10,   73
         67   ASK4    11,   72
         70   ASK7    12,   76
         17   BASE   105
      75020   BFNA   105
      75017   BFNB   105
        100   CKOP    22,   44,   51
          0   GETA    13
      75036   LFNA   105
      75035   LFNB   105
         30   MESS    21,   26
      75014   TEOF   105
         72  ABORT    34,   61
         64  FOUND    56,   64
      75010  LABEL   105
          2  PAUSE   105
      75021  PREAM   105
          2  SLEEP    36
          5 ABANKY   105
      75042 ABANTP   105
          6 ASKOPR     0
          3 CHLDFL   105
         10 CHREEL   105
      77462 COMRLC   105
          1 CTINUE   105
      75045 DEMKEY    14,  105
          3 GETLSG    41
      75043 KEYVAL    55,  105
          7 LSREEL   105
         20 MORMES    33,   63
      77777 NEWCOM   105
      75041 NOCHAN   105
         43 NOMTCH    60
      77461 OLDCOM   105
          1 PRCODE    27
         61 REPTMS    45,   52
         34 SNOOZE    23
          4 STOPLD   105
          6 SWCHAN   105
         71 TRAFER    47
1       SUBROUTINE TO TALK TO OPERATOR AND CONVERSE UNTIL WE GET AN ANSWER                       PAGE 2
                        POST PROCESSOR ASSEMBLY DATA

0 NO ERROR IN ABOVE ASSEMBLY.


 SLEEP   BCD 01/10/68 1514.2     404         00000
1                                                                                                PAGE 1
                           STAND-ALONE WRITE AROUND FOR SLEEP


  BINARY CARD NO. SLEEP000
                       00003         ENTRY   SLEEP
                                     EXTERN  GETIME

        TRANSFER VECTOR

  BINARY CARD NO. SLEEP001
      00000  272563314425     GETIME

            LINKAGE DIRECTOR
      00001  000000000000
      00002  624325254760

      00003  0634 00 4 00017  SLEEP  SXA     IR4,4
      00004  0131 00 0 00000         XCA
      00005  0200 00 0 00022         MPY     =60
      00006 -0600 00 0 00021         STQ     OUTIME
      00007  0074 00 4 00000         TSX     GETIME,4
      00010  0400 00 0 00021         ADD     OUTIME
      00011  0601 00 0 00021         STO     OUTIME
      00012  0074 00 4 00000  TEST   TSX     GETIME,4
      00013  0340 00 0 00021         CAS     OUTIME
      00014  0020 00 0 00017         TRA     SCRAM
      00015  0020 00 0 00017         TRA     SCRAM
      00016  0020 00 0 00012         TRA     TEST

                       00017  IR4    EQU     *
      00017  0774 00 4 00000  SCRAM  AXT     **,4
      00020  0020 00 4 00001         TRA     1,4

      00021  0 00000 0 00000  OUTIME PZE
                                     END

        LITERALS
      00022  000000000074
1                                                                                                PAGE 1
                        POST PROCESSOR ASSEMBLY DATA

         23 IS THE FIRST LOCATION NOT USED BY THIS PROGRAM

0REFERENCES TO DEFINED SYMBOLS
         17    IR4     3,   17
         12   TEST    16
         17  SCRAM    14,   15
          3  SLEEP     0
          0 GETIME     7,   12
         21 OUTIME     6,   10,   11,   13

0 NO ERROR IN ABOVE ASSEMBLY.


 GETA1   BCD 01/10/68 1514.2     223         00000
1                                                                                                PAGE 1
                           COMPATIBILITY PACKAGE FOR STAND-ALONE DAAEMON


  BINARY CARD NO. GETA1000
                       00002         ENTRY   NGETA
                       00002         ENTRY   GETA

            LINKAGE DIRECTOR

  BINARY CARD NO. GETA1001
      00000  000000000000
      00001  452725632160

                       00002  NGETA  EQU     *
      00002  0522 00 7 00001  GETA   XEC     1,7           EXECUTE INSTRUCTION
      00003  0020 00 7 00002         TRA     2,7           RETURN
                                     END
1                                                                                                PAGE 1
                        POST PROCESSOR ASSEMBLY DATA

          4 IS THE FIRST LOCATION NOT USED BY THIS PROGRAM

0REFERENCES TO DEFINED SYMBOLS
          2   GETA     0
          2  NGETA     0,    2

0 NO ERROR IN ABOVE ASSEMBLY.


 NLREC   BCD 01/10/68 1514.8    1447         00000
1     MAD PROGRAM LISTING ... ... ...                 FILE   NLREC   MAD            01/10/68    1443.5
-
                  EXTERNAL FUNCTION (NRECS,IRC,LRC,LTRC,LPREAM,LPHYS,NFLR,NLAST                   *001  000001
                1 )                                                                               *001  000002
                  ENTRY TO    NLREC .                                                             *002  000003
                  NWDS=(NRECS-1)*IRC+LRC                                                          *003  000004
                  NFLR=NWDS/LTRC                                                                  *004  000005
                  NLEFT=XMOD  .(    NWDS,LTRC)                                                    *005  000006
                  WHENEVER (NLEFT) .LE. 0, TRANSFER TO QQ0004                                     *006  000007
                  MLPH = NLEFT + LPREAM                                                           *007  000017
                  REM = MLPH - (MLPH/LPHYS)*LPHYS                                                 *008  000027
                  NLAST=(MLPH/LPHYS+(REM/REM))*LPHYS                                              *009  000037
                  TRANSFER TO QQ0005                                                              *010  000047
      QQ0004      NLAST=0                                                                         *011  000057
      QQ0005      FUNCTION RETURN                                                                 *012  000067
                  INTEGER     NWDS  ,     NRECS ,     IRC   ,     LRC                             *013  000077
                  INTEGER     NFLR  ,     LTRC  ,     NLEFT ,     XMOD                            *014  000087
                  INTEGER     NLAST ,     LPREAM,     LPHYS                                       *015  000097
                  INTEGER   MLPH,     REM                                                         *016  000107
                  END OF FUNCTION                                                                 *017  000117
1MAD PROGRAM,TYPE NOV 1963      (ALL NUMBERS ARE OCTAL)
0TOTAL LOCATIONS   00143 TRANSFER VECTOR LENGTH  00002 PROGRAM BEGINS    00014
0 PROGRAM IS AN EXTERNAL FUNCTION.   THE FOLLOWING ARE ENTRIES
      NLREC  00015   0
0VARIABLE STORAGE (A=ARRAY,C=COMMON,E=ERASABLE,DIGIT=MODE)
      MLPH   00005   1        NWDS   00007   1        QQ0004 00003   4        QQ0005 00004   4        REM    00010   1
      NLEFT  00006   1
0FUNCTION DICTIONARY
      EXIT   00000   0        XMOD   00001   1
0ABSOLUTE CONSTANTS
 00011 +000000000000     00012 +000000000001     00013 +233000000000
0STATEMENT DICTIONARY
 00003 TXL -300101000077       00004 TXL -300102000101
0PROGRAM
                 EXTERNAL FUNCTION (NRECS,IRC,LRC,LTRC,LPREAM,LPHYS,NFLR,NLAST      001   000001
                1)                                                                  001   000002
                 ENTRY TO    NLREC .                                                002   000003
 00014 TRA +0 02000 0 00017    00015 SXA +0 63400 2 00103    00016 TSX +0 07400 2 00103
                 NWDS=(NRECS-1)*IRC+LRC                                             003   000004
 00017 CLA +0 50000 0 00024    00020 SUB +0 40200 0 00012    00021 XCA +0 13100 0 00000    00022 MPY +0 20000 0 00024
 00023 XCA +0 13100 0 00000    00024 ADD +0 40000 0 00024    00025 STO +0 60100 0 00007
                 NFLR=NWDS/LTRC                                                     004   000005
 00026 LDQ +0 56000 0 00007    00027 PXD -0 75400 0 00000    00030 LLS +0 76300 0 00000    00031 DVP +0 22100 0 00024
 00032 STQ -0 60000 0 00024
                 NLEFT=XMOD  .(    NWDS,LTRC)                                       005   000006
 00033 TSX +0 07400 4 00001    00034 TXH +3 00000 0 00007    00035 TXH +3 00000 0 00024    00036 STO +0 60100 0 00006
                 WHENEVER (NLEFT) .LE. 0, TRANSFER TO QQ0004                        006   000007
 00037 CLA +0 50000 0 00006    00040 SUB +0 40200 0 00011    00041 TZE +0 10000 0 00043    00042 TPL +0 12000 0 00044
 00043 TRA +0 02000 0 00003
                 MLPH = NLEFT + LPREAM                                              007   000017
 00044 CLA +0 50000 0 00006    00045 ADD +0 40000 0 00024    00046 STO +0 60100 0 00005
                 REM = MLPH - (MLPH/LPHYS)*LPHYS                                    008   000027
 00047 LDQ +0 56000 0 00005    00050 PXD -0 75400 0 00000    00051 LLS +0 76300 0 00000    00052 DVP +0 22100 0 00024
 00053 MPY +0 20000 0 00024    00054 XCA +0 13100 0 00000    00055 CHS +0 76000 0 00002    00056 ADD +0 40000 0 00005
 00057 STO +0 60100 0 00010
                 NLAST=(MLPH/LPHYS+(REM/REM))*LPHYS                                 009   000037
 00060 LDQ +0 56000 0 00010    00061 PXD -0 75400 0 00000    00062 LLS +0 76300 0 00000    00063 DVP +0 22100 0 00010
 00064 STQ -0 60000 0 00140    00065 LDQ +0 56000 0 00005    00066 PXD -0 75400 0 00000    00067 LLS +0 76300 0 00000
 00070 DVP +0 22100 0 00024    00071 XCA +0 13100 0 00000    00072 ADD +0 40000 0 00140    00073 XCA +0 13100 0 00000
 00074 MPY +0 20000 0 00024    00075 STQ -0 60000 0 00024
                 TRANSFER TO QQ0005                                                 010   000047
 00076 TRA +0 02000 0 00004
      QQ0004     NLAST=0                                                            011   000057
 00077 CLA +0 50000 0 00011    00100 STO +0 60100 0 00024
      QQ0005     FUNCTION RETURN                                                    012   000067
 00101 TRA +0 02000 0 00134
                 INTEGER     NWDS  ,     NRECS ,     IRC   ,     LRC                013   000077
                 INTEGER     NFLR  ,     LTRC  ,     NLEFT ,     XMOD               014   000087
                 INTEGER     NLAST ,     LPREAM,     LPHYS                          015   000097
                 INTEGER   MLPH,     REM                                            016   000107
                 END OF FUNCTION                                                    017   000117
 00102 TSX +0 07400 4 00000    00103 TXH +3 00000 0 00000    00104 SXD -0 63400 1 00103    00105 SXA +0 63400 4 00134
 00106 CLA +0 50000 4 00001    00107 STA +0 62100 0 00017    00110 CLA +0 50000 4 00002    00111 STA +0 62100 0 00022
 00112 CLA +0 50000 4 00003    00113 STA +0 62100 0 00024    00114 CLA +0 50000 4 00004    00115 STA +0 62100 0 00031
 00116 STO +0 60100 0 00035    00117 CLA +0 50000 4 00005    00120 STA +0 62100 0 00045    00121 CLA +0 50000 4 00006
 00122 STA +0 62100 0 00052    00123 STA +0 62100 0 00053    00124 STA +0 62100 0 00070    00125 STA +0 62100 0 00074
 00126 CLA +0 50000 4 00007    00127 STA +0 62100 0 00032    00130 CLA +0 50000 4 00010    00131 STA +0 62100 0 00075
 00132 STA +0 62100 0 00100    00133 TRA +0 02000 2 00001    00134 AXT +0 77400 4 00000    00135 LXA +0 53400 2 00103
 00136 LXD -0 53400 1 00103    00137 TRA +0 02000 4 00001


PRCODE   BCD 01/10/68 1514.8     591         00000
1                                                                                                PAGE 1

                       00003         ENTRY   PRCODE
                                     EXTERN  WRFLX

        TRANSFER VECTOR
      00000  665126436760     WRFLX

            LINKAGE DIRECTOR
      00001  000000000000
      00002  475123462425

      00003  0634 00 1 00042  PRCODE SXA     P1,1
      00004  0634 00 4 00043         SXA     P4,4
      00005 -0500 00 4 00001         CAL     1,4
      00006  0400 00 0 00063         ADD     =O17
      00007  0322 00 0 00064         ERA     =O506060600000
      00010 -0765 00 0 00014         LGR     12
      00011 -0773 00 0 00006         RQL     6
      00012  0774 00 1 00002         AXT     2,1
      00013  0767 00 0 00003         ALS     3
      00014 -0763 00 0 00003         LGL     3
      00015  2 00001 1 00013         TIX     *-2,1,1
      00016  0602 00 0 00047         SLW     MESX+2
      00017 -0500 00 4 00002         CAL     2,4
      00020 -0734 00 1 00000         PDX     ,1
      00021 -0634 00 1 00030         SXD     INC,1
      00022 -0634 00 1 00031         SXD     INC+1,1
      00023  0634 00 1 00034         SXA     INC+4,1
      00024  1 00003 1 00025         TXI     *+1,1,3
      00025 -0634 00 1 00041         SXD     PRNT,1
      00026  0734 00 1 00000         PAX     ,1
      00027  0774 00 4 00050         AXT     MESX+3,4
      00030  1 00000 1 00031  INC    TXI     *+1,1,**
      00031  1 00000 4 00032         TXI     *+1,4,**
      00032  0634 00 1 00035         SXA     FROM,1
      00033  0634 00 4 00036         SXA     TO,4
      00034  0774 00 1 00000         AXT     **,1
      00035 -0500 00 1 00000  FROM   CAL     **,1
      00036  0602 00 1 00000  TO     SLW     **,1
      00037  2 00001 1 00035         TIX     *-2,1,1
      00040  0074 00 4 00000         TSX     WRFLX,4
      00041  0 00000 0 00045  PRNT           MESX,,**
      00042  0774 00 1 00000  P1     AXT     **,1
      00043  0774 00 4 00000  P4     AXT     **,4
      00044  0020 00 4 00003         TRA     3,4
                              *
      00045  622563604225     MESX   BCI     2,SET KEY CODE
      00046  706023462425
      00047                          BSS     12
                                     END

        LITERALS
      00063  000000000017
      00064  506060600000
1                                                                                                PAGE 1
                        POST PROCESSOR ASSEMBLY DATA

         65 IS THE FIRST LOCATION NOT USED BY THIS PROGRAM

0REFERENCES TO DEFINED SYMBOLS
         42     P1     3
         43     P4     4
         36     TO    33
         30    INC    21,   22,   23
         35   FROM    32
         45   MESX    16,   27,   41
         41   PRNT    25
          0  WRFLX    40
          3 PRCODE     0

0 NO ERROR IN ABOVE ASSEMBLY.


   IOB   BCD 01/10/68 1514.8    1314         00000
