1            MISCELLANEOUS FILE READ/WRITE ROUTINES....M.J.BAILEY,11/15/64                       PAGE 1

                              *
                       00741         ENTRY   RDMFD         READ MFD ENTRY
                       01070         ENTRY   NRDUFD
                       01101         ENTRY   RDUFD         READ PORTION OF UFD
                       01245         ENTRY   WRNF          WRITE DUMP TAPE
                       06035         ENTRY   RDF           READ PORTION OF A USER FILE
                       06161         ENTRY   IENUFD        INITIALIZE UFD ENTRY READ
                       06173         ENTRY   ENTUFD        READ UFD ENTRY FROM UFD COPY
                              *
                                     EXTERN  ATTACH,DELFIL,TAPFIL,OPEN,BUFFER
                                     EXTERN  RDFILE,FWAIT,CLOSE,WRFILE,WRFLX,MOUNT
                                     EXTERN  UMOUNT,LABEL,IODIAG
                                     INSERT  DMCRSA
                              *
                              *      MACRO TO WRITE N WORDS FROM ARRAY ET SEQ ONTO ALREADY OPENED
                              *      SECONDARY STORAGE FILE (NAME1,NAME2) AND WAIT UNTIL TRANSMITTED.
                              *
                               WSSF  MACRO   ARRAY,N,NAME1,NAME2
                                     TSX     ATTACH,4      RE-ATTACH TO DUMPER'S FILES
                                     TXH     DMPUSR
                                     TXH     DMPRGR
                                     TSX     WRFILE,4      WRITE
                                     TXH     NAME1         ONTO (NAME1,
                                     TXH     NAME2         NAME2)
                                     TXH     =0            AT POSITION WHERE LAST CEASED
                                     TIX     ARRAY,,N      FROM ARRAY THROUGH ARRAY+N-1
                                     TSX     FWAIT,4       WAIT
                                     TXH     NAME1
                                     TXH     NAME2
                               WSSF  END
                              *
                              *  ZERO-IZE A THROUGH A+X-1
                              *
                               CLEAR MACRO   A,X
                                     AXT     X,1
                                     STZ     A+X,1
                                     TIX     *-1,1,1
                               CLEAR END
                              *
                              *      MOVE X WORDS FROM A ET SEQ TO B ET SEQ
                              *
                               MOVE  MACRO   X,A,B
                                     AXT     X,1
                                     CAL     A+X,1
                                     SLW     B+X,1
                                     TIX     *-2,1,1
                               MOVE  END
                              *
                              *      PRINT ONE LINE, CLEAR BUFFER
                              *
                              PRBUFF MACRO   BUFF,NWDS
                                     SXA     *+3,4
                                     TSX     WRFLX,4
                                             BUFF,,NWDS
                                     AXT     **,4
                                     CLEAR   BUFF,NWDS
1            MISCELLANEOUS FILE READ/WRITE ROUTINES....M.J.BAILEY,11/15/64                       PAGE 2

                              PRBUFF END
                              *
                              *      PRINT STANDARD BEGINNING TO DUMPER ERROR MESSAGE
                              *
                              BGNERM MACRO   TYPE
                                     SXA     *+3,4
                                     TSX     $BERM,4
                                     PZE     TYPE
                                     AXT     **,4
                              BGNERM END
                              *
                              *  PRINT ONE LINE COMMENT
                              *
                              PRLINE MACRO   COMNT,NWC,N,WORD1,WORD2,LOC
                                     IFF     0,NWC,0
                                     MOVE    NWC,LOC,PBF
                                     IFF     N-2,N,1
                                     CAL     WORD1
                                     IFF     N-2,N,1
                                     SLW     PBF+NWC
                                     IFF     1,N,2
                                     CAL     WORD2
                                     IFF     1,N,2
                                     SLW     PBF+NWC+1
                                     PRBUFF  PBF,NWC+N
                                     RMT
                               LOC   BCI     NWC,COMNT
                                     RMT
                              PRLINE END
                              *
                              *      PRINT ONE LINE MESSAGE
                              *
                              PRMESS MACRO   MESNAM,N,ADR1,ADR2
                                     TSX     $PRLINE,4
                                     BCI     1,MESNAM
                                     IFF     N,N,N
                                     TXH     ADR1
                                     IFF     N,N,N
                                     TXH     ADR2
                              PRMESS END
                              *
                              *      MACRO TO OPEN FILE (X,Y) OF USER (A,B) FOR READING
                              *      AND ASSIGN BUFFER F OF LENGTH L TO I/O SYSTEM FOR THAT PURPOSE.
                              *        ( ERR IS TRANSFER ADDRESS FOR ERROR RETURN )
                              *
                              RDOPEN MACRO   X,Y,A,B,F,L,ERR
                                     TSX     ATTACH,4      ATTACH TO USER (A,B)
                                     TXH     A
                                     TXH     B
                                     TSX     OPEN,4        OPEN FILE (X,Y) FOR READING
                                     TXH     R
                                     TXH     X
                                     TXH     Y
                                     TXH     =0
                                     TXH     =0
                                     TXH     ERR           (TRANSFER ADDRESS FOR ERROR)
1            MISCELLANEOUS FILE READ/WRITE ROUTINES....M.J.BAILEY,11/15/64                       PAGE 3

                                     TSX     BUFFER,4      ASSIGN L WORDS OF BUFFER F TO (X,Y)
                                     TXH     X
                                     TXH     Y
                                     TIX     F,,L
                              RDOPEN END
                              *
                              *      PRINT ERROR CODE, END MESSAGE
                              *
                                ERTN MACRO   ADRERR
                                     SXA     *+2,4
                                     TSX     $ERREND,4
                                     AXT     **,4
                                     TRA     ADRERR
                                ERTN END
                              *
                              *      ASK OPERATOR TO SET KEY CODE DC IF HE WANTS
                              *      ACTION GIVEN BY N-WORD MESSAGE M
                              *
                              PRCODE MACRO   DC,M,N
                                     TSX     $PRCODE,4
                                     TXH     DC
                                     TXH     M,,N
                              PRCODE END
                              *
                              *      TEST LAST KEY SETTING VIA SUPERVISOR, GO TO JUMP IF IT IS CODE
                              *
                              TESTKY MACRO   CODE,JUMP
                                     TSX     $NGETA,7
                                     LDQ     DEMKEY
                                     STQ     KEYVAL
                                     AXT     CODE,1
                                     PXA     0,1
                                     SUB     KEYVAL
                                     TZE     JUMP
                              TESTKY END
                              *
                              *      SET UP LOGICAL TAPE RECORD WRITING
                              *
                              LOGREC MACRO   X
                                     CLA     LTPBF
                                     SUB     =12
                                     STO     TEMP
                                     CAL     X+4
                                     ANA     =O77777
                                     STO     RCOUNT
                                     TSX     $NLREC,4
                                     TXH     NORECS
                                     TXH     RCOUNT
                                     TXH     LCOUNT
                                     TXH     TEMP
                                     TXH     =12
                                     TXH     PHYSRC
                                     TXH     NFLR
                                     TXH     NLAST
                              LOGREC END
                              *
1            MISCELLANEOUS FILE READ/WRITE ROUTINES....M.J.BAILEY,11/15/64                       PAGE 4

                              *
                              ATTACH MACRO   A,B
                                     TSX     ATTACH,4
                                     TXH     A
                                     TXH     B
                              ATTACH END
                              *
                              *      PRINT ERROR MESSAGE AND INTERROGATE KEYS
                              *
                              PRERR  MACRO
                                     TSX     $PRNTER,4
                                     TSX     $GDSIG,4
                              PRERR  END
                              *
                              *
                              *  .  .  .  .  .  .  .  .  .  .  .  .  .  .  .  .  .  .  .  .
                              *  TRANSFER VECTOR, CONSTANTS, VARIABLES
                              *     FOR GENERAL DUMP ROUTINE
                              *  .  .  .  .  .  .  .  .  .  .  .  .  .  .  .  .  .  .  .  .
                              *

        TRANSFER VECTOR
      00000  216363212330     ATTACH
      00001  242543263143     DELFIL
      00002  632147263143     TAPFIL
      00003  464725456060     OPEN
      00004  226426262551     BUFFER
      00005  512426314325     RDFILE
      00006  266621316360     FWAIT
      00007  234346622560     CLOSE
      00010  665126314325     WRFILE
      00011  665126436760     WRFLX
      00012  444664456360     MOUNT
      00013  644446644563     UMOUNT
      00014  432122254360     LABEL
      00015  314624312127     IODIAG
      00016  272462312760     GDSIG
      00017  222551446060     BERM
      00020  255151254524     ERREND
      00021  475145632551     PRNTER

            LINKAGE DIRECTOR
      00022  000000000000
      00023  512444262460

      00024  0 00000 0 00660  LITB1  PZE     RECSIZ
      00025  0 00000 0 00660  LITB2  PZE     RECSIZ
      00026  0 00000 0 00004  L4     PZE     4
      00027  0 00000 0 00007  L7     PZE     7
      00030  0 00000 0 00660   LBUF  PZE     NW
      00031  0 00000 0 00003  LTAPE  PZE     TAPE
      00032  666060606060     W      BCI     1,W
      00033  236451456333     OURUFD BCI     2,CURNT.UFDFIL
      00034  642624263143
      00035  0 00000 0 00033  OURADD PZE     OURUFD
      00036  0 00000 0 00042  THRADD PZE     UFDNAM
1            MISCELLANEOUS FILE READ/WRITE ROUTINES....M.J.BAILEY,11/15/64                       PAGE 5

      00037  0761 00 0 00000  NOP    NOP
      00040  0020 00 0 01124  TRA    TRA     BOTH+4
      00041  443326332433     MFDNAM BCI     1,M.F.D.
      00042  643326332433     UFDNAM BCI     2,U.F.D.(FILE)
      00043  742631432534
      00044  516060606060          R BCI     1,R
      00045  606270626325     ERSTAT BCI     5, SYSTEM OR MACHINE ERROR.
      00046  446046516044
      00047  212330314525
      00050  602551514651
      00051  336060606060
      00052  0 00000 0 00000   CFDC  PZE     **            UBUF POINTER TO START OF NEXT UFD ENTRY
      00053  0 00000 0 00000  CFDEOF PZE     **            ZERO INDICATES EOF IN OUR COPY OF UFD
      00054  0 00000 0 00000   SW    PZE     **            SWITCH
                       00660  UBSIZ  EQU     432
      00055                    UBUF  BSS     UBSIZ
      00735  0 00000 0 00660  LUBSIZ PZE     UBSIZ
      00736  0 00000 0 00062   UBADR PZE     UBUF+5
      00737  0 00000 0 00000  EOFCTB PZE     **            NO. OF WORDS BEFORE AN EOF IN UFD COPY
      00740  0 00000 0 00010  L8     PZE     8
                              *
                              * . . . . . . . . . . . . . . . . . . . . . . . . . . . .
                              *   READ NEXT M.F.D. ENTRY INTO MFDENT ET SEQ
                              * . . . . . . . . . . . . . . . . . . . . . . . . . . . .
                              *
      00741  0634 00 4 00767  RDMFD  SXA     RMB,4
                              *
      00742  0074 00 4 00016         TSX     $GDSIG,4
      00743  0074 00 4 00000         TSX     ATTACH,4      RE-ATTACH TO USER CALLED 'M.F.D. FILE'
 TD   00744  3 00000 0 00041         TXH     MFDNAM
 TD   00745  3 00000 0 00043         TXH     UFDNAM+1
                              *
                              *
      00746  0074 00 4 00005  ZENT   TSX     RDFILE,4      READ 14 WORDS FROM START OF NEXT MFD ENTRY
 TD   00747  3 00000 0 00041         TXH     MFDNAM
 TD   00750  3 00000 0 00043         TXH     UFDNAM+1
 TD   00751  3 00000 0 62740         TXH     MFDC          WHICH STARTS AT MFDC'TH WORD IN MFD FILE
      00752  2 00740 0 64510         TIX     MFDENT,,L8    INTO MFDENT.
 TD   00753  3 00000 0 00771         TXH     RMC           EOF TRANSFER
 TD   00754  3 00000 0 62734         TXH     EOFCT
                              *
      00755  0074 00 4 00006  RMA    TSX     FWAIT,4       WAIT UNTIL TRANSMISSION COMPLETE
 TD   00756  3 00000 0 00041         TXH     MFDNAM
 TD   00757  3 00000 0 00043         TXH     UFDNAM+1      .
 TD   00760  3 00000 0 01045         TXH     ERRD          (ERROR TRANSFER ADDRESS)
                              *
      00761  0500 00 0 06556         CLA     =1            P
      00762  0400 00 0 62740         ADD     MFDC          MFDC+P
      00763  0400 00 0 06562         ADD     =6            MFDC+6+P
      00764  0601 00 0 62740         STO     MFDC          MFDC=MFDC+6+P
      00765 -0520 00 0 64510         NZT     MFDENT
      00766  0020 00 0 00746         TRA     ZENT
                              *
      00767  0774 00 4 00000   RMB   AXT     **,4
      00770  0020 00 4 00002         TRA     2,4           RETURN TO CALLER
                              *
1            MISCELLANEOUS FILE READ/WRITE ROUTINES....M.J.BAILEY,11/15/64                       PAGE 6

      00771  0600 00 0 62735   RMC   STZ     MFDEOF        INDICATE EOF IN MFD FILE
      00772  0534 00 4 62734         LXA     EOFCT,4
      00773  3 00005 4 00755         TXH     RMA,4,5       CONTINUE IF AT LEAST 6 WDS READ BEFORE EOF
                              *
      00774                          BGNERM  =HRMFD01      OTHERWISE, ERROR
      00774  0634 00 4 00777         SXA     *+3,4                                                            .001
      00775  0074 00 4 00017         TSX     $BERM,4                                                          .001
      00776  0 00000 0 06577         PZE     =HRMFD01                                                         .001
      00777  0774 00 4 00000         AXT     **,4                                                             .001
      01000                          PRLINE  ( M.F.D. READING ERROR - 5 OR LESS WORDS   ),7,0
      01000                          MOVE    7,..003,PBF                                                      .001
      01000  0774 00 1 00007         AXT     7,1                                                              .002
      01001 -0500 00 1 06414         CAL     ..003+7,1                                                        .002
      01002  0602 00 1 64535         SLW     PBF+7,1                                                          .002
      01003  2 00001 1 01001         TIX     *-2,1,1                                                          .002
      01004                          PRBUFF  PBF,7+0                                                          .001
      01004  0634 00 4 01007         SXA     *+3,4                                                            .002
      01005  0074 00 4 00011         TSX     WRFLX,4                                                          .002
      01006  0 00007 0 64526                 PBF,,7+0                                                         .002
      01007  0774 00 4 00000         AXT     **,4                                                             .002
      01010                          CLEAR   PBF,7+0                                                          .002
      01010  0774 00 1 00007         AXT     7+0,1                                                            .003
      01011  0600 00 1 64535         STZ     PBF+7+0,1                                                        .003
      01012  2 00001 1 01011         TIX     *-1,1,1                                                          .003
                                     RMT                                                                      .001
                              ..003  BCI     7, M.F.D. READING ERROR - 5 OR LESS WORDS                        .001
                                     RMT                                                                      .001
      01013                          PRLINE  ( PICKED UP BEFORE END OF FILE IN M.F.D.   ),7,0
      01013                          MOVE    7,..006,PBF                                                      .001
      01013  0774 00 1 00007         AXT     7,1                                                              .002
      01014 -0500 00 1 06423         CAL     ..006+7,1                                                        .002
      01015  0602 00 1 64535         SLW     PBF+7,1                                                          .002
      01016  2 00001 1 01014         TIX     *-2,1,1                                                          .002
      01017                          PRBUFF  PBF,7+0                                                          .001
      01017  0634 00 4 01022         SXA     *+3,4                                                            .002
      01020  0074 00 4 00011         TSX     WRFLX,4                                                          .002
      01021  0 00007 0 64526                 PBF,,7+0                                                         .002
      01022  0774 00 4 00000         AXT     **,4                                                             .002
      01023                          CLEAR   PBF,7+0                                                          .002
      01023  0774 00 1 00007         AXT     7+0,1                                                            .003
      01024  0600 00 1 64535         STZ     PBF+7+0,1                                                        .003
      01025  2 00001 1 01024         TIX     *-1,1,1                                                          .003
                                     RMT                                                                      .001
                              ..006  BCI     7, PICKED UP BEFORE END OF FILE IN M.F.D.                        .001
                                     RMT                                                                      .001
      01026                    RMD   MOVE    5,ERSTAT,PBF
      01026  0774 00 1 00005         AXT     5,1                                                              .001
      01027 -0500 00 1 00052         CAL     ERSTAT+5,1                                                       .001
      01030  0602 00 1 64533         SLW     PBF+5,1                                                          .001
      01031  2 00001 1 01027         TIX     *-2,1,1                                                          .001
      01032                          PRBUFF  PBF,5
      01032  0634 00 4 01035         SXA     *+3,4                                                            .001
      01033  0074 00 4 00011         TSX     WRFLX,4                                                          .001
      01034  0 00005 0 64526                 PBF,,5                                                           .001
      01035  0774 00 4 00000         AXT     **,4                                                             .001
      01036                          CLEAR   PBF,5                                                            .001
1            MISCELLANEOUS FILE READ/WRITE ROUTINES....M.J.BAILEY,11/15/64                       PAGE 7

      01036  0774 00 1 00005         AXT     5,1                                                              .002
      01037  0600 00 1 64533         STZ     PBF+5,1                                                          .002
      01040  2 00001 1 01037         TIX     *-1,1,1                                                          .002
      01041  0534 00 4 00767         LXA     RMB,4         SET UP ERROR RETURN - TO (1,4)
      01042  1 00001 4 01043         TXI     *+1,4,1
      01043  0634 00 4 00767         SXA     RMB,4
      01044  0020 00 0 00767         TRA     RMB
                              *
      01045                   ERRD   BGNERM  =HD           TROUBLE READING MFD IN RMFD
      01045  0634 00 4 01050         SXA     *+3,4                                                            .001
      01046  0074 00 4 00017         TSX     $BERM,4                                                          .001
      01047  0 00000 0 06573         PZE     =HD                                                              .001
      01050  0774 00 4 00000         AXT     **,4                                                             .001
      01051                          PRLINE  ( ERROR READING M.F.D. FILE.),5,0
      01051                          MOVE    5,..009,PBF                                                      .001
      01051  0774 00 1 00005         AXT     5,1                                                              .002
      01052 -0500 00 1 06430         CAL     ..009+5,1                                                        .002
      01053  0602 00 1 64533         SLW     PBF+5,1                                                          .002
      01054  2 00001 1 01052         TIX     *-2,1,1                                                          .002
      01055                          PRBUFF  PBF,5+0                                                          .001
      01055  0634 00 4 01060         SXA     *+3,4                                                            .002
      01056  0074 00 4 00011         TSX     WRFLX,4                                                          .002
      01057  0 00005 0 64526                 PBF,,5+0                                                         .002
      01060  0774 00 4 00000         AXT     **,4                                                             .002
      01061                          CLEAR   PBF,5+0                                                          .002
      01061  0774 00 1 00005         AXT     5+0,1                                                            .003
      01062  0600 00 1 64533         STZ     PBF+5+0,1                                                        .003
      01063  2 00001 1 01062         TIX     *-1,1,1                                                          .003
                                     RMT                                                                      .001
                              ..009  BCI     5, ERROR READING M.F.D. FILE.                                    .001
                                     RMT                                                                      .001
      01064                          ERTN    RMD           PRINT COMMON MESSAGE, RETURN VIA (1,4)
      01064  0634 00 4 01066         SXA     *+2,4                                                            .001
      01065  0074 00 4 00020         TSX     $ERREND,4                                                        .001
      01066  0774 00 4 00000         AXT     **,4                                                             .001
      01067  0020 00 0 01026         TRA     RMD                                                              .001

                              *
                              * . . . . . . . . . . . . . . . . . . . . . . . . . . . . . . . . . . .
                              *      READ N WORDS, FROM NEXT UNREAD POSITION OF THE ALREADY OPENED
                              *       UFD FILE OF THE USER GIVEN IN BCD IN MFDENT AND MFDENT+1,
                              *       INTO ARRAY THROUGH ARRAY+N-1. IF AN EOF IS MET, EOFCT IS SET
                              *       TO THE NO. OF WORDS READ IMMEDIATELY BEFORE THE EOF, AND
                              *       UFDEOF IS SET TO ZERO.
                              *
                              *      CALLING SEQUENCE -  TSX RDUFD,4
                              *                          TXH ARRAY
                              *                          TXH N
                              *                          (ERROR RETURN)
                              *                          (NORMAL RETURN)
                              * . . . . . . . . . . . . . . . . . . . . . . . . . . . . . . . . . . .
                              *
      01070 -0500 00 0 00040  NRDUFD CAL     TRA
      01071  0602 00 0 01120         SLW     BOTH
      01072 -0500 00 0 00035         CAL     OURADD
      01073  0621 00 0 01125         STA     RUA-3
1            MISCELLANEOUS FILE READ/WRITE ROUTINES....M.J.BAILEY,11/15/64                       PAGE 8

      01074  0621 00 0 01134         STA     RUC+1
      01075  0400 00 0 06556         ADD     =1
      01076  0621 00 0 01126         STA     RUA-2
      01077  0621 00 0 01135         STA     RUC+2
      01100  0020 00 0 01111         TRA     RDUFD+8
      01101 -0500 00 0 00037  RDUFD  CAL     NOP
      01102  0602 00 0 01120         SLW     BOTH
      01103 -0500 00 0 00036         CAL     THRADD
      01104  0621 00 0 01125         STA     RUA-3
      01105  0621 00 0 01134         STA     RUC+1
      01106  0400 00 0 06556         ADD     =1
      01107  0621 00 0 01126         STA     RUA-2
      01110  0621 00 0 01135         STA     RUC+2
      01111  0634 00 4 01140         SXA     RUD,4
      01112  0500 00 4 00001         CLA     1,4
      01113  0621 00 0 01130         STA     RUA           ARRAY ADDRESS
      01114  0500 00 4 00002         CLA     2,4
      01115  0767 00 0 00022         ALS     18
      01116  0622 00 0 01130         STD     RUA           ADDRESS OF N
                              *
      01117  0074 00 4 00016         TSX     $GDSIG,4
      01120  0 00000 0 00000  BOTH   PZE
      01121  0074 00 4 00000         TSX     ATTACH,4      RE-ATTACH TO APPROPRIATE USER
 TD   01122  3 00000 0 64510         TXH     MFDENT
 TD   01123  3 00000 0 64511         TXH     MFDENT+1
                              *
      01124  0074 00 4 00005         TSX     RDFILE,4      READ N WORDS FROM
 TD   01125  3 00000 0 00000         TXH     **            'U.F.D. FILE'
 TD   01126  3 00000 0 00000         TXH     **
 TD   01127  3 00000 0 62736         TXH     UFDC          STARTING AT THE NEXT UNREAD POSTN.
      01130  2 00000 0 00000   RUA   TIX     **,,**        INTO ARRAY THROUGH ARRAY+N-1
 TD   01131  3 00000 0 01142         TXH     RUE           EOF TRANSFER
 TD   01132  3 00000 0 62734         TXH     EOFCT
                              *
      01133  0074 00 4 00006  RUC    TSX     FWAIT,4       WAIT UNTIL TRANSMISSION COMPLETE
 TD   01134  3 00000 0 00000         TXH     **
 TD   01135  3 00000 0 00000         TXH     **
 TD   01136  3 00000 0 01144         TXH     ERRC          (ERROR TRANSFER)
                              *
      01137  0600 00 0 62736         STZ     UFDC
      01140  0774 00 4 00000   RUD   AXT     **,4
      01141  0020 00 4 00004   RUDA  TRA     4,4           RETURN TO CALLER
                              *
      01142  0600 00 0 62747   RUE   STZ     UFDEOF        INDICATE END OF FILE
      01143  0020 00 0 01133         TRA     RUC           RETURN TO WAIT FOR COMPLETION
                              *
      01144                   ERRC   BGNERM  =HC           TROUBLE READING UFD FILE
      01144  0634 00 4 01147         SXA     *+3,4                                                            .001
      01145  0074 00 4 00017         TSX     $BERM,4                                                          .001
      01146  0 00000 0 06570         PZE     =HC                                                              .001
      01147  0774 00 4 00000         AXT     **,4                                                             .001
      01150                          PRLINE  ( ERROR READING U.F.D. FILE OF FOLLOWING USER -  ),8,0
      01150                          MOVE    8,..012,PBF                                                      .001
      01150  0774 00 1 00010         AXT     8,1                                                              .002
      01151 -0500 00 1 06440         CAL     ..012+8,1                                                        .002
      01152  0602 00 1 64536         SLW     PBF+8,1                                                          .002
1            MISCELLANEOUS FILE READ/WRITE ROUTINES....M.J.BAILEY,11/15/64                       PAGE 9

      01153  2 00001 1 01151         TIX     *-2,1,1                                                          .002
      01154                          PRBUFF  PBF,8+0                                                          .001
      01154  0634 00 4 01157         SXA     *+3,4                                                            .002
      01155  0074 00 4 00011         TSX     WRFLX,4                                                          .002
      01156  0 00010 0 64526                 PBF,,8+0                                                         .002
      01157  0774 00 4 00000         AXT     **,4                                                             .002
      01160                          CLEAR   PBF,8+0                                                          .002
      01160  0774 00 1 00010         AXT     8+0,1                                                            .003
      01161  0600 00 1 64536         STZ     PBF+8+0,1                                                        .003
      01162  2 00001 1 01161         TIX     *-1,1,1                                                          .003
                                     RMT                                                                      .001
                              ..012  BCI     8, ERROR READING U.F.D. FILE OF FOLLOWING USER -                 .001
                                     RMT                                                                      .001
      01163                          PRLINE  (                        PROBLEM NO. ),6,1,MFDENT
      01163                          MOVE    6,..014,PBF                                                      .001
      01163  0774 00 1 00006         AXT     6,1                                                              .002
      01164 -0500 00 1 06446         CAL     ..014+6,1                                                        .002
      01165  0602 00 1 64534         SLW     PBF+6,1                                                          .002
      01166  2 00001 1 01164         TIX     *-2,1,1                                                          .002
      01167 -0500 00 0 64510         CAL     MFDENT                                                           .001
      01170  0602 00 0 64534         SLW     PBF+6                                                            .001
      01171                          PRBUFF  PBF,6+1                                                          .001
      01171  0634 00 4 01174         SXA     *+3,4                                                            .002
      01172  0074 00 4 00011         TSX     WRFLX,4                                                          .002
      01173  0 00007 0 64526                 PBF,,6+1                                                         .002
      01174  0774 00 4 00000         AXT     **,4                                                             .002
      01175                          CLEAR   PBF,6+1                                                          .002
      01175  0774 00 1 00007         AXT     6+1,1                                                            .003
      01176  0600 00 1 64535         STZ     PBF+6+1,1                                                        .003
      01177  2 00001 1 01176         TIX     *-1,1,1                                                          .003
                                     RMT                                                                      .001
                              ..014  BCI     6,                        PROBLEM NO.                            .001
                                     RMT                                                                      .001
      01200                          PRLINE  (                     PROGRAMMER NO. ),6,1,MFDENT+1
      01200                          MOVE    6,..016,PBF                                                      .001
      01200  0774 00 1 00006         AXT     6,1                                                              .002
      01201 -0500 00 1 06454         CAL     ..016+6,1                                                        .002
      01202  0602 00 1 64534         SLW     PBF+6,1                                                          .002
      01203  2 00001 1 01201         TIX     *-2,1,1                                                          .002
      01204 -0500 00 0 64511         CAL     MFDENT+1                                                         .001
      01205  0602 00 0 64534         SLW     PBF+6                                                            .001
      01206                          PRBUFF  PBF,6+1                                                          .001
      01206  0634 00 4 01211         SXA     *+3,4                                                            .002
      01207  0074 00 4 00011         TSX     WRFLX,4                                                          .002
      01210  0 00007 0 64526                 PBF,,6+1                                                         .002
      01211  0774 00 4 00000         AXT     **,4                                                             .002
      01212                          CLEAR   PBF,6+1                                                          .002
      01212  0774 00 1 00007         AXT     6+1,1                                                            .003
      01213  0600 00 1 64535         STZ     PBF+6+1,1                                                        .003
      01214  2 00001 1 01213         TIX     *-1,1,1                                                          .003
                                     RMT                                                                      .001
                              ..016  BCI     6,                     PROGRAMMER NO.                            .001
                                     RMT                                                                      .001
      01215                          PRLINE  ( ABANDONING THIS USER IN THE CURRENT DUMP CYCLE.),8,0
      01215                          MOVE    8,..019,PBF                                                      .001
      01215  0774 00 1 00010         AXT     8,1                                                              .002
1            MISCELLANEOUS FILE READ/WRITE ROUTINES....M.J.BAILEY,11/15/64                       PAGE 10

      01216 -0500 00 1 06464         CAL     ..019+8,1                                                        .002
      01217  0602 00 1 64536         SLW     PBF+8,1                                                          .002
      01220  2 00001 1 01216         TIX     *-2,1,1                                                          .002
      01221                          PRBUFF  PBF,8+0                                                          .001
      01221  0634 00 4 01224         SXA     *+3,4                                                            .002
      01222  0074 00 4 00011         TSX     WRFLX,4                                                          .002
      01223  0 00010 0 64526                 PBF,,8+0                                                         .002
      01224  0774 00 4 00000         AXT     **,4                                                             .002
      01225                          CLEAR   PBF,8+0                                                          .002
      01225  0774 00 1 00010         AXT     8+0,1                                                            .003
      01226  0600 00 1 64536         STZ     PBF+8+0,1                                                        .003
      01227  2 00001 1 01226         TIX     *-1,1,1                                                          .003
                                     RMT                                                                      .001
                              ..019  BCI     8, ABANDONING THIS USER IN THE CURRENT DUMP CYCLE.               .001
                                     RMT                                                                      .001
      01230                          MOVE    5,ERSTAT,PBF
      01230  0774 00 1 00005         AXT     5,1                                                              .001
      01231 -0500 00 1 00052         CAL     ERSTAT+5,1                                                       .001
      01232  0602 00 1 64533         SLW     PBF+5,1                                                          .001
      01233  2 00001 1 01231         TIX     *-2,1,1                                                          .001
      01234                          PRBUFF  PBF,5
      01234  0634 00 4 01237         SXA     *+3,4                                                            .001
      01235  0074 00 4 00011         TSX     WRFLX,4                                                          .001
      01236  0 00005 0 64526                 PBF,,5                                                           .001
      01237  0774 00 4 00000         AXT     **,4                                                             .001
      01240                          CLEAR   PBF,5                                                            .001
      01240  0774 00 1 00005         AXT     5,1                                                              .002
      01241  0600 00 1 64533         STZ     PBF+5,1                                                          .002
      01242  2 00001 1 01241         TIX     *-1,1,1                                                          .002
      01243  0534 00 4 01140         LXA     RUD,4
      01244  1 00001 4 01141         TXI     RUDA,4,1      GO TAKE ERROR EXIT (3,4)

                              *
                              * . . . . . . . . . . . . . . . . . . . . . . . . . . . . . . . . . . .
                              *      WRITE N WORDS FROM ARRAY THROUGH ARRAY+N-1 ONTO THE DUMP
                              *      PROGRAM'S ALREADY OPENED DUPLICATE DUMP TAPE FILES (CALLED
                              *      'NEW   FILES1' AND 'NEW   FILES2'), STARTING AT THE PLACE
                              *      WHERE WRITING LAST STOPPED.
                              *           CALLING SEQUENCE -  TSX  WRNF,4
                              *                               TXH  ARRAY
                              *                               TXH  N
                              * . . . . . . . . . . . . . . . . . . . . . . . . . . . . . . . . . . .
                              *
      01245  0634 00 4 01326  WRNF   SXA     WNJ,4
      01246  0634 00 1 01325         SXA     WNI,1
      01247  0500 00 4 00001         CLA     1,4           ADDRESS OF NEW MATERIAL
      01250  0621 00 0 01273         STA     WNC
      01251  0500 00 4 00002         CLA     2,4           LENGTH OF NEW MATERIAL
      01252  0621 00 0 01270         STA     WNB
                              *
      01253  0074 00 4 00016         TSX     $GDSIG,4
      01254  0074 00 4 00000         TSX     ATTACH,4      RE-ATTACH TO DAEMON
 TD   01255  3 00000 0 62727         TXH     DU
 TD   01256  3 00000 0 62726         TXH     DP
                              *
      01257  0600 00 0 05732  WNA    STZ     WSW
1            MISCELLANEOUS FILE READ/WRITE ROUTINES....M.J.BAILEY,11/15/64                       PAGE 11

      01260  0074 00 4 00006         TSX     FWAIT,4       WAIT FOR PREVIOUS WRITE
 TD   01261  3 00000 0 62723         TXH     NFN1
 TD   01262  3 00000 0 62724         TXH     NFN1+1
 TD   01263  3 00000 0 01330         TXH     WNK           ERROR DURING PREVIOUS WRITE
      01264  0074 00 4 00006         TSX     FWAIT,4       WAIT FOR PREVIOUS WRITE
 TD   01265  3 00000 0 62721         TXH     NFN2
 TD   01266  3 00000 0 62722         TXH     NFN2+1
 TD   01267  3 00000 0 01330         TXH     WNK           ERROR DURING PREVIOUS WRITE
                              *
      01270  0535 00 1 00000  WNB    LAC     **,1          O.K., MOVE NEW MATERIAL TO OUR BUFFER
      01271 -0634 00 1 01276         SXD     WND,1
      01272  0774 00 1 00000         AXT     0,1
      01273 -0500 00 1 00000  WNC    CAL     **,1
      01274  0602 00 1 01551         SLW     FBUF,1
      01275  1 77777 1 01276         TXI     *+1,1,-1
      01276  3 00000 1 01273  WND    TXH     WNC,1,**
      01277 -0500 00 0 01270         CAL     WNB
      01300  0621 00 0 01301         STA     *+1
      01301 -0500 00 0 00000         CAL     **
      01302  0767 00 0 00022         ALS     18
      01303  0622 00 0 01311         STD     WNF
      01304  0622 00 0 01320         STD     WNH
                              *
      01305  0074 00 4 00010  WNE    TSX     WRFILE,4      INITIATE WRITE FROM OUR BUFFER
 TD   01306  3 00000 0 62723         TXH     NFN1
 TD   01307  3 00000 0 62724         TXH     NFN1+1
 TD   01310  3 00000 0 06555         TXH     =0
      01311  3 00000 0 01551  WNF    TXH     FBUF,,**
 TD   01312  3 00000 0 01312         TXH     *
 TD   01313  3 00000 0 01313         TXH     *
      01314  0074 00 4 00010  WNG    TSX     WRFILE,4
 TD   01315  3 00000 0 62721         TXH     NFN2
 TD   01316  3 00000 0 62722         TXH     NFN2+1
 TD   01317  3 00000 0 06555         TXH     =0
      01320  3 00000 0 01551  WNH    TXH     FBUF,,**
 TD   01321  3 00000 0 01321         TXH     *
 TD   01322  3 00000 0 01322         TXH     *
      01323  0520 00 0 05732         ZET     WSW
      01324  0020 00 0 01257         TRA     WNA           GO WAIT FOR IT IF A RE-WRITE
                              *
      01325  0774 00 1 00000  WNI    AXT     **,1
      01326  0774 00 4 00000  WNJ    AXT     **,4
      01327  0020 00 4 00003         TRA     3,4           EXIT
                              *
      01330  0500 00 0 01330  WNK    CLA     *             ERROR DURING (NOW-COMPLETED) WRITE
      01331  0601 00 0 05732         STO     WSW
      01332  0074 00 4 00015         TSX     IODIAG,4
      01333  2 00027 0 64544         TIX     ERAY,,L7
      01334 -0500 00 0 06575         CAL     =HFWAIT
      01335 -0340 00 0 64545         LAS     ERAY+1
      01336  0020 00 0 01347         TRA     WNL
      01337  0020 00 0 01341         TRA     *+2
      01340  0020 00 0 01347         TRA     WNL
      01341  0500 00 0 64546         CLA     ERAY+2
      01342  0402 00 0 06561         SUB     =5
      01343 -0100 00 0 01347         TNZ     WNL
1            MISCELLANEOUS FILE READ/WRITE ROUTINES....M.J.BAILEY,11/15/64                       PAGE 12

      01344  0500 00 0 64547         CLA     ERAY+3
      01345  0402 00 0 06562         SUB     =6
      01346  0100 00 0 01352         TZE     WNM           SKIP IF END-OF-REEL
      01347                   WNL    PRERR
      01347  0074 00 4 00021         TSX     $PRNTER,4                                                        .001
      01350  0074 00 4 00016         TSX     $GDSIG,4                                                         .001
      01351  0020 00 0 01305         TRA     WNE           TRY AGAIN IF NOT END OF REEL
                              *
      01352                   WNM    PRLINE  ( END OF REEL ON DUMP TAPE FILE.),6,0
      01352                          MOVE    6,..022,PBF                                                      .001
      01352  0774 00 1 00006         AXT     6,1                                                              .002
      01353 -0500 00 1 06472         CAL     ..022+6,1                                                        .002
      01354  0602 00 1 64534         SLW     PBF+6,1                                                          .002
      01355  2 00001 1 01353         TIX     *-2,1,1                                                          .002
      01356                          PRBUFF  PBF,6+0                                                          .001
      01356  0634 00 4 01361         SXA     *+3,4                                                            .002
      01357  0074 00 4 00011         TSX     WRFLX,4                                                          .002
      01360  0 00006 0 64526                 PBF,,6+0                                                         .002
      01361  0774 00 4 00000         AXT     **,4                                                             .002
      01362                          CLEAR   PBF,6+0                                                          .002
      01362  0774 00 1 00006         AXT     6+0,1                                                            .003
      01363  0600 00 1 64534         STZ     PBF+6+0,1                                                        .003
      01364  2 00001 1 01363         TIX     *-1,1,1                                                          .003
                                     RMT                                                                      .001
                              ..022  BCI     6, END OF REEL ON DUMP TAPE FILE.                                .001
                                     RMT                                                                      .001
      01365  0074 00 4 00007         TSX     CLOSE,4
 TD   01366  3 00000 0 62723         TXH     NFN1
 TD   01367  3 00000 0 62724         TXH     NFN1+1
 TD   01370  3 00000 0 01365         TXH     *-3
      01371  0074 00 4 00007         TSX     CLOSE,4
 TD   01372  3 00000 0 62721         TXH     NFN2
 TD   01373  3 00000 0 62722         TXH     NFN2+1
 TD   01374  3 00000 0 01371         TXH     *-3
      01375  0074 00 4 00013         TSX     UMOUNT,4
 TD   01376  3 00000 0 06564         TXH     =11
      01377  2 05764 0 05755         TIX     MESA,,LMESA
      01400  0074 00 4 00013         TSX     UMOUNT,4
 TD   01401  3 00000 0 06565         TXH     =12
      01402  2 05774 0 05765         TIX     MESB,,LMESB
                              *
      01403  0500 00 0 60254         CLA     REELNO
      01404  0400 00 0 06557         ADD     =2
      01405  0074 00 4 06015         TSX     BINBCD,4
      01406 -0501 00 0 06601         ORA     =H    00
      01407  0602 00 0 05753         SLW     REEL+3
                              *
      01410  0074 00 4 00010         TSX     WRFILE,4      INDICATE END OF REEL ON MAP
 TD   01411  3 00000 0 06574         TXH     =HDUMPTP
 TD   01412  3 00000 0 06600         TXH     =H 'MAP'
 TD   01413  3 00000 0 06555         TXH     =0
      01414  2 05754 0 05733         TIX     EREELM,,LREELM
      01415  0074 00 4 01417         TSX     PATCH1,4
      01416  0020 00 0 01305         TRA     WNE
                              *
      01417  0634 00 4 01547  PATCH1 SXA     PXR4,4
1            MISCELLANEOUS FILE READ/WRITE ROUTINES....M.J.BAILEY,11/15/64                       PAGE 13

      01420  0074 00 4 00001         TSX     DELFIL,4
 TD   01421  3 00000 0 62723         TXH     NFN1
 TD   01422  3 00000 0 62724         TXH     NFN1+1
 TD   01423  3 00000 0 01424         TXH     *+1
      01424  0074 00 4 00002         TSX     TAPFIL,4
 TD   01425  3 00000 0 62723         TXH     NFN1
 TD   01426  3 00000 0 62724         TXH     NFN1+1
 TD   01427  3 00000 0 06564         TXH     =11
 TD   01430  3 00000 0 06555         TXH     =0
      01431  0074 00 4 00012         TSX     MOUNT,4       MOUNT AND LABEL NEW REELS
 TD   01432  3 00000 0 06556         TXH     =1
 TD   01433  3 00000 0 06564         TXH     =11
      01434  2 06004 0 05775         TIX     MESC,,LMESC
      01435  0074 00 4 00014         TSX     LABEL,4
 TD   01436  3 00000 0 06564         TXH     =11
      01437  2 00026 0 60244         TIX     TAPEID,,L4
 TD   01440  3 00000 0 01431         TXH     *-7
      01441  0074 00 4 00001         TSX     DELFIL,4
 TD   01442  3 00000 0 62721         TXH     NFN2
 TD   01443  3 00000 0 62722         TXH     NFN2+1
 TD   01444  3 00000 0 01445         TXH     *+1
      01445  0074 00 4 00002         TSX     TAPFIL,4
 TD   01446  3 00000 0 62721         TXH     NFN2
 TD   01447  3 00000 0 62722         TXH     NFN2+1
 TD   01450  3 00000 0 06565         TXH     =12
 TD   01451  3 00000 0 06555         TXH     =0
      01452  0074 00 4 00012         TSX     MOUNT,4
 TD   01453  3 00000 0 06557         TXH     =2
 TD   01454  3 00000 0 06565         TXH     =12
      01455  2 06014 0 06005         TIX     MESD,,LMESD
      01456  0074 00 4 00014         TSX     LABEL,4
 TD   01457  3 00000 0 06565         TXH     =12
      01460  2 00026 0 60244         TIX     TAPEID,,L4
 TD   01461  3 00000 0 01452         TXH     *-7
                              *
      01462  0074 00 4 00003  WNN    TSX     OPEN,4        RE-OPEN DUMP TAPE FILES
 TD   01463  3 00000 0 00032         TXH     W
 TD   01464  3 00000 0 62723         TXH     NFN1
 TD   01465  3 00000 0 62724         TXH     NFN1+1
 TD   01466  3 00000 0 06567         TXH     =O120
 TD   01467  3 00000 0 00031         TXH     LTAPE
 TD   01470  3 00000 0 01472         TXH     *+2
      01471  0020 00 0 01475         TRA     WNO
      01472                          PRERR
      01472  0074 00 4 00021         TSX     $PRNTER,4                                                        .001
      01473  0074 00 4 00016         TSX     $GDSIG,4                                                         .001
      01474  0020 00 0 01462         TRA     WNN
      01475  0074 00 4 00003  WNO    TSX     OPEN,4
 TD   01476  3 00000 0 00032         TXH     W
 TD   01477  3 00000 0 62721         TXH     NFN2
 TD   01500  3 00000 0 62722         TXH     NFN2+1
 TD   01501  3 00000 0 06567         TXH     =O120
 TD   01502  3 00000 0 00031         TXH     LTAPE
 TD   01503  3 00000 0 01505         TXH     *+2
      01504  0020 00 0 01510         TRA     WNP
      01505                          PRERR
1            MISCELLANEOUS FILE READ/WRITE ROUTINES....M.J.BAILEY,11/15/64                       PAGE 14

      01505  0074 00 4 00021         TSX     $PRNTER,4                                                        .001
      01506  0074 00 4 00016         TSX     $GDSIG,4                                                         .001
      01507  0020 00 0 01475         TRA     WNO
                              *
      01510  0074 00 4 00004  WNP    TSX     BUFFER,4
 TD   01511  3 00000 0 62723         TXH     NFN1
 TD   01512  3 00000 0 62724         TXH     NFN1+1
      01513  2 00024 0 62040         TIX     ITB1,,LITB1
      01514  0074 00 4 00004         TSX     BUFFER,4
 TD   01515  3 00000 0 62721         TXH     NFN2
 TD   01516  3 00000 0 62722         TXH     NFN2+1
      01517  2 00025 0 61160         TIX     ITB2,,LITB2
                              *
      01520  0500 00 0 60254         CLA     REELNO
      01521  0400 00 0 06556         ADD     =1
      01522  0601 00 0 60254         STO     REELNO
      01523                          MOVE    9,TAPEID,PHBUF
      01523  0774 00 1 00011         AXT     9,1                                                              .001
      01524 -0500 00 1 60255         CAL     TAPEID+9,1                                                       .001
      01525  0602 00 1 05062         SLW     PHBUF+9,1                                                        .001
      01526  2 00001 1 01524         TIX     *-2,1,1                                                          .001
      01527  0074 00 4 00010         TSX     WRFILE,4      WRITE DAEMON I.D. LABEL RECORD
 TD   01530  3 00000 0 62723         TXH     NFN1
 TD   01531  3 00000 0 62724         TXH     NFN1+1
 TD   01532  3 00000 0 06555         TXH     =0
      01533  2 05731 0 05051         TIX     PHBUF,,LPHSIZ
      01534  0074 00 4 00010         TSX     WRFILE,4
 TD   01535  3 00000 0 62721         TXH     NFN2
 TD   01536  3 00000 0 62722         TXH     NFN2+1
 TD   01537  3 00000 0 06555         TXH     =0
      01540  2 05731 0 05051         TIX     PHBUF,,LPHSIZ
      01541  0074 00 4 00006         TSX     FWAIT,4
 TD   01542  3 00000 0 62723         TXH     NFN1
 TD   01543  3 00000 0 62724         TXH     NFN1+1
      01544  0074 00 4 00006         TSX     FWAIT,4
 TD   01545  3 00000 0 62721         TXH     NFN2
 TD   01546  3 00000 0 62722         TXH     NFN2+1
      01547  0774 00 4 00000  PXR4   AXT     **,4
      01550  0020 00 4 00001         TRA     1,4
                              *
                       00660  RECSZ  EQU     432
      01551                   FBUF   BSS     4*RECSZ
      05051                   PHBUF  BSS     RECSZ
      05731  0 00000 0 00660  LPHSIZ PZE     RECSZ
      05732  0 00000 0 00000  WSW    PZE
      05733 -377777000013     EREELM OCT     777777000013
      05734  006060606060            BCI     7,0
      05735  606060606060
      05736  606060606060
      05737  606060606060
      05740  606060606060
      05741  606060606060
      05742  606060606060
      05743  545454607460            BCI     4,*** ( END OF REEL ) ***
      05744  254524604626
      05745  605125254360
1            MISCELLANEOUS FILE READ/WRITE ROUTINES....M.J.BAILEY,11/15/64                       PAGE 15

      05746  346054545460
      05747 -377777000004            OCT     777777000004
      05750  016060606060     REEL   BCI     4,1     REEL NUMBER
      05751  512525436045
      05752  644422255160
      05753  606060606060
      05754  0 00000 0 00021  LREELM PZE     *-EREELM
      05755  606445444664     MESA   BCI     7, UNMOUNT DUMP TAPE REEL ON CHANNEL A.
      05756  456360246444
      05757  476063214725
      05760  605125254360
      05761  464560233021
      05762  454525436021
      05763  336060606060
      05764  0 00000 0 00007  LMESA  PZE     *-MESA
      05765  606445444664     MESB   BCI     7, UNMOUNT DUMP TAPE REEL ON CHANNEL B.
      05766  456360246444
      05767  476063214725
      05770  605125254360
      05771  464560233021
      05772  454525436022
      05773  336060606060
      05774  0 00000 0 00007  LMESB  PZE     *-MESB
      05775  604446644563     MESC   BCI     7, MOUNT FRESH REEL ON CHANNEL A FOR DUMPER.
      05776  602651256230
      05777  605125254360
      06000  464560233021
      06001  454525436021
      06002  602646516024
      06003  644447255133
      06004  0 00000 0 00007  LMESC  PZE     *-MESC
      06005  604446644563     MESD   BCI     7, MOUNT FRESH REEL ON CHANNEL B FOR DUMPER.
      06006  602651256230
      06007  605125254360
      06010  464560233021
      06011  454525436022
      06012  602646516024
      06013  644447255133
      06014  0 00000 0 00007  LMESD  PZE     *-MESD
      06015  0634 00 4 06033  BINBCD SXA     B4,4
      06016  0634 00 1 06032         SXA     B1,1
      06017  0774 00 1 00000         AXT     0,1
      06020 -0320 00 0 06566         ANA     =O77
      06021  0402 00 0 06563         SUB     =10
      06022  0120 00 0 06024         TPL     *+2
      06023  0020 00 0 06026         TRA     *+3
      06024  1 00001 1 06025         TXI     *+1,1,1
      06025  0020 00 0 06021         TRA     *-4
      06026  0400 00 0 06563         ADD     =10
      06027 -0765 00 0 00006         LGR     6
      06030  0754 00 1 00000         PXA     ,1
      06031 -0763 00 0 00006         LGL     6
      06032  0774 00 1 00000  B1     AXT     **,1
      06033  0774 00 4 00000  B4     AXT     **,4
      06034  0020 00 4 00001         TRA     1,4
                              *
1            MISCELLANEOUS FILE READ/WRITE ROUTINES....M.J.BAILEY,11/15/64                       PAGE 16

                              * . . . . . . . . . . . . . . . . . . . . . . . . . . . . . . . . . . .
                              *      READ N WORDS FROM NEXT UNREAD POSITION OF THE ALREADY OPENED
                              *      FILE (UFDENT,UFDENT+1) OF USER (MFDENT,MFDENT+1) INTO ARRAY
                              *      THROUGH ARRAY+N-1. IF AN EOF IS MET, EOFCTA IS SET TO NO. OF
                              *      WORDS READBEFORE IT, AND FEOF IS SET TO ZERO.
                              *
                              *              CALLING SEQUENCE -  TSX  RDF,4
                              *                                  TXH  ARRAY
                              *                                  TXH  N
                              *                          (ERROR RETURN)
                              *                          (NORMAL RETURN)
                              * . . . . . . . . . . . . . . . . . . . . . . . . . . . . . . . . . . .
                              *
      06035  0634 00 4 06063  RDF    SXA     RDD,4
      06036  0500 00 4 00001         CLA     1,4
      06037  0621 00 0 06053         STA     RDA           (ARRAY)
      06040  0500 00 4 00002         CLA     2,4
      06041  0767 00 0 00022         ALS     18
      06042  0622 00 0 06053         STD     RDA           (N)
                              *
      06043  0074 00 4 00016         TSX     $GDSIG,4
      06044  0074 00 4 00000         TSX     ATTACH,4      ATTACH TO USER CURRENTLY BEING DUMPED
 TD   06045  3 00000 0 64510         TXH     MFDENT
 TD   06046  3 00000 0 64511         TXH     MFDENT+1
                              *
      06047  0074 00 4 00005         TSX     RDFILE,4      READ N WORDS FROM FILE CURRENTLY
 TD   06050  3 00000 0 62741         TXH     UFDENT         BEING DUMPED
 TD   06051  3 00000 0 62742         TXH     UFDENT+1
 TD   06052  3 00000 0 06555         TXH     =0            FROM NEXT UNREAD POSITION IN IT,
      06053  2 00000 0 00000   RDA   TIX     **,,**        INTO ARRAY THROUGH ARRAY+N-1
 TD   06054  3 00000 0 06065         TXH     RDE           END OF FILE TRANSFER ADDRESS
 TD   06055  3 00000 0 62732         TXH     EOFCTA
 TD   06056  3 00000 0 06067         TXH     ERRH          (ERROR TRANSFER ADDRESS)
                              *
      06057  0074 00 4 00006  RDC    TSX     FWAIT,4       WAIT UNTIL READING COMPLETE
 TD   06060  3 00000 0 62741         TXH     UFDENT        .
 TD   06061  3 00000 0 62742         TXH     UFDENT+1      .
 TD   06062  3 00000 0 06067         TXH     ERRH
                              *
      06063  0774 00 4 00000   RDD   AXT     **,4
      06064  0020 00 4 00004   RDDA  TRA     4,4           RETURN TO CALLER
                              *
      06065  0600 00 0 62733  RDE    STZ     FEOF          INDICATE END OF FILE OCCURRED
      06066  0020 00 0 06057         TRA     RDC           RETURN TO WAIT FOR COMPLETION
                              *
      06067                   ERRH   BGNERM  =HH           TROUBLE READING A FILE TO BE DUMPED
      06067  0634 00 4 06072         SXA     *+3,4                                                            .001
      06070  0074 00 4 00017         TSX     $BERM,4                                                          .001
      06071  0 00000 0 06576         PZE     =HH                                                              .001
      06072  0774 00 4 00000         AXT     **,4                                                             .001
      06073                          PRLINE  ( ERROR READING THE FOLLOWING FILE  -      ),7,2,UFDENT,U
                                     ETC     FDENT+1
      06073                          MOVE    7,..023,PBF                                                      .001
      06073  0774 00 1 00007         AXT     7,1                                                              .002
      06074 -0500 00 1 06501         CAL     ..023+7,1                                                        .002
      06075  0602 00 1 64535         SLW     PBF+7,1                                                          .002
1            MISCELLANEOUS FILE READ/WRITE ROUTINES....M.J.BAILEY,11/15/64                       PAGE 17

      06076  2 00001 1 06074         TIX     *-2,1,1                                                          .002
      06077 -0500 00 0 62741         CAL     UFDENT                                                           .001
      06100  0602 00 0 64535         SLW     PBF+7                                                            .001
      06101 -0500 00 0 62742         CAL     UFDENT+1                                                         .001
      06102  0602 00 0 64536         SLW     PBF+7+1                                                          .001
      06103                          PRBUFF  PBF,7+2                                                          .001
      06103  0634 00 4 06106         SXA     *+3,4                                                            .002
      06104  0074 00 4 00011         TSX     WRFLX,4                                                          .002
      06105  0 00011 0 64526                 PBF,,7+2                                                         .002
      06106  0774 00 4 00000         AXT     **,4                                                             .002
      06107                          CLEAR   PBF,7+2                                                          .002
      06107  0774 00 1 00011         AXT     7+2,1                                                            .003
      06110  0600 00 1 64537         STZ     PBF+7+2,1                                                        .003
      06111  2 00001 1 06110         TIX     *-1,1,1                                                          .003
                                     RMT                                                                      .001
                              ..023  BCI     7, ERROR READING THE FOLLOWING FILE  -                           .001
                                     RMT                                                                      .001
      06112                          PRLINE  ( IT BELONGS TO -  ),3,2,MFDENT,MFDENT+1
      06112                          MOVE    3,..024,PBF                                                      .001
      06112  0774 00 1 00003         AXT     3,1                                                              .002
      06113 -0500 00 1 06504         CAL     ..024+3,1                                                        .002
      06114  0602 00 1 64531         SLW     PBF+3,1                                                          .002
      06115  2 00001 1 06113         TIX     *-2,1,1                                                          .002
      06116 -0500 00 0 64510         CAL     MFDENT                                                           .001
      06117  0602 00 0 64531         SLW     PBF+3                                                            .001
      06120 -0500 00 0 64511         CAL     MFDENT+1                                                         .001
      06121  0602 00 0 64532         SLW     PBF+3+1                                                          .001
      06122                          PRBUFF  PBF,3+2                                                          .001
      06122  0634 00 4 06125         SXA     *+3,4                                                            .002
      06123  0074 00 4 00011         TSX     WRFLX,4                                                          .002
      06124  0 00005 0 64526                 PBF,,3+2                                                         .002
      06125  0774 00 4 00000         AXT     **,4                                                             .002
      06126                          CLEAR   PBF,3+2                                                          .002
      06126  0774 00 1 00005         AXT     3+2,1                                                            .003
      06127  0600 00 1 64533         STZ     PBF+3+2,1                                                        .003
      06130  2 00001 1 06127         TIX     *-1,1,1                                                          .003
                                     RMT                                                                      .001
                              ..024  BCI     3, IT BELONGS TO -                                               .001
                                     RMT                                                                      .001
      06131                          PRLINE  ( MOVING ON TO HIS NEXT FILE.  ),5,0
      06131                          MOVE    5,..027,PBF                                                      .001
      06131  0774 00 1 00005         AXT     5,1                                                              .002
      06132 -0500 00 1 06511         CAL     ..027+5,1                                                        .002
      06133  0602 00 1 64533         SLW     PBF+5,1                                                          .002
      06134  2 00001 1 06132         TIX     *-2,1,1                                                          .002
      06135                          PRBUFF  PBF,5+0                                                          .001
      06135  0634 00 4 06140         SXA     *+3,4                                                            .002
      06136  0074 00 4 00011         TSX     WRFLX,4                                                          .002
      06137  0 00005 0 64526                 PBF,,5+0                                                         .002
      06140  0774 00 4 00000         AXT     **,4                                                             .002
      06141                          CLEAR   PBF,5+0                                                          .002
      06141  0774 00 1 00005         AXT     5+0,1                                                            .003
      06142  0600 00 1 64533         STZ     PBF+5+0,1                                                        .003
      06143  2 00001 1 06142         TIX     *-1,1,1                                                          .003
                                     RMT                                                                      .001
                              ..027  BCI     5, MOVING ON TO HIS NEXT FILE.                                   .001
1            MISCELLANEOUS FILE READ/WRITE ROUTINES....M.J.BAILEY,11/15/64                       PAGE 18

                                     RMT                                                                      .001
      06144                          MOVE    5,ERSTAT,PBF
      06144  0774 00 1 00005         AXT     5,1                                                              .001
      06145 -0500 00 1 00052         CAL     ERSTAT+5,1                                                       .001
      06146  0602 00 1 64533         SLW     PBF+5,1                                                          .001
      06147  2 00001 1 06145         TIX     *-2,1,1                                                          .001
      06150                          PRBUFF  PBF,5
      06150  0634 00 4 06153         SXA     *+3,4                                                            .001
      06151  0074 00 4 00011         TSX     WRFLX,4                                                          .001
      06152  0 00005 0 64526                 PBF,,5                                                           .001
      06153  0774 00 4 00000         AXT     **,4                                                             .001
      06154                          CLEAR   PBF,5                                                            .001
      06154  0774 00 1 00005         AXT     5,1                                                              .002
      06155  0600 00 1 64533         STZ     PBF+5,1                                                          .002
      06156  2 00001 1 06155         TIX     *-1,1,1                                                          .002
      06157  0534 00 4 06063         LXA     RDD,4
      06160  1 00001 4 06064         TXI     RDDA,4,1      GO TAKE ERROR EXIT (3,4)

                              *
                              * . . . . . . . . . . . . . . . . . . . . . . . . . . . . . . . . . . .
                              *   READ NEXT U.F.D. ENTRY FROM BUFFER UBUF INTO UFDENT THROUGH UFDENT+5
                              *    (WHEN UBUF IS EMPTIED, REFILL IT FROM OUR COPY OF UFD FILE)
                              *
                              *    CALLING SEQUENCES -  1. TO INITIALISE,   TSX  IENUFD,4
                              *                                              (ERROR RETURN)
                              *                                              (NORMAL RETURN)
                              *
                              *                         2. NORMAL ENTRY,    TSX  ENTUFD,4
                              *                                              (ERROR RETURN)
                              *                                              (NORMAL RETURN)
                              * . . . . . . . . . . . . . . . . . . . . . . . . . . . . . . . . . . .
                              *
      06161  0500 00 0 06161  IENUFD CLA     *             ZERO CFDEOF INDICATES PHYSICAL EOF
      06162  0601 00 0 00053         STO     CFDEOF        HAS OCCURRED IN OUR COPY OF CURRENT UFD.
      06163  0601 00 0 62747         STO     UFDEOF        ZERO UFDEOF INDICATES LAST ENTRY BEEN READ
      06164  0601 00 0 00054         STO     SW            SET SWITCH NON-ZERO
      06165  0500 00 0 06560         CLA     =4            UFDC POINTS TO NEXT UNREAD ENTRY IN
      06166  0601 00 0 62736         STO     UFDC          OUR COPY OF THE UFD FILE
      06167  0634 00 1 06221         SXA     EUD,1
      06170  0634 00 2 06222         SXA     EUE,2
      06171  0634 00 4 06220         SXA     EUCA,4
      06172  0020 00 0 06230         TRA     EUG
                              *
                              *      NORMAL ENTRY
                              *
      06173  0634 00 1 06221  ENTUFD SXA     EUD,1
      06174  0634 00 2 06222         SXA     EUE,2
      06175  0634 00 4 06220         SXA     EUCA,4
      06176  0500 00 0 00736         CLA     UBADR         PREPARE ADDRESS
      06177  0400 00 0 00052         ADD     CFDC          OF 6TH WORD OF
      06200  0621 00 0 06202         STA     EUA           NEXT UFD ENTRY IN UBUF
      06201  0774 00 1 00006         AXT     6,1
      06202  0500 00 1 00000   EUA   CLA     **,1          MOVE 1ST 6 WORDS OF UFD ENTRY FROM
      06203  0601 00 1 62747         STO     UFDENT+6,1    UBUF+CFDC-1 ET SEQ TO UFDENT ET SEQ
      06204  2 00001 1 06202         TIX     EUA,1,1
                              *
1            MISCELLANEOUS FILE READ/WRITE ROUTINES....M.J.BAILEY,11/15/64                       PAGE 19

      06205  0500 00 0 06556  EUB    CLA     =1            P
      06206  0400 00 0 06562         ADD     =6            6+P
      06207  0400 00 0 00052         ADD     CFDC          CFDC+6+P
      06210  0601 00 0 00052         STO     CFDC          UPDATE CFDC BY (6+P) FOR NEXT TIME
                              *
      06211 -0520 00 0 00053         NZT     CFDEOF        HAS PHYSICAL EOF OCCURRED IN UFD FILE
      06212  0020 00 0 06253         TRA     EUJ           YES, SKIP
      06213  0500 00 0 00735         CLA     LUBSIZ        NO, SEE IF AT LEAST 6 WORDS LEFT IN UBUF
      06214  0402 00 0 06561         SUB     =5            FOR NEXT TIME
      06215  0402 00 0 00052         SUB     CFDC
      06216 -0120 00 0 06224         TMI     EUF           NO, SKIP IF CFDC .GR. (LUBSIZ-5)
      06217  0600 00 0 00054   EUC   STZ     SW            O.K., CFDC .LE. (LUBSIZ-5), ZEROISE SWITCH
      06220  0774 00 4 00000   EUCA  AXT     **,4
      06221  0774 00 1 00000   EUD   AXT     **,1
      06222  0774 00 2 00000   EUE   AXT     **,2
      06223  0020 00 4 00002         TRA     2,4           RETURN TO CALLER
                              *
      06224  0500 00 0 62736   EUF   CLA     UFDC          LESS THAN 6 WORDS LEFT IN UBUF, PREPARE
      06225  0400 00 0 00052         ADD     CFDC          TO REFILL IT -  UPDATE PHYSICAL
      06226  0402 00 0 06556         SUB     =1                            FILE POINTER.
      06227  0601 00 0 62736         STO     UFDC
                              *
      06230  0500 00 0 06556  EUG    CLA     =1            RESET CFDC TO 1
      06231  0601 00 0 00052         STO     CFDC
      06232  0074 00 4 00016         TSX     $GDSIG,4
      06233  0074 00 4 00000         TSX     ATTACH,4
 TD   06234  3 00000 0 64510         TXH     MFDENT
 TD   06235  3 00000 0 64511         TXH     MFDENT+1
      06236  0074 00 4 00005         TSX     RDFILE,4      REFILL UBUF FROM OUR COPY OF UFD FILE
 TD   06237  3 00000 0 00042         TXH     UFDNAM
 TD   06240  3 00000 0 00043         TXH     UFDNAM+1
 TD   06241  3 00000 0 62736         TXH     UFDC
      06242  2 00735 0 00055         TIX     UBUF,,LUBSIZ
 TD   06243  3 00000 0 06252         TXH     EUI           EOF TRANSFER ADDRESS
 TD   06244  3 00000 0 00737         TXH     EOFCTB
      06245  0074 00 4 00006  EUH    TSX     FWAIT,4       WAIT UNTIL TRANSMISSION COMPLETION
 TD   06246  3 00000 0 00042         TXH     UFDNAM
 TD   06247  3 00000 0 00043         TXH     UFDNAM+1
 TD   06250  3 00000 0 06403         TXH     EUM           ERROR
      06251  0020 00 0 06217         TRA     EUC           WAIT SOME MORE
                              *
      06252  0600 00 0 00053   EUI   STZ     CFDEOF        EOF
      06253  0500 00 0 00737   EUJ   CLA     EOFCTB        PHYSICAL EOF HAS BEEN DETECTED IN UFD FILE
      06254  0402 00 0 06561         SUB     =5            ARE THERE ENOUGH WORDS LEFT IN IT
      06255  0402 00 0 00052         SUB     CFDC          FOR ANOTHER ENTRY
      06256  0120 00 0 06245         TPL     EUH           CFDC .LESS. EOFCT-5, ENOUGH LEFT, GO EXIT
      06257  0400 00 0 06562         ADD     =6            NO, NO MORE ENTRIES, CHECK THAT
      06260 -0100 00 0 06271         TNZ     EUK           CFDC=EOFCT+1 .  ERROR IF NOT, SKIP
      06261  0600 00 0 62747         STZ     UFDEOF        INDICATE THIS WAS LAST ENTRY
      06262 -0520 00 0 00054         NZT     SW            FILE WAS EMPTY IF SWITCH STILL NON-ZERO
      06263  0020 00 0 06245         TRA     EUH           IT WAS NOT EMPTY, GO EXIT
                                             ERROR TREATMENT
      06264                          BGNERM  =HCUFD01
      06264  0634 00 4 06267         SXA     *+3,4                                                            .001
      06265  0074 00 4 00017         TSX     $BERM,4                                                          .001
      06266  0 00000 0 06571         PZE     =HCUFD01                                                         .001
1            MISCELLANEOUS FILE READ/WRITE ROUTINES....M.J.BAILEY,11/15/64                       PAGE 20

      06267  0774 00 4 00000         AXT     **,4                                                             .001
      06270  0020 00 0 06275         TRA     EUL
      06271                    EUK   BGNERM  =HCUFD02
      06271  0634 00 4 06274         SXA     *+3,4                                                            .001
      06272  0074 00 4 00017         TSX     $BERM,4                                                          .001
      06273  0 00000 0 06572         PZE     =HCUFD02                                                         .001
      06274  0774 00 4 00000         AXT     **,4                                                             .001
      06275                   EUL    PRLINE  ( E.O.F. DETECTED IN WRONG PLACE IN DUMP PROGRAM'S COPY),
                                     ETC     9,0
      06275                          MOVE    9,..030,PBF                                                      .001
      06275  0774 00 1 00011         AXT     9,1                                                              .002
      06276 -0500 00 1 06522         CAL     ..030+9,1                                                        .002
      06277  0602 00 1 64537         SLW     PBF+9,1                                                          .002
      06300  2 00001 1 06276         TIX     *-2,1,1                                                          .002
      06301                          PRBUFF  PBF,9+0                                                          .001
      06301  0634 00 4 06304         SXA     *+3,4                                                            .002
      06302  0074 00 4 00011         TSX     WRFLX,4                                                          .002
      06303  0 00011 0 64526                 PBF,,9+0                                                         .002
      06304  0774 00 4 00000         AXT     **,4                                                             .002
      06305                          CLEAR   PBF,9+0                                                          .002
      06305  0774 00 1 00011         AXT     9+0,1                                                            .003
      06306  0600 00 1 64537         STZ     PBF+9+0,1                                                        .003
      06307  2 00001 1 06306         TIX     *-1,1,1                                                          .003
                                     RMT                                                                      .001
                              ..030  BCI     9, E.O.F. DETECTED IN WRONG PLACE IN DUMP PROGRAM'S COPY         .001
                                     RMT                                                                      .001
      06310                          PRLINE  (  OF THE U.F.D. FOR THE FOLLOWING USER -  ),7,0
      06310                          MOVE    7,..033,PBF                                                      .001
      06310  0774 00 1 00007         AXT     7,1                                                              .002
      06311 -0500 00 1 06531         CAL     ..033+7,1                                                        .002
      06312  0602 00 1 64535         SLW     PBF+7,1                                                          .002
      06313  2 00001 1 06311         TIX     *-2,1,1                                                          .002
      06314                          PRBUFF  PBF,7+0                                                          .001
      06314  0634 00 4 06317         SXA     *+3,4                                                            .002
      06315  0074 00 4 00011         TSX     WRFLX,4                                                          .002
      06316  0 00007 0 64526                 PBF,,7+0                                                         .002
      06317  0774 00 4 00000         AXT     **,4                                                             .002
      06320                          CLEAR   PBF,7+0                                                          .002
      06320  0774 00 1 00007         AXT     7+0,1                                                            .003
      06321  0600 00 1 64535         STZ     PBF+7+0,1                                                        .003
      06322  2 00001 1 06321         TIX     *-1,1,1                                                          .003
                                     RMT                                                                      .001
                              ..033  BCI     7,  OF THE U.F.D. FOR THE FOLLOWING USER -                       .001
                                     RMT                                                                      .001
      06323                          PRLINE  (                        PROBLEM NO. ),6,1,MFDENT
      06323                          MOVE    6,..035,PBF                                                      .001
      06323  0774 00 1 00006         AXT     6,1                                                              .002
      06324 -0500 00 1 06537         CAL     ..035+6,1                                                        .002
      06325  0602 00 1 64534         SLW     PBF+6,1                                                          .002
      06326  2 00001 1 06324         TIX     *-2,1,1                                                          .002
      06327 -0500 00 0 64510         CAL     MFDENT                                                           .001
      06330  0602 00 0 64534         SLW     PBF+6                                                            .001
      06331                          PRBUFF  PBF,6+1                                                          .001
      06331  0634 00 4 06334         SXA     *+3,4                                                            .002
      06332  0074 00 4 00011         TSX     WRFLX,4                                                          .002
      06333  0 00007 0 64526                 PBF,,6+1                                                         .002
1            MISCELLANEOUS FILE READ/WRITE ROUTINES....M.J.BAILEY,11/15/64                       PAGE 21

      06334  0774 00 4 00000         AXT     **,4                                                             .002
      06335                          CLEAR   PBF,6+1                                                          .002
      06335  0774 00 1 00007         AXT     6+1,1                                                            .003
      06336  0600 00 1 64535         STZ     PBF+6+1,1                                                        .003
      06337  2 00001 1 06336         TIX     *-1,1,1                                                          .003
                                     RMT                                                                      .001
                              ..035  BCI     6,                        PROBLEM NO.                            .001
                                     RMT                                                                      .001
      06340                          PRLINE  (                     PROGRAMMER NO. ),6,1,MFDENT+1
      06340                          MOVE    6,..037,PBF                                                      .001
      06340  0774 00 1 00006         AXT     6,1                                                              .002
      06341 -0500 00 1 06545         CAL     ..037+6,1                                                        .002
      06342  0602 00 1 64534         SLW     PBF+6,1                                                          .002
      06343  2 00001 1 06341         TIX     *-2,1,1                                                          .002
      06344 -0500 00 0 64511         CAL     MFDENT+1                                                         .001
      06345  0602 00 0 64534         SLW     PBF+6                                                            .001
      06346                          PRBUFF  PBF,6+1                                                          .001
      06346  0634 00 4 06351         SXA     *+3,4                                                            .002
      06347  0074 00 4 00011         TSX     WRFLX,4                                                          .002
      06350  0 00007 0 64526                 PBF,,6+1                                                         .002
      06351  0774 00 4 00000         AXT     **,4                                                             .002
      06352                          CLEAR   PBF,6+1                                                          .002
      06352  0774 00 1 00007         AXT     6+1,1                                                            .003
      06353  0600 00 1 64535         STZ     PBF+6+1,1                                                        .003
      06354  2 00001 1 06353         TIX     *-1,1,1                                                          .003
                                     RMT                                                                      .001
                              ..037  BCI     6,                     PROGRAMMER NO.                            .001
                                     RMT                                                                      .001
      06355                          PRLINE  ( ABANDONING THIS USER IN THE CURRENT DUMP CYCLE.),8,0
      06355                          MOVE    8,..040,PBF                                                      .001
      06355  0774 00 1 00010         AXT     8,1                                                              .002
      06356 -0500 00 1 06555         CAL     ..040+8,1                                                        .002
      06357  0602 00 1 64536         SLW     PBF+8,1                                                          .002
      06360  2 00001 1 06356         TIX     *-2,1,1                                                          .002
      06361                          PRBUFF  PBF,8+0                                                          .001
      06361  0634 00 4 06364         SXA     *+3,4                                                            .002
      06362  0074 00 4 00011         TSX     WRFLX,4                                                          .002
      06363  0 00010 0 64526                 PBF,,8+0                                                         .002
      06364  0774 00 4 00000         AXT     **,4                                                             .002
      06365                          CLEAR   PBF,8+0                                                          .002
      06365  0774 00 1 00010         AXT     8+0,1                                                            .003
      06366  0600 00 1 64536         STZ     PBF+8+0,1                                                        .003
      06367  2 00001 1 06366         TIX     *-1,1,1                                                          .003
                                     RMT                                                                      .001
                              ..040  BCI     8, ABANDONING THIS USER IN THE CURRENT DUMP CYCLE.               .001
                                     RMT                                                                      .001
      06370                          MOVE    5,ERSTAT,PBF
      06370  0774 00 1 00005         AXT     5,1                                                              .001
      06371 -0500 00 1 00052         CAL     ERSTAT+5,1                                                       .001
      06372  0602 00 1 64533         SLW     PBF+5,1                                                          .001
      06373  2 00001 1 06371         TIX     *-2,1,1                                                          .001
      06374                          PRBUFF  PBF,5
      06374  0634 00 4 06377         SXA     *+3,4                                                            .001
      06375  0074 00 4 00011         TSX     WRFLX,4                                                          .001
      06376  0 00005 0 64526                 PBF,,5                                                           .001
      06377  0774 00 4 00000         AXT     **,4                                                             .001
1            MISCELLANEOUS FILE READ/WRITE ROUTINES....M.J.BAILEY,11/15/64                       PAGE 22

      06400                          CLEAR   PBF,5                                                            .001
      06400  0774 00 1 00005         AXT     5,1                                                              .002
      06401  0600 00 1 64533         STZ     PBF+5,1                                                          .002
      06402  2 00001 1 06401         TIX     *-1,1,1                                                          .002
      06403  0534 00 4 06220  EUM    LXA     EUCA,4
      06404  1 00001 4 06221         TXI     EUD,4,1
                              *
                                     INSERT  DCMEQB
                              *
                              *  .  .  .  .  .  .  .  .  .  .  .  .  .  .  .  .  .  .
                              *    COMMON AND EQUIVALENCE FOR GENERAL DUMP PROGRAM
                              *  .  .  .  .  .  .  .  .  .  .  .  .  .  .  .  .  .  .
                              *
                      075032  DEMKEY BOOL    75032         CORE A LOCATION FOR DAEMON'S KEY SETTING
                      075105  SYSTIM BOOL    75105         CORE A LOCATION FOR SYSTEM  TIME
                      075104  SYSDAT BOOL    75104         CORE A LOCATION FOR SYSTEM INIT. DATE
                      076147  RCODE  BOOL    76147         CORE A LOCATION FOR RESTRICTION CODE VECTOR
                      075040  AUTOND BOOL    75040         CORE A AUTOMATIC LOGOUT INDICATOR
                      075052  NUSERS BOOL    75052         CORE A LOGGED-IN USER COUNT
                      076426  PROBN  BOOL    76426         CORE A PROBNO ARRAY
                      076362  PROGN  BOOL    76362         CORE A PROGNO ARRAY
                      075113  PB     BOOL    75113         CORE A GUARANTEED PERCENTAGE VECTOR BASE
                      000043  N      BOOL    43            CORE A MAX. NO. OF USERS (SIZE OF PROBN)
                              *
                      000017  BASE   BOOL    17            KEY CODE BASE
                      000001  I      BOOL    1             KEY CODE TO START INCREMENTAL DUMP
                      000002  PAUSE  BOOL    2             KEY CODE TO WAIT FOR 1 MIN.
                      000003  C      BOOL    3             KEY CODE TO DO COMPLETE DUMP
                      000004  AK     BOOL    4             KEY CODE FOR IMPENDING AUTOLOGOUT
                      000005  ENFLSH BOOL    5             KEY CODE TO ENTER FLUSH MODE
                      000006  LVFLSH BOOL    6             KEY CODE TO LEAVE FLUSH MODE
                      000007  ENDTAP BOOL    7             KEY CODE TO TERMINATE DUMP TAPE FILE
                      000010  INT    BOOL    10            SIMULATE INTERRUPT
                       00660  RECSIZ EQU     432           TAPE RECORD SIZE
                       00006   NX    EQU     6             MAX. NO. OF SYSTEM FILE OWNERS
                       00030  NCD    EQU     24            MAX. NO. 'DAYS' NON-USE OF CURRENT FILES
                       00014  DINC   EQU     12            NO. DAYS OF 'RECENCY' INCREMENT (C.DUMP)
                       01274  U      EQU     700           MAX. NO. USERS IN MFD USER LIST
                       03300  TBSIZ  EQU     4*RECSIZ      TAPE BUFFER SIZE
                       00007  ERYSIZ EQU     7             I/O SYSTEM ERROR ARRAY SIZE
                       00014  ERCODA EQU     12            'OPEN' ERROR CODE FOR FILE NOT FOUND
                       00016  ERCODB EQU     14            'OPEN' ERROR CODE RQSTD. DEVICE UNAVBLE
                       00660  NW     EQU     432           SIZE OF SECONDARY I/O FILE BUFFERS
                       00001  LSDRUM EQU     1             I/O SYSTEM DEVICE CODE FOR L.S.DRUM
                       00002    DISK EQU     2             I/O SYSTEM DEVICE CODE FOR DISK
                       00003   TAPE  EQU     3             I/O SYSTEM DEVICE CODE FOR TAPE
                       00010  NHOUR  EQU     8             NO. OF HOURS IN A 'DAY'
                       77461  KEYVAL COMMON  1             LAST KEY SETTING READ FROM SUPERVISOR
                       77460  FLSHSW COMMON  1             FLUSH MODE SWITCH
                       77457  ENTPSW COMMON  1             OPERATOR-REQUESTED-END-TAPE INDICATOR
                       77456  NMFDU  COMMON  1             NO. USERS CURRENTLY IN LIST
                       77455  EXEMPT COMMON  2*NX          LIST OF SYSTEM FILE OWNERS
                       77441  NXMPT  COMMON  1             NO. FILE USERS EXEMPT FROM DUMP IN DCYCLE
                       77440  DTLD   COMMON  U             TIME LAST DUMPED FOR EACH USER
                       76144  PROGNO COMMON  U             PROGRAMMER NO. OF EACH USER
                       74650  PROBNO COMMON  U             PROBLEM NO. OF EACH USER
1            MISCELLANEOUS FILE READ/WRITE ROUTINES....M.J.BAILEY,11/15/64                       PAGE 23

                       73354   FLUSH COMMON  1             NON-ZERO INDICATES FLUSH MODE IS FORCED
                       73353   TND   COMMON  1             TIME OF NEXT DUMP FOR CURRENT USER
                       70053         COMMON  TBSIZ-1       TAPE BUFFER
                       70053  TPBUF  COMMON  1             TAPE BUFFER 1ST WORD
                       64553         COMMON  TBSIZ-1       2ND TAPE BUFFER
                       64553  TPBUF2 COMMON  1             2ND TAPE BUFFER, 1ST WORD
                       64544         COMMON  ERYSIZ-1      ERROR ARRAY
                       64544  ERAY   COMMON  1             ERROR ARRAY 1ST WORD
                       64526         COMMON  13            PRINT BUFFER
                       64526   PBF   COMMON  1             PRINT BUFFER 1ST WORD
                       64510         COMMON  13            MFD ENTRY BUFFER
                       64510  MFDENT COMMON  1             MFD ENTRY BUFFER 1ST WORD
                       63630         COMMON  NW-1          SECONDARY I/0 FILE BUFFER
                       63630   IOBUF COMMON  1             SECONDARY IO BUFFER 1ST WORD
                       62750         COMMON  NW-1          SECONDARY I/O FILE BUFFER
                       62750  IOBUF2 COMMON  1             SECONDARY I/O BUFFER 1ST WORD
                       62747  UFDEOF COMMON  1             ZERO INDICATES EOF IN UFD FILE
                       62741         COMMON  5             PARTIAL UFD ENTRY BUFFER
                       62741  UFDENT COMMON  1             PARTIAL UFD ENTRY BUFFER 1ST WORD
                       62740   MFDC  COMMON  1             NEXT WORD TO BE READ FROM MFD FILE
                       62737   TLD   COMMON  1             TIME LAST DUMP OF USER CURRENTLY DUMPING
                       62736   UFDC  COMMON  1             NEXT UNREAD POS. OF UFDFILE (NORMALLY ZERO)
                       62735  MFDEOF COMMON  1             ZERO INDICATES EOF IN MFD FILE
                       62734   EOFCT COMMON  1             NO. OF WORDS READ BEFORE AN EOF
                       62733   FEOF  COMMON  1             ZERO INDICATES EOF IN A USER FILE
                       62732  EOFCTA COMMON  1             NO. OF WORDS BEFORE AN EOF
                       62731   DMPSW COMMON  1             NON-ZERO INDICATES A FILE HAS BEEN DUMPED
                       62730   DAWN  COMMON  1             TIME OF START OF 'DAY'
                       62727  DMPUSR COMMON  1             PROBLEM NO. OF DUMP/LOAD PACKAGE
                       62726  DMPRGR COMMON  1             PROGRAMMER NO. OF  DITTO.
                       62727  DU     EQU     DMPUSR
                       62726  DP     EQU     DMPRGR
                       62725   MFD1W COMMON  1             NO. OF 1ST GOOD WORD IN MFD AND UFD FILES
                       62723         COMMON  1             2ND PART OF DUMP TAPE FILE (COPY 1) NAME
                       62723  NFN1   COMMON  1             1ST PART OF DUMP TAPE FILE (COPY 1) NAME
                       62721         COMMON  1             2ND PART OF DUMP TAPE FILE (COPY 2) NAME
                       62721   NFN2  COMMON  1             1ST PART OF DUMP TAPE FILE (COPY 2) NAME
                       62720  TNDSW  COMMON  1             INDICATES TIME OF THIS DUMP CURRENT OR NO
                       62040         COMMON  RECSIZ-1      INTERNAL TAPE BUFFER
                       62040   ITB1  COMMON  1                ,,     ,,    ,,  1ST WORD
                       61160         COMMON  RECSIZ-1      INTERNAL TAPE BUFFER
                       61160   ITB2  COMMON  1                ,,     ,,  ,,  1ST WORD
                       61157   DUSK  COMMON  1             TIME OF END OF CURRENT 'DAY'
                       61156   ENDSW COMMON  1             IF 1, NORMAL END-OF-DAY,ELSE OPERATOR ONE
                       60276         COMMON  NW-1          INTERNAL BUFFER FOR 'MAP' FILE
                       60276    IMP  COMMON  1                ,,      ,,    ,,   ,,   ,,  1ST WORD
                       60267         COMMON  6             'MAP' FILE LINE PARAMETER ARRAY
                       60267  ARGLST COMMON  1               ,,   ,,   ,,      ,,      ,,  1ST WORD
                       60266  CDSW   COMMON  1             NON-ZERO DURING COMPLETE DUMP,ELSE ZERO
                       60265  DATE   COMMON  1             DATE THE DUMP NOW IN PROGRESS BEGAN
                       60264  TIME   COMMON  1             TIME DUMP NOW IN PROGRESS BEGAN
                       60263  TCYCLE COMMON  1             'TIME' OF LAST CYCLE ON DUMP TAPE FILE
                       60262  TFOSW  COMMON  1             NON-ZERO IF DUMP TAPE FILE IS OPEN
                       60261  ALOG   COMMON  1             NON-ZERO IF AUTOLOGOUT ON
                       60260  SW1    COMMON  1
                       60257  TCP    COMMON  1
1            MISCELLANEOUS FILE READ/WRITE ROUTINES....M.J.BAILEY,11/15/64                       PAGE 24

                       60256  TNDSAV COMMON  1
                       60255  ODAWN  COMMON  1             TIME OF START OF PREVIOUS 'DAY'
                       60244         COMMON  8             TAPE LABEL
                       60244  TAPEID COMMON  1             TAPE LABEL 1ST WORD
                       60243  SKELSW COMMON  1
                       60254  REELNO EQU     TAPEID+8
                                     END
                                              REMOTE SEQUENCES
      06405  604433263324     ..003  BCI     7, M.F.D. READING ERROR - 5 OR LESS WORDS                        .001
      06406  336051252124
      06407  314527602551
      06410  514651604060
      06411  056046516043
      06412  256262606646
      06413  512462606060
      06414  604731234225     ..006  BCI     7, PICKED UP BEFORE END OF FILE IN M.F.D.                        .001
      06415  246064476022
      06416  252646512560
      06417  254524604626
      06420  602631432560
      06421  314560443326
      06422  332433606060
      06423  602551514651     ..009  BCI     5, ERROR READING M.F.D. FILE.                                    .001
      06424  605125212431
      06425  452760443326
      06426  332433602631
      06427  432533606060
      06430  602551514651     ..012  BCI     8, ERROR READING U.F.D. FILE OF FOLLOWING USER -                 .001
      06431  605125212431
      06432  452760643326
      06433  332433602631
      06434  432560462660
      06435  264643434666
      06436  314527606462
      06437  255160406060
      06440  606060606060     ..014  BCI     6,                        PROBLEM NO.                            .001
      06441  606060606060
      06442  606060606060
      06443  606060606060
      06444  475146224325
      06445  446045463360
      06446  606060606060     ..016  BCI     6,                     PROGRAMMER NO.                            .001
      06447  606060606060
      06450  606060606060
      06451  606060475146
      06452  275121444425
      06453  516045463360
      06454  602122214524     ..019  BCI     8, ABANDONING THIS USER IN THE CURRENT DUMP CYCLE.               .001
      06455  464531452760
      06456  633031626064
      06457  622551603145
      06460  606330256023
      06461  645151254563
      06462  602464444760
      06463  237023432533
      06464  602545246046     ..022  BCI     6, END OF REEL ON DUMP TAPE FILE.                                .001
1            MISCELLANEOUS FILE READ/WRITE ROUTINES....M.J.BAILEY,11/15/64                       PAGE 25

      06465  266051252543
      06466  604645602464
      06467  444760632147
      06470  256026314325
      06471  336060606060
      06472  602551514651     ..023  BCI     7, ERROR READING THE FOLLOWING FILE  -                           .001
      06473  605125212431
      06474  452760633025
      06475  602646434346
      06476  663145276026
      06477  314325606040
      06500  606060606060
      06501  603163602225     ..024  BCI     3, IT BELONGS TO -                                               .001
      06502  434645276260
      06503  634660406060
      06504  604446653145     ..027  BCI     5, MOVING ON TO HIS NEXT FILE.                                   .001
      06505  276046456063
      06506  466030316260
      06507  452567636026
      06510  314325336060
      06511  602533463326     ..030  BCI     9, E.O.F. DETECTED IN WRONG PLACE IN DUMP PROGRAMS COPY          .001
      06512  336024256325
      06513  236325246031
      06514  456066514645
      06515  276047432123
      06516  256031456024
      06517  644447604751
      06520  462751214462
      06521  602346477060
      06522  606046266063     ..033  BCI     7,  OF THE U.F.D. FOR THE FOLLOWING USER -                       .001
      06523  302560643326
      06524  332433602646
      06525  516063302560
      06526  264643434666
      06527  314527606462
      06530  255160406060
      06531  606060606060     ..035  BCI     6,                        PROBLEM NO.                            .001
      06532  606060606060
      06533  606060606060
      06534  606060606060
      06535  475146224325
      06536  446045463360
      06537  606060606060     ..037  BCI     6,                     PROGRAMMER NO.                            .001
      06540  606060606060
      06541  606060606060
      06542  606060475146
      06543  275121444425
      06544  516045463360
      06545  602122214524     ..040  BCI     8, ABANDONING THIS USER IN THE CURRENT DUMP CYCLE.               .001
      06546  464531452760
      06547  633031626064
      06550  622551603145
      06551  606330256023
      06552  645151254563
      06553  602464444760
      06554  237023432533
1            MISCELLANEOUS FILE READ/WRITE ROUTINES....M.J.BAILEY,11/15/64                       PAGE 26

        LITERALS
      06555  000000000000
      06556  000000000001
      06557  000000000002
      06560  000000000004
      06561  000000000005
      06562  000000000006
      06563  000000000012
      06564  000000000013
      06565  000000000014
      06566  000000000077
      06567  000000000120
      06570  236060606060
      06571  236426240001
      06572  236426240002
      06573  246060606060
      06574  246444476347
      06575  266621316360
      06576  306060606060
      06577  514426240001
      06600  601444214714
      06601  606060600000
1            MISCELLANEOUS FILE READ/WRITE ROUTINES....M.J.BAILEY,11/15/64                       PAGE 1
                        POST PROCESSOR ASSEMBLY DATA

       60242 IS THE LAST LOCATION NOT USED BY THIS PROGRAM
       6602 IS THE FIRST LOCATION NOT USED BY THIS PROGRAM

0REFERENCES TO DEFINED SYMBOLS
          3      C  6405
          1      I  6405
         43      N  6405
         44      R
       1274      U  6405
         32      W  1463, 1476
          4     AK  6405
       6032     B1  6016
       6033     B4  6015
      62726     DP  1256, 6405
      62727     DU  1255, 6405
         26     L4  1437, 1460
         27     L7  1333
        740     L8   752
        660     NW    30, 6405
          6     NX  6405
      75113     PB  6405
         54     SW  6164, 6217, 6262
       6202    EUA  6200, 6204
       6205    EUB
       6217    EUC  6251
       6221    EUD  6167, 6173, 6404
       6222    EUE  6170, 6174
       6224    EUF  6216
       6230    EUG  6172
       6245    EUH  6256, 6263
       6252    EUI  6243
       6253    EUJ  6212
       6271    EUK  6260
       6275    EUL  6270
       6403    EUM  6250
      60276    IMP  6405
         10    INT  6405
         30    NCD  6405
         37    NOP  1101
      64526    PBF  1002, 1006, 1011, 1015, 1021, 1024, 1030, 1034, 1037, 1053, 1057, 1062, 1152, 1156, 1161, 1165, 1170
                    1173, 1176, 1202, 1205, 1210, 1213, 1217, 1223, 1226, 1232, 1236, 1241, 1354, 1360, 1363, 6075, 6100
                    6102, 6105, 6110, 6114, 6117, 6121, 6124, 6127, 6133, 6137, 6142, 6146, 6152, 6155, 6277, 6303, 6306
                    6312, 6316, 6321, 6325, 6330, 6333, 6336, 6342, 6345, 6350, 6353, 6357, 6363, 6366, 6372, 6376, 6401
                    6405
       6053    RDA  6037, 6042
       6057    RDC  6066
       6063    RDD  6035, 6157
       6065    RDE  6054
       6035    RDF     0
        755    RMA   773
        767    RMB   741, 1041, 1043, 1044
        771    RMC   753
       1026    RMD  1067
       1130    RUA  1073, 1076, 1104, 1107, 1113, 1116
1            MISCELLANEOUS FILE READ/WRITE ROUTINES....M.J.BAILEY,11/15/64                       PAGE 2
                        POST PROCESSOR ASSEMBLY DATA

       1133    RUC  1074, 1077, 1105, 1110, 1143
       1140    RUD  1111, 1243
       1142    RUE  1131
      60260    SW1  6405
      60257    TCP  6405
      62737    TLD  6405
      73353    TND  6405
         40    TRA  1070
       1257    WNA  1324
       1270    WNB  1252, 1277
       1273    WNC  1250, 1276
       1276    WND  1271
       1305    WNE  1351, 1416
       1311    WNF  1303
       1314    WNG
       1320    WNH  1304
       1325    WNI  1246
       1326    WNJ  1245
       1330    WNK  1263, 1267
       1347    WNL  1336, 1340, 1343
       1352    WNM  1346
       1462    WNN  1474
       1475    WNO  1471, 1507
       1510    WNP  1504
       5732    WSW  1257, 1323, 1331
      60261   ALOG  6405
         17   BASE  6405
         17   BERM   775, 1046, 1145, 6070, 6265, 6272
       1120   BOTH    40, 1071, 1102
      60266   CDSW  6405
         52   CFDC  6177, 6207, 6210, 6215, 6225, 6231, 6255
      60265   DATE  6405
      62730   DAWN  6405
         14   DINC  6405
          2   DISK  6405
      77440   DTLD  6405
      61157   DUSK  6405
      64544   ERAY  1333, 1335, 1341, 1344, 6405
       1144   ERRC  1136
       1045   ERRD   760
       6067   ERRH  6056, 6062
       6220   EUCA  6171, 6175, 6403
       1551   FBUF  1274, 1311, 1320
      62733   FEOF  6065, 6405
      62040   ITB1  1513, 6405
      61160   ITB2  1517, 6405
         30   LBUF
       5755   MESA  1377, 5764
       5765   MESB  1402, 5774
       5775   MESC  1434, 6004
       6005   MESD  1455, 6014
      62740   MFDC   751,  762,  764, 6405
      62723   NFN1  1261, 1262, 1306, 1307, 1366, 1367, 1421, 1422, 1425, 1426, 1464, 1465, 1511, 1512, 1530, 1531, 1542
                    1543, 6405
      62721   NFN2  1265, 1266, 1315, 1316, 1372, 1373, 1442, 1443, 1446, 1447, 1477, 1500, 1515, 1516, 1535, 1536, 1545
1            MISCELLANEOUS FILE READ/WRITE ROUTINES....M.J.BAILEY,11/15/64                       PAGE 3
                        POST PROCESSOR ASSEMBLY DATA

                    1546, 6405
          3   OPEN  1462, 1475
       1547   PXR4  1417
       6064   RDDA  6160
       5750   REEL  1407
       1141   RUDA  1244
          3   TAPE    31, 6405
      60264   TIME  6405
         55   UBUF   736, 6242
      62736   UFDC  1127, 1137, 6166, 6224, 6227, 6241, 6405
       1245   WRNF     0
        746   ZENT   766
          7  CLOSE  1365, 1371
      62731  DMPSW  6405
      61156  ENDSW  6405
      62734  EOFCT   754,  772, 1132, 6405
      73354  FLUSH  6405
          6  FWAIT   755, 1133, 1260, 1264, 1541, 1544, 6057, 6245
         16  GDSIG   742, 1117, 1253, 1350, 1473, 1506, 6043, 6232
      63630  IOBUF  6405
       6405  ..003  1001
       6414  ..006  1014
       6423  ..009  1052
       6430  ..012  1151
       6440  ..014  1164
       6446  ..016  1201
       6454  ..019  1216
       6464  ..022  1353
       6472  ..023  6074
       6501  ..024  6113
       6504  ..027  6132
       6511  ..030  6276
       6522  ..033  6311
       6531  ..035  6324
       6537  ..037  6341
       6545  ..040  6356
         14  LABEL  1435, 1456
         24  LITB1  1513
         25  LITB2  1517
       5764  LMESA  1377
       5774  LMESB  1402
       6004  LMESC  1434
       6014  LMESD  1455
         31  LTAPE  1467, 1502
      62725  MFD1W  6405
         12  MOUNT  1431, 1452
         10  NHOUR  6405
      77456  NMFDU  6405
      77441  NXMPT  6405
      60255  ODAWN  6405
          2  PAUSE  6405
       5051  PHBUF  1525, 1533, 1540
      76426  PROBN  6405
      76362  PROGN  6405
      76147  RCODE  6405
1            MISCELLANEOUS FILE READ/WRITE ROUTINES....M.J.BAILEY,11/15/64                       PAGE 4
                        POST PROCESSOR ASSEMBLY DATA

        741  RDMFD     0
       1101  RDUFD     0, 1100
        660  RECSZ  1551, 5051, 5731
       3300  TBSIZ  6405
      60262  TFOSW  6405
      62720  TNDSW  6405
      70053  TPBUF  6405
        736  UBADR  6176
        660  UBSIZ    55,  735
         11  WRFLX  1005, 1020, 1033, 1056, 1155, 1172, 1207, 1222, 1235, 1357, 6104, 6123, 6136, 6151, 6302, 6315, 6332
                    6347, 6362, 6375
      60267 ARGLST  6405
          0 ATTACH   743, 1121, 1254, 6044, 6233
      75040 AUTOND  6405
       6015 BINBCD  1405
          4 BUFFER  1510, 1514
         53 CFDEOF  6162, 6211, 6252
          1 DELFIL  1420, 1441
      75032 DEMKEY  6405
      62726 DMPRGR  6405
      62727 DMPUSR  6405
          7 ENDTAP  6405
          5 ENFLSH  6405
      77457 ENTPSW  6405
       6173 ENTUFD     0
      62732 EOFCTA  6055, 6405
        737 EOFCTB  6244, 6253
         14 ERCODA  6405
         16 ERCODB  6405
       5733 EREELM  1414, 5754
         20 ERREND  1065
         45 ERSTAT  1027, 1231, 6145, 6371
          7 ERYSIZ  6405
      77455 EXEMPT  6405
      77460 FLSHSW  6405
       6161 IENUFD     0
      62750 IOBUF2  6405
         15 IODIAG  1332
      77461 KEYVAL  6405
       5731 LPHSIZ  1533, 1540
       5754 LREELM  1414
          1 LSDRUM  6405
        735 LUBSIZ  6213, 6242
          6 LVFLSH  6405
      64510 MFDENT   752,  765, 1122, 1123, 1167, 1204, 6045, 6046, 6116, 6120, 6234, 6235, 6327, 6344, 6405
      62735 MFDEOF   771, 6405
         41 MFDNAM   744,  747,  756
       1070 NRDUFD     0
      75052 NUSERS  6405
         35 OURADD  1072
         33 OURUFD    35
       1417 PATCH1  1415
         21 PRNTER  1347, 1472, 1505
      74650 PROBNO  6405
      76144 PROGNO  6405
1            MISCELLANEOUS FILE READ/WRITE ROUTINES....M.J.BAILEY,11/15/64                       PAGE 5
                        POST PROCESSOR ASSEMBLY DATA

          5 RDFILE   746, 1124, 6047, 6236
        660 RECSIZ    24,   25, 6405
      60254 REELNO  1403, 1520, 1522, 6405
      60243 SKELSW  6405
      75104 SYSDAT  6405
      75105 SYSTIM  6405
      60244 TAPEID  1437, 1460, 1524, 6405
          2 TAPFIL  1424, 1445
      60263 TCYCLE  6405
         36 THRADD  1103
      60256 TNDSAV  6405
      64553 TPBUF2  6405
      62741 UFDENT  6050, 6051, 6060, 6061, 6077, 6101, 6203, 6405
      62747 UFDEOF  1142, 6163, 6261, 6405
         42 UFDNAM    36,  745,  750,  757, 6237, 6240, 6246, 6247
         13 UMOUNT  1375, 1400
         10 WRFILE  1305, 1314, 1410, 1527, 1534

0 NO ERROR IN ABOVE ASSEMBLY.


DERAZB   BCD 05/28/67 1807.1    7362         00000
1            ROUTINES FOR GENERAL ERROR PROCESSING....M.J.BAILEY,11/1/64                         PAGE 1

                              *
                              *
                       00005         ENTRY   CKCODE        CHECK FOR A PARTICULAR ERROR
                       00022         ENTRY   BERM          PRINT STANDARD BEGINNING TO ERROR MESSAGE
                       00064         ENTRY   ERREND        PRINT ERROR CODE AND TERMINATE MESSAGE
                              *
                                     EXTERN  WRFLX,IODIAG
                              *
                                     INSERT  DMCRSA
                              *
                              *      MACRO TO WRITE N WORDS FROM ARRAY ET SEQ ONTO ALREADY OPENED
                              *      SECONDARY STORAGE FILE (NAME1,NAME2) AND WAIT UNTIL TRANSMITTED.
                              *
                               WSSF  MACRO   ARRAY,N,NAME1,NAME2
                                     TSX     ATTACH,4      RE-ATTACH TO DUMPER'S FILES
                                     TXH     DMPUSR
                                     TXH     DMPRGR
                                     TSX     WRFILE,4      WRITE
                                     TXH     NAME1         ONTO (NAME1,
                                     TXH     NAME2         NAME2)
                                     TXH     =0            AT POSITION WHERE LAST CEASED
                                     TIX     ARRAY,,N      FROM ARRAY THROUGH ARRAY+N-1
                                     TSX     FWAIT,4       WAIT
                                     TXH     NAME1
                                     TXH     NAME2
                               WSSF  END
                              *
                              *  ZERO-IZE A THROUGH A+X-1
                              *
                               CLEAR MACRO   A,X
                                     AXT     X,1
                                     STZ     A+X,1
                                     TIX     *-1,1,1
                               CLEAR END
                              *
                              *      MOVE X WORDS FROM A ET SEQ TO B ET SEQ
                              *
                               MOVE  MACRO   X,A,B
                                     AXT     X,1
                                     CAL     A+X,1
                                     SLW     B+X,1
                                     TIX     *-2,1,1
                               MOVE  END
                              *
                              *      PRINT ONE LINE, CLEAR BUFFER
                              *
                              PRBUFF MACRO   BUFF,NWDS
                                     SXA     *+3,4
                                     TSX     WRFLX,4
                                             BUFF,,NWDS
                                     AXT     **,4
                                     CLEAR   BUFF,NWDS
                              PRBUFF END
                              *
                              *      PRINT STANDARD BEGINNING TO DUMPER ERROR MESSAGE
                              *
1            ROUTINES FOR GENERAL ERROR PROCESSING....M.J.BAILEY,11/1/64                         PAGE 2

                              BGNERM MACRO   TYPE
                                     SXA     *+3,4
                                     TSX     $BERM,4
                                     PZE     TYPE
                                     AXT     **,4
                              BGNERM END
                              *
                              *  PRINT ONE LINE COMMENT
                              *
                              PRLINE MACRO   COMNT,NWC,N,WORD1,WORD2,LOC
                                     IFF     0,NWC,0
                                     MOVE    NWC,LOC,PBF
                                     IFF     N-2,N,1
                                     CAL     WORD1
                                     IFF     N-2,N,1
                                     SLW     PBF+NWC
                                     IFF     1,N,2
                                     CAL     WORD2
                                     IFF     1,N,2
                                     SLW     PBF+NWC+1
                                     PRBUFF  PBF,NWC+N
                                     RMT
                               LOC   BCI     NWC,COMNT
                                     RMT
                              PRLINE END
                              *
                              *      PRINT ONE LINE MESSAGE
                              *
                              PRMESS MACRO   MESNAM,N,ADR1,ADR2
                                     TSX     $PRLINE,4
                                     BCI     1,MESNAM
                                     IFF     N,N,N
                                     TXH     ADR1
                                     IFF     N,N,N
                                     TXH     ADR2
                              PRMESS END
                              *
                              *      MACRO TO OPEN FILE (X,Y) OF USER (A,B) FOR READING
                              *      AND ASSIGN BUFFER F OF LENGTH L TO I/O SYSTEM FOR THAT PURPOSE.
                              *        ( ERR IS TRANSFER ADDRESS FOR ERROR RETURN )
                              *
                              RDOPEN MACRO   X,Y,A,B,F,L,ERR
                                     TSX     ATTACH,4      ATTACH TO USER (A,B)
                                     TXH     A
                                     TXH     B
                                     TSX     OPEN,4        OPEN FILE (X,Y) FOR READING
                                     TXH     R
                                     TXH     X
                                     TXH     Y
                                     TXH     =0
                                     TXH     =0
                                     TXH     ERR           (TRANSFER ADDRESS FOR ERROR)
                                     TSX     BUFFER,4      ASSIGN L WORDS OF BUFFER F TO (X,Y)
                                     TXH     X
                                     TXH     Y
                                     TIX     F,,L
1            ROUTINES FOR GENERAL ERROR PROCESSING....M.J.BAILEY,11/1/64                         PAGE 3

                              RDOPEN END
                              *
                              *      PRINT ERROR CODE, END MESSAGE
                              *
                                ERTN MACRO   ADRERR
                                     SXA     *+2,4
                                     TSX     $ERREND,4
                                     AXT     **,4
                                     TRA     ADRERR
                                ERTN END
                              *
                              *      ASK OPERATOR TO SET KEY CODE DC IF HE WANTS
                              *      ACTION GIVEN BY N-WORD MESSAGE M
                              *
                              PRCODE MACRO   DC,M,N
                                     TSX     $PRCODE,4
                                     TXH     DC
                                     TXH     M,,N
                              PRCODE END
                              *
                              *      TEST LAST KEY SETTING VIA SUPERVISOR, GO TO JUMP IF IT IS CODE
                              *
                              TESTKY MACRO   CODE,JUMP
                                     TSX     $NGETA,7
                                     LDQ     DEMKEY
                                     STQ     KEYVAL
                                     AXT     CODE,1
                                     PXA     0,1
                                     SUB     KEYVAL
                                     TZE     JUMP
                              TESTKY END
                              *
                              *      SET UP LOGICAL TAPE RECORD WRITING
                              *
                              LOGREC MACRO   X
                                     CLA     LTPBF
                                     SUB     =12
                                     STO     TEMP
                                     CAL     X+4
                                     ANA     =O77777
                                     STO     RCOUNT
                                     TSX     $NLREC,4
                                     TXH     NORECS
                                     TXH     RCOUNT
                                     TXH     LCOUNT
                                     TXH     TEMP
                                     TXH     =12
                                     TXH     PHYSRC
                                     TXH     NFLR
                                     TXH     NLAST
                              LOGREC END
                              *
                              *
                              ATTACH MACRO   A,B
                                     TSX     ATTACH,4
                                     TXH     A
1            ROUTINES FOR GENERAL ERROR PROCESSING....M.J.BAILEY,11/1/64                         PAGE 4

                                     TXH     B
                              ATTACH END
                              *
                              *      PRINT ERROR MESSAGE AND INTERROGATE KEYS
                              *
                              PRERR  MACRO
                                     TSX     $PRNTER,4
                                     TSX     $GDSIG,4
                              PRERR  END
                              *
                              *
                              *  .  .  .  .  .  .  .  .  .  .  .  .  .  .  .  .  .  .  .  .  .
                              *      CHECK FOR OCCURRENCE OF I/O SYSTEM ERROR DEFINED BY
                              *      THE ERROR CODE GIVEN BY (2,4), IN THE I/O SYSTEM ENTRY
                              *      GIVEN BY (1,4). IF IT HAS OCCURRED, RETURN TO (4,4),
                              *      OTHERWISE TRANSFER TO LOCATION CONTAINED IN (3,4).
                              *  .  .  .  .  .  .  .  .  .  .  .  .  .  .  .  .  .  .  .  .  .
                              *

        TRANSFER VECTOR
      00000  665126436760     WRFLX
      00001  314624312127     IODIAG
      00002  222324246344     BCDDTM

            LINKAGE DIRECTOR
      00003  000000000000
      00004  234223462425

      00005  0634 00 4 00010  CKCODE SXA     *+3,4
      00006  0074 00 4 00001         TSX     IODIAG,4
      00007  2 00214 0 64544         TIX     ERAY,,LERAY
      00010  0774 00 4 00000         AXT     **,4
      00011 -0500 00 4 00001         CAL     1,4           (NAME OF OFFENDING I/O SYSTEM ENTRY)
      00012 -0340 00 0 64545         LAS     ERAY+1
      00013  0020 60 4 00003         TRA*    3,4           NO MATCH, EXIT
      00014  0020 00 0 00016         TRA     *+2
      00015  0020 60 4 00003         TRA*    3,4           NO MATCH, EXIT
      00016  0500 00 0 64546         CLA     ERAY+2
      00017  0402 00 4 00002         SUB     2,4           (ERROR CODE)
      00020  0100 00 4 00004         TZE     4,4           SUCCESSFUL MATCH,EXIT
      00021  0020 60 4 00003         TRA*    3,4           NO MATCH, EXIT
                              *
                              *  .  .  .  .  .  .  .  .  .  .  .  .  .  .  .  .  .  .  .  .  .  .  .
                              *  PRINT STANDARD BEGINNING TO ERROR MESSAGE, WITH CURRENT DATE/TIME
                              *  .  .  .  .  .  .  .  .  .  .  .  .  .  .  .  .  .  .  .  .  .  .  .
                              *
      00022  0634 00 1 00061    BERM SXA     BMX1,1
      00023  0634 00 4 00062         SXA     BMX4,4
      00024                          MOVE    6,ERRHD,PBF
      00024  0774 00 1 00006         AXT     6,1                                                              .001
      00025 -0500 00 1 00214         CAL     ERRHD+6,1                                                        .001
      00026  0602 00 1 64534         SLW     PBF+6,1                                                          .001
      00027  2 00001 1 00025         TIX     *-2,1,1                                                          .001
      00030 -0500 60 4 00001         CAL*    1,4
      00031  0602 00 0 64534         SLW     PBF+6
      00032 -0500 00 0 00226         CAL     =H
1            ROUTINES FOR GENERAL ERROR PROCESSING....M.J.BAILEY,11/1/64                         PAGE 5

      00033  0602 00 0 64535         SLW     PBF+7
      00034  0074 00 4 00002         TSX     $BCDDTM,4
      00035  0602 00 0 64536         SLW     PBF+8
      00036 -0500 00 0 00226         CAL     =H
      00037  0602 00 0 64537         SLW     PBF+9
      00040 -0763 00 0 00014         LGL     12
      00041  0767 00 0 00006         ALS     6
      00042 -0501 00 0 00223         ORA     =H00000/
      00043 -0763 00 0 00014         LGL     12
      00044  0767 00 0 00006         ALS     6
      00045 -0501 00 0 00223         ORA     =H00000/
      00046  0602 00 0 64540         SLW     PBF+10
      00047 -0130 00 0 00000         XCL
      00050 -0501 00 0 00224         ORA     =H00
      00051  0602 00 0 64541         SLW     PBF+11
      00052                          PRBUFF  PBF,12
      00052  0634 00 4 00055         SXA     *+3,4                                                            .001
      00053  0074 00 4 00000         TSX     WRFLX,4                                                          .001
      00054  0 00014 0 64526                 PBF,,12                                                          .001
      00055  0774 00 4 00000         AXT     **,4                                                             .001
      00056                          CLEAR   PBF,12                                                           .001
      00056  0774 00 1 00014         AXT     12,1                                                             .002
      00057  0600 00 1 64542         STZ     PBF+12,1                                                         .002
      00060  2 00001 1 00057         TIX     *-1,1,1                                                          .002
      00061  0774 00 1 00000   BMX1  AXT     **,1
      00062  0774 00 4 00000   BMX4  AXT     **,4
      00063  0020 00 4 00002         TRA     2,4
                              *
                              *  .  .  .  .  .  .  .  .  .  .  .  .  .  .  .  .  .  .  .  .  .  .
                              *      PRINT ERROR CODE AND STANDARD ERROR MESSAGE ENDING
                              *  .  .  .  .  .  .  .  .  .  .  .  .  .  .  .  .  .  .  .  .  .  .
                              *
      00064  0634 00 4 00175  ERREND SXA     ERND4,4
      00065  0634 00 1 00176         SXA     ERND1,1
      00066  0074 00 4 00001         TSX     IODIAG,4
      00067  2 00214 0 64544         TIX     ERAY,,LERAY
      00070 -0500 00 0 64546         CAL     ERAY+2
      00071 -0765 00 0 00003         LGR     3
      00072  0767 00 0 00003         ALS     3
      00073 -0763 00 0 00003         LGL     3
      00074  0560 00 0 00225         LDQ     =H OCT
      00075 -0763 00 0 00030         LGL     24
      00076  0602 00 0 00200         SLW     ERTEMP
      00077                          PRLINE  ( CODE ),1,2,ERAY+1,ERTEMP
      00077                          MOVE    1,..001,PBF                                                      .001
      00077  0774 00 1 00001         AXT     1,1                                                              .002
      00100 -0500 00 1 00216         CAL     ..001+1,1                                                        .002
      00101  0602 00 1 64527         SLW     PBF+1,1                                                          .002
      00102  2 00001 1 00100         TIX     *-2,1,1                                                          .002
      00103 -0500 00 0 64545         CAL     ERAY+1                                                           .001
      00104  0602 00 0 64527         SLW     PBF+1                                                            .001
      00105 -0500 00 0 00200         CAL     ERTEMP                                                           .001
      00106  0602 00 0 64530         SLW     PBF+1+1                                                          .001
      00107                          PRBUFF  PBF,1+2                                                          .001
      00107  0634 00 4 00112         SXA     *+3,4                                                            .002
      00110  0074 00 4 00000         TSX     WRFLX,4                                                          .002
1            ROUTINES FOR GENERAL ERROR PROCESSING....M.J.BAILEY,11/1/64                         PAGE 6

      00111  0 00003 0 64526                 PBF,,1+2                                                         .002
      00112  0774 00 4 00000         AXT     **,4                                                             .002
      00113                          CLEAR   PBF,1+2                                                          .002
      00113  0774 00 1 00003         AXT     1+2,1                                                            .003
      00114  0600 00 1 64531         STZ     PBF+1+2,1                                                        .003
      00115  2 00001 1 00114         TIX     *-1,1,1                                                          .003
                                     RMT                                                                      .001
                              ..001  BCI     1, CODE                                                          .001
                                     RMT                                                                      .001
      00116 -0500 00 0 64547         CAL     ERAY+3        I/O ERROR TYPE
      00117  0100 00 0 00143         TZE     ERA           SKIP IF NOT I/O ERROR
      00120 -0765 00 0 00003         LGR     3
      00121  0767 00 0 00003         ALS     3
      00122 -0763 00 0 00003         LGL     3
      00123  0560 00 0 00225         LDQ     =H OCT
      00124 -0763 00 0 00030         LGL     24
      00125  0602 00 0 00200         SLW     ERTEMP
      00126                          PRLINE  ( I/O ERROR TYPE  ),3,1,ERTEMP
      00126                          MOVE    3,..003,PBF                                                      .001
      00126  0774 00 1 00003         AXT     3,1                                                              .002
      00127 -0500 00 1 00221         CAL     ..003+3,1                                                        .002
      00130  0602 00 1 64531         SLW     PBF+3,1                                                          .002
      00131  2 00001 1 00127         TIX     *-2,1,1                                                          .002
      00132 -0500 00 0 00200         CAL     ERTEMP                                                           .001
      00133  0602 00 0 64531         SLW     PBF+3                                                            .001
      00134                          PRBUFF  PBF,3+1                                                          .001
      00134  0634 00 4 00137         SXA     *+3,4                                                            .002
      00135  0074 00 4 00000         TSX     WRFLX,4                                                          .002
      00136  0 00004 0 64526                 PBF,,3+1                                                         .002
      00137  0774 00 4 00000         AXT     **,4                                                             .002
      00140                          CLEAR   PBF,3+1                                                          .002
      00140  0774 00 1 00004         AXT     3+1,1                                                            .003
      00141  0600 00 1 64532         STZ     PBF+3+1,1                                                        .003
      00142  2 00001 1 00141         TIX     *-1,1,1                                                          .003
                                     RMT                                                                      .001
                              ..003  BCI     3, I/O ERROR TYPE                                                .001
                                     RMT                                                                      .001
      00143                   ERA    PRLINE  ( FILE NAME  ),2,2,ERAY+4,ERAY+5
      00143                          MOVE    2,..004,PBF                                                      .001
      00143  0774 00 1 00002         AXT     2,1                                                              .002
      00144 -0500 00 1 00223         CAL     ..004+2,1                                                        .002
      00145  0602 00 1 64530         SLW     PBF+2,1                                                          .002
      00146  2 00001 1 00144         TIX     *-2,1,1                                                          .002
      00147 -0500 00 0 64550         CAL     ERAY+4                                                           .001
      00150  0602 00 0 64530         SLW     PBF+2                                                            .001
      00151 -0500 00 0 64551         CAL     ERAY+5                                                           .001
      00152  0602 00 0 64531         SLW     PBF+2+1                                                          .001
      00153                          PRBUFF  PBF,2+2                                                          .001
      00153  0634 00 4 00156         SXA     *+3,4                                                            .002
      00154  0074 00 4 00000         TSX     WRFLX,4                                                          .002
      00155  0 00004 0 64526                 PBF,,2+2                                                         .002
      00156  0774 00 4 00000         AXT     **,4                                                             .002
      00157                          CLEAR   PBF,2+2                                                          .002
      00157  0774 00 1 00004         AXT     2+2,1                                                            .003
      00160  0600 00 1 64532         STZ     PBF+2+2,1                                                        .003
      00161  2 00001 1 00160         TIX     *-1,1,1                                                          .003
1            ROUTINES FOR GENERAL ERROR PROCESSING....M.J.BAILEY,11/1/64                         PAGE 7

                                     RMT                                                                      .001
                              ..004  BCI     2, FILE NAME                                                     .001
                                     RMT                                                                      .001
      00162                          MOVE    5,ERSTAT,PBF
      00162  0774 00 1 00005         AXT     5,1                                                              .001
      00163 -0500 00 1 00206         CAL     ERSTAT+5,1                                                       .001
      00164  0602 00 1 64533         SLW     PBF+5,1                                                          .001
      00165  2 00001 1 00163         TIX     *-2,1,1                                                          .001
      00166                          PRBUFF  PBF,5
      00166  0634 00 4 00171         SXA     *+3,4                                                            .001
      00167  0074 00 4 00000         TSX     WRFLX,4                                                          .001
      00170  0 00005 0 64526                 PBF,,5                                                           .001
      00171  0774 00 4 00000         AXT     **,4                                                             .001
      00172                          CLEAR   PBF,5                                                            .001
      00172  0774 00 1 00005         AXT     5,1                                                              .002
      00173  0600 00 1 64533         STZ     PBF+5,1                                                          .002
      00174  2 00001 1 00173         TIX     *-1,1,1                                                          .002
      00175  0774 00 4 00000  ERND4  AXT     **,4
      00176  0774 00 1 00000  ERND1  AXT     **,1
      00177  0020 00 4 00001         TRA     1,4
      00200  0 00000 0 00000  ERTEMP PZE
                              *
      00201  606270626325     ERSTAT BCI     5, SYSTEM OR MACHINE ERROR.
      00202  446046516044
      00203  212330314525
      00204  602551514651
      00205  336060606060
      00206  606027254525     ERRHD  BCI     6,  GENERAL DUMP PROGRAM ERROR, TYPE
      00207  512143602464
      00210  444760475146
      00211  275121446025
      00212  515146517360
      00213  637047256060
      00214  0 00000 0 00007  LERAY  PZE     ERYSIZ        SIZE OF ERROR ARRAY
                              *
                                     INSERT  DCMEQB
                              *
                              *  .  .  .  .  .  .  .  .  .  .  .  .  .  .  .  .  .  .
                              *    COMMON AND EQUIVALENCE FOR GENERAL DUMP PROGRAM
                              *  .  .  .  .  .  .  .  .  .  .  .  .  .  .  .  .  .  .
                              *
                      075032  DEMKEY BOOL    75032         CORE A LOCATION FOR DAEMON'S KEY SETTING
                      075105  SYSTIM BOOL    75105         CORE A LOCATION FOR SYSTEM  TIME
                      075104  SYSDAT BOOL    75104         CORE A LOCATION FOR SYSTEM INIT. DATE
                      076147  RCODE  BOOL    76147         CORE A LOCATION FOR RESTRICTION CODE VECTOR
                      075040  AUTOND BOOL    75040         CORE A AUTOMATIC LOGOUT INDICATOR
                      075052  NUSERS BOOL    75052         CORE A LOGGED-IN USER COUNT
                      076426  PROBN  BOOL    76426         CORE A PROBNO ARRAY
                      076362  PROGN  BOOL    76362         CORE A PROGNO ARRAY
                      075113  PB     BOOL    75113         CORE A GUARANTEED PERCENTAGE VECTOR BASE
                      000043  N      BOOL    43            CORE A MAX. NO. OF USERS (SIZE OF PROBN)
                              *
                      000017  BASE   BOOL    17            KEY CODE BASE
                      000001  I      BOOL    1             KEY CODE TO START INCREMENTAL DUMP
                      000002  PAUSE  BOOL    2             KEY CODE TO WAIT FOR 1 MIN.
                      000003  C      BOOL    3             KEY CODE TO DO COMPLETE DUMP
1            ROUTINES FOR GENERAL ERROR PROCESSING....M.J.BAILEY,11/1/64                         PAGE 8

                      000004  AK     BOOL    4             KEY CODE FOR IMPENDING AUTOLOGOUT
                      000005  ENFLSH BOOL    5             KEY CODE TO ENTER FLUSH MODE
                      000006  LVFLSH BOOL    6             KEY CODE TO LEAVE FLUSH MODE
                      000007  ENDTAP BOOL    7             KEY CODE TO TERMINATE DUMP TAPE FILE
                      000010  INT    BOOL    10            SIMULATE INTERRUPT
                       00660  RECSIZ EQU     432           TAPE RECORD SIZE
                       00006   NX    EQU     6             MAX. NO. OF SYSTEM FILE OWNERS
                       00030  NCD    EQU     24            MAX. NO. 'DAYS' NON-USE OF CURRENT FILES
                       00014  DINC   EQU     12            NO. DAYS OF 'RECENCY' INCREMENT (C.DUMP)
                       01274  U      EQU     700           MAX. NO. USERS IN MFD USER LIST
                       03300  TBSIZ  EQU     4*RECSIZ      TAPE BUFFER SIZE
                       00007  ERYSIZ EQU     7             I/O SYSTEM ERROR ARRAY SIZE
                       00014  ERCODA EQU     12            'OPEN' ERROR CODE FOR FILE NOT FOUND
                       00016  ERCODB EQU     14            'OPEN' ERROR CODE RQSTD. DEVICE UNAVBLE
                       00660  NW     EQU     432           SIZE OF SECONDARY I/O FILE BUFFERS
                       00001  LSDRUM EQU     1             I/O SYSTEM DEVICE CODE FOR L.S.DRUM
                       00002    DISK EQU     2             I/O SYSTEM DEVICE CODE FOR DISK
                       00003   TAPE  EQU     3             I/O SYSTEM DEVICE CODE FOR TAPE
                       00010  NHOUR  EQU     8             NO. OF HOURS IN A 'DAY'
                       77461  KEYVAL COMMON  1             LAST KEY SETTING READ FROM SUPERVISOR
                       77460  FLSHSW COMMON  1             FLUSH MODE SWITCH
                       77457  ENTPSW COMMON  1             OPERATOR-REQUESTED-END-TAPE INDICATOR
                       77456  NMFDU  COMMON  1             NO. USERS CURRENTLY IN LIST
                       77455  EXEMPT COMMON  2*NX          LIST OF SYSTEM FILE OWNERS
                       77441  NXMPT  COMMON  1             NO. FILE USERS EXEMPT FROM DUMP IN DCYCLE
                       77440  DTLD   COMMON  U             TIME LAST DUMPED FOR EACH USER
                       76144  PROGNO COMMON  U             PROGRAMMER NO. OF EACH USER
                       74650  PROBNO COMMON  U             PROBLEM NO. OF EACH USER
                       73354   FLUSH COMMON  1             NON-ZERO INDICATES FLUSH MODE IS FORCED
                       73353   TND   COMMON  1             TIME OF NEXT DUMP FOR CURRENT USER
                       70053         COMMON  TBSIZ-1       TAPE BUFFER
                       70053  TPBUF  COMMON  1             TAPE BUFFER 1ST WORD
                       64553         COMMON  TBSIZ-1       2ND TAPE BUFFER
                       64553  TPBUF2 COMMON  1             2ND TAPE BUFFER, 1ST WORD
                       64544         COMMON  ERYSIZ-1      ERROR ARRAY
                       64544  ERAY   COMMON  1             ERROR ARRAY 1ST WORD
                       64526         COMMON  13            PRINT BUFFER
                       64526   PBF   COMMON  1             PRINT BUFFER 1ST WORD
                       64510         COMMON  13            MFD ENTRY BUFFER
                       64510  MFDENT COMMON  1             MFD ENTRY BUFFER 1ST WORD
                       63630         COMMON  NW-1          SECONDARY I/0 FILE BUFFER
                       63630   IOBUF COMMON  1             SECONDARY IO BUFFER 1ST WORD
                       62750         COMMON  NW-1          SECONDARY I/O FILE BUFFER
                       62750  IOBUF2 COMMON  1             SECONDARY I/O BUFFER 1ST WORD
                       62747  UFDEOF COMMON  1             ZERO INDICATES EOF IN UFD FILE
                       62741         COMMON  5             PARTIAL UFD ENTRY BUFFER
                       62741  UFDENT COMMON  1             PARTIAL UFD ENTRY BUFFER 1ST WORD
                       62740   MFDC  COMMON  1             NEXT WORD TO BE READ FROM MFD FILE
                       62737   TLD   COMMON  1             TIME LAST DUMP OF USER CURRENTLY DUMPING
                       62736   UFDC  COMMON  1             NEXT UNREAD POS. OF UFDFILE (NORMALLY ZERO)
                       62735  MFDEOF COMMON  1             ZERO INDICATES EOF IN MFD FILE
                       62734   EOFCT COMMON  1             NO. OF WORDS READ BEFORE AN EOF
                       62733   FEOF  COMMON  1             ZERO INDICATES EOF IN A USER FILE
                       62732  EOFCTA COMMON  1             NO. OF WORDS BEFORE AN EOF
                       62731   DMPSW COMMON  1             NON-ZERO INDICATES A FILE HAS BEEN DUMPED
                       62730   DAWN  COMMON  1             TIME OF START OF 'DAY'
1            ROUTINES FOR GENERAL ERROR PROCESSING....M.J.BAILEY,11/1/64                         PAGE 9

                       62727  DMPUSR COMMON  1             PROBLEM NO. OF DUMP/LOAD PACKAGE
                       62726  DMPRGR COMMON  1             PROGRAMMER NO. OF  DITTO.
                       62727  DU     EQU     DMPUSR
                       62726  DP     EQU     DMPRGR
                       62725   MFD1W COMMON  1             NO. OF 1ST GOOD WORD IN MFD AND UFD FILES
                       62723         COMMON  1             2ND PART OF DUMP TAPE FILE (COPY 1) NAME
                       62723  NFN1   COMMON  1             1ST PART OF DUMP TAPE FILE (COPY 1) NAME
                       62721         COMMON  1             2ND PART OF DUMP TAPE FILE (COPY 2) NAME
                       62721   NFN2  COMMON  1             1ST PART OF DUMP TAPE FILE (COPY 2) NAME
                       62720  TNDSW  COMMON  1             INDICATES TIME OF THIS DUMP CURRENT OR NO
                       62040         COMMON  RECSIZ-1      INTERNAL TAPE BUFFER
                       62040   ITB1  COMMON  1                ,,     ,,    ,,  1ST WORD
                       61160         COMMON  RECSIZ-1      INTERNAL TAPE BUFFER
                       61160   ITB2  COMMON  1                ,,     ,,  ,,  1ST WORD
                       61157   DUSK  COMMON  1             TIME OF END OF CURRENT 'DAY'
                       61156   ENDSW COMMON  1             IF 1, NORMAL END-OF-DAY,ELSE OPERATOR ONE
                       60276         COMMON  NW-1          INTERNAL BUFFER FOR 'MAP' FILE
                       60276    IMP  COMMON  1                ,,      ,,    ,,   ,,   ,,  1ST WORD
                       60267         COMMON  6             'MAP' FILE LINE PARAMETER ARRAY
                       60267  ARGLST COMMON  1               ,,   ,,   ,,      ,,      ,,  1ST WORD
                       60266  CDSW   COMMON  1             NON-ZERO DURING COMPLETE DUMP,ELSE ZERO
                       60265  DATE   COMMON  1             DATE THE DUMP NOW IN PROGRESS BEGAN
                       60264  TIME   COMMON  1             TIME DUMP NOW IN PROGRESS BEGAN
                       60263  TCYCLE COMMON  1             'TIME' OF LAST CYCLE ON DUMP TAPE FILE
                       60262  TFOSW  COMMON  1             NON-ZERO IF DUMP TAPE FILE IS OPEN
                       60261  ALOG   COMMON  1             NON-ZERO IF AUTOLOGOUT ON
                       60260  SW1    COMMON  1
                       60257  TCP    COMMON  1
                       60256  TNDSAV COMMON  1
                       60255  ODAWN  COMMON  1             TIME OF START OF PREVIOUS 'DAY'
                       60244         COMMON  8             TAPE LABEL
                       60244  TAPEID COMMON  1             TAPE LABEL 1ST WORD
                       60243  SKELSW COMMON  1
                       60254  REELNO EQU     TAPEID+8
                                     END
                                              REMOTE SEQUENCES
      00215  602346242560     ..001  BCI     1, CODE                                                          .001
      00216  603161466025     ..003  BCI     3, I/O ERROR TYPE                                                .001
      00217  515146516063
      00220  704725606060
      00221  602631432560     ..004  BCI     2, FILE NAME                                                     .001
      00222  452144256060

        LITERALS
      00223  000000000061
      00224  000060606060
      00225  604623636060
      00226  606060606060
1            ROUTINES FOR GENERAL ERROR PROCESSING....M.J.BAILEY,11/1/64                         PAGE 1
                        POST PROCESSOR ASSEMBLY DATA

       60242 IS THE LAST LOCATION NOT USED BY THIS PROGRAM
        227 IS THE FIRST LOCATION NOT USED BY THIS PROGRAM

0REFERENCES TO DEFINED SYMBOLS
          3      C   215
          1      I   215
         43      N   215
       1274      U   215
          4     AK   215
      62726     DP   215
      62727     DU   215
        660     NW   215
          6     NX   215
      75113     PB   215
        143    ERA   117
      60276    IMP   215
         10    INT   215
         30    NCD   215
      64526    PBF    26,   31,   33,   35,   37,   46,   51,   54,   57,  101,  104,  106,  111,  114,  130,  133,  136
                     141,  145,  150,  152,  155,  160,  164,  170,  173,  215
      60260    SW1   215
      60257    TCP   215
      62737    TLD   215
      73353    TND   215
      60261   ALOG   215
         17   BASE   215
         22   BERM     0
         61   BMX1    22
         62   BMX4    23
      60266   CDSW   215
      60265   DATE   215
      62730   DAWN   215
         14   DINC   215
          2   DISK   215
      77440   DTLD   215
      61157   DUSK   215
      64544   ERAY     7,   12,   16,   67,   70,  103,  116,  147,  151,  215
      62733   FEOF   215
      62040   ITB1   215
      61160   ITB2   215
      62740   MFDC   215
      62723   NFN1   215
      62721   NFN2   215
          3   TAPE   215
      60264   TIME   215
      62736   UFDC   215
      62731  DMPSW   215
      61156  ENDSW   215
      62734  EOFCT   215
        176  ERND1    65
        175  ERND4    64
        206  ERRHD    25
      73354  FLUSH   215
      63630  IOBUF   215
1            ROUTINES FOR GENERAL ERROR PROCESSING....M.J.BAILEY,11/1/64                         PAGE 2
                        POST PROCESSOR ASSEMBLY DATA

        215  ..001   100
        216  ..003   127
        221  ..004   144
        214  LERAY     7,   67
      62725  MFD1W   215
         10  NHOUR   215
      77456  NMFDU   215
      77441  NXMPT   215
      60255  ODAWN   215
          2  PAUSE   215
      76426  PROBN   215
      76362  PROGN   215
      76147  RCODE   215
       3300  TBSIZ   215
      60262  TFOSW   215
      62720  TNDSW   215
      70053  TPBUF   215
          0  WRFLX    53,  110,  135,  154,  167
      60267 ARGLST   215
      75040 AUTOND   215
          2 BCDDTM    34
          5 CKCODE     0
      75032 DEMKEY   215
      62726 DMPRGR   215
      62727 DMPUSR   215
          7 ENDTAP   215
          5 ENFLSH   215
      77457 ENTPSW   215
      62732 EOFCTA   215
         14 ERCODA   215
         16 ERCODB   215
         64 ERREND     0
        201 ERSTAT   163
        200 ERTEMP    76,  105,  125,  132
          7 ERYSIZ   214,  215
      77455 EXEMPT   215
      77460 FLSHSW   215
      62750 IOBUF2   215
          1 IODIAG     6,   66
      77461 KEYVAL   215
          1 LSDRUM   215
          6 LVFLSH   215
      64510 MFDENT   215
      62735 MFDEOF   215
      75052 NUSERS   215
      74650 PROBNO   215
      76144 PROGNO   215
        660 RECSIZ   215
      60254 REELNO   215
      60243 SKELSW   215
      75104 SYSDAT   215
      75105 SYSTIM   215
      60244 TAPEID   215
      60263 TCYCLE   215
      60256 TNDSAV   215
1            ROUTINES FOR GENERAL ERROR PROCESSING....M.J.BAILEY,11/1/64                         PAGE 3
                        POST PROCESSOR ASSEMBLY DATA

      64553 TPBUF2   215
      62741 UFDENT   215
      62747 UFDEOF   215

0 NO ERROR IN ABOVE ASSEMBLY.


SDKSTA   BCD 05/28/67 1807.1     239         00000
1            DUMMY REFER TO CORE A AND GET OPERATORS SIGNALS                                     PAGE 1

                              *
                       00002         ENTRY   GETA
                       00002         ENTRY   NGETA
                       00004         ENTRY   GDSIG
                              *
                              *
                              *

            LINKAGE DIRECTOR
      00000  000000000000
      00001  272563216060

                       00002  GETA   EQU     *
      00002  0522 00 7 00001  NGETA  XEC     1,7
      00003  0020 00 7 00002         TRA     2,7
                              *
      00004  0020 00 4 00001  GDSIG  TRA     1,4
                                     END
1            DUMMY REFER TO CORE A AND GET OPERATORS SIGNALS                                     PAGE 1
                        POST PROCESSOR ASSEMBLY DATA

          5 IS THE FIRST LOCATION NOT USED BY THIS PROGRAM

0REFERENCES TO DEFINED SYMBOLS
          2   GETA     0,    2
          4  GDSIG     0
          2  NGETA     0

0 NO ERROR IN ABOVE ASSEMBLY.


DRSTRB   BCD 05/28/67 1810.9    6362         00000
1            WRITE OR READ RESTORE FILE FOR DISK DUMPER....M.J.BAILEY,2/15/65                    PAGE 1

                              *
                       00020         ENTRY   DTSAVE        WRITE RESTORE FILE TO SAVE DUMP TABLES ETC.
                       00217         ENTRY   DRSTOR        RELOAD RESTORE FILE TO RESUME DUMPING
                              *
                                     EXTERN  ATTACH,CHFILE,DELFIL,OPEN,BUFFER,WRFILE
                                     EXTERN  FWAIT,CLOSE,FSTATE,RDFILE,WRFLX
                              *
                              *      WRITE RESTORE FILE FOR DUMPER TABLES AND VALUES
                              *

        TRANSFER VECTOR
      00000  216363212330     ATTACH
      00001  233026314325     CHFILE
      00002  242543263143     DELFIL
      00003  464725456060     OPEN
      00004  226426262551     BUFFER
      00005  665126314325     WRFILE
      00006  266621316360     FWAIT
      00007  234346622560     CLOSE
      00010  266263216325     FSTATE
      00011  512426314325     RDFILE
      00012  665126436760     WRFLX
      00013  314622246360     IOBDT
      00014  475145632551     PRNTER
      00015  272462312760     GDSIG

            LINKAGE DIRECTOR
      00016  000000000000
      00017  246362216525

      00020  0634 00 4 00213  DTSAVE SXA     X4,4
      00021  0634 00 1 00214         SXA     X1,1
      00022  0760 00 0 00164         SWT     4
      00023  0020 00 0 00032         TRA     *+7
      00024 -0500 00 0 60255         CAL     ODAWN
      00025  0074 00 4 00013         TSX     $IOBDT,4
      00026  0602 00 0 00443         SLW     T
      00027 -0600 00 0 00444         STQ     T+1
      00030  0074 00 4 00012         TSX     $WRFLX,4
      00031  0 00002 0 00443                 T,,2
      00032  0774 00 1 00031         AXT     25,1
      00033  0500 00 0 00436         CLA     SFNO          INCREASE SAVE FILE NO.
      00034  0400 00 0 00504         ADD     =1
      00035  0601 00 0 00436         STO     SFNO
      00036  0760 00 0 00001         LBT                   SELECT ALTERNATE COPY FOR REWRITE
      00037  0020 00 0 00042         TRA     *+3
      00040  0500 00 0 00440         CLA     NAME1
      00041  0020 00 0 00043         TRA     *+2
      00042  0500 00 0 00441         CLA     NAME2
      00043  0601 00 0 00442         STO     B
                              *
      00044  0500 00 0 00436         CLA     SFNO          SET UP MISCELLANEOUS VARIABLES FOR WRITING
      00045  0601 00 0 00443         STO     T
      00046  0500 00 0 77456         CLA     NMFDU
      00047  0601 00 0 00444         STO     T+1
      00050  0500 00 0 60262         CLA     TFOSW
1            WRITE OR READ RESTORE FILE FOR DISK DUMPER....M.J.BAILEY,2/15/65                    PAGE 2

      00051  0601 00 0 00445         STO     T+2
      00052  0500 00 0 62730         CLA     DAWN
      00053  0601 00 0 00446         STO     T+3
      00054  0500 00 0 60266         CLA     CDSW
      00055  0601 00 0 00447         STO     T+4
      00056  0500 00 0 60260         CLA     SW1
      00057  0601 00 0 00450         STO     T+5
      00060  0500 00 0 73353         CLA     TND
      00061  0601 00 0 00451         STO     T+6
      00062  0500 00 0 62737         CLA     TLD
      00063  0601 00 0 00452         STO     T+7
      00064  0500 00 0 60256         CLA     TNDSAV
      00065  0601 00 0 00453         STO     T+8
      00066  0500 00 0 60257         CLA     TCP
      00067  0601 00 0 00454         STO     T+9
      00070  0500 00 0 61156         CLA     ENDSW
      00071  0601 00 0 00455         STO     T+10
      00072  0500 00 0 61157         CLA     DUSK
      00073  0601 00 0 00456         STO     T+11
      00074  0500 00 0 60255         CLA     ODAWN
      00075  0601 00 0 00457         STO     T+12
      00076  0500 00 0 62740         CLA     MFDC
      00077  0601 00 0 00460         STO     T+13
      00100  0500 00 0 62735         CLA     MFDEOF
      00101  0601 00 0 00461         STO     T+14
      00102  0500 00 0 77457         CLA     ENTPSW
      00103  0601 00 0 00462         STO     T+15
      00104  0500 00 0 60243         CLA     SKELSW
      00105  0601 00 0 00463         STO     T+16
                              *
      00106  0074 00 4 00000         TSX     ATTACH,4
 TD   00107  3 00000 0 62727         TXH     DU
 TD   00110  3 00000 0 62726         TXH     DP
      00111  0500 00 0 00436         CLA     SFNO
      00112  0402 00 0 00506         SUB     =3
      00113 -0120 00 0 00127         TMI     LA            SKIP IF THIS IS FIRST OR SECOND SAVE
      00114  0074 00 4 00001         TSX     CHFILE,4
 TD   00115  3 00000 0 00437         TXH     A
 TD   00116  3 00000 0 00442         TXH     B
 TD   00117  3 00000 0 00503         TXH     =O0
 TD   00120  3 00000 0 00510         TXH     =-0
 TD   00121  3 00000 0 00510         TXH     =-0
 TD   00122  3 00000 0 00123         TXH     *+1
      00123  0074 00 4 00002         TSX     DELFIL,4      DELETE OLD COPY
 TD   00124  3 00000 0 00437         TXH     A
 TD   00125  3 00000 0 00442         TXH     B
 TD   00126  3 00000 0 00127         TXH     *+1
                              *
      00127  0074 00 4 00003  LA     TSX     OPEN,4        OPEN NEW ONE
 TD   00130  3 00000 0 00512         TXH     =HW
 TD   00131  3 00000 0 00437         TXH     A
 TD   00132  3 00000 0 00442         TXH     B
 TD   00133  3 00000 0 00507         TXH     =O120
 TD   00134  3 00000 0 00505         TXH     =2
 TD   00135  3 00000 0 00173         TXH     ERRA
      00136  0074 00 4 00004  LB     TSX     BUFFER,4
1            WRITE OR READ RESTORE FILE FOR DISK DUMPER....M.J.BAILEY,2/15/65                    PAGE 3

 TD   00137  3 00000 0 00437         TXH     A
 TD   00140  3 00000 0 00442         TXH     B
      00141  2 00465 0 63630         TIX     IOBUF,,LBUF
 TD   00142  3 00000 0 00200         TXH     ERRB
                              *
      00143  0074 00 4 00005  LC     TSX     WRFILE,4      WRITE MISCELLANEOUS VARIABLES
 TD   00144  3 00000 0 00437         TXH     A
 TD   00145  3 00000 0 00442         TXH     B
 TD   00146  3 00000 0 00504         TXH     =1
      00147  2 00464 0 00443         TIX     T,,NXW
 TD   00150  3 00000 0 00153         TXH     *+3
 TD   00151  3 00000 0 00466         TXH     TEMP
 TD   00152  3 00000 0 00207         TXH     ERRC
      00153  0074 00 4 00005         TSX     WRFILE,4      WRITE TUFD/G
 TD   00154  3 00000 0 00437         TXH     A
 TD   00155  3 00000 0 00442         TXH     B
 TD   00156  3 00000 0 00467         TXH     NXWT
      00157  2 00470 0 73355         TIX     PROBNO+1-U,,LTLDFL
 TD   00160  3 00000 0 00163         TXH     *+3
 TD   00161  3 00000 0 00466         TXH     TEMP
 TD   00162  3 00000 0 00207         TXH     ERRC
      00163  0074 00 4 00006         TSX     FWAIT,4
 TD   00164  3 00000 0 00437         TXH     A
 TD   00165  3 00000 0 00442         TXH     B
 TD   00166  3 00000 0 00207         TXH     ERRC
                              *
      00167  0074 00 4 00007         TSX     CLOSE,4
 TD   00170  3 00000 0 00437         TXH     A
 TD   00171  3 00000 0 00442         TXH     B
      00172  0020 00 0 00213         TRA     X4
                              *
      00173  0074 00 4 00014  ERRA   TSX     $PRNTER,4
      00174  0074 00 4 00015         TSX     $GDSIG,4
      00175  2 00001 1 00127         TIX     LA,1,1
      00176  0534 00 4 00213  EREX   LXA     X4,4
      00177  1 00001 4 00214         TXI     X1,4,1        EXIT VIA 1,4
      00200  0074 00 4 00014  ERRB   TSX     $PRNTER,4
      00201  0074 00 4 00015         TSX     $GDSIG,4
      00202  2 00001 1 00136         TIX     LB,1,1
      00203  0074 00 4 00007  ERCLEX TSX     CLOSE,4
 TD   00204  3 00000 0 00437         TXH     A
 TD   00205  3 00000 0 00442         TXH     B
      00206  0020 00 0 00176         TRA     EREX
      00207  0074 00 4 00014  ERRC   TSX     $PRNTER,4
      00210  0074 00 4 00015         TSX     $GDSIG,4
      00211  2 00001 1 00143         TIX     LC,1,1
      00212  0020 00 0 00203         TRA     ERCLEX
                              *
      00213  0774 00 4 00000  X4     AXT     **,4
      00214  0774 00 1 00000  X1     AXT     **,1
      00215  0600 00 0 00442         STZ     B             INDICATE SAVE PERFORMED LAST
      00216  0020 00 4 00002         TRA     2,4
                              *
                              *      READ RESTORE FILE, TO BE ABLE TO RESUME LOADING
                              *
      00217  0634 00 4 00432  DRSTOR SXA     RX4,4
1            WRITE OR READ RESTORE FILE FOR DISK DUMPER....M.J.BAILEY,2/15/65                    PAGE 4

      00220  0634 00 1 00434         SXA     RX1,1
      00221  0760 00 0 00164         SWT     4
      00222  0020 00 0 00231         TRA     *+7
      00223 -0500 00 0 60255         CAL     ODAWN
      00224  0074 00 4 00013         TSX     $IOBDT,4
      00225  0602 00 0 00443         SLW     T
      00226 -0600 00 0 00444         STQ     T+1
      00227  0074 00 4 00012         TSX     $WRFLX,4
      00230  0 00002 0 00443                 T,,2
      00231  0074 00 4 00000         TSX     ATTACH,4
 TD   00232  3 00000 0 62727         TXH     DU
 TD   00233  3 00000 0 62726         TXH     DP
      00234 -0500 00 0 00442         CAL     B
      00235  0100 00 0 00242         TZE     RA            SKIP IF RESTORE O.K. LAST CALL
      00236 -0340 00 0 00440         LAS     NAME1         IF NOT, BE SURE TO USE OTHER COPY NOW
      00237  0020 00 0 00261         TRA     RBA
      00240  0020 00 0 00257         TRA     RB
      00241  0020 00 0 00261         TRA     RBA
      00242  0074 00 4 00010  RA     TSX     FSTATE,4
 TD   00243  3 00000 0 00437         TXH     A
 TD   00244  3 00000 0 00440         TXH     NAME1
      00245  2 00471 0 00443         TIX     T,,L7
 TD   00246  3 00000 0 00257         TXH     RB
      00247  0074 00 4 00010         TSX     FSTATE,4
 TD   00250  3 00000 0 00437         TXH     A
 TD   00251  3 00000 0 00441         TXH     NAME2
      00252  2 00471 0 00442         TIX     T-1,,L7
 TD   00253  3 00000 0 00376         TXH     ERRD
      00254  0500 00 0 00451         CLA     T+6           SEE WHICH COPY IS THE LATEST
      00255  0402 00 0 00450         SUB     T+5
      00256  0120 00 0 00261         TPL     *+3
      00257  0500 00 0 00441  RB     CLA     NAME2
      00260  0020 00 0 00262         TRA     *+2
      00261  0500 00 0 00440  RBA    CLA     NAME1
      00262  0601 00 0 00442         STO     B             SET NAME OF LATEST OF THE 2 COPIES
                              *
      00263  0774 00 1 00005         AXT     5,1
      00264  0074 00 4 00003  RC     TSX     OPEN,4
 TD   00265  3 00000 0 00511         TXH     =HR
 TD   00266  3 00000 0 00437         TXH     A
 TD   00267  3 00000 0 00442         TXH     B
 TD   00270  3 00000 0 00510         TXH     =-0
 TD   00271  3 00000 0 00510         TXH     =-0
 TD   00272  3 00000 0 00403         TXH     ERRE
      00273  0074 00 4 00004  RD     TSX     BUFFER,4
 TD   00274  3 00000 0 00437         TXH     A
 TD   00275  3 00000 0 00442         TXH     B
      00276  2 00465 0 63630         TIX     IOBUF,,LBUF
 TD   00277  3 00000 0 00407         TXH     ERRF
                              *
      00300  0074 00 4 00011  RE     TSX     RDFILE,4      READ MISCELLANEOUS VARIABLES
 TD   00301  3 00000 0 00437         TXH     A
 TD   00302  3 00000 0 00442         TXH     B
 TD   00303  3 00000 0 00504         TXH     =1
      00304  2 00464 0 00443         TIX     T,,NXW
 TD   00305  3 00000 0 00416         TXH     ERRG
1            WRITE OR READ RESTORE FILE FOR DISK DUMPER....M.J.BAILEY,2/15/65                    PAGE 5

 TD   00306  3 00000 0 00466         TXH     TEMP
 TD   00307  3 00000 0 00426         TXH     ERRH
      00310  0074 00 4 00011  RG     TSX     RDFILE,4      READ TUFD/G TABLE
 TD   00311  3 00000 0 00437         TXH     A
 TD   00312  3 00000 0 00442         TXH     B
 TD   00313  3 00000 0 00467         TXH     NXWT
      00314  2 00470 0 73355         TIX     PROBNO+1-U,,LTLDFL
 TD   00315  3 00000 0 00321         TXH     RH
 TD   00316  3 00000 0 00466         TXH     TEMP
 TD   00317  3 00000 0 00426         TXH     ERRH
      00320  0020 00 0 00324         TRA     RI
      00321  0500 00 0 00466  RH     CLA     TEMP
      00322  0402 00 0 00464         SUB     NXW
      00323 -0100 00 0 00416         TNZ     ERRG
      00324  0074 00 4 00006  RI     TSX     FWAIT,4
 TD   00325  3 00000 0 00437         TXH     A
 TD   00326  3 00000 0 00442         TXH     B
 TD   00327  3 00000 0 00426         TXH     ERRH
                              *
      00330  0500 00 0 00443  RJ     CLA     T             RESTORE MISCELLANEOUS VARIABLES
      00331  0601 00 0 00436         STO     SFNO
      00332  0500 00 0 00444         CLA     T+1
      00333  0601 00 0 77456         STO     NMFDU
      00334  0500 00 0 00445         CLA     T+2
      00335  0601 00 0 60262         STO     TFOSW
      00336  0500 00 0 00446         CLA     T+3
      00337  0601 00 0 62730         STO     DAWN
      00340  0500 00 0 00447         CLA     T+4
      00341  0601 00 0 60266         STO     CDSW
      00342  0500 00 0 00450         CLA     T+5
      00343  0601 00 0 60260         STO     SW1
      00344  0500 00 0 00451         CLA     T+6
      00345  0601 00 0 73353         STO     TND
      00346  0500 00 0 00452         CLA     T+7
      00347  0601 00 0 62737         STO     TLD
      00350  0500 00 0 00453         CLA     T+8
      00351  0601 00 0 60256         STO     TNDSAV
      00352  0500 00 0 00454         CLA     T+9
      00353  0601 00 0 60257         STO     TCP
      00354  0500 00 0 00455         CLA     T+10
      00355  0601 00 0 61156         STO     ENDSW
      00356  0500 00 0 00456         CLA     T+11
      00357  0601 00 0 61157         STO     DUSK
      00360  0500 00 0 00457         CLA     T+12
      00361  0601 00 0 60255         STO     ODAWN
      00362  0500 00 0 00460         CLA     T+13
      00363  0601 00 0 62740         STO     MFDC
      00364  0500 00 0 00461         CLA     T+14
      00365  0601 00 0 62735         STO     MFDEOF
      00366  0500 00 0 00462         CLA     T+15
      00367  0601 00 0 77457         STO     ENTPSW
      00370  0500 00 0 00463         CLA     T+16
      00371  0601 00 0 60243         STO     SKELSW
                              *
      00372  0074 00 4 00007         TSX     CLOSE,4
 TD   00373  3 00000 0 00437         TXH     A
1            WRITE OR READ RESTORE FILE FOR DISK DUMPER....M.J.BAILEY,2/15/65                    PAGE 6

 TD   00374  3 00000 0 00442         TXH     B
      00375  0020 00 0 00432         TRA     RX4
                              *
      00376  0074 00 4 00014  ERRD   TSX     $PRNTER,4
      00377  0074 00 4 00015         TSX     $GDSIG,4
      00400  2 00001 1 00242         TIX     RA,1,1
      00401  0534 00 4 00432  ERXR   LXA     RX4,4
      00402  1 00001 4 00434         TXI     RX1,4,1       EXIT VIA 1,4  --  ERROR
      00403  0074 00 4 00014  ERRE   TSX     $PRNTER,4
      00404  0074 00 4 00015         TSX     $GDSIG,4
      00405  2 00001 1 00264         TIX     RC,1,1
      00406  0020 00 0 00401         TRA     ERXR
      00407  0074 00 4 00014  ERRF   TSX     $PRNTER,4
      00410  0074 00 4 00015         TSX     $GDSIG,4
      00411  2 00001 1 00273         TIX     RD,1,1
      00412  0074 00 4 00007  ERCLXR TSX     CLOSE,4
 TD   00413  3 00000 0 00437         TXH     A
 TD   00414  3 00000 0 00442         TXH     B
      00415  0020 00 0 00401         TRA     ERXR
      00416  0074 00 4 00006  ERRG   TSX     FWAIT,4
 TD   00417  3 00000 0 00437         TXH     A
 TD   00420  3 00000 0 00442         TXH     B
 TD   00421  3 00000 0 00426         TXH     ERRH
      00422  0074 00 4 00012         TSX     WRFLX,4
      00423  0 00011 0 00472                 MESA,,9
      00424  2 00001 1 00300         TIX     RE,1,1
      00425  0020 00 0 00330         TRA     RJ
      00426  0074 00 4 00014  ERRH   TSX     PRNTER,4
      00427  0074 00 4 00015         TSX     $GDSIG,4
      00430  2 00001 1 00300  ERRH1  TIX     RE,1,1
      00431  0020 00 0 00412         TRA     ERCLXR
                              *
      00432  0774 00 4 00000  RX4    AXT     **,4
      00433  0600 00 0 00442         STZ     B             INDICATE RESTORE O.K.
      00434  0774 00 1 00000  RX1    AXT     **,1
      00435  0020 00 4 00002         TRA     2,4
                              *
                              *      CONSTANTS, VARIABLES, ETC.
                              *
                       00021  XW     EQU     17
      00436  0 00000 0 00000  SFNO   PZE
      00437  245162634651     A      BCI     1,DRSTOR
      00440  263143253301     NAME1  BCI     1,FILE.1
      00441  263143253302     NAME2  BCI     1,FILE.2
      00442  606060606060     B      BCI     1,
      00443                   T      BSS     XW
      00464  0 00000 0 00021  NXW    PZE     XW
      00465  0 00000 0 00660  LBUF   PZE     NW
      00466  0 00000 0 00000  TEMP   PZE
      00467  0 00000 0 00022  NXWT   PZE     XW+1
      00470  0 00000 0 04101  LTLDFL PZE     3*U+2*NX+1
      00471  0 00000 0 00007  L7     PZE     7
      00472  602533463326     MESA   BCI     9, E.O.F. IN WRONG PLACE ON DISK LOADER 'RESTORE FILE'.
      00473  336031456066
      00474  514645276047
      00475  432123256046
1            WRITE OR READ RESTORE FILE FOR DISK DUMPER....M.J.BAILEY,2/15/65                    PAGE 7

      00476  456024316242
      00477  604346212425
      00500  516014512562
      00501  634651256026
      00502  314325143360
                              *
                                     INSERT  DCMEQB
                              *
                              *  .  .  .  .  .  .  .  .  .  .  .  .  .  .  .  .  .  .
                              *    COMMON AND EQUIVALENCE FOR GENERAL DUMP PROGRAM
                              *  .  .  .  .  .  .  .  .  .  .  .  .  .  .  .  .  .  .
                              *
                      075032  DEMKEY BOOL    75032         CORE A LOCATION FOR DAEMON'S KEY SETTING
                      075105  SYSTIM BOOL    75105         CORE A LOCATION FOR SYSTEM  TIME
                      075104  SYSDAT BOOL    75104         CORE A LOCATION FOR SYSTEM INIT. DATE
                      076147  RCODE  BOOL    76147         CORE A LOCATION FOR RESTRICTION CODE VECTOR
                      075040  AUTOND BOOL    75040         CORE A AUTOMATIC LOGOUT INDICATOR
                      075052  NUSERS BOOL    75052         CORE A LOGGED-IN USER COUNT
                      076426  PROBN  BOOL    76426         CORE A PROBNO ARRAY
                      076362  PROGN  BOOL    76362         CORE A PROGNO ARRAY
                      075113  PB     BOOL    75113         CORE A GUARANTEED PERCENTAGE VECTOR BASE
                      000043  N      BOOL    43            CORE A MAX. NO. OF USERS (SIZE OF PROBN)
                              *
                      000017  BASE   BOOL    17            KEY CODE BASE
                      000001  I      BOOL    1             KEY CODE TO START INCREMENTAL DUMP
                      000002  PAUSE  BOOL    2             KEY CODE TO WAIT FOR 1 MIN.
                      000003  C      BOOL    3             KEY CODE TO DO COMPLETE DUMP
                      000004  AK     BOOL    4             KEY CODE FOR IMPENDING AUTOLOGOUT
                      000005  ENFLSH BOOL    5             KEY CODE TO ENTER FLUSH MODE
                      000006  LVFLSH BOOL    6             KEY CODE TO LEAVE FLUSH MODE
                      000007  ENDTAP BOOL    7             KEY CODE TO TERMINATE DUMP TAPE FILE
                      000010  INT    BOOL    10            SIMULATE INTERRUPT
                       00660  RECSIZ EQU     432           TAPE RECORD SIZE
                       00006   NX    EQU     6             MAX. NO. OF SYSTEM FILE OWNERS
                       00030  NCD    EQU     24            MAX. NO. 'DAYS' NON-USE OF CURRENT FILES
                       00014  DINC   EQU     12            NO. DAYS OF 'RECENCY' INCREMENT (C.DUMP)
                       01274  U      EQU     700           MAX. NO. USERS IN MFD USER LIST
                       03300  TBSIZ  EQU     4*RECSIZ      TAPE BUFFER SIZE
                       00007  ERYSIZ EQU     7             I/O SYSTEM ERROR ARRAY SIZE
                       00014  ERCODA EQU     12            'OPEN' ERROR CODE FOR FILE NOT FOUND
                       00016  ERCODB EQU     14            'OPEN' ERROR CODE RQSTD. DEVICE UNAVBLE
                       00660  NW     EQU     432           SIZE OF SECONDARY I/O FILE BUFFERS
                       00001  LSDRUM EQU     1             I/O SYSTEM DEVICE CODE FOR L.S.DRUM
                       00002    DISK EQU     2             I/O SYSTEM DEVICE CODE FOR DISK
                       00003   TAPE  EQU     3             I/O SYSTEM DEVICE CODE FOR TAPE
                       00010  NHOUR  EQU     8             NO. OF HOURS IN A 'DAY'
                       77461  KEYVAL COMMON  1             LAST KEY SETTING READ FROM SUPERVISOR
                       77460  FLSHSW COMMON  1             FLUSH MODE SWITCH
                       77457  ENTPSW COMMON  1             OPERATOR-REQUESTED-END-TAPE INDICATOR
                       77456  NMFDU  COMMON  1             NO. USERS CURRENTLY IN LIST
                       77455  EXEMPT COMMON  2*NX          LIST OF SYSTEM FILE OWNERS
                       77441  NXMPT  COMMON  1             NO. FILE USERS EXEMPT FROM DUMP IN DCYCLE
                       77440  DTLD   COMMON  U             TIME LAST DUMPED FOR EACH USER
                       76144  PROGNO COMMON  U             PROGRAMMER NO. OF EACH USER
                       74650  PROBNO COMMON  U             PROBLEM NO. OF EACH USER
                       73354   FLUSH COMMON  1             NON-ZERO INDICATES FLUSH MODE IS FORCED
1            WRITE OR READ RESTORE FILE FOR DISK DUMPER....M.J.BAILEY,2/15/65                    PAGE 8

                       73353   TND   COMMON  1             TIME OF NEXT DUMP FOR CURRENT USER
                       70053         COMMON  TBSIZ-1       TAPE BUFFER
                       70053  TPBUF  COMMON  1             TAPE BUFFER 1ST WORD
                       64553         COMMON  TBSIZ-1       2ND TAPE BUFFER
                       64553  TPBUF2 COMMON  1             2ND TAPE BUFFER, 1ST WORD
                       64544         COMMON  ERYSIZ-1      ERROR ARRAY
                       64544  ERAY   COMMON  1             ERROR ARRAY 1ST WORD
                       64526         COMMON  13            PRINT BUFFER
                       64526   PBF   COMMON  1             PRINT BUFFER 1ST WORD
                       64510         COMMON  13            MFD ENTRY BUFFER
                       64510  MFDENT COMMON  1             MFD ENTRY BUFFER 1ST WORD
                       63630         COMMON  NW-1          SECONDARY I/0 FILE BUFFER
                       63630   IOBUF COMMON  1             SECONDARY IO BUFFER 1ST WORD
                       62750         COMMON  NW-1          SECONDARY I/O FILE BUFFER
                       62750  IOBUF2 COMMON  1             SECONDARY I/O BUFFER 1ST WORD
                       62747  UFDEOF COMMON  1             ZERO INDICATES EOF IN UFD FILE
                       62741         COMMON  5             PARTIAL UFD ENTRY BUFFER
                       62741  UFDENT COMMON  1             PARTIAL UFD ENTRY BUFFER 1ST WORD
                       62740   MFDC  COMMON  1             NEXT WORD TO BE READ FROM MFD FILE
                       62737   TLD   COMMON  1             TIME LAST DUMP OF USER CURRENTLY DUMPING
                       62736   UFDC  COMMON  1             NEXT UNREAD POS. OF UFDFILE (NORMALLY ZERO)
                       62735  MFDEOF COMMON  1             ZERO INDICATES EOF IN MFD FILE
                       62734   EOFCT COMMON  1             NO. OF WORDS READ BEFORE AN EOF
                       62733   FEOF  COMMON  1             ZERO INDICATES EOF IN A USER FILE
                       62732  EOFCTA COMMON  1             NO. OF WORDS BEFORE AN EOF
                       62731   DMPSW COMMON  1             NON-ZERO INDICATES A FILE HAS BEEN DUMPED
                       62730   DAWN  COMMON  1             TIME OF START OF 'DAY'
                       62727  DMPUSR COMMON  1             PROBLEM NO. OF DUMP/LOAD PACKAGE
                       62726  DMPRGR COMMON  1             PROGRAMMER NO. OF  DITTO.
                       62727  DU     EQU     DMPUSR
                       62726  DP     EQU     DMPRGR
                       62725   MFD1W COMMON  1             NO. OF 1ST GOOD WORD IN MFD AND UFD FILES
                       62723         COMMON  1             2ND PART OF DUMP TAPE FILE (COPY 1) NAME
                       62723  NFN1   COMMON  1             1ST PART OF DUMP TAPE FILE (COPY 1) NAME
                       62721         COMMON  1             2ND PART OF DUMP TAPE FILE (COPY 2) NAME
                       62721   NFN2  COMMON  1             1ST PART OF DUMP TAPE FILE (COPY 2) NAME
                       62720  TNDSW  COMMON  1             INDICATES TIME OF THIS DUMP CURRENT OR NO
                       62040         COMMON  RECSIZ-1      INTERNAL TAPE BUFFER
                       62040   ITB1  COMMON  1                ,,     ,,    ,,  1ST WORD
                       61160         COMMON  RECSIZ-1      INTERNAL TAPE BUFFER
                       61160   ITB2  COMMON  1                ,,     ,,  ,,  1ST WORD
                       61157   DUSK  COMMON  1             TIME OF END OF CURRENT 'DAY'
                       61156   ENDSW COMMON  1             IF 1, NORMAL END-OF-DAY,ELSE OPERATOR ONE
                       60276         COMMON  NW-1          INTERNAL BUFFER FOR 'MAP' FILE
                       60276    IMP  COMMON  1                ,,      ,,    ,,   ,,   ,,  1ST WORD
                       60267         COMMON  6             'MAP' FILE LINE PARAMETER ARRAY
                       60267  ARGLST COMMON  1               ,,   ,,   ,,      ,,      ,,  1ST WORD
                       60266  CDSW   COMMON  1             NON-ZERO DURING COMPLETE DUMP,ELSE ZERO
                       60265  DATE   COMMON  1             DATE THE DUMP NOW IN PROGRESS BEGAN
                       60264  TIME   COMMON  1             TIME DUMP NOW IN PROGRESS BEGAN
                       60263  TCYCLE COMMON  1             'TIME' OF LAST CYCLE ON DUMP TAPE FILE
                       60262  TFOSW  COMMON  1             NON-ZERO IF DUMP TAPE FILE IS OPEN
                       60261  ALOG   COMMON  1             NON-ZERO IF AUTOLOGOUT ON
                       60260  SW1    COMMON  1
                       60257  TCP    COMMON  1
                       60256  TNDSAV COMMON  1
1            WRITE OR READ RESTORE FILE FOR DISK DUMPER....M.J.BAILEY,2/15/65                    PAGE 9

                       60255  ODAWN  COMMON  1             TIME OF START OF PREVIOUS 'DAY'
                       60244         COMMON  8             TAPE LABEL
                       60244  TAPEID COMMON  1             TAPE LABEL 1ST WORD
                       60243  SKELSW COMMON  1
                       60254  REELNO EQU     TAPEID+8
                                     END

        LITERALS
      00503  000000000000
      00504  000000000001
      00505  000000000002
      00506  000000000003
      00507  000000000120
      00510  400000000000
      00511  516060606060
      00512  666060606060
1            WRITE OR READ RESTORE FILE FOR DISK DUMPER....M.J.BAILEY,2/15/65                    PAGE 1
                        POST PROCESSOR ASSEMBLY DATA

       60242 IS THE LAST LOCATION NOT USED BY THIS PROGRAM
        513 IS THE FIRST LOCATION NOT USED BY THIS PROGRAM

0REFERENCES TO DEFINED SYMBOLS
        437      A   115,  124,  131,  137,  144,  154,  164,  170,  204,  243,  250,  266,  274,  301,  311,  325,  373
                     413,  417
        442      B    43,  116,  125,  132,  140,  145,  155,  165,  171,  205,  215,  234,  262,  267,  275,  302,  312
                     326,  374,  414,  420,  433
          3      C   503
          1      I   503
         43      N   503
        443      T    26,   27,   31,   45,   47,   51,   53,   55,   57,   61,   63,   65,   67,   71,   73,   75,   77
                     101,  103,  105,  147,  225,  226,  230,  245,  252,  254,  255,  304,  330,  332,  334,  336,  340
                     342,  344,  346,  350,  352,  354,  356,  360,  362,  364,  366,  370
       1274      U   157,  314,  470,  503
          4     AK   503
      62726     DP   110,  233,  503
      62727     DU   107,  232,  503
        471     L7   245,  252
        127     LA   113,  175
        136     LB   202
        143     LC   211
        660     NW   465,  503
          6     NX   470,  503
      75113     PB   503
        242     RA   235,  400
        257     RB   240,  246
        264     RC   405
        273     RD   411
        300     RE   424,  430
        310     RG
        321     RH   315
        324     RI   320
        330     RJ   425
        214     X1    21,  177
        213     X4    20,  172,  176
         21     XW   436,  443,  464,  467
      60276    IMP   503
         10    INT   503
         30    NCD   503
        464    NXW   147,  304,  322
      64526    PBF   503
        261    RBA   237,  241
        434    RX1   220,  402
        432    RX4   217,  375,  401
      60260    SW1    56,  343,  503
      60257    TCP    66,  353,  503
      62737    TLD    62,  347,  503
      73353    TND    60,  345,  503
      60261   ALOG   503
         17   BASE   503
      60266   CDSW    54,  341,  503
      60265   DATE   503
      62730   DAWN    52,  337,  503
1            WRITE OR READ RESTORE FILE FOR DISK DUMPER....M.J.BAILEY,2/15/65                    PAGE 2
                        POST PROCESSOR ASSEMBLY DATA

         14   DINC   503
          2   DISK   503
      77440   DTLD   503
      61157   DUSK    72,  357,  503
      64544   ERAY   503
        176   EREX   206
        173   ERRA   135
        200   ERRB   142
        207   ERRC   152,  162,  166
        376   ERRD   253
        403   ERRE   272
        407   ERRF   277
        416   ERRG   305,  323
        426   ERRH   307,  317,  327,  421
        401   ERXR   406,  415
      62733   FEOF   503
      62040   ITB1   503
      61160   ITB2   503
        465   LBUF   141,  276
        472   MESA   423
      62740   MFDC    76,  363,  503
      62723   NFN1   503
      62721   NFN2   503
        467   NXWT   156,  313
          3   OPEN   127,  264
        436   SFNO    33,   35,   44,  111,  331
          3   TAPE   503
        466   TEMP   151,  161,  306,  316,  321
      60264   TIME   503
      62736   UFDC   503
          7  CLOSE   167,  203,  372,  412
      62731  DMPSW   503
      61156  ENDSW    70,  355,  503
      62734  EOFCT   503
        430  ERRH1
      73354  FLUSH   503
          6  FWAIT   163,  324,  416
         15  GDSIG   174,  201,  210,  377,  404,  410,  427
         13  IOBDT    25,  224
      63630  IOBUF   141,  276,  503
      62725  MFD1W   503
        440  NAME1    40,  236,  244,  261
        441  NAME2    42,  251,  257
         10  NHOUR   503
      77456  NMFDU    46,  333,  503
      77441  NXMPT   503
      60255  ODAWN    24,   74,  223,  361,  503
          2  PAUSE   503
      76426  PROBN   503
      76362  PROGN   503
      76147  RCODE   503
       3300  TBSIZ   503
      60262  TFOSW    50,  335,  503
      62720  TNDSW   503
      70053  TPBUF   503
1            WRITE OR READ RESTORE FILE FOR DISK DUMPER....M.J.BAILEY,2/15/65                    PAGE 3
                        POST PROCESSOR ASSEMBLY DATA

         12  WRFLX    30,  227,  422
      60267 ARGLST   503
          0 ATTACH   106,  231
      75040 AUTOND   503
          4 BUFFER   136,  273
          1 CHFILE   114
          2 DELFIL   123
      75032 DEMKEY   503
      62726 DMPRGR   503
      62727 DMPUSR   503
        217 DRSTOR     0
         20 DTSAVE     0
          7 ENDTAP   503
          5 ENFLSH   503
      77457 ENTPSW   102,  367,  503
      62732 EOFCTA   503
        203 ERCLEX   212
        412 ERCLXR   431
         14 ERCODA   503
         16 ERCODB   503
          7 ERYSIZ   503
      77455 EXEMPT   503
      77460 FLSHSW   503
         10 FSTATE   242,  247
      62750 IOBUF2   503
      77461 KEYVAL   503
          1 LSDRUM   503
        470 LTLDFL   157,  314
          6 LVFLSH   503
      64510 MFDENT   503
      62735 MFDEOF   100,  365,  503
      75052 NUSERS   503
         14 PRNTER   173,  200,  207,  376,  403,  407,  426
      74650 PROBNO   157,  314,  503
      76144 PROGNO   503
         11 RDFILE   300,  310
        660 RECSIZ   503
      60254 REELNO   503
      60243 SKELSW   104,  371,  503
      75104 SYSDAT   503
      75105 SYSTIM   503
      60244 TAPEID   503
      60263 TCYCLE   503
      60256 TNDSAV    64,  351,  503
      64553 TPBUF2   503
      62741 UFDENT   503
      62747 UFDEOF   503
          5 WRFILE   143,  153

0 NO ERROR IN ABOVE ASSEMBLY.


DGDTMA   BCD 05/28/67 1810.9    3968         00000
1            GENERAL DATE/TIME MANIPULATION ROUTINES                                             PAGE 1

                              *
                       00007         ENTRY   GDT
                       00005         ENTRY   GDTSYS

                       00056         ENTRY   BCDDTM        (ENTRY-PT. FOR BCD TIME IN AC DATE IN MQ)

                       00134         ENTRY   ADDTIM        ADD TO I/O SYSTEM DATE/TIME

                       00132         ENTRY   ADDDAY        ADD 1 DAY TO I/O SYSTEM DATE/TIME IN LAC

                       00247         ENTRY   SUBDAY        SUBTRACT N DAYS FROM DITTO IN LOGICAL AC

                       00130         ENTRY   CNVDT         CONVERT TO I/O SYSTEM DATE/TIME

                       00274         ENTRY   IOBDT         CONVERT FROM I/O SYSTEM TO BCD
                              *
                                     EXTERN  GETIME


                              *
                              *   RETURN CURRENT DATE AND TIME IN I/O SYSTEM FORM IN AC
                              *                            (VIA GETIME)
                              *      FORMAT  -
                              *                BITS S,1-8   (YEAR-400)MODULO(500)
                              *                BITS  9-12   MONTH
                              *                BITS 13-17   DAY
                              *                BITS 18-35   NO. OF SECS. ELAPSED SINCE MIDNIGHT
                              *

        TRANSFER VECTOR
      00000  272563314425     GETIME
      00001  622563416443     SETJUL
      00002  622563314663     SETIOT

            LINKAGE DIRECTOR
      00003  000000000000
      00004  272463606060

      00005  0634 00 4 00033  GDTSYS SXA     GDTA,4
      00006  0020 00 0 00011         TRA     *+3
      00007  0634 00 4 00033   GDT   SXA     GDTA,4
      00010  0074 00 4 00000         TSX     GETIME,4
      00011  0602 00 0 00037         SLW     GDTM          SAVE TIME FROM AC
      00012  0634 00 1 00034         SXA     GDTB,1
      00013  0074 00 4 00040         TSX     TWODIG,4      GET MONTH (4 BITS) FROM BCD 'MMDDYY' IN MQ
      00014  0767 00 0 00005         ALS     5
      00015  0602 00 0 00036         SLW     GDTD
      00016  0074 00 4 00040         TSX     TWODIG,4      GET DAY (5 BITS) FROM BCD 'DDYY' IN MQ
      00017 -0320 00 0 00354         ANA     =O37
      00020 -0602 00 0 00036         ORS     GDTD          MONTH (4 BITS),DAY (5 BITS) IN GDTD
      00021  0074 00 4 00040         TSX     TWODIG,4      GET YEAR (9 BITS) FROM BCD 'YY' IN MQ
      00022 -0320 00 0 00361         ANA     =O777
      00023  0767 00 0 00011         ALS     9
      00024 -0602 00 0 00036         ORS     GDTD          YEAR (9 BITS),MONTH(4),DAY(5) IN GDTD
 T    00025 -0754 00 0 00000         PXD
      00026  0560 00 0 00037         LDQ     GDTM          TIME IS IN 1/60THS OF A SEC.
1            GENERAL DATE/TIME MANIPULATION ROUTINES                                             PAGE 2

      00027  0220 00 0 00356         DVH     =60           GET IT IN SECONDS
      00030 -0763 00 0 00022         LGL     18            TIME IN SECS. IN MQ LEFT-HALF
      00031 -0500 00 0 00036         CAL     GDTD
      00032 -0763 00 0 00022         LGL     18            YEAR,MONTH,DAY,TIME IN LOGICAL AC
      00033  0774 00 4 00000   GDTA  AXT     **,4
      00034  0774 00 1 00000   GDTB  AXT     **,1
      00035  0020 00 4 00001         TRA     1,4           RETURN
                              *
      00036  0 00000 0 00000   GDTD  PZE     **
      00037  0 00000 0 00000   GDTM  PZE     **
                              *
 T    00040 -0754 00 0 00000  TWODIG PXD                   CONVERT 1ST 2 DIGITS OF BCD MQ
                                                           TO BINARY IN AC ADDRESS
      00041  0600 00 0 00055         STZ     TENS
      00042 -0763 00 0 00006         LGL     6             1ST DIGIT
      00043  0100 00 0 00052         TZE     *+7
      00044  0734 00 1 00000         PAX     0,1
 T    00045 -0754 00 0 00000         PXD
      00046  0400 00 0 00350         ADD     =10
      00047  2 00001 1 00046         TIX     *-1,1,1
      00050  0602 00 0 00055         SLW     TENS          TENS DIGIT X 10
 T    00051 -0754 00 0 00000         PXD
      00052 -0763 00 0 00006         LGL     6             UNITS DIGIT
      00053  0400 00 0 00055         ADD     TENS          ADD 10 X TENS DIGIT TO UNITS DIGIT
      00054  0020 00 4 00001         TRA     1,4           RETURN TO CALLER
      00055  0 00000 0 00000   TENS  PZE     **
                              *
                              *      ENTRY TO RETURN TIME IN AC IN BCD AS HHMM.M
                              *             AND DATE IN MQ AS MMDDYY VIA GETIME.
                              *
      00056  0634 00 4 00107  BCDDTM SXA     TPWATX,4
      00057  0074 00 4 00000         TSX     GETIME,4      TIME IN 1/60TH'S OF SEC. IN AC
      00060  0131 00 0 00000         XCA                   TIME TO MQ, DATE TO AC
      00061  0601 00 0 00125         STO     DATE.         SAVE DATE
      00062 -0754 00 0 00000   BCA   ZAC
      00063  0221 00 0 00362         DVP     =216000       FIND HOUR
      00064  0601 00 0 00127         STO     MIN.          SAVE REMAINDER (MINUTES)
      00065  0074 00 4 00111         TSX     BINBCD,4      CONVERT HOURS TO BCD
      00066 -0765 00 0 00006         LGR     6
      00067 -0100 00 0 00071         TNZ     *+2
      00070 -0500 00 0 00355         CAL     =O60          REPLACE LEADING ZERO WITH BLANK
      00071 -0763 00 0 00006         LGL     6
      00072  0767 00 0 00030         ALS     24            LEAVE ROOM FOR MINUTE
      00073  0602 00 0 00126         SLW     HOUR.         SAVE HOUR
      00074  0560 00 0 00127         LDQ     MIN.          MINUTE
      00075 -0754 00 0 00000         ZAC
      00076  0221 00 0 00360         DVP     =360          FIND NO. OF TENTHS OF MINUTES
      00077  0074 00 4 00111         TSX     BINBCD,4      CONVERT TO BCD
      00100 -0765 00 0 00006         LGR     6             TENTHS TO MQ
      00101  0767 00 0 00014         ALS     12
      00102 -0602 00 0 00126         ORS     HOUR.         ADD MINUTE TO HOUR
      00103 -0500 00 0 00353         CAL     =H00000.      PRECEDE TENTHS WITH .
      00104 -0763 00 0 00006         LGL     6             BRING BACK TENTHS
      00105 -0501 00 0 00126         ORA     HOUR.         HHMM.M IN LOGICAL AC
      00106  0560 00 0 00125         LDQ     DATE.         DATE TO MQ
      00107  0774 00 4 00000  TPWATX AXT     **,4
1            GENERAL DATE/TIME MANIPULATION ROUTINES                                             PAGE 3

      00110  0020 00 4 00001         TRA     1,4

      00111  0634 00 4 00122  BINBCD SXA     BNBCDX,4      BINARY TO BCD CONVERTER
      00112  0600 00 0 00124         STZ     TPLIN.
      00113  0774 00 4 00044         AXT     36,4
      00114 -0754 00 0 00000  BNBCD1 ZAC                   CONVERT INTEGER TO BCD
      00115  0221 00 0 00350         DVP     =10           ..
      00116  0767 00 4 00044         ALS     36,4          ..
      00117 -0602 00 0 00124         ORS     TPLIN.        ..
      00120  2 00006 4 00114         TIX     BNBCD1,4,6    ..
      00121 -0500 00 0 00124         CAL     TPLIN.
      00122  0774 00 4 00000  BNBCDX AXT     **,4
      00123  0020 00 4 00001         TRA     1,4
      00124  0 00000 0 00000  TPLIN. PZE                   TEMPORARY
      00125  606060606060      DATE. BCI     1,
      00126  606060606060      HOUR. BCI     1,
      00127  0 00000 0 00000   MIN.  PZE
                              *
                              *      ENTRY TO CONVERT TIME IN 1/60THS SEC. IN LAC, AND DATE (MMDDYY)
                              *      IN BCD IN MQ, TO DATE/TIME IN I/OSYSTEM FORM IN LAC.
                              *
      00130  0634 00 4 00033   CNVDT SXA     GDTA,4
      00131  0020 00 0 00011         TRA     GDT+2
                              *
                              *  TO ADD 1 DAY TO THE I/O SYSTEM DATE/TIME IN THE LOGICAL AC
                              *
      00132  0602 00 0 00036  ADDDAY SLW     GDTD
      00133  1 00001 4 00152         TXI     ADDATE+2,4,1  (RETURN TO 1,4)
                              *
                              *      TO ADD A NUMBER OF SECONDS CONTAINED IN (1,4) TO THE I/O SYSTEM
                              *      TYPE DATE/TIME IN THE LOGICAL AC, AND RETURN THE RESULTING I/O
                              *      SYSTEM DATE/TIME TO THE LOGICAL AC.
                              *         THE ADDEND MUST BE LESS THAN 24 HOURS.
                              *         (AN INCORRECT RESULT WILL BE OBTAINED AT TURN OF CENTURY)
                              *
      00134  0630 00 0 00036  ADDTIM STP     GDTD
      00135  0622 00 0 00036         STD     GDTD          SAVE DATE
      00136 -0320 00 0 00363         ANA     =O777777
      00137  0760 00 0 00003         SSP
      00140  0400 60 4 00001         ADD*    1,4
      00141  0621 00 0 00036         STA     GDTD
      00142  0625 00 0 00036         STT     GDTD          SAVE NEW TIME
      00143  0402 00 0 00230         SUB     DAYSEC
      00144  0120 00 0 00150         TPL     ADDATE        SKIP IF NOW PAST MIDNIGHT
      00145  0100 00 0 00150         TZE     ADDATE        SKIP IF NOW MIDNIGHT
      00146 -0500 00 0 00036         CAL     GDTD          SAME DATE
      00147  0020 00 4 00002         TRA     2,4           RETURN
                              *
      00150  0621 00 0 00036  ADDATE STA     GDTD
      00151  0625 00 0 00036         STT     GDTD          NEW TIME = EXCESS OVER MIDNIGHT
      00152  0560 00 0 00036         LDQ     GDTD          PREPARE TO INCREMENT DATE
 T    00153 -0754 00 0 00000         PXD
      00154 -0763 00 0 00011         LGL     9
      00155  0601 00 0 00231         STO     YEAR          SAVE YEAR
 T    00156 -0754 00 0 00000         PXD
      00157 -0763 00 0 00004         LGL     4
1            GENERAL DATE/TIME MANIPULATION ROUTINES                                             PAGE 4

      00160  0601 00 0 00232         STO     MONTH         SAVE MONTH
      00161  0634 00 1 00226         SXA     ADE,1
      00162  0734 00 1 00000         PAX     0,1           MONTH IN IR1
      00163 -3 00001 1 00174         TXL     ADA,1,1       SKIP IF NOT FEB.
      00164  3 00002 1 00174         TXH     ADA,1,2       SKIP IF NOT FEB.
                              *
      00165 -0500 00 0 00231         CAL     YEAR          ITS FEB., IS IT LEAP YEAR
      00166 -0765 00 0 00002         LGR     2
 T    00167 -0754 00 0 00000         PXD
      00170 -0763 00 0 00002         LGL     2
      00171 -0100 00 0 00174         TNZ     ADA           NOT LEAP YEAR, SKIP
      00172  0774 00 1 00035         AXT     29,1          FEB. AND LEAP YEAR, LAST DAY IS 29
      00173  0020 00 0 00176         TRA     ADB           SKIP
      00174 -0500 00 1 00247   ADA   CAL     MT+1,1        NOT FEB.,LEAP YEAR,GET LAST DAY OF MONTH
      00175  0734 00 1 00000         PAX     0,1
      00176 -0634 00 1 00203   ADB   SXD     ADC,1         NO. OF LAST DAY OF MONTH TO DECREMENT
 T    00177 -0754 00 0 00000         PXD
      00200 -0763 00 0 00005         LGL     5             DAY
      00201  0734 00 1 00000         PAX     0,1           IN IR1
      00202  1 00001 1 00203         TXI     *+1,1,1       DAY+1
      00203 -3 00000 1 00216   ADC   TXL     ADD,1,**      SKIP IF NO MONTH CHANGE NEEDED
                              *
      00204  0774 00 1 00001         AXT     1,1           CHANGE OF MONTH,NEW DAY IS 1ST
      00205  0500 00 0 00232         CLA     MONTH
      00206  0400 00 0 00347         ADD     =1
      00207  0601 00 0 00232         STO     MONTH         MONTH=MONTH+1
      00210  0402 00 0 00351         SUB     =13
      00211 -0120 00 0 00216         TMI     ADD           SKIP IF NO YEAR CHANGE NEEDED
                              *
      00212  0500 00 0 00347         CLA     =1            CHANGE OF YEAR,NEW MONTH IS 1ST
      00213  0601 00 0 00232         STO     MONTH
      00214  0400 00 0 00231         ADD     YEAR          ADD 1 TO YEAR
      00215  0601 00 0 00231         STO     YEAR
                              *
      00216 -0754 00 1 00000   ADD   PXD     0,1           DAY
      00217  0622 00 0 00036         STD     GDTD
      00220  0630 00 0 00036         STP     GDTD          PACK AND SAVE DAY WITH TIME
      00221 -0500 00 0 00231         CAL     YEAR
      00222  0767 00 0 00004         ALS     4             9-BIT YEAR,
      00223 -0501 00 0 00232         ORA     MONTH         AND 4-BIT MONTH TO LOGICAL AC
      00224  0767 00 0 00027         ALS     23
      00225 -0501 00 0 00036         ORA     GDTD          YEAR,MONTH,DAY,TIME IN LOGICAL AC
      00226  0774 00 1 00000   ADE   AXT     **,1
      00227  0020 00 4 00002         TRA     2,4           RETURN
                              *
      00230 +000000250600     DAYSEC OCT     250600        NO. OF SECS. IN A DAY
      00231  0 00000 0 00000   YEAR  PZE     **
      00232  0 00000 0 00000   MONTH PZE     **
      00233  0 00000 0 00037         PZE     31            DECEMBER
      00234  0 00000 0 00036         PZE     30            NOVEMBER
      00235  0 00000 0 00037         PZE     31            OCTOBER
      00236  0 00000 0 00036         PZE     30            SEPTEMBER
      00237  0 00000 0 00037         PZE     31            AUGUST
      00240  0 00000 0 00037         PZE     31            JULY
      00241  0 00000 0 00036         PZE     30            JUNE
      00242  0 00000 0 00037         PZE     31            MAY
1            GENERAL DATE/TIME MANIPULATION ROUTINES                                             PAGE 5

      00243  0 00000 0 00036         PZE     30            APRIL
      00244  0 00000 0 00037         PZE     31            MARCH
      00245  0 00000 0 00034         PZE     28            FEBRUARY
      00246  0 00000 0 00037   MT    PZE     31            JANUARY
                              *
                              *      SUBTRACT THE NO. OF DAYS CONTAINED IN (1,4) FROM
                              *      THE I/O SYSTEM DATE/TIME IN THE LOGICAL AC.
                              *
      00247  0634 00 1 00270  SUBDAY SXA     SBDY1,1
      00250  0634 00 4 00271         SXA     SBDY4,4
      00251  0602 00 0 00036         SLW     GDTD
      00252  0500 60 4 00001         CLA*    1,4
      00253  0734 00 1 00000         PAX     0,1           NO. OF DAYS IN IR1
      00254  0074 00 4 00001         TSX     $SETJUL,4     CONVERT AC TO JULIAN-TYPE DATE/TIME
 TD   00255  3 00000 0 00036         TXH     GDTD
 TD   00256  3 00000 0 00273         TXH     JULIAN
      00257  0500 00 0 00273         CLA     JULIAN
      00260 -3 00000 1 00263         TXL     *+3,1,0
      00261  0402 00 0 00230         SUB     DAYSEC        SUBTRACT DAYS
      00262  2 00001 1 00261         TIX     *-1,1,1
      00263  0601 00 0 00273         STO     JULIAN
      00264  0074 00 4 00002         TSX     $SETIOT,4     CONVERT RESULT TO I/O SYSTEM FORM
 TD   00265  3 00000 0 00036         TXH     GDTD
 TD   00266  3 00000 0 00273         TXH     JULIAN
      00267 -0500 00 0 00036         CAL     GDTD
      00270  0774 00 1 00000  SBDY1  AXT     **,1
      00271  0774 00 4 00000  SBDY4  AXT     **,4
      00272  0020 00 4 00002         TRA     2,4           RETURN TO CALLER
      00273  0 00000 0 00000  JULIAN PZE
                              *
                              *   CONVERT I/O SYSTEM DATE/TIME FROM LAC TO BCD TIME AND DATE --
                              *      HHMM.M (TIME) IN AC, MMDDYY (DATE) IN MQ
                              *
      00274 -0130 00 0 00000   IOBDT XCL
 T    00275 -0754 00 0 00000         PXD
      00276 -0763 00 0 00011         LGL     9             YEAR IN AC
      00277 -0600 00 0 00036         STQ     GDTD
      00300 -0130 00 0 00000         XCL                   YEAR IN MQ
 T    00301 -0754 00 0 00000         PXD
      00302  0221 00 0 00350         DVP     =10           TENS DIGIT OF YEAR IN MQ, UNITS IN AC
      00303 -0320 00 0 00352         ANA     =O17
      00304  0602 00 0 00125         SLW     DATE.         '00000Y'  OF DATE
      00305 -0130 00 0 00000         XCL
      00306 -0320 00 0 00352         ANA     =O17
      00307  0767 00 0 00006         ALS     6
      00310 -0602 00 0 00125         ORS     DATE.         '0000YY' OF DATE
      00311  0560 00 0 00036         LDQ     GDTD
 T    00312 -0754 00 0 00000         PXD
      00313 -0763 00 0 00004         LGL     4             MONTH IN AC
      00314  0601 00 0 00037         STO     GDTM
      00315  0402 00 0 00350         SUB     =10
      00316 -0120 00 0 00322         TMI     IBA
      00317  0601 00 0 00037         STO     GDTM          SAVE UNITS DIGIT OF MONTH
      00320  0500 00 0 00357         CLA     =O100
      00321  0020 00 0 00323         TRA     *+2
 T    00322 -0754 00 0 00000    IBA  PXD
1            GENERAL DATE/TIME MANIPULATION ROUTINES                                             PAGE 6

      00323  0400 00 0 00037         ADD     GDTM
      00324  0767 00 0 00030         ALS     24            'MM0000'
      00325 -0602 00 0 00125         ORS     DATE.         'MM00YY' OF DATE
 T    00326 -0754 00 0 00000         PXD
      00327 -0763 00 0 00005         LGL     5             DAY IN AC
      00330 -0600 00 0 00036         STQ     GDTD          SAVE THE TIME
      00331 -0130 00 0 00000         XCL                   DAY IN MQ
 T    00332 -0754 00 0 00000         PXD
      00333  0221 00 0 00350         DVP     =10           TENS DIGIT OF DAY IN MQ, UNITS IN AC
      00334 -0773 00 0 00006         RQL     6
      00335 -0600 00 0 00037         STQ     GDTM          STORE '0000D0'
      00336  0400 00 0 00037         ADD     GDTM          '0000DD' IN AC
      00337  0767 00 0 00014         ALS     12            '00DD00' IN AC
      00340 -0602 00 0 00125         ORS     DATE.         'MMDDYY' OF DATE
      00341 -0500 00 0 00036         CAL     GDTD          TIME
      00342  0771 00 0 00022         ARS     18
      00343 -0130 00 0 00000         XCL                   TIME IN SECS. IN MQ
      00344  0200 00 0 00356         MPY     =60           GET TIME IN 1/60TH'S SEC. IN MQ
      00345  0634 00 4 00107         SXA     TPWATX,4
      00346  0020 00 0 00062         TRA     BCA           GO FINISH TIME CONVERSION TO BCD 'HHMM.M'
                              *
                                     END

        LITERALS
      00347  000000000001
      00350  000000000012
      00351  000000000015
      00352  000000000017
      00353  000000000033
      00354  000000000037
      00355  000000000060
      00356  000000000074
      00357  000000000100
      00360  000000000550
      00361  000000000777
      00362  000000645700
      00363  000000777777
1            GENERAL DATE/TIME MANIPULATION ROUTINES                                             PAGE 1
                        POST PROCESSOR ASSEMBLY DATA

        364 IS THE FIRST LOCATION NOT USED BY THIS PROGRAM

0REFERENCES TO DEFINED SYMBOLS
        246     MT   174
        174    ADA   163,  164,  171
        176    ADB   173
        203    ADC   176
        216    ADD   203,  211
        226    ADE   161
         62    BCA   346
          7    GDT     0,  131
        322    IBA   316
         33   GDTA     5,    7,  130
         34   GDTB    12
         36   GDTD    15,   20,   24,   31,  132,  134,  135,  141,  142,  146,  150,  151,  152,  217,  220,  225,  251
                     255,  265,  267,  277,  311,  330,  341
         37   GDTM    11,   26,  314,  317,  323,  335,  336
        127   MIN.    64,   74
         55   TENS    41,   50,   53
        231   YEAR   155,  165,  214,  215,  221
        130  CNVDT     0
        125  DATE.    61,  106,  304,  310,  325,  340
        126  HOUR.    73,  102,  105
        274  IOBDT     0
        232  MONTH   160,  205,  207,  213,  223
        270  SBDY1   247
        271  SBDY4   250
        150 ADDATE   133,  144,  145
        132 ADDDAY     0
        134 ADDTIM     0
         56 BCDDTM     0
        111 BINBCD    65,   77
        114 BNBCD1   120
        122 BNBCDX   111
        230 DAYSEC   143,  261
          5 GDTSYS     0
          0 GETIME    10,   57
        273 JULIAN   256,  257,  263,  266
          2 SETIOT   264
          1 SETJUL   254
        247 SUBDAY     0
        124 TPLIN.   112,  117,  121
        107 TPWATX    56,  345
         40 TWODIG    13,   16,   21

0 NO ERROR IN ABOVE ASSEMBLY.


PRCODE   BCD 05/28/67 1810.9     591         00000
1                                                                                                PAGE 1

                       00003         ENTRY   PRCODE
                                     EXTERN  WRFLX

        TRANSFER VECTOR
      00000  665126436760     WRFLX

            LINKAGE DIRECTOR
      00001  000000000000
      00002  475123462425

      00003  0634 00 1 00042  PRCODE SXA     P1,1
      00004  0634 00 4 00043         SXA     P4,4
      00005 -0500 00 4 00001         CAL     1,4
      00006  0400 00 0 00063         ADD     =O17
      00007  0322 00 0 00064         ERA     =O506060600000
      00010 -0765 00 0 00014         LGR     12
      00011 -0773 00 0 00006         RQL     6
      00012  0774 00 1 00002         AXT     2,1
      00013  0767 00 0 00003         ALS     3
      00014 -0763 00 0 00003         LGL     3
      00015  2 00001 1 00013         TIX     *-2,1,1
      00016  0602 00 0 00047         SLW     MESX+2
      00017 -0500 00 4 00002         CAL     2,4
      00020 -0734 00 1 00000         PDX     ,1
      00021 -0634 00 1 00030         SXD     INC,1
      00022 -0634 00 1 00031         SXD     INC+1,1
      00023  0634 00 1 00034         SXA     INC+4,1
      00024  1 00003 1 00025         TXI     *+1,1,3
      00025 -0634 00 1 00041         SXD     PRNT,1
      00026  0734 00 1 00000         PAX     ,1
      00027  0774 00 4 00050         AXT     MESX+3,4
      00030  1 00000 1 00031  INC    TXI     *+1,1,**
      00031  1 00000 4 00032         TXI     *+1,4,**
      00032  0634 00 1 00035         SXA     FROM,1
      00033  0634 00 4 00036         SXA     TO,4
      00034  0774 00 1 00000         AXT     **,1
      00035 -0500 00 1 00000  FROM   CAL     **,1
      00036  0602 00 1 00000  TO     SLW     **,1
      00037  2 00001 1 00035         TIX     *-2,1,1
      00040  0074 00 4 00000         TSX     WRFLX,4
      00041  0 00000 0 00045  PRNT           MESX,,**
      00042  0774 00 1 00000  P1     AXT     **,1
      00043  0774 00 4 00000  P4     AXT     **,4
      00044  0020 00 4 00003         TRA     3,4
                              *
      00045  622563604225     MESX   BCI     2,SET KEY CODE
      00046  706023462425
      00047                          BSS     12
                                     END

        LITERALS
      00063  000000000017
      00064  506060600000
1                                                                                                PAGE 1
                        POST PROCESSOR ASSEMBLY DATA

         65 IS THE FIRST LOCATION NOT USED BY THIS PROGRAM

0REFERENCES TO DEFINED SYMBOLS
         42     P1     3
         43     P4     4
         36     TO    33
         30    INC    21,   22,   23
         35   FROM    32
         45   MESX    16,   27,   41
         41   PRNT    25
          0  WRFLX    40
          3 PRCODE     0

0 NO ERROR IN ABOVE ASSEMBLY.


SETTIM   BCD 05/28/67 1810.9    4233         00000
1     MAD PROGRAM LISTING ... ... ...                 FILE  SETTIM   MAD            05/28/67    1730.4
-
                 ...SUBROUTINE TO SET UP JULIAN TIME FROM I/O SYSTEM TIME                               000010
                 ...AND VICE-VERSA                                                                      000020
                 ...                                                                                    000030
                  EXTERNAL FUNCTION ( IOSTIM, JULIAN )                                            *001  000040
                                                                                                        000050
                  INSERT FILE DEFINE                                                              *002  000060
                  DEFINE BINARY OPERATOR .X., PRECEDENCE SAME AS =                                *003   00010
                  MODE STRUCTURE 0 .X. 0 TO 0                                                     *004   00020
             CLA  A                                                                               *005   00030
             LDQ  B                                                                               *006   00040
             STQ  A                                                                               *007   00050
             STO  B                                                                               *008   00060
             OUT  Z                                                                               *009   00070
             END                                                                                  *010   00080
                                                                                                         00090
                  MODE STRUCTURE 1 .X. 1 TO 1, SAME SEQUENCE AS 0 .X. 0                           *011   00100
                  MODE STRUCTURE 2 .X. 2 TO 2, SAME SEQUENCE AS 0 .X. 0                           *012   00110
                  MODE STRUCTURE 3 .X. 3 TO 3, SAME SEQUENCE AS 0 .X. 0                           *013   00120
                  MODE STRUCTURE 4 .X. 4 TO 4, SAME SEQUENCE AS 0 .X. 0                           *014   00130
                                                                                                         00140
                                                                                                         00150
                  DEFINE BINARY OPERATOR .R., PRECEDENCE SAME AS .RS.                             *015   00160
                  MODE STRUCTURE 1 .R. 1 TO 1                                                     *016   00170
             JMP  *+1,LA,*+3                                                                      *017   00180
             SLW  T                                                                               *018   00190
             JMP  *+10                                                                            *019   00200
             JMP  *+3,AT,*+1                                                                      *020   00210
             JMP  *+7,AC,*+1                                                                      *021   00220
             JMP  *+4,MQ,*+7                                                                      *022   00230
             JMP  *+1,AC,*+7                                                                      *023   00240
             LRS  35                                                                              *024   00250
             JMP  *+6                                                                             *025   00260
             STQ  T                                                                               *026   00270
             JMP  *+2                                                                             *027   00280
             STO  T                                                                               *028   00290
             LDQ  A                                                                               *029   00300
             PXD                                                                                  *030   00310
             DVP  B                                                                               *031   00320
             OUT  AC                                                                              *032   00330
             END                                                                                  *033   00340
                                                                                                         00350
                                                                                                         00360
                                                                                                         00370
                                                                                                         00380
                                                                                                  *002  000070
                  ENTRY TO SETJUL.                                                                *034  000080
                 ...THIS ENTRY SETS JULIAN FROM IOSTIM.                                                 000090
                 ...                                                                                    000100
                  YR = ( IOSTIM .A. 777K9 ) .RS. 27                                               *035  000110
                  MTH = ( IOSTIM .A. 74K7 ) .RS. 23                                               *036  000120
                  DAY = ( IOSTIM .A. 37K6 ) .RS. 18                                               *037  000130
                  SEC = ( IOSTIM .A. 777777K )                                                    *038  000140
                 ...                                                                                    000150
                  WHENEVER ( YR .R. 4 ) .E. 0 .AND. MTH .G. 2                                     *039  000160
                   JULIAN = 1                                                                     *040  000170
                  OTHERWISE                                                                       *041  000180
                   JULIAN = 0                                                                     *042  000190
                  END OF CONDITIONAL                                                              *043  000200
                 ...                                                                                    000210
                  WHENEVER MTH .G. 12 .OR. DAY .G. 365+JULIAN .OR. SEC .G. 86400,                 *044  000220
                1    FUNCTION RETURN 0                                                            *044  000230
                  YR = YR-65                                                                      *045  000240
                  JULIAN = (YR*YRXX) + (JDAYTB(MTH)+DAY+JULIAN)*DAYXX + SEC                       *046  000250
                  FUNCTION RETURN JULIAN                                                          *047  000260
                 ...                                                                                    000270
                  ENTRY TO SETIOT.                                                                *048  000280
                 ...THIS ENTRY SETS IOSTIM FROM JULIAN                                                  000290
                 ...                                                                                    000300
                  YR = JULIAN/YRXX                                                                *049  000310
                  DAY = (JULIAN-YRXX*YR)/ DAYXX                                                   *050  000320
                  SEC = JULIAN .R. (YR*YRXX + DAY*DAYXX)                                          *051  000330
                  YR = YR + 65                                                                    *052  000340
                 ...                                                                                    000350
                  WHENEVER DAY .G. 366 .OR. SEC .G. 86400, FUNCTION RETURN 0                      *053  000360
      SETS1       THROUGH SETS1, FOR MTH = 1, 1, JDAYTB(MTH+1) .GE. DAY                           *054  000370
                  WHENEVER MTH .L. 0 .OR. MTH .G. 12, FUNCTION RETURN 0                           *055  000380
                  DAY = DAY - JDAYTB(MTH)                                                         *056  000400
                  IOSTIM = (YR .LS. 27) .V. (MTH .LS. 23) .V. (DAY .LS. 18) .V.                   *057  000410
                1    SEC                                                                          *057  000420
                  FUNCTION RETURN IOSTIM                                                          *058  000430
                 ...                                                                                    000440
                 ...                                                                                    000450
                  INTEGER YR,MTH,DAY,SEC,JULIAN,IOSTIM,YRXX,DAYXX,JDAYTB                          *059  000460
                  DIMENSION JDAYTB(13)                                                            *060  000500
                  VECTOR VALUES YRXX =  31536000                                                  *061  000510
                  VECTOR VALUES DAYXX =  86400                                                    *062  000520
                  VECTOR VALUES JDAYTB =0,0,31,59,90,120,151,181,212,243,273,304,334,365          *063  000530
                  END OF FUNCTION                                                                 *064  000540
                                         MODE STRUCTURE 0 .X. 0 TO 0          004    00020
 (THE NUMERIC FORM OF THE OPERATOR-MODE ARGUMENT IS    11100 )
                 MODE STRUCTURE 1 .X. 1 TO 1, SAME SEQUENCE AS 0 .X. 0        011    00100
 (THE NUMERIC FORM OF THE OPERATOR-MODE ARGUMENT IS    11111 )
                 MODE STRUCTURE 2 .X. 2 TO 2, SAME SEQUENCE AS 0 .X. 0        012    00110
 (THE NUMERIC FORM OF THE OPERATOR-MODE ARGUMENT IS    11122 )
                 MODE STRUCTURE 3 .X. 3 TO 3, SAME SEQUENCE AS 0 .X. 0        013    00120
 (THE NUMERIC FORM OF THE OPERATOR-MODE ARGUMENT IS    11133 )
                 MODE STRUCTURE 4 .X. 4 TO 4, SAME SEQUENCE AS 0 .X. 0        014    00130
 (THE NUMERIC FORM OF THE OPERATOR-MODE ARGUMENT IS    11144 )
                                         MODE STRUCTURE 1 .R. 1 TO 1          016    00170
 (THE NUMERIC FORM OF THE OPERATOR-MODE ARGUMENT IS    11211 )
1MAD PROGRAM,TYPE NOV 1963      (ALL NUMBERS ARE OCTAL)
0TOTAL LOCATIONS   00354 TRANSFER VECTOR LENGTH  00001 PROGRAM BEGINS    00047
0 PROGRAM IS AN EXTERNAL FUNCTION.   THE FOLLOWING ARE ENTRIES
      SETIOT 00166   0        SETJUL 00050   0
0VARIABLE STORAGE (A=ARRAY,C=COMMON,E=ERASABLE,DIGIT=MODE)
      DAY    00002   1        JDAYTB 00021 A 1        SEC    00023   1        YR     00024   1        YRXX   00025 A 1
      DAYXX  00003 A 1        MTH    00022   1        SETS1  00001   4
0FUNCTION DICTIONARY
      EXIT   00000   0
0ABSOLUTE CONSTANTS
 00040 +000000000556     00036 +000000000101     00032 +000000000014     00037 +000000000555     00041 +000000250600
 00026 +000000000000     00031 +000000000004     00030 +000000000002     00042 +000000777777     00033 +000000000022
 00043 +000037000000     00034 +000000000027     00044 +000740000000     00035 +000000000033     00046 -377000000000
 00027 +000000000001     00045 +233000000000
0PROGRAM
                 EXTERNAL FUNCTION ( IOSTIM, JULIAN )                               001   000040
                 INSERT FILE DEFINE                                                 002   000060
                 DEFINE BINARY OPERATOR .X., PRECEDENCE SAME AS =                   003    00010
                 MODE STRUCTURE 0 .X. 0 TO 0                                        004    00020
                 MODE STRUCTURE 1 .X. 1 TO 1, SAME SEQUENCE AS 0 .X. 0              011    00100
                 MODE STRUCTURE 2 .X. 2 TO 2, SAME SEQUENCE AS 0 .X. 0              012    00110
                 MODE STRUCTURE 3 .X. 3 TO 3, SAME SEQUENCE AS 0 .X. 0              013    00120
                 MODE STRUCTURE 4 .X. 4 TO 4, SAME SEQUENCE AS 0 .X. 0              014    00130
                 DEFINE BINARY OPERATOR .R., PRECEDENCE SAME AS .RS.                015    00160
                 MODE STRUCTURE 1 .R. 1 TO 1                                        016    00170
                 ENTRY TO SETJUL.                                                   034   000080
 00047 TRA +0 02000 0 00052    00050 SXA +0 63400 2 00317    00051 TSX +0 07400 2 00317
                 YR = ( IOSTIM .A. 777K9 ) .RS. 27                                  035   000110
 00052 CAL -0 50000 0 00024    00053 ANA -0 32000 0 00046    00054 SLW +0 60200 0 00350    00055 CAL -0 50000 0 00035
 00056 STA +0 62100 0 00060    00057 CAL -0 50000 0 00350    00060 LGR -0 76500 0 00000    00061 SLW +0 60200 0 00024
                 MTH = ( IOSTIM .A. 74K7 ) .RS. 23                                  036   000120
 00062 CAL -0 50000 0 00024    00063 ANA -0 32000 0 00044    00064 SLW +0 60200 0 00350    00065 CAL -0 50000 0 00034
 00066 STA +0 62100 0 00070    00067 CAL -0 50000 0 00350    00070 LGR -0 76500 0 00000    00071 SLW +0 60200 0 00022
                 DAY = ( IOSTIM .A. 37K6 ) .RS. 18                                  037   000130
 00072 CAL -0 50000 0 00024    00073 ANA -0 32000 0 00043    00074 SLW +0 60200 0 00350    00075 CAL -0 50000 0 00033
 00076 STA +0 62100 0 00100    00077 CAL -0 50000 0 00350    00100 LGR -0 76500 0 00000    00101 SLW +0 60200 0 00002
                 SEC = ( IOSTIM .A. 777777K )                                       038   000140
 00102 CAL -0 50000 0 00024    00103 ANA -0 32000 0 00042    00104 SLW +0 60200 0 00023
                 W'R ( YR .R. 4 ) .E. 0 .AND. MTH .G. 2                             039   000160
 00105 CLA +0 50000 0 00022    00106 SUB +0 40200 0 00030    00107 TZE +0 10000 0 00121    00110 TMI -0 12000 0 00121
 00111 LDQ +0 56000 0 00024    00112 PXD -0 75400 0 00000    00113 DVP +0 22100 0 00031    00114 SUB +0 40200 0 00026
 00115 TNZ -0 10000 0 00121
                  JULIAN = 1                                                        040   000170
 00116 CLA +0 50000 0 00027    00117 STO +0 60100 0 00024
                 O'E                                                                041   000180
 00120 TRA +0 02000 0 00123
                  JULIAN = 0                                                        042   000190
 00121 CLA +0 50000 0 00026    00122 STO +0 60100 0 00024
                 E'L                                                                043   000200
                 W'R MTH .G. 12 .OR. DAY .G. 365+JULIAN .OR. SEC .G. 86400,         044   000220
                1   FUNCTION RETURN 0                                               044   000230
 00123 CLA +0 50000 0 00023    00124 SUB +0 40200 0 00041    00125 TZE +0 10000 0 00127    00126 TPL +0 12000 0 00141
 00127 CLA +0 50000 0 00037    00130 ADD +0 40000 0 00024    00131 CHS +0 76000 0 00002    00132 ADD +0 40000 0 00002
 00133 TZE +0 10000 0 00135    00134 TPL +0 12000 0 00141    00135 CLA +0 50000 0 00022    00136 SUB +0 40200 0 00032
 00137 TZE +0 10000 0 00143    00140 TMI -0 12000 0 00143    00141 CLA +0 50000 0 00026    00142 TRA +0 02000 0 00344
                 YR = YR-65                                                         045   000240
 00143 CLA +0 50000 0 00024    00144 SUB +0 40200 0 00036    00145 STO +0 60100 0 00024
                 JULIAN = (YR*YRXX) + (JDAYTB(MTH)+DAY+JULIAN)*DAYXX + SEC          046   000250
 00146 LXA +0 53400 1 00022    00147 CLA +0 50000 1 00021    00150 ADD +0 40000 0 00002    00151 ADD +0 40000 0 00024
 00152 XCA +0 13100 0 00000    00153 MPY +0 20000 0 00003    00154 STQ -0 60000 0 00350    00155 LDQ +0 56000 0 00024
 00156 MPY +0 20000 0 00025    00157 XCA +0 13100 0 00000    00160 ADD +0 40000 0 00350    00161 ADD +0 40000 0 00023
 00162 STO +0 60100 0 00024
                 F'N JULIAN                                                         047   000260
 00163 CLA +0 50000 0 00024    00164 TRA +0 02000 0 00344
                 ENTRY TO SETIOT.                                                   048   000280
 00165 TRA +0 02000 0 00170    00166 SXA +0 63400 2 00317    00167 TSX +0 07400 2 00317
                 YR = JULIAN/YRXX                                                   049   000310
 00170 LDQ +0 56000 0 00024    00171 PXD -0 75400 0 00000    00172 LLS +0 76300 0 00000    00173 DVP +0 22100 0 00025
 00174 STQ -0 60000 0 00024
                 DAY = (JULIAN-YRXX*YR)/ DAYXX                                      050   000320
 00175 LDQ +0 56000 0 00025    00176 MPY +0 20000 0 00024    00177 XCA +0 13100 0 00000    00200 CHS +0 76000 0 00002
 00201 ADD +0 40000 0 00024    00202 LRS +0 76500 0 00043    00203 DVP +0 22100 0 00003    00204 STQ -0 60000 0 00002
                 SEC = JULIAN .R. (YR*YRXX + DAY*DAYXX)                             051   000330
 00205 LDQ +0 56000 0 00002    00206 MPY +0 20000 0 00003    00207 STQ -0 60000 0 00350    00210 LDQ +0 56000 0 00024
 00211 MPY +0 20000 0 00025    00212 XCA +0 13100 0 00000    00213 ADD +0 40000 0 00350    00214 STO +0 60100 0 00350
 00215 LDQ +0 56000 0 00024    00216 PXD -0 75400 0 00000    00217 DVP +0 22100 0 00350    00220 STO +0 60100 0 00023
                 YR = YR + 65                                                       052   000340
 00221 CLA +0 50000 0 00024    00222 ADD +0 40000 0 00036    00223 STO +0 60100 0 00024
                 W'R DAY .G. 366 .OR. SEC .G. 86400, FUNCTION RETURN 0              053   000360
 00224 CLA +0 50000 0 00023    00225 SUB +0 40200 0 00041    00226 TZE +0 10000 0 00230    00227 TPL +0 12000 0 00234
 00230 CLA +0 50000 0 00002    00231 SUB +0 40200 0 00040    00232 TZE +0 10000 0 00236    00233 TMI -0 12000 0 00236
 00234 CLA +0 50000 0 00026    00235 TRA +0 02000 0 00344
      SETS1      T'H SETS1, FOR MTH = 1, 1, JDAYTB(MTH+1) .GE. DAY                  054   000370
 00236 CLA +0 50000 0 00027    00237 STO +0 60100 0 00022    00240 TRA +0 02000 0 00244    00241 CLA +0 50000 0 00022
 00242 ADD +0 40000 0 00027    00243 STO +0 60100 0 00022    00244 CLA +0 50000 0 00022    00245 ADD +0 40000 0 00027
 00246 PAX +0 73400 1 00000    00247 CLA +0 50000 1 00021    00250 SUB +0 40200 0 00002    00251 TZE +0 10000 0 00254
 00252 TPL +0 12000 0 00254    00253 TRA +0 02000 0 00241
                 W'R MTH .L. 0 .OR. MTH .G. 12, FUNCTION RETURN 0                   055   000380
 00254 CLA +0 50000 0 00022    00255 SUB +0 40200 0 00032    00256 TZE +0 10000 0 00260    00257 TPL +0 12000 0 00264
 00260 CLA +0 50000 0 00022    00261 SUB +0 40200 0 00026    00262 TZE +0 10000 0 00266    00263 TPL +0 12000 0 00266
 00264 CLA +0 50000 0 00026    00265 TRA +0 02000 0 00344
                 DAY = DAY - JDAYTB(MTH)                                            056   000400
 00266 LXA +0 53400 2 00022    00267 CLA +0 50000 0 00002    00270 SUB +0 40200 2 00021    00271 STO +0 60100 0 00002
                 IOSTIM = (YR .LS. 27) .V. (MTH .LS. 23) .V. (DAY .LS. 18) .V.      057   000410
                1   SEC                                                             057   000420
 00272 CAL -0 50000 0 00033    00273 STA +0 62100 0 00275    00274 CAL -0 50000 0 00002    00275 ALS +0 76700 0 00000
 00276 SLW +0 60200 0 00350    00277 CAL -0 50000 0 00034    00300 STA +0 62100 0 00302    00301 CAL -0 50000 0 00022
 00302 ALS +0 76700 0 00000    00303 SLW +0 60200 0 00351    00304 CAL -0 50000 0 00035    00305 STA +0 62100 0 00307
 00306 CAL -0 50000 0 00024    00307 ALS +0 76700 0 00000    00310 ORA -0 50100 0 00351    00311 ORA -0 50100 0 00350
 00312 ORA -0 50100 0 00023    00313 SLW +0 60200 0 00024
                 F'N IOSTIM                                                         058   000430
 00314 CLA +0 50000 0 00024    00315 TRA +0 02000 0 00344
                 INTEGER YR,MTH,DAY,SEC,JULIAN,IOSTIM,YRXX,DAYXX,JDAYTB             059   000460
                 DIMENSION JDAYTB(13)                                               060   000500
                 VECTOR VALUES YRXX =  31536000                                     061   000510
 00025     +0 00170 2 31600
                 VECTOR VALUES DAYXX =  86400                                       062   000520
 00003     +0 00000 2 50600
                 V'S JDAYTB =0,0,31,59,90,120,151,181,212,243,273,304,334,365       063   000530
 00004     +0 00000 0 00555    00005     +0 00000 0 00516    00006     +0 00000 0 00460    00007     +0 00000 0 00421
 00010     +0 00000 0 00363    00011     +0 00000 0 00324    00012     +0 00000 0 00265    00013     +0 00000 0 00227
 00014     +0 00000 0 00170    00015     +0 00000 0 00132    00016     +0 00000 0 00073    00017     +0 00000 0 00037
 00020     +0 00000 0 00000    00021     +0 00000 0 00000
                 END OF FUNCTION                                                    064   000540
 00316 TSX +0 07400 4 00000    00317 TXH +3 00000 0 00000    00320 SXD -0 63400 1 00317    00321 SXA +0 63400 4 00344
 00322 CLA +0 50000 4 00001    00323 STA +0 62100 0 00052    00324 STA +0 62100 0 00062    00325 STA +0 62100 0 00072
 00326 STA +0 62100 0 00102    00327 STA +0 62100 0 00313    00330 STA +0 62100 0 00314    00331 CLA +0 50000 4 00002
 00332 STA +0 62100 0 00117    00333 STA +0 62100 0 00122    00334 STA +0 62100 0 00130    00335 STA +0 62100 0 00151
 00336 STA +0 62100 0 00162    00337 STA +0 62100 0 00163    00340 STA +0 62100 0 00170    00341 STA +0 62100 0 00201
 00342 STA +0 62100 0 00215    00343 TRA +0 02000 2 00001    00344 AXT +0 77400 4 00000    00345 LXA +0 53400 2 00317
 00346 LXD -0 53400 1 00317    00347 TRA +0 02000 4 00001


 NLREC   BCD 05/28/67 1810.9    1447         00000
1     MAD PROGRAM LISTING ... ... ...                 FILE   NLREC   MAD            05/28/67    1730.5
-
                  EXTERNAL FUNCTION (NRECS,IRC,LRC,LTRC,LPREAM,LPHYS,NFLR,NLAST                   *001  000001
                1 )                                                                               *001  000002
                  ENTRY TO    NLREC .                                                             *002  000003
                  NWDS=(NRECS-1)*IRC+LRC                                                          *003  000004
                  NFLR=NWDS/LTRC                                                                  *004  000005
                  NLEFT=XMOD  .(    NWDS,LTRC)                                                    *005  000006
                  WHENEVER (NLEFT) .LE. 0, TRANSFER TO QQ0004                                     *006  000007
                  MLPH = NLEFT + LPREAM                                                           *007  000017
                  REM = MLPH - (MLPH/LPHYS)*LPHYS                                                 *008  000027
                  NLAST=(MLPH/LPHYS+(REM/REM))*LPHYS                                              *009  000037
                  TRANSFER TO QQ0005                                                              *010  000047
      QQ0004      NLAST=0                                                                         *011  000057
      QQ0005      FUNCTION RETURN                                                                 *012  000067
                  INTEGER     NWDS  ,     NRECS ,     IRC   ,     LRC                             *013  000077
                  INTEGER     NFLR  ,     LTRC  ,     NLEFT ,     XMOD                            *014  000087
                  INTEGER     NLAST ,     LPREAM,     LPHYS                                       *015  000097
                  INTEGER   MLPH,     REM                                                         *016  000107
                  END OF FUNCTION                                                                 *017  000117
1MAD PROGRAM,TYPE NOV 1963      (ALL NUMBERS ARE OCTAL)
0TOTAL LOCATIONS   00143 TRANSFER VECTOR LENGTH  00002 PROGRAM BEGINS    00014
0 PROGRAM IS AN EXTERNAL FUNCTION.   THE FOLLOWING ARE ENTRIES
      NLREC  00015   0
0VARIABLE STORAGE (A=ARRAY,C=COMMON,E=ERASABLE,DIGIT=MODE)
      MLPH   00005   1        NWDS   00007   1        QQ0004 00003   4        QQ0005 00004   4        REM    00010   1
      NLEFT  00006   1
0FUNCTION DICTIONARY
      EXIT   00000   0        XMOD   00001   1
0ABSOLUTE CONSTANTS
 00011 +000000000000     00012 +000000000001     00013 +233000000000
0STATEMENT DICTIONARY
 00003 TXL -300101000077       00004 TXL -300102000101
0PROGRAM
                 EXTERNAL FUNCTION (NRECS,IRC,LRC,LTRC,LPREAM,LPHYS,NFLR,NLAST      001   000001
                1)                                                                  001   000002
                 ENTRY TO    NLREC .                                                002   000003
 00014 TRA +0 02000 0 00017    00015 SXA +0 63400 2 00103    00016 TSX +0 07400 2 00103
                 NWDS=(NRECS-1)*IRC+LRC                                             003   000004
 00017 CLA +0 50000 0 00024    00020 SUB +0 40200 0 00012    00021 XCA +0 13100 0 00000    00022 MPY +0 20000 0 00024
 00023 XCA +0 13100 0 00000    00024 ADD +0 40000 0 00024    00025 STO +0 60100 0 00007
                 NFLR=NWDS/LTRC                                                     004   000005
 00026 LDQ +0 56000 0 00007    00027 PXD -0 75400 0 00000    00030 LLS +0 76300 0 00000    00031 DVP +0 22100 0 00024
 00032 STQ -0 60000 0 00024
                 NLEFT=XMOD  .(    NWDS,LTRC)                                       005   000006
 00033 TSX +0 07400 4 00001    00034 TXH +3 00000 0 00007    00035 TXH +3 00000 0 00024    00036 STO +0 60100 0 00006
                 WHENEVER (NLEFT) .LE. 0, TRANSFER TO QQ0004                        006   000007
 00037 CLA +0 50000 0 00006    00040 SUB +0 40200 0 00011    00041 TZE +0 10000 0 00043    00042 TPL +0 12000 0 00044
 00043 TRA +0 02000 0 00003
                 MLPH = NLEFT + LPREAM                                              007   000017
 00044 CLA +0 50000 0 00006    00045 ADD +0 40000 0 00024    00046 STO +0 60100 0 00005
                 REM = MLPH - (MLPH/LPHYS)*LPHYS                                    008   000027
 00047 LDQ +0 56000 0 00005    00050 PXD -0 75400 0 00000    00051 LLS +0 76300 0 00000    00052 DVP +0 22100 0 00024
 00053 MPY +0 20000 0 00024    00054 XCA +0 13100 0 00000    00055 CHS +0 76000 0 00002    00056 ADD +0 40000 0 00005
 00057 STO +0 60100 0 00010
                 NLAST=(MLPH/LPHYS+(REM/REM))*LPHYS                                 009   000037
 00060 LDQ +0 56000 0 00010    00061 PXD -0 75400 0 00000    00062 LLS +0 76300 0 00000    00063 DVP +0 22100 0 00010
 00064 STQ -0 60000 0 00140    00065 LDQ +0 56000 0 00005    00066 PXD -0 75400 0 00000    00067 LLS +0 76300 0 00000
 00070 DVP +0 22100 0 00024    00071 XCA +0 13100 0 00000    00072 ADD +0 40000 0 00140    00073 XCA +0 13100 0 00000
 00074 MPY +0 20000 0 00024    00075 STQ -0 60000 0 00024
                 TRANSFER TO QQ0005                                                 010   000047
 00076 TRA +0 02000 0 00004
      QQ0004     NLAST=0                                                            011   000057
 00077 CLA +0 50000 0 00011    00100 STO +0 60100 0 00024
      QQ0005     FUNCTION RETURN                                                    012   000067
 00101 TRA +0 02000 0 00134
                 INTEGER     NWDS  ,     NRECS ,     IRC   ,     LRC                013   000077
                 INTEGER     NFLR  ,     LTRC  ,     NLEFT ,     XMOD               014   000087
                 INTEGER     NLAST ,     LPREAM,     LPHYS                          015   000097
                 INTEGER   MLPH,     REM                                            016   000107
                 END OF FUNCTION                                                    017   000117
 00102 TSX +0 07400 4 00000    00103 TXH +3 00000 0 00000    00104 SXD -0 63400 1 00103    00105 SXA +0 63400 4 00134
 00106 CLA +0 50000 4 00001    00107 STA +0 62100 0 00017    00110 CLA +0 50000 4 00002    00111 STA +0 62100 0 00022
 00112 CLA +0 50000 4 00003    00113 STA +0 62100 0 00024    00114 CLA +0 50000 4 00004    00115 STA +0 62100 0 00031
 00116 STO +0 60100 0 00035    00117 CLA +0 50000 4 00005    00120 STA +0 62100 0 00045    00121 CLA +0 50000 4 00006
 00122 STA +0 62100 0 00052    00123 STA +0 62100 0 00053    00124 STA +0 62100 0 00070    00125 STA +0 62100 0 00074
 00126 CLA +0 50000 4 00007    00127 STA +0 62100 0 00032    00130 CLA +0 50000 4 00010    00131 STA +0 62100 0 00075
 00132 STA +0 62100 0 00100    00133 TRA +0 02000 2 00001    00134 AXT +0 77400 4 00000    00135 LXA +0 53400 2 00103
 00136 LXD -0 53400 1 00103    00137 TRA +0 02000 4 00001


  XMOD   BCD 05/28/67 1810.9     267         00000
1      XMOD          REMAINDERING ARG1(MOD ARG2)                                                 PAGE 1

                              *              CALLING SEQUENCE TSX XMOD,4
                              *                               TXH ARG1(FIXED)
                              *                               TXH ARG2(FIXED)
                              *                               3,4 RETURN
                              *              FUNCTION FIXED
                       00002         ENTRY   XMOD

            LINKAGE DIRECTOR
      00000  000000000000
      00001  674446246060

      00002  0760 00 0 00000  XMOD   CLM
      00003  0560 60 4 00001         LDQ*    1,4
 A    00004  0763 00 0 00000         LLS                   SIGN OF MQ TO AC
      00005  0221 60 4 00002         DVP*    2,4
      00006  0020 00 4 00003         TRA     3,4
                                                           FUNCTION IN ARITHMETIC AC FIXED
                                     END
1      XMOD          REMAINDERING ARG1(MOD ARG2)                                                 PAGE 1
                        POST PROCESSOR ASSEMBLY DATA

          7 IS THE FIRST LOCATION NOT USED BY THIS PROGRAM

0REFERENCES TO DEFINED SYMBOLS
          2   XMOD     0

0 NO ERROR IN ABOVE ASSEMBLY.


 STRVE   BCD 02/09/69 0531.7  115067         00000


TRIEVE   BCD 03/15/68 0344.4   18091         00000
