1            CONVERT I/O SYSTEM DATE/TIME TO BCD.....M.J.BAILEY,12/11/64                         PAGE 1

                              *       (EXTRACTED FROM GDT FOR LOADER USE)
                              *
                       00002         ENTRY   IOBDT
                              *
                              *   CONVERT I/O SYSTEM DATE/TIME FROM LAC TO BCD TIME AND DATE --
                              *      HHMM.M (TIME) IN AC, MMDDYY (DATE) IN MQ
                              *

            LINKAGE DIRECTOR
      00000  000000000000
      00001  314622246360

      00002 -0130 00 0 00000   IOBDT XCL
 T    00003 -0754 00 0 00000         PXD
      00004 -0763 00 0 00011         LGL     9             YEAR IN AC
      00005 -0600 00 0 00122         STQ     GDTD
      00006 -0130 00 0 00000         XCL                   YEAR IN MQ
 T    00007 -0754 00 0 00000         PXD
      00010  0221 00 0 00124         DVP     =10           TENS DIGIT OF YEAR IN MQ, UNITS IN AC
      00011 -0320 00 0 00125         ANA     =O17
      00012  0602 00 0 00117         SLW     DATE.         '00000Y'  OF DATE
      00013 -0130 00 0 00000         XCL
      00014 -0320 00 0 00125         ANA     =O17
      00015  0767 00 0 00006         ALS     6
      00016 -0602 00 0 00117         ORS     DATE.         '0000YY' OF DATE
      00017  0560 00 0 00122         LDQ     GDTD
 T    00020 -0754 00 0 00000         PXD
      00021 -0763 00 0 00004         LGL     4             MONTH IN AC
      00022  0601 00 0 00123         STO     GDTM
      00023  0402 00 0 00124         SUB     =10
      00024 -0120 00 0 00030         TMI     IBA
      00025  0601 00 0 00123         STO     GDTM          SAVE UNITS DIGIT OF MONTH
      00026  0500 00 0 00131         CLA     =O100
      00027  0020 00 0 00031         TRA     *+2
 T    00030 -0754 00 0 00000    IBA  PXD
      00031  0400 00 0 00123         ADD     GDTM
      00032  0767 00 0 00030         ALS     24            'MM0000'
      00033 -0602 00 0 00117         ORS     DATE.         'MM00YY' OF DATE
 T    00034 -0754 00 0 00000         PXD
      00035 -0763 00 0 00005         LGL     5             DAY IN AC
      00036 -0600 00 0 00122         STQ     GDTD          SAVE THE TIME
      00037 -0130 00 0 00000         XCL                   DAY IN MQ
 T    00040 -0754 00 0 00000         PXD
      00041  0221 00 0 00124         DVP     =10           TENS DIGIT OF DAY IN MQ, UNITS IN AC
      00042 -0773 00 0 00006         RQL     6
      00043 -0600 00 0 00123         STQ     GDTM          STORE '0000D0'
      00044  0400 00 0 00123         ADD     GDTM          '0000DD' IN AC
      00045  0767 00 0 00014         ALS     12            '00DD00' IN AC
      00046 -0602 00 0 00117         ORS     DATE.         'MMDDYY' OF DATE
      00047 -0500 00 0 00122         CAL     GDTD          TIME
      00050  0771 00 0 00022         ARS     18
      00051 -0130 00 0 00000         XCL                   TIME IN SECS. IN MQ
      00052  0200 00 0 00130         MPY     =60           GET TIME IN 1/60TH'S SEC. IN MQ
      00053  0634 00 4 00101         SXA     TPWATX,4
                              *
      00054 -0754 00 0 00000   BCA   ZAC
1            CONVERT I/O SYSTEM DATE/TIME TO BCD.....M.J.BAILEY,12/11/64                         PAGE 2

      00055  0221 00 0 00133         DVP     =216000       FIND HOUR
      00056  0601 00 0 00121         STO     MIN.          SAVE REMAINDER (MINUTES)
      00057  0074 00 4 00103         TSX     BINBCD,4      CONVERT HOURS TO BCD
      00060 -0765 00 0 00006         LGR     6
      00061 -0100 00 0 00063         TNZ     *+2
      00062 -0500 00 0 00127         CAL     =O60          REPLACE LEADING ZERO WITH BLANK
      00063 -0763 00 0 00006         LGL     6
      00064  0767 00 0 00030         ALS     24            LEAVE ROOM FOR MINUTE
      00065  0602 00 0 00120         SLW     HOUR.         SAVE HOUR
      00066  0560 00 0 00121         LDQ     MIN.          MINUTE
      00067 -0754 00 0 00000         ZAC
      00070  0221 00 0 00132         DVP     =360          FIND NO. OF TENTHS OF MINUTES
      00071  0074 00 4 00103         TSX     BINBCD,4      CONVERT TO BCD
      00072 -0765 00 0 00006         LGR     6             TENTHS TO MQ
      00073  0767 00 0 00014         ALS     12
      00074 -0602 00 0 00120         ORS     HOUR.         ADD MINUTE TO HOUR
      00075 -0500 00 0 00126         CAL     =H00000.      PRECEDE TENTHS WITH .
      00076 -0763 00 0 00006         LGL     6             BRING BACK TENTHS
      00077 -0501 00 0 00120         ORA     HOUR.         HHMM.M IN LOGICAL AC
      00100  0560 00 0 00117         LDQ     DATE.         DATE TO MQ
      00101  0774 00 4 00000  TPWATX AXT     **,4
      00102  0020 00 4 00001         TRA     1,4

      00103  0634 00 4 00114  BINBCD SXA     BNBCDX,4      BINARY TO BCD CONVERTER
      00104  0600 00 0 00116         STZ     TPLIN.
      00105  0774 00 4 00044         AXT     36,4
      00106 -0754 00 0 00000  BNBCD1 ZAC                   CONVERT INTEGER TO BCD
      00107  0221 00 0 00124         DVP     =10           ..
      00110  0767 00 4 00044         ALS     36,4          ..
      00111 -0602 00 0 00116         ORS     TPLIN.        ..
      00112  2 00006 4 00106         TIX     BNBCD1,4,6    ..
      00113 -0500 00 0 00116         CAL     TPLIN.
      00114  0774 00 4 00000  BNBCDX AXT     **,4
      00115  0020 00 4 00001         TRA     1,4
      00116  0 00000 0 00000  TPLIN. PZE                   TEMPORARY
      00117  606060606060      DATE. BCI     1,
      00120  606060606060      HOUR. BCI     1,
      00121  0 00000 0 00000   MIN.  PZE
      00122  0 00000 0 00000  GDTD   PZE
      00123  0 00000 0 00000  GDTM   PZE
                                     END

        LITERALS
      00124  000000000012
      00125  000000000017
      00126  000000000033
      00127  000000000060
      00130  000000000074
      00131  000000000100
      00132  000000000550
      00133  000000645700
1            CONVERT I/O SYSTEM DATE/TIME TO BCD.....M.J.BAILEY,12/11/64                         PAGE 1
                        POST PROCESSOR ASSEMBLY DATA

        134 IS THE FIRST LOCATION NOT USED BY THIS PROGRAM

0REFERENCES TO DEFINED SYMBOLS
         54    BCA
         30    IBA    24
        122   GDTD     5,   17,   36,   47
        123   GDTM    22,   25,   31,   43,   44
        121   MIN.    56,   66
        117  DATE.    12,   16,   33,   46,  100
        120  HOUR.    65,   74,   77
          2  IOBDT     0
        103 BINBCD    57,   71
        106 BNBCD1   112
        114 BNBCDX   103
        116 TPLIN.   104,  111,  113
        101 TPWATX    53

0 NO ERROR IN ABOVE ASSEMBLY.


  XMOD   BCD 01/10/68 1514.8     267         00000
1      XMOD          REMAINDERING ARG1(MOD ARG2)                                                 PAGE 1

                              *              CALLING SEQUENCE TSX XMOD,4
                              *                               TXH ARG1(FIXED)
                              *                               TXH ARG2(FIXED)
                              *                               3,4 RETURN
                              *              FUNCTION FIXED
                       00002         ENTRY   XMOD

            LINKAGE DIRECTOR
      00000  000000000000
      00001  674446246060

      00002  0760 00 0 00000  XMOD   CLM
      00003  0560 60 4 00001         LDQ*    1,4
 A    00004  0763 00 0 00000         LLS                   SIGN OF MQ TO AC
      00005  0221 60 4 00002         DVP*    2,4
      00006  0020 00 4 00003         TRA     3,4
                                                           FUNCTION IN ARITHMETIC AC FIXED
                                     END
1      XMOD          REMAINDERING ARG1(MOD ARG2)                                                 PAGE 1
                        POST PROCESSOR ASSEMBLY DATA

          7 IS THE FIRST LOCATION NOT USED BY THIS PROGRAM

0REFERENCES TO DEFINED SYMBOLS
          2   XMOD     0

0 NO ERROR IN ABOVE ASSEMBLY.


CRECAP   BCD 01/10/68 1514.8    3845         00000
1     MAD PROGRAM LISTING ... ... ...                 FILE  CRECAP   MAD            01/10/68    1447.6
-
                  EXTERNAL FUNCTION                                                               *001 LM00001
                  NORMAL MODE IS INTEGER                                                          *002 LM00002
                  DIMENSION ENTRY(7),USER(7)                                                      *003 LM00003
                  DIMENSION BUFF1(432),BUFF2(432)                                                 *004 LM00004
                  EQUIVALENCE (N1,ENTRY(7)),(N2,ENTRY(6)),(PB,USER(7)),(PG,USER(6))               *005 LM00005
                  EQUIVALENCE (MODE,ENTRY(3)),(NORECS,ENTRY(2)),(DEVICE,ENTRY(3))                 *006 LM00006
                  VECTOR VALUES MFD=$M.F.D.$                                                      *007 LM00007
                  VECTOR VALUES UFD=$U.F.D.$                                                      *008 LM00008
                  VECTOR VALUES FILE=$(FILE)$                                                     *009 LM00009
                  VECTOR VALUES SYSTEM=$ C0056$                                                   *010 LM00010
                  VECTOR VALUES DAEMON=$ 99999$                                                   *011 LM00011
                  VECTOR VALUES URGENT=$URGENT$                                                   *012 LM00012
                  VECTOR VALUES MAIL=$  MAIL$                                                     *013 LM00013
                  VECTOR VALUES POST=$  POST$                                                     *014 LM00014
                  VECTOR VALUES ERROR=$ ERROR$                                                    *015 LM00015
                  VECTOR VALUES RELOAD=$RELOAD$                                                   *016 LM00016
                  VECTOR VALUES MZE=-0                                                            *017 LM00017
                  VECTOR VALUES R=432                                                             *018 LM00018
                  ENTRY TO RECAP.                                                                 *019 LM00019
                  ATTACH.(MFD,FILE,WOOPS)                                                         *020 LM00020
                  OPEN.($R$,UFD,FILE,MZE,MZE,WOOPS)                                               *021 LM00021
                  BUFFER.(UFD,FILE,BUFF1(432)...432,WOOPS)                                        *022 LM00022
                  RDWAIT.(UFD,FILE,0,ENTRY(3)...3,MEOF,EOFCT,WOOPS)                               *023 LM00023
      READM       RDWAIT.(UFD,FILE,0,USER(7)...7,MEOF,EOFCT,WOOPS)                                *024 LM00024
                  WHENEVER ((PB.V.PG).E.0).OR.(PG.E.FILE), TRANSFER TO READM                      *025 LM00025
                  OPEN.($R$,PB,PG,MZE,MZE,WOOPS)                                                  *026 LM00026
                  BUFFER.(PB,PG,BUFF2(432)...432,WOOPS)                                           *027 LM00027
                  RDWAIT.(PB,PG,0,ENTRY(3)...3,UEOF,EOFCT,WOOPS)                                  *028 LM00028
      READU       RDWAIT.(PB,PG,0,ENTRY(7)...7,UEOF,EOFCT,WOOPS)                                  *029 LM00029
                  WHENEVER ((N1.V.N2).E.0), TRANSFER TO READU                                     *030 LM00030
                  WHENEVER (DEVICE.A.7K5).E.0, TRANSFER TO READU                                  *031 LM00031
                  WHENEVER (MODE.L.0).AND.((NORECS.A.77777K6).E.0)                                *032 LM00032
                       ATTACH.(PB,PG,LKERR2)                                                      *033 LM00033
                       UNLINK.(URGENT,MAIL,NOMAIL)                                                *034 LM00034
      NOMAIL           UNLINK.(URGENT,POST,NOPOST)                                                *035 LM00035
      NOPOST           CONTINUE                                                                   *036 LM00036
                       LINK.(URGENT,MAIL,SYSTEM,DAEMON,                                           *037 LM00037
                1           ERROR,RELOAD,104K,LKERR1)                                             *037 LM00038
                       TRANSFER TO UEOF                                                           *038 LM00039
      LKERR1           LINK.(URGENT,POST,SYSTEM,DAEMON,                                           *039 LM00040
                1           ERROR,RELOAD,104K,LKERR2)                                             *039 LM00041
                       TRANSFER TO UEOF                                                           *040 LM00042
      LKERR2           PRNTER.                                                                    *041 LM00043
                       TRANSFER TO UEOF                                                           *042 LM00044
                  END OF CONDITIONAL                                                              *043 LM00045
                  TRANSFER TO READU                                                               *044 LM00046
      UEOF        ATTACH.(MFD,FILE,WOOPS)                                                         *045 LM00047
                  CLOSE.(PB,PG,NERR1)                                                             *046 LM00048
      NERR1       TRANSFER TO READM                                                               *047 LM00049
      MEOF        CLOSE.(UFD,FILE,NERR2)                                                          *048 LM00050
      NERR2       FUNCTION RETURN                                                                 *049 LM00051
      WOOPS       PRNTER.                                                                         *050 LM00052
                  CLOSE.($ALL$,MZE,NERR3)                                                         *051 LM00053
      NERR3       FUNCTION RETURN                                                                 *052 LM00054
                  END OF FUNCTION                                                                 *053 LM00055
1MAD PROGRAM,TYPE NOV 1963      (ALL NUMBERS ARE OCTAL)
0TOTAL LOCATIONS   02104 TRANSFER VECTOR LENGTH  00011 PROGRAM BEGINS    01640
0 PROGRAM IS AN EXTERNAL FUNCTION.   THE FOLLOWING ARE ENTRIES
      RECAP  01641   0
0VARIABLE STORAGE (A=ARRAY,C=COMMON,E=ERASABLE,DIGIT=MODE)
      BUFF1  00726 A 1        LKERR1 00032   4        N1     00012   1        NORECS 00017   1        R      01621 A 1
      BUFF2  01607 A 1        LKERR2 00033   4        N2     00013   1        PB     00022   1        SYSTEM 01622 A 1
      DAEMON 01610 A 1        MAIL   01614 A 1        NERR1  00035   4        PG     00023   1        UEOF   00044   4
      DEVICE 00016   1        MEOF   00034   4        NERR2  00036   4        POST   01617 A 1        UFD    01623 A 1
      ENTRY  00021 A 1        MFD    01615 A 1        NERR3  00037   4        READM  00042   4        URGENT 01624 A 1
      EOFCT  01611   1        MODE   00016   1        NOMAIL 00040   4        READU  00043   4        USER   00031 A 1
      ERROR  01612 A 1        MZE    01616 A 1        NOPOST 00041   4        RELOAD 01620 A 1        WOOPS  00045   4
      FILE   01613 A 1
0FUNCTION DICTIONARY
      ATTACH 00000   1        BUFFER 00001   1        CLOSE  00002   1        EXIT   00003   1        LINK   00004   1
      OPEN   00005   1        PRNTER 00006   1        RDWAIT 00007   1        UNLINK 00010   1
0ABSOLUTE CONSTANTS
 01635 +214343606060     01631 +000000000104     01634 +077777000000     01633 +000000700000     01630 +000000000007
 01627 +000000000003     01625 +000000000000     01632 +000000000660     01637 -116060606060     01626 +000000000001
 01636 +233000000000
0STATEMENT DICTIONARY
 00032 TXL -302040002027       00033 TXL -302042002041       00034 TXL -302061002055       00035 TXL -302055002054
 00036 TXL -302062002061       00037 TXL -302070002067       00040 TXL -302015002011       00041 TXL -302015002015
 00042 TXL -301703001673       00043 TXL -301751001741       00044 TXL -302050002044       00045 TXL -302063002062
0PROGRAM
                 EXTERNAL FUNCTION                                                  001  LM00001
                 N'R                                                                002  LM00002
                 D'N ENTRY(7),USER(7)                                               003  LM00003
                 D'N BUFF1(432),BUFF2(432)                                          004  LM00004
                 E'E (N1,ENTRY(7)),(N2,ENTRY(6)),(PB,USER(7)),(PG,USER(6))          005  LM00005
                 E'E (MODE,ENTRY(3)),(NORECS,ENTRY(2)),(DEVICE,ENTRY(3))            006  LM00006
                 V'S MFD=$M.F.D.$                                                   007  LM00007
 01615     -0 43326 3 32433
                 V'S UFD=$U.F.D.$                                                   008  LM00008
 01623     -2 43326 3 32433
                 V'S FILE=$(FILE)$                                                  009  LM00009
 01613     -3 42631 4 32534
                 V'S SYSTEM=$ C0056$                                                010  LM00010
 01622     -2 02300 0 00506
                 V'S DAEMON=$ 99999$                                                011  LM00011
 01610     -2 01111 1 11111
                 V'S URGENT=$URGENT$                                                012  LM00012
 01624     -2 45127 2 54563
                 V'S MAIL=$  MAIL$                                                  013  LM00013
 01614     -2 06044 2 13143
                 V'S POST=$  POST$                                                  014  LM00014
 01617     -2 06047 4 66263
                 V'S ERROR=$ ERROR$                                                 015  LM00015
 01612     -2 02551 5 14651
                 V'S RELOAD=$RELOAD$                                                016  LM00016
 01620     -1 12543 4 62124
                 V'S MZE=-0                                                         017  LM00017
 01616     -0 00000 0 00000
                 V'S R=432                                                          018  LM00018
 01621     +0 00000 0 00660
                 E'O RECAP.                                                         019  LM00019
 01640 TRA +0 02000 0 01643    01641 SXA +0 63400 2 02071    01642 TSX +0 07400 2 02071
                 ATTACH.(MFD,FILE,WOOPS)                                            020  LM00020
 01643 TSX +0 07400 4 00000    01644 TXH +3 00000 0 01615    01645 TXH +3 00000 0 01613    01646 TXH +3 00000 0 00045
                 OPEN.($R$,UFD,FILE,MZE,MZE,WOOPS)                                  021  LM00021
 01647 TSX +0 07400 4 00005    01650 TXH +3 00000 0 01637    01651 TXH +3 00000 0 01623    01652 TXH +3 00000 0 01613
 01653 TXH +3 00000 0 01616    01654 TXH +3 00000 0 01616    01655 TXH +3 00000 0 00045
                 BUFFER.(UFD,FILE,BUFF1(432)...432,WOOPS)                           022  LM00022
 01656 TSX +0 07400 4 00001    01657 TXH +3 00000 0 01623    01660 TXH +3 00000 0 01613    01661 TIX +2 01632 0 00046
 01662 TXH +3 00000 0 00045
                 RDWAIT.(UFD,FILE,0,ENTRY(3)...3,MEOF,EOFCT,WOOPS)                  023  LM00023
 01663 TSX +0 07400 4 00007    01664 TXH +3 00000 0 01623    01665 TXH +3 00000 0 01613    01666 TXH +3 00000 0 01625
 01667 TIX +2 01627 0 00016    01670 TXH +3 00000 0 00034    01671 TXH +3 00000 0 01611    01672 TXH +3 00000 0 00045
      READM      RDWAIT.(UFD,FILE,0,USER(7)...7,MEOF,EOFCT,WOOPS)                   024  LM00024
 01673 TSX +0 07400 4 00007    01674 TXH +3 00000 0 01623    01675 TXH +3 00000 0 01613    01676 TXH +3 00000 0 01625
 01677 TIX +2 01630 0 00022    01700 TXH +3 00000 0 00034    01701 TXH +3 00000 0 01611    01702 TXH +3 00000 0 00045
                 W'R ((PB.V.PG).E.0).OR.(PG.E.FILE), T'O READM                      025  LM00025
 01703 CLA +0 50000 0 00023    01704 SUB +0 40200 0 01613    01705 TZE +0 10000 0 01714    01706 CAL -0 50000 0 00022
 01707 ORA -0 50100 0 00023    01710 SLW +0 60200 0 02101    01711 CLA +0 50000 0 02101    01712 SUB +0 40200 0 01625
 01713 TNZ -0 10000 0 01715    01714 TRA +0 02000 0 00042
                 OPEN.($R$,PB,PG,MZE,MZE,WOOPS)                                     026  LM00026
 01715 TSX +0 07400 4 00005    01716 TXH +3 00000 0 01637    01717 TXH +3 00000 0 00022    01720 TXH +3 00000 0 00023
 01721 TXH +3 00000 0 01616    01722 TXH +3 00000 0 01616    01723 TXH +3 00000 0 00045
                 BUFFER.(PB,PG,BUFF2(432)...432,WOOPS)                              027  LM00027
 01724 TSX +0 07400 4 00001    01725 TXH +3 00000 0 00022    01726 TXH +3 00000 0 00023    01727 TIX +2 01632 0 00727
 01730 TXH +3 00000 0 00045
                 RDWAIT.(PB,PG,0,ENTRY(3)...3,UEOF,EOFCT,WOOPS)                     028  LM00028
 01731 TSX +0 07400 4 00007    01732 TXH +3 00000 0 00022    01733 TXH +3 00000 0 00023    01734 TXH +3 00000 0 01625
 01735 TIX +2 01627 0 00016    01736 TXH +3 00000 0 00044    01737 TXH +3 00000 0 01611    01740 TXH +3 00000 0 00045
      READU      RDWAIT.(PB,PG,0,ENTRY(7)...7,UEOF,EOFCT,WOOPS)                     029  LM00029
 01741 TSX +0 07400 4 00007    01742 TXH +3 00000 0 00022    01743 TXH +3 00000 0 00023    01744 TXH +3 00000 0 01625
 01745 TIX +2 01630 0 00012    01746 TXH +3 00000 0 00044    01747 TXH +3 00000 0 01611    01750 TXH +3 00000 0 00045
                 W'R ((N1.V.N2).E.0), T'O READU                                     030  LM00030
 01751 CAL -0 50000 0 00012    01752 ORA -0 50100 0 00013    01753 SLW +0 60200 0 02101    01754 CLA +0 50000 0 02101
 01755 SUB +0 40200 0 01625    01756 TNZ -0 10000 0 01760    01757 TRA +0 02000 0 00043
                 W'R (DEVICE.A.7K5).E.0, T'O READU                                  031  LM00031
 01760 CAL -0 50000 0 00016    01761 ANA -0 32000 0 01633    01762 SLW +0 60200 0 02101    01763 CLA +0 50000 0 02101
 01764 SUB +0 40200 0 01625    01765 TNZ -0 10000 0 01767    01766 TRA +0 02000 0 00043
                 W'R (MODE.L.0).AND.((NORECS.A.77777K6).E.0)                        032  LM00032
 01767 CAL -0 50000 0 00017    01770 ANA -0 32000 0 01634    01771 SLW +0 60200 0 02101    01772 CLA +0 50000 0 02101
 01773 SUB +0 40200 0 01625    01774 TNZ -0 10000 0 02043    01775 CLA +0 50000 0 00016    01776 SUB +0 40200 0 01625
 01777 TZE +0 10000 0 02043    02000 TPL +0 12000 0 02043
                      ATTACH.(PB,PG,LKERR2)                                         033  LM00033
 02001 TSX +0 07400 4 00000    02002 TXH +3 00000 0 00022    02003 TXH +3 00000 0 00023    02004 TXH +3 00000 0 00033
                      UNLINK.(URGENT,MAIL,NOMAIL)                                   034  LM00034
 02005 TSX +0 07400 4 00010    02006 TXH +3 00000 0 01624    02007 TXH +3 00000 0 01614    02010 TXH +3 00000 0 00040
      NOMAIL          UNLINK.(URGENT,POST,NOPOST)                                   035  LM00035
 02011 TSX +0 07400 4 00010    02012 TXH +3 00000 0 01624    02013 TXH +3 00000 0 01617    02014 TXH +3 00000 0 00041
      NOPOST          CONTINUE                                                      036  LM00036
                      LINK.(URGENT,MAIL,SYSTEM,DAEMON,                              037  LM00037
                1          ERROR,RELOAD,104K,LKERR1)                                037  LM00038
 02015 TSX +0 07400 4 00004    02016 TXH +3 00000 0 01624    02017 TXH +3 00000 0 01614    02020 TXH +3 00000 0 01622
 02021 TXH +3 00000 0 01610    02022 TXH +3 00000 0 01612    02023 TXH +3 00000 0 01620    02024 TXH +3 00000 0 01631
 02025 TXH +3 00000 0 00032
                      T'O UEOF                                                      038  LM00039
 02026 TRA +0 02000 0 00044
      LKERR1          LINK.(URGENT,POST,SYSTEM,DAEMON,                              039  LM00040
                1          ERROR,RELOAD,104K,LKERR2)                                039  LM00041
 02027 TSX +0 07400 4 00004    02030 TXH +3 00000 0 01624    02031 TXH +3 00000 0 01617    02032 TXH +3 00000 0 01622
 02033 TXH +3 00000 0 01610    02034 TXH +3 00000 0 01612    02035 TXH +3 00000 0 01620    02036 TXH +3 00000 0 01631
 02037 TXH +3 00000 0 00033
                      T'O UEOF                                                      040  LM00042
 02040 TRA +0 02000 0 00044
      LKERR2          PRNTER.                                                       041  LM00043
 02041 TSX +0 07400 4 00006
                      T'O UEOF                                                      042  LM00044
 02042 TRA +0 02000 0 00044
                 E'L                                                                043  LM00045
                 T'O READU                                                          044  LM00046
 02043 TRA +0 02000 0 00043
      UEOF       ATTACH.(MFD,FILE,WOOPS)                                            045  LM00047
 02044 TSX +0 07400 4 00000    02045 TXH +3 00000 0 01615    02046 TXH +3 00000 0 01613    02047 TXH +3 00000 0 00045
                 CLOSE.(PB,PG,NERR1)                                                046  LM00048
 02050 TSX +0 07400 4 00002    02051 TXH +3 00000 0 00022    02052 TXH +3 00000 0 00023    02053 TXH +3 00000 0 00035
      NERR1      T'O READM                                                          047  LM00049
 02054 TRA +0 02000 0 00042
      MEOF       CLOSE.(UFD,FILE,NERR2)                                             048  LM00050
 02055 TSX +0 07400 4 00002    02056 TXH +3 00000 0 01623    02057 TXH +3 00000 0 01613    02060 TXH +3 00000 0 00036
      NERR2      F'N                                                                049  LM00051
 02061 TRA +0 02000 0 02075
      WOOPS      PRNTER.                                                            050  LM00052
 02062 TSX +0 07400 4 00006
                 CLOSE.($ALL$,MZE,NERR3)                                            051  LM00053
 02063 TSX +0 07400 4 00002    02064 TXH +3 00000 0 01635    02065 TXH +3 00000 0 01616    02066 TXH +3 00000 0 00037
      NERR3      F'N                                                                052  LM00054
 02067 TRA +0 02000 0 02075
                 E'N                                                                053  LM00055
 02070 TSX +0 07400 4 00003    02071 TXH +3 00000 0 00000    02072 SXD -0 63400 1 02071    02073 SXA +0 63400 4 02075
 02074 TRA +0 02000 2 00001    02075 AXT +0 77400 4 00000    02076 LXA +0 53400 2 02071    02077 LXD -0 53400 1 02071
 02100 TRA +0 02000 4 00001


SADUMP   BCD 02/09/69 0528.4   94613         00000


SADPMN   BCD 05/28/67 1807.1   12888         00000
1           INCREMENTAL NEW FILES DUMP AND COMPLETE DUMP...M.J.BAILEY,12/31/64                   PAGE 1

                              *              (MAIN PROGRAM)
                                     EXTERN  FSTATE,DELFIL,ATTACH
                                     EXTERN  BUFFER
                                     EXTERN  OPEN,CLOSE,WRFLX
                                     EXTERN  UMOUNT,FERRTN,TILOCK
                                     EXTERN  CHFILE,ALLOT
                              *
                                     INSERT  DMCRSA
                              *
                              *      MACRO TO WRITE N WORDS FROM ARRAY ET SEQ ONTO ALREADY OPENED
                              *      SECONDARY STORAGE FILE (NAME1,NAME2) AND WAIT UNTIL TRANSMITTED.
                              *
                               WSSF  MACRO   ARRAY,N,NAME1,NAME2
                                     TSX     ATTACH,4      RE-ATTACH TO DUMPER'S FILES
                                     TXH     DMPUSR
                                     TXH     DMPRGR
                                     TSX     WRFILE,4      WRITE
                                     TXH     NAME1         ONTO (NAME1,
                                     TXH     NAME2         NAME2)
                                     TXH     =0            AT POSITION WHERE LAST CEASED
                                     TIX     ARRAY,,N      FROM ARRAY THROUGH ARRAY+N-1
                                     TSX     FWAIT,4       WAIT
                                     TXH     NAME1
                                     TXH     NAME2
                               WSSF  END
                              *
                              *  ZERO-IZE A THROUGH A+X-1
                              *
                               CLEAR MACRO   A,X
                                     AXT     X,1
                                     STZ     A+X,1
                                     TIX     *-1,1,1
                               CLEAR END
                              *
                              *      MOVE X WORDS FROM A ET SEQ TO B ET SEQ
                              *
                               MOVE  MACRO   X,A,B
                                     AXT     X,1
                                     CAL     A+X,1
                                     SLW     B+X,1
                                     TIX     *-2,1,1
                               MOVE  END
                              *
                              *      PRINT ONE LINE, CLEAR BUFFER
                              *
                              PRBUFF MACRO   BUFF,NWDS
                                     SXA     *+3,4
                                     TSX     WRFLX,4
                                             BUFF,,NWDS
                                     AXT     **,4
                                     CLEAR   BUFF,NWDS
                              PRBUFF END
                              *
                              *      PRINT STANDARD BEGINNING TO DUMPER ERROR MESSAGE
                              *
                              BGNERM MACRO   TYPE
1           INCREMENTAL NEW FILES DUMP AND COMPLETE DUMP...M.J.BAILEY,12/31/64                   PAGE 2

                                     SXA     *+3,4
                                     TSX     $BERM,4
                                     PZE     TYPE
                                     AXT     **,4
                              BGNERM END
                              *
                              *  PRINT ONE LINE COMMENT
                              *
                              PRLINE MACRO   COMNT,NWC,N,WORD1,WORD2,LOC
                                     IFF     0,NWC,0
                                     MOVE    NWC,LOC,PBF
                                     IFF     N-2,N,1
                                     CAL     WORD1
                                     IFF     N-2,N,1
                                     SLW     PBF+NWC
                                     IFF     1,N,2
                                     CAL     WORD2
                                     IFF     1,N,2
                                     SLW     PBF+NWC+1
                                     PRBUFF  PBF,NWC+N
                                     RMT
                               LOC   BCI     NWC,COMNT
                                     RMT
                              PRLINE END
                              *
                              *      PRINT ONE LINE MESSAGE
                              *
                              PRMESS MACRO   MESNAM,N,ADR1,ADR2
                                     TSX     $PRLINE,4
                                     BCI     1,MESNAM
                                     IFF     N,N,N
                                     TXH     ADR1
                                     IFF     N,N,N
                                     TXH     ADR2
                              PRMESS END
                              *
                              *      MACRO TO OPEN FILE (X,Y) OF USER (A,B) FOR READING
                              *      AND ASSIGN BUFFER F OF LENGTH L TO I/O SYSTEM FOR THAT PURPOSE.
                              *        ( ERR IS TRANSFER ADDRESS FOR ERROR RETURN )
                              *
                              RDOPEN MACRO   X,Y,A,B,F,L,ERR
                                     TSX     ATTACH,4      ATTACH TO USER (A,B)
                                     TXH     A
                                     TXH     B
                                     TSX     OPEN,4        OPEN FILE (X,Y) FOR READING
                                     TXH     R
                                     TXH     X
                                     TXH     Y
                                     TXH     =0
                                     TXH     =0
                                     TXH     ERR           (TRANSFER ADDRESS FOR ERROR)
                                     TSX     BUFFER,4      ASSIGN L WORDS OF BUFFER F TO (X,Y)
                                     TXH     X
                                     TXH     Y
                                     TIX     F,,L
                              RDOPEN END
1           INCREMENTAL NEW FILES DUMP AND COMPLETE DUMP...M.J.BAILEY,12/31/64                   PAGE 3

                              *
                              *      PRINT ERROR CODE, END MESSAGE
                              *
                                ERTN MACRO   ADRERR
                                     SXA     *+2,4
                                     TSX     $ERREND,4
                                     AXT     **,4
                                     TRA     ADRERR
                                ERTN END
                              *
                              *      ASK OPERATOR TO SET KEY CODE DC IF HE WANTS
                              *      ACTION GIVEN BY N-WORD MESSAGE M
                              *
                              PRCODE MACRO   DC,M,N
                                     TSX     $PRCODE,4
                                     TXH     DC
                                     TXH     M,,N
                              PRCODE END
                              *
                              *      TEST LAST KEY SETTING VIA SUPERVISOR, GO TO JUMP IF IT IS CODE
                              *
                              TESTKY MACRO   CODE,JUMP
                                     TSX     $NGETA,7
                                     LDQ     DEMKEY
                                     STQ     KEYVAL
                                     AXT     CODE,1
                                     PXA     0,1
                                     SUB     KEYVAL
                                     TZE     JUMP
                              TESTKY END
                              *
                              *      SET UP LOGICAL TAPE RECORD WRITING
                              *
                              LOGREC MACRO   X
                                     CLA     LTPBF
                                     SUB     =12
                                     STO     TEMP
                                     CAL     X+4
                                     ANA     =O77777
                                     STO     RCOUNT
                                     TSX     $NLREC,4
                                     TXH     NORECS
                                     TXH     RCOUNT
                                     TXH     LCOUNT
                                     TXH     TEMP
                                     TXH     =12
                                     TXH     PHYSRC
                                     TXH     NFLR
                                     TXH     NLAST
                              LOGREC END
                              *
                              *
                              ATTACH MACRO   A,B
                                     TSX     ATTACH,4
                                     TXH     A
                                     TXH     B
1           INCREMENTAL NEW FILES DUMP AND COMPLETE DUMP...M.J.BAILEY,12/31/64                   PAGE 4

                              ATTACH END
                              *
                              *      PRINT ERROR MESSAGE AND INTERROGATE KEYS
                              *
                              PRERR  MACRO
                                     TSX     $PRNTER,4
                                     TSX     $GDSIG,4
                              PRERR  END
                              *
                              *
                              *
                              *  .  .  .  .  .  .  .  .  .  .  .  .  .  .  .  .  .  .  .  .
                              *      START OF MAIN PROGRAM
                              *  .  .  .  .  .  .  .  .  .  .  .  .  .  .  .  .  .  .  .  .
                              *

        TRANSFER VECTOR
      00000  266263216325     FSTATE
      00001  242543263143     DELFIL
      00002  216363212330     ATTACH
      00003  226426262551     BUFFER
      00004  464725456060     OPEN
      00005  234346622560     CLOSE
      00006  665126436760     WRFLX
      00007  644446644563     UMOUNT
      00010  262551516345     FERRTN
      00011  633143462342     TILOCK
      00012  233026314325     CHFILE
      00013  214343466360     ALLOT
      00014  622563314660     SETIO
      00015  244225706060     DKEY
      00016  314651622563     IORSET
      00017  314626314531     IOFINI
      00020  256731636060     EXIT
      00021  475145632551     PRNTER
      00022  245162634651     DRSTOR
      00023  622165442147     SAVMAP
      00024  272462312760     GDSIG
      00025  622426606060     SDF
      00026  624426606060     SMF
      00027  664430606060     WMH
      00030  246362216525     DTSAVE
      00031  272463606060     GDT
      00032  244447263143     DMPFIL
      00033  626422242170     SUBDAY
      00034  246462510160     DUSR1
      00035  254426606060     EMF
      00036  244426606060     DMF
      00037  242370234325     DCYCLE
      00040  222551446060     BERM
      00041  255151254524     ERREND

      00042  0000 00 0 00043         HTR     *+1
      00043  0074 00 4 00014         TSX     $SETIO,4
 TD   00044  3 00000 0 01711         TXH     =99999
      00045  0760 00 0 00016         LMTM
1           INCREMENTAL NEW FILES DUMP AND COMPLETE DUMP...M.J.BAILEY,12/31/64                   PAGE 5

      00046 -0500 00 0 00101         CAL     PEXIT
      00047  0602 00 0 00034         SLW     28
      00050 -0754 00 0 00000         ZAC
      00051  0621 60 0 00015         STA*    $DKEY
      00052 -0500 00 0 01724         CAL     =H 99999
      00053  0602 00 0 62726         SLW     DMPRGR
      00054 -0500 00 0 01725         CAL     =H C0056
      00055  0602 00 0 62727         SLW     DMPUSR
      00056  0074 00 4 00002         TSX     ATTACH,4
 TD   00057  3 00000 0 62727         TXH     DU
 TD   00060  3 00000 0 62726         TXH     DP
      00061  0074 00 4 00013         TSX     ALLOT,4
 TD   00062  3 00000 0 01702         TXH     =1
 TD   00063  3 00000 0 01710         TXH     =O77777
      00064  0074 00 4 00013         TSX     ALLOT,4
 TD   00065  3 00000 0 01703         TXH     =2
 TD   00066  3 00000 0 01710         TXH     =O77777
      00067  0074 00 4 00013         TSX     ALLOT,4
 TD   00070  3 00000 0 01704         TXH     =3
 TD   00071  3 00000 0 01710         TXH     =O77777
      00072  0600 00 0 01521         STZ     UDTSW
      00073  0600 00 0 01517         STZ     NODEL
      00074  0500 00 0 01705         CLA     =4
      00075  0601 00 0 62725         STO     MFD1W
      00076  0074 00 4 00010         TSX     FERRTN,4      SET ADDRESS FOR UNSPECIFIED
      00077  0 00000 0 00114         PZE     ELOC          I/O SYSTEM ERROR RETURN
      00100  0020 00 0 00135         TRA     D3
                              *
      00101  0021 00 0 00102  PEXIT  TTR     *+1
      00102  0074 00 4 00016         TSX     $IORSET,4
      00103  0074 00 4 00005         TSX     CLOSE,4
 TD   00104  3 00000 0 01712         TXH     =HALL
 TD   00105  3 00000 0 01722         TXH     =-0
 TD   00106  3 00000 0 00107         TXH     *+1
      00107  0074 00 4 00007         TSX     UMOUNT,4
 TD   00110  3 00000 0 01712         TXH     =HALL
      00111  2 01636 0 01624         TIX     ALLMES,,LALMES
      00112  0074 00 4 00017         TSX     $IOFINI,4
      00113  0020 00 0 00020         TRA     $EXIT
                              *
      00114  0634 00 4 00133  ELOC   SXA     ELOC4,4       UNSPECIFIED ERROR RETURN FROM I/O SYSTEM
      00115  0634 00 1 00132         SXA     ELOC1,1
      00116                          MOVE    9,MESX,PBF
      00116  0774 00 1 00011         AXT     9,1                                                              .001
      00117 -0500 00 1 00633         CAL     MESX+9,1                                                         .001
      00120  0602 00 1 64537         SLW     PBF+9,1                                                          .001
      00121  2 00001 1 00117         TIX     *-2,1,1                                                          .001
      00122                          PRBUFF  PBF,9
      00122  0634 00 4 00125         SXA     *+3,4                                                            .001
      00123  0074 00 4 00006         TSX     WRFLX,4                                                          .001
      00124  0 00011 0 64526                 PBF,,9                                                           .001
      00125  0774 00 4 00000         AXT     **,4                                                             .001
      00126                          CLEAR   PBF,9                                                            .001
      00126  0774 00 1 00011         AXT     9,1                                                              .002
      00127  0600 00 1 64537         STZ     PBF+9,1                                                          .002
      00130  2 00001 1 00127         TIX     *-1,1,1                                                          .002
1           INCREMENTAL NEW FILES DUMP AND COMPLETE DUMP...M.J.BAILEY,12/31/64                   PAGE 6

      00131  0074 00 4 00021         TSX     $PRNTER,4
      00132  0774 00 1 00000  ELOC1  AXT     **,1
      00133  0774 00 4 00000  ELOC4  AXT     **,4
      00134  0020 00 4 00001         TRA     1,4
                              *
      00135  0074 00 4 00011  D3     TSX     TILOCK,4      SET ADDRESS FOR UNEXPECTED READ-INTERLOCK
      00136  0 00000 0 00140         PZE     ILOC
      00137  0020 00 0 00160         TRA     D4            SKIP
                              *
      00140  0634 00 4 00156  ILOC   SXA     ILOC4,4       READ INTERLOCK TRAP
      00141  0634 00 1 00155         SXA     ILOC1,1
      00142                          PRLINE  ( UNEXPECTED READ INTERLOCK TRAP IN DUMPER.),7,0
      00142                          MOVE    7,..003,PBF                                                      .001
      00142  0774 00 1 00007         AXT     7,1                                                              .002
      00143 -0500 00 1 01671         CAL     ..003+7,1                                                        .002
      00144  0602 00 1 64535         SLW     PBF+7,1                                                          .002
      00145  2 00001 1 00143         TIX     *-2,1,1                                                          .002
      00146                          PRBUFF  PBF,7+0                                                          .001
      00146  0634 00 4 00151         SXA     *+3,4                                                            .002
      00147  0074 00 4 00006         TSX     WRFLX,4                                                          .002
      00150  0 00007 0 64526                 PBF,,7+0                                                         .002
      00151  0774 00 4 00000         AXT     **,4                                                             .002
      00152                          CLEAR   PBF,7+0                                                          .002
      00152  0774 00 1 00007         AXT     7+0,1                                                            .003
      00153  0600 00 1 64535         STZ     PBF+7+0,1                                                        .003
      00154  2 00001 1 00153         TIX     *-1,1,1                                                          .003
                                     RMT                                                                      .001
                              ..003  BCI     7, UNEXPECTED READ INTERLOCK TRAP IN DUMPER.                     .001
                                     RMT                                                                      .001
      00155  0774 00 1 00000  ILOC1  AXT     **,1
      00156  0774 00 4 00000  ILOC4  AXT     **,4
      00157  0020 00 4 00001         TRA     1,4           BLUNDER ON
                              *
      00160 -0500 00 0 01721  D4     CAL     =H.DUMP.
      00161  0602 00 0 62723         SLW     NFN1
      00162  0602 00 0 62721         SLW     NFN2
      00163 -0500 00 0 01717         CAL     =HFILE.1
      00164  0602 00 0 62724         SLW     NFN1+1
      00165 -0500 00 0 01720         CAL     =HFILE.2
      00166  0602 00 0 62722         SLW     NFN2+1
                              *
      00167  0074 00 4 00005         TSX     CLOSE,4
 TD   00170  3 00000 0 01712         TXH     =HALL
      00171  0074 00 4 00007         TSX     UMOUNT,4
 TD   00172  3 00000 0 01712         TXH     =HALL
      00173  2 01636 0 01624         TIX     ALLMES,,LALMES
      00174  0074 00 4 00000         TSX     FSTATE,4
 TD   00175  3 00000 0 01716         TXH     =HDRSTOR
 TD   00176  3 00000 0 01717         TXH     =HFILE.1
      00177  3 00001 0 01520         TXH     TEMP,,1
 TD   00200  3 00000 0 00202         TXH     *+2
      00201  0020 00 0 00211         TRA     RSTORE
      00202  0074 00 4 00000         TSX     FSTATE,4
 TD   00203  3 00000 0 01716         TXH     =HDRSTOR
 TD   00204  3 00000 0 01720         TXH     =HFILE.2
      00205  3 00001 0 01520         TXH     TEMP,,1
1           INCREMENTAL NEW FILES DUMP AND COMPLETE DUMP...M.J.BAILEY,12/31/64                   PAGE 7

 TD   00206  3 00000 0 00210         TXH     *+2
      00207  0020 00 0 00211         TRA     RSTORE
      00210  0020 00 0 00230         TRA     CDUMP
      00211  0074 00 4 00022  RSTORE TSX     $DRSTOR,4
      00212  0020 00 0 00211         TRA     *-1
      00213  0520 00 0 60255         ZET     ODAWN
      00214 -0625 00 0 01517         STL     NODEL
      00215 -0500 00 0 60266         CAL     CDSW
      00216  0100 00 0 00230         TZE     CDUMP
      00217  0500 00 0 60262         CLA     TFOSW
      00220  0100 00 0 00230         TZE     CDUMP
      00221  0402 00 0 01702         SUB     =1
      00222 -0100 00 0 00224         TNZ     *+2
      00223  0020 00 0 00230         TRA     CDUMP
      00224 -0625 00 0 01521         STL     UDTSW
      00225  0074 00 4 00023         TSX     $SAVMAP,4
 TD   00226  3 00000 0 01701         TXH     =0
      00227  0020 00 0 00366         TRA     UDTPAT
                              *
                              *  .  .  .  .  .  .  .  .  .  .  .  .  .  .  .  .  .  .
                              *
                              *
                              *  .  .  .  .  .  .  .  .  .  .  .  .  .  .  .  .  .  .
                              *      START COMPLETE DUMP OF SYSTEM AND CURRENT USER FILES
                              *  .  .  .  .  .  .  .  .  .  .  .  .  .  .  .  .  .  .
                              *
                              *
                              *  MAKE NEW LIST OF SYSTEM FILE OWNER NAMES (EXEMPT FROM USER FILE DUMP)
                              *
      00230  0600 00 0 62735  CDUMP  STZ     MFDEOF
      00231  0600 00 0 60262         STZ     TFOSW
      00232 -0625 00 0 60266         STL     CDSW          SET COMPLETE-DUMP SWITCH
      00233  0074 00 4 00024         TSX     $GDSIG,4
      00234  0534 00 1 01534         LXA     SYSFL,1       2*(NO. OF SYSTEM FILE USER NAMES)
      00235  3 00014 1 00557         TXH     ERRCD1,1,2*NX ERROR IF IT IS .GR. SPACE ALLOCATED
      00236  0634 00 1 77441         SXA     NXMPT,1       SAVE NO. USERS EXEMPT FROM USER FILE DUMP
      00237 -0500 00 1 01534  CDB    CAL     SYSFL,1       PROBLEM NO. OF SYSTEM FILE USER NAME
      00240  0602 00 1 77456         SLW     EXEMPT+1,1
      00241 -0500 00 1 01535         CAL     SYSFL+1,1     PROG. NO. OF SYSTEM FILE USER NAME
      00242  0602 00 1 77457         SLW     EXEMPT+2,1
      00243  2 00002 1 00237         TIX     CDB,1,2
                              *
                              *      OPEN SYSTEM-FILES-'COMPLETE'-DUMP TAPE FILES, WRITE I.D. RECORDS
                              *
      00244  0600 00 0 70062         STZ     TPBUF+7       NO END OF 'DAY' IN I.D. RECORD
      00245                          MOVE    4,SDTID,TAPEID
      00245  0774 00 1 00004         AXT     4,1                                                              .001
      00246 -0500 00 1 01541         CAL     SDTID+4,1                                                        .001
      00247  0602 00 1 60250         SLW     TAPEID+4,1                                                       .001
      00250  2 00001 1 00246         TIX     *-2,1,1                                                          .001
      00251  0074 00 4 00025         TSX     $SDF,4
      00252  2 01556 0 01541         TIX     SSDMES,,LSSDMS  (MESSAGE FOR START OF SYSTEM-FILE DUMP)
                              *
                              *      INITIATE, THEN WRITE HEADING FOR, SYSTEM FILE DUMP TAPE MAP FILE
                              *
      00253  0074 00 4 00026         TSX     $SMF,4        INITIATE MAP FILE FOR SYSTEM-FILE DUMP TAPE
1           INCREMENTAL NEW FILES DUMP AND COMPLETE DUMP...M.J.BAILEY,12/31/64                   PAGE 8

      00254  0074 00 4 00027         TSX     $WMH,4        WRITE MAP FILE HEADING
 TD   00255  3 00000 0 01726         TXH     =HSYSTEM      (FOR SYSTEM FILE DUMP)
      00256  0074 00 4 00030         TSX     $DTSAVE,4     SAVE DUMPER TABLES ETC.
      00257  0761 00 0 00000         NOP
                              *
                              *      DUMP M.F.D. FILE
                              *
      00260  0074 00 4 00031         TSX     $GDT,4
      00261  0602 00 0 60263         SLW     TCYCLE
      00262 -0500 00 0 01523         CAL     UFDNAM
      00263  0602 00 0 62741         SLW     UFDENT
      00264 -0500 00 0 01524         CAL     UFDNAM+1
      00265  0602 00 0 62742         SLW     UFDENT+1
      00266  0602 00 0 64511         SLW     MFDENT+1
      00267 -0500 00 0 01525         CAL     MFDNAM
      00270  0602 00 0 64510         SLW     MFDENT
      00271  0074 00 4 00032         TSX     $DMPFIL,4
                              *
                              *  .  .  .  .  .  .  .  .  .  .  .  .  .  .  .  .  .  .  .  .  .  .  .
                              * START COMPLETE-SYSTEM-FILE DUMPING, FILE USER NAME BY FILE USER NAME
                              *  .  .  .  .  .  .  .  .  .  .  .  .  .  .  .  .  .  .  .  .  .  .  .
                              *
      00272  0074 00 4 00031         TSX     $GDT,4        CURRENT DATE/TIME TEMP LABLE
      00273 -0320 00 0 01730         ANA     =O777777000000  DATE TO-DAY
      00274  0602 00 0 73353         SLW     TND           SET TND
      00275  0602 00 0 60256         SLW     TNDSAV        SAVE TND (= TIME OF START OF TO-DAY)
      00276  0074 00 4 00030         TSX     $DTSAVE,4     SAVE DUMPER TABLES ETC.
      00277  0761 00 0 00000         NOP
      00300 -0500 00 0 60256         CAL     TNDSAV
      00301  0074 00 4 00033         TSX     $SUBDAY,4
 TD   00302  3 00000 0 01515         TXH     LNCD
      00303  0602 00 0 62737         SLW     TLD           TLD=START OF 'CURRENT' FILE PERIOD
      00304  0602 00 0 60257         SLW     TCP           SAVE IT (= TO-DAY - NCD DAYS)
      00305  0074 00 4 00031         TSX     $GDT,4
      00306  0602 00 0 60263         SLW     TCYCLE        SET TIME OF THIS LAST CYCLE ON TAPE
      00307  0602 00 0 73354         SLW     FLUSH         FORCE FLUSH DUMP
      00310  0534 00 1 01534         LXA     SYSFL,1       NO. SYSTEM FILE USER/OWNERS
                              *
      00311  0074 00 4 00030  CDC    TSX     $DTSAVE,4     SAVE DUMPER TABLES ETC.
      00312  0761 00 0 00000         NOP
      00313 -0500 00 1 01534         CAL     SYSFL,1
      00314  0602 00 0 64510         SLW     MFDENT        PROB. NO. OF NEXT SYSTEM FILE USER NAME
      00315 -0500 00 1 01535         CAL     SYSFL+1,1
      00316  0602 00 0 64511         SLW     MFDENT+1      PROG. NO. OF NEXT SYSTEM FILE USER NAME
                              *
      00317  0074 00 4 00034         TSX     $DUSR1,4      DUMP THIS USER
                              *
      00320  0020 00 0 00602         TRA     ERRCD2        (END OF DAY RETURN - IMPOSSIBLE)
      00321  0020 00 0 00612         TRA     ERRCD3        ERROR RETURN - UFD FILE UNREADABLE
      00322  0074 00 4 00024         TSX     $GDSIG,4
      00323  1 77776 1 00324         TXI     *+1,1,-2
      00324  3 00000 1 00311  CDD    TXH     CDC,1,**      RETURN FOR NEXT SYSTEM FILE USER
                              *
                              *      DAEMON SELF DUMP (NO U.F.D.)
                              *
                              *
1           INCREMENTAL NEW FILES DUMP AND COMPLETE DUMP...M.J.BAILEY,12/31/64                   PAGE 9

                              *      DUMP M.F.D. FILE
                              *
      00325 -0500 00 0 01523         CAL     UFDNAM
      00326  0602 00 0 62741         SLW     UFDENT
      00327 -0500 00 0 01524         CAL     UFDNAM+1
      00330  0602 00 0 62742         SLW     UFDENT+1
      00331  0602 00 0 64511         SLW     MFDENT+1
      00332 -0500 00 0 01525         CAL     MFDNAM
      00333  0602 00 0 64510         SLW     MFDENT
      00334  0074 00 4 00032         TSX     $DMPFIL,4
                              *
                              *      TERMINATE MAP FILE, DUMP IT, COPY IT ON TO THE
                              *      PRINT OUTPUT TAPE TAPE, AND CLOSE DUMP TAPE FILES
                              *
      00335  0074 00 4 00035         TSX     $EMF,4        END MAP FILE
 TD   00336  3 00000 0 01701         TXH     =0
      00337  0074 00 4 00036         TSX     $DMF,4        DUMP MAP FILE, COPY ONTO PRINT TAPE
      00340  0074 00 4 00002         TSX     ATTACH,4
 TD   00341  3 00000 0 62727         TXH     DMPUSR
 TD   00342  3 00000 0 62726         TXH     DMPRGR
                              *
      00343  0074 00 4 00030         TSX     $DTSAVE,4     SAVE DUMPER TABLES ETC.
      00344  0761 00 0 00000         NOP
      00345  0074 00 4 00005         TSX     CLOSE,4       CLOSE COMPLETE SYSTEM DUMP TAPE FILES
 TD   00346  3 00000 0 62723         TXH     NFN1
 TD   00347  3 00000 0 62724         TXH     NFN1+1
      00350  0074 00 4 00005         TSX     CLOSE,4
 TD   00351  3 00000 0 62721         TXH     NFN2
 TD   00352  3 00000 0 62722         TXH     NFN2+1
      00353  0074 00 4 00007         TSX     UMOUNT,4      HAVE OPERATOR DISMOUNT REEL
 TD   00354  3 00000 0 01706         TXH     =11           FROM UNIT 11 (DUMP TAPE COPY 1)
      00355  2 01601 0 01557         TIX     ESDMES,,LESDMS  AND GIVE END OF DUMP MESSAGE
      00356  0074 00 4 00007         TSX     UMOUNT,4      REPEAT FOR UNIT 12 (DUMP TAPE COPY 2)
 TD   00357  3 00000 0 01707         TXH     =12
      00360  2 01601 0 01557         TIX     ESDMES,,LESDMS
      00361  0074 00 4 00024         TSX     $GDSIG,4
      00362  0074 00 4 00030         TSX     $DTSAVE,4
      00363  0761 00 0 00000         NOP
      00364  0074 00 4 00030         TSX     $DTSAVE,4
      00365  0761 00 0 00000         NOP
                              *
                              *  OPEN USER-FILES-'COMPLETE'-DUMP TAPE FILES, WRITE I.D. RECORD ON EACH
                              *
      00366  0600 00 0 70062  UDTPAT STZ     TPBUF+7       (NO END OF DAY IN THIS I.D. RECORD)
      00367                          MOVE    4,UFDTID,TAPEID
      00367  0774 00 1 00004         AXT     4,1                                                              .001
      00370 -0500 00 1 01606         CAL     UFDTID+4,1                                                       .001
      00371  0602 00 1 60250         SLW     TAPEID+4,1                                                       .001
      00372  2 00001 1 00370         TIX     *-2,1,1                                                          .001
      00373  0074 00 4 00025         TSX     $SDF,4
      00374  2 01623 0 01606         TIX     SUDMES,,LSUDMS  (MESSAGE FOR START OF USERS' FILES DUMP)
                              *
                              *      INITIATE, AND WRITE HEADING FOR, USERS'-FILES DUMP TAPE MAP FILE
                              *
      00375  0074 00 4 00026         TSX     $SMF,4        INITIATE MAP FILE
      00376  0074 00 4 00027         TSX     $WMH,4        WRITE MAP HEADING
1           INCREMENTAL NEW FILES DUMP AND COMPLETE DUMP...M.J.BAILEY,12/31/64                   PAGE 10

 TD   00377  3 00000 0 01727         TXH     =HUSERS'      (FOR USERS'-FILES-DUMP TAPE FILE)
      00400  0074 00 4 00024         TSX     $GDSIG,4
                              *
                              *      DUMP M.F.D. FILE
                              *
      00401 -0500 00 0 62737         CAL     TLD
      00402  0602 00 0 01522         SLW     TTLD
      00403  0074 00 4 00031         TSX     $GDT,4
      00404  0602 00 0 60263         SLW     TCYCLE
      00405 -0500 00 0 01523         CAL     UFDNAM
      00406  0602 00 0 62741         SLW     UFDENT
      00407 -0500 00 0 01524         CAL     UFDNAM+1
      00410  0602 00 0 62742         SLW     UFDENT+1
      00411  0602 00 0 64511         SLW     MFDENT+1
      00412 -0500 00 0 01525         CAL     MFDNAM
      00413  0602 00 0 64510         SLW     MFDENT
      00414  0074 00 4 00032         TSX     $DMPFIL,4
      00415  0074 00 4 00502         TSX     OPNMFD,4
      00416  0500 00 0 01521         CLA     UDTSW
      00417  0100 00 0 00424         TZE     AUTOM
      00420  0600 00 0 01521         STZ     UDTSW
      00421 -0500 00 0 01522         CAL     TTLD
      00422  0602 00 0 62737         SLW     TLD
                              *      TZE     CDF2
      00423  0020 00 0 00431         TRA     CDF
                              *
                              *  .  .  .  .  .  .  .  .  .  .  .  .  .  .  .  .  .  .  .  .  .
                              *      START COMPLETE CURRENT USER FILE DUMPING, IN
                              *      GROUPS ACCORDING TO MOST RECENT USE.
                              *  .  .  .  .  .  .  .  .  .  .  .  .  .  .  .  .  .  .  .  .  .
                              *
      00424  0074 00 4 00031  AUTOM  TSX     $GDT,4
      00425  0602 00 0 60263         SLW     TCYCLE        SET TIME OF THIS LAST CYCLE ON DUMP TAPE FI
      00426  0602 00 0 62720         SLW     TNDSW         ENSURE TND WILL BE TAKEN AS A CONSTANT
                              *      CAL     TNDSAV        RESTORE TND = START OF TOMORROW
                              *      TSX     $ADDDAY,4
                              *      TSX     $ADDDAY,4
                              *      SLW     TND
                              *      CAL     TNDSAV
                              *      TRA     *+2
                              **
                              *CDE   SLW     TND           SET TND
                              *      TSX     $SUBDAY,4
                              *      TXH     LDINC
                              *      SLW     TLD           TLD=TND-DINC
                              *      SUB     TCP
                              *      TPL     *+3           SKIP IF TLD .GE. TCP
                              *      CAL     TCP           TLD LESS THAN TCP,
                              *      SLW     TLD           SET TLD=TCP
      00427  0074 00 4 00030         TSX     $DTSAVE,4     SAVE DUMPER TABLES ETC.
      00430  0761 00 0 00000         NOP
                              *
      00431  0074 00 4 00037  CDF    TSX     $DCYCLE,4     PERFORM DUMP CYCLE, DUMPING ALL FILES WHOSE
      00432  0761 00 0 00000         NOP                   DATE LAST USED IS BETWEEN TLD AND TND, WITH
                                                           SOME EXEMPT USERS.
      00433  0761 00 0 00000         NOP                   (END OF DAY RETURN - IMPOSSIBLE)
1           INCREMENTAL NEW FILES DUMP AND COMPLETE DUMP...M.J.BAILEY,12/31/64                   PAGE 11

                              *
                              *      CLA     TLD
                              *      SUB     TCP
                              *      TZE     *+3           ALMOST FINISHED IF TLD=TCP
                              *      CAL     TLD           SETTING TND = TLD,
                              *      TRA     CDE           RETURN FOR NEXT MOST RECENTLY USED FILES
                              *      CAL     TLD
                              *      SLW     TND
                              *      STZ     TLD
                              **
                              *      TSX     $DTSAVE,4
                              *      NOP
                              *CDF2  TSX     $DCYCLE,4     TO DUMP ALL TIME
                              *      NOP
                              *      NOP
                              *
                              *      DUMP M.F.D. FILE
                              *
      00434  0074 00 4 00520         TSX     CLSMFD,4
      00435 -0500 00 0 01523         CAL     UFDNAM
      00436  0602 00 0 62741         SLW     UFDENT
      00437 -0500 00 0 01524         CAL     UFDNAM+1
      00440  0602 00 0 62742         SLW     UFDENT+1
      00441  0602 00 0 64511         SLW     MFDENT+1
      00442 -0500 00 0 01525         CAL     MFDNAM
      00443  0602 00 0 64510         SLW     MFDENT
      00444  0074 00 4 00032         TSX     $DMPFIL,4
                              *
                              *  TERMINATE MAP FILE,DUMP IT, COPY IT ON TO THE PRINT
                              *   OUTPUT TAPE, CLOSE THE USER-DUMP FILES.
                              *
      00445  0074 00 4 00035         TSX     $EMF,4        END MAP FILE
 TD   00446  3 00000 0 01701         TXH     =0
      00447  0074 00 4 00036         TSX     $DMF,4        DUMP MAP FILE, COPY TO PRINT TAPE
      00450  0074 00 4 00002         TSX     ATTACH,4
 TD   00451  3 00000 0 62727         TXH     DMPUSR
 TD   00452  3 00000 0 62726         TXH     DMPRGR
                              *
      00453  0074 00 4 00030         TSX     $DTSAVE,4
      00454  0761 00 0 00000         NOP
      00455  0074 00 4 00005         TSX     CLOSE,4       CLOSE USERS'-FILES DUMP TAPE FILES
 TD   00456  3 00000 0 62723         TXH     NFN1
 TD   00457  3 00000 0 62724         TXH     NFN1+1
      00460  0074 00 4 00005         TSX     CLOSE,4
 TD   00461  3 00000 0 62721         TXH     NFN2
 TD   00462  3 00000 0 62722         TXH     NFN2+1
      00463  0074 00 4 00024         TSX     $GDSIG,4
      00464  0074 00 4 00007         TSX     UMOUNT,4      HAVE OPERATOR DISMOUNT REEL
 TD   00465  3 00000 0 01706         TXH     =11           FROM UNIT 11 (DUMP TAPE COPY 1)
      00466  2 01661 0 01637         TIX     EUDMES,,LEUDMS  AND GIVE END OF DUMP MESSAGE
      00467  0074 00 4 00007         TSX     UMOUNT,4      REPEAT FOR UNIT 12 (DUMP TAPE COPY 2)
 TD   00470  3 00000 0 01707         TXH     =12
      00471  2 01661 0 01637         TIX     EUDMES,,LEUDMS
      00472  0600 00 0 60262  QUIT   STZ     TFOSW
      00473  0074 00 4 00030         TSX     $DTSAVE,4
      00474  0761 00 0 00000         NOP
1           INCREMENTAL NEW FILES DUMP AND COMPLETE DUMP...M.J.BAILEY,12/31/64                   PAGE 12

      00475  0074 00 4 00030         TSX     $DTSAVE,4
      00476  0761 00 0 00000         NOP
      00477  0520 00 0 01517         ZET     NODEL
      00500  0074 00 4 00020         TSX     $EXIT,4
      00501  0020 00 0 00530         TRA     DAMMIT
                              *
      00502  0634 00 4 00516  OPNMFD SXA     O4,4
      00503  0074 00 4 00002         TSX     ATTACH,4
 TD   00504  3 00000 0 01525         TXH     MFDNAM
 TD   00505  3 00000 0 01524         TXH     UFDNAM+1
      00506  0074 00 4 00004         TSX     OPEN,4
 TD   00507  3 00000 0 01723         TXH     =HR
 TD   00510  3 00000 0 01525         TXH     MFDNAM
 TD   00511  3 00000 0 01524         TXH     UFDNAM+1
      00512  0074 00 4 00003         TSX     BUFFER,4
 TD   00513  3 00000 0 01525         TXH     MFDNAM
 TD   00514  3 00000 0 01524         TXH     UFDNAM+1
      00515  3 00660 0 00633         TXH     IOBUF3,,432
      00516  0774 00 4 00000  O4     AXT     **,4
      00517  0020 00 4 00001         TRA     1,4
                              *
      00520  0634 00 4 00516  CLSMFD SXA     O4,4
      00521  0074 00 4 00002         TSX     ATTACH,4
 TD   00522  3 00000 0 01525         TXH     MFDNAM
 TD   00523  3 00000 0 01524         TXH     UFDNAM+1
      00524  0074 00 4 00005         TSX     CLOSE,4
 TD   00525  3 00000 0 01525         TXH     MFDNAM
 TD   00526  3 00000 0 01524         TXH     UFDNAM+1
      00527  0020 00 0 00516         TRA     O4
      00530  0074 00 4 00012  DAMMIT TSX     CHFILE,4
 TD   00531  3 00000 0 01716         TXH     =HDRSTOR
 TD   00532  3 00000 0 01717         TXH     =HFILE.1
 TD   00533  3 00000 0 01701         TXH     =0
 TD   00534  3 00000 0 01722         TXH     =-0
 TD   00535  3 00000 0 01722         TXH     =-0
 TD   00536  3 00000 0 00537         TXH     *+1
      00537  0074 00 4 00001         TSX     DELFIL,4
 TD   00540  3 00000 0 01716         TXH     =HDRSTOR
 TD   00541  3 00000 0 01717         TXH     =HFILE.1
 TD   00542  3 00000 0 00543         TXH     *+1
      00543  0074 00 4 00012         TSX     CHFILE,4
 TD   00544  3 00000 0 01716         TXH     =HDRSTOR
 TD   00545  3 00000 0 01720         TXH     =HFILE.2
 TD   00546  3 00000 0 01701         TXH     =0
 TD   00547  3 00000 0 01722         TXH     =-0
 TD   00550  3 00000 0 01722         TXH     =-0
 TD   00551  3 00000 0 00552         TXH     *+1
      00552  0074 00 4 00001         TSX     DELFIL,4
 TD   00553  3 00000 0 01716         TXH     =HDRSTOR
 TD   00554  3 00000 0 01720         TXH     =HFILE.2
 TD   00555  3 00000 0 00556         TXH     *+1
      00556  0074 00 4 00020         TSX     $EXIT,4
                              *
                              *  .  .  .  .  .  .  .  .  .  .  .  .  .  .  .  .  .  .  .  .
                              *      ERROR FIX-UP SECTION
                              *  .  .  .  .  .  .  .  .  .  .  .  .  .  .  .  .  .  .  .  .
1           INCREMENTAL NEW FILES DUMP AND COMPLETE DUMP...M.J.BAILEY,12/31/64                   PAGE 13

                              *
      00557                   ERRCD1 BGNERM  =HCD01        EXEMPT USER ARRAY TOO SMALL
      00557  0634 00 4 00562         SXA     *+3,4                                                            .001
      00560  0074 00 4 00040         TSX     $BERM,4                                                          .001
      00561  0 00000 0 01713         PZE     =HCD01                                                           .001
      00562  0774 00 4 00000         AXT     **,4                                                             .001
      00563                          PRLINE  ( COMPLETE DUMP HAS TO BE ABANDONED. RE-ASSEMBLE.),8,0
      00563                          MOVE    8,..006,PBF                                                      .001
      00563  0774 00 1 00010         AXT     8,1                                                              .002
      00564 -0500 00 1 01701         CAL     ..006+8,1                                                        .002
      00565  0602 00 1 64536         SLW     PBF+8,1                                                          .002
      00566  2 00001 1 00564         TIX     *-2,1,1                                                          .002
      00567                          PRBUFF  PBF,8+0                                                          .001
      00567  0634 00 4 00572         SXA     *+3,4                                                            .002
      00570  0074 00 4 00006         TSX     WRFLX,4                                                          .002
      00571  0 00010 0 64526                 PBF,,8+0                                                         .002
      00572  0774 00 4 00000         AXT     **,4                                                             .002
      00573                          CLEAR   PBF,8+0                                                          .002
      00573  0774 00 1 00010         AXT     8+0,1                                                            .003
      00574  0600 00 1 64536         STZ     PBF+8+0,1                                                        .003
      00575  2 00001 1 00574         TIX     *-1,1,1                                                          .003
                                     RMT                                                                      .001
                              ..006  BCI     8, COMPLETE DUMP HAS TO BE ABANDONED. RE-ASSEMBLE.               .001
                                     RMT                                                                      .001
      00576                          ERTN    QUIT          ABANDON COMPLETE DUMP
      00576  0634 00 4 00600         SXA     *+2,4                                                            .001
      00577  0074 00 4 00041         TSX     $ERREND,4                                                        .001
      00600  0774 00 4 00000         AXT     **,4                                                             .001
      00601  0020 00 0 00472         TRA     QUIT                                                             .001
                              *
      00602                   ERRCD2 BGNERM  =HCD02        'IMPOSSIBLE' END OF DAY RETURN FROM DUSR
      00602  0634 00 4 00605         SXA     *+3,4                                                            .001
      00603  0074 00 4 00040         TSX     $BERM,4                                                          .001
      00604  0 00000 0 01714         PZE     =HCD02                                                           .001
      00605  0774 00 4 00000         AXT     **,4                                                             .001
      00606                          ERTN    CDD-1         MOVE TO NEXT SYSTEM FILE OWNER/USER
      00606  0634 00 4 00610         SXA     *+2,4                                                            .001
      00607  0074 00 4 00041         TSX     $ERREND,4                                                        .001
      00610  0774 00 4 00000         AXT     **,4                                                             .001
      00611  0020 00 0 00323         TRA     CDD-1                                                            .001
                              *
      00612                   ERRCD3 BGNERM  =HCD03        UFD FILE READING ERROR
      00612  0634 00 4 00615         SXA     *+3,4                                                            .001
      00613  0074 00 4 00040         TSX     $BERM,4                                                          .001
      00614  0 00000 0 01715         PZE     =HCD03                                                           .001
      00615  0774 00 4 00000         AXT     **,4                                                             .001
      00616                          ERTN    CDD-1         MOVE TO NEXT SYSTEM FILE OWNER/USER
      00616  0634 00 4 00620         SXA     *+2,4                                                            .001
      00617  0074 00 4 00041         TSX     $ERREND,4                                                        .001
      00620  0774 00 4 00000         AXT     **,4                                                             .001
      00621  0020 00 0 00323         TRA     CDD-1                                                            .001
                              *
                              *  .  .  .  .  .  .  .  .  .  .  .  .  .  .  .  .  .  .  .  .
                              *      CONSTANTS, VARIABLES, ETC.
                              *  .  .  .  .  .  .  .  .  .  .  .  .  .  .  .  .  .  .  .  .
                              *
1           INCREMENTAL NEW FILES DUMP AND COMPLETE DUMP...M.J.BAILEY,12/31/64                   PAGE 14

      00622  606445256747     MESX   BCI     9, UNEXPECTED AND/OR NON-CRUCIAL I/O SYSTEM ERROR RETURN
      00623  252363252460
      00624  214524614651
      00625  604546454023
      00626  516423312143
      00627  603161466062
      00630  706263254460
      00631  255151465160
      00632  512563645145
      00633                   IOBUF3 BSS     432
      01513  0 00000 0 00000  DAUTH  PZE
      01514 +000000200660     MDDVC  OCT     000000200660
      01515  0 00000 0 00030  LNCD   PZE     NCD
      01516  0 00000 0 00014  LDINC  PZE     DINC
      01517  0 00000 0 00000  NODEL  PZE
      01520  0 00000 0 00000  TEMP   PZE
      01521  0 00000 0 00000  UDTSW  PZE
      01522  0 00000 0 00000  TTLD   PZE
      01523  643326332433     UFDNAM BCI     2,U.F.D.(FILE)
      01524  742631432534
      01525  443326332433     MFDNAM BCI     1,M.F.D.
      01526  604401040106     SFA    BCI     2, M1416CMFL01
      01527  234426430001
      01530  604401040106            BCI     2, M1416CMFL02
      01531  234426430002
      01532  604401040106            BCI     2, M1416CMFL05
      01533  234426430005
      01534  0 00000 0 00006  SYSFL  PZE     *-SFA
      01535  606270626325      SDTID BCI     4, SYSTEM-FILES DUMP TAPE
      01536  444026314325
      01537  626024644447
      01540  606321472560
      01541  606270626325     SSDMES BCI     7, SYSTEM-FILE COMPLETE DUMP BEGINNING.
      01542  444026314325
      01543  602346444743
      01544  256325602464
      01545  444760222527
      01546  314545314527
      01547  336060606060
      01550  604525666051            BCI     6, NEW REELS SHOULD BE MOUNTED.
      01551  252543626062
      01552  304664432460
      01553  222560444664
      01554  456325243360
      01555  606060606060
      01556  0 00000 0 00015  LSSDMS PZE     *-SSDMES
      01557  602545246046     ESDMES BCI     6, END OF SYSTEM-FILE COMPLETE DUMP.
      01560  266062706263
      01561  254440263143
      01562  256023464447
      01563  432563256024
      01564  644447336060
      01565  605125444665            BCI     8, REMOVE AND SAVE BOTH COPIES OF THIS DUMP TAPE,
      01566  256021452460
      01567  622165256022
      01570  466330602346
1           INCREMENTAL NEW FILES DUMP AND COMPLETE DUMP...M.J.BAILEY,12/31/64                   PAGE 15

      01571  473125626046
      01572  266063303162
      01573  602464444760
      01574  632147257360
      01575  602162606246            BCI     4, AS SOON AS POSSIBLE.
      01576  464560216260
      01577  474662623122
      01600  432533606060
      01601  0 00000 0 00022  LESDMS PZE     *-ESDMES
      01602  606462255162     UFDTID BCI     4, USERS'-FILES DUMP TAPE
      01603  144026314325
      01604  626024644447
      01605  606321472560
      01606  646225514026     SUDMES BCI     7,USER-FILE COMPLETE DUMP BEGINNING.
      01607  314325602346
      01610  444743256325
      01611  602464444760
      01612  222527314545
      01613  314527336060
      01614  606060606060
      01615  604525666051            BCI     6, NEW REELS SHOULD BE MOUNTED.
      01616  252543626062
      01617  304664432460
      01620  222560444664
      01621  456325243360
      01622  606060606060
      01623  0 00000 0 00015  LSUDMS PZE     *-SUDMES
      01624  604721453123     ALLMES BCI     3, PANIC UNMOUNT,
      01625  606445444664
      01626  456373606060
      01627  602464444760            BCI     7, DUMP MAP NOT DUMPED ON THESE TAPES
      01630  442147604546
      01631  636024644447
      01632  252460464560
      01633  633025622560
      01634  632147256260
      01635  606060606060
      01636  0 00000 0 00012  LALMES PZE     *-ALLMES
      01637  602545246046     EUDMES BCI     6, END OF USERS'-FILES COMPLETE DUMP.
      01640  266064622551
      01641  621440263143
      01642  256260234644
      01643  474325632560
      01644  246444473360
      01645  605125444665            BCI     8, REMOVE AND SAVE BOTH COPIES OF THIS DUMP TAPE,
      01646  256021452460
      01647  622165256022
      01650  466330602346
      01651  473125626046
      01652  266063303162
      01653  602464444760
      01654  632147257360
      01655  602162606246            BCI     4, AS SOON AS POSSIBLE.
      01656  464560216260
      01657  474662623122
      01660  432533606060
1           INCREMENTAL NEW FILES DUMP AND COMPLETE DUMP...M.J.BAILEY,12/31/64                   PAGE 16

      01661  0 00000 0 00022  LEUDMS PZE     *-EUDMES
                                     INSERT  DCMEQB
                              *
                              *  .  .  .  .  .  .  .  .  .  .  .  .  .  .  .  .  .  .
                              *    COMMON AND EQUIVALENCE FOR GENERAL DUMP PROGRAM
                              *  .  .  .  .  .  .  .  .  .  .  .  .  .  .  .  .  .  .
                              *
                      075032  DEMKEY BOOL    75032         CORE A LOCATION FOR DAEMON'S KEY SETTING
                      075105  SYSTIM BOOL    75105         CORE A LOCATION FOR SYSTEM  TIME
                      075104  SYSDAT BOOL    75104         CORE A LOCATION FOR SYSTEM INIT. DATE
                      076147  RCODE  BOOL    76147         CORE A LOCATION FOR RESTRICTION CODE VECTOR
                      075040  AUTOND BOOL    75040         CORE A AUTOMATIC LOGOUT INDICATOR
                      075052  NUSERS BOOL    75052         CORE A LOGGED-IN USER COUNT
                      076426  PROBN  BOOL    76426         CORE A PROBNO ARRAY
                      076362  PROGN  BOOL    76362         CORE A PROGNO ARRAY
                      075113  PB     BOOL    75113         CORE A GUARANTEED PERCENTAGE VECTOR BASE
                      000043  N      BOOL    43            CORE A MAX. NO. OF USERS (SIZE OF PROBN)
                              *
                      000017  BASE   BOOL    17            KEY CODE BASE
                      000001  I      BOOL    1             KEY CODE TO START INCREMENTAL DUMP
                      000002  PAUSE  BOOL    2             KEY CODE TO WAIT FOR 1 MIN.
                      000003  C      BOOL    3             KEY CODE TO DO COMPLETE DUMP
                      000004  AK     BOOL    4             KEY CODE FOR IMPENDING AUTOLOGOUT
                      000005  ENFLSH BOOL    5             KEY CODE TO ENTER FLUSH MODE
                      000006  LVFLSH BOOL    6             KEY CODE TO LEAVE FLUSH MODE
                      000007  ENDTAP BOOL    7             KEY CODE TO TERMINATE DUMP TAPE FILE
                      000010  INT    BOOL    10            SIMULATE INTERRUPT
                       00660  RECSIZ EQU     432           TAPE RECORD SIZE
                       00006   NX    EQU     6             MAX. NO. OF SYSTEM FILE OWNERS
                       00030  NCD    EQU     24            MAX. NO. 'DAYS' NON-USE OF CURRENT FILES
                       00014  DINC   EQU     12            NO. DAYS OF 'RECENCY' INCREMENT (C.DUMP)
                       01274  U      EQU     700           MAX. NO. USERS IN MFD USER LIST
                       03300  TBSIZ  EQU     4*RECSIZ      TAPE BUFFER SIZE
                       00007  ERYSIZ EQU     7             I/O SYSTEM ERROR ARRAY SIZE
                       00014  ERCODA EQU     12            'OPEN' ERROR CODE FOR FILE NOT FOUND
                       00016  ERCODB EQU     14            'OPEN' ERROR CODE RQSTD. DEVICE UNAVBLE
                       00660  NW     EQU     432           SIZE OF SECONDARY I/O FILE BUFFERS
                       00001  LSDRUM EQU     1             I/O SYSTEM DEVICE CODE FOR L.S.DRUM
                       00002    DISK EQU     2             I/O SYSTEM DEVICE CODE FOR DISK
                       00003   TAPE  EQU     3             I/O SYSTEM DEVICE CODE FOR TAPE
                       00010  NHOUR  EQU     8             NO. OF HOURS IN A 'DAY'
                       77461  KEYVAL COMMON  1             LAST KEY SETTING READ FROM SUPERVISOR
                       77460  FLSHSW COMMON  1             FLUSH MODE SWITCH
                       77457  ENTPSW COMMON  1             OPERATOR-REQUESTED-END-TAPE INDICATOR
                       77456  NMFDU  COMMON  1             NO. USERS CURRENTLY IN LIST
                       77455  EXEMPT COMMON  2*NX          LIST OF SYSTEM FILE OWNERS
                       77441  NXMPT  COMMON  1             NO. FILE USERS EXEMPT FROM DUMP IN DCYCLE
                       77440  DTLD   COMMON  U             TIME LAST DUMPED FOR EACH USER
                       76144  PROGNO COMMON  U             PROGRAMMER NO. OF EACH USER
                       74650  PROBNO COMMON  U             PROBLEM NO. OF EACH USER
                       73354   FLUSH COMMON  1             NON-ZERO INDICATES FLUSH MODE IS FORCED
                       73353   TND   COMMON  1             TIME OF NEXT DUMP FOR CURRENT USER
                       70053         COMMON  TBSIZ-1       TAPE BUFFER
                       70053  TPBUF  COMMON  1             TAPE BUFFER 1ST WORD
                       64553         COMMON  TBSIZ-1       2ND TAPE BUFFER
                       64553  TPBUF2 COMMON  1             2ND TAPE BUFFER, 1ST WORD
1           INCREMENTAL NEW FILES DUMP AND COMPLETE DUMP...M.J.BAILEY,12/31/64                   PAGE 17

                       64544         COMMON  ERYSIZ-1      ERROR ARRAY
                       64544  ERAY   COMMON  1             ERROR ARRAY 1ST WORD
                       64526         COMMON  13            PRINT BUFFER
                       64526   PBF   COMMON  1             PRINT BUFFER 1ST WORD
                       64510         COMMON  13            MFD ENTRY BUFFER
                       64510  MFDENT COMMON  1             MFD ENTRY BUFFER 1ST WORD
                       63630         COMMON  NW-1          SECONDARY I/0 FILE BUFFER
                       63630   IOBUF COMMON  1             SECONDARY IO BUFFER 1ST WORD
                       62750         COMMON  NW-1          SECONDARY I/O FILE BUFFER
                       62750  IOBUF2 COMMON  1             SECONDARY I/O BUFFER 1ST WORD
                       62747  UFDEOF COMMON  1             ZERO INDICATES EOF IN UFD FILE
                       62741         COMMON  5             PARTIAL UFD ENTRY BUFFER
                       62741  UFDENT COMMON  1             PARTIAL UFD ENTRY BUFFER 1ST WORD
                       62740   MFDC  COMMON  1             NEXT WORD TO BE READ FROM MFD FILE
                       62737   TLD   COMMON  1             TIME LAST DUMP OF USER CURRENTLY DUMPING
                       62736   UFDC  COMMON  1             NEXT UNREAD POS. OF UFDFILE (NORMALLY ZERO)
                       62735  MFDEOF COMMON  1             ZERO INDICATES EOF IN MFD FILE
                       62734   EOFCT COMMON  1             NO. OF WORDS READ BEFORE AN EOF
                       62733   FEOF  COMMON  1             ZERO INDICATES EOF IN A USER FILE
                       62732  EOFCTA COMMON  1             NO. OF WORDS BEFORE AN EOF
                       62731   DMPSW COMMON  1             NON-ZERO INDICATES A FILE HAS BEEN DUMPED
                       62730   DAWN  COMMON  1             TIME OF START OF 'DAY'
                       62727  DMPUSR COMMON  1             PROBLEM NO. OF DUMP/LOAD PACKAGE
                       62726  DMPRGR COMMON  1             PROGRAMMER NO. OF  DITTO.
                       62727  DU     EQU     DMPUSR
                       62726  DP     EQU     DMPRGR
                       62725   MFD1W COMMON  1             NO. OF 1ST GOOD WORD IN MFD AND UFD FILES
                       62723         COMMON  1             2ND PART OF DUMP TAPE FILE (COPY 1) NAME
                       62723  NFN1   COMMON  1             1ST PART OF DUMP TAPE FILE (COPY 1) NAME
                       62721         COMMON  1             2ND PART OF DUMP TAPE FILE (COPY 2) NAME
                       62721   NFN2  COMMON  1             1ST PART OF DUMP TAPE FILE (COPY 2) NAME
                       62720  TNDSW  COMMON  1             INDICATES TIME OF THIS DUMP CURRENT OR NO
                       62040         COMMON  RECSIZ-1      INTERNAL TAPE BUFFER
                       62040   ITB1  COMMON  1                ,,     ,,    ,,  1ST WORD
                       61160         COMMON  RECSIZ-1      INTERNAL TAPE BUFFER
                       61160   ITB2  COMMON  1                ,,     ,,  ,,  1ST WORD
                       61157   DUSK  COMMON  1             TIME OF END OF CURRENT 'DAY'
                       61156   ENDSW COMMON  1             IF 1, NORMAL END-OF-DAY,ELSE OPERATOR ONE
                       60276         COMMON  NW-1          INTERNAL BUFFER FOR 'MAP' FILE
                       60276    IMP  COMMON  1                ,,      ,,    ,,   ,,   ,,  1ST WORD
                       60267         COMMON  6             'MAP' FILE LINE PARAMETER ARRAY
                       60267  ARGLST COMMON  1               ,,   ,,   ,,      ,,      ,,  1ST WORD
                       60266  CDSW   COMMON  1             NON-ZERO DURING COMPLETE DUMP,ELSE ZERO
                       60265  DATE   COMMON  1             DATE THE DUMP NOW IN PROGRESS BEGAN
                       60264  TIME   COMMON  1             TIME DUMP NOW IN PROGRESS BEGAN
                       60263  TCYCLE COMMON  1             'TIME' OF LAST CYCLE ON DUMP TAPE FILE
                       60262  TFOSW  COMMON  1             NON-ZERO IF DUMP TAPE FILE IS OPEN
                       60261  ALOG   COMMON  1             NON-ZERO IF AUTOLOGOUT ON
                       60260  SW1    COMMON  1
                       60257  TCP    COMMON  1
                       60256  TNDSAV COMMON  1
                       60255  ODAWN  COMMON  1             TIME OF START OF PREVIOUS 'DAY'
                       60244         COMMON  8             TAPE LABEL
                       60244  TAPEID COMMON  1             TAPE LABEL 1ST WORD
                       60243  SKELSW COMMON  1
                       60254  REELNO EQU     TAPEID+8
1           INCREMENTAL NEW FILES DUMP AND COMPLETE DUMP...M.J.BAILEY,12/31/64                   PAGE 18

                                     END
                                              REMOTE SEQUENCES
      01662  606445256747     ..003  BCI     7, UNEXPECTED READ INTERLOCK TRAP IN DUMPER.                     .001
      01663  252363252460
      01664  512521246031
      01665  456325514346
      01666  234260635121
      01667  476031456024
      01670  644447255133
      01671  602346444743     ..006  BCI     8, COMPLETE DUMP HAS TO BE ABANDONED. RE-ASSEMBLE.               .001
      01672  256325602464
      01673  444760302162
      01674  606346602225
      01675  602122214524
      01676  464525243360
      01677  512540216262
      01700  254422432533

        LITERALS
      01701  000000000000
      01702  000000000001
      01703  000000000002
      01704  000000000003
      01705  000000000004
      01706  000000000013
      01707  000000000014
      01710  000000077777
      01711  000000303237
      01712  214343606060
      01713  232400016060
      01714  232400026060
      01715  232400036060
      01716  245162634651
      01717  263143253301
      01720  263143253302
      01721  332464444733
      01722  400000000000
      01723  516060606060
      01724  601111111111
      01725  602300000506
      01726  627062632544
      01727  646225516214
      01730  777777000000
1           INCREMENTAL NEW FILES DUMP AND COMPLETE DUMP...M.J.BAILEY,12/31/64                   PAGE 1
                        POST PROCESSOR ASSEMBLY DATA

       60242 IS THE LAST LOCATION NOT USED BY THIS PROGRAM
       1731 IS THE FIRST LOCATION NOT USED BY THIS PROGRAM

0REFERENCES TO DEFINED SYMBOLS
          3      C  1662
          1      I  1662
         43      N  1662
       1274      U  1662
          4     AK  1662
        135     D3   100
        160     D4   137
      62726     DP    60, 1662
      62727     DU    57, 1662
        660     NW  1662
          6     NX   235, 1662
        516     O4   502,  520,  527
      75113     PB  1662
        237    CDB   243
        311    CDC   324
        324    CDD   611,  621
        431    CDF   423
         36    DMF   337,  447
         35    EMF   335,  445
         31    GDT   260,  272,  305,  403,  424
      60276    IMP  1662
         10    INT  1662
         30    NCD  1515, 1662
      64526    PBF   120,  124,  127,  144,  150,  153,  565,  571,  574, 1662
         25    SDF   251,  373
       1526    SFA  1534
         26    SMF   253,  375
      60260    SW1  1662
      60257    TCP   304, 1662
      62737    TLD   303,  401,  422, 1662
      73353    TND   274, 1662
         27    WMH   254,  376
      60261   ALOG  1662
         17   BASE  1662
         40   BERM   560,  603,  613
      60266   CDSW   215,  232, 1662
      60265   DATE  1662
      62730   DAWN  1662
         14   DINC  1516, 1662
          2   DISK  1662
         15   DKEY    51
      77440   DTLD  1662
      61157   DUSK  1662
        114   ELOC    77
      64544   ERAY  1662
         20   EXIT   113,  500,  556
      62733   FEOF  1662
        140   ILOC   136
      62040   ITB1  1662
      61160   ITB2  1662
1           INCREMENTAL NEW FILES DUMP AND COMPLETE DUMP...M.J.BAILEY,12/31/64                   PAGE 2
                        POST PROCESSOR ASSEMBLY DATA

       1515   LNCD   302
        622   MESX   117
      62740   MFDC  1662
      62723   NFN1   161,  164,  346,  347,  456,  457, 1662
      62721   NFN2   162,  166,  351,  352,  461,  462, 1662
          4   OPEN   506
        472   QUIT   601
          3   TAPE  1662
       1520   TEMP   177,  205
      60264   TIME  1662
       1522   TTLD   402,  421
      62736   UFDC  1662
         13  ALLOT    61,   64,   67
        424  AUTOM   417
        230  CDUMP   210,  216,  220,  223
          5  CLOSE   103,  167,  345,  350,  455,  460,  524
       1513  DAUTH
      62731  DMPSW  1662
         34  DUSR1   317
        132  ELOC1   115
        133  ELOC4   114
      61156  ENDSW  1662
      62734  EOFCT  1662
      73354  FLUSH   307, 1662
         24  GDSIG   233,  322,  361,  400,  463
        155  ILOC1   141
        156  ILOC4   140
      63630  IOBUF  1662
       1662  ..003   143
       1671  ..006   564
       1516  LDINC
       1514  MDDVC
      62725  MFD1W    75, 1662
         10  NHOUR  1662
      77456  NMFDU  1662
       1517  NODEL    73,  214,  477
      77441  NXMPT   236, 1662
      60255  ODAWN   213, 1662
          2  PAUSE  1662
        101  PEXIT    46
      76426  PROBN  1662
      76362  PROGN  1662
      76147  RCODE  1662
       1535  SDTID   246
         14  SETIO    43
       1534  SYSFL   234,  237,  241,  310,  313,  315
       3300  TBSIZ  1662
      60262  TFOSW   217,  231,  472, 1662
      62720  TNDSW   426, 1662
      70053  TPBUF   244,  366, 1662
       1521  UDTSW    72,  224,  416,  420
          6  WRFLX   123,  147,  570
       1624 ALLMES   111,  173, 1636
      60267 ARGLST  1662
          2 ATTACH    56,  340,  450,  503,  521
1           INCREMENTAL NEW FILES DUMP AND COMPLETE DUMP...M.J.BAILEY,12/31/64                   PAGE 3
                        POST PROCESSOR ASSEMBLY DATA

      75040 AUTOND  1662
          3 BUFFER   512
         12 CHFILE   530,  543
        520 CLSMFD   434
        530 DAMMIT   501
         37 DCYCLE   431
          1 DELFIL   537,  552
      75032 DEMKEY  1662
         32 DMPFIL   271,  334,  414,  444
      62726 DMPRGR    53,  342,  452, 1662
      62727 DMPUSR    55,  341,  451, 1662
         22 DRSTOR   211
         30 DTSAVE   256,  276,  311,  343,  362,  364,  427,  453,  473,  475
          7 ENDTAP  1662
          5 ENFLSH  1662
      77457 ENTPSW  1662
      62732 EOFCTA  1662
         14 ERCODA  1662
         16 ERCODB  1662
        557 ERRCD1   235
        602 ERRCD2   320
        612 ERRCD3   321
         41 ERREND   577,  607,  617
          7 ERYSIZ  1662
       1557 ESDMES   355,  360, 1601
       1637 EUDMES   466,  471, 1661
      77455 EXEMPT   240,  242, 1662
         10 FERRTN    76
      77460 FLSHSW  1662
          0 FSTATE   174,  202
      62750 IOBUF2  1662
        633 IOBUF3   515
         17 IOFINI   112
         16 IORSET   102
      77461 KEYVAL  1662
       1636 LALMES   111,  173
       1601 LESDMS   355,  360
       1661 LEUDMS   466,  471
          1 LSDRUM  1662
       1556 LSSDMS   252
       1623 LSUDMS   374
          6 LVFLSH  1662
      64510 MFDENT   266,  270,  314,  316,  331,  333,  411,  413,  441,  443, 1662
      62735 MFDEOF   230, 1662
       1525 MFDNAM   267,  332,  412,  442,  504,  510,  513,  522,  525
      75052 NUSERS  1662
        502 OPNMFD   415
         21 PRNTER   131
      74650 PROBNO  1662
      76144 PROGNO  1662
        660 RECSIZ  1662
      60254 REELNO  1662
        211 RSTORE   201,  207
         23 SAVMAP   225
      60243 SKELSW  1662
1           INCREMENTAL NEW FILES DUMP AND COMPLETE DUMP...M.J.BAILEY,12/31/64                   PAGE 4
                        POST PROCESSOR ASSEMBLY DATA

       1541 SSDMES   252, 1556
         33 SUBDAY   301
       1606 SUDMES   374, 1623
      75104 SYSDAT  1662
      75105 SYSTIM  1662
      60244 TAPEID   247,  371, 1662
      60263 TCYCLE   261,  306,  404,  425, 1662
         11 TILOCK   135
      60256 TNDSAV   275,  300, 1662
      64553 TPBUF2  1662
        366 UDTPAT   227
      62741 UFDENT   263,  265,  326,  330,  406,  410,  436,  440, 1662
      62747 UFDEOF  1662
       1523 UFDNAM   262,  264,  325,  327,  405,  407,  435,  437,  505,  511,  514,  523,  526
       1602 UFDTID   370
          7 UMOUNT   107,  171,  353,  356,  464,  467

0 NO ERROR IN ABOVE ASSEMBLY.


SDCYCA   BCD 05/28/67 1807.1    3568         00000
1         SUBROUTINE TO PERFORM ONE GENERAL DUMP CYCLE....M.J.BAILEY,11/30/64                    PAGE 1

                              *
                       00005         ENTRY   DCYCLE
                              *
                              *  .  .  .  .  .  .  .  .  .  .  .  .  .  .  .  .  .  .  .  .
                              *      INITIALIZATION OF GENERAL DUMP CYCLE
                              *  .  .  .  .  .  .  .  .  .  .  .  .  .  .  .  .  .  .  .  .
                              *

        TRANSFER VECTOR
      00000  512444262460     RDMFD
      00001  246462516760     DUSRX
      00002  246362216525     DTSAVE

            LINKAGE DIRECTOR
      00003  000000000000
      00004  242370234325

      00005  0500 00 0 62735  DCYCLE CLA     MFDEOF        ENSURE MFD FILE READ STARTING AT
      00006 -0100 00 0 00012         TNZ     *+4
      00007  0500 00 0 62725         CLA     MFD1W
      00010  0601 00 0 62740         STO     MFDC          1ST GOOD WORD
      00011  0601 00 0 62735         STO     MFDEOF        SET MFD FILE EOF INDICATOR NON-ZERO
      00012  0634 00 1 00064         SXA     NXY,1
      00013  0634 00 2 00065         SXA     NXZ,2
      00014  0634 00 7 00066         SXA     NXZZ,7
      00015  0634 00 4 00020         SXA     DCYC4,4
                              *
                              *  .  .  .  .  .  .  .  .  .  .  .  .  .  .  .  .  .  .  .  .
                              *      START OF DUMP CYCLE
                              *  .  .  .  .  .  .  .  .  .  .  .  .  .  .  .  .  .  .  .  .
                              *
                              *
                              *      READ NEXT USER'S ENTRY FROM MFD
                              *
      00016  0074 00 4 00000  NXUSR  TSX     $RDMFD,4      READ NEXT USER'S MFD ENTRY INTO MFDENT
      00017  0020 00 0 00061         TRA     NXIB           ERROR RETURN, GO TO NEXT USER
      00020  0774 00 4 00000  DCYC4  AXT     **,4
                              *
      00021  0534 00 1 00100         LXA     NALDXM,1      IS THIS USER EXEMPT FROM ALL DUMPS
      00022 -0500 00 0 64510         CAL     MFDENT
      00023 -0340 00 1 00100  ZA     LAS     NALDXM,1
      00024  0020 00 0 00026         TRA     ZB
      00025  0020 00 0 00030         TRA     ZC
      00026  2 00002 1 00023  ZB     TIX     ZA,1,2
      00027  0020 00 0 00036         TRA     ZD
      00030 -0500 00 0 64511  ZC     CAL     MFDENT+1
      00031 -0340 00 1 00101         LAS     NALDXM+1,1
      00032  0020 00 0 00034         TRA     *+2
      00033  0020 00 0 00061         TRA     NXIB          YES, EXEMPT, GO TO NEXT USER
      00034 -0500 00 0 64510         CAL     MFDENT
      00035  0020 00 0 00026         TRA     ZB
                              *
                              *      CHECK WHETHER THIS USER IS EXEMPT FROM THIS DUMP
                              *
      00036  0534 00 1 77441  ZD     LXA     NXMPT,1
      00037 -0500 00 0 64510         CAL     MFDENT        USER PROBNO.
1         SUBROUTINE TO PERFORM ONE GENERAL DUMP CYCLE....M.J.BAILEY,11/30/64                    PAGE 2

      00040 -0340 00 1 77456  NXA    LAS     EXEMPT+1,1    IS IT THAT OF NEXT EXEMPT USER
      00041  0020 00 0 00043         TRA     NXB           NO, HE IS NOT THIS EXEMPT USER
      00042  0020 00 0 00045         TRA     *+3           COULD BE, HIS PROBLEM NO. MATCHES
      00043  2 00002 1 00040   NXB   TIX     NXA,1,2       NO, GO TRY NEXT EXEMPT USER PROBNO
      00044  0020 00 0 00053         TRA     NXBB          THIS USER NOT EXEMPT, GO DUMP HIM
      00045 -0500 00 0 64511         CAL     MFDENT+1      PROB. NO. MATCHES, LOOK AT HIS PROG. NO.
      00046 -0340 00 1 77457         LAS     EXEMPT+2,1
      00047  0020 00 0 00051         TRA     *+2           NO MATCH
      00050  0020 00 0 00061         TRA     NXIB           YES, HE IS EXEMPT, GO TO NEXT USER
      00051 -0500 00 0 64510         CAL     MFDENT        NO, HE IS NOT THIS EXEMPT USER,
      00052  0020 00 0 00043         TRA     NXB           GO BACK TO TRY NEXT
                              *
                              *      UPDATE THE USER'S FILE DIRECTORY
                              *
      00053  0074 00 4 00001  NXBB   TSX     $DUSRX,4
      00054  0020 00 0 00056         TRA     NXBC          ('IMPOSSBCLE')
      00055  0020 00 0 00056         TRA     NXBC          ERROR RETURN
      00056  0774 00 1 00003  NXBC   AXT     3,1           NORMAL RETURN
      00057  0074 00 4 00002         TSX     $DTSAVE,4     SAVE USER LIST ETC. ON DISK
      00060  2 00001 1 00057         TIX     *-1,1,1       ERROR RETURN, TRY UP TO 3 TIMES
      00061  0520 00 0 62735  NXIB   ZET     MFDEOF
      00062  0020 00 0 00016         TRA     NXUSR         NO, RETURN FOR NEXT
                              *
      00063  0534 00 4 00020         LXA     DCYC4,4       YES, PREPARE TO RETURN TO CALLER
      00064  0774 00 1 00000   NXY   AXT     **,1
      00065  0774 00 2 00000  NXZ    AXT     **,2
      00066  0774 00 7 00000  NXZZ   AXT     **,7
      00067  0020 00 4 00003         TRA     3,4           RETURN TO CALLER
                              *
                              *      CONSTANTS, VARIABLES, ETC.
                              *
      00070  443326332433     ALLDXM BCI     2,M.F.D.(FILE)
      00071  742631432534
      00072  245164446463            BCI     2,DRUMUT(FILE)
      00073  742631432534
      00074  243162426463            BCI     2,DISKUT(FILE)
      00075  742631432534
      00076  602300000506            BCI     2, C0056 99999
      00077  601111111111
 T    00100 -0754 00 0 00010  NALDXM PXD     *-ALLDXM
                                     INSERT DCMEQB
                              *
                              *  .  .  .  .  .  .  .  .  .  .  .  .  .  .  .  .  .  .
                              *    COMMON AND EQUIVALENCE FOR GENERAL DUMP PROGRAM
                              *  .  .  .  .  .  .  .  .  .  .  .  .  .  .  .  .  .  .
                              *
                      075032  DEMKEY BOOL    75032         CORE A LOCATION FOR DAEMON'S KEY SETTING
                      075105  SYSTIM BOOL    75105         CORE A LOCATION FOR SYSTEM  TIME
                      075104  SYSDAT BOOL    75104         CORE A LOCATION FOR SYSTEM INIT. DATE
                      076147  RCODE  BOOL    76147         CORE A LOCATION FOR RESTRICTION CODE VECTOR
                      075040  AUTOND BOOL    75040         CORE A AUTOMATIC LOGOUT INDICATOR
                      075052  NUSERS BOOL    75052         CORE A LOGGED-IN USER COUNT
                      076426  PROBN  BOOL    76426         CORE A PROBNO ARRAY
                      076362  PROGN  BOOL    76362         CORE A PROGNO ARRAY
                      075113  PB     BOOL    75113         CORE A GUARANTEED PERCENTAGE VECTOR BASE
                      000043  N      BOOL    43            CORE A MAX. NO. OF USERS (SIZE OF PROBN)
1         SUBROUTINE TO PERFORM ONE GENERAL DUMP CYCLE....M.J.BAILEY,11/30/64                    PAGE 3

                              *
                      000017  BASE   BOOL    17            KEY CODE BASE
                      000001  I      BOOL    1             KEY CODE TO START INCREMENTAL DUMP
                      000002  PAUSE  BOOL    2             KEY CODE TO WAIT FOR 1 MIN.
                      000003  C      BOOL    3             KEY CODE TO DO COMPLETE DUMP
                      000004  AK     BOOL    4             KEY CODE FOR IMPENDING AUTOLOGOUT
                      000005  ENFLSH BOOL    5             KEY CODE TO ENTER FLUSH MODE
                      000006  LVFLSH BOOL    6             KEY CODE TO LEAVE FLUSH MODE
                      000007  ENDTAP BOOL    7             KEY CODE TO TERMINATE DUMP TAPE FILE
                      000010  INT    BOOL    10            SIMULATE INTERRUPT
                       00660  RECSIZ EQU     432           TAPE RECORD SIZE
                       00006   NX    EQU     6             MAX. NO. OF SYSTEM FILE OWNERS
                       00030  NCD    EQU     24            MAX. NO. 'DAYS' NON-USE OF CURRENT FILES
                       00014  DINC   EQU     12            NO. DAYS OF 'RECENCY' INCREMENT (C.DUMP)
                       01274  U      EQU     700           MAX. NO. USERS IN MFD USER LIST
                       03300  TBSIZ  EQU     4*RECSIZ      TAPE BUFFER SIZE
                       00007  ERYSIZ EQU     7             I/O SYSTEM ERROR ARRAY SIZE
                       00014  ERCODA EQU     12            'OPEN' ERROR CODE FOR FILE NOT FOUND
                       00016  ERCODB EQU     14            'OPEN' ERROR CODE RQSTD. DEVICE UNAVBLE
                       00660  NW     EQU     432           SIZE OF SECONDARY I/O FILE BUFFERS
                       00001  LSDRUM EQU     1             I/O SYSTEM DEVICE CODE FOR L.S.DRUM
                       00002    DISK EQU     2             I/O SYSTEM DEVICE CODE FOR DISK
                       00003   TAPE  EQU     3             I/O SYSTEM DEVICE CODE FOR TAPE
                       00010  NHOUR  EQU     8             NO. OF HOURS IN A 'DAY'
                       77461  KEYVAL COMMON  1             LAST KEY SETTING READ FROM SUPERVISOR
                       77460  FLSHSW COMMON  1             FLUSH MODE SWITCH
                       77457  ENTPSW COMMON  1             OPERATOR-REQUESTED-END-TAPE INDICATOR
                       77456  NMFDU  COMMON  1             NO. USERS CURRENTLY IN LIST
                       77455  EXEMPT COMMON  2*NX          LIST OF SYSTEM FILE OWNERS
                       77441  NXMPT  COMMON  1             NO. FILE USERS EXEMPT FROM DUMP IN DCYCLE
                       77440  DTLD   COMMON  U             TIME LAST DUMPED FOR EACH USER
                       76144  PROGNO COMMON  U             PROGRAMMER NO. OF EACH USER
                       74650  PROBNO COMMON  U             PROBLEM NO. OF EACH USER
                       73354   FLUSH COMMON  1             NON-ZERO INDICATES FLUSH MODE IS FORCED
                       73353   TND   COMMON  1             TIME OF NEXT DUMP FOR CURRENT USER
                       70053         COMMON  TBSIZ-1       TAPE BUFFER
                       70053  TPBUF  COMMON  1             TAPE BUFFER 1ST WORD
                       64553         COMMON  TBSIZ-1       2ND TAPE BUFFER
                       64553  TPBUF2 COMMON  1             2ND TAPE BUFFER, 1ST WORD
                       64544         COMMON  ERYSIZ-1      ERROR ARRAY
                       64544  ERAY   COMMON  1             ERROR ARRAY 1ST WORD
                       64526         COMMON  13            PRINT BUFFER
                       64526   PBF   COMMON  1             PRINT BUFFER 1ST WORD
                       64510         COMMON  13            MFD ENTRY BUFFER
                       64510  MFDENT COMMON  1             MFD ENTRY BUFFER 1ST WORD
                       63630         COMMON  NW-1          SECONDARY I/0 FILE BUFFER
                       63630   IOBUF COMMON  1             SECONDARY IO BUFFER 1ST WORD
                       62750         COMMON  NW-1          SECONDARY I/O FILE BUFFER
                       62750  IOBUF2 COMMON  1             SECONDARY I/O BUFFER 1ST WORD
                       62747  UFDEOF COMMON  1             ZERO INDICATES EOF IN UFD FILE
                       62741         COMMON  5             PARTIAL UFD ENTRY BUFFER
                       62741  UFDENT COMMON  1             PARTIAL UFD ENTRY BUFFER 1ST WORD
                       62740   MFDC  COMMON  1             NEXT WORD TO BE READ FROM MFD FILE
                       62737   TLD   COMMON  1             TIME LAST DUMP OF USER CURRENTLY DUMPING
                       62736   UFDC  COMMON  1             NEXT UNREAD POS. OF UFDFILE (NORMALLY ZERO)
                       62735  MFDEOF COMMON  1             ZERO INDICATES EOF IN MFD FILE
1         SUBROUTINE TO PERFORM ONE GENERAL DUMP CYCLE....M.J.BAILEY,11/30/64                    PAGE 4

                       62734   EOFCT COMMON  1             NO. OF WORDS READ BEFORE AN EOF
                       62733   FEOF  COMMON  1             ZERO INDICATES EOF IN A USER FILE
                       62732  EOFCTA COMMON  1             NO. OF WORDS BEFORE AN EOF
                       62731   DMPSW COMMON  1             NON-ZERO INDICATES A FILE HAS BEEN DUMPED
                       62730   DAWN  COMMON  1             TIME OF START OF 'DAY'
                       62727  DMPUSR COMMON  1             PROBLEM NO. OF DUMP/LOAD PACKAGE
                       62726  DMPRGR COMMON  1             PROGRAMMER NO. OF  DITTO.
                       62727  DU     EQU     DMPUSR
                       62726  DP     EQU     DMPRGR
                       62725   MFD1W COMMON  1             NO. OF 1ST GOOD WORD IN MFD AND UFD FILES
                       62723         COMMON  1             2ND PART OF DUMP TAPE FILE (COPY 1) NAME
                       62723  NFN1   COMMON  1             1ST PART OF DUMP TAPE FILE (COPY 1) NAME
                       62721         COMMON  1             2ND PART OF DUMP TAPE FILE (COPY 2) NAME
                       62721   NFN2  COMMON  1             1ST PART OF DUMP TAPE FILE (COPY 2) NAME
                       62720  TNDSW  COMMON  1             INDICATES TIME OF THIS DUMP CURRENT OR NO
                       62040         COMMON  RECSIZ-1      INTERNAL TAPE BUFFER
                       62040   ITB1  COMMON  1                ,,     ,,    ,,  1ST WORD
                       61160         COMMON  RECSIZ-1      INTERNAL TAPE BUFFER
                       61160   ITB2  COMMON  1                ,,     ,,  ,,  1ST WORD
                       61157   DUSK  COMMON  1             TIME OF END OF CURRENT 'DAY'
                       61156   ENDSW COMMON  1             IF 1, NORMAL END-OF-DAY,ELSE OPERATOR ONE
                       60276         COMMON  NW-1          INTERNAL BUFFER FOR 'MAP' FILE
                       60276    IMP  COMMON  1                ,,      ,,    ,,   ,,   ,,  1ST WORD
                       60267         COMMON  6             'MAP' FILE LINE PARAMETER ARRAY
                       60267  ARGLST COMMON  1               ,,   ,,   ,,      ,,      ,,  1ST WORD
                       60266  CDSW   COMMON  1             NON-ZERO DURING COMPLETE DUMP,ELSE ZERO
                       60265  DATE   COMMON  1             DATE THE DUMP NOW IN PROGRESS BEGAN
                       60264  TIME   COMMON  1             TIME DUMP NOW IN PROGRESS BEGAN
                       60263  TCYCLE COMMON  1             'TIME' OF LAST CYCLE ON DUMP TAPE FILE
                       60262  TFOSW  COMMON  1             NON-ZERO IF DUMP TAPE FILE IS OPEN
                       60261  ALOG   COMMON  1             NON-ZERO IF AUTOLOGOUT ON
                       60260  SW1    COMMON  1
                       60257  TCP    COMMON  1
                       60256  TNDSAV COMMON  1
                       60255  ODAWN  COMMON  1             TIME OF START OF PREVIOUS 'DAY'
                       60244         COMMON  8             TAPE LABEL
                       60244  TAPEID COMMON  1             TAPE LABEL 1ST WORD
                       60243  SKELSW COMMON  1
                       60254  REELNO EQU     TAPEID+8
                                     END
1         SUBROUTINE TO PERFORM ONE GENERAL DUMP CYCLE....M.J.BAILEY,11/30/64                    PAGE 1
                        POST PROCESSOR ASSEMBLY DATA

       60242 IS THE LAST LOCATION NOT USED BY THIS PROGRAM
        101 IS THE FIRST LOCATION NOT USED BY THIS PROGRAM

0REFERENCES TO DEFINED SYMBOLS
          3      C   101
          1      I   101
         43      N   101
       1274      U   101
          4     AK   101
      62726     DP   101
      62727     DU   101
        660     NW   101
          6     NX   101
      75113     PB   101
         23     ZA    26
         26     ZB    24,   35
         30     ZC    25
         36     ZD    27
      60276    IMP   101
         10    INT   101
         30    NCD   101
         40    NXA    43
         43    NXB    41,   52
         64    NXY    12
         65    NXZ    13
      64526    PBF   101
      60260    SW1   101
      60257    TCP   101
      62737    TLD   101
      73353    TND   101
      60261   ALOG   101
         17   BASE   101
      60266   CDSW   101
      60265   DATE   101
      62730   DAWN   101
         14   DINC   101
          2   DISK   101
      77440   DTLD   101
      61157   DUSK   101
      64544   ERAY   101
      62733   FEOF   101
      62040   ITB1   101
      61160   ITB2   101
      62740   MFDC    10,  101
      62723   NFN1   101
      62721   NFN2   101
         53   NXBB    44
         56   NXBC    54,   55
         61   NXIB    17,   33,   50
         66   NXZZ    14
          3   TAPE   101
      60264   TIME   101
      62736   UFDC   101
         20  DCYC4    15,   63
1         SUBROUTINE TO PERFORM ONE GENERAL DUMP CYCLE....M.J.BAILEY,11/30/64                    PAGE 2
                        POST PROCESSOR ASSEMBLY DATA

      62731  DMPSW   101
          1  DUSRX    53
      61156  ENDSW   101
      62734  EOFCT   101
      73354  FLUSH   101
      63630  IOBUF   101
      62725  MFD1W     7,  101
         10  NHOUR   101
      77456  NMFDU   101
      77441  NXMPT    36,  101
         16  NXUSR    62
      60255  ODAWN   101
          2  PAUSE   101
      76426  PROBN   101
      76362  PROGN   101
      76147  RCODE   101
          0  RDMFD    16
       3300  TBSIZ   101
      60262  TFOSW   101
      62720  TNDSW   101
      70053  TPBUF   101
         70 ALLDXM   100
      60267 ARGLST   101
      75040 AUTOND   101
          5 DCYCLE     0
      75032 DEMKEY   101
      62726 DMPRGR   101
      62727 DMPUSR   101
          2 DTSAVE    57
          7 ENDTAP   101
          5 ENFLSH   101
      77457 ENTPSW   101
      62732 EOFCTA   101
         14 ERCODA   101
         16 ERCODB   101
          7 ERYSIZ   101
      77455 EXEMPT    40,   46,  101
      77460 FLSHSW   101
      62750 IOBUF2   101
      77461 KEYVAL   101
          1 LSDRUM   101
          6 LVFLSH   101
      64510 MFDENT    22,   30,   34,   37,   45,   51,  101
      62735 MFDEOF     5,   11,   61,  101
        100 NALDXM    21,   23,   31
      75052 NUSERS   101
      74650 PROBNO   101
      76144 PROGNO   101
        660 RECSIZ   101
      60254 REELNO   101
      60243 SKELSW   101
      75104 SYSDAT   101
      75105 SYSTIM   101
      60244 TAPEID   101
      60263 TCYCLE   101
1         SUBROUTINE TO PERFORM ONE GENERAL DUMP CYCLE....M.J.BAILEY,11/30/64                    PAGE 3
                        POST PROCESSOR ASSEMBLY DATA

      60256 TNDSAV   101
      64553 TPBUF2   101
      62741 UFDENT   101
      62747 UFDEOF   101

0 NO ERROR IN ABOVE ASSEMBLY.


DPUSRB   BCD 05/28/67 1807.1   18388         00000
1            SUBROUTINE TO DUMP ONE USER'S FILES....M.J.BAILEY,11/30/64                          PAGE 1

                              *
                              *      DUSR DUMPS THOSE OF THE USER DEFINED BY THE PARTIAL MFD ENTRY
                              *      CONTAINED IN COMMON LOCATIONS MFDENT THROUGH MFDENT+6.
                              *        FILES WHOSE DATE/TIME LAST MODIFIED IS T, WILL BE DUMPED, WHERE
                              *      TLD IS LESS THAN OR EQUALS T AND T IS LESS THAN TND. TLD AND TND
                              *      ARE ALSO ALREADY SET IN COMMON.
                              *      DURING COMPLETE DUMPS, T IS TAKEN AS THE TIME LAST USED FOR EACH
                              *      FILE.
                              *        ONLY FILES ON DISK AND LOW-SPEED DRUM ARE CURRENTLY DUMPED.
                              *        TEMPORARY FILES ARE NOT DUMPED.
                              *
                              *              CALLING SEQUENCE -  TSX  $DUSR,4
                              *                                       (END-OF-DAY RETURN)
                              *                                       (ERROR RETURN)
                              *                                       (NORMAL RETURN)
                              *
                              *
                       00221         ENTRY   DUSR          DUMP ONE USER'S FILES
                       00215         ENTRY   DMPUFD
                       00217         ENTRY   DUSRX
                       00113         ENTRY   DMNDMP
                       00150         ENTRY   DUSR1         DUMP FILES OF USER WHOSE MFD ENTRY UNREAD
                       00120         ENTRY   DMPFIL        DUMP SPECIAL FILE
                                     EXTERN  ATTACH,TILOCK,OPEN,BUFFER,FWAIT,CLOSE
                                     EXTERN  DELFIL
                                     EXTERN  WRFILE,WRFLX,CHFILE,FSTATE,SETFIL
                              *
                                     INSERT  DMCRSA
                              *
                              *      MACRO TO WRITE N WORDS FROM ARRAY ET SEQ ONTO ALREADY OPENED
                              *      SECONDARY STORAGE FILE (NAME1,NAME2) AND WAIT UNTIL TRANSMITTED.
                              *
                               WSSF  MACRO   ARRAY,N,NAME1,NAME2
                                     TSX     ATTACH,4      RE-ATTACH TO DUMPER'S FILES
                                     TXH     DMPUSR
                                     TXH     DMPRGR
                                     TSX     WRFILE,4      WRITE
                                     TXH     NAME1         ONTO (NAME1,
                                     TXH     NAME2         NAME2)
                                     TXH     =0            AT POSITION WHERE LAST CEASED
                                     TIX     ARRAY,,N      FROM ARRAY THROUGH ARRAY+N-1
                                     TSX     FWAIT,4       WAIT
                                     TXH     NAME1
                                     TXH     NAME2
                               WSSF  END
                              *
                              *  ZERO-IZE A THROUGH A+X-1
                              *
                               CLEAR MACRO   A,X
                                     AXT     X,1
                                     STZ     A+X,1
                                     TIX     *-1,1,1
                               CLEAR END
                              *
                              *      MOVE X WORDS FROM A ET SEQ TO B ET SEQ
                              *
1            SUBROUTINE TO DUMP ONE USER'S FILES....M.J.BAILEY,11/30/64                          PAGE 2

                               MOVE  MACRO   X,A,B
                                     AXT     X,1
                                     CAL     A+X,1
                                     SLW     B+X,1
                                     TIX     *-2,1,1
                               MOVE  END
                              *
                              *      PRINT ONE LINE, CLEAR BUFFER
                              *
                              PRBUFF MACRO   BUFF,NWDS
                                     SXA     *+3,4
                                     TSX     WRFLX,4
                                             BUFF,,NWDS
                                     AXT     **,4
                                     CLEAR   BUFF,NWDS
                              PRBUFF END
                              *
                              *      PRINT STANDARD BEGINNING TO DUMPER ERROR MESSAGE
                              *
                              BGNERM MACRO   TYPE
                                     SXA     *+3,4
                                     TSX     $BERM,4
                                     PZE     TYPE
                                     AXT     **,4
                              BGNERM END
                              *
                              *  PRINT ONE LINE COMMENT
                              *
                              PRLINE MACRO   COMNT,NWC,N,WORD1,WORD2,LOC
                                     IFF     0,NWC,0
                                     MOVE    NWC,LOC,PBF
                                     IFF     N-2,N,1
                                     CAL     WORD1
                                     IFF     N-2,N,1
                                     SLW     PBF+NWC
                                     IFF     1,N,2
                                     CAL     WORD2
                                     IFF     1,N,2
                                     SLW     PBF+NWC+1
                                     PRBUFF  PBF,NWC+N
                                     RMT
                               LOC   BCI     NWC,COMNT
                                     RMT
                              PRLINE END
                              *
                              *      PRINT ONE LINE MESSAGE
                              *
                              PRMESS MACRO   MESNAM,N,ADR1,ADR2
                                     TSX     $PRLINE,4
                                     BCI     1,MESNAM
                                     IFF     N,N,N
                                     TXH     ADR1
                                     IFF     N,N,N
                                     TXH     ADR2
                              PRMESS END
                              *
1            SUBROUTINE TO DUMP ONE USER'S FILES....M.J.BAILEY,11/30/64                          PAGE 3

                              *      MACRO TO OPEN FILE (X,Y) OF USER (A,B) FOR READING
                              *      AND ASSIGN BUFFER F OF LENGTH L TO I/O SYSTEM FOR THAT PURPOSE.
                              *        ( ERR IS TRANSFER ADDRESS FOR ERROR RETURN )
                              *
                              RDOPEN MACRO   X,Y,A,B,F,L,ERR
                                     TSX     ATTACH,4      ATTACH TO USER (A,B)
                                     TXH     A
                                     TXH     B
                                     TSX     OPEN,4        OPEN FILE (X,Y) FOR READING
                                     TXH     R
                                     TXH     X
                                     TXH     Y
                                     TXH     =0
                                     TXH     =0
                                     TXH     ERR           (TRANSFER ADDRESS FOR ERROR)
                                     TSX     BUFFER,4      ASSIGN L WORDS OF BUFFER F TO (X,Y)
                                     TXH     X
                                     TXH     Y
                                     TIX     F,,L
                              RDOPEN END
                              *
                              *      PRINT ERROR CODE, END MESSAGE
                              *
                                ERTN MACRO   ADRERR
                                     SXA     *+2,4
                                     TSX     $ERREND,4
                                     AXT     **,4
                                     TRA     ADRERR
                                ERTN END
                              *
                              *      ASK OPERATOR TO SET KEY CODE DC IF HE WANTS
                              *      ACTION GIVEN BY N-WORD MESSAGE M
                              *
                              PRCODE MACRO   DC,M,N
                                     TSX     $PRCODE,4
                                     TXH     DC
                                     TXH     M,,N
                              PRCODE END
                              *
                              *      TEST LAST KEY SETTING VIA SUPERVISOR, GO TO JUMP IF IT IS CODE
                              *
                              TESTKY MACRO   CODE,JUMP
                                     TSX     $NGETA,7
                                     LDQ     DEMKEY
                                     STQ     KEYVAL
                                     AXT     CODE,1
                                     PXA     0,1
                                     SUB     KEYVAL
                                     TZE     JUMP
                              TESTKY END
                              *
                              *      SET UP LOGICAL TAPE RECORD WRITING
                              *
                              LOGREC MACRO   X
                                     CLA     LTPBF
                                     SUB     =12
1            SUBROUTINE TO DUMP ONE USER'S FILES....M.J.BAILEY,11/30/64                          PAGE 4

                                     STO     TEMP
                                     CAL     X+4
                                     ANA     =O77777
                                     STO     RCOUNT
                                     TSX     $NLREC,4
                                     TXH     NORECS
                                     TXH     RCOUNT
                                     TXH     LCOUNT
                                     TXH     TEMP
                                     TXH     =12
                                     TXH     PHYSRC
                                     TXH     NFLR
                                     TXH     NLAST
                              LOGREC END
                              *
                              *
                              ATTACH MACRO   A,B
                                     TSX     ATTACH,4
                                     TXH     A
                                     TXH     B
                              ATTACH END
                              *
                              *      PRINT ERROR MESSAGE AND INTERROGATE KEYS
                              *
                              PRERR  MACRO
                                     TSX     $PRNTER,4
                                     TSX     $GDSIG,4
                              PRERR  END
                              *
                              *
                              *  .  .  .  .  .  .  .  .  .  .  .  .  .  .  .  .  .  .  .  .
                              *      TRANSFER VECTOR, CONSTANTS, VARIABLES,
                              *  .  .  .  .  .  .  .  .  .  .  .  .  .  .  .  .  .  .  .  .
                              *

        TRANSFER VECTOR
      00000  216363212330     ATTACH
      00001  633143462342     TILOCK
      00002  464725456060     OPEN
      00003  226426262551     BUFFER
      00004  266621316360     FWAIT
      00005  234346622560     CLOSE
      00006  242543263143     DELFIL
      00007  665126314325     WRFILE
      00010  665126436760     WRFLX
      00011  233026314325     CHFILE
      00012  266263216325     FSTATE
      00013  622563263143     SETFIL
      00014  272463606060     GDT
      00015  272462312760     GDSIG
      00016  454351252360     NLREC
      00017  512464262460     RDUFD
      00020  665145266060     WRNF
      00021  442147433145     MAPLIN
      00022  312545642624     IENUFD
      00023  254563642624     ENTUFD
1            SUBROUTINE TO DUMP ONE USER'S FILES....M.J.BAILEY,11/30/64                          PAGE 5

      00024  512426606060     RDF
      00025  222551446060     BERM
      00026  234223462425     CKCODE
      00027  255151254524     ERREND

            LINKAGE DIRECTOR
      00030  000000000000
      00031  246462516060

      00032  643326332433     UFDNAM BCI     2,U.F.D.(FILE)
      00033  742631432534
      00034  516060606060      R     BCI     1,R
      00035  0 00000 0 00000  TEMP   PZE                   TEMPORARY
      00036  646225516026     UFDID  BCI     3,USER FILE DIRECTRY
      00037  314325602431
      00040  512523635170
      00041  606270626325     ERSTAT BCI     5, SYSTEM OR MACHINE ERROR.
      00042  446046516044
      00043  212330314525
      00044  602551514651
      00045  336060606060
      00046  0 00000 0 00000  EMPTSW PZE
      00047  0 00000 0 03300  LTPBF  PZE     TBSIZ         SIZE OF TAPE BUFFER
      00050  0 00000 0 00660   LBUF  PZE     NW
      00051  0 00000 0 00660   LBUF2 PZE     NW
      00052  0 00000 0 00000  RCOUNT PZE     **            NO. WORDS/PHYS. REC. OF FILE BEING DUMPED
      00053  0 00000 0 00000  NORECS PZE     **            NO. PHYSICAL RECS. IN FILE BEING DUMPED
      00054  0 00000 0 00000  LCOUNT PZE     **            NO. WPRDS IN LAST PHYSICAL RECORD
      00055  0 00000 0 00000   NFLR  PZE     **
      00056  0 00000 0 00000   NLAST PZE     **
      00057  0 00000 0 00660  PHYSRC PZE     RECSIZ
      00060  443326332433     MFDNAM BCI     1,M.F.D.
      00061  0 00000 0 00000  STATUS PZE
      00062                   Y      BSS     8
      00072  0 00000 0 00007  L7     PZE     7
      00073  0 00000 0 00000  ALLSW  PZE     **
      00074  0 00000 0 64553         PZE     TPBUF2
      00075  0 00000 0 70053  TBA1   PZE     TPBUF
      00076  0 00000 0 64566         PZE     TPBUF2+11
      00077  0 00000 0 70066  TBA2   PZE     TPBUF+11
      00100  0 00000 0 70053         PZE     TPBUF2+TBSIZ
      00101  0 00000 0 73353  TBA3   PZE     TPBUF+TBSIZ
      00102  0 00000 0 00000  FLFL   PZE     **
      00103                   A      BSS     8
                              *
                              *      ENTRY   TO DUMP DAEMON'S FILES
                              *
      00113 -0500 60 4 00001  DMNDMP CAL*    1,4
      00114  0602 00 0 62744         SLW     UFDENT+3
      00115 -0500 60 4 00002         CAL*    2,4
      00116  0602 00 0 62745         SLW     UFDENT+4
      00117  0020 00 0 00123         TRA     DMPFIL+3
                              *
                              *  .  .  .  .  .  .  .  .  .  .  .  .  .  .  .  .  .  .  .  .
                              *  ENTRY TO DUMP THE SPECIAL FILE (MFDENT,MFDENT+1,UFDENT,UFDENT+1)
                              *  .  .  .  .  .  .  .  .  .  .  .  .  .  .  .  .  .  .  .  .
1            SUBROUTINE TO DUMP ONE USER'S FILES....M.J.BAILEY,11/30/64                          PAGE 6

                              *
      00120  0600 00 0 62744  DMPFIL STZ     UFDENT+3
      00121  0600 00 0 62745         STZ     UFDENT+4
      00122  1 00002 4 00123         TXI     *+1,4,2
      00123  0634 00 1 01016         SXA     DU1,1
      00124  0634 00 2 01017         SXA     DU2,2
      00125  0634 00 4 01020         SXA     DU4,4
      00126  0500 00 0 60263         CLA     TCYCLE        (TIME OF LAST DUMP CYCLEON THIS TAPE)
      00127  0601 00 0 64512         STO     MFDENT+2      FIX THINGS SO THAT CODING
      00130  0600 00 0 62747         STZ     UFDEOF        MAY BE USED TO DUMP A SINGLE FILE
      00131  0600 00 0 62737         STZ     TLD
      00132  0074 00 4 00014         TSX     $GDT,4        (CURRENT DATE/TIME)
      00133  0602 00 0 62743         SLW     UFDENT+2
      00134 -0500 00 0 64510         CAL     MFDENT        PREPARE PARAMETERS FOR DUMP TAPE 'MAP' LINE
      00135  0602 00 0 60267         SLW     ARGLST
      00136 -0500 00 0 62741         CAL     UFDENT
      00137  0602 00 0 60271         SLW     ARGLST+2
      00140 -0500 00 0 64511         CAL     MFDENT+1
      00141  0602 00 0 60270         SLW     ARGLST+1
      00142 -0500 00 0 62742         CAL     UFDENT+1
      00143  0602 00 0 60272         SLW     ARGLST+3
      00144  0600 00 0 60273         STZ     ARGLST+4
      00145  0600 00 0 60274         STZ     ARGLST+5
      00146  0600 00 0 60275         STZ     ARGLST+6
      00147  0020 00 0 00531         TRA     NXLB
                              *
                              *  .  .  .  .  .  .  .  .  .  .  .  .  .  .  .  .  .  .  .  .  .
                              *      ENTRY TO DUMP A USER'S FILES WHOSE MFD
                              *      ENTRY HAS NOT BEEN READ (AS IN COMPLETE SYSTEM FILE DUMP)
                              *  .  .  .  .  .  .  .  .  .  .  .  .  .  .  .  .  .  .  .  .  .
                              *
      00150  0634 00 1 01016  DUSR1  SXA     DU1,1
      00151  0634 00 2 01017         SXA     DU2,2
      00152  0634 00 4 01020         SXA     DU4,4
      00153                          RDOPEN  UFDNAM,UFDNAM+1,MFDENT,MFDENT+1,IOBUF,LBUF,ERRA
      00153  0074 00 4 00000         TSX     ATTACH,4                                                         .001
 TD   00154  3 00000 0 64510         TXH     MFDENT                                                           .001
 TD   00155  3 00000 0 64511         TXH     MFDENT+1                                                         .001
      00156  0074 00 4 00002         TSX     OPEN,4                                                           .001
 TD   00157  3 00000 0 00034         TXH     R                                                                .001
 TD   00160  3 00000 0 00032         TXH     UFDNAM                                                           .001
 TD   00161  3 00000 0 00033         TXH     UFDNAM+1                                                         .001
 TD   00162  3 00000 0 01340         TXH     =0                                                               .001
 TD   00163  3 00000 0 01340         TXH     =0                                                               .001
 TD   00164  3 00000 0 01022         TXH     ERRA                                                             .001
      00165  0074 00 4 00003         TSX     BUFFER,4                                                         .001
 TD   00166  3 00000 0 00032         TXH     UFDNAM                                                           .001
 TD   00167  3 00000 0 00033         TXH     UFDNAM+1                                                         .001
      00170  2 00050 0 63630         TIX     IOBUF,,LBUF                                                      .001
      00171  0600 00 0 64513         STZ     MFDENT+3
      00172  0600 00 0 64514         STZ     MFDENT+4
      00173  0074 00 4 00012         TSX     FSTATE,4
 TD   00174  3 00000 0 00032         TXH     UFDNAM
 TD   00175  3 00000 0 00033         TXH     UFDNAM+1
      00176  3 00010 0 00062         TXH     Y,,8
      00177 -0500 00 0 00070         CAL     Y+6           TIME LAST WRITTEN OF THIS USER
1            SUBROUTINE TO DUMP ONE USER'S FILES....M.J.BAILEY,11/30/64                          PAGE 7

      00200  0602 00 0 64512         SLW     MFDENT+2
      00201 -0500 00 0 00071         CAL     Y+7
      00202  0602 00 0 64513         SLW     MFDENT+3
      00203 -0500 00 0 00062         CAL     Y
      00204  0602 00 0 64515         SLW     MFDENT+5
      00205  0602 00 0 00054         SLW     LCOUNT
      00206  0402 00 0 01342         SUB     =3
      00207 -0100 00 0 00211         TNZ     *+2
      00210 -0625 00 0 00046         STL     EMPTSW
      00211  0500 00 0 01341         CLA     =1
      00212  0601 00 0 00053         STO     NORECS
      00213  0601 00 0 00073         STO     ALLSW
      00214  0020 00 0 00271         TRA     NXI
                              *
                              *  .  .  .  .  .  .  .  .  .  .  .  .  .  .  .  .  .  .  .  .  . .
                              *      ENTRY TO DUMP ONE USER'S FILES
                              *  .  .  .  .  .  .  .  .  .  .  .  .  .  .  .  .  .  .  .  .  . .
                              *
      00215 -0625 00 0 00046  DMPUFD STL     EMPTSW
      00216  0020 00 0 00221         TRA     DUSR
      00217 -0625 00 0 00073  DUSRX  STL     ALLSW
      00220  0020 00 0 00222         TRA     *+2
      00221  0600 00 0 00073  DUSR   STZ     ALLSW
      00222  0634 00 1 01016         SXA     DU1,1
      00223  0634 00 2 01017         SXA     DU2,2
      00224  0634 00 4 01020         SXA     DU4,4
      00225  0600 00 0 00054         STZ     LCOUNT
      00226 -0500 00 0 64515         CAL     MFDENT+5
      00227 -0320 00 0 01350         ANA     =O77777077777
      00230 -0340 00 0 01347         LAS     =O1000003
      00231  0020 00 0 00233         TRA     *+2
      00232 -0625 00 0 00046         STL     EMPTSW
      00233  0621 00 0 00054         STA     LCOUNT
      00234  0771 00 0 00022         ARS     18
      00235  0621 00 0 00053         STA     NORECS
      00236 -0500 00 0 64514         CAL     MFDENT+4
      00237  0621 00 0 00052         STA     RCOUNT
      00240  0500 00 0 00053         CLA     NORECS
      00241  0402 00 0 01341         SUB     =1
      00242  0100 00 0 00246         TZE     OQD
      00243  0131 00 0 00000         XCA
      00244  0200 00 0 00052         MPY     RCOUNT
      00245  0131 00 0 00000         XCA
      00246  0400 00 0 00054  OQD    ADD     LCOUNT
      00247  0601 00 0 00054         STO     LCOUNT
      00250  0601 00 0 64515         STO     MFDENT+5
      00251  0500 00 0 01341         CLA     =1
      00252  0601 00 0 00053         STO     NORECS
                              *
                              *      INITIALIZE THE USER'S U.F.D. FILE FOR READING
                              *
      00253                          RDOPEN  UFDNAM,UFDNAM+1,MFDENT,MFDENT+1,IOBUF,LBUF,ERRA
      00253  0074 00 4 00000         TSX     ATTACH,4                                                         .001
 TD   00254  3 00000 0 64510         TXH     MFDENT                                                           .001
 TD   00255  3 00000 0 64511         TXH     MFDENT+1                                                         .001
      00256  0074 00 4 00002         TSX     OPEN,4                                                           .001
1            SUBROUTINE TO DUMP ONE USER'S FILES....M.J.BAILEY,11/30/64                          PAGE 8

 TD   00257  3 00000 0 00034         TXH     R                                                                .001
 TD   00260  3 00000 0 00032         TXH     UFDNAM                                                           .001
 TD   00261  3 00000 0 00033         TXH     UFDNAM+1                                                         .001
 TD   00262  3 00000 0 01340         TXH     =0                                                               .001
 TD   00263  3 00000 0 01340         TXH     =0                                                               .001
 TD   00264  3 00000 0 01022         TXH     ERRA                                                             .001
      00265  0074 00 4 00003         TSX     BUFFER,4                                                         .001
 TD   00266  3 00000 0 00032         TXH     UFDNAM                                                           .001
 TD   00267  3 00000 0 00033         TXH     UFDNAM+1                                                         .001
      00270  2 00050 0 63630         TIX     IOBUF,,LBUF                                                      .001
      00271  0500 00 0 01341  NXI    CLA     =1            INITIALIZE READING FROM UFD FILE
      00272  0601 00 0 62736         STO     UFDC
      00273  0601 00 0 62747         STO     UFDEOF        ZERO UFDEOF INDICATES EOF IN UFD FILE
      00274                          CLEAR   TPBUF,TBSIZ   CLEAR OUT TAPE FILE BUFFER
      00274  0774 00 1 03300         AXT     TBSIZ,1                                                          .001
      00275  0600 00 1 73353         STZ     TPBUF+TBSIZ,1                                                    .001
      00276  2 00001 1 00275         TIX     *-1,1,1                                                          .001
      00277  0760 00 0 00165         SWT     5
      00300  0020 00 0 00303         TRA     *+3
      00301  0074 00 4 00010         TSX     WRFLX,4
      00302  0 00002 0 64510                 MFDENT,,2
                              *
                              *      INITIALIZE THE WRITING OF OUR COPY OF THE U.F.D. FILE
                              *
      00303  0074 00 4 00015         TSX     $GDSIG,4
                              *
                              *      PREPARE DUMP TAPE PREAMBLE FOR DUMPED UFD FILE
                              *
      00304  0774 00 1 00003         AXT     3,1           PREPARE 11 WORDS OF DUMP TAPE PREAMBLE
      00305 -0500 00 1 64513         CAL     MFDENT+3,1    1ST 3 WDS OF THIS MFD ENTRY IN WORDS 1,2,3
      00306  0602 00 1 70056         SLW     TPBUF+3,1     .
      00307 -0500 00 1 64516         CAL     MFDENT+6,1    NEXT 3 TO WORDS 9,10,11
      00310  0602 00 1 70066         SLW     TPBUF+11,1    .
      00311 -0500 00 1 00041         CAL     UFDID+3,1     LABEL IN WORDS 6,7,8
      00312  0602 00 1 70063         SLW     TPBUF+8,1     .
      00313  2 00001 1 00305         TIX     *-6,1,1
      00314 -0500 00 0 62737         CAL     TLD           TLD(I) IN WORD 4
      00315  0602 00 0 70056         SLW     TPBUF+3       .
      00316 -0500 00 0 73353         CAL     TND           TND IN WORD 5
      00317  0602 00 0 70057         SLW     TPBUF+4       .
                              *
                              *      FIND NO. OF FULL LOGICAL RECORDS (NFLR), AND NO. OF WORDS
                              *      TO BE WRITTEN IN LAST LOGICAL RECORD (NLAST), OF UFD FILE
                              *
      00320                          LOGREC  MFDENT
      00320  0500 00 0 00047         CLA     LTPBF                                                            .001
      00321  0402 00 0 01344         SUB     =12                                                              .001
      00322  0601 00 0 00035         STO     TEMP                                                             .001
      00323 -0500 00 0 64514         CAL     MFDENT+4                                                         .001
      00324 -0320 00 0 01346         ANA     =O77777                                                          .001
      00325  0601 00 0 00052         STO     RCOUNT                                                           .001
      00326  0074 00 4 00016         TSX     $NLREC,4                                                         .001
 TD   00327  3 00000 0 00053         TXH     NORECS                                                           .001
 TD   00330  3 00000 0 00052         TXH     RCOUNT                                                           .001
 TD   00331  3 00000 0 00054         TXH     LCOUNT                                                           .001
 TD   00332  3 00000 0 00035         TXH     TEMP                                                             .001
1            SUBROUTINE TO DUMP ONE USER'S FILES....M.J.BAILEY,11/30/64                          PAGE 9

 TD   00333  3 00000 0 01344         TXH     =12                                                              .001
 TD   00334  3 00000 0 00057         TXH     PHYSRC                                                           .001
 TD   00335  3 00000 0 00055         TXH     NFLR                                                             .001
 TD   00336  3 00000 0 00056         TXH     NLAST                                                            .001
      00337  0534 00 2 00055         LXA     NFLR,2
      00340 -0634 00 2 00366         SXD     NXIC,2        NO. OF FULL LOGICAL RECORDS
      00341  0520 00 0 00056         ZET     NLAST
      00342  1 00001 2 00343         TXI     *+1,2,1       ADD 1 IF PARTIAL RECORD AT END
      00343  0634 00 2 70066         SXA     TPBUF+11,2    NO. LOGICAL RECS. TO 12TH PREAMBLE WORD
      00344  0774 00 2 00001         AXT     1,2           1ST RECORD NO. IS 1
      00345 -0520 00 0 00055         NZT     NFLR
      00346  0020 00 0 00371         TRA     NXJ           SKIP IF NO FULL RECORDS
                              *
                              *  .  .  .  .  .  .  .  .  .  .  .  .  .  .  .  .  .  .  .  .
                              *      READ, COPY ON DRUM OR DISK, AND DUMP, THIS UFD FILE
                              *  .  .  .  .  .  .  .  .  .  .  .  .  .  .  .  .  .  .  .  .
                              *
      00347 -0634 00 2 70066  NXIB   SXD     TPBUF+11,2    RECORD NO. TO 12TH PREAMBLE WORD
      00350                          CLEAR   TPBUF+12,TBSIZ-12
      00350  0774 00 1 03264         AXT     TBSIZ-12,1                                                       .001
      00351  0600 00 1 73353         STZ     TPBUF+12+TBSIZ-12,1                                              .001
      00352  2 00001 1 00351         TIX     *-1,1,1                                                          .001
      00353 -0520 00 0 62747         NZT     UFDEOF
      00354  0020 00 0 00361         TRA     *+5           SKIP IF UFD EOF EARLY DUE TO DELETIONS
      00355  0074 00 4 00017         TSX     $RDUFD,4      FILL UP BUFFER FROM UFD
 TD   00356  3 00000 0 70067         TXH     TPBUF+12
 TD   00357  3 00000 0 00035         TXH     TEMP
      00360  0020 00 0 01265         TRA     NXR           ERROR RETURN, ABANDON THIS USER
      00361  0074 00 4 00020         TSX     $WRNF,4
 TD   00362  3 00000 0 70053         TXH     TPBUF
 TD   00363  3 00000 0 00047         TXH     LTPBF
      00364  0074 00 4 00015         TSX     $GDSIG,4
      00365  1 00001 2 00366         TXI     *+1,2,1       INCREMENT RECORD NO. BY 1
      00366 -3 00000 2 00347   NXIC  TXL     NXIB,2,**     GO BACK FOR NEXT BUFFER FULL
                              *
      00367 -0520 00 0 00056         NZT     NLAST         NOW WRITE PARTIAL RECORD
      00370  0020 00 0 00407         TRA     NXK           SKIP IF NO PARTIAL RECORD
      00371 -0634 00 2 70066  NXJ    SXD     TPBUF+11,2    RECORD NO. TO 12TH PREAMBLE WORD
      00372                          CLEAR   TPBUF+12,TBSIZ-12
      00372  0774 00 1 03264         AXT     TBSIZ-12,1                                                       .001
      00373  0600 00 1 73353         STZ     TPBUF+12+TBSIZ-12,1                                              .001
      00374  2 00001 1 00373         TIX     *-1,1,1                                                          .001
      00375 -0520 00 0 62747         NZT     UFDEOF
      00376  0020 00 0 00403         TRA     *+5           SKIP IF EOF ALREADY DUE TO DELETIONS
      00377  0074 00 4 00017         TSX     $RDUFD,4      READ LAST PART OF UFD FILE
 TD   00400  3 00000 0 70067         TXH     TPBUF+12
 TD   00401  3 00000 0 00035         TXH     TEMP
      00402  0020 00 0 01265         TRA     NXR           ERROR RETURN, ABANDON THIS USER
      00403  0074 00 4 00020         TSX     $WRNF,4
 TD   00404  3 00000 0 70053         TXH     TPBUF
 TD   00405  3 00000 0 00056         TXH     NLAST
      00406  0074 00 4 00015         TSX     $GDSIG,4
                              *
                              *
                              *      RECORD DUMPING OF THIS UFD FILE, ON DUMP TAPE MAP FILE
                              *
1            SUBROUTINE TO DUMP ONE USER'S FILES....M.J.BAILEY,11/30/64                          PAGE 10

      00407 -0500 00 0 64510  NXK    CAL     MFDENT
      00410  0602 00 0 60267         SLW     ARGLST
      00411 -0500 00 0 64511         CAL     MFDENT+1
      00412  0602 00 0 60270         SLW     ARGLST+1
      00413 -0500 00 0 00032         CAL     UFDNAM
      00414  0602 00 0 60271         SLW     ARGLST+2
      00415 -0500 00 0 00033         CAL     UFDNAM+1
      00416  0602 00 0 60272         SLW     ARGLST+3
      00417 -0500 00 0 64512         CAL     MFDENT+2
      00420  0602 00 0 60273         SLW     ARGLST+4
      00421  0520 00 0 60266         ZET     CDSW
      00422  0020 00 0 00430         TRA     NXKA
      00423 -0500 00 0 62737         CAL     TLD
      00424  0602 00 0 60274         SLW     ARGLST+5
      00425 -0500 00 0 73353         CAL     TND
      00426  0602 00 0 60275         SLW     ARGLST+6
      00427  0020 00 0 00434         TRA     *+5
      00430 -0500 00 0 64513  NXKA   CAL     MFDENT+3
      00431 -0320 00 0 01356         ANA     =O777777000000
      00432  0602 00 0 60274         SLW     ARGLST+5
      00433  0600 00 0 60275         STZ     ARGLST+6
      00434  0074 00 4 00021         TSX     $MAPLIN,4
                              *
                              *      INITIALIZE USER'S UFD FILE FOR READING
                              *
      00435 -0500 00 0 00046         CAL     EMPTSW
      00436  0100 00 0 00441         TZE     *+3
      00437  0600 00 0 00046         STZ     EMPTSW
      00440  0020 00 0 01012         TRA     DU111
      00441  0074 00 4 00022         TSX     $IENUFD,4     INITIATE READING FOR ENTUFD ROUTINE
      00442  0020 00 0 01265         TRA     NXR           TROUBLE WITH READING, SKIP TO FIX UP
                              *
                              *  .  .  .  .  .  .  .  .  .  .  .  .  .  .  .  .  .  .  .
                              *      START DUMP USER FILE LOOP
                              *  .  .  .  .  .  .  .  .  .  .  .  .  .  .  .  .  .  .  .
                              *
      00443  0074 00 4 00023  NXFILE TSX     $ENTUFD,4     GET UFD ENTRY FOR NEXT FILE IN UFDENT
      00444  0020 00 0 01265         TRA     NXR           READING TROUBLE IN OUR COPY OF UFD
      00445 -0500 00 0 62741         CAL     UFDENT
      00446 -0520 00 0 62742         NZT     UFDENT+1
      00447  0100 00 0 01007         TZE     NXQ           IGNORE UFD ENTRY IF ALL ZEROS
      00450 -0340 00 0 00032         LAS     UFDNAM
      00451  0020 00 0 00460         TRA     NXFLA         O.K. IF NOT UFD FILE
      00452  0020 00 0 00454         TRA     *+2
      00453  0020 00 0 00460         TRA     NXFLA         OK NOT UFD FILE
      00454 -0500 00 0 62742         CAL     UFDENT+1
      00455 -0340 00 0 00033         LAS     UFDNAM+1
      00456  0020 00 0 00460         TRA     NXFLA         OK NOT UFD FILE
      00457  0020 00 0 01007         TRA     NXQ           DO NOT DUMP IF UFD FILE
                              *
                              * CHECK THAT FILE HAS A TIME T SUCH THAT (TLD .LE. T .L. TND),
                              *  ALSO THAT IT IS ON DISK OR DRUM, AND IS NOT TEMPORARY.
                              *   (IF WRITE-ONLY, TEMPORARILY CHANGE ITS MODE.)
                              *
      00460  0520 00 0 00073  NXFLA  ZET     ALLSW
      00461  0020 00 0 00476         TRA     NXFLAA        SKIP TIME CRITERIA IF SYSTEMFILE DUMP
1            SUBROUTINE TO DUMP ONE USER'S FILES....M.J.BAILEY,11/30/64                          PAGE 11

      00462 -0500 00 0 62743         CAL     UFDENT+2      TIME LAST MODIFIED
      00463 -0520 00 0 60266         NZT     CDSW
      00464  0020 00 0 00467         TRA     *+3           IF INCR. DUMP T =TIME LAST MODIFIED
      00465 -0500 00 0 62744         CAL     UFDENT+3      IF COMPLETE DUMP T = TIME LAST USED
      00466 -0320 00 0 01356         ANA     =O777777000000
      00467  0602 00 0 00035         SLW     TEMP
      00470  0500 00 0 00035         CLA     TEMP      GET DATE/TIME FILE LAST MODIFIED OR USED, T
      00471  0402 00 0 73353         SUB     TND           COMPARE WITH DATE/TIME OF THIS DUMP, TND
      00472  0120 00 0 01007         TPL     NXQ           T .GE. TND, DON'T DUMP, GO FOR NEXT FILE
      00473  0500 00 0 00035         CLA     TEMP      GET T AGAIN
      00474  0402 00 0 62737         SUB     TLD           COMPARE WITH DATE/TIME OF USER'S LAST DUMP
      00475 -0120 00 0 01007         TMI     NXQ           T .LESS. TLD, DON'T DUMP, GO FOR NEXT FILE
      00476 -0500 00 0 62745  NXFLAA CAL     UFDENT+4      CHECK DEVICE ON WHICH FILE RESIDES
      00477  0771 00 0 00017         ARS     15
      00500 -0320 00 0 01343         ANA     =O7
      00501  0734 00 1 00000         PAX     0,1
      00502 -3 00000 1 00504         TXL     *+2,1,LSDRUM-1
      00503 -3 00001 1 00506         TXL     NXFDMP,1,LSDRUM         SKIP TO DUMP IF FILE ON L.S.DRUM
      00504 -3 00001 1 01007         TXL     NXQ,1,DISK-1  DON'T DUMP IF NOT ON DISK OR L.S. DRUM
      00505  3 00002 1 01007         TXH     NXQ,1,DISK    .
                              *

                                          (AT THIS POINT FURTHER CRITERIA FOR DUMPING MAY BE APPLIED)
                              *

                              *
      00506 -0500 00 0 64510  NXFDMP CAL     MFDENT
      00507  0602 00 0 60267         SLW     ARGLST        SET UP PARAMETERS FOR DUMP TAPE 'MAP' LINE
      00510 -0500 00 0 64511         CAL     MFDENT+1
      00511  0602 00 0 60270         SLW     ARGLST+1
      00512                          MOVE    3,UFDENT,ARGLST+2
      00512  0774 00 1 00003         AXT     3,1                                                              .001
      00513 -0500 00 1 62744         CAL     UFDENT+3,1                                                       .001
      00514  0602 00 1 60274         SLW     ARGLST+2+3,1                                                     .001
      00515  2 00001 1 00513         TIX     *-2,1,1                                                          .001
      00516  0520 00 0 60266         ZET     CDSW
      00517  0020 00 0 00525         TRA     NXFDB         SKIP IF COMPLETE DUMP
      00520 -0500 00 0 62737         CAL     TLD
      00521  0602 00 0 60274         SLW     ARGLST+5
      00522 -0500 00 0 73353         CAL     TND
      00523  0602 00 0 60275         SLW     ARGLST+6
      00524  0020 00 0 00531         TRA     *+5
      00525 -0500 00 0 62744  NXFDB  CAL     UFDENT+3
      00526 -0320 00 0 01356         ANA     =O777777000000
      00527  0602 00 0 60274         SLW     ARGLST+5      DATE LAST MODIFIED
      00530  0600 00 0 60275         STZ     ARGLST+6
                              *
                              *      INITIALIZE FILE TO BE DUMPED FOR READING
                              *
      00531  0074 00 4 00001  NXLB   TSX     TILOCK,4      SET READ INTERLOCK TRAP TRANSFER
      00532  0 00000 0 01005         PZE     NXPA          (FORGET THIS FILE IF INTERLOCKED)
      00533  0621 00 0 00774         STA     NXPD          SAVE PREVIOUS INTERLOCK TRANSFER ADDRESS
      00534  0621 00 0 01006         STA     NXPE
      00535  0074 00 4 00015         TSX     $GDSIG,4      GET KEYS, SET SWITCHES
      00536 -0500 00 0 00034         CAL     R
      00537  0560 00 0 62745         LDQ     UFDENT+4
1            SUBROUTINE TO DUMP ONE USER'S FILES....M.J.BAILEY,11/30/64                          PAGE 12

      00540 -0773 00 0 00007         RQL     7
      00541  0162 00 0 00543         TQP     *+2
      00542 -0500 00 0 01355         CAL     =HRW
      00543  0602 00 0 00061         SLW     STATUS
      00544  0074 00 4 00000         TSX     ATTACH,4
 TD   00545  3 00000 0 64510         TXH     MFDENT
 TD   00546  3 00000 0 64511         TXH     MFDENT+1
      00547  0074 00 4 00002         TSX     OPEN,4
 TD   00550  3 00000 0 00061         TXH     STATUS
 TD   00551  3 00000 0 62741         TXH     UFDENT
 TD   00552  3 00000 0 62742         TXH     UFDENT+1
 TD   00553  3 00000 0 01340         TXH     =0
 TD   00554  3 00000 0 01340         TXH     =0
 TD   00555  3 00000 0 01145         TXH     ERRG
      00556  0074 00 4 00003         TSX     BUFFER,4
 TD   00557  3 00000 0 62741         TXH     UFDENT
 TD   00560  3 00000 0 62742         TXH     UFDENT+1
      00561  2 00051 0 62750         TIX     IOBUF2,,LBUF2
      00562  0074 00 4 00012         TSX     FSTATE,4
 TD   00563  3 00000 0 62741         TXH     UFDENT
 TD   00564  3 00000 0 62742         TXH     UFDENT+1
      00565  3 00010 0 00103         TXH     A,,8          IN A
      00566 -0500 00 0 00103         CAL     A             'LCOUNT'=A
      00567  0602 00 0 62746         SLW     UFDENT+5
      00570  0602 00 0 00054         SLW     LCOUNT
      00571  0500 00 0 01341         CLA     =1
      00572  0601 00 0 00053         STO     NORECS
      00573  0500 00 0 00573         CLA     *
      00574  0601 00 0 62733         STO     FEOF          ZERO FEOF INDICATES EOF IN THIS FILE
      00575                          CLEAR   TPBUF,TBSIZ   CLEAR DUMP TAPE BUFFER
      00575  0774 00 1 03300         AXT     TBSIZ,1                                                          .001
      00576  0600 00 1 73353         STZ     TPBUF+TBSIZ,1                                                    .001
      00577  2 00001 1 00576         TIX     *-1,1,1                                                          .001
                              *
                              *      PREPARE DUMP TAPE PREAMBLE FOR THIS FILE
                              *
      00600  0760 00 0 00166         SWT     6             TEST FOR PRINT OF FILE NAME
      00601  0020 00 0 00604         TRA     *+3           NO PRINT, SKIP
      00602  0074 00 4 00010         TSX     WRFLX,4       PRINT IT
      00603  0 00002 0 62741         PZE     UFDENT,,2     ..
      00604                          MOVE    3,MFDENT,TPBUF  PREPARE 11 WORDS OF DUMP TAPE PREAMBLE
      00604  0774 00 1 00003         AXT     3,1                                                              .001
      00605 -0500 00 1 64513         CAL     MFDENT+3,1                                                       .001
      00606  0602 00 1 70056         SLW     TPBUF+3,1                                                        .001
      00607  2 00001 1 00605         TIX     *-2,1,1                                                          .001
      00610                          MOVE    3,MFDENT,TPBUF2  SAME FOR OTHER BUFFER
      00610  0774 00 1 00003         AXT     3,1                                                              .001
      00611 -0500 00 1 64513         CAL     MFDENT+3,1                                                       .001
      00612  0602 00 1 64556         SLW     TPBUF2+3,1                                                       .001
      00613  2 00001 1 00611         TIX     *-2,1,1                                                          .001
      00614 -0500 00 0 62737         CAL     TLD           DUMPED COPY OF THIS FILE, CONSISTING
      00615  0602 00 0 70056         SLW     TPBUF+3       OF 1ST 3 WORDS OF MFD ENTRY IN WORDS 1-3
      00616  0602 00 0 64556         SLW     TPBUF2+3
      00617 -0500 00 0 73353         CAL     TND           AND TLD IN WORD 4,
      00620  0602 00 0 70057         SLW     TPBUF+4       TND IN WORD 5,
      00621  0602 00 0 64557         SLW     TPBUF2+4
1            SUBROUTINE TO DUMP ONE USER'S FILES....M.J.BAILEY,11/30/64                          PAGE 13

      00622                          MOVE    6,UFDENT,TPBUF+5   AND UFD ENTRY IN WORDS 6-11.
      00622  0774 00 1 00006         AXT     6,1                                                              .001
      00623 -0500 00 1 62747         CAL     UFDENT+6,1                                                       .001
      00624  0602 00 1 70066         SLW     TPBUF+5+6,1                                                      .001
      00625  2 00001 1 00623         TIX     *-2,1,1                                                          .001
      00626                          MOVE    6,UFDENT,TPBUF2+5
      00626  0774 00 1 00006         AXT     6,1                                                              .001
      00627 -0500 00 1 62747         CAL     UFDENT+6,1                                                       .001
      00630  0602 00 1 64566         SLW     TPBUF2+5+6,1                                                     .001
      00631  2 00001 1 00627         TIX     *-2,1,1                                                          .001
                              *
                              *      FIND NO. OF FULL LENGTH RECORDS (NFLR) AND NO. OF
                              *      WORDS TO BE WRITTEN IN LAST LOGICAL RECORD (NLAST)
                              *      OF THIS NEXT FILE.
                              *
      00632                          LOGREC  UFDENT
      00632  0500 00 0 00047         CLA     LTPBF                                                            .001
      00633  0402 00 0 01344         SUB     =12                                                              .001
      00634  0601 00 0 00035         STO     TEMP                                                             .001
      00635 -0500 00 0 62745         CAL     UFDENT+4                                                         .001
      00636 -0320 00 0 01346         ANA     =O77777                                                          .001
      00637  0601 00 0 00052         STO     RCOUNT                                                           .001
      00640  0074 00 4 00016         TSX     $NLREC,4                                                         .001
 TD   00641  3 00000 0 00053         TXH     NORECS                                                           .001
 TD   00642  3 00000 0 00052         TXH     RCOUNT                                                           .001
 TD   00643  3 00000 0 00054         TXH     LCOUNT                                                           .001
 TD   00644  3 00000 0 00035         TXH     TEMP                                                             .001
 TD   00645  3 00000 0 01344         TXH     =12                                                              .001
 TD   00646  3 00000 0 00057         TXH     PHYSRC                                                           .001
 TD   00647  3 00000 0 00055         TXH     NFLR                                                             .001
 TD   00650  3 00000 0 00056         TXH     NLAST                                                            .001
      00651  0534 00 2 00055         LXA     NFLR,2
      00652 -0634 00 2 00727         SXD     NXN,2         NO. OF FULL LENGTH RECS.
      00653  0520 00 0 00055         ZET     NFLR
      00654  0020 00 0 00663         TRA     *+7
      00655  0520 00 0 00056         ZET     NLAST
      00656  0020 00 0 00664         TRA     *+6
      00657  0774 00 2 00001         AXT     1,2
      00660 -0500 00 0 00057         CAL     PHYSRC
      00661  0602 00 0 00056         SLW     NLAST
      00662  0020 00 0 00665         TRA     *+3
      00663  0520 00 0 00056         ZET     NLAST
      00664  1 00001 2 00665         TXI     *+1,2,1       ADD 1 IF A PARTIAL REC. AT END
      00665  0634 00 2 70066         SXA     TPBUF+11,2    NO. OF LOGICAL RECS. TO 12TH PREAMBLE WORD
      00666  0634 00 2 64566         SXA     TPBUF2+11,2
      00667  0774 00 2 00001         AXT     1,2           1ST RECORD NO. IS 1
      00670  0634 00 2 00102         SXA     FLFL,2        INITIALIZE BUFFER SWITCH
      00671 -0520 00 0 00055         NZT     NFLR
      00672  0020 00 0 00732         TRA     NXP           SKIP IF NO FULL RECORDS
                              *
                              *  .  .  .  .  .  .  .  .  .  .  .  .  .  .  .  .  .  .  .  .
                              *      READ AND DUMP THIS USER FILE
                              *  .  .  .  .  .  .  .  .  .  .  .  .  .  .  .  .  .  .  .  .
                              *
      00673  0534 00 1 00102  NXM    LXA     FLFL,1        SWITCH TO ALTERNATE BUFFER ADDRESS
      00674  1 00001 1 00675         TXI     *+1,1,1
1            SUBROUTINE TO DUMP ONE USER'S FILES....M.J.BAILEY,11/30/64                          PAGE 14

      00675 -3 00001 1 00677         TXL     *+2,1,1
      00676  0774 00 1 00000         AXT     0,1
      00677  0634 00 1 00102         SXA     FLFL,1
      00700  0500 00 1 00075         CLA     TBA1,1
      00701  0621 00 0 00723         STA     NXM4
      00702  0500 00 1 00077         CLA     TBA2,1
      00703  0621 00 0 00710         STA     NXM1
      00704  0400 00 0 01341         ADD     =1
      00705  0621 00 0 00715         STA     NXM3
      00706  0500 00 1 00101         CLA     TBA3,1
      00707  0621 00 0 00712         STA     NXM2
      00710 -0634 00 2 00000  NXM1   SXD     **,2          SET LOGICAL REC. NO. IN PREAMBLE
      00711  0774 00 1 03264         AXT     TBSIZ-12,1    CLEAR BULK OF BUFFER
      00712  0600 00 1 00000  NXM2   STZ     **,1
      00713  2 00001 1 00712         TIX     NXM2,1,1
      00714  0074 00 4 00024         TSX     $RDF,4        FILL UP BUFFER FROM THIS FILE
 TD   00715  3 00000 0 00000  NXM3   TXH     **
 TD   00716  3 00000 0 00035         TXH     TEMP
      00717  0020 00 0 00764         TRA     NXPB          ERROR RETURN, MOVE TO NEXT FILE
      00720 -0520 00 0 62733         NZT     FEOF
      00721  0020 00 0 01166         TRA     ERRL          EOF IN WRONG PLACE
      00722  0074 00 4 00020  NXMA   TSX     $WRNF,4       WRITE OUT BUFFER FULL OF THIS FILE
 TD   00723  3 00000 0 00000  NXM4   TXH     **            ( A LOGICAL REC.) ONTO DUMP TAPE
 TD   00724  3 00000 0 00047         TXH     LTPBF
      00725  0074 00 4 00015         TSX     $GDSIG,4
      00726  1 00001 2 00727         TXI     *+1,2,1
      00727 -3 00000 2 00673   NXN   TXL     NXM,2,**      GO BACK FOR NEXT RECORD/BUFFER-FULL,IF ANY
                              *
      00730 -0520 00 0 00056         NZT     NLAST         NOW WRITE PARTIAL LOGICAL RECORD
      00731  0020 00 0 00763         TRA     NXPBG         SKIP IF NO PARTIAL LOGICAL RECORD
      00732  0534 00 1 00102  NXP    LXA     FLFL,1        SWITCH TO ALTERNATE BUFFER ADDRESS
      00733  1 00001 1 00734         TXI     *+1,1,1
      00734 -3 00001 1 00736         TXL     *+2,1,1
      00735  0774 00 1 00000         AXT     0,1
      00736  0500 00 1 00075         CLA     TBA1,1
      00737  0621 00 0 00761         STA     NXP4
      00740  0500 00 1 00077         CLA     TBA2,1
      00741  0621 00 0 00746         STA     NXP1
      00742  0400 00 0 01341         ADD     =1
      00743  0621 00 0 00753         STA     NXP3
      00744  0500 00 1 00101         CLA     TBA3,1
      00745  0621 00 0 00750         STA     NXP2
      00746 -0634 00 2 00000  NXP1   SXD     **,2          SET LOGICAL REC. NO. IN PREAMBLE
      00747  0774 00 1 03264         AXT     TBSIZ-12,1    CLEAR BULK OF BUFFER
      00750  0600 00 1 00000  NXP2   STZ     **,1
      00751  2 00001 1 00750         TIX     NXP2,1,1
      00752  0074 00 4 00024         TSX     $RDF,4        READ LAST PART OF FILE
 TD   00753  3 00000 0 00000  NXP3   TXH     **
 TD   00754  3 00000 0 00035         TXH     TEMP
      00755  0020 00 0 00764         TRA     NXPB          ERROR RETURN, MOVE TO NEXT FILE
      00756  0520 00 0 62733         ZET     FEOF
      00757  0020 00 0 01252         TRA     ERRM          EOF NOT WHERE IT SHOULD BE, ERROR
      00760  0074 00 4 00020  NXNA   TSX     $WRNF,4       WRITE OUT REMAINDER OF FILE
 TD   00761  3 00000 0 00000  NXP4   TXH     **
 TD   00762  3 00000 0 00056         TXH     NLAST
                              *
1            SUBROUTINE TO DUMP ONE USER'S FILES....M.J.BAILEY,11/30/64                          PAGE 15

                              *      CLOSE THIS FILE, RECORD ITS BEING DUMPED,RESTORE ITS MODE
                              *
      00763  0074 00 4 00021  NXPBG  TSX     $MAPLIN,4     WRITE LINE ON DUMPTP 'MAP' FOR THIS FILE
      00764  0074 00 4 00000  NXPB   TSX     ATTACH,4      YES, CLOSE THIS FILE,
 TD   00765  3 00000 0 64510         TXH     MFDENT        WHICH IS NOW COMPLETELY (OR PARTLY) DUMPED
 TD   00766  3 00000 0 64511         TXH     MFDENT+1      .
      00767  0074 00 4 00005         TSX     CLOSE,4       .
 TD   00770  3 00000 0 62741         TXH     UFDENT        .
 TD   00771  3 00000 0 62742         TXH     UFDENT+1      .
      00772  0600 00 0 62731         STZ     DMPSW         INDICATE SOMETHING GOT DUMPED
      00773  0074 00 4 00001         TSX     TILOCK,4      ENSURE READ-INTERLOCK TRAP ADDRESS RESTORED
      00774  0 00000 0 00000  NXPD   PZE     **
      00775  0074 00 4 00013         TSX     SETFIL,4      RESTORE USERS FILE STATUS
 TD   00776  3 00000 0 62741         TXH     UFDENT
 TD   00777  3 00000 0 62742         TXH     UFDENT+1
 TD   01000  3 00000 0 00111         TXH     A+6
 TD   01001  3 00000 0 00112         TXH     A+7
 TD   01002  3 00000 0 00104         TXH     A+1
 TD   01003  3 00000 0 00106         TXH     A+3
      01004  0020 00 0 01007         TRA     NXQ
      01005  0074 00 4 00001  NXPA   TSX     TILOCK,4
      01006  0 00000 0 00000  NXPE   PZE     **
                              *
                              *      END OF DUMP FILE LOOP
                              *
      01007  0074 00 4 00015  NXQ    TSX     $GDSIG,4
      01010  0520 00 0 62747         ZET     UFDEOF        WAS THIS LAST UFD ENTRY (AS DETECTED
                                                            BY ENTUFD), I.E. WAS THIS LAST FILE
      01011  0020 00 0 00443         TRA     NXFILE        NO, GO BACK TO DUMP NEXT FILE
      01012  0074 00 4 00005  DU111  TSX     CLOSE,4       YES, CLOSE OUR COPY OF UFD
 TD   01013  3 00000 0 00032         TXH     UFDNAM
 TD   01014  3 00000 0 00033         TXH     UFDNAM+1
 TD   01015  3 00000 0 01016         TXH     *+1
                              *
      01016  0774 00 1 00000   DU1   AXT     **,1
      01017  0774 00 2 00000    DU2  AXT     **,2
      01020  0774 00 4 00000    DU4  AXT     **,4
      01021  0020 00 4 00003         TRA     3,4
                              *
                              *  .  .  .  .  .  .  .  .  .  .  .  .  .  .  .  .  .  .  .  .
                              *      ERROR FIX-UP SECTION FOR CREATED-FILE DUMPER
                              *  .  .  .  .  .  .  .  .  .  .  .  .  .  .  .  .  .  .  .  .
                              *
      01022                    ERRA  BGNERM  =HA           TROUBLE OPENING UFD FILE
      01022  0634 00 4 01025         SXA     *+3,4                                                            .001
      01023  0074 00 4 00025         TSX     $BERM,4                                                          .001
      01024  0 00000 0 01351         PZE     =HA                                                              .001
      01025  0774 00 4 00000         AXT     **,4                                                             .001
      01026  0074 00 4 00026         TSX     $CKCODE,4
      01027  464725456060            BCI     1,OPEN
      01030  0 00000 0 00014         PZE     ERCODA
      01031  0 00000 0 01060         PZE     ERRA1         (TRANSFER IF NOT THE ERROR WE ARE SEEKING)
      01032                          PRLINE  ( U.F.D. FILE NOT FOUND FOR FOLLOWING USER,     ),8,0
      01032                          MOVE    8,..003,PBF                                                      .001
      01032  0774 00 1 00010         AXT     8,1                                                              .002
      01033 -0500 00 1 01304         CAL     ..003+8,1                                                        .002
1            SUBROUTINE TO DUMP ONE USER'S FILES....M.J.BAILEY,11/30/64                          PAGE 16

      01034  0602 00 1 64536         SLW     PBF+8,1                                                          .002
      01035  2 00001 1 01033         TIX     *-2,1,1                                                          .002
      01036                          PRBUFF  PBF,8+0                                                          .001
      01036  0634 00 4 01041         SXA     *+3,4                                                            .002
      01037  0074 00 4 00010         TSX     WRFLX,4                                                          .002
      01040  0 00010 0 64526                 PBF,,8+0                                                         .002
      01041  0774 00 4 00000         AXT     **,4                                                             .002
      01042                          CLEAR   PBF,8+0                                                          .002
      01042  0774 00 1 00010         AXT     8+0,1                                                            .003
      01043  0600 00 1 64536         STZ     PBF+8+0,1                                                        .003
      01044  2 00001 1 01043         TIX     *-1,1,1                                                          .003
                                     RMT                                                                      .001
                              ..003  BCI     8, U.F.D. FILE NOT FOUND FOR FOLLOWING USER,                     .001
                                     RMT                                                                      .001
      01045                          PRLINE  ( WHO IS IN M.F.D. -     ),4,0
      01045                          MOVE    4,..006,PBF                                                      .001
      01045  0774 00 1 00004         AXT     4,1                                                              .002
      01046 -0500 00 1 01310         CAL     ..006+4,1                                                        .002
      01047  0602 00 1 64532         SLW     PBF+4,1                                                          .002
      01050  2 00001 1 01046         TIX     *-2,1,1                                                          .002
      01051                          PRBUFF  PBF,4+0                                                          .001
      01051  0634 00 4 01054         SXA     *+3,4                                                            .002
      01052  0074 00 4 00010         TSX     WRFLX,4                                                          .002
      01053  0 00004 0 64526                 PBF,,4+0                                                         .002
      01054  0774 00 4 00000         AXT     **,4                                                             .002
      01055                          CLEAR   PBF,4+0                                                          .002
      01055  0774 00 1 00004         AXT     4+0,1                                                            .003
      01056  0600 00 1 64532         STZ     PBF+4+0,1                                                        .003
      01057  2 00001 1 01056         TIX     *-1,1,1                                                          .003
                                     RMT                                                                      .001
                              ..006  BCI     4, WHO IS IN M.F.D. -                                            .001
                                     RMT                                                                      .001
      01060                    ERRA1 PRLINE  (                        PROBLEM NO. ),6,1,MFDENT
      01060                          MOVE    6,..008,PBF                                                      .001
      01060  0774 00 1 00006         AXT     6,1                                                              .002
      01061 -0500 00 1 01316         CAL     ..008+6,1                                                        .002
      01062  0602 00 1 64534         SLW     PBF+6,1                                                          .002
      01063  2 00001 1 01061         TIX     *-2,1,1                                                          .002
      01064 -0500 00 0 64510         CAL     MFDENT                                                           .001
      01065  0602 00 0 64534         SLW     PBF+6                                                            .001
      01066                          PRBUFF  PBF,6+1                                                          .001
      01066  0634 00 4 01071         SXA     *+3,4                                                            .002
      01067  0074 00 4 00010         TSX     WRFLX,4                                                          .002
      01070  0 00007 0 64526                 PBF,,6+1                                                         .002
      01071  0774 00 4 00000         AXT     **,4                                                             .002
      01072                          CLEAR   PBF,6+1                                                          .002
      01072  0774 00 1 00007         AXT     6+1,1                                                            .003
      01073  0600 00 1 64535         STZ     PBF+6+1,1                                                        .003
      01074  2 00001 1 01073         TIX     *-1,1,1                                                          .003
                                     RMT                                                                      .001
                              ..008  BCI     6,                        PROBLEM NO.                            .001
                                     RMT                                                                      .001
      01075                          PRLINE  (                     PROGRAMMER NO. ),6,1,MFDENT+1
      01075                          MOVE    6,..010,PBF                                                      .001
      01075  0774 00 1 00006         AXT     6,1                                                              .002
      01076 -0500 00 1 01324         CAL     ..010+6,1                                                        .002
1            SUBROUTINE TO DUMP ONE USER'S FILES....M.J.BAILEY,11/30/64                          PAGE 17

      01077  0602 00 1 64534         SLW     PBF+6,1                                                          .002
      01100  2 00001 1 01076         TIX     *-2,1,1                                                          .002
      01101 -0500 00 0 64511         CAL     MFDENT+1                                                         .001
      01102  0602 00 0 64534         SLW     PBF+6                                                            .001
      01103                          PRBUFF  PBF,6+1                                                          .001
      01103  0634 00 4 01106         SXA     *+3,4                                                            .002
      01104  0074 00 4 00010         TSX     WRFLX,4                                                          .002
      01105  0 00007 0 64526                 PBF,,6+1                                                         .002
      01106  0774 00 4 00000         AXT     **,4                                                             .002
      01107                          CLEAR   PBF,6+1                                                          .002
      01107  0774 00 1 00007         AXT     6+1,1                                                            .003
      01110  0600 00 1 64535         STZ     PBF+6+1,1                                                        .003
      01111  2 00001 1 01110         TIX     *-1,1,1                                                          .003
                                     RMT                                                                      .001
                              ..010  BCI     6,                     PROGRAMMER NO.                            .001
                                     RMT                                                                      .001
      01112                          PRLINE  ( ABANDONING THIS USER IN THE CURRENT DUMP CYCLE.),8,0
      01112                          MOVE    8,..013,PBF                                                      .001
      01112  0774 00 1 00010         AXT     8,1                                                              .002
      01113 -0500 00 1 01334         CAL     ..013+8,1                                                        .002
      01114  0602 00 1 64536         SLW     PBF+8,1                                                          .002
      01115  2 00001 1 01113         TIX     *-2,1,1                                                          .002
      01116                          PRBUFF  PBF,8+0                                                          .001
      01116  0634 00 4 01121         SXA     *+3,4                                                            .002
      01117  0074 00 4 00010         TSX     WRFLX,4                                                          .002
      01120  0 00010 0 64526                 PBF,,8+0                                                         .002
      01121  0774 00 4 00000         AXT     **,4                                                             .002
      01122                          CLEAR   PBF,8+0                                                          .002
      01122  0774 00 1 00010         AXT     8+0,1                                                            .003
      01123  0600 00 1 64536         STZ     PBF+8+0,1                                                        .003
      01124  2 00001 1 01123         TIX     *-1,1,1                                                          .003
                                     RMT                                                                      .001
                              ..013  BCI     8, ABANDONING THIS USER IN THE CURRENT DUMP CYCLE.               .001
                                     RMT                                                                      .001
      01125                    ERRA2 MOVE    5,ERSTAT,PBF
      01125  0774 00 1 00005         AXT     5,1                                                              .001
      01126 -0500 00 1 00046         CAL     ERSTAT+5,1                                                       .001
      01127  0602 00 1 64533         SLW     PBF+5,1                                                          .001
      01130  2 00001 1 01126         TIX     *-2,1,1                                                          .001
      01131                          PRBUFF  PBF,5
      01131  0634 00 4 01134         SXA     *+3,4                                                            .001
      01132  0074 00 4 00010         TSX     WRFLX,4                                                          .001
      01133  0 00005 0 64526                 PBF,,5                                                           .001
      01134  0774 00 4 00000         AXT     **,4                                                             .001
      01135                          CLEAR   PBF,5                                                            .001
      01135  0774 00 1 00005         AXT     5,1                                                              .002
      01136  0600 00 1 64533         STZ     PBF+5,1                                                          .002
      01137  2 00001 1 01136         TIX     *-1,1,1                                                          .002
      01140  0020 00 0 01265         TRA     NXR           GO TO ERROR RETURN
      01141                   ERRA3  ERTN    NXR           PRINT COMMON MESSAGE THEN GO TO NXX
      01141  0634 00 4 01143         SXA     *+2,4                                                            .001
      01142  0074 00 4 00027         TSX     $ERREND,4                                                        .001
      01143  0774 00 4 00000         AXT     **,4                                                             .001
      01144  0020 00 0 01265         TRA     NXR                                                              .001
1            SUBROUTINE TO DUMP ONE USER'S FILES....M.J.BAILEY,11/30/64                          PAGE 18

                              *

                              *
      01145  0074 00 4 00026  ERRG   TSX     $CKCODE,4
      01146  464725456060            BCI     1,OPEN
      01147  0 00000 0 01345         PZE     =O15
      01150  0 00000 0 01005         PZE     NXPA
      01151  0074 00 4 00026         TSX     $CKCODE,4     ERROR OPENING FILE TO BE DUMPED
      01152  464725456060            BCI     1,OPEN
      01153  0 00000 0 00014         PZE     ERCODA
      01154  0 00000 0 01156         PZE     ERRG1
      01155  0020 00 0 01005         TRA     NXPA          IF USER FILE NOT FOUND, MOVE TO NEXT
      01156                    ERRG1 BGNERM  =HG           SOME OTHER ERROR
      01156  0634 00 4 01161         SXA     *+3,4                                                            .001
      01157  0074 00 4 00025         TSX     $BERM,4                                                          .001
      01160  0 00000 0 01352         PZE     =HG                                                              .001
      01161  0774 00 4 00000         AXT     **,4                                                             .001
      01162                          ERTN    NXPA          PRINT COMMON MESSAGE, MOVE TO NEXT FILE
      01162  0634 00 4 01164         SXA     *+2,4                                                            .001
      01163  0074 00 4 00027         TSX     $ERREND,4                                                        .001
      01164  0774 00 4 00000         AXT     **,4                                                             .001
      01165  0020 00 0 01005         TRA     NXPA                                                             .001

                              *
      01166  0500 00 0 64510  ERRL   CLA     MFDENT
      01167  0402 00 0 00060         SUB     MFDNAM
      01170 -0100 00 0 01174         TNZ     ERRLA
      01171  0500 00 0 64511         CLA     MFDENT+1
      01172  0402 00 0 00033         SUB     UFDNAM+1
      01173  0100 00 0 00722         TZE     NXMA          NO ERROR IF FILE IS MFD FILE
      01174                   ERRLA  BGNERM  =HL
      01174  0634 00 4 01177         SXA     *+3,4                                                            .001
      01175  0074 00 4 00025         TSX     $BERM,4                                                          .001
      01176  0 00000 0 01353         PZE     =HL                                                              .001
      01177  0774 00 4 00000         AXT     **,4                                                             .001
      01200                   ERRL1  PRLINE  (IN FILE -   ),2,2,UFDENT,UFDENT+1
      01200                          MOVE    2,..014,PBF                                                      .001
      01200  0774 00 1 00002         AXT     2,1                                                              .002
      01201 -0500 00 1 01336         CAL     ..014+2,1                                                        .002
      01202  0602 00 1 64530         SLW     PBF+2,1                                                          .002
      01203  2 00001 1 01201         TIX     *-2,1,1                                                          .002
      01204 -0500 00 0 62741         CAL     UFDENT                                                           .001
      01205  0602 00 0 64530         SLW     PBF+2                                                            .001
      01206 -0500 00 0 62742         CAL     UFDENT+1                                                         .001
      01207  0602 00 0 64531         SLW     PBF+2+1                                                          .001
      01210                          PRBUFF  PBF,2+2                                                          .001
      01210  0634 00 4 01213         SXA     *+3,4                                                            .002
      01211  0074 00 4 00010         TSX     WRFLX,4                                                          .002
      01212  0 00004 0 64526                 PBF,,2+2                                                         .002
      01213  0774 00 4 00000         AXT     **,4                                                             .002
      01214                          CLEAR   PBF,2+2                                                          .002
      01214  0774 00 1 00004         AXT     2+2,1                                                            .003
      01215  0600 00 1 64532         STZ     PBF+2+2,1                                                        .003
      01216  2 00001 1 01215         TIX     *-1,1,1                                                          .003
                                     RMT                                                                      .001
                              ..014  BCI     2,IN FILE -                                                      .001
1            SUBROUTINE TO DUMP ONE USER'S FILES....M.J.BAILEY,11/30/64                          PAGE 19

                                     RMT                                                                      .001
      01217                          PRLINE  (OF USER -   ),2,2,MFDENT,MFDENT+1
      01217                          MOVE    2,..015,PBF                                                      .001
      01217  0774 00 1 00002         AXT     2,1                                                              .002
      01220 -0500 00 1 01340         CAL     ..015+2,1                                                        .002
      01221  0602 00 1 64530         SLW     PBF+2,1                                                          .002
      01222  2 00001 1 01220         TIX     *-2,1,1                                                          .002
      01223 -0500 00 0 64510         CAL     MFDENT                                                           .001
      01224  0602 00 0 64530         SLW     PBF+2                                                            .001
      01225 -0500 00 0 64511         CAL     MFDENT+1                                                         .001
      01226  0602 00 0 64531         SLW     PBF+2+1                                                          .001
      01227                          PRBUFF  PBF,2+2                                                          .001
      01227  0634 00 4 01232         SXA     *+3,4                                                            .002
      01230  0074 00 4 00010         TSX     WRFLX,4                                                          .002
      01231  0 00004 0 64526                 PBF,,2+2                                                         .002
      01232  0774 00 4 00000         AXT     **,4                                                             .002
      01233                          CLEAR   PBF,2+2                                                          .002
      01233  0774 00 1 00004         AXT     2+2,1                                                            .003
      01234  0600 00 1 64532         STZ     PBF+2+2,1                                                        .003
      01235  2 00001 1 01234         TIX     *-1,1,1                                                          .003
                                     RMT                                                                      .001
                              ..015  BCI     2,OF USER -                                                      .001
                                     RMT                                                                      .001
      01236                          MOVE    5,ERSTAT,PBF
      01236  0774 00 1 00005         AXT     5,1                                                              .001
      01237 -0500 00 1 00046         CAL     ERSTAT+5,1                                                       .001
      01240  0602 00 1 64533         SLW     PBF+5,1                                                          .001
      01241  2 00001 1 01237         TIX     *-2,1,1                                                          .001
      01242                          PRBUFF  PBF,5
      01242  0634 00 4 01245         SXA     *+3,4                                                            .001
      01243  0074 00 4 00010         TSX     WRFLX,4                                                          .001
      01244  0 00005 0 64526                 PBF,,5                                                           .001
      01245  0774 00 4 00000         AXT     **,4                                                             .001
      01246                          CLEAR   PBF,5                                                            .001
      01246  0774 00 1 00005         AXT     5,1                                                              .002
      01247  0600 00 1 64533         STZ     PBF+5,1                                                          .002
      01250  2 00001 1 01247         TIX     *-1,1,1                                                          .002
      01251  0020 00 0 00764         TRA     NXPB
                              *
      01252  0500 00 0 64510  ERRM   CLA     MFDENT
      01253  0402 00 0 00060         SUB     MFDNAM
      01254 -0100 00 0 01260         TNZ     ERRMA
      01255  0500 00 0 64511         CLA     MFDENT+1
      01256  0402 00 0 00033         SUB     UFDNAM+1
      01257  0100 00 0 00760         TZE     NXNA          NO ERROR IF FILE IS MFD FILE
      01260                   ERRMA  BGNERM  =HM
      01260  0634 00 4 01263         SXA     *+3,4                                                            .001
      01261  0074 00 4 00025         TSX     $BERM,4                                                          .001
      01262  0 00000 0 01354         PZE     =HM                                                              .001
      01263  0774 00 4 00000         AXT     **,4                                                             .001
      01264  0020 00 0 01200         TRA     ERRL1
                              *
      01265  0074 00 4 00005   NXR   TSX     CLOSE,4       CLOSE U.F.D. FILE
 TD   01266  3 00000 0 00032         TXH     UFDNAM
 TD   01267  3 00000 0 00033         TXH     UFDNAM+1
      01270  0534 00 4 01020         LXA     DU4,4         SET UP RETURN TO (2,4), ERROR RETURN
1            SUBROUTINE TO DUMP ONE USER'S FILES....M.J.BAILEY,11/30/64                          PAGE 20

      01271  1 00001 4 01272         TXI     *+1,4,1
      01272  0634 00 4 01020         SXA     DU4,4
      01273  0020 00 0 01016         TRA     DU1           GO EXIT
                              *
                                     INSERT  DCMEQB
                              *
                              *  .  .  .  .  .  .  .  .  .  .  .  .  .  .  .  .  .  .
                              *    COMMON AND EQUIVALENCE FOR GENERAL DUMP PROGRAM
                              *  .  .  .  .  .  .  .  .  .  .  .  .  .  .  .  .  .  .
                              *
                      075032  DEMKEY BOOL    75032         CORE A LOCATION FOR DAEMON'S KEY SETTING
                      075105  SYSTIM BOOL    75105         CORE A LOCATION FOR SYSTEM  TIME
                      075104  SYSDAT BOOL    75104         CORE A LOCATION FOR SYSTEM INIT. DATE
                      076147  RCODE  BOOL    76147         CORE A LOCATION FOR RESTRICTION CODE VECTOR
                      075040  AUTOND BOOL    75040         CORE A AUTOMATIC LOGOUT INDICATOR
                      075052  NUSERS BOOL    75052         CORE A LOGGED-IN USER COUNT
                      076426  PROBN  BOOL    76426         CORE A PROBNO ARRAY
                      076362  PROGN  BOOL    76362         CORE A PROGNO ARRAY
                      075113  PB     BOOL    75113         CORE A GUARANTEED PERCENTAGE VECTOR BASE
                      000043  N      BOOL    43            CORE A MAX. NO. OF USERS (SIZE OF PROBN)
                              *
                      000017  BASE   BOOL    17            KEY CODE BASE
                      000001  I      BOOL    1             KEY CODE TO START INCREMENTAL DUMP
                      000002  PAUSE  BOOL    2             KEY CODE TO WAIT FOR 1 MIN.
                      000003  C      BOOL    3             KEY CODE TO DO COMPLETE DUMP
                      000004  AK     BOOL    4             KEY CODE FOR IMPENDING AUTOLOGOUT
                      000005  ENFLSH BOOL    5             KEY CODE TO ENTER FLUSH MODE
                      000006  LVFLSH BOOL    6             KEY CODE TO LEAVE FLUSH MODE
                      000007  ENDTAP BOOL    7             KEY CODE TO TERMINATE DUMP TAPE FILE
                      000010  INT    BOOL    10            SIMULATE INTERRUPT
                       00660  RECSIZ EQU     432           TAPE RECORD SIZE
                       00006   NX    EQU     6             MAX. NO. OF SYSTEM FILE OWNERS
                       00030  NCD    EQU     24            MAX. NO. 'DAYS' NON-USE OF CURRENT FILES
                       00014  DINC   EQU     12            NO. DAYS OF 'RECENCY' INCREMENT (C.DUMP)
                       01274  U      EQU     700           MAX. NO. USERS IN MFD USER LIST
                       03300  TBSIZ  EQU     4*RECSIZ      TAPE BUFFER SIZE
                       00007  ERYSIZ EQU     7             I/O SYSTEM ERROR ARRAY SIZE
                       00014  ERCODA EQU     12            'OPEN' ERROR CODE FOR FILE NOT FOUND
                       00016  ERCODB EQU     14            'OPEN' ERROR CODE RQSTD. DEVICE UNAVBLE
                       00660  NW     EQU     432           SIZE OF SECONDARY I/O FILE BUFFERS
                       00001  LSDRUM EQU     1             I/O SYSTEM DEVICE CODE FOR L.S.DRUM
                       00002    DISK EQU     2             I/O SYSTEM DEVICE CODE FOR DISK
                       00003   TAPE  EQU     3             I/O SYSTEM DEVICE CODE FOR TAPE
                       00010  NHOUR  EQU     8             NO. OF HOURS IN A 'DAY'
                       77461  KEYVAL COMMON  1             LAST KEY SETTING READ FROM SUPERVISOR
                       77460  FLSHSW COMMON  1             FLUSH MODE SWITCH
                       77457  ENTPSW COMMON  1             OPERATOR-REQUESTED-END-TAPE INDICATOR
                       77456  NMFDU  COMMON  1             NO. USERS CURRENTLY IN LIST
                       77455  EXEMPT COMMON  2*NX          LIST OF SYSTEM FILE OWNERS
                       77441  NXMPT  COMMON  1             NO. FILE USERS EXEMPT FROM DUMP IN DCYCLE
                       77440  DTLD   COMMON  U             TIME LAST DUMPED FOR EACH USER
                       76144  PROGNO COMMON  U             PROGRAMMER NO. OF EACH USER
                       74650  PROBNO COMMON  U             PROBLEM NO. OF EACH USER
                       73354   FLUSH COMMON  1             NON-ZERO INDICATES FLUSH MODE IS FORCED
                       73353   TND   COMMON  1             TIME OF NEXT DUMP FOR CURRENT USER
                       70053         COMMON  TBSIZ-1       TAPE BUFFER
1            SUBROUTINE TO DUMP ONE USER'S FILES....M.J.BAILEY,11/30/64                          PAGE 21

                       70053  TPBUF  COMMON  1             TAPE BUFFER 1ST WORD
                       64553         COMMON  TBSIZ-1       2ND TAPE BUFFER
                       64553  TPBUF2 COMMON  1             2ND TAPE BUFFER, 1ST WORD
                       64544         COMMON  ERYSIZ-1      ERROR ARRAY
                       64544  ERAY   COMMON  1             ERROR ARRAY 1ST WORD
                       64526         COMMON  13            PRINT BUFFER
                       64526   PBF   COMMON  1             PRINT BUFFER 1ST WORD
                       64510         COMMON  13            MFD ENTRY BUFFER
                       64510  MFDENT COMMON  1             MFD ENTRY BUFFER 1ST WORD
                       63630         COMMON  NW-1          SECONDARY I/0 FILE BUFFER
                       63630   IOBUF COMMON  1             SECONDARY IO BUFFER 1ST WORD
                       62750         COMMON  NW-1          SECONDARY I/O FILE BUFFER
                       62750  IOBUF2 COMMON  1             SECONDARY I/O BUFFER 1ST WORD
                       62747  UFDEOF COMMON  1             ZERO INDICATES EOF IN UFD FILE
                       62741         COMMON  5             PARTIAL UFD ENTRY BUFFER
                       62741  UFDENT COMMON  1             PARTIAL UFD ENTRY BUFFER 1ST WORD
                       62740   MFDC  COMMON  1             NEXT WORD TO BE READ FROM MFD FILE
                       62737   TLD   COMMON  1             TIME LAST DUMP OF USER CURRENTLY DUMPING
                       62736   UFDC  COMMON  1             NEXT UNREAD POS. OF UFDFILE (NORMALLY ZERO)
                       62735  MFDEOF COMMON  1             ZERO INDICATES EOF IN MFD FILE
                       62734   EOFCT COMMON  1             NO. OF WORDS READ BEFORE AN EOF
                       62733   FEOF  COMMON  1             ZERO INDICATES EOF IN A USER FILE
                       62732  EOFCTA COMMON  1             NO. OF WORDS BEFORE AN EOF
                       62731   DMPSW COMMON  1             NON-ZERO INDICATES A FILE HAS BEEN DUMPED
                       62730   DAWN  COMMON  1             TIME OF START OF 'DAY'
                       62727  DMPUSR COMMON  1             PROBLEM NO. OF DUMP/LOAD PACKAGE
                       62726  DMPRGR COMMON  1             PROGRAMMER NO. OF  DITTO.
                       62727  DU     EQU     DMPUSR
                       62726  DP     EQU     DMPRGR
                       62725   MFD1W COMMON  1             NO. OF 1ST GOOD WORD IN MFD AND UFD FILES
                       62723         COMMON  1             2ND PART OF DUMP TAPE FILE (COPY 1) NAME
                       62723  NFN1   COMMON  1             1ST PART OF DUMP TAPE FILE (COPY 1) NAME
                       62721         COMMON  1             2ND PART OF DUMP TAPE FILE (COPY 2) NAME
                       62721   NFN2  COMMON  1             1ST PART OF DUMP TAPE FILE (COPY 2) NAME
                       62720  TNDSW  COMMON  1             INDICATES TIME OF THIS DUMP CURRENT OR NO
                       62040         COMMON  RECSIZ-1      INTERNAL TAPE BUFFER
                       62040   ITB1  COMMON  1                ,,     ,,    ,,  1ST WORD
                       61160         COMMON  RECSIZ-1      INTERNAL TAPE BUFFER
                       61160   ITB2  COMMON  1                ,,     ,,  ,,  1ST WORD
                       61157   DUSK  COMMON  1             TIME OF END OF CURRENT 'DAY'
                       61156   ENDSW COMMON  1             IF 1, NORMAL END-OF-DAY,ELSE OPERATOR ONE
                       60276         COMMON  NW-1          INTERNAL BUFFER FOR 'MAP' FILE
                       60276    IMP  COMMON  1                ,,      ,,    ,,   ,,   ,,  1ST WORD
                       60267         COMMON  6             'MAP' FILE LINE PARAMETER ARRAY
                       60267  ARGLST COMMON  1               ,,   ,,   ,,      ,,      ,,  1ST WORD
                       60266  CDSW   COMMON  1             NON-ZERO DURING COMPLETE DUMP,ELSE ZERO
                       60265  DATE   COMMON  1             DATE THE DUMP NOW IN PROGRESS BEGAN
                       60264  TIME   COMMON  1             TIME DUMP NOW IN PROGRESS BEGAN
                       60263  TCYCLE COMMON  1             'TIME' OF LAST CYCLE ON DUMP TAPE FILE
                       60262  TFOSW  COMMON  1             NON-ZERO IF DUMP TAPE FILE IS OPEN
                       60261  ALOG   COMMON  1             NON-ZERO IF AUTOLOGOUT ON
                       60260  SW1    COMMON  1
                       60257  TCP    COMMON  1
                       60256  TNDSAV COMMON  1
                       60255  ODAWN  COMMON  1             TIME OF START OF PREVIOUS 'DAY'
                       60244         COMMON  8             TAPE LABEL
1            SUBROUTINE TO DUMP ONE USER'S FILES....M.J.BAILEY,11/30/64                          PAGE 22

                       60244  TAPEID COMMON  1             TAPE LABEL 1ST WORD
                       60243  SKELSW COMMON  1
                       60254  REELNO EQU     TAPEID+8
                                     END
                                              REMOTE SEQUENCES
      01274  606433263324     ..003  BCI     8, U.F.D. FILE NOT FOUND FOR FOLLOWING USER,                     .001
      01275  336026314325
      01276  604546636026
      01277  466445246026
      01300  465160264643
      01301  434666314527
      01302  606462255173
      01303  606060606060
      01304  606630466031     ..006  BCI     4, WHO IS IN M.F.D. -                                            .001
      01305  626031456044
      01306  332633243360
      01307  406060606060
      01310  606060606060     ..008  BCI     6,                        PROBLEM NO.                            .001
      01311  606060606060
      01312  606060606060
      01313  606060606060
      01314  475146224325
      01315  446045463360
      01316  606060606060     ..010  BCI     6,                     PROGRAMMER NO.                            .001
      01317  606060606060
      01320  606060606060
      01321  606060475146
      01322  275121444425
      01323  516045463360
      01324  602122214524     ..013  BCI     8, ABANDONING THIS USER IN THE CURRENT DUMP CYCLE.               .001
      01325  464531452760
      01326  633031626064
      01327  622551603145
      01330  606330256023
      01331  645151254563
      01332  602464444760
      01333  237023432533
      01334  314560263143     ..014  BCI     2,IN FILE -                                                      .001
      01335  256040606060
      01336  462660646225     ..015  BCI     2,OF USER -                                                      .001
      01337  516040606060

        LITERALS
      01340  000000000000
      01341  000000000001
      01342  000000000003
      01343  000000000007
      01344  000000000014
      01345  000000000015
      01346  000000077777
      01347  000001000003
      01350  077777077777
      01351  216060606060
      01352  276060606060
      01353  436060606060
      01354  446060606060
1            SUBROUTINE TO DUMP ONE USER'S FILES....M.J.BAILEY,11/30/64                          PAGE 23

      01355  516660606060
      01356  777777000000
1            SUBROUTINE TO DUMP ONE USER'S FILES....M.J.BAILEY,11/30/64                          PAGE 1
                        POST PROCESSOR ASSEMBLY DATA

       60242 IS THE LAST LOCATION NOT USED BY THIS PROGRAM
       1357 IS THE FIRST LOCATION NOT USED BY THIS PROGRAM

0REFERENCES TO DEFINED SYMBOLS
        103      A   565,  566, 1000, 1001, 1002, 1003
          3      C  1274
          1      I  1274
         43      N  1274
         34      R   157,  257,  536
       1274      U  1274
         62      Y   176,  177,  201,  203
          4     AK  1274
      62726     DP  1274
      62727     DU  1274
         72     L7
        660     NW    50,   51, 1274
          6     NX  1274
      75113     PB  1274
       1016    DU1   123,  150,  222, 1273
       1017    DU2   124,  151,  223
       1020    DU4   125,  152,  224, 1270, 1272
         14    GDT   132
      60276    IMP  1274
         10    INT  1274
         30    NCD  1274
        271    NXI   214
        371    NXJ   346
        407    NXK   370
        673    NXM   727
        727    NXN   652
        732    NXP   672
       1007    NXQ   447,  457,  472,  475,  504,  505, 1004
       1265    NXR   360,  402,  442,  444, 1140, 1144
        246    OQD   242
      64526    PBF  1034, 1040, 1043, 1047, 1053, 1056, 1062, 1065, 1070, 1073, 1077, 1102, 1105, 1110, 1114, 1120, 1123
                    1127, 1133, 1136, 1202, 1205, 1207, 1212, 1215, 1221, 1224, 1226, 1231, 1234, 1240, 1244, 1247, 1274
         24    RDF   714,  752
      60260    SW1  1274
      60257    TCP  1274
      62737    TLD   131,  314,  423,  474,  520,  614, 1274
      73353    TND   316,  425,  471,  522,  617, 1274
      60261   ALOG  1274
         17   BASE  1274
         25   BERM  1023, 1157, 1175, 1261
      60266   CDSW   421,  463,  516, 1274
      60265   DATE  1274
      62730   DAWN  1274
         14   DINC  1274
          2   DISK   504,  505, 1274
      77440   DTLD  1274
      61157   DUSK  1274
        221   DUSR     0,  216
      64544   ERAY  1274
       1022   ERRA   164,  264
1            SUBROUTINE TO DUMP ONE USER'S FILES....M.J.BAILEY,11/30/64                          PAGE 2
                        POST PROCESSOR ASSEMBLY DATA

       1145   ERRG   555
       1166   ERRL   721
       1252   ERRM   757
      62733   FEOF   574,  720,  756, 1274
        102   FLFL   670,  673,  677,  732
      62040   ITB1  1274
      61160   ITB2  1274
         50   LBUF   170,  270
      62740   MFDC  1274
         55   NFLR   335,  337,  345,  647,  651,  653,  671
      62723   NFN1  1274
      62721   NFN2  1274
        347   NXIB   366
        366   NXIC   340
        430   NXKA   422
        531   NXLB   147
        710   NXM1   703
        712   NXM2   707,  713
        715   NXM3   705
        723   NXM4   701
        722   NXMA  1173
        760   NXNA  1257
        746   NXP1   741
        750   NXP2   745,  751
        753   NXP3   743
        761   NXP4   737
       1005   NXPA   532, 1150, 1155, 1165
        764   NXPB   717,  755, 1251
        774   NXPD   533
       1006   NXPE   534
          2   OPEN   156,  256,  547
          3   TAPE  1274
         75   TBA1   700,  736
         77   TBA2   702,  740
        101   TBA3   706,  744
         35   TEMP   322,  332,  357,  401,  467,  470,  473,  634,  644,  716,  754
      60264   TIME  1274
      62736   UFDC   272, 1274
         20   WRNF   361,  403,  722,  760
         73  ALLSW   213,  217,  221,  460
          5  CLOSE   767, 1012, 1265
      62731  DMPSW   772, 1274
       1012  DU111   440
        150  DUSR1     0
        217  DUSRX     0
      61156  ENDSW  1274
      62734  EOFCT  1274
       1060  ERRA1  1031
       1125  ERRA2
       1141  ERRA3
       1156  ERRG1  1154
       1200  ERRL1  1264
       1174  ERRLA  1170
       1260  ERRMA  1254
      73354  FLUSH  1274
1            SUBROUTINE TO DUMP ONE USER'S FILES....M.J.BAILEY,11/30/64                          PAGE 3
                        POST PROCESSOR ASSEMBLY DATA

          4  FWAIT
         15  GDSIG   303,  364,  406,  535,  725, 1007
      63630  IOBUF   170,  270, 1274
       1274  ..003  1033
       1304  ..006  1046
       1310  ..008  1061
       1316  ..010  1076
       1324  ..013  1113
       1334  ..014  1201
       1336  ..015  1220
         51  LBUF2   561
         47  LTPBF   320,  363,  632,  724
      62725  MFD1W  1274
         10  NHOUR  1274
         56  NLAST   336,  341,  367,  405,  650,  655,  661,  663,  730,  762
         16  NLREC   326,  640
      77456  NMFDU  1274
        525  NXFDB   517
        460  NXFLA   451,  453,  456
      77441  NXMPT  1274
        763  NXPBG   731
      60255  ODAWN  1274
          2  PAUSE  1274
      76426  PROBN  1274
      76362  PROGN  1274
      76147  RCODE  1274
         17  RDUFD   355,  377
       3300  TBSIZ    47,  100,  101,  274,  275,  350,  351,  372,  373,  575,  576,  711,  747, 1274
      60262  TFOSW  1274
      62720  TNDSW  1274
      70053  TPBUF    75,   77,  101,  275,  306,  310,  312,  315,  317,  343,  347,  351,  356,  362,  371,  373,  400
                     404,  576,  606,  615,  620,  624,  665, 1274
         36  UFDID   311
         10  WRFLX   301,  602, 1037, 1052, 1067, 1104, 1117, 1132, 1211, 1230, 1243
      60267 ARGLST   135,  137,  141,  143,  144,  145,  146,  410,  412,  414,  416,  420,  424,  426,  432,  433,  507
                     511,  514,  521,  523,  527,  530, 1274
          0 ATTACH   153,  253,  544,  764
      75040 AUTOND  1274
          3 BUFFER   165,  265,  556
         11 CHFILE
         26 CKCODE  1026, 1145, 1151
          6 DELFIL
      75032 DEMKEY  1274
        113 DMNDMP     0
        120 DMPFIL     0,  117
      62726 DMPRGR  1274
        215 DMPUFD     0
      62727 DMPUSR  1274
         46 EMPTSW   210,  215,  232,  435,  437
          7 ENDTAP  1274
          5 ENFLSH  1274
      77457 ENTPSW  1274
         23 ENTUFD   443
      62732 EOFCTA  1274
         14 ERCODA  1030, 1153, 1274
1            SUBROUTINE TO DUMP ONE USER'S FILES....M.J.BAILEY,11/30/64                          PAGE 4
                        POST PROCESSOR ASSEMBLY DATA

         16 ERCODB  1274
         27 ERREND  1142, 1163
         41 ERSTAT  1126, 1237
          7 ERYSIZ  1274
      77455 EXEMPT  1274
      77460 FLSHSW  1274
         12 FSTATE   173,  562
         22 IENUFD   441
      62750 IOBUF2   561, 1274
      77461 KEYVAL  1274
         54 LCOUNT   205,  225,  233,  246,  247,  331,  570,  643
          1 LSDRUM   502,  503, 1274
          6 LVFLSH  1274
         21 MAPLIN   434,  763
      64510 MFDENT   127,  134,  140,  154,  155,  171,  172,  200,  202,  204,  226,  236,  250,  254,  255,  302,  305
                     307,  323,  407,  411,  417,  430,  506,  510,  545,  546,  605,  611,  765,  766, 1064, 1101, 1166
                    1171, 1223, 1225, 1252, 1255, 1274
      62735 MFDEOF  1274
         60 MFDNAM  1167, 1253
         53 NORECS   212,  235,  240,  252,  327,  572,  641
      75052 NUSERS  1274
        506 NXFDMP   503
        443 NXFILE  1011
        476 NXFLAA   461
         57 PHYSRC   334,  646,  660
      74650 PROBNO  1274
      76144 PROGNO  1274
         52 RCOUNT   237,  244,  325,  330,  637,  642
        660 RECSIZ    57, 1274
      60254 REELNO  1274
         13 SETFIL   775
      60243 SKELSW  1274
         61 STATUS   543,  550
      75104 SYSDAT  1274
      75105 SYSTIM  1274
      60244 TAPEID  1274
      60263 TCYCLE   126, 1274
          1 TILOCK   531,  773, 1005
      60256 TNDSAV  1274
      64553 TPBUF2    74,   76,  100,  612,  616,  621,  630,  666, 1274
      62741 UFDENT   114,  116,  120,  121,  133,  136,  142,  445,  446,  454,  462,  465,  476,  513,  525,  537,  551
                     552,  557,  560,  563,  564,  567,  603,  623,  627,  635,  770,  771,  776,  777, 1204, 1206, 1274
      62747 UFDEOF   130,  273,  353,  375, 1010, 1274
         32 UFDNAM   160,  161,  166,  167,  174,  175,  260,  261,  266,  267,  413,  415,  450,  455, 1013, 1014, 1172
                    1256, 1266, 1267
          7 WRFILE

0 NO ERROR IN ABOVE ASSEMBLY.


DDPFLB   BCD 05/28/67 1807.1    4567         00000
1            START DUMP TAPE FILE.....M.J.BAILEY,12/15/64                                        PAGE 1

                              *
                       00020         ENTRY   SDF
                              *
                                     EXTERN  BUFFER,ATTACH,CHFILE,TAPFIL
                                     EXTERN  MOUNT,LABEL,OPEN,DELFIL

        TRANSFER VECTOR
      00000  226426262551     BUFFER
      00001  216363212330     ATTACH
      00002  233026314325     CHFILE
      00003  632147263143     TAPFIL
      00004  444664456360     MOUNT
      00005  432122254360     LABEL
      00006  464725456060     OPEN
      00007  242543263143     DELFIL
      00010  272462312760     GDSIG
      00011  222324246344     BCDDTM
      00012  272463606060     GDT
      00013  665145266060     WRNF
      00014  222551446060     BERM
      00015  255151254524     ERREND

            LINKAGE DIRECTOR
      00016  000000000000
      00017  622426606060

      00020  0634 00 1 00205  SDF    SXA     SDY,1
      00021  0634 00 4 00206         SXA     SDZ,4
      00022  0600 00 0 60254         STZ     REELNO
      00023  0500 00 4 00001         CLA     1,4           ADDRESS OF TAPE-MOUNT MESSAGE
      00024  0601 00 0 00055         STO     SDFA
      00025  0601 00 0 00105         STO     SDFC
                              *
      00026  0074 00 4 00010         TSX     $GDSIG,4
      00027  0074 00 4 00001         TSX     ATTACH,4
 TD   00030  3 00000 0 62727         TXH     DMPUSR
 TD   00031  3 00000 0 62726         TXH     DMPRGR
      00032  0074 00 4 00002         TSX     CHFILE,4      DE-PROTECT OLD DUMP TAPE FILE (COPY 1)
 TD   00033  3 00000 0 62723         TXH     NFN1
 TD   00034  3 00000 0 62724         TXH     NFN1+1
 TD   00035  3 00000 0 00231         TXH     =O0
 TD   00036  3 00000 0 00237         TXH     =-0
 TD   00037  3 00000 0 00237         TXH     =-0
 TD   00040  3 00000 0 00041         TXH     *+1
      00041  0074 00 4 00007         TSX     DELFIL,4      DELETE IT
 TD   00042  3 00000 0 62723         TXH     NFN1
 TD   00043  3 00000 0 62724         TXH     NFN1+1
 TD   00044  3 00000 0 00045         TXH     *+1
      00045  0074 00 4 00003         TSX     TAPFIL,4      DECLARE UNIT 11,FILE 1, TO BE
 TD   00046  3 00000 0 62723         TXH     NFN1          DUMP FILE COPY 1
 TD   00047  3 00000 0 62724         TXH     NFN1+1
 TD   00050  3 00000 0 00234         TXH     =11
 TD   00051  3 00000 0 00231         TXH     =0
      00052  0074 00 4 00004         TSX     MOUNT,4       ASK OPERATOR FOR REEL
 TD   00053  3 00000 0 00232         TXH     =1            ON CHANNEL A
 TD   00054  3 00000 0 00234         TXH     =11           ON UNIT 11,GIVE HIM MESSAGE
1            START DUMP TAPE FILE.....M.J.BAILEY,12/15/64                                        PAGE 2

      00055  2 00000 0 00000  SDFA   TIX     **,,**
      00056  0074 00 4 00005         TSX     LABEL,4       GIVE I/O SYSTEM TAPE LABEL
 TD   00057  3 00000 0 00234         TXH     =11
      00060  2 00225 0 60244         TIX     TAPEID,,L4
 TD   00061  3 00000 0 00052         TXH     *-7
                              *
      00062  0074 00 4 00002         TSX     CHFILE,4      DE-PROTECT OLD DUMP TAPE FILE (COPY 2)
 TD   00063  3 00000 0 62721         TXH     NFN2
 TD   00064  3 00000 0 62722         TXH     NFN2+1
 TD   00065  3 00000 0 00231         TXH     =O0
 TD   00066  3 00000 0 00237         TXH     =-0
 TD   00067  3 00000 0 00237         TXH     =-0
 TD   00070  3 00000 0 00071         TXH     *+1
      00071  0074 00 4 00007         TSX     DELFIL,4      DELETE IT
 TD   00072  3 00000 0 62721         TXH     NFN2
 TD   00073  3 00000 0 62722         TXH     NFN2+1
 TD   00074  3 00000 0 00075         TXH     *+1
      00075  0074 00 4 00003         TSX     TAPFIL,4      DECLARE UNIT 12,FILE 1, TO BE
 TD   00076  3 00000 0 62721         TXH     NFN2          DUMP FILE COPY 2
 TD   00077  3 00000 0 62722         TXH     NFN2+1
 TD   00100  3 00000 0 00235         TXH     =12
 TD   00101  3 00000 0 00231         TXH     =0
      00102  0074 00 4 00004         TSX     MOUNT,4       ASK OPERATOR FOR REEL
 TD   00103  3 00000 0 00233         TXH     =2            ON CHANNEL B
 TD   00104  3 00000 0 00235         TXH     =12           ON UNIT 12, GIVE HIM MESSAGE
      00105  2 00000 0 00000  SDFC   TIX     **,,**
      00106  0074 00 4 00005         TSX     LABEL,4       GIVE I/O SYSTEM TAPE LABEL
 TD   00107  3 00000 0 00235         TXH     =12
      00110  2 00225 0 60244         TIX     TAPEID,,L4
 TD   00111  3 00000 0 00102         TXH     *-7
                              *
                              *      OPEN DUMP TAPE FILES
                              *
      00112  0074 00 4 00006   IDNA  TSX     OPEN,4        NOW, OPEN DUMP TAPE FILES
 TD   00113  3 00000 0 00221         TXH     W
 TD   00114  3 00000 0 62723         TXH     NFN1
 TD   00115  3 00000 0 62724         TXH     NFN1+1
 TD   00116  3 00000 0 00236         TXH     =O120
 TD   00117  3 00000 0 00220         TXH     LTAPE
 TD   00120  3 00000 0 00210         TXH     ERRID4
      00121  0074 00 4 00000  IDO    TSX     BUFFER,4
 TD   00122  3 00000 0 62723         TXH     NFN1
 TD   00123  3 00000 0 62724         TXH     NFN1+1
      00124  2 00222 0 62040         TIX     ITB1,,LITB1
      00125  0074 00 4 00006   IDOA  TSX     OPEN,4
 TD   00126  3 00000 0 00221         TXH     W
 TD   00127  3 00000 0 62721         TXH     NFN2
 TD   00130  3 00000 0 62722         TXH     NFN2+1
 TD   00131  3 00000 0 00236         TXH     =O120
 TD   00132  3 00000 0 00220         TXH     LTAPE
 TD   00133  3 00000 0 00214         TXH     ERRID5
      00134  0074 00 4 00000  IDP    TSX     BUFFER,4
 TD   00135  3 00000 0 62721         TXH     NFN2
 TD   00136  3 00000 0 62722         TXH     NFN2+1
      00137  2 00223 0 61160         TIX     ITB2,,LITB2
      00140  0500 00 0 60262         CLA     TFOSW
1            START DUMP TAPE FILE.....M.J.BAILEY,12/15/64                                        PAGE 3

      00141  0400 00 0 00232         ADD     =1
      00142  0601 00 0 60262         STO     TFOSW
                              *
                              *      PREPARE THEN WRITE TAPE I.D. RECORD
                              *
      00143  0774 00 1 00650         AXT     RECSIZ-8,1
      00144  0600 00 1 70733         STZ     TPBUF+RECSIZ,1  CLEAR ALL BUT BOTTOM OF BUFFER
      00145  2 00001 1 00144         TIX     *-1,1,1
      00146  0774 00 1 00004         AXT     4,1
      00147 -0500 00 1 60250  IDX    CAL     TAPEID+4,1    STORE HEADER LABEL IN BUFFER
      00150  0602 00 1 70057         SLW     TPBUF+4,1
      00151  2 00001 1 00147         TIX     IDX,1,1
      00152  0074 00 4 00011         TSX     $BCDDTM,4     CURRENT DATE/TIME
      00153  0602 00 0 70057         SLW     TPBUF+4       TIME (HHMM.M IN BCD)
      00154  0602 00 0 60264         SLW     TIME          SAVE TIME DUMPING STARTED
      00155 -0600 00 0 70060         STQ     TPBUF+5       DATE (MMDDYY IN BCD)
      00156 -0600 00 0 60265         STQ     DATE          SAVE DATE DUMPING STARTED
      00157  0074 00 4 00012         TSX     $GDT,4        I/O SYSTEM FORM CURRENT DATE/TIME
      00160  0602 00 0 70061         SLW     TPBUF+6
      00161  0774 00 1 00004         AXT     4,1
      00162 -0500 00 1 70063         CAL     TPBUF+8,1
      00163  0602 00 1 60254         SLW     TAPEID+8,1
      00164  2 00001 1 00162         TIX     *-2,1,1
      00165 -0500 00 0 00224         CAL     LRSIZ
      00166  0771 00 0 00003         ARS     3             RECSIZ/8  (INTEGER)
      00167  0402 00 0 00232         SUB     =1            RECSIZ/8-1
      00170  0767 00 0 00003         ALS     3             (RECSIZ/8-1)*8
      00171  0734 00 4 00000         PAX     0,4
      00172 -0760 00 0 00016         EMTM
      00173  0774 00 1 00000         AXT     0,1           REPEAT THE 8 I.D. WORDS
      00174 -0500 00 1 70062         CAL     TPBUF+7,1     THROUGHOUT THE FIRST PHYSICAL RECORD
      00175  0602 00 5 70742         SLW     TPBUF+RECSIZ/8*8+7,5
      00176  1 00001 1 00177         TXI     *+1,1,1
      00177 -3 00007 1 00174         TXL     *-3,1,7
      00200  2 00010 4 00173         TIX     *-5,4,8
      00201  0760 00 0 00016         LMTM
                              *
      00202  0074 00 4 00013         TSX     $WRNF,4       WRITE DUMP TAPE(S) ID RECORD
 TD   00203  3 00000 0 70053         TXH     TPBUF
 TD   00204  3 00000 0 00224         TXH     LRSIZ
                              *
      00205  0774 00 1 00000   SDY   AXT     **,1
      00206  0774 00 4 00000   SDZ   AXT     **,4
      00207  0020 00 4 00002         TRA     2,4
                              *
      00210  0074 00 4 00014  ERRID4 TSX     $BERM,4       PRINT STANDARD MESSAGE
      00211  0 00000 0 00240         PZE     =HSDF01
      00212  0074 00 4 00015         TSX     $ERREND,4
      00213  0020 00 0 00112         TRA     IDNA          TRY AGAIN
                              *
      00214  0074 00 4 00014  ERRID5 TSX     $BERM,4       PRINT STANDARD MESSAGE
      00215  0 00000 0 00241         PZE     =HSDF02
      00216  0074 00 4 00015         TSX     $ERREND,4
      00217  0020 00 0 00125         TRA     IDOA          TRY AGAIN
                              *
                              *      CONSTANTS, VARIABLES, ETC.
1            START DUMP TAPE FILE.....M.J.BAILEY,12/15/64                                        PAGE 4

                              *
      00220  0 00000 0 00003  LTAPE  PZE     TAPE
      00221  666060606060      W     BCI     1,W
      00222  0 00000 0 01540   LITB1 PZE     2*RECSIZ
      00223  0 00000 0 01540   LITB2 PZE     2*RECSIZ
      00224  0 00000 0 00660   LRSIZ PZE     RECSIZ
      00225  0 00000 0 00004  L4     PZE     4
      00226  643326332433     UFDNAM BCI     2,U.F.D.(FILE)
      00227  742631432534
      00230  443326332433     MFDNAM BCI     1,M.F.D.
                                     INSERT  DCMEQB
                              *
                              *  .  .  .  .  .  .  .  .  .  .  .  .  .  .  .  .  .  .
                              *    COMMON AND EQUIVALENCE FOR GENERAL DUMP PROGRAM
                              *  .  .  .  .  .  .  .  .  .  .  .  .  .  .  .  .  .  .
                              *
                      075032  DEMKEY BOOL    75032         CORE A LOCATION FOR DAEMON'S KEY SETTING
                      075105  SYSTIM BOOL    75105         CORE A LOCATION FOR SYSTEM  TIME
                      075104  SYSDAT BOOL    75104         CORE A LOCATION FOR SYSTEM INIT. DATE
                      076147  RCODE  BOOL    76147         CORE A LOCATION FOR RESTRICTION CODE VECTOR
                      075040  AUTOND BOOL    75040         CORE A AUTOMATIC LOGOUT INDICATOR
                      075052  NUSERS BOOL    75052         CORE A LOGGED-IN USER COUNT
                      076426  PROBN  BOOL    76426         CORE A PROBNO ARRAY
                      076362  PROGN  BOOL    76362         CORE A PROGNO ARRAY
                      075113  PB     BOOL    75113         CORE A GUARANTEED PERCENTAGE VECTOR BASE
                      000043  N      BOOL    43            CORE A MAX. NO. OF USERS (SIZE OF PROBN)
                              *
                      000017  BASE   BOOL    17            KEY CODE BASE
                      000001  I      BOOL    1             KEY CODE TO START INCREMENTAL DUMP
                      000002  PAUSE  BOOL    2             KEY CODE TO WAIT FOR 1 MIN.
                      000003  C      BOOL    3             KEY CODE TO DO COMPLETE DUMP
                      000004  AK     BOOL    4             KEY CODE FOR IMPENDING AUTOLOGOUT
                      000005  ENFLSH BOOL    5             KEY CODE TO ENTER FLUSH MODE
                      000006  LVFLSH BOOL    6             KEY CODE TO LEAVE FLUSH MODE
                      000007  ENDTAP BOOL    7             KEY CODE TO TERMINATE DUMP TAPE FILE
                      000010  INT    BOOL    10            SIMULATE INTERRUPT
                       00660  RECSIZ EQU     432           TAPE RECORD SIZE
                       00006   NX    EQU     6             MAX. NO. OF SYSTEM FILE OWNERS
                       00030  NCD    EQU     24            MAX. NO. 'DAYS' NON-USE OF CURRENT FILES
                       00014  DINC   EQU     12            NO. DAYS OF 'RECENCY' INCREMENT (C.DUMP)
                       01274  U      EQU     700           MAX. NO. USERS IN MFD USER LIST
                       03300  TBSIZ  EQU     4*RECSIZ      TAPE BUFFER SIZE
                       00007  ERYSIZ EQU     7             I/O SYSTEM ERROR ARRAY SIZE
                       00014  ERCODA EQU     12            'OPEN' ERROR CODE FOR FILE NOT FOUND
                       00016  ERCODB EQU     14            'OPEN' ERROR CODE RQSTD. DEVICE UNAVBLE
                       00660  NW     EQU     432           SIZE OF SECONDARY I/O FILE BUFFERS
                       00001  LSDRUM EQU     1             I/O SYSTEM DEVICE CODE FOR L.S.DRUM
                       00002    DISK EQU     2             I/O SYSTEM DEVICE CODE FOR DISK
                       00003   TAPE  EQU     3             I/O SYSTEM DEVICE CODE FOR TAPE
                       00010  NHOUR  EQU     8             NO. OF HOURS IN A 'DAY'
                       77461  KEYVAL COMMON  1             LAST KEY SETTING READ FROM SUPERVISOR
                       77460  FLSHSW COMMON  1             FLUSH MODE SWITCH
                       77457  ENTPSW COMMON  1             OPERATOR-REQUESTED-END-TAPE INDICATOR
                       77456  NMFDU  COMMON  1             NO. USERS CURRENTLY IN LIST
                       77455  EXEMPT COMMON  2*NX          LIST OF SYSTEM FILE OWNERS
                       77441  NXMPT  COMMON  1             NO. FILE USERS EXEMPT FROM DUMP IN DCYCLE
1            START DUMP TAPE FILE.....M.J.BAILEY,12/15/64                                        PAGE 5

                       77440  DTLD   COMMON  U             TIME LAST DUMPED FOR EACH USER
                       76144  PROGNO COMMON  U             PROGRAMMER NO. OF EACH USER
                       74650  PROBNO COMMON  U             PROBLEM NO. OF EACH USER
                       73354   FLUSH COMMON  1             NON-ZERO INDICATES FLUSH MODE IS FORCED
                       73353   TND   COMMON  1             TIME OF NEXT DUMP FOR CURRENT USER
                       70053         COMMON  TBSIZ-1       TAPE BUFFER
                       70053  TPBUF  COMMON  1             TAPE BUFFER 1ST WORD
                       64553         COMMON  TBSIZ-1       2ND TAPE BUFFER
                       64553  TPBUF2 COMMON  1             2ND TAPE BUFFER, 1ST WORD
                       64544         COMMON  ERYSIZ-1      ERROR ARRAY
                       64544  ERAY   COMMON  1             ERROR ARRAY 1ST WORD
                       64526         COMMON  13            PRINT BUFFER
                       64526   PBF   COMMON  1             PRINT BUFFER 1ST WORD
                       64510         COMMON  13            MFD ENTRY BUFFER
                       64510  MFDENT COMMON  1             MFD ENTRY BUFFER 1ST WORD
                       63630         COMMON  NW-1          SECONDARY I/0 FILE BUFFER
                       63630   IOBUF COMMON  1             SECONDARY IO BUFFER 1ST WORD
                       62750         COMMON  NW-1          SECONDARY I/O FILE BUFFER
                       62750  IOBUF2 COMMON  1             SECONDARY I/O BUFFER 1ST WORD
                       62747  UFDEOF COMMON  1             ZERO INDICATES EOF IN UFD FILE
                       62741         COMMON  5             PARTIAL UFD ENTRY BUFFER
                       62741  UFDENT COMMON  1             PARTIAL UFD ENTRY BUFFER 1ST WORD
                       62740   MFDC  COMMON  1             NEXT WORD TO BE READ FROM MFD FILE
                       62737   TLD   COMMON  1             TIME LAST DUMP OF USER CURRENTLY DUMPING
                       62736   UFDC  COMMON  1             NEXT UNREAD POS. OF UFDFILE (NORMALLY ZERO)
                       62735  MFDEOF COMMON  1             ZERO INDICATES EOF IN MFD FILE
                       62734   EOFCT COMMON  1             NO. OF WORDS READ BEFORE AN EOF
                       62733   FEOF  COMMON  1             ZERO INDICATES EOF IN A USER FILE
                       62732  EOFCTA COMMON  1             NO. OF WORDS BEFORE AN EOF
                       62731   DMPSW COMMON  1             NON-ZERO INDICATES A FILE HAS BEEN DUMPED
                       62730   DAWN  COMMON  1             TIME OF START OF 'DAY'
                       62727  DMPUSR COMMON  1             PROBLEM NO. OF DUMP/LOAD PACKAGE
                       62726  DMPRGR COMMON  1             PROGRAMMER NO. OF  DITTO.
                       62727  DU     EQU     DMPUSR
                       62726  DP     EQU     DMPRGR
                       62725   MFD1W COMMON  1             NO. OF 1ST GOOD WORD IN MFD AND UFD FILES
                       62723         COMMON  1             2ND PART OF DUMP TAPE FILE (COPY 1) NAME
                       62723  NFN1   COMMON  1             1ST PART OF DUMP TAPE FILE (COPY 1) NAME
                       62721         COMMON  1             2ND PART OF DUMP TAPE FILE (COPY 2) NAME
                       62721   NFN2  COMMON  1             1ST PART OF DUMP TAPE FILE (COPY 2) NAME
                       62720  TNDSW  COMMON  1             INDICATES TIME OF THIS DUMP CURRENT OR NO
                       62040         COMMON  RECSIZ-1      INTERNAL TAPE BUFFER
                       62040   ITB1  COMMON  1                ,,     ,,    ,,  1ST WORD
                       61160         COMMON  RECSIZ-1      INTERNAL TAPE BUFFER
                       61160   ITB2  COMMON  1                ,,     ,,  ,,  1ST WORD
                       61157   DUSK  COMMON  1             TIME OF END OF CURRENT 'DAY'
                       61156   ENDSW COMMON  1             IF 1, NORMAL END-OF-DAY,ELSE OPERATOR ONE
                       60276         COMMON  NW-1          INTERNAL BUFFER FOR 'MAP' FILE
                       60276    IMP  COMMON  1                ,,      ,,    ,,   ,,   ,,  1ST WORD
                       60267         COMMON  6             'MAP' FILE LINE PARAMETER ARRAY
                       60267  ARGLST COMMON  1               ,,   ,,   ,,      ,,      ,,  1ST WORD
                       60266  CDSW   COMMON  1             NON-ZERO DURING COMPLETE DUMP,ELSE ZERO
                       60265  DATE   COMMON  1             DATE THE DUMP NOW IN PROGRESS BEGAN
                       60264  TIME   COMMON  1             TIME DUMP NOW IN PROGRESS BEGAN
                       60263  TCYCLE COMMON  1             'TIME' OF LAST CYCLE ON DUMP TAPE FILE
                       60262  TFOSW  COMMON  1             NON-ZERO IF DUMP TAPE FILE IS OPEN
1            START DUMP TAPE FILE.....M.J.BAILEY,12/15/64                                        PAGE 6

                       60261  ALOG   COMMON  1             NON-ZERO IF AUTOLOGOUT ON
                       60260  SW1    COMMON  1
                       60257  TCP    COMMON  1
                       60256  TNDSAV COMMON  1
                       60255  ODAWN  COMMON  1             TIME OF START OF PREVIOUS 'DAY'
                       60244         COMMON  8             TAPE LABEL
                       60244  TAPEID COMMON  1             TAPE LABEL 1ST WORD
                       60243  SKELSW COMMON  1
                       60254  REELNO EQU     TAPEID+8
                                     END

        LITERALS
      00231  000000000000
      00232  000000000001
      00233  000000000002
      00234  000000000013
      00235  000000000014
      00236  000000000120
      00237  400000000000
      00240  622426000160
      00241  622426000260
1            START DUMP TAPE FILE.....M.J.BAILEY,12/15/64                                        PAGE 1
                        POST PROCESSOR ASSEMBLY DATA

       60242 IS THE LAST LOCATION NOT USED BY THIS PROGRAM
        242 IS THE FIRST LOCATION NOT USED BY THIS PROGRAM

0REFERENCES TO DEFINED SYMBOLS
          3      C   231
          1      I   231
         43      N   231
       1274      U   231
        221      W   113,  126
          4     AK   231
      62726     DP   231
      62727     DU   231
        225     L4    60,  110
        660     NW   231
          6     NX   231
      75113     PB   231
         12    GDT   157
        121    IDO
        134    IDP
        147    IDX   151
      60276    IMP   231
         10    INT   231
         30    NCD   231
      64526    PBF   231
         20    SDF     0
        205    SDY    20
        206    SDZ    21
      60260    SW1   231
      60257    TCP   231
      62737    TLD   231
      73353    TND   231
      60261   ALOG   231
         17   BASE   231
         14   BERM   210,  214
      60266   CDSW   231
      60265   DATE   156,  231
      62730   DAWN   231
         14   DINC   231
          2   DISK   231
      77440   DTLD   231
      61157   DUSK   231
      64544   ERAY   231
      62733   FEOF   231
        112   IDNA   213
        125   IDOA   217
      62040   ITB1   124,  231
      61160   ITB2   137,  231
      62740   MFDC   231
      62723   NFN1    33,   34,   42,   43,   46,   47,  114,  115,  122,  123,  231
      62721   NFN2    63,   64,   72,   73,   76,   77,  127,  130,  135,  136,  231
          6   OPEN   112,  125
         55   SDFA    24
        105   SDFC    25
          3   TAPE   220,  231
1            START DUMP TAPE FILE.....M.J.BAILEY,12/15/64                                        PAGE 2
                        POST PROCESSOR ASSEMBLY DATA

      60264   TIME   154,  231
      62736   UFDC   231
         13   WRNF   202
      62731  DMPSW   231
      61156  ENDSW   231
      62734  EOFCT   231
      73354  FLUSH   231
         10  GDSIG    26
      63630  IOBUF   231
          5  LABEL    56,  106
        222  LITB1   124
        223  LITB2   137
        224  LRSIZ   165,  204
        220  LTAPE   117,  132
      62725  MFD1W   231
          4  MOUNT    52,  102
         10  NHOUR   231
      77456  NMFDU   231
      77441  NXMPT   231
      60255  ODAWN   231
          2  PAUSE   231
      76426  PROBN   231
      76362  PROGN   231
      76147  RCODE   231
       3300  TBSIZ   231
      60262  TFOSW   140,  142,  231
      62720  TNDSW   231
      70053  TPBUF   144,  150,  153,  155,  160,  162,  174,  175,  203,  231
      60267 ARGLST   231
          1 ATTACH    27
      75040 AUTOND   231
         11 BCDDTM   152
          0 BUFFER   121,  134
          2 CHFILE    32,   62
          7 DELFIL    41,   71
      75032 DEMKEY   231
      62726 DMPRGR    31,  231
      62727 DMPUSR    30,  231
          7 ENDTAP   231
          5 ENFLSH   231
      77457 ENTPSW   231
      62732 EOFCTA   231
         14 ERCODA   231
         16 ERCODB   231
         15 ERREND   212,  216
        210 ERRID4   120
        214 ERRID5   133
          7 ERYSIZ   231
      77455 EXEMPT   231
      77460 FLSHSW   231
      62750 IOBUF2   231
      77461 KEYVAL   231
          1 LSDRUM   231
          6 LVFLSH   231
      64510 MFDENT   231
1            START DUMP TAPE FILE.....M.J.BAILEY,12/15/64                                        PAGE 3
                        POST PROCESSOR ASSEMBLY DATA

      62735 MFDEOF   231
        230 MFDNAM
      75052 NUSERS   231
      74650 PROBNO   231
      76144 PROGNO   231
        660 RECSIZ   143,  144,  175,  222,  223,  224,  231
      60254 REELNO    22,  231
      60243 SKELSW   231
      75104 SYSDAT   231
      75105 SYSTIM   231
      60244 TAPEID    60,  110,  147,  163,  231
          3 TAPFIL    45,   75
      60263 TCYCLE   231
      60256 TNDSAV   231
      64553 TPBUF2   231
      62741 UFDENT   231
      62747 UFDEOF   231
        226 UFDNAM

0 NO ERROR IN ABOVE ASSEMBLY.


DDMAPB   BCD 05/28/67 1807.1    9503         00000
1            DUMP TAPE FILE 'MAP' PREPARATION ROUTINES....M.J.BAILEY,12/15/64                    PAGE 1

                              *
                       00022         ENTRY   MAPLIN        WRITE 1 MAP LINE (ALL DUMPS)
                              *
                       00455         ENTRY   SAVMAP
                              *
                       00275         ENTRY   SMF           START MAP FILE (ALL DUMPS)
                              *
                       00330         ENTRY   WMH           WRITE MAP HEADING (NOT FOR NEW-FILE DUMP)
                              *
                       00362         ENTRY   EMF           END MAP FILE (ALL DUMPS)
                              *
                       00476         ENTRY   DMF           DUMP AND REMOTE PRINT MAP FILE (ALL DUMPS)
                              *
                                     EXTERN  CHFILE,DELFIL,OPEN,BUFFER,CLOSE,TILOCK
                                     EXTERN  FWAIT,WRFILE,ATTACH,FSTATE
                              *

                              *
                              *   WRITE ONE LINE IN TAPE 'MAP' FILE TO RECORD THE DUMPING OF A FILE
                              *

        TRANSFER VECTOR
      00000  233026314325     CHFILE
      00001  242543263143     DELFIL
      00002  464725456060     OPEN
      00003  226426262551     BUFFER
      00004  234346622560     CLOSE
      00005  633143462342     TILOCK
      00006  266621316360     FWAIT
      00007  665126314325     WRFILE
      00010  216363212330     ATTACH
      00011  266263216325     FSTATE
      00012  272463606060     GDT
      00013  272462312760     GDSIG
      00014  314622246360     IOBDT
      00015  222324246344     BCDDTM
      00016  244447263143     DMPFIL
      00017  475145632551     PRNTER

            LINKAGE DIRECTOR
      00020  000000000000
      00021  442147433145

      00022  0634 00 4 00246  MAPLIN SXA     MPG,4
      00023  0634 00 2 00244         SXA     MPF,2
      00024  0634 00 1 00243         SXA     MPE,1
      00025 -0500 00 0 60267         CAL     ARGLST        SEE IF FILE TO BE RECORDED IS MAP ITSELF
      00026 -0340 00 0 62727         LAS     DMPUSR        .
      00027  0020 00 0 00050         TRA     MPA           .
      00030  0020 00 0 00032         TRA     *+2           .
      00031  0020 00 0 00050         TRA     MPA           .
      00032 -0500 00 0 60270         CAL     ARGLST+1      .
      00033 -0340 00 0 62726         LAS     DMPRGR        .
      00034  0020 00 0 00050         TRA     MPA           .
      00035  0020 00 0 00037         TRA     *+2           .
      00036  0020 00 0 00050         TRA     MPA           .
1            DUMP TAPE FILE 'MAP' PREPARATION ROUTINES....M.J.BAILEY,12/15/64                    PAGE 2

      00037 -0500 00 0 60271         CAL     ARGLST+2      .
      00040 -0340 00 0 01040         LAS     MAP1          .
      00041  0020 00 0 00050         TRA     MPA           .
      00042  0020 00 0 00044         TRA     *+2           .
      00043  0020 00 0 00050         TRA     MPA           .
      00044 -0500 00 0 60272         CAL     ARGLST+3      .
      00045 -0340 00 0 01041         LAS     MAP2          .
      00046  0020 00 0 00050         TRA     MPA           .
      00047  0020 00 4 00001         TRA     1,4           EXIT IF MAP FILE ITSELF WAS TO BE RECORDED
                              *
      00050  0074 00 4 00010   MPA   TSX     ATTACH,4
 TD   00051  3 00000 0 62727         TXH     DMPUSR
 TD   00052  3 00000 0 62726         TXH     DMPRGR
      00053  0534 00 1 01043         LXA     COUNT,1
      00054  2 00001 1 00250         TIX     MWAIT,1,1
      00055  0074 00 4 00004         TSX     CLOSE,4
 TD   00056  3 00000 0 01040         TXH     MAP1
 TD   00057  3 00000 0 01041         TXH     MAP2
      00060  0074 00 4 00312         TSX     SMF2,4
      00061  0774 00 1 00031         AXT     25,1
      00062  0634 00 1 01043  NOCLOS SXA     COUNT,1
                              *
      00063  0774 00 1 00021         AXT     17,1          CLEAR LINE BUFFER
      00064  0600 00 1 01073         STZ     T+18,1
      00065  2 00001 1 00064         TIX     *-1,1,1
      00066 -0500 00 0 01106         CAL     =O777777000021
      00067  0602 00 0 01051         SLW     T             SET LINE-MARKED BCD CONTROL WORD IN LINE
                              *
      00070  0074 00 4 00012         TSX     $GDT,4        GET I/O SYSTEM FORM CURRENT DATE/TIME
      00071  0074 00 2 00254         TSX     DT,2          CONVERT IT TO '0  MM/DD/YY HHMM.M' IN TEMP
      00072  0560 00 0 01046         LDQ     TEMP          PACK AND STORE CURRENT DATE/TIME IN LINE
      00073 -0763 00 0 00014         LGL     12
 T    00074 -0754 00 0 00000         PXD
      00075 -0763 00 0 00030         LGL     24
      00076  0560 00 0 01047         LDQ     TEMP+1
      00077 -0763 00 0 00006         LGL     6
      00100  0602 00 0 01052         SLW     T+1
      00101 -0763 00 0 00036         LGL     30
      00102  0560 00 0 01050         LDQ     TEMP+2
      00103 -0763 00 0 00006         LGL     6
      00104  0602 00 0 01053         SLW     T+2
      00105 -0763 00 0 00036         LGL     30
      00106  0767 00 0 00006         ALS     6
      00107 -0501 00 0 01075         ORA     =O60
      00110  0602 00 0 01054         SLW     T+3
                              *
      00111  0560 00 0 60267         LDQ     ARGLST        GET FILE'S USER PROB. NO.
      00112 -0500 00 0 01042         CAL     BLANKS        AND PACK AND STORE IT IN LINE BUFFER
      00113 -0763 00 0 00022         LGL     18
      00114  0602 00 0 01055         SLW     T+4
      00115 -0763 00 0 00022         LGL     18
      00116  0767 00 0 00006         ALS     6
      00117 -0501 00 0 01075         ORA     =O60
                              *
      00120  0560 00 0 60270         LDQ     ARGLST+1      FILE'S USER PROGRAMMER NO.
      00121 -0763 00 0 00014         LGL     12            PACK AND STORE IT IN LINE BUFFER
1            DUMP TAPE FILE 'MAP' PREPARATION ROUTINES....M.J.BAILEY,12/15/64                    PAGE 3

      00122  0602 00 0 01056         SLW     T+5
      00123 -0763 00 0 00030         LGL     24
      00124  0560 00 0 01042         LDQ     BLANKS
      00125 -0763 00 0 00014         LGL     12
      00126  0602 00 0 01057         SLW     T+6
                              *
      00127 -0500 00 0 60271         CAL     ARGLST+2      GET FILE'S 1ST NAME
      00130  0602 00 0 01060         SLW     T+7           STORE IN LINE BUFFER
      00131 -0500 00 0 01075         CAL     =O60
                              *
      00132  0560 00 0 60272         LDQ     ARGLST+3      PACK AND STORE FILE'S 2ND NAME
      00133 -0763 00 0 00036         LGL     30
      00134  0602 00 0 01061         SLW     T+8
      00135 -0763 00 0 00006         LGL     6
      00136  0602 00 0 01044         SLW     HOLD          HOLD LAST CHAR. OF FILE NAME
                              *
      00137 -0500 00 0 60273         CAL     ARGLST+4      GET DATE/TIME FILE LAST MODIFIED
      00140 -0100 00 0 00146         TNZ     MPB
      00141 -0500 00 0 01042         CAL     BLANKS        BLANKS IF DATE/TIME ZERO
      00142  0602 00 0 01046         SLW     TEMP
      00143  0602 00 0 01047         SLW     TEMP+1
      00144  0602 00 0 01050         SLW     TEMP+2
      00145  0020 00 0 00147         TRA     *+2
      00146  0074 00 2 00254   MPB   TSX     DT,2          CONVERT DATE/TIME FILE LAST MODIFIED TO BCD
      00147  0560 00 0 01046         LDQ     TEMP          PACK AND STORE IT IN LINE BUFFER
      00150 -0763 00 0 00006         LGL     6
 T    00151 -0754 00 0 00000         PXD
      00152 -0500 00 0 01044         CAL     HOLD
      00153 -0763 00 0 00036         LGL     30
      00154  0602 00 0 01062         SLW     T+9
      00155 -0500 00 0 01047         CAL     TEMP+1
      00156  0602 00 0 01063         SLW     T+10
      00157 -0500 00 0 01050         CAL     TEMP+2
      00160  0602 00 0 01064         SLW     T+11
                              *
      00161 -0500 00 0 60274         CAL     ARGLST+5      GET DATE/TIME USER LAST DUMPED
      00162 -0100 00 0 00170         TNZ     MPC
      00163 -0500 00 0 01042         CAL     BLANKS        BLANKS IF DATE/TIME ZERO
      00164  0602 00 0 01046         SLW     TEMP
      00165  0602 00 0 01047         SLW     TEMP+1
      00166  0602 00 0 01050         SLW     TEMP+2
      00167  0020 00 0 00171         TRA     *+2
      00170  0074 00 2 00254   MPC   TSX     DT,2          CONVERT DATE/TIME USER LAST DUMPED TO BCD
      00171  0560 00 0 01046         LDQ     TEMP          AND PACK AND STORE IT IN LINE BUFFER
      00172 -0763 00 0 00006         LGL     6
      00173 -0500 00 0 01042         CAL     BLANKS
      00174 -0763 00 0 00030         LGL     24
      00175  0602 00 0 01065         SLW     T+12
      00176 -0763 00 0 00006         LGL     6
      00177  0560 00 0 01047         LDQ     TEMP+1
      00200 -0763 00 0 00036         LGL     30
      00201  0602 00 0 01066         SLW     T+13
      00202 -0763 00 0 00006         LGL     6
      00203 -0520 00 0 60266         NZT     CDSW
      00204  0020 00 0 00207         TRA     *+3           SKIP IF INCREMENTAL DUMP
      00205  0560 00 0 01042         LDQ     BLANKS        IF COMPLETE DUMP ARGLST+5 IS
1            DUMP TAPE FILE 'MAP' PREPARATION ROUTINES....M.J.BAILEY,12/15/64                    PAGE 4

      00206  0020 00 0 00210         TRA     *+2           DATE FILE LAST USED (NO TIME)
      00207  0560 00 0 01050         LDQ     TEMP+2
      00210 -0763 00 0 00036         LGL     30
      00211  0602 00 0 01067         SLW     T+14
      00212 -0763 00 0 00006         LGL     6
      00213  0602 00 0 01044         SLW     HOLD          HOLD LAST CHAR. OF DATE/TIME LAST DUMPED
                              *
      00214 -0500 00 0 60275         CAL     ARGLST+6      GET DATE/TIME OF THIS DUMP
      00215 -0100 00 0 00223         TNZ     MPD
      00216 -0500 00 0 01042         CAL     BLANKS        BLANKS IF DATE/TIME ZERO
      00217  0602 00 0 01046         SLW     TEMP
      00220  0602 00 0 01047         SLW     TEMP+1
      00221  0602 00 0 01050         SLW     TEMP+2
      00222  0020 00 0 00224         TRA     *+2
      00223  0074 00 2 00254   MPD   TSX     DT,2          CONVERT DATE/TIME OF THIS DUMP TO BCD
      00224  0560 00 0 01046         LDQ     TEMP          AND PACK AND STORE IT IN LINE BUFFER
      00225 -0763 00 0 00006         LGL     6
 T    00226 -0754 00 0 00000         PXD
      00227 -0500 00 0 01044         CAL     HOLD
      00230 -0763 00 0 00036         LGL     30
      00231  0602 00 0 01070         SLW     T+15
      00232 -0500 00 0 01047         CAL     TEMP+1
      00233  0602 00 0 01071         SLW     T+16
      00234 -0500 00 0 01050         CAL     TEMP+2
      00235  0602 00 0 01072         SLW     T+17
                              *
      00236  0074 00 4 00007         TSX     WRFILE,4      WRITE LINE FROM BUFFER ONTO DISK FILE
 TD   00237  3 00000 0 01040         TXH     MAP1
 TD   00240  3 00000 0 01041         TXH     MAP2
 TD   00241  3 00000 0 01073         TXH     =0
      00242  2 01045 0 01051         TIX     T,,L18
                              *
      00243  0774 00 1 00000   MPE   AXT     **,1
      00244  0774 00 2 00000  MPF    AXT     **,2
      00245  0074 00 4 00013         TSX     $GDSIG,4
      00246  0774 00 4 00000   MPG   AXT     **,4
      00247  0020 00 4 00001         TRA     1,4           RETURN TO CALLER
                              *
      00250  0074 00 4 00006  MWAIT  TSX     FWAIT,4
 TD   00251  3 00000 0 01040         TXH     MAP1
 TD   00252  3 00000 0 01041         TXH     MAP2
      00253  0020 00 0 00062         TRA     NOCLOS
                              *
                              *      CONVERT I/O SYSTEM FORM DATE/TIME TO
                              *      '0 MM/DD/YY HHMM.M' IN BCD,
                              *      AND STORE IN TEMP,TEMP+1,TEMP+2.
                              *
      00254  0074 00 4 00014   DT    TSX     $IOBDT,4      CONVERT I/O SYSTEM DATE/TIME
      00255  0602 00 0 01050         SLW     TEMP+2        TO HHMM.M IN AC AND MMDDYY IN MQ
      00256 -0500 00 0 01101         CAL     =O006060
      00257 -0763 00 0 00014         LGL     12
      00260  0767 00 0 00006         ALS     6
      00261 -0501 00 0 01076         ORA     =O61
      00262  0602 00 0 01046         SLW     TEMP          '0  MM/' TO TEMP
 T    00263 -0754 00 0 00000         PXD
      00264 -0763 00 0 00014         LGL     12
1            DUMP TAPE FILE 'MAP' PREPARATION ROUTINES....M.J.BAILEY,12/15/64                    PAGE 5

      00265  0767 00 0 00006         ALS     6
      00266 -0501 00 0 01076         ORA     =O61
      00267 -0763 00 0 00014         LGL     12
      00270  0767 00 0 00006         ALS     6
      00271 -0501 00 0 01075         ORA     =O60
      00272  0602 00 0 01047         SLW     TEMP+1        'DD/YY ' TO TEMP+1
 T    00273 -0754 00 0 00000         PXD
      00274  0020 00 2 00001         TRA     1,2
                              *
                              *      INITIATE MAP FILE
                              *
      00275  0634 00 4 00326  SMF    SXA     SMF4,4
      00276  0074 00 4 00000         TSX     CHFILE,4
 TD   00277  3 00000 0 01040         TXH     MAP1
 TD   00300  3 00000 0 01041         TXH     MAP2
 TD   00301  3 00000 0 01073         TXH     =O0           DE-PROTECT OLD 'MAP' FILE
 TD   00302  3 00000 0 01102         TXH     =-0
 TD   00303  3 00000 0 01102         TXH     =-0
 TD   00304  3 00000 0 00305         TXH     *+1
                              *
      00305  0074 00 4 00001         TSX     DELFIL,4      DELETE IT
 TD   00306  3 00000 0 01040         TXH     MAP1
 TD   00307  3 00000 0 01041         TXH     MAP2
 TD   00310  3 00000 0 00311         TXH     *+1
      00311  0020 00 0 00313         TRA     *+2
      00312  0634 00 4 00326  SMF2   SXA     SMF4,4
                              *
      00313  0074 00 4 00002         TSX     OPEN,4        OPEN NEW MAP FILE
 TD   00314  3 00000 0 00626         TXH     W
 TD   00315  3 00000 0 01040         TXH     MAP1
 TD   00316  3 00000 0 01041         TXH     MAP2
 TD   00317  3 00000 0 01100         TXH     =O130         (MODE PROTECTED,PRIVATE)
 TD   00320  3 00000 0 00630         TXH     LDSK
      00321  0074 00 4 00003         TSX     BUFFER,4      ASSIGN INTERNAL BUFFERS
 TD   00322  3 00000 0 01040         TXH     MAP1
 TD   00323  3 00000 0 01041         TXH     MAP2
      00324  2 00627 0 60276         TIX     IMP,,LIMP
      00325  0074 00 4 00013         TSX     $GDSIG,4
      00326  0774 00 4 00000  SMF4   AXT     **,4
      00327  0020 00 4 00001         TRA     1,4
                              *
                              *      WRITE HEADING FOR MAP OF SYSTEM FILE COMPLETE DUMP AND
                              *       FOR MAP OF USER FILE COMPLETE DUMP TAPES.
                              *
      00330  0634 00 4 00360  WMH    SXA     WMH4,4
      00331 -0500 60 4 00001         CAL*    1,4           STATE WHICH SET OF FILES BEING DUMPED
      00332  0602 00 0 00701         SLW     CMA           (SYSTEM OR USERS')
      00333 -0500 00 0 60264         CAL     TIME       STORE TIME DUMPING STARTED
      00334  0602 00 0 00717         SLW     CMB
      00335  0560 00 0 60265         LDQ     DATE       STORE DATE DUMPING STARTED
      00336 -0500 00 0 01107         CAL     =O777777770000
      00337  0320 00 0 00720         ANS     CMC
 T    00340 -0754 00 0 00000         PXD
      00341 -0763 00 0 00014         LGL     12
      00342 -0602 00 0 00720         ORS     CMC           STORE MONTH DIGITS OF DATE DUMPING STARTED
      00343 -0500 00 0 01105         CAL     =O770000770000
1            DUMP TAPE FILE 'MAP' PREPARATION ROUTINES....M.J.BAILEY,12/15/64                    PAGE 6

      00344  0320 00 0 00721         ANS     CMD
 T    00345 -0754 00 0 00000         PXD
      00346 -0763 00 0 00014         LGL     12
      00347  0767 00 0 00006         ALS     6
      00350 -0763 00 0 00014         LGL     12
      00351 -0602 00 0 00721         ORS     CMD           STORE DAY,YEAR DIGITS OF DATE DUMP STARTED
                              *
      00352  0074 00 4 00007         TSX     WRFILE,4      WRITE HEADING ON MAP FILE
 TD   00353  3 00000 0 01040         TXH     MAP1
 TD   00354  3 00000 0 01041         TXH     MAP2          (WHICH IS LINE-MARKED BCD)
 TD   00355  3 00000 0 01073         TXH     =0
      00356  2 01001 0 00645         TIX     CDMHED,,LCMHD
      00357  0074 00 4 00013         TSX     $GDSIG,4
      00360  0774 00 4 00000  WMH4   AXT     **,4
      00361  0020 00 4 00002         TRA     2,4
                              *
                              *      END 'MAP' FILE
                              *
      00362  0634 00 4 00453  EMF    SXA     EMF4,4
      00363  0500 00 4 00001         CLA     1,4           SET ADDRESS OF THE POSITION OF DATE/TIME
      00364 -0520 60 4 00001         NZT*    1,4           DUMPING ENDED IN HEADING OF MAP
      00365  0500 00 0 01020         CLA     AMPINS
      00366  0621 00 0 00445         STA     EMF1
                              *
      00367  0074 00 4 00015         TSX     $BCDDTM,4     GET CURRENT DATE/TIME FOR 'MAP' HEADING
      00370  0602 00 0 01014         SLW     MPINS         STORE TIME DUMPING FINISHED
      00371 -0500 00 0 01107         CAL     =O777777770000
      00372  0320 00 0 01015         ANS     MPINS+1
 T    00373 -0754 00 0 00000         PXD
      00374 -0763 00 0 00014         LGL     12
      00375 -0602 00 0 01015         ORS     MPINS+1       STORE 1ST PART OF DATE DUMPING ENDED
      00376 -0500 00 0 01105         CAL     =O770000770000
      00377  0320 00 0 01016         ANS     MPINS+2
 T    00400 -0754 00 0 00000         PXD
      00401 -0763 00 0 00014         LGL     12
      00402  0767 00 0 00006         ALS     6
      00403 -0763 00 0 00014         LGL     12
      00404 -0602 00 0 01016         ORS     MPINS+2       STORE 2ND PART OF DATE DUMPING ENDED
                              *
      00405  0074 00 4 00010         TSX     ATTACH,4
 TD   00406  3 00000 0 62727         TXH     DMPUSR
 TD   00407  3 00000 0 62726         TXH     DMPRGR
      00410  0074 00 4 00006         TSX     FWAIT,4       WAIT FOR PREVIOUS 'MAP' FILE WRITE TO END
 TD   00411  3 00000 0 01040         TXH     MAP1
 TD   00412  3 00000 0 01041         TXH     MAP2
      00413  0074 00 4 00007         TSX     WRFILE,4      WRITE MAP TAIL ENDING
 TD   00414  3 00000 0 01040         TXH     MAP1
 TD   00415  3 00000 0 01041         TXH     MAP2
 TD   00416  3 00000 0 01073         TXH     =0
      00417  2 01013 0 01002  FAKOUT TIX     MAPTL,,LMTL
      00420  0074 00 4 00006         TSX     FWAIT,4       WAIT FOR IT
 TD   00421  3 00000 0 01040         TXH     MAP1
 TD   00422  3 00000 0 01041         TXH     MAP2
      00423  0074 00 4 00004         TSX     CLOSE,4
 TD   00424  3 00000 0 01040         TXH     MAP1
 TD   00425  3 00000 0 01041         TXH     MAP2
1            DUMP TAPE FILE 'MAP' PREPARATION ROUTINES....M.J.BAILEY,12/15/64                    PAGE 7

      00426  0074 00 4 00000         TSX     CHFILE,4
 TD   00427  3 00000 0 01040         TXH     MAP1
 TD   00430  3 00000 0 01041         TXH     MAP2
 TD   00431  3 00000 0 01077         TXH     =O120
      00432  0074 00 4 00002         TSX     OPEN,4
 TD   00433  3 00000 0 00626         TXH     W
 TD   00434  3 00000 0 01040         TXH     MAP1
 TD   00435  3 00000 0 01041         TXH     MAP2
      00436  0074 00 4 00003         TSX     BUFFER,4
 TD   00437  3 00000 0 01040         TXH     MAP1
 TD   00440  3 00000 0 01041         TXH     MAP2
      00441  3 00627 0 60276         TXH     IMP,,LIMP
                              *
      00442  0074 00 4 00007         TSX     WRFILE,4      INSERT DATE/TIME DUMPING ENDED
 TD   00443  3 00000 0 01040         TXH     MAP1          INTO HEADING OF MAP
 TD   00444  3 00000 0 01041         TXH     MAP2
 TD   00445  3 00000 0 00000  EMF1   TXH     **
      00446  3 00003 0 01014         TXH     MPINS,,3
      00447  0074 00 4 00004         TSX     CLOSE,4       CLOSE IT
 TD   00450  3 00000 0 01040         TXH     MAP1
 TD   00451  3 00000 0 01041         TXH     MAP2
                              *
      00452  0074 00 4 00013         TSX     $GDSIG,4
      00453  0774 00 4 00000  EMF4   AXT     **,4
      00454  0020 00 4 00002         TRA     2,4           RETURN TO CALLER
                              *
                              *      ENTRY TO SAVE MAP AFTER MACHINE FAILURE
                              *
      00455  0634 00 4 00472  SAVMAP SXA     S4,4
      00456 -0500 00 4 00001         CAL     1,4
      00457  0621 00 0 00466         STA     S4-4
      00460  0074 00 4 00312         TSX     SMF2,4
      00461 -0500 00 0 00417         CAL     FAKOUT
      00462  0602 00 0 00474         SLW     FSAVE
      00463 -0500 00 0 00475         CAL     ICT
      00464  0602 00 0 00417         SLW     FAKOUT
      00465  0074 00 4 00362         TSX     EMF,4
 TD   00466  3 00000 0 00000         TXH     **
      00467 -0500 00 0 00474         CAL     FSAVE
      00470  0602 00 0 00417         SLW     FAKOUT
      00471  0074 00 4 00516         TSX     DMF2,4
      00472  0774 00 4 00000  S4     AXT     **,4
      00473  0020 00 4 00001         TRA     1,4
                              *
      00474  0 00000 0 00000  FSAVE  PZE
      00475  2 00644 0 00631  ICT    TIX     FLM,,LFLM
                              *
                              *      DUMP MAP FILE AND COPY IT ON TO PRINT OUTPUT TAPE
                              *
      00476  0634 00 4 00576  DMF    SXA     DMF4,4
      00477  0634 00 1 00577         SXA     DMF1,1
      00500  0074 00 4 00000         TSX     CHFILE,4
 TD   00501  3 00000 0 01040         TXH     MAP1          MAKE IT PERMANENT MODE IN
 TD   00502  3 00000 0 01041         TXH     MAP2          ORDER TO DUMP IT
 TD   00503  3 00000 0 01077         TXH     =O120
      00504 -0500 00 0 01040         CAL     MAP1          MAP FILE'S NAMES
1            DUMP TAPE FILE 'MAP' PREPARATION ROUTINES....M.J.BAILEY,12/15/64                    PAGE 8

      00505  0602 00 0 62741         SLW     UFDENT
      00506 -0500 00 0 01041         CAL     MAP2
      00507  0602 00 0 62742         SLW     UFDENT+1
      00510 -0500 00 0 62727         CAL     DMPUSR        DUMP PROGRAM'S U.F.D. NAMES
      00511  0602 00 0 64510         SLW     MFDENT
      00512 -0500 00 0 62726         CAL     DMPRGR
      00513  0602 00 0 64511         SLW     MFDENT+1
      00514  0074 00 4 00016         TSX     $DMPFIL,4     DUMP MAP FILE
      00515  0020 00 0 00520         TRA     *+3
                              *
      00516  0634 00 4 00576  DMF2   SXA     DMF4,4
      00517  0634 00 1 00577         SXA     DMF1,1
      00520  0074 00 4 00015         TSX     $BCDDTM,4     CURRENT BCD DATE TIME
      00521 -0600 00 0 01023         STQ     PRM5          DATE WILL BE 1ST PART OF NEW MAP FILE NAME
      00522  0602 00 0 01025         SLW     PRM6          TIME  ,,  ,, 2ND  ,,  ,,  ,,  ,,  ,,   ,,
      00523  0074 00 4 00000         TSX     CHFILE,4      CHANGE NAME OF MAP FILE FOR PRINTING
 TD   00524  3 00000 0 01040         TXH     MAP1
 TD   00525  3 00000 0 01041         TXH     MAP2
 TD   00526  3 00000 0 01073         TXH     =0            REGULAR PERMANENT MODE
 TD   00527  3 00000 0 01023         TXH     PRM5
 TD   00530  3 00000 0 01025         TXH     PRM6
                              *
      00531  0774 00 1 00003         AXT     3,1
      00532  0074 00 4 00005         TSX     TILOCK,4
      00533  0 00000 0 00535         PZE     ORQFS
      00534  0621 00 0 00574         STA     DMFC
      00535  0074 00 4 00011  ORQFS  TSX     FSTATE,4
 TD   00536  3 00000 0 01103         TXH     =HOUTPUT
 TD   00537  3 00000 0 01104         TXH     =HRQUEST
      00540  3 00002 0 00606         TXH     A,,2
 TD   00541  3 00000 0 00550         TXH     DMFA
      00542 -0500 00 0 00607         CAL     A+1
      00543 -0320 00 0 01074         ANA     =1
      00544 -0100 00 0 00601         TNZ     DELRQS
      00545 -0500 00 0 00607         CAL     A+1
      00546 -0320 00 0 00616         ANA     SMODE
      00547 -0100 00 0 00535         TNZ     ORQFS
      00550  0074 00 4 00002  DMFA   TSX     OPEN,4        MAKE PRINT OUTPUT REQUEST FOR MAP
 TD   00551  3 00000 0 00626         TXH     W
 TD   00552  3 00000 0 01103         TXH     =HOUTPUT
 TD   00553  3 00000 0 01104         TXH     =HRQUEST
 TD   00554  3 00000 0 01073         TXH     =0
 TD   00555  3 00000 0 00630         TXH     LDSK
      00556  0074 00 4 00003         TSX     BUFFER,4
 TD   00557  3 00000 0 01103         TXH     =HOUTPUT
 TD   00560  3 00000 0 01104         TXH     =HRQUEST
      00561  2 00627 0 60276         TIX     IMP,,LIMP
      00562  0074 00 4 00007         TSX     WRFILE,4
 TD   00563  3 00000 0 01103         TXH     =HOUTPUT
 TD   00564  3 00000 0 01104         TXH     =HRQUEST
 TD   00565  3 00000 0 01073         TXH     =0
      00566  2 01037 0 01021         TIX     PRM1,,L14
      00567  0074 00 4 00004         TSX     CLOSE,4
 TD   00570  3 00000 0 01103         TXH     =HOUTPUT
 TD   00571  3 00000 0 01104         TXH     =HRQUEST
 TD   00572  3 00000 0 00617         TXH     ERR
1            DUMP TAPE FILE 'MAP' PREPARATION ROUTINES....M.J.BAILEY,12/15/64                    PAGE 9

      00573  0074 00 4 00005  DMFB   TSX     TILOCK,4
      00574  0 00000 0 00000  DMFC   PZE     **
                              *
      00575  0074 00 4 00013         TSX     $GDSIG,4
      00576  0774 00 4 00000  DMF4   AXT     **,4
      00577  0774 00 1 00000  DMF1   AXT     **,1
      00600  0020 00 4 00001         TRA     1,4           RETURN TO CALLER
      00601  0074 00 4 00001  DELRQS TSX     DELFIL,4
 TD   00602  3 00000 0 01103         TXH     =HOUTPUT
 TD   00603  3 00000 0 01104         TXH     =HRQUEST
 TD   00604  3 00000 0 00605         TXH     *+1
      00605  0020 00 0 00550         TRA     DMFA
                              *
      00606                   A      BSS     8
      00616 +000000000124     SMODE  OCT     124
                              *
                              *
      00617  0074 00 4 00017  ERR    TSX     $PRNTER,4
      00620  0074 00 4 00013         TSX     $GDSIG,4
      00621  0074 00 4 00004         TSX     CLOSE,4
 TD   00622  3 00000 0 01103         TXH     =HOUTPUT
 TD   00623  3 00000 0 01104         TXH     =HRQUEST
      00624  2 00001 1 00550         TIX     DMFA,1,1
      00625  0020 00 0 00573         TRA     DMFB
                              *
      00626  666060606060     W      BCI     1,W
      00627  0 00000 0 00660  LIMP   PZE     NW
      00630  0 00000 0 00002  LDSK   PZE     DISK
                              *
      00631 -377777000001     FLM    OCT     777777000001
      00632  606060606060            BCI     1,
      00633 -377777000001            OCT     777777000001
      00634  606060606060            BCI     1,
      00635 -377777000006            OCT     777777000006
      00636  006060606060            BCI     6,0     END OF MAP (INCOMPLETE TAPE)
      00637  254524604626
      00640  604421476074
      00641  314523464447
      00642  432563256063
      00643  214725346060
      00644  0 00000 0 00013  LFLM   PZE     *-FLM
                              *
      00645 -377777000016     CDMHED OCT     777777000016
      00646  016060606060            BCI     7,1
      00647  606060606060
      00650  606060606060
      00651  606060606060
      00652  606060606060
      00653  606060606060
      00654  606060606060
      00655  604421476046            BCI     7, MAP OF THE CONTENTS OF THE DUMP TAPE FILE
      00656  266063302560
      00657  234645632545
      00660  636260462660
      00661  633025602464
      00662  444760632147
1            DUMP TAPE FILE 'MAP' PREPARATION ROUTINES....M.J.BAILEY,12/15/64                    PAGE 10

      00663  256026314325
      00664 -377777000017            OCT     777777000017
      00665  006060606060            BCI     7,0
      00666  606060606060
      00667  606060606060
      00670  606060606060
      00671  606060606060
      00672  606060606060
      00673  606060606060
      00674  602646516063            BCI     5, FOR THE COMPLETE DUMP OF THE
      00675  302560234644
      00676  474325632560
      00677  246444476046
      00700  266063302560
      00701  606060606060     CMA    BCI     3,       FILES,
      00702  602631432562
      00703  736060606060
      00704 -377777000015            OCT     777777000015
      00705  006060606060            BCI     7,0
      00706  606060606060
      00707  606060606060
      00710  606060606060
      00711  606060606060
      00712  606060606060
      00713  606060606060
      00714  606630312330            BCI     3, WHICH STARTED AT
      00715  606263215163
      00716  252460216360
      00717  606060606060     CMB    BCI     1,
      00720  604645606060     CMC    BCI     1, ON
      00721  616060616060     CMD    BCI     1,/  /
      00722 -377777000016            OCT     777777000016
      00723  006060606060            BCI     7,0
      00724  606060606060
      00725  606060606060
      00726  606060606060
      00727  606060606060
      00730  606060606060
      00731  606060606060
      00732  606021452460            BCI     3,  AND FINISHED AT
      00733  263145316230
      00734  252460216360
      00735  606060606060     CME    BCI     1,
      00736  604645606060            BCI     1, ON
      00737  616060616060            BCI     2,/  /  .
      00740  336060606060
      00741 -377777000017            OCT     777777000017
      00742  006060606331            BCI     9,0   TIME DUMPED          USER           FILE      DATE
      00743  442560246444
      00744  472524606060
      00745  606060606060
      00746  606462255160
      00747  606060606060
      00750  606060602631
      00751  432560606060
      00752  606024216325
1            DUMP TAPE FILE 'MAP' PREPARATION ROUTINES....M.J.BAILEY,12/15/64                    PAGE 11

      00753  616331442560            BCI     6,/TIME OF FILE    WHEN LAST USED
      00754  462660263143
      00755  256060606066
      00756  302545604321
      00757  626360646225
      00760  246060606060
      00761 -377777000017            OCT     777777000017
      00762  606060604040            BCI     9,    -----------          ----           ----      ----
      00763  404040404040
      00764  404040606060
      00765  606060606060
      00766  604040404060
      00767  606060606060
      00770  606060604040
      00771  404060606060
      00772  606040404040
      00773  404040404040            BCI     6,-------------    --------------
      00774  404040404040
      00775  406060606040
      00776  404040404040
      00777  404040404040
      01000  406060606060
      01001  0 00000 0 00134  LCMHD  PZE     *-CDMHED
      01002 -377777000001     MAPTL  OCT     777777000001
      01003  606060606060            BCI     1,
      01004 -377777000001            OCT     777777000001
      01005  606060606060            BCI     1,
      01006 -377777000004            OCT     777777000004
      01007  006060606060            BCI     4,0         END OF MAP.
      01010  606060602545
      01011  246046266044
      01012  214733606060
      01013  0 00000 0 00011  LMTL   PZE     *-MAPTL
      01014  606060606060     MPINS  BCI     3,       ON   /  /
      01015  604645606060
      01016  616060616060
      01017  0 00000 0 00071  IMPINS PZE     CME-CDMHED+1
      01020  0 00000 0 01017  AMPINS PZE     IMPINS
                              *
      01021  475145242543     PRM1   BCI     1,PRNDEL
      01022  606060606060            BCI     1,
      01023  606060606060     PRM5   BCI     1,            MAP FILE OUTPUT REQUEST NAME PART 1
      01024  606060606060            BCI     1,
      01025  606060606060     PRM6   BCI     1,            MAP FILE OUTPUT REQUEST NAME PART 2
      01026  606060606060            BCI     7,
      01027  606060606060
      01030  606060606060
      01031  606060606060
      01032  606060606060
      01033  606060606060
      01034  606060606060
      01035  602300000506            BCI     2, C0056 99999
      01036  601111111111
      01037  0 00000 0 00016  L14    PZE     14
                              *
      01040  246444476347      MAP1  BCI     1,DUMPTP
1            DUMP TAPE FILE 'MAP' PREPARATION ROUTINES....M.J.BAILEY,12/15/64                    PAGE 12

      01041  601444214714      MAP2  BCI     1, 'MAP'
      01042  606060606060     BLANKS BCI     1,
      01043  0 00000 0 00031  COUNT  PZE     25
      01044  0 00000 0 00000   HOLD  PZE
      01045  0 00000 0 00022   L18   PZE     18
      01046                   TEMP   BSS     3
      01051                   T      BSS     18
                              *
                                     INSERT  DCMEQB
                              *
                              *  .  .  .  .  .  .  .  .  .  .  .  .  .  .  .  .  .  .
                              *    COMMON AND EQUIVALENCE FOR GENERAL DUMP PROGRAM
                              *  .  .  .  .  .  .  .  .  .  .  .  .  .  .  .  .  .  .
                              *
                      075032  DEMKEY BOOL    75032         CORE A LOCATION FOR DAEMON'S KEY SETTING
                      075105  SYSTIM BOOL    75105         CORE A LOCATION FOR SYSTEM  TIME
                      075104  SYSDAT BOOL    75104         CORE A LOCATION FOR SYSTEM INIT. DATE
                      076147  RCODE  BOOL    76147         CORE A LOCATION FOR RESTRICTION CODE VECTOR
                      075040  AUTOND BOOL    75040         CORE A AUTOMATIC LOGOUT INDICATOR
                      075052  NUSERS BOOL    75052         CORE A LOGGED-IN USER COUNT
                      076426  PROBN  BOOL    76426         CORE A PROBNO ARRAY
                      076362  PROGN  BOOL    76362         CORE A PROGNO ARRAY
                      075113  PB     BOOL    75113         CORE A GUARANTEED PERCENTAGE VECTOR BASE
                      000043  N      BOOL    43            CORE A MAX. NO. OF USERS (SIZE OF PROBN)
                              *
                      000017  BASE   BOOL    17            KEY CODE BASE
                      000001  I      BOOL    1             KEY CODE TO START INCREMENTAL DUMP
                      000002  PAUSE  BOOL    2             KEY CODE TO WAIT FOR 1 MIN.
                      000003  C      BOOL    3             KEY CODE TO DO COMPLETE DUMP
                      000004  AK     BOOL    4             KEY CODE FOR IMPENDING AUTOLOGOUT
                      000005  ENFLSH BOOL    5             KEY CODE TO ENTER FLUSH MODE
                      000006  LVFLSH BOOL    6             KEY CODE TO LEAVE FLUSH MODE
                      000007  ENDTAP BOOL    7             KEY CODE TO TERMINATE DUMP TAPE FILE
                      000010  INT    BOOL    10            SIMULATE INTERRUPT
                       00660  RECSIZ EQU     432           TAPE RECORD SIZE
                       00006   NX    EQU     6             MAX. NO. OF SYSTEM FILE OWNERS
                       00030  NCD    EQU     24            MAX. NO. 'DAYS' NON-USE OF CURRENT FILES
                       00014  DINC   EQU     12            NO. DAYS OF 'RECENCY' INCREMENT (C.DUMP)
                       01274  U      EQU     700           MAX. NO. USERS IN MFD USER LIST
                       03300  TBSIZ  EQU     4*RECSIZ      TAPE BUFFER SIZE
                       00007  ERYSIZ EQU     7             I/O SYSTEM ERROR ARRAY SIZE
                       00014  ERCODA EQU     12            'OPEN' ERROR CODE FOR FILE NOT FOUND
                       00016  ERCODB EQU     14            'OPEN' ERROR CODE RQSTD. DEVICE UNAVBLE
                       00660  NW     EQU     432           SIZE OF SECONDARY I/O FILE BUFFERS
                       00001  LSDRUM EQU     1             I/O SYSTEM DEVICE CODE FOR L.S.DRUM
                       00002    DISK EQU     2             I/O SYSTEM DEVICE CODE FOR DISK
                       00003   TAPE  EQU     3             I/O SYSTEM DEVICE CODE FOR TAPE
                       00010  NHOUR  EQU     8             NO. OF HOURS IN A 'DAY'
                       77461  KEYVAL COMMON  1             LAST KEY SETTING READ FROM SUPERVISOR
                       77460  FLSHSW COMMON  1             FLUSH MODE SWITCH
                       77457  ENTPSW COMMON  1             OPERATOR-REQUESTED-END-TAPE INDICATOR
                       77456  NMFDU  COMMON  1             NO. USERS CURRENTLY IN LIST
                       77455  EXEMPT COMMON  2*NX          LIST OF SYSTEM FILE OWNERS
                       77441  NXMPT  COMMON  1             NO. FILE USERS EXEMPT FROM DUMP IN DCYCLE
                       77440  DTLD   COMMON  U             TIME LAST DUMPED FOR EACH USER
                       76144  PROGNO COMMON  U             PROGRAMMER NO. OF EACH USER
1            DUMP TAPE FILE 'MAP' PREPARATION ROUTINES....M.J.BAILEY,12/15/64                    PAGE 13

                       74650  PROBNO COMMON  U             PROBLEM NO. OF EACH USER
                       73354   FLUSH COMMON  1             NON-ZERO INDICATES FLUSH MODE IS FORCED
                       73353   TND   COMMON  1             TIME OF NEXT DUMP FOR CURRENT USER
                       70053         COMMON  TBSIZ-1       TAPE BUFFER
                       70053  TPBUF  COMMON  1             TAPE BUFFER 1ST WORD
                       64553         COMMON  TBSIZ-1       2ND TAPE BUFFER
                       64553  TPBUF2 COMMON  1             2ND TAPE BUFFER, 1ST WORD
                       64544         COMMON  ERYSIZ-1      ERROR ARRAY
                       64544  ERAY   COMMON  1             ERROR ARRAY 1ST WORD
                       64526         COMMON  13            PRINT BUFFER
                       64526   PBF   COMMON  1             PRINT BUFFER 1ST WORD
                       64510         COMMON  13            MFD ENTRY BUFFER
                       64510  MFDENT COMMON  1             MFD ENTRY BUFFER 1ST WORD
                       63630         COMMON  NW-1          SECONDARY I/0 FILE BUFFER
                       63630   IOBUF COMMON  1             SECONDARY IO BUFFER 1ST WORD
                       62750         COMMON  NW-1          SECONDARY I/O FILE BUFFER
                       62750  IOBUF2 COMMON  1             SECONDARY I/O BUFFER 1ST WORD
                       62747  UFDEOF COMMON  1             ZERO INDICATES EOF IN UFD FILE
                       62741         COMMON  5             PARTIAL UFD ENTRY BUFFER
                       62741  UFDENT COMMON  1             PARTIAL UFD ENTRY BUFFER 1ST WORD
                       62740   MFDC  COMMON  1             NEXT WORD TO BE READ FROM MFD FILE
                       62737   TLD   COMMON  1             TIME LAST DUMP OF USER CURRENTLY DUMPING
                       62736   UFDC  COMMON  1             NEXT UNREAD POS. OF UFDFILE (NORMALLY ZERO)
                       62735  MFDEOF COMMON  1             ZERO INDICATES EOF IN MFD FILE
                       62734   EOFCT COMMON  1             NO. OF WORDS READ BEFORE AN EOF
                       62733   FEOF  COMMON  1             ZERO INDICATES EOF IN A USER FILE
                       62732  EOFCTA COMMON  1             NO. OF WORDS BEFORE AN EOF
                       62731   DMPSW COMMON  1             NON-ZERO INDICATES A FILE HAS BEEN DUMPED
                       62730   DAWN  COMMON  1             TIME OF START OF 'DAY'
                       62727  DMPUSR COMMON  1             PROBLEM NO. OF DUMP/LOAD PACKAGE
                       62726  DMPRGR COMMON  1             PROGRAMMER NO. OF  DITTO.
                       62727  DU     EQU     DMPUSR
                       62726  DP     EQU     DMPRGR
                       62725   MFD1W COMMON  1             NO. OF 1ST GOOD WORD IN MFD AND UFD FILES
                       62723         COMMON  1             2ND PART OF DUMP TAPE FILE (COPY 1) NAME
                       62723  NFN1   COMMON  1             1ST PART OF DUMP TAPE FILE (COPY 1) NAME
                       62721         COMMON  1             2ND PART OF DUMP TAPE FILE (COPY 2) NAME
                       62721   NFN2  COMMON  1             1ST PART OF DUMP TAPE FILE (COPY 2) NAME
                       62720  TNDSW  COMMON  1             INDICATES TIME OF THIS DUMP CURRENT OR NO
                       62040         COMMON  RECSIZ-1      INTERNAL TAPE BUFFER
                       62040   ITB1  COMMON  1                ,,     ,,    ,,  1ST WORD
                       61160         COMMON  RECSIZ-1      INTERNAL TAPE BUFFER
                       61160   ITB2  COMMON  1                ,,     ,,  ,,  1ST WORD
                       61157   DUSK  COMMON  1             TIME OF END OF CURRENT 'DAY'
                       61156   ENDSW COMMON  1             IF 1, NORMAL END-OF-DAY,ELSE OPERATOR ONE
                       60276         COMMON  NW-1          INTERNAL BUFFER FOR 'MAP' FILE
                       60276    IMP  COMMON  1                ,,      ,,    ,,   ,,   ,,  1ST WORD
                       60267         COMMON  6             'MAP' FILE LINE PARAMETER ARRAY
                       60267  ARGLST COMMON  1               ,,   ,,   ,,      ,,      ,,  1ST WORD
                       60266  CDSW   COMMON  1             NON-ZERO DURING COMPLETE DUMP,ELSE ZERO
                       60265  DATE   COMMON  1             DATE THE DUMP NOW IN PROGRESS BEGAN
                       60264  TIME   COMMON  1             TIME DUMP NOW IN PROGRESS BEGAN
                       60263  TCYCLE COMMON  1             'TIME' OF LAST CYCLE ON DUMP TAPE FILE
                       60262  TFOSW  COMMON  1             NON-ZERO IF DUMP TAPE FILE IS OPEN
                       60261  ALOG   COMMON  1             NON-ZERO IF AUTOLOGOUT ON
                       60260  SW1    COMMON  1
1            DUMP TAPE FILE 'MAP' PREPARATION ROUTINES....M.J.BAILEY,12/15/64                    PAGE 14

                       60257  TCP    COMMON  1
                       60256  TNDSAV COMMON  1
                       60255  ODAWN  COMMON  1             TIME OF START OF PREVIOUS 'DAY'
                       60244         COMMON  8             TAPE LABEL
                       60244  TAPEID COMMON  1             TAPE LABEL 1ST WORD
                       60243  SKELSW COMMON  1
                       60254  REELNO EQU     TAPEID+8
                                     END

        LITERALS
      01073  000000000000
      01074  000000000001
      01075  000000000060
      01076  000000000061
      01077  000000000120
      01100  000000000130
      01101  000000006060
      01102  400000000000
      01103  466463476463
      01104  515064256263
      01105  770000770000
      01106  777777000021
      01107  777777770000
1            DUMP TAPE FILE 'MAP' PREPARATION ROUTINES....M.J.BAILEY,12/15/64                    PAGE 1
                        POST PROCESSOR ASSEMBLY DATA

       60242 IS THE LAST LOCATION NOT USED BY THIS PROGRAM
       1110 IS THE FIRST LOCATION NOT USED BY THIS PROGRAM

0REFERENCES TO DEFINED SYMBOLS
        606      A   540,  542,  545
          3      C  1073
          1      I  1073
         43      N  1073
       1051      T    64,   67,  100,  104,  110,  114,  122,  126,  130,  134,  154,  156,  160,  175,  201,  211,  231
                     233,  235,  242
       1274      U  1073
        626      W   314,  433,  551
          4     AK  1073
      62726     DP  1073
        254     DT    71,  146,  170,  223
      62727     DU  1073
        660     NW   627, 1073
          6     NX  1073
      75113     PB  1073
        472     S4   455,  457
        701    CMA   332
        717    CMB   334
        720    CMC   337,  342
        721    CMD   344,  351
        735    CME  1017
        476    DMF     0
        362    EMF     0,  465
        617    ERR   572
        631    FLM   475,  644
         12    GDT    70
        475    ICT   463
      60276    IMP   324,  441,  561, 1073
         10    INT  1073
       1037    L14   566
       1045    L18   242
         50    MPA    27,   31,   34,   36,   41,   43,   46
        146    MPB   140
        170    MPC   162
        223    MPD   215
        243    MPE    24
        244    MPF    23
        246    MPG    22
         30    NCD  1073
      64526    PBF  1073
        275    SMF     0
      60260    SW1  1073
      60257    TCP  1073
      62737    TLD  1073
      73353    TND  1073
        330    WMH     0
      60261   ALOG  1073
         17   BASE  1073
      60266   CDSW   203, 1073
      60265   DATE   335, 1073
1            DUMP TAPE FILE 'MAP' PREPARATION ROUTINES....M.J.BAILEY,12/15/64                    PAGE 2
                        POST PROCESSOR ASSEMBLY DATA

      62730   DAWN  1073
         14   DINC  1073
          2   DISK   630, 1073
        577   DMF1   477,  517
        516   DMF2   471
        576   DMF4   476,  516
        550   DMFA   541,  605,  624
        573   DMFB   625
        574   DMFC   534
      77440   DTLD  1073
      61157   DUSK  1073
        445   EMF1   366
        453   EMF4   362
      64544   ERAY  1073
      62733   FEOF  1073
       1044   HOLD   136,  152,  213,  227
      62040   ITB1  1073
      61160   ITB2  1073
        630   LDSK   320,  555
        644   LFLM   475
        627   LIMP   324,  441,  561
       1013   LMTL   417
       1040   MAP1    40,   56,  237,  251,  277,  306,  315,  322,  353,  411,  414,  421,  424,  427,  434,  437,  443
                     450,  501,  504,  524
       1041   MAP2    45,   57,  240,  252,  300,  307,  316,  323,  354,  412,  415,  422,  425,  430,  435,  440,  444
                     451,  502,  506,  525
      62740   MFDC  1073
      62723   NFN1  1073
      62721   NFN2  1073
          2   OPEN   313,  432,  550
       1021   PRM1   566
       1023   PRM5   521,  527
       1025   PRM6   522,  530
        312   SMF2    60,  460
        326   SMF4   275,  312
          3   TAPE  1073
       1046   TEMP    72,   76,  102,  142,  143,  144,  147,  155,  157,  164,  165,  166,  171,  177,  207,  217,  220
                     221,  224,  232,  234,  255,  262,  272
      60264   TIME   333, 1073
      62736   UFDC  1073
        360   WMH4   330
          4  CLOSE    55,  423,  447,  567,  621
       1043  COUNT    53,   62
      62731  DMPSW  1073
      61156  ENDSW  1073
      62734  EOFCT  1073
      73354  FLUSH  1073
        474  FSAVE   462,  467
          6  FWAIT   250,  410,  420
         13  GDSIG   245,  325,  357,  452,  575,  620
         14  IOBDT   254
      63630  IOBUF  1073
       1001  LCMHD   356
       1002  MAPTL   417, 1013
      62725  MFD1W  1073
1            DUMP TAPE FILE 'MAP' PREPARATION ROUTINES....M.J.BAILEY,12/15/64                    PAGE 3
                        POST PROCESSOR ASSEMBLY DATA

       1014  MPINS   370,  372,  375,  377,  404,  446
        250  MWAIT    54
         10  NHOUR  1073
      77456  NMFDU  1073
      77441  NXMPT  1073
      60255  ODAWN  1073
        535  ORQFS   533,  547
          2  PAUSE  1073
      76426  PROBN  1073
      76362  PROGN  1073
      76147  RCODE  1073
        616  SMODE   546
       3300  TBSIZ  1073
      60262  TFOSW  1073
      62720  TNDSW  1073
      70053  TPBUF  1073
       1020 AMPINS   365
      60267 ARGLST    25,   32,   37,   44,  111,  120,  127,  132,  137,  161,  214, 1073
         10 ATTACH    50,  405
      75040 AUTOND  1073
         15 BCDDTM   367,  520
       1042 BLANKS   112,  124,  141,  163,  173,  205,  216
          3 BUFFER   321,  436,  556
        645 CDMHED   356, 1001, 1017
          0 CHFILE   276,  426,  500,  523
          1 DELFIL   305,  601
        601 DELRQS   544
      75032 DEMKEY  1073
         16 DMPFIL   514
      62726 DMPRGR    33,   52,  407,  512, 1073
      62727 DMPUSR    26,   51,  406,  510, 1073
          7 ENDTAP  1073
          5 ENFLSH  1073
      77457 ENTPSW  1073
      62732 EOFCTA  1073
         14 ERCODA  1073
         16 ERCODB  1073
          7 ERYSIZ  1073
      77455 EXEMPT  1073
        417 FAKOUT   461,  464,  470
      77460 FLSHSW  1073
         11 FSTATE   535
       1017 IMPINS  1020
      62750 IOBUF2  1073
      77461 KEYVAL  1073
          1 LSDRUM  1073
          6 LVFLSH  1073
         22 MAPLIN     0
      64510 MFDENT   511,  513, 1073
      62735 MFDEOF  1073
         62 NOCLOS   253
      75052 NUSERS  1073
         17 PRNTER   617
      74650 PROBNO  1073
      76144 PROGNO  1073
1            DUMP TAPE FILE 'MAP' PREPARATION ROUTINES....M.J.BAILEY,12/15/64                    PAGE 4
                        POST PROCESSOR ASSEMBLY DATA

        660 RECSIZ  1073
      60254 REELNO  1073
        455 SAVMAP     0
      60243 SKELSW  1073
      75104 SYSDAT  1073
      75105 SYSTIM  1073
      60244 TAPEID  1073
      60263 TCYCLE  1073
          5 TILOCK   532,  573
      60256 TNDSAV  1073
      64553 TPBUF2  1073
      62741 UFDENT   505,  507, 1073
      62747 UFDEOF  1073
          7 WRFILE   236,  352,  413,  442,  562

0 NO ERROR IN ABOVE ASSEMBLY.


DFIOMB   BCD 05/28/67 1807.1   21034         00000
