


PHASE1   BCD 02/09/69 0528.0   63509         00000


   PH1   BCD 02/09/69 0525.2   13533         00000
1      PHASE 1 OF THE DAEMON DISK/DRUM RELOAD    D.A. ANDERSON  01/28/68         01/28/69  915.7 PAGE 1

                                     EXTERN  SETIO,FS.TST,EXIT
                                     EXTERN  UPDMFD,ATTACH,ALLOT,SETFIL
                                     EXTERN  TAPFIL,MOUNT,VERIFY,UMOUNT
                                     EXTERN  OPEN,BUFFER,TRFILE,RDWAIT,WRWAIT,CLOSE
                                     EXTERN  UPDATE,RESETF,CHFILE,DELFIL,FERRTN,FSTATE
                                     EXTERN  INITTF,OPENDF,RDF,TERMTF
                                     EXTERN  GETLSG,ASKOPR,PRNTER
                                     EXTERN  DPRINT,FOUT


 M                            CALL   MACRO   NAME,LIST
                                     TSX     NAME,4
                                     IRP     LIST
                                     PTH     LIST
                                     IRP
                              CALL   END

                              ARGS   MACRO   LIST
                                     IRP     LIST
                                     PTH     LIST
                                     IRP
                              ARGS   END
1      PHASE 1 OF THE DAEMON DISK/DRUM RELOAD    D.A. ANDERSON  01/28/68         01/28/69  915.7 PAGE 2


      00000  622563314660     SETIO
      00001  266233636263     FS.TST
      00002  256731636060     EXIT
      00003  644724442624     UPDMFD
      00004  216363212330     ATTACH
      00005  214343466360     ALLOT
      00006  622563263143     SETFIL
      00007  632147263143     TAPFIL
      00010  444664456360     MOUNT
      00011  652551312670     VERIFY
      00012  644446644563     UMOUNT
      00013  464725456060     OPEN
      00014  226426262551     BUFFER
      00015  635126314325     TRFILE
      00016  512466213163     RDWAIT
      00017  665166213163     WRWAIT
      00020  234346622560     CLOSE
      00021  644724216325     UPDATE
      00022  512562256326     RESETF
      00023  233026314325     CHFILE
      00024  242543263143     DELFIL
      00025  262551516345     FERRTN
      00026  266263216325     FSTATE
      00027  314531636326     INITTF
      00030  464725452426     OPENDF
      00031  512426606060     RDF
      00032  632551446326     TERMTF
      00033  272563436227     GETLSG
      00034  216242464751     ASKOPR
      00035  475145632551     PRNTER
      00036  244751314563     DPRINT
      00037  264664636060     FOUT

      00040  0000 00 0 00041         HTR     *+1           WAIT FOR OPERATOR TO CATCH UP

                                         NOW INITIALIZE COMMON

      00041  0600 00 0 75042         STZ     ABANTP        DON'T ABANDON TAPE YET
      00042 -0500 00 0 03410         CAL     =2
      00043  0602 00 0 75041         SLW     NOCHAN        ASSUME TWO-CHANNEL LOAD
      00044 -0500 00 0 03441         CAL     =H C0056
      00045  0602 00 0 75040         SLW     DU            THE DAEMON IS C56 99999
      00046 -0500 00 0 03440         CAL     =H 99999
      00047  0602 00 0 75037         SLW     DP
      00050 -0500 00 0 03432         CAL     =H.LOAD.      SET PRIMARY NAME
      00051  0602 00 0 75036         SLW     LFNA            FOR A-CHANNEL FILE
      00052  0602 00 0 75020         SLW     BFNA                AND B-CHANNEL COPY.
      00053 -0500 00 0 03433         CAL     =H.TAPE.      ALSO
      00054  0602 00 0 75035         SLW     LFNB            SECONDARY
      00055 -0500 00 0 03430         CAL     =HB.COPY          FILE
      00056  0602 00 0 75017         SLW     BFNB                NAMES.
      00057  0500 00 0 03414         CLA     =11           USE LOGICAL UNIT NUMBER
      00060  0601 00 0 75016         STO     AUN             11 ON CHANNEL A,
      00061  0400 00 0 03407         ADD     =1
1      PHASE 1 OF THE DAEMON DISK/DRUM RELOAD    D.A. ANDERSON  01/28/68         01/28/69  915.7 PAGE 3

      00062  0601 00 0 75015         STO     BUN             12 ON B.
      00063  0774 00 4 00004         AXT     4,4
      00064 -0500 00 4 03110         CAL     NFTID+4,4     MOVE NFT ID IN
      00065  0602 00 4 75014         SLW     LABEL+4,4       AS TAPE LABEL.
      00066  2 00001 4 00064         TIX     *-2,4,1
      00067  0600 00 0 02175         STZ     CHANGE        WE HAVEN'T DONE ANYTHING YET.

      00070  0760 00 0 00016         EAXM                  KEEP THE FILE SYSTEM HAPPY
      00071                          CALL    SETIO(=99999) START F.S. WITH AUTHOR DAEMON
      00073 -0500 00 0 01417         CAL     PANIC         IN CASE OF FIRE ...
      00074  0602 00 0 00034         SLW     28
      00075  0074 00 4 00025         TSX     FERRTN,4      SET UP FOR UNEXPECTED ERRORS
      00076  0 00000 0 01707                 UNXERR
      00077                          CALL    UPDMFD(DU,DP,*) MAKE SURE DAEMON IN M.F.D.
      00103                          CALL    ATTACH(DU,DP,FATAL) THIS HAD BETTER WORK.
      00107                          CALL    ALLOT(=3,=32767,=-0,FATAL)   SAME HERE
      00114 -0625 60 0 00001         STL*    FS.TST        NOW BECOME GOD

      00115  0074 00 4 00036         TSX     DPRINT,4
      00116  0 00000 0 00003                 3
      00117  3 00004 0 03127         PTH     BEGIN,,4
                              $1   BEGIN PHASE1 RELOAD.
      00120  0760 00 0 00161         SWT     1             SHOULD WE CLEAN UP FIRST.Q.
      00121  0020 00 0 00123         TRA     *+2             NO.
      00122  0020 00 0 01666         TRA     2CLNUP          YES.

      00123  0600 00 0 02176  NEWTAP STZ     NOLSMF        RESET FLAG FOR NO FINAL M.F.D.

                                         GET RID OF ANY OLD TAPE FILES,

      00124                          CALL    CHFILE(LFNA,LFNB,=1,=-0,=-0,*)
      00133                          CALL    DELFIL(LFNA,LFNB,*)
      00137                          CALL    CHFILE(BFNA,BFNB,=1,=-0,=-0,*)
      00146                          CALL    DELFIL(BFNA,BFNB,*)

                                           AND CREATE SOME NEW ONES.

      00152                          CALL    TAPFIL(LFNA,LFNB,AUN,=1,FATAL)
      00160                          CALL    TAPFIL(BFNA,BFNB,BUN,=1,FATAL)

                                         GET TAPES UP

      00166                          CALL    MOUNT(=1,AUN(LSTNFT,,LLSNFT)FATAL)
      00173  0774 00 2 00012         AXT     10,2          TRY TO VERIFY FOR A WHILE.
      00174                   VER.A  CALL    VERIFY(AUN(LABEL,,4)NVER.A,CODE)
      00201  0074 00 4 00033         TSX     GETLSG,4      CHECK OPTIONS
      00202  0534 00 4 75041         LXA     NOCHAN,4
      00203 -3 00001 4 00211         TXL     NO.B,4,1      SKIP IF ONE-CHANNEL LOAD
      00204                          CALL    MOUNT(=2,BUN(LSTCPY,,LLSCPY)FATAL)
      00211                   NO.B   CALL    INITTF(ABANDN) CHECK TAPES, SPACE TO 1ST FILE

      00213                          CALL    ATTACH(MFD,FILE,FATAL) GO TO M.F.D. AND MAKE SURE
      00217                          CALL    ALLOT(=1,=32767,=-0,FATAL)   WE HAVE SOME ELBOW ROOM.
      00224                          CALL    OPNDF1(BADMF1,ABANDN) GET PREAMBLE FOR 1ST FILE
      00227 -0500 00 0 75021         CAL     PREAM
      00230  0322 00 0 02217         ERA     MFD           THIS SHOULD BE M.F.D. (FILE)
1      PHASE 1 OF THE DAEMON DISK/DRUM RELOAD    D.A. ANDERSON  01/28/68         01/28/69  915.7 PAGE 4

      00231 -0100 00 0 00312         TNZ     NOMFD1          ISN'T. COMPLAIN.
      00232 -0500 00 0 75022         CAL     PREAM+1
      00233  0322 00 0 02220         ERA     FILE
      00234 -0100 00 0 00312         TNZ     NOMFD1        GRUMBLE, GRUMBLE, ...

      00235  0074 00 4 02135         TSX     RDF1,4
      00236  2 02173 0 02200         PTW     ENT,,C3
      00237                          ARGS    (BADMF1,NOMFD1,CODE,ABANDN) SKIP QUOTAS

      00243  0074 00 4 02135  MFD1LP TSX     RDF1,4
      00244  2 02174 0 02200         PTW     ENT,,C7
      00245                          ARGS    (BADMF1,ENDMF1,CODE,ABANDN) GET MFD ENTRY
      00251 -0500 00 0 02201         CAL     ENT+1
      00252 -0340 00 0 02220         LAS     FILE          IF PROG IS (FILE)
      00253  0020 00 0 00255         TRA     *+2
      00254  0020 00 0 00243         TRA     MFD1LP          IGNORE THIS ENTRY
      00255 -0501 00 0 02200         ORA     ENT           ALSO IF PROB AND
      00256  0100 00 0 00243         TZE     MFD1LP          PROG ARE BOTH ZERO.
      00257                          CALL    FSTATE(ENT,ENT+1,(TEMP,,8)NOTIN1,CODE)
      00265  0441 00 0 02210         LDI     TEMP+1        ALREADY IN.
      00266  0054 00  000200         RFT     200           IS HE 200 MODE.Q.
      00267  0020 00 0 00477         TRA     INMFD1          YES. OK.
      00270  0074 00 1 00370         TSX     LOAD.Q,1      NO. WHAT DO WE DO WITH HIM.Q.
      00271                          ARGS    (ENT,ENT+1,ENT+2,ENT+3)
      00275  0 00000 0 00243                 MFD1LP        IGNORE HIM, OR
      00276  0020 00 0 00243         TRA     MFD1LP        LOAD HIM.

      00277 -0520 00 0 75014  BADMF1 NZT     TEOF          ERROR OR END OF FILE.Q.
      00300  0020 00 0 00305         TRA     BD1MF1          ERROR.
      00301  0074 00 4 00036         TSX     DPRINT,4
      00302  0 00000 0 00003                 3
      00303  3 00012 0 03133         PTH     NCMPL1,,10    COMPLAIN,
                              $0END OF LOAD FILE ENCOUNTERED WHILE READING INITIAL M.F.D.
      00304  0020 00 0 01453         TRA     ABAND1          THEN FLUSH THESE TAPES.

      00305  0074 00 4 00036  BD1MF1 TSX     DPRINT,4
      00306  0 00000 0 00003                 3
      00307  3 00005 0 03145         PTH     UNRD1,,5      M.F.D. UNREADABLE
                              $0INITIAL M.F.D. IS UNREADABLE.
      00310 -0774 00 3 00552         AXC     UFD1LP,3      SET 'CONTINUE' RETURN,
      00311  0020 00 0 00316         TRA     ASKOP2          AND BUG AN OPERATOR.

      00312 -0774 00 3 00555  NOMFD1 AXC     UF1LP1,3      HAVE PREAMBLE, ISN'T M.F.D.
      00313  0074 00 4 00036         TSX     DPRINT,4
      00314  0 00000 0 00003                 3
      00315  3 00006 0 03152         PTH     NOMF1M,,6
                              $0NO INITIAL M.F.D. IN THIS FILE.

      00316 -0520 00 0 02175  ASKOP2 NZT     CHANGE        HAS ANYTHING BEEN CHANGED.Q.
      00317  0020 00 0 00361         TRA     ASKOP3          NO. DON'T OFFER TO CLEAN UP.
      00320  0074 00 4 00034         TSX     ASKOPR,4      WHAT DO WE DO NOW.Q.
      00321  3 00004 0 03160         PTH     IGNERR,,4     1) IGNORE THE PROBLEM
      00322  3 00001 0 00331         PTH     CONT1,,CTINUE
      00323  3 00002 0 03164         PTH     CLEAN,,2      2) CLEAN UP THE MESS
      00324  3 00002 0 00360         PTH     1CLNUP,,PAUSE
      00325  3 00005 0 03166         PTH     NWLOAD,,5     3) START NEW LOAD FILE.
1      PHASE 1 OF THE DAEMON DISK/DRUM RELOAD    D.A. ANDERSON  01/28/68         01/28/69  915.7 PAGE 5

      00326  3 00003 0 00335         PTH     NWLOD1,,CHLDFL
      00327  3 00002 0 03173         PTH     GIVUP,,2      4) QUIT
      00330  3 00004 0 01700         PTH     QUIT,,STOPLD

      00331  0074 00 4 00036  CONT1  TSX     DPRINT,4
      00332  0 00000 0 00003                 3
      00333  3 00002 0 03175         PTH     GOMES,,2
                              $ PROCEEDING.
      00334  0020 00 3 00000         TRA     0,3

      00335  0074 00 4 00032  NWLOD1 TSX     TERMTF,4      FINISH THE OLD LOAD FILE
      00336  0074 00 2 01713         TSX     RESET,2       CLOSE ALL FILES
      00337  0074 00 4 00036  NEWLOD TSX     DPRINT,4      HERE TO START NEW TAPE
      00340  0 00000 0 00003                 3
      00341  3 00004 0 03177         PTH     NEWLDF,,4
                              $0STARTING NEW LOAD FILE.
      00342                          CALL    UPDMFD(DU,DP,*)
      00346                          CALL    ATTACH(DU,DP,FATAL) RE-ATTACH TO DAEMON
      00352                          CALL    ALLOT(=3,=32767,=0,FATAL)
      00357  0020 00 0 00123         TRA     NEWTAP          AND RESTART PHASE1.

      00360  0074 00 1 01467  1CLNUP TSX     CLNUP,1

      00361  0074 00 4 00034  ASKOP3 TSX     ASKOPR,4      HERE WE GO AGAIN.
      00362  3 00004 0 03160         PTH     IGNERR,,4     1) IGNORE THE PROBLEM
      00363  3 00001 0 00331         PTH     CONT1,,CTINUE
      00364  3 00005 0 03166         PTH     NWLOAD,,5     2) START NEW LOAD FILE
      00365  3 00003 0 00335         PTH     NWLOD1,,CHLDFL
      00366  3 00002 0 03173         PTH     GIVUP,,2      3) QUIT
      00367  3 00004 0 01700         PTH     QUIT,,STOPLD

      00370  0054 00  000040  LOAD.Q RFT     40            IS THE IGNORE BIT ON.Q.
      00371  0020 60 1 00005         TRA*    5,1             YES.
      00372 -0625 00 0 02175         STL     CHANGE        THINGS WILL HAVE BEEN TWITCHED.
      00373  0500 60 1 00001         CLA*    1,1           GET PROB PROG OF
      00374  0560 60 1 00002         LDQ*    2,1             QUESTIONABLE DIRECTORY
      00375 -0603 00 0 00473         DST     LDQNAM
      00376  0500 60 1 00003         CLA*    3,1           ALSO DLM AND DLU
      00377  0560 60 1 00004         LDQ*    4,1
      00400 -0603 00 0 00475         DST     LDQNAM+2
      00401 -0500 00 0 00473         CAL     LDQNAM        IS THIS 'DU DP'.Q.
      00402  0322 00 0 75040         ERA     DU
      00403 -0100 00 0 00407         TNZ     *+4             NO.
      00404 -0500 00 0 00474         CAL     LDQNAM+1        MAYBE
      00405  0322 00 0 75037         ERA     DP
      00406  0100 00 0 00416         TZE     NOLOD1          YES. IGNORE HIM.
      00407  0760 00 0 00164         SWT     4             ARE WE IGNORING EVERYONE.Q.
      00410  0020 00 0 00436         TRA     LDQUES            NO. BOTHER THE OPERATOR.
      00411  0074 00 4 00036  NOLOAD TSX     DPRINT,4
      00412  0 00000 0 00001                 1
      00413                          ARGS    (1BL(LDQNAM,,2)(IN1,,7))
                              $ ************ ALREADY IN M.F.D., CHANGED TO 144 MODE.
      00416                   NOLOD1 CALL    CHFILE(LDQNAM,LDQNAM+1,=O144,=-0,=-0,IN1ERR)
      00425                          CALL    SETFIL(LDQNAM,LDQNAM+1,TEMP+6,TEMP+7,=-0,=-0,IN1ERR)
      00435  0020 60 1 00005         TRA*    5,1
1      PHASE 1 OF THE DAEMON DISK/DRUM RELOAD    D.A. ANDERSON  01/28/68         01/28/69  915.7 PAGE 6

      00436  0074 00 4 00036  LDQUES TSX     DPRINT,4
      00437  0 00000 0 00002                 2
      00440                          ARGS    (1BL(LDQNAM,,2)(IN1,,3))
                              $ ************ ALREADY IN M.F.D.
      00443  0074 00 4 00034         TSX     ASKOPR,4      WHAT DO WE DO NOW.Q.
      00444  3 00002 0 03212         PTH     LODHM,,2      1) LOAD HIM.
      00445  3 00001 0 00457         PTH     LODHIM,,CTINUE
      00446  3 00004 0 03214         PTH     DONTLD,,4     2) IGNORE HIM.
      00447  3 00003 0 00411         PTH     NOLOAD,,CHLDFL

      00450  0074 00 4 00035  IN1ERR TSX     PRNTER,4      ERROR. COMPLAIN.
      00451  0074 00 2 01720         TSX     RSUFD,2         THEN FLUSH BAD DIRECTORY
      00452                          ARGS    (LDQNAM,LDQNAM+1,LDQNAM+2,LDQNAM+3)
      00456  0020 00 1 00006         TRA     6,1

      00457  0074 00 4 00036  LODHIM TSX     DPRINT,4
      00460  0 00000 0 00001                 1
      00461                          ARGS    (1BL(LDQNAM,,2)(IN1,,3)(WILOAD,,4))
                              $ ************ ALREADY IN M.F.D., WILL BE RE-LOADED.
      00465  0074 00 2 01720  LODHM1 TSX     RSUFD,2       MAKE HIM 344 MODE, ZERO LENGTH.
      00466                          ARGS    (LDQNAM,LDQNAM+1,LDQNAM+2,LDQNAM+3)
      00472  0020 00 1 00006         TRA     6,1

      00473                   LDQNAM BSS     4

      00477                   INMFD1 CALL    OCRBC(TEMP+1)
      00501 -0501 00 0 03437         ORA     =O575757000000
      00502  0602 00 0 02207         SLW     TEMP
      00503  0074 00 4 00036         TSX     DPRINT,4
      00504  0 00000 0 00001                 1
      00505                          ARGS    (1BL(ENT,,2)(INMES1,,3)TEMP)
                              $ ************ FOUND WITH MODE  ******
      00511  0056 00  000040         RNT     040           IF LOADED PROPERLY,
      00512  0020 00 0 00243         TRA     MFD1LP          GO AWAY.
      00513  0074 00 2 01720         TSX     RSUFD,2       OTHERWISE, RESET HIM.
      00514                          ARGS    (ENT,ENT+1,ENT+2,ENT+3)
      00520 -0625 00 0 02175         STL     CHANGE        THINGS HAVE BEEN CHANGED.
      00521  0020 00 0 00243         TRA     MFD1LP

      00522  0534 00 4 02177  NOTIN1 LXA     CODE,4        ANY ERROR EXCEPT
      00523  1 77775 4 00524         TXI     *+1,4,-3        'FILE NOT FOUND'
      00524  3 00000 4 01674         TXH     FATAL,4,0     IS CONSIDERED FATAL.

      00525  0074 00 4 00036         TSX     DPRINT,4
      00526  0 00000 0 00001                 1
      00527                          ARGS    (1BL(ENT,,2)(NSRTD,,4)) INFORM THE WORLD
                              $ ************ INSERTED IN M.F.D.
      00532                          CALL    ATTACH(MFD,FILE,FATAL) TO KEEP THE MFD IN ORDER
      00536                          CALL    SETFIL(ENT,ENT+1,ENT+2,ENT+3,=O344,=1) INSERT HIM
      00545 -0625 00 0 02175         STL     CHANGE        REMEMBER THAT WE'VE TWITCHED THINGS.
      00546  0020 00 0 00243         TRA     MFD1LP        GET SOME MORE

      00547  0074 00 4 00036  ENDMF1 TSX     DPRINT,4
      00550  0 00000 0 00003                 3
      00551  3 00004 0 03233         PTH     BUILT,,4
                              $0 M.F.D. CONSTRUCTED.
1      PHASE 1 OF THE DAEMON DISK/DRUM RELOAD    D.A. ANDERSON  01/28/68         01/28/69  915.7 PAGE 7

      00552                   UFD1LP CALL    OPNDF1(TAPERR,ABANDN) GET PREAMBLE FOR NEXT FILE
      00555 -0500 00 0 75026  UF1LP1 CAL     PREAM+5       IS THIS A U.F.D. Q.
      00556  0322 00 0 03443         ERA     =HUSER F
      00557 -0100 00 0 01067         TNZ     MFD.Q         IT IS IF WORDS 6 THRU
      00560 -0500 00 0 75027         CAL     PREAM+6         8 OF THE PREAMBLE ARE
      00561  0322 00 0 03431         ERA     =HILE DI          'USER FILE DIRECTRY'
      00562 -0100 00 0 01067         TNZ     MFD.Q         NOT A U.F.D.  MAYBE IS FINAL M.F.D.

      00563  0074 00 4 00036         TSX     DPRINT,4
      00564  0 00000 0 00001                 1
      00565                          ARGS    (1BL(PREAM,,2)1BL(PREAM+5,,3))
      00571                          CALL    FSTATE(PREAM,PREAM+1(TEMP,,8)NOTIN2,CODE) DOES HE EXIST.
      00577  0441 00 0 02210         LDI     TEMP+1        GET MODE OF FILE
      00600  0054 00  000200         RFT     200           IS 'RELOAD' BIT ON.Q.
      00601  0020 00 0 00610         TRA     LDHM            YES. LOAD HIM.
      00602  0074 00 1 00370         TSX     LOAD.Q,1        NO. WHAT NOW.Q.
      00603                          ARGS    (PREAM,PREAM+1,PREAM+2,PREAM+8)
      00607  0 00000 0 00552                 UFD1LP            IGNORE HIM.
      00610 -0500 00 0 75023  LDHM   CAL     PREAM+2       IS THE TAPE FILE NEWER.Q.
      00611 -0340 00 0 02215         LAS     TEMP+6
      00612  0020 00 0 00615         TRA     *+3             YES. USE IT.
      00613  0520 00 0 02207         ZET     TEMP            USE IT IF SAME DATE AND OLD U.F.D. EMPTY
      00614  0020 00 0 00552         TRA     UFD1LP          NO. TRY AGAIN.
      00615  0074 00 4 02135  NTIN.2 TSX     RDF1,4
      00616  2 02173 0 02200         PTW     ENT,,C3
      00617                          ARGS    (TAPER1,UF1BAD,CODE,ABANDN) GET QUOTAS
      00623 -0500 00 0 03421         CAL     =O77777       SAVE ONLY ALLOTTED
      00624  0320 00 0 02200         ANS     ENT             FOR DRUM
      00625  0320 00 0 02201         ANS     ENT+1           AND DISK.
      00626                          CALL    CHFILE(PREAM,PREAM+1,=O344,=-0,=-0,UF1BD,CODE)
      00636                   UF1LP2 CALL    OPEN(=HW,PREAM,PREAM+1,=O344,=1,UF1BD1)
      00645                          CALL    TRFILE(PREAM,PREAM+1,=0,UF1BD1) REMOVE OLD U.F.D.
      00652                          CALL    BUFFER(PREAM,PREAM+1(B1,,432)UF1BD1)
      00657                          CALL    WRWAIT(PREAM,PREAM+1,=0(ENT,,3)=-0,=-0,UF1BD1) QUOTAS

      00667  0074 00 4 02135  UFD2LP TSX     RDF1,4
      00670  2 02174 0 02200         PTW     ENT,,C7
      00671                          ARGS    (TAPER2,ENDUF1,CODE,ABANDN) READ U.F.D.
      00675 -0500 00 0 02200         CAL     ENT           IF NAME1 AND
      00676 -0501 00 0 02201         ORA     ENT+1           NAME2 ARE BOTH ZERO,
      00677  0100 00 0 00667         TZE     UFD2LP            IGNORE THIS ENTRY.
      00700 -0500 00 0 02204         CAL     ENT+4         GET DEVICE
      00701  0771 00 0 00017         ARS     15              FOR THIS
      00702 -0320 00 0 03413         ANA     =7                FILE AND
      00703  0734 00 4 00000         PAX     ,4                  SKIP IF
      00704 -3 00000 4 00717         TXL     WR.UFD,4,0            NOT DISK
      00705  3 00002 4 00717         TXH     WR.UFD,4,2              OR DRUM.
      00706 -0534 00 4 02205         LXD     ENT+5,4       IF FILE IS ZERO-LENGTH,
      00707 -3 00000 4 00717         TXL     WR.UFD,4,0      DON'T CHANGE ENTRY.
      00710  0441 00 0 02204         LDI     ENT+4
      00711 -0055 00  400000         SIL     400000        ADD '200' MODE BIT
      00712 -0057 00  001777         RIL     001777          AND RESET 'ILOCK'
      00713  0604 00 0 02204         STI     ENT+4
      00714 -0500 00 0 03422         CAL     =O100000      RESET SWR AND MAKE ZERO-LENGTH
      00715  0602 00 0 02205         SLW     ENT+5
      00716  0600 00 0 02206         STZ     ENT+6         CLEAR TRACK POINTERS
1      PHASE 1 OF THE DAEMON DISK/DRUM RELOAD    D.A. ANDERSON  01/28/68         01/28/69  915.7 PAGE 8

      00717                   WR.UFD CALL    WRWAIT(PREAM,PREAM+1,=0(ENT,,7)=-0,=-0,UF1BD1)
      00727  0020 00 0 00667         TRA     UFD2LP        AND GO BACK FOR MORE.

      00730  0520 00 0 75014  TAPERR ZET     TEOF          ERROR OR END OF LOAD FILE.Q.
      00731  0020 00 0 00751         TRA     ENDTP2          END OF LOAD FILE.
      00732  0074 00 4 00036         TSX     DPRINT,4
      00733  0 00000 0 00004                 4
      00734                          ARGS    (1BL(PREAM,,2)1BL(PREAM+5,,2)(UNRDBL,,2))
                              $ ************ ************ UNREADABLE.
      00741  0020 00 0 00552         TRA     UFD1LP        TRY FOR NEXT ONE.

      00742  0520 00 0 75014  TAPER1 ZET     TEOF          ERROR OR END OF LOAD FILE.Q.
      00743  0020 00 0 00751         TRA     ENDTP2          END OF LOAD FILE.
      00744  0074 00 4 00036         TSX     DPRINT,4
      00745  0 00000 0 00004                 4
      00746                          ARGS    ((UNRUFD,,4)(PREAM,,2))
                              $ UNREADABLE U.F.D. FOR  ************
      00750  0020 00 0 00552         TRA     UFD1LP        TRY THE NEXT.

      00751  0074 00 4 00036  ENDTP2 TSX     DPRINT,4
      00752  0 00000 0 00003                 3
      00753                          ARGS    ((NDTP2M,,6)(PREAM,,2)1BL(PREAM+5,,2))
                              $0END OF LOAD FILE ENCOUNTERED IN ************ ************
      00757  0074 00 4 00036  NO2MFD TSX     DPRINT,4
      00760  0 00000 0 00003                 3
      00761  3 00006 0 03253         PTH     NOMFD2,,6
                              $ NO FINAL M.F.D. IN THIS LOAD FILE.
      00762 -0625 00 0 02176         STL     NOLSMF        SET FLAG TO SAVE '200' MODE UFD'S
      00763 -0774 00 3 01247         AXC     ENDMF2,3      SET UP 'CONTINUE' RETURN,
      00764  0020 00 0 00316         TRA     ASKOP2          THEN WAKE UP THE OPERATOR.

      00765  0520 00 0 75014  TAPER2 ZET     TEOF          ERROR OR END OF LOAD FILE.Q.
      00766  0020 00 0 00774         TRA     TAPND2          END OF LOAD FILE.
      00767  0074 00 4 00036         TSX     DPRINT,4
      00770  0 00000 0 00004                 4
      00771                          ARGS    ((UNRUFD,,4)(PREAM,,2))
                              $ UNREADABLE U.F.D. FOR  ************
      00773  0020 00 0 01002         TRA     TAPR2A
      00774  0074 00 4 00036  TAPND2 TSX     DPRINT,4
      00775  0 00000 0 00003                 3
      00776                          ARGS    ((NDTP2M,,6)(PREAM,,2)1BL(PREAM+5,,2))
                              $0END OF LOAD FILE ENCOUNTERED IN ************ ************
      01002                   TAPR2A CALL    CLOSE(PREAM,PREAM+1) CLOSE AND RESET PARTIAL
      01005  0074 00 2 01720         TSX     RSUFD,2         U.F.D., ZERO DATES TO LOAD NEXT TIME.
      01006                          ARGS    (PREAM,PREAM+1,=0,=0)
      01012 -0520 00 0 75014         NZT     TEOF
      01013  0020 00 0 00552         TRA     UFD1LP        IF ERROR, GO FOR NEXT.
      01014  0020 00 0 00757         TRA     NO2MFD        COMPLAIN ABOUT MISSING M.F.D.

      01015  0074 00 4 00036  UF1BAD TSX     DPRINT,4
      01016  0 00000 0 00003                 3
      01017                          ARGS    (ZNULLS(PREAM,,2)(SHUFD,,6))
                              $0************ IS LESS THAN THREE WORDS LONG.
      01022  0020 00 0 00552         TRA     UFD1LP
1      PHASE 1 OF THE DAEMON DISK/DRUM RELOAD    D.A. ANDERSON  01/28/68         01/28/69  915.7 PAGE 9

      01023 -0500 00 0 02177  UF1BD  CAL     CODE          IF PROBLEM IS
      01024  0402 00 0 03412         SUB     =4              'FILE NOT FOUND'
      01025  0100 00 0 00636         TZE     UF1LP2            IGNORE ERROR.

      01026  0074 00 4 00035  UF1BD1 TSX     PRNTER,4      COMMENT ABOUT ERROR
      01027                          CALL    CLOSE(PREAM,PREAM+1) CLOSE THE FILE,
      01032  0074 00 2 01720         TSX     RSUFD,2         AND RESET IT.
      01033                          ARGS    (PREAM,PREAM+1,=0,=0)
      01037  0020 00 0 00552         TRA     UFD1LP        GO FOR NEXT.

      01040  0534 00 4 02177  NOTIN2 LXA     CODE,4
      01041  1 77775 4 01042         TXI     *+1,4,-3
      01042  3 00000 4 01674         TXH     FATAL,4,0
      01043  0074 00 4 00036         TSX     DPRINT,4
      01044  0 00000 0 00001                 1
      01045                          ARGS    (1BL(PREAM,,2)(NSRTD,,4))
                              $ ************ INSERTED IN M.F.D.
      01050  0020 00 0 00615         TRA     NTIN.2

      01051                   ENDUF1 CALL    CLOSE(PREAM,PREAM+1,UF1BD1) END OF U.F.D.
      01055                          CALL    CHFILE(PREAM,PREAM+1,=O304) INDICATE SUCCESSFUL LOAD.
      01061                          CALL    SETFIL(PREAM,PREAM+1,PREAM+2,PREAM+8) SET FILE STATUS
      01066  0020 00 0 00552         TRA     UFD1LP

      01067  0074 00 4 00036  MFD.Q  TSX     DPRINT,4
      01070  0 00000 0 00001                 1
      01071                          ARGS    (1BL(PREAM,,2)1BL(PREAM+5,,2))
      01075 -0500 00 0 75021         CAL     PREAM         IS THIS THE FINAL M.F.D. Q.
      01076  0322 00 0 02217         ERA     MFD
      01077 -0100 00 0 00552         TNZ     UFD1LP          NOPE.
      01100 -0500 00 0 75022         CAL     PREAM+1       THERE IS STILL HOPE ...
      01101  0322 00 0 02220         ERA     FILE
      01102 -0100 00 0 00552         TNZ     UFD1LP        OH, WELL ...

      01103  0074 00 4 00036         TSX     DPRINT,4
      01104  0 00000 0 00003                 3
      01105  3 00004 0 03267         PTH     MFD2,,4
                              $0PROCESSING FINAL M.F.D.

      01106  0074 00 4 02135         TSX     RDF1,4
      01107  2 02173 0 02200         PTW     ENT,,C3
      01110                          ARGS    (MF2BAD,NOMF2,CODE,ABANDN) SKIP QUOTAS
      01114 -0625 00 0 01246         STL     BADUFR        SET RETURN FOR BAD U.F.D.

      01115  0074 00 4 02135  MFD2LP TSX     RDF1,4
      01116  2 02174 0 02200         PTW     ENT,,C7
      01117                          ARGS    (MF2BAD,ENDMF2,CODE,ABANDN) GET MFD ENTRY
      01123 -0500 00 0 02200         CAL     ENT
      01124 -0501 00 0 02201         ORA     ENT+1
      01125  0100 00 0 01115         TZE     MFD2LP        IGNORE ZERO ENTRIES
      01126                          CALL    FSTATE(ENT,ENT+1(TEMP,,2)NOTIN3,CODE) IS HE HERE.Q.
      01134 -0520 00 0 02207         NZT     TEMP          IF HE IS ZERO LENGTH,
      01135  0020 00 0 01226         TRA     BADUFD          COMPLAIN AND DELETE HIM.
      01136  0441 00 0 02210         LDI     TEMP+1        GET MODE.
      01137  0056 00  000200         RNT     200           DID WE INSERT HIM.Q.
      01140  0020 00 0 01115         TRA     MFD2LP          NO. IGNORE HIM.
1      PHASE 1 OF THE DAEMON DISK/DRUM RELOAD    D.A. ANDERSON  01/28/68         01/28/69  915.7 PAGE 10

      01141  0054 00  000040         RFT     040           HAS HE BEEN LOADED.Q.
      01142  0020 00 0 01226         TRA     BADUFD          NO. COMPLAIN.
      01143                          CALL    CHFILE(ENT,ENT+1,=O144,=-0,=-0,BADUF1) YES. RESET MODE
      01152                          CALL    SETFIL(ENT,ENT+1,ENT+2,ENT+3,=-0,=-0,BADUF1) AND DATE
      01162  0020 00 0 01115         TRA     MFD2LP        NOW FOR NEXT ENTRY

      01163  0074 00 4 00036  NOMF2  TSX     DPRINT,4
      01164  0 00000 0 00003                 3
      01165                          ARGS    (ZNULLS(2MFD,,2)(SHUFD,,6))
                              $0FINAL M.F.D. IS LESS THAN THREE WORDS LONG.
      01170 -0625 00 0 02176         STL     NOLSMF        SET FLAG TO KEEP '200' MODE UFD'S
      01171 -0774 00 3 01247         AXC     ENDMF2,3      SET 'CONTINUE' RETURN,
      01172  0020 00 0 00316         TRA     ASKOP2          AND BOTHER THE OPERATOR.

      01173  0520 00 0 75014  MF2BAD ZET     TEOF          END OF LOAD FILE OR ERROR.Q.
      01174  0020 00 0 01203         TRA     MF2BD1          END OF LOAD FILE.
      01175  0074 00 4 00036         TSX     DPRINT,4
      01176  0 00000 0 00003                 3
      01177  3 00005 0 03273         PTH     UNRMF2,,5
                              $ FINAL M.F.D. IS UNREADABLE.
      01200 -0625 00 0 02176         STL     NOLSMF        SET FLAG IN CASE OF 'CONTINUE'
      01201 -0774 00 3 01247         AXC     ENDMF2,3
      01202  0020 00 0 00316         TRA     ASKOP2

      01203  0074 00 4 00036  MF2BD1 TSX     DPRINT,4
      01204  0 00000 0 00003                 3
      01205                          ARGS    ((NDTP2M,,6)(2MFD,,2))
                              $0END OF LOAD FILE ENCOUNTERED IN FINAL M.F.D.
      01207 -0625 00 0 02176         STL     NOLSMF
      01210 -0774 00 3 01247         AXC     ENDMF2,3
      01211  0020 00 0 00316         TRA     ASKOP2

      01212  0534 00 4 02177  NOTIN3 LXA     CODE,4        ANY ERROR EXCEPT
      01213  1 77775 4 01214         TXI     *+1,4,-3        'FILE NOT FOUND'
      01214  3 00000 4 01674         TXH     FATAL,4,0       IS FATAL.
      01215  0074 00 4 00036         TSX     DPRINT,4
      01216  0 00000 0 00003                 3
      01217                          ARGS    ((NOUFD,,4)(ENT,,2))
                              $ NO U.F.D. FOUND FOR ************
      01221  0020 00 0 01115         TRA     MFD2LP

      01222  0074 00 4 00035  BADUF1 TSX     PRNTER,4
      01223  0020 00 0 01232         TRA     BADUF2

      01224 -0056 00  100000  CKLOD3 LNT     100000        IS IT PROPERLY LOADED
      01225  0020 00 0 01341         TRA     STMOD3          YES, FIX IT UP.

      01226  0074 00 4 00036  BADUFD TSX     DPRINT,4
      01227  0 00000 0 00003                 3
      01230                          ARGS    ((NOPROP,,5)(ENT,,2))
                              $ PROPER U.F.D. NOT FOUND FOR  ************
      01232  0074 00 4 00036  BADUF2 TSX     DPRINT,4
      01233  0 00000 0 00003                 3
      01234                          ARGS    (1BL(ENT,,2)(DELMF,,4))
                              $ ************ DELETED FROM M.F.D.
      01237                          CALL    CHFILE(ENT,ENT+1,=1)
1      PHASE 1 OF THE DAEMON DISK/DRUM RELOAD    D.A. ANDERSON  01/28/68         01/28/69  915.7 PAGE 11

      01243                          CALL    DELFIL(ENT,ENT+1) REMOVE BAD U.F.D.
      01246  0020 00 0 00000  BADUFR TRA     **

      01247  0074 00 4 00036  ENDMF2 TSX     DPRINT,4
      01250  0 00000 0 00003                 3
      01251  3 00003 0 03315         PTH     LOADED,,3
                              $0ALL USERS LOADED.
      01252  0074 00 4 00032         TSX     TERMTF,4      CLOSE AND UNMOUNT TAPE FILES

      01253  0074 00 4 00021         TSX     UPDATE,4      ENSURE THAT DISK/DRUM HAS UP-TO-DATE M.F.D.
      01254                          CALL    OPEN(=HR,MFD,FILE,=-0,=-0,FATAL) SCAN MFD FOR BAD
      01263                          CALL    BUFFER(MFD,FILE(B1,,432)FATAL)
      01270                          CALL    RDWAIT(MFD,FILE,=0(ENT,,3)MFDBAD,CODE,FATAL)
      01300 -0625 00 0 01246         STL     BADUFR        SET RETURN FOR BAD U.F.D.

      01301                   MFD3LP CALL    RDWAIT(MFD,FILE,=0(ENT,,7)ENDMF3,CODE,FATAL)
      01311 -0500 00 0 02201         CAL     ENT+1
      01312 -0340 00 0 02220         LAS     FILE          IF PROG IS (FILE),
      01313  0020 00 0 01315         TRA     *+2
      01314  0020 00 0 01365         TRA     MFD3PR          IGNORE THIS ENTRY.
      01315 -0501 00 0 02200         ORA     ENT
      01316  0100 00 0 01365         TZE     MFD3PR        ALSO IF PROB AND PROG ARE BOTH ZERO.
      01317 -0500 00 0 02205         CAL     ENT+5         GET LENGTH
      01320 -0320 00 0 03426         ANA     =O77777000000   IS IT ZERO
      01321  0100 00 0 01226         TZE     BADUFD            YES, COMPLAIN.
      01322  0441 00 0 02204         LDI     ENT+4         GET MODE
      01323 -0056 00  400000         LNT     400000        DID WE LOAD HIM.Q.
      01324  0020 00 0 01376         TRA     RSET40          NO. RESET 40 BIT, IF ON.
      01325  0520 00 0 02176         ZET     NOLSMF        IF NO FINAL TAPE M.F.D.,
      01326  0020 00 0 01224         TRA     CKLOD3          DON'T COMPLAIN.

      01327  0074 00 4 00036         TSX     DPRINT,4
      01330  0 00000 0 00005                 5
      01331                          ARGS    (1BL(ENT,,2)(NTINMF,,5))
                              $ ************ NOT IN FINAL TAPE M.F.D.
      01334  0441 00 0 02204         LDI     ENT+4
      01335 -0054 00  100000         LFT     100000        IF IMPROPERLY LOADED,
      01336  0020 00 0 01226         TRA     BADUFD          COMPLAIN ABOUT IT.
      01337  0760 00 0 00163         SWT     3             OR IF SW3 NOT DOWN,
      01340  0020 00 0 01232         TRA     BADUF2          DELETE IT.
      01341 -0500 00 0 02203  STMOD3 CAL     ENT+3         GET DLU FROM MFD ENTRY
      01342 -0320 00 0 03445         ANA     =O777777000000   WITHOUT AUTHOR, PLEASE.
      01343 -0100 00 0 01345         TNZ     *+2           IF IT'S ZERO,
      01344 -0500 00 0 02223         CAL     DLU.DM          USE DUMMY DATE-LAST-USED.
      01345  0602 00 0 02203         SLW     ENT+3         IN ANY CASE, RESET AUTHOR.
      01346                          CALL    CHFILE(ENT,ENT+1,=O104,=-0,=-0,BADUF1)   KEEP HIM.
      01355                          CALL    SETFIL(ENT,ENT+1,ENT+2,ENT+3,=-0,=-0,BADUF1)
      01365  0074 00 4 00036  MFD3PR TSX     DPRINT,4
      01366  0 00000 0 00001                 1
      01367                          ARGS    (1BL(ENT,,2))
      01371  0020 00 0 01301         TRA     MFD3LP

      01372  0074 00 4 00036  MFDBAD TSX     DPRINT,4
      01373  0 00000 0 00003                 3
      01374  3 00007 0 03325         PTH     SH3MFD,,7
                              $0DISK M.F.D. IS LESS THAN THREE WORDS LONG.
1      PHASE 1 OF THE DAEMON DISK/DRUM RELOAD    D.A. ANDERSON  01/28/68         01/28/69  915.7 PAGE 12

      01375  0020 00 0 01675         TRA     FATAL1

      01376 -0054 00  100000  RSET40 LFT     100000        IS 40 BIT ON.Q.
      01377  0020 00 0 01341         TRA     STMOD3          YES. JUST RESET IT.
      01400  0074 00 4 00036         TSX     DPRINT,4        NO. COMMENT.
      01401  0 00000 0 00001                 1
      01402  3 00002 0 03334         PTH     OLDENT,,2
      01403  0020 00 0 01341         TRA     STMOD3

      01404                   ENDMF3 CALL    CLOSE(MFD,FILE,FATAL) ALL DONE
      01410  0074 00 4 00036         TSX     DPRINT,4
      01411  0 00000 0 00003                 3
      01412  3 00003 0 03336         PTH     ALLDON,,3     TELL THE WORLD
                              $0PHASE1 COMPLETE.

      01413  0074 00 2 01713         TSX     RESET,2       CLOSE ALL FILES
      01414  0074 00 4 00037         TSX     FOUT,4        FINISH WRITING A3.
      01415  0074 00 4 00002         TSX     EXIT,4        GO FINISH UP IN F.S.
      01416  0000 00 0 01416         HTR     *

      01417  0021 00 0 01420  PANIC  TTR     *+1           HERE FOR PANIC CLOSE-OUT
      01420  0074 00 4 00036         TSX     DPRINT,4
      01421  0 00000 0 00003                 3
      01422  3 00003 0 03341         PTH     PANICM,,3     ANNOUNCE PRESENCE
                              $0PANIC CLOSE-OUT.
      01423  0074 00 2 01713         TSX     RESET,2       CLOSE ALL FILES
      01424                          CALL    UMOUNT(=HALL(*,,0))
      01427  0074 00 4 00037         TSX     FOUT,4
      01430  0074 00 4 00002         TSX     EXIT,4
      01431  0000 00 0 01431         HTR     *

      01432  0074 00 4 00035  NVER.A TSX     PRNTER,4      'A' TAPE DOES NOT VERIFY.
      01433  0500 00 0 02177         CLA     CODE
      01434  0402 00 0 03413         SUB     =7            IS IT AN 'INCORRECT LABEL' ERROR.Q.
      01435 -0100 00 0 01443         TNZ     A.BAD
      01436  2 00002 2 00174         TIX     VER.A,2,2       YES. RETRY 5 TIMES.
      01437                          CALL    UMOUNT(AUN(NOTNFT,,5)) HOPELESS. TAKE IT DOWN,
      01442  0020 00 0 01456         TRA     ASKOP           AND ASK WHAT TO DO NEXT.
      01443  2 00001 2 00174  A.BAD  TIX     VER.A,2,1     RETRY 10 TIMES.
      01444                          CALL    UMOUNT(AUN(BADTAP,,5))
      01447  0020 00 0 01456         TRA     ASKOP

      01450  0074 00 4 00036  ABANDN TSX     DPRINT,4
      01451  0 00000 0 00003                 3
      01452  3 00004 0 03356         PTH     ABAND,,4      HERE TO ABANDON TAPE.
                              $0ABANDONING CURRENT NFT.
      01453  0074 00 4 00032  ABAND1 TSX     TERMTF,4      CLOSE OUT TAPE FILES,
      01454  0074 00 2 01713         TSX     RESET,2       CLOSE ALL FILES
      01455  0600 00 0 75042         STZ     ABANTP        RESET ABANDON SWITCH

      01456 -0520 00 0 02175  ASKOP  NZT     CHANGE        HAVE WE (EVER) CHANGED ANYTHING.Q.
      01457  0020 00 0 01667         TRA     ASKOP1          NO. DON'T OFFER TO CLEAN UP.
      01460  0074 00 4 00034         TSX     ASKOPR,4      WHAT DO WE DO NOW.Q.
      01461  3 00005 0 03166         PTH     NWLOAD,,5     1) START NEW TAPE FILE.
      01462  3 00003 0 00337         PTH     NEWLOD,,CHLDFL
      01463  3 00002 0 03164         PTH     CLEAN,,2      2) CLEAN UP, THEN REPEAT OPTIONS.
1      PHASE 1 OF THE DAEMON DISK/DRUM RELOAD    D.A. ANDERSON  01/28/68         01/28/69  915.7 PAGE 13

      01464  3 00002 0 01666         PTH     2CLNUP,,PAUSE
      01465  3 00002 0 03173         PTH     GIVUP,,2      3) QUIT (WITH NO CLEAN-UP)
      01466  3 00004 0 01700         PTH     QUIT,,STOPLD

      01467  0074 00 4 00036  CLNUP  TSX     DPRINT,4      HERE TO CLEAN UP MESS.
      01470  0 00000 0 00003                 3
      01471  3 00003 0 03362         PTH     CLENP,,3
                              $0BEGIN CLEAN-UP.
      01472                          CALL    ATTACH(MFD,FILE,FATAL)
      01476  0074 00 4 00021         TSX     UPDATE,4      UPDATE THE DISK/DRUM
      01477                          CALL    OPEN(=HR,MFD,FILE,=-0,=-0,FATAL) GET MFD
      01506                          CALL    BUFFER(MFD,FILE(B1,,432)FATAL)
      01513                          CALL    RDWAIT(MFD,FILE,=0(ENT,,3)MFEOFC,CODE,FATAL)

      01523                   CLNUP1 CALL    RDWAIT(MFD,FILE,=0(ENT,,7)CMFEOF,CODE,FATAL)
      01533 -0500 00 0 02204         CAL     ENT+4         GET MODE
      01534  0771 00 0 00034         ARS     28              BY ITSELF
      01535  0602 00 0 02207         SLW     TEMP
      01536                          CALL    OCRBC(TEMP)       INTO OCTAL
      01540 -0501 00 0 03442         ORA     =H   000            WITH LEADING BLANKS
      01541  0602 00 0 02207         SLW     TEMP                  FOR PRINTING.
      01542 -0500 00 0 02201         CAL     ENT+1         IF PROG
      01543 -0340 00 0 02220         LAS     FILE            IS '(FILE)'
      01544  0020 00 0 01546         TRA     *+2
      01545  0020 00 0 01625         TRA     CLNUP4          SKIP THIS ENTRY
      01546 -0501 00 0 02200         ORA     ENT           ALSO SKIP IF PROB
      01547  0100 00 0 01625         TZE     CLNUP4          AND PROG ARE BOTH ZERO.
      01550  0441 00 0 02204         LDI     ENT+4         GET MODE
      01551 -0056 00  400000         LNT     400000        IS THE 200 BIT ON.Q.
      01552  0020 00 0 01556         TRA     CLNUP2          NO. JUST CHANGE HIM TO 104 MODE.
      01553 -0056 00  100000         LNT     100000            IF THE 40 BIT IS ON
      01554  0760 00 0 00163         SWT     3                 OR SW3 IS UP,
      01555  0020 00 0 01603         TRA     CLNUP3              DELETE THIS ENTRY.
      01556  0074 00 4 00036  CLNUP2 TSX     DPRINT,4      MAKE HIM 104 MODE.
      01557  0 00000 0 00001                 1
      01560                          ARGS    (1BL(ENT,,2)TEMP)
      01563                          CALL    CHFILE(ENT,ENT+1,=O104,=-0,=-0,CLBAD)
      01572                          CALL    SETFIL(ENT,ENT+1,ENT+2,ENT+3,=-0,=-0,CLBAD) RESET DATES
      01602  0020 00 0 01523         TRA     CLNUP1        GO BACK FOR THE NEXT ONE.
      01603  0074 00 4 00036  CLNUP3 TSX     DPRINT,4
      01604  0 00000 0 00001                 1
      01605                          ARGS    (1BL(ENT,,2)TEMP(CDELMS,,2))
      01611                          CALL    CHFILE(ENT,ENT+1,=1,=-0,=-0,CLBAD)
      01620                          CALL    DELFIL(ENT,ENT+1,CLBAD) DELETE HIM.
      01624  0020 00 0 01523         TRA     CLNUP1
      01625  0074 00 4 00036  CLNUP4 TSX     DPRINT,4
      01626  0 00000 0 00001                 1
      01627                          ARGS    (1BL(ENT,,2)TEMP)
      01632  0020 00 0 01523         TRA     CLNUP1

      01633  0074 00 4 00035  CLBAD  TSX     PRNTER,4      ERROR, COMPLAIN.
      01634  0074 00 4 00036         TSX     DPRINT,4
      01635  0 00000 0 00001                 1
      01636                          ARGS    (1BL(ENT,,2)(DELMF,,4))
                              $ ************ DELETED FROM M.F.D.
      01641                          CALL    CHFILE(ENT,ENT+1,=1)
1      PHASE 1 OF THE DAEMON DISK/DRUM RELOAD    D.A. ANDERSON  01/28/68         01/28/69  915.7 PAGE 14

      01645                          CALL    DELFIL(ENT,ENT+1)
      01650  0020 00 0 01523         TRA     CLNUP1

      01651  0074 00 4 00036  MFEOFC TSX     DPRINT,4
      01652  0 00000 0 00003                 3
      01653  3 00006 0 03367         PTH     SHRTM1,,6
                              $0M.F.D. LESS THAN 3 WORDS LONG.
      01654  0020 00 0 01675         TRA     FATAL1

      01655                   CMFEOF CALL    CLOSE(MFD,FILE,FATAL) MESS ALL GONE.
      01661  0600 00 0 02175         STZ     CHANGE        FORGET THAT WE EVER CHANGED ANYTHING
      01662  0074 00 4 00036         TSX     DPRINT,4
      01663  0 00000 0 00003                 3
      01664  3 00004 0 03375         PTH     DONCLN,,4
                              $0CLEAN-UP FINISHED.
      01665  0020 00 1 00001         TRA     1,1

      01666  0074 00 1 01467  2CLNUP TSX     CLNUP,1

      01667  0074 00 4 00034  ASKOP1 TSX     ASKOPR,4      WHAT NOW.Q.
      01670  3 00005 0 03166         PTH     NWLOAD,,5     1) START NEW LOAD FILE
      01671  3 00003 0 00337         PTH     NEWLOD,,CHLDFL
      01672  3 00002 0 03173         PTH     GIVUP,,2      2) QUIT
      01673  3 00004 0 01700         PTH     QUIT,,STOPLD

      01674  0074 00 4 00035  FATAL  TSX     PRNTER,4      FATAL FILE SYSTEM ERROR. COMPLAIN.
      01675  0074 00 4 00036  FATAL1 TSX     DPRINT,4
      01676  0 00000 0 00003                 3
      01677  3 00005 0 03401         PTH     FATERR,,5     ... AND AGAIN.
                              $ FATAL ERROR IN PHASE1 RELOAD.
      01700  0074 00 2 01713  QUIT   TSX     RESET,2       HERE TO QUIT, CLOSE ALL FILES.
      01701                          CALL    UMOUNT(=HALL(*,,0)) UNMOUNT ANY TAPES.
      01704  0074 00 4 00037         TSX     FOUT,4        FINISH WRITING A3
      01705  0074 00 4 00002         TSX     EXIT,4        AND CLOSE OUT FILE SYSTEM.
      01706  0000 00 0 01706         HTR     *

      01707  0634 00 4 01711  UNXERR SXA     *+2,4         UNEXPECTED FILE SYSTEM ERROR
      01710  0074 00 4 00035         TSX     PRNTER,4      COMPLAIN ABOUT IT,
      01711  0774 00 4 00000         AXT     **,4
      01712  0020 00 4 00001         TRA     1,4             THEN BLUNDER ON.

      01713                   RESET  CALL    CLOSE(=HALL,=-0)
      01716  0074 00 4 00022         TSX     RESETF,4
      01717  0020 00 2 00001         TRA     1,2

      01720  0500 60 2 00001  RSUFD  CLA*    1,2           GET NAME1
      01721  0560 60 2 00002         LDQ*    2,2             AND NAME2
      01722 -0603 00 0 02110         DST     RSUFD1            OF U.F.D. TO RESET
      01723  0500 60 2 00003         CLA*    3,2           ALSO DLM/TLM
      01724  0560 60 2 00004         LDQ*    4,2             AND DLU/AUTHOR
      01725 -0603 00 0 02112         DST     RSUFD3            TO RESET IT TO.
      01726                          CALL    CHFILE(RSUFD1,RSUFD2,=O344,=-0,=-0,RSUFDR)
      01735                          CALL    OPEN(=HRW,RSUFD1,RSUFD2,=-0,=-0,RSUFDR)
      01744                          CALL    ATTACH(RSUFD1,RSUFD2,RSUFDR)
      01750                          CALL    BUFFER(RSUFD1,RSUFD2(B1,,432)RSUFDR)
      01755                          CALL    RDWAIT(RSUFD1,RSUFD2,=1(TEMP,,3)RSUFDY,=-0,RSUFDR)
1      PHASE 1 OF THE DAEMON DISK/DRUM RELOAD    D.A. ANDERSON  01/28/68         01/28/69  915.7 PAGE 15

      01765 -0500 00 0 02207         CAL     TEMP
      01766 -0501 00 0 02210         ORA     TEMP+1
      01767 -0320 00 0 03426         ANA     =O77777000000
      01770  0100 00 0 02032         TZE     RSUFDY
      01771                   RSUFDX CALL    RDWAIT(RSUFD1,RSUFD2,=0(TEMP,,7)RSUFDY,=-0,RSUFDR)
      02001 -0500 00 0 02207         CAL     TEMP
      02002 -0501 00 0 02210         ORA     TEMP+1
      02003  0100 00 0 01771         TZE     RSUFDX
      02004 -0500 00 0 02213         CAL     TEMP+4
      02005 -0320 00 0 03425         ANA     =O700000
      02006  0100 00 0 01771         TZE     RSUFDX
      02007  0402 00 0 03423         SUB     =O300000
      02010  0100 00 0 01771         TZE     RSUFDX
      02011 -0500 00 0 02214         CAL     TEMP+5
      02012 -0320 00 0 03426         ANA     =O77777000000
      02013  0100 00 0 01771         TZE     RSUFDX
      02014                          CALL    CHFILE(TEMP,TEMP+1,=1,=-0,=-0,RSUFX1)
      02023                          CALL    DELFIL(TEMP,TEMP+1,RSUFX1)
      02027  0020 00 0 01771         TRA     RSUFDX
      02030  0074 00 4 00035  RSUFX1 TSX     PRNTER,4
      02031  0020 00 0 01771         TRA     RSUFDX

      02032                   RSUFDY CALL    TRFILE(RSUFD1,RSUFD2,=0,RSUFDR)
      02037                          CALL    CLOSE(RSUFD1,RSUFD2,RSUFDR)
      02043                          CALL    ATTACH(MFD,FILE,FATAL)
      02047                          CALL    SETFIL(RSUFD1,RSUFD2,RSUFD3,RSUFD4,=-0,=-0,RSUFDR)
      02057  0020 00 2 00005         TRA     5,2

      02060  0074 00 4 00035  RSUFDR TSX     PRNTER,4      ERROR, COMPLAIN.
      02061                          CALL    CLOSE(RSUFD1,RSUFD2,*)
      02065                          CALL    ATTACH(MFD,FILE,FATAL)
      02071                          CALL    CHFILE(RSUFD1,RSUFD2,=1)
      02075                          CALL    DELFIL(RSUFD1,RSUFD2)
      02100                          CALL    SETFIL(RSUFD1,RSUFD2,RSUFD3,RSUFD4,=O344,=1)
      02107  0020 00 2 00005         TRA     5,2

      02110  0 00000 0 00000  RSUFD1
      02111  0 00000 0 00000  RSUFD2
      02112  0 00000 0 00000  RSUFD3
      02113  0 00000 0 00000  RSUFD4

      02114  0560 60 4 00001  OCRBC  LDQ*    1,4           OCTAL TO BCD CONVERSION
      02115 -0773 00 0 00022         RQL     18              OF RIGHT-HALF WORD
      02116 -0754 00 0 00000         ZAC
      02117 -0763 00 0 00003         LGL     3             QUICK-AND-DIRTY VERSION.
      02120  0767 00 0 00003         ALS     3
      02121 -0763 00 0 00003         LGL     3
      02122  0767 00 0 00003         ALS     3
      02123 -0763 00 0 00003         LGL     3
      02124  0767 00 0 00003         ALS     3
      02125 -0763 00 0 00003         LGL     3
      02126  0767 00 0 00003         ALS     3
      02127 -0763 00 0 00003         LGL     3
      02130  0767 00 0 00003         ALS     3
      02131 -0763 00 0 00003         LGL     3
      02132  0020 00 4 00001         TRA     1,4
1      PHASE 1 OF THE DAEMON DISK/DRUM RELOAD    D.A. ANDERSON  01/28/68         01/28/69  915.7 PAGE 16

      02133  0600 00 0 02171  OPNDF1 STZ     EOFSW1        NO END-OF-LOGICAL-FILE YET.
      02134  0020 00 0 00030         TRA     OPENDF          GO TO EXTERNAL ROUTINE.

      02135 -0520 00 0 02171  RDF1   NZT     EOFSW1        IS THERE A REMEMBERED EOF.Q.
      02136  0020 00 0 02141         TRA     RDF1A           NO.
      02137  0600 60 4 00004         STZ*    4,4           YES. ALWAYS ZERO WORD COUNT
      02140  0020 60 4 00003         TRA*    3,4           TAKE EOF RETURN
      02141  0634 00 4 02156  RDF1A  SXA     RDFX4,4       SAVE RETURN
      02142 -0500 00 4 00001         CAL     1,4           USE CALLER'S
      02143  0602 00 0 02151         SLW     RDFTSX+1        ARRAY,
      02144 -0500 00 4 00002         CAL     2,4
      02145  0602 00 0 02152         SLW     RDFTSX+2        ERROR RETURN, AND
      02146 -0500 00 4 00005         CAL     5,4
      02147  0602 00 0 02155         SLW     RDFTSX+5        'ABANDON TAPE' RETURN
      02150  0074 00 4 00031  RDFTSX TSX     RDF,4
      02151  2 00000 0 00000         PTW     **,,**
      02152                          ARGS    (**,RDFEOF,EOFCT1,**)
      02156  0774 00 4 00000  RDFX4  AXT     **,4          IF NORMAL RETURN,
      02157  0020 00 4 00006         TRA     6,4             RETURN TO CALLER.

      02160 -0625 00 0 02171  RDFEOF STL     EOFSW1        END-OF-LOGICAL-FILE RETURN TAKEN.
      02161 -0535 00 4 02151         LDC     RDFTSX+1,4
      02162  0500 00 4 00000         CLA     ,4            GET NUMBER OF WORDS TO TRANSMIT
      02163  0402 00 0 02172         SUB     EOFCT1        SAME AS EOF WORD COUNT.Q.
      02164  0100 00 0 02156         TZE     RDFX4           YES. SAVE EOF RETURN FOR NEXT CALL.
      02165  0534 00 4 02156         LXA     RDFX4,4         NO. RESTORE XR4,
      02166  0500 00 0 02172         CLA     EOFCT1        GET EOF WORD COUNT,
      02167  0602 60 4 00004         SLW*    4,4             AND GIVE TO USER
      02170  0020 60 4 00003         TRA*    3,4           TAKE EOF RETURN.

      02171  0 00000 0 00000  EOFSW1
      02172  0 00000 0 00000  EOFCT1
1      PHASE 1 OF THE DAEMON DISK/DRUM RELOAD    D.A. ANDERSON  01/28/68         01/28/69  915.7 PAGE 17

      02173 +000000000003     C3     DEC     3
      02174 +000000000007     C7     DEC     7

      02175  0 00000 0 00000  CHANGE
      02176  0 00000 0 00000  NOLSMF
      02177  0 00000 0 00000  CODE
      02200                   ENT    BSS     7
      02207                   TEMP   BSS     8

      02217  443326332433     MFD    BCI     1,M.F.D.
      02220  742631432534     FILE   BCI     1,(FILE)
      02221 -205757575757     1BL    OCT     605757575757
      02222 +005757575757     ZNULLS OCT     005757575757
      02223  103634000000     DLU.DM VFD     9/67,4/12,5/28 DUMMY DATE-LAST-USED

      02224                   B1     BSS     432

      03104  602351252163     NFTID  BCI     4, CREATED-FILE DUMP TAPE
      03110  604446644563     LSTNFT BCI     9, MOUNT LATEST NFT FOR PHASE1 OF THE DAEMON RELOAD.
                       00011  LLSNFT EQU     *-LSTNFT
      03121  604446644563     LSTCPY BCI     6, MOUNT B-CHANNEL COPY OF LATEST NFT.
                       00006  LLSCPY EQU     *-LSTCPY
      03127  016060602225     BEGIN  BCI     4,1   BEGIN PHASE1 RELOAD.
      03133  002545246046     NCMPL1 BCI     5,0END OF LOAD FILE ENCOUNTERED
      03140  663031432560            BCI     5,WHILE READING INITIAL M.F.D.
      03145  003145316331     UNRD1  BCI     5,0INITIAL M.F.D. IS UNREADABLE.
      03152  004546603145     NOMF1M BCI     6,0NO INITIAL M.F.D. IN THIS FILE.
      03160  606346602346     IGNERR BCI     4, TO CONTINUE RELOAD
      03164  606346602343     CLEAN  BCI     2, TO CLEAN UP
      03166  606346606263     NWLOAD BCI     5, TO START A NEW LOAD FILE
      03173  606346605064     GIVUP  BCI     2, TO QUIT
      03175  604751462325     GOMES  BCI     2, PROCEEDING.
      03177  006263215163     NEWLDF BCI     4,0STARTING NEW LOAD FILE.
      03203  602143512521     IN1    BCI     7, ALREADY IN M.F.D., CHANGED TO 144 MODE.
      03212  606346604346     LODHM  BCI     2, TO LOAD HIM
      03214  606346604325     DONTLD BCI     4, TO LEAVE HIM ALONE
      03220  736066314343     WILOAD BCI     4,, WILL BE RE-LOADED.
      03224  602646644524     INMES1 BCI     3, FOUND WITH MODE
      03227  603145622551     NSRTD  BCI     4, INSERTED IN M.F.D.
      03233  006044332633     BUILT  BCI     4,0 M.F.D. CONSTRUCTED.
      03237  606445512521     UNRDBL BCI     2, UNREADABLE.
      03241  606445512521     UNRUFD BCI     4, UNREADABLE U.F.D. FOR
      03245  002545246046     NDTP2M BCI     6,0END OF LOAD FILE ENCOUNTERED IN
      03253  604546602631     NOMFD2 BCI     6, NO FINAL M.F.D. IN THIS LOAD FILE.
      03261  603162604325     SHUFD  BCI     6, IS LESS THAN THREE WORDS LONG.
      03267  004751462325     MFD2   BCI     2,0PROCESSING
      03271  263145214360     2MFD   BCI     2,FINAL M.F.D.
      03273  602631452143     UNRMF2 BCI     5, FINAL M.F.D. IS UNREADABLE.
      03300  604546606433     NOUFD  BCI     3, NO U.F.D. FOUND F
      03303 -065160575757            OCT     465160575757  'OR '
      03304  604751464725     NOPROP BCI     5, PROPER U.F.D. NOT FOUND FOR
      03311  602425432563     DELMF  BCI     4, DELETED FROM M.F.D.
      03315  002143436064     LOADED BCI     3,0ALL USERS LOADED.
      03320  604546636031     NTINMF BCI     5, NOT IN FINAL TAPE M.F.D.
      03325  002431624260     SH3MFD BCI     7,0DISK M.F.D. IS LESS THAN THREE WORDS LONG.
      03334  604643246025     OLDENT BCI     2, OLD ENTRY -
1      PHASE 1 OF THE DAEMON DISK/DRUM RELOAD    D.A. ANDERSON  01/28/68         01/28/69  915.7 PAGE 18

      03336  004730216225     ALLDON BCI     3,0PHASE1 COMPLETE.
      03341  004721453123     PANICM BCI     3,0PANIC CLOSE-OUT.
      03344  602140233021     NOTNFT BCI     5, A-CHANNEL TAPE IS NOT AN NFT.
      03351  602140233021     BADTAP BCI     5, A-CHANNEL TAPE IS UNREADABLE.
      03356  002122214524     ABAND  BCI     4,0ABANDONING CURRENT NFT.
      03362  002225273145     CLENP  BCI     3,0BEGIN CLEAN-UP.
      03365  602425432563     CDELMS BCI     2, DELETED.
      03367  004433263324     SHRTM1 BCI     6,0M.F.D. LESS THAN 3 WORDS LONG.
      03375  002343252145     DONCLN BCI     4,0CLEAN-UP FINISHED.
      03401  002621632143     FATERR BCI     5,0FATAL ERROR IN PHASE1 RELOAD.

                                     INSERT  BCMEQB
                              *
                              *  -  -  -  -  -  -  -  -  -  -  -  -  -  -  -  -  -  -
                              *      COMMON AND EQUIVALENCE FOR SECONDARY STORAGE LOAD
                              *         (TIME-SHARING VERSION)
                              *  -  -  -  -  -  -  -  -  -  -  -  -  -  -  -  -  -  -
                              *
                      075045  DEMKEY BOOL    75045         CORE A LOCATION FOR DAEMON KEY SETTING
                              *
                      000017  BASE   BOOL    17            KEY CODE BASE
                      000001  CTINUE BOOL    1             KEY CODE TO CONTINUE WITH PROGRAM,NO CHANGE
                      000002  PAUSE  BOOL    2             KEY CODE TO WAIT 60 SECS.
                      000003  CHLDFL BOOL    3             KEY CODE TO USE DIFFERENT LOAD FILE
                      000004  STOPLD BOOL    4             KEY CODE TO STOP LOADING, START DUMPING
                      000005  ABANKY BOOL    5             KEY CODE TO ABANDON LOAD TAPE FILE
                      000006  SWCHAN BOOL    6             KEY CODE TO GO FROM 1 OR 2 TO 2 OR 1 CHANS.
                      000007  LSREEL BOOL    7             KEY CODE TO INDICATE LAST REEL OF LOAD FILE
                      000010  CHREEL BOOL    10            KEY CODE TO CORRECT REEL ORDER ERROR
                       77777  NEWCOM EQU     -1            TOP OF MEMORY
                      077461  OLDCOM BOOL    77461         OLD TOP OF COMMON
                       77462  COMRLC EQU     OLDCOM-NEWCOM RELOCATION FACTOR
                       77777         COMMON  COMRLC        RELOCATE COMMON
                       01355  UF     EQU     32767/2-DEMKEY/2 LENGTH OF USER LIST
                       77777  UFL    COMMON  2*UF          USER FILE LIST  (1ST PARTS OF FILE NAMES)
                       75044         COMMON  1             INSERT DUMMY IF NECESSARY
                       75043         COMMON  1             DEMKEY CELL IN NON-CTSS VERSION
                       75043  KEYVAL COMMON  1
                       75042  ABANTP COMMON  1             ABANDON TAPE FILE INDICATOR
                       75041  NOCHAN COMMON  1             NO. OF CHANNELS BEING READ (1 OR 2)
                       75040  DU     COMMON  1             PROBLEM NO. OF DUMP/LOAD PACKAGE
                       75037  DP     COMMON  1             PROGRAMMER NO. OF DITTO.
                       75036  LFNA   COMMON  1             LOAD TAPE FILE NAME (PART 1)
                       75035  LFNB   COMMON  1              ,,   ,,   ,,   ,,  (PART 2)
                       75021         COMMON  11            DUMPED FILE'S PREAMBLE FROM DUMP TAPE
                       75021  PREAM  COMMON  1             DUMPED FILE'S DUMP TAPE PREAMBLE 1ST WORD
                       75020  BFNA   COMMON  1             CHANNEL B LOAD TAPE FILE NAME (PART 1)
                       75017  BFNB   COMMON  1             CHANNEL B LOAD TAPE FILE NAME (PART 2)
                       75016  AUN    COMMON  1             CHANNEL A UNIT NO.
                       75015  BUN    COMMON  1             CHANNEL B UNIT NO.
                       75014  TEOF   COMMON  1             TAPE EOF INDICATOR/WORD COUNT
                       75010         COMMON  3             LABEL OF TAPE FILE CURRENTLY BEING LOADED
                       75010  LABEL  COMMON  1             LABEL OF TAPE FILE DITTO.   1ST WORD
                       75007  X      COMMON  1             TAPE FILE POINTER
                                     END
1      PHASE 1 OF THE DAEMON DISK/DRUM RELOAD    D.A. ANDERSON  01/28/68         01/28/69  915.7 PAGE 1
                        POST PROCESSOR ASSEMBLY DATA

       75006 IS THE LAST LOCATION NOT USED BY THIS PROGRAM
       3446 IS THE FIRST LOCATION NOT USED BY THIS PROGRAM

0REFERENCES TO DEFINED SYMBOLS
      75007      X  3406
       2224     B1   655, 1266, 1511, 1753
       2173     C3   236,  616, 1107
       2174     C7   244,  670, 1116
      75037     DP    47,  101,  105,  344,  350,  405, 3406
      75040     DU    45,  100,  104,  343,  347,  402, 3406
       1355     UF  3406
       2221    1BL   413,  440,  461,  505,  527,  565,  567,  734,  736,  755, 1000, 1045, 1071, 1073, 1234, 1331, 1367
                    1560, 1605, 1627, 1636
      75016    AUN    60,  155,  170,  175, 1440, 1445, 3406
      75015    BUN    62,  163,  206, 3406
       2200    ENT   236,  244,  251,  255,  260,  261,  271,  272,  273,  274,  506,  514,  515,  516,  517,  530,  537
                     540,  541,  542,  616,  624,  625,  663,  670,  675,  676,  700,  706,  710,  713,  715,  716,  723
                    1107, 1116, 1123, 1124, 1127, 1130, 1144, 1145, 1153, 1154, 1155, 1156, 1220, 1231, 1235, 1240, 1241
                    1244, 1245, 1274, 1305, 1311, 1315, 1317, 1322, 1332, 1334, 1341, 1345, 1347, 1350, 1356, 1357, 1360
                    1361, 1370, 1517, 1527, 1533, 1542, 1546, 1550, 1561, 1564, 1565, 1573, 1574, 1575, 1576, 1606, 1612
                    1613, 1621, 1622, 1630, 1637, 1642, 1643, 1646, 1647
       3203    IN1   415,  442,  463
       2217    MFD   214,  230,  533, 1076, 1256, 1264, 1271, 1302, 1405, 1473, 1501, 1507, 1514, 1524, 1656, 2044, 2066
         31    RDF  2150
      77777    UFL  3406
       3271   2MFD  1166, 1206
         17   BASE  3406
      75020   BFNA    52,  140,  147,  161, 3406
      75017   BFNB    56,  141,  150,  162, 3406
       2177   CODE   200,  241,  247,  264,  522,  576,  621,  635,  673, 1023, 1040, 1112, 1121, 1133, 1212, 1276, 1307
                    1433, 1521, 1531
          2   EXIT  1415, 1430, 1705
       2220   FILE   215,  233,  252,  534, 1101, 1257, 1265, 1272, 1303, 1312, 1406, 1474, 1502, 1510, 1515, 1525, 1543
                    1657, 2045, 2067
         37   FOUT  1414, 1427, 1704
        610   LDHM   601
      75036   LFNA    51,  125,  134,  153, 3406
      75035   LFNB    54,  126,  135,  154, 3406
       3267   MFD2  1105
        211   NO.B   203
         13   OPEN   636, 1254, 1477, 1735
       1700   QUIT   330,  367, 1466, 1673
       2135   RDF1   235,  243,  615,  667, 1106, 1115
       2207   TEMP   262,  265,  430,  431,  500,  502,  510,  574,  577,  611,  613, 1131, 1134, 1136, 1535, 1537, 1541
                    1562, 1607, 1631, 1761, 1765, 1766, 1775, 2001, 2002, 2004, 2011, 2015, 2016, 2024, 2025
      75014   TEOF   277,  730,  742,  765, 1012, 1173, 3406
       3356  ABAND  1452
       1443  A.BAD  1435
          5  ALLOT   107,  217,  352
       1456  ASKOP  1442, 1447
       3127  BEGIN   117
       3233  BUILT   551
       1633  CLBAD  1571, 1601, 1617, 1623
       3164  CLEAN   323, 1463
1      PHASE 1 OF THE DAEMON DISK/DRUM RELOAD    D.A. ANDERSON  01/28/68         01/28/69  915.7 PAGE 2
                        POST PROCESSOR ASSEMBLY DATA

       3362  CLENP  1471
       1467  CLNUP   360, 1666
         20  CLOSE  1002, 1027, 1051, 1404, 1655, 1713, 2037, 2061
        331  CONT1   322,  363
       3311  DELMF  1236, 1640
       1674  FATAL   106,  113,  157,  165,  172,  210,  216,  223,  351,  356,  524,  535, 1042, 1214, 1262, 1267, 1277
                    1310, 1407, 1475, 1505, 1512, 1522, 1532, 1660, 2046, 2070
       3173  GIVUP   327,  366, 1465, 1672
       3175  GOMES   333
      75010  LABEL    65,  176, 3406
       3212  LODHM   444
       1067  MFD.Q   557,  562
         10  MOUNT   166,  204
       3104  NFTID    64
       1163  NOMF2  1111
       3300  NOUFD  1217
       3227  NSRTD   531, 1047
       2114  OCRBC   477, 1536
       1417  PANIC    73
          2  PAUSE   324, 1464, 3406
      75021  PREAM   227,  232,  555,  560,  566,  570,  572,  573,  603,  604,  605,  606,  610,  627,  630,  640,  641
                     646,  647,  653,  654,  660,  661,  720,  721,  735,  737,  747,  754,  756,  772,  777, 1001, 1003
                    1004, 1006, 1007, 1020, 1030, 1031, 1033, 1034, 1046, 1052, 1053, 1056, 1057, 1062, 1063, 1064, 1065
                    1072, 1074, 1075, 1100, 3406
       2141  RDF1A  2136
       2156  RDFX4  2141, 2164, 2165
       1713  RESET   336, 1413, 1423, 1454, 1700
       1720  RSUFD   451,  465,  513, 1005, 1032
          0  SETIO    71
       3261  SHUFD  1021, 1167
       1023  UF1BD   634
       3145  UNRD1   307
        174  VER.A  1436, 1443
        360 1CLNUP   324
       1666 2CLNUP   122, 1464
       1453 ABAND1   304
       1450 ABANDN   212,  226,  242,  250,  554,  622,  674, 1113, 1122
          5 ABANKY  3406
      75042 ABANTP    41, 1455, 3406
       3336 ALLDON  1412
       1667 ASKOP1  1457
        316 ASKOP2   311,  764, 1172, 1202, 1211
        361 ASKOP3   317
         34 ASKOPR   320,  361,  443, 1460, 1667
          4 ATTACH   103,  213,  346,  532, 1472, 1744, 2043, 2065
        277 BADMF1   225,  237,  245
       3351 BADTAP  1446
       1222 BADUF1  1151, 1161, 1354, 1364
       1232 BADUF2  1223, 1340
       1226 BADUFD  1135, 1142, 1321, 1336
       1246 BADUFR  1114, 1300
        305 BD1MF1   300
         14 BUFFER   652, 1263, 1506, 1750
       3365 CDELMS  1610
       2175 CHANGE    67,  316,  372,  520,  545, 1456, 1661
1      PHASE 1 OF THE DAEMON DISK/DRUM RELOAD    D.A. ANDERSON  01/28/68         01/28/69  915.7 PAGE 3
                        POST PROCESSOR ASSEMBLY DATA

         23 CHFILE   124,  137,  416,  626, 1055, 1143, 1237, 1346, 1563, 1611, 1641, 1726, 2014, 2071
          3 CHLDFL   326,  365,  447, 1462, 1671, 3406
         10 CHREEL  3406
       1224 CKLOD3  1326
       1523 CLNUP1  1602, 1624, 1632, 1650
       1556 CLNUP2  1552
       1603 CLNUP3  1555
       1625 CLNUP4  1545, 1547
       1655 CMFEOF  1530
      77462 COMRLC  3406
          1 CTINUE   322,  363,  445, 3406
         24 DELFIL   133,  146, 1243, 1620, 1645, 2023, 2075
      75045 DEMKEY  3406
       2223 DLU.DM  1344
       3375 DONCLN  1664
       3214 DONTLD   446
         36 DPRINT   115,  301,  305,  313,  331,  337,  411,  436,  457,  503,  525,  547,  563,  732,  744,  751,  757
                     767,  774, 1015, 1043, 1067, 1103, 1163, 1175, 1203, 1215, 1226, 1232, 1247, 1327, 1365, 1372, 1400
                    1410, 1420, 1450, 1467, 1556, 1603, 1625, 1634, 1651, 1662, 1675
        547 ENDMF1   246
       1247 ENDMF2   763, 1120, 1171, 1201, 1210
       1404 ENDMF3  1306
        751 ENDTP2   731,  743
       1051 ENDUF1   672
       2172 EOFCT1  2154, 2163, 2166
       2171 EOFSW1  2133, 2135, 2160
       1675 FATAL1  1375, 1654
       3401 FATERR  1677
         25 FERRTN    75
          1 FS.TST   114
         26 FSTATE   257,  571, 1126
         33 GETLSG   201
       3160 IGNERR   321,  362
        450 IN1ERR   424,  434
         27 INITTF   211
       3224 INMES1   507
        477 INMFD1   267
      75043 KEYVAL  3406
        473 LDQNAM   375,  400,  401,  404,  414,  417,  420,  426,  427,  441,  452,  453,  454,  455,  462,  466,  467
                     470,  471
        436 LDQUES   410
          6 LLSCPY   207, 3127
         11 LLSNFT   171, 3121
       3315 LOADED  1251
        370 LOAD.Q   270,  602
        457 LODHIM   445
        465 LODHM1
          7 LSREEL  3406
       3121 LSTCPY   207, 3127
       3110 LSTNFT   171, 3121
       1173 MF2BAD  1110, 1117
       1203 MF2BD1  1174
        243 MFD1LP   254,  256,  275,  276,  512,  521,  546
       1115 MFD2LP  1125, 1140, 1162, 1221
       1301 MFD3LP  1371
1      PHASE 1 OF THE DAEMON DISK/DRUM RELOAD    D.A. ANDERSON  01/28/68         01/28/69  915.7 PAGE 4
                        POST PROCESSOR ASSEMBLY DATA

       1365 MFD3PR  1314, 1316
       1372 MFDBAD  1275
       1651 MFEOFC  1520
       3133 NCMPL1   303
       3245 NDTP2M   753,  776, 1205
      77777 NEWCOM  3406
       3177 NEWLDF   341
        337 NEWLOD  1462, 1671
        123 NEWTAP   357
        757 NO2MFD  1014
      75041 NOCHAN    43,  202, 3406
        411 NOLOAD   447
        416 NOLOD1   406
       2176 NOLSMF   123,  762, 1170, 1200, 1207, 1325
       3152 NOMF1M   315
        312 NOMFD1   231,  234,  240
       3253 NOMFD2   761
       3304 NOPROP  1230
        522 NOTIN1   263
       1040 NOTIN2   575
       1212 NOTIN3  1132
       3344 NOTNFT  1441
        615 NTIN.2  1050
       3320 NTINMF  1333
       1432 NVER.A   177
       3166 NWLOAD   325,  364, 1461, 1670
        335 NWLOD1   326,  365
      77461 OLDCOM  3406
       3334 OLDENT  1402
         30 OPENDF  2134
       2133 OPNDF1   224,  552
       3341 PANICM  1422
         35 PRNTER   450, 1026, 1222, 1432, 1633, 1674, 1710, 2030, 2060
       2160 RDFEOF  2153
       2150 RDFTSX  2143, 2145, 2147, 2161
         16 RDWAIT  1270, 1301, 1513, 1523, 1755, 1771
         22 RESETF  1716
       1376 RSET40  1324
       2110 RSUFD1  1722, 1727, 1737, 1745, 1751, 1756, 1772, 2033, 2040, 2050, 2062, 2072, 2076, 2101
       2111 RSUFD2  1730, 1740, 1746, 1752, 1757, 1773, 2034, 2041, 2051, 2063, 2073, 2077, 2102
       2112 RSUFD3  1725, 2052, 2103
       2113 RSUFD4  2053, 2104
       2060 RSUFDR  1734, 1743, 1747, 1754, 1764, 2000, 2036, 2042, 2056
       1771 RSUFDX  2003, 2006, 2010, 2013, 2027, 2031
       2032 RSUFDY  1762, 1770, 1776
       2030 RSUFX1  2022, 2026
          6 SETFIL   425,  536, 1061, 1152, 1355, 1572, 2047, 2100
       3325 SH3MFD  1374
       3367 SHRTM1  1653
       1341 STMOD3  1225, 1377, 1403
          4 STOPLD   330,  367, 1466, 1673, 3406
          6 SWCHAN  3406
        742 TAPER1   617
        765 TAPER2   671
        730 TAPERR   553
1      PHASE 1 OF THE DAEMON DISK/DRUM RELOAD    D.A. ANDERSON  01/28/68         01/28/69  915.7 PAGE 5
                        POST PROCESSOR ASSEMBLY DATA

          7 TAPFIL   152,  160
        774 TAPND2   766
       1002 TAPR2A   773
         32 TERMTF   335, 1252, 1453
         15 TRFILE   645, 2032
       1015 UF1BAD   620
       1026 UF1BD1   644,  651,  656,  666,  726, 1054
        555 UF1LP1   312
        636 UF1LP2  1025
        552 UFD1LP   310,  607,  614,  741,  750, 1013, 1022, 1037, 1066, 1077, 1102
        667 UFD2LP   677,  727
         12 UMOUNT  1424, 1437, 1444, 1701
       3237 UNRDBL   740
       3273 UNRMF2  1177
       3241 UNRUFD   746,  771
       1707 UNXERR    76
         21 UPDATE  1253, 1476
          3 UPDMFD    77,  342
         11 VERIFY   174
       3220 WILOAD   464
        717 WR.UFD   704,  705,  707
         17 WRWAIT   657,  717
       2222 ZNULLS  1017, 1165

0 NO ERROR IN ABOVE ASSEMBLY.


LIORDE   BCD 09/19/68 1941.5    8076         00000
1       'OPEN' DUMPED FILE/READ N WORDS FROM DUMPED FILE...M.J.BAILEY,1/31/65                    PAGE 1

                              *           (TIME-SHARING VERSION)
                              *
                       00013         ENTRY   OPENDF
                       00166         ENTRY   RDF
                              *
                                     EXTERN  NLREC,GETLSG
                                     EXTERN  RDWAIT
                                     EXTERN  IODIAG,RDFILE,FWAIT
                                     EXTERN  WRFLX
                              *
                                     INSERT  BMCRSC
                              *
                              *  ZERO-IZE A THROUGH A+X-1
                              *
                               CLEAR MACRO   A,X
                                     AXT     X,1
                                     STZ     A+X,1
                                     TIX     *-1,1,1
                               CLEAR END
                              *
                              *      MOVE X WORDS FROM A ET SEQ TO B ET SEQ
                              *
                               MOVE  MACRO   X,A,B
                                     AXT     X,1
                                     CAL     A+X,1
                                     SLW     B+X,1
                                     TIX     *-2,1,1
                               MOVE  END
                              *
                              *  PRINT ONE LINE COMMENT
                              *
                              PRLINE MACRO   COMNT,NWC,LOC
                                     TSX     WRFLX,4
                                             LOC,,NWC
                                     RMT
                               LOC   BCI     NWC,COMNT
                                     RMT
                              PRLINE END
                              *
                              *
                              *      EXECUTE INST. IN CORE A
                              *
                              *
                              EXEC   MACRO   OPC,ADD
                                     TSX     $GETA,7
                                     OPC     ADD
                              EXEC   END
                              *
                              *      GET KEY SETTING VIA SUPERVISOR, SET ABANTP, NOCHAN IF APPROPRIATE
                              *
                              GETSIG MACRO
                                     TSX     GETLSG,4
                              GETSIG END
                              *
                              *      TEST WHETHER 2ND TAPE COPY IS NEEDED, IF NOT GO TO SKIP
                              *
1       'OPEN' DUMPED FILE/READ N WORDS FROM DUMPED FILE...M.J.BAILEY,1/31/65                    PAGE 2

                              SKIFNB MACRO   SKIP
                                     CLA     NOCHAN
                                     SUB     =1
                                     TZE     SKIP
                              SKIFNB END
                              *
                              *      PRINT AN N-WORD MESSAGE FROM  MESSGE
                              *
                              PRM    MACRO   MESSGE,N
                                     TSX     WRFLX,4
                                             MESSGE,,N
                              PRM    END
                              *
                              *      COMPARE 2 SETS OF N CONSECUTIVE WORDS IN A ETC., AND B ETC. ,
                              *      AND IF THEY DO NOT ALL MATCH, GO TO NF, OR OTHERWISE CONTINUE.
                              *
                              CMPWDS MACRO   N,A,B,NF
                                     AXT     N,1
                                     CAL     A+N,1
                                     LAS     B+N,1
                                     TRA     NF
                                     TRA     *+2
                                     TRA     NF
                                     TIX     *-5,1,1
                              CMPWDS END
                              *
                              *      WAIT FOR I/O ON FILE (A,B) TO END, GO TO E IF ERROR OCCURRED
                              *
                              WAIT   MACRO   A,B,E
                                     TSX     FWAIT,4
                                     PTH     A
                                     PTH     B
                                     PTH     E
                              WAIT   END
                              *
                              *      CLOSE THE FILE (A,B)
                              *
                              CLOSE  MACRO   A,B
                                     TSX     CLOSE,4
                                     PTH     A
                                     PTH     B
                              CLOSE  END
                              *
                              *
                              * - - - - - - - - - - - - - - - - - - - - - - - - - - - - - - -
                              *      'OPEN' NEXT DUMPED FILE -- SKIP TO NEXT (READABLE) FILE,
                              *      READ ITS PREAMBLE, AND ITS FIRST LOGICAL RECORD.
                              * - - - - - - - - - - - - - - - - - - - - - - - - - - - - - - - -
                              *

      00000  454351252360     NLREC
      00001  272563436227     GETLSG
      00002  512466213163     RDWAIT
      00003  314624312127     IODIAG
      00004  512426314325     RDFILE
      00005  266621316360     FWAIT
1       'OPEN' DUMPED FILE/READ N WORDS FROM DUMPED FILE...M.J.BAILEY,1/31/65                    PAGE 3

      00006  665126436760     WRFLX
      00007  475145632551     PRNTER
      00010  636263254626     TSTEOF


      00013  0634 00 1 00156  OPENDF SXA     X1,1
      00014  0634 00 2 00155         SXA     X2,2
      00015  0634 00 3 00154         SXA     X3,3
      00016  0634 00 4 00153         SXA     X4,4
      00017  0600 00 0 00633         STZ     M
      00020  0600 00 0 75014         STZ     TEOF
      00021  0500 00 0 00627         CLA     LEOROP
      00022  0621 00 0 00526         STA     ABNADD
      00023  0074 00 4 00001         TSX     GETLSG,4      IS OPERATOR'S TAPE FILE ABANDON
      00024  0500 00 0 75042         CLA     ABANTP        KEY CODE SETTING ON
      00025  0100 00 0 00031         TZE     *+4           SKIP IF NOT
      00026  0074 00 4 00006         TSX     WRFLX,4
      00027  0 00010 0 00615                 MESL,,8
      00030  0020 00 0 00526         TRA     EORABN        IF SO OBEY IT
      00031  0500 00 0 75007         CLA     X
      00032  0402 00 0 00574         SUB     PHYSRC
      00033 -0120 00 0 00161         TMI     ERTN          ERROR IF PTR SET BEFORE 1ST FILE,SKIP
      00034  0100 00 0 00122         TZE     OQ            SKIP IF FILE IS 1ST ON LOAD TAPE
                              *
                              * - - - - - - - - - - - - - - - - - - - - - - - - - - -
                              *      FIND START OF NEXT LOGICAL RECORD
                              * - - - - - - - - - - - - - - - - - - - - - - - - - - -
                              *
      00035  0500 00 0 00401         CLA     SOME
      00036 -0120 00 0 00057         TMI     JUMP
                              *
      00037  0500 00 0 75007         CLA     X
      00040  0400 00 0 00401         ADD     SOME
      00041  0601 00 0 75007         STO     X
      00042  0601 00 0 00604         STO     Y
      00043  0020 00 0 00051         TRA     *+6
                       00044  FL     EQU     *
      00044  0074 00 4 00001  FLA    TSX     GETLSG,4
      00045  0500 00 0 75007         CLA     X
      00046  0400 00 0 00574         ADD     PHYSRC
      00047  0601 00 0 75007         STO     X             X POINTS AT NEXT PHYSICAL RECORD
      00050  0601 00 0 00604         STO     Y             SO DOES Y
                              *
      00051  0074 00 4 00414  FLAB   TSX     BREAD,4       READ 12 WORDS FROM POSTN Y
 TD   00052  3 00000 0 00556         TXH     OPREAM
 TD   00053  3 00000 0 04123         TXH     =12
      00054  0020 00 0 00044         TRA     FLA           UNREAD, MOVE TO NEXT PHYSICAL REC.
      00055  0020 00 0 00044         TRA     FLA           READ ERROR, MOVE TO NEXT PHYS. REC.
      00056  0020 00 0 00160         TRA     REOF          REAL EOF EXIT
                              *
      00057  0500 00 0 00570  JUMP   CLA     OPREAM+10
      00060  0100 00 0 00044         TZE     FL
      00061  0074 00 4 00000         TSX     NLREC,4
      00062  3 00000 0 04120         PTH     =0
      00063  3 00000 0 04120         PTH     =0
      00064  3 00000 0 00570         PTH     OPREAM+10
1       'OPEN' DUMPED FILE/READ N WORDS FROM DUMPED FILE...M.J.BAILEY,1/31/65                    PAGE 4

      00065  3 00000 0 00573         PTH     LTPBF
      00066  3 00000 0 04123         PTH     =12
      00067  3 00000 0 00574         PTH     PHYSRC
      00070  3 00000 0 00575         PTH     NFLR
      00071  3 00000 0 00576         PTH     NLAST
      00072  0600 00 0 00601         STZ     TEMP
      00073 -0500 00 0 00571         CAL     OPREAM+11
      00074  0621 00 0 00601         STA     TEMP
      00075  0771 00 0 00022         ARS     18
      00076  0621 00 0 00577         STA     IREC
      00077  0500 00 0 00575         CLA     NFLR
      00100  0520 00 0 00576         ZET     NLAST
      00101  0400 00 0 04121         ADD     =1
      00102  0601 00 0 00600         STO     NREC
      00103  0402 00 0 00601         SUB     TEMP
      00104 -0100 00 0 00044         TNZ     FL
                              *
      00105  0500 00 0 00577         CLA     IREC          O.K.
      00106  0402 00 0 00600         SUB     NREC
      00107  0100 00 0 00111         TZE     *+2
      00110  0120 00 0 00044         TPL     FL            SKIP IF IREC .GR. NREC, PREAMBLE INVALID
                              *
      00111  0500 00 0 00577         CLA     IREC          THIS IS A LOGICAL RECORD
      00112  0402 00 0 04121         SUB     =1
      00113 -0100 00 0 00044         TNZ     FL            SPACE DOWN TO NEXT FILE IF NOT 1ST LOG.REC.
                              *
      00114                          MOVE    12,OPREAM,PREAM  THIS IS 1ST LOG.REC. IN FILE,AND WE WISH
      00114  0774 00 1 00014         AXT     12,1                                                             .001
      00115 -0500 00 1 00572         CAL     OPREAM+12,1                                                      .001
      00116  0602 00 1 75035         SLW     PREAM+12,1                                                       .001
      00117  2 00001 1 00115         TIX     *-2,1,1                                                          .001
      00120  0500 00 0 00570         CLA     OPREAM+10
      00121  0020 00 0 00130         TRA     OQC
                              *
                              * - - - - - - - - - - - - - - - - - - - - - - - - -
                              *      READ PREAMBLE OF 1ST DUMPED FILE OF LOAD FILE
                              * - - - - - - - - - - - - - - - - - - - - - - - - -
                              *
      00122  0500 00 0 75007  OQ     CLA     X
      00123  0400 00 0 04121         ADD     =1
      00124  0601 00 0 75007         STO     X
      00125  0601 00 0 00604         STO     Y
      00126  0600 00 0 00401         STZ     SOME
      00127  0020 00 0 00051         TRA     FLAB
                              *
                              *
      00130  0601 00 0 00625  OQC    STO     DWC
      00131  0500 00 0 75007         CLA     X
      00132  0400 00 0 04123         ADD     =12
      00133  0601 00 0 00604         STO     Y             Y=X+12
      00134  0500 00 0 00577         CLA     IREC
      00135  0402 00 0 00600         SUB     NREC
      00136 -0120 00 0 00141         TMI     *+3
      00137  0500 00 0 00625         CLA     DWC           (TRAILING ZEROS NOT INCLUDED IF
      00140  0020 00 0 00142         TRA     *+2            NOT A FULL LOGICAL RECORD)
      00141  0500 00 0 00573         CLA     LTPBF
1       'OPEN' DUMPED FILE/READ N WORDS FROM DUMPED FILE...M.J.BAILEY,1/31/65                    PAGE 5

      00142  0601 00 0 00626         STO     RWC           DATA WORD COUNT FOR LOGICAL RECORD
      00143  0074 00 4 00001         TSX     GETLSG,4
      00144  0074 00 4 00365         TSX     GSOME,4
                              *
                              *      READ IN THE DATA WORDS OF THE 1ST LOGICAL RECORD OF FILE
                              *
                              *
      00145  0074 00 4 00443         TSX     AREAD,4       READ IN RWC WORDS FROMPOSTN Y (=X+12)
 TD   00146  3 00000 0 00634         TXH     WBF
 TD   00147  3 00000 0 00626         TXH     RWC
      00150  0020 00 0 00161         TRA     ERTN          UNREAD, ERROR, SKIP
      00151  0020 00 0 00161         TRA     ERTN          READ ERROR, SKIP
      00152  0020 00 0 00160         TRA     REOF          TAPE EOF - SKIP
                              * - - - - - - - - - - - - - - - - - - - - -
                              *      RESTORE AND RETURN FROM OPENDF
                              * - - - - - - - - - - - - - - - - - - - - -
                              *
      00153  0774 00 4 00000  X4     AXT     **,4
      00154  0774 00 3 00000  X3     AXT     **,3
      00155  0774 00 2 00000  X2     AXT     **,2
      00156  0774 00 1 00000  X1     AXT     **,1
      00157  0020 00 4 00003         TRA     3,4           RETURN TO CALLER
                              *
      00160 -0625 00 0 75014  REOF   STL     TEOF          TAPE EOF RETURN
      00161  0534 00 4 00153  ERTN   LXA     X4,4          ERROR RETURN
      00162  0534 00 3 00154  IX3    LXA     X3,3
      00163  0534 00 2 00155         LXA     X2,2
      00164  0534 00 1 00156         LXA     X1,1
      00165  0020 60 4 00001         TRA*    1,4
                              *
                              * - - - - - - - - - - - - - - - - - - - - - - - - - - -
                              *      READ FROM DUMPED FILE ON TAPE N WORDS INTO ANAME ETC.
                              * - - - - - - - - - - - - - - - - - - - - - - - - - - -
                              *
      00166  0634 00 1 00270  RDF    SXA     DX1,1
      00167  0634 00 2 00267         SXA     DX2,2
      00170  0634 00 3 00266         SXA     DX3,3
      00171  0634 00 4 00265         SXA     DX4,4
      00172  0074 00 4 00001         TSX     GETLSG,4
      00173  0600 00 0 75014         STZ     TEOF
      00174  0534 00 4 00265         LXA     DX4,4
      00175  0500 00 4 00001         CLA     1,4
      00176  0621 00 0 00245         STA     RFF           ANAME
      00177  0771 00 0 00022         ARS     18            ADDRESS OF N
      00200  0621 00 0 00212         STA     RFA
      00201  0621 00 0 00215         STA     RFB
      00202  0500 00 0 00630         CLA     LEORRD
      00203  0621 00 0 00526         STA     ABNADD
      00204  0500 00 0 75042         CLA     ABANTP        TEST FOR OPRTR REQUESTED TAPE FILE ABANDON
      00205  0100 00 0 00211         TZE     *+4           SKIP IF NOT
      00206  0074 00 4 00006         TSX     WRFLX,4
      00207  0 00010 0 00615                 MESL,,8
      00210  0020 00 0 00526         TRA     EORABN        IF SO, SKIP
                              *
                              *      ENSURE THAT ONLY AS MANY WORDS AS ARE
                              *      LEFT IN THE DUMPED FILE GET READ.
1       'OPEN' DUMPED FILE/READ N WORDS FROM DUMPED FILE...M.J.BAILEY,1/31/65                    PAGE 6

                              *
      00211  0502 00 0 00625         CLS     DWC           NO. WDS. LEFT IN FILE
      00212  0400 00 0 00000  RFA    ADD     **            (N)
      00213  0100 00 0 00220         TZE     RFC
      00214  0120 00 0 00220         TPL     RFC           SKIP IF N LARGER THAN NO. WORDS IN FILE
      00215  0500 00 0 00000  RFB    CLA     **            (N)
      00216  0600 60 4 00004         STZ*    4,4           NO END TO FILE THIS TIME
      00217  0020 00 0 00222         TRA     RFD           SKIP
      00220  0500 00 0 00625  RFC    CLA     DWC           NO. OF WORDS LEFT IN FILE, IS
      00221  0601 60 4 00004         STO*    4,4           END (DUMPED) FILE WORD COUNT, AND
      00222  0734 00 3 00000  RFD    PAX     0,3           NO. OF WORDS TO BE RETURNED BY RDF
      00223  0601 00 0 00572         STO     NW1
      00224 -0520 00 0 00626         NZT     RWC
      00225  0020 00 0 00274         TRA     RFH           SKIP IF NOTHING LEFT IN BUFFER
                              *
                              *      MOVE UP TO A LOGICAL RECORD FULL OF WORDS TO CALLER'S AREA
                              *
      00226  0502 00 0 00626  RFDA   CLS     RWC           NO. OF WORDS LAST READ FROM LOGICAL REC.
      00227  0400 00 0 00572         ADD     NW1
      00230  0120 00 0 00233         TPL     *+3           SKIP IF NO. WORDS TO BE READ IS BIGGER
      00231  0500 00 0 00572         CLA     NW1           TOTAL NO. WORDS LEFT TO BE READ SMALLER
      00232  0020 00 0 00234         TRA     *+2           SKIP TO MOVE THAT NO. ONLY
      00233  0500 00 0 00626         CLA     RWC           ELSE USE NO. OF WORDS IN LOG. REC.
      00234  0601 00 0 00632         STO     T             SET NO. WORDS TO BE MOVED , = T
      00235  0734 00 1 00000         PAX     0,1
      00236  0400 00 0 00245         ADD     RFF           ANAME+........
      00237  0621 00 0 00245         STA     RFF           ANAME+........+T
      00240  0500 00 0 00632         CLA     T             T
      00241  0400 00 0 00631         ADD     LWBF          WBF
      00242  0400 00 0 00633         ADD     M             M
      00243  0621 00 0 00244         STA     RFE           WBF+M+T
                              *
      00244  0500 00 1 00000  RFE    CLA     **,1          (WBF+M+T)
      00245  0601 00 1 00000  RFF    STO     **,1          (ANAME + SUM OF ALL T'S)
      00246  2 00001 1 00244         TIX     RFE,1,1
                              *
                              *      DECREASE NO. WORDS LEFT IN FILE AND IN LOG. REC. BUFFER AND NO.
                              *      STILL NEEDED TO BE READ
                              *
      00247  0500 00 0 00625         CLA     DWC
      00250  0402 00 0 00632         SUB     T
      00251  0601 00 0 00625         STO     DWC
      00252  0500 00 0 00633         CLA     M
      00253  0400 00 0 00632         ADD     T
      00254  0601 00 0 00633         STO     M
      00255  0500 00 0 00626         CLA     RWC
      00256  0402 00 0 00632         SUB     T
      00257  0601 00 0 00626         STO     RWC
      00260  0500 00 0 00572         CLA     NW1
      00261  0402 00 0 00632         SUB     T
      00262  0601 00 0 00572         STO     NW1
      00263 -0100 00 0 00274         TNZ     RFH           SKIP IF MORE WORDS NEEDED
                              *
                              * - - - - - - - - - - - - - -
                              *      NORMAL RETURN FROM RDF
                              * - - - - - - - - - - - - - -
1       'OPEN' DUMPED FILE/READ N WORDS FROM DUMPED FILE...M.J.BAILEY,1/31/65                    PAGE 7

                              *
      00264  0074 00 4 00001         TSX     GETLSG,4
      00265  0774 00 4 00000  DX4    AXT     **,4
      00266  0774 00 3 00000  DX3    AXT     **,3
      00267  0774 00 2 00000  DX2    AXT     **,2
      00270  0774 00 1 00000  DX1    AXT     **,1
      00271  0520 60 4 00004         ZET*    4,4           TEST E.O.F. WORD COUNT
      00272  0020 60 4 00003         TRA*    3,4           EOF (IN DUMPED FILE) RETURN, IF NON-ZERO
      00273  0020 00 4 00006         TRA     6,4           NORMAL RETURN IF ZERO
                              *
                              *      READ IN ANOTHER LOGICAL RECORD FULL
                              *
      00274  0074 00 4 00001  RFH    TSX     GETLSG,4
      00275  0500 00 0 00577         CLA     IREC
      00276  0400 00 0 04121         ADD     =1
      00277  0601 00 0 00577         STO     IREC          INDEX OF NEXT LOGICAL RECORD
      00300  0402 00 0 00600         SUB     NREC          LAST LOG. RE. NO.
      00301 -0120 00 0 00304         TMI     *+3           SKIP IF NOT LAST LOG. REC.
      00302  0500 00 0 00625         CLA     DWC           LAST ONE, GET NO. WORDS LEFT IN FILE
      00303  0020 00 0 00305         TRA     *+2           SKIP
      00304  0500 00 0 00573         CLA     LTPBF         NOT LAST, GET SIZE OF A LOG. REC.
      00305  0601 00 0 00626         STO     RWC           FOR NO. OF DATA WORDS TO BE READ
      00306  0600 00 0 00633         STZ     M
      00307  0074 00 4 00365         TSX     GSOME,4
                              *
      00310  0500 00 0 75007  RFHA   CLA     X
      00311  0400 00 0 00603         ADD     LLR
      00312  0601 00 0 00604         STO     Y             MOVE Y TO START OF NEXT LOG. REC.
      00313  0601 00 0 75007         STO     X
                              *
      00314                          MOVE    12,OPREAM,PRPR
      00314  0774 00 1 00014         AXT     12,1                                                             .001
      00315 -0500 00 1 00572         CAL     OPREAM+12,1                                                      .001
      00316  0602 00 1 00556         SLW     PRPR+12,1                                                        .001
      00317  2 00001 1 00315         TIX     *-2,1,1                                                          .001
      00320  0074 00 4 00414         TSX     BREAD,4       READ PREAMBLE OF NEXT LOG. REC.
 TD   00321  3 00000 0 00556         TXH     OPREAM        AFTER MOVING 2ND COPY DOWN
 TD   00322  3 00000 0 04123         TXH     =12           TO X, AND SETTING X=Y.
      00323  0020 00 0 00357         TRA     DIX4          NOTHING READ
      00324  0020 00 0 00357         TRA     DIX4          READ ERROR
      00325  0020 00 0 00356         TRA     DIX47         TAPE EOF
                              *
      00326                          CMPWDS  11,OPREAM,PRPR,BADFIL
      00326  0774 00 1 00013         AXT     11,1                                                             .001
      00327 -0500 00 1 00571         CAL     OPREAM+11,1                                                      .001
      00330 -0340 00 1 00555         LAS     PRPR+11,1                                                        .001
      00331  0020 00 0 00352         TRA     BADFIL                                                           .001
      00332  0020 00 0 00334         TRA     *+2                                                              .001
      00333  0020 00 0 00352         TRA     BADFIL                                                           .001
      00334  2 00001 1 00327         TIX     *-5,1,1                                                          .001
                              *
      00335  0500 00 0 00571         CLA     OPREAM+11
      00336  0402 00 0 00555         SUB     PRPR+11
      00337  0100 00 0 00310         TZE     RFHA          IGNORE LOG.REC. IF SAME NO. AS LAST
                              *
      00340  0500 00 0 75007  RFI    CLA     X
1       'OPEN' DUMPED FILE/READ N WORDS FROM DUMPED FILE...M.J.BAILEY,1/31/65                    PAGE 8

      00341  0400 00 0 04123         ADD     =12
      00342  0601 00 0 00604         STO     Y             Y=X+12
                              *
      00343  0074 00 4 00443         TSX     AREAD,4       READ IN RWC DATA WORDS FROM
 TD   00344  3 00000 0 00634         TXH     WBF           POSTN. Y = X+12 OF TAPE FILE
 TD   00345  3 00000 0 00626         TXH     RWC
      00346  0020 00 0 00357         TRA     DIX4
      00347  0020 00 0 00357         TRA     DIX4
      00350  0020 00 0 00356         TRA     DIX47
                              *
      00351  0020 00 0 00226         TRA     RFDA          RETURN TO MOVE WORDS FROM BUFFER
                              *
      00352  0500 00 0 00401  BADFIL CLA     SOME
      00353 -0760 00 0 00003         SSM
      00354  0601 00 0 00401         STO     SOME
      00355  0020 00 0 00357         TRA     DIX4
                              *
                              *      ERROR RETURN FROM RDF
                              *
      00356 -0625 00 0 75014  DIX47  STL     TEOF
      00357  0074 00 4 00001  DIX4   TSX     GETLSG,4
      00360  0534 00 4 00265         LXA     DX4,4
      00361  0534 00 3 00266  DIX3   LXA     DX3,3
      00362  0534 00 2 00267         LXA     DX2,2
      00363  0534 00 1 00270         LXA     DX1,1
      00364  0020 60 4 00002         TRA*    2,4
                              *
      00365  0774 00 1 00001  GSOME  AXT     1,1
      00366  0500 00 0 00626         CLA     RWC
      00367  0400 00 0 04123         ADD     =12
      00370  0402 00 0 04124         SUB     =432
      00371 -0120 00 0 00374         TMI     *+3
      00372  0100 00 0 00374         TZE     *+2
      00373  1 00001 1 00370         TXI     *-3,1,1
      00374  0754 00 1 00000         PXA     ,1
      00375  0131 00 0 00000         XCA
      00376  0200 00 0 04124         MPY     =432
      00377 -0600 00 0 00401         STQ     SOME
      00400  0020 00 4 00001         TRA     1,4
                              *
      00401  0 00000 0 00000  SOME   PZE
                              *
                              * - - - - - - - - - - - - - - - - - - - - - - - - - - - - - - - - -
                              *      BASIC READ - SKIP 2ND COPY DOWN TO X, SET X=Y, READ FROM MAIN
                              *       COPY, POSITION Y, INTO (1,4), A NO. OF WORDS GIVEN BY (2,4).
                              * - - - - - - - - - - - - - - - - - - - - - - - - - - - - - - - - -
                              *
      00402  0634 00 4 00410  CHERR  SXA     CH4,4
      00403  0074 00 4 00003         TSX     IODIAG,4
      00404  3 00007 0 00533         TXH     ERAY,,7
      00405 -0500 00 0 00536         CAL     ERAY+3
      00406  0402 00 0 04122         SUB     =6
      00407  0100 00 0 00412         TZE     ANYEOF
      00410  0774 00 4 00000  CH4    AXT     **,4
      00411  0020 00 4 00002         TRA     2,4
      00412  0534 00 4 00410  ANYEOF LXA     CH4,4
1       'OPEN' DUMPED FILE/READ N WORDS FROM DUMPED FILE...M.J.BAILEY,1/31/65                    PAGE 9

      00413  0020 60 4 00001         TRA*    1,4
                              *
                              *
      00414  0634 00 4 00504  BREAD  SXA     BRX4,4
      00415  0500 00 4 00001         CLA     1,4
      00416  0621 00 0 00455         STA     BRE
      00417  0621 00 0 00500         STA     BRI
      00420  0500 60 4 00002         CLA*    2,4
      00421  0601 00 0 00605         STO     NWORDS
      00422                          SKIFNB  AREADA        SKIP IF NO 2ND TAPE COPY
      00422  0500 00 0 75041         CLA     NOCHAN                                                           .001
      00423  0402 00 0 04121         SUB     =1                                                               .001
      00424  0100 00 0 00451         TZE     AREADA                                                           .001
                              *
      00425  0074 00 4 00004         TSX     RDFILE,4
      00426  3 00000 0 75020         PTH     BFNA
      00427  3 00000 0 75017         PTH     BFNB
      00430  3 00000 0 75007         PTH     X
      00431  3 00001 0 00601         PTH     TEMP,,1
      00432  3 00000 0 00515         PTH     BRM
      00433  3 00000 0 00601         PTH     TEMP
      00434  3 00000 0 00436         PTH     BRB
      00435  0020 00 0 00451         TRA     AREADA
                              *
      00436  0074 00 4 00402  BRB    TSX     CHERR,4
 TD   00437  3 00000 0 00515         TXH     BRM
      00440                          PRM     MESK,7
      00440  0074 00 4 00006         TSX     WRFLX,4                                                          .001
      00441  0 00007 0 00606                 MESK,,7                                                          .001
      00442  0020 00 0 00451         TRA     AREADA
                              *
                              *      READ FROM MAIN COPY, POSITION Y, INTO (1,4) ET SEQ, (2,4) WORDS
                              *
      00443  0634 00 4 00504  AREAD  SXA     BRX4,4
      00444  0500 00 4 00001         CLA     1,4
      00445  0621 00 0 00455         STA     BRE
      00446  0621 00 0 00500         STA     BRI
      00447  0500 60 4 00002         CLA*    2,4
      00450  0601 00 0 00605         STO     NWORDS
      00451  0074 00 4 00002  AREADA TSX     RDWAIT,4
 TD   00452  3 00000 0 75036         TXH     LFNA
 TD   00453  3 00000 0 75035         TXH     LFNB
 TD   00454  3 00000 0 00604         TXH     Y
      00455  2 00605 0 00000  BRE    TIX     **,,NWORDS
 TD   00456  3 00000 0 00515         TXH     BRM
 TD   00457  3 00000 0 75014         TXH     TEOF
 TD   00460  3 00000 0 00463         TXH     BRF
      00461  0074 00 4 00001         TSX     GETLSG,4
      00462  0020 00 0 00504         TRA     BRX4
                              *
      00463  0074 00 4 00402  BRF    TSX     CHERR,4
 TD   00464  3 00000 0 00515         TXH     BRM
                              *
                              *      ERROR, TRY TO READ FROM SECONDARY COPY INSTEAD OF MAIN ONE
                              *
      00465                          SKIFNB  BRK           SKIP IF NO 2ND TAPE COPY
1       'OPEN' DUMPED FILE/READ N WORDS FROM DUMPED FILE...M.J.BAILEY,1/31/65                    PAGE 10

      00465  0500 00 0 75041         CLA     NOCHAN                                                           .001
      00466  0402 00 0 04121         SUB     =1                                                               .001
      00467  0100 00 0 00510         TZE     BRK                                                              .001
      00470  0074 00 4 00005         TSX     FWAIT,4       WAIT ON I/O.
 TD   00471  3 00000 0 75020         TXH     BFNA
 TD   00472  3 00000 0 75017         TXH     BFNB
 TD   00473  3 00000 0 00474         TXH     *+1
      00474  0074 00 4 00002         TSX     RDWAIT,4
 TD   00475  3 00000 0 75020         TXH     BFNA
 TD   00476  3 00000 0 75017         TXH     BFNB
 TD   00477  3 00000 0 00604         TXH     Y
      00500  2 00605 0 00000  BRI    TIX     **,,NWORDS
 TD   00501  3 00000 0 00515         TXH     BRM
 TD   00502  3 00000 0 75014         TXH     TEOF
 TD   00503  3 00000 0 00506         TXH     BRJ
      00504  0774 00 4 00000  BRX4   AXT     **,4
      00505  0020 00 4 00006         TRA     6,4
                              *
      00506  0074 00 4 00402  BRJ    TSX     CHERR,4
 TD   00507  3 00000 0 00515         TXH     BRM
      00510  0074 00 4 00007  BRK    TSX     $PRNTER,4
      00511  0534 00 4 00504         LXA     BRX4,4
      00512  0020 00 4 00004         TRA     4,4
                              *
      00513  0534 00 4 00504  BRLA   LXA     BRX4,4
      00514  0020 00 4 00005         TRA     5,4
                              *
      00515  0074 00 4 00010  BRM    TSX     $TSTEOF,4     END OF REEL
      00516  0020 00 0 00526         TRA     ABNADD        ABANDON TAPE FILE
      00517  0020 00 0 00521         TRA     *+2           ERROR
      00520  0020 00 0 00513         TRA     BRLA          END OF FILE (LAST REEL)
      00521  0500 00 0 00574         CLA     PHYSRC        END OF REEL, REELS CHANGED
      00522  0400 00 0 04121         ADD     =1
      00523  0601 00 0 75007         STO     X
      00524  0601 00 0 00604         STO     Y
      00525  0020 00 0 00451         TRA     AREADA
                              *
                       00526  EORABN EQU     *
      00526  0020 00 0 00000  ABNADD TRA     **            (OPENDF OR RDF RETURN)
                              *
      00527  0534 00 4 00153  EORAB1 LXA     X4,4          OPENDF RETURN
      00530  1 77777 4 00162         TXI     IX3,4,-1      GO RETURN VIA (2,4)
                              *
      00531  0534 00 4 00265  EORAB2 LXA     DX4,4         RDF RETURN
      00532  1 77775 4 00361         TXI     DIX3,4,-3     GO RETURN VIA (5,4)
                              *
                              * - - - - - - - - - - - - - - - - - - - - - - - - - - - -
                              *      CONSTANTS, VARIABLES, ETC.
                              * - - - - - - - - - - - - - - - - - - - - - - - - - - - -
                              *
      00533                   ERAY   BSS     7
      00542                   PRPR   BSS     12
      00556                   OPREAM BSS     12
      00572  0 00000 0 00000  NW1    PZE
      00573  0 00000 0 03264  LTPBF  PZE     4*432-12
      00574  0 00000 0 00660  PHYSRC PZE     432
1       'OPEN' DUMPED FILE/READ N WORDS FROM DUMPED FILE...M.J.BAILEY,1/31/65                    PAGE 11

      00575  0 00000 0 00000  NFLR   PZE
      00576  0 00000 0 00000  NLAST  PZE
      00577  0 00000 0 00000  IREC   PZE
      00600  0 00000 0 00000  NREC   PZE
      00601                   TEMP   BSS     2
      00603  0 00000 0 03300  LLR    PZE     4*432
      00604  0 00000 0 00000  Y      PZE
      00605  0 00000 0 00000  NWORDS PZE
      00606  606225234645     MESK   BCI     7, SECONDARY COPY NOT MOVED DOWN THIS TIME.
      00615  606321472560     MESL   BCI     8, TAPE FILE WILL BE ABANDONED, PUT KEY UP AGAIN.
      00625  0 00000 0 00000  DWC    PZE
      00626  0 00000 0 00000  RWC    PZE
      00627  0 00000 0 00527  LEOROP PZE     EORAB1
      00630  0 00000 0 00531  LEORRD PZE     EORAB2
      00631  0 00000 0 00634  LWBF   PZE     WBF
      00632  0 00000 0 00000  T      PZE
      00633  0 00000 0 00000  M      PZE
      00634                   WBF    BSS     4*432-12
                                     INSERT  BCMEQB
                              *
                              *  -  -  -  -  -  -  -  -  -  -  -  -  -  -  -  -  -  -
                              *      COMMON AND EQUIVALENCE FOR SECONDARY STORAGE LOAD
                              *         (TIME-SHARING VERSION)
                              *  -  -  -  -  -  -  -  -  -  -  -  -  -  -  -  -  -  -
                              *
                      075045  DEMKEY BOOL    75045         CORE A LOCATION FOR DAEMON KEY SETTING
                              *
                      000017  BASE   BOOL    17            KEY CODE BASE
                      000001  CTINUE BOOL    1             KEY CODE TO CONTINUE WITH PROGRAM,NO CHANGE
                      000002  PAUSE  BOOL    2             KEY CODE TO WAIT 60 SECS.
                      000003  CHLDFL BOOL    3             KEY CODE TO USE DIFFERENT LOAD FILE
                      000004  STOPLD BOOL    4             KEY CODE TO STOP LOADING, START DUMPING
                      000005  ABANKY BOOL    5             KEY CODE TO ABANDON LOAD TAPE FILE
                      000006  SWCHAN BOOL    6             KEY CODE TO GO FROM 1 OR 2 TO 2 OR 1 CHANS.
                      000007  LSREEL BOOL    7             KEY CODE TO INDICATE LAST REEL OF LOAD FILE
                      000010  CHREEL BOOL    10            KEY CODE TO CORRECT REEL ORDER ERROR
                       77777  NEWCOM EQU     -1            TOP OF MEMORY
                      077461  OLDCOM BOOL    77461         OLD TOP OF COMMON
                       77462  COMRLC EQU     OLDCOM-NEWCOM RELOCATION FACTOR
                       77777         COMMON  COMRLC        RELOCATE COMMON
                       01355  UF     EQU     32767/2-DEMKEY/2 LENGTH OF USER LIST
                       77777  UFL    COMMON  2*UF          USER FILE LIST  (1ST PARTS OF FILE NAMES)
                       75044         COMMON  1             INSERT DUMMY IF NECESSARY
                       75043         COMMON  1             DEMKEY CELL IN NON-CTSS VERSION
                       75043  KEYVAL COMMON  1
                       75042  ABANTP COMMON  1             ABANDON TAPE FILE INDICATOR
                       75041  NOCHAN COMMON  1             NO. OF CHANNELS BEING READ (1 OR 2)
                       75040  DU     COMMON  1             PROBLEM NO. OF DUMP/LOAD PACKAGE
                       75037  DP     COMMON  1             PROGRAMMER NO. OF DITTO.
                       75036  LFNA   COMMON  1             LOAD TAPE FILE NAME (PART 1)
                       75035  LFNB   COMMON  1              ,,   ,,   ,,   ,,  (PART 2)
                       75021         COMMON  11            DUMPED FILE'S PREAMBLE FROM DUMP TAPE
                       75021  PREAM  COMMON  1             DUMPED FILE'S DUMP TAPE PREAMBLE 1ST WORD
                       75020  BFNA   COMMON  1             CHANNEL B LOAD TAPE FILE NAME (PART 1)
                       75017  BFNB   COMMON  1             CHANNEL B LOAD TAPE FILE NAME (PART 2)
                       75016  AUN    COMMON  1             CHANNEL A UNIT NO.
1       'OPEN' DUMPED FILE/READ N WORDS FROM DUMPED FILE...M.J.BAILEY,1/31/65                    PAGE 12

                       75015  BUN    COMMON  1             CHANNEL B UNIT NO.
                       75014  TEOF   COMMON  1             TAPE EOF INDICATOR/WORD COUNT
                       75010         COMMON  3             LABEL OF TAPE FILE CURRENTLY BEING LOADED
                       75010  LABEL  COMMON  1             LABEL OF TAPE FILE DITTO.   1ST WORD
                       75007  X      COMMON  1             TAPE FILE POINTER
                                     END

1       'OPEN' DUMPED FILE/READ N WORDS FROM DUMPED FILE...M.J.BAILEY,1/31/65                    PAGE 1
                        POST PROCESSOR ASSEMBLY DATA

       75006 IS THE LAST LOCATION NOT USED BY THIS PROGRAM
       4125 IS THE FIRST LOCATION NOT USED BY THIS PROGRAM

0REFERENCES TO DEFINED SYMBOLS
        633      M    17,  242,  252,  254,  306
        632      T   234,  240,  250,  253,  256,  261
      75007      X    31,   37,   41,   45,   47,  122,  124,  131,  310,  313,  340,  430,  523, 4120
        604      Y    42,   50,  125,  133,  312,  342,  454,  477,  524
      75037     DP  4120
      75040     DU  4120
         44     FL    44,   60,  104,  110,  113
        122     OQ    34
       1355     UF  4120
        156     X1    13,  164
        155     X2    14,  163
        154     X3    15,  162
        153     X4    16,  161,  527
      75016    AUN  4120
        436    BRB   434
        455    BRE   416,  445
        463    BRF   460
        500    BRI   417,  446
        506    BRJ   503
        510    BRK   467
        515    BRM   432,  437,  456,  464,  501,  507
      75015    BUN  4120
        410    CH4   402,  412
        625    DWC   130,  137,  211,  220,  247,  251,  302
        270    DX1   166,  363
        267    DX2   167,  362
        266    DX3   170,  361
        265    DX4   171,  174,  360,  531
         44    FLA    54,   55
        162    IX3   530
        603    LLR   311
        572    NW1   223,  227,  231,  260,  262
        130    OQC   121
        166    RDF     0
        212    RFA   200
        215    RFB   201
        220    RFC   213,  214
        222    RFD   217
        244    RFE   243,  246
        245    RFF   176,  236,  237
        274    RFH   225,  263
        340    RFI
        626    RWC   142,  147,  224,  226,  233,  255,  257,  305,  345,  366
      77777    UFL  4120
        634    WBF   146,  344,  631
         17   BASE  4120
      75020   BFNA   426,  471,  475, 4120
      75017   BFNB   427,  472,  476, 4120
        513   BRLA   520
        504   BRX4   414,  443,  462,  511,  513
1       'OPEN' DUMPED FILE/READ N WORDS FROM DUMPED FILE...M.J.BAILEY,1/31/65                    PAGE 2
                        POST PROCESSOR ASSEMBLY DATA

        361   DIX3   532
        357   DIX4   323,  324,  346,  347,  355
        533   ERAY   404,  405
        161   ERTN    33,  150,  151
         51   FLAB   127
        577   IREC    76,  105,  111,  134,  275,  277
         57   JUMP    36
      75036   LFNA   452, 4120
      75035   LFNB   453, 4120
        631   LWBF   241
        606   MESK   441
        615   MESL    27,  207
        575   NFLR    70,   77
        600   NREC   102,  106,  135,  300
        542   PRPR   316,  330,  336
        160   REOF    56,  152
        226   RFDA   351
        310   RFHA   337
        401   SOME    35,   40,  126,  352,  354,  377
        601   TEMP    72,   74,  103,  431,  433
      75014   TEOF    20,  160,  173,  356,  457,  502, 4120
        443  AREAD   145,  343
        414  BREAD    51,  320
        402  CHERR   436,  463,  506
        356  DIX47   325,  350
          5  FWAIT   470
        365  GSOME   144,  307
      75010  LABEL  4120
        573  LTPBF    65,  141,  304
        576  NLAST    71,  100
          0  NLREC    61
          2  PAUSE  4120
      75021  PREAM   116, 4120
          6  WRFLX    26,  206,  440
          5 ABANKY  4120
      75042 ABANTP    24,  204, 4120
        526 ABNADD    22,  203,  516
        412 ANYEOF   407
        451 AREADA   424,  435,  442,  525
        352 BADFIL   331,  333
          3 CHLDFL  4120
         10 CHREEL  4120
      77462 COMRLC  4120
          1 CTINUE  4120
      75045 DEMKEY  4120
        527 EORAB1   627
        531 EORAB2   630
        526 EORABN    30,  210,  526
          1 GETLSG    23,   44,  143,  172,  264,  274,  357,  461
          3 IODIAG   403
      75043 KEYVAL  4120
        627 LEOROP    21
        630 LEORRD   202
          7 LSREEL  4120
      77777 NEWCOM  4120
1       'OPEN' DUMPED FILE/READ N WORDS FROM DUMPED FILE...M.J.BAILEY,1/31/65                    PAGE 3
                        POST PROCESSOR ASSEMBLY DATA

      75041 NOCHAN   422,  465, 4120
        605 NWORDS   421,  450,  455,  500
      77461 OLDCOM  4120
         13 OPENDF     0
        556 OPREAM    52,   57,   64,   73,  115,  120,  315,  321,  327,  335
        574 PHYSRC    32,   46,   67,  521
          7 PRNTER   510
          4 RDFILE   425
          2 RDWAIT   451,  474
          4 STOPLD  4120
          6 SWCHAN  4120
         10 TSTEOF   515

0 NO ERROR IN ABOVE ASSEMBLY.


LINTTB   BCD 09/19/68 1941.6   12458         00000
1       INITIATE AND TERMINATE DUMP TAPE FILE READS.....M.J.BAILEY..1/31/65                      PAGE 1

                              *           (TIME-SHARING VERSION)
                              *
                       00022         ENTRY   INITTF
                       00403         ENTRY   TERMTF
                       00437         ENTRY   TSTEOF
                              *
                                     EXTERN  GETLSG,IOBDT
                                     EXTERN  ATTACH
                                     EXTERN  ATTNAM
                                     EXTERN  RDWAIT,FWAIT
                                     EXTERN  VERIFY,BUFFER,OPEN,SLEEP
                                     EXTERN  MOUNT,UMOUNT,CLOSE,WRFLX
                              *
                                     INSERT  BMCRSC
                              *
                              *  ZERO-IZE A THROUGH A+X-1
                              *
                               CLEAR MACRO   A,X
                                     AXT     X,1
                                     STZ     A+X,1
                                     TIX     *-1,1,1
                               CLEAR END
                              *
                              *      MOVE X WORDS FROM A ET SEQ TO B ET SEQ
                              *
                               MOVE  MACRO   X,A,B
                                     AXT     X,1
                                     CAL     A+X,1
                                     SLW     B+X,1
                                     TIX     *-2,1,1
                               MOVE  END
                              *
                              *  PRINT ONE LINE COMMENT
                              *
                              PRLINE MACRO   COMNT,NWC,LOC
                                     TSX     WRFLX,4
                                             LOC,,NWC
                                     RMT
                               LOC   BCI     NWC,COMNT
                                     RMT
                              PRLINE END
                              *
                              *
                              *      EXECUTE INST. IN CORE A
                              *
                              *
                              EXEC   MACRO   OPC,ADD
                                     TSX     $GETA,7
                                     OPC     ADD
                              EXEC   END
                              *
                              *      GET KEY SETTING VIA SUPERVISOR, SET ABANTP, NOCHAN IF APPROPRIATE
                              *
                              GETSIG MACRO
                                     TSX     GETLSG,4
                              GETSIG END
1       INITIATE AND TERMINATE DUMP TAPE FILE READS.....M.J.BAILEY..1/31/65                      PAGE 2

                              *
                              *      TEST WHETHER 2ND TAPE COPY IS NEEDED, IF NOT GO TO SKIP
                              *
                              SKIFNB MACRO   SKIP
                                     CLA     NOCHAN
                                     SUB     =1
                                     TZE     SKIP
                              SKIFNB END
                              *
                              *      PRINT AN N-WORD MESSAGE FROM  MESSGE
                              *
                              PRM    MACRO   MESSGE,N
                                     TSX     WRFLX,4
                                             MESSGE,,N
                              PRM    END
                              *
                              *      COMPARE 2 SETS OF N CONSECUTIVE WORDS IN A ETC., AND B ETC. ,
                              *      AND IF THEY DO NOT ALL MATCH, GO TO NF, OR OTHERWISE CONTINUE.
                              *
                              CMPWDS MACRO   N,A,B,NF
                                     AXT     N,1
                                     CAL     A+N,1
                                     LAS     B+N,1
                                     TRA     NF
                                     TRA     *+2
                                     TRA     NF
                                     TIX     *-5,1,1
                              CMPWDS END
                              *
                              *      WAIT FOR I/O ON FILE (A,B) TO END, GO TO E IF ERROR OCCURRED
                              *
                              WAIT   MACRO   A,B,E
                                     TSX     FWAIT,4
                                     PTH     A
                                     PTH     B
                                     PTH     E
                              WAIT   END
                              *
                              *      CLOSE THE FILE (A,B)
                              *
                              CLOSE  MACRO   A,B
                                     TSX     CLOSE,4
                                     PTH     A
                                     PTH     B
                              CLOSE  END
                              *
                              * - - - - - - - - - - - - - - - - - - - - - - - - - - - - - -
                              *      INITIATE DUMP TAPE FILE READ (OPEN, AND READ I.D
                              *       LABELS FROM BOTH COPIES, AND CHECK THEY MATCH)
                              * - - - - - - - - - - - - - - - - - - - - - - - - - - - - - -
                              *

      00000  272563436227     GETLSG
      00001  314622246360     IOBDT
      00002  216363212330     ATTACH
      00003  216363452144     ATTNAM
1       INITIATE AND TERMINATE DUMP TAPE FILE READS.....M.J.BAILEY..1/31/65                      PAGE 3

      00004  512466213163     RDWAIT
      00005  266621316360     FWAIT
      00006  652551312670     VERIFY
      00007  226426262551     BUFFER
      00010  464725456060     OPEN
      00011  624325254760     SLEEP
      00012  444664456360     MOUNT
      00013  644446644563     UMOUNT
      00014  234346622560     CLOSE
      00015  665126436760     WRFLX
      00016  475145632551     PRNTER
      00017  216242464751     ASKOPR


      00022  0634 00 1 00401  INITTF SXA     X1,1
      00023  0634 00 2 00400         SXA     X2,2
      00024  0634 00 3 00377         SXA     X3,3
      00025  0634 00 4 00376         SXA     X4,4
      00026  0074 00 4 00000         TSX     GETLSG,4
      00027                          SKIFNB  IA            SKIP IF ONLY ONE TAPE COPY
      00027  0500 00 0 75041         CLA     NOCHAN                                                           .001
      00030  0402 00 0 03265         SUB     =1                                                               .001
      00031  0100 00 0 00077         TZE     IA                                                               .001
                              *
                              *      VERIFY THAT 2ND CHANNEL HAS CORRECT DUPLICATE MOUNTED
                              *
      00032  0774 00 2 00012         AXT     10,2
      00033  0074 00 4 00006  CHCKBA TSX     VERIFY,4
 TD   00034  3 00000 0 75015         TXH     BUN
      00035  3 00004 0 75010         TXH     LABEL,,4
 TD   00036  3 00000 0 00041         TXH     CHCKBB        ERROR
 TD   00037  3 00000 0 01014         TXH     ERCODE
      00040  0020 00 0 00077         TRA     IA            SKIP IF OTHER CHANNEL O.K.
                              *
      00041  0074 00 4 00016  CHCKBB TSX     $PRNTER,4
      00042  0500 00 0 01014         CLA     ERCODE
      00043  0402 00 0 03267         SUB     =7
      00044 -0100 00 0 00070         TNZ     CHCKBD        SKIP IF NOT INCORRECT-LABEL ERROR
      00045  2 00002 2 00033         TIX     CHCKBA,2,2    TRY 5 TIMES IF LABEL IS INCORRECT
                              *
      00046  0074 00 4 00013  WRONGB TSX     UMOUNT,4      IF STILL WRONG UNMOUNT THIS TAPE
 TD   00047  3 00000 0 75015         TXH     BUN
      00050  2 01103 0 01067         TIX     WRNGT2,,LWT2
      00051  0074 00 4 00017  CHCKBC TSX     $ASKOPR,4
      00052  3 00006 0 01035         PTH     MESC,,6
      00053  3 00001 0 00063         PTH     CONT,,CTINUE
      00054  3 00006 0 01043         PTH     MESD,,6
      00055  3 00003 0 00075         PTH     QUITFL,,CHLDFL
      00056  3 00006 0 01051         PTH     MESE,,6
      00057  3 00002 0 00060         PTH     REST,,PAUSE
                              *
      00060 -0500 00 0 03271  REST   CAL     =45
      00061  0074 00 4 00011         TSX     SLEEP,4
      00062  0020 00 0 00051         TRA     CHCKBC
      00063  0074 00 4 00012  CONT   TSX     MOUNT,4       MOUNT ANOTHER ON 2ND CHANNEL
 TD   00064  3 00000 0 03266         TXH     =2
1       INITIATE AND TERMINATE DUMP TAPE FILE READS.....M.J.BAILEY..1/31/65                      PAGE 4

 TD   00065  3 00000 0 75015         TXH     BUN
      00066  2 01113 0 01104         TIX     RMT2,,LRMT2
      00067  0020 00 0 00032         TRA     CHCKBA-1      AND RE-VERIFY
                              *
      00070  2 00001 2 00033  CHCKBD TIX     CHCKBA,2,1    TRY 10 TIMES IF SOME OTHER ERROR
      00071  0074 00 4 00013         TSX     UMOUNT,4      THEN UNMOUNT THIS TAPE
 TD   00072  3 00000 0 75015         TXH     BUN
      00073  2 01132 0 01114         TIX     BADT2,,LBT2
      00074  0020 00 0 00051         TRA     CHCKBC        THEN GO STOP TO SEE WHAT NEXT
                              *
                       00075  QUITFL EQU     *             TO ABANDON THIS TAPE FILE,
      00075  0534 00 4 00376  ABEXT  LXA     X4,4
      00076  1 00001 4 00377         TXI     X3,4,1        THEN GO EXIT VIA 1,4
                              *
                              *      OPEN TAPE FILE 1ST COPY AND READ ITS I.D.
                              *
      00077  0774 00 2 00012  IA     AXT     10,2
      00100  0074 00 4 00010  IAA    TSX     OPEN,4
 TD   00101  3 00000 0 01013         TXH     R
 TD   00102  3 00000 0 75036         TXH     LFNA
 TD   00103  3 00000 0 75035         TXH     LFNB
 TD   00104  3 00000 0 03273         TXH     =-0
 TD   00105  3 00000 0 03273         TXH     =-0
 TD   00106  3 00000 0 00162         TXH     ID            ERROR
                              *
      00107  0074 00 4 00007         TSX     BUFFER,4      ASSIGN BUFFERS
 TD   00110  3 00000 0 75036         TXH     LFNA
 TD   00111  3 00000 0 75035         TXH     LFNB
      00112  2 01015 0 01410         TIX     IB1,,LIB
      00113 -0500 00 0 03265         CAL     =1
      00114  0602 00 0 75007         SLW     X
                              *
      00115  0774 00 3 00066         AXT     RECSIZ/8,3
      00116  0074 00 4 00004  IB     TSX     RDWAIT,4      READ I.D. RECORD LABEL
 TD   00117  3 00000 0 75036         TXH     LFNA
 TD   00120  3 00000 0 75035         TXH     LFNB
 TD   00121  3 00000 0 75007         TXH     X
      00122  3 00010 0 02270         TXH     WBF,,8
 TD   00123  3 00000 0 00200         TXH     IE            EOF, ERROR
 TD   00124  3 00000 0 75014         TXH     TEOF
 TD   00125  3 00000 0 00136         TXH     IC
      00126  0074 00 4 00000         TSX     GETLSG,4
      00127  0600 00 0 01012         STZ     IDERR         I.D. LABEL READ O.K., SKIP TO DO 2ND COPY
      00130                          MOVE    8,WBF,TAPEID
      00130  0774 00 1 00010         AXT     8,1                                                              .001
      00131 -0500 00 1 02300         CAL     WBF+8,1                                                          .001
      00132  0602 00 1 02324         SLW     TAPEID+8,1                                                       .001
      00133  2 00001 1 00131         TIX     *-2,1,1                                                          .001
      00134  0600 00 0 02324         STZ     TAPEID+8
      00135  0020 00 0 00206         TRA     IG
                              *
      00136  0074 00 4 00016  IC     TSX     $PRNTER,4     READ ERROR
      00137  0500 00 0 75007         CLA     X
      00140  0400 00 0 03270         ADD     =8
      00141  0601 00 0 75007         STO     X
      00142  2 00001 3 00116         TIX     IB,3,1        TRY AGAIN AT NEXT REPETITION OF LABEL
1       INITIATE AND TERMINATE DUMP TAPE FILE READS.....M.J.BAILEY..1/31/65                      PAGE 5

      00143                          PRM     MESA,8        I.D. IS UNREAD,
      00143  0074 00 4 00015         TSX     WRFLX,4                                                          .001
      00144  0 00010 0 01020                 MESA,,8                                                          .001
      00145  0074 00 4 00017  BACK   TSX     $ASKOPR,4
      00146  3 00006 0 01035         PTH     MESC,,6
      00147  3 00001 0 00157         PTH     CONT1,,CTINUE
      00150  3 00006 0 01043         PTH     MESD,,6
      00151  3 00003 0 00075         PTH     QUITFL,,CHLDFL
      00152  3 00006 0 01051         PTH     MESE,,6
      00153  3 00002 0 00154         PTH     REST1,,PAUSE
                              *
      00154 -0500 00 0 03271  REST1  CAL     =45
      00155  0074 00 4 00011         TSX     SLEEP,4
      00156  0020 00 0 00145         TRA     BACK
                              *
      00157  0500 00 0 03265  CONT1  CLA     =1            OR CONTINUE WITHOUT CHECKING I.D.'S
      00160  0601 00 0 01012         STO     IDERR
      00161  0020 00 0 00206         TRA     IG
                              *
      00162                   ID     PRM     MESB,5        ERROR OPENING FILE
      00162  0074 00 4 00015         TSX     WRFLX,4                                                          .001
      00163  0 00005 0 01030                 MESB,,5                                                          .001
      00164  0074 00 4 00016         TSX     $PRNTER,4
      00165  2 00001 2 00100  IDA    TIX     IAA,2,1       TRY 10 TIMES TO OPEN
      00166  0074 00 4 00017  BACK1  TSX     $ASKOPR,4
      00167  3 00006 0 01035         PTH     MESC,,6
      00170  3 00001 0 00077         PTH     IA,,CTINUE
      00171  3 00006 0 01043         PTH     MESD,,6
      00172  3 00003 0 00075         PTH     QUITFL,,CHLDFL
      00173  3 00006 0 01051         PTH     MESE,,6
      00174  3 00002 0 00175         PTH     REST2,,PAUSE
                              *
      00175 -0500 00 0 03271  REST2  CAL     =45
      00176  0074 00 4 00011         TSX     SLEEP,4
      00177  0020 00 0 00166         TRA     BACK1
                              *
      00200                   IE     PRM     MESF,8        EOF IN WRONG PLACE
      00200  0074 00 4 00015         TSX     WRFLX,4                                                          .001
      00201  0 00010 0 01057                 MESF,,8                                                          .001
      00202                          CLOSE   LFNA,LFNB
      00202  0074 00 4 00014         TSX     CLOSE,4                                                          .001
      00203  3 00000 0 75036         PTH     LFNA                                                             .001
      00204  3 00000 0 75035         PTH     LFNB                                                             .001
      00205  0020 00 0 00165         TRA     IDA           TRY TEN TIMES TO NOT GET ONE
                              *
                              *
                              *      OPEN TAPE FILE 2ND COPY, READ ITS I.D. LABEL
                              *
      00206                   IG     SKIFNB  IS
      00206  0500 00 0 75041         CLA     NOCHAN                                                           .001
      00207  0402 00 0 03265         SUB     =1                                                               .001
      00210  0100 00 0 00350         TZE     IS                                                               .001
      00211  0774 00 2 00012         AXT     10,2
      00212  0074 00 4 00010  IH     TSX     OPEN,4
 TD   00213  3 00000 0 01013         TXH     R
 TD   00214  3 00000 0 75020         TXH     BFNA
1       INITIATE AND TERMINATE DUMP TAPE FILE READS.....M.J.BAILEY..1/31/65                      PAGE 6

 TD   00215  3 00000 0 75017         TXH     BFNB
 TD   00216  3 00000 0 03273         TXH     =-0
 TD   00217  3 00000 0 03273         TXH     =-0
 TD   00220  3 00000 0 00272         TXH     IK            ERROR
                              *
      00221  0074 00 4 00007         TSX     BUFFER,4      ASSIGN BUFFER
 TD   00222  3 00000 0 75020         TXH     BFNA
 TD   00223  3 00000 0 75017         TXH     BFNB
      00224  2 01015 0 02325         TIX     IB2,,LIB
      00225 -0500 00 0 03265         CAL     =1
      00226  0602 00 0 75007         SLW     X
                              *
      00227  0774 00 3 00066         AXT     RECSIZ/8,3
      00230  0074 00 4 00004  II     TSX     RDWAIT,4      READ I.D. RECORD LABEL
 TD   00231  3 00000 0 75020         TXH     BFNA
 TD   00232  3 00000 0 75017         TXH     BFNB
 TD   00233  3 00000 0 75007         TXH     X
      00234  2 01017 0 02300         TIX     WBF+8,,L8
 TD   00235  3 00000 0 00310         TXH     IM            EOF, ERROR
 TD   00236  3 00000 0 75014         TXH     TEOF
 TD   00237  3 00000 0 00243         TXH     IJ
      00240 -0520 00 0 01012         NZT     IDERR         I.D. READ O.K.
      00241  0020 00 0 00320         TRA     IO            SKIP TO COMPARE IF BOTH READ
      00242  0020 00 0 00342         TRA     IR            OR CARRY ON WITH NO CHECK
                              *
      00243  0074 00 4 00016  IJ     TSX     $PRNTER,4
      00244  0500 00 0 75007         CLA     X
      00245  0400 00 0 03270         ADD     =8
      00246  0601 00 0 75007         STO     X
      00247  2 00001 3 00230         TIX     II,3,1        TRY TO READ AGAIN AT REPETITION OF LABEL
      00250 -0500 00 0 03275         CAL     =H ON 2N
      00251  0602 00 0 01022         SLW     MESA+2
      00252 -0500 00 0 03272         CAL     =HD COPY
      00253  0602 00 0 01023         SLW     MESA+3
      00254                          PRM     MESA,8
      00254  0074 00 4 00015         TSX     WRFLX,4                                                          .001
      00255  0 00010 0 01020                 MESA,,8                                                          .001
      00256  0520 00 0 01012         ZET     IDERR
      00257  0020 00 0 00075         TRA     QUITFL        ABANDON BOTH TAPES IF NO I.D.'S READ
      00260  0074 00 4 00017  BACK2  TSX     $ASKOPR,4
      00261  3 00006 0 01035         PTH     MESC,,6
      00262  3 00001 0 00342         PTH     IR,,CTINUE
      00263  3 00006 0 01043         PTH     MESD,,6
      00264  3 00003 0 00075         PTH     QUITFL,,CHLDFL
      00265  3 00006 0 01051         PTH     MESE,,6
      00266  3 00002 0 00267         PTH     REST3,,PAUSE
                              *
      00267 -0500 00 0 03271  REST3  CAL     =45
      00270  0074 00 4 00011         TSX     SLEEP,4
      00271  0020 00 0 00260         TRA     BACK2
                              *
                              *
      00272                   IK     PRM     MESB,5
      00272  0074 00 4 00015         TSX     WRFLX,4                                                          .001
      00273  0 00005 0 01030                 MESB,,5                                                          .001
      00274  0074 00 4 00016         TSX     $PRNTER,4
1       INITIATE AND TERMINATE DUMP TAPE FILE READS.....M.J.BAILEY..1/31/65                      PAGE 7

      00275  2 00001 2 00212  IL     TIX     IH,2,1        TRY 10 TIMES TO OPEN
      00276  0074 00 4 00017  BACK3  TSX     $ASKOPR,4
      00277  3 00006 0 01035         PTH     MESC,,6
      00300  3 00001 0 00206         PTH     IG,,CTINUE
      00301  3 00006 0 01043         PTH     MESD,,6
      00302  3 00003 0 00075         PTH     QUITFL,,CHLDFL
      00303  3 00006 0 01051         PTH     MESE,,6
      00304  3 00002 0 00305         PTH     REST4,,PAUSE
                              *
      00305 -0500 00 0 03271  REST4  CAL     =45
      00306  0074 00 4 00011         TSX     SLEEP,4
      00307  0020 00 0 00276         TRA     BACK3
                              *
                              *
      00310 -0500 00 0 03274  IM     CAL     =H 2ND T
      00311  0602 00 0 01064         SLW     MESF+5
      00312                          PRM     MESF,8
      00312  0074 00 4 00015         TSX     WRFLX,4                                                          .001
      00313  0 00010 0 01057                 MESF,,8                                                          .001
      00314                          CLOSE   BFNA,BFNB
      00314  0074 00 4 00014         TSX     CLOSE,4                                                          .001
      00315  3 00000 0 75020         PTH     BFNA                                                             .001
      00316  3 00000 0 75017         PTH     BFNB                                                             .001
      00317  0020 00 0 00275         TRA     IL            GO RE-OPEN,READ AGAIN (10 TIMES)
                              *
                              *
                              *      COMPARE I.D. LABELS ON BOTH COPIES
                              *
      00320                   IO     CMPWDS  8,WBF,WBF+8,IP
      00320  0774 00 1 00010         AXT     8,1                                                              .001
      00321 -0500 00 1 02300         CAL     WBF+8,1                                                          .001
      00322 -0340 00 1 02310         LAS     WBF+8+8,1                                                        .001
      00323  0020 00 0 00330         TRA     IP                                                               .001
      00324  0020 00 0 00326         TRA     *+2                                                              .001
      00325  0020 00 0 00330         TRA     IP                                                               .001
      00326  2 00001 1 00321         TIX     *-5,1,1                                                          .001
      00327  0020 00 0 00337         TRA     IQ            SKIP IF COMPARISON O.K.
      00330                   IP     CLOSE   LFNA,LFNB     WRONG TAPE ON 2ND CHANNEL
      00330  0074 00 4 00014         TSX     CLOSE,4                                                          .001
      00331  3 00000 0 75036         PTH     LFNA                                                             .001
      00332  3 00000 0 75035         PTH     LFNB                                                             .001
      00333                          CLOSE   BFNA,BFNB
      00333  0074 00 4 00014         TSX     CLOSE,4                                                          .001
      00334  3 00000 0 75020         PTH     BFNA                                                             .001
      00335  3 00000 0 75017         PTH     BFNB                                                             .001
      00336  0020 00 0 00046         TRA     WRONGB        GO REMOUNT AT LEAST 2ND COPY
                              *
                              *      PRINT I.D. LABEL AND SET FILE POINTER AT START OF 1ST DUMPED FILE
                              *
      00337                   IQ     PRM     MESG,9        BOTH LABELS READ O.K.,PRINT MESSAGE
      00337  0074 00 4 00015         TSX     WRFLX,4                                                          .001
      00340  0 00011 0 01152                 MESG,,9                                                          .001
      00341  0020 00 0 00350         TRA     IS            SKIP
      00342 -0520 00 0 01012  IR     NZT     IDERR         SEE WHICH LABEL WAS READ
      00343  0020 00 0 00350         TRA     IS            SKIP IF IT WAS 1ST COPY
      00344                          MOVE    8,WBF+8,WBF   2ND COPY, MOVE IT DOWN
1       INITIATE AND TERMINATE DUMP TAPE FILE READS.....M.J.BAILEY..1/31/65                      PAGE 8

      00344  0774 00 1 00010         AXT     8,1                                                              .001
      00345 -0500 00 1 02310         CAL     WBF+8+8,1                                                        .001
      00346  0602 00 1 02300         SLW     WBF+8,1                                                          .001
      00347  2 00001 1 00345         TIX     *-2,1,1                                                          .001
      00350                   IS     PRM     MESH,7        PRINT MESSAGE
      00350  0074 00 4 00015         TSX     WRFLX,4                                                          .001
      00351  0 00007 0 01163                 MESH,,7                                                          .001
      00352                          PRM     WBF,4
      00352  0074 00 4 00015         TSX     WRFLX,4                                                          .001
      00353  0 00004 0 02270                 WBF,,4                                                           .001
      00354  0074 00 4 00000         TSX     GETLSG,4
      00355 -0500 00 0 02274         CAL     WBF+4
      00356  0602 00 0 01200         SLW     MESI+6
      00357 -0500 00 0 02275         CAL     WBF+5
      00360  0602 00 0 01202         SLW     MESI+8
      00361                          PRM     MESI,9        PRINT DATE/TIME DUMPING ON IT BEGAN
      00361  0074 00 4 00015         TSX     WRFLX,4                                                          .001
      00362  0 00011 0 01172                 MESI,,9                                                          .001
      00363 -0500 00 0 02277         CAL     WBF+7
      00364  0100 00 0 00374         TZE     IT            SKIP IF NO END OF DUMP 'DAY'
      00365  0074 00 4 00001         TSX     IOBDT,4
      00366  0602 00 0 01210         SLW     MESJ+5
      00367 -0600 00 0 01212         STQ     MESJ+7
      00370                          PRM     MESJ,8        PRINT END OF DUMP 'DAY'
      00370  0074 00 4 00015         TSX     WRFLX,4                                                          .001
      00371  0 00010 0 01203                 MESJ,,8                                                          .001
      00372                          PRM     MESK,5
      00372  0074 00 4 00015         TSX     WRFLX,4                                                          .001
      00373  0 00005 0 01213                 MESK,,5                                                          .001
                              *
      00374  0774 00 1 00660  IT     AXT     RECSIZ,1
      00375  0634 00 1 75007         SXA     X,1           SET FILE POINTER TO START OF 1ST FILE
                              *
      00376  0774 00 4 00000  X4     AXT     **,4
      00377  0774 00 3 00000  X3     AXT     **,3
      00400  0774 00 2 00000  X2     AXT     **,2
      00401  0774 00 1 00000  X1     AXT     **,1
      00402  0020 00 4 00002         TRA     2,4
                              *
                              * - - - - - - - - - - - - - - - - - - - - -
                              *      TERMINATE DUMP TAPE FILES
                              * - - - - - - - - - - - - - - - - - - - - -
                              *
      00403  0634 00 4 00435  TERMTF SXA     TX4,4
      00404  0074 00 4 00000         TSX     GETLSG,4
      00405                          PRM     MESL,7
      00405  0074 00 4 00015         TSX     WRFLX,4                                                          .001
      00406  0 00007 0 01220                 MESL,,7                                                          .001
      00407  0074 00 4 00005         TSX     FWAIT,4
 TD   00410  3 00000 0 75036         TXH     LFNA
 TD   00411  3 00000 0 75035         TXH     LFNB
 TD   00412  3 00000 0 00413         TXH     *+1
      00413                          CLOSE   LFNA,LFNB
      00413  0074 00 4 00014         TSX     CLOSE,4                                                          .001
      00414  3 00000 0 75036         PTH     LFNA                                                             .001
      00415  3 00000 0 75035         PTH     LFNB                                                             .001
1       INITIATE AND TERMINATE DUMP TAPE FILE READS.....M.J.BAILEY..1/31/65                      PAGE 9

 TD   00416  3 00000 0 00417         TXH     *+1
      00417  0074 00 4 00005         TSX     FWAIT,4
 TD   00420  3 00000 0 75020         TXH     BFNA
 TD   00421  3 00000 0 75017         TXH     BFNB
 TD   00422  3 00000 0 00423         TXH     *+1
      00423                          CLOSE   BFNA,BFNB
      00423  0074 00 4 00014         TSX     CLOSE,4                                                          .001
      00424  3 00000 0 75020         PTH     BFNA                                                             .001
      00425  3 00000 0 75017         PTH     BFNB                                                             .001
 TD   00426  3 00000 0 00427         TXH     *+1
      00427  0074 00 4 00013         TSX     UMOUNT,4
 TD   00430  3 00000 0 75016         TXH     AUN
      00431  2 01141 0 01133         TIX     UMA,,LUMA
      00432  0074 00 4 00013         TSX     UMOUNT,4
 TD   00433  3 00000 0 75015         TXH     BUN
      00434  2 01151 0 01142         TIX     UMB,,LUMB
      00435  0774 00 4 00000  TX4    AXT     **,4
      00436  0020 00 4 00001         TRA     1,4
                              *
                              * - - - - - - - - - - - - - - - - - - - - - - - - - - - -
                              *      TEST FOR END OF TAPE-FILE, IF NOT CHANGE REELS
                              * - - - - - - - - - - - - - - - - - - - - - - - - - - - -
                              *
      00437  0634 00 1 00401  TSTEOF SXA     X1,1
      00440  0634 00 2 00400         SXA     X2,2
      00441  0634 00 3 00377         SXA     X3,3
      00442  0634 00 4 00376         SXA     X4,4
      00443                          PRLINE  ( END OF REEL ON RELOAD TAPE FILE.),6
      00443  0074 00 4 00015         TSX     WRFLX,4                                                          .001
      00444  0 00006 0 03205                 ..001,,6                                                         .001
                                     RMT                                                                      .001
                              ..001  BCI     6, END OF REEL ON RELOAD TAPE FILE.                              .001
                                     RMT                                                                      .001
      00445  0074 00 4 00017         TSX     $ASKOPR,4
      00446  3 00010 0 01323         PTH     MESM,,8
      00447  3 00007 0 00452         PTH     EOTF,,LSREEL
      00450  3 00010 0 01333         PTH     MESN,,8
      00451  3 00001 0 00454         PTH     TB1,,CTINUE
                              *
      00452  0534 00 4 00376  EOTF   LXA     X4,4          LAST REEL OF TAPE LOAD-FILE
      00453  1 00001 4 00746         TXI     TV,4,1        GO EXIT VIA 3,4
                              *
      00454  0074 00 4 00003  TB1    TSX     ATTNAM,4
      00455  3 00002 0 01010         PTH     NM,,2
      00456  0074 00 4 00002         TSX     ATTACH,4
      00457  3 00000 0 75040         PTH     DU
      00460  3 00000 0 75037         PTH     DP
                              *
                              *
      00461  0074 00 4 00005  TB     TSX     FWAIT,4       JUST TO CATCH ERRORS.
 TD   00462  3 00000 0 75036         TXH     LFNA
 TD   00463  3 00000 0 75035         TXH     LFNB
 TD   00464  3 00000 0 00465         TXH     *+1
      00465                          CLOSE   LFNA,LFNB     CHANGE REELS
      00465  0074 00 4 00014         TSX     CLOSE,4                                                          .001
      00466  3 00000 0 75036         PTH     LFNA                                                             .001
1       INITIATE AND TERMINATE DUMP TAPE FILE READS.....M.J.BAILEY..1/31/65                      PAGE 10

      00467  3 00000 0 75035         PTH     LFNB                                                             .001
 TD   00470  3 00000 0 00471         TXH     *+1
      00471  0074 00 4 00005         TSX     FWAIT,4
 TD   00472  3 00000 0 75020         TXH     BFNA
 TD   00473  3 00000 0 75017         TXH     BFNB
 TD   00474  3 00000 0 00475         TXH     *+1
      00475                          CLOSE   BFNA,BFNB
      00475  0074 00 4 00014         TSX     CLOSE,4                                                          .001
      00476  3 00000 0 75020         PTH     BFNA                                                             .001
      00477  3 00000 0 75017         PTH     BFNB                                                             .001
 TD   00500  3 00000 0 00501         TXH     *+1
      00501  0074 00 4 00013         TSX     UMOUNT,4      UNMOUNT 'A' REEL
 TD   00502  3 00000 0 75016         TXH     AUN
      00503  2 01236 0 01227         TIX     UMRA,,LUMRA
      00504  0074 00 4 00013         TSX     UMOUNT,4
 TD   00505  3 00000 0 75015         TXH     BUN           UNMOUNT 'B' REEL TOO. ***
      00506  2 01246 0 01237         TIX     UMRB,,LUMRB
 TD   00507  3 00000 0 00510         TXH     *+1           NULL ERROR RETURN, IN CASE NO B COPY.
                              *
      00510  0074 00 4 00012  TD     TSX     MOUNT,4       MOUNT NEW 'A' REEL
 TD   00511  3 00000 0 03265         TXH     =1
 TD   00512  3 00000 0 75016         TXH     AUN
      00513  2 01257 0 01247         TIX     MRA,,LMRA
      00514  0774 00 2 00003         AXT     3,2
      00515  0074 00 4 00006  TE     TSX     VERIFY,4      CHECK I/O SYSTEM LABEL
 TD   00516  3 00000 0 75016         TXH     AUN
      00517  2 01016 0 75010         TIX     LABEL,,L4
 TD   00520  3 00000 0 00523         TXH     TF
 TD   00521  3 00000 0 01014         TXH     ERCODE
      00522  0020 00 0 00545         TRA     TH            SKIP IF O.K.
                              *
      00523  0074 00 4 00016  TF     TSX     $PRNTER,4     VERIFICATION ERROR
      00524  0500 00 0 01014         CLA     ERCODE
      00525  0402 00 0 03267         SUB     =7
      00526  0100 00 0 00530         TZE     TG
      00527  2 00001 2 00515         TIX     TE,2,1
      00530  0074 00 4 00013  TG     TSX     UMOUNT,4
 TD   00531  3 00000 0 75016         TXH     AUN
      00532  2 01305 0 01271         TIX     WRA,,LWRA
      00533  0074 00 4 00017  BACK5  TSX     $ASKOPR,4
      00534  3 00006 0 01035         PTH     MESC,,6
      00535  3 00001 0 00510         PTH     TD,,CTINUE
      00536  3 00006 0 01043         PTH     MESD,,6
      00537  3 00003 0 00075         PTH     ABEXT,,CHLDFL
      00540  3 00006 0 01051         PTH     MESE,,6
      00541  3 00002 0 00542         PTH     REST5,,PAUSE
                              *
      00542 -0500 00 0 03271  REST5  CAL     =45
      00543  0074 00 4 00011         TSX     SLEEP,4
      00544  0020 00 0 00533         TRA     BACK5
                              *
      00545  0074 00 4 00010  TH     TSX     OPEN,4
 TD   00546  3 00000 0 01013         TXH     R
 TD   00547  3 00000 0 75036         TXH     LFNA
 TD   00550  3 00000 0 75035         TXH     LFNB
 TD   00551  3 00000 0 03273         TXH     =-0
1       INITIATE AND TERMINATE DUMP TAPE FILE READS.....M.J.BAILEY..1/31/65                      PAGE 11

 TD   00552  3 00000 0 03273         TXH     =-0
 TD   00553  3 00000 0 00752         TXH     TW            ERROR
      00554  0074 00 4 00007         TSX     BUFFER,4
 TD   00555  3 00000 0 75036         TXH     LFNA
 TD   00556  3 00000 0 75035         TXH     LFNB
      00557  2 01015 0 01410         TIX     IB1,,LIB
                              *
      00560  0074 00 4 00004         TSX     RDWAIT,4      CHECK DAEMON'S TAPE I.D.
 TD   00561  3 00000 0 75036         TXH     LFNA
 TD   00562  3 00000 0 75035         TXH     LFNB
 TD   00563  3 00000 0 03265         TXH     =1
      00564  2 01376 0 01377         TIX     IDBF,,L9
 TD   00565  3 00000 0 00760         TXH     TX            EOF, ERROR
 TD   00566  3 00000 0 01375         TXH     JK
 TD   00567  3 00000 0 00752         TXH     TW            ERROR
                              *
      00570                          CMPWDS  8,IDBF,TAPEID,THA
      00570  0774 00 1 00010         AXT     8,1                                                              .001
      00571 -0500 00 1 01407         CAL     IDBF+8,1                                                         .001
      00572 -0340 00 1 02324         LAS     TAPEID+8,1                                                       .001
      00573  0020 00 0 00600         TRA     THA                                                              .001
      00574  0020 00 0 00576         TRA     *+2                                                              .001
      00575  0020 00 0 00600         TRA     THA                                                              .001
      00576  2 00001 1 00571         TIX     *-5,1,1                                                          .001
      00577  0020 00 0 00604         TRA     THB
      00600                   THA    CLOSE   LFNA,LFNB
      00600  0074 00 4 00014         TSX     CLOSE,4                                                          .001
      00601  3 00000 0 75036         PTH     LFNA                                                             .001
      00602  3 00000 0 75035         PTH     LFNB                                                             .001
      00603  0020 00 0 00530         TRA     TG
                              *
      00604  0500 00 0 01407  THB    CLA     IDBF+8        O.K., NOW CHECK REEL NO.
      00605  0402 00 0 03265         SUB     =1
      00606  0402 00 0 02324         SUB     TAPEID+8
      00607  0100 00 0 00624         TZE     TJ            SKIP IF REEL ALL O.K.
      00610                          PRLINE  ( REEL ORDER ERROR ON CHANNEL A.),6
      00610  0074 00 4 00015         TSX     WRFLX,4                                                          .001
      00611  0 00006 0 03213                 ..002,,6                                                         .001
                                     RMT                                                                      .001
                              ..002  BCI     6, REEL ORDER ERROR ON CHANNEL A.                                .001
                                     RMT                                                                      .001
      00612  0074 00 4 00017  TI     TSX     $ASKOPR,4
      00613  3 00011 0 01354         PTH     MESQ,,9
      00614  3 00001 0 00621         PTH     TJA,,CTINUE
      00615  3 00010 0 01043         PTH     MESD,,8
      00616  3 00003 0 00075         PTH     ABEXT,,CHLDFL
      00617  3 00006 0 01365         PTH     MESR,,6
      00620  3 00010 0 00461         PTH     TB,,CHREEL
                              *
      00621  0500 00 0 01407  TJA    CLA     IDBF+8
      00622  0601 00 0 02324         STO     TAPEID+8
      00623  0020 00 0 00627         TRA     TJAX
                              *
      00624  0500 00 0 02324  TJ     CLA     TAPEID+8      INCREMENT REEL NO.
      00625  0400 00 0 03265         ADD     =1
      00626  0601 00 0 02324         STO     TAPEID+8
1       INITIATE AND TERMINATE DUMP TAPE FILE READS.....M.J.BAILEY..1/31/65                      PAGE 12

      00627                   TJAX   SKIFNB  TU
      00627  0500 00 0 75041         CLA     NOCHAN                                                           .001
      00630  0402 00 0 03265         SUB     =1                                                               .001
      00631  0100 00 0 00742         TZE     TU                                                               .001
                              *
                       00632  TK     SYN     *             (MOVED UMOUNT FOR B.COPY UP)
                              *
      00632  0074 00 4 00012  TL     TSX     MOUNT,4       MOUNT NEW 'B' REEL
 TD   00633  3 00000 0 03266         TXH     =2
 TD   00634  3 00000 0 75015         TXH     BUN
      00635  2 01270 0 01260         TIX     MRB,,LMRB
      00636  0774 00 2 00003         AXT     3,2
      00637  0074 00 4 00006  TM     TSX     VERIFY,4      CHECK I/O SYSTEM LABEL
 TD   00640  3 00000 0 75015         TXH     BUN
      00641  2 01016 0 75010         TIX     LABEL,,L4
 TD   00642  3 00000 0 00645         TXH     TN
 TD   00643  3 00000 0 01014         TXH     ERCODE
      00644  0020 00 0 00667         TRA     TP            SKIP IF O.K.
                              *
      00645  0074 00 4 00016  TN     TSX     $PRNTER,4     VERIFICATION ERROR
      00646  0500 00 0 01014         CLA     ERCODE
      00647  0402 00 0 03267         SUB     =7
      00650  0100 00 0 00652         TZE     TO
      00651  2 00001 2 00637         TIX     TM,2,1
      00652  0074 00 4 00013  TO     TSX     UMOUNT,4
 TD   00653  3 00000 0 75015         TXH     BUN
      00654  2 01322 0 01306         TIX     WRB,,LWRB
      00655  0074 00 4 00017  BACK6  TSX     $ASKOPR,4
      00656  3 00006 0 01035         PTH     MESC,,6
      00657  3 00001 0 00632         PTH     TL,,CTINUE
      00660  3 00006 0 01043         PTH     MESD,,6
      00661  3 00003 0 00075         PTH     QUITFL,,CHLDFL
      00662  3 00006 0 01051         PTH     MESE,,6
      00663  3 00002 0 00664         PTH     REST6,,PAUSE
                              *
      00664 -0500 00 0 03271  REST6  CAL     =45
      00665  0074 00 4 00011         TSX     SLEEP,4
      00666  0020 00 0 00655         TRA     BACK6
                              *
      00667  0074 00 4 00010  TP     TSX     OPEN,4
 TD   00670  3 00000 0 01013         TXH     R
 TD   00671  3 00000 0 75020         TXH     BFNA
 TD   00672  3 00000 0 75017         TXH     BFNB
 TD   00673  3 00000 0 03273         TXH     =-0
 TD   00674  3 00000 0 03273         TXH     =-0
 TD   00675  3 00000 0 00763         TXH     TY            ERROR
      00676  0074 00 4 00007         TSX     BUFFER,4
 TD   00677  3 00000 0 75020         TXH     BFNA
 TD   00700  3 00000 0 75017         TXH     BFNB
      00701  2 01015 0 02325         TIX     IB2,,LIB
                              *
      00702  0074 00 4 00004         TSX     RDWAIT,4      CHECK DAEMON I.D. LABEL
 TD   00703  3 00000 0 75020         TXH     BFNA
 TD   00704  3 00000 0 75017         TXH     BFNB
 TD   00705  3 00000 0 03265         TXH     =1
      00706  3 00011 0 01377         TXH     IDBF,,9
1       INITIATE AND TERMINATE DUMP TAPE FILE READS.....M.J.BAILEY..1/31/65                      PAGE 13

 TD   00707  3 00000 0 00771         TXH     TZ            EOF,ERROR
 TD   00710  3 00000 0 01375         TXH     JK
 TD   00711  3 00000 0 00763         TXH     TY            ERROR
      00712                          CMPWDS  8,IDBF,TAPEID,TR
      00712  0774 00 1 00010         AXT     8,1                                                              .001
      00713 -0500 00 1 01407         CAL     IDBF+8,1                                                         .001
      00714 -0340 00 1 02324         LAS     TAPEID+8,1                                                       .001
      00715  0020 00 0 00722         TRA     TR                                                               .001
      00716  0020 00 0 00720         TRA     *+2                                                              .001
      00717  0020 00 0 00722         TRA     TR                                                               .001
      00720  2 00001 1 00713         TIX     *-5,1,1                                                          .001
      00721  0020 00 0 00726         TRA     TS
      00722                   TR     CLOSE   BFNA,BFNB
      00722  0074 00 4 00014         TSX     CLOSE,4                                                          .001
      00723  3 00000 0 75020         PTH     BFNA                                                             .001
      00724  3 00000 0 75017         PTH     BFNB                                                             .001
      00725  0020 00 0 00652         TRA     TO
                              *
      00726  0500 00 0 01407  TS     CLA     IDBF+8        NOW CHECK REEL NO.
      00727  0402 00 0 02324         SUB     TAPEID+8
      00730  0100 00 0 00742         TZE     TU            SKIP IF REEL O.K.
      00731                          PRLINE  ( POSSIBLE REEL ORDER ERROR ON CHANNEL B.),8
      00731  0074 00 4 00015         TSX     WRFLX,4                                                          .001
      00732  0 00010 0 03221                 ..003,,8                                                         .001
                                     RMT                                                                      .001
                              ..003  BCI     8, POSSIBLE REEL ORDER ERROR ON CHANNEL B.                       .001
                                     RMT                                                                      .001
      00733  0074 00 4 00017  TT     TSX     $ASKOPR,4
      00734  3 00011 0 01354         PTH     MESQ,,9
      00735  3 00001 0 00742         PTH     TU,,CTINUE
      00736  3 00010 0 01365         PTH     MESR,,8
      00737  3 00010 0 00632         PTH     TK,,CHREEL
      00740  3 00006 0 01043         PTH     MESD,,6
      00741  3 00003 0 00075         PTH     QUITFL,,CHLDFL
                              *
      00742  0074 00 4 00002  TU     TSX     ATTACH,4
      00743  3 00000 0 01010         PTH     NM
      00744  3 00000 0 01011         PTH     NM+1
      00745  0534 00 4 00376         LXA     X4,4
      00746  0534 00 3 00377  TV     LXA     X3,3
      00747  0534 00 2 00400         LXA     X2,2
      00750  0534 00 1 00401         LXA     X1,1
      00751  0020 00 4 00004         TRA     4,4           EXIT
                              *
      00752  0074 00 4 00016  TW     TSX     $PRNTER,4
      00753                          PRLINE  ( ERROR AT START OF NEW REEL ON CHANNEL A.),7
      00753  0074 00 4 00015         TSX     WRFLX,4                                                          .001
      00754  0 00007 0 03231                 ..004,,7                                                         .001
                                     RMT                                                                      .001
                              ..004  BCI     7, ERROR AT START OF NEW REEL ON CHANNEL A.                      .001
                                     RMT                                                                      .001
      00755                   TWA    PRM     MESP,9
      00755  0074 00 4 00015         TSX     WRFLX,4                                                          .001
      00756  0 00011 0 01343                 MESP,,9                                                          .001
      00757  0020 00 0 00612         TRA     TI
                              *
1       INITIATE AND TERMINATE DUMP TAPE FILE READS.....M.J.BAILEY..1/31/65                      PAGE 14

      00760                   TX     PRLINE  ( EOF AT START OF NEW REEL ON CHANNEL A.),7
      00760  0074 00 4 00015         TSX     WRFLX,4                                                          .001
      00761  0 00007 0 03240                 ..005,,7                                                         .001
                                     RMT                                                                      .001
                              ..005  BCI     7, EOF AT START OF NEW REEL ON CHANNEL A.                        .001
                                     RMT                                                                      .001
      00762  0020 00 0 00755         TRA     TWA
                              *
      00763  0074 00 4 00016  TY     TSX     $PRNTER,4
      00764                          PRLINE  ( ERROR AT START OF NEW REEL ON CHANNEL B.),7
      00764  0074 00 4 00015         TSX     WRFLX,4                                                          .001
      00765  0 00007 0 03247                 ..006,,7                                                         .001
                                     RMT                                                                      .001
                              ..006  BCI     7, ERROR AT START OF NEW REEL ON CHANNEL B.                      .001
                                     RMT                                                                      .001
      00766                   TYA    PRM     MESP,9
      00766  0074 00 4 00015         TSX     WRFLX,4                                                          .001
      00767  0 00011 0 01343                 MESP,,9                                                          .001
      00770  0020 00 0 00733         TRA     TT
                              *
      00771                   TZ     PRLINE  ( EOF AT START OF NEW REEL ON CHANNEL B.),7
      00771  0074 00 4 00015         TSX     WRFLX,4                                                          .001
      00772  0 00007 0 03256                 ..007,,7                                                         .001
                                     RMT                                                                      .001
                              ..007  BCI     7, EOF AT START OF NEW REEL ON CHANNEL B.                        .001
                                     RMT                                                                      .001
      00773  0020 00 0 00766         TRA     TYA
                              *
                              * - - - - - - - - - - - - - - - - - - - - -
                              *      CONSTANTS AND VARIABLES
                              * - - - - - - - - - - - - - - - - - - - - -
                              *
      00774                   PBF    BSS     12
      01010                   NM     BSS     2
      01012  0 00000 0 00000  IDERR  PZE
      01013  516060606060     R      BCI     1,R
      01014  0 00000 0 00000  ERCODE PZE
      01015  0 00000 0 00660  LIB    PZE     RECSIZ
      01016  0 00000 0 00004  L4     PZE     4
      01017  0 00000 0 00010  L8     PZE     8
      01020  603133243360     MESA   BCI     8, I.D. RECORD ON 1ST COPY OF TAPE FILE IS UNREAD.
      01030  602551514651     MESB   BCI     5, ERROR OPENING DUMP TAPE FILE.
      01035  606346602346     MESC   BCI     6, TO CONTINUE WITH THIS LOAD FILE,
      01043  606346606462     MESD   BCI     6, TO USE DIFFERENT LOAD FILE, OR
      01051  606346606264     MESE   BCI     6, TO SUSPEND LOADING FOR 1 MIN..
      01057  602545246046     MESF   BCI     8, END OF FILE IN WRONG PLACE ON 1ST TAPE COPY.
      01067  314523465151     WRNGT2 BCI     9,INCORRECT TAPE MOUNTED AS 2ND COPY OF LOAD FILE.
      01100  604743252162            BCI     3, PLEASE REMOVE IT.
      01103  0 00000 0 00014  LWT2   PZE     *-WRNGT2
      01104  604446644563     RMT2   BCI     7, MOUNT ANOTHER TAPE ON THE 2ND CHANNEL.
      01113  0 00000 0 00007  LRMT2  PZE     *-RMT2
      01114  600245246023     BADT2  BCI     8, 2ND COPY OF LOAD FILE UNREAD AFTER 10 TRIES TO
      01124  652551312670            BCI     6,VERIFY ITS I.D.. PLEASE REMOVE IT.
      01132  0 00000 0 00016  LBT2   PZE     *-BADT2
      01133  606445444664     UMA    BCI     6, UNMOUNT TAPE FILE ON MAIN CHANNEL.
      01141  0 00000 0 00006  LUMA   PZE     *-UMA
1       INITIATE AND TERMINATE DUMP TAPE FILE READS.....M.J.BAILEY..1/31/65                      PAGE 15

      01142  606445444664     UMB    BCI     7, UNMOUNT TAPE FILE ON SECONDARY CHANNEL.
      01151  0 00000 0 00007  LUMB   PZE     *-UMB
      01152  603133243360     MESG   BCI     9, I.D. LABELS ON BOTH COPIES OF NEW LOAD FILE MATCH O.K.
      01163  602464444760     MESH   BCI     7, DUMP TAPE FILE STARTING TO LOAD IS A
      01172  602464444731     MESI   BCI     9, DUMPING ON THIS TAPE FILE BEGAN AT         ON
      01203  604546602631     MESJ   BCI     8, NO FILE CREATED LATER THAN           ON
      01213  603162602464     MESK   BCI     5, IS DUMPED ON THIS TAPE FILE.
      01220  604346212431     MESL   BCI     7, LOADING FINISHED FROM THIS TAPE FILE
      01227  605125444665     UMRA   BCI     7, REMOVE CHANNEL A REEL OF RELOAD FILE.
      01236  0 00000 0 00007  LUMRA  PZE     *-UMRA
      01237  605125444665     UMRB   BCI     7, REMOVE CHANNEL B REEL OF RELOAD FILE.
      01246  0 00000 0 00007  LUMRB  PZE     *-UMRB
      01247  604446644563     MRA    BCI     8, MOUNT ANOTHER REEL OF RELOAD FILE ON CHANNEL A
      01257  0 00000 0 00010  LMRA   PZE     *-MRA
      01260  604446644563     MRB    BCI     8, MOUNT ANOTHER REEL OF RELOAD FILE ON CHANNEL B
      01270  0 00000 0 00010  LMRB   PZE     *-MRB
      01271  606651464527     WRA    BCI     8, WRONG REEL MOUNTED ON CHANNEL A FOR RELOAD, NOT
      01301  602225434645            BCI     4, BELONGING TO THIS SET.
      01305  0 00000 0 00014  LWRA   PZE     *-WRA
      01306  606651464527     WRB    BCI     8, WRONG REEL MOUNTED ON CHANNEL B FOR RELOAD, NOT
      01316  602225434645            BCI     4, BELONGING TO THIS SET.
      01322  0 00000 0 00014  LWRB   PZE     *-WRB
      01323  603126606330     MESM   BCI     8, IF THIS WAS LAST REEL OF THIS RELOAD FILE, OR
      01333  603126606330     MESN   BCI     8, IF THERE IS ANOTHER REEL TO THIS RELOAD FILE
      01343  512525436045     MESP   BCI     9,REEL NO. UNCHECKED, FUTURE REEL NO. ERRORS COULD OCCUR
      01354  606346605125     MESQ   BCI     9, TO RESUME RE-LOADING WITH THIS REEL NEVERTHELESS
      01365  603126607046     MESR   BCI     8, IF YOU WISH TO CHANGE THIS REEL FOR ANOTHER
      01375  0 00000 0 00000  JK     PZE
      01376  0 00000 0 00011  L9     PZE     9
      01377                   IDBF   BSS     9
                       00660  RECSIZ EQU     432
      01410                   IB1    BSS     432
      02270                   WBF    BSS     20
      02314                   TAPEID BSS     9
      02325                   IB2    BSS     432
                              *
                                     INSERT  BCMEQB
                              *
                              *  -  -  -  -  -  -  -  -  -  -  -  -  -  -  -  -  -  -
                              *      COMMON AND EQUIVALENCE FOR SECONDARY STORAGE LOAD
                              *         (TIME-SHARING VERSION)
                              *  -  -  -  -  -  -  -  -  -  -  -  -  -  -  -  -  -  -
                              *
                      075045  DEMKEY BOOL    75045         CORE A LOCATION FOR DAEMON KEY SETTING
                              *
                      000017  BASE   BOOL    17            KEY CODE BASE
                      000001  CTINUE BOOL    1             KEY CODE TO CONTINUE WITH PROGRAM,NO CHANGE
                      000002  PAUSE  BOOL    2             KEY CODE TO WAIT 60 SECS.
                      000003  CHLDFL BOOL    3             KEY CODE TO USE DIFFERENT LOAD FILE
                      000004  STOPLD BOOL    4             KEY CODE TO STOP LOADING, START DUMPING
                      000005  ABANKY BOOL    5             KEY CODE TO ABANDON LOAD TAPE FILE
                      000006  SWCHAN BOOL    6             KEY CODE TO GO FROM 1 OR 2 TO 2 OR 1 CHANS.
                      000007  LSREEL BOOL    7             KEY CODE TO INDICATE LAST REEL OF LOAD FILE
                      000010  CHREEL BOOL    10            KEY CODE TO CORRECT REEL ORDER ERROR
                       77777  NEWCOM EQU     -1            TOP OF MEMORY
                      077461  OLDCOM BOOL    77461         OLD TOP OF COMMON
1       INITIATE AND TERMINATE DUMP TAPE FILE READS.....M.J.BAILEY..1/31/65                      PAGE 16

                       77462  COMRLC EQU     OLDCOM-NEWCOM RELOCATION FACTOR
                       77777         COMMON  COMRLC        RELOCATE COMMON
                       01355  UF     EQU     32767/2-DEMKEY/2 LENGTH OF USER LIST
                       77777  UFL    COMMON  2*UF          USER FILE LIST  (1ST PARTS OF FILE NAMES)
                       75044         COMMON  1             INSERT DUMMY IF NECESSARY
                       75043         COMMON  1             DEMKEY CELL IN NON-CTSS VERSION
                       75043  KEYVAL COMMON  1
                       75042  ABANTP COMMON  1             ABANDON TAPE FILE INDICATOR
                       75041  NOCHAN COMMON  1             NO. OF CHANNELS BEING READ (1 OR 2)
                       75040  DU     COMMON  1             PROBLEM NO. OF DUMP/LOAD PACKAGE
                       75037  DP     COMMON  1             PROGRAMMER NO. OF DITTO.
                       75036  LFNA   COMMON  1             LOAD TAPE FILE NAME (PART 1)
                       75035  LFNB   COMMON  1              ,,   ,,   ,,   ,,  (PART 2)
                       75021         COMMON  11            DUMPED FILE'S PREAMBLE FROM DUMP TAPE
                       75021  PREAM  COMMON  1             DUMPED FILE'S DUMP TAPE PREAMBLE 1ST WORD
                       75020  BFNA   COMMON  1             CHANNEL B LOAD TAPE FILE NAME (PART 1)
                       75017  BFNB   COMMON  1             CHANNEL B LOAD TAPE FILE NAME (PART 2)
                       75016  AUN    COMMON  1             CHANNEL A UNIT NO.
                       75015  BUN    COMMON  1             CHANNEL B UNIT NO.
                       75014  TEOF   COMMON  1             TAPE EOF INDICATOR/WORD COUNT
                       75010         COMMON  3             LABEL OF TAPE FILE CURRENTLY BEING LOADED
                       75010  LABEL  COMMON  1             LABEL OF TAPE FILE DITTO.   1ST WORD
                       75007  X      COMMON  1             TAPE FILE POINTER
                                     END
                                              REMOTE SEQUENCES
      03205  602545246046     ..001  BCI     6, END OF REEL ON RELOAD TAPE FILE.                              .001
      03213  605125254360     ..002  BCI     6, REEL ORDER ERROR ON CHANNEL A.                                .001
      03221  604746626231     ..003  BCI     8, POSSIBLE REEL ORDER ERROR ON CHANNEL B.                       .001
      03231  602551514651     ..004  BCI     7, ERROR AT START OF NEW REEL ON CHANNEL A.                      .001
      03240  602546266021     ..005  BCI     7, EOF AT START OF NEW REEL ON CHANNEL A.                        .001
      03247  602551514651     ..006  BCI     7, ERROR AT START OF NEW REEL ON CHANNEL B.                      .001
      03256  602546266021     ..007  BCI     7, EOF AT START OF NEW REEL ON CHANNEL B.                        .001

1       INITIATE AND TERMINATE DUMP TAPE FILE READS.....M.J.BAILEY..1/31/65                      PAGE 1
                        POST PROCESSOR ASSEMBLY DATA

       75006 IS THE LAST LOCATION NOT USED BY THIS PROGRAM
       3276 IS THE FIRST LOCATION NOT USED BY THIS PROGRAM

0REFERENCES TO DEFINED SYMBOLS
       1013      R   101,  213,  546,  670
      75007      X   114,  121,  137,  141,  226,  233,  244,  246,  375, 3205
      75037     DP   460, 3205
      75040     DU   457, 3205
         77     IA    31,   40,  170
        116     IB   142
        136     IC   125
        162     ID   106
        200     IE   123
        206     IG   135,  161,  300
        212     IH   275
        230     II   247
        243     IJ   237
        272     IK   220
        275     IL   317
        310     IM   235
        320     IO   241
        330     IP   323,  325
        337     IQ   327
        342     IR   242,  262
        350     IS   210,  341,  343
        374     IT   364
       1375     JK   566,  710
       1016     L4   517,  641
       1017     L8   234
       1376     L9   564
       1010     NM   455,  743,  744
        461     TB   620
        510     TD   535
        515     TE   527
        523     TF   520
        530     TG   526,  603
        545     TH   522
        612     TI   757
        624     TJ   607
        632     TK   632,  737
        632     TL   657
        637     TM   651
        645     TN   642
        652     TO   650,  725
        667     TP   644
        722     TR   715,  717
        726     TS   721
        733     TT   770
        742     TU   631,  730,  735
        746     TV   453
        752     TW   553,  567
        760     TX   565
        763     TY   675,  711
        771     TZ   707
1       INITIATE AND TERMINATE DUMP TAPE FILE READS.....M.J.BAILEY..1/31/65                      PAGE 2
                        POST PROCESSOR ASSEMBLY DATA

       1355     UF  3205
        401     X1    22,  437,  750
        400     X2    23,  440,  747
        377     X3    24,   76,  441,  746
        376     X4    25,   75,  442,  452,  745
      75016    AUN   430,  502,  512,  516,  531, 3205
      75015    BUN    34,   47,   65,   72,  433,  505,  634,  640,  653, 3205
        100    IAA   165
       1410    IB1   112,  557
       2325    IB2   224,  701
        165    IDA   205
       1015    LIB   112,  224,  557,  701
       1247    MRA   513, 1257
       1260    MRB   635, 1270
        774    PBF
        454    TB1   451
        600    THA   573,  575
        604    THB   577
        621    TJA   614
        755    TWA   762
        435    TX4   403
        766    TYA   773
      77777    UFL  3205
       1133    UMA   431, 1141
       1142    UMB   434, 1151
       2270    WBF   122,  131,  234,  321,  322,  345,  346,  353,  355,  357,  363
       1271    WRA   532, 1305
       1306    WRB   654, 1322
        145   BACK   156
         17   BASE  3205
      75020   BFNA   214,  222,  231,  315,  334,  420,  424,  472,  476,  671,  677,  703,  723, 3205
      75017   BFNB   215,  223,  232,  316,  335,  421,  425,  473,  477,  672,  700,  704,  724, 3205
         63   CONT    53
        452   EOTF   447
       1377   IDBF   564,  571,  604,  621,  706,  713,  726
       1132   LBT2    73
      75036   LFNA   102,  110,  117,  203,  331,  410,  414,  462,  466,  547,  555,  561,  601, 3205
      75035   LFNB   103,  111,  120,  204,  332,  411,  415,  463,  467,  550,  556,  562,  602, 3205
       1257   LMRA   513
       1270   LMRB   635
       1141   LUMA   431
       1151   LUMB   434
       1305   LWRA   532
       1322   LWRB   654
       1103   LWT2    50
       1020   MESA   144,  251,  253,  255
       1030   MESB   163,  273
       1035   MESC    52,  146,  167,  261,  277,  534,  656
       1043   MESD    54,  150,  171,  263,  301,  536,  615,  660,  740
       1051   MESE    56,  152,  173,  265,  303,  540,  662
       1057   MESF   201,  311,  313
       1152   MESG   340
       1163   MESH   351
       1172   MESI   356,  360,  362
       1203   MESJ   366,  367,  371
1       INITIATE AND TERMINATE DUMP TAPE FILE READS.....M.J.BAILEY..1/31/65                      PAGE 3
                        POST PROCESSOR ASSEMBLY DATA

       1213   MESK   373
       1220   MESL   406
       1323   MESM   446
       1333   MESN   450
       1343   MESP   756,  767
       1354   MESQ   613,  734
       1365   MESR   617,  736
         10   OPEN   100,  212,  545,  667
         60   REST    57
       1104   RMT2    66, 1113
      75014   TEOF   124,  236, 3205
        627   TJAX   623
       1227   UMRA   503, 1236
       1237   UMRB   506, 1246
         75  ABEXT   537,  616
        166  BACK1   177
        260  BACK2   271
        276  BACK3   307
        533  BACK5   544
        655  BACK6   666
       1114  BADT2    73, 1132
         14  CLOSE   202,  314,  330,  333,  413,  423,  465,  475,  600,  722
        157  CONT1   147
          5  FWAIT   407,  417,  461,  471
       1012  IDERR   127,  160,  240,  256,  342
          1  IOBDT   365
       3205  ..001   444
       3213  ..002   611
       3221  ..003   732
       3231  ..004   754
       3240  ..005   761
       3247  ..006   765
       3256  ..007   772
      75010  LABEL    35,  517,  641, 3205
       1113  LRMT2    66
       1236  LUMRA   503
       1246  LUMRB   506
         12  MOUNT    63,  510,  632
          2  PAUSE    57,  153,  174,  266,  304,  541,  663, 3205
      75021  PREAM  3205
        154  REST1   153
        175  REST2   174
        267  REST3   266
        305  REST4   304
        542  REST5   541
        664  REST6   663
         11  SLEEP    61,  155,  176,  270,  306,  543,  665
         15  WRFLX   143,  162,  200,  254,  272,  312,  337,  350,  352,  361,  370,  372,  405,  443,  610,  731,  753
                     755,  760,  764,  766,  771
          5 ABANKY  3205
      75042 ABANTP  3205
         17 ASKOPR    51,  145,  166,  260,  276,  445,  533,  612,  655,  733
          2 ATTACH   456,  742
          3 ATTNAM   454
          7 BUFFER   107,  221,  554,  676
1       INITIATE AND TERMINATE DUMP TAPE FILE READS.....M.J.BAILEY..1/31/65                      PAGE 4
                        POST PROCESSOR ASSEMBLY DATA

         33 CHCKBA    45,   67,   70
         41 CHCKBB    36
         51 CHCKBC    62,   74
         70 CHCKBD    44
          3 CHLDFL    55,  151,  172,  264,  302,  537,  616,  661,  741, 3205
         10 CHREEL   620,  737, 3205
      77462 COMRLC  3205
          1 CTINUE    53,  147,  170,  262,  300,  451,  535,  614,  657,  735, 3205
      75045 DEMKEY  3205
       1014 ERCODE    37,   42,  521,  524,  643,  646
          0 GETLSG    26,  126,  354,  404
         22 INITTF     0
      75043 KEYVAL  3205
          7 LSREEL   447, 3205
      77777 NEWCOM  3205
      75041 NOCHAN    27,  206,  627, 3205
      77461 OLDCOM  3205
         16 PRNTER    41,  136,  164,  243,  274,  523,  645,  752,  763
         75 QUITFL    55,   75,  151,  172,  257,  264,  302,  661,  741
          4 RDWAIT   116,  230,  560,  702
        660 RECSIZ   115,  227,  374, 1015, 1410
          4 STOPLD  3205
          6 SWCHAN  3205
       2314 TAPEID   132,  134,  572,  606,  622,  624,  626,  714,  727
        403 TERMTF     0
        437 TSTEOF     0
         13 UMOUNT    46,   71,  427,  432,  501,  504,  530,  652
          6 VERIFY    33,  515,  637
       1067 WRNGT2    50, 1103
         46 WRONGB   336

0 NO ERROR IN ABOVE ASSEMBLY.


LRFLDC   BCD 09/19/68 1941.6    1348         00000
1            READ NEXT ENTRY FROM DISK U.F.D. FILE....M.J.BAILEY,2/5/65                          PAGE 1

                              *        (TIME-SHARING VERSION)
                              *
                       00003         ENTRY   GETLSG        GET LOADER SIGNALS FROM KEYS VIA CORE A
                              *
                              *
                              * - - - - - - - - - - - - - - - - - - - - - - - - - - - - - - -
                              *      GET KEY SETTINGS VIA CORE A, POSSIBLY SET LOADER SWITCHES
                              * - - - - - - - - - - - - - - - - - - - - - - - - - - - - - - -
                              *

        TRANSFER VECTOR
      00000  272563216060     GETA

            LINKAGE DIRECTOR
      00001  000000000000
      00002  272563436227

      00003  0634 00 1 00030  GETLSG SXA     GGX,1
      00004  0074 00 7 00000         TSX     $GETA,7
      00005  0560 00 0 75045         LDQ     DEMKEY
      00006 -0600 00 0 75043         STQ     KEYVAL
      00007  0074 00 7 00000         TSX     $GETA,7
      00010  0600 00 0 75045         STZ     DEMKEY
      00011  0774 00 1 00005         AXT     ABANKY,1
      00012  0754 00 1 00000         PXA     0,1
      00013  0402 00 0 75043         SUB     KEYVAL
      00014 -0100 00 0 00017         TNZ     GGA
      00015 -0625 00 0 75042         STL     ABANTP
      00016  0020 00 0 00030         TRA     GGX
      00017  0774 00 1 00006  GGA    AXT     SWCHAN,1
      00020  0754 00 1 00000         PXA     0,1
      00021  0402 00 0 75043         SUB     KEYVAL
      00022 -0100 00 0 00030         TNZ     GGX
      00023  0534 00 1 75041         LXA     NOCHAN,1
      00024  1 00001 1 00025         TXI     *+1,1,1
      00025 -3 00002 1 00027         TXL     GGB,1,2
      00026  0774 00 1 00001         AXT     1,1
      00027  0634 00 1 75041  GGB    SXA     NOCHAN,1
      00030  0774 00 1 00000  GGX    AXT     **,1
      00031  0020 00 4 00001         TRA     1,4
                              *
                                     INSERT  BCMEQB
                              *
                              *  -  -  -  -  -  -  -  -  -  -  -  -  -  -  -  -  -  -
                              *      COMMON AND EQUIVALENCE FOR SECONDARY STORAGE LOAD
                              *         (TIME-SHARING VERSION)
                              *  -  -  -  -  -  -  -  -  -  -  -  -  -  -  -  -  -  -
                              *
                      075045  DEMKEY BOOL    75045         CORE A LOCATION FOR DAEMON KEY SETTING
                              *
                      000017  BASE   BOOL    17            KEY CODE BASE
                      000001  CTINUE BOOL    1             KEY CODE TO CONTINUE WITH PROGRAM,NO CHANGE
                      000002  PAUSE  BOOL    2             KEY CODE TO WAIT 60 SECS.
                      000003  CHLDFL BOOL    3             KEY CODE TO USE DIFFERENT LOAD FILE
                      000004  STOPLD BOOL    4             KEY CODE TO STOP LOADING, START DUMPING
                      000005  ABANKY BOOL    5             KEY CODE TO ABANDON LOAD TAPE FILE
1            READ NEXT ENTRY FROM DISK U.F.D. FILE....M.J.BAILEY,2/5/65                          PAGE 2

                      000006  SWCHAN BOOL    6             KEY CODE TO GO FROM 1 OR 2 TO 2 OR 1 CHANS.
                      000007  LSREEL BOOL    7             KEY CODE TO INDICATE LAST REEL OF LOAD FILE
                      000010  CHREEL BOOL    10            KEY CODE TO CORRECT REEL ORDER ERROR
                       77777  NEWCOM EQU     -1            TOP OF MEMORY
                      077461  OLDCOM BOOL    77461         OLD TOP OF COMMON
                       77462  COMRLC EQU     OLDCOM-NEWCOM RELOCATION FACTOR
                       77777         COMMON  COMRLC        RELOCATE COMMON
                       01355  UF     EQU     32767/2-DEMKEY/2 LENGTH OF USER LIST
                       77777  UFL    COMMON  2*UF          USER FILE LIST  (1ST PARTS OF FILE NAMES)
                       75044         COMMON  1             INSERT DUMMY IF NECESSARY
                       75043         COMMON  1             DEMKEY CELL IN NON-CTSS VERSION
                       75043  KEYVAL COMMON  1
                       75042  ABANTP COMMON  1             ABANDON TAPE FILE INDICATOR
                       75041  NOCHAN COMMON  1             NO. OF CHANNELS BEING READ (1 OR 2)
                       75040  DU     COMMON  1             PROBLEM NO. OF DUMP/LOAD PACKAGE
                       75037  DP     COMMON  1             PROGRAMMER NO. OF DITTO.
                       75036  LFNA   COMMON  1             LOAD TAPE FILE NAME (PART 1)
                       75035  LFNB   COMMON  1              ,,   ,,   ,,   ,,  (PART 2)
                       75021         COMMON  11            DUMPED FILE'S PREAMBLE FROM DUMP TAPE
                       75021  PREAM  COMMON  1             DUMPED FILE'S DUMP TAPE PREAMBLE 1ST WORD
                       75020  BFNA   COMMON  1             CHANNEL B LOAD TAPE FILE NAME (PART 1)
                       75017  BFNB   COMMON  1             CHANNEL B LOAD TAPE FILE NAME (PART 2)
                       75016  AUN    COMMON  1             CHANNEL A UNIT NO.
                       75015  BUN    COMMON  1             CHANNEL B UNIT NO.
                       75014  TEOF   COMMON  1             TAPE EOF INDICATOR/WORD COUNT
                       75010         COMMON  3             LABEL OF TAPE FILE CURRENTLY BEING LOADED
                       75010  LABEL  COMMON  1             LABEL OF TAPE FILE DITTO.   1ST WORD
                       75007  X      COMMON  1             TAPE FILE POINTER
                                     END
1            READ NEXT ENTRY FROM DISK U.F.D. FILE....M.J.BAILEY,2/5/65                          PAGE 1
                        POST PROCESSOR ASSEMBLY DATA

       75006 IS THE LAST LOCATION NOT USED BY THIS PROGRAM
         32 IS THE FIRST LOCATION NOT USED BY THIS PROGRAM

0REFERENCES TO DEFINED SYMBOLS
      75007      X    32
      75037     DP    32
      75040     DU    32
       1355     UF    32
      75016    AUN    32
      75015    BUN    32
         17    GGA    14
         27    GGB    25
         30    GGX     3,   16,   22
      77777    UFL    32
         17   BASE    32
      75020   BFNA    32
      75017   BFNB    32
          0   GETA     4,    7
      75036   LFNA    32
      75035   LFNB    32
      75014   TEOF    32
      75010  LABEL    32
          2  PAUSE    32
      75021  PREAM    32
          5 ABANKY    11,   32
      75042 ABANTP    15,   32
          3 CHLDFL    32
         10 CHREEL    32
      77462 COMRLC    32
          1 CTINUE    32
      75045 DEMKEY     5,   10,   32
          3 GETLSG     0
      75043 KEYVAL     6,   13,   21,   32
          7 LSREEL    32
      77777 NEWCOM    32
      75041 NOCHAN    23,   27,   32
      77461 OLDCOM    32
          4 STOPLD    32
          6 SWCHAN    17,   32

0 NO ERROR IN ABOVE ASSEMBLY.


ASKOPR   BCD 09/19/68 1941.6    1876         00000
1       SUBROUTINE TO TALK TO OPERATOR AND CONVERSE UNTIL WE GET AN ANSWER                       PAGE 1

                              *
                              *
                       00006         ENTRY   ASKOPR
                              *
                              *

        TRANSFER VECTOR
      00000  272563216060     GETA
      00001  475123462425     PRCODE
      00002  624325254760     SLEEP
      00003  272563436227     GETLSG

            LINKAGE DIRECTOR
      00004  000000000000
      00005  216242464751

      00006  0634 00 1 00064  ASKOPR SXA     ASK1,1
      00007  0634 00 2 00065         SXA     ASK2,2
      00010  0634 00 3 00066         SXA     ASK3,3
      00011  0634 00 4 00067         SXA     ASK4,4
      00012  0634 00 7 00070         SXA     ASK7,7
      00013  0074 00 7 00000         TSX     $GETA,7
      00014  0600 00 0 75045         STZ     DEMKEY
      00015  0754 00 4 00000         PXA     ,4
      00016  0734 00 2 00000         PAX     ,2
      00017  0774 00 1 00000         AXT     0,1
      00020 -0500 00 2 00001  MORMES CAL     1,2
      00021  0602 00 0 00031         SLW     MESS+1
      00022  0074 00 4 00100         TSX     CKOP,4
 TD   00023  3 00000 0 00034         TXH     SNOOZE
      00024 -0500 00 2 00002         CAL     2,2
      00025 -0734 00 3 00000         PDX     ,3
      00026  0634 00 3 00030         SXA     MESS,3
      00027  0074 00 4 00001         TSX     $PRCODE,4
      00030  3 00000 0 00000  MESS   PTH     **
      00031  3 00000 0 00000         PTH     **,,**
      00032  1 00002 1 00033         TXI     *+1,1,2
      00033  1 77776 2 00020         TXI     MORMES,2,-2
      00034 -3 00000 1 00072  SNOOZE TXL     ABORT,1,0
      00035 -0500 00 0 00105         CAL     =15
      00036  0074 00 4 00002         TSX     $SLEEP,4
      00037 -0634 00 1 00040         SXD     *+1,1
      00040  1 00000 2 00041         TXI     *+1,2,**
      00041  0074 00 4 00003         TSX     $GETLSG,4
      00042  0774 00 1 00000         AXT     0,1
      00043 -0500 00 2 00001  NOMTCH CAL     1,2
      00044  0074 00 4 00100         TSX     CKOP,4
      00045  3 00000 0 00061         PTH     REPTMS
      00046 -0500 00 2 00002         CAL     2,2
      00047  0621 00 0 00071         STA     TRAFER
      00050 -0734 00 3 00000         PDX     ,3
      00051  0074 00 4 00100         TSX     CKOP,4
 TD   00052  3 00000 0 00061         TXH     REPTMS
      00053 -0754 00 0 00000         ZAC
      00054  0754 00 3 00000         PXA     ,3
      00055  0402 00 0 75043         SUB     KEYVAL
1       SUBROUTINE TO TALK TO OPERATOR AND CONVERSE UNTIL WE GET AN ANSWER                       PAGE 2

      00056  0100 00 0 00064         TZE     FOUND
      00057  1 00002 1 00060         TXI     *+1,1,2
      00060  1 77776 2 00043         TXI     NOMTCH,2,-2
      00061 -3 00000 1 00072  REPTMS TXL     ABORT,1,0
      00062 -0634 00 1 00063         SXD     *+1,1
      00063  1 00000 2 00017         TXI     MORMES-1,2,**
                              *
                       00064  FOUND  EQU     *
      00064  0774 00 1 00000  ASK1   AXT     **,1
      00065  0774 00 2 00000  ASK2   AXT     **,2
      00066  0774 00 3 00000  ASK3   AXT     **,3
      00067  0774 00 4 00000  ASK4   AXT     **,4
      00070  0774 00 7 00000  ASK7   AXT     **,7
      00071  0020 00 0 00000  TRAFER TRA     **
                              *
                              *
      00072  0534 00 4 00067  ABORT  LXA     ASK4,4
      00073  0534 00 3 00066         LXA     ASK3,3
      00074  0534 00 2 00065         LXA     ASK2,2
      00075  0534 00 1 00064         LXA     ASK1,1
      00076  0534 00 7 00070         LXA     ASK7,7
      00077  0020 00 4 00001         TRA     1,4
                              *
      00100 -0320 00 0 00107  CKOP   ANA     =O700000000000
      00101 -0340 00 0 00106         LAS     =O300000000000
      00102  0020 60 4 00001         TRA*    1,4
      00103  0020 00 4 00002         TRA     2,4
      00104  0020 60 4 00001         TRA*    1,4
                              *
                                     INSERT  BCMEQB
                              *
                              *  -  -  -  -  -  -  -  -  -  -  -  -  -  -  -  -  -  -
                              *      COMMON AND EQUIVALENCE FOR SECONDARY STORAGE LOAD
                              *         (TIME-SHARING VERSION)
                              *  -  -  -  -  -  -  -  -  -  -  -  -  -  -  -  -  -  -
                              *
                      075045  DEMKEY BOOL    75045         CORE A LOCATION FOR DAEMON KEY SETTING
                              *
                      000017  BASE   BOOL    17            KEY CODE BASE
                      000001  CTINUE BOOL    1             KEY CODE TO CONTINUE WITH PROGRAM,NO CHANGE
                      000002  PAUSE  BOOL    2             KEY CODE TO WAIT 60 SECS.
                      000003  CHLDFL BOOL    3             KEY CODE TO USE DIFFERENT LOAD FILE
                      000004  STOPLD BOOL    4             KEY CODE TO STOP LOADING, START DUMPING
                      000005  ABANKY BOOL    5             KEY CODE TO ABANDON LOAD TAPE FILE
                      000006  SWCHAN BOOL    6             KEY CODE TO GO FROM 1 OR 2 TO 2 OR 1 CHANS.
                      000007  LSREEL BOOL    7             KEY CODE TO INDICATE LAST REEL OF LOAD FILE
                      000010  CHREEL BOOL    10            KEY CODE TO CORRECT REEL ORDER ERROR
                       77777  NEWCOM EQU     -1            TOP OF MEMORY
                      077461  OLDCOM BOOL    77461         OLD TOP OF COMMON
                       77462  COMRLC EQU     OLDCOM-NEWCOM RELOCATION FACTOR
                       77777         COMMON  COMRLC        RELOCATE COMMON
                       01355  UF     EQU     32767/2-DEMKEY/2 LENGTH OF USER LIST
                       77777  UFL    COMMON  2*UF          USER FILE LIST  (1ST PARTS OF FILE NAMES)
                       75044         COMMON  1             INSERT DUMMY IF NECESSARY
                       75043         COMMON  1             DEMKEY CELL IN NON-CTSS VERSION
                       75043  KEYVAL COMMON  1
1       SUBROUTINE TO TALK TO OPERATOR AND CONVERSE UNTIL WE GET AN ANSWER                       PAGE 3

                       75042  ABANTP COMMON  1             ABANDON TAPE FILE INDICATOR
                       75041  NOCHAN COMMON  1             NO. OF CHANNELS BEING READ (1 OR 2)
                       75040  DU     COMMON  1             PROBLEM NO. OF DUMP/LOAD PACKAGE
                       75037  DP     COMMON  1             PROGRAMMER NO. OF DITTO.
                       75036  LFNA   COMMON  1             LOAD TAPE FILE NAME (PART 1)
                       75035  LFNB   COMMON  1              ,,   ,,   ,,   ,,  (PART 2)
                       75021         COMMON  11            DUMPED FILE'S PREAMBLE FROM DUMP TAPE
                       75021  PREAM  COMMON  1             DUMPED FILE'S DUMP TAPE PREAMBLE 1ST WORD
                       75020  BFNA   COMMON  1             CHANNEL B LOAD TAPE FILE NAME (PART 1)
                       75017  BFNB   COMMON  1             CHANNEL B LOAD TAPE FILE NAME (PART 2)
                       75016  AUN    COMMON  1             CHANNEL A UNIT NO.
                       75015  BUN    COMMON  1             CHANNEL B UNIT NO.
                       75014  TEOF   COMMON  1             TAPE EOF INDICATOR/WORD COUNT
                       75010         COMMON  3             LABEL OF TAPE FILE CURRENTLY BEING LOADED
                       75010  LABEL  COMMON  1             LABEL OF TAPE FILE DITTO.   1ST WORD
                       75007  X      COMMON  1             TAPE FILE POINTER
                                     END

        LITERALS
      00105  000000000017
      00106  300000000000
      00107  700000000000
1       SUBROUTINE TO TALK TO OPERATOR AND CONVERSE UNTIL WE GET AN ANSWER                       PAGE 1
                        POST PROCESSOR ASSEMBLY DATA

       75006 IS THE LAST LOCATION NOT USED BY THIS PROGRAM
        110 IS THE FIRST LOCATION NOT USED BY THIS PROGRAM

0REFERENCES TO DEFINED SYMBOLS
      75007      X   105
      75037     DP   105
      75040     DU   105
       1355     UF   105
      75016    AUN   105
      75015    BUN   105
      77777    UFL   105
         64   ASK1     6,   75
         65   ASK2     7,   74
         66   ASK3    10,   73
         67   ASK4    11,   72
         70   ASK7    12,   76
         17   BASE   105
      75020   BFNA   105
      75017   BFNB   105
        100   CKOP    22,   44,   51
          0   GETA    13
      75036   LFNA   105
      75035   LFNB   105
         30   MESS    21,   26
      75014   TEOF   105
         72  ABORT    34,   61
         64  FOUND    56,   64
      75010  LABEL   105
          2  PAUSE   105
      75021  PREAM   105
          2  SLEEP    36
          5 ABANKY   105
      75042 ABANTP   105
          6 ASKOPR     0
          3 CHLDFL   105
         10 CHREEL   105
      77462 COMRLC   105
          1 CTINUE   105
      75045 DEMKEY    14,  105
          3 GETLSG    41
      75043 KEYVAL    55,  105
          7 LSREEL   105
         20 MORMES    33,   63
      77777 NEWCOM   105
      75041 NOCHAN   105
         43 NOMTCH    60
      77461 OLDCOM   105
          1 PRCODE    27
         61 REPTMS    45,   52
         34 SNOOZE    23
          4 STOPLD   105
          6 SWCHAN   105
         71 TRAFER    47
1       SUBROUTINE TO TALK TO OPERATOR AND CONVERSE UNTIL WE GET AN ANSWER                       PAGE 2
                        POST PROCESSOR ASSEMBLY DATA

0 NO ERROR IN ABOVE ASSEMBLY.


 GETA1   BCD 09/19/68 1941.6     223         00000
1                                                                                                PAGE 1
                           COMPATIBILITY PACKAGE FOR STAND-ALONE DAAEMON


  BINARY CARD NO. GETA1000
                       00002         ENTRY   NGETA
                       00002         ENTRY   GETA

            LINKAGE DIRECTOR

  BINARY CARD NO. GETA1001
      00000  000000000000
      00001  452725632160

                       00002  NGETA  EQU     *
      00002  0522 00 7 00001  GETA   XEC     1,7           EXECUTE INSTRUCTION
      00003  0020 00 7 00002         TRA     2,7           RETURN
                                     END
1                                                                                                PAGE 1
                        POST PROCESSOR ASSEMBLY DATA

          4 IS THE FIRST LOCATION NOT USED BY THIS PROGRAM

0REFERENCES TO DEFINED SYMBOLS
          2   GETA     0
          2  NGETA     0,    2

0 NO ERROR IN ABOVE ASSEMBLY.


 SLEEP   BCD 09/19/68 1941.7     404         00000
1                                                                                                PAGE 1
                           STAND-ALONE WRITE AROUND FOR SLEEP


  BINARY CARD NO. SLEEP000
                       00003         ENTRY   SLEEP
                                     EXTERN  GETIME

        TRANSFER VECTOR

  BINARY CARD NO. SLEEP001
      00000  272563314425     GETIME

            LINKAGE DIRECTOR
      00001  000000000000
      00002  624325254760

      00003  0634 00 4 00017  SLEEP  SXA     IR4,4
      00004  0131 00 0 00000         XCA
      00005  0200 00 0 00022         MPY     =60
      00006 -0600 00 0 00021         STQ     OUTIME
      00007  0074 00 4 00000         TSX     GETIME,4
      00010  0400 00 0 00021         ADD     OUTIME
      00011  0601 00 0 00021         STO     OUTIME
      00012  0074 00 4 00000  TEST   TSX     GETIME,4
      00013  0340 00 0 00021         CAS     OUTIME
      00014  0020 00 0 00017         TRA     SCRAM
      00015  0020 00 0 00017         TRA     SCRAM
      00016  0020 00 0 00012         TRA     TEST

                       00017  IR4    EQU     *
      00017  0774 00 4 00000  SCRAM  AXT     **,4
      00020  0020 00 4 00001         TRA     1,4

      00021  0 00000 0 00000  OUTIME PZE
                                     END

        LITERALS
      00022  000000000074
1                                                                                                PAGE 1
                        POST PROCESSOR ASSEMBLY DATA

         23 IS THE FIRST LOCATION NOT USED BY THIS PROGRAM

0REFERENCES TO DEFINED SYMBOLS
         17    IR4     3,   17
         12   TEST    16
         17  SCRAM    14,   15
          3  SLEEP     0
          0 GETIME     7,   12
         21 OUTIME     6,   10,   11,   13

0 NO ERROR IN ABOVE ASSEMBLY.


 NLREC   BCD 09/19/68 1941.8    1447         00000
1     MAD PROGRAM LISTING ... ... ...                 FILE   NLREC   MAD            09/19/68    1924.3
-
                  EXTERNAL FUNCTION (NRECS,IRC,LRC,LTRC,LPREAM,LPHYS,NFLR,NLAST                   *001  000001
                1 )                                                                               *001  000002
                  ENTRY TO    NLREC .                                                             *002  000003
                  NWDS=(NRECS-1)*IRC+LRC                                                          *003  000004
                  NFLR=NWDS/LTRC                                                                  *004  000005
                  NLEFT=XMOD  .(    NWDS,LTRC)                                                    *005  000006
                  WHENEVER (NLEFT) .LE. 0, TRANSFER TO QQ0004                                     *006  000007
                  MLPH = NLEFT + LPREAM                                                           *007  000017
                  REM = MLPH - (MLPH/LPHYS)*LPHYS                                                 *008  000027
                  NLAST=(MLPH/LPHYS+(REM/REM))*LPHYS                                              *009  000037
                  TRANSFER TO QQ0005                                                              *010  000047
      QQ0004      NLAST=0                                                                         *011  000057
      QQ0005      FUNCTION RETURN                                                                 *012  000067
                  INTEGER     NWDS  ,     NRECS ,     IRC   ,     LRC                             *013  000077
                  INTEGER     NFLR  ,     LTRC  ,     NLEFT ,     XMOD                            *014  000087
                  INTEGER     NLAST ,     LPREAM,     LPHYS                                       *015  000097
                  INTEGER   MLPH,     REM                                                         *016  000107
                  END OF FUNCTION                                                                 *017  000117
1MAD PROGRAM,TYPE NOV 1963      (ALL NUMBERS ARE OCTAL)
0TOTAL LOCATIONS   00143 TRANSFER VECTOR LENGTH  00002 PROGRAM BEGINS    00014
0 PROGRAM IS AN EXTERNAL FUNCTION.   THE FOLLOWING ARE ENTRIES
      NLREC  00015   0
0VARIABLE STORAGE (A=ARRAY,C=COMMON,E=ERASABLE,DIGIT=MODE)
      MLPH   00005   1        NWDS   00007   1        QQ0004 00003   4        QQ0005 00004   4        REM    00010   1
      NLEFT  00006   1
0FUNCTION DICTIONARY
      EXIT   00000   0        XMOD   00001   1
0ABSOLUTE CONSTANTS
 00011 +000000000000     00012 +000000000001     00013 +233000000000
0STATEMENT DICTIONARY
 00003 TXL -300101000077       00004 TXL -300102000101
0PROGRAM
                 EXTERNAL FUNCTION (NRECS,IRC,LRC,LTRC,LPREAM,LPHYS,NFLR,NLAST      001   000001
                1)                                                                  001   000002
                 ENTRY TO    NLREC .                                                002   000003
 00014 TRA +0 02000 0 00017    00015 SXA +0 63400 2 00103    00016 TSX +0 07400 2 00103
                 NWDS=(NRECS-1)*IRC+LRC                                             003   000004
 00017 CLA +0 50000 0 00024    00020 SUB +0 40200 0 00012    00021 XCA +0 13100 0 00000    00022 MPY +0 20000 0 00024
 00023 XCA +0 13100 0 00000    00024 ADD +0 40000 0 00024    00025 STO +0 60100 0 00007
                 NFLR=NWDS/LTRC                                                     004   000005
 00026 LDQ +0 56000 0 00007    00027 PXD -0 75400 0 00000    00030 LLS +0 76300 0 00000    00031 DVP +0 22100 0 00024
 00032 STQ -0 60000 0 00024
                 NLEFT=XMOD  .(    NWDS,LTRC)                                       005   000006
 00033 TSX +0 07400 4 00001    00034 TXH +3 00000 0 00007    00035 TXH +3 00000 0 00024    00036 STO +0 60100 0 00006
                 WHENEVER (NLEFT) .LE. 0, TRANSFER TO QQ0004                        006   000007
 00037 CLA +0 50000 0 00006    00040 SUB +0 40200 0 00011    00041 TZE +0 10000 0 00043    00042 TPL +0 12000 0 00044
 00043 TRA +0 02000 0 00003
                 MLPH = NLEFT + LPREAM                                              007   000017
 00044 CLA +0 50000 0 00006    00045 ADD +0 40000 0 00024    00046 STO +0 60100 0 00005
                 REM = MLPH - (MLPH/LPHYS)*LPHYS                                    008   000027
 00047 LDQ +0 56000 0 00005    00050 PXD -0 75400 0 00000    00051 LLS +0 76300 0 00000    00052 DVP +0 22100 0 00024
 00053 MPY +0 20000 0 00024    00054 XCA +0 13100 0 00000    00055 CHS +0 76000 0 00002    00056 ADD +0 40000 0 00005
 00057 STO +0 60100 0 00010
                 NLAST=(MLPH/LPHYS+(REM/REM))*LPHYS                                 009   000037
 00060 LDQ +0 56000 0 00010    00061 PXD -0 75400 0 00000    00062 LLS +0 76300 0 00000    00063 DVP +0 22100 0 00010
 00064 STQ -0 60000 0 00140    00065 LDQ +0 56000 0 00005    00066 PXD -0 75400 0 00000    00067 LLS +0 76300 0 00000
 00070 DVP +0 22100 0 00024    00071 XCA +0 13100 0 00000    00072 ADD +0 40000 0 00140    00073 XCA +0 13100 0 00000
 00074 MPY +0 20000 0 00024    00075 STQ -0 60000 0 00024
                 TRANSFER TO QQ0005                                                 010   000047
 00076 TRA +0 02000 0 00004
      QQ0004     NLAST=0                                                            011   000057
 00077 CLA +0 50000 0 00011    00100 STO +0 60100 0 00024
      QQ0005     FUNCTION RETURN                                                    012   000067
 00101 TRA +0 02000 0 00134
                 INTEGER     NWDS  ,     NRECS ,     IRC   ,     LRC                013   000077
                 INTEGER     NFLR  ,     LTRC  ,     NLEFT ,     XMOD               014   000087
                 INTEGER     NLAST ,     LPREAM,     LPHYS                          015   000097
                 INTEGER   MLPH,     REM                                            016   000107
                 END OF FUNCTION                                                    017   000117
 00102 TSX +0 07400 4 00000    00103 TXH +3 00000 0 00000    00104 SXD -0 63400 1 00103    00105 SXA +0 63400 4 00134
 00106 CLA +0 50000 4 00001    00107 STA +0 62100 0 00017    00110 CLA +0 50000 4 00002    00111 STA +0 62100 0 00022
 00112 CLA +0 50000 4 00003    00113 STA +0 62100 0 00024    00114 CLA +0 50000 4 00004    00115 STA +0 62100 0 00031
 00116 STO +0 60100 0 00035    00117 CLA +0 50000 4 00005    00120 STA +0 62100 0 00045    00121 CLA +0 50000 4 00006
 00122 STA +0 62100 0 00052    00123 STA +0 62100 0 00053    00124 STA +0 62100 0 00070    00125 STA +0 62100 0 00074
 00126 CLA +0 50000 4 00007    00127 STA +0 62100 0 00032    00130 CLA +0 50000 4 00010    00131 STA +0 62100 0 00075
 00132 STA +0 62100 0 00100    00133 TRA +0 02000 2 00001    00134 AXT +0 77400 4 00000    00135 LXA +0 53400 2 00103
 00136 LXD -0 53400 1 00103    00137 TRA +0 02000 4 00001


PRCODE   BCD 09/19/68 1941.9     591         00000
1                                                                                                PAGE 1

                       00003         ENTRY   PRCODE
                                     EXTERN  WRFLX

        TRANSFER VECTOR
      00000  665126436760     WRFLX

            LINKAGE DIRECTOR
      00001  000000000000
      00002  475123462425

      00003  0634 00 1 00042  PRCODE SXA     P1,1
      00004  0634 00 4 00043         SXA     P4,4
      00005 -0500 00 4 00001         CAL     1,4
      00006  0400 00 0 00063         ADD     =O17
      00007  0322 00 0 00064         ERA     =O506060600000
      00010 -0765 00 0 00014         LGR     12
      00011 -0773 00 0 00006         RQL     6
      00012  0774 00 1 00002         AXT     2,1
      00013  0767 00 0 00003         ALS     3
      00014 -0763 00 0 00003         LGL     3
      00015  2 00001 1 00013         TIX     *-2,1,1
      00016  0602 00 0 00047         SLW     MESX+2
      00017 -0500 00 4 00002         CAL     2,4
      00020 -0734 00 1 00000         PDX     ,1
      00021 -0634 00 1 00030         SXD     INC,1
      00022 -0634 00 1 00031         SXD     INC+1,1
      00023  0634 00 1 00034         SXA     INC+4,1
      00024  1 00003 1 00025         TXI     *+1,1,3
      00025 -0634 00 1 00041         SXD     PRNT,1
      00026  0734 00 1 00000         PAX     ,1
      00027  0774 00 4 00050         AXT     MESX+3,4
      00030  1 00000 1 00031  INC    TXI     *+1,1,**
      00031  1 00000 4 00032         TXI     *+1,4,**
      00032  0634 00 1 00035         SXA     FROM,1
      00033  0634 00 4 00036         SXA     TO,4
      00034  0774 00 1 00000         AXT     **,1
      00035 -0500 00 1 00000  FROM   CAL     **,1
      00036  0602 00 1 00000  TO     SLW     **,1
      00037  2 00001 1 00035         TIX     *-2,1,1
      00040  0074 00 4 00000         TSX     WRFLX,4
      00041  0 00000 0 00045  PRNT           MESX,,**
      00042  0774 00 1 00000  P1     AXT     **,1
      00043  0774 00 4 00000  P4     AXT     **,4
      00044  0020 00 4 00003         TRA     3,4
                              *
      00045  622563604225     MESX   BCI     2,SET KEY CODE
      00046  706023462425
      00047                          BSS     12
                                     END

        LITERALS
      00063  000000000017
      00064  506060600000
1                                                                                                PAGE 1
                        POST PROCESSOR ASSEMBLY DATA

         65 IS THE FIRST LOCATION NOT USED BY THIS PROGRAM

0REFERENCES TO DEFINED SYMBOLS
         42     P1     3
         43     P4     4
         36     TO    33
         30    INC    21,   22,   23
         35   FROM    32
         45   MESX    16,   27,   41
         41   PRNT    25
          0  WRFLX    40
          3 PRCODE     0

0 NO ERROR IN ABOVE ASSEMBLY.


   IOB   BCD 09/19/68 1941.9    1314         00000
1            CONVERT I/O SYSTEM DATE/TIME TO BCD.....M.J.BAILEY,12/11/64                         PAGE 1

                              *       (EXTRACTED FROM GDT FOR LOADER USE)
                              *
                       00002         ENTRY   IOBDT
                              *
                              *   CONVERT I/O SYSTEM DATE/TIME FROM LAC TO BCD TIME AND DATE --
                              *      HHMM.M (TIME) IN AC, MMDDYY (DATE) IN MQ
                              *

            LINKAGE DIRECTOR
      00000  000000000000
      00001  314622246360

      00002 -0130 00 0 00000   IOBDT XCL
 T    00003 -0754 00 0 00000         PXD
      00004 -0763 00 0 00011         LGL     9             YEAR IN AC
      00005 -0600 00 0 00122         STQ     GDTD
      00006 -0130 00 0 00000         XCL                   YEAR IN MQ
 T    00007 -0754 00 0 00000         PXD
      00010  0221 00 0 00124         DVP     =10           TENS DIGIT OF YEAR IN MQ, UNITS IN AC
      00011 -0320 00 0 00125         ANA     =O17
      00012  0602 00 0 00117         SLW     DATE.         '00000Y'  OF DATE
      00013 -0130 00 0 00000         XCL
      00014 -0320 00 0 00125         ANA     =O17
      00015  0767 00 0 00006         ALS     6
      00016 -0602 00 0 00117         ORS     DATE.         '0000YY' OF DATE
      00017  0560 00 0 00122         LDQ     GDTD
 T    00020 -0754 00 0 00000         PXD
      00021 -0763 00 0 00004         LGL     4             MONTH IN AC
      00022  0601 00 0 00123         STO     GDTM
      00023  0402 00 0 00124         SUB     =10
      00024 -0120 00 0 00030         TMI     IBA
      00025  0601 00 0 00123         STO     GDTM          SAVE UNITS DIGIT OF MONTH
      00026  0500 00 0 00131         CLA     =O100
      00027  0020 00 0 00031         TRA     *+2
 T    00030 -0754 00 0 00000    IBA  PXD
      00031  0400 00 0 00123         ADD     GDTM
      00032  0767 00 0 00030         ALS     24            'MM0000'
      00033 -0602 00 0 00117         ORS     DATE.         'MM00YY' OF DATE
 T    00034 -0754 00 0 00000         PXD
      00035 -0763 00 0 00005         LGL     5             DAY IN AC
      00036 -0600 00 0 00122         STQ     GDTD          SAVE THE TIME
      00037 -0130 00 0 00000         XCL                   DAY IN MQ
 T    00040 -0754 00 0 00000         PXD
      00041  0221 00 0 00124         DVP     =10           TENS DIGIT OF DAY IN MQ, UNITS IN AC
      00042 -0773 00 0 00006         RQL     6
      00043 -0600 00 0 00123         STQ     GDTM          STORE '0000D0'
      00044  0400 00 0 00123         ADD     GDTM          '0000DD' IN AC
      00045  0767 00 0 00014         ALS     12            '00DD00' IN AC
      00046 -0602 00 0 00117         ORS     DATE.         'MMDDYY' OF DATE
      00047 -0500 00 0 00122         CAL     GDTD          TIME
      00050  0771 00 0 00022         ARS     18
      00051 -0130 00 0 00000         XCL                   TIME IN SECS. IN MQ
      00052  0200 00 0 00130         MPY     =60           GET TIME IN 1/60TH'S SEC. IN MQ
      00053  0634 00 4 00101         SXA     TPWATX,4
                              *
      00054 -0754 00 0 00000   BCA   ZAC
1            CONVERT I/O SYSTEM DATE/TIME TO BCD.....M.J.BAILEY,12/11/64                         PAGE 2

      00055  0221 00 0 00133         DVP     =216000       FIND HOUR
      00056  0601 00 0 00121         STO     MIN.          SAVE REMAINDER (MINUTES)
      00057  0074 00 4 00103         TSX     BINBCD,4      CONVERT HOURS TO BCD
      00060 -0765 00 0 00006         LGR     6
      00061 -0100 00 0 00063         TNZ     *+2
      00062 -0500 00 0 00127         CAL     =O60          REPLACE LEADING ZERO WITH BLANK
      00063 -0763 00 0 00006         LGL     6
      00064  0767 00 0 00030         ALS     24            LEAVE ROOM FOR MINUTE
      00065  0602 00 0 00120         SLW     HOUR.         SAVE HOUR
      00066  0560 00 0 00121         LDQ     MIN.          MINUTE
      00067 -0754 00 0 00000         ZAC
      00070  0221 00 0 00132         DVP     =360          FIND NO. OF TENTHS OF MINUTES
      00071  0074 00 4 00103         TSX     BINBCD,4      CONVERT TO BCD
      00072 -0765 00 0 00006         LGR     6             TENTHS TO MQ
      00073  0767 00 0 00014         ALS     12
      00074 -0602 00 0 00120         ORS     HOUR.         ADD MINUTE TO HOUR
      00075 -0500 00 0 00126         CAL     =H00000.      PRECEDE TENTHS WITH .
      00076 -0763 00 0 00006         LGL     6             BRING BACK TENTHS
      00077 -0501 00 0 00120         ORA     HOUR.         HHMM.M IN LOGICAL AC
      00100  0560 00 0 00117         LDQ     DATE.         DATE TO MQ
      00101  0774 00 4 00000  TPWATX AXT     **,4
      00102  0020 00 4 00001         TRA     1,4

      00103  0634 00 4 00114  BINBCD SXA     BNBCDX,4      BINARY TO BCD CONVERTER
      00104  0600 00 0 00116         STZ     TPLIN.
      00105  0774 00 4 00044         AXT     36,4
      00106 -0754 00 0 00000  BNBCD1 ZAC                   CONVERT INTEGER TO BCD
      00107  0221 00 0 00124         DVP     =10           ..
      00110  0767 00 4 00044         ALS     36,4          ..
      00111 -0602 00 0 00116         ORS     TPLIN.        ..
      00112  2 00006 4 00106         TIX     BNBCD1,4,6    ..
      00113 -0500 00 0 00116         CAL     TPLIN.
      00114  0774 00 4 00000  BNBCDX AXT     **,4
      00115  0020 00 4 00001         TRA     1,4
      00116  0 00000 0 00000  TPLIN. PZE                   TEMPORARY
      00117  606060606060      DATE. BCI     1,
      00120  606060606060      HOUR. BCI     1,
      00121  0 00000 0 00000   MIN.  PZE
      00122  0 00000 0 00000  GDTD   PZE
      00123  0 00000 0 00000  GDTM   PZE
                                     END

        LITERALS
      00124  000000000012
      00125  000000000017
      00126  000000000033
      00127  000000000060
      00130  000000000074
      00131  000000000100
      00132  000000000550
      00133  000000645700
1            CONVERT I/O SYSTEM DATE/TIME TO BCD.....M.J.BAILEY,12/11/64                         PAGE 1
                        POST PROCESSOR ASSEMBLY DATA

        134 IS THE FIRST LOCATION NOT USED BY THIS PROGRAM

0REFERENCES TO DEFINED SYMBOLS
         54    BCA
         30    IBA    24
        122   GDTD     5,   17,   36,   47
        123   GDTM    22,   25,   31,   43,   44
        121   MIN.    56,   66
        117  DATE.    12,   16,   33,   46,  100
        120  HOUR.    65,   74,   77
          2  IOBDT     0
        103 BINBCD    57,   71
        106 BNBCD1   112
        114 BNBCDX   103
        116 TPLIN.   104,  111,  113
        101 TPWATX    53

0 NO ERROR IN ABOVE ASSEMBLY.


  XMOD   BCD 09/19/68 1941.9     267         00000
1      XMOD          REMAINDERING ARG1(MOD ARG2)                                                 PAGE 1

                              *              CALLING SEQUENCE TSX XMOD,4
                              *                               TXH ARG1(FIXED)
                              *                               TXH ARG2(FIXED)
                              *                               3,4 RETURN
                              *              FUNCTION FIXED
                       00002         ENTRY   XMOD

            LINKAGE DIRECTOR
      00000  000000000000
      00001  674446246060

      00002  0760 00 0 00000  XMOD   CLM
      00003  0560 60 4 00001         LDQ*    1,4
 A    00004  0763 00 0 00000         LLS                   SIGN OF MQ TO AC
      00005  0221 60 4 00002         DVP*    2,4
      00006  0020 00 4 00003         TRA     3,4
                                                           FUNCTION IN ARITHMETIC AC FIXED
                                     END
1      XMOD          REMAINDERING ARG1(MOD ARG2)                                                 PAGE 1
                        POST PROCESSOR ASSEMBLY DATA

          7 IS THE FIRST LOCATION NOT USED BY THIS PROGRAM

0REFERENCES TO DEFINED SYMBOLS
          2   XMOD     0

0 NO ERROR IN ABOVE ASSEMBLY.


DPRT1B   BCD 09/19/68 1941.9    4520         00000
1      DPRINT  -  06/08/68   D.A. ANDERSON                                                       PAGE 1
                       GENERAL ON-LINE/OFF-LINE PRINT ROUTINE

                              *      TSX     DPRINT,4
                              *      PZE     'MODE'    OR    PTH    =MODE
                              *        (LIST)
                              *
                              * (LIST) IS ANY SEQUENCE OF -
                              *      PZE     ADR,TAG
                              *      EFA     ADR,TAG
                              *      PTH     ADR
                              *      PTH     ADR,,'N'
                              *      PTW     ADR,,=N
                              *
                              * IF 1,4 WAS 'PZE' ARRAYS ARE STORED FORWARD, IF 'PTH' THEY
                              *   ARE STORED BACKWARD.  IF 1,4 NEITHER 'PZE' OR 'PTH', CONTROL
                              *   IS IMMEDIATELY RETURNED TO 1,4.
                              *
                              * DPRINT REMOVES ILLEGAL CHARACTERS, INTERPRETS TABS AND CARRIAGE
                              *   RETURNS, CONVERTS COLONS TO PERIODS, AND INSERTS A BLANK BEFORE
                              *   ANY LINE WHOSE FIRST CHARACTER IS NOT A VALID CARRIAGE CONTROL
                              *   CHARACTER.
                              *
                              * MODE BITS - 1. WRITE A3, IF SW5 DOWN PRINT ON-LINE
                              *             2. PRINT ON-LINE
                              *             4. WRITE A3, IF SW6 NOT DOWN PRINT ON-LINE
                              *
                              * THE MAIN PROGRAM MUST CALL '.FOUT' BEFORE EXITING.


                       00004         ENTRY   DPRINT


                                     EXTERN  PRNT,SPRNT


        TRANSFER VECTOR
      00000  475145636060     PRNT
      00001  624751456360     SPRNT

            LINKAGE DIRECTOR
      00002  000000000000
      00003  244751314563

                       00026  LINELN EQU     22            MAX. LENGTH OF PRINTING LINE
1      DPRINT  -  06/08/68   D.A. ANDERSON                                                       PAGE 2
                       GENERAL ON-LINE/OFF-LINE PRINT ROUTINE

      00004  0636 00 1 00035  DPRINT SCA     XR1,1         SAVE XR'S
      00005  0636 00 2 00034         SCA     XR2,2           (COMPLEMENTED FOR EFFECTIVE ADDRESSING)
      00006  0636 00 4 00032         SCA     XR4,4
      00007  0760 00 0 00016         EAXM                  JUST IN CASE
      00010  0636 00 3 00033         SCA     XR3,3
      00011  0636 00 5 00031         SCA     XR5,5
      00012  0636 00 6 00030         SCA     XR6,6
      00013  0636 00 7 00027         SCA     XR7,7
      00014  0604 00 0 00306         STI     SI            ALSO INDICATORS
      00015  1 77777 4 00016         TXI     *+1,4,-1      BUMP XR4
      00016  0636 00 4 00036         SCA     RETURN,4        AND SAVE AS RETURN

      00017 -0500 00 4 00000         CAL     0,4           GET MODE OR POINTER TO IT
      00020  0774 00 1 00001         AXT     1,1           ASSUME FAP ARRAYS
      00021  0621 00 0 00307         STA     MODE            AND MODE.
      00022 -0320 00 0 00347         ANA     =O777777700000 SAVE ALL BUT ADDRESS
      00023  0100 00 0 00042         TZE     FAP           CALLING PROG. IS FAP IF 'PZE'
      00024  0322 00 0 00345         ERA     =O300000000000
      00025  0100 00 0 00037         TZE     MAD             MAD IF 'PTH'

      00026  0441 00 0 00306  EGRETS LDI     SI            OTHERWISE, IGNORE CALL.
      00027 -0774 00 7 00000  XR7    AXC     **,7
      00030 -0774 00 6 00000  XR6    AXC     **,6
      00031 -0774 00 5 00000  XR5    AXC     **,5
      00032 -0774 00 4 00000  XR4    AXC     **,4
      00033 -0774 00 3 00000  XR3    AXC     **,3
      00034 -0774 00 2 00000  XR2    AXC     **,2
      00035 -0774 00 1 00000  XR1    AXC     **,1
      00036  0020 00 0 00000  RETURN TRA     **            RETURN BEYOND CALLING SEQUENCE

      00037  0774 00 1 77777  MAD    AXT     -1,1          MAD ARRAYS ARE STORED BACKWARD
      00040 -0500 60 0 00307         CAL*    MODE          PICK UP INDIRECTLY SPECIFIED
      00041  0621 00 0 00307         STA     MODE            MODE, AND SAVE IT.

      00042 -0636 00 1 00140  FAP    SCD     INCRMT,1      SET ARRAY INCREMENT
      00043  0774 00 1 00000         AXT     0,1           CURRENT INPUT WORD IS EMPTY
      00044  0774 00 2 00000         AXT     0,2             AND SO IS CURRENT INPUT BLOCK.

      00045  0774 00 7 00026  NEWLIN AXT     LINELN,7      NEXT OUTPUT TO 1ST WORD OF BUFFER
      00046 -0774 00 6 00036         AXC     30,6            AND FIRST CHAR. OF WORD
      00047  0600 00 7 00337         STZ     LINE+LINELN,7 CLEAR OUTPUT WORD
      00050  0774 00 5 00000         AXT     0,5           ZERO CHARACTERS IN LINE SO FAR
1      DPRINT  -  06/08/68   D.A. ANDERSON                                                       PAGE 3
                       GENERAL ON-LINE/OFF-LINE PRINT ROUTINE

      00051 -2 00001 1 00137  LOOP   TNX     NXTWRD,1,1    ANYTHING LEFT IN CURRENT WORD.Q.
      00052 -0754 00 0 00000  NEWRD  ZAC                     YES.
      00053 -0763 00 0 00004         LGL     4             USE THE HIGH-ORDER FOUR
      00054  0737 00 4 00000         PAC     ,4              BITS FOR ADDRESS MODIFICATION
      00055 -0754 00 0 00000         ZAC
      00056 -0763 00 0 00002         LGL     2             AND THE LAST TWO
      00057  0602 00 0 00310         SLW     TEMP            (MULTIPLIED BY 9)
      00060  0767 00 0 00003         ALS     3               FOR A SHIFT COUNT
      00061  0400 00 0 00310         ADD     TEMP
      00062  0402 00 0 00342         SUB     =27           (TO MAKE TABLE PRETTY)
      00063  0621 00 0 00065         STA     *+2
      00064 -0500 00 4 00265         CAL     CHRTBL,4      PICK UP EQUIVALENCE FROM TABLE
      00065  0771 00 0 00000         ARS     **              GET APPROPRIATE 9-BIT CHUNK
      00066  0044 00 0 00000         PAI                   TO INDICATORS FOR TESTING
      00067  0054 00  000100         RFT     ILLEGL        IS THIS CODE PRINTABLE.Q.
      00070  0020 00 0 00051         TRA     LOOP            NO. IGNORE IT.
      00071  0054 00  000400         RFT     CONTRL        IS IT A CONTROL CHARACTER.Q.
      00072  0020 00 0 00106         TRA     CNTRL           YES. GO PROCESS IT.
      00073  3 00000 5 00103         TXH     PUTCHR,5,0    IS THIS THE 1ST CHAR. FOR THIS LINE.Q.
      00074  0056 00  000200         RNT     CRGCTL          YES. VALID CARRIAGE CONTROL.Q.
      00075 -0500 00 0 00343         CAL     =O60              NO. SUBSTITUTE A BLANK
      00076  0074 00 4 00207         TSX     STC,4         STORE THE CHARACTER
      00077  0 00000 0 00077                 *               CAN'T BE FULL ON 1ST CHAR.
      00100 -0046 00 0 00000         PIA                   RESTORE CHAR. FROM SI
      00101  0054 00  000200         RFT     CRGCTL        VALID CONTROL.Q.
      00102 -0500 00 0 00343         CAL     =O60            YES. SUBSTITUTE BLANK.
      00103  0074 00 4 00207  PUTCHR TSX     STC,4         STORE CHAR. FROM AC30-35.
      00104  0 00000 0 00051                 LOOP          LINE TOO LONG. IGNORE FURTHER INPUT.
      00105  0020 00 0 00051         TRA     LOOP          GET NEXT CHARACTER

      00106 -0320 00 0 00344  CNTRL  ANA     =O77          GET CONTROL CODE
      00107  0737 00 4 00000         PAC     ,4              INTO XR4
      00110 -3 77775 4 00051         TXL     LOOP,4,-NCTRL-1 CALL IT ILLEGAL IF CODE TOO LARGE
      00111  0020 60 4 00111         TRA*    *,4           GO TO CONTROL FUNCTION
      00112  0 00000 0 00114  CTRL1          CR            NEW LINE
      00113  0 00000 0 00120                 TAB           TABULATE
                       00002  NCTRL  EQU     *-CTRL1

      00114 -0600 00 0 00305  CR     STQ     MQ            SAVE PARTIAL INPUT WORD
      00115  0074 00 4 00224         TSX     OUTPUT,4      PRINT THIS LINE
      00116  0560 00 0 00305         LDQ     MQ            RESTORE INPUT
      00117  0020 00 0 00045         TRA     NEWLIN          AND START A NEW LINE.

      00120  0634 00 3 00135  TAB    SXA     TX3,3         WE NEED ONE MORE THAN WE HAVE
      00121  3 00000 5 00124         TXH     *+3,5,0       IF FIRST CHAR.
      00122  0774 00 3 00013         AXT     11,3            GIVE TEN SPACES PLUS
      00123  0020 00 0 00131         TRA     TABOUT          ONE FOR CARRIAGE CONTROL
      00124  0754 00 5 00000         PXA     ,5            GET CURRENT LINE LENGTH
      00125  0402 00 0 00337         SUB     =1            MINUS ONE FOR CARRIAGE CONTROL
      00126  0402 00 0 00341         SUB     =10           THIS GIVES '10-X.MOD.10' WITHOUT
      00127  0120 00 0 00126         TPL     *-1             CLOBBERING THE MQ.
      00130  0734 00 3 00000         PAX     ,3            NO. SPACES NEEDED INTO XR3
      00131 -0500 00 0 00343  TABOUT CAL     =O60
      00132  0074 00 4 00207         TSX     STC,4         STORE A BLANK
      00133  0 00000 0 00135                 *+2           IGNORE FURTHER INPUT IF WE OVERFLOW
1      DPRINT  -  06/08/68   D.A. ANDERSON                                                       PAGE 4
                       GENERAL ON-LINE/OFF-LINE PRINT ROUTINE

      00134  2 00001 3 00131         TIX     TABOUT,3,1    CONTINUE UNTIL TAB STOP REACHED
      00135  0774 00 3 00000  TX3    AXT     **,3
      00136  0020 00 0 00051         TRA     LOOP          THEN GO FOR NEXT CHAR.
1      DPRINT  -  06/08/68   D.A. ANDERSON                                                       PAGE 5
                       GENERAL ON-LINE/OFF-LINE PRINT ROUTINE

      00137 -2 00001 2 00144  NXTWRD TNX     NXTBLK,2,1    ANYTHING LEFT IN THIS BLOCK.Q.
      00140  1 00000 3 00141  INCRMT TXI     *+1,3,**        YES. MOVE TO NEXT WORD (MAD +1, FAP -1)
      00141  0560 00 3 00000  START  LDQ     0,3           GET NEW INPUT WORD
      00142  0774 00 1 00006         AXT     6,1           RESET INPUT CHARACTER COUNT
      00143  0020 00 0 00052         TRA     NEWRD           AND RETURN.

      00144  0535 00 4 00036  NXTBLK LAC     RETURN,4      NEED NEW INPUT BLOCK
      00145  1 77777 4 00146         TXI     *+1,4,-1      BUMP CALLING SEQUENCE POINTER
      00146  0636 00 4 00036         SCA     RETURN,4
      00147  0500 00 4 00000         CLA     0,4             AND GET NEXT (POSSIBLE) ARGUMENT
      00150 -0120 00 0 00204         TMI     FINISH        END OF CALLING SEQ. IF PREFIX MINUS
      00151  0044 00 0 00000         PAI                   SAVE WORD FOR TESTING
      00152  0737 00 3 00000         PAC     ,3            SAVE ADDRESS
      00153  0771 00 0 00017         ARS     15            ISOLATE PREFIX
      00154 -0734 00 4 00000         PDX     ,4              FOR TESTING
      00155 -3 00000 4 00170         TXL     EFARG,4,0     PZE OR EFA (MAYBE)
      00156 -3 00001 4 00204         TXL     FINISH,4,1    DON'T RECOGNIZE PON
      00157  0054 00  700000         RFT     700000        PTH OR PTW. IS TAG ZERO.Q.
      00160  0020 00 0 00204         TRA     FINISH          NO. END OF CALLING SEQUENCE
      00161  0771 00 0 00003         ARS     3               YES. GET DECREMENT
      00162  3 00002 4 00166         TXH     *+4,4,2       PTH OR PTW.Q.
      00163  0737 00 4 00000         PAC     ,4              PTW. MUST GO INDIRECT.
      00164 -0500 00 4 00000         CAL     0,4             GET COUNT
      00165  0100 00 0 00144         TZE     NXTBLK          IGNORE PTW WITH ZERO COUNT
      00166  0734 00 2 00000         PAX     ,2            PUT COUNT IN INDEX
      00167  0020 00 0 00141         TRA     START           AND START PROCESSING BLOCK.
      00170 -0054 00  777777  EFARG  LFT     /             CHECK FOR PZE OR EFA
      00171 -0051 00  076100         IIL     076100          NOT PZE, INVERT EFA BITS
      00172 -0054 00  777777         LFT     /             ZERO FOR PZE OR EFA, NOT ELSE.
      00173  0020 00 0 00204         TRA     FINISH          END OF CALLING SEQUENCE
      00174 -0320 00 0 00340         ANA     =7            ISOLATE TAG FROM POSSIBLE GARBAGE
      00175  0100 00 0 00202         TZE     *+5             NO MODIFICATION IF ZERO
      00176  0734 00 4 00000         PAX     ,4
      00177  0756 00 3 00000         PCA     ,3            GET ADDRESS AND ADD
      00200  0401 00 4 00036         ADM     RETURN,4        MINUS CALLER'S XR VALUE.
      00201  0737 00 3 00000         PAC     ,3            BACK TO INDEX
      00202  0774 00 2 00001         AXT     1,2           BLOCK COUNT OF ONE.
      00203  0020 00 0 00141         TRA     START         PROCESS THIS WORD.

      00204 -3 00000 5 00026  FINISH TXL     EGRETS,5,0    IGNORE A NULL LINE
      00205  0074 00 4 00224         TSX     OUTPUT,4      PRINT LAST LINE
      00206  0020 00 0 00026         TRA     EGRETS          AND EXIT TO CALLING PROGRAM.
1      DPRINT  -  06/08/68   D.A. ANDERSON                                                       PAGE 6
                       GENERAL ON-LINE/OFF-LINE PRINT ROUTINE

      00207  3 00203 5 00211  STC    TXH     *+2,5,6*LINELN-1 IS THIS LINE FULL.Q.
      00210  1 00001 5 00212         TXI     *+2,5,1         NO. BUMP CHAR. COUNT
      00211  0020 60 4 00001         TRA*    1,4             YES. TAKE FULL RETURN.
      00212 -0320 00 0 00344         ANA     =O77          REMOVE POSSIBLE GARBAGE
      00213  0767 00 6 00000         ALS     ,6            SHIFT CHAR. TO POSITION
      00214 -0602 00 7 00337         ORS     LINE+LINELN,7  AND INSERT IN OUTPUT.
      00215 -3 77734 6 00217         TXL     *+2,6,-36     IS THIS WORD FULL.Q.
      00216  1 00006 6 00223         TXI     *+5,6,6         NO. BUMP SHIFT COUNT.
      00217  2 00001 7 00221         TIX     *+2,7,1         YES. IS OUTPUT BUFFER FULL.Q.
      00220  0020 60 4 00001         TRA*    1,4               YES. GIVE FULL RETURN.
      00221  0600 00 7 00337         STZ     LINE+LINELN,7     NO. CLEAR NEXT OUTPUT WORD.
      00222 -0774 00 6 00036         AXC     30,6                RESET SHIFT COUNT
      00223  0020 00 4 00002         TRA     2,4                   AND EXIT.

      00224  0634 00 4 00257  OUTPUT SXA     OX4,4         SAVE RETURN
      00225  3 00203 5 00236         TXH     OUTP1,5,6*LINELN-1 IS LINE FULL.Q.
      00226 -3 00000 5 00232         TXL     *+4,5,0         NO. IS LINE EMPTY.Q.
      00227  3 77742 6 00232         TXH     *+3,6,-30         NO. IS THIS WORD EMPTY.Q.
      00230 -3 00000 6 00232         TXL     *+2,6,0             ..
      00231  1 00001 7 00236         TXI     OUTP1,7,1           YES. DON'T BLANK PAD.
      00232 -0500 00 0 00343         CAL     =O60          GET A BLANK IN THE AC
      00233  0560 00 0 00346         LDQ     =H              AND MORE IN THE MQ
      00234 -0763 00 6 00000         LGL     ,6            SHIFT TO POSITION
      00235 -0602 00 7 00337         ORS     LINE+LINELN,7   AND INSERT IN THE OUTPUT.
      00236  1 77751 7 00237  OUTP1  TXI     *+1,7,-LINELN-1 GET MINUS WORD COUNT FOR LINE

      00237  0441 00 0 00307         LDI     MODE          GET PRINT MODE
      00240  0054 00  000001         RFT     1             IF WRITING ON TAPE
      00241  0760 00 0 00165         SWT     5               AND SWITCH 5 IS DOWN,
      00242  0020 00 0 00244         TRA     *+2             ALSO PRINT ON-LINE.
      00243  0055 00  000002         SIR     2
      00244  0760 00 0 00166         SWT     6             IF SWITCH 6 IS NOT DOWN
      00245  0056 00  000004         RNT     4               AND MODE FOUR IS SPECIFIED,
      00246  0020 00 0 00250         TRA     *+2             PRINT IT ON-LINE TOO.
      00247  0055 00  000002         SIR     2

      00250  0056 00  000002         RNT     2             SHOULD WE PRINT IT.Q.
      00251  0020 00 0 00255         TRA     *+4             NO. SKIP.
      00252 -0636 00 7 00254         SCD     *+2,7           YES. INSERT WORD COUNT
      00253  0074 00 4 00000         TSX     PRNT,4            AND GO PRINT.
      00254  0 00000 0 00311                 LINE,,**
      00255  0054 00  000005         RFT     5             SHOULD WE WRITE TAPE.Q.
      00256  0020 00 0 00261         TRA     *+3             YES.
      00257  0774 00 4 00000  OX4    AXT     **,4            NO. EXIT
      00260  0020 00 4 00001         TRA     1,4
      00261 -0636 00 7 00263         SCD     *+2,7         INSERT WORD COUNT
      00262  0074 00 4 00001         TSX     SPRNT,4         AND WRITE A3.
      00263  0 00000 0 00311                 LINE,,**
      00264  0020 00 0 00257         TRA     OX4           ALL DONE
1      DPRINT  -  06/08/68   D.A. ANDERSON                                                       PAGE 7
                       GENERAL ON-LINE/OFF-LINE PRINT ROUTINE

                              CHRTBL VFD     O9/000+CRGCTL, 0
                                     ETC     O9/001+CRGCTL, 1
                                     ETC     O9/002+CRGCTL, 2
      00265  200201202203            ETC     O9/003+CRGCTL 3
                                     VFD     O9/004+CRGCTL, 4
                                     ETC     O9/005+CRGCTL, 5
                                     ETC     O9/006,       6
      00266  204205006007            ETC     O9/007        7
                                     VFD     O9/010,       8
                                     ETC     O9/011,       9
                                     ETC     O9/ILLEGL,
      00267  010011100013            ETC     O9/013        =
                                     VFD     O9/014,       '
                                     ETC     O9/ILLEGL,
                                     ETC     O9/ILLEGL,
      00270  014100100100            ETC     O9/ILLEGL
                                     VFD     O9/020+CRGCTL, +
                                     ETC     O9/021,       A
                                     ETC     O9/022,       B
      00271  220021022023            ETC     O9/023        C
                                     VFD     O9/024,       D
                                     ETC     O9/025,       E
                                     ETC     O9/026,       F
      00272  024025026027            ETC     O9/027        G
                                     VFD     O9/030,       H
                                     ETC     O9/031,       I
                                     ETC     O9/ILLEGL,
      00273  030031100033            ETC     O9/033        .
                                     VFD     O9/034,       )
                                     ETC     O9/033,       COLON
                                     ETC     O9/ILLEGL,
      00274  034033100100            ETC     O9/ILLEGL
                                     VFD     O9/040+CRGCTL, -
                                     ETC     O9/041,       J
                                     ETC     O9/042,       K
      00275  240041042043            ETC     O9/043        L
                                     VFD     O9/044,       M
                                     ETC     O9/045,       N
                                     ETC     O9/046,       O
      00276  044045046047            ETC     O9/047        P
                                     VFD     O9/050,       Q
                                     ETC     O9/051,       R
                                     ETC     O9/ILLEGL,
      00277  050051100053            ETC     O9/053        $
                                     VFD     O9/054,       *
                                     ETC     O9/1+CONTRL,  CARRIAGE RETURN
                                     ETC     O9/ILLEGL,
      00300  054401100100            ETC     O9/ILLEGL     NULL
                                     VFD     O9/060+CRGCTL, SPACE
                                     ETC     O9/061+CRGCTL, /
                                     ETC     O9/062+CRGCTL, S
      00301  260261262263            ETC     O9/063+CRGCTL T
                                     VFD     O9/064,       U
                                     ETC     O9/065,       V
                                     ETC     O9/066,       W
1      DPRINT  -  06/08/68   D.A. ANDERSON                                                       PAGE 8
                       GENERAL ON-LINE/OFF-LINE PRINT ROUTINE

      00302  064065066067            ETC     O9/067        X
                                     VFD     O9/070,       Y
                                     ETC     O9/071,       Z
                                     ETC     O9/2+CONTRL,  TAB
      00303  070071402073            ETC     O9/073
                                     VFD     O9/074,       (
                                     ETC     O9/ILLEGL,
                                     ETC     O9/ILLEGL,
      00304  074100100100            ETC     O9/ILLEGL

                      000400  CONTRL BOOL    400           CONTROL CODE
                      000200  CRGCTL BOOL    200           VALID CARRIAGE CONTROL CODE
                      000100  ILLEGL BOOL    100           NON-PRINTING CHARACTER


      00305  0 00000 0 00000  MQ
      00306  0 00000 0 00000  SI
      00307  0 00000 0 00000  MODE
      00310  0 00000 0 00000  TEMP
      00311                   LINE   BSS     LINELN

                                     END

        LITERALS
      00337  000000000001
      00340  000000000007
      00341  000000000012
      00342  000000000033
      00343  000000000060
      00344  000000000077
      00345  300000000000
      00346  606060606060
      00347  777777700000
1      DPRINT  -  06/08/68   D.A. ANDERSON                                                       PAGE 1
                        POST PROCESSOR ASSEMBLY DATA

        350 IS THE FIRST LOCATION NOT USED BY THIS PROGRAM

0REFERENCES TO DEFINED SYMBOLS
        114     CR   112
        305     MQ   114,  116
        306     SI    14,   26
         42    FAP    23
         37    MAD    25
        257    OX4   224,  264
        207    STC    76,  103,  132
        120    TAB   113
        135    TX3   120
         35    XR1     4
         34    XR2     5
         33    XR3    10
         32    XR4     6
         31    XR5    11
         30    XR6    12
         27    XR7    13
        311   LINE    47,  214,  221,  235,  254,  263
         51   LOOP    70,  104,  105,  110,  136
        307   MODE    21,   40,   41,  237
          0   PRNT   253
        310   TEMP    57,   61
        106  CNTRL    72
        112  CTRL1   114
        170  EFARG   155
          2  NCTRL   110,  114
         52  NEWRD   143
        236  OUTP1   225,  231
          1  SPRNT   262
        141  START   167,  203
        265 CHRTBL    64
        400 CONTRL    71,  300,  303,  305
        200 CRGCTL    74,  101,  265,  266,  271,  275,  301,  305
          4 DPRINT     0
         26 EGRETS   204,  206
        204 FINISH   150,  156,  160,  173
        100 ILLEGL    67,  267,  270,  273,  274,  277,  300,  304,  305
        140 INCRMT    42
         26 LINELN     4,   45,   47,  207,  214,  221,  225,  235,  236,  311
         45 NEWLIN   117
        144 NXTBLK   137,  165
        137 NXTWRD    51
        224 OUTPUT   115,  205
        103 PUTCHR    73
         36 RETURN    16,  144,  146,  200
        131 TABOUT   123,  134

0 NO ERROR IN ABOVE ASSEMBLY.


 IOA1C   BCD 09/19/68 1942.0   16810         00000
