1     MAD PROGRAM LISTING ... ... ...                 FILE  LDFILE   MAD            05/28/67    1922.6
-
                      ROUTINE TO RE-LOAD A FILE FROM TAPE                                              LM00001
                           D.R. WIDRIG  DEC. 1965                                                      LM00002
                                                                                                       LM00003
                  EXTERNAL FUNCTION (Y,Z)                                                         *001 LM00004
                  INSERT FILE COM                                                                 *002 LM00005
                                                                                                  *002 LM00001
                  NORMAL MODE IS INTEGER                                                          *003 LM00002
                  BOOLEAN SWT.                                                                    *004 LM00003
                                                                                                       LM00004
                  DIMENSION TABLE(210),BUFF(432),BUFF1(432),BUFF2(432)                            *005 LM00005
                  DIMENSION HEADER(12),UFD(7),DRAIN(432),LODTAB(2000)                             *006 LM00006
                  EQUIVALENCE (PB,HEADER(12)),(PG,HEADER(11)),(DND,HEADER(8)),                    *007 LM00007
                1      (WC,HEADER(2)),(LRCT,HEADER(1))                                            *007 LM00008
                  PROGRAM COMMON TABLE,BUFF,BUFF1,BUFF2                                           *008 LM00009
                  PROGRAM COMMON HEADER,DRAIN,UFD,LODTAB                                          *009 LM00010
                  PROGRAM COMMON AINDEX,UNIT,D,T,MZE,TFUDG,FENCE,USERF,ILEDI,PRIV                 *010 LM00011
                  PROGRAM COMMON TABLIM,LPREAM,HPROB,HPROG,CURPTR,AUTHOR,LINDEX                   *011 LM00012
                  PROGRAM COMMON LODLIM,SYSTEM,DAEMON,REELNO,TSKLTH                               *012 LM00013
                                                                                                       LM00014
                  VECTOR VALUES FENCE = 777777777777K                                             *013 LM00015
                  VECTOR VALUES MZE = 4K11                                                        *014 LM00016
                  VECTOR VALUES TFUDG = 1800                                                      *015 LM00017
                  VECTOR VALUES TABLIM = 200                                                      *016 LM00018
                  VECTOR VALUES LODLIM = 2000                                                     *017 LM00019
                  VECTOR VALUES LPREAM = 12                                                       *018 LM00020
                  VECTOR VALUES TSKLTH = 11                                                       *019 LM00021
                                                                                                       LM00022
                  VECTOR VALUES SYSTEM = $ C0056$                                                 *020 LM00023
                  VECTOR VALUES DAEMON = $ 99999$                                                 *021 LM00024
                  VECTOR VALUES D = $(DUMP)$                                                      *022 LM00025
                  VECTOR VALUES T = $(TAPE)$                                                      *023 LM00026
                  VECTOR VALUES USERF = $USER F$                                                  *024 LM00027
                  VECTOR VALUES ILEDI = $ILE DI$                                                  *025 LM00028
                  DIMENSION HEDER2(12)                                                            *026 LM00029
                  PROGRAM COMMON HEDER2                                                           *027 LM00030
                                                                                                       LM00031
                  STATEMENT LABEL Y,Z                                                             *028 LM00006
                  DIMENSION BUFF3(432)                                                            *029 LM00007
                  BOOLEAN EOFSW,ONCE                                                              *030 LM00008
                                                                                                       LM00009
                  VECTOR VALUES MESS1 = $   FOR FILE $,0,575757575760K,0,                         *031 LM00010
                1      $, TEMPORARY MODE WILL BE USED$,                                           *031 LM00011
                2      777777777777K                                                              *031 LM00012
                  VECTOR VALUES MESS2 = $ILLEGAL DEVICE, DEVICE USED WILL BE DISK$,               *032 LM00013
                1      777777777777K                                                              *032 LM00014
                                                                                                       LM00015
                      ROUTINE TO LOAD A FILE FROM TAPE                                                 LM00016
                                                                                                       LM00017
                  ENTRY TO LDFILE.                                                                *033 LM00018
                  Y1=0                                                                            *034 LM00019
                  ATTACH.(PB,PG)                                                                  *035 LM00020
                                                                                                       LM00021
                      GENERATE UNIQUE TEMPORARY NAME-PAIR                                              LM00022
                                                                                                       LM00023
                  UNIQUE.(N1,N2)                                                                  *036 LM00024
                                                                                                       LM00025
                      PICK UP UFD ENTRY                                                                LM00026
                                                                                                       LM00027
                  THROUGH LOOP1, FOR I=3,1,I.G.7                                                  *037 LM00028
                       UFD(I) = HEADER(I)                                                         *038 LM00029
      LOOP1       CONTINUE                                                                        *039 LM00030
                  DEVICE = (UFD(3).RS.15).A.7K                                                    *040 LM00031
                                                                                                       LM00032
                      TEST DEVICE CODE                                                                 LM00033
                                                                                                       LM00034
                  WHENEVER (DEVICE.NE.1).AND.(DEVICE.NE.2)                                        *041 LM00035
                       PRNTP.(MESS2)                                                              *042 LM00036
                       DEVICE = 2                                                                 *043 LM00037
                  END OF CONDITIONAL                                                              *044 LM00038
                  MODE = 0                                                                        *045 LM00039
                  EOFSW = 0B                                                                      *046 LM00040
                  ONCE = 0B                                                                       *047 LM00041
                                                                                                       LM00042
                      CLEAR DISK UFD                                                                   LM00043
                                                                                                       LM00044
                  CLEAR.(N1,N2)                                                                   *048 LM00045
                                                                                                       LM00046
                      SET UP TAPE AND DISK (OR DRUM) FILE                                              LM00047
                                                                                                       LM00048
      NERR3       STAPE.(MZE,MZE,WC)                                                              *049 LM00049
                  OPEN.($W$,N1,N2,MODE,DEVICE,ERR1,ERCODE)                                        *050 LM00050
                  BUFFER.(N1,N2,BUFF3(432)...432,ERR2)                                            *051 LM00051
                                                                                                       LM00052
                      TRANSFER DATA                                                                    LM00053
                                                                                                       LM00054
                  WDS = 432                                                                       *052 LM00055
      READ        RDTAPE.(BUFF,WDS,MZE,EOF,EOFCT,ERR,SERR)                                        *053 LM00056
                  TRANSFER TO WRITE                                                               *054 LM00057
                                                                                                       LM00058
      EOF         WDS = EOFCT                                                                     *055 LM00059
                  EOFSW = 1B                                                                      *056 LM00060
                                                                                                       LM00061
      WRITE       WRWAIT.(N1,N2,0,BUFF(WDS)...WDS,MZE,DRAIN,ERR2)                                 *057 LM00062
                  WHENEVER .NOT. EOFSW, TRANSFER TO READ                                          *058 LM00063
                                                                                                       LM00064
                      CLOSE OUT FILE, FINISH TAPE, AND NOTE LOADING                                    LM00065
                                                                                                       LM00066
                  CLOSE.(N1,N2,NERR7)                                                             *059 LM00067
                  FTAPE.(MZE,MZE,MZE,EOF1,DRAIN,ERR3,SERR)                                        *060 LM00068
                                                                                                       LM00069
                      RENAME FILE                                                                      LM00070
                                                                                                       LM00071
      EOF1        CLEAR.(UFD(7),UFD(6))                                                           *061 LM00072
                  CHFILE.(N1,N2,MZE,UFD(7),UFD(6),NERR7)                                          *062 LM00073
                  TDYFIL.(UFD)                                                                    *063 LM00074
                  DELTAB.(UFD(7),UFD(6))                                                          *064 LM00075
                  WHENEVER Y1 .E. 1,TRANSFER TO NERR6                                             *065 LM00076
                  FUNCTION RETURN                                                                 *066 LM00077
                                                                                                       LM00078
                      ERROR IN OPEN, CHECK OVERFLOW, DRAIN OFF FILE                                    LM00079
                                                                                                       LM00080
      ERR1        PRNTER.                                                                         *067 LM00081
                  WHENEVER (ERCODE.E.15).AND.(.NOT.ONCE)                                          *068 LM00082
                       MESS1(2) = UFD(7)                                                          *069 LM00083
                       MESS1(4) = UFD(6)                                                          *070 LM00084
                       PRNTP.(MESS1)                                                              *071 LM00085
                       MAIL.(PB,PG,MESS1,1B)                                                      *072 LM00086
                       UFD(3) = UFD(3).V.2K9                                                      *073 LM00087
                       MODE = 1                                                                   *074 LM00088
                       ONCE = 1B                                                                  *075 LM00089
                       TRANSFER TO NERR3                                                          *076 LM00090
                  OTHERWISE                                                                       *077 LM00091
                       DRAINW.(MZE,MZE,WC,KILL,DRAIN,ERR,SERR)                                    *078 LM00092
                       TRANSFER TO KILL                                                           *079 LM00093
                  END OF CONDITIONAL                                                              *080 LM00094
                                                                                                       LM00095
                      ERROR IN LOADING, KILL LOAD, DRAIN REMAINDER                                     LM00096
                                                                                                       LM00097
      ERR2        RDTAPE.(DRAIN,432,MZE,NERR0,DRAIN,ERR,SERR)                                     *081 LM00098
                  TRANSFER TO ERR2                                                                *082 LM00099
      NERR0       FTAPE.(MZE,MZE,MZE,NERR7,DRAIN,ERR,SERR)                                        *083 LM00100
      NERR7       PRNTER.                                                                         *084 LM00101
      KILL        CLOSE.(N1,N2,NERR8)                                                             *085 LM00102
      NERR8       DELFIL.(N1,N2,NERR9)                                                            *086 LM00103
                                                                                                       LM00104
                      DISABLE CONTROLLING TASK                                                         LM00105
                                                                                                       LM00106
      NERR9       TABLE(CURPTR+2) = 0                                                             *087 LM00107
                  FUNCTION RETURN                                                                 *088 LM00108
                                                                                                       LM00109
      ERR         PRNTER.                                                                         *089 LM00110
                  CLOSE.(N1,N2,NERR5)                                                             *090 LM00111
      NERR5       DELFIL.(N1,N2,NERR6)                                                            *091 LM00112
      NERR6       TRANSFER TO Y                                                                   *092 LM00113
      SERR        PRNTER.                                                                         *093 LM00114
                  CLOSE.(N1,N2,NERR5)                                                             *094 LM00115
                  DELFIL.(N1,N2,NERR6)                                                            *095 LM00116
                  TRANSFER TO Z                                                                   *096 LM00117
                  ERROR IN READING ZEROES FROM DAEMON TAPE. IGNORE                                     LM00118
                   ESSENTIALLY BUT TAKE Y EXIT TO INDICATE                                             LM00119
                   POSITIONING DUE TO TPERR IS AFTER HEADER.                                           LM00120
      ERR3        Y1=1                                                                            *097 LM00121
                  TRANSFER TO EOF1                                                                *098 LM00122
                  GO RENAME FILE ETC.                                                                  LM00123
                                                                                                       LM00124
                  END OF FUNCTION                                                                 *099 LM00125
1MAD PROGRAM,TYPE NOV 1963      (ALL NUMBERS ARE OCTAL)
0TOTAL LOCATIONS   01351 TRANSFER VECTOR LENGTH  00023 PROGRAM BEGINS    00776 FIRST UNUSED COMMON/ERASABLE  67621
0 PROGRAM IS AN EXTERNAL FUNCTION.   THE FOLLOWING ARE ENTRIES
      LDFILE 00777   0
0VARIABLE STORAGE (A=ARRAY,C=COMMON,E=ERASABLE,DIGIT=MODE)
      AINDEX 67664  C1        EOF    00025   4        KILL   00032   4        NERR3  00034   4        SYSTEM 67642 AC1
      AUTHOR 67645  C1        EOFSW  00730   2        LINDEX 67644  C1        NERR5  00035   4        TABLE  77461 AC1
      BUFF1  76255 AC1        ERCODE 00731   1        LODLIM 67643 AC1        NERR6  00036   4        TABLIM 67652 AC1
      BUFF2  75374 AC1        ERR1   00026   4        LODTAB 73605 AC1        NERR7  00037   4        TFUDG  67657 AC1
      BUFF3  00725 A 1        ERR2   00027   4        LOOP1  00023   4        NERR8  00040   4        T      67661 AC1
      BUFF   77136 AC1        ERR3   00030   4        LPREAM 67651 AC1        NERR9  00041   4        TSKLTH 67637 AC1
      CURPTR 67646  C1        ERR    00031   4        LRCT   74512  C1        ONCE   00761   2        UFD    73615 AC1
      DAEMON 67641 AC1        FENCE  67656 AC1        MESS1  00745 A 1        PB     74477  C1        UNIT   67663  C1
      DEVICE 00726   1        HEADER 74513 AC1        MESS2  00755 A 1        PG     74500  C1        USERF  67655 AC1
      DND    74503  C1        HEDER2 67636 AC1        MODE   00756   1        PRIV   67653  C1        WC     74511  C1
      DRAIN  74476 AC1        HPROB  67650  C1        MZE    67660 AC1        READ   00042   4        WDS    00762   1
      D      67662 AC1        HPROG  67647  C1        N1     00757   1        REELNO 67640  C1        WRITE  00044   4
      EOF1   00024   4        ILEDI  67654 AC1        N2     00760   1        SERR   00043   4        Y1     00763   1
      EOFCT  00727   1        I      00732   1        NERR0  00033   4
0FUNCTION DICTIONARY
      ATTACH 00000   1        BUFFER 00001   1        CHFILE 00002   1        CLEAR  00003   1        CLOSE  00004   1
      DELFIL 00005   1        DELTAB 00006   1        DRAINW 00007   1        EXIT   00010   1        FTAPE  00011   1
      MAIL   00012   1        OPEN   00013   1        PRNTER 00014   1        PRNTP  00015   1        RDTAPE 00016   1
      STAPE  00017   1        TDYFIL 00020   1        UNIQUE 00021   1        WRWAIT 00022   1
0ABSOLUTE CONSTANTS
 00773 +002000000000     00772 +000000000660     00775 -266060606060     00766 +000000000002     00771 +000000000017
 00770 +000000000007     00767 +000000000003     00764 +000000000000     00765 +000000000001     00774 +233000000000
0STATEMENT DICTIONARY
 00024 TXL -301157001154       00025 TXL -301117001115       00026 TXL -301201001200       00027 TXL -301253001243
 00030 TXL -301331001327       00031 TXL -301304001303       00032 TXL -301271001265       00033 TXL -301264001254
 00034 TXL -301065001061       00035 TXL -301314001310       00036 TXL -301315001314       00037 TXL -301265001264
 00040 TXL -301275001271       00041 TXL -301302001275       00042 TXL -301114001104       00043 TXL -301316001315
 00044 TXL -301135001121
0PROGRAM
                 EXTERNAL FUNCTION (Y,Z)                                            001  LM00004
                 I'E COM                                                            002  LM00005
                 N'R                                                                003  LM00002
                 B'N SWT.                                                           004  LM00003
                 D'N TABLE(210),BUFF(432),BUFF1(432),BUFF2(432)                     005  LM00005
                 D'N HEADER(12),UFD(7),DRAIN(432),LODTAB(2000)                      006  LM00006
                 E'E (PB,HEADER(12)),(PG,HEADER(11)),(DND,HEADER(8)),               007  LM00007
                1     (WC,HEADER(2)),(LRCT,HEADER(1))                               007  LM00008
                 P'N TABLE,BUFF,BUFF1,BUFF2                                         008  LM00009
                 P'N HEADER,DRAIN,UFD,LODTAB                                        009  LM00010
                 P'N AINDEX,UNIT,D,T,MZE,TFUDG,FENCE,USERF,ILEDI,PRIV               010  LM00011
                 P'N TABLIM,LPREAM,HPROB,HPROG,CURPTR,AUTHOR,LINDEX                 011  LM00012
                 P'N LODLIM,SYSTEM,DAEMON,REELNO,TSKLTH                             012  LM00013
                 V'S FENCE = 777777777777K                                          013  LM00015
 67656     -3 77777 7 77777
                 V'S MZE = 4K11                                                     014  LM00016
 67660     -0 00000 0 00000
                 V'S TFUDG = 1800                                                   015  LM00017
 67657     +0 00000 0 03410
                 V'S TABLIM = 200                                                   016  LM00018
 67652     +0 00000 0 00310
                 V'S LODLIM = 2000                                                  017  LM00019
 67643     +0 00000 0 03720
                 V'S LPREAM = 12                                                    018  LM00020
 67651     +0 00000 0 00014
                 V'S TSKLTH = 11                                                    019  LM00021
 67637     +0 00000 0 00013
                 V'S SYSTEM = $ C0056$                                              020  LM00023
 67642     -2 02300 0 00506
                 V'S DAEMON = $ 99999$                                              021  LM00024
 67641     -2 01111 1 11111
                 V'S D = $(DUMP)$                                                   022  LM00025
 67662     -3 42464 4 44734
                 V'S T = $(TAPE)$                                                   023  LM00026
 67661     -3 46321 4 72534
                 V'S USERF = $USER F$                                               024  LM00027
 67655     -2 46225 5 16026
                 V'S ILEDI = $ILE DI$                                               025  LM00028
 67654     +3 14325 6 02431
                 DIMENSION HEDER2(12)                                               026  LM00029
                 P'N HEDER2                                                         027  LM00030
                 S'L Y,Z                                                            028  LM00006
                 D'N BUFF3(432)                                                     029  LM00007
                 B'N EOFSW,ONCE                                                     030  LM00008
                 V'S MESS1 = $   FOR FILE $,0,575757575760K,0,                      031  LM00010
                1     $, TEMPORARY MODE WILL BE USED$,                              031  LM00011
                2     777777777777K                                                 031  LM00012
 00733     -3 77777 7 77777    00734     -2 06462 2 52460    00735     +3 14343 6 02225    00736     -0 44624 2 56066
 00737     -0 65121 5 17060    00740     -3 36063 2 54447    00741     +0 00000 0 00000    00742     -1 75757 5 75760
 00743     +0 00000 0 00000    00744     -2 02631 4 32560    00745     -2 06060 2 64651
                 V'S MESS2 = $ILLEGAL DEVICE, DEVICE USED WILL BE DISK$,            032  LM00013
                1     777777777777K                                                 032  LM00014
 00746     -3 77777 7 77777    00747     +2 43162 4 26060    00750     -0 34360 2 22560    00751     -2 22524 6 06631
 00752     -2 53123 2 56064    00753     +2 32573 6 02425    00754     -0 36024 2 56531    00755     +3 14343 2 52721
                 E'O LDFILE.                                                        033  LM00018
 00776 TRA +0 02000 0 01001    00777 SXA +0 63400 2 01333    01000 TSX +0 07400 2 01333
                 Y1=0                                                               034  LM00019
 01001 CLA +0 50000 0 00764    01002 STO +0 60100 0 00763
                 ATTACH.(PB,PG)                                                     035  LM00020
 01003 TSX +0 07400 4 00000    01004 TXH +3 00000 0 74477    01005 TXH +3 00000 0 74500
                 UNIQUE.(N1,N2)                                                     036  LM00024
 01006 TSX +0 07400 4 00021    01007 TXH +3 00000 0 00757    01010 TXH +3 00000 0 00760
                 T'H LOOP1, FOR I=3,1,I.G.7                                         037  LM00028
 01011 CLA +0 50000 0 00767    01012 STO +0 60100 0 00732    01013 TRA +0 02000 0 01017    01014 CLA +0 50000 0 00732
 01015 ADD +0 40000 0 00765    01016 STO +0 60100 0 00732    01017 CLA +0 50000 0 00732    01020 SUB +0 40200 0 00770
 01021 TZE +0 10000 0 01023    01022 TPL +0 12000 0 01030
                      UFD(I) = HEADER(I)                                            038  LM00029
 01023 LXA +0 53400 1 00732    01024 LXA +0 53400 2 00732    01025 CLA +0 50000 2 74513    01026 STO +0 60100 1 73615
      LOOP1      C'E                                                                039  LM00030
 01027 TRA +0 02000 0 01014
                 DEVICE = (UFD(3).RS.15).A.7K                                       040  LM00031
 01030 CAL -0 50000 0 00771    01031 STA +0 62100 0 01033    01032 CAL -0 50000 0 73612    01033 LGR -0 76500 0 00000
 01034 ANA -0 32000 0 00770    01035 SLW +0 60200 0 00726
                 W'R (DEVICE.NE.1).AND.(DEVICE.NE.2)                                041  LM00035
 01036 CLA +0 50000 0 00726    01037 SUB +0 40200 0 00766    01040 TZE +0 10000 0 01050    01041 CLA +0 50000 0 00726
 01042 SUB +0 40200 0 00765    01043 TZE +0 10000 0 01050
                      PRNTP.(MESS2)                                                 042  LM00036
 01044 TSX +0 07400 4 00015    01045 TXH +3 00000 0 00755
                      DEVICE = 2                                                    043  LM00037
 01046 CLA +0 50000 0 00766    01047 STO +0 60100 0 00726
                 E'L                                                                044  LM00038
                 MODE = 0                                                           045  LM00039
 01050 CLA +0 50000 0 00764    01051 STO +0 60100 0 00756
                 EOFSW = 0B                                                         046  LM00040
 01052 CLA +0 50000 0 00764    01053 STO +0 60100 0 00730
                 ONCE = 0B                                                          047  LM00041
 01054 CLA +0 50000 0 00764    01055 STO +0 60100 0 00761
                 CLEAR.(N1,N2)                                                      048  LM00045
 01056 TSX +0 07400 4 00003    01057 TXH +3 00000 0 00757    01060 TXH +3 00000 0 00760
      NERR3      STAPE.(MZE,MZE,WC)                                                 049  LM00049
 01061 TSX +0 07400 4 00017    01062 TXH +3 00000 0 67660    01063 TXH +3 00000 0 67660    01064 TXH +3 00000 0 74511
                 OPEN.($W$,N1,N2,MODE,DEVICE,ERR1,ERCODE)                           050  LM00050
 01065 TSX +0 07400 4 00013    01066 TXH +3 00000 0 00775    01067 TXH +3 00000 0 00757    01070 TXH +3 00000 0 00760
 01071 TXH +3 00000 0 00756    01072 TXH +3 00000 0 00726    01073 TXH +3 00000 0 00026    01074 TXH +3 00000 0 00731
                 BUFFER.(N1,N2,BUFF3(432)...432,ERR2)                               051  LM00051
 01075 TSX +0 07400 4 00001    01076 TXH +3 00000 0 00757    01077 TXH +3 00000 0 00760    01100 TIX +2 00772 0 00045
 01101 TXH +3 00000 0 00027
                 WDS = 432                                                          052  LM00055
 01102 CLA +0 50000 0 00772    01103 STO +0 60100 0 00762
      READ       RDTAPE.(BUFF,WDS,MZE,EOF,EOFCT,ERR,SERR)                           053  LM00056
 01104 TSX +0 07400 4 00016    01105 TXH +3 00000 0 77136    01106 TXH +3 00000 0 00762    01107 TXH +3 00000 0 67660
 01110 TXH +3 00000 0 00025    01111 TXH +3 00000 0 00727    01112 TXH +3 00000 0 00031    01113 TXH +3 00000 0 00043
                 T'O WRITE                                                          054  LM00057
 01114 TRA +0 02000 0 00044
      EOF        WDS = EOFCT                                                        055  LM00059
 01115 CLA +0 50000 0 00727    01116 STO +0 60100 0 00762
                 EOFSW = 1B                                                         056  LM00060
 01117 CLA +0 50000 0 00765    01120 STO +0 60100 0 00730
      WRITE      WRWAIT.(N1,N2,0,BUFF(WDS)...WDS,MZE,DRAIN,ERR2)                    057  LM00062
 01121 CLA +0 50000 0 00762    01122 SUB +0 40200 0 01123    01123 TXH +3 00000 0 77136    01124 STA +0 62100 0 01131
 01125 TSX +0 07400 4 00022    01126 TXH +3 00000 0 00757    01127 TXH +3 00000 0 00760    01130 TXH +3 00000 0 00764
 01131 TIX +2 00762 0 00000    01132 TXH +3 00000 0 67660    01133 TXH +3 00000 0 74476    01134 TXH +3 00000 0 00027
                 W'R .NOT. EOFSW, T'O READ                                          058  LM00063
 01135 ZET +0 52000 0 00730    01136 TRA +0 02000 0 01140    01137 TRA +0 02000 0 00042
                 CLOSE.(N1,N2,NERR7)                                                059  LM00067
 01140 TSX +0 07400 4 00004    01141 TXH +3 00000 0 00757    01142 TXH +3 00000 0 00760    01143 TXH +3 00000 0 00037
                 FTAPE.(MZE,MZE,MZE,EOF1,DRAIN,ERR3,SERR)                           060  LM00068
 01144 TSX +0 07400 4 00011    01145 TXH +3 00000 0 67660    01146 TXH +3 00000 0 67660    01147 TXH +3 00000 0 67660
 01150 TXH +3 00000 0 00024    01151 TXH +3 00000 0 74476    01152 TXH +3 00000 0 00030    01153 TXH +3 00000 0 00043
      EOF1       CLEAR.(UFD(7),UFD(6))                                              061  LM00072
 01154 TSX +0 07400 4 00003    01155 TXH +3 00000 0 73606    01156 TXH +3 00000 0 73607
                 CHFILE.(N1,N2,MZE,UFD(7),UFD(6),NERR7)                             062  LM00073
 01157 TSX +0 07400 4 00002    01160 TXH +3 00000 0 00757    01161 TXH +3 00000 0 00760    01162 TXH +3 00000 0 67660
 01163 TXH +3 00000 0 73606    01164 TXH +3 00000 0 73607    01165 TXH +3 00000 0 00037
                 TDYFIL.(UFD)                                                       063  LM00074
 01166 TSX +0 07400 4 00020    01167 TXH +3 00000 0 73615
                 DELTAB.(UFD(7),UFD(6))                                             064  LM00075
 01170 TSX +0 07400 4 00006    01171 TXH +3 00000 0 73606    01172 TXH +3 00000 0 73607
                 W'R Y1 .E. 1,T'O NERR6                                             065  LM00076
 01173 CLA +0 50000 0 00763    01174 SUB +0 40200 0 00765    01175 TNZ -0 10000 0 01177    01176 TRA +0 02000 0 00036
                 F'N                                                                066  LM00077
 01177 TRA +0 02000 0 01343
      ERR1       PRNTER.                                                            067  LM00081
 01200 TSX +0 07400 4 00014
                 W'R (ERCODE.E.15).AND.(.NOT.ONCE)                                  068  LM00082
 01201 ZET +0 52000 0 00761    01202 TRA +0 02000 0 01232    01203 CLA +0 50000 0 00731    01204 SUB +0 40200 0 00771
 01205 TNZ -0 10000 0 01232
                      MESS1(2) = UFD(7)                                             069  LM00083
 01206 CLA +0 50000 0 73606    01207 STO +0 60100 0 00743
                      MESS1(4) = UFD(6)                                             070  LM00084
 01210 CLA +0 50000 0 73607    01211 STO +0 60100 0 00741
                      PRNTP.(MESS1)                                                 071  LM00085
 01212 TSX +0 07400 4 00015    01213 TXH +3 00000 0 00745
                      MAIL.(PB,PG,MESS1,1B)                                         072  LM00086
 01214 TSX +0 07400 4 00012    01215 TXH +3 00000 0 74477    01216 TXH +3 00000 0 74500    01217 TXH +3 00000 0 00745
 01220 TXH +3 00000 0 00765
                      UFD(3) = UFD(3).V.2K9                                         073  LM00087
 01221 CAL -0 50000 0 73612    01222 ORA -0 50100 0 00773    01223 SLW +0 60200 0 73612
                      MODE = 1                                                      074  LM00088
 01224 CLA +0 50000 0 00765    01225 STO +0 60100 0 00756
                      ONCE = 1B                                                     075  LM00089
 01226 CLA +0 50000 0 00765    01227 STO +0 60100 0 00761
                      T'O NERR3                                                     076  LM00090
 01230 TRA +0 02000 0 00034
                 O'E                                                                077  LM00091
 01231 TRA +0 02000 0 01243
                      DRAINW.(MZE,MZE,WC,KILL,DRAIN,ERR,SERR)                       078  LM00092
 01232 TSX +0 07400 4 00007    01233 TXH +3 00000 0 67660    01234 TXH +3 00000 0 67660    01235 TXH +3 00000 0 74511
 01236 TXH +3 00000 0 00032    01237 TXH +3 00000 0 74476    01240 TXH +3 00000 0 00031    01241 TXH +3 00000 0 00043
                      T'O KILL                                                      079  LM00093
 01242 TRA +0 02000 0 00032
                 E'L                                                                080  LM00094
      ERR2       RDTAPE.(DRAIN,432,MZE,NERR0,DRAIN,ERR,SERR)                        081  LM00098
 01243 TSX +0 07400 4 00016    01244 TXH +3 00000 0 74476    01245 TXH +3 00000 0 00772    01246 TXH +3 00000 0 67660
 01247 TXH +3 00000 0 00033    01250 TXH +3 00000 0 74476    01251 TXH +3 00000 0 00031    01252 TXH +3 00000 0 00043
                 T'O ERR2                                                           082  LM00099
 01253 TRA +0 02000 0 00027
      NERR0      FTAPE.(MZE,MZE,MZE,NERR7,DRAIN,ERR,SERR)                           083  LM00100
 01254 TSX +0 07400 4 00011    01255 TXH +3 00000 0 67660    01256 TXH +3 00000 0 67660    01257 TXH +3 00000 0 67660
 01260 TXH +3 00000 0 00037    01261 TXH +3 00000 0 74476    01262 TXH +3 00000 0 00031    01263 TXH +3 00000 0 00043
      NERR7      PRNTER.                                                            084  LM00101
 01264 TSX +0 07400 4 00014
      KILL       CLOSE.(N1,N2,NERR8)                                                085  LM00102
 01265 TSX +0 07400 4 00004    01266 TXH +3 00000 0 00757    01267 TXH +3 00000 0 00760    01270 TXH +3 00000 0 00040
      NERR8      DELFIL.(N1,N2,NERR9)                                               086  LM00103
 01271 TSX +0 07400 4 00005    01272 TXH +3 00000 0 00757    01273 TXH +3 00000 0 00760    01274 TXH +3 00000 0 00041
      NERR9      TABLE(CURPTR+2) = 0                                                087  LM00107
 01275 CLA +0 50000 0 67646    01276 ADD +0 40000 0 00766    01277 PAX +0 73400 1 00000    01300 CLA +0 50000 0 00764
 01301 STO +0 60100 1 77461
                 F'N                                                                088  LM00108
 01302 TRA +0 02000 0 01343
      ERR        PRNTER.                                                            089  LM00110
 01303 TSX +0 07400 4 00014
                 CLOSE.(N1,N2,NERR5)                                                090  LM00111
 01304 TSX +0 07400 4 00004    01305 TXH +3 00000 0 00757    01306 TXH +3 00000 0 00760    01307 TXH +3 00000 0 00035
      NERR5      DELFIL.(N1,N2,NERR6)                                               091  LM00112
 01310 TSX +0 07400 4 00005    01311 TXH +3 00000 0 00757    01312 TXH +3 00000 0 00760    01313 TXH +3 00000 0 00036
      NERR6      T'O Y                                                              092  LM00113
 01314 TRA +0 02000 0 00000
      SERR       PRNTER.                                                            093  LM00114
 01315 TSX +0 07400 4 00014
                 CLOSE.(N1,N2,NERR5)                                                094  LM00115
 01316 TSX +0 07400 4 00004    01317 TXH +3 00000 0 00757    01320 TXH +3 00000 0 00760    01321 TXH +3 00000 0 00035
                 DELFIL.(N1,N2,NERR6)                                               095  LM00116
 01322 TSX +0 07400 4 00005    01323 TXH +3 00000 0 00757    01324 TXH +3 00000 0 00760    01325 TXH +3 00000 0 00036
                 T'O Z                                                              096  LM00117
 01326 TRA +0 02000 0 00000
      ERR3       Y1=1                                                               097  LM00121
 01327 CLA +0 50000 0 00765    01330 STO +0 60100 0 00763
                 T'O EOF1                                                           098  LM00122
 01331 TRA +0 02000 0 00024
                 E'N                                                                099  LM00125
 01332 TSX +0 07400 4 00010    01333 TXH +3 00000 0 00000    01334 SXD -0 63400 1 01333    01335 SXA +0 63400 4 01343
 01336 CLA +0 50000 4 00001    01337 STA +0 62100 0 01314    01340 CLA +0 50000 4 00002    01341 STA +0 62100 0 01326
 01342 TRA +0 02000 2 00001    01343 AXT +0 77400 4 00000    01344 LXA +0 53400 2 01333    01345 LXD -0 53400 1 01333
 01346 TRA +0 02000 4 00001


TDYFIL   BCD 05/28/67 2015.5    4026         00000
1     MAD PROGRAM LISTING ... ... ...                 FILE  TDYFIL   MAD            05/28/67    1922.9
-
                      ROUTINE TO TIDY UP UFD ENTRIES FOR A FILE                                        LM00001
                           D.R. WIDRIG  DEC. 1965                                                      LM00002
                                                                                                       LM00003
                  EXTERNAL FUNCTION (V,W)                                                         *001 LM00004
                  INSERT FILE COM                                                                 *002 LM00005
                                                                                                  *002 LM00001
                  NORMAL MODE IS INTEGER                                                          *003 LM00002
                  BOOLEAN SWT.                                                                    *004 LM00003
                                                                                                       LM00004
                  DIMENSION TABLE(210),BUFF(432),BUFF1(432),BUFF2(432)                            *005 LM00005
                  DIMENSION HEADER(12),UFD(7),DRAIN(432),LODTAB(2000)                             *006 LM00006
                  EQUIVALENCE (PB,HEADER(12)),(PG,HEADER(11)),(DND,HEADER(8)),                    *007 LM00007
                1      (WC,HEADER(2)),(LRCT,HEADER(1))                                            *007 LM00008
                  PROGRAM COMMON TABLE,BUFF,BUFF1,BUFF2                                           *008 LM00009
                  PROGRAM COMMON HEADER,DRAIN,UFD,LODTAB                                          *009 LM00010
                  PROGRAM COMMON AINDEX,UNIT,D,T,MZE,TFUDG,FENCE,USERF,ILEDI,PRIV                 *010 LM00011
                  PROGRAM COMMON TABLIM,LPREAM,HPROB,HPROG,CURPTR,AUTHOR,LINDEX                   *011 LM00012
                  PROGRAM COMMON LODLIM,SYSTEM,DAEMON,REELNO,TSKLTH                               *012 LM00013
                                                                                                       LM00014
                  VECTOR VALUES FENCE = 777777777777K                                             *013 LM00015
                  VECTOR VALUES MZE = 4K11                                                        *014 LM00016
                  VECTOR VALUES TFUDG = 1800                                                      *015 LM00017
                  VECTOR VALUES TABLIM = 200                                                      *016 LM00018
                  VECTOR VALUES LODLIM = 2000                                                     *017 LM00019
                  VECTOR VALUES LPREAM = 12                                                       *018 LM00020
                  VECTOR VALUES TSKLTH = 11                                                       *019 LM00021
                                                                                                       LM00022
                  VECTOR VALUES SYSTEM = $ C0056$                                                 *020 LM00023
                  VECTOR VALUES DAEMON = $ 99999$                                                 *021 LM00024
                  VECTOR VALUES D = $(DUMP)$                                                      *022 LM00025
                  VECTOR VALUES T = $(TAPE)$                                                      *023 LM00026
                  VECTOR VALUES USERF = $USER F$                                                  *024 LM00027
                  VECTOR VALUES ILEDI = $ILE DI$                                                  *025 LM00028
                  DIMENSION HEDER2(12)                                                            *026 LM00029
                  PROGRAM COMMON HEDER2                                                           *027 LM00030
                                                                                                       LM00031
                                                                                                  *002 LM00006
                  VECTOR VALUES MESS1 = $LOADED$,0,575757575760K,0,575757575760K,0,               *028 LM00007
                1      575757575760K,0,777777777777K                                              *028 LM00008
                                                                                                       LM00009
                      SET DATE, MODES, ETC.                                                            LM00010
                                                                                                       LM00011
                  ENTRY TO TDYFIL.                                                                *029 LM00012
                                                                                                       LM00013
                      ANNOUNCE LOADING AND LEAVE NOTE TO USER                                          LM00014
                                                                                                       LM00015
                  MESS1(1) = PB                                                                   *030 LM00016
                  MESS1(3) = PG                                                                   *031 LM00017
                  MESS1(5) = V(7)                                                                 *032 LM00018
                  MESS1(7) = V(6)                                                                 *033 LM00019
                  PRNTP.(MESS1)                                                                   *034 LM00020
                  MAIL.(PB,PG,MESS1,1B)                                                           *035 LM00021
                                                                                                       LM00022
                      TO FORE-STALL DATE-REMOVAL OF RETRIEVED FILE,                                    LM00023
                      LEAVE DATE-LAST-USED AS CURRENT DATE                                             LM00024
                                                                                                       LM00025
                  FSTATE.(V(7),V(6),DRAIN(8)...8)                                                 *036 LM00026
                  DLM=DRAIN(2)                                                                    *037 LM00027
                  DLU = (V(4) .A. 777777K) .V. (DATECV.(DATE.(0),NERR0))                          *038 LM00028
      NERR0       CHFILE.(V(7),V(6),V(3).RS.28,MZE,MZE,ERR)                                       *039 LM00029
                  SETFIL.(V(7),V(6),DLM,DLU,MZE,MZE,ERR)                                          *040 LM00030
                  FUNCTION RETURN                                                                 *041 LM00031
                                                                                                       LM00032
                      CLEAR UFD OF ENTRY FOR FILE 'V W'                                                LM00033
                                                                                                       LM00034
                  ENTRY TO CLEAR.                                                                 *042 LM00035
                  N1 = V                                                                          *043 LM00036
                  N2 = W                                                                          *044 LM00037
                  UNLINK.(N1,N2,NERR1)                                                            *045 LM00038
      NERR1       CHFILE.(N1,N2,001K,MZE,MZE,NERR2)                                               *046 LM00039
      NERR2       DELFIL.(N1,N2,NERR3)                                                            *047 LM00040
      NERR3       FUNCTION RETURN                                                                 *048 LM00041
                                                                                                       LM00042
      ERR         PRNTER.                                                                         *049 LM00043
                  FUNCTION RETURN                                                                 *050 LM00044
                                                                                                       LM00045
                  END OF FUNCTION                                                                 *051 LM00046
1MAD PROGRAM,TYPE NOV 1963      (ALL NUMBERS ARE OCTAL)
0TOTAL LOCATIONS   00226 TRANSFER VECTOR LENGTH  00013 PROGRAM BEGINS    00044 FIRST UNUSED COMMON/ERASABLE  67621
0 PROGRAM IS AN EXTERNAL FUNCTION.   THE FOLLOWING ARE ENTRIES
      CLEAR  00135   0        TDYFIL 00045   0
0VARIABLE STORAGE (A=ARRAY,C=COMMON,E=ERASABLE,DIGIT=MODE)
      AINDEX 67664  C1        DRAIN  74476 AC1        LINDEX 67644  C1        NERR0  00015   4        TABLE  77461 AC1
      AUTHOR 67645  C1        D      67662 AC1        LODLIM 67643 AC1        NERR1  00016   4        TABLIM 67652 AC1
      BUFF1  76255 AC1        ERR    00014   4        LODTAB 73605 AC1        NERR2  00017   4        TFUDG  67657 AC1
      BUFF2  75374 AC1        FENCE  67656 AC1        LPREAM 67651 AC1        NERR3  00020   4        T      67661 AC1
      BUFF   77136 AC1        HEADER 74513 AC1        LRCT   74512  C1        PB     74477  C1        TSKLTH 67637 AC1
      CURPTR 67646  C1        HEDER2 67636 AC1        MESS1  00033 A 1        PG     74500  C1        UFD    73615 AC1
      DAEMON 67641 AC1        HPROB  67650  C1        MZE    67660 AC1        PRIV   67653  C1        UNIT   67663  C1
      DLM    00021   1        HPROG  67647  C1        N1     00034   1        REELNO 67640  C1        USERF  67655 AC1
      DLU    00022   1        ILEDI  67654 AC1        N2     00035   1        SYSTEM 67642 AC1        WC     74511  C1
      DND    74503  C1
0FUNCTION DICTIONARY
      CHFILE 00000   1        DATECV 00001   1        DATE   00002   1        DELFIL 00003   1        EXIT   00004   1
      FSTATE 00005   1        MAIL   00006   1        PRNTER 00007   1        PRNTP  00010   1        SETFIL 00011   1
      UNLINK 00012   1
0ABSOLUTE CONSTANTS
 00041 +000000000034     00042 +000000777777     00036 +000000000000     00040 +000000000010     00037 +000000000001
 00043 +233000000000
0STATEMENT DICTIONARY
 00014 TXL -300164000163       00015 TXL -300123000107       00016 TXL -300156000147       00017 TXL -300162000156
 00020 TXL -300163000162
0PROGRAM
                 EXTERNAL FUNCTION (V,W)                                            001  LM00004
                 I'E COM                                                            002  LM00005
                 N'R                                                                003  LM00002
                 B'N SWT.                                                           004  LM00003
                 D'N TABLE(210),BUFF(432),BUFF1(432),BUFF2(432)                     005  LM00005
                 D'N HEADER(12),UFD(7),DRAIN(432),LODTAB(2000)                      006  LM00006
                 E'E (PB,HEADER(12)),(PG,HEADER(11)),(DND,HEADER(8)),               007  LM00007
                1     (WC,HEADER(2)),(LRCT,HEADER(1))                               007  LM00008
                 P'N TABLE,BUFF,BUFF1,BUFF2                                         008  LM00009
                 P'N HEADER,DRAIN,UFD,LODTAB                                        009  LM00010
                 P'N AINDEX,UNIT,D,T,MZE,TFUDG,FENCE,USERF,ILEDI,PRIV               010  LM00011
                 P'N TABLIM,LPREAM,HPROB,HPROG,CURPTR,AUTHOR,LINDEX                 011  LM00012
                 P'N LODLIM,SYSTEM,DAEMON,REELNO,TSKLTH                             012  LM00013
                 V'S FENCE = 777777777777K                                          013  LM00015
 67656     -3 77777 7 77777
                 V'S MZE = 4K11                                                     014  LM00016
 67660     -0 00000 0 00000
                 V'S TFUDG = 1800                                                   015  LM00017
 67657     +0 00000 0 03410
                 V'S TABLIM = 200                                                   016  LM00018
 67652     +0 00000 0 00310
                 V'S LODLIM = 2000                                                  017  LM00019
 67643     +0 00000 0 03720
                 V'S LPREAM = 12                                                    018  LM00020
 67651     +0 00000 0 00014
                 V'S TSKLTH = 11                                                    019  LM00021
 67637     +0 00000 0 00013
                 V'S SYSTEM = $ C0056$                                              020  LM00023
 67642     -2 02300 0 00506
                 V'S DAEMON = $ 99999$                                              021  LM00024
 67641     -2 01111 1 11111
                 V'S D = $(DUMP)$                                                   022  LM00025
 67662     -3 42464 4 44734
                 V'S T = $(TAPE)$                                                   023  LM00026
 67661     -3 46321 4 72534
                 V'S USERF = $USER F$                                               024  LM00027
 67655     -2 46225 5 16026
                 V'S ILEDI = $ILE DI$                                               025  LM00028
 67654     +3 14325 6 02431
                 DIMENSION HEDER2(12)                                               026  LM00029
                 P'N HEDER2                                                         027  LM00030
                 V'S MESS1 = $LOADED$,0,575757575760K,0,575757575760K,0,            028  LM00007
                1     575757575760K,0,777777777777K                                 028  LM00008
 00023     -3 77777 7 77777    00024     +0 00000 0 00000    00025     -1 75757 5 75760    00026     +0 00000 0 00000
 00027     -1 75757 5 75760    00030     +0 00000 0 00000    00031     -1 75757 5 75760    00032     +0 00000 0 00000
 00033     -0 34621 2 42524
                 E'O TDYFIL.                                                        029  LM00012
 00044 TRA +0 02000 0 00047    00045 SXA +0 63400 2 00171    00046 TSX +0 07400 2 00171
                 MESS1(1) = PB                                                      030  LM00016
 00047 CLA +0 50000 0 74477    00050 STO +0 60100 0 00032
                 MESS1(3) = PG                                                      031  LM00017
 00051 CLA +0 50000 0 74500    00052 STO +0 60100 0 00030
                 MESS1(5) = V(7)                                                    032  LM00018
 00053 CLA +0 50000 0 00007    00054 STO +0 60100 0 00026
                 MESS1(7) = V(6)                                                    033  LM00019
 00055 CLA +0 50000 0 00006    00056 STO +0 60100 0 00024
                 PRNTP.(MESS1)                                                      034  LM00020
 00057 TSX +0 07400 4 00010    00060 TXH +3 00000 0 00033
                 MAIL.(PB,PG,MESS1,1B)                                              035  LM00021
 00061 TSX +0 07400 4 00006    00062 TXH +3 00000 0 74477    00063 TXH +3 00000 0 74500    00064 TXH +3 00000 0 00033
 00065 TXH +3 00000 0 00037
                 FSTATE.(V(7),V(6),DRAIN(8)...8)                                    036  LM00026
 00066 TSX +0 07400 4 00005    00067 TXH +3 00000 0 00007    00070 TXH +3 00000 0 00006    00071 TIX +2 00040 0 74466
                 DLM=DRAIN(2)                                                       037  LM00027
 00072 CLA +0 50000 0 74474    00073 STO +0 60100 0 00021
                 DLU = (V(4) .A. 777777K) .V. (DATECV.(DATE.(0),NERR0))             038  LM00028
 00074 TSX +0 07400 4 00002    00075 TXH +3 00000 0 00036    00076 STO +0 60100 0 00223    00077 TSX +0 07400 4 00001
 00100 TXH +3 00000 0 00223    00101 TXH +3 00000 0 00015    00102 STO +0 60100 0 00223    00103 CAL -0 50000 0 00004
 00104 ANA -0 32000 0 00042    00105 ORA -0 50100 0 00223    00106 SLW +0 60200 0 00022
      NERR0      CHFILE.(V(7),V(6),V(3).RS.28,MZE,MZE,ERR)                          039  LM00029
 00107 CAL -0 50000 0 00041    00110 STA +0 62100 0 00112    00111 CAL -0 50000 0 00003    00112 LGR -0 76500 0 00000
 00113 SLW +0 60200 0 00223    00114 TSX +0 07400 4 00000    00115 TXH +3 00000 0 00007    00116 TXH +3 00000 0 00006
 00117 TXH +3 00000 0 00223    00120 TXH +3 00000 0 67660    00121 TXH +3 00000 0 67660    00122 TXH +3 00000 0 00014
                 SETFIL.(V(7),V(6),DLM,DLU,MZE,MZE,ERR)                             040  LM00030
 00123 TSX +0 07400 4 00011    00124 TXH +3 00000 0 00007    00125 TXH +3 00000 0 00006    00126 TXH +3 00000 0 00021
 00127 TXH +3 00000 0 00022    00130 TXH +3 00000 0 67660    00131 TXH +3 00000 0 67660    00132 TXH +3 00000 0 00014
                 F'N                                                                041  LM00031
 00133 TRA +0 02000 0 00217
                 E'O CLEAR.                                                         042  LM00035
 00134 TRA +0 02000 0 00137    00135 SXA +0 63400 2 00171    00136 TSX +0 07400 2 00171
                 N1 = V                                                             043  LM00036
 00137 CLA +0 50000 0 00000    00140 STO +0 60100 0 00034
                 N2 = W                                                             044  LM00037
 00141 CLA +0 50000 0 00000    00142 STO +0 60100 0 00035
                 UNLINK.(N1,N2,NERR1)                                               045  LM00038
 00143 TSX +0 07400 4 00012    00144 TXH +3 00000 0 00034    00145 TXH +3 00000 0 00035    00146 TXH +3 00000 0 00016
      NERR1      CHFILE.(N1,N2,001K,MZE,MZE,NERR2)                                  046  LM00039
 00147 TSX +0 07400 4 00000    00150 TXH +3 00000 0 00034    00151 TXH +3 00000 0 00035    00152 TXH +3 00000 0 00037
 00153 TXH +3 00000 0 67660    00154 TXH +3 00000 0 67660    00155 TXH +3 00000 0 00017
      NERR2      DELFIL.(N1,N2,NERR3)                                               047  LM00040
 00156 TSX +0 07400 4 00003    00157 TXH +3 00000 0 00034    00160 TXH +3 00000 0 00035    00161 TXH +3 00000 0 00020
      NERR3      F'N                                                                048  LM00041
 00162 TRA +0 02000 0 00217
      ERR        PRNTER.                                                            049  LM00043
 00163 TSX +0 07400 4 00007
                 F'N                                                                050  LM00044
 00164 TRA +0 02000 0 00217
                 E'N                                                                051  LM00046
 00165 TSX +0 07400 4 00004    00166 PZE +0 00000 0 00003    00167 PZE +0 00000 0 00001    00170 PZE +0 00000 0 00002
 00171 TXH +3 00000 0 00000    00172 SXD -0 63400 1 00171    00173 SXA +0 63400 4 00217    00174 CLA +0 50000 4 00001
 00175 STA +0 62100 0 00137    00176 SUB +0 40200 0 00166    00177 STA +0 62100 0 00111    00200 SUB +0 40200 0 00167
 00201 STA +0 62100 0 00103    00202 SUB +0 40200 0 00170    00203 STA +0 62100 0 00055    00204 STO +0 60100 0 00070
 00205 STO +0 60100 0 00116    00206 STO +0 60100 0 00125    00207 SUB +0 40200 0 00167    00210 STA +0 62100 0 00053
 00211 STO +0 60100 0 00067    00212 STO +0 60100 0 00115    00213 STO +0 60100 0 00124    00214 CLA +0 50000 4 00002
 00215 STA +0 62100 0 00141    00216 TRA +0 02000 2 00001    00217 AXT +0 77400 4 00000    00220 LXA +0 53400 2 00171
 00221 LXD -0 53400 1 00171    00222 TRA +0 02000 4 00001


DELTAB   BCD 05/28/67 2015.5    3563         00000
1     MAD PROGRAM LISTING ... ... ...                 FILE  DELTAB   MAD            05/28/67    1923.0
-
                      DELETE PROCESSED-FILE ENTRIES                                                    LM00001
                           D.R. WIDRIG  DEC. 1965                                                      LM00002
                                                                                                       LM00003
                  EXTERNAL FUNCTION (N1,N2)                                                       *001 LM00004
                  INSERT FILE COM                                                                 *002 LM00005
                                                                                                  *002 LM00001
                  NORMAL MODE IS INTEGER                                                          *003 LM00002
                  BOOLEAN SWT.                                                                    *004 LM00003
                                                                                                       LM00004
                  DIMENSION TABLE(210),BUFF(432),BUFF1(432),BUFF2(432)                            *005 LM00005
                  DIMENSION HEADER(12),UFD(7),DRAIN(432),LODTAB(2000)                             *006 LM00006
                  EQUIVALENCE (PB,HEADER(12)),(PG,HEADER(11)),(DND,HEADER(8)),                    *007 LM00007
                1      (WC,HEADER(2)),(LRCT,HEADER(1))                                            *007 LM00008
                  PROGRAM COMMON TABLE,BUFF,BUFF1,BUFF2                                           *008 LM00009
                  PROGRAM COMMON HEADER,DRAIN,UFD,LODTAB                                          *009 LM00010
                  PROGRAM COMMON AINDEX,UNIT,D,T,MZE,TFUDG,FENCE,USERF,ILEDI,PRIV                 *010 LM00011
                  PROGRAM COMMON TABLIM,LPREAM,HPROB,HPROG,CURPTR,AUTHOR,LINDEX                   *011 LM00012
                  PROGRAM COMMON LODLIM,SYSTEM,DAEMON,REELNO,TSKLTH                               *012 LM00013
                                                                                                       LM00014
                  VECTOR VALUES FENCE = 777777777777K                                             *013 LM00015
                  VECTOR VALUES MZE = 4K11                                                        *014 LM00016
                  VECTOR VALUES TFUDG = 1800                                                      *015 LM00017
                  VECTOR VALUES TABLIM = 200                                                      *016 LM00018
                  VECTOR VALUES LODLIM = 2000                                                     *017 LM00019
                  VECTOR VALUES LPREAM = 12                                                       *018 LM00020
                  VECTOR VALUES TSKLTH = 11                                                       *019 LM00021
                                                                                                       LM00022
                  VECTOR VALUES SYSTEM = $ C0056$                                                 *020 LM00023
                  VECTOR VALUES DAEMON = $ 99999$                                                 *021 LM00024
                  VECTOR VALUES D = $(DUMP)$                                                      *022 LM00025
                  VECTOR VALUES T = $(TAPE)$                                                      *023 LM00026
                  VECTOR VALUES USERF = $USER F$                                                  *024 LM00027
                  VECTOR VALUES ILEDI = $ILE DI$                                                  *025 LM00028
                  DIMENSION HEDER2(12)                                                            *026 LM00029
                  PROGRAM COMMON HEDER2                                                           *027 LM00030
                                                                                                       LM00031
                  VECTOR VALUES MESS1 = $TABLE OVERFLOW, FORCED END$,777777777777K                *028 LM00006
                                                                                                       LM00007
                      DELETE N1,N2 FROM REQUESTS                                                       LM00008
                      NOTE THAT 'N1 N2' CAN ONLY BE DELETED IF NEITHER THE                             LM00009
                      FIRST NOR THE SECOND NAME OF THE REQUEST WAS '*'                                 LM00010
                                                                                                       LM00011
                  ENTRY TO DELTAB.                                                                *029 LM00012
                  I = CURPTR                                                                      *030 LM00013
                  TABLE(I+10) = TABLE(I+10) + 1                                                   *031 LM00014
                                                                                                       LM00015
                      ADD ITEM TO 'LOADED' TABLE IF NOT THERE                                          LM00016
                      CURRENTLY, THE FOURTH WORD IN A TABLE ENTRY IS UNUSED                            LM00017
                                                                                                       LM00018
                  THROUGH LOOP1, FOR J=0,4,J.GE.LINDEX                                            *032 LM00019
                       WHENEVER (LODTAB(J).E.I).AND.                                              *033 LM00020
                1           (LODTAB(J+1).E.N1).AND.(LODTAB(J+2).E.N2)                             *033 LM00021
                2           , FUNCTION RETURN                                                     *033 LM00022
      LOOP1       CONTINUE                                                                        *034 LM00023
                                                                                                       LM00024
                      NOT THERE, ADD ITEM                                                              LM00025
                                                                                                       LM00026
                  LODTAB(J) = I                                                                   *035 LM00027
                  LODTAB(J+1) = N1                                                                *036 LM00028
                  LODTAB(J+2) = N2                                                                *037 LM00029
                  LODTAB(J+3) = 0                                                                 *038 LM00030
                  LINDEX = LINDEX + 4                                                             *039 LM00031
                                                                                                       LM00032
                      TEST FOR TABLE OVERFLOW                                                          LM00033
                                                                                                       LM00034
                  WHENEVER (LINDEX .GE. LODLIM)                                                   *040 LM00035
                       PRNTP.(MESS1)                                                              *041 LM00036
                       MAIL.(PB,PG,MESS1,1B)                                                      *042 LM00037
                  END OF CONDITIONAL                                                              *043 LM00038
                  FUNCTION RETURN                                                                 *044 LM00039
                                                                                                       LM00040
                  END OF FUNCTION                                                                 *045 LM00041
1MAD PROGRAM,TYPE NOV 1963      (ALL NUMBERS ARE OCTAL)
0TOTAL LOCATIONS   00162 TRANSFER VECTOR LENGTH  00003 PROGRAM BEGINS    00023 FIRST UNUSED COMMON/ERASABLE  67621
0 PROGRAM IS AN EXTERNAL FUNCTION.   THE FOLLOWING ARE ENTRIES
      DELTAB 00024   0
0VARIABLE STORAGE (A=ARRAY,C=COMMON,E=ERASABLE,DIGIT=MODE)
      AINDEX 67664  C1        DRAIN  74476 AC1        I      00004   1        MESS1  00013 A 1        TABLIM 67652 AC1
      AUTHOR 67645  C1        D      67662 AC1        J      00005   1        MZE    67660 AC1        TFUDG  67657 AC1
      BUFF1  76255 AC1        FENCE  67656 AC1        LINDEX 67644  C1        PB     74477  C1        T      67661 AC1
      BUFF2  75374 AC1        HEADER 74513 AC1        LODLIM 67643 AC1        PG     74500  C1        TSKLTH 67637 AC1
      BUFF   77136 AC1        HEDER2 67636 AC1        LODTAB 73605 AC1        PRIV   67653  C1        UFD    73615 AC1
      CURPTR 67646  C1        HPROB  67650  C1        LOOP1  00003   4        REELNO 67640  C1        UNIT   67663  C1
      DAEMON 67641 AC1        HPROG  67647  C1        LPREAM 67651 AC1        SYSTEM 67642 AC1        USERF  67655 AC1
      DND    74503  C1        ILEDI  67654 AC1        LRCT   74512  C1        TABLE  77461 AC1        WC     74511  C1
0FUNCTION DICTIONARY
      EXIT   00000   1        MAIL   00001   1        PRNTP  00002   1
0ABSOLUTE CONSTANTS
 00017 +000000000003     00016 +000000000002     00020 +000000000004     00014 +000000000000     00021 +000000000012
 00015 +000000000001     00022 +233000000000
0PROGRAM
                 EXTERNAL FUNCTION (N1,N2)                                          001  LM00004
                 I'E COM                                                            002  LM00005
                 N'R                                                                003  LM00002
                 B'N SWT.                                                           004  LM00003
                 D'N TABLE(210),BUFF(432),BUFF1(432),BUFF2(432)                     005  LM00005
                 D'N HEADER(12),UFD(7),DRAIN(432),LODTAB(2000)                      006  LM00006
                 E'E (PB,HEADER(12)),(PG,HEADER(11)),(DND,HEADER(8)),               007  LM00007
                1     (WC,HEADER(2)),(LRCT,HEADER(1))                               007  LM00008
                 P'N TABLE,BUFF,BUFF1,BUFF2                                         008  LM00009
                 P'N HEADER,DRAIN,UFD,LODTAB                                        009  LM00010
                 P'N AINDEX,UNIT,D,T,MZE,TFUDG,FENCE,USERF,ILEDI,PRIV               010  LM00011
                 P'N TABLIM,LPREAM,HPROB,HPROG,CURPTR,AUTHOR,LINDEX                 011  LM00012
                 P'N LODLIM,SYSTEM,DAEMON,REELNO,TSKLTH                             012  LM00013
                 V'S FENCE = 777777777777K                                          013  LM00015
 67656     -3 77777 7 77777
                 V'S MZE = 4K11                                                     014  LM00016
 67660     -0 00000 0 00000
                 V'S TFUDG = 1800                                                   015  LM00017
 67657     +0 00000 0 03410
                 V'S TABLIM = 200                                                   016  LM00018
 67652     +0 00000 0 00310
                 V'S LODLIM = 2000                                                  017  LM00019
 67643     +0 00000 0 03720
                 V'S LPREAM = 12                                                    018  LM00020
 67651     +0 00000 0 00014
                 V'S TSKLTH = 11                                                    019  LM00021
 67637     +0 00000 0 00013
                 V'S SYSTEM = $ C0056$                                              020  LM00023
 67642     -2 02300 0 00506
                 V'S DAEMON = $ 99999$                                              021  LM00024
 67641     -2 01111 1 11111
                 V'S D = $(DUMP)$                                                   022  LM00025
 67662     -3 42464 4 44734
                 V'S T = $(TAPE)$                                                   023  LM00026
 67661     -3 46321 4 72534
                 V'S USERF = $USER F$                                               024  LM00027
 67655     -2 46225 5 16026
                 V'S ILEDI = $ILE DI$                                               025  LM00028
 67654     +3 14325 6 02431
                 DIMENSION HEDER2(12)                                               026  LM00029
                 P'N HEDER2                                                         027  LM00030
                 V'S MESS1 = $TABLE OVERFLOW, FORCED END$,777777777777K             028  LM00006
 00006     -3 77777 7 77777    00007     -0 52460 6 06060    00010     -1 12325 2 46025    00011     -0 66673 6 02646
 00012     -0 66525 5 12643    00013     -2 32122 4 32560
                 E'O DELTAB.                                                        029  LM00012
 00023 TRA +0 02000 0 00026    00024 SXA +0 63400 2 00141    00025 TSX +0 07400 2 00141
                 I = CURPTR                                                         030  LM00013
 00026 CLA +0 50000 0 67646    00027 STO +0 60100 0 00004
                 TABLE(I+10) = TABLE(I+10) + 1                                      031  LM00014
 00030 CLA +0 50000 0 00004    00031 ADD +0 40000 0 00021    00032 PAX +0 73400 1 00000    00033 CLA +0 50000 1 77461
 00034 ADD +0 40000 0 00015    00035 STO +0 60100 0 00157    00036 CLA +0 50000 0 00004    00037 ADD +0 40000 0 00021
 00040 PAX +0 73400 1 00000    00041 CLA +0 50000 0 00157    00042 STO +0 60100 1 77461
                 T'H LOOP1, FOR J=0,4,J.GE.LINDEX                                   032  LM00019
 00043 CLA +0 50000 0 00014    00044 STO +0 60100 0 00005    00045 TRA +0 02000 0 00051    00046 CLA +0 50000 0 00005
 00047 ADD +0 40000 0 00020    00050 STO +0 60100 0 00005    00051 CLA +0 50000 0 00005    00052 SUB +0 40200 0 67644
 00053 TZE +0 10000 0 00077    00054 TPL +0 12000 0 00077
                      W'R (LODTAB(J).E.I).AND.                                      033  LM00020
                1          (LODTAB(J+1).E.N1).AND.(LODTAB(J+2).E.N2)                033  LM00021
                2          , F'N                                                    033  LM00022
 00055 CLA +0 50000 0 00005    00056 ADD +0 40000 0 00016    00057 PAX +0 73400 1 00000    00060 CLA +0 50000 1 73605
 00061 SUB +0 40200 0 00000    00062 TNZ -0 10000 0 00076    00063 CLA +0 50000 0 00005    00064 ADD +0 40000 0 00015
 00065 PAX +0 73400 1 00000    00066 CLA +0 50000 1 73605    00067 SUB +0 40200 0 00000    00070 TNZ -0 10000 0 00076
 00071 LXA +0 53400 1 00005    00072 CLA +0 50000 1 73605    00073 SUB +0 40200 0 00004    00074 TNZ -0 10000 0 00076
 00075 TRA +0 02000 0 00153
      LOOP1      C'E                                                                034  LM00023
 00076 TRA +0 02000 0 00046
                 LODTAB(J) = I                                                      035  LM00027
 00077 LXA +0 53400 1 00005    00100 CLA +0 50000 0 00004    00101 STO +0 60100 1 73605
                 LODTAB(J+1) = N1                                                   036  LM00028
 00102 CLA +0 50000 0 00005    00103 ADD +0 40000 0 00015    00104 PAX +0 73400 1 00000    00105 CLA +0 50000 0 00000
 00106 STO +0 60100 1 73605
                 LODTAB(J+2) = N2                                                   037  LM00029
 00107 CLA +0 50000 0 00005    00110 ADD +0 40000 0 00016    00111 PAX +0 73400 1 00000    00112 CLA +0 50000 0 00000
 00113 STO +0 60100 1 73605
                 LODTAB(J+3) = 0                                                    038  LM00030
 00114 CLA +0 50000 0 00005    00115 ADD +0 40000 0 00017    00116 PAX +0 73400 1 00000    00117 CLA +0 50000 0 00014
 00120 STO +0 60100 1 73605
                 LINDEX = LINDEX + 4                                                039  LM00031
 00121 CLA +0 50000 0 67644    00122 ADD +0 40000 0 00020    00123 STO +0 60100 0 67644
                 W'R (LINDEX .GE. LODLIM)                                           040  LM00035
 00124 CLA +0 50000 0 67644    00125 SUB +0 40200 0 67643    00126 TZE +0 10000 0 00130    00127 TMI -0 12000 0 00137
                      PRNTP.(MESS1)                                                 041  LM00036
 00130 TSX +0 07400 4 00002    00131 TXH +3 00000 0 00013
                      MAIL.(PB,PG,MESS1,1B)                                         042  LM00037
 00132 TSX +0 07400 4 00001    00133 TXH +3 00000 0 74477    00134 TXH +3 00000 0 74500    00135 TXH +3 00000 0 00013
 00136 TXH +3 00000 0 00015
                 E'L                                                                043  LM00038
                 F'N                                                                044  LM00039
 00137 TRA +0 02000 0 00153
                 E'N                                                                045  LM00041
 00140 TSX +0 07400 4 00000    00141 TXH +3 00000 0 00000    00142 SXD -0 63400 1 00141    00143 SXA +0 63400 4 00153
 00144 CLA +0 50000 4 00001    00145 STA +0 62100 0 00067    00146 STA +0 62100 0 00105    00147 CLA +0 50000 4 00002
 00150 STA +0 62100 0 00061    00151 STA +0 62100 0 00112    00152 TRA +0 02000 2 00001    00153 AXT +0 77400 4 00000
 00154 LXA +0 53400 2 00141    00155 LXD -0 53400 1 00141    00156 TRA +0 02000 4 00001


 RECAP   BCD 05/28/67 2015.5    6448         00000
1     MAD PROGRAM LISTING ... ... ...                 FILE   RECAP   MAD            05/28/67    1923.1
-
                      ROUTINE TO CHECK FOR MISSING ENTRIES                                             LM00001
                           D.R. WIDRIG  DEC. 1965                                                      LM00002
                                                                                                       LM00003
                  EXTERNAL FUNCTION (X,Y)                                                         *001 LM00004
                  INSERT FILE  COM                                                                *002 LM00005
                                                                                                  *002 LM00001
                  NORMAL MODE IS INTEGER                                                          *003 LM00002
                  BOOLEAN SWT.                                                                    *004 LM00003
                                                                                                       LM00004
                  DIMENSION TABLE(210),BUFF(432),BUFF1(432),BUFF2(432)                            *005 LM00005
                  DIMENSION HEADER(12),UFD(7),DRAIN(432),LODTAB(2000)                             *006 LM00006
                  EQUIVALENCE (PB,HEADER(12)),(PG,HEADER(11)),(DND,HEADER(8)),                    *007 LM00007
                1      (WC,HEADER(2)),(LRCT,HEADER(1))                                            *007 LM00008
                  PROGRAM COMMON TABLE,BUFF,BUFF1,BUFF2                                           *008 LM00009
                  PROGRAM COMMON HEADER,DRAIN,UFD,LODTAB                                          *009 LM00010
                  PROGRAM COMMON AINDEX,UNIT,D,T,MZE,TFUDG,FENCE,USERF,ILEDI,PRIV                 *010 LM00011
                  PROGRAM COMMON TABLIM,LPREAM,HPROB,HPROG,CURPTR,AUTHOR,LINDEX                   *011 LM00012
                  PROGRAM COMMON LODLIM,SYSTEM,DAEMON,REELNO,TSKLTH                               *012 LM00013
                                                                                                       LM00014
                  VECTOR VALUES FENCE = 777777777777K                                             *013 LM00015
                  VECTOR VALUES MZE = 4K11                                                        *014 LM00016
                  VECTOR VALUES TFUDG = 1800                                                      *015 LM00017
                  VECTOR VALUES TABLIM = 200                                                      *016 LM00018
                  VECTOR VALUES LODLIM = 2000                                                     *017 LM00019
                  VECTOR VALUES LPREAM = 12                                                       *018 LM00020
                  VECTOR VALUES TSKLTH = 11                                                       *019 LM00021
                                                                                                       LM00022
                  VECTOR VALUES SYSTEM = $ C0056$                                                 *020 LM00023
                  VECTOR VALUES DAEMON = $ 99999$                                                 *021 LM00024
                  VECTOR VALUES D = $(DUMP)$                                                      *022 LM00025
                  VECTOR VALUES T = $(TAPE)$                                                      *023 LM00026
                  VECTOR VALUES USERF = $USER F$                                                  *024 LM00027
                  VECTOR VALUES ILEDI = $ILE DI$                                                  *025 LM00028
                  DIMENSION HEDER2(12)                                                            *026 LM00029
                  PROGRAM COMMON HEDER2                                                           *027 LM00030
                                                                                                       LM00031
                  VECTOR VALUES WITH = $ WITH $                                                   *028 LM00006
                  VECTOR VALUES FIRST = $ FIRST$                                                  *029 LM00007
                  VECTOR VALUES SECOND = $SECOND$                                                 *030 LM00008
                  VECTOR VALUES NAME = $ NAME $                                                   *031 LM00009
                                                                                                       LM00010
                  VECTOR VALUES NULLS = 575757575757K                                             *032 LM00011
                                                                                                       LM00012
                  VECTOR VALUES MESS1 = $     NO FILE$,0,0,0,0,$ FOUND IN DUMP FOR$,              *033 LM00013
                1      0,575757575760K,0,777777777777K                                            *033 LM00014
                                                                                                       LM00015
                  STATEMENT LABEL Y                                                               *034 LM00016
                  BOOLEAN X,Z                                                                     *035 LM00017
                                                                                                       LM00018
                      LOOK OVER TABLE TO FIND MISSING ENTRIES                                          LM00019
                      DEPENDING ON THE SETTING OF 'X', PRINT                                           LM00020
                      MISSING ENTRIES OR RETURN QUIETLY                                                LM00021
                                                                                                       LM00022
                  ENTRY TO RECAP.                                                                 *036 LM00023
                  Z = 0B                                                                          *037 LM00024
                  THROUGH LOOP1, FOR I = 0,TSKLTH,(I .GE. AINDEX)                                 *038 LM00025
                       INDEX = 0                                                                  *039 LM00026
                                                                                                       LM00027
                      MANUFACTURE DUMMY ENTRIES FOR TESTING                                            LM00028
                                                                                                       LM00029
                       BUFF(7) = TABLE(I+4)                                                       *040 LM00030
                       BUFF(6) = TABLE(I+5)                                                       *041 LM00031
                       BUFF(4) = 0                                                                *042 LM00032
                       BUFF(3) = 0                                                                *043 LM00033
                       PB = TABLE(I)                                                              *044 LM00034
                       PG = TABLE(I+1)                                                            *045 LM00035
                  WHENEVER(X .AND.(TABLE(I+8) .E. FENCE)), TABLE(I+8)=0                           *046 LM00036
                       DND = TABLE(I+6).V.TABLE(I+7)                                              *047 LM00037
                       DECIDE.(BUFF,YES,LOOP1,0B)                                                 *048 LM00038
                                                                                                       LM00039
      YES              WHENEVER .NOT. X , FUNCTION RETURN                                         *049 LM00040
                       Z = 1B                                                                     *050 LM00041
                                                                                                       LM00042
                      ENTRY WAS NOT FOUND, NOTE THIS                                                   LM00043
                                                                                                       LM00044
                       WHENEVER TABLE(I+4) .E. FENCE, INDEX = 2                                   *051 LM00045
                       WHENEVER TABLE(I+5) .E. FENCE, INDEX = INDEX + 1                           *052 LM00046
                       MESS1(9) = TABLE(I)                                                        *053 LM00047
                       MESS1(11) = TABLE(I+1)                                                     *054 LM00048
                       TRANSFER TO ST(INDEX)                                                      *055 LM00049
                                                                                                       LM00050
                      NAME1 NAME2 NOT FOUND                                                            LM00051
                                                                                                       LM00052
      ST(0)            MESS1(2) = WITH                                                            *056 LM00053
                       MESS1(3) = NAME                                                            *057 LM00054
                       MESS1(4) = TABLE(I+4)                                                      *058 LM00055
                       MESS1(5) = TABLE(I+5)                                                      *059 LM00056
                       TRANSFER TO PRINT                                                          *060 LM00057
                                                                                                       LM00058
                      NAME1 * NOT FOUND                                                                LM00059
                                                                                                       LM00060
      ST(1)            MESS1(2) = WITH                                                            *061 LM00061
                       MESS1(3) = FIRST                                                           *062 LM00062
                       MESS1(4) = NAME                                                            *063 LM00063
                       MESS1(5) = TABLE(I+4)                                                      *064 LM00064
                       TRANSFER TO PRINT                                                          *065 LM00065
                                                                                                       LM00066
                      * NAME2 NOT FOUND                                                                LM00067
                                                                                                       LM00068
      ST(2)            MESS1(2) = WITH                                                            *066 LM00069
                       MESS1(3) = SECOND                                                          *067 LM00070
                       MESS1(4) = NAME                                                            *068 LM00071
                       MESS1(5) = TABLE(I+5)                                                      *069 LM00072
                       TRANSFER TO PRINT                                                          *070 LM00073
                                                                                                       LM00074
                      NO FILES FOUND                                                                   LM00075
                                                                                                       LM00076
      ST(3)            MESS1(2) = 625757575757K                                                   *071 LM00077
                       MESS1(3) = NULLS                                                           *072 LM00078
                       MESS1(4) = NULLS                                                           *073 LM00079
                       MESS1(5) = NULLS                                                           *074 LM00080
                                                                                                       LM00081
                      PRINT MESSAGE, LEAVE NOTE, AND CLEAR ENTRY                                       LM00082
                                                                                                       LM00083
      PRINT            PRNTP.(MESS1)                                                              *075 LM00084
                       MAIL.(TABLE(I),TABLE(I+1),MESS1,1B)                                        *076 LM00085
                       TABLE(I+2) = 0                                                             *077 LM00086
                                                                                                       LM00087
      LOOP1       CONTINUE                                                                        *078 LM00088
                                                                                                       LM00089
                  WHENEVER .NOT. (X.OR.Z)                                                         *079 LM00090
                       TRANSFER TO Y                                                              *080 LM00091
                  OTHERWISE                                                                       *081 LM00092
                       FUNCTION RETURN                                                            *082 LM00093
                  END OF CONDITIONAL                                                              *083 LM00094
                                                                                                       LM00095
                  END OF FUNCTION                                                                 *084 LM00096
1MAD PROGRAM,TYPE NOV 1963      (ALL NUMBERS ARE OCTAL)
0TOTAL LOCATIONS   00354 TRANSFER VECTOR LENGTH  00004 PROGRAM BEGINS    00053 FIRST UNUSED COMMON/ERASABLE  67621
0 PROGRAM IS AN EXTERNAL FUNCTION.   THE FOLLOWING ARE ENTRIES
      RECAP  00054   0
0VARIABLE STORAGE (A=ARRAY,C=COMMON,E=ERASABLE,DIGIT=MODE)
      AINDEX 67664  C1        FENCE  67656 AC1        LODLIM 67643 AC1        PG     74500  C1        T      67661 AC1
      AUTHOR 67645  C1        FIRST  00014 A 1        LODTAB 73605 AC1        PRINT  00006   4        TSKLTH 67637 AC1
      BUFF1  76255 AC1        HEADER 74513 AC1        LOOP1  00005   4        PRIV   67653  C1        UFD    73615 AC1
      BUFF2  75374 AC1        HEDER2 67636 AC1        LPREAM 67651 AC1        REELNO 67640  C1        UNIT   67663  C1
      BUFF   77136 AC1        HPROB  67650  C1        LRCT   74512  C1        SECOND 00036 A 1        USERF  67655 AC1
      CURPTR 67646  C1        HPROG  67647  C1        MESS1  00033 A 1        ST     00012 A 4        WC     74511  C1
      DAEMON 67641 AC1        ILEDI  67654 AC1        MZE    67660 AC1        SYSTEM 67642 AC1        WITH   00037 A 1
      DND    74503  C1        INDEX  00015   1        NAME   00034 A 1        TABLE  77461 AC1        YES    00013   4
      DRAIN  74476 AC1        I      00016   1        NULLS  00035 A 1        TABLIM 67652 AC1        Z      00040   2
      D      67662 AC1        LINDEX 67644  C1        PB     74477  C1        TFUDG  67657 AC1
0FUNCTION DICTIONARY
      DECIDE 00000   1        EXIT   00001   1        MAIL   00002   1        PRNTP  00003   1
0ABSOLUTE CONSTANTS
 00052 -225757575757     00043 +000000000002     00046 +000000000006     00047 +000000000007     00050 +000000000010
 00045 +000000000005     00044 +000000000004     00041 +000000000000     00042 +000000000001     00051 +233000000000
0STATEMENT DICTIONARY
 00005 TXL -300323000322       00006 TXL -300277000275       00007 TXL -300267000265       00010 TXL -300253000251
 00011 TXL -300237000235       00012 TXL -300220000216       00013 TXL -300161000156
0PROGRAM
                 EXTERNAL FUNCTION (X,Y)                                            001  LM00004
                 I'E  COM                                                           002  LM00005
                 N'R                                                                003  LM00002
                 B'N SWT.                                                           004  LM00003
                 D'N TABLE(210),BUFF(432),BUFF1(432),BUFF2(432)                     005  LM00005
                 D'N HEADER(12),UFD(7),DRAIN(432),LODTAB(2000)                      006  LM00006
                 E'E (PB,HEADER(12)),(PG,HEADER(11)),(DND,HEADER(8)),               007  LM00007
                1     (WC,HEADER(2)),(LRCT,HEADER(1))                               007  LM00008
                 P'N TABLE,BUFF,BUFF1,BUFF2                                         008  LM00009
                 P'N HEADER,DRAIN,UFD,LODTAB                                        009  LM00010
                 P'N AINDEX,UNIT,D,T,MZE,TFUDG,FENCE,USERF,ILEDI,PRIV               010  LM00011
                 P'N TABLIM,LPREAM,HPROB,HPROG,CURPTR,AUTHOR,LINDEX                 011  LM00012
                 P'N LODLIM,SYSTEM,DAEMON,REELNO,TSKLTH                             012  LM00013
                 V'S FENCE = 777777777777K                                          013  LM00015
 67656     -3 77777 7 77777
                 V'S MZE = 4K11                                                     014  LM00016
 67660     -0 00000 0 00000
                 V'S TFUDG = 1800                                                   015  LM00017
 67657     +0 00000 0 03410
                 V'S TABLIM = 200                                                   016  LM00018
 67652     +0 00000 0 00310
                 V'S LODLIM = 2000                                                  017  LM00019
 67643     +0 00000 0 03720
                 V'S LPREAM = 12                                                    018  LM00020
 67651     +0 00000 0 00014
                 V'S TSKLTH = 11                                                    019  LM00021
 67637     +0 00000 0 00013
                 V'S SYSTEM = $ C0056$                                              020  LM00023
 67642     -2 02300 0 00506
                 V'S DAEMON = $ 99999$                                              021  LM00024
 67641     -2 01111 1 11111
                 V'S D = $(DUMP)$                                                   022  LM00025
 67662     -3 42464 4 44734
                 V'S T = $(TAPE)$                                                   023  LM00026
 67661     -3 46321 4 72534
                 V'S USERF = $USER F$                                               024  LM00027
 67655     -2 46225 5 16026
                 V'S ILEDI = $ILE DI$                                               025  LM00028
 67654     +3 14325 6 02431
                 DIMENSION HEDER2(12)                                               026  LM00029
                 P'N HEDER2                                                         027  LM00030
                 V'S WITH = $ WITH $                                                028  LM00006
 00037     -2 06631 6 33060
                 V'S FIRST = $ FIRST$                                               029  LM00007
 00014     -2 02631 5 16263
                 V'S SECOND = $SECOND$                                              030  LM00008
 00036     -2 22523 4 64524
                 V'S NAME = $ NAME $                                                031  LM00009
 00034     -2 04521 4 42560
                 V'S NULLS = 575757575757K                                          032  LM00011
 00035     -1 75757 5 75757
                 V'S MESS1 = $     NO FILE$,0,0,0,0,$ FOUND IN DUMP FOR$,           033  LM00013
                1     0,575757575760K,0,777777777777K                               033  LM00014
 00017     -3 77777 7 77777    00020     +0 00000 0 00000    00021     -1 75757 5 75760    00022     +0 00000 0 00000
 00023     -0 44760 2 64651    00024     -2 03145 6 02464    00025     -2 02646 6 44524    00026     +0 00000 0 00000
 00027     +0 00000 0 00000    00030     +0 00000 0 00000    00031     +0 00000 0 00000    00032     -0 66026 3 14325
 00033     -2 06060 6 06045
                 S'L Y                                                              034  LM00016
                 B'N X,Z                                                            035  LM00017
                 E'O RECAP.                                                         036  LM00023
 00053 TRA +0 02000 0 00056    00054 SXA +0 63400 2 00333    00055 TSX +0 07400 2 00333
                 Z = 0B                                                             037  LM00024
 00056 CLA +0 50000 0 00041    00057 STO +0 60100 0 00040
                 T'H LOOP1, FOR I = 0,TSKLTH,(I .GE. AINDEX)                        038  LM00025
 00060 CLA +0 50000 0 00041    00061 STO +0 60100 0 00016    00062 TRA +0 02000 0 00066    00063 CLA +0 50000 0 00016
 00064 ADD +0 40000 0 67637    00065 STO +0 60100 0 00016    00066 CLA +0 50000 0 00016    00067 SUB +0 40200 0 67664
 00070 TZE +0 10000 0 00323    00071 TPL +0 12000 0 00323
                      INDEX = 0                                                     039  LM00026
 00072 CLA +0 50000 0 00041    00073 STO +0 60100 0 00015
                      BUFF(7) = TABLE(I+4)                                          040  LM00030
 00074 CLA +0 50000 0 00016    00075 ADD +0 40000 0 00044    00076 PAX +0 73400 2 00000    00077 CLA +0 50000 2 77461
 00100 STO +0 60100 0 77127
                      BUFF(6) = TABLE(I+5)                                          041  LM00031
 00101 CLA +0 50000 0 00016    00102 ADD +0 40000 0 00045    00103 PAX +0 73400 2 00000    00104 CLA +0 50000 2 77461
 00105 STO +0 60100 0 77130
                      BUFF(4) = 0                                                   042  LM00032
 00106 CLA +0 50000 0 00041    00107 STO +0 60100 0 77132
                      BUFF(3) = 0                                                   043  LM00033
 00110 CLA +0 50000 0 00041    00111 STO +0 60100 0 77133
                      PB = TABLE(I)                                                 044  LM00034
 00112 LXA +0 53400 2 00016    00113 CLA +0 50000 2 77461    00114 STO +0 60100 0 74477
                      PG = TABLE(I+1)                                               045  LM00035
 00115 CLA +0 50000 0 00016    00116 ADD +0 40000 0 00042    00117 PAX +0 73400 2 00000    00120 CLA +0 50000 2 77461
 00121 STO +0 60100 0 74500
                 W'R(X .AND.(TABLE(I+8) .E. FENCE)), TABLE(I+8)=0                   046  LM00036
 00122 CLA +0 50000 0 00016    00123 ADD +0 40000 0 00050    00124 PAX +0 73400 1 00000    00125 CLA +0 50000 1 77461
 00126 SUB +0 40200 0 67656    00127 TNZ -0 10000 0 00137    00130 NZT -0 52000 0 00000    00131 TRA +0 02000 0 00137
 00132 CLA +0 50000 0 00016    00133 ADD +0 40000 0 00050    00134 PAX +0 73400 1 00000    00135 CLA +0 50000 0 00041
 00136 STO +0 60100 1 77461
                      DND = TABLE(I+6).V.TABLE(I+7)                                 047  LM00037
 00137 CLA +0 50000 0 00016    00140 ADD +0 40000 0 00047    00141 STO +0 60100 0 00351    00142 CLA +0 50000 0 00016
 00143 ADD +0 40000 0 00046    00144 PAX +0 73400 1 00000    00145 LXA +0 53400 2 00351    00146 CAL -0 50000 1 77461
 00147 ORA -0 50100 2 77461    00150 SLW +0 60200 0 74503
                      DECIDE.(BUFF,YES,LOOP1,0B)                                    048  LM00038
 00151 TSX +0 07400 4 00000    00152 TXH +3 00000 0 77136    00153 TXH +3 00000 0 00013    00154 TXH +3 00000 0 00005
 00155 TXH +3 00000 0 00041
      YES             W'R .NOT. X , F'N                                             049  LM00040
 00156 ZET +0 52000 0 00000    00157 TRA +0 02000 0 00161    00160 TRA +0 02000 0 00345
                      Z = 1B                                                        050  LM00041
 00161 CLA +0 50000 0 00042    00162 STO +0 60100 0 00040
                      W'R TABLE(I+4) .E. FENCE, INDEX = 2                           051  LM00045
 00163 CLA +0 50000 0 00016    00164 ADD +0 40000 0 00044    00165 PAX +0 73400 1 00000    00166 CLA +0 50000 1 77461
 00167 SUB +0 40200 0 67656    00170 TNZ -0 10000 0 00173    00171 CLA +0 50000 0 00043    00172 STO +0 60100 0 00015
                      W'R TABLE(I+5) .E. FENCE, INDEX = INDEX + 1                   052  LM00046
 00173 CLA +0 50000 0 00016    00174 ADD +0 40000 0 00045    00175 PAX +0 73400 1 00000    00176 CLA +0 50000 1 77461
 00177 SUB +0 40200 0 67656    00200 TNZ -0 10000 0 00204    00201 CLA +0 50000 0 00015    00202 ADD +0 40000 0 00042
 00203 STO +0 60100 0 00015
                      MESS1(9) = TABLE(I)                                           053  LM00047
 00204 LXA +0 53400 2 00016    00205 CLA +0 50000 2 77461    00206 STO +0 60100 0 00022
                      MESS1(11) = TABLE(I+1)                                        054  LM00048
 00207 CLA +0 50000 0 00016    00210 ADD +0 40000 0 00042    00211 PAX +0 73400 2 00000    00212 CLA +0 50000 2 77461
 00213 STO +0 60100 0 00020
                      T'O ST(INDEX)                                                 055  LM00049
 00214 LXA +0 53400 2 00015    00215 TRA +0 02000 2 00012
      ST(0)           MESS1(2) = WITH                                               056  LM00053
 00216 CLA +0 50000 0 00037    00217 STO +0 60100 0 00031
                      MESS1(3) = NAME                                               057  LM00054
 00220 CLA +0 50000 0 00034    00221 STO +0 60100 0 00030
                      MESS1(4) = TABLE(I+4)                                         058  LM00055
 00222 CLA +0 50000 0 00016    00223 ADD +0 40000 0 00044    00224 PAX +0 73400 2 00000    00225 CLA +0 50000 2 77461
 00226 STO +0 60100 0 00027
                      MESS1(5) = TABLE(I+5)                                         059  LM00056
 00227 CLA +0 50000 0 00016    00230 ADD +0 40000 0 00045    00231 PAX +0 73400 2 00000    00232 CLA +0 50000 2 77461
 00233 STO +0 60100 0 00026
                      T'O PRINT                                                     060  LM00057
 00234 TRA +0 02000 0 00006
      ST(1)           MESS1(2) = WITH                                               061  LM00061
 00235 CLA +0 50000 0 00037    00236 STO +0 60100 0 00031
                      MESS1(3) = FIRST                                              062  LM00062
 00237 CLA +0 50000 0 00014    00240 STO +0 60100 0 00030
                      MESS1(4) = NAME                                               063  LM00063
 00241 CLA +0 50000 0 00034    00242 STO +0 60100 0 00027
                      MESS1(5) = TABLE(I+4)                                         064  LM00064
 00243 CLA +0 50000 0 00016    00244 ADD +0 40000 0 00044    00245 PAX +0 73400 2 00000    00246 CLA +0 50000 2 77461
 00247 STO +0 60100 0 00026
                      T'O PRINT                                                     065  LM00065
 00250 TRA +0 02000 0 00006
      ST(2)           MESS1(2) = WITH                                               066  LM00069
 00251 CLA +0 50000 0 00037    00252 STO +0 60100 0 00031
                      MESS1(3) = SECOND                                             067  LM00070
 00253 CLA +0 50000 0 00036    00254 STO +0 60100 0 00030
                      MESS1(4) = NAME                                               068  LM00071
 00255 CLA +0 50000 0 00034    00256 STO +0 60100 0 00027
                      MESS1(5) = TABLE(I+5)                                         069  LM00072
 00257 CLA +0 50000 0 00016    00260 ADD +0 40000 0 00045    00261 PAX +0 73400 2 00000    00262 CLA +0 50000 2 77461
 00263 STO +0 60100 0 00026
                      T'O PRINT                                                     070  LM00073
 00264 TRA +0 02000 0 00006
      ST(3)           MESS1(2) = 625757575757K                                      071  LM00077
 00265 CLA +0 50000 0 00052    00266 STO +0 60100 0 00031
                      MESS1(3) = NULLS                                              072  LM00078
 00267 CLA +0 50000 0 00035    00270 STO +0 60100 0 00030
                      MESS1(4) = NULLS                                              073  LM00079
 00271 CLA +0 50000 0 00035    00272 STO +0 60100 0 00027
                      MESS1(5) = NULLS                                              074  LM00080
 00273 CLA +0 50000 0 00035    00274 STO +0 60100 0 00026
      PRINT           PRNTP.(MESS1)                                                 075  LM00084
 00275 TSX +0 07400 4 00003    00276 TXH +3 00000 0 00033
                      MAIL.(TABLE(I),TABLE(I+1),MESS1,1B)                           076  LM00085
 00277 CLA +0 50000 0 00016    00300 ADD +0 40000 0 00042    00301 SUB +0 40200 0 00302    00302 TXH +3 00000 0 77461
 00303 STA +0 62100 0 00312    00304 CLA +0 50000 0 00016    00305 SUB +0 40200 0 00306    00306 TXH +3 00000 0 77461
 00307 STA +0 62100 0 00311    00310 TSX +0 07400 4 00002    00311 TXH +3 00000 0 00000    00312 TXH +3 00000 0 00000
 00313 TXH +3 00000 0 00033    00314 TXH +3 00000 0 00042
                      TABLE(I+2) = 0                                                077  LM00086
 00315 CLA +0 50000 0 00016    00316 ADD +0 40000 0 00043    00317 PAX +0 73400 1 00000    00320 CLA +0 50000 0 00041
 00321 STO +0 60100 1 77461
      LOOP1      C'E                                                                078  LM00088
 00322 TRA +0 02000 0 00063
                 W'R .NOT. (X.OR.Z)                                                 079  LM00090
 00323 ZET +0 52000 0 00040    00324 TRA +0 02000 0 00331    00325 ZET +0 52000 0 00000    00326 TRA +0 02000 0 00331
                      T'O Y                                                         080  LM00091
 00327 TRA +0 02000 0 00000
                 O'E                                                                081  LM00092
 00330 TRA +0 02000 0 00332
                      F'N                                                           082  LM00093
 00331 TRA +0 02000 0 00345
                 E'L                                                                083  LM00094
                 E'N                                                                084  LM00096
 00332 TSX +0 07400 4 00001    00333 TXH +3 00000 0 00000    00334 SXD -0 63400 1 00333    00335 SXA +0 63400 4 00345
 00336 CLA +0 50000 4 00001    00337 STA +0 62100 0 00130    00340 STA +0 62100 0 00156    00341 STA +0 62100 0 00325
 00342 CLA +0 50000 4 00002    00343 STA +0 62100 0 00327    00344 TRA +0 02000 2 00001    00345 AXT +0 77400 4 00000
 00346 LXA +0 53400 2 00333    00347 LXD -0 53400 1 00333    00350 TRA +0 02000 4 00001


TPREAD   BCD 05/28/67 2016.7   10003         00000
1     MAD PROGRAM LISTING ... ... ...                 FILE  TPREAD   MAD            05/28/67    1923.9
-
                      TAPE READING PACKAGE                                                             LM00001
                           D.R. WIDRIG  DEC. 1965                                                      LM00002
                  EXTERNAL FUNCTION (V,N,WCT,EOF1,EOFCT,ERR1,ERRS)                                *001 LM00003
                  INSERT FILE COM                                                                 *002 LM00004
                                                                                                  *002 LM00001
                  NORMAL MODE IS INTEGER                                                          *003 LM00002
                  BOOLEAN SWT.                                                                    *004 LM00003
                                                                                                       LM00004
                  DIMENSION TABLE(210),BUFF(432),BUFF1(432),BUFF2(432)                            *005 LM00005
                  DIMENSION HEADER(12),UFD(7),DRAIN(432),LODTAB(2000)                             *006 LM00006
                  EQUIVALENCE (PB,HEADER(12)),(PG,HEADER(11)),(DND,HEADER(8)),                    *007 LM00007
                1      (WC,HEADER(2)),(LRCT,HEADER(1))                                            *007 LM00008
                  PROGRAM COMMON TABLE,BUFF,BUFF1,BUFF2                                           *008 LM00009
                  PROGRAM COMMON HEADER,DRAIN,UFD,LODTAB                                          *009 LM00010
                  PROGRAM COMMON AINDEX,UNIT,D,T,MZE,TFUDG,FENCE,USERF,ILEDI,PRIV                 *010 LM00011
                  PROGRAM COMMON TABLIM,LPREAM,HPROB,HPROG,CURPTR,AUTHOR,LINDEX                   *011 LM00012
                  PROGRAM COMMON LODLIM,SYSTEM,DAEMON,REELNO,TSKLTH                               *012 LM00013
                                                                                                       LM00014
                  VECTOR VALUES FENCE = 777777777777K                                             *013 LM00015
                  VECTOR VALUES MZE = 4K11                                                        *014 LM00016
                  VECTOR VALUES TFUDG = 1800                                                      *015 LM00017
                  VECTOR VALUES TABLIM = 200                                                      *016 LM00018
                  VECTOR VALUES LODLIM = 2000                                                     *017 LM00019
                  VECTOR VALUES LPREAM = 12                                                       *018 LM00020
                  VECTOR VALUES TSKLTH = 11                                                       *019 LM00021
                                                                                                       LM00022
                  VECTOR VALUES SYSTEM = $ C0056$                                                 *020 LM00023
                  VECTOR VALUES DAEMON = $ 99999$                                                 *021 LM00024
                  VECTOR VALUES D = $(DUMP)$                                                      *022 LM00025
                  VECTOR VALUES T = $(TAPE)$                                                      *023 LM00026
                  VECTOR VALUES USERF = $USER F$                                                  *024 LM00027
                  VECTOR VALUES ILEDI = $ILE DI$                                                  *025 LM00028
                  DIMENSION HEDER2(12)                                                            *026 LM00029
                  PROGRAM COMMON HEDER2                                                           *027 LM00030
                                                                                                       LM00031
                  VECTOR VALUES UNXEOF = 6                                                        *028 LM00005
                                                                                                       LM00006
                  VECTOR VALUES DUMPTP = $DUMPTP$                                                 *029 LM00007
                  VECTOR VALUES MAP = $ 'MAP'$                                                    *030 LM00008
                                                                                                       LM00009
                  VECTOR VALUES MESS1 = $ERROR TREATED AS END OF TAPE$,777777777777K              *031 LM00010
                                                                                                       LM00011
                  STATEMENT LABEL EOF1,ERR1,ERRS                                                  *032 LM00012
                  BOOLEAN EOFSW,ENDTAP                                                            *033 LM00013
                                                                                                       LM00014
                      SET UP EOF COUNT, ETC.                                                           LM00015
                      THIS ROUTINE IS CALLED TO SETUP EVERY LOGICAL FILE                               LM00016
                      CALLING SEQUENCE IS.. STAPE.(-0,-0,WCOUNT)                                       LM00017
                                                                                                       LM00018
                  ENTRY TO STAPE.                                                                 *034 LM00019
                  DELTA = 432-LPREAM                                                              *035 LM00020
                  EOFCT1 = WCT                                                                    *036 LM00021
                  WORDS = 0                                                                       *037 LM00022
                  WORDS1 = 0                                                                      *038 LM00023
                  RCT = 0                                                                         *039 LM00024
                  EOFSW = 0B                                                                      *040 LM00025
                                                                                                       LM00026
                      CHECK FOR LAST RECORD READ ON TAPE                                               LM00027
                                                                                                       LM00028
                  WHENEVER (HEADER(7).E.DUMPTP).AND.(HEADER(6).E.MAP)                             *041 LM00029
                       ENDTAP = 1B                                                                *042 LM00030
                  OTHERWISE                                                                       *043 LM00031
                       ENDTAP = 0B                                                                *044 LM00032
                  END OF CONDITIONAL                                                              *045 LM00033
                  FUNCTION RETURN                                                                 *046 LM00034
                                                                                                       LM00035
                      DRAIN OFF UNUSED PORTION OF FILE                                                 LM00036
                      THAT IS, FINISH THIS TAPE FILE                                                   LM00037
                      CALLING SEQUENCE IS ...                                                          LM00038
                           FTAPE.(-0,-0,-0,EOFRTN,EOFCT,ERROR)                                         LM00039
                                                                                                       LM00040
                  ENTRY TO FTAPE.                                                                 *047 LM00041
                  WDS = DELTA - WORDS1                                                            *048 LM00042
                  BACK = 0                                                                        *049 LM00043
      READ(0)     RDWAIT.(D,T,0,DRAIN(WDS)...WDS,EOF1,EOFCT,TPERR)                                *050 LM00044
                  FUNCTION RETURN                                                                 *051 LM00045
                                                                                                       LM00046
                      READ DUMP TAPE RECORDS                                                           LM00047
                      CALLING SEQUENCE IS ...                                                          LM00048
                           RDTAPE.(BUFF(0),WCOUNT,-0,EOFRTN,EOFCT,ERROR)                               LM00049
                                                                                                       LM00050
                  ENTRY TO RDTAPE.                                                                *052 LM00051
                  WDS = N                                                                         *053 LM00052
                  WHENEVER (WORDS+WDS).G.EOFCT1                                                   *054 LM00053
                       EOFSW = 1B                                                                 *055 LM00054
                       WDS = EOFCT1 - WORDS                                                       *056 LM00055
                       EOFCT = WDS                                                                *057 LM00056
                  END OF CONDITIONAL                                                              *058 LM00057
                  WDS1 = WDS                                                                      *059 LM00058
                  WDS2 = 0                                                                        *060 LM00059
                  WORDS1 = WORDS1 + WDS                                                           *061 LM00060
                                                                                                       LM00061
                      CHECK FOR A NEW RECORD                                                           LM00062
                                                                                                       LM00063
                  WHENEVER (WORDS1.G.DELTA)                                                       *062 LM00064
                       WDS1 = DELTA - (WORDS1-WDS)                                                *063 LM00065
                       WDS2 = WDS - WDS1                                                          *064 LM00066
                       WORDS1 = WDS2                                                              *065 LM00067
                       DELTA = 432                                                                *066 LM00068
                       RCT = RCT+1                                                                *067 LM00069
                  END OF CONDITIONAL                                                              *068 LM00070
                                                                                                       LM00071
                      READ FIRST RECORD WORDS                                                          LM00072
                                                                                                       LM00073
                  BACK = 1                                                                        *069 LM00074
      READ(1)     RDWAIT.(D,T,0,V(WDS)...WDS1,EOF,EOFCT,TPERR)                                    *070 LM00075
                  WORDS = WORDS + WDS1                                                            *071 LM00076
                   CHECK FOR END OF DAEMON LOGICAL RECORD                                              LM00077
                  BACK = 2                                                                        *072 LM00078
                  WHENEVER RCT  .E. 4                                                             *073 LM00079
                       RCT = 0                                                                    *074 LM00080
                       DELTA = 432 - LPREAM                                                       *075 LM00081
      READ(2)          RDWAIT.(D,T,0,DRAIN(LPREAM)...LPREAM,EOF,EOFCT,TPERR)                      *076 LM00082
                  END OF CONDITIONAL                                                              *077 LM00083
                                                                                                       LM00084
                  READ REMAINDER OF WORDS                                                              LM00085
                  BACK = 3                                                                        *078 LM00086
      READ(3)     RDWAIT.(D,T,0,V(WDS-WDS1)...WDS2,EOF,EOFCT,TPERR)                               *079 LM00087
                  WORDS = WORDS + WDS2                                                            *080 LM00088
                                                                                                       LM00089
                      TEST FOR END-OF-LOGICAL FILE                                                     LM00090
                                                                                                       LM00091
                  WHENEVER EOFSW, TRANSFER TO EOF1                                                *081 LM00092
                                                                                                       LM00093
                  FUNCTION RETURN                                                                 *082 LM00094
                                                                                                       LM00095
                                                                                                       LM00096
      EOF         WHENEVER (WORDS .GE. EOFCT1) .OR. ENDTAP, TRANSFER TO EOF1                      *083 LM00097
                   OTHERWISE, FILE IS SPLIT, GET NEW TAPE MOUNTED.                                     LM00098
                  UNIT = NEWTAP.(0)                                                               *084 LM00099
                  WHENEVER UNIT .E. 0                                                             *085 LM00100
                       PRNTP.(MESS1)                                                              *086 LM00101
                       TRANSFER TO ERR1                                                           *087 LM00102
                  END OF CONDITIONAL                                                              *088 LM00103
                  RDWAIT.(D,T,0,DRAIN(LPREAM)...LPREAM,EOF1,EOFCT,TPERR)                          *089 LM00104
                  TEMP = WORDS - WCOUNT.(MZE,DRAIN(1) .RS. 18)                                    *090 LM00105
                  RDWAIT.(D,T,TEMP+LPREAM,DRAIN(0)...0)                                           *091 LM00106
                  TRANSFER TO READ(BACK)                                                          *092 LM00107
                                                                                                       LM00108
                      TPERR...TAPE ERROR. POSITION AT NEXT GOOD RECORD.                                LM00109
                                                                                                       LM00110
      TPERR       DRAIN(0) = PB                                                                   *093 LM00111
                  DRAIN(1) = PG                                                                   *094 LM00112
                  DRAIN(2) = HEADER(7)                                                            *095 LM00113
                  DRAIN(3) = HEADER(6)                                                            *096 LM00114
                  DRAIN(4) = CVTIME.(DND)                                                         *097 LM00115
                  DRAIN(5) = FENCE                                                                *098 LM00116
                  PRNTP. (DRAIN)                                                                  *099 LM00117
                  IODIAG.(DRAIN(7)...7)                                                           *100 LM00118
                  WHENEVER DRAIN(4) .E. UNXEOF                                                    *101 LM00119
                       PRNTER.                                                                    *102 LM00120
                       TRANSFER TO ERRS                                                           *103 LM00121
                  END OF CONDITIONAL                                                              *104 LM00122
                  FSTATE. (D,T,DRAIN(8)...8)                                                      *105 LM00123
                                                                                                       LM00124
                    DRAIN(4) = ADDRESS OF NEXT WORD TO READ FROM FILE.                                 LM00125
                     ADJUST RELLOC TO NEXT 432 WORD BOUNDARY.                                          LM00126
                  RELLOC = ( (DRAIN(4) + 431)/432) *432 +1                                        *106 LM00127
                                                                                                       LM00128
      TPER1       RDWAIT.(D,T,RELLOC,HEDER2(LPREAM)...LPREAM,EOF1,EOFCT,TPER2)                    *107 LM00129
                  VALID.(HEDER2(LPREAM),ERR1,TPER2)                                               *108 LM00130
                                                                                                       LM00131
                      ADD 432 TO RELLOC TO POSITION AT NEXT RECORD.                                    LM00132
                                                                                                       LM00133
      TPER2       RELLOC = RELLOC + 432                                                           *109 LM00134
                  TRANSFER TO TPER1                                                               *110 LM00135
                                                                                                       LM00136
                 * * * * * * * * * * * * * * * * * * * * * * * * * * * * * *                           LM00137
                  DRAINW.                                                                              LM00138
                    DRAIN OFF USELESS WORDS                                                            LM00139
                    DRAINW.(-0,LRCT,WCOUNT,EOFRTN,EOFCT,ERR,BADERR)                                    LM00140
                                                                                                       LM00141
                  ENTRY TO DRAINW.                                                                *111 LM00142
                                                                                                       LM00143
                   D1= NO. OF WORDS IN FILE TO SKIP, INCL. HEADERS                                     LM00144
                                                                                                       LM00145
                  D1 = DCOUNT.(WCT,N) - LPREAM                                                    *112 LM00146
                  DIMENSION STATE (8)                                                             *113 LM00147
                  FSTATE.(D,T,STATE(8)...8)                                                       *114 LM00148
                  RELLOC = STATE(4)                                                               *115 LM00149
                  RDWAIT.(D,T,RELLOC+D1-1,DRAIN(1)...1,EOF2,EOFCT2,TPERR)                         *116 LM00150
                  FUNCTION RETURN                                                                 *117 LM00151
                  .   .   .   .   .   .   .   .   .   .   .   .   .   .   .                            LM00152
                                                                                                       LM00153
                      EOF2.  HERE IF GET END-FO-FILE WHILE POSITIONING.                                LM00154
                                                                                                       LM00155
                                                                                                       LM00156
      EOF2        FSTATE.(D,T,STATE(8)...8)                                                       *118 LM00157
                  WHENEVER(STATE(4)-RELLOC) .L. D1                                                *119 LM00158
                       UNIT = NEWTAP.(0)                                                          *120 LM00159
                       WHENEVER UNIT .E. 0                                                        *121 LM00160
                            PRNTP.(MESS1)                                                         *122 LM00161
                            TRANSFER TO ERRS                                                      *123 LM00162
                       END OF CONDITIONAL                                                         *124 LM00163
                       RDWAIT.(D,T,0,DRAIN(LPREAM)...LPREAM,EOF1,EOFCT,TPERR)                     *125 LM00164
                       TEMP = WCOUNT.(MZE,DRAIN(1).RS.18)                                         *126 LM00165
                       RDWAIT.(D,T,TEMP+LPREAM,DRAIN(0)...0)                                      *127 LM00166
                  OTHERWISE                                                                       *128 LM00167
                       TRANSFER TO EOF1                                                           *129 LM00168
                  END OF CONDITIONAL                                                              *130 LM00169
                                                                                                       LM00170
                  END OF FUNCTION                                                                 *131 LM00171
       THE FOLLOWING NAMES HAVE OCCURRED ONLY ONCE IN THIS PROGRAM.
       THEY WILL ALL BE ASSIGNED TO THE SAME LOCATION, AND
       COMPILATION WILL CONTINUE.
      EOFCT2
1MAD PROGRAM,TYPE NOV 1963      (ALL NUMBERS ARE OCTAL)
0TOTAL LOCATIONS   00674 TRANSFER VECTOR LENGTH  00013 PROGRAM BEGINS    00100 FIRST UNUSED COMMON/ERASABLE  67621
0 PROGRAM IS AN EXTERNAL FUNCTION.   THE FOLLOWING ARE ENTRIES
      DRAINW 00505   0        RDTAPE 00162   0        FTAPE  00135   0        STAPE  00101   0
0VARIABLE STORAGE (A=ARRAY,C=COMMON,E=ERASABLE,DIGIT=MODE)
      AINDEX 67664  C1        DUMPTP 00030 A 1        LINDEX 67644  C1        READ   00021 A 4        T      67661 AC1
      AUTHOR 67645  C1        ENDTAP 00031   2        LODLIM 67643 AC1        REELNO 67640  C1        TSKLTH 67637 AC1
      BACK   00025   1        EOF2   00014   4        LODTAB 73605 AC1        RELLOC 00044   1        UFD    73615 AC1
      BUFF1  76255 AC1        EOFCT1 00032   1        LPREAM 67651 AC1        STATE  00055 A 1        UNIT   67663  C1
      BUFF2  75374 AC1        EOFCT2 00013   1        LRCT   74512  C1        SYSTEM 67642 AC1        UNXEOF 00057 A 1
      BUFF   77136 AC1        EOF    00015   4        MAP    00034 A 1        TABLE  77461 AC1        USERF  67655 AC1
      CURPTR 67646  C1        EOFSW  00033   2        MESS1  00042 A 1        TABLIM 67652 AC1        WC     74511  C1
      D1     00026   1        FENCE  67656 AC1        MZE    67660 AC1        TEMP   00056   1        WDS1   00060   1
      DAEMON 67641 AC1        HEADER 74513 AC1        PB     74477  C1        TFUDG  67657 AC1        WDS2   00061   1
      DELTA  00027   1        HEDER2 67636 AC1        PG     74500  C1        TPER1  00022   4        WDS    00062   1
      DND    74503  C1        HPROB  67650  C1        PRIV   67653  C1        TPER2  00023   4        WORDS1 00063   1
      DRAIN  74476 AC1        HPROG  67647  C1        RCT    00043   1        TPERR  00024   4        WORDS  00064   1
      D      67662 AC1        ILEDI  67654 AC1
0FUNCTION DICTIONARY
      CVTIME 00000   1        DCOUNT 00001   1        EXIT   00002   1        FSTATE 00003   1        IODIAG 00004   1
      NEWTAP 00005   1        PRNTER 00006   1        PRNTP  00007   1        RDWAIT 00010   1        VALID  00011   1
      WCOUNT 00012   1
0ABSOLUTE CONSTANTS
 00075 +000000000657     00073 +000000000010     00072 +000000000007     00074 +000000000022     00070 +000000000003
 00071 +000000000004     00067 +000000000002     00065 +000000000000     00076 +000000000660     00066 +000000000001
 00077 +233000000000
0STATEMENT DICTIONARY
 00014 TXL -300543000537       00015 TXL -300340000331       00016 TXL -300322000305       00017 TXL -300303000267
 00020 TXL -300252000236       00021 TXL -300160000144       00022 TXL -300470000454       00023 TXL -300503000500
 00024 TXL -300414000412
0PROGRAM
                 EXTERNAL FUNCTION (V,N,WCT,EOF1,EOFCT,ERR1,ERRS)                   001  LM00003
                 I'E COM                                                            002  LM00004
                 N'R                                                                003  LM00002
                 B'N SWT.                                                           004  LM00003
                 D'N TABLE(210),BUFF(432),BUFF1(432),BUFF2(432)                     005  LM00005
                 D'N HEADER(12),UFD(7),DRAIN(432),LODTAB(2000)                      006  LM00006
                 E'E (PB,HEADER(12)),(PG,HEADER(11)),(DND,HEADER(8)),               007  LM00007
                1     (WC,HEADER(2)),(LRCT,HEADER(1))                               007  LM00008
                 P'N TABLE,BUFF,BUFF1,BUFF2                                         008  LM00009
                 P'N HEADER,DRAIN,UFD,LODTAB                                        009  LM00010
                 P'N AINDEX,UNIT,D,T,MZE,TFUDG,FENCE,USERF,ILEDI,PRIV               010  LM00011
                 P'N TABLIM,LPREAM,HPROB,HPROG,CURPTR,AUTHOR,LINDEX                 011  LM00012
                 P'N LODLIM,SYSTEM,DAEMON,REELNO,TSKLTH                             012  LM00013
                 V'S FENCE = 777777777777K                                          013  LM00015
 67656     -3 77777 7 77777
                 V'S MZE = 4K11                                                     014  LM00016
 67660     -0 00000 0 00000
                 V'S TFUDG = 1800                                                   015  LM00017
 67657     +0 00000 0 03410
                 V'S TABLIM = 200                                                   016  LM00018
 67652     +0 00000 0 00310
                 V'S LODLIM = 2000                                                  017  LM00019
 67643     +0 00000 0 03720
                 V'S LPREAM = 12                                                    018  LM00020
 67651     +0 00000 0 00014
                 V'S TSKLTH = 11                                                    019  LM00021
 67637     +0 00000 0 00013
                 V'S SYSTEM = $ C0056$                                              020  LM00023
 67642     -2 02300 0 00506
                 V'S DAEMON = $ 99999$                                              021  LM00024
 67641     -2 01111 1 11111
                 V'S D = $(DUMP)$                                                   022  LM00025
 67662     -3 42464 4 44734
                 V'S T = $(TAPE)$                                                   023  LM00026
 67661     -3 46321 4 72534
                 V'S USERF = $USER F$                                               024  LM00027
 67655     -2 46225 5 16026
                 V'S ILEDI = $ILE DI$                                               025  LM00028
 67654     +3 14325 6 02431
                 DIMENSION HEDER2(12)                                               026  LM00029
                 P'N HEDER2                                                         027  LM00030
                 V'S UNXEOF = 6                                                     028  LM00005
 00057     +0 00000 0 00006
                 V'S DUMPTP = $DUMPTP$                                              029  LM00007
 00030     +2 46444 4 76347
                 V'S MAP = $ 'MAP'$                                                 030  LM00008
 00034     -2 01444 2 14714
                 V'S MESS1 = $ERROR TREATED AS END OF TAPE$,777777777777K           031  LM00010
 00035     -3 77777 7 77777    00036     -2 32147 2 56060    00037     -0 52460 4 62660    00040     +2 46021 6 26025
 00041     -2 35125 2 16325    00042     +2 55151 4 65160
                 S'L EOF1,ERR1,ERRS                                                 032  LM00012
                 B'N EOFSW,ENDTAP                                                   033  LM00013
                 E'O STAPE.                                                         034  LM00019
 00100 TRA +0 02000 0 00103    00101 SXA +0 63400 2 00621    00102 TSX +0 07400 2 00621
                 DELTA = 432-LPREAM                                                 035  LM00020
 00103 CLA +0 50000 0 00076    00104 SUB +0 40200 0 67651    00105 STO +0 60100 0 00027
                 EOFCT1 = WCT                                                       036  LM00021
 00106 CLA +0 50000 0 00000    00107 STO +0 60100 0 00032
                 WORDS = 0                                                          037  LM00022
 00110 CLA +0 50000 0 00065    00111 STO +0 60100 0 00064
                 WORDS1 = 0                                                         038  LM00023
 00112 CLA +0 50000 0 00065    00113 STO +0 60100 0 00063
                 RCT = 0                                                            039  LM00024
 00114 CLA +0 50000 0 00065    00115 STO +0 60100 0 00043
                 EOFSW = 0B                                                         040  LM00025
 00116 CLA +0 50000 0 00065    00117 STO +0 60100 0 00033
                 W'R (HEADER(7).E.DUMPTP).AND.(HEADER(6).E.MAP)                     041  LM00029
 00120 CLA +0 50000 0 74505    00121 SUB +0 40200 0 00034    00122 TNZ -0 10000 0 00131    00123 CLA +0 50000 0 74504
 00124 SUB +0 40200 0 00030    00125 TNZ -0 10000 0 00131
                      ENDTAP = 1B                                                   042  LM00030
 00126 CLA +0 50000 0 00066    00127 STO +0 60100 0 00031
                 O'E                                                                043  LM00031
 00130 TRA +0 02000 0 00133
                      ENDTAP = 0B                                                   044  LM00032
 00131 CLA +0 50000 0 00065    00132 STO +0 60100 0 00031
                 E'L                                                                045  LM00033
                 F'N                                                                046  LM00034
 00133 TRA +0 02000 0 00665
                 E'O FTAPE.                                                         047  LM00041
 00134 TRA +0 02000 0 00137    00135 SXA +0 63400 2 00621    00136 TSX +0 07400 2 00621
                 WDS = DELTA - WORDS1                                               048  LM00042
 00137 CLA +0 50000 0 00027    00140 SUB +0 40200 0 00063    00141 STO +0 60100 0 00062
                 BACK = 0                                                           049  LM00043
 00142 CLA +0 50000 0 00065    00143 STO +0 60100 0 00025
      READ(0)    RDWAIT.(D,T,0,DRAIN(WDS)...WDS,EOF1,EOFCT,TPERR)                   050  LM00044
 00144 CLA +0 50000 0 00062    00145 SUB +0 40200 0 00146    00146 TXH +3 00000 0 74476    00147 STA +0 62100 0 00154
 00150 TSX +0 07400 4 00010    00151 TXH +3 00000 0 67662    00152 TXH +3 00000 0 67661    00153 TXH +3 00000 0 00065
 00154 TIX +2 00062 0 00000    00155 TXH +3 00000 0 00000    00156 TXH +3 00000 0 00000    00157 TXH +3 00000 0 00024
                 F'N                                                                051  LM00045
 00160 TRA +0 02000 0 00665
                 E'O RDTAPE.                                                        052  LM00051
 00161 TRA +0 02000 0 00164    00162 SXA +0 63400 2 00621    00163 TSX +0 07400 2 00621
                 WDS = N                                                            053  LM00052
 00164 CLA +0 50000 0 00000    00165 STO +0 60100 0 00062
                 W'R (WORDS+WDS).G.EOFCT1                                           054  LM00053
 00166 CLA +0 50000 0 00064    00167 ADD +0 40000 0 00062    00170 SUB +0 40200 0 00032    00171 TZE +0 10000 0 00202
 00172 TMI -0 12000 0 00202
                      EOFSW = 1B                                                    055  LM00054
 00173 CLA +0 50000 0 00066    00174 STO +0 60100 0 00033
                      WDS = EOFCT1 - WORDS                                          056  LM00055
 00175 CLA +0 50000 0 00032    00176 SUB +0 40200 0 00064    00177 STO +0 60100 0 00062
                      EOFCT = WDS                                                   057  LM00056
 00200 CLA +0 50000 0 00062    00201 STO +0 60100 0 00000
                 E'L                                                                058  LM00057
                 WDS1 = WDS                                                         059  LM00058
 00202 CLA +0 50000 0 00062    00203 STO +0 60100 0 00060
                 WDS2 = 0                                                           060  LM00059
 00204 CLA +0 50000 0 00065    00205 STO +0 60100 0 00061
                 WORDS1 = WORDS1 + WDS                                              061  LM00060
 00206 CLA +0 50000 0 00063    00207 ADD +0 40000 0 00062    00210 STO +0 60100 0 00063
                 W'R (WORDS1.G.DELTA)                                               062  LM00064
 00211 CLA +0 50000 0 00063    00212 SUB +0 40200 0 00027    00213 TZE +0 10000 0 00234    00214 TMI -0 12000 0 00234
                      WDS1 = DELTA - (WORDS1-WDS)                                   063  LM00065
 00215 CLA +0 50000 0 00063    00216 SUB +0 40200 0 00062    00217 CHS +0 76000 0 00002    00220 ADD +0 40000 0 00027
 00221 STO +0 60100 0 00060
                      WDS2 = WDS - WDS1                                             064  LM00066
 00222 CLA +0 50000 0 00062    00223 SUB +0 40200 0 00060    00224 STO +0 60100 0 00061
                      WORDS1 = WDS2                                                 065  LM00067
 00225 CLA +0 50000 0 00061    00226 STO +0 60100 0 00063
                      DELTA = 432                                                   066  LM00068
 00227 CLA +0 50000 0 00076    00230 STO +0 60100 0 00027
                      RCT = RCT+1                                                   067  LM00069
 00231 CLA +0 50000 0 00043    00232 ADD +0 40000 0 00066    00233 STO +0 60100 0 00043
                 E'L                                                                068  LM00070
                 BACK = 1                                                           069  LM00074
 00234 CLA +0 50000 0 00066    00235 STO +0 60100 0 00025
      READ(1)    RDWAIT.(D,T,0,V(WDS)...WDS1,EOF,EOFCT,TPERR)                       070  LM00075
 00236 CLA +0 50000 0 00062    00237 SUB +0 40200 0 00240    00240 TXH +3 00000 0 00000    00241 STA +0 62100 0 00246
 00242 TSX +0 07400 4 00010    00243 TXH +3 00000 0 67662    00244 TXH +3 00000 0 67661    00245 TXH +3 00000 0 00065
 00246 TIX +2 00060 0 00000    00247 TXH +3 00000 0 00015    00250 TXH +3 00000 0 00000    00251 TXH +3 00000 0 00024
                 WORDS = WORDS + WDS1                                               071  LM00076
 00252 CLA +0 50000 0 00064    00253 ADD +0 40000 0 00060    00254 STO +0 60100 0 00064
                 BACK = 2                                                           072  LM00078
 00255 CLA +0 50000 0 00067    00256 STO +0 60100 0 00025
                 W'R RCT  .E. 4                                                     073  LM00079
 00257 CLA +0 50000 0 00043    00260 SUB +0 40200 0 00071    00261 TNZ -0 10000 0 00303
                      RCT = 0                                                       074  LM00080
 00262 CLA +0 50000 0 00065    00263 STO +0 60100 0 00043
                      DELTA = 432 - LPREAM                                          075  LM00081
 00264 CLA +0 50000 0 00076    00265 SUB +0 40200 0 67651    00266 STO +0 60100 0 00027
      READ(2)         RDWAIT.(D,T,0,DRAIN(LPREAM)...LPREAM,EOF,EOFCT,TPERR)         076  LM00082
 00267 CLA +0 50000 0 67651    00270 SUB +0 40200 0 00271    00271 TXH +3 00000 0 74476    00272 STA +0 62100 0 00277
 00273 TSX +0 07400 4 00010    00274 TXH +3 00000 0 67662    00275 TXH +3 00000 0 67661    00276 TXH +3 00000 0 00065
 00277 TIX +2 67651 0 00000    00300 TXH +3 00000 0 00015    00301 TXH +3 00000 0 00000    00302 TXH +3 00000 0 00024
                 E'L                                                                077  LM00083
                 BACK = 3                                                           078  LM00086
 00303 CLA +0 50000 0 00070    00304 STO +0 60100 0 00025
      READ(3)    RDWAIT.(D,T,0,V(WDS-WDS1)...WDS2,EOF,EOFCT,TPERR)                  079  LM00087
 00305 CLA +0 50000 0 00062    00306 SUB +0 40200 0 00060    00307 SUB +0 40200 0 00310    00310 TXH +3 00000 0 00000
 00311 STA +0 62100 0 00316    00312 TSX +0 07400 4 00010    00313 TXH +3 00000 0 67662    00314 TXH +3 00000 0 67661
 00315 TXH +3 00000 0 00065    00316 TIX +2 00061 0 00000    00317 TXH +3 00000 0 00015    00320 TXH +3 00000 0 00000
 00321 TXH +3 00000 0 00024
                 WORDS = WORDS + WDS2                                               080  LM00088
 00322 CLA +0 50000 0 00064    00323 ADD +0 40000 0 00061    00324 STO +0 60100 0 00064
                 W'R EOFSW, T'O EOF1                                                081  LM00092
 00325 NZT -0 52000 0 00033    00326 TRA +0 02000 0 00330    00327 TRA +0 02000 0 00000
                 FUNCTION RETURN                                                    082  LM00094
 00330 TRA +0 02000 0 00665
      EOF        W'R (WORDS .GE. EOFCT1) .OR. ENDTAP, T'O EOF1                      083  LM00097
 00331 ZET +0 52000 0 00031    00332 TRA +0 02000 0 00337    00333 CLA +0 50000 0 00064    00334 SUB +0 40200 0 00032
 00335 TZE +0 10000 0 00337    00336 TMI -0 12000 0 00340    00337 TRA +0 02000 0 00000
                 UNIT = NEWTAP.(0)                                                  084  LM00099
 00340 TSX +0 07400 4 00005    00341 TXH +3 00000 0 00065    00342 STO +0 60100 0 67663
                 W'R UNIT .E. 0                                                     085  LM00100
 00343 CLA +0 50000 0 67663    00344 SUB +0 40200 0 00065    00345 TNZ -0 10000 0 00351
                      PRNTP.(MESS1)                                                 086  LM00101
 00346 TSX +0 07400 4 00007    00347 TXH +3 00000 0 00042
                      T'O ERR1                                                      087  LM00102
 00350 TRA +0 02000 0 00000
                 E'L                                                                088  LM00103
                 RDWAIT.(D,T,0,DRAIN(LPREAM)...LPREAM,EOF1,EOFCT,TPERR)             089  LM00104
 00351 CLA +0 50000 0 67651    00352 SUB +0 40200 0 00353    00353 TXH +3 00000 0 74476    00354 STA +0 62100 0 00361
 00355 TSX +0 07400 4 00010    00356 TXH +3 00000 0 67662    00357 TXH +3 00000 0 67661    00360 TXH +3 00000 0 00065
 00361 TIX +2 67651 0 00000    00362 TXH +3 00000 0 00000    00363 TXH +3 00000 0 00000    00364 TXH +3 00000 0 00024
                 TEMP = WORDS - WCOUNT.(MZE,DRAIN(1) .RS. 18)                       090  LM00105
 00365 CAL -0 50000 0 00074    00366 STA +0 62100 0 00370    00367 CAL -0 50000 0 74475    00370 LGR -0 76500 0 00000
 00371 SLW +0 60200 0 00671    00372 TSX +0 07400 4 00012    00373 TXH +3 00000 0 67660    00374 TXH +3 00000 0 00671
 00375 CHS +0 76000 0 00002    00376 ADD +0 40000 0 00064    00377 STO +0 60100 0 00056
                 RDWAIT.(D,T,TEMP+LPREAM,DRAIN(0)...0)                              091  LM00106
 00400 CLA +0 50000 0 00056    00401 ADD +0 40000 0 67651    00402 STO +0 60100 0 00671    00403 TSX +0 07400 4 00010
 00404 TXH +3 00000 0 67662    00405 TXH +3 00000 0 67661    00406 TXH +3 00000 0 00671    00407 TIX +2 00065 0 74476
                 T'O READ(BACK)                                                     092  LM00107
 00410 LXA +0 53400 2 00025    00411 TRA +0 02000 2 00021
      TPERR      DRAIN(0) = PB                                                      093  LM00111
 00412 CLA +0 50000 0 74477    00413 STO +0 60100 0 74476
                 DRAIN(1) = PG                                                      094  LM00112
 00414 CLA +0 50000 0 74500    00415 STO +0 60100 0 74475
                 DRAIN(2) = HEADER(7)                                               095  LM00113
 00416 CLA +0 50000 0 74504    00417 STO +0 60100 0 74474
                 DRAIN(3) = HEADER(6)                                               096  LM00114
 00420 CLA +0 50000 0 74505    00421 STO +0 60100 0 74473
                 DRAIN(4) = CVTIME.(DND)                                            097  LM00115
 00422 TSX +0 07400 4 00000    00423 TXH +3 00000 0 74503    00424 STO +0 60100 0 74472
                 DRAIN(5) = FENCE                                                   098  LM00116
 00425 CLA +0 50000 0 67656    00426 STO +0 60100 0 74471
                 PRNTP. (DRAIN)                                                     099  LM00117
 00427 TSX +0 07400 4 00007    00430 TXH +3 00000 0 74476
                 IODIAG.(DRAIN(7)...7)                                              100  LM00118
 00431 TSX +0 07400 4 00004    00432 TIX +2 00072 0 74467
                 W'R DRAIN(4) .E. UNXEOF                                            101  LM00119
 00433 CLA +0 50000 0 74472    00434 SUB +0 40200 0 00057    00435 TNZ -0 10000 0 00440
                      PRNTER.                                                       102  LM00120
 00436 TSX +0 07400 4 00006
                      T'O ERRS                                                      103  LM00121
 00437 TRA +0 02000 0 00000
                 E'L                                                                104  LM00122
                 FSTATE. (D,T,DRAIN(8)...8)                                         105  LM00123
 00440 TSX +0 07400 4 00003    00441 TXH +3 00000 0 67662    00442 TXH +3 00000 0 67661    00443 TIX +2 00073 0 74466
                 RELLOC = ( (DRAIN(4) + 431)/432) *432 +1                           106  LM00127
 00444 CLA +0 50000 0 74472    00445 ADD +0 40000 0 00075    00446 LRS +0 76500 0 00043    00447 DVP +0 22100 0 00076
 00450 MPY +0 20000 0 00076    00451 XCA +0 13100 0 00000    00452 ADD +0 40000 0 00066    00453 STO +0 60100 0 00044
      TPER1      RDWAIT.(D,T,RELLOC,HEDER2(LPREAM)...LPREAM,EOF1,EOFCT,TPER2)       107  LM00129
 00454 CLA +0 50000 0 67651    00455 SUB +0 40200 0 00456    00456 TXH +3 00000 0 67636    00457 STA +0 62100 0 00464
 00460 TSX +0 07400 4 00010    00461 TXH +3 00000 0 67662    00462 TXH +3 00000 0 67661    00463 TXH +3 00000 0 00044
 00464 TIX +2 67651 0 00000    00465 TXH +3 00000 0 00000    00466 TXH +3 00000 0 00000    00467 TXH +3 00000 0 00023
                 VALID.(HEDER2(LPREAM),ERR1,TPER2)                                  108  LM00130
 00470 CLA +0 50000 0 67651    00471 SUB +0 40200 0 00472    00472 TXH +3 00000 0 67636    00473 STA +0 62100 0 00475
 00474 TSX +0 07400 4 00011    00475 TXH +3 00000 0 00000    00476 TXH +3 00000 0 00000    00477 TXH +3 00000 0 00023
      TPER2      RELLOC = RELLOC + 432                                              109  LM00134
 00500 CLA +0 50000 0 00044    00501 ADD +0 40000 0 00076    00502 STO +0 60100 0 00044
                 T'O TPER1                                                          110  LM00135
 00503 TRA +0 02000 0 00022
                 ENTRY TO DRAINW.                                                   111  LM00142
 00504 TRA +0 02000 0 00507    00505 SXA +0 63400 2 00621    00506 TSX +0 07400 2 00621
                 D1 = DCOUNT.(WCT,N) - LPREAM                                       112  LM00146
 00507 TSX +0 07400 4 00001    00510 TXH +3 00000 0 00000    00511 TXH +3 00000 0 00000    00512 SUB +0 40200 0 67651
 00513 STO +0 60100 0 00026
                 DIMENSION STATE (8)                                                113  LM00147
                 FSTATE.(D,T,STATE(8)...8)                                          114  LM00148
 00514 TSX +0 07400 4 00003    00515 TXH +3 00000 0 67662    00516 TXH +3 00000 0 67661    00517 TIX +2 00073 0 00045
                 RELLOC = STATE(4)                                                  115  LM00149
 00520 CLA +0 50000 0 00051    00521 STO +0 60100 0 00044
                 RDWAIT.(D,T,RELLOC+D1-1,DRAIN(1)...1,EOF2,EOFCT2,TPERR)            116  LM00150
 00522 CLA +0 50000 0 00044    00523 ADD +0 40000 0 00026    00524 SUB +0 40200 0 00066    00525 STO +0 60100 0 00671
 00526 TSX +0 07400 4 00010    00527 TXH +3 00000 0 67662    00530 TXH +3 00000 0 67661    00531 TXH +3 00000 0 00671
 00532 TIX +2 00066 0 74475    00533 TXH +3 00000 0 00014    00534 TXH +3 00000 0 00013    00535 TXH +3 00000 0 00024
                 FUNCTION RETURN                                                    117  LM00151
 00536 TRA +0 02000 0 00665
      EOF2       FSTATE.(D,T,STATE(8)...8)                                          118  LM00157
 00537 TSX +0 07400 4 00003    00540 TXH +3 00000 0 67662    00541 TXH +3 00000 0 67661    00542 TIX +2 00073 0 00045
                 W'R(STATE(4)-RELLOC) .L. D1                                        119  LM00158
 00543 CLA +0 50000 0 00051    00544 SUB +0 40200 0 00044    00545 SUB +0 40200 0 00026    00546 TZE +0 10000 0 00617
 00547 TPL +0 12000 0 00617
                      UNIT = NEWTAP.(0)                                             120  LM00159
 00550 TSX +0 07400 4 00005    00551 TXH +3 00000 0 00065    00552 STO +0 60100 0 67663
                      W'R UNIT .E. 0                                                121  LM00160
 00553 CLA +0 50000 0 67663    00554 SUB +0 40200 0 00065    00555 TNZ -0 10000 0 00561
                           PRNTP.(MESS1)                                            122  LM00161
 00556 TSX +0 07400 4 00007    00557 TXH +3 00000 0 00042
                           T'O ERRS                                                 123  LM00162
 00560 TRA +0 02000 0 00000
                      E'L                                                           124  LM00163
                      RDWAIT.(D,T,0,DRAIN(LPREAM)...LPREAM,EOF1,EOFCT,TPERR)        125  LM00164
 00561 CLA +0 50000 0 67651    00562 SUB +0 40200 0 00563    00563 TXH +3 00000 0 74476    00564 STA +0 62100 0 00571
 00565 TSX +0 07400 4 00010    00566 TXH +3 00000 0 67662    00567 TXH +3 00000 0 67661    00570 TXH +3 00000 0 00065
 00571 TIX +2 67651 0 00000    00572 TXH +3 00000 0 00000    00573 TXH +3 00000 0 00000    00574 TXH +3 00000 0 00024
                      TEMP = WCOUNT.(MZE,DRAIN(1).RS.18)                            126  LM00165
 00575 CAL -0 50000 0 00074    00576 STA +0 62100 0 00600    00577 CAL -0 50000 0 74475    00600 LGR -0 76500 0 00000
 00601 SLW +0 60200 0 00671    00602 TSX +0 07400 4 00012    00603 TXH +3 00000 0 67660    00604 TXH +3 00000 0 00671
 00605 STO +0 60100 0 00056
                      RDWAIT.(D,T,TEMP+LPREAM,DRAIN(0)...0)                         127  LM00166
 00606 CLA +0 50000 0 00056    00607 ADD +0 40000 0 67651    00610 STO +0 60100 0 00671    00611 TSX +0 07400 4 00010
 00612 TXH +3 00000 0 67662    00613 TXH +3 00000 0 67661    00614 TXH +3 00000 0 00671    00615 TIX +2 00065 0 74476
                 OTHERWISE                                                          128  LM00167
 00616 TRA +0 02000 0 00620
                      T'O EOF1                                                      129  LM00168
 00617 TRA +0 02000 0 00000
                 E'L                                                                130  LM00169
                 END OF FUNCTION                                                    131  LM00171
 00620 TSX +0 07400 4 00002    00621 TXH +3 00000 0 00000    00622 SXD -0 63400 1 00621    00623 SXA +0 63400 4 00665
 00624 CLA +0 50000 4 00001    00625 STO +0 60100 0 00240    00626 STO +0 60100 0 00310    00627 CLA +0 50000 4 00002
 00630 STA +0 62100 0 00164    00631 STO +0 60100 0 00511    00632 CLA +0 50000 4 00003    00633 STA +0 62100 0 00106
 00634 STO +0 60100 0 00510    00635 CLA +0 50000 4 00004    00636 STO +0 60100 0 00155    00637 STA +0 62100 0 00327
 00640 STA +0 62100 0 00337    00641 STO +0 60100 0 00362    00642 STO +0 60100 0 00465    00643 STO +0 60100 0 00572
 00644 STA +0 62100 0 00617    00645 CLA +0 50000 4 00005    00646 STO +0 60100 0 00156    00647 STA +0 62100 0 00201
 00650 STO +0 60100 0 00250    00651 STO +0 60100 0 00301    00652 STO +0 60100 0 00320    00653 STO +0 60100 0 00363
 00654 STO +0 60100 0 00466    00655 STO +0 60100 0 00573    00656 CLA +0 50000 4 00006    00657 STA +0 62100 0 00350
 00660 STO +0 60100 0 00476    00661 CLA +0 50000 4 00007    00662 STA +0 62100 0 00437    00663 STA +0 62100 0 00560
 00664 TRA +0 02000 2 00001    00665 AXT +0 77400 4 00000    00666 LXA +0 53400 2 00621    00667 LXD -0 53400 1 00621
 00670 TRA +0 02000 4 00001


DCOUNT   BCD 05/28/67 2016.7    1607         00000
1     MAD PROGRAM LISTING ... ... ...                 FILE  DCOUNT   MAD            05/28/67    1924.0
-
                      CALCULATION OF TOTAL WORDS FOR A FILE                                            LM00001
                           D.R. WIDRIG  DEC. 1965                                                      LM00002
                                                                                                       LM00003
                  EXTERNAL FUNCTION (WCT,LRCT)                                                    *001 LM00004
                                                                                                       LM00005
                  NORMAL MODE IS INTEGER                                                          *002 LM00006
                  VECTOR VALUES LPHYS = 1728                                                      *003 LM00007
                  VECTOR VALUES WPLR = 1716                                                       *004 LM00008
                  VECTOR VALUES LPREAM = 12                                                       *005 LM00009
                                                                                                       LM00010
                      FIGURE DRAIN COUNT                                                               LM00011
                      THE DRAIN COUNT REPRESENTS THE TOTAL WORDS                                       LM00012
                      ON THE TAPE THAT MUST BE PASSED IN ORDER TO                                      LM00013
                      SKIP ONE LOGICAL FILE                                                            LM00014
                                                                                                       LM00015
                  ENTRY TO DCOUNT.                                                                *006 LM00016
                  WHENEVER WCT .E. 0, FUNCTION RETURN 432                                         *007 LM00017
                  NFLR = WCT/WPLR                                                                 *008 LM00018
                  LEFT = WCT - NFLR*WPLR                                                          *009 LM00019
                      ...BEWARE OF NEXT STATEMENT...                                                   LM00020
                  DELTA = (LEFT/LEFT)*LPREAM                                                      *010 LM00021
                  FUNCTION RETURN (NFLR*LPHYS)+(((LEFT+DELTA+431)/432)*432)                       *011 LM00022
                1      - (LRCT-1)*LPHYS                                                           *011 LM00023
                                                                                                       LM00024
                      FIGURE WORD COUNT FROM RECORD NUMBER                                             LM00025
                      THE WORD COUNT REPRESENTS THE NUMBER OF WORDS IN                                 LM00026
                      A DISK FILE UP TO BUT NOT INCLUDING THE INDICATED                                LM00027
                      DAEMON LOGICAL RECORD                                                            LM00028
                                                                                                       LM00029
                  ENTRY TO WCOUNT.                                                                *012 LM00030
                  FUNCTION RETURN (LRCT - 1)*WPLR                                                 *013 LM00031
                                                                                                       LM00032
                  END OF FUNCTION                                                                 *014 LM00033
1MAD PROGRAM,TYPE NOV 1963      (ALL NUMBERS ARE OCTAL)
0TOTAL LOCATIONS   00125 TRANSFER VECTOR LENGTH  00001 PROGRAM BEGINS    00015
0 PROGRAM IS AN EXTERNAL FUNCTION.   THE FOLLOWING ARE ENTRIES
      WCOUNT 00071   0        DCOUNT 00016   0
0VARIABLE STORAGE (A=ARRAY,C=COMMON,E=ERASABLE,DIGIT=MODE)
      DELTA  00002   1        LPHYS  00004 A 1        LPREAM 00005 A 1        NFLR   00006   1        WPLR   00007 A 1
      LEFT   00003   1
0FUNCTION DICTIONARY
      EXIT   00000   1
0ABSOLUTE CONSTANTS
 00012 +000000000657     00013 +000000000660     00010 +000000000000     00011 +000000000001     00014 +233000000000
0PROGRAM
                 EXTERNAL FUNCTION (WCT,LRCT)                                       001  LM00004
                 N'R                                                                002  LM00006
                 V'S LPHYS = 1728                                                   003  LM00007
 00004     +0 00000 0 03300
                 V'S WPLR = 1716                                                    004  LM00008
 00007     +0 00000 0 03264
                 V'S LPREAM = 12                                                    005  LM00009
 00005     +0 00000 0 00014
                 E'O DCOUNT.                                                        006  LM00016
 00015 TRA +0 02000 0 00020    00016 SXA +0 63400 2 00102    00017 TSX +0 07400 2 00102
                 W'R WCT .E. 0, F'N 432                                             007  LM00017
 00020 CLA +0 50000 0 00024    00021 SUB +0 40200 0 00010    00022 TNZ -0 10000 0 00025    00023 CLA +0 50000 0 00013
 00024 TRA +0 02000 0 00115
                 NFLR = WCT/WPLR                                                    008  LM00018
 00025 LDQ +0 56000 0 00024    00026 PXD -0 75400 0 00000    00027 LLS +0 76300 0 00000    00030 DVP +0 22100 0 00007
 00031 STQ -0 60000 0 00006
                 LEFT = WCT - NFLR*WPLR                                             009  LM00019
 00032 LDQ +0 56000 0 00006    00033 MPY +0 20000 0 00007    00034 XCA +0 13100 0 00000    00035 CHS +0 76000 0 00002
 00036 ADD +0 40000 0 00024    00037 STO +0 60100 0 00003
                 DELTA = (LEFT/LEFT)*LPREAM                                         010  LM00021
 00040 LDQ +0 56000 0 00003    00041 PXD -0 75400 0 00000    00042 LLS +0 76300 0 00000    00043 DVP +0 22100 0 00003
 00044 MPY +0 20000 0 00005    00045 STQ -0 60000 0 00002
                 F'N (NFLR*LPHYS)+(((LEFT+DELTA+431)/432)*432)                      011  LM00022
                1     - (LRCT-1)*LPHYS                                              011  LM00023
 00046 CLA +0 50000 0 00024    00047 SUB +0 40200 0 00011    00050 XCA +0 13100 0 00000    00051 MPY +0 20000 0 00004
 00052 STQ -0 60000 0 00121    00053 CLA +0 50000 0 00003    00054 ADD +0 40000 0 00002    00055 ADD +0 40000 0 00012
 00056 LRS +0 76500 0 00043    00057 DVP +0 22100 0 00013    00060 MPY +0 20000 0 00013    00061 STQ -0 60000 0 00122
 00062 LDQ +0 56000 0 00006    00063 MPY +0 20000 0 00004    00064 XCA +0 13100 0 00000    00065 ADD +0 40000 0 00122
 00066 SUB +0 40200 0 00121    00067 TRA +0 02000 0 00115
                 E'O WCOUNT.                                                        012  LM00030
 00070 TRA +0 02000 0 00073    00071 SXA +0 63400 2 00102    00072 TSX +0 07400 2 00102
                 F'N (LRCT - 1)*WPLR                                                013  LM00031
 00073 CLA +0 50000 0 00024    00074 SUB +0 40200 0 00011    00075 XCA +0 13100 0 00000    00076 MPY +0 20000 0 00007
 00077 XCA +0 13100 0 00000    00100 TRA +0 02000 0 00115
                 E'N                                                                014  LM00033
 00101 TSX +0 07400 4 00000    00102 TXH +3 00000 0 00000    00103 SXD -0 63400 1 00102    00104 SXA +0 63400 4 00115
 00105 CLA +0 50000 4 00001    00106 STA +0 62100 0 00020    00107 STA +0 62100 0 00025    00110 STA +0 62100 0 00036
 00111 CLA +0 50000 4 00002    00112 STA +0 62100 0 00046    00113 STA +0 62100 0 00073    00114 TRA +0 02000 2 00001
 00115 AXT +0 77400 4 00000    00116 LXA +0 53400 2 00102    00117 LXD -0 53400 1 00102    00120 TRA +0 02000 4 00001


  MAIL   BCD 05/28/67 2016.7    5758         00000
1     MAD PROGRAM LISTING ... ... ...                 FILE    MAIL   MAD            05/28/67    1924.1
-
                      ROUTINE TO SEND USER MESSAGES FROM RETRIEVE COMMAND                              LM00001
                           D.R. WIDRIG  DEC. 1965                                                      LM00002
                                                                                                       LM00003
                  EXTERNAL FUNCTION (MPB,MPG,MESS,SW)                                             *001 LM00004
                  INSERT FILE COM                                                                 *002 LM00005
                                                                                                  *002 LM00001
                  NORMAL MODE IS INTEGER                                                          *003 LM00002
                  BOOLEAN SWT.                                                                    *004 LM00003
                                                                                                       LM00004
                  DIMENSION TABLE(210),BUFF(432),BUFF1(432),BUFF2(432)                            *005 LM00005
                  DIMENSION HEADER(12),UFD(7),DRAIN(432),LODTAB(2000)                             *006 LM00006
                  EQUIVALENCE (PB,HEADER(12)),(PG,HEADER(11)),(DND,HEADER(8)),                    *007 LM00007
                1      (WC,HEADER(2)),(LRCT,HEADER(1))                                            *007 LM00008
                  PROGRAM COMMON TABLE,BUFF,BUFF1,BUFF2                                           *008 LM00009
                  PROGRAM COMMON HEADER,DRAIN,UFD,LODTAB                                          *009 LM00010
                  PROGRAM COMMON AINDEX,UNIT,D,T,MZE,TFUDG,FENCE,USERF,ILEDI,PRIV                 *010 LM00011
                  PROGRAM COMMON TABLIM,LPREAM,HPROB,HPROG,CURPTR,AUTHOR,LINDEX                   *011 LM00012
                  PROGRAM COMMON LODLIM,SYSTEM,DAEMON,REELNO,TSKLTH                               *012 LM00013
                                                                                                       LM00014
                  VECTOR VALUES FENCE = 777777777777K                                             *013 LM00015
                  VECTOR VALUES MZE = 4K11                                                        *014 LM00016
                  VECTOR VALUES TFUDG = 1800                                                      *015 LM00017
                  VECTOR VALUES TABLIM = 200                                                      *016 LM00018
                  VECTOR VALUES LODLIM = 2000                                                     *017 LM00019
                  VECTOR VALUES LPREAM = 12                                                       *018 LM00020
                  VECTOR VALUES TSKLTH = 11                                                       *019 LM00021
                                                                                                       LM00022
                  VECTOR VALUES SYSTEM = $ C0056$                                                 *020 LM00023
                  VECTOR VALUES DAEMON = $ 99999$                                                 *021 LM00024
                  VECTOR VALUES D = $(DUMP)$                                                      *022 LM00025
                  VECTOR VALUES T = $(TAPE)$                                                      *023 LM00026
                  VECTOR VALUES USERF = $USER F$                                                  *024 LM00027
                  VECTOR VALUES ILEDI = $ILE DI$                                                  *025 LM00028
                  DIMENSION HEDER2(12)                                                            *026 LM00029
                  PROGRAM COMMON HEDER2                                                           *027 LM00030
                                                                                                       LM00031
                  BOOLEAN SW                                                                      *028 LM00006
                                                                                                       LM00007
                  VECTOR VALUES URGENT = $URGENT$                                                 *029 LM00008
                  VECTOR VALUES MAIL = $  MAIL$                                                   *030 LM00009
                  VECTOR VALUES POST = $  POST$                                                   *031 LM00010
                  VECTOR VALUES TRIEVE = $TRIEVE$                                                 *032 LM00011
                                                                                                       LM00012
                  VECTOR VALUES FIRST = $ * * *XXXXXX * *   * * * * * *$,                         *033 LM00013
                1      $TRIEVE$,$MON RE$,$OM DAE$,$AIL FR$,$ * * M$,                              *033 LM00014
                2      $ * * * * * *XXXXXX* * * $,777777000016K                                   *033 LM00015
                                                                                                       LM00016
                  VECTOR VALUES BLANK = 777777000000K                                             *034 LM00017
                                                                                                       LM00018
                  DIMENSION TEMP(14)                                                              *035 LM00019
                                                                                                       LM00020
                      MAIL LETTER TO USER BY APPENDING ONTO 'URGENT MAIL'                              LM00021
                                                                                                       LM00022
                  ENTRY TO MAIL.                                                                  *036 LM00023
                  ATTACH.(MPB,MPG,ERR1)                                                           *037 LM00024
                                                                                                       LM00025
                      IF NECESSARY, INCREASE QUOTA TO LEAVE MESSAGE                                    LM00026
                                                                                                       LM00027
                  STORGE.(2,ALLOTD,USED,ERR1)                                                     *038 LM00028
                  WHENEVER (USED .G. ALLOTD), ALLOT.(2,USED+10,MZE,ERR1)                          *039 LM00029
                   CHECK FOR RELOAD'S (LINK) URGENT MAIL                                               LM00030
                                                                                                       LM00031
                  FSTATE.(URGENT,MAIL,DRAIN(2)...2,NOMAIL)                                        *040 LM00032
                  WHENEVER (DRAIN(1).RS.35).E.1                                                   *041 LM00033
                       OPEN.($R$,URGENT,MAIL,NOMAIL)                                              *042 LM00034
                       RDFILE.(URGENT, MAIL,1,DRAIN(432)...432,MZE,EOFCT)                         *043 LM00035
                       CLOSE.(URGENT, MAIL)                                                       *044 LM00036
                       UNLINK.(URGENT,MAIL,NOMAIL)                                                *045 LM00037
                       OPEN.($W$,URGENT,MAIL,ERR1)                                                *046 LM00038
                       WRFILE.(URGENT,MAIL,1,DRAIN(432)...EOFCT)                                  *047 LM00039
                       CLOSE.(URGENT,MAIL)                                                        *048 LM00040
                  END OF CONDITIONAL                                                              *049 LM00041
      NOMAIL      OPEN.($W$,URGENT,MAIL,0,2,ERR1)                                                 *050 LM00042
                  BUFFER.(URGENT,MAIL,DRAIN(432)...432,ERR1)                                      *051 LM00043
                                                                                                       LM00044
                      TEST FOR TITLE LINE                                                              LM00045
                                                                                                       LM00046
                  WHENEVER .NOT. SW, TRANSFER TO SKIP                                             *052 LM00047
                                                                                                       LM00048
                      GET CURRENT DATE                                                                 LM00049
                                                                                                       LM00050
                  FIRST(12) = DATE.(0)                                                            *053 LM00051
                  FIRST(1) = FIRST(12)                                                            *054 LM00052
                  WRFILE.(URGENT,MAIL,0,BLANK...1,MZE,MZE,ERR1)                                   *055 LM00053
                  WRFILE.(URGENT,MAIL,0,FIRST(14)...15,MZE,MZE,ERR1)                              *056 LM00054
                                                                                                       LM00055
                      FIND END OF MESSAGE                                                              LM00056
                      ALSO, INVERT MESSAGE                                                             LM00057
                                                                                                       LM00058
      SKIP        THROUGH LOOP1, FOR I=0,1,I.G.13                                                 *057 LM00059
                       TEMP(13-I) = MESS(I)                                                       *058 LM00060
                       WHENEVER TEMP(13-I) .E. FENCE, TRANSFER TO END                             *059 LM00061
      LOOP1       CONTINUE                                                                        *060 LM00062
                                                                                                       LM00063
                      GET WORD COUNT AT END AND INSERT LINE-MARK                                       LM00064
                                                                                                       LM00065
      END         TEMP(14) = BLANK .V. I                                                          *061 LM00066
                  J = I + 1                                                                       *062 LM00067
                  WRFILE.(URGENT,MAIL,0,TEMP(14)...J,MZE,MZE,ERR1)                                *063 LM00068
                  CLOSE.(URGENT,MAIL,ERR1)                                                        *064 LM00069
                                                                                                       LM00070
                      RE-ADJUST QUOTA, IF NECESSARY                                                    LM00071
                                                                                                       LM00072
                  WHENEVER (USED .G. ALLOTD), ALLOT.(2,ALLOTD,MZE,NERR0)                          *065 LM00073
      NERR0       FUNCTION RETURN                                                                 *066 LM00074
                                                                                                       LM00075
                      CANNOT LEAVE NOTE, MAKE LINKED NOTE                                              LM00076
                                                                                                       LM00077
      ERR1        CLOSE.(URGENT,MAIL,NERR1)                                                       *067 LM00078
      NERR1       LINK.(URGENT,POST,SYSTEM,DAEMON,URGENT,TRIEVE,104K,NERR2)                       *068 LM00079
      NERR2       FUNCTION RETURN                                                                 *069 LM00080
                                                                                                       LM00081
                  END OF FUNCTION                                                                 *070 LM00082
1MAD PROGRAM,TYPE NOV 1963      (ALL NUMBERS ARE OCTAL)
0TOTAL LOCATIONS   00410 TRANSFER VECTOR LENGTH  00015 PROGRAM BEGINS    00111 FIRST UNUSED COMMON/ERASABLE  67621
0 PROGRAM IS AN EXTERNAL FUNCTION.   THE FOLLOWING ARE ENTRIES
      MAIL   00112   0
0VARIABLE STORAGE (A=ARRAY,C=COMMON,E=ERASABLE,DIGIT=MODE)
      AINDEX 67664  C1        END    00016   4        J      00050   1        NERR2  00022   4        TEMP   00071 A 1
      ALLOTD 00025   1        EOFCT  00027   1        LINDEX 67644  C1        NOMAIL 00023   4        TFUDG  67657 AC1
      AUTHOR 67645  C1        ERR1   00017   4        LODLIM 67643 AC1        PB     74477  C1        TRIEVE 00072 A 1
      BLANK  00026 A 1        FENCE  67656 AC1        LODTAB 73605 AC1        PG     74500  C1        T      67661 AC1
      BUFF1  76255 AC1        FIRST  00046 A 1        LOOP1  00015   4        POST   00052 A 1        TSKLTH 67637 AC1
      BUFF2  75374 AC1        HEADER 74513 AC1        LPREAM 67651 AC1        PRIV   67653  C1        UFD    73615 AC1
      BUFF   77136 AC1        HEDER2 67636 AC1        LRCT   74512  C1        REELNO 67640  C1        UNIT   67663  C1
      CURPTR 67646  C1        HPROB  67650  C1        MAIL   00051 A 1        SKIP   00024   4        URGENT 00073 A 1
      DAEMON 67641 AC1        HPROG  67647  C1        MZE    67660 AC1        SYSTEM 67642 AC1        USED   00074   1
      DND    74503  C1        ILEDI  67654 AC1        NERR0  00020   4        TABLE  77461 AC1        USERF  67655 AC1
      DRAIN  74476 AC1        I      00047   1        NERR1  00021   4        TABLIM 67652 AC1        WC     74511  C1
      D      67662 AC1
0FUNCTION DICTIONARY
      ALLOT  00000   1        ATTACH 00001   1        BUFFER 00002   1        CLOSE  00003   1        DATE   00004   1
      EXIT   00005   1        FSTATE 00006   1        LINK   00007   1        OPEN   00010   1        RDFILE 00011   1
      STORGE 00012   1        UNLINK 00013   1        WRFILE 00014   1
0ABSOLUTE CONSTANTS
 00104 +000000000104     00101 +000000000015     00102 +000000000017     00075 +000000000000     00110 -266060606060
 00105 +000000000660     00107 -116060606060     00103 +000000000043     00100 +000000000012     00077 +000000000002
 00076 +000000000001     00106 +233000000000
0STATEMENT DICTIONARY
 00016 TXL -300315000312       00017 TXL -300352000346       00020 TXL -300346000345       00021 TXL -300363000352
 00022 TXL -300364000363       00023 TXL -300225000216       00024 TXL -300274000262
0PROGRAM
                 EXTERNAL FUNCTION (MPB,MPG,MESS,SW)                                001  LM00004
                 I'E COM                                                            002  LM00005
                 N'R                                                                003  LM00002
                 B'N SWT.                                                           004  LM00003
                 D'N TABLE(210),BUFF(432),BUFF1(432),BUFF2(432)                     005  LM00005
                 D'N HEADER(12),UFD(7),DRAIN(432),LODTAB(2000)                      006  LM00006
                 E'E (PB,HEADER(12)),(PG,HEADER(11)),(DND,HEADER(8)),               007  LM00007
                1     (WC,HEADER(2)),(LRCT,HEADER(1))                               007  LM00008
                 P'N TABLE,BUFF,BUFF1,BUFF2                                         008  LM00009
                 P'N HEADER,DRAIN,UFD,LODTAB                                        009  LM00010
                 P'N AINDEX,UNIT,D,T,MZE,TFUDG,FENCE,USERF,ILEDI,PRIV               010  LM00011
                 P'N TABLIM,LPREAM,HPROB,HPROG,CURPTR,AUTHOR,LINDEX                 011  LM00012
                 P'N LODLIM,SYSTEM,DAEMON,REELNO,TSKLTH                             012  LM00013
                 V'S FENCE = 777777777777K                                          013  LM00015
 67656     -3 77777 7 77777
                 V'S MZE = 4K11                                                     014  LM00016
 67660     -0 00000 0 00000
                 V'S TFUDG = 1800                                                   015  LM00017
 67657     +0 00000 0 03410
                 V'S TABLIM = 200                                                   016  LM00018
 67652     +0 00000 0 00310
                 V'S LODLIM = 2000                                                  017  LM00019
 67643     +0 00000 0 03720
                 V'S LPREAM = 12                                                    018  LM00020
 67651     +0 00000 0 00014
                 V'S TSKLTH = 11                                                    019  LM00021
 67637     +0 00000 0 00013
                 V'S SYSTEM = $ C0056$                                              020  LM00023
 67642     -2 02300 0 00506
                 V'S DAEMON = $ 99999$                                              021  LM00024
 67641     -2 01111 1 11111
                 V'S D = $(DUMP)$                                                   022  LM00025
 67662     -3 42464 4 44734
                 V'S T = $(TAPE)$                                                   023  LM00026
 67661     -3 46321 4 72534
                 V'S USERF = $USER F$                                               024  LM00027
 67655     -2 46225 5 16026
                 V'S ILEDI = $ILE DI$                                               025  LM00028
 67654     +3 14325 6 02431
                 DIMENSION HEDER2(12)                                               026  LM00029
                 P'N HEDER2                                                         027  LM00030
                 B'N SW                                                             028  LM00006
                 V'S URGENT = $URGENT$                                              029  LM00008
 00073     -2 45127 2 54563
                 V'S MAIL = $  MAIL$                                                030  LM00009
 00051     -2 06044 2 13143
                 V'S POST = $  POST$                                                031  LM00010
 00052     -2 06047 4 66263
                 V'S TRIEVE = $TRIEVE$                                              032  LM00011
 00072     -2 35131 2 56525
                 V'S FIRST = $ * * *XXXXXX * *   * * * * * *$,                      033  LM00013
                1     $TRIEVE$,$MON RE$,$OM DAE$,$AIL FR$,$ * * M$,                 033  LM00014
                2     $ * * * * * *XXXXXX* * * $,777777000016K                      033  LM00015
 00030     -3 77777 0 00016    00031     -1 46054 6 05460    00032     -2 76767 6 76767    00033     -2 05460 5 46054
 00034     -2 05460 5 46054    00035     -2 05460 5 46044    00036     +2 13143 6 02651    00037     -0 64460 2 42125
 00040     -0 44645 6 05125    00041     -2 35131 2 56525    00042     -2 05460 5 46054    00043     -2 05460 5 46054
 00044     -2 05460 5 46060    00045     -2 76767 6 76767    00046     -2 05460 5 46054
                 V'S BLANK = 777777000000K                                          034  LM00017
 00026     -3 77777 0 00000
                 D'N TEMP(14)                                                       035  LM00019
                 E'O MAIL.                                                          036  LM00023
 00111 TRA +0 02000 0 00114    00112 SXA +0 63400 2 00365    00113 TSX +0 07400 2 00365
                 ATTACH.(MPB,MPG,ERR1)                                              037  LM00024
 00114 TSX +0 07400 4 00001    00115 TXH +3 00000 0 00000    00116 TXH +3 00000 0 00000    00117 TXH +3 00000 0 00017
                 STORGE.(2,ALLOTD,USED,ERR1)                                        038  LM00028
 00120 TSX +0 07400 4 00012    00121 TXH +3 00000 0 00077    00122 TXH +3 00000 0 00025    00123 TXH +3 00000 0 00074
 00124 TXH +3 00000 0 00017
                 W'R (USED .G. ALLOTD), ALLOT.(2,USED+10,MZE,ERR1)                  039  LM00029
 00125 CLA +0 50000 0 00074    00126 SUB +0 40200 0 00025    00127 TZE +0 10000 0 00141    00130 TMI -0 12000 0 00141
 00131 CLA +0 50000 0 00074    00132 ADD +0 40000 0 00100    00133 STO +0 60100 0 00405    00134 TSX +0 07400 4 00000
 00135 TXH +3 00000 0 00077    00136 TXH +3 00000 0 00405    00137 TXH +3 00000 0 67660    00140 TXH +3 00000 0 00017
                 FSTATE.(URGENT,MAIL,DRAIN(2)...2,NOMAIL)                           040  LM00032
 00141 TSX +0 07400 4 00006    00142 TXH +3 00000 0 00073    00143 TXH +3 00000 0 00051    00144 TIX +2 00077 0 74474
 00145 TXH +3 00000 0 00023
                 W'R (DRAIN(1).RS.35).E.1                                           041  LM00033
 00146 CAL -0 50000 0 00103    00147 STA +0 62100 0 00151    00150 CAL -0 50000 0 74475    00151 LGR -0 76500 0 00000
 00152 SLW +0 60200 0 00405    00153 CLA +0 50000 0 00405    00154 SUB +0 40200 0 00076    00155 TNZ -0 10000 0 00216
                      OPEN.($R$,URGENT,MAIL,NOMAIL)                                 042  LM00034
 00156 TSX +0 07400 4 00010    00157 TXH +3 00000 0 00107    00160 TXH +3 00000 0 00073    00161 TXH +3 00000 0 00051
 00162 TXH +3 00000 0 00023
                      RDFILE.(URGENT, MAIL,1,DRAIN(432)...432,MZE,EOFCT)            043  LM00035
 00163 TSX +0 07400 4 00011    00164 TXH +3 00000 0 00073    00165 TXH +3 00000 0 00051    00166 TXH +3 00000 0 00076
 00167 TIX +2 00105 0 73616    00170 TXH +3 00000 0 67660    00171 TXH +3 00000 0 00027
                      CLOSE.(URGENT, MAIL)                                          044  LM00036
 00172 TSX +0 07400 4 00003    00173 TXH +3 00000 0 00073    00174 TXH +3 00000 0 00051
                      UNLINK.(URGENT,MAIL,NOMAIL)                                   045  LM00037
 00175 TSX +0 07400 4 00013    00176 TXH +3 00000 0 00073    00177 TXH +3 00000 0 00051    00200 TXH +3 00000 0 00023
                      OPEN.($W$,URGENT,MAIL,ERR1)                                   046  LM00038
 00201 TSX +0 07400 4 00010    00202 TXH +3 00000 0 00110    00203 TXH +3 00000 0 00073    00204 TXH +3 00000 0 00051
 00205 TXH +3 00000 0 00017
                      WRFILE.(URGENT,MAIL,1,DRAIN(432)...EOFCT)                     047  LM00039
 00206 TSX +0 07400 4 00014    00207 TXH +3 00000 0 00073    00210 TXH +3 00000 0 00051    00211 TXH +3 00000 0 00076
 00212 TIX +2 00027 0 73616
                      CLOSE.(URGENT,MAIL)                                           048  LM00040
 00213 TSX +0 07400 4 00003    00214 TXH +3 00000 0 00073    00215 TXH +3 00000 0 00051
                 E'L                                                                049  LM00041
      NOMAIL     OPEN.($W$,URGENT,MAIL,0,2,ERR1)                                    050  LM00042
 00216 TSX +0 07400 4 00010    00217 TXH +3 00000 0 00110    00220 TXH +3 00000 0 00073    00221 TXH +3 00000 0 00051
 00222 TXH +3 00000 0 00075    00223 TXH +3 00000 0 00077    00224 TXH +3 00000 0 00017
                 BUFFER.(URGENT,MAIL,DRAIN(432)...432,ERR1)                         051  LM00043
 00225 TSX +0 07400 4 00002    00226 TXH +3 00000 0 00073    00227 TXH +3 00000 0 00051    00230 TIX +2 00105 0 73616
 00231 TXH +3 00000 0 00017
                 W'R .NOT. SW, T'O SKIP                                             052  LM00047
 00232 ZET +0 52000 0 00000    00233 TRA +0 02000 0 00235    00234 TRA +0 02000 0 00024
                 FIRST(12) = DATE.(0)                                               053  LM00051
 00235 TSX +0 07400 4 00004    00236 TXH +3 00000 0 00075    00237 STO +0 60100 0 00032
                 FIRST(1) = FIRST(12)                                               054  LM00052
 00240 CLA +0 50000 0 00032    00241 STO +0 60100 0 00045
                 WRFILE.(URGENT,MAIL,0,BLANK...1,MZE,MZE,ERR1)                      055  LM00053
 00242 TSX +0 07400 4 00014    00243 TXH +3 00000 0 00073    00244 TXH +3 00000 0 00051    00245 TXH +3 00000 0 00075
 00246 TIX +2 00076 0 00026    00247 TXH +3 00000 0 67660    00250 TXH +3 00000 0 67660    00251 TXH +3 00000 0 00017
                 WRFILE.(URGENT,MAIL,0,FIRST(14)...15,MZE,MZE,ERR1)                 056  LM00054
 00252 TSX +0 07400 4 00014    00253 TXH +3 00000 0 00073    00254 TXH +3 00000 0 00051    00255 TXH +3 00000 0 00075
 00256 TIX +2 00102 0 00030    00257 TXH +3 00000 0 67660    00260 TXH +3 00000 0 67660    00261 TXH +3 00000 0 00017
      SKIP       T'H LOOP1, FOR I=0,1,I.G.13                                        057  LM00059
 00262 CLA +0 50000 0 00075    00263 STO +0 60100 0 00047    00264 TRA +0 02000 0 00270    00265 CLA +0 50000 0 00047
 00266 ADD +0 40000 0 00076    00267 STO +0 60100 0 00047    00270 CLA +0 50000 0 00047    00271 SUB +0 40200 0 00101
 00272 TZE +0 10000 0 00274    00273 TPL +0 12000 0 00312
                      TEMP(13-I) = MESS(I)                                          058  LM00060
 00274 CLA +0 50000 0 00101    00275 SUB +0 40200 0 00047    00276 PAX +0 73400 1 00000    00277 LXA +0 53400 2 00047
 00300 CLA +0 50000 2 00000    00301 STO +0 60100 1 00071
                      W'R TEMP(13-I) .E. FENCE, T'O END                             059  LM00061
 00302 CLA +0 50000 0 00101    00303 SUB +0 40200 0 00047    00304 PAX +0 73400 1 00000    00305 CLA +0 50000 1 00071
 00306 SUB +0 40200 0 67656    00307 TNZ -0 10000 0 00311    00310 TRA +0 02000 0 00016
      LOOP1      C'E                                                                060  LM00062
 00311 TRA +0 02000 0 00265
      END        TEMP(14) = BLANK .V. I                                             061  LM00066
 00312 CAL -0 50000 0 00026    00313 ORA -0 50100 0 00047    00314 SLW +0 60200 0 00053
                 J = I + 1                                                          062  LM00067
 00315 CLA +0 50000 0 00047    00316 ADD +0 40000 0 00076    00317 STO +0 60100 0 00050
                 WRFILE.(URGENT,MAIL,0,TEMP(14)...J,MZE,MZE,ERR1)                   063  LM00068
 00320 TSX +0 07400 4 00014    00321 TXH +3 00000 0 00073    00322 TXH +3 00000 0 00051    00323 TXH +3 00000 0 00075
 00324 TIX +2 00050 0 00053    00325 TXH +3 00000 0 67660    00326 TXH +3 00000 0 67660    00327 TXH +3 00000 0 00017
                 CLOSE.(URGENT,MAIL,ERR1)                                           064  LM00069
 00330 TSX +0 07400 4 00003    00331 TXH +3 00000 0 00073    00332 TXH +3 00000 0 00051    00333 TXH +3 00000 0 00017
                 W'R (USED .G. ALLOTD), ALLOT.(2,ALLOTD,MZE,NERR0)                  065  LM00073
 00334 CLA +0 50000 0 00074    00335 SUB +0 40200 0 00025    00336 TZE +0 10000 0 00345    00337 TMI -0 12000 0 00345
 00340 TSX +0 07400 4 00000    00341 TXH +3 00000 0 00077    00342 TXH +3 00000 0 00025    00343 TXH +3 00000 0 67660
 00344 TXH +3 00000 0 00020
      NERR0      F'N                                                                066  LM00074
 00345 TRA +0 02000 0 00401
      ERR1       CLOSE.(URGENT,MAIL,NERR1)                                          067  LM00078
 00346 TSX +0 07400 4 00003    00347 TXH +3 00000 0 00073    00350 TXH +3 00000 0 00051    00351 TXH +3 00000 0 00021
      NERR1      LINK.(URGENT,POST,SYSTEM,DAEMON,URGENT,TRIEVE,104K,NERR2)          068  LM00079
 00352 TSX +0 07400 4 00007    00353 TXH +3 00000 0 00073    00354 TXH +3 00000 0 00052    00355 TXH +3 00000 0 67642
 00356 TXH +3 00000 0 67641    00357 TXH +3 00000 0 00073    00360 TXH +3 00000 0 00072    00361 TXH +3 00000 0 00104
 00362 TXH +3 00000 0 00022
      NERR2      F'N                                                                069  LM00080
 00363 TRA +0 02000 0 00401
                 E'N                                                                070  LM00082
 00364 TSX +0 07400 4 00005    00365 TXH +3 00000 0 00000    00366 SXD -0 63400 1 00365    00367 SXA +0 63400 4 00401
 00370 CLA +0 50000 4 00001    00371 STO +0 60100 0 00115    00372 CLA +0 50000 4 00002    00373 STO +0 60100 0 00116
 00374 CLA +0 50000 4 00003    00375 STA +0 62100 0 00300    00376 CLA +0 50000 4 00004    00377 STA +0 62100 0 00232
 00400 TRA +0 02000 2 00001    00401 AXT +0 77400 4 00000    00402 LXA +0 53400 2 00365    00403 LXD -0 53400 1 00365
 00404 TRA +0 02000 4 00001


 RLIBE   BCD 03/15/68 0344.4    6204         00000
1     MAD PROGRAM LISTING ... ... ...                 FILE   RLIBE   MAD            03/01/68    1657.7
-
                      TIME/DATE CONVERTERS, ALSO PROBNO/PROGNO CONVERTERS                              LM00001
                      THIS PROGRAM MUST BE EDITED AND RE-COMPILED WHEN                                 LM00002
                      THE NEW 'LOGIN' (PSN 50) TAKES EFFECT                                            LM00003
                           D.R. WIDRIG  DEC. 1965                                                      LM00004
                                                                                                       LM00005
                  EXTERNAL FUNCTION (X1,Y)                                                        *001 LM00006
                  NORMAL MODE IS INTEGER                                                          *002 LM00007
                  STATEMENT LABEL Y                                                               *003 LM00008
                                                                                                       LM00009
                  VECTOR VALUES MESS1 = $ILLEGA******.....$,0,777777777777K                       *004 LM00010
                                                                                                       LM00011
                  VECTOR VALUES DAYS(1) = 31,28,31,30,31,30,31,31,30,31,30,31                     *005 LM00012
                  VECTOR VALUES DMASK = 766074606060K                                             *006 LM00013
                  VECTOR VALUES TMASK = 777774607060K                                             *007 LM00014
                  VECTOR VALUES PMASK = 776060606060K                                             *008 LM00015
                                                                                                       LM00016
                      GET CURRENT DATE                                                                 LM00017
                                                                                                       LM00018
                  ENTRY TO CDATE.                                                                 *009 LM00019
                  DATNOW = X1                                                                     *010 LM00020
                  MONTH = BCDEC.(DATNOW.RS.24)                                                    *011 LM00021
                  DAY = BCDEC.((DATNOW.RS.12).A.7777K)                                            *012 LM00022
                  YEAR = BCDEC.(DATNOW.A.7777K)                                                   *013 LM00023
                  FUNCTION RETURN                                                                 *014 LM00024
                                                                                                       LM00025
                      RETURN CURRENT DATE AS MMDDYY                                                    LM00026
                                                                                                       LM00027
                  ENTRY TO DATE.                                                                  *015 LM00028
                  FUNCTION RETURN DATNOW                                                          *016 LM00029
                                                                                                       LM00030
                      CONVERT BCD DATE TO I/O FORMAT                                                   LM00031
                                                                                                       LM00032
                  ENTRY TO DATECV.                                                                *017 LM00033
                  MESS1(1) = $L DATE$                                                             *018 LM00034
                  DELTA = 0                                                                       *019 LM00035
                  X = ZEL.(X1)                                                                    *020 LM00036
                  WHENEVER (X.A.DMASK) .NE. 0, TRANSFER TO BAD                                    *021 LM00037
                  MM = BCDEC.(X.RS.24)                                                            *022 LM00038
                  DD = BCDEC.((X.RS.12).A.7777K)                                                  *023 LM00039
                  YY = BCDEC.(X.A.7777K)                                                          *024 LM00040
                  WHENEVER ((YY/4)*4.E.YY).AND.(MM.E.2), DELTA = 1                                *025 LM00041
                  WHENEVER (MM.G.12).OR.(MM.E.0).OR.                                              *026 LM00042
                1      (DD.G.(DAYS(MM)+DELTA)).OR.(YY.G.YEAR).OR.                                 *026 LM00043
                2      ((YY.E.YEAR).AND.(MM.G.MONTH)).OR.                                         *026 LM00044
                3      ((YY.E.YEAR).AND.(MM.E.MONTH).AND.(DD.G.DAY))                              *026 LM00045
                4      , TRANSFER TO BAD                                                          *026 LM00046
                  FUNCTION RETURN (YY.LS.27).V.(MM.LS.23).V.(DD.LS.18)                            *027 LM00047
                                                                                                       LM00048
      BAD         MESS1(3) = X                                                                    *028 LM00049
                  PRNTP.(MESS1)                                                                   *029 LM00050
                  TRANSFER TO Y                                                                   *030 LM00051
                                                                                                       LM00052
                      CONVERT I/O DATE TO BCD                                                          LM00053
                                                                                                       LM00054
                  ENTRY TO CVDATE.                                                                *031 LM00055
                  D = X1.RS.18                                                                    *032 LM00056
                  FUNCTION RETURN (DERBC.(D.A.37K).LS.12).V.(DERBC.((D.RS.5).A.17K)               *033 LM00057
                1      .LS.24).V.(DERBC.((D.RS.9).A.377K))                                        *033 LM00058
                                                                                                       LM00059
                      CONVERT TIME TO I/O FORMAT                                                       LM00060
                                                                                                       LM00061
                  ENTRY TO TIMECV.                                                                *034 LM00062
                  MESS1(1) = $L TIME$                                                             *035 LM00063
                  X = ZEL.(X1)                                                                    *036 LM00064
                  WHENEVER (X.A.TMASK) .NE. 0, TRANSFER TO BAD                                    *037 LM00065
                  HH = BCDEC.((X.RS.12).A.7777K)                                                  *038 LM00066
                  MM = BCDEC.(X.A.7777K)                                                          *039 LM00067
                  WHENEVER (HH.G.23).OR.(MM.G.59), TRANSFER TO BAD                                *040 LM00068
                  FUNCTION RETURN HH*3600+MM*60                                                   *041 LM00069
                                                                                                       LM00070
                      CONVERT I/O TIME TO BCD                                                          LM00071
                                                                                                       LM00072
                  ENTRY TO CVTIME.                                                                *042 LM00073
                  D = X1.A.777777K                                                                *043 LM00074
                  HH = D/3600                                                                     *044 LM00075
                  FUNCTION RETURN ((DERBC.(HH).LS.12).V.                                          *045 LM00076
                1      (DERBC.((D-HH*3600)/60)).V.$  0000$)                                       *045 LM00077
                                                                                                       LM00078
                      CHECK VALIDITY OF PROGNO                                                         LM00079
                                                                                                       LM00080
                  ENTRY TO PROGN.                                                                 *046 LM00081
                  MESS1(1) = $L PRGN$                                                             *047 LM00082
                  X = X1                                                                          *048 LM00083
                  WHENEVER (ZEL.(X).A.PMASK) .E. 0, FUNCTION RETURN X                             *049 LM00084
                  WHENEVER (X.A.777777776060K).E. $CMFL00$, FUNCTION RETURN X                     *050 LM00085
                  TRANSFER TO BAD                                                                 *051 LM00086
                                                                                                       LM00087
                      REDUCE PROBNO TO STANDARD FORM                                                   LM00088
                                                                                                       LM00089
                  ENTRY TO PROBN.                                                                 *052 LM00090
                  MESS1(1) = $L PRBN$                                                             *053 LM00091
                  X = X1                                                                          *054 LM00092
                  WHENEVER (X.A.60K).NE.0, TRANSFER TO BAD                                        *055 LM00093
                  THROUGH LOOP1, FOR I=6,6,I.E.30                                                 *056 LM00094
                  WHENEVER (((X.RS.I).A.60K).NE.0),                                               *057 LM00095
                1      FUNCTION RETURN BZEL.((((X.RS.I).A.77K).LS.24).V.                          *057 LM00096
                2      ((77777777K.RS.(24-I)).A.X))                                               *057 LM00097
      LOOP1       CONTINUE                                                                        *058 LM00098
                  TRANSFER TO BAD                                                                 *059 LM00099
                                                                                                       LM00100
                  END OF FUNCTION                                                                 *060 LM00101
1MAD PROGRAM,TYPE NOV 1963      (ALL NUMBERS ARE OCTAL)
0TOTAL LOCATIONS   00706 TRANSFER VECTOR LENGTH  00006 PROGRAM BEGINS    00111
0 PROGRAM IS AN EXTERNAL FUNCTION.   THE FOLLOWING ARE ENTRIES
      PROBN  00567   0        PROGN  00534   0        CVTIME 00472   0        TIMECV 00413   0        CVDATE 00335   0
      DATECV 00154   0        DATE   00147   0        CDATE  00112   0
0VARIABLE STORAGE (A=ARRAY,C=COMMON,E=ERASABLE,DIGIT=MODE)
      BAD    00007   4        DD     00027   1        HH     00033   1        MM     00042   1        X      00046   1
      DATNOW 00010   1        DELTA  00030   1        I      00034   1        MONTH  00043   1        YEAR   00047   1
      DAY    00011   1        DMASK  00031 A 1        LOOP1  00006   4        PMASK  00044 A 1        YY     00050   1
      DAYS   00026 A 1        D      00032   1        MESS1  00041 A 1        TMASK  00045 A 1
0FUNCTION DICTIONARY
      BCDEC  00000   1        BZEL   00001   1        DERBC  00002   1        EXIT   00003   1        PRNTP  00004   1
      ZEL    00005   1
0ABSOLUTE CONSTANTS
 00073 +000000000077     00100 +000077777777     00066 +000000000036     00056 +000000000006     00070 +000000000060
 00104 -036047512245     00102 +234426430000     00110 -377777776060     00105 -036047512745     00107 -206000000000
 00077 +000000777777     00075 +000000007020     00072 +000000000074     00071 +000000000073     00106 -036063314425
 00067 +000000000037     00061 +000000000017     00055 +000000000005     00074 +000000000377     00057 +000000000011
 00065 +000000000033     00063 +000000000027     00062 +000000000022     00054 +000000000004     00053 +000000000002
 00051 +000000000000     00103 -036024216325     00076 +000000007777     00060 +000000000014     00064 +000000000030
 00052 +000000000001     00101 +233000000000
0STATEMENT DICTIONARY
 00007 TXL -300331000327
0PROGRAM
                 EXTERNAL FUNCTION (X1,Y)                                           001  LM00006
                 N'R                                                                002  LM00007
                 S'L Y                                                              003  LM00008
                 V'S MESS1 = $ILLEGA******.....$,0,777777777777K                    004  LM00010
 00035     -3 77777 7 77777    00036     +0 00000 0 00000    00037     +3 33333 3 33360    00040     -1 45454 5 45454
 00041     +3 14343 2 52721
                 V'S DAYS(1) = 31,28,31,30,31,30,31,31,30,31,30,31                  005  LM00012
 00012     +0 00000 0 00037    00013     +0 00000 0 00036    00014     +0 00000 0 00037    00015     +0 00000 0 00036
 00016     +0 00000 0 00037    00017     +0 00000 0 00037    00020     +0 00000 0 00036    00021     +0 00000 0 00037
 00022     +0 00000 0 00036    00023     +0 00000 0 00037    00024     +0 00000 0 00034    00025     +0 00000 0 00037
                 V'S DMASK = 766074606060K                                          006  LM00013
 00031     -3 66074 6 06060
                 V'S TMASK = 777774607060K                                          007  LM00014
 00045     -3 77774 6 07060
                 V'S PMASK = 776060606060K                                          008  LM00015
 00044     -3 76060 6 06060
                 E'O CDATE.                                                         009  LM00019
 00111 TRA +0 02000 0 00114    00112 SXA +0 63400 2 00657    00113 TSX +0 07400 2 00657
                 DATNOW = X1                                                        010  LM00020
 00114 CLA +0 50000 0 00024    00115 STO +0 60100 0 00010
                 MONTH = BCDEC.(DATNOW.RS.24)                                       011  LM00021
 00116 CAL -0 50000 0 00064    00117 STA +0 62100 0 00121    00120 CAL -0 50000 0 00010    00121 LGR -0 76500 0 00000
 00122 SLW +0 60200 0 00701    00123 TSX +0 07400 4 00000    00124 TXH +3 00000 0 00701    00125 STO +0 60100 0 00043
                 DAY = BCDEC.((DATNOW.RS.12).A.7777K)                               012  LM00022
 00126 CAL -0 50000 0 00060    00127 STA +0 62100 0 00131    00130 CAL -0 50000 0 00010    00131 LGR -0 76500 0 00000
 00132 ANA -0 32000 0 00076    00133 SLW +0 60200 0 00701    00134 TSX +0 07400 4 00000    00135 TXH +3 00000 0 00701
 00136 STO +0 60100 0 00011
                 YEAR = BCDEC.(DATNOW.A.7777K)                                      013  LM00023
 00137 CAL -0 50000 0 00010    00140 ANA -0 32000 0 00076    00141 SLW +0 60200 0 00701    00142 TSX +0 07400 4 00000
 00143 TXH +3 00000 0 00701    00144 STO +0 60100 0 00047
                 F'N                                                                014  LM00024
 00145 TRA +0 02000 0 00675
                 E'O DATE.                                                          015  LM00028
 00146 TRA +0 02000 0 00151    00147 SXA +0 63400 2 00657    00150 TSX +0 07400 2 00657
                 F'N DATNOW                                                         016  LM00029
 00151 CLA +0 50000 0 00010    00152 TRA +0 02000 0 00675
                 E'O DATECV.                                                        017  LM00033
 00153 TRA +0 02000 0 00156    00154 SXA +0 63400 2 00657    00155 TSX +0 07400 2 00657
                 MESS1(1) = $L DATE$                                                018  LM00034
 00156 CLA +0 50000 0 00103    00157 STO +0 60100 0 00040
                 DELTA = 0                                                          019  LM00035
 00160 CLA +0 50000 0 00051    00161 STO +0 60100 0 00030
                 X = ZEL.(X1)                                                       020  LM00036
 00162 TSX +0 07400 4 00005    00163 TXH +3 00000 0 00024    00164 STO +0 60100 0 00046
                 W'R (X.A.DMASK) .NE. 0, T'O BAD                                    021  LM00037
 00165 CAL -0 50000 0 00046    00166 ANA -0 32000 0 00031    00167 SLW +0 60200 0 00701    00170 CLA +0 50000 0 00701
 00171 SUB +0 40200 0 00051    00172 TZE +0 10000 0 00174    00173 TRA +0 02000 0 00007
                 MM = BCDEC.(X.RS.24)                                               022  LM00038
 00174 CAL -0 50000 0 00064    00175 STA +0 62100 0 00177    00176 CAL -0 50000 0 00046    00177 LGR -0 76500 0 00000
 00200 SLW +0 60200 0 00701    00201 TSX +0 07400 4 00000    00202 TXH +3 00000 0 00701    00203 STO +0 60100 0 00042
                 DD = BCDEC.((X.RS.12).A.7777K)                                     023  LM00039
 00204 CAL -0 50000 0 00060    00205 STA +0 62100 0 00207    00206 CAL -0 50000 0 00046    00207 LGR -0 76500 0 00000
 00210 ANA -0 32000 0 00076    00211 SLW +0 60200 0 00701    00212 TSX +0 07400 4 00000    00213 TXH +3 00000 0 00701
 00214 STO +0 60100 0 00027
                 YY = BCDEC.(X.A.7777K)                                             024  LM00040
 00215 CAL -0 50000 0 00046    00216 ANA -0 32000 0 00076    00217 SLW +0 60200 0 00701    00220 TSX +0 07400 4 00000
 00221 TXH +3 00000 0 00701    00222 STO +0 60100 0 00050
                 W'R ((YY/4)*4.E.YY).AND.(MM.E.2), DELTA = 1                        025  LM00041
 00223 CLA +0 50000 0 00042    00224 SUB +0 40200 0 00053    00225 TNZ -0 10000 0 00240    00226 LDQ +0 56000 0 00050
 00227 PXD -0 75400 0 00000    00230 LLS +0 76300 0 00000    00231 DVP +0 22100 0 00054    00232 MPY +0 20000 0 00054
 00233 XCA +0 13100 0 00000    00234 SUB +0 40200 0 00050    00235 TNZ -0 10000 0 00240    00236 CLA +0 50000 0 00052
 00237 STO +0 60100 0 00030
                 W'R (MM.G.12).OR.(MM.E.0).OR.                                      026  LM00042
                1     (DD.G.(DAYS(MM)+DELTA)).OR.(YY.G.YEAR).OR.                    026  LM00043
                2     ((YY.E.YEAR).AND.(MM.G.MONTH)).OR.                            026  LM00044
                3     ((YY.E.YEAR).AND.(MM.E.MONTH).AND.(DD.G.DAY))                 026  LM00045
                4     , T'O BAD                                                     026  LM00046
 00240 CLA +0 50000 0 00027    00241 SUB +0 40200 0 00011    00242 TZE +0 10000 0 00252    00243 TMI -0 12000 0 00252
 00244 CLA +0 50000 0 00042    00245 SUB +0 40200 0 00043    00246 TNZ -0 10000 0 00252    00247 CLA +0 50000 0 00050
 00250 SUB +0 40200 0 00047    00251 TZE +0 10000 0 00303    00252 CLA +0 50000 0 00042    00253 SUB +0 40200 0 00043
 00254 TZE +0 10000 0 00261    00255 TMI -0 12000 0 00261    00256 CLA +0 50000 0 00050    00257 SUB +0 40200 0 00047
 00260 TZE +0 10000 0 00303    00261 CLA +0 50000 0 00050    00262 SUB +0 40200 0 00047    00263 TZE +0 10000 0 00265
 00264 TPL +0 12000 0 00303    00265 LXA +0 53400 1 00042    00266 CLA +0 50000 1 00026    00267 ADD +0 40000 0 00030
 00270 CHS +0 76000 0 00002    00271 ADD +0 40000 0 00027    00272 TZE +0 10000 0 00274    00273 TPL +0 12000 0 00303
 00274 CLA +0 50000 0 00042    00275 SUB +0 40200 0 00051    00276 TZE +0 10000 0 00303    00277 CLA +0 50000 0 00042
 00300 SUB +0 40200 0 00060    00301 TZE +0 10000 0 00304    00302 TMI -0 12000 0 00304    00303 TRA +0 02000 0 00007
                 F'N (YY.LS.27).V.(MM.LS.23).V.(DD.LS.18)                           027  LM00047
 00304 CAL -0 50000 0 00062    00305 STA +0 62100 0 00307    00306 CAL -0 50000 0 00027    00307 ALS +0 76700 0 00000
 00310 SLW +0 60200 0 00701    00311 CAL -0 50000 0 00063    00312 STA +0 62100 0 00314    00313 CAL -0 50000 0 00042
 00314 ALS +0 76700 0 00000    00315 SLW +0 60200 0 00702    00316 CAL -0 50000 0 00065    00317 STA +0 62100 0 00321
 00320 CAL -0 50000 0 00050    00321 ALS +0 76700 0 00000    00322 ORA -0 50100 0 00702    00323 ORA -0 50100 0 00701
 00324 SLW +0 60200 0 00702    00325 CLA +0 50000 0 00702    00326 TRA +0 02000 0 00675
      BAD        MESS1(3) = X                                                       028  LM00049
 00327 CLA +0 50000 0 00046    00330 STO +0 60100 0 00036
                 PRNTP.(MESS1)                                                      029  LM00050
 00331 TSX +0 07400 4 00004    00332 TXH +3 00000 0 00041
                 T'O Y                                                              030  LM00051
 00333 TRA +0 02000 0 00024
                 E'O CVDATE.                                                        031  LM00055
 00334 TRA +0 02000 0 00337    00335 SXA +0 63400 2 00657    00336 TSX +0 07400 2 00657
                 D = X1.RS.18                                                       032  LM00056
 00337 CAL -0 50000 0 00062    00340 STA +0 62100 0 00342    00341 CAL -0 50000 0 00024    00342 LGR -0 76500 0 00000
 00343 SLW +0 60200 0 00032
                 F'N (DERBC.(D.A.37K).LS.12).V.(DERBC.((D.RS.5).A.17K)              033  LM00057
                1     .LS.24).V.(DERBC.((D.RS.9).A.377K))                           033  LM00058
 00344 CAL -0 50000 0 00057    00345 STA +0 62100 0 00347    00346 CAL -0 50000 0 00032    00347 LGR -0 76500 0 00000
 00350 ANA -0 32000 0 00074    00351 SLW +0 60200 0 00702    00352 TSX +0 07400 4 00002    00353 TXH +3 00000 0 00702
 00354 STO +0 60100 0 00702    00355 CAL -0 50000 0 00055    00356 STA +0 62100 0 00360    00357 CAL -0 50000 0 00032
 00360 LGR -0 76500 0 00000    00361 ANA -0 32000 0 00061    00362 SLW +0 60200 0 00701    00363 TSX +0 07400 4 00002
 00364 TXH +3 00000 0 00701    00365 STO +0 60100 0 00701    00366 CAL -0 50000 0 00064    00367 STA +0 62100 0 00371
 00370 CAL -0 50000 0 00701    00371 ALS +0 76700 0 00000    00372 SLW +0 60200 0 00701    00373 CAL -0 50000 0 00032
 00374 ANA -0 32000 0 00067    00375 SLW +0 60200 0 00703    00376 TSX +0 07400 4 00002    00377 TXH +3 00000 0 00703
 00400 STO +0 60100 0 00703    00401 CAL -0 50000 0 00060    00402 STA +0 62100 0 00404    00403 CAL -0 50000 0 00703
 00404 ALS +0 76700 0 00000    00405 ORA -0 50100 0 00701    00406 ORA -0 50100 0 00702    00407 SLW +0 60200 0 00703
 00410 CLA +0 50000 0 00703    00411 TRA +0 02000 0 00675
                 E'O TIMECV.                                                        034  LM00062
 00412 TRA +0 02000 0 00415    00413 SXA +0 63400 2 00657    00414 TSX +0 07400 2 00657
                 MESS1(1) = $L TIME$                                                035  LM00063
 00415 CLA +0 50000 0 00106    00416 STO +0 60100 0 00040
                 X = ZEL.(X1)                                                       036  LM00064
 00417 TSX +0 07400 4 00005    00420 TXH +3 00000 0 00024    00421 STO +0 60100 0 00046
                 W'R (X.A.TMASK) .NE. 0, T'O BAD                                    037  LM00065
 00422 CAL -0 50000 0 00046    00423 ANA -0 32000 0 00045    00424 SLW +0 60200 0 00703    00425 CLA +0 50000 0 00703
 00426 SUB +0 40200 0 00051    00427 TZE +0 10000 0 00431    00430 TRA +0 02000 0 00007
                 HH = BCDEC.((X.RS.12).A.7777K)                                     038  LM00066
 00431 CAL -0 50000 0 00060    00432 STA +0 62100 0 00434    00433 CAL -0 50000 0 00046    00434 LGR -0 76500 0 00000
 00435 ANA -0 32000 0 00076    00436 SLW +0 60200 0 00703    00437 TSX +0 07400 4 00000    00440 TXH +3 00000 0 00703
 00441 STO +0 60100 0 00033
                 MM = BCDEC.(X.A.7777K)                                             039  LM00067
 00442 CAL -0 50000 0 00046    00443 ANA -0 32000 0 00076    00444 SLW +0 60200 0 00703    00445 TSX +0 07400 4 00000
 00446 TXH +3 00000 0 00703    00447 STO +0 60100 0 00042
                 W'R (HH.G.23).OR.(MM.G.59), T'O BAD                                040  LM00068
 00450 CLA +0 50000 0 00042    00451 SUB +0 40200 0 00071    00452 TZE +0 10000 0 00454    00453 TPL +0 12000 0 00460
 00454 CLA +0 50000 0 00033    00455 SUB +0 40200 0 00063    00456 TZE +0 10000 0 00461    00457 TMI -0 12000 0 00461
 00460 TRA +0 02000 0 00007
                 F'N HH*3600+MM*60                                                  041  LM00069
 00461 LDQ +0 56000 0 00042    00462 MPY +0 20000 0 00072    00463 STQ -0 60000 0 00703    00464 LDQ +0 56000 0 00033
 00465 MPY +0 20000 0 00075    00466 XCA +0 13100 0 00000    00467 ADD +0 40000 0 00703    00470 TRA +0 02000 0 00675
                 E'O CVTIME.                                                        042  LM00073
 00471 TRA +0 02000 0 00474    00472 SXA +0 63400 2 00657    00473 TSX +0 07400 2 00657
                 D = X1.A.777777K                                                   043  LM00074
 00474 CAL -0 50000 0 00024    00475 ANA -0 32000 0 00077    00476 SLW +0 60200 0 00032
                 HH = D/3600                                                        044  LM00075
 00477 LDQ +0 56000 0 00032    00500 PXD -0 75400 0 00000    00501 LLS +0 76300 0 00000    00502 DVP +0 22100 0 00075
 00503 STQ -0 60000 0 00033
                 F'N ((DERBC.(HH).LS.12).V.                                         045  LM00076
                1     (DERBC.((D-HH*3600)/60)).V.$  0000$)                          045  LM00077
 00504 LDQ +0 56000 0 00033    00505 MPY +0 20000 0 00075    00506 XCA +0 13100 0 00000    00507 CHS +0 76000 0 00002
 00510 ADD +0 40000 0 00032    00511 LRS +0 76500 0 00043    00512 DVP +0 22100 0 00072    00513 STQ -0 60000 0 00703
 00514 TSX +0 07400 4 00002    00515 TXH +3 00000 0 00703    00516 STO +0 60100 0 00703    00517 TSX +0 07400 4 00002
 00520 TXH +3 00000 0 00033    00521 STO +0 60100 0 00702    00522 CAL -0 50000 0 00060    00523 STA +0 62100 0 00525
 00524 CAL -0 50000 0 00702    00525 ALS +0 76700 0 00000    00526 ORA -0 50100 0 00703    00527 ORA -0 50100 0 00107
 00530 SLW +0 60200 0 00703    00531 CLA +0 50000 0 00703    00532 TRA +0 02000 0 00675
                 E'O PROGN.                                                         046  LM00081
 00533 TRA +0 02000 0 00536    00534 SXA +0 63400 2 00657    00535 TSX +0 07400 2 00657
                 MESS1(1) = $L PRGN$                                                047  LM00082
 00536 CLA +0 50000 0 00105    00537 STO +0 60100 0 00040
                 X = X1                                                             048  LM00083
 00540 CLA +0 50000 0 00024    00541 STO +0 60100 0 00046
                 W'R (ZEL.(X).A.PMASK) .E. 0, F'N X                                 049  LM00084
 00542 TSX +0 07400 4 00005    00543 TXH +3 00000 0 00046    00544 STO +0 60100 0 00703    00545 CAL -0 50000 0 00703
 00546 ANA -0 32000 0 00044    00547 SLW +0 60200 0 00703    00550 CLA +0 50000 0 00703    00551 SUB +0 40200 0 00051
 00552 TNZ -0 10000 0 00555    00553 CLA +0 50000 0 00046    00554 TRA +0 02000 0 00675
                 W'R (X.A.777777776060K).E. $CMFL00$, F'N X                         050  LM00085
 00555 CAL -0 50000 0 00046    00556 ANA -0 32000 0 00110    00557 SLW +0 60200 0 00703    00560 CLA +0 50000 0 00703
 00561 SUB +0 40200 0 00102    00562 TNZ -0 10000 0 00565    00563 CLA +0 50000 0 00046    00564 TRA +0 02000 0 00675
                 T'O BAD                                                            051  LM00086
 00565 TRA +0 02000 0 00007
                 E'O PROBN.                                                         052  LM00090
 00566 TRA +0 02000 0 00571    00567 SXA +0 63400 2 00657    00570 TSX +0 07400 2 00657
                 MESS1(1) = $L PRBN$                                                053  LM00091
 00571 CLA +0 50000 0 00104    00572 STO +0 60100 0 00040
                 X = X1                                                             054  LM00092
 00573 CLA +0 50000 0 00024    00574 STO +0 60100 0 00046
                 W'R (X.A.60K).NE.0, T'O BAD                                        055  LM00093
 00575 CAL -0 50000 0 00046    00576 ANA -0 32000 0 00070    00577 SLW +0 60200 0 00703    00600 CLA +0 50000 0 00703
 00601 SUB +0 40200 0 00051    00602 TZE +0 10000 0 00604    00603 TRA +0 02000 0 00007
                 T'H LOOP1, FOR I=6,6,I.E.30                                        056  LM00094
 00604 CLA +0 50000 0 00056    00605 STO +0 60100 0 00034    00606 TRA +0 02000 0 00612    00607 CLA +0 50000 0 00034
 00610 ADD +0 40000 0 00056    00611 STO +0 60100 0 00034    00612 CLA +0 50000 0 00034    00613 SUB +0 40200 0 00066
 00614 TZE +0 10000 0 00655
                 W'R (((X.RS.I).A.60K).NE.0),                                       057  LM00095
                1     F'N BZEL.((((X.RS.I).A.77K).LS.24).V.                         057  LM00096
                2     ((77777777K.RS.(24-I)).A.X))                                  057  LM00097
 00615 CAL -0 50000 0 00034    00616 STA +0 62100 0 00620    00617 CAL -0 50000 0 00046    00620 LGR -0 76500 0 00000
 00621 ANA -0 32000 0 00070    00622 SLW +0 60200 0 00703    00623 CLA +0 50000 0 00703    00624 SUB +0 40200 0 00051
 00625 TZE +0 10000 0 00654    00626 CLA +0 50000 0 00064    00627 SUB +0 40200 0 00034    00630 STA +0 62100 0 00632
 00631 CAL -0 50000 0 00100    00632 LGR -0 76500 0 00000    00633 ANA -0 32000 0 00046    00634 SLW +0 60200 0 00703
 00635 CAL -0 50000 0 00034    00636 STA +0 62100 0 00640    00637 CAL -0 50000 0 00046    00640 LGR -0 76500 0 00000
 00641 ANA -0 32000 0 00073    00642 SLW +0 60200 0 00702    00643 CAL -0 50000 0 00064    00644 STA +0 62100 0 00646
 00645 CAL -0 50000 0 00702    00646 ALS +0 76700 0 00000    00647 ORA -0 50100 0 00703    00650 SLW +0 60200 0 00703
 00651 TSX +0 07400 4 00001    00652 TXH +3 00000 0 00703    00653 TRA +0 02000 0 00675
      LOOP1      C'E                                                                058  LM00098
 00654 TRA +0 02000 0 00607
                 T'O BAD                                                            059  LM00099
 00655 TRA +0 02000 0 00007
                 E'N                                                                060  LM00101
 00656 TSX +0 07400 4 00003    00657 TXH +3 00000 0 00000    00660 SXD -0 63400 1 00657    00661 SXA +0 63400 4 00675
 00662 CLA +0 50000 4 00001    00663 STA +0 62100 0 00114    00664 STO +0 60100 0 00163    00665 STA +0 62100 0 00341
 00666 STO +0 60100 0 00420    00667 STA +0 62100 0 00474    00670 STA +0 62100 0 00540    00671 STA +0 62100 0 00573
 00672 CLA +0 50000 4 00002    00673 STA +0 62100 0 00333    00674 TRA +0 02000 2 00001    00675 AXT +0 77400 4 00000
 00676 LXA +0 53400 2 00657    00677 LXD -0 53400 1 00657    00700 TRA +0 02000 4 00001


UNIQUE   BCD 05/28/67 2016.7     635         00000
1                                                                                                PAGE 1
                           UNIQUE NAME GENERATOR


  BINARY CARD NO. UNIQUE00
                       00003         ENTRY   UNIQUE
                                     EXTERN  GETIME

                                             THIS PROGRAM GENERATES A UNIQUE PAIR OF NAMES

                                             TSX           $UNIQUE,4
                                             PTH           NAME1
                                             PTH           NAME2

                                             THIS PROGRAM IS USED TO GENERATE UNIQUE
                                             NAMES FOR INTERMEDIATE FILES

                                                           D.R. WIDRIG  DEC. 1965


        TRANSFER VECTOR

  BINARY CARD NO. UNIQUE01
      00000  272563314425     GETIME

            LINKAGE DIRECTOR
      00001  000000000000
      00002  644531506425

      00003  0634 00 4 00007  UNIQUE SXA     X4,4          SAVE LINKAGE
      00004  0634 00 1 00026         SXA     X1,1          COUNTER
      00005  0074 00 4 00000         TSX     GETIME,4      GET DATE AND TIME
      00006 -0130 00 0 00000         XCL                   SWITCH AC AND MQ
      00007  0774 00 4 00000  X4     AXT     **,4          RESTORE LINKAGE
      00010 -0320 00 0 00030         ANA     =O777777770000 MASK OUT YY PORTION OF DATE
      00011  0602 60 4 00001         SLW*    1,4           TEMPORARY SAVE
      00012 -0754 00 0 00000         ZAC                   CLEAR AC
      00013 -0773 00 0 00014         RQL     12            THROW OUT HIGH-ORDER ZEROES
      00014 -0763 00 0 00003         LGL     3             CONVERT TO OCTAL
      00015  0767 00 0 00003         ALS     3             ..
      00016 -0763 00 0 00003         LGL     3             ..
      00017 -0602 60 4 00001         ORS*    1,4           'OR' WITH MMDD
      00020  0774 00 1 00006         AXT     6,1           SET LOOP COUNT
      00021 -0754 00 0 00000         ZAC                   CLEAR AC
      00022  0767 00 0 00003         ALS     3             CONVERT TO OCTAL
      00023 -0763 00 0 00003         LGL     3             ..

  BINARY CARD NO. UNIQUE02
      00024  2 00001 1 00022         TIX     *-2,1,1       LOOP
      00025  0602 60 4 00002         SLW*    2,4           SAVE NAME2
      00026  0774 00 1 00000  X1     AXT     **,1          RESTORE XR1
      00027  0020 00 4 00003         TRA     3,4           RETURN
                                     END

        LITERALS
      00030  777777770000
1                                                                                                PAGE 1
                        POST PROCESSOR ASSEMBLY DATA

         31 IS THE FIRST LOCATION NOT USED BY THIS PROGRAM

0REFERENCES TO DEFINED SYMBOLS
         26     X1     4
          7     X4     3
          0 GETIME     5
          3 UNIQUE     0

0 NO ERROR IN ABOVE ASSEMBLY.


   SWT   BCD 05/28/67 2016.7     356         00000
1                                                                                                PAGE 1
                           TEST OF ON-LINE SENSE SWITCHES


  BINARY CARD NO. SWT00000
                       00002         ENTRY   SWT

                                             THIS MODULE TESTS THE SENSE SWITCHES ON THE CONSOLE

                                                           D.R. WIDRIG  DEC. 1965


            LINKAGE DIRECTOR

  BINARY CARD NO. SWT00001
      00000  000000000000
      00001  626663606060

      00002 -0500 60 4 00001  SWT    CAL*    1,4           GET SWITCH NUMBER
      00003 -0320 00 0 00012         ANA     =O7           MAKE SURE IT IS NOT TOO BIG
      00004 -0501 00 0 00011         ORA     SWT0          BLEND IN OP-CODE
      00005  0602 00 0 00006         SLW     *+1           PLANT IT
      00006  0 00000 0 00000         ***     **            TEST SWITCH
      00007 -0754 00 0 00000         ZAC                   UP, RETURN ZERO (BOOLEAN 0B)
      00010  0020 00 4 00002         TRA     2,4           DOWN, RETURN BOOLEAN 1B

      00011  0760 00 0 00160  SWT0   SWT     0             PROTOTYPE SWITCH TEST INSTRUCTION
                                     END

        LITERALS
      00012  000000000007
1                                                                                                PAGE 1
                        POST PROCESSOR ASSEMBLY DATA

         13 IS THE FIRST LOCATION NOT USED BY THIS PROGRAM

0REFERENCES TO DEFINED SYMBOLS
          2    SWT     0
         11   SWT0     4

0 NO ERROR IN ABOVE ASSEMBLY.


 VALID   BCD 05/28/67 2016.7    2482         00000
1                    VALID    DAGGETT     NOV 16, 1966                                           PAGE 1

                              *              CHECK FOR HEADER RECORD AT BEGINNING OF DAEMON-LOGICAL
                              *              RECORD(4 TAPE STRATEGY RECORDS OF 432 WORDS EACH)
                              *              VALID.(ARRAY,YES,NO)
                              *               ARRAY STORED FORWARD, I.E. PBNO=ARRAY,PGNO=ARRAY+1
                              *              CHECKS ARE..PBNP,PGNP ARE ALPHANUMERIC
                              *                       ...DATES IN 3RD,5TH WORDS
                              *                        ..10TH WORD TAG .NE. 0, ADDRESS=432
                              *                        ..11TH WORD IS WORD COUNT OF FILE
                              *                        ..12TH WORD IS LOGICAL RECORD COUNTS
                       00003         ENTRY   VALID
                              *
                                     EXTERN  CVDATE

        TRANSFER VECTOR
      00000  236524216325     CVDATE

            LINKAGE DIRECTOR
      00001  000000000000
      00002  652143312460

                       00003  VALID  SYN     *
      00003  0634 00 1 00124         SXA     VAL1,1
      00004  0634 00 2 00123         SXA     VAL2,2
      00005  0634 00 4 00122         SXA     VAL4,4
      00006 -0500 00 4 00001         CAL     1,4           GET LOCATION OF ARRAY
      00007  0621 00 0 00033         STA     V1
      00010  0621 00 0 00047         STA     L1
      00011  0621 00 0 00057         STA     V3
      00012  0621 00 0 00041         STA     V21
      00013  0400 00 0 00211         ADD     =1            (ARRAY+1) PGNO
      00014  0621 00 0 00036         STA     V2
      00015  0621 00 0 00062         STA     L2
      00016  0621 00 0 00044         STA     V22
      00017  0400 00 0 00211         ADD     =1            ARRAY+2(DATE)
      00020  0621 00 0 00115         STA     L6
      00021  0400 00 0 00212         ADD     =2
      00022  0621 00 0 00120         STA     L7
      00023  0400 00 0 00213         ADD     =3
      00024  0400 00 0 00212         ADD     =2
      00025  0621 00 0 00065         STA     L3            ARRAY+9
      00026  0400 00 0 00211         ADD     =1
      00027  0621 00 0 00074         STA     L4            ARRAY+10
      00030  0400 00 0 00211         ADD     =1
      00031  0621 00 0 00076         STA     L5            ARRAY+11
      00032  0600 00 0 00132         STZ     TGTST
                              *              SPECIAL CHECK FOR M.F.D. (FILE), DSKEDT .FILE.
      00033 -0500 00 0 00000  V1     CAL     **            (ARRAY)
      00034  0322 00 0 00226         ERA     =HM.F.D.
      00035 -0100 00 0 00041         TNZ     V21
      00036 -0500 00 0 00000  V2     CAL     **            (ARRAY+1) PGNO
      00037  0322 00 0 00230         ERA     =H(FILE)
      00040  0100 00 0 00065         TZE     L3            FOUND M.F.D. (FILE)
      00041 -0500 00 0 00000  V21    CAL     **            (ARRAY)
      00042  0322 00 0 00224         ERA     =HDSKEDT
      00043 -0100 00 0 00047         TNZ     L1
      00044 -0500 00 0 00000  V22    CAL     **            (ARRAY+1)
1                    VALID    DAGGETT     NOV 16, 1966                                           PAGE 2

      00045  0322 00 0 00225         ERA     =H.FILE.
      00046  0100 00 0 00065         TZE     L3
                              *              CHECK PBNO,PGNO FOR ALPHANUMERIC CHARACTERS
      00047  0560 00 0 00000  L1     LDQ     **            (ARRAY)
      00050 -0754 00 0 00000         ZAC                   IS FIRST LETTER OF PBNO
      00051 -0763 00 0 00006         LGL     6             A BLANK
      00052  0402 00 0 00215         SUB     =H00000
      00053 -0100 00 0 00126         TNZ     INVAL         NO. TAKE NO EXIT
      00054 -0763 00 0 00006         LGL     6
      00055  0402 00 0 00214         SUB     =O12          CHECK SECOND CHAR
      00056 -0120 00 0 00126         TMI     INVAL         NUMERIC. SHOULD BE LETTER
                              *              CHECK FOR REST OF NAME AS ALPHANUMERIC
      00057  0560 00 0 00000  V3     LDQ     **            (ARRAY)
      00060  0074 00 4 00162         TSX     ALPNU,4
      00061  0020 00 0 00126         TRA INVAL             NOT ALPHANUMERIC
      00062  0560 00 0 00000  L2     LDQ     **            (PGNO) OK.
      00063  0074 00 4 00162         TSX     ALPNU,4       NOW CHECK PRGMMER NO.
      00064  0020 00 0 00126         TRA     INVAL
                              *              CHECK ARRAY+9 FOR TAG .NE. O NAD ADDR=432
      00065 -0500 00 0 00000  L3     CAL     **            (ARRAY+9) 10TH WORD
      00066  0625 00 0 00132         STT     TGTST
      00067 -0520 00 0 00132         NZT     TGTST         TAG SHOULD .NE. 0
      00070  0020 00 0 00126         TRA     INVAL
      00071 -0320 00 0 00223         ANA     =O77777       NOW TEST ADDRESS
      00072  0402 00 0 00220         SUB     =432
      00073 -0100 00 0 00126         TNZ     INVAL
                              *              CHECK 11TH WORD FOR WORD COUNT OF FILE
      00074 -0500 00 0 00000  L4     CAL     **            (ARRAY+10)
      00075  0602 00 0 00130         SLW     WDCNT
                              *              CHECK 12TH WORD. SHOULD HAVE 1 IN DECR.ADDRSS
                              *                 SHOULD BE NUMBER OF DAEMON-LOGICAL RECORDS
                              *              IN FILE AND SHOULD BE CONSISTENT WITH WDCNT.
      00076 -0500 00 0 00000  L5     CAL     **            (ARRAY+11)
      00077  0602 00 0 00131         SLW     RECNT
      00100 -0734 00 1 00000         PDX     0,1
      00101 -3 00000 1 00126         TXL     INVAL,1,0
      00102  3 00001 1 00126         TXH     INVAL,1,1     NO GOOD IF NOT = 1
      00103 -0320 00 0 00227         ANA     =O700000700000  PREFIX AND TAG SHOULD BE ZERO
      00104 -0100 00 0 00126         TNZ     INVAL
      00105 -0500 00 0 00131         CAL     RECNT
      00106 -0320 00 0 00223         ANA     =O77777       TOTAL DAEMON-LOGICAL RECORD COUNT
      00107 -0130 00 0 00000         XCL
      00110  0200 00 0 00222         MPY     =1728         432*4(WDS. IN DEMON-LOGICAL REC)
      00111 -0130 00 0 00000         XCL
      00112  0402 00 0 00130         SUB     WDCNT         SHOULD NOT BE .G. WDCNT
      00113 -0120 00 0 00126         TMI     INVAL
                              *              CHECK DATE ENTRIES
      00114  0074 00 4 00133         TSX CKDAT,4           CHECK 3RD WORD
      00115  0 00000 0 00000  L6             **            (ARRAY+2)
      00116  0020 00 0 00126         TRA     INVAL
      00117  0074 00 4 00133         TSX     CKDAT,4
      00120  0 00000 0 00000  L7             **            CHECK 5TH WORD
      00121  0020 00 0 00126         TRA     INVAL
                              *              ENTRY SEEMS OK. TAKE YES EXIT
      00122  0774 00 4 00000  VAL4   AXT     **,4
      00123  0774 00 2 00000  VAL2   AXT     **,2
1                    VALID    DAGGETT     NOV 16, 1966                                           PAGE 3

      00124  0774 00 1 00000  VAL1   AXT     **,1
      00125  0020 60 4 00002         TRA*    2,4
                              *
                              *              NO EXIT. ARRAY DOES NOT LOOK LIKE HEADER.
                       00126  INVAL  SYN     *
      00126  0534 00 4 00122         LXA     VAL4,4
      00127  1 77777 4 00123         TXI     VAL2,4,-1
                              *
      00130  0 00000 0 00000  WDCNT  PZE
      00131  0 00000 0 00000  RECNT  PZE
      00132  0 00000 0 00000  TGTST  PZE
                              *
                              *
                              *              CKDAT
                              *              1,4 ARGUMENT
                              *              2,4  BAD DATE
                              *              3,4 OK EXIT
                              *              TEST IS MONTH .LE. 12, YEAR .LE. 70, DAY.L.32
                              *
                       00133  CKDAT  SYN     *
      00133  0634 00 4 00156         SXA     CK4,4
      00134 -0500 00 4 00001         CAL     1,4
      00135  0621 00 0 00137         STA     *+2
      00136  0074 00 4 00000         TSX     CVDATE,4
 TD   00137  3 00000 0 00000         TXH     **
 TD   00140  3 00000 0 00141         TXH     *+1
      00141 -0130 00 0 00000         XCL
      00142 -0754 00 0 00000         ZAC                   MMDDYY TO MQ
      00143 -0763 00 0 00014         LGL     12
      00144  0402 00 0 00216         SUB     =H000013      CHECK MONTH
      00145  0120 00 0 00160         TPL     CK5
      00146 -0754 00 0 00000         ZAC
      00147 -0763 00 0 00014         LGL     12
      00150  0402 00 0 00217         SUB     =H000032      CHECK DAY
      00151  0120 00 0 00160         TPL     CK5
      00152 -0754 00 0 00000         ZAC
      00153 -0763 00 0 00014         LGL     12
      00154  0402 00 0 00221         SUB     =H000070      CHECK YEAR
      00155  0120 00 0 00160         TPL     CK5
      00156  0774 00 4 00000  CK4    AXT     **,4
      00157  0020 00 4 00003         TRA     3,4
                              *
      00160  0534 00 4 00156  CK5    LXA     CK4,4
      00161  0020 00 4 00002         TRA     2,4           BAD EIXT
                              *
                              *              ALPNU
                              *              ARGUMENT IN MQ
                              *              1,4   NOT ALPHANUMERIC
                              *              2,4   ALPHANUMERIC
                              *
                       00162  ALPNU  SYN     *
      00162  0634 00 4 00202         SXA     NOT,4
      00163  0634 00 2 00203         SXA     ALP2,2
      00164  0634 00 1 00204         SXA     ALP3,1
      00165  0774 00 2 00006         AXT     6,2
      00166 -0754 00 0 00000  ALP1   ZAC
1                    VALID    DAGGETT     NOV 16, 1966                                           PAGE 4

      00167 -0763 00 0 00006         LGL     6
      00170  0734 00 1 00000         PAX     0,1
      00171 -3 00011 1 00206         TXL     OK,1,9
      00172 -3 00020 1 00202         TXL     NOT,1,16
      00173 -3 00031 1 00206         TXL     OK,1,25       21 THRU31 OCTAL OK
      00174 -3 00040 1 00202         TXL     NOT,1,32
      00175 -3 00051 1 00206         TXL     OK,1,41
      00176 -3 00057 1 00202         TXL     NOT,1,47
      00177 -3 00060 1 00206         TXL     OK,1,48       BLANK OK
      00200 -3 00061 1 00202         TXL     NOT,1,49
      00201 -3 00071 1 00206         TXL     OK,1,57
      00202  0774 00 4 00000  NOT    AXT     **,4
      00203  0774 00 2 00000  ALP2   AXT     **,2
      00204  0774 00 1 00000  ALP3   AXT     **,1
      00205  0020 00 4 00001         TRA     1,4
                              *
      00206  2 00001 2 00166  OK     TIX     ALP1,2,1
      00207  0534 00 4 00202         LXA     NOT,4
      00210  1 77777 4 00203         TXI     ALP2,4,-1
                                     END

        LITERALS
      00211  000000000001
      00212  000000000002
      00213  000000000003
      00214  000000000012
      00215  000000000060
      00216  000000000103
      00217  000000000302
      00220  000000000660
      00221  000000000700
      00222  000000003300
      00223  000000077777
      00224  246242252463
      00225  332631432533
      00226  443326332433
      00227  700000700000
      00230  742631432534
1                    VALID    DAGGETT     NOV 16, 1966                                           PAGE 1
                        POST PROCESSOR ASSEMBLY DATA

        231 IS THE FIRST LOCATION NOT USED BY THIS PROGRAM

0REFERENCES TO DEFINED SYMBOLS
         47     L1    10,   43
         62     L2    15
         65     L3    25,   40,   46
         74     L4    27
         76     L5    31
        115     L6    20
        120     L7    22
        206     OK   171,  173,  175,  177,  201
         33     V1     7
         36     V2    14
         57     V3    11
        156    CK4   133,  160
        160    CK5   145,  151,  155
        202    NOT   162,  172,  174,  176,  200,  207
         41    V21    12,   35
         44    V22    16
        166   ALP1   206
        203   ALP2   163,  210
        204   ALP3   164
        124   VAL1     3
        123   VAL2     4,  127
        122   VAL4     5,  126
        162  ALPNU    60,   63,  162
        133  CKDAT   114,  117,  133
        126  INVAL    53,   56,   61,   64,   70,   73,  101,  102,  104,  113,  116,  121,  126
        131  RECNT    77,  105
        132  TGTST    32,   66,   67
          3  VALID     0,    3
        130  WDCNT    75,  112
          0 CVDATE   136

0 NO ERROR IN ABOVE ASSEMBLY.


S.STUP   BCD 05/28/67 2019.0    1018         00000
1                                                                                                PAGE 1
                           STAND-ALONE VERSION FOR RETRIEVAL .SETUP


  BINARY CARD NO. S.STUP00
                       00013         ENTRY   .SETUP

                                     EXTERN  SETIO,CDATE,GETIME,EXIT,UPDMFD,ATTACH,GETARG
                                     EXTERN  CLOSE,UMOUNT

                                             THIS ROUTINE IS CALLED IMPLICITLY BY (MAIN).
                                             IF FUNCTIONS ROUGHLY THE SAME AS 'B.STUP', THE
                                             CTSS-COMPATIBLE BACKGROUND VERSION.  WITH THIS
                                             VERSION, TRANSFERRING TO 34(8) PROVIDES THE
                                             EMERGENCY CLOSE PROCEDURE.

                                                           D.R. WIDRIG  DEC. 1965


  BINARY CARD NO. S.STUP01
      00000  622563314660     SETIO
      00001  232421632560     CDATE
      00002  272563314425     GETIME
      00003  256731636060     EXIT
      00004  644724442624     UPDMFD
      00005  216363212330     ATTACH
      00006  272563215127     GETARG
      00007  234346622560     CLOSE
      00010  644446644563     UMOUNT


      00013  0634 00 4 00035  .SETUP SXA     IR4,4         SAVE LINKAGE
      00014  0000 00 0 00015         HTR     *+1           DEBUGGING HALT
      00015  0074 00 4 00000         TSX     SETIO,4       INITIALIZE FILE SYSTEM
      00016  0 00000 0 00060         PZE     =99999        SET DAEMON AS AUTHOR
      00017  0074 00 4 00002         TSX     GETIME,4      GET CURRENT DATE
      00020 -0600 00 0 00051         STQ     DATE          SAVE IT
      00021  0074 00 4 00001         TSX     CDATE,4       GIVE DATE TO CONVERSION PACKAGE
      00022  3 00000 0 00051         PTH     DATE          ..
      00023  0500 00 0 00037         CLA     ECLOSE        GET EMERGENCY CLOSE

  BINARY CARD NO. S.STUP02
      00024  0601 00 0 00034         STO     28            SAVE IN 34(8)
      00025  0074 00 4 00004         TSX     UPDMFD,4      INSURE DAEMON IN M.F.D.
      00026  3 00000 0 00052         PTH     SYSTEM        ..
      00027  3 00000 0 00053         PTH     DAEMON        ..
      00030  3 00000 0 00031         PTH     *+1           IGNORE ERROR RETURN
      00031  0074 00 4 00005         TSX     ATTACH,4      MAKE SURE ATTACHED TO DAEMON
      00032  3 00000 0 00052         PTH     SYSTEM        ..
      00033  3 00000 0 00053         PTH     DAEMON        ..
      00034  0074 00 4 00006         TSX     GETARG,4      PRIME INPUT LINE
      00035  0774 00 4 00000  IR4    AXT     **,4          RESTORE RETURN
      00036  0020 00 4 00001         TRA     1,4           RETURN TO MAIN PROGRAM
1                                                                                                PAGE 2
                           STAND-ALONE VERSION FOR RETRIEVAL .SETUP

      00037  0021 00 0 00040  ECLOSE TTR     *+1           TRANSFER TO HERE ON EMERGENCY
      00040  0074 00 4 00007         TSX     CLOSE,4       CLOSE ALL FILES
      00041  3 00000 0 00061         PTH     =HALL         ..
      00042  3 00000 0 00062         PTH     =-0           PLACE HOLDER
      00043  3 00000 0 00044         PTH     *+1           IGNORE ANY ERRORS
      00044  0074 00 4 00010         TSX     UMOUNT,4      UNMOUNT ANY TAPES LEFT
      00045  3 00000 0 00061         PTH     =HALL         ..
      00046  3 00004 0 00054         PTH     UMTMS,,4      SIMPLE MESSAGE
      00047  3 00000 0 00050         PTH     *+1           NO ERRORS, PLEASE

  BINARY CARD NO. S.STUP03
      00050  0020 00 0 00003         TRA     EXIT
1                                                                                                PAGE 3
                           STAND-ALONE VERSION FOR RETRIEVAL .SETUP

                                             CONSTANTS, ETC.
      00051  0 00000 0 00000  DATE   PZE
      00052  606200000506     SYSTEM BCI     1, S0056
      00053  601111111111     DAEMON BCI     1, 99999
      00054  472145312360     UMTMS  BCI     4,PANIC CLOSE AND UNMOUNT
                                     END

        LITERALS
      00060  000000303237
      00061  214343606060
      00062  400000000000
1                                                                                                PAGE 1
                        POST PROCESSOR ASSEMBLY DATA

         63 IS THE FIRST LOCATION NOT USED BY THIS PROGRAM

0REFERENCES TO DEFINED SYMBOLS
         35    IR4    13
         51   DATE    20,   22
          3   EXIT    50
          1  CDATE    21
          7  CLOSE    40
          0  SETIO    15
         54  UMTMS    46
          5 ATTACH    31
         53 DAEMON    27,   33
         37 ECLOSE    23
          6 GETARG    34
          2 GETIME    17
         13 .SETUP     0
         52 SYSTEM    26,   32
         10 UMOUNT    44
          4 UPDMFD    25

0 NO ERROR IN ABOVE ASSEMBLY.


COMPAT   BCD 05/28/67 2019.0    6114         00000
1     MAD PROGRAM LISTING ... ... ...                 FILE  COMPAT   MAD            05/28/67    1926.0
-
                      SIMULATION PACKAGE FOR NON-CTSS RETRIEVALS                                       LM00001
                      THIS PACKAGE SURROUNDS THE CORE OF THE RETRIEVAL                                 LM00002
                      PROGRAM WITH ROUTINES WHICH MAKE BACKGROUND AND                                  LM00003
                      STAND-ALONE JOBS APPEAR IDENTICAL WITH FOREGROUND                                LM00004
                      JOBS                                                                             LM00005
                           D.R. WIDRIG  DEC. 1965                                                      LM00006
                                                                                                       LM00007
                  EXTERNAL FUNCTION (X,Y)                                                         *001 LM00008
                                                                                                       LM00009
                  NORMAL MODE IS INTEGER                                                          *002 LM00010
                  BOOLEAN BREAK                                                                   *003 LM00011
                                                                                                       LM00012
                  VECTOR VALUES BLANK1 = $00000 $                                                 *004 LM00013
                  VECTOR VALUES SYSTEM = $ C0056$                                                 *005 LM00014
                  VECTOR VALUES DAEMON = $ 99999$                                                 *006 LM00015
                  VECTOR VALUES BLANKS = $      $                                                 *007 LM00016
                  VECTOR VALUES INPUT = $72(RZC1)*$                                               *008 LM00017
                                                                                                       LM00018
                  VECTOR VALUES MXARG = 18                                                        *009 LM00019
                  VECTOR VALUES A(0) = 0                                                          *010 LM00020
                  VECTOR VALUES FENCE = 777777777777K                                             *011 LM00021
                                                                                                       LM00022
                  DIMENSION A(20),LINE(72)                                                        *012 LM00023
                                                                                                       LM00024
                      IDENTIFY PSEUDO-USER AS DAEMON                                                   LM00025
                                                                                                       LM00026
                  ENTRY TO WHOAMI.                                                                *013 LM00027
                  X(0) = SYSTEM                                                                   *014 LM00028
                  X(32767) = DAEMON                                                               *015 LM00029
                  FUNCTION RETURN                                                                 *016 LM00030
                                                                                                       LM00031
                      PRODUCE STANDARD FORM ARGUMENTS                                                  LM00032
                                                                                                       LM00033
                  ENTRY TO COMARG.                                                                *017 LM00034
                  Y = A(X)                                                                        *018 LM00035
                  FUNCTION RETURN Y                                                               *019 LM00036
                                                                                                       LM00037
                      COLLECT ARGUMENTS INTO STANDARD FORM                                             LM00038
                                                                                                       LM00039
                  ENTRY TO GETARG.                                                                *020 LM00040
                  ENTRY TO DORMNT.                                                                *021 LM00041
                  SETEOF.(EOF)                                                                    *022 LM00042
                  I = 1                                                                           *023 LM00043
                  READ FORMAT INPUT, LINE(1)...LINE(72)                                           *024 LM00044
                                                                                                       LM00045
                      INITIALIZE ARGUMENT STRING                                                       LM00046
                                                                                                       LM00047
                  THROUGH LOOP1, FOR J=1,1,J.G.MXARG                                              *025 LM00048
                       A(J) = BLANKS                                                              *026 LM00049
      LOOP1       CONTINUE                                                                        *027 LM00050
                                                                                                       LM00051
                      STANDARDIZE ARGUMENTS                                                            LM00052
                                                                                                       LM00053
                  BREAK = 1B                                                                      *028 LM00054
                  THROUGH LOOP2, FOR J=1,1,(J.G.72).OR.(I.G.MXARG)                                *029 LM00055
                       WHENEVER LINE(J) .E. BLANK1                                                *030 LM00056
                            WHENEVER .NOT. BREAK, I= I+1                                          *031 LM00057
                            BREAK = 1B                                                            *032 LM00058
                            TRANSFER TO LOOP2                                                     *033 LM00059
                       OTHERWISE                                                                  *034 LM00060
                            BREAK = 0B                                                            *035 LM00061
                            A(I) = (A(I).LS.6).V.LINE(J)                                          *036 LM00062
                       END OF CONDITIONAL                                                         *037 LM00063
      LOOP2       CONTINUE                                                                        *038 LM00064
                                                                                                       LM00065
                      INSERT FENCE                                                                     LM00066
                                                                                                       LM00067
                  WHENEVER (A(I) .E. BLANKS)                                                      *039 LM00068
      EOF              A(I) = FENCE                                                               *040 LM00069
                  OTHERWISE                                                                       *041 LM00070
                       A(I+1) = FENCE                                                             *042 LM00071
                  END OF CONDITIONAL                                                              *043 LM00072
                  FUNCTION RETURN                                                                 *044 LM00073
                                                                                                       LM00074
                      TREATMENT FOR STATUS CHANGES                                                     LM00075
                                                                                                       LM00076
                  ENTRY TO CHNCOM.                                                                *045 LM00077
                  EXIT.                                                                           *046 LM00078
                                                                                                       LM00079
                      PRINT WRITE-AROUND                                                               LM00080
                      THIS ROUTINE STRIPS OUT NULLS SO THAT ON-LINE                                    LM00081
                      OUTPUT IS NICE AND PRETTY                                                        LM00082
                                                                                                       LM00083
                  ENTRY TO PRNTP.                                                                 *047 LM00084
                  L = 73                                                                          *048 LM00085
                  K = 72                                                                          *049 LM00086
                  I = 0                                                                           *050 LM00087
                                                                                                       LM00088
                      LOOK FOR FENCE IN PRINT LINE                                                     LM00089
                                                                                                       LM00090
      TFENCE      WHENEVER ((X(I).A.7777K).E.7777K), TRANSFER TO KAPUT                            *051 LM00091
                                                                                                       LM00092
                      CLEAR CHARACTER WORK AREA                                                        LM00093
                                                                                                       LM00094
                  THROUGH LOOPC, FOR J=K,-1,(J .L. (K-5))                                         *052 LM00095
                       LINE(J) = BLANK1                                                           *053 LM00096
      LOOPC       CONTINUE                                                                        *054 LM00097
                  K = K - 6                                                                       *055 LM00098
                                                                                                       LM00099
                      SQUEEZE OUT NULLS                                                                LM00100
                                                                                                       LM00101
                  THROUGH LOOP3,FOR J=0,6,J.E.36                                                  *056 LM00102
                       CH = ((X(I).RS.(30-J)).A.77K)                                              *057 LM00103
                       WHENEVER (CH.E.57K), TRANSFER TO LOOP3                                     *058 LM00104
                       L = L - 1                                                                  *059 LM00105
                       LINE(L) = CH                                                               *060 LM00106
      LOOP3       CONTINUE                                                                        *061 LM00107
                                                                                                       LM00108
                      EXAMINE NEXT WORD IN PRINT LINE                                                  LM00109
                                                                                                       LM00110
                  I = I+1                                                                         *062 LM00111
                  TRANSFER TO TFENCE                                                              *063 LM00112
                                                                                                       LM00113
                      REPACK DE-NULLED LINE                                                            LM00114
                                                                                                       LM00115
      KAPUT       K = 78                                                                          *064 LM00116
                  THROUGH LOOP5, FOR I=72,-1,K .L. L                                              *065 LM00117
                       K = K - 6                                                                  *066 LM00118
                       THROUGH LOOP4, FOR J=0,1,J .E. 6                                           *067 LM00119
                            LINE(I) = (LINE(I).LS.6).V.LINE(K-J)                                  *068 LM00120
      LOOP4            CONTINUE                                                                   *069 LM00121
      LOOP5       CONTINUE                                                                        *070 LM00122
                                                                                                       LM00123
                      NOW PRINT PACKED LINE                                                            LM00124
                                                                                                       LM00125
                  WRITE.(LINE(72),71-I)                                                           *071 LM00126
                  FUNCTION RETURN                                                                 *072 LM00127
                                                                                                       LM00128
                  END OF FUNCTION                                                                 *073 LM00129
1MAD PROGRAM,TYPE NOV 1963      (ALL NUMBERS ARE OCTAL)
0TOTAL LOCATIONS   00561 TRANSFER VECTOR LENGTH  00004 PROGRAM BEGINS    00204
0 PROGRAM IS AN EXTERNAL FUNCTION.   THE FOLLOWING ARE ENTRIES
      PRNTP  00353   0        CHNCOM 00347   0        DORMNT 00230   0        GETARG 00225   0        COMARG 00215   0
      WHOAMI 00205   0
0VARIABLE STORAGE (A=ARRAY,C=COMMON,E=ERASABLE,DIGIT=MODE)
      A      00036 A 1        DAEMON 00043 A 1        J      00050   1        LOOP2  00007   4        L      00163   1
      BLANK1 00037 A 1        EOF    00005   4        KAPUT  00006   4        LOOP3  00010   4        MXARG  00164 A 1
      BLANKS 00040 A 1        FENCE  00044 A 1        K      00051   1        LOOP4  00004   4        SYSTEM 00165 A 1
      BREAK  00041   2        INPUT  00046 A 1        LINE   00162 A 1        LOOP5  00004   4        TFENCE 00011   4
      CH     00042   1        I      00047   1        LOOP1  00004   4        LOOPC  00004   4
0FUNCTION DICTIONARY
      EXIT   00000   1        .READ  00001   1        SETEOF 00002   1        WRITE  00003   1
0ABSOLUTE CONSTANTS
 00176 +000000000107     00201 +000000000116     00174 +000000000057     00175 +000000000077     00172 +000000000036
 00173 +000000000044     00170 +000000000005     00202 +000000007777     00200 +000000000111     00171 +000000000006
 00166 +000000000000     00177 +000000000110     00167 +000000000001     00203 +233000000000
0STATEMENT DICTIONARY
 00005 TXL -300337000334       00006 TXL -300460000456       00007 TXL -300330000327       00010 TXL -300452000451
 00011 TXL -300373000363
0PROGRAM
                 EXTERNAL FUNCTION (X,Y)                                            001  LM00008
                 N'R                                                                002  LM00010
                 B'N BREAK                                                          003  LM00011
                 V'S BLANK1 = $00000 $                                              004  LM00013
 00037     +0 00000 0 00060
                 V'S SYSTEM = $ C0056$                                              005  LM00014
 00165     -2 02300 0 00506
                 V'S DAEMON = $ 99999$                                              006  LM00015
 00043     -2 01111 1 11111
                 V'S BLANKS = $      $                                              007  LM00016
 00040     -2 06060 6 06060
                 V'S INPUT = $72(RZC1)*$                                            008  LM00017
 00045     +0 13454 6 06060    00046     +0 70274 5 17123
                 V'S MXARG = 18                                                     009  LM00019
 00164     +0 00000 0 00022
                 V'S A(0) = 0                                                       010  LM00020
 00036     +0 00000 0 00000
                 V'S FENCE = 777777777777K                                          011  LM00021
 00044     -3 77777 7 77777
                 D'N A(20),LINE(72)                                                 012  LM00023
                 E'O WHOAMI.                                                        013  LM00027
 00204 TRA +0 02000 0 00207    00205 SXA +0 63400 2 00534    00206 TSX +0 07400 2 00534
                 X(0) = SYSTEM                                                      014  LM00028
 00207 CLA +0 50000 0 00165    00210 STO +0 60100 0 00024
                 X(32767) = DAEMON                                                  015  LM00029
 00211 CLA +0 50000 0 00043    00212 STO +0 60100 0 77777
                 F'N                                                                016  LM00030
 00213 TRA +0 02000 0 00552
                 E'O COMARG.                                                        017  LM00034
 00214 TRA +0 02000 0 00217    00215 SXA +0 63400 2 00534    00216 TSX +0 07400 2 00534
                 Y = A(X)                                                           018  LM00035
 00217 LXA +0 53400 2 00024    00220 CLA +0 50000 2 00036    00221 STO +0 60100 0 00024
                 F'N Y                                                              019  LM00036
 00222 CLA +0 50000 0 00024    00223 TRA +0 02000 0 00552
                 E'O GETARG.                                                        020  LM00040
 00224 TRA +0 02000 0 00227    00225 SXA +0 63400 2 00534    00226 TSX +0 07400 2 00534
                 E'O DORMNT.                                                        021  LM00041
 00227 TRA +0 02000 0 00232    00230 SXA +0 63400 2 00534    00231 TSX +0 07400 2 00534
                 SETEOF.(EOF)                                                       022  LM00042
 00232 TSX +0 07400 4 00002    00233 TXH +3 00000 0 00005
                 I = 1                                                              023  LM00043
 00234 CLA +0 50000 0 00167    00235 STO +0 60100 0 00047
                 R'T INPUT, LINE(1)...LINE(72)                                      024  LM00044
 00236 TSX +0 07400 4 00001    00237 STR -1 00046 1 00557    00240 STR -1 00052 0 00161    00241 STR -1 00000 0 00000
                 T'H LOOP1, FOR J=1,1,J.G.MXARG                                     025  LM00048
 00242 CLA +0 50000 0 00167    00243 STO +0 60100 0 00050    00244 TRA +0 02000 0 00250    00245 CLA +0 50000 0 00050
 00246 ADD +0 40000 0 00167    00247 STO +0 60100 0 00050    00250 CLA +0 50000 0 00050    00251 SUB +0 40200 0 00164
 00252 TZE +0 10000 0 00254    00253 TPL +0 12000 0 00260
                      A(J) = BLANKS                                                 026  LM00049
 00254 LXA +0 53400 1 00050    00255 CLA +0 50000 0 00040    00256 STO +0 60100 1 00036
      LOOP1      C'E                                                                027  LM00050
 00257 TRA +0 02000 0 00245
                 BREAK = 1B                                                         028  LM00054
 00260 CLA +0 50000 0 00167    00261 STO +0 60100 0 00041
                 T'H LOOP2, FOR J=1,1,(J.G.72).OR.(I.G.MXARG)                       029  LM00055
 00262 CLA +0 50000 0 00167    00263 STO +0 60100 0 00050    00264 TRA +0 02000 0 00270    00265 CLA +0 50000 0 00050
 00266 ADD +0 40000 0 00167    00267 STO +0 60100 0 00050    00270 CLA +0 50000 0 00047    00271 SUB +0 40200 0 00164
 00272 TZE +0 10000 0 00274    00273 TPL +0 12000 0 00330    00274 CLA +0 50000 0 00050    00275 SUB +0 40200 0 00177
 00276 TZE +0 10000 0 00300    00277 TPL +0 12000 0 00330
                      W'R LINE(J) .E. BLANK1                                        030  LM00056
 00300 LXA +0 53400 1 00050    00301 CLA +0 50000 1 00162    00302 SUB +0 40200 0 00037    00303 TNZ -0 10000 0 00315
                           W'R .NOT. BREAK, I= I+1                                  031  LM00057
 00304 ZET +0 52000 0 00041    00305 TRA +0 02000 0 00311    00306 CLA +0 50000 0 00047    00307 ADD +0 40000 0 00167
 00310 STO +0 60100 0 00047
                           BREAK = 1B                                               032  LM00058
 00311 CLA +0 50000 0 00167    00312 STO +0 60100 0 00041
                           T'O LOOP2                                                033  LM00059
 00313 TRA +0 02000 0 00007
                      O'E                                                           034  LM00060
 00314 TRA +0 02000 0 00327
                           BREAK = 0B                                               035  LM00061
 00315 CLA +0 50000 0 00166    00316 STO +0 60100 0 00041
                           A(I) = (A(I).LS.6).V.LINE(J)                             036  LM00062
 00317 LXA +0 53400 1 00047    00320 CAL -0 50000 0 00171    00321 STA +0 62100 0 00323    00322 CAL -0 50000 1 00036
 00323 ALS +0 76700 0 00000    00324 LXA +0 53400 2 00050    00325 ORA -0 50100 2 00162    00326 SLW +0 60200 1 00036
                      E'L                                                           037  LM00063
      LOOP2      C'E                                                                038  LM00064
 00327 TRA +0 02000 0 00265
                 W'R (A(I) .E. BLANKS)                                              039  LM00068
 00330 LXA +0 53400 1 00047    00331 CLA +0 50000 1 00036    00332 SUB +0 40200 0 00040    00333 TNZ -0 10000 0 00340
      EOF             A(I) = FENCE                                                  040  LM00069
 00334 LXA +0 53400 1 00047    00335 CLA +0 50000 0 00044    00336 STO +0 60100 1 00036
                 O'E                                                                041  LM00070
 00337 TRA +0 02000 0 00345
                      A(I+1) = FENCE                                                042  LM00071
 00340 CLA +0 50000 0 00047    00341 ADD +0 40000 0 00167    00342 PAX +0 73400 1 00000    00343 CLA +0 50000 0 00044
 00344 STO +0 60100 1 00036
                 E'L                                                                043  LM00072
                 F'N                                                                044  LM00073
 00345 TRA +0 02000 0 00552
                 E'O CHNCOM.                                                        045  LM00077
 00346 TRA +0 02000 0 00351    00347 SXA +0 63400 2 00534    00350 TSX +0 07400 2 00534
                 EXIT.                                                              046  LM00078
 00351 TSX +0 07400 4 00000
                 E'O PRNTP.                                                         047  LM00084
 00352 TRA +0 02000 0 00355    00353 SXA +0 63400 2 00534    00354 TSX +0 07400 2 00534
                 L = 73                                                             048  LM00085
 00355 CLA +0 50000 0 00200    00356 STO +0 60100 0 00163
                 K = 72                                                             049  LM00086
 00357 CLA +0 50000 0 00177    00360 STO +0 60100 0 00051
                 I = 0                                                              050  LM00087
 00361 CLA +0 50000 0 00166    00362 STO +0 60100 0 00047
      TFENCE     W'R ((X(I).A.7777K).E.7777K), T'O KAPUT                            051  LM00091
 00363 LXA +0 53400 1 00047    00364 CAL -0 50000 1 00024    00365 ANA -0 32000 0 00202    00366 SLW +0 60200 0 00556
 00367 CLA +0 50000 0 00556    00370 SUB +0 40200 0 00202    00371 TNZ -0 10000 0 00373    00372 TRA +0 02000 0 00006
                 T'H LOOPC, FOR J=K,-1,(J .L. (K-5))                                052  LM00095
 00373 CLA +0 50000 0 00051    00374 STO +0 60100 0 00050    00375 TRA +0 02000 0 00401    00376 CLS +0 50200 0 00167
 00377 ADD +0 40000 0 00050    00400 STO +0 60100 0 00050    00401 CLA +0 50000 0 00051    00402 SUB +0 40200 0 00170
 00403 CHS +0 76000 0 00002    00404 ADD +0 40000 0 00050    00405 TZE +0 10000 0 00407    00406 TMI -0 12000 0 00413
                      LINE(J) = BLANK1                                              053  LM00096
 00407 LXA +0 53400 1 00050    00410 CLA +0 50000 0 00037    00411 STO +0 60100 1 00162
      LOOPC      C'E                                                                054  LM00097
 00412 TRA +0 02000 0 00376
                 K = K - 6                                                          055  LM00098
 00413 CLA +0 50000 0 00051    00414 SUB +0 40200 0 00171    00415 STO +0 60100 0 00051
                 T'H LOOP3,FOR J=0,6,J.E.36                                         056  LM00102
 00416 CLA +0 50000 0 00166    00417 STO +0 60100 0 00050    00420 TRA +0 02000 0 00424    00421 CLA +0 50000 0 00050
 00422 ADD +0 40000 0 00171    00423 STO +0 60100 0 00050    00424 CLA +0 50000 0 00050    00425 SUB +0 40200 0 00173
 00426 TZE +0 10000 0 00452
                      CH = ((X(I).RS.(30-J)).A.77K)                                 057  LM00103
 00427 CLA +0 50000 0 00172    00430 SUB +0 40200 0 00050    00431 LXA +0 53400 1 00047    00432 STA +0 62100 0 00434
 00433 CAL -0 50000 1 00024    00434 LGR -0 76500 0 00000    00435 ANA -0 32000 0 00175    00436 SLW +0 60200 0 00042
                      W'R (CH.E.57K), T'O LOOP3                                     058  LM00104
 00437 CLA +0 50000 0 00042    00440 SUB +0 40200 0 00174    00441 TNZ -0 10000 0 00443    00442 TRA +0 02000 0 00010
                      L = L - 1                                                     059  LM00105
 00443 CLA +0 50000 0 00163    00444 SUB +0 40200 0 00167    00445 STO +0 60100 0 00163
                      LINE(L) = CH                                                  060  LM00106
 00446 LXA +0 53400 1 00163    00447 CLA +0 50000 0 00042    00450 STO +0 60100 1 00162
      LOOP3      C'E                                                                061  LM00107
 00451 TRA +0 02000 0 00421
                 I = I+1                                                            062  LM00111
 00452 CLA +0 50000 0 00047    00453 ADD +0 40000 0 00167    00454 STO +0 60100 0 00047
                 T'O TFENCE                                                         063  LM00112
 00455 TRA +0 02000 0 00011
      KAPUT      K = 78                                                             064  LM00116
 00456 CLA +0 50000 0 00201    00457 STO +0 60100 0 00051
                 T'H LOOP5, FOR I=72,-1,K .L. L                                     065  LM00117
 00460 CLA +0 50000 0 00177    00461 STO +0 60100 0 00047    00462 TRA +0 02000 0 00466    00463 CLS +0 50200 0 00167
 00464 ADD +0 40000 0 00047    00465 STO +0 60100 0 00047    00466 CLA +0 50000 0 00051    00467 SUB +0 40200 0 00163
 00470 TZE +0 10000 0 00472    00471 TMI -0 12000 0 00523
                      K = K - 6                                                     066  LM00118
 00472 CLA +0 50000 0 00051    00473 SUB +0 40200 0 00171    00474 STO +0 60100 0 00051
                      T'H LOOP4, FOR J=0,1,J .E. 6                                  067  LM00119
 00475 CLA +0 50000 0 00166    00476 STO +0 60100 0 00050    00477 TRA +0 02000 0 00503    00500 CLA +0 50000 0 00050
 00501 ADD +0 40000 0 00167    00502 STO +0 60100 0 00050    00503 CLA +0 50000 0 00050    00504 SUB +0 40200 0 00171
 00505 TZE +0 10000 0 00522
                           LINE(I) = (LINE(I).LS.6).V.LINE(K-J)                     068  LM00120
 00506 CLA +0 50000 0 00051    00507 SUB +0 40200 0 00050    00510 LXA +0 53400 1 00047    00511 STO +0 60100 0 00556
 00512 CAL -0 50000 0 00171    00513 STA +0 62100 0 00515    00514 CAL -0 50000 1 00162    00515 ALS +0 76700 0 00000
 00516 LXA +0 53400 2 00556    00517 ORA -0 50100 2 00162    00520 SLW +0 60200 1 00162
      LOOP4           C'E                                                           069  LM00121
 00521 TRA +0 02000 0 00500
      LOOP5      C'E                                                                070  LM00122
 00522 TRA +0 02000 0 00463
                 WRITE.(LINE(72),71-I)                                              071  LM00126
 00523 CLA +0 50000 0 00176    00524 SUB +0 40200 0 00047    00525 STO +0 60100 0 00556    00526 TSX +0 07400 4 00003
 00527 TXH +3 00000 0 00052    00530 TXH +3 00000 0 00556
                 F'N                                                                072  LM00127
 00531 TRA +0 02000 0 00552
                 E'N                                                                073  LM00129
 00532 TSX +0 07400 4 00000    00533 PZE +0 00000 0 77777    00534 TXH +3 00000 0 00000    00535 SXD -0 63400 1 00534
 00536 SXA +0 63400 4 00552    00537 CLA +0 50000 4 00001    00540 STA +0 62100 0 00210    00541 STA +0 62100 0 00217
 00542 STA +0 62100 0 00364    00543 STA +0 62100 0 00433    00544 SUB +0 40200 0 00533    00545 STA +0 62100 0 00212
 00546 CLA +0 50000 4 00002    00547 STA +0 62100 0 00221    00550 STA +0 62100 0 00222    00551 TRA +0 02000 2 00001
 00552 AXT +0 77400 4 00000    00553 LXA +0 53400 2 00534    00554 LXD -0 53400 1 00534    00555 TRA +0 02000 4 00001


TSSLIB   BCD 05/28/67 2019.0    1502         00000
