1                                                                                                PAGE 1
                           CTSS LIBRARY ENTRIES


  BINARY CARD NO. TSSLIB00
                       00016         ENTRY   ZEL
                       00022         ENTRY   BZEL
                       00026         ENTRY   WRITE
                       00012         ENTRY   DERBC
                       00005         ENTRY   BCDEC

                                     EXTERN  DTBC,BTDC,WRFLX

                                             THIS SET OF ROUTINES SUPPLIES CONVERSION
                                             ROUTINES CONTAINED IN CTSS LIBRARIES BUT
                                             NOT FOUND IN FMS BACKGROUND LIBRARIES

                                                           D.R. WIDRIG DEC. 1965


        TRANSFER VECTOR

  BINARY CARD NO. TSSLIB01
      00000  246322236060     DTBC
      00001  226324236060     BTDC
      00002  665126436760     WRFLX

            LINKAGE DIRECTOR
      00003  000000000000
      00004  712543606060

      00005  0634 00 4 00041  BCDEC  SXA     IR4,4         SAVE RETURN
      00006  0560 60 4 00001         LDQ*    1,4           GET WORD TO BE CONVERTED
      00007 -0154 06 0 00042         CRQ     A1,,6         ZERO LEADING BLANKS
      00010  0074 00 4 00000         TSX     DTBC,4        CONVERT BCD TO BINARY
      00011  0020 00 0 00037         TRA     RETURN        EXIT

      00012  0634 00 4 00041  DERBC  SXA     IR4,4         SAVE RETURN
      00013  0560 60 4 00001         LDQ*    1,4           GET WORD TO BE CONVERTED
      00014  0074 00 4 00001         TSX     BTDC,4        CONVERT BINARY WORD TO BCD
      00015  0020 00 0 00037         TRA     RETURN        EXIT

      00016  0560 60 4 00001  ZEL    LDQ*    1,4           GET WORD TO BE ADJUSTED
      00017 -0154 06 0 00042         CRQ     A1,,6         DO TABLE CONVERT
      00020  0131 00 0 00000         XCA                   RESTORE ANSWER TO AC
      00021  0020 00 4 00002         TRA     2,4           RETURN

      00022  0560 60 4 00001  BZEL   LDQ*    1,4           GET WORD TO BE ADJUSTED
      00023 -0154 06 0 00142         CRQ     B1,,6         DO TABLE CONVERT

  BINARY CARD NO. TSSLIB02
      00024  0131 00 0 00000         XCA                   RESTORE ANSWER TO AC
      00025  0020 00 4 00002         TRA     2,4           RETURN

      00026  0634 00 4 00041  WRITE  SXA     IR4,4         SAVE LINKAGE
      00027  0500 00 4 00001         CLA     1,4           GET POINTER TO VECTOR
      00030  0621 00 0 00035         STA     *+5           SAVE IT
1                                                                                                PAGE 2
                           CTSS LIBRARY ENTRIES

      00031  0500 60 4 00002         CLA*    2,4           GET WORD COUNT
      00032  0767 00 0 00022         ALS     18            MOVE TO DECREMENT
      00033  0622 00 0 00035         STD     *+2           SAVE WORD COUNT
      00034  0074 00 4 00002         TSX     WRFLX,4       PRINT LINE
      00035  0 00000 0 00000         PZE     **,,**        ..
      00036  0020 00 0 00037         TRA     RETURN        EXIT

      00037  0534 00 4 00041  RETURN LXA     IR4,4         RESTORE LINKAGE
      00040  0020 00 4 00002         TRA     2,4           RETURN TO CALLER
1                                                                                                PAGE 3
                           CTSS LIBRARY ENTRIES

                                             CONSTANTS, TABLES, ETC.
      00041  0 00000 0 00000  IR4    PZE
                       00042  A1     DUP     1,48
      00042  000000000242            VFD     6/*-A1,30/C1

  BINARY CARD NO. TSSLIB03

  BINARY CARD NO. TSSLIB04

  BINARY CARD NO. TSSLIB05
      00122  0 00000 0 00042         PZE     A1
                       00123         DUP     1,15
      00123  610000000242            VFD     6/*-A1,30/C1

      00142 -2 00000 0 00142  B1     SIX     B1
                       00143         DUP     1,63
      00143  010000000242            VFD     6/*-B1,30/C1

  BINARY CARD NO. TSSLIB06

  BINARY CARD NO. TSSLIB07

  BINARY CARD NO. TSSLIB08

  BINARY CARD NO. TSSLIB09

                       00242  C1     DUP     1,64
      00242  000000000242            VFD     6/*-C1,30/C1

  BINARY CARD NO. TSSLIB10

  BINARY CARD NO. TSSLIB11

  BINARY CARD NO. TSSLIB12
                                     END
1                                                                                                PAGE 1
                        POST PROCESSOR ASSEMBLY DATA

        342 IS THE FIRST LOCATION NOT USED BY THIS PROGRAM

0REFERENCES TO DEFINED SYMBOLS
         42     A1     7,   17,   42,   43,   44,   45,   46,   47,   50,   51,   52,   53,   54,   55,   56,   57,   60
                      61,   62,   63,   64,   65,   66,   67,   70,   71,   72,   73,   74,   75,   76,   77,  100,  101
                     102,  103,  104,  105,  106,  107,  110,  111,  112,  113,  114,  115,  116,  117,  120,  121,  122
                     123,  124,  125,  126,  127,  130,  131,  132,  133,  134,  135,  136,  137,  140,  141
        142     B1    23,  142,  143,  144,  145,  146,  147,  150,  151,  152,  153,  154,  155,  156,  157,  160,  161
                     162,  163,  164,  165,  166,  167,  170,  171,  172,  173,  174,  175,  176,  177,  200,  201,  202
                     203,  204,  205,  206,  207,  210,  211,  212,  213,  214,  215,  216,  217,  220,  221,  222,  223
                     224,  225,  226,  227,  230,  231,  232,  233,  234,  235,  236,  237,  240,  241
        242     C1    42,   43,   44,   45,   46,   47,   50,   51,   52,   53,   54,   55,   56,   57,   60,   61,   62
                      63,   64,   65,   66,   67,   70,   71,   72,   73,   74,   75,   76,   77,  100,  101,  102,  103
                     104,  105,  106,  107,  110,  111,  112,  113,  114,  115,  116,  117,  120,  121,  123,  124,  125
                     126,  127,  130,  131,  132,  133,  134,  135,  136,  137,  140,  141,  143,  144,  145,  146,  147
                     150,  151,  152,  153,  154,  155,  156,  157,  160,  161,  162,  163,  164,  165,  166,  167,  170
                     171,  172,  173,  174,  175,  176,  177,  200,  201,  202,  203,  204,  205,  206,  207,  210,  211
                     212,  213,  214,  215,  216,  217,  220,  221,  222,  223,  224,  225,  226,  227,  230,  231,  232
                     233,  234,  235,  236,  237,  240,  241,  242,  243,  244,  245,  246,  247,  250,  251,  252,  253
                     254,  255,  256,  257,  260,  261,  262,  263,  264,  265,  266,  267,  270,  271,  272,  273,  274
                     275,  276,  277,  300,  301,  302,  303,  304,  305,  306,  307,  310,  311,  312,  313,  314,  315
                     316,  317,  320,  321,  322,  323,  324,  325,  326,  327,  330,  331,  332,  333,  334,  335,  336
                     337,  340,  341
         41    IR4     5,   12,   26,   37
         16    ZEL     0
          1   BTDC    14
         22   BZEL     0
          0   DTBC    10
          5  BCDEC     0
         12  DERBC     0
          2  WRFLX    34
         26  WRITE     0
         37 RETURN    11,   15,   36

0 NO ERROR IN ABOVE ASSEMBLY.


IOHSIM   BCD 05/28/67 2019.0    1282         00000
1                                                                                                PAGE 1
                           PACKAGE TO SIMULATE (IOH)


  BINARY CARD NO. IOHSIM00
                       00005         ENTRY   .READ
                       00052         ENTRY   SETEOF
                                     EXTERN  EXIT,TPWAIT,RDCARD

                                             THIS PACKAGE IS A CUT-DOWN FORM OF (IOH). IT
                                             IS USED IN NON-FOREGROUND RETRIEVALS.  ITS ONLY
                                             USE IS TO PROVIDE SUPPORT FOR THE FOLLOWING
                                             INPUT STATEMENT IN 'COMPAT' ...

                                             R'T INPUT, LINE(1) ... LINE(72)
                                             V'S INPUT = $72(RZC1)*$

                                                           D.R. WIDRIG  DEC. 1965


        TRANSFER VECTOR

  BINARY CARD NO. IOHSIM01
      00000  256731636060     EXIT
      00001  634766213163     TPWAIT
      00002  512423215124     RDCARD

            LINKAGE DIRECTOR
      00003  000000000000
      00004  335125212460

                       01202  U      TAPENO  A2

      00005  0634 00 4 00033  .READ  SXA     X4,4          SAVE LINKAGE
      00006  0634 00 2 00034         SXA     X2,2          SAVE USER IRS
      00007  0634 00 1 00035         SXA     X1,1          ..
      00010  0500 00 4 00002         CLA     2,4           GET VECTOR POINTER WORD
      00011  0601 00 0 00073         STO     PTR           SAVE IT
      00012  0760 00 0 00163         SWT     3             TEST SWITCH 3 TO SEE WHERE INPUT COMES FROM
      00013  0020 00 0 00037         TRA     TAPE          UP, INPUT TAPE
      00014  0074 00 4 00002         TSX     RDCARD,4      DOWN, CARD READER
      00015  0 00055 0 00057         PZE     BUFF,,EOF     ..

      00016 -0535 00 4 00073  PEEL   LDC     PTR,4         GET NEGATIVE OF STOPPING LOCATION
      00017 -0634 00 4 00030         SXD     TEST,4        SAVE IT
      00020  0535 00 4 00073         LAC     PTR,4         GET NEGATIVE OF START
      00021  0774 00 2 00000         AXT     0,2           INITIALIZE BUFFER POINTER
      00022  0560 00 2 00057  RELOAD LDQ     BUFF,2        GET FRESH WORD
      00023  0774 00 1 00006         AXT     6,1           RESET SHIFT COUNT

  BINARY CARD NO. IOHSIM02
      00024 -0754 00 0 00000  NEXT   ZAC                   CLEAR AC
      00025 -0763 00 0 00006         LGL     6             GET NEXT CHARACTER
      00026  0601 00 4 00000         STO     0,4           SAVE IN CALLING PROGRAM'S VECTOR
      00027  1 00001 4 00030         TXI     *+1,4,1       NEXT ENTRY IN VECTOR
      00030  3 00000 4 00033  TEST   TXH     DONE,4,**     TEST FOR COMPLETION
      00031  2 00001 1 00024         TIX     NEXT,1,1      NOT DONE, TEST SHIFT COUNT
1                                                                                                PAGE 2
                           PACKAGE TO SIMULATE (IOH)

      00032  1 77777 2 00022         TXI     RELOAD,2,-1   SHIFT EXHAUSTED, NEXT WORD PLEASE

                       00033  DONE   EQU     *             EXIT WHEN COMPLETE
      00033  0774 00 4 00000  X4     AXT     **,4          RESTORE LINKAGE
      00034  0774 00 2 00000  X2     AXT     **,2          RESTORE USER IRS
      00035  0774 00 1 00000  X1     AXT     **,1          ..
      00036  0020 00 4 00004         TRA     4,4           HOP OVER CALLER'S ARGUMENTS

      00037  0074 00 4 00001  TAPE   TSX     TPWAIT,4      WAIT FOR CHANNEL TO QUIET DOWN
      00040  3 00000 0 00001         PTH     1             CHANNEL A
      00041  0761 00 0 00000         NOP                   IGNORE TAPE CHECK
      00042  0761 00 0 00000         NOP                   IGNORE EOF RETURN
      00043  0762 00 0 01202         RTDU                  SELECT INPUT TAPE FOR READING
      00044  0540 00 0 00056         RCHU    TAPEWD        READ 12 WORDS
      00045  0074 00 4 00001         TSX     TPWAIT,4      WAIT FOR ACTION COMPLETED
      00046  3 00000 0 00001         PTH     1             CHANNEL A
      00047  0020 00 0 00037         TRA     TAPE          REDUNDANCY, DO IT AGAIN

  BINARY CARD NO. IOHSIM03
      00050  0020 00 0 00055         TRA     EOF           TAKE EOF RETURN
      00051  0020 00 0 00016         TRA     PEEL          EVERYTHING OK, PEEL CHARACTERS OUT OF WORDS
1                                                                                                PAGE 3
                           PACKAGE TO SIMULATE (IOH)


      00052  0500 60 4 00001  SETEOF CLA*    1,4           SET END-OF-FILE RETURN
      00053  0621 00 0 00055         STA     EOF           SAVE IN TRANSFER ADDRESS
      00054  0020 00 4 00002         TRA     2,4           RETURN TO CALLER

      00055  0020 00 0 00000  EOF    TRA     EXIT          EOF RETURN
1                                                                                                PAGE 4
                           PACKAGE TO SIMULATE (IOH)

                                             CONSTANTS, ETC.

      00056  0 00014 0 00057  TAPEWD IOCD    BUFF,,12
      00057                   BUFF   BSS     12            INPUT BUFFER

  BINARY CARD NO. IOHSIM04
      00073  0 00000 0 00000  PTR    PZE                   POINTER WORD TO VECTOR BASE, ETC.
                                     END
1                                                                                                PAGE 1
                        POST PROCESSOR ASSEMBLY DATA

         74 IS THE FIRST LOCATION NOT USED BY THIS PROGRAM

0REFERENCES TO DEFINED SYMBOLS
       1202      U     5,   43,   44
         35     X1     7
         34     X2     6
         33     X4     5
         55    EOF    15,   50,   53
         73    PTR    11,   16,   20
         57   BUFF    15,   22,   56
         33   DONE    30,   33
          0   EXIT    55
         24   NEXT    31
         16   PEEL    51
         37   TAPE    13,   47
         30   TEST    17
          5  .READ     0
          2 RDCARD    14
         22 RELOAD    32
         52 SETEOF     0
         56 TAPEWD    44
          1 TPWAIT    37,   45

0 NO ERROR IN ABOVE ASSEMBLY.


RDCARD   BCD 05/28/67 2019.0    2146         00000
1                                                                                                PAGE 1
                           READ A CARD FROM ON-LINE CARD READER


  BINARY CARD NO. RDCARD00
                       00004         ENTRY   RDCARD
                                     EXTERN  PRINT,TPWAIT

                                             RDCARD..... READ ONE CARD FROM ON-LINE CARD READER
                                                           TSX RDCARD,4
                                                               BUF,,EOFRTN

                                             THIS INCREDIBLE ROUTINE WAS PIRATED FROM THE CTSS
                                             CYLINDER LOADER.  IT READS ROW-BINARY CARDS
                                             FROM THE ON-LINE CARD READER.

                                                           D.R. WIDRIG  DEC. 1965


  BINARY CARD NO. RDCARD01
      00000  475131456360     PRINT
      00001  634766213163     TPWAIT


      00004  0634 00 4 00135  RDCARD SXA     X4,4
      00005  0634 00 2 00134         SXA     X2,2
      00006  0634 00 1 00133         SXA     XR1,1
      00007 -0500 00 4 00001         CAL     1,4           PICK UP ADDRESS OF CALLER'S BUFFER
      00010  0361 00 0 00347         ACL     =12           .. BUFF+12
      00011  0621 00 0 00131         STA     CTX
      00012  0074 00 4 00001         TSX     TPWAIT,4      WAIT ON CHANNEL 'A'
      00013  3 00000 0 00001         PTH     1             ..
      00014  0761 00 0 00000         NOP                   .. IGNORE TAPE CHECK
      00015  0761 00 0 00000         NOP                   .. AND EOF RETURNS
      00016  0774 00 1 00014         AXT     12,1          CLEAR BCD RECORD AREA
      00017  0600 00 1 00336         STZ     REC+12,1      ..
      00020  2 00001 1 00017         TIX     *-1,1,1       ..
      00021  0762 00 0 01321         RCDA                  READ A CARD FROM ON LINE READER
      00022  0540 00 0 00156         RCHA    CTB           ..
      00023  0074 00 4 00001         TSX     TPWAIT,4      WAIT UNTIL CARD IS READ

  BINARY CARD NO. RDCARD02
      00024  3 00000 0 00001         PTH     1             ..
      00025  0761 00 0 00000         NOP                   .. TAPE CHECK, SHOULD NEVER HAPPEN
      00026  0020 00 0 00137         TRA     EOF           .. END OF FILE RETURN

      00027  0774 00 4 00004         AXT     4,4           INITIALIZE LEFT HALF
      00030 -0774 00 2 00015  CT9    AXC     13,2
      00031  0441 00 0 00176         LDI     CTG           CLEAR SENSE IND
      00032 -0500 60 4 00172  CT10   CAL*    CTD+4,4
      00033  1 00002 2 00034         TXI     *+1,2,2
      00034 -0501 60 4 00172         ORA*    CTD+4,4
      00035  0602 00 0 00200         SLW     CTH
      00036  1 77764 2 00037         TXI     *+1,2,-12
      00037  0441 60 4 00172         LDI*    CTD+4,4
      00040  1 00002 2 00041         TXI     *+1,2,2
1                                                                                                PAGE 2
                           READ A CARD FROM ON-LINE CARD READER

      00041  0444 60 4 00172         OFT*    CTD+4,4
      00042  0020 00 0 00146  CT11   TRA     ERR
      00043  0442 60 4 00172         OSI*    CTD+4,4
      00044  0604 00 0 00202         STI     CTI
      00045  1 00024 2 00046         TXI     *+1,2,20
      00046  0441 60 4 00172         LDI*    CTD+4,4
      00047  1 77760 2 00050         TXI     *+1,2,-16

  BINARY CARD NO. RDCARD03
      00050  0774 00 1 00007         AXT     7,1
      00051  0444 60 4 00172  CT12   OFT*    CTD+4,4
      00052  0020 00 0 00146  CT13   TRA     ERR
      00053  0442 60 4 00172         OSI*    CTD+4,4
      00054  1 00002 2 00055         TXI     *+1,2,2
      00055  2 00001 1 00051         TIX     CT12,1,1
      00056  0440 00 0 00200         IIS     CTH
      00057  0444 60 4 00172         OFT*    CTD+4,4
      00060  0020 00 0 00146         TRA     ERR
      00061  0442 60 4 00172         OSI*    CTD+4,4
      00062  0442 00 0 00200         OSI     CTH
      00063  1 77760 2 00064         TXI     *+1,2,-16
      00064 -0046 00 0 00000         PIA
      00065 -0320 60 4 00172         ANA*    CTD+4,4
      00066  0602 00 0 00200         SLW     CTH
      00067 -0320 00 0 00202         ANA     CTI
      00070 -0100 00 0 00146         TNZ     ERR
      00071 -0500 60 4 00172         CAL*    CTD+4,4
      00072  0043 00 0 00000         OAI
      00073  0442 00 0 00202         OSI     CTI

  BINARY CARD NO. RDCARD04
      00074 -0320 00 0 00202         ANA     CTI
      00075  0602 60 4 00172         SLW*    CTD+4,4
      00076 -0046 00 0 00000         PIA
      00077  0760 00 0 00006         COM
      00100 -0501 00 0 00200         ORA     CTH
      00101  1 77772 2 00102         TXI     *+1,2,-6
      00102  0602 60 4 00172         SLW*    CTD+4,4
      00103  0774 00 1 00006  CT20   AXT     6,1
      00104 -0500 60 4 00172         CAL*    CTD+4,4
      00105  0602 00 0 00200         SLW     CTH
      00106  0560 00 0 00200  CT21   LDQ     CTH
      00107  0634 00 1 00114         SXA     X1,1
      00110  0774 00 1 00006         AXT     6,1
      00111  0767 00 0 00005  CT22   ALS     5
      00112 -0763 00 0 00001         LGL     1
      00113  2 00001 1 00111         TIX     CT22,1,1
      00114  0774 00 1 00000  X1     AXT     **,1
      00115 -0600 00 0 00200         STQ     CTH
      00116 -0130 00 0 00000         XCL
      00117  0200 00 2 00154  PCT23  MPY     CTA-1,2

  BINARY CARD NO. RDCARD05
      00120  0763 00 0 00043         LLS     35
      00121  0361 60 4 00176         ACL*    CTE+4,4
1                                                                                                PAGE 3
                           READ A CARD FROM ON-LINE CARD READER

      00122  0602 60 4 00176         SLW*    CTE+4,4
      00123  2 00001 1 00106         TIX     CT21,1,1
      00124  3 77775 2 00126  CT24   TXH     CT25,2,-3
      00125  1 00002 2 00103         TXI     CT20,2,2
      00126  2 00002 4 00030  CT25   TIX     CT9,4,2
      00127  0774 00 4 00014         AXT     12,4
      00130 -0500 00 4 00336         CAL     REC+12,4
      00131  0602 00 4 00000  CTX    SLW     **,4
      00132  2 00001 4 00130         TIX     *-2,4,1
      00133  0774 00 1 00000  XR1    AXT     **,1
      00134  0774 00 2 00000  X2     AXT     **,2
      00135  0774 00 4 00000  X4     AXT     **,4
      00136  0020 00 4 00002         TRA     2,4

      00137  0534 00 2 00134  EOF    LXA     X2,2          HERE ON EOF FROM CARD READER
      00140  0534 00 4 00135         LXA     X4,4          .. RESTORE CALLER'S IRS
      00141  0534 00 1 00133         LXA     XR1,1         ..
      00142 -0500 00 4 00001         CAL     1,4           PICK UP EOF RETURN
      00143  0771 00 0 00022         ARS     18            GET CALLER'S EOF RETURN

  BINARY CARD NO. RDCARD06
      00144  0621 00 0 00145         STA     *+1           PLANT IT
      00145  0020 00 0 00000         TRA     **            TAKE EOF RETURN

      00146  0074 00 4 00000  ERR    TSX     PRINT,4       HERE FOR ILLEGAL BCD IN CARD, PRINT ERROR
      00147  0 00011 0 00336                 CHS,,CHS1     ..
      00150  0000 00 0 00151         HTR     *+1           WAIT FOR REPLY
      00151  0534 00 4 00135         LXA     X4,4          RESTORE USER'S CONDITIONS
      00152  0534 00 2 00134         LXA     X2,2          ..
      00153  0534 00 1 00133         LXA     XR1,1         ..
      00154  0020 00 0 00004         TRA     RDCARD        READ NEXT CARD

      00155 +000000000011     CTA    OCT     11
      00156  0 00030 0 00206  CTB    IOCD    9ROWL,,24
      00157 +000000000010            OCT     10
      00160  0 00000 0 00000         PZE
      00161 +000000000007            OCT     7
      00162  0 00000 0 00000         PZE
      00163 +000000000006            OCT     6
      00164  0 00000 0 00000         PZE
      00165 +000000000005            OCT     5
      00166  0 00000 2 00205  CTD    PZE     9ROWL-1,2
      00167 +000000000004            OCT     4

  BINARY CARD NO. RDCARD07
      00170  0 00000 2 00206         PZE     9ROWL,2
      00171 +000000000003            OCT     3
      00172  0 00000 1 00330  CTE    PZE     REC+6,1
      00173 +000000000002            OCT     2
      00174  0 00000 1 00336         PZE     REC+12,1
      00175 +000000000001     CTF    OCT     1
      00176  0 00000 0 00000  CTG    PZE
      00177 +000000000012            OCT     12
      00200  0 00000 0 00000  CTH    PZE
      00201 +000000000040            OCT     40
1                                                                                                PAGE 4
                           READ A CARD FROM ON-LINE CARD READER

      00202  0 00000 0 00000  CTI    PZE
      00203 +000000000020            OCT     20
      00204  0 00000 0 00000  CTJ    PZE
      00205 +000000000060            OCT     60
      00206                   9ROWL  BSS     76
      00322                   REC    BSS     12


  BINARY CARD NO. RDCARD08
      00336  602362306026     CHS    BCI     9, CSH FOUND ILLEGAL BCD CARD. PUSH START TO IGNORE CARD
                       00011  CHS1   SYN     *-CHS

                                     END

        LITERALS
      00347  000000000014
1                                                                                                PAGE 1
                        POST PROCESSOR ASSEMBLY DATA

        350 IS THE FIRST LOCATION NOT USED BY THIS PROGRAM

0REFERENCES TO DEFINED SYMBOLS
        114     X1   107
        134     X2     5,  137,  152
        135     X4     4,  140,  151
        336    CHS   147,  347
         30    CT9   126
        155    CTA   117
        156    CTB    22
        166    CTD    32,   34,   37,   41,   43,   46,   51,   53,   57,   61,   65,   71,   75,  102,  104
        172    CTE   121,  122
        175    CTF
        176    CTG    31
        200    CTH    35,   56,   62,   66,  100,  105,  106,  115
        202    CTI    44,   67,   73,   74
        204    CTJ
        131    CTX    11
        137    EOF    26
        146    ERR    42,   52,   60,   70
        322    REC    17,  130,  172,  174
        133    XR1     6,  141,  153
         11   CHS1   147,  347
         32   CT10
         42   CT11
         51   CT12    55
         52   CT13
        103   CT20   125
        106   CT21   123
        111   CT22   113
        124   CT24
        126   CT25   124
        206  9ROWL   156,  166,  170
        117  PCT23
          0  PRINT   146
          4 RDCARD     0,  154
          1 TPWAIT    12,   23

0 NO ERROR IN ABOVE ASSEMBLY.


PRIMER   BCD 02/09/69 0532.0    8604         00000


 PRIME   BCD 04/16/68 1910.0    1504         00000
1        PRIMER FOR THE DAEMON  -  R. A. ROACH 4/16/68                                           PAGE 1

                              *
                              *
 M                            CALL   MACRO   PROG,LIST
                                     TSX     PROG,4
                                     IRP     LIST
                                     PTH     LIST
                                     IRP
                              CALL   END
                              *
                                     EXTERN  WRFLX,SETIO,ATTACH,CHFILE,DELFIL,OPEN,BUFFER,WRFILE,CLOSE
                                     EXTERN  RDCARD,CKDATE,EXIT

        TRANSFER VECTOR
      00000  665126436760     WRFLX
      00001  622563314660     SETIO
      00002  216363212330     ATTACH
      00003  233026314325     CHFILE
      00004  242543263143     DELFIL
      00005  464725456060     OPEN
      00006  226426262551     BUFFER
      00007  665126314325     WRFILE
      00010  234346622560     CLOSE
      00011  512423215124     RDCARD
      00012  234224216325     CKDATE
      00013  256731636060     EXIT

      00014  0000 00 0 00015         HTR     *+1           INITIAL PROGRAM STOP
      00015  0760 00 0 00016         EAXM                  MUST RUN IN 7-TAG MODE
      00016  0074 00 4 00001         TSX     SETIO,4       SETUP THE I/O SYSTEM
      00017  0 00000 0 00160         PZE     DAEMON        DAEMON WILL BE THE AUTHOR
      00020                          CALL    ATTACH(SYSTEM,DAEMON)
                              *
      00023                   READ   CALL    RDCARD((BUFF,,EOF))
      00025                          CALL    CKDATE(BUFF+1,BUFF,BADCRD)
      00031 -0500 00 0 01073         CAL     BUFF+1
      00032  0602 00 0 01110         SLW     T+2
      00033 -0500 00 0 01072         CAL     BUFF
      00034 -0765 00 0 00030         LGR     24
      00035  0074 00 4 00133         TSX     CVT,4
      00036 -0130 00 0 00000         XCL
      00037  0200 00 0 01113         MPY     =60
      00040 -0600 00 0 01075         STQ     BUFF+3
      00041 -0500 00 0 01072         CAL     BUFF
      00042 -0320 00 0 01116         ANA     =O77770000
      00043 -0765 00 0 00014         LGR     12
      00044  0074 00 4 00133         TSX     CVT,4
      00045  0400 00 0 01075         ADD     BUFF+3
      00046 -0130 00 0 00000         XCL
      00047  0200 00 0 01115         MPY     =3600
      00050 -0600 00 0 01107         STQ     T+1
      00051                          CALL    CHFILE(DRSTOR,FILE1,1,=-0,=-0,*)  CHANGE MODE TO TEMP
      00060                          CALL    DELFIL(DRSTOR,FILE1,*) AND DELETE IT
      00064                          CALL    CHFILE(DRSTOR,FILE2,1,=-0,=-0,*)  CHANGE MODE TO TEMP
      00073                          CALL    DELFIL(DRSTOR,FILE2,*) AND DELETE IT
      00077                          CALL    CHFILE(DRSTOR,FILE3,1,=-0,=-0,*) AND CHANGE MODE TO TEMP
      00106                          CALL    DELFIL(DRSTOR,FILE3,*) AND DELETE IT
1        PRIMER FOR THE DAEMON  -  R. A. ROACH 4/16/68                                           PAGE 2

      00112                          CALL    OPEN(=HW,DRSTOR,FILE3)
      00116                          CALL    BUFFER(DRSTOR,FILE3(BUFF1,,432))
      00122                          CALL    WRFILE(DRSTOR,FILE3,=0,(T,,3))
      00127                          CALL    CLOSE(DRSTOR,FILE3)
      00132  0074 00 4 00013         TSX     EXIT,4
                              *
      00133  0634 00 4 00144  CVT    SXA     XR4,4         CONVERT TIME
      00134  0602 00 0 01077         SLW     BUFF+5        NOT PRESENTLY USED
      00135 -0765 00 0 00006         LGR     6
      00136 -0130 00 0 00000         XCL
      00137  0200 00 0 01112         MPY     =10
      00140 -0500 00 0 01114         CAL     =O77
      00141  0320 00 0 01077         ANS     BUFF+5
      00142 -0130 00 0 00000         XCL
      00143  0400 00 0 01077         ADD     BUFF+5
      00144  0774 00 4 00000  XR4    AXT     **,4
      00145  0020 00 4 00001         TRA     1,4
                              *
      00146  0074 00 4 00000  EOF    TSX     WRFLX,4
      00147  0 00006 0 00165         PZE     MESS1,,6
      00150  0020 00 0 00023         TRA     READ
                              *
      00151  0074 00 4 00000  ERROR  TSX     WRFLX,4
      00152  0 00011 0 00173         PZE     MESS2,,9
      00153  0020 00 0 00146         TRA     EOF
                              *
      00154  0074 00 4 00000  BADCRD TSX     WRFLX,4
      00155  0 00006 0 00204         PZE     MESS3,,6
      00156  0020 00 0 00146         TRA     EOF
                              *
      00157  602300000506     SYSTEM BCI     1, C0056
      00160  601111111111     DAEMON BCI     1, 99999
      00161  245162634651     DRSTOR BCI     1,DRSTOR
      00162  263143253301     FILE1  BCI     1,FILE.1
      00163  263143253302     FILE2  BCI     1,FILE.2
      00164  263143253303     FILE3  BCI     1,FILE.3
      00165  604764636023     MESS1  BCI     6, PUT CARD IN READER PLEASE
      00166  215124603145
      00167  605125212425
      00170  516047432521
      00171  622560606060
      00172  606060606060
      00173  604751314431     MESS2  BCI     9, PRIMING FAILED, WILL TRY AGAIN
      00174  452760262131
      00175  432524736066
      00176  314343606351
      00177  706021272131
      00200  456060606060
      00201  606060606060
      00202  606060606060
      00203  606060606060
      00204  603143432527     MESS3  BCI     6, ILLEGAL DATE OR TIME, REPUNCH CARD
      00205  214360242163
      00206  256046516063
      00207  314425736051
      00210  254764452330
1        PRIMER FOR THE DAEMON  -  R. A. ROACH 4/16/68                                           PAGE 3

      00211  602321512460
      00212                   BUFF1  BSS     432
      01072                   BUFF   BSS     12
      01106  475146632363     T      BCI     3,PROTCT TIME DATE
      01107  606331442560
      01110  242163256060
                                     END

        LITERALS
      01111  000000000000
      01112  000000000012
      01113  000000000074
      01114  000000000077
      01115  000000007020
      01116  000077770000
      01117  400000000000
      01120  666060606060
1        PRIMER FOR THE DAEMON  -  R. A. ROACH 4/16/68                                           PAGE 1
                        POST PROCESSOR ASSEMBLY DATA

       1121 IS THE FIRST LOCATION NOT USED BY THIS PROGRAM

0REFERENCES TO DEFINED SYMBOLS
       1106      T    32,   50,  126
        133    CVT    35,   44
        146    EOF    24,  153,  156
        144    XR4   133
       1072   BUFF    24,   26,   27,   31,   33,   40,   41,   45,  134,  141,  143
         13   EXIT   132
          5   OPEN   112
         23   READ   150
        212  BUFF1   121
         10  CLOSE   127
        151  ERROR
        162  FILE1    53,   62
        163  FILE2    66,   75
        164  FILE3   101,  110,  115,  120,  124,  131
        165  MESS1   147
        173  MESS2   152
        204  MESS3   155
          1  SETIO    16
          0  WRFLX   146,  151,  154
          2 ATTACH    20
        154 BADCRD    30
          6 BUFFER   116
          3 CHFILE    51,   64,   77
         12 CKDATE    25
        160 DAEMON    17,   22
          4 DELFIL    60,   73,  106
        161 DRSTOR    52,   61,   65,   74,  100,  107,  114,  117,  123,  130
         11 RDCARD    23
        157 SYSTEM    21
          7 WRFILE   122

0 NO ERROR IN ABOVE ASSEMBLY.


CKDATE   BCD 04/16/68 1636.8    3237         00000
1     MAD PROGRAM LISTING ... ... ...                 FILE  CKDATE   MAD            04/16/68    1610.8
-
                  EXTERNAL FUNCTION (DATEIN,TIMEIN,BADATE)                                        *001 LM00001
                  ENTRY TO CKDATE.                                                                *002 LM00002
                  NORMAL MODE IS INTEGER                                                          *003 LM00003
                  STATEMENT LABEL BADATE                                                          *004 LM00004
                  DIMENSION MDY(3), MO(12), MASK(6), SHFT(6)                                      *005 LM00005
                  DATE=DATEIN                                                                     *006 LM00006
                  TIME=TIMEIN                                                                     *007 LM00007
                  WHENEVER (DATE.A.766074606060K).NE.0 .OR. (TIME.A.746070600000K)                *008 LM00008
                1 .NE.0, TRANSFER TO BADATE                                                       *008 LM00009
                  SW=0                                                                            *009 LM00010
                  THROUGH LOOP1, FOR J=0,6,J.G.36                                                 *010 LM00011
                  WHENEVER ((DATE.RS.J).A.77K) .E. 13K .OR. ((TIME.RS.J).A.77K) .E.               *011 LM00012
                1 14K, TRANSFER TO BADATE                                                         *011 LM00013
                  WHENEVER ((DATE.RS.J).A.77K) .E. 14K .OR. ((TIME.RS.J).A.77K) .E.               *012 LM00014
                1 13K, TRANSFER TO BADATE                                                         *012 LM00015
      LOOP1       CONTINUE                                                                        *013 LM00016
      BACK        THROUGH LOOP, FOR I=1,1,I.G.3                                                   *014 LM00017
      LOOP        MDY(I)=((DATE.A.MASK(I)).RS.SHFT(I))*10                                         *015 LM00018
                1 +((DATE.A.MASK(I+3)).RS.SHFT(I+3))                                              *015 LM00019
                  WHENEVER SW.NE.0, TRANSFER TO TIMCHK                                            *016 LM00020
                  MO(2)=28                                                                        *017 LM00021
                  WHENEVER (MDY(3).NE.0).AND.(MDY(3)-(MDY(3)/4)*4).E.0,                           *018 LM00022
                1 MO(2)=29                                                                        *018 LM00023
                  WHENEVER MDY(1).L.1 .OR. MDY(1).G.12, TRANSFER TO BADATE                        *019 LM00024
                  WHENEVER (MDY(3).L.0).OR.(MDY(3).G.99), TRANSFER TO BADATE                      *020 LM00025
                  WHENEVER (MDY(2).L.1).OR.(MDY(2).G.MO(MDY(1))), TRANSFER TO BADATE              *021 LM00026
                  DATE=TIME                                                                       *022 LM00027
                  SW=1                                                                            *023 LM00028
                  TRANSFER TO BACK                                                                *024 LM00029
      TIMCHK      WHENEVER MDY(1).L.0 .OR. MDY(1).GE.24, TRANSFER TO BADATE                       *025 LM00030
                  WHENEVER MDY(2).L.0 .OR. MDY(2).GE.60, TRANSFER TO BADATE                       *026 LM00031
                  FUNCTION RETURN                                                                 *027 LM00032
                  VECTOR VALUES MO=0,31,28,31,30,31,30,31,31,30,31,30,31                          *028 LM00033
                  VECTOR VALUES MDY=0,0,0,0                                                       *029 LM00034
                  VECTOR VALUES MASK=0,770000000000K,77000000K,7700K,7700000000K,770000K          *030 LM00035
                1 ,77K                                                                            *030 LM00036
                  VECTOR VALUES SHFT=0,30,18,6,24,12,0                                            *031 LM00037
                  END OF FUNCTION                                                                 *032 LM00038
1MAD PROGRAM,TYPE NOV 1963      (ALL NUMBERS ARE OCTAL)
0TOTAL LOCATIONS   00415 TRANSFER VECTOR LENGTH  00001 PROGRAM BEGINS    00072
0 PROGRAM IS AN EXTERNAL FUNCTION.   THE FOLLOWING ARE ENTRIES
      CKDATE 00073   0
0VARIABLE STORAGE (A=ARRAY,C=COMMON,E=ERASABLE,DIGIT=MODE)
      BACK   00002   4        J      00006   1        MASK   00015 A 1        SHFT   00045 A 1        TIMCHK 00003   4
      DATE   00004   1        LOOP1  00001   4        MDY    00021 A 1        SW     00046   1        TIME   00047   1
      I      00005   1        LOOP   00001   4        MO     00036 A 1
0FUNCTION DICTIONARY
      EXIT   00000   1
0ABSOLUTE CONSTANTS
 00064 +000000000074     00060 +000000000030     00066 +000000000143     00062 +000000000035     00053 +000000000004
 00061 +000000000034     00055 +000000000012     00052 +000000000003     00056 +000000000013     00057 +000000000014
 00065 +000000000077     00063 +000000000044     00054 +000000000006     00071 -366074606060     00050 +000000000000
 00070 -346070600000     00051 +000000000001     00067 +233000000000
0STATEMENT DICTIONARY
 00002 TXL -300213000201       00003 TXL -300351000340
0PROGRAM
                 EXTERNAL FUNCTION (DATEIN,TIMEIN,BADATE)                           001  LM00001
                 ENTRY TO CKDATE.                                                   002  LM00002
 00072 TRA +0 02000 0 00075    00073 SXA +0 63400 2 00364    00074 TSX +0 07400 2 00364
                 NORMAL MODE IS INTEGER                                             003  LM00003
                 STATEMENT LABEL BADATE                                             004  LM00004
                 DIMENSION MDY(3), MO(12), MASK(6), SHFT(6)                         005  LM00005
                 DATE=DATEIN                                                        006  LM00006
 00075 CLA +0 50000 0 00024    00076 STO +0 60100 0 00004
                 TIME=TIMEIN                                                        007  LM00007
 00077 CLA +0 50000 0 00024    00100 STO +0 60100 0 00047
                 W'R (DATE.A.766074606060K).NE.0 .OR. (TIME.A.746070600000K)        008  LM00008
                1.NE.0, T'O BADATE                                                  008  LM00009
 00101 CAL -0 50000 0 00047    00102 ANA -0 32000 0 00070    00103 SLW +0 60200 0 00411    00104 CLA +0 50000 0 00411
 00105 SUB +0 40200 0 00050    00106 TNZ -0 10000 0 00115    00107 CAL -0 50000 0 00004    00110 ANA -0 32000 0 00071
 00111 SLW +0 60200 0 00411    00112 CLA +0 50000 0 00411    00113 SUB +0 40200 0 00050    00114 TZE +0 10000 0 00116
 00115 TRA +0 02000 0 00024
                 SW=0                                                               009  LM00010
 00116 CLA +0 50000 0 00050    00117 STO +0 60100 0 00046
                 THROUGH LOOP1, FOR J=0,6,J.G.36                                    010  LM00011
 00120 CLA +0 50000 0 00050    00121 STO +0 60100 0 00006    00122 TRA +0 02000 0 00126    00123 CLA +0 50000 0 00006
 00124 ADD +0 40000 0 00054    00125 STO +0 60100 0 00006    00126 CLA +0 50000 0 00006    00127 SUB +0 40200 0 00063
 00130 TZE +0 10000 0 00132    00131 TPL +0 12000 0 00201
                 W'R ((DATE.RS.J).A.77K) .E. 13K .OR. ((TIME.RS.J).A.77K) .E.       011  LM00012
                114K, T'O BADATE                                                    011  LM00013
 00132 CAL -0 50000 0 00006    00133 STA +0 62100 0 00135    00134 CAL -0 50000 0 00047    00135 LGR -0 76500 0 00000
 00136 ANA -0 32000 0 00065    00137 SLW +0 60200 0 00411    00140 CLA +0 50000 0 00411    00141 SUB +0 40200 0 00057
 00142 TZE +0 10000 0 00154    00143 CAL -0 50000 0 00006    00144 STA +0 62100 0 00146    00145 CAL -0 50000 0 00004
 00146 LGR -0 76500 0 00000    00147 ANA -0 32000 0 00065    00150 SLW +0 60200 0 00411    00151 CLA +0 50000 0 00411
 00152 SUB +0 40200 0 00056    00153 TNZ -0 10000 0 00155    00154 TRA +0 02000 0 00024
                 W'R ((DATE.RS.J).A.77K) .E. 14K .OR. ((TIME.RS.J).A.77K) .E.       012  LM00014
                113K, T'O BADATE                                                    012  LM00015
 00155 CAL -0 50000 0 00006    00156 STA +0 62100 0 00160    00157 CAL -0 50000 0 00047    00160 LGR -0 76500 0 00000
 00161 ANA -0 32000 0 00065    00162 SLW +0 60200 0 00411    00163 CLA +0 50000 0 00411    00164 SUB +0 40200 0 00056
 00165 TZE +0 10000 0 00177    00166 CAL -0 50000 0 00006    00167 STA +0 62100 0 00171    00170 CAL -0 50000 0 00004
 00171 LGR -0 76500 0 00000    00172 ANA -0 32000 0 00065    00173 SLW +0 60200 0 00411    00174 CLA +0 50000 0 00411
 00175 SUB +0 40200 0 00057    00176 TNZ -0 10000 0 00200    00177 TRA +0 02000 0 00024
      LOOP1      CONTINUE                                                           013  LM00016
 00200 TRA +0 02000 0 00123
      BACK       THROUGH LOOP, FOR I=1,1,I.G.3                                      014  LM00017
 00201 CLA +0 50000 0 00051    00202 STO +0 60100 0 00005    00203 TRA +0 02000 0 00207    00204 CLA +0 50000 0 00005
 00205 ADD +0 40000 0 00051    00206 STO +0 60100 0 00005    00207 CLA +0 50000 0 00005    00210 SUB +0 40200 0 00052
 00211 TZE +0 10000 0 00213    00212 TPL +0 12000 0 00252
      LOOP       MDY(I)=((DATE.A.MASK(I)).RS.SHFT(I))*10                            015  LM00018
                1+((DATE.A.MASK(I+3)).RS.SHFT(I+3))                                 015  LM00019
 00213 CLA +0 50000 0 00005    00214 ADD +0 40000 0 00052    00215 STO +0 60100 0 00411    00216 CLA +0 50000 0 00005
 00217 ADD +0 40000 0 00052    00220 PAX +0 73400 2 00000    00221 CAL -0 50000 0 00004    00222 ANA -0 32000 2 00015
 00223 LXA +0 53400 2 00411    00224 SLW +0 60200 0 00411    00225 CAL -0 50000 2 00045    00226 STA +0 62100 0 00230
 00227 CAL -0 50000 0 00411    00230 LGR -0 76500 0 00000    00231 LXA +0 53400 2 00005    00232 SLW +0 60200 0 00411
 00233 CAL -0 50000 0 00004    00234 ANA -0 32000 2 00015    00235 SLW +0 60200 0 00412    00236 CAL -0 50000 2 00045
 00237 STA +0 62100 0 00241    00240 CAL -0 50000 0 00412    00241 LGR -0 76500 0 00000    00242 SLW +0 60200 0 00412
 00243 LDQ +0 56000 0 00412    00244 MPY +0 20000 0 00055    00245 XCA +0 13100 0 00000    00246 ADD +0 40000 0 00411
 00247 LXA +0 53400 1 00005    00250 STO +0 60100 1 00021    00251 TRA +0 02000 0 00204
                 W'R SW.NE.0, T'O TIMCHK                                            016  LM00020
 00252 CLA +0 50000 0 00046    00253 SUB +0 40200 0 00050    00254 TZE +0 10000 0 00256    00255 TRA +0 02000 0 00003
                 MO(2)=28                                                           017  LM00021
 00256 CLA +0 50000 0 00061    00257 STO +0 60100 0 00034
                 W'R (MDY(3).NE.0).AND.(MDY(3)-(MDY(3)/4)*4).E.0,                   018  LM00022
                1MO(2)=29                                                           018  LM00023
 00260 LDQ +0 56000 0 00016    00261 PXD -0 75400 0 00000    00262 LLS +0 76300 0 00000    00263 DVP +0 22100 0 00053
 00264 MPY +0 20000 0 00053    00265 XCA +0 13100 0 00000    00266 CHS +0 76000 0 00002    00267 ADD +0 40000 0 00016
 00270 SUB +0 40200 0 00050    00271 TNZ -0 10000 0 00277    00272 CLA +0 50000 0 00016    00273 SUB +0 40200 0 00050
 00274 TZE +0 10000 0 00277    00275 CLA +0 50000 0 00062    00276 STO +0 60100 0 00034
                 W'R MDY(1).L.1 .OR. MDY(1).G.12, T'O BADATE                        019  LM00024
 00277 CLA +0 50000 0 00020    00300 SUB +0 40200 0 00057    00301 TZE +0 10000 0 00303    00302 TPL +0 12000 0 00307
 00303 CLA +0 50000 0 00020    00304 SUB +0 40200 0 00051    00305 TZE +0 10000 0 00310    00306 TPL +0 12000 0 00310
 00307 TRA +0 02000 0 00024
                 W'R (MDY(3).L.0).OR.(MDY(3).G.99), T'O BADATE                      020  LM00025
 00310 CLA +0 50000 0 00016    00311 SUB +0 40200 0 00066    00312 TZE +0 10000 0 00314    00313 TPL +0 12000 0 00320
 00314 CLA +0 50000 0 00016    00315 SUB +0 40200 0 00050    00316 TZE +0 10000 0 00321    00317 TPL +0 12000 0 00321
 00320 TRA +0 02000 0 00024
                 W'R (MDY(2).L.1).OR.(MDY(2).G.MO(MDY(1))), T'O BADATE              021  LM00026
 00321 LXA +0 53400 2 00020    00322 CLA +0 50000 0 00017    00323 SUB +0 40200 2 00036    00324 TZE +0 10000 0 00326
 00325 TPL +0 12000 0 00332    00326 CLA +0 50000 0 00017    00327 SUB +0 40200 0 00051    00330 TZE +0 10000 0 00333
 00331 TPL +0 12000 0 00333    00332 TRA +0 02000 0 00024
                 DATE=TIME                                                          022  LM00027
 00333 CLA +0 50000 0 00047    00334 STO +0 60100 0 00004
                 SW=1                                                               023  LM00028
 00335 CLA +0 50000 0 00051    00336 STO +0 60100 0 00046
                 T'O BACK                                                           024  LM00029
 00337 TRA +0 02000 0 00002
      TIMCHK     W'R MDY(1).L.0 .OR. MDY(1).GE.24, T'O BADATE                       025  LM00030
 00340 CLA +0 50000 0 00020    00341 SUB +0 40200 0 00060    00342 TZE +0 10000 0 00350    00343 TPL +0 12000 0 00350
 00344 CLA +0 50000 0 00020    00345 SUB +0 40200 0 00050    00346 TZE +0 10000 0 00351    00347 TPL +0 12000 0 00351
 00350 TRA +0 02000 0 00024
                 W'R MDY(2).L.0 .OR. MDY(2).GE.60, T'O BADATE                       026  LM00031
 00351 CLA +0 50000 0 00017    00352 SUB +0 40200 0 00064    00353 TZE +0 10000 0 00361    00354 TPL +0 12000 0 00361
 00355 CLA +0 50000 0 00017    00356 SUB +0 40200 0 00050    00357 TZE +0 10000 0 00362    00360 TPL +0 12000 0 00362
 00361 TRA +0 02000 0 00024
                 FUNCTION RETURN                                                    027  LM00032
 00362 TRA +0 02000 0 00405
                 V'S MO=0,31,28,31,30,31,30,31,31,30,31,30,31                       028  LM00033
 00022     +0 00000 0 00037    00023     +0 00000 0 00036    00024     +0 00000 0 00037    00025     +0 00000 0 00036
 00026     +0 00000 0 00037    00027     +0 00000 0 00037    00030     +0 00000 0 00036    00031     +0 00000 0 00037
 00032     +0 00000 0 00036    00033     +0 00000 0 00037    00034     +0 00000 0 00034    00035     +0 00000 0 00037
 00036     +0 00000 0 00000
                 V'S MDY=0,0,0,0                                                    029  LM00034
 00016     +0 00000 0 00000    00017     +0 00000 0 00000    00020     +0 00000 0 00000    00021     +0 00000 0 00000
                 V'S MASK=0,770000000000K,77000000K,7700K,7700000000K,770000K       030  LM00035
                1,77K                                                               030  LM00036
 00007     +0 00000 0 00077    00010     +0 00000 7 70000    00011     +0 07700 0 00000    00012     +0 00000 0 07700
 00013     +0 00077 0 00000    00014     -3 70000 0 00000    00015     +0 00000 0 00000
                 V'S SHFT=0,30,18,6,24,12,0                                         031  LM00037
 00037     +0 00000 0 00000    00040     +0 00000 0 00014    00041     +0 00000 0 00030    00042     +0 00000 0 00006
 00043     +0 00000 0 00022    00044     +0 00000 0 00036    00045     +0 00000 0 00000
                 END OF FUNCTION                                                    032  LM00038
 00363 TSX +0 07400 4 00000    00364 TXH +3 00000 0 00000    00365 SXD -0 63400 1 00364    00366 SXA +0 63400 4 00405
 00367 CLA +0 50000 4 00001    00370 STA +0 62100 0 00075    00371 CLA +0 50000 4 00002    00372 STA +0 62100 0 00077
 00373 CLA +0 50000 4 00003    00374 STA +0 62100 0 00115    00375 STA +0 62100 0 00154    00376 STA +0 62100 0 00177
 00377 STA +0 62100 0 00307    00400 STA +0 62100 0 00320    00401 STA +0 62100 0 00332    00402 STA +0 62100 0 00350
 00403 STA +0 62100 0 00361    00404 TRA +0 02000 2 00001    00405 AXT +0 77400 4 00000    00406 LXA +0 53400 2 00364
 00407 LXD -0 53400 1 00364    00410 TRA +0 02000 4 00001


 RCARD   BCD 04/16/68 1636.9    2173         00000
1       RCARD - READ ON-LINE CONTROL CARDS                                                       PAGE 1
                           READ A CARD FROM ON-LINE CARD READER


  BINARY CARD NO. RDCARD00
                       00004         ENTRY   RDCARD
                                     EXTERN  PRINT,TPWAIT

                                             RDCARD..... READ ONE CARD FROM ON-LINE CARD READER
                                                           TSX RDCARD,4
                                                               BUF,,EOFRTN

                                             THIS INCREDIBLE ROUTINE WAS PIRATED FROM THE CTSS
                                             CYLINDER LOADER.  IT READS BCD CARDS
                                             FROM THE ON-LINE CARD READER.

                                                           D.R. WIDRIG  DEC. 1965

                                     INSERT  CORE          INSERT PROPER CORE DESIGNATION
                              *      ASSEMBLY FOR I/O IN CORE A


  BINARY CARD NO. RDCARD01
      00000  475131456360     PRINT
      00001  634766213163     TPWAIT


      00004  0634 00 4 00135  RDCARD SXA     X4,4
      00005  0634 00 2 00134         SXA     X2,2
      00006  0634 00 1 00133         SXA     XR1,1
      00007 -0500 00 4 00001         CAL     1,4           PICK UP ADDRESS OF CALLER'S BUFFER
      00010  0361 00 0 00347         ACL     =12           .. BUFF+12
      00011  0621 00 0 00131         STA     CTX
      00012  0074 00 4 00001         TSX     TPWAIT,4      WAIT ON CHANNEL 'A'
      00013  3 00000 0 00001         PTH     1             ..
      00014  0761 00 0 00000         NOP                   .. IGNORE TAPE CHECK
      00015  0761 00 0 00000         NOP                   .. AND EOF RETURNS
      00016  0774 00 1 00014         AXT     12,1          CLEAR BCD RECORD AREA
      00017  0600 00 1 00336         STZ     REC+12,1      ..
      00020  2 00001 1 00017         TIX     *-1,1,1       ..
      00021  0762 00 0 01321         RCDA                  READ A CARD FROM ON LINE READER
      00022  0540 00 0 00156         RCHA    CTB           ..
      00023  0074 00 4 00001         TSX     TPWAIT,4      WAIT UNTIL CARD IS READ

  BINARY CARD NO. RDCARD02
      00024  3 00000 0 00001         PTH     1             ..
      00025  0761 00 0 00000         NOP                   .. TAPE CHECK, SHOULD NEVER HAPPEN
      00026  0020 00 0 00137         TRA     EOF           .. END OF FILE RETURN

      00027  0774 00 4 00004         AXT     4,4           INITIALIZE LEFT HALF
      00030 -0774 00 2 00015  CT9    AXC     13,2
      00031  0441 00 0 00176         LDI     CTG           CLEAR SENSE IND
      00032 -0500 60 4 00172  CT10   CAL*    CTD+4,4
      00033  1 00002 2 00034         TXI     *+1,2,2
      00034 -0501 60 4 00172         ORA*    CTD+4,4
      00035  0602 00 0 00200         SLW     CTH
1       RCARD - READ ON-LINE CONTROL CARDS                                                       PAGE 2
                           READ A CARD FROM ON-LINE CARD READER

      00036  1 77764 2 00037         TXI     *+1,2,-12
      00037  0441 60 4 00172         LDI*    CTD+4,4
      00040  1 00002 2 00041         TXI     *+1,2,2
      00041  0444 60 4 00172         OFT*    CTD+4,4
      00042  0020 00 0 00146  CT11   TRA     ERR
      00043  0442 60 4 00172         OSI*    CTD+4,4
      00044  0604 00 0 00202         STI     CTI
      00045  1 00024 2 00046         TXI     *+1,2,20
      00046  0441 60 4 00172         LDI*    CTD+4,4
      00047  1 77760 2 00050         TXI     *+1,2,-16

  BINARY CARD NO. RDCARD03
      00050  0774 00 1 00007         AXT     7,1
      00051  0444 60 4 00172  CT12   OFT*    CTD+4,4
      00052  0020 00 0 00146  CT13   TRA     ERR
      00053  0442 60 4 00172         OSI*    CTD+4,4
      00054  1 00002 2 00055         TXI     *+1,2,2
      00055  2 00001 1 00051         TIX     CT12,1,1
      00056  0440 00 0 00200         IIS     CTH
      00057  0444 60 4 00172         OFT*    CTD+4,4
      00060  0020 00 0 00146         TRA     ERR
      00061  0442 60 4 00172         OSI*    CTD+4,4
      00062  0442 00 0 00200         OSI     CTH
      00063  1 77760 2 00064         TXI     *+1,2,-16
      00064 -0046 00 0 00000         PIA
      00065 -0320 60 4 00172         ANA*    CTD+4,4
      00066  0602 00 0 00200         SLW     CTH
      00067 -0320 00 0 00202         ANA     CTI
      00070 -0100 00 0 00146         TNZ     ERR
      00071 -0500 60 4 00172         CAL*    CTD+4,4
      00072  0043 00 0 00000         OAI
      00073  0442 00 0 00202         OSI     CTI

  BINARY CARD NO. RDCARD04
      00074 -0320 00 0 00202         ANA     CTI
      00075  0602 60 4 00172         SLW*    CTD+4,4
      00076 -0046 00 0 00000         PIA
      00077  0760 00 0 00006         COM
      00100 -0501 00 0 00200         ORA     CTH
      00101  1 77772 2 00102         TXI     *+1,2,-6
      00102  0602 60 4 00172         SLW*    CTD+4,4
      00103  0774 00 1 00006  CT20   AXT     6,1
      00104 -0500 60 4 00172         CAL*    CTD+4,4
      00105  0602 00 0 00200         SLW     CTH
      00106  0560 00 0 00200  CT21   LDQ     CTH
      00107  0634 00 1 00114         SXA     X1,1
      00110  0774 00 1 00006         AXT     6,1
      00111  0767 00 0 00005  CT22   ALS     5
      00112 -0763 00 0 00001         LGL     1
      00113  2 00001 1 00111         TIX     CT22,1,1
      00114  0774 00 1 00000  X1     AXT     **,1
      00115 -0600 00 0 00200         STQ     CTH
      00116 -0130 00 0 00000         XCL
      00117  0200 00 2 00154  PCT23  MPY     CTA-1,2
1       RCARD - READ ON-LINE CONTROL CARDS                                                       PAGE 3
                           READ A CARD FROM ON-LINE CARD READER

  BINARY CARD NO. RDCARD05
      00120  0763 00 0 00043         LLS     35
      00121  0361 60 4 00176         ACL*    CTE+4,4
      00122  0602 60 4 00176         SLW*    CTE+4,4
      00123  2 00001 1 00106         TIX     CT21,1,1
      00124  3 77775 2 00126  CT24   TXH     CT25,2,-3
      00125  1 00002 2 00103         TXI     CT20,2,2
      00126  2 00002 4 00030  CT25   TIX     CT9,4,2
      00127  0774 00 4 00014         AXT     12,4
      00130 -0500 00 4 00336         CAL     REC+12,4
      00131  0602 00 4 00000  CTX    SLW     **,4
      00132  2 00001 4 00130         TIX     *-2,4,1
      00133  0774 00 1 00000  XR1    AXT     **,1
      00134  0774 00 2 00000  X2     AXT     **,2
      00135  0774 00 4 00000  X4     AXT     **,4
      00136  0020 00 4 00002         TRA     2,4

      00137  0534 00 2 00134  EOF    LXA     X2,2          HERE ON EOF FROM CARD READER
      00140  0534 00 4 00135         LXA     X4,4          .. RESTORE CALLER'S IRS
      00141  0534 00 1 00133         LXA     XR1,1         ..
      00142 -0500 00 4 00001         CAL     1,4           PICK UP EOF RETURN
      00143  0771 00 0 00022         ARS     18            GET CALLER'S EOF RETURN

  BINARY CARD NO. RDCARD06
      00144  0621 00 0 00145         STA     *+1           PLANT IT
      00145  0020 00 0 00000         TRA     **            TAKE EOF RETURN

      00146  0074 00 4 00000  ERR    TSX     PRINT,4       HERE FOR ILLEGAL BCD IN CARD, PRINT ERROR
      00147  0 00011 0 00336                 CHS,,CHS1     ..
      00150  0000 00 0 00151         HTR     *+1           WAIT FOR REPLY
      00151  0534 00 4 00135         LXA     X4,4          RESTORE USER'S CONDITIONS
      00152  0534 00 2 00134         LXA     X2,2          ..
      00153  0534 00 1 00133         LXA     XR1,1         ..
      00154  0020 00 0 00004         TRA     RDCARD        READ NEXT CARD

      00155 +000000000011     CTA    OCT     11
      00156  0 00030 0 00206  CTB    IOCD    9ROWL,,24
      00157 +000000000010            OCT     10
      00160  0 00000 0 00000         PZE
      00161 +000000000007            OCT     7
      00162  0 00000 0 00000         PZE
      00163 +000000000006            OCT     6
      00164  0 00000 0 00000         PZE
      00165 +000000000005            OCT     5
      00166  0 00000 2 00205  CTD    PZE     9ROWL-1,2
      00167 +000000000004            OCT     4

  BINARY CARD NO. RDCARD07
      00170  0 00000 2 00206         PZE     9ROWL,2
      00171 +000000000003            OCT     3
      00172  0 00000 1 00330  CTE    PZE     REC+6,1
      00173 +000000000002            OCT     2
      00174  0 00000 1 00336         PZE     REC+12,1
      00175 +000000000001     CTF    OCT     1
      00176  0 00000 0 00000  CTG    PZE
1       RCARD - READ ON-LINE CONTROL CARDS                                                       PAGE 4
                           READ A CARD FROM ON-LINE CARD READER

      00177 +000000000012            OCT     12
      00200  0 00000 0 00000  CTH    PZE
      00201 +000000000040            OCT     40
      00202  0 00000 0 00000  CTI    PZE
      00203 +000000000020            OCT     20
      00204  0 00000 0 00000  CTJ    PZE
      00205 +000000000060            OCT     60
      00206                   9ROWL  BSS     76
      00322                   REC    BSS     12


  BINARY CARD NO. RDCARD08
      00336  602362306026     CHS    BCI     9, CSH FOUND ILLEGAL BCD CARD. PUSH START TO IGNORE CARD
                       00011  CHS1   SYN     *-CHS

                                     END

        LITERALS
      00347  000000000014
1       RCARD - READ ON-LINE CONTROL CARDS                                                       PAGE 1
                        POST PROCESSOR ASSEMBLY DATA

        350 IS THE FIRST LOCATION NOT USED BY THIS PROGRAM

0REFERENCES TO DEFINED SYMBOLS
        114     X1   107
        134     X2     5,  137,  152
        135     X4     4,  140,  151
        336    CHS   147,  347
         30    CT9   126
        155    CTA   117
        156    CTB    22
        166    CTD    32,   34,   37,   41,   43,   46,   51,   53,   57,   61,   65,   71,   75,  102,  104
        172    CTE   121,  122
        175    CTF
        176    CTG    31
        200    CTH    35,   56,   62,   66,  100,  105,  106,  115
        202    CTI    44,   67,   73,   74
        204    CTJ
        131    CTX    11
        137    EOF    26
        146    ERR    42,   52,   60,   70
        322    REC    17,  130,  172,  174
        133    XR1     6,  141,  153
         11   CHS1   147,  347
         32   CT10
         42   CT11
         51   CT12    55
         52   CT13
        103   CT20   125
        106   CT21   123
        111   CT22   113
        124   CT24
        126   CT25   124
        206  9ROWL   156,  166,  170
        117  PCT23
          0  PRINT   146
          4 RDCARD     0,  154
          1 TPWAIT    12,   23

0 NO ERROR IN ABOVE ASSEMBLY.


TPWAIT   BCD 04/16/68 1636.9     580         00000
1       TPWAIT - WAIT UNTIL I/O ON A OR B CHAN IS DONE. PROCESS ERRORS.                          PAGE 1

                              *
                              *      CALLING SEQUENCE -
                              *              TSX           TPWAIT,4
                              *              PTH           1 (FOR A,2 FOR B)
                              *              TRA           EOFRTN E.O.F. RETURN
                              *              TRA           ERRTN REDUN. CHECK RETURN
                              *              (NORMAL RETURN)
                              *
                              *
                       00000         ENTRY   TPWAIT
      00000  0634 00 1 00010  TPWAIT SXA     XR1,1         SAVE XRS
      00001 -0500 00 4 00001         CAL     1,4           GET CHANNO
      00002  0737 00 1 00000         PAC     ,1            -CHANNO INTO XR 1
      00003 -3 77775 1 00020         TXL     ERR,1,-3      BAD IF NOT A OR B
      00004  0522 00 1 00011  BACK   XEC     TCOAB,1       WAIT UNTIL I/O IS DONE
      00005  0522 00 1 00013         XEC     TRCAB,1       TEST FOR REDUN. CHECKS
      00006  0522 00 1 00015         XEC     TEFAB,1       TEST FOR E.O.F.'S
      00007  1 77774 4 00010         TXI     *+1,4,-4      NORMAL RETURN IN 4,4
      00010  0774 00 1 00000  XR1    AXT     **,1          RESTORE XR1
      00011  0020 00 4 00000         TRA     0,4           AND GO HOME

                       00011  TCOAB  SYN     *-1           WAIT UNTIL I/O IS COMPELED
      00012  0060 00 0 00004         TCOA    BACK          ON A
      00013  0061 00 0 00004         TCOB    BACK          OR ON B

                       00013  TRCAB  SYN     *-1           TEST FOR REDUNDANCY CHECKS
      00014  0022 00 0 00020         TRCA    ERROR         ON A
      00015 -0022 00 0 00020         TRCB    ERROR         OR ON B

                       00015  TEFAB  SYN     *-1           TEST FOR AN E.O.F.
      00016  0030 00 0 00021         TEFA    EOF           ON A
      00017 -0030 00 0 00021         TEFB    EOF           OR ON B

      00020  1 77776 4 00010  ERROR  TXI     XR1,4,-2      REDUN CHECKS RETURNS TO 2,4
      00021  1 77775 4 00010  EOF    TXI     XR1,4,-3      EOF RETURNS TO 3,4
                       00020  ERR    SYN     ERROR         BAD CHAN IS SAME AS REDUN CHECK
                                     END
1       TPWAIT - WAIT UNTIL I/O ON A OR B CHAN IS DONE. PROCESS ERRORS.                          PAGE 1
                        POST PROCESSOR ASSEMBLY DATA

         22 IS THE FIRST LOCATION NOT USED BY THIS PROGRAM

0REFERENCES TO DEFINED SYMBOLS
         21    EOF    16,   17
         20    ERR     3,   22
         10    XR1     0,   20,   21
          4   BACK    12,   13
         20  ERROR    14,   15,   22
         11  TCOAB     4,   12
         15  TEFAB     6,   16
         13  TRCAB     5,   14
          0 TPWAIT     0

0 NO ERROR IN ABOVE ASSEMBLY.


  TIAS   BCD 04/16/68 1636.9     444         00000
1       TIAS USED BY THE DAEMON PRIMER (BACKGROUND VERSION)                                      PAGE 1

                              * R. A. ROACH  4/16/68
                              *
                       00002         ENTRY   SETIO
                       00003         ENTRY   ATTACH
                       00004         ENTRY   OPEN
                       00005         ENTRY   BUFFER
                       00006         ENTRY   WRFILE
                       00007         ENTRY   CLOSE
                       00010         ENTRY   CHFILE
                       00011         ENTRY   DELFIL
                       00012         ENTRY   WRFLX
                       00013         ENTRY   PRINT

            LINKAGE DIRECTOR
      00000  000000000000
      00001  622563314660

      00002  0021 00 4 00002  SETIO  XIT     2,4
      00003  0101 00 0 00014  ATTACH TIA     =HATTACH
      00004  0101 00 0 00021  OPEN   TIA     =HOPEN
      00005  0101 00 0 00015  BUFFER TIA     =HBUFFER
      00006  0101 00 0 00023  WRFILE TIA     =HWRFILE
      00007  0101 00 0 00017  CLOSE  TIA     =HCLOSE
      00010  0101 00 0 00016  CHFILE TIA     =HCHFILE
      00011  0101 00 0 00020  DELFIL TIA     =HDELFIL
      00012  0101 00 0 00022  WRFLX  TIA     =HPRINT
      00013  0101 00 0 00022  PRINT  TIA     =HPRINT
                                     END

        LITERALS
      00014  216363212330
      00015  226426262551
      00016  233026314325
      00017  234346622560
      00020  242543263143
      00021  464725456060
      00022  475131456360
      00023  665126314325
1       TIAS USED BY THE DAEMON PRIMER (BACKGROUND VERSION)                                      PAGE 1
                        POST PROCESSOR ASSEMBLY DATA

         24 IS THE FIRST LOCATION NOT USED BY THIS PROGRAM

0REFERENCES TO DEFINED SYMBOLS
          4   OPEN     0
          7  CLOSE     0
         13  PRINT     0
          2  SETIO     0
         12  WRFLX     0
          3 ATTACH     0
          5 BUFFER     0
         10 CHFILE     0
         11 DELFIL     0
          6 WRFILE     0

0 NO ERROR IN ABOVE ASSEMBLY.


EXTKLU   BCD 04/16/68 1636.9     582         00000
1            DUMMY EXIT AND SETUP SUBROUTINES                                                    PAGE 1

                              *      WRITTEN TO BRING FMS BACK TO LIFE BY STUART SCHNAFFER
                                     BCORE
                       00003         ENTRY   EXIT
                       00035         ENTRY   .SETUP
                                     EXTERN  PRINT

        TRANSFER VECTOR
      00000  475131456360     PRINT

            LINKAGE DIRECTOR
      00001  000000000000
      00002  256731636060

      00003  0564 00 0 00050  EXIT   ENB     =0
      00004  0074 00 4 00000         TSX     PRINT,4       PRINT MESSAGE TO OPERATOR
      00005  0 00010 0 00040         PZE     MESS,,8
      00006  0060 00 0 00006         TCOA    *
      00007  0061 00 0 00007         TCOB    *
      00010  0760 00 0 01352         RDCA
      00011  0760 00 0 02352         RDCB
      00012  0760 00 0 00004         ENK
      00013 -0130 00 0 00000         XCL
      00014 -0340 00 0 00051         LAS     =O700000000000
      00015  0761 00 0 00000         NOP
      00016  0000 00 0 00017         HTR     *+1
      00017  0774 00 4 00012         AXT     10,4
      00020  0772 00 0 01201  EXIT1  REWA    1
      00021  0762 00 0 01221         RTBA    1
      00022  0540 00 0 00033         RCHA    LDFIOP
      00023  0060 00 0 00023         TCOA    *
      00024  0022 00 0 00031         TRCA    A1BAD
      00025  0030 00 0 00031         TEFA    A1BAD
      00026  0762 00 0 01221         RTBA    1
      00027  0762 00 0 01221         RTBA    1
      00030  0020 00 0 00001         TRA     1
      00031  2 00001 4 00020  A1BAD  TIX     EXIT1,4,1
      00032  0000 00 0 00020         HTR     EXIT1
      00033 -0 00003 1 00000  LDFIOP IOCP    0,,3
      00034  1 00000 1 00000         TCH     0
      00035 -0760 00 0 00004  .SETUP LFTM
      00036  0000 00 0 00037         HTR     *+1           PAUSE FOR OPERATOR
      00037  0020 00 4 00001         TRA     1,4
      00040  606060475131     MESS   BCI     8,   PRIMER FINISHED, EXIT CALLED.
      00041  442551602631
      00042  453162302524
      00043  736025673163
      00044  602321434325
      00045  243360606060
      00046  606060606060
      00047  606060606060
                                     END

        LITERALS
      00050  000000000000
      00051  700000000000
1            DUMMY EXIT AND SETUP SUBROUTINES                                                    PAGE 1
                        POST PROCESSOR ASSEMBLY DATA

         52 IS THE FIRST LOCATION NOT USED BY THIS PROGRAM

0REFERENCES TO DEFINED SYMBOLS
          3   EXIT     0
         40   MESS     5
         31  A1BAD    24,   25
         20  EXIT1    31,   32
          0  PRINT     4
         35 .SETUP     0
         33 LDFIOP    22

0 NO ERROR IN ABOVE ASSEMBLY.
