


DUMP4A   BCD 12/14/70 1519.8   19693         00000


 DUMP4   BCD 12/14/70 1510.9    5223         00000
1     MAD PROGRAM LISTING ... ... ...                 FILE    DUMP   MAD            11/05/70    1932.9
-
                  DINIT.                                                                          *001 LM00001
                  TINIT.                                                                          *002 LM00002
                  THROUGH ML, FOR M=LDMM,1,M.G.HDMM                                               *003 LM00003
                  THROUGH DL, FOR T=0,1,T.GE.NDMT                                                 *004 LM00004
                  IB=DEFBC.((M*10000+T)*10)                                                       *005 LM00005
                  DREAD.(CVTRK.(IB),BUF,DER)                                                      *006 LM00006
                  DWAIT.(DER,ERCD)                                                                *007 LM00007
                  TWRIT.(IB,BUF)                                                                  *008 LM00008
                  TWAIT.(TER,ERCD)                                                                *009 LM00009
                  TWRIT.(IB,BUF)                                                                  *010 LM00010
                  TWAIT.(TER,ERCD)                                                                *011 LM00011
      DL          CONTINUE                                                                        *012 LM00012
      ML          CONTINUE                                                                        *013 LM00013
                  TEND.                                                                           *014 LM00014
                  EXIT.                                                                           *015 LM00015
      DER         MPRINT.(2,$ERROR READING DRUM TRACK $,IB)                                       *016 LM00016
                  TRANSFER TO DL                                                                  *017 LM00017
      TER         MPRINT.(2,$ERROR WRITING TAPE TRACK $,IB)                                       *018 LM00018
                  TRANSFER TO DL                                                                  *019 LM00019
                  NORMAL MODE IS INTEGER                                                          *020 LM00020
                  DIMENSION B(500)                                                                *021 LM00021
                  EQUIVALENCE (BUF,B(500))                                                        *022 LM00022
                  INSERT FILE SALEQU                                                              *023 LM00023
                   SALEQU                                                                         *023 LM00001
                  VECTOR VALUES MFDORG=101212121212K                                              *024 LM00002
                  VECTOR VALUES LOADER=001212121212K                                              *025 LM00003
                  VECTOR VALUES ENTLEN=7                                                          *026 LM00004
                  VECTOR VALUES ENTRYL=20                                                         *027 LM00005
                  VECTOR VALUES NWPT=432                                                          *028 LM00006
                  VECTOR VALUES LDKM=0                                                            *029 LM00007
                  VECTOR VALUES HDKM=7                                                            *030 LM00008
                  VECTOR VALUES LDMM=8                                                            *031 LM00009
                  VECTOR VALUES HDMM=8                                                            *032 LM00010
                  VECTOR VALUES NDKT=10000                                                        *033 LM00011
                  VECTOR VALUES NDMT=400                                                          *034 LM00012
                  VECTOR VALUES NQW=3                                                             *035 LM00013
                  VECTOR VALUES PROBN=1                                                           *036 LM00014
                  VECTOR VALUES PROGN=2                                                           *037 LM00015
                  VECTOR VALUES ALPHA=3                                                           *038 LM00016
                  VECTOR VALUES BETA=4                                                            *039 LM00017
                  VECTOR VALUES DAYTIM=5                                                          *040 LM00018
                  VECTOR VALUES TIME=6                                                            *041 LM00019
                  VECTOR VALUES DATELU=7                                                          *042 LM00020
                  VECTOR VALUES AUTHOR=8                                                          *043 LM00021
                  VECTOR VALUES MODE=9                                                            *044 LM00022
                  VECTOR VALUES ILOCK=10                                                          *045 LM00023
                  VECTOR VALUES F=11                                                              *046 LM00024
                  VECTOR VALUES RCOUNT=12                                                         *047 LM00025
                  VECTOR VALUES S=13                                                              *048 LM00026
                  VECTOR VALUES W=14                                                              *049 LM00027
                  VECTOR VALUES R=15                                                              *050 LM00028
                  VECTOR VALUES NORECS=16                                                         *051 LM00029
                  VECTOR VALUES P=17                                                              *052 LM00030
                  VECTOR VALUES LCOUNT=18                                                         *053 LM00031
                  VECTOR VALUES LSTRK=19                                                          *054 LM00032
                  VECTOR VALUES FSTRK=20                                                          *055 LM00033
                  VECTOR VALUES TEMPMD=1K                                                         *056 LM00034
                  VECTOR VALUES PARTER=1K                                                         *057 LM00035
                  VECTOR VALUES DISKER=2K                                                         *058 LM00036
                  VECTOR VALUES BADBP=4K                                                          *059 LM00037
                  VECTOR VALUES BADTR=1K1                                                         *060 LM00038
                  VECTOR VALUES BADFP=2K1                                                         *061 LM00039
                  VECTOR VALUES BADTN=4K1                                                         *062 LM00040
                  VECTOR VALUES UNPTRK=1K2                                                        *063 LM00041
                  VECTOR VALUES RUSTRK=2K2                                                        *064 LM00042
                  VECTOR VALUES DIRTRN=4K2                                                        *065 LM00043
                  VECTOR VALUES DTATRN=1K3                                                        *066 LM00044
                  VECTOR VALUES NZITEM=2K3                                                        *067 LM00045
                  VECTOR VALUES BADF=4K3                                                          *068 LM00046
                  VECTOR VALUES BADLTK=1K4                                                        *069 LM00047
                  VECTOR VALUES FATAL=2K4                                                         *070 LM00048
                  VECTOR VALUES FORCE=4K4                                                         *071 LM00049
                  VECTOR VALUES BADATE=1K5                                                        *072 LM00050
                  VECTOR VALUES BADLCT=2K5                                                        *073 LM00051
                  VECTOR VALUES BADRCT=4K5                                                        *074 LM00052
                  VECTOR VALUES BADTC=1K6                                                         *075 LM00053
                  VECTOR VALUES BADP=2K6                                                          *076 LM00054
                  VECTOR VALUES BKCOR=4K6                                                         *077 LM00055
                  VECTOR VALUES BKBAD=1K7                                                         *078 LM00056
                                                                                                       LM00057
                  END OF PROGRAM                                                                  *079 LM00024
1MAD PROGRAM,TYPE NOV 1963      (ALL NUMBERS ARE OCTAL)
0TOTAL LOCATIONS   01236 TRANSFER VECTOR LENGTH  00014 PROGRAM BEGINS    01115
0VARIABLE STORAGE (A=ARRAY,C=COMMON,E=ERASABLE,DIGIT=MODE)
      ALPHA  01005 A 1        BETA   01022 A 1        ENTRYL 01033 A 1        LOADER 01050 A 1        PROBN  01064 A 1
      AUTHOR 01006 A 1        BKBAD  01023 A 1        ERCD   01034   1        LSTRK  01051 A 1        PROGN  01065 A 1
      BADATE 01007 A 1        BKCOR  01024 A 1        FATAL  01035 A 1        MFDORG 01052 A 1        P      01066 A 1
      BADBP  01010 A 1        B      01001 A 1        FORCE  01036 A 1        ML     00014   4        RCOUNT 01067 A 1
      BADFP  01011 A 1        BUF    00015   1        F      01037 A 1        MODE   01053 A 1        R      01070 A 1
      BADF   01012 A 1        DATELU 01025 A 1        FSTRK  01040 A 1        M      01054   1        RUSTRK 01071 A 1
      BADLCT 01013 A 1        DAYTIM 01026 A 1        HDKM   01041 A 1        NDKT   01055 A 1        S      01072 A 1
      BADLTK 01014 A 1        DER    01002   4        HDMM   01042 A 1        NDMT   01056 A 1        TEMPMD 01073 A 1
      BADP   01015 A 1        DIRTRN 01027 A 1        IB     01043   1        NORECS 01057 A 1        TER    01004   4
      BADRCT 01016 A 1        DISKER 01030 A 1        ILOCK  01044 A 1        NQW    01060 A 1        TIME   01074 A 1
      BADTC  01017 A 1        DL     01003   4        LCOUNT 01045 A 1        NWPT   01061 A 1        T      01075   1
      BADTN  01020 A 1        DTATRN 01031 A 1        LDKM   01046 A 1        NZITEM 01062 A 1        UNPTRK 01076 A 1
      BADTR  01021 A 1        ENTLEN 01032 A 1        LDMM   01047 A 1        PARTER 01063 A 1        W      01077 A 1
0FUNCTION DICTIONARY
      CVTRK  00000   1        DEFBC  00001   1        DINIT  00002   1        DREAD  00003   1        DWAIT  00004   1
      EXIT   00005   1        .SETUP 00006   1        MPRINT 00007   1        TEND   00010   1        TINIT  00011   1
      TWAIT  00012   1        TWRIT  00013   1
0ABSOLUTE CONSTANTS
 01110 +276063214725     01114 -265131633145     01112 -206060606060     01113 -206351212342     01107 +276024516444
 01111 -112521243145     01106 +255151465160     01102 +000000000002     01103 +000000000012     01104 +000000023420
 01100 +000000000000     01101 +000000000001     01105 +233000000000
0STATEMENT DICTIONARY
 01002 TXL -301220001210       01003 TXL -301205001204       01004 TXL -301231001221
0PROGRAM
                 DINIT.                                                             001  LM00001
 01115 TSX +0 07400 4 00006    01116 TSX +0 07400 4 00002
                 TINIT.                                                             002  LM00002
 01117 TSX +0 07400 4 00011
                 T'H ML, FOR M=LDMM,1,M.G.HDMM                                      003  LM00003
 01120 CLA +0 50000 0 01047    01121 STO +0 60100 0 01054    01122 TRA +0 02000 0 01126    01123 CLA +0 50000 0 01054
 01124 ADD +0 40000 0 01101    01125 STO +0 60100 0 01054    01126 CLA +0 50000 0 01054    01127 SUB +0 40200 0 01042
 01130 TZE +0 10000 0 01132    01131 TPL +0 12000 0 01206
                 T'H DL, FOR T=0,1,T.GE.NDMT                                        004  LM00004
 01132 CLA +0 50000 0 01100    01133 STO +0 60100 0 01075    01134 TRA +0 02000 0 01140    01135 CLA +0 50000 0 01075
 01136 ADD +0 40000 0 01101    01137 STO +0 60100 0 01075    01140 CLA +0 50000 0 01075    01141 SUB +0 40200 0 01056
 01142 TZE +0 10000 0 01205    01143 TPL +0 12000 0 01205
                 IB=DEFBC.((M*10000+T)*10)                                          005  LM00005
 01144 LDQ +0 56000 0 01054    01145 MPY +0 20000 0 01104    01146 XCA +0 13100 0 00000    01147 ADD +0 40000 0 01075
 01150 XCA +0 13100 0 00000    01151 MPY +0 20000 0 01103    01152 STQ -0 60000 0 01233    01153 TSX +0 07400 4 00001
 01154 TXH +3 00000 0 01233    01155 STO +0 60100 0 01043
                 DREAD.(CVTRK.(IB),BUF,DER)                                         006  LM00006
 01156 TSX +0 07400 4 00000    01157 TXH +3 00000 0 01043    01160 STO +0 60100 0 01233    01161 TSX +0 07400 4 00003
 01162 TXH +3 00000 0 01233    01163 TXH +3 00000 0 00015    01164 TXH +3 00000 0 01002
                 DWAIT.(DER,ERCD)                                                   007  LM00007
 01165 TSX +0 07400 4 00004    01166 TXH +3 00000 0 01002    01167 TXH +3 00000 0 01034
                 TWRIT.(IB,BUF)                                                     008  LM00008
 01170 TSX +0 07400 4 00013    01171 TXH +3 00000 0 01043    01172 TXH +3 00000 0 00015
                 TWAIT.(TER,ERCD)                                                   009  LM00009
 01173 TSX +0 07400 4 00012    01174 TXH +3 00000 0 01004    01175 TXH +3 00000 0 01034
                 TWRIT.(IB,BUF)                                                     010  LM00010
 01176 TSX +0 07400 4 00013    01177 TXH +3 00000 0 01043    01200 TXH +3 00000 0 00015
                 TWAIT.(TER,ERCD)                                                   011  LM00011
 01201 TSX +0 07400 4 00012    01202 TXH +3 00000 0 01004    01203 TXH +3 00000 0 01034
      DL         CONTINUE                                                           012  LM00012
 01204 TRA +0 02000 0 01135
      ML         CONTINUE                                                           013  LM00013
 01205 TRA +0 02000 0 01123
                 TEND.                                                              014  LM00014
 01206 TSX +0 07400 4 00010
                 EXIT.                                                              015  LM00015
 01207 TSX +0 07400 4 00005
      DER        MPRINT.(2,$ERROR READING DRUM TRACK $,IB)                          016  LM00016
 01210 TSX +0 07400 4 00007    01211 TXH +3 00000 0 01102    01212 TXH +3 00000 0 01106    01213 TXH +3 00000 0 01111
 01214 TXH +3 00000 0 01107    01215 TXH +3 00000 0 01113    01216 TXH +3 00000 0 01112    01217 TXH +3 00000 0 01043
                 T'O DL                                                             017  LM00017
 01220 TRA +0 02000 0 01003
      TER        MPRINT.(2,$ERROR WRITING TAPE TRACK $,IB)                          018  LM00018
 01221 TSX +0 07400 4 00007    01222 TXH +3 00000 0 01102    01223 TXH +3 00000 0 01106    01224 TXH +3 00000 0 01114
 01225 TXH +3 00000 0 01110    01226 TXH +3 00000 0 01113    01227 TXH +3 00000 0 01112    01230 TXH +3 00000 0 01043
                 T'O DL                                                             019  LM00019
 01231 TRA +0 02000 0 01003
                 NORMAL MODE IS INTEGER                                             020  LM00020
                 DIMENSION B(500)                                                   021  LM00021
                 EQUIVALENCE (BUF,B(500))                                           022  LM00022
                 INSERT FILE SALEQU                                                 023  LM00023
                 V'S MFDORG=101212121212K                                           024  LM00002
 01052     +1 01212 1 21212
                 V'S LOADER=001212121212K                                           025  LM00003
 01050     +0 01212 1 21212
                 V'S ENTLEN=7                                                       026  LM00004
 01032     +0 00000 0 00007
                 V'S ENTRYL=20                                                      027  LM00005
 01033     +0 00000 0 00024
                 V'S NWPT=432                                                       028  LM00006
 01061     +0 00000 0 00660
                 V'S LDKM=0                                                         029  LM00007
 01046     +0 00000 0 00000
                 V'S HDKM=7                                                         030  LM00008
 01041     +0 00000 0 00007
                 V'S LDMM=8                                                         031  LM00009
 01047     +0 00000 0 00010
                 V'S HDMM=8                                                         032  LM00010
 01042     +0 00000 0 00010
                 V'S NDKT=10000                                                     033  LM00011
 01055     +0 00000 0 23420
                 V'S NDMT=400                                                       034  LM00012
 01056     +0 00000 0 00620
                 V'S NQW=3                                                          035  LM00013
 01060     +0 00000 0 00003
                 V'S PROBN=1                                                        036  LM00014
 01064     +0 00000 0 00001
                 V'S PROGN=2                                                        037  LM00015
 01065     +0 00000 0 00002
                 V'S ALPHA=3                                                        038  LM00016
 01005     +0 00000 0 00003
                 V'S BETA=4                                                         039  LM00017
 01022     +0 00000 0 00004
                 V'S DAYTIM=5                                                       040  LM00018
 01026     +0 00000 0 00005
                 V'S TIME=6                                                         041  LM00019
 01074     +0 00000 0 00006
                 V'S DATELU=7                                                       042  LM00020
 01025     +0 00000 0 00007
                 V'S AUTHOR=8                                                       043  LM00021
 01006     +0 00000 0 00010
                 V'S MODE=9                                                         044  LM00022
 01053     +0 00000 0 00011
                 V'S ILOCK=10                                                       045  LM00023
 01044     +0 00000 0 00012
                 V'S F=11                                                           046  LM00024
 01037     +0 00000 0 00013
                 V'S RCOUNT=12                                                      047  LM00025
 01067     +0 00000 0 00014
                 V'S S=13                                                           048  LM00026
 01072     +0 00000 0 00015
                 V'S W=14                                                           049  LM00027
 01077     +0 00000 0 00016
                 V'S R=15                                                           050  LM00028
 01070     +0 00000 0 00017
                 V'S NORECS=16                                                      051  LM00029
 01057     +0 00000 0 00020
                 V'S P=17                                                           052  LM00030
 01066     +0 00000 0 00021
                 V'S LCOUNT=18                                                      053  LM00031
 01045     +0 00000 0 00022
                 V'S LSTRK=19                                                       054  LM00032
 01051     +0 00000 0 00023
                 V'S FSTRK=20                                                       055  LM00033
 01040     +0 00000 0 00024
                 V'S TEMPMD=1K                                                      056  LM00034
 01073     +0 00000 0 00001
                 V'S PARTER=1K                                                      057  LM00035
 01063     +0 00000 0 00001
                 V'S DISKER=2K                                                      058  LM00036
 01030     +0 00000 0 00002
                 V'S BADBP=4K                                                       059  LM00037
 01010     +0 00000 0 00004
                 V'S BADTR=1K1                                                      060  LM00038
 01021     +0 00000 0 00010
                 V'S BADFP=2K1                                                      061  LM00039
 01011     +0 00000 0 00020
                 V'S BADTN=4K1                                                      062  LM00040
 01020     +0 00000 0 00040
                 V'S UNPTRK=1K2                                                     063  LM00041
 01076     +0 00000 0 00100
                 V'S RUSTRK=2K2                                                     064  LM00042
 01071     +0 00000 0 00200
                 V'S DIRTRN=4K2                                                     065  LM00043
 01027     +0 00000 0 00400
                 V'S DTATRN=1K3                                                     066  LM00044
 01031     +0 00000 0 01000
                 V'S NZITEM=2K3                                                     067  LM00045
 01062     +0 00000 0 02000
                 V'S BADF=4K3                                                       068  LM00046
 01012     +0 00000 0 04000
                 V'S BADLTK=1K4                                                     069  LM00047
 01014     +0 00000 0 10000
                 V'S FATAL=2K4                                                      070  LM00048
 01035     +0 00000 0 20000
                 V'S FORCE=4K4                                                      071  LM00049
 01036     +0 00000 0 40000
                 V'S BADATE=1K5                                                     072  LM00050
 01007     +0 00000 1 00000
                 V'S BADLCT=2K5                                                     073  LM00051
 01013     +0 00000 2 00000
                 V'S BADRCT=4K5                                                     074  LM00052
 01016     +0 00000 4 00000
                 V'S BADTC=1K6                                                      075  LM00053
 01017     +0 00001 0 00000
                 V'S BADP=2K6                                                       076  LM00054
 01015     +0 00002 0 00000
                 V'S BKCOR=4K6                                                      077  LM00055
 01024     +0 00004 0 00000
                 V'S BKBAD=1K7                                                      078  LM00056
 01023     +0 00010 0 00000
                 END OF PROGRAM                                                     079  LM00024
 01232 TSX +0 07400 4 00005


 CVDT4   BCD 12/14/70 1510.9    7903         00000
1     MAD PROGRAM LISTING ... ... ...                 FILE    CVDT   MAD            11/05/70    1934.5
-
                  EXTERNAL FUNCTION (A)                                                           *001 LM00001
                  ENTRY TO CVDATE.                                                                *002 LM00002
                   I/O FORMAT=CVDATE.(MMDDYY)                                                          LM00003
                  X=A                                                                             *003 LM00004
                  Y=BCDEC.(X.A.7777K).LS.9 .V.BCDEC.(X.RS.12 .A.7777K).V.                         *004 LM00005
                1   BCDEC.(X.RS.24 .A.7777K).LS.5                                                 *004 LM00006
                  FUNCTION RETURN Y                                                               *005 LM00007
                                                                                                       LM00008
                  ENTRY TO DATECV.                                                                *006 LM00009
                   MMDDYY=DATECV.(I/O FORMAT)                                                          LM00010
                  X=A                                                                             *007 LM00011
                  Y=(DERBC.(X.RS.9 .A.777K).A.7777K) .V.                                          *008 LM00012
                1   (DERBC.(X.A.37K).A.7777K).LS.12 .V.                                           *008 LM00013
                2   (DERBC.(X.RS.5 .A.17K).A.7777K).LS.24                                         *008 LM00014
                  FUNCTION RETURN Y                                                               *009 LM00015
                                                                                                       LM00016
                  ENTRY TO CKDATE.                                                                *010 LM00017
                   BAD=CKDATE.(DATE)                                                                   LM00018
                  X=A                                                                             *011 LM00019
                  Y=X.RS.9                                                                        *012 LM00020
                  M=X.RS.5 .A.17K                                                                 *013 LM00021
                  D=X.A.37K                                                                       *014 LM00022
                  FUNCTION RETURN Y.G.99 .OR. Y.L.60 .OR. M.G.12 .OR. M.L.1 .OR.                  *015 LM00023
                1     D.G.31 .OR. D.L.1                                                           *015 LM00024
                                                                                                       LM00025
                  ENTRY TO TRKCV.                                                                 *016 LM00026
                   ZEROS=TRKCV.(TWELVES)                                                               LM00027
                  X=A                                                                             *017 LM00028
                  Y1=(X+$666666$).A.$++++++$                                                      *018 LM00029
                  FUNCTION RETURN X .A. .N.(Y1.RS.1) .A. .N.(Y1.RS.3)                             *019 LM00030
                                                                                                       LM00031
                  ENTRY TO CVTRK.                                                                 *020 LM00032
                   TWELVES=CVTRK.(ZEROS)                                                               LM00033
                  X=A                                                                             *021 LM00034
                  Y1=(X+373737373737K) .A. $++++++$                                               *022 LM00035
                  FUNCTION RETURN X .V. Y1.RS.1 .V. Y1.RS.3                                       *023 LM00036
                                                                                                       LM00037
                  ENTRY TO CKTRK.                                                                 *024 LM00038
                   BAD=CKTRK.(TRACK)                                                                   LM00039
                  X=A                                                                             *025 LM00040
                  WHENEVER FIRST                                                                  *026 LM00041
                       THROUGH DKL,FOR I=LDKM,1,I.G.HDKM                                          *027 LM00042
      DKL              TSIZ(I)=NDKT                                                               *028 LM00043
                       THROUGH DML, FOR I=LDMM,1,I.G.HDMM                                         *029 LM00044
      DML              TSIZ(I)=NDMT                                                               *030 LM00045
                       FIRST=0B                                                                   *031 LM00046
                  END OF CONDITIONAL                                                              *032 LM00047
                  WHENEVER (X+373737373737K).A.$++++++$ .NE.0, FUNCTION RETURN 1B                 *033 LM00048
                  Y1=(X+$666666$).A.$++++++$                                                      *034 LM00049
                  Y=X.A. .N.(Y1.RS.1) .A. .N.(Y1.RS.3)                                            *035 LM00050
                  R=Y.A.77K                                                                       *036 LM00051
                  T=BCDEC.(Y.RS.6 .A. 77777777K)                                                  *037 LM00052
                  M=Y.RS.30 .A.77K                                                                *038 LM00053
                  WHENEVER M.L.LDKM.OR.M.G.HDKM .AND. M.L.LDMM .OR. M.G.HDMM, FUNCTION RETURN 1B  *039 LM00054
                  WHENEVER  R.G.1 .OR. T.GE.TSIZ(M), FUNCTION RETURN 1B                           *040 LM00055
                  FUNCTION RETURN 0B                                                              *041 LM00056
                  NORMAL MODE IS INTEGER                                                          *042 LM00057
                  DIMENSION TSIZ(10)                                                              *043 LM00058
                  VECTOR VALUES FIRST=1B                                                          *044 LM00059
                  INSERT FILE SALEQU                                                              *045 LM00060
                   SALEQU                                                                         *045 LM00001
                  VECTOR VALUES MFDORG=101212121212K                                              *046 LM00002
                  VECTOR VALUES LOADER=001212121212K                                              *047 LM00003
                  VECTOR VALUES ENTLEN=7                                                          *048 LM00004
                  VECTOR VALUES ENTRYL=20                                                         *049 LM00005
                  VECTOR VALUES NWPT=432                                                          *050 LM00006
                  VECTOR VALUES LDKM=0                                                            *051 LM00007
                  VECTOR VALUES HDKM=7                                                            *052 LM00008
                  VECTOR VALUES LDMM=8                                                            *053 LM00009
                  VECTOR VALUES HDMM=8                                                            *054 LM00010
                  VECTOR VALUES NDKT=10000                                                        *055 LM00011
                  VECTOR VALUES NDMT=400                                                          *056 LM00012
                  VECTOR VALUES NQW=3                                                             *057 LM00013
                  VECTOR VALUES PROBN=1                                                           *058 LM00014
                  VECTOR VALUES PROGN=2                                                           *059 LM00015
                  VECTOR VALUES ALPHA=3                                                           *060 LM00016
                  VECTOR VALUES BETA=4                                                            *061 LM00017
                  VECTOR VALUES DAYTIM=5                                                          *062 LM00018
                  VECTOR VALUES TIME=6                                                            *063 LM00019
                  VECTOR VALUES DATELU=7                                                          *064 LM00020
                  VECTOR VALUES AUTHOR=8                                                          *065 LM00021
                  VECTOR VALUES MODE=9                                                            *066 LM00022
                  VECTOR VALUES ILOCK=10                                                          *067 LM00023
                  VECTOR VALUES F=11                                                              *068 LM00024
                  VECTOR VALUES RCOUNT=12                                                         *069 LM00025
                  VECTOR VALUES S=13                                                              *070 LM00026
                  VECTOR VALUES W=14                                                              *071 LM00027
                  VECTOR VALUES R=15                                                              *072 LM00028
                  VECTOR VALUES NORECS=16                                                         *073 LM00029
                  VECTOR VALUES P=17                                                              *074 LM00030
                  VECTOR VALUES LCOUNT=18                                                         *075 LM00031
                  VECTOR VALUES LSTRK=19                                                          *076 LM00032
                  VECTOR VALUES FSTRK=20                                                          *077 LM00033
                  VECTOR VALUES TEMPMD=1K                                                         *078 LM00034
                  VECTOR VALUES PARTER=1K                                                         *079 LM00035
                  VECTOR VALUES DISKER=2K                                                         *080 LM00036
                  VECTOR VALUES BADBP=4K                                                          *081 LM00037
                  VECTOR VALUES BADTR=1K1                                                         *082 LM00038
                  VECTOR VALUES BADFP=2K1                                                         *083 LM00039
                  VECTOR VALUES BADTN=4K1                                                         *084 LM00040
                  VECTOR VALUES UNPTRK=1K2                                                        *085 LM00041
                  VECTOR VALUES RUSTRK=2K2                                                        *086 LM00042
                  VECTOR VALUES DIRTRN=4K2                                                        *087 LM00043
                  VECTOR VALUES DTATRN=1K3                                                        *088 LM00044
                  VECTOR VALUES NZITEM=2K3                                                        *089 LM00045
                  VECTOR VALUES BADF=4K3                                                          *090 LM00046
                  VECTOR VALUES BADLTK=1K4                                                        *091 LM00047
                  VECTOR VALUES FATAL=2K4                                                         *092 LM00048
                  VECTOR VALUES FORCE=4K4                                                         *093 LM00049
                  VECTOR VALUES BADATE=1K5                                                        *094 LM00050
                  VECTOR VALUES BADLCT=2K5                                                        *095 LM00051
                  VECTOR VALUES BADRCT=4K5                                                        *096 LM00052
                  VECTOR VALUES BADTC=1K6                                                         *097 LM00053
                  VECTOR VALUES BADP=2K6                                                          *098 LM00054
                  VECTOR VALUES BKCOR=4K6                                                         *099 LM00055
                  VECTOR VALUES BKBAD=1K7                                                         *100 LM00056
                                                                                                       LM00057
                  END OF FUNCTION                                                                 *101 LM00061
1MAD PROGRAM,TYPE NOV 1963      (ALL NUMBERS ARE OCTAL)
0TOTAL LOCATIONS   00657 TRANSFER VECTOR LENGTH  00003 PROGRAM BEGINS    00143
0 PROGRAM IS AN EXTERNAL FUNCTION.   THE FOLLOWING ARE ENTRIES
      CKTRK  00446   0        CVTRK  00415   0        TRKCV  00362   0        CKDATE 00303   0        DATECV 00217   0
      CVDATE 00144   0
0VARIABLE STORAGE (A=ARRAY,C=COMMON,E=ERASABLE,DIGIT=MODE)
      ALPHA  00004 A 1        BKBAD  00022 A 1        FIRST  00035 A 2        MFDORG 00052 A 1        RCOUNT 00067 A 1
      AUTHOR 00005 A 1        BKCOR  00023 A 1        FORCE  00036 A 1        MODE   00053 A 1        R      00070 A 1
      BADATE 00006 A 1        DATELU 00024 A 1        F      00037 A 1        M      00054   1        RUSTRK 00071 A 1
      BADBP  00007 A 1        DAYTIM 00025 A 1        FSTRK  00040 A 1        NDKT   00055 A 1        S      00072 A 1
      BADFP  00010 A 1        DIRTRN 00026 A 1        HDKM   00041 A 1        NDMT   00056 A 1        TEMPMD 00073 A 1
      BADF   00011 A 1        DISKER 00027 A 1        HDMM   00042 A 1        NORECS 00057 A 1        TIME   00074 A 1
      BADLCT 00012 A 1        DKL    00003   4        ILOCK  00043 A 1        NQW    00060 A 1        T      00075   1
      BADLTK 00013 A 1        DML    00003   4        I      00044   1        NWPT   00061 A 1        TSIZ   00110 A 1
      BADP   00014 A 1        D      00030   1        LCOUNT 00045 A 1        NZITEM 00062 A 1        UNPTRK 00111 A 1
      BADRCT 00015 A 1        DTATRN 00031 A 1        LDKM   00046 A 1        PARTER 00063 A 1        W      00112 A 1
      BADTC  00016 A 1        ENTLEN 00032 A 1        LDMM   00047 A 1        PROBN  00064 A 1        X      00113   1
      BADTN  00017 A 1        ENTRYL 00033 A 1        LOADER 00050 A 1        PROGN  00065 A 1        Y1     00114   1
      BADTR  00020 A 1        FATAL  00034 A 1        LSTRK  00051 A 1        P      00066 A 1        Y      00115   1
      BETA   00021 A 1
0FUNCTION DICTIONARY
      BCDEC  00000   1        DERBC  00001   1        EXIT   00002   1
0ABSOLUTE CONSTANTS
 00127 +000000000036     00136 +000077777777     00122 +000000000006     00132 +000000000077     00116 +000000000000
 00142 +373737373737     00120 +000000000003     00140 +202020202020     00137 +060606060606     00133 +000000000143
 00131 +000000000074     00134 +000000000777     00130 +000000000037     00125 +000000000017     00123 +000000000011
 00124 +000000000014     00121 +000000000005     00135 +000000007777     00126 +000000000030     00117 +000000000001
 00141 +233000000000
0PROGRAM
                 EXTERNAL FUNCTION (A)                                              001  LM00001
                 ENTRY TO CVDATE.                                                   002  LM00002
 00143 TRA +0 02000 0 00146    00144 SXA +0 63400 2 00633    00145 TSX +0 07400 2 00633
                 X=A                                                                003  LM00004
 00146 CLA +0 50000 0 00024    00147 STO +0 60100 0 00113
                 Y=BCDEC.(X.A.7777K).LS.9 .V.BCDEC.(X.RS.12 .A.7777K).V.            004  LM00005
                1  BCDEC.(X.RS.24 .A.7777K).LS.5                                    004  LM00006
 00150 CAL -0 50000 0 00126    00151 STA +0 62100 0 00153    00152 CAL -0 50000 0 00113    00153 LGR -0 76500 0 00000
 00154 ANA -0 32000 0 00135    00155 SLW +0 60200 0 00652    00156 TSX +0 07400 4 00000    00157 TXH +3 00000 0 00652
 00160 STO +0 60100 0 00652    00161 CAL -0 50000 0 00121    00162 STA +0 62100 0 00164    00163 CAL -0 50000 0 00652
 00164 ALS +0 76700 0 00000    00165 SLW +0 60200 0 00652    00166 CAL -0 50000 0 00124    00167 STA +0 62100 0 00171
 00170 CAL -0 50000 0 00113    00171 LGR -0 76500 0 00000    00172 ANA -0 32000 0 00135    00173 SLW +0 60200 0 00653
 00174 TSX +0 07400 4 00000    00175 TXH +3 00000 0 00653    00176 STO +0 60100 0 00653    00177 CAL -0 50000 0 00113
 00200 ANA -0 32000 0 00135    00201 SLW +0 60200 0 00654    00202 TSX +0 07400 4 00000    00203 TXH +3 00000 0 00654
 00204 STO +0 60100 0 00654    00205 CAL -0 50000 0 00123    00206 STA +0 62100 0 00210    00207 CAL -0 50000 0 00654
 00210 ALS +0 76700 0 00000    00211 ORA -0 50100 0 00653    00212 ORA -0 50100 0 00652    00213 SLW +0 60200 0 00115
                 F'N Y                                                              005  LM00007
 00214 CLA +0 50000 0 00115    00215 TRA +0 02000 0 00646
                 ENTRY TO DATECV.                                                   006  LM00009
 00216 TRA +0 02000 0 00221    00217 SXA +0 63400 2 00633    00220 TSX +0 07400 2 00633
                 X=A                                                                007  LM00011
 00221 CLA +0 50000 0 00024    00222 STO +0 60100 0 00113
                 Y=(DERBC.(X.RS.9 .A.777K).A.7777K) .V.                             008  LM00012
                1  (DERBC.(X.A.37K).A.7777K).LS.12 .V.                              008  LM00013
                2  (DERBC.(X.RS.5 .A.17K).A.7777K).LS.24                            008  LM00014
 00223 CAL -0 50000 0 00121    00224 STA +0 62100 0 00226    00225 CAL -0 50000 0 00113    00226 LGR -0 76500 0 00000
 00227 ANA -0 32000 0 00125    00230 SLW +0 60200 0 00654    00231 TSX +0 07400 4 00001    00232 TXH +3 00000 0 00654
 00233 STO +0 60100 0 00654    00234 CAL -0 50000 0 00654    00235 ANA -0 32000 0 00135    00236 SLW +0 60200 0 00654
 00237 CAL -0 50000 0 00126    00240 STA +0 62100 0 00242    00241 CAL -0 50000 0 00654    00242 ALS +0 76700 0 00000
 00243 SLW +0 60200 0 00654    00244 CAL -0 50000 0 00113    00245 ANA -0 32000 0 00130    00246 SLW +0 60200 0 00653
 00247 TSX +0 07400 4 00001    00250 TXH +3 00000 0 00653    00251 STO +0 60100 0 00653    00252 CAL -0 50000 0 00653
 00253 ANA -0 32000 0 00135    00254 SLW +0 60200 0 00653    00255 CAL -0 50000 0 00124    00256 STA +0 62100 0 00260
 00257 CAL -0 50000 0 00653    00260 ALS +0 76700 0 00000    00261 SLW +0 60200 0 00653    00262 CAL -0 50000 0 00123
 00263 STA +0 62100 0 00265    00264 CAL -0 50000 0 00113    00265 LGR -0 76500 0 00000    00266 ANA -0 32000 0 00134
 00267 SLW +0 60200 0 00652    00270 TSX +0 07400 4 00001    00271 TXH +3 00000 0 00652    00272 STO +0 60100 0 00652
 00273 CAL -0 50000 0 00652    00274 ANA -0 32000 0 00135    00275 ORA -0 50100 0 00653    00276 ORA -0 50100 0 00654
 00277 SLW +0 60200 0 00115
                 F'N Y                                                              009  LM00015
 00300 CLA +0 50000 0 00115    00301 TRA +0 02000 0 00646
                 ENTRY TO CKDATE.                                                   010  LM00017
 00302 TRA +0 02000 0 00305    00303 SXA +0 63400 2 00633    00304 TSX +0 07400 2 00633
                 X=A                                                                011  LM00019
 00305 CLA +0 50000 0 00024    00306 STO +0 60100 0 00113
                 Y=X.RS.9                                                           012  LM00020
 00307 CAL -0 50000 0 00123    00310 STA +0 62100 0 00312    00311 CAL -0 50000 0 00113    00312 LGR -0 76500 0 00000
 00313 SLW +0 60200 0 00115
                 M=X.RS.5 .A.17K                                                    013  LM00021
 00314 CAL -0 50000 0 00121    00315 STA +0 62100 0 00317    00316 CAL -0 50000 0 00113    00317 LGR -0 76500 0 00000
 00320 ANA -0 32000 0 00125    00321 SLW +0 60200 0 00054
                 D=X.A.37K                                                          014  LM00022
 00322 CAL -0 50000 0 00113    00323 ANA -0 32000 0 00130    00324 SLW +0 60200 0 00030
                 F'N Y.G.99 .OR. Y.L.60 .OR. M.G.12 .OR. M.L.1 .OR.                 015  LM00023
                1    D.G.31 .OR. D.L.1                                              015  LM00024
 00325 CLA +0 50000 0 00030    00326 SUB +0 40200 0 00117    00327 TZE +0 10000 0 00331    00330 TMI -0 12000 0 00357
 00331 CLA +0 50000 0 00030    00332 SUB +0 40200 0 00130    00333 TZE +0 10000 0 00335    00334 TPL +0 12000 0 00357
 00335 CLA +0 50000 0 00054    00336 SUB +0 40200 0 00117    00337 TZE +0 10000 0 00341    00340 TMI -0 12000 0 00357
 00341 CLA +0 50000 0 00054    00342 SUB +0 40200 0 00124    00343 TZE +0 10000 0 00345    00344 TPL +0 12000 0 00357
 00345 CLA +0 50000 0 00115    00346 SUB +0 40200 0 00131    00347 TZE +0 10000 0 00351    00350 TMI -0 12000 0 00357
 00351 CLA +0 50000 0 00115    00352 SUB +0 40200 0 00133    00353 TZE +0 10000 0 00355    00354 TPL +0 12000 0 00357
 00355 PXD -0 75400 0 00000    00356 TRA +0 02000 0 00360    00357 CLA +0 50000 0 00117    00360 TRA +0 02000 0 00646
                 ENTRY TO TRKCV.                                                    016  LM00026
 00361 TRA +0 02000 0 00364    00362 SXA +0 63400 2 00633    00363 TSX +0 07400 2 00633
                 X=A                                                                017  LM00028
 00364 CLA +0 50000 0 00024    00365 STO +0 60100 0 00113
                 Y1=(X+$666666$).A.$++++++$                                         018  LM00029
 00366 CLA +0 50000 0 00113    00367 ADD +0 40000 0 00137    00370 STO +0 60100 0 00654    00371 CAL -0 50000 0 00654
 00372 ANA -0 32000 0 00140    00373 SLW +0 60200 0 00114
                 F'N X .A. .N.(Y1.RS.1) .A. .N.(Y1.RS.3)                            019  LM00030
 00374 CAL -0 50000 0 00120    00375 STA +0 62100 0 00377    00376 CAL -0 50000 0 00114    00377 LGR -0 76500 0 00000
 00400 COM +0 76000 0 00006    00401 SLW +0 60200 0 00654    00402 CAL -0 50000 0 00117    00403 STA +0 62100 0 00405
 00404 CAL -0 50000 0 00114    00405 LGR -0 76500 0 00000    00406 COM +0 76000 0 00006    00407 ANA -0 32000 0 00113
 00410 ANA -0 32000 0 00654    00411 SLW +0 60200 0 00654    00412 CLA +0 50000 0 00654    00413 TRA +0 02000 0 00646
                 ENTRY TO CVTRK.                                                    020  LM00032
 00414 TRA +0 02000 0 00417    00415 SXA +0 63400 2 00633    00416 TSX +0 07400 2 00633
                 X=A                                                                021  LM00034
 00417 CLA +0 50000 0 00024    00420 STO +0 60100 0 00113
                 Y1=(X+373737373737K) .A. $++++++$                                  022  LM00035
 00421 CLA +0 50000 0 00113    00422 ADD +0 40000 0 00142    00423 STO +0 60100 0 00654    00424 CAL -0 50000 0 00654
 00425 ANA -0 32000 0 00140    00426 SLW +0 60200 0 00114
                 F'N X .V. Y1.RS.1 .V. Y1.RS.3                                      023  LM00036
 00427 CAL -0 50000 0 00120    00430 STA +0 62100 0 00432    00431 CAL -0 50000 0 00114    00432 LGR -0 76500 0 00000
 00433 SLW +0 60200 0 00654    00434 CAL -0 50000 0 00117    00435 STA +0 62100 0 00437    00436 CAL -0 50000 0 00114
 00437 LGR -0 76500 0 00000    00440 ORA -0 50100 0 00113    00441 ORA -0 50100 0 00654    00442 SLW +0 60200 0 00654
 00443 CLA +0 50000 0 00654    00444 TRA +0 02000 0 00646
                 ENTRY TO CKTRK.                                                    024  LM00038
 00445 TRA +0 02000 0 00450    00446 SXA +0 63400 2 00633    00447 TSX +0 07400 2 00633
                 X=A                                                                025  LM00040
 00450 CLA +0 50000 0 00024    00451 STO +0 60100 0 00113
                 W'R FIRST                                                          026  LM00041
 00452 NZT -0 52000 0 00035    00453 TRA +0 02000 0 00512
                      T'H DKL,FOR I=LDKM,1,I.G.HDKM                                 027  LM00042
 00454 CLA +0 50000 0 00046    00455 STO +0 60100 0 00044    00456 TRA +0 02000 0 00462    00457 CLA +0 50000 0 00044
 00460 ADD +0 40000 0 00117    00461 STO +0 60100 0 00044    00462 CLA +0 50000 0 00044    00463 SUB +0 40200 0 00041
 00464 TZE +0 10000 0 00466    00465 TPL +0 12000 0 00472
      DKL             TSIZ(I)=NDKT                                                  028  LM00043
 00466 LXA +0 53400 1 00044    00467 CLA +0 50000 0 00055    00470 STO +0 60100 1 00110    00471 TRA +0 02000 0 00457
                      T'H DML, FOR I=LDMM,1,I.G.HDMM                                029  LM00044
 00472 CLA +0 50000 0 00047    00473 STO +0 60100 0 00044    00474 TRA +0 02000 0 00500    00475 CLA +0 50000 0 00044
 00476 ADD +0 40000 0 00117    00477 STO +0 60100 0 00044    00500 CLA +0 50000 0 00044    00501 SUB +0 40200 0 00042
 00502 TZE +0 10000 0 00504    00503 TPL +0 12000 0 00510
      DML             TSIZ(I)=NDMT                                                  030  LM00045
 00504 LXA +0 53400 1 00044    00505 CLA +0 50000 0 00056    00506 STO +0 60100 1 00110    00507 TRA +0 02000 0 00475
                      FIRST=0B                                                      031  LM00046
 00510 CLA +0 50000 0 00116    00511 STO +0 60100 0 00035
                 E'L                                                                032  LM00047
                 W'R (X+373737373737K).A.$++++++$ .NE.0, F'N 1B                     033  LM00048
 00512 CLA +0 50000 0 00113    00513 ADD +0 40000 0 00142    00514 STO +0 60100 0 00654    00515 CAL -0 50000 0 00654
 00516 ANA -0 32000 0 00140    00517 SLW +0 60200 0 00654    00520 CLA +0 50000 0 00654    00521 SUB +0 40200 0 00116
 00522 TZE +0 10000 0 00525    00523 CLA +0 50000 0 00117    00524 TRA +0 02000 0 00646
                 Y1=(X+$666666$).A.$++++++$                                         034  LM00049
 00525 CLA +0 50000 0 00113    00526 ADD +0 40000 0 00137    00527 STO +0 60100 0 00654    00530 CAL -0 50000 0 00654
 00531 ANA -0 32000 0 00140    00532 SLW +0 60200 0 00114
                 Y=X.A. .N.(Y1.RS.1) .A. .N.(Y1.RS.3)                               035  LM00050
 00533 CAL -0 50000 0 00120    00534 STA +0 62100 0 00536    00535 CAL -0 50000 0 00114    00536 LGR -0 76500 0 00000
 00537 COM +0 76000 0 00006    00540 SLW +0 60200 0 00654    00541 CAL -0 50000 0 00117    00542 STA +0 62100 0 00544
 00543 CAL -0 50000 0 00114    00544 LGR -0 76500 0 00000    00545 COM +0 76000 0 00006    00546 ANA -0 32000 0 00113
 00547 ANA -0 32000 0 00654    00550 SLW +0 60200 0 00115
                 R=Y.A.77K                                                          036  LM00051
 00551 CAL -0 50000 0 00115    00552 ANA -0 32000 0 00132    00553 SLW +0 60200 0 00070
                 T=BCDEC.(Y.RS.6 .A. 77777777K)                                     037  LM00052
 00554 CAL -0 50000 0 00122    00555 STA +0 62100 0 00557    00556 CAL -0 50000 0 00115    00557 LGR -0 76500 0 00000
 00560 ANA -0 32000 0 00136    00561 SLW +0 60200 0 00654    00562 TSX +0 07400 4 00000    00563 TXH +3 00000 0 00654
 00564 STO +0 60100 0 00075
                 M=Y.RS.30 .A.77K                                                   038  LM00053
 00565 CAL -0 50000 0 00127    00566 STA +0 62100 0 00570    00567 CAL -0 50000 0 00115    00570 LGR -0 76500 0 00000
 00571 ANA -0 32000 0 00132    00572 SLW +0 60200 0 00054
                 W'R M.L.LDKM.OR.M.G.HDKM .AND. M.L.LDMM .OR. M.G.HDMM, F'N 1B      039  LM00054
 00573 CLA +0 50000 0 00054    00574 SUB +0 40200 0 00042    00575 TZE +0 10000 0 00577    00576 TPL +0 12000 0 00613
 00577 CLA +0 50000 0 00054    00600 SUB +0 40200 0 00047    00601 TZE +0 10000 0 00607    00602 TPL +0 12000 0 00607
 00603 CLA +0 50000 0 00054    00604 SUB +0 40200 0 00041    00605 TZE +0 10000 0 00607    00606 TPL +0 12000 0 00613
 00607 CLA +0 50000 0 00054    00610 SUB +0 40200 0 00046    00611 TZE +0 10000 0 00615    00612 TPL +0 12000 0 00615
 00613 CLA +0 50000 0 00117    00614 TRA +0 02000 0 00646
                 W'R  R.G.1 .OR. T.GE.TSIZ(M), F'N 1B                               040  LM00055
 00615 LXA +0 53400 2 00054    00616 CLA +0 50000 0 00075    00617 SUB +0 40200 2 00110    00620 TZE +0 10000 0 00626
 00621 TPL +0 12000 0 00626    00622 CLA +0 50000 0 00070    00623 SUB +0 40200 0 00117    00624 TZE +0 10000 0 00630
 00625 TMI -0 12000 0 00630    00626 CLA +0 50000 0 00117    00627 TRA +0 02000 0 00646
                 F'N 0B                                                             041  LM00056
 00630 CLA +0 50000 0 00116    00631 TRA +0 02000 0 00646
                 NORMAL MODE IS INTEGER                                             042  LM00057
                 DIMENSION TSIZ(10)                                                 043  LM00058
                 V'S FIRST=1B                                                       044  LM00059
 00035     +0 00000 0 00001
                 INSERT FILE SALEQU                                                 045  LM00060
                 V'S MFDORG=101212121212K                                           046  LM00002
 00052     +1 01212 1 21212
                 V'S LOADER=001212121212K                                           047  LM00003
 00050     +0 01212 1 21212
                 V'S ENTLEN=7                                                       048  LM00004
 00032     +0 00000 0 00007
                 V'S ENTRYL=20                                                      049  LM00005
 00033     +0 00000 0 00024
                 V'S NWPT=432                                                       050  LM00006
 00061     +0 00000 0 00660
                 V'S LDKM=0                                                         051  LM00007
 00046     +0 00000 0 00000
                 V'S HDKM=7                                                         052  LM00008
 00041     +0 00000 0 00007
                 V'S LDMM=8                                                         053  LM00009
 00047     +0 00000 0 00010
                 V'S HDMM=8                                                         054  LM00010
 00042     +0 00000 0 00010
                 V'S NDKT=10000                                                     055  LM00011
 00055     +0 00000 0 23420
                 V'S NDMT=400                                                       056  LM00012
 00056     +0 00000 0 00620
                 V'S NQW=3                                                          057  LM00013
 00060     +0 00000 0 00003
                 V'S PROBN=1                                                        058  LM00014
 00064     +0 00000 0 00001
                 V'S PROGN=2                                                        059  LM00015
 00065     +0 00000 0 00002
                 V'S ALPHA=3                                                        060  LM00016
 00004     +0 00000 0 00003
                 V'S BETA=4                                                         061  LM00017
 00021     +0 00000 0 00004
                 V'S DAYTIM=5                                                       062  LM00018
 00025     +0 00000 0 00005
                 V'S TIME=6                                                         063  LM00019
 00074     +0 00000 0 00006
                 V'S DATELU=7                                                       064  LM00020
 00024     +0 00000 0 00007
                 V'S AUTHOR=8                                                       065  LM00021
 00005     +0 00000 0 00010
                 V'S MODE=9                                                         066  LM00022
 00053     +0 00000 0 00011
                 V'S ILOCK=10                                                       067  LM00023
 00043     +0 00000 0 00012
                 V'S F=11                                                           068  LM00024
 00037     +0 00000 0 00013
                 V'S RCOUNT=12                                                      069  LM00025
 00067     +0 00000 0 00014
                 V'S S=13                                                           070  LM00026
 00072     +0 00000 0 00015
                 V'S W=14                                                           071  LM00027
 00112     +0 00000 0 00016
                 V'S R=15                                                           072  LM00028
 00070     +0 00000 0 00017
                 V'S NORECS=16                                                      073  LM00029
 00057     +0 00000 0 00020
                 V'S P=17                                                           074  LM00030
 00066     +0 00000 0 00021
                 V'S LCOUNT=18                                                      075  LM00031
 00045     +0 00000 0 00022
                 V'S LSTRK=19                                                       076  LM00032
 00051     +0 00000 0 00023
                 V'S FSTRK=20                                                       077  LM00033
 00040     +0 00000 0 00024
                 V'S TEMPMD=1K                                                      078  LM00034
 00073     +0 00000 0 00001
                 V'S PARTER=1K                                                      079  LM00035
 00063     +0 00000 0 00001
                 V'S DISKER=2K                                                      080  LM00036
 00027     +0 00000 0 00002
                 V'S BADBP=4K                                                       081  LM00037
 00007     +0 00000 0 00004
                 V'S BADTR=1K1                                                      082  LM00038
 00020     +0 00000 0 00010
                 V'S BADFP=2K1                                                      083  LM00039
 00010     +0 00000 0 00020
                 V'S BADTN=4K1                                                      084  LM00040
 00017     +0 00000 0 00040
                 V'S UNPTRK=1K2                                                     085  LM00041
 00111     +0 00000 0 00100
                 V'S RUSTRK=2K2                                                     086  LM00042
 00071     +0 00000 0 00200
                 V'S DIRTRN=4K2                                                     087  LM00043
 00026     +0 00000 0 00400
                 V'S DTATRN=1K3                                                     088  LM00044
 00031     +0 00000 0 01000
                 V'S NZITEM=2K3                                                     089  LM00045
 00062     +0 00000 0 02000
                 V'S BADF=4K3                                                       090  LM00046
 00011     +0 00000 0 04000
                 V'S BADLTK=1K4                                                     091  LM00047
 00013     +0 00000 0 10000
                 V'S FATAL=2K4                                                      092  LM00048
 00034     +0 00000 0 20000
                 V'S FORCE=4K4                                                      093  LM00049
 00036     +0 00000 0 40000
                 V'S BADATE=1K5                                                     094  LM00050
 00006     +0 00000 1 00000
                 V'S BADLCT=2K5                                                     095  LM00051
 00012     +0 00000 2 00000
                 V'S BADRCT=4K5                                                     096  LM00052
 00015     +0 00000 4 00000
                 V'S BADTC=1K6                                                      097  LM00053
 00016     +0 00001 0 00000
                 V'S BADP=2K6                                                       098  LM00054
 00014     +0 00002 0 00000
                 V'S BKCOR=4K6                                                      099  LM00055
 00023     +0 00004 0 00000
                 V'S BKBAD=1K7                                                      100  LM00056
 00022     +0 00010 0 00000
                 END OF FUNCTION                                                    101  LM00061
 00632 TSX +0 07400 4 00002    00633 TXH +3 00000 0 00000    00634 SXD -0 63400 1 00633    00635 SXA +0 63400 4 00646
 00636 CLA +0 50000 4 00001    00637 STA +0 62100 0 00146    00640 STA +0 62100 0 00221    00641 STA +0 62100 0 00305
 00642 STA +0 62100 0 00364    00643 STA +0 62100 0 00417    00644 STA +0 62100 0 00450    00645 TRA +0 02000 2 00001
 00646 AXT +0 77400 4 00000    00647 LXA +0 53400 2 00633    00650 LXD -0 53400 1 00633    00651 TRA +0 02000 4 00001


  DIOT   BCD 12/14/70 1511.0    2175         00000
1            TINIT.(0)                                                                           PAGE 1

                              *      TREAD.(ADR,BUF)
                              *      TWRIT.(ADR,BUF)
                              *      TWAIT.(ERLOC,ERRCD)
                              *      ERRCD=1 FOR BAD DATA (PARITY ERRORS)
                              *      ERRCD=2 FOR ADR NOT FOUND
                              *      ADR MAY BE ANY ASSENDING NUMBERS
                              *
                       00002         ENTRY   TINIT
                       00022         ENTRY   TREAD
                       00052         ENTRY   TWRIT
                       00105         ENTRY   TWAIT
                       00004         ENTRY   TEND

            LINKAGE DIRECTOR
      00000  000000000000
      00001  633145316360

                       00663  N      EQU     435
                       02201  X      TAPENO  B1
                              *
      00002  0772 00 0 02201  TINIT  REWX
      00003  0020 00 4 00001         TRA     1,4
                              *
      00004  0636 00 4 00016  TEND   SCA     XRE,4
      00005  0634 00 1 00017         SXA     XRE+1,1
      00006  0774 00 1 00012         AXT     10,1
      00007  0074 00 4 00052  EL     TSX     TWRIT,4
      00010  3 00000 0 00010         PTH     *
      00011  3 00000 0 00242         PTH     =O377777777777
      00012  0074 00 4 00105         TSX     TWAIT,4
      00013  3 00000 0 00013         PTH     *
      00014  3 00000 0 00021         PTH     ERC
      00015  2 00001 1 00007         TIX     EL,1,1
      00016 -0774 00 4 00000  XRE    AXC     ,4
      00017  0774 00 1 00000         AXT     ,1
      00020  0020 00 4 00001         TRA     1,4
      00021  0 00000 0 00000  ERC    PZE
                              *
      00022  0636 00 4 00037  TREAD  SCA     XRR,4
      00023 -0500 60 4 00001         CAL*    1,4
      00024  0602 00 0 00102         SLW     ADRW
      00025 -0500 00 4 00002         CAL     2,4
      00026  0621 00 0 00042         STA     IOR
      00027  0774 00 4 00004         AXT     4,4
      00030  0600 00 4 00050         STZ     CKF+4,4
      00031  2 00001 4 00030         TIX     *-1,4,1
      00032  0762 00 0 02221         RTBX
      00033 -0540 00 0 00041         RCHX    IOCR
      00034 -0625 00 0 00237         STL     READ
      00035  0600 00 0 00236         STZ     RCT
      00036  0600 00 0 00235         STZ     NCT
      00037 -0774 00 4 00000  XRR    AXC     ,4
      00040  0020 00 4 00001         TRA     1,4
      00041 -0 00003 0 00044  IOCR   IOCP    CKF,,3
      00042 -0 00663 0 00000  IOR    IOCP    **,,N
      00043  0 00001 0 00047         IOCD    LSTC,,1
1            TINIT.(0)                                                                           PAGE 2

      00044  0 00000 0 00000  CKF    PZE
      00045  0 00000 0 00000  ADR    PZE
      00046  0 00000 0 00000  CS     PZE
      00047  0 00000 0 00000  LSTC   PZE
      00050  0 00000 0 00000  LERR
      00051  0 00000 0 00000  LERRM
                              *
      00052  0636 00 4 00073  TWRIT  SCA     XRW,4
      00053 -0500 60 4 00001         CAL*    1,4
      00054  0602 00 0 00102         SLW     ADRW
      00055 -0500 00 4 00002         CAL     2,4
      00056  0621 00 0 00077         STA     IOW
      00057  0361 00 0 00075         ACL     NX
      00060  0621 00 0 00063         STA     WCS
      00061  0774 00 4 00663         AXT     N,4
      00062 -0754 00 0 00000         ZAC
      00063  0361 00 4 00000  WCS    ACL     **,4
      00064  2 00001 4 00063         TIX     *-1,4,1
      00065  0602 00 0 00103         SLW     CSW
      00066  0766 00 0 02221         WTBX
      00067 -0540 00 0 00076         RCHX    IOCW
      00070  0600 00 0 00237         STZ     READ
      00071  0600 00 0 00236         STZ     RCT
      00072  0600 00 0 00235         STZ     NCT
      00073 -0774 00 4 00000  XRW    AXC     ,4
      00074  0020 00 4 00001         TRA     1,4
      00075  0 00000 0 00663  NX     PZE     N
      00076 -0 00003 0 00101  IOCW   IOCP    FST,,3
      00077 -0 00663 0 00000  IOW    IOCP    **,,N
      00100  0 00001 0 00104         IOCD    LAST,,1
      00101  263151626366     FST    BCI     1,FIRSTW
      00102  0 00000 0 00000  ADRW   PZE
      00103  0 00000 0 00000  CSW    PZE
      00104  432162636660     LAST   BCI     1,LASTW
                              *
      00105  0636 00 4 00144  TWAIT  SCA     XRT,4
      00106  0634 00 1 00145         SXA     XRT+1,1
      00107  0560 00 0 00045  WT     LDQ     ADR           SHOW IN LIGHTS
      00110  0061 00 0 00107         TCOX    *-1
      00111 -0520 00 0 00237         NZT     READ
      00112  0020 00 0 00147         TRA     CWT
      00113 -0022 00 0 00221         TRCX    BADR
      00114 -0500 00 0 00042         CAL     IOR
      00115  0361 00 0 00075         ACL     NX
      00116  0621 00 0 00121         STA     *+3
      00117  0774 00 4 00663         AXT     N,4
      00120 -0754 00 0 00000         ZAC
      00121  0361 00 4 00000         ACL     **,4
      00122  2 00001 4 00121         TIX     *-1,4,1
      00123  0602 00 0 00103         SLW     CSW
      00124  0774 00 1 00004         AXT     4,1
      00125 -0500 00 1 00144  CL     CAL     ORD+4,1
      00126  0737 00 4 00000         PAC     ,4
      00127 -0500 00 4 00044         CAL     CKF,4
      00130  0322 00 4 00101         ERA     FST,4
      00131 -0100 60 4 00134         TNZ*    ER,4
1            TINIT.(0)                                                                           PAGE 3

      00132  2 00001 1 00125         TIX     CL,1,1
      00133  0020 00 0 00144         TRA     XRT
      00134  0 00000 0 00221  ER             BADR
      00135  0 00000 0 00155                 BADNO
      00136  0 00000 0 00221                 BADR
      00137  0 00000 0 00221                 BADR
      00140 +000000000000     ORD    DEC     0,2,3,1
      00141 +000000000002
      00142 +000000000003
      00143 +000000000001
      00144 -0774 00 4 00000  XRT    AXC     ,4
      00145  0774 00 1 00000         AXT     ,1
      00146  0020 00 4 00001         TRA     1,4
                              *
      00147 -0022 00 0 00152  CWT    TRCX    RW
      00150 -0030 00 0 00152         TEFX    RW
      00151  0020 00 0 00144         TRA     XRT
      00152  0766 00 0 02221  RW     WTBX
      00153 -0540 00 0 00076         RCHX    IOCW
      00154  0020 00 0 00107         TRA     WT
                              *
      00155  0500 00 0 00045  BADNO  CLA     ADR
      00156  0402 00 0 00102         SUB     ADRW
      00157  0340 00 0 00050         CAS     LERR
      00160  0020 00 0 00162         TRA     *+2
      00161  0020 00 0 00172         TRA     CLOSER
      00162 -0340 00 0 00051         LAS     LERRM
      00163  0020 00 0 00166         TRA     *+3
      00164  0020 00 0 00166         TRA     *+2
      00165  0020 00 0 00172         TRA     CLOSER
      00166  0534 00 4 00235         LXA     NCT,4
      00167  1 00001 4 00170         TXI     *+1,4,1
      00170  0634 00 4 00235         SXA     NCT,4
      00171  3 00024 4 00230         TXH     NER,4,20
      00172  0601 00 0 00050  CLOSER STO     LERR
      00173  0760 00 0 00003         SSP
      00174  0601 00 0 00051         STO     LERRM
      00175 -0500 00 0 00045         CAL     ADR
      00176 -0340 00 0 00102         LAS     ADRW
      00177  0020 00 0 00202         TRA     BKUP
      00200  0000 00 0 00200         HTR     *
      00201  0020 00 0 00213         TRA     RR
      00202  0560 00 0 00045  BKUP   LDQ     ADR
      00203  0774 00 4 00004         AXT     4,4
      00204  0764 00 0 02201         BSRX
      00205  2 00001 4 00204         TIX     *-1,4,1
      00206  0534 00 4 00235         LXA     NCT,4
      00207  0760 00 0 02000         BTTX
      00210  1 00001 4 00211         TXI     *+1,4,1
      00211  0634 00 4 00235         SXA     NCT,4
      00212  3 00024 4 00230         TXH     NER,4,20
      00213  0774 00 4 00004  RR     AXT     4,4
      00214  0600 00 4 00050         STZ     CKF+4,4
      00215  2 00001 4 00214         TIX     *-1,4,1
      00216  0762 00 0 02221         RTBX
      00217 -0540 00 0 00041         RCHX    IOCR
1            TINIT.(0)                                                                           PAGE 4

      00220  0020 00 0 00107         TRA     WT
                              *
      00221  0534 00 4 00236  BADR   LXA     RCT,4
      00222  1 00001 4 00223         TXI     *+1,4,1
      00223  0634 00 4 00236         SXA     RCT,4
      00224  3 00144 4 00226         TXH     RER,4,100
      00225  0020 00 0 00213         TRA     RR
                              *
      00226 -0500 00 0 00240  RER    CAL     =1
      00227  0020 00 0 00231         TRA     *+2
      00230 -0500 00 0 00241  NER    CAL     =2
      00231  0535 00 4 00144         LAC     XRT,4
      00232  0534 00 1 00145         LXA     XRT+1,1
      00233  0602 60 4 00002         SLW*    2,4
      00234  0020 60 4 00001         TRA*    1,4
      00235  0 00000 0 00000  NCT
      00236  0 00000 0 00000  RCT
      00237  0 00000 0 00000  READ
                                     END

        LITERALS
      00240  000000000001
      00241  000000000002
      00242  377777777777
1            TINIT.(0)                                                                           PAGE 1
                        POST PROCESSOR ASSEMBLY DATA

        243 IS THE FIRST LOCATION NOT USED BY THIS PROGRAM

0REFERENCES TO DEFINED SYMBOLS
        663      N     2,   42,   61,   75,   77,  117
       2201      X     2,   32,   33,   66,   67,  110,  113,  147,  150,  152,  153,  204,  207,  216,  217
        125     CL   132
         46     CS
          7     EL    15
        134     ER   131
         75     NX    57,  115
        213     RR   201,  225
        152     RW   147,  150
        107     WT   154,  220
         45    ADR   107,  155,  175,  202
         44    CKF    30,   41,  127,  214
        103    CSW    65,  123
        147    CWT   112
         21    ERC    14
        101    FST    76,  130
         42    IOR    26,  114
         77    IOW    56
        235    NCT    36,   72,  166,  170,  206,  211
        230    NER   171,  212
        140    ORD   125
        236    RCT    35,   71,  221,  223
        226    RER   224
         63    WCS    60
         16    XRE     4,    5
         37    XRR    22
        144    XRT   105,  106,  133,  151,  231,  232
         73    XRW    52
        102   ADRW    24,   54,  156,  176
        221   BADR   113,  134,  136,  137
        202   BKUP   177
         41   IOCR    33,  217
         76   IOCW    67,  153
        104   LAST   100
         50   LERR   157,  172
         47   LSTC    43
        237   READ    34,   70,  111
          4   TEND     0
        155  BADNO   135
         51  LERRM   162,  174
          2  TINIT     0
         22  TREAD     0
        105  TWAIT     0,   12
         52  TWRIT     0,    7
        172 CLOSER   161,  165

0 NO ERROR IN ABOVE ASSEMBLY.


  DIOI   BCD 12/14/70 1511.0    1109         00000
1                                  ERRCD=1                                                       PAGE 1

                       00011         ENTRY   DINIT         DINIT.
                       00020         ENTRY   DREAD         DREAD.(TRACK ADR,BUF,BAD ADR RET)
                       00023         ENTRY   DWRIT         AS ABOVE
                       00757         ENTRY   DWAIT         DWAIT.(ERRLOC,ERRCD)
                              *
                                     EXTERN  .DINIT,.DREAD,.DWRIT,.DWAIT,.SETER,ENABLE
                              *

        TRANSFER VECTOR
      00000  332431453163     .DINIT
      00001  332451252124     .DREAD
      00002  332466513163     .DWRIT
      00003  332466213163     .DWAIT
      00004  336225632551     .SETER
      00005  254521224325     ENABLE
      00006  232464444760     CDUMP

            LINKAGE DIRECTOR
      00007  000000000000
      00010  243145316360

      00011  0636 00 4 00016  DINIT  SCA     XRI,4         SAVE IR
      00012  0074 00 4 00000         TSX     .DINIT,4
      00013  0 00000 0 00005                 ENABLE
      00014  0074 00 4 00004         TSX     .SETER,4      SET ERR RETURN
      00015  0 00000 0 00763                 ERRPRG
      00016 -0774 00 4 00000  XRI    AXC     ,4
      00017  0020 00 4 00001         TRA     1,4
                              *
      00020 -0500 00 0 00001  DREAD  CAL     .DREAD
      00021  0600 00 0 00070         STZ     WT
      00022  0020 00 0 00025         TRA     RW
      00023 -0500 00 0 00002  DWRIT  CAL     .DWRIT
      00024 -0625 00 0 00070         STL     WT
      00025  0621 00 0 00056  RW     STA     RWA
      00026  0636 00 4 00061         SCA     XR,4
      00027 -0500 60 4 00001         CAL*    1,4           GET TRACK
      00030  0601 00 0 00065         STO     LIST
      00031  0601 00 0 00071         STO     LIST1
      00032 -0500 00 4 00002         CAL     2,4           GET ADR OF BUF
      00033  0621 00 0 00066         STA     LIST+1
      00034 -0520 00 0 00070         NZT     WT
      00035  0020 00 0 00056         TRA     RWA
      00036  0760 00 0 00166         SWT     6
      00037  0020 00 0 00041         TRA     *+2
      00040  0020 00 0 00053         TRA     ON
      00041  0074 00 4 00001         TSX     .DREAD,4
      00042  0 00000 0 00071                 LIST1
      00043  0 00000 0 00063                 BADADR
      00044  0074 00 4 00003         TSX     .DWAIT,4
      00045 -0500 00 0 00066         CAL     LIST+1
      00046  0621 00 0 00052         STA     P
      00047  0074 00 4 00006         TSX     $CDUMP,4
 TD   00050  3 00000 0 00065         TXH     LIST
 TD   00051  3 00000 0 00074         TXH     TEMPB
 TD   00052  3 00000 0 00000  P      TXH     **
1                                  ERRCD=1                                                       PAGE 2

                       00053  ON     SYN     *
      00053  0760 00 0 00163         SWT     3
      00054  0020 00 0 00056         TRA     *+2
      00055  0020 00 0 00061         TRA     XR
      00056  0074 00 4 00000  RWA    TSX     **,4
      00057  0 00000 0 00065                 LIST
      00060  0 00000 0 00063                 BADADR
      00061 -0774 00 4 00000  XR     AXC     ,4
      00062  0020 00 4 00001         TRA     1,4
                              *
      00063  0535 00 4 00061  BADADR LAC     XR,4
      00064  0020 60 4 00003         TRA*    3,4
                              *
      00065  0 00000 0 00000  LIST   PZE                   TRACK ADR
      00066  2 00663 0 00000         PTW     **,,435
      00067  0 00000 0 00000         PZE
                              *
      00070  0 00000 0 00000  WT
      00071  0 00000 0 00000  LIST1  PZE
      00072  2 00663 0 00074         PTW     TEMPB,,435
      00073  0 00000 0 00000         PZE
      00074                   TEMPB  BSS     435
                              *
      00757  0636 00 4 00761  DWAIT  SCA     XRW,4         SAVE IR
      00760  0074 00 4 00003         TSX     .DWAIT,4      WAIT
      00761 -0774 00 4 00000  XRW    AXC     ,4
      00762  0020 00 4 00001         TRA     1,4
                              *
      00763  0535 00 4 00761  ERRPRG LAC     XRW,4         IF ERROR
      00764 -0340 00 0 00771         LAS     =1            (IGNORE PARITY)
      00765  0020 00 0 00767         TRA     *+2
      00766  0020 00 4 00001         TRA     1,4
      00767  0602 60 4 00002         SLW*    2,4
      00770  0020 60 4 00001         TRA*    1,4           SET ERCODE AND TRA
                                     END

        LITERALS
      00771  000000000001
1                                  ERRCD=1                                                       PAGE 1
                        POST PROCESSOR ASSEMBLY DATA

        772 IS THE FIRST LOCATION NOT USED BY THIS PROGRAM

0REFERENCES TO DEFINED SYMBOLS
         52      P    46
         53     ON    40,   53
         25     RW    22
         70     WT    21,   24,   34
         61     XR    26,   55,   63
         56    RWA    25,   35
         16    XRI    11
        761    XRW   757,  763
         65   LIST    30,   33,   45,   50,   57
          6  CDUMP    47
         11  DINIT     0
         20  DREAD     0
        757  DWAIT     0
         23  DWRIT     0
         71  LIST1    31,   42
         74  TEMPB    51,   72
         63 BADADR    43,   60
          5 ENABLE    13
        763 ERRPRG    15
          0 .DINIT    12
          1 .DREAD    20,   41
          3 .DWAIT    44,  760
          2 .DWRIT    23
          4 .SETER    14

0 NO ERROR IN ABOVE ASSEMBLY.


  CDMP   BCD 12/14/70 1511.0    1252         00000
1     MAD PROGRAM LISTING ... ... ...                 FILE    CDMP   MAD            05/27/67    1400.8
-
                   EXTERNAL FUNCTION (T,OLD,NEW)                                                  *001 LM00001
                  ENTRY TO CDUMP.                                                                 *002 LM00002
                  MPRINT.(1,7777777777K,TRKCV.(T))                                                *003 LM00003
                  THROUGH CL, FOR I=0,1,I.E.435                                                   *004 LM00004
                  OLDW=OLD(1K5-I)                                                                 *005 LM00005
                  NEWW=NEW(1K5-I)                                                                 *006 LM00006
                  WHENEVER OLDW.NE.NEWW,MPRINT.(1,DEFBC.(I+1),SP,                                 *007 LM00007
                1  OCLBC.(OLDW),OCRBC.(OLDW),SP,                                                  *007 LM00008
                2  OCLBC.(NEWW),OCRBC.(NEWW))                                                     *007 LM00009
      CL          CONTINUE                                                                        *008 LM00010
                  FUNCTION RETURN                                                                 *009 LM00011
                  VECTOR VALUES SP=607777777777K                                                  *010 LM00012
                  NORMAL MODE IS INTEGER                                                          *011 LM00013
                  END OF FUNCTION                                                                 *012 LM00014
1MAD PROGRAM,TYPE NOV 1963      (ALL NUMBERS ARE OCTAL)
0TOTAL LOCATIONS   00144 TRANSFER VECTOR LENGTH  00006 PROGRAM BEGINS    00021
0 PROGRAM IS AN EXTERNAL FUNCTION.   THE FOLLOWING ARE ENTRIES
      CDUMP  00022   0
0VARIABLE STORAGE (A=ARRAY,C=COMMON,E=ERASABLE,DIGIT=MODE)
      CL     00006   4        I      00007   1        NEWW   00010   1        OLDW   00011   1        SP     00012 A 1
0FUNCTION DICTIONARY
      DEFBC  00000   1        EXIT   00001   1        MPRINT 00002   1        OCLBC  00003   1        OCRBC  00004   1
      TRKCV  00005   1
0ABSOLUTE CONSTANTS
 00016 +000000100000     00015 +000000000663     00013 +000000000000     00017 +007777777777     00014 +000000000001
 00020 +233000000000
0PROGRAM
                  EXTERNAL FUNCTION (T,OLD,NEW)                                     001  LM00001
                 ENTRY TO CDUMP.                                                    002  LM00002
 00021 TRA +0 02000 0 00024    00022 SXA +0 63400 2 00117    00023 TSX +0 07400 2 00117
                 MPRINT.(1,7777777777K,TRKCV.(T))                                   003  LM00003
 00024 TSX +0 07400 4 00005    00025 TXH +3 00000 0 00024    00026 STO +0 60100 0 00135    00027 TSX +0 07400 4 00002
 00030 TXH +3 00000 0 00014    00031 TXH +3 00000 0 00017    00032 TXH +3 00000 0 00135
                 T'H CL, FOR I=0,1,I.E.435                                          004  LM00004
 00033 CLA +0 50000 0 00013    00034 STO +0 60100 0 00007    00035 TRA +0 02000 0 00041    00036 CLA +0 50000 0 00007
 00037 ADD +0 40000 0 00014    00040 STO +0 60100 0 00007    00041 CLA +0 50000 0 00007    00042 SUB +0 40200 0 00015
 00043 TZE +0 10000 0 00115
                 OLDW=OLD(1K5-I)                                                    005  LM00005
 00044 CLA +0 50000 0 00016    00045 SUB +0 40200 0 00007    00046 PAX +0 73400 2 00000    00047 CLA +0 50000 2 00024
 00050 STO +0 60100 0 00011
                 NEWW=NEW(1K5-I)                                                    006  LM00006
 00051 CLA +0 50000 0 00016    00052 SUB +0 40200 0 00007    00053 PAX +0 73400 2 00000    00054 CLA +0 50000 2 00024
 00055 STO +0 60100 0 00010
                 W'R OLDW.NE.NEWW,MPRINT.(1,DEFBC.(I+1),SP,                         007  LM00007
                1 OCLBC.(OLDW),OCRBC.(OLDW),SP,                                     007  LM00008
                2 OCLBC.(NEWW),OCRBC.(NEWW))                                        007  LM00009
 00056 CLA +0 50000 0 00011    00057 SUB +0 40200 0 00010    00060 TZE +0 10000 0 00114    00061 TSX +0 07400 4 00004
 00062 TXH +3 00000 0 00010    00063 STO +0 60100 0 00135    00064 TSX +0 07400 4 00003    00065 TXH +3 00000 0 00010
 00066 STO +0 60100 0 00136    00067 TSX +0 07400 4 00004    00070 TXH +3 00000 0 00011    00071 STO +0 60100 0 00137
 00072 TSX +0 07400 4 00003    00073 TXH +3 00000 0 00011    00074 STO +0 60100 0 00140    00075 CLA +0 50000 0 00007
 00076 ADD +0 40000 0 00014    00077 STO +0 60100 0 00141    00100 TSX +0 07400 4 00000    00101 TXH +3 00000 0 00141
 00102 STO +0 60100 0 00141    00103 TSX +0 07400 4 00002    00104 TXH +3 00000 0 00014    00105 TXH +3 00000 0 00141
 00106 TXH +3 00000 0 00012    00107 TXH +3 00000 0 00140    00110 TXH +3 00000 0 00137    00111 TXH +3 00000 0 00012
 00112 TXH +3 00000 0 00136    00113 TXH +3 00000 0 00135
      CL         CONTINUE                                                           008  LM00010
 00114 TRA +0 02000 0 00036
                 FUNCTION RETURN                                                    009  LM00011
 00115 TRA +0 02000 0 00131
                 V'S SP=607777777777K                                               010  LM00012
 00012     -2 07777 7 77777
                 NORMAL MODE IS INTEGER                                             011  LM00013
                 END OF FUNCTION                                                    012  LM00014
 00116 TSX +0 07400 4 00001    00117 TXH +3 00000 0 00000    00120 SXD -0 63400 1 00117    00121 SXA +0 63400 4 00131
 00122 CLA +0 50000 4 00001    00123 STO +0 60100 0 00025    00124 CLA +0 50000 4 00002    00125 STA +0 62100 0 00047
 00126 CLA +0 50000 4 00003    00127 STA +0 62100 0 00054    00130 TRA +0 02000 2 00001    00131 AXT +0 77400 4 00000
 00132 LXA +0 53400 2 00117    00133 LXD -0 53400 1 00117    00134 TRA +0 02000 4 00001


  MPRT   BCD 12/14/70 1511.0    1400         00000
1            EXECUTE MPRINT.(MODE,A(1)...A(10),A(10)...A(1),X,B)                                 PAGE 1

                       00004         ENTRY   MPRINT
                                     EXTERN  EPRINT,WTDOUT
                              *      MODE=1 OFFLINE
                              *      MODE=2 ONLINE
                              *      MODE=3 ONLINE AND OFFLINE
                              *      57K ARE IGNORED
                              *      ALWAYS PRINTS ONLINE IF SW5 IS DOWN
                              *

        TRANSFER VECTOR
      00000  254751314563     EPRINT
      00001  666324466463     WTDOUT

            LINKAGE DIRECTOR
      00002  000000000000
      00003  444751314563

      00004  0636 00 4 00111  MPRINT SCA     XR,4          SAVE IR'S
      00005  0760 00 0 00016         LMTM
      00006  0634 00 1 00112         SXA     XR+1,1
      00007  0634 00 2 00113         SXA     XR+2,2
      00010  0634 00 3 00114         SXA     XR+3,3
      00011  0774 00 1 00000         AXT     0,1
      00012  0774 00 2 00024         AXT     20,2
      00013 -0500 00 0 00174         CAL     =O7
      00014  0602 00 0 00146         SLW     AC
      00015 -0500 60 4 00001         CAL*    1,4
      00016  0621 00 0 00145         STA     MODE
      00017  0140 00 0 00017  LOOP   TOV     *
      00020  2 10000 1 00057         TIX     P1,1,1*4096
      00021  0520 00 0 00147         ZET     UP
      00022  1 77777 3 00024         TXI     *+2,3,-1
      00023  1 00001 3 00024         TXI     *+1,3,1
      00024  2 00001 1 00055         TIX     P2,1,1
      00025  1 77777 4 00026         TXI     *+1,4,-1
      00026 -0500 00 4 00001         CAL     1,4
      00027 -0320 00 0 00202         ANA     =O700000000000
      00030  0322 00 0 00200         ERA     =O200000000000
      00031  0100 00 0 00041         TZE     TWO
      00032  0322 00 0 00177         ERA     =O100000000000
      00033  0100 00 0 00035         TZE     THR
      00034  0020 00 0 00074         TRA     OUT
      00035 -0500 00 4 00001  THR    CAL     1,4
      00036  0737 00 3 00000         PAC     ,3
      00037  0774 00 1 00001         AXT     1,1
      00040  0020 00 0 00055         TRA     P2
      00041  0560 00 4 00001  TWO    LDQ     1,4
      00042 -0773 00 0 00022         RQL     18
      00043 -0600 00 0 00144         STQ     TEMP
      00044 -0500 00 4 00001         CAL     1,4
      00045  0737 00 3 00000         PAC     ,3
      00046 -0320 00 0 00176         ANA     =O077777077777
      00047  0402 00 0 00144         SUB     TEMP
      00050 -0734 00 1 00000         PDX     ,1
      00051  1 00001 1 00052         TXI     *+1,1,1
      00052  0600 00 0 00147         STZ     UP
1            EXECUTE MPRINT.(MODE,A(1)...A(10),A(10)...A(1),X,B)                                 PAGE 2

      00053 -0120 00 0 00055         TMI     *+2
      00054 -0625 00 0 00147         STL     UP
      00055  0560 00 3 00000  P2     LDQ     0,3
      00056  1 50000 1 00057         TXI     *+1,1,5*4096
      00057 -0500 00 0 00146  P1     CAL     AC
      00060 -0763 00 0 00006         LGL     6
      00061  0044 00 0 00000         PAI
      00062  0322 00 0 00175         ERA     =O77
      00063 -0320 00 0 00175         ANA     =O77
      00064  0100 00 0 00017         TZE     LOOP
      00065  0604 00 0 00146         STI     AC
      00066 -0140 00 0 00017         TNO     LOOP
      00067  0604 00 2 00174         STI     BUF+20,2
      00070 -0500 00 0 00174         CAL     =O7
      00071  0602 00 0 00146         SLW     AC
      00072  2 00001 2 00017         TIX     LOOP,2,1
      00073  0020 00 0 00101         TRA     WT
      00074  0560 00 0 00201  OUT    LDQ     =H
      00075 -0500 00 0 00146         CAL     AC
      00076 -0763 00 0 00006         LGL     6
      00077 -0140 00 0 00076         TNO     *-1
      00100  0602 00 2 00174         SLW     BUF+20,2
      00101  1 77777 2 00102  WT     TXI     *+1,2,-1
      00102  0754 00 2 00000         PXA     ,2
      00103  0737 00 2 00000         PAC     ,2
      00104  1 00024 2 00105         TXI     *+1,2,20
      00105 -0634 00 2 00116         SXD     IOCD,2
      00106  0074 00 4 00117         TSX     OUTPUT,4
      00107  0 00000 0 00145                 MODE
      00110  0 00000 0 00116                 IOCD
      00111 -0774 00 4 00000  XR     AXC     ,4
      00112  0774 00 1 00000         AXT     ,1
      00113  0774 00 2 00000         AXT     ,2
      00114  0774 00 3 00000         AXT     ,3
      00115  0020 00 4 00001         TRA     1,4
      00116  0 00000 0 00150  IOCD   IOCD    BUF,,**
                              *
      00117  0636 00 4 00142  OUTPUT SCA     XRO,4
      00120  0441 60 4 00001         LDI*    1,4
      00121 -0500 60 4 00002         CAL*    2,4
      00122  0602 00 0 00141         SLW     PAR
      00123  0602 00 0 00135         SLW     PAR1
      00124  0054 00  000003         RFT     3
      00125  0020 00 0 00127         TRA     *+2
      00126  0055 00  000001         SIR     1
      00127  0760 00 0 00165         SWT     5
      00130  0020 00 0 00132         TRA     *+2
      00131  0055 00  000002         SIR     2
      00132  0056 00  000001         RNT     1
      00133  0020 00 0 00136         TRA     P3
      00134  0074 00 4 00001         TSX     WTDOUT,4
      00135  0 00000 0 00000  PAR1
      00136  0056 00  000002  P3     RNT     2
      00137  0020 00 0 00142         TRA     XRO
      00140  0074 00 4 00000         TSX     EPRINT,4
      00141  0 00000 0 00000  PAR
1            EXECUTE MPRINT.(MODE,A(1)...A(10),A(10)...A(1),X,B)                                 PAGE 3

      00142 -0774 00 4 00000  XRO    AXC     ,4
      00143  0020 00 4 00003         TRA     3,4
      00144  0 00000 0 00000  TEMP
      00145  0 00000 0 00000  MODE
      00146  0 00000 0 00000  AC
      00147  0 00000 0 00000  UP
      00150                   BUF    BSS     20
                                     END

        LITERALS
      00174  000000000007
      00175  000000000077
      00176  077777077777
      00177  100000000000
      00200  200000000000
      00201  606060606060
      00202  700000000000
1            EXECUTE MPRINT.(MODE,A(1)...A(10),A(10)...A(1),X,B)                                 PAGE 1
                        POST PROCESSOR ASSEMBLY DATA

        203 IS THE FIRST LOCATION NOT USED BY THIS PROGRAM

0REFERENCES TO DEFINED SYMBOLS
        146     AC    14,   57,   65,   71,   75
         57     P1    20
         55     P2    24,   40
        136     P3   133
        147     UP    21,   52,   54
        101     WT    73
        111     XR     4,    6,    7,   10
        150    BUF    67,  100,  116
         74    OUT    34
        141    PAR   122
         35    THR    33
         41    TWO    31
        142    XRO   117,  137
        116   IOCD   105,  110
         17   LOOP    64,   66,   72
        145   MODE    16,  107
        135   PAR1   123
        144   TEMP    43,   47
          0 EPRINT   140
          4 MPRINT     0
        117 OUTPUT   106
          1 WTDOUT   134

0 NO ERROR IN ABOVE ASSEMBLY.


  SETP   BCD 12/14/70 1511.0     231         00000
1                                                                                                PAGE 1

                       00002         ENTRY   .SETUP

            LINKAGE DIRECTOR
      00000  000000000000
      00001  336225636447

      00002  0636 00 4 00007  .SETUP SCA     XR,4
      00003 -0500 00 0 00011         CAL     TRA
      00004  0602 00 0 00000         SLW     0
      00005  0000 00 0 00006         HTR     *+1
      00006  0760 00 0 00016  RS     LMTM
      00007 -0774 00 4 00000  XR     AXC     ,4
      00010  0020 00 4 00001         TRA     1,4
                              *
      00011  0020 00 0 00006  TRA    TRA     RS
                                     END
1                                                                                                PAGE 1
                        POST PROCESSOR ASSEMBLY DATA

         12 IS THE FIRST LOCATION NOT USED BY THIS PROGRAM

0REFERENCES TO DEFINED SYMBOLS
          6     RS    11
          7     XR     2
         11    TRA     3
          2 .SETUP     0

0 NO ERROR IN ABOVE ASSEMBLY.


  .RST   BCD 12/14/70 1511.0     228         00000
1            FOR SINGLE SAVE RESTOR RETURN (MAD)                                                 PAGE 1

                       00002         ENTRY   .RSTRN
                       00005         ENTRY   .SAVRN

            LINKAGE DIRECTOR
      00000  000000000000
      00001  335162635145

      00002 -0500 00 0 00010  .RSTRN CAL     TEMP
      00003  0602 60 4 00001         SLW*    1,4
      00004  0020 00 4 00003         TRA     3,4
                              *
      00005 -0500 60 4 00001  .SAVRN CAL*    1,4
      00006  0602 00 0 00010         SLW     TEMP
      00007  0020 00 4 00003         TRA     3,4
      00010  0 00000 0 00000  TEMP
                                     END
1            FOR SINGLE SAVE RESTOR RETURN (MAD)                                                 PAGE 1
                        POST PROCESSOR ASSEMBLY DATA

         11 IS THE FIRST LOCATION NOT USED BY THIS PROGRAM

0REFERENCES TO DEFINED SYMBOLS
         10   TEMP     2,    6
          2 .RSTRN     0
          5 .SAVRN     0

0 NO ERROR IN ABOVE ASSEMBLY.


  LIBE   BCD 12/14/70 1511.0      46         00000
LINK TSLIB1 BSS M1416 CMFL02__
EXTBSS TSLIB1 BCDEC_____
EXTBSS TSLIB1 BZEL
EXTBSS TSLIB1 DEFBC_____
EXTBSS TSLIB1 OCABC_____
UNLINK TSLIB1 BSS_
COMBIN * LIBE BSS BCDEC BZEL DEFBC OCABC__
DELETE BCDEC BSS BZEL BSS DEFBC BSS OCABC BSS___


LOAD4A   BCD 12/14/70 1520.0   21487         00000


 LOAD4   BCD 12/14/70 1510.4    5987         00000
1     MAD PROGRAM LISTING ... ... ...                 FILE    LOAD   MAD            11/05/70    1933.1
-
                  DINIT.                                                                          *001 LM00001
                  TINIT.                                                                          *002 LM00002
                  WHENEVER SW.(1)                                                                 *003 LM00003
                       SING=1B                                                                    *004 LM00004
      AG               MPRINT.(2,$ ENTER TRACK ADDRESS IN KEYS$)                                  *005 LM00005
                       STOP.                                                                      *006 LM00006
                       IB=CVTRK.(KEYS.(0))                                                        *007 LM00007
                       WHENEVER CKTRK.(IB), TRANSFER TO AG                                        *008 LM00008
                       IB=TRKCV.(IB)                                                              *009 LM00009
                       MPRINT.(3,$ COPYING TRACK $,IB)                                            *010 LM00010
                       TRANSFER TO DO                                                             *011 LM00011
                  OTHERWISE                                                                       *012 LM00012
                       SING=0B                                                                    *013 LM00013
                  END OF CONDITIONAL                                                              *014 LM00014
                  THROUGH ML, FOR M=LDMM,1,M.G.HDMM                                               *015 LM00015
                  THROUGH DL, FOR T=0,1,T.GE.NDMT                                                 *016 LM00016
                  IB=DEFBC.((M*10000+T)*10)                                                       *017 LM00017
      DO          TREAD.(IB,BUF)                                                                  *018 LM00018
                  TWAIT.(TER,ERCD)                                                                *019 LM00019
                  DWRIT.(CVTRK.(IB),BUF,DER)                                                      *020 LM00020
                  DWAIT.(DER,ERCD)                                                                *021 LM00021
      LE          WHENEVER SING, TRANSFER TO AG                                                   *022 LM00022
      DL          CONTINUE                                                                        *023 LM00023
      ML          CONTINUE                                                                        *024 LM00024
                  EXIT.                                                                           *025 LM00025
      DER         MPRINT.(2,$ERROR WRITING DRUM TRACK $,IB)                                       *026 LM00026
                  TRANSFER TO LE                                                                  *027 LM00027
      TER         MPRINT.(2,$ERROR READING TAPE TRACK $,IB)                                       *028 LM00028
                  TRANSFER TO LE                                                                  *029 LM00029
                  NORMAL MODE IS INTEGER                                                          *030 LM00030
                  BOOLEAN SW,SING,CKTRK                                                           *031 LM00031
                  DIMENSION B(500)                                                                *032 LM00032
                  EQUIVALENCE (BUF,B(500))                                                        *033 LM00033
                  INSERT FILE SALEQU                                                              *034 LM00034
                   SALEQU                                                                         *034 LM00001
                  VECTOR VALUES MFDORG=101212121212K                                              *035 LM00002
                  VECTOR VALUES LOADER=001212121212K                                              *036 LM00003
                  VECTOR VALUES ENTLEN=7                                                          *037 LM00004
                  VECTOR VALUES ENTRYL=20                                                         *038 LM00005
                  VECTOR VALUES NWPT=432                                                          *039 LM00006
                  VECTOR VALUES LDKM=0                                                            *040 LM00007
                  VECTOR VALUES HDKM=7                                                            *041 LM00008
                  VECTOR VALUES LDMM=8                                                            *042 LM00009
                  VECTOR VALUES HDMM=8                                                            *043 LM00010
                  VECTOR VALUES NDKT=10000                                                        *044 LM00011
                  VECTOR VALUES NDMT=400                                                          *045 LM00012
                  VECTOR VALUES NQW=3                                                             *046 LM00013
                  VECTOR VALUES PROBN=1                                                           *047 LM00014
                  VECTOR VALUES PROGN=2                                                           *048 LM00015
                  VECTOR VALUES ALPHA=3                                                           *049 LM00016
                  VECTOR VALUES BETA=4                                                            *050 LM00017
                  VECTOR VALUES DAYTIM=5                                                          *051 LM00018
                  VECTOR VALUES TIME=6                                                            *052 LM00019
                  VECTOR VALUES DATELU=7                                                          *053 LM00020
                  VECTOR VALUES AUTHOR=8                                                          *054 LM00021
                  VECTOR VALUES MODE=9                                                            *055 LM00022
                  VECTOR VALUES ILOCK=10                                                          *056 LM00023
                  VECTOR VALUES F=11                                                              *057 LM00024
                  VECTOR VALUES RCOUNT=12                                                         *058 LM00025
                  VECTOR VALUES S=13                                                              *059 LM00026
                  VECTOR VALUES W=14                                                              *060 LM00027
                  VECTOR VALUES R=15                                                              *061 LM00028
                  VECTOR VALUES NORECS=16                                                         *062 LM00029
                  VECTOR VALUES P=17                                                              *063 LM00030
                  VECTOR VALUES LCOUNT=18                                                         *064 LM00031
                  VECTOR VALUES LSTRK=19                                                          *065 LM00032
                  VECTOR VALUES FSTRK=20                                                          *066 LM00033
                  VECTOR VALUES TEMPMD=1K                                                         *067 LM00034
                  VECTOR VALUES PARTER=1K                                                         *068 LM00035
                  VECTOR VALUES DISKER=2K                                                         *069 LM00036
                  VECTOR VALUES BADBP=4K                                                          *070 LM00037
                  VECTOR VALUES BADTR=1K1                                                         *071 LM00038
                  VECTOR VALUES BADFP=2K1                                                         *072 LM00039
                  VECTOR VALUES BADTN=4K1                                                         *073 LM00040
                  VECTOR VALUES UNPTRK=1K2                                                        *074 LM00041
                  VECTOR VALUES RUSTRK=2K2                                                        *075 LM00042
                  VECTOR VALUES DIRTRN=4K2                                                        *076 LM00043
                  VECTOR VALUES DTATRN=1K3                                                        *077 LM00044
                  VECTOR VALUES NZITEM=2K3                                                        *078 LM00045
                  VECTOR VALUES BADF=4K3                                                          *079 LM00046
                  VECTOR VALUES BADLTK=1K4                                                        *080 LM00047
                  VECTOR VALUES FATAL=2K4                                                         *081 LM00048
                  VECTOR VALUES FORCE=4K4                                                         *082 LM00049
                  VECTOR VALUES BADATE=1K5                                                        *083 LM00050
                  VECTOR VALUES BADLCT=2K5                                                        *084 LM00051
                  VECTOR VALUES BADRCT=4K5                                                        *085 LM00052
                  VECTOR VALUES BADTC=1K6                                                         *086 LM00053
                  VECTOR VALUES BADP=2K6                                                          *087 LM00054
                  VECTOR VALUES BKCOR=4K6                                                         *088 LM00055
                  VECTOR VALUES BKBAD=1K7                                                         *089 LM00056
                                                                                                       LM00057
                  END OF PROGRAM                                                                  *090 LM00035
1MAD PROGRAM,TYPE NOV 1963      (ALL NUMBERS ARE OCTAL)
0TOTAL LOCATIONS   01315 TRANSFER VECTOR LENGTH  00020 PROGRAM BEGINS    01134
0VARIABLE STORAGE (A=ARRAY,C=COMMON,E=ERASABLE,DIGIT=MODE)
      AG     01006   4        BETA   01030 A 1        ENTRYL 01041 A 1        LOADER 01056 A 1        PROGN  01073 A 1
      ALPHA  01013 A 1        BKBAD  01031 A 1        ERCD   01042   1        LSTRK  01057 A 1        P      01074 A 1
      AUTHOR 01014 A 1        BKCOR  01032 A 1        FATAL  01043 A 1        MFDORG 01060 A 1        RCOUNT 01075 A 1
      BADATE 01015 A 1        B      01005 A 1        FORCE  01044 A 1        ML     00020   4        R      01076 A 1
      BADBP  01016 A 1        BUF    00021   1        F      01045 A 1        MODE   01061 A 1        RUSTRK 01077 A 1
      BADFP  01017 A 1        DATELU 01033 A 1        FSTRK  01046 A 1        M      01062   1        SING   01100   2
      BADF   01020 A 1        DAYTIM 01034 A 1        HDKM   01047 A 1        NDKT   01063 A 1        S      01101 A 1
      BADLCT 01021 A 1        DER    01007   4        HDMM   01050 A 1        NDMT   01064 A 1        TEMPMD 01102 A 1
      BADLTK 01022 A 1        DIRTRN 01035 A 1        IB     01051   1        NORECS 01065 A 1        TER    01012   4
      BADP   01023 A 1        DISKER 01036 A 1        ILOCK  01052 A 1        NQW    01066 A 1        TIME   01103 A 1
      BADRCT 01024 A 1        DL     00020   4        LCOUNT 01053 A 1        NWPT   01067 A 1        T      01104   1
      BADTC  01025 A 1        DO     01010   4        LDKM   01054 A 1        NZITEM 01070 A 1        UNPTRK 01105 A 1
      BADTN  01026 A 1        DTATRN 01037 A 1        LDMM   01055 A 1        PARTER 01071 A 1        W      01106 A 1
      BADTR  01027 A 1        ENTLEN 01040 A 1        LE     01011   4        PROBN  01072 A 1
0FUNCTION DICTIONARY
      CKTRK  00000   2        CVTRK  00001   1        DEFBC  00002   1        DINIT  00003   1        DWAIT  00004   1
      DWRIT  00005   1        EXIT   00006   1        .SETUP 00007   1        KEYS   00010   1        MPRINT 00011   1
      STOP   00012   1        SW     00013   2        TINIT  00014   1        TREAD  00015   1        TRKCV  00016   1
      TWAIT  00017   1
0ABSOLUTE CONSTANTS
 01121 +276063214725     01124 -112521243145     01130 -206060606060     01120 +276024516444     01133 -265131633145
 01117 +255151465160     01113 +000000000012     01114 +000000023420     01116 +234260606060     01123 -052760635121
 01126 -202346477031     01112 +000000000003     01107 +000000000000     01122 -022570626060     01132 -226260314560
 01125 -202124245125     01131 -206351212342     01127 -202545632551     01111 +000000000002     01110 +000000000001
 01115 +233000000000
0STATEMENT DICTIONARY
 01006 TXL -301153001144       01007 TXL -301277001267       01010 TXL -301244001241       01011 TXL -301264001261
 01012 TXL -301310001300
0PROGRAM
                 DINIT.                                                             001  LM00001
 01134 TSX +0 07400 4 00007    01135 TSX +0 07400 4 00003
                 TINIT.                                                             002  LM00002
 01136 TSX +0 07400 4 00014
                 W'R SW.(1)                                                         003  LM00003
 01137 TSX +0 07400 4 00013    01140 TXH +3 00000 0 01110    01141 TZE +0 10000 0 01201
                      SING=1B                                                       004  LM00004
 01142 CLA +0 50000 0 01110    01143 STO +0 60100 0 01100
      AG              MPRINT.(2,$ ENTER TRACK ADDRESS IN KEYS$)                     005  LM00005
 01144 TSX +0 07400 4 00011    01145 TXH +3 00000 0 01111    01146 TXH +3 00000 0 01127    01147 TXH +3 00000 0 01131
 01150 TXH +3 00000 0 01125    01151 TXH +3 00000 0 01132    01152 TXH +3 00000 0 01122
                      STOP.                                                         006  LM00006
 01153 TSX +0 07400 4 00012
                      IB=CVTRK.(KEYS.(0))                                           007  LM00007
 01154 TSX +0 07400 4 00010    01155 TXH +3 00000 0 01107    01156 STO +0 60100 0 01312    01157 TSX +0 07400 4 00001
 01160 TXH +3 00000 0 01312    01161 STO +0 60100 0 01051
                      W'R CKTRK.(IB), T'O AG                                        008  LM00008
 01162 TSX +0 07400 4 00000    01163 TXH +3 00000 0 01051    01164 TZE +0 10000 0 01166    01165 TRA +0 02000 0 01006
                      IB=TRKCV.(IB)                                                 009  LM00009
 01166 TSX +0 07400 4 00016    01167 TXH +3 00000 0 01051    01170 STO +0 60100 0 01051
                      MPRINT.(3,$ COPYING TRACK $,IB)                               010  LM00010
 01171 TSX +0 07400 4 00011    01172 TXH +3 00000 0 01112    01173 TXH +3 00000 0 01126    01174 TXH +3 00000 0 01123
 01175 TXH +3 00000 0 01116    01176 TXH +3 00000 0 01051
                      T'O DO                                                        011  LM00011
 01177 TRA +0 02000 0 01010
                 O'E                                                                012  LM00012
 01200 TRA +0 02000 0 01203
                      SING=0B                                                       013  LM00013
 01201 CLA +0 50000 0 01107    01202 STO +0 60100 0 01100
                 E'L                                                                014  LM00014
                 T'H ML, FOR M=LDMM,1,M.G.HDMM                                      015  LM00015
 01203 CLA +0 50000 0 01055    01204 STO +0 60100 0 01062    01205 TRA +0 02000 0 01211    01206 CLA +0 50000 0 01062
 01207 ADD +0 40000 0 01110    01210 STO +0 60100 0 01062    01211 CLA +0 50000 0 01062    01212 SUB +0 40200 0 01050
 01213 TZE +0 10000 0 01215    01214 TPL +0 12000 0 01266
                 T'H DL, FOR T=0,1,T.GE.NDMT                                        016  LM00016
 01215 CLA +0 50000 0 01107    01216 STO +0 60100 0 01104    01217 TRA +0 02000 0 01223    01220 CLA +0 50000 0 01104
 01221 ADD +0 40000 0 01110    01222 STO +0 60100 0 01104    01223 CLA +0 50000 0 01104    01224 SUB +0 40200 0 01064
 01225 TZE +0 10000 0 01265    01226 TPL +0 12000 0 01265
                 IB=DEFBC.((M*10000+T)*10)                                          017  LM00017
 01227 LDQ +0 56000 0 01062    01230 MPY +0 20000 0 01114    01231 XCA +0 13100 0 00000    01232 ADD +0 40000 0 01104
 01233 XCA +0 13100 0 00000    01234 MPY +0 20000 0 01113    01235 STQ -0 60000 0 01312    01236 TSX +0 07400 4 00002
 01237 TXH +3 00000 0 01312    01240 STO +0 60100 0 01051
      DO         TREAD.(IB,BUF)                                                     018  LM00018
 01241 TSX +0 07400 4 00015    01242 TXH +3 00000 0 01051    01243 TXH +3 00000 0 00021
                 TWAIT.(TER,ERCD)                                                   019  LM00019
 01244 TSX +0 07400 4 00017    01245 TXH +3 00000 0 01012    01246 TXH +3 00000 0 01042
                 DWRIT.(CVTRK.(IB),BUF,DER)                                         020  LM00020
 01247 TSX +0 07400 4 00001    01250 TXH +3 00000 0 01051    01251 STO +0 60100 0 01312    01252 TSX +0 07400 4 00005
 01253 TXH +3 00000 0 01312    01254 TXH +3 00000 0 00021    01255 TXH +3 00000 0 01007
                 DWAIT.(DER,ERCD)                                                   021  LM00021
 01256 TSX +0 07400 4 00004    01257 TXH +3 00000 0 01007    01260 TXH +3 00000 0 01042
      LE         W'R SING, T'O AG                                                   022  LM00022
 01261 NZT -0 52000 0 01100    01262 TRA +0 02000 0 01264    01263 TRA +0 02000 0 01006
      DL         CONTINUE                                                           023  LM00023
 01264 TRA +0 02000 0 01220
      ML         CONTINUE                                                           024  LM00024
 01265 TRA +0 02000 0 01206
                 EXIT.                                                              025  LM00025
 01266 TSX +0 07400 4 00006
      DER        MPRINT.(2,$ERROR WRITING DRUM TRACK $,IB)                          026  LM00026
 01267 TSX +0 07400 4 00011    01270 TXH +3 00000 0 01111    01271 TXH +3 00000 0 01117    01272 TXH +3 00000 0 01133
 01273 TXH +3 00000 0 01120    01274 TXH +3 00000 0 01131    01275 TXH +3 00000 0 01130    01276 TXH +3 00000 0 01051
                 T'O LE                                                             027  LM00027
 01277 TRA +0 02000 0 01011
      TER        MPRINT.(2,$ERROR READING TAPE TRACK $,IB)                          028  LM00028
 01300 TSX +0 07400 4 00011    01301 TXH +3 00000 0 01111    01302 TXH +3 00000 0 01117    01303 TXH +3 00000 0 01124
 01304 TXH +3 00000 0 01121    01305 TXH +3 00000 0 01131    01306 TXH +3 00000 0 01130    01307 TXH +3 00000 0 01051
                 T'O LE                                                             029  LM00029
 01310 TRA +0 02000 0 01011
                 NORMAL MODE IS INTEGER                                             030  LM00030
                 BOOLEAN SW,SING,CKTRK                                              031  LM00031
                 DIMENSION B(500)                                                   032  LM00032
                 EQUIVALENCE (BUF,B(500))                                           033  LM00033
                 INSERT FILE SALEQU                                                 034  LM00034
                 V'S MFDORG=101212121212K                                           035  LM00002
 01060     +1 01212 1 21212
                 V'S LOADER=001212121212K                                           036  LM00003
 01056     +0 01212 1 21212
                 V'S ENTLEN=7                                                       037  LM00004
 01040     +0 00000 0 00007
                 V'S ENTRYL=20                                                      038  LM00005
 01041     +0 00000 0 00024
                 V'S NWPT=432                                                       039  LM00006
 01067     +0 00000 0 00660
                 V'S LDKM=0                                                         040  LM00007
 01054     +0 00000 0 00000
                 V'S HDKM=7                                                         041  LM00008
 01047     +0 00000 0 00007
                 V'S LDMM=8                                                         042  LM00009
 01055     +0 00000 0 00010
                 V'S HDMM=8                                                         043  LM00010
 01050     +0 00000 0 00010
                 V'S NDKT=10000                                                     044  LM00011
 01063     +0 00000 0 23420
                 V'S NDMT=400                                                       045  LM00012
 01064     +0 00000 0 00620
                 V'S NQW=3                                                          046  LM00013
 01066     +0 00000 0 00003
                 V'S PROBN=1                                                        047  LM00014
 01072     +0 00000 0 00001
                 V'S PROGN=2                                                        048  LM00015
 01073     +0 00000 0 00002
                 V'S ALPHA=3                                                        049  LM00016
 01013     +0 00000 0 00003
                 V'S BETA=4                                                         050  LM00017
 01030     +0 00000 0 00004
                 V'S DAYTIM=5                                                       051  LM00018
 01034     +0 00000 0 00005
                 V'S TIME=6                                                         052  LM00019
 01103     +0 00000 0 00006
                 V'S DATELU=7                                                       053  LM00020
 01033     +0 00000 0 00007
                 V'S AUTHOR=8                                                       054  LM00021
 01014     +0 00000 0 00010
                 V'S MODE=9                                                         055  LM00022
 01061     +0 00000 0 00011
                 V'S ILOCK=10                                                       056  LM00023
 01052     +0 00000 0 00012
                 V'S F=11                                                           057  LM00024
 01045     +0 00000 0 00013
                 V'S RCOUNT=12                                                      058  LM00025
 01075     +0 00000 0 00014
                 V'S S=13                                                           059  LM00026
 01101     +0 00000 0 00015
                 V'S W=14                                                           060  LM00027
 01106     +0 00000 0 00016
                 V'S R=15                                                           061  LM00028
 01076     +0 00000 0 00017
                 V'S NORECS=16                                                      062  LM00029
 01065     +0 00000 0 00020
                 V'S P=17                                                           063  LM00030
 01074     +0 00000 0 00021
                 V'S LCOUNT=18                                                      064  LM00031
 01053     +0 00000 0 00022
                 V'S LSTRK=19                                                       065  LM00032
 01057     +0 00000 0 00023
                 V'S FSTRK=20                                                       066  LM00033
 01046     +0 00000 0 00024
                 V'S TEMPMD=1K                                                      067  LM00034
 01102     +0 00000 0 00001
                 V'S PARTER=1K                                                      068  LM00035
 01071     +0 00000 0 00001
                 V'S DISKER=2K                                                      069  LM00036
 01036     +0 00000 0 00002
                 V'S BADBP=4K                                                       070  LM00037
 01016     +0 00000 0 00004
                 V'S BADTR=1K1                                                      071  LM00038
 01027     +0 00000 0 00010
                 V'S BADFP=2K1                                                      072  LM00039
 01017     +0 00000 0 00020
                 V'S BADTN=4K1                                                      073  LM00040
 01026     +0 00000 0 00040
                 V'S UNPTRK=1K2                                                     074  LM00041
 01105     +0 00000 0 00100
                 V'S RUSTRK=2K2                                                     075  LM00042
 01077     +0 00000 0 00200
                 V'S DIRTRN=4K2                                                     076  LM00043
 01035     +0 00000 0 00400
                 V'S DTATRN=1K3                                                     077  LM00044
 01037     +0 00000 0 01000
                 V'S NZITEM=2K3                                                     078  LM00045
 01070     +0 00000 0 02000
                 V'S BADF=4K3                                                       079  LM00046
 01020     +0 00000 0 04000
                 V'S BADLTK=1K4                                                     080  LM00047
 01022     +0 00000 0 10000
                 V'S FATAL=2K4                                                      081  LM00048
 01043     +0 00000 0 20000
                 V'S FORCE=4K4                                                      082  LM00049
 01044     +0 00000 0 40000
                 V'S BADATE=1K5                                                     083  LM00050
 01015     +0 00000 1 00000
                 V'S BADLCT=2K5                                                     084  LM00051
 01021     +0 00000 2 00000
                 V'S BADRCT=4K5                                                     085  LM00052
 01024     +0 00000 4 00000
                 V'S BADTC=1K6                                                      086  LM00053
 01025     +0 00001 0 00000
                 V'S BADP=2K6                                                       087  LM00054
 01023     +0 00002 0 00000
                 V'S BKCOR=4K6                                                      088  LM00055
 01032     +0 00004 0 00000
                 V'S BKBAD=1K7                                                      089  LM00056
 01031     +0 00010 0 00000
                 END OF PROGRAM                                                     090  LM00035
 01311 TSX +0 07400 4 00006


 CVDT4   BCD 12/14/70 1510.4    7903         00000
1     MAD PROGRAM LISTING ... ... ...                 FILE    CVDT   MAD            11/05/70    1934.5
-
                  EXTERNAL FUNCTION (A)                                                           *001 LM00001
                  ENTRY TO CVDATE.                                                                *002 LM00002
                   I/O FORMAT=CVDATE.(MMDDYY)                                                          LM00003
                  X=A                                                                             *003 LM00004
                  Y=BCDEC.(X.A.7777K).LS.9 .V.BCDEC.(X.RS.12 .A.7777K).V.                         *004 LM00005
                1   BCDEC.(X.RS.24 .A.7777K).LS.5                                                 *004 LM00006
                  FUNCTION RETURN Y                                                               *005 LM00007
                                                                                                       LM00008
                  ENTRY TO DATECV.                                                                *006 LM00009
                   MMDDYY=DATECV.(I/O FORMAT)                                                          LM00010
                  X=A                                                                             *007 LM00011
                  Y=(DERBC.(X.RS.9 .A.777K).A.7777K) .V.                                          *008 LM00012
                1   (DERBC.(X.A.37K).A.7777K).LS.12 .V.                                           *008 LM00013
                2   (DERBC.(X.RS.5 .A.17K).A.7777K).LS.24                                         *008 LM00014
                  FUNCTION RETURN Y                                                               *009 LM00015
                                                                                                       LM00016
                  ENTRY TO CKDATE.                                                                *010 LM00017
                   BAD=CKDATE.(DATE)                                                                   LM00018
                  X=A                                                                             *011 LM00019
                  Y=X.RS.9                                                                        *012 LM00020
                  M=X.RS.5 .A.17K                                                                 *013 LM00021
                  D=X.A.37K                                                                       *014 LM00022
                  FUNCTION RETURN Y.G.99 .OR. Y.L.60 .OR. M.G.12 .OR. M.L.1 .OR.                  *015 LM00023
                1     D.G.31 .OR. D.L.1                                                           *015 LM00024
                                                                                                       LM00025
                  ENTRY TO TRKCV.                                                                 *016 LM00026
                   ZEROS=TRKCV.(TWELVES)                                                               LM00027
                  X=A                                                                             *017 LM00028
                  Y1=(X+$666666$).A.$++++++$                                                      *018 LM00029
                  FUNCTION RETURN X .A. .N.(Y1.RS.1) .A. .N.(Y1.RS.3)                             *019 LM00030
                                                                                                       LM00031
                  ENTRY TO CVTRK.                                                                 *020 LM00032
                   TWELVES=CVTRK.(ZEROS)                                                               LM00033
                  X=A                                                                             *021 LM00034
                  Y1=(X+373737373737K) .A. $++++++$                                               *022 LM00035
                  FUNCTION RETURN X .V. Y1.RS.1 .V. Y1.RS.3                                       *023 LM00036
                                                                                                       LM00037
                  ENTRY TO CKTRK.                                                                 *024 LM00038
                   BAD=CKTRK.(TRACK)                                                                   LM00039
                  X=A                                                                             *025 LM00040
                  WHENEVER FIRST                                                                  *026 LM00041
                       THROUGH DKL,FOR I=LDKM,1,I.G.HDKM                                          *027 LM00042
      DKL              TSIZ(I)=NDKT                                                               *028 LM00043
                       THROUGH DML, FOR I=LDMM,1,I.G.HDMM                                         *029 LM00044
      DML              TSIZ(I)=NDMT                                                               *030 LM00045
                       FIRST=0B                                                                   *031 LM00046
                  END OF CONDITIONAL                                                              *032 LM00047
                  WHENEVER (X+373737373737K).A.$++++++$ .NE.0, FUNCTION RETURN 1B                 *033 LM00048
                  Y1=(X+$666666$).A.$++++++$                                                      *034 LM00049
                  Y=X.A. .N.(Y1.RS.1) .A. .N.(Y1.RS.3)                                            *035 LM00050
                  R=Y.A.77K                                                                       *036 LM00051
                  T=BCDEC.(Y.RS.6 .A. 77777777K)                                                  *037 LM00052
                  M=Y.RS.30 .A.77K                                                                *038 LM00053
                  WHENEVER M.L.LDKM.OR.M.G.HDKM .AND. M.L.LDMM .OR. M.G.HDMM, FUNCTION RETURN 1B  *039 LM00054
                  WHENEVER  R.G.1 .OR. T.GE.TSIZ(M), FUNCTION RETURN 1B                           *040 LM00055
                  FUNCTION RETURN 0B                                                              *041 LM00056
                  NORMAL MODE IS INTEGER                                                          *042 LM00057
                  DIMENSION TSIZ(10)                                                              *043 LM00058
                  VECTOR VALUES FIRST=1B                                                          *044 LM00059
                  INSERT FILE SALEQU                                                              *045 LM00060
                   SALEQU                                                                         *045 LM00001
                  VECTOR VALUES MFDORG=101212121212K                                              *046 LM00002
                  VECTOR VALUES LOADER=001212121212K                                              *047 LM00003
                  VECTOR VALUES ENTLEN=7                                                          *048 LM00004
                  VECTOR VALUES ENTRYL=20                                                         *049 LM00005
                  VECTOR VALUES NWPT=432                                                          *050 LM00006
                  VECTOR VALUES LDKM=0                                                            *051 LM00007
                  VECTOR VALUES HDKM=7                                                            *052 LM00008
                  VECTOR VALUES LDMM=8                                                            *053 LM00009
                  VECTOR VALUES HDMM=8                                                            *054 LM00010
                  VECTOR VALUES NDKT=10000                                                        *055 LM00011
                  VECTOR VALUES NDMT=400                                                          *056 LM00012
                  VECTOR VALUES NQW=3                                                             *057 LM00013
                  VECTOR VALUES PROBN=1                                                           *058 LM00014
                  VECTOR VALUES PROGN=2                                                           *059 LM00015
                  VECTOR VALUES ALPHA=3                                                           *060 LM00016
                  VECTOR VALUES BETA=4                                                            *061 LM00017
                  VECTOR VALUES DAYTIM=5                                                          *062 LM00018
                  VECTOR VALUES TIME=6                                                            *063 LM00019
                  VECTOR VALUES DATELU=7                                                          *064 LM00020
                  VECTOR VALUES AUTHOR=8                                                          *065 LM00021
                  VECTOR VALUES MODE=9                                                            *066 LM00022
                  VECTOR VALUES ILOCK=10                                                          *067 LM00023
                  VECTOR VALUES F=11                                                              *068 LM00024
                  VECTOR VALUES RCOUNT=12                                                         *069 LM00025
                  VECTOR VALUES S=13                                                              *070 LM00026
                  VECTOR VALUES W=14                                                              *071 LM00027
                  VECTOR VALUES R=15                                                              *072 LM00028
                  VECTOR VALUES NORECS=16                                                         *073 LM00029
                  VECTOR VALUES P=17                                                              *074 LM00030
                  VECTOR VALUES LCOUNT=18                                                         *075 LM00031
                  VECTOR VALUES LSTRK=19                                                          *076 LM00032
                  VECTOR VALUES FSTRK=20                                                          *077 LM00033
                  VECTOR VALUES TEMPMD=1K                                                         *078 LM00034
                  VECTOR VALUES PARTER=1K                                                         *079 LM00035
                  VECTOR VALUES DISKER=2K                                                         *080 LM00036
                  VECTOR VALUES BADBP=4K                                                          *081 LM00037
                  VECTOR VALUES BADTR=1K1                                                         *082 LM00038
                  VECTOR VALUES BADFP=2K1                                                         *083 LM00039
                  VECTOR VALUES BADTN=4K1                                                         *084 LM00040
                  VECTOR VALUES UNPTRK=1K2                                                        *085 LM00041
                  VECTOR VALUES RUSTRK=2K2                                                        *086 LM00042
                  VECTOR VALUES DIRTRN=4K2                                                        *087 LM00043
                  VECTOR VALUES DTATRN=1K3                                                        *088 LM00044
                  VECTOR VALUES NZITEM=2K3                                                        *089 LM00045
                  VECTOR VALUES BADF=4K3                                                          *090 LM00046
                  VECTOR VALUES BADLTK=1K4                                                        *091 LM00047
                  VECTOR VALUES FATAL=2K4                                                         *092 LM00048
                  VECTOR VALUES FORCE=4K4                                                         *093 LM00049
                  VECTOR VALUES BADATE=1K5                                                        *094 LM00050
                  VECTOR VALUES BADLCT=2K5                                                        *095 LM00051
                  VECTOR VALUES BADRCT=4K5                                                        *096 LM00052
                  VECTOR VALUES BADTC=1K6                                                         *097 LM00053
                  VECTOR VALUES BADP=2K6                                                          *098 LM00054
                  VECTOR VALUES BKCOR=4K6                                                         *099 LM00055
                  VECTOR VALUES BKBAD=1K7                                                         *100 LM00056
                                                                                                       LM00057
                  END OF FUNCTION                                                                 *101 LM00061
1MAD PROGRAM,TYPE NOV 1963      (ALL NUMBERS ARE OCTAL)
0TOTAL LOCATIONS   00657 TRANSFER VECTOR LENGTH  00003 PROGRAM BEGINS    00143
0 PROGRAM IS AN EXTERNAL FUNCTION.   THE FOLLOWING ARE ENTRIES
      CKTRK  00446   0        CVTRK  00415   0        TRKCV  00362   0        CKDATE 00303   0        DATECV 00217   0
      CVDATE 00144   0
0VARIABLE STORAGE (A=ARRAY,C=COMMON,E=ERASABLE,DIGIT=MODE)
      ALPHA  00004 A 1        BKBAD  00022 A 1        FIRST  00035 A 2        MFDORG 00052 A 1        RCOUNT 00067 A 1
      AUTHOR 00005 A 1        BKCOR  00023 A 1        FORCE  00036 A 1        MODE   00053 A 1        R      00070 A 1
      BADATE 00006 A 1        DATELU 00024 A 1        F      00037 A 1        M      00054   1        RUSTRK 00071 A 1
      BADBP  00007 A 1        DAYTIM 00025 A 1        FSTRK  00040 A 1        NDKT   00055 A 1        S      00072 A 1
      BADFP  00010 A 1        DIRTRN 00026 A 1        HDKM   00041 A 1        NDMT   00056 A 1        TEMPMD 00073 A 1
      BADF   00011 A 1        DISKER 00027 A 1        HDMM   00042 A 1        NORECS 00057 A 1        TIME   00074 A 1
      BADLCT 00012 A 1        DKL    00003   4        ILOCK  00043 A 1        NQW    00060 A 1        T      00075   1
      BADLTK 00013 A 1        DML    00003   4        I      00044   1        NWPT   00061 A 1        TSIZ   00110 A 1
      BADP   00014 A 1        D      00030   1        LCOUNT 00045 A 1        NZITEM 00062 A 1        UNPTRK 00111 A 1
      BADRCT 00015 A 1        DTATRN 00031 A 1        LDKM   00046 A 1        PARTER 00063 A 1        W      00112 A 1
      BADTC  00016 A 1        ENTLEN 00032 A 1        LDMM   00047 A 1        PROBN  00064 A 1        X      00113   1
      BADTN  00017 A 1        ENTRYL 00033 A 1        LOADER 00050 A 1        PROGN  00065 A 1        Y1     00114   1
      BADTR  00020 A 1        FATAL  00034 A 1        LSTRK  00051 A 1        P      00066 A 1        Y      00115   1
      BETA   00021 A 1
0FUNCTION DICTIONARY
      BCDEC  00000   1        DERBC  00001   1        EXIT   00002   1
0ABSOLUTE CONSTANTS
 00127 +000000000036     00136 +000077777777     00122 +000000000006     00132 +000000000077     00116 +000000000000
 00142 +373737373737     00120 +000000000003     00140 +202020202020     00137 +060606060606     00133 +000000000143
 00131 +000000000074     00134 +000000000777     00130 +000000000037     00125 +000000000017     00123 +000000000011
 00124 +000000000014     00121 +000000000005     00135 +000000007777     00126 +000000000030     00117 +000000000001
 00141 +233000000000
0PROGRAM
                 EXTERNAL FUNCTION (A)                                              001  LM00001
                 ENTRY TO CVDATE.                                                   002  LM00002
 00143 TRA +0 02000 0 00146    00144 SXA +0 63400 2 00633    00145 TSX +0 07400 2 00633
                 X=A                                                                003  LM00004
 00146 CLA +0 50000 0 00024    00147 STO +0 60100 0 00113
                 Y=BCDEC.(X.A.7777K).LS.9 .V.BCDEC.(X.RS.12 .A.7777K).V.            004  LM00005
                1  BCDEC.(X.RS.24 .A.7777K).LS.5                                    004  LM00006
 00150 CAL -0 50000 0 00126    00151 STA +0 62100 0 00153    00152 CAL -0 50000 0 00113    00153 LGR -0 76500 0 00000
 00154 ANA -0 32000 0 00135    00155 SLW +0 60200 0 00652    00156 TSX +0 07400 4 00000    00157 TXH +3 00000 0 00652
 00160 STO +0 60100 0 00652    00161 CAL -0 50000 0 00121    00162 STA +0 62100 0 00164    00163 CAL -0 50000 0 00652
 00164 ALS +0 76700 0 00000    00165 SLW +0 60200 0 00652    00166 CAL -0 50000 0 00124    00167 STA +0 62100 0 00171
 00170 CAL -0 50000 0 00113    00171 LGR -0 76500 0 00000    00172 ANA -0 32000 0 00135    00173 SLW +0 60200 0 00653
 00174 TSX +0 07400 4 00000    00175 TXH +3 00000 0 00653    00176 STO +0 60100 0 00653    00177 CAL -0 50000 0 00113
 00200 ANA -0 32000 0 00135    00201 SLW +0 60200 0 00654    00202 TSX +0 07400 4 00000    00203 TXH +3 00000 0 00654
 00204 STO +0 60100 0 00654    00205 CAL -0 50000 0 00123    00206 STA +0 62100 0 00210    00207 CAL -0 50000 0 00654
 00210 ALS +0 76700 0 00000    00211 ORA -0 50100 0 00653    00212 ORA -0 50100 0 00652    00213 SLW +0 60200 0 00115
                 F'N Y                                                              005  LM00007
 00214 CLA +0 50000 0 00115    00215 TRA +0 02000 0 00646
                 ENTRY TO DATECV.                                                   006  LM00009
 00216 TRA +0 02000 0 00221    00217 SXA +0 63400 2 00633    00220 TSX +0 07400 2 00633
                 X=A                                                                007  LM00011
 00221 CLA +0 50000 0 00024    00222 STO +0 60100 0 00113
                 Y=(DERBC.(X.RS.9 .A.777K).A.7777K) .V.                             008  LM00012
                1  (DERBC.(X.A.37K).A.7777K).LS.12 .V.                              008  LM00013
                2  (DERBC.(X.RS.5 .A.17K).A.7777K).LS.24                            008  LM00014
 00223 CAL -0 50000 0 00121    00224 STA +0 62100 0 00226    00225 CAL -0 50000 0 00113    00226 LGR -0 76500 0 00000
 00227 ANA -0 32000 0 00125    00230 SLW +0 60200 0 00654    00231 TSX +0 07400 4 00001    00232 TXH +3 00000 0 00654
 00233 STO +0 60100 0 00654    00234 CAL -0 50000 0 00654    00235 ANA -0 32000 0 00135    00236 SLW +0 60200 0 00654
 00237 CAL -0 50000 0 00126    00240 STA +0 62100 0 00242    00241 CAL -0 50000 0 00654    00242 ALS +0 76700 0 00000
 00243 SLW +0 60200 0 00654    00244 CAL -0 50000 0 00113    00245 ANA -0 32000 0 00130    00246 SLW +0 60200 0 00653
 00247 TSX +0 07400 4 00001    00250 TXH +3 00000 0 00653    00251 STO +0 60100 0 00653    00252 CAL -0 50000 0 00653
 00253 ANA -0 32000 0 00135    00254 SLW +0 60200 0 00653    00255 CAL -0 50000 0 00124    00256 STA +0 62100 0 00260
 00257 CAL -0 50000 0 00653    00260 ALS +0 76700 0 00000    00261 SLW +0 60200 0 00653    00262 CAL -0 50000 0 00123
 00263 STA +0 62100 0 00265    00264 CAL -0 50000 0 00113    00265 LGR -0 76500 0 00000    00266 ANA -0 32000 0 00134
 00267 SLW +0 60200 0 00652    00270 TSX +0 07400 4 00001    00271 TXH +3 00000 0 00652    00272 STO +0 60100 0 00652
 00273 CAL -0 50000 0 00652    00274 ANA -0 32000 0 00135    00275 ORA -0 50100 0 00653    00276 ORA -0 50100 0 00654
 00277 SLW +0 60200 0 00115
                 F'N Y                                                              009  LM00015
 00300 CLA +0 50000 0 00115    00301 TRA +0 02000 0 00646
                 ENTRY TO CKDATE.                                                   010  LM00017
 00302 TRA +0 02000 0 00305    00303 SXA +0 63400 2 00633    00304 TSX +0 07400 2 00633
                 X=A                                                                011  LM00019
 00305 CLA +0 50000 0 00024    00306 STO +0 60100 0 00113
                 Y=X.RS.9                                                           012  LM00020
 00307 CAL -0 50000 0 00123    00310 STA +0 62100 0 00312    00311 CAL -0 50000 0 00113    00312 LGR -0 76500 0 00000
 00313 SLW +0 60200 0 00115
                 M=X.RS.5 .A.17K                                                    013  LM00021
 00314 CAL -0 50000 0 00121    00315 STA +0 62100 0 00317    00316 CAL -0 50000 0 00113    00317 LGR -0 76500 0 00000
 00320 ANA -0 32000 0 00125    00321 SLW +0 60200 0 00054
                 D=X.A.37K                                                          014  LM00022
 00322 CAL -0 50000 0 00113    00323 ANA -0 32000 0 00130    00324 SLW +0 60200 0 00030
                 F'N Y.G.99 .OR. Y.L.60 .OR. M.G.12 .OR. M.L.1 .OR.                 015  LM00023
                1    D.G.31 .OR. D.L.1                                              015  LM00024
 00325 CLA +0 50000 0 00030    00326 SUB +0 40200 0 00117    00327 TZE +0 10000 0 00331    00330 TMI -0 12000 0 00357
 00331 CLA +0 50000 0 00030    00332 SUB +0 40200 0 00130    00333 TZE +0 10000 0 00335    00334 TPL +0 12000 0 00357
 00335 CLA +0 50000 0 00054    00336 SUB +0 40200 0 00117    00337 TZE +0 10000 0 00341    00340 TMI -0 12000 0 00357
 00341 CLA +0 50000 0 00054    00342 SUB +0 40200 0 00124    00343 TZE +0 10000 0 00345    00344 TPL +0 12000 0 00357
 00345 CLA +0 50000 0 00115    00346 SUB +0 40200 0 00131    00347 TZE +0 10000 0 00351    00350 TMI -0 12000 0 00357
 00351 CLA +0 50000 0 00115    00352 SUB +0 40200 0 00133    00353 TZE +0 10000 0 00355    00354 TPL +0 12000 0 00357
 00355 PXD -0 75400 0 00000    00356 TRA +0 02000 0 00360    00357 CLA +0 50000 0 00117    00360 TRA +0 02000 0 00646
                 ENTRY TO TRKCV.                                                    016  LM00026
 00361 TRA +0 02000 0 00364    00362 SXA +0 63400 2 00633    00363 TSX +0 07400 2 00633
                 X=A                                                                017  LM00028
 00364 CLA +0 50000 0 00024    00365 STO +0 60100 0 00113
                 Y1=(X+$666666$).A.$++++++$                                         018  LM00029
 00366 CLA +0 50000 0 00113    00367 ADD +0 40000 0 00137    00370 STO +0 60100 0 00654    00371 CAL -0 50000 0 00654
 00372 ANA -0 32000 0 00140    00373 SLW +0 60200 0 00114
                 F'N X .A. .N.(Y1.RS.1) .A. .N.(Y1.RS.3)                            019  LM00030
 00374 CAL -0 50000 0 00120    00375 STA +0 62100 0 00377    00376 CAL -0 50000 0 00114    00377 LGR -0 76500 0 00000
 00400 COM +0 76000 0 00006    00401 SLW +0 60200 0 00654    00402 CAL -0 50000 0 00117    00403 STA +0 62100 0 00405
 00404 CAL -0 50000 0 00114    00405 LGR -0 76500 0 00000    00406 COM +0 76000 0 00006    00407 ANA -0 32000 0 00113
 00410 ANA -0 32000 0 00654    00411 SLW +0 60200 0 00654    00412 CLA +0 50000 0 00654    00413 TRA +0 02000 0 00646
                 ENTRY TO CVTRK.                                                    020  LM00032
 00414 TRA +0 02000 0 00417    00415 SXA +0 63400 2 00633    00416 TSX +0 07400 2 00633
                 X=A                                                                021  LM00034
 00417 CLA +0 50000 0 00024    00420 STO +0 60100 0 00113
                 Y1=(X+373737373737K) .A. $++++++$                                  022  LM00035
 00421 CLA +0 50000 0 00113    00422 ADD +0 40000 0 00142    00423 STO +0 60100 0 00654    00424 CAL -0 50000 0 00654
 00425 ANA -0 32000 0 00140    00426 SLW +0 60200 0 00114
                 F'N X .V. Y1.RS.1 .V. Y1.RS.3                                      023  LM00036
 00427 CAL -0 50000 0 00120    00430 STA +0 62100 0 00432    00431 CAL -0 50000 0 00114    00432 LGR -0 76500 0 00000
 00433 SLW +0 60200 0 00654    00434 CAL -0 50000 0 00117    00435 STA +0 62100 0 00437    00436 CAL -0 50000 0 00114
 00437 LGR -0 76500 0 00000    00440 ORA -0 50100 0 00113    00441 ORA -0 50100 0 00654    00442 SLW +0 60200 0 00654
 00443 CLA +0 50000 0 00654    00444 TRA +0 02000 0 00646
                 ENTRY TO CKTRK.                                                    024  LM00038
 00445 TRA +0 02000 0 00450    00446 SXA +0 63400 2 00633    00447 TSX +0 07400 2 00633
                 X=A                                                                025  LM00040
 00450 CLA +0 50000 0 00024    00451 STO +0 60100 0 00113
                 W'R FIRST                                                          026  LM00041
 00452 NZT -0 52000 0 00035    00453 TRA +0 02000 0 00512
                      T'H DKL,FOR I=LDKM,1,I.G.HDKM                                 027  LM00042
 00454 CLA +0 50000 0 00046    00455 STO +0 60100 0 00044    00456 TRA +0 02000 0 00462    00457 CLA +0 50000 0 00044
 00460 ADD +0 40000 0 00117    00461 STO +0 60100 0 00044    00462 CLA +0 50000 0 00044    00463 SUB +0 40200 0 00041
 00464 TZE +0 10000 0 00466    00465 TPL +0 12000 0 00472
      DKL             TSIZ(I)=NDKT                                                  028  LM00043
 00466 LXA +0 53400 1 00044    00467 CLA +0 50000 0 00055    00470 STO +0 60100 1 00110    00471 TRA +0 02000 0 00457
                      T'H DML, FOR I=LDMM,1,I.G.HDMM                                029  LM00044
 00472 CLA +0 50000 0 00047    00473 STO +0 60100 0 00044    00474 TRA +0 02000 0 00500    00475 CLA +0 50000 0 00044
 00476 ADD +0 40000 0 00117    00477 STO +0 60100 0 00044    00500 CLA +0 50000 0 00044    00501 SUB +0 40200 0 00042
 00502 TZE +0 10000 0 00504    00503 TPL +0 12000 0 00510
      DML             TSIZ(I)=NDMT                                                  030  LM00045
 00504 LXA +0 53400 1 00044    00505 CLA +0 50000 0 00056    00506 STO +0 60100 1 00110    00507 TRA +0 02000 0 00475
                      FIRST=0B                                                      031  LM00046
 00510 CLA +0 50000 0 00116    00511 STO +0 60100 0 00035
                 E'L                                                                032  LM00047
                 W'R (X+373737373737K).A.$++++++$ .NE.0, F'N 1B                     033  LM00048
 00512 CLA +0 50000 0 00113    00513 ADD +0 40000 0 00142    00514 STO +0 60100 0 00654    00515 CAL -0 50000 0 00654
 00516 ANA -0 32000 0 00140    00517 SLW +0 60200 0 00654    00520 CLA +0 50000 0 00654    00521 SUB +0 40200 0 00116
 00522 TZE +0 10000 0 00525    00523 CLA +0 50000 0 00117    00524 TRA +0 02000 0 00646
                 Y1=(X+$666666$).A.$++++++$                                         034  LM00049
 00525 CLA +0 50000 0 00113    00526 ADD +0 40000 0 00137    00527 STO +0 60100 0 00654    00530 CAL -0 50000 0 00654
 00531 ANA -0 32000 0 00140    00532 SLW +0 60200 0 00114
                 Y=X.A. .N.(Y1.RS.1) .A. .N.(Y1.RS.3)                               035  LM00050
 00533 CAL -0 50000 0 00120    00534 STA +0 62100 0 00536    00535 CAL -0 50000 0 00114    00536 LGR -0 76500 0 00000
 00537 COM +0 76000 0 00006    00540 SLW +0 60200 0 00654    00541 CAL -0 50000 0 00117    00542 STA +0 62100 0 00544
 00543 CAL -0 50000 0 00114    00544 LGR -0 76500 0 00000    00545 COM +0 76000 0 00006    00546 ANA -0 32000 0 00113
 00547 ANA -0 32000 0 00654    00550 SLW +0 60200 0 00115
                 R=Y.A.77K                                                          036  LM00051
 00551 CAL -0 50000 0 00115    00552 ANA -0 32000 0 00132    00553 SLW +0 60200 0 00070
                 T=BCDEC.(Y.RS.6 .A. 77777777K)                                     037  LM00052
 00554 CAL -0 50000 0 00122    00555 STA +0 62100 0 00557    00556 CAL -0 50000 0 00115    00557 LGR -0 76500 0 00000
 00560 ANA -0 32000 0 00136    00561 SLW +0 60200 0 00654    00562 TSX +0 07400 4 00000    00563 TXH +3 00000 0 00654
 00564 STO +0 60100 0 00075
                 M=Y.RS.30 .A.77K                                                   038  LM00053
 00565 CAL -0 50000 0 00127    00566 STA +0 62100 0 00570    00567 CAL -0 50000 0 00115    00570 LGR -0 76500 0 00000
 00571 ANA -0 32000 0 00132    00572 SLW +0 60200 0 00054
                 W'R M.L.LDKM.OR.M.G.HDKM .AND. M.L.LDMM .OR. M.G.HDMM, F'N 1B      039  LM00054
 00573 CLA +0 50000 0 00054    00574 SUB +0 40200 0 00042    00575 TZE +0 10000 0 00577    00576 TPL +0 12000 0 00613
 00577 CLA +0 50000 0 00054    00600 SUB +0 40200 0 00047    00601 TZE +0 10000 0 00607    00602 TPL +0 12000 0 00607
 00603 CLA +0 50000 0 00054    00604 SUB +0 40200 0 00041    00605 TZE +0 10000 0 00607    00606 TPL +0 12000 0 00613
 00607 CLA +0 50000 0 00054    00610 SUB +0 40200 0 00046    00611 TZE +0 10000 0 00615    00612 TPL +0 12000 0 00615
 00613 CLA +0 50000 0 00117    00614 TRA +0 02000 0 00646
                 W'R  R.G.1 .OR. T.GE.TSIZ(M), F'N 1B                               040  LM00055
 00615 LXA +0 53400 2 00054    00616 CLA +0 50000 0 00075    00617 SUB +0 40200 2 00110    00620 TZE +0 10000 0 00626
 00621 TPL +0 12000 0 00626    00622 CLA +0 50000 0 00070    00623 SUB +0 40200 0 00117    00624 TZE +0 10000 0 00630
 00625 TMI -0 12000 0 00630    00626 CLA +0 50000 0 00117    00627 TRA +0 02000 0 00646
                 F'N 0B                                                             041  LM00056
 00630 CLA +0 50000 0 00116    00631 TRA +0 02000 0 00646
                 NORMAL MODE IS INTEGER                                             042  LM00057
                 DIMENSION TSIZ(10)                                                 043  LM00058
                 V'S FIRST=1B                                                       044  LM00059
 00035     +0 00000 0 00001
                 INSERT FILE SALEQU                                                 045  LM00060
                 V'S MFDORG=101212121212K                                           046  LM00002
 00052     +1 01212 1 21212
                 V'S LOADER=001212121212K                                           047  LM00003
 00050     +0 01212 1 21212
                 V'S ENTLEN=7                                                       048  LM00004
 00032     +0 00000 0 00007
                 V'S ENTRYL=20                                                      049  LM00005
 00033     +0 00000 0 00024
                 V'S NWPT=432                                                       050  LM00006
 00061     +0 00000 0 00660
                 V'S LDKM=0                                                         051  LM00007
 00046     +0 00000 0 00000
                 V'S HDKM=7                                                         052  LM00008
 00041     +0 00000 0 00007
                 V'S LDMM=8                                                         053  LM00009
 00047     +0 00000 0 00010
                 V'S HDMM=8                                                         054  LM00010
 00042     +0 00000 0 00010
                 V'S NDKT=10000                                                     055  LM00011
 00055     +0 00000 0 23420
                 V'S NDMT=400                                                       056  LM00012
 00056     +0 00000 0 00620
                 V'S NQW=3                                                          057  LM00013
 00060     +0 00000 0 00003
                 V'S PROBN=1                                                        058  LM00014
 00064     +0 00000 0 00001
                 V'S PROGN=2                                                        059  LM00015
 00065     +0 00000 0 00002
                 V'S ALPHA=3                                                        060  LM00016
 00004     +0 00000 0 00003
                 V'S BETA=4                                                         061  LM00017
 00021     +0 00000 0 00004
                 V'S DAYTIM=5                                                       062  LM00018
 00025     +0 00000 0 00005
                 V'S TIME=6                                                         063  LM00019
 00074     +0 00000 0 00006
                 V'S DATELU=7                                                       064  LM00020
 00024     +0 00000 0 00007
                 V'S AUTHOR=8                                                       065  LM00021
 00005     +0 00000 0 00010
                 V'S MODE=9                                                         066  LM00022
 00053     +0 00000 0 00011
                 V'S ILOCK=10                                                       067  LM00023
 00043     +0 00000 0 00012
                 V'S F=11                                                           068  LM00024
 00037     +0 00000 0 00013
                 V'S RCOUNT=12                                                      069  LM00025
 00067     +0 00000 0 00014
                 V'S S=13                                                           070  LM00026
 00072     +0 00000 0 00015
                 V'S W=14                                                           071  LM00027
 00112     +0 00000 0 00016
                 V'S R=15                                                           072  LM00028
 00070     +0 00000 0 00017
                 V'S NORECS=16                                                      073  LM00029
 00057     +0 00000 0 00020
                 V'S P=17                                                           074  LM00030
 00066     +0 00000 0 00021
                 V'S LCOUNT=18                                                      075  LM00031
 00045     +0 00000 0 00022
                 V'S LSTRK=19                                                       076  LM00032
 00051     +0 00000 0 00023
                 V'S FSTRK=20                                                       077  LM00033
 00040     +0 00000 0 00024
                 V'S TEMPMD=1K                                                      078  LM00034
 00073     +0 00000 0 00001
                 V'S PARTER=1K                                                      079  LM00035
 00063     +0 00000 0 00001
                 V'S DISKER=2K                                                      080  LM00036
 00027     +0 00000 0 00002
                 V'S BADBP=4K                                                       081  LM00037
 00007     +0 00000 0 00004
                 V'S BADTR=1K1                                                      082  LM00038
 00020     +0 00000 0 00010
                 V'S BADFP=2K1                                                      083  LM00039
 00010     +0 00000 0 00020
                 V'S BADTN=4K1                                                      084  LM00040
 00017     +0 00000 0 00040
                 V'S UNPTRK=1K2                                                     085  LM00041
 00111     +0 00000 0 00100
                 V'S RUSTRK=2K2                                                     086  LM00042
 00071     +0 00000 0 00200
                 V'S DIRTRN=4K2                                                     087  LM00043
 00026     +0 00000 0 00400
                 V'S DTATRN=1K3                                                     088  LM00044
 00031     +0 00000 0 01000
                 V'S NZITEM=2K3                                                     089  LM00045
 00062     +0 00000 0 02000
                 V'S BADF=4K3                                                       090  LM00046
 00011     +0 00000 0 04000
                 V'S BADLTK=1K4                                                     091  LM00047
 00013     +0 00000 0 10000
                 V'S FATAL=2K4                                                      092  LM00048
 00034     +0 00000 0 20000
                 V'S FORCE=4K4                                                      093  LM00049
 00036     +0 00000 0 40000
                 V'S BADATE=1K5                                                     094  LM00050
 00006     +0 00000 1 00000
                 V'S BADLCT=2K5                                                     095  LM00051
 00012     +0 00000 2 00000
                 V'S BADRCT=4K5                                                     096  LM00052
 00015     +0 00000 4 00000
                 V'S BADTC=1K6                                                      097  LM00053
 00016     +0 00001 0 00000
                 V'S BADP=2K6                                                       098  LM00054
 00014     +0 00002 0 00000
                 V'S BKCOR=4K6                                                      099  LM00055
 00023     +0 00004 0 00000
                 V'S BKBAD=1K7                                                      100  LM00056
 00022     +0 00010 0 00000
                 END OF FUNCTION                                                    101  LM00061
 00632 TSX +0 07400 4 00002    00633 TXH +3 00000 0 00000    00634 SXD -0 63400 1 00633    00635 SXA +0 63400 4 00646
 00636 CLA +0 50000 4 00001    00637 STA +0 62100 0 00146    00640 STA +0 62100 0 00221    00641 STA +0 62100 0 00305
 00642 STA +0 62100 0 00364    00643 STA +0 62100 0 00417    00644 STA +0 62100 0 00450    00645 TRA +0 02000 2 00001
 00646 AXT +0 77400 4 00000    00647 LXA +0 53400 2 00633    00650 LXD -0 53400 1 00633    00651 TRA +0 02000 4 00001


  DIOT   BCD 12/14/70 1510.4    2175         00000
1            TINIT.(0)                                                                           PAGE 1

                              *      TREAD.(ADR,BUF)
                              *      TWRIT.(ADR,BUF)
                              *      TWAIT.(ERLOC,ERRCD)
                              *      ERRCD=1 FOR BAD DATA (PARITY ERRORS)
                              *      ERRCD=2 FOR ADR NOT FOUND
                              *      ADR MAY BE ANY ASSENDING NUMBERS
                              *
                       00002         ENTRY   TINIT
                       00022         ENTRY   TREAD
                       00052         ENTRY   TWRIT
                       00105         ENTRY   TWAIT
                       00004         ENTRY   TEND

            LINKAGE DIRECTOR
      00000  000000000000
      00001  633145316360

                       00663  N      EQU     435
                       02201  X      TAPENO  B1
                              *
      00002  0772 00 0 02201  TINIT  REWX
      00003  0020 00 4 00001         TRA     1,4
                              *
      00004  0636 00 4 00016  TEND   SCA     XRE,4
      00005  0634 00 1 00017         SXA     XRE+1,1
      00006  0774 00 1 00012         AXT     10,1
      00007  0074 00 4 00052  EL     TSX     TWRIT,4
      00010  3 00000 0 00010         PTH     *
      00011  3 00000 0 00242         PTH     =O377777777777
      00012  0074 00 4 00105         TSX     TWAIT,4
      00013  3 00000 0 00013         PTH     *
      00014  3 00000 0 00021         PTH     ERC
      00015  2 00001 1 00007         TIX     EL,1,1
      00016 -0774 00 4 00000  XRE    AXC     ,4
      00017  0774 00 1 00000         AXT     ,1
      00020  0020 00 4 00001         TRA     1,4
      00021  0 00000 0 00000  ERC    PZE
                              *
      00022  0636 00 4 00037  TREAD  SCA     XRR,4
      00023 -0500 60 4 00001         CAL*    1,4
      00024  0602 00 0 00102         SLW     ADRW
      00025 -0500 00 4 00002         CAL     2,4
      00026  0621 00 0 00042         STA     IOR
      00027  0774 00 4 00004         AXT     4,4
      00030  0600 00 4 00050         STZ     CKF+4,4
      00031  2 00001 4 00030         TIX     *-1,4,1
      00032  0762 00 0 02221         RTBX
      00033 -0540 00 0 00041         RCHX    IOCR
      00034 -0625 00 0 00237         STL     READ
      00035  0600 00 0 00236         STZ     RCT
      00036  0600 00 0 00235         STZ     NCT
      00037 -0774 00 4 00000  XRR    AXC     ,4
      00040  0020 00 4 00001         TRA     1,4
      00041 -0 00003 0 00044  IOCR   IOCP    CKF,,3
      00042 -0 00663 0 00000  IOR    IOCP    **,,N
      00043  0 00001 0 00047         IOCD    LSTC,,1
1            TINIT.(0)                                                                           PAGE 2

      00044  0 00000 0 00000  CKF    PZE
      00045  0 00000 0 00000  ADR    PZE
      00046  0 00000 0 00000  CS     PZE
      00047  0 00000 0 00000  LSTC   PZE
      00050  0 00000 0 00000  LERR
      00051  0 00000 0 00000  LERRM
                              *
      00052  0636 00 4 00073  TWRIT  SCA     XRW,4
      00053 -0500 60 4 00001         CAL*    1,4
      00054  0602 00 0 00102         SLW     ADRW
      00055 -0500 00 4 00002         CAL     2,4
      00056  0621 00 0 00077         STA     IOW
      00057  0361 00 0 00075         ACL     NX
      00060  0621 00 0 00063         STA     WCS
      00061  0774 00 4 00663         AXT     N,4
      00062 -0754 00 0 00000         ZAC
      00063  0361 00 4 00000  WCS    ACL     **,4
      00064  2 00001 4 00063         TIX     *-1,4,1
      00065  0602 00 0 00103         SLW     CSW
      00066  0766 00 0 02221         WTBX
      00067 -0540 00 0 00076         RCHX    IOCW
      00070  0600 00 0 00237         STZ     READ
      00071  0600 00 0 00236         STZ     RCT
      00072  0600 00 0 00235         STZ     NCT
      00073 -0774 00 4 00000  XRW    AXC     ,4
      00074  0020 00 4 00001         TRA     1,4
      00075  0 00000 0 00663  NX     PZE     N
      00076 -0 00003 0 00101  IOCW   IOCP    FST,,3
      00077 -0 00663 0 00000  IOW    IOCP    **,,N
      00100  0 00001 0 00104         IOCD    LAST,,1
      00101  263151626366     FST    BCI     1,FIRSTW
      00102  0 00000 0 00000  ADRW   PZE
      00103  0 00000 0 00000  CSW    PZE
      00104  432162636660     LAST   BCI     1,LASTW
                              *
      00105  0636 00 4 00144  TWAIT  SCA     XRT,4
      00106  0634 00 1 00145         SXA     XRT+1,1
      00107  0560 00 0 00045  WT     LDQ     ADR           SHOW IN LIGHTS
      00110  0061 00 0 00107         TCOX    *-1
      00111 -0520 00 0 00237         NZT     READ
      00112  0020 00 0 00147         TRA     CWT
      00113 -0022 00 0 00221         TRCX    BADR
      00114 -0500 00 0 00042         CAL     IOR
      00115  0361 00 0 00075         ACL     NX
      00116  0621 00 0 00121         STA     *+3
      00117  0774 00 4 00663         AXT     N,4
      00120 -0754 00 0 00000         ZAC
      00121  0361 00 4 00000         ACL     **,4
      00122  2 00001 4 00121         TIX     *-1,4,1
      00123  0602 00 0 00103         SLW     CSW
      00124  0774 00 1 00004         AXT     4,1
      00125 -0500 00 1 00144  CL     CAL     ORD+4,1
      00126  0737 00 4 00000         PAC     ,4
      00127 -0500 00 4 00044         CAL     CKF,4
      00130  0322 00 4 00101         ERA     FST,4
      00131 -0100 60 4 00134         TNZ*    ER,4
1            TINIT.(0)                                                                           PAGE 3

      00132  2 00001 1 00125         TIX     CL,1,1
      00133  0020 00 0 00144         TRA     XRT
      00134  0 00000 0 00221  ER             BADR
      00135  0 00000 0 00155                 BADNO
      00136  0 00000 0 00221                 BADR
      00137  0 00000 0 00221                 BADR
      00140 +000000000000     ORD    DEC     0,2,3,1
      00141 +000000000002
      00142 +000000000003
      00143 +000000000001
      00144 -0774 00 4 00000  XRT    AXC     ,4
      00145  0774 00 1 00000         AXT     ,1
      00146  0020 00 4 00001         TRA     1,4
                              *
      00147 -0022 00 0 00152  CWT    TRCX    RW
      00150 -0030 00 0 00152         TEFX    RW
      00151  0020 00 0 00144         TRA     XRT
      00152  0766 00 0 02221  RW     WTBX
      00153 -0540 00 0 00076         RCHX    IOCW
      00154  0020 00 0 00107         TRA     WT
                              *
      00155  0500 00 0 00045  BADNO  CLA     ADR
      00156  0402 00 0 00102         SUB     ADRW
      00157  0340 00 0 00050         CAS     LERR
      00160  0020 00 0 00162         TRA     *+2
      00161  0020 00 0 00172         TRA     CLOSER
      00162 -0340 00 0 00051         LAS     LERRM
      00163  0020 00 0 00166         TRA     *+3
      00164  0020 00 0 00166         TRA     *+2
      00165  0020 00 0 00172         TRA     CLOSER
      00166  0534 00 4 00235         LXA     NCT,4
      00167  1 00001 4 00170         TXI     *+1,4,1
      00170  0634 00 4 00235         SXA     NCT,4
      00171  3 00024 4 00230         TXH     NER,4,20
      00172  0601 00 0 00050  CLOSER STO     LERR
      00173  0760 00 0 00003         SSP
      00174  0601 00 0 00051         STO     LERRM
      00175 -0500 00 0 00045         CAL     ADR
      00176 -0340 00 0 00102         LAS     ADRW
      00177  0020 00 0 00202         TRA     BKUP
      00200  0000 00 0 00200         HTR     *
      00201  0020 00 0 00213         TRA     RR
      00202  0560 00 0 00045  BKUP   LDQ     ADR
      00203  0774 00 4 00004         AXT     4,4
      00204  0764 00 0 02201         BSRX
      00205  2 00001 4 00204         TIX     *-1,4,1
      00206  0534 00 4 00235         LXA     NCT,4
      00207  0760 00 0 02000         BTTX
      00210  1 00001 4 00211         TXI     *+1,4,1
      00211  0634 00 4 00235         SXA     NCT,4
      00212  3 00024 4 00230         TXH     NER,4,20
      00213  0774 00 4 00004  RR     AXT     4,4
      00214  0600 00 4 00050         STZ     CKF+4,4
      00215  2 00001 4 00214         TIX     *-1,4,1
      00216  0762 00 0 02221         RTBX
      00217 -0540 00 0 00041         RCHX    IOCR
1            TINIT.(0)                                                                           PAGE 4

      00220  0020 00 0 00107         TRA     WT
                              *
      00221  0534 00 4 00236  BADR   LXA     RCT,4
      00222  1 00001 4 00223         TXI     *+1,4,1
      00223  0634 00 4 00236         SXA     RCT,4
      00224  3 00144 4 00226         TXH     RER,4,100
      00225  0020 00 0 00213         TRA     RR
                              *
      00226 -0500 00 0 00240  RER    CAL     =1
      00227  0020 00 0 00231         TRA     *+2
      00230 -0500 00 0 00241  NER    CAL     =2
      00231  0535 00 4 00144         LAC     XRT,4
      00232  0534 00 1 00145         LXA     XRT+1,1
      00233  0602 60 4 00002         SLW*    2,4
      00234  0020 60 4 00001         TRA*    1,4
      00235  0 00000 0 00000  NCT
      00236  0 00000 0 00000  RCT
      00237  0 00000 0 00000  READ
                                     END

        LITERALS
      00240  000000000001
      00241  000000000002
      00242  377777777777
1            TINIT.(0)                                                                           PAGE 1
                        POST PROCESSOR ASSEMBLY DATA

        243 IS THE FIRST LOCATION NOT USED BY THIS PROGRAM

0REFERENCES TO DEFINED SYMBOLS
        663      N     2,   42,   61,   75,   77,  117
       2201      X     2,   32,   33,   66,   67,  110,  113,  147,  150,  152,  153,  204,  207,  216,  217
        125     CL   132
         46     CS
          7     EL    15
        134     ER   131
         75     NX    57,  115
        213     RR   201,  225
        152     RW   147,  150
        107     WT   154,  220
         45    ADR   107,  155,  175,  202
         44    CKF    30,   41,  127,  214
        103    CSW    65,  123
        147    CWT   112
         21    ERC    14
        101    FST    76,  130
         42    IOR    26,  114
         77    IOW    56
        235    NCT    36,   72,  166,  170,  206,  211
        230    NER   171,  212
        140    ORD   125
        236    RCT    35,   71,  221,  223
        226    RER   224
         63    WCS    60
         16    XRE     4,    5
         37    XRR    22
        144    XRT   105,  106,  133,  151,  231,  232
         73    XRW    52
        102   ADRW    24,   54,  156,  176
        221   BADR   113,  134,  136,  137
        202   BKUP   177
         41   IOCR    33,  217
         76   IOCW    67,  153
        104   LAST   100
         50   LERR   157,  172
         47   LSTC    43
        237   READ    34,   70,  111
          4   TEND     0
        155  BADNO   135
         51  LERRM   162,  174
          2  TINIT     0
         22  TREAD     0
        105  TWAIT     0,   12
         52  TWRIT     0,    7
        172 CLOSER   161,  165

0 NO ERROR IN ABOVE ASSEMBLY.


  KEYS   BCD 12/14/70 1510.5     823         00000
1                                                                                                PAGE 1

                       00003         ENTRY   KEYS          KEYS=KEYS.
                       00006         ENTRY   SW            1B=SW.(I)
                       00054         ENTRY   EVSW          ..

        TRANSFER VECTOR
      00000  444751314563     MPRINT

            LINKAGE DIRECTOR
      00001  000000000000
      00002  422570626060

      00003  0760 00 0 00004  KEYS   ENK
      00004  0131 00 0 00000         XCA
      00005  0020 00 4 00001         TRA     1,4
                              *
      00006  0636 00 4 00041  SW     SCA     XR,4          SAVE
      00007 -0500 60 4 00001         CAL*    1,4           GET SWITCH NUMBER
      00010  0737 00 4 00000         PAC     ,4
      00011 -0754 00 0 00000         ZAC
      00012 -3 77771 4 00041         TXL     XR,4,-7       TRA IF BAD NUMBER
      00013  0522 00 4 00065         XEC     TEST,4        EXECUTE SWT
      00014  0020 00 0 00016         TRA     *+2           TRA IF DOWN
      00015 -0500 00 0 00074         CAL     =1
      00016  0602 00 0 00043         SLW     TEMP
      00017 -0340 00 4 00045         LAS     LSW,4         CHECK FOR CHANGE
      00020  0020 00 0 00022         TRA     *+2           CHANGE
      00021  0020 00 0 00036         TRA     OK
      00022  0602 00 4 00045         SLW     LSW,4
      00023  0774 00 4 00006         AXT     6,4           PRINT SWITCHES
      00024 -0754 00 0 00000         ZAC
      00025  0767 00 0 00006         ALS     6             PACK TO ONE WORD
      00026 -0501 00 4 00054         ORA     LSW+7,4
      00027  2 00001 4 00025         TIX     *-2,4,1
      00030  0602 00 0 00044         SLW     PSW
      00031  0074 00 4 00000         TSX     $MPRINT,4
 TD   00032  3 00000 0 00074         TXH     =1
 TD   00033  3 00000 0 00075         TXH     =H0SWS=
 TD   00034  3 00000 0 00044         TXH     PSW
      00035 -0500 00 0 00043         CAL     TEMP
      00036  0767 00 4 00000  OK     ALS     0,4           SET EVER (ALL SWITCHES
      00037 -0602 00 0 00064         ORS     EVER          WHICH HAVE EVER BEEN DOWN)
      00040 -0500 00 0 00043         CAL     TEMP
      00041 -0774 00 4 00000  XR     AXC     ,4
      00042  0020 00 4 00001         TRA     1,4
      00043  0 00000 0 00000  TEMP
      00044  0 00000 0 00000  PSW
      00045                   LSW    BSS     7
                              *
      00054  0636 00 4 00062  EVSW   SCA     XRE,4         SAVE
      00055 -0500 60 4 00001         CAL*    1,4           GET SWITCH NUMBER
      00056  0737 00 4 00000         PAC     ,4
      00057 -0500 00 0 00064         CAL     EVER          GET EVER WORD
      00060  0771 00 4 00000         ARS     0,4
      00061 -0320 00 0 00074         ANA     =1
      00062 -0774 00 4 00000  XRE    AXC     ,4
      00063  0020 00 4 00001         TRA     1,4
1                                                                                                PAGE 2

      00064  0 00000 0 00000  EVER
      00065  0020 00 0 00041  TEST   TRA     XR
                       00066         DUP     1,6
      00066  0760 00 0 00161         SWT     *-TEST
      00067  0760 00 0 00162
      00070  0760 00 0 00163
      00071  0760 00 0 00164
      00072  0760 00 0 00165
      00073  0760 00 0 00166
                                     END

        LITERALS
      00074  000000000001
      00075  006266621360
1                                                                                                PAGE 1
                        POST PROCESSOR ASSEMBLY DATA

         76 IS THE FIRST LOCATION NOT USED BY THIS PROGRAM

0REFERENCES TO DEFINED SYMBOLS
         36     OK    21
          6     SW     0
         41     XR     6,   12,   65
         45    LSW    17,   22,   26
         44    PSW    30,   34
         62    XRE    54
         64   EVER    37,   57
         54   EVSW     0
          3   KEYS     0
         43   TEMP    16,   35,   40
         65   TEST    13,   66,   67,   70,   71,   72,   73
          0 MPRINT    31

0 NO ERROR IN ABOVE ASSEMBLY.


  STOP   BCD 12/14/70 1510.5     179         00000
1                                                                                                PAGE 1

                       00002         ENTRY   STOP

            LINKAGE DIRECTOR
      00000  000000000000
      00001  626346476060

      00002  0636 00 4 00004  STOP   SCA     XR,4
      00003  0000 00 0 00004         HTR     *+1
      00004 -0774 00 4 00000  XR     AXC     ,4
      00005  0020 00 4 00001         TRA     1,4
                                     END
1                                                                                                PAGE 1
                        POST PROCESSOR ASSEMBLY DATA

          6 IS THE FIRST LOCATION NOT USED BY THIS PROGRAM

0REFERENCES TO DEFINED SYMBOLS
          4     XR     2
          2   STOP     0

0 NO ERROR IN ABOVE ASSEMBLY.


  DIOI   BCD 12/14/70 1510.5    1109         00000
1                                  ERRCD=1                                                       PAGE 1

                       00011         ENTRY   DINIT         DINIT.
                       00020         ENTRY   DREAD         DREAD.(TRACK ADR,BUF,BAD ADR RET)
                       00023         ENTRY   DWRIT         AS ABOVE
                       00757         ENTRY   DWAIT         DWAIT.(ERRLOC,ERRCD)
                              *
                                     EXTERN  .DINIT,.DREAD,.DWRIT,.DWAIT,.SETER,ENABLE
                              *

        TRANSFER VECTOR
      00000  332431453163     .DINIT
      00001  332451252124     .DREAD
      00002  332466513163     .DWRIT
      00003  332466213163     .DWAIT
      00004  336225632551     .SETER
      00005  254521224325     ENABLE
      00006  232464444760     CDUMP

            LINKAGE DIRECTOR
      00007  000000000000
      00010  243145316360

      00011  0636 00 4 00016  DINIT  SCA     XRI,4         SAVE IR
      00012  0074 00 4 00000         TSX     .DINIT,4
      00013  0 00000 0 00005                 ENABLE
      00014  0074 00 4 00004         TSX     .SETER,4      SET ERR RETURN
      00015  0 00000 0 00763                 ERRPRG
      00016 -0774 00 4 00000  XRI    AXC     ,4
      00017  0020 00 4 00001         TRA     1,4
                              *
      00020 -0500 00 0 00001  DREAD  CAL     .DREAD
      00021  0600 00 0 00070         STZ     WT
      00022  0020 00 0 00025         TRA     RW
      00023 -0500 00 0 00002  DWRIT  CAL     .DWRIT
      00024 -0625 00 0 00070         STL     WT
      00025  0621 00 0 00056  RW     STA     RWA
      00026  0636 00 4 00061         SCA     XR,4
      00027 -0500 60 4 00001         CAL*    1,4           GET TRACK
      00030  0601 00 0 00065         STO     LIST
      00031  0601 00 0 00071         STO     LIST1
      00032 -0500 00 4 00002         CAL     2,4           GET ADR OF BUF
      00033  0621 00 0 00066         STA     LIST+1
      00034 -0520 00 0 00070         NZT     WT
      00035  0020 00 0 00056         TRA     RWA
      00036  0760 00 0 00166         SWT     6
      00037  0020 00 0 00041         TRA     *+2
      00040  0020 00 0 00053         TRA     ON
      00041  0074 00 4 00001         TSX     .DREAD,4
      00042  0 00000 0 00071                 LIST1
      00043  0 00000 0 00063                 BADADR
      00044  0074 00 4 00003         TSX     .DWAIT,4
      00045 -0500 00 0 00066         CAL     LIST+1
      00046  0621 00 0 00052         STA     P
      00047  0074 00 4 00006         TSX     $CDUMP,4
 TD   00050  3 00000 0 00065         TXH     LIST
 TD   00051  3 00000 0 00074         TXH     TEMPB
 TD   00052  3 00000 0 00000  P      TXH     **
1                                  ERRCD=1                                                       PAGE 2

                       00053  ON     SYN     *
      00053  0760 00 0 00163         SWT     3
      00054  0020 00 0 00056         TRA     *+2
      00055  0020 00 0 00061         TRA     XR
      00056  0074 00 4 00000  RWA    TSX     **,4
      00057  0 00000 0 00065                 LIST
      00060  0 00000 0 00063                 BADADR
      00061 -0774 00 4 00000  XR     AXC     ,4
      00062  0020 00 4 00001         TRA     1,4
                              *
      00063  0535 00 4 00061  BADADR LAC     XR,4
      00064  0020 60 4 00003         TRA*    3,4
                              *
      00065  0 00000 0 00000  LIST   PZE                   TRACK ADR
      00066  2 00663 0 00000         PTW     **,,435
      00067  0 00000 0 00000         PZE
                              *
      00070  0 00000 0 00000  WT
      00071  0 00000 0 00000  LIST1  PZE
      00072  2 00663 0 00074         PTW     TEMPB,,435
      00073  0 00000 0 00000         PZE
      00074                   TEMPB  BSS     435
                              *
      00757  0636 00 4 00761  DWAIT  SCA     XRW,4         SAVE IR
      00760  0074 00 4 00003         TSX     .DWAIT,4      WAIT
      00761 -0774 00 4 00000  XRW    AXC     ,4
      00762  0020 00 4 00001         TRA     1,4
                              *
      00763  0535 00 4 00761  ERRPRG LAC     XRW,4         IF ERROR
      00764 -0340 00 0 00771         LAS     =1            (IGNORE PARITY)
      00765  0020 00 0 00767         TRA     *+2
      00766  0020 00 4 00001         TRA     1,4
      00767  0602 60 4 00002         SLW*    2,4
      00770  0020 60 4 00001         TRA*    1,4           SET ERCODE AND TRA
                                     END

        LITERALS
      00771  000000000001
1                                  ERRCD=1                                                       PAGE 1
                        POST PROCESSOR ASSEMBLY DATA

        772 IS THE FIRST LOCATION NOT USED BY THIS PROGRAM

0REFERENCES TO DEFINED SYMBOLS
         52      P    46
         53     ON    40,   53
         25     RW    22
         70     WT    21,   24,   34
         61     XR    26,   55,   63
         56    RWA    25,   35
         16    XRI    11
        761    XRW   757,  763
         65   LIST    30,   33,   45,   50,   57
          6  CDUMP    47
         11  DINIT     0
         20  DREAD     0
        757  DWAIT     0
         23  DWRIT     0
         71  LIST1    31,   42
         74  TEMPB    51,   72
         63 BADADR    43,   60
          5 ENABLE    13
        763 ERRPRG    15
          0 .DINIT    12
          1 .DREAD    20,   41
          3 .DWAIT    44,  760
          2 .DWRIT    23
          4 .SETER    14

0 NO ERROR IN ABOVE ASSEMBLY.


  CDMP   BCD 12/14/70 1510.5    1252         00000
1     MAD PROGRAM LISTING ... ... ...                 FILE    CDMP   MAD            05/27/67    1400.8
-
                   EXTERNAL FUNCTION (T,OLD,NEW)                                                  *001 LM00001
                  ENTRY TO CDUMP.                                                                 *002 LM00002
                  MPRINT.(1,7777777777K,TRKCV.(T))                                                *003 LM00003
                  THROUGH CL, FOR I=0,1,I.E.435                                                   *004 LM00004
                  OLDW=OLD(1K5-I)                                                                 *005 LM00005
                  NEWW=NEW(1K5-I)                                                                 *006 LM00006
                  WHENEVER OLDW.NE.NEWW,MPRINT.(1,DEFBC.(I+1),SP,                                 *007 LM00007
                1  OCLBC.(OLDW),OCRBC.(OLDW),SP,                                                  *007 LM00008
                2  OCLBC.(NEWW),OCRBC.(NEWW))                                                     *007 LM00009
      CL          CONTINUE                                                                        *008 LM00010
                  FUNCTION RETURN                                                                 *009 LM00011
                  VECTOR VALUES SP=607777777777K                                                  *010 LM00012
                  NORMAL MODE IS INTEGER                                                          *011 LM00013
                  END OF FUNCTION                                                                 *012 LM00014
1MAD PROGRAM,TYPE NOV 1963      (ALL NUMBERS ARE OCTAL)
0TOTAL LOCATIONS   00144 TRANSFER VECTOR LENGTH  00006 PROGRAM BEGINS    00021
0 PROGRAM IS AN EXTERNAL FUNCTION.   THE FOLLOWING ARE ENTRIES
      CDUMP  00022   0
0VARIABLE STORAGE (A=ARRAY,C=COMMON,E=ERASABLE,DIGIT=MODE)
      CL     00006   4        I      00007   1        NEWW   00010   1        OLDW   00011   1        SP     00012 A 1
0FUNCTION DICTIONARY
      DEFBC  00000   1        EXIT   00001   1        MPRINT 00002   1        OCLBC  00003   1        OCRBC  00004   1
      TRKCV  00005   1
0ABSOLUTE CONSTANTS
 00016 +000000100000     00015 +000000000663     00013 +000000000000     00017 +007777777777     00014 +000000000001
 00020 +233000000000
0PROGRAM
                  EXTERNAL FUNCTION (T,OLD,NEW)                                     001  LM00001
                 ENTRY TO CDUMP.                                                    002  LM00002
 00021 TRA +0 02000 0 00024    00022 SXA +0 63400 2 00117    00023 TSX +0 07400 2 00117
                 MPRINT.(1,7777777777K,TRKCV.(T))                                   003  LM00003
 00024 TSX +0 07400 4 00005    00025 TXH +3 00000 0 00024    00026 STO +0 60100 0 00135    00027 TSX +0 07400 4 00002
 00030 TXH +3 00000 0 00014    00031 TXH +3 00000 0 00017    00032 TXH +3 00000 0 00135
                 T'H CL, FOR I=0,1,I.E.435                                          004  LM00004
 00033 CLA +0 50000 0 00013    00034 STO +0 60100 0 00007    00035 TRA +0 02000 0 00041    00036 CLA +0 50000 0 00007
 00037 ADD +0 40000 0 00014    00040 STO +0 60100 0 00007    00041 CLA +0 50000 0 00007    00042 SUB +0 40200 0 00015
 00043 TZE +0 10000 0 00115
                 OLDW=OLD(1K5-I)                                                    005  LM00005
 00044 CLA +0 50000 0 00016    00045 SUB +0 40200 0 00007    00046 PAX +0 73400 2 00000    00047 CLA +0 50000 2 00024
 00050 STO +0 60100 0 00011
                 NEWW=NEW(1K5-I)                                                    006  LM00006
 00051 CLA +0 50000 0 00016    00052 SUB +0 40200 0 00007    00053 PAX +0 73400 2 00000    00054 CLA +0 50000 2 00024
 00055 STO +0 60100 0 00010
                 W'R OLDW.NE.NEWW,MPRINT.(1,DEFBC.(I+1),SP,                         007  LM00007
                1 OCLBC.(OLDW),OCRBC.(OLDW),SP,                                     007  LM00008
                2 OCLBC.(NEWW),OCRBC.(NEWW))                                        007  LM00009
 00056 CLA +0 50000 0 00011    00057 SUB +0 40200 0 00010    00060 TZE +0 10000 0 00114    00061 TSX +0 07400 4 00004
 00062 TXH +3 00000 0 00010    00063 STO +0 60100 0 00135    00064 TSX +0 07400 4 00003    00065 TXH +3 00000 0 00010
 00066 STO +0 60100 0 00136    00067 TSX +0 07400 4 00004    00070 TXH +3 00000 0 00011    00071 STO +0 60100 0 00137
 00072 TSX +0 07400 4 00003    00073 TXH +3 00000 0 00011    00074 STO +0 60100 0 00140    00075 CLA +0 50000 0 00007
 00076 ADD +0 40000 0 00014    00077 STO +0 60100 0 00141    00100 TSX +0 07400 4 00000    00101 TXH +3 00000 0 00141
 00102 STO +0 60100 0 00141    00103 TSX +0 07400 4 00002    00104 TXH +3 00000 0 00014    00105 TXH +3 00000 0 00141
 00106 TXH +3 00000 0 00012    00107 TXH +3 00000 0 00140    00110 TXH +3 00000 0 00137    00111 TXH +3 00000 0 00012
 00112 TXH +3 00000 0 00136    00113 TXH +3 00000 0 00135
      CL         CONTINUE                                                           008  LM00010
 00114 TRA +0 02000 0 00036
                 FUNCTION RETURN                                                    009  LM00011
 00115 TRA +0 02000 0 00131
                 V'S SP=607777777777K                                               010  LM00012
 00012     -2 07777 7 77777
                 NORMAL MODE IS INTEGER                                             011  LM00013
                 END OF FUNCTION                                                    012  LM00014
 00116 TSX +0 07400 4 00001    00117 TXH +3 00000 0 00000    00120 SXD -0 63400 1 00117    00121 SXA +0 63400 4 00131
 00122 CLA +0 50000 4 00001    00123 STO +0 60100 0 00025    00124 CLA +0 50000 4 00002    00125 STA +0 62100 0 00047
 00126 CLA +0 50000 4 00003    00127 STA +0 62100 0 00054    00130 TRA +0 02000 2 00001    00131 AXT +0 77400 4 00000
 00132 LXA +0 53400 2 00117    00133 LXD -0 53400 1 00117    00134 TRA +0 02000 4 00001


  MPRT   BCD 12/14/70 1510.6    1400         00000
1            EXECUTE MPRINT.(MODE,A(1)...A(10),A(10)...A(1),X,B)                                 PAGE 1

                       00004         ENTRY   MPRINT
                                     EXTERN  EPRINT,WTDOUT
                              *      MODE=1 OFFLINE
                              *      MODE=2 ONLINE
                              *      MODE=3 ONLINE AND OFFLINE
                              *      57K ARE IGNORED
                              *      ALWAYS PRINTS ONLINE IF SW5 IS DOWN
                              *

        TRANSFER VECTOR
      00000  254751314563     EPRINT
      00001  666324466463     WTDOUT

            LINKAGE DIRECTOR
      00002  000000000000
      00003  444751314563

      00004  0636 00 4 00111  MPRINT SCA     XR,4          SAVE IR'S
      00005  0760 00 0 00016         LMTM
      00006  0634 00 1 00112         SXA     XR+1,1
      00007  0634 00 2 00113         SXA     XR+2,2
      00010  0634 00 3 00114         SXA     XR+3,3
      00011  0774 00 1 00000         AXT     0,1
      00012  0774 00 2 00024         AXT     20,2
      00013 -0500 00 0 00174         CAL     =O7
      00014  0602 00 0 00146         SLW     AC
      00015 -0500 60 4 00001         CAL*    1,4
      00016  0621 00 0 00145         STA     MODE
      00017  0140 00 0 00017  LOOP   TOV     *
      00020  2 10000 1 00057         TIX     P1,1,1*4096
      00021  0520 00 0 00147         ZET     UP
      00022  1 77777 3 00024         TXI     *+2,3,-1
      00023  1 00001 3 00024         TXI     *+1,3,1
      00024  2 00001 1 00055         TIX     P2,1,1
      00025  1 77777 4 00026         TXI     *+1,4,-1
      00026 -0500 00 4 00001         CAL     1,4
      00027 -0320 00 0 00202         ANA     =O700000000000
      00030  0322 00 0 00200         ERA     =O200000000000
      00031  0100 00 0 00041         TZE     TWO
      00032  0322 00 0 00177         ERA     =O100000000000
      00033  0100 00 0 00035         TZE     THR
      00034  0020 00 0 00074         TRA     OUT
      00035 -0500 00 4 00001  THR    CAL     1,4
      00036  0737 00 3 00000         PAC     ,3
      00037  0774 00 1 00001         AXT     1,1
      00040  0020 00 0 00055         TRA     P2
      00041  0560 00 4 00001  TWO    LDQ     1,4
      00042 -0773 00 0 00022         RQL     18
      00043 -0600 00 0 00144         STQ     TEMP
      00044 -0500 00 4 00001         CAL     1,4
      00045  0737 00 3 00000         PAC     ,3
      00046 -0320 00 0 00176         ANA     =O077777077777
      00047  0402 00 0 00144         SUB     TEMP
      00050 -0734 00 1 00000         PDX     ,1
      00051  1 00001 1 00052         TXI     *+1,1,1
      00052  0600 00 0 00147         STZ     UP
1            EXECUTE MPRINT.(MODE,A(1)...A(10),A(10)...A(1),X,B)                                 PAGE 2

      00053 -0120 00 0 00055         TMI     *+2
      00054 -0625 00 0 00147         STL     UP
      00055  0560 00 3 00000  P2     LDQ     0,3
      00056  1 50000 1 00057         TXI     *+1,1,5*4096
      00057 -0500 00 0 00146  P1     CAL     AC
      00060 -0763 00 0 00006         LGL     6
      00061  0044 00 0 00000         PAI
      00062  0322 00 0 00175         ERA     =O77
      00063 -0320 00 0 00175         ANA     =O77
      00064  0100 00 0 00017         TZE     LOOP
      00065  0604 00 0 00146         STI     AC
      00066 -0140 00 0 00017         TNO     LOOP
      00067  0604 00 2 00174         STI     BUF+20,2
      00070 -0500 00 0 00174         CAL     =O7
      00071  0602 00 0 00146         SLW     AC
      00072  2 00001 2 00017         TIX     LOOP,2,1
      00073  0020 00 0 00101         TRA     WT
      00074  0560 00 0 00201  OUT    LDQ     =H
      00075 -0500 00 0 00146         CAL     AC
      00076 -0763 00 0 00006         LGL     6
      00077 -0140 00 0 00076         TNO     *-1
      00100  0602 00 2 00174         SLW     BUF+20,2
      00101  1 77777 2 00102  WT     TXI     *+1,2,-1
      00102  0754 00 2 00000         PXA     ,2
      00103  0737 00 2 00000         PAC     ,2
      00104  1 00024 2 00105         TXI     *+1,2,20
      00105 -0634 00 2 00116         SXD     IOCD,2
      00106  0074 00 4 00117         TSX     OUTPUT,4
      00107  0 00000 0 00145                 MODE
      00110  0 00000 0 00116                 IOCD
      00111 -0774 00 4 00000  XR     AXC     ,4
      00112  0774 00 1 00000         AXT     ,1
      00113  0774 00 2 00000         AXT     ,2
      00114  0774 00 3 00000         AXT     ,3
      00115  0020 00 4 00001         TRA     1,4
      00116  0 00000 0 00150  IOCD   IOCD    BUF,,**
                              *
      00117  0636 00 4 00142  OUTPUT SCA     XRO,4
      00120  0441 60 4 00001         LDI*    1,4
      00121 -0500 60 4 00002         CAL*    2,4
      00122  0602 00 0 00141         SLW     PAR
      00123  0602 00 0 00135         SLW     PAR1
      00124  0054 00  000003         RFT     3
      00125  0020 00 0 00127         TRA     *+2
      00126  0055 00  000001         SIR     1
      00127  0760 00 0 00165         SWT     5
      00130  0020 00 0 00132         TRA     *+2
      00131  0055 00  000002         SIR     2
      00132  0056 00  000001         RNT     1
      00133  0020 00 0 00136         TRA     P3
      00134  0074 00 4 00001         TSX     WTDOUT,4
      00135  0 00000 0 00000  PAR1
      00136  0056 00  000002  P3     RNT     2
      00137  0020 00 0 00142         TRA     XRO
      00140  0074 00 4 00000         TSX     EPRINT,4
      00141  0 00000 0 00000  PAR
1            EXECUTE MPRINT.(MODE,A(1)...A(10),A(10)...A(1),X,B)                                 PAGE 3

      00142 -0774 00 4 00000  XRO    AXC     ,4
      00143  0020 00 4 00003         TRA     3,4
      00144  0 00000 0 00000  TEMP
      00145  0 00000 0 00000  MODE
      00146  0 00000 0 00000  AC
      00147  0 00000 0 00000  UP
      00150                   BUF    BSS     20
                                     END

        LITERALS
      00174  000000000007
      00175  000000000077
      00176  077777077777
      00177  100000000000
      00200  200000000000
      00201  606060606060
      00202  700000000000
1            EXECUTE MPRINT.(MODE,A(1)...A(10),A(10)...A(1),X,B)                                 PAGE 1
                        POST PROCESSOR ASSEMBLY DATA

        203 IS THE FIRST LOCATION NOT USED BY THIS PROGRAM

0REFERENCES TO DEFINED SYMBOLS
        146     AC    14,   57,   65,   71,   75
         57     P1    20
         55     P2    24,   40
        136     P3   133
        147     UP    21,   52,   54
        101     WT    73
        111     XR     4,    6,    7,   10
        150    BUF    67,  100,  116
         74    OUT    34
        141    PAR   122
         35    THR    33
         41    TWO    31
        142    XRO   117,  137
        116   IOCD   105,  110
         17   LOOP    64,   66,   72
        145   MODE    16,  107
        135   PAR1   123
        144   TEMP    43,   47
          0 EPRINT   140
          4 MPRINT     0
        117 OUTPUT   106
          1 WTDOUT   134

0 NO ERROR IN ABOVE ASSEMBLY.


  SETP   BCD 12/14/70 1510.6     231         00000
1                                                                                                PAGE 1

                       00002         ENTRY   .SETUP

            LINKAGE DIRECTOR
      00000  000000000000
      00001  336225636447

      00002  0636 00 4 00007  .SETUP SCA     XR,4
      00003 -0500 00 0 00011         CAL     TRA
      00004  0602 00 0 00000         SLW     0
      00005  0000 00 0 00006         HTR     *+1
      00006  0760 00 0 00016  RS     LMTM
      00007 -0774 00 4 00000  XR     AXC     ,4
      00010  0020 00 4 00001         TRA     1,4
                              *
      00011  0020 00 0 00006  TRA    TRA     RS
                                     END
1                                                                                                PAGE 1
                        POST PROCESSOR ASSEMBLY DATA

         12 IS THE FIRST LOCATION NOT USED BY THIS PROGRAM

0REFERENCES TO DEFINED SYMBOLS
          6     RS    11
          7     XR     2
         11    TRA     3
          2 .SETUP     0

0 NO ERROR IN ABOVE ASSEMBLY.


  .RST   BCD 12/14/70 1510.6     228         00000
1            FOR SINGLE SAVE RESTOR RETURN (MAD)                                                 PAGE 1

                       00002         ENTRY   .RSTRN
                       00005         ENTRY   .SAVRN

            LINKAGE DIRECTOR
      00000  000000000000
      00001  335162635145

      00002 -0500 00 0 00010  .RSTRN CAL     TEMP
      00003  0602 60 4 00001         SLW*    1,4
      00004  0020 00 4 00003         TRA     3,4
                              *
      00005 -0500 60 4 00001  .SAVRN CAL*    1,4
      00006  0602 00 0 00010         SLW     TEMP
      00007  0020 00 4 00003         TRA     3,4
      00010  0 00000 0 00000  TEMP
                                     END
1            FOR SINGLE SAVE RESTOR RETURN (MAD)                                                 PAGE 1
                        POST PROCESSOR ASSEMBLY DATA

         11 IS THE FIRST LOCATION NOT USED BY THIS PROGRAM

0REFERENCES TO DEFINED SYMBOLS
         10   TEMP     2,    6
          2 .RSTRN     0
          5 .SAVRN     0

0 NO ERROR IN ABOVE ASSEMBLY.


  LIBE   BCD 12/14/70 1510.6      46         00000
LINK TSLIB1 BSS M1416 CMFL02__
EXTBSS TSLIB1 BCDEC_____
EXTBSS TSLIB1 BZEL
EXTBSS TSLIB1 DEFBC_____
EXTBSS TSLIB1 OCABC_____
UNLINK TSLIB1 BSS_
COMBIN * LIBE BSS BCDEC BZEL DEFBC OCABC__
DELETE BCDEC BSS BZEL BSS DEFBC BSS OCABC BSS___


SALV4A   BCD 12/14/70 1520.0   91181         00000


 SALV4   BCD 12/14/70 1513.2   12521         00000
1     MAD PROGRAM LISTING ... ... ...                 FILE    SALV   MAD            11/05/70    1932.6
-
                  DINIT.                                                                          *001 LM00001
                  RSTUT.(2)                                                                       *002 LM00002
                  RDTUT.(1)                                                                       *003 LM00003
                  LOWTRK=BCDEC.(TRKCV.(LOADER))                                                   *004 LM00004
                  THROUGH PL, FOR TRACK=LOWTRK,10,TRACK.GE.LOWTRK+400                             *005 LM00005
                  THROUGH PL, FOR R=0,1,R.G.1                                                     *006 LM00006
                  TRK12=CVTRK.(DEFBC.(TRACK+R))                                                   *007 LM00007
                  USET.(1,TRK12)                                                                  *008 LM00008
                  USET.(2,TRK12)                                                                  *009 LM00009
      PL          CONTINUE                                                                        *010 LM00010
                  SRHMFD.(1,MMREL,MFD,$M.F.D.$,$(FILE)$,END)                                      *011 LM00011
                  MCH=0B                                                                          *012 LM00012
                  OPEN.(2,MFD)                                                                    *013 LM00013
                  UFD(PROBN)=MFD(ALPHA)                                                           *014 LM00014
                  UFD(PROGN)=MFD(BETA)                                                            *015 LM00015
                  MREL=NQW+1                                                                      *016 LM00016
      MLOOP       READ.(2,MREL,MERR,ERRCD,MEOF,ENT,ENTLEN)                                        *017 LM00017
                  EXPAND.(ENT,UFD)                                                                *018 LM00018
                  UCH=0B                                                                          *019 LM00019
                  WHENEVER UFD(ALPHA).E.0.AND.UFD(BETA).E.0,                                      *020 LM00020
                1   TRANSFER TO UEND                                                              *020 LM00021
                  WHENEVER UFD(BETA).E.$(FILE)$, TRANSFER TO UEND                                 *021 LM00022
                  WHENEVER CKENT.(UFD,UCH,FORC,UDEL,MREL), TRANSFER TO UDEL                       *022 LM00023
                  WHENEVER UFD(FSTRK).E.0 .AND. UFD(LSTRK).E.0, TRANSFER TO UDEL                  *023 LM00024
                  OPEN.(3,UFD)                                                                    *024 LM00025
                  FILE(PROBN)=UFD(ALPHA)                                                          *025 LM00026
                  FILE(PROGN)=UFD(BETA)                                                           *026 LM00027
                  WHENEVER KEYS.(0).RS.35.NE.1,                                                   *027 LM00028
                1  MPRINT.(2,$ WORKING ON $,UFD(ALPHA),UFD(BETA))                                 *027 LM00029
                  UREL=1                                                                          *028 LM00030
                  READ.(3,UREL,UERR,ERRCD,UDEL,QTA,NQW)                                           *029 LM00031
                  THROUGH QRL, FOR I=1,1,I.G.NQW                                                  *030 LM00032
      QRL         QTACT(I)=0                                                                      *031 LM00033
                  UREL=NQW+UREL                                                                   *032 LM00034
      ULOOP       READ.(3,UREL,UERR,ERRCD,UEOF,ENT,ENTLEN)                                        *033 LM00035
                  EXPAND.(ENT,FILE)                                                               *034 LM00036
                  FCH=0B                                                                          *035 LM00037
                  WHENEVER FILE(ALPHA).E.0 .AND. FILE(BETA).E.0, TRANSFER TO FEND                 *036 LM00038
                  WHENEVER CKENT.(FILE,FCH,FORC,FWT,UREL), TRANSFER TO FDEL                       *037 LM00039
                  WHENEVER FILE(FSTRK).E.0 .AND. FILE(LSTRK).E.0, TRANSFER TO FWT                 *038 LM00040
                  WHENEVER .NOT. SW.(2) .OR. FORC                                                 *039 LM00041
                       OPEN.(4,FILE)                                                              *040 LM00042
                       CHECKF.(4,FREL,FERR)                                                       *041 LM00043
      FEOF             CLOSE.(4,FILE,FWT,ERRCD,FCH)                                               *042 LM00044
                  END OF CONDITIONAL                                                              *043 LM00045
                  WHENEVER FILE(MODE) .A. TEMPMD.E.0 .AND.                                        *044 LM00046
                1   QTA(FILE(F)).A.77777K.NE.77777K                                               *044 LM00047
                       QTACT(FILE(F))=QTACT(FILE(F))+FILE(NORECS)                                 *045 LM00048
                  END OF CONDITIONAL                                                              *046 LM00049
                  TRANSFER TO FWT                                                                 *047 LM00050
      FDEL        FILE(ALPHA)=0                                                                   *048 LM00051
                  FILE(BETA)=0                                                                    *049 LM00052
                  FCH=1B                                                                          *050 LM00053
      FWT         WHENEVER FCH                                                                    *051 LM00054
                       COMBIN.(ENT,FILE)                                                          *052 LM00055
                       WRITE.(3,UREL,UERR,ERRCD,UEOF,ENT,ENTLEN)                                  *053 LM00056
                  END OF CONDITIONAL                                                              *054 LM00057
      FEND        UREL=UREL+ENTLEN                                                                *055 LM00058
                  WHENEVER .NOT. SW.(1), TRANSFER TO ULOOP                                        *056 LM00059
      UEOF        WHENEVER .NOT. EVSW.(1)                                                         *057 LM00060
                       QTCH=0B                                                                    *058 LM00061
                       THROUGH QTAL, FOR I=1,1,I.G.NQW                                            *059 LM00062
                       WHENEVER QTACT(I).NE.QTA(I).RS.18                                          *060 LM00063
                            QTA(I)=QTA(I).A.77777K.V.QTACT(I).LS.18                               *061 LM00064
                            QTCH=1B                                                               *062 LM00065
      QTAL             END OF CONDITIONAL                                                         *063 LM00066
                       WHENEVER QTCH, WRITE.(3,1,UERR,ERRCD,UEOF,QTA,NQW)                         *064 LM00067
                  END OF CONDITIONAL                                                              *065 LM00068
                  CLOSE.(3,UFD,UWT,ERRCD,UCH)                                                     *066 LM00069
                  WHENEVER UFD(NORECS).NE.0, TRANSFER TO UWT                                      *067 LM00070
      UDEL        UFD(ALPHA)=0                                                                    *068 LM00071
                  UFD(BETA)=0                                                                     *069 LM00072
                  UCH=1B                                                                          *070 LM00073
      UWT         WHENEVER UCH                                                                    *071 LM00074
                       COMBIN.(ENT,UFD)                                                           *072 LM00075
                       WRITE.(2,MREL,MERR,ERRCD,MEOF,ENT,ENTLEN)                                  *073 LM00076
                  END OF CONDITIONAL                                                              *074 LM00077
      UEND        MREL=MREL+ENTLEN                                                                *075 LM00078
                  WHENEVER .NOT. EVSW.(1), TRANSFER TO MLOOP                                      *076 LM00079
      MEOF        CLOSE.(2,MFD,MWT,ERRCD,MCH)                                                     *077 LM00080
      MWT         WHENEVER MCH                                                                    *078 LM00081
                       COMBIN.(ENT,MFD)                                                           *079 LM00082
                       SRHMFD.(1,MMREL,MFD,$M.F.D.$,$(FILE)$,END)                                 *080 LM00083
                       WRITE.(1,MMREL,MERR,ERRCD,MEOF,ENT,ENTLEN)                                 *081 LM00084
                       CLOSE.(1,MFD,FIN,ERRCD,MCH)                                                *082 LM00085
                  END OF CONDITIONAL                                                              *083 LM00086
      FIN         WHENEVER EVSW.(2) .OR. EVSW.(1)                                                 *084 LM00087
                       ORTUT.(1,2)                                                                *085 LM00088
                  END OF CONDITIONAL                                                              *086 LM00089
                  WTTUT.(2)                                                                       *087 LM00090
                  PSTAT.                                                                          *088 LM00091
                  MPRINT.(3,$ ALL DONE$)                                                          *089 LM00092
                  THROUGH PRL, FOR I=1,1,I.G.5                                                    *090 LM00093
      PRL         MPRINT.(2,AST...AST(5),AST...AST(5))                                            *091 LM00094
                  VECTOR VALUES AST=$************************************$                        *092 LM00095
      END         EXIT.                                                                           *093 LM00096
                                                                                                       LM00097
      MERR        PTETER.(UFD,DIRTRN,MREL-ENTLEN)                                                 *094 LM00098
                  TRUNC.(2,MREL,MEOF,ERRCD,MEOF)                                                  *095 LM00099
                  TRANSFER TO MEOF                                                                *096 LM00100
                                                                                                       LM00101
      UERR        PTETER.(FILE,DIRTRN,UREL-ENTLEN)                                                *097 LM00102
                  TRUNC.(3,UREL,UTERR,ERRCD,UTERR)                                                *098 LM00103
                  TRANSFER TO UEOF                                                                *099 LM00104
      UTERR       UFD(NORECS)=0                                                                   *100 LM00105
                  UFD(LCOUNT)=0                                                                   *101 LM00106
                  UFD(FSTRK)=0                                                                    *102 LM00107
                  UFD(LSTRK)=0                                                                    *103 LM00108
                  UCH=1B                                                                          *104 LM00109
                  TRANSFER TO UEOF                                                                *105 LM00110
                                                                                                       LM00111
      FERR        FREL=1                                                                          *106 LM00112
      FERRL       READ.(4,FREL,FERR1,ERRCD,FEOF,ERRCD,0)                                          *107 LM00113
                  FREL=FREL+NWPT                                                                  *108 LM00114
                  TRANSFER TO FERRL                                                               *109 LM00115
      FERR1       PTETER.(FILE,DTATRN,FREL)                                                       *110 LM00116
                  TRUNC.(4,FREL,FTERR,ERRCD,FTERR)                                                *111 LM00117
                  TRANSFER TO FEOF                                                                *112 LM00118
      FTERR       FILE(NORECS)=0                                                                  *113 LM00119
                  FILE(LCOUNT)=0                                                                  *114 LM00120
                  FILE(FSTRK)=0                                                                   *115 LM00121
                  FILE(LSTRK)=0                                                                   *116 LM00122
                  FCH=1B                                                                          *117 LM00123
                  TRANSFER TO FEOF                                                                *118 LM00124
                                                                                                       LM00125
                  DIMENSION MFD(20),UFD(20),FILE(20),ENT(10),QTA(5),QTACT(5)                      *119 LM00126
                  NORMAL MODE IS INTEGER                                                          *120 LM00127
                  BOOLEAN CKDATE,MCH,UCH,FCH,FORC,CKENT,SW,EVSW,QTCH                              *121 LM00128
                  INSERT FILE SALEQU                                                              *122 LM00129
                   SALEQU                                                                         *122 LM00001
                  VECTOR VALUES MFDORG=101212121212K                                              *123 LM00002
                  VECTOR VALUES LOADER=001212121212K                                              *124 LM00003
                  VECTOR VALUES ENTLEN=7                                                          *125 LM00004
                  VECTOR VALUES ENTRYL=20                                                         *126 LM00005
                  VECTOR VALUES NWPT=432                                                          *127 LM00006
                  VECTOR VALUES LDKM=0                                                            *128 LM00007
                  VECTOR VALUES HDKM=7                                                            *129 LM00008
                  VECTOR VALUES LDMM=8                                                            *130 LM00009
                  VECTOR VALUES HDMM=8                                                            *131 LM00010
                  VECTOR VALUES NDKT=10000                                                        *132 LM00011
                  VECTOR VALUES NDMT=400                                                          *133 LM00012
                  VECTOR VALUES NQW=3                                                             *134 LM00013
                  VECTOR VALUES PROBN=1                                                           *135 LM00014
                  VECTOR VALUES PROGN=2                                                           *136 LM00015
                  VECTOR VALUES ALPHA=3                                                           *137 LM00016
                  VECTOR VALUES BETA=4                                                            *138 LM00017
                  VECTOR VALUES DAYTIM=5                                                          *139 LM00018
                  VECTOR VALUES TIME=6                                                            *140 LM00019
                  VECTOR VALUES DATELU=7                                                          *141 LM00020
                  VECTOR VALUES AUTHOR=8                                                          *142 LM00021
                  VECTOR VALUES MODE=9                                                            *143 LM00022
                  VECTOR VALUES ILOCK=10                                                          *144 LM00023
                  VECTOR VALUES F=11                                                              *145 LM00024
                  VECTOR VALUES RCOUNT=12                                                         *146 LM00025
                  VECTOR VALUES S=13                                                              *147 LM00026
                  VECTOR VALUES W=14                                                              *148 LM00027
                  VECTOR VALUES R=15                                                              *149 LM00028
                  VECTOR VALUES NORECS=16                                                         *150 LM00029
                  VECTOR VALUES P=17                                                              *151 LM00030
                  VECTOR VALUES LCOUNT=18                                                         *152 LM00031
                  VECTOR VALUES LSTRK=19                                                          *153 LM00032
                  VECTOR VALUES FSTRK=20                                                          *154 LM00033
                  VECTOR VALUES TEMPMD=1K                                                         *155 LM00034
                  VECTOR VALUES PARTER=1K                                                         *156 LM00035
                  VECTOR VALUES DISKER=2K                                                         *157 LM00036
                  VECTOR VALUES BADBP=4K                                                          *158 LM00037
                  VECTOR VALUES BADTR=1K1                                                         *159 LM00038
                  VECTOR VALUES BADFP=2K1                                                         *160 LM00039
                  VECTOR VALUES BADTN=4K1                                                         *161 LM00040
                  VECTOR VALUES UNPTRK=1K2                                                        *162 LM00041
                  VECTOR VALUES RUSTRK=2K2                                                        *163 LM00042
                  VECTOR VALUES DIRTRN=4K2                                                        *164 LM00043
                  VECTOR VALUES DTATRN=1K3                                                        *165 LM00044
                  VECTOR VALUES NZITEM=2K3                                                        *166 LM00045
                  VECTOR VALUES BADF=4K3                                                          *167 LM00046
                  VECTOR VALUES BADLTK=1K4                                                        *168 LM00047
                  VECTOR VALUES FATAL=2K4                                                         *169 LM00048
                  VECTOR VALUES FORCE=4K4                                                         *170 LM00049
                  VECTOR VALUES BADATE=1K5                                                        *171 LM00050
                  VECTOR VALUES BADLCT=2K5                                                        *172 LM00051
                  VECTOR VALUES BADRCT=4K5                                                        *173 LM00052
                  VECTOR VALUES BADTC=1K6                                                         *174 LM00053
                  VECTOR VALUES BADP=2K6                                                          *175 LM00054
                  VECTOR VALUES BKCOR=4K6                                                         *176 LM00055
                  VECTOR VALUES BKBAD=1K7                                                         *177 LM00056
                                                                                                       LM00057
                  END OF PROGRAM                                                                  *178 LM00130
1MAD PROGRAM,TYPE NOV 1963      (ALL NUMBERS ARE OCTAL)
0TOTAL LOCATIONS   01370 TRANSFER VECTOR LENGTH  00034 PROGRAM BEGINS    00345
0VARIABLE STORAGE (A=ARRAY,C=COMMON,E=ERASABLE,DIGIT=MODE)
      ALPHA  00062 A 1        DTATRN 00114 A 1        FSTRK  00166 A 1        MODE   00231 A 1        RCOUNT 00262 A 1
      AST    00070 A 1        END    00035   4        FTERR  00045   4        MREL   00232   1        R      00263 A 1
      AUTHOR 00071 A 1        ENTLEN 00115 A 1        FWT    00046   4        MWT    00052   4        RUSTRK 00264 A 1
      BADATE 00072 A 1        ENTRYL 00116 A 1        HDKM   00167 A 1        NDKT   00233 A 1        S      00265 A 1
      BADBP  00073 A 1        ENT    00131 A 1        HDMM   00170 A 1        NDMT   00234 A 1        TEMPMD 00266 A 1
      BADFP  00074 A 1        ERRCD  00132   1        ILOCK  00171 A 1        NORECS 00235 A 1        TIME   00267 A 1
      BADF   00075 A 1        FATAL  00133 A 1        I      00172   1        NQW    00236 A 1        TRACK  00270   1
      BADLCT 00076 A 1        FCH    00134   2        LCOUNT 00173 A 1        NWPT   00237 A 1        TRK12  00271   1
      BADLTK 00077 A 1        FDEL   00036   4        LDKM   00174 A 1        NZITEM 00240 A 1        UCH    00272   2
      BADP   00100 A 1        FEND   00037   4        LDMM   00175 A 1        PARTER 00241 A 1        UDEL   00053   4
      BADRCT 00101 A 1        FEOF   00040   4        LOADER 00176 A 1        PL     00034   4        UEND   00054   4
      BADTC  00102 A 1        FERR1  00041   4        LOWTRK 00177   1        PRL    00034   4        UEOF   00055   4
      BADTN  00103 A 1        FERRL  00042   4        LSTRK  00200 A 1        PROBN  00242 A 1        UERR   00056   4
      BADTR  00104 A 1        FERR   00043   4        MCH    00201   2        PROGN  00243 A 1        UFD    00317 A 1
      BETA   00105 A 1        FILE   00161 A 1        MEOF   00047   4        P      00244 A 1        ULOOP  00057   4
      BKBAD  00106 A 1        FIN    00044   4        MERR   00050   4        QRL    00034   4        UNPTRK 00320 A 1
      BKCOR  00107 A 1        FORCE  00162 A 1        MFDORG 00202 A 1        QTACT  00252 A 1        UREL   00321   1
      DATELU 00110 A 1        FORC   00163   2        MFD    00227 A 1        QTAL   00034   4        UTERR  00060   4
      DAYTIM 00111 A 1        FREL   00164   1        MLOOP  00051   4        QTA    00260 A 1        UWT    00061   4
      DIRTRN 00112 A 1        F      00165 A 1        MMREL  00230   1        QTCH   00261   2        W      00322 A 1
      DISKER 00113 A 1
0FUNCTION DICTIONARY
      BCDEC  00000   1        CHECKF 00001   1        CKENT  00002   2        CLOSE  00003   1        COMBIN 00004   1
      CVTRK  00005   1        DEFBC  00006   1        DINIT  00007   1        EVSW   00010   2        EXIT   00011   1
      EXPAND 00012   1        .SETUP 00013   1        KEYS   00014   1        MPRINT 00015   1        OPEN   00016   1
      ORTUT  00017   1        PSTAT  00020   1        PTETER 00021   1        RDTUT  00022   1        READ   00023   1
      RSTUT  00024   1        SRHMFD 00025   1        SW     00026   2        TRKCV  00027   1        TRUNC  00030   1
      USET   00031   1        WRITE  00032   1        WTTUT  00033   1
0ABSOLUTE CONSTANTS
 00330 +000000000005     00341 -064525606060     00342 -202143436024     00332 +000000000022     00335 +000000077777
 00327 +000000000004     00340 -052760464560     00343 -206646514231     00333 +000000000043     00326 +000000000003
 00344 -342631432534     00337 -043326332433     00323 +000000000000     00334 +000000000620     00331 +000000000012
 00325 +000000000002     00324 +000000000001     00336 +233000000000
0STATEMENT DICTIONARY
 00035 TXL -301241001240       00036 TXL -300763000760       00037 TXL -301010001005       00040 TXL -300723000715
 00041 TXL -301336001332       00042 TXL -301326001316       00043 TXL -301316001314       00044 TXL -301207001201
 00045 TXL -301350001345       00046 TXL -300772000770       00047 TXL -301147001141       00050 TXL -301250001241
 00051 TXL -300467000457       00052 TXL -301151001147       00053 TXL -301110001105       00054 TXL -301135001132
 00055 TXL -301017001014       00056 TXL -301266001257       00057 TXL -300642000632       00060 TXL -301300001275
 00061 TXL -301117001115
0PROGRAM
                 DINIT.                                                             001  LM00001
 00345 TSX +0 07400 4 00013    00346 TSX +0 07400 4 00007
                 RSTUT.(2)                                                          002  LM00002
 00347 TSX +0 07400 4 00024    00350 TXH +3 00000 0 00325
                 RDTUT.(1)                                                          003  LM00003
 00351 TSX +0 07400 4 00022    00352 TXH +3 00000 0 00324
                 LOWTRK=BCDEC.(TRKCV.(LOADER))                                      004  LM00004
 00353 TSX +0 07400 4 00027    00354 TXH +3 00000 0 00176    00355 STO +0 60100 0 01365    00356 TSX +0 07400 4 00000
 00357 TXH +3 00000 0 01365    00360 STO +0 60100 0 00177
                 T'H PL, FOR TRACK=LOWTRK,10,TRACK.GE.LOWTRK+400                    005  LM00005
 00361 CLA +0 50000 0 00177    00362 STO +0 60100 0 00270    00363 TRA +0 02000 0 00367    00364 CLA +0 50000 0 00270
 00365 ADD +0 40000 0 00331    00366 STO +0 60100 0 00270    00367 CLA +0 50000 0 00177    00370 ADD +0 40000 0 00334
 00371 CHS +0 76000 0 00002    00372 ADD +0 40000 0 00270    00373 TZE +0 10000 0 00430    00374 TPL +0 12000 0 00430
                 T'H PL, FOR R=0,1,R.G.1                                            006  LM00006
 00375 CLA +0 50000 0 00323    00376 STO +0 60100 0 00263    00377 TRA +0 02000 0 00403    00400 CLA +0 50000 0 00263
 00401 ADD +0 40000 0 00324    00402 STO +0 60100 0 00263    00403 CLA +0 50000 0 00263    00404 SUB +0 40200 0 00324
 00405 TZE +0 10000 0 00407    00406 TPL +0 12000 0 00427
                 TRK12=CVTRK.(DEFBC.(TRACK+R))                                      007  LM00007
 00407 CLA +0 50000 0 00270    00410 ADD +0 40000 0 00263    00411 STO +0 60100 0 01365    00412 TSX +0 07400 4 00006
 00413 TXH +3 00000 0 01365    00414 STO +0 60100 0 01365    00415 TSX +0 07400 4 00005    00416 TXH +3 00000 0 01365
 00417 STO +0 60100 0 00271
                 USET.(1,TRK12)                                                     008  LM00008
 00420 TSX +0 07400 4 00031    00421 TXH +3 00000 0 00324    00422 TXH +3 00000 0 00271
                 USET.(2,TRK12)                                                     009  LM00009
 00423 TSX +0 07400 4 00031    00424 TXH +3 00000 0 00325    00425 TXH +3 00000 0 00271
      PL         CONTINUE                                                           010  LM00010
 00426 TRA +0 02000 0 00400    00427 TRA +0 02000 0 00364
                 SRHMFD.(1,MMREL,MFD,$M.F.D.$,$(FILE)$,END)                         011  LM00011
 00430 TSX +0 07400 4 00025    00431 TXH +3 00000 0 00324    00432 TXH +3 00000 0 00230    00433 TXH +3 00000 0 00227
 00434 TXH +3 00000 0 00337    00435 TXH +3 00000 0 00344    00436 TXH +3 00000 0 00035
                 MCH=0B                                                             012  LM00012
 00437 CLA +0 50000 0 00323    00440 STO +0 60100 0 00201
                 OPEN.(2,MFD)                                                       013  LM00013
 00441 TSX +0 07400 4 00016    00442 TXH +3 00000 0 00325    00443 TXH +3 00000 0 00227
                 UFD(PROBN)=MFD(ALPHA)                                              014  LM00014
 00444 LXA +0 53400 1 00242    00445 LXA +0 53400 2 00062    00446 CLA +0 50000 2 00227    00447 STO +0 60100 1 00317
                 UFD(PROGN)=MFD(BETA)                                               015  LM00015
 00450 LXA +0 53400 1 00243    00451 LXA +0 53400 2 00105    00452 CLA +0 50000 2 00227    00453 STO +0 60100 1 00317
                 MREL=NQW+1                                                         016  LM00016
 00454 CLA +0 50000 0 00236    00455 ADD +0 40000 0 00324    00456 STO +0 60100 0 00232
      MLOOP      READ.(2,MREL,MERR,ERRCD,MEOF,ENT,ENTLEN)                           017  LM00017
 00457 TSX +0 07400 4 00023    00460 TXH +3 00000 0 00325    00461 TXH +3 00000 0 00232    00462 TXH +3 00000 0 00050
 00463 TXH +3 00000 0 00132    00464 TXH +3 00000 0 00047    00465 TXH +3 00000 0 00131    00466 TXH +3 00000 0 00115
                 EXPAND.(ENT,UFD)                                                   018  LM00018
 00467 TSX +0 07400 4 00012    00470 TXH +3 00000 0 00131    00471 TXH +3 00000 0 00317
                 UCH=0B                                                             019  LM00019
 00472 CLA +0 50000 0 00323    00473 STO +0 60100 0 00272
                 W'R UFD(ALPHA).E.0.AND.UFD(BETA).E.0,                              020  LM00020
                1  T'O UEND                                                         020  LM00021
 00474 LXA +0 53400 1 00105    00475 CLA +0 50000 1 00317    00476 SUB +0 40200 0 00323    00477 TNZ -0 10000 0 00505
 00500 LXA +0 53400 1 00062    00501 CLA +0 50000 1 00317    00502 SUB +0 40200 0 00323    00503 TNZ -0 10000 0 00505
 00504 TRA +0 02000 0 00054
                 W'R UFD(BETA).E.$(FILE)$, T'O UEND                                 021  LM00022
 00505 LXA +0 53400 1 00105    00506 CLA +0 50000 1 00317    00507 SUB +0 40200 0 00344    00510 TNZ -0 10000 0 00512
 00511 TRA +0 02000 0 00054
                 W'R CKENT.(UFD,UCH,FORC,UDEL,MREL), T'O UDEL                       022  LM00023
 00512 TSX +0 07400 4 00002    00513 TXH +3 00000 0 00317    00514 TXH +3 00000 0 00272    00515 TXH +3 00000 0 00163
 00516 TXH +3 00000 0 00053    00517 TXH +3 00000 0 00232    00520 TZE +0 10000 0 00522    00521 TRA +0 02000 0 00053
                 W'R UFD(FSTRK).E.0 .AND. UFD(LSTRK).E.0, T'O UDEL                  023  LM00024
 00522 LXA +0 53400 1 00200    00523 CLA +0 50000 1 00317    00524 SUB +0 40200 0 00323    00525 TNZ -0 10000 0 00533
 00526 LXA +0 53400 1 00166    00527 CLA +0 50000 1 00317    00530 SUB +0 40200 0 00323    00531 TNZ -0 10000 0 00533
 00532 TRA +0 02000 0 00053
                 OPEN.(3,UFD)                                                       024  LM00025
 00533 TSX +0 07400 4 00016    00534 TXH +3 00000 0 00326    00535 TXH +3 00000 0 00317
                 FILE(PROBN)=UFD(ALPHA)                                             025  LM00026
 00536 LXA +0 53400 1 00242    00537 LXA +0 53400 2 00062    00540 CLA +0 50000 2 00317    00541 STO +0 60100 1 00161
                 FILE(PROGN)=UFD(BETA)                                              026  LM00027
 00542 LXA +0 53400 1 00243    00543 LXA +0 53400 2 00105    00544 CLA +0 50000 2 00317    00545 STO +0 60100 1 00161
                 W'R KEYS.(0).RS.35.NE.1,                                           027  LM00028
                1 MPRINT.(2,$ WORKING ON $,UFD(ALPHA),UFD(BETA))                    027  LM00029
 00546 TSX +0 07400 4 00014    00547 TXH +3 00000 0 00323    00550 STO +0 60100 0 01365    00551 CAL -0 50000 0 00333
 00552 STA +0 62100 0 00554    00553 CAL -0 50000 0 01365    00554 LGR -0 76500 0 00000    00555 SLW +0 60200 0 01365
 00556 CLA +0 50000 0 01365    00557 SUB +0 40200 0 00324    00560 TZE +0 10000 0 00577    00561 CLA +0 50000 0 00105
 00562 SUB +0 40200 0 00563    00563 TXH +3 00000 0 00317    00564 STA +0 62100 0 00576    00565 CLA +0 50000 0 00062
 00566 SUB +0 40200 0 00567    00567 TXH +3 00000 0 00317    00570 STA +0 62100 0 00575    00571 TSX +0 07400 4 00015
 00572 TXH +3 00000 0 00325    00573 TXH +3 00000 0 00343    00574 TXH +3 00000 0 00340    00575 TXH +3 00000 0 00000
 00576 TXH +3 00000 0 00000
                 UREL=1                                                             028  LM00030
 00577 CLA +0 50000 0 00324    00600 STO +0 60100 0 00321
                 READ.(3,UREL,UERR,ERRCD,UDEL,QTA,NQW)                              029  LM00031
 00601 TSX +0 07400 4 00023    00602 TXH +3 00000 0 00326    00603 TXH +3 00000 0 00321    00604 TXH +3 00000 0 00056
 00605 TXH +3 00000 0 00132    00606 TXH +3 00000 0 00053    00607 TXH +3 00000 0 00260    00610 TXH +3 00000 0 00236
                 T'H QRL, FOR I=1,1,I.G.NQW                                         030  LM00032
 00611 CLA +0 50000 0 00324    00612 STO +0 60100 0 00172    00613 TRA +0 02000 0 00617    00614 CLA +0 50000 0 00172
 00615 ADD +0 40000 0 00324    00616 STO +0 60100 0 00172    00617 CLA +0 50000 0 00172    00620 SUB +0 40200 0 00236
 00621 TZE +0 10000 0 00623    00622 TPL +0 12000 0 00627
      QRL        QTACT(I)=0                                                         031  LM00033
 00623 LXA +0 53400 1 00172    00624 CLA +0 50000 0 00323    00625 STO +0 60100 1 00252    00626 TRA +0 02000 0 00614
                 UREL=NQW+UREL                                                      032  LM00034
 00627 CLA +0 50000 0 00236    00630 ADD +0 40000 0 00321    00631 STO +0 60100 0 00321
      ULOOP      READ.(3,UREL,UERR,ERRCD,UEOF,ENT,ENTLEN)                           033  LM00035
 00632 TSX +0 07400 4 00023    00633 TXH +3 00000 0 00326    00634 TXH +3 00000 0 00321    00635 TXH +3 00000 0 00056
 00636 TXH +3 00000 0 00132    00637 TXH +3 00000 0 00055    00640 TXH +3 00000 0 00131    00641 TXH +3 00000 0 00115
                 EXPAND.(ENT,FILE)                                                  034  LM00036
 00642 TSX +0 07400 4 00012    00643 TXH +3 00000 0 00131    00644 TXH +3 00000 0 00161
                 FCH=0B                                                             035  LM00037
 00645 CLA +0 50000 0 00323    00646 STO +0 60100 0 00134
                 W'R FILE(ALPHA).E.0 .AND. FILE(BETA).E.0, T'O FEND                 036  LM00038
 00647 LXA +0 53400 1 00105    00650 CLA +0 50000 1 00161    00651 SUB +0 40200 0 00323    00652 TNZ -0 10000 0 00660
 00653 LXA +0 53400 1 00062    00654 CLA +0 50000 1 00161    00655 SUB +0 40200 0 00323    00656 TNZ -0 10000 0 00660
 00657 TRA +0 02000 0 00037
                 W'R CKENT.(FILE,FCH,FORC,FWT,UREL), T'O FDEL                       037  LM00039
 00660 TSX +0 07400 4 00002    00661 TXH +3 00000 0 00161    00662 TXH +3 00000 0 00134    00663 TXH +3 00000 0 00163
 00664 TXH +3 00000 0 00046    00665 TXH +3 00000 0 00321    00666 TZE +0 10000 0 00670    00667 TRA +0 02000 0 00036
                 W'R FILE(FSTRK).E.0 .AND. FILE(LSTRK).E.0, T'O FWT                 038  LM00040
 00670 LXA +0 53400 1 00200    00671 CLA +0 50000 1 00161    00672 SUB +0 40200 0 00323    00673 TNZ -0 10000 0 00701
 00674 LXA +0 53400 1 00166    00675 CLA +0 50000 1 00161    00676 SUB +0 40200 0 00323    00677 TNZ -0 10000 0 00701
 00700 TRA +0 02000 0 00046
                 W'R .NOT. SW.(2) .OR. FORC                                         039  LM00041
 00701 ZET +0 52000 0 00163    00702 TRA +0 02000 0 00706    00703 TSX +0 07400 4 00026    00704 TXH +3 00000 0 00325
 00705 TNZ -0 10000 0 00723
                      OPEN.(4,FILE)                                                 040  LM00042
 00706 TSX +0 07400 4 00016    00707 TXH +3 00000 0 00327    00710 TXH +3 00000 0 00161
                      CHECKF.(4,FREL,FERR)                                          041  LM00043
 00711 TSX +0 07400 4 00001    00712 TXH +3 00000 0 00327    00713 TXH +3 00000 0 00164    00714 TXH +3 00000 0 00043
      FEOF            CLOSE.(4,FILE,FWT,ERRCD,FCH)                                  042  LM00044
 00715 TSX +0 07400 4 00003    00716 TXH +3 00000 0 00327    00717 TXH +3 00000 0 00161    00720 TXH +3 00000 0 00046
 00721 TXH +3 00000 0 00132    00722 TXH +3 00000 0 00134
                 E'L                                                                043  LM00045
                 W'R FILE(MODE) .A. TEMPMD.E.0 .AND.                                044  LM00046
                1  QTA(FILE(F)).A.77777K.NE.77777K                                  044  LM00047
 00723 LXA +0 53400 1 00165    00724 CLA +0 50000 1 00161    00725 PAX +0 73400 1 00000    00726 CAL -0 50000 1 00260
 00727 ANA -0 32000 0 00335    00730 SLW +0 60200 0 01365    00731 CLA +0 50000 0 01365    00732 SUB +0 40200 0 00335
 00733 TZE +0 10000 0 00757    00734 LXA +0 53400 1 00231    00735 CAL -0 50000 1 00161    00736 ANA -0 32000 0 00266
 00737 SLW +0 60200 0 01365    00740 CLA +0 50000 0 01365    00741 SUB +0 40200 0 00323    00742 TNZ -0 10000 0 00757
                      QTACT(FILE(F))=QTACT(FILE(F))+FILE(NORECS)                    045  LM00048
 00743 LXA +0 53400 1 00165    00744 CLA +0 50000 1 00161    00745 PAX +0 73400 1 00000    00746 LXA +0 53400 2 00235
 00747 CLA +0 50000 1 00252    00750 ADD +0 40000 2 00161    00751 STO +0 60100 0 01365    00752 LXA +0 53400 1 00165
 00753 CLA +0 50000 1 00161    00754 PAX +0 73400 1 00000    00755 CLA +0 50000 0 01365    00756 STO +0 60100 1 00252
                 E'L                                                                046  LM00049
                 T'O FWT                                                            047  LM00050
 00757 TRA +0 02000 0 00046
      FDEL       FILE(ALPHA)=0                                                      048  LM00051
 00760 LXA +0 53400 1 00062    00761 CLA +0 50000 0 00323    00762 STO +0 60100 1 00161
                 FILE(BETA)=0                                                       049  LM00052
 00763 LXA +0 53400 1 00105    00764 CLA +0 50000 0 00323    00765 STO +0 60100 1 00161
                 FCH=1B                                                             050  LM00053
 00766 CLA +0 50000 0 00324    00767 STO +0 60100 0 00134
      FWT        W'R FCH                                                            051  LM00054
 00770 NZT -0 52000 0 00134    00771 TRA +0 02000 0 01005
                      COMBIN.(ENT,FILE)                                             052  LM00055
 00772 TSX +0 07400 4 00004    00773 TXH +3 00000 0 00131    00774 TXH +3 00000 0 00161
                      WRITE.(3,UREL,UERR,ERRCD,UEOF,ENT,ENTLEN)                     053  LM00056
 00775 TSX +0 07400 4 00032    00776 TXH +3 00000 0 00326    00777 TXH +3 00000 0 00321    01000 TXH +3 00000 0 00056
 01001 TXH +3 00000 0 00132    01002 TXH +3 00000 0 00055    01003 TXH +3 00000 0 00131    01004 TXH +3 00000 0 00115
                 E'L                                                                054  LM00057
      FEND       UREL=UREL+ENTLEN                                                   055  LM00058
 01005 CLA +0 50000 0 00321    01006 ADD +0 40000 0 00115    01007 STO +0 60100 0 00321
                 W'R .NOT. SW.(1), T'O ULOOP                                        056  LM00059
 01010 TSX +0 07400 4 00026    01011 TXH +3 00000 0 00324    01012 TNZ -0 10000 0 01014    01013 TRA +0 02000 0 00057
      UEOF       W'R .NOT. EVSW.(1)                                                 057  LM00060
 01014 TSX +0 07400 4 00010    01015 TXH +3 00000 0 00324    01016 TNZ -0 10000 0 01072
                      QTCH=0B                                                       058  LM00061
 01017 CLA +0 50000 0 00323    01020 STO +0 60100 0 00261
                      T'H QTAL, FOR I=1,1,I.G.NQW                                   059  LM00062
 01021 CLA +0 50000 0 00324    01022 STO +0 60100 0 00172    01023 TRA +0 02000 0 01027    01024 CLA +0 50000 0 00172
 01025 ADD +0 40000 0 00324    01026 STO +0 60100 0 00172    01027 CLA +0 50000 0 00172    01030 SUB +0 40200 0 00236
 01031 TZE +0 10000 0 01033    01032 TPL +0 12000 0 01060
                      W'R QTACT(I).NE.QTA(I).RS.18                                  060  LM00063
 01033 LXA +0 53400 1 00172    01034 CAL -0 50000 0 00332    01035 STA +0 62100 0 01037    01036 CAL -0 50000 1 00260
 01037 LGR -0 76500 0 00000    01040 SLW +0 60200 0 01365    01041 CLA +0 50000 1 00252    01042 SUB +0 40200 0 01365
 01043 TZE +0 10000 0 01057
                           QTA(I)=QTA(I).A.77777K.V.QTACT(I).LS.18                  061  LM00064
 01044 CAL -0 50000 0 00332    01045 STA +0 62100 0 01047    01046 CAL -0 50000 1 00252    01047 ALS +0 76700 0 00000
 01050 SLW +0 60200 0 01365    01051 CAL -0 50000 1 00260    01052 ANA -0 32000 0 00335    01053 ORA -0 50100 0 01365
 01054 SLW +0 60200 1 00260
                           QTCH=1B                                                  062  LM00065
 01055 CLA +0 50000 0 00324    01056 STO +0 60100 0 00261
      QTAL            E'L                                                           063  LM00066
 01057 TRA +0 02000 0 01024
                      W'R QTCH, WRITE.(3,1,UERR,ERRCD,UEOF,QTA,NQW)                 064  LM00067
 01060 NZT -0 52000 0 00261    01061 TRA +0 02000 0 01072    01062 TSX +0 07400 4 00032    01063 TXH +3 00000 0 00326
 01064 TXH +3 00000 0 00324    01065 TXH +3 00000 0 00056    01066 TXH +3 00000 0 00132    01067 TXH +3 00000 0 00055
 01070 TXH +3 00000 0 00260    01071 TXH +3 00000 0 00236
                 E'L                                                                065  LM00068
                 CLOSE.(3,UFD,UWT,ERRCD,UCH)                                        066  LM00069
 01072 TSX +0 07400 4 00003    01073 TXH +3 00000 0 00326    01074 TXH +3 00000 0 00317    01075 TXH +3 00000 0 00061
 01076 TXH +3 00000 0 00132    01077 TXH +3 00000 0 00272
                 W'R UFD(NORECS).NE.0, T'O UWT                                      067  LM00070
 01100 LXA +0 53400 1 00235    01101 CLA +0 50000 1 00317    01102 SUB +0 40200 0 00323    01103 TZE +0 10000 0 01105
 01104 TRA +0 02000 0 00061
      UDEL       UFD(ALPHA)=0                                                       068  LM00071
 01105 LXA +0 53400 1 00062    01106 CLA +0 50000 0 00323    01107 STO +0 60100 1 00317
                 UFD(BETA)=0                                                        069  LM00072
 01110 LXA +0 53400 1 00105    01111 CLA +0 50000 0 00323    01112 STO +0 60100 1 00317
                 UCH=1B                                                             070  LM00073
 01113 CLA +0 50000 0 00324    01114 STO +0 60100 0 00272
      UWT        W'R UCH                                                            071  LM00074
 01115 NZT -0 52000 0 00272    01116 TRA +0 02000 0 01132
                      COMBIN.(ENT,UFD)                                              072  LM00075
 01117 TSX +0 07400 4 00004    01120 TXH +3 00000 0 00131    01121 TXH +3 00000 0 00317
                      WRITE.(2,MREL,MERR,ERRCD,MEOF,ENT,ENTLEN)                     073  LM00076
 01122 TSX +0 07400 4 00032    01123 TXH +3 00000 0 00325    01124 TXH +3 00000 0 00232    01125 TXH +3 00000 0 00050
 01126 TXH +3 00000 0 00132    01127 TXH +3 00000 0 00047    01130 TXH +3 00000 0 00131    01131 TXH +3 00000 0 00115
                 E'L                                                                074  LM00077
      UEND       MREL=MREL+ENTLEN                                                   075  LM00078
 01132 CLA +0 50000 0 00232    01133 ADD +0 40000 0 00115    01134 STO +0 60100 0 00232
                 W'R .NOT. EVSW.(1), T'O MLOOP                                      076  LM00079
 01135 TSX +0 07400 4 00010    01136 TXH +3 00000 0 00324    01137 TNZ -0 10000 0 01141    01140 TRA +0 02000 0 00051
      MEOF       CLOSE.(2,MFD,MWT,ERRCD,MCH)                                        077  LM00080
 01141 TSX +0 07400 4 00003    01142 TXH +3 00000 0 00325    01143 TXH +3 00000 0 00227    01144 TXH +3 00000 0 00052
 01145 TXH +3 00000 0 00132    01146 TXH +3 00000 0 00201
      MWT        W'R MCH                                                            078  LM00081
 01147 NZT -0 52000 0 00201    01150 TRA +0 02000 0 01201
                      COMBIN.(ENT,MFD)                                              079  LM00082
 01151 TSX +0 07400 4 00004    01152 TXH +3 00000 0 00131    01153 TXH +3 00000 0 00227
                      SRHMFD.(1,MMREL,MFD,$M.F.D.$,$(FILE)$,END)                    080  LM00083
 01154 TSX +0 07400 4 00025    01155 TXH +3 00000 0 00324    01156 TXH +3 00000 0 00230    01157 TXH +3 00000 0 00227
 01160 TXH +3 00000 0 00337    01161 TXH +3 00000 0 00344    01162 TXH +3 00000 0 00035
                      WRITE.(1,MMREL,MERR,ERRCD,MEOF,ENT,ENTLEN)                    081  LM00084
 01163 TSX +0 07400 4 00032    01164 TXH +3 00000 0 00324    01165 TXH +3 00000 0 00230    01166 TXH +3 00000 0 00050
 01167 TXH +3 00000 0 00132    01170 TXH +3 00000 0 00047    01171 TXH +3 00000 0 00131    01172 TXH +3 00000 0 00115
                      CLOSE.(1,MFD,FIN,ERRCD,MCH)                                   082  LM00085
 01173 TSX +0 07400 4 00003    01174 TXH +3 00000 0 00324    01175 TXH +3 00000 0 00227    01176 TXH +3 00000 0 00044
 01177 TXH +3 00000 0 00132    01200 TXH +3 00000 0 00201
                 E'L                                                                083  LM00086
      FIN        W'R EVSW.(2) .OR. EVSW.(1)                                         084  LM00087
 01201 TSX +0 07400 4 00010    01202 TXH +3 00000 0 00324    01203 TNZ -0 10000 0 01207    01204 TSX +0 07400 4 00010
 01205 TXH +3 00000 0 00325    01206 TZE +0 10000 0 01212
                      ORTUT.(1,2)                                                   085  LM00088
 01207 TSX +0 07400 4 00017    01210 TXH +3 00000 0 00324    01211 TXH +3 00000 0 00325
                 E'L                                                                086  LM00089
                 WTTUT.(2)                                                          087  LM00090
 01212 TSX +0 07400 4 00033    01213 TXH +3 00000 0 00325
                 PSTAT.                                                             088  LM00091
 01214 TSX +0 07400 4 00020
                 MPRINT.(3,$ ALL DONE$)                                             089  LM00092
 01215 TSX +0 07400 4 00015    01216 TXH +3 00000 0 00326    01217 TXH +3 00000 0 00342    01220 TXH +3 00000 0 00341
                 T'H PRL, FOR I=1,1,I.G.5                                           090  LM00093
 01221 CLA +0 50000 0 00324    01222 STO +0 60100 0 00172    01223 TRA +0 02000 0 01227    01224 CLA +0 50000 0 00172
 01225 ADD +0 40000 0 00324    01226 STO +0 60100 0 00172    01227 CLA +0 50000 0 00172    01230 SUB +0 40200 0 00330
 01231 TZE +0 10000 0 01233    01232 TPL +0 12000 0 01240
      PRL        MPRINT.(2,AST...AST(5),AST...AST(5))                               091  LM00094
 01233 TSX +0 07400 4 00015    01234 TXH +3 00000 0 00325    01235 TIX +2 00063 0 00070    01236 TIX +2 00063 0 00070
 01237 TRA +0 02000 0 01224
                 V'S AST=$************************************$                     092  LM00095
 00063     -1 45454 5 45454    00064     -1 45454 5 45454    00065     -1 45454 5 45454    00066     -1 45454 5 45454
 00067     -1 45454 5 45454    00070     -1 45454 5 45454
      END        EXIT.                                                              093  LM00096
 01240 TSX +0 07400 4 00011
      MERR       PTETER.(UFD,DIRTRN,MREL-ENTLEN)                                    094  LM00098
 01241 CLA +0 50000 0 00232    01242 SUB +0 40200 0 00115    01243 STO +0 60100 0 01365    01244 TSX +0 07400 4 00021
 01245 TXH +3 00000 0 00317    01246 TXH +3 00000 0 00112    01247 TXH +3 00000 0 01365
                 TRUNC.(2,MREL,MEOF,ERRCD,MEOF)                                     095  LM00099
 01250 TSX +0 07400 4 00030    01251 TXH +3 00000 0 00325    01252 TXH +3 00000 0 00232    01253 TXH +3 00000 0 00047
 01254 TXH +3 00000 0 00132    01255 TXH +3 00000 0 00047
                 T'O MEOF                                                           096  LM00100
 01256 TRA +0 02000 0 00047
      UERR       PTETER.(FILE,DIRTRN,UREL-ENTLEN)                                   097  LM00102
 01257 CLA +0 50000 0 00321    01260 SUB +0 40200 0 00115    01261 STO +0 60100 0 01365    01262 TSX +0 07400 4 00021
 01263 TXH +3 00000 0 00161    01264 TXH +3 00000 0 00112    01265 TXH +3 00000 0 01365
                 TRUNC.(3,UREL,UTERR,ERRCD,UTERR)                                   098  LM00103
 01266 TSX +0 07400 4 00030    01267 TXH +3 00000 0 00326    01270 TXH +3 00000 0 00321    01271 TXH +3 00000 0 00060
 01272 TXH +3 00000 0 00132    01273 TXH +3 00000 0 00060
                 T'O UEOF                                                           099  LM00104
 01274 TRA +0 02000 0 00055
      UTERR      UFD(NORECS)=0                                                      100  LM00105
 01275 LXA +0 53400 1 00235    01276 CLA +0 50000 0 00323    01277 STO +0 60100 1 00317
                 UFD(LCOUNT)=0                                                      101  LM00106
 01300 LXA +0 53400 1 00173    01301 CLA +0 50000 0 00323    01302 STO +0 60100 1 00317
                 UFD(FSTRK)=0                                                       102  LM00107
 01303 LXA +0 53400 1 00166    01304 CLA +0 50000 0 00323    01305 STO +0 60100 1 00317
                 UFD(LSTRK)=0                                                       103  LM00108
 01306 LXA +0 53400 1 00200    01307 CLA +0 50000 0 00323    01310 STO +0 60100 1 00317
                 UCH=1B                                                             104  LM00109
 01311 CLA +0 50000 0 00324    01312 STO +0 60100 0 00272
                 T'O UEOF                                                           105  LM00110
 01313 TRA +0 02000 0 00055
      FERR       FREL=1                                                             106  LM00112
 01314 CLA +0 50000 0 00324    01315 STO +0 60100 0 00164
      FERRL      READ.(4,FREL,FERR1,ERRCD,FEOF,ERRCD,0)                             107  LM00113
 01316 TSX +0 07400 4 00023    01317 TXH +3 00000 0 00327    01320 TXH +3 00000 0 00164    01321 TXH +3 00000 0 00041
 01322 TXH +3 00000 0 00132    01323 TXH +3 00000 0 00040    01324 TXH +3 00000 0 00132    01325 TXH +3 00000 0 00323
                 FREL=FREL+NWPT                                                     108  LM00114
 01326 CLA +0 50000 0 00164    01327 ADD +0 40000 0 00237    01330 STO +0 60100 0 00164
                 T'O FERRL                                                          109  LM00115
 01331 TRA +0 02000 0 00042
      FERR1      PTETER.(FILE,DTATRN,FREL)                                          110  LM00116
 01332 TSX +0 07400 4 00021    01333 TXH +3 00000 0 00161    01334 TXH +3 00000 0 00114    01335 TXH +3 00000 0 00164
                 TRUNC.(4,FREL,FTERR,ERRCD,FTERR)                                   111  LM00117
 01336 TSX +0 07400 4 00030    01337 TXH +3 00000 0 00327    01340 TXH +3 00000 0 00164    01341 TXH +3 00000 0 00045
 01342 TXH +3 00000 0 00132    01343 TXH +3 00000 0 00045
                 T'O FEOF                                                           112  LM00118
 01344 TRA +0 02000 0 00040
      FTERR      FILE(NORECS)=0                                                     113  LM00119
 01345 LXA +0 53400 1 00235    01346 CLA +0 50000 0 00323    01347 STO +0 60100 1 00161
                 FILE(LCOUNT)=0                                                     114  LM00120
 01350 LXA +0 53400 1 00173    01351 CLA +0 50000 0 00323    01352 STO +0 60100 1 00161
                 FILE(FSTRK)=0                                                      115  LM00121
 01353 LXA +0 53400 1 00166    01354 CLA +0 50000 0 00323    01355 STO +0 60100 1 00161
                 FILE(LSTRK)=0                                                      116  LM00122
 01356 LXA +0 53400 1 00200    01357 CLA +0 50000 0 00323    01360 STO +0 60100 1 00161
                 FCH=1B                                                             117  LM00123
 01361 CLA +0 50000 0 00324    01362 STO +0 60100 0 00134
                 T'O FEOF                                                           118  LM00124
 01363 TRA +0 02000 0 00040
                 DIMENSION MFD(20),UFD(20),FILE(20),ENT(10),QTA(5),QTACT(5)         119  LM00126
                 NORMAL MODE IS INTEGER                                             120  LM00127
                 BOOLEAN CKDATE,MCH,UCH,FCH,FORC,CKENT,SW,EVSW,QTCH                 121  LM00128
                 INSERT FILE SALEQU                                                 122  LM00129
                 V'S MFDORG=101212121212K                                           123  LM00002
 00202     +1 01212 1 21212
                 V'S LOADER=001212121212K                                           124  LM00003
 00176     +0 01212 1 21212
                 V'S ENTLEN=7                                                       125  LM00004
 00115     +0 00000 0 00007
                 V'S ENTRYL=20                                                      126  LM00005
 00116     +0 00000 0 00024
                 V'S NWPT=432                                                       127  LM00006
 00237     +0 00000 0 00660
                 V'S LDKM=0                                                         128  LM00007
 00174     +0 00000 0 00000
                 V'S HDKM=7                                                         129  LM00008
 00167     +0 00000 0 00007
                 V'S LDMM=8                                                         130  LM00009
 00175     +0 00000 0 00010
                 V'S HDMM=8                                                         131  LM00010
 00170     +0 00000 0 00010
                 V'S NDKT=10000                                                     132  LM00011
 00233     +0 00000 0 23420
                 V'S NDMT=400                                                       133  LM00012
 00234     +0 00000 0 00620
                 V'S NQW=3                                                          134  LM00013
 00236     +0 00000 0 00003
                 V'S PROBN=1                                                        135  LM00014
 00242     +0 00000 0 00001
                 V'S PROGN=2                                                        136  LM00015
 00243     +0 00000 0 00002
                 V'S ALPHA=3                                                        137  LM00016
 00062     +0 00000 0 00003
                 V'S BETA=4                                                         138  LM00017
 00105     +0 00000 0 00004
                 V'S DAYTIM=5                                                       139  LM00018
 00111     +0 00000 0 00005
                 V'S TIME=6                                                         140  LM00019
 00267     +0 00000 0 00006
                 V'S DATELU=7                                                       141  LM00020
 00110     +0 00000 0 00007
                 V'S AUTHOR=8                                                       142  LM00021
 00071     +0 00000 0 00010
                 V'S MODE=9                                                         143  LM00022
 00231     +0 00000 0 00011
                 V'S ILOCK=10                                                       144  LM00023
 00171     +0 00000 0 00012
                 V'S F=11                                                           145  LM00024
 00165     +0 00000 0 00013
                 V'S RCOUNT=12                                                      146  LM00025
 00262     +0 00000 0 00014
                 V'S S=13                                                           147  LM00026
 00265     +0 00000 0 00015
                 V'S W=14                                                           148  LM00027
 00322     +0 00000 0 00016
                 V'S R=15                                                           149  LM00028
 00263     +0 00000 0 00017
                 V'S NORECS=16                                                      150  LM00029
 00235     +0 00000 0 00020
                 V'S P=17                                                           151  LM00030
 00244     +0 00000 0 00021
                 V'S LCOUNT=18                                                      152  LM00031
 00173     +0 00000 0 00022
                 V'S LSTRK=19                                                       153  LM00032
 00200     +0 00000 0 00023
                 V'S FSTRK=20                                                       154  LM00033
 00166     +0 00000 0 00024
                 V'S TEMPMD=1K                                                      155  LM00034
 00266     +0 00000 0 00001
                 V'S PARTER=1K                                                      156  LM00035
 00241     +0 00000 0 00001
                 V'S DISKER=2K                                                      157  LM00036
 00113     +0 00000 0 00002
                 V'S BADBP=4K                                                       158  LM00037
 00073     +0 00000 0 00004
                 V'S BADTR=1K1                                                      159  LM00038
 00104     +0 00000 0 00010
                 V'S BADFP=2K1                                                      160  LM00039
 00074     +0 00000 0 00020
                 V'S BADTN=4K1                                                      161  LM00040
 00103     +0 00000 0 00040
                 V'S UNPTRK=1K2                                                     162  LM00041
 00320     +0 00000 0 00100
                 V'S RUSTRK=2K2                                                     163  LM00042
 00264     +0 00000 0 00200
                 V'S DIRTRN=4K2                                                     164  LM00043
 00112     +0 00000 0 00400
                 V'S DTATRN=1K3                                                     165  LM00044
 00114     +0 00000 0 01000
                 V'S NZITEM=2K3                                                     166  LM00045
 00240     +0 00000 0 02000
                 V'S BADF=4K3                                                       167  LM00046
 00075     +0 00000 0 04000
                 V'S BADLTK=1K4                                                     168  LM00047
 00077     +0 00000 0 10000
                 V'S FATAL=2K4                                                      169  LM00048
 00133     +0 00000 0 20000
                 V'S FORCE=4K4                                                      170  LM00049
 00162     +0 00000 0 40000
                 V'S BADATE=1K5                                                     171  LM00050
 00072     +0 00000 1 00000
                 V'S BADLCT=2K5                                                     172  LM00051
 00076     +0 00000 2 00000
                 V'S BADRCT=4K5                                                     173  LM00052
 00101     +0 00000 4 00000
                 V'S BADTC=1K6                                                      174  LM00053
 00102     +0 00001 0 00000
                 V'S BADP=2K6                                                       175  LM00054
 00100     +0 00002 0 00000
                 V'S BKCOR=4K6                                                      176  LM00055
 00107     +0 00004 0 00000
                 V'S BKBAD=1K7                                                      177  LM00056
 00106     +0 00010 0 00000
                 END OF PROGRAM                                                     178  LM00130
 01364 TSX +0 07400 4 00011


 CENT4   BCD 12/14/70 1513.2    8243         00000
1     MAD PROGRAM LISTING ... ... ...                 FILE    CENT   MAD            11/05/70    1933.2
-
                  EXTERNAL FUNCTION (E,C,FF,L,REL)                                                *001 LM00001
                  ENTRY TO CKENT.                                                                 *002 LM00002
                  BAD=CKENT.(ENTRY,CHANGED,FORCE READ,LINKED,REL)                                      LM00003
                  EF=E(F)                                                                         *003 LM00004
                  ERC=0                                                                           *004 LM00005
                  FF=0B                                                                           *005 LM00006
                  WHENEVER E(ILOCK).NE.0, ERC=ERC.V.NZITEM                                        *006 LM00007
                  WHENEVER EF.NE.0                                                                *007 LM00008
                       WHENEVER E(S).NE.0.OR.E(R).NE.0.OR.E(W).NE.0,ERC=ERC.V.NZITEM              *008 LM00009
                       WHENEVER EF.G.NQW, ERC=ERC.V.BADF.V.FATAL                                  *009 LM00010
                       WHENEVER CKDATE.(E(DAYTIM)).OR.CKDATE.(E(DATELU)),                         *010 LM00011
                1           ERC=ERC.V.BADATE.V.FATAL                                              *010 LM00012
                       WHENEVER E(LCOUNT).G.NWPT, ERC=ERC.V.BADLCT.V.FORCE                        *011 LM00013
                       WHENEVER E(P).G.1                                                          *012 LM00014
                            E(P)=1                                                                *013 LM00015
                            C=1B                                                                  *014 LM00016
                            ERC=ERC.V.BADP                                                        *015 LM00017
                       END OF CONDITIONAL                                                         *016 LM00018
                       WHENEVER E(NORECS).E.0 .AND. E(LCOUNT).E.0                                 *017 LM00019
                            WHENEVER E(FSTRK).NE.0.OR.E(LSTRK).NE.0                               *018 LM00020
                                 E(FSTRK)=0                                                       *019 LM00021
                                 E(LSTRK)=0                                                       *020 LM00022
                                 C=1B                                                             *021 LM00023
                            END OF CONDITIONAL                                                    *022 LM00024
                       OTHERWISE                                                                  *023 LM00025
                            WHENEVER EF.NE.3                                                      *024 LM00026
                                 WHENEVER CKTRK.(E(FSTRK)), ERC=ERC.V.BADFP.V.FATAL               *025 LM00027
                                 WHENEVER CKTRK.(E(LSTRK)), ERC=ERC.V.BADLTK.V.FORCE              *026 LM00028
                            END OF CONDITIONAL                                                    *027 LM00029
                            WHENEVER E(RCOUNT).NE.NWPT.AND.E(NORECS).NE.0.AND.                    *028 LM00030
                1           EF.NE.3, ERC=ERC.V.BADRCT.V.FATAL                                     *028 LM00031
                            WHENEVER ERC.A.(BADLTK.V.BADFP).E.0 .AND. EF.NE.3                     *029 LM00032
                                 WHENEVER .NOT.USEDT.(1,E(FSTRK)) .OR.                            *030 LM00033
                1                    .NOT.USEDT.(1,E(LSTRK)),                                     *030 LM00034
                2                ERC=ERC.V.UNPTRK.V.FORCE                                         *030 LM00035
                                 WHENEVER USEDT.(2,E(FSTRK)),                                     *031 LM00036
                1                   ERC=ERC.V.RUSTRK.V.FATAL                                      *031 LM00037
                                 WHENEVER USEDT.(2,E(LSTRK)),                                     *032 LM00038
                1                   ERC=ERC.V.RUSTRK.V.FORCE                                      *032 LM00039
                            END OF CONDITIONAL                                                    *033 LM00040
                       END OF CONDITIONAL                                                         *034 LM00041
                  OTHERWISE                                                                       *035 LM00042
                       WHENEVER E(RCOUNT).NE.0.OR.E(ILOCK).NE.0,                                  *036 LM00043
                1      ERC=ERC.V.NZITEM                                                           *036 LM00044
                  END OF CONDITIONAL                                                              *037 LM00045
                  WHENEVER ERC.NE.0                                                               *038 LM00046
                       WHENEVER ERC.A.FATAL.NE.0, ERC=ERC.A..N.FORCE                              *039 LM00047
                       PTETER.(E,ERC,REL)                                                         *040 LM00048
                       WHENEVER ERC.A.NZITEM.NE.0                                                 *041 LM00049
                            C=1B                                                                  *042 LM00050
                            E(ILOCK)=0                                                            *043 LM00051
                            WHENEVER EF.NE.0                                                      *044 LM00052
                                 E(S)=0                                                           *045 LM00053
                                 E(W)=0                                                           *046 LM00054
                                 E(R)=0                                                           *047 LM00055
                            OTHERWISE                                                             *048 LM00056
                                 E(RCOUNT)=0                                                      *049 LM00057
                            END OF CONDITIONAL                                                    *050 LM00058
                       END OF CONDITIONAL                                                         *051 LM00059
                       WHENEVER ERC.A.FORCE .NE.0, FF=1B                                          *052 LM00060
                       WHENEVER ERC.A.FATAL.NE.0, FUNCTION RETURN 1B                              *053 LM00061
                  END OF CONDITIONAL                                                              *054 LM00062
                  WHENEVER EF.E.0 .OR. EF.E.3, TRANSFER TO L                                      *055 LM00063
                  FUNCTION RETURN 0B                                                              *056 LM00064
                  NORMAL MODE IS INTEGER                                                          *057 LM00065
                  STATEMENT LABEL L                                                               *058 LM00066
                  BOOLEAN C,CKTRK,CKDATE,USEDT,FF                                                 *059 LM00067
                  INSERT FILE SALEQU                                                              *060 LM00068
                   SALEQU                                                                         *060 LM00001
                  VECTOR VALUES MFDORG=101212121212K                                              *061 LM00002
                  VECTOR VALUES LOADER=001212121212K                                              *062 LM00003
                  VECTOR VALUES ENTLEN=7                                                          *063 LM00004
                  VECTOR VALUES ENTRYL=20                                                         *064 LM00005
                  VECTOR VALUES NWPT=432                                                          *065 LM00006
                  VECTOR VALUES LDKM=0                                                            *066 LM00007
                  VECTOR VALUES HDKM=7                                                            *067 LM00008
                  VECTOR VALUES LDMM=8                                                            *068 LM00009
                  VECTOR VALUES HDMM=8                                                            *069 LM00010
                  VECTOR VALUES NDKT=10000                                                        *070 LM00011
                  VECTOR VALUES NDMT=400                                                          *071 LM00012
                  VECTOR VALUES NQW=3                                                             *072 LM00013
                  VECTOR VALUES PROBN=1                                                           *073 LM00014
                  VECTOR VALUES PROGN=2                                                           *074 LM00015
                  VECTOR VALUES ALPHA=3                                                           *075 LM00016
                  VECTOR VALUES BETA=4                                                            *076 LM00017
                  VECTOR VALUES DAYTIM=5                                                          *077 LM00018
                  VECTOR VALUES TIME=6                                                            *078 LM00019
                  VECTOR VALUES DATELU=7                                                          *079 LM00020
                  VECTOR VALUES AUTHOR=8                                                          *080 LM00021
                  VECTOR VALUES MODE=9                                                            *081 LM00022
                  VECTOR VALUES ILOCK=10                                                          *082 LM00023
                  VECTOR VALUES F=11                                                              *083 LM00024
                  VECTOR VALUES RCOUNT=12                                                         *084 LM00025
                  VECTOR VALUES S=13                                                              *085 LM00026
                  VECTOR VALUES W=14                                                              *086 LM00027
                  VECTOR VALUES R=15                                                              *087 LM00028
                  VECTOR VALUES NORECS=16                                                         *088 LM00029
                  VECTOR VALUES P=17                                                              *089 LM00030
                  VECTOR VALUES LCOUNT=18                                                         *090 LM00031
                  VECTOR VALUES LSTRK=19                                                          *091 LM00032
                  VECTOR VALUES FSTRK=20                                                          *092 LM00033
                  VECTOR VALUES TEMPMD=1K                                                         *093 LM00034
                  VECTOR VALUES PARTER=1K                                                         *094 LM00035
                  VECTOR VALUES DISKER=2K                                                         *095 LM00036
                  VECTOR VALUES BADBP=4K                                                          *096 LM00037
                  VECTOR VALUES BADTR=1K1                                                         *097 LM00038
                  VECTOR VALUES BADFP=2K1                                                         *098 LM00039
                  VECTOR VALUES BADTN=4K1                                                         *099 LM00040
                  VECTOR VALUES UNPTRK=1K2                                                        *100 LM00041
                  VECTOR VALUES RUSTRK=2K2                                                        *101 LM00042
                  VECTOR VALUES DIRTRN=4K2                                                        *102 LM00043
                  VECTOR VALUES DTATRN=1K3                                                        *103 LM00044
                  VECTOR VALUES NZITEM=2K3                                                        *104 LM00045
                  VECTOR VALUES BADF=4K3                                                          *105 LM00046
                  VECTOR VALUES BADLTK=1K4                                                        *106 LM00047
                  VECTOR VALUES FATAL=2K4                                                         *107 LM00048
                  VECTOR VALUES FORCE=4K4                                                         *108 LM00049
                  VECTOR VALUES BADATE=1K5                                                        *109 LM00050
                  VECTOR VALUES BADLCT=2K5                                                        *110 LM00051
                  VECTOR VALUES BADRCT=4K5                                                        *111 LM00052
                  VECTOR VALUES BADTC=1K6                                                         *112 LM00053
                  VECTOR VALUES BADP=2K6                                                          *113 LM00054
                  VECTOR VALUES BKCOR=4K6                                                         *114 LM00055
                  VECTOR VALUES BKBAD=1K7                                                         *115 LM00056
                                                                                                       LM00057
                  END OF FUNCTION                                                                 *116 LM00069
1MAD PROGRAM,TYPE NOV 1963      (ALL NUMBERS ARE OCTAL)
0TOTAL LOCATIONS   00626 TRANSFER VECTOR LENGTH  00005 PROGRAM BEGINS    00104
0 PROGRAM IS AN EXTERNAL FUNCTION.   THE FOLLOWING ARE ENTRIES
      CKENT  00105   0
0VARIABLE STORAGE (A=ARRAY,C=COMMON,E=ERASABLE,DIGIT=MODE)
      ALPHA  00006 A 1        BADTR  00022 A 1        ERC    00036   1        LOADER 00051 A 1        PROBN  00064 A 1
      AUTHOR 00007 A 1        BETA   00023 A 1        FATAL  00037 A 1        LSTRK  00052 A 1        PROGN  00065 A 1
      BADATE 00010 A 1        BKBAD  00024 A 1        FORCE  00040 A 1        MFDORG 00053 A 1        P      00066 A 1
      BADBP  00011 A 1        BKCOR  00025 A 1        F      00041 A 1        MODE   00054 A 1        RCOUNT 00067 A 1
      BADFP  00012 A 1        DATELU 00026 A 1        FSTRK  00042 A 1        NDKT   00055 A 1        R      00070 A 1
      BADF   00013 A 1        DAYTIM 00027 A 1        HDKM   00043 A 1        NDMT   00056 A 1        RUSTRK 00071 A 1
      BADLCT 00014 A 1        DIRTRN 00030 A 1        HDMM   00044 A 1        NORECS 00057 A 1        S      00072 A 1
      BADLTK 00015 A 1        DISKER 00031 A 1        ILOCK  00045 A 1        NQW    00060 A 1        TEMPMD 00073 A 1
      BADP   00016 A 1        DTATRN 00032 A 1        LCOUNT 00046 A 1        NWPT   00061 A 1        TIME   00074 A 1
      BADRCT 00017 A 1        EF     00033   1        LDKM   00047 A 1        NZITEM 00062 A 1        UNPTRK 00075 A 1
      BADTC  00020 A 1        ENTLEN 00034 A 1        LDMM   00050 A 1        PARTER 00063 A 1        W      00076 A 1
      BADTN  00021 A 1        ENTRYL 00035 A 1
0FUNCTION DICTIONARY
      CKDATE 00000   2        CKTRK  00001   2        EXIT   00002   1        PTETER 00003   1        USEDT  00004   2
0ABSOLUTE CONSTANTS
 00101 +000000000002     00102 +000000000003     00077 +000000000000     00100 +000000000001     00103 +233000000000
0PROGRAM
                 EXTERNAL FUNCTION (E,C,FF,L,REL)                                   001  LM00001
                 ENTRY TO CKENT.                                                    002  LM00002
 00104 TRA +0 02000 0 00107    00105 SXA +0 63400 2 00537    00106 TSX +0 07400 2 00537
                 EF=E(F)                                                            003  LM00004
 00107 LXA +0 53400 2 00041    00110 CLA +0 50000 2 00024    00111 STO +0 60100 0 00033
                 ERC=0                                                              004  LM00005
 00112 CLA +0 50000 0 00077    00113 STO +0 60100 0 00036
                 FF=0B                                                              005  LM00006
 00114 CLA +0 50000 0 00077    00115 STO +0 60100 0 00024
                 W'R E(ILOCK).NE.0, ERC=ERC.V.NZITEM                                006  LM00007
 00116 LXA +0 53400 1 00045    00117 CLA +0 50000 1 00024    00120 SUB +0 40200 0 00077    00121 TZE +0 10000 0 00125
 00122 CAL -0 50000 0 00036    00123 ORA -0 50100 0 00062    00124 SLW +0 60200 0 00036
                 W'R EF.NE.0                                                        007  LM00008
 00125 CLA +0 50000 0 00033    00126 SUB +0 40200 0 00077    00127 TZE +0 10000 0 00416
                      W'R E(S).NE.0.OR.E(R).NE.0.OR.E(W).NE.0,ERC=ERC.V.NZITEM      008  LM00009
 00130 LXA +0 53400 1 00076    00131 CLA +0 50000 1 00024    00132 SUB +0 40200 0 00077    00133 TNZ -0 10000 0 00144
 00134 LXA +0 53400 1 00070    00135 CLA +0 50000 1 00024    00136 SUB +0 40200 0 00077    00137 TNZ -0 10000 0 00144
 00140 LXA +0 53400 1 00072    00141 CLA +0 50000 1 00024    00142 SUB +0 40200 0 00077    00143 TZE +0 10000 0 00147
 00144 CAL -0 50000 0 00036    00145 ORA -0 50100 0 00062    00146 SLW +0 60200 0 00036
                      W'R EF.G.NQW, ERC=ERC.V.BADF.V.FATAL                          009  LM00010
 00147 CLA +0 50000 0 00033    00150 SUB +0 40200 0 00060    00151 TZE +0 10000 0 00157    00152 TMI -0 12000 0 00157
 00153 CAL -0 50000 0 00036    00154 ORA -0 50100 0 00013    00155 ORA -0 50100 0 00037    00156 SLW +0 60200 0 00036
                      W'R CKDATE.(E(DAYTIM)).OR.CKDATE.(E(DATELU)),                 010  LM00011
                1          ERC=ERC.V.BADATE.V.FATAL                                 010  LM00012
 00157 CLA +0 50000 0 00026    00160 SUB +0 40200 0 00161    00161 TXH +3 00000 0 00024    00162 STA +0 62100 0 00164
 00163 TSX +0 07400 4 00000    00164 TXH +3 00000 0 00000    00165 TNZ -0 10000 0 00175    00166 CLA +0 50000 0 00027
 00167 SUB +0 40200 0 00170    00170 TXH +3 00000 0 00024    00171 STA +0 62100 0 00173    00172 TSX +0 07400 4 00000
 00173 TXH +3 00000 0 00000    00174 TZE +0 10000 0 00201    00175 CAL -0 50000 0 00036    00176 ORA -0 50100 0 00010
 00177 ORA -0 50100 0 00037    00200 SLW +0 60200 0 00036
                      W'R E(LCOUNT).G.NWPT, ERC=ERC.V.BADLCT.V.FORCE                011  LM00013
 00201 LXA +0 53400 1 00046    00202 CLA +0 50000 1 00024    00203 SUB +0 40200 0 00061    00204 TZE +0 10000 0 00212
 00205 TMI -0 12000 0 00212    00206 CAL -0 50000 0 00036    00207 ORA -0 50100 0 00014    00210 ORA -0 50100 0 00040
 00211 SLW +0 60200 0 00036
                      W'R E(P).G.1                                                  012  LM00014
 00212 LXA +0 53400 1 00066    00213 CLA +0 50000 1 00024    00214 SUB +0 40200 0 00100    00215 TZE +0 10000 0 00226
 00216 TMI -0 12000 0 00226
                           E(P)=1                                                   013  LM00015
 00217 CLA +0 50000 0 00100    00220 STO +0 60100 1 00024
                           C=1B                                                     014  LM00016
 00221 CLA +0 50000 0 00100    00222 STO +0 60100 0 00024
                           ERC=ERC.V.BADP                                           015  LM00017
 00223 CAL -0 50000 0 00036    00224 ORA -0 50100 0 00016    00225 SLW +0 60200 0 00036
                      E'L                                                           016  LM00018
                      W'R E(NORECS).E.0 .AND. E(LCOUNT).E.0                         017  LM00019
 00226 LXA +0 53400 1 00046    00227 CLA +0 50000 1 00024    00230 SUB +0 40200 0 00077    00231 TNZ -0 10000 0 00257
 00232 LXA +0 53400 1 00057    00233 CLA +0 50000 1 00024    00234 SUB +0 40200 0 00077    00235 TNZ -0 10000 0 00257
                           W'R E(FSTRK).NE.0.OR.E(LSTRK).NE.0                       018  LM00020
 00236 LXA +0 53400 1 00052    00237 CLA +0 50000 1 00024    00240 SUB +0 40200 0 00077    00241 TNZ -0 10000 0 00246
 00242 LXA +0 53400 1 00042    00243 CLA +0 50000 1 00024    00244 SUB +0 40200 0 00077    00245 TZE +0 10000 0 00256
                                E(FSTRK)=0                                          019  LM00021
 00246 LXA +0 53400 1 00042    00247 CLA +0 50000 0 00077    00250 STO +0 60100 1 00024
                                E(LSTRK)=0                                          020  LM00022
 00251 LXA +0 53400 1 00052    00252 CLA +0 50000 0 00077    00253 STO +0 60100 1 00024
                                C=1B                                                021  LM00023
 00254 CLA +0 50000 0 00100    00255 STO +0 60100 0 00024
                           E'L                                                      022  LM00024
                      O'E                                                           023  LM00025
 00256 TRA +0 02000 0 00415
                           W'R EF.NE.3                                              024  LM00026
 00257 CLA +0 50000 0 00033    00260 SUB +0 40200 0 00102    00261 TZE +0 10000 0 00310
                                W'R CKTRK.(E(FSTRK)), ERC=ERC.V.BADFP.V.FATAL       025  LM00027
 00262 CLA +0 50000 0 00042    00263 SUB +0 40200 0 00264    00264 TXH +3 00000 0 00024    00265 STA +0 62100 0 00267
 00266 TSX +0 07400 4 00001    00267 TXH +3 00000 0 00000    00270 TZE +0 10000 0 00275    00271 CAL -0 50000 0 00036
 00272 ORA -0 50100 0 00012    00273 ORA -0 50100 0 00037    00274 SLW +0 60200 0 00036
                                W'R CKTRK.(E(LSTRK)), ERC=ERC.V.BADLTK.V.FORCE      026  LM00028
 00275 CLA +0 50000 0 00052    00276 SUB +0 40200 0 00277    00277 TXH +3 00000 0 00024    00300 STA +0 62100 0 00302
 00301 TSX +0 07400 4 00001    00302 TXH +3 00000 0 00000    00303 TZE +0 10000 0 00310    00304 CAL -0 50000 0 00036
 00305 ORA -0 50100 0 00015    00306 ORA -0 50100 0 00040    00307 SLW +0 60200 0 00036
                           E'L                                                      027  LM00029
                           W'R E(RCOUNT).NE.NWPT.AND.E(NORECS).NE.0.AND.            028  LM00030
                1          EF.NE.3, ERC=ERC.V.BADRCT.V.FATAL                        028  LM00031
 00310 CLA +0 50000 0 00033    00311 SUB +0 40200 0 00102    00312 TZE +0 10000 0 00327    00313 LXA +0 53400 1 00057
 00314 CLA +0 50000 1 00024    00315 SUB +0 40200 0 00077    00316 TZE +0 10000 0 00327    00317 LXA +0 53400 1 00067
 00320 CLA +0 50000 1 00024    00321 SUB +0 40200 0 00061    00322 TZE +0 10000 0 00327    00323 CAL -0 50000 0 00036
 00324 ORA -0 50100 0 00017    00325 ORA -0 50100 0 00037    00326 SLW +0 60200 0 00036
                           W'R ERC.A.(BADLTK.V.BADFP).E.0 .AND. EF.NE.3             029  LM00032
 00327 CLA +0 50000 0 00033    00330 SUB +0 40200 0 00102    00331 TZE +0 10000 0 00415    00332 CAL -0 50000 0 00015
 00333 ORA -0 50100 0 00012    00334 ANA -0 32000 0 00036    00335 SLW +0 60200 0 00623    00336 CLA +0 50000 0 00623
 00337 SUB +0 40200 0 00077    00340 TNZ -0 10000 0 00415
                                W'R .NOT.USEDT.(1,E(FSTRK)) .OR.                    030  LM00033
                1                   .NOT.USEDT.(1,E(LSTRK)),                        030  LM00034
                2               ERC=ERC.V.UNPTRK.V.FORCE                            030  LM00035
 00341 CLA +0 50000 0 00052    00342 SUB +0 40200 0 00343    00343 TXH +3 00000 0 00024    00344 STA +0 62100 0 00347
 00345 TSX +0 07400 4 00004    00346 TXH +3 00000 0 00100    00347 TXH +3 00000 0 00000    00350 TZE +0 10000 0 00361
 00351 CLA +0 50000 0 00042    00352 SUB +0 40200 0 00353    00353 TXH +3 00000 0 00024    00354 STA +0 62100 0 00357
 00355 TSX +0 07400 4 00004    00356 TXH +3 00000 0 00100    00357 TXH +3 00000 0 00000    00360 TNZ -0 10000 0 00365
 00361 CAL -0 50000 0 00036    00362 ORA -0 50100 0 00075    00363 ORA -0 50100 0 00040    00364 SLW +0 60200 0 00036
                                W'R USEDT.(2,E(FSTRK)),                             031  LM00036
                1                  ERC=ERC.V.RUSTRK.V.FATAL                         031  LM00037
 00365 CLA +0 50000 0 00042    00366 SUB +0 40200 0 00367    00367 TXH +3 00000 0 00024    00370 STA +0 62100 0 00373
 00371 TSX +0 07400 4 00004    00372 TXH +3 00000 0 00101    00373 TXH +3 00000 0 00000    00374 TZE +0 10000 0 00401
 00375 CAL -0 50000 0 00036    00376 ORA -0 50100 0 00071    00377 ORA -0 50100 0 00037    00400 SLW +0 60200 0 00036
                                W'R USEDT.(2,E(LSTRK)),                             032  LM00038
                1                  ERC=ERC.V.RUSTRK.V.FORCE                         032  LM00039
 00401 CLA +0 50000 0 00052    00402 SUB +0 40200 0 00403    00403 TXH +3 00000 0 00024    00404 STA +0 62100 0 00407
 00405 TSX +0 07400 4 00004    00406 TXH +3 00000 0 00101    00407 TXH +3 00000 0 00000    00410 TZE +0 10000 0 00415
 00411 CAL -0 50000 0 00036    00412 ORA -0 50100 0 00071    00413 ORA -0 50100 0 00040    00414 SLW +0 60200 0 00036
                           E'L                                                      033  LM00040
                      E'L                                                           034  LM00041
                 O'E                                                                035  LM00042
 00415 TRA +0 02000 0 00431
                      W'R E(RCOUNT).NE.0.OR.E(ILOCK).NE.0,                          036  LM00043
                1     ERC=ERC.V.NZITEM                                              036  LM00044
 00416 LXA +0 53400 1 00045    00417 CLA +0 50000 1 00024    00420 SUB +0 40200 0 00077    00421 TNZ -0 10000 0 00426
 00422 LXA +0 53400 1 00067    00423 CLA +0 50000 1 00024    00424 SUB +0 40200 0 00077    00425 TZE +0 10000 0 00431
 00426 CAL -0 50000 0 00036    00427 ORA -0 50100 0 00062    00430 SLW +0 60200 0 00036
                 E'L                                                                037  LM00045
                 W'R ERC.NE.0                                                       038  LM00046
 00431 CLA +0 50000 0 00036    00432 SUB +0 40200 0 00077    00433 TZE +0 10000 0 00525
                      W'R ERC.A.FATAL.NE.0, ERC=ERC.A..N.FORCE                      039  LM00047
 00434 CAL -0 50000 0 00036    00435 ANA -0 32000 0 00037    00436 SLW +0 60200 0 00623    00437 CLA +0 50000 0 00623
 00440 SUB +0 40200 0 00077    00441 TZE +0 10000 0 00446    00442 CAL -0 50000 0 00040    00443 COM +0 76000 0 00006
 00444 ANA -0 32000 0 00036    00445 SLW +0 60200 0 00036
                      PTETER.(E,ERC,REL)                                            040  LM00048
 00446 TSX +0 07400 4 00003    00447 TXH +3 00000 0 00024    00450 TXH +3 00000 0 00036    00451 TXH +3 00000 0 00024
                      W'R ERC.A.NZITEM.NE.0                                         041  LM00049
 00452 CAL -0 50000 0 00036    00453 ANA -0 32000 0 00062    00454 SLW +0 60200 0 00623    00455 CLA +0 50000 0 00623
 00456 SUB +0 40200 0 00077    00457 TZE +0 10000 0 00505
                           C=1B                                                     042  LM00050
 00460 CLA +0 50000 0 00100    00461 STO +0 60100 0 00024
                           E(ILOCK)=0                                               043  LM00051
 00462 LXA +0 53400 1 00045    00463 CLA +0 50000 0 00077    00464 STO +0 60100 1 00024
                           W'R EF.NE.0                                              044  LM00052
 00465 CLA +0 50000 0 00033    00466 SUB +0 40200 0 00077    00467 TZE +0 10000 0 00502
                                E(S)=0                                              045  LM00053
 00470 LXA +0 53400 1 00072    00471 CLA +0 50000 0 00077    00472 STO +0 60100 1 00024
                                E(W)=0                                              046  LM00054
 00473 LXA +0 53400 1 00076    00474 CLA +0 50000 0 00077    00475 STO +0 60100 1 00024
                                E(R)=0                                              047  LM00055
 00476 LXA +0 53400 1 00070    00477 CLA +0 50000 0 00077    00500 STO +0 60100 1 00024
                           O'E                                                      048  LM00056
 00501 TRA +0 02000 0 00505
                                E(RCOUNT)=0                                         049  LM00057
 00502 LXA +0 53400 1 00067    00503 CLA +0 50000 0 00077    00504 STO +0 60100 1 00024
                           E'L                                                      050  LM00058
                      E'L                                                           051  LM00059
                      W'R ERC.A.FORCE .NE.0, FF=1B                                  052  LM00060
 00505 CAL -0 50000 0 00036    00506 ANA -0 32000 0 00040    00507 SLW +0 60200 0 00623    00510 CLA +0 50000 0 00623
 00511 SUB +0 40200 0 00077    00512 TZE +0 10000 0 00515    00513 CLA +0 50000 0 00100    00514 STO +0 60100 0 00024
                      W'R ERC.A.FATAL.NE.0, F'N 1B                                  053  LM00061
 00515 CAL -0 50000 0 00036    00516 ANA -0 32000 0 00037    00517 SLW +0 60200 0 00623    00520 CLA +0 50000 0 00623
 00521 SUB +0 40200 0 00077    00522 TZE +0 10000 0 00525    00523 CLA +0 50000 0 00100    00524 TRA +0 02000 0 00617
                 E'L                                                                054  LM00062
                 W'R EF.E.0 .OR. EF.E.3, T'O L                                      055  LM00063
 00525 CLA +0 50000 0 00033    00526 SUB +0 40200 0 00102    00527 TZE +0 10000 0 00533    00530 CLA +0 50000 0 00033
 00531 SUB +0 40200 0 00077    00532 TNZ -0 10000 0 00534    00533 TRA +0 02000 0 00024
                 F'N 0B                                                             056  LM00064
 00534 CLA +0 50000 0 00077    00535 TRA +0 02000 0 00617
                 NORMAL MODE IS INTEGER                                             057  LM00065
                 STATEMENT LABEL L                                                  058  LM00066
                 BOOLEAN C,CKTRK,CKDATE,USEDT,FF                                    059  LM00067
                 INSERT FILE SALEQU                                                 060  LM00068
                 V'S MFDORG=101212121212K                                           061  LM00002
 00053     +1 01212 1 21212
                 V'S LOADER=001212121212K                                           062  LM00003
 00051     +0 01212 1 21212
                 V'S ENTLEN=7                                                       063  LM00004
 00034     +0 00000 0 00007
                 V'S ENTRYL=20                                                      064  LM00005
 00035     +0 00000 0 00024
                 V'S NWPT=432                                                       065  LM00006
 00061     +0 00000 0 00660
                 V'S LDKM=0                                                         066  LM00007
 00047     +0 00000 0 00000
                 V'S HDKM=7                                                         067  LM00008
 00043     +0 00000 0 00007
                 V'S LDMM=8                                                         068  LM00009
 00050     +0 00000 0 00010
                 V'S HDMM=8                                                         069  LM00010
 00044     +0 00000 0 00010
                 V'S NDKT=10000                                                     070  LM00011
 00055     +0 00000 0 23420
                 V'S NDMT=400                                                       071  LM00012
 00056     +0 00000 0 00620
                 V'S NQW=3                                                          072  LM00013
 00060     +0 00000 0 00003
                 V'S PROBN=1                                                        073  LM00014
 00064     +0 00000 0 00001
                 V'S PROGN=2                                                        074  LM00015
 00065     +0 00000 0 00002
                 V'S ALPHA=3                                                        075  LM00016
 00006     +0 00000 0 00003
                 V'S BETA=4                                                         076  LM00017
 00023     +0 00000 0 00004
                 V'S DAYTIM=5                                                       077  LM00018
 00027     +0 00000 0 00005
                 V'S TIME=6                                                         078  LM00019
 00074     +0 00000 0 00006
                 V'S DATELU=7                                                       079  LM00020
 00026     +0 00000 0 00007
                 V'S AUTHOR=8                                                       080  LM00021
 00007     +0 00000 0 00010
                 V'S MODE=9                                                         081  LM00022
 00054     +0 00000 0 00011
                 V'S ILOCK=10                                                       082  LM00023
 00045     +0 00000 0 00012
                 V'S F=11                                                           083  LM00024
 00041     +0 00000 0 00013
                 V'S RCOUNT=12                                                      084  LM00025
 00067     +0 00000 0 00014
                 V'S S=13                                                           085  LM00026
 00072     +0 00000 0 00015
                 V'S W=14                                                           086  LM00027
 00076     +0 00000 0 00016
                 V'S R=15                                                           087  LM00028
 00070     +0 00000 0 00017
                 V'S NORECS=16                                                      088  LM00029
 00057     +0 00000 0 00020
                 V'S P=17                                                           089  LM00030
 00066     +0 00000 0 00021
                 V'S LCOUNT=18                                                      090  LM00031
 00046     +0 00000 0 00022
                 V'S LSTRK=19                                                       091  LM00032
 00052     +0 00000 0 00023
                 V'S FSTRK=20                                                       092  LM00033
 00042     +0 00000 0 00024
                 V'S TEMPMD=1K                                                      093  LM00034
 00073     +0 00000 0 00001
                 V'S PARTER=1K                                                      094  LM00035
 00063     +0 00000 0 00001
                 V'S DISKER=2K                                                      095  LM00036
 00031     +0 00000 0 00002
                 V'S BADBP=4K                                                       096  LM00037
 00011     +0 00000 0 00004
                 V'S BADTR=1K1                                                      097  LM00038
 00022     +0 00000 0 00010
                 V'S BADFP=2K1                                                      098  LM00039
 00012     +0 00000 0 00020
                 V'S BADTN=4K1                                                      099  LM00040
 00021     +0 00000 0 00040
                 V'S UNPTRK=1K2                                                     100  LM00041
 00075     +0 00000 0 00100
                 V'S RUSTRK=2K2                                                     101  LM00042
 00071     +0 00000 0 00200
                 V'S DIRTRN=4K2                                                     102  LM00043
 00030     +0 00000 0 00400
                 V'S DTATRN=1K3                                                     103  LM00044
 00032     +0 00000 0 01000
                 V'S NZITEM=2K3                                                     104  LM00045
 00062     +0 00000 0 02000
                 V'S BADF=4K3                                                       105  LM00046
 00013     +0 00000 0 04000
                 V'S BADLTK=1K4                                                     106  LM00047
 00015     +0 00000 0 10000
                 V'S FATAL=2K4                                                      107  LM00048
 00037     +0 00000 0 20000
                 V'S FORCE=4K4                                                      108  LM00049
 00040     +0 00000 0 40000
                 V'S BADATE=1K5                                                     109  LM00050
 00010     +0 00000 1 00000
                 V'S BADLCT=2K5                                                     110  LM00051
 00014     +0 00000 2 00000
                 V'S BADRCT=4K5                                                     111  LM00052
 00017     +0 00000 4 00000
                 V'S BADTC=1K6                                                      112  LM00053
 00020     +0 00001 0 00000
                 V'S BADP=2K6                                                       113  LM00054
 00016     +0 00002 0 00000
                 V'S BKCOR=4K6                                                      114  LM00055
 00025     +0 00004 0 00000
                 V'S BKBAD=1K7                                                      115  LM00056
 00024     +0 00010 0 00000
                 END OF FUNCTION                                                    116  LM00069
 00536 TSX +0 07400 4 00002    00537 TXH +3 00000 0 00000    00540 SXD -0 63400 1 00537    00541 SXA +0 63400 4 00617
 00542 CLA +0 50000 4 00001    00543 STA +0 62100 0 00110    00544 STA +0 62100 0 00117    00545 STA +0 62100 0 00131
 00546 STA +0 62100 0 00135    00547 STA +0 62100 0 00141    00550 STO +0 60100 0 00161    00551 STO +0 60100 0 00170
 00552 STA +0 62100 0 00202    00553 STA +0 62100 0 00213    00554 STA +0 62100 0 00220    00555 STA +0 62100 0 00227
 00556 STA +0 62100 0 00233    00557 STA +0 62100 0 00237    00560 STA +0 62100 0 00243    00561 STA +0 62100 0 00250
 00562 STA +0 62100 0 00253    00563 STO +0 60100 0 00264    00564 STO +0 60100 0 00277    00565 STA +0 62100 0 00314
 00566 STA +0 62100 0 00320    00567 STO +0 60100 0 00343    00570 STO +0 60100 0 00353    00571 STO +0 60100 0 00367
 00572 STO +0 60100 0 00403    00573 STA +0 62100 0 00417    00574 STA +0 62100 0 00423    00575 STO +0 60100 0 00447
 00576 STA +0 62100 0 00464    00577 STA +0 62100 0 00472    00600 STA +0 62100 0 00475    00601 STA +0 62100 0 00500
 00602 STA +0 62100 0 00504    00603 CLA +0 50000 4 00002    00604 STA +0 62100 0 00222    00605 STA +0 62100 0 00255
 00606 STA +0 62100 0 00461    00607 CLA +0 50000 4 00003    00610 STA +0 62100 0 00115    00611 STA +0 62100 0 00514
 00612 CLA +0 50000 4 00004    00613 STA +0 62100 0 00533    00614 CLA +0 50000 4 00005    00615 STO +0 60100 0 00451
 00616 TRA +0 02000 2 00001    00617 AXT +0 77400 4 00000    00620 LXA +0 53400 2 00537    00621 LXD -0 53400 1 00537
 00622 TRA +0 02000 4 00001


 RTUT4   BCD 12/14/70 1513.4   11075         00000
