1            EXPAND.(ENTRY FROM DISK, EXPANDED ENTRY ONE ITEM PER WORD)                          PAGE 1

                       00004         ENTRY   EXPAND
                       00043         ENTRY   COMBIN
                                     EXTERN  .UNPAK,.PACK
                              *      COMBIN.(PACKED,EXPANDED)
                              *

        TRANSFER VECTOR
      00000  336445472142     .UNPAK
      00001  334721234260     .PACK

            LINKAGE DIRECTOR
      00002  000000000000
      00003  256747214524

      00004  0636 00 4 00036  EXPAND SCA     XRE,4         SAVE IR'S
      00005  0634 00 1 00037         SXA     XRE+1,1
      00006  0634 00 2 00040         SXA     XRE+2,2
      00007  0634 00 3 00041         SXA     XRE+3,3
      00010 -0500 00 4 00002         CAL     2,4           GET VECTOR ADR'S
      00011  0737 00 1 00000         PAC     ,1
      00012 -0500 00 4 00001         CAL     1,4
      00013  0737 00 3 00000         PAC     ,3
      00014  0774 00 2 00022         AXT     NI,2          FOR EACH ITEM
      00015  0500 00 2 00130  EL     CLA     TAB+NI,2      GET CONTROL WORD
      00016  0621 00 0 00023         STA     ESFT          SET NUMBER OF BITS
      00017  0120 00 0 00022         TPL     *+3           IF MINUS
      00020  0560 00 3 77777         LDQ     -1,3          GET NEW WORD
      00021  1 00001 3 00022         TXI     *+1,3,1
      00022 -0754 00 0 00000         ZAC
      00023 -0763 00 0 00000  ESFT   LGL     **
      00024  3 00002 2 00033         TXH     NOTT,2,2
      00025 -0600 00 0 00104         STQ     MQ            IF A TRACK ADR
      00026  0602 00 0 00105         SLW     TEMP
      00027  0100 00 0 00033         TZE     *+4
      00030  0074 00 4 00000         TSX     .UNPAK,4      UNPACK IT
      00031  0 00000 0 00105                 TEMP
      00032  0560 00 0 00104         LDQ     MQ
      00033  0602 00 1 77775  NOTT   SLW     -3,1          STO WORD
      00034  1 00001 1 00035         TXI     *+1,1,1
      00035  2 00001 2 00015         TIX     EL,2,1
      00036 -0774 00 4 00000  XRE    AXC     ,4
      00037  0774 00 1 00000         AXT     ,1
      00040  0774 00 2 00000         AXT     ,2
      00041  0774 00 3 00000         AXT     ,3
      00042  0020 00 4 00001         TRA     1,4
                              *
      00043  0636 00 4 00077  COMBIN SCA     XRC,4         SAVE IR'S
      00044  0634 00 1 00100         SXA     XRC+1,1
      00045  0634 00 2 00101         SXA     XRC+2,2
      00046  0634 00 3 00102         SXA     XRC+3,3
      00047 -0500 00 4 00002         CAL     2,4           GET ADR'S
      00050  0737 00 1 00000         PAC     ,1
      00051  1 00022 1 00052         TXI     *+1,1,NI
      00052 -0500 00 4 00001         CAL     1,4
      00053  0737 00 3 00000         PAC     ,3
      00054  1 00007 3 00055         TXI     *+1,3,7
1            EXPAND.(ENTRY FROM DISK, EXPANDED ENTRY ONE ITEM PER WORD)                          PAGE 2

      00055  0774 00 2 00001         AXT     1,2           BACKWARDS THROUGH ITEMS
      00056 -0500 00 2 00130  CL     CAL     TAB+NI,2      GET CONTROL WORD
      00057  0621 00 0 00067         STA     CSFT          SAVE SHIFT
      00060 -0500 00 1 77776         CAL     -2,1          GET UNPACKED WORD
      00061  3 00002 2 00067         TXH     *+6,2,2
      00062 -0600 00 0 00104         STQ     MQ
      00063  0602 00 0 00105         SLW     TEMP
      00064  0074 00 4 00001         TSX     .PACK,4
      00065  0 00000 0 00105                 TEMP
      00066  0560 00 0 00104         LDQ     MQ
      00067 -0765 00 0 00000  CSFT   LGR     **            ADD TO PACKED WORD
      00070  0500 00 2 00130         CLA     TAB+NI,2      IF MINUS
      00071  0120 00 0 00074         TPL     *+3
      00072 -0600 00 3 00000         STQ     -0,3          STO COMPLETE PACKED WORD
      00073  1 77777 3 00074         TXI     *+1,3,-1
      00074  1 77777 1 00075         TXI     *+1,1,-1
      00075  1 00001 2 00076         TXI     *+1,2,1
      00076 -3 00022 2 00056         TXL     CL,2,NI
      00077 -0774 00 4 00000  XRC    AXC     ,4
      00100  0774 00 1 00000         AXT     ,1
      00101  0774 00 2 00000         AXT     ,2
      00102  0774 00 3 00000         AXT     ,3
      00103  0020 00 4 00001         TRA     1,4
                              *
      00104  0 00000 0 00000  MQ
      00105  0 00000 0 00000  TEMP
      00106 -000000000044     TAB    DEC     -36,-36,-18,18,-18,18,-8,10,3,15
      00107 -000000000044
      00110 -000000000022
      00111 +000000000022
      00112 -000000000022
      00113 +000000000022
      00114 -000000000010
      00115 +000000000012
      00116 +000000000003
      00117 +000000000017
      00120 -000000000001            DEC     -1,1,1,15,3,15,-18,18
      00121 +000000000001
      00122 +000000000001
      00123 +000000000017
      00124 +000000000003
      00125 +000000000017
      00126 -000000000022
      00127 +000000000022
                       00022  NI     SYN     *-TAB
                                     END
1            EXPAND.(ENTRY FROM DISK, EXPANDED ENTRY ONE ITEM PER WORD)                          PAGE 1
                        POST PROCESSOR ASSEMBLY DATA

        130 IS THE FIRST LOCATION NOT USED BY THIS PROGRAM

0REFERENCES TO DEFINED SYMBOLS
         56     CL    76
         15     EL    35
        104     MQ    25,   32,   62,   66
         22     NI    14,   15,   51,   56,   70,   76,  130
        106    TAB    15,   56,   70,  130
         77    XRC    43,   44,   45,   46
         36    XRE     4,    5,    6,    7
         67   CSFT    57
         23   ESFT    16
         33   NOTT    24
        105   TEMP    26,   31,   63,   65
          1  .PACK    64
         43 COMBIN     0
          4 EXPAND     0
          0 .UNPAK    30

0 NO ERROR IN ABOVE ASSEMBLY.


  INDX   BCD 12/14/70 1513.9    1665         00000
1                                                                                                PAGE 1

                       00002         ENTRY   IINDEX
                       00042         ENTRY   INDEX

            LINKAGE DIRECTOR
      00000  000000000000
      00001  313145242567

                       00001  BDISKM EQU     1
                       00006  TDISKM EQU     6
                       00007  BDRUMM EQU     7
                       00007  TDRUMM EQU     7
                              *
                              *      IINDEX  INITIALIZATIONENTRYFORINDEX
                              *      CALLING SEQUENCE
                              *      TSX     IINDEX,4
                              *      PAR     BDISKM
                              *      PAR     TDISKM
                              *      PAR     BDRUMM
                              *      PAR     TDRUMM
                              *
      00002 -0500 60 4 00001  IINDEX CAL*    1,4
      00003  0601 00 0 00106         STO     DSBD
      00004  0767 00 0 00022         ALS     18
      00005  0560 00 0 00053         LDQ     BDISKQ        TRICKS TO MAKE WORK RIGHT
      00006  0402 00 0 00135         SUB     =O1000000
      00007  0120 00 0 00013         TPL     *+4
      00010  0771 00 0 00001         ARS     1             TRICK TO MAKE CASE BDISKM=0 WORK RIGHT
      00011  0765 00 0 00000         LRS     0
      00012  0760 00 0 00006         COM
      00013 -0600 00 0 00053         STQ     BDISKQ
      00014  0622 00 0 00053         STD     BDISKQ
      00015 -0500 60 4 00002         CAL*    2,4
      00016  0767 00 0 00022         ALS     18
      00017  0622 00 0 00055         STD     BDISKR
      00020 -0500 60 4 00003         CAL*    3,4
      00021  0402 00 0 00131         SUB     =1
      00022  0767 00 0 00022         ALS     18
      00023  0622 00 0 00066         STD     DLDRM
      00024  0760 00 0 00006         COM
      00025  0622 00 0 00071         STD     DLDRO
      00026 -0500 60 4 00004         CAL*    4,4
      00027  0767 00 0 00022         ALS     18
      00030  0622 00 0 00070         STD     DLDRN
      00031  0020 00 4 00005         TRA     5,4
                              *
                              *      GBA     GET BIT ADDRESS - TAKES AC AND GETS WORD ADDRESS
                              *              IN XR 1 AND BIT ADDRESS IN XR 2
                              *
      00032  0131 00 0 00000  GBA    XCA
      00033 -0754 00 0 00000         PXD     0,0
      00034  0221 00 0 00133         DVP     =36
      00035  0737 00 2 00000         PAC     0,2           BIT ADDRESS
      00036 -0500 00 0 00136         CAL     =-0
      00037  0771 00 2 00000         ARS     0,2
      00040 -0130 00 0 00000         XCL
      00041  0020 00 4 00001         TRA     1,4
1                                                                                                PAGE 2

                              *
                              *
                              *      INDEX   TAKES TRACKNO AND CALCULATES WORDADR AND A MASK
                              *              WHICH IS 1 BIT CORRECTLY POSITIONED TO MATCH
                              *              THE TRACK USAGE TABLE CONVENTIONS IN TMAN2A
                              *
                              *      THIS ROUTINE ASSUMES ONE BIG TABLE FOR ALL DISKS
                              *              AND ANOTHER FOR ALL DRUMS
                              *
                              *      CALLING SEQUENCE
                              *      TSX     INDEX,4
                              *      PAR     TRACKNO
                              *      PAR     WORDADR
                              *      PAR     MASK
                              *
      00042  0634 00 2 00107  INDEX  SXA     DSX24,2
      00043 -0634 00 4 00107         SXD     DSX24,4
      00044  0560 60 4 00001         LDQ*    1,4           GET ARGUMENT
      00045 -0754 00 0 00000         PXD     0,0
      00046 -0763 00 0 00006         LGL     6
      00047  0340 00 0 00132         CAS     =10
      00050  0020 00 0 00052         TRA     *+2
      00051 -0754 00 0 00000         PXD     0,0
      00052  0734 00 4 00000         PAX     0,4
      00053  3 00000 4 00055  BDISKQ TXH     *+2,4,BDISKM-1  NOTE THIS IS A TXL IF BDISKM=0
      00054  0074 00 4 00110         TSX     DSERR,4       MODULE NUMBER TOO LOW
      00055  3 00006 4 00066  BDISKR TXH     DLDRM,4,TDISKM          NOT ON DISK, DELETE DRUM TRACK
      00056  0402 00 0 00106         SUB     DSBD
      00057  0074 00 4 00112         TSX     DSDEC+1,4     XXX BEWARE SHABBY PROGRAMMING TRICK
      00060  0074 00 4 00032  DLEXT  TSX     GBA,4
      00061  0534 00 2 00107         LXA     DSX24,2
      00062 -0534 00 4 00107         LXD     DSX24,4
      00063  0602 60 4 00002         SLW*    2,4
      00064 -0600 60 4 00003         STQ*    3,4
      00065  0020 00 4 00004         TRA     4,4
                              *
                              *
      00066  3 00006 4 00070  DLDRM  TXH     *+2,4,BDRUMM-1          CHECK IF MODULE NUMBER
      00067  0074 00 4 00110         TSX     DSERR,4       IN PROPER RANGE
      00070  3 00007 4 00067  DLDRN  TXH     *-1,4,TDRUMM
      00071  1 77771 4 00072  DLDRO  TXI     *+1,4,-BDRUMM
      00072  0634 00 4 00105         SXA     DLDRT,4
      00073  0074 00 4 00111         TSX     DSDEC,4       CONVERT NEXT FOR DEC DIGITS TO BIN
      00074  0340 00 0 00134         CAS     =400          CHECK TO SEE IF TOO BIG
      00075  0761 00 0 00000         NOP
      00076  0074 00 4 00110         TSX     DSERR,4
      00077  0560 00 0 00105         LDQ     DLDRT
      00100  0601 00 0 00105         STO     DLDRT
      00101  0200 00 0 00134         MPY     =400
      00102  0131 00 0 00000         XCA
      00103  0400 00 0 00105         ADD     DLDRT         FORM TABLE ADDRESS
      00104  0020 00 0 00060         TRA     DLEXT         SET BIT AND EXIT
                              *
      00105  0 00000 0 00000  DLDRT  PZE                   TEMP STORAGE
      00106  0 00000 0 00001  DSBD   PZE     BDISKM        BOTTOM DISK MOD
      00107  0 00000 0 00000  DSX24  PZE                   INDEX REGISTER STORAGE
1                                                                                                PAGE 3

                              *
      00110  0000 00 0 00110  DSERR  HTR     *             BAD TRACK ADDRESS HANGUP HERE
                              *
      00111 -0754 00 0 00000  DSDEC  PXD     0,0           CONVERT FOUR CHARACTERS FROM DEC TO BIN
      00112  0774 00 2 00004         AXT     4,2
      00113  0767 00 0 00001  DSD11  ALS     1
      00114  0601 00 0 00130         STO     DSDES
      00115  0767 00 0 00002         ALS     2
      00116  0400 00 0 00130         ADD     DSDES
      00117  0601 00 0 00130         STO     DSDES
      00120 -0754 00 0 00000         PXD     0,0
      00121 -0763 00 0 00006         LGL     6
      00122  0340 00 0 00132         CAS     =10
      00123  0020 00 0 00125         TRA     *+2
      00124 -0754 00 0 00000         PXD     0,0
      00125  0400 00 0 00130         ADD     DSDES
      00126  2 00001 2 00113         TIX     DSD11,2,1
      00127  0020 00 4 00001         TRA     1,4
                              *
      00130  0 00000 0 00000  DSDES  PZE                   TEMP STORAGE
                              *
                                     END

        LITERALS
      00131  000000000001
      00132  000000000012
      00133  000000000044
      00134  000000000620
      00135  000001000000
      00136  400000000000
1                                                                                                PAGE 1
                        POST PROCESSOR ASSEMBLY DATA

        137 IS THE FIRST LOCATION NOT USED BY THIS PROGRAM

0REFERENCES TO DEFINED SYMBOLS
         32    GBA    60
        106   DSBD     3,   56
         66  DLDRM    23,   55
         70  DLDRN    30
         71  DLDRO    25
        105  DLDRT    72,   77,  100,  103
         60  DLEXT   104
        113  DSD11   126
        111  DSDEC    57,   73
        130  DSDES   114,  116,  117,  125
        110  DSERR    54,   67,   76
        107  DSX24    42,   43,   61,   62
         42  INDEX     0
          1 BDISKM     2,   53,  106
         53 BDISKQ     5,   13,   14
         55 BDISKR    17
          7 BDRUMM     2,   66,   71
          2 IINDEX     0
          6 TDISKM     2,   55
          7 TDRUMM     2,   70

0 NO ERROR IN ABOVE ASSEMBLY.


  KEYS   BCD 12/14/70 1513.9     823         00000
1                                                                                                PAGE 1

                       00003         ENTRY   KEYS          KEYS=KEYS.
                       00006         ENTRY   SW            1B=SW.(I)
                       00054         ENTRY   EVSW          ..

        TRANSFER VECTOR
      00000  444751314563     MPRINT

            LINKAGE DIRECTOR
      00001  000000000000
      00002  422570626060

      00003  0760 00 0 00004  KEYS   ENK
      00004  0131 00 0 00000         XCA
      00005  0020 00 4 00001         TRA     1,4
                              *
      00006  0636 00 4 00041  SW     SCA     XR,4          SAVE
      00007 -0500 60 4 00001         CAL*    1,4           GET SWITCH NUMBER
      00010  0737 00 4 00000         PAC     ,4
      00011 -0754 00 0 00000         ZAC
      00012 -3 77771 4 00041         TXL     XR,4,-7       TRA IF BAD NUMBER
      00013  0522 00 4 00065         XEC     TEST,4        EXECUTE SWT
      00014  0020 00 0 00016         TRA     *+2           TRA IF DOWN
      00015 -0500 00 0 00074         CAL     =1
      00016  0602 00 0 00043         SLW     TEMP
      00017 -0340 00 4 00045         LAS     LSW,4         CHECK FOR CHANGE
      00020  0020 00 0 00022         TRA     *+2           CHANGE
      00021  0020 00 0 00036         TRA     OK
      00022  0602 00 4 00045         SLW     LSW,4
      00023  0774 00 4 00006         AXT     6,4           PRINT SWITCHES
      00024 -0754 00 0 00000         ZAC
      00025  0767 00 0 00006         ALS     6             PACK TO ONE WORD
      00026 -0501 00 4 00054         ORA     LSW+7,4
      00027  2 00001 4 00025         TIX     *-2,4,1
      00030  0602 00 0 00044         SLW     PSW
      00031  0074 00 4 00000         TSX     $MPRINT,4
 TD   00032  3 00000 0 00074         TXH     =1
 TD   00033  3 00000 0 00075         TXH     =H0SWS=
 TD   00034  3 00000 0 00044         TXH     PSW
      00035 -0500 00 0 00043         CAL     TEMP
      00036  0767 00 4 00000  OK     ALS     0,4           SET EVER (ALL SWITCHES
      00037 -0602 00 0 00064         ORS     EVER          WHICH HAVE EVER BEEN DOWN)
      00040 -0500 00 0 00043         CAL     TEMP
      00041 -0774 00 4 00000  XR     AXC     ,4
      00042  0020 00 4 00001         TRA     1,4
      00043  0 00000 0 00000  TEMP
      00044  0 00000 0 00000  PSW
      00045                   LSW    BSS     7
                              *
      00054  0636 00 4 00062  EVSW   SCA     XRE,4         SAVE
      00055 -0500 60 4 00001         CAL*    1,4           GET SWITCH NUMBER
      00056  0737 00 4 00000         PAC     ,4
      00057 -0500 00 0 00064         CAL     EVER          GET EVER WORD
      00060  0771 00 4 00000         ARS     0,4
      00061 -0320 00 0 00074         ANA     =1
      00062 -0774 00 4 00000  XRE    AXC     ,4
      00063  0020 00 4 00001         TRA     1,4
1                                                                                                PAGE 2

      00064  0 00000 0 00000  EVER
      00065  0020 00 0 00041  TEST   TRA     XR
                       00066         DUP     1,6
      00066  0760 00 0 00161         SWT     *-TEST
      00067  0760 00 0 00162
      00070  0760 00 0 00163
      00071  0760 00 0 00164
      00072  0760 00 0 00165
      00073  0760 00 0 00166
                                     END

        LITERALS
      00074  000000000001
      00075  006266621360
1                                                                                                PAGE 1
                        POST PROCESSOR ASSEMBLY DATA

         76 IS THE FIRST LOCATION NOT USED BY THIS PROGRAM

0REFERENCES TO DEFINED SYMBOLS
         36     OK    21
          6     SW     0
         41     XR     6,   12,   65
         45    LSW    17,   22,   26
         44    PSW    30,   34
         62    XRE    54
         64   EVER    37,   57
         54   EVSW     0
          3   KEYS     0
         43   TEMP    16,   35,   40
         65   TEST    13,   66,   67,   70,   71,   72,   73
          0 MPRINT    31

0 NO ERROR IN ABOVE ASSEMBLY.


  STOP   BCD 12/14/70 1513.9     179         00000
1                                                                                                PAGE 1

                       00002         ENTRY   STOP

            LINKAGE DIRECTOR
      00000  000000000000
      00001  626346476060

      00002  0636 00 4 00004  STOP   SCA     XR,4
      00003  0000 00 0 00004         HTR     *+1
      00004 -0774 00 4 00000  XR     AXC     ,4
      00005  0020 00 4 00001         TRA     1,4
                                     END
1                                                                                                PAGE 1
                        POST PROCESSOR ASSEMBLY DATA

          6 IS THE FIRST LOCATION NOT USED BY THIS PROGRAM

0REFERENCES TO DEFINED SYMBOLS
          4     XR     2
          2   STOP     0

0 NO ERROR IN ABOVE ASSEMBLY.


  DIOI   BCD 12/14/70 1513.9    1109         00000
1                                  ERRCD=1                                                       PAGE 1

                       00011         ENTRY   DINIT         DINIT.
                       00020         ENTRY   DREAD         DREAD.(TRACK ADR,BUF,BAD ADR RET)
                       00023         ENTRY   DWRIT         AS ABOVE
                       00757         ENTRY   DWAIT         DWAIT.(ERRLOC,ERRCD)
                              *
                                     EXTERN  .DINIT,.DREAD,.DWRIT,.DWAIT,.SETER,ENABLE
                              *

        TRANSFER VECTOR
      00000  332431453163     .DINIT
      00001  332451252124     .DREAD
      00002  332466513163     .DWRIT
      00003  332466213163     .DWAIT
      00004  336225632551     .SETER
      00005  254521224325     ENABLE
      00006  232464444760     CDUMP

            LINKAGE DIRECTOR
      00007  000000000000
      00010  243145316360

      00011  0636 00 4 00016  DINIT  SCA     XRI,4         SAVE IR
      00012  0074 00 4 00000         TSX     .DINIT,4
      00013  0 00000 0 00005                 ENABLE
      00014  0074 00 4 00004         TSX     .SETER,4      SET ERR RETURN
      00015  0 00000 0 00763                 ERRPRG
      00016 -0774 00 4 00000  XRI    AXC     ,4
      00017  0020 00 4 00001         TRA     1,4
                              *
      00020 -0500 00 0 00001  DREAD  CAL     .DREAD
      00021  0600 00 0 00070         STZ     WT
      00022  0020 00 0 00025         TRA     RW
      00023 -0500 00 0 00002  DWRIT  CAL     .DWRIT
      00024 -0625 00 0 00070         STL     WT
      00025  0621 00 0 00056  RW     STA     RWA
      00026  0636 00 4 00061         SCA     XR,4
      00027 -0500 60 4 00001         CAL*    1,4           GET TRACK
      00030  0601 00 0 00065         STO     LIST
      00031  0601 00 0 00071         STO     LIST1
      00032 -0500 00 4 00002         CAL     2,4           GET ADR OF BUF
      00033  0621 00 0 00066         STA     LIST+1
      00034 -0520 00 0 00070         NZT     WT
      00035  0020 00 0 00056         TRA     RWA
      00036  0760 00 0 00166         SWT     6
      00037  0020 00 0 00041         TRA     *+2
      00040  0020 00 0 00053         TRA     ON
      00041  0074 00 4 00001         TSX     .DREAD,4
      00042  0 00000 0 00071                 LIST1
      00043  0 00000 0 00063                 BADADR
      00044  0074 00 4 00003         TSX     .DWAIT,4
      00045 -0500 00 0 00066         CAL     LIST+1
      00046  0621 00 0 00052         STA     P
      00047  0074 00 4 00006         TSX     $CDUMP,4
 TD   00050  3 00000 0 00065         TXH     LIST
 TD   00051  3 00000 0 00074         TXH     TEMPB
 TD   00052  3 00000 0 00000  P      TXH     **
1                                  ERRCD=1                                                       PAGE 2

                       00053  ON     SYN     *
      00053  0760 00 0 00163         SWT     3
      00054  0020 00 0 00056         TRA     *+2
      00055  0020 00 0 00061         TRA     XR
      00056  0074 00 4 00000  RWA    TSX     **,4
      00057  0 00000 0 00065                 LIST
      00060  0 00000 0 00063                 BADADR
      00061 -0774 00 4 00000  XR     AXC     ,4
      00062  0020 00 4 00001         TRA     1,4
                              *
      00063  0535 00 4 00061  BADADR LAC     XR,4
      00064  0020 60 4 00003         TRA*    3,4
                              *
      00065  0 00000 0 00000  LIST   PZE                   TRACK ADR
      00066  2 00663 0 00000         PTW     **,,435
      00067  0 00000 0 00000         PZE
                              *
      00070  0 00000 0 00000  WT
      00071  0 00000 0 00000  LIST1  PZE
      00072  2 00663 0 00074         PTW     TEMPB,,435
      00073  0 00000 0 00000         PZE
      00074                   TEMPB  BSS     435
                              *
      00757  0636 00 4 00761  DWAIT  SCA     XRW,4         SAVE IR
      00760  0074 00 4 00003         TSX     .DWAIT,4      WAIT
      00761 -0774 00 4 00000  XRW    AXC     ,4
      00762  0020 00 4 00001         TRA     1,4
                              *
      00763  0535 00 4 00761  ERRPRG LAC     XRW,4         IF ERROR
      00764 -0340 00 0 00771         LAS     =1            (IGNORE PARITY)
      00765  0020 00 0 00767         TRA     *+2
      00766  0020 00 4 00001         TRA     1,4
      00767  0602 60 4 00002         SLW*    2,4
      00770  0020 60 4 00001         TRA*    1,4           SET ERCODE AND TRA
                                     END

        LITERALS
      00771  000000000001
1                                  ERRCD=1                                                       PAGE 1
                        POST PROCESSOR ASSEMBLY DATA

        772 IS THE FIRST LOCATION NOT USED BY THIS PROGRAM

0REFERENCES TO DEFINED SYMBOLS
         52      P    46
         53     ON    40,   53
         25     RW    22
         70     WT    21,   24,   34
         61     XR    26,   55,   63
         56    RWA    25,   35
         16    XRI    11
        761    XRW   757,  763
         65   LIST    30,   33,   45,   50,   57
          6  CDUMP    47
         11  DINIT     0
         20  DREAD     0
        757  DWAIT     0
         23  DWRIT     0
         71  LIST1    31,   42
         74  TEMPB    51,   72
         63 BADADR    43,   60
          5 ENABLE    13
        763 ERRPRG    15
          0 .DINIT    12
          1 .DREAD    20,   41
          3 .DWAIT    44,  760
          2 .DWRIT    23
          4 .SETER    14

0 NO ERROR IN ABOVE ASSEMBLY.


  CDMP   BCD 12/14/70 1513.9    1252         00000
1     MAD PROGRAM LISTING ... ... ...                 FILE    CDMP   MAD            05/27/67    1400.8
-
                   EXTERNAL FUNCTION (T,OLD,NEW)                                                  *001 LM00001
                  ENTRY TO CDUMP.                                                                 *002 LM00002
                  MPRINT.(1,7777777777K,TRKCV.(T))                                                *003 LM00003
                  THROUGH CL, FOR I=0,1,I.E.435                                                   *004 LM00004
                  OLDW=OLD(1K5-I)                                                                 *005 LM00005
                  NEWW=NEW(1K5-I)                                                                 *006 LM00006
                  WHENEVER OLDW.NE.NEWW,MPRINT.(1,DEFBC.(I+1),SP,                                 *007 LM00007
                1  OCLBC.(OLDW),OCRBC.(OLDW),SP,                                                  *007 LM00008
                2  OCLBC.(NEWW),OCRBC.(NEWW))                                                     *007 LM00009
      CL          CONTINUE                                                                        *008 LM00010
                  FUNCTION RETURN                                                                 *009 LM00011
                  VECTOR VALUES SP=607777777777K                                                  *010 LM00012
                  NORMAL MODE IS INTEGER                                                          *011 LM00013
                  END OF FUNCTION                                                                 *012 LM00014
1MAD PROGRAM,TYPE NOV 1963      (ALL NUMBERS ARE OCTAL)
0TOTAL LOCATIONS   00144 TRANSFER VECTOR LENGTH  00006 PROGRAM BEGINS    00021
0 PROGRAM IS AN EXTERNAL FUNCTION.   THE FOLLOWING ARE ENTRIES
      CDUMP  00022   0
0VARIABLE STORAGE (A=ARRAY,C=COMMON,E=ERASABLE,DIGIT=MODE)
      CL     00006   4        I      00007   1        NEWW   00010   1        OLDW   00011   1        SP     00012 A 1
0FUNCTION DICTIONARY
      DEFBC  00000   1        EXIT   00001   1        MPRINT 00002   1        OCLBC  00003   1        OCRBC  00004   1
      TRKCV  00005   1
0ABSOLUTE CONSTANTS
 00016 +000000100000     00015 +000000000663     00013 +000000000000     00017 +007777777777     00014 +000000000001
 00020 +233000000000
0PROGRAM
                  EXTERNAL FUNCTION (T,OLD,NEW)                                     001  LM00001
                 ENTRY TO CDUMP.                                                    002  LM00002
 00021 TRA +0 02000 0 00024    00022 SXA +0 63400 2 00117    00023 TSX +0 07400 2 00117
                 MPRINT.(1,7777777777K,TRKCV.(T))                                   003  LM00003
 00024 TSX +0 07400 4 00005    00025 TXH +3 00000 0 00024    00026 STO +0 60100 0 00135    00027 TSX +0 07400 4 00002
 00030 TXH +3 00000 0 00014    00031 TXH +3 00000 0 00017    00032 TXH +3 00000 0 00135
                 T'H CL, FOR I=0,1,I.E.435                                          004  LM00004
 00033 CLA +0 50000 0 00013    00034 STO +0 60100 0 00007    00035 TRA +0 02000 0 00041    00036 CLA +0 50000 0 00007
 00037 ADD +0 40000 0 00014    00040 STO +0 60100 0 00007    00041 CLA +0 50000 0 00007    00042 SUB +0 40200 0 00015
 00043 TZE +0 10000 0 00115
                 OLDW=OLD(1K5-I)                                                    005  LM00005
 00044 CLA +0 50000 0 00016    00045 SUB +0 40200 0 00007    00046 PAX +0 73400 2 00000    00047 CLA +0 50000 2 00024
 00050 STO +0 60100 0 00011
                 NEWW=NEW(1K5-I)                                                    006  LM00006
 00051 CLA +0 50000 0 00016    00052 SUB +0 40200 0 00007    00053 PAX +0 73400 2 00000    00054 CLA +0 50000 2 00024
 00055 STO +0 60100 0 00010
                 W'R OLDW.NE.NEWW,MPRINT.(1,DEFBC.(I+1),SP,                         007  LM00007
                1 OCLBC.(OLDW),OCRBC.(OLDW),SP,                                     007  LM00008
                2 OCLBC.(NEWW),OCRBC.(NEWW))                                        007  LM00009
 00056 CLA +0 50000 0 00011    00057 SUB +0 40200 0 00010    00060 TZE +0 10000 0 00114    00061 TSX +0 07400 4 00004
 00062 TXH +3 00000 0 00010    00063 STO +0 60100 0 00135    00064 TSX +0 07400 4 00003    00065 TXH +3 00000 0 00010
 00066 STO +0 60100 0 00136    00067 TSX +0 07400 4 00004    00070 TXH +3 00000 0 00011    00071 STO +0 60100 0 00137
 00072 TSX +0 07400 4 00003    00073 TXH +3 00000 0 00011    00074 STO +0 60100 0 00140    00075 CLA +0 50000 0 00007
 00076 ADD +0 40000 0 00014    00077 STO +0 60100 0 00141    00100 TSX +0 07400 4 00000    00101 TXH +3 00000 0 00141
 00102 STO +0 60100 0 00141    00103 TSX +0 07400 4 00002    00104 TXH +3 00000 0 00014    00105 TXH +3 00000 0 00141
 00106 TXH +3 00000 0 00012    00107 TXH +3 00000 0 00140    00110 TXH +3 00000 0 00137    00111 TXH +3 00000 0 00012
 00112 TXH +3 00000 0 00136    00113 TXH +3 00000 0 00135
      CL         CONTINUE                                                           008  LM00010
 00114 TRA +0 02000 0 00036
                 FUNCTION RETURN                                                    009  LM00011
 00115 TRA +0 02000 0 00131
                 V'S SP=607777777777K                                               010  LM00012
 00012     -2 07777 7 77777
                 NORMAL MODE IS INTEGER                                             011  LM00013
                 END OF FUNCTION                                                    012  LM00014
 00116 TSX +0 07400 4 00001    00117 TXH +3 00000 0 00000    00120 SXD -0 63400 1 00117    00121 SXA +0 63400 4 00131
 00122 CLA +0 50000 4 00001    00123 STO +0 60100 0 00025    00124 CLA +0 50000 4 00002    00125 STA +0 62100 0 00047
 00126 CLA +0 50000 4 00003    00127 STA +0 62100 0 00054    00130 TRA +0 02000 2 00001    00131 AXT +0 77400 4 00000
 00132 LXA +0 53400 2 00117    00133 LXD -0 53400 1 00117    00134 TRA +0 02000 4 00001


  MPRT   BCD 12/14/70 1513.9    1400         00000
1            EXECUTE MPRINT.(MODE,A(1)...A(10),A(10)...A(1),X,B)                                 PAGE 1

                       00004         ENTRY   MPRINT
                                     EXTERN  EPRINT,WTDOUT
                              *      MODE=1 OFFLINE
                              *      MODE=2 ONLINE
                              *      MODE=3 ONLINE AND OFFLINE
                              *      57K ARE IGNORED
                              *      ALWAYS PRINTS ONLINE IF SW5 IS DOWN
                              *

        TRANSFER VECTOR
      00000  254751314563     EPRINT
      00001  666324466463     WTDOUT

            LINKAGE DIRECTOR
      00002  000000000000
      00003  444751314563

      00004  0636 00 4 00111  MPRINT SCA     XR,4          SAVE IR'S
      00005  0760 00 0 00016         LMTM
      00006  0634 00 1 00112         SXA     XR+1,1
      00007  0634 00 2 00113         SXA     XR+2,2
      00010  0634 00 3 00114         SXA     XR+3,3
      00011  0774 00 1 00000         AXT     0,1
      00012  0774 00 2 00024         AXT     20,2
      00013 -0500 00 0 00174         CAL     =O7
      00014  0602 00 0 00146         SLW     AC
      00015 -0500 60 4 00001         CAL*    1,4
      00016  0621 00 0 00145         STA     MODE
      00017  0140 00 0 00017  LOOP   TOV     *
      00020  2 10000 1 00057         TIX     P1,1,1*4096
      00021  0520 00 0 00147         ZET     UP
      00022  1 77777 3 00024         TXI     *+2,3,-1
      00023  1 00001 3 00024         TXI     *+1,3,1
      00024  2 00001 1 00055         TIX     P2,1,1
      00025  1 77777 4 00026         TXI     *+1,4,-1
      00026 -0500 00 4 00001         CAL     1,4
      00027 -0320 00 0 00202         ANA     =O700000000000
      00030  0322 00 0 00200         ERA     =O200000000000
      00031  0100 00 0 00041         TZE     TWO
      00032  0322 00 0 00177         ERA     =O100000000000
      00033  0100 00 0 00035         TZE     THR
      00034  0020 00 0 00074         TRA     OUT
      00035 -0500 00 4 00001  THR    CAL     1,4
      00036  0737 00 3 00000         PAC     ,3
      00037  0774 00 1 00001         AXT     1,1
      00040  0020 00 0 00055         TRA     P2
      00041  0560 00 4 00001  TWO    LDQ     1,4
      00042 -0773 00 0 00022         RQL     18
      00043 -0600 00 0 00144         STQ     TEMP
      00044 -0500 00 4 00001         CAL     1,4
      00045  0737 00 3 00000         PAC     ,3
      00046 -0320 00 0 00176         ANA     =O077777077777
      00047  0402 00 0 00144         SUB     TEMP
      00050 -0734 00 1 00000         PDX     ,1
      00051  1 00001 1 00052         TXI     *+1,1,1
      00052  0600 00 0 00147         STZ     UP
1            EXECUTE MPRINT.(MODE,A(1)...A(10),A(10)...A(1),X,B)                                 PAGE 2

      00053 -0120 00 0 00055         TMI     *+2
      00054 -0625 00 0 00147         STL     UP
      00055  0560 00 3 00000  P2     LDQ     0,3
      00056  1 50000 1 00057         TXI     *+1,1,5*4096
      00057 -0500 00 0 00146  P1     CAL     AC
      00060 -0763 00 0 00006         LGL     6
      00061  0044 00 0 00000         PAI
      00062  0322 00 0 00175         ERA     =O77
      00063 -0320 00 0 00175         ANA     =O77
      00064  0100 00 0 00017         TZE     LOOP
      00065  0604 00 0 00146         STI     AC
      00066 -0140 00 0 00017         TNO     LOOP
      00067  0604 00 2 00174         STI     BUF+20,2
      00070 -0500 00 0 00174         CAL     =O7
      00071  0602 00 0 00146         SLW     AC
      00072  2 00001 2 00017         TIX     LOOP,2,1
      00073  0020 00 0 00101         TRA     WT
      00074  0560 00 0 00201  OUT    LDQ     =H
      00075 -0500 00 0 00146         CAL     AC
      00076 -0763 00 0 00006         LGL     6
      00077 -0140 00 0 00076         TNO     *-1
      00100  0602 00 2 00174         SLW     BUF+20,2
      00101  1 77777 2 00102  WT     TXI     *+1,2,-1
      00102  0754 00 2 00000         PXA     ,2
      00103  0737 00 2 00000         PAC     ,2
      00104  1 00024 2 00105         TXI     *+1,2,20
      00105 -0634 00 2 00116         SXD     IOCD,2
      00106  0074 00 4 00117         TSX     OUTPUT,4
      00107  0 00000 0 00145                 MODE
      00110  0 00000 0 00116                 IOCD
      00111 -0774 00 4 00000  XR     AXC     ,4
      00112  0774 00 1 00000         AXT     ,1
      00113  0774 00 2 00000         AXT     ,2
      00114  0774 00 3 00000         AXT     ,3
      00115  0020 00 4 00001         TRA     1,4
      00116  0 00000 0 00150  IOCD   IOCD    BUF,,**
                              *
      00117  0636 00 4 00142  OUTPUT SCA     XRO,4
      00120  0441 60 4 00001         LDI*    1,4
      00121 -0500 60 4 00002         CAL*    2,4
      00122  0602 00 0 00141         SLW     PAR
      00123  0602 00 0 00135         SLW     PAR1
      00124  0054 00  000003         RFT     3
      00125  0020 00 0 00127         TRA     *+2
      00126  0055 00  000001         SIR     1
      00127  0760 00 0 00165         SWT     5
      00130  0020 00 0 00132         TRA     *+2
      00131  0055 00  000002         SIR     2
      00132  0056 00  000001         RNT     1
      00133  0020 00 0 00136         TRA     P3
      00134  0074 00 4 00001         TSX     WTDOUT,4
      00135  0 00000 0 00000  PAR1
      00136  0056 00  000002  P3     RNT     2
      00137  0020 00 0 00142         TRA     XRO
      00140  0074 00 4 00000         TSX     EPRINT,4
      00141  0 00000 0 00000  PAR
1            EXECUTE MPRINT.(MODE,A(1)...A(10),A(10)...A(1),X,B)                                 PAGE 3

      00142 -0774 00 4 00000  XRO    AXC     ,4
      00143  0020 00 4 00003         TRA     3,4
      00144  0 00000 0 00000  TEMP
      00145  0 00000 0 00000  MODE
      00146  0 00000 0 00000  AC
      00147  0 00000 0 00000  UP
      00150                   BUF    BSS     20
                                     END

        LITERALS
      00174  000000000007
      00175  000000000077
      00176  077777077777
      00177  100000000000
      00200  200000000000
      00201  606060606060
      00202  700000000000
1            EXECUTE MPRINT.(MODE,A(1)...A(10),A(10)...A(1),X,B)                                 PAGE 1
                        POST PROCESSOR ASSEMBLY DATA

        203 IS THE FIRST LOCATION NOT USED BY THIS PROGRAM

0REFERENCES TO DEFINED SYMBOLS
        146     AC    14,   57,   65,   71,   75
         57     P1    20
         55     P2    24,   40
        136     P3   133
        147     UP    21,   52,   54
        101     WT    73
        111     XR     4,    6,    7,   10
        150    BUF    67,  100,  116
         74    OUT    34
        141    PAR   122
         35    THR    33
         41    TWO    31
        142    XRO   117,  137
        116   IOCD   105,  110
         17   LOOP    64,   66,   72
        145   MODE    16,  107
        135   PAR1   123
        144   TEMP    43,   47
          0 EPRINT   140
          4 MPRINT     0
        117 OUTPUT   106
          1 WTDOUT   134

0 NO ERROR IN ABOVE ASSEMBLY.


  SETP   BCD 12/14/70 1513.9     231         00000
1                                                                                                PAGE 1

                       00002         ENTRY   .SETUP

            LINKAGE DIRECTOR
      00000  000000000000
      00001  336225636447

      00002  0636 00 4 00007  .SETUP SCA     XR,4
      00003 -0500 00 0 00011         CAL     TRA
      00004  0602 00 0 00000         SLW     0
      00005  0000 00 0 00006         HTR     *+1
      00006  0760 00 0 00016  RS     LMTM
      00007 -0774 00 4 00000  XR     AXC     ,4
      00010  0020 00 4 00001         TRA     1,4
                              *
      00011  0020 00 0 00006  TRA    TRA     RS
                                     END
1                                                                                                PAGE 1
                        POST PROCESSOR ASSEMBLY DATA

         12 IS THE FIRST LOCATION NOT USED BY THIS PROGRAM

0REFERENCES TO DEFINED SYMBOLS
          6     RS    11
          7     XR     2
         11    TRA     3
          2 .SETUP     0

0 NO ERROR IN ABOVE ASSEMBLY.


  .RST   BCD 12/14/70 1513.9     228         00000
1            FOR SINGLE SAVE RESTOR RETURN (MAD)                                                 PAGE 1

                       00002         ENTRY   .RSTRN
                       00005         ENTRY   .SAVRN

            LINKAGE DIRECTOR
      00000  000000000000
      00001  335162635145

      00002 -0500 00 0 00010  .RSTRN CAL     TEMP
      00003  0602 60 4 00001         SLW*    1,4
      00004  0020 00 4 00003         TRA     3,4
                              *
      00005 -0500 60 4 00001  .SAVRN CAL*    1,4
      00006  0602 00 0 00010         SLW     TEMP
      00007  0020 00 4 00003         TRA     3,4
      00010  0 00000 0 00000  TEMP
                                     END
1            FOR SINGLE SAVE RESTOR RETURN (MAD)                                                 PAGE 1
                        POST PROCESSOR ASSEMBLY DATA

         11 IS THE FIRST LOCATION NOT USED BY THIS PROGRAM

0REFERENCES TO DEFINED SYMBOLS
         10   TEMP     2,    6
          2 .RSTRN     0
          5 .SAVRN     0

0 NO ERROR IN ABOVE ASSEMBLY.


  LIBE   BCD 12/14/70 1513.9      46         00000
LINK TSLIB1 BSS M1416 CMFL02__
EXTBSS TSLIB1 BCDEC_____
EXTBSS TSLIB1 BZEL
EXTBSS TSLIB1 DEFBC_____
EXTBSS TSLIB1 OCABC_____
UNLINK TSLIB1 BSS_
COMBIN * LIBE BSS BCDEC BZEL DEFBC OCABC__
DELETE BCDEC BSS BZEL BSS DEFBC BSS OCABC BSS___


SORT4A   BCD 12/14/70 1520.3   77566         00000


 SORTM   BCD 12/14/70 1515.4    2829         00000
1     MAD PROGRAM LISTING ... ... ...                 FILE   SORTM   MAD            05/27/67    1416.8
-
                   MAIN PROGRAM TO SORT MFD                                                            LM00001
                  DINIT.                                                                          *001 LM00002
                  RSTUT.(2)                                                                       *002 LM00003
                  RDTUT.(1)                                                                       *003 LM00004
                   READ MFD INTO A                                                                     LM00005
                  SRHMFD.(1,MREL,MFD,$M.F.D.$,$(FILE)$,ERR)                                       *004 LM00006
                  OPEN.(2,MFD)                                                                    *005 LM00007
                  REL=4                                                                           *006 LM00008
                  NAA=NA-7                                                                        *007 LM00009
                  THROUGH RL, FOR I=0,7,I.G.NAA                                                   *008 LM00010
                  WHENEVER SW.(1), TRANSFER TO END                                                *009 LM00011
                  READ.(2,REL,ERR,ERC,EOFR,A(I),7)                                                *010 LM00012
                  REL=REL+7                                                                       *011 LM00013
      RL          CONTINUE                                                                        *012 LM00014
                  MPRINT.(3,$ MFD TOO LONG$)                                                      *013 LM00015
                  TRANSFER TO END                                                                 *014 LM00016
      EOFR        N=I                                                                             *015 LM00017
                   NOW SORT MFD                                                                        LM00018
                  SORT.(N,A,M,B,END)                                                              *016 LM00019
                   NOW WRITE IT BACK                                                                   LM00020
                  WRITE.(2,4,ERW,ERC,EOFW,B,M)                                                    *017 LM00021
                  WHENEVER M.NE.N, TRUNC.(2,M+4,ERW,ERC,EOFW)                                     *018 LM00022
                  CLOSE.(2,MFD,ERW,ERC,MCH)                                                       *019 LM00023
                  WHENEVER MCH                                                                    *020 LM00024
                       COMBIN.(ENT,MFD)                                                           *021 LM00025
                       SRHMFD.(1,MREL,MFD,$M.F.D.$,$(FILE)$,ERW)                                  *022 LM00026
                       WRITE.(1,MREL,ERW,ERC,EOFW,ENT,7)                                          *023 LM00027
                       CLOSE.(1,MFD,ERW,ERC,MCH)                                                  *024 LM00028
                  END OF CONDITIONAL                                                              *025 LM00029
                  MPRINT.(3,$ SORT FINISHED$)                                                     *026 LM00030
      END         EXIT.                                                                           *027 LM00031
                                                                                                       LM00032
      ERW         MPRINT.(3,$ ERROR WRITING$)                                                     *028 LM00033
                  TRANSFER TO END                                                                 *029 LM00034
                                                                                                       LM00035
      ERR         MPRINT.(3,$ ERROR READING$)                                                     *030 LM00036
                  TRANSFER TO END                                                                 *031 LM00037
                                                                                                       LM00038
                  DIMENSION MFD(20),ENT(10),A(5000),B(5000)                                       *032 LM00039
                  VECTOR VALUES NA=5000                                                           *033 LM00040
                  NORMAL MODE IS INTEGER                                                          *034 LM00041
                  BOOLEAN MCH,SW                                                                  *035 LM00042
                  END OF PROGRAM                                                                  *036 LM00043
1MAD PROGRAM,TYPE NOV 1963      (ALL NUMBERS ARE OCTAL)
0TOTAL LOCATIONS   23756 TRANSFER VECTOR LENGTH  00017 PROGRAM BEGINS    23543
0VARIABLE STORAGE (A=ARRAY,C=COMMON,E=ERASABLE,DIGIT=MODE)
      A      11634 A 1        EOFR   00021   4        ERW    00023   4        MREL   23512   1        N      23516   1
      B      23445 A 1        EOFW   23461   1        I      23463   1        M      23513   1        REL    23517   1
      END    00020   4        ERC    23462   1        MCH    23464   2        NAA    23514   1        RL     00017   4
      ENT    23460 A 1        ERR    00022   4        MFD    23511 A 1        NA     23515 A 1
0FUNCTION DICTIONARY
      CLOSE  00000   1        COMBIN 00001   1        DINIT  00002   1        EXIT   00003   1        .SETUP 00004   1
      MPRINT 00005   1        OPEN   00006   1        RDTUT  00007   1        READ   00010   1        RSTUT  00011   1
      SORT   00012   1        SRHMFD 00013   1        SW     00014   2        TRUNC  00015   1        WRITE  00016   1
0ABSOLUTE CONSTANTS
 23537 -205125212431     23533 -052760606060     23541 -206651316331     23535 -202551514651     23527 +252460606060
 23530 +263145316230     23540 -206246516360     23531 +276060606060     23534 -064660434645     23536 -204426246063
 23523 +000000000003     23520 +000000000000     23525 +000000000007     23524 +000000000004     23542 -342631432534
 23532 -043326332433     23522 +000000000002     23521 +000000000001     23526 +233000000000
0STATEMENT DICTIONARY
 00020 TXL -323736023735       00021 TXL -323636023634       00022 TXL -323751023744       00023 TXL -323743023736
0PROGRAM
                 DINIT.                                                             001  LM00002
 23543 TSX +0 07400 4 00004    23544 TSX +0 07400 4 00002
                 RSTUT.(2)                                                          002  LM00003
 23545 TSX +0 07400 4 00011    23546 TXH +3 00000 0 23522
                 RDTUT.(1)                                                          003  LM00004
 23547 TSX +0 07400 4 00007    23550 TXH +3 00000 0 23521
                 SRHMFD.(1,MREL,MFD,$M.F.D.$,$(FILE)$,ERR)                          004  LM00006
 23551 TSX +0 07400 4 00013    23552 TXH +3 00000 0 23521    23553 TXH +3 00000 0 23512    23554 TXH +3 00000 0 23511
 23555 TXH +3 00000 0 23532    23556 TXH +3 00000 0 23542    23557 TXH +3 00000 0 00022
                 OPEN.(2,MFD)                                                       005  LM00007
 23560 TSX +0 07400 4 00006    23561 TXH +3 00000 0 23522    23562 TXH +3 00000 0 23511
                 REL=4                                                              006  LM00008
 23563 CLA +0 50000 0 23524    23564 STO +0 60100 0 23517
                 NAA=NA-7                                                           007  LM00009
 23565 CLA +0 50000 0 23515    23566 SUB +0 40200 0 23525    23567 STO +0 60100 0 23514
                 T'H RL, FOR I=0,7,I.G.NAA                                          008  LM00010
 23570 CLA +0 50000 0 23520    23571 STO +0 60100 0 23463    23572 TRA +0 02000 0 23576    23573 CLA +0 50000 0 23463
 23574 ADD +0 40000 0 23525    23575 STO +0 60100 0 23463    23576 CLA +0 50000 0 23463    23577 SUB +0 40200 0 23514
 23600 TZE +0 10000 0 23602    23601 TPL +0 12000 0 23626
                 W'R SW.(1), T'O END                                                009  LM00011
 23602 TSX +0 07400 4 00014    23603 TXH +3 00000 0 23521    23604 TZE +0 10000 0 23606    23605 TRA +0 02000 0 00020
                 READ.(2,REL,ERR,ERC,EOFR,A(I),7)                                   010  LM00012
 23606 CLA +0 50000 0 23463    23607 SUB +0 40200 0 23610    23610 TXH +3 00000 0 11634    23611 STA +0 62100 0 23620
 23612 TSX +0 07400 4 00010    23613 TXH +3 00000 0 23522    23614 TXH +3 00000 0 23517    23615 TXH +3 00000 0 00022
 23616 TXH +3 00000 0 23462    23617 TXH +3 00000 0 00021    23620 TXH +3 00000 0 00000    23621 TXH +3 00000 0 23525
                 REL=REL+7                                                          011  LM00013
 23622 CLA +0 50000 0 23517    23623 ADD +0 40000 0 23525    23624 STO +0 60100 0 23517
      RL         C'E                                                                012  LM00014
 23625 TRA +0 02000 0 23573
                 MPRINT.(3,$ MFD TOO LONG$)                                         013  LM00015
 23626 TSX +0 07400 4 00005    23627 TXH +3 00000 0 23523    23630 TXH +3 00000 0 23536    23631 TXH +3 00000 0 23534
 23632 TXH +3 00000 0 23531
                 T'O END                                                            014  LM00016
 23633 TRA +0 02000 0 00020
      EOFR       N=I                                                                015  LM00017
 23634 CLA +0 50000 0 23463    23635 STO +0 60100 0 23516
                 SORT.(N,A,M,B,END)                                                 016  LM00019
 23636 TSX +0 07400 4 00012    23637 TXH +3 00000 0 23516    23640 TXH +3 00000 0 11634    23641 TXH +3 00000 0 23513
 23642 TXH +3 00000 0 23445    23643 TXH +3 00000 0 00020
                 WRITE.(2,4,ERW,ERC,EOFW,B,M)                                       017  LM00021
 23644 TSX +0 07400 4 00016    23645 TXH +3 00000 0 23522    23646 TXH +3 00000 0 23524    23647 TXH +3 00000 0 00023
 23650 TXH +3 00000 0 23462    23651 TXH +3 00000 0 23461    23652 TXH +3 00000 0 23445    23653 TXH +3 00000 0 23513
                 W'R M.NE.N, TRUNC.(2,M+4,ERW,ERC,EOFW)                             018  LM00022
 23654 CLA +0 50000 0 23513    23655 SUB +0 40200 0 23516    23656 TZE +0 10000 0 23670    23657 CLA +0 50000 0 23513
 23660 ADD +0 40000 0 23524    23661 STO +0 60100 0 23753    23662 TSX +0 07400 4 00015    23663 TXH +3 00000 0 23522
 23664 TXH +3 00000 0 23753    23665 TXH +3 00000 0 00023    23666 TXH +3 00000 0 23462    23667 TXH +3 00000 0 23461
                 CLOSE.(2,MFD,ERW,ERC,MCH)                                          019  LM00023
 23670 TSX +0 07400 4 00000    23671 TXH +3 00000 0 23522    23672 TXH +3 00000 0 23511    23673 TXH +3 00000 0 00023
 23674 TXH +3 00000 0 23462    23675 TXH +3 00000 0 23464
                 W'R MCH                                                            020  LM00024
 23676 NZT -0 52000 0 23464    23677 TRA +0 02000 0 23730
                      COMBIN.(ENT,MFD)                                              021  LM00025
 23700 TSX +0 07400 4 00001    23701 TXH +3 00000 0 23460    23702 TXH +3 00000 0 23511
                      SRHMFD.(1,MREL,MFD,$M.F.D.$,$(FILE)$,ERW)                     022  LM00026
 23703 TSX +0 07400 4 00013    23704 TXH +3 00000 0 23521    23705 TXH +3 00000 0 23512    23706 TXH +3 00000 0 23511
 23707 TXH +3 00000 0 23532    23710 TXH +3 00000 0 23542    23711 TXH +3 00000 0 00023
                      WRITE.(1,MREL,ERW,ERC,EOFW,ENT,7)                             023  LM00027
 23712 TSX +0 07400 4 00016    23713 TXH +3 00000 0 23521    23714 TXH +3 00000 0 23512    23715 TXH +3 00000 0 00023
 23716 TXH +3 00000 0 23462    23717 TXH +3 00000 0 23461    23720 TXH +3 00000 0 23460    23721 TXH +3 00000 0 23525
                      CLOSE.(1,MFD,ERW,ERC,MCH)                                     024  LM00028
 23722 TSX +0 07400 4 00000    23723 TXH +3 00000 0 23521    23724 TXH +3 00000 0 23511    23725 TXH +3 00000 0 00023
 23726 TXH +3 00000 0 23462    23727 TXH +3 00000 0 23464
                 E'L                                                                025  LM00029
                 MPRINT.(3,$ SORT FINISHED$)                                        026  LM00030
 23730 TSX +0 07400 4 00005    23731 TXH +3 00000 0 23523    23732 TXH +3 00000 0 23540    23733 TXH +3 00000 0 23530
 23734 TXH +3 00000 0 23527
      END        EXIT.                                                              027  LM00031
 23735 TSX +0 07400 4 00003
      ERW        MPRINT.(3,$ ERROR WRITING$)                                        028  LM00033
 23736 TSX +0 07400 4 00005    23737 TXH +3 00000 0 23523    23740 TXH +3 00000 0 23535    23741 TXH +3 00000 0 23541
 23742 TXH +3 00000 0 23533
                 T'O END                                                            029  LM00034
 23743 TRA +0 02000 0 00020
      ERR        MPRINT.(3,$ ERROR READING$)                                        030  LM00036
 23744 TSX +0 07400 4 00005    23745 TXH +3 00000 0 23523    23746 TXH +3 00000 0 23535    23747 TXH +3 00000 0 23537
 23750 TXH +3 00000 0 23533
                 T'O END                                                            031  LM00037
 23751 TRA +0 02000 0 00020
                 DIMENSION MFD(20),ENT(10),A(5000),B(5000)                          032  LM00039
                 V'S NA=5000                                                        033  LM00040
 23515     +0 00000 0 11610
                 NORMAL MODE IS INTEGER                                             034  LM00041
                 BOOLEAN MCH,SW                                                     035  LM00042
                 END OF PROGRAM                                                     036  LM00043
 23752 TSX +0 07400 4 00003


  SORT   BCD 12/14/70 1515.4    3874         00000
1     MAD PROGRAM LISTING ... ... ...                 FILE    SORT   MAD            05/27/67    1415.1
-
                      PROGRAM TO RE-ARRANGE THE M.F.D. INTO A                                          LM00001
                      PRESCRIBED ORDER                                                                 LM00002
                           D.R. WIDRIG  APRIL 1966                                                     LM00003
                                                                                                       LM00004
                  EXTERNAL FUNCTION (N,IN,M,OUT,FAIL)                                             *001 LM00005
                  ENTRY TO SORT.                                                                  *002 LM00006
                                                                                                       LM00007
                  NORMAL MODE IS INTEGER                                                          *003 LM00008
                  DIMENSION CARD(14)                                                              *004 LM00009
                  EQUIVALENCE (PB,CARD(14)),(PG,CARD(13))                                         *005 LM00010
                  BOOLEAN FAILSW,SW.                                                              *006 LM00011
                  STATEMENT LABEL FAIL                                                            *007 LM00012
                                                                                                       LM00013
                  VECTOR VALUES PB = $M.F.D.$                                                     *008 LM00014
                  VECTOR VALUES PG = $(FILE)$                                                     *009 LM00015
                                                                                                       LM00016
                      SET SWITCHES AND INITIAL VALUES                                                  LM00017
                                                                                                       LM00018
                  FAILSW = 0B                                                                     *010 LM00019
                  K = - 6                                                                         *011 LM00020
                  TRANSFER TO INIT                                                                *012 LM00021
                                                                                                       LM00022
                      PICK UP NEXT ENTRY TO BE PLACED IN SORTED M.F.D.                                 LM00023
                                                                                                       LM00024
      READ        RDIN.(CARD(14),14,ENDINP)                                                       *013 LM00025
                  WHENEVER ((PB.A.77K).E.60K), PB = (CARD(14).RS.6) .V. $ 00000$                  *014 LM00026
                  WHENEVER PB .E. $ STOP $, TRANSFER TO ENDINP                                    *015 LM00027
                  WHENEVER SW.(1), EXIT.                                                          *016 LM00028
                                                                                                       LM00029
                      SEARCH FOR ENTRY IN UNSORTED M.F.D.                                              LM00030
                                                                                                       LM00031
      INIT        THROUGH LOOP2, FOR I = 1,7,(I.GE.N)                                             *017 LM00032
                       WHENEVER (IN(I).NE.PB).OR.(IN(I+1).NE.PG), TRANSFER TO LOOP2               *018 LM00033
                                                                                                       LM00034
                      FOUND ENTRY, MOVE IT TO SORTED M.F.D.                                            LM00035
                                                                                                       LM00036
                       K = K + 7                                                                  *019 LM00037
                       THROUGH LOOP1, FOR J = 0,1,(J.GE.7)                                        *020 LM00038
                            OUT(K+J) = IN(I+J)                                                    *021 LM00039
      LOOP1            CONTINUE                                                                   *022 LM00040
                                                                                                       LM00041
                      CLEAR UNSORTED M.F.D. ENTRY                                                      LM00042
                                                                                                       LM00043
                       OUT(K+4) = (OUT(K+4) .A. 7777777777K) .V. 21K10                            *023 LM00044
                       IN(I) = 0                                                                  *024 LM00045
                       IN(I+1) = 0                                                                *025 LM00046
                       TRANSFER TO READ                                                           *026 LM00047
      LOOP2       CONTINUE                                                                        *027 LM00048
                                                                                                       LM00049
                      NOT FOUND, ANNOUNCE THIS FACT                                                    LM00050
                                                                                                       LM00051
                  MPRINT.(3,$0ENTRY$,PB,PG,$ NOT FOUND IN M.F.D.$)                                *028 LM00052
                  TRANSFER TO READ                                                                *029 LM00053
                                                                                                       LM00054
                      END OF INPUT, SEE IF ANYBODY MISSED                                              LM00055
                                                                                                       LM00056
      ENDINP      THROUGH LOOP3, FOR I = 1,7,(I.GE.N)                                             *030 LM00057
                       WHENEVER (IN(I).NE.0).OR.(IN(I+1).NE.0)                                    *031 LM00058
                            MPRINT.(3,$0ENTRY$,IN(I),IN(I+1),                                     *032 LM00059
                1                $ MISSING FROM INPUT DECK$)                                      *032 LM00060
                            FAILSW = 1B                                                           *033 LM00061
                       END OF CONDITIONAL                                                         *034 LM00062
      LOOP3       CONTINUE                                                                        *035 LM00063
                                                                                                       LM00064
                      SEE IF ALL IS IN ORDER                                                           LM00065
                                                                                                       LM00066
                  WHENEVER FAILSW                                                                 *036 LM00067
                       TRANSFER TO FAIL                                                           *037 LM00068
                  OTHERWISE                                                                       *038 LM00069
                       M = K + 6                                                                  *039 LM00070
                       FUNCTION RETURN                                                            *040 LM00071
                  END OF CONDITIONAL                                                              *041 LM00072
                                                                                                       LM00073
                  END OF FUNCTION                                                                 *042 LM00074
1MAD PROGRAM,TYPE NOV 1963      (ALL NUMBERS ARE OCTAL)
0TOTAL LOCATIONS   00361 TRANSFER VECTOR LENGTH  00004 PROGRAM BEGINS    00063
0 PROGRAM IS AN EXTERNAL FUNCTION.   THE FOLLOWING ARE ENTRIES
      SORT   00064   0
0VARIABLE STORAGE (A=ARRAY,C=COMMON,E=ERASABLE,DIGIT=MODE)
      CARD   00023 A 1        INIT   00025   4        K      00033   1        LOOP3  00004   4        PG     00006 A 1
      ENDINP 00024   4        I      00031   1        LOOP1  00004   4        PB     00005 A 1        READ   00027   4
      FAILSW 00030   2        J      00032   1        LOOP2  00026   4
0FUNCTION DICTIONARY
      EXIT   00000   1        MPRINT 00001   1        RDIN   00002   1        SW     00003   2
0ABSOLUTE CONSTANTS
 00062 -236024252342     00052 -046031454764     00053 -052760265146     00057 -204431626231     00051 +243360606060
 00054 -056044332633     00055 -066445246031     00060 -204546636026     00045 +002545635170     00036 +000000000003
 00047 +210000000000     00046 +007777777777     00037 +000000000004     00041 +000000000007     00061 -206263464760
 00056 -200000000000     00043 +000000000060     00044 +000000000077     00042 +000000000016     00040 +000000000006
 00034 +000000000000     00035 +000000000001     00050 +233000000000
0STATEMENT DICTIONARY
 00024 TXL -300251000237       00025 TXL -300135000123       00026 TXL -300225000224       00027 TXL -300077000073
0PROGRAM
                 EXTERNAL FUNCTION (N,IN,M,OUT,FAIL)                                001  LM00005
                 E'O SORT.                                                          002  LM00006
 00063 TRA +0 02000 0 00066    00064 SXA +0 63400 2 00321    00065 TSX +0 07400 2 00321
                 N'R                                                                003  LM00008
                 D'N CARD(14)                                                       004  LM00009
                 E'E (PB,CARD(14)),(PG,CARD(13))                                    005  LM00010
                 B'N FAILSW,SW.                                                     006  LM00011
                 S'L FAIL                                                           007  LM00012
                 V'S PB = $M.F.D.$                                                  008  LM00014
 00005     -0 43326 3 32433
                 V'S PG = $(FILE)$                                                  009  LM00015
 00006     -3 42631 4 32534
                 FAILSW = 0B                                                        010  LM00019
 00066 CLA +0 50000 0 00034    00067 STO +0 60100 0 00030
                 K = - 6                                                            011  LM00020
 00070 CLS +0 50200 0 00040    00071 STO +0 60100 0 00033
                 T'O INIT                                                           012  LM00021
 00072 TRA +0 02000 0 00025
      READ       RDIN.(CARD(14),14,ENDINP)                                          013  LM00025
 00073 TSX +0 07400 4 00002    00074 TXH +3 00000 0 00005    00075 TXH +3 00000 0 00042    00076 TXH +3 00000 0 00024
                 W'R ((PB.A.77K).E.60K), PB = (CARD(14).RS.6) .V. $ 00000$          014  LM00026
 00077 CAL -0 50000 0 00005    00100 ANA -0 32000 0 00044    00101 SLW +0 60200 0 00356    00102 CLA +0 50000 0 00356
 00103 SUB +0 40200 0 00043    00104 TNZ -0 10000 0 00113    00105 CAL -0 50000 0 00040    00106 STA +0 62100 0 00110
 00107 CAL -0 50000 0 00005    00110 LGR -0 76500 0 00000    00111 ORA -0 50100 0 00056    00112 SLW +0 60200 0 00005
                 W'R PB .E. $ STOP $, T'O ENDINP                                    015  LM00027
 00113 CLA +0 50000 0 00005    00114 SUB +0 40200 0 00061    00115 TNZ -0 10000 0 00117    00116 TRA +0 02000 0 00024
                 W'R SW.(1), EXIT.                                                  016  LM00028
 00117 TSX +0 07400 4 00003    00120 TXH +3 00000 0 00035    00121 TZE +0 10000 0 00123    00122 TSX +0 07400 4 00000
      INIT       T'H LOOP2, FOR I = 1,7,(I.GE.N)                                    017  LM00032
 00123 CLA +0 50000 0 00035    00124 STO +0 60100 0 00031    00125 TRA +0 02000 0 00131    00126 CLA +0 50000 0 00031
 00127 ADD +0 40000 0 00041    00130 STO +0 60100 0 00031    00131 CLA +0 50000 0 00031    00132 SUB +0 40200 0 00024
 00133 TZE +0 10000 0 00225    00134 TPL +0 12000 0 00225
                      W'R (IN(I).NE.PB).OR.(IN(I+1).NE.PG), T'O LOOP2               018  LM00033
 00135 CLA +0 50000 0 00031    00136 ADD +0 40000 0 00035    00137 PAX +0 73400 1 00000    00140 CLA +0 50000 1 00024
 00141 SUB +0 40200 0 00006    00142 TNZ -0 10000 0 00147    00143 LXA +0 53400 1 00031    00144 CLA +0 50000 1 00024
 00145 SUB +0 40200 0 00005    00146 TZE +0 10000 0 00150    00147 TRA +0 02000 0 00026
                      K = K + 7                                                     019  LM00037
 00150 CLA +0 50000 0 00033    00151 ADD +0 40000 0 00041    00152 STO +0 60100 0 00033
                      T'H LOOP1, FOR J = 0,1,(J.GE.7)                               020  LM00038
 00153 CLA +0 50000 0 00034    00154 STO +0 60100 0 00032    00155 TRA +0 02000 0 00161    00156 CLA +0 50000 0 00032
 00157 ADD +0 40000 0 00035    00160 STO +0 60100 0 00032    00161 CLA +0 50000 0 00032    00162 SUB +0 40200 0 00041
 00163 TZE +0 10000 0 00177    00164 TPL +0 12000 0 00177
                           OUT(K+J) = IN(I+J)                                       021  LM00039
 00165 CLA +0 50000 0 00031    00166 ADD +0 40000 0 00032    00167 STO +0 60100 0 00356    00170 CLA +0 50000 0 00033
 00171 ADD +0 40000 0 00032    00172 PAX +0 73400 1 00000    00173 LXA +0 53400 2 00356    00174 CLA +0 50000 2 00024
 00175 STO +0 60100 1 00024
      LOOP1           C'E                                                           022  LM00040
 00176 TRA +0 02000 0 00156
                      OUT(K+4) = (OUT(K+4) .A. 7777777777K) .V. 21K10               023  LM00044
 00177 CLA +0 50000 0 00033    00200 ADD +0 40000 0 00037    00201 PAX +0 73400 1 00000    00202 CAL -0 50000 1 00024
 00203 ANA -0 32000 0 00046    00204 ORA -0 50100 0 00047    00205 SLW +0 60200 0 00356    00206 CLA +0 50000 0 00033
 00207 ADD +0 40000 0 00037    00210 PAX +0 73400 1 00000    00211 CLA +0 50000 0 00356    00212 STO +0 60100 1 00024
                      IN(I) = 0                                                     024  LM00045
 00213 LXA +0 53400 1 00031    00214 CLA +0 50000 0 00034    00215 STO +0 60100 1 00024
                      IN(I+1) = 0                                                   025  LM00046
 00216 CLA +0 50000 0 00031    00217 ADD +0 40000 0 00035    00220 PAX +0 73400 1 00000    00221 CLA +0 50000 0 00034
 00222 STO +0 60100 1 00024
                      T'O READ                                                      026  LM00047
 00223 TRA +0 02000 0 00027
      LOOP2      C'E                                                                027  LM00048
 00224 TRA +0 02000 0 00126
                 MPRINT.(3,$0ENTRY$,PB,PG,$ NOT FOUND IN M.F.D.$)                   028  LM00052
 00225 TSX +0 07400 4 00001    00226 TXH +3 00000 0 00036    00227 TXH +3 00000 0 00045    00230 TXH +3 00000 0 00005
 00231 TXH +3 00000 0 00006    00232 TXH +3 00000 0 00060    00233 TXH +3 00000 0 00055    00234 TXH +3 00000 0 00054
 00235 TXH +3 00000 0 00051
                 T'O READ                                                           029  LM00053
 00236 TRA +0 02000 0 00027
      ENDINP     T'H LOOP3, FOR I = 1,7,(I.GE.N)                                    030  LM00057
 00237 CLA +0 50000 0 00035    00240 STO +0 60100 0 00031    00241 TRA +0 02000 0 00245    00242 CLA +0 50000 0 00031
 00243 ADD +0 40000 0 00041    00244 STO +0 60100 0 00031    00245 CLA +0 50000 0 00031    00246 SUB +0 40200 0 00024
 00247 TZE +0 10000 0 00310    00250 TPL +0 12000 0 00310
                      W'R (IN(I).NE.0).OR.(IN(I+1).NE.0)                            031  LM00058
 00251 CLA +0 50000 0 00031    00252 ADD +0 40000 0 00035    00253 PAX +0 73400 1 00000    00254 CLA +0 50000 1 00024
 00255 SUB +0 40200 0 00034    00256 TNZ -0 10000 0 00263    00257 LXA +0 53400 1 00031    00260 CLA +0 50000 1 00024
 00261 SUB +0 40200 0 00034    00262 TZE +0 10000 0 00307
                           MPRINT.(3,$0ENTRY$,IN(I),IN(I+1),                        032  LM00059
                1               $ MISSING FROM INPUT DECK$)                         032  LM00060
 00263 CLA +0 50000 0 00031    00264 ADD +0 40000 0 00035    00265 SUB +0 40200 0 00266    00266 TXH +3 00000 0 00024
 00267 STA +0 62100 0 00300    00270 CLA +0 50000 0 00031    00271 SUB +0 40200 0 00272    00272 TXH +3 00000 0 00024
 00273 STA +0 62100 0 00277    00274 TSX +0 07400 4 00001    00275 TXH +3 00000 0 00036    00276 TXH +3 00000 0 00045
 00277 TXH +3 00000 0 00000    00300 TXH +3 00000 0 00000    00301 TXH +3 00000 0 00057    00302 TXH +3 00000 0 00053
 00303 TXH +3 00000 0 00052    00304 TXH +3 00000 0 00062
                           FAILSW = 1B                                              033  LM00061
 00305 CLA +0 50000 0 00035    00306 STO +0 60100 0 00030
                      E'L                                                           034  LM00062
      LOOP3      C'E                                                                035  LM00063
 00307 TRA +0 02000 0 00242
                 W'R FAILSW                                                         036  LM00067
 00310 NZT -0 52000 0 00030    00311 TRA +0 02000 0 00314
                      T'O FAIL                                                      037  LM00068
 00312 TRA +0 02000 0 00024
                 O'E                                                                038  LM00069
 00313 TRA +0 02000 0 00320
                      M = K + 6                                                     039  LM00070
 00314 CLA +0 50000 0 00033    00315 ADD +0 40000 0 00040    00316 STO +0 60100 0 00024
                      F'N                                                           040  LM00071
 00317 TRA +0 02000 0 00352
                 E'L                                                                041  LM00072
                 E'N                                                                042  LM00074
 00320 TSX +0 07400 4 00000    00321 TXH +3 00000 0 00000    00322 SXD -0 63400 1 00321    00323 SXA +0 63400 4 00352
 00324 CLA +0 50000 4 00001    00325 STA +0 62100 0 00132    00326 STA +0 62100 0 00246    00327 CLA +0 50000 4 00002
 00330 STA +0 62100 0 00140    00331 STA +0 62100 0 00144    00332 STA +0 62100 0 00174    00333 STA +0 62100 0 00215
 00334 STA +0 62100 0 00222    00335 STA +0 62100 0 00254    00336 STA +0 62100 0 00260    00337 STO +0 60100 0 00266
 00340 STO +0 60100 0 00272    00341 CLA +0 50000 4 00003    00342 STA +0 62100 0 00316    00343 CLA +0 50000 4 00004
 00344 STA +0 62100 0 00175    00345 STA +0 62100 0 00202    00346 STA +0 62100 0 00212    00347 CLA +0 50000 4 00005
 00350 STA +0 62100 0 00312    00351 TRA +0 02000 2 00001    00352 AXT +0 77400 4 00000    00353 LXA +0 53400 2 00321
 00354 LXD -0 53400 1 00321    00355 TRA +0 02000 4 00001


 RTUT4   BCD 12/14/70 1515.5   11075         00000
1     MAD PROGRAM LISTING ... ... ...                 FILE    RTUT   MAD            11/05/70    1933.6
-
                  EXTERNAL FUNCTION (I,I1)                                                        *001 LM00001
                  ENTRY TO RDTUT.                                                                 *002 LM00002
                   (I)                                                                                 LM00003
                  SAVE RETURN                                                                     *003 LM00004
                  RI=I                                                                            *004 LM00005
                  WHENEVER FIRST                                                                  *005 LM00006
                       NDK=NDKT*(HDKM-LDKM+1)/36+NDKT*(HDKM-LDKM+1)/1440+2                        *006 LM00007
                       NDM=NDMT*(HDMM-LDMM+1)/36+1                                                *007 LM00008
                       NT=NDK+NDM                                                                 *008 LM00009
                       IINDEX.(LDKM,HDKM,LDMM,HDMM)                                               *009 LM00010
                       FIRST=0B                                                                   *010 LM00011
                  END OF CONDITIONAL                                                              *011 LM00012
                  RTBASE=RI*NT-NT                                                                 *012 LM00013
                  SRHMFD.(1,REL,UT,$DISKUT$,$(FILE)$,RERR)                                        *013 LM00014
                  OPEN.(2,UT)                                                                     *014 LM00015
                  READ.(2,1,RERR,X,RERR,TUT(RTBASE),NDK)                                          *015 LM00016
                  TRUNC.(2,NDK+1,RERR,X,RERR)                                                     *016 LM00017
                  CLOSE.(2,UT,RERR,X,CH)                                                          *017 LM00018
                  WHENEVER CH                                                                     *018 LM00019
                       COMBIN.(ENT,UT)                                                            *019 LM00020
                       WRITE.(1,REL,RERR,X,RERR,ENT,ENTLEN)                                       *020 LM00021
                       CLOSE.(1,UT,RERR,X,X)                                                      *021 LM00022
                  END OF CONDITIONAL                                                              *022 LM00023
                  SRHMFD.(1,REL,UT,$DRUMUT$,$(FILE)$,RERR)                                        *023 LM00024
                  OPEN.(2,UT)                                                                     *024 LM00025
                  READ.(2,1,RERR,X,RERR,TUT(RTBASE+NDK),NDM)                                      *025 LM00026
                  TRUNC.(2,NDM+1,RERR,X,RERR)                                                     *026 LM00027
                  CLOSE.(2,UT,RERR,X,CH)                                                          *027 LM00028
                  WHENEVER CH                                                                     *028 LM00029
                       COMBIN.(ENT,UT)                                                            *029 LM00030
                       WRITE.(1,REL,RERR,X,RERR,ENT,ENTLEN)                                       *030 LM00031
                       CLOSE.(1,UT,RERR,X,X)                                                      *031 LM00032
                  END OF CONDITIONAL                                                              *032 LM00033
                  RESTORE RETURN                                                                  *033 LM00034
                  FUNCTION RETURN                                                                 *034 LM00035
      RERR        MPRINT.(3,$ ERROR READING TUT$)                                                 *035 LM00036
                  EXIT.                                                                           *036 LM00037
                                                                                                       LM00038
                  ENTRY TO WTTUT.                                                                 *037 LM00039
                   (I)                                                                                 LM00040
                  SAVE RETURN                                                                     *038 LM00041
                  RI=I                                                                            *039 LM00042
                  RTBASE=RI*NT-NT                                                                 *040 LM00043
                  SRHMFD.(1,X,UT,$DISKUT$,$(FILE)$,WERR)                                          *041 LM00044
                  OPEN.(1,UT)                                                                     *042 LM00045
                  WRITE.(1,1,WERR,X,WERR,TUT(RTBASE),NDK)                                         *043 LM00046
                  CLOSE.(1,UT,WERR,X,X)                                                           *044 LM00047
                  SRHMFD.(1,X,UT,$DRUMUT$,$(FILE)$,WERR)                                          *045 LM00048
                  OPEN.(1,UT)                                                                     *046 LM00049
                  WRITE.(1,1,WERR,X,WERR,TUT(RTBASE+NDK),NDM)                                     *047 LM00050
                  CLOSE.(1,UT,WERR,X,X)                                                           *048 LM00051
                  RESTORE RETURN                                                                  *049 LM00052
                  FUNCTION RETURN                                                                 *050 LM00053
      WERR        MPRINT.(3,$ ERROR WRITING TUT$)                                                 *051 LM00054
                  RESTORE RETURN                                                                  *052 LM00055
                  FUNCTION RETURN                                                                 *053 LM00056
                                                                                                       LM00057
                  ENTRY TO RSTUT.                                                                 *054 LM00058
                  (I)                                                                                  LM00059
                  WHENEVER FIRST                                                                  *055 LM00060
                       NDK=NDKT*(HDKM-LDKM+1)/36+NDKT*(HDKM-LDKM+1)/1440+2                        *056 LM00061
                       NDM=NDMT*(HDMM-LDMM+1)/36+1                                                *057 LM00062
                       NT=NDK+NDM                                                                 *058 LM00063
                       IINDEX.(LDKM,HDKM,LDMM,HDMM)                                               *059 LM00064
                       FIRST=0B                                                                   *060 LM00065
                  END OF CONDITIONAL                                                              *061 LM00066
                  TBASE=I*NT-NT                                                                   *062 LM00067
                  THROUGH RL, FOR J=1,1,J.G.NT                                                    *063 LM00068
      RL          TUT(TBASE+J)=777777777777K                                                      *064 LM00069
                  FUNCTION RETURN                                                                 *065 LM00070
                                                                                                       LM00071
                  ENTRY TO ORTUT.                                                                 *066 LM00072
                  (I,I1)  I OR I1 GOES TO I1                                                           LM00073
                  TBASE=I*NT-NT                                                                   *067 LM00074
                  TBASE1=I1*NT-NT                                                                 *068 LM00075
                  THROUGH OL, FOR J=1,1,J.G.NT                                                    *069 LM00076
      OL          TUT(TBASE1+J)=TUT(TBASE1+J).A.TUT(TBASE+J)                                      *070 LM00077
                  FUNCTION RETURN                                                                 *071 LM00078
                                                                                                       LM00079
                  ENTRY TO USEDT.                                                                 *072 LM00080
                  (I,TRACK)  RETURNS 1B IF TRACK USED                                                  LM00081
                  TBASE=I*NT-NT                                                                   *073 LM00082
                  TRACK=I1                                                                        *074 LM00083
                  INDEX.(TRACK,W,M)                                                               *075 LM00084
                  W=W+1                                                                           *076 LM00085
                  MOD=TRACK.RS.30                                                                 *077 LM00086
                  WHENEVER MOD.G.HDKM .AND. MOD.NE.12K, TBASE=TBASE+NDK                           *078 LM00087
                  U=TUT(TBASE+W) .A. M                                                            *079 LM00088
                  U=U.RS.5.V.U                                                                    *080 LM00089
                  FUNCTION RETURN .NOT. BU                                                        *081 LM00090
                  EQUIVALENCE (U,BU)                                                              *082 LM00091
                  BOOLEAN BU,CH                                                                   *083 LM00092
                                                                                                       LM00093
                  ENTRY TO USET.                                                                  *084 LM00094
                   (I,TRACK)                                                                           LM00095
                  TBASE=I*NT-NT                                                                   *085 LM00096
                  TRACK=I1                                                                        *086 LM00097
                  INDEX.(TRACK,W,M)                                                               *087 LM00098
                  W=W+1                                                                           *088 LM00099
                  MOD=TRACK.RS.30                                                                 *089 LM00100
                  WHENEVER MOD.G.HDKM .AND. MOD.NE.12K, TBASE=TBASE+NDK                           *090 LM00101
                  TUT(TBASE+W)=TUT(TBASE+W).A. .N.M                                               *091 LM00102
                  FUNCTION RETURN                                                                 *092 LM00103
                  NORMAL MODE IS INTEGER                                                          *093 LM00104
                  DIMENSION UT(20),TUT(4600),ENT(9)                                               *094 LM00105
                  VECTOR VALUES FIRST=1B                                                          *095 LM00106
                  INSERT FILE SALEQU                                                              *096 LM00107
                   SALEQU                                                                         *096 LM00001
                  VECTOR VALUES MFDORG=101212121212K                                              *097 LM00002
                  VECTOR VALUES LOADER=001212121212K                                              *098 LM00003
                  VECTOR VALUES ENTLEN=7                                                          *099 LM00004
                  VECTOR VALUES ENTRYL=20                                                         *100 LM00005
                  VECTOR VALUES NWPT=432                                                          *101 LM00006
                  VECTOR VALUES LDKM=0                                                            *102 LM00007
                  VECTOR VALUES HDKM=7                                                            *103 LM00008
                  VECTOR VALUES LDMM=8                                                            *104 LM00009
                  VECTOR VALUES HDMM=8                                                            *105 LM00010
                  VECTOR VALUES NDKT=10000                                                        *106 LM00011
                  VECTOR VALUES NDMT=400                                                          *107 LM00012
                  VECTOR VALUES NQW=3                                                             *108 LM00013
                  VECTOR VALUES PROBN=1                                                           *109 LM00014
                  VECTOR VALUES PROGN=2                                                           *110 LM00015
                  VECTOR VALUES ALPHA=3                                                           *111 LM00016
                  VECTOR VALUES BETA=4                                                            *112 LM00017
                  VECTOR VALUES DAYTIM=5                                                          *113 LM00018
                  VECTOR VALUES TIME=6                                                            *114 LM00019
                  VECTOR VALUES DATELU=7                                                          *115 LM00020
                  VECTOR VALUES AUTHOR=8                                                          *116 LM00021
                  VECTOR VALUES MODE=9                                                            *117 LM00022
                  VECTOR VALUES ILOCK=10                                                          *118 LM00023
                  VECTOR VALUES F=11                                                              *119 LM00024
                  VECTOR VALUES RCOUNT=12                                                         *120 LM00025
                  VECTOR VALUES S=13                                                              *121 LM00026
                  VECTOR VALUES W=14                                                              *122 LM00027
                  VECTOR VALUES R=15                                                              *123 LM00028
                  VECTOR VALUES NORECS=16                                                         *124 LM00029
                  VECTOR VALUES P=17                                                              *125 LM00030
                  VECTOR VALUES LCOUNT=18                                                         *126 LM00031
                  VECTOR VALUES LSTRK=19                                                          *127 LM00032
                  VECTOR VALUES FSTRK=20                                                          *128 LM00033
                  VECTOR VALUES TEMPMD=1K                                                         *129 LM00034
                  VECTOR VALUES PARTER=1K                                                         *130 LM00035
                  VECTOR VALUES DISKER=2K                                                         *131 LM00036
                  VECTOR VALUES BADBP=4K                                                          *132 LM00037
                  VECTOR VALUES BADTR=1K1                                                         *133 LM00038
                  VECTOR VALUES BADFP=2K1                                                         *134 LM00039
                  VECTOR VALUES BADTN=4K1                                                         *135 LM00040
                  VECTOR VALUES UNPTRK=1K2                                                        *136 LM00041
                  VECTOR VALUES RUSTRK=2K2                                                        *137 LM00042
                  VECTOR VALUES DIRTRN=4K2                                                        *138 LM00043
                  VECTOR VALUES DTATRN=1K3                                                        *139 LM00044
                  VECTOR VALUES NZITEM=2K3                                                        *140 LM00045
                  VECTOR VALUES BADF=4K3                                                          *141 LM00046
                  VECTOR VALUES BADLTK=1K4                                                        *142 LM00047
                  VECTOR VALUES FATAL=2K4                                                         *143 LM00048
                  VECTOR VALUES FORCE=4K4                                                         *144 LM00049
                  VECTOR VALUES BADATE=1K5                                                        *145 LM00050
                  VECTOR VALUES BADLCT=2K5                                                        *146 LM00051
                  VECTOR VALUES BADRCT=4K5                                                        *147 LM00052
                  VECTOR VALUES BADTC=1K6                                                         *148 LM00053
                  VECTOR VALUES BADP=2K6                                                          *149 LM00054
                  VECTOR VALUES BKCOR=4K6                                                         *150 LM00055
                  VECTOR VALUES BKBAD=1K7                                                         *151 LM00056
                                                                                                       LM00057
                  END OF FUNCTION                                                                 *152 LM00108
1MAD PROGRAM,TYPE NOV 1963      (ALL NUMBERS ARE OCTAL)
0TOTAL LOCATIONS   12155 TRANSFER VECTOR LENGTH  00015 PROGRAM BEGINS    11201
0 PROGRAM IS AN EXTERNAL FUNCTION.   THE FOLLOWING ARE ENTRIES
      USET   12050   0        USEDT  11766   0        ORTUT  11716   0        RSTUT  11611   0        WTTUT  11466   0
      RDTUT  11202   0
0VARIABLE STORAGE (A=ARRAY,C=COMMON,E=ERASABLE,DIGIT=MODE)
      ALPHA  00021 A 1        BU     00016   2        HDMM   00071 A 1        NORECS 00111 A 1        RTBASE 00126   1
      AUTHOR 00022 A 1        CH     00041   2        ILOCK  00072 A 1        NQW    00112 A 1        RUSTRK 00127 A 1
      BADATE 00023 A 1        DATELU 00042 A 1        J      00073   1        NT     00113   1        S      00130 A 1
      BADBP  00024 A 1        DAYTIM 00043 A 1        LCOUNT 00074 A 1        NWPT   00114 A 1        TBASE1 00131   1
      BADFP  00025 A 1        DIRTRN 00044 A 1        LDKM   00075 A 1        NZITEM 00115 A 1        TBASE  00132   1
      BADF   00026 A 1        DISKER 00045 A 1        LDMM   00076 A 1        OL     00015   4        TEMPMD 00133 A 1
      BADLCT 00027 A 1        DTATRN 00046 A 1        LOADER 00077 A 1        PARTER 00116 A 1        TIME   00134 A 1
      BADLTK 00030 A 1        ENTLEN 00047 A 1        LSTRK  00100 A 1        PROBN  00117 A 1        TRACK  00135   1
      BADP   00031 A 1        ENTRYL 00050 A 1        MFDORG 00101 A 1        PROGN  00120 A 1        TUT    11126 A 1
      BADRCT 00032 A 1        ENT    00062 A 1        MODE   00102 A 1        P      00121 A 1        UNPTRK 11127 A 1
      BADTC  00033 A 1        FATAL  00063 A 1        MOD    00103   1        RCOUNT 00122 A 1        U      00016   1
      BADTN  00034 A 1        FIRST  00064 A 2        M      00104   1        REL    00123   1        UT     11154 A 1
      BADTR  00035 A 1        FORCE  00065 A 1        NDK    00105   1        RERR   00017   4        WERR   00020   4
      BETA   00036 A 1        F      00066 A 1        NDKT   00106 A 1        RI     00124   1        W      11155 A 1
      BKBAD  00037 A 1        FSTRK  00067 A 1        NDM    00107   1        RL     00015   4        X      11156   1
      BKCOR  00040 A 1        HDKM   00070 A 1        NDMT   00110 A 1        R      00125 A 1
0FUNCTION DICTIONARY
      CLOSE  00000   1        COMBIN 00001   1        EXIT   00002   1        IINDEX 00003   1        INDEX  00004   1
      .RSTRN 00005   1        .SAVRN 00006   1        MPRINT 00007   1        OPEN   00010   1        READ   00011   1
      SRHMFD 00012   1        TRUNC  00013   1        WRITE  00014   1
0ABSOLUTE CONSTANTS
 11163 +000000000005     11164 +000000000012     11165 +000000000036     11200 -377777777777     11176 -206651316331
 11173 -052760636463     11175 -205125212431     11174 -202551514651     11162 +000000000003     11172 +245164446463
 11177 -342631432534     11171 +243162426463     11157 +000000000000     11161 +000000000002     11166 +000000000044
 11167 +000000002640     11160 +000000000001     11170 +233000000000
0STATEMENT DICTIONARY
 00017 TXL -311464011457       00020 TXL -311604011577
0PROGRAM
                 EXTERNAL FUNCTION (I,I1)                                           001  LM00001
                 ENTRY TO RDTUT.                                                    002  LM00002
 11201 TRA +0 02000 0 11204    11202 SXA +0 63400 2 12127    11203 TSX +0 07400 2 12127
                 SAVE RETURN                                                        003  LM00004
 11204 TSX +0 07400 4 00006    11205 STR -1 00000 0 12146    11206 STR -1 00000 0 00000
                 RI=I                                                               004  LM00005
 11207 CLA +0 50000 0 00024    11210 STO +0 60100 0 00124
                 W'R FIRST                                                          005  LM00006
 11211 NZT -0 52000 0 00064    11212 TRA +0 02000 0 11265
                      NDK=NDKT*(HDKM-LDKM+1)/36+NDKT*(HDKM-LDKM+1)/1440+2           006  LM00007
 11213 CLA +0 50000 0 00070    11214 SUB +0 40200 0 00075    11215 ADD +0 40000 0 11160    11216 XCA +0 13100 0 00000
 11217 MPY +0 20000 0 00106    11220 PXD -0 75400 0 00000    11221 LLS +0 76300 0 00000    11222 DVP +0 22100 0 11167
 11223 STQ -0 60000 0 12152    11224 CLA +0 50000 0 00070    11225 SUB +0 40200 0 00075    11226 ADD +0 40000 0 11160
 11227 XCA +0 13100 0 00000    11230 MPY +0 20000 0 00106    11231 PXD -0 75400 0 00000    11232 LLS +0 76300 0 00000
 11233 DVP +0 22100 0 11166    11234 XCA +0 13100 0 00000    11235 ADD +0 40000 0 12152    11236 ADD +0 40000 0 11161
 11237 STO +0 60100 0 00105
                      NDM=NDMT*(HDMM-LDMM+1)/36+1                                   007  LM00008
 11240 CLA +0 50000 0 00071    11241 SUB +0 40200 0 00076    11242 ADD +0 40000 0 11160    11243 XCA +0 13100 0 00000
 11244 MPY +0 20000 0 00110    11245 PXD -0 75400 0 00000    11246 LLS +0 76300 0 00000    11247 DVP +0 22100 0 11166
 11250 XCA +0 13100 0 00000    11251 ADD +0 40000 0 11160    11252 STO +0 60100 0 00107
                      NT=NDK+NDM                                                    008  LM00009
 11253 CLA +0 50000 0 00105    11254 ADD +0 40000 0 00107    11255 STO +0 60100 0 00113
                      IINDEX.(LDKM,HDKM,LDMM,HDMM)                                  009  LM00010
 11256 TSX +0 07400 4 00003    11257 TXH +3 00000 0 00075    11260 TXH +3 00000 0 00070    11261 TXH +3 00000 0 00076
 11262 TXH +3 00000 0 00071
                      FIRST=0B                                                      010  LM00011
 11263 CLA +0 50000 0 11157    11264 STO +0 60100 0 00064
                 E'L                                                                011  LM00012
                 RTBASE=RI*NT-NT                                                    012  LM00013
 11265 LDQ +0 56000 0 00124    11266 MPY +0 20000 0 00113    11267 XCA +0 13100 0 00000    11270 SUB +0 40200 0 00113
 11271 STO +0 60100 0 00126
                 SRHMFD.(1,REL,UT,$DISKUT$,$(FILE)$,RERR)                           013  LM00014
 11272 TSX +0 07400 4 00012    11273 TXH +3 00000 0 11160    11274 TXH +3 00000 0 00123    11275 TXH +3 00000 0 11154
 11276 TXH +3 00000 0 11171    11277 TXH +3 00000 0 11177    11300 TXH +3 00000 0 00017
                 OPEN.(2,UT)                                                        014  LM00015
 11301 TSX +0 07400 4 00010    11302 TXH +3 00000 0 11161    11303 TXH +3 00000 0 11154
                 READ.(2,1,RERR,X,RERR,TUT(RTBASE),NDK)                             015  LM00016
 11304 CLA +0 50000 0 00126    11305 SUB +0 40200 0 11306    11306 TXH +3 00000 0 11126    11307 STA +0 62100 0 11316
 11310 TSX +0 07400 4 00011    11311 TXH +3 00000 0 11161    11312 TXH +3 00000 0 11160    11313 TXH +3 00000 0 00017
 11314 TXH +3 00000 0 11156    11315 TXH +3 00000 0 00017    11316 TXH +3 00000 0 00000    11317 TXH +3 00000 0 00105
                 TRUNC.(2,NDK+1,RERR,X,RERR)                                        016  LM00017
 11320 CLA +0 50000 0 00105    11321 ADD +0 40000 0 11160    11322 STO +0 60100 0 12152    11323 TSX +0 07400 4 00013
 11324 TXH +3 00000 0 11161    11325 TXH +3 00000 0 12152    11326 TXH +3 00000 0 00017    11327 TXH +3 00000 0 11156
 11330 TXH +3 00000 0 00017
                 CLOSE.(2,UT,RERR,X,CH)                                             017  LM00018
 11331 TSX +0 07400 4 00000    11332 TXH +3 00000 0 11161    11333 TXH +3 00000 0 11154    11334 TXH +3 00000 0 00017
 11335 TXH +3 00000 0 11156    11336 TXH +3 00000 0 00041
                 W'R CH                                                             018  LM00019
 11337 NZT -0 52000 0 00041    11340 TRA +0 02000 0 11362
                      COMBIN.(ENT,UT)                                               019  LM00020
 11341 TSX +0 07400 4 00001    11342 TXH +3 00000 0 00062    11343 TXH +3 00000 0 11154
                      WRITE.(1,REL,RERR,X,RERR,ENT,ENTLEN)                          020  LM00021
 11344 TSX +0 07400 4 00014    11345 TXH +3 00000 0 11160    11346 TXH +3 00000 0 00123    11347 TXH +3 00000 0 00017
 11350 TXH +3 00000 0 11156    11351 TXH +3 00000 0 00017    11352 TXH +3 00000 0 00062    11353 TXH +3 00000 0 00047
                      CLOSE.(1,UT,RERR,X,X)                                         021  LM00022
 11354 TSX +0 07400 4 00000    11355 TXH +3 00000 0 11160    11356 TXH +3 00000 0 11154    11357 TXH +3 00000 0 00017
 11360 TXH +3 00000 0 11156    11361 TXH +3 00000 0 11156
                 E'L                                                                022  LM00023
                 SRHMFD.(1,REL,UT,$DRUMUT$,$(FILE)$,RERR)                           023  LM00024
 11362 TSX +0 07400 4 00012    11363 TXH +3 00000 0 11160    11364 TXH +3 00000 0 00123    11365 TXH +3 00000 0 11154
 11366 TXH +3 00000 0 11172    11367 TXH +3 00000 0 11177    11370 TXH +3 00000 0 00017
                 OPEN.(2,UT)                                                        024  LM00025
 11371 TSX +0 07400 4 00010    11372 TXH +3 00000 0 11161    11373 TXH +3 00000 0 11154
                 READ.(2,1,RERR,X,RERR,TUT(RTBASE+NDK),NDM)                         025  LM00026
 11374 CLA +0 50000 0 00126    11375 ADD +0 40000 0 00105    11376 SUB +0 40200 0 11377    11377 TXH +3 00000 0 11126
 11400 STA +0 62100 0 11407    11401 TSX +0 07400 4 00011    11402 TXH +3 00000 0 11161    11403 TXH +3 00000 0 11160
 11404 TXH +3 00000 0 00017    11405 TXH +3 00000 0 11156    11406 TXH +3 00000 0 00017    11407 TXH +3 00000 0 00000
 11410 TXH +3 00000 0 00107
                 TRUNC.(2,NDM+1,RERR,X,RERR)                                        026  LM00027
 11411 CLA +0 50000 0 00107    11412 ADD +0 40000 0 11160    11413 STO +0 60100 0 12152    11414 TSX +0 07400 4 00013
 11415 TXH +3 00000 0 11161    11416 TXH +3 00000 0 12152    11417 TXH +3 00000 0 00017    11420 TXH +3 00000 0 11156
 11421 TXH +3 00000 0 00017
                 CLOSE.(2,UT,RERR,X,CH)                                             027  LM00028
 11422 TSX +0 07400 4 00000    11423 TXH +3 00000 0 11161    11424 TXH +3 00000 0 11154    11425 TXH +3 00000 0 00017
 11426 TXH +3 00000 0 11156    11427 TXH +3 00000 0 00041
                 W'R CH                                                             028  LM00029
 11430 NZT -0 52000 0 00041    11431 TRA +0 02000 0 11453
                      COMBIN.(ENT,UT)                                               029  LM00030
 11432 TSX +0 07400 4 00001    11433 TXH +3 00000 0 00062    11434 TXH +3 00000 0 11154
                      WRITE.(1,REL,RERR,X,RERR,ENT,ENTLEN)                          030  LM00031
 11435 TSX +0 07400 4 00014    11436 TXH +3 00000 0 11160    11437 TXH +3 00000 0 00123    11440 TXH +3 00000 0 00017
 11441 TXH +3 00000 0 11156    11442 TXH +3 00000 0 00017    11443 TXH +3 00000 0 00062    11444 TXH +3 00000 0 00047
                      CLOSE.(1,UT,RERR,X,X)                                         031  LM00032
 11445 TSX +0 07400 4 00000    11446 TXH +3 00000 0 11160    11447 TXH +3 00000 0 11154    11450 TXH +3 00000 0 00017
 11451 TXH +3 00000 0 11156    11452 TXH +3 00000 0 11156
                 E'L                                                                032  LM00033
                 RESTORE RETURN                                                     033  LM00034
 11453 TSX +0 07400 4 00005    11454 STR -1 00000 0 12146    11455 STR -1 00000 0 00000
                 F'N                                                                034  LM00035
 11456 TRA +0 02000 0 12146
      RERR       MPRINT.(3,$ ERROR READING TUT$)                                    035  LM00036
 11457 TSX +0 07400 4 00007    11460 TXH +3 00000 0 11162    11461 TXH +3 00000 0 11174    11462 TXH +3 00000 0 11175
 11463 TXH +3 00000 0 11173
                 EXIT.                                                              036  LM00037
 11464 TSX +0 07400 4 00002
                 ENTRY TO WTTUT.                                                    037  LM00039
 11465 TRA +0 02000 0 11470    11466 SXA +0 63400 2 12127    11467 TSX +0 07400 2 12127
                 SAVE RETURN                                                        038  LM00041
 11470 TSX +0 07400 4 00006    11471 STR -1 00000 0 12146    11472 STR -1 00000 0 00000
                 RI=I                                                               039  LM00042
 11473 CLA +0 50000 0 00024    11474 STO +0 60100 0 00124
                 RTBASE=RI*NT-NT                                                    040  LM00043
 11475 LDQ +0 56000 0 00124    11476 MPY +0 20000 0 00113    11477 XCA +0 13100 0 00000    11500 SUB +0 40200 0 00113
 11501 STO +0 60100 0 00126
                 SRHMFD.(1,X,UT,$DISKUT$,$(FILE)$,WERR)                             041  LM00044
 11502 TSX +0 07400 4 00012    11503 TXH +3 00000 0 11160    11504 TXH +3 00000 0 11156    11505 TXH +3 00000 0 11154
 11506 TXH +3 00000 0 11171    11507 TXH +3 00000 0 11177    11510 TXH +3 00000 0 00020
                 OPEN.(1,UT)                                                        042  LM00045
 11511 TSX +0 07400 4 00010    11512 TXH +3 00000 0 11160    11513 TXH +3 00000 0 11154
                 WRITE.(1,1,WERR,X,WERR,TUT(RTBASE),NDK)                            043  LM00046
 11514 CLA +0 50000 0 00126    11515 SUB +0 40200 0 11516    11516 TXH +3 00000 0 11126    11517 STA +0 62100 0 11526
 11520 TSX +0 07400 4 00014    11521 TXH +3 00000 0 11160    11522 TXH +3 00000 0 11160    11523 TXH +3 00000 0 00020
 11524 TXH +3 00000 0 11156    11525 TXH +3 00000 0 00020    11526 TXH +3 00000 0 00000    11527 TXH +3 00000 0 00105
                 CLOSE.(1,UT,WERR,X,X)                                              044  LM00047
 11530 TSX +0 07400 4 00000    11531 TXH +3 00000 0 11160    11532 TXH +3 00000 0 11154    11533 TXH +3 00000 0 00020
 11534 TXH +3 00000 0 11156    11535 TXH +3 00000 0 11156
                 SRHMFD.(1,X,UT,$DRUMUT$,$(FILE)$,WERR)                             045  LM00048
 11536 TSX +0 07400 4 00012    11537 TXH +3 00000 0 11160    11540 TXH +3 00000 0 11156    11541 TXH +3 00000 0 11154
 11542 TXH +3 00000 0 11172    11543 TXH +3 00000 0 11177    11544 TXH +3 00000 0 00020
                 OPEN.(1,UT)                                                        046  LM00049
 11545 TSX +0 07400 4 00010    11546 TXH +3 00000 0 11160    11547 TXH +3 00000 0 11154
                 WRITE.(1,1,WERR,X,WERR,TUT(RTBASE+NDK),NDM)                        047  LM00050
 11550 CLA +0 50000 0 00126    11551 ADD +0 40000 0 00105    11552 SUB +0 40200 0 11553    11553 TXH +3 00000 0 11126
 11554 STA +0 62100 0 11563    11555 TSX +0 07400 4 00014    11556 TXH +3 00000 0 11160    11557 TXH +3 00000 0 11160
 11560 TXH +3 00000 0 00020    11561 TXH +3 00000 0 11156    11562 TXH +3 00000 0 00020    11563 TXH +3 00000 0 00000
 11564 TXH +3 00000 0 00107
                 CLOSE.(1,UT,WERR,X,X)                                              048  LM00051
 11565 TSX +0 07400 4 00000    11566 TXH +3 00000 0 11160    11567 TXH +3 00000 0 11154    11570 TXH +3 00000 0 00020
 11571 TXH +3 00000 0 11156    11572 TXH +3 00000 0 11156
                 RESTORE RETURN                                                     049  LM00052
 11573 TSX +0 07400 4 00005    11574 STR -1 00000 0 12146    11575 STR -1 00000 0 00000
                 F'N                                                                050  LM00053
 11576 TRA +0 02000 0 12146
      WERR       MPRINT.(3,$ ERROR WRITING TUT$)                                    051  LM00054
 11577 TSX +0 07400 4 00007    11600 TXH +3 00000 0 11162    11601 TXH +3 00000 0 11174    11602 TXH +3 00000 0 11176
 11603 TXH +3 00000 0 11173
                 RESTORE RETURN                                                     052  LM00055
 11604 TSX +0 07400 4 00005    11605 STR -1 00000 0 12146    11606 STR -1 00000 0 00000
                 F'N                                                                053  LM00056
 11607 TRA +0 02000 0 12146
                 ENTRY TO RSTUT.                                                    054  LM00058
 11610 TRA +0 02000 0 11613    11611 SXA +0 63400 2 12127    11612 TSX +0 07400 2 12127
                 W'R FIRST                                                          055  LM00060
 11613 NZT -0 52000 0 00064    11614 TRA +0 02000 0 11667
                      NDK=NDKT*(HDKM-LDKM+1)/36+NDKT*(HDKM-LDKM+1)/1440+2           056  LM00061
 11615 CLA +0 50000 0 00070    11616 SUB +0 40200 0 00075    11617 ADD +0 40000 0 11160    11620 XCA +0 13100 0 00000
 11621 MPY +0 20000 0 00106    11622 PXD -0 75400 0 00000    11623 LLS +0 76300 0 00000    11624 DVP +0 22100 0 11167
 11625 STQ -0 60000 0 12152    11626 CLA +0 50000 0 00070    11627 SUB +0 40200 0 00075    11630 ADD +0 40000 0 11160
 11631 XCA +0 13100 0 00000    11632 MPY +0 20000 0 00106    11633 PXD -0 75400 0 00000    11634 LLS +0 76300 0 00000
 11635 DVP +0 22100 0 11166    11636 XCA +0 13100 0 00000    11637 ADD +0 40000 0 12152    11640 ADD +0 40000 0 11161
 11641 STO +0 60100 0 00105
                      NDM=NDMT*(HDMM-LDMM+1)/36+1                                   057  LM00062
 11642 CLA +0 50000 0 00071    11643 SUB +0 40200 0 00076    11644 ADD +0 40000 0 11160    11645 XCA +0 13100 0 00000
 11646 MPY +0 20000 0 00110    11647 PXD -0 75400 0 00000    11650 LLS +0 76300 0 00000    11651 DVP +0 22100 0 11166
 11652 XCA +0 13100 0 00000    11653 ADD +0 40000 0 11160    11654 STO +0 60100 0 00107
                      NT=NDK+NDM                                                    058  LM00063
 11655 CLA +0 50000 0 00105    11656 ADD +0 40000 0 00107    11657 STO +0 60100 0 00113
                      IINDEX.(LDKM,HDKM,LDMM,HDMM)                                  059  LM00064
 11660 TSX +0 07400 4 00003    11661 TXH +3 00000 0 00075    11662 TXH +3 00000 0 00070    11663 TXH +3 00000 0 00076
 11664 TXH +3 00000 0 00071
                      FIRST=0B                                                      060  LM00065
 11665 CLA +0 50000 0 11157    11666 STO +0 60100 0 00064
                 E'L                                                                061  LM00066
                 TBASE=I*NT-NT                                                      062  LM00067
 11667 LDQ +0 56000 0 00024    11670 MPY +0 20000 0 00113    11671 XCA +0 13100 0 00000    11672 SUB +0 40200 0 00113
 11673 STO +0 60100 0 00132
                 T'H RL, FOR J=1,1,J.G.NT                                           063  LM00068
 11674 CLA +0 50000 0 11160    11675 STO +0 60100 0 00073    11676 TRA +0 02000 0 11702    11677 CLA +0 50000 0 00073
 11700 ADD +0 40000 0 11160    11701 STO +0 60100 0 00073    11702 CLA +0 50000 0 00073    11703 SUB +0 40200 0 00113
 11704 TZE +0 10000 0 11706    11705 TPL +0 12000 0 11714
      RL         TUT(TBASE+J)=777777777777K                                         064  LM00069
 11706 CLA +0 50000 0 00132    11707 ADD +0 40000 0 00073    11710 PAX +0 73400 1 00000    11711 CLA +0 50000 0 11200
 11712 STO +0 60100 1 11126    11713 TRA +0 02000 0 11677
                 F'N                                                                065  LM00070
 11714 TRA +0 02000 0 12146
                 ENTRY TO ORTUT.                                                    066  LM00072
 11715 TRA +0 02000 0 11720    11716 SXA +0 63400 2 12127    11717 TSX +0 07400 2 12127
                 TBASE=I*NT-NT                                                      067  LM00074
 11720 LDQ +0 56000 0 00024    11721 MPY +0 20000 0 00113    11722 XCA +0 13100 0 00000    11723 SUB +0 40200 0 00113
 11724 STO +0 60100 0 00132
                 TBASE1=I1*NT-NT                                                    068  LM00075
 11725 LDQ +0 56000 0 00024    11726 MPY +0 20000 0 00113    11727 XCA +0 13100 0 00000    11730 SUB +0 40200 0 00113
 11731 STO +0 60100 0 00131
                 T'H OL, FOR J=1,1,J.G.NT                                           069  LM00076
 11732 CLA +0 50000 0 11160    11733 STO +0 60100 0 00073    11734 TRA +0 02000 0 11740    11735 CLA +0 50000 0 00073
 11736 ADD +0 40000 0 11160    11737 STO +0 60100 0 00073    11740 CLA +0 50000 0 00073    11741 SUB +0 40200 0 00113
 11742 TZE +0 10000 0 11744    11743 TPL +0 12000 0 11764
      OL         TUT(TBASE1+J)=TUT(TBASE1+J).A.TUT(TBASE+J)                         070  LM00077
 11744 CLA +0 50000 0 00132    11745 ADD +0 40000 0 00073    11746 STO +0 60100 0 12152    11747 CLA +0 50000 0 00131
 11750 ADD +0 40000 0 00073    11751 PAX +0 73400 1 00000    11752 LXA +0 53400 2 12152    11753 CAL -0 50000 1 11126
 11754 ANA -0 32000 2 11126    11755 SLW +0 60200 0 12152    11756 CLA +0 50000 0 00131    11757 ADD +0 40000 0 00073
 11760 PAX +0 73400 1 00000    11761 CLA +0 50000 0 12152    11762 STO +0 60100 1 11126    11763 TRA +0 02000 0 11735
                 F'N                                                                071  LM00078
 11764 TRA +0 02000 0 12146
                 ENTRY TO USEDT.                                                    072  LM00080
 11765 TRA +0 02000 0 11770    11766 SXA +0 63400 2 12127    11767 TSX +0 07400 2 12127
                 TBASE=I*NT-NT                                                      073  LM00082
 11770 LDQ +0 56000 0 00024    11771 MPY +0 20000 0 00113    11772 XCA +0 13100 0 00000    11773 SUB +0 40200 0 00113
 11774 STO +0 60100 0 00132
                 TRACK=I1                                                           074  LM00083
 11775 CLA +0 50000 0 00024    11776 STO +0 60100 0 00135
                 INDEX.(TRACK,W,M)                                                  075  LM00084
 11777 TSX +0 07400 4 00004    12000 TXH +3 00000 0 00135    12001 TXH +3 00000 0 11155    12002 TXH +3 00000 0 00104
                 W=W+1                                                              076  LM00085
 12003 CLA +0 50000 0 11155    12004 ADD +0 40000 0 11160    12005 STO +0 60100 0 11155
                 MOD=TRACK.RS.30                                                    077  LM00086
 12006 CAL -0 50000 0 11165    12007 STA +0 62100 0 12011    12010 CAL -0 50000 0 00135    12011 LGR -0 76500 0 00000
 12012 SLW +0 60200 0 00103
                 W'R MOD.G.HDKM .AND. MOD.NE.12K, TBASE=TBASE+NDK                   078  LM00087
 12013 CLA +0 50000 0 00103    12014 SUB +0 40200 0 11164    12015 TZE +0 10000 0 12025    12016 CLA +0 50000 0 00103
 12017 SUB +0 40200 0 00070    12020 TZE +0 10000 0 12025    12021 TMI -0 12000 0 12025    12022 CLA +0 50000 0 00132
 12023 ADD +0 40000 0 00105    12024 STO +0 60100 0 00132
                 U=TUT(TBASE+W) .A. M                                               079  LM00088
 12025 CLA +0 50000 0 00132    12026 ADD +0 40000 0 11155    12027 PAX +0 73400 1 00000    12030 CAL -0 50000 1 11126
 12031 ANA -0 32000 0 00104    12032 SLW +0 60200 0 00016
                 U=U.RS.5.V.U                                                       080  LM00089
 12033 CAL -0 50000 0 11163    12034 STA +0 62100 0 12036    12035 CAL -0 50000 0 00016    12036 LGR -0 76500 0 00000
 12037 ORA -0 50100 0 00016    12040 SLW +0 60200 0 00016
                 F'N .NOT. BU                                                       081  LM00090
 12041 NZT -0 52000 0 00016    12042 TRA +0 02000 0 12045    12043 PXD -0 75400 0 00000    12044 TRA +0 02000 0 12046
 12045 CLA +0 50000 0 11160    12046 TRA +0 02000 0 12146
                 EQUIVALENCE (U,BU)                                                 082  LM00091
                 BOOLEAN BU,CH                                                      083  LM00092
                 ENTRY TO USET.                                                     084  LM00094
 12047 TRA +0 02000 0 12052    12050 SXA +0 63400 2 12127    12051 TSX +0 07400 2 12127
                 TBASE=I*NT-NT                                                      085  LM00096
 12052 LDQ +0 56000 0 00024    12053 MPY +0 20000 0 00113    12054 XCA +0 13100 0 00000    12055 SUB +0 40200 0 00113
 12056 STO +0 60100 0 00132
                 TRACK=I1                                                           086  LM00097
 12057 CLA +0 50000 0 00024    12060 STO +0 60100 0 00135
                 INDEX.(TRACK,W,M)                                                  087  LM00098
 12061 TSX +0 07400 4 00004    12062 TXH +3 00000 0 00135    12063 TXH +3 00000 0 11155    12064 TXH +3 00000 0 00104
                 W=W+1                                                              088  LM00099
 12065 CLA +0 50000 0 11155    12066 ADD +0 40000 0 11160    12067 STO +0 60100 0 11155
                 MOD=TRACK.RS.30                                                    089  LM00100
 12070 CAL -0 50000 0 11165    12071 STA +0 62100 0 12073    12072 CAL -0 50000 0 00135    12073 LGR -0 76500 0 00000
 12074 SLW +0 60200 0 00103
                 W'R MOD.G.HDKM .AND. MOD.NE.12K, TBASE=TBASE+NDK                   090  LM00101
 12075 CLA +0 50000 0 00103    12076 SUB +0 40200 0 11164    12077 TZE +0 10000 0 12107    12100 CLA +0 50000 0 00103
 12101 SUB +0 40200 0 00070    12102 TZE +0 10000 0 12107    12103 TMI -0 12000 0 12107    12104 CLA +0 50000 0 00132
 12105 ADD +0 40000 0 00105    12106 STO +0 60100 0 00132
                 TUT(TBASE+W)=TUT(TBASE+W).A. .N.M                                  091  LM00102
 12107 CAL -0 50000 0 00104    12110 COM +0 76000 0 00006    12111 SLW +0 60200 0 12152    12112 CLA +0 50000 0 00132
 12113 ADD +0 40000 0 11155    12114 PAX +0 73400 1 00000    12115 CAL -0 50000 1 11126    12116 ANA -0 32000 0 12152
 12117 SLW +0 60200 0 12152    12120 CLA +0 50000 0 00132    12121 ADD +0 40000 0 11155    12122 PAX +0 73400 1 00000
 12123 CLA +0 50000 0 12152    12124 STO +0 60100 1 11126
                 F'N                                                                092  LM00103
 12125 TRA +0 02000 0 12146
                 NORMAL MODE IS INTEGER                                             093  LM00104
                 DIMENSION UT(20),TUT(4600),ENT(9)                                  094  LM00105
                 V'S FIRST=1B                                                       095  LM00106
 00064     +0 00000 0 00001
                 INSERT FILE SALEQU                                                 096  LM00107
                 V'S MFDORG=101212121212K                                           097  LM00002
 00101     +1 01212 1 21212
                 V'S LOADER=001212121212K                                           098  LM00003
 00077     +0 01212 1 21212
                 V'S ENTLEN=7                                                       099  LM00004
 00047     +0 00000 0 00007
                 V'S ENTRYL=20                                                      100  LM00005
 00050     +0 00000 0 00024
                 V'S NWPT=432                                                       101  LM00006
 00114     +0 00000 0 00660
                 V'S LDKM=0                                                         102  LM00007
 00075     +0 00000 0 00000
                 V'S HDKM=7                                                         103  LM00008
 00070     +0 00000 0 00007
                 V'S LDMM=8                                                         104  LM00009
 00076     +0 00000 0 00010
                 V'S HDMM=8                                                         105  LM00010
 00071     +0 00000 0 00010
                 V'S NDKT=10000                                                     106  LM00011
 00106     +0 00000 0 23420
                 V'S NDMT=400                                                       107  LM00012
 00110     +0 00000 0 00620
                 V'S NQW=3                                                          108  LM00013
 00112     +0 00000 0 00003
                 V'S PROBN=1                                                        109  LM00014
 00117     +0 00000 0 00001
                 V'S PROGN=2                                                        110  LM00015
 00120     +0 00000 0 00002
                 V'S ALPHA=3                                                        111  LM00016
 00021     +0 00000 0 00003
                 V'S BETA=4                                                         112  LM00017
 00036     +0 00000 0 00004
                 V'S DAYTIM=5                                                       113  LM00018
 00043     +0 00000 0 00005
                 V'S TIME=6                                                         114  LM00019
 00134     +0 00000 0 00006
                 V'S DATELU=7                                                       115  LM00020
 00042     +0 00000 0 00007
                 V'S AUTHOR=8                                                       116  LM00021
 00022     +0 00000 0 00010
                 V'S MODE=9                                                         117  LM00022
 00102     +0 00000 0 00011
                 V'S ILOCK=10                                                       118  LM00023
 00072     +0 00000 0 00012
                 V'S F=11                                                           119  LM00024
 00066     +0 00000 0 00013
                 V'S RCOUNT=12                                                      120  LM00025
 00122     +0 00000 0 00014
                 V'S S=13                                                           121  LM00026
 00130     +0 00000 0 00015
                 V'S W=14                                                           122  LM00027
 11155     +0 00000 0 00016
                 V'S R=15                                                           123  LM00028
 00125     +0 00000 0 00017
                 V'S NORECS=16                                                      124  LM00029
 00111     +0 00000 0 00020
                 V'S P=17                                                           125  LM00030
 00121     +0 00000 0 00021
                 V'S LCOUNT=18                                                      126  LM00031
 00074     +0 00000 0 00022
                 V'S LSTRK=19                                                       127  LM00032
 00100     +0 00000 0 00023
                 V'S FSTRK=20                                                       128  LM00033
 00067     +0 00000 0 00024
                 V'S TEMPMD=1K                                                      129  LM00034
 00133     +0 00000 0 00001
                 V'S PARTER=1K                                                      130  LM00035
 00116     +0 00000 0 00001
                 V'S DISKER=2K                                                      131  LM00036
 00045     +0 00000 0 00002
                 V'S BADBP=4K                                                       132  LM00037
 00024     +0 00000 0 00004
                 V'S BADTR=1K1                                                      133  LM00038
 00035     +0 00000 0 00010
                 V'S BADFP=2K1                                                      134  LM00039
 00025     +0 00000 0 00020
                 V'S BADTN=4K1                                                      135  LM00040
 00034     +0 00000 0 00040
                 V'S UNPTRK=1K2                                                     136  LM00041
 11127     +0 00000 0 00100
                 V'S RUSTRK=2K2                                                     137  LM00042
 00127     +0 00000 0 00200
                 V'S DIRTRN=4K2                                                     138  LM00043
 00044     +0 00000 0 00400
                 V'S DTATRN=1K3                                                     139  LM00044
 00046     +0 00000 0 01000
                 V'S NZITEM=2K3                                                     140  LM00045
 00115     +0 00000 0 02000
                 V'S BADF=4K3                                                       141  LM00046
 00026     +0 00000 0 04000
                 V'S BADLTK=1K4                                                     142  LM00047
 00030     +0 00000 0 10000
                 V'S FATAL=2K4                                                      143  LM00048
 00063     +0 00000 0 20000
                 V'S FORCE=4K4                                                      144  LM00049
 00065     +0 00000 0 40000
                 V'S BADATE=1K5                                                     145  LM00050
 00023     +0 00000 1 00000
                 V'S BADLCT=2K5                                                     146  LM00051
 00027     +0 00000 2 00000
                 V'S BADRCT=4K5                                                     147  LM00052
 00032     +0 00000 4 00000
                 V'S BADTC=1K6                                                      148  LM00053
 00033     +0 00001 0 00000
                 V'S BADP=2K6                                                       149  LM00054
 00031     +0 00002 0 00000
                 V'S BKCOR=4K6                                                      150  LM00055
 00040     +0 00004 0 00000
                 V'S BKBAD=1K7                                                      151  LM00056
 00037     +0 00010 0 00000
                 END OF FUNCTION                                                    152  LM00108
 12126 TSX +0 07400 4 00002    12127 TXH +3 00000 0 00000    12130 SXD -0 63400 1 12127    12131 SXA +0 63400 4 12146
 12132 CLA +0 50000 4 00001    12133 STA +0 62100 0 11207    12134 STA +0 62100 0 11473    12135 STA +0 62100 0 11667
 12136 STA +0 62100 0 11720    12137 STA +0 62100 0 11770    12140 STA +0 62100 0 12052    12141 CLA +0 50000 4 00002
 12142 STA +0 62100 0 11725    12143 STA +0 62100 0 11775    12144 STA +0 62100 0 12057    12145 TRA +0 02000 2 00001
 12146 AXT +0 77400 4 00000    12147 LXA +0 53400 2 12127    12150 LXD -0 53400 1 12127    12151 TRA +0 02000 4 00001


 SMFD4   BCD 12/14/70 1515.5    6219         00000
1     MAD PROGRAM LISTING ... ... ...                 FILE    SMFD   MAD            11/05/70    1933.8
-
                  EXTERNAL FUNCTION (I,FREL,ENTRY,A,B,ERROR)                                      *001 LM00001
                  ENTRY TO SRHMFD.                                                                *002 LM00002
                  (I,REL,ENTRY,ALPHA,BETA,ERROR)                                                       LM00003
                  WHENEVER FIRST                                                                  *003 LM00004
                       CANNED(PROBN)=$M.F.D.$                                                     *004 LM00005
                       CANNED(PROGN)=$(FILE)$                                                     *005 LM00006
                       DREAD.(MFDORG,BUF(500),ERC)                                                *006 LM00007
                       DWAIT.(ERR,ERC)                                                            *007 LM00008
                       JJ=500-NQW-3                                                               *008 LM00009
                       THROUGH CL, FOR J=1,1,J.G.ENTLEN                                           *009 LM00010
                       ENT(J)=BUF(JJ)                                                             *010 LM00011
      CL               JJ=JJ-1                                                                    *011 LM00012
                       EXPAND.(ENT,CANNED)                                                        *012 LM00013
                       FIRST=0B                                                                   *013 LM00014
                  END OF CONDITIONAL                                                              *014 LM00015
                  OPEN.(I,CANNED)                                                                 *015 LM00016
                  REL=NQW+1                                                                       *016 LM00017
      LOOP        READ.(I,REL,ERR,ERC,ERR,ENT,ENTLEN)                                             *017 LM00018
                  WHENEVER ENT(PROBN).E.$M.F.D.$ .AND. ENT(PROGN).E.$(FILE)$                      *018 LM00019
                       EXPAND.(ENT,CANNED)                                                        *019 LM00020
                  END OF CONDITIONAL                                                              *020 LM00021
                  WHENEVER A.E.ENT(PROBN) .AND. B.E.ENT(PROGN)                                    *021 LM00022
                       EXPAND.(ENT,ENTRY)                                                         *022 LM00023
                       ENTRY(PROBN)=$M.F.D.$                                                      *023 LM00024
                       ENTRY(PROGN)=$(FILE)$                                                      *024 LM00025
                       FREL=REL                                                                   *025 LM00026
                       FUNCTION RETURN                                                            *026 LM00027
                  END OF CONDITIONAL                                                              *027 LM00028
                  REL=REL+ENTLEN                                                                  *028 LM00029
                  TRANSFER TO LOOP                                                                *029 LM00030
                                                                                                       LM00031
      ERR         MPRINT.(3,SP,A,SP,B,$ NOT FOUND IN MFD$)                                        *030 LM00032
                  TRANSFER TO ERROR                                                               *031 LM00033
                  STATEMENT LABEL ERROR                                                           *032 LM00034
                  VECTOR VALUES SP=607777777777K                                                  *033 LM00035
                  VECTOR VALUES FIRST=1B                                                          *034 LM00036
                  DIMENSION CANNED(20),BUF(500)                                                   *035 LM00037
                  VECTOR VALUES ERC=0                                                             *036 LM00038
                  INSERT FILE SALEQU                                                              *037 LM00039
                   SALEQU                                                                         *037 LM00001
                  VECTOR VALUES MFDORG=101212121212K                                              *038 LM00002
                  VECTOR VALUES LOADER=001212121212K                                              *039 LM00003
                  VECTOR VALUES ENTLEN=7                                                          *040 LM00004
                  VECTOR VALUES ENTRYL=20                                                         *041 LM00005
                  VECTOR VALUES NWPT=432                                                          *042 LM00006
                  VECTOR VALUES LDKM=0                                                            *043 LM00007
                  VECTOR VALUES HDKM=7                                                            *044 LM00008
                  VECTOR VALUES LDMM=8                                                            *045 LM00009
                  VECTOR VALUES HDMM=8                                                            *046 LM00010
                  VECTOR VALUES NDKT=10000                                                        *047 LM00011
                  VECTOR VALUES NDMT=400                                                          *048 LM00012
                  VECTOR VALUES NQW=3                                                             *049 LM00013
                  VECTOR VALUES PROBN=1                                                           *050 LM00014
                  VECTOR VALUES PROGN=2                                                           *051 LM00015
                  VECTOR VALUES ALPHA=3                                                           *052 LM00016
                  VECTOR VALUES BETA=4                                                            *053 LM00017
                  VECTOR VALUES DAYTIM=5                                                          *054 LM00018
                  VECTOR VALUES TIME=6                                                            *055 LM00019
                  VECTOR VALUES DATELU=7                                                          *056 LM00020
                  VECTOR VALUES AUTHOR=8                                                          *057 LM00021
                  VECTOR VALUES MODE=9                                                            *058 LM00022
                  VECTOR VALUES ILOCK=10                                                          *059 LM00023
                  VECTOR VALUES F=11                                                              *060 LM00024
                  VECTOR VALUES RCOUNT=12                                                         *061 LM00025
                  VECTOR VALUES S=13                                                              *062 LM00026
                  VECTOR VALUES W=14                                                              *063 LM00027
                  VECTOR VALUES R=15                                                              *064 LM00028
                  VECTOR VALUES NORECS=16                                                         *065 LM00029
                  VECTOR VALUES P=17                                                              *066 LM00030
                  VECTOR VALUES LCOUNT=18                                                         *067 LM00031
                  VECTOR VALUES LSTRK=19                                                          *068 LM00032
                  VECTOR VALUES FSTRK=20                                                          *069 LM00033
                  VECTOR VALUES TEMPMD=1K                                                         *070 LM00034
                  VECTOR VALUES PARTER=1K                                                         *071 LM00035
                  VECTOR VALUES DISKER=2K                                                         *072 LM00036
                  VECTOR VALUES BADBP=4K                                                          *073 LM00037
                  VECTOR VALUES BADTR=1K1                                                         *074 LM00038
                  VECTOR VALUES BADFP=2K1                                                         *075 LM00039
                  VECTOR VALUES BADTN=4K1                                                         *076 LM00040
                  VECTOR VALUES UNPTRK=1K2                                                        *077 LM00041
                  VECTOR VALUES RUSTRK=2K2                                                        *078 LM00042
                  VECTOR VALUES DIRTRN=4K2                                                        *079 LM00043
                  VECTOR VALUES DTATRN=1K3                                                        *080 LM00044
                  VECTOR VALUES NZITEM=2K3                                                        *081 LM00045
                  VECTOR VALUES BADF=4K3                                                          *082 LM00046
                  VECTOR VALUES BADLTK=1K4                                                        *083 LM00047
                  VECTOR VALUES FATAL=2K4                                                         *084 LM00048
                  VECTOR VALUES FORCE=4K4                                                         *085 LM00049
                  VECTOR VALUES BADATE=1K5                                                        *086 LM00050
                  VECTOR VALUES BADLCT=2K5                                                        *087 LM00051
                  VECTOR VALUES BADRCT=4K5                                                        *088 LM00052
                  VECTOR VALUES BADTC=1K6                                                         *089 LM00053
                  VECTOR VALUES BADP=2K6                                                          *090 LM00054
                  VECTOR VALUES BKCOR=4K6                                                         *091 LM00055
                  VECTOR VALUES BKBAD=1K7                                                         *092 LM00056
                                                                                                       LM00057
                  DIMENSION ENT(7)                                                                *093 LM00040
                  NORMAL MODE IS INTEGER                                                          *094 LM00041
                  BOOLEAN FIRST                                                                   *095 LM00042
                  END OF FUNCTION                                                                 *096 LM00043
1MAD PROGRAM,TYPE NOV 1963      (ALL NUMBERS ARE OCTAL)
0TOTAL LOCATIONS   01347 TRANSFER VECTOR LENGTH  00007 PROGRAM BEGINS    01143
0 PROGRAM IS AN EXTERNAL FUNCTION.   THE FOLLOWING ARE ENTRIES
      SRHMFD 01144   0
0VARIABLE STORAGE (A=ARRAY,C=COMMON,E=ERASABLE,DIGIT=MODE)
      ALPHA  00012 A 1        BKBAD  00030 A 1        ERR    00010   4        LDMM   01100 A 1        PROBN  01114 A 1
      AUTHOR 00013 A 1        BKCOR  00031 A 1        FATAL  01064 A 1        LOADER 01101 A 1        PROGN  01115 A 1
      BADATE 00014 A 1        BUF    01016 A 1        FIRST  01065 A 2        LOOP   00011   4        P      01116 A 1
      BADBP  00015 A 1        CANNED 01043 A 1        FORCE  01066 A 1        LSTRK  01102 A 1        RCOUNT 01117 A 1
      BADFP  00016 A 1        CL     00007   4        F      01067 A 1        MFDORG 01103 A 1        REL    01120   1
      BADF   00017 A 1        DATELU 01044 A 1        FSTRK  01070 A 1        MODE   01104 A 1        R      01121 A 1
      BADLCT 00020 A 1        DAYTIM 01045 A 1        HDKM   01071 A 1        NDKT   01105 A 1        RUSTRK 01122 A 1
      BADLTK 00021 A 1        DIRTRN 01046 A 1        HDMM   01072 A 1        NDMT   01106 A 1        SP     01123 A 1
      BADP   00022 A 1        DISKER 01047 A 1        ILOCK  01073 A 1        NORECS 01107 A 1        S      01124 A 1
      BADRCT 00023 A 1        DTATRN 01050 A 1        JJ     01074   1        NQW    01110 A 1        TEMPMD 01125 A 1
      BADTC  00024 A 1        ENTLEN 01051 A 1        J      01075   1        NWPT   01111 A 1        TIME   01126 A 1
      BADTN  00025 A 1        ENTRYL 01052 A 1        LCOUNT 01076 A 1        NZITEM 01112 A 1        UNPTRK 01127 A 1
      BADTR  00026 A 1        ENT    01062 A 1        LDKM   01077 A 1        PARTER 01113 A 1        W      01130 A 1
      BETA   00027 A 1        ERC    01063 A 1
0FUNCTION DICTIONARY
      DREAD  00000   1        DWAIT  00001   1        EXIT   00002   1        EXPAND 00003   1        MPRINT 00004   1
      OPEN   00005   1        READ   00006   1
0ABSOLUTE CONSTANTS
 01137 -056044262460     01140 -066445246031     01141 -204546636026     01131 +000000000000     01133 +000000000003
 01134 +000000000764     01142 -342631432534     01136 -043326332433     01132 +000000000001     01135 +233000000000
0STATEMENT DICTIONARY
 00010 TXL -301312001301       00011 TXL -301236001226
0PROGRAM
                 EXTERNAL FUNCTION (I,FREL,ENTRY,A,B,ERROR)                         001  LM00001
                 ENTRY TO SRHMFD.                                                   002  LM00002
 01143 TRA +0 02000 0 01146    01144 SXA +0 63400 2 01314    01145 TSX +0 07400 2 01314
                 W'R FIRST                                                          003  LM00004
 01146 NZT -0 52000 0 01065    01147 TRA +0 02000 0 01220
                      CANNED(PROBN)=$M.F.D.$                                        004  LM00005
 01150 LXA +0 53400 1 01114    01151 CLA +0 50000 0 01136    01152 STO +0 60100 1 01043
                      CANNED(PROGN)=$(FILE)$                                        005  LM00006
 01153 LXA +0 53400 1 01115    01154 CLA +0 50000 0 01142    01155 STO +0 60100 1 01043
                      DREAD.(MFDORG,BUF(500),ERC)                                   006  LM00007
 01156 TSX +0 07400 4 00000    01157 TXH +3 00000 0 01103    01160 TXH +3 00000 0 00032    01161 TXH +3 00000 0 01063
                      DWAIT.(ERR,ERC)                                               007  LM00008
 01162 TSX +0 07400 4 00001    01163 TXH +3 00000 0 00010    01164 TXH +3 00000 0 01063
                      JJ=500-NQW-3                                                  008  LM00009
 01165 CLA +0 50000 0 01134    01166 SUB +0 40200 0 01110    01167 SUB +0 40200 0 01133    01170 STO +0 60100 0 01074
                      T'H CL, FOR J=1,1,J.G.ENTLEN                                  009  LM00010
 01171 CLA +0 50000 0 01132    01172 STO +0 60100 0 01075    01173 TRA +0 02000 0 01177    01174 CLA +0 50000 0 01075
 01175 ADD +0 40000 0 01132    01176 STO +0 60100 0 01075    01177 CLA +0 50000 0 01075    01200 SUB +0 40200 0 01051
 01201 TZE +0 10000 0 01203    01202 TPL +0 12000 0 01213
                      ENT(J)=BUF(JJ)                                                010  LM00011
 01203 LXA +0 53400 1 01075    01204 LXA +0 53400 2 01074    01205 CLA +0 50000 2 01016    01206 STO +0 60100 1 01062
      CL              JJ=JJ-1                                                       011  LM00012
 01207 CLA +0 50000 0 01074    01210 SUB +0 40200 0 01132    01211 STO +0 60100 0 01074    01212 TRA +0 02000 0 01174
                      EXPAND.(ENT,CANNED)                                           012  LM00013
 01213 TSX +0 07400 4 00003    01214 TXH +3 00000 0 01062    01215 TXH +3 00000 0 01043
                      FIRST=0B                                                      013  LM00014
 01216 CLA +0 50000 0 01131    01217 STO +0 60100 0 01065
                 E'L                                                                014  LM00015
                 OPEN.(I,CANNED)                                                    015  LM00016
 01220 TSX +0 07400 4 00005    01221 TXH +3 00000 0 00024    01222 TXH +3 00000 0 01043
                 REL=NQW+1                                                          016  LM00017
 01223 CLA +0 50000 0 01110    01224 ADD +0 40000 0 01132    01225 STO +0 60100 0 01120
      LOOP       READ.(I,REL,ERR,ERC,ERR,ENT,ENTLEN)                                017  LM00018
 01226 TSX +0 07400 4 00006    01227 TXH +3 00000 0 00024    01230 TXH +3 00000 0 01120    01231 TXH +3 00000 0 00010
 01232 TXH +3 00000 0 01063    01233 TXH +3 00000 0 00010    01234 TXH +3 00000 0 01062    01235 TXH +3 00000 0 01051
                 W'R ENT(PROBN).E.$M.F.D.$ .AND. ENT(PROGN).E.$(FILE)$              018  LM00019
 01236 LXA +0 53400 1 01115    01237 CLA +0 50000 1 01062    01240 SUB +0 40200 0 01142    01241 TNZ -0 10000 0 01251
 01242 LXA +0 53400 1 01114    01243 CLA +0 50000 1 01062    01244 SUB +0 40200 0 01136    01245 TNZ -0 10000 0 01251
                      EXPAND.(ENT,CANNED)                                           019  LM00020
 01246 TSX +0 07400 4 00003    01247 TXH +3 00000 0 01062    01250 TXH +3 00000 0 01043
                 E'L                                                                020  LM00021
                 W'R A.E.ENT(PROBN) .AND. B.E.ENT(PROGN)                            021  LM00022
 01251 LXA +0 53400 2 01115    01252 CLA +0 50000 0 00024    01253 SUB +0 40200 2 01062    01254 TNZ -0 10000 0 01275
 01255 LXA +0 53400 2 01114    01256 CLA +0 50000 0 00024    01257 SUB +0 40200 2 01062    01260 TNZ -0 10000 0 01275
                      EXPAND.(ENT,ENTRY)                                            022  LM00023
 01261 TSX +0 07400 4 00003    01262 TXH +3 00000 0 01062    01263 TXH +3 00000 0 00024
                      ENTRY(PROBN)=$M.F.D.$                                         023  LM00024
 01264 LXA +0 53400 1 01114    01265 CLA +0 50000 0 01136    01266 STO +0 60100 1 00024
                      ENTRY(PROGN)=$(FILE)$                                         024  LM00025
 01267 LXA +0 53400 1 01115    01270 CLA +0 50000 0 01142    01271 STO +0 60100 1 00024
                      FREL=REL                                                      025  LM00026
 01272 CLA +0 50000 0 01120    01273 STO +0 60100 0 00024
                      F'N                                                           026  LM00027
 01274 TRA +0 02000 0 01341
                 E'L                                                                027  LM00028
                 REL=REL+ENTLEN                                                     028  LM00029
 01275 CLA +0 50000 0 01120    01276 ADD +0 40000 0 01051    01277 STO +0 60100 0 01120
                 T'O LOOP                                                           029  LM00030
 01300 TRA +0 02000 0 00011
      ERR        MPRINT.(3,SP,A,SP,B,$ NOT FOUND IN MFD$)                           030  LM00032
 01301 TSX +0 07400 4 00004    01302 TXH +3 00000 0 01133    01303 TXH +3 00000 0 01123    01304 TXH +3 00000 0 00024
 01305 TXH +3 00000 0 01123    01306 TXH +3 00000 0 00024    01307 TXH +3 00000 0 01141    01310 TXH +3 00000 0 01140
 01311 TXH +3 00000 0 01137
                 T'O ERROR                                                          031  LM00033
 01312 TRA +0 02000 0 00024
                 STATEMENT LABEL ERROR                                              032  LM00034
                 V'S SP=607777777777K                                               033  LM00035
 01123     -2 07777 7 77777
                 V'S FIRST=1B                                                       034  LM00036
 01065     +0 00000 0 00001
                 DIMENSION CANNED(20),BUF(500)                                      035  LM00037
                 V'S ERC=0                                                          036  LM00038
 01063     +0 00000 0 00000
                 INSERT FILE SALEQU                                                 037  LM00039
                 V'S MFDORG=101212121212K                                           038  LM00002
 01103     +1 01212 1 21212
                 V'S LOADER=001212121212K                                           039  LM00003
 01101     +0 01212 1 21212
                 V'S ENTLEN=7                                                       040  LM00004
 01051     +0 00000 0 00007
                 V'S ENTRYL=20                                                      041  LM00005
 01052     +0 00000 0 00024
                 V'S NWPT=432                                                       042  LM00006
 01111     +0 00000 0 00660
                 V'S LDKM=0                                                         043  LM00007
 01077     +0 00000 0 00000
                 V'S HDKM=7                                                         044  LM00008
 01071     +0 00000 0 00007
                 V'S LDMM=8                                                         045  LM00009
 01100     +0 00000 0 00010
                 V'S HDMM=8                                                         046  LM00010
 01072     +0 00000 0 00010
                 V'S NDKT=10000                                                     047  LM00011
 01105     +0 00000 0 23420
                 V'S NDMT=400                                                       048  LM00012
 01106     +0 00000 0 00620
                 V'S NQW=3                                                          049  LM00013
 01110     +0 00000 0 00003
                 V'S PROBN=1                                                        050  LM00014
 01114     +0 00000 0 00001
                 V'S PROGN=2                                                        051  LM00015
 01115     +0 00000 0 00002
                 V'S ALPHA=3                                                        052  LM00016
 00012     +0 00000 0 00003
                 V'S BETA=4                                                         053  LM00017
 00027     +0 00000 0 00004
                 V'S DAYTIM=5                                                       054  LM00018
 01045     +0 00000 0 00005
                 V'S TIME=6                                                         055  LM00019
 01126     +0 00000 0 00006
                 V'S DATELU=7                                                       056  LM00020
 01044     +0 00000 0 00007
                 V'S AUTHOR=8                                                       057  LM00021
 00013     +0 00000 0 00010
                 V'S MODE=9                                                         058  LM00022
 01104     +0 00000 0 00011
                 V'S ILOCK=10                                                       059  LM00023
 01073     +0 00000 0 00012
                 V'S F=11                                                           060  LM00024
 01067     +0 00000 0 00013
                 V'S RCOUNT=12                                                      061  LM00025
 01117     +0 00000 0 00014
                 V'S S=13                                                           062  LM00026
 01124     +0 00000 0 00015
                 V'S W=14                                                           063  LM00027
 01130     +0 00000 0 00016
                 V'S R=15                                                           064  LM00028
 01121     +0 00000 0 00017
                 V'S NORECS=16                                                      065  LM00029
 01107     +0 00000 0 00020
                 V'S P=17                                                           066  LM00030
 01116     +0 00000 0 00021
                 V'S LCOUNT=18                                                      067  LM00031
 01076     +0 00000 0 00022
                 V'S LSTRK=19                                                       068  LM00032
 01102     +0 00000 0 00023
                 V'S FSTRK=20                                                       069  LM00033
 01070     +0 00000 0 00024
                 V'S TEMPMD=1K                                                      070  LM00034
 01125     +0 00000 0 00001
                 V'S PARTER=1K                                                      071  LM00035
 01113     +0 00000 0 00001
                 V'S DISKER=2K                                                      072  LM00036
 01047     +0 00000 0 00002
                 V'S BADBP=4K                                                       073  LM00037
 00015     +0 00000 0 00004
                 V'S BADTR=1K1                                                      074  LM00038
 00026     +0 00000 0 00010
                 V'S BADFP=2K1                                                      075  LM00039
 00016     +0 00000 0 00020
                 V'S BADTN=4K1                                                      076  LM00040
 00025     +0 00000 0 00040
                 V'S UNPTRK=1K2                                                     077  LM00041
 01127     +0 00000 0 00100
                 V'S RUSTRK=2K2                                                     078  LM00042
 01122     +0 00000 0 00200
                 V'S DIRTRN=4K2                                                     079  LM00043
 01046     +0 00000 0 00400
                 V'S DTATRN=1K3                                                     080  LM00044
 01050     +0 00000 0 01000
                 V'S NZITEM=2K3                                                     081  LM00045
 01112     +0 00000 0 02000
                 V'S BADF=4K3                                                       082  LM00046
 00017     +0 00000 0 04000
                 V'S BADLTK=1K4                                                     083  LM00047
 00021     +0 00000 0 10000
                 V'S FATAL=2K4                                                      084  LM00048
 01064     +0 00000 0 20000
                 V'S FORCE=4K4                                                      085  LM00049
 01066     +0 00000 0 40000
                 V'S BADATE=1K5                                                     086  LM00050
 00014     +0 00000 1 00000
                 V'S BADLCT=2K5                                                     087  LM00051
 00020     +0 00000 2 00000
                 V'S BADRCT=4K5                                                     088  LM00052
 00023     +0 00000 4 00000
                 V'S BADTC=1K6                                                      089  LM00053
 00024     +0 00001 0 00000
                 V'S BADP=2K6                                                       090  LM00054
 00022     +0 00002 0 00000
                 V'S BKCOR=4K6                                                      091  LM00055
 00031     +0 00004 0 00000
                 V'S BKBAD=1K7                                                      092  LM00056
 00030     +0 00010 0 00000
                 DIMENSION ENT(7)                                                   093  LM00040
                 NORMAL MODE IS INTEGER                                             094  LM00041
                 BOOLEAN FIRST                                                      095  LM00042
                 END OF FUNCTION                                                    096  LM00043
 01313 TSX +0 07400 4 00002    01314 TXH +3 00000 0 00000    01315 SXD -0 63400 1 01314    01316 SXA +0 63400 4 01341
 01317 CLA +0 50000 4 00001    01320 STO +0 60100 0 01221    01321 STO +0 60100 0 01227    01322 CLA +0 50000 4 00002
 01323 STA +0 62100 0 01273    01324 CLA +0 50000 4 00003    01325 STO +0 60100 0 01263    01326 STA +0 62100 0 01266
 01327 STA +0 62100 0 01271    01330 CLA +0 50000 4 00004    01331 STA +0 62100 0 01256    01332 STO +0 60100 0 01304
 01333 CLA +0 50000 4 00005    01334 STA +0 62100 0 01252    01335 STO +0 60100 0 01306    01336 CLA +0 50000 4 00006
 01337 STA +0 62100 0 01312    01340 TRA +0 02000 2 00001    01341 AXT +0 77400 4 00000    01342 LXA +0 53400 2 01314
 01343 LXD -0 53400 1 01314    01344 TRA +0 02000 4 00001


 RFIL4   BCD 12/14/70 1515.5   26445         00000
1     MAD PROGRAM LISTING ... ... ...                 FILE    RFIL   MAD            11/05/70    1934.0
-
                  EXTERNAL FUNCTION (II,A,B,C,D,E,FF)                                             *001 LM00001
                   (I,REL,ERROR,ERCODE,EOF,A,N)                                                        LM00002
                  ENTRY TO OPEN.                                                                  *002 LM00003
                  (I,ENTRY)                                                                            LM00004
                  I=II                                                                            *003 LM00005
                  EBASE=I*ENTRYL-ENTRYL                                                           *004 LM00006
                  THROUGH OPL, FOR J=1,1,J.G.ENTRYL                                               *005 LM00007
      OPL         ENTRYS(EBASE+J)=A(J)                                                            *006 LM00008
                  TRACKN(I)=0                                                                     *007 LM00009
                  THIST(I)=0                                                                      *008 LM00010
                  LASTT(I)=0                                                                      *009 LM00011
                  NEXTT(I)=ENTRYS(EBASE+FSTRK)                                                    *010 LM00012
                  CHANGE(I)=0B                                                                    *011 LM00013
                  ECHANG(I)=0B                                                                    *012 LM00014
                  FILLED(I)=0B                                                                    *013 LM00015
                  FUNCTION RETURN                                                                 *014 LM00016
                                                                                                       LM00017
                  ENTRY TO READ.                                                                  *015 LM00018
                  NAM=$READ$                                                                      *016 LM00019
                  (I,REL,ERROR,ERCODE,EOF,X,N)                                                         LM00020
                  READ=1B                                                                         *017 LM00021
                  TRANSFER TO RDWT                                                                *018 LM00022
                                                                                                       LM00023
                  ENTRY TO WRITE.                                                                 *019 LM00024
                  NAM=$WRITE$                                                                     *020 LM00025
                  READ=0B                                                                         *021 LM00026
      RDWT        REL=A                                                                           *022 LM00027
                  N=FF                                                                            *023 LM00028
                  I=II                                                                            *024 LM00029
                  XBASE=0                                                                         *025 LM00030
                  IBUF=I*NB                                                                       *026 LM00031
                  EBASE=I*ENTRYL-ENTRYL                                                           *027 LM00032
      LOOP        GET.                                                                            *028 LM00033
                  BASE=IBUF-2-WORD                                                                *029 LM00034
                  WHENEVER READ                                                                   *030 LM00035
                       THROUGH MLR, FOR J=1,1,J.G.NMOVE                                           *031 LM00036
      MLR              E(J+XBASE)=BUF(BASE-J)                                                     *032 LM00037
                  OTHERWISE                                                                       *033 LM00038
                       THROUGH MLW, FOR J=1,1,J.G.NMOVE                                           *034 LM00039
      MLW              BUF(BASE-J)=E(J+XBASE)                                                     *035 LM00040
                       CHANGE(I)=1B                                                               *036 LM00041
                  END OF CONDITIONAL                                                              *037 LM00042
                  WHENEVER RNEXT.NE.0                                                             *038 LM00043
                       REL=RNEXT                                                                  *039 LM00044
                       XBASE=XBASE+NMOVE                                                          *040 LM00045
                       N=N-NMOVE                                                                  *041 LM00046
                       TRANSFER TO LOOP                                                           *042 LM00047
                  END OF CONDITIONAL                                                              *043 LM00048
                  FUNCTION RETURN                                                                 *044 LM00049
                                                                                                       LM00050
                  ENTRY TO CHECKF.                                                                *045 LM00051
                   (I,ERR REL,ERROR RETURN)                                                            LM00052
                  I=II                                                                            *046 LM00053
                  EBASE=I*ENTRYL-ENTRYL                                                           *047 LM00054
                  IBUF=I*NB                                                                       *048 LM00055
                  LASTT(I)=0                                                                      *049 LM00056
                  THIST(I)=0                                                                      *050 LM00057
                  NEXTT(I)=ENTRYS(EBASE+FSTRK)                                                    *051 LM00058
                  TRACKN(I)=0                                                                     *052 LM00059
                  TEMPNX=NEXTT(I)                                                                 *053 LM00060
                  DREAD.(TEMPNX,FBUFBK,ERRN)                                                      *054 LM00061
      RLOOP       DWAIT.(ERRN,ERC)                                                                *055 LM00062
                  TEMPNX=FBUFNX                                                                   *056 LM00063
                  TEMPBK=FBUFBK                                                                   *057 LM00064
                  TEMPNU=FBUFNU                                                                   *058 LM00065
                  WHENEVER TEMPNX.NE.0, DREAD.(TEMPNX,FBUFBK,ERRN1)                               *059 LM00066
                  LASTT(I)=THIST(I)                                                               *060 LM00067
                  THIST(I)=NEXTT(I)                                                               *061 LM00068
                  NEXTT(I)=TEMPNX                                                                 *062 LM00069
                  TRACKN(I)=TRACKN(I)+1                                                           *063 LM00070
                  CHECKT.(TEMPBK,ERRT)                                                            *064 LM00071
                  WHENEVER CHANGE(I), TRANSFER TO ERRT                                            *065 LM00072
                  WHENEVER TEMPNX.NE.0, TRANSFER TO RLOOP                                         *066 LM00073
                  FUNCTION RETURN                                                                 *067 LM00074
                                                                                                       LM00075
      ERRN1       TRACKN(I)=TRACKN(I)+1                                                           *068 LM00076
      ERRN        TRACKN(I)=TRACKN(I)+1                                                           *069 LM00077
      ERRT        A=(TRACKN(I)-1)*NWPT+1                                                          *070 LM00078
                  TRACKN(I)=0                                                                     *071 LM00079
                  THIST(I)=0                                                                      *072 LM00080
                  LASTT(I)=0                                                                      *073 LM00081
                  NEXTT(I)=ENTRYS(EBASE+FSTRK)                                                    *074 LM00082
                  CHANGE(I)=0B                                                                    *075 LM00083
                  FILLED(I)=0B                                                                    *076 LM00084
                  TRANSFER TO B                                                                   *077 LM00085
                                                                                                       LM00086
                  DIMENSION FBUF(450),TEMP(3)                                                     *078 LM00087
                  EQUIVALENCE (FBUFNX,FBUF(449)),(FBUFNU,FBUF(448))                               *079 LM00088
                  EQUIVALENCE (TEMPNX,TEMP(2)),(TEMPNU,TEMP(1))                                   *080 LM00089
                  EQUIVALENCE (TEMPBK,TEMP(3)),(FBUFBK,FBUF(450))                                 *081 LM00090
                                                                                                       LM00091
                  ENTRY TO TRUNC.                                                                 *082 LM00092
                   (I,REL,ERROR,ERCODE,EOF)                                                            LM00093
                  I=II                                                                            *083 LM00094
                  REL=A-1                                                                         *084 LM00095
                  IBUF=I*NB                                                                       *085 LM00096
                  EBASE=ENTRYL*I-ENTRYL                                                           *086 LM00097
                  GET.                                                                            *087 LM00098
                  LEN(I)=WORD+1                                                                   *088 LM00099
                  NEXTT(I)=0                                                                      *089 LM00100
                  BUF(IBUF-NEXTP)=0                                                               *090 LM00101
                  BUF(IBUF-NUMP)=(LEN(I).LS.18) .V. TRACKN(I)                                     *091 LM00102
                  CHANGE(I)=1B                                                                    *092 LM00103
                  CHECKT.(BUF(IBUF),ERR)                                                          *093 LM00104
                  FUNCTION RETURN                                                                 *094 LM00105
                                                                                                       LM00106
                  ENTRY TO CLOSE.                                                                 *095 LM00107
                  (I,ENTRY,ERROR,ERCODE,CHANGE)                                                        LM00108
                  I=II                                                                            *096 LM00109
                  EBASE=I*ENTRYL-ENTRYL                                                           *097 LM00110
                  IBUF=I*NB                                                                       *098 LM00111
                  WHENEVER ECHANG(I)                                                              *099 LM00112
                       THROUGH CLL, FOR J=1,1,J.G.ENTRYL                                          *100 LM00113
      CLL              A(J)=ENTRYS(EBASE+J)                                                       *101 LM00114
                       DBB=1B                                                                     *102 LM00115
                       D=DB                                                                       *103 LM00116
                  END OF CONDITIONAL                                                              *104 LM00117
                  WHENEVER CHANGE(I).AND.FILLED(I)                                                *105 LM00118
                       DWRIT.(THIST(I),BUF(IBUF),ERR)                                             *106 LM00119
                       DWAIT.(ERR,ERC)                                                            *107 LM00120
                       CHANGE(I)=0B                                                               *108 LM00121
                  END OF CONDITIONAL                                                              *109 LM00122
                  FUNCTION RETURN                                                                 *110 LM00123
                                                                                                       LM00124
                  EQUIVALENCE (DB,DBB)                                                            *111 LM00125
                  BOOLEAN DBB                                                                     *112 LM00126
                                                                                                       LM00127
                  INTERNAL FUNCTION                                                               *113 LM00128
                  ENTRY TO GET.                                                                   *114 LM00129
                  TRACKN=(REL-1)/NWPT+1                                                           *115 LM00130
                  WORD=REL-(TRACKN-1)*NWPT-1                                                      *116 LM00131
      TLOOP       WHENEVER TRACKN.NE.TRACKN(I) .OR. .NOT. FILLED(I)                               *117 LM00132
                       ERC=BADTR                                                                  *118 LM00133
                       WHENEVER CHANGE(I)                                                         *119 LM00134
                            DWRIT.(THIST(I),BUF(IBUF),ERR)                                        *120 LM00135
                            DWAIT.(ERR,ERC)                                                       *121 LM00136
                            CHANGE(I)=0B                                                          *122 LM00137
                       END OF CONDITIONAL                                                         *123 LM00138
                       FILLED(I)=0B                                                               *124 LM00139
                       WHENEVER TRACKN.E.1                                                        *125 LM00140
                            LASTT(I)=0                                                            *126 LM00141
                            THIST(I)=ENTRYS(EBASE+FSTRK)                                          *127 LM00142
                            TRACKN(I)=1                                                           *128 LM00143
                            DREAD.(THIST(I),BUF(IBUF),ERR)                                        *129 LM00144
                            DWAIT.(ERR,ERC)                                                       *130 LM00145
                            NEXTT(I)=BUF(IBUF-NEXTP)                                              *131 LM00146
                            CHECKT.(BUF(IBUF),BERR)                                               *132 LM00147
                       OR WHENEVER TRACKN.E.TRACKN(I)                                             *133 LM00148
                            DREAD.(THIST(I),BUF(IBUF),ERR)                                        *134 LM00149
                            DWAIT.(ERR,ERC)                                                       *135 LM00150
                            CHECKT.(BUF(IBUF),BERR)                                               *136 LM00151
                       OR WHENEVER TRACKN.G.TRACKN(I)                                             *137 LM00152
                            WHENEVER NEXTT(I).E.0, TRANSFER TO D                                  *138 LM00153
                            LASTT(I)=THIST(I)                                                     *139 LM00154
                            THIST(I)=NEXTT(I)                                                     *140 LM00155
                            TRACKN(I)=TRACKN(I)+1                                                 *141 LM00156
                            DREAD.(THIST(I),BUF(IBUF),ERR)                                        *142 LM00157
                            DWAIT.(ERR,ERC)                                                       *143 LM00158
                            NEXTT(I)=BUF(IBUF-NEXTP)                                              *144 LM00159
      BERRT                 CHECKT.(BUF(IBUF),BERR)                                               *145 LM00160
                       OTHERWISE                                                                  *146 LM00161
                            WHENEVER LASTT(I).E.0, TRANSFER TO D                                  *147 LM00162
                            NEXTT(I)=THIST(I)                                                     *148 LM00163
                            THIST(I)=LASTT(I)                                                     *149 LM00164
                            TRACKN(I)=TRACKN(I)-1                                                 *150 LM00165
                            DREAD.(THIST(I),BUF(IBUF),ERR)                                        *151 LM00166
                            DWAIT.(ERR,ERC)                                                       *152 LM00167
                            LASTT(I)=BUF(IBUF-LASTP)                                              *153 LM00168
                            CHECKT.(BUF(IBUF),ERR)                                                *154 LM00169
                       END OF CONDITIONAL                                                         *155 LM00170
                       WHENEVER NEXTT(I).E.0                                                      *156 LM00171
                            LEN(I)=BUF(IBUF-NUMP).RS.18                                           *157 LM00172
                       OTHERWISE                                                                  *158 LM00173
                            LEN(I)=NWPT                                                           *159 LM00174
                       END OF CONDITIONAL                                                         *160 LM00175
                       FILLED(I)=1B                                                               *161 LM00176
                       TRANSFER TO TLOOP                                                          *162 LM00177
                  END OF CONDITIONAL                                                              *163 LM00178
                  WHENEVER WORD.GE.LEN(I),TRANSFER TO D                                           *164 LM00179
                  WHENEVER WORD+N.G.LEN(I)                                                        *165 LM00180
                       NMOVE=LEN(I)-WORD                                                          *166 LM00181
                       RNEXT=REL+NMOVE                                                            *167 LM00182
                  OTHERWISE                                                                       *168 LM00183
                       RNEXT=0                                                                    *169 LM00184
                       NMOVE=N                                                                    *170 LM00185
                  END OF CONDITIONAL                                                              *171 LM00186
                  FUNCTION RETURN                                                                 *172 LM00187
                                                                                                       LM00188
      BERR        BNEXTT=0                                                                        *173 LM00189
                  BTHIST=ENTRYS(EBASE+LSTRK)                                                      *174 LM00190
                  BLASTT=0                                                                        *175 LM00191
                  BTRKN=ENTRYS(EBASE+NORECS)                                                      *176 LM00192
                  BKERC=BADTR                                                                     *177 LM00193
      BLOOP       DREAD.(BTHIST,BUF(IBUF),BKERR)                                                  *178 LM00194
                  DWAIT.(BKERR,BKERC)                                                             *179 LM00195
                  BLASTT=BUF(IBUF-LASTP)                                                          *180 LM00196
                  WHENEVER BTHIST.E.THIST(I)                                                      *181 LM00197
                       BLASTT=LASTT(I)                                                            *182 LM00198
                       BUF(IBUF-LASTP)=BLASTT                                                     *183 LM00199
                       BUF(IBUF-NUMP)=BUF(IBUF-NUMP).A.77777K6.V.TRACKN(I)                        *184 LM00200
                       TRANSFER TO BOK                                                            *185 LM00201
                  OR WHENEVER BTHIST.E.LASTT(I)                                                   *186 LM00202
                       BUF(IBUF-NEXTP)=BNEXTT                                                     *187 LM00203
      BOK              CHANGE(I)=1B                                                               *188 LM00204
                 GROSS FIX FOR BACK-CHAINING LOOP -- 01/26/69                                          LM00205
                       WHENEVER SW.(4).NE.0                                                       *189 LM00206
      RS4                   MPRINT.(3,$RESET SW4, HIT START.$)                                    *190 LM00207
                            STOP.                                                                 *191 LM00208
                            WHENEVER SW.(4).NE.0, TRANSFER TO RS4                                 *192 LM00209
                            TRANSFER TO BKERR                                                     *193 LM00210
                       END OF CONDITIONAL                                                         *194 LM00211
                 END OF GROSS FIX                                                                      LM00212
                       LASTT(I)=BLASTT                                                            *195 LM00213
                       THIST(I)=BTHIST                                                            *196 LM00214
                       NEXTT(I)=BNEXTT                                                            *197 LM00215
                       TRACKN(I)=BTRKN                                                            *198 LM00216
                       ERC=ERC.V.BKCOR                                                            *199 LM00217
                       PTFLER.(ENTRYS(EBASE),ERC,LASTT(I),THIST(I),NEXTT(I),                      *200 LM00218
                1         TRACKN(I))                                                              *200 LM00219
                       TRANSFER TO BERRT                                                          *201 LM00220
                  OR WHENEVER BLASTT.E.0.OR.BUF(IBUF-NUMP).A.77777K.NE.BTRKN.OR.                  *202 LM00221
                1    BUF(IBUF-NEXTP).NE.BNEXTT                                                    *202 LM00222
                       BKERC=BKBAD                                                                *203 LM00223
      BKERR            ERC=ERC.V.BKERC                                                            *204 LM00224
                       TRANSFER TO ERR                                                            *205 LM00225
                  OTHERWISE                                                                       *206 LM00226
                       BNEXTT=BTHIST                                                              *207 LM00227
                       BTHIST=BLASTT                                                              *208 LM00228
                       BTRKN=BTRKN-1                                                              *209 LM00229
                       TRANSFER TO BLOOP                                                          *210 LM00230
                  END OF CONDITIONAL                                                              *211 LM00231
                                                                                                       LM00232
                                                                                                       LM00233
      ERR         PTFLER.(ENTRYS(EBASE),ERC,LASTT(I),THIST(I),NEXTT(I),                           *212 LM00234
                1   TRACKN(I))                                                                    *212 LM00235
                  C=ERC                                                                           *213 LM00236
                  TRANSFER TO B                                                                   *214 LM00237
                  END OF FUNCTION                                                                 *215 LM00238
                                                                                                       LM00239
                  INTERNAL FUNCTION (BUFF,ERRLOC)                                                 *216 LM00240
                  ENTRY TO CHECKT.                                                                *217 LM00241
                  CERC=0                                                                          *218 LM00242
                  WHENEVER LASTT(I).NE.BUFF(1K5-LASTP),                                           *219 LM00243
                1    CERC=CERC.V.BADBP                                                            *219 LM00244
                  WHENEVER NEXTT(I).NE.BUFF(1K5-NEXTP),                                           *220 LM00245
                1   CERC=CERC.V.BADFP                                                             *220 LM00246
                  WHENEVER TRACKN(I).NE.BUFF(1K5-NUMP).A.77777K, CERC=CERC.V.BADTN                *221 LM00247
                  WHENEVER CERC.E.0                                                               *222 LM00248
                   SECTION TO GATHER STATS                                                             LM00249
                  VECTOR VALUES TRKS=0                                                            *223 LM00250
                  VECTOR VALUES FILES=0                                                           *224 LM00251
                  VECTOR VALUES SEEKS=0                                                           *225 LM00252
                  VECTOR VALUES SEQ=0                                                             *226 LM00253
                  VECTOR VALUES T=0                                                               *227 LM00254
                  TRKS=TRKS+1                                                                     *228 LM00255
                  WHENEVER LASTT(I).NE.0                                                          *229 LM00256
                       WHENEVER (LASTT(I).EX.THIST(I)).A.777777740000K.NE.0                       *230 LM00257
                            WHENEVER (LASTT(I).EX.THIST(I)).A.77K10.NE.0                          *231 LM00258
                                 SEQ=SEQ+1                                                        *232 LM00259
                            OTHERWISE                                                             *233 LM00260
                                 GRA=TRKCV.(LASTT(I))                                             *234 LM00261
                                 GRB=TRKCV.(THIST(I))                                             *235 LM00262
                                 MOD=GRA.RS.30                                                    *236 LM00263
                                 WHENEVER MOD.GE.LDKM.AND.MOD.LE.HDKM                             *237 LM00264
                                      GRA=BCDEC.((GRA.RS.6).A.77777777K)/40                       *238 LM00265
                                      GRB=BCDEC.((GRB.RS.6).A.77777777K)/40                       *239 LM00266
                                      WHENEVER GRA.NE.GRB                                         *240 LM00267
                                           SEEKS=SEEKS+1                                          *241 LM00268
                                           GRA=GRA/10                                             *242 LM00269
                                           GRB=GRB/10                                             *243 LM00270
                                           WHENEVER GRA.E.GRB                                     *244 LM00271
                                                T=T+50                                            *245 LM00272
                                           OTHERWISE                                              *246 LM00273
                                                GRA=GLOB(GRA/2)                                   *247 LM00274
                                                GRB=GLOB(GRB/2)                                   *248 LM00275
                                           VECTOR VALUES GLOB=0,0,0,1,1,2,2,2,3,3,4,4,4           *249 LM00276
                                                WHENEVER GRA.E.GRB                                *250 LM00277
                                                     T=T+120                                      *251 LM00278
                                                OTHERWISE                                         *252 LM00279
                                                     T=T+180                                      *253 LM00280
                                                END OF CONDITIONAL                                *254 LM00281
                                           END OF CONDITIONAL                                     *255 LM00282
                                      END OF CONDITIONAL                                          *256 LM00283
                                 END OF CONDITIONAL                                               *257 LM00284
                            END OF CONDITIONAL                                                    *258 LM00285
                       END OF CONDITIONAL                                                         *259 LM00286
                  OTHERWISE                                                                       *260 LM00287
                       FILES=FILES+1                                                              *261 LM00288
                  END OF CONDITIONAL                                                              *262 LM00289
                   END OF STAT                                                                         LM00290
                       WHENEVER .NOT. USEDT.(1,THIST(I))                                          *263 LM00291
                            PTFLER.(ENTRYS(EBASE),UNPTRK,LASTT(I),THIST(I),                       *264 LM00292
                1           NEXTT(I),TRACKN(I))                                                   *264 LM00293
                       END OF CONDITIONAL                                                         *265 LM00294
                       LEN=BUFF(1K5-NUMP)                                                         *266 LM00295
                       WHENEVER BUFF(1K5-NEXTP).E.0                                               *267 LM00296
                            WHENEVER LEN.A.77777K .NE. ENTRYS(EBASE+NORECS)                       *268 LM00297
                                 ENTRYS(EBASE+NORECS)=LEN.A.77777K                                *269 LM00298
                                 CERC=CERC.V.BADTC                                                *270 LM00299
                                 ECHANG(I)=1B                                                     *271 LM00300
                            END OF CONDITIONAL                                                    *272 LM00301
                            WHENEVER LEN.RS.18 .NE. ENTRYS(EBASE+LCOUNT)                          *273 LM00302
                                 WHENEVER LEN.RS.18.E.0                                           *274 LM00303
                                      LEN=NWPT.LS.18.V.LEN                                        *275 LM00304
                                      BUFF(1K5-NUMP)=LEN                                          *276 LM00305
                                      CHANGE(I)=1B                                                *277 LM00306
                                 END OF CONDITIONAL                                               *278 LM00307
                                 ENTRYS(EBASE+LCOUNT)=LEN.RS.18                                   *279 LM00308
                                 CERC=CERC.V.BADLCT                                               *280 LM00309
                                 ECHANG(I)=1B                                                     *281 LM00310
                            END OF CONDITIONAL                                                    *282 LM00311
                            WHENEVER THIST(I) .NE. ENTRYS(EBASE+LSTRK)                            *283 LM00312
                                 ENTRYS(EBASE+LSTRK)=THIST(I)                                     *284 LM00313
                                 CERC=CERC.V.BADLTK                                               *285 LM00314
                                 ECHANG(I)=1B                                                     *286 LM00315
                            END OF CONDITIONAL                                                    *287 LM00316
                            WHENEVER CERC.NE.0, PTETER.(ENTRYS(EBASE),CERC,REL)                   *288 LM00317
                       OTHERWISE                                                                  *289 LM00318
                            WHENEVER LEN.RS.18 .NE.0                                              *290 LM00319
                                 BUFF(1K5-NUMP)=LEN.A.777777K                                     *291 LM00320
                                 CHANGE(I)=1B                                                     *292 LM00321
                            END OF CONDITIONAL                                                    *293 LM00322
                       END OF CONDITIONAL                                                         *294 LM00323
                       USET.(1,THIST(I))                                                          *295 LM00324
                       USET.(2,THIST(I))                                                          *296 LM00325
                  OTHERWISE                                                                       *297 LM00326
                       FILLED(I)=0B                                                               *298 LM00327
                       ERC=CERC                                                                   *299 LM00328
                       TRANSFER TO ERRLOC                                                         *300 LM00329
                  END OF CONDITIONAL                                                              *301 LM00330
                  FUNCTION RETURN                                                                 *302 LM00331
                  END OF FUNCTION                                                                 *303 LM00332
                                                                                                       LM00333
                  ENTRY TO PSTAT.                                                                 *304 LM00334
                  MPRINT.(3,                                                                      *305 LM00335
                1  $ T/TRK  T/SK SK/FL    FL MODBK  TRKS   SKS     T$)                            *305 LM00336
                  MPRINT.(3,BZEL.(DEFBC.(T/TRKS)),BZEL.(DEFBC.(T/SEEKS)),                         *306 LM00337
                1   DEFBC.((SEEKS*1000)/FILES).V.$  .000$,                                        *306 LM00338
                2   BZEL.(DEFBC.(FILES)),BZEL.(DEFBC.(SEQ)),                                      *306 LM00339
                3   BZEL.(DEFBC.(TRKS)),BZEL.(DEFBC.(SEEKS)),                                     *306 LM00340
                4   BZEL.(DEFBC.(T))  )                                                           *306 LM00341
                  FUNCTION RETURN                                                                 *307 LM00342
                  NORMAL MODE IS INTEGER                                                          *308 LM00343
                  BOOLEAN CHANGE, READ, FILLED, FIRST, ECHANG, USEDT                              *309 LM00344
                  STATEMENT LABEL B, D, DB, ERRLOC                                                *310 LM00345
                  DIMENSION TRACKN(5),LASTT(5),THIST(5),NEXTT(5)                                  *311 LM00346
                1  ,CHANGE(5),LEN(5),ALPHA(5),BETA(5),BUF(2250),ENTRYS(100)                       *311 LM00347
                1  ,ECHANG(5),FILLED(5)                                                           *311 LM00348
                  INSERT FILE SALEQU                                                              *312 LM00349
                   SALEQU                                                                         *312 LM00001
                  VECTOR VALUES MFDORG=101212121212K                                              *313 LM00002
                  VECTOR VALUES LOADER=001212121212K                                              *314 LM00003
                  VECTOR VALUES ENTLEN=7                                                          *315 LM00004
                  VECTOR VALUES ENTRYL=20                                                         *316 LM00005
                  VECTOR VALUES NWPT=432                                                          *317 LM00006
                  VECTOR VALUES LDKM=0                                                            *318 LM00007
                  VECTOR VALUES HDKM=7                                                            *319 LM00008
                  VECTOR VALUES LDMM=8                                                            *320 LM00009
                  VECTOR VALUES HDMM=8                                                            *321 LM00010
                  VECTOR VALUES NDKT=10000                                                        *322 LM00011
                  VECTOR VALUES NDMT=400                                                          *323 LM00012
                  VECTOR VALUES NQW=3                                                             *324 LM00013
                  VECTOR VALUES PROBN=1                                                           *325 LM00014
                  VECTOR VALUES PROGN=2                                                           *326 LM00015
                  VECTOR VALUES ALPHA=3                                                           *327 LM00016
                  VECTOR VALUES BETA=4                                                            *328 LM00017
                  VECTOR VALUES DAYTIM=5                                                          *329 LM00018
                  VECTOR VALUES TIME=6                                                            *330 LM00019
                  VECTOR VALUES DATELU=7                                                          *331 LM00020
                  VECTOR VALUES AUTHOR=8                                                          *332 LM00021
                  VECTOR VALUES MODE=9                                                            *333 LM00022
                  VECTOR VALUES ILOCK=10                                                          *334 LM00023
                  VECTOR VALUES F=11                                                              *335 LM00024
                  VECTOR VALUES RCOUNT=12                                                         *336 LM00025
                  VECTOR VALUES S=13                                                              *337 LM00026
                  VECTOR VALUES W=14                                                              *338 LM00027
                  VECTOR VALUES R=15                                                              *339 LM00028
                  VECTOR VALUES NORECS=16                                                         *340 LM00029
                  VECTOR VALUES P=17                                                              *341 LM00030
                  VECTOR VALUES LCOUNT=18                                                         *342 LM00031
                  VECTOR VALUES LSTRK=19                                                          *343 LM00032
                  VECTOR VALUES FSTRK=20                                                          *344 LM00033
                  VECTOR VALUES TEMPMD=1K                                                         *345 LM00034
                  VECTOR VALUES PARTER=1K                                                         *346 LM00035
                  VECTOR VALUES DISKER=2K                                                         *347 LM00036
                  VECTOR VALUES BADBP=4K                                                          *348 LM00037
                  VECTOR VALUES BADTR=1K1                                                         *349 LM00038
                  VECTOR VALUES BADFP=2K1                                                         *350 LM00039
                  VECTOR VALUES BADTN=4K1                                                         *351 LM00040
                  VECTOR VALUES UNPTRK=1K2                                                        *352 LM00041
                  VECTOR VALUES RUSTRK=2K2                                                        *353 LM00042
                  VECTOR VALUES DIRTRN=4K2                                                        *354 LM00043
                  VECTOR VALUES DTATRN=1K3                                                        *355 LM00044
                  VECTOR VALUES NZITEM=2K3                                                        *356 LM00045
                  VECTOR VALUES BADF=4K3                                                          *357 LM00046
                  VECTOR VALUES BADLTK=1K4                                                        *358 LM00047
                  VECTOR VALUES FATAL=2K4                                                         *359 LM00048
                  VECTOR VALUES FORCE=4K4                                                         *360 LM00049
                  VECTOR VALUES BADATE=1K5                                                        *361 LM00050
                  VECTOR VALUES BADLCT=2K5                                                        *362 LM00051
                  VECTOR VALUES BADRCT=4K5                                                        *363 LM00052
                  VECTOR VALUES BADTC=1K6                                                         *364 LM00053
                  VECTOR VALUES BADP=2K6                                                          *365 LM00054
                  VECTOR VALUES BKCOR=4K6                                                         *366 LM00055
                  VECTOR VALUES BKBAD=1K7                                                         *367 LM00056
                                                                                                       LM00057
                  VECTOR VALUES NB=443                                                            *368 LM00350
                  VECTOR VALUES LASTP=0                                                           *369 LM00351
                  VECTOR VALUES NEXTP=1                                                           *370 LM00352
                  VECTOR VALUES NUMP=2                                                            *371 LM00353
                  END OF FUNCTION                                                                 *372 LM00354
1MAD PROGRAM,TYPE NOV 1963      (ALL NUMBERS ARE OCTAL)
0TOTAL LOCATIONS   10415 TRANSFER VECTOR LENGTH  00017 PROGRAM BEGINS    05733
0 PROGRAM IS AN EXTERNAL FUNCTION.   THE FOLLOWING ARE ENTRIES
      PSTAT  10210   0        CLOSE  06404   0        TRUNC  06320   0        CHECKF 06151   0        WRITE  06022   0
      READ   06012   0        OPEN   05734   0
0VARIABLE STORAGE (A=ARRAY,C=COMMON,E=ERASABLE,DIGIT=MODE)
      ALPHA  00755 A 1        BTRKN  01007   1        FBUFNX 00023   1        MFDORG 05600 A 1        READ   05632   2
      AUTHOR 00756 A 1        BUF    05322 A 1        FBUF   00724 A 1        MLR    00021   4        REL    05633   1
      BADATE 00757 A 1        CERC   05323   1        FILES  05517 A 1        MLW    00021   4        RLOOP  00745   4
      BADBP  00760 A 1        CHANGE 05331 A 2        FILLED 05525 A 2        MODE   05601 A 1        RNEXT  05634   1
      BADFP  00761 A 1        CLL    00021   4        FORCE  05526 A 1        MOD    05602   1        R      05635 A 1
      BADF   00762 A 1        DATELU 05332 A 1        F      05527 A 1        NAM    05603   1        RS4    00746   4
      BADLCT 00763 A 1        DAYTIM 05333 A 1        FSTRK  05530 A 1        NB     05604 A 1        RUSTRK 05636 A 1
      BADLTK 00764 A 1        DBB    00731   2        GLOB   05545 A 1        NDKT   05605 A 1        SEEKS  05637 A 1
      BADP   00765 A 1        DB     00731   4        GRA    05546   1        NDMT   05606 A 1        SEQ    05640 A 1
      BADRCT 00766 A 1        DIRTRN 05334 A 1        GRB    05547   1        NEXTP  05607 A 1        S      05641 A 1
      BADTC  00767 A 1        DISKER 05335 A 1        HDKM   05550 A 1        NEXTT  05615 A 1        TEMPBK 00725   1
      BADTN  00770 A 1        DTATRN 05336 A 1        HDMM   05551 A 1        NMOVE  05616   1        TEMPMD 05642 A 1
      BADTR  00771 A 1        EBASE  05337   1        IBUF   05552   1        NORECS 05617 A 1        TEMPNU 00727   1
      BASE   00772   1        ECHANG 05345 A 2        ILOCK  05553 A 1        NQW    05620 A 1        TEMPNX 00726   1
      BERR   00732   4        ENTLEN 05346 A 1        I      05554   1        N      05621   1        TEMP   00730 A 1
      BERRT  00733   4        ENTRYL 05347 A 1        J      05555   1        NUMP   05622 A 1        THIST  05650 A 1
      BETA   01000 A 1        ENTRYS 05514 A 1        LASTP  05556 A 1        NWPT   05623 A 1        TIME   05651 A 1
      BKBAD  01001 A 1        ERC    05515   1        LASTT  05564 A 1        NZITEM 05624 A 1        TLOOP  00747   4
      BKCOR  01002 A 1        ERRN1  00737   4        LCOUNT 05565 A 1        OPL    00021   4        TRACKN 05657 A 1
      BKERC  01003   1        ERRN   00740   4        LDKM   05566 A 1        PARTER 05625 A 1        TRKS   05660 A 1
      BKERR  00734   4        ERR    00741   4        LDMM   05567 A 1        PROBN  05626 A 1        T      05661 A 1
      BLASTT 01004   1        ERRT   00742   4        LEN    05575 A 1        PROGN  05627 A 1        UNPTRK 05662 A 1
      BLOOP  00735   4        FATAL  05516 A 1        LOADER 05576 A 1        P      05630 A 1        WORD   05663   1
      BNEXTT 01005   1        FBUFBK 00022   1        LOOP   00743   4        RCOUNT 05631 A 1        W      05664 A 1
      BOK    00736   4        FBUFNU 00024   1        LSTRK  05577 A 1        RDWT   00744   4        XBASE  05665   1
      BTHIST 01006   1
0FUNCTION DICTIONARY
      BCDEC  00000   1        BZEL   00001   1        DEFBC  00002   1        DREAD  00003   1        DWAIT  00004   1
      DWRIT  00005   1        EXIT   00006   1        MPRINT 00007   1        PTETER 00010   1        PTFLER 00011   1
      STOP   00012   1        SW     00013   1        TRKCV  00014   1        USEDT  00015   2        USET   00016   1
      CHECKT 00017   1        GET    00020   1
0ABSOLUTE CONSTANTS
 05717 -206033000000     05703 +000000001750     05721 -206060606063     05722 -206060624262     05723 -206063514262
 05716 -204446242242     05720 -206060602643     05725 -206242612643     05724 -206063616242     05726 -206361635142
 05706 +000000777777     05702 +000000000264     05701 +000000000170     05700 +000000000062     05674 +000000000012
 05677 +000000000050     05707 +000077777777     05673 +000000000006     05676 +000000000036     05731 -370000000000
 05732 -377777740000     05705 +000000100000     05704 +000000077777     05715 -116333606060     05712 +316360626321
 05727 -226604736030     05714 -112562256360     05671 +000000000003     05672 +000000000004     05710 +077777000000
 05675 +000000000022     05670 +000000000002     05730 -265131632560     05713 -112521246060     05666 +000000000000
 05667 +000000000001     05711 +233000000000
0STATEMENT DICTIONARY
 00732 TXL -307103007101       00733 TXL -306750006741       00734 TXL -307327007324       00735 TXL -307131007121
 00736 TXL -307206007203       00737 TXL -306263006257       00740 TXL -306267006263       00741 TXL -307374007341
 00742 TXL -306277006267       00743 TXL -306051006050       00744 TXL -306032006030       00745 TXL -306213006210
 00746 TXL -307220007212       00747 TXL -306533006524
0PROGRAM
                 EXTERNAL FUNCTION (II,A,B,C,D,E,FF)                                001  LM00001
                 ENTRY TO OPEN.                                                     002  LM00003
 05733 TRA +0 02000 0 05736    05734 SXA +0 63400 2 10340    05735 TSX +0 07400 2 10340
                 I=II                                                               003  LM00005
 05736 CLA +0 50000 0 00024    05737 STO +0 60100 0 05554
                 EBASE=I*ENTRYL-ENTRYL                                              004  LM00006
 05740 LDQ +0 56000 0 05554    05741 MPY +0 20000 0 05347    05742 XCA +0 13100 0 00000    05743 SUB +0 40200 0 05347
 05744 STO +0 60100 0 05337
                 T'H OPL, FOR J=1,1,J.G.ENTRYL                                      005  LM00007
 05745 CLA +0 50000 0 05667    05746 STO +0 60100 0 05555    05747 TRA +0 02000 0 05753    05750 CLA +0 50000 0 05555
 05751 ADD +0 40000 0 05667    05752 STO +0 60100 0 05555    05753 CLA +0 50000 0 05555    05754 SUB +0 40200 0 05347
 05755 TZE +0 10000 0 05757    05756 TPL +0 12000 0 05766
      OPL        ENTRYS(EBASE+J)=A(J)                                               006  LM00008
 05757 CLA +0 50000 0 05337    05760 ADD +0 40000 0 05555    05761 PAX +0 73400 1 00000    05762 LXA +0 53400 2 05555
 05763 CLA +0 50000 2 00024    05764 STO +0 60100 1 05514    05765 TRA +0 02000 0 05750
                 TRACKN(I)=0                                                        007  LM00009
 05766 LXA +0 53400 1 05554    05767 CLA +0 50000 0 05666    05770 STO +0 60100 1 05657
                 THIST(I)=0                                                         008  LM00010
 05771 CLA +0 50000 0 05666    05772 STO +0 60100 1 05650
                 LASTT(I)=0                                                         009  LM00011
 05773 CLA +0 50000 0 05666    05774 STO +0 60100 1 05564
                 NEXTT(I)=ENTRYS(EBASE+FSTRK)                                       010  LM00012
 05775 CLA +0 50000 0 05337    05776 ADD +0 40000 0 05530    05777 PAX +0 73400 2 00000    06000 CLA +0 50000 2 05514
 06001 STO +0 60100 1 05615
                 CHANGE(I)=0B                                                       011  LM00013
 06002 CLA +0 50000 0 05666    06003 STO +0 60100 1 05331
                 ECHANG(I)=0B                                                       012  LM00014
 06004 CLA +0 50000 0 05666    06005 STO +0 60100 1 05345
                 FILLED(I)=0B                                                       013  LM00015
 06006 CLA +0 50000 0 05666    06007 STO +0 60100 1 05525
                 FUNCTION RETURN                                                    014  LM00016
 06010 TRA +0 02000 0 10377
                 ENTRY TO READ.                                                     015  LM00018
 06011 TRA +0 02000 0 06014    06012 SXA +0 63400 2 10340    06013 TSX +0 07400 2 10340
                 NAM=$READ$                                                         016  LM00019
 06014 CLA +0 50000 0 05713    06015 STO +0 60100 0 05603
                 READ=1B                                                            017  LM00021
 06016 CLA +0 50000 0 05667    06017 STO +0 60100 0 05632
                 T'O RDWT                                                           018  LM00022
 06020 TRA +0 02000 0 00744
                 ENTRY TO WRITE.                                                    019  LM00024
 06021 TRA +0 02000 0 06024    06022 SXA +0 63400 2 10340    06023 TSX +0 07400 2 10340
                 NAM=$WRITE$                                                        020  LM00025
 06024 CLA +0 50000 0 05730    06025 STO +0 60100 0 05603
                 READ=0B                                                            021  LM00026
 06026 CLA +0 50000 0 05666    06027 STO +0 60100 0 05632
      RDWT       REL=A                                                              022  LM00027
 06030 CLA +0 50000 0 00024    06031 STO +0 60100 0 05633
                 N=FF                                                               023  LM00028
 06032 CLA +0 50000 0 00024    06033 STO +0 60100 0 05621
                 I=II                                                               024  LM00029
 06034 CLA +0 50000 0 00024    06035 STO +0 60100 0 05554
                 XBASE=0                                                            025  LM00030
 06036 CLA +0 50000 0 05666    06037 STO +0 60100 0 05665
                 IBUF=I*NB                                                          026  LM00031
 06040 LDQ +0 56000 0 05554    06041 MPY +0 20000 0 05604    06042 STQ -0 60000 0 05552
                 EBASE=I*ENTRYL-ENTRYL                                              027  LM00032
 06043 LDQ +0 56000 0 05554    06044 MPY +0 20000 0 05347    06045 XCA +0 13100 0 00000    06046 SUB +0 40200 0 05347
 06047 STO +0 60100 0 05337
      LOOP       GET.                                                               028  LM00033
 06050 TSX +0 07400 4 00020
                 BASE=IBUF-2-WORD                                                   029  LM00034
 06051 CLA +0 50000 0 05552    06052 SUB +0 40200 0 05670    06053 SUB +0 40200 0 05663    06054 STO +0 60100 0 00772
                 W'R READ                                                           030  LM00035
 06055 NZT -0 52000 0 05632    06056 TRA +0 02000 0 06104
                      T'H MLR, FOR J=1,1,J.G.NMOVE                                  031  LM00036
 06057 CLA +0 50000 0 05667    06060 STO +0 60100 0 05555    06061 TRA +0 02000 0 06065    06062 CLA +0 50000 0 05555
 06063 ADD +0 40000 0 05667    06064 STO +0 60100 0 05555    06065 CLA +0 50000 0 05555    06066 SUB +0 40200 0 05616
 06067 TZE +0 10000 0 06071    06070 TPL +0 12000 0 06103
      MLR             E(J+XBASE)=BUF(BASE-J)                                        032  LM00037
 06071 CLA +0 50000 0 00772    06072 SUB +0 40200 0 05555    06073 STO +0 60100 0 10403    06074 CLA +0 50000 0 05555
 06075 ADD +0 40000 0 05665    06076 PAX +0 73400 1 00000    06077 LXA +0 53400 2 10403    06100 CLA +0 50000 2 05322
 06101 STO +0 60100 1 00024    06102 TRA +0 02000 0 06062
                 O'E                                                                033  LM00038
 06103 TRA +0 02000 0 06133
                      T'H MLW, FOR J=1,1,J.G.NMOVE                                  034  LM00039
 06104 CLA +0 50000 0 05667    06105 STO +0 60100 0 05555    06106 TRA +0 02000 0 06112    06107 CLA +0 50000 0 05555
 06110 ADD +0 40000 0 05667    06111 STO +0 60100 0 05555    06112 CLA +0 50000 0 05555    06113 SUB +0 40200 0 05616
 06114 TZE +0 10000 0 06116    06115 TPL +0 12000 0 06130
      MLW             BUF(BASE-J)=E(J+XBASE)                                        035  LM00040
 06116 CLA +0 50000 0 05555    06117 ADD +0 40000 0 05665    06120 STO +0 60100 0 10403    06121 CLA +0 50000 0 00772
 06122 SUB +0 40200 0 05555    06123 PAX +0 73400 1 00000    06124 LXA +0 53400 2 10403    06125 CLA +0 50000 2 00024
 06126 STO +0 60100 1 05322    06127 TRA +0 02000 0 06107
                      CHANGE(I)=1B                                                  036  LM00041
 06130 LXA +0 53400 1 05554    06131 CLA +0 50000 0 05667    06132 STO +0 60100 1 05331
                 E'L                                                                037  LM00042
                 W'R RNEXT.NE.0                                                     038  LM00043
 06133 CLA +0 50000 0 05634    06134 SUB +0 40200 0 05666    06135 TZE +0 10000 0 06147
                      REL=RNEXT                                                     039  LM00044
 06136 CLA +0 50000 0 05634    06137 STO +0 60100 0 05633
                      XBASE=XBASE+NMOVE                                             040  LM00045
 06140 CLA +0 50000 0 05665    06141 ADD +0 40000 0 05616    06142 STO +0 60100 0 05665
                      N=N-NMOVE                                                     041  LM00046
 06143 CLA +0 50000 0 05621    06144 SUB +0 40200 0 05616    06145 STO +0 60100 0 05621
                      T'O LOOP                                                      042  LM00047
 06146 TRA +0 02000 0 00743
                 E'L                                                                043  LM00048
                 FUNCTION RETURN                                                    044  LM00049
 06147 TRA +0 02000 0 10377
                 ENTRY TO CHECKF.                                                   045  LM00051
 06150 TRA +0 02000 0 06153    06151 SXA +0 63400 2 10340    06152 TSX +0 07400 2 10340
                 I=II                                                               046  LM00053
 06153 CLA +0 50000 0 00024    06154 STO +0 60100 0 05554
                 EBASE=I*ENTRYL-ENTRYL                                              047  LM00054
 06155 LDQ +0 56000 0 05554    06156 MPY +0 20000 0 05347    06157 XCA +0 13100 0 00000    06160 SUB +0 40200 0 05347
 06161 STO +0 60100 0 05337
                 IBUF=I*NB                                                          048  LM00055
 06162 LDQ +0 56000 0 05554    06163 MPY +0 20000 0 05604    06164 STQ -0 60000 0 05552
                 LASTT(I)=0                                                         049  LM00056
 06165 LXA +0 53400 1 05554    06166 CLA +0 50000 0 05666    06167 STO +0 60100 1 05564
                 THIST(I)=0                                                         050  LM00057
 06170 CLA +0 50000 0 05666    06171 STO +0 60100 1 05650
                 NEXTT(I)=ENTRYS(EBASE+FSTRK)                                       051  LM00058
 06172 CLA +0 50000 0 05337    06173 ADD +0 40000 0 05530    06174 PAX +0 73400 2 00000    06175 CLA +0 50000 2 05514
 06176 STO +0 60100 1 05615
                 TRACKN(I)=0                                                        052  LM00059
 06177 CLA +0 50000 0 05666    06200 STO +0 60100 1 05657
                 TEMPNX=NEXTT(I)                                                    053  LM00060
 06201 LXA +0 53400 2 05554    06202 CLA +0 50000 2 05615    06203 STO +0 60100 0 00726
                 DREAD.(TEMPNX,FBUFBK,ERRN)                                         054  LM00061
 06204 TSX +0 07400 4 00003    06205 TXH +3 00000 0 00726    06206 TXH +3 00000 0 00022    06207 TXH +3 00000 0 00740
      RLOOP      DWAIT.(ERRN,ERC)                                                   055  LM00062
 06210 TSX +0 07400 4 00004    06211 TXH +3 00000 0 00740    06212 TXH +3 00000 0 05515
                 TEMPNX=FBUFNX                                                      056  LM00063
 06213 CLA +0 50000 0 00023    06214 STO +0 60100 0 00726
                 TEMPBK=FBUFBK                                                      057  LM00064
 06215 CLA +0 50000 0 00022    06216 STO +0 60100 0 00725
                 TEMPNU=FBUFNU                                                      058  LM00065
 06217 CLA +0 50000 0 00024    06220 STO +0 60100 0 00727
                 W'R TEMPNX.NE.0, DREAD.(TEMPNX,FBUFBK,ERRN1)                       059  LM00066
 06221 CLA +0 50000 0 00726    06222 SUB +0 40200 0 05666    06223 TZE +0 10000 0 06230    06224 TSX +0 07400 4 00003
 06225 TXH +3 00000 0 00726    06226 TXH +3 00000 0 00022    06227 TXH +3 00000 0 00737
                 LASTT(I)=THIST(I)                                                  060  LM00067
 06230 LXA +0 53400 1 05554    06231 LXA +0 53400 2 05554    06232 CLA +0 50000 2 05650    06233 STO +0 60100 1 05564
                 THIST(I)=NEXTT(I)                                                  061  LM00068
 06234 CLA +0 50000 2 05615    06235 STO +0 60100 1 05650
                 NEXTT(I)=TEMPNX                                                    062  LM00069
 06236 CLA +0 50000 0 00726    06237 STO +0 60100 1 05615
                 TRACKN(I)=TRACKN(I)+1                                              063  LM00070
 06240 CLA +0 50000 1 05657    06241 ADD +0 40000 0 05667    06242 STO +0 60100 1 05657
                 CHECKT.(TEMPBK,ERRT)                                               064  LM00071
 06243 TSX +0 07400 4 00017    06244 TXH +3 00000 0 00725    06245 TXH +3 00000 0 00742
                 W'R CHANGE(I), T'O ERRT                                            065  LM00072
 06246 LXA +0 53400 2 05554    06247 NZT -0 52000 2 05331    06250 TRA +0 02000 0 06252    06251 TRA +0 02000 0 00742
                 W'R TEMPNX.NE.0, T'O RLOOP                                         066  LM00073
 06252 CLA +0 50000 0 00726    06253 SUB +0 40200 0 05666    06254 TZE +0 10000 0 06256    06255 TRA +0 02000 0 00745
                 F'N                                                                067  LM00074
 06256 TRA +0 02000 0 10377
      ERRN1      TRACKN(I)=TRACKN(I)+1                                              068  LM00076
 06257 LXA +0 53400 1 05554    06260 CLA +0 50000 1 05657    06261 ADD +0 40000 0 05667    06262 STO +0 60100 1 05657
      ERRN       TRACKN(I)=TRACKN(I)+1                                              069  LM00077
 06263 LXA +0 53400 1 05554    06264 CLA +0 50000 1 05657    06265 ADD +0 40000 0 05667    06266 STO +0 60100 1 05657
      ERRT       A=(TRACKN(I)-1)*NWPT+1                                             070  LM00078
 06267 LXA +0 53400 1 05554    06270 CLA +0 50000 1 05657    06271 SUB +0 40200 0 05667    06272 XCA +0 13100 0 00000
 06273 MPY +0 20000 0 05623    06274 XCA +0 13100 0 00000    06275 ADD +0 40000 0 05667    06276 STO +0 60100 0 00024
                 TRACKN(I)=0                                                        071  LM00079
 06277 CLA +0 50000 0 05666    06300 STO +0 60100 1 05657
                 THIST(I)=0                                                         072  LM00080
 06301 CLA +0 50000 0 05666    06302 STO +0 60100 1 05650
                 LASTT(I)=0                                                         073  LM00081
 06303 CLA +0 50000 0 05666    06304 STO +0 60100 1 05564
                 NEXTT(I)=ENTRYS(EBASE+FSTRK)                                       074  LM00082
 06305 CLA +0 50000 0 05337    06306 ADD +0 40000 0 05530    06307 PAX +0 73400 2 00000    06310 CLA +0 50000 2 05514
 06311 STO +0 60100 1 05615
                 CHANGE(I)=0B                                                       075  LM00083
 06312 CLA +0 50000 0 05666    06313 STO +0 60100 1 05331
                 FILLED(I)=0B                                                       076  LM00084
 06314 CLA +0 50000 0 05666    06315 STO +0 60100 1 05525
                 T'O B                                                              077  LM00085
 06316 TRA +0 02000 0 00024
                 DIMENSION FBUF(450),TEMP(3)                                        078  LM00087
                 EQUIVALENCE (FBUFNX,FBUF(449)),(FBUFNU,FBUF(448))                  079  LM00088
                 EQUIVALENCE (TEMPNX,TEMP(2)),(TEMPNU,TEMP(1))                      080  LM00089
                 EQUIVALENCE (TEMPBK,TEMP(3)),(FBUFBK,FBUF(450))                    081  LM00090
                 ENTRY TO TRUNC.                                                    082  LM00092
 06317 TRA +0 02000 0 06322    06320 SXA +0 63400 2 10340    06321 TSX +0 07400 2 10340
                 I=II                                                               083  LM00094
 06322 CLA +0 50000 0 00024    06323 STO +0 60100 0 05554
                 REL=A-1                                                            084  LM00095
 06324 CLA +0 50000 0 00024    06325 SUB +0 40200 0 05667    06326 STO +0 60100 0 05633
                 IBUF=I*NB                                                          085  LM00096
 06327 LDQ +0 56000 0 05554    06330 MPY +0 20000 0 05604    06331 STQ -0 60000 0 05552
                 EBASE=ENTRYL*I-ENTRYL                                              086  LM00097
 06332 LDQ +0 56000 0 05347    06333 MPY +0 20000 0 05554    06334 XCA +0 13100 0 00000    06335 SUB +0 40200 0 05347
 06336 STO +0 60100 0 05337
                 GET.                                                               087  LM00098
 06337 TSX +0 07400 4 00020
                 LEN(I)=WORD+1                                                      088  LM00099
 06340 CLA +0 50000 0 05663    06341 ADD +0 40000 0 05667    06342 LXA +0 53400 1 05554    06343 STO +0 60100 1 05575
                 NEXTT(I)=0                                                         089  LM00100
 06344 CLA +0 50000 0 05666    06345 STO +0 60100 1 05615
                 BUF(IBUF-NEXTP)=0                                                  090  LM00101
 06346 CLA +0 50000 0 05552    06347 SUB +0 40200 0 05607    06350 PAX +0 73400 1 00000    06351 CLA +0 50000 0 05666
 06352 STO +0 60100 1 05322
                 BUF(IBUF-NUMP)=(LEN(I).LS.18) .V. TRACKN(I)                        091  LM00102
 06353 LXA +0 53400 1 05554    06354 CAL -0 50000 0 05675    06355 STA +0 62100 0 06357    06356 CAL -0 50000 1 05575
 06357 ALS +0 76700 0 00000    06360 LXA +0 53400 2 05554    06361 ORA -0 50100 2 05657    06362 SLW +0 60200 0 10403
 06363 CLA +0 50000 0 05552    06364 SUB +0 40200 0 05622    06365 PAX +0 73400 1 00000    06366 CLA +0 50000 0 10403
 06367 STO +0 60100 1 05322
                 CHANGE(I)=1B                                                       092  LM00103
 06370 LXA +0 53400 1 05554    06371 CLA +0 50000 0 05667    06372 STO +0 60100 1 05331
                 CHECKT.(BUF(IBUF),ERR)                                             093  LM00104
 06373 CLA +0 50000 0 05552    06374 SUB +0 40200 0 06375    06375 TXH +3 00000 0 05322    06376 STA +0 62100 0 06400
 06377 TSX +0 07400 4 00017    06400 TXH +3 00000 0 00000    06401 TXH +3 00000 0 00741
                 F'N                                                                094  LM00105
 06402 TRA +0 02000 0 10377
                 ENTRY TO CLOSE.                                                    095  LM00107
 06403 TRA +0 02000 0 06406    06404 SXA +0 63400 2 10340    06405 TSX +0 07400 2 10340
                 I=II                                                               096  LM00109
 06406 CLA +0 50000 0 00024    06407 STO +0 60100 0 05554
                 EBASE=I*ENTRYL-ENTRYL                                              097  LM00110
 06410 LDQ +0 56000 0 05554    06411 MPY +0 20000 0 05347    06412 XCA +0 13100 0 00000    06413 SUB +0 40200 0 05347
 06414 STO +0 60100 0 05337
                 IBUF=I*NB                                                          098  LM00111
 06415 LDQ +0 56000 0 05554    06416 MPY +0 20000 0 05604    06417 STQ -0 60000 0 05552
                 W'R ECHANG(I)                                                      099  LM00112
 06420 LXA +0 53400 2 05554    06421 NZT -0 52000 2 05345    06422 TRA +0 02000 0 06450
                      T'H CLL, FOR J=1,1,J.G.ENTRYL                                 100  LM00113
 06423 CLA +0 50000 0 05667    06424 STO +0 60100 0 05555    06425 TRA +0 02000 0 06431    06426 CLA +0 50000 0 05555
 06427 ADD +0 40000 0 05667    06430 STO +0 60100 0 05555    06431 CLA +0 50000 0 05555    06432 SUB +0 40200 0 05347
 06433 TZE +0 10000 0 06435    06434 TPL +0 12000 0 06444
      CLL             A(J)=ENTRYS(EBASE+J)                                          101  LM00114
 06435 CLA +0 50000 0 05337    06436 ADD +0 40000 0 05555    06437 LXA +0 53400 1 05555    06440 PAX +0 73400 2 00000
 06441 CLA +0 50000 2 05514    06442 STO +0 60100 1 00024    06443 TRA +0 02000 0 06426
                      DBB=1B                                                        102  LM00115
 06444 CLA +0 50000 0 05667    06445 STO +0 60100 0 00731
                      D=DB                                                          103  LM00116
 06446 CLA +0 50000 0 00731    06447 STO +0 60100 0 00024
                 E'L                                                                104  LM00117
                 W'R CHANGE(I).AND.FILLED(I)                                        105  LM00118
 06450 LXA +0 53400 1 05554    06451 NZT -0 52000 1 05525    06452 TRA +0 02000 0 06477    06453 NZT -0 52000 1 05331
 06454 TRA +0 02000 0 06477
                      DWRIT.(THIST(I),BUF(IBUF),ERR)                                106  LM00119
 06455 CLA +0 50000 0 05552    06456 SUB +0 40200 0 06457    06457 TXH +3 00000 0 05322    06460 STA +0 62100 0 06467
 06461 CLA +0 50000 0 05554    06462 SUB +0 40200 0 06463    06463 TXH +3 00000 0 05650    06464 STA +0 62100 0 06466
 06465 TSX +0 07400 4 00005    06466 TXH +3 00000 0 00000    06467 TXH +3 00000 0 00000    06470 TXH +3 00000 0 00741
                      DWAIT.(ERR,ERC)                                               107  LM00120
 06471 TSX +0 07400 4 00004    06472 TXH +3 00000 0 00741    06473 TXH +3 00000 0 05515
                      CHANGE(I)=0B                                                  108  LM00121
 06474 LXA +0 53400 1 05554    06475 CLA +0 50000 0 05666    06476 STO +0 60100 1 05331
                 E'L                                                                109  LM00122
                 F'N                                                                110  LM00123
 06477 TRA +0 02000 0 10377
                 EQUIVALENCE (DB,DBB)                                               111  LM00125
                 BOOLEAN DBB                                                        112  LM00126
                 INTERNAL FUNCTION                                                  113  LM00128
 06500 TRA +0 02000 0 07411
                 ENTRY TO GET.                                                      114  LM00129
 06501 TRA +0 02000 0 06504    00020 TTR +0 02100 0 06502    06502 SXA +0 63400 2 07400    06503 TSX +0 07400 2 07400
                 TRACKN=(REL-1)/NWPT+1                                              115  LM00130
 06504 CLA +0 50000 0 05633    06505 SUB +0 40200 0 05667    06506 LRS +0 76500 0 00043    06507 DVP +0 22100 0 05623
 06510 XCA +0 13100 0 00000    06511 ADD +0 40000 0 05667    06512 STO +0 60100 0 05657
                 WORD=REL-(TRACKN-1)*NWPT-1                                         116  LM00131
 06513 CLA +0 50000 0 05657    06514 SUB +0 40200 0 05667    06515 XCA +0 13100 0 00000    06516 MPY +0 20000 0 05623
 06517 XCA +0 13100 0 00000    06520 CHS +0 76000 0 00002    06521 ADD +0 40000 0 05633    06522 SUB +0 40200 0 05667
 06523 STO +0 60100 0 05663
      TLOOP      W'R TRACKN.NE.TRACKN(I) .OR. .NOT. FILLED(I)                       117  LM00132
 06524 LXA +0 53400 1 05554    06525 NZT -0 52000 1 05525    06526 TRA +0 02000 0 06533    06527 LXA +0 53400 2 05554
 06530 CLA +0 50000 0 05657    06531 SUB +0 40200 2 05657    06532 TZE +0 10000 0 07050
                      ERC=BADTR                                                     118  LM00133
 06533 CLA +0 50000 0 00771    06534 STO +0 60100 0 05515
                      W'R CHANGE(I)                                                 119  LM00134
 06535 LXA +0 53400 2 05554    06536 NZT -0 52000 2 05331    06537 TRA +0 02000 0 06562
                           DWRIT.(THIST(I),BUF(IBUF),ERR)                           120  LM00135
 06540 CLA +0 50000 0 05552    06541 SUB +0 40200 0 06542    06542 TXH +3 00000 0 05322    06543 STA +0 62100 0 06552
 06544 CLA +0 50000 0 05554    06545 SUB +0 40200 0 06546    06546 TXH +3 00000 0 05650    06547 STA +0 62100 0 06551
 06550 TSX +0 07400 4 00005    06551 TXH +3 00000 0 00000    06552 TXH +3 00000 0 00000    06553 TXH +3 00000 0 00741
                           DWAIT.(ERR,ERC)                                          121  LM00136
 06554 TSX +0 07400 4 00004    06555 TXH +3 00000 0 00741    06556 TXH +3 00000 0 05515
                           CHANGE(I)=0B                                             122  LM00137
 06557 LXA +0 53400 1 05554    06560 CLA +0 50000 0 05666    06561 STO +0 60100 1 05331
                      E'L                                                           123  LM00138
                      FILLED(I)=0B                                                  124  LM00139
 06562 LXA +0 53400 1 05554    06563 CLA +0 50000 0 05666    06564 STO +0 60100 1 05525
                      W'R TRACKN.E.1                                                125  LM00140
 06565 CLA +0 50000 0 05657    06566 SUB +0 40200 0 05667    06567 TNZ -0 10000 0 06636
                           LASTT(I)=0                                               126  LM00141
 06570 CLA +0 50000 0 05666    06571 STO +0 60100 1 05564
                           THIST(I)=ENTRYS(EBASE+FSTRK)                             127  LM00142
 06572 CLA +0 50000 0 05337    06573 ADD +0 40000 0 05530    06574 PAX +0 73400 2 00000    06575 CLA +0 50000 2 05514
 06576 STO +0 60100 1 05650
                           TRACKN(I)=1                                              128  LM00143
 06577 CLA +0 50000 0 05667    06600 STO +0 60100 1 05657
                           DREAD.(THIST(I),BUF(IBUF),ERR)                           129  LM00144
 06601 CLA +0 50000 0 05552    06602 SUB +0 40200 0 06603    06603 TXH +3 00000 0 05322    06604 STA +0 62100 0 06613
 06605 CLA +0 50000 0 05554    06606 SUB +0 40200 0 06607    06607 TXH +3 00000 0 05650    06610 STA +0 62100 0 06612
 06611 TSX +0 07400 4 00003    06612 TXH +3 00000 0 00000    06613 TXH +3 00000 0 00000    06614 TXH +3 00000 0 00741
                           DWAIT.(ERR,ERC)                                          130  LM00145
 06615 TSX +0 07400 4 00004    06616 TXH +3 00000 0 00741    06617 TXH +3 00000 0 05515
                           NEXTT(I)=BUF(IBUF-NEXTP)                                 131  LM00146
 06620 CLA +0 50000 0 05552    06621 SUB +0 40200 0 05607    06622 LXA +0 53400 1 05554    06623 PAX +0 73400 2 00000
 06624 CLA +0 50000 2 05322    06625 STO +0 60100 1 05615
                           CHECKT.(BUF(IBUF),BERR)                                  132  LM00147
 06626 CLA +0 50000 0 05552    06627 SUB +0 40200 0 06630    06630 TXH +3 00000 0 05322    06631 STA +0 62100 0 06633
 06632 TSX +0 07400 4 00017    06633 TXH +3 00000 0 00000    06634 TXH +3 00000 0 00732
                      O'R TRACKN.E.TRACKN(I)                                        133  LM00148
 06635 TRA +0 02000 0 07023    06636 LXA +0 53400 2 05554    06637 CLA +0 50000 0 05657    06640 SUB +0 40200 2 05657
 06641 TNZ -0 10000 0 06671
                           DREAD.(THIST(I),BUF(IBUF),ERR)                           134  LM00149
 06642 CLA +0 50000 0 05552    06643 SUB +0 40200 0 06644    06644 TXH +3 00000 0 05322    06645 STA +0 62100 0 06654
 06646 CLA +0 50000 0 05554    06647 SUB +0 40200 0 06650    06650 TXH +3 00000 0 05650    06651 STA +0 62100 0 06653
 06652 TSX +0 07400 4 00003    06653 TXH +3 00000 0 00000    06654 TXH +3 00000 0 00000    06655 TXH +3 00000 0 00741
                           DWAIT.(ERR,ERC)                                          135  LM00150
 06656 TSX +0 07400 4 00004    06657 TXH +3 00000 0 00741    06660 TXH +3 00000 0 05515
                           CHECKT.(BUF(IBUF),BERR)                                  136  LM00151
 06661 CLA +0 50000 0 05552    06662 SUB +0 40200 0 06663    06663 TXH +3 00000 0 05322    06664 STA +0 62100 0 06666
 06665 TSX +0 07400 4 00017    06666 TXH +3 00000 0 00000    06667 TXH +3 00000 0 00732
                      O'R TRACKN.G.TRACKN(I)                                        137  LM00152
 06670 TRA +0 02000 0 07023    06671 LXA +0 53400 2 05554    06672 CLA +0 50000 0 05657    06673 SUB +0 40200 2 05657
 06674 TZE +0 10000 0 06751    06675 TMI -0 12000 0 06751
                           W'R NEXTT(I).E.0, T'O D                                  138  LM00153
 06676 LXA +0 53400 1 05554    06677 CLA +0 50000 1 05615    06700 SUB +0 40200 0 05666    06701 TNZ -0 10000 0 06703
 06702 TRA +0 02000 0 00024
                           LASTT(I)=THIST(I)                                        139  LM00154
 06703 LXA +0 53400 1 05554    06704 LXA +0 53400 2 05554    06705 CLA +0 50000 2 05650    06706 STO +0 60100 1 05564
                           THIST(I)=NEXTT(I)                                        140  LM00155
 06707 CLA +0 50000 2 05615    06710 STO +0 60100 1 05650
                           TRACKN(I)=TRACKN(I)+1                                    141  LM00156
 06711 CLA +0 50000 1 05657    06712 ADD +0 40000 0 05667    06713 STO +0 60100 1 05657
                           DREAD.(THIST(I),BUF(IBUF),ERR)                           142  LM00157
 06714 CLA +0 50000 0 05552    06715 SUB +0 40200 0 06716    06716 TXH +3 00000 0 05322    06717 STA +0 62100 0 06726
 06720 CLA +0 50000 0 05554    06721 SUB +0 40200 0 06722    06722 TXH +3 00000 0 05650    06723 STA +0 62100 0 06725
 06724 TSX +0 07400 4 00003    06725 TXH +3 00000 0 00000    06726 TXH +3 00000 0 00000    06727 TXH +3 00000 0 00741
                           DWAIT.(ERR,ERC)                                          143  LM00158
 06730 TSX +0 07400 4 00004    06731 TXH +3 00000 0 00741    06732 TXH +3 00000 0 05515
                           NEXTT(I)=BUF(IBUF-NEXTP)                                 144  LM00159
 06733 CLA +0 50000 0 05552    06734 SUB +0 40200 0 05607    06735 LXA +0 53400 1 05554    06736 PAX +0 73400 2 00000
 06737 CLA +0 50000 2 05322    06740 STO +0 60100 1 05615
      BERRT                CHECKT.(BUF(IBUF),BERR)                                  145  LM00160
 06741 CLA +0 50000 0 05552    06742 SUB +0 40200 0 06743    06743 TXH +3 00000 0 05322    06744 STA +0 62100 0 06746
 06745 TSX +0 07400 4 00017    06746 TXH +3 00000 0 00000    06747 TXH +3 00000 0 00732
                      O'E                                                           146  LM00161
 06750 TRA +0 02000 0 07023
                           W'R LASTT(I).E.0, T'O D                                  147  LM00162
 06751 LXA +0 53400 1 05554    06752 CLA +0 50000 1 05564    06753 SUB +0 40200 0 05666    06754 TNZ -0 10000 0 06756
 06755 TRA +0 02000 0 00024
                           NEXTT(I)=THIST(I)                                        148  LM00163
 06756 LXA +0 53400 1 05554    06757 LXA +0 53400 2 05554    06760 CLA +0 50000 2 05650    06761 STO +0 60100 1 05615
                           THIST(I)=LASTT(I)                                        149  LM00164
 06762 CLA +0 50000 2 05564    06763 STO +0 60100 1 05650
                           TRACKN(I)=TRACKN(I)-1                                    150  LM00165
 06764 CLA +0 50000 1 05657    06765 SUB +0 40200 0 05667    06766 STO +0 60100 1 05657
                           DREAD.(THIST(I),BUF(IBUF),ERR)                           151  LM00166
 06767 CLA +0 50000 0 05552    06770 SUB +0 40200 0 06771    06771 TXH +3 00000 0 05322    06772 STA +0 62100 0 07001
 06773 CLA +0 50000 0 05554    06774 SUB +0 40200 0 06775    06775 TXH +3 00000 0 05650    06776 STA +0 62100 0 07000
 06777 TSX +0 07400 4 00003    07000 TXH +3 00000 0 00000    07001 TXH +3 00000 0 00000    07002 TXH +3 00000 0 00741
                           DWAIT.(ERR,ERC)                                          152  LM00167
 07003 TSX +0 07400 4 00004    07004 TXH +3 00000 0 00741    07005 TXH +3 00000 0 05515
                           LASTT(I)=BUF(IBUF-LASTP)                                 153  LM00168
 07006 CLA +0 50000 0 05552    07007 SUB +0 40200 0 05556    07010 LXA +0 53400 1 05554    07011 PAX +0 73400 2 00000
 07012 CLA +0 50000 2 05322    07013 STO +0 60100 1 05564
                           CHECKT.(BUF(IBUF),ERR)                                   154  LM00169
 07014 CLA +0 50000 0 05552    07015 SUB +0 40200 0 07016    07016 TXH +3 00000 0 05322    07017 STA +0 62100 0 07021
 07020 TSX +0 07400 4 00017    07021 TXH +3 00000 0 00000    07022 TXH +3 00000 0 00741
                      E'L                                                           155  LM00170
                      W'R NEXTT(I).E.0                                              156  LM00171
 07023 LXA +0 53400 1 05554    07024 CLA +0 50000 1 05615    07025 SUB +0 40200 0 05666    07026 TNZ -0 10000 0 07041
                           LEN(I)=BUF(IBUF-NUMP).RS.18                              157  LM00172
 07027 CLA +0 50000 0 05552    07030 SUB +0 40200 0 05622    07031 PAX +0 73400 1 00000    07032 CAL -0 50000 0 05675
 07033 STA +0 62100 0 07035    07034 CAL -0 50000 1 05322    07035 LGR -0 76500 0 00000    07036 LXA +0 53400 1 05554
 07037 SLW +0 60200 1 05575
                      O'E                                                           158  LM00173
 07040 TRA +0 02000 0 07044
                           LEN(I)=NWPT                                              159  LM00174
 07041 LXA +0 53400 1 05554    07042 CLA +0 50000 0 05623    07043 STO +0 60100 1 05575
                      E'L                                                           160  LM00175
                      FILLED(I)=1B                                                  161  LM00176
 07044 LXA +0 53400 1 05554    07045 CLA +0 50000 0 05667    07046 STO +0 60100 1 05525
                      T'O TLOOP                                                     162  LM00177
 07047 TRA +0 02000 0 00747
                 E'L                                                                163  LM00178
                 W'R WORD.GE.LEN(I),T'O D                                           164  LM00179
 07050 LXA +0 53400 2 05554    07051 CLA +0 50000 0 05663    07052 SUB +0 40200 2 05575    07053 TZE +0 10000 0 07055
 07054 TMI -0 12000 0 07056    07055 TRA +0 02000 0 00024
                 W'R WORD+N.G.LEN(I)                                                165  LM00180
 07056 CLA +0 50000 0 05663    07057 ADD +0 40000 0 05621    07060 LXA +0 53400 2 05554    07061 SUB +0 40200 2 05575
 07062 TZE +0 10000 0 07074    07063 TMI -0 12000 0 07074
                      NMOVE=LEN(I)-WORD                                             166  LM00181
 07064 LXA +0 53400 1 05554    07065 CLA +0 50000 1 05575    07066 SUB +0 40200 0 05663    07067 STO +0 60100 0 05616
                      RNEXT=REL+NMOVE                                               167  LM00182
 07070 CLA +0 50000 0 05633    07071 ADD +0 40000 0 05616    07072 STO +0 60100 0 05634
                 O'E                                                                168  LM00183
 07073 TRA +0 02000 0 07100
                      RNEXT=0                                                       169  LM00184
 07074 CLA +0 50000 0 05666    07075 STO +0 60100 0 05634
                      NMOVE=N                                                       170  LM00185
 07076 CLA +0 50000 0 05621    07077 STO +0 60100 0 05616
                 E'L                                                                171  LM00186
                 FUNCTION RETURN                                                    172  LM00187
 07100 TRA +0 02000 0 07404
      BERR       BNEXTT=0                                                           173  LM00189
 07101 CLA +0 50000 0 05666    07102 STO +0 60100 0 01005
                 BTHIST=ENTRYS(EBASE+LSTRK)                                         174  LM00190
 07103 CLA +0 50000 0 05337    07104 ADD +0 40000 0 05577    07105 PAX +0 73400 2 00000    07106 CLA +0 50000 2 05514
 07107 STO +0 60100 0 01006
                 BLASTT=0                                                           175  LM00191
 07110 CLA +0 50000 0 05666    07111 STO +0 60100 0 01004
                 BTRKN=ENTRYS(EBASE+NORECS)                                         176  LM00192
 07112 CLA +0 50000 0 05337    07113 ADD +0 40000 0 05617    07114 PAX +0 73400 2 00000    07115 CLA +0 50000 2 05514
 07116 STO +0 60100 0 01007
                 BKERC=BADTR                                                        177  LM00193
 07117 CLA +0 50000 0 00771    07120 STO +0 60100 0 01003
      BLOOP      DREAD.(BTHIST,BUF(IBUF),BKERR)                                     178  LM00194
 07121 CLA +0 50000 0 05552    07122 SUB +0 40200 0 07123    07123 TXH +3 00000 0 05322    07124 STA +0 62100 0 07127
 07125 TSX +0 07400 4 00003    07126 TXH +3 00000 0 01006    07127 TXH +3 00000 0 00000    07130 TXH +3 00000 0 00734
                 DWAIT.(BKERR,BKERC)                                                179  LM00195
 07131 TSX +0 07400 4 00004    07132 TXH +3 00000 0 00734    07133 TXH +3 00000 0 01003
                 BLASTT=BUF(IBUF-LASTP)                                             180  LM00196
 07134 CLA +0 50000 0 05552    07135 SUB +0 40200 0 05556    07136 PAX +0 73400 2 00000    07137 CLA +0 50000 2 05322
 07140 STO +0 60100 0 01004
                 W'R BTHIST.E.THIST(I)                                              181  LM00197
 07141 LXA +0 53400 2 05554    07142 CLA +0 50000 0 01006    07143 SUB +0 40200 2 05650    07144 TNZ -0 10000 0 07172
                      BLASTT=LASTT(I)                                               182  LM00198
 07145 CLA +0 50000 2 05564    07146 STO +0 60100 0 01004
                      BUF(IBUF-LASTP)=BLASTT                                        183  LM00199
 07147 CLA +0 50000 0 05552    07150 SUB +0 40200 0 05556    07151 PAX +0 73400 1 00000    07152 CLA +0 50000 0 01004
 07153 STO +0 60100 1 05322
                      BUF(IBUF-NUMP)=BUF(IBUF-NUMP).A.77777K6.V.TRACKN(I)           184  LM00200
 07154 CLA +0 50000 0 05552    07155 SUB +0 40200 0 05622    07156 PAX +0 73400 1 00000    07157 CAL -0 50000 1 05322
 07160 ANA -0 32000 0 05710    07161 ORA -0 50100 2 05657    07162 SLW +0 60200 0 07410    07163 CLA +0 50000 0 05552
 07164 SUB +0 40200 0 05622    07165 PAX +0 73400 1 00000    07166 CLA +0 50000 0 07410    07167 STO +0 60100 1 05322
                      T'O BOK                                                       185  LM00201
 07170 TRA +0 02000 0 00736
                 O'R BTHIST.E.LASTT(I)                                              186  LM00202
 07171 TRA +0 02000 0 07341    07172 LXA +0 53400 2 05554    07173 CLA +0 50000 0 01006    07174 SUB +0 40200 2 05564
 07175 TNZ -0 10000 0 07300
                      BUF(IBUF-NEXTP)=BNEXTT                                        187  LM00203
 07176 CLA +0 50000 0 05552    07177 SUB +0 40200 0 05607    07200 PAX +0 73400 1 00000    07201 CLA +0 50000 0 01005
 07202 STO +0 60100 1 05322
      BOK             CHANGE(I)=1B                                                  188  LM00204
 07203 LXA +0 53400 1 05554    07204 CLA +0 50000 0 05667    07205 STO +0 60100 1 05331
                      W'R SW.(4).NE.0                                               189  LM00206
 07206 TSX +0 07400 4 00013    07207 TXH +3 00000 0 05672    07210 SUB +0 40200 0 05666    07211 TZE +0 10000 0 07227
      RS4                  MPRINT.(3,$RESET SW4, HIT START.$)                       190  LM00207
 07212 TSX +0 07400 4 00007    07213 TXH +3 00000 0 05671    07214 TXH +3 00000 0 05714    07215 TXH +3 00000 0 05727
 07216 TXH +3 00000 0 05712    07217 TXH +3 00000 0 05715
                           STOP.                                                    191  LM00208
 07220 TSX +0 07400 4 00012
                           W'R SW.(4).NE.0, T'O RS4                                 192  LM00209
 07221 TSX +0 07400 4 00013    07222 TXH +3 00000 0 05672    07223 SUB +0 40200 0 05666    07224 TZE +0 10000 0 07226
 07225 TRA +0 02000 0 00746
                           T'O BKERR                                                193  LM00210
 07226 TRA +0 02000 0 00734
                      E'L                                                           194  LM00211
                      LASTT(I)=BLASTT                                               195  LM00213
 07227 LXA +0 53400 1 05554    07230 CLA +0 50000 0 01004    07231 STO +0 60100 1 05564
                      THIST(I)=BTHIST                                               196  LM00214
 07232 CLA +0 50000 0 01006    07233 STO +0 60100 1 05650
                      NEXTT(I)=BNEXTT                                               197  LM00215
 07234 CLA +0 50000 0 01005    07235 STO +0 60100 1 05615
                      TRACKN(I)=BTRKN                                               198  LM00216
 07236 CLA +0 50000 0 01007    07237 STO +0 60100 1 05657
                      ERC=ERC.V.BKCOR                                               199  LM00217
 07240 CAL -0 50000 0 05515    07241 ORA -0 50100 0 01002    07242 SLW +0 60200 0 05515
                      PTFLER.(ENTRYS(EBASE),ERC,LASTT(I),THIST(I),NEXTT(I),         200  LM00218
                1        TRACKN(I))                                                 200  LM00219
 07243 CLA +0 50000 0 05554    07244 SUB +0 40200 0 07245    07245 TXH +3 00000 0 05657    07246 STA +0 62100 0 07275
 07247 CLA +0 50000 0 05554    07250 SUB +0 40200 0 07251    07251 TXH +3 00000 0 05615    07252 STA +0 62100 0 07274
 07253 CLA +0 50000 0 05554    07254 SUB +0 40200 0 07255    07255 TXH +3 00000 0 05650    07256 STA +0 62100 0 07273
 07257 CLA +0 50000 0 05554    07260 SUB +0 40200 0 07261    07261 TXH +3 00000 0 05564    07262 STA +0 62100 0 07272
 07263 CLA +0 50000 0 05337    07264 SUB +0 40200 0 07265    07265 TXH +3 00000 0 05514    07266 STA +0 62100 0 07270
 07267 TSX +0 07400 4 00011    07270 TXH +3 00000 0 00000    07271 TXH +3 00000 0 05515    07272 TXH +3 00000 0 00000
 07273 TXH +3 00000 0 00000    07274 TXH +3 00000 0 00000    07275 TXH +3 00000 0 00000
                      T'O BERRT                                                     201  LM00220
 07276 TRA +0 02000 0 00733
                 O'R BLASTT.E.0.OR.BUF(IBUF-NUMP).A.77777K.NE.BTRKN.OR.             202  LM00221
                1   BUF(IBUF-NEXTP).NE.BNEXTT                                       202  LM00222
 07277 TRA +0 02000 0 07341    07300 CLA +0 50000 0 05552    07301 SUB +0 40200 0 05607    07302 PAX +0 73400 1 00000
 07303 CLA +0 50000 1 05322    07304 SUB +0 40200 0 01005    07305 TNZ -0 10000 0 07322    07306 CLA +0 50000 0 05552
 07307 SUB +0 40200 0 05622    07310 PAX +0 73400 1 00000    07311 CAL -0 50000 1 05322    07312 ANA -0 32000 0 05704
 07313 SLW +0 60200 0 07410    07314 CLA +0 50000 0 07410    07315 SUB +0 40200 0 01007    07316 TNZ -0 10000 0 07322
 07317 CLA +0 50000 0 01004    07320 SUB +0 40200 0 05666    07321 TNZ -0 10000 0 07331
                      BKERC=BKBAD                                                   203  LM00223
 07322 CLA +0 50000 0 01001    07323 STO +0 60100 0 01003
      BKERR           ERC=ERC.V.BKERC                                               204  LM00224
 07324 CAL -0 50000 0 05515    07325 ORA -0 50100 0 01003    07326 SLW +0 60200 0 05515
                      T'O ERR                                                       205  LM00225
 07327 TRA +0 02000 0 00741
                 O'E                                                                206  LM00226
 07330 TRA +0 02000 0 07341
                      BNEXTT=BTHIST                                                 207  LM00227
 07331 CLA +0 50000 0 01006    07332 STO +0 60100 0 01005
                      BTHIST=BLASTT                                                 208  LM00228
 07333 CLA +0 50000 0 01004    07334 STO +0 60100 0 01006
                      BTRKN=BTRKN-1                                                 209  LM00229
 07335 CLA +0 50000 0 01007    07336 SUB +0 40200 0 05667    07337 STO +0 60100 0 01007
                      T'O BLOOP                                                     210  LM00230
 07340 TRA +0 02000 0 00735
                 E'L                                                                211  LM00231
      ERR        PTFLER.(ENTRYS(EBASE),ERC,LASTT(I),THIST(I),NEXTT(I),              212  LM00234
                1  TRACKN(I))                                                       212  LM00235
 07341 CLA +0 50000 0 05554    07342 SUB +0 40200 0 07343    07343 TXH +3 00000 0 05657    07344 STA +0 62100 0 07373
 07345 CLA +0 50000 0 05554    07346 SUB +0 40200 0 07347    07347 TXH +3 00000 0 05615    07350 STA +0 62100 0 07372
 07351 CLA +0 50000 0 05554    07352 SUB +0 40200 0 07353    07353 TXH +3 00000 0 05650    07354 STA +0 62100 0 07371
 07355 CLA +0 50000 0 05554    07356 SUB +0 40200 0 07357    07357 TXH +3 00000 0 05564    07360 STA +0 62100 0 07370
 07361 CLA +0 50000 0 05337    07362 SUB +0 40200 0 07363    07363 TXH +3 00000 0 05514    07364 STA +0 62100 0 07366
 07365 TSX +0 07400 4 00011    07366 TXH +3 00000 0 00000    07367 TXH +3 00000 0 05515    07370 TXH +3 00000 0 00000
 07371 TXH +3 00000 0 00000    07372 TXH +3 00000 0 00000    07373 TXH +3 00000 0 00000
                 C=ERC                                                              213  LM00236
 07374 CLA +0 50000 0 05515    07375 STO +0 60100 0 00024
                 T'O B                                                              214  LM00237
 07376 TRA +0 02000 0 00024
                 END OF FUNCTION                                                    215  LM00238
 07377 TSX +0 07400 4 00006    07400 TXH +3 00000 0 00000    07401 SXD -0 63400 1 07400    07402 SXA +0 63400 4 07404
 07403 TRA +0 02000 2 00001    07404 AXT +0 77400 4 00000    07405 LXA +0 53400 2 07400    07406 LXD -0 53400 1 07400
 07407 TRA +0 02000 4 00001
                 INTERNAL FUNCTION (BUFF,ERRLOC)                                    216  LM00240
 07411 TRA +0 02000 0 10207
                 ENTRY TO CHECKT.                                                   217  LM00241
 07412 TRA +0 02000 0 07415    00017 TTR +0 02100 0 07413    07413 SXA +0 63400 2 10164    07414 TSX +0 07400 2 10164
                 CERC=0                                                             218  LM00242
 07415 CLA +0 50000 0 05666    07416 STO +0 60100 0 05323
                 W'R LASTT(I).NE.BUFF(1K5-LASTP),                                   219  LM00243
                1   CERC=CERC.V.BADBP                                               219  LM00244
 07417 CLA +0 50000 0 05705    07420 SUB +0 40200 0 05556    07421 LXA +0 53400 1 05554    07422 PAX +0 73400 2 00000
 07423 CLA +0 50000 1 05564    07424 SUB +0 40200 2 00024    07425 TZE +0 10000 0 07431    07426 CAL -0 50000 0 05323
 07427 ORA -0 50100 0 00760    07430 SLW +0 60200 0 05323
                 W'R NEXTT(I).NE.BUFF(1K5-NEXTP),                                   220  LM00245
                1  CERC=CERC.V.BADFP                                                220  LM00246
 07431 CLA +0 50000 0 05705    07432 SUB +0 40200 0 05607    07433 LXA +0 53400 1 05554    07434 PAX +0 73400 2 00000
 07435 CLA +0 50000 1 05615    07436 SUB +0 40200 2 00024    07437 TZE +0 10000 0 07443    07440 CAL -0 50000 0 05323
 07441 ORA -0 50100 0 00761    07442 SLW +0 60200 0 05323
                 W'R TRACKN(I).NE.BUFF(1K5-NUMP).A.77777K, CERC=CERC.V.BADTN        221  LM00247
 07443 CLA +0 50000 0 05705    07444 SUB +0 40200 0 05622    07445 PAX +0 73400 1 00000    07446 CAL -0 50000 1 00024
 07447 ANA -0 32000 0 05704    07450 LXA +0 53400 1 05554    07451 SLW +0 60200 0 10206    07452 CLA +0 50000 1 05657
 07453 SUB +0 40200 0 10206    07454 TZE +0 10000 0 07460    07455 CAL -0 50000 0 05323    07456 ORA -0 50100 0 00770
 07457 SLW +0 60200 0 05323
                 W'R CERC.E.0                                                       222  LM00248
 07460 CLA +0 50000 0 05323    07461 SUB +0 40200 0 05666    07462 TNZ -0 10000 0 10154
                 V'S TRKS=0                                                         223  LM00250
 05660     +0 00000 0 00000
                 V'S FILES=0                                                        224  LM00251
 05517     +0 00000 0 00000
                 V'S SEEKS=0                                                        225  LM00252
 05637     +0 00000 0 00000
                 V'S SEQ=0                                                          226  LM00253
 05640     +0 00000 0 00000
                 V'S T=0                                                            227  LM00254
 05661     +0 00000 0 00000
                 TRKS=TRKS+1                                                        228  LM00255
 07463 CLA +0 50000 0 05660    07464 ADD +0 40000 0 05667    07465 STO +0 60100 0 05660
                 W'R LASTT(I).NE.0                                                  229  LM00256
 07466 LXA +0 53400 1 05554    07467 CLA +0 50000 1 05564    07470 SUB +0 40200 0 05666    07471 TZE +0 10000 0 07660
                      W'R (LASTT(I).EX.THIST(I)).A.777777740000K.NE.0               230  LM00257
 07472 LXA +0 53400 2 05554    07473 CAL -0 50000 1 05564    07474 ERA +0 32200 2 05650    07475 ANA -0 32000 0 05732
 07476 SLW +0 60200 0 10206    07477 CLA +0 50000 0 10206    07500 SUB +0 40200 0 05666    07501 TZE +0 10000 0 07657
                           W'R (LASTT(I).EX.THIST(I)).A.77K10.NE.0                  231  LM00258
 07502 CAL -0 50000 1 05564    07503 ERA +0 32200 2 05650    07504 ANA -0 32000 0 05731    07505 SLW +0 60200 0 10206
 07506 CLA +0 50000 0 10206    07507 SUB +0 40200 0 05666    07510 TZE +0 10000 0 07515
                                SEQ=SEQ+1                                           232  LM00259
 07511 CLA +0 50000 0 05640    07512 ADD +0 40000 0 05667    07513 STO +0 60100 0 05640
                           O'E                                                      233  LM00260
 07514 TRA +0 02000 0 07657
                                GRA=TRKCV.(LASTT(I))                                234  LM00261
 07515 CLA +0 50000 0 05554    07516 SUB +0 40200 0 07517    07517 TXH +3 00000 0 05564    07520 STA +0 62100 0 07522
 07521 TSX +0 07400 4 00014    07522 TXH +3 00000 0 00000    07523 STO +0 60100 0 05546
                                GRB=TRKCV.(THIST(I))                                235  LM00262
 07524 CLA +0 50000 0 05554    07525 SUB +0 40200 0 07526    07526 TXH +3 00000 0 05650    07527 STA +0 62100 0 07531
 07530 TSX +0 07400 4 00014    07531 TXH +3 00000 0 00000    07532 STO +0 60100 0 05547
                                MOD=GRA.RS.30                                       236  LM00263
 07533 CAL -0 50000 0 05676    07534 STA +0 62100 0 07536    07535 CAL -0 50000 0 05546    07536 LGR -0 76500 0 00000
 07537 SLW +0 60200 0 05602
                                W'R MOD.GE.LDKM.AND.MOD.LE.HDKM                     237  LM00264
 07540 CLA +0 50000 0 05602    07541 SUB +0 40200 0 05550    07542 TZE +0 10000 0 07544    07543 TPL +0 12000 0 07657
 07544 CLA +0 50000 0 05602    07545 SUB +0 40200 0 05566    07546 TZE +0 10000 0 07550    07547 TMI -0 12000 0 07657
                                     GRA=BCDEC.((GRA.RS.6).A.77777777K)/40          238  LM00265
 07550 CAL -0 50000 0 05673    07551 STA +0 62100 0 07553    07552 CAL -0 50000 0 05546    07553 LGR -0 76500 0 00000
 07554 ANA -0 32000 0 05707    07555 SLW +0 60200 0 10206    07556 TSX +0 07400 4 00000    07557 TXH +3 00000 0 10206
 07560 LRS +0 76500 0 00043    07561 DVP +0 22100 0 05677    07562 STQ -0 60000 0 05546
                                     GRB=BCDEC.((GRB.RS.6).A.77777777K)/40          239  LM00266
 07563 CAL -0 50000 0 05673    07564 STA +0 62100 0 07566    07565 CAL -0 50000 0 05547    07566 LGR -0 76500 0 00000
 07567 ANA -0 32000 0 05707    07570 SLW +0 60200 0 10206    07571 TSX +0 07400 4 00000    07572 TXH +3 00000 0 10206
 07573 LRS +0 76500 0 00043    07574 DVP +0 22100 0 05677    07575 STQ -0 60000 0 05547
                                     W'R GRA.NE.GRB                                 240  LM00267
 07576 CLA +0 50000 0 05546    07577 SUB +0 40200 0 05547    07600 TZE +0 10000 0 07657
                                          SEEKS=SEEKS+1                             241  LM00268
 07601 CLA +0 50000 0 05637    07602 ADD +0 40000 0 05667    07603 STO +0 60100 0 05637
                                          GRA=GRA/10                                242  LM00269
 07604 LDQ +0 56000 0 05546    07605 PXD -0 75400 0 00000    07606 LLS +0 76300 0 00000    07607 DVP +0 22100 0 05674
 07610 STQ -0 60000 0 05546
                                          GRB=GRB/10                                243  LM00270
 07611 LDQ +0 56000 0 05547    07612 PXD -0 75400 0 00000    07613 LLS +0 76300 0 00000    07614 DVP +0 22100 0 05674
 07615 STQ -0 60000 0 05547
                                          W'R GRA.E.GRB                             244  LM00271
 07616 CLA +0 50000 0 05546    07617 SUB +0 40200 0 05547    07620 TNZ -0 10000 0 07625
                                               T=T+50                               245  LM00272
 07621 CLA +0 50000 0 05661    07622 ADD +0 40000 0 05700    07623 STO +0 60100 0 05661
                                          O'E                                       246  LM00273
 07624 TRA +0 02000 0 07657
                                               GRA=GLOB(GRA/2)                      247  LM00274
 07625 LDQ +0 56000 0 05546    07626 PXD -0 75400 0 00000    07627 LLS +0 76300 0 00000    07630 DVP +0 22100 0 05670
 07631 XCA +0 13100 0 00000    07632 PAX +0 73400 2 00000    07633 CLA +0 50000 2 05545    07634 STO +0 60100 0 05546
                                               GRB=GLOB(GRB/2)                      248  LM00275
 07635 LDQ +0 56000 0 05547    07636 PXD -0 75400 0 00000    07637 LLS +0 76300 0 00000    07640 DVP +0 22100 0 05670
 07641 XCA +0 13100 0 00000    07642 PAX +0 73400 2 00000    07643 CLA +0 50000 2 05545    07644 STO +0 60100 0 05547
                                          V'S GLOB=0,0,0,1,1,2,2,2,3,3,4,4,4        249  LM00276
 05531     +0 00000 0 00004    05532     +0 00000 0 00004    05533     +0 00000 0 00004    05534     +0 00000 0 00003
 05535     +0 00000 0 00003    05536     +0 00000 0 00002    05537     +0 00000 0 00002    05540     +0 00000 0 00002
 05541     +0 00000 0 00001    05542     +0 00000 0 00001    05543     +0 00000 0 00000    05544     +0 00000 0 00000
 05545     +0 00000 0 00000
                                               W'R GRA.E.GRB                        250  LM00277
 07645 CLA +0 50000 0 05546    07646 SUB +0 40200 0 05547    07647 TNZ -0 10000 0 07654
                                                    T=T+120                         251  LM00278
 07650 CLA +0 50000 0 05661    07651 ADD +0 40000 0 05701    07652 STO +0 60100 0 05661
                                               O'E                                  252  LM00279
 07653 TRA +0 02000 0 07657
                                                    T=T+180                         253  LM00280
 07654 CLA +0 50000 0 05661    07655 ADD +0 40000 0 05702    07656 STO +0 60100 0 05661
                                               E'L                                  254  LM00281
                                          E'L                                       255  LM00282
                                     E'L                                            256  LM00283
                                E'L                                                 257  LM00284
                           E'L                                                      258  LM00285
                      E'L                                                           259  LM00286
                 O'E                                                                260  LM00287
 07657 TRA +0 02000 0 07663
                      FILES=FILES+1                                                 261  LM00288
 07660 CLA +0 50000 0 05517    07661 ADD +0 40000 0 05667    07662 STO +0 60100 0 05517
                 E'L                                                                262  LM00289
                      W'R .NOT. USEDT.(1,THIST(I))                                  263  LM00291
 07663 CLA +0 50000 0 05554    07664 SUB +0 40200 0 07665    07665 TXH +3 00000 0 05650    07666 STA +0 62100 0 07671
 07667 TSX +0 07400 4 00015    07670 TXH +3 00000 0 05667    07671 TXH +3 00000 0 00000    07672 TNZ -0 10000 0 07726
                           PTFLER.(ENTRYS(EBASE),UNPTRK,LASTT(I),THIST(I),          264  LM00292
                1          NEXTT(I),TRACKN(I))                                      264  LM00293
 07673 CLA +0 50000 0 05554    07674 SUB +0 40200 0 07675    07675 TXH +3 00000 0 05657    07676 STA +0 62100 0 07725
 07677 CLA +0 50000 0 05554    07700 SUB +0 40200 0 07701    07701 TXH +3 00000 0 05615    07702 STA +0 62100 0 07724
 07703 CLA +0 50000 0 05554    07704 SUB +0 40200 0 07705    07705 TXH +3 00000 0 05650    07706 STA +0 62100 0 07723
 07707 CLA +0 50000 0 05554    07710 SUB +0 40200 0 07711    07711 TXH +3 00000 0 05564    07712 STA +0 62100 0 07722
 07713 CLA +0 50000 0 05337    07714 SUB +0 40200 0 07715    07715 TXH +3 00000 0 05514    07716 STA +0 62100 0 07720
 07717 TSX +0 07400 4 00011    07720 TXH +3 00000 0 00000    07721 TXH +3 00000 0 05662    07722 TXH +3 00000 0 00000
 07723 TXH +3 00000 0 00000    07724 TXH +3 00000 0 00000    07725 TXH +3 00000 0 00000
                      E'L                                                           265  LM00294
                      LEN=BUFF(1K5-NUMP)                                            266  LM00295
 07726 CLA +0 50000 0 05705    07727 SUB +0 40200 0 05622    07730 PAX +0 73400 2 00000    07731 CLA +0 50000 2 00024
 07732 STO +0 60100 0 05575
                      W'R BUFF(1K5-NEXTP).E.0                                       267  LM00296
 07733 CLA +0 50000 0 05705    07734 SUB +0 40200 0 05607    07735 PAX +0 73400 1 00000    07736 CLA +0 50000 1 00024
 07737 SUB +0 40200 0 05666    07740 TNZ -0 10000 0 10112
                           W'R LEN.A.77777K .NE. ENTRYS(EBASE+NORECS)               268  LM00297
 07741 CLA +0 50000 0 05337    07742 ADD +0 40000 0 05617    07743 STO +0 60100 0 10206    07744 CAL -0 50000 0 05575
 07745 ANA -0 32000 0 05704    07746 LXA +0 53400 2 10206    07747 SLW +0 60200 0 10206    07750 CLA +0 50000 0 10206
 07751 SUB +0 40200 2 05514    07752 TZE +0 10000 0 07771
                                ENTRYS(EBASE+NORECS)=LEN.A.77777K                   269  LM00298
 07753 CAL -0 50000 0 05575    07754 ANA -0 32000 0 05704    07755 SLW +0 60200 0 10206    07756 CLA +0 50000 0 05337
 07757 ADD +0 40000 0 05617    07760 PAX +0 73400 1 00000    07761 CLA +0 50000 0 10206    07762 STO +0 60100 1 05514
                                CERC=CERC.V.BADTC                                   270  LM00299
 07763 CAL -0 50000 0 05323    07764 ORA -0 50100 0 00767    07765 SLW +0 60200 0 05323
                                ECHANG(I)=1B                                        271  LM00300
 07766 LXA +0 53400 1 05554    07767 CLA +0 50000 0 05667    07770 STO +0 60100 1 05345
                           E'L                                                      272  LM00301
                           W'R LEN.RS.18 .NE. ENTRYS(EBASE+LCOUNT)                  273  LM00302
 07771 CLA +0 50000 0 05337    07772 ADD +0 40000 0 05565    07773 STO +0 60100 0 10206    07774 CAL -0 50000 0 05675
 07775 STA +0 62100 0 07777    07776 CAL -0 50000 0 05575    07777 LGR -0 76500 0 00000    10000 LXA +0 53400 2 10206
 10001 SLW +0 60200 0 10206    10002 CLA +0 50000 0 10206    10003 SUB +0 40200 2 05514    10004 TZE +0 10000 0 10053
                                W'R LEN.RS.18.E.0                                   274  LM00303
 10005 CAL -0 50000 0 05675    10006 STA +0 62100 0 10010    10007 CAL -0 50000 0 05575    10010 LGR -0 76500 0 00000
 10011 SLW +0 60200 0 10206    10012 CLA +0 50000 0 10206    10013 SUB +0 40200 0 05666    10014 TNZ -0 10000 0 10033
                                     LEN=NWPT.LS.18.V.LEN                           275  LM00304
 10015 CAL -0 50000 0 05675    10016 STA +0 62100 0 10020    10017 CAL -0 50000 0 05623    10020 ALS +0 76700 0 00000
 10021 ORA -0 50100 0 05575    10022 SLW +0 60200 0 05575
                                     BUFF(1K5-NUMP)=LEN                             276  LM00305
 10023 CLA +0 50000 0 05705    10024 SUB +0 40200 0 05622    10025 PAX +0 73400 1 00000    10026 CLA +0 50000 0 05575
 10027 STO +0 60100 1 00024
                                     CHANGE(I)=1B                                   277  LM00306
 10030 LXA +0 53400 1 05554    10031 CLA +0 50000 0 05667    10032 STO +0 60100 1 05331
                                E'L                                                 278  LM00307
                                ENTRYS(EBASE+LCOUNT)=LEN.RS.18                      279  LM00308
 10033 CAL -0 50000 0 05675    10034 STA +0 62100 0 10036    10035 CAL -0 50000 0 05575    10036 LGR -0 76500 0 00000
 10037 SLW +0 60200 0 10206    10040 CLA +0 50000 0 05337    10041 ADD +0 40000 0 05565    10042 PAX +0 73400 1 00000
 10043 CLA +0 50000 0 10206    10044 STO +0 60100 1 05514
                                CERC=CERC.V.BADLCT                                  280  LM00309
 10045 CAL -0 50000 0 05323    10046 ORA -0 50100 0 00763    10047 SLW +0 60200 0 05323
                                ECHANG(I)=1B                                        281  LM00310
 10050 LXA +0 53400 1 05554    10051 CLA +0 50000 0 05667    10052 STO +0 60100 1 05345
                           E'L                                                      282  LM00311
                           W'R THIST(I) .NE. ENTRYS(EBASE+LSTRK)                    283  LM00312
 10053 CLA +0 50000 0 05337    10054 ADD +0 40000 0 05577    10055 LXA +0 53400 1 05554    10056 PAX +0 73400 2 00000
 10057 CLA +0 50000 1 05650    10060 SUB +0 40200 2 05514    10061 TZE +0 10000 0 10076
                                ENTRYS(EBASE+LSTRK)=THIST(I)                        284  LM00313
 10062 CLA +0 50000 0 05337    10063 ADD +0 40000 0 05577    10064 PAX +0 73400 1 00000    10065 LXA +0 53400 2 05554
 10066 CLA +0 50000 2 05650    10067 STO +0 60100 1 05514
                                CERC=CERC.V.BADLTK                                  285  LM00314
 10070 CAL -0 50000 0 05323    10071 ORA -0 50100 0 00764    10072 SLW +0 60200 0 05323
                                ECHANG(I)=1B                                        286  LM00315
 10073 LXA +0 53400 1 05554    10074 CLA +0 50000 0 05667    10075 STO +0 60100 1 05345
                           E'L                                                      287  LM00316
                           W'R CERC.NE.0, PTETER.(ENTRYS(EBASE),CERC,REL)           288  LM00317
 10076 CLA +0 50000 0 05323    10077 SUB +0 40200 0 05666    10100 TZE +0 10000 0 10111    10101 CLA +0 50000 0 05337
 10102 SUB +0 40200 0 10103    10103 TXH +3 00000 0 05514    10104 STA +0 62100 0 10106    10105 TSX +0 07400 4 00010
 10106 TXH +3 00000 0 00000    10107 TXH +3 00000 0 05323    10110 TXH +3 00000 0 05633
                      O'E                                                           289  LM00318
 10111 TRA +0 02000 0 10135
                           W'R LEN.RS.18 .NE.0                                      290  LM00319
 10112 CAL -0 50000 0 05675    10113 STA +0 62100 0 10115    10114 CAL -0 50000 0 05575    10115 LGR -0 76500 0 00000
 10116 SLW +0 60200 0 10206    10117 CLA +0 50000 0 10206    10120 SUB +0 40200 0 05666    10121 TZE +0 10000 0 10135
                                BUFF(1K5-NUMP)=LEN.A.777777K                        291  LM00320
 10122 CAL -0 50000 0 05575    10123 ANA -0 32000 0 05706    10124 SLW +0 60200 0 10206    10125 CLA +0 50000 0 05705
 10126 SUB +0 40200 0 05622    10127 PAX +0 73400 1 00000    10130 CLA +0 50000 0 10206    10131 STO +0 60100 1 00024
                                CHANGE(I)=1B                                        292  LM00321
 10132 LXA +0 53400 1 05554    10133 CLA +0 50000 0 05667    10134 STO +0 60100 1 05331
                           E'L                                                      293  LM00322
                      E'L                                                           294  LM00323
                      USET.(1,THIST(I))                                             295  LM00324
 10135 CLA +0 50000 0 05554    10136 SUB +0 40200 0 10137    10137 TXH +3 00000 0 05650    10140 STA +0 62100 0 10143
 10141 TSX +0 07400 4 00016    10142 TXH +3 00000 0 05667    10143 TXH +3 00000 0 00000
                      USET.(2,THIST(I))                                             296  LM00325
 10144 CLA +0 50000 0 05554    10145 SUB +0 40200 0 10146    10146 TXH +3 00000 0 05650    10147 STA +0 62100 0 10152
 10150 TSX +0 07400 4 00016    10151 TXH +3 00000 0 05670    10152 TXH +3 00000 0 00000
                 O'E                                                                297  LM00326
 10153 TRA +0 02000 0 10162
                      FILLED(I)=0B                                                  298  LM00327
 10154 LXA +0 53400 1 05554    10155 CLA +0 50000 0 05666    10156 STO +0 60100 1 05525
                      ERC=CERC                                                      299  LM00328
 10157 CLA +0 50000 0 05323    10160 STO +0 60100 0 05515
                      T'O ERRLOC                                                    300  LM00329
 10161 TRA +0 02000 0 00024
                 E'L                                                                301  LM00330
                 FUNCTION RETURN                                                    302  LM00331
 10162 TRA +0 02000 0 10202
                 END OF FUNCTION                                                    303  LM00332
 10163 TSX +0 07400 4 00006    10164 TXH +3 00000 0 00000    10165 SXD -0 63400 1 10164    10166 SXA +0 63400 4 10202
 10167 CLA +0 50000 4 00001    10170 STA +0 62100 0 07424    10171 STA +0 62100 0 07436    10172 STA +0 62100 0 07446
 10173 STA +0 62100 0 07731    10174 STA +0 62100 0 07736    10175 STA +0 62100 0 10027    10176 STA +0 62100 0 10131
 10177 CLA +0 50000 4 00002    10200 STA +0 62100 0 10161    10201 TRA +0 02000 2 00001    10202 AXT +0 77400 4 00000
 10203 LXA +0 53400 2 10164    10204 LXD -0 53400 1 10164    10205 TRA +0 02000 4 00001
                 ENTRY TO PSTAT.                                                    304  LM00334
 10207 TRA +0 02000 0 10212    10210 SXA +0 63400 2 10340    10211 TSX +0 07400 2 10340
                 MPRINT.(3,                                                         305  LM00335
                1 $ T/TRK  T/SK SK/FL    FL MODBK  TRKS   SKS     T$)               305  LM00336
 10212 TSX +0 07400 4 00007    10213 TXH +3 00000 0 05671    10214 TXH +3 00000 0 05726    10215 TXH +3 00000 0 05724
 10216 TXH +3 00000 0 05725    10217 TXH +3 00000 0 05720    10220 TXH +3 00000 0 05716    10221 TXH +3 00000 0 05723
 10222 TXH +3 00000 0 05722    10223 TXH +3 00000 0 05721
                 MPRINT.(3,BZEL.(DEFBC.(T/TRKS)),BZEL.(DEFBC.(T/SEEKS)),            306  LM00337
                1  DEFBC.((SEEKS*1000)/FILES).V.$  .000$,                           306  LM00338
                2  BZEL.(DEFBC.(FILES)),BZEL.(DEFBC.(SEQ)),                         306  LM00339
                3  BZEL.(DEFBC.(TRKS)),BZEL.(DEFBC.(SEEKS)),                        306  LM00340
                4  BZEL.(DEFBC.(T))  )                                              306  LM00341
 10224 TSX +0 07400 4 00002    10225 TXH +3 00000 0 05661    10226 STO +0 60100 0 10403    10227 TSX +0 07400 4 00001
 10230 TXH +3 00000 0 10403    10231 STO +0 60100 0 10403    10232 TSX +0 07400 4 00002    10233 TXH +3 00000 0 05637
 10234 STO +0 60100 0 10404    10235 TSX +0 07400 4 00001    10236 TXH +3 00000 0 10404    10237 STO +0 60100 0 10404
 10240 TSX +0 07400 4 00002    10241 TXH +3 00000 0 05660    10242 STO +0 60100 0 10405    10243 TSX +0 07400 4 00001
 10244 TXH +3 00000 0 10405    10245 STO +0 60100 0 10405    10246 TSX +0 07400 4 00002    10247 TXH +3 00000 0 05640
 10250 STO +0 60100 0 10406    10251 TSX +0 07400 4 00001    10252 TXH +3 00000 0 10406    10253 STO +0 60100 0 10406
 10254 TSX +0 07400 4 00002    10255 TXH +3 00000 0 05517    10256 STO +0 60100 0 10407    10257 TSX +0 07400 4 00001
 10260 TXH +3 00000 0 10407    10261 STO +0 60100 0 10407    10262 LDQ +0 56000 0 05637    10263 MPY +0 20000 0 05703
 10264 PXD -0 75400 0 00000    10265 LLS +0 76300 0 00000    10266 DVP +0 22100 0 05517    10267 STQ -0 60000 0 10410
 10270 TSX +0 07400 4 00002    10271 TXH +3 00000 0 10410    10272 STO +0 60100 0 10410    10273 CAL -0 50000 0 10410
 10274 ORA -0 50100 0 05717    10275 SLW +0 60200 0 10410    10276 LDQ +0 56000 0 05661    10277 PXD -0 75400 0 00000
 10300 LLS +0 76300 0 00000    10301 DVP +0 22100 0 05637    10302 STQ -0 60000 0 10411    10303 TSX +0 07400 4 00002
 10304 TXH +3 00000 0 10411    10305 STO +0 60100 0 10411    10306 TSX +0 07400 4 00001    10307 TXH +3 00000 0 10411
 10310 STO +0 60100 0 10411    10311 LDQ +0 56000 0 05661    10312 PXD -0 75400 0 00000    10313 LLS +0 76300 0 00000
 10314 DVP +0 22100 0 05660    10315 STQ -0 60000 0 10412    10316 TSX +0 07400 4 00002    10317 TXH +3 00000 0 10412
 10320 STO +0 60100 0 10412    10321 TSX +0 07400 4 00001    10322 TXH +3 00000 0 10412    10323 STO +0 60100 0 10412
 10324 TSX +0 07400 4 00007    10325 TXH +3 00000 0 05671    10326 TXH +3 00000 0 10412    10327 TXH +3 00000 0 10411
 10330 TXH +3 00000 0 10410    10331 TXH +3 00000 0 10407    10332 TXH +3 00000 0 10406    10333 TXH +3 00000 0 10405
 10334 TXH +3 00000 0 10404    10335 TXH +3 00000 0 10403
                 F'N                                                                307  LM00342
 10336 TRA +0 02000 0 10377
                 NORMAL MODE IS INTEGER                                             308  LM00343
                 BOOLEAN CHANGE, READ, FILLED, FIRST, ECHANG, USEDT                 309  LM00344
                 STATEMENT LABEL B, D, DB, ERRLOC                                   310  LM00345
                 DIMENSION TRACKN(5),LASTT(5),THIST(5),NEXTT(5)                     311  LM00346
                1 ,CHANGE(5),LEN(5),ALPHA(5),BETA(5),BUF(2250),ENTRYS(100)          311  LM00347
                1 ,ECHANG(5),FILLED(5)                                              311  LM00348
                 INSERT FILE SALEQU                                                 312  LM00349
                 V'S MFDORG=101212121212K                                           313  LM00002
 05600     +1 01212 1 21212
                 V'S LOADER=001212121212K                                           314  LM00003
 05576     +0 01212 1 21212
                 V'S ENTLEN=7                                                       315  LM00004
 05346     +0 00000 0 00007
                 V'S ENTRYL=20                                                      316  LM00005
 05347     +0 00000 0 00024
                 V'S NWPT=432                                                       317  LM00006
 05623     +0 00000 0 00660
                 V'S LDKM=0                                                         318  LM00007
 05566     +0 00000 0 00000
                 V'S HDKM=7                                                         319  LM00008
 05550     +0 00000 0 00007
                 V'S LDMM=8                                                         320  LM00009
 05567     +0 00000 0 00010
                 V'S HDMM=8                                                         321  LM00010
 05551     +0 00000 0 00010
                 V'S NDKT=10000                                                     322  LM00011
 05605     +0 00000 0 23420
                 V'S NDMT=400                                                       323  LM00012
 05606     +0 00000 0 00620
                 V'S NQW=3                                                          324  LM00013
 05620     +0 00000 0 00003
                 V'S PROBN=1                                                        325  LM00014
 05626     +0 00000 0 00001
                 V'S PROGN=2                                                        326  LM00015
 05627     +0 00000 0 00002
                 V'S ALPHA=3                                                        327  LM00016
 00755     +0 00000 0 00003
                 V'S BETA=4                                                         328  LM00017
 01000     +0 00000 0 00004
                 V'S DAYTIM=5                                                       329  LM00018
 05333     +0 00000 0 00005
                 V'S TIME=6                                                         330  LM00019
 05651     +0 00000 0 00006
                 V'S DATELU=7                                                       331  LM00020
 05332     +0 00000 0 00007
                 V'S AUTHOR=8                                                       332  LM00021
 00756     +0 00000 0 00010
                 V'S MODE=9                                                         333  LM00022
 05601     +0 00000 0 00011
                 V'S ILOCK=10                                                       334  LM00023
 05553     +0 00000 0 00012
                 V'S F=11                                                           335  LM00024
 05527     +0 00000 0 00013
                 V'S RCOUNT=12                                                      336  LM00025
 05631     +0 00000 0 00014
                 V'S S=13                                                           337  LM00026
 05641     +0 00000 0 00015
                 V'S W=14                                                           338  LM00027
 05664     +0 00000 0 00016
                 V'S R=15                                                           339  LM00028
 05635     +0 00000 0 00017
                 V'S NORECS=16                                                      340  LM00029
 05617     +0 00000 0 00020
                 V'S P=17                                                           341  LM00030
 05630     +0 00000 0 00021
                 V'S LCOUNT=18                                                      342  LM00031
 05565     +0 00000 0 00022
                 V'S LSTRK=19                                                       343  LM00032
 05577     +0 00000 0 00023
                 V'S FSTRK=20                                                       344  LM00033
 05530     +0 00000 0 00024
                 V'S TEMPMD=1K                                                      345  LM00034
 05642     +0 00000 0 00001
                 V'S PARTER=1K                                                      346  LM00035
 05625     +0 00000 0 00001
                 V'S DISKER=2K                                                      347  LM00036
 05335     +0 00000 0 00002
                 V'S BADBP=4K                                                       348  LM00037
 00760     +0 00000 0 00004
                 V'S BADTR=1K1                                                      349  LM00038
 00771     +0 00000 0 00010
                 V'S BADFP=2K1                                                      350  LM00039
 00761     +0 00000 0 00020
                 V'S BADTN=4K1                                                      351  LM00040
 00770     +0 00000 0 00040
                 V'S UNPTRK=1K2                                                     352  LM00041
 05662     +0 00000 0 00100
                 V'S RUSTRK=2K2                                                     353  LM00042
 05636     +0 00000 0 00200
                 V'S DIRTRN=4K2                                                     354  LM00043
 05334     +0 00000 0 00400
                 V'S DTATRN=1K3                                                     355  LM00044
 05336     +0 00000 0 01000
                 V'S NZITEM=2K3                                                     356  LM00045
 05624     +0 00000 0 02000
                 V'S BADF=4K3                                                       357  LM00046
 00762     +0 00000 0 04000
                 V'S BADLTK=1K4                                                     358  LM00047
 00764     +0 00000 0 10000
                 V'S FATAL=2K4                                                      359  LM00048
 05516     +0 00000 0 20000
                 V'S FORCE=4K4                                                      360  LM00049
 05526     +0 00000 0 40000
                 V'S BADATE=1K5                                                     361  LM00050
 00757     +0 00000 1 00000
                 V'S BADLCT=2K5                                                     362  LM00051
 00763     +0 00000 2 00000
                 V'S BADRCT=4K5                                                     363  LM00052
 00766     +0 00000 4 00000
                 V'S BADTC=1K6                                                      364  LM00053
 00767     +0 00001 0 00000
                 V'S BADP=2K6                                                       365  LM00054
 00765     +0 00002 0 00000
                 V'S BKCOR=4K6                                                      366  LM00055
 01002     +0 00004 0 00000
                 V'S BKBAD=1K7                                                      367  LM00056
 01001     +0 00010 0 00000
                 V'S NB=443                                                         368  LM00350
 05604     +0 00000 0 00673
                 V'S LASTP=0                                                        369  LM00351
 05556     +0 00000 0 00000
                 V'S NEXTP=1                                                        370  LM00352
 05607     +0 00000 0 00001
                 V'S NUMP=2                                                         371  LM00353
 05622     +0 00000 0 00002
                 END OF FUNCTION                                                    372  LM00354
 10337 TSX +0 07400 4 00006    10340 TXH +3 00000 0 00000    10341 SXD -0 63400 1 10340    10342 SXA +0 63400 4 10377
 10343 CLA +0 50000 4 00001    10344 STA +0 62100 0 05736    10345 STA +0 62100 0 06034    10346 STA +0 62100 0 06153
 10347 STA +0 62100 0 06322    10350 STA +0 62100 0 06406    10351 CLA +0 50000 4 00002    10352 STA +0 62100 0 05763
 10353 STA +0 62100 0 06030    10354 STA +0 62100 0 06276    10355 STA +0 62100 0 06324    10356 STA +0 62100 0 06442
 10357 CLA +0 50000 4 00003    10360 STA +0 62100 0 06316    10361 STA +0 62100 0 07376    10362 CLA +0 50000 4 00004
 10363 STA +0 62100 0 07375    10364 CLA +0 50000 4 00005    10365 STA +0 62100 0 06447    10366 STA +0 62100 0 06702
 10367 STA +0 62100 0 06755    10370 STA +0 62100 0 07055    10371 CLA +0 50000 4 00006    10372 STA +0 62100 0 06101
 10373 STA +0 62100 0 06125    10374 CLA +0 50000 4 00007    10375 STA +0 62100 0 06032    10376 TRA +0 02000 2 00001
 10377 AXT +0 77400 4 00000    10400 LXA +0 53400 2 10340    10401 LXD -0 53400 1 10340    10402 TRA +0 02000 4 00001


 PTER4   BCD 12/14/70 1515.6   10446         00000
