1     MAD PROGRAM LISTING ... ... ...                 FILE    PTER   MAD            11/05/70    1934.4
-
                  EXTERNAL FUNCTION (A,B,C,D,E,FF)                                                *001 LM00001
                   (ENTRY,ERC,LASTT,THIST,NEXTT,TRACKN)                                                LM00002
                  ENTRY TO PTFLER.                                                                *002 LM00003
                  ERC=B                                                                           *003 LM00004
                  ONERC=ERC.A. .N.KEYS.(0)                                                        *004 LM00005
                  WHENEVER ERC .E. 0, FUNCTION RETURN                                             *005 LM00006
                  MOD=3                                                                           *006 LM00007
                  WHENEVER ONERC.E.0, MOD=1                                                       *007 LM00008
                  MPRINT.(MOD,6060606077K,A(PROBN)...A(BETA),SP,TRKCV.(C),SP,                     *008 LM00009
                1  TRKCV.(D),SP,TRKCV.(E),SP,BZEL.(DEFBC.(FF)))                                   *008 LM00010
                  TRANSFER TO PNTERC                                                              *009 LM00011
                                                                                                       LM00012
                  ENTRY TO PTETER.                                                                *010 LM00013
                  (ENTRY,ERC,REL)                                                                      LM00014
                  ERC=B                                                                           *011 LM00015
                  ONERC=ERC.A. .N.KEYS.(0)                                                        *012 LM00016
                  WHENEVER ERC.E.0, FUNCTION RETURN                                               *013 LM00017
                  MOD=3                                                                           *014 LM00018
                  WHENEVER ONERC.E.0, MOD=1                                                       *015 LM00019
                  WHENEVER A(F).NE.0                                                              *016 LM00020
                  MPRINT.(MOD,7777777777K2,BZEL.(DEFBC.(C)),                                      *017 LM00021
                1  SP,A(PROBN),                                                                   *017 LM00022
                2  SP,A(PROGN),                                                                   *017 LM00023
                2  SP,A(ALPHA),                                                                   *017 LM00024
                3  SP,A(BETA),                                                                    *017 LM00025
                4  SP,DATECV.(A(DAYTIM)),                                                         *017 LM00026
                5  DEFBC.(A(TIME)/3600).V.77777760K4,                                             *017 LM00027
                6  SP,DATECV.(A(DATELU)),                                                         *017 LM00028
                7  SP,DEFBC.(A(AUTHOR)),                                                          *017 LM00029
                8  OCABC.(A(MODE)).V.7760K8,                                                      *017 LM00030
                9  OCABC.(A(ILOCK)).V.7760K8,                                                     *017 LM00031
                1  A(F).V.7777777760K2,                                                           *017 LM00032
                2  DEFBC.(A(RCOUNT)).V.777760K6,                                                  *017 LM00033
                3  A(S).V.7777777760K2,                                                           *017 LM00034
                4  A(W).V.7777777760K2,                                                           *017 LM00035
                5  A(R).V.7777777760K2,                                                           *017 LM00036
                6  BZEL.(DEFBC.(A(NORECS))),                                                      *017 LM00037
                7  A(P).V.7777777760K2,                                                           *017 LM00038
                8  DEFBC.(A(LCOUNT)).V.777760K6,                                                  *017 LM00039
                9  SP,TRKCV.(A(LSTRK)),                                                           *017 LM00040
                1  SP,TRKCV.(A(FSTRK)))                                                           *017 LM00041
                  OTHERWISE                                                                       *018 LM00042
                  COMBIN.(T,A)                                                                    *019 LM00043
                  MPRINT.(MOD,7777777777K2,BZEL.(DEFBC.(C)),                                      *020 LM00044
                1  SP,A(PROBN),                                                                   *020 LM00045
                2  SP,A(PROGN),                                                                   *020 LM00046
                2  SP,A(ALPHA),                                                                   *020 LM00047
                3  SP,A(BETA),                                                                    *020 LM00048
                4   SP,T(3),SP,SP,SP,                                                             *020 LM00049
                6   SP,T(4),SP,$$,                                                                *020 LM00050
                8  OCABC.(A(MODE)).V.7760K8,                                                      *020 LM00051
                9  OCABC.(A(ILOCK)).V.7760K8,                                                     *020 LM00052
                1  A(F).V.7777777760K2,                                                           *020 LM00053
                2  DEFBC.(A(RCOUNT)).V.777760K6,                                                  *020 LM00054
                3   SP,T(6),$$,$$,T(7))                                                           *020 LM00055
                  END OF CONDITIONAL                                                              *021 LM00056
                  DIMENSION T(7)                                                                  *022 LM00057
      PNTERC      THROUGH PL, FOR I=0,1,ERC.E.0                                                   *023 LM00058
                  WHENEVER ERC.A.1 .NE.0                                                          *024 LM00059
                       MOD=(ONERC.LS.1).V.1                                                       *025 LM00060
                       MPRINT.(MOD,DEFBC.(35-I).V.77777760K4,SP,COM(I*NC+1)...                    *026 LM00061
                1      COM(I*NC+COM(I*NC)))                                                       *026 LM00062
                  END OF CONDITIONAL                                                              *027 LM00063
                  ONERC=ONERC.RS.1                                                                *028 LM00064
      PL          ERC=ERC.RS.1                                                                    *029 LM00065
                  FUNCTION RETURN                                                                 *030 LM00066
                  VECTOR VALUES NC=5                                                              *031 LM00067
                  VECTOR VALUES COM(0)=3,$ DISK PARITY ERROR$                                     *032 LM00068
                  VECTOR VALUES COM(5)=3,$ FATAL DISK ERROR$                                      *033 LM00069
                  VECTOR VALUES COM(10)=3,$ BAD BACK POINTER$                                     *034 LM00070
                  VECTOR VALUES COM(15)=3,$ BAD TRACK ADDRESS$                                    *035 LM00071
                  VECTOR VALUES COM(20)=4,$ BAD FOWARD POINTER$                                   *036 LM00072
                  VECTOR VALUES COM(25)=3,$ BAD TRACK NUMBER$                                     *037 LM00073
                  VECTOR VALUES COM(30)=3,$ UNPROTECTED TRACK$                                    *038 LM00074
                  VECTOR VALUES COM(35)=3,$ REUSED TRACK$                                         *039 LM00075
                  VECTOR VALUES COM(40)=4,$ DIRECTORY TRUNCATED$                                  *040 LM00076
                  VECTOR VALUES COM(45)=4,$ DATA FILE TRUNCATED$                                  *041 LM00077
                  VECTOR VALUES COM(50)=3,$ NON-ZERO ITEM$                                        *042 LM00078
                  VECTOR VALUES COM(55)=3,$ BAD DEVICE NUMBER$                                    *043 LM00079
                  VECTOR VALUES COM(60)=3,$ BAD LAST TRACK$                                       *044 LM00080
                  VECTOR VALUES COM(65)=3,$ FATAL ENTRY ERROR$                                    *045 LM00081
                  VECTOR VALUES COM(70)=3,$ FORCED FILE READ$                                     *046 LM00082
                  VECTOR VALUES COM(75)=2,$ BAD DATE$                                             *047 LM00083
                  VECTOR VALUES COM(80)=3,$ BAD LAST COUNT$                                       *048 LM00084
                  VECTOR VALUES COM(85)=3,$ BAD RECORD LENGTH$                                    *049 LM00085
                  VECTOR VALUES COM(90)=3,$ BAD RECORD COUNT$                                     *050 LM00086
                  VECTOR VALUES COM(95)=1,$ BAD P$                                                *051 LM00087
                  VECTOR VALUES COM(100)=4,$ FIXED BY BACK CHAINING$                              *052 LM00088
                  VECTOR VALUES COM(105)=4,$ BACK CHAINING FAILED$                                *053 LM00089
                  VECTOR VALUES SP=607777777777K                                                  *054 LM00090
                  NORMAL MODE IS INTEGER                                                          *055 LM00091
                  INSERT FILE SALEQU                                                              *056 LM00092
                   SALEQU                                                                         *056 LM00001
                  VECTOR VALUES MFDORG=101212121212K                                              *057 LM00002
                  VECTOR VALUES LOADER=001212121212K                                              *058 LM00003
                  VECTOR VALUES ENTLEN=7                                                          *059 LM00004
                  VECTOR VALUES ENTRYL=20                                                         *060 LM00005
                  VECTOR VALUES NWPT=432                                                          *061 LM00006
                  VECTOR VALUES LDKM=0                                                            *062 LM00007
                  VECTOR VALUES HDKM=7                                                            *063 LM00008
                  VECTOR VALUES LDMM=8                                                            *064 LM00009
                  VECTOR VALUES HDMM=8                                                            *065 LM00010
                  VECTOR VALUES NDKT=10000                                                        *066 LM00011
                  VECTOR VALUES NDMT=400                                                          *067 LM00012
                  VECTOR VALUES NQW=3                                                             *068 LM00013
                  VECTOR VALUES PROBN=1                                                           *069 LM00014
                  VECTOR VALUES PROGN=2                                                           *070 LM00015
                  VECTOR VALUES ALPHA=3                                                           *071 LM00016
                  VECTOR VALUES BETA=4                                                            *072 LM00017
                  VECTOR VALUES DAYTIM=5                                                          *073 LM00018
                  VECTOR VALUES TIME=6                                                            *074 LM00019
                  VECTOR VALUES DATELU=7                                                          *075 LM00020
                  VECTOR VALUES AUTHOR=8                                                          *076 LM00021
                  VECTOR VALUES MODE=9                                                            *077 LM00022
                  VECTOR VALUES ILOCK=10                                                          *078 LM00023
                  VECTOR VALUES F=11                                                              *079 LM00024
                  VECTOR VALUES RCOUNT=12                                                         *080 LM00025
                  VECTOR VALUES S=13                                                              *081 LM00026
                  VECTOR VALUES W=14                                                              *082 LM00027
                  VECTOR VALUES R=15                                                              *083 LM00028
                  VECTOR VALUES NORECS=16                                                         *084 LM00029
                  VECTOR VALUES P=17                                                              *085 LM00030
                  VECTOR VALUES LCOUNT=18                                                         *086 LM00031
                  VECTOR VALUES LSTRK=19                                                          *087 LM00032
                  VECTOR VALUES FSTRK=20                                                          *088 LM00033
                  VECTOR VALUES TEMPMD=1K                                                         *089 LM00034
                  VECTOR VALUES PARTER=1K                                                         *090 LM00035
                  VECTOR VALUES DISKER=2K                                                         *091 LM00036
                  VECTOR VALUES BADBP=4K                                                          *092 LM00037
                  VECTOR VALUES BADTR=1K1                                                         *093 LM00038
                  VECTOR VALUES BADFP=2K1                                                         *094 LM00039
                  VECTOR VALUES BADTN=4K1                                                         *095 LM00040
                  VECTOR VALUES UNPTRK=1K2                                                        *096 LM00041
                  VECTOR VALUES RUSTRK=2K2                                                        *097 LM00042
                  VECTOR VALUES DIRTRN=4K2                                                        *098 LM00043
                  VECTOR VALUES DTATRN=1K3                                                        *099 LM00044
                  VECTOR VALUES NZITEM=2K3                                                        *100 LM00045
                  VECTOR VALUES BADF=4K3                                                          *101 LM00046
                  VECTOR VALUES BADLTK=1K4                                                        *102 LM00047
                  VECTOR VALUES FATAL=2K4                                                         *103 LM00048
                  VECTOR VALUES FORCE=4K4                                                         *104 LM00049
                  VECTOR VALUES BADATE=1K5                                                        *105 LM00050
                  VECTOR VALUES BADLCT=2K5                                                        *106 LM00051
                  VECTOR VALUES BADRCT=4K5                                                        *107 LM00052
                  VECTOR VALUES BADTC=1K6                                                         *108 LM00053
                  VECTOR VALUES BADP=2K6                                                          *109 LM00054
                  VECTOR VALUES BKCOR=4K6                                                         *110 LM00055
                  VECTOR VALUES BKBAD=1K7                                                         *111 LM00056
                                                                                                       LM00057
                  END OF FUNCTION                                                                 *112 LM00093
1MAD PROGRAM,TYPE NOV 1963      (ALL NUMBERS ARE OCTAL)
0TOTAL LOCATIONS   01264 TRANSFER VECTOR LENGTH  00011 PROGRAM BEGINS    00313
0 PROGRAM IS AN EXTERNAL FUNCTION.   THE FOLLOWING ARE ENTRIES
      PTETER 00410   0        PTFLER 00314   0
0VARIABLE STORAGE (A=ARRAY,C=COMMON,E=ERASABLE,DIGIT=MODE)
      ALPHA  00013 A 1        BETA   00030 A 1        FORCE  00222 A 1        MODE   00237 A 1        PROBN  00252 A 1
      AUTHOR 00014 A 1        BKBAD  00031 A 1        F      00223 A 1        MOD    00240   1        PROGN  00253 A 1
      BADATE 00015 A 1        BKCOR  00032 A 1        FSTRK  00224 A 1        NC     00241 A 1        P      00254 A 1
      BADBP  00016 A 1        COM    00210 A 1        HDKM   00225 A 1        NDKT   00242 A 1        RCOUNT 00255 A 1
      BADFP  00017 A 1        DATELU 00211 A 1        HDMM   00226 A 1        NDMT   00243 A 1        R      00256 A 1
      BADF   00020 A 1        DAYTIM 00212 A 1        ILOCK  00227 A 1        NORECS 00244 A 1        RUSTRK 00257 A 1
      BADLCT 00021 A 1        DIRTRN 00213 A 1        I      00230   1        NQW    00245 A 1        SP     00260 A 1
      BADLTK 00022 A 1        DISKER 00214 A 1        LCOUNT 00231 A 1        NWPT   00246 A 1        S      00261 A 1
      BADP   00023 A 1        DTATRN 00215 A 1        LDKM   00232 A 1        NZITEM 00247 A 1        TEMPMD 00262 A 1
      BADRCT 00024 A 1        ENTLEN 00216 A 1        LDMM   00233 A 1        ONERC  00250   1        TIME   00263 A 1
      BADTC  00025 A 1        ENTRYL 00217 A 1        LOADER 00234 A 1        PARTER 00251 A 1        T      00273 A 1
      BADTN  00026 A 1        ERC    00220   1        LSTRK  00235 A 1        PL     00011   4        UNPTRK 00274 A 1
      BADTR  00027 A 1        FATAL  00221 A 1        MFDORG 00236 A 1        PNTERC 00012   4        W      00275 A 1
0FUNCTION DICTIONARY
      BZEL   00000   1        COMBIN 00001   1        DATECV 00002   1        DEFBC  00003   1        EXIT   00004   1
      KEYS   00005   1        MPRINT 00006   1        OCABC  00007   1        TRKCV  00010   1
0ABSOLUTE CONSTANTS
 00301 +000000000043     00305 -206060606060     00312 -377777777700     00310 -377777600000     00302 +000000007020
 00306 -376000000000     00311 -377777776000     00307 -377760000000     00303 +006060606077     00300 +000000000003
 00276 +000000000000     00277 +000000000001     00304 +233000000000
0STATEMENT DICTIONARY
 00012 TXL -301061001050
0PROGRAM
                 EXTERNAL FUNCTION (A,B,C,D,E,FF)                                   001  LM00001
                 ENTRY TO PTFLER.                                                   002  LM00003
 00313 TRA +0 02000 0 00316    00314 SXA +0 63400 2 01153    00315 TSX +0 07400 2 01153
                 ERC=B                                                              003  LM00004
 00316 CLA +0 50000 0 00024    00317 STO +0 60100 0 00220
                 ONERC=ERC.A. .N.KEYS.(0)                                           004  LM00005
 00320 TSX +0 07400 4 00005    00321 TXH +3 00000 0 00276    00322 STO +0 60100 0 01241    00323 CAL -0 50000 0 01241
 00324 COM +0 76000 0 00006    00325 ANA -0 32000 0 00220    00326 SLW +0 60200 0 00250
                 W'R ERC .E. 0, F'N                                                 005  LM00006
 00327 CLA +0 50000 0 00220    00330 SUB +0 40200 0 00276    00331 TNZ -0 10000 0 00333    00332 TRA +0 02000 0 01235
                 MOD=3                                                              006  LM00007
 00333 CLA +0 50000 0 00300    00334 STO +0 60100 0 00240
                 W'R ONERC.E.0, MOD=1                                               007  LM00008
 00335 CLA +0 50000 0 00250    00336 SUB +0 40200 0 00276    00337 TNZ -0 10000 0 00342    00340 CLA +0 50000 0 00277
 00341 STO +0 60100 0 00240
                 MPRINT.(MOD,6060606077K,A(PROBN)...A(BETA),SP,TRKCV.(C),SP,        008  LM00009
                1 TRKCV.(D),SP,TRKCV.(E),SP,BZEL.(DEFBC.(FF)))                      008  LM00010
 00342 TSX +0 07400 4 00003    00343 TXH +3 00000 0 00024    00344 STO +0 60100 0 01241    00345 TSX +0 07400 4 00000
 00346 TXH +3 00000 0 01241    00347 STO +0 60100 0 01241    00350 TSX +0 07400 4 00010    00351 TXH +3 00000 0 00024
 00352 STO +0 60100 0 01242    00353 TSX +0 07400 4 00010    00354 TXH +3 00000 0 00024    00355 STO +0 60100 0 01243
 00356 TSX +0 07400 4 00010    00357 TXH +3 00000 0 00024    00360 STO +0 60100 0 01244    00361 CLA +0 50000 0 00030
 00362 SUB +0 40200 0 00363    00363 TXH +3 00000 0 00024    00364 ALS +0 76700 0 00022    00365 STD +0 62200 0 00375
 00366 CLA +0 50000 0 00252    00367 SUB +0 40200 0 00370    00370 TXH +3 00000 0 00024    00371 STA +0 62100 0 00375
 00372 TSX +0 07400 4 00006    00373 TXH +3 00000 0 00240    00374 TXH +3 00000 0 00303    00375 TIX +2 00000 0 00000
 00376 TXH +3 00000 0 00260    00377 TXH +3 00000 0 01244    00400 TXH +3 00000 0 00260    00401 TXH +3 00000 0 01243
 00402 TXH +3 00000 0 00260    00403 TXH +3 00000 0 01242    00404 TXH +3 00000 0 00260    00405 TXH +3 00000 0 01241
                 T'O PNTERC                                                         009  LM00011
 00406 TRA +0 02000 0 00012
                 ENTRY TO PTETER.                                                   010  LM00013
 00407 TRA +0 02000 0 00412    00410 SXA +0 63400 2 01153    00411 TSX +0 07400 2 01153
                 ERC=B                                                              011  LM00015
 00412 CLA +0 50000 0 00024    00413 STO +0 60100 0 00220
                 ONERC=ERC.A. .N.KEYS.(0)                                           012  LM00016
 00414 TSX +0 07400 4 00005    00415 TXH +3 00000 0 00276    00416 STO +0 60100 0 01244    00417 CAL -0 50000 0 01244
 00420 COM +0 76000 0 00006    00421 ANA -0 32000 0 00220    00422 SLW +0 60200 0 00250
                 W'R ERC.E.0, F'N                                                   013  LM00017
 00423 CLA +0 50000 0 00220    00424 SUB +0 40200 0 00276    00425 TNZ -0 10000 0 00427    00426 TRA +0 02000 0 01235
                 MOD=3                                                              014  LM00018
 00427 CLA +0 50000 0 00300    00430 STO +0 60100 0 00240
                 W'R ONERC.E.0, MOD=1                                               015  LM00019
 00431 CLA +0 50000 0 00250    00432 SUB +0 40200 0 00276    00433 TNZ -0 10000 0 00436    00434 CLA +0 50000 0 00277
 00435 STO +0 60100 0 00240
                 W'R A(F).NE.0                                                      016  LM00020
 00436 LXA +0 53400 1 00223    00437 CLA +0 50000 1 00024    00440 SUB +0 40200 0 00276    00441 TZE +0 10000 0 00717
                 MPRINT.(MOD,7777777777K2,BZEL.(DEFBC.(C)),                         017  LM00021
                1 SP,A(PROBN),                                                      017  LM00022
                2 SP,A(PROGN),                                                      017  LM00023
                2 SP,A(ALPHA),                                                      017  LM00024
                3 SP,A(BETA),                                                       017  LM00025
                4 SP,DATECV.(A(DAYTIM)),                                            017  LM00026
                5 DEFBC.(A(TIME)/3600).V.77777760K4,                                017  LM00027
                6 SP,DATECV.(A(DATELU)),                                            017  LM00028
                7 SP,DEFBC.(A(AUTHOR)),                                             017  LM00029
                8 OCABC.(A(MODE)).V.7760K8,                                         017  LM00030
                9 OCABC.(A(ILOCK)).V.7760K8,                                        017  LM00031
                1 A(F).V.7777777760K2,                                              017  LM00032
                2 DEFBC.(A(RCOUNT)).V.777760K6,                                     017  LM00033
                3 A(S).V.7777777760K2,                                              017  LM00034
                4 A(W).V.7777777760K2,                                              017  LM00035
                5 A(R).V.7777777760K2,                                              017  LM00036
                6 BZEL.(DEFBC.(A(NORECS))),                                         017  LM00037
                7 A(P).V.7777777760K2,                                              017  LM00038
                8 DEFBC.(A(LCOUNT)).V.777760K6,                                     017  LM00039
                9 SP,TRKCV.(A(LSTRK)),                                              017  LM00040
                1 SP,TRKCV.(A(FSTRK)))                                              017  LM00041
 00442 CLA +0 50000 0 00224    00443 SUB +0 40200 0 00444    00444 TXH +3 00000 0 00024    00445 STA +0 62100 0 00447
 00446 TSX +0 07400 4 00010    00447 TXH +3 00000 0 00000    00450 STO +0 60100 0 01244    00451 CLA +0 50000 0 00235
 00452 SUB +0 40200 0 00453    00453 TXH +3 00000 0 00024    00454 STA +0 62100 0 00456    00455 TSX +0 07400 4 00010
 00456 TXH +3 00000 0 00000    00457 STO +0 60100 0 01243    00460 CLA +0 50000 0 00231    00461 SUB +0 40200 0 00462
 00462 TXH +3 00000 0 00024    00463 STA +0 62100 0 00465    00464 TSX +0 07400 4 00003    00465 TXH +3 00000 0 00000
 00466 STO +0 60100 0 01242    00467 CAL -0 50000 0 01242    00470 ORA -0 50100 0 00307    00471 LXA +0 53400 1 00254
 00472 SLW +0 60200 0 01242    00473 CAL -0 50000 1 00024    00474 ORA -0 50100 0 00311    00475 SLW +0 60200 0 01241
 00476 CLA +0 50000 0 00244    00477 SUB +0 40200 0 00500    00500 TXH +3 00000 0 00024    00501 STA +0 62100 0 00503
 00502 TSX +0 07400 4 00003    00503 TXH +3 00000 0 00000    00504 STO +0 60100 0 01245    00505 TSX +0 07400 4 00000
 00506 TXH +3 00000 0 01245    00507 LXA +0 53400 1 00256    00510 STO +0 60100 0 01245    00511 CAL -0 50000 1 00024
 00512 ORA -0 50100 0 00311    00513 LXA +0 53400 1 00275    00514 SLW +0 60200 0 01246    00515 CAL -0 50000 1 00024
 00516 ORA -0 50100 0 00311    00517 LXA +0 53400 1 00261    00520 SLW +0 60200 0 01247    00521 CAL -0 50000 1 00024
 00522 ORA -0 50100 0 00311    00523 SLW +0 60200 0 01250    00524 CLA +0 50000 0 00255    00525 SUB +0 40200 0 00526
 00526 TXH +3 00000 0 00024    00527 STA +0 62100 0 00531    00530 TSX +0 07400 4 00003    00531 TXH +3 00000 0 00000
 00532 STO +0 60100 0 01251    00533 CAL -0 50000 0 01251    00534 ORA -0 50100 0 00307    00535 LXA +0 53400 1 00223
 00536 SLW +0 60200 0 01251    00537 CAL -0 50000 1 00024    00540 ORA -0 50100 0 00311    00541 SLW +0 60200 0 01252
 00542 CLA +0 50000 0 00227    00543 SUB +0 40200 0 00544    00544 TXH +3 00000 0 00024    00545 STA +0 62100 0 00547
 00546 TSX +0 07400 4 00007    00547 TXH +3 00000 0 00000    00550 STO +0 60100 0 01253    00551 CAL -0 50000 0 01253
 00552 ORA -0 50100 0 00306    00553 SLW +0 60200 0 01253    00554 CLA +0 50000 0 00237    00555 SUB +0 40200 0 00556
 00556 TXH +3 00000 0 00024    00557 STA +0 62100 0 00561    00560 TSX +0 07400 4 00007    00561 TXH +3 00000 0 00000
 00562 STO +0 60100 0 01254    00563 CAL -0 50000 0 01254    00564 ORA -0 50100 0 00306    00565 SLW +0 60200 0 01254
 00566 CLA +0 50000 0 00014    00567 SUB +0 40200 0 00570    00570 TXH +3 00000 0 00024    00571 STA +0 62100 0 00573
 00572 TSX +0 07400 4 00003    00573 TXH +3 00000 0 00000    00574 STO +0 60100 0 01255    00575 CLA +0 50000 0 00211
 00576 SUB +0 40200 0 00577    00577 TXH +3 00000 0 00024    00600 STA +0 62100 0 00602    00601 TSX +0 07400 4 00002
 00602 TXH +3 00000 0 00000    00603 LXA +0 53400 1 00263    00604 STO +0 60100 0 01256    00605 LDQ +0 56000 1 00024
 00606 PXD -0 75400 0 00000    00607 LLS +0 76300 0 00000    00610 DVP +0 22100 0 00302    00611 STQ -0 60000 0 01257
 00612 TSX +0 07400 4 00003    00613 TXH +3 00000 0 01257    00614 STO +0 60100 0 01257    00615 CAL -0 50000 0 01257
 00616 ORA -0 50100 0 00310    00617 SLW +0 60200 0 01257    00620 CLA +0 50000 0 00212    00621 SUB +0 40200 0 00622
 00622 TXH +3 00000 0 00024    00623 STA +0 62100 0 00625    00624 TSX +0 07400 4 00002    00625 TXH +3 00000 0 00000
 00626 STO +0 60100 0 01260    00627 CLA +0 50000 0 00030    00630 SUB +0 40200 0 00631    00631 TXH +3 00000 0 00024
 00632 STA +0 62100 0 00670    00633 CLA +0 50000 0 00013    00634 SUB +0 40200 0 00635    00635 TXH +3 00000 0 00024
 00636 STA +0 62100 0 00666    00637 CLA +0 50000 0 00253    00640 SUB +0 40200 0 00641    00641 TXH +3 00000 0 00024
 00642 STA +0 62100 0 00664    00643 CLA +0 50000 0 00252    00644 SUB +0 40200 0 00645    00645 TXH +3 00000 0 00024
 00646 STA +0 62100 0 00662    00647 TSX +0 07400 4 00003    00650 TXH +3 00000 0 00024    00651 STO +0 60100 0 01261
 00652 TSX +0 07400 4 00000    00653 TXH +3 00000 0 01261    00654 STO +0 60100 0 01261    00655 TSX +0 07400 4 00006
 00656 TXH +3 00000 0 00240    00657 TXH +3 00000 0 00312    00660 TXH +3 00000 0 01261    00661 TXH +3 00000 0 00260
 00662 TXH +3 00000 0 00000    00663 TXH +3 00000 0 00260    00664 TXH +3 00000 0 00000    00665 TXH +3 00000 0 00260
 00666 TXH +3 00000 0 00000    00667 TXH +3 00000 0 00260    00670 TXH +3 00000 0 00000    00671 TXH +3 00000 0 00260
 00672 TXH +3 00000 0 01260    00673 TXH +3 00000 0 01257    00674 TXH +3 00000 0 00260    00675 TXH +3 00000 0 01256
 00676 TXH +3 00000 0 00260    00677 TXH +3 00000 0 01255    00700 TXH +3 00000 0 01254    00701 TXH +3 00000 0 01253
 00702 TXH +3 00000 0 01252    00703 TXH +3 00000 0 01251    00704 TXH +3 00000 0 01250    00705 TXH +3 00000 0 01247
 00706 TXH +3 00000 0 01246    00707 TXH +3 00000 0 01245    00710 TXH +3 00000 0 01241    00711 TXH +3 00000 0 01242
 00712 TXH +3 00000 0 00260    00713 TXH +3 00000 0 01243    00714 TXH +3 00000 0 00260    00715 TXH +3 00000 0 01244
                 O'E                                                                018  LM00042
 00716 TRA +0 02000 0 01050
                 COMBIN.(T,A)                                                       019  LM00043
 00717 TSX +0 07400 4 00001    00720 TXH +3 00000 0 00273    00721 TXH +3 00000 0 00024
                 MPRINT.(MOD,7777777777K2,BZEL.(DEFBC.(C)),                         020  LM00044
                1 SP,A(PROBN),                                                      020  LM00045
                2 SP,A(PROGN),                                                      020  LM00046
                2 SP,A(ALPHA),                                                      020  LM00047
                3 SP,A(BETA),                                                       020  LM00048
                4  SP,T(3),SP,SP,SP,                                                020  LM00049
                6  SP,T(4),SP,$$,                                                   020  LM00050
                8 OCABC.(A(MODE)).V.7760K8,                                         020  LM00051
                9 OCABC.(A(ILOCK)).V.7760K8,                                        020  LM00052
                1 A(F).V.7777777760K2,                                              020  LM00053
                2 DEFBC.(A(RCOUNT)).V.777760K6,                                     020  LM00054
                3  SP,T(6),$$,$$,T(7))                                              020  LM00055
 00722 CLA +0 50000 0 00255    00723 SUB +0 40200 0 00724    00724 TXH +3 00000 0 00024    00725 STA +0 62100 0 00727
 00726 TSX +0 07400 4 00003    00727 TXH +3 00000 0 00000    00730 STO +0 60100 0 01261    00731 CAL -0 50000 0 01261
 00732 ORA -0 50100 0 00307    00733 LXA +0 53400 1 00223    00734 SLW +0 60200 0 01261    00735 CAL -0 50000 1 00024
 00736 ORA -0 50100 0 00311    00737 SLW +0 60200 0 01260    00740 CLA +0 50000 0 00227    00741 SUB +0 40200 0 00742
 00742 TXH +3 00000 0 00024    00743 STA +0 62100 0 00745    00744 TSX +0 07400 4 00007    00745 TXH +3 00000 0 00000
 00746 STO +0 60100 0 01257    00747 CAL -0 50000 0 01257    00750 ORA -0 50100 0 00306    00751 SLW +0 60200 0 01257
 00752 CLA +0 50000 0 00237    00753 SUB +0 40200 0 00754    00754 TXH +3 00000 0 00024    00755 STA +0 62100 0 00757
 00756 TSX +0 07400 4 00007    00757 TXH +3 00000 0 00000    00760 STO +0 60100 0 01256    00761 CAL -0 50000 0 01256
 00762 ORA -0 50100 0 00306    00763 SLW +0 60200 0 01256    00764 CLA +0 50000 0 00030    00765 SUB +0 40200 0 00766
 00766 TXH +3 00000 0 00024    00767 STA +0 62100 0 01025    00770 CLA +0 50000 0 00013    00771 SUB +0 40200 0 00772
 00772 TXH +3 00000 0 00024    00773 STA +0 62100 0 01023    00774 CLA +0 50000 0 00253    00775 SUB +0 40200 0 00776
 00776 TXH +3 00000 0 00024    00777 STA +0 62100 0 01021    01000 CLA +0 50000 0 00252    01001 SUB +0 40200 0 01002
 01002 TXH +3 00000 0 00024    01003 STA +0 62100 0 01017    01004 TSX +0 07400 4 00003    01005 TXH +3 00000 0 00024
 01006 STO +0 60100 0 01255    01007 TSX +0 07400 4 00000    01010 TXH +3 00000 0 01255    01011 STO +0 60100 0 01255
 01012 TSX +0 07400 4 00006    01013 TXH +3 00000 0 00240    01014 TXH +3 00000 0 00312    01015 TXH +3 00000 0 01255
 01016 TXH +3 00000 0 00260    01017 TXH +3 00000 0 00000    01020 TXH +3 00000 0 00260    01021 TXH +3 00000 0 00000
 01022 TXH +3 00000 0 00260    01023 TXH +3 00000 0 00000    01024 TXH +3 00000 0 00260    01025 TXH +3 00000 0 00000
 01026 TXH +3 00000 0 00260    01027 TXH +3 00000 0 00270    01030 TXH +3 00000 0 00260    01031 TXH +3 00000 0 00260
 01032 TXH +3 00000 0 00260    01033 TXH +3 00000 0 00260    01034 TXH +3 00000 0 00267    01035 TXH +3 00000 0 00260
 01036 TXH +3 00000 0 00305    01037 TXH +3 00000 0 01256    01040 TXH +3 00000 0 01257    01041 TXH +3 00000 0 01260
 01042 TXH +3 00000 0 01261    01043 TXH +3 00000 0 00260    01044 TXH +3 00000 0 00265    01045 TXH +3 00000 0 00305
 01046 TXH +3 00000 0 00305    01047 TXH +3 00000 0 00264
                 E'L                                                                021  LM00056
                 DIMENSION T(7)                                                     022  LM00057
      PNTERC     T'H PL, FOR I=0,1,ERC.E.0                                          023  LM00058
 01050 CLA +0 50000 0 00276    01051 STO +0 60100 0 00230    01052 TRA +0 02000 0 01056    01053 CLA +0 50000 0 00230
 01054 ADD +0 40000 0 00277    01055 STO +0 60100 0 00230    01056 CLA +0 50000 0 00220    01057 SUB +0 40200 0 00276
 01060 TZE +0 10000 0 01151
                 W'R ERC.A.1 .NE.0                                                  024  LM00059
 01061 CAL -0 50000 0 00220    01062 ANA -0 32000 0 00277    01063 SLW +0 60200 0 01261    01064 CLA +0 50000 0 01261
 01065 SUB +0 40200 0 00276    01066 TZE +0 10000 0 01136
                      MOD=(ONERC.LS.1).V.1                                          025  LM00060
 01067 CAL -0 50000 0 00277    01070 STA +0 62100 0 01072    01071 CAL -0 50000 0 00250    01072 ALS +0 76700 0 00000
 01073 ORA -0 50100 0 00277    01074 SLW +0 60200 0 00240
                      MPRINT.(MOD,DEFBC.(35-I).V.77777760K4,SP,COM(I*NC+1)...       026  LM00061
                1     COM(I*NC+COM(I*NC)))                                          026  LM00062
 01075 LDQ +0 56000 0 00230    01076 MPY +0 20000 0 00241    01077 STQ -0 60000 0 01261    01100 LDQ +0 56000 0 00230
 01101 MPY +0 20000 0 00241    01102 LXA +0 53400 2 01261    01103 XCA +0 13100 0 00000    01104 ADD +0 40000 2 00210
 01105 SUB +0 40200 0 01106    01106 TXH +3 00000 0 00210    01107 ALS +0 76700 0 00022    01110 STD +0 62200 0 01135
 01111 LDQ +0 56000 0 00230    01112 MPY +0 20000 0 00241    01113 XCA +0 13100 0 00000    01114 ADD +0 40000 0 00277
 01115 SUB +0 40200 0 01116    01116 TXH +3 00000 0 00210    01117 STA +0 62100 0 01135    01120 CLA +0 50000 0 00301
 01121 SUB +0 40200 0 00230    01122 STO +0 60100 0 01261    01123 TSX +0 07400 4 00003    01124 TXH +3 00000 0 01261
 01125 STO +0 60100 0 01261    01126 CAL -0 50000 0 01261    01127 ORA -0 50100 0 00310    01130 SLW +0 60200 0 01261
 01131 TSX +0 07400 4 00006    01132 TXH +3 00000 0 00240    01133 TXH +3 00000 0 01261    01134 TXH +3 00000 0 00260
 01135 TIX +2 00000 0 00000
                 E'L                                                                027  LM00063
                 ONERC=ONERC.RS.1                                                   028  LM00064
 01136 CAL -0 50000 0 00277    01137 STA +0 62100 0 01141    01140 CAL -0 50000 0 00250    01141 LGR -0 76500 0 00000
 01142 SLW +0 60200 0 00250
      PL         ERC=ERC.RS.1                                                       029  LM00065
 01143 CAL -0 50000 0 00277    01144 STA +0 62100 0 01146    01145 CAL -0 50000 0 00220    01146 LGR -0 76500 0 00000
 01147 SLW +0 60200 0 00220    01150 TRA +0 02000 0 01053
                 F'N                                                                030  LM00066
 01151 TRA +0 02000 0 01235
                 V'S NC=5                                                           031  LM00067
 00241     +0 00000 0 00005
                 V'S COM(0)=3,$ DISK PARITY ERROR$                                  032  LM00068
 00205     -2 02551 5 14651    00206     -0 72151 3 16370    00207     -2 02431 6 24260    00210     +0 00000 0 00003
                 V'S COM(5)=3,$ FATAL DISK ERROR$                                   033  LM00069
 00200     +2 55151 4 65160    00201     -2 02431 6 24260    00202     -2 02621 6 32143    00203     +0 00000 0 00003
                 V'S COM(10)=3,$ BAD BACK POINTER$                                  034  LM00070
 00173     +3 14563 2 55160    00174     +2 12342 6 04746    00175     -2 02221 2 46022    00176     +0 00000 0 00003
                 V'S COM(15)=3,$ BAD TRACK ADDRESS$                                 035  LM00071
 00166     +2 42451 2 56262    00167     -1 12123 4 26021    00170     -2 02221 2 46063    00171     +0 00000 0 00003
                 V'S COM(20)=4,$ BAD FOWARD POINTER$                                036  LM00072
 00160     -1 16060 6 06060    00161     -0 74631 4 56325    00162     -0 66621 5 12460    00163     -2 02221 2 46026
 00164     +0 00000 0 00004
                 V'S COM(25)=3,$ BAD TRACK NUMBER$                                  037  LM00073
 00154     -2 44422 2 55160    00155     -1 12123 4 26045    00156     -2 02221 2 46063    00157     +0 00000 0 00003
                 V'S COM(30)=3,$ UNPROTECTED TRACK$                                 038  LM00074
 00147     -2 06351 2 12342    00150     -2 32523 6 32524    00151     -2 06445 4 75146    00152     +0 00000 0 00003
                 V'S COM(35)=3,$ REUSED TRACK$                                      039  LM00075
 00142     -0 26060 6 06060    00143     +2 46063 5 12123    00144     -2 05125 6 46225    00145     +0 00000 0 00003
                 V'S COM(40)=4,$ DIRECTORY TRUNCATED$                               040  LM00076
 00134     +2 52460 6 06060    00135     -1 16445 2 32163    00136     -2 34651 7 06063    00137     -2 02431 5 12523
 00140     +0 00000 0 00004
                 V'S COM(45)=4,$ DATA FILE TRUNCATED$                               041  LM00077
 00127     +2 52460 6 06060    00130     -1 16445 2 32163    00131     +2 63143 2 56063    00132     -2 02421 6 32160
 00133     +0 00000 0 00004
                 V'S COM(50)=3,$ NON-ZERO ITEM$                                     042  LM00078
 00123     +2 54460 6 06060    00124     +2 55146 6 03163    00125     -2 04546 4 54071    00126     +0 00000 0 00003
                 V'S COM(55)=3,$ BAD DEVICE NUMBER$                                 043  LM00079
 00116     -0 56444 2 22551    00117     +2 56531 2 32560    00120     -2 02221 2 46024    00121     +0 00000 0 00003
                 V'S COM(60)=3,$ BAD LAST TRACK$                                    044  LM00080
 00111     +2 12342 6 06060    00112     +2 16263 6 06351    00113     -2 02221 2 46043    00114     +0 00000 0 00003
                 V'S COM(65)=3,$ FATAL ENTRY ERROR$                                 045  LM00081
 00104     -2 02551 5 14651    00105     -2 02545 6 35170    00106     -2 02621 6 32143    00107     +0 00000 0 00003
                 V'S COM(70)=3,$ FORCED FILE READ$                                  046  LM00082
 00077     -2 05125 2 12460    00100     +2 46026 3 14325    00101     -2 02646 5 12325    00102     +0 00000 0 00003
                 V'S COM(75)=2,$ BAD DATE$                                          047  LM00083
 00073     +2 16325 6 06060    00074     -2 02221 2 46024    00075     +0 00000 0 00002
                 V'S COM(80)=3,$ BAD LAST COUNT$                                    048  LM00084
 00065     -2 44563 6 06060    00066     +2 16263 6 02346    00067     -2 02221 2 46043    00070     +0 00000 0 00003
                 V'S COM(85)=3,$ BAD RECORD LENGTH$                                 049  LM00085
 00060     -0 32545 2 76330    00061     +2 52346 5 12460    00062     -2 02221 2 46051    00063     +0 00000 0 00003
                 V'S COM(90)=3,$ BAD RECORD COUNT$                                  050  LM00086
 00053     +2 34664 4 56360    00054     +2 52346 5 12460    00055     -2 02221 2 46051    00056     +0 00000 0 00003
                 V'S COM(95)=1,$ BAD P$                                             051  LM00087
 00050     -2 02221 2 46047    00051     +0 00000 0 00001
                 V'S COM(100)=4,$ FIXED BY BACK CHAINING$                           052  LM00088
 00040     +3 14531 4 52760    00041     +2 34260 2 33021    00042     -2 02270 6 02221    00043     -2 02631 6 72524
 00044     +0 00000 0 00004
                 V'S COM(105)=4,$ BACK CHAINING FAILED$                             053  LM00089
 00033     -0 32524 6 06060    00034     -0 52760 2 62131    00035     +2 33021 3 14531    00036     -2 02221 2 34260
 00037     +0 00000 0 00004
                 V'S SP=607777777777K                                               054  LM00090
 00260     -2 07777 7 77777
                 NORMAL MODE IS INTEGER                                             055  LM00091
                 INSERT FILE SALEQU                                                 056  LM00092
                 V'S MFDORG=101212121212K                                           057  LM00002
 00236     +1 01212 1 21212
                 V'S LOADER=001212121212K                                           058  LM00003
 00234     +0 01212 1 21212
                 V'S ENTLEN=7                                                       059  LM00004
 00216     +0 00000 0 00007
                 V'S ENTRYL=20                                                      060  LM00005
 00217     +0 00000 0 00024
                 V'S NWPT=432                                                       061  LM00006
 00246     +0 00000 0 00660
                 V'S LDKM=0                                                         062  LM00007
 00232     +0 00000 0 00000
                 V'S HDKM=7                                                         063  LM00008
 00225     +0 00000 0 00007
                 V'S LDMM=8                                                         064  LM00009
 00233     +0 00000 0 00010
                 V'S HDMM=8                                                         065  LM00010
 00226     +0 00000 0 00010
                 V'S NDKT=10000                                                     066  LM00011
 00242     +0 00000 0 23420
                 V'S NDMT=400                                                       067  LM00012
 00243     +0 00000 0 00620
                 V'S NQW=3                                                          068  LM00013
 00245     +0 00000 0 00003
                 V'S PROBN=1                                                        069  LM00014
 00252     +0 00000 0 00001
                 V'S PROGN=2                                                        070  LM00015
 00253     +0 00000 0 00002
                 V'S ALPHA=3                                                        071  LM00016
 00013     +0 00000 0 00003
                 V'S BETA=4                                                         072  LM00017
 00030     +0 00000 0 00004
                 V'S DAYTIM=5                                                       073  LM00018
 00212     +0 00000 0 00005
                 V'S TIME=6                                                         074  LM00019
 00263     +0 00000 0 00006
                 V'S DATELU=7                                                       075  LM00020
 00211     +0 00000 0 00007
                 V'S AUTHOR=8                                                       076  LM00021
 00014     +0 00000 0 00010
                 V'S MODE=9                                                         077  LM00022
 00237     +0 00000 0 00011
                 V'S ILOCK=10                                                       078  LM00023
 00227     +0 00000 0 00012
                 V'S F=11                                                           079  LM00024
 00223     +0 00000 0 00013
                 V'S RCOUNT=12                                                      080  LM00025
 00255     +0 00000 0 00014
                 V'S S=13                                                           081  LM00026
 00261     +0 00000 0 00015
                 V'S W=14                                                           082  LM00027
 00275     +0 00000 0 00016
                 V'S R=15                                                           083  LM00028
 00256     +0 00000 0 00017
                 V'S NORECS=16                                                      084  LM00029
 00244     +0 00000 0 00020
                 V'S P=17                                                           085  LM00030
 00254     +0 00000 0 00021
                 V'S LCOUNT=18                                                      086  LM00031
 00231     +0 00000 0 00022
                 V'S LSTRK=19                                                       087  LM00032
 00235     +0 00000 0 00023
                 V'S FSTRK=20                                                       088  LM00033
 00224     +0 00000 0 00024
                 V'S TEMPMD=1K                                                      089  LM00034
 00262     +0 00000 0 00001
                 V'S PARTER=1K                                                      090  LM00035
 00251     +0 00000 0 00001
                 V'S DISKER=2K                                                      091  LM00036
 00214     +0 00000 0 00002
                 V'S BADBP=4K                                                       092  LM00037
 00016     +0 00000 0 00004
                 V'S BADTR=1K1                                                      093  LM00038
 00027     +0 00000 0 00010
                 V'S BADFP=2K1                                                      094  LM00039
 00017     +0 00000 0 00020
                 V'S BADTN=4K1                                                      095  LM00040
 00026     +0 00000 0 00040
                 V'S UNPTRK=1K2                                                     096  LM00041
 00274     +0 00000 0 00100
                 V'S RUSTRK=2K2                                                     097  LM00042
 00257     +0 00000 0 00200
                 V'S DIRTRN=4K2                                                     098  LM00043
 00213     +0 00000 0 00400
                 V'S DTATRN=1K3                                                     099  LM00044
 00215     +0 00000 0 01000
                 V'S NZITEM=2K3                                                     100  LM00045
 00247     +0 00000 0 02000
                 V'S BADF=4K3                                                       101  LM00046
 00020     +0 00000 0 04000
                 V'S BADLTK=1K4                                                     102  LM00047
 00022     +0 00000 0 10000
                 V'S FATAL=2K4                                                      103  LM00048
 00221     +0 00000 0 20000
                 V'S FORCE=4K4                                                      104  LM00049
 00222     +0 00000 0 40000
                 V'S BADATE=1K5                                                     105  LM00050
 00015     +0 00000 1 00000
                 V'S BADLCT=2K5                                                     106  LM00051
 00021     +0 00000 2 00000
                 V'S BADRCT=4K5                                                     107  LM00052
 00024     +0 00000 4 00000
                 V'S BADTC=1K6                                                      108  LM00053
 00025     +0 00001 0 00000
                 V'S BADP=2K6                                                       109  LM00054
 00023     +0 00002 0 00000
                 V'S BKCOR=4K6                                                      110  LM00055
 00032     +0 00004 0 00000
                 V'S BKBAD=1K7                                                      111  LM00056
 00031     +0 00010 0 00000
                 END OF FUNCTION                                                    112  LM00093
 01152 TSX +0 07400 4 00004    01153 TXH +3 00000 0 00000    01154 SXD -0 63400 1 01153    01155 SXA +0 63400 4 01235
 01156 CLA +0 50000 4 00001    01157 STO +0 60100 0 00363    01160 STO +0 60100 0 00370    01161 STA +0 62100 0 00437
 01162 STO +0 60100 0 00444    01163 STO +0 60100 0 00453    01164 STO +0 60100 0 00462    01165 STA +0 62100 0 00473
 01166 STO +0 60100 0 00500    01167 STA +0 62100 0 00511    01170 STA +0 62100 0 00515    01171 STA +0 62100 0 00521
 01172 STO +0 60100 0 00526    01173 STA +0 62100 0 00537    01174 STO +0 60100 0 00544    01175 STO +0 60100 0 00556
 01176 STO +0 60100 0 00570    01177 STO +0 60100 0 00577    01200 STA +0 62100 0 00605    01201 STO +0 60100 0 00622
 01202 STO +0 60100 0 00631    01203 STO +0 60100 0 00635    01204 STO +0 60100 0 00641    01205 STO +0 60100 0 00645
 01206 STO +0 60100 0 00721    01207 STO +0 60100 0 00724    01210 STA +0 62100 0 00735    01211 STO +0 60100 0 00742
 01212 STO +0 60100 0 00754    01213 STO +0 60100 0 00766    01214 STO +0 60100 0 00772    01215 STO +0 60100 0 00776
 01216 STO +0 60100 0 01002    01217 CLA +0 50000 4 00002    01220 STA +0 62100 0 00316    01221 STA +0 62100 0 00412
 01222 CLA +0 50000 4 00003    01223 STO +0 60100 0 00357    01224 STO +0 60100 0 00650    01225 STO +0 60100 0 01005
 01226 CLA +0 50000 4 00004    01227 STO +0 60100 0 00354    01230 CLA +0 50000 4 00005    01231 STO +0 60100 0 00351
 01232 CLA +0 50000 4 00006    01233 STO +0 60100 0 00343    01234 TRA +0 02000 2 00001    01235 AXT +0 77400 4 00000
 01236 LXA +0 53400 2 01153    01237 LXD -0 53400 1 01153    01240 TRA +0 02000 4 00001


 CVDT4   BCD 12/14/70 1515.7    7903         00000
1     MAD PROGRAM LISTING ... ... ...                 FILE    CVDT   MAD            11/05/70    1934.5
-
                  EXTERNAL FUNCTION (A)                                                           *001 LM00001
                  ENTRY TO CVDATE.                                                                *002 LM00002
                   I/O FORMAT=CVDATE.(MMDDYY)                                                          LM00003
                  X=A                                                                             *003 LM00004
                  Y=BCDEC.(X.A.7777K).LS.9 .V.BCDEC.(X.RS.12 .A.7777K).V.                         *004 LM00005
                1   BCDEC.(X.RS.24 .A.7777K).LS.5                                                 *004 LM00006
                  FUNCTION RETURN Y                                                               *005 LM00007
                                                                                                       LM00008
                  ENTRY TO DATECV.                                                                *006 LM00009
                   MMDDYY=DATECV.(I/O FORMAT)                                                          LM00010
                  X=A                                                                             *007 LM00011
                  Y=(DERBC.(X.RS.9 .A.777K).A.7777K) .V.                                          *008 LM00012
                1   (DERBC.(X.A.37K).A.7777K).LS.12 .V.                                           *008 LM00013
                2   (DERBC.(X.RS.5 .A.17K).A.7777K).LS.24                                         *008 LM00014
                  FUNCTION RETURN Y                                                               *009 LM00015
                                                                                                       LM00016
                  ENTRY TO CKDATE.                                                                *010 LM00017
                   BAD=CKDATE.(DATE)                                                                   LM00018
                  X=A                                                                             *011 LM00019
                  Y=X.RS.9                                                                        *012 LM00020
                  M=X.RS.5 .A.17K                                                                 *013 LM00021
                  D=X.A.37K                                                                       *014 LM00022
                  FUNCTION RETURN Y.G.99 .OR. Y.L.60 .OR. M.G.12 .OR. M.L.1 .OR.                  *015 LM00023
                1     D.G.31 .OR. D.L.1                                                           *015 LM00024
                                                                                                       LM00025
                  ENTRY TO TRKCV.                                                                 *016 LM00026
                   ZEROS=TRKCV.(TWELVES)                                                               LM00027
                  X=A                                                                             *017 LM00028
                  Y1=(X+$666666$).A.$++++++$                                                      *018 LM00029
                  FUNCTION RETURN X .A. .N.(Y1.RS.1) .A. .N.(Y1.RS.3)                             *019 LM00030
                                                                                                       LM00031
                  ENTRY TO CVTRK.                                                                 *020 LM00032
                   TWELVES=CVTRK.(ZEROS)                                                               LM00033
                  X=A                                                                             *021 LM00034
                  Y1=(X+373737373737K) .A. $++++++$                                               *022 LM00035
                  FUNCTION RETURN X .V. Y1.RS.1 .V. Y1.RS.3                                       *023 LM00036
                                                                                                       LM00037
                  ENTRY TO CKTRK.                                                                 *024 LM00038
                   BAD=CKTRK.(TRACK)                                                                   LM00039
                  X=A                                                                             *025 LM00040
                  WHENEVER FIRST                                                                  *026 LM00041
                       THROUGH DKL,FOR I=LDKM,1,I.G.HDKM                                          *027 LM00042
      DKL              TSIZ(I)=NDKT                                                               *028 LM00043
                       THROUGH DML, FOR I=LDMM,1,I.G.HDMM                                         *029 LM00044
      DML              TSIZ(I)=NDMT                                                               *030 LM00045
                       FIRST=0B                                                                   *031 LM00046
                  END OF CONDITIONAL                                                              *032 LM00047
                  WHENEVER (X+373737373737K).A.$++++++$ .NE.0, FUNCTION RETURN 1B                 *033 LM00048
                  Y1=(X+$666666$).A.$++++++$                                                      *034 LM00049
                  Y=X.A. .N.(Y1.RS.1) .A. .N.(Y1.RS.3)                                            *035 LM00050
                  R=Y.A.77K                                                                       *036 LM00051
                  T=BCDEC.(Y.RS.6 .A. 77777777K)                                                  *037 LM00052
                  M=Y.RS.30 .A.77K                                                                *038 LM00053
                  WHENEVER M.L.LDKM.OR.M.G.HDKM .AND. M.L.LDMM .OR. M.G.HDMM, FUNCTION RETURN 1B  *039 LM00054
                  WHENEVER  R.G.1 .OR. T.GE.TSIZ(M), FUNCTION RETURN 1B                           *040 LM00055
                  FUNCTION RETURN 0B                                                              *041 LM00056
                  NORMAL MODE IS INTEGER                                                          *042 LM00057
                  DIMENSION TSIZ(10)                                                              *043 LM00058
                  VECTOR VALUES FIRST=1B                                                          *044 LM00059
                  INSERT FILE SALEQU                                                              *045 LM00060
                   SALEQU                                                                         *045 LM00001
                  VECTOR VALUES MFDORG=101212121212K                                              *046 LM00002
                  VECTOR VALUES LOADER=001212121212K                                              *047 LM00003
                  VECTOR VALUES ENTLEN=7                                                          *048 LM00004
                  VECTOR VALUES ENTRYL=20                                                         *049 LM00005
                  VECTOR VALUES NWPT=432                                                          *050 LM00006
                  VECTOR VALUES LDKM=0                                                            *051 LM00007
                  VECTOR VALUES HDKM=7                                                            *052 LM00008
                  VECTOR VALUES LDMM=8                                                            *053 LM00009
                  VECTOR VALUES HDMM=8                                                            *054 LM00010
                  VECTOR VALUES NDKT=10000                                                        *055 LM00011
                  VECTOR VALUES NDMT=400                                                          *056 LM00012
                  VECTOR VALUES NQW=3                                                             *057 LM00013
                  VECTOR VALUES PROBN=1                                                           *058 LM00014
                  VECTOR VALUES PROGN=2                                                           *059 LM00015
                  VECTOR VALUES ALPHA=3                                                           *060 LM00016
                  VECTOR VALUES BETA=4                                                            *061 LM00017
                  VECTOR VALUES DAYTIM=5                                                          *062 LM00018
                  VECTOR VALUES TIME=6                                                            *063 LM00019
                  VECTOR VALUES DATELU=7                                                          *064 LM00020
                  VECTOR VALUES AUTHOR=8                                                          *065 LM00021
                  VECTOR VALUES MODE=9                                                            *066 LM00022
                  VECTOR VALUES ILOCK=10                                                          *067 LM00023
                  VECTOR VALUES F=11                                                              *068 LM00024
                  VECTOR VALUES RCOUNT=12                                                         *069 LM00025
                  VECTOR VALUES S=13                                                              *070 LM00026
                  VECTOR VALUES W=14                                                              *071 LM00027
                  VECTOR VALUES R=15                                                              *072 LM00028
                  VECTOR VALUES NORECS=16                                                         *073 LM00029
                  VECTOR VALUES P=17                                                              *074 LM00030
                  VECTOR VALUES LCOUNT=18                                                         *075 LM00031
                  VECTOR VALUES LSTRK=19                                                          *076 LM00032
                  VECTOR VALUES FSTRK=20                                                          *077 LM00033
                  VECTOR VALUES TEMPMD=1K                                                         *078 LM00034
                  VECTOR VALUES PARTER=1K                                                         *079 LM00035
                  VECTOR VALUES DISKER=2K                                                         *080 LM00036
                  VECTOR VALUES BADBP=4K                                                          *081 LM00037
                  VECTOR VALUES BADTR=1K1                                                         *082 LM00038
                  VECTOR VALUES BADFP=2K1                                                         *083 LM00039
                  VECTOR VALUES BADTN=4K1                                                         *084 LM00040
                  VECTOR VALUES UNPTRK=1K2                                                        *085 LM00041
                  VECTOR VALUES RUSTRK=2K2                                                        *086 LM00042
                  VECTOR VALUES DIRTRN=4K2                                                        *087 LM00043
                  VECTOR VALUES DTATRN=1K3                                                        *088 LM00044
                  VECTOR VALUES NZITEM=2K3                                                        *089 LM00045
                  VECTOR VALUES BADF=4K3                                                          *090 LM00046
                  VECTOR VALUES BADLTK=1K4                                                        *091 LM00047
                  VECTOR VALUES FATAL=2K4                                                         *092 LM00048
                  VECTOR VALUES FORCE=4K4                                                         *093 LM00049
                  VECTOR VALUES BADATE=1K5                                                        *094 LM00050
                  VECTOR VALUES BADLCT=2K5                                                        *095 LM00051
                  VECTOR VALUES BADRCT=4K5                                                        *096 LM00052
                  VECTOR VALUES BADTC=1K6                                                         *097 LM00053
                  VECTOR VALUES BADP=2K6                                                          *098 LM00054
                  VECTOR VALUES BKCOR=4K6                                                         *099 LM00055
                  VECTOR VALUES BKBAD=1K7                                                         *100 LM00056
                                                                                                       LM00057
                  END OF FUNCTION                                                                 *101 LM00061
1MAD PROGRAM,TYPE NOV 1963      (ALL NUMBERS ARE OCTAL)
0TOTAL LOCATIONS   00657 TRANSFER VECTOR LENGTH  00003 PROGRAM BEGINS    00143
0 PROGRAM IS AN EXTERNAL FUNCTION.   THE FOLLOWING ARE ENTRIES
      CKTRK  00446   0        CVTRK  00415   0        TRKCV  00362   0        CKDATE 00303   0        DATECV 00217   0
      CVDATE 00144   0
0VARIABLE STORAGE (A=ARRAY,C=COMMON,E=ERASABLE,DIGIT=MODE)
      ALPHA  00004 A 1        BKBAD  00022 A 1        FIRST  00035 A 2        MFDORG 00052 A 1        RCOUNT 00067 A 1
      AUTHOR 00005 A 1        BKCOR  00023 A 1        FORCE  00036 A 1        MODE   00053 A 1        R      00070 A 1
      BADATE 00006 A 1        DATELU 00024 A 1        F      00037 A 1        M      00054   1        RUSTRK 00071 A 1
      BADBP  00007 A 1        DAYTIM 00025 A 1        FSTRK  00040 A 1        NDKT   00055 A 1        S      00072 A 1
      BADFP  00010 A 1        DIRTRN 00026 A 1        HDKM   00041 A 1        NDMT   00056 A 1        TEMPMD 00073 A 1
      BADF   00011 A 1        DISKER 00027 A 1        HDMM   00042 A 1        NORECS 00057 A 1        TIME   00074 A 1
      BADLCT 00012 A 1        DKL    00003   4        ILOCK  00043 A 1        NQW    00060 A 1        T      00075   1
      BADLTK 00013 A 1        DML    00003   4        I      00044   1        NWPT   00061 A 1        TSIZ   00110 A 1
      BADP   00014 A 1        D      00030   1        LCOUNT 00045 A 1        NZITEM 00062 A 1        UNPTRK 00111 A 1
      BADRCT 00015 A 1        DTATRN 00031 A 1        LDKM   00046 A 1        PARTER 00063 A 1        W      00112 A 1
      BADTC  00016 A 1        ENTLEN 00032 A 1        LDMM   00047 A 1        PROBN  00064 A 1        X      00113   1
      BADTN  00017 A 1        ENTRYL 00033 A 1        LOADER 00050 A 1        PROGN  00065 A 1        Y1     00114   1
      BADTR  00020 A 1        FATAL  00034 A 1        LSTRK  00051 A 1        P      00066 A 1        Y      00115   1
      BETA   00021 A 1
0FUNCTION DICTIONARY
      BCDEC  00000   1        DERBC  00001   1        EXIT   00002   1
0ABSOLUTE CONSTANTS
 00127 +000000000036     00136 +000077777777     00122 +000000000006     00132 +000000000077     00116 +000000000000
 00142 +373737373737     00120 +000000000003     00140 +202020202020     00137 +060606060606     00133 +000000000143
 00131 +000000000074     00134 +000000000777     00130 +000000000037     00125 +000000000017     00123 +000000000011
 00124 +000000000014     00121 +000000000005     00135 +000000007777     00126 +000000000030     00117 +000000000001
 00141 +233000000000
0PROGRAM
                 EXTERNAL FUNCTION (A)                                              001  LM00001
                 ENTRY TO CVDATE.                                                   002  LM00002
 00143 TRA +0 02000 0 00146    00144 SXA +0 63400 2 00633    00145 TSX +0 07400 2 00633
                 X=A                                                                003  LM00004
 00146 CLA +0 50000 0 00024    00147 STO +0 60100 0 00113
                 Y=BCDEC.(X.A.7777K).LS.9 .V.BCDEC.(X.RS.12 .A.7777K).V.            004  LM00005
                1  BCDEC.(X.RS.24 .A.7777K).LS.5                                    004  LM00006
 00150 CAL -0 50000 0 00126    00151 STA +0 62100 0 00153    00152 CAL -0 50000 0 00113    00153 LGR -0 76500 0 00000
 00154 ANA -0 32000 0 00135    00155 SLW +0 60200 0 00652    00156 TSX +0 07400 4 00000    00157 TXH +3 00000 0 00652
 00160 STO +0 60100 0 00652    00161 CAL -0 50000 0 00121    00162 STA +0 62100 0 00164    00163 CAL -0 50000 0 00652
 00164 ALS +0 76700 0 00000    00165 SLW +0 60200 0 00652    00166 CAL -0 50000 0 00124    00167 STA +0 62100 0 00171
 00170 CAL -0 50000 0 00113    00171 LGR -0 76500 0 00000    00172 ANA -0 32000 0 00135    00173 SLW +0 60200 0 00653
 00174 TSX +0 07400 4 00000    00175 TXH +3 00000 0 00653    00176 STO +0 60100 0 00653    00177 CAL -0 50000 0 00113
 00200 ANA -0 32000 0 00135    00201 SLW +0 60200 0 00654    00202 TSX +0 07400 4 00000    00203 TXH +3 00000 0 00654
 00204 STO +0 60100 0 00654    00205 CAL -0 50000 0 00123    00206 STA +0 62100 0 00210    00207 CAL -0 50000 0 00654
 00210 ALS +0 76700 0 00000    00211 ORA -0 50100 0 00653    00212 ORA -0 50100 0 00652    00213 SLW +0 60200 0 00115
                 F'N Y                                                              005  LM00007
 00214 CLA +0 50000 0 00115    00215 TRA +0 02000 0 00646
                 ENTRY TO DATECV.                                                   006  LM00009
 00216 TRA +0 02000 0 00221    00217 SXA +0 63400 2 00633    00220 TSX +0 07400 2 00633
                 X=A                                                                007  LM00011
 00221 CLA +0 50000 0 00024    00222 STO +0 60100 0 00113
                 Y=(DERBC.(X.RS.9 .A.777K).A.7777K) .V.                             008  LM00012
                1  (DERBC.(X.A.37K).A.7777K).LS.12 .V.                              008  LM00013
                2  (DERBC.(X.RS.5 .A.17K).A.7777K).LS.24                            008  LM00014
 00223 CAL -0 50000 0 00121    00224 STA +0 62100 0 00226    00225 CAL -0 50000 0 00113    00226 LGR -0 76500 0 00000
 00227 ANA -0 32000 0 00125    00230 SLW +0 60200 0 00654    00231 TSX +0 07400 4 00001    00232 TXH +3 00000 0 00654
 00233 STO +0 60100 0 00654    00234 CAL -0 50000 0 00654    00235 ANA -0 32000 0 00135    00236 SLW +0 60200 0 00654
 00237 CAL -0 50000 0 00126    00240 STA +0 62100 0 00242    00241 CAL -0 50000 0 00654    00242 ALS +0 76700 0 00000
 00243 SLW +0 60200 0 00654    00244 CAL -0 50000 0 00113    00245 ANA -0 32000 0 00130    00246 SLW +0 60200 0 00653
 00247 TSX +0 07400 4 00001    00250 TXH +3 00000 0 00653    00251 STO +0 60100 0 00653    00252 CAL -0 50000 0 00653
 00253 ANA -0 32000 0 00135    00254 SLW +0 60200 0 00653    00255 CAL -0 50000 0 00124    00256 STA +0 62100 0 00260
 00257 CAL -0 50000 0 00653    00260 ALS +0 76700 0 00000    00261 SLW +0 60200 0 00653    00262 CAL -0 50000 0 00123
 00263 STA +0 62100 0 00265    00264 CAL -0 50000 0 00113    00265 LGR -0 76500 0 00000    00266 ANA -0 32000 0 00134
 00267 SLW +0 60200 0 00652    00270 TSX +0 07400 4 00001    00271 TXH +3 00000 0 00652    00272 STO +0 60100 0 00652
 00273 CAL -0 50000 0 00652    00274 ANA -0 32000 0 00135    00275 ORA -0 50100 0 00653    00276 ORA -0 50100 0 00654
 00277 SLW +0 60200 0 00115
                 F'N Y                                                              009  LM00015
 00300 CLA +0 50000 0 00115    00301 TRA +0 02000 0 00646
                 ENTRY TO CKDATE.                                                   010  LM00017
 00302 TRA +0 02000 0 00305    00303 SXA +0 63400 2 00633    00304 TSX +0 07400 2 00633
                 X=A                                                                011  LM00019
 00305 CLA +0 50000 0 00024    00306 STO +0 60100 0 00113
                 Y=X.RS.9                                                           012  LM00020
 00307 CAL -0 50000 0 00123    00310 STA +0 62100 0 00312    00311 CAL -0 50000 0 00113    00312 LGR -0 76500 0 00000
 00313 SLW +0 60200 0 00115
                 M=X.RS.5 .A.17K                                                    013  LM00021
 00314 CAL -0 50000 0 00121    00315 STA +0 62100 0 00317    00316 CAL -0 50000 0 00113    00317 LGR -0 76500 0 00000
 00320 ANA -0 32000 0 00125    00321 SLW +0 60200 0 00054
                 D=X.A.37K                                                          014  LM00022
 00322 CAL -0 50000 0 00113    00323 ANA -0 32000 0 00130    00324 SLW +0 60200 0 00030
                 F'N Y.G.99 .OR. Y.L.60 .OR. M.G.12 .OR. M.L.1 .OR.                 015  LM00023
                1    D.G.31 .OR. D.L.1                                              015  LM00024
 00325 CLA +0 50000 0 00030    00326 SUB +0 40200 0 00117    00327 TZE +0 10000 0 00331    00330 TMI -0 12000 0 00357
 00331 CLA +0 50000 0 00030    00332 SUB +0 40200 0 00130    00333 TZE +0 10000 0 00335    00334 TPL +0 12000 0 00357
 00335 CLA +0 50000 0 00054    00336 SUB +0 40200 0 00117    00337 TZE +0 10000 0 00341    00340 TMI -0 12000 0 00357
 00341 CLA +0 50000 0 00054    00342 SUB +0 40200 0 00124    00343 TZE +0 10000 0 00345    00344 TPL +0 12000 0 00357
 00345 CLA +0 50000 0 00115    00346 SUB +0 40200 0 00131    00347 TZE +0 10000 0 00351    00350 TMI -0 12000 0 00357
 00351 CLA +0 50000 0 00115    00352 SUB +0 40200 0 00133    00353 TZE +0 10000 0 00355    00354 TPL +0 12000 0 00357
 00355 PXD -0 75400 0 00000    00356 TRA +0 02000 0 00360    00357 CLA +0 50000 0 00117    00360 TRA +0 02000 0 00646
                 ENTRY TO TRKCV.                                                    016  LM00026
 00361 TRA +0 02000 0 00364    00362 SXA +0 63400 2 00633    00363 TSX +0 07400 2 00633
                 X=A                                                                017  LM00028
 00364 CLA +0 50000 0 00024    00365 STO +0 60100 0 00113
                 Y1=(X+$666666$).A.$++++++$                                         018  LM00029
 00366 CLA +0 50000 0 00113    00367 ADD +0 40000 0 00137    00370 STO +0 60100 0 00654    00371 CAL -0 50000 0 00654
 00372 ANA -0 32000 0 00140    00373 SLW +0 60200 0 00114
                 F'N X .A. .N.(Y1.RS.1) .A. .N.(Y1.RS.3)                            019  LM00030
 00374 CAL -0 50000 0 00120    00375 STA +0 62100 0 00377    00376 CAL -0 50000 0 00114    00377 LGR -0 76500 0 00000
 00400 COM +0 76000 0 00006    00401 SLW +0 60200 0 00654    00402 CAL -0 50000 0 00117    00403 STA +0 62100 0 00405
 00404 CAL -0 50000 0 00114    00405 LGR -0 76500 0 00000    00406 COM +0 76000 0 00006    00407 ANA -0 32000 0 00113
 00410 ANA -0 32000 0 00654    00411 SLW +0 60200 0 00654    00412 CLA +0 50000 0 00654    00413 TRA +0 02000 0 00646
                 ENTRY TO CVTRK.                                                    020  LM00032
 00414 TRA +0 02000 0 00417    00415 SXA +0 63400 2 00633    00416 TSX +0 07400 2 00633
                 X=A                                                                021  LM00034
 00417 CLA +0 50000 0 00024    00420 STO +0 60100 0 00113
                 Y1=(X+373737373737K) .A. $++++++$                                  022  LM00035
 00421 CLA +0 50000 0 00113    00422 ADD +0 40000 0 00142    00423 STO +0 60100 0 00654    00424 CAL -0 50000 0 00654
 00425 ANA -0 32000 0 00140    00426 SLW +0 60200 0 00114
                 F'N X .V. Y1.RS.1 .V. Y1.RS.3                                      023  LM00036
 00427 CAL -0 50000 0 00120    00430 STA +0 62100 0 00432    00431 CAL -0 50000 0 00114    00432 LGR -0 76500 0 00000
 00433 SLW +0 60200 0 00654    00434 CAL -0 50000 0 00117    00435 STA +0 62100 0 00437    00436 CAL -0 50000 0 00114
 00437 LGR -0 76500 0 00000    00440 ORA -0 50100 0 00113    00441 ORA -0 50100 0 00654    00442 SLW +0 60200 0 00654
 00443 CLA +0 50000 0 00654    00444 TRA +0 02000 0 00646
                 ENTRY TO CKTRK.                                                    024  LM00038
 00445 TRA +0 02000 0 00450    00446 SXA +0 63400 2 00633    00447 TSX +0 07400 2 00633
                 X=A                                                                025  LM00040
 00450 CLA +0 50000 0 00024    00451 STO +0 60100 0 00113
                 W'R FIRST                                                          026  LM00041
 00452 NZT -0 52000 0 00035    00453 TRA +0 02000 0 00512
                      T'H DKL,FOR I=LDKM,1,I.G.HDKM                                 027  LM00042
 00454 CLA +0 50000 0 00046    00455 STO +0 60100 0 00044    00456 TRA +0 02000 0 00462    00457 CLA +0 50000 0 00044
 00460 ADD +0 40000 0 00117    00461 STO +0 60100 0 00044    00462 CLA +0 50000 0 00044    00463 SUB +0 40200 0 00041
 00464 TZE +0 10000 0 00466    00465 TPL +0 12000 0 00472
      DKL             TSIZ(I)=NDKT                                                  028  LM00043
 00466 LXA +0 53400 1 00044    00467 CLA +0 50000 0 00055    00470 STO +0 60100 1 00110    00471 TRA +0 02000 0 00457
                      T'H DML, FOR I=LDMM,1,I.G.HDMM                                029  LM00044
 00472 CLA +0 50000 0 00047    00473 STO +0 60100 0 00044    00474 TRA +0 02000 0 00500    00475 CLA +0 50000 0 00044
 00476 ADD +0 40000 0 00117    00477 STO +0 60100 0 00044    00500 CLA +0 50000 0 00044    00501 SUB +0 40200 0 00042
 00502 TZE +0 10000 0 00504    00503 TPL +0 12000 0 00510
      DML             TSIZ(I)=NDMT                                                  030  LM00045
 00504 LXA +0 53400 1 00044    00505 CLA +0 50000 0 00056    00506 STO +0 60100 1 00110    00507 TRA +0 02000 0 00475
                      FIRST=0B                                                      031  LM00046
 00510 CLA +0 50000 0 00116    00511 STO +0 60100 0 00035
                 E'L                                                                032  LM00047
                 W'R (X+373737373737K).A.$++++++$ .NE.0, F'N 1B                     033  LM00048
 00512 CLA +0 50000 0 00113    00513 ADD +0 40000 0 00142    00514 STO +0 60100 0 00654    00515 CAL -0 50000 0 00654
 00516 ANA -0 32000 0 00140    00517 SLW +0 60200 0 00654    00520 CLA +0 50000 0 00654    00521 SUB +0 40200 0 00116
 00522 TZE +0 10000 0 00525    00523 CLA +0 50000 0 00117    00524 TRA +0 02000 0 00646
                 Y1=(X+$666666$).A.$++++++$                                         034  LM00049
 00525 CLA +0 50000 0 00113    00526 ADD +0 40000 0 00137    00527 STO +0 60100 0 00654    00530 CAL -0 50000 0 00654
 00531 ANA -0 32000 0 00140    00532 SLW +0 60200 0 00114
                 Y=X.A. .N.(Y1.RS.1) .A. .N.(Y1.RS.3)                               035  LM00050
 00533 CAL -0 50000 0 00120    00534 STA +0 62100 0 00536    00535 CAL -0 50000 0 00114    00536 LGR -0 76500 0 00000
 00537 COM +0 76000 0 00006    00540 SLW +0 60200 0 00654    00541 CAL -0 50000 0 00117    00542 STA +0 62100 0 00544
 00543 CAL -0 50000 0 00114    00544 LGR -0 76500 0 00000    00545 COM +0 76000 0 00006    00546 ANA -0 32000 0 00113
 00547 ANA -0 32000 0 00654    00550 SLW +0 60200 0 00115
                 R=Y.A.77K                                                          036  LM00051
 00551 CAL -0 50000 0 00115    00552 ANA -0 32000 0 00132    00553 SLW +0 60200 0 00070
                 T=BCDEC.(Y.RS.6 .A. 77777777K)                                     037  LM00052
 00554 CAL -0 50000 0 00122    00555 STA +0 62100 0 00557    00556 CAL -0 50000 0 00115    00557 LGR -0 76500 0 00000
 00560 ANA -0 32000 0 00136    00561 SLW +0 60200 0 00654    00562 TSX +0 07400 4 00000    00563 TXH +3 00000 0 00654
 00564 STO +0 60100 0 00075
                 M=Y.RS.30 .A.77K                                                   038  LM00053
 00565 CAL -0 50000 0 00127    00566 STA +0 62100 0 00570    00567 CAL -0 50000 0 00115    00570 LGR -0 76500 0 00000
 00571 ANA -0 32000 0 00132    00572 SLW +0 60200 0 00054
                 W'R M.L.LDKM.OR.M.G.HDKM .AND. M.L.LDMM .OR. M.G.HDMM, F'N 1B      039  LM00054
 00573 CLA +0 50000 0 00054    00574 SUB +0 40200 0 00042    00575 TZE +0 10000 0 00577    00576 TPL +0 12000 0 00613
 00577 CLA +0 50000 0 00054    00600 SUB +0 40200 0 00047    00601 TZE +0 10000 0 00607    00602 TPL +0 12000 0 00607
 00603 CLA +0 50000 0 00054    00604 SUB +0 40200 0 00041    00605 TZE +0 10000 0 00607    00606 TPL +0 12000 0 00613
 00607 CLA +0 50000 0 00054    00610 SUB +0 40200 0 00046    00611 TZE +0 10000 0 00615    00612 TPL +0 12000 0 00615
 00613 CLA +0 50000 0 00117    00614 TRA +0 02000 0 00646
                 W'R  R.G.1 .OR. T.GE.TSIZ(M), F'N 1B                               040  LM00055
 00615 LXA +0 53400 2 00054    00616 CLA +0 50000 0 00075    00617 SUB +0 40200 2 00110    00620 TZE +0 10000 0 00626
 00621 TPL +0 12000 0 00626    00622 CLA +0 50000 0 00070    00623 SUB +0 40200 0 00117    00624 TZE +0 10000 0 00630
 00625 TMI -0 12000 0 00630    00626 CLA +0 50000 0 00117    00627 TRA +0 02000 0 00646
                 F'N 0B                                                             041  LM00056
 00630 CLA +0 50000 0 00116    00631 TRA +0 02000 0 00646
                 NORMAL MODE IS INTEGER                                             042  LM00057
                 DIMENSION TSIZ(10)                                                 043  LM00058
                 V'S FIRST=1B                                                       044  LM00059
 00035     +0 00000 0 00001
                 INSERT FILE SALEQU                                                 045  LM00060
                 V'S MFDORG=101212121212K                                           046  LM00002
 00052     +1 01212 1 21212
                 V'S LOADER=001212121212K                                           047  LM00003
 00050     +0 01212 1 21212
                 V'S ENTLEN=7                                                       048  LM00004
 00032     +0 00000 0 00007
                 V'S ENTRYL=20                                                      049  LM00005
 00033     +0 00000 0 00024
                 V'S NWPT=432                                                       050  LM00006
 00061     +0 00000 0 00660
                 V'S LDKM=0                                                         051  LM00007
 00046     +0 00000 0 00000
                 V'S HDKM=7                                                         052  LM00008
 00041     +0 00000 0 00007
                 V'S LDMM=8                                                         053  LM00009
 00047     +0 00000 0 00010
                 V'S HDMM=8                                                         054  LM00010
 00042     +0 00000 0 00010
                 V'S NDKT=10000                                                     055  LM00011
 00055     +0 00000 0 23420
                 V'S NDMT=400                                                       056  LM00012
 00056     +0 00000 0 00620
                 V'S NQW=3                                                          057  LM00013
 00060     +0 00000 0 00003
                 V'S PROBN=1                                                        058  LM00014
 00064     +0 00000 0 00001
                 V'S PROGN=2                                                        059  LM00015
 00065     +0 00000 0 00002
                 V'S ALPHA=3                                                        060  LM00016
 00004     +0 00000 0 00003
                 V'S BETA=4                                                         061  LM00017
 00021     +0 00000 0 00004
                 V'S DAYTIM=5                                                       062  LM00018
 00025     +0 00000 0 00005
                 V'S TIME=6                                                         063  LM00019
 00074     +0 00000 0 00006
                 V'S DATELU=7                                                       064  LM00020
 00024     +0 00000 0 00007
                 V'S AUTHOR=8                                                       065  LM00021
 00005     +0 00000 0 00010
                 V'S MODE=9                                                         066  LM00022
 00053     +0 00000 0 00011
                 V'S ILOCK=10                                                       067  LM00023
 00043     +0 00000 0 00012
                 V'S F=11                                                           068  LM00024
 00037     +0 00000 0 00013
                 V'S RCOUNT=12                                                      069  LM00025
 00067     +0 00000 0 00014
                 V'S S=13                                                           070  LM00026
 00072     +0 00000 0 00015
                 V'S W=14                                                           071  LM00027
 00112     +0 00000 0 00016
                 V'S R=15                                                           072  LM00028
 00070     +0 00000 0 00017
                 V'S NORECS=16                                                      073  LM00029
 00057     +0 00000 0 00020
                 V'S P=17                                                           074  LM00030
 00066     +0 00000 0 00021
                 V'S LCOUNT=18                                                      075  LM00031
 00045     +0 00000 0 00022
                 V'S LSTRK=19                                                       076  LM00032
 00051     +0 00000 0 00023
                 V'S FSTRK=20                                                       077  LM00033
 00040     +0 00000 0 00024
                 V'S TEMPMD=1K                                                      078  LM00034
 00073     +0 00000 0 00001
                 V'S PARTER=1K                                                      079  LM00035
 00063     +0 00000 0 00001
                 V'S DISKER=2K                                                      080  LM00036
 00027     +0 00000 0 00002
                 V'S BADBP=4K                                                       081  LM00037
 00007     +0 00000 0 00004
                 V'S BADTR=1K1                                                      082  LM00038
 00020     +0 00000 0 00010
                 V'S BADFP=2K1                                                      083  LM00039
 00010     +0 00000 0 00020
                 V'S BADTN=4K1                                                      084  LM00040
 00017     +0 00000 0 00040
                 V'S UNPTRK=1K2                                                     085  LM00041
 00111     +0 00000 0 00100
                 V'S RUSTRK=2K2                                                     086  LM00042
 00071     +0 00000 0 00200
                 V'S DIRTRN=4K2                                                     087  LM00043
 00026     +0 00000 0 00400
                 V'S DTATRN=1K3                                                     088  LM00044
 00031     +0 00000 0 01000
                 V'S NZITEM=2K3                                                     089  LM00045
 00062     +0 00000 0 02000
                 V'S BADF=4K3                                                       090  LM00046
 00011     +0 00000 0 04000
                 V'S BADLTK=1K4                                                     091  LM00047
 00013     +0 00000 0 10000
                 V'S FATAL=2K4                                                      092  LM00048
 00034     +0 00000 0 20000
                 V'S FORCE=4K4                                                      093  LM00049
 00036     +0 00000 0 40000
                 V'S BADATE=1K5                                                     094  LM00050
 00006     +0 00000 1 00000
                 V'S BADLCT=2K5                                                     095  LM00051
 00012     +0 00000 2 00000
                 V'S BADRCT=4K5                                                     096  LM00052
 00015     +0 00000 4 00000
                 V'S BADTC=1K6                                                      097  LM00053
 00016     +0 00001 0 00000
                 V'S BADP=2K6                                                       098  LM00054
 00014     +0 00002 0 00000
                 V'S BKCOR=4K6                                                      099  LM00055
 00023     +0 00004 0 00000
                 V'S BKBAD=1K7                                                      100  LM00056
 00022     +0 00010 0 00000
                 END OF FUNCTION                                                    101  LM00061
 00632 TSX +0 07400 4 00002    00633 TXH +3 00000 0 00000    00634 SXD -0 63400 1 00633    00635 SXA +0 63400 4 00646
 00636 CLA +0 50000 4 00001    00637 STA +0 62100 0 00146    00640 STA +0 62100 0 00221    00641 STA +0 62100 0 00305
 00642 STA +0 62100 0 00364    00643 STA +0 62100 0 00417    00644 STA +0 62100 0 00450    00645 TRA +0 02000 2 00001
 00646 AXT +0 77400 4 00000    00647 LXA +0 53400 2 00633    00650 LXD -0 53400 1 00633    00651 TRA +0 02000 4 00001


  XPND   BCD 12/14/70 1515.7    1158         00000
1            EXPAND.(ENTRY FROM DISK, EXPANDED ENTRY ONE ITEM PER WORD)                          PAGE 1

                       00004         ENTRY   EXPAND
                       00043         ENTRY   COMBIN
                                     EXTERN  .UNPAK,.PACK
                              *      COMBIN.(PACKED,EXPANDED)
                              *

        TRANSFER VECTOR
      00000  336445472142     .UNPAK
      00001  334721234260     .PACK

            LINKAGE DIRECTOR
      00002  000000000000
      00003  256747214524

      00004  0636 00 4 00036  EXPAND SCA     XRE,4         SAVE IR'S
      00005  0634 00 1 00037         SXA     XRE+1,1
      00006  0634 00 2 00040         SXA     XRE+2,2
      00007  0634 00 3 00041         SXA     XRE+3,3
      00010 -0500 00 4 00002         CAL     2,4           GET VECTOR ADR'S
      00011  0737 00 1 00000         PAC     ,1
      00012 -0500 00 4 00001         CAL     1,4
      00013  0737 00 3 00000         PAC     ,3
      00014  0774 00 2 00022         AXT     NI,2          FOR EACH ITEM
      00015  0500 00 2 00130  EL     CLA     TAB+NI,2      GET CONTROL WORD
      00016  0621 00 0 00023         STA     ESFT          SET NUMBER OF BITS
      00017  0120 00 0 00022         TPL     *+3           IF MINUS
      00020  0560 00 3 77777         LDQ     -1,3          GET NEW WORD
      00021  1 00001 3 00022         TXI     *+1,3,1
      00022 -0754 00 0 00000         ZAC
      00023 -0763 00 0 00000  ESFT   LGL     **
      00024  3 00002 2 00033         TXH     NOTT,2,2
      00025 -0600 00 0 00104         STQ     MQ            IF A TRACK ADR
      00026  0602 00 0 00105         SLW     TEMP
      00027  0100 00 0 00033         TZE     *+4
      00030  0074 00 4 00000         TSX     .UNPAK,4      UNPACK IT
      00031  0 00000 0 00105                 TEMP
      00032  0560 00 0 00104         LDQ     MQ
      00033  0602 00 1 77775  NOTT   SLW     -3,1          STO WORD
      00034  1 00001 1 00035         TXI     *+1,1,1
      00035  2 00001 2 00015         TIX     EL,2,1
      00036 -0774 00 4 00000  XRE    AXC     ,4
      00037  0774 00 1 00000         AXT     ,1
      00040  0774 00 2 00000         AXT     ,2
      00041  0774 00 3 00000         AXT     ,3
      00042  0020 00 4 00001         TRA     1,4
                              *
      00043  0636 00 4 00077  COMBIN SCA     XRC,4         SAVE IR'S
      00044  0634 00 1 00100         SXA     XRC+1,1
      00045  0634 00 2 00101         SXA     XRC+2,2
      00046  0634 00 3 00102         SXA     XRC+3,3
      00047 -0500 00 4 00002         CAL     2,4           GET ADR'S
      00050  0737 00 1 00000         PAC     ,1
      00051  1 00022 1 00052         TXI     *+1,1,NI
      00052 -0500 00 4 00001         CAL     1,4
      00053  0737 00 3 00000         PAC     ,3
      00054  1 00007 3 00055         TXI     *+1,3,7
1            EXPAND.(ENTRY FROM DISK, EXPANDED ENTRY ONE ITEM PER WORD)                          PAGE 2

      00055  0774 00 2 00001         AXT     1,2           BACKWARDS THROUGH ITEMS
      00056 -0500 00 2 00130  CL     CAL     TAB+NI,2      GET CONTROL WORD
      00057  0621 00 0 00067         STA     CSFT          SAVE SHIFT
      00060 -0500 00 1 77776         CAL     -2,1          GET UNPACKED WORD
      00061  3 00002 2 00067         TXH     *+6,2,2
      00062 -0600 00 0 00104         STQ     MQ
      00063  0602 00 0 00105         SLW     TEMP
      00064  0074 00 4 00001         TSX     .PACK,4
      00065  0 00000 0 00105                 TEMP
      00066  0560 00 0 00104         LDQ     MQ
      00067 -0765 00 0 00000  CSFT   LGR     **            ADD TO PACKED WORD
      00070  0500 00 2 00130         CLA     TAB+NI,2      IF MINUS
      00071  0120 00 0 00074         TPL     *+3
      00072 -0600 00 3 00000         STQ     -0,3          STO COMPLETE PACKED WORD
      00073  1 77777 3 00074         TXI     *+1,3,-1
      00074  1 77777 1 00075         TXI     *+1,1,-1
      00075  1 00001 2 00076         TXI     *+1,2,1
      00076 -3 00022 2 00056         TXL     CL,2,NI
      00077 -0774 00 4 00000  XRC    AXC     ,4
      00100  0774 00 1 00000         AXT     ,1
      00101  0774 00 2 00000         AXT     ,2
      00102  0774 00 3 00000         AXT     ,3
      00103  0020 00 4 00001         TRA     1,4
                              *
      00104  0 00000 0 00000  MQ
      00105  0 00000 0 00000  TEMP
      00106 -000000000044     TAB    DEC     -36,-36,-18,18,-18,18,-8,10,3,15
      00107 -000000000044
      00110 -000000000022
      00111 +000000000022
      00112 -000000000022
      00113 +000000000022
      00114 -000000000010
      00115 +000000000012
      00116 +000000000003
      00117 +000000000017
      00120 -000000000001            DEC     -1,1,1,15,3,15,-18,18
      00121 +000000000001
      00122 +000000000001
      00123 +000000000017
      00124 +000000000003
      00125 +000000000017
      00126 -000000000022
      00127 +000000000022
                       00022  NI     SYN     *-TAB
                                     END
1            EXPAND.(ENTRY FROM DISK, EXPANDED ENTRY ONE ITEM PER WORD)                          PAGE 1
                        POST PROCESSOR ASSEMBLY DATA

        130 IS THE FIRST LOCATION NOT USED BY THIS PROGRAM

0REFERENCES TO DEFINED SYMBOLS
         56     CL    76
         15     EL    35
        104     MQ    25,   32,   62,   66
         22     NI    14,   15,   51,   56,   70,   76,  130
        106    TAB    15,   56,   70,  130
         77    XRC    43,   44,   45,   46
         36    XRE     4,    5,    6,    7
         67   CSFT    57
         23   ESFT    16
         33   NOTT    24
        105   TEMP    26,   31,   63,   65
          1  .PACK    64
         43 COMBIN     0
          4 EXPAND     0
          0 .UNPAK    30

0 NO ERROR IN ABOVE ASSEMBLY.


  INDX   BCD 12/14/70 1515.7    1665         00000
1                                                                                                PAGE 1

                       00002         ENTRY   IINDEX
                       00042         ENTRY   INDEX

            LINKAGE DIRECTOR
      00000  000000000000
      00001  313145242567

                       00001  BDISKM EQU     1
                       00006  TDISKM EQU     6
                       00007  BDRUMM EQU     7
                       00007  TDRUMM EQU     7
                              *
                              *      IINDEX  INITIALIZATIONENTRYFORINDEX
                              *      CALLING SEQUENCE
                              *      TSX     IINDEX,4
                              *      PAR     BDISKM
                              *      PAR     TDISKM
                              *      PAR     BDRUMM
                              *      PAR     TDRUMM
                              *
      00002 -0500 60 4 00001  IINDEX CAL*    1,4
      00003  0601 00 0 00106         STO     DSBD
      00004  0767 00 0 00022         ALS     18
      00005  0560 00 0 00053         LDQ     BDISKQ        TRICKS TO MAKE WORK RIGHT
      00006  0402 00 0 00135         SUB     =O1000000
      00007  0120 00 0 00013         TPL     *+4
      00010  0771 00 0 00001         ARS     1             TRICK TO MAKE CASE BDISKM=0 WORK RIGHT
      00011  0765 00 0 00000         LRS     0
      00012  0760 00 0 00006         COM
      00013 -0600 00 0 00053         STQ     BDISKQ
      00014  0622 00 0 00053         STD     BDISKQ
      00015 -0500 60 4 00002         CAL*    2,4
      00016  0767 00 0 00022         ALS     18
      00017  0622 00 0 00055         STD     BDISKR
      00020 -0500 60 4 00003         CAL*    3,4
      00021  0402 00 0 00131         SUB     =1
      00022  0767 00 0 00022         ALS     18
      00023  0622 00 0 00066         STD     DLDRM
      00024  0760 00 0 00006         COM
      00025  0622 00 0 00071         STD     DLDRO
      00026 -0500 60 4 00004         CAL*    4,4
      00027  0767 00 0 00022         ALS     18
      00030  0622 00 0 00070         STD     DLDRN
      00031  0020 00 4 00005         TRA     5,4
                              *
                              *      GBA     GET BIT ADDRESS - TAKES AC AND GETS WORD ADDRESS
                              *              IN XR 1 AND BIT ADDRESS IN XR 2
                              *
      00032  0131 00 0 00000  GBA    XCA
      00033 -0754 00 0 00000         PXD     0,0
      00034  0221 00 0 00133         DVP     =36
      00035  0737 00 2 00000         PAC     0,2           BIT ADDRESS
      00036 -0500 00 0 00136         CAL     =-0
      00037  0771 00 2 00000         ARS     0,2
      00040 -0130 00 0 00000         XCL
      00041  0020 00 4 00001         TRA     1,4
1                                                                                                PAGE 2

                              *
                              *
                              *      INDEX   TAKES TRACKNO AND CALCULATES WORDADR AND A MASK
                              *              WHICH IS 1 BIT CORRECTLY POSITIONED TO MATCH
                              *              THE TRACK USAGE TABLE CONVENTIONS IN TMAN2A
                              *
                              *      THIS ROUTINE ASSUMES ONE BIG TABLE FOR ALL DISKS
                              *              AND ANOTHER FOR ALL DRUMS
                              *
                              *      CALLING SEQUENCE
                              *      TSX     INDEX,4
                              *      PAR     TRACKNO
                              *      PAR     WORDADR
                              *      PAR     MASK
                              *
      00042  0634 00 2 00107  INDEX  SXA     DSX24,2
      00043 -0634 00 4 00107         SXD     DSX24,4
      00044  0560 60 4 00001         LDQ*    1,4           GET ARGUMENT
      00045 -0754 00 0 00000         PXD     0,0
      00046 -0763 00 0 00006         LGL     6
      00047  0340 00 0 00132         CAS     =10
      00050  0020 00 0 00052         TRA     *+2
      00051 -0754 00 0 00000         PXD     0,0
      00052  0734 00 4 00000         PAX     0,4
      00053  3 00000 4 00055  BDISKQ TXH     *+2,4,BDISKM-1  NOTE THIS IS A TXL IF BDISKM=0
      00054  0074 00 4 00110         TSX     DSERR,4       MODULE NUMBER TOO LOW
      00055  3 00006 4 00066  BDISKR TXH     DLDRM,4,TDISKM          NOT ON DISK, DELETE DRUM TRACK
      00056  0402 00 0 00106         SUB     DSBD
      00057  0074 00 4 00112         TSX     DSDEC+1,4     XXX BEWARE SHABBY PROGRAMMING TRICK
      00060  0074 00 4 00032  DLEXT  TSX     GBA,4
      00061  0534 00 2 00107         LXA     DSX24,2
      00062 -0534 00 4 00107         LXD     DSX24,4
      00063  0602 60 4 00002         SLW*    2,4
      00064 -0600 60 4 00003         STQ*    3,4
      00065  0020 00 4 00004         TRA     4,4
                              *
                              *
      00066  3 00006 4 00070  DLDRM  TXH     *+2,4,BDRUMM-1          CHECK IF MODULE NUMBER
      00067  0074 00 4 00110         TSX     DSERR,4       IN PROPER RANGE
      00070  3 00007 4 00067  DLDRN  TXH     *-1,4,TDRUMM
      00071  1 77771 4 00072  DLDRO  TXI     *+1,4,-BDRUMM
      00072  0634 00 4 00105         SXA     DLDRT,4
      00073  0074 00 4 00111         TSX     DSDEC,4       CONVERT NEXT FOR DEC DIGITS TO BIN
      00074  0340 00 0 00134         CAS     =400          CHECK TO SEE IF TOO BIG
      00075  0761 00 0 00000         NOP
      00076  0074 00 4 00110         TSX     DSERR,4
      00077  0560 00 0 00105         LDQ     DLDRT
      00100  0601 00 0 00105         STO     DLDRT
      00101  0200 00 0 00134         MPY     =400
      00102  0131 00 0 00000         XCA
      00103  0400 00 0 00105         ADD     DLDRT         FORM TABLE ADDRESS
      00104  0020 00 0 00060         TRA     DLEXT         SET BIT AND EXIT
                              *
      00105  0 00000 0 00000  DLDRT  PZE                   TEMP STORAGE
      00106  0 00000 0 00001  DSBD   PZE     BDISKM        BOTTOM DISK MOD
      00107  0 00000 0 00000  DSX24  PZE                   INDEX REGISTER STORAGE
1                                                                                                PAGE 3

                              *
      00110  0000 00 0 00110  DSERR  HTR     *             BAD TRACK ADDRESS HANGUP HERE
                              *
      00111 -0754 00 0 00000  DSDEC  PXD     0,0           CONVERT FOUR CHARACTERS FROM DEC TO BIN
      00112  0774 00 2 00004         AXT     4,2
      00113  0767 00 0 00001  DSD11  ALS     1
      00114  0601 00 0 00130         STO     DSDES
      00115  0767 00 0 00002         ALS     2
      00116  0400 00 0 00130         ADD     DSDES
      00117  0601 00 0 00130         STO     DSDES
      00120 -0754 00 0 00000         PXD     0,0
      00121 -0763 00 0 00006         LGL     6
      00122  0340 00 0 00132         CAS     =10
      00123  0020 00 0 00125         TRA     *+2
      00124 -0754 00 0 00000         PXD     0,0
      00125  0400 00 0 00130         ADD     DSDES
      00126  2 00001 2 00113         TIX     DSD11,2,1
      00127  0020 00 4 00001         TRA     1,4
                              *
      00130  0 00000 0 00000  DSDES  PZE                   TEMP STORAGE
                              *
                                     END

        LITERALS
      00131  000000000001
      00132  000000000012
      00133  000000000044
      00134  000000000620
      00135  000001000000
      00136  400000000000
1                                                                                                PAGE 1
                        POST PROCESSOR ASSEMBLY DATA

        137 IS THE FIRST LOCATION NOT USED BY THIS PROGRAM

0REFERENCES TO DEFINED SYMBOLS
         32    GBA    60
        106   DSBD     3,   56
         66  DLDRM    23,   55
         70  DLDRN    30
         71  DLDRO    25
        105  DLDRT    72,   77,  100,  103
         60  DLEXT   104
        113  DSD11   126
        111  DSDEC    57,   73
        130  DSDES   114,  116,  117,  125
        110  DSERR    54,   67,   76
        107  DSX24    42,   43,   61,   62
         42  INDEX     0
          1 BDISKM     2,   53,  106
         53 BDISKQ     5,   13,   14
         55 BDISKR    17
          7 BDRUMM     2,   66,   71
          2 IINDEX     0
          6 TDISKM     2,   55
          7 TDRUMM     2,   70

0 NO ERROR IN ABOVE ASSEMBLY.


  RDIN   BCD 12/14/70 1515.7     432         00000
1                                                                                                PAGE 1
                           WRITE-AROUND FOR TAPE READ ROUTINE

                       00003         ENTRY   RDIN

                                             RDIN.(A(N),N,EOF)
                                                           READS BCD TAPE A2 INTO A(N)...A(1)
                                                           TRANSFERS TO EOF ON END-OF-FILE


        TRANSFER VECTOR
      00000  516324314547     RTDINP

            LINKAGE DIRECTOR
      00001  000000000000
      00002  512431456060

      00003  0634 00 4 00016  RDIN   SXA     XR,4          SAVE RETURN
      00004 -0500 00 4 00001         CAL     1,4           GET BASE OF BUFFER
      00005  0621 00 0 00014         STA     C+1           AND SAVE IT
      00006 -0500 60 4 00002         CAL*    2,4           GET COUNT OF WORDS TO READ
      00007  0767 00 0 00022         ALS     18            PLANT COUNT IN DECREMENT OF CALL
      00010  0622 00 0 00014         STD     C+1           ..
      00011 -0500 00 4 00003         CAL     3,4           GET EOF RETURN
      00012  0621 00 0 00015         STA     C+2           AND SAVE IT FOR POSSIBLE EOF

      00013  0074 00 4 00000  C      TSX     $RTDINP,4     READ TAPE
      00014  3 00000 0 00000         PTH     **,,**        BUFF,,'N'
      00015  3 00000 0 00000         PTH     **            EOF RETURN

      00016  0774 00 4 00000  XR     AXT     ,4            WORDS READ, RETURN TO CALLER
      00017  0020 00 4 00001         TRA     1,4           ..

                                     END
1                                                                                                PAGE 1
                        POST PROCESSOR ASSEMBLY DATA

         20 IS THE FIRST LOCATION NOT USED BY THIS PROGRAM

0REFERENCES TO DEFINED SYMBOLS
         13      C     5,   10,   12
         16     XR     3
          3   RDIN     0
          0 RTDINP    13

0 NO ERROR IN ABOVE ASSEMBLY.


  KEYS   BCD 12/14/70 1515.7     823         00000
1                                                                                                PAGE 1

                       00003         ENTRY   KEYS          KEYS=KEYS.
                       00006         ENTRY   SW            1B=SW.(I)
                       00054         ENTRY   EVSW          ..

        TRANSFER VECTOR
      00000  444751314563     MPRINT

            LINKAGE DIRECTOR
      00001  000000000000
      00002  422570626060

      00003  0760 00 0 00004  KEYS   ENK
      00004  0131 00 0 00000         XCA
      00005  0020 00 4 00001         TRA     1,4
                              *
      00006  0636 00 4 00041  SW     SCA     XR,4          SAVE
      00007 -0500 60 4 00001         CAL*    1,4           GET SWITCH NUMBER
      00010  0737 00 4 00000         PAC     ,4
      00011 -0754 00 0 00000         ZAC
      00012 -3 77771 4 00041         TXL     XR,4,-7       TRA IF BAD NUMBER
      00013  0522 00 4 00065         XEC     TEST,4        EXECUTE SWT
      00014  0020 00 0 00016         TRA     *+2           TRA IF DOWN
      00015 -0500 00 0 00074         CAL     =1
      00016  0602 00 0 00043         SLW     TEMP
      00017 -0340 00 4 00045         LAS     LSW,4         CHECK FOR CHANGE
      00020  0020 00 0 00022         TRA     *+2           CHANGE
      00021  0020 00 0 00036         TRA     OK
      00022  0602 00 4 00045         SLW     LSW,4
      00023  0774 00 4 00006         AXT     6,4           PRINT SWITCHES
      00024 -0754 00 0 00000         ZAC
      00025  0767 00 0 00006         ALS     6             PACK TO ONE WORD
      00026 -0501 00 4 00054         ORA     LSW+7,4
      00027  2 00001 4 00025         TIX     *-2,4,1
      00030  0602 00 0 00044         SLW     PSW
      00031  0074 00 4 00000         TSX     $MPRINT,4
 TD   00032  3 00000 0 00074         TXH     =1
 TD   00033  3 00000 0 00075         TXH     =H0SWS=
 TD   00034  3 00000 0 00044         TXH     PSW
      00035 -0500 00 0 00043         CAL     TEMP
      00036  0767 00 4 00000  OK     ALS     0,4           SET EVER (ALL SWITCHES
      00037 -0602 00 0 00064         ORS     EVER          WHICH HAVE EVER BEEN DOWN)
      00040 -0500 00 0 00043         CAL     TEMP
      00041 -0774 00 4 00000  XR     AXC     ,4
      00042  0020 00 4 00001         TRA     1,4
      00043  0 00000 0 00000  TEMP
      00044  0 00000 0 00000  PSW
      00045                   LSW    BSS     7
                              *
      00054  0636 00 4 00062  EVSW   SCA     XRE,4         SAVE
      00055 -0500 60 4 00001         CAL*    1,4           GET SWITCH NUMBER
      00056  0737 00 4 00000         PAC     ,4
      00057 -0500 00 0 00064         CAL     EVER          GET EVER WORD
      00060  0771 00 4 00000         ARS     0,4
      00061 -0320 00 0 00074         ANA     =1
      00062 -0774 00 4 00000  XRE    AXC     ,4
      00063  0020 00 4 00001         TRA     1,4
1                                                                                                PAGE 2

      00064  0 00000 0 00000  EVER
      00065  0020 00 0 00041  TEST   TRA     XR
                       00066         DUP     1,6
      00066  0760 00 0 00161         SWT     *-TEST
      00067  0760 00 0 00162
      00070  0760 00 0 00163
      00071  0760 00 0 00164
      00072  0760 00 0 00165
      00073  0760 00 0 00166
                                     END

        LITERALS
      00074  000000000001
      00075  006266621360
1                                                                                                PAGE 1
                        POST PROCESSOR ASSEMBLY DATA

         76 IS THE FIRST LOCATION NOT USED BY THIS PROGRAM

0REFERENCES TO DEFINED SYMBOLS
         36     OK    21
          6     SW     0
         41     XR     6,   12,   65
         45    LSW    17,   22,   26
         44    PSW    30,   34
         62    XRE    54
         64   EVER    37,   57
         54   EVSW     0
          3   KEYS     0
         43   TEMP    16,   35,   40
         65   TEST    13,   66,   67,   70,   71,   72,   73
          0 MPRINT    31

0 NO ERROR IN ABOVE ASSEMBLY.


  STOP   BCD 12/14/70 1515.7     179         00000
1                                                                                                PAGE 1

                       00002         ENTRY   STOP

            LINKAGE DIRECTOR
      00000  000000000000
      00001  626346476060

      00002  0636 00 4 00004  STOP   SCA     XR,4
      00003  0000 00 0 00004         HTR     *+1
      00004 -0774 00 4 00000  XR     AXC     ,4
      00005  0020 00 4 00001         TRA     1,4
                                     END
1                                                                                                PAGE 1
                        POST PROCESSOR ASSEMBLY DATA

          6 IS THE FIRST LOCATION NOT USED BY THIS PROGRAM

0REFERENCES TO DEFINED SYMBOLS
          4     XR     2
          2   STOP     0

0 NO ERROR IN ABOVE ASSEMBLY.


  DIOI   BCD 12/14/70 1515.7    1109         00000
1                                  ERRCD=1                                                       PAGE 1

                       00011         ENTRY   DINIT         DINIT.
                       00020         ENTRY   DREAD         DREAD.(TRACK ADR,BUF,BAD ADR RET)
                       00023         ENTRY   DWRIT         AS ABOVE
                       00757         ENTRY   DWAIT         DWAIT.(ERRLOC,ERRCD)
                              *
                                     EXTERN  .DINIT,.DREAD,.DWRIT,.DWAIT,.SETER,ENABLE
                              *

        TRANSFER VECTOR
      00000  332431453163     .DINIT
      00001  332451252124     .DREAD
      00002  332466513163     .DWRIT
      00003  332466213163     .DWAIT
      00004  336225632551     .SETER
      00005  254521224325     ENABLE
      00006  232464444760     CDUMP

            LINKAGE DIRECTOR
      00007  000000000000
      00010  243145316360

      00011  0636 00 4 00016  DINIT  SCA     XRI,4         SAVE IR
      00012  0074 00 4 00000         TSX     .DINIT,4
      00013  0 00000 0 00005                 ENABLE
      00014  0074 00 4 00004         TSX     .SETER,4      SET ERR RETURN
      00015  0 00000 0 00763                 ERRPRG
      00016 -0774 00 4 00000  XRI    AXC     ,4
      00017  0020 00 4 00001         TRA     1,4
                              *
      00020 -0500 00 0 00001  DREAD  CAL     .DREAD
      00021  0600 00 0 00070         STZ     WT
      00022  0020 00 0 00025         TRA     RW
      00023 -0500 00 0 00002  DWRIT  CAL     .DWRIT
      00024 -0625 00 0 00070         STL     WT
      00025  0621 00 0 00056  RW     STA     RWA
      00026  0636 00 4 00061         SCA     XR,4
      00027 -0500 60 4 00001         CAL*    1,4           GET TRACK
      00030  0601 00 0 00065         STO     LIST
      00031  0601 00 0 00071         STO     LIST1
      00032 -0500 00 4 00002         CAL     2,4           GET ADR OF BUF
      00033  0621 00 0 00066         STA     LIST+1
      00034 -0520 00 0 00070         NZT     WT
      00035  0020 00 0 00056         TRA     RWA
      00036  0760 00 0 00166         SWT     6
      00037  0020 00 0 00041         TRA     *+2
      00040  0020 00 0 00053         TRA     ON
      00041  0074 00 4 00001         TSX     .DREAD,4
      00042  0 00000 0 00071                 LIST1
      00043  0 00000 0 00063                 BADADR
      00044  0074 00 4 00003         TSX     .DWAIT,4
      00045 -0500 00 0 00066         CAL     LIST+1
      00046  0621 00 0 00052         STA     P
      00047  0074 00 4 00006         TSX     $CDUMP,4
 TD   00050  3 00000 0 00065         TXH     LIST
 TD   00051  3 00000 0 00074         TXH     TEMPB
 TD   00052  3 00000 0 00000  P      TXH     **
1                                  ERRCD=1                                                       PAGE 2

                       00053  ON     SYN     *
      00053  0760 00 0 00163         SWT     3
      00054  0020 00 0 00056         TRA     *+2
      00055  0020 00 0 00061         TRA     XR
      00056  0074 00 4 00000  RWA    TSX     **,4
      00057  0 00000 0 00065                 LIST
      00060  0 00000 0 00063                 BADADR
      00061 -0774 00 4 00000  XR     AXC     ,4
      00062  0020 00 4 00001         TRA     1,4
                              *
      00063  0535 00 4 00061  BADADR LAC     XR,4
      00064  0020 60 4 00003         TRA*    3,4
                              *
      00065  0 00000 0 00000  LIST   PZE                   TRACK ADR
      00066  2 00663 0 00000         PTW     **,,435
      00067  0 00000 0 00000         PZE
                              *
      00070  0 00000 0 00000  WT
      00071  0 00000 0 00000  LIST1  PZE
      00072  2 00663 0 00074         PTW     TEMPB,,435
      00073  0 00000 0 00000         PZE
      00074                   TEMPB  BSS     435
                              *
      00757  0636 00 4 00761  DWAIT  SCA     XRW,4         SAVE IR
      00760  0074 00 4 00003         TSX     .DWAIT,4      WAIT
      00761 -0774 00 4 00000  XRW    AXC     ,4
      00762  0020 00 4 00001         TRA     1,4
                              *
      00763  0535 00 4 00761  ERRPRG LAC     XRW,4         IF ERROR
      00764 -0340 00 0 00771         LAS     =1            (IGNORE PARITY)
      00765  0020 00 0 00767         TRA     *+2
      00766  0020 00 4 00001         TRA     1,4
      00767  0602 60 4 00002         SLW*    2,4
      00770  0020 60 4 00001         TRA*    1,4           SET ERCODE AND TRA
                                     END

        LITERALS
      00771  000000000001
1                                  ERRCD=1                                                       PAGE 1
                        POST PROCESSOR ASSEMBLY DATA

        772 IS THE FIRST LOCATION NOT USED BY THIS PROGRAM

0REFERENCES TO DEFINED SYMBOLS
         52      P    46
         53     ON    40,   53
         25     RW    22
         70     WT    21,   24,   34
         61     XR    26,   55,   63
         56    RWA    25,   35
         16    XRI    11
        761    XRW   757,  763
         65   LIST    30,   33,   45,   50,   57
          6  CDUMP    47
         11  DINIT     0
         20  DREAD     0
        757  DWAIT     0
         23  DWRIT     0
         71  LIST1    31,   42
         74  TEMPB    51,   72
         63 BADADR    43,   60
          5 ENABLE    13
        763 ERRPRG    15
          0 .DINIT    12
          1 .DREAD    20,   41
          3 .DWAIT    44,  760
          2 .DWRIT    23
          4 .SETER    14

0 NO ERROR IN ABOVE ASSEMBLY.


  CDMP   BCD 12/14/70 1515.7    1252         00000
1     MAD PROGRAM LISTING ... ... ...                 FILE    CDMP   MAD            05/27/67    1400.8
-
                   EXTERNAL FUNCTION (T,OLD,NEW)                                                  *001 LM00001
                  ENTRY TO CDUMP.                                                                 *002 LM00002
                  MPRINT.(1,7777777777K,TRKCV.(T))                                                *003 LM00003
                  THROUGH CL, FOR I=0,1,I.E.435                                                   *004 LM00004
                  OLDW=OLD(1K5-I)                                                                 *005 LM00005
                  NEWW=NEW(1K5-I)                                                                 *006 LM00006
                  WHENEVER OLDW.NE.NEWW,MPRINT.(1,DEFBC.(I+1),SP,                                 *007 LM00007
                1  OCLBC.(OLDW),OCRBC.(OLDW),SP,                                                  *007 LM00008
                2  OCLBC.(NEWW),OCRBC.(NEWW))                                                     *007 LM00009
      CL          CONTINUE                                                                        *008 LM00010
                  FUNCTION RETURN                                                                 *009 LM00011
                  VECTOR VALUES SP=607777777777K                                                  *010 LM00012
                  NORMAL MODE IS INTEGER                                                          *011 LM00013
                  END OF FUNCTION                                                                 *012 LM00014
1MAD PROGRAM,TYPE NOV 1963      (ALL NUMBERS ARE OCTAL)
0TOTAL LOCATIONS   00144 TRANSFER VECTOR LENGTH  00006 PROGRAM BEGINS    00021
0 PROGRAM IS AN EXTERNAL FUNCTION.   THE FOLLOWING ARE ENTRIES
      CDUMP  00022   0
0VARIABLE STORAGE (A=ARRAY,C=COMMON,E=ERASABLE,DIGIT=MODE)
      CL     00006   4        I      00007   1        NEWW   00010   1        OLDW   00011   1        SP     00012 A 1
0FUNCTION DICTIONARY
      DEFBC  00000   1        EXIT   00001   1        MPRINT 00002   1        OCLBC  00003   1        OCRBC  00004   1
      TRKCV  00005   1
0ABSOLUTE CONSTANTS
 00016 +000000100000     00015 +000000000663     00013 +000000000000     00017 +007777777777     00014 +000000000001
 00020 +233000000000
0PROGRAM
                  EXTERNAL FUNCTION (T,OLD,NEW)                                     001  LM00001
                 ENTRY TO CDUMP.                                                    002  LM00002
 00021 TRA +0 02000 0 00024    00022 SXA +0 63400 2 00117    00023 TSX +0 07400 2 00117
                 MPRINT.(1,7777777777K,TRKCV.(T))                                   003  LM00003
 00024 TSX +0 07400 4 00005    00025 TXH +3 00000 0 00024    00026 STO +0 60100 0 00135    00027 TSX +0 07400 4 00002
 00030 TXH +3 00000 0 00014    00031 TXH +3 00000 0 00017    00032 TXH +3 00000 0 00135
                 T'H CL, FOR I=0,1,I.E.435                                          004  LM00004
 00033 CLA +0 50000 0 00013    00034 STO +0 60100 0 00007    00035 TRA +0 02000 0 00041    00036 CLA +0 50000 0 00007
 00037 ADD +0 40000 0 00014    00040 STO +0 60100 0 00007    00041 CLA +0 50000 0 00007    00042 SUB +0 40200 0 00015
 00043 TZE +0 10000 0 00115
                 OLDW=OLD(1K5-I)                                                    005  LM00005
 00044 CLA +0 50000 0 00016    00045 SUB +0 40200 0 00007    00046 PAX +0 73400 2 00000    00047 CLA +0 50000 2 00024
 00050 STO +0 60100 0 00011
                 NEWW=NEW(1K5-I)                                                    006  LM00006
 00051 CLA +0 50000 0 00016    00052 SUB +0 40200 0 00007    00053 PAX +0 73400 2 00000    00054 CLA +0 50000 2 00024
 00055 STO +0 60100 0 00010
                 W'R OLDW.NE.NEWW,MPRINT.(1,DEFBC.(I+1),SP,                         007  LM00007
                1 OCLBC.(OLDW),OCRBC.(OLDW),SP,                                     007  LM00008
                2 OCLBC.(NEWW),OCRBC.(NEWW))                                        007  LM00009
 00056 CLA +0 50000 0 00011    00057 SUB +0 40200 0 00010    00060 TZE +0 10000 0 00114    00061 TSX +0 07400 4 00004
 00062 TXH +3 00000 0 00010    00063 STO +0 60100 0 00135    00064 TSX +0 07400 4 00003    00065 TXH +3 00000 0 00010
 00066 STO +0 60100 0 00136    00067 TSX +0 07400 4 00004    00070 TXH +3 00000 0 00011    00071 STO +0 60100 0 00137
 00072 TSX +0 07400 4 00003    00073 TXH +3 00000 0 00011    00074 STO +0 60100 0 00140    00075 CLA +0 50000 0 00007
 00076 ADD +0 40000 0 00014    00077 STO +0 60100 0 00141    00100 TSX +0 07400 4 00000    00101 TXH +3 00000 0 00141
 00102 STO +0 60100 0 00141    00103 TSX +0 07400 4 00002    00104 TXH +3 00000 0 00014    00105 TXH +3 00000 0 00141
 00106 TXH +3 00000 0 00012    00107 TXH +3 00000 0 00140    00110 TXH +3 00000 0 00137    00111 TXH +3 00000 0 00012
 00112 TXH +3 00000 0 00136    00113 TXH +3 00000 0 00135
      CL         CONTINUE                                                           008  LM00010
 00114 TRA +0 02000 0 00036
                 FUNCTION RETURN                                                    009  LM00011
 00115 TRA +0 02000 0 00131
                 V'S SP=607777777777K                                               010  LM00012
 00012     -2 07777 7 77777
                 NORMAL MODE IS INTEGER                                             011  LM00013
                 END OF FUNCTION                                                    012  LM00014
 00116 TSX +0 07400 4 00001    00117 TXH +3 00000 0 00000    00120 SXD -0 63400 1 00117    00121 SXA +0 63400 4 00131
 00122 CLA +0 50000 4 00001    00123 STO +0 60100 0 00025    00124 CLA +0 50000 4 00002    00125 STA +0 62100 0 00047
 00126 CLA +0 50000 4 00003    00127 STA +0 62100 0 00054    00130 TRA +0 02000 2 00001    00131 AXT +0 77400 4 00000
 00132 LXA +0 53400 2 00117    00133 LXD -0 53400 1 00117    00134 TRA +0 02000 4 00001


  MPRT   BCD 12/14/70 1515.7    1400         00000
1            EXECUTE MPRINT.(MODE,A(1)...A(10),A(10)...A(1),X,B)                                 PAGE 1

                       00004         ENTRY   MPRINT
                                     EXTERN  EPRINT,WTDOUT
                              *      MODE=1 OFFLINE
                              *      MODE=2 ONLINE
                              *      MODE=3 ONLINE AND OFFLINE
                              *      57K ARE IGNORED
                              *      ALWAYS PRINTS ONLINE IF SW5 IS DOWN
                              *

        TRANSFER VECTOR
      00000  254751314563     EPRINT
      00001  666324466463     WTDOUT

            LINKAGE DIRECTOR
      00002  000000000000
      00003  444751314563

      00004  0636 00 4 00111  MPRINT SCA     XR,4          SAVE IR'S
      00005  0760 00 0 00016         LMTM
      00006  0634 00 1 00112         SXA     XR+1,1
      00007  0634 00 2 00113         SXA     XR+2,2
      00010  0634 00 3 00114         SXA     XR+3,3
      00011  0774 00 1 00000         AXT     0,1
      00012  0774 00 2 00024         AXT     20,2
      00013 -0500 00 0 00174         CAL     =O7
      00014  0602 00 0 00146         SLW     AC
      00015 -0500 60 4 00001         CAL*    1,4
      00016  0621 00 0 00145         STA     MODE
      00017  0140 00 0 00017  LOOP   TOV     *
      00020  2 10000 1 00057         TIX     P1,1,1*4096
      00021  0520 00 0 00147         ZET     UP
      00022  1 77777 3 00024         TXI     *+2,3,-1
      00023  1 00001 3 00024         TXI     *+1,3,1
      00024  2 00001 1 00055         TIX     P2,1,1
      00025  1 77777 4 00026         TXI     *+1,4,-1
      00026 -0500 00 4 00001         CAL     1,4
      00027 -0320 00 0 00202         ANA     =O700000000000
      00030  0322 00 0 00200         ERA     =O200000000000
      00031  0100 00 0 00041         TZE     TWO
      00032  0322 00 0 00177         ERA     =O100000000000
      00033  0100 00 0 00035         TZE     THR
      00034  0020 00 0 00074         TRA     OUT
      00035 -0500 00 4 00001  THR    CAL     1,4
      00036  0737 00 3 00000         PAC     ,3
      00037  0774 00 1 00001         AXT     1,1
      00040  0020 00 0 00055         TRA     P2
      00041  0560 00 4 00001  TWO    LDQ     1,4
      00042 -0773 00 0 00022         RQL     18
      00043 -0600 00 0 00144         STQ     TEMP
      00044 -0500 00 4 00001         CAL     1,4
      00045  0737 00 3 00000         PAC     ,3
      00046 -0320 00 0 00176         ANA     =O077777077777
      00047  0402 00 0 00144         SUB     TEMP
      00050 -0734 00 1 00000         PDX     ,1
      00051  1 00001 1 00052         TXI     *+1,1,1
      00052  0600 00 0 00147         STZ     UP
1            EXECUTE MPRINT.(MODE,A(1)...A(10),A(10)...A(1),X,B)                                 PAGE 2

      00053 -0120 00 0 00055         TMI     *+2
      00054 -0625 00 0 00147         STL     UP
      00055  0560 00 3 00000  P2     LDQ     0,3
      00056  1 50000 1 00057         TXI     *+1,1,5*4096
      00057 -0500 00 0 00146  P1     CAL     AC
      00060 -0763 00 0 00006         LGL     6
      00061  0044 00 0 00000         PAI
      00062  0322 00 0 00175         ERA     =O77
      00063 -0320 00 0 00175         ANA     =O77
      00064  0100 00 0 00017         TZE     LOOP
      00065  0604 00 0 00146         STI     AC
      00066 -0140 00 0 00017         TNO     LOOP
      00067  0604 00 2 00174         STI     BUF+20,2
      00070 -0500 00 0 00174         CAL     =O7
      00071  0602 00 0 00146         SLW     AC
      00072  2 00001 2 00017         TIX     LOOP,2,1
      00073  0020 00 0 00101         TRA     WT
      00074  0560 00 0 00201  OUT    LDQ     =H
      00075 -0500 00 0 00146         CAL     AC
      00076 -0763 00 0 00006         LGL     6
      00077 -0140 00 0 00076         TNO     *-1
      00100  0602 00 2 00174         SLW     BUF+20,2
      00101  1 77777 2 00102  WT     TXI     *+1,2,-1
      00102  0754 00 2 00000         PXA     ,2
      00103  0737 00 2 00000         PAC     ,2
      00104  1 00024 2 00105         TXI     *+1,2,20
      00105 -0634 00 2 00116         SXD     IOCD,2
      00106  0074 00 4 00117         TSX     OUTPUT,4
      00107  0 00000 0 00145                 MODE
      00110  0 00000 0 00116                 IOCD
      00111 -0774 00 4 00000  XR     AXC     ,4
      00112  0774 00 1 00000         AXT     ,1
      00113  0774 00 2 00000         AXT     ,2
      00114  0774 00 3 00000         AXT     ,3
      00115  0020 00 4 00001         TRA     1,4
      00116  0 00000 0 00150  IOCD   IOCD    BUF,,**
                              *
      00117  0636 00 4 00142  OUTPUT SCA     XRO,4
      00120  0441 60 4 00001         LDI*    1,4
      00121 -0500 60 4 00002         CAL*    2,4
      00122  0602 00 0 00141         SLW     PAR
      00123  0602 00 0 00135         SLW     PAR1
      00124  0054 00  000003         RFT     3
      00125  0020 00 0 00127         TRA     *+2
      00126  0055 00  000001         SIR     1
      00127  0760 00 0 00165         SWT     5
      00130  0020 00 0 00132         TRA     *+2
      00131  0055 00  000002         SIR     2
      00132  0056 00  000001         RNT     1
      00133  0020 00 0 00136         TRA     P3
      00134  0074 00 4 00001         TSX     WTDOUT,4
      00135  0 00000 0 00000  PAR1
      00136  0056 00  000002  P3     RNT     2
      00137  0020 00 0 00142         TRA     XRO
      00140  0074 00 4 00000         TSX     EPRINT,4
      00141  0 00000 0 00000  PAR
1            EXECUTE MPRINT.(MODE,A(1)...A(10),A(10)...A(1),X,B)                                 PAGE 3

      00142 -0774 00 4 00000  XRO    AXC     ,4
      00143  0020 00 4 00003         TRA     3,4
      00144  0 00000 0 00000  TEMP
      00145  0 00000 0 00000  MODE
      00146  0 00000 0 00000  AC
      00147  0 00000 0 00000  UP
      00150                   BUF    BSS     20
                                     END

        LITERALS
      00174  000000000007
      00175  000000000077
      00176  077777077777
      00177  100000000000
      00200  200000000000
      00201  606060606060
      00202  700000000000
1            EXECUTE MPRINT.(MODE,A(1)...A(10),A(10)...A(1),X,B)                                 PAGE 1
                        POST PROCESSOR ASSEMBLY DATA

        203 IS THE FIRST LOCATION NOT USED BY THIS PROGRAM

0REFERENCES TO DEFINED SYMBOLS
        146     AC    14,   57,   65,   71,   75
         57     P1    20
         55     P2    24,   40
        136     P3   133
        147     UP    21,   52,   54
        101     WT    73
        111     XR     4,    6,    7,   10
        150    BUF    67,  100,  116
         74    OUT    34
        141    PAR   122
         35    THR    33
         41    TWO    31
        142    XRO   117,  137
        116   IOCD   105,  110
         17   LOOP    64,   66,   72
        145   MODE    16,  107
        135   PAR1   123
        144   TEMP    43,   47
          0 EPRINT   140
          4 MPRINT     0
        117 OUTPUT   106
          1 WTDOUT   134

0 NO ERROR IN ABOVE ASSEMBLY.


  SETP   BCD 12/14/70 1515.8     231         00000
1                                                                                                PAGE 1

                       00002         ENTRY   .SETUP

            LINKAGE DIRECTOR
      00000  000000000000
      00001  336225636447

      00002  0636 00 4 00007  .SETUP SCA     XR,4
      00003 -0500 00 0 00011         CAL     TRA
      00004  0602 00 0 00000         SLW     0
      00005  0000 00 0 00006         HTR     *+1
      00006  0760 00 0 00016  RS     LMTM
      00007 -0774 00 4 00000  XR     AXC     ,4
      00010  0020 00 4 00001         TRA     1,4
                              *
      00011  0020 00 0 00006  TRA    TRA     RS
                                     END
1                                                                                                PAGE 1
                        POST PROCESSOR ASSEMBLY DATA

         12 IS THE FIRST LOCATION NOT USED BY THIS PROGRAM

0REFERENCES TO DEFINED SYMBOLS
          6     RS    11
          7     XR     2
         11    TRA     3
          2 .SETUP     0

0 NO ERROR IN ABOVE ASSEMBLY.


  .RST   BCD 12/14/70 1515.8     228         00000
1            FOR SINGLE SAVE RESTOR RETURN (MAD)                                                 PAGE 1

                       00002         ENTRY   .RSTRN
                       00005         ENTRY   .SAVRN

            LINKAGE DIRECTOR
      00000  000000000000
      00001  335162635145

      00002 -0500 00 0 00010  .RSTRN CAL     TEMP
      00003  0602 60 4 00001         SLW*    1,4
      00004  0020 00 4 00003         TRA     3,4
                              *
      00005 -0500 60 4 00001  .SAVRN CAL*    1,4
      00006  0602 00 0 00010         SLW     TEMP
      00007  0020 00 4 00003         TRA     3,4
      00010  0 00000 0 00000  TEMP
                                     END
1            FOR SINGLE SAVE RESTOR RETURN (MAD)                                                 PAGE 1
                        POST PROCESSOR ASSEMBLY DATA

         11 IS THE FIRST LOCATION NOT USED BY THIS PROGRAM

0REFERENCES TO DEFINED SYMBOLS
         10   TEMP     2,    6
          2 .RSTRN     0
          5 .SAVRN     0

0 NO ERROR IN ABOVE ASSEMBLY.


  LIBE   BCD 12/14/70 1515.8      46         00000
LINK TSLIB1 BSS M1416 CMFL02__
EXTBSS TSLIB1 BCDEC_____
EXTBSS TSLIB1 BZEL
EXTBSS TSLIB1 DEFBC_____
EXTBSS TSLIB1 OCABC_____
UNLINK TSLIB1 BSS_
COMBIN * LIBE BSS BCDEC BZEL DEFBC OCABC__
DELETE BCDEC BSS BZEL BSS DEFBC BSS OCABC BSS___


STAT4A   BCD 12/14/70 1520.6   80005         00000


 STAT4   BCD 12/14/70 1517.5    9602         00000
1     MAD PROGRAM LISTING ... ... ...                 FILE    STAT   MAD            11/05/70    1932.8
-
                  DINIT.                                                                          *001 LM00001
                  RSTUT.(2)                                                                       *002 LM00002
                  RDTUT.(1)                                                                       *003 LM00003
                  SRHMFD.(1,MREL,MFD,$M.F.D.$,$(FILE)$,NOTFND)                                    *004 LM00004
                  OPEN.(1,MFD)                                                                    *005 LM00005
                  MREL=NQW+1                                                                      *006 LM00006
                  UFD(PROBN)=MFD(ALPHA)                                                           *007 LM00007
                  UFD(PROGN)=MFD(BETA)                                                            *008 LM00008
      MLOOP       READ.(1,MREL,MEOF,ERCD,MEOF,ENT,ENTLEN)                                         *009 LM00009
                  EXPAND.(ENT,UFD)                                                                *010 LM00010
                  WHENEVER UFD(ALPHA).V.UFD(BETA).E.0, TRANSFER TO EMLOOP                         *011 LM00011
                  MPRINT.(1,$1 SLOT      NAME    CREATED HR   USED AUTHOR MODE                    *012 LM00012
                1 ILOK F RCT S W R  RECS P LCT   LAST  FIRST$)                                    *012 LM00013
                  PTENT.(UFD,MREL)                                                                *013 LM00014
                  WHENEVER UFD(BETA).E.$(FILE)$, TRANSFER TO EMLOOP                               *014 LM00015
                  OPEN.(2,UFD)                                                                    *015 LM00016
                  UREL=NQW+1                                                                      *016 LM00017
                  READ.(2,1,UEOF,ERCD,UEOF,ENT,NQW)                                               *017 LM00018
                  MPRINT.(1,$     QUOTA-USED$)                                                    *018 LM00019
                  THROUGH HPL, FOR I=1,1,I.G.NQW                                                  *019 LM00020
      HPL         MPRINT.(1,SP,BZEL.(DERBC.(ENT(I))),SP,BZEL.(DELBC.(ENT(I))))                    *020 LM00021
      ULOOP       READ.(2,UREL,UEOF,ERCD,UEOF,ENT,ENTLEN)                                         *021 LM00022
                  EXPAND.(ENT,FILE)                                                               *022 LM00023
                  WHENEVER FILE(ALPHA).V.FILE(BETA).E.0, TRANSFER TO EULOOP                       *023 LM00024
                  PTENT.(FILE,UREL)                                                               *024 LM00025
      EULOOP      UREL=UREL+ENTLEN                                                                *025 LM00026
                  TRANSFER TO ULOOP                                                               *026 LM00027
      UEOF        CLOSE.(2,UFD,UEOF,ERCD,ERCD)                                                    *027 LM00028
      EMLOOP      MREL=MREL+ENTLEN                                                                *028 LM00029
                  TRANSFER TO MLOOP                                                               *029 LM00030
      MEOF        CLOSE.(1,MFD,MEOF,ERCD,ERCD)                                                    *030 LM00031
      NOTFND      EXIT.                                                                           *031 LM00032
                                                                                                       LM00033
                  INTERNAL FUNCTION (A,B)                                                         *032 LM00034
                  ENTRY TO PTENT.                                                                 *033 LM00035
                  WHENEVER A(F).NE.0                                                              *034 LM00036
                  MPRINT.(MOD,BZEL.(DEFBC.(1+(B-NQW-1)/ENTLEN)),                                  *035 LM00037
                2  SP,A(ALPHA),                                                                   *035 LM00038
                3  SP,A(BETA),                                                                    *035 LM00039
                4  SP,DATECV.(A(DAYTIM)),                                                         *035 LM00040
                5  DEFBC.(A(TIME)/3600).V.77777760K4,                                             *035 LM00041
                6  SP,DATECV.(A(DATELU)),                                                         *035 LM00042
                7  SP,DEFBC.(A(AUTHOR)),                                                          *035 LM00043
                8  OCABC.(A(MODE)).V.7760K8,                                                      *035 LM00044
                9  OCABC.(A(ILOCK)).V.7760K8,                                                     *035 LM00045
                1  A(F).V.7777777760K2,                                                           *035 LM00046
                2  DEFBC.(A(RCOUNT)).V.777760K6,                                                  *035 LM00047
                3  A(S).V.7777777760K2,                                                           *035 LM00048
                4  A(W).V.7777777760K2,                                                           *035 LM00049
                5  A(R).V.7777777760K2,                                                           *035 LM00050
                6  BZEL.(DEFBC.(A(NORECS))),                                                      *035 LM00051
                7  A(P).V.7777777760K2,                                                           *035 LM00052
                8  DEFBC.(A(LCOUNT)).V.777760K6,                                                  *035 LM00053
                9  SP,TRKCV.(A(LSTRK)),                                                           *035 LM00054
                1  SP,TRKCV.(A(FSTRK)))                                                           *035 LM00055
                  OTHERWISE                                                                       *036 LM00056
                  COMBIN.(T,A)                                                                    *037 LM00057
                  MPRINT.(MOD,BZEL.(DEFBC.(1+(B-NQW-1)/ENTLEN)),                                  *038 LM00058
                2  SP,A(ALPHA),                                                                   *038 LM00059
                3  SP,A(BETA),                                                                    *038 LM00060
                4   SP,T(3),SP,SP,SP,                                                             *038 LM00061
                6   SP,T(4),SP,$$,                                                                *038 LM00062
                8  OCABC.(A(MODE)).V.7760K8,                                                      *038 LM00063
                9  OCABC.(A(ILOCK)).V.7760K8,                                                     *038 LM00064
                1  A(F).V.7777777760K2,                                                           *038 LM00065
                2  DEFBC.(A(RCOUNT)).V.777760K6,                                                  *038 LM00066
                3   SP,T(6),$$,$$,T(7))                                                           *038 LM00067
                  END OF CONDITIONAL                                                              *039 LM00068
                  DIMENSION T(7)                                                                  *040 LM00069
                  FUNCTION RETURN                                                                 *041 LM00070
                  END OF FUNCTION                                                                 *042 LM00071
                                                                                                       LM00072
                  DIMENSION MFD(20),UFD(20),FILE(20),ENT(7)                                       *043 LM00073
                  VECTOR VALUES HED=$ QUOTA-USED$                                                 *044 LM00074
                  VECTOR VALUES SP=607777777777K                                                  *045 LM00075
                  INSERT FILE SALEQU                                                              *046 LM00076
                   SALEQU                                                                         *046 LM00001
                  VECTOR VALUES MFDORG=101212121212K                                              *047 LM00002
                  VECTOR VALUES LOADER=001212121212K                                              *048 LM00003
                  VECTOR VALUES ENTLEN=7                                                          *049 LM00004
                  VECTOR VALUES ENTRYL=20                                                         *050 LM00005
                  VECTOR VALUES NWPT=432                                                          *051 LM00006
                  VECTOR VALUES LDKM=0                                                            *052 LM00007
                  VECTOR VALUES HDKM=7                                                            *053 LM00008
                  VECTOR VALUES LDMM=8                                                            *054 LM00009
                  VECTOR VALUES HDMM=8                                                            *055 LM00010
                  VECTOR VALUES NDKT=10000                                                        *056 LM00011
                  VECTOR VALUES NDMT=400                                                          *057 LM00012
                  VECTOR VALUES NQW=3                                                             *058 LM00013
                  VECTOR VALUES PROBN=1                                                           *059 LM00014
                  VECTOR VALUES PROGN=2                                                           *060 LM00015
                  VECTOR VALUES ALPHA=3                                                           *061 LM00016
                  VECTOR VALUES BETA=4                                                            *062 LM00017
                  VECTOR VALUES DAYTIM=5                                                          *063 LM00018
                  VECTOR VALUES TIME=6                                                            *064 LM00019
                  VECTOR VALUES DATELU=7                                                          *065 LM00020
                  VECTOR VALUES AUTHOR=8                                                          *066 LM00021
                  VECTOR VALUES MODE=9                                                            *067 LM00022
                  VECTOR VALUES ILOCK=10                                                          *068 LM00023
                  VECTOR VALUES F=11                                                              *069 LM00024
                  VECTOR VALUES RCOUNT=12                                                         *070 LM00025
                  VECTOR VALUES S=13                                                              *071 LM00026
                  VECTOR VALUES W=14                                                              *072 LM00027
                  VECTOR VALUES R=15                                                              *073 LM00028
                  VECTOR VALUES NORECS=16                                                         *074 LM00029
                  VECTOR VALUES P=17                                                              *075 LM00030
                  VECTOR VALUES LCOUNT=18                                                         *076 LM00031
                  VECTOR VALUES LSTRK=19                                                          *077 LM00032
                  VECTOR VALUES FSTRK=20                                                          *078 LM00033
                  VECTOR VALUES TEMPMD=1K                                                         *079 LM00034
                  VECTOR VALUES PARTER=1K                                                         *080 LM00035
                  VECTOR VALUES DISKER=2K                                                         *081 LM00036
                  VECTOR VALUES BADBP=4K                                                          *082 LM00037
                  VECTOR VALUES BADTR=1K1                                                         *083 LM00038
                  VECTOR VALUES BADFP=2K1                                                         *084 LM00039
                  VECTOR VALUES BADTN=4K1                                                         *085 LM00040
                  VECTOR VALUES UNPTRK=1K2                                                        *086 LM00041
                  VECTOR VALUES RUSTRK=2K2                                                        *087 LM00042
                  VECTOR VALUES DIRTRN=4K2                                                        *088 LM00043
                  VECTOR VALUES DTATRN=1K3                                                        *089 LM00044
                  VECTOR VALUES NZITEM=2K3                                                        *090 LM00045
                  VECTOR VALUES BADF=4K3                                                          *091 LM00046
                  VECTOR VALUES BADLTK=1K4                                                        *092 LM00047
                  VECTOR VALUES FATAL=2K4                                                         *093 LM00048
                  VECTOR VALUES FORCE=4K4                                                         *094 LM00049
                  VECTOR VALUES BADATE=1K5                                                        *095 LM00050
                  VECTOR VALUES BADLCT=2K5                                                        *096 LM00051
                  VECTOR VALUES BADRCT=4K5                                                        *097 LM00052
                  VECTOR VALUES BADTC=1K6                                                         *098 LM00053
                  VECTOR VALUES BADP=2K6                                                          *099 LM00054
                  VECTOR VALUES BKCOR=4K6                                                         *100 LM00055
                  VECTOR VALUES BKBAD=1K7                                                         *101 LM00056
                                                                                                       LM00057
                  NORMAL MODE IS INTEGER                                                          *102 LM00077
                  END OF PROGRAM                                                                  *103 LM00078
1MAD PROGRAM,TYPE NOV 1963      (ALL NUMBERS ARE OCTAL)
0TOTAL LOCATIONS   01267 TRANSFER VECTOR LENGTH  00023 PROGRAM BEGINS    00310
0VARIABLE STORAGE (A=ARRAY,C=COMMON,E=ERASABLE,DIGIT=MODE)
      ALPHA  00034 A 1        BKCOR  00053 A 1        F      00123 A 1        MFD    00165 A 1        P      00202 A 1
      AUTHOR 00035 A 1        DATELU 00054 A 1        FSTRK  00124 A 1        MLOOP  00030   4        RCOUNT 00203 A 1
      BADATE 00036 A 1        DAYTIM 00055 A 1        HDKM   00125 A 1        MODE   00166 A 1        R      00204 A 1
      BADBP  00037 A 1        DIRTRN 00056 A 1        HDMM   00126 A 1        MOD    00167   1        RUSTRK 00205 A 1
      BADFP  00040 A 1        DISKER 00057 A 1        HED    00130 A 1        MREL   00170   1        SP     00206 A 1
      BADF   00041 A 1        DTATRN 00060 A 1        HPL    00024   4        NDKT   00171 A 1        S      00207 A 1
      BADLCT 00042 A 1        EMLOOP 00025   4        ILOCK  00131 A 1        NDMT   00172 A 1        TEMPMD 00210 A 1
      BADLTK 00043 A 1        ENTLEN 00061 A 1        I      00132   1        NORECS 00173 A 1        TIME   00211 A 1
      BADP   00044 A 1        ENTRYL 00062 A 1        LCOUNT 00133 A 1        NOTFND 00031   4        T      00221 A 1
      BADRCT 00045 A 1        ENT    00072 A 1        LDKM   00134 A 1        NQW    00174 A 1        UEOF   00032   4
      BADTC  00046 A 1        ERCD   00073   1        LDMM   00135 A 1        NWPT   00175 A 1        UFD    00246 A 1
      BADTN  00047 A 1        EULOOP 00026   4        LOADER 00136 A 1        NZITEM 00176 A 1        ULOOP  00033   4
      BADTR  00050 A 1        FATAL  00074 A 1        LSTRK  00137 A 1        PARTER 00177 A 1        UNPTRK 00247 A 1
      BETA   00051 A 1        FILE   00121 A 1        MEOF   00027   4        PROBN  00200 A 1        UREL   00250   1
      BKBAD  00052 A 1        FORCE  00122 A 1        MFDORG 00140 A 1        PROGN  00201 A 1        W      00251 A 1
0FUNCTION DICTIONARY
      BZEL   00000   1        CLOSE  00001   1        COMBIN 00002   1        DATECV 00003   1        DEFBC  00004   1
      DELBC  00005   1        DERBC  00006   1        DINIT  00007   1        EXIT   00010   1        EXPAND 00011   1
      .SETUP 00012   1        MPRINT 00013   1        OCABC  00014   1        OPEN   00015   1        RDTUT  00016   1
      READ   00017   1        RSTUT  00020   1        SRHMFD 00021   1        TRKCV  00022   1        PTENT  00023   1
0ABSOLUTE CONSTANTS
 00306 -377777600000     00255 +000000007020     00304 -376000000000     00307 -377777776000     00305 -377760000000
 00276 -222524606060     00302 -244663214064     00272 -206060606050     00277 -226360606060     00301 -236060263151
 00271 -206060432162     00266 -204760432363     00270 -206051252362     00275 -206260666051     00265 -202660512363
 00261 +256031434642     00264 -065160444624     00260 +246021646330     00274 -206060646225     00300 -232524603051
 00267 -206023512521     00263 -052144256060     00273 -206060606060     00256 +016062434663     00252 +000000000000
 00303 -342631432534     00262 -043326332433     00254 +000000000002     00253 +000000000001     00257 +233000000000
0STATEMENT DICTIONARY
 00025 TXL -300555000552       00026 TXL -300543000540       00027 TXL -300564000556       00030 TXL -300353000343
 00031 TXL -300565000564       00032 TXL -300552000544       00033 TXL -300521000511
0PROGRAM
                 DINIT.                                                             001  LM00001
 00310 TSX +0 07400 4 00012    00311 TSX +0 07400 4 00007
                 RSTUT.(2)                                                          002  LM00002
 00312 TSX +0 07400 4 00020    00313 TXH +3 00000 0 00254
                 RDTUT.(1)                                                          003  LM00003
 00314 TSX +0 07400 4 00016    00315 TXH +3 00000 0 00253
                 SRHMFD.(1,MREL,MFD,$M.F.D.$,$(FILE)$,NOTFND)                       004  LM00004
 00316 TSX +0 07400 4 00021    00317 TXH +3 00000 0 00253    00320 TXH +3 00000 0 00170    00321 TXH +3 00000 0 00165
 00322 TXH +3 00000 0 00262    00323 TXH +3 00000 0 00303    00324 TXH +3 00000 0 00031
                 OPEN.(1,MFD)                                                       005  LM00005
 00325 TSX +0 07400 4 00015    00326 TXH +3 00000 0 00253    00327 TXH +3 00000 0 00165
                 MREL=NQW+1                                                         006  LM00006
 00330 CLA +0 50000 0 00174    00331 ADD +0 40000 0 00253    00332 STO +0 60100 0 00170
                 UFD(PROBN)=MFD(ALPHA)                                              007  LM00007
 00333 LXA +0 53400 1 00200    00334 LXA +0 53400 2 00034    00335 CLA +0 50000 2 00165    00336 STO +0 60100 1 00246
                 UFD(PROGN)=MFD(BETA)                                               008  LM00008
 00337 LXA +0 53400 1 00201    00340 LXA +0 53400 2 00051    00341 CLA +0 50000 2 00165    00342 STO +0 60100 1 00246
      MLOOP      READ.(1,MREL,MEOF,ERCD,MEOF,ENT,ENTLEN)                            009  LM00009
 00343 TSX +0 07400 4 00017    00344 TXH +3 00000 0 00253    00345 TXH +3 00000 0 00170    00346 TXH +3 00000 0 00027
 00347 TXH +3 00000 0 00073    00350 TXH +3 00000 0 00027    00351 TXH +3 00000 0 00072    00352 TXH +3 00000 0 00061
                 EXPAND.(ENT,UFD)                                                   010  LM00010
 00353 TSX +0 07400 4 00011    00354 TXH +3 00000 0 00072    00355 TXH +3 00000 0 00246
                 W'R UFD(ALPHA).V.UFD(BETA).E.0, T'O EMLOOP                         011  LM00011
 00356 LXA +0 53400 1 00034    00357 LXA +0 53400 2 00051    00360 CAL -0 50000 1 00246    00361 ORA -0 50100 2 00246
 00362 SLW +0 60200 0 01263    00363 CLA +0 50000 0 01263    00364 SUB +0 40200 0 00252    00365 TNZ -0 10000 0 00367
 00366 TRA +0 02000 0 00025
                 MPRINT.(1,$1 SLOT      NAME    CREATED HR   USED AUTHOR MODE       012  LM00012
                1ILOK F RCT S W R  RECS P LCT   LAST  FIRST$)                       012  LM00013
 00367 TSX +0 07400 4 00013    00370 TXH +3 00000 0 00253    00371 TXH +3 00000 0 00256    00372 TXH +3 00000 0 00273
 00373 TXH +3 00000 0 00263    00374 TXH +3 00000 0 00267    00375 TXH +3 00000 0 00300    00376 TXH +3 00000 0 00274
 00377 TXH +3 00000 0 00260    00400 TXH +3 00000 0 00264    00401 TXH +3 00000 0 00261    00402 TXH +3 00000 0 00265
 00403 TXH +3 00000 0 00275    00404 TXH +3 00000 0 00270    00405 TXH +3 00000 0 00266    00406 TXH +3 00000 0 00271
 00407 TXH +3 00000 0 00301    00410 TXH +3 00000 0 00277
                 PTENT.(UFD,MREL)                                                   013  LM00014
 00411 TSX +0 07400 4 00023    00412 TXH +3 00000 0 00246    00413 TXH +3 00000 0 00170
                 W'R UFD(BETA).E.$(FILE)$, T'O EMLOOP                               014  LM00015
 00414 LXA +0 53400 1 00051    00415 CLA +0 50000 1 00246    00416 SUB +0 40200 0 00303    00417 TNZ -0 10000 0 00421
 00420 TRA +0 02000 0 00025
                 OPEN.(2,UFD)                                                       015  LM00016
 00421 TSX +0 07400 4 00015    00422 TXH +3 00000 0 00254    00423 TXH +3 00000 0 00246
                 UREL=NQW+1                                                         016  LM00017
 00424 CLA +0 50000 0 00174    00425 ADD +0 40000 0 00253    00426 STO +0 60100 0 00250
                 READ.(2,1,UEOF,ERCD,UEOF,ENT,NQW)                                  017  LM00018
 00427 TSX +0 07400 4 00017    00430 TXH +3 00000 0 00254    00431 TXH +3 00000 0 00253    00432 TXH +3 00000 0 00032
 00433 TXH +3 00000 0 00073    00434 TXH +3 00000 0 00032    00435 TXH +3 00000 0 00072    00436 TXH +3 00000 0 00174
                 MPRINT.(1,$     QUOTA-USED$)                                       018  LM00019
 00437 TSX +0 07400 4 00013    00440 TXH +3 00000 0 00253    00441 TXH +3 00000 0 00272    00442 TXH +3 00000 0 00302
 00443 TXH +3 00000 0 00276
                 T'H HPL, FOR I=1,1,I.G.NQW                                         019  LM00020
 00444 CLA +0 50000 0 00253    00445 STO +0 60100 0 00132    00446 TRA +0 02000 0 00452    00447 CLA +0 50000 0 00132
 00450 ADD +0 40000 0 00253    00451 STO +0 60100 0 00132    00452 CLA +0 50000 0 00132    00453 SUB +0 40200 0 00174
 00454 TZE +0 10000 0 00456    00455 TPL +0 12000 0 00511
      HPL        MPRINT.(1,SP,BZEL.(DERBC.(ENT(I))),SP,BZEL.(DELBC.(ENT(I))))       020  LM00021
 00456 CLA +0 50000 0 00132    00457 SUB +0 40200 0 00460    00460 TXH +3 00000 0 00072    00461 STA +0 62100 0 00463
 00462 TSX +0 07400 4 00005    00463 TXH +3 00000 0 00000    00464 STO +0 60100 0 01263    00465 TSX +0 07400 4 00000
 00466 TXH +3 00000 0 01263    00467 STO +0 60100 0 01263    00470 CLA +0 50000 0 00132    00471 SUB +0 40200 0 00472
 00472 TXH +3 00000 0 00072    00473 STA +0 62100 0 00475    00474 TSX +0 07400 4 00006    00475 TXH +3 00000 0 00000
 00476 STO +0 60100 0 01264    00477 TSX +0 07400 4 00000    00500 TXH +3 00000 0 01264    00501 STO +0 60100 0 01264
 00502 TSX +0 07400 4 00013    00503 TXH +3 00000 0 00253    00504 TXH +3 00000 0 00206    00505 TXH +3 00000 0 01264
 00506 TXH +3 00000 0 00206    00507 TXH +3 00000 0 01263    00510 TRA +0 02000 0 00447
      ULOOP      READ.(2,UREL,UEOF,ERCD,UEOF,ENT,ENTLEN)                            021  LM00022
 00511 TSX +0 07400 4 00017    00512 TXH +3 00000 0 00254    00513 TXH +3 00000 0 00250    00514 TXH +3 00000 0 00032
 00515 TXH +3 00000 0 00073    00516 TXH +3 00000 0 00032    00517 TXH +3 00000 0 00072    00520 TXH +3 00000 0 00061
                 EXPAND.(ENT,FILE)                                                  022  LM00023
 00521 TSX +0 07400 4 00011    00522 TXH +3 00000 0 00072    00523 TXH +3 00000 0 00121
                 W'R FILE(ALPHA).V.FILE(BETA).E.0, T'O EULOOP                       023  LM00024
 00524 LXA +0 53400 1 00034    00525 LXA +0 53400 2 00051    00526 CAL -0 50000 1 00121    00527 ORA -0 50100 2 00121
 00530 SLW +0 60200 0 01264    00531 CLA +0 50000 0 01264    00532 SUB +0 40200 0 00252    00533 TNZ -0 10000 0 00535
 00534 TRA +0 02000 0 00026
                 PTENT.(FILE,UREL)                                                  024  LM00025
 00535 TSX +0 07400 4 00023    00536 TXH +3 00000 0 00121    00537 TXH +3 00000 0 00250
      EULOOP     UREL=UREL+ENTLEN                                                   025  LM00026
 00540 CLA +0 50000 0 00250    00541 ADD +0 40000 0 00061    00542 STO +0 60100 0 00250
                 T'O ULOOP                                                          026  LM00027
 00543 TRA +0 02000 0 00033
      UEOF       CLOSE.(2,UFD,UEOF,ERCD,ERCD)                                       027  LM00028
 00544 TSX +0 07400 4 00001    00545 TXH +3 00000 0 00254    00546 TXH +3 00000 0 00246    00547 TXH +3 00000 0 00032
 00550 TXH +3 00000 0 00073    00551 TXH +3 00000 0 00073
      EMLOOP     MREL=MREL+ENTLEN                                                   028  LM00029
 00552 CLA +0 50000 0 00170    00553 ADD +0 40000 0 00061    00554 STO +0 60100 0 00170
                 T'O MLOOP                                                          029  LM00030
 00555 TRA +0 02000 0 00030
      MEOF       CLOSE.(1,MFD,MEOF,ERCD,ERCD)                                       030  LM00031
 00556 TSX +0 07400 4 00001    00557 TXH +3 00000 0 00253    00560 TXH +3 00000 0 00165    00561 TXH +3 00000 0 00027
 00562 TXH +3 00000 0 00073    00563 TXH +3 00000 0 00073
      NOTFND     EXIT.                                                              031  LM00032
 00564 TSX +0 07400 4 00010
                 INTERNAL FUNCTION (A,B)                                            032  LM00034
 00565 TRA +0 02000 0 01262
                 ENTRY TO PTENT.                                                    033  LM00035
 00566 TRA +0 02000 0 00571    00023 TTR +0 02100 0 00567    00567 SXA +0 63400 2 01173    00570 TSX +0 07400 2 01173
                 W'R A(F).NE.0                                                      034  LM00036
 00571 LXA +0 53400 1 00123    00572 CLA +0 50000 1 00024    00573 SUB +0 40200 0 00252    00574 TZE +0 10000 0 01045
                 MPRINT.(MOD,BZEL.(DEFBC.(1+(B-NQW-1)/ENTLEN)),                     035  LM00037
                2 SP,A(ALPHA),                                                      035  LM00038
                3 SP,A(BETA),                                                       035  LM00039
                4 SP,DATECV.(A(DAYTIM)),                                            035  LM00040
                5 DEFBC.(A(TIME)/3600).V.77777760K4,                                035  LM00041
                6 SP,DATECV.(A(DATELU)),                                            035  LM00042
                7 SP,DEFBC.(A(AUTHOR)),                                             035  LM00043
                8 OCABC.(A(MODE)).V.7760K8,                                         035  LM00044
                9 OCABC.(A(ILOCK)).V.7760K8,                                        035  LM00045
                1 A(F).V.7777777760K2,                                              035  LM00046
                2 DEFBC.(A(RCOUNT)).V.777760K6,                                     035  LM00047
                3 A(S).V.7777777760K2,                                              035  LM00048
                4 A(W).V.7777777760K2,                                              035  LM00049
                5 A(R).V.7777777760K2,                                              035  LM00050
                6 BZEL.(DEFBC.(A(NORECS))),                                         035  LM00051
                7 A(P).V.7777777760K2,                                              035  LM00052
                8 DEFBC.(A(LCOUNT)).V.777760K6,                                     035  LM00053
                9 SP,TRKCV.(A(LSTRK)),                                              035  LM00054
                1 SP,TRKCV.(A(FSTRK)))                                              035  LM00055
 00575 CLA +0 50000 0 00124    00576 SUB +0 40200 0 00577    00577 TXH +3 00000 0 00024    00600 STA +0 62100 0 00602
 00601 TSX +0 07400 4 00022    00602 TXH +3 00000 0 00000    00603 STO +0 60100 0 01241    00604 CLA +0 50000 0 00137
 00605 SUB +0 40200 0 00606    00606 TXH +3 00000 0 00024    00607 STA +0 62100 0 00611    00610 TSX +0 07400 4 00022
 00611 TXH +3 00000 0 00000    00612 STO +0 60100 0 01242    00613 CLA +0 50000 0 00133    00614 SUB +0 40200 0 00615
 00615 TXH +3 00000 0 00024    00616 STA +0 62100 0 00620    00617 TSX +0 07400 4 00004    00620 TXH +3 00000 0 00000
 00621 STO +0 60100 0 01243    00622 CAL -0 50000 0 01243    00623 ORA -0 50100 0 00305    00624 LXA +0 53400 1 00202
 00625 SLW +0 60200 0 01243    00626 CAL -0 50000 1 00024    00627 ORA -0 50100 0 00307    00630 SLW +0 60200 0 01244
 00631 CLA +0 50000 0 00173    00632 SUB +0 40200 0 00633    00633 TXH +3 00000 0 00024    00634 STA +0 62100 0 00636
 00635 TSX +0 07400 4 00004    00636 TXH +3 00000 0 00000    00637 STO +0 60100 0 01245    00640 TSX +0 07400 4 00000
 00641 TXH +3 00000 0 01245    00642 LXA +0 53400 1 00204    00643 STO +0 60100 0 01245    00644 CAL -0 50000 1 00024
 00645 ORA -0 50100 0 00307    00646 LXA +0 53400 1 00251    00647 SLW +0 60200 0 01246    00650 CAL -0 50000 1 00024
 00651 ORA -0 50100 0 00307    00652 LXA +0 53400 1 00207    00653 SLW +0 60200 0 01247    00654 CAL -0 50000 1 00024
 00655 ORA -0 50100 0 00307    00656 SLW +0 60200 0 01250    00657 CLA +0 50000 0 00203    00660 SUB +0 40200 0 00661
 00661 TXH +3 00000 0 00024    00662 STA +0 62100 0 00664    00663 TSX +0 07400 4 00004    00664 TXH +3 00000 0 00000
 00665 STO +0 60100 0 01251    00666 CAL -0 50000 0 01251    00667 ORA -0 50100 0 00305    00670 LXA +0 53400 1 00123
 00671 SLW +0 60200 0 01251    00672 CAL -0 50000 1 00024    00673 ORA -0 50100 0 00307    00674 SLW +0 60200 0 01252
 00675 CLA +0 50000 0 00131    00676 SUB +0 40200 0 00677    00677 TXH +3 00000 0 00024    00700 STA +0 62100 0 00702
 00701 TSX +0 07400 4 00014    00702 TXH +3 00000 0 00000    00703 STO +0 60100 0 01253    00704 CAL -0 50000 0 01253
 00705 ORA -0 50100 0 00304    00706 SLW +0 60200 0 01253    00707 CLA +0 50000 0 00166    00710 SUB +0 40200 0 00711
 00711 TXH +3 00000 0 00024    00712 STA +0 62100 0 00714    00713 TSX +0 07400 4 00014    00714 TXH +3 00000 0 00000
 00715 STO +0 60100 0 01254    00716 CAL -0 50000 0 01254    00717 ORA -0 50100 0 00304    00720 SLW +0 60200 0 01254
 00721 CLA +0 50000 0 00035    00722 SUB +0 40200 0 00723    00723 TXH +3 00000 0 00024    00724 STA +0 62100 0 00726
 00725 TSX +0 07400 4 00004    00726 TXH +3 00000 0 00000    00727 STO +0 60100 0 01255    00730 CLA +0 50000 0 00054
 00731 SUB +0 40200 0 00732    00732 TXH +3 00000 0 00024    00733 STA +0 62100 0 00735    00734 TSX +0 07400 4 00003
 00735 TXH +3 00000 0 00000    00736 LXA +0 53400 1 00211    00737 STO +0 60100 0 01256    00740 LDQ +0 56000 1 00024
 00741 PXD -0 75400 0 00000    00742 LLS +0 76300 0 00000    00743 DVP +0 22100 0 00255    00744 STQ -0 60000 0 01257
 00745 TSX +0 07400 4 00004    00746 TXH +3 00000 0 01257    00747 STO +0 60100 0 01257    00750 CAL -0 50000 0 01257
 00751 ORA -0 50100 0 00306    00752 SLW +0 60200 0 01257    00753 CLA +0 50000 0 00055    00754 SUB +0 40200 0 00755
 00755 TXH +3 00000 0 00024    00756 STA +0 62100 0 00760    00757 TSX +0 07400 4 00003    00760 TXH +3 00000 0 00000
 00761 STO +0 60100 0 01260    00762 CLA +0 50000 0 00051    00763 SUB +0 40200 0 00764    00764 TXH +3 00000 0 00024
 00765 STA +0 62100 0 01016    00766 CLA +0 50000 0 00034    00767 SUB +0 40200 0 00770    00770 TXH +3 00000 0 00024
 00771 STA +0 62100 0 01014    00772 CLA +0 50000 0 00024    00773 SUB +0 40200 0 00174    00774 SUB +0 40200 0 00253
 00775 LRS +0 76500 0 00043    00776 DVP +0 22100 0 00061    00777 XCA +0 13100 0 00000    01000 ADD +0 40000 0 00253
 01001 STO +0 60100 0 01261    01002 TSX +0 07400 4 00004    01003 TXH +3 00000 0 01261    01004 STO +0 60100 0 01261
 01005 TSX +0 07400 4 00000    01006 TXH +3 00000 0 01261    01007 STO +0 60100 0 01261    01010 TSX +0 07400 4 00013
 01011 TXH +3 00000 0 00167    01012 TXH +3 00000 0 01261    01013 TXH +3 00000 0 00206    01014 TXH +3 00000 0 00000
 01015 TXH +3 00000 0 00206    01016 TXH +3 00000 0 00000    01017 TXH +3 00000 0 00206    01020 TXH +3 00000 0 01260
 01021 TXH +3 00000 0 01257    01022 TXH +3 00000 0 00206    01023 TXH +3 00000 0 01256    01024 TXH +3 00000 0 00206
 01025 TXH +3 00000 0 01255    01026 TXH +3 00000 0 01254    01027 TXH +3 00000 0 01253    01030 TXH +3 00000 0 01252
 01031 TXH +3 00000 0 01251    01032 TXH +3 00000 0 01250    01033 TXH +3 00000 0 01247    01034 TXH +3 00000 0 01246
 01035 TXH +3 00000 0 01245    01036 TXH +3 00000 0 01244    01037 TXH +3 00000 0 01243    01040 TXH +3 00000 0 00206
 01041 TXH +3 00000 0 01242    01042 TXH +3 00000 0 00206    01043 TXH +3 00000 0 01241
                 O'E                                                                036  LM00056
 01044 TRA +0 02000 0 01171
                 COMBIN.(T,A)                                                       037  LM00057
 01045 TSX +0 07400 4 00002    01046 TXH +3 00000 0 00221    01047 TXH +3 00000 0 00024
                 MPRINT.(MOD,BZEL.(DEFBC.(1+(B-NQW-1)/ENTLEN)),                     038  LM00058
                2 SP,A(ALPHA),                                                      038  LM00059
                3 SP,A(BETA),                                                       038  LM00060
                4  SP,T(3),SP,SP,SP,                                                038  LM00061
                6  SP,T(4),SP,$$,                                                   038  LM00062
                8 OCABC.(A(MODE)).V.7760K8,                                         038  LM00063
                9 OCABC.(A(ILOCK)).V.7760K8,                                        038  LM00064
                1 A(F).V.7777777760K2,                                              038  LM00065
                2 DEFBC.(A(RCOUNT)).V.777760K6,                                     038  LM00066
                3  SP,T(6),$$,$$,T(7))                                              038  LM00067
 01050 CLA +0 50000 0 00203    01051 SUB +0 40200 0 01052    01052 TXH +3 00000 0 00024    01053 STA +0 62100 0 01055
 01054 TSX +0 07400 4 00004    01055 TXH +3 00000 0 00000    01056 STO +0 60100 0 01261    01057 CAL -0 50000 0 01261
 01060 ORA -0 50100 0 00305    01061 LXA +0 53400 1 00123    01062 SLW +0 60200 0 01261    01063 CAL -0 50000 1 00024
 01064 ORA -0 50100 0 00307    01065 SLW +0 60200 0 01260    01066 CLA +0 50000 0 00131    01067 SUB +0 40200 0 01070
 01070 TXH +3 00000 0 00024    01071 STA +0 62100 0 01073    01072 TSX +0 07400 4 00014    01073 TXH +3 00000 0 00000
 01074 STO +0 60100 0 01257    01075 CAL -0 50000 0 01257    01076 ORA -0 50100 0 00304    01077 SLW +0 60200 0 01257
 01100 CLA +0 50000 0 00166    01101 SUB +0 40200 0 01102    01102 TXH +3 00000 0 00024    01103 STA +0 62100 0 01105
 01104 TSX +0 07400 4 00014    01105 TXH +3 00000 0 00000    01106 STO +0 60100 0 01256    01107 CAL -0 50000 0 01256
 01110 ORA -0 50100 0 00304    01111 SLW +0 60200 0 01256    01112 CLA +0 50000 0 00051    01113 SUB +0 40200 0 01114
 01114 TXH +3 00000 0 00024    01115 STA +0 62100 0 01146    01116 CLA +0 50000 0 00034    01117 SUB +0 40200 0 01120
 01120 TXH +3 00000 0 00024    01121 STA +0 62100 0 01144    01122 CLA +0 50000 0 00024    01123 SUB +0 40200 0 00174
 01124 SUB +0 40200 0 00253    01125 LRS +0 76500 0 00043    01126 DVP +0 22100 0 00061    01127 XCA +0 13100 0 00000
 01130 ADD +0 40000 0 00253    01131 STO +0 60100 0 01255    01132 TSX +0 07400 4 00004    01133 TXH +3 00000 0 01255
 01134 STO +0 60100 0 01255    01135 TSX +0 07400 4 00000    01136 TXH +3 00000 0 01255    01137 STO +0 60100 0 01255
 01140 TSX +0 07400 4 00013    01141 TXH +3 00000 0 00167    01142 TXH +3 00000 0 01255    01143 TXH +3 00000 0 00206
 01144 TXH +3 00000 0 00000    01145 TXH +3 00000 0 00206    01146 TXH +3 00000 0 00000    01147 TXH +3 00000 0 00206
 01150 TXH +3 00000 0 00216    01151 TXH +3 00000 0 00206    01152 TXH +3 00000 0 00206    01153 TXH +3 00000 0 00206
 01154 TXH +3 00000 0 00206    01155 TXH +3 00000 0 00215    01156 TXH +3 00000 0 00206    01157 TXH +3 00000 0 00273
 01160 TXH +3 00000 0 01256    01161 TXH +3 00000 0 01257    01162 TXH +3 00000 0 01260    01163 TXH +3 00000 0 01261
 01164 TXH +3 00000 0 00206    01165 TXH +3 00000 0 00213    01166 TXH +3 00000 0 00273    01167 TXH +3 00000 0 00273
 01170 TXH +3 00000 0 00212
                 E'L                                                                039  LM00068
                 DIMENSION T(7)                                                     040  LM00069
                 F'N                                                                041  LM00070
 01171 TRA +0 02000 0 01235
                 END OF FUNCTION                                                    042  LM00071
 01172 TSX +0 07400 4 00010    01173 TXH +3 00000 0 00000    01174 SXD -0 63400 1 01173    01175 SXA +0 63400 4 01235
 01176 CLA +0 50000 4 00001    01177 STA +0 62100 0 00572    01200 STO +0 60100 0 00577    01201 STO +0 60100 0 00606
 01202 STO +0 60100 0 00615    01203 STA +0 62100 0 00626    01204 STO +0 60100 0 00633    01205 STA +0 62100 0 00644
 01206 STA +0 62100 0 00650    01207 STA +0 62100 0 00654    01210 STO +0 60100 0 00661    01211 STA +0 62100 0 00672
 01212 STO +0 60100 0 00677    01213 STO +0 60100 0 00711    01214 STO +0 60100 0 00723    01215 STO +0 60100 0 00732
 01216 STA +0 62100 0 00740    01217 STO +0 60100 0 00755    01220 STO +0 60100 0 00764    01221 STO +0 60100 0 00770
 01222 STO +0 60100 0 01047    01223 STO +0 60100 0 01052    01224 STA +0 62100 0 01063    01225 STO +0 60100 0 01070
 01226 STO +0 60100 0 01102    01227 STO +0 60100 0 01114    01230 STO +0 60100 0 01120    01231 CLA +0 50000 4 00002
 01232 STA +0 62100 0 00772    01233 STA +0 62100 0 01122    01234 TRA +0 02000 2 00001    01235 AXT +0 77400 4 00000
 01236 LXA +0 53400 2 01173    01237 LXD -0 53400 1 01173    01240 TRA +0 02000 4 00001
                 DIMENSION MFD(20),UFD(20),FILE(20),ENT(7)                          043  LM00073
                 V'S HED=$ QUOTA-USED$                                              044  LM00074
 00127     -0 06462 2 52460    00130     -2 05064 4 66321
                 V'S SP=607777777777K                                               045  LM00075
 00206     -2 07777 7 77777
                 INSERT FILE SALEQU                                                 046  LM00076
                 V'S MFDORG=101212121212K                                           047  LM00002
 00140     +1 01212 1 21212
                 V'S LOADER=001212121212K                                           048  LM00003
 00136     +0 01212 1 21212
                 V'S ENTLEN=7                                                       049  LM00004
 00061     +0 00000 0 00007
                 V'S ENTRYL=20                                                      050  LM00005
 00062     +0 00000 0 00024
                 V'S NWPT=432                                                       051  LM00006
 00175     +0 00000 0 00660
                 V'S LDKM=0                                                         052  LM00007
 00134     +0 00000 0 00000
                 V'S HDKM=7                                                         053  LM00008
 00125     +0 00000 0 00007
                 V'S LDMM=8                                                         054  LM00009
 00135     +0 00000 0 00010
                 V'S HDMM=8                                                         055  LM00010
 00126     +0 00000 0 00010
                 V'S NDKT=10000                                                     056  LM00011
 00171     +0 00000 0 23420
                 V'S NDMT=400                                                       057  LM00012
 00172     +0 00000 0 00620
                 V'S NQW=3                                                          058  LM00013
 00174     +0 00000 0 00003
                 V'S PROBN=1                                                        059  LM00014
 00200     +0 00000 0 00001
                 V'S PROGN=2                                                        060  LM00015
 00201     +0 00000 0 00002
                 V'S ALPHA=3                                                        061  LM00016
 00034     +0 00000 0 00003
                 V'S BETA=4                                                         062  LM00017
 00051     +0 00000 0 00004
                 V'S DAYTIM=5                                                       063  LM00018
 00055     +0 00000 0 00005
                 V'S TIME=6                                                         064  LM00019
 00211     +0 00000 0 00006
                 V'S DATELU=7                                                       065  LM00020
 00054     +0 00000 0 00007
                 V'S AUTHOR=8                                                       066  LM00021
 00035     +0 00000 0 00010
                 V'S MODE=9                                                         067  LM00022
 00166     +0 00000 0 00011
                 V'S ILOCK=10                                                       068  LM00023
 00131     +0 00000 0 00012
                 V'S F=11                                                           069  LM00024
 00123     +0 00000 0 00013
                 V'S RCOUNT=12                                                      070  LM00025
 00203     +0 00000 0 00014
                 V'S S=13                                                           071  LM00026
 00207     +0 00000 0 00015
                 V'S W=14                                                           072  LM00027
 00251     +0 00000 0 00016
                 V'S R=15                                                           073  LM00028
 00204     +0 00000 0 00017
                 V'S NORECS=16                                                      074  LM00029
 00173     +0 00000 0 00020
                 V'S P=17                                                           075  LM00030
 00202     +0 00000 0 00021
                 V'S LCOUNT=18                                                      076  LM00031
 00133     +0 00000 0 00022
                 V'S LSTRK=19                                                       077  LM00032
 00137     +0 00000 0 00023
                 V'S FSTRK=20                                                       078  LM00033
 00124     +0 00000 0 00024
                 V'S TEMPMD=1K                                                      079  LM00034
 00210     +0 00000 0 00001
                 V'S PARTER=1K                                                      080  LM00035
 00177     +0 00000 0 00001
                 V'S DISKER=2K                                                      081  LM00036
 00057     +0 00000 0 00002
                 V'S BADBP=4K                                                       082  LM00037
 00037     +0 00000 0 00004
                 V'S BADTR=1K1                                                      083  LM00038
 00050     +0 00000 0 00010
                 V'S BADFP=2K1                                                      084  LM00039
 00040     +0 00000 0 00020
                 V'S BADTN=4K1                                                      085  LM00040
 00047     +0 00000 0 00040
                 V'S UNPTRK=1K2                                                     086  LM00041
 00247     +0 00000 0 00100
                 V'S RUSTRK=2K2                                                     087  LM00042
 00205     +0 00000 0 00200
                 V'S DIRTRN=4K2                                                     088  LM00043
 00056     +0 00000 0 00400
                 V'S DTATRN=1K3                                                     089  LM00044
 00060     +0 00000 0 01000
                 V'S NZITEM=2K3                                                     090  LM00045
 00176     +0 00000 0 02000
                 V'S BADF=4K3                                                       091  LM00046
 00041     +0 00000 0 04000
                 V'S BADLTK=1K4                                                     092  LM00047
 00043     +0 00000 0 10000
                 V'S FATAL=2K4                                                      093  LM00048
 00074     +0 00000 0 20000
                 V'S FORCE=4K4                                                      094  LM00049
 00122     +0 00000 0 40000
                 V'S BADATE=1K5                                                     095  LM00050
 00036     +0 00000 1 00000
                 V'S BADLCT=2K5                                                     096  LM00051
 00042     +0 00000 2 00000
                 V'S BADRCT=4K5                                                     097  LM00052
 00045     +0 00000 4 00000
                 V'S BADTC=1K6                                                      098  LM00053
 00046     +0 00001 0 00000
                 V'S BADP=2K6                                                       099  LM00054
 00044     +0 00002 0 00000
                 V'S BKCOR=4K6                                                      100  LM00055
 00053     +0 00004 0 00000
                 V'S BKBAD=1K7                                                      101  LM00056
 00052     +0 00010 0 00000
                 NORMAL MODE IS INTEGER                                             102  LM00077
                 END OF PROGRAM                                                     103  LM00078
 01262 TSX +0 07400 4 00010


 RTUT4   BCD 12/14/70 1517.5   11075         00000
1     MAD PROGRAM LISTING ... ... ...                 FILE    RTUT   MAD            11/05/70    1933.6
-
                  EXTERNAL FUNCTION (I,I1)                                                        *001 LM00001
                  ENTRY TO RDTUT.                                                                 *002 LM00002
                   (I)                                                                                 LM00003
                  SAVE RETURN                                                                     *003 LM00004
                  RI=I                                                                            *004 LM00005
                  WHENEVER FIRST                                                                  *005 LM00006
                       NDK=NDKT*(HDKM-LDKM+1)/36+NDKT*(HDKM-LDKM+1)/1440+2                        *006 LM00007
                       NDM=NDMT*(HDMM-LDMM+1)/36+1                                                *007 LM00008
                       NT=NDK+NDM                                                                 *008 LM00009
                       IINDEX.(LDKM,HDKM,LDMM,HDMM)                                               *009 LM00010
                       FIRST=0B                                                                   *010 LM00011
                  END OF CONDITIONAL                                                              *011 LM00012
                  RTBASE=RI*NT-NT                                                                 *012 LM00013
                  SRHMFD.(1,REL,UT,$DISKUT$,$(FILE)$,RERR)                                        *013 LM00014
                  OPEN.(2,UT)                                                                     *014 LM00015
                  READ.(2,1,RERR,X,RERR,TUT(RTBASE),NDK)                                          *015 LM00016
                  TRUNC.(2,NDK+1,RERR,X,RERR)                                                     *016 LM00017
                  CLOSE.(2,UT,RERR,X,CH)                                                          *017 LM00018
                  WHENEVER CH                                                                     *018 LM00019
                       COMBIN.(ENT,UT)                                                            *019 LM00020
                       WRITE.(1,REL,RERR,X,RERR,ENT,ENTLEN)                                       *020 LM00021
                       CLOSE.(1,UT,RERR,X,X)                                                      *021 LM00022
                  END OF CONDITIONAL                                                              *022 LM00023
                  SRHMFD.(1,REL,UT,$DRUMUT$,$(FILE)$,RERR)                                        *023 LM00024
                  OPEN.(2,UT)                                                                     *024 LM00025
                  READ.(2,1,RERR,X,RERR,TUT(RTBASE+NDK),NDM)                                      *025 LM00026
                  TRUNC.(2,NDM+1,RERR,X,RERR)                                                     *026 LM00027
                  CLOSE.(2,UT,RERR,X,CH)                                                          *027 LM00028
                  WHENEVER CH                                                                     *028 LM00029
                       COMBIN.(ENT,UT)                                                            *029 LM00030
                       WRITE.(1,REL,RERR,X,RERR,ENT,ENTLEN)                                       *030 LM00031
                       CLOSE.(1,UT,RERR,X,X)                                                      *031 LM00032
                  END OF CONDITIONAL                                                              *032 LM00033
                  RESTORE RETURN                                                                  *033 LM00034
                  FUNCTION RETURN                                                                 *034 LM00035
      RERR        MPRINT.(3,$ ERROR READING TUT$)                                                 *035 LM00036
                  EXIT.                                                                           *036 LM00037
                                                                                                       LM00038
                  ENTRY TO WTTUT.                                                                 *037 LM00039
                   (I)                                                                                 LM00040
                  SAVE RETURN                                                                     *038 LM00041
                  RI=I                                                                            *039 LM00042
                  RTBASE=RI*NT-NT                                                                 *040 LM00043
                  SRHMFD.(1,X,UT,$DISKUT$,$(FILE)$,WERR)                                          *041 LM00044
                  OPEN.(1,UT)                                                                     *042 LM00045
                  WRITE.(1,1,WERR,X,WERR,TUT(RTBASE),NDK)                                         *043 LM00046
                  CLOSE.(1,UT,WERR,X,X)                                                           *044 LM00047
                  SRHMFD.(1,X,UT,$DRUMUT$,$(FILE)$,WERR)                                          *045 LM00048
                  OPEN.(1,UT)                                                                     *046 LM00049
                  WRITE.(1,1,WERR,X,WERR,TUT(RTBASE+NDK),NDM)                                     *047 LM00050
                  CLOSE.(1,UT,WERR,X,X)                                                           *048 LM00051
                  RESTORE RETURN                                                                  *049 LM00052
                  FUNCTION RETURN                                                                 *050 LM00053
      WERR        MPRINT.(3,$ ERROR WRITING TUT$)                                                 *051 LM00054
                  RESTORE RETURN                                                                  *052 LM00055
                  FUNCTION RETURN                                                                 *053 LM00056
                                                                                                       LM00057
                  ENTRY TO RSTUT.                                                                 *054 LM00058
                  (I)                                                                                  LM00059
                  WHENEVER FIRST                                                                  *055 LM00060
                       NDK=NDKT*(HDKM-LDKM+1)/36+NDKT*(HDKM-LDKM+1)/1440+2                        *056 LM00061
                       NDM=NDMT*(HDMM-LDMM+1)/36+1                                                *057 LM00062
                       NT=NDK+NDM                                                                 *058 LM00063
                       IINDEX.(LDKM,HDKM,LDMM,HDMM)                                               *059 LM00064
                       FIRST=0B                                                                   *060 LM00065
                  END OF CONDITIONAL                                                              *061 LM00066
                  TBASE=I*NT-NT                                                                   *062 LM00067
                  THROUGH RL, FOR J=1,1,J.G.NT                                                    *063 LM00068
      RL          TUT(TBASE+J)=777777777777K                                                      *064 LM00069
                  FUNCTION RETURN                                                                 *065 LM00070
                                                                                                       LM00071
                  ENTRY TO ORTUT.                                                                 *066 LM00072
                  (I,I1)  I OR I1 GOES TO I1                                                           LM00073
                  TBASE=I*NT-NT                                                                   *067 LM00074
                  TBASE1=I1*NT-NT                                                                 *068 LM00075
                  THROUGH OL, FOR J=1,1,J.G.NT                                                    *069 LM00076
      OL          TUT(TBASE1+J)=TUT(TBASE1+J).A.TUT(TBASE+J)                                      *070 LM00077
                  FUNCTION RETURN                                                                 *071 LM00078
                                                                                                       LM00079
                  ENTRY TO USEDT.                                                                 *072 LM00080
                  (I,TRACK)  RETURNS 1B IF TRACK USED                                                  LM00081
                  TBASE=I*NT-NT                                                                   *073 LM00082
                  TRACK=I1                                                                        *074 LM00083
                  INDEX.(TRACK,W,M)                                                               *075 LM00084
                  W=W+1                                                                           *076 LM00085
                  MOD=TRACK.RS.30                                                                 *077 LM00086
                  WHENEVER MOD.G.HDKM .AND. MOD.NE.12K, TBASE=TBASE+NDK                           *078 LM00087
                  U=TUT(TBASE+W) .A. M                                                            *079 LM00088
                  U=U.RS.5.V.U                                                                    *080 LM00089
                  FUNCTION RETURN .NOT. BU                                                        *081 LM00090
                  EQUIVALENCE (U,BU)                                                              *082 LM00091
                  BOOLEAN BU,CH                                                                   *083 LM00092
                                                                                                       LM00093
                  ENTRY TO USET.                                                                  *084 LM00094
                   (I,TRACK)                                                                           LM00095
                  TBASE=I*NT-NT                                                                   *085 LM00096
                  TRACK=I1                                                                        *086 LM00097
                  INDEX.(TRACK,W,M)                                                               *087 LM00098
                  W=W+1                                                                           *088 LM00099
                  MOD=TRACK.RS.30                                                                 *089 LM00100
                  WHENEVER MOD.G.HDKM .AND. MOD.NE.12K, TBASE=TBASE+NDK                           *090 LM00101
                  TUT(TBASE+W)=TUT(TBASE+W).A. .N.M                                               *091 LM00102
                  FUNCTION RETURN                                                                 *092 LM00103
                  NORMAL MODE IS INTEGER                                                          *093 LM00104
                  DIMENSION UT(20),TUT(4600),ENT(9)                                               *094 LM00105
                  VECTOR VALUES FIRST=1B                                                          *095 LM00106
                  INSERT FILE SALEQU                                                              *096 LM00107
                   SALEQU                                                                         *096 LM00001
                  VECTOR VALUES MFDORG=101212121212K                                              *097 LM00002
                  VECTOR VALUES LOADER=001212121212K                                              *098 LM00003
                  VECTOR VALUES ENTLEN=7                                                          *099 LM00004
                  VECTOR VALUES ENTRYL=20                                                         *100 LM00005
                  VECTOR VALUES NWPT=432                                                          *101 LM00006
                  VECTOR VALUES LDKM=0                                                            *102 LM00007
                  VECTOR VALUES HDKM=7                                                            *103 LM00008
                  VECTOR VALUES LDMM=8                                                            *104 LM00009
                  VECTOR VALUES HDMM=8                                                            *105 LM00010
                  VECTOR VALUES NDKT=10000                                                        *106 LM00011
                  VECTOR VALUES NDMT=400                                                          *107 LM00012
                  VECTOR VALUES NQW=3                                                             *108 LM00013
                  VECTOR VALUES PROBN=1                                                           *109 LM00014
                  VECTOR VALUES PROGN=2                                                           *110 LM00015
                  VECTOR VALUES ALPHA=3                                                           *111 LM00016
                  VECTOR VALUES BETA=4                                                            *112 LM00017
                  VECTOR VALUES DAYTIM=5                                                          *113 LM00018
                  VECTOR VALUES TIME=6                                                            *114 LM00019
                  VECTOR VALUES DATELU=7                                                          *115 LM00020
                  VECTOR VALUES AUTHOR=8                                                          *116 LM00021
                  VECTOR VALUES MODE=9                                                            *117 LM00022
                  VECTOR VALUES ILOCK=10                                                          *118 LM00023
                  VECTOR VALUES F=11                                                              *119 LM00024
                  VECTOR VALUES RCOUNT=12                                                         *120 LM00025
                  VECTOR VALUES S=13                                                              *121 LM00026
                  VECTOR VALUES W=14                                                              *122 LM00027
                  VECTOR VALUES R=15                                                              *123 LM00028
                  VECTOR VALUES NORECS=16                                                         *124 LM00029
                  VECTOR VALUES P=17                                                              *125 LM00030
                  VECTOR VALUES LCOUNT=18                                                         *126 LM00031
                  VECTOR VALUES LSTRK=19                                                          *127 LM00032
                  VECTOR VALUES FSTRK=20                                                          *128 LM00033
                  VECTOR VALUES TEMPMD=1K                                                         *129 LM00034
                  VECTOR VALUES PARTER=1K                                                         *130 LM00035
                  VECTOR VALUES DISKER=2K                                                         *131 LM00036
                  VECTOR VALUES BADBP=4K                                                          *132 LM00037
                  VECTOR VALUES BADTR=1K1                                                         *133 LM00038
                  VECTOR VALUES BADFP=2K1                                                         *134 LM00039
                  VECTOR VALUES BADTN=4K1                                                         *135 LM00040
                  VECTOR VALUES UNPTRK=1K2                                                        *136 LM00041
                  VECTOR VALUES RUSTRK=2K2                                                        *137 LM00042
                  VECTOR VALUES DIRTRN=4K2                                                        *138 LM00043
                  VECTOR VALUES DTATRN=1K3                                                        *139 LM00044
                  VECTOR VALUES NZITEM=2K3                                                        *140 LM00045
                  VECTOR VALUES BADF=4K3                                                          *141 LM00046
                  VECTOR VALUES BADLTK=1K4                                                        *142 LM00047
                  VECTOR VALUES FATAL=2K4                                                         *143 LM00048
                  VECTOR VALUES FORCE=4K4                                                         *144 LM00049
                  VECTOR VALUES BADATE=1K5                                                        *145 LM00050
                  VECTOR VALUES BADLCT=2K5                                                        *146 LM00051
                  VECTOR VALUES BADRCT=4K5                                                        *147 LM00052
                  VECTOR VALUES BADTC=1K6                                                         *148 LM00053
                  VECTOR VALUES BADP=2K6                                                          *149 LM00054
                  VECTOR VALUES BKCOR=4K6                                                         *150 LM00055
                  VECTOR VALUES BKBAD=1K7                                                         *151 LM00056
                                                                                                       LM00057
                  END OF FUNCTION                                                                 *152 LM00108
1MAD PROGRAM,TYPE NOV 1963      (ALL NUMBERS ARE OCTAL)
0TOTAL LOCATIONS   12155 TRANSFER VECTOR LENGTH  00015 PROGRAM BEGINS    11201
0 PROGRAM IS AN EXTERNAL FUNCTION.   THE FOLLOWING ARE ENTRIES
      USET   12050   0        USEDT  11766   0        ORTUT  11716   0        RSTUT  11611   0        WTTUT  11466   0
      RDTUT  11202   0
0VARIABLE STORAGE (A=ARRAY,C=COMMON,E=ERASABLE,DIGIT=MODE)
      ALPHA  00021 A 1        BU     00016   2        HDMM   00071 A 1        NORECS 00111 A 1        RTBASE 00126   1
      AUTHOR 00022 A 1        CH     00041   2        ILOCK  00072 A 1        NQW    00112 A 1        RUSTRK 00127 A 1
      BADATE 00023 A 1        DATELU 00042 A 1        J      00073   1        NT     00113   1        S      00130 A 1
      BADBP  00024 A 1        DAYTIM 00043 A 1        LCOUNT 00074 A 1        NWPT   00114 A 1        TBASE1 00131   1
      BADFP  00025 A 1        DIRTRN 00044 A 1        LDKM   00075 A 1        NZITEM 00115 A 1        TBASE  00132   1
      BADF   00026 A 1        DISKER 00045 A 1        LDMM   00076 A 1        OL     00015   4        TEMPMD 00133 A 1
      BADLCT 00027 A 1        DTATRN 00046 A 1        LOADER 00077 A 1        PARTER 00116 A 1        TIME   00134 A 1
      BADLTK 00030 A 1        ENTLEN 00047 A 1        LSTRK  00100 A 1        PROBN  00117 A 1        TRACK  00135   1
      BADP   00031 A 1        ENTRYL 00050 A 1        MFDORG 00101 A 1        PROGN  00120 A 1        TUT    11126 A 1
      BADRCT 00032 A 1        ENT    00062 A 1        MODE   00102 A 1        P      00121 A 1        UNPTRK 11127 A 1
      BADTC  00033 A 1        FATAL  00063 A 1        MOD    00103   1        RCOUNT 00122 A 1        U      00016   1
      BADTN  00034 A 1        FIRST  00064 A 2        M      00104   1        REL    00123   1        UT     11154 A 1
      BADTR  00035 A 1        FORCE  00065 A 1        NDK    00105   1        RERR   00017   4        WERR   00020   4
      BETA   00036 A 1        F      00066 A 1        NDKT   00106 A 1        RI     00124   1        W      11155 A 1
      BKBAD  00037 A 1        FSTRK  00067 A 1        NDM    00107   1        RL     00015   4        X      11156   1
      BKCOR  00040 A 1        HDKM   00070 A 1        NDMT   00110 A 1        R      00125 A 1
0FUNCTION DICTIONARY
      CLOSE  00000   1        COMBIN 00001   1        EXIT   00002   1        IINDEX 00003   1        INDEX  00004   1
      .RSTRN 00005   1        .SAVRN 00006   1        MPRINT 00007   1        OPEN   00010   1        READ   00011   1
      SRHMFD 00012   1        TRUNC  00013   1        WRITE  00014   1
0ABSOLUTE CONSTANTS
 11163 +000000000005     11164 +000000000012     11165 +000000000036     11200 -377777777777     11176 -206651316331
 11173 -052760636463     11175 -205125212431     11174 -202551514651     11162 +000000000003     11172 +245164446463
 11177 -342631432534     11171 +243162426463     11157 +000000000000     11161 +000000000002     11166 +000000000044
 11167 +000000002640     11160 +000000000001     11170 +233000000000
0STATEMENT DICTIONARY
 00017 TXL -311464011457       00020 TXL -311604011577
0PROGRAM
                 EXTERNAL FUNCTION (I,I1)                                           001  LM00001
                 ENTRY TO RDTUT.                                                    002  LM00002
 11201 TRA +0 02000 0 11204    11202 SXA +0 63400 2 12127    11203 TSX +0 07400 2 12127
                 SAVE RETURN                                                        003  LM00004
 11204 TSX +0 07400 4 00006    11205 STR -1 00000 0 12146    11206 STR -1 00000 0 00000
                 RI=I                                                               004  LM00005
 11207 CLA +0 50000 0 00024    11210 STO +0 60100 0 00124
                 W'R FIRST                                                          005  LM00006
 11211 NZT -0 52000 0 00064    11212 TRA +0 02000 0 11265
                      NDK=NDKT*(HDKM-LDKM+1)/36+NDKT*(HDKM-LDKM+1)/1440+2           006  LM00007
 11213 CLA +0 50000 0 00070    11214 SUB +0 40200 0 00075    11215 ADD +0 40000 0 11160    11216 XCA +0 13100 0 00000
 11217 MPY +0 20000 0 00106    11220 PXD -0 75400 0 00000    11221 LLS +0 76300 0 00000    11222 DVP +0 22100 0 11167
 11223 STQ -0 60000 0 12152    11224 CLA +0 50000 0 00070    11225 SUB +0 40200 0 00075    11226 ADD +0 40000 0 11160
 11227 XCA +0 13100 0 00000    11230 MPY +0 20000 0 00106    11231 PXD -0 75400 0 00000    11232 LLS +0 76300 0 00000
 11233 DVP +0 22100 0 11166    11234 XCA +0 13100 0 00000    11235 ADD +0 40000 0 12152    11236 ADD +0 40000 0 11161
 11237 STO +0 60100 0 00105
                      NDM=NDMT*(HDMM-LDMM+1)/36+1                                   007  LM00008
 11240 CLA +0 50000 0 00071    11241 SUB +0 40200 0 00076    11242 ADD +0 40000 0 11160    11243 XCA +0 13100 0 00000
 11244 MPY +0 20000 0 00110    11245 PXD -0 75400 0 00000    11246 LLS +0 76300 0 00000    11247 DVP +0 22100 0 11166
 11250 XCA +0 13100 0 00000    11251 ADD +0 40000 0 11160    11252 STO +0 60100 0 00107
                      NT=NDK+NDM                                                    008  LM00009
 11253 CLA +0 50000 0 00105    11254 ADD +0 40000 0 00107    11255 STO +0 60100 0 00113
                      IINDEX.(LDKM,HDKM,LDMM,HDMM)                                  009  LM00010
 11256 TSX +0 07400 4 00003    11257 TXH +3 00000 0 00075    11260 TXH +3 00000 0 00070    11261 TXH +3 00000 0 00076
 11262 TXH +3 00000 0 00071
                      FIRST=0B                                                      010  LM00011
 11263 CLA +0 50000 0 11157    11264 STO +0 60100 0 00064
                 E'L                                                                011  LM00012
                 RTBASE=RI*NT-NT                                                    012  LM00013
 11265 LDQ +0 56000 0 00124    11266 MPY +0 20000 0 00113    11267 XCA +0 13100 0 00000    11270 SUB +0 40200 0 00113
 11271 STO +0 60100 0 00126
                 SRHMFD.(1,REL,UT,$DISKUT$,$(FILE)$,RERR)                           013  LM00014
 11272 TSX +0 07400 4 00012    11273 TXH +3 00000 0 11160    11274 TXH +3 00000 0 00123    11275 TXH +3 00000 0 11154
 11276 TXH +3 00000 0 11171    11277 TXH +3 00000 0 11177    11300 TXH +3 00000 0 00017
                 OPEN.(2,UT)                                                        014  LM00015
 11301 TSX +0 07400 4 00010    11302 TXH +3 00000 0 11161    11303 TXH +3 00000 0 11154
                 READ.(2,1,RERR,X,RERR,TUT(RTBASE),NDK)                             015  LM00016
 11304 CLA +0 50000 0 00126    11305 SUB +0 40200 0 11306    11306 TXH +3 00000 0 11126    11307 STA +0 62100 0 11316
 11310 TSX +0 07400 4 00011    11311 TXH +3 00000 0 11161    11312 TXH +3 00000 0 11160    11313 TXH +3 00000 0 00017
 11314 TXH +3 00000 0 11156    11315 TXH +3 00000 0 00017    11316 TXH +3 00000 0 00000    11317 TXH +3 00000 0 00105
                 TRUNC.(2,NDK+1,RERR,X,RERR)                                        016  LM00017
 11320 CLA +0 50000 0 00105    11321 ADD +0 40000 0 11160    11322 STO +0 60100 0 12152    11323 TSX +0 07400 4 00013
 11324 TXH +3 00000 0 11161    11325 TXH +3 00000 0 12152    11326 TXH +3 00000 0 00017    11327 TXH +3 00000 0 11156
 11330 TXH +3 00000 0 00017
                 CLOSE.(2,UT,RERR,X,CH)                                             017  LM00018
 11331 TSX +0 07400 4 00000    11332 TXH +3 00000 0 11161    11333 TXH +3 00000 0 11154    11334 TXH +3 00000 0 00017
 11335 TXH +3 00000 0 11156    11336 TXH +3 00000 0 00041
                 W'R CH                                                             018  LM00019
 11337 NZT -0 52000 0 00041    11340 TRA +0 02000 0 11362
                      COMBIN.(ENT,UT)                                               019  LM00020
 11341 TSX +0 07400 4 00001    11342 TXH +3 00000 0 00062    11343 TXH +3 00000 0 11154
                      WRITE.(1,REL,RERR,X,RERR,ENT,ENTLEN)                          020  LM00021
 11344 TSX +0 07400 4 00014    11345 TXH +3 00000 0 11160    11346 TXH +3 00000 0 00123    11347 TXH +3 00000 0 00017
 11350 TXH +3 00000 0 11156    11351 TXH +3 00000 0 00017    11352 TXH +3 00000 0 00062    11353 TXH +3 00000 0 00047
                      CLOSE.(1,UT,RERR,X,X)                                         021  LM00022
 11354 TSX +0 07400 4 00000    11355 TXH +3 00000 0 11160    11356 TXH +3 00000 0 11154    11357 TXH +3 00000 0 00017
 11360 TXH +3 00000 0 11156    11361 TXH +3 00000 0 11156
                 E'L                                                                022  LM00023
                 SRHMFD.(1,REL,UT,$DRUMUT$,$(FILE)$,RERR)                           023  LM00024
 11362 TSX +0 07400 4 00012    11363 TXH +3 00000 0 11160    11364 TXH +3 00000 0 00123    11365 TXH +3 00000 0 11154
 11366 TXH +3 00000 0 11172    11367 TXH +3 00000 0 11177    11370 TXH +3 00000 0 00017
                 OPEN.(2,UT)                                                        024  LM00025
 11371 TSX +0 07400 4 00010    11372 TXH +3 00000 0 11161    11373 TXH +3 00000 0 11154
                 READ.(2,1,RERR,X,RERR,TUT(RTBASE+NDK),NDM)                         025  LM00026
 11374 CLA +0 50000 0 00126    11375 ADD +0 40000 0 00105    11376 SUB +0 40200 0 11377    11377 TXH +3 00000 0 11126
 11400 STA +0 62100 0 11407    11401 TSX +0 07400 4 00011    11402 TXH +3 00000 0 11161    11403 TXH +3 00000 0 11160
 11404 TXH +3 00000 0 00017    11405 TXH +3 00000 0 11156    11406 TXH +3 00000 0 00017    11407 TXH +3 00000 0 00000
 11410 TXH +3 00000 0 00107
                 TRUNC.(2,NDM+1,RERR,X,RERR)                                        026  LM00027
 11411 CLA +0 50000 0 00107    11412 ADD +0 40000 0 11160    11413 STO +0 60100 0 12152    11414 TSX +0 07400 4 00013
 11415 TXH +3 00000 0 11161    11416 TXH +3 00000 0 12152    11417 TXH +3 00000 0 00017    11420 TXH +3 00000 0 11156
 11421 TXH +3 00000 0 00017
                 CLOSE.(2,UT,RERR,X,CH)                                             027  LM00028
 11422 TSX +0 07400 4 00000    11423 TXH +3 00000 0 11161    11424 TXH +3 00000 0 11154    11425 TXH +3 00000 0 00017
 11426 TXH +3 00000 0 11156    11427 TXH +3 00000 0 00041
                 W'R CH                                                             028  LM00029
 11430 NZT -0 52000 0 00041    11431 TRA +0 02000 0 11453
                      COMBIN.(ENT,UT)                                               029  LM00030
 11432 TSX +0 07400 4 00001    11433 TXH +3 00000 0 00062    11434 TXH +3 00000 0 11154
                      WRITE.(1,REL,RERR,X,RERR,ENT,ENTLEN)                          030  LM00031
 11435 TSX +0 07400 4 00014    11436 TXH +3 00000 0 11160    11437 TXH +3 00000 0 00123    11440 TXH +3 00000 0 00017
 11441 TXH +3 00000 0 11156    11442 TXH +3 00000 0 00017    11443 TXH +3 00000 0 00062    11444 TXH +3 00000 0 00047
                      CLOSE.(1,UT,RERR,X,X)                                         031  LM00032
 11445 TSX +0 07400 4 00000    11446 TXH +3 00000 0 11160    11447 TXH +3 00000 0 11154    11450 TXH +3 00000 0 00017
 11451 TXH +3 00000 0 11156    11452 TXH +3 00000 0 11156
                 E'L                                                                032  LM00033
                 RESTORE RETURN                                                     033  LM00034
 11453 TSX +0 07400 4 00005    11454 STR -1 00000 0 12146    11455 STR -1 00000 0 00000
                 F'N                                                                034  LM00035
 11456 TRA +0 02000 0 12146
      RERR       MPRINT.(3,$ ERROR READING TUT$)                                    035  LM00036
 11457 TSX +0 07400 4 00007    11460 TXH +3 00000 0 11162    11461 TXH +3 00000 0 11174    11462 TXH +3 00000 0 11175
 11463 TXH +3 00000 0 11173
                 EXIT.                                                              036  LM00037
 11464 TSX +0 07400 4 00002
                 ENTRY TO WTTUT.                                                    037  LM00039
 11465 TRA +0 02000 0 11470    11466 SXA +0 63400 2 12127    11467 TSX +0 07400 2 12127
                 SAVE RETURN                                                        038  LM00041
 11470 TSX +0 07400 4 00006    11471 STR -1 00000 0 12146    11472 STR -1 00000 0 00000
                 RI=I                                                               039  LM00042
 11473 CLA +0 50000 0 00024    11474 STO +0 60100 0 00124
                 RTBASE=RI*NT-NT                                                    040  LM00043
 11475 LDQ +0 56000 0 00124    11476 MPY +0 20000 0 00113    11477 XCA +0 13100 0 00000    11500 SUB +0 40200 0 00113
 11501 STO +0 60100 0 00126
                 SRHMFD.(1,X,UT,$DISKUT$,$(FILE)$,WERR)                             041  LM00044
 11502 TSX +0 07400 4 00012    11503 TXH +3 00000 0 11160    11504 TXH +3 00000 0 11156    11505 TXH +3 00000 0 11154
 11506 TXH +3 00000 0 11171    11507 TXH +3 00000 0 11177    11510 TXH +3 00000 0 00020
                 OPEN.(1,UT)                                                        042  LM00045
 11511 TSX +0 07400 4 00010    11512 TXH +3 00000 0 11160    11513 TXH +3 00000 0 11154
                 WRITE.(1,1,WERR,X,WERR,TUT(RTBASE),NDK)                            043  LM00046
 11514 CLA +0 50000 0 00126    11515 SUB +0 40200 0 11516    11516 TXH +3 00000 0 11126    11517 STA +0 62100 0 11526
 11520 TSX +0 07400 4 00014    11521 TXH +3 00000 0 11160    11522 TXH +3 00000 0 11160    11523 TXH +3 00000 0 00020
 11524 TXH +3 00000 0 11156    11525 TXH +3 00000 0 00020    11526 TXH +3 00000 0 00000    11527 TXH +3 00000 0 00105
                 CLOSE.(1,UT,WERR,X,X)                                              044  LM00047
 11530 TSX +0 07400 4 00000    11531 TXH +3 00000 0 11160    11532 TXH +3 00000 0 11154    11533 TXH +3 00000 0 00020
 11534 TXH +3 00000 0 11156    11535 TXH +3 00000 0 11156
                 SRHMFD.(1,X,UT,$DRUMUT$,$(FILE)$,WERR)                             045  LM00048
 11536 TSX +0 07400 4 00012    11537 TXH +3 00000 0 11160    11540 TXH +3 00000 0 11156    11541 TXH +3 00000 0 11154
 11542 TXH +3 00000 0 11172    11543 TXH +3 00000 0 11177    11544 TXH +3 00000 0 00020
                 OPEN.(1,UT)                                                        046  LM00049
 11545 TSX +0 07400 4 00010    11546 TXH +3 00000 0 11160    11547 TXH +3 00000 0 11154
                 WRITE.(1,1,WERR,X,WERR,TUT(RTBASE+NDK),NDM)                        047  LM00050
 11550 CLA +0 50000 0 00126    11551 ADD +0 40000 0 00105    11552 SUB +0 40200 0 11553    11553 TXH +3 00000 0 11126
 11554 STA +0 62100 0 11563    11555 TSX +0 07400 4 00014    11556 TXH +3 00000 0 11160    11557 TXH +3 00000 0 11160
 11560 TXH +3 00000 0 00020    11561 TXH +3 00000 0 11156    11562 TXH +3 00000 0 00020    11563 TXH +3 00000 0 00000
 11564 TXH +3 00000 0 00107
                 CLOSE.(1,UT,WERR,X,X)                                              048  LM00051
 11565 TSX +0 07400 4 00000    11566 TXH +3 00000 0 11160    11567 TXH +3 00000 0 11154    11570 TXH +3 00000 0 00020
 11571 TXH +3 00000 0 11156    11572 TXH +3 00000 0 11156
                 RESTORE RETURN                                                     049  LM00052
 11573 TSX +0 07400 4 00005    11574 STR -1 00000 0 12146    11575 STR -1 00000 0 00000
                 F'N                                                                050  LM00053
 11576 TRA +0 02000 0 12146
      WERR       MPRINT.(3,$ ERROR WRITING TUT$)                                    051  LM00054
 11577 TSX +0 07400 4 00007    11600 TXH +3 00000 0 11162    11601 TXH +3 00000 0 11174    11602 TXH +3 00000 0 11176
 11603 TXH +3 00000 0 11173
                 RESTORE RETURN                                                     052  LM00055
 11604 TSX +0 07400 4 00005    11605 STR -1 00000 0 12146    11606 STR -1 00000 0 00000
                 F'N                                                                053  LM00056
 11607 TRA +0 02000 0 12146
                 ENTRY TO RSTUT.                                                    054  LM00058
 11610 TRA +0 02000 0 11613    11611 SXA +0 63400 2 12127    11612 TSX +0 07400 2 12127
                 W'R FIRST                                                          055  LM00060
 11613 NZT -0 52000 0 00064    11614 TRA +0 02000 0 11667
                      NDK=NDKT*(HDKM-LDKM+1)/36+NDKT*(HDKM-LDKM+1)/1440+2           056  LM00061
 11615 CLA +0 50000 0 00070    11616 SUB +0 40200 0 00075    11617 ADD +0 40000 0 11160    11620 XCA +0 13100 0 00000
 11621 MPY +0 20000 0 00106    11622 PXD -0 75400 0 00000    11623 LLS +0 76300 0 00000    11624 DVP +0 22100 0 11167
 11625 STQ -0 60000 0 12152    11626 CLA +0 50000 0 00070    11627 SUB +0 40200 0 00075    11630 ADD +0 40000 0 11160
 11631 XCA +0 13100 0 00000    11632 MPY +0 20000 0 00106    11633 PXD -0 75400 0 00000    11634 LLS +0 76300 0 00000
 11635 DVP +0 22100 0 11166    11636 XCA +0 13100 0 00000    11637 ADD +0 40000 0 12152    11640 ADD +0 40000 0 11161
 11641 STO +0 60100 0 00105
                      NDM=NDMT*(HDMM-LDMM+1)/36+1                                   057  LM00062
 11642 CLA +0 50000 0 00071    11643 SUB +0 40200 0 00076    11644 ADD +0 40000 0 11160    11645 XCA +0 13100 0 00000
 11646 MPY +0 20000 0 00110    11647 PXD -0 75400 0 00000    11650 LLS +0 76300 0 00000    11651 DVP +0 22100 0 11166
 11652 XCA +0 13100 0 00000    11653 ADD +0 40000 0 11160    11654 STO +0 60100 0 00107
                      NT=NDK+NDM                                                    058  LM00063
 11655 CLA +0 50000 0 00105    11656 ADD +0 40000 0 00107    11657 STO +0 60100 0 00113
                      IINDEX.(LDKM,HDKM,LDMM,HDMM)                                  059  LM00064
 11660 TSX +0 07400 4 00003    11661 TXH +3 00000 0 00075    11662 TXH +3 00000 0 00070    11663 TXH +3 00000 0 00076
 11664 TXH +3 00000 0 00071
                      FIRST=0B                                                      060  LM00065
 11665 CLA +0 50000 0 11157    11666 STO +0 60100 0 00064
                 E'L                                                                061  LM00066
                 TBASE=I*NT-NT                                                      062  LM00067
 11667 LDQ +0 56000 0 00024    11670 MPY +0 20000 0 00113    11671 XCA +0 13100 0 00000    11672 SUB +0 40200 0 00113
 11673 STO +0 60100 0 00132
                 T'H RL, FOR J=1,1,J.G.NT                                           063  LM00068
 11674 CLA +0 50000 0 11160    11675 STO +0 60100 0 00073    11676 TRA +0 02000 0 11702    11677 CLA +0 50000 0 00073
 11700 ADD +0 40000 0 11160    11701 STO +0 60100 0 00073    11702 CLA +0 50000 0 00073    11703 SUB +0 40200 0 00113
 11704 TZE +0 10000 0 11706    11705 TPL +0 12000 0 11714
      RL         TUT(TBASE+J)=777777777777K                                         064  LM00069
 11706 CLA +0 50000 0 00132    11707 ADD +0 40000 0 00073    11710 PAX +0 73400 1 00000    11711 CLA +0 50000 0 11200
 11712 STO +0 60100 1 11126    11713 TRA +0 02000 0 11677
                 F'N                                                                065  LM00070
 11714 TRA +0 02000 0 12146
                 ENTRY TO ORTUT.                                                    066  LM00072
 11715 TRA +0 02000 0 11720    11716 SXA +0 63400 2 12127    11717 TSX +0 07400 2 12127
                 TBASE=I*NT-NT                                                      067  LM00074
 11720 LDQ +0 56000 0 00024    11721 MPY +0 20000 0 00113    11722 XCA +0 13100 0 00000    11723 SUB +0 40200 0 00113
 11724 STO +0 60100 0 00132
                 TBASE1=I1*NT-NT                                                    068  LM00075
 11725 LDQ +0 56000 0 00024    11726 MPY +0 20000 0 00113    11727 XCA +0 13100 0 00000    11730 SUB +0 40200 0 00113
 11731 STO +0 60100 0 00131
                 T'H OL, FOR J=1,1,J.G.NT                                           069  LM00076
 11732 CLA +0 50000 0 11160    11733 STO +0 60100 0 00073    11734 TRA +0 02000 0 11740    11735 CLA +0 50000 0 00073
 11736 ADD +0 40000 0 11160    11737 STO +0 60100 0 00073    11740 CLA +0 50000 0 00073    11741 SUB +0 40200 0 00113
 11742 TZE +0 10000 0 11744    11743 TPL +0 12000 0 11764
      OL         TUT(TBASE1+J)=TUT(TBASE1+J).A.TUT(TBASE+J)                         070  LM00077
 11744 CLA +0 50000 0 00132    11745 ADD +0 40000 0 00073    11746 STO +0 60100 0 12152    11747 CLA +0 50000 0 00131
 11750 ADD +0 40000 0 00073    11751 PAX +0 73400 1 00000    11752 LXA +0 53400 2 12152    11753 CAL -0 50000 1 11126
 11754 ANA -0 32000 2 11126    11755 SLW +0 60200 0 12152    11756 CLA +0 50000 0 00131    11757 ADD +0 40000 0 00073
 11760 PAX +0 73400 1 00000    11761 CLA +0 50000 0 12152    11762 STO +0 60100 1 11126    11763 TRA +0 02000 0 11735
                 F'N                                                                071  LM00078
 11764 TRA +0 02000 0 12146
                 ENTRY TO USEDT.                                                    072  LM00080
 11765 TRA +0 02000 0 11770    11766 SXA +0 63400 2 12127    11767 TSX +0 07400 2 12127
                 TBASE=I*NT-NT                                                      073  LM00082
 11770 LDQ +0 56000 0 00024    11771 MPY +0 20000 0 00113    11772 XCA +0 13100 0 00000    11773 SUB +0 40200 0 00113
 11774 STO +0 60100 0 00132
                 TRACK=I1                                                           074  LM00083
 11775 CLA +0 50000 0 00024    11776 STO +0 60100 0 00135
                 INDEX.(TRACK,W,M)                                                  075  LM00084
 11777 TSX +0 07400 4 00004    12000 TXH +3 00000 0 00135    12001 TXH +3 00000 0 11155    12002 TXH +3 00000 0 00104
                 W=W+1                                                              076  LM00085
 12003 CLA +0 50000 0 11155    12004 ADD +0 40000 0 11160    12005 STO +0 60100 0 11155
                 MOD=TRACK.RS.30                                                    077  LM00086
 12006 CAL -0 50000 0 11165    12007 STA +0 62100 0 12011    12010 CAL -0 50000 0 00135    12011 LGR -0 76500 0 00000
 12012 SLW +0 60200 0 00103
                 W'R MOD.G.HDKM .AND. MOD.NE.12K, TBASE=TBASE+NDK                   078  LM00087
 12013 CLA +0 50000 0 00103    12014 SUB +0 40200 0 11164    12015 TZE +0 10000 0 12025    12016 CLA +0 50000 0 00103
 12017 SUB +0 40200 0 00070    12020 TZE +0 10000 0 12025    12021 TMI -0 12000 0 12025    12022 CLA +0 50000 0 00132
 12023 ADD +0 40000 0 00105    12024 STO +0 60100 0 00132
                 U=TUT(TBASE+W) .A. M                                               079  LM00088
 12025 CLA +0 50000 0 00132    12026 ADD +0 40000 0 11155    12027 PAX +0 73400 1 00000    12030 CAL -0 50000 1 11126
 12031 ANA -0 32000 0 00104    12032 SLW +0 60200 0 00016
                 U=U.RS.5.V.U                                                       080  LM00089
 12033 CAL -0 50000 0 11163    12034 STA +0 62100 0 12036    12035 CAL -0 50000 0 00016    12036 LGR -0 76500 0 00000
 12037 ORA -0 50100 0 00016    12040 SLW +0 60200 0 00016
                 F'N .NOT. BU                                                       081  LM00090
 12041 NZT -0 52000 0 00016    12042 TRA +0 02000 0 12045    12043 PXD -0 75400 0 00000    12044 TRA +0 02000 0 12046
 12045 CLA +0 50000 0 11160    12046 TRA +0 02000 0 12146
                 EQUIVALENCE (U,BU)                                                 082  LM00091
                 BOOLEAN BU,CH                                                      083  LM00092
                 ENTRY TO USET.                                                     084  LM00094
 12047 TRA +0 02000 0 12052    12050 SXA +0 63400 2 12127    12051 TSX +0 07400 2 12127
                 TBASE=I*NT-NT                                                      085  LM00096
 12052 LDQ +0 56000 0 00024    12053 MPY +0 20000 0 00113    12054 XCA +0 13100 0 00000    12055 SUB +0 40200 0 00113
 12056 STO +0 60100 0 00132
                 TRACK=I1                                                           086  LM00097
 12057 CLA +0 50000 0 00024    12060 STO +0 60100 0 00135
                 INDEX.(TRACK,W,M)                                                  087  LM00098
 12061 TSX +0 07400 4 00004    12062 TXH +3 00000 0 00135    12063 TXH +3 00000 0 11155    12064 TXH +3 00000 0 00104
                 W=W+1                                                              088  LM00099
 12065 CLA +0 50000 0 11155    12066 ADD +0 40000 0 11160    12067 STO +0 60100 0 11155
                 MOD=TRACK.RS.30                                                    089  LM00100
 12070 CAL -0 50000 0 11165    12071 STA +0 62100 0 12073    12072 CAL -0 50000 0 00135    12073 LGR -0 76500 0 00000
 12074 SLW +0 60200 0 00103
                 W'R MOD.G.HDKM .AND. MOD.NE.12K, TBASE=TBASE+NDK                   090  LM00101
 12075 CLA +0 50000 0 00103    12076 SUB +0 40200 0 11164    12077 TZE +0 10000 0 12107    12100 CLA +0 50000 0 00103
 12101 SUB +0 40200 0 00070    12102 TZE +0 10000 0 12107    12103 TMI -0 12000 0 12107    12104 CLA +0 50000 0 00132
 12105 ADD +0 40000 0 00105    12106 STO +0 60100 0 00132
                 TUT(TBASE+W)=TUT(TBASE+W).A. .N.M                                  091  LM00102
 12107 CAL -0 50000 0 00104    12110 COM +0 76000 0 00006    12111 SLW +0 60200 0 12152    12112 CLA +0 50000 0 00132
 12113 ADD +0 40000 0 11155    12114 PAX +0 73400 1 00000    12115 CAL -0 50000 1 11126    12116 ANA -0 32000 0 12152
 12117 SLW +0 60200 0 12152    12120 CLA +0 50000 0 00132    12121 ADD +0 40000 0 11155    12122 PAX +0 73400 1 00000
 12123 CLA +0 50000 0 12152    12124 STO +0 60100 1 11126
                 F'N                                                                092  LM00103
 12125 TRA +0 02000 0 12146
                 NORMAL MODE IS INTEGER                                             093  LM00104
                 DIMENSION UT(20),TUT(4600),ENT(9)                                  094  LM00105
                 V'S FIRST=1B                                                       095  LM00106
 00064     +0 00000 0 00001
                 INSERT FILE SALEQU                                                 096  LM00107
                 V'S MFDORG=101212121212K                                           097  LM00002
 00101     +1 01212 1 21212
                 V'S LOADER=001212121212K                                           098  LM00003
 00077     +0 01212 1 21212
                 V'S ENTLEN=7                                                       099  LM00004
 00047     +0 00000 0 00007
                 V'S ENTRYL=20                                                      100  LM00005
 00050     +0 00000 0 00024
                 V'S NWPT=432                                                       101  LM00006
 00114     +0 00000 0 00660
                 V'S LDKM=0                                                         102  LM00007
 00075     +0 00000 0 00000
                 V'S HDKM=7                                                         103  LM00008
 00070     +0 00000 0 00007
                 V'S LDMM=8                                                         104  LM00009
 00076     +0 00000 0 00010
                 V'S HDMM=8                                                         105  LM00010
 00071     +0 00000 0 00010
                 V'S NDKT=10000                                                     106  LM00011
 00106     +0 00000 0 23420
                 V'S NDMT=400                                                       107  LM00012
 00110     +0 00000 0 00620
                 V'S NQW=3                                                          108  LM00013
 00112     +0 00000 0 00003
                 V'S PROBN=1                                                        109  LM00014
 00117     +0 00000 0 00001
                 V'S PROGN=2                                                        110  LM00015
 00120     +0 00000 0 00002
                 V'S ALPHA=3                                                        111  LM00016
 00021     +0 00000 0 00003
                 V'S BETA=4                                                         112  LM00017
 00036     +0 00000 0 00004
                 V'S DAYTIM=5                                                       113  LM00018
 00043     +0 00000 0 00005
                 V'S TIME=6                                                         114  LM00019
 00134     +0 00000 0 00006
                 V'S DATELU=7                                                       115  LM00020
 00042     +0 00000 0 00007
                 V'S AUTHOR=8                                                       116  LM00021
 00022     +0 00000 0 00010
                 V'S MODE=9                                                         117  LM00022
 00102     +0 00000 0 00011
                 V'S ILOCK=10                                                       118  LM00023
 00072     +0 00000 0 00012
                 V'S F=11                                                           119  LM00024
 00066     +0 00000 0 00013
                 V'S RCOUNT=12                                                      120  LM00025
 00122     +0 00000 0 00014
                 V'S S=13                                                           121  LM00026
 00130     +0 00000 0 00015
                 V'S W=14                                                           122  LM00027
 11155     +0 00000 0 00016
                 V'S R=15                                                           123  LM00028
 00125     +0 00000 0 00017
                 V'S NORECS=16                                                      124  LM00029
 00111     +0 00000 0 00020
                 V'S P=17                                                           125  LM00030
 00121     +0 00000 0 00021
                 V'S LCOUNT=18                                                      126  LM00031
 00074     +0 00000 0 00022
                 V'S LSTRK=19                                                       127  LM00032
 00100     +0 00000 0 00023
                 V'S FSTRK=20                                                       128  LM00033
 00067     +0 00000 0 00024
                 V'S TEMPMD=1K                                                      129  LM00034
 00133     +0 00000 0 00001
                 V'S PARTER=1K                                                      130  LM00035
 00116     +0 00000 0 00001
                 V'S DISKER=2K                                                      131  LM00036
 00045     +0 00000 0 00002
                 V'S BADBP=4K                                                       132  LM00037
 00024     +0 00000 0 00004
                 V'S BADTR=1K1                                                      133  LM00038
 00035     +0 00000 0 00010
                 V'S BADFP=2K1                                                      134  LM00039
 00025     +0 00000 0 00020
                 V'S BADTN=4K1                                                      135  LM00040
 00034     +0 00000 0 00040
                 V'S UNPTRK=1K2                                                     136  LM00041
 11127     +0 00000 0 00100
                 V'S RUSTRK=2K2                                                     137  LM00042
 00127     +0 00000 0 00200
                 V'S DIRTRN=4K2                                                     138  LM00043
 00044     +0 00000 0 00400
                 V'S DTATRN=1K3                                                     139  LM00044
 00046     +0 00000 0 01000
                 V'S NZITEM=2K3                                                     140  LM00045
 00115     +0 00000 0 02000
                 V'S BADF=4K3                                                       141  LM00046
 00026     +0 00000 0 04000
                 V'S BADLTK=1K4                                                     142  LM00047
 00030     +0 00000 0 10000
                 V'S FATAL=2K4                                                      143  LM00048
 00063     +0 00000 0 20000
                 V'S FORCE=4K4                                                      144  LM00049
 00065     +0 00000 0 40000
                 V'S BADATE=1K5                                                     145  LM00050
 00023     +0 00000 1 00000
                 V'S BADLCT=2K5                                                     146  LM00051
 00027     +0 00000 2 00000
                 V'S BADRCT=4K5                                                     147  LM00052
 00032     +0 00000 4 00000
                 V'S BADTC=1K6                                                      148  LM00053
 00033     +0 00001 0 00000
                 V'S BADP=2K6                                                       149  LM00054
 00031     +0 00002 0 00000
                 V'S BKCOR=4K6                                                      150  LM00055
 00040     +0 00004 0 00000
                 V'S BKBAD=1K7                                                      151  LM00056
 00037     +0 00010 0 00000
                 END OF FUNCTION                                                    152  LM00108
 12126 TSX +0 07400 4 00002    12127 TXH +3 00000 0 00000    12130 SXD -0 63400 1 12127    12131 SXA +0 63400 4 12146
 12132 CLA +0 50000 4 00001    12133 STA +0 62100 0 11207    12134 STA +0 62100 0 11473    12135 STA +0 62100 0 11667
 12136 STA +0 62100 0 11720    12137 STA +0 62100 0 11770    12140 STA +0 62100 0 12052    12141 CLA +0 50000 4 00002
 12142 STA +0 62100 0 11725    12143 STA +0 62100 0 11775    12144 STA +0 62100 0 12057    12145 TRA +0 02000 2 00001
 12146 AXT +0 77400 4 00000    12147 LXA +0 53400 2 12127    12150 LXD -0 53400 1 12127    12151 TRA +0 02000 4 00001


 SMFD4   BCD 12/14/70 1517.6    6219         00000
1     MAD PROGRAM LISTING ... ... ...                 FILE    SMFD   MAD            11/05/70    1933.8
-
                  EXTERNAL FUNCTION (I,FREL,ENTRY,A,B,ERROR)                                      *001 LM00001
                  ENTRY TO SRHMFD.                                                                *002 LM00002
                  (I,REL,ENTRY,ALPHA,BETA,ERROR)                                                       LM00003
                  WHENEVER FIRST                                                                  *003 LM00004
                       CANNED(PROBN)=$M.F.D.$                                                     *004 LM00005
                       CANNED(PROGN)=$(FILE)$                                                     *005 LM00006
                       DREAD.(MFDORG,BUF(500),ERC)                                                *006 LM00007
                       DWAIT.(ERR,ERC)                                                            *007 LM00008
                       JJ=500-NQW-3                                                               *008 LM00009
                       THROUGH CL, FOR J=1,1,J.G.ENTLEN                                           *009 LM00010
                       ENT(J)=BUF(JJ)                                                             *010 LM00011
      CL               JJ=JJ-1                                                                    *011 LM00012
                       EXPAND.(ENT,CANNED)                                                        *012 LM00013
                       FIRST=0B                                                                   *013 LM00014
                  END OF CONDITIONAL                                                              *014 LM00015
                  OPEN.(I,CANNED)                                                                 *015 LM00016
                  REL=NQW+1                                                                       *016 LM00017
      LOOP        READ.(I,REL,ERR,ERC,ERR,ENT,ENTLEN)                                             *017 LM00018
                  WHENEVER ENT(PROBN).E.$M.F.D.$ .AND. ENT(PROGN).E.$(FILE)$                      *018 LM00019
                       EXPAND.(ENT,CANNED)                                                        *019 LM00020
                  END OF CONDITIONAL                                                              *020 LM00021
                  WHENEVER A.E.ENT(PROBN) .AND. B.E.ENT(PROGN)                                    *021 LM00022
                       EXPAND.(ENT,ENTRY)                                                         *022 LM00023
                       ENTRY(PROBN)=$M.F.D.$                                                      *023 LM00024
                       ENTRY(PROGN)=$(FILE)$                                                      *024 LM00025
                       FREL=REL                                                                   *025 LM00026
                       FUNCTION RETURN                                                            *026 LM00027
                  END OF CONDITIONAL                                                              *027 LM00028
                  REL=REL+ENTLEN                                                                  *028 LM00029
                  TRANSFER TO LOOP                                                                *029 LM00030
                                                                                                       LM00031
      ERR         MPRINT.(3,SP,A,SP,B,$ NOT FOUND IN MFD$)                                        *030 LM00032
                  TRANSFER TO ERROR                                                               *031 LM00033
                  STATEMENT LABEL ERROR                                                           *032 LM00034
                  VECTOR VALUES SP=607777777777K                                                  *033 LM00035
                  VECTOR VALUES FIRST=1B                                                          *034 LM00036
                  DIMENSION CANNED(20),BUF(500)                                                   *035 LM00037
                  VECTOR VALUES ERC=0                                                             *036 LM00038
                  INSERT FILE SALEQU                                                              *037 LM00039
                   SALEQU                                                                         *037 LM00001
                  VECTOR VALUES MFDORG=101212121212K                                              *038 LM00002
                  VECTOR VALUES LOADER=001212121212K                                              *039 LM00003
                  VECTOR VALUES ENTLEN=7                                                          *040 LM00004
                  VECTOR VALUES ENTRYL=20                                                         *041 LM00005
                  VECTOR VALUES NWPT=432                                                          *042 LM00006
                  VECTOR VALUES LDKM=0                                                            *043 LM00007
                  VECTOR VALUES HDKM=7                                                            *044 LM00008
                  VECTOR VALUES LDMM=8                                                            *045 LM00009
                  VECTOR VALUES HDMM=8                                                            *046 LM00010
                  VECTOR VALUES NDKT=10000                                                        *047 LM00011
                  VECTOR VALUES NDMT=400                                                          *048 LM00012
                  VECTOR VALUES NQW=3                                                             *049 LM00013
                  VECTOR VALUES PROBN=1                                                           *050 LM00014
                  VECTOR VALUES PROGN=2                                                           *051 LM00015
                  VECTOR VALUES ALPHA=3                                                           *052 LM00016
                  VECTOR VALUES BETA=4                                                            *053 LM00017
                  VECTOR VALUES DAYTIM=5                                                          *054 LM00018
                  VECTOR VALUES TIME=6                                                            *055 LM00019
                  VECTOR VALUES DATELU=7                                                          *056 LM00020
                  VECTOR VALUES AUTHOR=8                                                          *057 LM00021
                  VECTOR VALUES MODE=9                                                            *058 LM00022
                  VECTOR VALUES ILOCK=10                                                          *059 LM00023
                  VECTOR VALUES F=11                                                              *060 LM00024
                  VECTOR VALUES RCOUNT=12                                                         *061 LM00025
                  VECTOR VALUES S=13                                                              *062 LM00026
                  VECTOR VALUES W=14                                                              *063 LM00027
                  VECTOR VALUES R=15                                                              *064 LM00028
                  VECTOR VALUES NORECS=16                                                         *065 LM00029
                  VECTOR VALUES P=17                                                              *066 LM00030
                  VECTOR VALUES LCOUNT=18                                                         *067 LM00031
                  VECTOR VALUES LSTRK=19                                                          *068 LM00032
                  VECTOR VALUES FSTRK=20                                                          *069 LM00033
                  VECTOR VALUES TEMPMD=1K                                                         *070 LM00034
                  VECTOR VALUES PARTER=1K                                                         *071 LM00035
                  VECTOR VALUES DISKER=2K                                                         *072 LM00036
                  VECTOR VALUES BADBP=4K                                                          *073 LM00037
                  VECTOR VALUES BADTR=1K1                                                         *074 LM00038
                  VECTOR VALUES BADFP=2K1                                                         *075 LM00039
                  VECTOR VALUES BADTN=4K1                                                         *076 LM00040
                  VECTOR VALUES UNPTRK=1K2                                                        *077 LM00041
                  VECTOR VALUES RUSTRK=2K2                                                        *078 LM00042
                  VECTOR VALUES DIRTRN=4K2                                                        *079 LM00043
                  VECTOR VALUES DTATRN=1K3                                                        *080 LM00044
                  VECTOR VALUES NZITEM=2K3                                                        *081 LM00045
                  VECTOR VALUES BADF=4K3                                                          *082 LM00046
                  VECTOR VALUES BADLTK=1K4                                                        *083 LM00047
                  VECTOR VALUES FATAL=2K4                                                         *084 LM00048
                  VECTOR VALUES FORCE=4K4                                                         *085 LM00049
                  VECTOR VALUES BADATE=1K5                                                        *086 LM00050
                  VECTOR VALUES BADLCT=2K5                                                        *087 LM00051
                  VECTOR VALUES BADRCT=4K5                                                        *088 LM00052
                  VECTOR VALUES BADTC=1K6                                                         *089 LM00053
                  VECTOR VALUES BADP=2K6                                                          *090 LM00054
                  VECTOR VALUES BKCOR=4K6                                                         *091 LM00055
                  VECTOR VALUES BKBAD=1K7                                                         *092 LM00056
                                                                                                       LM00057
                  DIMENSION ENT(7)                                                                *093 LM00040
                  NORMAL MODE IS INTEGER                                                          *094 LM00041
                  BOOLEAN FIRST                                                                   *095 LM00042
                  END OF FUNCTION                                                                 *096 LM00043
1MAD PROGRAM,TYPE NOV 1963      (ALL NUMBERS ARE OCTAL)
0TOTAL LOCATIONS   01347 TRANSFER VECTOR LENGTH  00007 PROGRAM BEGINS    01143
0 PROGRAM IS AN EXTERNAL FUNCTION.   THE FOLLOWING ARE ENTRIES
      SRHMFD 01144   0
0VARIABLE STORAGE (A=ARRAY,C=COMMON,E=ERASABLE,DIGIT=MODE)
      ALPHA  00012 A 1        BKBAD  00030 A 1        ERR    00010   4        LDMM   01100 A 1        PROBN  01114 A 1
      AUTHOR 00013 A 1        BKCOR  00031 A 1        FATAL  01064 A 1        LOADER 01101 A 1        PROGN  01115 A 1
      BADATE 00014 A 1        BUF    01016 A 1        FIRST  01065 A 2        LOOP   00011   4        P      01116 A 1
      BADBP  00015 A 1        CANNED 01043 A 1        FORCE  01066 A 1        LSTRK  01102 A 1        RCOUNT 01117 A 1
      BADFP  00016 A 1        CL     00007   4        F      01067 A 1        MFDORG 01103 A 1        REL    01120   1
      BADF   00017 A 1        DATELU 01044 A 1        FSTRK  01070 A 1        MODE   01104 A 1        R      01121 A 1
      BADLCT 00020 A 1        DAYTIM 01045 A 1        HDKM   01071 A 1        NDKT   01105 A 1        RUSTRK 01122 A 1
      BADLTK 00021 A 1        DIRTRN 01046 A 1        HDMM   01072 A 1        NDMT   01106 A 1        SP     01123 A 1
      BADP   00022 A 1        DISKER 01047 A 1        ILOCK  01073 A 1        NORECS 01107 A 1        S      01124 A 1
      BADRCT 00023 A 1        DTATRN 01050 A 1        JJ     01074   1        NQW    01110 A 1        TEMPMD 01125 A 1
      BADTC  00024 A 1        ENTLEN 01051 A 1        J      01075   1        NWPT   01111 A 1        TIME   01126 A 1
      BADTN  00025 A 1        ENTRYL 01052 A 1        LCOUNT 01076 A 1        NZITEM 01112 A 1        UNPTRK 01127 A 1
      BADTR  00026 A 1        ENT    01062 A 1        LDKM   01077 A 1        PARTER 01113 A 1        W      01130 A 1
      BETA   00027 A 1        ERC    01063 A 1
0FUNCTION DICTIONARY
      DREAD  00000   1        DWAIT  00001   1        EXIT   00002   1        EXPAND 00003   1        MPRINT 00004   1
      OPEN   00005   1        READ   00006   1
0ABSOLUTE CONSTANTS
 01137 -056044262460     01140 -066445246031     01141 -204546636026     01131 +000000000000     01133 +000000000003
 01134 +000000000764     01142 -342631432534     01136 -043326332433     01132 +000000000001     01135 +233000000000
0STATEMENT DICTIONARY
 00010 TXL -301312001301       00011 TXL -301236001226
0PROGRAM
                 EXTERNAL FUNCTION (I,FREL,ENTRY,A,B,ERROR)                         001  LM00001
                 ENTRY TO SRHMFD.                                                   002  LM00002
 01143 TRA +0 02000 0 01146    01144 SXA +0 63400 2 01314    01145 TSX +0 07400 2 01314
                 W'R FIRST                                                          003  LM00004
 01146 NZT -0 52000 0 01065    01147 TRA +0 02000 0 01220
                      CANNED(PROBN)=$M.F.D.$                                        004  LM00005
 01150 LXA +0 53400 1 01114    01151 CLA +0 50000 0 01136    01152 STO +0 60100 1 01043
                      CANNED(PROGN)=$(FILE)$                                        005  LM00006
 01153 LXA +0 53400 1 01115    01154 CLA +0 50000 0 01142    01155 STO +0 60100 1 01043
                      DREAD.(MFDORG,BUF(500),ERC)                                   006  LM00007
 01156 TSX +0 07400 4 00000    01157 TXH +3 00000 0 01103    01160 TXH +3 00000 0 00032    01161 TXH +3 00000 0 01063
                      DWAIT.(ERR,ERC)                                               007  LM00008
 01162 TSX +0 07400 4 00001    01163 TXH +3 00000 0 00010    01164 TXH +3 00000 0 01063
                      JJ=500-NQW-3                                                  008  LM00009
 01165 CLA +0 50000 0 01134    01166 SUB +0 40200 0 01110    01167 SUB +0 40200 0 01133    01170 STO +0 60100 0 01074
                      T'H CL, FOR J=1,1,J.G.ENTLEN                                  009  LM00010
 01171 CLA +0 50000 0 01132    01172 STO +0 60100 0 01075    01173 TRA +0 02000 0 01177    01174 CLA +0 50000 0 01075
 01175 ADD +0 40000 0 01132    01176 STO +0 60100 0 01075    01177 CLA +0 50000 0 01075    01200 SUB +0 40200 0 01051
 01201 TZE +0 10000 0 01203    01202 TPL +0 12000 0 01213
                      ENT(J)=BUF(JJ)                                                010  LM00011
 01203 LXA +0 53400 1 01075    01204 LXA +0 53400 2 01074    01205 CLA +0 50000 2 01016    01206 STO +0 60100 1 01062
      CL              JJ=JJ-1                                                       011  LM00012
 01207 CLA +0 50000 0 01074    01210 SUB +0 40200 0 01132    01211 STO +0 60100 0 01074    01212 TRA +0 02000 0 01174
                      EXPAND.(ENT,CANNED)                                           012  LM00013
 01213 TSX +0 07400 4 00003    01214 TXH +3 00000 0 01062    01215 TXH +3 00000 0 01043
                      FIRST=0B                                                      013  LM00014
 01216 CLA +0 50000 0 01131    01217 STO +0 60100 0 01065
                 E'L                                                                014  LM00015
                 OPEN.(I,CANNED)                                                    015  LM00016
 01220 TSX +0 07400 4 00005    01221 TXH +3 00000 0 00024    01222 TXH +3 00000 0 01043
                 REL=NQW+1                                                          016  LM00017
 01223 CLA +0 50000 0 01110    01224 ADD +0 40000 0 01132    01225 STO +0 60100 0 01120
      LOOP       READ.(I,REL,ERR,ERC,ERR,ENT,ENTLEN)                                017  LM00018
 01226 TSX +0 07400 4 00006    01227 TXH +3 00000 0 00024    01230 TXH +3 00000 0 01120    01231 TXH +3 00000 0 00010
 01232 TXH +3 00000 0 01063    01233 TXH +3 00000 0 00010    01234 TXH +3 00000 0 01062    01235 TXH +3 00000 0 01051
                 W'R ENT(PROBN).E.$M.F.D.$ .AND. ENT(PROGN).E.$(FILE)$              018  LM00019
 01236 LXA +0 53400 1 01115    01237 CLA +0 50000 1 01062    01240 SUB +0 40200 0 01142    01241 TNZ -0 10000 0 01251
 01242 LXA +0 53400 1 01114    01243 CLA +0 50000 1 01062    01244 SUB +0 40200 0 01136    01245 TNZ -0 10000 0 01251
                      EXPAND.(ENT,CANNED)                                           019  LM00020
 01246 TSX +0 07400 4 00003    01247 TXH +3 00000 0 01062    01250 TXH +3 00000 0 01043
                 E'L                                                                020  LM00021
                 W'R A.E.ENT(PROBN) .AND. B.E.ENT(PROGN)                            021  LM00022
 01251 LXA +0 53400 2 01115    01252 CLA +0 50000 0 00024    01253 SUB +0 40200 2 01062    01254 TNZ -0 10000 0 01275
 01255 LXA +0 53400 2 01114    01256 CLA +0 50000 0 00024    01257 SUB +0 40200 2 01062    01260 TNZ -0 10000 0 01275
                      EXPAND.(ENT,ENTRY)                                            022  LM00023
 01261 TSX +0 07400 4 00003    01262 TXH +3 00000 0 01062    01263 TXH +3 00000 0 00024
                      ENTRY(PROBN)=$M.F.D.$                                         023  LM00024
 01264 LXA +0 53400 1 01114    01265 CLA +0 50000 0 01136    01266 STO +0 60100 1 00024
                      ENTRY(PROGN)=$(FILE)$                                         024  LM00025
 01267 LXA +0 53400 1 01115    01270 CLA +0 50000 0 01142    01271 STO +0 60100 1 00024
                      FREL=REL                                                      025  LM00026
 01272 CLA +0 50000 0 01120    01273 STO +0 60100 0 00024
                      F'N                                                           026  LM00027
 01274 TRA +0 02000 0 01341
                 E'L                                                                027  LM00028
                 REL=REL+ENTLEN                                                     028  LM00029
 01275 CLA +0 50000 0 01120    01276 ADD +0 40000 0 01051    01277 STO +0 60100 0 01120
                 T'O LOOP                                                           029  LM00030
 01300 TRA +0 02000 0 00011
      ERR        MPRINT.(3,SP,A,SP,B,$ NOT FOUND IN MFD$)                           030  LM00032
 01301 TSX +0 07400 4 00004    01302 TXH +3 00000 0 01133    01303 TXH +3 00000 0 01123    01304 TXH +3 00000 0 00024
 01305 TXH +3 00000 0 01123    01306 TXH +3 00000 0 00024    01307 TXH +3 00000 0 01141    01310 TXH +3 00000 0 01140
 01311 TXH +3 00000 0 01137
                 T'O ERROR                                                          031  LM00033
 01312 TRA +0 02000 0 00024
                 STATEMENT LABEL ERROR                                              032  LM00034
                 V'S SP=607777777777K                                               033  LM00035
 01123     -2 07777 7 77777
                 V'S FIRST=1B                                                       034  LM00036
 01065     +0 00000 0 00001
                 DIMENSION CANNED(20),BUF(500)                                      035  LM00037
                 V'S ERC=0                                                          036  LM00038
 01063     +0 00000 0 00000
                 INSERT FILE SALEQU                                                 037  LM00039
                 V'S MFDORG=101212121212K                                           038  LM00002
 01103     +1 01212 1 21212
                 V'S LOADER=001212121212K                                           039  LM00003
 01101     +0 01212 1 21212
                 V'S ENTLEN=7                                                       040  LM00004
 01051     +0 00000 0 00007
                 V'S ENTRYL=20                                                      041  LM00005
 01052     +0 00000 0 00024
                 V'S NWPT=432                                                       042  LM00006
 01111     +0 00000 0 00660
                 V'S LDKM=0                                                         043  LM00007
 01077     +0 00000 0 00000
                 V'S HDKM=7                                                         044  LM00008
 01071     +0 00000 0 00007
                 V'S LDMM=8                                                         045  LM00009
 01100     +0 00000 0 00010
                 V'S HDMM=8                                                         046  LM00010
 01072     +0 00000 0 00010
                 V'S NDKT=10000                                                     047  LM00011
 01105     +0 00000 0 23420
                 V'S NDMT=400                                                       048  LM00012
 01106     +0 00000 0 00620
                 V'S NQW=3                                                          049  LM00013
 01110     +0 00000 0 00003
                 V'S PROBN=1                                                        050  LM00014
 01114     +0 00000 0 00001
                 V'S PROGN=2                                                        051  LM00015
 01115     +0 00000 0 00002
                 V'S ALPHA=3                                                        052  LM00016
 00012     +0 00000 0 00003
                 V'S BETA=4                                                         053  LM00017
 00027     +0 00000 0 00004
                 V'S DAYTIM=5                                                       054  LM00018
 01045     +0 00000 0 00005
                 V'S TIME=6                                                         055  LM00019
 01126     +0 00000 0 00006
                 V'S DATELU=7                                                       056  LM00020
 01044     +0 00000 0 00007
                 V'S AUTHOR=8                                                       057  LM00021
 00013     +0 00000 0 00010
                 V'S MODE=9                                                         058  LM00022
 01104     +0 00000 0 00011
                 V'S ILOCK=10                                                       059  LM00023
 01073     +0 00000 0 00012
                 V'S F=11                                                           060  LM00024
 01067     +0 00000 0 00013
                 V'S RCOUNT=12                                                      061  LM00025
 01117     +0 00000 0 00014
                 V'S S=13                                                           062  LM00026
 01124     +0 00000 0 00015
                 V'S W=14                                                           063  LM00027
 01130     +0 00000 0 00016
                 V'S R=15                                                           064  LM00028
 01121     +0 00000 0 00017
                 V'S NORECS=16                                                      065  LM00029
 01107     +0 00000 0 00020
                 V'S P=17                                                           066  LM00030
 01116     +0 00000 0 00021
                 V'S LCOUNT=18                                                      067  LM00031
 01076     +0 00000 0 00022
                 V'S LSTRK=19                                                       068  LM00032
 01102     +0 00000 0 00023
                 V'S FSTRK=20                                                       069  LM00033
 01070     +0 00000 0 00024
                 V'S TEMPMD=1K                                                      070  LM00034
 01125     +0 00000 0 00001
                 V'S PARTER=1K                                                      071  LM00035
 01113     +0 00000 0 00001
                 V'S DISKER=2K                                                      072  LM00036
 01047     +0 00000 0 00002
                 V'S BADBP=4K                                                       073  LM00037
 00015     +0 00000 0 00004
                 V'S BADTR=1K1                                                      074  LM00038
 00026     +0 00000 0 00010
                 V'S BADFP=2K1                                                      075  LM00039
 00016     +0 00000 0 00020
                 V'S BADTN=4K1                                                      076  LM00040
 00025     +0 00000 0 00040
                 V'S UNPTRK=1K2                                                     077  LM00041
 01127     +0 00000 0 00100
                 V'S RUSTRK=2K2                                                     078  LM00042
 01122     +0 00000 0 00200
                 V'S DIRTRN=4K2                                                     079  LM00043
 01046     +0 00000 0 00400
                 V'S DTATRN=1K3                                                     080  LM00044
 01050     +0 00000 0 01000
                 V'S NZITEM=2K3                                                     081  LM00045
 01112     +0 00000 0 02000
                 V'S BADF=4K3                                                       082  LM00046
 00017     +0 00000 0 04000
                 V'S BADLTK=1K4                                                     083  LM00047
 00021     +0 00000 0 10000
                 V'S FATAL=2K4                                                      084  LM00048
 01064     +0 00000 0 20000
                 V'S FORCE=4K4                                                      085  LM00049
 01066     +0 00000 0 40000
                 V'S BADATE=1K5                                                     086  LM00050
 00014     +0 00000 1 00000
                 V'S BADLCT=2K5                                                     087  LM00051
 00020     +0 00000 2 00000
                 V'S BADRCT=4K5                                                     088  LM00052
 00023     +0 00000 4 00000
                 V'S BADTC=1K6                                                      089  LM00053
 00024     +0 00001 0 00000
                 V'S BADP=2K6                                                       090  LM00054
 00022     +0 00002 0 00000
                 V'S BKCOR=4K6                                                      091  LM00055
 00031     +0 00004 0 00000
                 V'S BKBAD=1K7                                                      092  LM00056
 00030     +0 00010 0 00000
                 DIMENSION ENT(7)                                                   093  LM00040
                 NORMAL MODE IS INTEGER                                             094  LM00041
                 BOOLEAN FIRST                                                      095  LM00042
                 END OF FUNCTION                                                    096  LM00043
 01313 TSX +0 07400 4 00002    01314 TXH +3 00000 0 00000    01315 SXD -0 63400 1 01314    01316 SXA +0 63400 4 01341
 01317 CLA +0 50000 4 00001    01320 STO +0 60100 0 01221    01321 STO +0 60100 0 01227    01322 CLA +0 50000 4 00002
 01323 STA +0 62100 0 01273    01324 CLA +0 50000 4 00003    01325 STO +0 60100 0 01263    01326 STA +0 62100 0 01266
 01327 STA +0 62100 0 01271    01330 CLA +0 50000 4 00004    01331 STA +0 62100 0 01256    01332 STO +0 60100 0 01304
 01333 CLA +0 50000 4 00005    01334 STA +0 62100 0 01252    01335 STO +0 60100 0 01306    01336 CLA +0 50000 4 00006
 01337 STA +0 62100 0 01312    01340 TRA +0 02000 2 00001    01341 AXT +0 77400 4 00000    01342 LXA +0 53400 2 01314
 01343 LXD -0 53400 1 01314    01344 TRA +0 02000 4 00001


 RFIL4   BCD 12/14/70 1517.6   26445         00000
