1     MAD PROGRAM LISTING ... ... ...                 FILE  SEARCH   MAD            02/15/68    1512.1
-
                      PROGRAM TO SEARCH M.F.D./U.F.D. FOR FILES                                        LM00001
                           D.R. WIDRIG  NOV. 1966                                                      LM00002
                                                                                                       LM00003
                      THIS PROGRAM TRIES TO IMPROVE ON SPEED OF                                        LM00004
                      SEARCHES OVER THE ENTIRE FILE HIERARCHY.  A                                      LM00005
                      SMALL AMOUNT OF ASSOCIATIVE MEMORY TRIES TO                                      LM00006
                      KEEP ACTIVE OR USEFUL DIRECTORIES IN CORE.                                       LM00007
                      NOTE THAT THIS USES ALL OF MEMORY AS BUFFER SPACE.                               LM00008
                                                                                                       LM00009
                  EXTERNAL FUNCTION (PB,PG,ENTRY,N1,N2)                                           *001 LM00010
                  ENTRY TO SEARCH.                                                                *002 LM00011
                  READSW = 0B                                                                     *003 LM00012
                  TRANSFER TO GETARG                                                              *004 LM00013
                                                                                                       LM00014
                      SAMPLE CALL IS:                                                                  LM00015
                           ERCODE = SEARCH.(PROB,PROG,ENTRY,ALPHA,BETA)                                LM00016
                                                                                                       LM00017
                      IF ERCODE IS ZERO, THEN ENTRY(0) = ALPHA                                         LM00018
                           ENTRY(1) = BETA                                                             LM00019
                           ENTRY(2) = DLM                                                              LM00020
                           ENTRY(3) = DLU + AUTHNO                                                     LM00021
                           ETC.                                                                        LM00022
                      NON-ZERO ERROR CODES INCLUDE:                                                    LM00023
                           1.  PROB-PROG NOT IN M.F.D.                                                 LM00024
                           2.  ALPHA-BETA NOT IN PROB-PROG                                             LM00025
                           3.  I/O ERROR                                                               LM00026
                                                                                                       LM00027
                  ENTRY TO GETENT.                                                                *005 LM00028
                  READSW = 1B                                                                     *006 LM00029
                  TRANSFER TO GETARG                                                              *007 LM00030
                                                                                                       LM00031
                      SAMPLE CALL IS:                                                                  LM00032
                           ERCODE = GETENT.(PROB,PROG,ENTRY,N)                                         LM00033
                                                                                                       LM00034
                      IF ERCODE IS ZERO, THEN ENTRY(0) = ALPHA OF NTH SLOT                             LM00035
                           ENTRY(1) = BETA OF NTH SLOT                                                 LM00036
                           ENTRY(2) = DLM                                                              LM00037
                           ENTRY(3) = DLU + AUTHNO                                                     LM00038
                           ETC.                                                                        LM00039
                      NON-ZERO ERROR CODES INCLUDE:                                                    LM00040
                           1.  PROB-PROG NOT IN M.F.D.                                                 LM00041
                           2.  NOT USED                                                                LM00042
                           3.  I/O ERROR                                                               LM00043
                           4.  EOF REACHED OR EXCEEDED                                                 LM00044
                      AN 'N' OF ZERO IMPLIES THE NEXT SLOT PAST THE                                    LM00045
                      CURRENT SLOT.  THE CURRENT SLOT IS RESET TO THE                                  LM00046
                      FIRST SLOT EVERY TIME THE DIRECTORY                                              LM00047
                      IS PAGED IN OR AFTER EVERY EOF.                                                  LM00048
                                                                                                       LM00049
                  NORMAL MODE IS INTEGER                                                          *008 LM00050
                  BOOLEAN FIRST,READSW                                                            *009 LM00051
                                                                                                       LM00052
                  DIMENSION DIR(0),ATTDIR(1)                                                      *010 LM00053
                  DIMENSION LTH(11),FPB(11),FPG(11),TIME(11),REL(11)                              *011 LM00054
                                                                                                       LM00055
                  VECTOR VALUES FIRST = 1B                                                        *012 LM00056
                  VECTOR VALUES MZE = -0                                                          *013 LM00057
                  VECTOR VALUES NSLOTS = 425                                                      *014 LM00058
                  VECTOR VALUES MFD = $M.F.D.$,$(FILE)$                                           *015 LM00059
                  EQUIVALENCE (FILE,MFD(1)),(ENTNUM,FNAME1)                                       *016 LM00060
                  VECTOR VALUES UFD = $U.F.D.$                                                    *017 LM00061
                                                                                                       LM00062
                      SHORTEN SUBROUTINE LINKAGE, SETUP FOR SEARCH                                     LM00063
                                                                                                       LM00064
      GETARG      FPROBN = PB                                                                     *018 LM00065
                  FPROBT = FPROBN                                                                 *019 LM00066
                  FPROGN = PG                                                                     *020 LM00067
                  FPROGT = FPROGN                                                                 *021 LM00068
                  FNAME1 = N1                                                                     *022 LM00069
                  FNAME2 = N2                                                                     *023 LM00070
                  TIME = TIME + 1                                                                 *024 LM00071
                  OLDEST = TIME                                                                   *025 LM00072
                                                                                                       LM00073
                      IF SEARCHING, MAKE SPECIAL CHECKS                                                LM00074
                                                                                                       LM00075
                  WHENEVER .NOT. READSW                                                           *026 LM00076
                       WHENEVER (FNAME1.E.UFD) .AND. (FNAME2.E.FILE)                              *027 LM00077
                            FNAME1 = FPROBN                                                       *028 LM00078
                            FNAME2 = FPROGN                                                       *029 LM00079
                            FPROBN = MFD                                                          *030 LM00080
                            FPROGN = FILE                                                         *031 LM00081
                       END OF CONDITIONAL                                                         *032 LM00082
                  END OF CONDITIONAL                                                              *033 LM00083
                                                                                                       LM00084
                      IF FIRST CALL, SET UP WORK AREAS                                                 LM00085
                                                                                                       LM00086
                  WHENEVER FIRST                                                                  *034 LM00087
                       FIRST = 0B                                                                 *035 LM00088
                       LMAX = 7 * NSLOTS                                                          *036 LM00089
                       NDIR = (1K5 - GETMEM.(0))/LMAX                                             *037 LM00090
                       GETBUF.(DIR,LMAX*NDIR)                                                     *038 LM00091
                                                                                                       LM00092
                      CLEAR OUT ASSOCIATIVE MEMORY                                                     LM00093
                                                                                                       LM00094
                       THROUGH LOOP1, FOR I = 1,1,(I .G. NDIR)                                    *039 LM00095
                            FPB(I) = 0                                                            *040 LM00096
                            FPG(I) = 0                                                            *041 LM00097
                            TIME(I) = 0                                                           *042 LM00098
      LOOP1            CONTINUE                                                                   *043 LM00099
                  END OF CONDITIONAL                                                              *044 LM00100
                                                                                                       LM00101
                      SEE IF DIRECTORY IS ALREADY KNOWN                                                LM00102
                                                                                                       LM00103
                  THROUGH LOOP2, FOR I = 1,1,(I .G. NDIR)                                         *045 LM00104
                       WHENEVER (FPROBN.E.FPB(I)) .AND. (FPROGN.E.FPG(I))                         *046 LM00105
                            SLOT = I                                                              *047 LM00106
                            TRANSFER TO KNOWN                                                     *048 LM00107
                                                                                                       LM00108
                      KEEP TRACK OF MOST USELESS ENTRY                                                 LM00109
                                                                                                       LM00110
                       OR WHENEVER TIME(I) .L. OLDEST                                             *049 LM00111
                            OLDEST = TIME(I)                                                      *050 LM00112
                            SLOT = I                                                              *051 LM00113
                       END OF CONDITIONAL                                                         *052 LM00114
      LOOP2       CONTINUE                                                                        *053 LM00115
                                                                                                       LM00116
                      NOT KNOWN, REPLACE MOST USELESS ENTRY                                            LM00117
                      WITH ENTRY FROM M.F.D.                                                           LM00118
                                                                                                       LM00119
                  ATTNAM.(ATTDIR(1)...2)                                                          *054 LM00120
                  WHENEVER (ATTDIR(1) .NE. MFD)                                                   *055 LM00121
                                                                                                       LM00122
                      SPECIAL HELPFUL ACTION IF ATTACHED DIRECTORY                                     LM00123
                      AND TARGET DIRECTORY ARE THE SAME                                                LM00124
                                                                                                       LM00125
                       WHENEVER (ATTDIR(1).E.FPROBN) .AND. (ATTDIR(0).E.FPROGN)                   *056 LM00126
                            FPROBT = UFD                                                          *057 LM00127
                            FPROGT = FILE                                                         *058 LM00128
                            TRANSFER TO GULPIT                                                    *059 LM00129
                       END OF CONDITIONAL                                                         *060 LM00130
                                                                                                       LM00131
                      NOT CURRENTLY IN M.F.D., MOVE INTO IT                                            LM00132
                                                                                                       LM00133
                       ATTACH.(MFD,FILE)                                                          *061 LM00134
                       OPEN.($R$,FPROBN,FPROGN,MZE,MZE,ERR1)                                      *062 LM00135
                                                                                                       LM00136
                      ATTACH BACK AND CONTINUE                                                         LM00137
                                                                                                       LM00138
                       ATTACH.(ATTDIR(1),ATTDIR(0))                                               *063 LM00139
                       TRANSFER TO OPENED                                                         *064 LM00140
                                                                                                       LM00141
                      U.F.D. NOT IN M.F.D., TOO BAD                                                    LM00142
                                                                                                       LM00143
      ERR1             ATTACH.(ATTDIR(1),ATTDIR(0))                                               *065 LM00144
                       TRANSFER TO ERCOD1                                                         *066 LM00145
                  OTHERWISE                                                                       *067 LM00146
      GULPIT           OPEN.($R$,FPROBT,FPROGT,MZE,MZE,ERCOD1)                                    *068 LM00147
                  END OF CONDITIONAL                                                              *069 LM00148
                                                                                                       LM00149
                      READ WHOLE DIRECTORY IN ONE GULP                                                 LM00150
                                                                                                       LM00151
      OPENED      LTH = LMAX                                                                      *070 LM00152
                  RDFILE.(FPROBT,FPROGT,4,DIR(DIR+SLOT*LMAX)...LMAX,                              *071 LM00153
                1      MZE,LTH,ERCOD3)                                                            *071 LM00154
                  CLOSE.(FPROBT,FPROGT,ERCOD3)                                                    *072 LM00155
                                                                                                       LM00156
                      SET UP THIS ENTRY                                                                LM00157
                                                                                                       LM00158
                  LTH(SLOT) = LTH                                                                 *073 LM00159
                  FPB(SLOT) = FPROBN                                                              *074 LM00160
                  FPG(SLOT) = FPROGN                                                              *075 LM00161
                  REL(SLOT) = - 1                                                                 *076 LM00162
                                                                                                       LM00163
                      DIRECTORY IS IN CORE, SCAN THROUGH IT                                            LM00164
                                                                                                       LM00165
      KNOWN       BASE = DIR + SLOT*LMAX                                                          *077 LM00166
                  BOTTOM = BASE - LTH(SLOT)                                                       *078 LM00167
                  TIME(SLOT) = TIME                                                               *079 LM00168
                                                                                                       LM00169
                      IF READING ENTRIES, CHECK SLOT NUMBER                                            LM00170
                                                                                                       LM00171
                  WHENEVER READSW                                                                 *080 LM00172
                       WHENEVER ENTNUM .E. 0                                                      *081 LM00173
                            REL(SLOT) = REL(SLOT) + 1                                             *082 LM00174
                       OTHERWISE                                                                  *083 LM00175
                            REL(SLOT) = ENTNUM - 1                                                *084 LM00176
                       END OF CONDITIONAL                                                         *085 LM00177
                                                                                                       LM00178
                      GET AND VERIFY SLOT POINTER                                                      LM00179
                                                                                                       LM00180
                       I = BASE - REL(SLOT) * 7                                                   *086 LM00181
                       WHENEVER I .G. BOTTOM                                                      *087 LM00182
                            TRANSFER TO MOVE                                                      *088 LM00183
                       OTHERWISE                                                                  *089 LM00184
                            REL(SLOT) = -1                                                        *090 LM00185
                            TRANSFER TO ERCOD4                                                    *091 LM00186
                       END OF CONDITIONAL                                                         *092 LM00187
                  END OF CONDITIONAL                                                              *093 LM00188
                                                                                                       LM00189
                      SEARCH THROUGH EVERY ENTRY                                                       LM00190
                                                                                                       LM00191
                  THROUGH LOOP4, FOR I = BASE,-7,(I .LE. BOTTOM)                                  *094 LM00192
                       WHENEVER (DIR(I).NE.FNAME1) .OR. (DIR(I-1).NE.FNAME2),                     *095 LM00193
                1           TRANSFER TO LOOP4                                                     *095 LM00194
                                                                                                       LM00195
                      VIOLA, WE HAVE FOUND IT                                                          LM00196
                                                                                                       LM00197
      MOVE             THROUGH LOOP3, FOR J = 0,1,(J .GE. 7)                                      *096 LM00198
                            ENTRY(J) = DIR(I-J)                                                   *097 LM00199
      LOOP3            CONTINUE                                                                   *098 LM00200
                       TRANSFER TO ERCOD0                                                         *099 LM00201
      LOOP4       CONTINUE                                                                        *100 LM00202
                                                                                                       LM00203
                      ENTRY IS NOT THERE, TOO BAD                                                      LM00204
                                                                                                       LM00205
                  TRANSFER TO ERCOD2                                                              *101 LM00206
                                                                                                       LM00207
                      ERROR HANDLING                                                                   LM00208
                                                                                                       LM00209
      ERCOD4      FUNCTION RETURN 4                                                               *102 LM00210
                                                                                                       LM00211
      ERCOD3      FUNCTION RETURN 3                                                               *103 LM00212
                                                                                                       LM00213
      ERCOD2      FUNCTION RETURN 2                                                               *104 LM00214
                                                                                                       LM00215
      ERCOD1      FUNCTION RETURN 1                                                               *105 LM00216
                                                                                                       LM00217
      ERCOD0      FUNCTION RETURN 0                                                               *106 LM00218
                                                                                                       LM00219
                  END OF FUNCTION                                                                 *107 LM00220
1MAD PROGRAM,TYPE NOV 1963      (ALL NUMBERS ARE OCTAL)
0TOTAL LOCATIONS   00640 TRANSFER VECTOR LENGTH  00010 PROGRAM BEGINS    00162
0 PROGRAM IS AN EXTERNAL FUNCTION.   THE FOLLOWING ARE ENTRIES
      GETENT 00171   0        SEARCH 00163   0
0VARIABLE STORAGE (A=ARRAY,C=COMMON,E=ERASABLE,DIGIT=MODE)
      ATTDIR 00031 A 1        ERCOD4 00020   4        FPROBT 00070   1        LOOP1  00010   4        NSLOTS 00114 A 1
      BASE   00032   1        ERR1   00021   4        FPROGN 00071   1        LOOP2  00010   4        OLDEST 00115   1
      BOTTOM 00033   1        FILE   00011   1        FPROGT 00072   1        LOOP3  00010   4        OPENED 00027   4
      DIR    00034 A 1        FIRST  00035 A 2        GETARG 00022   4        LOOP4  00025   4        READSW 00116   2
      ENTNUM 00013   1        FNAME1 00013   1        GULPIT 00023   4        LTH    00111 A 1        REL    00132 A 1
      ERCOD0 00014   4        FNAME2 00036   1        I      00073   1        MFD    00012 A 1        SLOT   00133   1
      ERCOD1 00015   4        FPB    00052 A 1        J      00074   1        MOVE   00026   4        TIME   00147 A 1
      ERCOD2 00016   4        FPG    00066 A 1        KNOWN  00024   4        MZE    00112 A 1        UFD    00150 A 1
      ERCOD3 00017   4        FPROBN 00067   1        LMAX   00075   1        NDIR   00113   1
0FUNCTION DICTIONARY
      ATTACH 00000   1        ATTNAM 00001   1        CLOSE  00002   1        EXIT   00003   1        GETBUF 00004   1
      GETMEM 00005   1        OPEN   00006   1        RDFILE 00007   1
0ABSOLUTE CONSTANTS
 00154 +000000000003     00155 +000000000004     00161 -116060606060     00153 +000000000002     00157 +000000100000
 00156 +000000000007     00151 +000000000000     00152 +000000000001     00160 +233000000000
0STATEMENT DICTIONARY
 00014 TXL -300612000610       00015 TXL -300610000606       00016 TXL -300606000604       00017 TXL -300604000602
 00020 TXL -300602000600       00021 TXL -300406000403       00022 TXL -300200000176       00023 TXL -300417000410
 00024 TXL -300462000455       00025 TXL -300577000576       00026 TXL -300566000554       00027 TXL -300421000417
0PROGRAM
                 EXTERNAL FUNCTION (PB,PG,ENTRY,N1,N2)                              001  LM00010
                 E'O SEARCH.                                                        002  LM00011
 00162 TRA +0 02000 0 00165    00163 SXA +0 63400 2 00613    00164 TSX +0 07400 2 00613
                 READSW = 0B                                                        003  LM00012
 00165 CLA +0 50000 0 00151    00166 STO +0 60100 0 00116
                 T'O GETARG                                                         004  LM00013
 00167 TRA +0 02000 0 00022
                 E'O GETENT.                                                        005  LM00028
 00170 TRA +0 02000 0 00173    00171 SXA +0 63400 2 00613    00172 TSX +0 07400 2 00613
                 READSW = 1B                                                        006  LM00029
 00173 CLA +0 50000 0 00152    00174 STO +0 60100 0 00116
                 T'O GETARG                                                         007  LM00030
 00175 TRA +0 02000 0 00022
                 N'R                                                                008  LM00050
                 B'N FIRST,READSW                                                   009  LM00051
                 D'N DIR(0),ATTDIR(1)                                               010  LM00053
                 D'N LTH(11),FPB(11),FPG(11),TIME(11),REL(11)                       011  LM00054
                 V'S FIRST = 1B                                                     012  LM00056
 00035     +0 00000 0 00001
                 V'S MZE = -0                                                       013  LM00057
 00112     -0 00000 0 00000
                 V'S NSLOTS = 425                                                   014  LM00058
 00114     +0 00000 0 00651
                 V'S MFD = $M.F.D.$,$(FILE)$                                        015  LM00059
 00011     -3 42631 4 32534    00012     -0 43326 3 32433
                 E'E (FILE,MFD(1)),(ENTNUM,FNAME1)                                  016  LM00060
                 V'S UFD = $U.F.D.$                                                 017  LM00061
 00150     -2 43326 3 32433
      GETARG     FPROBN = PB                                                        018  LM00065
 00176 CLA +0 50000 0 00024    00177 STO +0 60100 0 00067
                 FPROBT = FPROBN                                                    019  LM00066
 00200 CLA +0 50000 0 00067    00201 STO +0 60100 0 00070
                 FPROGN = PG                                                        020  LM00067
 00202 CLA +0 50000 0 00024    00203 STO +0 60100 0 00071
                 FPROGT = FPROGN                                                    021  LM00068
 00204 CLA +0 50000 0 00071    00205 STO +0 60100 0 00072
                 FNAME1 = N1                                                        022  LM00069
 00206 CLA +0 50000 0 00024    00207 STO +0 60100 0 00013
                 FNAME2 = N2                                                        023  LM00070
 00210 CLA +0 50000 0 00024    00211 STO +0 60100 0 00036
                 TIME = TIME + 1                                                    024  LM00071
 00212 CLA +0 50000 0 00147    00213 ADD +0 40000 0 00152    00214 STO +0 60100 0 00147
                 OLDEST = TIME                                                      025  LM00072
 00215 CLA +0 50000 0 00147    00216 STO +0 60100 0 00115
                 W'R .NOT. READSW                                                   026  LM00076
 00217 ZET +0 52000 0 00116    00220 TRA +0 02000 0 00237
                      W'R (FNAME1.E.UFD) .AND. (FNAME2.E.FILE)                      027  LM00077
 00221 CLA +0 50000 0 00036    00222 SUB +0 40200 0 00011    00223 TNZ -0 10000 0 00237    00224 CLA +0 50000 0 00013
 00225 SUB +0 40200 0 00150    00226 TNZ -0 10000 0 00237
                           FNAME1 = FPROBN                                          028  LM00078
 00227 CLA +0 50000 0 00067    00230 STO +0 60100 0 00013
                           FNAME2 = FPROGN                                          029  LM00079
 00231 CLA +0 50000 0 00071    00232 STO +0 60100 0 00036
                           FPROBN = MFD                                             030  LM00080
 00233 CLA +0 50000 0 00012    00234 STO +0 60100 0 00067
                           FPROGN = FILE                                            031  LM00081
 00235 CLA +0 50000 0 00011    00236 STO +0 60100 0 00071
                      E'L                                                           032  LM00082
                 E'L                                                                033  LM00083
                 W'R FIRST                                                          034  LM00087
 00237 NZT -0 52000 0 00035    00240 TRA +0 02000 0 00305
                      FIRST = 0B                                                    035  LM00088
 00241 CLA +0 50000 0 00151    00242 STO +0 60100 0 00035
                      LMAX = 7 * NSLOTS                                             036  LM00089
 00243 LDQ +0 56000 0 00156    00244 MPY +0 20000 0 00114    00245 STQ -0 60000 0 00075
                      NDIR = (1K5 - GETMEM.(0))/LMAX                                037  LM00090
 00246 TSX +0 07400 4 00005    00247 TXH +3 00000 0 00151    00250 CHS +0 76000 0 00002    00251 ADD +0 40000 0 00157
 00252 LRS +0 76500 0 00043    00253 DVP +0 22100 0 00075    00254 STQ -0 60000 0 00113
                      GETBUF.(DIR,LMAX*NDIR)                                        038  LM00091
 00255 LDQ +0 56000 0 00075    00256 MPY +0 20000 0 00113    00257 STQ -0 60000 0 00635    00260 TSX +0 07400 4 00004
 00261 TXH +3 00000 0 00034    00262 TXH +3 00000 0 00635
                      T'H LOOP1, FOR I = 1,1,(I .G. NDIR)                           039  LM00095
 00263 CLA +0 50000 0 00152    00264 STO +0 60100 0 00073    00265 TRA +0 02000 0 00271    00266 CLA +0 50000 0 00073
 00267 ADD +0 40000 0 00152    00270 STO +0 60100 0 00073    00271 CLA +0 50000 0 00073    00272 SUB +0 40200 0 00113
 00273 TZE +0 10000 0 00275    00274 TPL +0 12000 0 00305
                           FPB(I) = 0                                               040  LM00096
 00275 LXA +0 53400 1 00073    00276 CLA +0 50000 0 00151    00277 STO +0 60100 1 00052
                           FPG(I) = 0                                               041  LM00097
 00300 CLA +0 50000 0 00151    00301 STO +0 60100 1 00066
                           TIME(I) = 0                                              042  LM00098
 00302 CLA +0 50000 0 00151    00303 STO +0 60100 1 00147
      LOOP1           C'E                                                           043  LM00099
 00304 TRA +0 02000 0 00266
                 E'L                                                                044  LM00100
                 T'H LOOP2, FOR I = 1,1,(I .G. NDIR)                                045  LM00104
 00305 CLA +0 50000 0 00152    00306 STO +0 60100 0 00073    00307 TRA +0 02000 0 00313    00310 CLA +0 50000 0 00073
 00311 ADD +0 40000 0 00152    00312 STO +0 60100 0 00073    00313 CLA +0 50000 0 00073    00314 SUB +0 40200 0 00113
 00315 TZE +0 10000 0 00317    00316 TPL +0 12000 0 00345
                      W'R (FPROBN.E.FPB(I)) .AND. (FPROGN.E.FPG(I))                 046  LM00105
 00317 LXA +0 53400 2 00073    00320 CLA +0 50000 0 00071    00321 SUB +0 40200 2 00066    00322 TNZ -0 10000 0 00332
 00323 CLA +0 50000 0 00067    00324 SUB +0 40200 2 00052    00325 TNZ -0 10000 0 00332
                           SLOT = I                                                 047  LM00106
 00326 CLA +0 50000 0 00073    00327 STO +0 60100 0 00133
                           T'O KNOWN                                                048  LM00107
 00330 TRA +0 02000 0 00024
                      O'R TIME(I) .L. OLDEST                                        049  LM00111
 00331 TRA +0 02000 0 00344    00332 LXA +0 53400 1 00073    00333 CLA +0 50000 1 00147    00334 SUB +0 40200 0 00115
 00335 TZE +0 10000 0 00344    00336 TPL +0 12000 0 00344
                           OLDEST = TIME(I)                                         050  LM00112
 00337 LXA +0 53400 2 00073    00340 CLA +0 50000 2 00147    00341 STO +0 60100 0 00115
                           SLOT = I                                                 051  LM00113
 00342 CLA +0 50000 0 00073    00343 STO +0 60100 0 00133
                      E'L                                                           052  LM00114
      LOOP2      C'E                                                                053  LM00115
 00344 TRA +0 02000 0 00310
                 ATTNAM.(ATTDIR(1)...2)                                             054  LM00120
 00345 TSX +0 07400 4 00001    00346 TIX +2 00153 0 00030
                 W'R (ATTDIR(1) .NE. MFD)                                           055  LM00121
 00347 CLA +0 50000 0 00030    00350 SUB +0 40200 0 00012    00351 TZE +0 10000 0 00410
                      W'R (ATTDIR(1).E.FPROBN) .AND. (ATTDIR(0).E.FPROGN)           056  LM00126
 00352 CLA +0 50000 0 00031    00353 SUB +0 40200 0 00071    00354 TNZ -0 10000 0 00365    00355 CLA +0 50000 0 00030
 00356 SUB +0 40200 0 00067    00357 TNZ -0 10000 0 00365
                           FPROBT = UFD                                             057  LM00127
 00360 CLA +0 50000 0 00150    00361 STO +0 60100 0 00070
                           FPROGT = FILE                                            058  LM00128
 00362 CLA +0 50000 0 00011    00363 STO +0 60100 0 00072
                           T'O GULPIT                                               059  LM00129
 00364 TRA +0 02000 0 00023
                      E'L                                                           060  LM00130
                      ATTACH.(MFD,FILE)                                             061  LM00134
 00365 TSX +0 07400 4 00000    00366 TXH +3 00000 0 00012    00367 TXH +3 00000 0 00011
                      OPEN.($R$,FPROBN,FPROGN,MZE,MZE,ERR1)                         062  LM00135
 00370 TSX +0 07400 4 00006    00371 TXH +3 00000 0 00161    00372 TXH +3 00000 0 00067    00373 TXH +3 00000 0 00071
 00374 TXH +3 00000 0 00112    00375 TXH +3 00000 0 00112    00376 TXH +3 00000 0 00021
                      ATTACH.(ATTDIR(1),ATTDIR(0))                                  063  LM00139
 00377 TSX +0 07400 4 00000    00400 TXH +3 00000 0 00030    00401 TXH +3 00000 0 00031
                      T'O OPENED                                                    064  LM00140
 00402 TRA +0 02000 0 00027
      ERR1            ATTACH.(ATTDIR(1),ATTDIR(0))                                  065  LM00144
 00403 TSX +0 07400 4 00000    00404 TXH +3 00000 0 00030    00405 TXH +3 00000 0 00031
                      T'O ERCOD1                                                    066  LM00145
 00406 TRA +0 02000 0 00015
                 O'E                                                                067  LM00146
 00407 TRA +0 02000 0 00417
      GULPIT          OPEN.($R$,FPROBT,FPROGT,MZE,MZE,ERCOD1)                       068  LM00147
 00410 TSX +0 07400 4 00006    00411 TXH +3 00000 0 00161    00412 TXH +3 00000 0 00070    00413 TXH +3 00000 0 00072
 00414 TXH +3 00000 0 00112    00415 TXH +3 00000 0 00112    00416 TXH +3 00000 0 00015
                 E'L                                                                069  LM00148
      OPENED     LTH = LMAX                                                         070  LM00152
 00417 CLA +0 50000 0 00075    00420 STO +0 60100 0 00111
                 RDFILE.(FPROBT,FPROGT,4,DIR(DIR+SLOT*LMAX)...LMAX,                 071  LM00153
                1     MZE,LTH,ERCOD3)                                               071  LM00154
 00421 LDQ +0 56000 0 00133    00422 MPY +0 20000 0 00075    00423 XCA +0 13100 0 00000    00424 ADD +0 40000 0 00034
 00425 SUB +0 40200 0 00426    00426 TXH +3 00000 0 00034    00427 STA +0 62100 0 00434    00430 TSX +0 07400 4 00007
 00431 TXH +3 00000 0 00070    00432 TXH +3 00000 0 00072    00433 TXH +3 00000 0 00155    00434 TIX +2 00075 0 00000
 00435 TXH +3 00000 0 00112    00436 TXH +3 00000 0 00111    00437 TXH +3 00000 0 00017
                 CLOSE.(FPROBT,FPROGT,ERCOD3)                                       072  LM00155
 00440 TSX +0 07400 4 00002    00441 TXH +3 00000 0 00070    00442 TXH +3 00000 0 00072    00443 TXH +3 00000 0 00017
                 LTH(SLOT) = LTH                                                    073  LM00159
 00444 LXA +0 53400 1 00133    00445 CLA +0 50000 0 00111    00446 STO +0 60100 1 00111
                 FPB(SLOT) = FPROBN                                                 074  LM00160
 00447 CLA +0 50000 0 00067    00450 STO +0 60100 1 00052
                 FPG(SLOT) = FPROGN                                                 075  LM00161
 00451 CLA +0 50000 0 00071    00452 STO +0 60100 1 00066
                 REL(SLOT) = - 1                                                    076  LM00162
 00453 CLS +0 50200 0 00152    00454 STO +0 60100 1 00132
      KNOWN      BASE = DIR + SLOT*LMAX                                             077  LM00166
 00455 LDQ +0 56000 0 00133    00456 MPY +0 20000 0 00075    00457 XCA +0 13100 0 00000    00460 ADD +0 40000 0 00034
 00461 STO +0 60100 0 00032
                 BOTTOM = BASE - LTH(SLOT)                                          078  LM00167
 00462 LXA +0 53400 2 00133    00463 CLA +0 50000 0 00032    00464 SUB +0 40200 2 00111    00465 STO +0 60100 0 00033
                 TIME(SLOT) = TIME                                                  079  LM00168
 00466 LXA +0 53400 1 00133    00467 CLA +0 50000 0 00147    00470 STO +0 60100 1 00147
                 W'R READSW                                                         080  LM00172
 00471 NZT -0 52000 0 00116    00472 TRA +0 02000 0 00527
                      W'R ENTNUM .E. 0                                              081  LM00173
 00473 CLA +0 50000 0 00013    00474 SUB +0 40200 0 00151    00475 TNZ -0 10000 0 00502
                           REL(SLOT) = REL(SLOT) + 1                                082  LM00174
 00476 CLA +0 50000 1 00132    00477 ADD +0 40000 0 00152    00500 STO +0 60100 1 00132
                      O'E                                                           083  LM00175
 00501 TRA +0 02000 0 00506
                           REL(SLOT) = ENTNUM - 1                                   084  LM00176
 00502 CLA +0 50000 0 00013    00503 SUB +0 40200 0 00152    00504 LXA +0 53400 1 00133    00505 STO +0 60100 1 00132
                      E'L                                                           085  LM00177
                      I = BASE - REL(SLOT) * 7                                      086  LM00181
 00506 LXA +0 53400 1 00133    00507 LDQ +0 56000 1 00132    00510 MPY +0 20000 0 00156    00511 XCA +0 13100 0 00000
 00512 CHS +0 76000 0 00002    00513 ADD +0 40000 0 00032    00514 STO +0 60100 0 00073
                      W'R I .G. BOTTOM                                              087  LM00182
 00515 CLA +0 50000 0 00073    00516 SUB +0 40200 0 00033    00517 TZE +0 10000 0 00523    00520 TMI -0 12000 0 00523
                           T'O MOVE                                                 088  LM00183
 00521 TRA +0 02000 0 00026
                      O'E                                                           089  LM00184
 00522 TRA +0 02000 0 00527
                           REL(SLOT) = -1                                           090  LM00185
 00523 CLS +0 50200 0 00152    00524 LXA +0 53400 1 00133    00525 STO +0 60100 1 00132
                           T'O ERCOD4                                               091  LM00186
 00526 TRA +0 02000 0 00020
                      E'L                                                           092  LM00187
                 E'L                                                                093  LM00188
                 T'H LOOP4, FOR I = BASE,-7,(I .LE. BOTTOM)                         094  LM00192
 00527 CLA +0 50000 0 00032    00530 STO +0 60100 0 00073    00531 TRA +0 02000 0 00535    00532 CLS +0 50200 0 00156
 00533 ADD +0 40000 0 00073    00534 STO +0 60100 0 00073    00535 CLA +0 50000 0 00073    00536 SUB +0 40200 0 00033
 00537 TZE +0 10000 0 00577    00540 TMI -0 12000 0 00577
                      W'R (DIR(I).NE.FNAME1) .OR. (DIR(I-1).NE.FNAME2),             095  LM00193
                1          T'O LOOP4                                                095  LM00194
 00541 CLA +0 50000 0 00073    00542 SUB +0 40200 0 00152    00543 PAX +0 73400 1 00000    00544 CLA +0 50000 1 00034
 00545 SUB +0 40200 0 00036    00546 TNZ -0 10000 0 00553    00547 LXA +0 53400 1 00073    00550 CLA +0 50000 1 00034
 00551 SUB +0 40200 0 00013    00552 TZE +0 10000 0 00554    00553 TRA +0 02000 0 00025
      MOVE            T'H LOOP3, FOR J = 0,1,(J .GE. 7)                             096  LM00198
 00554 CLA +0 50000 0 00151    00555 STO +0 60100 0 00074    00556 TRA +0 02000 0 00562    00557 CLA +0 50000 0 00074
 00560 ADD +0 40000 0 00152    00561 STO +0 60100 0 00074    00562 CLA +0 50000 0 00074    00563 SUB +0 40200 0 00156
 00564 TZE +0 10000 0 00575    00565 TPL +0 12000 0 00575
                           ENTRY(J) = DIR(I-J)                                      097  LM00199
 00566 CLA +0 50000 0 00073    00567 SUB +0 40200 0 00074    00570 LXA +0 53400 1 00074    00571 PAX +0 73400 2 00000
 00572 CLA +0 50000 2 00034    00573 STO +0 60100 1 00024
      LOOP3           C'E                                                           098  LM00200
 00574 TRA +0 02000 0 00557
                      T'O ERCOD0                                                    099  LM00201
 00575 TRA +0 02000 0 00014
      LOOP4      C'E                                                                100  LM00202
 00576 TRA +0 02000 0 00532
                 T'O ERCOD2                                                         101  LM00206
 00577 TRA +0 02000 0 00016
      ERCOD4     F'N 4                                                              102  LM00210
 00600 CLA +0 50000 0 00155    00601 TRA +0 02000 0 00631
      ERCOD3     F'N 3                                                              103  LM00212
 00602 CLA +0 50000 0 00154    00603 TRA +0 02000 0 00631
      ERCOD2     F'N 2                                                              104  LM00214
 00604 CLA +0 50000 0 00153    00605 TRA +0 02000 0 00631
      ERCOD1     F'N 1                                                              105  LM00216
 00606 CLA +0 50000 0 00152    00607 TRA +0 02000 0 00631
      ERCOD0     F'N 0                                                              106  LM00218
 00610 CLA +0 50000 0 00151    00611 TRA +0 02000 0 00631
                 E'N                                                                107  LM00220
 00612 TSX +0 07400 4 00003    00613 TXH +3 00000 0 00000    00614 SXD -0 63400 1 00613    00615 SXA +0 63400 4 00631
 00616 CLA +0 50000 4 00001    00617 STA +0 62100 0 00176    00620 CLA +0 50000 4 00002    00621 STA +0 62100 0 00202
 00622 CLA +0 50000 4 00003    00623 STA +0 62100 0 00573    00624 CLA +0 50000 4 00004    00625 STA +0 62100 0 00206
 00626 CLA +0 50000 4 00005    00627 STA +0 62100 0 00210    00630 TRA +0 02000 2 00001    00631 AXT +0 77400 4 00000
 00632 LXA +0 53400 2 00613    00633 LXD -0 53400 1 00613    00634 TRA +0 02000 4 00001
1            ROUTINE TO GET A BUFFER AREA BY EXPANDING MEMORY BOUND                              PAGE 1
                           D.R. WIDRIG  JUNE 1966

                       00004         ENTRY   GETBUF        GET A BUFFER

                                     EXTERN  GETMEM,SETMEM

                                             CALLING SEQUENCE IS..  GETBUF.(BUFF,N)
                                             UPON RETURN, THE CALLER MAY USE THE
                                             AREA BY STATEMENTS OF THE FORM..  X = BUFF(BUFF+I)
                                             WHERE THE I'TH ELEMENT IS INTENDED

        TRANSFER VECTOR
      00000  272563442544     GETMEM
      00001  622563442544     SETMEM

            LINKAGE DIRECTOR
      00002  000000000000
      00003  272563226426

      00004  0636 00 4 00024  GETBUF SCA     X4,4          SAVE LINKAGE
      00005  0634 00 1 00025         SXA     X1,1          AND IR1
      00006  0535 00 1 00024         LAC     X4,1          SET IR1 TO IR4 (THE CALLER)

      00007  0074 00 4 00000         TSX     GETMEM,4      GET CURRENT MEMORY BOUND
      00010  0601 00 0 00027         STO     OLDMEM        SAVE OLD MEMORY BOUND
      00011  0400 60 1 00002         ADD*    2,1           ALLOW FOR USER'S DEMAND
      00012  0734 00 4 00000         PAX     0,4           SAVE COMPLEMENT OF THIS VALUE
      00013 -0636 00 4 00020         SCD     TXI,4         ..
      00014  0400 00 0 00030         ADD     =1            ALLOW FOR BUFF(0)
      00015  0074 00 4 00001         TSX     SETMEM,4      RAISE THE ROOF

      00016 -0500 00 1 00001         CAL     1,1           GET BASE POINTER
      00017  0734 00 4 00000         PAX     0,4           ..
      00020  1 00000 4 00021  TXI    TXI     *+1,4,**      DECREMENT BY AMOUNT OF STORAGE
      00021  0754 00 4 00000         PXA     0,4           SET THIS VALUE IN USER'S PROGRAM
      00022  0602 60 1 00001         SLW*    1,1           ..
      00023  0500 00 0 00027         CLA     OLDMEM        RETURN OLD MEMORY BOUND

      00024 -0774 00 4 00000  X4     AXC     **,4          RESTORE LINKAGE
      00025  0774 00 1 00000  X1     AXT     **,1          AND IR1
      00026  0020 00 4 00003         TRA     3,4           RETURN

      00027                   OLDMEM BSS     1             STORAGE FOR OLD MEMORY BOUND

                                     END

        LITERALS
      00030  000000000001
1            ROUTINE TO GET A BUFFER AREA BY EXPANDING MEMORY BOUND                              PAGE 1
                        POST PROCESSOR ASSEMBLY DATA

         31 IS THE FIRST LOCATION NOT USED BY THIS PROGRAM

0REFERENCES TO DEFINED SYMBOLS
         25     X1     5
         24     X4     4,    6
         20    TXI    13
          4 GETBUF     0
          0 GETMEM     7
         27 OLDMEM    10,   23
          1 SETMEM    15

0 NO ERROR IN ABOVE ASSEMBLY.


LMSORT   BCD 09/20/68 0220.1   11042         00000
1            LMSORT FAP            BY MICHAEL R COMER                                            PAGE 1

                              *      MACROS


                                     INSERT  MRC1A1
                              OPEN   MACRO   NAME1,NAME2,STATUS,IOERR,ERCODE
                                     TSX     $OPEN,4
                                     PTH     =H'STATUS
                                     PTH     NAME1
                                     PTH     NAME2
                                     PTH     =0
                                     PTH     =2
                                     IRP     IOERR
                                     PTH     IOERR
                                     PTH     ERCODE
                                     IRP
                              OPEN   END
                              *
                              BUFFER MACRO   NAME1,NAME2,LOC
                                     TSX     $BUFFER,4
                                     PTH     NAME1
                                     PTH     NAME2
                                     PTH     LOC,,432
                              BUFFER END
                              *
                              RDFILE MACRO   NM1,NM2,RELLOC,PTHADD,BEGLOC,LEN,EOF,EOFCT,IOERR,ERCODE
                                     TSX     $RDFILE,4
                                     PTH     NM1
                                     PTH     NM2
                                     PTH     RELLOC
                              PTHADD PTH     BEGLOC,,LEN
                                     PTH     EOF
                                     PTH     EOFCT
                                     IRP     IOERR
                                     PTH     IOERR
                                     PTH     ERCODE
                                     IRP
                              RDFILE END
                              *
                              WRFILE MACRO   NAME1,NAME2,RELLOC,PTHADD,BEGLOC,LENGTH,IOERR,ERCODE
                                     TSX     $WRFILE,4
                                     PTH     NAME1
                                     PTH     NAME2
                                     PTH     RELLOC
                              PTHADD PTH     BEGLOC,,LENGTH
                                     PTH     =-0
                                     PTH     =-0
                                     IRP     IOERR
                                     PTH     IOERR
                                     PTH     ERCODE
                                     IRP
                              WRFILE END
                              *
                              RDWAIT MACRO   NM1,NM2,RELLOC,PTHADD,BEGLOC,LEN,EOF,EOFCT,IOERR,ERCODE
                                     TSX     $RDWAIT,4
                                     PTH     NM1
                                     PTH     NM2
1            LMSORT FAP            BY MICHAEL R COMER                                            PAGE 2

                                     PTH     RELLOC
                              PTHADD PTH     BEGLOC,,LEN
                                     PTH     EOF
                                     PTH     EOFCT
                                     IRP     IOERR
                                     PTH     IOERR
                                     PTH     ERCODE
                                     IRP
                              RDWAIT END
                              *
                              WRWAIT MACRO   NAME1,NAME2,RELLOC,PTHADD,BEGLOC,LENGTH,IOERR,ERCODE
                                     TSX     $WRWAIT,4
                                     PTH     NAME1
                                     PTH     NAME2
                                     PTH     RELLOC
                              PTHADD PTH     BEGLOC,,LENGTH
                                     PTH     =-0
                                     PTH     =-0
                                     IRP     IOERR
                                     PTH     IOERR
                                     PTH     ERCODE
                                     IRP
                              WRWAIT END
                              *
                              FWAIT  MACRO   NAME1,NAME2
                                     TSX     $FWAIT,4
                                     PTH     NAME1
                                     PTH     NAME2
                              FWAIT  END
                              *
                              CLOSE  MACRO   NAME1,NAME2,IOERR,ERCODE
                                     TSX     $CLOSE,4
                                     PTH     NAME1
                                     PTH     NAME2
                                     IRP     IOERR
                                     PTH     IOERR
                                     PTH     ERCODE
                                     IRP
                              CLOSE  END
                              *
                              DELFIL MACRO   NAME1,NAME2,IOERR,ERCODE
                                     TSX     $DELFIL,4
                                     PTH     NAME1
                                     PTH     NAME2
                                     IRP     IOERR
                                     PTH     IOERR
                                     PTH     ERCODE
                                     IRP
                              DELFIL END
                              *
                              CHFILE MACRO   OLDNM1,OLDNM2,NEWMOD,NEWNM1,NEWNM2,IOERR,ERCODE
                                     TSX     $CHFILE,4
                                     PTH     OLDNM1
                                     PTH     OLDNM2
                                     PTH     NEWMOD
                                     PTH     NEWNM1
1            LMSORT FAP            BY MICHAEL R COMER                                            PAGE 3

                                     PTH     NEWNM2
                                     IRP     IOERR
                                     PTH     IOERR
                                     PTH     ERCODE
                                     IRP
                              CHFILE END
                              *
                              PRCOMT MACRO   N,MESS
                                     TSX     $.PCOMT,4
                                     PTH     N
                                     BCI     N,MESS
                              PRCOMT END
                              *
                              *
                              GETCOM MACRO   N,NOCOM,COM
                                     TSX     $GETCOM,4
                                     PZE     N
                                     LAS     =O777777777777
                                     TRA     NOCOM
                                     TRA     NOCOM
                                     SLW     COM
                              GETCOM END
                              *

                              TIMER  MACRO   MXTIME
                                     TSX     $TIMER,4
                                     PTH     *+3
                                     PZE     *+3
                                     TRA     *+32
                                     PZE     MXTIME*60
                                     TSX     $JOBTM,4
                                     PTH     ..TIME
                                     LDQ     ..TIME
                                     ZAC
                                     DVP     =6
                                     STQ     ..TIME
                                     TSX     $DERBC,4
                                     PZE     ..TIME
                                     LGR     6
                                     ALS     6
                                     ORA     =H00000.
                                     LGL     6
                                     SLW     ..TIME
                                     TSX     $BZEL,4
                                     PZE     ..TIME
                                     STO     ..TIME
                                     TSX     $WRFLXA,4
                                     PZE     ..TIME,,1
                                     PRCOMT  5,( SECONDS HAVE ELAPSED.)
                                     TSX     $TIMER,4
                                     PTH     *+3
                                     PZE     *-27
                                     TRA     $RSTRTN
                                     PZE     MXTIME*60
                              TIMER  END
                              *
1            LMSORT FAP            BY MICHAEL R COMER                                            PAGE 4

                                     INSERT  MRC2A1
                              *
                              SAVEX  MACRO   X
                                     SXA     X'1,1
                                     SXA     X'2,2
                                     SXA     X'3,3
                                     SXA     X'4,4
                                     SXA     X'5,5
                                     SXA     X'6,6
                                     SXA     X'7,7
                              SAVEX  END
                              *
                              RESETX MACRO   X1,X2,X3,X4,X5,X6,X7
                              X1     AXT     **,1
                              X2     AXT     **,2
                              X3     AXT     **,3
                              X4     AXT     **,4
                              X5     AXT     **,5
                              X6     AXT     **,6
                              X7     AXT     **,7
                              RESETX END
                              *
                              TRFILE MACRO   NAME1,NAME2,RELLOC,IOERR,ERCODE
                                     TSX     $TRFILE,4
                                     PTH     NAME1
                                     PTH     NAME2
                                     PTH     RELLOC
                                     IRP     IOERR
                                     PTH     IOERR
                                     PTH     ERCODE
                                     IRP
                              TRFILE END
                              *
                              WRFLX  MACRO   LOC,N,A
                                     TSX     $WRFLX'A',4
                                     PTH     LOC,,N
                              WRFLX  END
                              *
                              FSTATE MACRO   NAME1,NAME2,RESULT,IOERR,ERCODE
                                     TSX     $FSTATE,4
                                     PTH     NAME1
                                     PTH     NAME2
                                     PTH     RESULT,,8
                                     IRP     IOERR
                                     PTH     IOERR
                                     PTH     ERCODE
                                     IRP
                              FSTATE END
1            LMSORT FAP            BY MICHAEL R COMER                                            PAGE 5

                              *      MAIN PROGRAM


        TRANSFER VECTOR
      00000  272563234644     GETCOM
      00001  464725456060     OPEN
      00002  226426262551     BUFFER
      00003  266263216325     FSTATE
      00004  233026314325     CHFILE
      00005  242543263143     DELFIL
      00006  512466213163     RDWAIT
      00007  234346622560     CLOSE
      00010  242543256325     DELETE
      00011  233045234644     CHNCOM
      00012  334723464463     .PCOMT
      00013  475145632551     PRNTER
      00014  266621316360     FWAIT
      00015  665126314325     WRFILE
      00016  665166213163     WRWAIT

      00017  0760 00 0 00016         LMTM
      00020                          GETCOM  1,NMERR,NAME1
      00020  0074 00 4 00000         TSX     $GETCOM,4                                                        .001
      00021  0 00000 0 00001         PZE     1                                                                .001
      00022 -0340 00 0 66675         LAS     =O777777777777                                                   .001
      00023  0020 00 0 00176         TRA     NMERR                                                            .001
      00024  0020 00 0 00176         TRA     NMERR                                                            .001
      00025  0602 00 0 03464         SLW     NAME1                                                            .001
      00026                          GETCOM  2,NMERR,NAME2
      00026  0074 00 4 00000         TSX     $GETCOM,4                                                        .001
      00027  0 00000 0 00002         PZE     2                                                                .001
      00030 -0340 00 0 66675         LAS     =O777777777777                                                   .001
      00031  0020 00 0 00176         TRA     NMERR                                                            .001
      00032  0020 00 0 00176         TRA     NMERR                                                            .001
      00033  0602 00 0 03465         SLW     NAME2                                                            .001
      00034                          GETCOM  3,NMERR,NAME3
      00034  0074 00 4 00000         TSX     $GETCOM,4                                                        .001
      00035  0 00000 0 00003         PZE     3                                                                .001
      00036 -0340 00 0 66675         LAS     =O777777777777                                                   .001
      00037  0020 00 0 00176         TRA     NMERR                                                            .001
      00040  0020 00 0 00176         TRA     NMERR                                                            .001
      00041  0602 00 0 03466         SLW     NAME3                                                            .001
      00042                          GETCOM  4,NMERR,NAME4
      00042  0074 00 4 00000         TSX     $GETCOM,4                                                        .001
      00043  0 00000 0 00004         PZE     4                                                                .001
      00044 -0340 00 0 66675         LAS     =O777777777777                                                   .001
      00045  0020 00 0 00176         TRA     NMERR                                                            .001
      00046  0020 00 0 00176         TRA     NMERR                                                            .001
      00047  0602 00 0 03467         SLW     NAME4                                                            .001
      00050                          OPEN    NAME1,NAME2,R
      00050  0074 00 4 00001         TSX     $OPEN,4                                                          .001
      00051  3 00000 0 66670         PTH     =HR                                                              .001
      00052  3 00000 0 03464         PTH     NAME1                                                            .001
      00053  3 00000 0 03465         PTH     NAME2                                                            .001
      00054  3 00000 0 66656         PTH     =0                                                               .001
1            LMSORT FAP            BY MICHAEL R COMER                                            PAGE 6

      00055  3 00000 0 66660         PTH     =2                                                               .001
      00056                          BUFFER  NAME1,NAME2,BUFER1
      00056  0074 00 4 00002         TSX     $BUFFER,4                                                        .001
      00057  3 00000 0 03464         PTH     NAME1                                                            .001
      00060  3 00000 0 03465         PTH     NAME2                                                            .001
      00061  3 00660 0 01041         PTH     BUFER1,,432                                                      .001
      00062                          FSTATE  SORT2,FILEA,A,FERR1,CODE
      00062  0074 00 4 00003         TSX     $FSTATE,4                                                        .001
      00063  3 00000 0 03470         PTH     SORT2                                                            .001
      00064  3 00000 0 03471         PTH     FILEA                                                            .001
      00065  3 00010 0 03474         PTH     A,,8                                                             .001
      00066  3 00000 0 00221         PTH     FERR1                                                            .001
      00067  3 00000 0 03473         PTH     CODE                                                             .001
      00070  0500 00 0 03475         CLA     A+1
      00071 -0120 00 0 00243         TMI     LINK
      00072  0100 00 0 00101         TZE     OK
      00073                          CHFILE  SORT2,FILEA,=0,=-0,=-0
      00073  0074 00 4 00004         TSX     $CHFILE,4                                                        .001
      00074  3 00000 0 03470         PTH     SORT2                                                            .001
      00075  3 00000 0 03471         PTH     FILEA                                                            .001
      00076  3 00000 0 66656         PTH     =0                                                               .001
      00077  3 00000 0 66666         PTH     =-0                                                              .001
      00100  3 00000 0 66666         PTH     =-0                                                              .001
      00101                   OK     DELFIL  SORT2,FILEA
      00101  0074 00 4 00005         TSX     $DELFIL,4                                                        .001
      00102  3 00000 0 03470         PTH     SORT2                                                            .001
      00103  3 00000 0 03471         PTH     FILEA                                                            .001
      00104                   ERRIN  FSTATE  SORT2,FILEB,A,FERR2,CODE
      00104  0074 00 4 00003         TSX     $FSTATE,4                                                        .001
      00105  3 00000 0 03470         PTH     SORT2                                                            .001
      00106  3 00000 0 03472         PTH     FILEB                                                            .001
      00107  3 00010 0 03474         PTH     A,,8                                                             .001
      00110  3 00000 0 00231         PTH     FERR2                                                            .001
      00111  3 00000 0 03473         PTH     CODE                                                             .001
      00112  0500 00 0 03475         CLA     A+1
      00113 -0120 00 0 00254         TMI     LINK2
      00114  0100 00 0 00123         TZE     OK2
      00115                          CHFILE  SORT2,FILEB,=0,=-0,=-0
      00115  0074 00 4 00004         TSX     $CHFILE,4                                                        .001
      00116  3 00000 0 03470         PTH     SORT2                                                            .001
      00117  3 00000 0 03472         PTH     FILEB                                                            .001
      00120  3 00000 0 66656         PTH     =0                                                               .001
      00121  3 00000 0 66666         PTH     =-0                                                              .001
      00122  3 00000 0 66666         PTH     =-0                                                              .001
      00123                   OK2    DELFIL  SORT2,FILEB
      00123  0074 00 4 00005         TSX     $DELFIL,4                                                        .001
      00124  3 00000 0 03470         PTH     SORT2                                                            .001
      00125  3 00000 0 03472         PTH     FILEB                                                            .001
                       41600  IN1LEN EQU     40*432
      00126                   LOOP1  RDWAIT  NAME1,NAME2,PNTR1,,INPUT1,IN1LEN,EOF1,LASLEN
      00126  0074 00 4 00006         TSX     $RDWAIT,4                                                        .001
      00127  3 00000 0 03464         PTH     NAME1                                                            .001
      00130  3 00000 0 03465         PTH     NAME2                                                            .001
      00131  3 00000 0 03462         PTH     PNTR1                                                            .001
      00132  3 41600 0 03504         PTH     INPUT1,,IN1LEN                                                   .001
      00133  3 00000 0 00143         PTH     EOF1                                                             .001
1            LMSORT FAP            BY MICHAEL R COMER                                            PAGE 7

      00134  3 00000 0 54773         PTH     LASLEN                                                           .001
      00135 -0500 00 0 03462         CAL     PNTR1
      00136  0361 00 0 66665         ACL     =16848
      00137  0602 00 0 03462         SLW     PNTR1
      00140  0074 00 4 00666         TSX     SORT,4
      00141  0074 00 4 00265         TSX     MERGIN,4
      00142  0020 00 0 00126         TRA     LOOP1
      00143 -0500 00 0 54773  EOF1   CAL     LASLEN
      00144  0100 00 0 00212         TZE     RETZE
      00145  0361 00 0 54766         ACL     IN1LOC
      00146  0737 00 1 00000         PAC     ,1
      00147 -0500 00 0 66675         CAL     =O777777777777
      00150  0602 00 1 00000         SLW     0,1
      00151  0020 00 0 00154         TRA     *+3
      00152  0634 00 4 01037         SXA     ENDM,4
      00153  0020 00 0 00677         TRA     NOSET
      00154  0074 00 4 00152         TSX     *-2,4
      00155  0074 00 4 00265         TSX     MERGIN,4
      00156                   RETURN CLOSE   (=H   ALL),=-0
      00156  0074 00 4 00007         TSX     $CLOSE,4                                                         .001
      00157  3 00000 0 66672         PTH     =H   ALL                                                         .001
      00160  3 00000 0 66666         PTH     =-0                                                              .001
      00161  0074 00 4 00010         TSX     $DELETE,4
      00162  3 00000 0 03466         PTH     NAME3
      00163  3 00000 0 03467         PTH     NAME4
      00164  3 00000 0 66657         PTH     =1
      00165  3 00000 0 00174         PTH     EXIT
      00166                          CHFILE  SORT2,FILEA,=0,NAME3,NAME4
      00166  0074 00 4 00004         TSX     $CHFILE,4                                                        .001
      00167  3 00000 0 03470         PTH     SORT2                                                            .001
      00170  3 00000 0 03471         PTH     FILEA                                                            .001
      00171  3 00000 0 66656         PTH     =0                                                               .001
      00172  3 00000 0 03466         PTH     NAME3                                                            .001
      00173  3 00000 0 03467         PTH     NAME4                                                            .001
      00174  0074 00 4 00011  EXIT   TSX     $CHNCOM,4
      00175  0 00000 0 66657         PZE     =1
      00176                   NMERR  PRCOMT 9,(COMMAND FORMAT IS R LMSORT NAME1 NAME2 NAME3 NAME4)
      00176  0074 00 4 00012         TSX     $.PCOMT,4                                                        .001
      00177  3 00000 0 00011         PTH     9                                                                .001
      00200  234644442145            BCI     9,COMMAND FORMAT IS R LMSORT NAME1 NAME2 NAME3 NAME4             .001
      00201  246026465144
      00202  216360316260
      00203  516043446246
      00204  516360452144
      00205  250160452144
      00206  250260452144
      00207  250360452144
      00210  250460606060
      00211  0020 00 0 00174         TRA     EXIT
      00212 -0500 00 0 03462  RETZE  CAL     PNTR1
      00213 -0340 00 0 66657         LAS     =1
      00214  0020 00 0 00156         TRA     RETURN
      00215                          CLOSE   NAME1,NAME2
      00215  0074 00 4 00007         TSX     $CLOSE,4                                                         .001
      00216  3 00000 0 03464         PTH     NAME1                                                            .001
      00217  3 00000 0 03465         PTH     NAME2                                                            .001
1            LMSORT FAP            BY MICHAEL R COMER                                            PAGE 8

      00220  0020 00 0 00174         TRA     EXIT
      00221 -0500 00 0 03473  FERR1  CAL     CODE
      00222 -0340 00 0 66662         LAS     =4
      00223  0020 00 0 00241         TRA     ERR
      00224  0020 00 0 00243         TRA     LINK
      00225 -0340 00 0 66661         LAS     =3
      00226  0 00000 0 00000         PZE
      00227  0020 00 0 00104         TRA     ERRIN
      00230  0020 00 0 00241         TRA     ERR
      00231 -0500 00 0 03473  FERR2  CAL     CODE
      00232 -0340 00 0 66662         LAS     =4
      00233  0020 00 0 00241         TRA     ERR
      00234  0020 00 0 00254         TRA     LINK2
      00235 -0340 00 0 66661         LAS     =3
      00236  0 00000 0 00000         PZE
      00237  0020 00 0 00126         TRA     LOOP1
      00240  0020 00 0 00241         TRA     ERR
      00241  0074 00 4 00013  ERR    TSX     $PRNTER,4
      00242  0020 00 0 00174         TRA     EXIT
      00243  0074 00 4 00012  LINK   TSX     $.PCOMT,4
      00244  3 00000 0 00006         PTH     6
      00245  464324602631            BCI     6,OLD FILE (SORT2 FILE1) IS LINKED
      00246  432560746246
      00247  516302602631
      00250  432501346031
      00251  626043314542
      00252  252460606060
      00253  0020 00 0 00174         TRA     EXIT
      00254  0074 00 4 00012  LINK2  TSX     $.PCOMT,4
      00255  3 00000 0 00006         PTH     6
      00256  464324602631            BCI     6,OLD FILE (SORT2 FILE2) IS LINKED
      00257  432560746246
      00260  516302602631
      00261  432502346031
      00262  626043314542
      00263  252460606060
      00264  0020 00 0 00174         TRA     EXIT
1            LMSORT FAP            BY MICHAEL R COMER                                            PAGE 9

                              *      INPUT SETUP AND CALLER FOR MERGE


      00265  0634 00 4 00431  MERGIN SXA     MIX4,4
      00266                          OPEN    SORT2,FILEA,RW
      00266  0074 00 4 00001         TSX     $OPEN,4                                                          .001
      00267  3 00000 0 66671         PTH     =HRW                                                             .001
      00270  3 00000 0 03470         PTH     SORT2                                                            .001
      00271  3 00000 0 03471         PTH     FILEA                                                            .001
      00272  3 00000 0 66656         PTH     =0                                                               .001
      00273  3 00000 0 66660         PTH     =2                                                               .001
      00274                          BUFFER  SORT2,FILEA,BUFER2
      00274  0074 00 4 00002         TSX     $BUFFER,4                                                        .001
      00275  3 00000 0 03470         PTH     SORT2                                                            .001
      00276  3 00000 0 03471         PTH     FILEA                                                            .001
      00277  3 00660 0 01721         PTH     BUFER2,,432                                                      .001
      00300                          OPEN    SORT2,FILEB,W
      00300  0074 00 4 00001         TSX     $OPEN,4                                                          .001
      00301  3 00000 0 66673         PTH     =HW                                                              .001
      00302  3 00000 0 03470         PTH     SORT2                                                            .001
      00303  3 00000 0 03472         PTH     FILEB                                                            .001
      00304  3 00000 0 66656         PTH     =0                                                               .001
      00305  3 00000 0 66660         PTH     =2                                                               .001
      00306                          BUFFER  SORT2,FILEB,BUFER3
      00306  0074 00 4 00002         TSX     $BUFFER,4                                                        .001
      00307  3 00000 0 03470         PTH     SORT2                                                            .001
      00310  3 00000 0 03472         PTH     FILEB                                                            .001
      00311  3 00660 0 02601         PTH     BUFER3,,432                                                      .001
      00312  0500 00 0 66657         CLA     =1
      00313  0601 00 0 03463         STO     PNTR2
      00314  0500 00 0 54772         CLA     L
      00315  0400 00 0 66657         ADD     =1
      00316  0737 00 5 00000         PAC     ,5
      00317 -0634 00 5 00643         SXD     ALL2+2,5
      00320 -0634 00 5 00517         SXD     CHKNX1+3,5
      00321  0100 00 0 00336         TZE     MILOP2
      00322  0774 00 5 00000         AXT     0,5
      00323  0774 00 3 01540         AXT     864,3
      00324                   MILOOP RDWAIT  SORT2,FILEA,PNTR2,,INPUT2,5*432,EOF2,LASLEN
      00324  0074 00 4 00006         TSX     $RDWAIT,4                                                        .001
      00325  3 00000 0 03470         PTH     SORT2                                                            .001
      00326  3 00000 0 03471         PTH     FILEA                                                            .001
      00327  3 00000 0 03463         PTH     PNTR2                                                            .001
      00330  3 04160 0 45304         PTH     INPUT2,,5*432                                                    .001
      00331  3 00000 0 00354         PTH     EOF2                                                             .001
      00332  3 00000 0 54773         PTH     LASLEN                                                           .001
      00333  0074 00 4 00433         TSX     SETUP,4
      00334  0074 00 4 00445         TSX     MERGE,4
      00335  0020 00 0 00324         TRA     MILOOP
      00336                   MILOP2 RDWAIT  SORT2,FILEA,PNTR2,,INPUT2,5*432,EOF3,LASLEN
      00336  0074 00 4 00006         TSX     $RDWAIT,4                                                        .001
      00337  3 00000 0 03470         PTH     SORT2                                                            .001
      00340  3 00000 0 03471         PTH     FILEA                                                            .001
      00341  3 00000 0 03463         PTH     PNTR2                                                            .001
      00342  3 04160 0 45304         PTH     INPUT2,,5*432                                                    .001
      00343  3 00000 0 00371         PTH     EOF3                                                             .001
1            LMSORT FAP            BY MICHAEL R COMER                                            PAGE 10

      00344  3 00000 0 54773         PTH     LASLEN                                                           .001
      00345  0074 00 4 00433         TSX     SETUP,4
      00346  0020 00 0 00351         TRA     *+3
      00347  0634 00 4 54774         SXA     MX4,4
      00350  0020 00 0 00543         TRA     END1
      00351  0074 00 4 00347         TSX     *-2,4
      00352  0 00000 0 00000         PZE
      00353  0020 00 0 00336         TRA     MILOP2
      00354 -0500 00 0 54773  EOF2   CAL     LASLEN
      00355  0100 00 0 00366         TZE     MT
      00356  0361 00 0 54767         ACL     IN2LOC
      00357  0737 00 2 00000         PAC     ,2
      00360 -0500 00 0 66675         CAL     =O777777777777
      00361  0602 00 2 00000         SLW     0,2
      00362 -0634 00 2 00540         SXD     CHKNX2+2,2
      00363 -0634 00 2 00543         SXD     END1,2
      00364  0074 00 4 00433         TSX     SETUP,4
      00365  0074 00 4 00445         TSX     MERGE,4
      00366  0074 00 4 00641  MT     TSX     ALL2,4
      00367  0074 00 4 00615         TSX     MERGO,4
      00370  0020 00 0 00410         TRA     MIRET
      00371 -0500 00 0 54773  EOF3   CAL     LASLEN
      00372  0100 00 0 00410         TZE     MIRET
      00373  0361 00 0 54767         ACL     IN2LOC
      00374  0737 00 2 00000         PAC     ,2
      00375 -0500 00 0 66675         CAL     =O777777777777
      00376  0602 00 2 00000         SLW     0,2
      00377 -0634 00 2 00540         SXD     CHKNX2+2,2
      00400 -0634 00 2 00543         SXD     END1,2
      00401  0074 00 4 00433         TSX     SETUP,4
      00402  0020 00 0 00405         TRA     *+3
      00403  0634 00 4 54774         SXA     MX4,4
      00404  0020 00 0 00543         TRA     END1
      00405  0074 00 4 00403         TSX     *-2,4
      00406  0 00000 0 00000         PZE
      00407  0074 00 4 00615         TSX     MERGO,4
      00410                   MIRET  CLOSE   SORT2,FILEA
      00410  0074 00 4 00007         TSX     $CLOSE,4                                                         .001
      00411  3 00000 0 03470         PTH     SORT2                                                            .001
      00412  3 00000 0 03471         PTH     FILEA                                                            .001
      00413                          DELFIL  SORT2,FILEA
      00413  0074 00 4 00005         TSX     $DELFIL,4                                                        .001
      00414  3 00000 0 03470         PTH     SORT2                                                            .001
      00415  3 00000 0 03471         PTH     FILEA                                                            .001
      00416                          CLOSE   SORT2,FILEB
      00416  0074 00 4 00007         TSX     $CLOSE,4                                                         .001
      00417  3 00000 0 03470         PTH     SORT2                                                            .001
      00420  3 00000 0 03472         PTH     FILEB                                                            .001
      00421 -0500 00 0 03472         CAL     FILEB
      00422  0560 00 0 03471         LDQ     FILEA
      00423 -0600 00 0 03472         STQ     FILEB
      00424  0602 00 0 03471         SLW     FILEA
      00425 -0500 00 0 54770         CAL     IN2END
      00426  0737 00 2 00000         PAC     ,2
      00427 -0634 00 2 00540         SXD     CHKNX2+2,2
      00430 -0634 00 2 00543         SXD     END1,2
1            LMSORT FAP            BY MICHAEL R COMER                                            PAGE 11

      00431  0774 00 4 00000  MIX4   AXT     -,4
      00432  0020 00 4 00001         TRA     1,4
      00433 -0500 00 0 03463  SETUP  CAL     PNTR2
      00434  0361 00 0 66664         ACL     =1728
      00435  0602 00 0 03463         SLW     PNTR2
      00436 -0774 00 2 45304         AXC     INPUT2,2
      00437 -0500 00 2 00000         CAL     0,2
      00440 -0340 00 0 66674         LAS     =O777777000000
      00441  0020 00 0 00444         TRA     *+3
      00442  0020 00 0 00444         TRA     *+2
      00443  1 77777 2 00437         TXI     *-4,2,-1
      00444  0020 00 4 00001         TRA     1,4
1            LMSORT FAP            BY MICHAEL R COMER                                            PAGE 12

                              *      MERGE


      00445  0634 00 4 54774  MERGE  SXA     MX4,4
      00446 -0500 00 5 54776  NEXT   CAL     PTBL,5
      00447  0737 00 1 00000         PAC     ,1
      00450  0634 00 2 54775         SXA     I2,2
      00451 -0500 00 1 00001         CAL     1,1
      00452 -0340 00 0 66674         LAS     =O777777000000
      00453  0020 00 0 00476         TRA     LE
      00454  0020 00 0 00476         TRA     LE
      00455 -0340 00 2 00001         LAS     1,2
      00456  0020 00 0 00522         TRA     GR
      00457  0020 00 0 00461         TRA     EQ
      00460  0020 00 0 00472         TRA     LE2
      00461  1 77777 1 00462  EQ     TXI     *+1,1,-1
      00462  1 77777 2 00463         TXI     *+1,2,-1
      00463 -0500 00 1 00001         CAL     1,1
      00464 -0340 00 0 66674         LAS     =O777777000000
      00465  0020 00 0 00476         TRA     LE
      00466  0020 00 0 00476         TRA     LE
      00467 -0340 00 2 00001         LAS     1,2
      00470  0020 00 0 00522         TRA     GR
      00471  0020 00 0 00461         TRA     EQ
      00472 -0500 00 2 00001  LE2    CAL     1,2
      00473 -0340 00 0 66674         LAS     =O777777000000
      00474  0020 00 0 00522         TRA     GR
      00475  0020 00 0 00522         TRA     GR
      00476  0534 00 2 54775  LE     LXA     I2,2
      00477 -0500 00 5 54776         CAL     PTBL,5
      00500  0737 00 1 00000         PAC     ,1
      00501 -0500 00 1 00000         CAL     0,1
      00502  0602 00 3 53226  LELOOP SLW     OUTPT1+864,3
      00503  1 77777 1 00504         TXI     *+1,1,-1
      00504 -0500 00 1 00000         CAL     0,1
      00505 -0340 00 0 66674         LAS     =O777777000000
      00506  0020 00 0 00514         TRA     CHKNX1
      00507  0020 00 0 00514         TRA     CHKNX1
      00510  2 00001 3 00502         TIX     LELOOP,3,1
      00511  0074 00 4 00565         TSX     NEW3,4
      00512 -0500 00 1 00000         CAL     0,1
      00513  0020 00 0 00502         TRA     LELOOP
      00514  1 77777 5 00515  CHKNX1 TXI     *+1,5,-1
      00515  2 00001 3 00517         TIX     *+2,3,1
      00516  0074 00 4 00565         TSX     NEW3,4
      00517  3 00000 5 00446         TXH     NEXT,5,**
      00520 -3 00000 5 00446         TXL     NEXT,5,0
      00521  0020 00 0 00543         TRA     END1
      00522  0534 00 2 54775  GR     LXA     I2,2
      00523 -0500 00 2 00000         CAL     0,2
      00524  0602 00 3 53226  GRLOOP SLW     OUTPT1+864,3
      00525  1 77777 2 00526         TXI     *+1,2,-1
      00526 -0500 00 2 00000         CAL     0,2
      00527 -0340 00 0 66674         LAS     =O777777000000
      00530  0020 00 0 00536         TRA     CHKNX2
      00531  0020 00 0 00536         TRA     CHKNX2
1            LMSORT FAP            BY MICHAEL R COMER                                            PAGE 13

      00532  2 00001 3 00524         TIX     GRLOOP,3,1
      00533  0074 00 4 00565         TSX     NEW3,4
      00534 -0500 00 2 00000         CAL     0,2
      00535  0020 00 0 00524         TRA     GRLOOP
      00536  2 00001 3 00540  CHKNX2 TIX     *+2,3,1
      00537  0074 00 4 00565         TSX     NEW3,4
      00540  3 00000 2 00446         TXH     NEXT,2,**
      00541  0534 00 4 54774  END2   LXA     MX4,4
      00542  0020 00 4 00001         TRA     1,4
                              *
      00543 -3 00000 2 00563  END1   TXL     END12,2,**
      00544 -0500 00 2 00000         CAL     0,2
      00545  0602 00 3 53226  E1LOOP SLW     OUTPT1+864,3
      00546  1 77777 2 00547         TXI     *+1,2,-1
      00547 -0500 00 2 00000         CAL     0,2
      00550 -0340 00 0 66674         LAS     =O777777000000
      00551  0020 00 0 00557         TRA     AWAWGO
      00552  0020 00 0 00557         TRA     AWAWGO
      00553  2 00001 3 00545         TIX     E1LOOP,3,1
      00554  0074 00 4 00565         TSX     NEW3,4
      00555 -0500 00 2 00000         CAL     0,2
      00556  0020 00 0 00545         TRA     E1LOOP
      00557  2 00001 3 00543  AWAWGO TIX     END1,3,1
      00560  0074 00 4 00565         TSX     NEW3,4
      00561 -0500 00 2 00000         CAL     0,2
      00562  0020 00 0 00543         TRA     END1
      00563  0534 00 4 54774  END12  LXA     MX4,4
      00564  0020 00 4 00002         TRA     2,4
                              *
      00565  0634 00 4 00613  NEW3   SXA     N3X4,4
      00566                          FWAIT   SORT2,FILEB
      00566  0074 00 4 00014         TSX     $FWAIT,4                                                         .001
      00567  3 00000 0 03470         PTH     SORT2                                                            .001
      00570  3 00000 0 03472         PTH     FILEB                                                            .001
      00571                          WRFILE  SORT2,FILEB,=0,ADR1,OUTPT1,864
      00571  0074 00 4 00015         TSX     $WRFILE,4                                                        .001
      00572  3 00000 0 03470         PTH     SORT2                                                            .001
      00573  3 00000 0 03472         PTH     FILEB                                                            .001
      00574  3 00000 0 66656         PTH     =0                                                               .001
      00575  3 01540 0 51466  ADR1   PTH     OUTPT1,,864                                                      .001
      00576  3 00000 0 66666         PTH     =-0                                                              .001
      00577  3 00000 0 66666         PTH     =-0                                                              .001
      00600 -0500 00 0 51465         CAL     OUTPTB
      00601  0560 00 0 51464         LDQ     OUTPTA
      00602 -0600 00 0 51465         STQ     OUTPTB
      00603  0602 00 0 51464         SLW     OUTPTA
      00604  0621 00 0 00575         STA     ADR1
      00605  0361 00 0 66663         ACL     =864
      00606  0621 00 0 00502         STA     LELOOP
      00607  0621 00 0 00524         STA     GRLOOP
      00610  0621 00 0 00545         STA     E1LOOP
      00611  0621 00 0 00647         STA     A2LOOP
      00612  0774 00 3 01540         AXT     864,3
      00613  0774 00 4 00000  N3X4   AXT     -,4
      00614  0020 00 4 00001         TRA     1,4
                              *
1            LMSORT FAP            BY MICHAEL R COMER                                            PAGE 14

      00615  0634 00 4 00637  MERGO  SXA     MOX4,4
      00616  0634 00 3 54771         SXA     TEM,3
      00617 -0500 00 0 66663         CAL     =864
      00620  0402 00 0 54771         SUB     TEM
      00621  0734 00 4 00000         PAX     ,4
      00622 -0634 00 4 00634         SXD     MOADD,4
      00623 -0500 00 0 51464         CAL     OUTPTA
      00624  0621 00 0 00634         STA     MOADD
      00625                          FWAIT   SORT2,FILEB
      00625  0074 00 4 00014         TSX     $FWAIT,4                                                         .001
      00626  3 00000 0 03470         PTH     SORT2                                                            .001
      00627  3 00000 0 03472         PTH     FILEB                                                            .001
      00630                          WRWAIT  SORT2,FILEB,=0,MOADD,**,**
      00630  0074 00 4 00016         TSX     $WRWAIT,4                                                        .001
      00631  3 00000 0 03470         PTH     SORT2                                                            .001
      00632  3 00000 0 03472         PTH     FILEB                                                            .001
      00633  3 00000 0 66656         PTH     =0                                                               .001
      00634  3 00000 0 00000  MOADD  PTH     **,,**                                                           .001
      00635  3 00000 0 66666         PTH     =-0                                                              .001
      00636  3 00000 0 66666         PTH     =-0                                                              .001
      00637  0774 00 4 00000  MOX4   AXT     -,4
      00640  0020 00 4 00001         TRA     1,4
                              *
      00641  0634 00 4 00664  ALL2   SXA     A2X4,4
      00642 -3 00000 5 00644         TXL     *+2,5,0
      00643 -3 00000 5 00664         TXL     A2X4,5,**
      00644 -0500 00 5 54776         CAL     PTBL,5
      00645  0737 00 1 00000         PAC     ,1
      00646 -0500 00 1 00000         CAL     0,1
      00647  0602 00 3 53226  A2LOOP SLW     OUTPT1+864,3
      00650  1 77777 1 00651         TXI     *+1,1,-1
      00651 -0500 00 1 00000         CAL     0,1
      00652 -0340 00 0 66674         LAS     =O777777000000
      00653  1 77777 3 00661         TXI     INC5,3,-1
      00654  1 77777 3 00661         TXI     INC5,3,-1
      00655  2 00001 3 00647         TIX     A2LOOP,3,1
      00656  0074 00 4 00565         TSX     NEW3,4
      00657 -0500 00 1 00000         CAL     0,1
      00660  0020 00 0 00647         TRA     A2LOOP
      00661  3 00000 3 00663  INC5   TXH     *+2,3,0
      00662  0074 00 4 00565         TSX     NEW3,4
      00663  1 77777 5 00642         TXI     ALL2+1,5,-1
      00664  0774 00 4 00000  A2X4   AXT     -,4
      00665  0020 00 4 00001         TRA     1,4
1            LMSORT FAP            BY MICHAEL R COMER                                            PAGE 15

                              *      SORT


      00666  0634 00 4 01037  SORT   SXA     ENDM,4
      00667  0774 00 1 00000         AXT     0,1
      00670 -0500 00 1 44424  ENDTBL CAL     INPUT1+IN1LEN-432,1
      00671 -0340 00 0 66674         LAS     =O777777000000
      00672  0020 00 0 00675         TRA     *+3
      00673  0020 00 0 00675         TRA     *+2
      00674  1 77777 1 00670         TXI     ENDTBL,1,-1
      00675 -0500 00 0 66675         CAL     =O777777777777
      00676  0602 00 1 44424         SLW     INPUT1+IN1LEN-432,1
      00677 -0774 00 1 03504  NOSET  AXC     INPUT1,1
      00700 -0500 00 1 00000  STTABL CAL     0,1
      00701 -0340 00 0 66674         LAS     =O777777000000
      00702  0020 00 0 00705         TRA     *+3
      00703  0020 00 0 00705         TRA     *+2
      00704  1 77777 1 00700         TXI     STTABL,1,-1
      00705  0636 00 1 54776         SCA     PTBL,1
      00706  0774 00 1 00000         AXT     0,1
      00707  0774 00 2 00000         AXT     0,2
      00710 -0500 60 2 54776  GENTBL CAL*    PTBL,2
      00711 -0340 00 0 66675         LAS     =O777777777777
      00712  0020 00 0 00720         TRA     TBDONE
      00713  0020 00 0 00720         TRA     TBDONE
      00714  0361 00 0 66657         ACL     =1
      00715  0361 00 2 54776         ACL     PTBL,2
      00716  0621 00 2 54777         STA     PTBL+1,2
      00717  1 77777 2 00710         TXI     GENTBL,2,-1
      00720  1 00001 2 00721  TBDONE TXI     *+1,2,1
      00721  0636 00 2 54772         SCA     L,2
      00722 -0500 00 0 54772         CAL     L
      00723  0100 00 0 01033         TZE     JSTONE
      00724 -0340 00 0 66657         LAS     =1
      00725  0020 00 0 00727         TRA     *+2
      00726  0361 00 0 66657         ACL     =1
      00727  0771 00 0 00001  LOOPM  ARS     1
      00730  0602 00 0 54771         SLW     TEM
      00731  0734 00 4 00000         PAX     ,4
      00732 -0500 00 0 54772         CAL     L
      00733  0402 00 0 54771         SUB     TEM
      00734  0737 00 1 00000         PAC     ,1
      00735  0361 00 0 66657         ACL     =1
      00736  0737 00 2 00000         PAC     ,2
      00737 -0634 00 2 00766         SXD     A1,2
      00740 -0634 00 2 01017         SXD     A2,2
      00741  0535 00 2 54772         LAC     L,2
      00742 -0500 00 1 54776  COMP   CAL     PTBL,1
      00743  0737 00 5 00000         PAC     ,5
      00744 -0500 00 2 54776         CAL     PTBL,2
      00745  0737 00 6 00000         PAC     ,6
      00746 -0500 00 6 00001  SLOOP  CAL     1,6
      00747 -0340 00 0 66674         LAS     =O777777000000
      00750  0020 00 0 00762         TRA     SWAP
      00751  0020 00 0 00762         TRA     SWAP
      00752 -0340 00 5 00001         LAS     1,5
1            LMSORT FAP            BY MICHAEL R COMER                                            PAGE 16

      00753  0020 00 0 01022         TRA     NOSWAP
      00754  1 77777 5 01031         TXI     SEQ,5,-1
      00755 -0500 00 5 00001         CAL     1,5
      00756 -0340 00 0 66674         LAS     =O777777000000
      00757  0020 00 0 01022         TRA     NOSWAP
      00760  0020 00 0 01022         TRA     NOSWAP
      00761  0020 00 0 00762         TRA     SWAP
      00762 -0500 00 1 54776  SWAP   CAL     PTBL,1
      00763  0560 00 2 54776         LDQ     PTBL,2
      00764  0602 00 2 54776         SLW     PTBL,2
      00765 -0600 00 1 54776         STQ     PTBL,1
      00766 -3 00000 2 01022  A1     TXL     NOSWAP,2,**
      00767  0754 00 2 00000         PXA     ,2
      00770  0734 00 3 00000  SWPLP  PAX     ,3
      00771  0402 00 0 54771         SUB     TEM
      00772  0734 00 7 00000         PAX     ,7
      00773 -0500 00 3 54776         CAL     PTBL,3
      00774  0737 00 5 00000         PAC     ,5
      00775 -0500 00 7 54776         CAL     PTBL,7
      00776  0737 00 6 00000         PAC     ,6
      00777 -0500 00 6 00001  LOOPA  CAL     1,6
      01000 -0340 00 0 66674         LAS     =O777777000000
      01001  0020 00 0 01013         TRA     ASWAP
      01002  0020 00 0 01013         TRA     ASWAP
      01003 -0340 00 5 00001         LAS     1,5
      01004  0020 00 0 01022         TRA     NOSWAP
      01005  1 77777 5 01032         TXI     EQA,5,-1
      01006 -0500 00 5 00001         CAL     1,5
      01007 -0340 00 0 66674         LAS     =O777777000000
      01010  0020 00 0 01022         TRA     NOSWAP
      01011  0020 00 0 01022         TRA     NOSWAP
      01012  0020 00 0 01013         TRA     ASWAP
      01013 -0500 00 3 54776  ASWAP  CAL     PTBL,3
      01014  0560 00 7 54776         LDQ     PTBL,7
      01015  0602 00 7 54776         SLW     PTBL,7
      01016 -0600 00 3 54776         STQ     PTBL,3
      01017 -3 00000 7 01022  A2     TXL     NOSWAP,7,**
      01020  0754 00 7 00000         PXA     ,7
      01021  0020 00 0 00770         TRA     SWPLP
      01022 -3 00000 1 01025  NOSWAP TXL     *+3,1,0
      01023  1 00001 1 01024         TXI     *+1,1,1
      01024  1 00001 2 00742         TXI     COMP,2,1
      01025 -3 00001 4 01037         TXL     ENDM,4,1
      01026  0754 00 4 00000         PXA     ,4
      01027  0361 00 0 66657         ACL     =1
      01030  0020 00 0 00727         TRA     LOOPM
      01031  1 77777 6 00746  SEQ    TXI     SLOOP,6,-1
      01032  1 77777 6 00777  EQA    TXI     LOOPA,6,-1
      01033  0600 00 0 54772  JSTONE STZ     L
      01034  0020 00 0 01037         TRA     ENDM
      01035  0500 00 0 66667  VOID   CLA     =-1
      01036  0601 00 0 54772         STO     L
      01037  0774 00 4 00000  ENDM   AXT     -,4
      01040  0020 00 4 00001         TRA     1,4
1            LMSORT FAP            BY MICHAEL R COMER                                            PAGE 17

                              *      STORAGE


      01041                   BUFER1 BSS     432
      01721                   BUFER2 BSS     432
      02601                   BUFER3 BSS     432
      03461  0 00000 0 00000  ..TIME PZE
      03462  0 00000 0 00001  PNTR1  PZE     1
      03463  0 00000 0 00001  PNTR2  PZE     1
      03464  0 00000 0 00000  NAME1  PZE
      03465  0 00000 0 00000  NAME2  PZE
      03466  0 00000 0 00000  NAME3  PZE
      03467  0 00000 0 00000  NAME4  PZE
      03470  746246516302     SORT2  BCI     1,(SORT2
      03471  263143250134     FILEA  BCI     1,FILE1)
      03472  263143250234     FILEB  BCI     1,FILE2)
      03473  0 00000 0 00000  CODE   PZE
      03474                   A      BSS     8
      03504                   INPUT1 BSS     IN1LEN
      45304                   INPUT2 BSS     5*432
      51464  0 00000 0 51466  OUTPTA PZE     OUTPT1
      51465  0 00000 0 53226  OUTPTB PZE     OUTPT2
      51466                   OUTPT1 BSS     864
      53226                   OUTPT2 BSS     864
      54766  0 00000 0 03504  IN1LOC PZE     INPUT1
      54767  0 00000 0 45304  IN2LOC PZE     INPUT2
      54770  0 00000 0 50604  IN2END PZE     INPUT2+4*432
      54771  0 00000 0 00000  TEM    PZE
      54772  0 00000 0 00000  L      PZE
      54773  0 00000 0 00000  LASLEN PZE
      54774  0 00000 0 00000  MX4    PZE
      54775  0 00000 0 00000  I2     PZE
      54776                   PTBL   BSS     35*144
                                     END

        LITERALS
      66656  000000000000
      66657  000000000001
      66660  000000000002
      66661  000000000003
      66662  000000000004
      66663  000000001540
      66664  000000003300
      66665  000000040720
      66666  400000000000
      66667  400000000001
      66670  516060606060
      66671  516660606060
      66672  606060214343
      66673  666060606060
      66674  777777000000
      66675  777777777777
1            LMSORT FAP            BY MICHAEL R COMER                                            PAGE 1
                        POST PROCESSOR ASSEMBLY DATA

      66676 IS THE FIRST LOCATION NOT USED BY THIS PROGRAM

0REFERENCES TO DEFINED SYMBOLS
       3474      A    65,   70,  107,  112
      54772      L   314,  721,  722,  732,  741, 1033, 1036
        766     A1   737
       1017     A2   740
        461     EQ   457,  471
        522     GR   456,  470,  474,  475
      54775     I2   450,  476,  522
        476     LE   453,  454,  465,  466
        366     MT   355
        101     OK    72
       1032    EQA  1005
        241    ERR   223,  230,  233,  240
        472    LE2   460
      54774    MX4   347,  403,  445,  541,  563
        123    OK2   114
       1031    SEQ   754
      54771    TEM   616,  620,  730,  733,  771
        664   A2X4   641,  643
        575   ADR1   604
        641   ALL2   317,  366,  663
       3473   CODE    67,  111,  221,  231
        742   COMP  1024
        543   END1   350,  363,  400,  404,  430,  521,  557,  562
        541   END2
       1037   ENDM   152,  666, 1025, 1034
        143   EOF1   133
        354   EOF2   331
        371   EOF3   343
        174   EXIT   165,  211,  220,  242,  253,  264
        661   INC5   653,  654
        243   LINK    71,  224
        431   MIX4   265
        637   MOX4   615
        613   N3X4   565
        565   NEW3   511,  516,  533,  537,  554,  560,  656,  662
        446   NEXT   517,  520,  540
          1   OPEN    50,  266,  300
      54776   PTBL   446,  477,  644,  705,  710,  715,  716,  742,  744,  762,  763,  764,  765,  773,  775, 1013, 1014
                    1015, 1016
        666   SORT   140
        762   SWAP   750,  751,  761
       1035   VOID
       1013  ASWAP  1001, 1002, 1012
          7  CLOSE   156,  215,  410,  416
        563  END12   543
        104  ERRIN   227
        221  FERR1    66
        231  FERR2   110
       3471  FILEA    64,   75,  103,  170,  271,  276,  326,  340,  412,  415,  422,  424
       3472  FILEB   106,  117,  125,  303,  310,  420,  421,  423,  570,  573,  627,  632
         14  FWAIT   566,  625
1            LMSORT FAP            BY MICHAEL R COMER                                            PAGE 2
                        POST PROCESSOR ASSEMBLY DATA

        254  LINK2   113,  234
        126  LOOP1   142,  237
        777  LOOPA  1032
        727  LOOPM  1030
        445  MERGE   334,  365
        615  MERGO   367,  407
        410  MIRET   370,  372
        634  MOADD   622,  624
       3464  NAME1    25,   52,   57,  127,  216
       3465  NAME2    33,   53,   60,  130,  217
       3466  NAME3    41,  162,  172
       3467  NAME4    47,  163,  173
        176  NMERR    23,   24,   31,   32,   37,   40,   45,   46
        677  NOSET   153
       3462  PNTR1   131,  135,  137,  212
       3463  PNTR2   313,  327,  341,  433,  435
        212  RETZE   144
        433  SETUP   333,  345,  364,  401
        746  SLOOP  1031
       3470  SORT2    63,   74,  102,  105,  116,  124,  167,  270,  275,  302,  307,  325,  337,  411,  414,  417,  567
                     572,  626,  631
        770  SWPLP  1021
        647 A2LOOP   611,  655,  660
        557 AWAWGO   551,  552
       1041 BUFER1    61
       1721 BUFER2   277
       2601 BUFER3   311
          2 BUFFER    56,  274,  306
          4 CHFILE    73,  115,  166
        514 CHKNX1   320,  506,  507
        536 CHKNX2   362,  377,  427,  530,  531
         11 CHNCOM   174
         10 DELETE   161
          5 DELFIL   101,  123,  413
        545 E1LOOP   553,  556,  610
        670 ENDTBL   674
          3 FSTATE    62,  104
        710 GENTBL   717
          0 GETCOM    20,   26,   34,   42
        524 GRLOOP   532,  535,  607
      41600 IN1LEN   126,  132,  670,  676, 3504
      54766 IN1LOC   145
      54770 IN2END   425
      54767 IN2LOC   356,  373
       3504 INPUT1   132,  670,  676,  677,54766
      45304 INPUT2   330,  342,  436,54767,54770
       3461 ..TIME
         12 .PCOMT   176,  243,  254
       1033 JSTONE   723
      54773 LASLEN   134,  143,  332,  344,  354,  371
        502 LELOOP   510,  513,  606
        265 MERGIN   141,  155
        324 MILOOP   335
        336 MILOP2   321,  353
       1022 NOSWAP   753,  757,  760,  766, 1004, 1010, 1011, 1017
1            LMSORT FAP            BY MICHAEL R COMER                                            PAGE 3
                        POST PROCESSOR ASSEMBLY DATA

      51466 OUTPT1   502,  524,  545,  575,  647,51464
      53226 OUTPT2 51465
      51464 OUTPTA   601,  603,  623
      51465 OUTPTB   600,  602
         13 PRNTER   241
          6 RDWAIT   126,  324,  336
        156 RETURN   214
        700 STTABL   704
        720 TBDONE   712,  713
         15 WRFILE   571
         16 WRWAIT   630

0 NO ERROR IN ABOVE ASSEMBLY.


MEMTST   BCD 02/09/69 0704.0    2180         00000
1     MAD PROGRAM LISTING ... ... ...                 FILE  MEMTST   MAD            02/09/69    0703.0
-
                 ..  ROUTINE TO CHECK MEMORY, SWAPPING, ETC.                                           LM00001
                 ..  WRITES RANDOM NUMBERS INTO BUFFER, THEN CHECKS THEM.                              LM00002
                 ..  J. H. SALTZER, NOVEMBER, 1965.                                                    LM00003
                                                                                                       LM00004
                  NORMAL MODE IS INTEGER                                                          *001 LM00005
                  VECTOR VALUES RSTART = 12345671011K                                             *002 LM00006
                  VECTOR VALUES MAGIC = 314151126535K                                             *003 LM00007
                  VECTOR VALUES BUFSIZ = 25000                                                    *004 LM00008
                  VECTOR VALUES NTEST = 10                                                        *005 LM00009
                                                                                                       LM00010
                 ..  LOAD UP THE BUFFER WITH RANDOM NUMBERS.                                           LM00011
                                                                                                       LM00012
                  TEST = 0                                                                        *006 LM00013
      LOOP        A(0) = RSTART                                                                   *007 LM00014
                  THROUGH SETUP, FOR I = 1, 1, I .G. BUFSIZ                                       *008 LM00015
      SETUP         A(I) = A(I-1)*MAGIC                                                           *009 LM00016
                  TEST = TEST+1                                                                   *010 LM00017
                                                                                                       LM00018
                 ..  NOW, CHECK THIS BUFFER TEN TIMES.                                                 LM00019
                                                                                                       LM00020
                  THROUGH RCHK, FOR J = 1, 1, J .G. NTEST                                         *011 LM00021
                    RNEXT = RSTART                                                                *012 LM00022
                    THROUGH CKLP, FOR I = 1, 1, I .G. BUFSIZ                                      *013 LM00023
                      RNEXT = RNEXT*MAGIC                                                         *014 LM00024
      CKLP            WHENEVER A(I) .NE. RNEXT,                                                   *015 LM00025
                1         PRINT FORMAT WOOPS, I, A(I), RNEXT                                      *015 LM00026
                                                                                                       LM00027
                 ..  THAT TEST WORKED, PERFORM SWAP AND TRY AGAIN.                                     LM00028
                                                                                                       LM00029
                    N = 1                                                                         *016 LM00030
                    SLEEP.(N)                                                                     *017 LM00031
      RCHK          CONTINUE                                                                      *018 LM00032
                                                                                                       LM00033
                 ..  ALL TESTS WORKED.  RESET RANDOM NUMBER                                            LM00034
                 ..  GENERATOR BEFORE TRYING AGAIN.                                                    LM00035
                                                                                                       LM00036
                  RSTART = RNEXT                                                                  *019 LM00037
                  TRANSFER TO LOOP                                                                *020 LM00038
                                                                                                       LM00039
                  VECTOR VALUES WOOPS = $H'WORD',I5,H' IS 'O12,                                   *021 LM00040
                1     H' SHOULD BE 'O12*$                                                         *021 LM00041
                  DIMENSION A(25000)                                                              *022 LM00042
                  END OF PROGRAM                                                                  *023 LM00043
1MAD PROGRAM,TYPE NOV 1963      (ALL NUMBERS ARE OCTAL)
0TOTAL LOCATIONS   61022 TRANSFER VECTOR LENGTH  00004 PROGRAM BEGINS    60705
0VARIABLE STORAGE (A=ARRAY,C=COMMON,E=ERASABLE,DIGIT=MODE)
      A      60656 A 1        I      60660   1        MAGIC  60662 A 1        RCHK   00004   4        SETUP  00004   4
      BUFSIZ 60657 A 1        J      60661   1        N      60663   1        RNEXT  60665   1        TEST   60667   1
      CKLP   00004   4        LOOP   00005   4        NTEST  60664 A 1        RSTART 60666 A 1        WOOPS  60701 A 1
0FUNCTION DICTIONARY
      EXIT   00000   1        .PRINT 00001   1        .SETUP 00002   1        SLEEP  00003   1
0ABSOLUTE CONSTANTS
 60702 +000000000000     60703 +000000000001     60704 +233000000000
0STATEMENT DICTIONARY
 00005 TXL -360712060710
0PROGRAM
                 NORMAL MODE IS INTEGER                                             001  LM00005
                 VECTOR VALUES RSTART = 12345671011K                                002  LM00006
 60705 TSX +0 07400 4 00002    60666     +0 12345 6 71011
                 VECTOR VALUES MAGIC = 314151126535K                                003  LM00007
 60662     +3 14151 1 26535
                 VECTOR VALUES BUFSIZ = 25000                                       004  LM00008
 60657     +0 00000 0 60650
                 VECTOR VALUES NTEST = 10                                           005  LM00009
 60664     +0 00000 0 00012
                 TEST = 0                                                           006  LM00013
 60706 CLA +0 50000 0 60702    60707 STO +0 60100 0 60667
      LOOP       A(0) = RSTART                                                      007  LM00014
 60710 CLA +0 50000 0 60666    60711 STO +0 60100 0 60656
                 THROUGH SETUP, FOR I = 1, 1, I .G. BUFSIZ                          008  LM00015
 60712 CLA +0 50000 0 60703    60713 STO +0 60100 0 60660    60714 TRA +0 02000 0 60720    60715 CLA +0 50000 0 60660
 60716 ADD +0 40000 0 60703    60717 STO +0 60100 0 60660    60720 CLA +0 50000 0 60660    60721 SUB +0 40200 0 60657
 60722 TZE +0 10000 0 60724    60723 TPL +0 12000 0 60734
      SETUP        A(I) = A(I-1)*MAGIC                                              009  LM00016
 60724 CLA +0 50000 0 60660    60725 SUB +0 40200 0 60703    60726 PAX +0 73400 1 00000    60727 LDQ +0 56000 1 60656
 60730 MPY +0 20000 0 60662    60731 LXA +0 53400 1 60660    60732 STQ -0 60000 1 60656    60733 TRA +0 02000 0 60715
                 TEST = TEST+1                                                      010  LM00017
 60734 CLA +0 50000 0 60667    60735 ADD +0 40000 0 60703    60736 STO +0 60100 0 60667
                 THROUGH RCHK, FOR J = 1, 1, J .G. NTEST                            011  LM00021
 60737 CLA +0 50000 0 60703    60740 STO +0 60100 0 60661    60741 TRA +0 02000 0 60745    60742 CLA +0 50000 0 60661
 60743 ADD +0 40000 0 60703    60744 STO +0 60100 0 60661    60745 CLA +0 50000 0 60661    60746 SUB +0 40200 0 60664
 60747 TZE +0 10000 0 60751    60750 TPL +0 12000 0 61014
                   RNEXT = RSTART                                                   012  LM00022
 60751 CLA +0 50000 0 60666    60752 STO +0 60100 0 60665
                   THROUGH CKLP, FOR I = 1, 1, I .G. BUFSIZ                         013  LM00023
 60753 CLA +0 50000 0 60703    60754 STO +0 60100 0 60660    60755 TRA +0 02000 0 60761    60756 CLA +0 50000 0 60660
 60757 ADD +0 40000 0 60703    60760 STO +0 60100 0 60660    60761 CLA +0 50000 0 60660    60762 SUB +0 40200 0 60657
 60763 TZE +0 10000 0 60765    60764 TPL +0 12000 0 61007
                     RNEXT = RNEXT*MAGIC                                            014  LM00024
 60765 LDQ +0 56000 0 60665    60766 MPY +0 20000 0 60662    60767 STQ -0 60000 0 60665
      CKLP           WHENEVER A(I) .NE. RNEXT,                                      015  LM00025
                1        PRINT FORMAT WOOPS, I, A(I), RNEXT                         015  LM00026
 60770 LXA +0 53400 1 60660    60771 CLA +0 50000 1 60656    60772 SUB +0 40200 0 60665    60773 TZE +0 10000 0 61006
 60774 TSX +0 07400 4 00001    60775 STR -1 60701 1 61020    60776 STR -1 00000 0 60660    60777 CLA +0 50000 0 60660
 61000 SUB +0 40200 0 61001    61001 TXH +3 00000 0 60656    61002 STA +0 62100 0 61003    61003 STR -1 00000 0 00000
 61004 STR -1 00000 0 60665    61005 STR -1 00000 0 00000    61006 TRA +0 02000 0 60756
                   N = 1                                                            016  LM00030
 61007 CLA +0 50000 0 60703    61010 STO +0 60100 0 60663
                   SLEEP.(N)                                                        017  LM00031
 61011 TSX +0 07400 4 00003    61012 TXH +3 00000 0 60663
      RCHK         CONTINUE                                                         018  LM00032
 61013 TRA +0 02000 0 60742
                 RSTART = RNEXT                                                     019  LM00037
 61014 CLA +0 50000 0 60665    61015 STO +0 60100 0 60666
                 TRANSFER TO LOOP                                                   020  LM00038
 61016 TRA +0 02000 0 00005
                 VECTOR VALUES WOOPS = $H'WORD',I5,H' IS 'O12,                      021  LM00040
                1    H' SHOULD BE 'O12*$                                            021  LM00041
 60670     -2 01446 0 10254    60671     -2 44324 6 02225    60672     +3 01460 6 23046    60673     -2 06060 6 06060
 60674     -2 06060 6 06060    60675     -2 06060 6 06060    60676     -0 60102 7 36060    60677     +1 46031 6 26014
 60700     +1 47331 0 57330    60701     +3 01466 4 65124
                 DIMENSION A(25000)                                                 022  LM00042
                 END OF PROGRAM                                                     023  LM00043
 61017 TSX +0 07400 4 00000


  LOOK   BCD 10/12/70 1513.8   10985         00000
1     MAD PROGRAM LISTING ... ... ...                 FILE    LOOK   MAD            02/09/69    0700.8
-
      LOOK        PROGRAM TO PRINT OUT MAIL BOX, URGENT MAIL AND                                       LM00001
                  URGENT POST IF ANY EXIST.                                                            LM00002
                                                                                                       LM00003
                  R. ROACH    12/14/68                                                                 LM00004
                                                                                                       LM00005
                  NORMAL MODE IS INTEGER                                                          *001 LM00006
                  VECTOR VALUES MAXLEN = 19                                                       *002 LM00007
                  VECTOR VALUES NFILES = 3                                                        *003 LM00008
                  VECTOR VALUES N1 = $  MAIL$,$URGENT$,$URGENT$                                   *004 LM00009
                  VECTOR VALUES N2 = $   BOX$,$  MAIL$,$  POST$                                   *005 LM00010
                  VECTOR VALUES T = $(TEMP)$                                                      *006 LM00011
                  VECTOR VALUES F = $(FILE)$                                                      *007 LM00012
                  VECTOR VALUES STATUS = $R$                                                      *008 LM00013
                  BOOLEAN CARD,ASK.,FLAG,LMERR,LINK                                               *009 LM00014
                  VECTOR VALUES FLAG = 0B                                                         *010 LM00015
                  VECTOR VALUES CARD = 0B                                                         *011 LM00016
                  VECTOR VALUES LMERR = 0B                                                        *012 LM00017
                                                                                                       LM00018
                                                                                                       LM00019
                  VECTOR VALUES RED = 013300570057K                                               *013 LM00020
                  VECTOR VALUES BLACK = 013200570057K                                             *014 LM00021
                  VECTOR VALUES TAB = 725757575757K                                               *015 LM00022
                  VECTOR VALUES MESS1 = $0*0*0*0*0 0 0L1I1N1E0 1T1O1O0 1L1O1N1G0.$                *016 LM00023
                  VECTOR VALUES MESS2 = $0*0*0*0*0 0 0L1I1N1E1M1A1R1K0 1E1R1R1O1R0.$              *017 LM00024
                  VECTOR VALUES MESS3 = $0D1E1L1E1T1E0 1I1T$,015600600060K                        *018 LM00025
                  VECTOR VALUES MESS4 = $0D1E1L1E1T1E1D0.$                                        *019 LM00026
                  VECTOR VALUES MESS5 = $0N1O1T0 1D1E1L1E1T1E1D0.$                                *020 LM00027
                  VECTOR VALUES MESS6 = $0 0N1O0 1M1A1I1L0 1A1T0 $                                *021 LM00028
                  VECTOR VALUES MESS7 = $0F1I1L1E0 1I1S0 1A0 1L1I1N1K0.$                          *022 LM00029
                  VECTOR VALUES MESS8 = $0F1I1L1E0 1U1N1L1I1N1K1E1D0.$                            *023 LM00030
                                                                                                       LM00031
                  DIMENSION LM(25),B1(0),B2(0),LENGTH(1)                                          *024 LM00032
                  EQUIVALENCE (MODE,LENGTH)                                                       *025 LM00033
                  GETBUF.(B1,432)                                                                 *026 LM00034
                  GETBUF.(B2,432)                                                                 *027 LM00035
                  PRMESS.                                                                         *028 LM00036
                  SETBRK.(ASKLOC)                                                                 *029 LM00037
                                                                                                       LM00038
                                                                                                       LM00039
                  THROUGH LOOP, FOR I = 0,1,I.GE.NFILES                                           *030 LM00040
                  FSTATE.(N1(I),N2(I),LENGTH(1)...2,LOOP)                                         *031 LM00041
                  WHENEVER LENGTH(1).NE.0                                                         *032 LM00042
                    WHENEVER MODE .L. 0                                                           *033 LM00043
                      NAME1 = N1(I)                                                               *034 LM00044
                      NAME2 = N2(I)                                                               *035 LM00045
                      LINK = 1B                                                                   *036 LM00046
                    OTHERWISE                                                                     *037 LM00047
                      LINK = 0B                                                                   *038 LM00048
                      NAME1 = T                                                                   *039 LM00049
                      NAME2 = F                                                                   *040 LM00050
                    END OF CONDITIONAL                                                            *041 LM00051
                     WHENEVER .NOT.LINK, DELETE.(NAME1,NAME2,0,IOERR)                             *042 LM00052
                     WHENEVER .NOT.LINK,CHFILE.(N1(I),N2(I),0,NAME1,NAME2,ERR,CODE)               *043 LM00053
      ROOM           PRINT.                                                                       *044 LM00054
      ASKLOC         WHENEVER ASK.(0)                                                             *045 LM00055
                      WHENEVER LINK                                                               *046 LM00056
                       UNLINK.(NAME1,NAME2,NOPRIV)                                                *047 LM00057
                       SETFUL.                                                                    *048 LM00058
                       PRMESS.(MESS8...5)                                                         *049 LM00059
                       SETBCD.                                                                    *050 LM00060
                       PRMESS.                                                                    *051 LM00061
                       TRANSFER TO LOOP                                                           *052 LM00062
      NOPRIV           SETFUL.                                                                    *053 LM00063
                       PRMESS.(MESS7...5)                                                         *054 LM00064
                       SETBCD.                                                                    *055 LM00065
                       PRMESS.                                                                    *056 LM00066
                       TRANSFER TO LOOP                                                           *057 LM00067
                      END OF CONDITIONAL                                                          *058 LM00068
                        DELFIL.(NAME1,NAME2,IOERR)                                                *059 LM00069
                        SETFUL.                                                                   *060 LM00070
                        PRMESS.(MESS4...3)                                                        *061 LM00071
                        SETBCD.                                                                   *062 LM00072
                        PRMESS.                                                                   *063 LM00073
                     OTHERWISE                                                                    *064 LM00074
                        WHENEVER .NOT.LINK,CHFILE.(NAME1,NAME2,-0,N1(I),N2(I),IOERR)              *065 LM00075
                        SETFUL.                                                                   *066 LM00076
                        PRMESS.(MESS5...4)                                                        *067 LM00077
                        SETBCD.                                                                   *068 LM00078
                        PRMESS.                                                                   *069 LM00079
                     END OF CONDITIONAL                                                           *070 LM00080
                  END OF CONDITIONAL                                                              *071 LM00081
      LOOP        CONTINUE                                                                        *072 LM00082
                  WHENEVER .NOT.FLAG                                                              *073 LM00083
                     GETTM.(DATE,TIME)                                                            *074 LM00084
                     SETFUL.                                                                      *075 LM00085
                     PRMESA.(MESS6...4)                                                           *076 LM00086
                     SETBCD.                                                                      *077 LM00087
                     PRMESS.(DATE,TIME)                                                           *078 LM00088
      END            PRMESS.                                                                      *079 LM00089
                  END OF CONDITIONAL                                                              *080 LM00090
                  CHNCOM.(0)                                                                      *081 LM00091
                                                                                                       LM00092
                                                                                                       LM00093
                  INTERNAL FUNCTION                                                               *082 LM00094
                  ENTRY TO PRINT.                                                                 *083 LM00095
                                                                                                       LM00096
                  SETFUL.                                                                         *084 LM00097
                  PRMESA.(RED)                                                                    *085 LM00098
                  SETBCD.                                                                         *086 LM00099
                  PRMESA.(TAB,N1(I),N2(I),TAB)                                                    *087 LM00100
                  GETTM.(DATE,TIME)                                                               *088 LM00101
                  SETFUL.                                                                         *089 LM00102
                  PRMESA.(BLACK)                                                                  *090 LM00103
                  SETBCD.                                                                         *091 LM00104
                  PRMESS.(DATE,TIME)                                                              *092 LM00105
                  PRMESS.                                                                         *093 LM00106
                  FLAG = 1B                                                                       *094 LM00107
                                                                                                       LM00108
                                                                                                       LM00109
                  BFOPEN.(STATUS,NAME1,NAME2,B1(B1),B2(B2),-0,IOERR)                              *095 LM00110
                                                                                                       LM00111
      RLOOP1      BFREAD.(NAME1,NAME2,LM(25)...1,EOF,EOFCT,IOERR)                                 *096 LM00112
      RBACK1      WHENEVER LM(25).A.777777K6 .NE. 777777K6                                        *097 LM00113
                    N = 14                                                                        *098 LM00114
                    CARD = 1B                                                                     *099 LM00115
                    BFREAD.(NAME1,NAME2,LM(24)...13,EOF,EOFCT,IOERR)                              *100 LM00116
                  OTHERWISE                                                                       *101 LM00117
                     CARD = 0B                                                                    *102 LM00118
                     N = LM(25).A.777777K                                                         *103 LM00119
                     M = -N                                                                       *104 LM00120
                  END OF CONDITIONAL                                                              *105 LM00121
                                                                                                       LM00122
                                                                                                       LM00123
                  WHENEVER N .G. MAXLEN                                                           *106 LM00124
                      SETFUL.                                                                     *107 LM00125
                      PRMESS.(MESS1...7)                                                          *108 LM00126
                      SETBCD.                                                                     *109 LM00127
                      LMERR = 1B                                                                  *110 LM00128
                      M = -MAXLEN                                                                 *111 LM00129
                      N = MAXLEN                                                                  *112 LM00130
                  OTHERWISE                                                                       *113 LM00131
                     LMERR = 0B                                                                   *114 LM00132
                  END OF CONDITIONAL                                                              *115 LM00133
                                                                                                       LM00134
                                                                                                       LM00135
                                                                                                       LM00136
                  WHENEVER CARD                                                                   *116 LM00137
                     M = -12                                                                      *117 LM00138
                     PRMESS.(LM(25)...M)                                                          *118 LM00139
                     TRANSFER TO RLOOP1                                                           *119 LM00140
                  OTHERWISE                                                                       *120 LM00141
                     BFREAD.(NAME1,NAME2,LM(24)...N,EOF,EOFCT,IOERR)                              *121 LM00142
                     PRMESS.(LM(24)...M)                                                          *122 LM00143
                     BFREAD.(NAME1,NAME2,LM(25)...1,EOF,EOFCT,IOERR)                              *123 LM00144
                     WHENEVER LM(25).A.777777K6 .NE. 777777K6                                     *124 LM00145
                        WHENEVER .NOT.LMERR                                                       *125 LM00146
                          SETFUL.                                                                 *126 LM00147
                          PRMESS.(MESS2...7)                                                      *127 LM00148
                          SETBCD.                                                                 *128 LM00149
                        END OF CONDITIONAL                                                        *129 LM00150
      RLOOP2            BFREAD.(NAME1,NAME2,LM(25)...1,EOF,EOFCT,IOERR)                           *130 LM00151
                        WHENEVER LM(25).A.777777K6 .NE. 777777K6, TRANSFER TO RLOOP2              *131 LM00152
                        TRANSFER TO RBACK1                                                        *132 LM00153
                     OTHERWISE                                                                    *133 LM00154
                        TRANSFER TO RBACK1                                                        *134 LM00155
                     END OF CONDITIONAL                                                           *135 LM00156
                  END OF CONDITIONAL                                                              *136 LM00157
                                                                                                       LM00158
                                                                                                       LM00159
      EOF         PRMESS.                                                                         *137 LM00160
                  BFCLOS.(NAME1,NAME2,IOERR)                                                      *138 LM00161
                  FUNCTION RETURN                                                                 *139 LM00162
                                                                                                       LM00163
                  END OF FUNCTION                                                                 *140 LM00164
                                                                                                       LM00165
      IOERR       PRDIAG.                                                                         *141 LM00166
                  FLAG = 1B                                                                       *142 LM00167
                  TRANSFER TO END                                                                 *143 LM00168
                                                                                                       LM00169
                  INTERNAL FUNCTION                                                               *144 LM00170
                  ENTRY TO ASK.                                                                   *145 LM00171
                  SETFUL.                                                                         *146 LM00172
                  PRMESA.(MESS3...4)                                                              *147 LM00173
                  SETBCD.                                                                         *148 LM00174
                  RDFLXC.(ANS,6)                                                                  *149 LM00175
                  WHENEVER RJUST.(ANS) .E. $   YES$, FUNCTION RETURN 1B                           *150 LM00176
                  FUNCTION RETURN 0B                                                              *151 LM00177
                                                                                                       LM00178
                                                                                                       LM00179
                  END OF FUNCTION                                                                 *152 LM00180
                                                                                                       LM00181
                                                                                                       LM00182
      ERR         WHENEVER  CODE .E. 9                                                            *153 LM00183
                    STATUS = $RW$                                                                 *154 LM00184
                    WHENEVER .NOT.LINK, CHFILE.(N1(I),N2(I),-0,NAME1,NAME2,IOERR)                 *155 LM00185
                    TRANSFER TO ROOM                                                              *156 LM00186
                  OTHERWISE                                                                       *157 LM00187
                    TRANSFER TO IOERR                                                             *158 LM00188
                  END OF CONDITIONAL                                                              *159 LM00189
                  END OF PROGRAM                                                                  *160 LM00190
1MAD PROGRAM,TYPE NOV 1963      (ALL NUMBERS ARE OCTAL)
0TOTAL LOCATIONS   01026 TRANSFER VECTOR LENGTH  00025 PROGRAM BEGINS    00226
0VARIABLE STORAGE (A=ARRAY,C=COMMON,E=ERASABLE,DIGIT=MODE)
      ANS    00045   1        EOF    00034   4        LOOP   00037   4        MODE   00031   1        RBACK1 00041   4
      ASKLOC 00032   4        ERR    00035   4        MAXLEN 00114 A 1        M      00164   1        RED    00177 A 1
      B1     00046 A 1        FLAG   00055 A 2        MESS1  00123 A 1        N1     00167 A 1        RLOOP1 00042   4
      B2     00047 A 1        F      00056 A 1        MESS2  00132 A 1        N2     00172 A 1        RLOOP2 00043   4
      BLACK  00050 A 1        IOERR  00036   4        MESS3  00136 A 1        NAME1  00173   1        ROOM   00044   4
      CARD   00051 A 2        I      00057   1        MESS4  00141 A 1        NAME2  00174   1        STATUS 00200 A 1
      CODE   00052   1        LENGTH 00031 A 1        MESS5  00145 A 1        NFILES 00175 A 1        TAB    00201 A 1
      DATE   00053   1        LINK   00060   2        MESS6  00151 A 1        NOPRIV 00040   4        TIME   00202   1
      END    00033   4        LMERR  00061 A 2        MESS7  00156 A 1        N      00176   1        T      00203 A 1
      EOFCT  00054   1        LM     00113 A 1        MESS8  00163 A 1
0FUNCTION DICTIONARY
      BFCLOS 00000   1        BFOPEN 00001   1        BFREAD 00002   1        CHFILE 00003   1        CHNCOM 00004   1
      DELETE 00005   1        DELFIL 00006   1        EXIT   00007   1        FSTATE 00010   1        GETBUF 00011   1
      GETTM  00012   1        .SETUP 00013   1        PRDIAG 00014   1        PRMESA 00015   1        PRMESS 00016   1
      RDFLXC 00017   1        RJUST  00020   1        SETBCD 00021   1        SETBRK 00022   1        SETFUL 00023   1
      UNLINK 00024   1        ASK    00025   2        PRINT  00026   1
0ABSOLUTE CONSTANTS
 00223 -116660606060     00214 +000000000011     00224 -206060702562     00212 +000000000006     00215 +000000000014
 00213 +000000000007     00221 +000000777777     00216 +000000000015     00217 +000000000016     00225 -377777000000
 00210 +000000000004     00207 +000000000003     00211 +000000000005     00206 +000000000002     00204 +000000000000
 00220 +000000000660     00205 +000000000001     00222 +233000000000
0STATEMENT DICTIONARY
 00032 TXL -300351000346       00033 TXL -300453000452       00034 TXL -300710000707       00035 TXL -300772000767
 00036 TXL -300730000727       00037 TXL -300436000435       00040 TXL -300366000365       00041 TXL -300556000550
 00042 TXL -300550000541       00043 TXL -300675000666       00044 TXL -300346000345
0PROGRAM
                 N'R                                                                001  LM00006
                 V'S MAXLEN = 19                                                    002  LM00007
 00226 TSX +0 07400 4 00013    00114     +0 00000 0 00023
                 V'S NFILES = 3                                                     003  LM00008
 00175     +0 00000 0 00003
                 V'S N1 = $  MAIL$,$URGENT$,$URGENT$                                004  LM00009
 00165     -2 45127 2 54563    00166     -2 45127 2 54563    00167     -2 06044 2 13143
                 V'S N2 = $   BOX$,$  MAIL$,$  POST$                                005  LM00010
 00170     -2 06047 4 66263    00171     -2 06044 2 13143    00172     -2 06060 2 24667
                 V'S T = $(TEMP)$                                                   006  LM00011
 00203     -3 46325 4 44734
                 V'S F = $(FILE)$                                                   007  LM00012
 00056     -3 42631 4 32534
                 V'S STATUS = $R$                                                   008  LM00013
 00200     -1 16060 6 06060
                 BOOLEAN CARD,ASK.,FLAG,LMERR,LINK                                  009  LM00014
                 V'S FLAG = 0B                                                      010  LM00015
 00055     +0 00000 0 00000
                 V'S CARD = 0B                                                      011  LM00016
 00051     +0 00000 0 00000
                 V'S LMERR = 0B                                                     012  LM00017
 00061     +0 00000 0 00000
                 V'S RED = 013300570057K                                            013  LM00020
 00177     +0 13300 5 70057
                 V'S BLACK = 013200570057K                                          014  LM00021
 00050     +0 13200 5 70057
                 V'S TAB = 725757575757K                                            015  LM00022
 00201     -3 25757 5 75757
                 V'S MESS1 = $0*0*0*0*0 0 0L1I1N1E0 1T1O1O0 1L1O1N1G0.$             016  LM00023
 00115     +0 12700 3 36060    00116     +0 14301 4 60145    00117     +0 14601 4 60060    00120     +0 12500 6 00163
 00121     +0 04301 3 10145    00122     +0 05400 6 00060    00123     +0 05400 5 40054
                 V'S MESS2 = $0*0*0*0*0 0 0L1I1N1E1M1A1R1K0 1E1R1R1O1R0.$           017  LM00024
 00124     +0 14601 5 10033    00125     +0 12501 5 10151    00126     +0 15101 4 20060    00127     +0 12501 4 40121
 00130     +0 04301 3 10145    00131     +0 05400 6 00060    00132     +0 05400 5 40054
                 V'S MESS3 = $0D1E1L1E1T1E0 1I1T$,015600600060K                     018  LM00025
 00133     +0 15600 6 00060    00134     +0 06001 3 10163    00135     +0 12501 6 30125    00136     +0 02401 2 50143
                 V'S MESS4 = $0D1E1L1E1T1E1D0.$                                     019  LM00026
 00137     +0 12400 3 36060    00140     +0 12501 6 30125    00141     +0 02401 2 50143
                 V'S MESS5 = $0N1O1T0 1D1E1L1E1T1E1D0.$                             020  LM00027
 00142     +0 12501 2 40033    00143     +0 14301 2 50163    00144     +0 06001 2 40125    00145     +0 04501 4 60163
                 V'S MESS6 = $0 0N1O0 1M1A1I1L0 1A1T0 $                             021  LM00028
 00146     +0 12101 6 30060    00147     +0 13101 4 30060    00150     +0 06001 4 40121    00151     +0 06000 4 50146
                 V'S MESS7 = $0F1I1L1E0 1I1S0 1A0 1L1I1N1K0.$                       022  LM00029
 00152     +0 14501 4 20033    00153     +0 06001 4 30131    00154     +0 16200 6 00121    00155     +0 12500 6 00131
 00156     +0 02601 3 10143
                 V'S MESS8 = $0F1I1L1E0 1U1N1L1I1N1K1E1D0.$                         023  LM00030
 00157     +0 12400 3 36060    00160     +0 14501 4 20125    00161     +0 14501 4 30131    00162     +0 12500 6 00164
 00163     +0 02601 3 10143
                 D'N LM(25),B1(0),B2(0),LENGTH(1)                                   024  LM00032
                 E'E (MODE,LENGTH)                                                  025  LM00033
                 GETBUF.(B1,432)                                                    026  LM00034
 00227 TSX +0 07400 4 00011    00230 TXH +3 00000 0 00046    00231 TXH +3 00000 0 00220
                 GETBUF.(B2,432)                                                    027  LM00035
 00232 TSX +0 07400 4 00011    00233 TXH +3 00000 0 00047    00234 TXH +3 00000 0 00220
                 PRMESS.                                                            028  LM00036
 00235 TSX +0 07400 4 00016
                 SETBRK.(ASKLOC)                                                    029  LM00037
 00236 TSX +0 07400 4 00022    00237 TXH +3 00000 0 00032
                 T'H LOOP, FOR I = 0,1,I.GE.NFILES                                  030  LM00040
 00240 CLA +0 50000 0 00204    00241 STO +0 60100 0 00057    00242 TRA +0 02000 0 00246    00243 CLA +0 50000 0 00057
 00244 ADD +0 40000 0 00205    00245 STO +0 60100 0 00057    00246 CLA +0 50000 0 00057    00247 SUB +0 40200 0 00175
 00250 TZE +0 10000 0 00436    00251 TPL +0 12000 0 00436
                 FSTATE.(N1(I),N2(I),LENGTH(1)...2,LOOP)                            031  LM00041
 00252 CLA +0 50000 0 00057    00253 SUB +0 40200 0 00254    00254 TXH +3 00000 0 00172    00255 STA +0 62100 0 00264
 00256 CLA +0 50000 0 00057    00257 SUB +0 40200 0 00260    00260 TXH +3 00000 0 00167    00261 STA +0 62100 0 00263
 00262 TSX +0 07400 4 00010    00263 TXH +3 00000 0 00000    00264 TXH +3 00000 0 00000    00265 TIX +2 00206 0 00030
 00266 TXH +3 00000 0 00037
                 W'R LENGTH(1).NE.0                                                 032  LM00042
 00267 CLA +0 50000 0 00030    00270 SUB +0 40200 0 00204    00271 TZE +0 10000 0 00435
                   W'R MODE .L. 0                                                   033  LM00043
 00272 CLA +0 50000 0 00031    00273 SUB +0 40200 0 00204    00274 TZE +0 10000 0 00306    00275 TPL +0 12000 0 00306
                     NAME1 = N1(I)                                                  034  LM00044
 00276 LXA +0 53400 2 00057    00277 CLA +0 50000 2 00167    00300 STO +0 60100 0 00173
                     NAME2 = N2(I)                                                  035  LM00045
 00301 CLA +0 50000 2 00172    00302 STO +0 60100 0 00174
                     LINK = 1B                                                      036  LM00046
 00303 CLA +0 50000 0 00205    00304 STO +0 60100 0 00060
                   O'E                                                              037  LM00047
 00305 TRA +0 02000 0 00314
                     LINK = 0B                                                      038  LM00048
 00306 CLA +0 50000 0 00204    00307 STO +0 60100 0 00060
                     NAME1 = T                                                      039  LM00049
 00310 CLA +0 50000 0 00203    00311 STO +0 60100 0 00173
                     NAME2 = F                                                      040  LM00050
 00312 CLA +0 50000 0 00056    00313 STO +0 60100 0 00174
                   E'L                                                              041  LM00051
                    W'R .NOT.LINK, DELETE.(NAME1,NAME2,0,IOERR)                     042  LM00052
 00314 ZET +0 52000 0 00060    00315 TRA +0 02000 0 00323    00316 TSX +0 07400 4 00005    00317 TXH +3 00000 0 00173
 00320 TXH +3 00000 0 00174    00321 TXH +3 00000 0 00204    00322 TXH +3 00000 0 00036
                    W'R .NOT.LINK,CHFILE.(N1(I),N2(I),0,NAME1,NAME2,ERR,CODE)       043  LM00053
 00323 ZET +0 52000 0 00060    00324 TRA +0 02000 0 00345    00325 CLA +0 50000 0 00057    00326 SUB +0 40200 0 00327
 00327 TXH +3 00000 0 00172    00330 STA +0 62100 0 00337    00331 CLA +0 50000 0 00057    00332 SUB +0 40200 0 00333
 00333 TXH +3 00000 0 00167    00334 STA +0 62100 0 00336    00335 TSX +0 07400 4 00003    00336 TXH +3 00000 0 00000
 00337 TXH +3 00000 0 00000    00340 TXH +3 00000 0 00204    00341 TXH +3 00000 0 00173    00342 TXH +3 00000 0 00174
 00343 TXH +3 00000 0 00035    00344 TXH +3 00000 0 00052
      ROOM          PRINT.                                                          044  LM00054
 00345 TSX +0 07400 4 00026
      ASKLOC        W'R ASK.(0)                                                     045  LM00055
 00346 TSX +0 07400 4 00025    00347 TXH +3 00000 0 00204    00350 TZE +0 10000 0 00405
                     W'R LINK                                                       046  LM00056
 00351 NZT -0 52000 0 00060    00352 TRA +0 02000 0 00373
                      UNLINK.(NAME1,NAME2,NOPRIV)                                   047  LM00057
 00353 TSX +0 07400 4 00024    00354 TXH +3 00000 0 00173    00355 TXH +3 00000 0 00174    00356 TXH +3 00000 0 00040
                      SETFUL.                                                       048  LM00058
 00357 TSX +0 07400 4 00023
                      PRMESS.(MESS8...5)                                            049  LM00059
 00360 TSX +0 07400 4 00016    00361 TIX +2 00211 0 00163
                      SETBCD.                                                       050  LM00060
 00362 TSX +0 07400 4 00021
                      PRMESS.                                                       051  LM00061
 00363 TSX +0 07400 4 00016
                      T'O LOOP                                                      052  LM00062
 00364 TRA +0 02000 0 00037
      NOPRIV          SETFUL.                                                       053  LM00063
 00365 TSX +0 07400 4 00023
                      PRMESS.(MESS7...5)                                            054  LM00064
 00366 TSX +0 07400 4 00016    00367 TIX +2 00211 0 00156
                      SETBCD.                                                       055  LM00065
 00370 TSX +0 07400 4 00021
                      PRMESS.                                                       056  LM00066
 00371 TSX +0 07400 4 00016
                      T'O LOOP                                                      057  LM00067
 00372 TRA +0 02000 0 00037
                     E'L                                                            058  LM00068
                       DELFIL.(NAME1,NAME2,IOERR)                                   059  LM00069
 00373 TSX +0 07400 4 00006    00374 TXH +3 00000 0 00173    00375 TXH +3 00000 0 00174    00376 TXH +3 00000 0 00036
                       SETFUL.                                                      060  LM00070
 00377 TSX +0 07400 4 00023
                       PRMESS.(MESS4...3)                                           061  LM00071
 00400 TSX +0 07400 4 00016    00401 TIX +2 00207 0 00141
                       SETBCD.                                                      062  LM00072
 00402 TSX +0 07400 4 00021
                       PRMESS.                                                      063  LM00073
 00403 TSX +0 07400 4 00016
                    O'E                                                             064  LM00074
 00404 TRA +0 02000 0 00435
                       W'R .NOT.LINK,CHFILE.(NAME1,NAME2,-0,N1(I),N2(I),IOERR)      065  LM00075
 00405 ZET +0 52000 0 00060    00406 TRA +0 02000 0 00430    00407 CLA +0 50000 0 00057    00410 SUB +0 40200 0 00411
 00411 TXH +3 00000 0 00172    00412 STA +0 62100 0 00426    00413 CLA +0 50000 0 00057    00414 SUB +0 40200 0 00415
 00415 TXH +3 00000 0 00167    00416 STA +0 62100 0 00425    00417 CLS +0 50200 0 00204    00420 STO +0 60100 0 01023
 00421 TSX +0 07400 4 00003    00422 TXH +3 00000 0 00173    00423 TXH +3 00000 0 00174    00424 TXH +3 00000 0 01023
 00425 TXH +3 00000 0 00000    00426 TXH +3 00000 0 00000    00427 TXH +3 00000 0 00036
                       SETFUL.                                                      066  LM00076
 00430 TSX +0 07400 4 00023
                       PRMESS.(MESS5...4)                                           067  LM00077
 00431 TSX +0 07400 4 00016    00432 TIX +2 00210 0 00145
                       SETBCD.                                                      068  LM00078
 00433 TSX +0 07400 4 00021
                       PRMESS.                                                      069  LM00079
 00434 TSX +0 07400 4 00016
                    E'L                                                             070  LM00080
                 E'L                                                                071  LM00081
      LOOP       CONTINUE                                                           072  LM00082
 00435 TRA +0 02000 0 00243
                 W'R .NOT.FLAG                                                      073  LM00083
 00436 ZET +0 52000 0 00055    00437 TRA +0 02000 0 00453
                    GETTM.(DATE,TIME)                                               074  LM00084
 00440 TSX +0 07400 4 00012    00441 TXH +3 00000 0 00053    00442 TXH +3 00000 0 00202
                    SETFUL.                                                         075  LM00085
 00443 TSX +0 07400 4 00023
                    PRMESA.(MESS6...4)                                              076  LM00086
 00444 TSX +0 07400 4 00015    00445 TIX +2 00210 0 00151
                    SETBCD.                                                         077  LM00087
 00446 TSX +0 07400 4 00021
                    PRMESS.(DATE,TIME)                                              078  LM00088
 00447 TSX +0 07400 4 00016    00450 TXH +3 00000 0 00053    00451 TXH +3 00000 0 00202
      END           PRMESS.                                                         079  LM00089
 00452 TSX +0 07400 4 00016
                 E'L                                                                080  LM00090
                 CHNCOM.(0)                                                         081  LM00091
 00453 TSX +0 07400 4 00004    00454 TXH +3 00000 0 00204
                 I'N                                                                082  LM00094
 00455 TRA +0 02000 0 00727
                 E'O PRINT.                                                         083  LM00095
 00456 TRA +0 02000 0 00461    00026 TTR +0 02100 0 00457    00457 SXA +0 63400 2 00716    00460 TSX +0 07400 2 00716
                 SETFUL.                                                            084  LM00097
 00461 TSX +0 07400 4 00023
                 PRMESA.(RED)                                                       085  LM00098
 00462 TSX +0 07400 4 00015    00463 TXH +3 00000 0 00177
                 SETBCD.                                                            086  LM00099
 00464 TSX +0 07400 4 00021
                 PRMESA.(TAB,N1(I),N2(I),TAB)                                       087  LM00100
 00465 CLA +0 50000 0 00057    00466 SUB +0 40200 0 00467    00467 TXH +3 00000 0 00172    00470 STA +0 62100 0 00500
 00471 CLA +0 50000 0 00057    00472 SUB +0 40200 0 00473    00473 TXH +3 00000 0 00167    00474 STA +0 62100 0 00477
 00475 TSX +0 07400 4 00015    00476 TXH +3 00000 0 00201    00477 TXH +3 00000 0 00000    00500 TXH +3 00000 0 00000
 00501 TXH +3 00000 0 00201
                 GETTM.(DATE,TIME)                                                  088  LM00101
 00502 TSX +0 07400 4 00012    00503 TXH +3 00000 0 00053    00504 TXH +3 00000 0 00202
                 SETFUL.                                                            089  LM00102
 00505 TSX +0 07400 4 00023
                 PRMESA.(BLACK)                                                     090  LM00103
 00506 TSX +0 07400 4 00015    00507 TXH +3 00000 0 00050
                 SETBCD.                                                            091  LM00104
 00510 TSX +0 07400 4 00021
                 PRMESS.(DATE,TIME)                                                 092  LM00105
 00511 TSX +0 07400 4 00016    00512 TXH +3 00000 0 00053    00513 TXH +3 00000 0 00202
                 PRMESS.                                                            093  LM00106
 00514 TSX +0 07400 4 00016
                 FLAG = 1B                                                          094  LM00107
 00515 CLA +0 50000 0 00205    00516 STO +0 60100 0 00055
                 BFOPEN.(STATUS,NAME1,NAME2,B1(B1),B2(B2),-0,IOERR)                 095  LM00110
 00517 CLS +0 50200 0 00204    00520 STO +0 60100 0 00726    00521 CLA +0 50000 0 00047    00522 SUB +0 40200 0 00523
 00523 TXH +3 00000 0 00047    00524 STA +0 62100 0 00536    00525 CLA +0 50000 0 00046    00526 SUB +0 40200 0 00527
 00527 TXH +3 00000 0 00046    00530 STA +0 62100 0 00535    00531 TSX +0 07400 4 00001    00532 TXH +3 00000 0 00200
 00533 TXH +3 00000 0 00173    00534 TXH +3 00000 0 00174    00535 TXH +3 00000 0 00000    00536 TXH +3 00000 0 00000
 00537 TXH +3 00000 0 00726    00540 TXH +3 00000 0 00036
      RLOOP1     BFREAD.(NAME1,NAME2,LM(25)...1,EOF,EOFCT,IOERR)                    096  LM00112
 00541 TSX +0 07400 4 00002    00542 TXH +3 00000 0 00173    00543 TXH +3 00000 0 00174    00544 TIX +2 00205 0 00062
 00545 TXH +3 00000 0 00034    00546 TXH +3 00000 0 00054    00547 TXH +3 00000 0 00036
      RBACK1     W'R LM(25).A.777777K6 .NE. 777777K6                                097  LM00113
 00550 CAL -0 50000 0 00062    00551 ANA -0 32000 0 00225    00552 SLW +0 60200 0 00726    00553 CLA +0 50000 0 00726
 00554 SUB +0 40200 0 00225    00555 TZE +0 10000 0 00572
                   N = 14                                                           098  LM00114
 00556 CLA +0 50000 0 00217    00557 STO +0 60100 0 00176
                   CARD = 1B                                                        099  LM00115
 00560 CLA +0 50000 0 00205    00561 STO +0 60100 0 00051
                   BFREAD.(NAME1,NAME2,LM(24)...13,EOF,EOFCT,IOERR)                 100  LM00116
 00562 TSX +0 07400 4 00002    00563 TXH +3 00000 0 00173    00564 TXH +3 00000 0 00174    00565 TIX +2 00216 0 00063
 00566 TXH +3 00000 0 00034    00567 TXH +3 00000 0 00054    00570 TXH +3 00000 0 00036
                 O'E                                                                101  LM00117
 00571 TRA +0 02000 0 00601
                    CARD = 0B                                                       102  LM00118
 00572 CLA +0 50000 0 00204    00573 STO +0 60100 0 00051
                    N = LM(25).A.777777K                                            103  LM00119
 00574 CAL -0 50000 0 00062    00575 ANA -0 32000 0 00221    00576 SLW +0 60200 0 00176
                    M = -N                                                          104  LM00120
 00577 CLS +0 50200 0 00176    00600 STO +0 60100 0 00164
                 E'L                                                                105  LM00121
                 W'R N .G. MAXLEN                                                   106  LM00124
 00601 CLA +0 50000 0 00176    00602 SUB +0 40200 0 00114    00603 TZE +0 10000 0 00620    00604 TMI -0 12000 0 00620
                     SETFUL.                                                        107  LM00125
 00605 TSX +0 07400 4 00023
                     PRMESS.(MESS1...7)                                             108  LM00126
 00606 TSX +0 07400 4 00016    00607 TIX +2 00213 0 00123
                     SETBCD.                                                        109  LM00127
 00610 TSX +0 07400 4 00021
                     LMERR = 1B                                                     110  LM00128
 00611 CLA +0 50000 0 00205    00612 STO +0 60100 0 00061
                     M = -MAXLEN                                                    111  LM00129
 00613 CLS +0 50200 0 00114    00614 STO +0 60100 0 00164
                     N = MAXLEN                                                     112  LM00130
 00615 CLA +0 50000 0 00114    00616 STO +0 60100 0 00176
                 O'E                                                                113  LM00131
 00617 TRA +0 02000 0 00622
                    LMERR = 0B                                                      114  LM00132
 00620 CLA +0 50000 0 00204    00621 STO +0 60100 0 00061
                 E'L                                                                115  LM00133
                 W'R CARD                                                           116  LM00137
 00622 NZT -0 52000 0 00051    00623 TRA +0 02000 0 00632
                    M = -12                                                         117  LM00138
 00624 CLS +0 50200 0 00215    00625 STO +0 60100 0 00164
                    PRMESS.(LM(25)...M)                                             118  LM00139
 00626 TSX +0 07400 4 00016    00627 TIX +2 00164 0 00062
                    T'O RLOOP1                                                      119  LM00140
 00630 TRA +0 02000 0 00042
                 O'E                                                                120  LM00141
 00631 TRA +0 02000 0 00707
                    BFREAD.(NAME1,NAME2,LM(24)...N,EOF,EOFCT,IOERR)                 121  LM00142
 00632 TSX +0 07400 4 00002    00633 TXH +3 00000 0 00173    00634 TXH +3 00000 0 00174    00635 TIX +2 00176 0 00063
 00636 TXH +3 00000 0 00034    00637 TXH +3 00000 0 00054    00640 TXH +3 00000 0 00036
                    PRMESS.(LM(24)...M)                                             122  LM00143
 00641 TSX +0 07400 4 00016    00642 TIX +2 00164 0 00063
                    BFREAD.(NAME1,NAME2,LM(25)...1,EOF,EOFCT,IOERR)                 123  LM00144
 00643 TSX +0 07400 4 00002    00644 TXH +3 00000 0 00173    00645 TXH +3 00000 0 00174    00646 TIX +2 00205 0 00062
 00647 TXH +3 00000 0 00034    00650 TXH +3 00000 0 00054    00651 TXH +3 00000 0 00036
                    W'R LM(25).A.777777K6 .NE. 777777K6                             124  LM00145
 00652 CAL -0 50000 0 00062    00653 ANA -0 32000 0 00225    00654 SLW +0 60200 0 00726    00655 CLA +0 50000 0 00726
 00656 SUB +0 40200 0 00225    00657 TZE +0 10000 0 00706
                       W'R .NOT.LMERR                                               125  LM00146
 00660 ZET +0 52000 0 00061    00661 TRA +0 02000 0 00666
                         SETFUL.                                                    126  LM00147
 00662 TSX +0 07400 4 00023
                         PRMESS.(MESS2...7)                                         127  LM00148
 00663 TSX +0 07400 4 00016    00664 TIX +2 00213 0 00132
                         SETBCD.                                                    128  LM00149
 00665 TSX +0 07400 4 00021
                       E'L                                                          129  LM00150
      RLOOP2           BFREAD.(NAME1,NAME2,LM(25)...1,EOF,EOFCT,IOERR)              130  LM00151
 00666 TSX +0 07400 4 00002    00667 TXH +3 00000 0 00173    00670 TXH +3 00000 0 00174    00671 TIX +2 00205 0 00062
 00672 TXH +3 00000 0 00034    00673 TXH +3 00000 0 00054    00674 TXH +3 00000 0 00036
                       W'R LM(25).A.777777K6 .NE. 777777K6, T'O RLOOP2              131  LM00152
 00675 CAL -0 50000 0 00062    00676 ANA -0 32000 0 00225    00677 SLW +0 60200 0 00726    00700 CLA +0 50000 0 00726
 00701 SUB +0 40200 0 00225    00702 TZE +0 10000 0 00704    00703 TRA +0 02000 0 00043
                       T'O RBACK1                                                   132  LM00153
 00704 TRA +0 02000 0 00041
                    O'E                                                             133  LM00154
 00705 TRA +0 02000 0 00707
                       T'O RBACK1                                                   134  LM00155
 00706 TRA +0 02000 0 00041
                    E'L                                                             135  LM00156
                 E'L                                                                136  LM00157
      EOF        PRMESS.                                                            137  LM00160
 00707 TSX +0 07400 4 00016
                 BFCLOS.(NAME1,NAME2,IOERR)                                         138  LM00161
 00710 TSX +0 07400 4 00000    00711 TXH +3 00000 0 00173    00712 TXH +3 00000 0 00174    00713 TXH +3 00000 0 00036
                 F'N                                                                139  LM00162
 00714 TRA +0 02000 0 00722
                 E'N                                                                140  LM00164
 00715 TSX +0 07400 4 00007    00716 TXH +3 00000 0 00000    00717 SXD -0 63400 1 00716    00720 SXA +0 63400 4 00722
 00721 TRA +0 02000 2 00001    00722 AXT +0 77400 4 00000    00723 LXA +0 53400 2 00716    00724 LXD -0 53400 1 00716
 00725 TRA +0 02000 4 00001
      IOERR      PRDIAG.                                                            141  LM00166
 00727 TSX +0 07400 4 00014
                 FLAG = 1B                                                          142  LM00167
 00730 CLA +0 50000 0 00205    00731 STO +0 60100 0 00055
                 T'O END                                                            143  LM00168
 00732 TRA +0 02000 0 00033
                 I'N                                                                144  LM00170
 00733 TRA +0 02000 0 00767
                 E'O ASK.                                                           145  LM00171
 00734 TRA +0 02000 0 00737    00025 TTR +0 02100 0 00735    00735 SXA +0 63400 2 00757    00736 TSX +0 07400 2 00757
                 SETFUL.                                                            146  LM00172
 00737 TSX +0 07400 4 00023
                 PRMESA.(MESS3...4)                                                 147  LM00173
 00740 TSX +0 07400 4 00015    00741 TIX +2 00210 0 00136
                 SETBCD.                                                            148  LM00174
 00742 TSX +0 07400 4 00021
                 RDFLXC.(ANS,6)                                                     149  LM00175
 00743 TSX +0 07400 4 00017    00744 TXH +3 00000 0 00045    00745 TXH +3 00000 0 00212
                 W'R RJUST.(ANS) .E. $   YES$, F'N 1B                               150  LM00176
 00746 TSX +0 07400 4 00020    00747 TXH +3 00000 0 00045    00750 SUB +0 40200 0 00224    00751 TNZ -0 10000 0 00754
 00752 CLA +0 50000 0 00205    00753 TRA +0 02000 0 00763
                 F'N 0B                                                             151  LM00177
 00754 CLA +0 50000 0 00204    00755 TRA +0 02000 0 00763
                 E'N                                                                152  LM00180
 00756 TSX +0 07400 4 00007    00757 TXH +3 00000 0 00000    00760 SXD -0 63400 1 00757    00761 SXA +0 63400 4 00763
 00762 TRA +0 02000 2 00001    00763 AXT +0 77400 4 00000    00764 LXA +0 53400 2 00757    00765 LXD -0 53400 1 00757
 00766 TRA +0 02000 4 00001
      ERR        W'R  CODE .E. 9                                                    153  LM00183
 00767 CLA +0 50000 0 00052    00770 SUB +0 40200 0 00214    00771 TNZ -0 10000 0 01021
                   STATUS = $RW$                                                    154  LM00184
 00772 CLA +0 50000 0 00223    00773 STO +0 60100 0 00200
                   W'R .NOT.LINK, CHFILE.(N1(I),N2(I),-0,NAME1,NAME2,IOERR)         155  LM00185
 00774 ZET +0 52000 0 00060    00775 TRA +0 02000 0 01017    00776 CLS +0 50200 0 00204    00777 STO +0 60100 0 01023
 01000 CLA +0 50000 0 00057    01001 SUB +0 40200 0 01002    01002 TXH +3 00000 0 00172    01003 STA +0 62100 0 01012
 01004 CLA +0 50000 0 00057    01005 SUB +0 40200 0 01006    01006 TXH +3 00000 0 00167    01007 STA +0 62100 0 01011
 01010 TSX +0 07400 4 00003    01011 TXH +3 00000 0 00000    01012 TXH +3 00000 0 00000    01013 TXH +3 00000 0 01023
 01014 TXH +3 00000 0 00173    01015 TXH +3 00000 0 00174    01016 TXH +3 00000 0 00036
                   T'O ROOM                                                         156  LM00186
 01017 TRA +0 02000 0 00044
                 O'E                                                                157  LM00187
 01020 TRA +0 02000 0 01022
                   T'O IOERR                                                        158  LM00188
 01021 TRA +0 02000 0 00036
                 E'L                                                                159  LM00189
                 E'M                                                                160  LM00190
 01022 TSX +0 07400 4 00007


    M.   BCD 10/12/70 1513.8    5184         00000
1     MAD PROGRAM LISTING ... ... ...                 FILE      M.   MAD            01/26/70    1128.5
-
       SCD            PLOT OUT SCHEDULING QUEUES.                                                      LM00001
                      7/13/66 - NOEL I. MORRIS                                                         LM00002
                                                                                                       LM00003
                  MODIFIED FOR SHORT 'M.' FORM BY R ROACH 10-15-67                                     LM00004
                                                                                                       LM00005
                  NORMAL MODE IS INTEGER                                                          *001 LM00006
                  BOOLEAN PROBOK, LEVOK, MDOT                                                     *002 LM00007
                                                                                                       LM00008
                  VECTOR VALUES QLEN = 0, 0                                                       *003 LM00009
                  EQUIVALENCE (FQLEN, QLEN)                                                       *004 LM00010
                  FLOATING POINT FQLEN                                                            *005 LM00011
                                                                                                       LM00012
                  VECTOR VALUES MINUS1 = -1                                                       *006 LM00013
                  VECTOR VALUES FENCE  = 777777777777K                                            *007 LM00014
                  VECTOR VALUES COMMND = $COMMND$                                                 *008 LM00015
                  VECTOR VALUES AVQLEN = $AVQLEN$                                                 *009 LM00016
                  V'S  PLIST = $PLIST$                                                                 LM00017
                  V'S  ULIST = $ULIST$                                                                 LM00018
                  VECTOR VALUES  PROBN = $PROBN$                                                  *010 LM00019
                  VECTOR VALUES  PROGN = $PROGN$                                                  *011 LM00020
                  VECTOR VALUES  MAXLV = $MAXLV$                                                  *012 LM00021
                  VECTOR VALUES WRKTIM = $WRKTIM$                                                 *013 LM00022
                  VECTOR VALUES TIMLEV = $TIMLEV$                                                 *014 LM00023
                  VECTOR VALUES UCLOCK = $UCLOCK$                                                 *015 LM00024
                  VECTOR VALUES UCHARG = $UCHARG$                                                 *016 LM00025
                  VECTOR VALUES NUSERS = $NUSERS$                                                 *017 LM00026
                  VECTOR VALUES MXUSRS = $MXUSRS$                                                 *018 LM00027
                  VECTOR VALUES TOTTIM = $TOTTIM$                                                 *019 LM00028
                  VECTOR VALUES BKGTIM = $BKGTIM$                                                 *020 LM00029
                  VECTOR VALUES SWPTIM = $SWPTIM$                                                 *021 LM00030
                  VECTOR VALUES STRTIM = $STRTIM$                                                 *022 LM00031
                  VECTOR VALUES     PB = $PB    $                                                 *023 LM00032
                  VECTOR VALUES      N = $N$                                                      *024 LM00033
                  VECTOR VALUES    MDOT = 1B                                                      *025 LM00034
                  DIMENSION D1(1), D2(1), D3(1)                                                   *026 LM00035
                  FLOATING POINT D0, D1, D2, D3                                                   *027 LM00036
                                                                                                       LM00037
                                                                                                       LM00038
                                                                                                       LM00039
                  VECTOR VALUES LEVEL ... LEVEL (50) = -1                                         *028 LM00040
                  VECTOR VALUES   POS ...   POS (50) = -1                                         *029 LM00041
                  VECTOR VALUES SPACE ... SPACE (10) = 606033575757K                              *030 LM00042
                  VECTOR VALUES BLANK = 605757575757K                                             *031 LM00043
                  VECTOR VALUES COMMA = 736057575757K                                             *032 LM00044
                  VECTOR VALUES EQUAL = 601360575757K                                             *033 LM00045
                                                                                                       LM00046
                                                                                                       LM00047
                                                                                                       LM00048
                                                                                                       LM00049
                      BEGINNING OF PROGRAM.                                                            LM00050
                                                                                                       LM00051
                  W'R COMARG.(0) .E. $    M.$                                                          LM00052
                      MDOT = 1B                                                                        LM00053
                  O'E                                                                                  LM00054
                      MDOT = 0B                                                                        LM00055
                  E'L                                                                                  LM00056
                  PRMESS.                                                                         *034 LM00057
                  SLTIM = COMARG. (1)                                                             *035 LM00058
                  WHENEVER SLTIM .E. FENCE                                                        *036 LM00059
                       SLTIM = 0                                                                  *037 LM00060
                  OTHERWISE                                                                       *038 LM00061
                       SLTIM = BCDEC. (SLTIM) * 60                                                *039 LM00062
                  END OF CONDITIONAL                                                              *040 LM00063
                                                                                                       LM00064
                      GET COMMON LOCATION VALUES.                                                      LM00065
                                                                                                       LM00066
                  AVQLEN = COMLOC.(AVQLEN)                                                        *041 LM00067
                  PLIST = COMLOC. (PLIST)                                                              LM00068
                  ULIST = COMLOC. (ULIST)                                                              LM00069
                  PROBN = COMLOC. (PROBN)                                                         *042 LM00070
                  PROGN = COMLOC. (PROGN)                                                         *043 LM00071
                  COMMND = COMLOC. (COMMND)                                                       *044 LM00072
                  MAXLV = COMLOC. (MAXLV)                                                         *045 LM00073
                  WRKTIM = COMLOC. (WRKTIM)                                                       *046 LM00074
                  TIMLEV = COMLOC. (TIMLEV)                                                       *047 LM00075
                  UCLOCK = COMLOC. (UCLOCK)                                                       *048 LM00076
                  UCHARG = COMLOC. (UCHARG)                                                       *049 LM00077
                  NUSERS = COMLOC. (NUSERS)                                                       *050 LM00078
                  MXUSRS = COMLOC. (MXUSRS)                                                       *051 LM00079
                  TOTTIM = COMLOC. (TOTTIM)                                                       *052 LM00080
                  BKGTIM = COMLOC. (BKGTIM)                                                       *053 LM00081
                  SWPTIM = COMLOC. (SWPTIM)                                                       *054 LM00082
                  STRTIM = COMLOC.(STRTIM)                                                        *055 LM00083
                     PB  = COMLOC.(PB)                                                            *056 LM00084
                  N = COMLOC. (N)                                                                 *057 LM00085
                  TIMNOW = GETIME.(0)                                                             *058 LM00086
                                                                                                       LM00087
                                                                                                       LM00088
                      INITIALIZE QUEUES.                                                               LM00089
                                                                                                       LM00090
                  FIRST = 1                                                                       *059 LM00091
      BEGIN       SPRAY. (MINUS1, LEVEL ... LEVEL (N), POS ... POS (N) )                          *060 LM00092
                                                                                                       LM00093
                                                                                                       LM00094
                      PICK UP QUEUE POSITIONS.                                                         LM00095
                                                                                                       LM00096
                  TRANSFER TO SKIP                                                                *061 LM00097
                  ****************                                                                     LM00098
      SCD         THROUGH LEVLOP, FOR QLEV = 0, 1, QLEV .G. MAXLV                                 *062 LM00099
                  STATEMENT LABEL SCD                                                             *063 LM00100
                  NEXQ = QLEV                                                                     *064 LM00101
                  QPOS = 1                                                                        *065 LM00102
                                                                                                       LM00103
      NEXT        NEXQ = GLOC. (PLIST+NEXQ)                                                       *066 LM00104
                  USR = GLOC. (ULIST+NEXQ)                                                        *067 LM00105
                  WHENEVER USR .NE. MINUS1                                                        *068 LM00106
                       LEVEL (USR) = QLEV - 1                                                     *069 LM00107
                       POS (USR) = QPOS                                                           *070 LM00108
                       QPOS = QPOS + 1                                                            *071 LM00109
                       TRANSFER TO NEXT                                                           *072 LM00110
                  END OF CONDITIONAL                                                              *073 LM00111
                                                                                                       LM00112
      LEVLOP      CONTINUE                                                                        *074 LM00113
      SKIP        CONTINUE                                                                        *075 LM00114
                                                                                                       LM00115
                                                                                                       LM00116
                      GET AVERAGE QUEUE LENGTH AND PRINT.                                              LM00117
                                                                                                       LM00118
                  TIME = GTDYTM. (0)                                                              *076 LM00119
                  FTIME. (TIME, DATE, TIME)                                                       *077 LM00120
                  DATE = ((DATE) .A. 7777K8) .V.                                                  *078 LM00121
                1      ((DATE .RS. 6) .A. 7777K2) .V. $00/00 $                                    *078 LM00122
                  QLEN = GLOC. (AVQLEN )                                                          *079 LM00123
                  FQLEN = (FQLEN / 1000.0) + 0.05                                                 *080 LM00124
                  FLOTBC. (QLEN)                                                                  *081 LM00125
                  PRMESS. ($AVG. QUEUE LENGTH AT$, DATE, TIME,                                    *082 LM00126
                1      EQUAL, QLEN ... 2)                                                         *082 LM00127
                                                                                                       LM00128
                                                                                                       LM00129
                      PRINT OUT THE NUMBER OF USERS.                                                   LM00130
                 ..                                                                                    LM00131
                  PRMESS.($USERS=$,CONV.(GLOC.(NUSERS)),$, MAX=$,                                 *083 LM00132
                1  CONV.(GLOC.(MXUSRS)))                                                          *083 LM00133
                  TEMP = GLOC.(TOTTIM)                                                            *084 LM00134
                  D0 = TEMP - T0                                                                  *085 LM00135
                  T0 = TEMP                                                                       *086 LM00136
                  TEMP = GLOC.(BKGTIM)                                                            *087 LM00137
                  D3 = TEMP - T3                                                                  *088 LM00138
                  D3 = 100.*D3/D0 + .05                                                           *089 LM00139
                  T3 = TEMP                                                                       *090 LM00140
                  TEMP = GLOC.(SWPTIM)                                                            *091 LM00141
                  D2 = TEMP - T2                                                                  *092 LM00142
                  D2 = 100.*D2/D0 + .05                                                           *093 LM00143
                  T2 = TEMP                                                                       *094 LM00144
                  D1 = 100.15 - D2 - D3                                                           *095 LM00145
                  FLOTBC. (D1)                                                                    *096 LM00146
                  FLOTBC. (D2)                                                                    *097 LM00147
                  FLOTBC. (D3)                                                                    *098 LM00148
                                                                                                       LM00149
                  WHENEVER FIRST .E. 0                                                            *099 LM00150
                  PRMESS. ($GOOD =$, D1 ... 2, COMMA,                                             *100 LM00151
                2          $SWAP =$, D2 ... 2, COMMA,                                             *100 LM00152
                3          $OTHER=$, D3 ... 2)                                                    *100 LM00153
                  END OF CONDITIONAL                                                              *101 LM00154
                                                                                                       LM00155
                                                                                                       LM00156
                  THROUGH LOOP, FOR I = 0, 1, I .G. N                                             *102 LM00157
                  PERCNT = GLOC. (PB + I)                                                         *103 LM00158
                  WHENEVER PERCNT .E. 0, TRANSFER TO LOOP                                         *104 LM00159
                                                                                                       LM00160
                  WHENEVER I .E. 0                                                                *105 LM00161
                       PROB = $ BACKG$                                                            *106 LM00162
                       PROG = $ROUND $                                                            *107 LM00163
                  OTHERWISE                                                                       *108 LM00164
                       PROB = GLOC. (PROBN + I)                                                   *109 LM00165
                       PROG = GLOC. (PROGN + I)                                                   *110 LM00166
                  END OF CONDITIONAL                                                              *111 LM00167
                                                                                                       LM00168
                  STRT = GLOC. (STRTIM + I)                                                       *112 LM00169
                  WRK = GLOC. (WRKTIM + I)                                                        *113 LM00170
                                                                                                       LM00171
                  REALP = (100 * WRK) / (TIMNOW - STRT)                                           *114 LM00172
                                                                                                       LM00173
                  PRMESS.(PROB,PROG,BLANK,BZEL.(HRMIN.(STRT)),BZEL.(HRMIN.(WRK)                   *115 LM00174
                1  ), BZEL.(DERBC. (REALP)), BZEL.(DERBC. (PERCNT)))                              *115 LM00175
                                                                                                       LM00176
      LOOP        CONTINUE                                                                        *116 LM00177
                  WHENEVER MDOT, TRANSFER TO SNORE                                                *117 LM00178
                  PRMESS.                                                                         *118 LM00179
                  PRMESS.                                                                         *119 LM00180
                                                                                                       LM00181
                                                                                                       LM00182
                      PRINT OUT QUEUE POSITION CHART.                                                  LM00183
                                                                                                       LM00184
                  PRMESS. ( $     USER    COMMND WRKTIM TIMLEV UCLOCK U$,                         *120 LM00185
                1      $SWAP   1  2  3  4  5  6  7  8  9$ )                                       *120 LM00186
                  PRMESS.                                                                         *121 LM00187
                                                                                                       LM00188
                  THROUGH PRLOOP, FOR USR = 0, 1, USR .G. N                                       *122 LM00189
                                                                                                       LM00190
                  WHENEVER USR .E. 0                                                              *123 LM00191
                       PROB = $ BACKG$                                                            *124 LM00192
                       PROG = $ROUND $                                                            *125 LM00193
                  OTHERWISE                                                                       *126 LM00194
                       PROB = GLOC. (PROBN+USR)                                                   *127 LM00195
                       PROG = GLOC. (PROGN+USR)                                                   *128 LM00196
                  END OF CONDITIONAL                                                              *129 LM00197
                  COM = GLOC. (COMMND+USR)                                                        *130 LM00198
                  WHENEVER COM .E. 0, COM = $ $                                                   *131 LM00199
                  LEVOK = LEVEL (USR) .NE. MINUS1                                                 *132 LM00200
                  PROBOK = PROB .NE. 0                                                            *133 LM00201
                                                                                                       LM00202
                  WHENEVER LEVOK                                                                  *134 LM00203
                       WHENEVER .NOT. PROBOK                                                      *135 LM00204
                            PROB = $ $                                                            *136 LM00205
                            PROG = $ $                                                            *137 LM00206
                       END OF CONDITIONAL                                                         *138 LM00207
                       WT = GLOC. (WRKTIM+USR) * 60                                               *139 LM00208
                       TL = GLOC. (TIMLEV+USR) * 60                                               *140 LM00209
                       TM = GLOC. (UCLOCK+USR) * 60                                               *141 LM00210
                       TN = TM - GLOC. (UCHARG+USR) * 60                                          *142 LM00211
                       PRMESS. (PROB, PROG, BLANK, COM, BLANK,                                    *143 LM00212
                1           CTIME. (WT), BLANK, CTIME. (TL), BLANK,                               *143 LM00213
                2                   CTIME. (TM), BLANK, CTIME. (TN),                              *143 LM00214
                3           SPACE ... LEVEL (USR), CONV. (POS (USR) ) )                           *143 LM00215
                  END OF CONDITIONAL                                                              *144 LM00216
                                                                                                       LM00217
      PRLOOP      CONTINUE                                                                        *145 LM00218
                                                                                                       LM00219
                                                                                                       LM00220
                      EXIT TO CHNCOM.                                                                  LM00221
                                                                                                       LM00222
                  PRMESS.                                                                         *146 LM00223
      SNORE       PRMESS.                                                                         *147 LM00224
                  WHENEVER SLTIM .NE. 0                                                           *148 LM00225
                       SNOOZE.(SLTIM,0)                                                           *149 LM00226
                  OTHERWISE                                                                       *150 LM00227
                       CHNCOM. (1)                                                                *151 LM00228
                  END OF CONDITIONAL                                                              *152 LM00229
                  PRMESS.                                                                         *153 LM00230
                            FIRST = 0                                                             *154 LM00231
                  TRANSFER TO BEGIN                                                               *155 LM00232
                                                                                                       LM00233
                                                                                                       LM00234
                                                                                                       LM00235
                      CONVERT TO BCD.                                                                  LM00236
                                                                                                       LM00237
                  INTERNAL FUNCTION (NUM)                                                         *156 LM00238
                  ENTRY TO CONV.                                                                  *157 LM00239
                  FUNCTION RETURN (BZEL. (DEFBC. (NUM) ) .A. 777777K) .V. 575757K6                *158 LM00240
                  END OF FUNCTION                                                                 *159 LM00241
                                                                                                       LM00242
                                                                                                       LM00243
                      CONVERT TIME TO BCD.                                                             LM00244
                                                                                                       LM00245
                  INTERNAL FUNCTION (NUM)                                                         *160 LM00246
                  ENTRY TO CTIME.                                                                 *161 LM00247
                  FUNCTION RETURN BZEL. (MINS. (NUM) )                                            *162 LM00248
                  END OF FUNCTION                                                                 *163 LM00249
                                                                                                       LM00250
                                                                                                       LM00251
                 ..   FLOATING POINT TO BCD.                                                           LM00252
                 ..                                                                                    LM00253
                  INTERNAL FUNCTION (NUM)                                                         *164 LM00254
                  ENTRY TO FLOTBC.                                                                *165 LM00255
                  FIX. (NUM, NUM, NUM (1))                                                        *166 LM00256
                  NUM = CONV. (NUM)                                                               *167 LM00257
                  NUM (1) = (FRACBC.(NUM(1)).RS.6) .A. 77K8 .V. 330057575757K                     *168 LM00258


MFDCHK   BCD 10/12/70 1513.8    9927         00000
1     MAD PROGRAM LISTING ... ... ...                 FILE  MFDCHK   MAD            03/15/69    1949.5
-
      MFDCHK      ADAPTED FROM DRMCHK (BY D. ANDERSON) BY R. ROACH                                     LM00001
                  NORMAL MODE IS INTEGER                                                          *001 LM00002
                  VECTOR VALUES R=$R$                                                             *002 LM00003
                  VECTOR VALUES MFD=$M.F.D.$                                                      *003 LM00004
                  VECTOR VALUES FI=$(FILE)$                                                       *004 LM00005
                  VECTOR VALUES SP=605757575757K                                                  *005 LM00006
                  VECTOR VALUES SLASH=615757575757K                                               *006 LM00007
                  DIMENSION ME(1),MFDENT(6),UFDENT(6),B1(0),B2(0)                                 *007 LM00008
                  EQUIVALENCE (UFD1,MFDENT(6)),(UFD2,MFDENT(5)),(FILE1,UFDENT(6))                 *008 LM00009
                  EQUIVALENCE (FILE2,UFDENT(5)),(TYPE,UFDENT(2)),(NORECS,UFDENT(1))               *009 LM00010
                                                                                                       LM00011
                  PRMESS.                                                                         *010 LM00012
                  ATTNAM.(ME(1)...2)                                                              *011 LM00013
                                                                                                       LM00014
                  SETBRK.(HOME)                                                                   *012 LM00015
                  GETBUF.(B1,432)                                                                 *013 LM00016
                  GETBUF.(B2,432)                                                                 *014 LM00017
                  ATTACH.(MFD,FI,ATTERR)                                                          *015 LM00018
                  MTRKO=0                                                                         *016 LM00019
                  MFDTOT=3                                                                        *017 LM00020
                  MFDBAD=0                                                                        *018 LM00021
                  MFDDRM=0                                                                        *019 LM00022
                  BFOPEN.(R,MFD,FI,B1(B1+432),-0,-0,MFDERR)                                       *020 LM00023
                  NEWFIL.(MFD,FI,OOPS)                                                            *021 LM00024
                  SETRKS.                                                                         *022 LM00025
                  BFREAD.(MFD,FI,MFDENT(6)...3,MEOF,TEMP,MFDERR)                                  *023 LM00026
                  DRUM=TRKS.(0)                                                                   *024 LM00027
                  WHENEVER DRUM.A.7777777777K.NE.0                                                *025 LM00028
                       PRMESS.($PANIC$)                                                           *026 LM00029
                       TRANSFER TO CLSMFD                                                         *027 LM00030
                  END OF CONDITIONAL                                                              *028 LM00031
                  LDRUM=DRUM.RS.6                                                                 *029 LM00032
                                                                                                       LM00033
      MFDLOP      BFREAD.(MFD,FI,MFDENT(6)...7,MEOF,TEMP,MFDERR)                                  *030 LM00034
                  MFDTRK=TRKS.(0)                                                                 *031 LM00035
                  WHENEVER MFDTRK.NE.MTRKO                                                        *032 LM00036
                       MTRKO=MFDTRK                                                               *033 LM00037
                       WHENEVER MFDTRK.GE.DRUM,MFDDRM=MFDDRM+1                                    *034 LM00038
                  END OF CONDITIONAL                                                              *035 LM00039
                  MFDTOT=MFDTOT+7                                                                 *036 LM00040
                  WHENEVER UFD1.V.UFD2.E.0                                                        *037 LM00041
                       MFDBAD=MFDBAD+7                                                            *038 LM00042
                       TRANSFER TO MFDLOP                                                         *039 LM00043
                  END OF CONDITIONAL                                                              *040 LM00044
                  WHENEVER UFD2.E.FI, TRANSFER TO MFDLOP                                          *041 LM00045
                                                                                                       LM00046
                  UTRKO=0                                                                         *042 LM00047
                  UFDTOT=3                                                                        *043 LM00048
                  UFDBAD=0                                                                        *044 LM00049
                  UFDDRM=0                                                                        *045 LM00050
                  BFOPEN.(R,UFD1,UFD2,B2(B2+432),-0,-0,UFDERR)                                    *046 LM00051
                  NEWFIL.(UFD1,UFD2,OOPSU)                                                        *047 LM00052
                  BFREAD.(UFD1,UFD2,UFDENT(6)...3,UEOF,TEMP,UFDERR)                               *048 LM00053
                                                                                                       LM00054
      UFDLOP      BFREAD.(UFD1,UFD2,UFDENT(6)...7,UEOF,TEMP,UFDERR)                               *049 LM00055
                  UFDTRK=TRACKS.(0)                                                               *050 LM00056
                  WHENEVER UFDTRK.NE.UTRKO                                                        *051 LM00057
                       UTRKO=UFDTRK                                                               *052 LM00058
                       WHENEVER UFDTRK.GE.DRUM, UFDDRM=UFDDRM+1                                   *053 LM00059
                  END OF CONDITIONAL                                                              *054 LM00060
                  UFDTOT=UFDTOT+7                                                                 *055 LM00061
                  WHENEVER FILE1.V.FILE2.E.0                                                      *056 LM00062
                       UFDBAD=UFDBAD+7                                                            *057 LM00063
                       TRANSFER TO UFDLOP                                                         *058 LM00064
                  END OF CONDITIONAL                                                              *059 LM00065
                  WHENEVER TYPE.A.7K5.NE.1K5, TRANSFER TO UFDLOP                                  *060 LM00066
                                                                                                       LM00067
                  WHENEVER DERBC.(UFDENT).A.77K8.GE.LDRUM                                         *061 LM00068
                       WHENEVER DELBC.(UFDENT).A.77K8.GE.LDRUM                                    *062 LM00069
                            TEMP=215757575757K                                                    *063 LM00070
                       OTHERWISE                                                                  *064 LM00071
                            TEMP=475757575757K                                                    *065 LM00072
                       END OF CONDITIONAL                                                         *066 LM00073
                  OTHERWISE                                                                       *067 LM00074
                       TEMP=455757575757K                                                         *068 LM00075
                  END OF CONDITIONAL                                                              *069 LM00076
                  PRMESS.(UFD1,SP,UFD2,SP,FILE1,SP,FILE2,SP,                                      *070 LM00077
                1      NZEL.(DELBC.(NORECS.A.77777K6)),TEMP)                                      *070 LM00078
                  TRANSFER TO UFDLOP                                                              *071 LM00079
                                                                                                       LM00080
      UEOF        BFCLOS.(UFD1,UFD2,UFDERR)                                                       *072 LM00081
                  TEMP=UFDDRM-((UFDTOT-UFDBAD-1)/432+1)                                           *073 LM00082
                  LEN=(UFDTOT-1)/432+1                                                            *074 LM00083
                  PT.(UFD1,UFD2,UFDDRM)                                                           *075 LM00084
                  TRANSFER TO MFDLOP                                                              *076 LM00085
                                                                                                       LM00086
      MEOF        BFCLOS.(MFD,FI,MFDERR)                                                          *077 LM00087
                  TEMP=MFDDRM-((MFDTOT-MFDBAD-1)/432+1)                                           *078 LM00088
                  LEN=(MFDTOT-1)/432+1                                                            *079 LM00089
                  PT.(MFD,FI,MFDDRM)                                                              *080 LM00090
                  ATTACH.(ME(1),ME,ATTERR)                                                        *081 LM00091
                  TRANSFER TO OUT                                                                 *082 LM00092
                                                                                                       LM00093
      ATTERR      PRNTER.(375K)                                                                   *083 LM00094
      HOME        ATTACH.(ME(1),ME,OUT)                                                           *084 LM00095
      OUT         PRMESS.($*$)                                                                    *085 LM00096
                  CHNCOM.(0)                                                                      *086 LM00097
                                                                                                       LM00098
      MFDERR      PRNTER.(375K)                                                                   *087 LM00099
      CLSMFD      BFCLOS.(MFD,FI,HOME)                                                            *088 LM00100
                  TRANSFER TO HOME                                                                *089 LM00101
                                                                                                       LM00102
      OOPS        PRMESS.(MFD,SP,FI,$ NOT FOUND IN AFST.$)                                        *090 LM00103
                  TRANSFER TO CLSMFD                                                              *091 LM00104
      UFDERR      PRNTER.(375K)                                                                   *092 LM00105
      CLSUFD      BFCLOS.(UFD1,UFD2,MFDLOP)                                                       *093 LM00106
                  TRANSFER TO MFDLOP                                                              *094 LM00107
                                                                                                       LM00108
      OOPSU       PRMESS.(UFD1,SP,UFD2,$ NOT FOUND IN AFST.$)                                     *095 LM00109
                  TRANSFER TO CLSUFD                                                              *096 LM00110
                                                                                                       LM00111
                  INTERNAL FUNCTION (A,B,C)                                                       *097 LM00112
                  ENTRY TO PT.                                                                    *098 LM00113
                                                                                                       LM00114
                  WHENEVER TEMP.G.0.OR.(A.E.MFD.OR.A.E.$ M1416$).AND.TEMP.L.0                     *099 LM00115
                1  .OR. UFDBAD.G.432                                                              *099 LM00116
                       WHENEVER TEMP.G.0                                                          *100 LM00117
                            TEMP=NZEL.(DEFBC.(TEMP))                                              *101 LM00118
                       OTHERWISE                                                                  *102 LM00119
                            TEMP=NZEL.(DEFBC.(TEMP)).A.407777777777K                              *103 LM00120
                       END OF CONDITIONAL                                                         *104 LM00121
                       PRMESS.(A,SP,B,SP,TEMP,SLASH,NZEL.(DEFBC.(C)),                             *105 LM00122
                1           SLASH,NZEL.(DEFBC.(LEN)))                                             *105 LM00123
                  END OF CONDITIONAL                                                              *106 LM00124
                  FUNCTION RETURN                                                                 *107 LM00125
                  END OF FUNCTION                                                                 *108 LM00126
                                                                                                       LM00127
                  INTERNAL FUNCTION (A)                                                           *109 LM00128
                  ENTRY TO NZEL.                                                                  *110 LM00129
                  NZTEMP=BZ57.(A)                                                                 *111 LM00130
                  WHENEVER NZTEMP.E.575757575757K, NZTEMP=005757575757K                           *112 LM00131
                  FUNCTION RETURN NZTEMP                                                          *113 LM00132
                  END OF FUNCTION                                                                 *114 LM00133
                                                                                                       LM00134
                  END OF PROGRAM                                                                  *115 LM00135
1MAD PROGRAM,TYPE NOV 1963      (ALL NUMBERS ARE OCTAL)
0TOTAL LOCATIONS   01046 TRANSFER VECTOR LENGTH  00024 PROGRAM BEGINS    00145
0VARIABLE STORAGE (A=ARRAY,C=COMMON,E=ERASABLE,DIGIT=MODE)
      ATTERR 00045   4        HOME   00050   4        MFDLOP 00053   4        OUT    00056   4        UFDBAD 00105   1
      B1     00062 A 1        LDRUM  00066   1        MFD    00074 A 1        R      00101 A 1        UFDDRM 00106   1
      B2     00063 A 1        LEN    00067   1        MFDTOT 00075   1        SLASH  00102 A 1        UFDENT 00044 A 1
      CLSMFD 00046   4        MEOF   00051   4        MFDTRK 00076   1        SP     00103 A 1        UFDERR 00060   4
      CLSUFD 00047   4        ME     00071 A 1        MTRKO  00077   1        TEMP   00104   1        UFDLOP 00061   4
      DRUM   00064   1        MFDBAD 00072   1        NORECS 00043   1        TYPE   00042   1        UFDTOT 00107   1
      FILE1  00036   1        MFDDRM 00073   1        NZTEMP 00100   1        UEOF   00057   4        UFDTRK 00110   1
      FILE2  00037   1        MFDENT 00035 A 1        OOPS   00054   4        UFD1   00027   1        UTRKO  00111   1
      FI     00065 A 1        MFDERR 00052   4        OOPSU  00055   4        UFD2   00030   1
0FUNCTION DICTIONARY
      ATTACH 00000   1        ATTNAM 00001   1        BFCLOS 00002   1        BFOPEN 00003   1        BFREAD 00004   1
      BZ57   00005   1        CHNCOM 00006   1        DEFBC  00007   1        DELBC  00010   1        DERBC  00011   1
      EXIT   00012   1        GETBUF 00013   1        .SETUP 00014   1        NEWFIL 00015   1        PRMESS 00016   1
      PRNTER 00017   1        SETBRK 00020   1        SETRKS 00021   1        TRACKS 00022   1        TRKS   00023   1
      NZEL   00024   1        PT     00025   1
0ABSOLUTE CONSTANTS
 00124 +005757575757     00142 -175757575757     00133 -007777777777     00143 -204401040106     00132 +336060606060
 00135 -056021266263     00136 -066445246031     00144 -204546636026     00141 -146060606060     00120 +000000000375
 00127 +077777000000     00134 -055757575757     00140 -075757575757     00130 +215757575757     00125 +007700000000
 00122 +000000100000     00123 +000000700000     00117 +000000000007     00116 +000000000006     00137 -072145312360
 00126 +007777777777     00115 +000000000003     00112 +000000000000     00121 +000000000660     00114 +000000000002
 00113 +000000000001     00131 +233000000000
0STATEMENT DICTIONARY
 00045 TXL -300613000611       00046 TXL -300631000625       00047 TXL -300651000645       00050 TXL -300617000613
 00051 TXL -300557000553       00052 TXL -300625000623       00053 TXL -300262000253       00054 TXL -300642000632
 00055 TXL -300662000652       00056 TXL -300621000617       00057 TXL -300525000521       00060 TXL -300645000643
 00061 TXL -300375000366
0PROGRAM
                 N'R                                                                001  LM00002
                 V'S R=$R$                                                          002  LM00003
 00145 TSX +0 07400 4 00014    00101     -1 16060 6 06060
                 V'S MFD=$M.F.D.$                                                   003  LM00004
 00074     -0 43326 3 32433
                 V'S FI=$(FILE)$                                                    004  LM00005
 00065     -3 42631 4 32534
                 V'S SP=605757575757K                                               005  LM00006
 00103     -2 05757 5 75757
                 V'S SLASH=615757575757K                                            006  LM00007
 00102     -2 15757 5 75757
                 D'N ME(1),MFDENT(6),UFDENT(6),B1(0),B2(0)                          007  LM00008
                 E'E (UFD1,MFDENT(6)),(UFD2,MFDENT(5)),(FILE1,UFDENT(6))            008  LM00009
                 E'E (FILE2,UFDENT(5)),(TYPE,UFDENT(2)),(NORECS,UFDENT(1))          009  LM00010
                 PRMESS.                                                            010  LM00012
 00146 TSX +0 07400 4 00016
                 ATTNAM.(ME(1)...2)                                                 011  LM00013
 00147 TSX +0 07400 4 00001    00150 TIX +2 00114 0 00070
                 SETBRK.(HOME)                                                      012  LM00015
 00151 TSX +0 07400 4 00020    00152 TXH +3 00000 0 00050
                 GETBUF.(B1,432)                                                    013  LM00016
 00153 TSX +0 07400 4 00013    00154 TXH +3 00000 0 00062    00155 TXH +3 00000 0 00121
                 GETBUF.(B2,432)                                                    014  LM00017
 00156 TSX +0 07400 4 00013    00157 TXH +3 00000 0 00063    00160 TXH +3 00000 0 00121
                 ATTACH.(MFD,FI,ATTERR)                                             015  LM00018
 00161 TSX +0 07400 4 00000    00162 TXH +3 00000 0 00074    00163 TXH +3 00000 0 00065    00164 TXH +3 00000 0 00045
                 MTRKO=0                                                            016  LM00019
 00165 CLA +0 50000 0 00112    00166 STO +0 60100 0 00077
                 MFDTOT=3                                                           017  LM00020
 00167 CLA +0 50000 0 00115    00170 STO +0 60100 0 00075
                 MFDBAD=0                                                           018  LM00021
 00171 CLA +0 50000 0 00112    00172 STO +0 60100 0 00072
                 MFDDRM=0                                                           019  LM00022
 00173 CLA +0 50000 0 00112    00174 STO +0 60100 0 00073
                 BFOPEN.(R,MFD,FI,B1(B1+432),-0,-0,MFDERR)                          020  LM00023
 00175 CLS +0 50200 0 00112    00176 STO +0 60100 0 01042    00177 CLS +0 50200 0 00112    00200 STO +0 60100 0 01043
 00201 CLA +0 50000 0 00062    00202 ADD +0 40000 0 00121    00203 SUB +0 40200 0 00204    00204 TXH +3 00000 0 00062
 00205 STA +0 62100 0 00212    00206 TSX +0 07400 4 00003    00207 TXH +3 00000 0 00101    00210 TXH +3 00000 0 00074
 00211 TXH +3 00000 0 00065    00212 TXH +3 00000 0 00000    00213 TXH +3 00000 0 01043    00214 TXH +3 00000 0 01042
 00215 TXH +3 00000 0 00052
                 NEWFIL.(MFD,FI,OOPS)                                               021  LM00024
 00216 TSX +0 07400 4 00015    00217 TXH +3 00000 0 00074    00220 TXH +3 00000 0 00065    00221 TXH +3 00000 0 00054
                 SETRKS.                                                            022  LM00025
 00222 TSX +0 07400 4 00021
                 BFREAD.(MFD,FI,MFDENT(6)...3,MEOF,TEMP,MFDERR)                     023  LM00026
 00223 TSX +0 07400 4 00004    00224 TXH +3 00000 0 00074    00225 TXH +3 00000 0 00065    00226 TIX +2 00115 0 00027
 00227 TXH +3 00000 0 00051    00230 TXH +3 00000 0 00104    00231 TXH +3 00000 0 00052
                 DRUM=TRKS.(0)                                                      024  LM00027
 00232 TSX +0 07400 4 00023    00233 TXH +3 00000 0 00112    00234 STO +0 60100 0 00064
                 W'R DRUM.A.7777777777K.NE.0                                        025  LM00028
 00235 CAL -0 50000 0 00064    00236 ANA -0 32000 0 00126    00237 SLW +0 60200 0 01043    00240 CLA +0 50000 0 01043
 00241 SUB +0 40200 0 00112    00242 TZE +0 10000 0 00246
                      PRMESS.($PANIC$)                                              026  LM00029
 00243 TSX +0 07400 4 00016    00244 TXH +3 00000 0 00137
                      T'O CLSMFD                                                    027  LM00030
 00245 TRA +0 02000 0 00046
                 E'L                                                                028  LM00031
                 LDRUM=DRUM.RS.6                                                    029  LM00032
 00246 CAL -0 50000 0 00116    00247 STA +0 62100 0 00251    00250 CAL -0 50000 0 00064    00251 LGR -0 76500 0 00000
 00252 SLW +0 60200 0 00066
      MFDLOP     BFREAD.(MFD,FI,MFDENT(6)...7,MEOF,TEMP,MFDERR)                     030  LM00034
 00253 TSX +0 07400 4 00004    00254 TXH +3 00000 0 00074    00255 TXH +3 00000 0 00065    00256 TIX +2 00117 0 00027
 00257 TXH +3 00000 0 00051    00260 TXH +3 00000 0 00104    00261 TXH +3 00000 0 00052
                 MFDTRK=TRKS.(0)                                                    031  LM00035
 00262 TSX +0 07400 4 00023    00263 TXH +3 00000 0 00112    00264 STO +0 60100 0 00076
                 W'R MFDTRK.NE.MTRKO                                                032  LM00036
 00265 CLA +0 50000 0 00076    00266 SUB +0 40200 0 00077    00267 TZE +0 10000 0 00301
                      MTRKO=MFDTRK                                                  033  LM00037
 00270 CLA +0 50000 0 00076    00271 STO +0 60100 0 00077
                      W'R MFDTRK.GE.DRUM,MFDDRM=MFDDRM+1                            034  LM00038
 00272 CLA +0 50000 0 00076    00273 SUB +0 40200 0 00064    00274 TZE +0 10000 0 00276    00275 TMI -0 12000 0 00301
 00276 CLA +0 50000 0 00073    00277 ADD +0 40000 0 00113    00300 STO +0 60100 0 00073
                 E'L                                                                035  LM00039
                 MFDTOT=MFDTOT+7                                                    036  LM00040
 00301 CLA +0 50000 0 00075    00302 ADD +0 40000 0 00117    00303 STO +0 60100 0 00075
                 W'R UFD1.V.UFD2.E.0                                                037  LM00041
 00304 CAL -0 50000 0 00027    00305 ORA -0 50100 0 00030    00306 SLW +0 60200 0 01043    00307 CLA +0 50000 0 01043
 00310 SUB +0 40200 0 00112    00311 TNZ -0 10000 0 00316
                      MFDBAD=MFDBAD+7                                               038  LM00042
 00312 CLA +0 50000 0 00072    00313 ADD +0 40000 0 00117    00314 STO +0 60100 0 00072
                      T'O MFDLOP                                                    039  LM00043
 00315 TRA +0 02000 0 00053
                 E'L                                                                040  LM00044
                 W'R UFD2.E.FI, T'O MFDLOP                                          041  LM00045
 00316 CLA +0 50000 0 00030    00317 SUB +0 40200 0 00065    00320 TNZ -0 10000 0 00322    00321 TRA +0 02000 0 00053
                 UTRKO=0                                                            042  LM00047
 00322 CLA +0 50000 0 00112    00323 STO +0 60100 0 00111
                 UFDTOT=3                                                           043  LM00048
 00324 CLA +0 50000 0 00115    00325 STO +0 60100 0 00107
                 UFDBAD=0                                                           044  LM00049
 00326 CLA +0 50000 0 00112    00327 STO +0 60100 0 00105
                 UFDDRM=0                                                           045  LM00050
 00330 CLA +0 50000 0 00112    00331 STO +0 60100 0 00106
                 BFOPEN.(R,UFD1,UFD2,B2(B2+432),-0,-0,UFDERR)                       046  LM00051
 00332 CLS +0 50200 0 00112    00333 STO +0 60100 0 01043    00334 CLS +0 50200 0 00112    00335 STO +0 60100 0 01042
 00336 CLA +0 50000 0 00063    00337 ADD +0 40000 0 00121    00340 SUB +0 40200 0 00341    00341 TXH +3 00000 0 00063
 00342 STA +0 62100 0 00347    00343 TSX +0 07400 4 00003    00344 TXH +3 00000 0 00101    00345 TXH +3 00000 0 00027
 00346 TXH +3 00000 0 00030    00347 TXH +3 00000 0 00000    00350 TXH +3 00000 0 01042    00351 TXH +3 00000 0 01043
 00352 TXH +3 00000 0 00060
                 NEWFIL.(UFD1,UFD2,OOPSU)                                           047  LM00052
 00353 TSX +0 07400 4 00015    00354 TXH +3 00000 0 00027    00355 TXH +3 00000 0 00030    00356 TXH +3 00000 0 00055
                 BFREAD.(UFD1,UFD2,UFDENT(6)...3,UEOF,TEMP,UFDERR)                  048  LM00053
 00357 TSX +0 07400 4 00004    00360 TXH +3 00000 0 00027    00361 TXH +3 00000 0 00030    00362 TIX +2 00115 0 00036
 00363 TXH +3 00000 0 00057    00364 TXH +3 00000 0 00104    00365 TXH +3 00000 0 00060
      UFDLOP     BFREAD.(UFD1,UFD2,UFDENT(6)...7,UEOF,TEMP,UFDERR)                  049  LM00055
 00366 TSX +0 07400 4 00004    00367 TXH +3 00000 0 00027    00370 TXH +3 00000 0 00030    00371 TIX +2 00117 0 00036
 00372 TXH +3 00000 0 00057    00373 TXH +3 00000 0 00104    00374 TXH +3 00000 0 00060
                 UFDTRK=TRACKS.(0)                                                  050  LM00056
 00375 TSX +0 07400 4 00022    00376 TXH +3 00000 0 00112    00377 STO +0 60100 0 00110
                 W'R UFDTRK.NE.UTRKO                                                051  LM00057
 00400 CLA +0 50000 0 00110    00401 SUB +0 40200 0 00111    00402 TZE +0 10000 0 00414
                      UTRKO=UFDTRK                                                  052  LM00058
 00403 CLA +0 50000 0 00110    00404 STO +0 60100 0 00111
                      W'R UFDTRK.GE.DRUM, UFDDRM=UFDDRM+1                           053  LM00059
 00405 CLA +0 50000 0 00110    00406 SUB +0 40200 0 00064    00407 TZE +0 10000 0 00411    00410 TMI -0 12000 0 00414
 00411 CLA +0 50000 0 00106    00412 ADD +0 40000 0 00113    00413 STO +0 60100 0 00106
                 E'L                                                                054  LM00060
                 UFDTOT=UFDTOT+7                                                    055  LM00061
 00414 CLA +0 50000 0 00107    00415 ADD +0 40000 0 00117    00416 STO +0 60100 0 00107
                 W'R FILE1.V.FILE2.E.0                                              056  LM00062
 00417 CAL -0 50000 0 00036    00420 ORA -0 50100 0 00037    00421 SLW +0 60200 0 01043    00422 CLA +0 50000 0 01043
 00423 SUB +0 40200 0 00112    00424 TNZ -0 10000 0 00431
                      UFDBAD=UFDBAD+7                                               057  LM00063
 00425 CLA +0 50000 0 00105    00426 ADD +0 40000 0 00117    00427 STO +0 60100 0 00105
                      T'O UFDLOP                                                    058  LM00064
 00430 TRA +0 02000 0 00061
                 E'L                                                                059  LM00065
                 W'R TYPE.A.7K5.NE.1K5, T'O UFDLOP                                  060  LM00066
 00431 CAL -0 50000 0 00042    00432 ANA -0 32000 0 00123    00433 SLW +0 60200 0 01043    00434 CLA +0 50000 0 01043
 00435 SUB +0 40200 0 00122    00436 TZE +0 10000 0 00440    00437 TRA +0 02000 0 00061
                 W'R DERBC.(UFDENT).A.77K8.GE.LDRUM                                 061  LM00068
 00440 TSX +0 07400 4 00011    00441 TXH +3 00000 0 00044    00442 STO +0 60100 0 01043    00443 CAL -0 50000 0 01043
 00444 ANA -0 32000 0 00125    00445 SLW +0 60200 0 01043    00446 CLA +0 50000 0 01043    00447 SUB +0 40200 0 00066
 00450 TZE +0 10000 0 00452    00451 TMI -0 12000 0 00472
                      W'R DELBC.(UFDENT).A.77K8.GE.LDRUM                            062  LM00069
 00452 TSX +0 07400 4 00010    00453 TXH +3 00000 0 00044    00454 STO +0 60100 0 01043    00455 CAL -0 50000 0 01043
 00456 ANA -0 32000 0 00125    00457 SLW +0 60200 0 01043    00460 CLA +0 50000 0 01043    00461 SUB +0 40200 0 00066
 00462 TZE +0 10000 0 00464    00463 TMI -0 12000 0 00467
                           TEMP=215757575757K                                       063  LM00070
 00464 CLA +0 50000 0 00130    00465 STO +0 60100 0 00104
                      O'E                                                           064  LM00071
 00466 TRA +0 02000 0 00471
                           TEMP=475757575757K                                       065  LM00072
 00467 CLA +0 50000 0 00140    00470 STO +0 60100 0 00104
                      E'L                                                           066  LM00073
                 O'E                                                                067  LM00074
 00471 TRA +0 02000 0 00474
                      TEMP=455757575757K                                            068  LM00075
 00472 CLA +0 50000 0 00134    00473 STO +0 60100 0 00104
                 E'L                                                                069  LM00076
                 PRMESS.(UFD1,SP,UFD2,SP,FILE1,SP,FILE2,SP,                         070  LM00077
                1     NZEL.(DELBC.(NORECS.A.77777K6)),TEMP)                         070  LM00078
 00474 CAL -0 50000 0 00043    00475 ANA -0 32000 0 00127    00476 SLW +0 60200 0 01043    00477 TSX +0 07400 4 00010
 00500 TXH +3 00000 0 01043    00501 STO +0 60100 0 01043    00502 TSX +0 07400 4 00024    00503 TXH +3 00000 0 01043
 00504 STO +0 60100 0 01043    00505 TSX +0 07400 4 00016    00506 TXH +3 00000 0 00027    00507 TXH +3 00000 0 00103
 00510 TXH +3 00000 0 00030    00511 TXH +3 00000 0 00103    00512 TXH +3 00000 0 00036    00513 TXH +3 00000 0 00103
 00514 TXH +3 00000 0 00037    00515 TXH +3 00000 0 00103    00516 TXH +3 00000 0 01043    00517 TXH +3 00000 0 00104
                 T'O UFDLOP                                                         071  LM00079
 00520 TRA +0 02000 0 00061
      UEOF       BFCLOS.(UFD1,UFD2,UFDERR)                                          072  LM00081
 00521 TSX +0 07400 4 00002    00522 TXH +3 00000 0 00027    00523 TXH +3 00000 0 00030    00524 TXH +3 00000 0 00060
                 TEMP=UFDDRM-((UFDTOT-UFDBAD-1)/432+1)                              073  LM00082
 00525 CLA +0 50000 0 00107    00526 SUB +0 40200 0 00105    00527 SUB +0 40200 0 00113    00530 LRS +0 76500 0 00043
 00531 DVP +0 22100 0 00121    00532 XCA +0 13100 0 00000    00533 ADD +0 40000 0 00113    00534 CHS +0 76000 0 00002
 00535 ADD +0 40000 0 00106    00536 STO +0 60100 0 00104
                 LEN=(UFDTOT-1)/432+1                                               074  LM00083
 00537 CLA +0 50000 0 00107    00540 SUB +0 40200 0 00113    00541 LRS +0 76500 0 00043    00542 DVP +0 22100 0 00121
 00543 XCA +0 13100 0 00000    00544 ADD +0 40000 0 00113    00545 STO +0 60100 0 00067
                 PT.(UFD1,UFD2,UFDDRM)                                              075  LM00084
 00546 TSX +0 07400 4 00025    00547 TXH +3 00000 0 00027    00550 TXH +3 00000 0 00030    00551 TXH +3 00000 0 00106
                 T'O MFDLOP                                                         076  LM00085
 00552 TRA +0 02000 0 00053
      MEOF       BFCLOS.(MFD,FI,MFDERR)                                             077  LM00087
 00553 TSX +0 07400 4 00002    00554 TXH +3 00000 0 00074    00555 TXH +3 00000 0 00065    00556 TXH +3 00000 0 00052
                 TEMP=MFDDRM-((MFDTOT-MFDBAD-1)/432+1)                              078  LM00088
 00557 CLA +0 50000 0 00075    00560 SUB +0 40200 0 00072    00561 SUB +0 40200 0 00113    00562 LRS +0 76500 0 00043
 00563 DVP +0 22100 0 00121    00564 XCA +0 13100 0 00000    00565 ADD +0 40000 0 00113    00566 CHS +0 76000 0 00002
 00567 ADD +0 40000 0 00073    00570 STO +0 60100 0 00104
                 LEN=(MFDTOT-1)/432+1                                               079  LM00089
 00571 CLA +0 50000 0 00075    00572 SUB +0 40200 0 00113    00573 LRS +0 76500 0 00043    00574 DVP +0 22100 0 00121
 00575 XCA +0 13100 0 00000    00576 ADD +0 40000 0 00113    00577 STO +0 60100 0 00067
                 PT.(MFD,FI,MFDDRM)                                                 080  LM00090
 00600 TSX +0 07400 4 00025    00601 TXH +3 00000 0 00074    00602 TXH +3 00000 0 00065    00603 TXH +3 00000 0 00073
                 ATTACH.(ME(1),ME,ATTERR)                                           081  LM00091
 00604 TSX +0 07400 4 00000    00605 TXH +3 00000 0 00070    00606 TXH +3 00000 0 00071    00607 TXH +3 00000 0 00045
                 T'O OUT                                                            082  LM00092
 00610 TRA +0 02000 0 00056
      ATTERR     PRNTER.(375K)                                                      083  LM00094
 00611 TSX +0 07400 4 00017    00612 TXH +3 00000 0 00120
      HOME       ATTACH.(ME(1),ME,OUT)                                              084  LM00095
 00613 TSX +0 07400 4 00000    00614 TXH +3 00000 0 00070    00615 TXH +3 00000 0 00071    00616 TXH +3 00000 0 00056
      OUT        PRMESS.($*$)                                                       085  LM00096
 00617 TSX +0 07400 4 00016    00620 TXH +3 00000 0 00141
                 CHNCOM.(0)                                                         086  LM00097
 00621 TSX +0 07400 4 00006    00622 TXH +3 00000 0 00112
      MFDERR     PRNTER.(375K)                                                      087  LM00099
 00623 TSX +0 07400 4 00017    00624 TXH +3 00000 0 00120
      CLSMFD     BFCLOS.(MFD,FI,HOME)                                               088  LM00100
 00625 TSX +0 07400 4 00002    00626 TXH +3 00000 0 00074    00627 TXH +3 00000 0 00065    00630 TXH +3 00000 0 00050
                 T'O HOME                                                           089  LM00101
 00631 TRA +0 02000 0 00050
      OOPS       PRMESS.(MFD,SP,FI,$ NOT FOUND IN AFST.$)                           090  LM00103
 00632 TSX +0 07400 4 00016    00633 TXH +3 00000 0 00074    00634 TXH +3 00000 0 00103    00635 TXH +3 00000 0 00065
 00636 TXH +3 00000 0 00144    00637 TXH +3 00000 0 00136    00640 TXH +3 00000 0 00135    00641 TXH +3 00000 0 00132
                 T'O CLSMFD                                                         091  LM00104
 00642 TRA +0 02000 0 00046
      UFDERR     PRNTER.(375K)                                                      092  LM00105
 00643 TSX +0 07400 4 00017    00644 TXH +3 00000 0 00120
      CLSUFD     BFCLOS.(UFD1,UFD2,MFDLOP)                                          093  LM00106
 00645 TSX +0 07400 4 00002    00646 TXH +3 00000 0 00027    00647 TXH +3 00000 0 00030    00650 TXH +3 00000 0 00053
                 T'O MFDLOP                                                         094  LM00107
 00651 TRA +0 02000 0 00053
      OOPSU      PRMESS.(UFD1,SP,UFD2,$ NOT FOUND IN AFST.$)                        095  LM00109
 00652 TSX +0 07400 4 00016    00653 TXH +3 00000 0 00027    00654 TXH +3 00000 0 00103    00655 TXH +3 00000 0 00030
 00656 TXH +3 00000 0 00144    00657 TXH +3 00000 0 00136    00660 TXH +3 00000 0 00135    00661 TXH +3 00000 0 00132
                 T'O CLSUFD                                                         096  LM00110
 00662 TRA +0 02000 0 00047
                 INTERNAL FUNCTION (A,B,C)                                          097  LM00112
 00663 TRA +0 02000 0 01010
                 E'O PT.                                                            098  LM00113
 00664 TRA +0 02000 0 00667    00025 TTR +0 02100 0 00665    00665 SXA +0 63400 2 00766    00666 TSX +0 07400 2 00766
                 W'R TEMP.G.0.OR.(A.E.MFD.OR.A.E.$ M1416$).AND.TEMP.L.0             099  LM00115
                1 .OR. UFDBAD.G.432                                                 099  LM00116
 00667 CLA +0 50000 0 00105    00670 SUB +0 40200 0 00121    00671 TZE +0 10000 0 00673    00672 TPL +0 12000 0 00712
 00673 CLA +0 50000 0 00104    00674 SUB +0 40200 0 00112    00675 TZE +0 10000 0 00706    00676 TPL +0 12000 0 00706
 00677 CLA +0 50000 0 00024    00700 SUB +0 40200 0 00143    00701 TZE +0 10000 0 00705    00702 CLA +0 50000 0 00024
 00703 SUB +0 40200 0 00074    00704 TNZ -0 10000 0 00706    00705 TRA +0 02000 0 00712    00706 CLA +0 50000 0 00104
 00707 SUB +0 40200 0 00112    00710 TZE +0 10000 0 00764    00711 TMI -0 12000 0 00764
                      W'R TEMP.G.0                                                  100  LM00117
 00712 CLA +0 50000 0 00104    00713 SUB +0 40200 0 00112    00714 TZE +0 10000 0 00725    00715 TMI -0 12000 0 00725
                           TEMP=NZEL.(DEFBC.(TEMP))                                 101  LM00118
 00716 TSX +0 07400 4 00007    00717 TXH +3 00000 0 00104    00720 STO +0 60100 0 01006    00721 TSX +0 07400 4 00024
 00722 TXH +3 00000 0 01006    00723 STO +0 60100 0 00104
                      O'E                                                           102  LM00119
 00724 TRA +0 02000 0 00736
                           TEMP=NZEL.(DEFBC.(TEMP)).A.407777777777K                 103  LM00120
 00725 TSX +0 07400 4 00007    00726 TXH +3 00000 0 00104    00727 STO +0 60100 0 01006    00730 TSX +0 07400 4 00024
 00731 TXH +3 00000 0 01006    00732 STO +0 60100 0 01006    00733 CAL -0 50000 0 01006    00734 ANA -0 32000 0 00133
 00735 SLW +0 60200 0 00104
                      E'L                                                           104  LM00121
                      PRMESS.(A,SP,B,SP,TEMP,SLASH,NZEL.(DEFBC.(C)),                105  LM00122
                1          SLASH,NZEL.(DEFBC.(LEN)))                                105  LM00123
 00736 TSX +0 07400 4 00007    00737 TXH +3 00000 0 00067    00740 STO +0 60100 0 01006    00741 TSX +0 07400 4 00024
 00742 TXH +3 00000 0 01006    00743 STO +0 60100 0 01006    00744 TSX +0 07400 4 00007    00745 TXH +3 00000 0 00024
 00746 STO +0 60100 0 01007    00747 TSX +0 07400 4 00024    00750 TXH +3 00000 0 01007    00751 STO +0 60100 0 01007
 00752 TSX +0 07400 4 00016    00753 TXH +3 00000 0 00024    00754 TXH +3 00000 0 00103    00755 TXH +3 00000 0 00024
 00756 TXH +3 00000 0 00103    00757 TXH +3 00000 0 00104    00760 TXH +3 00000 0 00102    00761 TXH +3 00000 0 01007
 00762 TXH +3 00000 0 00102    00763 TXH +3 00000 0 01006
                 E'L                                                                106  LM00124
                 F'N                                                                107  LM00125
 00764 TRA +0 02000 0 01002
                 E'N                                                                108  LM00126
 00765 TSX +0 07400 4 00012    00766 TXH +3 00000 0 00000    00767 SXD -0 63400 1 00766    00770 SXA +0 63400 4 01002
 00771 CLA +0 50000 4 00001    00772 STA +0 62100 0 00677    00773 STA +0 62100 0 00702    00774 STO +0 60100 0 00753
 00775 CLA +0 50000 4 00002    00776 STO +0 60100 0 00755    00777 CLA +0 50000 4 00003    01000 STO +0 60100 0 00745
 01001 TRA +0 02000 2 00001    01002 AXT +0 77400 4 00000    01003 LXA +0 53400 2 00766    01004 LXD -0 53400 1 00766
 01005 TRA +0 02000 4 00001
                 INTERNAL FUNCTION (A)                                              109  LM00128
 01010 TRA +0 02000 0 01041
                 E'O NZEL.                                                          110  LM00129
 01011 TRA +0 02000 0 01014    00024 TTR +0 02100 0 01012    01012 SXA +0 63400 2 01027    01013 TSX +0 07400 2 01027
                 NZTEMP=BZ57.(A)                                                    111  LM00130
 01014 TSX +0 07400 4 00005    01015 TXH +3 00000 0 00024    01016 STO +0 60100 0 00100
                 W'R NZTEMP.E.575757575757K, NZTEMP=005757575757K                   112  LM00131
 01017 CLA +0 50000 0 00100    01020 SUB +0 40200 0 00142    01021 TNZ -0 10000 0 01024    01022 CLA +0 50000 0 00124
 01023 STO +0 60100 0 00100
                 F'N NZTEMP                                                         113  LM00132
 01024 CLA +0 50000 0 00100    01025 TRA +0 02000 0 01035
                 E'N                                                                114  LM00133
 01026 TSX +0 07400 4 00012    01027 TXH +3 00000 0 00000    01030 SXD -0 63400 1 01027    01031 SXA +0 63400 4 01035
 01032 CLA +0 50000 4 00001    01033 STO +0 60100 0 01015    01034 TRA +0 02000 2 00001    01035 AXT +0 77400 4 00000
 01036 LXA +0 53400 2 01027    01037 LXD -0 53400 1 01027    01040 TRA +0 02000 4 00001
                 E'M                                                                115  LM00135
 01041 TSX +0 07400 4 00012
1     FAP ASSEMBLY LISTING  ...  ...  ...        FILE TRACKS _____FAP___         03/15/69 1916.5 PAGE 1

                       00007         ENTRY   NEWFIL
                       00110         ENTRY   TRACKS
                       00105         ENTRY   SETRKS
                       00123         ENTRY   TRKS

                                     EXTERN  ATTNAM,ATTACH
                                     EXTERN  COMLOC
                                     EXTERN  GETLOC,DELBC


        TRANSFER VECTOR
      00000  216363452144     ATTNAM
      00001  216363212330     ATTACH
      00002  234644434623     COMLOC
      00003  272563434623     GETLOC
      00004  242543222360     DELBC

            LINKAGE DIRECTOR
      00005  000000000000
      00006  452566263143

      00007  0634 00 4 00101  NEWFIL SXA     XR4,4

      00010  0020 00 0 00011  GATE   TRA     *+1
      00011  0074 00 4 00000         TSX     ATTNAM,4
      00012  3 00002 0 00127         PTH     N1,,2
      00013  0074 00 4 00002         TSX     COMLOC,4
      00014  3 00000 0 00136         PTH     =HACTFIL
      00015  3 00000 0 00103         PTH     OOPS
      00016  0621 00 0 00040         STA     ACTFIL
      00017  0074 00 4 00002         TSX     COMLOC,4
      00020  3 00000 0 00137         PTH     =HAFSTU2
      00021  3 00000 0 00103         PTH     OOPS
      00022  0400 00 0 00131         ADD     AFSCON
      00023  0621 00 0 00041         STA     BASE
      00024  0074 00 4 00001         TSX     ATTACH,4
      00025  3 00000 0 00127         PTH     N1
      00026  3 00000 0 00130         PTH     N2
      00027  3 00000 0 00030         PTH     *+1
      00030  0534 00 4 00101         LXA     XR4,4
      00031 -0625 00 0 00010         STL     GATE

      00032 -0500 60 4 00001         CAL*    1,4
      00033  0602 00 0 00127         SLW     N1
      00034 -0500 60 4 00002         CAL*    2,4
      00035  0602 00 0 00130         SLW     N2
      00036  0634 00 1 00077         SXA     XR1,1
      00037  0634 00 2 00100         SXA     XR2,2
      00040  0774 00 1 00000  ACTFIL AXT     **,1
      00041 -0774 00 2 00000  BASE   AXC     **,2

      00042  0756 00 2 00000  FNDLOP PCA     ,2
      00043  0400 00 0 00132         ADD     RPROBN
      00044  0621 00 0 00046         STA     *+2
      00045  0074 00 4 00003         TSX     GETLOC,4
      00046  0 00000 0 00000                 **
1     FAP ASSEMBLY LISTING  ...  ...  ...        FILE TRACKS _____FAP___         03/15/69 1916.5 PAGE 2

      00047  0100 00 0 00066         TZE     FNDNXT
      00050  0756 00 2 00000         PCA     ,2
      00051  0400 00 0 00133         ADD     RNAME1
      00052  0621 00 0 00054         STA     *+2
      00053  0074 00 4 00003         TSX     GETLOC,4
      00054  0 00000 0 00000                 **
      00055  0322 00 0 00127         ERA     N1
      00056 -0100 00 0 00066         TNZ     FNDNXT
      00057  0756 00 2 00000         PCA     ,2
      00060  0400 00 0 00134         ADD     RNAME2
      00061  0621 00 0 00063         STA     *+2
      00062  0074 00 4 00003         TSX     GETLOC,4
      00063  0 00000 0 00000                 **
      00064  0322 00 0 00130         ERA     N2
      00065  0100 00 0 00074         TZE     FOUND
      00066  1 77752 2 00067  FNDNXT TXI     *+1,2,-AFSENL
      00067  2 00001 1 00042         TIX     FNDLOP,1,1
      00070  0534 00 1 00077         LXA     XR1,1
      00071  0534 00 2 00100         LXA     XR2,2
      00072  0534 00 4 00101         LXA     XR4,4
      00073  0020 60 4 00003         TRA*    3,4

      00074  0756 00 2 00000  FOUND  PCA     ,2
      00075  0400 00 0 00135         ADD     SMTMP2
      00076  0621 00 0 00112         STA     TRKADR
      00077  0774 00 1 00000  XR1    AXT     **,1
      00100  0774 00 2 00000  XR2    AXT     **,2
      00101  0774 00 4 00000  XR4    AXT     **,4
      00102  0020 00 4 00004         TRA     4,4

      00103  0534 00 4 00101  OOPS   LXA     XR4,4
      00104  0020 60 4 00003         TRA*    3,4

      00105 -0500 00 0 00112  SETRKS CAL     TRKADR
      00106  0621 00 0 00125         STA     TRKAD1
      00107  0020 00 4 00001         TRA     1,4

      00110  0634 00 4 00121  TRACKS SXA     TX4,4
      00111  0074 00 4 00003         TSX     GETLOC,4
      00112  0 00000 0 00000  TRKADR         **
      00113  0602 00 0 00127         SLW     N1
      00114  0074 00 4 00004         TSX     DELBC,4
      00115  3 00000 0 00127         PTH     N1
      00116  0131 00 0 00000         XCA
      00117 -0773 00 0 00006         RQL     6
      00120 -0130 00 0 00000         XCL
      00121  0774 00 4 00000  TX4    AXT     **,4
      00122  0020 00 4 00001         TRA     1,4

      00123  0634 00 4 00121  TRKS   SXA     TX4,4
      00124  0074 00 4 00003         TSX     GETLOC,4
      00125  0 00000 0 00000  TRKAD1         **
      00126  0020 00 0 00113         TRA     TRKADR+1
1     FAP ASSEMBLY LISTING  ...  ...  ...        FILE TRACKS _____FAP___         03/15/69 1916.5 PAGE 3

      00127  0 00000 0 00000  N1
      00130  0 00000 0 00000  N2

      00131  0 00000 0 00025  AFSCON PZE     21
      00132  0 00000 0 00000  RPROBN PZE     0
      00133  0 00000 0 00002  RNAME1 PZE     2
      00134  0 00000 0 00003  RNAME2 PZE     3
      00135  0 00000 0 00025  SMTMP2 PZE     21

                       00026  AFSENL EQU     22

                                     END

        LITERALS
      00136  212363263143
      00137  212662636402
1     FAP ASSEMBLY LISTING  ...  ...  ...        FILE TRACKS _____FAP___         03/15/69 1916.5 PAGE 1
                        POST PROCESSOR ASSEMBLY DATA

        140 IS THE FIRST LOCATION NOT USED BY THIS PROGRAM

0REFERENCES TO DEFINED SYMBOLS
        127     N1    12,   25,   33,   55,  113,  115
        130     N2    26,   35,   64
        121    TX4   110,  123
         77    XR1    36,   70
        100    XR2    37,   71
        101    XR4     7,   30,   72,  103
         41   BASE    23
         10   GATE    31
        103   OOPS    15,   21
        123   TRKS     0
          4  DELBC   114
         74  FOUND    65
         40 ACTFIL    16
        131 AFSCON    22
         26 AFSENL    66,  136
          1 ATTACH    24
          0 ATTNAM    11
          2 COMLOC    13,   17
         42 FNDLOP    67
         66 FNDNXT    47,   56
          3 GETLOC    45,   53,   62,  111,  124
          7 NEWFIL     0
        133 RNAME1    51
        134 RNAME2    60
        132 RPROBN    43
        105 SETRKS     0
        135 SMTMP2    75
        110 TRACKS     0
        125 TRKAD1   106
        112 TRKADR    76,  105,  126

0 NO ERROR IN ABOVE ASSEMBLY.


MFDSRT   BCD 02/09/69 0650.4    7207         00000
1     MAD PROGRAM LISTING ... ... ...                 FILE  MFDSRT   MAD            11/25/68    2057.7
-
                 ...MFDSRT MODE                                                                        LM00001
                                                                                                       LM00002
                  NORMAL MODE IS INTEGER                                                          *001 LM00003
                  MODE = COMARG.(1)                                                               *002 LM00004
                  WHENEVER COMARG.(2,IT) .NE. 777777 777777K, N3 = IT                             *003 LM00005
                  WHENEVER MODE .E. $ PROBN$                                                      *004 LM00006
                       IT = 0                                                                     *005 LM00007
                  OR WHENEVER MODE .E. $ PROGN$                                                   *006 LM00008
                       IT = 1                                                                     *007 LM00009
                  OR WHENEVER MODE .E. $   MFD$                                                   *008 LM00010
                       IT = 2                                                                     *009 LM00011
                  OTHERWISE                                                                       *010 LM00012
                       PRMESS.($ILLEGAL MODE$,MODE)                                               *011 LM00013
                       CHNCOM.(0)                                                                 *012 LM00014
                  END OF CONDITIONAL                                                              *013 LM00015
                  GETBUF.(B1,432)                                                                 *014 LM00016
                  GETBUF.(B2,432)                                                                 *015 LM00017
                  GETBUF.(B3,432)                                                                 *016 LM00018
                  GETBUF.(WK,700)                                                                 *017 LM00019
                  GETBUF.(WJ,700)                                                                 *018 LM00020
                                                                                                       LM00021
                 ...OPEN MFD                                                                           LM00022
                                                                                                       LM00023
                  ATTNAM.(V(2)...2)                                                               *019 LM00024
                  ATTACH.(N1,N2)                                                                  *020 LM00025
                  BFOPEN.($R$,N1,N2,B1(B1+432),B2(B2+432),MZE,ERR)                                *021 LM00026
                  ATTACH.(V(2),V(1),ERR)                                                          *022 LM00027
                 ...SKIP QUOTA WDS AND MFD ITSELF                                                      LM00028
                  BFREAD.(N1,N2,BUF(3)...3,EOF,C,ERR)                                             *023 LM00029
                  BFREAD.(N1,N2,BUF(7)...7,EOF,C,ERR)                                             *024 LM00030
      LOOP        BFREAD.(N1,N2,BUF(7)...7,EOF,C,ERR)                                             *025 LM00031
                  WHENEVER ((BUF(7).V.BUF(6)).E.0), TRANSFER TO LOOP                              *026 LM00032
                  WK(WK+I) = LJUST.(BUF(7))                                                       *027 LM00033
                  WJ(WJ+I) = BUF(6)                                                               *028 LM00034
                  I = I + 1                                                                       *029 LM00035
                  TRANSFER TO LOOP                                                                *030 LM00036
      EOF         N = I - 1                                                                       *031 LM00037
                  BFCLOS.(N1,N2,ERR)                                                              *032 LM00038
                  D = N                                                                           *033 LM00039
      TOP         SWAP = 0B                                                                       *034 LM00040
                  D = (D+1)/2                                                                     *035 LM00041
                  THROUGH PASS, FOR I = 1,1,I+D .G. N                                             *036 LM00042
                       G1 = WJ(WJ+I)                                                              *037 LM00043
                       G2 = WJ(WJ+I+D)                                                            *038 LM00044
                       WHENEVER G1.RS. 12 .E.$00CMFL$                                             *039 LM00045
                            G1 = G1.A.7777K                                                       *040 LM00046
                       OTHERWISE                                                                  *041 LM00047
                            G1 = BCDEC.(G1) + 1K6                                                 *042 LM00048
                       END OF CONDITIONAL                                                         *043 LM00049
                       WHENEVER G2.RS. 12 .E.$00CMFL$                                             *044 LM00050
                            G2 = G2.A.7777K                                                       *045 LM00051
                       OTHERWISE                                                                  *046 LM00052
                            G2 = BCDEC.(G2) + 1K6                                                 *047 LM00053
                       END OF CONDITIONAL                                                         *048 LM00054
                       WHENEVER IT .NE. 0                                                         *049 LM00055
                            P1 = BCDEC.(WK(WK+I).A.007777777700K)                                 *050 LM00056
                            P2 = BCDEC.(WK(WK+I+D).A.007777777700K)                               *051 LM00057
                            WHENEVER IT .E. 2                                                     *052 LM00058
                                 THROUGH GG, FOR J = 0,1,J .GE. NGG                               *053 LM00059
                                 WHENEVER WK(WK+I) .E. GD(J), P1 = P1 + GK(J)                     *054 LM00060
                                 WHENEVER WK(WK+I+D) .E. GD(J), P2 = P2 + GK(J)                   *055 LM00061
      GG                         CONTINUE                                                         *056 LM00062
                            END OF CONDITIONAL                                                    *057 LM00063
                       END OF CONDITIONAL                                                         *058 LM00064
                       WHENEVER P1 .G. P2 .OR. (P1 .E. P2 .AND. G1 .G. G2)                        *059 LM00065
                            TEMP = WK(WK+I)                                                       *060 LM00066
                            WK(WK+I) = WK(WK+I+D)                                                 *061 LM00067
                            WK(WK+I+D) = TEMP                                                     *062 LM00068
                            TEMP = WJ(WJ+I)                                                       *063 LM00069
                            WJ(WJ+I) = WJ(WJ+I+D)                                                 *064 LM00070
                            WJ(WJ+I+D) = TEMP                                                     *065 LM00071
                            SWAP = 1B                                                             *066 LM00072
                       END OF CONDITIONAL                                                         *067 LM00073
      PASS        CONTINUE                                                                        *068 LM00074
                  WHENEVER SWAP.OR.(D.G.1), TRANSFER TO TOP                                       *069 LM00075
                  DELETE.(N3,N4,0,ERR)                                                            *070 LM00076
                  BFOPEN.($W$,N3,N4,B1(B1+432),B2(B2+432),B3(B3+432),ERR)                         *071 LM00077
                  THROUGH WW, FOR I = 1,1,I.G.N                                                   *072 LM00078
                  LINE(13) = WK(WK+I)                                                             *073 LM00079
                  LINE(12) = WJ(WJ+I)                                                             *074 LM00080
                  BFWRIT.(N3,N4,LINE(13)...14,ERR)                                                *075 LM00081
      WW          CONTINUE                                                                        *076 LM00082
                  BFCLOS.(N3,N4,ERR)                                                              *077 LM00083
                  PRMESS.(DERBC.(N),$ ENTRIES$,N3,N4)                                             *078 LM00084
                  CHNCOM.(0)                                                                      *079 LM00085
      ERR         DSKER.                                                                          *080 LM00086
                                                                                                       LM00087
                  VECTOR VALUES N1 = $M.F.D.$                                                     *081 LM00088
                  VECTOR VALUES N2 = $(FILE)$                                                     *082 LM00089
                  VECTOR VALUES N3 = $   MFD$                                                     *083 LM00090
                  VECTOR VALUES N4 = $ PUNCH$                                                     *084 LM00091
                  VECTOR VALUES LINE...LINE(13) = $$                                              *085 LM00092
                  DIMENSION V(2), BUF(7)                                                          *086 LM00093
                  VECTOR VALUES C = 0                                                             *087 LM00094
                  VECTOR VALUES MZE = 4K11                                                        *088 LM00095
                  VECTOR VALUES GD = $M.F.D.$,$DRUMUT$,$DISKUT$,$DSKEDT$,$M1416$,$C0056$          *089 LM00096
                  VECTOR VALUES GK = 47K10,46K10,45K10,44K10,43K10,42K10,41K10                    *090 LM00097
                  VECTOR VALUES NGG = 6                                                           *091 LM00098
                  DIMENSION B1(0),B2(0),B3(0),WK(0),WJ(0),LINE(13)                                *092 LM00099
                  BOOLEAN SWAP                                                                    *093 LM00100
                  VECTOR VALUES P1 = 0                                                            *094 LM00101
                  VECTOR VALUES P2 = 0                                                            *095 LM00102
                  VECTOR VALUES I = 1                                                             *096 LM00103
                  END OF PROGRAM                                                                  *097 LM00104
1MAD PROGRAM,TYPE NOV 1963      (ALL NUMBERS ARE OCTAL)
0TOTAL LOCATIONS   00756 TRANSFER VECTOR LENGTH  00021 PROGRAM BEGINS    00154
0VARIABLE STORAGE (A=ARRAY,C=COMMON,E=ERASABLE,DIGIT=MODE)
      B1     00026 A 1        G1     00043   1        J      00064   1        N3     00107 A 1        SWAP   00115   2
      B2     00027 A 1        G2     00044   1        LINE   00102 A 1        N4     00110 A 1        TEMP   00116   1
      B3     00030 A 1        GD     00052 A 1        LOOP   00024   4        NGG    00111 A 1        TOP    00025   4
      BUF    00040 A 1        GG     00021   4        MODE   00103   1        N      00112   1        V      00121 A 1
      C      00041 A 1        GK     00061 A 1        MZE    00104 A 1        P1     00113 A 1        WJ     00122 A 1
      D      00042   1        I      00062 A 1        N1     00105 A 1        P2     00114 A 1        WK     00123 A 1
      EOF    00022   4        IT     00063   1        N2     00106 A 1        PASS   00021   4        WW     00021   4
      ERR    00023   4
0FUNCTION DICTIONARY
      ATTACH 00000   1        ATTNAM 00001   1        BCDEC  00002   1        BFCLOS 00003   1        BFOPEN 00004   1
      BFREAD 00005   1        BFWRIT 00006   1        CHNCOM 00007   1        COMARG 00010   1        DELETE 00011   1
      DERBC  00012   1        DSKER  00013   1        EXIT   00014   1        GETBUF 00015   1        .SETUP 00016   1
      LJUST  00017   1        PRMESS 00020   1
0ABSOLUTE CONSTANTS
 00142 +256260606060     00146 -202545635131     00132 +000000000016     00152 -266060606060     00140 +007777777700
 00136 +000001000000     00135 +000000007777     00137 +000023442643     00131 +000000000014     00130 +000000000007
 00127 +000000000003     00145 -116060606060     00134 +000000001274     00133 +000000000660     00144 -036044462425
 00143 +314343252721     00151 -206060442624     00150 -204751462745     00124 +000000000000     00147 -204751462245
 00153 -377777777777     00126 +000000000002     00125 +000000000001     00141 +233000000000
0STATEMENT DICTIONARY
 00022 TXL -300351000346       00023 TXL -300752000751       00024 TXL -300316000307       00025 TXL -300361000357
0PROGRAM
                 N'R                                                                001  LM00003
                 MODE = COMARG.(1)                                                  002  LM00004
 00154 TSX +0 07400 4 00016    00155 TSX +0 07400 4 00010    00156 TXH +3 00000 0 00125    00157 STO +0 60100 0 00103
                 W'R COMARG.(2,IT) .NE. 777777 777777K, N3 = IT                     003  LM00005
 00160 TSX +0 07400 4 00010    00161 TXH +3 00000 0 00126    00162 TXH +3 00000 0 00063    00163 SUB +0 40200 0 00153
 00164 TZE +0 10000 0 00167    00165 CLA +0 50000 0 00063    00166 STO +0 60100 0 00107
                 W'R MODE .E. $ PROBN$                                              004  LM00006
 00167 CLA +0 50000 0 00103    00170 SUB +0 40200 0 00147    00171 TNZ -0 10000 0 00175
                      IT = 0                                                        005  LM00007
 00172 CLA +0 50000 0 00124    00173 STO +0 60100 0 00063
                 O'R MODE .E. $ PROGN$                                              006  LM00008
 00174 TRA +0 02000 0 00217    00175 CLA +0 50000 0 00103    00176 SUB +0 40200 0 00150    00177 TNZ -0 10000 0 00203
                      IT = 1                                                        007  LM00009
 00200 CLA +0 50000 0 00125    00201 STO +0 60100 0 00063
                 O'R MODE .E. $   MFD$                                              008  LM00010
 00202 TRA +0 02000 0 00217    00203 CLA +0 50000 0 00103    00204 SUB +0 40200 0 00151    00205 TNZ -0 10000 0 00211
                      IT = 2                                                        009  LM00011
 00206 CLA +0 50000 0 00126    00207 STO +0 60100 0 00063
                 O'E                                                                010  LM00012
 00210 TRA +0 02000 0 00217
                      PRMESS.($ILLEGAL MODE$,MODE)                                  011  LM00013
 00211 TSX +0 07400 4 00020    00212 TXH +3 00000 0 00143    00213 TXH +3 00000 0 00144    00214 TXH +3 00000 0 00103
                      CHNCOM.(0)                                                    012  LM00014
 00215 TSX +0 07400 4 00007    00216 TXH +3 00000 0 00124
                 E'L                                                                013  LM00015
                 GETBUF.(B1,432)                                                    014  LM00016
 00217 TSX +0 07400 4 00015    00220 TXH +3 00000 0 00026    00221 TXH +3 00000 0 00133
                 GETBUF.(B2,432)                                                    015  LM00017
 00222 TSX +0 07400 4 00015    00223 TXH +3 00000 0 00027    00224 TXH +3 00000 0 00133
                 GETBUF.(B3,432)                                                    016  LM00018
 00225 TSX +0 07400 4 00015    00226 TXH +3 00000 0 00030    00227 TXH +3 00000 0 00133
                 GETBUF.(WK,700)                                                    017  LM00019
 00230 TSX +0 07400 4 00015    00231 TXH +3 00000 0 00123    00232 TXH +3 00000 0 00134
                 GETBUF.(WJ,700)                                                    018  LM00020
 00233 TSX +0 07400 4 00015    00234 TXH +3 00000 0 00122    00235 TXH +3 00000 0 00134
                 ATTNAM.(V(2)...2)                                                  019  LM00024
 00236 TSX +0 07400 4 00001    00237 TIX +2 00126 0 00117
                 ATTACH.(N1,N2)                                                     020  LM00025
 00240 TSX +0 07400 4 00000    00241 TXH +3 00000 0 00105    00242 TXH +3 00000 0 00106
                 BFOPEN.($R$,N1,N2,B1(B1+432),B2(B2+432),MZE,ERR)                   021  LM00026
 00243 CLA +0 50000 0 00027    00244 ADD +0 40000 0 00133    00245 SUB +0 40200 0 00246    00246 TXH +3 00000 0 00027
 00247 STA +0 62100 0 00262    00250 CLA +0 50000 0 00026    00251 ADD +0 40000 0 00133    00252 SUB +0 40200 0 00253
 00253 TXH +3 00000 0 00026    00254 STA +0 62100 0 00261    00255 TSX +0 07400 4 00004    00256 TXH +3 00000 0 00145
 00257 TXH +3 00000 0 00105    00260 TXH +3 00000 0 00106    00261 TXH +3 00000 0 00000    00262 TXH +3 00000 0 00000
 00263 TXH +3 00000 0 00104    00264 TXH +3 00000 0 00023
                 ATTACH.(V(2),V(1),ERR)                                             022  LM00027
 00265 TSX +0 07400 4 00000    00266 TXH +3 00000 0 00117    00267 TXH +3 00000 0 00120    00270 TXH +3 00000 0 00023
                 BFREAD.(N1,N2,BUF(3)...3,EOF,C,ERR)                                023  LM00029
 00271 TSX +0 07400 4 00005    00272 TXH +3 00000 0 00105    00273 TXH +3 00000 0 00106    00274 TIX +2 00127 0 00035
 00275 TXH +3 00000 0 00022    00276 TXH +3 00000 0 00041    00277 TXH +3 00000 0 00023
                 BFREAD.(N1,N2,BUF(7)...7,EOF,C,ERR)                                024  LM00030
 00300 TSX +0 07400 4 00005    00301 TXH +3 00000 0 00105    00302 TXH +3 00000 0 00106    00303 TIX +2 00130 0 00031
 00304 TXH +3 00000 0 00022    00305 TXH +3 00000 0 00041    00306 TXH +3 00000 0 00023
      LOOP       BFREAD.(N1,N2,BUF(7)...7,EOF,C,ERR)                                025  LM00031
 00307 TSX +0 07400 4 00005    00310 TXH +3 00000 0 00105    00311 TXH +3 00000 0 00106    00312 TIX +2 00130 0 00031
 00313 TXH +3 00000 0 00022    00314 TXH +3 00000 0 00041    00315 TXH +3 00000 0 00023
                 W'R ((BUF(7).V.BUF(6)).E.0), T'O LOOP                              026  LM00032
 00316 CAL -0 50000 0 00031    00317 ORA -0 50100 0 00032    00320 SLW +0 60200 0 00753    00321 CLA +0 50000 0 00753
 00322 SUB +0 40200 0 00124    00323 TNZ -0 10000 0 00325    00324 TRA +0 02000 0 00024
                 WK(WK+I) = LJUST.(BUF(7))                                          027  LM00033
 00325 TSX +0 07400 4 00017    00326 TXH +3 00000 0 00031    00327 STO +0 60100 0 00753    00330 CLA +0 50000 0 00123
 00331 ADD +0 40000 0 00062    00332 PAX +0 73400 1 00000    00333 CLA +0 50000 0 00753    00334 STO +0 60100 1 00123
                 WJ(WJ+I) = BUF(6)                                                  028  LM00034
 00335 CLA +0 50000 0 00122    00336 ADD +0 40000 0 00062    00337 PAX +0 73400 1 00000    00340 CLA +0 50000 0 00032
 00341 STO +0 60100 1 00122
                 I = I + 1                                                          029  LM00035
 00342 CLA +0 50000 0 00062    00343 ADD +0 40000 0 00125    00344 STO +0 60100 0 00062
                 T'O LOOP                                                           030  LM00036
 00345 TRA +0 02000 0 00024
      EOF        N = I - 1                                                          031  LM00037
 00346 CLA +0 50000 0 00062    00347 SUB +0 40200 0 00125    00350 STO +0 60100 0 00112
                 BFCLOS.(N1,N2,ERR)                                                 032  LM00038
 00351 TSX +0 07400 4 00003    00352 TXH +3 00000 0 00105    00353 TXH +3 00000 0 00106    00354 TXH +3 00000 0 00023
                 D = N                                                              033  LM00039
 00355 CLA +0 50000 0 00112    00356 STO +0 60100 0 00042
      TOP        SWAP = 0B                                                          034  LM00040
 00357 CLA +0 50000 0 00124    00360 STO +0 60100 0 00115
                 D = (D+1)/2                                                        035  LM00041
 00361 CLA +0 50000 0 00042    00362 ADD +0 40000 0 00125    00363 LRS +0 76500 0 00043    00364 DVP +0 22100 0 00126
 00365 STQ -0 60000 0 00042
                 T'H PASS, FOR I = 1,1,I+D .G. N                                    036  LM00042
 00366 CLA +0 50000 0 00125    00367 STO +0 60100 0 00062    00370 TRA +0 02000 0 00374    00371 CLA +0 50000 0 00062
 00372 ADD +0 40000 0 00125    00373 STO +0 60100 0 00062    00374 CLA +0 50000 0 00062    00375 ADD +0 40000 0 00042
 00376 SUB +0 40200 0 00112    00377 TZE +0 10000 0 00401    00400 TPL +0 12000 0 00635
                      G1 = WJ(WJ+I)                                                 037  LM00043
 00401 CLA +0 50000 0 00122    00402 ADD +0 40000 0 00062    00403 PAX +0 73400 2 00000    00404 CLA +0 50000 2 00122
 00405 STO +0 60100 0 00043
                      G2 = WJ(WJ+I+D)                                               038  LM00044
 00406 CLA +0 50000 0 00122    00407 ADD +0 40000 0 00062    00410 ADD +0 40000 0 00042    00411 PAX +0 73400 2 00000
 00412 CLA +0 50000 2 00122    00413 STO +0 60100 0 00044
                      W'R G1.RS. 12 .E.$00CMFL$                                     039  LM00045
 00414 CAL -0 50000 0 00131    00415 STA +0 62100 0 00417    00416 CAL -0 50000 0 00043    00417 LGR -0 76500 0 00000
 00420 SLW +0 60200 0 00753    00421 CLA +0 50000 0 00753    00422 SUB +0 40200 0 00137    00423 TNZ -0 10000 0 00430
                           G1 = G1.A.7777K                                          040  LM00046
 00424 CAL -0 50000 0 00043    00425 ANA -0 32000 0 00135    00426 SLW +0 60200 0 00043
                      O'E                                                           041  LM00047
 00427 TRA +0 02000 0 00434
                           G1 = BCDEC.(G1) + 1K6                                    042  LM00048
 00430 TSX +0 07400 4 00002    00431 TXH +3 00000 0 00043    00432 ADD +0 40000 0 00136    00433 STO +0 60100 0 00043
                      E'L                                                           043  LM00049
                      W'R G2.RS. 12 .E.$00CMFL$                                     044  LM00050
 00434 CAL -0 50000 0 00131    00435 STA +0 62100 0 00437    00436 CAL -0 50000 0 00044    00437 LGR -0 76500 0 00000
 00440 SLW +0 60200 0 00753    00441 CLA +0 50000 0 00753    00442 SUB +0 40200 0 00137    00443 TNZ -0 10000 0 00450
                           G2 = G2.A.7777K                                          045  LM00051
 00444 CAL -0 50000 0 00044    00445 ANA -0 32000 0 00135    00446 SLW +0 60200 0 00044
                      O'E                                                           046  LM00052
 00447 TRA +0 02000 0 00454
                           G2 = BCDEC.(G2) + 1K6                                    047  LM00053
 00450 TSX +0 07400 4 00002    00451 TXH +3 00000 0 00044    00452 ADD +0 40000 0 00136    00453 STO +0 60100 0 00044
                      E'L                                                           048  LM00054
                      W'R IT .NE. 0                                                 049  LM00055
 00454 CLA +0 50000 0 00063    00455 SUB +0 40200 0 00124    00456 TZE +0 10000 0 00545
                           P1 = BCDEC.(WK(WK+I).A.007777777700K)                    050  LM00056
 00457 CLA +0 50000 0 00123    00460 ADD +0 40000 0 00062    00461 PAX +0 73400 1 00000    00462 CAL -0 50000 1 00123
 00463 ANA -0 32000 0 00140    00464 SLW +0 60200 0 00753    00465 TSX +0 07400 4 00002    00466 TXH +3 00000 0 00753
 00467 STO +0 60100 0 00113
                           P2 = BCDEC.(WK(WK+I+D).A.007777777700K)                  051  LM00057
 00470 CLA +0 50000 0 00123    00471 ADD +0 40000 0 00062    00472 ADD +0 40000 0 00042    00473 PAX +0 73400 1 00000
 00474 CAL -0 50000 1 00123    00475 ANA -0 32000 0 00140    00476 SLW +0 60200 0 00753    00477 TSX +0 07400 4 00002
 00500 TXH +3 00000 0 00753    00501 STO +0 60100 0 00114
                           W'R IT .E. 2                                             052  LM00058
 00502 CLA +0 50000 0 00063    00503 SUB +0 40200 0 00126    00504 TNZ -0 10000 0 00545
                                T'H GG, FOR J = 0,1,J .GE. NGG                      053  LM00059
 00505 CLA +0 50000 0 00124    00506 STO +0 60100 0 00064    00507 TRA +0 02000 0 00513    00510 CLA +0 50000 0 00064
 00511 ADD +0 40000 0 00125    00512 STO +0 60100 0 00064    00513 CLA +0 50000 0 00064    00514 SUB +0 40200 0 00111
 00515 TZE +0 10000 0 00545    00516 TPL +0 12000 0 00545
                                W'R WK(WK+I) .E. GD(J), P1 = P1 + GK(J)             054  LM00060
 00517 CLA +0 50000 0 00123    00520 ADD +0 40000 0 00062    00521 PAX +0 73400 1 00000    00522 LXA +0 53400 2 00064
 00523 CLA +0 50000 1 00123    00524 SUB +0 40200 2 00052    00525 TNZ -0 10000 0 00531    00526 CLA +0 50000 0 00113
 00527 ADD +0 40000 2 00061    00530 STO +0 60100 0 00113
                                W'R WK(WK+I+D) .E. GD(J), P2 = P2 + GK(J)           055  LM00061
 00531 CLA +0 50000 0 00123    00532 ADD +0 40000 0 00062    00533 ADD +0 40000 0 00042    00534 PAX +0 73400 1 00000
 00535 LXA +0 53400 2 00064    00536 CLA +0 50000 1 00123    00537 SUB +0 40200 2 00052    00540 TNZ -0 10000 0 00544
 00541 CLA +0 50000 0 00114    00542 ADD +0 40000 2 00061    00543 STO +0 60100 0 00114
      GG                        C'E                                                 056  LM00062
 00544 TRA +0 02000 0 00510
                           E'L                                                      057  LM00063
                      E'L                                                           058  LM00064
                      W'R P1 .G. P2 .OR. (P1 .E. P2 .AND. G1 .G. G2)                059  LM00065
 00545 CLA +0 50000 0 00043    00546 SUB +0 40200 0 00044    00547 TZE +0 10000 0 00554    00550 TMI -0 12000 0 00554
 00551 CLA +0 50000 0 00113    00552 SUB +0 40200 0 00114    00553 TZE +0 10000 0 00560    00554 CLA +0 50000 0 00113
 00555 SUB +0 40200 0 00114    00556 TZE +0 10000 0 00634    00557 TMI -0 12000 0 00634
                           TEMP = WK(WK+I)                                          060  LM00066
 00560 CLA +0 50000 0 00123    00561 ADD +0 40000 0 00062    00562 PAX +0 73400 2 00000    00563 CLA +0 50000 2 00123
 00564 STO +0 60100 0 00116
                           WK(WK+I) = WK(WK+I+D)                                    061  LM00067
 00565 CLA +0 50000 0 00123    00566 ADD +0 40000 0 00062    00567 ADD +0 40000 0 00042    00570 STO +0 60100 0 00753
 00571 CLA +0 50000 0 00123    00572 ADD +0 40000 0 00062    00573 PAX +0 73400 1 00000    00574 LXA +0 53400 2 00753
 00575 CLA +0 50000 2 00123    00576 STO +0 60100 1 00123
                           WK(WK+I+D) = TEMP                                        062  LM00068
 00577 CLA +0 50000 0 00123    00600 ADD +0 40000 0 00062    00601 ADD +0 40000 0 00042    00602 PAX +0 73400 1 00000
 00603 CLA +0 50000 0 00116    00604 STO +0 60100 1 00123
                           TEMP = WJ(WJ+I)                                          063  LM00069
 00605 CLA +0 50000 0 00122    00606 ADD +0 40000 0 00062    00607 PAX +0 73400 2 00000    00610 CLA +0 50000 2 00122
 00611 STO +0 60100 0 00116
                           WJ(WJ+I) = WJ(WJ+I+D)                                    064  LM00070
 00612 CLA +0 50000 0 00122    00613 ADD +0 40000 0 00062    00614 ADD +0 40000 0 00042    00615 STO +0 60100 0 00753
 00616 CLA +0 50000 0 00122    00617 ADD +0 40000 0 00062    00620 PAX +0 73400 1 00000    00621 LXA +0 53400 2 00753
 00622 CLA +0 50000 2 00122    00623 STO +0 60100 1 00122
                           WJ(WJ+I+D) = TEMP                                        065  LM00071
 00624 CLA +0 50000 0 00122    00625 ADD +0 40000 0 00062    00626 ADD +0 40000 0 00042    00627 PAX +0 73400 1 00000
 00630 CLA +0 50000 0 00116    00631 STO +0 60100 1 00122
                           SWAP = 1B                                                066  LM00072
 00632 CLA +0 50000 0 00125    00633 STO +0 60100 0 00115
                      E'L                                                           067  LM00073
      PASS       C'E                                                                068  LM00074
 00634 TRA +0 02000 0 00371
                 W'R SWAP.OR.(D.G.1), T'O TOP                                       069  LM00075
 00635 CLA +0 50000 0 00042    00636 SUB +0 40200 0 00125    00637 TZE +0 10000 0 00641    00640 TPL +0 12000 0 00643
 00641 NZT -0 52000 0 00115    00642 TRA +0 02000 0 00644    00643 TRA +0 02000 0 00025
                 DELETE.(N3,N4,0,ERR)                                               070  LM00076
 00644 TSX +0 07400 4 00011    00645 TXH +3 00000 0 00107    00646 TXH +3 00000 0 00110    00647 TXH +3 00000 0 00124
 00650 TXH +3 00000 0 00023
                 BFOPEN.($W$,N3,N4,B1(B1+432),B2(B2+432),B3(B3+432),ERR)            071  LM00077
 00651 CLA +0 50000 0 00030    00652 ADD +0 40000 0 00133    00653 SUB +0 40200 0 00654    00654 TXH +3 00000 0 00030
 00655 STA +0 62100 0 00676    00656 CLA +0 50000 0 00027    00657 ADD +0 40000 0 00133    00660 SUB +0 40200 0 00661
 00661 TXH +3 00000 0 00027    00662 STA +0 62100 0 00675    00663 CLA +0 50000 0 00026    00664 ADD +0 40000 0 00133
 00665 SUB +0 40200 0 00666    00666 TXH +3 00000 0 00026    00667 STA +0 62100 0 00674    00670 TSX +0 07400 4 00004
 00671 TXH +3 00000 0 00152    00672 TXH +3 00000 0 00107    00673 TXH +3 00000 0 00110    00674 TXH +3 00000 0 00000
 00675 TXH +3 00000 0 00000    00676 TXH +3 00000 0 00000    00677 TXH +3 00000 0 00023
                 T'H WW, FOR I = 1,1,I.G.N                                          072  LM00078
 00700 CLA +0 50000 0 00125    00701 STO +0 60100 0 00062    00702 TRA +0 02000 0 00706    00703 CLA +0 50000 0 00062
 00704 ADD +0 40000 0 00125    00705 STO +0 60100 0 00062    00706 CLA +0 50000 0 00062    00707 SUB +0 40200 0 00112
 00710 TZE +0 10000 0 00712    00711 TPL +0 12000 0 00732
                 LINE(13) = WK(WK+I)                                                073  LM00079
 00712 CLA +0 50000 0 00123    00713 ADD +0 40000 0 00062    00714 PAX +0 73400 2 00000    00715 CLA +0 50000 2 00123
 00716 STO +0 60100 0 00065
                 LINE(12) = WJ(WJ+I)                                                074  LM00080
 00717 CLA +0 50000 0 00122    00720 ADD +0 40000 0 00062    00721 PAX +0 73400 2 00000    00722 CLA +0 50000 2 00122
 00723 STO +0 60100 0 00066
                 BFWRIT.(N3,N4,LINE(13)...14,ERR)                                   075  LM00081
 00724 TSX +0 07400 4 00006    00725 TXH +3 00000 0 00107    00726 TXH +3 00000 0 00110    00727 TIX +2 00132 0 00065
 00730 TXH +3 00000 0 00023
      WW         C'E                                                                076  LM00082
 00731 TRA +0 02000 0 00703
                 BFCLOS.(N3,N4,ERR)                                                 077  LM00083
 00732 TSX +0 07400 4 00003    00733 TXH +3 00000 0 00107    00734 TXH +3 00000 0 00110    00735 TXH +3 00000 0 00023
                 PRMESS.(DERBC.(N),$ ENTRIES$,N3,N4)                                078  LM00084
 00736 TSX +0 07400 4 00012    00737 TXH +3 00000 0 00112    00740 STO +0 60100 0 00753    00741 TSX +0 07400 4 00020
 00742 TXH +3 00000 0 00753    00743 TXH +3 00000 0 00146    00744 TXH +3 00000 0 00142    00745 TXH +3 00000 0 00107
 00746 TXH +3 00000 0 00110
                 CHNCOM.(0)                                                         079  LM00085
 00747 TSX +0 07400 4 00007    00750 TXH +3 00000 0 00124
      ERR        DSKER.                                                             080  LM00086
 00751 TSX +0 07400 4 00013
                 V'S N1 = $M.F.D.$                                                  081  LM00088
 00105     -0 43326 3 32433
                 V'S N2 = $(FILE)$                                                  082  LM00089
 00106     -3 42631 4 32534
                 V'S N3 = $   MFD$                                                  083  LM00090
 00107     -2 06060 4 42624
                 V'S N4 = $ PUNCH$                                                  084  LM00091
 00110     -2 04764 4 52330
                 V'S LINE...LINE(13) = $$                                           085  LM00092
 00065     -2 06060 6 06060    00066     -2 06060 6 06060    00067     -2 06060 6 06060    00070     -2 06060 6 06060
 00071     -2 06060 6 06060    00072     -2 06060 6 06060    00073     -2 06060 6 06060    00074     -2 06060 6 06060
 00075     -2 06060 6 06060    00076     -2 06060 6 06060    00077     -2 06060 6 06060    00100     -2 06060 6 06060
 00101     -2 06060 6 06060    00102     -2 06060 6 06060
                 D'N V(2), BUF(7)                                                   086  LM00093
                 V'S C = 0                                                          087  LM00094
 00041     +0 00000 0 00000
                 V'S MZE = 4K11                                                     088  LM00095
 00104     -0 00000 0 00000
                 V'S GD = $M.F.D.$,$DRUMUT$,$DISKUT$,$DSKEDT$,$M1416$,$C0056$       089  LM00096
 00045     +2 30000 0 50660    00046     -0 40104 0 10660    00047     +2 46242 2 52463    00050     +2 43162 4 26463
 00051     +2 45164 4 46463    00052     -0 43326 3 32433
                 V'S GK = 47K10,46K10,45K10,44K10,43K10,42K10,41K10                 090  LM00097
 00053     -0 10000 0 00000    00054     -0 20000 0 00000    00055     -0 30000 0 00000    00056     -0 40000 0 00000
 00057     -0 50000 0 00000    00060     -0 60000 0 00000    00061     -0 70000 0 00000
                 V'S NGG = 6                                                        091  LM00098
 00111     +0 00000 0 00006
                 D'N B1(0),B2(0),B3(0),WK(0),WJ(0),LINE(13)                         092  LM00099
                 B'N SWAP                                                           093  LM00100
                 V'S P1 = 0                                                         094  LM00101
 00113     +0 00000 0 00000
                 V'S P2 = 0                                                         095  LM00102
 00114     +0 00000 0 00000
                 V'S I = 1                                                          096  LM00103
 00062     +0 00000 0 00001
                 E'M                                                                097  LM00104
 00752 TSX +0 07400 4 00014


 MOVER   BCD 09/20/68 0220.1    3014         00000
1     MAD PROGRAM LISTING ... ... ...                 FILE   MOVER   MAD            02/15/68    1543.0
-
                 ...MOVE CONTENTS OF ONE DIRECTORY TO ANOTHER.                                         LM00001
                                                                                                       LM00002
                 ...R MOVER FMPB FMPG TOPB TOPG -'(STOP)'- -'(CHGE)'-                                  LM00003
 TRUNCATED..
          R...(CHGE) ARGUMENT WILL MOVE PROTECTED FILES IF CAN BE CHFILE LM00004
                 ...(CHGE) ARGUMENT WILL MOVE PROTECTED FILES IF CAN BE CHFILE                         LM00004
                 ...(STOP) ARGUMENT WILL STOP DEAD IN FROM-DIRECTORY                                   LM00005
                                                                                                       LM00006
                  NORMAL MODE IS INTEGER                                                          *001 LM00007
                  DIMENSION A(20)                                                                 *002 LM00008
                  DIMENSION ME(2)                                                                 *003 LM00009
                  GCLS.(A,0)                                                                      *004 LM00010
                  A(1) = SPLFN.(A(1))                                                             *005 LM00011
                  A(3) = SPLFN.(A(3))                                                             *006 LM00012
                  FERRTN.(ERR)                                                                    *007 LM00013
                  ATTNAM.(ME(1)...2)                                                              *008 LM00014
                                                                                                       LM00015
                  ATTACH.(A(1),A(2))                                                              *009 LM00016
                  BFOPEN.($R$,UFD,FL,B1,-0,-0,ERR)                                                *010 LM00017
                  BFREAD.(UFD,FL,X(2)...3,ERR,-0,ERR)                                             *011 LM00018
                                                                                                       LM00019
      RD          BFREAD.(UFD,FL,X(6)...7,EOF,-0,ERR)                                             *012 LM00020
                  WHENEVER X(6).E.0.OR.X(5).E.0.OR.X(6).E.UFD,TRANSFER TORD                       *013 LM00021
                                                                                                       LM00022
                  MOVFIL.(X(6),X(5),A(3),A(4),SKID,CODE)                                          *014 LM00023
                  TRANSFER TO RD                                                                  *015 LM00024
                                                                                                       LM00025
      EOF         WHENEVER A(5).NE.$(STOP)$                                                       *016 LM00026
                       ATTACH.(ME(1),ME)                                                          *017 LM00027
                       CHNCOM.(0)                                                                 *018 LM00028
                  OTHERWISE                                                                       *019 LM00029
                       DEAD.                                                                      *020 LM00030
                  END OF CONDITIONAL                                                              *021 LM00031
                                                                                                       LM00032
      SKID        WHENEVER A(6) .E. $(CHGE)$ .AND. CODE .E. 5 .AND.                               *022 LM00033
                1      X(2).A.7K5 .NE. 0                                                          *022 LM00034
                       CHFILE.(X(6),X(5),0,-0,-0,CNT)                                             *023 LM00035
                       MOVFIL.(X(6),X(5),A(3),A(4),CNT,CODE)                                      *024 LM00036
                  OTHERWISE                                                                       *025 LM00037
      CNT              PRMESS.(X(6),X(5),WHY(CODE))                                               *026 LM00038
                  END OF CONDITIONAL                                                              *027 LM00039
                  TRANSFER TO RD                                                                  *028 LM00040
                                                                                                       LM00041
      ERR         PRMESS.($FILE$,$ERROR$)                                                         *029 LM00042
                  TRANSFER TO EOF                                                                 *030 LM00043
                                                                                                       LM00044
                  VECTOR VALUES UFD = $U.F.D.$                                                    *031 LM00045
                  VECTOR VALUES FL = $(FILE)$                                                     *032 LM00046
                  VECTOR VALUES WHY = $ 0$,$ 1$,$ PRIV$,$ FNF$,$ LINK$,                           *033 LM00047
                1   $ PROT$,$ THERE$,$ 7$,$ ACTIV$,$ NOUFD$                                       *033 LM00048
                  DIMENSION B(432)                                                                *034 LM00049
                  DIMENSION X(7)                                                                  *035 LM00050
                  EQUIVALENCE (B1,B(432))                                                         *036 LM00051
                                                                                                       LM00052
                  END OF PROGRAM                                                                  *037 LM00053
1MAD PROGRAM,TYPE NOV 1963      (ALL NUMBERS ARE OCTAL)
0TOTAL LOCATIONS   01173 TRANSFER VECTOR LENGTH  00016 PROGRAM BEGINS    00777
0VARIABLE STORAGE (A=ARRAY,C=COMMON,E=ERASABLE,DIGIT=MODE)
      A      00731 A 1        CNT    00700   4        ERR    00702   4        RD     00703   4        WHY    00751 A 1
      B1     00017   1        CODE   00732   1        FL     00733 A 1        SKID   00704   4        X      00761 A 1
      B      00677 A 1        EOF    00701   4        ME     00736 A 1        UFD    00737 A 1
0FUNCTION DICTIONARY
      ATTACH 00000   1        ATTNAM 00001   1        BFOPEN 00002   1        BFREAD 00003   1        CHFILE 00004   1
      CHNCOM 00005   1        DEAD   00006   1        EXIT   00007   1        FERRTN 00010   1        GCLS   00011   1
      .SETUP 00012   1        MOVFIL 00013   1        PRMESS 00014   1        SPLFN  00015   1
0ABSOLUTE CONSTANTS
 00772 +255151465160     00773 +263143256060     00775 -342330272534     00766 +000000000005     00770 +000000700000
 00776 -346263464734     00767 +000000000007     00765 +000000000003     00774 -116060606060     00764 +000000000002
 00762 +000000000000     00763 +000000000001     00771 +233000000000
0STATEMENT DICTIONARY
 00700 TXL -301161001151       00701 TXL -301103001100       00702 TXL -301165001162       00703 TXL -301056001045
 00704 TXL -301126001112
0PROGRAM
                 N'R                                                                001  LM00007
                 D'N A(20)                                                          002  LM00008
                 D'N ME(2)                                                          003  LM00009
                 GCLS.(A,0)                                                         004  LM00010
 00777 TSX +0 07400 4 00012    01000 TSX +0 07400 4 00011    01001 TXH +3 00000 0 00731    01002 TXH +3 00000 0 00762
                 A(1) = SPLFN.(A(1))                                                005  LM00011
 01003 TSX +0 07400 4 00015    01004 TXH +3 00000 0 00730    01005 STO +0 60100 0 00730
                 A(3) = SPLFN.(A(3))                                                006  LM00012
 01006 TSX +0 07400 4 00015    01007 TXH +3 00000 0 00726    01010 STO +0 60100 0 00726
                 FERRTN.(ERR)                                                       007  LM00013
 01011 TSX +0 07400 4 00010    01012 TXH +3 00000 0 00702
                 ATTNAM.(ME(1)...2)                                                 008  LM00014
 01013 TSX +0 07400 4 00001    01014 TIX +2 00764 0 00735
                 ATTACH.(A(1),A(2))                                                 009  LM00016
 01015 TSX +0 07400 4 00000    01016 TXH +3 00000 0 00730    01017 TXH +3 00000 0 00727
                 BFOPEN.($R$,UFD,FL,B1,-0,-0,ERR)                                   010  LM00017
 01020 CLS +0 50200 0 00762    01021 STO +0 60100 0 01167    01022 CLS +0 50200 0 00762    01023 STO +0 60100 0 01170
 01024 TSX +0 07400 4 00002    01025 TXH +3 00000 0 00774    01026 TXH +3 00000 0 00737    01027 TXH +3 00000 0 00733
 01030 TXH +3 00000 0 00017    01031 TXH +3 00000 0 01170    01032 TXH +3 00000 0 01167    01033 TXH +3 00000 0 00702
                 BFREAD.(UFD,FL,X(2)...3,ERR,-0,ERR)                                011  LM00018
 01034 CLS +0 50200 0 00762    01035 STO +0 60100 0 01170    01036 TSX +0 07400 4 00003    01037 TXH +3 00000 0 00737
 01040 TXH +3 00000 0 00733    01041 TIX +2 00765 0 00757    01042 TXH +3 00000 0 00702    01043 TXH +3 00000 0 01170
 01044 TXH +3 00000 0 00702
      RD         BFREAD.(UFD,FL,X(6)...7,EOF,-0,ERR)                                012  LM00020
 01045 CLS +0 50200 0 00762    01046 STO +0 60100 0 01170    01047 TSX +0 07400 4 00003    01050 TXH +3 00000 0 00737
 01051 TXH +3 00000 0 00733    01052 TIX +2 00767 0 00753    01053 TXH +3 00000 0 00701    01054 TXH +3 00000 0 01170
 01055 TXH +3 00000 0 00702
                 W'R X(6).E.0.OR.X(5).E.0.OR.X(6).E.UFD,T'ORD                       013  LM00021
 01056 CLA +0 50000 0 00753    01057 SUB +0 40200 0 00737    01060 TZE +0 10000 0 01067    01061 CLA +0 50000 0 00754
 01062 SUB +0 40200 0 00762    01063 TZE +0 10000 0 01067    01064 CLA +0 50000 0 00753    01065 SUB +0 40200 0 00762
 01066 TNZ -0 10000 0 01070    01067 TRA +0 02000 0 00703
                 MOVFIL.(X(6),X(5),A(3),A(4),SKID,CODE)                             014  LM00023
 01070 TSX +0 07400 4 00013    01071 TXH +3 00000 0 00753    01072 TXH +3 00000 0 00754    01073 TXH +3 00000 0 00726
 01074 TXH +3 00000 0 00725    01075 TXH +3 00000 0 00704    01076 TXH +3 00000 0 00732
                 T'O RD                                                             015  LM00024
 01077 TRA +0 02000 0 00703
      EOF        W'R A(5).NE.$(STOP)$                                               016  LM00026
 01100 CLA +0 50000 0 00724    01101 SUB +0 40200 0 00776    01102 TZE +0 10000 0 01111
                      ATTACH.(ME(1),ME)                                             017  LM00027
 01103 TSX +0 07400 4 00000    01104 TXH +3 00000 0 00735    01105 TXH +3 00000 0 00736
                      CHNCOM.(0)                                                    018  LM00028
 01106 TSX +0 07400 4 00005    01107 TXH +3 00000 0 00762
                 O'E                                                                019  LM00029
 01110 TRA +0 02000 0 01112
                      DEAD.                                                         020  LM00030
 01111 TSX +0 07400 4 00006
                 E'L                                                                021  LM00031
      SKID       W'R A(6) .E. $(CHGE)$ .AND. CODE .E. 5 .AND.                       022  LM00033
                1     X(2).A.7K5 .NE. 0                                             022  LM00034
 01112 CAL -0 50000 0 00757    01113 ANA -0 32000 0 00770    01114 SLW +0 60200 0 01170    01115 CLA +0 50000 0 01170
 01116 SUB +0 40200 0 00762    01117 TZE +0 10000 0 01151    01120 CLA +0 50000 0 00732    01121 SUB +0 40200 0 00766
 01122 TNZ -0 10000 0 01151    01123 CLA +0 50000 0 00723    01124 SUB +0 40200 0 00775    01125 TNZ -0 10000 0 01151
                      CHFILE.(X(6),X(5),0,-0,-0,CNT)                                023  LM00035
 01126 CLS +0 50200 0 00762    01127 STO +0 60100 0 01170    01130 CLS +0 50200 0 00762    01131 STO +0 60100 0 01167
 01132 TSX +0 07400 4 00004    01133 TXH +3 00000 0 00753    01134 TXH +3 00000 0 00754    01135 TXH +3 00000 0 00762
 01136 TXH +3 00000 0 01167    01137 TXH +3 00000 0 01170    01140 TXH +3 00000 0 00700
                      MOVFIL.(X(6),X(5),A(3),A(4),CNT,CODE)                         024  LM00036
 01141 TSX +0 07400 4 00013    01142 TXH +3 00000 0 00753    01143 TXH +3 00000 0 00754    01144 TXH +3 00000 0 00726
 01145 TXH +3 00000 0 00725    01146 TXH +3 00000 0 00700    01147 TXH +3 00000 0 00732
                 O'E                                                                025  LM00037
 01150 TRA +0 02000 0 01161
      CNT             PRMESS.(X(6),X(5),WHY(CODE))                                  026  LM00038
 01151 CLA +0 50000 0 00732    01152 SUB +0 40200 0 01153    01153 TXH +3 00000 0 00751    01154 STA +0 62100 0 01160
 01155 TSX +0 07400 4 00014    01156 TXH +3 00000 0 00753    01157 TXH +3 00000 0 00754    01160 TXH +3 00000 0 00000
                 E'L                                                                027  LM00039
                 T'O RD                                                             028  LM00040
 01161 TRA +0 02000 0 00703
      ERR        PRMESS.($FILE$,$ERROR$)                                            029  LM00042
 01162 TSX +0 07400 4 00014    01163 TXH +3 00000 0 00773    01164 TXH +3 00000 0 00772
                 T'O EOF                                                            030  LM00043
 01165 TRA +0 02000 0 00701
                 V'S UFD = $U.F.D.$                                                 031  LM00045
 00737     -2 43326 3 32433
                 V'S FL = $(FILE)$                                                  032  LM00046
 00733     -3 42631 4 32534
                 V'S WHY = $ 0$,$ 1$,$ PRIV$,$ FNF$,$ LINK$,                        033  LM00047
                1  $ PROT$,$ THERE$,$ 7$,$ ACTIV$,$ NOUFD$                          033  LM00048
 00740     -2 04546 6 42624    00741     -2 02123 6 33165    00742     -2 00760 6 06060    00743     -2 06330 2 55125
 00744     -2 04751 4 66360    00745     -2 04331 4 54260    00746     -2 02645 2 66060    00747     -2 04751 3 16560
 00750     -2 00160 6 06060    00751     -2 00060 6 06060
                 D'N B(432)                                                         034  LM00049
                 D'N X(7)                                                           035  LM00050
                 E'E (B1,B(432))                                                    036  LM00051
                 E'M                                                                037  LM00053
 01166 TSX +0 07400 4 00007


  MSCD   BCD 02/09/69 0651.2   15240         00000
