


 7READ   BCD 09/20/68 0218.4    6531         00000
1            7PUNCH/7READ - CREATE AND INTERPRET 7PUNCH CARD IMAGES.                             PAGE 1

                                             7/20/66 - NOEL I. MORRIS

                                     UNLIST
 M                            CALL   MACRO   SUBR,LIST


        TRANSFER VECTOR
      00000  222646472545     BFOPEN
      00001  246242255160     DSKER
      00002  222651252124     BFREAD
      00003  222666513163     BFWRIT
      00004  222623434662     BFCLOS
      00005  462321222360     OCABC

                       00034  CRDLTH EQU     28
                       00030  CLTH   EQU     CRDLTH-4
1            7PUNCH/7READ - CREATE AND INTERPRET 7PUNCH CARD IMAGES.                             PAGE 2
                           PICK UP AND INTERPRET PARAMETERS.

      00006                          CALL    SETBRK(CHN)   SET A BREAK LEVEL
      00006  0074 00 4 00422         TSX     SETBRK,4                                                         .002
      00007  3 00000 0 00324         PAR     CHN                                                              .004

      00010                          CALL    GETCLS((CARD,,0)) PICK UP COMMAND BUFFER
      00010  0074 00 4 00423         TSX     GETCLS,4                                                         .002
      00011  3 00000 0 00366         PAR     CARD,,0                                                          .004

      00012 -0500 00 0 00366         CAL     CARD          PICK UP NAME OF COMMAND
      00013 -0340 00 0 00505         LAS     =H 7READ      CHECK FOR 7PUNCH READ
      00014  0020 00 0 00016         TRA     *+2           ..
      00015  0020 00 0 00023         TRA     NAM.OK        NAME IS OK
      00016 -0340 00 0 00476         LAS     =H7PUNCH      CHECK FOR 7PUNCH WRITE
      00017  0020 00 0 00350         TRA     NAMERR        NEITHER, NAME IS IN ERROR
      00020  0020 00 0 00022         TRA     *+2           ..
      00021  0020 00 0 00350         TRA     NAMERR        ..
      00022 -0625 00 0 00362         STL     PUNSW.        SET PUNCH INDIC.

                       00023  NAM.OK SYN     *
      00023 -0500 00 0 00367         CAL     CARD+1        GET FIRST PARAMETER
      00024  0602 00 0 00353         SLW     I1            ..
      00025  0602 00 0 00355         SLW     O1            ..
      00026  0322 00 0 00037         ERA     FENCE         CHECK FOR NONE
      00027  0100 00 0 00326         TZE     NOPAR         ERROR IF NO PARAMETER

      00030 -0500 00 0 00370         CAL     CARD+2        GET SECOND PARAMETER
      00031  0602 00 0 00354         SLW     I2            ..
      00032  0602 00 0 00356         SLW     O2            ..
      00033  0322 00 0 00037         ERA     FENCE         ..
      00034  0100 00 0 00326         TZE     NOPAR         ..

      00035 -0500 00 0 00371         CAL     CARD+3        GET THIRD PARAMETER
      00036 -0340 00 0 00037         LAS     FENCE         CHECK FOR NONE
      00037  777777777777     FENCE  VFD     O36//         ..
      00040  0020 00 0 00326         TRA     NOPAR         FENCE NOT PERMITTED HERE, EITHER
      00041 -0340 00 0 00047         LAS     STAR          CHECK FOR ASTERISK
      00042  0020 00 0 00044         TRA     *+2           ..
      00043  0020 00 0 00045         TRA     *+2           ..
      00044  0602 00 0 00355         SLW     O1            IF STAR, FIRST NAMES ARE THE SAME

      00045 -0500 00 0 00372         CAL     CARD+4        GET LAST PARAMETER
      00046 -0340 00 0 00037         LAS     FENCE         ..
      00047  606060606054     STAR   BCI     1,     *      ..
      00050  0020 00 0 00052         TRA     *+2           ..
      00051  0602 00 0 00356         SLW     O2            IF NO 4TH, SECOND NAMES ARE THE SAME
1            7PUNCH/7READ - CREATE AND INTERPRET 7PUNCH CARD IMAGES.                             PAGE 3
                           ASSIGN BUFFERS AND OPEN FILES.

      00052                          CALL    GETMEM        GET CURRENT MEMBND
      00052  0074 00 4 00424         TSX     GETMEM,4                                                         .002
      00053                          EXTEND  (OPR+4,OPR+5,OPW+4,OPW+5,OPW+6) ASSIGN BUFFERS
      00053  0621 00 0 00072         STA     OPR+4                                                            .003
      00054  0361 00 0 00474         ACL     =432                                                             .002
      00055  0621 00 0 00073         STA     OPR+5                                                            .003
      00056  0361 00 0 00474         ACL     =432                                                             .002
      00057  0621 00 0 00102         STA     OPW+4                                                            .003
      00060  0361 00 0 00474         ACL     =432                                                             .002
      00061  0621 00 0 00103         STA     OPW+5                                                            .003
      00062  0361 00 0 00474         ACL     =432                                                             .002
      00063  0621 00 0 00104         STA     OPW+6                                                            .003
      00064  0361 00 0 00474         ACL     =432                                                             .002
      00065  0074 00 4 00425         TSX     SETMEM,4                                                         .003


      00066                   OPR    BFOPEN  R,I1,I2,$DSKER OPEN INPUT FILE
      00066  0074 00 4 00000         TSX     $BFOPEN,4                                                        .003
      00067  3 00000 0 00504         PAR     =HR                                                              .005
      00070  3 00000 0 00353         PAR     I1                                                               .005
      00071  3 00000 0 00354         PAR     I2                                                               .005
      00072  3 00000 0 00503         PAR     =-0                                                              .005
      00073  3 00000 0 00503         PAR     =-0                                                              .005
      00074  3 00000 0 00503         PAR     =-0                                                              .005
      00075  3 00000 0 00001         PAR     $DSKER                                                           .005

      00076                   OPW    BFOPEN  W,O1,O2,$DSKER AND OUTPUT FILE
      00076  0074 00 4 00000         TSX     $BFOPEN,4                                                        .003
      00077  3 00000 0 00512         PAR     =HW                                                              .005
      00100  3 00000 0 00355         PAR     O1                                                               .005
      00101  3 00000 0 00356         PAR     O2                                                               .005
      00102  3 00000 0 00503         PAR     =-0                                                              .005
      00103  3 00000 0 00503         PAR     =-0                                                              .005
      00104  3 00000 0 00503         PAR     =-0                                                              .005
      00105  3 00000 0 00001         PAR     $DSKER                                                           .005

      00106                          CALL    TRFILE(O1,O2,=0,$DSKER) TRUNCATE OUTPUT
      00106  0074 00 4 00426         TSX     TRFILE,4                                                         .002
      00107  3 00000 0 00355         PAR     O1                                                               .004
      00110  3 00000 0 00356         PAR     O2                                                               .004
      00111  3 00000 0 00471         PAR     =0                                                               .004
      00112  3 00000 0 00001         PAR     $DSKER                                                           .004

      00113 -0520 00 0 00362         NZT     PUNSW.        CHECK FOR 7PUNCH WRITE
      00114  0020 00 0 00240         TRA     7READ         OTHERWISE, READ 7PUNCH
1            7PUNCH/7READ - CREATE AND INTERPRET 7PUNCH CARD IMAGES.                             PAGE 4
                           7PUNCH - CREATE 7PUNCH CARD IMAGES.

      00115                          CALL    $BFREAD(I1,I2(WORD,,1)U.EOF,EOFCT,$DSKER) READ FIRST WORD
      00115  0074 00 4 00002         TSX     $BFREAD,4                                                        .002
      00116  3 00000 0 00353         PAR     I1                                                               .004
      00117  3 00000 0 00354         PAR     I2                                                               .004
      00120  3 00001 0 00365         PAR     WORD,,1                                                          .004
      00121  3 00000 0 00331         PAR     U.EOF                                                            .004
      00122  3 00000 0 00363         PAR     EOFCT                                                            .004
      00123  3 00000 0 00001         PAR     $DSKER                                                           .004

      00124  0774 00 4 00030  NEXT   AXT     CLTH,4        ZERO OUT THE CARD
      00125  0600 00 4 00416         STZ     CARD+CLTH,4   ..
      00126  2 00001 4 00125         TIX     *-1,4,1       ..

      00127                          CALL    $BFREAD(I1,I2(CARD+3,,CLTH-2)EOF1,EOFCT,$DSKER)
      00127  0074 00 4 00002         TSX     $BFREAD,4                                                        .002
      00130  3 00000 0 00353         PAR     I1                                                               .004
      00131  3 00000 0 00354         PAR     I2                                                               .004
      00132  3 00026 0 00371         PAR     CARD+3,,CLTH-2                                                   .004
      00133  3 00000 0 00200         PAR     EOF1                                                             .004
      00134  3 00000 0 00363         PAR     EOFCT                                                            .004
      00135  3 00000 0 00001         PAR     $DSKER                                                           .004

      00136 -0500 00 0 00365         CAL     WORD          INSERT FIRST WORD FROM PREVIOUS READ
      00137  0602 00 0 00370         SLW     CARD+2        ..
      00140 -0500 00 0 00416         CAL     CARD+CLTH     SAVE EXTRA WORD
      00141  0602 00 0 00365         SLW     WORD          ..
      00142  0600 00 0 00416         STZ     CARD+CLTH     AND CLEAR IT

      00143  0774 00 4 00026         AXT     CLTH-2,4      COMPARE ALL WORDS
      00144 -0340 00 4 00416  LAS    LAS     CARD+CLTH,4   ..
      00145  0020 00 0 00147         TRA     *+2           ..
      00146  0020 00 0 00152         TRA     SAME          ..

      00147                          CALL    WRITE(COUNT)  WORDS ARE DIFFERENT, WRITE OUT CARD
      00147  0074 00 4 00207         TSX     WRITE,4                                                          .002
      00150  3 00000 0 00364         PAR     COUNT                                                            .004
      00151  0020 00 0 00124         TRA     NEXT          AND CONTINUE


      00152  2 00001 4 00144  SAME   TIX     LAS,4,1       IF WORDS ARE ALL THE SAME,

      00153  0774 00 4 00025         AXT     CLTH-3,4      CLEAR ALL BUT FIRST WORD
      00154  0600 00 4 00416         STZ     CARD+CLTH,4   ..
      00155  2 00001 4 00154         TIX     *-1,4,1       ..

      00156  0774 00 1 00027         AXT     CLTH-1,1      KEEP COUNT OF IDENTICAL WORDS IN XR1

      00157                   RDLP   CALL    $BFREAD(I1,I2(WORD,,1)EOF2,EOFCT,$DSKER) READ NEXT WORD
      00157  0074 00 4 00002         TSX     $BFREAD,4                                                        .002
      00160  3 00000 0 00353         PAR     I1                                                               .004
      00161  3 00000 0 00354         PAR     I2                                                               .004
      00162  3 00001 0 00365         PAR     WORD,,1                                                          .004
      00163  3 00000 0 00176         PAR     EOF2                                                             .004
      00164  3 00000 0 00363         PAR     EOFCT                                                            .004
      00165  3 00000 0 00001         PAR     $DSKER                                                           .004
1            7PUNCH/7READ - CREATE AND INTERPRET 7PUNCH CARD IMAGES.                             PAGE 5
                           7PUNCH - CREATE 7PUNCH CARD IMAGES.

      00166 -0500 00 0 00365         CAL     WORD          PICK UP THE WORD
      00167  0322 00 0 00370         ERA     CARD+2        AND COMPARE
      00170 -0100 00 0 00172         TNZ     DIFF          ..
      00171  1 00001 1 00157         TXI     RDLP,1,1      IF WORD IS THE SAME, KEEP READING


      00172  0634 00 1 00363  DIFF   SXA     EOFCT,1       SAVE REPETITION COUNT

      00173                          CALL    WRITE(EOFCT)  WRITE OUT THE CARD
      00173  0074 00 4 00207         TSX     WRITE,4                                                          .002
      00174  3 00000 0 00363         PAR     EOFCT                                                            .004

      00175  0020 00 0 00124         TRA     NEXT          AND CONTINUE


      00176  0634 00 1 00363  EOF2   SXA     EOFCT,1       SAVE REPETITION COUNT
      00177  0020 00 0 00203         TRA     CMEOF         AND GO TO COMMON EOF SECTION

      00200 -0500 00 0 00363  EOF1   CAL     EOFCT         ADD ONE TO EOF COUNT
      00201  0361 00 0 00472         ACL     =1            TO INCLUDE WORD PREVIOUSLY READ
      00202  0602 00 0 00363         SLW     EOFCT         ..

      00203 -0625 00 0 00361  CMEOF  STL     LAST.         SET LAST CARD INDIC.
      00204                          CALL    WRITE(EOFCT)  AND WRITE OUT LAST CARD
      00204  0074 00 4 00207         TSX     WRITE,4                                                          .002
      00205  3 00000 0 00363         PAR     EOFCT                                                            .004

      00206  0020 00 0 00320         TRA     CMEXIT        GO CLOSE FILES AND EXIT
1            7PUNCH/7READ - CREATE AND INTERPRET 7PUNCH CARD IMAGES.                             PAGE 6
                           WRITE - WRITE OUT A 7PUNCH CARD.

      00207  0634 00 4 00236  WRITE  SXA     WRX4,4        SAVE XR4

      00210 -0500 60 4 00001         CAL*    1,4           PICK UP WORD COUNT
      00211 -0765 00 0 00006         LGR     6             LOW ORDER 6 BITS INTO MQ
      00212  0767 00 0 00003         ALS     3             LEAVE GAP FOR 7-9 PUNCH
      00213 -0501 00 0 00473         ORA     =O5           AND INSERT IT
      00214 -0763 00 0 00006         LGL     6             SHIFT FIRST 6 BITS BACK IN
      00215  0767 00 0 00022         ALS     18            AND SHIFT TO DECREMENT

      00216  0534 00 4 00360         LXA     SEQNO.,4      PICK UP SEQUENCE NO.
      00217  1 00001 4 00220         TXI     *+1,4,1       AND CALCULATE NEXT NUMBER
      00220  0634 00 4 00360         SXA     SEQNO.,4      ..
      00221 -0501 00 0 00360         ORA     SEQNO.        'OR' IN THE SEQ. NO. AND PREFIX
      00222  0520 00 0 00361         ZET     LAST.         CHECK FOR LAST CARD
      00223 -0501 00 0 00357         ORA     1TAG          IF LAST CARD, MAKE TAG NON-ZERO
      00224  0602 00 0 00366         SLW     CARD          AND STORE INTO FIRST WORD OF CARD

      00225  0774 00 4 00026         AXT     CLTH-2,4      NOW COMPUTE THE CHECKSUM
      00226  0361 00 4 00416         ACL     CARD+CLTH,4   ..
      00227  2 00001 4 00226         TIX     *-1,4,1       ..
      00230  0602 00 0 00367         SLW     CARD+1        AND STORE IN CARD

      00231                          CALL    $BFWRIT(O1,O2(CARD,,CRDLTH)$DSKER) WRITE OUT CARD
      00231  0074 00 4 00003         TSX     $BFWRIT,4                                                        .002
      00232  3 00000 0 00355         PAR     O1                                                               .004
      00233  3 00000 0 00356         PAR     O2                                                               .004
      00234  3 00034 0 00366         PAR     CARD,,CRDLTH                                                     .004
      00235  3 00000 0 00001         PAR     $DSKER                                                           .004

      00236  0774 00 4 00000  WRX4   AXT     **,4          RESTORE XR4
      00237  0020 00 4 00002         TRA     2,4           AND RETURN
1            7PUNCH/7READ - CREATE AND INTERPRET 7PUNCH CARD IMAGES.                             PAGE 7
                           7READ - READ AND INTERPRET 7PUNCH CARD IMAGES.

      00240                   7READ  CALL    $BFREAD(I1,I2(CARD,,28)U.EOF,EOFCT,$DSKER) READ A CARD
      00240  0074 00 4 00002         TSX     $BFREAD,4                                                        .002
      00241  3 00000 0 00353         PAR     I1                                                               .004
      00242  3 00000 0 00354         PAR     I2                                                               .004
      00243  3 00034 0 00366         PAR     CARD,,28                                                         .004
      00244  3 00000 0 00331         PAR     U.EOF                                                            .004
      00245  3 00000 0 00363         PAR     EOFCT                                                            .004
      00246  3 00000 0 00001         PAR     $DSKER                                                           .004

      00247 -0500 00 0 00366         CAL     CARD          GET FIRST WORD
      00250 -0765 00 0 00030         LGR     24            ASSEMBLE WORD-COUNT
      00251  0771 00 0 00003         ARS     3             ..
      00252 -0763 00 0 00006         LGL     6             ..
      00253 -0320 00 0 00475         ANA     =O7777        ..
      00254  0734 00 1 00000         PAX     ,1            WORDCT IN XR1
      00255 -3 00000 1 00240         TXL     7READ,1,0     IGNORE ZERO WDCT

      00256  0534 00 4 00360         LXA     SEQNO.,4      PICK UP SEQUENCE NUMBER
      00257  1 00001 4 00260         TXI     *+1,4,1       AND CALCULATE NEXT NUMBER
      00260  0634 00 4 00360         SXA     SEQNO.,4      ..

      00261 -0500 00 0 00366         CAL     CARD          GET FIRST WORD AGAIN
      00262  0322 00 0 00360         ERA     SEQNO.        COMPARE AGAINST SEQUENCE NUMBER
      00263 -0320 00 0 00513         ANA     =O700000077777 ..
      00264 -0100 00 0 00334         TNZ     SEQERR        SEQUENCE/VALIDITY ERROR IF NON-ZERO

      00265 -0500 00 0 00366  SAVSEQ CAL     CARD          GET FIRST WORD AGAIN
      00266  0621 00 0 00360         STA     SEQNO.        SAVE SEQUENCE NO. FOR NEXT TEST
      00267  0625 00 0 00357         STT     1TAG          AND TAG FOR LAST CARD CHECK

      00270  0774 00 4 00026         AXT     CLTH-2,4      ADD UP CKSM
      00271 -0500 00 0 00366         CAL     CARD          ..
      00272  0361 00 4 00416         ACL     CARD+CLTH,4   ..
      00273  2 00001 4 00272         TIX     *-1,4,1       ..

      00274 -0340 00 0 00367         LAS     CARD+1        COMPARE WITH CHECKSUM
      00275 -0520 00 0 00367         NZT     CARD+1        IGNORE ZERO CHECKSUM
      00276  0020 00 0 00300         TRA     *+2           ..
      00277  0020 00 0 00342         TRA     CHKERR        OOPS

      00300  3 00026 1 00310  CKRPT  TXH     RPEAT,1,CLTH-2 IF WDCT LARGER THAN 1 CARD
      00301 -0634 00 1 00305         SXD     WR+3,1        STORE FOR WRITE

      00302                   WR     CALL    $BFWRIT(O1,O2(CARD+2,,**)$DSKER) WRITE IT OUT
      00302  0074 00 4 00003         TSX     $BFWRIT,4                                                        .002
      00303  3 00000 0 00355         PAR     O1                                                               .004
      00304  3 00000 0 00356         PAR     O2                                                               .004
      00305  3 00000 0 00370         PAR     CARD+2,,**                                                       .004
      00306  3 00000 0 00001         PAR     $DSKER                                                           .004
      00307  0020 00 0 00316         TRA     CHKEOF        CHECK FOR EOF

      00310                   RPEAT  CALL    $BFWRIT(O1,O2(CARD+2,,1)$DSKER) REPEAT SAME WORD
      00310  0074 00 4 00003         TSX     $BFWRIT,4                                                        .002
      00311  3 00000 0 00355         PAR     O1                                                               .004
      00312  3 00000 0 00356         PAR     O2                                                               .004
1            7PUNCH/7READ - CREATE AND INTERPRET 7PUNCH CARD IMAGES.                             PAGE 8
                           7READ - READ AND INTERPRET 7PUNCH CARD IMAGES.

      00313  3 00001 0 00370         PAR     CARD+2,,1                                                        .004
      00314  3 00000 0 00001         PAR     $DSKER                                                           .004
      00315  2 00001 1 00310         TIX     RPEAT,1,1     ..

      00316 -0520 00 0 00357  CHKEOF NZT     1TAG          IF TAG NON-ZERO
      00317  0020 00 0 00240         TRA     7READ         ..
1            7PUNCH/7READ - CREATE AND INTERPRET 7PUNCH CARD IMAGES.                             PAGE 9
                           COMMON EXIT SECTION.

      00320                   CMEXIT CALL    $BFCLOS(=HALL,=-0,$DSKER) CLOSE ALL FILES
      00320  0074 00 4 00004         TSX     $BFCLOS,4                                                        .002
      00321  3 00000 0 00477         PAR     =HALL                                                            .004
      00322  3 00000 0 00503         PAR     =-0                                                              .004
      00323  3 00000 0 00001         PAR     $DSKER                                                           .004

      00324                   CHN    CALL    CHNCOM(0)     EXIT TO CHNCOM
      00324  0074 00 4 00427         TSX     CHNCOM,4                                                         .002
      00325  3 00000 0 00000         PAR     0                                                                .004
1            7PUNCH/7READ - CREATE AND INTERPRET 7PUNCH CARD IMAGES.                             PAGE 10
                           ERROR SECTION.

      00326                   NOPAR  COMENT  C1,5( INCOMPLETE SET OF PARAMETERS.)
      00326  0074 00 4 00430         TSX     WRFLX,4                                                          .003
      00327  3 00005 0 00431         PAR     C1,,5                                                            .005
      00330  0021 00 0 00324         XIT     CHN           ..


      00331                    U.EOF COMENT  C2,9(UNEXPECTED END-OF-FILE ENCOUNTERED READING INPUT.)
      00331  0074 00 4 00430         TSX     WRFLX,4                                                          .003
      00332  3 00011 0 00436         PAR     C2,,9                                                            .005
      00333  0021 00 0 00324         XIT     CHN           ..


      00334                   SEQERR CALL    $OCABC(SEQNO.) CONVERT SEQ. NO. TO BCD
      00334  0074 00 4 00005         TSX     $OCABC,4                                                         .002
      00335  3 00000 0 00360         PAR     SEQNO.                                                           .004
      00336  0601 00 0 00457         STO     C3+8          AND STORE IN MESSAGE

      00337                          COMENT  C3,9( 7PUNCH SEQUENCE/VALIDITY ERROR AFTER CARD NO.)
      00337  0074 00 4 00430         TSX     WRFLX,4                                                          .003
      00340  3 00011 0 00447         PAR     C3,,9                                                            .005
      00341  0021 00 0 00265         XIT     SAVSEQ        CONTINUE PROCESSING CARDS


      00342                   CHKERR CALL    $OCABC(SEQNO.) CONVERT SEQ. NO. TO BCD
      00342  0074 00 4 00005         TSX     $OCABC,4                                                         .002
      00343  3 00000 0 00360         PAR     SEQNO.                                                           .004
      00344  0601 00 0 00464         STO     C4+4          ..

      00345                          COMENT  C4,5( CHECKSUM ERROR ON CARD)
      00345  0074 00 4 00430         TSX     WRFLX,4                                                          .003
      00346  3 00005 0 00460         PAR     C4,,5                                                            .005
      00347  0021 00 0 00300         XIT     CKRPT         KEEP GOING


      00350                   NAMERR COMENT  C5,4( ILLEGAL COMMAND NAME.)
      00350  0074 00 4 00430         TSX     WRFLX,4                                                          .003
      00351  3 00004 0 00465         PAR     C5,,4                                                            .005
      00352  0021 00 0 00324         XIT     CHN           ..
1            7PUNCH/7READ - CREATE AND INTERPRET 7PUNCH CARD IMAGES.                             PAGE 11
                           STORAGE AND CONSTANTS.

      00353  0 00000 0 00000  I1     PZE
      00354  0 00000 0 00000  I2     PZE
      00355  0 00000 0 00000  O1     PZE
      00356  0 00000 0 00000  O2     PZE

      00357  0 00000 1 00000  1TAG   PZE     ,1
      00360 -3 00000 0 77777  SEQNO. SVN     -1
      00361  0 00000 0 00000  LAST.  PZE     0
      00362  0 00000 0 00000  PUNSW. PZE     0
      00363  0 00000 0 00000  EOFCT  PZE
      00364  0 00000 0 00026  COUNT  PZE     CLTH-2

      00365  0 00000 0 00000  WORD   PZE
      00366                   CARD   BSS     CRDLTH


      00422                          RMT     *             REMOTE SEQUENCES
      00422  0101 00 0 00506  SETBRK TIA     =HSETBRK                                                         .002
      00423  0101 00 0 00501  GETCLS TIA     =HGETCLS                                                         .002
      00424  0101 00 0 00502  GETMEM TIA     =HGETMEM                                                         .002
      00425  0101 00 0 00507  SETMEM TIA     =HSETMEM                                                         .002
      00426  0101 00 0 00510  TRFILE TIA     =HTRFILE                                                         .002
      00427  0101 00 0 00500  CHNCOM TIA     =HCHNCOM                                                         .002
      00430  0101 00 0 00511  WRFLX  TIA     =HWRFLX                                                          .002
      00431  603145234644     C1     BCI     5, INCOMPLETE SET OF PARAMETERS.                                 .002
      00432  474325632560
      00433  622563604626
      00434  604721512144
      00435  256325516233
      00436  644525674725     C2     BCI     9,UNEXPECTED END-OF-FILE ENCOUNTERED READING INPUT.              .002
      00437  236325246025
      00440  452440462640
      00441  263143256025
      00442  452346644563
      00443  255125246051
      00444  252124314527
      00445  603145476463
      00446  336060606060
      00447  600747644523     C3     BCI     9, 7PUNCH SEQUENCE/VALIDITY ERROR AFTER CARD NO.                 .002
      00450  306062255064
      00451  254523256165
      00452  214331243163
      00453  706025515146
      00454  516021266325
      00455  516023215124
      00456  604546336060
      00457  606060606060
      00460  602330252342     C4     BCI     5, CHECKSUM ERROR ON CARD                                        .002
      00461  626444602551
      00462  514651604645
      00463  602321512460
      00464  606060606060
      00465  603143432527     C5     BCI     4, ILLEGAL COMMAND NAME.                                         .002
      00466  214360234644
      00467  442145246045
1            7PUNCH/7READ - CREATE AND INTERPRET 7PUNCH CARD IMAGES.                             PAGE 12
                           STORAGE AND CONSTANTS.

      00470  214425336060


                                     END

        LITERALS
      00471  000000000000
      00472  000000000001
      00473  000000000005
      00474  000000000660
      00475  000000007777
      00476  074764452330
      00477  214343606060
      00500  233045234644
      00501  272563234362
      00502  272563442544
      00503  400000000000
      00504  516060606060
      00505  600751252124
      00506  622563225142
      00507  622563442544
      00510  635126314325
      00511  665126436760
      00512  666060606060
      00513  700000077777
1            7PUNCH/7READ - CREATE AND INTERPRET 7PUNCH CARD IMAGES.                             PAGE 1
                        POST PROCESSOR ASSEMBLY DATA

        514 IS THE FIRST LOCATION NOT USED BY THIS PROGRAM

0REFERENCES TO DEFINED SYMBOLS
        431     C1   327
        436     C2   332
        447     C3   336,  340
        460     C4   344,  346
        465     C5   351
        353     I1    24,   70,  116,  130,  160,  241
        354     I2    31,   71,  117,  131,  161,  242
        355     O1    25,   44,  100,  107,  232,  303,  311
        356     O2    32,   51,  101,  110,  233,  304,  312
        302     WR   301
        324    CHN     7,  330,  333,  352
        144    LAS   152
         66    OPR    53,   55
         76    OPW    57,   61,   63
        357   1TAG   223,  267,  316
        366   CARD    11,   12,   23,   30,   35,   45,  125,  132,  137,  140,  142,  144,  154,  167,  224,  226,  230
                     234,  243,  247,  261,  265,  271,  272,  274,  275,  305,  313
         30   CLTH     6,  124,  125,  132,  140,  142,  143,  144,  153,  154,  156,  225,  226,  270,  272,  300,  364
        172   DIFF   170
        200   EOF1   133
        176   EOF2   163
        124   NEXT   151,  175
        157   RDLP   171
        152   SAME   146
         47   STAR    41
        365   WORD   120,  136,  141,  162,  166
        236   WRX4   207
        240  7READ   114,  255,  317
        300  CKRPT   347
        203  CMEOF   177
        364  COUNT   150
          1  DSKER    75,  105,  112,  123,  135,  165,  235,  246,  306,  314,  323
        363  EOFCT   122,  134,  164,  172,  174,  176,  200,  202,  205,  245
         37  FENCE    26,   33,   36,   46
        361  LAST.   203,  222
        326  NOPAR    27,   34,   40
          5  OCABC   334,  342
        310  RPEAT   300,  315
        331  U.EOF   121,  244
        430  WRFLX   326,  331,  337,  345,  350
        207  WRITE   147,  173,  204
          4 BFCLOS   320
          0 BFOPEN    66,   76
          2 BFREAD   115,  127,  157,  240
          3 BFWRIT   231,  302,  310
        316 CHKEOF   307
        342 CHKERR   277
        427 CHNCOM   324
        320 CMEXIT   206
         34 CRDLTH     6,  234,  366
        423 GETCLS    10
1            7PUNCH/7READ - CREATE AND INTERPRET 7PUNCH CARD IMAGES.                             PAGE 2
                        POST PROCESSOR ASSEMBLY DATA

        424 GETMEM    52
        350 NAMERR    17,   21
         23 NAM.OK    15,   23
        362 PUNSW.    22,  113
        265 SAVSEQ   341
        334 SEQERR   264
        360 SEQNO.   216,  220,  221,  256,  260,  262,  266,  335,  343
        422 SETBRK     6
        425 SETMEM    65
        426 TRFILE   106

0 NO ERROR IN ABOVE ASSEMBLY.
1            DISK ERROR SUBROUTINE - CALLS PRNTER VIA NEXCOM.                                    PAGE 1

                                             REVISED 9/14/65 - NOEL I. MORRIS

                                     UNLIST
 M                            CALL   MACRO   SUBR,LIST


                       00000         ENTRY   DSKER

      00000 -0500 00 0 00006  DSKER  CAL     =HPRNTER
      00001  0560 00 0 00004         LDQ     =O-71
      00002                          CALL    NEXCOM
      00002  0074 00 4 00003         TSX     NEXCOM,4                                                         .002

      00003                          RMT     *             REMOTE SEQUENCES
      00003  0101 00 0 00005  NEXCOM TIA     =HNEXCOM                                                         .002

                                     END

        LITERALS
      00004  400000000071
      00005  452567234644
      00006  475145632551
1            DISK ERROR SUBROUTINE - CALLS PRNTER VIA NEXCOM.                                    PAGE 1
                        POST PROCESSOR ASSEMBLY DATA

          7 IS THE FIRST LOCATION NOT USED BY THIS PROGRAM

0REFERENCES TO DEFINED SYMBOLS
          0  DSKER     0
          3 NEXCOM     2

0 NO ERROR IN ABOVE ASSEMBLY.


 A.DBG   BCD 09/20/68 0218.4   40438         00000
1            A.DEBUG               SYMBOLIC DEBUGGING AID FOR A-CORE.                            PAGE 1
                                         DEFINITIONS.

                                     PCC     ON            PRINT LBL CARD.
                                     LBL     FDBG          BINARY CARD LABEL.
                                     PCC     OFF           DON'T PRINT PMC CARDS.
                              *
                       00001         ENTRY   A.DBG
                              *
                              *                            USEFUL DEFINITIONS.

      00000  212346512560     ACORE

                       00000  ..     EQU     **            MODIFICATION SYMBOL.
            -0625 71 1 20000  SETF   OPSYN   STL           SET FLAG.
             0600 71 1 60000  CLEAR  OPSYN   STZ           CLEAR FLAG.
             3 00011 1 60000  PAR    OPSYN   BRN           PARAMETER POINTER.
             2 00017 1 60000  BLK    OPSYN   TIX           BLOCK POINTER.
            -1 00011 1 20000  FMT    OPD     500011120000  FORMAT POINTER.
            -1 00011 1 20000  IOP    OPD     500011120000  I/O PARAMETER POINTER.
            -1 00001 1 20000  ENDIO  OPSYN   STR           END OF I/O LIST.
            -0 17560 0 05336  SHOW   OPSYN   PMC           SAVE PRESENT DEFINITION OF PMC.
                              *
                              TSS    MACRO   A             CALL SUPERVISOR SUBROUTINE.
                                     GEN     ,TSX(A,4)     GENERATE CALL INSTRUCTION.
                                     RMT
                                     IFF     A,X           IF ARGUMENT IS UNDEFINED,
                                     GEN     (A),TIA(=H'A) INSERT THE TRAP INSTRUCTION.
                                     RMT
                                     END     TSS
                              *
                              TYPE   MACRO   N,COM,LOC     TYPE COMMENT.
                                     GEN     ,TSX(TYPE,4)  CALL SUBPROGRAM.
                                     GEN     ,PAR(LOC)     POINTER TO BCI STRING.
                                     RMT
                                     IFF     LOC,X         IF LOCATION SYMBOL UNDEFINED, GENERATE BCI.
                                     GEN     LOC,BCI(N,COM) GENERATE THE BCI STRING.
                                     RMT
                                     END     TYPE
                              *
                              TYPA   MACRO   N,COM,LOC
                                     GEN     ,TSX(TYPA,4)  CALL SUBPROGRAM.
                                     GEN     ,PAR(LOC)     POINTER TO BCI STRING.
                                     RMT
                                     IFF     LOC,X         IF LOCATION SYMBOL UNDEFINED, GENERATE BCI.
                                     GEN     LOC,BCI(N,COM) GENERATE THE BCI STRING.
                                     RMT
                                     END     TYPA
                              *
                              GEN    MACRO   LOC,OP,AD     SURROUND GENERATED WORD WITH PMC ON, OFF.
                                     PMC     ON            PRINT THE WORD.
                              LOC    OP      AD            ..
                                     PMC     OFF           RETURN TO NORMAL MODE.
                                     END     GEN
                              *
                              OUTSUB MACRO   NAME          DEFINE SUBROUTINE CALL.
                                     IRP     NAME          CONSIDER EACH NAME IN LIST.
                              NAME   MACRO   ARG           DEFINE IT.
1            A.DEBUG               SYMBOLIC DEBUGGING AID FOR A-CORE.                            PAGE 2
                                         DEFINITIONS.

                                     GEN     ,CLA(ARG)     GENERATE A CLA.
                                     GEN     ,TSX(NAME,4)  CALL THE SUBROUTINE.
                                     END     NAME          THAT'S IT FOR THIS DEFINITION.
                                     IRP                   ANY MORE.Q
                                     END     OUTSUB        NO.
                              *
      00001                          OUTSUB  (TYO,BCDOUT,NAMOUT,INTOUT,OCTOUT,FLDPRT)
                              *
                              TEQ    MACRO   LOC,SAMPLE    TRANSFER IF EQUAL.
                                     GEN     ,LAS(SAMPLE)   COMPARE C(AC) WITH C(SAMPLE).
                                     GEN     ,TRA(*+2)     C(AC) .NE. C(SAMPLE), SKIP.
                                     GEN     ,TRA(LOC)     C(AC) .E. C(SAMPLE), TRANSFER.
                                     END     TEQ
                              *
                              TNE    MACRO   LOC,SAMPLE    TRANSFER IF NOT EQUAL.
                                     TEQ     *+2,(SAMPLE)  IF C(AC) .E. C(SAMPLE), SKIP.
                                     GEN     ,TRA(LOC)     C(AC) .NE. C(SAMPLE), TRANSFER.
                                     END     TNE
                              *
                              TBL    MACRO   LOC           TRANSFER IF BLANK.
                                     TEQ     (LOC),=H00000 ..
                                     END     TBL
                              *
                              TNB    MACRO   LOC           TRANSFER IF NOT BLANK.
                                     TNE     (LOC),=H00000 ..
                                     END     TNB
                              *
                              TCR    MACRO   LOC           TRANSFER IF CARRIAGE RETURN.
                                     TEQ     (LOC),=O55    ..
                                     END     TCR
                              *
                              TNCR   MACRO   LOC           TRANSFER IF NOT CARRIAGE RETURN.
                                     TNE     (LOC),=O55    ..
                                     END     TNCR
                              *
                              MCALL  MACRO   NAME,ARG      GENERATE MAD FUNCTION CALL.
                                     TSS     NAME          CALL THE FUNCTION.
                                     IRP     ARG           EXPAND THE ARGUMENT LIST.
                                     PTR     ARG           ..
                                     IRP
                                     END     MCALL
                              *
                              PTR    MACRO   A,B,C         GENERATE ARGUMENT POINTER.
                              ...    SET     *             REMEMBER CURRENT LOCATION.
                                     IFF     1,...,B       IS B '...'.Q
                                     GEN     ,BLK(A,,C)    YES, USE MAD BLOCK NOTATION.
                                     IFF     1,,B          IS B VOID.Q
                                     GEN     ,PAR(A,,C)    YES, USE FAP BLOCK NOTATION.
                                     IFF     *-...,X       DID EITHER OF THE ABOVE TURN OUT TRUE.Q
                                     GEN     ,PAR(A)       NO, USE SINGLE ARGUMENT POINTER.
                                     END     PTR
                              *
                              FNC    MACRO   NAME          DEFINE FUNCTION NAME.
                                     IRP     NAME          CONSIDER EACH NAME IN LIST.
                              NAME   MACRO   ARG           DEFINE IT..
1            A.DEBUG               SYMBOLIC DEBUGGING AID FOR A-CORE.                            PAGE 3
                                         DEFINITIONS.

                                     MCALL   NAME(ARG)
                                     END     NAME
                                     IRP
                                     END     FNC
                              *
      00001                          FNC     (OPEN,BUFFER,RDWAIT,CLOSE,IODIAG)
                              *
            -0 17735 0 05336  PMC    OPSYN   NULL          TURN OFF MACRO EXPANSION
                              *
                              *
1            A.DEBUG               SYMBOLIC DEBUGGING AID FOR A-CORE.                            PAGE 4
                           MAIN CONTROL SECTION, READS AND INTERPRETS REQUESTS.

                       00001  A.DBG  SYN     *
                       00001  QBACK  SYN     *
      00001                          TYPA    2,(BON JOUR.*)
      00003 -0625 00 0 01426         SETF    CRFLG         MAKE TYI READ A FRESH LINE.
      00004  0074 00 4 02175  SAME1  TSX     CR,4          THEN CARRIAGE RETURN.
      00005  0074 00 4 01705         TSX     CHFIL,4       CHECK AND SET UP FOR FILE INPUT.
      00006  0074 00 4 01377  MAIN   TSX     SKIPCR,4      MOVE TO BEGINNING OF NEXT REQUEST.
      00007  0074 00 4 02427  IGNORE TSX     BCSCH,4       GET THE FIRST SUBFIELD.
      00010  0600 00 0 02133         CLEAR   INRUPT        RESET THE INTERRUPT FLAG.
      00011  0601 00 0 00730         STO     BC            SAVE BREAK CHARACTER AND INDICATOR.
      00012 -0600 00 0 00065         STQ     SUBF          SAVE CHARACTERS IN SUBFIELD.
      00013                          TBL     RQST          CHECK FOR REQUEST IF BLANK,
      00016                          TNCR    LOCF          OR CR.  OTHERWISE, LOC FIELD.
      00022 -0130 00 0 00000  RQST   XCL
      00023                          TEQ     BLANK,=H      IS FIELD ALL BLANK.Q
      00026 -0320 00 0 11400         ANA     =O777777777700
      00027                          TEQ     ONECH,(=H     0) IS IT ONLY ONE CHARACTER.Q
      00032  0500 00 0 00730  LOCF   CLA     BC            RESTORE THE DATA.
      00033  0560 00 0 00065         LDQ     SUBF
      00034  0020 00 0 00053         TRA     LOCNXT        GO CONTINUE SCANNING THE LINE.
                              *
      00035  0500 00 0 00730  BLANK  CLA     BC            GET BREAK CHARACTER.
      00036                          TCR     NEXT          IF CARRIAGE RETURN, LOOK AT NEXT LOCATION.
      00041                          TBL     IGNORE        IF BLANK, TRY AGAIN.
      00044  0020 00 0 00032         TRA     LOCF          OTHERWISE WE HAVE A LOCATION FIELD.
                              *
      00045 -0500 00 0 00065  ONECH  CAL     SUBF          ONLY ONE CHARACTER.
      00046 -0320 00 0 11326         ANA     =O77          GET RID OF BLANKS.
      00047 -0340 00 0 11304         LAS     =7            IS CHARACTER A 'LETTER.Q'.
      00050  0020 00 0 00230         TRA     CMND          YES, ASSUME IT A REQUEST.
      00051  0761 00 0 00000         NOP                   NO,
      00052  0020 00 0 00032         TRA     LOCF          ASSUME IT A LOCATION.
                              *
      00053  0074 00 4 02466  LOCNXT TSX     EVAL,4        EVALUATE THE FIRST FIELD (LOCATION).
      00054                          TBL     PUT           OK, NOW CHECK THE LOC., GET WORD.
      00057                          TNCR    ILF           IT MUST BE THE END OF HTE LINE.
      00063 -0600 00 0 00202         STQ     LOC           SAVE THE LOCATION.
      00064  0020 00 0 00421         TRA     RLOOK         GO PRINT ITS CONTENTS.
                              *
      00065  0 00000 0 00000  SUBF
      00066  0 00000 0 00000  MEMBND                       CURRENT MEMORY BOUND.
                              *
1            A.DEBUG               SYMBOLIC DEBUGGING AID FOR A-CORE.                            PAGE 5
                           SYMIN.        GET SYMBOLIC 'FAP WORD' FROM INPUT LINE.

      00067  0634 00 4 00154  SYMIN  SXA     SYMX,4        SAVE RETURN.
      00070  0634 00 1 00155         SXA     SYMY,1        SAVE XR 1.
      00071  0600 00 0 00733         STZ     OP            CLEAR THE WORD PARTS.
      00072  0600 00 0 00734         STZ     ADD
      00073  0600 00 0 00735         STZ     TAG
      00074  0600 00 0 00736         STZ     DEC
      00075  0074 00 4 02427         TSX     BCSCH,4       GET THE OP. CODE, NEXT DELIMITER.
      00076  0602 00 0 00730         SLW     BC            SAVE BREAK CHARACTER.
      00077 -0600 00 0 00733         STQ     OP            SAVE THE RIGHT-ADJUSTED OP CODE.
      00100 -0130 00 0 00000         XCL
      00101  0074 00 4 02546         TSX     LADJ,4        ADJUST CODE TO LEFT.
      00102  0774 00 1 00014         AXT     POPEND-POPORG,1 SET UP COUNT OF PSEUDO-OPS.
      00103                   POPRET TEQ     LOK,(POPEND,1) GO DISPATCH IF THIS IS IT.
      00106  2 00002 1 00103         TIX     POPRET,1,2    NOT THIS ONE, TRY AGAIN.
      00107 -0500 00 0 00733         CAL     OP            NOT A PSEUDO-OP, GET RIGHT-ADJUSTED CODE.
      00110  0074 00 4 10221         TSX     OPBIN,4       LOOK UP THE CODE.
      00111  0602 00 0 00733         SLW     OP
      00112 -0500 00 0 00730         CAL     BC            GET BREAK CHARACTER, CHECK IT.
      00113                          TNB     SINP          END OF 'LINE', EXIT.
      00117  0074 00 4 02472  ADNXT  TSX     FLDEVL,4      EVALUATE THE ADDRESS FIELD.
      00120 -0600 00 0 00734         STQ     ADD
      00121                          TNE     SINP,(=H00000,) END OF LINE IF NOT COMMA.
      00125  0074 00 4 02472         TSX     FLDEVL,4      EVALUATE THE TAG FIELD.
      00126 -0600 00 0 00735         STQ     TAG
      00127                          TNE     SINP,(=H00000,) END OF LINE IF NOT COMMA.
      00133  0074 00 4 02472         TSX     FLDEVL,4      EVALUATE THE DECREMENT FIELD.
      00134 -0600 00 0 00736         STQ     DEC
      00135  0601 00 0 00730  SINP   STO     BC            SAVE THE BREAK CHARACTER.
      00136 -0500 00 0 00733         CAL     OP            GET THE OP CODE.
      00137  0602 00 0 00731         SLW     WORD          SAVE IT.
      00140 -0501 00 0 00734         ORA     ADD           INSERT THE ADDRESS.
      00141  0621 00 0 00731         STA     WORD          AND SAVE THE ADDRESS PART.
      00142 -0500 00 0 00735         CAL     TAG           GET THE TAG.
      00143  0767 00 0 00017         ALS     15            SHIFT IT INTO POSITION.
      00144 -0501 00 0 00731         ORA     WORD          PUT IT INTO THE WORD.
      00145  0625 00 0 00731         STT     WORD          AND SAVE ONLY THE TAG PART.
      00146 -0500 00 0 00736         CAL     DEC           GET THE DECREMENT.
      00147  0767 00 0 00022         ALS     18            SHIFT IT INTO POSITION.
      00150 -0501 00 0 00731         ORA     WORD          COMBINE IT W/ PREVIOUS.
      00151  0622 00 0 00731         STD     WORD          AND SAVE ONLY THE DECREMENT PART.
      00152  0560 00 0 00731         LDQ     WORD          GET THE ENTIRE WORD.
      00153  0500 00 0 00730         CLA     BC            GET THE BREAK CHARACTER.
      00154  0774 00 4 00000  SYMX   AXT     ..,4          RESTORE RETURN (HERE FROM POP).
      00155  0774 00 1 00000  SYMY   AXT     ..,1          RESTORE XR 1.
      00156  0020 00 4 00001         TRA     1,4           AND EXIT.
                              *
      00157  0500 00 0 00730  LOK    CLA     BC            GET THE BREAK CHARACTER.
      00160                          TNB     ILF           MAKE SURE WE HAVE A WORD OF DATA.
      00164 -0774 00 4 00153         AXC     SYMX-1,4      SET UP RETURN INDEX.
      00165  0020 60 1 00203         TRA*    POPEND+1,1    DISPATCH ON THE PSEUDO-OP.
                              *
      00166  222324606060     POPORG BCI     1,BCD         HOLLERITH INPUT.
      00167  0 00000 0 02273                 BCDIN         ..
      00170  304643606060            BCI     1,HOL         ..
      00171  0 00000 0 02273                 BCDIN         ..
1            A.DEBUG               SYMBOLIC DEBUGGING AID FOR A-CORE.                            PAGE 6
                           SYMIN.        GET SYMBOLIC 'FAP WORD' FROM INPUT LINE.

      00172  264346606060            BCI     1,FLO         FLOATING POINT INPUT.
      00173  0 00000 0 01104                 FLOIN         ..
      00174  314563606060            BCI     1,INT         DECIMAL INTEGER INPUT.
      00175  0 00000 0 01007                 INTIN         ..
      00176  414563606060            BCI     1,JNT         FORTRAN INTEGER INPUT.
      00177  0 00000 0 01012                 JNTIN         ..
      00200  462363606060            BCI     1,OCT         OCTAL INPUT.
      00201  0 00000 0 01004                 OCTIN         ..
                       00202  POPEND EQU     *
                              *
      00202  0 00000 0 00000  LOC                          CURRENT LOCATION.
                              *
1            A.DEBUG               SYMBOLIC DEBUGGING AID FOR A-CORE.                            PAGE 7
                           ILF.          COMMENT ON UNDECIPHERABLE REQUEST.

      00203                   ILF    TCR     ILFCR         IF CARRIAGE RETURN, GIVE SPECIAL COMMENT.
      00206                          TBL     ILFBL         SAME WITH BLANK.
      00211  0601 00 0 00227         STO     ILFCH         SAVE THE CHARACTER.
      00212  0074 00 4 02201         TSX     QUOTE,4       TYPE LEFT QUOTE.
      00213                          TYO     ILFCH         TYPE THE CHARACTER.
      00215  0074 00 4 02201         TSX     QUOTE,4       TYPE THE RIGHT QUOTE.
      00216                   ILFJN  TYPE    5,( ENCOUNTERED UNEXPECTEDLY.*)
      00220  0020 00 0 00006         TRA     MAIN          GO GET THE NEXT REQUEST.
                              *
      00221                   ILFCR  TYPA    3,(END OF REQUEST*)
      00223  0020 00 0 00216         TRA     ILFJN         GO TYPE THE REST OF THE MESSAGE.
                              *
      00224                   ILFBL  NAMOUT  =HBLANK       TYPE THE FIRST PART OF COMMENT.
      00226  0020 00 0 00216         TRA     ILFJN         GO GET THE REST.
                              *
      00227  0 00000 0 00000  ILFCH                        STORAGE FOR THE CHARACTER.
                              *
1            A.DEBUG               SYMBOLIC DEBUGGING AID FOR A-CORE.                            PAGE 8
                                         DISPATCH ON AND SERVICE REQUEST.

      00230  0774 00 1 00036  CMND   AXT     CEND-CORG,1   SET UP,
      00231                          TEQ     CDISP,(CEND,1) FOUND, GO DISPATCH.
      00234  2 00002 1 00231         TIX     *-3,1,2       TRY AGAIN.
      00235  0020 00 0 00032         TRA     LOCF          NOT A REQUEST, ASSUME A LOCATION.
                              *
      00236 -0500 00 1 00300  CDISP  CAL     CEND+1,1      GET LOCATION W/ POINTERS.
      00237 -0737 00 2 00000         PDC     ,2            PUT FIRST POINTER IN XR 2.
      00240  0020 00 2 00000         TRA     ,2            DISPATCH ON IT.
                              *
                       00241  CORG   EQU     *             REQUEST DISPATCH TABLE.
      00241  000000000021            BCI     1,00000A
      00242  0 02703 0 00000                 ,,SETABS      SET MODE TO ABSOLUTE
      00243  000000000023            BCI     1,00000C
      00244  0 00345 0 00000                 ,,VERIFY      OR COMPARE.
      00245  000000000024            BCI     1,00000D
      00246  0 00277 0 00000                 ,,DPOSIT      PATCH IN SYMBOLIC.
      00247  000000000025            BCI     1,00000E
      00250  0 00671 0 00000                 ,,DEF         DEFINE.
      00251  000000000026            BCI     1,00000F
      00252  0 00424 0 06142                 FLOOUT,,LOOK  'LOOK' IN FLOATING-POINT.
      00253  000000000030            BCI     1,00000H
      00254  0 00424 0 02251                 BCDOUT,,LOOK  LOOK AT A BCD WORD.
      00255  000000000031            BCI     1,00000I
      00256  0 00424 0 06252                 INTOUT,,LOOK  LOOK AT A FULL-WORD INTEGER.
      00257  000000000041            BCI     1,00000J
      00260  0 00424 0 06251                 DECOUT,,LOOK  LOOK AT A FORTRAN INTEGER.
      00261  000000000043            BCI     1,00000L
      00262  0 00561 0 00000                 ,,YANK        FIND LOAD ADDRESS OF PROGRAM.
      00263  000000000046            BCI     1,00000O      OCTAL LOOK.
      00264  0 00424 0 06247                 OCTOUT,,LOOK  LOOK IN OCTAL.
      00265  000000000051            BCI     1,00000R
      00266  0 02712 0 00000                 ,,SETREL      SET MODE TO RELATIVE
      00267  000000000050            BCI     1,00000Q
      00270  0 00403 0 00000                 ,,DISMIS      OR QUIT.
      00271  000000000062            BCI     1,00000S
      00272  0 00424 0 02343                 SYMPRT,,LOOK  LOOK AT A WORD SYMBOLICALLY.
      00273  000000000063            BCI     1,00000T      SYMBOL TABLE.
      00274  0 00601 0 00000                 ,,TABLE       READ SYMBOLS (OR KILL TABLE).
      00275  000000000066            BCI     1,00000W
      00276  0 00625 0 00000                 ,,AUTO        WORK = FIND ORIGIN, LOAD SYMBOLS.
                       00277  CEND   EQU     *
                              *
1            A.DEBUG               SYMBOLIC DEBUGGING AID FOR A-CORE.                            PAGE 9
                           D             REPLACE CONTENTS OF SPECIFIED LOCATION.

      00277  0500 00 0 00730  DPOSIT CLA     BC            GET BREAK CHARACTER.
      00300                          TNB     ILF           IF NOT A BLANK, COMPLAIN.
      00304  0074 00 4 02472         TSX     FLDEVL,4      EVALUATE LOCATION FIELD.
      00305                          TNB     ILF           GRIPE IF NOT ANOTHER ARGUMENT.
      00311 -0600 00 0 00202  PUT    STQ     LOC           SAVE THE VALUE OF THE FIELD.
      00312 -0500 00 0 00202         CAL     LOC
      00313  0621 00 0 00342         STA     PUT1          SETUP ADDRESS FOR CALL TO SETLOC.
      00314  0600 00 0 00344         CLEAR   KEYTST        RESET KEY TEST SWITCH
      00315  0760 00 0 00004  TSTKEY ENK                   READ IN THE CONSOLE KEYS
      00316 -0130 00 0 00000         XCL                   PLACE IN LAC
      00317 -0320 00 0 11331         ANA     =O20000       CHECK FOR KEY 22 DOWN
      00320 -0100 00 0 00333         TNZ     PATCH         IF DOWN, OK TO PATCH
      00321                          TYPA    4,(KEY 22 IS NOT DOWN.*)
      00323 -0520 00 0 00344         NZT     KEYTST        ADDITIONAL MESSAGE FIRST TIME
      00324                          TYPA    6,( I WILL RETRY EVERY 10 SECONDS.*)
      00326 -0625 00 0 00344         SETF    KEYTST        SET KEY TEST SWITCH
      00327  0074 00 4 02175         TSX     CR,4          TYPE A CARRIAGE RETURN
      00330 -0500 00 0 11307         CAL     =10           SLEEP FOR 10 SECONDS
      00331                          TSS     SLEEP         ..
      00332  0020 00 0 00315         TRA     TSTKEY        NOW TRY AGAIN
                              *
                       00333  PATCH  SYN     *
      00333  0074 00 4 00067         TSX     SYMIN,4       GET THE SYMBOLIC WORD.
      00334                          TNCR    ILF           IF NOT END OF REQUEST, GRIPE.
      00340 -0130 00 0 00000         XCL
      00341                          TSS     SETLOC        DEPOSIT WORD INTO A-CORE.
      00342  0 00000 0 00000  PUT1   PZE     **
      00343  0020 00 0 00006         TRA     MAIN
                              *
      00344  0 00000 0 00000  KEYTST
                              *
1            A.DEBUG               SYMBOLIC DEBUGGING AID FOR A-CORE.                            PAGE 10
                           C             COMPARE SUBPROGRAM WITH VIRGIN VERSION.

      00345  0500 00 0 00730  VERIFY CLA     BC            GET THE BREAK CHARACTER.
      00346                          TNB     ILF           IF NO ARGUMENTS, GRIPE.
      00352  0074 00 4 02427         TSX     BCSCH,4       ASSEMBLE THE ENTRY NAME.
      00353 -0600 00 0 00665         STQ     NAME          SAVE IT.
      00354  0602 00 0 00730         SLW     BC            AND SAVE THE BREAK CHARACTER.
      00355 -0130 00 0 00000         XCL                   MOVE THE NAME TO THE AC.
      00356  0074 00 4 02546         TSX     LADJ,4        LEFT ADJUST IT.
      00357  0074 00 4 00737         TSX     ORGFND,4      FIND ITS ORIGIN.
      00360  0602 00 0 00732         SLW     PGMORG        SAVE THE ORIGIN.
      00361  0500 00 0 00730         CLA     BC            GET THE BREAK CHARACTER.
      00362                          TCR     VERGO         IF CARR. RET., DON'T TRY ANOTHER ARG.
      00365                          TNB     ILF           ANOTHER ARGUMENT MUST BE SET OFF BY BLANK.
      00371  0074 00 4 02427         TSX     BCSCH,4       IF NOT, GET THE FILE NAME.
      00372                          TNCR    ILF           GRIPE IF MORE ARGUMENTS.
      00376 -0600 00 0 00665         STQ     NAME          SAVE IT.
      00377 -0500 00 0 00665  VERGO  CAL     NAME          ALL SET, GET THE FILE NAME.
      00400  0560 00 0 00732         LDQ     PGMORG        AND THE ORIGIN.
      00401  0074 00 4 01447         TSX     DIFDMP,4      GO TO VERIFY.
      00402  0020 00 0 00006         TRA     MAIN          WHEN DONE, RETURN.
                              *
1            A.DEBUG               SYMBOLIC DEBUGGING AID FOR A-CORE.                            PAGE 11
                           Q               END DEBUGGING SESSION.

      00403  0500 00 0 00730  DISMIS CLA     BC            GET THE BREAK CHARACTER.
      00404                          TNCR    ILF           IF NOT A CARRIAGE RETURN, COMPLAIN.
      00410                          TYPE    2,(AU REVOIR.*)
      00412                          TSS     CHNCOM        RETURN TO CTSS.
      00413 +000000000001            DEC     1             LEAVE THIS CORE IMAGE.
      00414  0020 00 0 00001         TRA     QBACK         GO ANNOUNCE RESTART.
                              *
1            A.DEBUG               SYMBOLIC DEBUGGING AID FOR A-CORE.                            PAGE 12
                           INT.          RETURN FROM USER'S INTERRUPT.

      00415  0020 00 0 02106  INT    TRA     NOINT         INTERRUPT NEVER FROM USER
                              *
1            A.DEBUG               SYMBOLIC DEBUGGING AID FOR A-CORE.                            PAGE 13
                           LOOK.         PRINT CONTENTS OF SPECIFIED LOCATIONS.

      00416 -0500 00 0 00202  NEXT   CAL     LOC
      00417  0361 00 0 11302         ACL     =1
      00420  0602 00 0 00202         SLW     LOC
      00421 -0500 00 0 00202  RLOOK  CAL     LOC           PRINT LOCATION.
      00422  0074 00 4 00544         TSX     DUMP,4        PRINT IT IN THE CURRENT MODE.
      00423  0020 00 0 00006         TRA     MAIN          AND GO BACK.
                              *
      00424 -0500 00 1 00300  LOOK   CAL     CEND+1,1      GET DISPATCH TABLE ENTRY.
      00425  0621 00 0 00461         STA     CTSX          SAVE IT IN THE SUBROUTINE CALL.
      00426  0500 00 0 00730         CLA     BC            GET THE BREAK CHARACTER.
      00427                          TCR     MAIN          IF CARR. RET., EXIT.
      00432                          TNB     ILF           IF NOT, IT MUST BE A BLANK.
      00436  0074 00 4 02472         TSX     FLDEVL,4      EVALUATE THE FIRST FIELD.
      00437 -0600 00 0 00457         STQ     LOC1          SAVE VALUE OF FIRST FIELD.
      00440                          TCR     GLOOK         IF NOT THERE, SKIP EVALUATING SECOND FIELD.
      00443                          TNB     ILF           COMPLAIN IF IMPROPER FORMAT.
      00447  0074 00 4 02472         TSX     FLDEVL,4      IF NOT, EVALUATE IT.
      00450                          TNCR    ILF           COMPLAIN IF TOO MANY ARGUMENTS.
      00454 -0600 00 0 00460  GLOOK  STQ     LOC2          SAVE VALUE OF THE SECOND FIELD.
      00455  0074 00 4 00462         TSX     BLKLK,4       GO LOOK AT THE BLOCK.
      00456  0020 00 0 00006         TRA     MAIN          GO GET THE NEXT REQUEST.
                              *
      00457  0 00000 0 00000  LOC1                         BEGINNING OF THE BLOCK.
      00460  0 00000 0 00000  LOC2                         END OF THE BLOCK.
      00461  0074 00 4 02343  CTSX   TSX     ..+SYMPRT,4   OUTPUT MODE SWITCH.
                              *
1            A.DEBUG               SYMBOLIC DEBUGGING AID FOR A-CORE.                            PAGE 14
                           BLKLK.        PRINT CONTENTS OF BLOCK OF STORAGE.

      00462  0634 00 1 00537  BLKLK  SXA     BLKXA,1       SAVE THE XR'S.
      00463  0634 00 2 00540         SXA     BLKXB,2
      00464  0634 00 4 00541         SXA     BLKXC,4
      00465  0500 00 0 00460         CLA     LOC2          LOC 1 PASSES, CHECK THE OTHER LIMIT.
      00466 -0340 00 0 00457         LAS     LOC1          COMPARE IT W/ THE BEGINNING.
      00467  0761 00 0 00000         NOP                   END .G. BEGINNING,
      00470  0020 00 0 00473         TRA     FWDLK         END .E. BEGINNING, DIRECTION IS FORWARDS.
      00471  0774 00 4 00001         AXT     1,4           END .L. BEGINNING, DIRECTION IS BACKWARDS.
      00472  0020 00 0 00474         TRA     GOLK          GO TO IT.
                              *
      00473  0774 00 4 77777  FWDLK  AXT     -1,4          GET INCREMENT FOR FORWARDS.
      00474 -0634 00 4 00514  GOLK   SXD     BMLK,4        SET UP THE TXI.
      00475 -0636 00 4 00527         SCD     BNLK,4
      00476  0535 00 1 00457         LAC     LOC1,1        GET INITIAL LOCATION.
      00477  0774 00 2 00000  NORPT  AXT     0,2           RESET REPEAT COUNT.
      00500  0636 00 1 00502         SCA     *+2,1         SAVE FOR CALL TO GETLOC
      00501                          TSS     GETLOC        PICK UP THE LOC'N
      00502  0 00000 0 00000         PZE     **            ..
      00503  0602 00 0 00543         SLW     PREV          IT IS THE NEXT PREVIOUS WORD.
      00504  0756 00 1 00000         PCA     ,1            PUT THIS LOCATION IN THE AC.
      00505  0074 00 4 00544         TSX     DUMP,4        GO PRINT THIS LOCATION, ITS CONTENTS.
      00506  0756 00 1 00000  LKCMP  PCA     ,1            GET THIS LOCATION.
      00507                          TEQ     XIT,LOC2      IF WE'VE REACHED THE END, WE ARE DONE.
      00512  0520 00 0 02133         ZET     INRUPT        WAS THERE AN INTERRUPT.Q
      00513  0020 00 0 00530         TRA     XIT           YES, EXIT.
      00514  1 00000 1 00515  BMLK   TXI     *+1,1,..      BUMP POINTER TO THE NEXT LOCATION.
      00515  0636 00 1 00517         SCA     *+2,1         SAVE FOR CALL TO GETLOC
      00516                          TSS     GETLOC        PICK UP THE LOC'N
      00517  0 00000 0 00000         PZE     **            ..
      00520 -0340 00 0 00543         LAS     PREV          IS IT THE SAME AS THE LAST WORD.Q
      00521  0020 00 0 00523         TRA     *+2           NO, PROCEED.
      00522  1 00001 2 00506         TXI     LKCMP,2,1     YES, COUNT REPEAT AND GET NEXT WORD.
      00523 -3 00000 2 00477         TXL     NORPT,2,0     DIFFERENT, WERE THERE REPEATS.Q
      00524 -3 00001 2 00527         TXL     BNLK,2,1      YES, BUT DON'T COMMENT IF TWO.
      00525                          TYPE    2,(REPEAT.*),RPTC YES, SAY SO.
      00527  1 00000 1 00477  BNLK   TXI     NORPT,1,..    GO PRINT THE LAST WORD OF THE GROUP.
                              *
      00530  0636 00 1 00202  XIT    SCA     LOC,1         UPDATE CURRENT LOCATION.
      00531 -3 00000 2 00537         TXL     BLKXA,2,0     END OF BLOCK, ARE WE IN A REPEAT.Q
      00532 -3 00001 2 00535         TXL     XPCA,2,1      YES, BUT DON'T TYPE REPEAT IF ONLY 1.
      00533                          TYPE    2,(REPEAT.*),RPTC YES, SAY SO.
      00535  0756 00 1 00000  XPCA   PCA     ,1            TYPE THE LAST WORD.
      00536  0074 00 4 00544         TSX     DUMP,4
      00537  0774 00 1 00000  BLKXA  AXT     ..,1          RESTORE THE XR'S.
      00540  0774 00 2 00000  BLKXB  AXT     ..,2
      00541  0774 00 4 00000  BLKXC  AXT     ..,4
      00542  0020 00 4 00001         TRA     1,4           EXIT.
                              *
      00543  0 00000 0 00000  PREV                         THE 'PREVIOUS' WORD.
                              *
1            A.DEBUG               SYMBOLIC DEBUGGING AID FOR A-CORE.                            PAGE 15
                           DUMP.         TYPE CONTENTS OF SINGLE LOCATION.

      00544  0634 00 4 00557  DUMP   SXA     DMPX,4        SAVE RETURN.
      00545 -0320 00 0 11332         ANA     =O77777       GET RID OF GARBAGE.
      00546  0621 00 0 00554         STA     DMPL          SAVE POINTER TO LOCATION.
      00547  0074 00 4 02313         TSX     FLDPRT,4      PRINT THE LOCATION FIELD.
      00550                          TYO     =H00000/      TYPE THE DELIMITERS.
      00552  0074 00 4 02177         TSX     TAB,4         TABULATE.
      00553                          TSS     GETLOC        GET WORD TO BE DUMPED FROM A-CORE.
      00554  0 00000 0 00000  DMPL   PZE     **
      00555  0522 00 0 00461         XEC     CTSX          CONVERT IT AND TYPE IT.
      00556  0074 00 4 02175         TSX     CR,4          CARRIAGE RETURN.
      00557  0774 00 4 00000  DMPX   AXT     ..,4          RESTORE RETURN.
      00560  0020 00 4 00001         TRA     1,4           EXIT.
                              *
                              *
1            A.DEBUG               SYMBOLIC DEBUGGING AID FOR A-CORE.                            PAGE 16
                           L             FIND LOAD ADDRESS OF SUBPROGRAM.

      00561  0500 00 0 00730  YANK   CLA     BC            GET BREAK CHARACTER.
      00562                          TNB     ILF
      00566  0074 00 4 02427         TSX     BCSCH,4       ASSEMBLE THE SYMBOL.
      00567                          TNCR    ILF           CHECK THAT THAT IS ALL.
      00573 -0130 00 0 00000         XCL                   MOVE IT TO AC.
      00574  0074 00 4 02546         TSX     LADJ,4        LEFT ADJUST IT.
      00575  0074 00 4 00737         TSX     ORGFND,4      FIND THE ORIGIN OF THE SUBPROGRAM.
      00576  0602 00 0 00732         SLW     PGMORG
      00577  0602 00 0 00202         SLW     LOC           SET CURRENT LOC. TO ORIGIN.
      00600  0020 00 0 00006         TRA     MAIN
                              *
1            A.DEBUG               SYMBOLIC DEBUGGING AID FOR A-CORE.                            PAGE 17
                           T             READ OR KILL SYMBOL TABLE.

      00601  0500 00 0 00730  TABLE  CLA     BC
      00602                          TCR     KILL          NO ARG., KILL THE TABLE.
      00605                          TNB     ILF           MAKE SURE WE HAVE THE PROPER FORMAT.
      00611  0074 00 4 02427         TSX     BCSCH,4       ASSEMBLE THE SYMBOL.
      00612                          TNCR    ILF           THIS MUST BE THE END OF THE LINE.
      00616 -0130 00 0 00000         XCL                   MOVE TO AC.
      00617  0602 00 0 00665         SLW     NAME
      00620  0560 00 0 00732         LDQ     PGMORG        PICK UP RELOCATION CONSTANT.
      00621  0074 00 4 02570         TSX     TABRD,4       GO READ AND RELOCATE THE SYMBOLS.
      00622  0020 00 0 00006         TRA     MAIN
                              *
      00623  0074 00 4 02676  KILL   TSX     KILTAB,4      CLEAR THE SYMBOL TABLE.
      00624  0020 00 0 00006         TRA     MAIN          GET THE NEXT REQUEST.
                              *
1            A.DEBUG               SYMBOLIC DEBUGGING AID FOR A-CORE.                            PAGE 18
                           W             FIND ORIGIN AND RELOCATE SYMBOL TABLE.

      00625  0500 00 0 00730  AUTO   CLA     BC            GET BREAK CHARACTER.
      00626                          TNB     ILF           IF NOT BLANK, COMPLAIN.
      00632  0074 00 4 02427         TSX     BCSCH,4       GET THE SYMBOL.
      00633  0602 00 0 00730         SLW     BC
      00634 -0130 00 0 00000         XCL
      00635  0602 00 0 00665         SLW     NAME
      00636  0074 00 4 02546         TSX     LADJ,4        ADJUST IT TO THE LEFT.
      00637  0074 00 4 00737         TSX     ORGFND,4      FIND THE ORIGIN OF THE PROGRAM.
      00640  0602 00 0 00732         SLW     PGMORG        SAVE RELOCATION CONSTANT FOR LATER.
      00641  0602 00 0 00202         SLW     LOC           SET CURRENT LOC. TO ORIGIN.
      00642  0560 00 0 00665         LDQ     NAME          GET NAME OF THE FILE.
      00643  0500 00 0 00730         CLA     BC
      00644                          TCR     WORK
      00647                          TNB     ILF           NEXT ARGUMENT MUST BE SEPARATED BY BLANK.
      00653  0074 00 4 02427         TSX     BCSCH,4       ASSEMBLE THE NAME.
      00654                          TNCR    ILF           CHECK FOR END OF REQUEST.
      00660 -0600 00 0 00665  WORK   STQ     NAME
      00661 -0130 00 0 00000         XCL                   MOVE FILE NAME TO AC.
      00662  0560 00 0 00732         LDQ     PGMORG        NOW IS THE TIME.. GET RELOCATION CON.
      00663  0074 00 4 02570         TSX     TABRD,4       READ AND RELOCATE THE SYMBOL TABLE.
      00664  0020 00 0 00006         TRA     MAIN
                              *
      00665  0 00000 0 00000  NAME                         FILE OR ENTRY NAME.
                              *
1            A.DEBUG               SYMBOLIC DEBUGGING AID FOR A-CORE.                            PAGE 19
                           E             DEFINE SYMBOL.

      00666                   FULL   TYPE    6,(TABLE FULL, DEFINITION IGNORED.*)
      00670  0020 00 0 00726         TRA     OOPS          GO PROCESS NEXT REQUEST.
                              *
      00671  0500 00 0 00730  DEF    CLA     BC
      00672                          TNB     ILF
      00676  0074 00 4 02472         TSX     FLDEVL,4      EVALUATE THE FIRST ARGUMENT.
      00677                          TNB     ILF           CHECK FOR SYMBOL FOLLOWING.
      00703 -0600 00 0 00202         STQ     LOC           SAVE SYMBOL VALUE.
      00704  0074 00 4 02427         TSX     BCSCH,4       GET THE SYMBOL.
      00705                          TNCR    ILF           GRIPE IF NOT END OF LINE.
      00711 -0130 00 0 00000         XCL
      00712  0074 00 4 02546         TSX     LADJ,4        ADJUST IT TO THE LEFT.
      00713  0560 00 0 00202         LDQ     LOC           PICK UP VALUE.
      00714  0074 00 4 03002         TSX     DEFINE,4      ENTER IT IN THE SYMBOL TABLE.
      00715  0020 00 0 00666         TRA     FULL          THE TABLE IS FULL.
      00716  0020 00 0 00006         TRA     MAIN          EXIT.
                              *
1            A.DEBUG               SYMBOLIC DEBUGGING AID FOR A-CORE.                            PAGE 20
                           UNDEF.        COMMENT ON UNDEFINED SYMBOL.

      00717  0602 00 0 00727  UNDEF  SLW     USYM          SAVE THE UNDEFINED SYMBOL.
      00720  0074 00 4 02201         TSX     QUOTE,4       TYPE THE LEFT QUOTES.
      00721                          NAMOUT  USYM          TYPE THE SYMBOL.
      00723  0074 00 4 02201         TSX     QUOTE,4       TYPE THE RIGHT QUOTES.
      00724                          TYPE    3,( IS NOT DEFINED.*)
      00726  0020 00 0 00006  OOPS   TRA     MAIN
                              *
      00727  0 00000 0 00000  USYM                         STORAGE FOR UNDEFINED SYMBOL.
      00730  0 00000 0 00000  BC
      00731  0 00000 0 00000  WORD                         WORD BEING ASSEMBLED.
      00732  0 00000 0 00000  PGMORG                       ORIGIN OF CURRENT SUBPROGRAM.
      00733  0 00000 0 00000  OP                           OP. CODE OF WORD.
      00734  0 00000 0 00000  ADD                          ADDRESS OF WORD.
      00735  0 00000 0 00000  TAG                          TAG OF WORD.
      00736  0 00000 0 00000  DEC                          DECREMENT OF WORD.
                              *
1            A.DEBUG               SYMBOLIC DEBUGGING AID FOR A-CORE.                            PAGE 21
                           ORGFND.       ORIGIN FINDING ROUTINE.

                              *      ENTER WITH NAME OF PROGRAM ENTRY LEFT ADJUSTED IN AC (LOGICAL).
                              *      SEARCHES LOADING TABLE FOR ORIGIN.  WHEN FOUND, PRINTS IT AND
                              *      RETURNS WITH ORIGIN IN AC ADDRESS.  IF IT CANNOT BE FOUND IT
                              *      TYPES COMMENT AND TRANSFERS TO OOPS.
      00737  0634 00 4 00766  ORGFND SXA     OFXC,4
      00740 -0340 00 0 11375         LAS     =H(MAIN)
      00741  0020 00 0 00743         TRA     *+2
      00742 -0754 00 0 00000         ZAC                   WAS (MAIN), SET TO 0.
      00743  0602 00 0 01002         SLW     ONAME         SAVE ORIGIN NAME
      00744  0074 00 4 00000         TSX     $ACORE,4      GO FIND ORIGIN
      00745  0 00000 0 01002         PZE     ONAME         ..
      00746 -0320 00 0 11332         ANA     =O77777       MASK ADDRESS
      00747  0621 00 0 01003         STA     PORG          SAVE ORIGIN
      00750  0100 00 0 00771         TZE     NOTFND        ZERO, IF NOT FOUND
      00751  0074 00 4 02201         TSX     QUOTE,4       TYPE THE LEFT QUOTES.
      00752  0500 00 0 01002         CLA     ONAME         GET THE ENTRY NAME.
      00753 -0100 00 0 00755         TNZ     *+2           UNLESS IT IS ZERO.
      00754  0500 00 0 11375         CLA     =H(MAIN)      THEN REPLACE IT WITH TRADITIONAL NAME.
      00755  0074 00 4 02253         TSX     NAMOUT,4      TYPE IT.
      00756  0074 00 4 02201         TSX     QUOTE,4       FOLLOWED BY THE RIGHT QUOTES.
      00757                          TYPA    3,( IS LOADED AT *) MIDDLE OF COMMENT.
      00761                          OCTOUT  PORG          TYPE THE ORIGIN.
      00763                          TYO     =H00000.      PUNCTUATE THE SENTENCE.
      00765  0074 00 4 02175         TSX     CR,4          RETURN THE CARRIAGE.
      00766  0774 00 4 00000  OFXC   AXT     ..,4
      00767 -0500 00 0 01003         CAL     PORG          GET THE ORIGIN AGAIN.
      00770  0020 00 4 00001         TRA     1,4           HAPPY RETURN.
                              *
      00771  0074 00 4 02201  NOTFND TSX     QUOTE,4       NOT FOUND, TYPE QUOTES.
      00772  0500 00 0 01002         CLA     ONAME         GET THE NAME.
      00773 -0100 00 0 00775         TNZ     *+2           IF ZERO,
      00774  0500 00 0 11375         CLA     =H(MAIN)      REPLACE IT WITH TRADITIONAL SUBSTITUTE.
      00775  0074 00 4 02253         TSX     NAMOUT,4      TYPE IT.
      00776  0074 00 4 02201         TSX     QUOTE,4       TYPE THE RIGHT QUOTES.
      00777                          TYPE    3,( IS NOT IN CORE.*) TYPE THE REST OF THE COMMENT.
      01001  0020 00 0 00726         TRA     OOPS          UNHAPPY, GO GRIPE.
                              *
      01002  0 00000 0 00000  ONAME                        STORAGE FOR THE ENTRY NAME.
      01003  0 00000 0 00000  PORG                         PROGRAM ORIGIN, TEMP.
                              *
1            A.DEBUG               SYMBOLIC DEBUGGING AID FOR A-CORE.                            PAGE 22
                                         INTEGER (BASE 10 AND 8) INPUT CONVERSION.

                              *              OCTIN.        OCTAL TO BINARY CONVERSION.
      01004  0600 00 0 01077  OCTIN  CLEAR   SFT           FULL WORD, RESET SHIFT FLAG.
      01005  0560 00 0 11305         LDQ     =O10          BASE IS 8.
      01006  0020 00 0 01014         TRA     IJIN          GO JOIN INTIN AND JNTIN.
                              *
                              *              DECIMAL TO BINARY CONVERSION, INPUT.
      01007  0600 00 0 01077  INTIN  CLEAR   SFT           FULL WORD, DON'T SHIFT.
      01010  0560 00 0 11307         LDQ     =10           BASE IS 10.
      01011  0020 00 0 01014         TRA     IJIN          GO TO COMMON SECTION.
                              *
      01012 -0625 00 0 01077  JNTIN  SETF    SFT           DECREMENT INTEGER, SHIFT AFTER CONVERSION.
      01013  0560 00 0 11307         LDQ     =10           BASE IS 10.
      01014 -0600 00 0 01103  IJIN   STQ     BASE          SAVE THE BASE.
      01015  0634 00 4 01067         SXA     XR,4          SAVE XR 4.
      01016  0600 00 0 01100         STZ     NUM
      01017  0600 00 0 01102         CLEAR   SGN
      01020  0074 00 4 01336         TSX     TYI,4         GET THE NEXT CHARACTER.
      01021                          TEQ     IDIG1,=H00000+ IGNORE PLUS SIGN.
      01024                          TEQ     IMIN,=H00000- TAKE CARE OF MINUS SIGN.
      01027  0340 00 0 01103         CAS     BASE          IS IT A DIGIT.Q
      01030  0020 00 0 00203         TRA     ILF           NO, COMPLAIN.
      01031  0761 00 0 00000         NOP                   YES,
      01032  0020 00 0 01040         TRA     ICNV          GO INTO CONVERSION LOOP.
                              *
      01033 -0625 00 0 01102  IMIN   SETF    SGN           MINUS SIGN, SET FLAG.
      01034  0074 00 4 01336  IDIG1  TSX     TYI,4         GET THE NEXT CHARACTER.
      01035  0340 00 0 01103         CAS     BASE          IS IT A DIGIT.Q
      01036  0020 00 0 00203         TRA     ILF           NO, COMPLAIN.
      01037  0761 00 0 00000         NOP                   YES,
      01040  0601 00 0 01101  ICNV   STO     DGT           SAVE IT.
      01041  0140 00 0 01041         TOV     *             TURN OFF OVERFLOW LIGHT.
      01042  0560 00 0 01100         LDQ     NUM           GET THE PREVIOUS NUMBER.
      01043  0200 00 0 01103         MPY     BASE          INCREASE IT BY THE NEW PLACE.
      01044  0763 00 0 00043         LLS     35            MOVE RESULT TO AC.
      01045  0400 00 0 01101         ADD     DGT           ADD IN THE NEW DIGIT.
      01046  0601 00 0 01100         STO     NUM           SAVE THE RESULT.
      01047  0140 00 0 01071         TOV     OVDC          IF OVERFLOW, COMPLAIN.
      01050  0074 00 4 01336         TSX     TYI,4         GET THE NEXT CHARACTER.
      01051  0340 00 0 01103         CAS     BASE          IS IT A DIGIT.
      01052  0020 00 0 01055         TRA     IFMT          NO, GO CLEAN UP.
      01053  0761 00 0 00000         NOP                   YES,
      01054  0020 00 0 01040         TRA     ICNV          RETURN TO CONVERSION LOOP.
                              *
      01055  0601 00 0 01101  IFMT   STO     DGT           SAVE THE TERMINATIGN CHARACTER.
      01056  0500 00 0 01100         CLA     NUM           GET THE NUMBER.
      01057  0520 00 0 01102         ZET     SGN           SHOULD IT BE NEGATIVE.Q
      01060 -0760 00 0 00003         SSM                   YES, MAKE IT SO.
      01061  0140 00 0 01061         TOV     *             TURN OFF OVERFLOW LIGHT.
      01062  0520 00 0 01077         ZET     SFT           SHOULD WE SHIFT IT.Q
      01063  0767 00 0 00022         ALS     18            YES, DO SO.
      01064  0140 00 0 01074         TOV     OVFC          IF TOO BIG, COMPLAIN.
      01065  0131 00 0 00000         XCA                   MOVE THE RESULT TO THE MQ.
      01066  0500 00 0 01101         CLA     DGT           GET THE TERMINAL CHARACTER.
      01067  0774 00 4 00000  XR     AXT     ..,4
      01070  0020 00 4 00001         TRA     1,4
1            A.DEBUG               SYMBOLIC DEBUGGING AID FOR A-CORE.                            PAGE 23
                                         INTEGER (BASE 10 AND 8) INPUT CONVERSION.

                              *
      01071                   OVDC   TYPE    5,(OVERFLOW DURING CONVERSION.*)
      01073  0020 00 0 00726         TRA     OOPS
                              *
      01074                   OVFC   TYPE    5,(OVERFLOW DURING SHIFTING.*)
      01076  0020 00 0 00726         TRA     OOPS
                              *
      01077  0 00000 0 00000  SFT
      01100  0 00000 0 00000  NUM                          ACCUMULATING NUMBER.
      01101  0 00000 0 00000  DGT                          CURRENT CHARACTER.
      01102  0 00000 0 00000  SGN                          FLAG.. IS NUMBER NEGATIVE.Q
      01103  0 00000 0 00000  BASE                         NUMBER CONVERSION BASE.
                              *
1            A.DEBUG               SYMBOLIC DEBUGGING AID FOR A-CORE.                            PAGE 24
                           FLOIN.        FLOATING POINT DECIMAL INPUT CONVERSION.

      01104  0634 00 4 01243  FLOIN  SXA     FXRC,4        SAVE RETURN.
      01105  0634 00 2 01244         SXA     FXRB,2
      01106  0600 00 0 01333         STZ     MAG           CLEAR THE MAGNITUDE.
      01107  0600 00 0 01334         CLEAR   MSG           SIGN OF MAGNITUDE.
      01110  0774 00 2 00000         AXT     0,2
      01111  0560 00 0 00010         LDQ     8             PICK UP AND.
      01112 -0600 00 0 01335         STQ     FPT           SAVE FPT LOCATION.
      01113  0560 00 0 00000         LDQ     0             ALSO SAVE THE F.P. ERROR CODE LOC.
      01114 -0600 00 0 01332         STQ     FPZ
      01115  0560 00 0 01331         LDQ     TTR           INSERT IN IT A TRANSFER BACK HERE.
      01116 -0600 00 0 00010         STQ     8
      01117  0074 00 4 01336         TSX     TYI,4         GET THE NEXT CHARACTER.
      01120                          TEQ     FDIG1,=H00000+ IGNORE PLUS SIGN.
      01123                          TEQ     MMI,=H00000-  TAKE CARE OF MINUS SIGN.
      01126                   FRET1  TEQ     FRAC1,=H00000. GO TO FRACTION SECTION, IF NECESSARY.
      01131  0340 00 0 11306         CAS     =9            IS IT A DIGIT.Q
      01132  0020 00 0 01255         TRA     FILF          NO, COMPLAIN.
      01133  0761 00 0 00000         NOP                   YES,
      01134  0020 00 0 01140         TRA     FCNV          GO INTO CONVERSION LOOP.
                              *
      01135 -0625 00 0 01334  MMI    SETF    MSG           SET NEGATIVE FLAG.
      01136  0074 00 4 01336  FDIG1  TSX     TYI,4         GET THE NEXT CHARACTER.
      01137  0020 00 0 01126         TRA     FRET1         GO CHECK IT OUT.
                              *
      01140 -0501 00 0 11342  FCNV   ORA     =O233000000000 FLOAT THE DIGIT.
      01141  0300 00 0 11342         FAD     =O233000000000 ..
      01142  0601 00 0 01101         STO     DGT           SAVE IT.
      01143  0560 00 0 01333         LDQ     MAG           INCREASE MAGNITUDE FOR NEW PLACE.
      01144  0260 00 0 11337         FMP     =10.          ..
      01145  0300 00 0 01101         FAD     DGT           ADD IN THE NEW DIGIT.
      01146  0601 00 0 01333         STO     MAG           SAVE THE RESULT.
      01147  0074 00 4 01336         TSX     TYI,4         GET THE NEXT CHARACTER.
      01150                          TEQ     FRAC2,=H00000. GO TO FRACTION SECTION, IF PERIOD.
      01153                          TEQ     E,=H00000E    GO TO EXPONENT, IF E.
      01156  0340 00 0 11306         CAS     =9            IS IT A DIGIT.Q
      01157  0020 00 0 01231         TRA     FFMT          NO, CLEAN UP.
      01160  0761 00 0 00000         NOP                   YES,
      01161  0020 00 0 01140         TRA     FCNV          CONTINUE CONVERSION LOOP.
                              *
      01162  0074 00 4 01336  FRAC1  TSX     TYI,4         GET THE NEXT CHARACTER.
      01163  0340 00 0 11306         CAS     =9            IS IT A DIGIT.Q
      01164  0020 00 0 01255         TRA     FILF          NO, COMPLAIN.
      01165  0761 00 0 00000         NOP                   YES,
      01166  1 00001 2 01167         TXI     *+1,2,1       BUMP EXPONENT BY ONE.
      01167  3 00046 2 01246  FRCNV  TXH     ERR,2,38      COMPLAIN IF TOO BIG.
      01170 -0501 00 0 11342         ORA     =O233000000000 FLOAT THE DIGIT.
      01171  0300 00 0 11342         FAD     =O233000000000 ..
      01172  0241 00 2 01330         FDP     TEN,2         COMPUTE ITS APPARENT VALUE.
      01173  0131 00 0 00000         XCA                   MOVE THE RESULT TO THE AC.
      01174  0300 00 0 01333         FAD     MAG           ADD IT INTO THE NUMBER.
      01175  0601 00 0 01333         STO     MAG           SAVE THE RESULT.
      01176  0074 00 4 01336  FRAC2  TSX     TYI,4         GET THE NEXT CHARACTER.
      01177                          TEQ     E,=H00000E    GO TO EXPONENT IF E.
      01202  0340 00 0 11306         CAS     =9            IS IT A DIGIT.Q
      01203  0020 00 0 01231         TRA     FFMT          NO, CLEAN UP.
1            A.DEBUG               SYMBOLIC DEBUGGING AID FOR A-CORE.                            PAGE 25
                           FLOIN.        FLOATING POINT DECIMAL INPUT CONVERSION.

      01204  0761 00 0 00000         NOP                   YES,
      01205  1 00001 2 01167         TXI     FRCNV,2,1     BUMP POWER AND CONTINUE LOOP.
                              *
      01206  0560 00 0 01335  E      LDQ     FPT           RESTORE USER'S 0 AND 8.
      01207 -0600 00 0 00010         STQ     8             ..
      01210  0560 00 0 01332         LDQ     FPZ           ..
      01211 -0600 00 0 00000         STQ     0             ..
      01212  0074 00 4 01007         TSX     INTIN,4       GET THE EXPONENT OF TEN.
      01213  0601 00 0 01101         STO     DGT           SAVE THE TERMINAL CHARACTER.
      01214  0131 00 0 00000         XCA                   MOVE THE NUMBER TO THE AC.
      01215  0734 00 2 00000         PAX     ,2            THENCE TO XR.
      01216  0560 00 0 01331         LDQ     TTR           RESTORE OUR FPT SETTING.
      01217 -0600 00 0 00010         STQ     8             ..
      01220  3 00046 2 01246         TXH     ERR,2,38      IS IT REASONABLE.Q
      01221 -0120 00 0 01225         TMI     FDIV          YES, IF NEGATIVE, WE MUST DIVIDE.
      01222  0560 00 0 01333         LDQ     MAG           POSITIVE,
      01223  0260 00 2 01330         FMP     TEN,2         MULTIPLY.
      01224  0020 00 0 01233         TRA     FASSGN        GO ATTACH THE SIGN.
                              *
      01225  0500 00 0 01333  FDIV   CLA     MAG           NEGATIVE,
      01226  0241 00 2 01330         FDP     TEN,2         DIVIDE BY POWER OF TEN.
      01227  0131 00 0 00000         XCA                   MOVE RESULT TO AC.
      01230  0020 00 0 01233         TRA     FASSGN        ATTACH THE SIGN.
                              *
      01231  0601 00 0 01101  FFMT   STO     DGT           SAVE THE TERMINAL CHARACTER.
      01232  0500 00 0 01333         CLA     MAG           GET THE NUMBER.
      01233  0520 00 0 01334  FASSGN ZET     MSG           SHOULD IT BE NEGATIVE.Q
      01234 -0760 00 0 00003         SSM                   YES, MAKE IT SO.
      01235  0131 00 0 00000         XCA                   MOVE THE RESULT TO THE MQ.
      01236  0500 00 0 01335         CLA     FPT           RESTORE LOCATION 8.
      01237  0601 00 0 00010         STO     8             ..
      01240  0500 00 0 01332         CLA     FPZ           AND 0.
      01241  0601 00 0 00000         STO     0             ..
      01242  0500 00 0 01101         CLA     DGT           GET THE TERMINAL CHARACTER.
      01243  0774 00 4 00000  FXRC   AXT     ..,4          RESTORE THE INDEX REGISTERS.
      01244  0774 00 2 00000  FXRB   AXT     ..,2          ..
      01245  0020 00 4 00001         TRA     1,4           RETURN TO CALLER.
                              *
      01246                   ERR    TYPE    5,(F.P. NUMBER OUT OF RANGE.*)
      01250  0500 00 0 01335         CLA     FPT           RESTORE LOCATIONS 0 AND 8.
      01251  0601 00 0 00010         STO     8             ..
      01252  0500 00 0 01332         CLA     FPZ           ..
      01253  0601 00 0 00000         STO     0             ..
      01254  0020 00 0 00726         TRA     OOPS          DO NOT RETURN TO CALLER.
                              *
      01255  0560 00 0 01332  FILF   LDQ     FPZ           RESTORE FP TRAP LOCATIONS.
      01256 -0600 00 0 00000         STQ     0             ..
      01257  0560 00 0 01335         LDQ     FPT           ..
      01260 -0600 00 0 00010         STQ     8             ..
      01261  0020 00 0 00203         TRA     ILF           GO GRIPE ABOUT CHARACTER.
                              *
      01262 +377454732313            DEC     1E38,1E37,1E36,1E35,1E34,1E33,1E32,1E31,1E30
      01273 +341503074077            DEC     1E29,1E28,1E27,1E26,1E25,1E24,1E23,1E22,1E21,1E20
      01305 +300425434430            DEC     1E19,1E18,1E17,1E16,1E15,1E14,1E13,1E12,1E11,1E10
      01317 +236734654500            DEC     1E9,1E8,1E7,1E6,1E5,1E4,1E3,1E2,1E1
1            A.DEBUG               SYMBOLIC DEBUGGING AID FOR A-CORE.                            PAGE 26
                           FLOIN.        FLOATING POINT DECIMAL INPUT CONVERSION.

      01330 +201400000000     TEN    DEC     1.            TABLE OF POWERS OF TEN.
                              *
      01331  0021 00 0 01246  TTR    TTR     ERR           INSTRUCTION TO BE STORED IN LOC 8.
      01332  0 00000 0 00000  FPZ                          STORAGE FOR LOCATION 0.
      01333  0 00000 0 00000  MAG                          MAGNITUDE OF NUMBER.
      01334  0 00000 0 00000  MSG                          SIGN OF MAGNITUDE.
      01335  0 00000 0 00000  FPT                          STORAGE FOR CONTENTS OF LOCATION 8.
                              *
1            A.DEBUG               SYMBOLIC DEBUGGING AID FOR A-CORE.                            PAGE 27
                           TYI.          SINGLE CHARACTER INPUT PACKAGE.

      01336  0634 00 4 01371  TYI    SXA     TYIX,4        SAVE RETURN INDEX.
      01337  0774 00 4 00000  TYICP  AXT     ..,4          REMEMBER HOW MANY CHARACTERS IN THIS WORD.
      01340 -0520 00 0 01426         NZT     CRFLG         SKIP TEST IF BUFFER EMPTY.
      01341  2 00006 4 01345         TIX     TYIMIW,4,6    COUNT THIS CHARACTER, IF ANY.
      01342  0074 00 4 01407         TSX     GWORD,4       GET THE NEXT WORD.
      01343  0601 00 0 01427         STO     TYIB          SAVE IT.
      01344  0774 00 4 00044         AXT     36,4          RESET CHARACTER COUNT.
      01345  0634 00 4 01337  TYIMIW SXA     TYICP,4       SAVE THE NEW CHARACTER COUNT.
      01346  0560 00 0 01427         LDQ     TYIB          GET THE CURRENT WORD.
      01347 -0763 00 4 00052         LGL     42,4          SHIFT IN THE DESIRED CHARACTER.
      01350 -0320 00 0 11326         ANA     =O77          MASK OFF THE CHARACTER.
      01351  0340 00 0 11320         CAS     =O55          IS IT A CARRIAGE RETURN.Q
      01352  0020 00 0 01354         TRA     *+2           NO, PROCEED.
      01353 -0625 00 0 01426         SETF    CRFLG         YES, SIGNAL BUFFER EMPTY.
      01354  0340 00 0 11311         CAS     =H00000'      IS IT AN APOSTROPHE.Q
      01355  0020 00 0 01357         TRA     *+2           NO,
      01356  0500 00 0 11320         CLA     =O55          YES, SUBSTITUTE A CARR. RET.
      01357 -0340 00 0 11310         LAS     =H00000=      IF IT IS A = (CONCATENATION CHAR.).
      01360  0020 00 0 01362         TRA     *+2
      01361  0500 00 0 11320         CLA     =O55          MAKE IT A CARR. RET.
      01362 -0340 00 0 11324         LAS     =O72          IF IT IS A TABULATE,
      01363  0020 00 0 01365         TRA     *+2
      01364 -0500 00 0 11321         CAL     =O60          MAKE IT A BLANK.
      01365                          TBL     CHPRE         IF BLANK, CHECK PREVIOUS CHARACTER.
      01370  0602 00 0 01425  OUT    SLW     PREVCH        OK, SAVE AS PREVIOUS CHAR.
      01371  0774 00 4 00000  TYIX   AXT     ..,4          RESTORE RETURN INDEX.
      01372  0020 00 4 00001         TRA     1,4
                              *
      01373                   CHPRE  TEQ     TYICP,PREVCH  IF LAST CHARACTER WAS BLANK, TRY AGAIN.
      01376  0020 00 0 01370         TRA     OUT           OTHERWISE EXIT W/ THIS BLANK.
                              *
1            A.DEBUG               SYMBOLIC DEBUGGING AID FOR A-CORE.                            PAGE 28
                           SKIPCR.       FIND BEGINNING OF NEXT REQUEST.

      01377  0634 00 4 01405  SKIPCR SXA     SKX,4         SAVE RETURN.
      01400 -0500 00 0 01425         CAL     PREVCH        LAST CHARACTER.
      01401  0020 00 0 01403         TRA     *+2
      01402  0074 00 4 01336         TSX     TYI,4         GET NEXT CHAR.
      01403  0322 00 0 11320         ERA     =O55          IS IT A CARR. RET.Q
      01404 -0100 00 0 01402         TNZ     *-2           NO, TRY AGAIN.
      01405  0774 00 4 00000  SKX    AXT     ..,4          YES, EXIT.
      01406  0020 00 4 00001         TRA     1,4
                              *
1            A.DEBUG               SYMBOLIC DEBUGGING AID FOR A-CORE.                            PAGE 29
                           GWORD.        GET NEXT WORD FROM INPUT LINE.

      01407  0634 00 4 01423  GWORD  SXA     GWX,4         SAVE RETURN INDEX.
      01410  0535 00 4 01430         LAC     GWBUF,4       REMEMBER CURRENT WORD.
      01411  1 77777 4 01412         TXI     *+1,4,-1      BUMP POINTER TO NEXT WORD.
      01412 -0520 00 0 01426         NZT     CRFLG         SKIP TEST IF BUFFER EMPTY.
      01413  3 77761 4 01421         TXH     GWMIB,4,-15   IS THERE ANY MORE IN BUFFER.Q
      01414  0074 00 4 02175         TSX     CR,4          NO, RETURN THE CARRIAGE.
      01415  0074 00 4 00000  TYICW  TSX     ..,4          READ A NEW BUFFER FULL.
      01416  3 00016 0 01431         PAR     GWBUF+1,,14   ..
      01417  0600 00 0 01426         CLEAR   CRFLG         INDICATE STUFF IN BUFFER.
      01420 -0774 00 4 00001         AXC     1,4           RESET COUNT OF WORDS.
      01421  0636 00 4 01430  GWMIB  SCA     GWBUF,4       SAVE POINTER FOR NEXT TIME.
      01422  0500 00 4 01430         CLA     GWBUF,4       GET THE CURRENT WORD.
      01423  0774 00 4 00000  GWX    AXT     ..,4          RESTORE RETURN INDEX.
      01424  0020 00 4 00001         TRA     1,4           RETURN TO CALLER.
                              *
      01425 +000000000055     PREVCH OCT     55            AT BEGINNING, WE ARE SET UP OK.
      01426  0 00000 0 01426  CRFLG          *             FIRST TIME, WE HAVE NO LINE IN BUFFER.
      01427  0 00000 0 00000  TYIB                         CURRENT INPUT WORD.
      01430  0 00000 0 00000  GWBUF                        INPUT LINE BUFFER.
      01431                          BSS     14            ..
                              *
1            A.DEBUG               SYMBOLIC DEBUGGING AID FOR A-CORE.                            PAGE 30
                           DIFDMP.       VERIFY OR DIFFERENTIAL DUMP.

                              *      COMPARE RELOCATABLE BINARY CARDS IN FILE NAME (IN LOGICAL AC)
                              *      BSS WITH PROGRAM WHOSE ORIGIN IS GIVEN IN MQ.  PRINT LOCATIONS
                              *      AND THEIR CONTENTS WHICH DISAGREE.
      01447  0634 00 4 01673  DIFDMP SXA     VXC,4         SAVE THE XR'S.
      01450  0634 00 2 01674         SXA     VXB,2
      01451  0634 00 1 01675         SXA     VXA,1
      01452 -0600 00 0 01003         STQ     PORG          ENTER W/ PROGRAM NAME IN THE AC.,
      01453  0602 00 0 01704         SLW     FILE          PROGRAM ORIGIN IN MQ.
      01454  0600 00 0 01702         CLEAR   CELL1         INITIALIZE PROGRAM CARD FLAG.
      01455                          OPEN    (=HR,FILE,((=H   BSS)),=-0,=-0,DERR) OPEN THE FILE.
      01464                          BUFFER  (FILE,((=H   BSS)),(BUF1,,BUFLTH),DERR) ..
      01471                   CARDRD RDWAIT  (FILE,((=H   BSS)),=0,(CARD,,28),QUIT,=-0,DERR) GET CARD.
      01501  0500 00 0 01514         CLA     CARD
      01502  0120 00 0 01550         TPL     DATA          IF SIGN=1, WE HAVE PROGRAM CARD.
      01503  0520 00 0 01702         ZET     CELL1         IS THIS FIRST PROGRAM CARD.Q
      01504  0020 00 0 01471         TRA     CARDRD        NO, READ ANOTHER.
      01505 -0625 00 0 01702         SETF    CELL1         YES, GET PROGRAM BREAK.
      01506  0534 00 4 01516         LXA     CARD+2,4      GET PROGRAM BREAK.
      01507  1 77777 4 01510         TXI     *+1,4,-1      DECREASE IT TO GET LAST LOCATION USED.
      01510 -0634 00 4 01654         SXD     RELSIZ,4      SET UP RELOCATION SUBROUTINE.
      01511  0534 00 4 01003         LXA     PORG,4        GET PROGRAM ORIGIN.
      01512 -0634 00 4 01656         SXD     RELPRG,4      SET UP RELOCATION SUBROUTINE.
      01513  0020 00 0 01471         TRA     CARDRD
                              *
      01514                   CARD   BSS     28
                              *
      01550  0500 00 0 01514  DATA   CLA     CARD
      01551  0400 00 0 01003         ADD     PORG          RELOCATE THE 'LOAD ADDRESS'.
      01552  0600 00 0 00202         STZ     LOC
      01553  0621 00 0 00202         STA     LOC
      01554  0621 00 0 01605         STA     CHECK+1       SAVE FOR GETLOC
      01555  0621 00 0 01622         STA     CHKA          ..
      01556 -0320 00 0 11335         ANA     =O200077000000
      01557  0771 00 0 00022         ARS     18
      01560  0600 00 0 01703         STZ     COUNT
      01561  0621 00 0 01703         STA     COUNT         NUMBER OF PERTINENT WORDS ON CARD.
      01562  0767 00 0 00023         ALS     19
      01563 -0760 00 0 00001         PBT
      01564  0020 00 0 01677         TRA     NONREL        NON-RELOCATABLE CARD.
      01565 -0774 00 1 01520         AXC     CARD+4,1
      01566  0500 00 1 00000  RETURN CLA     0,1           PICK UP WORD.
      01567  0601 00 0 00731         STO     WORD
      01570  0074 00 4 01642         TSX     RELBIT,4      GET FIRST DECREMENT RELOCATION BIT.
      01571  0120 00 0 01577         TPL     NODEC         IF ZERO, DECREMENT IS ABSOLUTE.
      01572  0500 00 0 00731         CLA     WORD          IF ONE,
      01573  0771 00 0 00022         ARS     18            DECREMENT IS RELOCATABLE.
      01574  0074 00 4 01650         TSX     RELOC,4       DO SO.
      01575  0767 00 0 00022         ALS     18            THEN,
      01576  0622 00 0 00731         STD     WORD          REPLACE THE NEW VERSION.
      01577  0074 00 4 01642  NODEC  TSX     RELBIT,4      GET THE FIRST ADDRESS BIT.
      01600  0120 00 0 01604         TPL     CHECK         IF ZERO, ADDRESS IS ABSOLUTE.
      01601  0500 00 0 00731         CLA     WORD          IF ONE, ADDRESS IS RELOCATABLE.
      01602  0074 00 4 01650         TSX     RELOC,4       DO SO.
      01603  0621 00 0 00731         STA     WORD          REPLACE THE NEW VERSION.
      01604                   CHECK  TSS     GETLOC        PICK UP LOC'N FROM A-CORE
1            A.DEBUG               SYMBOLIC DEBUGGING AID FOR A-CORE.                            PAGE 31
                           DIFDMP.       VERIFY OR DIFFERENTIAL DUMP.

      01605  0 00000 0 00000         PZE     **            ..
      01606                          TEQ     FINCYC,WORD   IF IT MATCHES, DON'T PRINT.
      01611                          FLDPRT  LOC           TYPE LOCATION.
      01613                          TYO     =H00000/
      01615  0074 00 4 02177         TSX     TAB,4         BCD TABULATE.
      01616  0500 00 0 00731         CLA     WORD          PRINT OUT OLD CONTENTS.
      01617  0522 00 0 00461         XEC     CTSX
      01620  0074 00 4 02177         TSX     TAB,4         BCD TABULATE.
      01621                          TSS     GETLOC        PICK UP THE WORD
      01622  0 00000 0 00000  CHKA   PZE     **            ..
      01623  0522 00 0 00461         XEC     CTSX          TYPE THE WORD.
      01624  0074 00 4 02175         TSX     CR,4          END OF LINE, CARRIAGE RETURN.
      01625 -0500 00 0 00202  FINCYC CAL     LOC
      01626  0400 00 0 11302         ADD     =1
      01627  0602 00 0 00202         SLW     LOC
      01630  0621 00 0 01605         STA     CHECK+1       SAVE FOR GETLOC
      01631  0621 00 0 01622         STA     CHKA          ..
      01632  1 77777 1 01633         TXI     *+1,1,-1
      01633  0520 00 0 02133         ZET     INRUPT        HAS THERE BEEN AN INTERRUPT.Q
      01634  0020 00 0 01665         TRA     QUIT          YES, STOP.
      01635 -0500 00 0 01703         CAL     COUNT
      01636  0402 00 0 11302         SUB     =1
      01637  0602 00 0 01703         SLW     COUNT
      01640 -0100 00 0 01566         TNZ     RETURN
      01641  0020 00 0 01471         TRA     CARDRD        GO READ NEXT CARD.
                              *
1            A.DEBUG               SYMBOLIC DEBUGGING AID FOR A-CORE.                            PAGE 32
                           RELBIT.       GET NEXT RELOCATION BIT.

      01642  0500 00 0 01516  RELBIT CLA     CARD+2        GET THE TWO WORDS OF BITS.
      01643  0560 00 0 01517         LDQ     CARD+3        ..
      01644 -0763 00 0 00001         LGL     1             MOVE LEFT ONE POSITION.
      01645  0602 00 0 01516         SLW     CARD+2        SAVE THE TWO NEW WORDS.
      01646 -0600 00 0 01517         STQ     CARD+3        ..
      01647  0020 00 4 00001         TRA     1,4           RETURN TO CALLER WITH BIT IN AC SIGN.
                              *
1            A.DEBUG               SYMBOLIC DEBUGGING AID FOR A-CORE.                            PAGE 33
                           RELOC.        RELOCATE FIELD IN A(AC).

      01650  0634 00 4 01660  RELOC  SXA     RELXC,4       SAVE RETURN INDEX.
      01651  0634 00 1 01661         SXA     RELXA,1       ..
      01652  0734 00 1 00000         PAX     ,1            GET FIELD TO BE RELOCATED.
      01653  0074 00 4 01642         TSX     RELBIT,4      GET THE NEXT RELOCATION BIT.
      01654  3 00000 1 01663  RELSIZ TXH     OUTSID,1,..   IS FIELD WITHIN SUBPROGRAM.Q
      01655 -0120 00 0 01664         TMI     RELCOM        YES, BIT ON MEANS COMMON RELOCATION.
      01656  1 00000 1 01657  RELPRG TXI     *+1,1,..      BIT OFF MEANS RELOCATION WITH SUBPROGRAM.
      01657  0754 00 1 00000  RELXIT PXA     ,1            GET THE RELOCATED FIELD.
      01660  0774 00 4 00000  RELXC  AXT     ..,4          RESTORE RETURN INDEX.
      01661  0774 00 1 00000  RELXA  AXT     ..,1          ..
      01662  0020 00 4 00001         TRA     1,4           RETURN TO CALLER.
                              *
      01663 -0120 00 0 01656  OUTSID TMI     RELPRG        OUTSIDE, ONE MEANS RELOCATE W/ SUBPROGRAM.
      01664  1 00000 1 01657  RELCOM TXI     RELXIT,1,COMMON-77461K ZERO MEANS COMMON RELOCATION.
                              *
                       77461  COMMON COMMON  0             WHERE COMMON REALLY IS.
                      077461  77461K BOOL    77461         WHERE IT SHOULD BE.
                              *
1            A.DEBUG               SYMBOLIC DEBUGGING AID FOR A-CORE.                            PAGE 34
                                         EXIT FROM VERIFY.

      01665                   QUIT   CLOSE   (FILE,((=H   BSS)),DERR) CLOSE THE FILE.
      01671                   VDONE  TYPE    3,(COMPARISON DONE.*)
      01673  0774 00 4 00000  VXC    AXT     ..,4
      01674  0774 00 2 00000  VXB    AXT     ..,2
      01675  0774 00 1 00000  VXA    AXT     ..,1
      01676  0020 00 4 00001         TRA     1,4           AND EXIT.
                              *
      01677                   NONREL TYPE    6,(BINARY CARD IS NON-RELOCATABLE.*)
      01701  0020 00 0 01665         TRA     QUIT          GIVE UP AND GET OUT OF HERE.
                              *
      01702  0 00000 0 00000  CELL1                        FLAG.. FIRST PROGRAM CARD ALREADY READ.
      01703  0 00000 0 00000  COUNT                        NUMBER OF WORDS ON CARD.
      01704  0 00000 0 00000  FILE                         PRIMARY FILE NAME.
                              *
1            A.DEBUG               SYMBOLIC DEBUGGING AID FOR A-CORE.                            PAGE 35
                           CHFIL.        CHECK FOR PRELIMINARY INPUT FROM A FILE.

      01705  0634 00 4 01726  CHFIL  SXA     CHXC,4        SAVE RETURN.
      01706  0774 00 4 02053         AXT     RDFLXA,4      SET UP TO READ FROM CONSOLE.
      01707  0634 00 4 01415         SXA     TYICW,4
      01710                          TSS     GETCOM        GET THE FIRST COMMAND ARGUMENT.
      01711  0 00000 0 00001                 1
      01712                          TEQ     CHXC,=O777777777777 EXIT IF FIRST ARGUMENT IS FENCE.
      01715  0602 00 0 00665         SLW     NAME          REMEMBER IT.
      01716  0074 00 4 11243         TSX     GETCOM,4      GET THE SECOND ARGUMENT.
      01717  0 00000 0 00002                 2
      01720                          TNE     CHXC,=O777777777777 NO FILE IF MORE THAN ONE ARGUMENT.
      01724  0074 00 4 01730         TSX     SETF,4        SET UP FOR READING FROM A FILE.
      01725  3 00000 0 00665         PAR     NAME
      01726  0774 00 4 00000  CHXC   AXT     ..,4          RESTORE XR 4.
      01727  0020 00 4 00001         TRA     1,4           EXIT.
                              *
1            A.DEBUG               SYMBOLIC DEBUGGING AID FOR A-CORE.                            PAGE 36
                           SETF.         SET UP FOR READING FROM A FILE.

      01730  0634 00 4 01751  SETF   SXA     SETFX,4       SAVE RETURN.
      01731  0500 60 4 00001         CLA*    1,4           GET THE FILE NAME.
      01732  0601 00 0 01753         STO     TYIF          SAVE IT.
      01733                          OPEN    (=HR,TYIF,((=H DEBUG)),=-0,=-0,DERR) OPEN THE FILE.
      01742                          BUFFER  (TYIF,((=H DEBUG)),(BUF2,,BUFLTH),DERR) ..
      01747  0774 00 4 01754         AXT     READF,4       BUGGER TYI TO READ FROM FILE.
      01750  0634 00 4 01415         SXA     TYICW,4       ..
      01751  0774 00 4 00000  SETFX  AXT     ..,4          RESTORE RETURN.
      01752  0020 00 4 00001         TRA     1,4           EXIT.
                              *
      01753  0 00000 0 00000  TYIF                         INPUT FILE NAME.
                              *
1            A.DEBUG               SYMBOLIC DEBUGGING AID FOR A-CORE.                            PAGE 37
                           READF.        READ LINE FROM FILE.

      01754  0634 00 4 01772  READF  SXA     READX,4       SAVE RETURN.
      01755  0500 00 4 00001         CLA     1,4           GET THE CONTROL WORD.
      01756  0601 00 0 01764         STO     READCW+4      SET UP CALL TO DISK SUPERVISOR.
      01757  0621 00 0 01771         STA     FIXCW         SET UP CARRIAGE RETURN INSERTER.
      01760                   READCW RDWAIT  (TYIF,((=H DEBUG)),=0,(..,,..),RFEND,=-0,RFERR) GET LINE.
      01770  0074 00 4 01774         TSX     FIXCR,4       FIX UP THE CARRIAGE RETURN.
      01771  3 00000 0 00000  FIXCW  PAR     ..
      01772  0774 00 4 00000  READX  AXT     ..,4          RESTORE RETURN.
      01773  0020 00 4 00002         TRA     2,4           EXIT.
                              *
1            A.DEBUG               SYMBOLIC DEBUGGING AID FOR A-CORE.                            PAGE 38
                           FIXCR.        INSERT CR AT END OF LINE READ FROM FILE.

      01774  0634 00 4 02031  FIXCR  SXA     FIXXC,4       SAVE THE XR'S.
      01775  0634 00 1 02030         SXA     FIXXA,1
      01776  0500 00 4 00001         CLA     1,4           GET THE CONTROL WORD.
      01777  0400 00 0 11310         ADD     =11           COMPUTE ADDRESS OF LAST WORD.
      02000  0621 00 0 02005         STA     SWD           SET UP OUR CAL, SLW, STQ.
      02001  0621 00 0 02026         STA     SFW
      02002  0400 00 0 11302         ADD     =1
      02003  0621 00 0 02027         STA     SRW
      02004  0774 00 1 00000         AXT     0,1           BEGIN W/ THE LAST WORD.
      02005 -0500 00 1 00000  SWD    CAL     ..,1          GET THE WORD.
      02006                          TEQ     ALLB,=H       IS IT ALL BLANK.Q
      02011  0774 00 4 00044         AXT     36,4          SET UP COUNT OF 36 BITS.
      02012  0560 00 0 11301  SCH    LDQ     =0            CLEAR THE MQ.
      02013 -0765 00 0 00006         LGR     6             GET THE RIGHT-HAND CHARACTER.
      02014 -0773 00 0 00006         RQL     6             MOVE IT TO THE RIGHT OF THE MQ.
      02015 -0130 00 0 00000         XCL                   THEN TO THE AC.
      02016                          TBL     STILLB        IF A BLANK, GO CHECK THE NEXT.
      02021 -0130 00 0 00000         XCL                   RESTORE THE CHARACTERS TO ITS LEFT.
      02022 -0773 00 0 00036         RQL     30            GET IT BACK INTO POSITION.
      02023 -0763 00 0 00006         LGL     6
      02024  0560 00 0 11361         LDQ     =O556060606060 GET THE WORD FILLER.
      02025 -0763 00 4 00044         LGL     36,4          RESTORE THE WORD.
      02026  0602 00 1 00000  SFW    SLW     ..,1          REPLACE IT.
      02027 -0600 00 1 00000  SRW    STQ     ..,1          REPLACE THE WORD TO ITS RIGHT.
      02030  0774 00 1 00000  FIXXA  AXT     ..,1          RESTORE THE XR'S.
      02031  0774 00 4 00000  FIXXC  AXT     ..,4
      02032  0020 00 4 00001         TRA     1,4           EXIT.
                              *
      02033 -0130 00 0 00000  STILLB XCL                   RESTORE THE TWO HALVES.
      02034  1 77772 4 02012         TXI     SCH,4,-6      COUNT CHARACTER AND GO GET THE NEXT.
                              *
      02035  1 00001 1 02036  ALLB   TXI     *+1,1,1       MOVE POINTER TO NEXT WORD.
      02036 -3 00014 1 02005         TXL     SWD,1,12      IF NOT DONE, GET THE NEXT WORD.
      02037  0560 00 0 11361         LDQ     =O556060606060 OTHERWISE, GET THE CARRIAGE RETURN CODE.
      02040  0020 00 0 02027         TRA     SRW           INSERT IT AS THE FIRST WORD.
                              *
1            A.DEBUG               SYMBOLIC DEBUGGING AID FOR A-CORE.                            PAGE 39
                                         RESTORE CONSOLE INPUT.

      02041  0774 00 4 02053  RFERR  AXT     RDFLXA,4      ERROR ON READING, SET TO CONSOLE INPUT.
      02042  0634 00 4 01415         SXA     TYICW,4       ..
      02043  0020 00 0 06321         TRA     DERR          GET DISK DIAGNOSTIC.
                              *
      02044  0774 00 4 02053  RFEND  AXT     RDFLXA,4      RESTORE TYI TO READ FROM CONSOLE.
      02045  0634 00 4 01415         SXA     TYICW,4       ..
      02046                          CLOSE   (TYIF,((=H DEBUG)),DERR) CLOSE THE FILE.
      02052  0534 00 4 01772         LXA     READX,4       RESTORE RETURN.
      02053  0101 00 0 11355  RDFLXA TIA     =HRDFLXA      AND CALL RDFLXA.
                              *
1            A.DEBUG               SYMBOLIC DEBUGGING AID FOR A-CORE.                            PAGE 40
                                         TYPE LINE OF TEXT TERMINATED BY ASTERISK.

      02054 -0625 00 0 02105  TYPE   SETF    TYPCR         SET CARRIAGE RETURN FLAG.
      02055  0020 00 0 02057         TRA     TYPJ          GO TO ROUTINE.
                              *
      02056  0600 00 0 02105  TYPA   CLEAR   TYPCR         CLEAR CARRIAGE RETURN FLAG.
      02057  0634 00 4 02101  TYPJ   SXA     TYPXC,4       SAVE THE INDEX REGISTERS.
      02060  0634 00 1 02102         SXA     TYPXA,1
      02061  0634 00 2 02103         SXA     TYPXB,2
      02062  0500 00 4 00001         CLA     1,4           GET THE CONTROL WORD.
      02063  0737 00 1 00000         PAC     ,1            PLACE POINTER TO BCI STRING IN XR 1.
      02064  0560 00 1 00000  TYPG   LDQ     0,1           GET A WORD FROM CALLER.
      02065  0774 00 2 00006         AXT     6,2           PREPARE TO COUNT 6 CHARACTERS.
      02066 -0754 00 0 00000  TYPL   ZAC                   CLEAR THE AC.
      02067 -0763 00 0 00006         LGL     6             SHIFT A CHARACTER INTO THE AC.
      02070                          TEQ     TYPX,=H00000* STOP IF CHARACTER IS ASTERISK.
      02073  0074 00 4 02137         TSX     TYO,4         TYPE IT.
      02074  2 00001 2 02066         TIX     TYPL,2,1      COUNT THE CHARACTERS IN THIS WORD.
      02075  1 77777 1 02064         TXI     TYPG,1,-1     DONE, COUNT THIS WORD.
                              *
      02076  0500 00 0 11320  TYPX   CLA     =O55          GET A CARRIAGE RETURN.
      02077  0520 00 0 02105         ZET     TYPCR         SHOULD WE TYPE IT.Q
      02100  0074 00 4 02137         TSX     TYO,4         YES, DO SO.
      02101  0774 00 4 00000  TYPXC  AXT     ..,4          RESTORE THE INDEX REGISTERS.
      02102  0774 00 1 00000  TYPXA  AXT     ..,1
      02103  0774 00 2 00000  TYPXB  AXT     ..,2
      02104  0020 00 4 00001         TRA     1,4           EXIT.
                              *
      02105  0 00000 0 00000  TYPCR                        CARRIAGE RETURN NEEDED FLAG.
                              *
1            A.DEBUG               SYMBOLIC DEBUGGING AID FOR A-CORE.                            PAGE 41
                           NOINT.        IGNORE INTERRUPT OCCURRING IN FAPDBG.

      02106 -0625 00 0 02133  NOINT  SETF    INRUPT        SET FLAG TO SHOW INTERRUPT OCCURRED.
      02107  0600 00 0 02134         CLEAR   INTOV         ASSUME OVERFLOW LIGHT NOT ON.
      02110 -0140 00 0 02112         TNO     *+2           TEST IT.
      02111 -0625 00 0 02134         SETF    INTOV         WAS ON, SET FLAG.
      02112  0602 00 0 02135         SLW     INTLA         SAVE THE LOGICAL AC.
      02113  0771 00 0 00002         ARS     2             SHIFT,
      02114  0601 00 0 02136         STO     INTSA         SAVE THE SIGNED AC.
      02115  0634 00 4 02131         SXA     INTXC,4       SAVE XR 4.
      02116                          TSS     GETBRK        GET THE LOCATION OF THE INTERRUPT.
      02117  0621 00 0 02132         STA     INTTRA        SET UP THE TRA.
      02120                          TSS     SETBRK        SET UP OUR ENTRY AGAIN.
      02121  0 00000 0 00415                 INT           ..
      02122  0500 00 0 02122         CLA     *             PREPARE TO TURN ON THE OVERFLOW LIGHT.
      02123  0767 00 0 00044         ALS     36            TURN IT ON.
      02124  0500 00 0 02136         CLA     INTSA         GET THE SIGNED AC.
      02125  0767 00 0 00002         ALS     2             SHIFT IT INTO POSITION.
      02126 -0501 00 0 02135         ORA     INTLA         INSERT THE LOGICAL AC.
      02127 -0520 00 0 02134         NZT     INTOV         SHOULD THE OVERFLOW LIGHT BE ON.Q
      02130  0140 00 0 02130         TOV     *             NO, TURN IT OFF.
      02131  0774 00 4 00000  INTXC  AXT     ..,4          RESTORE XR 4.
      02132  0020 00 0 00000  INTTRA TRA     ..            RETURN TO INTERRUPTED PROGRAM.
                              *
      02133  0 00000 0 00000  INRUPT                       FLAG.. INTERRUPT HAS OCCURRED.
      02134  0 00000 0 00000  INTOV                        FLAG.. OVERFLOW LIGHT WAS ON.
      02135  0 00000 0 00000  INTLA                        STORAGE FOR THE LOGICAL AC.
      02136  0 00000 0 00000  INTSA                        STORAGE FOR THE SIGNED AC.
                              *
1            A.DEBUG               SYMBOLIC DEBUGGING AID FOR A-CORE.                            PAGE 42
                           TYO.          SINGLE CHARACTER OUTPUT.

      02137  0634 00 4 02172  TYO    SXA     OXRC,4        SAVE RETURN.
      02140 -0600 00 0 02203         STQ     MQ            SAVE MQ.
      02141 -0320 00 0 11326         ANA     =O77          CONSIDER ONLY RIGHT CHARACTER.
      02142  0600 00 0 02204         CLEAR   PFLAG         CLEAR PRINT INDICATOR.
      02143 -0340 00 0 11320         LAS     =O55          IS IT A CARR. RET.
      02144  0020 00 0 02146         TRA     *+2           NO, CONTINUE.
      02145 -0625 00 0 02204         SETF    PFLAG         YES, SET PRINT INDICATOR.
      02146 -0765 00 0 00006         LGR     6             SHIFT CHARACTER INTO MQ.
      02147 -0500 00 0 02205         CAL     TYOB          GET THE WORD BEING ASSEMBLED.
      02150  0140 00 0 02150         TOV     *             TURN OFF OVERFLOW LIGHT.
      02151 -0763 00 0 00006         LGL     6             SHIFT IN NEW CHARACTER.
      02152 -0140 00 0 02155         TNO     TYOMIW        IS THERE ANY MORE ROOM IN THIS WORD.Q
      02153  0074 00 4 02206         TSX     SWORD,4       NO, STORE IT IN BUFFER.
      02154 -0500 00 0 11302         CAL     =1            GET EMPTY WORD.
      02155  0602 00 0 02205  TYOMIW SLW     TYOB          RESTORE THE WORD.
      02156 -0520 00 0 02204         NZT     PFLAG         IF PRINT INDICATOR IS OFF,
      02157  0020 00 0 02172         TRA     OXRC          EXIT.
      02160                          TEQ     TYOMT,=1      IS WORD COMPLETELY EMPTY.Q
      02163  0560 00 0 11362         LDQ     =O575757575757 NO, GET NULL CHARACTERS.
      02164 -0763 00 0 00006         LGL     6             SHIFT ONE INTO WORD.
      02165 -0140 00 0 02164         TNO     *-1           CONTINUE UNTIL WORD IS FULL.
      02166  0074 00 4 02206         TSX     SWORD,4       INSERT FILLED WORD INTO BUFFER.
      02167  0074 00 4 02221  TYOMT  TSX     FWORD,4       FORCE OUT THE BUFFER.
      02170 -0500 00 0 11302         CAL     =1            GET COMPLETELY EMPTY WORD.
      02171  0602 00 0 02205         SLW     TYOB          SAVE THE WORD.
      02172  0774 00 4 00000  OXRC   AXT     ..,4          RESTORE RETURN.
      02173  0560 00 0 02203         LDQ     MQ            AND MQ.
      02174  0020 00 4 00001         TRA     1,4           AND EXIT.
                              *
                              *              CR.           TYPE A CARRIAGE RETURN.
      02175  0500 00 0 11320  CR     CLA     =O55          GET THE CODE.
      02176  0020 00 0 02137         TRA     TYO           GO TYPE IT.
                              *
                              *              TAB.          TYPE A TABULATION CHARACTER.
      02177  0500 00 0 11324  TAB    CLA     =O72          GET THE CHARACTER CODE.
      02200  0020 00 0 02137         TRA     TYO           GO TYPE IT.
                              *
                              *              QUOTE.        TYPE A SINGLE QUOTE (APOSTROPHE).
      02201  0500 00 0 11311  QUOTE  CLA     =O14          GET THE CHARACTER CODE.
      02202  0020 00 0 02137         TRA     TYO           GO TYPE IT.
                              *
      02203  0 00000 0 00000  MQ
      02204  0 00000 0 00000  PFLAG
      02205  0 00000 0 00001  TYOB           1             WORD INITIALLY EMPTY.
                              *
1            A.DEBUG               SYMBOLIC DEBUGGING AID FOR A-CORE.                            PAGE 43
                           SWORD.        INSERT WORD IN OUTPUT BUFFER.

      02206  0634 00 4 02217  SWORD  SXA     SWXC,4        SAVE RETURN INDEX.
      02207  0535 00 4 02232         LAC     SWBUF,4       GET CURRENT BUFFER POINTER.
      02210  1 77777 4 02211         TXI     *+1,4,-1      BUMP TO POINT TO NEXT WORD.
      02211  0636 00 4 02232         SCA     SWBUF,4       REPLACE POINTER FOR NEXT TIME.
      02212  0602 00 4 02232         SLW     SWBUF,4       INSERT THIS WORD INTO BUFFER.
      02213  3 77762 4 02217         TXH     SWXC,4,-14    IS THERE ANY MORE ROOM IN BUFFER.Q
      02214                          TSS     WRFLXA        NO, TYPE OUT THE BUFFER.
      02215  3 00016 0 02233         PAR     SWBUF+1,,14   ..
      02216  0600 00 0 02232         STZ     SWBUF         RESET CURRENT WORD INDEX.
      02217  0774 00 4 00000  SWXC   AXT     ..,4          RESTORE RETURN INDEX.
      02220  0020 00 4 00001         TRA     1,4           RETURN TO CALLER.
                              *
1            A.DEBUG               SYMBOLIC DEBUGGING AID FOR A-CORE.                            PAGE 44
                           FWORD.        FORCE OUT OUTPUT BUFFER.

      02221  0634 00 4 02230  FWORD  SXA     FWXC,4        SAVE RETURN INDEX.
      02222  0534 00 4 02232         LXA     SWBUF,4       GET POINTER TO CURRENT WORD IN BUFFER.
      02223 -3 00000 4 02230         TXL     FWXC,4,0      IF EMPTY, IGNORE CALL.
      02224 -0634 00 4 02226         SXD     FWCW,4        IF NOT EMPTY, SET UP CONTROL WORD.
      02225                          TSS     WRFLXA        TYPE OUT THE BUFFER.
      02226  3 00000 0 02233  FWCW   PAR     SWBUF+1,,..   ..
      02227  0600 00 0 02232         STZ     SWBUF         RESET CURRENT WORD POINTER.
      02230  0774 00 4 00000  FWXC   AXT     ..,4          RESTORE RETURN INDEX.
      02231  0020 00 4 00001         TRA     1,4           RETURN TO CALLER.
                              *
      02232  0 00000 0 00000  SWBUF                        OUTPUT BUFFER.
      02233                          BSS     14            ..
                              *
1            A.DEBUG               SYMBOLIC DEBUGGING AID FOR A-CORE.                            PAGE 45
                                         TYPE UP TO SIX CHARACTERS IN AC.

                              *              BCDOUT.       TYPE ALL SIX CHARACTERS IN AC.
      02251  0600 00 0 02312  BCDOUT CLEAR   BOIG          RESET FLAG..  DON'T IGNORE BLANKS.
      02252  0020 00 0 02254         TRA     BOJN          GO JOIN NAMOUT.
                              *
                              *              NAMOUT.       TYPE NON-BLANK CHARACTERS IN AC.
      02253 -0625 00 0 02312  NAMOUT SETF    BOIG          SET FLAG..  IGNORE BLANKS.
      02254  0634 00 4 02270  BOJN   SXA     BOXC,4        SAVE RETURN INDEX.
      02255  0634 00 1 02271         SXA     BOXA,1        ..
      02256  0131 00 0 00000         XCA                   MOVE INPUT TO MQ.
      02257  0774 00 1 00006         AXT     6,1           SET UP COUNT OF SIX CHARACTERS.
      02260 -0754 00 0 00000  BOLP   ZAC                   CLEAR THE AC.
      02261 -0763 00 0 00006         LGL     6             GET THE NEXT CHARACTER.
      02262  0520 00 0 02312         ZET     BOIG          SHOULD WE TEST IT FOR BLANK.Q
      02263                          TBL     *+2           YES, WE SHOULD.  IS IT.Q
      02266  0074 00 4 02137         TSX     TYO,4         WE SHOULD TYPE IT.  DO SO.
      02267  2 00001 1 02260         TIX     BOLP,1,1      COUNT THIS CHARACTER.
      02270  0774 00 4 00000  BOXC   AXT     ..,4          RESTORE RETURN INDEX.
      02271  0774 00 1 00000  BOXA   AXT     ..,1          ..
      02272  0020 00 4 00001         TRA     1,4           RETURN TO CALLER.
                              *
1            A.DEBUG               SYMBOLIC DEBUGGING AID FOR A-CORE.                            PAGE 46
                           BCDIN.        BCD INPUT.

      02273  0634 00 4 02310  BCDIN  SXA     BCDIX,4
      02274 -0500 00 0 11367         CAL     =H            GET BLANKS.
      02275  0602 00 0 06304         SLW     BUFF          AND PUT THEM IN ASSEMBLY REGISTER.
      02276  0074 00 4 01336  BCDCH  TSX     TYI,4         GET A CHARACTER.
      02277                          TCR     BCDPT         IF CARRIAGE RETRUN, STOP.
      02302 -0765 00 0 00006         LGR     6             SHIFT AND SAVE THE CHARACTER.
      02303 -0500 00 0 06304         CAL     BUFF          GET THE ASSEMBLY WORD.
      02304 -0763 00 0 00006         LGL     6             SHIFT IN THE NEW CHARACTER.
      02305  0602 00 0 06304         SLW     BUFF          AND RESTORE THE WORD.
      02306  0020 00 0 02276         TRA     BCDCH         NOW TRY AGAIN.
                              *
      02307  0560 00 0 06304  BCDPT  LDQ     BUFF          DONE, GET THE WORD.
      02310  0774 00 4 00000  BCDIX  AXT     ..,4
      02311  0020 00 4 00001         TRA     1,4
                              *
      02312  0 00000 0 00000  BOIG                         FLAG..  IGNORE BLANKS.
                              *
1            A.DEBUG               SYMBOLIC DEBUGGING AID FOR A-CORE.                            PAGE 47
                           FLDPRT.       SYMBOLIC FIELD PRINTING ROUTINE.

                              *      ADDS TO PRINT BUFFER THE SYMBOLIC VALUE OF A FIELD PRESENTED
                              *      IN THE AC ADDRESS IN THE FORM.. SYMBOL+CORRECTION (OCTAL).
      02313  0634 00 4 02336  FLDPRT SXA     FLDXC,4
      02314  0634 00 2 02337         SXA     FLDXB,2
      02315 -0320 00 0 11332         ANA     =O77777       GET RID OF GARBAGE.
      02316  0074 00 4 02722         TSX     SYMBCD,4      GET SYMBOL (MQ) + CORRECTION (AC).
      02317  0601 00 0 02342         STO     FLDCOR        SAVE CORRECTION.
      02320 -0600 00 0 02341         STQ     PLS           SAVE THE SYMBOL.
      02321  0131 00 0 00000         XCA                   MOVE IT TO THE AC.
      02322  0074 00 4 02253         TSX     NAMOUT,4      TYPE THE SYMBOL.
      02323 -0500 00 0 02341         CAL     PLS           GET THE SYMBOL.
      02324                          TEQ     FLDOCT,=H     IS IT ALL BLANK.Q
      02327  0500 00 0 02342         CLA     FLDCOR        NO, IS THE CORRECTION ZERO.Q
      02330  0100 00 0 02336         TZE     FLDXC         YES, WE ARE DONE.
      02331 -0120 00 0 02334         TMI     FLDOCT        NO, WILL OCTOUT TYPE A MINUS SIGN.Q
      02332                          TYO     =H00000+      NO, WE NEED A PLUS SIGN.
      02334                   FLDOCT OCTOUT  FLDCOR        NOW TYPE THE 'CORRECTION' FACTOR.
      02336  0774 00 4 00000  FLDXC  AXT     ..,4
      02337  0774 00 2 00000  FLDXB  AXT     ..,2
      02340  0020 00 4 00001         TRA     1,4
                              *
      02341  0 00000 0 00000  PLS                          STORAGE FOR THE SYMBOL.
      02342  0 00000 0 00000  FLDCOR                       'CORRECTION FACTOR' TO SYMBOL.
                              *
1            A.DEBUG               SYMBOLIC DEBUGGING AID FOR A-CORE.                            PAGE 48
                           SYMPRT.       SYMBOLIC WORD PRINTING ROUTINE.

                              *      SYMBOLIC WORD PRINT ROUTINE FOR FAP DEBUG II
                              *      ENTER WITH WORD IN LOGICAL AC.
                              *      PRINTS SYMBOLIC OP. CODE, ADDRESS, TAG, AND DECREMENT IN THE
                              *      FORM..  ADD* FOO+100,4
      02343  0634 00 4 02413  SYMPRT SXA     SPXC,4
      02344  0634 00 2 02412         SXA     SPXB,2
      02345  0601 00 0 02426         STO     SPWD          SAVE THE WORD.
      02346  0600 00 0 02424         CLEAR   DECFLD        CLEAR INDICATOR.
      02347 -0500 00 0 02426         CAL     SPWD          GET WORD (THIS TIME IN LOG. AC.).
      02350  0074 00 4 10165         TSX     OPBCD,4       GET THE BCD OP. CODE.
      02351  0322 00 0 02426         ERA     SPWD          CLEAR BITS ACCOUNTED FOR.
      02352  0602 00 0 00731         SLW     WORD
      02353  0131 00 0 00000         XCA                   MOVE SYMBOL TO AC.
      02354  0074 00 4 02253         TSX     NAMOUT,4      TYPE THE SYMBOL.
      02355 -0500 00 0 00731         CAL     WORD
      02356 -0320 00 0 11334         ANA     =O77777000000 SAVE DECREMENT.
      02357                          TEQ     IND,=O60000000
      02362                   NOFLG  TYO     =H00000       PRINT BLANK.
      02364                          FLDPRT  WORD          TYPE THE ADDRESS FIELD.
      02366 -0500 00 0 00731         CAL     WORD
      02367  0622 00 0 02424         STD     DECFLD
      02370  0771 00 0 00017         ARS     15
      02371 -0320 00 0 11304         ANA     =7            SAVE TAG.
      02372  0602 00 0 02425         SLW     SPTAG
      02373 -0100 00 0 02376         TNZ     INSTAG        IF TAG IS NOT ZERO, INSERT IT.
      02374 -0520 00 0 02424         NZT     DECFLD        IF DECREMENT REQUIRED, INSERT TAG.
      02375  0020 00 0 02413         TRA     SPXC          OTHERWISE BYPASS.
      02376                   INSTAG TYO     (=H00000,)
      02400                          FLDPRT  SPTAG         PRINT THE TAG.
      02402 -0520 00 0 02424         NZT     DECFLD
      02403  0020 00 0 02413         TRA     SPXC
      02404                          TYO     (=H00000,)
      02406 -0500 00 0 00731         CAL     WORD
      02407  0771 00 0 00022         ARS     18
      02410 -0320 00 0 11332         ANA     =O77777
      02411  0074 00 4 02313         TSX     FLDPRT,4      PRINT THE DECREMENT FIELD.
      02412  0774 00 2 00000  SPXB   AXT     ..,2
      02413  0774 00 4 00000  SPXC   AXT     ..,4
      02414  0020 00 4 00001         TRA     1,4
                              *
      02415 -0500 00 0 02426  IND    CAL     SPWD          GET THE ORIGINAL INPUT WORD.
      02416 -0320 00 0 11351         ANA     =O300000000000 MASK OFF THE PREFIX, LESS SIGN.
      02417 -0100 00 0 02362         TNZ     NOFLG         IF EITHER BIT ON, DON'T TYPE *.
      02420                          TYO     =H00000*      BOTH BITS OFF, ASSUME TYPE B.
      02422 -0634 00 0 00731         ZSD     WORD          CLEAR DECREMENT.
      02423  0020 00 0 02362         TRA     NOFLG         GO BACK.
                              *
      02424  0 00000 0 00000  DECFLD                       DECREMENT FIELD OF THE WORD.
      02425  0 00000 0 00000  SPTAG                        TAG FIELD OF THE OUTPUT WORD.
      02426  0 00000 0 00000  SPWD                         THE ORIGINAL SRGUMENT.
                              *
1            A.DEBUG               SYMBOLIC DEBUGGING AID FOR A-CORE.                            PAGE 49
                           BCSCH.        BREAK CHARACTER SEARCHING ROUTINE.

                              *      SEARCHES INPUT BUFFER FOR ONE OF THE BREAK CHARACTERS.  RETURNS
                              *      WITH LAST SIX CHARACTERS (LEADING BLANKS) IN MQ, BREAK CHARACTER
                              *      IN AC, SIGN MINUS(=1) IF ANY OF THE CHARACTERS SEEN WAS NOT
                              *      NUMERIC (IE 0 - 7).
      02427  0634 00 4 02455  BCSCH  SXA     BCEND,4
      02430  0600 00 0 02464         CLEAR   BCFLG         CLEAR FLAG (INDICATE NUMERIC FIELD).
      02431 -0500 00 0 11367         CAL     =H
      02432  0602 00 0 02465         SLW     BCSYM         SET WORD TO BLANKS.
      02433  0074 00 4 01336  BCRET  TSX     TYI,4         GET THE NEXT CHARACTER.
      02434  0774 00 4 00005         AXT     BCTAB-BCORG,4 SEARCH BREAK CHARACTER TABLE.
      02435 -0340 00 4 02464  BCLK   LAS     BCTAB,4
      02436  0020 00 0 02440         TRA     *+2
      02437  0020 00 0 02451         TRA     BCBRK         LEAVE IF BREAK CHARACTER.
      02440  2 00001 4 02435         TIX     BCLK,4,1
      02441 -0765 00 0 00006         LGR     6             NOT A BREAK CHARACTER.
      02442 -0500 00 0 02465         CAL     BCSYM
      02443 -0763 00 0 00006         LGL     6             SHIFT INTO WORD.
      02444  0602 00 0 02465         SLW     BCSYM
      02445 -0320 00 0 11323         ANA     =O70          IF IT IS NUMERIC,
      02446  0100 00 0 02433         TZE     BCRET         GO BACK.
      02447  0602 00 0 02464         SLW     BCFLG         OTHERWISE SET FLAG AND.
      02450  0020 00 0 02433         TRA     BCRET         THEN GO BACK.
                              *
      02451  0760 00 0 00003  BCBRK  SSP
      02452  0520 00 0 02464         ZET     BCFLG         IF NOT NUMERIC,
      02453 -0760 00 0 00003         SSM                   SET SIGN TO 1 AS INDICATOR.
      02454  0560 00 0 02465         LDQ     BCSYM         PICK UP WORD IN MQ.
      02455  0774 00 4 00000  BCEND  AXT     ..,4
      02456  0020 00 4 00001         TRA     1,4           EXIT.
                              *
      02457  000000000020     BCORG  BCI     4,00000+00000-00000,00000
      02463 +000000000055            OCT     55            CARRIAGE RETURN.
                       02464  BCTAB  EQU     *             TABLE OF BREAK CHARACTERS.
      02464  0 00000 0 00000  BCFLG                        FLAG.. FIELD NOT ENTIRELY NUMERIC.
      02465  0 00000 0 00000  BCSYM                        ASSEMBLED SYMBOL.
                              *
1            A.DEBUG               SYMBOLIC DEBUGGING AID FOR A-CORE.                            PAGE 50
                           FLDEVL.       FIELD EVALUATION ROUTINE.

                              *      EVALUATE A FIELD OF SYMBOLS AND OCTAL NUMBERS SEPARATED BY +
                              *      AND - SIGNS UNTIL IT ENCOUNTERS ANOTHER BREAK CHARACTER OR AN
                              *      UNDEFINED SYMBOL.
                              *      RETURNS WITH FIELD VALUE
                              *      (IN 2'S COMPLEMENT FORM) IN MQ, BREAK CHARACTER IN AC.
      02466  0634 00 4 02526  EVAL   SXA     EVEND,4       SAVE RETURN INDEX.
      02467  0600 00 0 02543         STZ     EVTOT         CLEAR FIELD VALUE.
      02470  0600 00 0 02544         CLEAR   EVSGN         ASSUME INITIAL PLUS SIGN.
      02471  0020 00 0 02476         TRA     EVGO          USE INITIAL DATA IN AC - MQ.
                              *
      02472  0634 00 4 02526  FLDEVL SXA     EVEND,4       SAVE RETURN INDEX.
      02473  0600 00 0 02543         STZ     EVTOT
      02474  0600 00 0 02544         CLEAR   EVSGN
      02475  0074 00 4 02427  EVRET  TSX     BCSCH,4       GET NEXT SYMBOL, BREAK CHARACTER.
      02476  0602 00 0 02545  EVGO   SLW     EVBC          SAVE BREAK CHARACTER.
      02477  0120 00 0 02530         TPL     EVNUM         SYMBOL IS OCTAL NUMBER.
      02500 -0130 00 0 00000         XCL
      02501  0074 00 4 02546         TSX     LADJ,4        ADJUST THE SYMBOL TO THE LEFT.
      02502  0074 00 4 02761         TSX     SYMBIN,4      LOOK UP THE VALUE OF THE SYMBOL.
      02503  0760 00 0 00003  EVADD  SSP
      02504  0520 00 0 02544         ZET     EVSGN         IF NOT ZERO,
      02505 -0760 00 0 00003         SSM                   SET SIGN MINUS.
      02506  0400 00 0 02543         ADD     EVTOT
      02507  0601 00 0 02543         STO     EVTOT
      02510 -0500 00 0 02545         CAL     EVBC
      02511                          TEQ     EVPLS,=H00000+ IF PLUS SIGN, NEXT SYMBOL IS TO BE ADDED.
      02514                          TEQ     EVMIN,=H00000- IF MINUS, NEXT SYMBOL IS TO BE SUBTRACTED.
      02517  0500 00 0 02543         CLA     EVTOT         WAS NOT + OR -.
      02520  0120 00 0 02523         TPL     *+3
      02521  0737 00 4 00000         PAC     ,4            IF NEGATIVE, COMPLEMENT IN INDEX REG.
      02522  0754 00 4 00000         PXA     ,4            RETURN TO AC.
      02523 -0320 00 0 11332         ANA     =O77777       MASK OFF 15 BITS.
      02524 -0130 00 0 00000         XCL                   PUT IN MQ.
      02525 -0500 00 0 02545         CAL     EVBC          PICK UP BREAK CHARACTER.
      02526  0774 00 4 00000  EVEND  AXT     ..,4
      02527  0020 00 4 00001         TRA     1,4
                              *
      02530 -0773 00 0 00006  EVNUM  RQL     6
      02531  0774 00 4 00005         AXT     5,4           SET UP COUNTER.
      02532 -0754 00 0 00000         ZAC                   CLEAR AC.
      02533 -0773 00 0 00003         RQL     3
      02534 -0763 00 0 00003         LGL     3             CONVERT NUMBER.
      02535  2 00001 4 02533         TIX     *-2,4,1
      02536  0020 00 0 02503         TRA     EVADD         GO BACK.
                              *
      02537  0600 00 0 02544  EVPLS  CLEAR   EVSGN
      02540  0020 00 0 02475         TRA     EVRET
                              *
      02541 -0625 00 0 02544  EVMIN  SETF    EVSGN
      02542  0020 00 0 02475         TRA     EVRET
                              *
      02543  0 00000 0 00000  EVTOT                        ACCUMULATING VALUE OF FIELD.
      02544  0 00000 0 00000  EVSGN                        FLAG.. THIS SUBFIELD IS NEGATIVE.
      02545  0 00000 0 00000  EVBC                         BREAK CHARACTER AT END OF SUBFIELD.
                              *
1            A.DEBUG               SYMBOLIC DEBUGGING AID FOR A-CORE.                            PAGE 51
                           LADJ.         LEFT ADJUSTING ROUTINE.

                              *      SHIFTS A SYMBOL IN LOGICAL AC LEFT, INSERTING BLANKS ON THE RIGHT
                              *      UNTIL THERE ARE NO BLANKS ON THE LEFT.
                              *      A WORD OF ALL BLANKS IS IGNORED.
      02546  0602 00 0 02567  LADJ   SLW     LAW           SAVE WORD.
      02547                          TEQ     (1,4),=H      IF WORD IS BLANK, PREVENT LOOP.
      02552  0560 00 0 02567  LAR    LDQ     LAW
      02553 -0763 00 0 00006         LGL     6             MOVE LEFT CHARACTER INTO AC.
      02554 -0320 00 0 11326         ANA     =O77          MASK IT OFF.
      02555                          TBL     LASH          WAS BLANK, GO SHIFT WORD.
      02560 -0500 00 0 02567         CAL     LAW           PICK UP WORD.
      02561  0020 00 4 00001         TRA     1,4           EXIT.
                              *
      02562 -0500 00 0 02567  LASH   CAL     LAW           PICK UP WORD.
      02563  0560 00 0 11367         LDQ     =H            BLANKS.
      02564 -0763 00 0 00006         LGL     6             SHIFT (LOSE LEFT BLANK).
      02565  0602 00 0 02567         SLW     LAW           RESTORE.
      02566  0020 00 0 02552         TRA     LAR           TRY AGAIN.
                              *
      02567  0 00000 0 00000  LAW                          WORD BEING ADJUSTED.
                              *
1            A.DEBUG               SYMBOLIC DEBUGGING AID FOR A-CORE.                            PAGE 52
                           TABRD.        READ SYMBOL TABLE FILE.

      02570  0634 00 4 02671  TABRD  SXA     SRXC,4
      02571  0634 00 2 02672         SXA     SRXB,2
      02572  0634 00 1 02673         SXA     SRXA,1
      02573  0602 00 0 06141         SLW     TFILE         SAVE THE PRIMARY FILE NAME.
      02574 -0600 00 0 01003         STQ     PORG          SAVE THE PROGRAM ORIGIN.
      02575                          OPEN    (=HR,TFILE,((=H SYMTB)),=-0,=-0,DERR) OPEN THE FILE.
      02604                          BUFFER  (TFILE,((=H SYMTB)),(BUF1,,BUFLTH),DERR) ..
      02611                   SYMRD  RDWAIT  (TFILE,((=H SYMTB)),=0,(CARD,,14),SYMEOF,=-0,DERR) READ.
      02621  0774 00 1 00000         AXT     0,1           INITIALIZE CARD POINTER.
      02622 -0500 00 1 01514  SYMADJ CAL     CARD,1
      02623                          TEQ     SYMEOF,=H     EXIT IF NO MORE SYMBOLS.
      02626  0560 00 1 01514         LDQ     CARD,1        PICK UP NUMBER.
      02627 -0754 00 0 00000         ZAC
      02630 -0773 00 0 00006         RQL     6
      02631  0774 00 4 00005         AXT     5,4
      02632 -0773 00 0 00003         RQL     3             CONVERT NUMBER.
      02633 -0763 00 0 00003         LGL     3
      02634  2 00001 4 02632         TIX     *-2,4,1
      02635  0400 00 0 01003         ADD     PORG          RELOCATE THE SYMBOL VALUE.
      02636 -0320 00 0 11332         ANA     =O77777       ASSUME ALL ARE RELOCATABLE.
      02637  0602 00 0 00731         SLW     WORD          SAVE VALUE.
      02640 -0500 00 1 01515         CAL     CARD+1,1      PICK UP SYMBOL.
      02641  0560 00 1 01516         LDQ     CARD+2,1
      02642 -0763 00 0 00022         LGL     18            SHIFT SYMBOL INTO 1 WORD.
      02643  0602 00 0 02675         SLW     SFF           SAVE SYMBOL IN CASE OF FULL TABLE.
      02644  0560 00 0 00731         LDQ     WORD          GET THE SYMBOL VALUE.
      02645  0074 00 4 03002         TSX     DEFINE,4      TRY TO INSERT IT IN TABLE.
      02646  0020 00 0 02652         TRA     SYMFUL        FAILURE, NO MORE ROOM.
      02647  1 77775 1 02650         TXI     *+1,1,-3
      02650  3 77764 1 02622         TXH     SYMADJ,1,-12
      02651  0020 00 0 02611         TRA     SYMRD         GET NEXT CARD.
                              *
      02652                   SYMFUL TYPA    7,(TABLE FULL, FIRST SYMBOL NOT INSERTED IS *)
      02654  0074 00 4 02201         TSX     QUOTE,4       TYPE THE LEFT QUOTES.
      02655                          NAMOUT  SFF           TYPE THE SYMBOL.
      02657  0074 00 4 02201         TSX     QUOTE,4       TYPE THE RIGHT QUOTES.
      02660                          TYO     =H00000.      PUNCTUATE THE SENTENCE.
      02662  0074 00 4 02175         TSX     CR,4          RETURN THE CARRIAGE.
      02663                   SYMEOF CLOSE   (TFILE,((=H SYMTB)),DERR) CLOSE THE FILE, READING DONE.
      02667                   TDONE  TYPE    3,(SYMBOLS LOADED.*)
      02671  0774 00 4 00000  SRXC   AXT     ..,4
      02672  0774 00 2 00000  SRXB   AXT     ..,2
      02673  0774 00 1 00000  SRXA   AXT     ..,1
      02674  0020 00 4 00001         TRA     1,4
                              *
      02675  0 00000 0 00000  SFF                          STORAGE FOR SYMBOL WHICH DIDN'T MAKE IT.
                              *
1            A.DEBUG               SYMBOLIC DEBUGGING AID FOR A-CORE.                            PAGE 53
                           KILTAB.       EMPTY SYMBOL TABLE OF ALL BUT OUR SYMBOLS.

      02676  0634 00 4 02701  KILTAB SXA     KXR,4
      02677  0774 00 4 00002         AXT     SYMEND-SYMTAB+2,4 RESET INDEX OF ENTRIES IN TABLE.
      02700  0634 00 4 03001         SXA     SYMLTH,4
      02701  0774 00 4 00000  KXR    AXT     ..,4
      02702  0020 00 4 00001         TRA     1,4
                              *
1            A.DEBUG               SYMBOLIC DEBUGGING AID FOR A-CORE.                            PAGE 54
                           A/R           SET OUTPUT MODE TO ABSOLUTE OR RELATIVE.

      02703  0500 00 0 00730  SETABS CLA     BC            PICK UP BREAK CHARACTER
      02704                          TNCR    ILF           CHECK FOR CR
      02710 -0625 00 0 02721         SETF    ABSSW         SET ABSOLUTE ADDRESSING MODE
      02711  0020 00 0 00006         TRA     MAIN          ..
                              *
      02712  0500 00 0 00730  SETREL CLA     BC            PICK UP BREAK CHARACTER
      02713                          TNCR    ILF           ..
      02717  0600 00 0 02721         CLEAR   ABSSW         CLEAR ABSOLUTE ADDRESSING MODE
      02720  0020 00 0 00006         TRA     MAIN          ..
                              *
      02721  0 00000 0 00000  ABSSW                        ABSOLUTE ADDRESSING MODE SWITCH
                              *
1            A.DEBUG               SYMBOLIC DEBUGGING AID FOR A-CORE.                            PAGE 55
                           SYMBCD.       GET BEST SYMBOL, CORRECTION, GIVEN VALUE.

      02722  0634 00 4 02753  SYMBCD SXA     SCHEND,4      ENTER W/ VALUE IN AC (ADDRESS).
      02723 -0320 00 0 11332         ANA     =O77777       MASK AWAY GARBAGE.
      02724  0601 00 0 02755         STO     SYMVAL        SAVE AS ORIGINAL ARGUMENT.
      02725  0601 00 0 02757         STO     SYMCOR        SAVE AS BEST CORRECTION FACTOR.
      02726  0601 00 0 02760         STO     SYMABS        SAVE AS .ABS.(BEST FACTOR).
      02727  0534 00 4 03001         LXA     SYMLTH,4      GET NUMBER OF ENTRIES IN SYMBOL TABLE.
      02730 -0500 00 0 11367         CAL     =H
      02731  0602 00 0 02756         SLW     SYMBOL
      02732  0520 00 0 02721         ZET     ABSSW         CHECK FOR ABSOLUTE ADDRESSING MODE
      02733  0020 00 0 02751         TRA     SBCF          DON'T CHECK SYMBOL FOR ABSOLUTE MODE
      02734 -2 00002 4 02751  SCHLOP TNX     SBCF,4,2
      02735  0500 00 0 02755         CLA     SYMVAL
      02736  0402 00 4 06142         SUB     SYMEND+1,4
      02737 -0340 00 0 02760         LAS     SYMABS        IS MAGNITUDE SMALLER THAN 'BEST' MAGNITUDE.
      02740  0020 00 0 02734         TRA     SCHLOP
      02741  0761 00 0 00000         NOP
      02742  0100 00 0 02744         TZE     SBOK          IF CORRECTION ZERO, DON'T CHECK SYMBOL.
      02743 -3 00000 4 02734         TXL     SCHLOP,4,SYMEND-SYMTAB NO, DON'T USE OUR SYMBOL.
      02744  0601 00 0 02757  SBOK   STO     SYMCOR        BEST SO FAR.
      02745  0602 00 0 02760         SLW     SYMABS        SAVE ABSOLUTE VALUE OF DIFFERENCE.
      02746 -0500 00 4 06141         CAL     SYMEND,4
      02747  0602 00 0 02756         SLW     SYMBOL
      02750  0020 00 0 02734         TRA     SCHLOP
                              *
      02751  0560 00 0 02756  SBCF   LDQ     SYMBOL
      02752  0500 00 0 02757         CLA     SYMCOR
      02753  0774 00 4 00000  SCHEND AXT     ..,4
      02754  0020 00 4 00001         TRA     1,4
                              *
      02755  0 00000 0 00000  SYMVAL                       VALUE BEING SEARCHED FOR.
      02756  0 00000 0 00000  SYMBOL                       'BEST' SYMBOL SO FAR.
      02757  0 00000 0 00000  SYMCOR                       CORRECTION NECESSARY FOR THIS SYMBOL.
      02760  0 00000 0 00000  SYMABS                       .ABS.(SYMCOR).
                              *
1            A.DEBUG               SYMBOLIC DEBUGGING AID FOR A-CORE.                            PAGE 56
                           SYMBIN.       GET VALUE OF SYMBOL, GIVEN BCD CODE.

      02761  0634 00 4 02771  SYMBIN SXA     SBXR,4        SAVE RETURN.
      02762  0534 00 4 03001         LXA     SYMLTH,4      SET UP COUNTER.
      02763 -2 00002 4 02773  SBRET  TNX     NOSYM,4,2     HAVE WE DONE YET.Q
      02764                          TNE     SBRET,(SYMEND,4) IF NOT THIS SYMBOL, TRY THE NEXT.
      02770 -0500 00 4 06142  SBFND  CAL     SYMEND+1,4    PICK UP VALUE.
      02771  0774 00 4 00000  SBXR   AXT     ..,4
      02772  0020 00 4 00001         TRA     1,4           RETURN W/ SYMBOL VALUE.
                              *
      02773                   NOSYM  TNE     UNDEF,=H*     IS THE SYMBOL '*', FOR THIS LOCATION.
      02777 -0500 00 0 00202  SBPOI  CAL     LOC           GET THE CURRENT LOCATION.
      03000  0020 00 0 02771         TRA     SBXR
                              *
      03001  0 00000 0 00002  SYMLTH         SYMEND-SYMTAB+2 SO THAT PERMANENT SYMS ARE DEFINED.
                              *
1            A.DEBUG               SYMBOLIC DEBUGGING AID FOR A-CORE.                            PAGE 57
                           DEFINE.       INSERT NEW SYMBOL, VALUE INTO TABLE.

      03002  0634 00 4 03035  DEFINE SXA     DFXC,4        ENTER TO DEFINE SYMBOL.
      03003  0534 00 4 03001         LXA     SYMLTH,4      SET UP.
      03004 -2 00002 4 03027  DEFRET TNX     DEFNO,4,2     SEARCH SYMBOL TABLE.
      03005                          TNE     DEFRET,(SYMEND,4) IS THIS THE ONE.Q
      03011 -3 00000 4 03014  DEFYES TXL     DEFOOP,4,SYMEND-SYMTAB DON'T CHANGE OUR SYMBOLS.
      03012 -0600 00 4 06142         STQ     SYMEND+1,4    PUT VALUE IN TABLE.
      03013  0020 00 0 03035         TRA     DFXC
                              *
      03014  0602 00 0 03026  DEFOOP SLW     DOBS          SAVE THE BAD SYMBOL.
      03015                          TYPA    7,(ATTEMPT TO REDEFINE INTERNAL SYMBOL *)
      03017  0074 00 4 02201         TSX     QUOTE,4       TYPE THE LEFT QUOTES.
      03020                          NAMOUT  DOBS          TYPE THE SYMBOL.
      03022  0074 00 4 02201         TSX     QUOTE,4       TYPE THE RIGHT QUOTES.
      03023                          TYPE    2,( IGNORED.*)
      03025  0020 00 0 03035         TRA     DFXC          IGNORE THE ATTEMPT AT REDEFINITION.
                              *
      03026  0 00000 0 00000  DOBS                         STORAGE FOR THE INTERNAL SYMBOL.
                              *
      03027  0534 00 4 03001  DEFNO  LXA     SYMLTH,4
      03030  3 03100 4 03037         TXH     DEFFUL,4,SYMLNG+SYMEND-SYMTAB
      03031  0602 00 4 06141         SLW     SYMEND,4      STORE IN TABLE.
      03032 -0600 00 4 06142         STQ     SYMEND+1,4    PUT VALUE IN TABLE.
      03033  1 00002 4 03034         TXI     *+1,4,2       INCREASE LENGTH INDICATOR.
      03034  0634 00 4 03001         SXA     SYMLTH,4
      03035  0774 00 4 00000  DFXC   AXT     ..,4          OK.
      03036  0020 00 4 00002         TRA     2,4           EXIT TO OK LOC.
                              *
      03037  0534 00 4 03035  DEFFUL LXA     DFXC,4
      03040  0020 00 4 00001         TRA     1,4
                              *
                              *
1            A.DEBUG               SYMBOLIC DEBUGGING AID FOR A-CORE.                            PAGE 58
                           SYMTAB.       SYMBOL TABLE.

                       03100  SYMLNG EQU     1600          MAKE ROOM FOR 800 SYMBOLS.
      06141                   SYMTAB BES     SYMLNG        TABLE OF USER'S SYMBOLS.
                       06141  SYMEND EQU     *             END OF SYMBOL TABLE.
                              *
      06141  0 00000 0 00000  TFILE                        PRIMARY FILE NAME.
                              *
1            A.DEBUG               SYMBOLIC DEBUGGING AID FOR A-CORE.                            PAGE 59
                           FLOOUT.       FLOATING POINT OUTPUT ROUTINE.

      06142  0634 00 4 06241  FLOOUT SXA     FXC,4         SAVE XR'S.
      06143  0634 00 2 06242         SXA     FXB,2
      06144  0634 00 1 06243         SXA     FXA,1
      06145  0601 00 0 06245         STO     FNUM          SAVE THE INPUT NUMBER.
      06146  0131 00 0 00000         XCA                   MOVE IT TO THE MQ.
      06147 -0500 00 0 11316         CAL     =H00000-      ASSUME NEGATIVE.
      06150  0162 00 0 06152         TQP     *+2           IF IT IS,
      06151  0074 00 4 02137         TSX     TYO,4         PRINT THE SIGN.
      06152  0131 00 0 00000         XCA                   GET NUMBER BACK INTO THE AC.
      06153 -0100 00 0 06163         TNZ     REG           IF NUMBER .E. ZERO, USE BRIEF FORM.
      06154 -0754 00 0 00000         ZAC                   THEN PRINT A ZERO.
      06155  0074 00 4 02137         TSX     TYO,4
      06156                          TYO     =H00000.      THEN A PERIOD.
      06160 -0754 00 0 00000         ZAC                   THEN ANOTHER ZERO.
      06161  0074 00 4 02137         TSX     TYO,4
      06162  0020 00 0 06241         TRA     FXC           THEN EXIT.
                              *
      06163  0131 00 0 00000  REG    XCA                   GET NUMBER INTO THE MQ.
      06164 -0754 00 0 00000         ZAC                   CLEAR THE AC.
      06165  0765 00 0 00000         LRS     0             MAKE MQ POSITIVE.
      06166  0763 00 0 00010         LLS     8             GET EXPONENT INTO THE AC.
      06167  0402 00 0 11327         SUB     =128          NORMALIZE IT.
      06170  0120 00 0 06172         TPL     *+2           IF NEGATIVE,
      06171  0402 00 0 11302         SUB     =1            BIAS EXPONENT.
      06172  0131 00 0 00000         XCA                   PLACE IT IN THE MQ.
      06173  0204 14 0 11330         VLM     =.30103B23,,12 CONVERT TO DECIMALS.
      06174  0734 00 1 00000         PAX     ,1            PLACE RESULT IN XR 1.
      06175  0601 00 0 06246         STO     XPNT          SAVE EXPONENT.
      06176 -0120 00 0 06203         TMI     NEG           GO TO MULTIPLY SECTION IF NEGATIVE.
      06177  0500 00 0 06245         CLA     FNUM          GET THE NUMBER.
      06200  0241 00 1 01330         FDP     TEN,1         NORMALIZE IT.
      06201  0131 00 0 00000         XCA                   MOVE TO THE AC.
      06202  0020 00 0 06205         TRA     NOR           GO NORMALIZE.
                              *
      06203  0560 00 0 06245  NEG    LDQ     FNUM          GET THE NUMBER.
      06204  0260 00 1 01330         FMP     TEN,1         NORMALIZE IT.
      06205  0760 00 0 00003  NOR    SSP                   CHECK MAGNITUDE OF NUMBER.
      06206  0560 00 0 11336         LDQ     =O200777777777 COMPARE W/ ALMOST 1.0.
      06207  0040 00 0 06215         TLQ     SKIP          IF .G. 1., SKIP.
      06210  0131 00 0 00000         XCA                   PUT RESULT IN MQ.
      06211  0500 00 0 06246         CLA     XPNT          ADJUST EXPONENT.
      06212  0402 00 0 11302         SUB     =1
      06213  0601 00 0 06246         STO     XPNT
      06214  0260 00 0 11337         FMP     =10.          NORMALIZE.
      06215 -0300 00 0 11342  SKIP   UFA     =O233000000000 GET INTEGER.
      06216  0734 00 1 00000         PAX     ,1            PUT IT IN XR 1.
      06217  0763 00 0 00010         LLS     8             NORMAL FRACTION IN MQ.
      06220  0754 00 1 00000         PXA     ,1            GET THE DIGIT.
      06221  0074 00 4 02137         TSX     TYO,4         TYPE IT.
      06222                          TYO     =H00000.      TYPE A DECIMAL POINT.
      06224  0774 00 1 00010         AXT     8,1           SET UP FOR MAXIMUM OF 8 DIGITS.
      06225  0131 00 0 00000  FRAC   XCA                   MOVE THE REST OF THE NUMBER INTO THE AC.
      06226  0100 00 0 06233         TZE     FXP           IF ZERO, GO PRINT THE EXPONENT.
      06227  0131 00 0 00000         XCA                   OTHERWISE, MOVE IT BACK TO THE MQ.
      06230  0200 00 0 11307         MPY     =10           GET THE NEXT DIGIT.
1            A.DEBUG               SYMBOLIC DEBUGGING AID FOR A-CORE.                            PAGE 60
                           FLOOUT.       FLOATING POINT OUTPUT ROUTINE.

      06231  0074 00 4 02137         TSX     TYO,4         TYPE IT.
      06232  2 00001 1 06225         TIX     FRAC,1,1      GO BACK FOR THE NEXT DIGIT IF ANY.
      06233 -0520 00 0 06246  FXP    NZT     XPNT          IS THE EXPONENT ZERO.Q
      06234  0020 00 0 06241         TRA     FXC           YES, SKIP IT.
      06235                          TYO     =H00000E      TYPE THE 'E'.
      06237                          INTOUT  XPNT          TYPE THE EXPONENT.
      06241  0774 00 4 00000  FXC    AXT     ..,4          RESTORE THE XR'S.
      06242  0774 00 2 00000  FXB    AXT     ..,2
      06243  0774 00 1 00000  FXA    AXT     ..,1
      06244  0020 00 4 00001         TRA     1,4           EXIT.
                              *
      06245  0 00000 0 00000  FNUM                         STORAGE FOR THE NUMBER TO BE OUTPUT.
      06246  0 00000 0 00000  XPNT                         STORAGE FOR THE EXPONENT.
                              *
1            A.DEBUG               SYMBOLIC DEBUGGING AID FOR A-CORE.                            PAGE 61
                                         INTEGER (BASE 10 AND 8) OUTPUT.

                              *              OCTOUT.       OCTAL OUTPUT.
      06247  0560 00 0 11305  OCTOUT LDQ     =O10          BASE IS 8.
      06250  0020 00 0 06253         TRA     IJON          GO JOIN INTOUT AND JNTOUT.
                              *
                              *              DECOUT.       INTEGER DECIMAL OUTPUT.
      06251  0771 00 0 00022  DECOUT ARS     18            SHIFT DECREMENT INTEGER INTO ADDRESS.
      06252  0560 00 0 11307  INTOUT LDQ     =10           BASE IS 10.
      06253 -0600 00 0 01103  IJON   STQ     BASE          SAVE THE BASE.
      06254  0634 00 4 06301         SXA     IXC,4         SAVE RETURN INDEX.
      06255  0634 00 2 06300         SXA     IXB,2
      06256  0601 00 0 06303         STO     CQ            SAVE THE INPUT WORD.
      06257  0131 00 0 00000         XCA                   PREPARE TO OUTPUT SIGN.
      06260 -0500 00 0 11316         CAL     =H00000-      GET A MINUS SIGN.
      06261  0162 00 0 06263         TQP     *+2           IF THE SIGN IS NEGATIVE,
      06262  0074 00 4 02137         TSX     TYO,4         PRINT THE SIGN.
      06263  0774 00 2 00001         AXT     1,2           SET POINTER TO THE BEGINNING OF THE BUFFER.
      06264  0600 00 0 06320         STZ     BUFF+12       INSERT ZERO INTO BUFFER INITIALLY.
      06265  0500 00 0 06303  INEXT  CLA     CQ            GET THE (REMAINING) NUMBER.
      06266  0100 00 0 06274         TZE     IFIX          IF ZERO, QUIT.
      06267  0765 00 0 00043         LRS     35            IF NOT, SHIFT INTO MQ FOR DIVISION.
      06270  0221 00 0 01103         DVP     BASE          GET NEXT DIGIT IN THE AC.
      06271 -0600 00 0 06303         STQ     CQ            SAVE THE NEW NUMBER.
      06272  0602 00 2 06321         SLW     BUFF+13,2     SAVE THIS DIGIT.
      06273  1 00001 2 06265         TXI     INEXT,2,1     GO GET THE NEXT DIGIT.
                              *
      06274  2 00001 2 06275  IFIX   TIX     *+1,2,1       BOUNCE OVER FIRST CHARACTER IF ANY.
      06275 -0500 00 2 06321  IFOX   CAL     BUFF+13,2     GET THE CHARACTER TO BE TYPED.
      06276  0074 00 4 02137         TSX     TYO,4         TYPE IT.
      06277  2 00001 2 06275         TIX     IFOX,2,1      COUNT AND GET NEXT CHARACTER IF ANY.
      06300  0774 00 2 00000  IXB    AXT     ..,2          RESTORE THE XR'S.
      06301  0774 00 4 00000  IXC    AXT     ..,4
      06302  0020 00 4 00001         TRA     1,4           EXIT.
                              *
      06303  0 00000 0 00000  CQ                           STORAGE FOR THE WORD BEING CONVERTED.
                              *
      06304                   BUFF   BSS     13            OUTPUT CHARACTER ARRAY.
                              *
1            A.DEBUG               SYMBOLIC DEBUGGING AID FOR A-CORE.                            PAGE 62
                           DERR.         DISK ERROR DIAGNOSTIC ROUTINE.

      06321                   DERR   IODIAG  ((DIAG,,DILTH)) GET THE INFORMATION.
      06323 -0500 00 0 06420         CAL     DISUBR        GET THE SUBROUTINE NAME.
      06324                          TEQ     OPEN1,=HOPEN  GO CHECK ERROR CODE IF IT IS 'OPEN'.
      06327                   NOPE   BCDOUT  =HERROR       GIVE GENERAL COMMENT.
      06331                          OCTOUT  DICODE        TYPE THE ERROR CODE.
      06333                          BCDOUT  (=H FROM )    ..
      06335                          NAMOUT  DISUBR        TYPE THE SUBROUTINE NAME.
      06337                          TYPA    1,( FOR *)    ..
      06341  0074 00 4 02201         TSX     QUOTE,4       QUOTE THE FILE NAMES.
      06342                          NAMOUT  DIN1          TYPE THE FILE NAMES.
      06344                          TYO     =H00000       ..
      06346                          NAMOUT  DIN2          ..
      06350  0074 00 4 02201         TSX     QUOTE,4       ..
      06351                          TYO     =H00000.      TERMINATE THE SENTENCE.
      06353  0074 00 4 02175         TSX     CR,4          RETURN THE CARRIAGE.
      06354 -0500 00 0 06420         CAL     DISUBR        GET THE SUBROUTINE NAME AGAIN.
      06355                          TEQ     OOPS,=HOPEN   IGNORE IF 'OPEN'.
      06360                          TEQ     OOPS,=HCLOSE  OR IF 'CLOSE'.
      06363                          CLOSE   (DIN1,DIN2,OOPS) OTHERWISE, TRY TO CLOSE IT.
      06367  0020 00 0 00726         TRA     OOPS          GO SET ERROR FLAG.
                              *
      06370 -0500 00 0 06421  OPEN1  CAL     DICODE        GET THE ERROR CODE.
      06371                          TEQ     OPEN2,=12     IS IT 'FILE NOT FOUND'.Q
      06374                          TNE     NOPE,=6       NO, IS IT 'LINKED FILE NOT FOUND'.Q
      06400                          TYPA    2,(LINKED *)  YES, START THE COMMENT.
      06402                   OPEN2  TYPA    1,(FILE *)    ..
      06404  0074 00 4 02201         TSX     QUOTE,4       TYPE THE FILE NAMES.
      06405                          NAMOUT  DIN1          ..
      06407                          TYO     =H00000       ..
      06411                          NAMOUT  DIN2          ..
      06413  0074 00 4 02201         TSX     QUOTE,4       ..
      06414                          TYPE    2,( NOT FOUND.*) END THE COMMENT.
      06416  0020 00 0 00726         TRA     OOPS          GO SET ERROR FLAG.
                              *
                       06417  DIAG   EQU     *             DISK DIAGNOSTIC INFORMATION ARRAY..
      06417  0 00000 0 00000  DICALL                       CALLER'S LOCATION.
      06420  0 00000 0 00000  DISUBR                       DISK SUBROUTINE NAME.
      06421  0 00000 0 00000  DICODE                       ERROR CODE.
      06422  0 00000 0 00000  DIOCOD                       I/O ERROR CODE.
      06423  0 00000 0 00000  DIN1                         FIRST NAME OF THE FILE.
      06424  0 00000 0 00000  DIN2                         SECOND NAME OF THE FILE.
                       00006  DILTH  EQU     *-DIAG        LENGTH OF THE ARRAY.
                              *
                       00660  BUFLTH EQU     432           SIZE OF PRIMARY BUFFERS NEEDED.
      06425                   BUF1   BSS     BUFLTH        THE BUFFER FOR GENERAL USE.
      07305                   BUF2   BSS     BUFLTH        THE BUFFER FOR REQUEST FILES.
                              *
1            A.DEBUG               SYMBOLIC DEBUGGING AID FOR A-CORE.                            PAGE 63
                           OPBCD.        GET BCD CODE, GIVEN BINARY VALUE.

      10165  0634 00 4 10220  OPBCD  SXA     OPXR,4
      10166  0600 00 0 10253         CLEAR   FLAG
      10167 -0320 00 0 11377         ANA     =O777700007777 GET RID OF IRRELEVANT PARTS OF THE WORD.
      10170  0074 00 4 10204         TSX     OPSCH,4       SEARCH TABLE.
      10171  0020 00 0 10202         TRA     FND
      10172 -0320 00 0 11376         ANA     =O777700000000 GET RID OF ADDRESS.
      10173  0074 00 4 10204         TSX     OPSCH,4       TRY AGAIN.
      10174  0020 00 0 10202         TRA     FND
      10175  0771 00 0 00040         ARS     32            RETURN IF NOT IN TABLE, USE PREFIX.
      10176 -0320 00 0 11312         ANA     =O16
      10177  0734 00 4 00000         PAX     ,4            SET INDEX.
      10200  0767 00 0 00040         ALS     32            RESTORE AC.
      10201  0560 00 4 11132         LDQ     OPEND-2,4     PICK UP BCD OP. CODE.
      10202  0534 00 4 10220  FND    LXA     OPXR,4
      10203  0020 00 4 00001         TRA     1,4           RETURN.
                              *
      10204  0634 00 4 10212  OPSCH  SXA     OSXR,4
      10205  0774 00 4 00574         AXT     OPEND-OPORG,4 SET UP COUNT.
      10206                          TEQ     FNDIT,(OPEND+1,4) IS THIS THE ENTRY.Q
      10211  2 00002 4 10206         TIX     *-3,4,2
      10212  0774 00 4 00000  OSXR   AXT     ..,4          NOT IN TABLE, EXIT.
      10213  0020 00 4 00002         TRA     2,4
                              *
      10214  0560 00 4 11134  FNDIT  LDQ     OPEND,4       PICK UP THE BCD CHARACTERS.
      10215  0534 00 4 10212         LXA     OSXR,4
      10216  0020 00 4 00001         TRA     1,4           EXIT W/ BINARY IN AC, BCD IN MQ.
                              *
      10217  0 00000 0 00000  OPCDE                        BCD OP CODE BEING LOOKED UP.
      10220  0 00000 0 00000  OPXR                         STORAGE FOR XR 4 (OPBIN).
                              *
1            A.DEBUG               SYMBOLIC DEBUGGING AID FOR A-CORE.                            PAGE 64
                           OPBIN.        GET BINARY VALUE, GIVEN BCD CODE.

      10221  0634 00 4 10220  OPBIN  SXA     OPXR,4
      10222  0602 00 0 10217         SLW     OPCDE
      10223 -0320 00 0 11326         ANA     =O77
      10224                          TEQ     OPFLG,=H00000* TAKE CARE OF INDIRECT FLAG.
      10227  0600 00 0 10253         STZ     FLAG          NOT INDIRECT.  RESET FLAG.
      10230 -0500 00 0 10217         CAL     OPCDE
      10231  0074 00 4 02546  OPRET  TSX     LADJ,4        ADJUST THE CODE TO THE LEFT.
      10232  0774 00 4 00660         AXT     OPEND-OPPRFX,4 SET UP COUNTER.
      10233                   OPLK   TEQ     OPFND,(OPEND,4) IS THIS IT.Q
      10236  2 00002 4 10233         TIX     OPLK,4,2      TRY NEXT WORD.
      10237  0020 00 0 00717         TRA     UNDEF         COMPLAIN ABOUT UNDEFINED SYMBOL.
                              *
      10240 -0500 00 4 11135  OPFND  CAL     OPEND+1,4     PICK UP CODE.
      10241 -0501 00 0 10253         ORA     FLAG
      10242  0534 00 4 10220         LXA     OPXR,4
      10243  0020 00 4 00001         TRA     1,4           RETURN TO CALLER.
                              *
      10244 -0500 00 0 11333  OPFLG  CAL     =O60000000
      10245  0602 00 0 10253         SLW     FLAG
      10246  0560 00 0 10217         LDQ     OPCDE         GET RID OF '*'.
      10247 -0500 00 0 11367         CAL     =H
      10250 -0765 00 0 00006         LGR     6             SHIFT OFF '*,' ENTER BLANK.
      10251 -0130 00 0 00000         XCL
      10252  0020 00 0 10231         TRA     OPRET
                              *
      10253  0 00000 0 00000  FLAG                         INDIRECT FLAG.
                              *
1            A.DEBUG               SYMBOLIC DEBUGGING AID FOR A-CORE.                            PAGE 65
                                         TABLE OF OPERATION CODES.

                              RHC    MACRO   A
                                     IRP     A
                                     GEN     ,BCI,(1,A)    GENERATE BCD CODE.
                                     GEN     ,A,(0,0,0)    GENERATE BINARY VALUE.
                                     IRP
                                     END     RHC
                              *
            -0 17560 0 05336  PMC    OPSYN   SHOW          *REVIVE DEFINITION OF PMC TO PRINT TABLE.
                              *
                              *      BCD TO BINARY OPERATION CODE TABLE STARTS HERE.
                       10254  OPPRFX EQU     *
      10254                          RHC     ...
      10254  333333606060            BCI     1,...                                                            .002
      10255  0 00000 0 00000         ...     0,0,0                                                            .002
      10256                          RHC     PON
      10256  474645606060            BCI     1,PON                                                            .002
      10257  1 00000 0 00000         PON     0,0,0                                                            .002
      10260                          RHC     ONE
      10260  464525606060            BCI     1,ONE                                                            .002
      10261  1 00000 0 00000         ONE     0,0,0                                                            .002
      10262                          RHC     PTW
      10262  476366606060            BCI     1,PTW                                                            .002
      10263  2 00000 0 00000         PTW     0,0,0                                                            .002
      10264                          RHC     BLK           BLOCK.
      10264  224342606060            BCI     1,BLK                                                            .002
      10265  2 00000 0 00000         BLK     0,0,0                                                            .002
      10266                          RHC     TWO
      10266  636646606060            BCI     1,TWO                                                            .002
      10267  2 00000 0 00000         TWO     0,0,0                                                            .002
      10270                          RHC     PTH
      10270  476330606060            BCI     1,PTH                                                            .002
      10271  3 00000 0 00000         PTH     0,0,0                                                            .002
      10272                          RHC     (BRN,PAR)     BRANCH NEVER, PARAMETER.
      10272  225145606060            BCI     1,BRN                                                            .002
      10273  3 00000 0 00000         BRN     0,0,0                                                            .002
      10274  472151606060            BCI     1,PAR                                                            .002
      10275  3 00000 0 00000         PAR     0,0,0                                                            .002
      10276                          RHC     THREE
      10276  633051252560            BCI     1,THREE                                                          .002
      10277  3 00000 0 00000         THREE   0,0,0                                                            .002
      10300                          RHC     FOR
      10300  264651606060            BCI     1,FOR                                                            .002
      10301 -0 00000 0 00000         FOR     0,0,0                                                            .002
      10302                          RHC     FOUR
      10302  264664516060            BCI     1,FOUR                                                           .002
      10303 -0 00000 0 00000         FOUR    0,0,0                                                            .002
      10304                          RHC     MON
      10304  444645606060            BCI     1,MON                                                            .002
      10305 -1 00000 0 00000         MON     0,0,0                                                            .002
      10306                          RHC     FVE
      10306  266525606060            BCI     1,FVE                                                            .002
      10307 -1 00000 0 00000         FVE     0,0,0                                                            .002
      10310                          RHC     (FMT,IOP,ENDIO)  I/O LIST PSEUDOINSTRUCTIONS.
      10310  264463606060            BCI     1,FMT                                                            .002
      10311 -1 00000 0 00000         FMT     0,0,0                                                            .002
1            A.DEBUG               SYMBOLIC DEBUGGING AID FOR A-CORE.                            PAGE 66
                                         TABLE OF OPERATION CODES.

      10312  314647606060            BCI     1,IOP                                                            .002
      10313 -1 00000 0 00000         IOP     0,0,0                                                            .002
      10314  254524314660            BCI     1,ENDIO                                                          .002
      10315 -1 00000 0 00000         ENDIO   0,0,0                                                            .002
      10316                          RHC     FIVE
      10316  263165256060            BCI     1,FIVE                                                           .002
      10317 -1 00000 0 00000         FIVE    0,0,0                                                            .002
      10320                          RHC     SIX
      10320  623167606060            BCI     1,SIX                                                            .002
      10321 -2 00000 0 00000         SIX     0,0,0                                                            .002
      10322                          RHC     MTW
      10322  446366606060            BCI     1,MTW                                                            .002
      10323 -2 00000 0 00000         MTW     0,0,0                                                            .002
      10324                          RHC     MTH
      10324  446330606060            BCI     1,MTH                                                            .002
      10325 -3 00000 0 00000         MTH     0,0,0                                                            .002
      10326                          RHC     BRA           BRANCH.
      10326  225121606060            BCI     1,BRA                                                            .002
      10327 -3 00000 0 00000         BRA     0,0,0                                                            .002
      10330                          RHC     XIT           FORTRAN'S NAME FOR 'TTR'.
      10330  673163606060            BCI     1,XIT                                                            .002
      10331  0021 00 0 00000         XIT     0,0,0                                                            .002
      10332                          RHC     (ZSA,ZSD,ZAC)  ZERO ADDRESS, DECREMENT, AC.
      10332  716221606060            BCI     1,ZSA                                                            .002
      10333  0634 00 0 00000         ZSA     0,0,0                                                            .002
      10334  716224606060            BCI     1,ZSD                                                            .002
      10335 -0634 00 0 00000         ZSD     0,0,0                                                            .002
      10336  712123606060            BCI     1,ZAC                                                            .002
      10337 -0754 00 0 00000         ZAC     0,0,0                                                            .002
                              *      BINARY TO BCD OPERATION CODE TABLE STARTS HERE.
      10340                   OPORG  RHC     TRA
      10340  635121606060            BCI     1,TRA                                                            .002
      10341  0020 00 0 00000         TRA     0,0,0                                                            .002
      10342                          RHC     HTR
      10342  306351606060            BCI     1,HTR                                                            .002
      10343  0000 00 0 00000         HTR     0,0,0                                                            .002
      10344                          RHC     EMTM
      10344  254463446060            BCI     1,EMTM                                                           .002
      10345 -0760 00 0 00016         EMTM    0,0,0                                                            .002
      10346                          RHC     LMTM
      10346  434463446060            BCI     1,LMTM                                                           .002
      10347  0760 00 0 00016         LMTM    0,0,0                                                            .002
      10350                          RHC     (LRI,LPI,SEA,SEB)
      10350  435131606060            BCI     1,LRI                                                            .002
      10351  0562 00 0 00000         LRI     0,0,0                                                            .002
      10352  434731606060            BCI     1,LPI                                                            .002
      10353 -0564 00 0 00000         LPI     0,0,0                                                            .002
      10354  622521606060            BCI     1,SEA                                                            .002
      10355 -0761 00 0 00041         SEA     0,0,0                                                            .002
      10356  622522606060            BCI     1,SEB                                                            .002
      10357 -0761 00 0 00042         SEB     0,0,0                                                            .002
      10360                          RHC     PCA
      10360  472321606060            BCI     1,PCA                                                            .002
      10361  0756 00 0 00000         PCA     0,0,0                                                            .002
      10362                          RHC     PCD
1            A.DEBUG               SYMBOLIC DEBUGGING AID FOR A-CORE.                            PAGE 67
                                         TABLE OF OPERATION CODES.

      10362  472324606060            BCI     1,PCD                                                            .002
      10363 -0756 00 0 00000         PCD     0,0,0                                                            .002
      10364                          RHC     SCA
      10364  622321606060            BCI     1,SCA                                                            .002
      10365  0636 00 0 00000         SCA     0,0,0                                                            .002
      10366                          RHC     SCD
      10366  622324606060            BCI     1,SCD                                                            .002
      10367 -0636 00 0 00000         SCD     0,0,0                                                            .002
      10370                          RHC     DLD
      10370  244324606060            BCI     1,DLD                                                            .002
      10371  0443 00 0 00000         DLD     0,0,0                                                            .002
      10372                          RHC     DST
      10372  246263606060            BCI     1,DST                                                            .002
      10373 -0603 00 0 00000         DST     0,0,0                                                            .002
      10374                          RHC     DFAD
      10374  242621246060            BCI     1,DFAD                                                           .002
      10375  0301 00 0 00000         DFAD    0,0,0                                                            .002
      10376                          RHC     DUFA
      10376  246426216060            BCI     1,DUFA                                                           .002
      10377 -0301 00 0 00000         DUFA    0,0,0                                                            .002
      10400                          RHC     DFSB
      10400  242662226060            BCI     1,DFSB                                                           .002
      10401  0303 00 0 00000         DFSB    0,0,0                                                            .002
      10402                          RHC     DUFS
      10402  246426626060            BCI     1,DUFS                                                           .002
      10403 -0303 00 0 00000         DUFS    0,0,0                                                            .002
      10404                          RHC     DFAM
      10404  242621446060            BCI     1,DFAM                                                           .002
      10405  0305 00 0 00000         DFAM    0,0,0                                                            .002
      10406                          RHC     DUAM
      10406  246421446060            BCI     1,DUAM                                                           .002
      10407 -0305 00 0 00000         DUAM    0,0,0                                                            .002
      10410                          RHC     DFSM
      10410  242662446060            BCI     1,DFSM                                                           .002
      10411  0307 00 0 00000         DFSM    0,0,0                                                            .002
      10412                          RHC     DUSM
      10412  246462446060            BCI     1,DUSM                                                           .002
      10413 -0307 00 0 00000         DUSM    0,0,0                                                            .002
      10414                          RHC     DFMP
      10414  242644476060            BCI     1,DFMP                                                           .002
      10415  0261 00 0 00000         DFMP    0,0,0                                                            .002
      10416                          RHC     DUFM
      10416  246426446060            BCI     1,DUFM                                                           .002
      10417 -0261 00 0 00000         DUFM    0,0,0                                                            .002
      10420                          RHC     DFDH
      10420  242624306060            BCI     1,DFDH                                                           .002
      10421 -0240 00 0 00000         DFDH    0,0,0                                                            .002
      10422                          RHC     DFDP
      10422  242624476060            BCI     1,DFDP                                                           .002
      10423 -0241 00 0 00000         DFDP    0,0,0                                                            .002
      10424                          RHC     TTR
      10424  636351606060            BCI     1,TTR                                                            .002
      10425  0021 00 0 00000         TTR     0,0,0                                                            .002
      10426                          RHC     TLQ
      10426  634350606060            BCI     1,TLQ                                                            .002
1            A.DEBUG               SYMBOLIC DEBUGGING AID FOR A-CORE.                            PAGE 68
                                         TABLE OF OPERATION CODES.

      10427  0040 00 0 00000         TLQ     0,0,0                                                            .002
      10430                          RHC     IIA
      10430  313121606060            BCI     1,IIA                                                            .002
      10431  0041 00 0 00000         IIA     0,0,0                                                            .002
      10432                          RHC     TIO
      10432  633146606060            BCI     1,TIO                                                            .002
      10433  0042 00 0 00000         TIO     0,0,0                                                            .002
      10434                          RHC     OAI
      10434  462131606060            BCI     1,OAI                                                            .002
      10435  0043 00 0 00000         OAI     0,0,0                                                            .002
      10436                          RHC     PAI
      10436  472131606060            BCI     1,PAI                                                            .002
      10437  0044 00 0 00000         PAI     0,0,0                                                            .002
      10440                          RHC     TIF
      10440  633126606060            BCI     1,TIF                                                            .002
      10441  0046 00 0 00000         TIF     0,0,0                                                            .002
      10442                          RHC     IIR
      10442  313151606060            BCI     1,IIR                                                            .002
 F    10443  0051 00  000000         IIR     0,0,0                                                            .002
      10444                          RHC     RFT
      10444  512663606060            BCI     1,RFT                                                            .002
 F    10445  0054 00  000000         RFT     0,0,0                                                            .002
      10446                          RHC     SIR
      10446  623151606060            BCI     1,SIR                                                            .002
 F    10447  0055 00  000000         SIR     0,0,0                                                            .002
      10450                          RHC     RNT
      10450  514563606060            BCI     1,RNT                                                            .002
 F    10451  0056 00  000000         RNT     0,0,0                                                            .002
      10452                          RHC     RIR
      10452  513151606060            BCI     1,RIR                                                            .002
 F    10453  0057 00  000000         RIR     0,0,0                                                            .002
      10454                          RHC     (TCOA,TCOB,TCOC,TCOD,TCOE,TCOF,TCOG,TCOH)
      10454  632346216060            BCI     1,TCOA                                                           .002
      10455  0060 00 0 00000         TCOA    0,0,0                                                            .002
      10456  632346226060            BCI     1,TCOB                                                           .002
      10457  0061 00 0 00000         TCOB    0,0,0                                                            .002
      10460  632346236060            BCI     1,TCOC                                                           .002
      10461  0062 00 0 00000         TCOC    0,0,0                                                            .002
      10462  632346246060            BCI     1,TCOD                                                           .002
      10463  0063 00 0 00000         TCOD    0,0,0                                                            .002
      10464  632346256060            BCI     1,TCOE                                                           .002
      10465  0064 00 0 00000         TCOE    0,0,0                                                            .002
      10466  632346266060            BCI     1,TCOF                                                           .002
      10467  0065 00 0 00000         TCOF    0,0,0                                                            .002
      10470  632346276060            BCI     1,TCOG                                                           .002
      10471  0066 00 0 00000         TCOG    0,0,0                                                            .002
      10472  632346306060            BCI     1,TCOH                                                           .002
      10473  0067 00 0 00000         TCOH    0,0,0                                                            .002
      10474                          RHC     TSX
      10474  636267606060            BCI     1,TSX                                                            .002
      10475  0074 00 0 00000         TSX     0,0,0                                                            .002
      10476                          RHC     TZE
      10476  637125606060            BCI     1,TZE                                                            .002
      10477  0100 00 0 00000         TZE     0,0,0                                                            .002
      10500                          RHC     TIA
1            A.DEBUG               SYMBOLIC DEBUGGING AID FOR A-CORE.                            PAGE 69
                                         TABLE OF OPERATION CODES.

      10500  633121606060            BCI     1,TIA                                                            .002
      10501  0101 00 0 00000         TIA     0,0,0                                                            .002
      10502                          RHC     CVR
      10502  236551606060            BCI     1,CVR                                                            .002
      10503  0114 00 0 00000         CVR     0,0,0                                                            .002
      10504                          RHC     TPL
      10504  634743606060            BCI     1,TPL                                                            .002
      10505  0120 00 0 00000         TPL     0,0,0                                                            .002
      10506                          RHC     XCA
      10506  672321606060            BCI     1,XCA                                                            .002
      10507  0131 00 0 00000         XCA     0,0,0                                                            .002
      10510                          RHC     TOV
      10510  634665606060            BCI     1,TOV                                                            .002
      10511  0140 00 0 00000         TOV     0,0,0                                                            .002
      10512                          RHC     TQO
      10512  635046606060            BCI     1,TQO                                                            .002
      10513  0161 00 0 00000         TQO     0,0,0                                                            .002
      10514                          RHC     TQP
      10514  635047606060            BCI     1,TQP                                                            .002
      10515  0162 00 0 00000         TQP     0,0,0                                                            .002
      10516                          RHC     MPY
      10516  444770606060            BCI     1,MPY                                                            .002
      10517  0200 00 0 00000         MPY     0,0,0                                                            .002
      10520                          RHC     VLM
      10520  654344606060            BCI     1,VLM                                                            .002
      10521  0204 00 0 00000         VLM     0,0,0                                                            .002
      10522                          RHC     DVH
      10522  246530606060            BCI     1,DVH                                                            .002
      10523  0220 00 0 00000         DVH     0,0,0                                                            .002
      10524                          RHC     DVP
      10524  246547606060            BCI     1,DVP                                                            .002
      10525  0221 00 0 00000         DVP     0,0,0                                                            .002
      10526                          RHC     VDH
      10526  652430606060            BCI     1,VDH                                                            .002
      10527  0224 00 0 00000         VDH     0,0,0                                                            .002
      10530                          RHC     VDP
      10530  652447606060            BCI     1,VDP                                                            .002
      10531  0225 00 0 00000         VDP     0,0,0                                                            .002
      10532                          RHC     FDH
      10532  262430606060            BCI     1,FDH                                                            .002
      10533  0240 00 0 00000         FDH     0,0,0                                                            .002
      10534                          RHC     FDP
      10534  262447606060            BCI     1,FDP                                                            .002
      10535  0241 00 0 00000         FDP     0,0,0                                                            .002
      10536                          RHC     FMP
      10536  264447606060            BCI     1,FMP                                                            .002
      10537  0260 00 0 00000         FMP     0,0,0                                                            .002
      10540                          RHC     FAD
      10540  262124606060            BCI     1,FAD                                                            .002
      10541  0300 00 0 00000         FAD     0,0,0                                                            .002
      10542                          RHC     FSB
      10542  266222606060            BCI     1,FSB                                                            .002
      10543  0302 00 0 00000         FSB     0,0,0                                                            .002
      10544                          RHC     FAM
      10544  262144606060            BCI     1,FAM                                                            .002
1            A.DEBUG               SYMBOLIC DEBUGGING AID FOR A-CORE.                            PAGE 70
                                         TABLE OF OPERATION CODES.

      10545  0304 00 0 00000         FAM     0,0,0                                                            .002
      10546                          RHC     FSM
      10546  266244606060            BCI     1,FSM                                                            .002
      10547  0306 00 0 00000         FSM     0,0,0                                                            .002
      10550                          RHC     ANS
      10550  214562606060            BCI     1,ANS                                                            .002
      10551  0320 00 0 00000         ANS     0,0,0                                                            .002
      10552                          RHC     ERA
      10552  255121606060            BCI     1,ERA                                                            .002
      10553  0322 00 0 00000         ERA     0,0,0                                                            .002
      10554                          RHC     CAS
      10554  232162606060            BCI     1,CAS                                                            .002
      10555  0340 00 0 00000         CAS     0,0,0                                                            .002
      10556                          RHC     ACL
      10556  212343606060            BCI     1,ACL                                                            .002
      10557  0361 00 0 00000         ACL     0,0,0                                                            .002
      10560                          RHC     ADD
      10560  212424606060            BCI     1,ADD                                                            .002
      10561  0400 00 0 00000         ADD     0,0,0                                                            .002
      10562                          RHC     ADM
      10562  212444606060            BCI     1,ADM                                                            .002
      10563  0401 00 0 00000         ADM     0,0,0                                                            .002
      10564                          RHC     SUB
      10564  626422606060            BCI     1,SUB                                                            .002
      10565  0402 00 0 00000         SUB     0,0,0                                                            .002
      10566                          RHC     HPR
      10566  304751606060            BCI     1,HPR                                                            .002
      10567  0420 00 0 00000         HPR     0,0,0                                                            .002
      10570                          RHC     IIS
      10570  313162606060            BCI     1,IIS                                                            .002
      10571  0440 00 0 00000         IIS     0,0,0                                                            .002
      10572                          RHC     LDI
      10572  432431606060            BCI     1,LDI                                                            .002
      10573  0441 00 0 00000         LDI     0,0,0                                                            .002
      10574                          RHC     OSI
      10574  466231606060            BCI     1,OSI                                                            .002
      10575  0442 00 0 00000         OSI     0,0,0                                                            .002
      10576                          RHC     OFT
      10576  462663606060            BCI     1,OFT                                                            .002
      10577  0444 00 0 00000         OFT     0,0,0                                                            .002
      10600                          RHC     RIS
      10600  513162606060            BCI     1,RIS                                                            .002
      10601  0445 00 0 00000         RIS     0,0,0                                                            .002
      10602                          RHC     ONT
      10602  464563606060            BCI     1,ONT                                                            .002
      10603  0446 00 0 00000         ONT     0,0,0                                                            .002
      10604                          RHC     CLA
      10604  234321606060            BCI     1,CLA                                                            .002
      10605  0500 00 0 00000         CLA     0,0,0                                                            .002
      10606                          RHC     CLS
      10606  234362606060            BCI     1,CLS                                                            .002
      10607  0502 00 0 00000         CLS     0,0,0                                                            .002
      10610                          RHC     ZET
      10610  712563606060            BCI     1,ZET                                                            .002
      10611  0520 00 0 00000         ZET     0,0,0                                                            .002
1            A.DEBUG               SYMBOLIC DEBUGGING AID FOR A-CORE.                            PAGE 71
                                         TABLE OF OPERATION CODES.

      10612                          RHC     XEC
      10612  672523606060            BCI     1,XEC                                                            .002
      10613  0522 00 0 00000         XEC     0,0,0                                                            .002
      10614                          RHC     LXA
      10614  436721606060            BCI     1,LXA                                                            .002
      10615  0534 00 0 00000         LXA     0,0,0                                                            .002
      10616                          RHC     LAC
      10616  432123606060            BCI     1,LAC                                                            .002
      10617  0535 00 0 00000         LAC     0,0,0                                                            .002
      10620                          RHC     LDQ
      10620  432450606060            BCI     1,LDQ                                                            .002
      10621  0560 00 0 00000         LDQ     0,0,0                                                            .002
      10622                          RHC     (RCHA,RCHC,RCHE,RCHG)
      10622  512330216060            BCI     1,RCHA                                                           .002
      10623  0540 00 0 00000         RCHA    0,0,0                                                            .002
      10624  512330236060            BCI     1,RCHC                                                           .002
      10625  0541 00 0 00000         RCHC    0,0,0                                                            .002
      10626  512330256060            BCI     1,RCHE                                                           .002
      10627  0542 00 0 00000         RCHE    0,0,0                                                            .002
      10630  512330276060            BCI     1,RCHG                                                           .002
      10631  0543 00 0 00000         RCHG    0,0,0                                                            .002
      10632                          RHC     ENB
      10632  254522606060            BCI     1,ENB                                                            .002
      10633  0564 00 0 00000         ENB     0,0,0                                                            .002
      10634                          RHC     STZ
      10634  626371606060            BCI     1,STZ                                                            .002
      10635  0600 00 0 00000         STZ     0,0,0                                                            .002
      10636                          RHC     STO
      10636  626346606060            BCI     1,STO                                                            .002
      10637  0601 00 0 00000         STO     0,0,0                                                            .002
      10640                          RHC     SLW
      10640  624366606060            BCI     1,SLW                                                            .002
      10641  0602 00 0 00000         SLW     0,0,0                                                            .002
      10642                          RHC     STI
      10642  626331606060            BCI     1,STI                                                            .002
      10643  0604 00 0 00000         STI     0,0,0                                                            .002
      10644                          RHC     STD
      10644  626324606060            BCI     1,STD                                                            .002
      10645  0622 00 0 00000         STD     0,0,0                                                            .002
      10646                          RHC     STT
      10646  626363606060            BCI     1,STT                                                            .002
      10647  0625 00 0 00000         STT     0,0,0                                                            .002
      10650                          RHC     STA
      10650  626321606060            BCI     1,STA                                                            .002
      10651  0621 00 0 00000         STA     0,0,0                                                            .002
      10652                          RHC     STP
      10652  626347606060            BCI     1,STP                                                            .002
      10653  0630 00 0 00000         STP     0,0,0                                                            .002
      10654                          RHC     SXA
      10654  626721606060            BCI     1,SXA                                                            .002
      10655  0634 00 0 00000         SXA     0,0,0                                                            .002
      10656                          RHC     PAX
      10656  472167606060            BCI     1,PAX                                                            .002
      10657  0734 00 0 00000         PAX     0,0,0                                                            .002
      10660                          RHC     PAC
1            A.DEBUG               SYMBOLIC DEBUGGING AID FOR A-CORE.                            PAGE 72
                                         TABLE OF OPERATION CODES.

      10660  472123606060            BCI     1,PAC                                                            .002
      10661  0737 00 0 00000         PAC     0,0,0                                                            .002
      10662                          RHC     PXA
      10662  476721606060            BCI     1,PXA                                                            .002
      10663  0754 00 0 00000         PXA     0,0,0                                                            .002
      10664                          RHC     PSE           FOLLOWING ARE THE 'EXTENDED' VERSIONS.
      10664  476225606060            BCI     1,PSE                                                            .002
      10665  0760 00 0 00000         PSE     0,0,0                                                            .002
      10666                          RHC     CLM
      10666  234344606060            BCI     1,CLM                                                            .002
      10667  0760 00 0 00000         CLM     0,0,0                                                            .002
      10670                          RHC     LBT
      10670  432263606060            BCI     1,LBT                                                            .002
      10671  0760 00 0 00001         LBT     0,0,0                                                            .002
      10672                          RHC     CHS
      10672  233062606060            BCI     1,CHS                                                            .002
      10673  0760 00 0 00002         CHS     0,0,0                                                            .002
      10674                          RHC     SSP
      10674  626247606060            BCI     1,SSP                                                            .002
      10675  0760 00 0 00003         SSP     0,0,0                                                            .002
      10676                          RHC     ENK
      10676  254542606060            BCI     1,ENK                                                            .002
      10677  0760 00 0 00004         ENK     0,0,0                                                            .002
      10700                          RHC     IOT
      10700  314663606060            BCI     1,IOT                                                            .002
      10701  0760 00 0 00005         IOT     0,0,0                                                            .002
      10702                          RHC     COM
      10702  234644606060            BCI     1,COM                                                            .002
      10703  0760 00 0 00006         COM     0,0,0                                                            .002
      10704                          RHC     RND
      10704  514524606060            BCI     1,RND                                                            .002
      10705  0760 00 0 00010         RND     0,0,0                                                            .002
      10706                          RHC     FRN
      10706  265145606060            BCI     1,FRN                                                            .002
      10707  0760 00 0 00011         FRN     0,0,0                                                            .002
      10710                          RHC     DCT
      10710  242363606060            BCI     1,DCT                                                            .002
      10711  0760 00 0 00012         DCT     0,0,0                                                            .002
      10712                          RHC     SLN
      10712  624345606060            BCI     1,SLN                                                            .002
      10713  0760 00 0 00140         SLN     0,0,0                                                            .002
      10714                          RHC     SLF
      10714  624326606060            BCI     1,SLF                                                            .002
      10715  0760 00 0 00140         SLF     0,0,0                                                            .002
      10716                          RHC     NOP
      10716  454647606060            BCI     1,NOP                                                            .002
      10717  0761 00 0 00000         NOP     0,0,0                                                            .002
      10720                          RHC     RDS
      10720  512462606060            BCI     1,RDS                                                            .002
      10721  0762 00 0 00000         RDS     0,0,0                                                            .002
      10722                          RHC     LLS
      10722  434362606060            BCI     1,LLS                                                            .002
      10723  0763 00 0 00000         LLS     0,0,0                                                            .002
      10724                          RHC     BSR
      10724  226251606060            BCI     1,BSR                                                            .002
1            A.DEBUG               SYMBOLIC DEBUGGING AID FOR A-CORE.                            PAGE 73
                                         TABLE OF OPERATION CODES.

      10725  0764 00 0 00200         BSR     0,0,0                                                            .002
      10726                          RHC     LRS
      10726  435162606060            BCI     1,LRS                                                            .002
      10727  0765 00 0 00000         LRS     0,0,0                                                            .002
      10730                          RHC     WRS
      10730  665162606060            BCI     1,WRS                                                            .002
      10731  0766 00 0 00000         WRS     0,0,0                                                            .002
      10732                          RHC     ALS
      10732  214362606060            BCI     1,ALS                                                            .002
      10733  0767 00 0 00000         ALS     0,0,0                                                            .002
      10734                          RHC     WEF
      10734  662526606060            BCI     1,WEF                                                            .002
      10735  0770 00 0 00200         WEF     0,0,0                                                            .002
      10736                          RHC     ARS
      10736  215162606060            BCI     1,ARS                                                            .002
      10737  0771 00 0 00000         ARS     0,0,0                                                            .002
      10740                          RHC     REW
      10740  512566606060            BCI     1,REW                                                            .002
      10741  0772 00 0 00200         REW     0,0,0                                                            .002
      10742                          RHC     AXT
      10742  216763606060            BCI     1,AXT                                                            .002
      10743  0774 00 0 00000         AXT     0,0,0                                                            .002
      10744                          RHC     SDN
      10744  622445606060            BCI     1,SDN                                                            .002
      10745  0776 00 0 00200         SDN     0,0,0                                                            .002
      10746                          RHC     RIA
      10746  513121606060            BCI     1,RIA                                                            .002
      10747 -0042 00 0 00000         RIA     0,0,0                                                            .002
      10750                          RHC     PIA
      10750  473121606060            BCI     1,PIA                                                            .002
      10751 -0046 00 0 00000         PIA     0,0,0                                                            .002
      10752                          RHC     IIL
      10752  313143606060            BCI     1,IIL                                                            .002
 F    10753 -0051 00  000000         IIL     0,0,0                                                            .002
      10754                          RHC     LFT
      10754  432663606060            BCI     1,LFT                                                            .002
 F    10755 -0054 00  000000         LFT     0,0,0                                                            .002
      10756                          RHC     SIL
      10756  623143606060            BCI     1,SIL                                                            .002
 F    10757 -0055 00  000000         SIL     0,0,0                                                            .002
      10760                          RHC     LNT
      10760  434563606060            BCI     1,LNT                                                            .002
 F    10761 -0056 00  000000         LNT     0,0,0                                                            .002
      10762                          RHC     RIL
      10762  513143606060            BCI     1,RIL                                                            .002
 F    10763 -0057 00  000000         RIL     0,0,0                                                            .002
      10764                          RHC     TNZ
      10764  634571606060            BCI     1,TNZ                                                            .002
      10765 -0100 00 0 00000         TNZ     0,0,0                                                            .002
      10766                          RHC     TIB
      10766  633122606060            BCI     1,TIB                                                            .002
      10767 -0101 00 0 00000         TIB     0,0,0                                                            .002
      10770                          RHC     CAQ
      10770  232150606060            BCI     1,CAQ                                                            .002
      10771 -0114 00 0 00000         CAQ     0,0,0                                                            .002
1            A.DEBUG               SYMBOLIC DEBUGGING AID FOR A-CORE.                            PAGE 74
                                         TABLE OF OPERATION CODES.

      10772                          RHC     TMI
      10772  634431606060            BCI     1,TMI                                                            .002
      10773 -0120 00 0 00000         TMI     0,0,0                                                            .002
      10774                          RHC     XCL
      10774  672343606060            BCI     1,XCL                                                            .002
      10775 -0130 00 0 00000         XCL     0,0,0                                                            .002
      10776                          RHC     TNO
      10776  634546606060            BCI     1,TNO                                                            .002
      10777 -0140 00 0 00000         TNO     0,0,0                                                            .002
      11000                          RHC     CRQ
      11000  235150606060            BCI     1,CRQ                                                            .002
      11001 -0154 00 0 00000         CRQ     0,0,0                                                            .002
      11002                          RHC     MPR
      11002  444751606060            BCI     1,MPR                                                            .002
      11003 -0200 00 0 00000         MPR     0,0,0                                                            .002
      11004                          RHC     UFM
      11004  642644606060            BCI     1,UFM                                                            .002
      11005 -0260 00 0 00000         UFM     0,0,0                                                            .002
      11006                          RHC     UFA
      11006  642621606060            BCI     1,UFA                                                            .002
      11007 -0300 00 0 00000         UFA     0,0,0                                                            .002
      11010                          RHC     UFS
      11010  642662606060            BCI     1,UFS                                                            .002
      11011 -0302 00 0 00000         UFS     0,0,0                                                            .002
      11012                          RHC     UAM
      11012  642144606060            BCI     1,UAM                                                            .002
      11013 -0304 00 0 00000         UAM     0,0,0                                                            .002
      11014                          RHC     USM
      11014  646244606060            BCI     1,USM                                                            .002
      11015 -0306 00 0 00000         USM     0,0,0                                                            .002
      11016                          RHC     ANA
      11016  214521606060            BCI     1,ANA                                                            .002
      11017 -0320 00 0 00000         ANA     0,0,0                                                            .002
      11020                          RHC     LAS
      11020  432162606060            BCI     1,LAS                                                            .002
      11021 -0340 00 0 00000         LAS     0,0,0                                                            .002
      11022                          RHC     SBM
      11022  622244606060            BCI     1,SBM                                                            .002
      11023 -0400 00 0 00000         SBM     0,0,0                                                            .002
      11024                          RHC     CAL
      11024  232143606060            BCI     1,CAL                                                            .002
      11025 -0500 00 0 00000         CAL     0,0,0                                                            .002
      11026                          RHC     ORA
      11026  465121606060            BCI     1,ORA                                                            .002
      11027 -0501 00 0 00000         ORA     0,0,0                                                            .002
      11030                          RHC     NZT
      11030  457163606060            BCI     1,NZT                                                            .002
      11031 -0520 00 0 00000         NZT     0,0,0                                                            .002
      11032                          RHC     LXD
      11032  436724606060            BCI     1,LXD                                                            .002
      11033 -0534 00 0 00000         LXD     0,0,0                                                            .002
      11034                          RHC     LDC
      11034  432423606060            BCI     1,LDC                                                            .002
      11035 -0535 00 0 00000         LDC     0,0,0                                                            .002
      11036                          RHC     (RCHB,RCHD,RCHF,RCHH)
1            A.DEBUG               SYMBOLIC DEBUGGING AID FOR A-CORE.                            PAGE 75
                                         TABLE OF OPERATION CODES.

      11036  512330226060            BCI     1,RCHB                                                           .002
      11037 -0540 00 0 00000         RCHB    0,0,0                                                            .002
      11040  512330246060            BCI     1,RCHD                                                           .002
      11041 -0541 00 0 00000         RCHD    0,0,0                                                            .002
      11042  512330266060            BCI     1,RCHF                                                           .002
      11043 -0542 00 0 00000         RCHF    0,0,0                                                            .002
      11044  512330306060            BCI     1,RCHH                                                           .002
      11045 -0543 00 0 00000         RCHH    0,0,0                                                            .002
      11046                          RHC     STQ
      11046  626350606060            BCI     1,STQ                                                            .002
      11047 -0600 00 0 00000         STQ     0,0,0                                                            .002
      11050                          RHC     ORS
      11050  465162606060            BCI     1,ORS                                                            .002
      11051 -0602 00 0 00000         ORS     0,0,0                                                            .002
      11052                          RHC     SLQ
      11052  624350606060            BCI     1,SLQ                                                            .002
      11053 -0620 00 0 00000         SLQ     0,0,0                                                            .002
      11054                          RHC     STL
      11054  626343606060            BCI     1,STL                                                            .002
      11055 -0625 00 0 00000         STL     0,0,0                                                            .002
      11056                          RHC     SXD
      11056  626724606060            BCI     1,SXD                                                            .002
      11057 -0634 00 0 00000         SXD     0,0,0                                                            .002
      11060                          RHC     PDX
      11060  472467606060            BCI     1,PDX                                                            .002
      11061 -0734 00 0 00000         PDX     0,0,0                                                            .002
      11062                          RHC     PDC
      11062  472423606060            BCI     1,PDC                                                            .002
      11063 -0737 00 0 00000         PDC     0,0,0                                                            .002
      11064                          RHC     PXD
      11064  476724606060            BCI     1,PXD                                                            .002
      11065 -0754 00 0 00000         PXD     0,0,0                                                            .002
      11066                          RHC     MSE           FOLLOWING ARE THE EXTENDED VERSIONS.
      11066  446225606060            BCI     1,MSE                                                            .002
      11067 -0760 00 0 00000         MSE     0,0,0                                                            .002
      11070                          RHC     PBT
      11070  472263606060            BCI     1,PBT                                                            .002
      11071 -0760 00 0 00001         PBT     0,0,0                                                            .002
      11072                          RHC     SSM
      11072  626244606060            BCI     1,SSM                                                            .002
      11073 -0760 00 0 00003         SSM     0,0,0                                                            .002
      11074                          RHC     SLT
      11074  624363606060            BCI     1,SLT                                                            .002
      11075 -0760 00 0 00140         SLT     0,0,0                                                            .002
      11076                          RHC     SWT
      11076  626663606060            BCI     1,SWT                                                            .002
      11077  0760 00 0 00160         SWT     0,0,0                                                            .002
      11100                          RHC     LGL
      11100  432743606060            BCI     1,LGL                                                            .002
      11101 -0763 00 0 00000         LGL     0,0,0                                                            .002
      11102                          RHC     BSF
      11102  226226606060            BCI     1,BSF                                                            .002
      11103 -0764 00 0 00200         BSF     0,0,0                                                            .002
      11104                          RHC     LGR
      11104  432751606060            BCI     1,LGR                                                            .002
1            A.DEBUG               SYMBOLIC DEBUGGING AID FOR A-CORE.                            PAGE 76
                                         TABLE OF OPERATION CODES.

      11105 -0765 00 0 00000         LGR     0,0,0                                                            .002
      11106                          RHC     RUN
      11106  516445606060            BCI     1,RUN                                                            .002
      11107 -0772 00 0 00200         RUN     0,0,0                                                            .002
      11110                          RHC     RQL
      11110  515043606060            BCI     1,RQL                                                            .002
      11111 -0773 00 0 00000         RQL     0,0,0                                                            .002
      11112                          RHC     AXC
      11112  216723606060            BCI     1,AXC                                                            .002
      11113 -0774 00 0 00000         AXC     0,0,0                                                            .002
      11114                          RHC     TXL           FOLLOWING ARE ALL PREFIX CODES.
      11114  636743606060            BCI     1,TXL                                                            .002
      11115 -3 00000 0 00000         TXL     0,0,0                                                            .002
      11116                          RHC     TNX
      11116  634567606060            BCI     1,TNX                                                            .002
      11117 -2 00000 0 00000         TNX     0,0,0                                                            .002
      11120                          RHC     STR
      11120  626351606060            BCI     1,STR                                                            .002
      11121 -1 00000 0 00000         STR     0,0,0                                                            .002
      11122                          RHC     MZE
      11122  447125606060            BCI     1,MZE                                                            .002
      11123 -0 00000 0 00000         MZE     0,0,0                                                            .002
      11124                          RHC     TXH
      11124  636730606060            BCI     1,TXH                                                            .002
      11125  3 00000 0 00000         TXH     0,0,0                                                            .002
      11126                          RHC     TIX
      11126  633167606060            BCI     1,TIX                                                            .002
      11127  2 00000 0 00000         TIX     0,0,0                                                            .002
      11130                          RHC     TXI
      11130  636731606060            BCI     1,TXI                                                            .002
      11131  1 00000 0 00000         TXI     0,0,0                                                            .002
      11132                          RHC     PZE
      11132  477125606060            BCI     1,PZE                                                            .002
      11133  0 00000 0 00000         PZE     0,0,0                                                            .002
                       11134  OPEND  EQU     *
                              *
1            A.DEBUG               SYMBOLIC DEBUGGING AID FOR A-CORE.                            PAGE 77
                                         REMOTE SEQUENCES.

            -0 17560 0 05336  PMC    OPSYN   SHOW          *REVIVE DEFINITION OF PMC TO PRINT THEM.
      11134                          RMT     *             GO, GO, GO.
      11134  224645604146     ..001  BCI     2,BON JOUR.*                                                     .002
      11136  602545234664     ..002  BCI     5, ENCOUNTERED UNEXPECTEDLY.*                                    .002
      11143  254524604626     ..003  BCI     3,END OF REQUEST*                                                .002
      11146  422570600202     ..004  BCI     4,KEY 22 IS NOT DOWN.*                                           .002
      11152  603160663143     ..005  BCI     6, I WILL RETRY EVERY 10 SECONDS.*                               .002
      11160  0101 00 0 11373  SLEEP  TIA     =HSLEEP                                                          .002
      11161  0101 00 0 11372  SETLOC TIA     =HSETLOC                                                         .002
      11162  216460512565     ..006  BCI     2,AU REVOIR.*                                                    .002
      11164  0101 00 0 11343  CHNCOM TIA     =HCHNCOM                                                         .002
      11165  0101 00 0 11350  GETLOC TIA     =HGETLOC                                                         .002
      11166  512547252163     RPTC   BCI     2,REPEAT.*                                                       .002
      11170  632122432560     ..007  BCI     6,TABLE FULL, DEFINITION IGNORED.*                               .002
      11176  603162604546     ..008  BCI     3, IS NOT DEFINED.*                                              .002
      11201  603162604346     ..009  BCI     3, IS LOADED AT *                                                .002
      11204  603162604546     ..010  BCI     3, IS NOT IN CORE.*                                              .002
      11207  466525512643     ..011  BCI     5,OVERFLOW DURING CONVERSION.*                                   .002
      11214  466525512643     ..012  BCI     5,OVERFLOW DURING SHIFTING.*                                     .002
      11221  263347336045     ..013  BCI     5,F.P. NUMBER OUT OF RANGE.*                                     .002
      11226  0101 00 0 11354  OPEN   TIA     =HOPEN                                                           .002
      11227  0101 00 0 11341  BUFFER TIA     =HBUFFER                                                         .002
      11230  0101 00 0 11356  RDWAIT TIA     =HRDWAIT                                                         .002
      11231  0101 00 0 11344  CLOSE  TIA     =HCLOSE                                                          .002
      11232  234644472151     ..050  BCI     3,COMPARISON DONE.*                                              .002
      11235  223145215170     ..051  BCI     6,BINARY CARD IS NON-RELOCATABLE.*                               .002
      11243  0101 00 0 11347  GETCOM TIA     =HGETCOM                                                         .002
      11244  0101 00 0 11346  GETBRK TIA     =HGETBRK                                                         .002
      11245  0101 00 0 11371  SETBRK TIA     =HSETBRK                                                         .002
      11246  0101 00 0 11374  WRFLXA TIA     =HWRFLXA                                                         .002
      11247  632122432560     ..118  BCI     7,TABLE FULL, FIRST SYMBOL NOT INSERTED IS *                     .002
      11256  627044224643     ..125  BCI     3,SYMBOLS LOADED.*                                               .002
      11261  216363254447     ..126  BCI     7,ATTEMPT TO REDEFINE INTERNAL SYMBOL *                          .002
      11270  603127454651     ..127  BCI     2, IGNORED.*                                                     .002
      11272  0101 00 0 11352  IODIAG TIA     =HIODIAG                                                         .002
      11273  602646516054     ..128  BCI     1, FOR *                                                         .002
      11274  433145422524     ..135  BCI     2,LINKED *                                                       .002
      11276  263143256054     ..136  BCI     1,FILE *                                                         .002
      11277  604546636026     ..137  BCI     2, NOT FOUND.*                                                   .002
                              *
1            A.DEBUG               SYMBOLIC DEBUGGING AID FOR A-CORE.                            PAGE 78
                                         LITERALS.

                                     END

        LITERALS
      11301  000000000000
      11302  000000000001
      11303  000000000006
      11304  000000000007
      11305  000000000010
      11306  000000000011
      11307  000000000012
      11310  000000000013
      11311  000000000014
      11312  000000000016
      11313  000000000020
      11314  000000000025
      11315  000000000033
      11316  000000000040
      11317  000000000054
      11320  000000000055
      11321  000000000060
      11322  000000000061
      11323  000000000070
      11324  000000000072
      11325  000000000073
      11326  000000000077
      11327  000000000200
      11330  000000002321
      11331  000000020000
      11332  000000077777
      11333  000060000000
      11334  077777000000
      11335  200077000000
      11336  200777777777
      11337  204500000000
      11340  224321454260
      11341  226426262551
      11342  233000000000
      11343  233045234644
      11344  234346622560
      11345  255151465160
      11346  272563225142
      11347  272563234644
      11350  272563434623
      11351  300000000000
      11352  314624312127
      11353  400000000000
      11354  464725456060
      11355  512426436721
      11356  512466213163
      11357  516060606060
      11360  546060606060
      11361  556060606060
      11362  575757575757
      11363  602425226427
      11364  602651464460
1            A.DEBUG               SYMBOLIC DEBUGGING AID FOR A-CORE.                            PAGE 79
                                         LITERALS.

      11365  606060226262
      11366  606060606000
      11367  606060606060
      11370  606270446322
      11371  622563225142
      11372  622563434623
      11373  624325254760
      11374  665126436721
      11375  744421314534
      11376  777700000000
      11377  777700007777
      11400  777777777700
      11401  777777777777
1            A.DEBUG               SYMBOLIC DEBUGGING AID FOR A-CORE.                            PAGE 1
                        POST PROCESSOR ASSEMBLY DATA

       77461 IS THE LAST LOCATION NOT USED BY THIS PROGRAM
      11402 IS THE FIRST LOCATION NOT USED BY THIS PROGRAM

0REFERENCES TO DEFINED SYMBOLS
       1206      E  1155, 1201
        730     BC    11,   32,   35,   76,  112,  135,  153,  157,  277,  345,  354,  361,  403,  426,  561,  601,  625
                     633,  643,  671, 2703, 2712
       6303     CQ  6256, 6265, 6271
       2175     CR     4,  327,  556,  765, 1414, 1624, 2662, 6353
          0     ..     1,  154,  155,  461,  514,  527,  537,  540,  541,  557,  766, 1067, 1243, 1244, 1337, 1371, 1405
                    1415, 1423, 1654, 1656, 1660, 1661, 1673, 1674, 1675, 1726, 1751, 1764, 1771, 1772, 2005, 2026, 2027
                    2030, 2031, 2101, 2102, 2103, 2131, 2132, 2172, 2217, 2226, 2230, 2270, 2271, 2310, 2336, 2337, 2412
                    2413, 2455, 2526, 2671, 2672, 2673, 2701, 2753, 2771, 3035, 6241, 6242, 6243, 6300, 6301,10212
       2203     MQ  2140, 2173
        733     OP    71,   77,  107,  111,  136
       1067     XR  1015
        734    ADD    72,  120,  140
        736    DEC    74,  134,  146
        671    DEF   250
       1101    DGT  1040, 1045, 1055, 1066, 1142, 1145, 1213, 1231, 1242
       1246    ERR  1167, 1220, 1331
      10202    FND 10171,10174
       1335    FPT  1112, 1206, 1236, 1250, 1257
       1332    FPZ  1114, 1210, 1240, 1252, 1255
       6243    FXA  6144
       6242    FXB  6143
       6241    FXC  6142, 6162, 6234
       6233    FXP  6226
       1423    GWX  1407
        203    ILF    62,  163,  303,  310,  337,  351,  370,  375,  407,  435,  446,  453,  565,  572,  610,  615,  631
                     652,  657,  675,  702,  710, 1030, 1036, 1261, 2707, 2716
       2415    IND  2361
        415    INT  2121
       6300    IXB  6255
       6301    IXC  6254
       6366    ...  1456, 1457, 1460, 1461, 1462, 1463, 1465, 1466, 1467, 1470, 1472, 1473, 1474, 1475, 1476, 1477, 1500
                    1666, 1667, 1670, 1734, 1735, 1736, 1737, 1740, 1741, 1743, 1744, 1745, 1746, 1761, 1762, 1763, 1764
                    1765, 1766, 1767, 2047, 2050, 2051, 2576, 2577, 2600, 2601, 2602, 2603, 2605, 2606, 2607, 2610, 2612
                    2613, 2614, 2615, 2616, 2617, 2620, 2664, 2665, 2666, 6322, 6364, 6365, 6366
       2701    KXR  2676
       2552    LAR  2566
       2567    LAW  2546, 2552, 2560, 2562, 2565
        202    LOC    63,  311,  312,  416,  420,  421,  530,  577,  641,  703,  713, 1552, 1553, 1611, 1625, 1627, 2777
        157    LOK   105
       1333    MAG  1106, 1143, 1146, 1174, 1175, 1222, 1225, 1232
       1135    MMI  1125
       1334    MSG  1107, 1135, 1233
       6203    NEG  6176
       6205    NOR  6202
       1100    NUM  1016, 1042, 1046, 1056
       1370    OUT  1376
       2341    PLS  2320, 2323
        311    PUT    56
       6163    REG  6153
1            A.DEBUG               SYMBOLIC DEBUGGING AID FOR A-CORE.                            PAGE 2
                        POST PROCESSOR ASSEMBLY DATA

       2012    SCH  2034
       2675    SFF  2643, 2655
       1077    SFT  1004, 1007, 1012, 1062
       2026    SFW  2001
       1102    SGN  1017, 1033, 1057
       1405    SKX  1377
       2027    SRW  2003, 2040
       2005    SWD  2000, 2036
       2177    TAB   552, 1615, 1620
        735    TAG    73,  126,  142
       1330    TEN  1172, 1223, 1226, 6200, 6204
       1331    TTR  1115, 1216
       1336    TYI  1020, 1034, 1050, 1117, 1136, 1147, 1162, 1176, 1402, 2276, 2433
       2137    TYO   214,  551,  764, 1614, 2073, 2100, 2176, 2200, 2202, 2266, 2333, 2363, 2377, 2405, 2421, 2661, 6151
                    6155, 6157, 6161, 6221, 6223, 6231, 6236, 6262, 6276, 6345, 6352, 6410
       1675    VXA  1451
       1674    VXB  1450
       1673    VXC  1447
        530    XIT   511,  513
       2035   ALLB  2010
        625   AUTO   276
       1103   BASE  1014, 1027, 1035, 1043, 1051, 6253, 6270
       2435   BCLK  2440
        514   BMLK   474
        527   BNLK   475,  524
       2312   BOIG  2251, 2253, 2262
       2254   BOJN  2252
       2260   BOLP  2267
       2271   BOXA  2255
       2270   BOXC  2254
       6425   BUF1  1467, 2607
       7305   BUF2  1745
       6304   BUFF  2275, 2303, 2305, 2307, 6264, 6272, 6275
       1514   CARD  1475, 1501, 1506, 1550, 1565, 1642, 1643, 1645, 1646, 2615, 2622, 2626, 2640, 2641
        277   CEND   230,  231,  236,  277,  424
       1622   CHKA  1555, 1631
       1726   CHXC  1705, 1714, 1723
        230   CMND    50
        241   CORG   230,  241
        461   CTSX   425,  555, 1617, 1623
       1550   DATA  1502
       6321   DERR  1463, 1470, 1500, 1670, 1741, 1746, 2043, 2051, 2603, 2610, 2620, 2666
       3035   DFXC  3002, 3013, 3025, 3037
       6417   DIAG  6322, 6417, 6425
       6423   DIN1  6342, 6364, 6405
       6424   DIN2  6346, 6365, 6411
        554   DMPL   546
        557   DMPX   544
       3026   DOBS  3014, 3020
        544   DUMP   422,  505,  536
       2466   EVAL    53
       2545   EVBC  2476, 2510, 2525
       2476   EVGO  2471
       1140   FCNV  1134, 1161
       1225   FDIV  1221
1            A.DEBUG               SYMBOLIC DEBUGGING AID FOR A-CORE.                            PAGE 3
                        POST PROCESSOR ASSEMBLY DATA

       1231   FFMT  1157, 1203
       1704   FILE  1453, 1457, 1465, 1472, 1666
       1255   FILF  1132, 1164
      10253   FLAG 10166,10227,10241,10245
       6245   FNUM  6145, 6177, 6203
       6225   FRAC  6232
        666   FULL   715
       2226   FWCW  2224
       2230   FWXC  2221, 2223
       1244   FXRB  1105
       1243   FXRC  1104
        474   GOLK   472
       1040   ICNV  1032, 1054
       6274   IFIX  6266
       1055   IFMT  1052
       6275   IFOX  6277
       1014   IJIN  1006, 1011
       6253   IJON  6250
       1033   IMIN  1026
        623   KILL   604
       2546   LADJ   101,  356,  574,  636,  712, 2501,10231
       2562   LASH  2557
        457   LOC1   437,  466,  476
        460   LOC2   454,  465,  507
         32   LOCF    21,   44,   52,  235
        424   LOOK   252,  254,  256,  260,  264,  272
          6   MAIN   220,  343,  402,  423,  431,  456,  600,  622,  624,  664,  716,  726, 2711, 2720
        665   NAME   353,  376,  377,  617,  635,  642,  660, 1715, 1725
        416   NEXT    40
       6327   NOPE  6377
        766   OFXC   737
        726   OOPS   670, 1001, 1073, 1076, 1254, 6357, 6362, 6366, 6367, 6416
      11226   OPEN  1455, 1733, 2575
      10233   OPLK 10236
      10220   OPXR 10165,10202,10221,10242
      10212   OSXR 10204,10215
       1071   OVDC  1047
       1074   OVFC  1064
       2172   OXRC  2137, 2157
       1003   PORG   747,  761,  767, 1452, 1511, 1551, 2574, 2635
        543   PREV   503,  520
        342   PUT1   313
       1665   QUIT  1476, 1634, 1701
      11166   RPTC   526,  534
         22   RQST    15
       2751   SBCF  2733, 2734
       2744   SBOK  2742
       2771   SBXR  2761, 3000
       1730   SETF  1724
        135   SINP   116,  124,  132
       6215   SKIP  6207
       2426   SPWD  2345, 2347, 2351, 2415
       2412   SPXB  2344
       2413   SPXC  2343, 2375, 2403
       2673   SRXA  2572
1            A.DEBUG               SYMBOLIC DEBUGGING AID FOR A-CORE.                            PAGE 4
                        POST PROCESSOR ASSEMBLY DATA

       2672   SRXB  2571
       2671   SRXC  2570
         65   SUBF    12,   33,   45
       2217   SWXC  2206, 2213
        154   SYMX    67,  164
        155   SYMY    70
       1427   TYIB  1343, 1346
       1753   TYIF  1732, 1735, 1743, 1761, 2047
       1371   TYIX  1336
       2205   TYOB  2147, 2155, 2171
       2056   TYPA     1,  221,  321,  324,  757, 2652, 3015, 6337, 6400, 6402
       2054   TYPE   216,  410,  525,  533,  666,  724,  777, 1071, 1074, 1246, 1671, 1677, 2667, 3023, 6414
       2064   TYPG  2075
       2057   TYPJ  2055
       2066   TYPL  2074
       2076   TYPX  2072
        727   USYM   717,  721
        731   WORD   137,  141,  144,  145,  150,  151,  152, 1567, 1572, 1576, 1601, 1603, 1606, 1616, 2352, 2355, 2364
                    2366, 2406, 2422, 2637, 2644
        660   WORK   646
        535   XPCA   532
       6246   XPNT  6175, 6211, 6213, 6233, 6237
        561   YANK   262
       2721  ABSSW  2710, 2717, 2732
          0  ACORE   744
        117  ADNXT
          1  A.DBG     0,    1
       2451  BCBRK  2437
       2276  BCDCH  2306
       2273  BCDIN   167,  171
       2310  BCDIX  2273
       2307  BCDPT  2301
       2455  BCEND  2427
       2464  BCFLG  2430, 2447, 2452
       2457  BCORG  2434
       2433  BCRET  2446, 2450
       2427  BCSCH     7,   75,  352,  371,  566,  611,  632,  653,  704, 2475
       2465  BCSYM  2432, 2442, 2444, 2454
       2464  BCTAB  2434, 2435, 2464
         35  BLANK    25
        462  BLKLK   455
        537  BLKXA   462,  531
        540  BLKXB   463
        541  BLKXC   464
        236  CDISP   233
       1702  CELL1  1454, 1503, 1505
       1604  CHECK  1554, 1600, 1630
       1705  CHFIL     5
       1373  CHPRE  1367
      11231  CLOSE  1665, 2046, 2663, 6363
       1703  COUNT  1560, 1561, 1635, 1637
       1426  CRFLG     3, 1340, 1353, 1412, 1417
       3027  DEFNO  3004
          6  DILTH  6322, 6425
       2503  EVADD  2536
1            A.DEBUG               SYMBOLIC DEBUGGING AID FOR A-CORE.                            PAGE 5
                        POST PROCESSOR ASSEMBLY DATA

       2526  EVEND  2466, 2472
       2541  EVMIN  2516
       2530  EVNUM  2477
       2537  EVPLS  2513
       2475  EVRET  2540, 2542
       2544  EVSGN  2470, 2474, 2504, 2537, 2541
       2543  EVTOT  2467, 2473, 2506, 2507, 2517
       1136  FDIG1  1122
       1774  FIXCR  1770
       1771  FIXCW  1757
       2030  FIXXA  1775
       2031  FIXXC  1774
       2337  FLDXB  2314
       2336  FLDXC  2313, 2330
       1104  FLOIN   173
      10214  FNDIT 10210
       1162  FRAC1  1130
       1176  FRAC2  1152
       1167  FRCNV  1205
       1126  FRET1  1137
        473  FWDLK   470
       2221  FWORD  2167
        454  GLOOK   442
       1430  GWBUF  1410, 1416, 1421, 1422
       1421  GWMIB  1413
       1407  GWORD  1342
       1034  IDIG1  1023
        224  ILFBL   210
        227  ILFCH   211,  213
        221  ILFCR   205
        216  ILFJN   223,  226
       6265  INEXT  6273
       1007  INTIN   175, 1212
       2135  INTLA  2112, 2126
       2134  INTOV  2107, 2111, 2127
       2136  INTSA  2114, 2124
       2131  INTXC  2115
      11134  ..001     2
      11136  ..002   217
      11143  ..003   222
      11146  ..004   322
      11152  ..005   325
      11162  ..006   411
      11170  ..007   667
      11176  ..008   725
      11201  ..009   760
      11204  ..010  1000
      11207  ..011  1072
      11214  ..012  1075
      11221  ..013  1247
      11232  ..050  1672
      11235  ..051  1700
      11247  ..118  2653
      11256  ..125  2670
      11261  ..126  3016
1            A.DEBUG               SYMBOLIC DEBUGGING AID FOR A-CORE.                            PAGE 6
                        POST PROCESSOR ASSEMBLY DATA

      11270  ..127  3024
      11273  ..128  6340
      11274  ..135  6401
      11276  ..136  6403
      11277  ..137  6415
       1012  JNTIN   177
        506  LKCMP   522
       1577  NODEC  1571
       2362  NOFLG  2417, 2423
       2106  NOINT   415
        477  NORPT   523,  527
       2773  NOSYM  2763
       1004  OCTIN   201
       1002  ONAME   743,  745,  752,  772
         45  ONECH    31
      10165  OPBCD  2350
      10221  OPBIN   110
      10217  OPCDE 10222,10230,10246
       6370  OPEN1  6326
       6402  OPEN2  6373
      11134  OPEND 10201,10205,10206,10214,10232,10233,10240,11134
      10244  OPFLG 10226
      10240  OPFND 10235
      10340  OPORG 10205
      10231  OPRET 10252
      10204  OPSCH 10170,10173
        333  PATCH   320,  333
       2204  PFLAG  2142, 2145, 2156
          1  QBACK     1,  414
       2201  QUOTE   212,  215,  720,  723,  751,  756,  771,  776, 2654, 2657, 3017, 3022, 6341, 6350, 6404, 6413
       1754  READF  1747
       1772  READX  1754, 2052
       1650  RELOC  1574, 1602
       1661  RELXA  1651
       1660  RELXC  1650
       2044  RFEND  1765
       2041  RFERR  1767
        421  RLOOK    64
          4  SAME1
       2770  SBFND
       2777  SBPOI
       2763  SBRET  2767
       1751  SETFX  1730
      11160  SLEEP   331
       2425  SPTAG  2372, 2400
       2232  SWBUF  2207, 2211, 2212, 2215, 2216, 2222, 2226, 2227
       2206  SWORD  2153, 2166
         67  SYMIN   333
       2611  SYMRD  2651
        601  TABLE   274
       2570  TABRD   621,  663
       2667  TDONE
       6141  TFILE  2573, 2577, 2605, 2612, 2664
       1337  TYICP  1345, 1375
       1415  TYICW  1707, 1750, 2042, 2045
1            A.DEBUG               SYMBOLIC DEBUGGING AID FOR A-CORE.                            PAGE 7
                        POST PROCESSOR ASSEMBLY DATA

       2167  TYOMT  2162
       2105  TYPCR  2054, 2056, 2077
       2102  TYPXA  2060
       2103  TYPXB  2061
       2101  TYPXC  2057
        717  UNDEF  2776,10237
       1671  VDONE
        377  VERGO   364
      77461 77461K  1664, 1665
       2251 BCDOUT   254, 6330, 6334
      11227 BUFFER  1464, 1742, 2604
        660 BUFLTH  1467, 1745, 2607, 6425, 7305
       1471 CARDRD  1504, 1513, 1641
      11164 CHNCOM   412
      77461 COMMON  1664, 1665
       2424 DECFLD  2346, 2367, 2374, 2402
       6251 DECOUT   260
       3037 DEFFUL  3030
       3002 DEFINE   714, 2645
       3014 DEFOOP  3011
       3004 DEFRET  3010
       3011 DEFYES
       6417 DICALL
       6421 DICODE  6331, 6370
       1447 DIFDMP   401
       6422 DIOCOD
        403 DISMIS   270
       6420 DISUBR  6323, 6335, 6354
        277 DPOSIT   246
       1233 FASSGN  1224, 1230
       1625 FINCYC  1610
       2342 FLDCOR  2317, 2327, 2334
       2472 FLDEVL   117,  125,  133,  304,  436,  447,  676
       2334 FLDOCT  2326, 2331
       2313 FLDPRT   547, 1612, 2365, 2401, 2411
       6142 FLOOUT   252
      11244 GETBRK  2116
      11243 GETCOM  1710, 1716
      11165 GETLOC   501,  516,  553, 1604, 1621
          7 IGNORE    43
       2133 INRUPT    10,  512, 1633, 2106
       2376 INSTAG  2373
       6252 INTOUT   256, 6240
       2132 INTTRA  2117
      11272 IODIAG  6321
        344 KEYTST   314,  323,  326
       2676 KILTAB   623
         53 LOCNXT    34
         66 MEMBND
       2253 NAMOUT   225,  722,  755,  775, 2322, 2354, 2656, 3021, 6336, 6343, 6347, 6406, 6412
       1677 NONREL  1564
        771 NOTFND   750
       6247 OCTOUT   264,  762, 2335, 6332
      10254 OPPRFX 10232,10254
        737 ORGFND   357,  575,  637
1            A.DEBUG               SYMBOLIC DEBUGGING AID FOR A-CORE.                            PAGE 8
                        POST PROCESSOR ASSEMBLY DATA

       1663 OUTSID  1654
        732 PGMORG   360,  400,  576,  620,  640,  662
        202 POPEND   102,  103,  165,  202
        166 POPORG   102
        103 POPRET   106
       1425 PREVCH  1370, 1373, 1400
       2053 RDFLXA  1706, 2041, 2044
      11230 RDWAIT  1471, 1760, 2611
       1760 READCW  1756
       1642 RELBIT  1570, 1577, 1653
       1664 RELCOM  1655
       1656 RELPRG  1512, 1663
       1654 RELSIZ  1510
       1657 RELXIT  1664
       1566 RETURN  1640
       2753 SCHEND  2722
       2734 SCHLOP  2740, 2743, 2750
       2703 SETABS   242
      11245 SETBRK  2120
      11161 SETLOC   341
       2712 SETREL   266
       1377 SKIPCR     6
       2033 STILLB  2020
       2760 SYMABS  2726, 2737, 2745
       2622 SYMADJ  2650
       2722 SYMBCD  2316
       2761 SYMBIN  2502
       2756 SYMBOL  2731, 2747, 2751
       2757 SYMCOR  2725, 2744, 2752
       6141 SYMEND  2677, 2736, 2743, 2746, 2764, 2770, 3001, 3005, 3011, 3012, 3030, 3031, 3032, 6141
       2663 SYMEOF  2616, 2625
       2652 SYMFUL  2646
       3100 SYMLNG  3030, 3041
       3001 SYMLTH  2700, 2727, 2762, 3003, 3027, 3034
       2343 SYMPRT   272,  461
       6141 SYMTAB  2677, 2743, 3001, 3011, 3030
       2755 SYMVAL  2724, 2735
        315 TSTKEY   332
       1345 TYIMIW  1341
       2155 TYOMIW  2152
        345 VERIFY   244
      11246 WRFLXA  2214, 2225

0 NO ERROR IN ABOVE ASSEMBLY.


  ACOR   BCD 10/12/70 1512.6    8359         00000
1                                                                                                PAGE 1

                                     EXTERN  COMLOC,ACORE
                                     EXTERN  BCOCT,BCDEC,ZEL
                                     EXTERN  GETLOC,GETARY
                                     EXTERN  .FMT,WRFLX
                                     EXTERN  SETBRK,CHNCOM
                                     EXTERN  GETCLS,GETARG


        TRANSFER VECTOR
      00000  234644434623     COMLOC
      00001  212346512560     ACORE
      00002  222346236360     BCOCT
      00003  222324252360     BCDEC
      00004  712543606060     ZEL
      00005  272563434623     GETLOC
      00006  272563215170     GETARY
      00007  332644636060     .FMT
      00010  665126436760     WRFLX
      00011  622563225142     SETBRK
      00012  233045234644     CHNCOM
      00013  272563234362     GETCLS
      00014  272563215127     GETARG

      00015  0760 00 0 00016         LMTM
      00016  0074 00 4 00011         TSX     SETBRK,4
      00017  0 00000 0 00161         PZE     OUT
      00020  0074 00 4 00013         TSX     GETCLS,4
      00021  0 00000 0 00457         PZE     CBUF,,0
      00022  0774 00 1 00023         AXT     19,1
      00023  0600 00 0 00446         STZ     GO
      00024  0020 00 0 00030         TRA     *+4
      00025  0074 00 4 00014  MORE   TSX     GETARG,4
      00026  0 00024 0 00457         PZE     CBUF,,20
      00027  0774 00 1 00024         AXT     20,1
      00030  0074 00 4 00010         TSX     WRFLX,4
      00031  0 00000 0 00031         PZE     *,,0
      00032 -0500 00 1 00503         CAL     CBUF+20,1
      00033  0322 00 0 00554         ERA     =H     *
      00034  0100 00 0 00106         TZE     NOMOD
      00035 -0320 00 0 00551         ANA     =O77
      00036 -0100 00 0 00106         TNZ     NOMOD
      00037  0600 00 0 00505         STZ     .O.
      00040  0600 00 0 00504         STZ     .D.
      00041  0600 00 0 00503         STZ     .B.
      00042  0600 00 0 00444         STZ     .Q.
      00043  0600 00 0 00445         STZ     .NZ.
      00044  0560 00 1 00503         LDQ     CBUF+20,1
      00045  0774 00 2 00006         AXT     6,2
      00046 -0754 00 0 00000         ZAC
      00047 -0763 00 0 00006         LGL     6
      00050  0774 00 3 00014         AXT     NMODE,3
      00051 -0340 00 3 00233         LAS     MODES+NMODE,3
      00052  0020 00 0 00054         TRA     *+2
      00053  0522 00 3 00234         XEC     MODES+NMODE+1,3
      00054  2 00002 3 00051         TIX     *-3,3,2
      00055  2 00001 2 00046  MLP    TIX     *-7,2,1
1                                                                                                PAGE 2

      00056 -2 00001 1 00427         TNX     QTEST,1,1
      00057 -0500 00 1 00503         CAL     CBUF+20,1
      00060  0322 00 0 00326         ERA     FENCE
      00061  0100 00 0 00427         TZE     QTEST

      00062 -0774 00 4 00000         AXC     0,4
      00063  0500 00 0 00434         CLA     SP
      00064 -0520 00 0 00505         NZT     .O.
      00065  0020 00 0 00071         TRA     *+4
      00066  0560 00 0 00436         LDQ     .OCT
      00067 -0603 00 4 00200         DST     FMT,4
      00070  1 77776 4 00071         TXI     *+1,4,-2
      00071 -0520 00 0 00504         NZT     .D.
      00072  0020 00 0 00076         TRA     *+4
      00073  0560 00 0 00437         LDQ     .DEC
      00074 -0603 00 4 00200         DST     FMT,4
      00075  1 77776 4 00076         TXI     *+1,4,-2
      00076 -0520 00 0 00503         NZT     .B.
      00077  0020 00 0 00103         TRA     *+4
      00100  0560 00 0 00435         LDQ     .BCD
      00101 -0603 00 4 00200         DST     FMT,4
      00102  1 77776 4 00103         TXI     *+1,4,-2
      00103 -0754 00 0 00000         ZAC
      00104  0560 00 0 00440         LDQ     .TRA
      00105 -0603 00 4 00200         DST     FMT,4

      00106  0074 00 6 00236  NOMOD  TSX     GETERM,6
      00107  0621 00 0 00170         STA     ALOC
      00110  0402 00 0 00550         SUB     =36
      00111  0621 00 0 00136         STA     ADR
      00112 -3 00001 1 00167         TXL     1LOC,1,1
      00113 -0500 00 1 00503         CAL     CBUF+20,1
      00114  0322 00 0 00326         ERA     FENCE
      00115  0100 00 0 00167         TZE     1LOC
      00116  0322 00 0 00552         ERA     =O171717444444
      00117  0602 00 0 00443         SLW     .N.
      00120 -2 00001 1 00431         TNX     LOSS,1,1
      00121  0074 00 6 00236         TSX     GETERM,6
      00122 -0520 00 0 00443         NZT     .N.
      00123  0020 00 0 00127         TRA     *+4
      00124  0402 00 0 00170         SUB     ALOC
      00125  0400 00 0 00547         ADD     =1
      00126 -0120 00 0 00431         TMI     LOSS
      00127  0100 00 0 00431         TZE     LOSS
      00130  0734 00 2 00000         PAX     ,2
      00131 -2 00044 2 00145         TNX     LSTBUF,2,36

      00132 -0500 00 0 00136  NXTBUF CAL     ADR
      00133  0400 00 0 00550         ADD     =36
      00134  0621 00 0 00136         STA     ADR
      00135  0074 00 4 00006         TSX     GETARY,4
      00136  0 00000 0 00000  ADR    PZE     **
      00137  0 00044 0 00503         PZE     BUFF,,36
      00140  0774 00 3 00044         AXT     36,3
      00141 -0500 00 3 00547         CAL     BUFF+36,3
      00142  0074 00 7 00173         TSX     PLINE,7
1                                                                                                PAGE 3

      00143  2 00001 3 00141         TIX     *-2,3,1
      00144  2 00044 2 00132         TIX     NXTBUF,2,36

      00145 -0500 00 0 00136  LSTBUF CAL     ADR
      00146  0400 00 0 00550         ADD     =36
      00147  0621 00 0 00152         STA     *+3
      00150 -0634 00 2 00153         SXD     *+3,2
      00151  0074 00 4 00006         TSX     GETARY,4
      00152  0 00000 0 00000         PZE     **
      00153  0 00000 0 00503         PZE     BUFF,,**
      00154  0774 00 3 00044         AXT     36,3
      00155 -0500 00 3 00547         CAL     BUFF+36,3
      00156  0074 00 7 00173         TSX     PLINE,7
      00157 -2 00001 3 00161         TNX     *+2,3,1
      00160  2 00001 2 00155         TIX     *-3,2,1

      00161  0074 00 4 00010  OUT    TSX     WRFLX,4
      00162  0 00000 0 00162         PZE     *,,0
      00163  0520 00 0 00446         ZET     GO
      00164  0020 00 0 00025         TRA     MORE
      00165  0074 00 4 00012         TSX     CHNCOM,4
      00166  0 00000 0 00000         PZE     0

      00167  0074 00 4 00005  1LOC   TSX     GETLOC,4
      00170  0 00000 0 00000  ALOC   PZE     **
      00171  0074 00 7 00173         TSX     PLINE,7
      00172  0020 00 0 00161         TRA     OUT

      00173  0520 00 0 00445  PLINE  ZET     .NZ.
      00174  0100 00 0 00213         TZE     SKIPPR
      00175  0602 00 0 00447         SLW     PLTEM
      00176  0074 00 4 00007         TSX     .FMT,4
      00177  0 00005 2 00170         PZE     ALOC,2,5
      00200  0 00002 0 00000  FMT    PZE     0,0,2
      00201  0 00014 2 00447         PZE     PLTEM,2,12
      00202  0 00000 0 00000         PZE
      00203  0020 00 0 00210         TRA     WRLIN
      00204                          BSS     4
      00210  0602 00 0 00212  WRLIN  SLW     *+2
      00211  0074 00 4 00010         TSX     WRFLX,4
      00212  0 00000 0 00000         PZE     **,,**
      00213 -0500 00 0 00170  SKIPPR CAL     ALOC
      00214  0400 00 0 00547         ADD     =1
      00215  0621 00 0 00170         STA     ALOC
      00216  0020 00 7 00001         TRA     1,7

      00217  000000000046     MODES  BCI     1,00000O
      00220 -0625 00 0 00505         STL     .O.
      00221  000000000024            BCI     1,00000D
      00222 -0625 00 0 00504         STL     .D.
      00223  000000000022            BCI     1,00000B
      00224 -0625 00 0 00503         STL     .B.
      00225  000000000027            BCI     1,00000G
      00226 -0625 00 0 00446         STL     GO
      00227  000000000050            BCI     1,00000Q
      00230  0020 00 0 00233         TRA     QUIT
1                                                                                                PAGE 4

      00231  000000000045            BCI     1,00000N
      00232 -0625 00 0 00445         STL     .NZ.
                       00014  NMODE  EQU     *-MODES

      00233  0600 00 0 00446  QUIT   STZ     GO
      00234 -0625 00 0 00444         STL     .Q.
      00235  0020 00 0 00055         TRA     MLP

      00236  0600 00 0 00452  GETERM STZ     EQ
      00237  0600 00 0 00441         STZ     MNS
      00240  0600 00 0 00442         STZ     NAM
      00241  0600 00 0 00450         STZ     VALUE
      00242  0600 00 0 00451         STZ     VALTEM
      00243  0774 00 5 00000         AXT     0,5
      00244 -0500 00 1 00503  GT     CAL     CBUF+20,1
      00245  0774 00 4 00020         AXT     NARG,4
      00246 -0340 00 4 00330         LAS     ARGS+NARG,4
      00247  0020 00 0 00251         TRA     *+2
      00250  0522 00 4 00331         XEC     ARGS+NARG+1,4
      00251  2 00002 4 00246         TIX     *-3,4,2
      00252  0074 00 7 00352         TSX     EVAL,7
      00253 -0520 00 0 00452         NZT     EQ
      00254  0020 00 0 00261         TRA     *+5
      00255  0621 00 0 00257         STA     *+2
      00256  0074 00 4 00005         TSX     GETLOC,4
      00257  0 00000 0 00000         PZE     **
      00260  0600 00 0 00452         STZ     EQ
      00261  0520 00 0 00441         ZET     MNS
      00262  0020 00 0 00265         TRA     *+3
      00263  0400 00 5 00450         ADD     VALUE,5
      00264  0020 00 0 00271         TRA     *+5
      00265  0402 00 5 00450         SUB     VALUE,5
      00266 -0120 00 0 00271         TMI     *+3
      00267  0760 00 0 00006         COM
      00270  0400 00 0 00547         ADD     =1
      00271  0621 00 5 00450         STA     VALUE,5
      00272  0600 00 0 00441         STZ     MNS
      00273 -0625 00 0 00442         STL     NAM
      00274  2 00001 1 00244  GETIX  TIX     GT,1,1
      00275 -0520 00 0 00442  GOTERM NZT     NAM
      00276  0020 00 0 00431         TRA     LOSS
      00277  3 00000 5 00302         TXH     *+3,5,0
      00300 -0500 00 0 00450         CAL     VALUE
      00301  0020 00 6 00001         TRA     1,6
      00302 -0500 00 0 00451         CAL     VALTEM
      00303  0621 00 0 00305         STA     *+2
      00304  0074 00 4 00005         TSX     GETLOC,4
      00305  0 00000 0 00000         PZE     **
      00306  0401 00 0 00450         ADM     VALUE
      00307  0020 00 6 00001         TRA     1,6

      00310  606060606020     ARGS   BCI     1,     +
      00311  0020 00 0 00331         TRA     PLUS
      00312  606060606040            BCI     1,     -
      00313  0020 00 0 00330         TRA     MINUS
      00314  606060606054            BCI     1,     *
1                                                                                                PAGE 5

      00315  0020 00 0 00335         TRA     STAR
      00316  606060606061            BCI     1,     /
      00317  0020 00 0 00341         TRA     SLASH
      00320  606060606013            BCI     1,     =
      00321  0020 00 0 00337         TRA     EQUAL
      00322  606060333333            BCI     1,   ...
      00323  0020 00 0 00275         TRA     GOTERM
      00324  606063305164            BCI     1,  THRU
      00325  0020 00 0 00275         TRA     GOTERM
      00326 -377777777777     FENCE  OCT     777777777777
      00327  0020 00 0 00275         TRA     GOTERM
                       00020  NARG   EQU     *-ARGS

      00330 -0625 00 0 00441  MINUS  STL     MNS
      00331 -0520 00 0 00442  PLUS   NZT     NAM
      00332  0020 00 0 00431         TRA     LOSS
      00333  0600 00 0 00442         STZ     NAM
      00334  0020 00 0 00274         TRA     GETIX
      00335  0774 00 5 77777  STAR   AXT     -1,5
      00336  0020 00 0 00274         TRA     GETIX
      00337 -0625 00 0 00452  EQUAL  STL     EQ
      00340  0020 00 0 00274         TRA     GETIX
      00341  0774 00 5 00000  SLASH  AXT     0,5
      00342 -0500 00 0 00451         CAL     VALTEM
      00343  0621 00 0 00345         STA     *+2
      00344  0074 00 4 00005         TSX     GETLOC,4
      00345  0 00000 0 00000         PZE     **
      00346  0401 00 0 00450         ADM     VALUE
      00347  0621 00 0 00450         STA     VALUE
      00350  0600 00 0 00451         STZ     VALTEM
      00351  0020 00 0 00274         TRA     GETIX

      00352  0602 00 0 00447  EVAL   SLW     EVTEM
      00353  0074 00 4 00004         TSX     ZEL,4
      00354  3 00000 0 00447         PTH     EVTEM
      00355  0601 00 0 00447         STO     EVTEM
      00356  0441 00 0 00447         LDI     EVTEM
      00357 -0046 00 0 00000         PIA
      00360 -0320 00 0 00556         ANA     =HYYYYYY
      00361  0100 00 0 00420         TZE     EVOCT
      00362 -0046 00 0 00000         PIA
      00363 -0320 00 0 00555         ANA     =H
      00364  0100 00 0 00423         TZE     EVDEC
      00365 -0046 00 0 00000         PIA
      00366  0322 00 0 00553         ERA     =H     .
      00367 -0320 00 0 00551         ANA     =O77
      00370 -0100 00 0 00376         TNZ     *+6
      00371 -0046 00 0 00000         PIA
      00372  0771 00 0 00006         ARS     6
      00373  0044 00 0 00000         PAI
      00374 -0320 00 0 00555         ANA     =H
      00375  0100 00 0 00423         TZE     EVDEC
      00376  0774 00 4 00044         AXT     36,4
      00377  0560 00 0 00447         LDQ     EVTEM
      00400 -0754 00 0 00000         ZAC
      00401 -0763 00 0 00006         LGL     6
1                                                                                                PAGE 6

      00402 -0100 00 0 00405         TNZ     *+3
      00403  2 00006 4 00401         TIX     *-2,4,6
      00404  0020 00 7 00001         TRA     1,7
      00405 -0500 00 0 00447         CAL     EVTEM
      00406  0560 00 0 00555         LDQ     =H
      00407 -0763 00 4 00044         LGL     36,4
      00410  0602 00 0 00447         SLW     EVTEM
      00411  0074 00 4 00000         TSX     COMLOC,4
      00412  3 00000 0 00447         PTH     EVTEM
      00413 -0100 00 7 00001         TNZ     1,7
      00414  0074 00 4 00001         TSX     ACORE,4
      00415  3 00000 0 00447         PTH     EVTEM
      00416  0771 00 0 00022         ARS     18
      00417  0020 00 7 00001         TRA     1,7

      00420  0074 00 4 00002  EVOCT  TSX     BCOCT,4
      00421  3 00000 0 00447         PTH     EVTEM
      00422  0020 00 7 00001         TRA     1,7

      00423  0604 00 0 00447  EVDEC  STI     EVTEM
      00424  0074 00 4 00003         TSX     BCDEC,4
      00425  3 00000 0 00447         PTH     EVTEM
      00426  0020 00 7 00001         TRA     1,7

      00427  0520 00 0 00444  QTEST  ZET     .Q.
      00430  0020 00 0 00161         TRA     OUT
      00431  0074 00 4 00010  LOSS   TSX     WRFLX,4
      00432  0 00004 0 00453         PZE     IMP,,4
                              $IMPROPER USE OF COMMAND.
      00433  0020 00 0 00161         TRA     OUT

      00434  0 00002 0 00000  SP     PZE     0,0,2
      00435  0 00006 1 00447  .BCD   PZE     PLTEM,1,6
      00436  0 00014 2 00447  .OCT   PZE     PLTEM,2,12
      00437  0 00013 4 00447  .DEC   PZE     PLTEM,4,11
      00440  0020 00 0 00210  .TRA   TRA     WRLIN

      00441  0 00000 0 00000  MNS
      00442  0 00000 0 00000  NAM
      00443  0 00000 0 00000  .N.
      00444  0 00000 0 00000  .Q.
      00445  0 00000 0 00000  .NZ.
      00446  0 00000 0 00000  GO
      00447                   EVTEM  BSS     0
      00447  0 00000 0 00000  PLTEM
      00450  0 00000 0 00000  VALUE                        *
      00451  0 00000 0 00000  VALTEM                       *
      00452  0 00000 0 00000  EQ

      00453  314447514647     IMP    BCI     4,IMPROPER USE OF COMMAND.
      00454  255160646225
      00455  604626602346
      00456  444421452433
1                                                                                                PAGE 7

      00457                   CBUF   BSS     20
      00503                   BUFF   BSS     36

                       00503  .B.    EQU     BUFF
                       00504  .D.    EQU     BUFF+1
                       00505  .O.    EQU     BUFF+2

                                     END

        LITERALS
      00547  000000000001
      00550  000000000044
      00551  000000000077
      00552  171717444444
      00553  606060606033
      00554  606060606054
      00555  606060606060
      00556  707070707070
1                                                                                                PAGE 1
                        POST PROCESSOR ASSEMBLY DATA

        557 IS THE FIRST LOCATION NOT USED BY THIS PROGRAM

0REFERENCES TO DEFINED SYMBOLS
        452     EQ   236,  253,  260,  337
        446     GO    23,  163,  226,  233
        244     GT   274
        434     SP    63
        136    ADR   111,  132,  134,  145
        200    FMT    67,   74,  101,  105
        453    IMP   432
        503    .B.    41,   76,  224,  547
        504    .D.    40,   71,  222,  547
        443    .N.   117,  122
        505    .O.    37,   64,  220,  547
        444    .Q.    42,  234,  427
         55    MLP   235
        441    MNS   237,  261,  272,  330
        442    NAM   240,  273,  275,  331,  333
        161    OUT    17,  172,  430,  433
          4    ZEL   353
        167   1LOC   112,  115
        170   ALOC   107,  124,  177,  213,  215
        310   ARGS   246,  250,  330
        503   BUFF   137,  141,  153,  155,  547
        457   CBUF    21,   26,   32,   44,   57,  113,  244
        352   EVAL   252
        435   .BCD   100
        437   .DEC    73
          7   .FMT   176
        445   .NZ.    43,  173,  232
        436   .OCT    66
        440   .TRA   104
        431   LOSS   120,  126,  127,  276,  332
         25   MORE   164
         20   NARG   245,  246,  250,  330
        331   PLUS   311
        233   QUIT   230
        335   STAR   315
          1  ACORE   414
          3  BCDEC   424
          2  BCOCT   420
        337  EQUAL   321
        423  EVDEC   364,  375
        420  EVOCT   361
        447  EVTEM   352,  354,  355,  356,  377,  405,  410,  412,  415,  421,  423,  425
        326  FENCE    60,  114
        274  GETIX   334,  336,  340,  351
        330  MINUS   313
        217  MODES    51,   53,  233
         14  NMODE    50,   51,   53,  233
        106  NOMOD    34,   36
        173  PLINE   142,  156,  171
        447  PLTEM   175,  201,  435,  436,  437
        427  QTEST    56,   61
1                                                                                                PAGE 2
                        POST PROCESSOR ASSEMBLY DATA

        341  SLASH   317
        450  VALUE   241,  263,  265,  271,  300,  306,  346,  347
         10  WRFLX    30,  161,  211,  431
        210  WRLIN   203,  440
         12 CHNCOM   165
          0 COMLOC   411
         14 GETARG    25
          6 GETARY   135,  151
         13 GETCLS    20
        236 GETERM   106,  121
          5 GETLOC   167,  256,  304,  344
        275 GOTERM   323,  325,  327
        145 LSTBUF   131
        132 NXTBUF   144
         11 SETBRK    16
        213 SKIPPR   174
        451 VALTEM   242,  302,  342,  350

0 NO ERROR IN ABOVE ASSEMBLY.
1      GETARG     TO GET A STRING OF ARGUMENTS FROM THE CONSOLE                                  PAGE 1

                              *      TSX     GETARG,4
                              *      PZE     BUFF,,'N'
                              *
                              *THE ARGUMENT STRING IS TYPED IN ONE LINE ON THE
                              *   CONSOLE, WITH THE ARGUMENTS SEPARATED BY ONE OR MORE BLANKS.
                              *UP TO 'N' ARGUMENTS (RIGHT-JUSTIFIED AND BLANK PADDED, OR TRUNCATED
                              *   IF THEY ARE MORE THAN SIX CHARACTERS LONG) WILL BE RETURNED IN
                              *   LOCATIONS 'BUFF' THROUGH 'BUFF'+'N'-1.  IF FEWER
                              *   THAN 'N' ARGUMENTS ARE SPECIFIED, THE LAST ONE WILL BE FOLLOWED BY A
                              *
                       00003         ENTRY   GETARG


        TRANSFER VECTOR
      00000  512426436721     RDFLXA

            LINKAGE DIRECTOR
      00001  000000000000
      00002  272563215127

      00003  0634 00 4 00106  GETARG SXA     XR4,4
      00004  0634 00 2 00105         SXA     XR2,2
      00005  0634 00 1 00104         SXA     XR1,1
      00006 -0500 00 4 00001         CAL     1,4
      00007 -0734 00 1 00000         PDX     ,1
      00010  0754 00 1 00000         PXA     ,1
      00011  0401 00 4 00001         ADM     1,4
      00012  0621 00 0 00071         STA     OUTPT1
      00013  0621 00 0 00073         STA     OUTPT2
      00014 -0625 00 0 00132         STL     FIRST
      00015  0074 00 4 00000  GETINP TSX     $RDFLXA,4
      00016  0 00016 0 00134         PZE     BUFF,,14
      00017  0734 00 4 00000         PAX     ,4
      00020  0600 00 0 00130         STZ     MORE
      00021 -3 37777 4 00027         TXL     X,4,16383
      00022  0520 00 0 00127         ZET     FULL
      00023  0020 00 0 00015         TRA     GETINP
      00024 -0625 00 0 00130         STL     MORE
      00025 -0500 00 0 00154         CAL     =14
      00026  0020 00 0 00042         TRA     Y
      00027  0520 00 0 00127  X      ZET     FULL
      00030  0020 00 0 00104         TRA     XR1
      00031  0754 00 4 00000         PXA     ,4
      00032 -0130 00 0 00000         XCL
      00033 -0754 00 0 00000         ZAC
      00034  0221 00 0 00153         DVP     =6
      00035 -0100 00 0 00040         TNZ     *+3
      00036 -0130 00 0 00000         XCL
      00037  0020 00 0 00042         TRA     *+3
      00040 -0130 00 0 00000         XCL
      00041  0400 00 0 00152         ADD     =1
      00042  0734 00 4 00000  Y      PAX     ,4
      00043  0400 00 0 00133         ADD     EBUFF
      00044  0621 00 0 00054         STA     INPUT
      00045 -0520 00 0 00132         NZT     FIRST
      00046  0020 00 0 00054         TRA     INPUT
1      GETARG     TO GET A STRING OF ARGUMENTS FROM THE CONSOLE                                  PAGE 2

      00047  0600 00 0 00132         STZ     FIRST
      00050 -0500 00 0 00157         CAL     =H
      00051  0602 60 0 00071         SLW*    OUTPT1
      00052  0600 00 0 00131         STZ     OUTP
      00053  0600 00 0 00126         STZ     BL
      00054  0560 00 4 00000  INPUT  LDQ     **,4
      00055  0774 00 2 00006         AXT     6,2
      00056 -0754 00 0 00000  NXTCHR ZAC
      00057 -0763 00 0 00006         LGL     6
      00060 -0340 00 0 00156         LAS     =O60
      00061  0020 00 0 00066         TRA     OK
      00062  0020 00 0 00110         TRA     BLANK
      00063 -0340 00 0 00155         LAS     =O55
      00064  0020 00 0 00074         TRA     IGNORE
      00065  0020 00 0 00110         TRA     BLANK
      00066  0600 00 0 00126  OK     STZ     BL
      00067 -0625 00 0 00131         STL     OUTP
      00070 -0765 00 0 00006         LGR     6
      00071 -0500 00 1 00000  OUTPT1 CAL     **,1
      00072 -0763 00 0 00006         LGL     6
      00073  0602 00 1 00000  OUTPT2 SLW     **,1
      00074  2 00001 2 00056  IGNORE TIX     NXTCHR,2,1
      00075  2 00001 4 00054         TIX     INPUT,4,1
      00076  0520 00 0 00130         ZET     MORE
      00077  0020 00 0 00015         TRA     GETINP
      00100  0520 00 0 00131         ZET     OUTP
      00101 -2 00001 1 00104         TNX     *+3,1,1
      00102 -0500 00 0 00160         CAL     =O777777777777
      00103  0602 60 0 00073         SLW*    OUTPT2
      00104  0774 00 1 00000  XR1    AXT     **,1
      00105  0774 00 2 00000  XR2    AXT     **,2
      00106  0774 00 4 00000  XR4    AXT     **,4
      00107  0020 00 4 00002         TRA     2,4
      00110  0520 00 0 00126  BLANK  ZET     BL
      00111  0020 00 0 00074         TRA     IGNORE
      00112 -0625 00 0 00126         STL     BL
      00113 -0520 00 0 00131         NZT     OUTP
      00114  0020 00 0 00074         TRA     IGNORE
      00115 -2 00001 1 00122         TNX     FILLED,1,1
      00116  0600 00 0 00131         STZ     OUTP
      00117 -0500 00 0 00157         CAL     =H
      00120  0602 60 0 00071         SLW*    OUTPT1
      00121  0020 00 0 00074         TRA     IGNORE
      00122 -0520 00 0 00130  FILLED NZT     MORE
      00123  0020 00 0 00104         TRA     XR1
      00124 -0625 00 0 00127         STL     FULL
      00125  0020 00 0 00015         TRA     GETINP

      00126  0 00000 0 00000  BL
      00127  0 00000 0 00000  FULL
      00130  0 00000 0 00000  MORE
      00131  0 00000 0 00000  OUTP
      00132  0 00000 0 00000  FIRST
      00133  0 00000 0 00134  EBUFF  PZE     BUFF
      00134                   BUFF   BSS     14
1      GETARG     TO GET A STRING OF ARGUMENTS FROM THE CONSOLE                                  PAGE 3

                                     END

        LITERALS
      00152  000000000001
      00153  000000000006
      00154  000000000016
      00155  000000000055
      00156  000000000060
      00157  606060606060
      00160  777777777777
1      GETARG     TO GET A STRING OF ARGUMENTS FROM THE CONSOLE                                  PAGE 1
                        POST PROCESSOR ASSEMBLY DATA

        161 IS THE FIRST LOCATION NOT USED BY THIS PROGRAM

0REFERENCES TO DEFINED SYMBOLS
         27      X    21
         42      Y    26
        126     BL    53,   66,  110,  112
         66     OK    61
        104    XR1     5,   30,  123
        105    XR2     4
        106    XR4     3
        134   BUFF    16,  133
        127   FULL    22,   27,  124
        130   MORE    20,   24,   76,  122
        131   OUTP    52,   67,  100,  113,  116
        110  BLANK    62,   65
        133  EBUFF    43
        132  FIRST    14,   45,   47
         54  INPUT    44,   46,   75
        122 FILLED   115
          3 GETARG     0
         15 GETINP    23,   77,  125
         74 IGNORE    64,  111,  114,  121
         56 NXTCHR    74
         71 OUTPT1    12,   51,  120
         73 OUTPT2    13,  103
          0 RDFLXA    15

0 NO ERROR IN ABOVE ASSEMBLY.
1            $.FMT - OUTPUT FORMATTING PROGRAM FOR FAP CALLS.                                    PAGE 1
                           PETER R. BOS -- OCTOBER 1967

                                     PCC     ON
                                     NOLNK
                       00000         ENTRY   .FMT
                                     LBL     .FMT
                                     PCC     OFF


                              *
                              *  CALLING SEQUENCE IS ...
                              *      TSX     .FMT,4
                              *      PZE     LOC,T,N
                              *       .
                              *       .
                              *      PZE     0
                              *
                              *  LOC IS A POINTER TO A DATA WORD (OR BLOCK, IN THE
                              *  CASE OF BCD CONVERSION)
                              *
                              *  T SPECIFIES THE TYPE OF CONVERSION -
                              *      0 = SKIP
                              *      1 = BCD
                              *      2 = OCTAL
                              *      4 = DECIMAL
                              *
                              *  N SPECIFIES THE NUMBER OF COLUMNS TO BE USED FOR
                              *  THIS DATA ELEMENT.
                              *
                              *  ON RETURN, THE AC WILL CONTAIN A POINTER OF THE
                              *  FORM  PZE  BUFF,,N  SUCH AS WOULD BE USED FOR WRFLX.
                              *  THE MQ WILL CONTAIN A POINTER OF THE FORM
                              *  TXH  BUFF-1,,N+1  WHERE BUFF-1 CONTAINS A LINE-MARK
                              *  SUITABLE FOR WRITING INTO A FILE.
                              *


      00000  0760 00 0 00016  .FMT   LMTM                  CAN'T WORK WITH ONLY 3.
      00001  0634 00 1 00167         SXA     FX1,1         SAVE XRS.
      00002  0634 00 2 00170         SXA     FX2,2         ..
      00003  0634 00 7 00171         SXA     FX7,7         ..
      00004  0604 00 0 00257         STI     SIND          ..

      00005  0774 00 1 00006         AXT     6,1           INITIALIZE INDICES.
      00006  0634 00 1 00176         SXA     .X1,1         ..
      00007  0634 00 0 00177         ZSA     .X2           ..

      00010  1 77777 4 00011  GTWD   TXI     *+1,4,-1      GET NEXT POINTER WORD.
      00011  0500 00 4 00000         CLA     0,4           ..
      00012  0100 00 0 00147         TZE     EXIT          PZE 0 = DONE.
      00013  0044 00 0 00000         PAI                   CONVERSION (TAG) TO IND.
      00014 -0734 00 2 00000         PDX     0,2           COLUMN COUNT.
      00015 -3 00000 2 00010         TXL     GTWD,2,0      IGNORE ZERO LENGTH FIELDS.
      00016  0621 00 0 00254         STA     WORD          DATA POINTER.
1            $.FMT - OUTPUT FORMATTING PROGRAM FOR FAP CALLS.                                    PAGE 2
                           PETER R. BOS -- OCTOBER 1967

      00017  0054 00  100000         RFT     .BCD          TEST CONVERSION MODE.
      00020  0020 00 0 00031         TRA     BCD           ..
      00021  0054 00  200000         RFT     .OCT          ..
      00022  0020 00 0 00056         TRA     OCT           ..
      00023  0054 00  400000         RFT     .DEC          ..
      00024  0020 00 0 00076         TRA     DEC           ..

      00025 -0500 00 0 00265         CAL     =O60          TAG = 0, SKIP N COLS.
      00026  0074 00 7 00174         TSX     .STC,7        INSERT BLANK IN BUFFER.
      00027  2 00001 2 00025         TIX     *-2,2,1       REPEAT TILL DONE.
      00030  0020 00 0 00010         TRA     GTWD          GO GET SOME MORE STUFF.

      00031 -2 00006 2 00046  BCD    TNX     LASTB,2,6     IF AT LAST WORD, SKIP.
      00032  0560 60 0 00254         LDQ*    WORD          FULL BCD WORD.
      00033 -0500 00 0 00254         CAL     WORD          INCREMENT ADDRESS.
      00034  0400 00 0 00264         ADD     =1            ..
      00035  0621 00 0 00254         STA     WORD          ..
      00036  0774 00 1 00006         AXT     6,1           6 CHARACTERS PER WORD.
      00037 -0754 00 0 00000         ZAC                   JUNK.
      00040 -0763 00 0 00006  BLP1   LGL     6             SHIFT A CHARACTER.
      00041 -0600 00 0 00260         STQ     MQ            SAVE THE REST.
      00042  0074 00 7 00174         TSX     .STC,7        GO STORE IN BUFFER.
      00043  0560 00 0 00260         LDQ     MQ            RESTORE MQ.
      00044  2 00001 1 00040         TIX     BLP1,1,1      INDEX AND REPEAT.
      00045  0020 00 0 00031         TRA     BCD           GET NEXT WORD.
      00046  0560 60 0 00254  LASTB  LDQ*    WORD          LAST WORD OF BCD CONV.
      00047 -0754 00 0 00000         ZAC                   (COUNT MUST BE .G.0, .LE.6)
      00050 -0763 00 0 00006         LGL     6             SHIFT OUT A CHARACTER.
      00051 -0600 00 0 00260         STQ     MQ            DON'T LOSE THE REST.
      00052  0074 00 7 00174         TSX     .STC,7        STORE CHARACTER IN OUTPUT BUFFER.
      00053  0560 00 0 00260         LDQ     MQ            RESTORE PARTIAL MQ.
      00054  2 00001 2 00047         TIX     LASTB+1,2,1   GO BACK FOR ANOTHER.
      00055  0020 00 0 00010         TRA     GTWD          DONE, GO GET NEXT DATA ITEM.

      00056 -3 00014 2 00060  OCT    TXL     *+2,2,12      IF COUNT .G. 12,
      00057  0774 00 2 00014         AXT     12,2          COUNT = 12.
      00060  0754 00 2 00000         PXA     0,2           TO AC.
      00061  0602 00 0 00255         SLW     T             MPY BY 3.
      00062  0767 00 0 00001         ALS     1             ..
      00063  0400 00 0 00255         ADD     T             ..
      00064  0737 00 7 00000         PAC     0,7           ..
      00065 -0500 60 0 00254         CAL*    WORD          GET OCTAL WORD.
      00066 -0765 00 7 00000         LGR     0,7           SAVE ONLY LOW ORDER N DIGITS.
      00067 -0754 00 0 00000  OCLP   ZAC                   BETTER CLEAR AC.
      00070 -0763 00 0 00003         LGL     3             GET A DIGIT.
      00071 -0600 00 0 00260         STQ     MQ            SAVE PARTIAL MQ.
      00072  0074 00 7 00174         TSX     .STC,7        INSERT DIGIT IN BUFFER.
      00073  0560 00 0 00260         LDQ     MQ            ... AND AGAIN.
      00074  2 00001 2 00067         TIX     OCLP,2,1      ..
      00075  0020 00 0 00010         TRA     GTWD          DONE.

      00076 -3 00013 2 00100  DEC    TXL     *+2,2,11      IF COUNT .G. 11,
      00077  0774 00 2 00013         AXT     11,2          SET COUNT TO 11.
      00100 -0625 00 0 00256         STL     BZEL          SET FLAG FOR LEADING BLANKS.
      00101  0600 00 0 00261         STZ     SKIP          RESET FLAG FOR IGNORING LEADING BLNKS.
1            $.FMT - OUTPUT FORMATTING PROGRAM FOR FAP CALLS.                                    PAGE 3
                           PETER R. BOS -- OCTOBER 1967

      00102  0120 00 0 00104         TPL     *+2           WANT LEADING BLANKS. Q
      00103 -0625 00 0 00261         STL     SKIP          NO, SET FLAG.
      00104 -0500 60 0 00254         CAL*    WORD          NO SIGN, PLEASE.
      00105  0131 00 0 00000         XCA                   ..
      00106 -0754 00 0 00000         ZAC                   ..
      00107  3 00012 2 00112         TXH     DLP,2,10      IF LESS THAN 11,
      00110  0221 00 2 00146         DVP     DIGIT-1,2     USE ONLY LAST N DIGITS.
      00111  0131 00 0 00000         XCA                   REMAINDER BECOMES NEW NUMBER.
      00112 -0754 00 0 00000  DLP    ZAC                   BETTER CLEAR AC FIRST.
      00113  0221 00 2 00147         DVP     DIGIT,2       GET DIGIT.
      00114  0601 00 0 00260         STO     MQ            SAVE REMAINDER.
      00115  0131 00 0 00000         XCA                   DIGIT TO AC.
      00116 -0320 00 0 00266         ANA     =O77          LAST 6 BITS ONLY.
      00117 -0100 00 0 00126         TNZ     NOZERO        IF ZERO,
      00120 -3 00001 2 00126         TXL     NOZERO,2,1    AND NOT LAST DIGIT,
      00121  0520 00 0 00256         ZET     BZEL          AND PREVIOUS ZEROS,
      00122 -0500 00 0 00265         CAL     =O60          CHANGE TO BLANK.
      00123  0520 00 0 00261         ZET     SKIP          WANT BLANK. Q
      00124  0020 00 0 00131         TRA     SKPBLK        NO, SKIP IT.
      00125  0020 00 0 00130         TRA     *+3           AND SKIP.
      00126  0600 00 0 00256  NOZERO STZ     BZEL          ELSE, RESET FLAG.
      00127  0600 00 0 00261         STZ     SKIP          ..
      00130  0074 00 7 00174         TSX     .STC,7        ADD CHARACTER TO BUFFER.
      00131  0560 00 0 00260  SKPBLK LDQ     MQ            RESTORE PARTIAL MQ.
      00132  2 00001 2 00112         TIX     DLP,2,1       AND DO IT AGAIN.
      00133  0020 00 0 00010         TRA     GTWD          DONE.

      00134 +112402762000            DEC     10000000000 TABLE OF DIGITS.
      00135 +007346545000            DEC     1000000000    ..
      00136 +000575360400            DEC     100000000     ..
      00137 +000046113200            DEC     10000000      ..
      00140 +000003641100            DEC     1000000       ..
      00141 +000000303240            DEC     100000        ..
      00142 +000000023420            DEC     10000         ..
      00143 +000000001750            DEC     1000          ..
      00144 +000000000144            DEC     100           ..
      00145 +000000000012            DEC     10            ..
      00146 +000000000001            DEC     1             ..
                       00147  DIGIT  SYN     *

      00147  0534 00 1 00176  EXIT   LXA     .X1,1         END OF LINE, FILL IN WITH NULLS.
      00150  0534 00 2 00177         LXA     .X2,2         ..
      00151 -3 00000 1 00160         TXL     GTPT,1,0      IF NO HOLES, SKIP.
      00152 -0500 00 0 00224         CAL     AC
      00153  0560 00 0 00270         LDQ     =O575757575757 NULLS RIGHT.
      00154 -0763 00 0 00006         LGL     6             SHIFT ONE.
      00155  2 00001 1 00154         TIX     *-1,1,1       IF THAT WON'T DO, SHIFT IT AGAIN.
      00156  0602 00 2 00226         SLW     BUF,2         STORE LAST WORD.
      00157  1 77777 2 00160         TXI     *+1,2,-1      INCREMENT COUNT.
      00160 -0756 00 2 00000  GTPT   PCD     0,2           TO AC.
      00161  0622 00 0 00262         STD     PBUF          WORD COUNT.
      00162  0400 00 0 00267         ADD     =O1000000     ADD ONE FOR LINE MARK.
      00163  0622 00 0 00263         STD     PLBUF         AND PUT IN OTHER POINTER.
      00164  0636 00 2 00225         SCA     LMARK,2       FIX UP LINE MARK.
      00165 -0500 00 0 00262         CAL     PBUF          GET POINTERS.
1            $.FMT - OUTPUT FORMATTING PROGRAM FOR FAP CALLS.                                    PAGE 4
                           PETER R. BOS -- OCTOBER 1967

      00166  0560 00 0 00263         LDQ     PLBUF         ..

      00167  0774 00 1 00000  FX1    AXT     -,1           RESTORE XRS.
      00170  0774 00 2 00000  FX2    AXT     -,2           ..
      00171  0774 00 7 00000  FX7    AXT     -,7           ..
      00172  0441 00 0 00257         LDI     SIND          ..
      00173  0020 00 4 00001         TRA     1,4           RETURN AFTER LAST ITEM.


      00174  0634 00 1 00221  .STC   SXA     .SX1,1        SAVE XRS.
      00175  0634 00 2 00222         SXA     .SX2,2        ..

      00176  0774 00 1 00000  .X1    AXT     -,1           RESTORE BUFFER INDICES.
      00177  0774 00 2 00000  .X2    AXT     -,2           ..
      00200 -0765 00 0 00006         LGR     6             SHIFT CHARACTER TO MQ.
      00201 -0500 00 0 00224         CAL     AC            PICK UP PARTIAL AC.
      00202 -0763 00 0 00006         LGL     6             SHIFT CHARACTER TO AC.
      00203  0602 00 0 00224         SLW     AC            AND SAVE.
      00204  2 00001 1 00217         TIX     XIT,1,1       DECREMENT CHAR. COUNT AND EXIT.
      00205  0602 00 2 00226  STORE  SLW     BUF,2         IF FULL WORD, STORE IN BUFFER.
      00206 -0500 00 0 00271         CAL     =H            INITIALIZE AC.
      00207  0602 00 0 00224         SLW     AC            ..
      00210  1 77777 2 00211         TXI     *+1,2,-1      INCREMENT WORD COUNT.
      00211  3 77752 2 00216         TXH     *+5,2,-NWRDS  IF BUFFER FULL, EXIT
      00212  0500 00 4 00000         CLA     0,4           ..
      00213  1 77777 4 00214         TXI     *+1,4,-1      ..
      00214 -0100 00 0 00212         TNZ     *-2           ..
      00215  0020 00 0 00160         TRA     GTPT          ..
      00216  0774 00 1 00006         AXT     6,1           RESET CHARACTER COUNT.
      00217  0634 00 1 00176  XIT    SXA     .X1,1         SAVE BUFFER INDICES.
      00220  0634 00 2 00177         SXA     .X2,2         ..
      00221  0774 00 1 00000  .SX1   AXT     -,1           RESTORE XRS.
      00222  0774 00 2 00000  .SX2   AXT     -,2           ..
      00223  0020 00 7 00001         TRA     1,7           RETURN.

      00224  0 00000 0 00000  AC     PZE                   TEMPORARY.


                      100000  .BCD   BOOL    100000
                      200000  .OCT   BOOL    200000
                      400000  .DEC   BOOL    400000

                       00026  NWRDS  EQU     22            MAX. WORDS PER LINE.
      00225 -377777000000     LMARK  OCT     777777000000
      00226                   BUF    BSS     NWRDS
      00254  0 00000 0 00000  WORD   PZE
      00255  0 00000 0 00000  T      PZE                   SUPER-TEMPORARY.
      00256  0 00000 0 00000  BZEL   PZE                   FLAG FOR LEADING BLANKS ON DEC.
      00257  0 00000 0 00000  SIND   PZE                   STORAGE FOR INDICS.
      00260  0 00000 0 00000  MQ     PZE
      00261  0 00000 0 00000  SKIP   PZE
      00262  0 00000 0 00226  PBUF   PZE     BUF,,-
      00263  3 00000 0 00225  PLBUF  TXH     LMARK,0,-
1            $.FMT - OUTPUT FORMATTING PROGRAM FOR FAP CALLS.                                    PAGE 5
                           PETER R. BOS -- OCTOBER 1967

                                     END

        LITERALS
      00264  000000000001
      00265  000000000060
      00266  000000000077
      00267  000001000000
      00270  575757575757
      00271  606060606060
1            $.FMT - OUTPUT FORMATTING PROGRAM FOR FAP CALLS.                                    PAGE 1
                        POST PROCESSOR ASSEMBLY DATA

        272 IS THE FIRST LOCATION NOT USED BY THIS PROGRAM

0REFERENCES TO DEFINED SYMBOLS
        255      T    61,   63
        224     AC   152,  201,  203,  207
        260     MQ    41,   43,   51,   53,   71,   73,  114,  131
         31    BCD    20,   45
        226    BUF   156,  205,  262
         76    DEC    24
        112    DLP   107,  132
        167    FX1     1
        170    FX2     2
        171    FX7     3
        176    .X1     6,  147,  217
        177    .X2     7,  150,  220
         56    OCT    22
        217    XIT   204
         40   BLP1    44
        256   BZEL   100,  121,  126
        147   EXIT    12
        160   GTPT   151,  215
         10   GTWD    15,   30,   55,   75,  133
     100000   .BCD    17,  225
     400000   .DEC    23,  225
          0   .FMT     0
     200000   .OCT    21,  225
        174   .STC    26,   42,   52,   72,  130
        221   .SX1   174
        222   .SX2   175
         67   OCLP    74
        262   PBUF   161,  165
        257   SIND     4,  172
        261   SKIP   101,  103,  123,  127
        254   WORD    16,   32,   33,   35,   46,   65,  104
        147  DIGIT   110,  113,  147
         46  LASTB    31,   54
        225  LMARK   164,  263
         26  NWRDS   211,  225,  226
        263  PLBUF   163,  166
        205  STORE
        126 NOZERO   117,  120
        131 SKPBLK   124

0 NO ERROR IN ABOVE ASSEMBLY.


AEDBCD   BCD 10/12/70 1512.6    3896         00000
