1     MAD PROGRAM LISTING ... ... ...                 FILE  AEDBCD   MAD            10/02/69    0152.5
-
                  PROGRAM TO CREATE LINE MARKED LISTING FILE OUT OF                                    LM00001
                  ALGOL SOURCE FILE AND ALGOL COMPILATION LISTING                                      LM00002
                                                                                                       LM00003
                  USAGE ...     'AEDBCD NAME1'                                                         LM00004
                                                                                                       LM00005
                  EATS 'NAME1 ALGOL' (CARD IMAGE) AND 'NAME1 LIST',                                    LM00006
                  MAKES 'NAME1 BCD', SUITABLE FOR FRAMING                                              LM00007
                                                                                                       LM00008
                  NORMAL MODE IS INTEGER                                                          *001 LM00009
                  DIMENSION B1(0), B2(0), B3(0), WBUF(0), LINE(16)                                *002 LM00010
                  VECTOR VALUES LINE(15) = $ $, 777777000017K                                     *003 LM00011
                                                                                                       LM00012
                  VECTOR VALUES R      = $R$                                                      *004 LM00013
                  VECTOR VALUES W      = $W$                                                      *005 LM00014
                  VECTOR VALUES ALL    = $ALL$                                                    *006 LM00015
                  VECTOR VALUES ALGOL  = $ ALGOL$                                                 *007 LM00016
                  VECTOR VALUES LIST   = $  LIST$                                                 *008 LM00017
                  VECTOR VALUES BCD    = $   BCD$                                                 *009 LM00018
                  VECTOR VALUES EJECT  = $1     $, 777777000001K                                  *010 LM00019
                  VECTOR VALUES EOFCT  = 0                                                        *011 LM00020
                  VECTOR VALUES LMARK  = 777777000000K                                            *012 LM00021
                                                                                                       LM00022
                  FERRTN.(OOPS)                                                                   *013 LM00023
                  N1 = COMARG.(1)                                                                 *014 LM00024
                  FSTATE.(N1, ALGOL, TEMP)                                                        *015 LM00025
                  FSTATE.(N1, LIST, TEMP)                                                         *016 LM00026
                  DELETE.(N1, BCD, 0, CHNCOM.)                                                    *017 LM00027
                                                                                                       LM00028
                  GETBUF.(B1, 864)                                                                *018 LM00029
                  GETBUF.(B2, 864)                                                                *019 LM00030
                  GETBUF.(B3, 864)                                                                *020 LM00031
                  GETBUF.(WBUF, 432)                                                              *021 LM00032
                                                                                                       LM00033
                  BFOPEN.(R, N1, ALGOL, B1(B1+432), B1(B1+864), -0, OOPS)                         *022 LM00034
                  BFOPEN.(W, N1, BCD, B2(B2+432), B2(B2+864), B3(B3+432), OOPS)                   *023 LM00035
                  BFWRIT.(N1, BCD, EJECT(1)...2, OOPS)                                            *024 LM00036
                                                                                                       LM00037
      READ        BFREAD.(N1, ALGOL, LINE(14)...14, EOF, EOFCT, OOPS)                             *025 LM00038
                  BFWRIT.(N1, BCD, LINE(16)...16, OOPS)                                           *026 LM00039
                  TRANSFER TO READ                                                                *027 LM00040
                                                                                                       LM00041
      EOF         WHENEVER EOFCT .NE. 0                                                           *028 LM00042
                    TEMP = EOFCT + 1                                                              *029 LM00043
                    LINE(TEMP) = EOFCT .V. LMARK                                                  *030 LM00044
                    BFWRIT.(N1, BCD, LINE(TEMP)...TEMP, OOPS)                                     *031 LM00045
                  END OF CONDITIONAL                                                              *032 LM00046
                                                                                                       LM00047
                  BFCLOS.(ALL, -0, OOPS)                                                          *033 LM00048
                                                                                                       LM00049
                  OPEN.(R, N1, LIST)                                                              *034 LM00050
                  OPEN.(W, N1, BCD)                                                               *035 LM00051
                  BUFFER.(N1, BCD, WBUF(WBUF+432)...432)                                          *036 LM00052
                  COPY.(N1, LIST, N1, BCD, B1(B1+864), B2(B2+864),                                *037 LM00053
                1   B3(B3+864), 864, OOPS)                                                        *037 LM00054
                  CLOSE.(ALL, -0)                                                                 *038 LM00055
                                                                                                       LM00056
                  WRFLX.($*$...1)                                                                 *039 LM00057
                  CHNCOM.(0)                                                                      *040 LM00058
                                                                                                       LM00059
      OOPS        PRDIAG.                                                                         *041 LM00060
                  BFCLOS.(ALL, -0)                                                                *042 LM00061
                  CLOSE.(ALL, -0)                                                                 *043 LM00062
                  RESETF.                                                                         *044 LM00063
                  CHNCOM.(0)                                                                      *045 LM00064
                                                                                                       LM00065
                  END OF PROGRAM                                                                  *046 LM00066
1MAD PROGRAM,TYPE NOV 1963      (ALL NUMBERS ARE OCTAL)
0TOTAL LOCATIONS   00373 TRANSFER VECTOR LENGTH  00023 PROGRAM BEGINS    00101
0VARIABLE STORAGE (A=ARRAY,C=COMMON,E=ERASABLE,DIGIT=MODE)
      ALGOL  00027 A 1        B3     00033 A 1        EOF    00024   4        N1     00063   1        TEMP   00065   1
      ALL    00030 A 1        BCD    00034 A 1        LINE   00060 A 1        OOPS   00025   4        WBUF   00066 A 1
      B1     00031 A 1        EJECT  00036 A 1        LIST   00061 A 1        READ   00026   4        W      00067 A 1
      B2     00032 A 1        EOFCT  00037 A 1        LMARK  00062 A 1        R      00064 A 1
0FUNCTION DICTIONARY
      BFCLOS 00000   1        BFOPEN 00001   1        BFREAD 00002   1        BFWRIT 00003   1        BUFFER 00004   1
      CHNCOM 00005   1        CLOSE  00006   1        COMARG 00007   1        COPY   00010   1        DELETE 00011   1
      EXIT   00012   1        FERRTN 00013   1        FSTATE 00014   1        GETBUF 00015   1        .SETUP 00016   1
      OPEN   00017   1        PRDIAG 00020   1        RESETF 00021   1        WRFLX  00022   1
0ABSOLUTE CONSTANTS
 00100 -146060606060     00074 +000000000020     00073 +000000000016     00072 +000000000002     00075 +000000000660
 00076 +000000001540     00070 +000000000000     00071 +000000000001     00077 +233000000000
0STATEMENT DICTIONARY
 00024 TXL -300240000235       00025 TXL -300352000351       00026 TXL -300227000220
0PROGRAM
                 N'R                                                                001  LM00009
                 D'N B1(0), B2(0), B3(0), WBUF(0), LINE(16)                         002  LM00010
                 V'S LINE(15) = $ $, 777777000017K                                  003  LM00011
 00101 TSX +0 07400 4 00016    00040     -3 77777 0 00017    00041     -2 06060 6 06060
                 V'S R      = $R$                                                   004  LM00013
 00064     -1 16060 6 06060
                 V'S W      = $W$                                                   005  LM00014
 00067     -2 66060 6 06060
                 V'S ALL    = $ALL$                                                 006  LM00015
 00030     +2 14343 6 06060
                 V'S ALGOL  = $ ALGOL$                                              007  LM00016
 00027     -2 02143 2 74643
                 V'S LIST   = $  LIST$                                              008  LM00017
 00061     -2 06043 3 16263
                 V'S BCD    = $   BCD$                                              009  LM00018
 00034     -2 06060 2 22324
                 V'S EJECT  = $1     $, 777777000001K                               010  LM00019
 00035     -3 77777 0 00001    00036     +0 16060 6 06060
                 V'S EOFCT  = 0                                                     011  LM00020
 00037     +0 00000 0 00000
                 V'S LMARK  = 777777000000K                                         012  LM00021
 00062     -3 77777 0 00000
                 FERRTN.(OOPS)                                                      013  LM00023
 00102 TSX +0 07400 4 00013    00103 TXH +3 00000 0 00025
                 N1 = COMARG.(1)                                                    014  LM00024
 00104 TSX +0 07400 4 00007    00105 TXH +3 00000 0 00071    00106 STO +0 60100 0 00063
                 FSTATE.(N1, ALGOL, TEMP)                                           015  LM00025
 00107 TSX +0 07400 4 00014    00110 TXH +3 00000 0 00063    00111 TXH +3 00000 0 00027    00112 TXH +3 00000 0 00065
                 FSTATE.(N1, LIST, TEMP)                                            016  LM00026
 00113 TSX +0 07400 4 00014    00114 TXH +3 00000 0 00063    00115 TXH +3 00000 0 00061    00116 TXH +3 00000 0 00065
                 DELETE.(N1, BCD, 0, CHNCOM.)                                       017  LM00027
 00117 TSX +0 07400 4 00011    00120 TXH +3 00000 0 00063    00121 TXH +3 00000 0 00034    00122 TXH +3 00000 0 00070
 00123 TXH +3 00000 0 00005
                 GETBUF.(B1, 864)                                                   018  LM00029
 00124 TSX +0 07400 4 00015    00125 TXH +3 00000 0 00031    00126 TXH +3 00000 0 00076
                 GETBUF.(B2, 864)                                                   019  LM00030
 00127 TSX +0 07400 4 00015    00130 TXH +3 00000 0 00032    00131 TXH +3 00000 0 00076
                 GETBUF.(B3, 864)                                                   020  LM00031
 00132 TSX +0 07400 4 00015    00133 TXH +3 00000 0 00033    00134 TXH +3 00000 0 00076
                 GETBUF.(WBUF, 432)                                                 021  LM00032
 00135 TSX +0 07400 4 00015    00136 TXH +3 00000 0 00066    00137 TXH +3 00000 0 00075
                 BFOPEN.(R, N1, ALGOL, B1(B1+432), B1(B1+864), -0, OOPS)            022  LM00034
 00140 CLS +0 50200 0 00070    00141 STO +0 60100 0 00370    00142 CLA +0 50000 0 00031    00143 ADD +0 40000 0 00076
 00144 SUB +0 40200 0 00145    00145 TXH +3 00000 0 00031    00146 STA +0 62100 0 00161    00147 CLA +0 50000 0 00031
 00150 ADD +0 40000 0 00075    00151 SUB +0 40200 0 00152    00152 TXH +3 00000 0 00031    00153 STA +0 62100 0 00160
 00154 TSX +0 07400 4 00001    00155 TXH +3 00000 0 00064    00156 TXH +3 00000 0 00063    00157 TXH +3 00000 0 00027
 00160 TXH +3 00000 0 00000    00161 TXH +3 00000 0 00000    00162 TXH +3 00000 0 00370    00163 TXH +3 00000 0 00025
                 BFOPEN.(W, N1, BCD, B2(B2+432), B2(B2+864), B3(B3+432), OOPS)      023  LM00035
 00164 CLA +0 50000 0 00033    00165 ADD +0 40000 0 00075    00166 SUB +0 40200 0 00167    00167 TXH +3 00000 0 00033
 00170 STA +0 62100 0 00211    00171 CLA +0 50000 0 00032    00172 ADD +0 40000 0 00076    00173 SUB +0 40200 0 00174
 00174 TXH +3 00000 0 00032    00175 STA +0 62100 0 00210    00176 CLA +0 50000 0 00032    00177 ADD +0 40000 0 00075
 00200 SUB +0 40200 0 00201    00201 TXH +3 00000 0 00032    00202 STA +0 62100 0 00207    00203 TSX +0 07400 4 00001
 00204 TXH +3 00000 0 00067    00205 TXH +3 00000 0 00063    00206 TXH +3 00000 0 00034    00207 TXH +3 00000 0 00000
 00210 TXH +3 00000 0 00000    00211 TXH +3 00000 0 00000    00212 TXH +3 00000 0 00025
                 BFWRIT.(N1, BCD, EJECT(1)...2, OOPS)                               024  LM00036
 00213 TSX +0 07400 4 00003    00214 TXH +3 00000 0 00063    00215 TXH +3 00000 0 00034    00216 TIX +2 00072 0 00035
 00217 TXH +3 00000 0 00025
      READ       BFREAD.(N1, ALGOL, LINE(14)...14, EOF, EOFCT, OOPS)                025  LM00038
 00220 TSX +0 07400 4 00002    00221 TXH +3 00000 0 00063    00222 TXH +3 00000 0 00027    00223 TIX +2 00073 0 00042
 00224 TXH +3 00000 0 00024    00225 TXH +3 00000 0 00037    00226 TXH +3 00000 0 00025
                 BFWRIT.(N1, BCD, LINE(16)...16, OOPS)                              026  LM00039
 00227 TSX +0 07400 4 00003    00230 TXH +3 00000 0 00063    00231 TXH +3 00000 0 00034    00232 TIX +2 00074 0 00040
 00233 TXH +3 00000 0 00025
                 T'O READ                                                           027  LM00040
 00234 TRA +0 02000 0 00026
      EOF        W'R EOFCT .NE. 0                                                   028  LM00042
 00235 CLA +0 50000 0 00037    00236 SUB +0 40200 0 00070    00237 TZE +0 10000 0 00260
                   TEMP = EOFCT + 1                                                 029  LM00043
 00240 CLA +0 50000 0 00037    00241 ADD +0 40000 0 00071    00242 STO +0 60100 0 00065
                   LINE(TEMP) = EOFCT .V. LMARK                                     030  LM00044
 00243 CAL -0 50000 0 00037    00244 ORA -0 50100 0 00062    00245 LXA +0 53400 1 00065    00246 SLW +0 60200 1 00060
                   BFWRIT.(N1, BCD, LINE(TEMP)...TEMP, OOPS)                        031  LM00045
 00247 CLA +0 50000 0 00065    00250 SUB +0 40200 0 00251    00251 TXH +3 00000 0 00060    00252 STA +0 62100 0 00256
 00253 TSX +0 07400 4 00003    00254 TXH +3 00000 0 00063    00255 TXH +3 00000 0 00034    00256 TIX +2 00065 0 00000
 00257 TXH +3 00000 0 00025
                 E'L                                                                032  LM00046
                 BFCLOS.(ALL, -0, OOPS)                                             033  LM00048
 00260 CLS +0 50200 0 00070    00261 STO +0 60100 0 00370    00262 TSX +0 07400 4 00000    00263 TXH +3 00000 0 00030
 00264 TXH +3 00000 0 00370    00265 TXH +3 00000 0 00025
                 OPEN.(R, N1, LIST)                                                 034  LM00050
 00266 TSX +0 07400 4 00017    00267 TXH +3 00000 0 00064    00270 TXH +3 00000 0 00063    00271 TXH +3 00000 0 00061
                 OPEN.(W, N1, BCD)                                                  035  LM00051
 00272 TSX +0 07400 4 00017    00273 TXH +3 00000 0 00067    00274 TXH +3 00000 0 00063    00275 TXH +3 00000 0 00034
                 BUFFER.(N1, BCD, WBUF(WBUF+432)...432)                             036  LM00052
 00276 CLA +0 50000 0 00066    00277 ADD +0 40000 0 00075    00300 SUB +0 40200 0 00301    00301 TXH +3 00000 0 00066
 00302 STA +0 62100 0 00306    00303 TSX +0 07400 4 00004    00304 TXH +3 00000 0 00063    00305 TXH +3 00000 0 00034
 00306 TIX +2 00075 0 00000
                 COPY.(N1, LIST, N1, BCD, B1(B1+864), B2(B2+864),                   037  LM00053
                1  B3(B3+864), 864, OOPS)                                           037  LM00054
 00307 CLA +0 50000 0 00033    00310 ADD +0 40000 0 00076    00311 SUB +0 40200 0 00312    00312 TXH +3 00000 0 00033
 00313 STA +0 62100 0 00335    00314 CLA +0 50000 0 00032    00315 ADD +0 40000 0 00076    00316 SUB +0 40200 0 00317
 00317 TXH +3 00000 0 00032    00320 STA +0 62100 0 00334    00321 CLA +0 50000 0 00031    00322 ADD +0 40000 0 00076
 00323 SUB +0 40200 0 00324    00324 TXH +3 00000 0 00031    00325 STA +0 62100 0 00333    00326 TSX +0 07400 4 00010
 00327 TXH +3 00000 0 00063    00330 TXH +3 00000 0 00061    00331 TXH +3 00000 0 00063    00332 TXH +3 00000 0 00034
 00333 TXH +3 00000 0 00000    00334 TXH +3 00000 0 00000    00335 TXH +3 00000 0 00000    00336 TXH +3 00000 0 00076
 00337 TXH +3 00000 0 00025
                 CLOSE.(ALL, -0)                                                    038  LM00055
 00340 CLS +0 50200 0 00070    00341 STO +0 60100 0 00370    00342 TSX +0 07400 4 00006    00343 TXH +3 00000 0 00030
 00344 TXH +3 00000 0 00370
                 WRFLX.($*$...1)                                                    039  LM00057
 00345 TSX +0 07400 4 00022    00346 TIX +2 00071 0 00100
                 CHNCOM.(0)                                                         040  LM00058
 00347 TSX +0 07400 4 00005    00350 TXH +3 00000 0 00070
      OOPS       PRDIAG.                                                            041  LM00060
 00351 TSX +0 07400 4 00020
                 BFCLOS.(ALL, -0)                                                   042  LM00061
 00352 CLS +0 50200 0 00070    00353 STO +0 60100 0 00370    00354 TSX +0 07400 4 00000    00355 TXH +3 00000 0 00030
 00356 TXH +3 00000 0 00370
                 CLOSE.(ALL, -0)                                                    043  LM00062
 00357 CLS +0 50200 0 00070    00360 STO +0 60100 0 00370    00361 TSX +0 07400 4 00006    00362 TXH +3 00000 0 00030
 00363 TXH +3 00000 0 00370
                 RESETF.                                                            044  LM00063
 00364 TSX +0 07400 4 00021
                 CHNCOM.(0)                                                         045  LM00064
 00365 TSX +0 07400 4 00005    00366 TXH +3 00000 0 00070
                 E'M                                                                046  LM00066
 00367 TSX +0 07400 4 00012


ALSTAT   BCD 02/09/69 0712.9   59917         00000
1     MAD PROGRAM LISTING ... ... ...                 FILE  ALSTAT   MAD            02/09/69    0656.4
-
      ALSTAT     ...SUMMARIZE DISK USAGE.                                                              LM00001
                                                                                                       LM00002
                 ...THIS PROGRAM IS DESIGNED FOR USE WITH THE 'FSTAT' PACKAGE                          LM00003
                 ...WRITTEN BY NOEL MORRIS.                                                            LM00004
                                                                                                       LM00005
                 ...T.H. VAN VLECK 9/66                                                                LM00006
                                                                                                       LM00007
                                                                                                       LM00008
                                                                                                       LM00009
                  EXTERNAL FUNCTION(PROBN,PROGN,BUFF)                                             *001 LM00010
                                                                                                       LM00011
                 ...DEFINE OPERATORS FOR MODULUS AND EXCLUSIVE OR                                      LM00012
                  INSERT FILE .MOD.                                                               *002 LM00013
                      DEFINE BINARY OPERATOR .MOD., PRECEDENCE SAME AS /                          *003 LM00001
                      MODE STRUCTURE 1 .MOD. 1 TO 1                                               *004 LM00002
             JMP      *+1,AT,*+3                                                                  *005 LM00003
             JMP      *+11,AC,*+1                                                                 *006 LM00004
             JMP      *+12,LA,*+6                                                                 *007 LM00005
             JMP      *+13,AC,*+1                                                                 *008 LM00006
             JMP      *+2,MQ,*+1                                                                  *009 LM00007
             JMP      *+13,LA,*+2                                                                 *010 LM00008
             STQ      T                                                                           *011 LM00009
             LDQ      A                                                                           *012 LM00010
             PXD                                                                                  *013 LM00011
             LLS      0                                                                           *014 LM00012
             DVP      B                                                                           *015 LM00013
             OUT      AC                                                                          *016 LM00014
             XCA                                                                                  *017 LM00015
             JMP      *-5                                                                         *018 LM00016
             XCL                                                                                  *019 LM00017
             JMP      *-7                                                                         *020 LM00018
             STO      T                                                                           *021 LM00019
             JMP      *-10                                                                        *022 LM00020
             SLW      T                                                                           *023 LM00021
             JMP      *-12                                                                        *024 LM00022
             END                                                                                  *025 LM00023
                  INSERT FILE .XOR.                                                               *026 LM00014
                  DEFINE BINARY OPERATOR .XOR., PRECEDENCE SAME AS .A.                            *027 LM00001
                  MODE STRUCTURE 1 .XOR. 1 TO 1                                                   *028 LM00002
             JMP      *+1,LA,*+3                                                                  *029 LM00003
             JMP      *+15,AT,*+1                                                                 *030 LM00004
             JMP      *+17,BT,*+9                                                                 *031 LM00005
             JMP      *+1,MQ,*+3                                                                  *032 LM00006
             JMP      *+9,AT,*+1                                                                  *033 LM00007
             JMP      *+13,BT,*+4                                                                 *034 LM00008
             JMP      *+1,AC,*+9                                                                  *035 LM00009
             STO      T                                                                           *036 LM00010
             JMP      *+7                                                                         *037 LM00011
             STQ      T                                                                           *038 LM00012
             JMP      *+5                                                                         *039 LM00013
             SLW      T                                                                           *040 LM00014
             JMP      *+3                                                                         *041 LM00015
             XCL                                                                                  *042 LM00016
             JMP      *+2                                                                         *043 LM00017
             CAL      A                                                                           *044 LM00018
             ERA      B                                                                           *045 LM00019
             OUT      LAC                                                                         *046 LM00020
             XCL                                                                                  *047 LM00021
             ERA      A                                                                           *048 LM00022
             OUT      LAC                                                                         *049 LM00023
             END                                                                                  *050 LM00024
                                                                                                       LM00015
                                                                                                       LM00016
                 * * * * * * * * * * * * * * * * * * * * * * * * * * * * * *                           LM00017
                                                                                                       LM00018
                 ...'FINIT' IS CALLED FIRST TO INITIALIZE.                                             LM00019
                 ...IT READS 'SEARCH FILE'                                                             LM00020
                 ...TO SEE WHAT NAMES AND CLASSES TO SUMMARIZE.                                        LM00021
                                                                                                       LM00022
                  ENTRY TO FINIT.                                                                 *051 LM00023
                                                                                                       LM00024
                                                                                                       LM00025
                  WHENEVER COMARG.(1).E.$ (SYS)$, SYSFLG = 1B                                     *052 LM00026
                  BOOLEAN SYSFLG                                                                  *053 LM00027
                  VECTOR VALUES SYSFLG = 0B                                                       *054 LM00028
                                                                                                       LM00029
                  GETTM.(DATE,TIME)                                                               *055 LM00030
                  GETIM.(TEMP,DATE)                                                               *056 LM00031
                  WHOAMI.(WHO(3)...4)                                                             *057 LM00032
                  ATTNAM.(ME(1)...2)                                                              *058 LM00033
                  FERRTN.(ERR)                                                                    *059 LM00034
                  IOHSIZ.(1)                                                                      *060 LM00035
                                                                                                       LM00036
                  BFOPEN.($R$,SEARCH,FL,B1(432),B2(432),-0,ERR)                                   *061 LM00037
                                                                                                       LM00038
      READ        BFREAD.(SEARCH,FL,CARD(13)...14,EOF,-0,ERR)                                     *062 LM00039
                  NAME1(MAX)=RJUST.(CARD(13))                                                     *063 LM00040
                  NAME2(MAX)=RJUST.(CARD(12))                                                     *064 LM00041
                  MASK1(MAX) = NAMASK.(NAME1(MAX))                                                *065 LM00042
                  MASK2(MAX) = NAMASK.(NAME2(MAX))                                                *066 LM00043
                  TEMP=RJUST.(CARD(11))                                                           *067 LM00044
                  WHENEVER TEMP .E. $$                                                            *068 LM00045
                       CLASS(MAX)=0                                                               *069 LM00046
                                                                                                       LM00047
                  OTHERWISE                                                                       *070 LM00048
                       THROUGH SCLS, FOR I=0,1,I.G.MXCLS                                          *071 LM00049
                       WHENEVER TEMP .E. CLNAME(I), TRANSFER TO SET                               *072 LM00050
      SCLS             CONTINUE                                                                   *073 LM00051
                                                                                                       LM00052
                       MXCLS=MXCLS+1                                                              *074 LM00053
                       CLNAME(MXCLS)=TEMP                                                         *075 LM00054
      SET              CLASS(MAX)=I                                                               *076 LM00055
                  END OF CONDITIONAL                                                              *077 LM00056
                  MAX=MAX+1                                                                       *078 LM00057
                  TRANSFER TO READ                                                                *079 LM00058
                                                                                                       LM00059
      EOF         BFCLOS.(SEARCH,FL)                                                              *080 LM00060
                  MAX=MAX-1                                                                       *081 LM00061
                                                                                                       LM00062
                  YR = BCDEC.(DATE.A.7777K)                                                       *082 LM00063
                  MO = BCDEC.((DATE.RS.24).A.7777K)                                               *083 LM00064
                  DA = BCDEC.((DATE.RS.12).A.7777K)                                               *084 LM00065
                  NOW = ABSDAT.(MO, DA, YR)                                                       *085 LM00066
                                                                                                       LM00067
                 ...SET UP BRKPTS FOR HISTOGRAM                                                        LM00068
                  MB1 = NOW - DA                                                                  *086 LM00069
                  MB2 = MB1 - DAYS(MO-1)                                                          *087 LM00070
                  MO1 = MONNAM(MO-1)                                                              *088 LM00071
                  MO2 = MONNAM((MO+10).MOD.12)                                                    *089 LM00072
                                                                                                       LM00073
                                                                                                       LM00074
                  FUNCTION RETURN                                                                 *090 LM00075
                                                                                                       LM00076
                                                                                                       LM00077
                 * * * * * * * * * * * * * * * * * * * * * * * * * * * * * *                           LM00078
                                                                                                       LM00079
                                                                                                       LM00080
                 ...'COUNTR' IS CALLED ON EACH FILE.                                                   LM00081
                 .....'BUFF' IS THE ACTUAL UFD ENTRY FOR A FILE                                        LM00082
                 .....SINCE THE UFD GOES FORWARD IN CORE WE MUST USE                                   LM00083
                 .....THE 2'S COMPLEMENT OF THE SUBSCRIPT                                              LM00084
                                                                                                       LM00085
                 .....BUFF( 0) = NAME1                                                                 LM00086
                 .....BUFF(-1) = NAME2                                                                 LM00087
                 .....BUFF(-2) = DATE + TIME LAST MOD.                                                 LM00088
                 .....BUFF(-3) = DATE LAST USED, AUTHOR                                                LM00089
                 .....BUFF(-4) = MODE, ILOCK, F, RCOUNT                                                LM00090
                 .....BUFF(-5) = SWR, NORECS, P, LCOUNT                                                LM00091
                 .....(WITH THE OBVIOUS EXCEPTION FOR LINKS)                                           LM00092
                                                                                                       LM00093
                                                                                                       LM00094
                  ENTRY TO COUNTR.                                                                *091 LM00095
                                                                                                       LM00096
                                                                                                       LM00097
                  WHENEVER PROGN  .E. $(FILE)$, FUNCTION RETURN                                   *092 LM00098
                  WHENEVER SYSFLG                                                                 *093 LM00099
                     WHENEVER PROBN.E.$ M1416$.OR.PROBN.A.77K8.E.$0C0000$,FUNCTION RETURN         *094 LM00100
                  END OF CONDITIONAL                                                              *095 LM00101
                                                                                                       LM00102
                  N2=BUFF(M1)                                                                     *096 LM00103
                  N1=BUFF                                                                         *097 LM00104
                                                                                                       LM00105
                  F=(BUFF(M4).RS.15).A.7K                                                         *098 LM00106
                                                                                                       LM00107
                  SIZE=(BUFF(M5).RS.18).A.M1                                                      *099 LM00108
                  WHENEVER F .NE. 2, SIZE=0                                                       *100 LM00109
                                                                                                       LM00110
                  WHENEVER PROBN .NE. OLPROB .OR. PROGN .NE. OLPROG                               *101 LM00111
                      ...NEW UFD                                                                       LM00112
                       INTERNAL FUNCTION                                                          *102 LM00113
                       ENTRY TO NEWUFD.                                                           *103 LM00114
                       NUFD = NUFD + 1                                                            *104 LM00115
                       UFDF2 = UFDF2+TSUFDF*TSUFDF                                                *105 LM00116
                       UFDL2 = UFDL2+TSUFDL*TSUFDL                                                *106 LM00117
                       UFDR2 = UFDR2+TSUFDR*TSUFDR                                                *107 LM00118
                       TSUFDF = 0                                                                 *108 LM00119
                       TSUFDL = 0                                                                 *109 LM00120
                       TSUFDR = 0                                                                 *110 LM00121
                       OLPROB = PROBN                                                             *111 LM00122
                       OLPROG = PROGN                                                             *112 LM00123
                       FUNCTION RETURN                                                            *113 LM00124
                       END OF FUNCTION                                                            *114 LM00125
                       NEWUFD.                                                                    *115 LM00126
                  END OF CONDITIONAL                                                              *116 LM00127
                                                                                                       LM00128
                                                                                                       LM00129
                  WHENEVER F .E.0                                                                 *117 LM00130
                      ...FILE IS A LINK                                                                LM00131
                       LINKS = LINKS + 1                                                          *118 LM00132
                       TSUFDL = TSUFDL + 1                                                        *119 LM00133
                       TRANSFER TO CNAME                                                          *120 LM00134
                  OR WHENEVER F .E. 2                                                             *121 LM00135
                      ...FILE IS ON DISK.                                                              LM00136
                       WHENEVER SIZE .A. 1K .E. 1K                                                *122 LM00137
                            RSIZE = SIZE + 1                                                      *123 LM00138
                       OTHERWISE                                                                  *124 LM00139
                            RSIZE = SIZE                                                          *125 LM00140
                       END OF CONDITIONAL                                                         *126 LM00141
                      ...THIS FOR THE TWO-FOR-ONE TUT                                                  LM00142
                       TRSIZE = TRSIZE + RSIZE                                                    *127 LM00143
                  END OF CONDITIONAL                                                              *128 LM00144
                                                                                                       LM00145
                 ...REAL FILE.                                                                         LM00146
                                                                                                       LM00147
                 ...TOTALS                                                                             LM00148
                  TSUFDR = TSUFDR + SIZE                                                          *129 LM00149
                  TSUFDF = TSUFDF + 1                                                             *130 LM00150
                  TR = TR + SIZE                                                                  *131 LM00151
                  TF = TF + 1                                                                     *132 LM00152
                  TREC2  = TREC2  + SIZE * SIZE                                                   *133 LM00153
                                                                                                       LM00154
                 ...MODE                                                                               LM00155
                  MODE = BUFF(M4) .RS. 28                                                         *134 LM00156
                  THROUGH MODLP, FOR I = 1,1,I.G.8                                                *135 LM00157
                  WHENEVER MODE.A.MODBIT(I) .NE. 0                                                *136 LM00158
                       MODFIL(I) = MODFIL(I) + 1                                                  *137 LM00159
                       MODREC(I) = MODREC(I) + SIZE                                               *138 LM00160
                  END OF CONDITIONAL                                                              *139 LM00161
      MODLP       CONTINUE                                                                        *140 LM00162
                                                                                                       LM00163
                 ...CLASS NAME                                                                         LM00164
                                                                                                       LM00165
      CNAME       THROUGH LOOP, FOR I=1,1,I.G.MAX                                                 *141 LM00166
                  WHENEVER  (N1.XOR.NAME1(I)).A.MASK1(I) .E. 0                                    *142 LM00167
                1 .AND.(N2.XOR.NAME2(I)).A.MASK2(I) .E. 0                                         *142 LM00168
      TYPE             WHENEVER F .NE. 0                                                          *143 LM00169
                            COUNT(I)=COUNT(I)+1                                                   *144 LM00170
                            NRECS(I)=NRECS(I)+SIZE                                                *145 LM00171
                            CCOUNT(CLASS(I))=CCOUNT(CLASS(I))+1                                   *146 LM00172
                            CNRECS(CLASS(I))=CNRECS(CLASS(I))+SIZE                                *147 LM00173
                            TRANSFER TO DOAGE                                                     *148 LM00174
                       OTHERWISE                                                                  *149 LM00175
                            COUNTL(I) = COUNTL(I) + 1                                             *150 LM00176
                            CCOUNL(CLASS(I)) = CCOUNL(CLASS(I)) + 1                               *151 LM00177
                            FUNCTION RETURN                                                       *152 LM00178
                           ...LINKS EXIT HERE                                                          LM00179
                       END OF CONDITIONAL                                                         *153 LM00180
                  END OF CONDITIONAL                                                              *154 LM00181
      LOOP        CONTINUE                                                                        *155 LM00182
                                                                                                       LM00183
                  I=0                                                                             *156 LM00184
                  TRANSFER TO TYPE                                                                *157 LM00185
                                                                                                       LM00186
                 ...DATE LAST USED.                                                                    LM00187
      DOAGE       TEMP = BUFF(M3) .RS. 18                                                         *158 LM00188
                  YEAR = TEMP.RS.9                                                                *159 LM00189
                  MONTH= (TEMP.RS.5).A.17K                                                        *160 LM00190
                  DAY  = TEMP.A.37K                                                               *161 LM00191
                  AGE  = NOW - ABSDAT.(MONTH,DAY,YEAR)                                            *162 LM00192
                                                                                                       LM00193
                  WHENEVER AGE.G.90, AGE = 90                                                     *163 LM00194
                  WHENEVER AGE.L.0, AGE = 0                                                       *164 LM00195
                  FTBL(AGE) = FTBL(AGE)+1                                                         *165 LM00196
                  RTBL(AGE) = RTBL(AGE)+SIZE                                                      *166 LM00197
                                                                                                       LM00198
                 ...CREATION DATE.                                                                     LM00199
                  TEMP = BUFF(M2) .RS. 18                                                         *167 LM00200
                  YEAR = TEMP .RS. 9                                                              *168 LM00201
                  MONTH = (TEMP.RS.5) .A. 17K                                                     *169 LM00202
                  DAY = TEMP .A.37K                                                               *170 LM00203
                  AGE = NOW - ABSDAT.(MONTH,DAY,YEAR)                                             *171 LM00204
                  AGESUM = AGESUM + AGE                                                           *172 LM00205
                  AGES2 = AGES2 + AGE*AGE                                                         *173 LM00206
                  WHENEVER AGE .G. 90, AGE = 90                                                   *174 LM00207
                  WHENEVER AGE .L. 0, AGE = 0                                                     *175 LM00208
                  CFTBL(AGE) = CFTBL(AGE) + 1                                                     *176 LM00209
                  CRTBL(AGE) = CRTBL(AGE) + SIZE                                                  *177 LM00210
                                                                                                       LM00211
                  FUNCTION RETURN                                                                 *178 LM00212
                                                                                                       LM00213
                                                                                                       LM00214
                 * * * * * * * * * * * * * * * * * * * * * * * * * * * * * *                           LM00215
                                                                                                       LM00216
                 ...FPRINT IS CALLED AT THE END.                                                       LM00217
                                                                                                       LM00218
                  ENTRY TO FPRINT.                                                                *179 LM00219
                                                                                                       LM00220
                  NEWUFD.                                                                         *180 LM00221
                                                                                                       LM00222
                  ATTACH.(ME(1),ME)                                                               *181 LM00223
                                                                                                       LM00224
                 ...OPEN OUTPUT FILE AND PUT HEADING.                                                  LM00225
                                                                                                       LM00226
                  DELETE.(OUT,OUT(1),1,SNAP.)                                                     *182 LM00227
                  ASSIGN.(OUT,B1,B2,B3)                                                           *183 LM00228
                  DWRITE.(OUT,HEAD)                                                               *184 LM00229
                  WHENEVER SYSFLG, DWRITE.(OUT,SYSHED)                                            *185 LM00230
                  DWRITE.(OUT,F0,TIME,DAYNAM(NOW.MOD.7),MONNAM(MO),                               *186 LM00231
                1  DA, YR, WHO(1))                                                                *186 LM00232
                                                                                                       LM00233
                  XTF = TF                                                                        *187 LM00234
                  XNUFD = NUFD                                                                    *188 LM00235
                  X1 = TR/XTF                                                                     *189 LM00236
                  X2 = SQRT.(TREC2/XTF - X1*X1)                                                   *190 LM00237
                  X3 = XTF/XNUFD                                                                  *191 LM00238
                  X4 = SQRT.(UFDF2/XNUFD - X3*X3)                                                 *192 LM00239
                  X5 = TR/XNUFD                                                                   *193 LM00240
                  X6 = SQRT.(UFDR2/XNUFD - X5*X5)                                                 *194 LM00241
                  X7 = LINKS/XNUFD                                                                *195 LM00242
                  X8 = SQRT.(UFDL2/XNUFD - X7*X7)                                                 *196 LM00243
                  X9 = AGESUM/XTF                                                                 *197 LM00244
                  X10 = SQRT.(AGES2/XTF - X9*X9)                                                  *198 LM00245
                                                                                                       LM00246
                  DWRITE.(OUT,F1, TF, TR, X3, X4, NUFD, X5, X6, LINKS,                            *199 LM00247
                1    X7, X8, X1, X2, X9, X10 )                                                    *199 LM00248
                  DWRITE.(OUT,F3,CAPACY,TRSIZE,CAPACY-TRSIZE,                                     *200 LM00249
                1    (TRSIZE-TR)*100./CAPACY)                                                     *200 LM00250
                  DWRITE.(OUT,F4)                                                                 *201 LM00251
                  THROUGH PML, FOR I=1,1,I.G.8                                                    *202 LM00252
                  DWRITE.(OUT,F4A,OCRBC.(MODBIT(I)),MODFIL(I),MODREC(I))                          *203 LM00253
      PML         CONTINUE                                                                        *204 LM00254
                                                                                                       LM00255
                  DWRITE.(OUT,HEAD)                                                               *205 LM00256
                  WHENEVER SYSFLG, DWRITE.(OUT,SYSHED)                                            *206 LM00257
                                                                                                       LM00258
                  DWRITE.(OUT,F5)                                                                 *207 LM00259
                                                                                                       LM00260
      HGMLP       DWRITE.(OUT,F5A)                                                                *208 LM00261
                  THROUGH BETA, FOR K = 0,1, K.G.90                                               *209 LM00262
                  FOLDER = 0                                                                      *210 LM00263
                  ROLDER = 0                                                                      *211 LM00264
                  DAY = NOW - K                                                                   *212 LM00265
                                                                                                       LM00266
                  THROUGH ALPHA, FOR J = K, 1, J.G. 90                                            *213 LM00267
                  FOLDER = FOLDER + FTBL(J)                                                       *214 LM00268
                  ROLDER = ROLDER + RTBL(J)                                                       *215 LM00269
                  VAR = ROLDER/SCALE                                                              *216 LM00270
      ALPHA       CONTINUE                                                                        *217 LM00271
                                                                                                       LM00272
                  WHENEVER DAY .E. MB1                                                            *218 LM00273
                       MRK = MO1                                                                  *219 LM00274
                  OR WHENEVER DAY .E. MB2                                                         *220 LM00275
                       MRK = MO2                                                                  *221 LM00276
                  OR WHENEVER DAY.MOD. 7 .E. 0                                                    *222 LM00277
                       MRK = $SUN$                                                                *223 LM00278
                  OTHERWISE                                                                       *224 LM00279
                       MRK = $$                                                                   *225 LM00280
                  END OF CONDITIONAL                                                              *226 LM00281
                                                                                                       LM00282
                  DWRITE.(OUT,F7,MRK,K,FTBL(K),FOLDER,RTBL(K),ROLDER,                             *227 LM00283
                1  XS(1)...XS(VAR))                                                               *227 LM00284
                                                                                                       LM00285
      BETA        CONTINUE                                                                        *228 LM00286
                                                                                                       LM00287
                  DWRITE.(OUT,F10,XS,SCALE)                                                       *229 LM00288
                  WHENEVER REF                                                                    *230 LM00289
                       REF = 0B                                                                   *231 LM00290
                       DWRITE.(OUT,HEAD)                                                          *232 LM00291
                       WHENEVER SYSFLG, DWRITE.(OUT,SYSHED)                                       *233 LM00292
                       DWRITE.(OUT,F6)                                                            *234 LM00293
                       MOVE.(91,CFTBL,FTBL)                                                       *235 LM00294
                       MOVE.(91,CRTBL,RTBL)                                                       *236 LM00295
                       TRANSFER TO HGMLP                                                          *237 LM00296
                  END OF CONDITIONAL                                                              *238 LM00297
                                                                                                       LM00298
                  DWRITE.(OUT,HEAD)                                                               *239 LM00299
                  WHENEVER SYSFLG, DWRITE.(OUT,SYSHED)                                            *240 LM00300
                                                                                                       LM00301
                  DWRITE.(OUT,F9)                                                                 *241 LM00302
                                                                                                       LM00303
                  THROUGH PRN, FOR I=0,1,I.G.MAX                                                  *242 LM00304
      PRN         DWRITE.(OUT,FM1,NAME1(I),NAME2(I),CLASS(I),COUNT(I),NRECS(I),                   *243 LM00305
                1 COUNTL(I))                                                                      *243 LM00306
                                                                                                       LM00307
                  DWRITE.(OUT,FM2)                                                                *244 LM00308
                  THROUGH PRC, FOR I=0,1,I.G.MXCLS                                                *245 LM00309
      PRC         DWRITE.(OUT,FM1,$$,CLNAME(I),I,CCOUNT(I),CNRECS(I),CCOUNL(I))                   *246 LM00310
                                                                                                       LM00311
                  FILE.(OUT)                                                                      *247 LM00312
                                                                                                       LM00313
                  FUNCTION RETURN                                                                 *248 LM00314
                                                                                                       LM00315
      ERR         NCOM.($PRNTER$,777777777777K)                                                   *249 LM00316
                                                                                                       LM00317
                                                                                                       LM00318
                  NORMAL MODE IS INTEGER                                                          *250 LM00319
                  FLOATING POINT X1, X2, X3, X4, X5, X6, X7, X8, X9, X10                          *251 LM00320
                  FLOATING POINT AGES2, TREC2, UFDF2, UFDR2, UFDL2                                *252 LM00321
                  FLOATING POINT SQRT.                                                            *253 LM00322
                  FLOATING POINT XTF, XNUFD, AGESUM                                               *254 LM00323
                  VECTOR VALUES REF = 1B                                                          *255 LM00324
                                                                                                       LM00325
                 ...CAPACITY OF DISK                                                                   LM00326
                  VECTOR VALUES CAPACY = 160 000                                                  *256 LM00327
                  VECTOR VALUES SCALE = 1600                                                      *257 LM00328
                  SCALE DETERMINES THE NUMBER OF FILES PER 'X' ON THE GRAPH                            LM00329
                                                                                                       LM00330
                  VECTOR VALUES DAYS = 31,31,28,31,30,31,30,31,31,30,31,30,31                     *258 LM00331
                  VECTOR VALUES MONNAM = $DEC$,$JAN$,$FEB$,$MAR$,$APR$,$MAY$,$JUN$,               *259 LM00332
                1  $JUL$,$AUG$,$SEP$,$OCT$,$NOV$,$DEC$                                            *259 LM00333
                  VECTOR VALUES DAYNAM = $SUN$,$MON$,$TUE$,$WED$,$THU$,$FRI$,$SAT$                *260 LM00334
                                                                                                       LM00335
                  VECTOR VALUES WHO...WHO(3) = 0                                                  *261 LM00336
                  VECTOR VALUES ME...ME(1) = 0                                                    *262 LM00337
                                                                                                       LM00338
                 ...MODE STATS                                                                         LM00339
                  VECTOR VALUES MODBIT = 0,1K,2K,4K,10K,20K,40K,100K,200K                         *263 LM00340
                  VECTOR VALUES MODFIL...MODFIL(8) = 0                                            *264 LM00341
                  VECTOR VALUES MODREC...MODREC(8) = 0                                            *265 LM00342
                                                                                                       LM00343
                 ...CLASS NAME STATS                                                                   LM00344
                  VECTOR VALUES COUNT...COUNT(150)=0                                              *266 LM00345
                  VECTOR VALUES NRECS...NRECS(150)=0                                              *267 LM00346
                  VECTOR VALUES CLASS...CLASS(150)=0                                              *268 LM00347
                  VECTOR VALUES COUNTL...COUNTL(150)=0                                            *269 LM00348
                  VECTOR VALUES NAME1...NAME1(150)=$OTHER$                                        *270 LM00349
                  VECTOR VALUES NAME2 ...NAME2 (150)=$FILES$                                      *271 LM00350
                  VECTOR VALUES MASK1 ...MASK1 (150)=777777777777K                                *272 LM00351
                  VECTOR VALUES MASK2 ...MASK2 (150) = 777777777777K                              *273 LM00352
                  VECTOR VALUES CCOUNL...CCOUNL(20)=0                                             *274 LM00353
                  VECTOR VALUES CCOUNT...CCOUNT(20)=0                                             *275 LM00354
                  VECTOR VALUES CNRECS...CNRECS(20)=0                                             *276 LM00355
                  VECTOR VALUES CLNAME...CLNAME(20)=$OTHER$                                       *277 LM00356
                  VECTOR VALUES MAX=1                                                             *278 LM00357
                  VECTOR VALUES MXCLS=0                                                           *279 LM00358
                                                                                                       LM00359
                 ...STORAGE FOR AGES                                                                   LM00360
                  VECTOR VALUES FTBL...FTBL(91) = 0                                               *280 LM00361
                  VECTOR VALUES RTBL...RTBL(91) = 0                                               *281 LM00362
                  VECTOR VALUES CFTBL...CFTBL(91) = 0                                             *282 LM00363
                  VECTOR VALUES CRTBL...CRTBL(91) = 0                                             *283 LM00364
                  VECTOR VALUES XS...XS(100) = $X$                                                *284 LM00365
                                                                                                       LM00366
                  DIMENSION B1(432),B2(432),B3(432)                                               *285 LM00367
                  DIMENSION CARD(13)                                                              *286 LM00368
                                                                                                       LM00369
                  VECTOR VALUES OUT=$  STAT  FILE$                                                *287 LM00370
                  VECTOR VALUES SEARCH=$SEARCH$                                                   *288 LM00371
                  VECTOR VALUES FL=$  FILE$                                                       *289 LM00372
                                                                                                       LM00373
                  VECTOR VALUES M1=77777K                                                         *290 LM00374
                  VECTOR VALUES M2=77776K                                                         *291 LM00375
                  VECTOR VALUES M3=77775K                                                         *292 LM00376
                  VECTOR VALUES M4=77774K                                                         *293 LM00377
                  VECTOR VALUES M5=77773K                                                         *294 LM00378
                                                                                                       LM00379
                 ...FORMAT STATEMENTS..................................                                LM00380
                                                                                                       LM00381
                  VECTOR VALUES HEAD=$H'1        M A S S A C H U S E T T S   I N S T I',          *295 LM00382
                1 H' T U T E   O F   T E C H N O L O G Y',/,/,                                    *295 LM00383
                2 11X,H'      I N F O R M A T I O N   P R O C E S S I N G ',                      *295 LM00384
                3 H'  C E N T E R'*$                                                              *295 LM00385
                                                                                                       LM00386
                  VECTOR VALUES SYSHED=$1H0,30X,H'(EXCLUDING SYSTEM FILES)'*$                     *296 LM00387
                                                                                                       LM00388
                  VECTOR VALUES F0 = $1H0,S8,H'SECONDARY STORAGE USAGE SUMMARY PREPARED'          *297 LM00389
                1 , S2,C6,S2,C3,2H, C3,I3,4H, 19,I2,H'   SYSTEM ',C6*$                            *297 LM00390
                                                                                                       LM00391
                  VECTOR VALUES F1= $1H0,S18,H'FILES   RECORDS',S27,H'MEAN   STD DEV.',/,         *298 LM00392
                1 1H0,S8,H'DISK ',I10,I10,S7,H'FILES/UFD      ',2F10.3,/,                         *298 LM00393
                2 1H0,S8,H'UFD  ',I10,S10,S7,H'RECS/UFD       ',2F10.3,/,                         *298 LM00394
                3 1H0,S8,H'LINKS',I10,S10,S7,H'LINKS/UFD      ',2F10.3,/,                         *298 LM00395
                4 1H0,S40,                   H'FILE LENGTH    ',2F10.3,/,                         *298 LM00396
                5 1H0,S40,                   H'FILE AGE (DAYS)',2F10.3*$                          *298 LM00397
                                                                                                       LM00398
                  VECTOR VALUES F3 = $1H-,S8,H'CAPACITY',I9,H', USED',I9,                         *299 LM00399
                1  H', LEFT',I9,H', WASTE',F7.3,H' PER CENT.'*$                                   *299 LM00400
                                                                                                       LM00401
                  VECTOR VALUES F4 = $1H-,S8,H'SUMMARY BY MODE BIT',//,S9,                        *300 LM00402
                1 H'MODE    FILES     RECS ',/*$                                                  *300 LM00403
                                                                                                       LM00404
                  VECTOR VALUES F4A = $S10,CR3,2I9*$                                              *301 LM00405
                                                                                                       LM00406
                  VECTOR VALUES F5 = $1H0,S8,H'SUMMARY BY DATE OF LAST REFERENCE TO FILE'         *302 LM00407
                1 *$                                                                              *302 LM00408
                                                                                                       LM00409
                  VECTOR VALUES F5A =                                                             *303 LM00410
                1 $H'0     AGE   FILES  OLDER  RECS   OLDER     LINEAR PLOT'                      *303 LM00411
                2 ,//*$                                                                           *303 LM00412
                                                                                                       LM00413
                  VECTOR VALUES F6 = $1H0,S8,H'SUMMARY BY DATE OF CREATION OF FILE'*$             *304 LM00414
                                                                                                       LM00415
                  VECTOR VALUES F7 = $1H ,C5,I3,S1,4I7,S2,100C1*$                                 *305 LM00416
                                                                                                       LM00417
                  VECTOR VALUES F9 = $H'0 DISK USAGE BY CLASS NAME',//,                           *306 LM00418
                1 H'0      NAME1  NAME2  TYPE  FILES  RECORDS  LINKS',/*$                         *306 LM00419
                                                                                                       LM00420
                  VECTOR VALUES F10 = $/,/,/,/15H  SCALE - ONE ',C1,4H' = ,I4,                    *307 LM00421
                1  H' RECORDS.'*$                                                                 *307 LM00422
                                                                                                       LM00423
                  VECTOR VALUES FM1=$S6,C6,S1,C6,S3,I2,3I8*$                                      *308 LM00424
                                                                                                       LM00425
                  VECTOR VALUES FM2=$H'- USAGE BY TYPE            FILES  RECORDS  LINKS'          *309 LM00426
                1 ,/*$                                                                            *309 LM00427
                                                                                                       LM00428
                  END OF FUNCTION                                                                 *310 LM00429
                                       MODE STRUCTURE 1 .MOD. 1 TO 1          004  LM00002
 (THE NUMERIC FORM OF THE OPERATOR-MODE ARGUMENT IS    11111 )
                                         MODE STRUCTURE 1 .XOR. 1 TO 1        028  LM00002
 (THE NUMERIC FORM OF THE OPERATOR-MODE ARGUMENT IS    11211 )
1MAD PROGRAM,TYPE NOV 1963      (ALL NUMBERS ARE OCTAL)
0TOTAL LOCATIONS   10607 TRANSFER VECTOR LENGTH  00031 PROGRAM BEGINS    06653
0 PROGRAM IS AN EXTERNAL FUNCTION.   THE FOLLOWING ARE ENTRIES
      FPRINT 07667   0        COUNTR 07120   0        FINIT  06654   0
0VARIABLE STORAGE (A=ARRAY,C=COMMON,E=ERASABLE,DIGIT=MODE)
      AGE    00043   1        EOF    00035   4        M1     04553 A 1        NAME2  06001 A 1        TR     06414   1
      AGES2  00044   0        ERR    00036   4        M2     04554 A 1        NOW    06002   1        TRSIZE 06415   1
      AGESUM 00045   0        F0     04100 A 1        M3     04555 A 1        NRECS  06231 A 1        TSUFDF 06416   1
      ALPHA  00032   4        F10    04113 A 1        M4     04556 A 1        NUFD   06232   1        TSUFDL 06417   1
      B1     00726 A 1        F1     04206 A 1        M5     04557 A 1        OLPROB 06233   1        TSUFDR 06420   1
      B2     01607 A 1        F3     04226 A 1        MASK1  05006 A 1        OLPROG 06234   1        TYPE   00042   4
      B3     02470 A 1        F4A    04230 A 1        MASK2  05235 A 1        OUT    06236 A 1        UFDF2  06421   0
      BETA   00032   4        F4     04246 A 1        MAX    05236 A 1        PML    00032   4        UFDL2  06422   0
      CAPACY 02471 A 1        F5A    04261 A 1        MB1    05237   1        PRC    00032   4        UFDR2  06423   0
      CARD   02507 A 1        F5     04272 A 1        MB2    05240   1        PRN    00032   4        VAR    06424   1
      CCOUNL 02534 A 1        F6     04302 A 1        ME     05242 A 1        READ   00040   4        WHO    06430 A 1
      CCOUNT 02561 A 1        F7     04307 A 1        MO1    05243   1        REF    06237 A 2        X10    06431   0
      CFTBL  02715 A 1        F9     04331 A 1        MO2    05244   1        ROLDER 06240   1        X1     06432   0
      CLASS  03144 A 1        FL     04332 A 1        MODBIT 05255 A 1        RSIZE  06241   1        X2     06433   0
      CLNAME 03171 A 1        FM1    04336 A 1        MODE   05256   1        RTBL   06375 A 1        X3     06434   0
      CNAME  00033   4        FM2    04350 A 1        MODFIL 05267 A 1        SCALE  06376 A 1        X4     06435   0
      CNRECS 03216 A 1        FOLDER 04351   1        MODLP  00032   4        SCLS   00032   4        X5     06436   0
      COUNTL 03445 A 1        F      04352   1        MODREC 05300 A 1        SEARCH 06377 A 1        X6     06437   0
      COUNT  03674 A 1        FTBL   04506 A 1        MONNAM 05315 A 1        SET    00041   4        X7     06440   0
      CRTBL  04030 A 1        HEAD   04546 A 1        MONTH  05316   1        SIZE   06400   1        X8     06441   0
      DA     04031   1        HGMLP  00037   4        MO     05317   1        SYSFLG 06401 A 2        X9     06442   0
      DATE   04032   1        I      04547   1        MRK    05320   1        SYSHED 06407 A 1        XNUFD  06443   0
      DAYNAM 04041 A 1        J      04550   1        MXCLS  05321 A 1        TEMP   06410   1        XS     06610 A 1
      DAY    04042   1        K      04551   1        N1     05322   1        TF     06411   1        XTF    06611   0
      DAYS   04057 A 1        LINKS  04552   1        N2     05323   1        TIME   06412   1        YEAR   06612   1
      DOAGE  00034   4        LOOP   00032   4        NAME1  05552 A 1        TREC2  06413   0        YR     06613   1
0FUNCTION DICTIONARY
      ABSDAT 00000   1        ASSIGN 00001   1        ATTACH 00002   1        ATTNAM 00003   1        BCDEC  00004   1
      BFCLOS 00005   1        BFOPEN 00006   1        BFREAD 00007   1        COMARG 00010   1        DELETE 00011   1
      DWRITE 00012   1        EXIT   00013   1        FERRTN 00014   1        FILE   00015   1        GETIM  00016   1
      GETTM  00017   1        IOHSIZ 00020   1        MOVE   00021   1        NAMASK 00022   1        NCOM   00023   1
      OCRBC  00024   1        RJUST  00025   1        SNAP   00026   1        SQRT   00027   0        WHOAMI 00030   1
      NEWUFD 00031   1
0ABSOLUTE CONSTANTS
 06652 -377777777777     06643 -075145632551     06635 +000000000133     06650 -226445606060     06641 +207620000000
 06634 +000000000132     06633 +000000000037     06620 +000000000005     06623 +000000000011     06622 +000000000010
 06632 +000000000034     06630 +000000000022     06621 +000000000007     06627 +000000000017     06645 -204401040106
 06637 +002300000000     06640 +007700000000     06651 -342631432534     06624 +000000000012     06625 +000000000014
 06631 +000000000030     06636 +000000007777     06646 -206060606060     06626 +000000000016     06644 -116060606060
 06614 +000000000000     06616 +000000000002     06617 +000000000004     06647 -207462706234     06615 +000000000001
 06642 +233000000000
0STATEMENT DICTIONARY
 00033 TXL -307412007400       00034 TXL -307523007515       00035 TXL -307027007024       00036 TXL -310551010546
 00037 TXL -310221010216       00040 TXL -306725006714       00041 TXL -307020007015       00042 TXL -307434007431
0PROGRAM
                 EXTERNAL FUNCTION(PROBN,PROGN,BUFF)                                001  LM00010
                 I'E .MOD.                                                          002  LM00013
                     DEFINE BINARY OPERATOR .MOD., PRECEDENCE SAME AS /             003  LM00001
                     MODE STRUCTURE 1 .MOD. 1 TO 1                                  004  LM00002
                 I'E .XOR.                                                          026  LM00014
                 DEFINE BINARY OPERATOR .XOR., PRECEDENCE SAME AS .A.               027  LM00001
                 MODE STRUCTURE 1 .XOR. 1 TO 1                                      028  LM00002
                 E'O FINIT.                                                         051  LM00023
 06653 TRA +0 02000 0 06656    06654 SXA +0 63400 2 10552    06655 TSX +0 07400 2 10552
                 W'R COMARG.(1).E.$ (SYS)$, SYSFLG = 1B                             052  LM00026
 06656 TSX +0 07400 4 00010    06657 TXH +3 00000 0 06615    06660 SUB +0 40200 0 06647    06661 TNZ -0 10000 0 06664
 06662 CLA +0 50000 0 06615    06663 STO +0 60100 0 06401
                 BOOLEAN SYSFLG                                                     053  LM00027
                 V'S SYSFLG = 0B                                                    054  LM00028
 06401     +0 00000 0 00000
                 GETTM.(DATE,TIME)                                                  055  LM00030
 06664 TSX +0 07400 4 00017    06665 TXH +3 00000 0 04032    06666 TXH +3 00000 0 06412
                 GETIM.(TEMP,DATE)                                                  056  LM00031
 06667 TSX +0 07400 4 00016    06670 TXH +3 00000 0 06410    06671 TXH +3 00000 0 04032
                 WHOAMI.(WHO(3)...4)                                                057  LM00032
 06672 TSX +0 07400 4 00030    06673 TIX +2 06617 0 06425
                 ATTNAM.(ME(1)...2)                                                 058  LM00033
 06674 TSX +0 07400 4 00003    06675 TIX +2 06616 0 05241
                 FERRTN.(ERR)                                                       059  LM00034
 06676 TSX +0 07400 4 00014    06677 TXH +3 00000 0 00036
                 IOHSIZ.(1)                                                         060  LM00035
 06700 TSX +0 07400 4 00020    06701 TXH +3 00000 0 06615
                 BFOPEN.($R$,SEARCH,FL,B1(432),B2(432),-0,ERR)                      061  LM00037
 06702 CLS +0 50200 0 06614    06703 STO +0 60100 0 10603    06704 TSX +0 07400 4 00006    06705 TXH +3 00000 0 06644
 06706 TXH +3 00000 0 06377    06707 TXH +3 00000 0 04332    06710 TXH +3 00000 0 00046    06711 TXH +3 00000 0 00727
 06712 TXH +3 00000 0 10603    06713 TXH +3 00000 0 00036
      READ       BFREAD.(SEARCH,FL,CARD(13)...14,EOF,-0,ERR)                        062  LM00039
 06714 CLS +0 50200 0 06614    06715 STO +0 60100 0 10603    06716 TSX +0 07400 4 00007    06717 TXH +3 00000 0 06377
 06720 TXH +3 00000 0 04332    06721 TIX +2 06626 0 02472    06722 TXH +3 00000 0 00035    06723 TXH +3 00000 0 10603
 06724 TXH +3 00000 0 00036
                 NAME1(MAX)=RJUST.(CARD(13))                                        063  LM00040
 06725 TSX +0 07400 4 00025    06726 TXH +3 00000 0 02472    06727 LXA +0 53400 1 05236    06730 STO +0 60100 1 05552
                 NAME2(MAX)=RJUST.(CARD(12))                                        064  LM00041
 06731 TSX +0 07400 4 00025    06732 TXH +3 00000 0 02473    06733 LXA +0 53400 1 05236    06734 STO +0 60100 1 06001
                 MASK1(MAX) = NAMASK.(NAME1(MAX))                                   065  LM00042
 06735 CLA +0 50000 0 05236    06736 SUB +0 40200 0 06737    06737 TXH +3 00000 0 05552    06740 STA +0 62100 0 06742
 06741 TSX +0 07400 4 00022    06742 TXH +3 00000 0 00000    06743 LXA +0 53400 1 05236    06744 STO +0 60100 1 05006
                 MASK2(MAX) = NAMASK.(NAME2(MAX))                                   066  LM00043
 06745 CLA +0 50000 0 05236    06746 SUB +0 40200 0 06747    06747 TXH +3 00000 0 06001    06750 STA +0 62100 0 06752
 06751 TSX +0 07400 4 00022    06752 TXH +3 00000 0 00000    06753 LXA +0 53400 1 05236    06754 STO +0 60100 1 05235
                 TEMP=RJUST.(CARD(11))                                              067  LM00044
 06755 TSX +0 07400 4 00025    06756 TXH +3 00000 0 02474    06757 STO +0 60100 0 06410
                 W'R TEMP .E. $$                                                    068  LM00045
 06760 CLA +0 50000 0 06410    06761 SUB +0 40200 0 06646    06762 TNZ -0 10000 0 06767
                      CLASS(MAX)=0                                                  069  LM00046
 06763 LXA +0 53400 1 05236    06764 CLA +0 50000 0 06614    06765 STO +0 60100 1 03144
                 O'E                                                                070  LM00048
 06766 TRA +0 02000 0 07020
                      T'H SCLS, FOR I=0,1,I.G.MXCLS                                 071  LM00049
 06767 CLA +0 50000 0 06614    06770 STO +0 60100 0 04547    06771 TRA +0 02000 0 06775    06772 CLA +0 50000 0 04547
 06773 ADD +0 40000 0 06615    06774 STO +0 60100 0 04547    06775 CLA +0 50000 0 04547    06776 SUB +0 40200 0 05321
 06777 TZE +0 10000 0 07001    07000 TPL +0 12000 0 07007
                      W'R TEMP .E. CLNAME(I), T'O SET                               072  LM00050
 07001 LXA +0 53400 2 04547    07002 CLA +0 50000 0 06410    07003 SUB +0 40200 2 03171    07004 TNZ -0 10000 0 07006
 07005 TRA +0 02000 0 00041
      SCLS            C'E                                                           073  LM00051
 07006 TRA +0 02000 0 06772
                      MXCLS=MXCLS+1                                                 074  LM00053
 07007 CLA +0 50000 0 05321    07010 ADD +0 40000 0 06615    07011 STO +0 60100 0 05321
                      CLNAME(MXCLS)=TEMP                                            075  LM00054
 07012 LXA +0 53400 1 05321    07013 CLA +0 50000 0 06410    07014 STO +0 60100 1 03171
      SET             CLASS(MAX)=I                                                  076  LM00055
 07015 LXA +0 53400 1 05236    07016 CLA +0 50000 0 04547    07017 STO +0 60100 1 03144
                 E'L                                                                077  LM00056
                 MAX=MAX+1                                                          078  LM00057
 07020 CLA +0 50000 0 05236    07021 ADD +0 40000 0 06615    07022 STO +0 60100 0 05236
                 T'O READ                                                           079  LM00058
 07023 TRA +0 02000 0 00040
      EOF        BFCLOS.(SEARCH,FL)                                                 080  LM00060
 07024 TSX +0 07400 4 00005    07025 TXH +3 00000 0 06377    07026 TXH +3 00000 0 04332
                 MAX=MAX-1                                                          081  LM00061
 07027 CLA +0 50000 0 05236    07030 SUB +0 40200 0 06615    07031 STO +0 60100 0 05236
                 YR = BCDEC.(DATE.A.7777K)                                          082  LM00063
 07032 CAL -0 50000 0 04032    07033 ANA -0 32000 0 06636    07034 SLW +0 60200 0 10603    07035 TSX +0 07400 4 00004
 07036 TXH +3 00000 0 10603    07037 STO +0 60100 0 06613
                 MO = BCDEC.((DATE.RS.24).A.7777K)                                  083  LM00064
 07040 CAL -0 50000 0 06631    07041 STA +0 62100 0 07043    07042 CAL -0 50000 0 04032    07043 LGR -0 76500 0 00000
 07044 ANA -0 32000 0 06636    07045 SLW +0 60200 0 10603    07046 TSX +0 07400 4 00004    07047 TXH +3 00000 0 10603
 07050 STO +0 60100 0 05317
                 DA = BCDEC.((DATE.RS.12).A.7777K)                                  084  LM00065
 07051 CAL -0 50000 0 06625    07052 STA +0 62100 0 07054    07053 CAL -0 50000 0 04032    07054 LGR -0 76500 0 00000
 07055 ANA -0 32000 0 06636    07056 SLW +0 60200 0 10603    07057 TSX +0 07400 4 00004    07060 TXH +3 00000 0 10603
 07061 STO +0 60100 0 04031
                 NOW = ABSDAT.(MO, DA, YR)                                          085  LM00066
 07062 TSX +0 07400 4 00000    07063 TXH +3 00000 0 05317    07064 TXH +3 00000 0 04031    07065 TXH +3 00000 0 06613
 07066 STO +0 60100 0 06002
                 MB1 = NOW - DA                                                     086  LM00069
 07067 CLA +0 50000 0 06002    07070 SUB +0 40200 0 04031    07071 STO +0 60100 0 05237
                 MB2 = MB1 - DAYS(MO-1)                                             087  LM00070
 07072 CLA +0 50000 0 05317    07073 SUB +0 40200 0 06615    07074 PAX +0 73400 2 00000    07075 CLA +0 50000 0 05237
 07076 SUB +0 40200 2 04057    07077 STO +0 60100 0 05240
                 MO1 = MONNAM(MO-1)                                                 088  LM00071
 07100 CLA +0 50000 0 05317    07101 SUB +0 40200 0 06615    07102 PAX +0 73400 2 00000    07103 CLA +0 50000 2 05315
 07104 STO +0 60100 0 05243
                 MO2 = MONNAM((MO+10).MOD.12)                                       089  LM00072
 07105 CLA +0 50000 0 05317    07106 ADD +0 40000 0 06624    07107 XCA +0 13100 0 00000    07110 PXD -0 75400 0 00000
 07111 LLS +0 76300 0 00000    07112 DVP +0 22100 0 06625    07113 PAX +0 73400 2 00000    07114 CLA +0 50000 2 05315
 07115 STO +0 60100 0 05244
                 F'N                                                                090  LM00075
 07116 TRA +0 02000 0 10577
                 E'O COUNTR.                                                        091  LM00095
 07117 TRA +0 02000 0 07122    07120 SXA +0 63400 2 10552    07121 TSX +0 07400 2 10552
                 W'R PROGN  .E. $(FILE)$, F'N                                       092  LM00098
 07122 CLA +0 50000 0 00024    07123 SUB +0 40200 0 06651    07124 TNZ -0 10000 0 07126    07125 TRA +0 02000 0 10577
                 W'R SYSFLG                                                         093  LM00099
 07126 NZT -0 52000 0 06401    07127 TRA +0 02000 0 07142
                    W'R PROBN.E.$ M1416$.OR.PROBN.A.77K8.E.$0C0000$,F'N             094  LM00100
 07130 CAL -0 50000 0 00024    07131 ANA -0 32000 0 06640    07132 SLW +0 60200 0 10603    07133 CLA +0 50000 0 10603
 07134 SUB +0 40200 0 06637    07135 TZE +0 10000 0 07141    07136 CLA +0 50000 0 00024    07137 SUB +0 40200 0 06645
 07140 TNZ -0 10000 0 07142    07141 TRA +0 02000 0 10577
                 E'L                                                                095  LM00101
                 N2=BUFF(M1)                                                        096  LM00103
 07142 LXA +0 53400 2 04553    07143 CLA +0 50000 2 00024    07144 STO +0 60100 0 05323
                 N1=BUFF                                                            097  LM00104
 07145 CLA +0 50000 0 00024    07146 STO +0 60100 0 05322
                 F=(BUFF(M4).RS.15).A.7K                                            098  LM00106
 07147 LXA +0 53400 1 04556    07150 CAL -0 50000 0 06627    07151 STA +0 62100 0 07153    07152 CAL -0 50000 1 00024
 07153 LGR -0 76500 0 00000    07154 ANA -0 32000 0 06621    07155 SLW +0 60200 0 04352
                 SIZE=(BUFF(M5).RS.18).A.M1                                         099  LM00108
 07156 LXA +0 53400 1 04557    07157 CAL -0 50000 0 06630    07160 STA +0 62100 0 07162    07161 CAL -0 50000 1 00024
 07162 LGR -0 76500 0 00000    07163 ANA -0 32000 0 04553    07164 SLW +0 60200 0 06400
                 W'R F .NE. 2, SIZE=0                                               100  LM00109
 07165 CLA +0 50000 0 04352    07166 SUB +0 40200 0 06616    07167 TZE +0 10000 0 07172    07170 CLA +0 50000 0 06614
 07171 STO +0 60100 0 06400
                 W'R PROBN .NE. OLPROB .OR. PROGN .NE. OLPROG                       101  LM00111
 07172 CLA +0 50000 0 00024    07173 SUB +0 40200 0 06234    07174 TNZ -0 10000 0 07200    07175 CLA +0 50000 0 00024
 07176 SUB +0 40200 0 06233    07177 TZE +0 10000 0 07261
                      INTERNAL FUNCTION                                             102  LM00113
 07200 TRA +0 02000 0 07260
                      E'O NEWUFD.                                                   103  LM00114
 07201 TRA +0 02000 0 07204    00031 TTR +0 02100 0 07202    07202 SXA +0 63400 2 07250    07203 TSX +0 07400 2 07250
                      NUFD = NUFD + 1                                               104  LM00115
 07204 CLA +0 50000 0 06232    07205 ADD +0 40000 0 06615    07206 STO +0 60100 0 06232
                      UFDF2 = UFDF2+TSUFDF*TSUFDF                                   105  LM00116
 07207 LDQ +0 56000 0 06416    07210 MPY +0 20000 0 06416    07211 XCA +0 13100 0 00000    07212 ORA -0 50100 0 06642
 07213 FAD +0 30000 0 06642    07214 FAD +0 30000 0 06421    07215 STO +0 60100 0 06421
                      UFDL2 = UFDL2+TSUFDL*TSUFDL                                   106  LM00117
 07216 LDQ +0 56000 0 06417    07217 MPY +0 20000 0 06417    07220 XCA +0 13100 0 00000    07221 ORA -0 50100 0 06642
 07222 FAD +0 30000 0 06642    07223 FAD +0 30000 0 06422    07224 STO +0 60100 0 06422
                      UFDR2 = UFDR2+TSUFDR*TSUFDR                                   107  LM00118
 07225 LDQ +0 56000 0 06420    07226 MPY +0 20000 0 06420    07227 XCA +0 13100 0 00000    07230 ORA -0 50100 0 06642
 07231 FAD +0 30000 0 06642    07232 FAD +0 30000 0 06423    07233 STO +0 60100 0 06423
                      TSUFDF = 0                                                    108  LM00119
 07234 CLA +0 50000 0 06614    07235 STO +0 60100 0 06416
                      TSUFDL = 0                                                    109  LM00120
 07236 CLA +0 50000 0 06614    07237 STO +0 60100 0 06417
                      TSUFDR = 0                                                    110  LM00121
 07240 CLA +0 50000 0 06614    07241 STO +0 60100 0 06420
                      OLPROB = PROBN                                                111  LM00122
 07242 CLA +0 50000 0 00024    07243 STO +0 60100 0 06233
                      OLPROG = PROGN                                                112  LM00123
 07244 CLA +0 50000 0 00024    07245 STO +0 60100 0 06234
                      F'N                                                           113  LM00124
 07246 TRA +0 02000 0 07254
                      E'N                                                           114  LM00125
 07247 TSX +0 07400 4 00013    07250 TXH +3 00000 0 00000    07251 SXD -0 63400 1 07250    07252 SXA +0 63400 4 07254
 07253 TRA +0 02000 2 00001    07254 AXT +0 77400 4 00000    07255 LXA +0 53400 2 07250    07256 LXD -0 53400 1 07250
 07257 TRA +0 02000 4 00001
                      NEWUFD.                                                       115  LM00126
 07260 TSX +0 07400 4 00031
                 E'L                                                                116  LM00127
                 W'R F .E.0                                                         117  LM00130
 07261 CLA +0 50000 0 04352    07262 SUB +0 40200 0 06614    07263 TNZ -0 10000 0 07274
                      LINKS = LINKS + 1                                             118  LM00132
 07264 CLA +0 50000 0 04552    07265 ADD +0 40000 0 06615    07266 STO +0 60100 0 04552
                      TSUFDL = TSUFDL + 1                                           119  LM00133
 07267 CLA +0 50000 0 06417    07270 ADD +0 40000 0 06615    07271 STO +0 60100 0 06417
                      T'O CNAME                                                     120  LM00134
 07272 TRA +0 02000 0 00033
                 O'R F .E. 2                                                        121  LM00135
 07273 TRA +0 02000 0 07316    07274 CLA +0 50000 0 04352    07275 SUB +0 40200 0 06616    07276 TNZ -0 10000 0 07316
                      W'R SIZE .A. 1K .E. 1K                                        122  LM00137
 07277 CAL -0 50000 0 06400    07300 ANA -0 32000 0 06615    07301 SLW +0 60200 0 10603    07302 CLA +0 50000 0 10603
 07303 SUB +0 40200 0 06615    07304 TNZ -0 10000 0 07311
                           RSIZE = SIZE + 1                                         123  LM00138
 07305 CLA +0 50000 0 06400    07306 ADD +0 40000 0 06615    07307 STO +0 60100 0 06241
                      O'E                                                           124  LM00139
 07310 TRA +0 02000 0 07313
                           RSIZE = SIZE                                             125  LM00140
 07311 CLA +0 50000 0 06400    07312 STO +0 60100 0 06241
                      E'L                                                           126  LM00141
                      TRSIZE = TRSIZE + RSIZE                                       127  LM00143
 07313 CLA +0 50000 0 06415    07314 ADD +0 40000 0 06241    07315 STO +0 60100 0 06415
                 E'L                                                                128  LM00144
                 TSUFDR = TSUFDR + SIZE                                             129  LM00149
 07316 CLA +0 50000 0 06420    07317 ADD +0 40000 0 06400    07320 STO +0 60100 0 06420
                 TSUFDF = TSUFDF + 1                                                130  LM00150
 07321 CLA +0 50000 0 06416    07322 ADD +0 40000 0 06615    07323 STO +0 60100 0 06416
                 TR = TR + SIZE                                                     131  LM00151
 07324 CLA +0 50000 0 06414    07325 ADD +0 40000 0 06400    07326 STO +0 60100 0 06414
                 TF = TF + 1                                                        132  LM00152
 07327 CLA +0 50000 0 06411    07330 ADD +0 40000 0 06615    07331 STO +0 60100 0 06411
                 TREC2  = TREC2  + SIZE * SIZE                                      133  LM00153
 07332 LDQ +0 56000 0 06400    07333 MPY +0 20000 0 06400    07334 XCA +0 13100 0 00000    07335 ORA -0 50100 0 06642
 07336 FAD +0 30000 0 06642    07337 FAD +0 30000 0 06413    07340 STO +0 60100 0 06413
                 MODE = BUFF(M4) .RS. 28                                            134  LM00156
 07341 LXA +0 53400 1 04556    07342 CAL -0 50000 0 06632    07343 STA +0 62100 0 07345    07344 CAL -0 50000 1 00024
 07345 LGR -0 76500 0 00000    07346 SLW +0 60200 0 05256
                 T'H MODLP, FOR I = 1,1,I.G.8                                       135  LM00157
 07347 CLA +0 50000 0 06615    07350 STO +0 60100 0 04547    07351 TRA +0 02000 0 07355    07352 CLA +0 50000 0 04547
 07353 ADD +0 40000 0 06615    07354 STO +0 60100 0 04547    07355 CLA +0 50000 0 04547    07356 SUB +0 40200 0 06622
 07357 TZE +0 10000 0 07361    07360 TPL +0 12000 0 07400
                 W'R MODE.A.MODBIT(I) .NE. 0                                        136  LM00158
 07361 LXA +0 53400 2 04547    07362 CAL -0 50000 0 05256    07363 ANA -0 32000 2 05255    07364 SLW +0 60200 0 10603
 07365 CLA +0 50000 0 10603    07366 SUB +0 40200 0 06614    07367 TZE +0 10000 0 07377
                      MODFIL(I) = MODFIL(I) + 1                                     137  LM00159
 07370 LXA +0 53400 1 04547    07371 CLA +0 50000 1 05267    07372 ADD +0 40000 0 06615    07373 STO +0 60100 1 05267
                      MODREC(I) = MODREC(I) + SIZE                                  138  LM00160
 07374 CLA +0 50000 1 05300    07375 ADD +0 40000 0 06400    07376 STO +0 60100 1 05300
                 E'L                                                                139  LM00161
      MODLP      C'E                                                                140  LM00162
 07377 TRA +0 02000 0 07352
      CNAME      T'H LOOP, FOR I=1,1,I.G.MAX                                        141  LM00166
 07400 CLA +0 50000 0 06615    07401 STO +0 60100 0 04547    07402 TRA +0 02000 0 07406    07403 CLA +0 50000 0 04547
 07404 ADD +0 40000 0 06615    07405 STO +0 60100 0 04547    07406 CLA +0 50000 0 04547    07407 SUB +0 40200 0 05236
 07410 TZE +0 10000 0 07412    07411 TPL +0 12000 0 07512
                 W'R  (N1.XOR.NAME1(I)).A.MASK1(I) .E. 0                            142  LM00167
                1.AND.(N2.XOR.NAME2(I)).A.MASK2(I) .E. 0                            142  LM00168
 07412 LXA +0 53400 2 04547    07413 CAL -0 50000 0 05323    07414 ERA +0 32200 2 06001    07415 ANA -0 32000 2 05235
 07416 SLW +0 60200 0 10603    07417 CLA +0 50000 0 10603    07420 SUB +0 40200 0 06614    07421 TNZ -0 10000 0 07511
 07422 CAL -0 50000 0 05322    07423 ERA +0 32200 2 05552    07424 ANA -0 32000 2 05006    07425 SLW +0 60200 0 10603
 07426 CLA +0 50000 0 10603    07427 SUB +0 40200 0 06614    07430 TNZ -0 10000 0 07511
      TYPE            W'R F .NE. 0                                                  143  LM00169
 07431 CLA +0 50000 0 04352    07432 SUB +0 40200 0 06614    07433 TZE +0 10000 0 07472
                           COUNT(I)=COUNT(I)+1                                      144  LM00170
 07434 LXA +0 53400 1 04547    07435 CLA +0 50000 1 03674    07436 ADD +0 40000 0 06615    07437 STO +0 60100 1 03674
                           NRECS(I)=NRECS(I)+SIZE                                   145  LM00171
 07440 CLA +0 50000 1 06231    07441 ADD +0 40000 0 06400    07442 STO +0 60100 1 06231
                           CCOUNT(CLASS(I))=CCOUNT(CLASS(I))+1                      146  LM00172
 07443 CLA +0 50000 1 03144    07444 PAX +0 73400 1 00000    07445 CLA +0 50000 1 02561    07446 ADD +0 40000 0 06615
 07447 STO +0 60100 0 10603    07450 LXA +0 53400 1 04547    07451 CLA +0 50000 1 03144    07452 PAX +0 73400 1 00000
 07453 CLA +0 50000 0 10603    07454 STO +0 60100 1 02561
                           CNRECS(CLASS(I))=CNRECS(CLASS(I))+SIZE                   147  LM00173
 07455 LXA +0 53400 1 04547    07456 CLA +0 50000 1 03144    07457 PAX +0 73400 1 00000    07460 CLA +0 50000 1 03216
 07461 ADD +0 40000 0 06400    07462 STO +0 60100 0 10603    07463 LXA +0 53400 1 04547    07464 CLA +0 50000 1 03144
 07465 PAX +0 73400 1 00000    07466 CLA +0 50000 0 10603    07467 STO +0 60100 1 03216
                           T'O DOAGE                                                148  LM00174
 07470 TRA +0 02000 0 00034
                      O'E                                                           149  LM00175
 07471 TRA +0 02000 0 07511
                           COUNTL(I) = COUNTL(I) + 1                                150  LM00176
 07472 LXA +0 53400 1 04547    07473 CLA +0 50000 1 03445    07474 ADD +0 40000 0 06615    07475 STO +0 60100 1 03445
                           CCOUNL(CLASS(I)) = CCOUNL(CLASS(I)) + 1                  151  LM00177
 07476 CLA +0 50000 1 03144    07477 PAX +0 73400 1 00000    07500 CLA +0 50000 1 02534    07501 ADD +0 40000 0 06615
 07502 STO +0 60100 0 10603    07503 LXA +0 53400 1 04547    07504 CLA +0 50000 1 03144    07505 PAX +0 73400 1 00000
 07506 CLA +0 50000 0 10603    07507 STO +0 60100 1 02534
                           F'N                                                      152  LM00178
 07510 TRA +0 02000 0 10577
                      E'L                                                           153  LM00180
                 E'L                                                                154  LM00181
      LOOP       C'E                                                                155  LM00182
 07511 TRA +0 02000 0 07403
                 I=0                                                                156  LM00184
 07512 CLA +0 50000 0 06614    07513 STO +0 60100 0 04547
                 T'O TYPE                                                           157  LM00185
 07514 TRA +0 02000 0 00042
      DOAGE      TEMP = BUFF(M3) .RS. 18                                            158  LM00188
 07515 LXA +0 53400 1 04555    07516 CAL -0 50000 0 06630    07517 STA +0 62100 0 07521    07520 CAL -0 50000 1 00024
 07521 LGR -0 76500 0 00000    07522 SLW +0 60200 0 06410
                 YEAR = TEMP.RS.9                                                   159  LM00189
 07523 CAL -0 50000 0 06623    07524 STA +0 62100 0 07526    07525 CAL -0 50000 0 06410    07526 LGR -0 76500 0 00000
 07527 SLW +0 60200 0 06612
                 MONTH= (TEMP.RS.5).A.17K                                           160  LM00190
 07530 CAL -0 50000 0 06620    07531 STA +0 62100 0 07533    07532 CAL -0 50000 0 06410    07533 LGR -0 76500 0 00000
 07534 ANA -0 32000 0 06627    07535 SLW +0 60200 0 05316
                 DAY  = TEMP.A.37K                                                  161  LM00191
 07536 CAL -0 50000 0 06410    07537 ANA -0 32000 0 06633    07540 SLW +0 60200 0 04042
                 AGE  = NOW - ABSDAT.(MONTH,DAY,YEAR)                               162  LM00192
 07541 TSX +0 07400 4 00000    07542 TXH +3 00000 0 05316    07543 TXH +3 00000 0 04042    07544 TXH +3 00000 0 06612
 07545 CHS +0 76000 0 00002    07546 ADD +0 40000 0 06002    07547 STO +0 60100 0 00043
                 W'R AGE.G.90, AGE = 90                                             163  LM00194
 07550 CLA +0 50000 0 00043    07551 SUB +0 40200 0 06634    07552 TZE +0 10000 0 07556    07553 TMI -0 12000 0 07556
 07554 CLA +0 50000 0 06634    07555 STO +0 60100 0 00043
                 W'R AGE.L.0, AGE = 0                                               164  LM00195
 07556 CLA +0 50000 0 00043    07557 SUB +0 40200 0 06614    07560 TZE +0 10000 0 07564    07561 TPL +0 12000 0 07564
 07562 CLA +0 50000 0 06614    07563 STO +0 60100 0 00043
                 FTBL(AGE) = FTBL(AGE)+1                                            165  LM00196
 07564 LXA +0 53400 1 00043    07565 CLA +0 50000 1 04506    07566 ADD +0 40000 0 06615    07567 STO +0 60100 1 04506
                 RTBL(AGE) = RTBL(AGE)+SIZE                                         166  LM00197
 07570 CLA +0 50000 1 06375    07571 ADD +0 40000 0 06400    07572 STO +0 60100 1 06375
                 TEMP = BUFF(M2) .RS. 18                                            167  LM00200
 07573 LXA +0 53400 1 04554    07574 CAL -0 50000 0 06630    07575 STA +0 62100 0 07577    07576 CAL -0 50000 1 00024
 07577 LGR -0 76500 0 00000    07600 SLW +0 60200 0 06410
                 YEAR = TEMP .RS. 9                                                 168  LM00201
 07601 CAL -0 50000 0 06623    07602 STA +0 62100 0 07604    07603 CAL -0 50000 0 06410    07604 LGR -0 76500 0 00000
 07605 SLW +0 60200 0 06612
                 MONTH = (TEMP.RS.5) .A. 17K                                        169  LM00202
 07606 CAL -0 50000 0 06620    07607 STA +0 62100 0 07611    07610 CAL -0 50000 0 06410    07611 LGR -0 76500 0 00000
 07612 ANA -0 32000 0 06627    07613 SLW +0 60200 0 05316
                 DAY = TEMP .A.37K                                                  170  LM00203
 07614 CAL -0 50000 0 06410    07615 ANA -0 32000 0 06633    07616 SLW +0 60200 0 04042
                 AGE = NOW - ABSDAT.(MONTH,DAY,YEAR)                                171  LM00204
 07617 TSX +0 07400 4 00000    07620 TXH +3 00000 0 05316    07621 TXH +3 00000 0 04042    07622 TXH +3 00000 0 06612
 07623 CHS +0 76000 0 00002    07624 ADD +0 40000 0 06002    07625 STO +0 60100 0 00043
                 AGESUM = AGESUM + AGE                                              172  LM00205
 07626 CLA +0 50000 0 00043    07627 ORA -0 50100 0 06642    07630 FAD +0 30000 0 06642    07631 FAD +0 30000 0 00045
 07632 STO +0 60100 0 00045
                 AGES2 = AGES2 + AGE*AGE                                            173  LM00206
 07633 LDQ +0 56000 0 00043    07634 MPY +0 20000 0 00043    07635 XCA +0 13100 0 00000    07636 ORA -0 50100 0 06642
 07637 FAD +0 30000 0 06642    07640 FAD +0 30000 0 00044    07641 STO +0 60100 0 00044
                 W'R AGE .G. 90, AGE = 90                                           174  LM00207
 07642 CLA +0 50000 0 00043    07643 SUB +0 40200 0 06634    07644 TZE +0 10000 0 07650    07645 TMI -0 12000 0 07650
 07646 CLA +0 50000 0 06634    07647 STO +0 60100 0 00043
                 W'R AGE .L. 0, AGE = 0                                             175  LM00208
 07650 CLA +0 50000 0 00043    07651 SUB +0 40200 0 06614    07652 TZE +0 10000 0 07656    07653 TPL +0 12000 0 07656
 07654 CLA +0 50000 0 06614    07655 STO +0 60100 0 00043
                 CFTBL(AGE) = CFTBL(AGE) + 1                                        176  LM00209
 07656 LXA +0 53400 1 00043    07657 CLA +0 50000 1 02715    07660 ADD +0 40000 0 06615    07661 STO +0 60100 1 02715
                 CRTBL(AGE) = CRTBL(AGE) + SIZE                                     177  LM00210
 07662 CLA +0 50000 1 04030    07663 ADD +0 40000 0 06400    07664 STO +0 60100 1 04030
                 F'N                                                                178  LM00212
 07665 TRA +0 02000 0 10577
                 E'O FPRINT.                                                        179  LM00219
 07666 TRA +0 02000 0 07671    07667 SXA +0 63400 2 10552    07670 TSX +0 07400 2 10552
                 NEWUFD.                                                            180  LM00221
 07671 TSX +0 07400 4 00031
                 ATTACH.(ME(1),ME)                                                  181  LM00223
 07672 TSX +0 07400 4 00002    07673 TXH +3 00000 0 05241    07674 TXH +3 00000 0 05242
                 DELETE.(OUT,OUT(1),1,SNAP.)                                        182  LM00227
 07675 TSX +0 07400 4 00011    07676 TXH +3 00000 0 06236    07677 TXH +3 00000 0 06235    07700 TXH +3 00000 0 06615
 07701 TXH +3 00000 0 00026
                 ASSIGN.(OUT,B1,B2,B3)                                              183  LM00228
 07702 TSX +0 07400 4 00001    07703 TXH +3 00000 0 06236    07704 TXH +3 00000 0 00726    07705 TXH +3 00000 0 01607
 07706 TXH +3 00000 0 02470
                 DWRITE.(OUT,HEAD)                                                  184  LM00229
 07707 TSX +0 07400 4 00012    07710 TXH +3 00000 0 06236    07711 TXH +3 00000 0 04546
                 W'R SYSFLG, DWRITE.(OUT,SYSHED)                                    185  LM00230
 07712 NZT -0 52000 0 06401    07713 TRA +0 02000 0 07717    07714 TSX +0 07400 4 00012    07715 TXH +3 00000 0 06236
 07716 TXH +3 00000 0 06407
                 DWRITE.(OUT,F0,TIME,DAYNAM(NOW.MOD.7),MONNAM(MO),                  186  LM00231
                1 DA, YR, WHO(1))                                                   186  LM00232
 07717 CLA +0 50000 0 05317    07720 SUB +0 40200 0 07721    07721 TXH +3 00000 0 05315    07722 STA +0 62100 0 07737
 07723 LDQ +0 56000 0 06002    07724 PXD -0 75400 0 00000    07725 LLS +0 76300 0 00000    07726 DVP +0 22100 0 06621
 07727 SUB +0 40200 0 07730    07730 TXH +3 00000 0 04041    07731 STA +0 62100 0 07736    07732 TSX +0 07400 4 00012
 07733 TXH +3 00000 0 06236    07734 TXH +3 00000 0 04100    07735 TXH +3 00000 0 06412    07736 TXH +3 00000 0 00000
 07737 TXH +3 00000 0 00000    07740 TXH +3 00000 0 04031    07741 TXH +3 00000 0 06613    07742 TXH +3 00000 0 06427
                 XTF = TF                                                           187  LM00234
 07743 CLA +0 50000 0 06411    07744 ORA -0 50100 0 06642    07745 FAD +0 30000 0 06642    07746 STO +0 60100 0 06611
                 XNUFD = NUFD                                                       188  LM00235
 07747 CLA +0 50000 0 06232    07750 ORA -0 50100 0 06642    07751 FAD +0 30000 0 06642    07752 STO +0 60100 0 06443
                 X1 = TR/XTF                                                        189  LM00236
 07753 CLA +0 50000 0 06414    07754 ORA -0 50100 0 06642    07755 FAD +0 30000 0 06642    07756 FDP +0 24100 0 06611
 07757 STQ -0 60000 0 06432
                 X2 = SQRT.(TREC2/XTF - X1*X1)                                      190  LM00237
 07760 LDQ +0 56000 0 06432    07761 FMP +0 26000 0 06432    07762 STO +0 60100 0 10603    07763 CLA +0 50000 0 06413
 07764 FDP +0 24100 0 06611    07765 XCA +0 13100 0 00000    07766 FSB +0 30200 0 10603    07767 STO +0 60100 0 10603
 07770 TSX +0 07400 4 00027    07771 TXH +3 00000 0 10603    07772 STO +0 60100 0 06433
                 X3 = XTF/XNUFD                                                     191  LM00238
 07773 CLA +0 50000 0 06611    07774 FDP +0 24100 0 06443    07775 STQ -0 60000 0 06434
                 X4 = SQRT.(UFDF2/XNUFD - X3*X3)                                    192  LM00239
 07776 LDQ +0 56000 0 06434    07777 FMP +0 26000 0 06434    10000 STO +0 60100 0 10603    10001 CLA +0 50000 0 06421
 10002 FDP +0 24100 0 06443    10003 XCA +0 13100 0 00000    10004 FSB +0 30200 0 10603    10005 STO +0 60100 0 10603
 10006 TSX +0 07400 4 00027    10007 TXH +3 00000 0 10603    10010 STO +0 60100 0 06435
                 X5 = TR/XNUFD                                                      193  LM00240
 10011 CLA +0 50000 0 06414    10012 ORA -0 50100 0 06642    10013 FAD +0 30000 0 06642    10014 FDP +0 24100 0 06443
 10015 STQ -0 60000 0 06436
                 X6 = SQRT.(UFDR2/XNUFD - X5*X5)                                    194  LM00241
 10016 LDQ +0 56000 0 06436    10017 FMP +0 26000 0 06436    10020 STO +0 60100 0 10603    10021 CLA +0 50000 0 06423
 10022 FDP +0 24100 0 06443    10023 XCA +0 13100 0 00000    10024 FSB +0 30200 0 10603    10025 STO +0 60100 0 10603
 10026 TSX +0 07400 4 00027    10027 TXH +3 00000 0 10603    10030 STO +0 60100 0 06437
                 X7 = LINKS/XNUFD                                                   195  LM00242
 10031 CLA +0 50000 0 04552    10032 ORA -0 50100 0 06642    10033 FAD +0 30000 0 06642    10034 FDP +0 24100 0 06443
 10035 STQ -0 60000 0 06440
                 X8 = SQRT.(UFDL2/XNUFD - X7*X7)                                    196  LM00243
 10036 LDQ +0 56000 0 06440    10037 FMP +0 26000 0 06440    10040 STO +0 60100 0 10603    10041 CLA +0 50000 0 06422
 10042 FDP +0 24100 0 06443    10043 XCA +0 13100 0 00000    10044 FSB +0 30200 0 10603    10045 STO +0 60100 0 10603
 10046 TSX +0 07400 4 00027    10047 TXH +3 00000 0 10603    10050 STO +0 60100 0 06441
                 X9 = AGESUM/XTF                                                    197  LM00244
 10051 CLA +0 50000 0 00045    10052 FDP +0 24100 0 06611    10053 STQ -0 60000 0 06442
                 X10 = SQRT.(AGES2/XTF - X9*X9)                                     198  LM00245
 10054 LDQ +0 56000 0 06442    10055 FMP +0 26000 0 06442    10056 STO +0 60100 0 10603    10057 CLA +0 50000 0 00044
 10060 FDP +0 24100 0 06611    10061 XCA +0 13100 0 00000    10062 FSB +0 30200 0 10603    10063 STO +0 60100 0 10603
 10064 TSX +0 07400 4 00027    10065 TXH +3 00000 0 10603    10066 STO +0 60100 0 06431
                 DWRITE.(OUT,F1, TF, TR, X3, X4, NUFD, X5, X6, LINKS,               199  LM00247
                1   X7, X8, X1, X2, X9, X10 )                                       199  LM00248
 10067 TSX +0 07400 4 00012    10070 TXH +3 00000 0 06236    10071 TXH +3 00000 0 04206    10072 TXH +3 00000 0 06411
 10073 TXH +3 00000 0 06414    10074 TXH +3 00000 0 06434    10075 TXH +3 00000 0 06435    10076 TXH +3 00000 0 06232
 10077 TXH +3 00000 0 06436    10100 TXH +3 00000 0 06437    10101 TXH +3 00000 0 04552    10102 TXH +3 00000 0 06440
 10103 TXH +3 00000 0 06441    10104 TXH +3 00000 0 06432    10105 TXH +3 00000 0 06433    10106 TXH +3 00000 0 06442
 10107 TXH +3 00000 0 06431
                 DWRITE.(OUT,F3,CAPACY,TRSIZE,CAPACY-TRSIZE,                        200  LM00249
                1   (TRSIZE-TR)*100./CAPACY)                                        200  LM00250
 10110 CLA +0 50000 0 06415    10111 SUB +0 40200 0 06414    10112 ORA -0 50100 0 06642    10113 FAD +0 30000 0 06642
 10114 XCA +0 13100 0 00000    10115 FMP +0 26000 0 06641    10116 STO +0 60100 0 10603    10117 CLA +0 50000 0 02471
 10120 ORA -0 50100 0 06642    10121 FAD +0 30000 0 06642    10122 STO +0 60100 0 10604    10123 CLA +0 50000 0 10603
 10124 FDP +0 24100 0 10604    10125 STQ -0 60000 0 10604    10126 CLA +0 50000 0 02471    10127 SUB +0 40200 0 06415
 10130 STO +0 60100 0 10603    10131 TSX +0 07400 4 00012    10132 TXH +3 00000 0 06236    10133 TXH +3 00000 0 04226
 10134 TXH +3 00000 0 02471    10135 TXH +3 00000 0 06415    10136 TXH +3 00000 0 10603    10137 TXH +3 00000 0 10604
                 DWRITE.(OUT,F4)                                                    201  LM00251
 10140 TSX +0 07400 4 00012    10141 TXH +3 00000 0 06236    10142 TXH +3 00000 0 04246
                 T'H PML, FOR I=1,1,I.G.8                                           202  LM00252
 10143 CLA +0 50000 0 06615    10144 STO +0 60100 0 04547    10145 TRA +0 02000 0 10151    10146 CLA +0 50000 0 04547
 10147 ADD +0 40000 0 06615    10150 STO +0 60100 0 04547    10151 CLA +0 50000 0 04547    10152 SUB +0 40200 0 06622
 10153 TZE +0 10000 0 10155    10154 TPL +0 12000 0 10203
                 DWRITE.(OUT,F4A,OCRBC.(MODBIT(I)),MODFIL(I),MODREC(I))             203  LM00253
 10155 CLA +0 50000 0 04547    10156 SUB +0 40200 0 10157    10157 TXH +3 00000 0 05300    10160 STA +0 62100 0 10201
 10161 CLA +0 50000 0 04547    10162 SUB +0 40200 0 10163    10163 TXH +3 00000 0 05267    10164 STA +0 62100 0 10200
 10165 CLA +0 50000 0 04547    10166 SUB +0 40200 0 10167    10167 TXH +3 00000 0 05255    10170 STA +0 62100 0 10172
 10171 TSX +0 07400 4 00024    10172 TXH +3 00000 0 00000    10173 STO +0 60100 0 10604    10174 TSX +0 07400 4 00012
 10175 TXH +3 00000 0 06236    10176 TXH +3 00000 0 04230    10177 TXH +3 00000 0 10604    10200 TXH +3 00000 0 00000
 10201 TXH +3 00000 0 00000
      PML        C'E                                                                204  LM00254
 10202 TRA +0 02000 0 10146
                 DWRITE.(OUT,HEAD)                                                  205  LM00256
 10203 TSX +0 07400 4 00012    10204 TXH +3 00000 0 06236    10205 TXH +3 00000 0 04546
                 W'R SYSFLG, DWRITE.(OUT,SYSHED)                                    206  LM00257
 10206 NZT -0 52000 0 06401    10207 TRA +0 02000 0 10213    10210 TSX +0 07400 4 00012    10211 TXH +3 00000 0 06236
 10212 TXH +3 00000 0 06407
                 DWRITE.(OUT,F5)                                                    207  LM00259
 10213 TSX +0 07400 4 00012    10214 TXH +3 00000 0 06236    10215 TXH +3 00000 0 04272
      HGMLP      DWRITE.(OUT,F5A)                                                   208  LM00261
 10216 TSX +0 07400 4 00012    10217 TXH +3 00000 0 06236    10220 TXH +3 00000 0 04261
                 T'H BETA, FOR K = 0,1, K.G.90                                      209  LM00262
 10221 CLA +0 50000 0 06614    10222 STO +0 60100 0 04551    10223 TRA +0 02000 0 10227    10224 CLA +0 50000 0 04551
 10225 ADD +0 40000 0 06615    10226 STO +0 60100 0 04551    10227 CLA +0 50000 0 04551    10230 SUB +0 40200 0 06634
 10231 TZE +0 10000 0 10233    10232 TPL +0 12000 0 10350
                 FOLDER = 0                                                         210  LM00263
 10233 CLA +0 50000 0 06614    10234 STO +0 60100 0 04351
                 ROLDER = 0                                                         211  LM00264
 10235 CLA +0 50000 0 06614    10236 STO +0 60100 0 06240
                 DAY = NOW - K                                                      212  LM00265
 10237 CLA +0 50000 0 06002    10240 SUB +0 40200 0 04551    10241 STO +0 60100 0 04042
                 T'H ALPHA, FOR J = K, 1, J.G. 90                                   213  LM00267
 10242 CLA +0 50000 0 04551    10243 STO +0 60100 0 04550    10244 TRA +0 02000 0 10250    10245 CLA +0 50000 0 04550
 10246 ADD +0 40000 0 06615    10247 STO +0 60100 0 04550    10250 CLA +0 50000 0 04550    10251 SUB +0 40200 0 06634
 10252 TZE +0 10000 0 10254    10253 TPL +0 12000 0 10271
                 FOLDER = FOLDER + FTBL(J)                                          214  LM00268
 10254 LXA +0 53400 2 04550    10255 CLA +0 50000 0 04351    10256 ADD +0 40000 2 04506    10257 STO +0 60100 0 04351
                 ROLDER = ROLDER + RTBL(J)                                          215  LM00269
 10260 CLA +0 50000 0 06240    10261 ADD +0 40000 2 06375    10262 STO +0 60100 0 06240
                 VAR = ROLDER/SCALE                                                 216  LM00270
 10263 LDQ +0 56000 0 06240    10264 PXD -0 75400 0 00000    10265 LLS +0 76300 0 00000    10266 DVP +0 22100 0 06376
 10267 STQ -0 60000 0 06424
      ALPHA      C'E                                                                217  LM00271
 10270 TRA +0 02000 0 10245
                 W'R DAY .E. MB1                                                    218  LM00273
 10271 CLA +0 50000 0 04042    10272 SUB +0 40200 0 05237    10273 TNZ -0 10000 0 10277
                      MRK = MO1                                                     219  LM00274
 10274 CLA +0 50000 0 05243    10275 STO +0 60100 0 05320
                 O'R DAY .E. MB2                                                    220  LM00275
 10276 TRA +0 02000 0 10320    10277 CLA +0 50000 0 04042    10300 SUB +0 40200 0 05240    10301 TNZ -0 10000 0 10305
                      MRK = MO2                                                     221  LM00276
 10302 CLA +0 50000 0 05244    10303 STO +0 60100 0 05320
                 O'R DAY.MOD. 7 .E. 0                                               222  LM00277
 10304 TRA +0 02000 0 10320    10305 LDQ +0 56000 0 04042    10306 PXD -0 75400 0 00000    10307 LLS +0 76300 0 00000
 10310 DVP +0 22100 0 06621    10311 SUB +0 40200 0 06614    10312 TNZ -0 10000 0 10316
                      MRK = $SUN$                                                   223  LM00278
 10313 CLA +0 50000 0 06650    10314 STO +0 60100 0 05320
                 O'E                                                                224  LM00279
 10315 TRA +0 02000 0 10320
                      MRK = $$                                                      225  LM00280
 10316 CLA +0 50000 0 06646    10317 STO +0 60100 0 05320
                 E'L                                                                226  LM00281
                 DWRITE.(OUT,F7,MRK,K,FTBL(K),FOLDER,RTBL(K),ROLDER,                227  LM00283
                1 XS(1)...XS(VAR))                                                  227  LM00284
 10320 CLA +0 50000 0 06424    10321 SUB +0 40200 0 10322    10322 TXH +3 00000 0 06610    10323 ALS +0 76700 0 00022
 10324 STD +0 62200 0 10346    10325 CLA +0 50000 0 04551    10326 SUB +0 40200 0 10327    10327 TXH +3 00000 0 06375
 10330 STA +0 62100 0 10344    10331 CLA +0 50000 0 04551    10332 SUB +0 40200 0 10333    10333 TXH +3 00000 0 04506
 10334 STA +0 62100 0 10342    10335 TSX +0 07400 4 00012    10336 TXH +3 00000 0 06236    10337 TXH +3 00000 0 04307
 10340 TXH +3 00000 0 05320    10341 TXH +3 00000 0 04551    10342 TXH +3 00000 0 00000    10343 TXH +3 00000 0 04351
 10344 TXH +3 00000 0 00000    10345 TXH +3 00000 0 06240    10346 TIX +2 00000 0 06607
      BETA       C'E                                                                228  LM00286
 10347 TRA +0 02000 0 10224
                 DWRITE.(OUT,F10,XS,SCALE)                                          229  LM00288
 10350 TSX +0 07400 4 00012    10351 TXH +3 00000 0 06236    10352 TXH +3 00000 0 04113    10353 TXH +3 00000 0 06610
 10354 TXH +3 00000 0 06376
                 W'R REF                                                            230  LM00289
 10355 NZT -0 52000 0 06237    10356 TRA +0 02000 0 10405
                      REF = 0B                                                      231  LM00290
 10357 CLA +0 50000 0 06614    10360 STO +0 60100 0 06237
                      DWRITE.(OUT,HEAD)                                             232  LM00291
 10361 TSX +0 07400 4 00012    10362 TXH +3 00000 0 06236    10363 TXH +3 00000 0 04546
                      W'R SYSFLG, DWRITE.(OUT,SYSHED)                               233  LM00292
 10364 NZT -0 52000 0 06401    10365 TRA +0 02000 0 10371    10366 TSX +0 07400 4 00012    10367 TXH +3 00000 0 06236
 10370 TXH +3 00000 0 06407
                      DWRITE.(OUT,F6)                                               234  LM00293
 10371 TSX +0 07400 4 00012    10372 TXH +3 00000 0 06236    10373 TXH +3 00000 0 04302
                      MOVE.(91,CFTBL,FTBL)                                          235  LM00294
 10374 TSX +0 07400 4 00021    10375 TXH +3 00000 0 06635    10376 TXH +3 00000 0 02715    10377 TXH +3 00000 0 04506
                      MOVE.(91,CRTBL,RTBL)                                          236  LM00295
 10400 TSX +0 07400 4 00021    10401 TXH +3 00000 0 06635    10402 TXH +3 00000 0 04030    10403 TXH +3 00000 0 06375
                      T'O HGMLP                                                     237  LM00296
 10404 TRA +0 02000 0 00037
                 E'L                                                                238  LM00297
                 DWRITE.(OUT,HEAD)                                                  239  LM00299
 10405 TSX +0 07400 4 00012    10406 TXH +3 00000 0 06236    10407 TXH +3 00000 0 04546
                 W'R SYSFLG, DWRITE.(OUT,SYSHED)                                    240  LM00300
 10410 NZT -0 52000 0 06401    10411 TRA +0 02000 0 10415    10412 TSX +0 07400 4 00012    10413 TXH +3 00000 0 06236
 10414 TXH +3 00000 0 06407
                 DWRITE.(OUT,F9)                                                    241  LM00302
 10415 TSX +0 07400 4 00012    10416 TXH +3 00000 0 06236    10417 TXH +3 00000 0 04331
                 T'H PRN, FOR I=0,1,I.G.MAX                                         242  LM00304
 10420 CLA +0 50000 0 06614    10421 STO +0 60100 0 04547    10422 TRA +0 02000 0 10426    10423 CLA +0 50000 0 04547
 10424 ADD +0 40000 0 06615    10425 STO +0 60100 0 04547    10426 CLA +0 50000 0 04547    10427 SUB +0 40200 0 05236
 10430 TZE +0 10000 0 10432    10431 TPL +0 12000 0 10474
      PRN        DWRITE.(OUT,FM1,NAME1(I),NAME2(I),CLASS(I),COUNT(I),NRECS(I),      243  LM00305
                1COUNTL(I))                                                         243  LM00306
 10432 CLA +0 50000 0 04547    10433 SUB +0 40200 0 10434    10434 TXH +3 00000 0 03445    10435 STA +0 62100 0 10472
 10436 CLA +0 50000 0 04547    10437 SUB +0 40200 0 10440    10440 TXH +3 00000 0 06231    10441 STA +0 62100 0 10471
 10442 CLA +0 50000 0 04547    10443 SUB +0 40200 0 10444    10444 TXH +3 00000 0 03674    10445 STA +0 62100 0 10470
 10446 CLA +0 50000 0 04547    10447 SUB +0 40200 0 10450    10450 TXH +3 00000 0 03144    10451 STA +0 62100 0 10467
 10452 CLA +0 50000 0 04547    10453 SUB +0 40200 0 10454    10454 TXH +3 00000 0 06001    10455 STA +0 62100 0 10466
 10456 CLA +0 50000 0 04547    10457 SUB +0 40200 0 10460    10460 TXH +3 00000 0 05552    10461 STA +0 62100 0 10465
 10462 TSX +0 07400 4 00012    10463 TXH +3 00000 0 06236    10464 TXH +3 00000 0 04336    10465 TXH +3 00000 0 00000
 10466 TXH +3 00000 0 00000    10467 TXH +3 00000 0 00000    10470 TXH +3 00000 0 00000    10471 TXH +3 00000 0 00000
 10472 TXH +3 00000 0 00000    10473 TRA +0 02000 0 10423
                 DWRITE.(OUT,FM2)                                                   244  LM00308
 10474 TSX +0 07400 4 00012    10475 TXH +3 00000 0 06236    10476 TXH +3 00000 0 04350
                 T'H PRC, FOR I=0,1,I.G.MXCLS                                       245  LM00309
 10477 CLA +0 50000 0 06614    10500 STO +0 60100 0 04547    10501 TRA +0 02000 0 10505    10502 CLA +0 50000 0 04547
 10503 ADD +0 40000 0 06615    10504 STO +0 60100 0 04547    10505 CLA +0 50000 0 04547    10506 SUB +0 40200 0 05321
 10507 TZE +0 10000 0 10511    10510 TPL +0 12000 0 10543
      PRC        DWRITE.(OUT,FM1,$$,CLNAME(I),I,CCOUNT(I),CNRECS(I),CCOUNL(I))      246  LM00310
 10511 CLA +0 50000 0 04547    10512 SUB +0 40200 0 10513    10513 TXH +3 00000 0 02534    10514 STA +0 62100 0 10541
 10515 CLA +0 50000 0 04547    10516 SUB +0 40200 0 10517    10517 TXH +3 00000 0 03216    10520 STA +0 62100 0 10540
 10521 CLA +0 50000 0 04547    10522 SUB +0 40200 0 10523    10523 TXH +3 00000 0 02561    10524 STA +0 62100 0 10537
 10525 CLA +0 50000 0 04547    10526 SUB +0 40200 0 10527    10527 TXH +3 00000 0 03171    10530 STA +0 62100 0 10535
 10531 TSX +0 07400 4 00012    10532 TXH +3 00000 0 06236    10533 TXH +3 00000 0 04336    10534 TXH +3 00000 0 06646
 10535 TXH +3 00000 0 00000    10536 TXH +3 00000 0 04547    10537 TXH +3 00000 0 00000    10540 TXH +3 00000 0 00000
 10541 TXH +3 00000 0 00000    10542 TRA +0 02000 0 10502
                 FILE.(OUT)                                                         247  LM00312
 10543 TSX +0 07400 4 00015    10544 TXH +3 00000 0 06236
                 F'N                                                                248  LM00314
 10545 TRA +0 02000 0 10577
      ERR        NCOM.($PRNTER$,777777777777K)                                      249  LM00316
 10546 TSX +0 07400 4 00023    10547 TXH +3 00000 0 06643    10550 TXH +3 00000 0 06652
                 N'R                                                                250  LM00319
                 F'T X1, X2, X3, X4, X5, X6, X7, X8, X9, X10                        251  LM00320
                 F'T AGES2, TREC2, UFDF2, UFDR2, UFDL2                              252  LM00321
                 F'T SQRT.                                                          253  LM00322
                 F'T XTF, XNUFD, AGESUM                                             254  LM00323
                 V'S REF = 1B                                                       255  LM00324
 06237     +0 00000 0 00001
                 V'S CAPACY = 160 000                                               256  LM00327
 02471     +0 00000 4 70400
                 V'S SCALE = 1600                                                   257  LM00328
 06376     +0 00000 0 03100
                 V'S DAYS = 31,31,28,31,30,31,30,31,31,30,31,30,31                  258  LM00331
 04043     +0 00000 0 00037    04044     +0 00000 0 00036    04045     +0 00000 0 00037    04046     +0 00000 0 00036
 04047     +0 00000 0 00037    04050     +0 00000 0 00037    04051     +0 00000 0 00036    04052     +0 00000 0 00037
 04053     +0 00000 0 00036    04054     +0 00000 0 00037    04055     +0 00000 0 00034    04056     +0 00000 0 00037
 04057     +0 00000 0 00037
                 V'S MONNAM = $DEC$,$JAN$,$FEB$,$MAR$,$APR$,$MAY$,$JUN$,            259  LM00332
                1 $JUL$,$AUG$,$SEP$,$OCT$,$NOV$,$DEC$                               259  LM00333
 05301     +2 42523 6 06060    05302     -0 54665 6 06060    05303     -0 62363 6 06060    05304     -2 22547 6 06060
 05305     +2 16427 6 06060    05306     -0 16443 6 06060    05307     -0 16445 6 06060    05310     -0 42170 6 06060
 05311     +2 14751 6 06060    05312     -0 42151 6 06060    05313     +2 62522 6 06060    05314     -0 12145 6 06060
 05315     +2 42523 6 06060
                 V'S DAYNAM = $SUN$,$MON$,$TUE$,$WED$,$THU$,$FRI$,$SAT$             260  LM00334
 04033     -2 22163 6 06060    04034     +2 65131 6 06060    04035     -2 33064 6 06060    04036     -2 62524 6 06060
 04037     -2 36425 6 06060    04040     -0 44645 6 06060    04041     -2 26445 6 06060
                 V'S WHO...WHO(3) = 0                                               261  LM00336
 06425     +0 00000 0 00000    06426     +0 00000 0 00000    06427     +0 00000 0 00000    06430     +0 00000 0 00000
                 V'S ME...ME(1) = 0                                                 262  LM00337
 05241     +0 00000 0 00000    05242     +0 00000 0 00000
                 V'S MODBIT = 0,1K,2K,4K,10K,20K,40K,100K,200K                      263  LM00340
 05245     +0 00000 0 00200    05246     +0 00000 0 00100    05247     +0 00000 0 00040    05250     +0 00000 0 00020
 05251     +0 00000 0 00010    05252     +0 00000 0 00004    05253     +0 00000 0 00002    05254     +0 00000 0 00001
 05255     +0 00000 0 00000
                 V'S MODFIL...MODFIL(8) = 0                                         264  LM00341
 05257     +0 00000 0 00000    05260     +0 00000 0 00000    05261     +0 00000 0 00000    05262     +0 00000 0 00000
 05263     +0 00000 0 00000    05264     +0 00000 0 00000    05265     +0 00000 0 00000    05266     +0 00000 0 00000
 05267     +0 00000 0 00000
                 V'S MODREC...MODREC(8) = 0                                         265  LM00342
 05270     +0 00000 0 00000    05271     +0 00000 0 00000    05272     +0 00000 0 00000    05273     +0 00000 0 00000
 05274     +0 00000 0 00000    05275     +0 00000 0 00000    05276     +0 00000 0 00000    05277     +0 00000 0 00000
 05300     +0 00000 0 00000
                 V'S COUNT...COUNT(150)=0                                           266  LM00345
 03446     +0 00000 0 00000    03447     +0 00000 0 00000    03450     +0 00000 0 00000    03451     +0 00000 0 00000
 03452     +0 00000 0 00000    03453     +0 00000 0 00000    03454     +0 00000 0 00000    03455     +0 00000 0 00000
 03456     +0 00000 0 00000    03457     +0 00000 0 00000    03460     +0 00000 0 00000    03461     +0 00000 0 00000
 03462     +0 00000 0 00000    03463     +0 00000 0 00000    03464     +0 00000 0 00000    03465     +0 00000 0 00000
 03466     +0 00000 0 00000    03467     +0 00000 0 00000    03470     +0 00000 0 00000    03471     +0 00000 0 00000
 03472     +0 00000 0 00000    03473     +0 00000 0 00000    03474     +0 00000 0 00000    03475     +0 00000 0 00000
 03476     +0 00000 0 00000    03477     +0 00000 0 00000    03500     +0 00000 0 00000    03501     +0 00000 0 00000
 03502     +0 00000 0 00000    03503     +0 00000 0 00000    03504     +0 00000 0 00000    03505     +0 00000 0 00000
 03506     +0 00000 0 00000    03507     +0 00000 0 00000    03510     +0 00000 0 00000    03511     +0 00000 0 00000
 03512     +0 00000 0 00000    03513     +0 00000 0 00000    03514     +0 00000 0 00000    03515     +0 00000 0 00000
 03516     +0 00000 0 00000    03517     +0 00000 0 00000    03520     +0 00000 0 00000    03521     +0 00000 0 00000
 03522     +0 00000 0 00000    03523     +0 00000 0 00000    03524     +0 00000 0 00000    03525     +0 00000 0 00000
 03526     +0 00000 0 00000    03527     +0 00000 0 00000    03530     +0 00000 0 00000    03531     +0 00000 0 00000
 03532     +0 00000 0 00000    03533     +0 00000 0 00000    03534     +0 00000 0 00000    03535     +0 00000 0 00000
 03536     +0 00000 0 00000    03537     +0 00000 0 00000    03540     +0 00000 0 00000    03541     +0 00000 0 00000
 03542     +0 00000 0 00000    03543     +0 00000 0 00000    03544     +0 00000 0 00000    03545     +0 00000 0 00000
 03546     +0 00000 0 00000    03547     +0 00000 0 00000    03550     +0 00000 0 00000    03551     +0 00000 0 00000
 03552     +0 00000 0 00000    03553     +0 00000 0 00000    03554     +0 00000 0 00000    03555     +0 00000 0 00000
 03556     +0 00000 0 00000    03557     +0 00000 0 00000    03560     +0 00000 0 00000    03561     +0 00000 0 00000
 03562     +0 00000 0 00000    03563     +0 00000 0 00000    03564     +0 00000 0 00000    03565     +0 00000 0 00000
 03566     +0 00000 0 00000    03567     +0 00000 0 00000    03570     +0 00000 0 00000    03571     +0 00000 0 00000
 03572     +0 00000 0 00000    03573     +0 00000 0 00000    03574     +0 00000 0 00000    03575     +0 00000 0 00000
 03576     +0 00000 0 00000    03577     +0 00000 0 00000    03600     +0 00000 0 00000    03601     +0 00000 0 00000
 03602     +0 00000 0 00000    03603     +0 00000 0 00000    03604     +0 00000 0 00000    03605     +0 00000 0 00000
 03606     +0 00000 0 00000    03607     +0 00000 0 00000    03610     +0 00000 0 00000    03611     +0 00000 0 00000
 03612     +0 00000 0 00000    03613     +0 00000 0 00000    03614     +0 00000 0 00000    03615     +0 00000 0 00000
 03616     +0 00000 0 00000    03617     +0 00000 0 00000    03620     +0 00000 0 00000    03621     +0 00000 0 00000
 03622     +0 00000 0 00000    03623     +0 00000 0 00000    03624     +0 00000 0 00000    03625     +0 00000 0 00000
 03626     +0 00000 0 00000    03627     +0 00000 0 00000    03630     +0 00000 0 00000    03631     +0 00000 0 00000
 03632     +0 00000 0 00000    03633     +0 00000 0 00000    03634     +0 00000 0 00000    03635     +0 00000 0 00000
 03636     +0 00000 0 00000    03637     +0 00000 0 00000    03640     +0 00000 0 00000    03641     +0 00000 0 00000
 03642     +0 00000 0 00000    03643     +0 00000 0 00000    03644     +0 00000 0 00000    03645     +0 00000 0 00000
 03646     +0 00000 0 00000    03647     +0 00000 0 00000    03650     +0 00000 0 00000    03651     +0 00000 0 00000
 03652     +0 00000 0 00000    03653     +0 00000 0 00000    03654     +0 00000 0 00000    03655     +0 00000 0 00000
 03656     +0 00000 0 00000    03657     +0 00000 0 00000    03660     +0 00000 0 00000    03661     +0 00000 0 00000
 03662     +0 00000 0 00000    03663     +0 00000 0 00000    03664     +0 00000 0 00000    03665     +0 00000 0 00000
 03666     +0 00000 0 00000    03667     +0 00000 0 00000    03670     +0 00000 0 00000    03671     +0 00000 0 00000
 03672     +0 00000 0 00000    03673     +0 00000 0 00000    03674     +0 00000 0 00000
                 V'S NRECS...NRECS(150)=0                                           267  LM00346
 06003     +0 00000 0 00000    06004     +0 00000 0 00000    06005     +0 00000 0 00000    06006     +0 00000 0 00000
 06007     +0 00000 0 00000    06010     +0 00000 0 00000    06011     +0 00000 0 00000    06012     +0 00000 0 00000
 06013     +0 00000 0 00000    06014     +0 00000 0 00000    06015     +0 00000 0 00000    06016     +0 00000 0 00000
 06017     +0 00000 0 00000    06020     +0 00000 0 00000    06021     +0 00000 0 00000    06022     +0 00000 0 00000
 06023     +0 00000 0 00000    06024     +0 00000 0 00000    06025     +0 00000 0 00000    06026     +0 00000 0 00000
 06027     +0 00000 0 00000    06030     +0 00000 0 00000    06031     +0 00000 0 00000    06032     +0 00000 0 00000
 06033     +0 00000 0 00000    06034     +0 00000 0 00000    06035     +0 00000 0 00000    06036     +0 00000 0 00000
 06037     +0 00000 0 00000    06040     +0 00000 0 00000    06041     +0 00000 0 00000    06042     +0 00000 0 00000
 06043     +0 00000 0 00000    06044     +0 00000 0 00000    06045     +0 00000 0 00000    06046     +0 00000 0 00000
 06047     +0 00000 0 00000    06050     +0 00000 0 00000    06051     +0 00000 0 00000    06052     +0 00000 0 00000
 06053     +0 00000 0 00000    06054     +0 00000 0 00000    06055     +0 00000 0 00000    06056     +0 00000 0 00000
 06057     +0 00000 0 00000    06060     +0 00000 0 00000    06061     +0 00000 0 00000    06062     +0 00000 0 00000
 06063     +0 00000 0 00000    06064     +0 00000 0 00000    06065     +0 00000 0 00000    06066     +0 00000 0 00000
 06067     +0 00000 0 00000    06070     +0 00000 0 00000    06071     +0 00000 0 00000    06072     +0 00000 0 00000
 06073     +0 00000 0 00000    06074     +0 00000 0 00000    06075     +0 00000 0 00000    06076     +0 00000 0 00000
 06077     +0 00000 0 00000    06100     +0 00000 0 00000    06101     +0 00000 0 00000    06102     +0 00000 0 00000
 06103     +0 00000 0 00000    06104     +0 00000 0 00000    06105     +0 00000 0 00000    06106     +0 00000 0 00000
 06107     +0 00000 0 00000    06110     +0 00000 0 00000    06111     +0 00000 0 00000    06112     +0 00000 0 00000
 06113     +0 00000 0 00000    06114     +0 00000 0 00000    06115     +0 00000 0 00000    06116     +0 00000 0 00000
 06117     +0 00000 0 00000    06120     +0 00000 0 00000    06121     +0 00000 0 00000    06122     +0 00000 0 00000
 06123     +0 00000 0 00000    06124     +0 00000 0 00000    06125     +0 00000 0 00000    06126     +0 00000 0 00000
 06127     +0 00000 0 00000    06130     +0 00000 0 00000    06131     +0 00000 0 00000    06132     +0 00000 0 00000
 06133     +0 00000 0 00000    06134     +0 00000 0 00000    06135     +0 00000 0 00000    06136     +0 00000 0 00000
 06137     +0 00000 0 00000    06140     +0 00000 0 00000    06141     +0 00000 0 00000    06142     +0 00000 0 00000
 06143     +0 00000 0 00000    06144     +0 00000 0 00000    06145     +0 00000 0 00000    06146     +0 00000 0 00000
 06147     +0 00000 0 00000    06150     +0 00000 0 00000    06151     +0 00000 0 00000    06152     +0 00000 0 00000
 06153     +0 00000 0 00000    06154     +0 00000 0 00000    06155     +0 00000 0 00000    06156     +0 00000 0 00000
 06157     +0 00000 0 00000    06160     +0 00000 0 00000    06161     +0 00000 0 00000    06162     +0 00000 0 00000
 06163     +0 00000 0 00000    06164     +0 00000 0 00000    06165     +0 00000 0 00000    06166     +0 00000 0 00000
 06167     +0 00000 0 00000    06170     +0 00000 0 00000    06171     +0 00000 0 00000    06172     +0 00000 0 00000
 06173     +0 00000 0 00000    06174     +0 00000 0 00000    06175     +0 00000 0 00000    06176     +0 00000 0 00000
 06177     +0 00000 0 00000    06200     +0 00000 0 00000    06201     +0 00000 0 00000    06202     +0 00000 0 00000
 06203     +0 00000 0 00000    06204     +0 00000 0 00000    06205     +0 00000 0 00000    06206     +0 00000 0 00000
 06207     +0 00000 0 00000    06210     +0 00000 0 00000    06211     +0 00000 0 00000    06212     +0 00000 0 00000
 06213     +0 00000 0 00000    06214     +0 00000 0 00000    06215     +0 00000 0 00000    06216     +0 00000 0 00000
 06217     +0 00000 0 00000    06220     +0 00000 0 00000    06221     +0 00000 0 00000    06222     +0 00000 0 00000
 06223     +0 00000 0 00000    06224     +0 00000 0 00000    06225     +0 00000 0 00000    06226     +0 00000 0 00000
 06227     +0 00000 0 00000    06230     +0 00000 0 00000    06231     +0 00000 0 00000
                 V'S CLASS...CLASS(150)=0                                           268  LM00347
 02716     +0 00000 0 00000    02717     +0 00000 0 00000    02720     +0 00000 0 00000    02721     +0 00000 0 00000
 02722     +0 00000 0 00000    02723     +0 00000 0 00000    02724     +0 00000 0 00000    02725     +0 00000 0 00000
 02726     +0 00000 0 00000    02727     +0 00000 0 00000    02730     +0 00000 0 00000    02731     +0 00000 0 00000
 02732     +0 00000 0 00000    02733     +0 00000 0 00000    02734     +0 00000 0 00000    02735     +0 00000 0 00000
 02736     +0 00000 0 00000    02737     +0 00000 0 00000    02740     +0 00000 0 00000    02741     +0 00000 0 00000
 02742     +0 00000 0 00000    02743     +0 00000 0 00000    02744     +0 00000 0 00000    02745     +0 00000 0 00000
 02746     +0 00000 0 00000    02747     +0 00000 0 00000    02750     +0 00000 0 00000    02751     +0 00000 0 00000
 02752     +0 00000 0 00000    02753     +0 00000 0 00000    02754     +0 00000 0 00000    02755     +0 00000 0 00000
 02756     +0 00000 0 00000    02757     +0 00000 0 00000    02760     +0 00000 0 00000    02761     +0 00000 0 00000
 02762     +0 00000 0 00000    02763     +0 00000 0 00000    02764     +0 00000 0 00000    02765     +0 00000 0 00000
 02766     +0 00000 0 00000    02767     +0 00000 0 00000    02770     +0 00000 0 00000    02771     +0 00000 0 00000
 02772     +0 00000 0 00000    02773     +0 00000 0 00000    02774     +0 00000 0 00000    02775     +0 00000 0 00000
 02776     +0 00000 0 00000    02777     +0 00000 0 00000    03000     +0 00000 0 00000    03001     +0 00000 0 00000
 03002     +0 00000 0 00000    03003     +0 00000 0 00000    03004     +0 00000 0 00000    03005     +0 00000 0 00000
 03006     +0 00000 0 00000    03007     +0 00000 0 00000    03010     +0 00000 0 00000    03011     +0 00000 0 00000
 03012     +0 00000 0 00000    03013     +0 00000 0 00000    03014     +0 00000 0 00000    03015     +0 00000 0 00000
 03016     +0 00000 0 00000    03017     +0 00000 0 00000    03020     +0 00000 0 00000    03021     +0 00000 0 00000
 03022     +0 00000 0 00000    03023     +0 00000 0 00000    03024     +0 00000 0 00000    03025     +0 00000 0 00000
 03026     +0 00000 0 00000    03027     +0 00000 0 00000    03030     +0 00000 0 00000    03031     +0 00000 0 00000
 03032     +0 00000 0 00000    03033     +0 00000 0 00000    03034     +0 00000 0 00000    03035     +0 00000 0 00000
 03036     +0 00000 0 00000    03037     +0 00000 0 00000    03040     +0 00000 0 00000    03041     +0 00000 0 00000
 03042     +0 00000 0 00000    03043     +0 00000 0 00000    03044     +0 00000 0 00000    03045     +0 00000 0 00000
 03046     +0 00000 0 00000    03047     +0 00000 0 00000    03050     +0 00000 0 00000    03051     +0 00000 0 00000
 03052     +0 00000 0 00000    03053     +0 00000 0 00000    03054     +0 00000 0 00000    03055     +0 00000 0 00000
 03056     +0 00000 0 00000    03057     +0 00000 0 00000    03060     +0 00000 0 00000    03061     +0 00000 0 00000
 03062     +0 00000 0 00000    03063     +0 00000 0 00000    03064     +0 00000 0 00000    03065     +0 00000 0 00000
 03066     +0 00000 0 00000    03067     +0 00000 0 00000    03070     +0 00000 0 00000    03071     +0 00000 0 00000
 03072     +0 00000 0 00000    03073     +0 00000 0 00000    03074     +0 00000 0 00000    03075     +0 00000 0 00000
 03076     +0 00000 0 00000    03077     +0 00000 0 00000    03100     +0 00000 0 00000    03101     +0 00000 0 00000
 03102     +0 00000 0 00000    03103     +0 00000 0 00000    03104     +0 00000 0 00000    03105     +0 00000 0 00000
 03106     +0 00000 0 00000    03107     +0 00000 0 00000    03110     +0 00000 0 00000    03111     +0 00000 0 00000
 03112     +0 00000 0 00000    03113     +0 00000 0 00000    03114     +0 00000 0 00000    03115     +0 00000 0 00000
 03116     +0 00000 0 00000    03117     +0 00000 0 00000    03120     +0 00000 0 00000    03121     +0 00000 0 00000
 03122     +0 00000 0 00000    03123     +0 00000 0 00000    03124     +0 00000 0 00000    03125     +0 00000 0 00000
 03126     +0 00000 0 00000    03127     +0 00000 0 00000    03130     +0 00000 0 00000    03131     +0 00000 0 00000
 03132     +0 00000 0 00000    03133     +0 00000 0 00000    03134     +0 00000 0 00000    03135     +0 00000 0 00000
 03136     +0 00000 0 00000    03137     +0 00000 0 00000    03140     +0 00000 0 00000    03141     +0 00000 0 00000
 03142     +0 00000 0 00000    03143     +0 00000 0 00000    03144     +0 00000 0 00000
                 V'S COUNTL...COUNTL(150)=0                                         269  LM00348
 03217     +0 00000 0 00000    03220     +0 00000 0 00000    03221     +0 00000 0 00000    03222     +0 00000 0 00000
 03223     +0 00000 0 00000    03224     +0 00000 0 00000    03225     +0 00000 0 00000    03226     +0 00000 0 00000
 03227     +0 00000 0 00000    03230     +0 00000 0 00000    03231     +0 00000 0 00000    03232     +0 00000 0 00000
 03233     +0 00000 0 00000    03234     +0 00000 0 00000    03235     +0 00000 0 00000    03236     +0 00000 0 00000
 03237     +0 00000 0 00000    03240     +0 00000 0 00000    03241     +0 00000 0 00000    03242     +0 00000 0 00000
 03243     +0 00000 0 00000    03244     +0 00000 0 00000    03245     +0 00000 0 00000    03246     +0 00000 0 00000
 03247     +0 00000 0 00000    03250     +0 00000 0 00000    03251     +0 00000 0 00000    03252     +0 00000 0 00000
 03253     +0 00000 0 00000    03254     +0 00000 0 00000    03255     +0 00000 0 00000    03256     +0 00000 0 00000
 03257     +0 00000 0 00000    03260     +0 00000 0 00000    03261     +0 00000 0 00000    03262     +0 00000 0 00000
 03263     +0 00000 0 00000    03264     +0 00000 0 00000    03265     +0 00000 0 00000    03266     +0 00000 0 00000
 03267     +0 00000 0 00000    03270     +0 00000 0 00000    03271     +0 00000 0 00000    03272     +0 00000 0 00000
 03273     +0 00000 0 00000    03274     +0 00000 0 00000    03275     +0 00000 0 00000    03276     +0 00000 0 00000
 03277     +0 00000 0 00000    03300     +0 00000 0 00000    03301     +0 00000 0 00000    03302     +0 00000 0 00000
 03303     +0 00000 0 00000    03304     +0 00000 0 00000    03305     +0 00000 0 00000    03306     +0 00000 0 00000
 03307     +0 00000 0 00000    03310     +0 00000 0 00000    03311     +0 00000 0 00000    03312     +0 00000 0 00000
 03313     +0 00000 0 00000    03314     +0 00000 0 00000    03315     +0 00000 0 00000    03316     +0 00000 0 00000
 03317     +0 00000 0 00000    03320     +0 00000 0 00000    03321     +0 00000 0 00000    03322     +0 00000 0 00000
 03323     +0 00000 0 00000    03324     +0 00000 0 00000    03325     +0 00000 0 00000    03326     +0 00000 0 00000
 03327     +0 00000 0 00000    03330     +0 00000 0 00000    03331     +0 00000 0 00000    03332     +0 00000 0 00000
 03333     +0 00000 0 00000    03334     +0 00000 0 00000    03335     +0 00000 0 00000    03336     +0 00000 0 00000
 03337     +0 00000 0 00000    03340     +0 00000 0 00000    03341     +0 00000 0 00000    03342     +0 00000 0 00000
 03343     +0 00000 0 00000    03344     +0 00000 0 00000    03345     +0 00000 0 00000    03346     +0 00000 0 00000
 03347     +0 00000 0 00000    03350     +0 00000 0 00000    03351     +0 00000 0 00000    03352     +0 00000 0 00000
 03353     +0 00000 0 00000    03354     +0 00000 0 00000    03355     +0 00000 0 00000    03356     +0 00000 0 00000
 03357     +0 00000 0 00000    03360     +0 00000 0 00000    03361     +0 00000 0 00000    03362     +0 00000 0 00000
 03363     +0 00000 0 00000    03364     +0 00000 0 00000    03365     +0 00000 0 00000    03366     +0 00000 0 00000
 03367     +0 00000 0 00000    03370     +0 00000 0 00000    03371     +0 00000 0 00000    03372     +0 00000 0 00000
 03373     +0 00000 0 00000    03374     +0 00000 0 00000    03375     +0 00000 0 00000    03376     +0 00000 0 00000
 03377     +0 00000 0 00000    03400     +0 00000 0 00000    03401     +0 00000 0 00000    03402     +0 00000 0 00000
 03403     +0 00000 0 00000    03404     +0 00000 0 00000    03405     +0 00000 0 00000    03406     +0 00000 0 00000
 03407     +0 00000 0 00000    03410     +0 00000 0 00000    03411     +0 00000 0 00000    03412     +0 00000 0 00000
 03413     +0 00000 0 00000    03414     +0 00000 0 00000    03415     +0 00000 0 00000    03416     +0 00000 0 00000
 03417     +0 00000 0 00000    03420     +0 00000 0 00000    03421     +0 00000 0 00000    03422     +0 00000 0 00000
 03423     +0 00000 0 00000    03424     +0 00000 0 00000    03425     +0 00000 0 00000    03426     +0 00000 0 00000
 03427     +0 00000 0 00000    03430     +0 00000 0 00000    03431     +0 00000 0 00000    03432     +0 00000 0 00000
 03433     +0 00000 0 00000    03434     +0 00000 0 00000    03435     +0 00000 0 00000    03436     +0 00000 0 00000
 03437     +0 00000 0 00000    03440     +0 00000 0 00000    03441     +0 00000 0 00000    03442     +0 00000 0 00000
 03443     +0 00000 0 00000    03444     +0 00000 0 00000    03445     +0 00000 0 00000
                 V'S NAME1...NAME1(150)=$OTHER$                                     270  LM00349
 05324     -0 66330 2 55160    05325     -0 66330 2 55160    05326     -0 66330 2 55160    05327     -0 66330 2 55160
 05330     -0 66330 2 55160    05331     -0 66330 2 55160    05332     -0 66330 2 55160    05333     -0 66330 2 55160
 05334     -0 66330 2 55160    05335     -0 66330 2 55160    05336     -0 66330 2 55160    05337     -0 66330 2 55160
 05340     -0 66330 2 55160    05341     -0 66330 2 55160    05342     -0 66330 2 55160    05343     -0 66330 2 55160
 05344     -0 66330 2 55160    05345     -0 66330 2 55160    05346     -0 66330 2 55160    05347     -0 66330 2 55160
 05350     -0 66330 2 55160    05351     -0 66330 2 55160    05352     -0 66330 2 55160    05353     -0 66330 2 55160
 05354     -0 66330 2 55160    05355     -0 66330 2 55160    05356     -0 66330 2 55160    05357     -0 66330 2 55160
 05360     -0 66330 2 55160    05361     -0 66330 2 55160    05362     -0 66330 2 55160    05363     -0 66330 2 55160
 05364     -0 66330 2 55160    05365     -0 66330 2 55160    05366     -0 66330 2 55160    05367     -0 66330 2 55160
 05370     -0 66330 2 55160    05371     -0 66330 2 55160    05372     -0 66330 2 55160    05373     -0 66330 2 55160
 05374     -0 66330 2 55160    05375     -0 66330 2 55160    05376     -0 66330 2 55160    05377     -0 66330 2 55160
 05400     -0 66330 2 55160    05401     -0 66330 2 55160    05402     -0 66330 2 55160    05403     -0 66330 2 55160
 05404     -0 66330 2 55160    05405     -0 66330 2 55160    05406     -0 66330 2 55160    05407     -0 66330 2 55160
 05410     -0 66330 2 55160    05411     -0 66330 2 55160    05412     -0 66330 2 55160    05413     -0 66330 2 55160
 05414     -0 66330 2 55160    05415     -0 66330 2 55160    05416     -0 66330 2 55160    05417     -0 66330 2 55160
 05420     -0 66330 2 55160    05421     -0 66330 2 55160    05422     -0 66330 2 55160    05423     -0 66330 2 55160
 05424     -0 66330 2 55160    05425     -0 66330 2 55160    05426     -0 66330 2 55160    05427     -0 66330 2 55160
 05430     -0 66330 2 55160    05431     -0 66330 2 55160    05432     -0 66330 2 55160    05433     -0 66330 2 55160
 05434     -0 66330 2 55160    05435     -0 66330 2 55160    05436     -0 66330 2 55160    05437     -0 66330 2 55160
 05440     -0 66330 2 55160    05441     -0 66330 2 55160    05442     -0 66330 2 55160    05443     -0 66330 2 55160
 05444     -0 66330 2 55160    05445     -0 66330 2 55160    05446     -0 66330 2 55160    05447     -0 66330 2 55160
 05450     -0 66330 2 55160    05451     -0 66330 2 55160    05452     -0 66330 2 55160    05453     -0 66330 2 55160
 05454     -0 66330 2 55160    05455     -0 66330 2 55160    05456     -0 66330 2 55160    05457     -0 66330 2 55160
 05460     -0 66330 2 55160    05461     -0 66330 2 55160    05462     -0 66330 2 55160    05463     -0 66330 2 55160
 05464     -0 66330 2 55160    05465     -0 66330 2 55160    05466     -0 66330 2 55160    05467     -0 66330 2 55160
 05470     -0 66330 2 55160    05471     -0 66330 2 55160    05472     -0 66330 2 55160    05473     -0 66330 2 55160
 05474     -0 66330 2 55160    05475     -0 66330 2 55160    05476     -0 66330 2 55160    05477     -0 66330 2 55160
 05500     -0 66330 2 55160    05501     -0 66330 2 55160    05502     -0 66330 2 55160    05503     -0 66330 2 55160
 05504     -0 66330 2 55160    05505     -0 66330 2 55160    05506     -0 66330 2 55160    05507     -0 66330 2 55160
 05510     -0 66330 2 55160    05511     -0 66330 2 55160    05512     -0 66330 2 55160    05513     -0 66330 2 55160
 05514     -0 66330 2 55160    05515     -0 66330 2 55160    05516     -0 66330 2 55160    05517     -0 66330 2 55160
 05520     -0 66330 2 55160    05521     -0 66330 2 55160    05522     -0 66330 2 55160    05523     -0 66330 2 55160
 05524     -0 66330 2 55160    05525     -0 66330 2 55160    05526     -0 66330 2 55160    05527     -0 66330 2 55160
 05530     -0 66330 2 55160    05531     -0 66330 2 55160    05532     -0 66330 2 55160    05533     -0 66330 2 55160
 05534     -0 66330 2 55160    05535     -0 66330 2 55160    05536     -0 66330 2 55160    05537     -0 66330 2 55160
 05540     -0 66330 2 55160    05541     -0 66330 2 55160    05542     -0 66330 2 55160    05543     -0 66330 2 55160
 05544     -0 66330 2 55160    05545     -0 66330 2 55160    05546     -0 66330 2 55160    05547     -0 66330 2 55160
 05550     -0 66330 2 55160    05551     -0 66330 2 55160    05552     -0 66330 2 55160
                 V'S NAME2 ...NAME2 (150)=$FILES$                                   271  LM00350
 05553     +2 63143 2 56260    05554     +2 63143 2 56260    05555     +2 63143 2 56260    05556     +2 63143 2 56260
 05557     +2 63143 2 56260    05560     +2 63143 2 56260    05561     +2 63143 2 56260    05562     +2 63143 2 56260
 05563     +2 63143 2 56260    05564     +2 63143 2 56260    05565     +2 63143 2 56260    05566     +2 63143 2 56260
 05567     +2 63143 2 56260    05570     +2 63143 2 56260    05571     +2 63143 2 56260    05572     +2 63143 2 56260
 05573     +2 63143 2 56260    05574     +2 63143 2 56260    05575     +2 63143 2 56260    05576     +2 63143 2 56260
 05577     +2 63143 2 56260    05600     +2 63143 2 56260    05601     +2 63143 2 56260    05602     +2 63143 2 56260
 05603     +2 63143 2 56260    05604     +2 63143 2 56260    05605     +2 63143 2 56260    05606     +2 63143 2 56260
 05607     +2 63143 2 56260    05610     +2 63143 2 56260    05611     +2 63143 2 56260    05612     +2 63143 2 56260
 05613     +2 63143 2 56260    05614     +2 63143 2 56260    05615     +2 63143 2 56260    05616     +2 63143 2 56260
 05617     +2 63143 2 56260    05620     +2 63143 2 56260    05621     +2 63143 2 56260    05622     +2 63143 2 56260
 05623     +2 63143 2 56260    05624     +2 63143 2 56260    05625     +2 63143 2 56260    05626     +2 63143 2 56260
 05627     +2 63143 2 56260    05630     +2 63143 2 56260    05631     +2 63143 2 56260    05632     +2 63143 2 56260
 05633     +2 63143 2 56260    05634     +2 63143 2 56260    05635     +2 63143 2 56260    05636     +2 63143 2 56260
 05637     +2 63143 2 56260    05640     +2 63143 2 56260    05641     +2 63143 2 56260    05642     +2 63143 2 56260
 05643     +2 63143 2 56260    05644     +2 63143 2 56260    05645     +2 63143 2 56260    05646     +2 63143 2 56260
 05647     +2 63143 2 56260    05650     +2 63143 2 56260    05651     +2 63143 2 56260    05652     +2 63143 2 56260
 05653     +2 63143 2 56260    05654     +2 63143 2 56260    05655     +2 63143 2 56260    05656     +2 63143 2 56260
 05657     +2 63143 2 56260    05660     +2 63143 2 56260    05661     +2 63143 2 56260    05662     +2 63143 2 56260
 05663     +2 63143 2 56260    05664     +2 63143 2 56260    05665     +2 63143 2 56260    05666     +2 63143 2 56260
 05667     +2 63143 2 56260    05670     +2 63143 2 56260    05671     +2 63143 2 56260    05672     +2 63143 2 56260
 05673     +2 63143 2 56260    05674     +2 63143 2 56260    05675     +2 63143 2 56260    05676     +2 63143 2 56260
 05677     +2 63143 2 56260    05700     +2 63143 2 56260    05701     +2 63143 2 56260    05702     +2 63143 2 56260
 05703     +2 63143 2 56260    05704     +2 63143 2 56260    05705     +2 63143 2 56260    05706     +2 63143 2 56260
 05707     +2 63143 2 56260    05710     +2 63143 2 56260    05711     +2 63143 2 56260    05712     +2 63143 2 56260
 05713     +2 63143 2 56260    05714     +2 63143 2 56260    05715     +2 63143 2 56260    05716     +2 63143 2 56260
 05717     +2 63143 2 56260    05720     +2 63143 2 56260    05721     +2 63143 2 56260    05722     +2 63143 2 56260
 05723     +2 63143 2 56260    05724     +2 63143 2 56260    05725     +2 63143 2 56260    05726     +2 63143 2 56260
 05727     +2 63143 2 56260    05730     +2 63143 2 56260    05731     +2 63143 2 56260    05732     +2 63143 2 56260
 05733     +2 63143 2 56260    05734     +2 63143 2 56260    05735     +2 63143 2 56260    05736     +2 63143 2 56260
 05737     +2 63143 2 56260    05740     +2 63143 2 56260    05741     +2 63143 2 56260    05742     +2 63143 2 56260
 05743     +2 63143 2 56260    05744     +2 63143 2 56260    05745     +2 63143 2 56260    05746     +2 63143 2 56260
 05747     +2 63143 2 56260    05750     +2 63143 2 56260    05751     +2 63143 2 56260    05752     +2 63143 2 56260
 05753     +2 63143 2 56260    05754     +2 63143 2 56260    05755     +2 63143 2 56260    05756     +2 63143 2 56260
 05757     +2 63143 2 56260    05760     +2 63143 2 56260    05761     +2 63143 2 56260    05762     +2 63143 2 56260
 05763     +2 63143 2 56260    05764     +2 63143 2 56260    05765     +2 63143 2 56260    05766     +2 63143 2 56260
 05767     +2 63143 2 56260    05770     +2 63143 2 56260    05771     +2 63143 2 56260    05772     +2 63143 2 56260
 05773     +2 63143 2 56260    05774     +2 63143 2 56260    05775     +2 63143 2 56260    05776     +2 63143 2 56260
 05777     +2 63143 2 56260    06000     +2 63143 2 56260    06001     +2 63143 2 56260
                 V'S MASK1 ...MASK1 (150)=777777777777K                             272  LM00351
 04560     -3 77777 7 77777    04561     -3 77777 7 77777    04562     -3 77777 7 77777    04563     -3 77777 7 77777
 04564     -3 77777 7 77777    04565     -3 77777 7 77777    04566     -3 77777 7 77777    04567     -3 77777 7 77777
 04570     -3 77777 7 77777    04571     -3 77777 7 77777    04572     -3 77777 7 77777    04573     -3 77777 7 77777
 04574     -3 77777 7 77777    04575     -3 77777 7 77777    04576     -3 77777 7 77777    04577     -3 77777 7 77777
 04600     -3 77777 7 77777    04601     -3 77777 7 77777    04602     -3 77777 7 77777    04603     -3 77777 7 77777
 04604     -3 77777 7 77777    04605     -3 77777 7 77777    04606     -3 77777 7 77777    04607     -3 77777 7 77777
 04610     -3 77777 7 77777    04611     -3 77777 7 77777    04612     -3 77777 7 77777    04613     -3 77777 7 77777
 04614     -3 77777 7 77777    04615     -3 77777 7 77777    04616     -3 77777 7 77777    04617     -3 77777 7 77777
 04620     -3 77777 7 77777    04621     -3 77777 7 77777    04622     -3 77777 7 77777    04623     -3 77777 7 77777
 04624     -3 77777 7 77777    04625     -3 77777 7 77777    04626     -3 77777 7 77777    04627     -3 77777 7 77777
 04630     -3 77777 7 77777    04631     -3 77777 7 77777    04632     -3 77777 7 77777    04633     -3 77777 7 77777
 04634     -3 77777 7 77777    04635     -3 77777 7 77777    04636     -3 77777 7 77777    04637     -3 77777 7 77777
 04640     -3 77777 7 77777    04641     -3 77777 7 77777    04642     -3 77777 7 77777    04643     -3 77777 7 77777
 04644     -3 77777 7 77777    04645     -3 77777 7 77777    04646     -3 77777 7 77777    04647     -3 77777 7 77777
 04650     -3 77777 7 77777    04651     -3 77777 7 77777    04652     -3 77777 7 77777    04653     -3 77777 7 77777
 04654     -3 77777 7 77777    04655     -3 77777 7 77777    04656     -3 77777 7 77777    04657     -3 77777 7 77777
 04660     -3 77777 7 77777    04661     -3 77777 7 77777    04662     -3 77777 7 77777    04663     -3 77777 7 77777
 04664     -3 77777 7 77777    04665     -3 77777 7 77777    04666     -3 77777 7 77777    04667     -3 77777 7 77777
 04670     -3 77777 7 77777    04671     -3 77777 7 77777    04672     -3 77777 7 77777    04673     -3 77777 7 77777
 04674     -3 77777 7 77777    04675     -3 77777 7 77777    04676     -3 77777 7 77777    04677     -3 77777 7 77777
 04700     -3 77777 7 77777    04701     -3 77777 7 77777    04702     -3 77777 7 77777    04703     -3 77777 7 77777
 04704     -3 77777 7 77777    04705     -3 77777 7 77777    04706     -3 77777 7 77777    04707     -3 77777 7 77777
 04710     -3 77777 7 77777    04711     -3 77777 7 77777    04712     -3 77777 7 77777    04713     -3 77777 7 77777
 04714     -3 77777 7 77777    04715     -3 77777 7 77777    04716     -3 77777 7 77777    04717     -3 77777 7 77777
 04720     -3 77777 7 77777    04721     -3 77777 7 77777    04722     -3 77777 7 77777    04723     -3 77777 7 77777
 04724     -3 77777 7 77777    04725     -3 77777 7 77777    04726     -3 77777 7 77777    04727     -3 77777 7 77777
 04730     -3 77777 7 77777    04731     -3 77777 7 77777    04732     -3 77777 7 77777    04733     -3 77777 7 77777
 04734     -3 77777 7 77777    04735     -3 77777 7 77777    04736     -3 77777 7 77777    04737     -3 77777 7 77777
 04740     -3 77777 7 77777    04741     -3 77777 7 77777    04742     -3 77777 7 77777    04743     -3 77777 7 77777
 04744     -3 77777 7 77777    04745     -3 77777 7 77777    04746     -3 77777 7 77777    04747     -3 77777 7 77777
 04750     -3 77777 7 77777    04751     -3 77777 7 77777    04752     -3 77777 7 77777    04753     -3 77777 7 77777
 04754     -3 77777 7 77777    04755     -3 77777 7 77777    04756     -3 77777 7 77777    04757     -3 77777 7 77777
 04760     -3 77777 7 77777    04761     -3 77777 7 77777    04762     -3 77777 7 77777    04763     -3 77777 7 77777
 04764     -3 77777 7 77777    04765     -3 77777 7 77777    04766     -3 77777 7 77777    04767     -3 77777 7 77777
 04770     -3 77777 7 77777    04771     -3 77777 7 77777    04772     -3 77777 7 77777    04773     -3 77777 7 77777
 04774     -3 77777 7 77777    04775     -3 77777 7 77777    04776     -3 77777 7 77777    04777     -3 77777 7 77777
 05000     -3 77777 7 77777    05001     -3 77777 7 77777    05002     -3 77777 7 77777    05003     -3 77777 7 77777
 05004     -3 77777 7 77777    05005     -3 77777 7 77777    05006     -3 77777 7 77777
                 V'S MASK2 ...MASK2 (150) = 777777777777K                           273  LM00352
 05007     -3 77777 7 77777    05010     -3 77777 7 77777    05011     -3 77777 7 77777    05012     -3 77777 7 77777
 05013     -3 77777 7 77777    05014     -3 77777 7 77777    05015     -3 77777 7 77777    05016     -3 77777 7 77777
 05017     -3 77777 7 77777    05020     -3 77777 7 77777    05021     -3 77777 7 77777    05022     -3 77777 7 77777
 05023     -3 77777 7 77777    05024     -3 77777 7 77777    05025     -3 77777 7 77777    05026     -3 77777 7 77777
 05027     -3 77777 7 77777    05030     -3 77777 7 77777    05031     -3 77777 7 77777    05032     -3 77777 7 77777
 05033     -3 77777 7 77777    05034     -3 77777 7 77777    05035     -3 77777 7 77777    05036     -3 77777 7 77777
 05037     -3 77777 7 77777    05040     -3 77777 7 77777    05041     -3 77777 7 77777    05042     -3 77777 7 77777
 05043     -3 77777 7 77777    05044     -3 77777 7 77777    05045     -3 77777 7 77777    05046     -3 77777 7 77777
 05047     -3 77777 7 77777    05050     -3 77777 7 77777    05051     -3 77777 7 77777    05052     -3 77777 7 77777
 05053     -3 77777 7 77777    05054     -3 77777 7 77777    05055     -3 77777 7 77777    05056     -3 77777 7 77777
 05057     -3 77777 7 77777    05060     -3 77777 7 77777    05061     -3 77777 7 77777    05062     -3 77777 7 77777
 05063     -3 77777 7 77777    05064     -3 77777 7 77777    05065     -3 77777 7 77777    05066     -3 77777 7 77777
 05067     -3 77777 7 77777    05070     -3 77777 7 77777    05071     -3 77777 7 77777    05072     -3 77777 7 77777
 05073     -3 77777 7 77777    05074     -3 77777 7 77777    05075     -3 77777 7 77777    05076     -3 77777 7 77777
 05077     -3 77777 7 77777    05100     -3 77777 7 77777    05101     -3 77777 7 77777    05102     -3 77777 7 77777
 05103     -3 77777 7 77777    05104     -3 77777 7 77777    05105     -3 77777 7 77777    05106     -3 77777 7 77777
 05107     -3 77777 7 77777    05110     -3 77777 7 77777    05111     -3 77777 7 77777    05112     -3 77777 7 77777
 05113     -3 77777 7 77777    05114     -3 77777 7 77777    05115     -3 77777 7 77777    05116     -3 77777 7 77777
 05117     -3 77777 7 77777    05120     -3 77777 7 77777    05121     -3 77777 7 77777    05122     -3 77777 7 77777
 05123     -3 77777 7 77777    05124     -3 77777 7 77777    05125     -3 77777 7 77777    05126     -3 77777 7 77777
 05127     -3 77777 7 77777    05130     -3 77777 7 77777    05131     -3 77777 7 77777    05132     -3 77777 7 77777
 05133     -3 77777 7 77777    05134     -3 77777 7 77777    05135     -3 77777 7 77777    05136     -3 77777 7 77777
 05137     -3 77777 7 77777    05140     -3 77777 7 77777    05141     -3 77777 7 77777    05142     -3 77777 7 77777
 05143     -3 77777 7 77777    05144     -3 77777 7 77777    05145     -3 77777 7 77777    05146     -3 77777 7 77777
 05147     -3 77777 7 77777    05150     -3 77777 7 77777    05151     -3 77777 7 77777    05152     -3 77777 7 77777
 05153     -3 77777 7 77777    05154     -3 77777 7 77777    05155     -3 77777 7 77777    05156     -3 77777 7 77777
 05157     -3 77777 7 77777    05160     -3 77777 7 77777    05161     -3 77777 7 77777    05162     -3 77777 7 77777
 05163     -3 77777 7 77777    05164     -3 77777 7 77777    05165     -3 77777 7 77777    05166     -3 77777 7 77777
 05167     -3 77777 7 77777    05170     -3 77777 7 77777    05171     -3 77777 7 77777    05172     -3 77777 7 77777
 05173     -3 77777 7 77777    05174     -3 77777 7 77777    05175     -3 77777 7 77777    05176     -3 77777 7 77777
 05177     -3 77777 7 77777    05200     -3 77777 7 77777    05201     -3 77777 7 77777    05202     -3 77777 7 77777
 05203     -3 77777 7 77777    05204     -3 77777 7 77777    05205     -3 77777 7 77777    05206     -3 77777 7 77777
 05207     -3 77777 7 77777    05210     -3 77777 7 77777    05211     -3 77777 7 77777    05212     -3 77777 7 77777
 05213     -3 77777 7 77777    05214     -3 77777 7 77777    05215     -3 77777 7 77777    05216     -3 77777 7 77777
 05217     -3 77777 7 77777    05220     -3 77777 7 77777    05221     -3 77777 7 77777    05222     -3 77777 7 77777
 05223     -3 77777 7 77777    05224     -3 77777 7 77777    05225     -3 77777 7 77777    05226     -3 77777 7 77777
 05227     -3 77777 7 77777    05230     -3 77777 7 77777    05231     -3 77777 7 77777    05232     -3 77777 7 77777
 05233     -3 77777 7 77777    05234     -3 77777 7 77777    05235     -3 77777 7 77777
                 V'S CCOUNL...CCOUNL(20)=0                                          274  LM00353
 02510     +0 00000 0 00000    02511     +0 00000 0 00000    02512     +0 00000 0 00000    02513     +0 00000 0 00000
 02514     +0 00000 0 00000    02515     +0 00000 0 00000    02516     +0 00000 0 00000    02517     +0 00000 0 00000
 02520     +0 00000 0 00000    02521     +0 00000 0 00000    02522     +0 00000 0 00000    02523     +0 00000 0 00000
 02524     +0 00000 0 00000    02525     +0 00000 0 00000    02526     +0 00000 0 00000    02527     +0 00000 0 00000
 02530     +0 00000 0 00000    02531     +0 00000 0 00000    02532     +0 00000 0 00000    02533     +0 00000 0 00000
 02534     +0 00000 0 00000
                 V'S CCOUNT...CCOUNT(20)=0                                          275  LM00354
 02535     +0 00000 0 00000    02536     +0 00000 0 00000    02537     +0 00000 0 00000    02540     +0 00000 0 00000
 02541     +0 00000 0 00000    02542     +0 00000 0 00000    02543     +0 00000 0 00000    02544     +0 00000 0 00000
 02545     +0 00000 0 00000    02546     +0 00000 0 00000    02547     +0 00000 0 00000    02550     +0 00000 0 00000
 02551     +0 00000 0 00000    02552     +0 00000 0 00000    02553     +0 00000 0 00000    02554     +0 00000 0 00000
 02555     +0 00000 0 00000    02556     +0 00000 0 00000    02557     +0 00000 0 00000    02560     +0 00000 0 00000
 02561     +0 00000 0 00000
                 V'S CNRECS...CNRECS(20)=0                                          276  LM00355
 03172     +0 00000 0 00000    03173     +0 00000 0 00000    03174     +0 00000 0 00000    03175     +0 00000 0 00000
 03176     +0 00000 0 00000    03177     +0 00000 0 00000    03200     +0 00000 0 00000    03201     +0 00000 0 00000
 03202     +0 00000 0 00000    03203     +0 00000 0 00000    03204     +0 00000 0 00000    03205     +0 00000 0 00000
 03206     +0 00000 0 00000    03207     +0 00000 0 00000    03210     +0 00000 0 00000    03211     +0 00000 0 00000
 03212     +0 00000 0 00000    03213     +0 00000 0 00000    03214     +0 00000 0 00000    03215     +0 00000 0 00000
 03216     +0 00000 0 00000
                 V'S CLNAME...CLNAME(20)=$OTHER$                                    277  LM00356
 03145     -0 66330 2 55160    03146     -0 66330 2 55160    03147     -0 66330 2 55160    03150     -0 66330 2 55160
 03151     -0 66330 2 55160    03152     -0 66330 2 55160    03153     -0 66330 2 55160    03154     -0 66330 2 55160
 03155     -0 66330 2 55160    03156     -0 66330 2 55160    03157     -0 66330 2 55160    03160     -0 66330 2 55160
 03161     -0 66330 2 55160    03162     -0 66330 2 55160    03163     -0 66330 2 55160    03164     -0 66330 2 55160
 03165     -0 66330 2 55160    03166     -0 66330 2 55160    03167     -0 66330 2 55160    03170     -0 66330 2 55160
 03171     -0 66330 2 55160
                 V'S MAX=1                                                          278  LM00357
 05236     +0 00000 0 00001
                 V'S MXCLS=0                                                        279  LM00358
 05321     +0 00000 0 00000
                 V'S FTBL...FTBL(91) = 0                                            280  LM00361
 04353     +0 00000 0 00000    04354     +0 00000 0 00000    04355     +0 00000 0 00000    04356     +0 00000 0 00000
 04357     +0 00000 0 00000    04360     +0 00000 0 00000    04361     +0 00000 0 00000    04362     +0 00000 0 00000
 04363     +0 00000 0 00000    04364     +0 00000 0 00000    04365     +0 00000 0 00000    04366     +0 00000 0 00000
 04367     +0 00000 0 00000    04370     +0 00000 0 00000    04371     +0 00000 0 00000    04372     +0 00000 0 00000
 04373     +0 00000 0 00000    04374     +0 00000 0 00000    04375     +0 00000 0 00000    04376     +0 00000 0 00000
 04377     +0 00000 0 00000    04400     +0 00000 0 00000    04401     +0 00000 0 00000    04402     +0 00000 0 00000
 04403     +0 00000 0 00000    04404     +0 00000 0 00000    04405     +0 00000 0 00000    04406     +0 00000 0 00000
 04407     +0 00000 0 00000    04410     +0 00000 0 00000    04411     +0 00000 0 00000    04412     +0 00000 0 00000
 04413     +0 00000 0 00000    04414     +0 00000 0 00000    04415     +0 00000 0 00000    04416     +0 00000 0 00000
 04417     +0 00000 0 00000    04420     +0 00000 0 00000    04421     +0 00000 0 00000    04422     +0 00000 0 00000
 04423     +0 00000 0 00000    04424     +0 00000 0 00000    04425     +0 00000 0 00000    04426     +0 00000 0 00000
 04427     +0 00000 0 00000    04430     +0 00000 0 00000    04431     +0 00000 0 00000    04432     +0 00000 0 00000
 04433     +0 00000 0 00000    04434     +0 00000 0 00000    04435     +0 00000 0 00000    04436     +0 00000 0 00000
 04437     +0 00000 0 00000    04440     +0 00000 0 00000    04441     +0 00000 0 00000    04442     +0 00000 0 00000
 04443     +0 00000 0 00000    04444     +0 00000 0 00000    04445     +0 00000 0 00000    04446     +0 00000 0 00000
 04447     +0 00000 0 00000    04450     +0 00000 0 00000    04451     +0 00000 0 00000    04452     +0 00000 0 00000
 04453     +0 00000 0 00000    04454     +0 00000 0 00000    04455     +0 00000 0 00000    04456     +0 00000 0 00000
 04457     +0 00000 0 00000    04460     +0 00000 0 00000    04461     +0 00000 0 00000    04462     +0 00000 0 00000
 04463     +0 00000 0 00000    04464     +0 00000 0 00000    04465     +0 00000 0 00000    04466     +0 00000 0 00000
 04467     +0 00000 0 00000    04470     +0 00000 0 00000    04471     +0 00000 0 00000    04472     +0 00000 0 00000
 04473     +0 00000 0 00000    04474     +0 00000 0 00000    04475     +0 00000 0 00000    04476     +0 00000 0 00000
 04477     +0 00000 0 00000    04500     +0 00000 0 00000    04501     +0 00000 0 00000    04502     +0 00000 0 00000
 04503     +0 00000 0 00000    04504     +0 00000 0 00000    04505     +0 00000 0 00000    04506     +0 00000 0 00000
                 V'S RTBL...RTBL(91) = 0                                            281  LM00362
 06242     +0 00000 0 00000    06243     +0 00000 0 00000    06244     +0 00000 0 00000    06245     +0 00000 0 00000
 06246     +0 00000 0 00000    06247     +0 00000 0 00000    06250     +0 00000 0 00000    06251     +0 00000 0 00000
 06252     +0 00000 0 00000    06253     +0 00000 0 00000    06254     +0 00000 0 00000    06255     +0 00000 0 00000
 06256     +0 00000 0 00000    06257     +0 00000 0 00000    06260     +0 00000 0 00000    06261     +0 00000 0 00000
 06262     +0 00000 0 00000    06263     +0 00000 0 00000    06264     +0 00000 0 00000    06265     +0 00000 0 00000
 06266     +0 00000 0 00000    06267     +0 00000 0 00000    06270     +0 00000 0 00000    06271     +0 00000 0 00000
 06272     +0 00000 0 00000    06273     +0 00000 0 00000    06274     +0 00000 0 00000    06275     +0 00000 0 00000
 06276     +0 00000 0 00000    06277     +0 00000 0 00000    06300     +0 00000 0 00000    06301     +0 00000 0 00000
 06302     +0 00000 0 00000    06303     +0 00000 0 00000    06304     +0 00000 0 00000    06305     +0 00000 0 00000
 06306     +0 00000 0 00000    06307     +0 00000 0 00000    06310     +0 00000 0 00000    06311     +0 00000 0 00000
 06312     +0 00000 0 00000    06313     +0 00000 0 00000    06314     +0 00000 0 00000    06315     +0 00000 0 00000
 06316     +0 00000 0 00000    06317     +0 00000 0 00000    06320     +0 00000 0 00000    06321     +0 00000 0 00000
 06322     +0 00000 0 00000    06323     +0 00000 0 00000    06324     +0 00000 0 00000    06325     +0 00000 0 00000
 06326     +0 00000 0 00000    06327     +0 00000 0 00000    06330     +0 00000 0 00000    06331     +0 00000 0 00000
 06332     +0 00000 0 00000    06333     +0 00000 0 00000    06334     +0 00000 0 00000    06335     +0 00000 0 00000
 06336     +0 00000 0 00000    06337     +0 00000 0 00000    06340     +0 00000 0 00000    06341     +0 00000 0 00000
 06342     +0 00000 0 00000    06343     +0 00000 0 00000    06344     +0 00000 0 00000    06345     +0 00000 0 00000
 06346     +0 00000 0 00000    06347     +0 00000 0 00000    06350     +0 00000 0 00000    06351     +0 00000 0 00000
 06352     +0 00000 0 00000    06353     +0 00000 0 00000    06354     +0 00000 0 00000    06355     +0 00000 0 00000
 06356     +0 00000 0 00000    06357     +0 00000 0 00000    06360     +0 00000 0 00000    06361     +0 00000 0 00000
 06362     +0 00000 0 00000    06363     +0 00000 0 00000    06364     +0 00000 0 00000    06365     +0 00000 0 00000
 06366     +0 00000 0 00000    06367     +0 00000 0 00000    06370     +0 00000 0 00000    06371     +0 00000 0 00000
 06372     +0 00000 0 00000    06373     +0 00000 0 00000    06374     +0 00000 0 00000    06375     +0 00000 0 00000
                 V'S CFTBL...CFTBL(91) = 0                                          282  LM00363
 02562     +0 00000 0 00000    02563     +0 00000 0 00000    02564     +0 00000 0 00000    02565     +0 00000 0 00000
 02566     +0 00000 0 00000    02567     +0 00000 0 00000    02570     +0 00000 0 00000    02571     +0 00000 0 00000
 02572     +0 00000 0 00000    02573     +0 00000 0 00000    02574     +0 00000 0 00000    02575     +0 00000 0 00000
 02576     +0 00000 0 00000    02577     +0 00000 0 00000    02600     +0 00000 0 00000    02601     +0 00000 0 00000
 02602     +0 00000 0 00000    02603     +0 00000 0 00000    02604     +0 00000 0 00000    02605     +0 00000 0 00000
 02606     +0 00000 0 00000    02607     +0 00000 0 00000    02610     +0 00000 0 00000    02611     +0 00000 0 00000
 02612     +0 00000 0 00000    02613     +0 00000 0 00000    02614     +0 00000 0 00000    02615     +0 00000 0 00000
 02616     +0 00000 0 00000    02617     +0 00000 0 00000    02620     +0 00000 0 00000    02621     +0 00000 0 00000
 02622     +0 00000 0 00000    02623     +0 00000 0 00000    02624     +0 00000 0 00000    02625     +0 00000 0 00000
 02626     +0 00000 0 00000    02627     +0 00000 0 00000    02630     +0 00000 0 00000    02631     +0 00000 0 00000
 02632     +0 00000 0 00000    02633     +0 00000 0 00000    02634     +0 00000 0 00000    02635     +0 00000 0 00000
 02636     +0 00000 0 00000    02637     +0 00000 0 00000    02640     +0 00000 0 00000    02641     +0 00000 0 00000
 02642     +0 00000 0 00000    02643     +0 00000 0 00000    02644     +0 00000 0 00000    02645     +0 00000 0 00000
 02646     +0 00000 0 00000    02647     +0 00000 0 00000    02650     +0 00000 0 00000    02651     +0 00000 0 00000
 02652     +0 00000 0 00000    02653     +0 00000 0 00000    02654     +0 00000 0 00000    02655     +0 00000 0 00000
 02656     +0 00000 0 00000    02657     +0 00000 0 00000    02660     +0 00000 0 00000    02661     +0 00000 0 00000
 02662     +0 00000 0 00000    02663     +0 00000 0 00000    02664     +0 00000 0 00000    02665     +0 00000 0 00000
 02666     +0 00000 0 00000    02667     +0 00000 0 00000    02670     +0 00000 0 00000    02671     +0 00000 0 00000
 02672     +0 00000 0 00000    02673     +0 00000 0 00000    02674     +0 00000 0 00000    02675     +0 00000 0 00000
 02676     +0 00000 0 00000    02677     +0 00000 0 00000    02700     +0 00000 0 00000    02701     +0 00000 0 00000
 02702     +0 00000 0 00000    02703     +0 00000 0 00000    02704     +0 00000 0 00000    02705     +0 00000 0 00000
 02706     +0 00000 0 00000    02707     +0 00000 0 00000    02710     +0 00000 0 00000    02711     +0 00000 0 00000
 02712     +0 00000 0 00000    02713     +0 00000 0 00000    02714     +0 00000 0 00000    02715     +0 00000 0 00000
                 V'S CRTBL...CRTBL(91) = 0                                          283  LM00364
 03675     +0 00000 0 00000    03676     +0 00000 0 00000    03677     +0 00000 0 00000    03700     +0 00000 0 00000
 03701     +0 00000 0 00000    03702     +0 00000 0 00000    03703     +0 00000 0 00000    03704     +0 00000 0 00000
 03705     +0 00000 0 00000    03706     +0 00000 0 00000    03707     +0 00000 0 00000    03710     +0 00000 0 00000
 03711     +0 00000 0 00000    03712     +0 00000 0 00000    03713     +0 00000 0 00000    03714     +0 00000 0 00000
 03715     +0 00000 0 00000    03716     +0 00000 0 00000    03717     +0 00000 0 00000    03720     +0 00000 0 00000
 03721     +0 00000 0 00000    03722     +0 00000 0 00000    03723     +0 00000 0 00000    03724     +0 00000 0 00000
 03725     +0 00000 0 00000    03726     +0 00000 0 00000    03727     +0 00000 0 00000    03730     +0 00000 0 00000
 03731     +0 00000 0 00000    03732     +0 00000 0 00000    03733     +0 00000 0 00000    03734     +0 00000 0 00000
 03735     +0 00000 0 00000    03736     +0 00000 0 00000    03737     +0 00000 0 00000    03740     +0 00000 0 00000
 03741     +0 00000 0 00000    03742     +0 00000 0 00000    03743     +0 00000 0 00000    03744     +0 00000 0 00000
 03745     +0 00000 0 00000    03746     +0 00000 0 00000    03747     +0 00000 0 00000    03750     +0 00000 0 00000
 03751     +0 00000 0 00000    03752     +0 00000 0 00000    03753     +0 00000 0 00000    03754     +0 00000 0 00000
 03755     +0 00000 0 00000    03756     +0 00000 0 00000    03757     +0 00000 0 00000    03760     +0 00000 0 00000
 03761     +0 00000 0 00000    03762     +0 00000 0 00000    03763     +0 00000 0 00000    03764     +0 00000 0 00000
 03765     +0 00000 0 00000    03766     +0 00000 0 00000    03767     +0 00000 0 00000    03770     +0 00000 0 00000
 03771     +0 00000 0 00000    03772     +0 00000 0 00000    03773     +0 00000 0 00000    03774     +0 00000 0 00000
 03775     +0 00000 0 00000    03776     +0 00000 0 00000    03777     +0 00000 0 00000    04000     +0 00000 0 00000
 04001     +0 00000 0 00000    04002     +0 00000 0 00000    04003     +0 00000 0 00000    04004     +0 00000 0 00000
 04005     +0 00000 0 00000    04006     +0 00000 0 00000    04007     +0 00000 0 00000    04010     +0 00000 0 00000
 04011     +0 00000 0 00000    04012     +0 00000 0 00000    04013     +0 00000 0 00000    04014     +0 00000 0 00000
 04015     +0 00000 0 00000    04016     +0 00000 0 00000    04017     +0 00000 0 00000    04020     +0 00000 0 00000
 04021     +0 00000 0 00000    04022     +0 00000 0 00000    04023     +0 00000 0 00000    04024     +0 00000 0 00000
 04025     +0 00000 0 00000    04026     +0 00000 0 00000    04027     +0 00000 0 00000    04030     +0 00000 0 00000
                 V'S XS...XS(100) = $X$                                             284  LM00365
 06444     -2 76060 6 06060    06445     -2 76060 6 06060    06446     -2 76060 6 06060    06447     -2 76060 6 06060
 06450     -2 76060 6 06060    06451     -2 76060 6 06060    06452     -2 76060 6 06060    06453     -2 76060 6 06060
 06454     -2 76060 6 06060    06455     -2 76060 6 06060    06456     -2 76060 6 06060    06457     -2 76060 6 06060
 06460     -2 76060 6 06060    06461     -2 76060 6 06060    06462     -2 76060 6 06060    06463     -2 76060 6 06060
 06464     -2 76060 6 06060    06465     -2 76060 6 06060    06466     -2 76060 6 06060    06467     -2 76060 6 06060
 06470     -2 76060 6 06060    06471     -2 76060 6 06060    06472     -2 76060 6 06060    06473     -2 76060 6 06060
 06474     -2 76060 6 06060    06475     -2 76060 6 06060    06476     -2 76060 6 06060    06477     -2 76060 6 06060
 06500     -2 76060 6 06060    06501     -2 76060 6 06060    06502     -2 76060 6 06060    06503     -2 76060 6 06060
 06504     -2 76060 6 06060    06505     -2 76060 6 06060    06506     -2 76060 6 06060    06507     -2 76060 6 06060
 06510     -2 76060 6 06060    06511     -2 76060 6 06060    06512     -2 76060 6 06060    06513     -2 76060 6 06060
 06514     -2 76060 6 06060    06515     -2 76060 6 06060    06516     -2 76060 6 06060    06517     -2 76060 6 06060
 06520     -2 76060 6 06060    06521     -2 76060 6 06060    06522     -2 76060 6 06060    06523     -2 76060 6 06060
 06524     -2 76060 6 06060    06525     -2 76060 6 06060    06526     -2 76060 6 06060    06527     -2 76060 6 06060
 06530     -2 76060 6 06060    06531     -2 76060 6 06060    06532     -2 76060 6 06060    06533     -2 76060 6 06060
 06534     -2 76060 6 06060    06535     -2 76060 6 06060    06536     -2 76060 6 06060    06537     -2 76060 6 06060
 06540     -2 76060 6 06060    06541     -2 76060 6 06060    06542     -2 76060 6 06060    06543     -2 76060 6 06060
 06544     -2 76060 6 06060    06545     -2 76060 6 06060    06546     -2 76060 6 06060    06547     -2 76060 6 06060
 06550     -2 76060 6 06060    06551     -2 76060 6 06060    06552     -2 76060 6 06060    06553     -2 76060 6 06060
 06554     -2 76060 6 06060    06555     -2 76060 6 06060    06556     -2 76060 6 06060    06557     -2 76060 6 06060
 06560     -2 76060 6 06060    06561     -2 76060 6 06060    06562     -2 76060 6 06060    06563     -2 76060 6 06060
 06564     -2 76060 6 06060    06565     -2 76060 6 06060    06566     -2 76060 6 06060    06567     -2 76060 6 06060
 06570     -2 76060 6 06060    06571     -2 76060 6 06060    06572     -2 76060 6 06060    06573     -2 76060 6 06060
 06574     -2 76060 6 06060    06575     -2 76060 6 06060    06576     -2 76060 6 06060    06577     -2 76060 6 06060
 06600     -2 76060 6 06060    06601     -2 76060 6 06060    06602     -2 76060 6 06060    06603     -2 76060 6 06060
 06604     -2 76060 6 06060    06605     -2 76060 6 06060    06606     -2 76060 6 06060    06607     -2 76060 6 06060
 06610     -2 76060 6 06060
                 D'N B1(432),B2(432),B3(432)                                        285  LM00367
                 D'N CARD(13)                                                       286  LM00368
                 V'S OUT=$  STAT  FILE$                                             287  LM00370
 06235     -2 06026 3 14325    06236     -2 06062 6 32163
                 V'S SEARCH=$SEARCH$                                                288  LM00371
 06377     -2 22521 5 12330
                 V'S FL=$  FILE$                                                    289  LM00372
 04332     -2 06026 3 14325
                 V'S M1=77777K                                                      290  LM00374
 04553     +0 00000 0 77777
                 V'S M2=77776K                                                      291  LM00375
 04554     +0 00000 0 77776
                 V'S M3=77775K                                                      292  LM00376
 04555     +0 00000 0 77775
                 V'S M4=77774K                                                      293  LM00377
 04556     +0 00000 0 77774
                 V'S M5=77773K                                                      294  LM00378
 04557     +0 00000 0 77773
                 V'S HEAD=$H'1        M A S S A C H U S E T T S   I N S T I',       295  LM00382
                1H' T U T E   O F   T E C H N O L O G Y',/,/,                       295  LM00383
                211X,H'      I N F O R M A T I O N   P R O C E S S I N G ',         295  LM00384
                3H'  C E N T E R'*$                                                 295  LM00385
 04507     -2 05114 5 46060    04510     -2 04560 6 36025    04511     +1 46060 2 36025    04512     +1 47360 6 06030
 04513     +3 16045 6 02760    04514     +2 56062 6 06260    04515     -1 16046 6 02360    04516     -0 56060 6 04760
 04517     -2 36031 6 04660    04520     -1 16044 6 02160    04521     -0 56026 6 04660    04522     -2 06060 6 03160
 04523     -2 77330 1 46060    04524     -2 06060 6 00101    04525     -2 06060 6 06060    04526     -2 06060 6 06060
 04527     -3 36173 6 17360    04530     -0 66027 6 07014    04531     -0 56046 6 04360    04532     +2 56023 6 03060
 04533     +2 66060 6 06360    04534     +2 56060 6 04660    04535     -2 36064 6 06360    04536     +1 47360 3 01460
 04537     -2 06260 6 36031    04540     -2 06060 3 16045    04541     -2 06360 6 36062    04542     -2 06460 6 26025
 04543     -2 02160 2 36030    04544     -2 02160 6 26062    04545     -2 06060 6 06044    04546     +3 01401 6 06060
                 V'S SYSHED=$1H0,30X,H'(EXCLUDING SYSTEM FILES)'*$                  296  LM00387
 06402     -0 32562 3 41454    06403     -2 32544 6 02631    06404     -0 52760 6 27062    06405     -2 72343 6 42431
 06406     -2 77330 1 47425    06407     +0 13000 7 30300
                 V'S F0 = $1H0,S8,H'SECONDARY STORAGE USAGE SUMMARY PREPARED'       297  LM00389
                1, S2,C6,S2,C3,2H, C3,I3,4H, 19,I2,H'   SYSTEM ',C6*$               297  LM00390
 04060     -2 01473 2 30654    04061     -2 27062 6 32544    04062     -3 33014 6 06060    04063     -2 00111 7 33102
 04064     +3 10373 0 43073    04065     +3 07360 2 30373    04066     +0 27323 0 37302    04067     +0 27323 0 67362
 04070     +2 41460 7 36062    04071     -1 12547 2 15125    04072     -0 42151 7 06047    04073     +2 72560 6 26444
 04074     +2 72560 6 46221    04075     -2 06263 4 65121    04076     -0 64524 2 15170    04077     -3 33014 6 22523
 04100     +0 13000 7 36210
                 V'S F1= $1H0,S18,H'FILES   RECORDS',S27,H'MEAN   STD DEV.',/,      298  LM00392
                11H0,S8,H'DISK ',I10,I10,S7,H'FILES/UFD      ',2F10.3,/,            298  LM00393
                21H0,S8,H'UFD  ',I10,S10,S7,H'RECS/UFD       ',2F10.3,/,            298  LM00394
                31H0,S8,H'LINKS',I10,S10,S7,H'LINKS/UFD      ',2F10.3,/,            298  LM00395
                41H0,S40,                   H'FILE LENGTH    ',2F10.3,/,            298  LM00396
                51H0,S40,                   H'FILE AGE (DAYS)',2F10.3*$             298  LM00397
 04114     -1 46060 6 06060    04115     +0 22601 0 03303    04116     +2 17062 3 41473    04117     +2 12725 6 07424
 04120     +1 42631 4 32560    04121     -2 06060 6 06030    04122     -2 06060 6 06060    04123     -2 06060 6 06060
 04124     -2 20400 7 36060    04125     -2 06001 3 00073    04126     -2 17360 6 06060    04127     +2 60100 3 30373
 04130     -2 06060 1 47302    04131     +2 54527 6 33060    04132     +2 63143 2 56043    04133     -2 06060 6 03014
 04134     -2 06060 6 06060    04135     -2 06060 6 06060    04136     +0 40073 6 06060    04137     -2 00130 0 07362
 04140     -3 36060 6 06060    04141     +0 10033 0 37361    04142     -2 06014 7 30226    04143     +2 62460 6 06060
 04144     +3 14542 6 26164    04145     -2 20773 3 01443    04146     +0 07362 0 10073    04147     -0 26214 7 33101
 04150     -3 33014 4 33145    04151     +0 13000 7 36210    04152     -2 06060 6 06060    04153     +0 03303 7 36173
 04154     -2 01473 0 22601    04155     -2 06060 6 06060    04156     +2 36261 6 42624    04157     +0 77330 1 45125
 04160     -3 36201 0 07362    04161     -2 01473 3 10100    04162     +3 01464 2 62460    04163     +3 00073 6 21073
 04164     -2 06060 6 06001    04165     +3 30373 6 17360    04166     +1 47302 2 60100    04167     -2 06060 6 06060
 04170     +2 56261 6 42624    04171     -3 33014 2 63143    04172     +3 10100 7 36207    04173     +1 47331 0 10073
 04174     +1 42431 6 24260    04175     +0 07362 1 07330    04176     +1 47361 7 30130    04177     +2 46024 2 56533
 04200     -0 56060 6 06263    04201     -3 33014 4 42521    04202     -2 21473 6 20207    04203     -1 12523 4 65124
 04204     -0 32562 6 06060    04205     +1 07330 1 42631    04206     +0 13000 7 36201
                 V'S F3 = $1H-,S8,H'CAPACITY',I9,H', USED',I9,                      299  LM00399
                1 H', LEFT',I9,H', WASTE',F7.3,H' PER CENT.'*$                      299  LM00400
 04207     -0 56333 1 45460    04210     -0 72551 6 02325    04211     +3 30373 3 01460    04212     -2 32514 7 32607
 04213     +1 47360 6 62162    04214     +1 47331 1 17330    04215     -3 36043 2 52663    04216     -2 06060 6 03014
 04217     -2 06060 6 06060    04220     -2 06060 6 06060    04221     +1 47331 1 17360    04222     -3 36064 6 22524
 04223     -3 33111 7 33014    04224     +2 12331 6 37014    04225     -3 33014 2 32147    04226     +0 13040 7 36210
                 V'S F4 = $1H-,S8,H'SUMMARY BY MODE BIT',//,S9,                     300  LM00402
                1H'MODE    FILES     RECS ',/*$                                     300  LM00403
 04231     -2 15460 6 06060    04232     +2 52362 6 01473    04233     -2 06060 6 06051    04234     -2 02631 4 32562
 04235     -0 62425 6 06060    04236     -2 06060 3 01444    04237     -2 06060 6 06060    04240     -2 06060 6 06060
 04241     -2 16173 6 21173    04242     -2 02231 6 31473    04243     -3 06044 4 62425    04244     -0 42151 7 06022
 04245     -3 33014 6 26444    04246     +0 13040 7 36210
                 V'S F4A = $S10,CR3,2I9*$                                           301  LM00405
 04227     +0 37302 3 11154    04230     -2 20100 7 32351
                 V'S F5 = $1H0,S8,H'SUMMARY BY DATE OF LAST REFERENCE TO FILE'      302  LM00407
                1*$                                                                 302  LM00408
 04262     -0 32514 5 46060    04263     -2 06346 6 02631    04264     +2 55125 4 52325    04265     -2 26360 5 12526
 04266     -2 04626 6 04321    04267     -3 06024 2 16325    04270     -0 42151 7 06022    04271     -3 33014 6 26444
 04272     +0 13000 7 36210
                 V'S F5A =                                                          303  LM00410
                1$H'0     AGE   FILES  OLDER  RECS   OLDER     LINEAR PLOT'         303  LM00411
                2,//*$                                                              303  LM00412
 04247     -3 36161 5 46060    04250     -0 66314 6 06060    04251     +2 52151 6 04743    04252     -2 06060 4 33145
 04253     -0 32425 5 16060    04254     +2 36260 6 06046    04255     +2 55160 6 05125    04256     -2 26060 4 64324
 04257     -2 06026 3 14325    04260     -2 06021 2 72560    04261     +3 01400 6 06060
                 V'S F6 = $1H0,S8,H'SUMMARY BY DATE OF CREATION OF FILE'*$          304  LM00414
 04273     -0 32514 5 46060    04274     -2 04626 6 02631    04275     +2 52163 3 14645    04276     -2 04626 6 02351
 04277     -3 06024 2 16325    04300     -0 42151 7 06022    04301     -3 33014 6 26444    04302     +0 13000 7 36210
                 V'S F7 = $1H ,C5,I3,S1,4I7,S2,100C1*$                              305  LM00416
 04303     +0 15460 6 06060    04304     +0 27301 0 00023    04305     -3 30431 0 77362    04306     -3 33103 7 36201
 04307     +0 13060 7 32305
                 V'S F9 = $H'0 DISK USAGE BY CLASS NAME',//,                        306  LM00418
                1H'0      NAME1  NAME2  TYPE  FILES  RECORDS  LINKS',/*$            306  LM00419
 04310     -3 36154 6 06060    04311     -0 33145 4 26214    04312     -0 65124 6 26060    04313     -2 26060 5 12523
 04314     -2 06026 3 14325    04315     -2 06063 7 04725    04316     -2 04521 4 42502    04317     -0 52144 2 50160
 04320     -2 06060 6 06060    04321     -2 06060 3 01400    04322     -2 06060 6 06060    04323     -2 06060 6 06060
 04324     -2 16173 6 06060    04325     -0 52144 2 51473    04326     +2 34321 6 26260    04327     +2 72560 2 27060
 04330     -2 24260 6 46221    04331     +3 01400 6 02431
                 V'S F10 = $/,/,/,/15H  SCALE - ONE ',C1,4H' = ,I4,                 307  LM00421
                1 H' RECORDS.'*$                                                    307  LM00422
 04101     -2 23314 5 46060    04102     -1 12523 4 65124    04103     -2 06060 3 01460    04104     -2 06060 6 06060
 04105     +3 10473 6 06060    04106     +3 01460 1 36073    04107     +1 47323 0 17304    04110     -0 06046 4 52560
 04111     -2 22321 4 32560    04112     -2 10105 3 06060    04113     -2 17361 7 36173
                 V'S FM1=$S6,C6,S1,C6,S3,I2,3I8*$                                   308  LM00424
 04333     +0 33110 5 46060    04334     -2 20373 3 10273    04335     -2 20173 2 30673    04336     -2 20673 2 30673
                 V'S FM2=$H'- USAGE BY TYPE            FILES  RECORDS  LINKS'       309  LM00426
                1,/*$                                                               309  LM00427
 04337     -1 46060 6 06060    04340     -0 26214 6 07361    04341     -2 26060 4 33145    04342     -1 12523 4 65124
 04343     +3 14325 6 26060    04344     -2 06060 6 06026    04345     -2 06060 6 06060    04346     -2 06370 4 72560
 04347     +2 12725 6 02270    04350     +3 01440 6 06462
                 E'N                                                                310  LM00429
 10551 TSX +0 07400 4 00013    10552 TXH +3 00000 0 00000    10553 SXD -0 63400 1 10552    10554 SXA +0 63400 4 10577
 10555 CLA +0 50000 4 00001    10556 STA +0 62100 0 07130    10557 STA +0 62100 0 07136    10560 STA +0 62100 0 07175
 10561 STA +0 62100 0 07242    10562 CLA +0 50000 4 00002    10563 STA +0 62100 0 07122    10564 STA +0 62100 0 07172
 10565 STA +0 62100 0 07244    10566 CLA +0 50000 4 00003    10567 STA +0 62100 0 07143    10570 STA +0 62100 0 07145
 10571 STA +0 62100 0 07152    10572 STA +0 62100 0 07161    10573 STA +0 62100 0 07344    10574 STA +0 62100 0 07520
 10575 STA +0 62100 0 07576    10576 TRA +0 02000 2 00001    10577 AXT +0 77400 4 00000    10600 LXA +0 53400 2 10552
 10601 LXD -0 53400 1 10552    10602 TRA +0 02000 4 00001
1        FSTAT - CALLING  PROGRAM FOR ALSTAT PROGRAMS                            02/09/69  658.9 PAGE 1

                              *
                              * RECONSTRUCTED FROM FSTAT BSS BY ROGER ROACH 6/7/67
                              *
                                     EXTERN  FINIT,COUNTR,FPRINT

        TRANSFER VECTOR
      00000  263145316360     FINIT
      00001  234664456351     COUNTR
      00002  264751314563     FPRINT

      00003  0074 00 4 00153         TSX     ATTNAM,4
      00004  3 00002 0 00140         PTH     HOME,,2
      00005  0074 00 4 00161         TSX     SETBRK,4
      00006  3 00000 0 00131         PTH     INTERP
      00007  0074 00 4 00000         TSX     FINIT,4       INITIALIZE SUB PROGRAMS
      00010  0074 00 4 00154         TSX     ATTACH,4      GO TO MFD
      00011  3 00000 0 00136         PTH     MFD
      00012  3 00000 0 00137         PTH     FILE
      00013  0074 00 4 00152         TSX     FSTATE,4
      00014  3 00000 0 00136         PTH     MFD
      00015  3 00000 0 00137         PTH     FILE
      00016  3 00001 0 00144         PTH     LEN,,1        GET LENGTH OF MFD
      00017  0500 00 0 00144         CLA     LEN
      00020  0402 00 0 00164         SUB     =25           BYPASS USAGE TABLE AND DSKEDT FILE
      00021  0601 00 0 00144         STO     LEN
      00022  0734 00 4 00000         PAX     ,4
      00023 -0636 00 4 00127         SCD     TST1,4
      00024  0074 00 4 00157         TSX     GETMEM,4
      00025  0621 00 0 00052         STA     LOC1          BEGINNING OF MFD FILE
      00026  0621 00 0 00057         STA     LOC2
      00027  0361 00 0 00144         ACL     LEN           EXTEND FOR LENGTH OF MFD FILE
      00030  0621 00 0 00076         STA     LOC4          BOTTOM OF MFD FILE
      00031  0621 00 0 00145         STA     LEN2          FIRST LOC OF FREE LOCATIONS
      00032  0621 00 0 00114         STA     ZETTST        USED IN TESTS
      00033  0361 00 0 00162         ACL     =1            GET NEXT LOCATION
      00034  0621 00 0 00116         STA     ZETST2        FOR TEST OF LOC+1
                              *
      00035 -0500 00 0 00057         CAL     LOC2
      00036  0361 00 0 00162         ACL     =1
      00037  0621 00 0 00062         STA     LOC3
      00040 -0500 00 0 00165         CAL     =O77777       WANT ALL OF CORE
      00041  0074 00 4 00160         TSX     SETMEM,4
      00042  0074 00 4 00147         TSX     OPEN,4        READ IN THE MFD
      00043  3 00000 0 00177         PTH     =HR
      00044  3 00000 0 00136         PTH     MFD
      00045  3 00000 0 00137         PTH     FILE
      00046  0074 00 4 00150         TSX     RDFILE,4
      00047  3 00000 0 00136         PTH     MFD
      00050  3 00000 0 00137         PTH     FILE
      00051  3 00000 0 00164         PTH     =25
      00052  2 00144 0 00000  LOC1   PTW     **,,LEN
      00053  0074 00 4 00151         TSX     CLOSE,4
      00054  3 00000 0 00136         PTH     MFD
      00055  3 00000 0 00137         PTH     FILE
                              *
1        FSTAT - CALLING  PROGRAM FOR ALSTAT PROGRAMS                            02/09/69  658.9 PAGE 2

      00056 -0774 00 1 00000         AXC     0,1           PLACE -1 IN XR1
      00057 -0500 00 1 00000  LOC2   CAL     **,1          GET FIRST WORD IN ENTRY
      00060  0100 00 0 00125         TZE     OVER          BYPASS IF 0
      00061  0602 00 0 00142         SLW     NAME1
      00062 -0500 00 1 00000  LOC3   CAL     **,1
      00063  0100 00 0 00125         TZE     OVER
      00064  0602 00 0 00143         SLW     NAME2
1        FSTAT - CALLING  PROGRAM FOR ALSTAT PROGRAMS                            02/09/69  658.9 PAGE 3

      00065  0074 00 4 00147         TSX     OPEN,4        READ IN THE UFD
      00066  3 00000 0 00177         PTH     =HR
      00067  3 00000 0 00142         PTH     NAME1
      00070  3 00000 0 00143         PTH     NAME2
      00071  3 00000 0 00125         PTH     OVER
      00072  0074 00 4 00150         TSX     RDFILE,4
      00073  3 00000 0 00142         PTH     NAME1
      00074  3 00000 0 00143         PTH     NAME2
      00075  3 00000 0 00163         PTH     =4            BYPASS POINTERS
      00076  3 23420 0 00000  LOC4   PTH     **,,10000
      00077  3 00000 0 00102         PTH     *+3
      00100  3 00000 0 00146         PTH     EOFCT
      00101  0020 00 0 00125         TRA     OVER          SHOULDN'T HIT EOF
      00102  0534 00 4 00146         LXA     EOFCT,4
      00103 -3 00000 4 00125         TXL     OVER,4,0      ZERO LENGTH FILE DIRECTORY
      00104 -0636 00 4 00124         SCD     OVER-1,4      SAVE -LENGTH OF FILE DIRECTORY
      00105  0074 00 4 00151         TSX     CLOSE,4
      00106  3 00000 0 00142         PTH     NAME1
      00107  3 00000 0 00143         PTH     NAME2
1        FSTAT - CALLING  PROGRAM FOR ALSTAT PROGRAMS                            02/09/69  658.9 PAGE 4

      00110 -0774 00 2 00000         AXC     0,2           -1 INTO XR2
      00111  0756 00 2 00000  LOOP   PCA     ,2
      00112  0361 00 0 00145         ACL     LEN2
      00113  0621 00 0 00122         STA     LOC5
      00114  0520 00 2 00000  ZETTST ZET     **,2
      00115  0020 00 0 00117         TRA     *+2
      00116  0520 00 2 00000  ZETST2 ZET     **,2
      00117  0074 00 4 00001         TSX     COUNTR,4      A VALUE IS NON-ZERO
      00120  3 00000 0 00142         PTH     NAME1
      00121  3 00000 0 00143         PTH     NAME2
      00122  3 00000 0 00000  LOC5   PTH     **
      00123  1 77771 2 00124         TXI     *+1,2,-7
      00124  3 00000 2 00111         TXH     LOOP,2,**
      00125  0074 00 4 00156  OVER   TSX     RESETF,4
      00126  1 77771 1 00127         TXI     *+1,1,-7      GO TO NEXT UFD IN MFD
      00127  3 00000 1 00057  TST1   TXH     LOC2,1,**
      00130  0074 00 4 00002         TSX     FPRINT,4
      00131  0074 00 4 00154  INTERP TSX     ATTACH,4
      00132  3 00000 0 00140         PTH     HOME
      00133  3 00000 0 00141         PTH     HOME+1
      00134  0074 00 4 00155         TSX     CHNCOM,4
      00135  3 00000 0 00000         PTH     0
                              *
                              *
      00136  443326332433     MFD    BCI     1,M.F.D.
      00137  742631432534     FILE   BCI     1,(FILE)
      00140                   HOME   BSS     2
      00142  0 00000 0 00000  NAME1
      00143  0 00000 0 00000  NAME2
      00144  0 00000 0 00000  LEN
      00145  0 00000 0 00000  LEN2
      00146  0 00000 0 00000  EOFCT
      00147  0101 00 0 00174  OPEN   TIA     =HOPEN
      00150  0101 00 0 00175  RDFILE TIA     =HRDFILE
      00151  0101 00 0 00171  CLOSE  TIA     =HCLOSE
      00152  0101 00 0 00172  FSTATE TIA     =HFSTATE
      00153  0101 00 0 00167  ATTNAM TIA     =HATTNAM
      00154  0101 00 0 00166  ATTACH TIA     =HATTACH
      00155  0101 00 0 00170  CHNCOM TIA     =HCHNCOM
      00156  0101 00 0 00176  RESETF TIA     =HRESETF
      00157  0101 00 0 00173  GETMEM TIA     =HGETMEM
      00160  0101 00 0 00201  SETMEM TIA     =HSETMEM
      00161  0101 00 0 00200  SETBRK TIA     =HSETBRK
                                     END

        LITERALS
      00162  000000000001
      00163  000000000004
      00164  000000000031
      00165  000000077777
      00166  216363212330
      00167  216363452144
      00170  233045234644
      00171  234346622560
      00172  266263216325
      00173  272563442544
1        FSTAT - CALLING  PROGRAM FOR ALSTAT PROGRAMS                            02/09/69  658.9 PAGE 5

      00174  464725456060
      00175  512426314325
      00176  512562256326
      00177  516060606060
      00200  622563225142
      00201  622563442544
1        FSTAT - CALLING  PROGRAM FOR ALSTAT PROGRAMS                            02/09/69  658.9 PAGE 1
                        POST PROCESSOR ASSEMBLY DATA

        202 IS THE FIRST LOCATION NOT USED BY THIS PROGRAM

0REFERENCES TO DEFINED SYMBOLS
        144    LEN    16,   17,   21,   27,   52
        136    MFD    11,   14,   44,   47,   54
        137   FILE    12,   15,   45,   50,   55
        140   HOME     4,  132,  133
        145   LEN2    31,  112
         52   LOC1    25
         57   LOC2    26,   35,  127
         62   LOC3    37
         76   LOC4    30
        122   LOC5   113
        111   LOOP   124
        147   OPEN    42,   65
        125   OVER    60,   63,   71,  101,  103,  104
        127   TST1    23
        151  CLOSE    53,  105
        146  EOFCT   100,  102
          0  FINIT     7
        142  NAME1    61,   67,   73,  106,  120
        143  NAME2    64,   70,   74,  107,  121
        154 ATTACH    10,  131
        153 ATTNAM     3
        155 CHNCOM   134
          1 COUNTR   117
          2 FPRINT   130
        152 FSTATE    13
        157 GETMEM    24
        131 INTERP     6
        150 RDFILE    46,   72
        156 RESETF   125
        161 SETBRK     5
        160 SETMEM    41
        116 ZETST2    34
        114 ZETTST    32

0 NO ERROR IN ABOVE ASSEMBLY.
1     MAD PROGRAM LISTING ... ... ...                 FILE  FPRINT   MAD            02/09/69    0656.8
-
                  EXTERNAL FUNCTION                                                               *001 LM00001
                                                                                                       LM00002
                  NORMAL MODE IS INTEGER                                                          *002 LM00003
                                                                                                       LM00004
                  VECTOR VALUES TOTAL = $/H'TOTAL FILES = 'I6,/H'TOTAL RECORDS = 'I6//*$          *003 LM00005
                  VECTOR VALUES MOD = $I2,H' MOD'I2,H' = 'I6*$                                    *004 LM00006
                  VECTOR VALUES USED = $I3,H' = 'I6,S5,'AMT'(1HX)*$                               *005 LM00007
                  VECTOR VALUES GOP = $H'PERCENTAGE WASTE = ',2PF6.2*$                            *006 LM00008
                  FORMAT VARIABLE AMT                                                             *007 LM00009
                  FLOATING POINT FAMT, PCNT, WASTE, LOG.                                          *008 LM00010
                                                                                                       LM00011
                                                                                                       LM00012
                  PROGRAM COMMON MODTBL (3), STATBL (78), TFILS, TRECS                            *009 LM00013
                                                                                                       LM00014
                                                                                                       LM00015
                  ENTRY TO FPRINT.                                                                *010 LM00016
                                                                                                       LM00017
                  PRINT FORMAT TOTAL, TFILS, TRECS                                                *011 LM00018
                                                                                                       LM00019
                  THROUGH LOOP2, FOR VALUES OF I = 0, 1                                           *012 LM00020
                  PRINT FORMAT MOD, I, 2, MODTBL (I) + MODTBL (I + 2)                             *013 LM00021
      LOOP2       CONTINUE                                                                        *014 LM00022
                                                                                                       LM00023
                  WASTE = MODTBL (1) + MODTBL (3)                                                 *015 LM00024
                  PCNT = WASTE / (WASTE + TRECS)                                                  *016 LM00025
                  PRINT FORMAT GOP, PCNT                                                          *017 LM00026
                  WASTE = 0.0                                                                     *018 LM00027
                                                                                                       LM00028
                  PRINT FORMAT $//*$                                                              *019 LM00029
                                                                                                       LM00030
                  THROUGH LOOP4, FOR I = 0, 1, I .GE. 4                                           *020 LM00031
                  PRINT FORMAT MOD, I, 4, MODTBL (I)                                              *021 LM00032
                  WHENEVER I .NE. 0, WASTE = WASTE + MODTBL (I) * (4 - I)                         *022 LM00033
      LOOP4       CONTINUE                                                                        *023 LM00034
                                                                                                       LM00035
                  PCNT = WASTE / (WASTE + TRECS)                                                  *024 LM00036
                  PRINT FORMAT GOP, PCNT                                                          *025 LM00037
                                                                                                       LM00038
                  PRINT FORMAT $//*$                                                              *026 LM00039
                                                                                                       LM00040
                  THROUGH SLOOP, FOR I = 0, 1, I .G. 78                                           *027 LM00041
                  FAMT = STATBL (I)                                                               *028 LM00042
                  AMT = 0                                                                         *029 LM00043
                  WHENEVER STATBL (I) .NE. 0, AMT = 5.0 * LOG. (FAMT)                             *030 LM00044
                  PRINT FORMAT USED,  I, STATBL (I)                                               *031 LM00045
      SLOOP       CONTINUE                                                                        *032 LM00046
                                                                                                       LM00047
                                                                                                       LM00048
                  FUNCTION RETURN                                                                 *033 LM00049
                                                                                                       LM00050
                                                                                                       LM00051
                  END OF FUNCTION                                                                 *034 LM00052
1MAD PROGRAM,TYPE NOV 1963      (ALL NUMBERS ARE OCTAL)
0TOTAL LOCATIONS   00307 TRANSFER VECTOR LENGTH  00003 PROGRAM BEGINS    00047 FIRST UNUSED COMMON/ERASABLE  77334
0 PROGRAM IS AN EXTERNAL FUNCTION.   THE FOLLOWING ARE ENTRIES
      FPRINT 00050   0
0VARIABLE STORAGE (A=ARRAY,C=COMMON,E=ERASABLE,DIGIT=MODE)
      AMT    00004   1        LOOP2  00003   4        MODTBL 77461 AC1        STATBL 77455 AC1        TRECS  77335  C1
      FAMT   00005   0        LOOP4  00003   4        PCNT   00020   0        TFILS  77336  C1        USED   00035 A 1
      GOP    00012 A 1        MOD    00017 A 1        SLOOP  00003   4        TOTAL  00030 A 1        WASTE  00036   0
      I      00013   1
0FUNCTION DICTIONARY
      EXIT   00000   1        .PRINT 00001   1        LOG    00002   0
0ABSOLUTE CONSTANTS
 00044 +203500000000     00043 +000000000116     00042 +000000000004     00046 -216154606060     00041 +000000000002
 00037 +000000000000     00040 +000000000001     00045 +233000000000
0PROGRAM
                 EXTERNAL FUNCTION                                                  001  LM00001
                 N'R                                                                002  LM00003
                 V'S TOTAL = $/H'TOTAL FILES = 'I6,/H'TOTAL RECORDS = 'I6//*$       003  LM00005
 00021     +0 66161 5 46060    00022     -2 26013 6 01431    00023     -1 12523 4 65124    00024     -2 34663 2 14360
 00025     +3 10673 6 13014    00026     +2 56260 1 36014    00027     +2 14360 2 63143    00030     -2 13014 6 34663
                 V'S MOD = $I2,H' MOD'I2,H' = 'I6*$                                 004  LM00006
 00014     +1 43106 5 46060    00015     -3 33014 6 01360    00016     -0 44624 1 43102    00017     +3 10273 3 01460
                 V'S USED = $I3,H' = 'I6,S5,'AMT'(1HX)*$                            005  LM00007
 00031     +3 45460 6 06060    00032     -2 31474 0 13067    00033     -2 20573 1 42144    00034     +1 36014 3 10673
 00035     +3 10373 3 01460
                 V'S GOP = $H'PERCENTAGE WASTE = ',2PF6.2*$                         006  LM00008
 00006     -0 72606 3 30254    00007     -2 01360 1 47302    00010     -2 06621 6 26325    00011     +2 54563 2 12725
 00012     +3 01447 2 55123
                 FORMAT VARIABLE AMT                                                007  LM00009
                 F'T FAMT, PCNT, WASTE, LOG.                                        008  LM00010
                 P'N MODTBL (3), STATBL (78), TFILS, TRECS                          009  LM00013
                 E'O FPRINT.                                                        010  LM00016
 00047 TRA +0 02000 0 00052    00050 SXA +0 63400 2 00272    00051 TSX +0 07400 2 00272
                 P'T TOTAL, TFILS, TRECS                                            011  LM00018
 00052 TSX +0 07400 4 00001    00053 STR -1 00030 1 00305    00054 STR -1 00000 0 77336    00055 STR -1 00000 0 77335
 00056 STR -1 00000 0 00000
                 T'H LOOP2, FOR VALUES OF I = 0, 1                                  012  LM00020
 00057 CLA +0 50000 0 00037    00060 STO +0 60100 0 00013    00061 CLA +0 50000 0 00064    00062 STO +0 60100 0 00073
 00063 TRA +0 02000 0 00074    00064 TRA +0 02000 0 00065    00065 CLA +0 50000 0 00040    00066 STO +0 60100 0 00013
 00067 CLA +0 50000 0 00072    00070 STO +0 60100 0 00073    00071 TRA +0 02000 0 00074    00072 TRA +0 02000 0 00112
 00073 TRA +0 02000 0 00073
                 P'T MOD, I, 2, MODTBL (I) + MODTBL (I + 2)                         013  LM00021
 00074 TSX +0 07400 4 00001    00075 STR -1 00017 1 00305    00076 STR -1 00000 0 00013    00077 STR -1 00000 0 00041
 00100 CLA +0 50000 0 00013    00101 ADD +0 40000 0 00041    00102 LXA +0 53400 1 00013    00103 PAX +0 73400 2 00000
 00104 CLA +0 50000 1 77461    00105 ADD +0 40000 2 77461    00106 STO +0 60100 0 00302    00107 STR -1 00000 0 00302
 00110 STR -1 00000 0 00000
      LOOP2      C'E                                                                014  LM00022
 00111 TRA +0 02000 0 00073
                 WASTE = MODTBL (1) + MODTBL (3)                                    015  LM00024
 00112 CLA +0 50000 0 77460    00113 ADD +0 40000 0 77456    00114 ORA -0 50100 0 00045    00115 FAD +0 30000 0 00045
 00116 STO +0 60100 0 00036
                 PCNT = WASTE / (WASTE + TRECS)                                     016  LM00025
 00117 CLA +0 50000 0 77335    00120 ORA -0 50100 0 00045    00121 FAD +0 30000 0 00045    00122 FAD +0 30000 0 00036
 00123 STO +0 60100 0 00302    00124 CLA +0 50000 0 00036    00125 FDP +0 24100 0 00302    00126 STQ -0 60000 0 00020
                 P'T GOP, PCNT                                                      017  LM00026
 00127 TSX +0 07400 4 00001    00130 STR -1 00012 1 00305    00131 STR -1 00000 0 00020    00132 STR -1 00000 0 00000
                 WASTE = 0.0                                                        018  LM00027
 00133 CLA +0 50000 0 00037    00134 STO +0 60100 0 00036
                 P'T $//*$                                                          019  LM00029
 00135 TSX +0 07400 4 00001    00136 STR -1 00046 1 00305    00137 STR -1 00000 0 00000
                 T'H LOOP4, FOR I = 0, 1, I .GE. 4                                  020  LM00031
 00140 CLA +0 50000 0 00037    00141 STO +0 60100 0 00013    00142 TRA +0 02000 0 00146    00143 CLA +0 50000 0 00013
 00144 ADD +0 40000 0 00040    00145 STO +0 60100 0 00013    00146 CLA +0 50000 0 00013    00147 SUB +0 40200 0 00042
 00150 TZE +0 10000 0 00202    00151 TPL +0 12000 0 00202
                 P'T MOD, I, 4, MODTBL (I)                                          021  LM00032
 00152 TSX +0 07400 4 00001    00153 STR -1 00017 1 00305    00154 STR -1 00000 0 00013    00155 STR -1 00000 0 00042
 00156 CLA +0 50000 0 00013    00157 SUB +0 40200 0 00160    00160 TXH +3 00000 0 77461    00161 STA +0 62100 0 00162
 00162 STR -1 00000 0 00000    00163 STR -1 00000 0 00000
                 W'R I .NE. 0, WASTE = WASTE + MODTBL (I) * (4 - I)                 022  LM00033
 00164 CLA +0 50000 0 00013    00165 SUB +0 40200 0 00037    00166 TZE +0 10000 0 00201    00167 CLA +0 50000 0 00042
 00170 SUB +0 40200 0 00013    00171 LXA +0 53400 1 00013    00172 XCA +0 13100 0 00000    00173 MPY +0 20000 1 77461
 00174 XCA +0 13100 0 00000    00175 ORA -0 50100 0 00045    00176 FAD +0 30000 0 00045    00177 FAD +0 30000 0 00036
 00200 STO +0 60100 0 00036
      LOOP4      C'E                                                                023  LM00034
 00201 TRA +0 02000 0 00143
                 PCNT = WASTE / (WASTE + TRECS)                                     024  LM00036
 00202 CLA +0 50000 0 77335    00203 ORA -0 50100 0 00045    00204 FAD +0 30000 0 00045    00205 FAD +0 30000 0 00036
 00206 STO +0 60100 0 00302    00207 CLA +0 50000 0 00036    00210 FDP +0 24100 0 00302    00211 STQ -0 60000 0 00020
                 P'T GOP, PCNT                                                      025  LM00037
 00212 TSX +0 07400 4 00001    00213 STR -1 00012 1 00305    00214 STR -1 00000 0 00020    00215 STR -1 00000 0 00000
                 P'T $//*$                                                          026  LM00039
 00216 TSX +0 07400 4 00001    00217 STR -1 00046 1 00305    00220 STR -1 00000 0 00000
                 T'H SLOOP, FOR I = 0, 1, I .G. 78                                  027  LM00041
 00221 CLA +0 50000 0 00037    00222 STO +0 60100 0 00013    00223 TRA +0 02000 0 00227    00224 CLA +0 50000 0 00013
 00225 ADD +0 40000 0 00040    00226 STO +0 60100 0 00013    00227 CLA +0 50000 0 00013    00230 SUB +0 40200 0 00043
 00231 TZE +0 10000 0 00233    00232 TPL +0 12000 0 00270
                 FAMT = STATBL (I)                                                  028  LM00042
 00233 LXA +0 53400 2 00013    00234 CLA +0 50000 2 77455    00235 ORA -0 50100 0 00045    00236 FAD +0 30000 0 00045
 00237 STO +0 60100 0 00005
                 AMT = 0                                                            029  LM00043
 00240 CLA +0 50000 0 00037    00241 STO +0 60100 0 00004
                 W'R STATBL (I) .NE. 0, AMT = 5.0 * LOG. (FAMT)                     030  LM00044
 00242 LXA +0 53400 1 00013    00243 CLA +0 50000 1 77455    00244 SUB +0 40200 0 00037    00245 TZE +0 10000 0 00256
 00246 TSX +0 07400 4 00002    00247 TXH +3 00000 0 00005    00250 XCA +0 13100 0 00000    00251 FMP +0 26000 0 00044
 00252 UFA -0 30000 0 00045    00253 ERA +0 32200 0 00045    00254 LLS +0 76300 0 00000    00255 STO +0 60100 0 00004
                 P'T USED,  I, STATBL (I)                                           031  LM00045
 00256 TSX +0 07400 4 00001    00257 STR -1 00035 1 00305    00260 STR -1 00000 0 00013    00261 CLA +0 50000 0 00013
 00262 SUB +0 40200 0 00263    00263 TXH +3 00000 0 77455    00264 STA +0 62100 0 00265    00265 STR -1 00000 0 00000
 00266 STR -1 00000 0 00000
      SLOOP      C'E                                                                032  LM00046
 00267 TRA +0 02000 0 00224
                 F'N                                                                033  LM00049
 00270 TRA +0 02000 0 00276
                 E'N                                                                034  LM00052
 00271 TSX +0 07400 4 00000    00272 TXH +3 00000 0 00000    00273 SXD -0 63400 1 00272    00274 SXA +0 63400 4 00276
 00275 TRA +0 02000 2 00001    00276 AXT +0 77400 4 00000    00277 LXA +0 53400 2 00272    00300 LXD -0 53400 1 00272
 00301 TRA +0 02000 4 00001
1     MAD PROGRAM LISTING ... ... ...                 FILE  COUNTR   MAD            02/09/69    0656.9
-
                  EXTERNAL FUNCTION ( PROBN, PROGN, BUFF )                                        *001 LM00001
                                                                                                       LM00002
                                                                                                       LM00003
                  PROGRAM COMMON MODTBL (3), STATBL (78), TFILS, TRECS                            *002 LM00004
                  NORMAL MODE IS INTEGER                                                          *003 LM00005
                  VECTOR VALUES M1 = 77777K                                                       *004 LM00006
                  VECTOR VALUES M4 = 77774 K                                                      *005 LM00007
                  VECTOR VALUES M5 = 77773 K                                                      *006 LM00008
                                                                                                       LM00009
                  VECTOR VALUES EXC = $4(C6,S2),I6*$                                              *007 LM00010
                                                                                                       LM00011
                                                                                                       LM00012
                  ENTRY TO COUNTR.                                                                *008 LM00013
                                                                                                       LM00014
                  F = (BUFF (M4) .RS. 15) .A. 7K                                                  *009 LM00015
                                                                                                       LM00016
                  WHENEVER F .E. 2                                                                *010 LM00017
                                                                                                       LM00018
                  NRECS =  (BUFF (M5) .RS. 18 ) .A. M1                                            *011 LM00019
                       QUART = NRECS .RS. 2                                                       *012 LM00020
                       MOD = NRECS - (QUART .LS. 2)                                               *013 LM00021
                       MODTBL (MOD) = MODTBL (MOD) + 1                                            *014 LM00022
                                                                                                       LM00023
                       WHENEVER NRECS .L. 78                                                      *015 LM00024
                            STAT = NRECS                                                          *016 LM00025
                       OTHERWISE                                                                  *017 LM00026
                            STAT = 78                                                             *018 LM00027
                            PRINT FORMAT EXC, PROBN, PROGN, BUFF , BUFF (M1), NRECS               *019 LM00028
                       END OF CONDITIONAL                                                         *020 LM00029
                                                                                                       LM00030
                       STATBL (STAT) = STATBL (STAT) + 1                                          *021 LM00031
                                                                                                       LM00032
                       TRECS = TRECS + NRECS                                                      *022 LM00033
                       TFILS = TFILS + 1                                                          *023 LM00034
                                                                                                       LM00035
                  END OF CONDITIONAL                                                              *024 LM00036
                                                                                                       LM00037
                                                                                                       LM00038
                  FUNCTION RETURN                                                                 *025 LM00039
                                                                                                       LM00040
                  END OF FUNCTION                                                                 *026 LM00041
1MAD PROGRAM,TYPE NOV 1963      (ALL NUMBERS ARE OCTAL)
0TOTAL LOCATIONS   00156 TRANSFER VECTOR LENGTH  00002 PROGRAM BEGINS    00024 FIRST UNUSED COMMON/ERASABLE  77334
0 PROGRAM IS AN EXTERNAL FUNCTION.   THE FOLLOWING ARE ENTRIES
      COUNTR 00025   0
0VARIABLE STORAGE (A=ARRAY,C=COMMON,E=ERASABLE,DIGIT=MODE)
      EXC    00004 A 1        M4     00007 A 1        MODTBL 77461 AC1        STATBL 77455 AC1        TFILS  77336  C1
      F      00005   1        M5     00010 A 1        NRECS  00012   1        STAT   00014   1        TRECS  77335  C1
      M1     00006 A 1        MOD    00011   1        QUART  00013   1
0FUNCTION DICTIONARY
      EXIT   00000   1        .PRINT 00001   1
0ABSOLUTE CONSTANTS
 00022 +000000000116     00021 +000000000022     00016 +000000000002     00017 +000000000007     00020 +000000000017
 00015 +000000000001     00023 +233000000000
0PROGRAM
                 EXTERNAL FUNCTION ( PROBN, PROGN, BUFF )                           001  LM00001
                 P'N MODTBL (3), STATBL (78), TFILS, TRECS                          002  LM00004
                 N'R                                                                003  LM00005
                 V'S M1 = 77777K                                                    004  LM00006
 00006     +0 00000 0 77777
                 V'S M4 = 77774 K                                                   005  LM00007
 00007     +0 00000 0 77774
                 V'S M5 = 77773 K                                                   006  LM00008
 00010     +0 00000 0 77773
                 V'S EXC = $4(C6,S2),I6*$                                           007  LM00010
 00003     +0 23473 3 10654    00004     +0 47423 0 67362
                 E'O COUNTR.                                                        008  LM00013
 00024 TRA +0 02000 0 00027    00025 SXA +0 63400 2 00132    00026 TSX +0 07400 2 00132
                 F = (BUFF (M4) .RS. 15) .A. 7K                                     009  LM00015
 00027 LXA +0 53400 1 00007    00030 CAL -0 50000 0 00020    00031 STA +0 62100 0 00033    00032 CAL -0 50000 1 00000
 00033 LGR -0 76500 0 00000    00034 ANA -0 32000 0 00017    00035 SLW +0 60200 0 00005
                 W'R F .E. 2                                                        010  LM00017
 00036 CLA +0 50000 0 00005    00037 SUB +0 40200 0 00016    00040 TNZ -0 10000 0 00130
                 NRECS =  (BUFF (M5) .RS. 18 ) .A. M1                               011  LM00019
 00041 LXA +0 53400 1 00010    00042 CAL -0 50000 0 00021    00043 STA +0 62100 0 00045    00044 CAL -0 50000 1 00000
 00045 LGR -0 76500 0 00000    00046 ANA -0 32000 0 00006    00047 SLW +0 60200 0 00012
                      QUART = NRECS .RS. 2                                          012  LM00020
 00050 CAL -0 50000 0 00016    00051 STA +0 62100 0 00053    00052 CAL -0 50000 0 00012    00053 LGR -0 76500 0 00000
 00054 SLW +0 60200 0 00013
                      MOD = NRECS - (QUART .LS. 2)                                  013  LM00021
 00055 CAL -0 50000 0 00016    00056 STA +0 62100 0 00060    00057 CAL -0 50000 0 00013    00060 ALS +0 76700 0 00000
 00061 SLW +0 60200 0 00153    00062 CLA +0 50000 0 00012    00063 SUB +0 40200 0 00153    00064 STO +0 60100 0 00011
                      MODTBL (MOD) = MODTBL (MOD) + 1                               014  LM00022
 00065 LXA +0 53400 1 00011    00066 CLA +0 50000 1 77461    00067 ADD +0 40000 0 00015    00070 STO +0 60100 1 77461
                      W'R NRECS .L. 78                                              015  LM00024
 00071 CLA +0 50000 0 00012    00072 SUB +0 40200 0 00022    00073 TZE +0 10000 0 00100    00074 TPL +0 12000 0 00100
                           STAT = NRECS                                             016  LM00025
 00075 CLA +0 50000 0 00012    00076 STO +0 60100 0 00014
                      O'E                                                           017  LM00026
 00077 TRA +0 02000 0 00116
                           STAT = 78                                                018  LM00027
 00100 CLA +0 50000 0 00022    00101 STO +0 60100 0 00014
                           P'T EXC, PROBN, PROGN, BUFF , BUFF (M1), NRECS           019  LM00028
 00102 TSX +0 07400 4 00001    00103 STR -1 00004 1 00154    00104 STR -1 00000 0 00000    00105 STR -1 00000 0 00000
 00106 STR -1 00000 0 00000    00107 CLA +0 50000 0 00006    00110 SUB +0 40200 0 00111    00111 TXH +3 00000 0 00000
 00112 STA +0 62100 0 00113    00113 STR -1 00000 0 00000    00114 STR -1 00000 0 00012    00115 STR -1 00000 0 00000
                      E'L                                                           020  LM00029
                      STATBL (STAT) = STATBL (STAT) + 1                             021  LM00031
 00116 LXA +0 53400 1 00014    00117 CLA +0 50000 1 77455    00120 ADD +0 40000 0 00015    00121 STO +0 60100 1 77455
                      TRECS = TRECS + NRECS                                         022  LM00033
 00122 CLA +0 50000 0 77335    00123 ADD +0 40000 0 00012    00124 STO +0 60100 0 77335
                      TFILS = TFILS + 1                                             023  LM00034
 00125 CLA +0 50000 0 77336    00126 ADD +0 40000 0 00015    00127 STO +0 60100 0 77336
                 E'L                                                                024  LM00036
                 F'N                                                                025  LM00039
 00130 TRA +0 02000 0 00147
                 E'N                                                                026  LM00041
 00131 TSX +0 07400 4 00000    00132 TXH +3 00000 0 00000    00133 SXD -0 63400 1 00132    00134 SXA +0 63400 4 00147
 00135 CLA +0 50000 4 00001    00136 STA +0 62100 0 00104    00137 CLA +0 50000 4 00002    00140 STA +0 62100 0 00105
 00141 CLA +0 50000 4 00003    00142 STA +0 62100 0 00032    00143 STA +0 62100 0 00044    00144 STA +0 62100 0 00106
 00145 STO +0 60100 0 00111    00146 TRA +0 02000 2 00001    00147 AXT +0 77400 4 00000    00150 LXA +0 53400 2 00132
 00151 LXD -0 53400 1 00132    00152 TRA +0 02000 4 00001
1     MAD PROGRAM LISTING ... ... ...                 FILE   FINIT   MAD            02/09/69    0656.9
-
                  DUMMY FINIT PROGRAM FOR ALSTAT PROGRAMS                                              LM00001
                                                                                                       LM00002
                                                                                                       LM00003
                  EXTERNAL FUNCTION ( X )                                                         *001 LM00004
                  ENTRY TO FINIT.                                                                 *002 LM00005
                  FUNCTION RETURN                                                                 *003 LM00006
                  END OF FUNCTION                                                                 *004 LM00007
1MAD PROGRAM,TYPE NOV 1963      (ALL NUMBERS ARE OCTAL)
0TOTAL LOCATIONS   00023 TRANSFER VECTOR LENGTH  00001 PROGRAM BEGINS    00004
0 PROGRAM IS AN EXTERNAL FUNCTION.   THE FOLLOWING ARE ENTRIES
      FINIT  00005   0
0FUNCTION DICTIONARY
      EXIT   00000   0
0ABSOLUTE CONSTANTS
 00002 +000000000001     00003 +233000000000
0PROGRAM
                 EXTERNAL FUNCTION ( X )                                            001  LM00004
                 E'O FINIT.                                                         002  LM00005
 00004 TRA +0 02000 0 00007    00005 SXA +0 63400 2 00011    00006 TSX +0 07400 2 00011
                 F'N                                                                003  LM00006
 00007 TRA +0 02000 0 00015
                 E'N                                                                004  LM00007
 00010 TSX +0 07400 4 00000    00011 TXH +3 00000 0 00000    00012 SXD -0 63400 1 00011    00013 SXA +0 63400 4 00015
 00014 TRA +0 02000 2 00001    00015 AXT +0 77400 4 00000    00016 LXA +0 53400 2 00011    00017 LXD -0 53400 1 00011
 00020 TRA +0 02000 4 00001
1     MAD PROGRAM LISTING ... ... ...                 FILE   PLINK   MAD            02/09/69    0657.0
-
       PLINK          PRINT USER'S LINKS                                                               LM00001
                                                                                                       LM00002
                  EXTERNAL FUNCTION ( PROBN, PROGN, BUFF )                                        *001 LM00003
                                                                                                       LM00004
                  VECTOR VALUES FIRST = 1B                                                        *002 LM00005
                  BOOLEAN FIRST                                                                   *003 LM00006
                  VECTOR VALUES M1 = 77777K                                                       *004 LM00007
                  VECTOR VALUES M2 = 77776K                                                       *005 LM00008
                  VECTOR VALUES M3 = 77775K                                                       *006 LM00009
                  VECTOR VALUES M5 = 77773K                                                       *007 LM00010
                  VECTOR VALUES M6 = 77772K                                                       *008 LM00011
                                                                                                       LM00012
                  ENTRY TO COUNTR.                                                                *009 LM00013
                                                                                                       LM00014
                  WHENEVER FIRST                                                                  *010 LM00015
                       MYPROB = COMARG. (1)                                                       *011 LM00016
                       MYPROG = COMARG. (2)                                                       *012 LM00017
                       FIRST = 0B                                                                 *013 LM00018
                  END OF CONDITIONAL                                                              *014 LM00019
                                                                                                       LM00020
                  WHENEVER BUFF (M2) .E. MYPROB .AND. BUFF (M3) .E. MYPROG                        *015 LM00021
                       PRINT FORMAT PLINK, PROBN, PROGN, BUFF, BUFF (M1),                         *016 LM00022
                1      BUFF (M5), BUFF (M6)                                                       *016 LM00023
                  VECTOR VALUES PLINK = $6(C6,S2)*$                                               *017 LM00024
                  END OF CONDITIONAL                                                              *018 LM00025
                                                                                                       LM00026
                  FUNCTION RETURN                                                                 *019 LM00027
                                                                                                       LM00028
                                                                                                       LM00029
                  ENTRY TO FPRINT.                                                                *020 LM00030
                  CONTINUE                                                                        *021 LM00031
                  FUNCTION RETURN                                                                 *022 LM00032
                                                                                                       LM00033
                                                                                                       LM00034
                  END OF FUNCTION                                                                 *023 LM00035
1MAD PROGRAM,TYPE NOV 1963      (ALL NUMBERS ARE OCTAL)
0TOTAL LOCATIONS   00127 TRANSFER VECTOR LENGTH  00003 PROGRAM BEGINS    00022
0 PROGRAM IS AN EXTERNAL FUNCTION.   THE FOLLOWING ARE ENTRIES
      FPRINT 00076   0        COUNTR 00023   0
0VARIABLE STORAGE (A=ARRAY,C=COMMON,E=ERASABLE,DIGIT=MODE)
      FIRST  00004 A 2        M2     00006 A 1        M5     00010 A 1        MYPROB 00012   0        PLINK  00015 A 1
      M1     00005 A 1        M3     00007 A 1        M6     00011 A 1        MYPROG 00013   0
0FUNCTION DICTIONARY
      COMARG 00000   0        EXIT   00001   0        .PRINT 00002   0
0ABSOLUTE CONSTANTS
 00016 +000000000000     00020 +000000000002     00017 +000000000001     00021 +233000000000
0PROGRAM
                 EXTERNAL FUNCTION ( PROBN, PROGN, BUFF )                           001  LM00003
                 V'S FIRST = 1B                                                     002  LM00005
 00004     +0 00000 0 00001
                 B'N FIRST                                                          003  LM00006
                 V'S M1 = 77777K                                                    004  LM00007
 00005     +0 00000 0 77777
                 V'S M2 = 77776K                                                    005  LM00008
 00006     +0 00000 0 77776
                 V'S M3 = 77775K                                                    006  LM00009
 00007     +0 00000 0 77775
                 V'S M5 = 77773K                                                    007  LM00010
 00010     +0 00000 0 77773
                 V'S M6 = 77772K                                                    008  LM00011
 00011     +0 00000 0 77772
                 E'O COUNTR.                                                        009  LM00013
 00022 TRA +0 02000 0 00025    00023 SXA +0 63400 2 00102    00024 TSX +0 07400 2 00102
                 W'R FIRST                                                          010  LM00015
 00025 NZT -0 52000 0 00004    00026 TRA +0 02000 0 00037
                      MYPROB = COMARG. (1)                                          011  LM00016
 00027 TSX +0 07400 4 00000    00030 TXH +3 00000 0 00017    00031 STO +0 60100 0 00012
                      MYPROG = COMARG. (2)                                          012  LM00017
 00032 TSX +0 07400 4 00000    00033 TXH +3 00000 0 00020    00034 STO +0 60100 0 00013
                      FIRST = 0B                                                    013  LM00018
 00035 CLA +0 50000 0 00016    00036 STO +0 60100 0 00004
                 E'L                                                                014  LM00019
                 W'R BUFF (M2) .E. MYPROB .AND. BUFF (M3) .E. MYPROG                015  LM00021
 00037 LXA +0 53400 1 00007    00040 CLA +0 50000 1 00024    00041 SUB +0 40200 0 00013    00042 TNZ -0 10000 0 00074
 00043 LXA +0 53400 1 00006    00044 CLA +0 50000 1 00024    00045 SUB +0 40200 0 00012    00046 TNZ -0 10000 0 00074
                      P'T PLINK, PROBN, PROGN, BUFF, BUFF (M1),                     016  LM00022
                1     BUFF (M5), BUFF (M6)                                          016  LM00023
 00047 TSX +0 07400 4 00002    00050 STR -1 00015 1 00125    00051 STR -1 00000 0 00024    00052 STR -1 00000 0 00024
 00053 STR -1 00000 0 00024    00054 CLA +0 50000 0 00005    00055 SUB +0 40200 0 00056    00056 TXH +3 00000 0 00024
 00057 STA +0 62100 0 00060    00060 STR -1 00000 0 00000    00061 CLA +0 50000 0 00010    00062 SUB +0 40200 0 00063
 00063 TXH +3 00000 0 00024    00064 STA +0 62100 0 00065    00065 STR -1 00000 0 00000    00066 CLA +0 50000 0 00011
 00067 SUB +0 40200 0 00070    00070 TXH +3 00000 0 00024    00071 STA +0 62100 0 00072    00072 STR -1 00000 0 00000
 00073 STR -1 00000 0 00000
                 V'S PLINK = $6(C6,S2)*$                                            017  LM00024
 00014     +0 23454 6 06060    00015     +0 67423 0 67362
                 E'L                                                                018  LM00025
                 F'N                                                                019  LM00027
 00074 TRA +0 02000 0 00121
                 E'O FPRINT.                                                        020  LM00030
 00075 TRA +0 02000 0 00100    00076 SXA +0 63400 2 00102    00077 TSX +0 07400 2 00102
                 C'E                                                                021  LM00031
                 F'N                                                                022  LM00032
 00100 TRA +0 02000 0 00121
                 E'N                                                                023  LM00035
 00101 TSX +0 07400 4 00001    00102 TXH +3 00000 0 00000    00103 SXD -0 63400 1 00102    00104 SXA +0 63400 4 00121
 00105 CLA +0 50000 4 00001    00106 STA +0 62100 0 00051    00107 CLA +0 50000 4 00002    00110 STA +0 62100 0 00052
 00111 CLA +0 50000 4 00003    00112 STA +0 62100 0 00040    00113 STA +0 62100 0 00044    00114 STA +0 62100 0 00053
 00115 STO +0 60100 0 00056    00116 STO +0 60100 0 00063    00117 STO +0 60100 0 00070    00120 TRA +0 02000 2 00001
 00121 AXT +0 77400 4 00000    00122 LXA +0 53400 2 00102    00123 LXD -0 53400 1 00102    00124 TRA +0 02000 4 00001
1     MAD PROGRAM LISTING ... ... ...                 FILE   PFILE   MAD            02/09/69    0657.0
-
       PFILE          PRINT ALL OCCURENCES OF A FILE.                                                  LM00001
                  EXTERNAL FUNCTION ( PROBN, PROGN, BUFF )                                        *001 LM00002
                                                                                                       LM00003
                                                                                                       LM00004
                  NORMAL MODE IS INTEGER                                                          *002 LM00005
                  VECTOR VALUES M1 = 77777K                                                       *003 LM00006
                  VECTOR VALUES M2 = 77776K                                                       *004 LM00007
                  VECTOR VALUES M3 = 77775K                                                       *005 LM00008
                  VECTOR VALUES M4 = 77774K                                                       *006 LM00009
                  VECTOR VALUES FIRST = 1B                                                        *007 LM00010
                  BOOLEAN FIRST                                                                   *008 LM00011
                                                                                                       LM00012
                                                                                                       LM00013
                  ENTRY TO COUNTR.                                                                *009 LM00014
                                                                                                       LM00015
                  WHENEVER FIRST                                                                  *010 LM00016
                       NAME1 = COMARG. (1)                                                        *011 LM00017
                       NAME2 = COMARG. (2)                                                        *012 LM00018
                       FIRST = 0B                                                                 *013 LM00019
                  END OF CONDITIONAL                                                              *014 LM00020
                                                                                                       LM00021
                  WHENEVER (BUFF.E.NAME1 .OR. NAME1.E.$     *$) .AND.                             *015 LM00022
                1  (BUFF(M1).E.NAME2 .OR. NAME2.E.$     *$)                                       *015 LM00023
                       COUNT =  COUNT + 1                                                         *016 LM00024
                                                                                                       LM00025
                       WHENEVER (BUFF (M4) .A. 7K5) .E. 0                                         *017 LM00026
                            PRINT FORMAT OUT2, PROBN, PROGN,BUFF, BUFF(M1),                       *018 LM00027
                1           BUFF (M2) , BUFF (M3)                                                 *018 LM00028
                  VECTOR VALUES OUT2 = $4(C6,S2),1HL,2(S2,C6)*$                                   *019 LM00029
                       OTHERWISE                                                                  *020 LM00030
                            DATLU = BUFF (M3)                                                     *021 LM00031
                            YEAR = DATLU .RS. 27                                                  *022 LM00032
                            MONTH = (DATLU .RS. 23) .A. 17K                                       *023 LM00033
                            DAY = (DATLU .RS. 18) .A. 37K                                         *024 LM00034
                       PRINT FORMAT OUT, PROBN, PROGN, BUFF, BUFF(M1)                             *025 LM00035
                1           , MONTH, DAY, YEAR                                                    *025 LM00036
                  VECTOR VALUES OUT = $4(C6,S2),I2,1H/,I2,1H/,I2*$                                *026 LM00037
                  END OF CONDITIONAL                                                              *027 LM00038
                  END OF CONDITIONAL                                                              *028 LM00039
                                                                                                       LM00040
                  FUNCTION RETURN                                                                 *029 LM00041
                                                                                                       LM00042
                                                                                                       LM00043
                  ENTRY TO FPRINT.                                                                *030 LM00044
                  PRINT RESULTS COUNT                                                             *031 LM00045
                  FUNCTION RETURN                                                                 *032 LM00046
                                                                                                       LM00047
                                                                                                       LM00048
                  END OF FUNCTION                                                                 *033 LM00049
1MAD PROGRAM,TYPE NOV 1963      (ALL NUMBERS ARE OCTAL)
0TOTAL LOCATIONS   00307 TRANSFER VECTOR LENGTH  00004 PROGRAM BEGINS    00045
0 PROGRAM IS AN EXTERNAL FUNCTION.   THE FOLLOWING ARE ENTRIES
      FPRINT 00203   0        COUNTR 00046   0
0VARIABLE STORAGE (A=ARRAY,C=COMMON,E=ERASABLE,DIGIT=MODE)
      COUNT  00005   1        FIRST  00010 A 2        M3     00013 A 1        NAME1  00016   1        OUT    00030 A 1
      DATLU  00006   1        M1     00011 A 1        M4     00014 A 1        NAME2  00017   1        YEAR   00031   1
      DAY    00007   1        M2     00012 A 1        MONTH  00015   1        OUT2   00023 A 1
0FUNCTION DICTIONARY
      COMARG 00000   1        EXIT   00001   1        .PRINT 00002   1        .PRSLT 00003   1
0ABSOLUTE CONSTANTS
 00041 +000000000037     00036 +000000000022     00035 +000000000017     00037 +000000000027     00040 +000000000033
 00042 +000000700000     00044 -206060606054     00032 +000000000000     00034 +000000000002     00033 +000000000001
 00043 +233000000000
0PROGRAM
                 EXTERNAL FUNCTION ( PROBN, PROGN, BUFF )                           001  LM00002
                 N'R                                                                002  LM00005
                 V'S M1 = 77777K                                                    003  LM00006
 00011     +0 00000 0 77777
                 V'S M2 = 77776K                                                    004  LM00007
 00012     +0 00000 0 77776
                 V'S M3 = 77775K                                                    005  LM00008
 00013     +0 00000 0 77775
                 V'S M4 = 77774K                                                    006  LM00009
 00014     +0 00000 0 77774
                 V'S FIRST = 1B                                                     007  LM00010
 00010     +0 00000 0 00001
                 B'N FIRST                                                          008  LM00011
                 E'O COUNTR.                                                        009  LM00014
 00045 TRA +0 02000 0 00050    00046 SXA +0 63400 2 00213    00047 TSX +0 07400 2 00213
                 W'R FIRST                                                          010  LM00016
 00050 NZT -0 52000 0 00010    00051 TRA +0 02000 0 00062
                      NAME1 = COMARG. (1)                                           011  LM00017
 00052 TSX +0 07400 4 00000    00053 TXH +3 00000 0 00033    00054 STO +0 60100 0 00016
                      NAME2 = COMARG. (2)                                           012  LM00018
 00055 TSX +0 07400 4 00000    00056 TXH +3 00000 0 00034    00057 STO +0 60100 0 00017
                      FIRST = 0B                                                    013  LM00019
 00060 CLA +0 50000 0 00032    00061 STO +0 60100 0 00010
                 E'L                                                                014  LM00020
                 W'R (BUFF.E.NAME1 .OR. NAME1.E.$     *$) .AND.                     015  LM00022
                1 (BUFF(M1).E.NAME2 .OR. NAME2.E.$     *$)                          015  LM00023
 00062 CLA +0 50000 0 00017    00063 SUB +0 40200 0 00044    00064 TZE +0 10000 0 00071    00065 LXA +0 53400 1 00011
 00066 CLA +0 50000 1 00024    00067 SUB +0 40200 0 00017    00070 TNZ -0 10000 0 00201    00071 CLA +0 50000 0 00016
 00072 SUB +0 40200 0 00044    00073 TZE +0 10000 0 00077    00074 CLA +0 50000 0 00024    00075 SUB +0 40200 0 00016
 00076 TNZ -0 10000 0 00201
                      COUNT =  COUNT + 1                                            016  LM00024
 00077 CLA +0 50000 0 00005    00100 ADD +0 40000 0 00033    00101 STO +0 60100 0 00005
                      W'R (BUFF (M4) .A. 7K5) .E. 0                                 017  LM00026
 00102 LXA +0 53400 1 00014    00103 CAL -0 50000 1 00024    00104 ANA -0 32000 0 00042    00105 SLW +0 60200 0 00244
 00106 CLA +0 50000 0 00244    00107 SUB +0 40200 0 00032    00110 TNZ -0 10000 0 00137
                           P'T OUT2, PROBN, PROGN,BUFF, BUFF(M1),                   018  LM00027
                1          BUFF (M2) , BUFF (M3)                                    018  LM00028
 00111 TSX +0 07400 4 00002    00112 STR -1 00023 1 00305    00113 STR -1 00000 0 00024    00114 STR -1 00000 0 00024
 00115 STR -1 00000 0 00024    00116 CLA +0 50000 0 00011    00117 SUB +0 40200 0 00120    00120 TXH +3 00000 0 00024
 00121 STA +0 62100 0 00122    00122 STR -1 00000 0 00000    00123 CLA +0 50000 0 00012    00124 SUB +0 40200 0 00125
 00125 TXH +3 00000 0 00024    00126 STA +0 62100 0 00127    00127 STR -1 00000 0 00000    00130 CLA +0 50000 0 00013
 00131 SUB +0 40200 0 00132    00132 TXH +3 00000 0 00024    00133 STA +0 62100 0 00134    00134 STR -1 00000 0 00000
 00135 STR -1 00000 0 00000
                 V'S OUT2 = $4(C6,S2),1HL,2(S2,C6)*$                                019  LM00029
 00020     +2 30634 5 46060    00021     -3 30274 6 20273    00022     +0 23473 0 13043    00023     +0 47423 0 67362
                      O'E                                                           020  LM00030
 00136 TRA +0 02000 0 00201
                           DATLU = BUFF (M3)                                        021  LM00031
 00137 LXA +0 53400 2 00013    00140 CLA +0 50000 2 00024    00141 STO +0 60100 0 00006
                           YEAR = DATLU .RS. 27                                     022  LM00032
 00142 CAL -0 50000 0 00040    00143 STA +0 62100 0 00145    00144 CAL -0 50000 0 00006    00145 LGR -0 76500 0 00000
 00146 SLW +0 60200 0 00031
                           MONTH = (DATLU .RS. 23) .A. 17K                          023  LM00033
 00147 CAL -0 50000 0 00037    00150 STA +0 62100 0 00152    00151 CAL -0 50000 0 00006    00152 LGR -0 76500 0 00000
 00153 ANA -0 32000 0 00035    00154 SLW +0 60200 0 00015
                           DAY = (DATLU .RS. 18) .A. 37K                            024  LM00034
 00155 CAL -0 50000 0 00036    00156 STA +0 62100 0 00160    00157 CAL -0 50000 0 00006    00160 LGR -0 76500 0 00000
 00161 ANA -0 32000 0 00041    00162 SLW +0 60200 0 00007
                      P'T OUT, PROBN, PROGN, BUFF, BUFF(M1)                         025  LM00035
                1          , MONTH, DAY, YEAR                                       025  LM00036
 00163 TSX +0 07400 4 00002    00164 STR -1 00030 1 00305    00165 STR -1 00000 0 00024    00166 STR -1 00000 0 00024
 00167 STR -1 00000 0 00024    00170 CLA +0 50000 0 00011    00171 SUB +0 40200 0 00172    00172 TXH +3 00000 0 00024
 00173 STA +0 62100 0 00174    00174 STR -1 00000 0 00000    00175 STR -1 00000 0 00015    00176 STR -1 00000 0 00007
 00177 STR -1 00000 0 00031    00200 STR -1 00000 0 00000
                 V'S OUT = $4(C6,S2),I2,1H/,I2,1H/,I2*$                             026  LM00037
 00024     +0 25460 6 06060    00025     -3 30130 6 17331    00026     +0 13061 7 33102    00027     +0 23473 3 10273
 00030     +0 47423 0 67362
                 E'L                                                                027  LM00038
                 E'L                                                                028  LM00039
                 F'N                                                                029  LM00041
 00201 TRA +0 02000 0 00240
                 E'O FPRINT.                                                        030  LM00044
 00202 TRA +0 02000 0 00205    00203 SXA +0 63400 2 00213    00204 TSX +0 07400 2 00213
                 P'S COUNT                                                          031  LM00045
 00205 TSX +0 07400 4 00003    00206 TXH +3 00000 0 00305    00207 TXH +3 00000 0 00005    00210 TXH +3 00000 0 00000
                 F'N                                                                032  LM00046
 00211 TRA +0 02000 0 00240
                 E'N                                                                033  LM00049
 00212 TSX +0 07400 4 00001    00213 TXH +3 00000 0 00000    00214 SXD -0 63400 1 00213    00215 SXA +0 63400 4 00240
 00216 CLA +0 50000 4 00001    00217 STA +0 62100 0 00113    00220 STA +0 62100 0 00165    00221 CLA +0 50000 4 00002
 00222 STA +0 62100 0 00114    00223 STA +0 62100 0 00166    00224 CLA +0 50000 4 00003    00225 STA +0 62100 0 00066
 00226 STA +0 62100 0 00074    00227 STA +0 62100 0 00103    00230 STA +0 62100 0 00115    00231 STO +0 60100 0 00120
 00232 STO +0 60100 0 00125    00233 STO +0 60100 0 00132    00234 STA +0 62100 0 00140    00235 STA +0 62100 0 00167
 00236 STO +0 60100 0 00172    00237 TRA +0 02000 2 00001    00240 AXT +0 77400 4 00000    00241 LXA +0 53400 2 00213
 00242 LXD -0 53400 1 00213    00243 TRA +0 02000 4 00001
1     MAD PROGRAM LISTING ... ... ...                 FILE   PMODE   MAD            02/09/69    0657.2
-
                    PMODE - PRINTS FILES OF CERTAIN MODE FOR ALL OF SYSTEM                             LM00001
                                                                                                       LM00002
                    WRITTEN BY ROGER ROACH 6/8/67                                                      LM00003
                                                                                                       LM00004
                  EXTERNAL FUNCTION (PROBN,PROGN,BUFF)                                            *001 LM00005
                  NORMAL MODE IS INTEGER                                                          *002 LM00006
                  VECTOR VALUES COLON = 355757575757K                                             *003 LM00007
                  VECTOR VALUES TAB1 = 557257575757K                                              *004 LM00008
                  VECTOR VALUES TAB2 = 727257575757K                                              *005 LM00009
                  VECTOR VALUES BL = 605757575757K                                                *006 LM00010
                  VECTOR VALUES CR = 555757575757K                                                *007 LM00011
                  VECTOR VALUES M1 = 77777K                                                       *008 LM00012
                  VECTOR VALUES M3 = 77775K                                                       *009 LM00013
                  VECTOR VALUES M4 = 77774K                                                       *010 LM00014
                  VECTOR VALUES M5 = 77773K                                                       *011 LM00015
                  VECTOR VALUES TOTAL = 0                                                         *012 LM00016
                  VECTOR VALUES COUNT = 0                                                         *013 LM00017
                  VECTOR VALUES SUBTOT = 0                                                        *014 LM00018
                  VECTOR VALUES FIRST = 1B                                                        *015 LM00019
                                                                                                       LM00020
                  COUNTR - COUNTS THE FILES                                                            LM00021
                                                                                                       LM00022
                  ENTRY TO COUNTR.                                                                *016 LM00023
                  WHENEVER FIRST                                                                  *017 LM00024
                       GETTM.(DATE,TIME)                                                          *018 LM00025
                       PRMESS.(CR,$      $,DATE,TIME,CR,CR,                                       *019 LM00026
                1      $     NAME       MOD RECS  DATE$)                                          *019 LM00027
                       FIRST = 0B                                                                 *020 LM00028
                       MASK = BCOCT.(COMARG.(1))                                                  *021 LM00029
                       END OF CONDITIONAL                                                         *022 LM00030
                  N1 = BUFF                                                                       *023 LM00031
                  N2 = BUFF(M1)                                                                   *024 LM00032
                  WHENEVER N1.E.0 .AND. N2.E.0, FUNCTION RETURN                                   *025 LM00033
                  MODE = (BUFF(M4).A.776K9).RS.28                                                 *026 LM00034
                  AUTH = BZEL.(DERBC.(BUFF(M3)))                                                  *027 LM00035
                  WHENEVER AUTH .E. PROGN, AUTH = $ $                                             *028 LM00036
                  WHENEVER (MODE.A.MASK).NE. MASK, FUNCTION RETURN                                *029 LM00037
                  DEVIC = (BUFF(M4).A.7K5).RS.15                                                  *030 LM00038
                  WHENEVER DEVIC .NE. 2, FUNCTION RETURN                                          *031 LM00039
                  NOREC = (BUFF(M5).RS.18).A.M1                                                   *032 LM00040
                  WHENEVER PB .NE. PROBN .OR. PG .NE. PROGN                                       *033 LM00041
                       SUBTOT = BZEL.(DERBC.(SUBTOT))                                             *034 LM00042
                       WHENEVER SUBTOT.NE.$     0$,PRMESS.(TAB2,SUBTOT)                           *035 LM00043
                       SUBTOT = 0                                                                 *036 LM00044
                       PRMESS.(TAB1,PROBN,BL,PROGN,COLON)                                         *037 LM00045
                       PB = PROBN                                                                 *038 LM00046
                       PG = PROGN                                                                 *039 LM00047
                       END OF CONDITIONAL                                                         *040 LM00048
                                                                                                       LM00049
                   PRINT FILE NAME, LENGTH ETC.                                                        LM00050
                                                                                                       LM00051
                  SUBTOT = SUBTOT + NOREC                                                         *041 LM00052
                  TOTAL = TOTAL + NOREC                                                           *042 LM00053
                  COUNT = COUNT + 1                                                               *043 LM00054
                  MOD = (OCABC.(MODE)).V.606060K6                                                 *044 LM00055
                  NOREC = BZEL.(DERBC.(NOREC))                                                    *045 LM00056
                  TEMP = BUFF(M3).RS.18                                                           *046 LM00057
                  MO = DERBC.((TEMP.RS.5).A.17K)                                                  *047 LM00058
                  DA = DERBC.(TEMP.A.37K)                                                         *048 LM00059
                  DATE = (MO.LS.18).V.DA.V.$ 00/00$                                               *049 LM00060
                  PRMESS.(N1,BL,N2,MOD,NOREC,DATE,AUTH)                                           *050 LM00061
                  FUNCTION RETURN                                                                 *051 LM00062
                                                                                                       LM00063
                                                                                                       LM00064
                    FPRINT - FINAL PRINT OF TOTALS                                                     LM00065
                                                                                                       LM00066
                  ENTRY TO FPRINT.                                                                *052 LM00067
                  SUBTOT = BZEL.(DERBC.(SUBTOT))                                                  *053 LM00068
                  COUNT = BZ57.(DERBC.(COUNT))                                                    *054 LM00069
                  WHENEVER SUBTOT.NE.$     0$,PRMESS.(TAB2,SUBTOT)                                *055 LM00070
                  TOTAL = BZEL.(DERBC.(TOTAL))                                                    *056 LM00071
                  PRMESS.(CR,CR,CR,$TOTAL FILES =$,COUNT,$, TOTAL RECORDS =$                      *057 LM00072
                1  ,TOTAL,CR,CR)                                                                  *057 LM00073
                  FUNCTION RETURN                                                                 *058 LM00074
                  END OF FUNCTION                                                                 *059 LM00075
1MAD PROGRAM,TYPE NOV 1963      (ALL NUMBERS ARE OCTAL)
0TOTAL LOCATIONS   00472 TRANSFER VECTOR LENGTH  00011 PROGRAM BEGINS    00100
0 PROGRAM IS AN EXTERNAL FUNCTION.   THE FOLLOWING ARE ENTRIES
      FPRINT 00364   0        COUNTR 00101   0
0VARIABLE STORAGE (A=ARRAY,C=COMMON,E=ERASABLE,DIGIT=MODE)
      AUTH   00012   1        DATE   00020   1        M5     00026 A 1        N2     00034   1        TAB1   00041 A 1
      BL     00013 A 1        DEVIC  00021   1        MASK   00027   1        NOREC  00035   1        TAB2   00042 A 1
      COLON  00014 A 1        FIRST  00022 A 2        MODE   00030   1        PB     00036   1        TEMP   00043   1
      COUNT  00015 A 1        M1     00023 A 1        MOD    00031   1        PG     00037   1        TIME   00044   1
      CR     00016 A 1        M3     00024 A 1        MO     00032   1        SUBTOT 00040 A 1        TOTAL  00045 A 1
      DA     00017   1        M4     00025 A 1        N1     00033   1
0FUNCTION DICTIONARY
      BCOCT  00000   1        BZ57   00001   1        BZEL   00002   1        COMARG 00003   1        DERBC  00004   1
      EXIT   00005   1        GETTM  00006   1        OCABC  00007   1        PRMESS 00010   1
0ABSOLUTE CONSTANTS
 00065 -112462601360     00064 -036051252346     00076 -336063466321     00057 +136060606060     00063 +263143256260
 00075 -234663214360     00066 -200000610000     00055 +000000000037     00051 +000000000005     00070 -206060000000
 00072 -206060606000     00053 +000000000022     00050 +000000000002     00052 +000000000017     00056 +000000700000
 00054 +000000000034     00077 -376000000000     00046 +000000000000     00067 -206024216325     00062 +246051252362
 00071 -206060604446     00060 +214425606060     00073 -206060606045     00074 -206060606060     00047 +000000000001
 00061 +233000000000
0PROGRAM
                 EXTERNAL FUNCTION (PROBN,PROGN,BUFF)                               001  LM00005
                 N'R                                                                002  LM00006
                 V'S COLON = 355757575757K                                          003  LM00007
 00014     +3 55757 5 75757
                 V'S TAB1 = 557257575757K                                           004  LM00008
 00041     -1 57257 5 75757
                 V'S TAB2 = 727257575757K                                           005  LM00009
 00042     -3 27257 5 75757
                 V'S BL = 605757575757K                                             006  LM00010
 00013     -2 05757 5 75757
                 V'S CR = 555757575757K                                             007  LM00011
 00016     -1 55757 5 75757
                 V'S M1 = 77777K                                                    008  LM00012
 00023     +0 00000 0 77777
                 V'S M3 = 77775K                                                    009  LM00013
 00024     +0 00000 0 77775
                 V'S M4 = 77774K                                                    010  LM00014
 00025     +0 00000 0 77774
                 V'S M5 = 77773K                                                    011  LM00015
 00026     +0 00000 0 77773
                 V'S TOTAL = 0                                                      012  LM00016
 00045     +0 00000 0 00000
                 V'S COUNT = 0                                                      013  LM00017
 00015     +0 00000 0 00000
                 V'S SUBTOT = 0                                                     014  LM00018
 00040     +0 00000 0 00000
                 V'S FIRST = 1B                                                     015  LM00019
 00022     +0 00000 0 00001
                 E'O COUNTR.                                                        016  LM00023
 00100 TRA +0 02000 0 00103    00101 SXA +0 63400 2 00436    00102 TSX +0 07400 2 00436
                 W'R FIRST                                                          017  LM00024
 00103 NZT -0 52000 0 00022    00104 TRA +0 02000 0 00134
                      GETTM.(DATE,TIME)                                             018  LM00025
 00105 TSX +0 07400 4 00006    00106 TXH +3 00000 0 00020    00107 TXH +3 00000 0 00044
                      PRMESS.(CR,$      $,DATE,TIME,CR,CR,                          019  LM00026
                1     $     NAME       MOD RECS  DATE$)                             019  LM00027
 00110 TSX +0 07400 4 00010    00111 TXH +3 00000 0 00016    00112 TXH +3 00000 0 00074    00113 TXH +3 00000 0 00020
 00114 TXH +3 00000 0 00044    00115 TXH +3 00000 0 00016    00116 TXH +3 00000 0 00016    00117 TXH +3 00000 0 00073
 00120 TXH +3 00000 0 00060    00121 TXH +3 00000 0 00071    00122 TXH +3 00000 0 00062    00123 TXH +3 00000 0 00067
                      FIRST = 0B                                                    020  LM00028
 00124 CLA +0 50000 0 00046    00125 STO +0 60100 0 00022
                      MASK = BCOCT.(COMARG.(1))                                     021  LM00029
 00126 TSX +0 07400 4 00003    00127 TXH +3 00000 0 00047    00130 STO +0 60100 0 00467    00131 TSX +0 07400 4 00000
 00132 TXH +3 00000 0 00467    00133 STO +0 60100 0 00027
                      E'L                                                           022  LM00030
                 N1 = BUFF                                                          023  LM00031
 00134 CLA +0 50000 0 00024    00135 STO +0 60100 0 00033
                 N2 = BUFF(M1)                                                      024  LM00032
 00136 LXA +0 53400 2 00023    00137 CLA +0 50000 2 00024    00140 STO +0 60100 0 00034
                 W'R N1.E.0 .AND. N2.E.0, F'N                                       025  LM00033
 00141 CLA +0 50000 0 00034    00142 SUB +0 40200 0 00046    00143 TNZ -0 10000 0 00150    00144 CLA +0 50000 0 00033
 00145 SUB +0 40200 0 00046    00146 TNZ -0 10000 0 00150    00147 TRA +0 02000 0 00463
                 MODE = (BUFF(M4).A.776K9).RS.28                                    026  LM00034
 00150 LXA +0 53400 1 00025    00151 CAL -0 50000 1 00024    00152 ANA -0 32000 0 00077    00153 SLW +0 60200 0 00467
 00154 CAL -0 50000 0 00054    00155 STA +0 62100 0 00157    00156 CAL -0 50000 0 00467    00157 LGR -0 76500 0 00000
 00160 SLW +0 60200 0 00030
                 AUTH = BZEL.(DERBC.(BUFF(M3)))                                     027  LM00035
 00161 CLA +0 50000 0 00024    00162 SUB +0 40200 0 00163    00163 TXH +3 00000 0 00024    00164 STA +0 62100 0 00166
 00165 TSX +0 07400 4 00004    00166 TXH +3 00000 0 00000    00167 STO +0 60100 0 00467    00170 TSX +0 07400 4 00002
 00171 TXH +3 00000 0 00467    00172 STO +0 60100 0 00012
                 W'R AUTH .E. PROGN, AUTH = $ $                                     028  LM00036
 00173 CLA +0 50000 0 00012    00174 SUB +0 40200 0 00024    00175 TNZ -0 10000 0 00200    00176 CLA +0 50000 0 00074
 00177 STO +0 60100 0 00012
                 W'R (MODE.A.MASK).NE. MASK, F'N                                    029  LM00037
 00200 CAL -0 50000 0 00030    00201 ANA -0 32000 0 00027    00202 SLW +0 60200 0 00467    00203 CLA +0 50000 0 00467
 00204 SUB +0 40200 0 00027    00205 TZE +0 10000 0 00207    00206 TRA +0 02000 0 00463
                 DEVIC = (BUFF(M4).A.7K5).RS.15                                     030  LM00038
 00207 LXA +0 53400 1 00025    00210 CAL -0 50000 1 00024    00211 ANA -0 32000 0 00056    00212 SLW +0 60200 0 00467
 00213 CAL -0 50000 0 00052    00214 STA +0 62100 0 00216    00215 CAL -0 50000 0 00467    00216 LGR -0 76500 0 00000
 00217 SLW +0 60200 0 00021
                 W'R DEVIC .NE. 2, F'N                                              031  LM00039
 00220 CLA +0 50000 0 00021    00221 SUB +0 40200 0 00050    00222 TZE +0 10000 0 00224    00223 TRA +0 02000 0 00463
                 NOREC = (BUFF(M5).RS.18).A.M1                                      032  LM00040
 00224 LXA +0 53400 1 00026    00225 CAL -0 50000 0 00053    00226 STA +0 62100 0 00230    00227 CAL -0 50000 1 00024
 00230 LGR -0 76500 0 00000    00231 ANA -0 32000 0 00023    00232 SLW +0 60200 0 00035
                 W'R PB .NE. PROBN .OR. PG .NE. PROGN                               033  LM00041
 00233 CLA +0 50000 0 00037    00234 SUB +0 40200 0 00024    00235 TNZ -0 10000 0 00241    00236 CLA +0 50000 0 00036
 00237 SUB +0 40200 0 00024    00240 TZE +0 10000 0 00271
                      SUBTOT = BZEL.(DERBC.(SUBTOT))                                034  LM00042
 00241 TSX +0 07400 4 00004    00242 TXH +3 00000 0 00040    00243 STO +0 60100 0 00467    00244 TSX +0 07400 4 00002
 00245 TXH +3 00000 0 00467    00246 STO +0 60100 0 00040
                      W'R SUBTOT.NE.$     0$,PRMESS.(TAB2,SUBTOT)                   035  LM00043
 00247 CLA +0 50000 0 00040    00250 SUB +0 40200 0 00072    00251 TZE +0 10000 0 00255    00252 TSX +0 07400 4 00010
 00253 TXH +3 00000 0 00042    00254 TXH +3 00000 0 00040
                      SUBTOT = 0                                                    036  LM00044
 00255 CLA +0 50000 0 00046    00256 STO +0 60100 0 00040
                      PRMESS.(TAB1,PROBN,BL,PROGN,COLON)                            037  LM00045
 00257 TSX +0 07400 4 00010    00260 TXH +3 00000 0 00041    00261 TXH +3 00000 0 00024    00262 TXH +3 00000 0 00013
 00263 TXH +3 00000 0 00024    00264 TXH +3 00000 0 00014
                      PB = PROBN                                                    038  LM00046
 00265 CLA +0 50000 0 00024    00266 STO +0 60100 0 00036
                      PG = PROGN                                                    039  LM00047
 00267 CLA +0 50000 0 00024    00270 STO +0 60100 0 00037
                      E'L                                                           040  LM00048
                 SUBTOT = SUBTOT + NOREC                                            041  LM00052
 00271 CLA +0 50000 0 00040    00272 ADD +0 40000 0 00035    00273 STO +0 60100 0 00040
                 TOTAL = TOTAL + NOREC                                              042  LM00053
 00274 CLA +0 50000 0 00045    00275 ADD +0 40000 0 00035    00276 STO +0 60100 0 00045
                 COUNT = COUNT + 1                                                  043  LM00054
 00277 CLA +0 50000 0 00015    00300 ADD +0 40000 0 00047    00301 STO +0 60100 0 00015
                 MOD = (OCABC.(MODE)).V.606060K6                                    044  LM00055
 00302 TSX +0 07400 4 00007    00303 TXH +3 00000 0 00030    00304 STO +0 60100 0 00467    00305 CAL -0 50000 0 00467
 00306 ORA -0 50100 0 00070    00307 SLW +0 60200 0 00031
                 NOREC = BZEL.(DERBC.(NOREC))                                       045  LM00056
 00310 TSX +0 07400 4 00004    00311 TXH +3 00000 0 00035    00312 STO +0 60100 0 00467    00313 TSX +0 07400 4 00002
 00314 TXH +3 00000 0 00467    00315 STO +0 60100 0 00035
                 TEMP = BUFF(M3).RS.18                                              046  LM00057
 00316 LXA +0 53400 1 00024    00317 CAL -0 50000 0 00053    00320 STA +0 62100 0 00322    00321 CAL -0 50000 1 00024
 00322 LGR -0 76500 0 00000    00323 SLW +0 60200 0 00043
                 MO = DERBC.((TEMP.RS.5).A.17K)                                     047  LM00058
 00324 CAL -0 50000 0 00051    00325 STA +0 62100 0 00327    00326 CAL -0 50000 0 00043    00327 LGR -0 76500 0 00000
 00330 ANA -0 32000 0 00052    00331 SLW +0 60200 0 00467    00332 TSX +0 07400 4 00004    00333 TXH +3 00000 0 00467
 00334 STO +0 60100 0 00032
                 DA = DERBC.(TEMP.A.37K)                                            048  LM00059
 00335 CAL -0 50000 0 00043    00336 ANA -0 32000 0 00055    00337 SLW +0 60200 0 00467    00340 TSX +0 07400 4 00004
 00341 TXH +3 00000 0 00467    00342 STO +0 60100 0 00017
                 DATE = (MO.LS.18).V.DA.V.$ 00/00$                                  049  LM00060
 00343 CAL -0 50000 0 00053    00344 STA +0 62100 0 00346    00345 CAL -0 50000 0 00032    00346 ALS +0 76700 0 00000
 00347 ORA -0 50100 0 00017    00350 ORA -0 50100 0 00066    00351 SLW +0 60200 0 00020
                 PRMESS.(N1,BL,N2,MOD,NOREC,DATE,AUTH)                              050  LM00061
 00352 TSX +0 07400 4 00010    00353 TXH +3 00000 0 00033    00354 TXH +3 00000 0 00013    00355 TXH +3 00000 0 00034
 00356 TXH +3 00000 0 00031    00357 TXH +3 00000 0 00035    00360 TXH +3 00000 0 00020    00361 TXH +3 00000 0 00012
                 F'N                                                                051  LM00062
 00362 TRA +0 02000 0 00463
                 E'O FPRINT.                                                        052  LM00067
 00363 TRA +0 02000 0 00366    00364 SXA +0 63400 2 00436    00365 TSX +0 07400 2 00436
                 SUBTOT = BZEL.(DERBC.(SUBTOT))                                     053  LM00068
 00366 TSX +0 07400 4 00004    00367 TXH +3 00000 0 00040    00370 STO +0 60100 0 00467    00371 TSX +0 07400 4 00002
 00372 TXH +3 00000 0 00467    00373 STO +0 60100 0 00040
                 COUNT = BZ57.(DERBC.(COUNT))                                       054  LM00069
 00374 TSX +0 07400 4 00004    00375 TXH +3 00000 0 00015    00376 STO +0 60100 0 00467    00377 TSX +0 07400 4 00001
 00400 TXH +3 00000 0 00467    00401 STO +0 60100 0 00015
                 W'R SUBTOT.NE.$     0$,PRMESS.(TAB2,SUBTOT)                        055  LM00070
 00402 CLA +0 50000 0 00040    00403 SUB +0 40200 0 00072    00404 TZE +0 10000 0 00410    00405 TSX +0 07400 4 00010
 00406 TXH +3 00000 0 00042    00407 TXH +3 00000 0 00040
                 TOTAL = BZEL.(DERBC.(TOTAL))                                       056  LM00071
 00410 TSX +0 07400 4 00004    00411 TXH +3 00000 0 00045    00412 STO +0 60100 0 00467    00413 TSX +0 07400 4 00002
 00414 TXH +3 00000 0 00467    00415 STO +0 60100 0 00045
                 PRMESS.(CR,CR,CR,$TOTAL FILES =$,COUNT,$, TOTAL RECORDS =$         057  LM00072
                1 ,TOTAL,CR,CR)                                                     057  LM00073
 00416 TSX +0 07400 4 00010    00417 TXH +3 00000 0 00016    00420 TXH +3 00000 0 00016    00421 TXH +3 00000 0 00016
 00422 TXH +3 00000 0 00075    00423 TXH +3 00000 0 00063    00424 TXH +3 00000 0 00057    00425 TXH +3 00000 0 00015
 00426 TXH +3 00000 0 00076    00427 TXH +3 00000 0 00064    00430 TXH +3 00000 0 00065    00431 TXH +3 00000 0 00045
 00432 TXH +3 00000 0 00016    00433 TXH +3 00000 0 00016
                 F'N                                                                058  LM00074
 00434 TRA +0 02000 0 00463
                 E'N                                                                059  LM00075
 00435 TSX +0 07400 4 00005    00436 TXH +3 00000 0 00000    00437 SXD -0 63400 1 00436    00440 SXA +0 63400 4 00463
 00441 CLA +0 50000 4 00001    00442 STA +0 62100 0 00237    00443 STO +0 60100 0 00261    00444 STA +0 62100 0 00265
 00445 CLA +0 50000 4 00002    00446 STA +0 62100 0 00174    00447 STA +0 62100 0 00234    00450 STO +0 60100 0 00263
 00451 STA +0 62100 0 00267    00452 CLA +0 50000 4 00003    00453 STA +0 62100 0 00134    00454 STA +0 62100 0 00137
 00455 STA +0 62100 0 00151    00456 STO +0 60100 0 00163    00457 STA +0 62100 0 00210    00460 STA +0 62100 0 00227
 00461 STA +0 62100 0 00321    00462 TRA +0 02000 2 00001    00463 AXT +0 77400 4 00000    00464 LXA +0 53400 2 00436
 00465 LXD -0 53400 1 00436    00466 TRA +0 02000 4 00001
