1     MAD PROGRAM LISTING ... ... ...                 FILE    MSCD   MAD            01/20/69    1143.8
-
       SCD            PLOT OUT SCHEDULING QUEUES.                                                      LM00001
                      7/13/66 - NOEL I. MORRIS                                                         LM00002
                                                                                                       LM00003
                  MODIFIED FOR SHORT 'M.' FORM BY R ROACH 10-15-67                                     LM00004
                                                                                                       LM00005
                  NORMAL MODE IS INTEGER                                                          *001 LM00006
                  BOOLEAN PROBOK, LEVOK, MDOT                                                     *002 LM00007
                                                                                                       LM00008
                  VECTOR VALUES QLEN = 0, 0                                                       *003 LM00009
                  EQUIVALENCE (FQLEN, QLEN)                                                       *004 LM00010
                  FLOATING POINT FQLEN                                                            *005 LM00011
                                                                                                       LM00012
                  VECTOR VALUES MINUS1 = -1                                                       *006 LM00013
                  VECTOR VALUES FENCE  = 777777777777K                                            *007 LM00014
                  VECTOR VALUES COMMND = $COMMND$                                                 *008 LM00015
                  VECTOR VALUES AVQLEN = $AVQLEN$                                                 *009 LM00016
                  VECTOR VALUES OVRTOT = $OVRTOT$                                                 *010 LM00017
                  VECTOR VALUES  PLIST = $PLIST$                                                  *011 LM00018
                  VECTOR VALUES  ULIST = $ULIST$                                                  *012 LM00019
                  VECTOR VALUES  PROBN = $PROBN$                                                  *013 LM00020
                  VECTOR VALUES  PROGN = $PROGN$                                                  *014 LM00021
                  VECTOR VALUES  MAXLV = $MAXLV$                                                  *015 LM00022
                  VECTOR VALUES WRKTIM = $WRKTIM$                                                 *016 LM00023
                  VECTOR VALUES TIMLEV = $TIMLEV$                                                 *017 LM00024
                  VECTOR VALUES UCLOCK = $UCLOCK$                                                 *018 LM00025
                  VECTOR VALUES UCHARG = $UCHARG$                                                 *019 LM00026
                  VECTOR VALUES NUSERS = $NUSERS$                                                 *020 LM00027
                  VECTOR VALUES MXUSRS = $MXUSRS$                                                 *021 LM00028
                  VECTOR VALUES TOTTIM = $TOTTIM$                                                 *022 LM00029
                  VECTOR VALUES BKGTIM = $BKGTIM$                                                 *023 LM00030
                  VECTOR VALUES SWPTIM = $SWPTIM$                                                 *024 LM00031
                  VECTOR VALUES STRTIM = $STRTIM$                                                 *025 LM00032
                  VECTOR VALUES     PB = $PB    $                                                 *026 LM00033
                  VECTOR VALUES      N = $N$                                                      *027 LM00034
                  DIMENSION D1(1), D2(1), D3(1)                                                   *028 LM00035
                  FLOATING POINT D0, D1, D2, D3                                                   *029 LM00036
                                                                                                       LM00037
                                                                                                       LM00038
                                                                                                       LM00039
                  VECTOR VALUES LEVEL ... LEVEL (50) = -1                                         *030 LM00040
                  VECTOR VALUES   POS ...   POS (50) = -1                                         *031 LM00041
                  OLDTOT = 0                                                                      *032 LM00042
                  VECTOR VALUES SPACE ... SPACE (10) = 606033575757K                              *033 LM00043
                  VECTOR VALUES BLANK = 605757575757K                                             *034 LM00044
                  VECTOR VALUES COMMA = 736057575757K                                             *035 LM00045
                  VECTOR VALUES EQUAL = 601360575757K                                             *036 LM00046
                                                                                                       LM00047
                                                                                                       LM00048
                                                                                                       LM00049
                                                                                                       LM00050
                      BEGINNING OF PROGRAM.                                                            LM00051
                                                                                                       LM00052
                  WHENEVER COMARG.(0) .E. $    M.$                                                *037 LM00053
                       MDOT = 1B                                                                  *038 LM00054
                  OTHERWISE                                                                       *039 LM00055
                       MDOT = 0B                                                                  *040 LM00056
                  END OF CONDITIONAL                                                              *041 LM00057
                  PRMESS.                                                                         *042 LM00058
                  SLTIM = COMARG. (1)                                                             *043 LM00059
                  WHENEVER SLTIM .E. FENCE                                                        *044 LM00060
                       SLTIM = 0                                                                  *045 LM00061
                  OTHERWISE                                                                       *046 LM00062
                       SLTIM = BCDEC. (SLTIM) * 60                                                *047 LM00063
                  END OF CONDITIONAL                                                              *048 LM00064
                                                                                                       LM00065
                      GET COMMON LOCATION VALUES.                                                      LM00066
                                                                                                       LM00067
                  AVQLEN = ACORE. (AVQLEN) .RS. 18                                                *049 LM00068
                  OVRTOT = ACORE. (OVRTOT) .RS. 18                                                *050 LM00069
                  PLIST = COMLOC. (PLIST)                                                         *051 LM00070
                  ULIST = COMLOC. (ULIST)                                                         *052 LM00071
                  PROBN = COMLOC. (PROBN)                                                         *053 LM00072
                  PROGN = COMLOC. (PROGN)                                                         *054 LM00073
                  COMMND = COMLOC. (COMMND)                                                       *055 LM00074
                  MAXLV = COMLOC. (MAXLV)                                                         *056 LM00075
                  WRKTIM = COMLOC. (WRKTIM)                                                       *057 LM00076
                  TIMLEV = COMLOC. (TIMLEV)                                                       *058 LM00077
                  UCLOCK = COMLOC. (UCLOCK)                                                       *059 LM00078
                  UCHARG = COMLOC. (UCHARG)                                                       *060 LM00079
                  NUSERS = COMLOC. (NUSERS)                                                       *061 LM00080
                  MXUSRS = COMLOC. (MXUSRS)                                                       *062 LM00081
                  TOTTIM = COMLOC. (TOTTIM)                                                       *063 LM00082
                  BKGTIM = COMLOC. (BKGTIM)                                                       *064 LM00083
                  SWPTIM = COMLOC. (SWPTIM)                                                       *065 LM00084
                  STRTIM = COMLOC.(STRTIM)                                                        *066 LM00085
                     PB  = COMLOC.(PB)                                                            *067 LM00086
                  N = COMLOC. (N)                                                                 *068 LM00087
                  TIMNOW = GETIME.(0)                                                             *069 LM00088
                                                                                                       LM00089
                                                                                                       LM00090
                      INITIALIZE QUEUES.                                                               LM00091
                                                                                                       LM00092
                  FIRST = 1                                                                       *070 LM00093
      BEGIN       SPRAY. (MINUS1, LEVEL ... LEVEL (N), POS ... POS (N) )                          *071 LM00094
                                                                                                       LM00095
                                                                                                       LM00096
                      PICK UP QUEUE POSITIONS.                                                         LM00097
                                                                                                       LM00098
                  THROUGH LEVLOP, FOR QLEV = 0, 1, QLEV .G. MAXLV                                 *072 LM00099
                  NEXQ = QLEV                                                                     *073 LM00100
                  QPOS = 1                                                                        *074 LM00101
                                                                                                       LM00102
      NEXT        NEXQ = GLOC. (PLIST+NEXQ)                                                       *075 LM00103
                  USR = GLOC. (ULIST+NEXQ)                                                        *076 LM00104
                  WHENEVER USR .NE. MINUS1                                                        *077 LM00105
                       LEVEL (USR) = QLEV - 1                                                     *078 LM00106
                       POS (USR) = QPOS                                                           *079 LM00107
                       QPOS = QPOS + 1                                                            *080 LM00108
                       TRANSFER TO NEXT                                                           *081 LM00109
                  END OF CONDITIONAL                                                              *082 LM00110
                                                                                                       LM00111
      LEVLOP      CONTINUE                                                                        *083 LM00112
                                                                                                       LM00113
                                                                                                       LM00114
                      GET AVERAGE QUEUE LENGTH AND PRINT.                                              LM00115
                                                                                                       LM00116
                  TIME = GTDYTM. (0)                                                              *084 LM00117
                  FTIME. (TIME, DATE, TIME)                                                       *085 LM00118
                  DATE = ((DATE) .A. 7777K8) .V.                                                  *086 LM00119
                1      ((DATE .RS. 6) .A. 7777K2) .V. $00/00 $                                    *086 LM00120
                  QLEN = GLOC. (AVQLEN )                                                          *087 LM00121
                  FQLEN = (FQLEN / 1000.0) + 0.05                                                 *088 LM00122
                  FLOTBC. (QLEN)                                                                  *089 LM00123
                  PRMESS. ($AVG. QUEUE LENGTH AT$, DATE, TIME,                                    *090 LM00124
                1      EQUAL, QLEN ... 2)                                                         *090 LM00125
                                                                                                       LM00126
                      PRINT OUT DRUM OVERFLOW STATISTICS.                                              LM00127
                                                                                                       LM00128
                  OVRT = GLOC.(OVRTOT)                                                            *091 LM00129
                  WHENEVER OLDTOT-OVRT .NE. 0                                                     *092 LM00130
                     PRMESS.($OVRTOT$,601360575757K,BZ57.(DERBC.(OVRT)))                          *093 LM00131
                     OLDTOT = OVRT                                                                *094 LM00132
                  END OF CONDITIONAL                                                              *095 LM00133
                                                                                                       LM00134
                                                                                                       LM00135
                                                                                                       LM00136
                                                                                                       LM00137
                                                                                                       LM00138
                      PRINT OUT THE NUMBER OF USERS.                                                   LM00139
                 ..                                                                                    LM00140
                  PRMESS.($USERS=$,CONV.(GLOC.(NUSERS)),$,MAX=$,BZ57.(DERBC.                      *096 LM00141
                1  (GLOC.(MXUSRS))))                                                              *096 LM00142
                  TEMP = GLOC.(TOTTIM)                                                            *097 LM00143
                  D0 = TEMP - T0                                                                  *098 LM00144
                  T0 = TEMP                                                                       *099 LM00145
                  TEMP = GLOC.(BKGTIM)                                                            *100 LM00146
                  D3 = TEMP - T3                                                                  *101 LM00147
                  D3 = 100.*D3/D0 + .05                                                           *102 LM00148
                  T3 = TEMP                                                                       *103 LM00149
                  TEMP = GLOC.(SWPTIM)                                                            *104 LM00150
                  D2 = TEMP - T2                                                                  *105 LM00151
                  D2 = 100.*D2/D0 + .05                                                           *106 LM00152
                  T2 = TEMP                                                                       *107 LM00153
                  D1 = 100.15 - D2 - D3                                                           *108 LM00154
                  FLOTBC. (D1)                                                                    *109 LM00155
                  FLOTBC. (D2)                                                                    *110 LM00156
                  FLOTBC. (D3)                                                                    *111 LM00157
                                                                                                       LM00158
                  WHENEVER FIRST .E. 0                                                            *112 LM00159
                  PRMESS. ($GOOD =$, D1 ... 2, COMMA,                                             *113 LM00160
                2          $SWAP =$, D2 ... 2, COMMA,                                             *113 LM00161
                3          $OTHER=$, D3 ... 2)                                                    *113 LM00162
                  END OF CONDITIONAL                                                              *114 LM00163
                                                                                                       LM00164
                                                                                                       LM00165
                  THROUGH LOOP, FOR I = 0, 1, I .G. N                                             *115 LM00166
                  PERCNT = GLOC. (PB + I)                                                         *116 LM00167
                  WHENEVER PERCNT .E. 0, TRANSFER TO LOOP                                         *117 LM00168
                                                                                                       LM00169
                  WHENEVER I .E. 0                                                                *118 LM00170
                       PROB = $ BACKG$                                                            *119 LM00171
                       PROG = $ROUND $                                                            *120 LM00172
                  OTHERWISE                                                                       *121 LM00173
                       PROB = GLOC. (PROBN + I)                                                   *122 LM00174
                       PROG = GLOC. (PROGN + I)                                                   *123 LM00175
                  END OF CONDITIONAL                                                              *124 LM00176
                                                                                                       LM00177
                  STRT = GLOC. (STRTIM + I)                                                       *125 LM00178
                  WRK = GLOC. (WRKTIM + I)                                                        *126 LM00179
                                                                                                       LM00180
                  REALP = (100 * WRK) / (TIMNOW - STRT)                                           *127 LM00181
                                                                                                       LM00182
                  PRMESS.(PROB,PROG,BLANK,BZEL.(HRMIN.(STRT)),BZEL.(HRMIN.(WRK)                   *128 LM00183
                1  ), BZEL.(DERBC. (REALP)), BZEL.(DERBC. (PERCNT)))                              *128 LM00184
                                                                                                       LM00185
      LOOP        CONTINUE                                                                        *129 LM00186
                  WHENEVER MDOT, TRANSFER TO SNORE                                                *130 LM00187
                  PRMESS.                                                                         *131 LM00188
                  PRMESS.                                                                         *132 LM00189
                                                                                                       LM00190
                                                                                                       LM00191
                      PRINT OUT QUEUE POSITION CHART.                                                  LM00192
                                                                                                       LM00193
                  PRMESS. ( $     USER    COMMND WRKTIM TIMLEV UCLOCK U$,                         *133 LM00194
                1      $SWAP   1  2  3  4  5  6  7  8  9$ )                                       *133 LM00195
                  PRMESS.                                                                         *134 LM00196
                                                                                                       LM00197
                  THROUGH PRLOOP, FOR USR = 0, 1, USR .G. N                                       *135 LM00198
                                                                                                       LM00199
                  WHENEVER USR .E. 0                                                              *136 LM00200
                       PROB = $ BACKG$                                                            *137 LM00201
                       PROG = $ROUND $                                                            *138 LM00202
                  OTHERWISE                                                                       *139 LM00203
                       PROB = GLOC. (PROBN+USR)                                                   *140 LM00204
                       PROG = GLOC. (PROGN+USR)                                                   *141 LM00205
                  END OF CONDITIONAL                                                              *142 LM00206
                  COM = GLOC. (COMMND+USR)                                                        *143 LM00207
                  WHENEVER COM .E. 0, COM = $ $                                                   *144 LM00208
                  LEVOK = LEVEL (USR) .NE. MINUS1                                                 *145 LM00209
                  PROBOK = PROB .NE. 0                                                            *146 LM00210
                                                                                                       LM00211
                  WHENEVER LEVOK                                                                  *147 LM00212
                       WHENEVER .NOT. PROBOK                                                      *148 LM00213
                            PROB = $ $                                                            *149 LM00214
                            PROG = $ $                                                            *150 LM00215
                       END OF CONDITIONAL                                                         *151 LM00216
                       WT = GLOC. (WRKTIM+USR) * 60                                               *152 LM00217
                       TL = GLOC. (TIMLEV+USR) * 60                                               *153 LM00218
                       TM = GLOC. (UCLOCK+USR) * 60                                               *154 LM00219
                       TN = TM - GLOC. (UCHARG+USR) * 60                                          *155 LM00220
                       PRMESS. (PROB, PROG, BLANK, COM, BLANK,                                    *156 LM00221
                1           CTIME. (WT), BLANK, CTIME. (TL), BLANK,                               *156 LM00222
                2                   CTIME. (TM), BLANK, CTIME. (TN),                              *156 LM00223
                3           SPACE ... LEVEL (USR), CONV. (POS (USR) ) )                           *156 LM00224
                  END OF CONDITIONAL                                                              *157 LM00225
                                                                                                       LM00226
      PRLOOP      CONTINUE                                                                        *158 LM00227
                                                                                                       LM00228
                                                                                                       LM00229
                      EXIT TO CHNCOM.                                                                  LM00230
                                                                                                       LM00231
                  PRMESS.                                                                         *159 LM00232
      SNORE       PRMESS.                                                                         *160 LM00233
                  WHENEVER SLTIM .NE. 0                                                           *161 LM00234
                       SNOOZE.(SLTIM,0)                                                           *162 LM00235
                  OTHERWISE                                                                       *163 LM00236
                       CHNCOM. (1)                                                                *164 LM00237
                  END OF CONDITIONAL                                                              *165 LM00238
                  PRMESS.                                                                         *166 LM00239
                            FIRST = 0                                                             *167 LM00240
                  TRANSFER TO BEGIN                                                               *168 LM00241
                                                                                                       LM00242
                                                                                                       LM00243
                                                                                                       LM00244
                      CONVERT TO BCD.                                                                  LM00245
                                                                                                       LM00246
                  INTERNAL FUNCTION (NUM)                                                         *169 LM00247
                  ENTRY TO CONV.                                                                  *170 LM00248
                  FUNCTION RETURN (BZEL. (DEFBC. (NUM) ) .A. 777777K) .V. 575757K6                *171 LM00249
                  END OF FUNCTION                                                                 *172 LM00250
                                                                                                       LM00251
                                                                                                       LM00252
                      CONVERT TIME TO BCD.                                                             LM00253
                                                                                                       LM00254
                  INTERNAL FUNCTION (NUM)                                                         *173 LM00255
                  ENTRY TO CTIME.                                                                 *174 LM00256
                  FUNCTION RETURN BZEL. (MINS. (NUM) )                                            *175 LM00257
                  END OF FUNCTION                                                                 *176 LM00258
                                                                                                       LM00259
                                                                                                       LM00260
                 ..   FLOATING POINT TO BCD.                                                           LM00261
                 ..                                                                                    LM00262
                  INTERNAL FUNCTION (NUM)                                                         *177 LM00263
                  ENTRY TO FLOTBC.                                                                *178 LM00264
                  FIX. (NUM, NUM, NUM (1))                                                        *179 LM00265
                  NUM = CONV. (NUM)                                                               *180 LM00266
                  NUM (1) = (FRACBC.(NUM(1)).RS.6) .A. 77K8 .V. 330057575757K                     *181 LM00267
                  FUNCTION RETURN                                                                 *182 LM00268
                  END OF FUNCTION                                                                 *183 LM00269
                                                                                                       LM00270
                                                                                                       LM00271
                  END OF PROGRAM                                                                  *184 LM00272
1MAD PROGRAM,TYPE NOV 1963      (ALL NUMBERS ARE OCTAL)
0TOTAL LOCATIONS   01626 TRANSFER VECTOR LENGTH  00026 PROGRAM BEGINS    00376
0VARIABLE STORAGE (A=ARRAY,C=COMMON,E=ERASABLE,DIGIT=MODE)
      AVQLEN 00040 A 1        FIRST  00060   1        NUSERS 00154 A 1        QLEN   00033 A 1        TIME   00301   1
      BEGIN  00034   4        FQLEN  00033   0        OLDTOT 00155   1        QLEV   00253   1        TIMLEV 00302 A 1
      BKGTIM 00041 A 1        I      00061   1        OVRTOT 00156 A 1        QPOS   00254   1        TIMNOW 00303   1
      BLANK  00042 A 1        LEVEL  00144 A 1        OVRT   00157   1        REALP  00255   1        TL     00304   1
      COMMA  00043 A 1        LEVLOP 00031   4        PB     00160 A 1        SLTIM  00256   1        TM     00305   1
      COMMND 00044 A 1        LEVOK  00145   2        PERCNT 00161   1        SNORE  00037   4        TN     00306   1
      COM    00045   1        LOOP   00035   4        PLIST  00162 A 1        SPACE  00271 A 1        TOTTIM 00307 A 1
      D0     00046   0        MAXLV  00146 A 1        POS    00245 A 1        STRTIM 00272 A 1        UCHARG 00310 A 1
      D1     00050 A 0        MDOT   00147   2        PRLOOP 00031   4        STRT   00273   1        UCLOCK 00311 A 1
      D2     00052 A 0        MINUS1 00150 A 1        PROBN  00246 A 1        SWPTIM 00274 A 1        ULIST  00312 A 1
      D3     00054 A 0        MXUSRS 00151 A 1        PROBOK 00247   2        T0     00275   1        USR    00313   1
      DATE   00055   1        NEXQ   00152   1        PROB   00250   1        T2     00276   1        WRK    00314   1
      EQUAL  00056 A 1        NEXT   00036   4        PROGN  00251 A 1        T3     00277   1        WRKTIM 00315 A 1
      FENCE  00057 A 1        N      00153 A 1        PROG   00252   1        TEMP   00300   1        WT     00316   1
0FUNCTION DICTIONARY
      ACORE  00000   1        BCDEC  00001   1        BZ57   00002   1        BZEL   00003   1        CHNCOM 00004   1
      COMARG 00005   1        COMLOC 00006   1        DEFBC  00007   1        DERBC  00010   1        EXIT   00011   1
      FIX    00012   1        FRACBC 00013   1        FTIME  00014   1        GETIME 00015   1        GLOC   00016   1
      GTDYTM 00017   1        HRMIN  00020   1        .SETUP 00021   1        MINS   00022   1        PRMESS 00023   1
      SNOOZE 00024   1        SPRAY  00025   1        CONV   00026   1        CTIME  00027   1        FLOTBC 00030   1
0ABSOLUTE CONSTANTS
 00345 +330057575757     00331 +007700000000     00353 -175757000000     00327 +000000777777     00365 -206060606060
 00360 -201160606060     00357 -200760601060     00356 -200560600660     00355 -200360600460     00354 -200160600260
 00371 -226621476060     00347 -034623426064     00346 -032565606423     00344 +314460633144     00341 +246066514263
 00363 -202346444445     00367 -222551606060     00366 -206060606064     00325 +000000000144     00352 -114664452460
 00362 -202221234227     00350 -066330255113     00370 -226621476013     00343 +274646246013     00334 +207620463146
 00333 +207620000000     00374 -334421671360     00373 -246225516213     00361 -201360575757     00351 -066551634663
 00321 +000000000002     00336 +216360606060     00342 +254527633060     00372 -242564256043     00337 +216527336050
 00332 +174631463146     00335 +212764000000     00330 +000061000060     00375 -377700000000     00326 +000000777700
 00322 +000000000006     00323 +000000000022     00324 +000000000074     00364 -206060604433     00317 +000000000000
 00320 +000000000001     00340 +233000000000
0STATEMENT DICTIONARY
 00034 TXL -300562000544       00035 TXL -301204001203       00036 TXL -300606000600       00037 TXL -301445001444
0PROGRAM
                 N'R                                                                001  LM00006
                 B'N PROBOK, LEVOK, MDOT                                            002  LM00007
                 V'S QLEN = 0, 0                                                    003  LM00009
 00376 TSX +0 07400 4 00021    00032     +0 00000 0 00000    00033     +0 00000 0 00000
                 E'E (FQLEN, QLEN)                                                  004  LM00010
                 F'T FQLEN                                                          005  LM00011
                 V'S MINUS1 = -1                                                    006  LM00013
 00150     -0 00000 0 00001
                 V'S FENCE  = 777777777777K                                         007  LM00014
 00057     -3 77777 7 77777
                 V'S COMMND = $COMMND$                                              008  LM00015
 00044     +2 34644 4 44524
                 V'S AVQLEN = $AVQLEN$                                              009  LM00016
 00040     +2 16550 4 32545
                 V'S OVRTOT = $OVRTOT$                                              010  LM00017
 00156     -0 66551 6 34663
                 V'S  PLIST = $PLIST$                                               011  LM00018
 00162     -0 74331 6 26360
                 V'S  ULIST = $ULIST$                                               012  LM00019
 00312     -2 44331 6 26360
                 V'S  PROBN = $PROBN$                                               013  LM00020
 00246     -0 75146 2 24560
                 V'S  PROGN = $PROGN$                                               014  LM00021
 00251     -0 75146 2 74560
                 V'S  MAXLV = $MAXLV$                                               015  LM00022
 00146     -0 42167 4 36560
                 V'S WRKTIM = $WRKTIM$                                              016  LM00023
 00315     -2 65142 6 33144
                 V'S TIMLEV = $TIMLEV$                                              017  LM00024
 00302     -2 33144 4 32565
                 V'S UCLOCK = $UCLOCK$                                              018  LM00025
 00311     -2 42343 4 62342
                 V'S UCHARG = $UCHARG$                                              019  LM00026
 00310     -2 42330 2 15127
                 V'S NUSERS = $NUSERS$                                              020  LM00027
 00154     -0 56462 2 55162
                 V'S MXUSRS = $MXUSRS$                                              021  LM00028
 00151     -0 46764 6 25162
                 V'S TOTTIM = $TOTTIM$                                              022  LM00029
 00307     -2 34663 6 33144
                 V'S BKGTIM = $BKGTIM$                                              023  LM00030
 00041     +2 24227 6 33144
                 V'S SWPTIM = $SWPTIM$                                              024  LM00031
 00274     -2 26647 6 33144
                 V'S STRTIM = $STRTIM$                                              025  LM00032
 00272     -2 26351 6 33144
                 V'S     PB = $PB    $                                              026  LM00033
 00160     -0 72260 6 06060
                 V'S      N = $N$                                                   027  LM00034
 00153     -0 56060 6 06060
                 DIMENSION D1(1), D2(1), D3(1)                                      028  LM00035
                 FLOATING POINT D0, D1, D2, D3                                      029  LM00036
                 V'S LEVEL ... LEVEL (50) = -1                                      030  LM00040
 00062     -0 00000 0 00001    00063     -0 00000 0 00001    00064     -0 00000 0 00001    00065     -0 00000 0 00001
 00066     -0 00000 0 00001    00067     -0 00000 0 00001    00070     -0 00000 0 00001    00071     -0 00000 0 00001
 00072     -0 00000 0 00001    00073     -0 00000 0 00001    00074     -0 00000 0 00001    00075     -0 00000 0 00001
 00076     -0 00000 0 00001    00077     -0 00000 0 00001    00100     -0 00000 0 00001    00101     -0 00000 0 00001
 00102     -0 00000 0 00001    00103     -0 00000 0 00001    00104     -0 00000 0 00001    00105     -0 00000 0 00001
 00106     -0 00000 0 00001    00107     -0 00000 0 00001    00110     -0 00000 0 00001    00111     -0 00000 0 00001
 00112     -0 00000 0 00001    00113     -0 00000 0 00001    00114     -0 00000 0 00001    00115     -0 00000 0 00001
 00116     -0 00000 0 00001    00117     -0 00000 0 00001    00120     -0 00000 0 00001    00121     -0 00000 0 00001
 00122     -0 00000 0 00001    00123     -0 00000 0 00001    00124     -0 00000 0 00001    00125     -0 00000 0 00001
 00126     -0 00000 0 00001    00127     -0 00000 0 00001    00130     -0 00000 0 00001    00131     -0 00000 0 00001
 00132     -0 00000 0 00001    00133     -0 00000 0 00001    00134     -0 00000 0 00001    00135     -0 00000 0 00001
 00136     -0 00000 0 00001    00137     -0 00000 0 00001    00140     -0 00000 0 00001    00141     -0 00000 0 00001
 00142     -0 00000 0 00001    00143     -0 00000 0 00001    00144     -0 00000 0 00001
                 V'S   POS ...   POS (50) = -1                                      031  LM00041
 00163     -0 00000 0 00001    00164     -0 00000 0 00001    00165     -0 00000 0 00001    00166     -0 00000 0 00001
 00167     -0 00000 0 00001    00170     -0 00000 0 00001    00171     -0 00000 0 00001    00172     -0 00000 0 00001
 00173     -0 00000 0 00001    00174     -0 00000 0 00001    00175     -0 00000 0 00001    00176     -0 00000 0 00001
 00177     -0 00000 0 00001    00200     -0 00000 0 00001    00201     -0 00000 0 00001    00202     -0 00000 0 00001
 00203     -0 00000 0 00001    00204     -0 00000 0 00001    00205     -0 00000 0 00001    00206     -0 00000 0 00001
 00207     -0 00000 0 00001    00210     -0 00000 0 00001    00211     -0 00000 0 00001    00212     -0 00000 0 00001
 00213     -0 00000 0 00001    00214     -0 00000 0 00001    00215     -0 00000 0 00001    00216     -0 00000 0 00001
 00217     -0 00000 0 00001    00220     -0 00000 0 00001    00221     -0 00000 0 00001    00222     -0 00000 0 00001
 00223     -0 00000 0 00001    00224     -0 00000 0 00001    00225     -0 00000 0 00001    00226     -0 00000 0 00001
 00227     -0 00000 0 00001    00230     -0 00000 0 00001    00231     -0 00000 0 00001    00232     -0 00000 0 00001
 00233     -0 00000 0 00001    00234     -0 00000 0 00001    00235     -0 00000 0 00001    00236     -0 00000 0 00001
 00237     -0 00000 0 00001    00240     -0 00000 0 00001    00241     -0 00000 0 00001    00242     -0 00000 0 00001
 00243     -0 00000 0 00001    00244     -0 00000 0 00001    00245     -0 00000 0 00001
                 OLDTOT = 0                                                         032  LM00042
 00377 CLA +0 50000 0 00317    00400 STO +0 60100 0 00155
                 V'S SPACE ... SPACE (10) = 606033575757K                           033  LM00043
 00257     -2 06033 5 75757    00260     -2 06033 5 75757    00261     -2 06033 5 75757    00262     -2 06033 5 75757
 00263     -2 06033 5 75757    00264     -2 06033 5 75757    00265     -2 06033 5 75757    00266     -2 06033 5 75757
 00267     -2 06033 5 75757    00270     -2 06033 5 75757    00271     -2 06033 5 75757
                 V'S BLANK = 605757575757K                                          034  LM00044
 00042     -2 05757 5 75757
                 V'S COMMA = 736057575757K                                          035  LM00045
 00043     -3 36057 5 75757
                 V'S EQUAL = 601360575757K                                          036  LM00046
 00056     -2 01360 5 75757
                 W'R COMARG.(0) .E. $    M.$                                        037  LM00053
 00401 TSX +0 07400 4 00005    00402 TXH +3 00000 0 00317    00403 SUB +0 40200 0 00364    00404 TNZ -0 10000 0 00410
                      MDOT = 1B                                                     038  LM00054
 00405 CLA +0 50000 0 00320    00406 STO +0 60100 0 00147
                 O'E                                                                039  LM00055
 00407 TRA +0 02000 0 00412
                      MDOT = 0B                                                     040  LM00056
 00410 CLA +0 50000 0 00317    00411 STO +0 60100 0 00147
                 E'L                                                                041  LM00057
                 PRMESS.                                                            042  LM00058
 00412 TSX +0 07400 4 00023
                 SLTIM = COMARG. (1)                                                043  LM00059
 00413 TSX +0 07400 4 00005    00414 TXH +3 00000 0 00320    00415 STO +0 60100 0 00256
                 W'R SLTIM .E. FENCE                                                044  LM00060
 00416 CLA +0 50000 0 00256    00417 SUB +0 40200 0 00057    00420 TNZ -0 10000 0 00424
                      SLTIM = 0                                                     045  LM00061
 00421 CLA +0 50000 0 00317    00422 STO +0 60100 0 00256
                 O'E                                                                046  LM00062
 00423 TRA +0 02000 0 00431
                      SLTIM = BCDEC. (SLTIM) * 60                                   047  LM00063
 00424 TSX +0 07400 4 00001    00425 TXH +3 00000 0 00256    00426 XCA +0 13100 0 00000    00427 MPY +0 20000 0 00324
 00430 STQ -0 60000 0 00256
                 E'L                                                                048  LM00064
                 AVQLEN = ACORE. (AVQLEN) .RS. 18                                   049  LM00068
 00431 TSX +0 07400 4 00000    00432 TXH +3 00000 0 00040    00433 STO +0 60100 0 01617    00434 CAL -0 50000 0 00323
 00435 STA +0 62100 0 00437    00436 CAL -0 50000 0 01617    00437 LGR -0 76500 0 00000    00440 SLW +0 60200 0 00040
                 OVRTOT = ACORE. (OVRTOT) .RS. 18                                   050  LM00069
 00441 TSX +0 07400 4 00000    00442 TXH +3 00000 0 00156    00443 STO +0 60100 0 01617    00444 CAL -0 50000 0 00323
 00445 STA +0 62100 0 00447    00446 CAL -0 50000 0 01617    00447 LGR -0 76500 0 00000    00450 SLW +0 60200 0 00156
                 PLIST = COMLOC. (PLIST)                                            051  LM00070
 00451 TSX +0 07400 4 00006    00452 TXH +3 00000 0 00162    00453 STO +0 60100 0 00162
                 ULIST = COMLOC. (ULIST)                                            052  LM00071
 00454 TSX +0 07400 4 00006    00455 TXH +3 00000 0 00312    00456 STO +0 60100 0 00312
                 PROBN = COMLOC. (PROBN)                                            053  LM00072
 00457 TSX +0 07400 4 00006    00460 TXH +3 00000 0 00246    00461 STO +0 60100 0 00246
                 PROGN = COMLOC. (PROGN)                                            054  LM00073
 00462 TSX +0 07400 4 00006    00463 TXH +3 00000 0 00251    00464 STO +0 60100 0 00251
                 COMMND = COMLOC. (COMMND)                                          055  LM00074
 00465 TSX +0 07400 4 00006    00466 TXH +3 00000 0 00044    00467 STO +0 60100 0 00044
                 MAXLV = COMLOC. (MAXLV)                                            056  LM00075
 00470 TSX +0 07400 4 00006    00471 TXH +3 00000 0 00146    00472 STO +0 60100 0 00146
                 WRKTIM = COMLOC. (WRKTIM)                                          057  LM00076
 00473 TSX +0 07400 4 00006    00474 TXH +3 00000 0 00315    00475 STO +0 60100 0 00315
                 TIMLEV = COMLOC. (TIMLEV)                                          058  LM00077
 00476 TSX +0 07400 4 00006    00477 TXH +3 00000 0 00302    00500 STO +0 60100 0 00302
                 UCLOCK = COMLOC. (UCLOCK)                                          059  LM00078
 00501 TSX +0 07400 4 00006    00502 TXH +3 00000 0 00311    00503 STO +0 60100 0 00311
                 UCHARG = COMLOC. (UCHARG)                                          060  LM00079
 00504 TSX +0 07400 4 00006    00505 TXH +3 00000 0 00310    00506 STO +0 60100 0 00310
                 NUSERS = COMLOC. (NUSERS)                                          061  LM00080
 00507 TSX +0 07400 4 00006    00510 TXH +3 00000 0 00154    00511 STO +0 60100 0 00154
                 MXUSRS = COMLOC. (MXUSRS)                                          062  LM00081
 00512 TSX +0 07400 4 00006    00513 TXH +3 00000 0 00151    00514 STO +0 60100 0 00151
                 TOTTIM = COMLOC. (TOTTIM)                                          063  LM00082
 00515 TSX +0 07400 4 00006    00516 TXH +3 00000 0 00307    00517 STO +0 60100 0 00307
                 BKGTIM = COMLOC. (BKGTIM)                                          064  LM00083
 00520 TSX +0 07400 4 00006    00521 TXH +3 00000 0 00041    00522 STO +0 60100 0 00041
                 SWPTIM = COMLOC. (SWPTIM)                                          065  LM00084
 00523 TSX +0 07400 4 00006    00524 TXH +3 00000 0 00274    00525 STO +0 60100 0 00274
                 STRTIM = COMLOC.(STRTIM)                                           066  LM00085
 00526 TSX +0 07400 4 00006    00527 TXH +3 00000 0 00272    00530 STO +0 60100 0 00272
                    PB  = COMLOC.(PB)                                               067  LM00086
 00531 TSX +0 07400 4 00006    00532 TXH +3 00000 0 00160    00533 STO +0 60100 0 00160
                 N = COMLOC. (N)                                                    068  LM00087
 00534 TSX +0 07400 4 00006    00535 TXH +3 00000 0 00153    00536 STO +0 60100 0 00153
                 TIMNOW = GETIME.(0)                                                069  LM00088
 00537 TSX +0 07400 4 00015    00540 TXH +3 00000 0 00317    00541 STO +0 60100 0 00303
                 FIRST = 1                                                          070  LM00093
 00542 CLA +0 50000 0 00320    00543 STO +0 60100 0 00060
      BEGIN      SPRAY. (MINUS1, LEVEL ... LEVEL (N), POS ... POS (N) )             071  LM00094
 00544 CLA +0 50000 0 00153    00545 SUB +0 40200 0 00546    00546 TXH +3 00000 0 00245    00547 ALS +0 76700 0 00022
 00550 STD +0 62200 0 00561    00551 CLA +0 50000 0 00153    00552 SUB +0 40200 0 00553    00553 TXH +3 00000 0 00144
 00554 ALS +0 76700 0 00022    00555 STD +0 62200 0 00560    00556 TSX +0 07400 4 00025    00557 TXH +3 00000 0 00150
 00560 TIX +2 00000 0 00144    00561 TIX +2 00000 0 00245
                 T'H LEVLOP, FOR QLEV = 0, 1, QLEV .G. MAXLV                        072  LM00099
 00562 CLA +0 50000 0 00317    00563 STO +0 60100 0 00253    00564 TRA +0 02000 0 00570    00565 CLA +0 50000 0 00253
 00566 ADD +0 40000 0 00320    00567 STO +0 60100 0 00253    00570 CLA +0 50000 0 00253    00571 SUB +0 40200 0 00146
 00572 TZE +0 10000 0 00574    00573 TPL +0 12000 0 00632
                 NEXQ = QLEV                                                        073  LM00100
 00574 CLA +0 50000 0 00253    00575 STO +0 60100 0 00152
                 QPOS = 1                                                           074  LM00101
 00576 CLA +0 50000 0 00320    00577 STO +0 60100 0 00254
      NEXT       NEXQ = GLOC. (PLIST+NEXQ)                                          075  LM00103
 00600 CLA +0 50000 0 00162    00601 ADD +0 40000 0 00152    00602 STO +0 60100 0 01617    00603 TSX +0 07400 4 00016
 00604 TXH +3 00000 0 01617    00605 STO +0 60100 0 00152
                 USR = GLOC. (ULIST+NEXQ)                                           076  LM00104
 00606 CLA +0 50000 0 00312    00607 ADD +0 40000 0 00152    00610 STO +0 60100 0 01617    00611 TSX +0 07400 4 00016
 00612 TXH +3 00000 0 01617    00613 STO +0 60100 0 00313
                 W'R USR .NE. MINUS1                                                077  LM00105
 00614 CLA +0 50000 0 00313    00615 SUB +0 40200 0 00150    00616 TZE +0 10000 0 00631
                      LEVEL (USR) = QLEV - 1                                        078  LM00106
 00617 CLA +0 50000 0 00253    00620 SUB +0 40200 0 00320    00621 LXA +0 53400 1 00313    00622 STO +0 60100 1 00144
                      POS (USR) = QPOS                                              079  LM00107
 00623 CLA +0 50000 0 00254    00624 STO +0 60100 1 00245
                      QPOS = QPOS + 1                                               080  LM00108
 00625 CLA +0 50000 0 00254    00626 ADD +0 40000 0 00320    00627 STO +0 60100 0 00254
                      T'O NEXT                                                      081  LM00109
 00630 TRA +0 02000 0 00036
                 E'L                                                                082  LM00110
      LEVLOP     C'E                                                                083  LM00112
 00631 TRA +0 02000 0 00565
                 TIME = GTDYTM. (0)                                                 084  LM00117
 00632 TSX +0 07400 4 00017    00633 TXH +3 00000 0 00317    00634 STO +0 60100 0 00301
                 FTIME. (TIME, DATE, TIME)                                          085  LM00118
 00635 TSX +0 07400 4 00014    00636 TXH +3 00000 0 00301    00637 TXH +3 00000 0 00055    00640 TXH +3 00000 0 00301
                 DATE = ((DATE) .A. 7777K8) .V.                                     086  LM00119
                1     ((DATE .RS. 6) .A. 7777K2) .V. $00/00 $                       086  LM00120
 00641 CAL -0 50000 0 00322    00642 STA +0 62100 0 00644    00643 CAL -0 50000 0 00055    00644 LGR -0 76500 0 00000
 00645 ANA -0 32000 0 00326    00646 SLW +0 60200 0 01617    00647 CAL -0 50000 0 00055    00650 ANA -0 32000 0 00375
 00651 ORA -0 50100 0 01617    00652 ORA -0 50100 0 00330    00653 SLW +0 60200 0 00055
                 QLEN = GLOC. (AVQLEN )                                             087  LM00121
 00654 TSX +0 07400 4 00016    00655 TXH +3 00000 0 00040    00656 STO +0 60100 0 00033
                 FQLEN = (FQLEN / 1000.0) + 0.05                                    088  LM00122
 00657 CLA +0 50000 0 00033    00660 FDP +0 24100 0 00335    00661 XCA +0 13100 0 00000    00662 FAD +0 30000 0 00332
 00663 STO +0 60100 0 00033
                 FLOTBC. (QLEN)                                                     089  LM00123
 00664 TSX +0 07400 4 00030    00665 TXH +3 00000 0 00033
                 PRMESS. ($AVG. QUEUE LENGTH AT$, DATE, TIME,                       090  LM00124
                1     EQUAL, QLEN ... 2)                                            090  LM00125
 00666 TSX +0 07400 4 00023    00667 TXH +3 00000 0 00337    00670 TXH +3 00000 0 00372    00671 TXH +3 00000 0 00342
 00672 TXH +3 00000 0 00336    00673 TXH +3 00000 0 00055    00674 TXH +3 00000 0 00301    00675 TXH +3 00000 0 00056
 00676 TIX +2 00321 0 00033
                 OVRT = GLOC.(OVRTOT)                                               091  LM00129
 00677 TSX +0 07400 4 00016    00700 TXH +3 00000 0 00156    00701 STO +0 60100 0 00157
                 W'R OLDTOT-OVRT .NE. 0                                             092  LM00130
 00702 CLA +0 50000 0 00155    00703 SUB +0 40200 0 00157    00704 SUB +0 40200 0 00317    00705 TZE +0 10000 0 00722
                    PRMESS.($OVRTOT$,601360575757K,BZ57.(DERBC.(OVRT)))             093  LM00131
 00706 TSX +0 07400 4 00010    00707 TXH +3 00000 0 00157    00710 STO +0 60100 0 01617    00711 TSX +0 07400 4 00002
 00712 TXH +3 00000 0 01617    00713 STO +0 60100 0 01617    00714 TSX +0 07400 4 00023    00715 TXH +3 00000 0 00351
 00716 TXH +3 00000 0 00361    00717 TXH +3 00000 0 01617
                    OLDTOT = OVRT                                                   094  LM00132
 00720 CLA +0 50000 0 00157    00721 STO +0 60100 0 00155
                 E'L                                                                095  LM00133
                 PRMESS.($USERS=$,CONV.(GLOC.(NUSERS)),$,MAX=$,BZ57.(DERBC.         096  LM00141
                1 (GLOC.(MXUSRS))))                                                 096  LM00142
 00722 TSX +0 07400 4 00016    00723 TXH +3 00000 0 00151    00724 STO +0 60100 0 01617    00725 TSX +0 07400 4 00010
 00726 TXH +3 00000 0 01617    00727 STO +0 60100 0 01617    00730 TSX +0 07400 4 00002    00731 TXH +3 00000 0 01617
 00732 STO +0 60100 0 01617    00733 TSX +0 07400 4 00016    00734 TXH +3 00000 0 00154    00735 STO +0 60100 0 01620
 00736 TSX +0 07400 4 00026    00737 TXH +3 00000 0 01620    00740 STO +0 60100 0 01620    00741 TSX +0 07400 4 00023
 00742 TXH +3 00000 0 00373    00743 TXH +3 00000 0 01620    00744 TXH +3 00000 0 00374    00745 TXH +3 00000 0 01617
                 TEMP = GLOC.(TOTTIM)                                               097  LM00143
 00746 TSX +0 07400 4 00016    00747 TXH +3 00000 0 00307    00750 STO +0 60100 0 00300
                 D0 = TEMP - T0                                                     098  LM00144
 00751 CLA +0 50000 0 00300    00752 SUB +0 40200 0 00275    00753 ORA -0 50100 0 00340    00754 FAD +0 30000 0 00340
 00755 STO +0 60100 0 00046
                 T0 = TEMP                                                          099  LM00145
 00756 CLA +0 50000 0 00300    00757 STO +0 60100 0 00275
                 TEMP = GLOC.(BKGTIM)                                               100  LM00146
 00760 TSX +0 07400 4 00016    00761 TXH +3 00000 0 00041    00762 STO +0 60100 0 00300
                 D3 = TEMP - T3                                                     101  LM00147
 00763 CLA +0 50000 0 00300    00764 SUB +0 40200 0 00277    00765 ORA -0 50100 0 00340    00766 FAD +0 30000 0 00340
 00767 STO +0 60100 0 00054
                 D3 = 100.*D3/D0 + .05                                              102  LM00148
 00770 LDQ +0 56000 0 00333    00771 FMP +0 26000 0 00054    00772 FDP +0 24100 0 00046    00773 XCA +0 13100 0 00000
 00774 FAD +0 30000 0 00332    00775 STO +0 60100 0 00054
                 T3 = TEMP                                                          103  LM00149
 00776 CLA +0 50000 0 00300    00777 STO +0 60100 0 00277
                 TEMP = GLOC.(SWPTIM)                                               104  LM00150
 01000 TSX +0 07400 4 00016    01001 TXH +3 00000 0 00274    01002 STO +0 60100 0 00300
                 D2 = TEMP - T2                                                     105  LM00151
 01003 CLA +0 50000 0 00300    01004 SUB +0 40200 0 00276    01005 ORA -0 50100 0 00340    01006 FAD +0 30000 0 00340
 01007 STO +0 60100 0 00052
                 D2 = 100.*D2/D0 + .05                                              106  LM00152
 01010 LDQ +0 56000 0 00333    01011 FMP +0 26000 0 00052    01012 FDP +0 24100 0 00046    01013 XCA +0 13100 0 00000
 01014 FAD +0 30000 0 00332    01015 STO +0 60100 0 00052
                 T2 = TEMP                                                          107  LM00153
 01016 CLA +0 50000 0 00300    01017 STO +0 60100 0 00276
                 D1 = 100.15 - D2 - D3                                              108  LM00154
 01020 CLA +0 50000 0 00334    01021 FSB +0 30200 0 00052    01022 FSB +0 30200 0 00054    01023 STO +0 60100 0 00050
                 FLOTBC. (D1)                                                       109  LM00155
 01024 TSX +0 07400 4 00030    01025 TXH +3 00000 0 00050
                 FLOTBC. (D2)                                                       110  LM00156
 01026 TSX +0 07400 4 00030    01027 TXH +3 00000 0 00052
                 FLOTBC. (D3)                                                       111  LM00157
 01030 TSX +0 07400 4 00030    01031 TXH +3 00000 0 00054
                 WHENEVER FIRST .E. 0                                               112  LM00159
 01032 CLA +0 50000 0 00060    01033 SUB +0 40200 0 00317    01034 TNZ -0 10000 0 01046
                 PRMESS. ($GOOD =$, D1 ... 2, COMMA,                                113  LM00160
                2         $SWAP =$, D2 ... 2, COMMA,                                113  LM00161
                3         $OTHER=$, D3 ... 2)                                       113  LM00162
 01035 TSX +0 07400 4 00023    01036 TXH +3 00000 0 00343    01037 TIX +2 00321 0 00050    01040 TXH +3 00000 0 00043
 01041 TXH +3 00000 0 00370    01042 TIX +2 00321 0 00052    01043 TXH +3 00000 0 00043    01044 TXH +3 00000 0 00350
 01045 TIX +2 00321 0 00054
                 END OF CONDITIONAL                                                 114  LM00163
                 T'H LOOP, FOR I = 0, 1, I .G. N                                    115  LM00166
 01046 CLA +0 50000 0 00317    01047 STO +0 60100 0 00061    01050 TRA +0 02000 0 01054    01051 CLA +0 50000 0 00061
 01052 ADD +0 40000 0 00320    01053 STO +0 60100 0 00061    01054 CLA +0 50000 0 00061    01055 SUB +0 40200 0 00153
 01056 TZE +0 10000 0 01060    01057 TPL +0 12000 0 01204
                 PERCNT = GLOC. (PB + I)                                            116  LM00167
 01060 CLA +0 50000 0 00160    01061 ADD +0 40000 0 00061    01062 STO +0 60100 0 01620    01063 TSX +0 07400 4 00016
 01064 TXH +3 00000 0 01620    01065 STO +0 60100 0 00161
                 W'R PERCNT .E. 0, T'O LOOP                                         117  LM00168
 01066 CLA +0 50000 0 00161    01067 SUB +0 40200 0 00317    01070 TNZ -0 10000 0 01072    01071 TRA +0 02000 0 00035
                 W'R I .E. 0                                                        118  LM00170
 01072 CLA +0 50000 0 00061    01073 SUB +0 40200 0 00317    01074 TNZ -0 10000 0 01102
                      PROB = $ BACKG$                                               119  LM00171
 01075 CLA +0 50000 0 00362    01076 STO +0 60100 0 00250
                      PROG = $ROUND $                                               120  LM00172
 01077 CLA +0 50000 0 00352    01100 STO +0 60100 0 00252
                 O'E                                                                121  LM00173
 01101 TRA +0 02000 0 01116
                      PROB = GLOC. (PROBN + I)                                      122  LM00174
 01102 CLA +0 50000 0 00246    01103 ADD +0 40000 0 00061    01104 STO +0 60100 0 01620    01105 TSX +0 07400 4 00016
 01106 TXH +3 00000 0 01620    01107 STO +0 60100 0 00250
                      PROG = GLOC. (PROGN + I)                                      123  LM00175
 01110 CLA +0 50000 0 00251    01111 ADD +0 40000 0 00061    01112 STO +0 60100 0 01620    01113 TSX +0 07400 4 00016
 01114 TXH +3 00000 0 01620    01115 STO +0 60100 0 00252
                 E'L                                                                124  LM00176
                 STRT = GLOC. (STRTIM + I)                                          125  LM00178
 01116 CLA +0 50000 0 00272    01117 ADD +0 40000 0 00061    01120 STO +0 60100 0 01620    01121 TSX +0 07400 4 00016
 01122 TXH +3 00000 0 01620    01123 STO +0 60100 0 00273
                 WRK = GLOC. (WRKTIM + I)                                           126  LM00179
 01124 CLA +0 50000 0 00315    01125 ADD +0 40000 0 00061    01126 STO +0 60100 0 01620    01127 TSX +0 07400 4 00016
 01130 TXH +3 00000 0 01620    01131 STO +0 60100 0 00314
                 REALP = (100 * WRK) / (TIMNOW - STRT)                              127  LM00181
 01132 CLA +0 50000 0 00303    01133 SUB +0 40200 0 00273    01134 STO +0 60100 0 01620    01135 LDQ +0 56000 0 00325
 01136 MPY +0 20000 0 00314    01137 PXD -0 75400 0 00000    01140 LLS +0 76300 0 00000    01141 DVP +0 22100 0 01620
 01142 STQ -0 60000 0 00255
                 PRMESS.(PROB,PROG,BLANK,BZEL.(HRMIN.(STRT)),BZEL.(HRMIN.(WRK)      128  LM00183
                1 ), BZEL.(DERBC. (REALP)), BZEL.(DERBC. (PERCNT)))                 128  LM00184
 01143 TSX +0 07400 4 00010    01144 TXH +3 00000 0 00161    01145 STO +0 60100 0 01620    01146 TSX +0 07400 4 00003
 01147 TXH +3 00000 0 01620    01150 STO +0 60100 0 01620    01151 TSX +0 07400 4 00010    01152 TXH +3 00000 0 00255
 01153 STO +0 60100 0 01617    01154 TSX +0 07400 4 00003    01155 TXH +3 00000 0 01617    01156 STO +0 60100 0 01617
 01157 TSX +0 07400 4 00020    01160 TXH +3 00000 0 00314    01161 STO +0 60100 0 01621    01162 TSX +0 07400 4 00003
 01163 TXH +3 00000 0 01621    01164 STO +0 60100 0 01621    01165 TSX +0 07400 4 00020    01166 TXH +3 00000 0 00273
 01167 STO +0 60100 0 01622    01170 TSX +0 07400 4 00003    01171 TXH +3 00000 0 01622    01172 STO +0 60100 0 01622
 01173 TSX +0 07400 4 00023    01174 TXH +3 00000 0 00250    01175 TXH +3 00000 0 00252    01176 TXH +3 00000 0 00042
 01177 TXH +3 00000 0 01622    01200 TXH +3 00000 0 01621    01201 TXH +3 00000 0 01617    01202 TXH +3 00000 0 01620
      LOOP       C'E                                                                129  LM00186
 01203 TRA +0 02000 0 01051
                 W'R MDOT, T'O SNORE                                                130  LM00187
 01204 NZT -0 52000 0 00147    01205 TRA +0 02000 0 01207    01206 TRA +0 02000 0 00037
                 PRMESS.                                                            131  LM00188
 01207 TSX +0 07400 4 00023
                 PRMESS.                                                            132  LM00189
 01210 TSX +0 07400 4 00023
                 PRMESS. ( $     USER    COMMND WRKTIM TIMLEV UCLOCK U$,            133  LM00194
                1     $SWAP   1  2  3  4  5  6  7  8  9$ )                          133  LM00195
 01211 TSX +0 07400 4 00023    01212 TXH +3 00000 0 00366    01213 TXH +3 00000 0 00367    01214 TXH +3 00000 0 00363
 01215 TXH +3 00000 0 00341    01216 TXH +3 00000 0 00344    01217 TXH +3 00000 0 00346    01220 TXH +3 00000 0 00347
 01221 TXH +3 00000 0 00371    01222 TXH +3 00000 0 00354    01223 TXH +3 00000 0 00355    01224 TXH +3 00000 0 00356
 01225 TXH +3 00000 0 00357    01226 TXH +3 00000 0 00360
                 PRMESS.                                                            134  LM00196
 01227 TSX +0 07400 4 00023
                 T'H PRLOOP, FOR USR = 0, 1, USR .G. N                              135  LM00198
 01230 CLA +0 50000 0 00317    01231 STO +0 60100 0 00313    01232 TRA +0 02000 0 01236    01233 CLA +0 50000 0 00313
 01234 ADD +0 40000 0 00320    01235 STO +0 60100 0 00313    01236 CLA +0 50000 0 00313    01237 SUB +0 40200 0 00153
 01240 TZE +0 10000 0 01242    01241 TPL +0 12000 0 01443
                 W'R USR .E. 0                                                      136  LM00200
 01242 CLA +0 50000 0 00313    01243 SUB +0 40200 0 00317    01244 TNZ -0 10000 0 01252
                      PROB = $ BACKG$                                               137  LM00201
 01245 CLA +0 50000 0 00362    01246 STO +0 60100 0 00250
                      PROG = $ROUND $                                               138  LM00202
 01247 CLA +0 50000 0 00352    01250 STO +0 60100 0 00252
                 O'E                                                                139  LM00203
 01251 TRA +0 02000 0 01266
                      PROB = GLOC. (PROBN+USR)                                      140  LM00204
 01252 CLA +0 50000 0 00246    01253 ADD +0 40000 0 00313    01254 STO +0 60100 0 01622    01255 TSX +0 07400 4 00016
 01256 TXH +3 00000 0 01622    01257 STO +0 60100 0 00250
                      PROG = GLOC. (PROGN+USR)                                      141  LM00205
 01260 CLA +0 50000 0 00251    01261 ADD +0 40000 0 00313    01262 STO +0 60100 0 01622    01263 TSX +0 07400 4 00016
 01264 TXH +3 00000 0 01622    01265 STO +0 60100 0 00252
                 E'L                                                                142  LM00206
                 COM = GLOC. (COMMND+USR)                                           143  LM00207
 01266 CLA +0 50000 0 00044    01267 ADD +0 40000 0 00313    01270 STO +0 60100 0 01622    01271 TSX +0 07400 4 00016
 01272 TXH +3 00000 0 01622    01273 STO +0 60100 0 00045
                 W'R COM .E. 0, COM = $ $                                           144  LM00208
 01274 CLA +0 50000 0 00045    01275 SUB +0 40200 0 00317    01276 TNZ -0 10000 0 01301    01277 CLA +0 50000 0 00365
 01300 STO +0 60100 0 00045
                 LEVOK = LEVEL (USR) .NE. MINUS1                                    145  LM00209
 01301 LXA +0 53400 1 00313    01302 CLA +0 50000 1 00144    01303 SUB +0 40200 0 00150    01304 TNZ -0 10000 0 01307
 01305 PXD -0 75400 0 00000    01306 TRA +0 02000 0 01310    01307 CLA +0 50000 0 00320    01310 STO +0 60100 0 00145
                 PROBOK = PROB .NE. 0                                               146  LM00210
 01311 CLA +0 50000 0 00250    01312 SUB +0 40200 0 00317    01313 TNZ -0 10000 0 01316    01314 PXD -0 75400 0 00000
 01315 TRA +0 02000 0 01317    01316 CLA +0 50000 0 00320    01317 STO +0 60100 0 00247
                 W'R LEVOK                                                          147  LM00212
 01320 NZT -0 52000 0 00145    01321 TRA +0 02000 0 01442
                      W'R .NOT. PROBOK                                              148  LM00213
 01322 ZET +0 52000 0 00247    01323 TRA +0 02000 0 01330
                           PROB = $ $                                               149  LM00214
 01324 CLA +0 50000 0 00365    01325 STO +0 60100 0 00250
                           PROG = $ $                                               150  LM00215
 01326 CLA +0 50000 0 00365    01327 STO +0 60100 0 00252
                      E'L                                                           151  LM00216
                      WT = GLOC. (WRKTIM+USR) * 60                                  152  LM00217
 01330 CLA +0 50000 0 00315    01331 ADD +0 40000 0 00313    01332 STO +0 60100 0 01622    01333 TSX +0 07400 4 00016
 01334 TXH +3 00000 0 01622    01335 XCA +0 13100 0 00000    01336 MPY +0 20000 0 00324    01337 STQ -0 60000 0 00316
                      TL = GLOC. (TIMLEV+USR) * 60                                  153  LM00218
 01340 CLA +0 50000 0 00302    01341 ADD +0 40000 0 00313    01342 STO +0 60100 0 01622    01343 TSX +0 07400 4 00016
 01344 TXH +3 00000 0 01622    01345 XCA +0 13100 0 00000    01346 MPY +0 20000 0 00324    01347 STQ -0 60000 0 00304
                      TM = GLOC. (UCLOCK+USR) * 60                                  154  LM00219
 01350 CLA +0 50000 0 00311    01351 ADD +0 40000 0 00313    01352 STO +0 60100 0 01622    01353 TSX +0 07400 4 00016
 01354 TXH +3 00000 0 01622    01355 XCA +0 13100 0 00000    01356 MPY +0 20000 0 00324    01357 STQ -0 60000 0 00305
                      TN = TM - GLOC. (UCHARG+USR) * 60                             155  LM00220
 01360 CLA +0 50000 0 00310    01361 ADD +0 40000 0 00313    01362 STO +0 60100 0 01622    01363 TSX +0 07400 4 00016
 01364 TXH +3 00000 0 01622    01365 XCA +0 13100 0 00000    01366 MPY +0 20000 0 00324    01367 XCA +0 13100 0 00000
 01370 CHS +0 76000 0 00002    01371 ADD +0 40000 0 00305    01372 STO +0 60100 0 00306
                      PRMESS. (PROB, PROG, BLANK, COM, BLANK,                       156  LM00221
                1          CTIME. (WT), BLANK, CTIME. (TL), BLANK,                  156  LM00222
                2                  CTIME. (TM), BLANK, CTIME. (TN),                 156  LM00223
                3          SPACE ... LEVEL (USR), CONV. (POS (USR) ) )              156  LM00224
 01373 CLA +0 50000 0 00313    01374 SUB +0 40200 0 01375    01375 TXH +3 00000 0 00245    01376 STA +0 62100 0 01400
 01377 TSX +0 07400 4 00026    01400 TXH +3 00000 0 00000    01401 STO +0 60100 0 01622    01402 CLA +0 50000 0 00313
 01403 SUB +0 40200 0 01404    01404 TXH +3 00000 0 00144    01405 ALS +0 76700 0 00022    01406 STD +0 62200 0 01440
 01407 TSX +0 07400 4 00027    01410 TXH +3 00000 0 00306    01411 STO +0 60100 0 01621    01412 TSX +0 07400 4 00027
 01413 TXH +3 00000 0 00305    01414 STO +0 60100 0 01620    01415 TSX +0 07400 4 00027    01416 TXH +3 00000 0 00304
 01417 STO +0 60100 0 01617    01420 TSX +0 07400 4 00027    01421 TXH +3 00000 0 00316    01422 STO +0 60100 0 01623
 01423 TSX +0 07400 4 00023    01424 TXH +3 00000 0 00250    01425 TXH +3 00000 0 00252    01426 TXH +3 00000 0 00042
 01427 TXH +3 00000 0 00045    01430 TXH +3 00000 0 00042    01431 TXH +3 00000 0 01623    01432 TXH +3 00000 0 00042
 01433 TXH +3 00000 0 01617    01434 TXH +3 00000 0 00042    01435 TXH +3 00000 0 01620    01436 TXH +3 00000 0 00042
 01437 TXH +3 00000 0 01621    01440 TIX +2 00000 0 00271    01441 TXH +3 00000 0 01622
                 E'L                                                                157  LM00225
      PRLOOP     C'E                                                                158  LM00227
 01442 TRA +0 02000 0 01233
                 PRMESS.                                                            159  LM00232
 01443 TSX +0 07400 4 00023
      SNORE      PRMESS.                                                            160  LM00233
 01444 TSX +0 07400 4 00023
                 W'R SLTIM .NE. 0                                                   161  LM00234
 01445 CLA +0 50000 0 00256    01446 SUB +0 40200 0 00317    01447 TZE +0 10000 0 01454
                      SNOOZE.(SLTIM,0)                                              162  LM00235
 01450 TSX +0 07400 4 00024    01451 TXH +3 00000 0 00256    01452 TXH +3 00000 0 00317
                 O'E                                                                163  LM00236
 01453 TRA +0 02000 0 01456
                      CHNCOM. (1)                                                   164  LM00237
 01454 TSX +0 07400 4 00004    01455 TXH +3 00000 0 00320
                 E'L                                                                165  LM00238
                 PRMESS.                                                            166  LM00239
 01456 TSX +0 07400 4 00023
                           FIRST = 0                                                167  LM00240
 01457 CLA +0 50000 0 00317    01460 STO +0 60100 0 00060
                 T'O BEGIN                                                          168  LM00241
 01461 TRA +0 02000 0 00034
                 INTERNAL FUNCTION (NUM)                                            169  LM00247
 01462 TRA +0 02000 0 01516
                 E'O CONV.                                                          170  LM00248
 01463 TRA +0 02000 0 01466    00026 TTR +0 02100 0 01464    01464 SXA +0 63400 2 01503    01465 TSX +0 07400 2 01503
                 F'N (BZEL. (DEFBC. (NUM) ) .A. 777777K) .V. 575757K6               171  LM00249
 01466 TSX +0 07400 4 00007    01467 TXH +3 00000 0 00024    01470 STO +0 60100 0 01515    01471 TSX +0 07400 4 00003
 01472 TXH +3 00000 0 01515    01473 STO +0 60100 0 01515    01474 CAL -0 50000 0 01515    01475 ANA -0 32000 0 00327
 01476 ORA -0 50100 0 00353    01477 SLW +0 60200 0 01515    01500 CLA +0 50000 0 01515    01501 TRA +0 02000 0 01511
                 E'N                                                                172  LM00250
 01502 TSX +0 07400 4 00011    01503 TXH +3 00000 0 00000    01504 SXD -0 63400 1 01503    01505 SXA +0 63400 4 01511
 01506 CLA +0 50000 4 00001    01507 STO +0 60100 0 01467    01510 TRA +0 02000 2 00001    01511 AXT +0 77400 4 00000
 01512 LXA +0 53400 2 01503    01513 LXD -0 53400 1 01503    01514 TRA +0 02000 4 00001
                 INTERNAL FUNCTION (NUM)                                            173  LM00255
 01516 TRA +0 02000 0 01544
                 E'O CTIME.                                                         174  LM00256
 01517 TRA +0 02000 0 01522    00027 TTR +0 02100 0 01520    01520 SXA +0 63400 2 01531    01521 TSX +0 07400 2 01531
                 F'N BZEL. (MINS. (NUM) )                                           175  LM00257
 01522 TSX +0 07400 4 00022    01523 TXH +3 00000 0 00024    01524 STO +0 60100 0 01543    01525 TSX +0 07400 4 00003
 01526 TXH +3 00000 0 01543    01527 TRA +0 02000 0 01537
                 E'N                                                                176  LM00258
 01530 TSX +0 07400 4 00011    01531 TXH +3 00000 0 00000    01532 SXD -0 63400 1 01531    01533 SXA +0 63400 4 01537
 01534 CLA +0 50000 4 00001    01535 STO +0 60100 0 01523    01536 TRA +0 02000 2 00001    01537 AXT +0 77400 4 00000
 01540 LXA +0 53400 2 01531    01541 LXD -0 53400 1 01531    01542 TRA +0 02000 4 00001
                 INTERNAL FUNCTION (NUM)                                            177  LM00263
 01544 TRA +0 02000 0 01616
                 E'O FLOTBC.                                                        178  LM00264
 01545 TRA +0 02000 0 01550    00030 TTR +0 02100 0 01546    01546 SXA +0 63400 2 01574    01547 TSX +0 07400 2 01574
                 FIX. (NUM, NUM, NUM (1))                                           179  LM00265
 01550 TSX +0 07400 4 00012    01551 TXH +3 00000 0 00024    01552 TXH +3 00000 0 00024    01553 TXH +3 00000 0 00023
                 NUM = CONV. (NUM)                                                  180  LM00266
 01554 TSX +0 07400 4 00026    01555 TXH +3 00000 0 00024    01556 STO +0 60100 0 00024
                 NUM (1) = (FRACBC.(NUM(1)).RS.6) .A. 77K8 .V. 330057575757K        181  LM00267
 01557 TSX +0 07400 4 00013    01560 TXH +3 00000 0 00023    01561 STO +0 60100 0 01615    01562 CAL -0 50000 0 00322
 01563 STA +0 62100 0 01565    01564 CAL -0 50000 0 01615    01565 LGR -0 76500 0 00000    01566 ANA -0 32000 0 00331
 01567 ORA -0 50100 0 00345    01570 SLW +0 60200 0 00023
                 FUNCTION RETURN                                                    182  LM00268
 01571 TRA +0 02000 0 01611
                 END OF FUNCTION                                                    183  LM00269
 01572 TSX +0 07400 4 00011    01573 PZE +0 00000 0 00001    01574 TXH +3 00000 0 00000    01575 SXD -0 63400 1 01574
 01576 SXA +0 63400 4 01611    01577 CLA +0 50000 4 00001    01600 STO +0 60100 0 01551    01601 STO +0 60100 0 01552
 01602 STO +0 60100 0 01555    01603 STA +0 62100 0 01556    01604 SUB +0 40200 0 01573    01605 STO +0 60100 0 01553
 01606 STO +0 60100 0 01560    01607 STA +0 62100 0 01570    01610 TRA +0 02000 2 00001    01611 AXT +0 77400 4 00000
 01612 LXA +0 53400 2 01574    01613 LXD -0 53400 1 01574    01614 TRA +0 02000 4 00001
                 E'M                                                                184  LM00272
 01616 TSX +0 07400 4 00011


 ORDER   BCD 09/20/68 0220.3   11504         00000


ORDER1   BCD 09/18/68 1112.3    9080         00000
1     MAD PROGRAM LISTING ... ... ...                 FILE  ORDER1   MAD            08/28/68    0853.5
-
                  NORMAL MODE IS INTEGER                                                          *001 LM00001
                  BOOLEAN ORDSW                                                                   *002 LM00002
                  DIMENSION NAMES(4),B1(0),B2(0),B3(0),B4(0),B5(0),LINE(0)                        *003 LM00003
                  EQUIVALENCE (NAMES,NAME),(NAMES(1),N1),(NAMES(2),N2),(NAMES(3),N3),             *004 LM00004
                1    (NAMES(4),N4)                                                                *004 LM00005
                  VECTOR VALUES TYPSW=0B                                                          *005 LM00006
                  VECTOR VALUES FENCE=777777777777K                                               *006 LM00007
                  VECTOR VALUES CHRSIZ=6                                                          *007 LM00008
                  VECTOR VALUES M=0                                                               *008 LM00009
                  VECTOR VALUES BLKSIZ=0                                                          *009 LM00010
                  VECTOR VALUES LNMSK=777777K6                                                    *010 LM00011
                  VECTOR VALUES MAXLEN=0                                                          *011 LM00012
                  VECTOR VALUES FIRST=1B                                                          *012 LM00013
                  VECTOR VALUES SKIPFL=0B                                                         *013 LM00014
                  VECTOR VALUES BL=605757575757K                                                  *014 LM00015
                                                                                                       LM00016
                  THROUGH ARGS, FOR N=1,1,COMARG.(N,TEMP).E.FENCE.OR.N.G.19                       *015 LM00017
                  WHENEVER TEMP.E.$(SORT)$                                                        *016 LM00018
                     TYPSW=1B                                                                     *017 LM00019
                     ORDSW=0B                                                                     *018 LM00020
                  OR WHENEVER TEMP.E.$(NSRT)$                                                     *019 LM00021
                     TYPSW=1B                                                                     *020 LM00022
                     ORDSW=1B                                                                     *021 LM00023
                  OR WHENEVER TEMP.E.$(BLKS)$                                                     *022 LM00024
                     N=N+1                                                                        *023 LM00025
                     WHENEVER COMARG.(N,TEMP).E.FENCE                                             *024 LM00026
                        PR.($(BLKS) NOT RECOGNIZED.$)                                             *025 LM00027
                        CHNCOM.(0)                                                                *026 LM00028
                     END OF CONDITIONAL                                                           *027 LM00029
                     WHENEVER ZEL.(TEMP).A.$$.NE.0, TRANSFER TO BADCAL                            *028 LM00030
                     BLKSIZ=BCDEC.(TEMP)                                                          *029 LM00031
                  OR WHENEVER TEMP.E.$(ASCI)$                                                     *030 LM00032
                     CHRSIZ=9                                                                     *031 LM00033
                  OR WHENEVER TEMP.E.$(CTSS)$                                                     *032 LM00034
                     CHRSIZ=12                                                                    *033 LM00035
                  OR WHENEVER TEMP.E.$ (BCD)$                                                     *034 LM00036
                     CHRSIZ=6                                                                     *035 LM00037
                  OTHERWISE                                                                       *036 LM00038
                     WHENEVER M.G.4                                                               *037 LM00039
      BADCAL            PR.(TEMP,$ NOT RECOGNIZED.$)                                              *038 LM00040
                        CHNCOM.(0)                                                                *039 LM00041
                     END OF CONDITIONAL                                                           *040 LM00042
                     NAMES(M)=TEMP                                                                *041 LM00043
                     M=M+1                                                                        *042 LM00044
      ARGS        END OF CONDITIONAL                                                              *043 LM00045
                  WHENEVER M.L.4                                                                  *044 LM00046
                     PR.($NOT ENOUGH NAMES.$)                                                     *045 LM00047
                     CHNCOM.(0)                                                                   *046 LM00048
                  OR WHENEVER M.E.4                                                               *047 LM00049
                     NAMES(4)=NAMES(2)                                                            *048 LM00050
                  END OF CONDITIONAL                                                              *049 LM00051
                  WHENEVER .NOT.TYPSW                                                             *050 LM00052
                     PR.($MODE NOT SPECIFIED.$)                                                   *051 LM00053
                     CHNCOM.(0)                                                                   *052 LM00054
                  END OF CONDITIONAL                                                              *053 LM00055
                                                                                                       LM00056
                  SETBRK.(INT)                                                                    *054 LM00057
                  DELETE.(N3,N4,0,EGRETS)                                                         *055 LM00058
                  SETORD.(NAME,ORDSW,CHRSIZ,EGRETS)                                               *056 LM00059
                  GETBUF.(B1,431)                                                                 *057 LM00060
                  GETBUF.(B2,431)                                                                 *058 LM00061
                  GETBUF.(B3,431)                                                                 *059 LM00062
                  GETBUF.(B4,431)                                                                 *060 LM00063
                  GETBUF.(B5,431)                                                                 *061 LM00064
                  BFOPEN.($R$,N1,N2,B1(B1+431),B2(B2+431),-0,BFERR)                               *062 LM00065
                  BFOPEN.($W$,N3,N4,B3(B3+431),B4(B4+431),B5(B5+431),BFERR)                       *063 LM00066
                  WHENEVER BLKSIZ.NE.0, TRANSFER TO FIXED                                         *064 LM00067
                  BFREAD.(N1,N2,LNMRK...1,NOFILE,TEMP,BFERR)                                      *065 LM00068
                  FIRST=0B                                                                        *066 LM00069
                  WHENEVER LNMRK.A.LNMSK.NE.LNMSK                                                 *067 LM00070
                     BLKSIZ=14                                                                    *068 LM00071
                     GETBUF.(LINE,13)                                                             *069 LM00072
                     LINE(LINE+13)=LNMRK                                                          *070 LM00073
                     BFREAD.(N1,N2,LINE(LINE+12)...13,EOFX,TEMP,BFERR)                            *071 LM00074
                     TRANSFER TO FLOOP1                                                           *072 LM00075
                  END OF CONDITIONAL                                                              *073 LM00076
                  TRANSFER TO LNMRKD                                                              *074 LM00077
                                                                                                       LM00078
      FIXED       GETBUF.(LINE,BLKSIZ-1)                                                          *075 LM00079
                                                                                                       LM00080
      FLOOP       BFREAD.(N1,N2,LINE(LINE+BLKSIZ-1)...BLKSIZ,EOFZ,TEMP,BFERR)                     *076 LM00081
                  FIRST=0B                                                                        *077 LM00082
      FLOOP1      TEMP=ORDLIN.(LINE(LINE+BLKSIZ-1)...BLKSIZ)                                      *078 LM00083
                  THROUGH FILL, FOR TEMP=BLKSIZ-TEMP-1,-1,TEMP.L.0                                *079 LM00084
      FILL        LINE(LINE+TEMP)=FILCHR.(0)                                                      *080 LM00085
                  BFWRIT.(N3,N4,LINE(LINE+BLKSIZ-1)...BLKSIZ,BFERR)                               *081 LM00086
                  TRANSFER TO FLOOP                                                               *082 LM00087
                                                                                                       LM00088
      LLOOP       BFREAD.(N1,N2,LNMRK...1,INT,TEMP,BFERR)                                         *083 LM00089
                  WHENEVER LNMRK.A.LNMSK.NE.LNMSK                                                 *084 LM00090
                     WHENEVER .NOT.SKIPFL                                                         *085 LM00091
      LNMRKR            PR.($LINEMARK ERROR.$)                                                    *086 LM00092
                        SKIPFL=1B                                                                 *087 LM00093
                     END OF CONDITIONAL                                                           *088 LM00094
                     TRANSFER TO LLOOP                                                            *089 LM00095
                  END OF CONDITIONAL                                                              *090 LM00096
                  SKIPFL=0B                                                                       *091 LM00097
      LNMRKD      TEMP=LNMRK.A.777777K                                                            *092 LM00098
                  WHENEVER TEMP.G.1000, TRANSFER TO LNMRKR                                        *093 LM00099
                  WHENEVER TEMP.G.MAXLEN                                                          *094 LM00100
                     GETBUF.(LINE,TEMP-MAXLEN-1)                                                  *095 LM00101
                     MAXLEN=TEMP                                                                  *096 LM00102
                  END OF CONDITIONAL                                                              *097 LM00103
                  BFREAD.(N1,N2,LINE(LINE+MAXLEN-1)...TEMP,EOFY,TEMP,BFERR)                       *098 LM00104
                  TEMP=ORDLIN.(LINE(LINE+MAXLEN-1)...TEMP)                                        *099 LM00105
                  LNMRK=TEMP.V.LNMSK                                                              *100 LM00106
                  BFWRIT.(N3,N4,LNMRK...1,BFERR)                                                  *101 LM00107
                  BFWRIT.(N3,N4,LINE(LINE+MAXLEN-1)...TEMP,BFERR)                                 *102 LM00108
                  TRANSFER TO LLOOP                                                               *103 LM00109
                                                                                                       LM00110
      NOFILE      PR.(N1,BL,N2,$ IS EMPTY.$)                                                      *104 LM00111
      INT         BFCLOS.($ALL$,-0,BFERR)                                                         *105 LM00112
      EGRETS      PR.($*$)                                                                        *106 LM00113
                  CHNCOM.(0)                                                                      *107 LM00114
                                                                                                       LM00115
      BFERR       PRNTER.                                                                         *108 LM00116
                  BFCLOS.($ALL$,-0,EGRETS)                                                        *109 LM00117
                  TRANSFER TO EGRETS                                                              *110 LM00118
                                                                                                       LM00119
      EOFX        TEMP=TEMP+1                                                                     *111 LM00120
      EOFZ        WHENEVER TEMP.E.0                                                               *112 LM00121
                     WHENEVER FIRST, TRANSFER TO NOFILE                                           *113 LM00122
                     TRANSFER TO INT                                                              *114 LM00123
                  END OF CONDITIONAL                                                              *115 LM00124
                  PR.($FINAL BLOCK$,BZ57.(DEFBC.(TEMP)),$ WORDS LONG.$)                           *116 LM00125
                  TEMP=ORDLIN.(LINE(LINE+BLKSIZ-1)...TEMP)                                        *117 LM00126
                  THROUGH FILL1, FOR TEMP=BLKSIZ-TEMP-1,-1,TEMP.L.0                               *118 LM00127
      FILL1       LINE(LINE+TEMP)=FILCHR.(0)                                                      *119 LM00128
                  BFWRIT.(N3,N4,LINE(LINE+BLKSIZ-1)...BLKSIZ,BFERR)                               *120 LM00129
                  TRANSFER TO INT                                                                 *121 LM00130
                                                                                                       LM00131
      EOFY        PR.($LINEMARK ERROR.$)                                                          *122 LM00132
                  TRANSFER TO INT                                                                 *123 LM00133
                                                                                                       LM00134
                  END OF PROGRAM                                                                  *124 LM00135
1MAD PROGRAM,TYPE NOV 1963      (ALL NUMBERS ARE OCTAL)
0TOTAL LOCATIONS   01114 TRANSFER VECTOR LENGTH  00024 PROGRAM BEGINS    00147
0VARIABLE STORAGE (A=ARRAY,C=COMMON,E=ERASABLE,DIGIT=MODE)
      ARGS   00024   4        BL     00056 A 1        FIRST  00061 A 2        LNMRK  00063   1        NAME   00031   1
      B1     00050 A 1        CHRSIZ 00057 A 1        FIXED  00040   4        LNMSK  00064 A 1        NAMES  00031 A 1
      B2     00051 A 1        EGRETS 00034   4        FLOOP1 00041   4        MAXLEN 00065 A 1        NOFILE 00047   4
      B3     00052 A 1        EOFX   00035   4        FLOOP  00042   4        M      00066 A 1        N      00067   1
      B4     00053 A 1        EOFY   00036   4        INT    00043   4        N1     00030   1        ORDSW  00070   2
      B5     00054 A 1        EOFZ   00037   4        LINE   00062 A 1        N2     00027   1        SKIPFL 00071 A 2
      BADCAL 00032   4        FENCE  00060 A 1        LLOOP  00044   4        N3     00026   1        TEMP   00072   1
      BFERR  00033   4        FILL1  00024   4        LNMRKD 00045   4        N4     00025   1        TYPSW  00073 A 2
      BLKSIZ 00055 A 1        FILL   00024   4        LNMRKR 00046   4
0FUNCTION DICTIONARY
      BCDEC  00000   1        BFCLOS 00001   1        BFOPEN 00002   1        BFREAD 00003   1        BFWRIT 00004   1
      BZ57   00005   1        CHNCOM 00006   1        COMARG 00007   1        DEFBC  00010   1        DELETE 00011   1
      EXIT   00012   1        FILCHR 00013   1        GETBUF 00014   1        .SETUP 00015   1        ORDLIN 00016   1
      PRNTER 00017   1        PR     00020   1        SETBRK 00021   1        SETORD 00022   1        ZEL    00023   1
0ABSOLUTE CONSTANTS
 00133 -204346452733     00136 -206646512462     00112 +224346234260     00116 +263145214360     00131 -146060606060
 00110 +214343606060     00126 -076370336060     00132 -203162602544     00106 +000000001750     00107 +000000777777
 00123 -065133606060     00127 -114260255151     00120 -033145254421     00102 +000000000015     00103 +000000000016
 00140 -266060606060     00130 -116060606060     00105 +000000000657     00117 +336060606060     00114 +233126312524
 00124 -066360624725     00121 -044624256045     00111 +214425623360     00125 -066427306045     00122 -054663602545
 00076 +000000000004     00077 +000000000006     00137 -207422232434     00101 +000000000014     00144 -342363626234
 00100 +000000000011     00142 -342162233134     00135 -206060606060     00141 -312524336060     00115 +252346274531
 00134 -204546636051     00143 -342243426234     00145 -344562516334     00074 +000000000000     00146 -346246516334
 00104 +000000000023     00075 +000000000001     00113 +233000000000
0STATEMENT DICTIONARY
 00032 TXL -300302000275       00033 TXL -300774000773       00034 TXL -300771000767       00035 TXL -301006001003
 00036 TXL -301107001103       00037 TXL -301011001006       00040 TXL -300533000525       00041 TXL -300563000552
 00042 TXL -300550000533       00043 TXL -300767000761       00044 TXL -300633000624       00045 TXL -300657000654
 00046 TXL -300647000643       00047 TXL -300761000753
0PROGRAM
                 N'R                                                                001  LM00001
                 BOOLEAN ORDSW                                                      002  LM00002
                 D'N NAMES(4),B1(0),B2(0),B3(0),B4(0),B5(0),LINE(0)                 003  LM00003
                 E'E (NAMES,NAME),(NAMES(1),N1),(NAMES(2),N2),(NAMES(3),N3),        004  LM00004
                1   (NAMES(4),N4)                                                   004  LM00005
                 V'S TYPSW=0B                                                       005  LM00006
 00147 TSX +0 07400 4 00015    00073     +0 00000 0 00000
                 V'S FENCE=777777777777K                                            006  LM00007
 00060     -3 77777 7 77777
                 V'S CHRSIZ=6                                                       007  LM00008
 00057     +0 00000 0 00006
                 V'S M=0                                                            008  LM00009
 00066     +0 00000 0 00000
                 V'S BLKSIZ=0                                                       009  LM00010
 00055     +0 00000 0 00000
                 V'S LNMSK=777777K6                                                 010  LM00011
 00064     -3 77777 0 00000
                 V'S MAXLEN=0                                                       011  LM00012
 00065     +0 00000 0 00000
                 V'S FIRST=1B                                                       012  LM00013
 00061     +0 00000 0 00001
                 V'S SKIPFL=0B                                                      013  LM00014
 00071     +0 00000 0 00000
                 V'S BL=605757575757K                                               014  LM00015
 00056     -2 05757 5 75757
                 T'H ARGS, FOR N=1,1,COMARG.(N,TEMP).E.FENCE.OR.N.G.19              015  LM00017
 00150 CLA +0 50000 0 00075    00151 STO +0 60100 0 00067    00152 TRA +0 02000 0 00156    00153 CLA +0 50000 0 00067
 00154 ADD +0 40000 0 00075    00155 STO +0 60100 0 00067    00156 CLA +0 50000 0 00067    00157 SUB +0 40200 0 00104
 00160 TZE +0 10000 0 00162    00161 TPL +0 12000 0 00313    00162 TSX +0 07400 4 00007    00163 TXH +3 00000 0 00067
 00164 TXH +3 00000 0 00072    00165 SUB +0 40200 0 00060    00166 TZE +0 10000 0 00313
                 W'R TEMP.E.$(SORT)$                                                016  LM00018
 00167 CLA +0 50000 0 00072    00170 SUB +0 40200 0 00146    00171 TNZ -0 10000 0 00177
                    TYPSW=1B                                                        017  LM00019
 00172 CLA +0 50000 0 00075    00173 STO +0 60100 0 00073
                    ORDSW=0B                                                        018  LM00020
 00174 CLA +0 50000 0 00074    00175 STO +0 60100 0 00070
                 O'R TEMP.E.$(NSRT)$                                                019  LM00021
 00176 TRA +0 02000 0 00312    00177 CLA +0 50000 0 00072    00200 SUB +0 40200 0 00145    00201 TNZ -0 10000 0 00207
                    TYPSW=1B                                                        020  LM00022
 00202 CLA +0 50000 0 00075    00203 STO +0 60100 0 00073
                    ORDSW=1B                                                        021  LM00023
 00204 CLA +0 50000 0 00075    00205 STO +0 60100 0 00070
                 O'R TEMP.E.$(BLKS)$                                                022  LM00024
 00206 TRA +0 02000 0 00312    00207 CLA +0 50000 0 00072    00210 SUB +0 40200 0 00143    00211 TNZ -0 10000 0 00247
                    N=N+1                                                           023  LM00025
 00212 CLA +0 50000 0 00067    00213 ADD +0 40000 0 00075    00214 STO +0 60100 0 00067
                    W'R COMARG.(N,TEMP).E.FENCE                                     024  LM00026
 00215 TSX +0 07400 4 00007    00216 TXH +3 00000 0 00067    00217 TXH +3 00000 0 00072    00220 SUB +0 40200 0 00060
 00221 TNZ -0 10000 0 00231
                       PR.($(BLKS) NOT RECOGNIZED.$)                                025  LM00027
 00222 TSX +0 07400 4 00020    00223 TXH +3 00000 0 00143    00224 TXH +3 00000 0 00134    00225 TXH +3 00000 0 00115
 00226 TXH +3 00000 0 00141
                       CHNCOM.(0)                                                   026  LM00028
 00227 TSX +0 07400 4 00006    00230 TXH +3 00000 0 00074
                    E'L                                                             027  LM00029
                    W'R ZEL.(TEMP).A.$$.NE.0, T'O BADCAL                            028  LM00030
 00231 TSX +0 07400 4 00023    00232 TXH +3 00000 0 00072    00233 STO +0 60100 0 01111    00234 CAL -0 50000 0 01111
 00235 ANA -0 32000 0 00135    00236 SLW +0 60200 0 01111    00237 CLA +0 50000 0 01111    00240 SUB +0 40200 0 00074
 00241 TZE +0 10000 0 00243    00242 TRA +0 02000 0 00032
                    BLKSIZ=BCDEC.(TEMP)                                             029  LM00031
 00243 TSX +0 07400 4 00000    00244 TXH +3 00000 0 00072    00245 STO +0 60100 0 00055
                 O'R TEMP.E.$(ASCI)$                                                030  LM00032
 00246 TRA +0 02000 0 00312    00247 CLA +0 50000 0 00072    00250 SUB +0 40200 0 00142    00251 TNZ -0 10000 0 00255
                    CHRSIZ=9                                                        031  LM00033
 00252 CLA +0 50000 0 00100    00253 STO +0 60100 0 00057
                 O'R TEMP.E.$(CTSS)$                                                032  LM00034
 00254 TRA +0 02000 0 00312    00255 CLA +0 50000 0 00072    00256 SUB +0 40200 0 00144    00257 TNZ -0 10000 0 00263
                    CHRSIZ=12                                                       033  LM00035
 00260 CLA +0 50000 0 00101    00261 STO +0 60100 0 00057
                 O'R TEMP.E.$ (BCD)$                                                034  LM00036
 00262 TRA +0 02000 0 00312    00263 CLA +0 50000 0 00072    00264 SUB +0 40200 0 00137    00265 TNZ -0 10000 0 00271
                    CHRSIZ=6                                                        035  LM00037
 00266 CLA +0 50000 0 00077    00267 STO +0 60100 0 00057
                 O'E                                                                036  LM00038
 00270 TRA +0 02000 0 00312
                    W'R M.G.4                                                       037  LM00039
 00271 CLA +0 50000 0 00066    00272 SUB +0 40200 0 00076    00273 TZE +0 10000 0 00304    00274 TMI -0 12000 0 00304
      BADCAL           PR.(TEMP,$ NOT RECOGNIZED.$)                                 038  LM00040
 00275 TSX +0 07400 4 00020    00276 TXH +3 00000 0 00072    00277 TXH +3 00000 0 00134    00300 TXH +3 00000 0 00115
 00301 TXH +3 00000 0 00141
                       CHNCOM.(0)                                                   039  LM00041
 00302 TSX +0 07400 4 00006    00303 TXH +3 00000 0 00074
                    E'L                                                             040  LM00042
                    NAMES(M)=TEMP                                                   041  LM00043
 00304 LXA +0 53400 1 00066    00305 CLA +0 50000 0 00072    00306 STO +0 60100 1 00031
                    M=M+1                                                           042  LM00044
 00307 CLA +0 50000 0 00066    00310 ADD +0 40000 0 00075    00311 STO +0 60100 0 00066
      ARGS       E'L                                                                043  LM00045
 00312 TRA +0 02000 0 00153
                 W'R M.L.4                                                          044  LM00046
 00313 CLA +0 50000 0 00066    00314 SUB +0 40200 0 00076    00315 TZE +0 10000 0 00326    00316 TPL +0 12000 0 00326
                    PR.($NOT ENOUGH NAMES.$)                                        045  LM00047
 00317 TSX +0 07400 4 00020    00320 TXH +3 00000 0 00122    00321 TXH +3 00000 0 00125    00322 TXH +3 00000 0 00111
                    CHNCOM.(0)                                                      046  LM00048
 00323 TSX +0 07400 4 00006    00324 TXH +3 00000 0 00074
                 O'R M.E.4                                                          047  LM00049
 00325 TRA +0 02000 0 00333    00326 CLA +0 50000 0 00066    00327 SUB +0 40200 0 00076    00330 TNZ -0 10000 0 00333
                    NAMES(4)=NAMES(2)                                               048  LM00050
 00331 CLA +0 50000 0 00027    00332 STO +0 60100 0 00025
                 E'L                                                                049  LM00051
                 W'R .NOT.TYPSW                                                     050  LM00052
 00333 ZET +0 52000 0 00073    00334 TRA +0 02000 0 00344
                    PR.($MODE NOT SPECIFIED.$)                                      051  LM00053
 00335 TSX +0 07400 4 00020    00336 TXH +3 00000 0 00121    00337 TXH +3 00000 0 00124    00340 TXH +3 00000 0 00114
 00341 TXH +3 00000 0 00117
                    CHNCOM.(0)                                                      052  LM00054
 00342 TSX +0 07400 4 00006    00343 TXH +3 00000 0 00074
                 E'L                                                                053  LM00055
                 SETBRK.(INT)                                                       054  LM00057
 00344 TSX +0 07400 4 00021    00345 TXH +3 00000 0 00043
                 DELETE.(N3,N4,0,EGRETS)                                            055  LM00058
 00346 TSX +0 07400 4 00011    00347 TXH +3 00000 0 00026    00350 TXH +3 00000 0 00025    00351 TXH +3 00000 0 00074
 00352 TXH +3 00000 0 00034
                 SETORD.(NAME,ORDSW,CHRSIZ,EGRETS)                                  056  LM00059
 00353 TSX +0 07400 4 00022    00354 TXH +3 00000 0 00031    00355 TXH +3 00000 0 00070    00356 TXH +3 00000 0 00057
 00357 TXH +3 00000 0 00034
                 GETBUF.(B1,431)                                                    057  LM00060
 00360 TSX +0 07400 4 00014    00361 TXH +3 00000 0 00050    00362 TXH +3 00000 0 00105
                 GETBUF.(B2,431)                                                    058  LM00061
 00363 TSX +0 07400 4 00014    00364 TXH +3 00000 0 00051    00365 TXH +3 00000 0 00105
                 GETBUF.(B3,431)                                                    059  LM00062
 00366 TSX +0 07400 4 00014    00367 TXH +3 00000 0 00052    00370 TXH +3 00000 0 00105
                 GETBUF.(B4,431)                                                    060  LM00063
 00371 TSX +0 07400 4 00014    00372 TXH +3 00000 0 00053    00373 TXH +3 00000 0 00105
                 GETBUF.(B5,431)                                                    061  LM00064
 00374 TSX +0 07400 4 00014    00375 TXH +3 00000 0 00054    00376 TXH +3 00000 0 00105
                 BFOPEN.($R$,N1,N2,B1(B1+431),B2(B2+431),-0,BFERR)                  062  LM00065
 00377 CLS +0 50200 0 00074    00400 STO +0 60100 0 01111    00401 CLA +0 50000 0 00051    00402 ADD +0 40000 0 00105
 00403 SUB +0 40200 0 00404    00404 TXH +3 00000 0 00051    00405 STA +0 62100 0 00420    00406 CLA +0 50000 0 00050
 00407 ADD +0 40000 0 00105    00410 SUB +0 40200 0 00411    00411 TXH +3 00000 0 00050    00412 STA +0 62100 0 00417
 00413 TSX +0 07400 4 00002    00414 TXH +3 00000 0 00130    00415 TXH +3 00000 0 00030    00416 TXH +3 00000 0 00027
 00417 TXH +3 00000 0 00000    00420 TXH +3 00000 0 00000    00421 TXH +3 00000 0 01111    00422 TXH +3 00000 0 00033
                 BFOPEN.($W$,N3,N4,B3(B3+431),B4(B4+431),B5(B5+431),BFERR)          063  LM00066
 00423 CLA +0 50000 0 00054    00424 ADD +0 40000 0 00105    00425 SUB +0 40200 0 00426    00426 TXH +3 00000 0 00054
 00427 STA +0 62100 0 00450    00430 CLA +0 50000 0 00053    00431 ADD +0 40000 0 00105    00432 SUB +0 40200 0 00433
 00433 TXH +3 00000 0 00053    00434 STA +0 62100 0 00447    00435 CLA +0 50000 0 00052    00436 ADD +0 40000 0 00105
 00437 SUB +0 40200 0 00440    00440 TXH +3 00000 0 00052    00441 STA +0 62100 0 00446    00442 TSX +0 07400 4 00002
 00443 TXH +3 00000 0 00140    00444 TXH +3 00000 0 00026    00445 TXH +3 00000 0 00025    00446 TXH +3 00000 0 00000
 00447 TXH +3 00000 0 00000    00450 TXH +3 00000 0 00000    00451 TXH +3 00000 0 00033
                 W'R BLKSIZ.NE.0, T'O FIXED                                         064  LM00067
 00452 CLA +0 50000 0 00055    00453 SUB +0 40200 0 00074    00454 TZE +0 10000 0 00456    00455 TRA +0 02000 0 00040
                 BFREAD.(N1,N2,LNMRK...1,NOFILE,TEMP,BFERR)                         065  LM00068
 00456 TSX +0 07400 4 00003    00457 TXH +3 00000 0 00030    00460 TXH +3 00000 0 00027    00461 TIX +2 00075 0 00063
 00462 TXH +3 00000 0 00047    00463 TXH +3 00000 0 00072    00464 TXH +3 00000 0 00033
                 FIRST=0B                                                           066  LM00069
 00465 CLA +0 50000 0 00074    00466 STO +0 60100 0 00061
                 W'R LNMRK.A.LNMSK.NE.LNMSK                                         067  LM00070
 00467 CAL -0 50000 0 00063    00470 ANA -0 32000 0 00064    00471 SLW +0 60200 0 01111    00472 CLA +0 50000 0 01111
 00473 SUB +0 40200 0 00064    00474 TZE +0 10000 0 00524
                    BLKSIZ=14                                                       068  LM00071
 00475 CLA +0 50000 0 00103    00476 STO +0 60100 0 00055
                    GETBUF.(LINE,13)                                                069  LM00072
 00477 TSX +0 07400 4 00014    00500 TXH +3 00000 0 00062    00501 TXH +3 00000 0 00102
                    LINE(LINE+13)=LNMRK                                             070  LM00073
 00502 CLA +0 50000 0 00062    00503 ADD +0 40000 0 00102    00504 PAX +0 73400 1 00000    00505 CLA +0 50000 0 00063
 00506 STO +0 60100 1 00062
                    BFREAD.(N1,N2,LINE(LINE+12)...13,EOFX,TEMP,BFERR)               071  LM00074
 00507 CLA +0 50000 0 00062    00510 ADD +0 40000 0 00101    00511 SUB +0 40200 0 00512    00512 TXH +3 00000 0 00062
 00513 STA +0 62100 0 00517    00514 TSX +0 07400 4 00003    00515 TXH +3 00000 0 00030    00516 TXH +3 00000 0 00027
 00517 TIX +2 00102 0 00000    00520 TXH +3 00000 0 00035    00521 TXH +3 00000 0 00072    00522 TXH +3 00000 0 00033
                    T'O FLOOP1                                                      072  LM00075
 00523 TRA +0 02000 0 00041
                 E'L                                                                073  LM00076
                 T'O LNMRKD                                                         074  LM00077
 00524 TRA +0 02000 0 00045
      FIXED      GETBUF.(LINE,BLKSIZ-1)                                             075  LM00079
 00525 CLA +0 50000 0 00055    00526 SUB +0 40200 0 00075    00527 STO +0 60100 0 01111    00530 TSX +0 07400 4 00014
 00531 TXH +3 00000 0 00062    00532 TXH +3 00000 0 01111
      FLOOP      BFREAD.(N1,N2,LINE(LINE+BLKSIZ-1)...BLKSIZ,EOFZ,TEMP,BFERR)        076  LM00081
 00533 CLA +0 50000 0 00062    00534 ADD +0 40000 0 00055    00535 SUB +0 40200 0 00075    00536 SUB +0 40200 0 00537
 00537 TXH +3 00000 0 00062    00540 STA +0 62100 0 00544    00541 TSX +0 07400 4 00003    00542 TXH +3 00000 0 00030
 00543 TXH +3 00000 0 00027    00544 TIX +2 00055 0 00000    00545 TXH +3 00000 0 00037    00546 TXH +3 00000 0 00072
 00547 TXH +3 00000 0 00033
                 FIRST=0B                                                           077  LM00082
 00550 CLA +0 50000 0 00074    00551 STO +0 60100 0 00061
      FLOOP1     TEMP=ORDLIN.(LINE(LINE+BLKSIZ-1)...BLKSIZ)                         078  LM00083
 00552 CLA +0 50000 0 00062    00553 ADD +0 40000 0 00055    00554 SUB +0 40200 0 00075    00555 SUB +0 40200 0 00556
 00556 TXH +3 00000 0 00062    00557 STA +0 62100 0 00561    00560 TSX +0 07400 4 00016    00561 TIX +2 00055 0 00000
 00562 STO +0 60100 0 00072
                 T'H FILL, FOR TEMP=BLKSIZ-TEMP-1,-1,TEMP.L.0                       079  LM00084
 00563 CLA +0 50000 0 00055    00564 SUB +0 40200 0 00072    00565 SUB +0 40200 0 00075    00566 STO +0 60100 0 00072
 00567 TRA +0 02000 0 00573    00570 CLS +0 50200 0 00075    00571 ADD +0 40000 0 00072    00572 STO +0 60100 0 00072
 00573 CLA +0 50000 0 00072    00574 SUB +0 40200 0 00074    00575 TZE +0 10000 0 00577    00576 TMI -0 12000 0 00610
      FILL       LINE(LINE+TEMP)=FILCHR.(0)                                         080  LM00085
 00577 TSX +0 07400 4 00013    00600 TXH +3 00000 0 00074    00601 STO +0 60100 0 01111    00602 CLA +0 50000 0 00062
 00603 ADD +0 40000 0 00072    00604 PAX +0 73400 1 00000    00605 CLA +0 50000 0 01111    00606 STO +0 60100 1 00062
 00607 TRA +0 02000 0 00570
                 BFWRIT.(N3,N4,LINE(LINE+BLKSIZ-1)...BLKSIZ,BFERR)                  081  LM00086
 00610 CLA +0 50000 0 00062    00611 ADD +0 40000 0 00055    00612 SUB +0 40200 0 00075    00613 SUB +0 40200 0 00614
 00614 TXH +3 00000 0 00062    00615 STA +0 62100 0 00621    00616 TSX +0 07400 4 00004    00617 TXH +3 00000 0 00026
 00620 TXH +3 00000 0 00025    00621 TIX +2 00055 0 00000    00622 TXH +3 00000 0 00033
                 T'O FLOOP                                                          082  LM00087
 00623 TRA +0 02000 0 00042
      LLOOP      BFREAD.(N1,N2,LNMRK...1,INT,TEMP,BFERR)                            083  LM00089
 00624 TSX +0 07400 4 00003    00625 TXH +3 00000 0 00030    00626 TXH +3 00000 0 00027    00627 TIX +2 00075 0 00063
 00630 TXH +3 00000 0 00043    00631 TXH +3 00000 0 00072    00632 TXH +3 00000 0 00033
                 W'R LNMRK.A.LNMSK.NE.LNMSK                                         084  LM00090
 00633 CAL -0 50000 0 00063    00634 ANA -0 32000 0 00064    00635 SLW +0 60200 0 01111    00636 CLA +0 50000 0 01111
 00637 SUB +0 40200 0 00064    00640 TZE +0 10000 0 00652
                    W'R .NOT.SKIPFL                                                 085  LM00091
 00641 ZET +0 52000 0 00071    00642 TRA +0 02000 0 00651
      LNMRKR           PR.($LINEMARK ERROR.$)                                       086  LM00092
 00643 TSX +0 07400 4 00020    00644 TXH +3 00000 0 00120    00645 TXH +3 00000 0 00127    00646 TXH +3 00000 0 00123
                       SKIPFL=1B                                                    087  LM00093
 00647 CLA +0 50000 0 00075    00650 STO +0 60100 0 00071
                    E'L                                                             088  LM00094
                    T'O LLOOP                                                       089  LM00095
 00651 TRA +0 02000 0 00044
                 E'L                                                                090  LM00096
                 SKIPFL=0B                                                          091  LM00097
 00652 CLA +0 50000 0 00074    00653 STO +0 60100 0 00071
      LNMRKD     TEMP=LNMRK.A.777777K                                               092  LM00098
 00654 CAL -0 50000 0 00063    00655 ANA -0 32000 0 00107    00656 SLW +0 60200 0 00072
                 W'R TEMP.G.1000, T'O LNMRKR                                        093  LM00099
 00657 CLA +0 50000 0 00072    00660 SUB +0 40200 0 00106    00661 TZE +0 10000 0 00664    00662 TMI -0 12000 0 00664
 00663 TRA +0 02000 0 00046
                 W'R TEMP.G.MAXLEN                                                  094  LM00100
 00664 CLA +0 50000 0 00072    00665 SUB +0 40200 0 00065    00666 TZE +0 10000 0 00701    00667 TMI -0 12000 0 00701
                    GETBUF.(LINE,TEMP-MAXLEN-1)                                     095  LM00101
 00670 CLA +0 50000 0 00072    00671 SUB +0 40200 0 00065    00672 SUB +0 40200 0 00075    00673 STO +0 60100 0 01111
 00674 TSX +0 07400 4 00014    00675 TXH +3 00000 0 00062    00676 TXH +3 00000 0 01111
                    MAXLEN=TEMP                                                     096  LM00102
 00677 CLA +0 50000 0 00072    00700 STO +0 60100 0 00065
                 E'L                                                                097  LM00103
                 BFREAD.(N1,N2,LINE(LINE+MAXLEN-1)...TEMP,EOFY,TEMP,BFERR)          098  LM00104
 00701 CLA +0 50000 0 00062    00702 ADD +0 40000 0 00065    00703 SUB +0 40200 0 00075    00704 SUB +0 40200 0 00705
 00705 TXH +3 00000 0 00062    00706 STA +0 62100 0 00712    00707 TSX +0 07400 4 00003    00710 TXH +3 00000 0 00030
 00711 TXH +3 00000 0 00027    00712 TIX +2 00072 0 00000    00713 TXH +3 00000 0 00036    00714 TXH +3 00000 0 00072
 00715 TXH +3 00000 0 00033
                 TEMP=ORDLIN.(LINE(LINE+MAXLEN-1)...TEMP)                           099  LM00105
 00716 CLA +0 50000 0 00062    00717 ADD +0 40000 0 00065    00720 SUB +0 40200 0 00075    00721 SUB +0 40200 0 00722
 00722 TXH +3 00000 0 00062    00723 STA +0 62100 0 00725    00724 TSX +0 07400 4 00016    00725 TIX +2 00072 0 00000
 00726 STO +0 60100 0 00072
                 LNMRK=TEMP.V.LNMSK                                                 100  LM00106
 00727 CAL -0 50000 0 00072    00730 ORA -0 50100 0 00064    00731 SLW +0 60200 0 00063
                 BFWRIT.(N3,N4,LNMRK...1,BFERR)                                     101  LM00107
 00732 TSX +0 07400 4 00004    00733 TXH +3 00000 0 00026    00734 TXH +3 00000 0 00025    00735 TIX +2 00075 0 00063
 00736 TXH +3 00000 0 00033
                 BFWRIT.(N3,N4,LINE(LINE+MAXLEN-1)...TEMP,BFERR)                    102  LM00108
 00737 CLA +0 50000 0 00062    00740 ADD +0 40000 0 00065    00741 SUB +0 40200 0 00075    00742 SUB +0 40200 0 00743
 00743 TXH +3 00000 0 00062    00744 STA +0 62100 0 00750    00745 TSX +0 07400 4 00004    00746 TXH +3 00000 0 00026
 00747 TXH +3 00000 0 00025    00750 TIX +2 00072 0 00000    00751 TXH +3 00000 0 00033
                 T'O LLOOP                                                          103  LM00109
 00752 TRA +0 02000 0 00044
      NOFILE     PR.(N1,BL,N2,$ IS EMPTY.$)                                         104  LM00111
 00753 TSX +0 07400 4 00020    00754 TXH +3 00000 0 00030    00755 TXH +3 00000 0 00056    00756 TXH +3 00000 0 00027
 00757 TXH +3 00000 0 00132    00760 TXH +3 00000 0 00126
      INT        BFCLOS.($ALL$,-0,BFERR)                                            105  LM00112
 00761 CLS +0 50200 0 00074    00762 STO +0 60100 0 01111    00763 TSX +0 07400 4 00001    00764 TXH +3 00000 0 00110
 00765 TXH +3 00000 0 01111    00766 TXH +3 00000 0 00033
      EGRETS     PR.($*$)                                                           106  LM00113
 00767 TSX +0 07400 4 00020    00770 TXH +3 00000 0 00131
                 CHNCOM.(0)                                                         107  LM00114
 00771 TSX +0 07400 4 00006    00772 TXH +3 00000 0 00074
      BFERR      PRNTER.                                                            108  LM00116
 00773 TSX +0 07400 4 00017
                 BFCLOS.($ALL$,-0,EGRETS)                                           109  LM00117
 00774 CLS +0 50200 0 00074    00775 STO +0 60100 0 01111    00776 TSX +0 07400 4 00001    00777 TXH +3 00000 0 00110
 01000 TXH +3 00000 0 01111    01001 TXH +3 00000 0 00034
                 T'O EGRETS                                                         110  LM00118
 01002 TRA +0 02000 0 00034
      EOFX       TEMP=TEMP+1                                                        111  LM00120
 01003 CLA +0 50000 0 00072    01004 ADD +0 40000 0 00075    01005 STO +0 60100 0 00072
      EOFZ       W'R TEMP.E.0                                                       112  LM00121
 01006 CLA +0 50000 0 00072    01007 SUB +0 40200 0 00074    01010 TNZ -0 10000 0 01015
                    W'R FIRST, T'O NOFILE                                           113  LM00122
 01011 NZT -0 52000 0 00061    01012 TRA +0 02000 0 01014    01013 TRA +0 02000 0 00047
                    T'O INT                                                         114  LM00123
 01014 TRA +0 02000 0 00043
                 E'L                                                                115  LM00124
                 PR.($FINAL BLOCK$,BZ57.(DEFBC.(TEMP)),$ WORDS LONG.$)              116  LM00125
 01015 TSX +0 07400 4 00010    01016 TXH +3 00000 0 00072    01017 STO +0 60100 0 01111    01020 TSX +0 07400 4 00005
 01021 TXH +3 00000 0 01111    01022 STO +0 60100 0 01111    01023 TSX +0 07400 4 00020    01024 TXH +3 00000 0 00116
 01025 TXH +3 00000 0 00112    01026 TXH +3 00000 0 01111    01027 TXH +3 00000 0 00136    01030 TXH +3 00000 0 00133
                 TEMP=ORDLIN.(LINE(LINE+BLKSIZ-1)...TEMP)                           117  LM00126
 01031 CLA +0 50000 0 00062    01032 ADD +0 40000 0 00055    01033 SUB +0 40200 0 00075    01034 SUB +0 40200 0 01035
 01035 TXH +3 00000 0 00062    01036 STA +0 62100 0 01040    01037 TSX +0 07400 4 00016    01040 TIX +2 00072 0 00000
 01041 STO +0 60100 0 00072
                 T'H FILL1, FOR TEMP=BLKSIZ-TEMP-1,-1,TEMP.L.0                      118  LM00127
 01042 CLA +0 50000 0 00055    01043 SUB +0 40200 0 00072    01044 SUB +0 40200 0 00075    01045 STO +0 60100 0 00072
 01046 TRA +0 02000 0 01052    01047 CLS +0 50200 0 00075    01050 ADD +0 40000 0 00072    01051 STO +0 60100 0 00072
 01052 CLA +0 50000 0 00072    01053 SUB +0 40200 0 00074    01054 TZE +0 10000 0 01056    01055 TMI -0 12000 0 01067
      FILL1      LINE(LINE+TEMP)=FILCHR.(0)                                         119  LM00128
 01056 TSX +0 07400 4 00013    01057 TXH +3 00000 0 00074    01060 STO +0 60100 0 01111    01061 CLA +0 50000 0 00062
 01062 ADD +0 40000 0 00072    01063 PAX +0 73400 1 00000    01064 CLA +0 50000 0 01111    01065 STO +0 60100 1 00062
 01066 TRA +0 02000 0 01047
                 BFWRIT.(N3,N4,LINE(LINE+BLKSIZ-1)...BLKSIZ,BFERR)                  120  LM00129
 01067 CLA +0 50000 0 00062    01070 ADD +0 40000 0 00055    01071 SUB +0 40200 0 00075    01072 SUB +0 40200 0 01073
 01073 TXH +3 00000 0 00062    01074 STA +0 62100 0 01100    01075 TSX +0 07400 4 00004    01076 TXH +3 00000 0 00026
 01077 TXH +3 00000 0 00025    01100 TIX +2 00055 0 00000    01101 TXH +3 00000 0 00033
                 T'O INT                                                            121  LM00130
 01102 TRA +0 02000 0 00043
      EOFY       PR.($LINEMARK ERROR.$)                                             122  LM00132
 01103 TSX +0 07400 4 00020    01104 TXH +3 00000 0 00120    01105 TXH +3 00000 0 00127    01106 TXH +3 00000 0 00123
                 T'O INT                                                            123  LM00133
 01107 TRA +0 02000 0 00043
                 E'M                                                                124  LM00135
 01110 TSX +0 07400 4 00012


ORDER2   BCD 09/18/68 1112.3    2396         00000
1                                                                                                PAGE 1

                              * SETORD.(NAME,ORDSW,CHRSIZ,ERROR)
                              * NEWLEN=ORDLIN.(LINE(LEN)...LEN)
                              * WORD=FILCHR.(0)

                       00011         ENTRY   SETORD        READ TABLE AND INITIALIZE
                       00226         ENTRY   ORDLIN        RE-ORDER ONE LINE
                       00170         ENTRY   FILCHR        GET WORD OF FILL CHARACTERS

                                     EXTERN  GETMEM,SETMEM,OPEN,RDFILE,CLOSE,PRNTER,WRFLX

 M                            CALL   MACRO   NAME,LIST
                                     TSX     NAME,4
                                     IRP     LIST
                                     PTH     LIST
                                     IRP
                              CALL   END


        TRANSFER VECTOR
      00000  272563442544     GETMEM
      00001  622563442544     SETMEM
      00002  464725456060     OPEN
      00003  512426314325     RDFILE
      00004  234346622560     CLOSE
      00005  475145632551     PRNTER
      00006  665126436760     WRFLX

            LINKAGE DIRECTOR
      00007  000000000000
      00010  622563465124

      00011  0760 00 0 00016  SETORD LMTM
      00012  0634 00 4 00154         SXA     SX4,4
      00013 -0500 60 4 00001         CAL*    1,4
      00014  0602 00 0 00261         SLW     NAME
      00015 -0500 60 4 00002         CAL*    2,4
      00016  0602 00 0 00262         SLW     ORDSW
      00017 -0500 60 4 00003         CAL*    3,4
      00020  0734 00 1 00000         PAX     ,1
      00021  0634 00 1 00200         SXA     CHSFT1,1
      00022  0636 00 1 00214         SCA     STC,1
      00023 -0634 00 1 00216         SXD     CHSFT2,1
      00024  0634 00 1 00145         SXA     CHSFT3,1
      00025 -0754 00 0 00000         ZAC
      00026  0560 00 0 00476         LDQ     =36
      00027  0221 60 4 00003         DVP*    3,4
      00030 -0100 00 0 00156         TNZ     ERROR
      00031 -0130 00 0 00000         XCL
      00032  0621 00 0 00176         STA     CHPWD1
      00033  0402 00 0 00475         SUB     =4
      00034  0100 00 0 00036         TZE     *+2
      00035 -0500 00 0 00477         CAL     =O57
      00036  0602 00 0 00263         SLW     NULL
      00037  0774 00 4 00062         AXT     50,4
      00040  0634 00 4 00264         SXA     TEMP,4
      00041  0074 00 4 00000         TSX     GETMEM,4
1                                                                                                PAGE 2

      00042  0602 00 0 00265         SLW     MEMBND
      00043  0621 00 0 00061         STA     READ+4
      00044  0400 00 0 00500         ADD     =50
      00045  0074 00 4 00001         TSX     SETMEM,4
      00046                          CALL    OPEN(=HR,NAME,ORDER,,,IOERR)
      00055                   READ   CALL    RDFILE(NAME,ORDER,=1(**,,50)*,TEMP,IOERR)
      00065                          CALL    CLOSE(NAME,ORDER,IOERR)
      00071  0502 00 0 00473         CLS     =0
      00072  0774 00 4 00200         AXT     MXCHR,4
      00073  0601 00 4 00473         STO     CHRTAB+MXCHR,4
      00074  2 00001 4 00073         TIX     *-1,4,1
      00075  0774 00 7 00000         AXT     0,7
      00076  0534 00 6 00264         LXA     TEMP,6
      00077  1 00001 6 00100         TXI     *+1,6,1
      00100  0535 00 5 00265         LAC     MEMBND,5
      00101  0441 00 5 00000         LDI     0,5
      00102 -0056 00  777777         LNT     /
      00103  1 00001 5 00105         TXI     *+2,5,1
      00104  1 77777 6 00105         TXI     *+1,6,-1
      00105 -0774 00 1 00001         AXC     1,1
      00106  0520 00 0 00262         ZET     ORDSW
      00107  0020 00 0 00124         TRA     ILOOP1

      00110  0074 00 4 00172  ILOOP  TSX     GTC,4
      00111 -0340 00 0 00263         LAS     NULL
      00112  0020 00 0 00114         TRA     *+2
      00113  0020 00 0 00134         TRA     DONSET
      00114  0737 00 4 00000         PAC     ,4
      00115 -3 00000 4 00117         TXL     *+2,4,0
      00116 -3 77577 4 00110         TXL     ILOOP,4,-MXCHR-1
      00117  0500 00 4 00273         CLA     CHRTAB,4
      00120  0120 00 0 00134         TPL     DONSET
      00121  0756 00 1 00000         PCA     ,1
      00122  0602 00 4 00273         SLW     CHRTAB,4
      00123  1 77777 1 00110         TXI     ILOOP,1,-1

      00124 -3 00000 1 00126  ILOOP1 TXL     *+2,1,0
      00125 -3 77577 1 00134         TXL     DONSET,1,-MXCHR-1
      00126  0074 00 4 00172         TSX     GTC,4
      00127 -0340 00 0 00263         LAS     NULL
      00130  0020 00 0 00132         TRA     *+2
      00131  0020 00 0 00134         TRA     DONSET
      00132  0602 00 1 00273         SLW     CHRTAB,1
      00133  1 77777 1 00124         TXI     ILOOP1,1,-1

      00134 -0500 00 0 00265  DONSET CAL     MEMBND
      00135  0600 00 0 00265         STZ     MEMBND
      00136  0074 00 4 00001         TSX     SETMEM,4
      00137  0520 00 0 00262         ZET     ORDSW
      00140  0020 00 0 00143         TRA     *+3
      00141  0600 00 0 00266         STZ     FILLER
      00142  0020 00 0 00154         TRA     SX4
      00143 -0500 00 0 00263         CAL     NULL
      00144  0602 00 0 00273         SLW     CHRTAB
      00145 -0765 00 0 00000  CHSFT3 LGR     **
      00146  0602 00 0 00266         SLW     FILLER
1                                                                                                PAGE 3

      00147  0522 00 0 00176         XEC     CHPWD1
      00150  0560 00 0 00266         LDQ     FILLER
      00151  0522 00 0 00200         XEC     CHSFT1
      00152  2 00001 7 00150         TIX     *-2,7,1
      00153  0602 00 0 00266         SLW     FILLER
      00154  0774 00 4 00000  SX4    AXT     **,4
      00155  0020 00 4 00005         TRA     5,4

      00156  0074 00 4 00006  ERROR  TSX     WRFLX,4
      00157  0 00003 0 00270                 ILCHSZ,,3
                              $ILLEGAL CHRSIZ.
      00160  0020 00 0 00166         TRA     EREXIT

      00161  0074 00 4 00005  IOERR  TSX     PRNTER,4
      00162                          CALL    CLOSE(NAME,ORDER,*)

      00166  0522 00 4 00154  EREXIT XEC     SX4,4
      00167  0020 60 4 00004         TRA*    4,4
1                                                                                                PAGE 4

      00170  0500 00 0 00266  FILCHR CLA     FILLER
      00171  0020 00 4 00001         TRA     1,4

      00172  2 00001 7 00177  GTC    TIX     GTCX,7,1
      00173 -2 00001 6 00203         TNX     GTCDON,6,1
      00174  1 77777 5 00175         TXI     *+1,5,-1
      00175  0560 00 5 00000         LDQ     0,5
      00176  0774 00 7 00000  CHPWD1 AXT     **,7
      00177 -0754 00 0 00000  GTCX   ZAC
      00200 -0763 00 0 00000  CHSFT1 LGL     **
      00201 -0320 00 0 00501         ANA     =O377
      00202  0020 00 4 00001         TRA     1,4

      00203  0520 00 0 00265  GTCDON ZET     MEMBND
      00204  0020 00 0 00134         TRA     DONSET

      00205 -3 77734 3 00256         TXL     OUT,3,-36
      00206  0560 00 0 00266         LDQ     FILLER
      00207 -0754 00 0 00000         ZAC
      00210 -0763 00 3 00000         LGL     0,3
      00211  0043 00 0 00000         OAI
      00212  0604 00 1 00000         STI     0,1
      00213  1 00001 2 00256         TXI     OUT,2,1

      00214  0767 00 3 00000  STC    ALS     -**,3
      00215  0043 00 0 00000         OAI
      00216  1 00000 3 00217  CHSFT2 TXI     *+1,3,**
      00217  3 00000 3 00225         TXH     *+6,3,0
      00220  0604 00 1 00000         STI     0,1
      00221  1 77777 1 00222         TXI     *+1,1,-1
      00222  1 00001 2 00223         TXI     *+1,2,1
      00223  0441 00 0 00473         LDI     =0
      00224 -0774 00 3 00044         AXC     36,3
      00225  0020 00 4 00001         TRA     1,4
1                                                                                                PAGE 5

      00226  0634 00 4 00257  ORDLIN SXA     XR4,4
      00227 -0500 00 4 00001         CAL     1,4
      00230  0737 00 1 00000         PAC     ,1
      00231  0737 00 5 00000         PAC     ,5
      00232 -0737 00 6 00000         PDC     ,6
      00233  0322 00 0 00502         ERA     =O200000000000
      00234 -0320 00 0 00504         ANA     =O700000000000
      00235 -0100 00 0 00240         TNZ     *+3
      00236 -0500 00 6 00000         CAL     0,6
      00237  0020 00 0 00241         TRA     *+2
      00240  0756 00 6 00000         PCA     ,6
      00241  0734 00 6 00000         PAX     ,6
      00242  1 00001 6 00243         TXI     *+1,6,1
      00243  1 00001 5 00244         TXI     *+1,5,1
      00244  0774 00 7 00000         AXT     0,7
      00245  0441 00 0 00473         LDI     =0
      00246 -0774 00 3 00044         AXC     36,3
      00247  0774 00 2 00000         AXT     0,2

      00250  0074 00 4 00172  LOOP   TSX     GTC,4
      00251  0737 00 4 00000         PAC     ,4
      00252  0500 00 4 00273         CLA     CHRTAB,4
      00253 -0120 00 0 00250         TMI     LOOP
      00254  0074 00 4 00214         TSX     STC,4
      00255  0020 00 0 00250         TRA     LOOP

      00256  0754 00 2 00000  OUT    PXA     ,2
      00257  0774 00 4 00000  XR4    AXT     **,4
      00260  0020 00 4 00002         TRA     2,4
1                                                                                                PAGE 6

      00261  0 00000 0 00000  NAME
      00262  0 00000 0 00000  ORDSW
      00263  0 00000 0 00000  NULL
      00264  0 00000 0 00000  TEMP
      00265  0 00000 0 00000  MEMBND
                       00200  MXCHR  EQU     128
      00266  0 00000 0 00000  FILLER
      00267  604651242551     ORDER  BCI     1, ORDER
      00270  314343252721     ILCHSZ BCI     3,ILLEGAL CHRSIZ.
      00271  436023305162
      00272  317133606060
      00273                   CHRTAB BSS     MXCHR

                                     END

        LITERALS
      00473  000000000000
      00474  000000000001
      00475  000000000004
      00476  000000000044
      00477  000000000057
      00500  000000000062
      00501  000000000377
      00502  200000000000
      00503  516060606060
      00504  700000000000
1                                                                                                PAGE 1
                        POST PROCESSOR ASSEMBLY DATA

        505 IS THE FIRST LOCATION NOT USED BY THIS PROGRAM

0REFERENCES TO DEFINED SYMBOLS
        172    GTC   110,  126,  250
        256    OUT   205,  213
        214    STC    22,  254
        154    SX4    12,  142,  166
        257    XR4   226
        177   GTCX   172
        250   LOOP   253,  255
        261   NAME    14,   50,   56,   66,  163
        263   NULL    36,  111,  127,  143
          2   OPEN    46
         55   READ    43
        264   TEMP    40,   63,   76
          4  CLOSE    65,  162
        156  ERROR    30
        110  ILOOP   116,  123
        161  IOERR    54,   64,   70
        200  MXCHR    72,   73,  116,  125,  266,  273
        267  ORDER    51,   57,   67,  164
        262  ORDSW    16,  106,  137
          6  WRFLX   156
        176 CHPWD1    32,  147
        273 CHRTAB    73,  117,  122,  132,  144,  252
        200 CHSFT1    21,  151
        216 CHSFT2    23
        145 CHSFT3    24
        134 DONSET   113,  120,  125,  131,  204
        166 EREXIT   160
        170 FILCHR     0
        266 FILLER   141,  146,  150,  153,  170,  206
          0 GETMEM    41
        203 GTCDON   173
        270 ILCHSZ   157
        124 ILOOP1   107,  133
        265 MEMBND    42,  100,  134,  135,  203
        226 ORDLIN     0
          5 PRNTER   161
          3 RDFILE    55
          1 SETMEM    45,  136
         11 SETORD     0

0 NO ERROR IN ABOVE ASSEMBLY.


OUTPUT   BCD 09/20/68 0220.4    5260         00000
1       RQUEST COMMAND FOR CTSS                                                                  PAGE 1

                              * MODIFIED FOR LISTF '*' CONVENTION
                              * JIM BIXBY      7/7/67


        TRANSFER VECTOR
      00000  452144216242     NAMASK

      00001  0074 00 4 00513         TSX     FERRTN,4      SET THE I/O ERROR RETURN
      00002  0 00000 0 00306         PZE     ERR
      00003  0074 00 4 00473         TSX     WHOAMI,4      FIND WHO IS DOING THE RQUEST
      00004  3 00002 0 00374         PTH     PROBN,,2
      00005  0074 00 4 00505         TSX     GETCOM,4      GET THE RQUEST OPTION
      00006  0 00000 0 00001         PZE     1             FROM THE FIRST ARGUMENT
      00007  0602 00 0 00354         SLW     OPTRQ         ..
      00010  0602 00 0 00360         SLW     OUT           AND PUT RQUEST IN OUTPUT FILE
      00011  0774 00 1 00015         AXT     OPTSIZ,1      SET UP FOR SEARCH FOR OPTION
      00012 -0340 00 1 00427  CKOPT  LAS     OPTION+OPTSIZ,1 CHECK AGAINST KOSHER OPTIONS
      00013  0020 00 0 00015         TRA     *+2           NOT THIS ONE
      00014  0020 00 0 00022         TRA     OPTFND        FOUND--
      00015  2 00001 1 00012         TIX     CKOPT,1,1     CHECK THE ENTIRE TABLE

                                             HERE IF ILLEGAL OPTION GIVEN***************

      00016  0074 00 4 00506         TSX     WRFLX,4       BAD OPTION--SAY SO
      00017  0 00004 0 00354         PZE     OPTRQ,,4
      00020  0074 00 4 00507  FINI   TSX     CHNCOM,4      AND EXIT
      00021  3 00000 0 00514         PTH     =0            ..

                                             HERE IF OPTION FOUND IN LEGAL SET

      00022  0074 00 4 00476  OPTFND TSX     FSTATE,4      CHECK FOR 'OUTPUT RQUEST'
      00023  3 00000 0 00464         PTH     OUTPUT
      00024  3 00000 0 00465         PTH     RQUEST
      00025  3 00002 0 00410         PTH     A,,2
      00026  3 00000 0 00317         PTH     NOFILE        ERROR RETURN
      00027  3 00000 0 00463         PTH     N             ERROR CODE
      00030  0500 00 0 00411         CLA     A+1           GET MODE OF FILE
      00031  0100 00 0 00040         TZE     ONWARD        PROCEED IF MODE ZERO
      00032 -0120 00 0 00314         TMI     LNKED         ERROR IF LINKED
      00033  0322 00 0 00515         ERA     =1            SEE IF TEMPORARY
      00034 -0100 00 0 00326         TNZ     ERROR         NOT TEMP. MUST DO SUMTIN
      00035  0074 00 4 00475  DLETIT TSX     DELFIL,4      DELETE THE OLD TEMP. 'OUTPUT RQUEST'
      00036  3 00000 0 00464         PTH     OUTPUT
      00037  3 00000 0 00465         PTH     RQUEST
1       RQUEST COMMAND FOR CTSS                                                                  PAGE 2


                                             SET UP THE BUFFERS FOR WRITING 'OUTPUT RQUEST'
                                             AND READING THE UFD. ALSO LOAD THE UFD INTO UPPER CORE


      00040  0074 00 4 00476  ONWARD TSX     FSTATE,4      FIND SIZE OF UFD
      00041  3 00000 0 00461         PTH     UFD
      00042  3 00000 0 00462         PTH     FILE
      00043  3 00001 0 00410         PTH     A,,1
      00044  0500 00 0 00410         CLA     A             FIND NUMBER OF WORDS
      00045  0402 00 0 00517         SUB     =3            TO BE READ FROM U.F.D.
      00046  0601 00 0 00453         STO     UFDSIZ
      00047  0100 00 0 00303         TZE     EMPTY         IF NO ENTRIES IN UFD
      00050  0767 00 0 00022         ALS     18            PUT SIZE IN DECREMENT
      00051  0622 00 0 00077         STD     UFDS          AND STORE IN READ INSTRUCTION
      00052  0074 00 4 00510         TSX     GETMEM,4      EXGET CURRENT MEMORY BOUND
      00053  0621 00 0 00116         STA     BUFF          AND SET UP BUFFER ADDRESSES
      00054  0400 00 0 00454         ADD     BUFSIZ
      00055  0621 00 0 00077         STA     UFDS           ORIGIN FOR LOADING UFD
      00056  0621 00 0 00455         STA     NAME1         POINTER TO THE NAME1'S OF THE WORLD
      00057  0400 00 0 00515         ADD     =1            AND ALSO FOR THE
      00060  0621 00 0 00456         STA     NAME2         NAME2'S EVERYWHERE
      00061  0400 00 0 00453         ADD     UFDSIZ        MAKE ROOM FOR THE ENTIRE UFD
      00062  0074 00 4 00511         TSX     SETMEM,4      TACK DOWN MEMORY HERE
      00063  0534 00 4 00453         LXA     UFDSIZ,4      USE UFDSIZ FOR A CHECK ON THR
      00064 -0636 00 4 00225         SCD     CKLOOP+1,4    UFD SEARCH LOOP


                                             OPEN THE UFD, LOAD IT, AND CLOSE IT


      00065  0074 00 4 00502         TSX     OPEN,4
      00066  3 00000 0 00457         PTH     R
      00067  3 00000 0 00461         PTH     UFD
      00070  3 00000 0 00462         PTH     FILE
      00071  3 00000 0 00514         PTH     =0
      00072  3 00000 0 00514         PTH     =0
      00073  0074 00 4 00503         TSX     RDFILE,4
      00074  3 00000 0 00461         PTH     UFD
      00075  3 00000 0 00462         PTH     FILE
      00076  3 00000 0 00520         PTH     =4            SKIP ALLOTMENTS
      00077  3 00000 0 00000  UFDS   PTH     **,,**
      00100  3 00000 0 00102         PTH     *+2           IGNORE END OF FILE
      00101  3 00000 0 00463         PTH     N
      00102  0074 00 4 00500         TSX     CLOSE,4       AND CLOSE
      00103  3 00000 0 00461         PTH     UFD
      00104  3 00000 0 00462         PTH     FILE
      00105  0074 00 4 00502         TSX     OPEN,4        OPEN 'OUTPUT RQUEST' FOR WRITING
      00106  3 00000 0 00460         PTH     W
      00107  3 00000 0 00464         PTH     OUTPUT
      00110  3 00000 0 00465         PTH     RQUEST
      00111  3 00000 0 00514         PTH     =0            IN ZERO MODE
      00112  3 00000 0 00516         PTH     =2            ON THE DISK
      00113  0074 00 4 00501         TSX     BUFFER,4      ASSIGN A BUFFER FOR WRITING
1       RQUEST COMMAND FOR CTSS                                                                  PAGE 3

      00114  3 00000 0 00464         PTH     OUTPUT
      00115  3 00000 0 00465         PTH     RQUEST
      00116  3 00660 0 00000  BUFF   PTH     **,,432
      00117  0774 00 2 00000         AXT     0,2
1       RQUEST COMMAND FOR CTSS                                                                  PAGE 4


                                             INITIALIZE, AND FIND THE NEXT ARGUMENT SET


      00120  0500 00 0 00127  NXTARG CLA     ARGSET        UPDATE THE ARG. COUNTER TO NEXT SET
      00121  0400 00 0 00516         ADD     =2
      00122  0601 00 0 00127         STO     ARGSET
      00123  0400 00 0 00515         ADD     =1
      00124  0621 00 0 00135         STA     ARG2
      00125  0600 00 0 00405         STZ     COUNT
      00126  0074 00 4 00505         TSX     GETCOM,4      GET THE FIRST ARG, THIS SET
      00127  0 00000 0 00000  ARGSET PZE     **
      00130 -0340 00 0 00467         LAS     FENCE         IS IT A FENCE--
      00131  0020 00 0 00133         TRA     *+2           NOPE
      00132  0020 00 0 00262         TRA     CKFINI        YES--FLUSH OUT OUTPT MESS.
      00133  0602 00 0 00401         SLW     N1
      00134  0074 00 4 00505         TSX     GETCOM,4      GET SECOND ARG
      00135  0 00000 0 00000  ARG2   PZE     **
      00136 -0340 00 0 00467         LAS     FENCE         IS IT A FENCE
      00137  0020 00 0 00145         TRA     *+6
      00140  0020 00 0 00142         TRA     *+2
      00141  0020 00 0 00145         TRA     *+4
      00142  0500 00 0 00515         CLA     =1            YES--SET STOP FLAG
      00143  0601 00 0 00466         STO     STFLAG
      00144 -0500 00 0 00546         CAL     =H     *      MAKE IT A STAR
      00145  0602 00 0 00402         SLW     N2            AND STORE
      00146  0074 00 4 00000         TSX     $NAMASK,4     GET THE ARGUMENT MASKS
      00147  3 00000 0 00401         PTH     N1
      00150  0602 00 0 00470         SLW     MASK1
      00151  0074 00 4 00000         TSX     $NAMASK,4
      00152  3 00000 0 00402         PTH     N2
      00153  0602 00 0 00471         SLW     MASK2
1       RQUEST COMMAND FOR CTSS                                                                  PAGE 5


                                             SEARCH THE UFD FOR THE CHOSEN ENTRIES AND
                                             PUT THEM INTO 'OUTPUT RQUEST'


      00154  0774 00 1 00000         AXT     0,1           START AT TOP OF UFD
      00155 -0500 60 0 00455  SEARCH CAL*    NAME1         SEE IF N1 AND N2 ARE ZERO
      00156 -0501 60 0 00456         ORA*    NAME2
      00157  0100 00 0 00224         TZE     CKLOOP        YES--SKIP THIS ENTRY
      00160 -0500 60 0 00455         CAL*    NAME1         SEE IF NAME1 FITS MASK
      00161  0322 00 0 00401         ERA     N1
      00162 -0320 00 0 00470         ANA     MASK1
      00163 -0100 00 0 00224         TNZ     CKLOOP
      00164 -0500 60 0 00456         CAL*    NAME2         YES--CHECK NAME2
      00165  0322 00 0 00402         ERA     N2
      00166 -0320 00 0 00471         ANA     MASK2
      00167 -0100 00 0 00224         TNZ     CKLOOP


                                             HERE IF WE WANT TO RQUEST THIS ENTRY


      00170 -0500 60 0 00455         CAL*    NAME1         LOAD NAME1,NAME2 INTO RQUEST
      00171  0560 00 0 00547         LDQ     =H
      00172 -0765 00 0 00022         LGR     18
      00173 -0600 00 2 00362         STQ     OUT+2,2
      00174 -0501 00 0 00543         ORA     =H   000
      00175  0602 00 2 00361         SLW     OUT+1,2
      00176 -0500 60 0 00456         CAL*    NAME2
      00177  0602 00 2 00363         SLW     OUT+3,2
      00200  1 77775 2 00201         TXI     *+1,2,-3      MOVE TO NEXT MESSAGE SLOT
      00201  3 77767 2 00221         TXH     ADDEM,2,-9    AND ADD IF SLOTS NOT FULL
      00202  0074 00 4 00504  WRITE  TSX     WRWAIT,4      WRITE THE RQUEST
      00203  3 00000 0 00464         PTH     OUTPUT
      00204  3 00000 0 00465         PTH     RQUEST
      00205  3 00000 0 00514         PTH     =0            ON THE END OF THE FILE
      00206  3 00016 0 00360         PTH     OUT,,14
      00207  3 00000 0 00213         PTH     *+4
      00210  3 00000 0 00463         PTH     N
      00211  0754 00 2 00000         PXA     ,2            GET THE SLOT
      00212  0322 00 0 00515         ERA     =1            ONE IF WERE FININSHING UP
      00213  0100 00 0 00265         TZE     FINISH
      00214  0774 00 2 00011         AXT     9,2           BLANK OUT SLOTS
      00215 -0500 00 0 00547         CAL     =H
      00216  0602 00 2 00372         SLW     OUT+10,2
      00217  2 00001 2 00216         TIX     *-1,2,1
      00220  0774 00 2 00000         AXT     0,2           AND RESET COUNTER
      00221  0500 00 0 00405  ADDEM  CLA     COUNT
      00222  0400 00 0 00515         ADD     =1            UPDATE COUND OF ENTRIES FOUND
      00223  0601 00 0 00405         STO     COUNT
      00224  1 77771 1 00225  CKLOOP TXI     *+1,1,-7      MOVE DOWN TABLE
      00225  3 00000 1 00155         TXH     SEARCH,1,**   AND KEEP GOING
1       RQUEST COMMAND FOR CTSS                                                                  PAGE 6


                                             HERE WHEN SCAN OF UFD FOR THIS ARG IS FINISHED


      00226  0500 00 0 00405         CLA     COUNT         FIND WHICH MESSAGE WE SHOULD PRINT
      00227 -0100 00 0 00233         TNZ     PRSOME        FOUND SOME-- SAY SO
      00230  0074 00 4 00506         TSX     WRFLX,4       FOUND NONE--SAY SO
      00231  0 00005 0 00376         PZE     NONE,,5
      00232  0020 00 0 00260         TRA     CKFLAG        SEE IF MORE WORK TO DO
      00233  0560 00 0 00405  PRSOME LDQ     COUNT         CONVERT COUNT TO BCD W/ LEAD. ZEROS
      00234  0774 00 4 00044         AXT     36,4          SEE DEFBC, BZEL IN FOREGROUND LIB.
      00235  0600 00 0 00405         STZ     COUNT
      00236 -0754 00 0 00000  BC     ZAC
      00237  0221 00 0 00521         DVP     =10
      00240  0767 00 4 00044         ALS     36,4
      00241 -0602 00 0 00405         ORS     COUNT
      00242  2 00006 4 00236         TIX     BC,4,6
      00243  0560 00 0 00405         LDQ     COUNT
      00244  0774 00 4 00044         AXT     36,4
      00245 -0754 00 0 00000  BA     ZAC
      00246 -0763 00 0 00006         LGL     6
      00247  0100 00 0 00252         TZE     BB
      00250 -0340 00 0 00522         LAS     =H00000
      00251  0020 00 0 00253         TRA     *+2
      00252  2 00006 4 00245  BB     TIX     BA,4,6
      00253 -0501 00 0 00545         ORA     =H     0
      00254 -0765 00 4 00052         LGR     42,4
      00255 -0600 00 0 00405         STQ     COUNT
      00256  0074 00 4 00506         TSX     WRFLX,4       AND WRITE THE MESSAGE
      00257  3 00005 0 00401         PTH     N1,,5


      00260  0500 00 0 00466  CKFLAG CLA     STFLAG        SEE IF MORE ARGS TO PROCESS
      00261  0100 00 0 00120         TZE     NXTARG        YUPIIBACK WE GO
      00262 -3 00000 2 00265  CKFINI TXL     FINISH,2,0    FINISH IF IR2=0
      00263  0774 00 2 00001         AXT     1,2           SET FLAG
      00264  0020 00 0 00202         TRA     WRITE         AND FLUSH REMAINING RQUESTS
      00265  0074 00 4 00500  FINISH TSX     CLOSE,4       NOPE--FINISH UP
      00266  3 00000 0 00464         PTH     OUTPUT
      00267  3 00000 0 00465         PTH     RQUEST
      00270  0074 00 4 00476         TSX     FSTATE,4      CHECK SIZE OF 'OUTPUT RQUEST'
      00271  3 00000 0 00464         PTH     OUTPUT
      00272  3 00000 0 00465         PTH     RQUEST
      00273  3 00001 0 00410         PTH     A,,1
      00274  0500 00 0 00410         CLA     A             SEE IF ZERO LENGTH
      00275 -0100 00 0 00020         TNZ     FINI          NOPE--ALL DONE
      00276  0074 00 4 00475         TSX     DELFIL,4      YES--DELETE THE BASTARD
      00277  3 00000 0 00464         PTH     OUTPUT
      00300  3 00000 0 00465         PTH     RQUEST
      00301  3 00000 0 00020         PTH     FINI          DONT EVEN BOTHER WITH ERRORS HERE
      00302  0020 00 0 00020         TRA     FINI
1       RQUEST COMMAND FOR CTSS                                                                  PAGE 7


                                             ERROR ROUTINES


      00303  0074 00 4 00506  EMPTY  TSX     WRFLX,4       IF UFD IS EMPTY
      00304  0 00002 0 00406         PZE     NOFLS,,2
      00305  0020 00 0 00311         TRA     CLOSAL


      00306 -0500 00 0 00537  ERR    CAL     =HPRNTER      CHAIN TO 'PRNTER' IF ERROR
      00307  0560 00 0 00467         LDQ     FENCE
      00310  0101 00 0 00535         TIA     =HNEXCOM
      00311  0074 00 4 00500  CLOSAL TSX     CLOSE,4       CLOSE 'EM ALL OUT
      00312  3 00000 0 00544         PTH     =H   ALL
      00313  0020 00 0 00020         TRA     FINI


      00314  0074 00 4 00506  LNKED  TSX     WRFLX,4       HERE IF 'OUTPUT RQUEST' IS LINKED
      00315  0 00007 0 00427         PZE     LNKMES,,7     SAY SO
      00316  0020 00 0 00311         TRA     CLOSAL


      00317  0500 00 0 00463  NOFILE CLA     N             IF FSTATE ERROR ON 'OUTPUT RQUEST'
      00320  0402 00 0 00517         SUB     =3            CHECK FOR ERROR CODE 3
      00321  0100 00 0 00040         TZE     ONWARD        ALL RIGHT--THIS IS GROOOOVY
      00322  0020 00 0 00306         TRA     ERR           WELL, YOU CANT WILL 'EM ALL

      00323  0074 00 4 00506  NUTTIN TSX     WRFLX,4       SAY 'NOTHING DONE'
      00324  0 00002 0 00451         PZE     NUTMES,,2
      00325  0020 00 0 00311         TRA     CLOSAL        AND EXIT

                                             HERE IF OLD 'OUTPUT RQUEST' NOT  MODE
                                             ZERO OR MODE 1


      00326  0500 00 0 00411  ERROR  CLA     A+1           GET ERROR CODE
      00327 -0765 00 0 00006         LGR     6             PUT IN MQ
      00330  0767 00 0 00003         ALS     3             SPREAD OCTAL IT
      00331 -0763 00 0 00003         LGL     3
      00332  0767 00 0 00003         ALS     3
      00333 -0763 00 0 00003         LGL     3
      00334 -0501 00 0 00542         ORA     =O605757000000 AND PUT IN SOME NULLS
      00335  0602 00 0 00442         SLW     MODE
      00336  0074 00 4 00512         TSX     WRFLXA,4      WRITE THE DELETE MESSAGE
      00337  0 00013 0 00436         PZE     DELMES,,11
      00340  0074 00 4 00477         TSX     RDFLXA,4      READ THE RESPONSE
      00341  0 00006 0 00410         PZE     A,,6
      00342 -0500 00 0 00410         CAL     A             CHECK FOR 'YES'
      00343  0322 00 0 00472         ERA     YES           ..
      00344 -0100 00 0 00323         TNZ     NUTTIN
      00345  0074 00 4 00474         TSX     CHFILE,4      PUT THE FILE IN MODE ZERO FOR DELETION
      00346  3 00000 0 00464         PTH     OUTPUT
      00347  3 00000 0 00465         PTH     RQUEST
      00350  3 00000 0 00514         PTH     =0
1       RQUEST COMMAND FOR CTSS                                                                  PAGE 8

      00351  3 00000 0 00534         PTH     =-0
      00352  3 00000 0 00534         PTH     =-0
      00353  0020 00 0 00035         TRA     DLETIT        GO KILL THE OLD COPY

                                             * * * * * * * * * * * * * * *
                                             *  STORAGE AND CONSTANTS    *
                                             * * * * * * * * * * * * * * *


      00354  000000000000     OPTRQ  BCI     4,000000 IS NOT A REQUEST
      00355  603162604546
      00356  636021605125
      00357  506425626360
      00360  000000000000     OUT    BCI     6,000000
      00361  606060606060
      00362  606060606060
      00363  606060606060
      00364  606060606060
      00365  606060606060
      00366  606060606060            BCI     6,
      00367  606060606060
      00370  606060606060
      00371  606060606060
      00372  606060606060
      00373  606060606060
      00374                   PROBN  BSS     1
      00375                   PROGN  BSS     1
      00376  452144256260     NONE   BCI     2,NAMES NOT FO
      00377  454663602646
      00400 -244524355557            OCT     644524355557  'UND' C.R.
      00401                   N1     BSS     1
      00402                   N2     BSS     1
      00403  602346644563            BCI     1, COUNT
      00404 -201360575757            OCT     601360575757  ' = '
      00405                   COUNT  BSS     1
      00406  643326332433     NOFLS  BCI     2,U.F.D. EMPTY
      00407  602544476370
      00410                   A      BSS     2


                                             OPTION TABLE FOR RQUESTS


      00412  604751314563     OPTION BCI     1, PRINT
      00413  244764452330            BCI     1,DPUNCH
      00414  074764452330            BCI     1,7PUNCH
      00415  224764452330            BCI     1,BPUNCH
      00416  242543256325            BCI     1,DELETE
      00417  475145242543            BCI     1,PRNDEL
      00420  244764242543            BCI     1,DPUDEL
      00421  224764242543            BCI     1,BPUDEL
      00422  074764242543            BCI     1,7PUDEL
      00423  626247514563            BCI     1,SSPRNT
      00424  626247512443            BCI     1,SSPRDL
      00425  606047434663            BCI     1,  PLOT
      00426  474346242543            BCI     1,PLODEL
1       RQUEST COMMAND FOR CTSS                                                                  PAGE 9

                       00015  OPTSIZ SYN     *-OPTION      SIZE OF OPTION TABLE
      00427  263143256014     LNKMES BCI     7,FILE 'OUTPUT RQUEST' LINKED MODE
      00430  466463476463
      00431  605150642562
      00432  631460433145
      00433  422524604446
      00434  242560606060
      00435  606060606060
      00436  464324602631     DELMES BCI     4,OLD FILE 'OUTPUT RQUEST'
      00437  432560144664
      00440  634764636051
      00441  506425626314
      00442  000000000000     MODE   BCI     7,000000 MODE. DO YOU WANT TO DELETE IT--
      00443  604446242533
      00444  602446607046
      00445  646066214563
      00446  606346602425
      00447  432563256031
      00450  634040606060
      00451  454663303145     NUTMES BCI     2,NOTHING DONE
      00452  276024464525
      00453                   UFDSIZ BSS     1
      00454  0 00000 0 00660  BUFSIZ PZE     432
      00455  0 00000 1 00000  NAME1  PZE     **,1
      00456  0 00000 1 00000  NAME2  PZE     **,1
      00457  516060606060     R      BCI     1,R
      00460  666060606060     W      BCI     1,W
      00461  643326332433     UFD    BCI     1,U.F.D.
      00462  742631432534     FILE   BCI     1,(FILE)
      00463                   N      BSS     1
      00464  466463476463     OUTPUT BCI     1,OUTPUT
      00465  515064256263     RQUEST BCI     1,RQUEST
      00466  0 00000 0 00000  STFLAG PZE     0
      00467 -377777777777     FENCE  OCT     777777777777
      00470                   MASK1  BSS     1
      00471                   MASK2  BSS     1
      00472 -302562556060     YES    OCT     702562556060


                                             * * * * *
                                             * TIA'S *
                                             * * * * *

      00473  0101 00 0 00551  WHOAMI TIA     =HWHOAMI
      00474  0101 00 0 00524  CHFILE TIA     =HCHFILE
      00475  0101 00 0 00527  DELFIL TIA     =HDELFIL
      00476  0101 00 0 00531  FSTATE TIA     =HFSTATE
      00477  0101 00 0 00541  RDFLXA TIA     =HRDFLXA
      00500  0101 00 0 00526  CLOSE  TIA     =HCLOSE
      00501  0101 00 0 00523  BUFFER TIA     =HBUFFER
      00502  0101 00 0 00536  OPEN   TIA     =HOPEN
      00503  0101 00 0 00540  RDFILE TIA     =HRDFILE
      00504  0101 00 0 00554  WRWAIT TIA     =HWRWAIT
      00505  0101 00 0 00532  GETCOM TIA     =HGETCOM
      00506  0101 00 0 00553  WRFLX  TIA     =HWRFLX
      00507  0101 00 0 00525  CHNCOM TIA     =HCHNCOM
1       RQUEST COMMAND FOR CTSS                                                                  PAGE 10

      00510  0101 00 0 00533  GETMEM TIA     =HGETMEM
      00511  0101 00 0 00550  SETMEM TIA     =HSETMEM
      00512  0101 00 0 00552  WRFLXA TIA     =HWRFLXA
      00513  0101 00 0 00530  FERRTN TIA     =HFERRTN
                                     END

        LITERALS
      00514  000000000000
      00515  000000000001
      00516  000000000002
      00517  000000000003
      00520  000000000004
      00521  000000000012
      00522  000000000060
      00523  226426262551
      00524  233026314325
      00525  233045234644
      00526  234346622560
      00527  242543263143
      00530  262551516345
      00531  266263216325
      00532  272563234644
      00533  272563442544
      00534  400000000000
      00535  452567234644
      00536  464725456060
      00537  475145632551
      00540  512426314325
      00541  512426436721
      00542  605757000000
      00543  606060000000
      00544  606060214343
      00545  606060606000
      00546  606060606054
      00547  606060606060
      00550  622563442544
      00551  663046214431
      00552  665126436721
      00553  665126436760
      00554  665166213163
1       RQUEST COMMAND FOR CTSS                                                                  PAGE 1
                        POST PROCESSOR ASSEMBLY DATA

        555 IS THE FIRST LOCATION NOT USED BY THIS PROGRAM

0REFERENCES TO DEFINED SYMBOLS
        410      A    25,   30,   43,   44,  273,  274,  326,  341,  342
        463      N    27,  101,  210,  317
        457      R    66
        460      W   106
        245     BA   252
        252     BB   247
        236     BC   242
        401     N1   133,  147,  161,  257
        402     N2   145,  152,  165
        306    ERR     2,  322
        360    OUT    10,  173,  175,  177,  206,  216
        461    UFD    41,   67,   74,  103
        472    YES   343
        135   ARG2   124
        116   BUFF    53
        462   FILE    42,   70,   75,  104
         20   FINI   275,  301,  302,  313
        442   MODE   335
        376   NONE   231
        502   OPEN    65,  105
         77   UFDS    51,   55
        221  ADDEM   201
         12  CKOPT    15
        500  CLOSE   102,  265,  311
        405  COUNT   125,  221,  223,  226,  233,  235,  241,  243,  255
        303  EMPTY    47
        326  ERROR    34
        467  FENCE   130,  136,  307
        314  LNKED    32
        470  MASK1   150,  162
        471  MASK2   153,  166
        455  NAME1    56,  155,  160,  170
        456  NAME2    60,  156,  164,  176
        406  NOFLS   304
        354  OPTRQ     7,   17
        374  PROBN     4
        375  PROGN
        506  WRFLX    16,  230,  256,  303,  314,  323
        202  WRITE   264
        127 ARGSET   120,  122
        501 BUFFER   113
        454 BUFSIZ    54
        474 CHFILE   345
        507 CHNCOM    20
        262 CKFINI   132
        260 CKFLAG   232
        224 CKLOOP    64,  157,  163,  167
        311 CLOSAL   305,  316,  325
        475 DELFIL    35,  276
        436 DELMES   337
         35 DLETIT   353
1       RQUEST COMMAND FOR CTSS                                                                  PAGE 2
                        POST PROCESSOR ASSEMBLY DATA

        513 FERRTN     1
        265 FINISH   213,  262
        476 FSTATE    22,   40,  270
        505 GETCOM     5,  126,  134
        510 GETMEM    52
        427 LNKMES   315
          0 NAMASK   146,  151
        317 NOFILE    26
        451 NUTMES   324
        323 NUTTIN   344
        120 NXTARG   261
         40 ONWARD    31,  321
         22 OPTFND    14
        412 OPTION    12,  427
         15 OPTSIZ    11,   12,  427
        464 OUTPUT    23,   36,  107,  114,  203,  266,  271,  277,  346
        233 PRSOME   227
        503 RDFILE    73
        477 RDFLXA   340
        465 RQUEST    24,   37,  110,  115,  204,  267,  272,  300,  347
        155 SEARCH   225
        511 SETMEM    62
        466 STFLAG   143,  260
        453 UFDSIZ    46,   61,   63
        473 WHOAMI     3
        512 WRFLXA   336
        504 WRWAIT   202

0 NO ERROR IN ABOVE ASSEMBLY.


PCHMFD   BCD 09/20/68 0220.5    3838         00000
1     MAD PROGRAM LISTING ... ... ...                 FILE     MFD   MAD            02/15/68    1603.8
-
                      PROGRAM TO PUNCH OUT A DECK OF CARDS REPRESENTING                                LM00001
                      THE CONTENTS OF THE MASTER FILE DIRECTORY.  THIS                                 LM00002
                      PROGRAM IS INTENDED FOR USE WITH THE MFD SORTING                                 LM00003
                      PROGRAM RUN AS A NON-STANDARD FMS JOB.                                           LM00004
                           D.R. WIDRIG  OCTOBER 1966                                                   LM00005
                                                                                                       LM00006
                      LOADING INSTRUCTIONS                                                             LM00007
                           MAD MFD (LIST)                                                              LM00008
                           FAP GETBUF (LIST)                                                           LM00009
                           LAED NCLOAD MFD GETBUF (SQZ) (SRCH) XLIBE                                   LM00010
                           SAVE PCHMFD                                                                 LM00011
                           R MFD                                                                       LM00012
                           RQUEST DPUNCH MFD PUNCH                                                     LM00013
                                                                                                       LM00014
                  NORMAL MODE IS INTEGER                                                          *001 LM00015
                  DIMENSION BUFF1(0),BUFF2(0),BUFF3(0),BUFF4(0),BUFF5(0)                          *002 LM00016
                  DIMENSION LINE(14),UFD(7),V(2)                                                  *003 LM00017
                                                                                                       LM00018
                  VECTOR VALUES MZE = -0                                                          *004 LM00019
                  VECTOR VALUES COUNT = 0                                                         *005 LM00020
                  VECTOR VALUES MFD = $M.F.D.$                                                    *006 LM00021
                  VECTOR VALUES FILE = $(FILE)$                                                   *007 LM00022
                  VECTOR VALUES PUNCH = $ PUNCH$                                                  *008 LM00023
                  VECTOR VALUES LINE(1) ... LINE(14) = $      $                                   *009 LM00024
                                                                                                       LM00025
                      GET BUFFER AREAS                                                                 LM00026
                                                                                                       LM00027
                  GETBUF.(BUFF1,432)                                                              *010 LM00028
                  GETBUF.(BUFF2,432)                                                              *011 LM00029
                  GETBUF.(BUFF3,432)                                                              *012 LM00030
                  GETBUF.(BUFF4,432)                                                              *013 LM00031
                  GETBUF.(BUFF5,432)                                                              *014 LM00032
                                                                                                       LM00033
                      PREPARE MFD FOR READING AND OUTPUT FILE FOR WRITING                              LM00034
                                                                                                       LM00035
                  ATTNAM.(V(2)...2)                                                               *015 LM00036
                  ATTACH.(MFD,FILE)                                                               *016 LM00037
                  BFOPEN.($R$,MFD,FILE,BUFF1(BUFF1+432),BUFF2(BUFF2+432),                         *017 LM00038
                1      MZE,ERR1)                                                                  *017 LM00039
                  ATTACH.(V(2),V(1))                                                              *018 LM00040
                                                                                                       LM00041
                  BFOPEN.($W$,MFD,PUNCH,BUFF3(BUFF3+432),BUFF4(BUFF4+432),                        *019 LM00042
                1      BUFF5(BUFF5+432),ERR1)                                                     *019 LM00043
                  BFREAD.(MFD,FILE,UFD(3)...3,REOF,EOFCT,ERR1)                                    *020 LM00044
                                                                                                       LM00045
                      SELECT AN ENTRY FROM THE MFD AND CHECK IT                                        LM00046
                                                                                                       LM00047
      READM       BFREAD.(MFD,FILE,UFD(7)...7,REOF,EOFCT,ERR1)                                    *021 LM00048
                  WHENEVER ((UFD(7).V.UFD(6)) .E. 0), TRANSFER TO READM                           *022 LM00049
                                                                                                       LM00050
                      LEGITIMATE ENTRY, ADD OUTPUT LINE                                                LM00051
                                                                                                       LM00052
                  COUNT = COUNT + 1                                                               *023 LM00053
                  LINE(14) = LJUST.(UFD(7))                                                       *024 LM00054
                  LINE(13) = UFD(6)                                                               *025 LM00055
                  BFWRIT.(MFD,PUNCH,LINE(14)...14,ERR1)                                           *026 LM00056
                  TRANSFER TO READM                                                               *027 LM00057
                                                                                                       LM00058
                      EOF ON MFD, PRINT OUT COUNT AND LEAVE                                            LM00059
                                                                                                       LM00060
      REOF        PRMESS.(DEFBC.(COUNT))                                                          *028 LM00061
                  BFCLOS.($ALL$,MZE,ERR1)                                                         *029 LM00062
                  CHNCOM.(0)                                                                      *030 LM00063
                                                                                                       LM00064
                      SIMPLE-MINDED ERROR HANDLING                                                     LM00065
                                                                                                       LM00066
      ERR1        NCOM.($PRNTER$,61K)                                                             *031 LM00067
                                                                                                       LM00068
                  END OF PROGRAM                                                                  *032 LM00069
1MAD PROGRAM,TYPE NOV 1963      (ALL NUMBERS ARE OCTAL)
0TOTAL LOCATIONS   00272 TRANSFER VECTOR LENGTH  00016 PROGRAM BEGINS    00104
0VARIABLE STORAGE (A=ARRAY,C=COMMON,E=ERASABLE,DIGIT=MODE)
      BUFF1  00022 A 1        BUFF5  00026 A 1        FILE   00031 A 1        MZE    00052 A 1        REOF   00021   4
      BUFF2  00023 A 1        COUNT  00027 A 1        LINE   00050 A 1        PUNCH  00053 A 1        UFD    00063 A 1
      BUFF3  00024 A 1        EOFCT  00030   1        MFD    00051 A 1        READM  00020   4        V      00066 A 1
      BUFF4  00025 A 1        ERR1   00017   4
0FUNCTION DICTIONARY
      ATTACH 00000   1        ATTNAM 00001   1        BFCLOS 00002   1        BFOPEN 00003   1        BFREAD 00004   1
      BFWRIT 00005   1        CHNCOM 00006   1        DEFBC  00007   1        EXIT   00010   1        GETBUF 00011   1
      .SETUP 00012   1        LJUST  00013   1        NCOM   00014   1        PRMESS 00015   1
0ABSOLUTE CONSTANTS
 00075 +000000000061     00101 -075145632551     00077 +214343606060     00074 +000000000016     00067 +000000000000
 00073 +000000000007     00072 +000000000003     00103 -266060606060     00102 -116060606060     00071 +000000000002
 00076 +000000000660     00070 +000000000001     00100 +233000000000
0STATEMENT DICTIONARY
 00017 TXL -300266000263       00020 TXL -300223000214       00021 TXL -300255000250
0PROGRAM
                 N'R                                                                001  LM00015
                 D'N BUFF1(0),BUFF2(0),BUFF3(0),BUFF4(0),BUFF5(0)                   002  LM00016
                 D'N LINE(14),UFD(7),V(2)                                           003  LM00017
                 V'S MZE = -0                                                       004  LM00019
 00104 TSX +0 07400 4 00012    00052     -0 00000 0 00000
                 V'S COUNT = 0                                                      005  LM00020
 00027     +0 00000 0 00000
                 V'S MFD = $M.F.D.$                                                 006  LM00021
 00051     -0 43326 3 32433
                 V'S FILE = $(FILE)$                                                007  LM00022
 00031     -3 42631 4 32534
                 V'S PUNCH = $ PUNCH$                                               008  LM00023
 00053     -2 04764 4 52330
                 V'S LINE(1) ... LINE(14) = $      $                                009  LM00024
 00032     -2 06060 6 06060    00033     -2 06060 6 06060    00034     -2 06060 6 06060    00035     -2 06060 6 06060
 00036     -2 06060 6 06060    00037     -2 06060 6 06060    00040     -2 06060 6 06060    00041     -2 06060 6 06060
 00042     -2 06060 6 06060    00043     -2 06060 6 06060    00044     -2 06060 6 06060    00045     -2 06060 6 06060
 00046     -2 06060 6 06060    00047     -2 06060 6 06060
                 GETBUF.(BUFF1,432)                                                 010  LM00028
 00105 TSX +0 07400 4 00011    00106 TXH +3 00000 0 00022    00107 TXH +3 00000 0 00076
                 GETBUF.(BUFF2,432)                                                 011  LM00029
 00110 TSX +0 07400 4 00011    00111 TXH +3 00000 0 00023    00112 TXH +3 00000 0 00076
                 GETBUF.(BUFF3,432)                                                 012  LM00030
 00113 TSX +0 07400 4 00011    00114 TXH +3 00000 0 00024    00115 TXH +3 00000 0 00076
                 GETBUF.(BUFF4,432)                                                 013  LM00031
 00116 TSX +0 07400 4 00011    00117 TXH +3 00000 0 00025    00120 TXH +3 00000 0 00076
                 GETBUF.(BUFF5,432)                                                 014  LM00032
 00121 TSX +0 07400 4 00011    00122 TXH +3 00000 0 00026    00123 TXH +3 00000 0 00076
                 ATTNAM.(V(2)...2)                                                  015  LM00036
 00124 TSX +0 07400 4 00001    00125 TIX +2 00071 0 00064
                 ATTACH.(MFD,FILE)                                                  016  LM00037
 00126 TSX +0 07400 4 00000    00127 TXH +3 00000 0 00051    00130 TXH +3 00000 0 00031
                 BFOPEN.($R$,MFD,FILE,BUFF1(BUFF1+432),BUFF2(BUFF2+432),            017  LM00038
                1     MZE,ERR1)                                                     017  LM00039
 00131 CLA +0 50000 0 00023    00132 ADD +0 40000 0 00076    00133 SUB +0 40200 0 00134    00134 TXH +3 00000 0 00023
 00135 STA +0 62100 0 00150    00136 CLA +0 50000 0 00022    00137 ADD +0 40000 0 00076    00140 SUB +0 40200 0 00141
 00141 TXH +3 00000 0 00022    00142 STA +0 62100 0 00147    00143 TSX +0 07400 4 00003    00144 TXH +3 00000 0 00102
 00145 TXH +3 00000 0 00051    00146 TXH +3 00000 0 00031    00147 TXH +3 00000 0 00000    00150 TXH +3 00000 0 00000
 00151 TXH +3 00000 0 00052    00152 TXH +3 00000 0 00017
                 ATTACH.(V(2),V(1))                                                 018  LM00040
 00153 TSX +0 07400 4 00000    00154 TXH +3 00000 0 00064    00155 TXH +3 00000 0 00065
                 BFOPEN.($W$,MFD,PUNCH,BUFF3(BUFF3+432),BUFF4(BUFF4+432),           019  LM00042
                1     BUFF5(BUFF5+432),ERR1)                                        019  LM00043
 00156 CLA +0 50000 0 00026    00157 ADD +0 40000 0 00076    00160 SUB +0 40200 0 00161    00161 TXH +3 00000 0 00026
 00162 STA +0 62100 0 00203    00163 CLA +0 50000 0 00025    00164 ADD +0 40000 0 00076    00165 SUB +0 40200 0 00166
 00166 TXH +3 00000 0 00025    00167 STA +0 62100 0 00202    00170 CLA +0 50000 0 00024    00171 ADD +0 40000 0 00076
 00172 SUB +0 40200 0 00173    00173 TXH +3 00000 0 00024    00174 STA +0 62100 0 00201    00175 TSX +0 07400 4 00003
 00176 TXH +3 00000 0 00103    00177 TXH +3 00000 0 00051    00200 TXH +3 00000 0 00053    00201 TXH +3 00000 0 00000
 00202 TXH +3 00000 0 00000    00203 TXH +3 00000 0 00000    00204 TXH +3 00000 0 00017
                 BFREAD.(MFD,FILE,UFD(3)...3,REOF,EOFCT,ERR1)                       020  LM00044
 00205 TSX +0 07400 4 00004    00206 TXH +3 00000 0 00051    00207 TXH +3 00000 0 00031    00210 TIX +2 00072 0 00060
 00211 TXH +3 00000 0 00021    00212 TXH +3 00000 0 00030    00213 TXH +3 00000 0 00017
      READM      BFREAD.(MFD,FILE,UFD(7)...7,REOF,EOFCT,ERR1)                       021  LM00048
 00214 TSX +0 07400 4 00004    00215 TXH +3 00000 0 00051    00216 TXH +3 00000 0 00031    00217 TIX +2 00073 0 00054
 00220 TXH +3 00000 0 00021    00221 TXH +3 00000 0 00030    00222 TXH +3 00000 0 00017
                 W'R ((UFD(7).V.UFD(6)) .E. 0), T'O READM                           022  LM00049
 00223 CAL -0 50000 0 00054    00224 ORA -0 50100 0 00055    00225 SLW +0 60200 0 00267    00226 CLA +0 50000 0 00267
 00227 SUB +0 40200 0 00067    00230 TNZ -0 10000 0 00232    00231 TRA +0 02000 0 00020
                 COUNT = COUNT + 1                                                  023  LM00053
 00232 CLA +0 50000 0 00027    00233 ADD +0 40000 0 00070    00234 STO +0 60100 0 00027
                 LINE(14) = LJUST.(UFD(7))                                          024  LM00054
 00235 TSX +0 07400 4 00013    00236 TXH +3 00000 0 00054    00237 STO +0 60100 0 00032
                 LINE(13) = UFD(6)                                                  025  LM00055
 00240 CLA +0 50000 0 00055    00241 STO +0 60100 0 00033
                 BFWRIT.(MFD,PUNCH,LINE(14)...14,ERR1)                              026  LM00056
 00242 TSX +0 07400 4 00005    00243 TXH +3 00000 0 00051    00244 TXH +3 00000 0 00053    00245 TIX +2 00074 0 00032
 00246 TXH +3 00000 0 00017
                 T'O READM                                                          027  LM00057
 00247 TRA +0 02000 0 00020
      REOF       PRMESS.(DEFBC.(COUNT))                                             028  LM00061
 00250 TSX +0 07400 4 00007    00251 TXH +3 00000 0 00027    00252 STO +0 60100 0 00267    00253 TSX +0 07400 4 00015
 00254 TXH +3 00000 0 00267
                 BFCLOS.($ALL$,MZE,ERR1)                                            029  LM00062
 00255 TSX +0 07400 4 00002    00256 TXH +3 00000 0 00077    00257 TXH +3 00000 0 00052    00260 TXH +3 00000 0 00017
                 CHNCOM.(0)                                                         030  LM00063
 00261 TSX +0 07400 4 00006    00262 TXH +3 00000 0 00067
      ERR1       NCOM.($PRNTER$,61K)                                                031  LM00067
 00263 TSX +0 07400 4 00014    00264 TXH +3 00000 0 00101    00265 TXH +3 00000 0 00075
                 E'M                                                                032  LM00069
 00266 TSX +0 07400 4 00010
1            ROUTINE TO GET A BUFFER AREA BY EXPANDING MEMORY BOUND                              PAGE 1
                           D.R. WIDRIG  JUNE 1966

                       00004         ENTRY   GETBUF        GET A BUFFER

                                     EXTERN  GETMEM,SETMEM

                                             CALLING SEQUENCE IS..  GETBUF.(BUFF,N)
                                             UPON RETURN, THE CALLER MAY USE THE
                                             AREA BY STATEMENTS OF THE FORM..  X = BUFF(BUFF+I)
                                             WHERE THE I'TH ELEMENT IS INTENDED

        TRANSFER VECTOR
      00000  272563442544     GETMEM
      00001  622563442544     SETMEM

            LINKAGE DIRECTOR
      00002  000000000000
      00003  272563226426

      00004  0636 00 4 00024  GETBUF SCA     X4,4          SAVE LINKAGE
      00005  0634 00 1 00025         SXA     X1,1          AND IR1
      00006  0535 00 1 00024         LAC     X4,1          SET IR1 TO IR4 (THE CALLER)

      00007  0074 00 4 00000         TSX     GETMEM,4      GET CURRENT MEMORY BOUND
      00010  0601 00 0 00027         STO     OLDMEM        SAVE OLD MEMORY BOUND
      00011  0400 60 1 00002         ADD*    2,1           ALLOW FOR USER'S DEMAND
      00012  0734 00 4 00000         PAX     0,4           SAVE COMPLEMENT OF THIS VALUE
      00013 -0636 00 4 00020         SCD     TXI,4         ..
      00014  0400 00 0 00030         ADD     =1            ALLOW FOR BUFF(0)
      00015  0074 00 4 00001         TSX     SETMEM,4      RAISE THE ROOF

      00016 -0500 00 1 00001         CAL     1,1           GET BASE POINTER
      00017  0734 00 4 00000         PAX     0,4           ..
      00020  1 00000 4 00021  TXI    TXI     *+1,4,**      DECREMENT BY AMOUNT OF STORAGE
      00021  0754 00 4 00000         PXA     0,4           SET THIS VALUE IN USER'S PROGRAM
      00022  0602 60 1 00001         SLW*    1,1           ..
      00023  0500 00 0 00027         CLA     OLDMEM        RETURN OLD MEMORY BOUND

      00024 -0774 00 4 00000  X4     AXC     **,4          RESTORE LINKAGE
      00025  0774 00 1 00000  X1     AXT     **,1          AND IR1
      00026  0020 00 4 00003         TRA     3,4           RETURN

      00027                   OLDMEM BSS     1             STORAGE FOR OLD MEMORY BOUND

                                     END

        LITERALS
      00030  000000000001
1            ROUTINE TO GET A BUFFER AREA BY EXPANDING MEMORY BOUND                              PAGE 1
                        POST PROCESSOR ASSEMBLY DATA

         31 IS THE FIRST LOCATION NOT USED BY THIS PROGRAM

0REFERENCES TO DEFINED SYMBOLS
         25     X1     5
         24     X4     4,    6
         20    TXI    13
          4 GETBUF     0
          0 GETMEM     7
         27 OLDMEM    10,   23
          1 SETMEM    15

0 NO ERROR IN ABOVE ASSEMBLY.


PRELOD   BCD 09/20/68 0220.5   25101         00000
