1            SORT FAP                                                                            PAGE 1

                                     INSERT  MRC3A1
                              *      MRC3A1 -- MACROS BY MICHAEL R COMER -- LAST MODIFIED 2/10/67
                              *
                              *      TABLE OF CONTENTS
                              *
                              *      BUFFER
                              *      CHFILE
                              *      CLOSE
                              *      DELFIL
                              *      ENDMAC
                              *      ERRMAC
                              *      FRECOR
                              *      FSTATE
                              *      FWAIT
                              *      GETCOM
                              *      GNOCOM
                              *      MEMCOM
                              *      MEMLOC
                              *      MEMOCT
                              *      MEMORY
                              *      OPEN
                              *      PRCOMT
                              *      PTHIFF
                              *      RDFILE
                              *      RDWAIT
                              *      RESETX
                              *      SAVEX
                              *      TIMER
                              *      TRFILE
                              *      WRFILE
                              *      WRFLX
                              *      WRWAIT
                              *
                                     PCC
                                     PMC
                                     NOCRS
                              *
                              BUFFER MACRO   NAME1,NAME2,LOC
                                     TSX     $BUFFER,4
                                     PTH     NAME1
                                     PTH     NAME2
                                     PTH     LOC,,432
                              BUFFER END
                              *
                              CHFILE MACRO   OLDNM1,OLDNM2,NEWMOD,NEWNM1,NEWNM2,IOERR
                                     TSX     $CHFILE,4
                                     PTH     OLDNM1
                                     PTH     OLDNM2
                                     PTHIFF  NEWMOD,=-0
                                     PTHIFF  NEWNM1,=-0
                                     PTHIFF  NEWNM2,=-0
                                     ERRMAC  IOERR
                              CHFILE END
                              *
                              CLOSE  MACRO   NAME1,NAME2,IOERR
                                     TSX     $CLOSE,4
1            SORT FAP                                                                            PAGE 2

                                     PTH     NAME1
                                     PTH     NAME2
                                     ERRMAC  IOERR
                              CLOSE  END
                              *
                              DELFIL MACRO   NAME1,NAME2,IOERR
                                     TSX     $DELFIL,4
                                     PTH     NAME1
                                     PTH     NAME2
                                     ERRMAC  IOERR
                              DELFIL END
                              *
                              ENDMAC MACRO   LIST1,LIST2
                                     IRP     LIST1
                              LIST1  PZE
                                     IRP
                                     IRP     LIST2
                              LIST2  FRECOR  432
                                     IRP
                                     MEMCOM
                                     MEMOCT
                                     MEMLOC
                              IOERRR SXA     *+3,4
                                     TSX     $PRNTER,4
                                     TSX     $DORMNT,4
                                     AXT     **,4
                                     TRA     0,4
                              EOFCT  PZE
                              ERCODE PZE
                                     'END
                              ENDMAC END
                              *
                              ERRMAC MACRO   IOERR
                                     IFF     0,IOERR
                                     PTH     IOERR
                                     IFF     1,IOERR
                                     PTH     IOERRR
                                     PTH     ERCODE
                              ERRMAC END
                              *
                                     MACRO
                              LOC    FRECOR  SIZE
                                     IFF     ..BOOL,A,Z
                              ..TOPC SET     32767
                              LOC    SET     ..TOPC-SIZE+1
                              ..TOPC SET     LOC-1
                              ..BOOL SET     1
                              FRECOR END
                              *
                              FSTATE MACRO   NAME1,NAME2,RESULT,IOERR
                                     TSX     $FSTATE,4
                                     PTH     NAME1
                                     PTH     NAME2
                                     PTH     RESULT,,8
                                     ERRMAC  IOERR
                              FSTATE END
1            SORT FAP                                                                            PAGE 3

                              *
                              FWAIT  MACRO   NAME1,NAME2
                                     TSX     $FWAIT,4
                                     PTH     NAME1
                                     PTH     NAME2
                              FWAIT  END
                              *
                              GETCOM MACRO   N,COM,NOCOM
                                     TSX     $GETCOM,4
                                     PZE     N
                                     LAS     =O777777777777
                                     TRA     *+2
                                     TRA     NOCOM
                                     SLW     COM
                              GETCOM END
                              *
                              MEMCOM MACRO
                              MEMERR XCL
                                     TSX     ...OCT,4
                                     SLW     ..MESS+3
                                     LDQ     LWFSTG
                                     TSX     ...OCT,4
                                     SLW     ..MESS+8
                                     WRFLX   ..MESS,9
                                     TSX     $DORMNT,4
                                     TSX     $DEAD,4
                              ..MESS BCI     9,MEMORY BOUND =          , LOWEST FREE STORAGE =
                              MEMCOM END
                              *
                              MEMLOC MACRO
                              LWFSTG PZE     ..TOPC+1
                              MEMLOC END
                              *
                              MEMOCT MACRO
                              ...OCT RQL     18
                                     AXT     6,2
                                     ZAC
                                     LGL     3
                                     TNZ     *+2
                                     TIX     *-2,2,1
                                     ORA     =H     0
                                     TRA     *+3
                                     ALS     3
                                     LGL     3
                                     TIX     *-2,2,1
                                     TRA     1,4
                              MEMOCT END
                              *
                              MEMORY MACRO
                                     TSX     $GETMEM,4
                                     LAS     LWFSTG
                                     TRA     MEMERR
                                     TRA     MEMERR
                                     CAL     =O77777
                                     TSX     $SETMEM,4
                              MEMORY END
1            SORT FAP                                                                            PAGE 4

                              *
                              OPEN   MACRO   NAME1,NAME2,STATUS,IOERR
                                     TSX     $OPEN,4
                                     PTH     =H'STATUS
                                     PTH     NAME1
                                     PTH     NAME2
                                     PTH     =0
                                     PTH     =2
                                     ERRMAC  IOERR
                              OPEN   END
                              *
                              PRCOMT MACRO   N,MESS
                                     TSX     $.PCOMT,4
                                     PTH     N
                                     BCI     N,MESS
                              PRCOMT END
                              *
                              PTHIFF MACRO   ON,OFF
                                     IFF     0,ON
                                     PTH     ON
                                     IFF     1,ON
                                     PTH     OFF
                              PTHIFF END
                              *
                              RDFILE MACRO   NAME1,NAME2,RELLOC,PTHADD,BEGLOC,LEN,EOF,IOERR
                                     TSX     $RDFILE,4
                                     PTH     NAME1
                                     PTH     NAME2
                                     PTHIFF  RELLOC,=0
                              PTHADD PTH     BEGLOC,,LEN
                                     PTH     EOF
                                     PTH     EOFCT
                                     ERRMAC  IOERR
                              RDFILE END
                              *
                              RDWAIT MACRO   NAME1,NAME2,RELLOC,PTHADD,BEGLOC,LEN,EOF,IOERR
                                     TSX     $RDWAIT,4
                                     PTH     NAME1
                                     PTH     NAME2
                                     PTHIFF  RELLOC,=0
                              PTHADD PTH     BEGLOC,,LEN
                                     PTH     EOF
                                     PTH     EOFCT
                                     ERRMAC  IOERR
                              RDWAIT END
                              *
                              RESETX MACRO   X
                              X      AXT     **,1
                                     AXT     **,2
                                     AXT     **,3
                                     AXT     **,4
                                     AXT     **,5
                                     AXT     **,6
                                     AXT     **,7
                              RESETX END
                              *
1            SORT FAP                                                                            PAGE 5

                              SAVEX  MACRO   X
                                     SXA     X,1
                                     SXA     X+1,2
                                     SXA     X+2,3
                                     SXA     X+3,4
                                     SXA     X+4,5
                                     SXA     X+5,6
                                     SXA     X+6,7
                              SAVEX  END
                              *
                              TIMER  MACRO   MXTIME,..TIME
                                     ORGCRS
                                     TSX     $TIMER,4
                                     PTH     *+4
                                     PZE     *+4
                              ..TIME PZE
                                     TRA     *+32
                                     PZE     MXTIME*60
                                     TSX     $JOBTM,4
                                     PTH     ..TIME
                                     LDQ     ..TIME
                                     ZAC
                                     DVP     =6
                                     STQ     ..TIME
                                     TSX     $DERBC,4
                                     PZE     ..TIME
                                     LGR     6
                                     ALS     6
                                     ORA     =H00000.
                                     LGL     6
                                     SLW     ..TIME
                                     TSX     $BZEL,4
                                     PZE     ..TIME
                                     STO     ..TIME
                                     TSX     $WRFLXA,4
                                     PZE     ..TIME,,1
                                     PRCOMT  5,( SECONDS HAVE ELAPSED.)
                                     TSX     $TIMER,4
                                     PTH     *+3
                                     PZE     *-27
                                     TRA     $RSTRTN
                                     PZE     MXTIME*60
                                     NOCRS
                              TIMER  END
                              *
                              TRFILE MACRO   NAME1,NAME2,RELLOC,IOERR
                                     TSX     $TRFILE,4
                                     PTH     NAME1
                                     PTH     NAME2
                                     PTHIFF  RELLOC,=0
                                     ERRMAC  IOERR
                              TRFILE END
                              *
                              WRFILE MACRO   NAME1,NAME2,RELLOC,PTHADD,BEGLOC,LENGTH,IOERR,EOF
                                     TSX     $WRFILE,4
                                     PTH     NAME1
1            SORT FAP                                                                            PAGE 6

                                     PTH     NAME2
                                     PTHIFF  RELLOC,=0
                              PTHADD PTH     BEGLOC,,LENGTH
                                     PTHIFF  EOF,=-0
                                     PTH     EOFCT
                                     ERRMAC  IOERR
                              WRFILE END
                              *
                              WRFLX  MACRO   LOC,N,A
                                     TSX     $WRFLX'A',4
                                     PTH     LOC,,N
                              WRFLX  END
                              *
                              WRWAIT MACRO   NAME1,NAME2,RELLOC,PTHADD,BEGLOC,LENGTH,IOERR,EOF
                                     TSX     $WRWAIT,4
                                     PTH     NAME1
                                     PTH     NAME2
                                     PTHIFF  RELLOC,=0
                              PTHADD PTH     BEGLOC,,LENGTH
                                     PTHIFF  EOF,=-0
                                     PTH     EOFCT
                                     ERRMAC  IOERR
                              WRWAIT END

        TRANSFER VECTOR
      00000  272563442544     GETMEM
      00001  622563442544     SETMEM
      00002  272563234644     GETCOM
      00003  266263216325     FSTATE
      00004  464725456060     OPEN
      00005  512466213163     RDWAIT
      00006  234346622560     CLOSE
      00007  222324252360     BCDEC
      00010  663046214431     WHOAMI
      00011  272563263143     GETFIL
      00012  226426262551     BUFFER
      00013  264362516367     FLSRTX
      00014  264362516345     FLSRTN
      00015  442551272567     MERGEX
      00016  442551272545     MERGEN
      00017  665166213163     WRWAIT
      00020  242543263143     DELFIL
      00021  665126436721     WRFLXA
      00022  512426436760     RDFLX
      00023  233026314325     CHFILE
      00024  665126436760     WRFLX
      00025  233045234644     CHNCOM
      00026  475145632551     PRNTER
      00027  244651444563     DORMNT
      00030  242521246060     DEAD

                       20700  LENGTH EQU     432*20
      00031  0760 00 0 00016         LMTM
      00032                          MEMORY
      00032  0074 00 4 00000         TSX     $GETMEM,4                                                        .001
      00033 -0340 00 0 01220         LAS     LWFSTG                                                           .001
1            SORT FAP                                                                            PAGE 7

      00034  0020 00 0 01161         TRA     MEMERR                                                           .001
      00035  0020 00 0 01161         TRA     MEMERR                                                           .001
      00036 -0500 00 0 01242         CAL     =O77777                                                          .001
      00037  0074 00 4 00001         TSX     $SETMEM,4                                                        .001
      00040                          GETCOM  1,FILNAM,NOARG
      00040  0074 00 4 00002         TSX     $GETCOM,4                                                        .001
      00041  0 00000 0 00001         PZE     1                                                                .001
      00042 -0340 00 0 01255         LAS     =O777777777777                                                   .001
      00043  0020 00 0 00045         TRA     *+2                                                              .001
      00044  0020 00 0 00774         TRA     NOARG                                                            .001
      00045  0602 00 0 01017         SLW     FILNAM                                                           .001
      00046                          GETCOM  2,NAME1,ENDARG
      00046  0074 00 4 00002         TSX     $GETCOM,4                                                        .001
      00047  0 00000 0 00002         PZE     2                                                                .001
      00050 -0340 00 0 01255         LAS     =O777777777777                                                   .001
      00051  0020 00 0 00053         TRA     *+2                                                              .001
      00052  0020 00 0 00104         TRA     ENDARG                                                           .001
      00053  0602 00 0 01020         SLW     NAME1                                                            .001
      00054                          GETCOM  3,NAME2,ENDARG
      00054  0074 00 4 00002         TSX     $GETCOM,4                                                        .001
      00055  0 00000 0 00003         PZE     3                                                                .001
      00056 -0340 00 0 01255         LAS     =O777777777777                                                   .001
      00057  0020 00 0 00061         TRA     *+2                                                              .001
      00060  0020 00 0 00104         TRA     ENDARG                                                           .001
      00061  0602 00 0 01021         SLW     NAME2                                                            .001
      00062                          GETCOM  4,NAME3,ENDARG
      00062  0074 00 4 00002         TSX     $GETCOM,4                                                        .001
      00063  0 00000 0 00004         PZE     4                                                                .001
      00064 -0340 00 0 01255         LAS     =O777777777777                                                   .001
      00065  0020 00 0 00067         TRA     *+2                                                              .001
      00066  0020 00 0 00104         TRA     ENDARG                                                           .001
      00067  0602 00 0 01022         SLW     NAME3                                                            .001
      00070                          GETCOM  5,NAME4,ENDARG
      00070  0074 00 4 00002         TSX     $GETCOM,4                                                        .001
      00071  0 00000 0 00005         PZE     5                                                                .001
      00072 -0340 00 0 01255         LAS     =O777777777777                                                   .001
      00073  0020 00 0 00075         TRA     *+2                                                              .001
      00074  0020 00 0 00104         TRA     ENDARG                                                           .001
      00075  0602 00 0 01023         SLW     NAME4                                                            .001
      00076                          GETCOM  6,REV,ENDARG
      00076  0074 00 4 00002         TSX     $GETCOM,4                                                        .001
      00077  0 00000 0 00006         PZE     6                                                                .001
      00100 -0340 00 0 01255         LAS     =O777777777777                                                   .001
      00101  0020 00 0 00103         TRA     *+2                                                              .001
      00102  0020 00 0 00104         TRA     ENDARG                                                           .001
      00103  0602 00 0 01045         SLW     REV                                                              .001
      00104                   ENDARG FSTATE  FILNAM,SRTQST,FSTBUF,NOQST
      00104  0074 00 4 00003         TSX     $FSTATE,4                                                        .001
      00105  3 00000 0 01017         PTH     FILNAM                                                           .001
      00106  3 00000 0 01024         PTH     SRTQST                                                           .001
      00107  3 00010 0 01025         PTH     FSTBUF,,8                                                        .001
      00110                          ERRMAC  NOQST                                                            .001
                                     IFF     0,NOQST                                                          .002
      00110  3 00000 0 00776         PTH     NOQST                                                            .002
                                     IFF     1,NOQST                                                          .002
                                     PTH     IOERRR                                                           .002
1            SORT FAP                                                                            PAGE 8

      00111  3 00000 0 01227         PTH     ERCODE                                                           .002
      00112 -0500 00 0 01025         CAL     FSTBUF
      00113 -0340 00 0 01241         LAS     =1308
      00114  0020 00 0 00764         TRA     TOLONG
      00115  0020 00 0 00116         TRA     *+1
      00116  0734 00 4 00000         PAX     ,4
      00117 -0634 00 4 00137         SXD     AD1,4
      00120 -0500 00 0 01042         CAL     EQRQ
      00121  0402 00 0 01025         SUB     FSTBUF
      00122  0621 00 0 00137         STA     AD1
      00123                          OPEN    FILNAM,SRTQST,R
      00123  0074 00 4 00004         TSX     $OPEN,4                                                          .001
      00124  3 00000 0 01245         PTH     =HR                                                              .001
      00125  3 00000 0 01017         PTH     FILNAM                                                           .001
      00126  3 00000 0 01024         PTH     SRTQST                                                           .001
      00127  3 00000 0 01230         PTH     =0                                                               .001
      00130  3 00000 0 01232         PTH     =2                                                               .001
      00131                          ERRMAC                                                                   .001
                                     IFF     0,                                                               .002
                                     PTH                                                                      .002
                                     IFF     1,                                                               .002
      00131  3 00000 0 01221         PTH     IOERRR                                                           .002
      00132  3 00000 0 01227         PTH     ERCODE                                                           .002
      00133                          RDWAIT  FILNAM,SRTQST,=0,AD1
      00133  0074 00 4 00005         TSX     $RDWAIT,4                                                        .001
      00134  3 00000 0 01017         PTH     FILNAM                                                           .001
      00135  3 00000 0 01024         PTH     SRTQST                                                           .001
      00136                          PTHIFF  =0,=0                                                            .001
                                     IFF     0,=0                                                             .002
      00136  3 00000 0 01230         PTH     =0                                                               .002
                                     IFF     1,=0                                                             .002
                                     PTH     =0                                                               .002
      00137  3 00000 0 00000  AD1    PTH     ,,                                                               .001
      00140  3 00000 0 00000         PTH                                                                      .001
      00141  3 00000 0 01226         PTH     EOFCT                                                            .001
      00142                          ERRMAC                                                                   .001
                                     IFF     0,                                                               .002
                                     PTH                                                                      .002
                                     IFF     1,                                                               .002
      00142  3 00000 0 01221         PTH     IOERRR                                                           .002
      00143  3 00000 0 01227         PTH     ERCODE                                                           .002
      00144                          CLOSE   FILNAM,SRTQST
      00144  0074 00 4 00006         TSX     $CLOSE,4                                                         .001
      00145  3 00000 0 01017         PTH     FILNAM                                                           .001
      00146  3 00000 0 01024         PTH     SRTQST                                                           .001
      00147                          ERRMAC                                                                   .001
                                     IFF     0,                                                               .002
                                     PTH                                                                      .002
                                     IFF     1,                                                               .002
      00147  3 00000 0 01221         PTH     IOERRR                                                           .002
      00150  3 00000 0 01227         PTH     ERCODE                                                           .002
      00151  0774 00 1 00006         AXT     6,1
      00152  0534 00 3 01025         LXA     FSTBUF,3
      00153  0560 00 0 01251         LDQ     =H
      00154  0600 00 0 01043         STZ     FIRST
      00155 -0500 00 3 77112  LOP1   CAL     ENDR,3
1            SORT FAP                                                                            PAGE 9

      00156 -0340 00 0 01253         LAS     =O777777000000
      00157  0020 00 0 00246         TRA     SKIP1
      00160  0020 00 0 00246         TRA     SKIP1
      00161 -0130 00 0 00000         XCL
      00162  0774 00 2 00006         AXT     6,2
      00163  0602 00 1 77121  LOP4   SLW     QST+6,1
      00164 -0763 00 0 00006         LGL     6
      00165  0044 00 0 00000         PAI
      00166  0056 00  000060         RNT     60
      00167  0020 00 0 00201         TRA     DATA
      00170  0054 00  000017         RFT     17
      00171  0020 00 0 00201         TRA     DATA
      00172 -0520 00 0 01043         NZT     FIRST
      00173  0020 00 0 00216         TRA     CONTIN
      00174  0600 00 0 01043         STZ     FIRST
      00175 -0500 00 0 01251         CAL     =H
      00176 -2 00001 1 01000         TNX     ILLFRM,1,1
      00177  2 00001 2 00163         TIX     LOP4,2,1
      00200  0020 00 0 00217         TRA     ENDWRD
      00201 -0625 00 0 01043  DATA   STL     FIRST
      00202  0056 00  000073         RNT     73
      00203  0020 00 0 00216         TRA     CONTIN
      00204  0054 00  000004         RFT     4
      00205  0020 00 0 00216         TRA     CONTIN
      00206  3 00002 1 00762         TXH     INSUF,1,2
      00207 -0600 00 0 01067         STQ     SAVQ
      00210  0074 00 4 00007         TSX     $BCDEC,4
      00211  0 00000 0 77117         PZE     QST+4
      00212  0601 00 0 77117         STO     QST+4
      00213  0774 00 1 00661         AXT     433,1
      00214  0560 00 0 01067         LDQ     SAVQ
      00215  0020 00 0 00243         TRA     SKIPIN
      00216  2 00001 2 00163  CONTIN TIX     LOP4,2,1
      00217 -0130 00 0 00000  ENDWRD XCL
      00220  2 00001 3 00155         TIX     LOP1,3,1
      00221  0020 00 0 00760         TRA     INSUF1
      00222 -0500 00 3 77112  LOP2   CAL     ENDR,3
      00223 -0340 00 0 01253         LAS     =O777777000000
      00224  0020 00 0 00272         TRA     SKIP2
      00225  0020 00 0 00272         TRA     SKIP2
      00226  0774 00 2 00006  LOP3IN AXT     6,2
      00227 -0130 00 0 00000         XCL
      00230 -0754 00 0 00000  LOP3   ZAC
      00231 -0763 00 0 00003         LGL     3
      00232 -0100 00 0 00251         TNZ     SKIP3
      00233  0600 00 0 01066         STZ     BREAK2
      00234 -0520 00 0 01044         NZT     BREAK
      00235  0020 00 0 00240         TRA     NOBRK
      00236  0600 00 0 01044         STZ     BREAK
      00237 -2 00001 1 00764         TNX     TOLONG,1,1
      00240 -0500 00 1 00002  NOBRK  CAL     QST+439,1
      00241 -0763 00 0 00003         LGL     3
      00242  0602 00 1 00002         SLW     QST+439,1
      00243  2 00001 2 00230  SKIPIN TIX     LOP3,2,1
      00244  2 00001 3 00222         TIX     LOP2,3,1
      00245  0020 00 0 00275         TRA     ALL
1            SORT FAP                                                                            PAGE 10

      00246  0560 00 0 01251  SKIP1  LDQ     =H
      00247  2 00001 3 00155         TIX     LOP1,3,1
      00250  0020 00 0 00762         TRA     INSUF
      00251 -0763 00 0 00003  SKIP3  LGL     3
      00252  0600 00 0 01044         STZ     BREAK
      00253  0402 00 0 01237         SUB     =O57
      00254  0100 00 0 00263         TZE     BK
      00255  0402 00 0 01231         SUB     =1
      00256  0100 00 0 00263         TZE     BK
      00257 -0625 00 0 01065         STL     MFIRST
      00260 -0625 00 0 01066         STL     BREAK2
      00261  2 00001 1 00243         TIX     SKIPIN,1,1
      00262  0020 00 0 00764         TRA     TOLONG
      00263  0520 00 0 01066  BK     ZET     BREAK2
      00264  0020 00 0 00243         TRA     SKIPIN
      00265 -0500 00 0 01065         CAL     MFIRST
      00266 -0625 00 0 01065         STL     MFIRST
      00267  0100 00 0 00243         TZE     SKIPIN
      00270 -0625 00 0 01044         STL     BREAK
      00271  0020 00 0 00243         TRA     SKIPIN
      00272  0600 00 0 01044  SKIP2  STZ     BREAK
      00273 -2 00001 1 00764         TNX     TOLONG,1,1
      00274  0020 00 0 00244         TRA     SKIPIN+1
      00275  0756 00 1 00000  ALL    PCA     ,1
      00276  0361 00 0 01240         ACL     =434
      00277  0621 00 0 01035         STA     MSKDAT
      00300  0774 00 4 00004         AXT     4,4
      00301 -0500 00 4 01024  XARG   CAL     ENDNAM,4
      00302  0100 00 0 00312         TZE     XSKIP
      00303 -0340 00 0 01250         LAS     =H     0
      00304  0020 00 0 00311         TRA     XSTO
      00305  0020 00 0 00312         TRA     XSKIP
      00306 -0340 00 0 01247         LAS     =H    -0
      00307  0020 00 0 00311         TRA     XSTO
      00310  0020 00 0 00312         TRA     XSKIP
      00311  0602 00 4 77117  XSTO   SLW     QST+4,4
      00312  2 00001 4 00301  XSKIP  TIX     XARG,4,1
      00313 -0500 00 0 01045         CAL     REV
      00314  0100 00 0 00316         TZE     *+2
      00315  0602 00 0 77120         SLW     QST+5
      00316  0074 00 4 00010         TSX     $WHOAMI,4
      00317  0 00002 0 01040         PZE     WHO,,2
      00320                   LOOP1  FSTATE  MERGE,FILE1,FSTBUF,ERR1
      00320  0074 00 4 00003         TSX     $FSTATE,4                                                        .001
      00321  3 00000 0 01041         PTH     MERGE                                                            .001
      00322  3 00000 0 01036         PTH     FILE1                                                            .001
      00323  3 00010 0 01025         PTH     FSTBUF,,8                                                        .001
      00324                          ERRMAC  ERR1                                                             .001
                                     IFF     0,ERR1                                                           .002
      00324  3 00000 0 00332         PTH     ERR1                                                             .002
                                     IFF     1,ERR1                                                           .002
                                     PTH     IOERRR                                                           .002
      00325  3 00000 0 01227         PTH     ERCODE                                                           .002
      00326  0074 00 4 00011         TSX     $GETFIL,4
      00327  3 00000 0 01036         PTH     FILE1
      00330  0601 00 0 01036         STO     FILE1
1            SORT FAP                                                                            PAGE 11

      00331  0020 00 0 00320         TRA     LOOP1
      00332  0074 00 4 00011  ERR1   TSX     $GETFIL,4
      00333  3 00000 0 01036         PTH     FILE1
      00334  0601 00 0 01037         STO     FILE2
      00335                   LOOP2  FSTATE  MERGE,FILE2,FSTBUF,ERR2
      00335  0074 00 4 00003         TSX     $FSTATE,4                                                        .001
      00336  3 00000 0 01041         PTH     MERGE                                                            .001
      00337  3 00000 0 01037         PTH     FILE2                                                            .001
      00340  3 00010 0 01025         PTH     FSTBUF,,8                                                        .001
      00341                          ERRMAC  ERR2                                                             .001
                                     IFF     0,ERR2                                                           .002
      00341  3 00000 0 00347         PTH     ERR2                                                             .002
                                     IFF     1,ERR2                                                           .002
                                     PTH     IOERRR                                                           .002
      00342  3 00000 0 01227         PTH     ERCODE                                                           .002
      00343  0074 00 4 00011         TSX     $GETFIL,4
      00344  3 00000 0 01037         PTH     FILE2
      00345  0601 00 0 01037         STO     FILE2
      00346  0020 00 0 00335         TRA     LOOP2
      00347                   ERR2   OPEN    MERGE,FILE1,RW
      00347  0074 00 4 00004         TSX     $OPEN,4                                                          .001
      00350  3 00000 0 01246         PTH     =HRW                                                             .001
      00351  3 00000 0 01041         PTH     MERGE                                                            .001
      00352  3 00000 0 01036         PTH     FILE1                                                            .001
      00353  3 00000 0 01230         PTH     =0                                                               .001
      00354  3 00000 0 01232         PTH     =2                                                               .001
      00355                          ERRMAC                                                                   .001
                                     IFF     0,                                                               .002
                                     PTH                                                                      .002
                                     IFF     1,                                                               .002
      00355  3 00000 0 01221         PTH     IOERRR                                                           .002
      00356  3 00000 0 01227         PTH     ERCODE                                                           .002
      00357                          OPEN    MERGE,FILE2,RW
      00357  0074 00 4 00004         TSX     $OPEN,4                                                          .001
      00360  3 00000 0 01246         PTH     =HRW                                                             .001
      00361  3 00000 0 01041         PTH     MERGE                                                            .001
      00362  3 00000 0 01037         PTH     FILE2                                                            .001
      00363  3 00000 0 01230         PTH     =0                                                               .001
      00364  3 00000 0 01232         PTH     =2                                                               .001
      00365                          ERRMAC                                                                   .001
                                     IFF     0,                                                               .002
                                     PTH                                                                      .002
                                     IFF     1,                                                               .002
      00365  3 00000 0 01221         PTH     IOERRR                                                           .002
      00366  3 00000 0 01227         PTH     ERCODE                                                           .002
      00367                          BUFFER  MERGE,FILE1,BUFF1
      00367  0074 00 4 00012         TSX     $BUFFER,4                                                        .001
      00370  3 00000 0 01041         PTH     MERGE                                                            .001
      00371  3 00000 0 01036         PTH     FILE1                                                            .001
      00372  3 00660 0 73576         PTH     BUFF1,,432                                                       .001
      00373                          BUFFER  MERGE,FILE2,BUFF2
      00373  0074 00 4 00012         TSX     $BUFFER,4                                                        .001
      00374  3 00000 0 01041         PTH     MERGE                                                            .001
      00375  3 00000 0 01037         PTH     FILE2                                                            .001
      00376  3 00660 0 72716         PTH     BUFF2,,432                                                       .001
      00377  0500 00 0 77117         CLA     QST+4
1            SORT FAP                                                                            PAGE 12

      00400  0621 00 0 01060         STA     BLKLEN
      00401                          FSTATE  QST,QST+1,FSTBUF,NOFILE
      00401  0074 00 4 00003         TSX     $FSTATE,4                                                        .001
      00402  3 00000 0 77113         PTH     QST                                                              .001
      00403  3 00000 0 77114         PTH     QST+1                                                            .001
      00404  3 00010 0 01025         PTH     FSTBUF,,8                                                        .001
      00405                          ERRMAC  NOFILE                                                           .001
                                     IFF     0,NOFILE                                                         .002
      00405  3 00000 0 00766         PTH     NOFILE                                                           .002
                                     IFF     1,NOFILE                                                         .002
                                     PTH     IOERRR                                                           .002
      00406  3 00000 0 01227         PTH     ERCODE                                                           .002
      00407  0560 00 0 01025         LDQ     FSTBUF
      00410 -0754 00 0 00000         ZAC
      00411  0221 00 0 01060         DVP     BLKLEN
      00412 -0100 00 0 00772         TNZ     NOMULT
      00413                          OPEN    QST,QST+1,R
      00413  0074 00 4 00004         TSX     $OPEN,4                                                          .001
      00414  3 00000 0 01245         PTH     =HR                                                              .001
      00415  3 00000 0 77113         PTH     QST                                                              .001
      00416  3 00000 0 77114         PTH     QST+1                                                            .001
      00417  3 00000 0 01230         PTH     =0                                                               .001
      00420  3 00000 0 01232         PTH     =2                                                               .001
      00421                          ERRMAC                                                                   .001
                                     IFF     0,                                                               .002
                                     PTH                                                                      .002
                                     IFF     1,                                                               .002
      00421  3 00000 0 01221         PTH     IOERRR                                                           .002
      00422  3 00000 0 01227         PTH     ERCODE                                                           .002
      00423                          BUFFER  QST,QST+1,BUFF3
      00423  0074 00 4 00012         TSX     $BUFFER,4                                                        .001
      00424  3 00000 0 77113         PTH     QST                                                              .001
      00425  3 00000 0 77114         PTH     QST+1                                                            .001
      00426  3 00660 0 72036         PTH     BUFF3,,432                                                       .001
      00427 -0754 00 0 00000  CYCLE  ZAC
      00430  0600 00 0 01073         STZ     EOF2TS
      00431  0560 00 0 01061         LDQ     TOTLEN
      00432  0221 00 0 01060         DVP     BLKLEN
      00433  0040 00 0 00770         TLQ     BIGBLK
      00434  0200 00 0 01060         MPY     BLKLEN
      00435 -0600 00 0 01062         STQ     SRTLEN
      00436 -0600 00 0 01063         STQ     MRGLEN
      00437 -0600 00 0 01064         STQ     OUTLEN
      00440  0074 00 4 00005         TSX     $RDWAIT,4
      00441  3 00000 0 77113         PTH     QST
      00442  3 00000 0 77114         PTH     QST+1
      00443  3 00000 0 01230         PTH     =0
      00444  2 01063 0 51136         PTW     MRGBUF,,MRGLEN
      00445  3 00000 0 00655         PTH     EOF1
      00446  3 00000 0 01226         PTH     EOFCT
      00447                          ERRMAC
                                     IFF     0,                                                               .001
                                     PTH                                                                      .001
                                     IFF     1,                                                               .001
      00447  3 00000 0 01221         PTH     IOERRR                                                           .001
      00450  3 00000 0 01227         PTH     ERCODE                                                           .001
1            SORT FAP                                                                            PAGE 13

      00451 -0500 00 0 77120  EOF1R  CAL     QST+5
      00452 -0340 00 0 01243         LAS     =HEVERSE
      00453  0020 00 0 00460         TRA     FN
      00454  0020 00 0 00456         TRA     *+2
      00455  0020 00 0 00460         TRA     FN
      00456 -0774 00 4 00460         AXC     FN,4
      00457  0020 00 0 00013         TRA     $FLSRTX
      00460  0074 00 4 00014  FN     TSX     $FLSRTN,4
      00461  2 01063 0 51136         PTW     MRGBUF,,MRGLEN
      00462  0 00000 0 30236         PZE     SRTBUF
      00463  3 00000 0 01060         PTH     BLKLEN
      00464  2 01035 0 77121         PTW     QST+6,,MSKDAT
      00465  0500 00 0 01234         CLA     =O20
      00466  0621 00 0 01070         STA     FLAGS
      00467  0074 00 4 00005  IN     TSX     $RDWAIT,4
      00470  3 00000 0 01041         PTH     MERGE
      00471  3 00000 0 01036         PTH     FILE1
      00472  3 00000 0 01230         PTH     =0
      00473  2 01063 0 51136         PTW     MRGBUF,,MRGLEN
      00474  3 00000 0 00662         PTH     EOF2
      00475  3 00000 0 01226         PTH     EOFCT
      00476                          ERRMAC
                                     IFF     0,                                                               .001
                                     PTH                                                                      .001
                                     IFF     1,                                                               .001
      00476  3 00000 0 01221         PTH     IOERRR                                                           .001
      00477  3 00000 0 01227         PTH     ERCODE                                                           .001
      00500 -0500 00 0 77120  EOF2R  CAL     QST+5
      00501 -0340 00 0 01243         LAS     =HEVERSE
      00502  0020 00 0 00507         TRA     FN2
      00503  0020 00 0 00505         TRA     *+2
      00504  0020 00 0 00507         TRA     FN2
      00505 -0774 00 4 00507         AXC     FN2,4
      00506  0020 00 0 00015         TRA     $MERGEX
      00507  0074 00 4 00016  FN2    TSX     $MERGEN,4
      00510  3 00000 0 01070         PTH     FLAGS
      00511  2 01062 0 30236         PTW     SRTBUF,,SRTLEN
      00512  2 01063 0 51136         PTW     MRGBUF,,MRGLEN
      00513  2 01064 0 07336         PTW     OUTPUT,,OUTLEN
      00514  2 01035 0 77121         PTW     QST+6,,MSKDAT
      00515  3 00000 0 01060         PTH     BLKLEN
      00516  0621 00 0 01071         STA     MORTST
      00517  0622 00 0 00524         STD     INSRT4
      00520                          WRWAIT  MERGE,FILE2,=0,INSRT4,OUTPUT,**
      00520  0074 00 4 00017         TSX     $WRWAIT,4                                                        .001
      00521  3 00000 0 01041         PTH     MERGE                                                            .001
      00522  3 00000 0 01037         PTH     FILE2                                                            .001
      00523                          PTHIFF  =0,=0                                                            .001
                                     IFF     0,=0                                                             .002
      00523  3 00000 0 01230         PTH     =0                                                               .002
                                     IFF     1,=0                                                             .002
                                     PTH     =0                                                               .002
      00524  3 00000 0 07336  INSRT4 PTH     OUTPUT,,**                                                       .001
      00525                          PTHIFF  ,=-0                                                             .001
                                     IFF     0,                                                               .002
                                     PTH                                                                      .002
1            SORT FAP                                                                            PAGE 14

                                     IFF     1,                                                               .002
      00525  3 00000 0 01244         PTH     =-0                                                              .002
      00526  3 00000 0 01226         PTH     EOFCT                                                            .001
      00527                          ERRMAC                                                                   .001
                                     IFF     0,                                                               .002
                                     PTH                                                                      .002
                                     IFF     1,                                                               .002
      00527  3 00000 0 01221         PTH     IOERRR                                                           .002
      00530  3 00000 0 01227         PTH     ERCODE                                                           .002
      00531  0500 00 0 01071         CLA     MORTST
      00532  0760 00 0 00001         LBT
      00533  0020 00 0 00635         TRA     MORE1
      00534  0771 00 0 00001         ARS     1
      00535  0760 00 0 00001         LBT
      00536  0020 00 0 00643         TRA     MORE2
      00537 -0520 00 0 01073         NZT     EOF2TS
      00540  0020 00 0 00652         TRA     IN21
      00541  0520 00 0 01072         ZET     EOF1TS
      00542  0020 00 0 00670         TRA     END
      00543  0500 00 0 01036         CLA     FILE1
      00544  0560 00 0 01037         LDQ     FILE2
      00545 -0600 00 0 01036         STQ     FILE1
      00546  0601 00 0 01037         STO     FILE2
      00547                          CLOSE   MERGE,FILE2
      00547  0074 00 4 00006         TSX     $CLOSE,4                                                         .001
      00550  3 00000 0 01041         PTH     MERGE                                                            .001
      00551  3 00000 0 01037         PTH     FILE2                                                            .001
      00552                          ERRMAC                                                                   .001
                                     IFF     0,                                                               .002
                                     PTH                                                                      .002
                                     IFF     1,                                                               .002
      00552  3 00000 0 01221         PTH     IOERRR                                                           .002
      00553  3 00000 0 01227         PTH     ERCODE                                                           .002
      00554                          DELFIL  MERGE,FILE2
      00554  0074 00 4 00020         TSX     $DELFIL,4                                                        .001
      00555  3 00000 0 01041         PTH     MERGE                                                            .001
      00556  3 00000 0 01037         PTH     FILE2                                                            .001
      00557                          ERRMAC                                                                   .001
                                     IFF     0,                                                               .002
                                     PTH                                                                      .002
                                     IFF     1,                                                               .002
      00557  3 00000 0 01221         PTH     IOERRR                                                           .002
      00560  3 00000 0 01227         PTH     ERCODE                                                           .002
      00561                          OPEN    MERGE,FILE2,RW
      00561  0074 00 4 00004         TSX     $OPEN,4                                                          .001
      00562  3 00000 0 01246         PTH     =HRW                                                             .001
      00563  3 00000 0 01041         PTH     MERGE                                                            .001
      00564  3 00000 0 01037         PTH     FILE2                                                            .001
      00565  3 00000 0 01230         PTH     =0                                                               .001
      00566  3 00000 0 01232         PTH     =2                                                               .001
      00567                          ERRMAC                                                                   .001
                                     IFF     0,                                                               .002
                                     PTH                                                                      .002
                                     IFF     1,                                                               .002
      00567  3 00000 0 01221         PTH     IOERRR                                                           .002
      00570  3 00000 0 01227         PTH     ERCODE                                                           .002
1            SORT FAP                                                                            PAGE 15

      00571                          CLOSE   MERGE,FILE1
      00571  0074 00 4 00006         TSX     $CLOSE,4                                                         .001
      00572  3 00000 0 01041         PTH     MERGE                                                            .001
      00573  3 00000 0 01036         PTH     FILE1                                                            .001
      00574                          ERRMAC                                                                   .001
                                     IFF     0,                                                               .002
                                     PTH                                                                      .002
                                     IFF     1,                                                               .002
      00574  3 00000 0 01221         PTH     IOERRR                                                           .002
      00575  3 00000 0 01227         PTH     ERCODE                                                           .002
      00576                          OPEN    MERGE,FILE1,RW
      00576  0074 00 4 00004         TSX     $OPEN,4                                                          .001
      00577  3 00000 0 01246         PTH     =HRW                                                             .001
      00600  3 00000 0 01041         PTH     MERGE                                                            .001
      00601  3 00000 0 01036         PTH     FILE1                                                            .001
      00602  3 00000 0 01230         PTH     =0                                                               .001
      00603  3 00000 0 01232         PTH     =2                                                               .001
      00604                          ERRMAC                                                                   .001
                                     IFF     0,                                                               .002
                                     PTH                                                                      .002
                                     IFF     1,                                                               .002
      00604  3 00000 0 01221         PTH     IOERRR                                                           .002
      00605  3 00000 0 01227         PTH     ERCODE                                                           .002
      00606 -0500 00 0 01036         CAL     FILE1
      00607 -0340 00 0 01037         LAS     FILE2
      00610  0020 00 0 00623         TRA     INBUFF
      00611  0761 00 0 00000         NOP
      00612                          BUFFER  MERGE,FILE2,BUFF2
      00612  0074 00 4 00012         TSX     $BUFFER,4                                                        .001
      00613  3 00000 0 01041         PTH     MERGE                                                            .001
      00614  3 00000 0 01037         PTH     FILE2                                                            .001
      00615  3 00660 0 72716         PTH     BUFF2,,432                                                       .001
      00616                          BUFFER  MERGE,FILE1,BUFF1
      00616  0074 00 4 00012         TSX     $BUFFER,4                                                        .001
      00617  3 00000 0 01041         PTH     MERGE                                                            .001
      00620  3 00000 0 01036         PTH     FILE1                                                            .001
      00621  3 00660 0 73576         PTH     BUFF1,,432                                                       .001
      00622  0020 00 0 00427         TRA     CYCLE
      00623                   INBUFF BUFFER  MERGE,FILE2,BUFF1
      00623  0074 00 4 00012         TSX     $BUFFER,4                                                        .001
      00624  3 00000 0 01041         PTH     MERGE                                                            .001
      00625  3 00000 0 01037         PTH     FILE2                                                            .001
      00626  3 00660 0 73576         PTH     BUFF1,,432                                                       .001
      00627                          BUFFER  MERGE,FILE1,BUFF2
      00627  0074 00 4 00012         TSX     $BUFFER,4                                                        .001
      00630  3 00000 0 01041         PTH     MERGE                                                            .001
      00631  3 00000 0 01036         PTH     FILE1                                                            .001
      00632  3 00660 0 72716         PTH     BUFF2,,432                                                       .001
      00633  0020 00 0 00427         TRA     CYCLE
      00634  2 00001 4 00301         TIX     XARG,4,1
      00635  0771 00 0 00001  MORE1  ARS     1
      00636  0760 00 0 00001         LBT
      00637  0020 00 0 00643         TRA     MORE2
      00640 -0520 00 0 01073         NZT     EOF2TS
      00641  0020 00 0 00652         TRA     IN21
      00642  0020 00 0 00645         TRA     F2R3
1            SORT FAP                                                                            PAGE 16

      00643 -0520 00 0 01073  MORE2  NZT     EOF2TS
      00644  0020 00 0 00650         TRA     F2R23
      00645  0500 00 0 01233  F2R3   CLA     =O3
      00646  0621 00 0 01070  X1     STA     FLAGS
      00647  0020 00 0 00500         TRA     EOF2R
      00650  0500 00 0 01236  F2R23  CLA     =O23
      00651  0020 00 0 00646         TRA     X1
      00652  0500 00 0 01235  IN21   CLA     =O21
      00653  0621 00 0 01070         STA     FLAGS
      00654  0020 00 0 00467         TRA     IN
      00655 -0625 00 0 01072  EOF1   STL     EOF1TS
      00656  0534 00 4 01226         LXA     EOFCT,4
      00657  0634 00 4 01062         SXA     SRTLEN,4
      00660  0634 00 4 01063         SXA     MRGLEN,4
      00661  0020 00 0 00451         TRA     EOF1R
      00662 -0625 00 0 01073  EOF2   STL     EOF2TS
      00663  0534 00 4 01226         LXA     EOFCT,4
      00664  0634 00 4 01063         SXA     MRGLEN,4
      00665 -0500 00 0 01254         CAL     =O777777777757
      00666  0320 00 0 01070         ANS     FLAGS
      00667  0020 00 0 00500         TRA     EOF2R
      00670                   END    CLOSE   QST,QST+1
      00670  0074 00 4 00006         TSX     $CLOSE,4                                                         .001
      00671  3 00000 0 77113         PTH     QST                                                              .001
      00672  3 00000 0 77114         PTH     QST+1                                                            .001
      00673                          ERRMAC                                                                   .001
                                     IFF     0,                                                               .002
                                     PTH                                                                      .002
                                     IFF     1,                                                               .002
      00673  3 00000 0 01221         PTH     IOERRR                                                           .002
      00674  3 00000 0 01227         PTH     ERCODE                                                           .002
      00675                          CLOSE   MERGE,FILE1
      00675  0074 00 4 00006         TSX     $CLOSE,4                                                         .001
      00676  3 00000 0 01041         PTH     MERGE                                                            .001
      00677  3 00000 0 01036         PTH     FILE1                                                            .001
      00700                          ERRMAC                                                                   .001
                                     IFF     0,                                                               .002
                                     PTH                                                                      .002
                                     IFF     1,                                                               .002
      00700  3 00000 0 01221         PTH     IOERRR                                                           .002
      00701  3 00000 0 01227         PTH     ERCODE                                                           .002
      00702                          CLOSE   MERGE,FILE2
      00702  0074 00 4 00006         TSX     $CLOSE,4                                                         .001
      00703  3 00000 0 01041         PTH     MERGE                                                            .001
      00704  3 00000 0 01037         PTH     FILE2                                                            .001
      00705                          ERRMAC                                                                   .001
                                     IFF     0,                                                               .002
                                     PTH                                                                      .002
                                     IFF     1,                                                               .002
      00705  3 00000 0 01221         PTH     IOERRR                                                           .002
      00706  3 00000 0 01227         PTH     ERCODE                                                           .002
      00707                          DELFIL  MERGE,FILE1
      00707  0074 00 4 00020         TSX     $DELFIL,4                                                        .001
      00710  3 00000 0 01041         PTH     MERGE                                                            .001
      00711  3 00000 0 01036         PTH     FILE1                                                            .001
      00712                          ERRMAC                                                                   .001
1            SORT FAP                                                                            PAGE 17

                                     IFF     0,                                                               .002
                                     PTH                                                                      .002
                                     IFF     1,                                                               .002
      00712  3 00000 0 01221         PTH     IOERRR                                                           .002
      00713  3 00000 0 01227         PTH     ERCODE                                                           .002
      00714                          FSTATE  QST+2,QST+3,FSTBUF,FERRIN
      00714  0074 00 4 00003         TSX     $FSTATE,4                                                        .001
      00715  3 00000 0 77115         PTH     QST+2                                                            .001
      00716  3 00000 0 77116         PTH     QST+3                                                            .001
      00717  3 00010 0 01025         PTH     FSTBUF,,8                                                        .001
      00720                          ERRMAC  FERRIN                                                           .001
                                     IFF     0,FERRIN                                                         .002
      00720  3 00000 0 00744         PTH     FERRIN                                                           .002
                                     IFF     1,FERRIN                                                         .002
                                     PTH     IOERRR                                                           .002
      00721  3 00000 0 01227         PTH     ERCODE                                                           .002
      00722 -0500 00 0 77115         CAL     QST+2
      00723  0602 00 0 01152         SLW     FCOM+2
      00724 -0500 00 0 77116         CAL     QST+3
      00725  0602 00 0 01153         SLW     FCOM+3
      00726                          WRFLX   FCOM,9,A
      00726  0074 00 4 00021         TSX     $WRFLXA,4                                                        .001
      00727  3 00011 0 01150         PTH     FCOM,,9                                                          .001
      00730  0074 00 4 00022         TSX     $RDFLX,4
      00731  0 00001 0 01074         PZE     LOC,,1
      00732 -0500 00 0 01074         CAL     LOC
      00733 -0340 00 0 01252         LAS     =HYES
      00734  0020 00 0 01003         TRA     FILCOM
      00735  0020 00 0 00737         TRA     *+2
      00736  0020 00 0 01003         TRA     FILCOM
      00737                          DELFIL  QST+2,QST+3,DELERR
      00737  0074 00 4 00020         TSX     $DELFIL,4                                                        .001
      00740  3 00000 0 77115         PTH     QST+2                                                            .001
      00741  3 00000 0 77116         PTH     QST+3                                                            .001
      00742                          ERRMAC  DELERR                                                           .001
                                     IFF     0,DELERR                                                         .002
      00742  3 00000 0 01002         PTH     DELERR                                                           .002
                                     IFF     1,DELERR                                                         .002
                                     PTH     IOERRR                                                           .002
      00743  3 00000 0 01227         PTH     ERCODE                                                           .002
      00744                   FERRIN CHFILE  MERGE,FILE2,=-0,QST+2,QST+3
      00744  0074 00 4 00023         TSX     $CHFILE,4                                                        .001
      00745  3 00000 0 01041         PTH     MERGE                                                            .001
      00746  3 00000 0 01037         PTH     FILE2                                                            .001
      00747                          PTHIFF  =-0,=-0                                                          .001
                                     IFF     0,=-0                                                            .002
      00747  3 00000 0 01244         PTH     =-0                                                              .002
                                     IFF     1,=-0                                                            .002
                                     PTH     =-0                                                              .002
      00750                          PTHIFF  QST+2,=-0                                                        .001
                                     IFF     0,QST+2                                                          .002
      00750  3 00000 0 77115         PTH     QST+2                                                            .002
                                     IFF     1,QST+2                                                          .002
                                     PTH     =-0                                                              .002
      00751                          PTHIFF  QST+3,=-0                                                        .001
                                     IFF     0,QST+3                                                          .002
1            SORT FAP                                                                            PAGE 18

      00751  3 00000 0 77116         PTH     QST+3                                                            .002
                                     IFF     1,QST+3                                                          .002
                                     PTH     =-0                                                              .002
      00752                          ERRMAC                                                                   .001
                                     IFF     0,                                                               .002
                                     PTH                                                                      .002
                                     IFF     1,                                                               .002
      00752  3 00000 0 01221         PTH     IOERRR                                                           .002
      00753  3 00000 0 01227         PTH     ERCODE                                                           .002
      00754                          WRFLX
      00754  0074 00 4 00024         TSX     $WRFLX,4                                                         .001
      00755  3 00000 0 00000         PTH     ,,                                                               .001
      00756  0074 00 4 00025         TSX     $CHNCOM,4
      00757  0 00000 0 00001         PZE     1
                              *
                              ERROR  MACRO   N
                                     AXC     N,4
                                     TRA     ERRS
                              ERROR  END
                              *
      00760                   INSUF1 ERROR   0
      00760 -0774 00 4 00000         AXC     0,4                                                              .001
      00761  0020 00 0 01011         TRA     ERRS                                                             .001
      00762                   INSUF  ERROR   1
      00762 -0774 00 4 00001         AXC     1,4                                                              .001
      00763  0020 00 0 01011         TRA     ERRS                                                             .001
      00764                   TOLONG ERROR   2
      00764 -0774 00 4 00002         AXC     2,4                                                              .001
      00765  0020 00 0 01011         TRA     ERRS                                                             .001
      00766                   NOFILE ERROR   3
      00766 -0774 00 4 00003         AXC     3,4                                                              .001
      00767  0020 00 0 01011         TRA     ERRS                                                             .001
      00770                   BIGBLK ERROR   4
      00770 -0774 00 4 00004         AXC     4,4                                                              .001
      00771  0020 00 0 01011         TRA     ERRS                                                             .001
      00772                   NOMULT ERROR   5
      00772 -0774 00 4 00005         AXC     5,4                                                              .001
      00773  0020 00 0 01011         TRA     ERRS                                                             .001
      00774                   NOARG  ERROR   6
      00774 -0774 00 4 00006         AXC     6,4                                                              .001
      00775  0020 00 0 01011         TRA     ERRS                                                             .001
      00776                   NOQST  ERROR   7
      00776 -0774 00 4 00007         AXC     7,4                                                              .001
      00777  0020 00 0 01011         TRA     ERRS                                                             .001
      01000                   ILLFRM ERROR   8
      01000 -0774 00 4 00010         AXC     8,4                                                              .001
      01001  0020 00 0 01011         TRA     ERRS                                                             .001
      01002  0074 00 4 00026  DELERR TSX     $PRNTER,4
      01003  0500 00 0 01037  FILCOM CLA     FILE2
      01004  0601 00 0 01147         STO     COM9+4
      01005  0500 00 0 01041         CLA     MERGE
      01006  0601 00 0 01146         STO     COM9+3
      01007                          ERROR   9
      01007 -0774 00 4 00011         AXC     9,4                                                              .001
      01010  0020 00 0 01011         TRA     ERRS                                                             .001
      01011 -0500 00 4 01046  ERRS   CAL     ERRCOM,4
1            SORT FAP                                                                            PAGE 19

      01012  0602 00 0 01014         SLW     *+2
      01013                          WRFLX
      01013  0074 00 4 00024         TSX     $WRFLX,4                                                         .001
      01014  3 00000 0 00000         PTH     ,,                                                               .001
      01015  0074 00 4 00025         TSX     $CHNCOM,4
      01016  0 00000 0 00001         PZE     1
      01017  0 00000 0 00000  FILNAM PZE
      01020  0 00000 0 00000  NAME1  PZE
      01021  0 00000 0 00000  NAME2  PZE
      01022  0 00000 0 00000  NAME3  PZE
      01023  0 00000 0 00000  NAME4  PZE
                       01024  ENDNAM SYN     *
      01024  625163506263     SRTQST BCI     1,SRTQST
      01025                   FSTBUF BSS     8
      01035  0 00000 0 00000  MSKDAT PZE
                              QST    FRECOR  437
                                     IFF     ..BOOL,A,Z                                                       .001
                       77777  ..TOPC SET     32767                                                            .001
                       77113  QST    SET     ..TOPC-437+1                                                     .001
                       77112  ..TOPC SET     QST-1                                                            .001
                       00001  ..BOOL SET     1                                                                .001
      01036  333333000001     FILE1  BCI     1,...001
      01037  0 00000 0 00000  FILE2  PZE
      01040  0 00000 0 00000  WHO    PZE
      01041  0 00000 0 00000  MERGE  PZE                   WHO+1
      01042  0 00000 0 77112  EQRQ   PZE     ENDR
                              ENDR   FRECOR  1
                                     IFF     ..BOOL,A,Z                                                       .001
                              ..TOPC SET     32767                                                            .001
                       77112  ENDR   SET     ..TOPC-1+1                                                       .001
                       77111  ..TOPC SET     ENDR-1                                                           .001
                       00001  ..BOOL SET     1                                                                .001
                              DUMMY  FRECOR  1308
                                     IFF     ..BOOL,A,Z                                                       .001
                              ..TOPC SET     32767                                                            .001
                       74456  DUMMY  SET     ..TOPC-1308+1                                                    .001
                       74455  ..TOPC SET     DUMMY-1                                                          .001
                       00001  ..BOOL SET     1                                                                .001
      01043  0 00000 0 00000  FIRST  PZE
      01044  0 00000 0 00000  BREAK  PZE
      01045  0 00000 0 00000  REV    PZE
      01046  0 00006 0 01077  ERRCOM PZE     COM1,,6
      01047  0 00006 0 01077         PZE     COM1,,6
      01050  0 00003 0 01105         PZE     COM2,,3
      01051  0 00004 0 01110         PZE     COM3,,4
      01052  0 00004 0 01114         PZE     COM4,,4
      01053  0 00010 0 01120         PZE     COM5,,8
      01054  0 00003 0 01130         PZE     COM6,,3
      01055  0 00003 0 01133         PZE     COM7,,3
      01056  0 00005 0 01136         PZE     COM8,,5
      01057  0 00005 0 01143         PZE     COM9,,5
                              BUFF1  FRECOR  432
                                     IFF     ..BOOL,A,Z                                                       .001
                              ..TOPC SET     32767                                                            .001
                       73576  BUFF1  SET     ..TOPC-432+1                                                     .001
                       73575  ..TOPC SET     BUFF1-1                                                          .001
1            SORT FAP                                                                            PAGE 20

                       00001  ..BOOL SET     1                                                                .001
                              BUFF2  FRECOR  432
                                     IFF     ..BOOL,A,Z                                                       .001
                              ..TOPC SET     32767                                                            .001
                       72716  BUFF2  SET     ..TOPC-432+1                                                     .001
                       72715  ..TOPC SET     BUFF2-1                                                          .001
                       00001  ..BOOL SET     1                                                                .001
                              BUFF3  FRECOR  432
                                     IFF     ..BOOL,A,Z                                                       .001
                              ..TOPC SET     32767                                                            .001
                       72036  BUFF3  SET     ..TOPC-432+1                                                     .001
                       72035  ..TOPC SET     BUFF3-1                                                          .001
                       00001  ..BOOL SET     1                                                                .001
      01060  0 00000 0 00000  BLKLEN PZE
      01061  0 00000 0 20700  TOTLEN PZE     LENGTH
      01062  0 00000 0 00000  SRTLEN PZE
      01063  0 00000 0 00000  MRGLEN PZE
      01064  0 00000 0 00000  OUTLEN PZE
                              MRGBUF FRECOR  LENGTH
                                     IFF     ..BOOL,A,Z                                                       .001
                              ..TOPC SET     32767                                                            .001
                       51136  MRGBUF SET     ..TOPC-LENGTH+1                                                  .001
                       51135  ..TOPC SET     MRGBUF-1                                                         .001
                       00001  ..BOOL SET     1                                                                .001
                              SRTBUF FRECOR  LENGTH
                                     IFF     ..BOOL,A,Z                                                       .001
                              ..TOPC SET     32767                                                            .001
                       30236  SRTBUF SET     ..TOPC-LENGTH+1                                                  .001
                       30235  ..TOPC SET     SRTBUF-1                                                         .001
                       00001  ..BOOL SET     1                                                                .001
                              OUTPUT FRECOR  LENGTH
                                     IFF     ..BOOL,A,Z                                                       .001
                              ..TOPC SET     32767                                                            .001
                       07336  OUTPUT SET     ..TOPC-LENGTH+1                                                  .001
                       07335  ..TOPC SET     OUTPUT-1                                                         .001
                       00001  ..BOOL SET     1                                                                .001
      01065  0 00000 0 00000  MFIRST PZE
      01066  0 00000 0 00000  BREAK2 PZE
      01067  0 00000 0 00000  SAVQ   PZE
      01070  0 00000 0 00000  FLAGS  PZE
      01071  0 00000 0 00000  MORTST PZE
      01072  0 00000 0 00000  EOF1TS PZE
      01073  0 00000 0 00000  EOF2TS PZE
      01074                   LOC    BSS     2
      01076  0 00000 0 00000  LEN    PZE
      01077  454663602545     COM1   BCI     6,NOT ENOUGH ARGUMENTS IN SRTQST.
      01100  466427306021
      01101  512764442545
      01102  636260314560
      01103  625163506263
      01104  336060606060
      01105  625163506263     COM2   BCI     3,SRTQST TOO LONG.
      01106  606346466043
      01107  464527336060
      01110  314547646360     COM3   BCI     4,INPUT FILE NOT FOUND.
      01111  263143256045
1            SORT FAP                                                                            PAGE 21

      01112  466360264664
      01113  452433606060
      01114  224346234260     COM4   BCI     4,BLOCK SIZE TOO LARGE.
      01115  623171256063
      01116  464660432151
      01117  272533606060
      01120  263143256043     COM5   BCI     8,FILE LENGTH IS NOT A MULTIPLE OF BLOCK SIZE.
      01121  254527633060
      01122  316260454663
      01123  602160446443
      01124  633147432560
      01125  462660224346
      01126  234260623171
      01127  253360606060
      01130  454660215127     COM6   BCI     3,NO ARGUMENTS.
      01131  644425456362
      01132  336060606060
      01133  625163506263     COM7   BCI     3,SRTQST NOT FOUND.
      01134  604546636026
      01135  466445243360
      01136  314343252721     COM8   BCI     5,ILLEGAL FORMAT IN SRTQST.
      01137  436026465144
      01140  216360314560
      01141  625163506263
      01142  336060606060
      01143  704664516051     COM9   BCI     5,YOUR RESULT IS IN EBAZAGGAZABE
      01144  256264436360
      01145  316260314560
      01146  252221712127
      01147  272171212225
      01150  464324602631     FCOM   BCI     9,OLD FILE -- 777777777777 DO YOU WISH TO DELETE IT. --
      01151  432560404060
      01152  070707070707
      01153  070707070707
      01154  602446607046
      01155  646066316230
      01156  606346602425
      01157  432563256031
      01160  633360404060
      01161                          ENDMAC
                                     IRP                                                                      .001
                                     IRP                                                                      .001
      01161                          MEMCOM                                                                   .001
      01161 -0130 00 0 00000  MEMERR XCL                                                                      .002
      01162  0074 00 4 01204         TSX     ...OCT,4                                                         .002
      01163  0602 00 0 01176         SLW     ..MESS+3                                                         .002
      01164  0560 00 0 01220         LDQ     LWFSTG                                                           .002
      01165  0074 00 4 01204         TSX     ...OCT,4                                                         .002
      01166  0602 00 0 01203         SLW     ..MESS+8                                                         .002
      01167                          WRFLX   ..MESS,9                                                         .002
      01167  0074 00 4 00024         TSX     $WRFLX,4                                                         .003
      01170  3 00011 0 01173         PTH     ..MESS,,9                                                        .003
      01171  0074 00 4 00027         TSX     $DORMNT,4                                                        .002
      01172  0074 00 4 00030         TSX     $DEAD,4                                                          .002
      01173  442544465170     ..MESS BCI     9,MEMORY BOUND =          , LOWEST FREE STORAGE =                .002
      01174  602246644524
1            SORT FAP                                                                            PAGE 22

      01175  601360606060
      01176  606060606060
      01177  736043466625
      01200  626360265125
      01201  256062634651
      01202  212725601360
      01203  606060606060
      01204                          MEMOCT                                                                   .001
      01204 -0773 00 0 00022  ...OCT RQL     18                                                               .002
      01205  0774 00 2 00006         AXT     6,2                                                              .002
      01206 -0754 00 0 00000         ZAC                                                                      .002
      01207 -0763 00 0 00003         LGL     3                                                                .002
      01210 -0100 00 0 01212         TNZ     *+2                                                              .002
      01211  2 00001 2 01207         TIX     *-2,2,1                                                          .002
      01212 -0501 00 0 01250         ORA     =H     0                                                         .002
      01213  0020 00 0 01216         TRA     *+3                                                              .002
      01214  0767 00 0 00003         ALS     3                                                                .002
      01215 -0763 00 0 00003         LGL     3                                                                .002
      01216  2 00001 2 01214         TIX     *-2,2,1                                                          .002
      01217  0020 00 4 00001         TRA     1,4                                                              .002
      01220                          MEMLOC                                                                   .001
      01220  0 00000 0 07336  LWFSTG PZE     ..TOPC+1                                                         .002
      01221  0634 00 4 01224  IOERRR SXA     *+3,4                                                            .001
      01222  0074 00 4 00026         TSX     $PRNTER,4                                                        .001
      01223  0074 00 4 00027         TSX     $DORMNT,4                                                        .001
      01224  0774 00 4 00000         AXT     **,4                                                             .001
      01225  0020 00 4 00000         TRA     0,4                                                              .001
      01226  0 00000 0 00000  EOFCT  PZE                                                                      .001
      01227  0 00000 0 00000  ERCODE PZE                                                                      .001
                                     END                                                                      .001

        LITERALS
      01230  000000000000
      01231  000000000001
      01232  000000000002
      01233  000000000003
      01234  000000000020
      01235  000000000021
      01236  000000000023
      01237  000000000057
      01240  000000000662
      01241  000000002434
      01242  000000077777
      01243  256525516225
      01244  400000000000
      01245  516060606060
      01246  516660606060
      01247  606060604000
      01250  606060606000
      01251  606060606060
      01252  702562606060
      01253  777777000000
      01254  777777777757
      01255  777777777777
1            SORT FAP                                                                            PAGE 1
                        POST PROCESSOR ASSEMBLY DATA

       1256 IS THE FIRST LOCATION NOT USED BY THIS PROGRAM

0REFERENCES TO DEFINED SYMBOLS
        263     BK   254,  256
        460     FN   453,  455,  456
        467     IN   654
        646     X1   651
        137    AD1   117,  122
        275    ALL   245
        670    END   542
        507    FN2   502,  504,  505
       1076    LEN
       1074    LOC   731,  732
      77113    QST   163,  211,  212,  240,  242,  311,  315,  377,  402,  403,  415,  416,  424,  425,  441,  442,  451
                     464,  500,  514,  671,  672,  715,  716,  722,  724,  740,  741,  750,  751, 1036
       1045    REV   103,  313
       1040    WHO   317
       1077   COM1  1046, 1047
       1105   COM2  1050
       1110   COM3  1051
       1114   COM4  1052
       1120   COM5  1053
       1130   COM6  1054
       1133   COM7  1055
       1136   COM8  1056
       1143   COM9  1004, 1006, 1057
        201   DATA   167,  171
         30   DEAD  1172
      77112   ENDR   155,  222, 1042, 1043
        655   EOF1   445
        662   EOF2   474
       1042   EQRQ   120
        332   ERR1   324
        347   ERR2   341
       1011   ERRS   761,  763,  765,  767,  771,  773,  775,  777, 1001, 1010
        645   F2R3   642
       1150   FCOM   723,  725,  727
        652   IN21   540,  641
        155   LOP1   220,  247
        222   LOP2   244
        230   LOP3   243
        163   LOP4   177,  216
          4   OPEN   123,  347,  357,  413,  561,  576
       1067   SAVQ   207,  214
        301   XARG   312,  634
        311   XSTO   304,  307
          7  BCDEC   210
       1044  BREAK   234,  236,  252,  270,  272
      73576  BUFF1   372,  621,  626, 1060
      72716  BUFF2   376,  615,  632, 1060
      72036  BUFF3   426, 1060
          6  CLOSE   144,  547,  571,  670,  675,  702
        427  CYCLE   622,  633
      74456  DUMMY  1043
1            SORT FAP                                                                            PAGE 2
                        POST PROCESSOR ASSEMBLY DATA

        451  EOF1R   661
        500  EOF2R   647,  667
       1226  EOFCT   141,  446,  475,  526,  656,  663
        650  F2R23   644
       1036  FILE1   322,  327,  330,  333,  352,  371,  471,  543,  545,  573,  601,  606,  620,  631,  677,  711
       1037  FILE2   334,  337,  344,  345,  362,  375,  522,  544,  546,  551,  556,  564,  607,  614,  625,  704,  746
                    1003
       1043  FIRST   154,  172,  174,  201
       1070  FLAGS   466,  510,  646,  653,  666
        762  INSUF   206,  250
        320  LOOP1   331
        335  LOOP2   346
       1041  MERGE   321,  336,  351,  361,  370,  374,  470,  521,  550,  555,  563,  572,  600,  613,  617,  624,  630
                     676,  703,  710,  745, 1005
        635  MORE1   533
        643  MORE2   536,  637
       1020  NAME1    53
       1021  NAME2    61
       1022  NAME3    67
       1023  NAME4    75
        774  NOARG    44
        240  NOBRK   235
        776  NOQST   110
         22  RDFLX   730
        246  SKIP1   157,  160
        272  SKIP2   224,  225
        251  SKIP3   232
         24  WRFLX   754, 1013, 1167
        312  XSKIP   302,  305,  310
        770 BIGBLK   433
       1060 BLKLEN   400,  411,  432,  434,  463,  515
       1066 BREAK2   233,  260,  263
         12 BUFFER   367,  373,  423,  612,  616,  623,  627
         23 CHFILE   744
         25 CHNCOM   756, 1015
        216 CONTIN   173,  203,  205
       1002 DELERR   742
         20 DELFIL   554,  707,  737
         27 DORMNT  1171, 1223
        104 ENDARG    52,   60,   66,   74,  102
       1024 ENDNAM   301, 1024
        217 ENDWRD   200
       1072 EOF1TS   541,  655
       1073 EOF2TS   430,  537,  640,  643,  662
       1227 ERCODE   111,  132,  143,  150,  325,  342,  356,  366,  406,  422,  450,  477,  530,  553,  560,  570,  575
                     605,  674,  701,  706,  713,  721,  743,  753
       1046 ERRCOM  1011
        744 FERRIN   720
       1003 FILCOM   734,  736
       1017 FILNAM    45,  105,  125,  134,  145
         14 FLSRTN   460
         13 FLSRTX   457
          3 FSTATE   104,  320,  335,  401,  714
       1025 FSTBUF   107,  112,  121,  152,  323,  340,  404,  407,  717
          2 GETCOM    40,   46,   54,   62,   70,   76
1            SORT FAP                                                                            PAGE 3
                        POST PROCESSOR ASSEMBLY DATA

         11 GETFIL   326,  332,  343
          0 GETMEM    32
       1000 ILLFRM   176
        623 INBUFF   610
        524 INSRT4   517
        760 INSUF1   221
       1221 IOERRR   131,  142,  147,  355,  365,  421,  447,  476,  527,  552,  557,  567,  574,  604,  673,  700,  705
                     712,  752
          1 ..BOOL  1036, 1043, 1060, 1065
       1204 ...OCT  1162, 1165
       1173 ..MESS  1163, 1166, 1170
       7335 ..TOPC  1036, 1043, 1060, 1065, 1220
      20700 LENGTH    31, 1061, 1065
        226 LOP3IN
       1220 LWFSTG    33, 1164
       1161 MEMERR    34,   35
         16 MERGEN   507
         15 MERGEX   506
       1065 MFIRST   257,  265,  266
       1071 MORTST   516,  531
      51136 MRGBUF   444,  461,  473,  512, 1065
       1063 MRGLEN   436,  444,  461,  473,  512,  660,  664
       1035 MSKDAT   277,  464,  514
        766 NOFILE   405
        772 NOMULT   412
       1064 OUTLEN   437,  513
       7336 OUTPUT   513,  524, 1065
         26 PRNTER  1002, 1222
          5 RDWAIT   133,  440,  467
          1 SETMEM    37
        243 SKIPIN   215,  261,  264,  267,  271,  274
      30236 SRTBUF   462,  511, 1065
       1062 SRTLEN   435,  511,  657
       1024 SRTQST   106,  126,  135,  146
        764 TOLONG   114,  237,  262,  273
       1061 TOTLEN   431
         10 WHOAMI   316
         21 WRFLXA   726
         17 WRWAIT   520

0 NO ERROR IN ABOVE ASSEMBLY.


FLSRTN   BCD 08/08/68 2229.9    2198         00000
1            FLSRTN  FAP                                                                         PAGE 1

                              *
                              *      CALLING SEQUENCE
                              *
                              *      TSX     $FLSRTN,4
                              *      PTH     TABLE,,LENTBL
                              *      PTH     NEWTBL
                              *      PTH     BLKLEN
                              *      PTH     MASK,,MSKLEN
                              *
                              *
                       00005         ENTRY   FLSRTN
                       00003         ENTRY   FLSRTX

        TRANSFER VECTOR
      00000  215127626060     ARGS

            LINKAGE DIRECTOR
      00001  000000000000
      00002  264362516345

      00003 -0625 00 0 00231  FLSRTX STL     SXTEST
      00004  0020 00 0 00006         TRA     *+2
      00005  0600 00 0 00231  FLSRTN STZ     SXTEST
      00006  0634 00 1 00201         SXA     XR1,1         BECOME TRANSPARENT TO INDEX REGISTERS
      00007  0634 00 2 00202         SXA     XR2,2
      00010  0634 00 4 00203         SXA     XR4,4
      00011  0634 00 6 00204         SXA     XR6,6
      00012  0634 00 7 00205         SXA     XR7,7
      00013  0636 00 4 00015         SCA     *+2,4
      00014  0074 00 4 00000         TSX     $ARGS,4
      00015  0 00004 0 00000         PZE     ,,4
      00016  0 00000 0 00207         PZE     ARGLOC
      00017  0500 00 0 00207         CLA     ARGLOC        LENGTH AND ADDRESS OF TABLE TO BE SORTED
      00020  0621 00 0 00226         STA     TABLE             ADDRESS
      00021 -0734 00 1 00000         PDX     ,1                LENGTH
      00022  0634 00 1 00227         SXA     TBLLEN,1
      00023  0500 00 0 00210         CLA     ARGLOC+1
      00024  0621 00 0 00222         STA     NEWTBL
      00025  0500 00 0 00211         CLA     ARGLOC+2      ADDRESS OF MASK AND LENGTH OF BLOCKS
      00026  0621 00 0 00213         STA     BLKLEN
      00027  0500 00 0 00212         CLA     ARGLOC+3
      00030  0771 00 0 00022         ARS     18
      00031  0621 00 0 00221         STA     MSKLEN
      00032  0361 00 0 00212         ACL     ARGLOC+3
      00033  0621 00 0 00220         STA     MASK
      00034  0560 00 0 00227  SETUP  LDQ     TBLLEN        SET UP POINTER TABLE
      00035 -0754 00 0 00000         ZAC
      00036  0221 00 0 00213         DVP     BLKLEN
      00037 -0600 00 0 00217         STQ     PTRLEN
      00040 -0130 00 0 00000         XCL
      00041 -0760 00 0 00003         SSM
      00042  0400 00 0 00227         ADD     TBLLEN
      00043  0400 00 0 00222         ADD     NEWTBL
      00044  0621 00 0 00216         STA     PNTRTB        ADDRESS OF POINTER TABLE
      00045  0534 00 1 00217         LXA     PTRLEN,1      LENGTH OF POINTER TABLE
      00046 -0634 00 1 00131         SXD     TXH,1
1            FLSRTN  FAP                                                                         PAGE 2

      00047  0754 00 1 00000         PXA     ,1
      00050  0400 00 0 00216         ADD     PNTRTB
      00051  0621 00 0 00064         STA     STO
      00052  0621 00 0 00174         STA     CAL
      00053  0621 00 0 00110         STA     P
      00054  0621 00 0 00113         STA     P1
      00055  0621 00 0 00120         STA     P2
      00056  0621 00 0 00121         STA     P3
      00057  0621 00 0 00122         STA     P4
      00060  0621 00 0 00123         STA     P5
      00061  0500 00 0 00233         CLA     =O000000700000
      00062  0400 00 0 00213         ADD     BLKLEN
      00063  0400 00 0 00226         ADD     TABLE
      00064  0601 00 1 00000  STO    STO     **,1
      00065  0400 00 0 00213         ADD     BLKLEN
      00066  2 00001 1 00064         TIX     *-2,1,1
      00067 -0500 00 0 00217  XQS1   CAL     PTRLEN        SET UP SHELL FOR DIVISION
      00070  0400 00 0 00232         ADD     =1
      00071  0601 00 0 00223         STO     SHELL
      00072  0500 00 0 00223  LOOP   CLA     SHELL         DIVIDE SHELL BY TWO ROUNDING UP
      00073  0402 00 0 00232         SUB     =1
      00074  0100 00 0 00146         TZE     WRITE         TRANSFER OUT IF LAST SHELL WAS ' 1 '
      00075  0771 00 0 00001         ARS     1
      00076  0400 00 0 00232         ADD     =1
      00077  0601 00 0 00223         STO     SHELL
      00100  0500 00 0 00217         CLA     PTRLEN        SET UP 'I' SO START AT TOP OF TABLE
      00101  0601 00 0 00215         STO     I
      00102  0734 00 1 00000  LOOP1  PAX     ,1            EXAMINE ENTRIES IN TABLE SHELL UNITS APART
      00103  0402 00 0 00223         SUB     SHELL
      00104  0734 00 2 00000         PAX     ,2
      00105 -3 00000 2 00072         TXL     LOOP,2,0
      00106  0534 00 7 00213  NXQSD  LXA     BLKLEN,7
      00107  0534 00 6 00221         LXA     MSKLEN,6
      00110 -0500 60 1 00000  P      CAL*    **,1
      00111 -0320 60 0 00220         ANA*    MASK
      00112  0602 00 0 00230         SLW     TEMP
      00113 -0500 60 2 00000  P1     CAL*    **,2
      00114 -0320 60 0 00220         ANA*    MASK
      00115 -0340 00 0 00230         LAS     TEMP          COMPARE 'MASKED' ENTRIES
      00116  0020 00 0 00137         TRA     INORDR        ..IN ORDER, CONTINUE ON DOWN TABLE
      00117  0020 00 0 00133         TRA     X
      00120 -0500 00 1 00000  P2     CAL     **,1          ....OUT OF ORDER, EXCHANGE
      00121  0560 00 2 00000  P3     LDQ     **,2
      00122 -0600 00 1 00000  P4     STQ     **,1
      00123  0602 00 2 00000  P5     SLW     **,2
      00124  0534 00 4 00223         LXA     SHELL,4       MOVE SMALLER BLOCK AS FAR UP THE TABLE AS
      00125 -0634 00 4 00127         SXD     *+2,4           POSSIBLE IN JUMPS OF 'SHELL'
      00126 -0634 00 4 00130         SXD     *+2,4
      00127  1 00000 1 00130         TXI     *+1,1,**
      00130  1 00000 2 00131         TXI     *+1,2,**
      00131  3 00000 1 00137  TXH    TXH     INORDR,1,**   TEST FOR OVER TOP OF THE TABLE
      00132  0020 00 0 00106         TRA     NXQSD             GO COMPARE
      00133 -2 00001 6 00137  X      TNX     INORDR,6,1
      00134  2 00001 7 00110         TIX     P,7,1
      00135  0534 00 7 00213         LXA     BLKLEN,7
      00136  0020 00 0 00110         TRA     P
1            FLSRTN  FAP                                                                         PAGE 3

      00137  0500 00 0 00215  INORDR CLA     I             REDUCE 'I' BY 1.0 SO AS TO EXAMINE
      00140  0402 00 0 00232         SUB     =1               THE NEXT PAIR OF ENTRIES IN THE TABLE
      00141  0601 00 0 00215         STO     I
      00142  0340 00 0 00223         CAS     SHELL         TEST FOR HAVING REACHED BOTTOM OF TABLE
      00143  0020 00 0 00102         TRA     LOOP1           NOPE, GO EXAMINE THEST ENTRIES
      00144  0020 00 0 00072         TRA     LOOP            YES,GO REDUCE SHELL AND START OVER
      00145  0020 00 0 00072         TRA     LOOP
      00146 -0520 00 0 00231  WRITE  NZT     SXTEST
      00147  0020 00 0 00171         TRA     WRITER
      00150 -0500 00 0 00217         CAL     PTRLEN
      00151  0771 00 0 00001         ARS     1
      00152  0734 00 1 00000         PAX     ,1
      00153  0774 00 2 00001         AXT     1,2
      00154  0361 00 0 00216         ACL     PNTRTB
      00155  0621 00 0 00163         STA     SW1
      00156  0621 00 0 00166         STA     SW4
      00157 -0500 00 0 00216         CAL     PNTRTB
      00160  0361 00 0 00217         ACL     PTRLEN
      00161  0621 00 0 00164         STA     SW2
      00162  0621 00 0 00165         STA     SW3
      00163 -0500 00 1 00000  SW1    CAL     ,1
      00164  0560 00 2 00000  SW2    LDQ     ,2
      00165  0602 00 2 00000  SW3    SLW     ,2
      00166 -0600 00 1 00000  SW4    STQ     ,1
      00167  1 00001 2 00170         TXI     *+1,2,1
      00170  2 00001 1 00163         TIX     SW1,1,1
      00171  0534 00 1 00217  WRITER LXA     PTRLEN,1
      00172  0774 00 2 00000         AXT     0,2
      00173  0534 00 7 00213  LOOP2  LXA     BLKLEN,7
      00174 -0500 60 1 00000  CAL    CAL*    **,1
      00175  0602 60 0 00222         SLW*    NEWTBL
      00176  1 77777 2 00177         TXI     *+1,2,-1
      00177  2 00001 7 00174         TIX     CAL,7,1
      00200  2 00001 1 00173         TIX     LOOP2,1,1
      00201  0774 00 1 00000  XR1    AXT     **,1          RESTORE INDEX REGISTERS
      00202  0774 00 2 00000  XR2    AXT     **,2
      00203  0774 00 4 00000  XR4    AXT     **,4
      00204  0774 00 6 00000  XR6    AXT     **,6
      00205  0774 00 7 00000  XR7    AXT     **,7
      00206  0020 00 4 00005         TRA     5,4           RETURN TO CALLER
      00207                   ARGLOC BSS     4
      00213  0 00000 0 00000  BLKLEN PZE
      00214  0 00000 0 00000  TEM    PZE
      00215  0 00000 0 00000  I      PZE
      00216  0 00000 0 00000  PNTRTB PZE
      00217  0 00000 0 00000  PTRLEN PZE
      00220  0 00000 6 00000  MASK   PZE     **,6
      00221  0 00000 0 00000  MSKLEN PZE
      00222  0 00000 2 00000  NEWTBL PZE     **,2
      00223  0 00000 0 00000  SHELL  PZE
      00224  0 00000 0 00000  SRTLEN PZE
      00225  0 00000 0 00000  RELLOC PZE
      00226  0 00000 0 00000  TABLE  PZE
      00227  0 00000 0 00000  TBLLEN PZE
      00230  0 00000 0 00000  TEMP   PZE
      00231  0 00000 0 00000  SXTEST PZE
1            FLSRTN  FAP                                                                         PAGE 4

                                     END

        LITERALS
      00232  000000000001
      00233  000000700000
1            FLSRTN  FAP                                                                         PAGE 1
                        POST PROCESSOR ASSEMBLY DATA

        234 IS THE FIRST LOCATION NOT USED BY THIS PROGRAM

0REFERENCES TO DEFINED SYMBOLS
        215      I   101,  137,  141
        110      P    53,  134,  136
        133      X   117
        113     P1    54
        120     P2    55
        121     P3    56
        122     P4    57
        123     P5    60
        174    CAL    52,  177
         64    STO    51
        163    SW1   155,  170
        164    SW2   161
        165    SW3   162
        166    SW4   156
        214    TEM
        131    TXH    46
        201    XR1     6
        202    XR2     7
        203    XR4    10
        204    XR6    11
        205    XR7    12
          0   ARGS    14
         72   LOOP   105,  144,  145
        220   MASK    33,  111,  114
        230   TEMP   112,  115
         67   XQS1
        102  LOOP1   143
        173  LOOP2   200
        106  NXQSD   132
         34  SETUP
        223  SHELL    71,   72,   77,  103,  124,  142
        226  TABLE    20,   63
        146  WRITE    74
        207 ARGLOC    16,   17,   23,   25,   27,   32
        213 BLKLEN    26,   36,   62,   65,  106,  135,  173
          5 FLSRTN     0
          3 FLSRTX     0
        137 INORDR   116,  131,  133
        221 MSKLEN    31,  107
        222 NEWTBL    24,   43,  175
        216 PNTRTB    44,   50,  154,  157
        217 PTRLEN    37,   45,   67,  100,  150,  160,  171
        225 RELLOC
        224 SRTLEN
        231 SXTEST     3,    5,  146
        227 TBLLEN    22,   34,   42
        171 WRITER   147

0 NO ERROR IN ABOVE ASSEMBLY.


MERGEN   BCD 08/08/68 2229.9    2550         00000
1            MERGEN  FAP                                                                         PAGE 1

                              *      BY MICHAEL R COMER        MAY 12,1966
                              *
                              *      TSX     $MERGEN,4
                              *      PZE     FLAGS
                              *      PZE     B1,,L1
                              *      PZE     B2,,L2
                              *      PZE     R,,L3
                              *      MASKS,,LEN
                              *      PZE     BLKLEN
                       00005         ENTRY   MERGEN
                       00003         ENTRY   MERGEX

        TRANSFER VECTOR
      00000  215127626060     ARGS

            LINKAGE DIRECTOR
      00001  000000000000
      00002  442551272545

      00003 -0625 00 0 00262  MERGEX STL     MXTEST
      00004  0020 00 0 00006         TRA     *+2
      00005  0600 00 0 00262  MERGEN STZ     MXTEST
      00006  0634 00 1 00243         SXA     XR1,1            SAVE XR'S
      00007  0634 00 2 00244         SXA     XR2,2            ..
      00010  0634 00 3 00245         SXA     XR3,3            ..
      00011  0634 00 4 00246         SXA     XR4,4
      00012  0634 00 5 00247         SXA     XR5,5            ...
      00013  0634 00 6 00250         SXA     XR6,6
      00014  0634 00 7 00251         SXA     XR7,7            ..
      00015  0774 00 1 00152         AXT     I5,1
      00016  0774 00 2 00125         AXT     TRA2+1,2
      00017  0634 00 1 00122         SXA     TRA1,1
      00020  0634 00 2 00124         SXA     TRA2,2
      00021 -0520 00 0 00262         NZT     MXTEST
      00022  0020 00 0 00025         TRA     *+3
      00023  0634 00 2 00122         SXA     TRA1,2
      00024  0634 00 1 00124         SXA     TRA2,1
      00025  0636 00 4 00027         SCA     *+2,4
      00026  0074 00 4 00000         TSX     $ARGS,4
      00027  0 00006 0 00000         PZE     ,,6
      00030  0 00000 0 00253         PZE     FLAGS
      00031  0534 00 7 00253         LXA     FLAGS,7
      00032  0534 00 1 00153         LXA     I1,1
      00033  0534 00 2 00164         LXA     I2,2
      00034  0534 00 3 00263         LXA     I3,3
      00035  0754 00 7 00000         PXA     ,7
      00036 -0320 00 0 00264         ANA     =1
      00037 -0100 00 0 00050         TNZ     TWO
      00040  0500 00 0 00254         CLA     FLAGS+1
      00041  0771 00 0 00022         ARS     18
      00042  0734 00 1 00000         PAX     ,1
      00043  0621 00 0 00153         STA     I1
      00044  0361 00 0 00254         ACL     FLAGS+1
      00045  0621 00 0 00154         STA     GR
      00046  0621 00 0 00202         STA     WRT1+2
      00047  0621 00 0 00114         STA     TEST
1            MERGEN  FAP                                                                         PAGE 2

      00050  0754 00 7 00000  TWO    PXA     ,7
      00051 -0320 00 0 00265         ANA     =2
      00052 -0100 00 0 00063         TNZ     THREE
      00053  0500 00 0 00255         CLA     FLAGS+2
      00054  0771 00 0 00022         ARS     18
      00055  0734 00 2 00000         PAX     ,2
      00056  0621 00 0 00164         STA     I2
      00057  0361 00 0 00255         ACL     FLAGS+2
      00060  0621 00 0 00127         STA     LE
      00061  0621 00 0 00212         STA     WRT2+2
      00062  0621 00 0 00117         STA     TEST+3
      00063  0754 00 7 00000  THREE  PXA     ,7
      00064 -0320 00 0 00266         ANA     =4
      00065 -0100 00 0 00076         TNZ     MASKS
      00066  0500 00 0 00256         CLA     FLAGS+3
      00067  0771 00 0 00022         ARS     18
      00070  0734 00 3 00000         PAX     ,3
      00071  0361 00 0 00256         ACL     FLAGS+3
      00072  0621 00 0 00130         STA     LE+1
      00073  0621 00 0 00155         STA     GR+1
      00074  0621 00 0 00203         STA     WRT1+3
      00075  0621 00 0 00213         STA     WRT2+3
      00076  0500 00 0 00257  MASKS  CLA     FLAGS+4
      00077  0771 00 0 00022         ARS     18
      00100  0734 00 7 00000         PAX     ,7
      00101  0621 00 0 00162         STA     I7
      00102  0361 00 0 00257         ACL     FLAGS+4
      00103  0621 00 0 00115         STA     TEST+1
      00104  0621 00 0 00120         STA     TEST+4
      00105 -0500 00 0 00260         CAL     FLAGS+5
      00106  0734 00 5 00000         PAX     ,5
      00107  0734 00 6 00000         PAX     ,6
      00110  0621 00 0 00152         STA     I5
      00111 -3 00000 1 00170         TXL     END1,1,0         CHECK FOR FINISHED LISTS
      00112 -3 00000 2 00174         TXL     END2,2,0         ..
      00113 -3 00000 3 00220         TXL     RET,3,0          ..
      00114 -0500 00 1 00000  TEST   CAL     -,1              GET INPUT1+BEGPOS+L1,1(INITIALLY L1)
      00115 -0320 00 7 00000         ANA     -,7              MASK WITH MASK+SORTNO,7(INITIALLY SORTNO
      00116  0602 00 0 00261         SLW     TEM              SAVE
      00117 -0500 00 2 00000         CAL     -,2              GET INPUT2+BEGPOS+L2,2(INITIALLY L2)
      00120 -0320 00 7 00000         ANA     -,7              MASK WITH MASK+SORTNO,7
      00121 -0340 00 0 00261         LAS     TEM              COMPARE WITH INPUT1
      00122  0020 00 0 00000  TRA1   TRA     -                INPUT2 GREATER, WRITE OUT INPUT1
      00123  1 77777 1 00143         TXI     EQ,1,-1          EQUAL, CHECK NEXT WORD
      00124  0020 00 0 00000  TRA2   TRA     -
      00125  0534 00 5 00152         LXA     I5,5             INPUT2 LESS, WRITE OUT INPUT2, RESET
      00126  0534 00 2 00164         LXA     I2,2             WRITE OUT INDEX, AND RESET POINTER TO ST
      00127 -0500 00 2 00000  LE     CAL     -,2              GET INPUT2+L2,2
      00130  0602 00 3 00000         SLW     -,3              PLACE IN OUTPUT+L3,3(INITIALLY L3)
      00131  1 77777 3 00132         TXI     *+1,3,-1         NEXT WORD
      00132  1 77777 2 00133         TXI     *+1,2,-1         '
      00133  2 00001 5 00127         TIX     LE,5,1           TIX ON BLOCK LENGTH
      00134  0634 00 2 00164         SXA     I2,2             END OF BLOCK, SET PERM POINTER2 TO NEXT
      00135  0534 00 1 00153         LXA     I1,1             BLOCK.    RESET TEMP POINTER1
      00136  0534 00 6 00152         LXA     I5,6
      00137  0534 00 7 00162         LXA     I7,7             RESET MASK POINTER
1            MERGEN  FAP                                                                         PAGE 3

      00140 -3 00000 2 00174         TXL     END2,2,0         CHECK FOR END OF INPUT2
      00141  3 00000 3 00114         TXH     TEST,3,0         CHECK FOR END OF OUTPUT
      00142  0020 00 0 00220         TRA     RET              END
      00143  1 77777 2 00144  EQ     TXI     *+1,2,-1         INCREMENT POINTERS
      00144 -2 00001 7 00152         TNX     I5,7,1           TIX ON SORTNO
      00145  2 00001 6 00114         TIX     TEST,6,1
      00146  0534 00 1 00153         LXA     I1,1
      00147  0534 00 2 00164         LXA     I2,2
      00150  0534 00 6 00152         LXA     I5,6
      00151  0020 00 0 00114         TRA     TEST
      00152  0774 00 5 00000  I5     AXT     -,5              INPUT2 GREATER, OR INPUTS EQUAL, WRITE O
      00153  0774 00 1 00000  I1     AXT     -,1              OUT INPUT1, RESET WRITE OUT INDEX, AND
      00154 -0500 00 1 00000  GR     CAL     -,1              RESET POINTER TO START OF BLOCK, GET
      00155  0602 00 3 00000         SLW     -,3              INPUT1+L1,1. PLACE IN IN OUTPUT+L3,3
      00156  1 77777 3 00157         TXI     *+1,3,-1         NEXT WORD
      00157  1 77777 1 00160         TXI     *+1,1,-1         '
      00160  2 00001 5 00154         TIX     GR,5,1           TIX ON BLOCK LENGTH
      00161  0634 00 1 00153         SXA     I1,1             END OF BLOCK, SET PERM POINTER1 TO NEXT
      00162  0774 00 7 00000  I7     AXT     -,7              BLOCK.  RESET MASK POINTER
      00163  0534 00 6 00152         LXA     I5,6
      00164  0774 00 2 00000  I2     AXT     -,2              RESET TEMP POINTER2
      00165 -3 00000 1 00170         TXL     END1,1,0         CHECK FOR END OF INPUT1
      00166  3 00000 3 00114         TXH     TEST,3,0         CHECK FOR END OF OUTPUT
      00167  0020 00 0 00220         TRA     RET
      00170  0500 00 0 00253  END1   CLA     FLAGS
      00171 -0320 00 0 00267         ANA     =O10
      00172  0100 00 0 00210         TZE     WRT2
      00173  0020 00 0 00220         TRA     RET              RETURN
      00174  0500 00 0 00253  END2   CLA     FLAGS
      00175 -0320 00 0 00270         ANA     =O20
      00176  0100 00 0 00200         TZE     WRT1
      00177  0020 00 0 00220         TRA     RET              RETURN
      00200 -3 00000 3 00220  WRT1   TXL     RET,3,0          CHECK FOR END OF OUTPUT
      00201 -3 00000 1 00220         TXL     RET,1,0
      00202 -0500 00 1 00000         CAL     -,1              GET INPUT1+L1,1
      00203  0602 00 3 00000         SLW     -,3              PLACE IN OUTPUT+L3,3
      00204  2 00001 3 00206         TIX     *+2,3,1          INC. AND CHECK FOR END OF OUTPUT
      00205  1 77777 3 00207         TXI     *+2,3,-1
      00206  2 00001 1 00201         TIX     WRT1+1,1,1       TIX ON L1
      00207  1 77777 1 00220         TXI     RET,1,-1
      00210 -3 00000 3 00220  WRT2   TXL     RET,3,0          CHECK FOR END OF OUTPUT
      00211 -3 00000 2 00220         TXL     RET,2,0
      00212 -0500 00 2 00000         CAL     ,2               GET INPUT2+L2,2
      00213  0602 00 3 00000         SLW     -,3              PLACE IN OUTPUT+L3,3
      00214  2 00001 3 00216         TIX     *+2,3,1
      00215  1 77777 3 00217         TXI     *+2,3,-1
      00216  2 00001 2 00211         TIX     WRT2+1,2,1       TIX ON L2
      00217  1 77777 2 00220         TXI     *+1,2,-1
      00220 -0500 00 0 00253  RET    CAL     FLAGS
      00221 -0320 00 0 00266         ANA     =O4
      00222 -0100 00 0 00231         TNZ     REOUT
      00223  0634 00 3 00263         SXA     I3,3
      00224 -0500 00 0 00256         CAL     FLAGS+3
      00225  0771 00 0 00022         ARS     18
      00226  0402 00 0 00263         SUB     I3
      00227  0767 00 0 00022         ALS     18
1            MERGEN  FAP                                                                         PAGE 4

      00230  0020 00 0 00235         TRA     CDS
      00231  0500 00 0 00263  REOUT  CLA     I3
      00232  0634 00 3 00263         SXA     I3,3
      00233  0402 00 0 00263         SUB     I3
      00234  0767 00 0 00022         ALS     18
      00235  3 00000 1 00237  CDS    TXH     *+2,1,0
      00236 -0501 00 0 00264         ORA     =O1
      00237  3 00000 2 00241         TXH     *+2,2,0
      00240 -0501 00 0 00265         ORA     =O2
      00241  3 00000 3 00243         TXH     *+2,3,0
      00242 -0501 00 0 00266         ORA     =O4
      00243  0774 00 1 00000  XR1    AXT     ,1
      00244  0774 00 2 00000  XR2    AXT     ,2               RESTORE XR'S
      00245  0774 00 3 00000  XR3    AXT     ,3               ..
      00246  0774 00 4 00000  XR4    AXT     ,4
      00247  0774 00 5 00000  XR5    AXT     ,5               ..
      00250  0774 00 6 00000  XR6    AXT     ,6
      00251  0774 00 7 00000  XR7    AXT     ,7               ..
      00252  0020 00 4 00007         TRA     7,4              RETURN TO CALLER
      00253                   FLAGS  BSS     6
      00261  0 00000 0 00000  TEM    PZE
      00262  0 00000 0 00000  MXTEST PZE
      00263  0 00000 0 00000  I3     PZE
                                     END

        LITERALS
      00264  000000000001
      00265  000000000002
      00266  000000000004
      00267  000000000010
      00270  000000000020
1            MERGEN  FAP                                                                         PAGE 1
                        POST PROCESSOR ASSEMBLY DATA

        271 IS THE FIRST LOCATION NOT USED BY THIS PROGRAM

0REFERENCES TO DEFINED SYMBOLS
        143     EQ   123
        154     GR    45,   73,  160
        153     I1    32,   43,  135,  146,  161
        164     I2    33,   56,  126,  134,  147
        263     I3    34,  223,  226,  231,  232,  233
        152     I5    15,  110,  125,  136,  144,  150,  163
        162     I7   101,  137
        127     LE    60,   72,  133
        235    CDS   230
        220    RET   113,  142,  167,  173,  177,  200,  201,  207,  210,  211
        261    TEM   116,  121
         50    TWO    37
        243    XR1     6
        244    XR2     7
        245    XR3    10
        246    XR4    11
        247    XR5    12
        250    XR6    13
        251    XR7    14
          0   ARGS    26
        170   END1   111,  165
        174   END2   112,  140
        114   TEST    47,   62,  103,  104,  141,  145,  151,  166
        122   TRA1    17,   23
        124   TRA2    16,   20,   24
        200   WRT1    46,   74,  176,  206
        210   WRT2    61,   75,  172,  216
        253  FLAGS    30,   31,   40,   44,   53,   57,   66,   71,   76,  102,  105,  170,  174,  220,  224
         76  MASKS    65
        231  REOUT   222
         63  THREE    52
          5 MERGEN     0
          3 MERGEX     0
        262 MXTEST     3,    5,   21

0 NO ERROR IN ABOVE ASSEMBLY.


  ARGS   BCD 08/08/68 2229.9     661         00000
1                                                                                                PAGE 1

                       00002         ENTRY   ARGS

            LINKAGE DIRECTOR
      00000  000000000000
      00001  215127626060

      00002  0634 00 4 00054  ARGS   SXA     XR4,4
      00003  0634 00 1 00053         SXA     XR1,1
      00004  0500 00 4 00001         CLA     1,4
      00005  0771 00 0 00022         ARS     18
      00006  0601 00 0 00056         STO     LEN
      00007  0361 00 4 00001         ACL     1,4
      00010  0361 00 0 00057         ACL     =1
      00011  0621 00 0 00016         STA     GETLOC
      00012 -0500 00 4 00002         CAL     2,4
      00013  0361 00 0 00056         ACL     LEN
      00014  0621 00 0 00051         STA     ARGLOC
      00015  0534 00 4 00056         LXA     LEN,4
      00016 -0500 00 4 00000  GETLOC CAL     ,4
      00017 -0340 00 0 00061         LAS     =O277777777777
      00020  0020 00 0 00035         TRA     PTH
      00021  0020 00 0 00022         TRA     *+1
      00022 -0340 00 0 00060         LAS     =O177777777777
      00023  0020 00 0 00026         TRA     *+3
      00024  0020 00 0 00051         TRA     ARGLOC
      00025  0020 00 0 00051         TRA     ARGLOC
      00026  0602 00 0 00056         SLW     LEN
      00027 -0734 00 1 00000         PDX     ,1
      00030  0634 00 1 00031         SXA     *+1,1
      00031  0534 00 1 00000         LXA     ,1
      00032 -0634 00 1 00056         SXD     LEN,1
      00033 -0500 00 0 00056         CAL     LEN
      00034  0020 00 0 00051         TRA     ARGLOC
      00035 -0340 00 0 00062  PTH    LAS     =O400000000000
      00036  0020 00 0 00051         TRA     ARGLOC
      00037  0020 00 0 00051         TRA     ARGLOC
      00040 -0734 00 1 00000         PDX     ,1
      00041 -0130 00 0 00000         XCL
      00042  0754 00 1 00000         PXA     ,1
      00043  0100 00 0 00046         TZE     GETARG
      00044 -0130 00 0 00000         XCL
      00045  0020 00 0 00051         TRA     ARGLOC
      00046 -0130 00 0 00000  GETARG XCL
      00047  0621 00 0 00050         STA     *+1
 A    00050  0500 00 0 00000         CLA
      00051  0602 00 4 00000  ARGLOC SLW     ,4
      00052  2 00001 4 00016         TIX     GETLOC,4,1
      00053  0774 00 1 00000  XR1    AXT     ,1
      00054  0774 00 4 00000  XR4    AXT     ,4
      00055  0020 00 4 00003         TRA     3,4
      00056  0 00000 0 00000  LEN    PZE
                                     END

        LITERALS
      00057  000000000001
      00060  177777777777
1                                                                                                PAGE 2

      00061  277777777777
      00062  400000000000
1                                                                                                PAGE 1
                        POST PROCESSOR ASSEMBLY DATA

         63 IS THE FIRST LOCATION NOT USED BY THIS PROGRAM

0REFERENCES TO DEFINED SYMBOLS
         56    LEN     6,   13,   15,   26,   32,   33
         35    PTH    20
         53    XR1     3
         54    XR4     2
          2   ARGS     0
         51 ARGLOC    14,   24,   25,   34,   36,   37,   45
         46 GETARG    43
         16 GETLOC    11,   52

0 NO ERROR IN ABOVE ASSEMBLY.


GETFIL   BCD 08/08/68 2229.9     509         00000
1     MAD PROGRAM LISTING ... ... ...                 FILE  GETFIL   MAD            08/08/68    2210.2
-
                  EXTERNAL FUNCTION (ARG)                                                         *001 LM00001
                  ENTRY TO GETFIL.                                                                *002 LM00002
                  NORMAL MODE IS INTEGER                                                          *003 LM00003
                  FUNCTION RETURN DERBC.(BCDEC.((ARG.A.777777K)+1)).V.$...000$                    *004 LM00004
                  END OF FUNCTION                                                                 *005 LM00005
1MAD PROGRAM,TYPE NOV 1963      (ALL NUMBERS ARE OCTAL)
0TOTAL LOCATIONS   00052 TRANSFER VECTOR LENGTH  00003 PROGRAM BEGINS    00010
0 PROGRAM IS AN EXTERNAL FUNCTION.   THE FOLLOWING ARE ENTRIES
      GETFIL 00011   0
0FUNCTION DICTIONARY
      BCDEC  00000   1        DERBC  00001   1        EXIT   00002   1
0ABSOLUTE CONSTANTS
 00007 +333333000000     00005 +000000777777     00004 +000000000001     00006 +233000000000
0PROGRAM
                 EXTERNAL FUNCTION (ARG)                                            001  LM00001
                 E'O GETFIL.                                                        002  LM00002
 00010 TRA +0 02000 0 00013    00011 SXA +0 63400 2 00035    00012 TSX +0 07400 2 00035
                 N'R                                                                003  LM00003
                 F'N DERBC.(BCDEC.((ARG.A.777777K)+1)).V.$...000$                   004  LM00004
 00013 CAL -0 50000 0 00024    00014 ANA -0 32000 0 00005    00015 SLW +0 60200 0 00047    00016 CLA +0 50000 0 00047
 00017 ADD +0 40000 0 00004    00020 STO +0 60100 0 00047    00021 TSX +0 07400 4 00000    00022 TXH +3 00000 0 00047
 00023 STO +0 60100 0 00047    00024 TSX +0 07400 4 00001    00025 TXH +3 00000 0 00047    00026 STO +0 60100 0 00047
 00027 CAL -0 50000 0 00047    00030 ORA -0 50100 0 00007    00031 SLW +0 60200 0 00047    00032 CLA +0 50000 0 00047
 00033 TRA +0 02000 0 00043
                 E'N                                                                005  LM00005
 00034 TSX +0 07400 4 00002    00035 TXH +3 00000 0 00000    00036 SXD -0 63400 1 00035    00037 SXA +0 63400 4 00043
 00040 CLA +0 50000 4 00001    00041 STA +0 62100 0 00013    00042 TRA +0 02000 2 00001    00043 AXT +0 77400 4 00000
 00044 LXA +0 53400 2 00035    00045 LXD -0 53400 1 00035    00046 TRA +0 02000 4 00001


   SPY   BCD 09/20/68 0221.1    9825         00000
1     MAD PROGRAM LISTING ... ... ...                 FILE    SPY2   MAD            02/15/68    1817.6
-
                 ...NEW SPY PROGRAM                                                                    LM00001
                                                                                                       LM00002
                  DIMENSION COMDLN(19)                                                            *001 LM00003
                  DIMENSION IDENT(1)                                                              *002 LM00004
                                                                                                       LM00005
                   MAKE SURE PROPER USER                                                               LM00006
                                                                                                       LM00007
                  GETCLS. (COMDLN(19))                                                            *003 LM00008
                  WHOAMI.(IDENT(1)...2)                                                           *004 LM00009
                  WHENEVER ((IDENT(1).NE.$ M1416$).AND.(IDENT(1).NE.$ M4060$))                    *005 LM00010
                     PRMESS.(COMDLN(19),$ NOT FOUND.$)                                            *006 LM00011
                     PRMESS.($READY.$,CR)                                                         *007 LM00012
                        VECTOR VALUES CR=555757575757K                                            *008 LM00013
                     IZERO = IZERO                                                                *009 LM00014
                        VECTOR VALUES IZERO = 0                                                   *010 LM00015
                     SLEEP.                                                                       *011 LM00016
                     PRMESS.($ ILLEGAL SEQUENCE OF COMMANDS.$)                                    *012 LM00017
                     CHNCOM.(0)                                                                   *013 LM00018
                  END OF CONDITIONAL                                                              *014 LM00019
                                                                                                       LM00020
                                                                                                       LM00021
                  NPROB=SPLFN.(COMARG.(1))                                                        *015 LM00022
                  NPROG=COMARG.(2)                                                                *016 LM00023
                                                                                                       LM00024
      LOOP        A=ISIN.(NPROB,NPROG)                                                            *017 LM00025
                  WHENEVER A.E.0                                                                  *018 LM00026
                       WHENEVER FIRST, PRMESS.(NPROB,NPROG,$ NOT I$,$N YET$)                      *019 LM00027
                       FIRST = 0B                                                                 *020 LM00028
                       A = 10                                                                     *021 LM00029
                       SLEEP.(10)                                                                 *022 LM00030
                       TRANSFER TO LOOP                                                           *023 LM00031
                  END OF CONDITIONAL                                                              *024 LM00032
                                                                                                       LM00033
                 ...WHEE.                                                                              LM00034
                                                                                                       LM00035
                  UNI=COMLOC.($UNITID$)                                                           *025 LM00036
                  PRMESS.                                                                         *026 LM00037
                  GETTM.(DATE,TIME)                                                               *027 LM00038
                  PRMESS.(NPROB,NPROG,$ LINE$,DERBC.(A),BB,DATE,BB,TIME,BB,                       *028 LM00039
                1  GLOC.(UNI+A))                                                                  *028 LM00040
                                                                                                       LM00041
                  CHNCOM.(1)                                                                      *029 LM00042
                                                                                                       LM00043
                 ...IF WE START AND SAY SLAVE, HE IS CAUGHT.                                           LM00044
                                                                                                       LM00045
                  ADOPT=COMLOC.($ADOPT$)                                                          *030 LM00046
                  USR=COMLOC.($USER$)                                                             *031 LM00047
                                                                                                       LM00048
                  SLOC.(IOOO.V.A,ADOPT+GLOC.(USR))                                                *032 LM00049
                  SLOC.(SLAVER.V.IOOO.V.GLOC.(ADOPT+A),ADOPT+A)                                   *033 LM00050
                                                                                                       LM00051
                 ....CONNECTION MADE                                                                   LM00052
                                                                                                       LM00053
                  TEMP = TEMP                                                                     *034 LM00054
      SLX         SLEEP.(10)                                                                      *035 LM00055
                  WHENEVER ((GLOC.(ADOPT+GLOC.(USR)).EX.(IOOO.V.A)).A.PTA)                        *036 LM00056
                1   .V.((GLOC.(ADOPT+A).EX.(SLAVER.V.IOOO))                                       *036 LM00057
                2   .A.(SLAVER.V.IOOO)) .NE. 0, TRANSFER TO LOOP                                  *036 LM00058
                  TRANSFER TO SLX                                                                 *037 LM00059
                                                                                                       LM00060
                  VECTOR VALUES FIRST=1B                                                          *038 LM00061
                  VECTOR VALUES TEMP = 10                                                         *039 LM00062
                  VECTOR VALUES PTA=700 000 777 777K                                              *040 LM00063
                  VECTOR VALUES BB=605757 575757K                                                 *041 LM00064
                  VECTOR VALUES IOOO=3K5                                                          *042 LM00065
                  VECTOR VALUES SLAVER=7K11                                                       *043 LM00066
                  NORMAL MODE IS INTEGER                                                          *044 LM00067
                  END OF PROGRAM                                                                  *045 LM00068
1MAD PROGRAM,TYPE NOV 1963      (ALL NUMBERS ARE OCTAL)
0TOTAL LOCATIONS   00363 TRANSFER VECTOR LENGTH  00017 PROGRAM BEGINS    00115
0VARIABLE STORAGE (A=ARRAY,C=COMMON,E=ERASABLE,DIGIT=MODE)
      ADOPT  00022   1        CR     00051 A 1        IOOO   00056 A 1        NPROG  00061   1        TEMP   00064 A 1
      A      00023   1        DATE   00052   1        IZERO  00057 A 1        PTA    00062 A 1        TIME   00065   1
      BB     00024 A 1        FIRST  00053 A 2        LOOP   00020   4        SLAVER 00063 A 1        UNI    00066   1
      COMDLN 00050 A 1        IDENT  00055 A 1        NPROB  00060   1        SLX    00021   4        USR    00067   1
0FUNCTION DICTIONARY
      CHNCOM 00000   1        COMARG 00001   1        COMLOC 00002   1        DERBC  00003   1        EXIT   00004   1
      GETCLS 00005   1        GETTM  00006   1        GLOC   00007   1        ISIN   00010   1        .SETUP 00011   1
      PRMESS 00012   1        SLEEP  00013   1        SLOC   00014   1        SPLFN  00015   1        WHOAMI 00016   1
0ABSOLUTE CONSTANTS
 00114 -246225516060     00074 +212446476360     00105 -204331452560     00113 -244531633124     00073 +000000000012
 00100 -056070256360     00111 -204546636031     00070 +000000000000     00077 -042145246233     00101 -062660234644
 00112 -242545232560     00075 +214360622550     00104 -203143432527     00103 -112521247033     00102 -066445243360
 00110 -204546636026     00106 -204401040106     00107 -204404000600     00072 +000000000002     00071 +000000000001
 00076 +233000000000
0STATEMENT DICTIONARY
 00020 TXL -300167000163       00021 TXL -300311000307
0PROGRAM
                 D'N COMDLN(19)                                                     001  LM00003
                 D'N IDENT(1)                                                       002  LM00004
                 GETCLS. (COMDLN(19))                                               003  LM00008
 00115 TSX +0 07400 4 00011    00116 TSX +0 07400 4 00005    00117 TXH +3 00000 0 00025
                 WHOAMI.(IDENT(1)...2)                                              004  LM00009
 00120 TSX +0 07400 4 00016    00121 TIX +2 00072 0 00054
                 W'R ((IDENT(1).NE.$ M1416$).AND.(IDENT(1).NE.$ M4060$))            005  LM00010
 00122 CLA +0 50000 0 00054    00123 SUB +0 40200 0 00107    00124 TZE +0 10000 0 00152    00125 CLA +0 50000 0 00054
 00126 SUB +0 40200 0 00106    00127 TZE +0 10000 0 00152
                    PRMESS.(COMDLN(19),$ NOT FOUND.$)                               006  LM00011
 00130 TSX +0 07400 4 00012    00131 TXH +3 00000 0 00025    00132 TXH +3 00000 0 00110    00133 TXH +3 00000 0 00102
                    PRMESS.($READY.$,CR)                                            007  LM00012
 00134 TSX +0 07400 4 00012    00135 TXH +3 00000 0 00103    00136 TXH +3 00000 0 00051
                       V'S CR=555757575757K                                         008  LM00013
 00051     -1 55757 5 75757
                    IZERO = IZERO                                                   009  LM00014
 00137 CLA +0 50000 0 00057    00140 STO +0 60100 0 00057
                       V'S IZERO = 0                                                010  LM00015
 00057     +0 00000 0 00000
                    SLEEP.                                                          011  LM00016
 00141 TSX +0 07400 4 00013
                    PRMESS.($ ILLEGAL SEQUENCE OF COMMANDS.$)                       012  LM00017
 00142 TSX +0 07400 4 00012    00143 TXH +3 00000 0 00104    00144 TXH +3 00000 0 00075    00145 TXH +3 00000 0 00112
 00146 TXH +3 00000 0 00101    00147 TXH +3 00000 0 00077
                    CHNCOM.(0)                                                      013  LM00018
 00150 TSX +0 07400 4 00000    00151 TXH +3 00000 0 00070
                 E'L                                                                014  LM00019
                 NPROB=SPLFN.(COMARG.(1))                                           015  LM00022
 00152 TSX +0 07400 4 00001    00153 TXH +3 00000 0 00071    00154 STO +0 60100 0 00356    00155 TSX +0 07400 4 00015
 00156 TXH +3 00000 0 00356    00157 STO +0 60100 0 00060
                 NPROG=COMARG.(2)                                                   016  LM00023
 00160 TSX +0 07400 4 00001    00161 TXH +3 00000 0 00072    00162 STO +0 60100 0 00061
      LOOP       A=ISIN.(NPROB,NPROG)                                               017  LM00025
 00163 TSX +0 07400 4 00010    00164 TXH +3 00000 0 00060    00165 TXH +3 00000 0 00061    00166 STO +0 60100 0 00023
                 W'R A.E.0                                                          018  LM00026
 00167 CLA +0 50000 0 00023    00170 SUB +0 40200 0 00070    00171 TNZ -0 10000 0 00210
                      W'R FIRST, PRMESS.(NPROB,NPROG,$ NOT I$,$N YET$)              019  LM00027
 00172 NZT -0 52000 0 00053    00173 TRA +0 02000 0 00201    00174 TSX +0 07400 4 00012    00175 TXH +3 00000 0 00060
 00176 TXH +3 00000 0 00061    00177 TXH +3 00000 0 00111    00200 TXH +3 00000 0 00100
                      FIRST = 0B                                                    020  LM00028
 00201 CLA +0 50000 0 00070    00202 STO +0 60100 0 00053
                      A = 10                                                        021  LM00029
 00203 CLA +0 50000 0 00073    00204 STO +0 60100 0 00023
                      SLEEP.(10)                                                    022  LM00030
 00205 TSX +0 07400 4 00013    00206 TXH +3 00000 0 00073
                      T'O LOOP                                                      023  LM00031
 00207 TRA +0 02000 0 00020
                 E'L                                                                024  LM00032
                 UNI=COMLOC.($UNITID$)                                              025  LM00036
 00210 TSX +0 07400 4 00002    00211 TXH +3 00000 0 00113    00212 STO +0 60100 0 00066
                 PRMESS.                                                            026  LM00037
 00213 TSX +0 07400 4 00012
                 GETTM.(DATE,TIME)                                                  027  LM00038
 00214 TSX +0 07400 4 00006    00215 TXH +3 00000 0 00052    00216 TXH +3 00000 0 00065
                 PRMESS.(NPROB,NPROG,$ LINE$,DERBC.(A),BB,DATE,BB,TIME,BB,          028  LM00039
                1 GLOC.(UNI+A))                                                     028  LM00040
 00217 CLA +0 50000 0 00066    00220 ADD +0 40000 0 00023    00221 STO +0 60100 0 00356    00222 TSX +0 07400 4 00007
 00223 TXH +3 00000 0 00356    00224 STO +0 60100 0 00356    00225 TSX +0 07400 4 00003    00226 TXH +3 00000 0 00023
 00227 STO +0 60100 0 00357    00230 TSX +0 07400 4 00012    00231 TXH +3 00000 0 00060    00232 TXH +3 00000 0 00061
 00233 TXH +3 00000 0 00105    00234 TXH +3 00000 0 00357    00235 TXH +3 00000 0 00024    00236 TXH +3 00000 0 00052
 00237 TXH +3 00000 0 00024    00240 TXH +3 00000 0 00065    00241 TXH +3 00000 0 00024    00242 TXH +3 00000 0 00356
                 CHNCOM.(1)                                                         029  LM00042
 00243 TSX +0 07400 4 00000    00244 TXH +3 00000 0 00071
                 ADOPT=COMLOC.($ADOPT$)                                             030  LM00046
 00245 TSX +0 07400 4 00002    00246 TXH +3 00000 0 00074    00247 STO +0 60100 0 00022
                 USR=COMLOC.($USER$)                                                031  LM00047
 00250 TSX +0 07400 4 00002    00251 TXH +3 00000 0 00114    00252 STO +0 60100 0 00067
                 SLOC.(IOOO.V.A,ADOPT+GLOC.(USR))                                   032  LM00049
 00253 TSX +0 07400 4 00007    00254 TXH +3 00000 0 00067    00255 ADD +0 40000 0 00022    00256 STO +0 60100 0 00357
 00257 CAL -0 50000 0 00056    00260 ORA -0 50100 0 00023    00261 SLW +0 60200 0 00356    00262 TSX +0 07400 4 00014
 00263 TXH +3 00000 0 00356    00264 TXH +3 00000 0 00357
                 SLOC.(SLAVER.V.IOOO.V.GLOC.(ADOPT+A),ADOPT+A)                      033  LM00050
 00265 CLA +0 50000 0 00022    00266 ADD +0 40000 0 00023    00267 STO +0 60100 0 00357    00270 CLA +0 50000 0 00022
 00271 ADD +0 40000 0 00023    00272 STO +0 60100 0 00356    00273 TSX +0 07400 4 00007    00274 TXH +3 00000 0 00356
 00275 STO +0 60100 0 00356    00276 CAL -0 50000 0 00063    00277 ORA -0 50100 0 00056    00300 ORA -0 50100 0 00356
 00301 SLW +0 60200 0 00356    00302 TSX +0 07400 4 00014    00303 TXH +3 00000 0 00356    00304 TXH +3 00000 0 00357
                 TEMP = TEMP                                                        034  LM00054
 00305 CLA +0 50000 0 00064    00306 STO +0 60100 0 00064
      SLX        SLEEP.(10)                                                         035  LM00055
 00307 TSX +0 07400 4 00013    00310 TXH +3 00000 0 00073
                 W'R ((GLOC.(ADOPT+GLOC.(USR)).EX.(IOOO.V.A)).A.PTA)                036  LM00056
                1  .V.((GLOC.(ADOPT+A).EX.(SLAVER.V.IOOO))                          036  LM00057
                2  .A.(SLAVER.V.IOOO)) .NE. 0, T'O LOOP                             036  LM00058
 00311 CAL -0 50000 0 00063    00312 ORA -0 50100 0 00056    00313 SLW +0 60200 0 00357    00314 CAL -0 50000 0 00063
 00315 ORA -0 50100 0 00056    00316 SLW +0 60200 0 00356    00317 CLA +0 50000 0 00022    00320 ADD +0 40000 0 00023
 00321 STO +0 60100 0 00360    00322 TSX +0 07400 4 00007    00323 TXH +3 00000 0 00360    00324 STO +0 60100 0 00360
 00325 CAL -0 50000 0 00360    00326 ERA +0 32200 0 00356    00327 ANA -0 32000 0 00357    00330 SLW +0 60200 0 00360
 00331 CAL -0 50000 0 00056    00332 ORA -0 50100 0 00023    00333 SLW +0 60200 0 00357    00334 TSX +0 07400 4 00007
 00335 TXH +3 00000 0 00067    00336 ADD +0 40000 0 00022    00337 STO +0 60100 0 00356    00340 TSX +0 07400 4 00007
 00341 TXH +3 00000 0 00356    00342 STO +0 60100 0 00356    00343 CAL -0 50000 0 00356    00344 ERA +0 32200 0 00357
 00345 ANA -0 32000 0 00062    00346 ORA -0 50100 0 00360    00347 SLW +0 60200 0 00360    00350 CLA +0 50000 0 00360
 00351 SUB +0 40200 0 00070    00352 TZE +0 10000 0 00354    00353 TRA +0 02000 0 00020
                 T'O SLX                                                            037  LM00059
 00354 TRA +0 02000 0 00021
                 V'S FIRST=1B                                                       038  LM00061
 00053     +0 00000 0 00001
                 V'S TEMP = 10                                                      039  LM00062
 00064     +0 00000 0 00012
                 V'S PTA=700 000 777 777K                                           040  LM00063
 00062     -3 00000 7 77777
                 V'S BB=605757 575757K                                              041  LM00064
 00024     -2 05757 5 75757
                 V'S IOOO=3K5                                                       042  LM00065
 00056     +0 00000 3 00000
                 V'S SLAVER=7K11                                                    043  LM00066
 00063     -3 00000 0 00000
                 N'R                                                                044  LM00067
                 E'M                                                                045  LM00068
 00355 TSX +0 07400 4 00004
1            UTILITY ROUTINES FOR LOGIN AND LOGOUT.                                              PAGE 1

                                             2/8/66 - NOEL I. MORRIS

                       00001         ENTRY   ISIN          DETERMINE IF USER LOGGED IN
                       00027         ENTRY   FINDSB        FIND A STANDBY USER
                       00062         ENTRY   KILL          MURDER A LOSER
                       00140         ENTRY   CHKLU         CHECK FOR KLUDGE USER

                                     UNLIST
 M                            S      COMMON  M             MACRO TO REDEFINE COMMON
 M                            LDISW  MACRO   S,X
 M                            STISW  MACRO   S,X
 M                            CALL   MACRO   SUBR,LIST

1            UTILITY ROUTINES FOR LOGIN AND LOGOUT.                                              PAGE 2
                           ISIN - DETERMINE IF USER ALREADY LOGGED IN.


                              * * * * * * * * * * * * * * * * * * * * * * * * * * * * * * * * * * * *
                              *
                              *      CALLING SEQUENCE -
                              *
                              *      LINE = ISIN. (PROB, PROG)
                              *
                              *      IF USER IS NOT LOGGED IN,  LINE IS SET TO ZERO.
                              *      OTHERWISE LINE IS SET TO THE LINE NO. OF THE USER.
                              *
                              *
                              * * * * * * * * * * * * * * * * * * * * * * * * * * * * * * * * * * * *


      00001  0634 00 4 00022  ISIN   SXA     SX4,4         SAVE XR4
      00002  0760 00 0 00016         EAXM                  ENTER 7-TAG MODE  **

      00003 -0500 60 4 00001         CAL*    1,4           PICK UP PROBLEM NO.
      00004  0602 00 0 00155         SLW     PROB          ..
      00005 -0500 60 4 00002         CAL*    2,4           AND PROGRAMMER NO.
      00006  0602 00 0 00156         SLW     PROG          ..

      00007  0774 00 4 00043         AXT     N,4           SEARCH ALL N LINES
      00010                   LOOP   XEC.A   CAL(PROBN+N+1,4) GET PROBLEM NO.
      00012  0322 00 0 00155         ERA     PROB          COMPARE
      00013 -0100 00 0 00020         TNZ     NEXT          ..
      00014                          XEC.A   CAL(PROGN+N+1,4) GET PROGRAMMER NO.
      00016  0322 00 0 00156         ERA     PROG          COMPARE
      00017  0100 00 0 00024         TZE     FND           USER FOUND
      00020  2 00001 4 00010  NEXT   TIX     LOOP,4,1      ..

      00021 -0754 00 0 00000         ZAC                   ZERO MEANS USER NOT FOUND
      00022  0774 00 4 00000  SX4    AXT     **,4          RESTORE XR4
      00023  0020 00 4 00002         TRA     2,4           AND RETURN

      00024  1 77734 4 00025  FND    TXI     *+1,4,-N-1    COMPUTE USER'S LINE NO.
      00025  0756 00 4 00000         PCA     ,4            AND PLACE IN A
      00026  0020 00 0 00022         TRA     SX4           RETURN WITH NO. IN AC
1            UTILITY ROUTINES FOR LOGIN AND LOGOUT.                                              PAGE 3
                           FINDSB - FIND A STANDBY USER.


                              * * * * * * * * * * * * * * * * * * * * * * * * * * * * * * * * * * * *
                              *
                              *      CALLING SEQUENCE -
                              *
                              *      LOSER = FINDSB. (T.GRP)
                              *
                              *
                              *      IF 'T.GRP' IS ZERO, THE STANDBY USER WHO HAS USED MOST TIME
                              *      WILL BE RETURNED.
                              *      IF 'T.GRP' IS NON-ZERO, THE STANDBY USER MUST BE IN
                              *      PARTY-GROUP 'T.GRP'.
                              *
                              *
                              * * * * * * * * * * * * * * * * * * * * * * * * * * * * * * * * * * * *


      00027  0634 00 4 00060  FINDSB SXA     FSX4,4        SAVE XR4
      00030  0760 00 0 00016         EAXM                   ENTER 7-TAG MODE **
      00031  0500 60 4 00001         CLA*    1,4           GET 'T.GRP'
      00032  0602 00 0 00160         SLW     T.GRP         INSURE NUMBER POSITIVE

      00033  0600 00 0 00157         STZ     LOSER         INITIALIZE
      00034  0600 00 0 00161         STZ     UTM           ..
      00035 -0774 00 4 00003         AXC     3,4           ..
      00036                   SBLOOP XEC.A   NZT(PROBN,4)  IF LOGGED IN,
      00040  0020 00 0 00055         TRA     SBTIX         ..
      00041                          XEC.A   CLA(GRPNO.,4) ..
      00043  0120 00 0 00055         TPL     SBTIX         AND A STANDBY,
      00044 -0520 00 0 00160         NZT     T.GRP         CHECK FOR 'T.GRP' SPECIFIED
      00045  0020 00 0 00050         TRA     *+3           ..
      00046  0400 00 0 00160         ADD     T.GRP         COMPARE WITH SPECIFIED 'T.GRP'
      00047 -0100 00 0 00055         TNZ     SBTIX         ..

      00050                          XEC.A   CAL(UTIME,4)  GET TIME USED
      00052 -0340 00 0 00161         LAS     UTM           COMPARE AGAINST LARGEST
      00053  0602 00 0 00161         SLW     UTM           SAVE LARGER TIME
      00054  0636 00 4 00157         SCA     LOSER,4       AND INDEX TO THE USER
      00055  1 77777 4 00056  SBTIX  TXI     *+1,4,-1      GO ON TO THE NEXT
      00056  3 77734 4 00036         TXH     SBLOOP,4,-N-1 ..

      00057  0500 00 0 00157         CLA     LOSER         GET USER INDEX
      00060  0774 00 4 00000  FSX4   AXT     **,4          RESTORE XR4
      00061  0020 00 4 00002         TRA     2,4           AND RETURN
1            UTILITY ROUTINES FOR LOGIN AND LOGOUT.                                              PAGE 4
                           KILL - MURDER A LOSER.


                              * * * * * * * * * * * * * * * * * * * * * * * * * * * * * * * * * * * *
                              *
                              *      CALLING SEQUENCE -
                              *
                              *      KILL. (LOSER)
                              *
                              *
                              *      'LOSER' IS THE LINE NUMBER OF THE USER TO BE
                              *      MURDERED.
                              *
                              *
                              * * * * * * * * * * * * * * * * * * * * * * * * * * * * * * * * * * * *


      00062  0634 00 4 00135  KILL   SXA     KX4,4         SAVE XR4
      00063  0760 00 0 00016         EAXM                  ENTER 7-TAG MODE **
      00064  0634 00 2 00136         SXA     KX2,2         AND XR2
      00065 -0500 60 4 00001         CAL*    1,4           GET 'LOSER'
      00066  0602 00 0 00157         SLW     LOSER         ..
      00067  0737 00 2 00000         PAC     ,2            -USER NO. IN XR2

      00070 -0500 00 0 00174         CAL     =HENDLOG      COMMAND FOR 'LOSER'
      00071                          XEC.A   SLW(COMMND,2) ..
      00073                          SCHEDL  =2,LOSER,=1   PULL HIM OUT OF QUEUES AND
      00077                          SCHEDL  =6,LOSER,=0   MAKE HIM RUN
      00103                          SCHEDL  =2,LOSER,=3   AND PLACE IN WAITING COMMAND

      00107  0600 00 0 00162         STZ     12MODE        RESET 12-BIT MODE SWITCH
      00110                          ZETBIT  ,2,FULLBT     CHECK FOR USER IN 12-BIT MODE
      00113 -0625 00 0 00162         STL     12MODE        IF SO, SET 12-BIT MODE SWITCH
      00114                          STZBIT  ,2,FULLBT     MAKE SURE USER IN 6-BIT MODE
      00121                          CALL    RSSWB         AND FLUSH HIS OUTPUT BUFFERS
      00121  0074 00 4 00164         TSX     RSSWB,4                                                          .002
      00122  0 00000 0 00157         PZE     LOSER         ..

      00123                          COMENT  WAIT.,1(WAIT,) AAAAGH ......
      00123  0074 00 4 00165         TSX     WRFLX,4                                                          .003
      00124  3 00001 0 00166         PAR     WAIT.,,1                                                         .005
      00125  0 00000 0 00157         PZE     LOSER         ..

      00126 -0520 00 0 00162         NZT     12MODE        CHECK FOR USER PREVIOUSLY IN 12-BIT MODE
      00127  0020 00 0 00135         TRA     KX4           USER WAS IN 6-BIT MODE
      00130                          STLBIT  ,2,FULLBT     RESET USER'S 12-BIT MODE SWITCH

      00135  0774 00 4 00000  KX4    AXT     **,4          HE SCREAMS
      00136  0774 00 2 00000  KX2    AXT     **,2          BUT
      00137  0020 00 4 00001         TRA     1,4           WE HAVE LEFT
1            UTILITY ROUTINES FOR LOGIN AND LOGOUT.                                              PAGE 5
                           CHKLU - CHECK FOR KLUDGE USER.


                              * * * * * * * * * * * * * * * * * * * * * * * * * * * * * * * * * * * *
                              *
                              *      CALLING SEQUENCE -
                              *
                              *      CINDEX = CHKLU. ()
                              *
                              *      INDEX IS ZERO IF USER IS NOT A KLUDGE USER.
                              *      INDEX IS EITHER 1 OR 2 IF USER IS A KLUDGE USER.
                              *
                              *
                              * * * * * * * * * * * * * * * * * * * * * * * * * * * * * * * * * * * *


      00140  0634 00 4 00153  CHKLU  SXA     CKLX4,4       SAVE XR4
      00141  0760 00 0 00016         EAXM                  ENTER 7-TAG MODE **

      00142 -0500 00 0 77415         CAL     CONSOL        PICK UP USER CONSOLE I.D.
      00143 -0774 00 4 00002         AXC     2,4           ONLY 2 KLUDGE CONSOLES
      00144                   KLOOP  XEC.A   LAS(KLUNIT-1,4) CHECK FOR KLUDGE CONSOLE
      00146  0020 00 0 00150         TRA     *+2           ..
      00147  0020 00 0 00152         TRA     KLFND         FOUND ONE
      00150  1 00001 4 00151         TXI     *+1,4,1       STEP INDEX
      00151  3 00000 4 00144         TXH     KLOOP,4,0     AND CHECK FOR COMPLETION OF SEARCH

      00152  0756 00 4 00000  KLFND  PCA     ,4            INDEX IN AC
      00153  0774 00 4 00000  CKLX4  AXT     **,4          RESTORE XR4
      00154  0020 00 4 00001         TRA     1,4           AND RETURN WITH INDEX IN AC
1            UTILITY ROUTINES FOR LOGIN AND LOGOUT.                                              PAGE 6
                           STORAGE AND CONSTANTS.

      00155  0 00000 0 00000  PROB   PZE
      00156  0 00000 0 00000  PROG   PZE
      00157  0 00000 0 00000  LOSER  PZE
      00160  0 00000 0 00000  T.GRP  PZE
      00161  0 00000 0 00000  UTM    PZE
      00162  0 00000 0 00000  12MODE PZE


                                     INSERT  TEMPA

                                             *** COMMON PACKAGE FOR LOGIN PROGRAMS. ***

                       77444         KOMMON  WDSLIN-1      ALL-PURPOSE CARD IMAGE BUFFER
                       77444  CARD   KOMMON  1             ..


                                             *** VECTOR USED BY RDACCT PROGRAMS. ***

                       77411         KOMMON  26
                       77411  TEMPA  KOMMON  1

                       77412  NPROB  SYN     TEMPA+1       USER PROBLEM NUMBER
                       77413  NAME   SYN     TEMPA+2       USER NAME
                       77414  PASSW  SYN     TEMPA+3       PASSWORD
                       77415  CONSOL SYN     TEMPA+4       CONSOLE I.D.
                       77416  NPROG  SYN     TEMPA+5       USER PROGRAMMER NUMBER
                       77417  TA1    SYN     TEMPA+6       ALLOTTED TIME
                       77420  TA2    SYN     TEMPA+7       ..
                       77421  TA3    SYN     TEMPA+8       ..
                       77422  TA4    SYN     TEMPA+9       ..
                       77423  TA5    SYN     TEMPA+10      ..
                       77424  GRP    SYN     TEMPA+11      PARTY GROUP NUMBER
                       77425  SB     SYN     TEMPA+12      NON-ZERO IF USER MAY BE STANDBY
                       77426  MULT   SYN     TEMPA+13      LINE MULTIPLIER
                       77427  UNIT   SYN     TEMPA+14      UNIT GROUP NUMBER
                       77430  CODE   SYN     TEMPA+15      USER RESTRICTION CODE (RCODE)
                       77431  LSTLGT SYN     TEMPA+16      DATE AND TIME OF LAST LOGOUT (2 WORDS)
                       77433  USDFRM SYN     TEMPA+18      DATE AND TIME TIME ACCUMULATED FROM
                       77435  TU1    SYN     TEMPA+20      USED TIME
                       77436  TU2    SYN     TEMPA+21      ..
                       77437  TU3    SYN     TEMPA+22      ..
                       77440  TU4    SYN     TEMPA+23      ..
                       77441  TU5    SYN     TEMPA+24      ..
                       77442  TIMEIN SYN     TEMPA+25      TOTAL CONSOLE TIME USED
                       77443  KLUSED SYN     TEMPA+26      KLUDGE TIME USED


      00163  0101 00 0 00176  SCHEDL TIA     =HSCHEDL

      00164                          RMT     *             REMOTE SEQUENCES
      00164  0101 00 0 00175  RSSWB  TIA     =HRSSWB                                                          .002
      00165  0101 00 0 00177  WRFLX  TIA     =HWRFLX                                                          .002
1            UTILITY ROUTINES FOR LOGIN AND LOGOUT.                                              PAGE 7
                           STORAGE AND CONSTANTS.

      00166  662131637360     WAIT.  BCI     1,WAIT,                                                          .002

                                     END

        LITERALS
      00167  000000000000
      00170  000000000001
      00171  000000000002
      00172  000000000003
      00173  000000000006
      00174  254524434627
      00175  516262662260
      00176  622330252443
      00177  665126436760
1            UTILITY ROUTINES FOR LOGIN AND LOGOUT.                                              PAGE 1
                        POST PROCESSOR ASSEMBLY DATA

       77410 IS THE LAST LOCATION NOT USED BY THIS PROGRAM
        200 IS THE FIRST LOCATION NOT USED BY THIS PROGRAM

0REFERENCES TO DEFINED SYMBOLS
          1      A     1
          2      B     1
      72741      C     1
         43      N     1,    7,   11,   15,   24,   56
      72767     MQ     1
      72771     OV     1
      75126     PB     1
      77425     SB   163
      72770     SI     1
      72766     SQ     1
         24    FND    17
      77424    GRP   163
      72754    ILC     1
      75632    IOD     1
      72763    IR1     1
      72762    IR2     1
      72761    IR3     1
      72760    IR4     1
      72757    IR5     1
      72756    IR6     1
      72755    IR7     1
          1    .F.     1
          0    .I.     1
        136    KX2    64
        135    KX4    62,  127
      72765    LAC     1
         22    SX4     1,   26
      77417    TA1   163
      77420    TA2   163
      77421    TA3   163
      77422    TA4   163
      77423    TA5   163
          1    TMP     1
      77435    TU1   163
      77436    TU2   163
      77437    TU3   163
      77440    TU4   163
      77441    TU5   163
        161    UTM    34,   52,   53
          0   BASE     1
      77444   CARD   163
      77430   CODE   163
      75070   DATE     1
      72775   DVCK     1
      72773   FLMD     1
         60   FSX4    27
          0   GETA    10,   14,   36,   41,   50,   71,  110,  114,  117,  130,  133,  144
      72774   IOCK     1
          1   ISIN     0
         62   KILL     0
1            UTILITY ROUTINES FOR LOGIN AND LOGOUT.                                              PAGE 2
                        POST PROCESSOR ASSEMBLY DATA

         10   LOOP    20
      72772   MTMD     1
      77426   MULT   163
      77413   NAME   163
         20   NEXT    13
        155   PROB     4,   12
        156   PROG     6,   16
      74001   Q1U1     1
      73315   Q1U2     1
      74000   Q3U1     1
      73243   Q3U2     1
      72776   SLTS     1
      75110   SWAP     1
      77070   TAU1     1
      77024   TAU2     1
      76760   TAU3     1
      76714   TAU4     1
      76650   TAU5     1
      77427   UNIT   163
      75071   USER     1
      75042   WAIT     1
      75346  ADOPT     1
      72777  ASTAT     1
      75456  AWAKE     1
      73000  BSTAT     1
        140  CHKLU     0
        153  CKLX4   140
      75063  COMSW     1
      74123  DBUF1     1
      77777  ENBWD     1
       1000  FLBIT     1
      76474  ITIME     1
      77461  ..001     1
      73240  ..121     1
      73212  ..125     1
      73045  ..127     1
      73012  ..136     1
      73007  ..137     1
      72747  ..169     1
        152  KLFND   147
        144  KLOOP   151
         24  LCBUF     1
      77622  LEVEL     1
        157  LOSER    33,   54,   57,   66,   75,  101,  105,  122,  125
         12  MAXLV     1
      20000  NBKBT     1
       4000  NCVBT     1
      77412  NPROB   163
      77416  NPROG   163
      77414  PASSW   163
      75003  PBUFF     1
      77243  PLIST     1
      72751  PRIND     1
      76430  PROBN     1,   11,   37
      76364  PROGN     1,   15
1            UTILITY ROUTINES FOR LOGIN AND LOGOUT.                                              PAGE 3
                        POST PROCESSOR ASSEMBLY DATA

      72764  PTIRS     1
          3  QUITL     1
      76162  RCODE     1
      75040  READY     1
      72752  RLIND     1
        164  RSSWB   121
         55  SBTIX    40,   43,   47
      75076  SHIFT     1
      75075  STNBY     1
      75064  SWPSW     1
      75113  TBASE     1
      77411  TEMPA   163
        160  T.GRP    32,   44,   46
      77151  ULIST     1
      76320  UNAME     1
      76604  UTIME     1,   51
        166  WAIT.   124
        165  WRFLX   123
        162 12MODE   107,  113,  126
         12 ACTFIL     1
         53 AFS1LN     1
        361 AFS2LN     1
         25 AFSCON     1
         26 AFSENL     1
      74047 AFSTU1     1
      73416 AFSTU2     1
      75043 ATLOST     1
      73004 ATRILC     1
      73020 AUTHOR     1
      75053 AUTOND     1
      75046 BASEAD     1
      75116 BEGTIM     1
      75044 BKGATT     1
      75061 BKGTIM     1
      73013 BREAKL     1
      73014 BRKILC     1
      73005 BTRILC     1
      73215 CCBSAV     1
          5 CDEPTH     1
      73241 CFSAVE     1
      73214 CLCSAV     1
      75052 CLKTIM     1
         24 CLNGTH     1
         40 CLOCBT     1
      77461 COMBAS     1
      75676 COMCTR     1
      75172 COMFSW     1
      76006 COMMND     1,   72
      77462 COMRLC     1
      75057 COMTIM     1
      75054 COMWAT     1
      77415 CONSOL   142,  163
      75124 CURUSR     1
      75067 DATEYR     1
      75045 DEMKEY     1
1            UTILITY ROUTINES FOR LOGIN AND LOGOUT.                                              PAGE 4
                        POST PROCESSOR ASSEMBLY DATA

      75047 DSKLOC     1
      77776 DUMMY0     1
      77335 DUMMY2     1
      77150 DUMMY4     1
      77134 DUMMY6     1
      76317 DUMMY7     1
      75041 DUMMY8     1
      75037 DUMMYC     1
      75002 DUMMYE     1
      74122 DUMMYH     1
      74046 DUMMYI     1
      74000 DUMMYJ     1
      73777 DUMMYK     1
      73415 DUMMYL     1
      73314 DUMMYM     1
      76272 DUMY71     1
      73242 EMCOND     1
      75104 EMPLVL     1
      77135 ENDPTR     1
      75072 ESTTIM     1
          1 FIBBIT     1
      75073 FIBPTR     1
      75074 FIBRUN     1
         27 FINDSB     0
          4 FULLBT     1,  112,  116,  132
      75103 FULLEN     1
      75105 FULLVL     1
         24 GROUPS     1
      76226 GRPNO.     1,   42
      76273 GRPTBL     1
      75077 HANGUP     1
        400 HNGLBT     1
         10 HUNGBT     1
      75742 ILINES     1
      75100 INACTV     1
        100 INTBIT     1
      72742 KLTIME     1
      72746 KLUNIT     1,  145
      77443 KLUSED   163
      72744 KLUSER     1
      77666 LENGTH     1
      75101 LEVINC     1
      75111 LEVTIM     1
      77336 LINMUL     1
      77431 LSTLGT   163
      72750 MACOND     1
      75107 MAXLVL     1
      75114 MAXTIM     1
      72753 MEMBND     1
      75106 MINLVL     1
      75125 MXUSRS     1
       1000 NBACBT     1
      10000 NBKBIT     1
       2000 NCVBIT     1
      10000 NDEMBT     1
1            UTILITY ROUTINES FOR LOGIN AND LOGOUT.                                              PAGE 5
                        POST PROCESSOR ASSEMBLY DATA

      77777 NEWTOP     1
      75122 NEWUSR     1
       4000 NFIBBT     1
       2000 NFORBT     1
        200 NINTBT     1
      76540 NOTIME     1
      20000 NPRCBT     1
      75065 NUSERS     1
        660 NWDSPT     1
      75051 NWORDS     1
      75302 OKPROB     1
      75236 OKPROG     1
      73006 OLDILC     1
      77461 OLDTOP     1
      75123 OLDUSR     1
         20 OUTPBT     1
      75112 PAYTIM     1
      75121 PAYUSR     1
         45 Q1U1LN     1
        100 Q1U2LN     1
          0 Q3U1LN     1
         51 Q3U2LN     1
      75102 QNTWAT     1
      75115 QUANTM     1
        100 R636BT     1
          2 RCALBT     1
          1 RCOMBT     1
        200 RDSKBT     1
         40 RKLDBT     1
         20 RPATBT     1
          4 RPROBT     1
         10 RPRVBT     1
      73017 SAVEM1     1
         36 SBLOOP    56
        163 SCHEDL    73,   77,  103
      77732 STATUS     1
      75050 STOPSW     1
      77446 STRTIM     1
      73046 SUBCOM     1
      75060 SWPTIM     1
      75055 SWPWAT     1
      75117 SYSDAT     1
      75120 SYSTIM     1
      77442 TIMEIN   163
      75412 TIMINC     1
      77556 TIMLEV     1
      75066 TIMNOW     1
      73002 TINHIB     1
      75062 TOTTIM     1
      73001 TSSFSW     1
          1 UBACBT     1
      75522 UCHARG     1
      75566 UCLOCK     1
      73022 UCOMBF     1
          2 UCOMBT     1
1            UTILITY ROUTINES FOR LOGIN AND LOGOUT.                                              PAGE 6
                        POST PROCESSOR ASSEMBLY DATA

         10 UDEMBT     1
      73003 UENBWD     1
      73015 UFERTN     1
          4 UFIBBT     1
          2 UFORBT     1
      73016 UILOCK     1
      76052 UNITID     1
         20 UPRCBT     1
      73021 URCODE     1
      77433 USDFRM   163
      75056 USRWAT     1
      76116 USWICH     1,  111,  115,  120,  131,  134
      73213 WATCOM     1
      77512 WATTIM     1
         16 WDSLIN     1,  163
      77402 WRKTIM     1

0 NO ERROR IN ABOVE ASSEMBLY.
1            GETA - EXECUTE INSTRUCTIONS TO A-CORE.                                              PAGE 1

                                             2/3/66 - NOEL I. MORRIS

                              *-*-*-*-*-*-*-*-*-*-*-*-*-*-*-*-*-*-*-*-*-*-*-*-*-*-*-*-*-*-*-*-*-*-*-*
                              *
                              *      TO EXECUTE AN INSTRUCTION REFERRING TO A-CORE -
                              *
                              *      TSX     GETA,7        XR7 MAY NOT BE USED FOR INDEXING
                              *      OPCODE  LOCN,TAG      ..
                              *
                              *      ALL MEMORY REFERENCE INSTRUCTIONS WILL WORK WITH
                              *      THIS SUBROUTINE EXCEPT THE FOLLOWING -
                              *
                              *      ANS                   AND TO STORAGE
                              *      DXXX                  ALL DOUBLE-PRECISION OPERATIONS
                              *
                              *
                              *-*-*-*-*-*-*-*-*-*-*-*-*-*-*-*-*-*-*-*-*-*-*-*-*-*-*-*-*-*-*-*-*-*-*-*


                       00002         ENTRY   GETA


        TRANSFER VECTOR
      00000  272563434623     GETLOC
      00001  622563434623     SETLOC

      00002  0634 00 7 00040  GETA   SXA     X7,7          SAVE XR7
      00003  0074 00 7 00057         TSX     SAVE,7        SAVE MACHINE CONDITIONS
      00004 -0754 00 0 00000         ZAC                   INSURE ZERO TAG
      00005  0625 00 0 00073         STT     INSTR         ..

      00006  0534 00 7 00040         LXA     X7,7          RESTORE XR7
      00007  0560 00 7 00001         LDQ     1,7           GET INSTRUCTION
      00010 -0620 00 0 00073         SLQ     INSTR         SAVE IT
      00011 -0130 00 0 00000         XCL                   ..
      00012  0044 00 0 00000         PAI                   INTO SI
      00013 -0056 00  041400         LNT     41400         IS IT INDEX TRANSMISSION .Q.
      00014  0020 00 0 00053         TRA     GETEFA        NO
      00015  0625 00 0 00073         STT     INSTR         YES, SAVE TAG

      00016  0621 00 0 00027  STA    STA     ADDR1         SAVE ADDRESS
      00017  0621 00 0 00036         STA     ADDR2         ..
      00020  0621 00 0 00043         STA     ADDR3         ..

      00021 -0051 00  060000         IIL     60000         IS IT STORE CLASS .Q.
      00022 -0054 00  370000         LFT     370000        ..
      00023  0020 00 0 00042         TRA     GET           NO, GO TO GETLOC

      00024 -0056 00  002000         LNT     2000          IS IT BYTE STORE .Q.
      00025  0020 00 0 00031         TRA     PUT           NO, SKIP GETLOC
      00026  0074 00 4 00000         TSX     GETLOC,4      GET LOC'N CONTENTS
      00027  3 00000 0 00000  ADDR1  PTH     **            ..
      00030  0602 00 0 00074         SLW     C(LOC)        AND SAVE
1            GETA - EXECUTE INSTRUCTIONS TO A-CORE.                                              PAGE 2

      00031  0074 00 7 00065  PUT    TSX     RESTOR,7      RESTORE MACHINE CONDITIONS
      00032  0522 00 0 00073         XEC     INSTR         EXECUTE INSTRUCTION
      00033  0074 00 7 00057         TSX     SAVE,7        SAVE MACHINE CONDITIONS

      00034 -0500 00 0 00074         CAL     C(LOC)        GET LOC'N CONTENTS NOW
      00035  0074 00 4 00001         TSX     SETLOC,4      AND RESET THEM
      00036  3 00000 0 00000  ADDR2  PTH     **            ..
      00037  0074 00 7 00065         TSX     RESTOR,7      RESTORE MACHINE CONDITIONS
      00040  0774 00 7 00000  X7     AXT     **,7          RESTORE XR7
      00041  0020 00 7 00002         TRA     2,7           RETURN


      00042  0074 00 4 00000  GET    TSX     GETLOC,4      GET LOC'N CONTENTS
      00043  3 00000 0 00000  ADDR3  PTH     **            ..
      00044  0602 00 0 00074         SLW     C(LOC)        AND SAVE

      00045  0074 00 7 00065         TSX     RESTOR,7      RESTORE CONSOLE
      00046  0534 00 7 00040         LXA     X7,7          RESTORE XR7
      00047  0522 00 0 00073         XEC     INSTR         EXECUTE INSTRUCTION
      00050  0020 00 7 00002         TRA     2,7           RETURN
      00051  0020 00 7 00003         TRA     3,7           RETURN FOR 'ZET', 'CAS', ETC.
      00052  0020 00 7 00004         TRA     4,7           ..


      00053  0625 00 0 00054  GETEFA STT     *+1           CALCULATE EFFECTIVE ADDRESS
      00054  0756 00 0 00000         PCA     ,**           ..
      00055  0361 00 7 00001         ACL     1,7           ..
      00056  0020 00 0 00016         TRA     STA           ..


      00057  0634 00 4 00071  SAVE   SXA     X4,4          SAVE MACHINE CONDITIONS
      00060  0602 00 0 00075         SLW     LAC           LOGICAL AC
      00061  0601 00 0 00076         STO     AAC           ARITH. AC
      00062 -0600 00 0 00077         STQ     MQ            SAVE MQ
      00063  0604 00 0 00100         STI     SI            AND SI
      00064  0020 00 7 00001         TRA     1,7           RETURN

      00065  0500 00 0 00076  RESTOR CLA     AAC           ARITH. AC
      00066 -0501 00 0 00075         ORA     LAC           LOGICAL AC
      00067  0560 00 0 00077         LDQ     MQ            MQ
      00070  0441 00 0 00100         LDI     SI            SI
      00071  0774 00 4 00000  X4     AXT     **,4          RESTORE XR4
      00072  0020 00 7 00001         TRA     1,7           RETURN


      00073  0 00000 0 00074  INSTR  ***     C(LOC),**
      00074  0 00000 0 00000  C(LOC) PZE
      00075  0 00000 0 00000  LAC    PZE
      00076  0 00000 0 00000  AAC    PZE
      00077  0 00000 0 00000  MQ     PZE
      00100  0 00000 0 00000  SI     PZE

                                     EXTERN  GETLOC,SETLOC
1            GETA - EXECUTE INSTRUCTIONS TO A-CORE.                                              PAGE 3

                                     END
1            GETA - EXECUTE INSTRUCTIONS TO A-CORE.                                              PAGE 1
                        POST PROCESSOR ASSEMBLY DATA

        101 IS THE FIRST LOCATION NOT USED BY THIS PROGRAM

0REFERENCES TO DEFINED SYMBOLS
         77     MQ    62,   67
        100     SI    63,   70
         71     X4    57
         40     X7     2,    6,   46
         76    AAC    61,   65
         42    GET    23
         75    LAC    60,   66
         31    PUT    25
         16    STA    56
          2   GETA     0
         57   SAVE     3,   33
         27  ADDR1    16
         36  ADDR2    17
         43  ADDR3    20
         73  INSTR     5,   10,   15,   32,   47
         74 C(LOC)    30,   34,   44,   73
         53 GETEFA    14
          0 GETLOC    26,   42
         65 RESTOR    31,   37,   45
          1 SETLOC    35

0 NO ERROR IN ABOVE ASSEMBLY.


SUMMRY   BCD 09/20/68 0221.2   18576         00000
1       THIS ROUTINE PRODUCES THE MONTHLY SUMARY AND TOTALS                                      PAGE 1

                              * FROM TIMUSD TIMACC AND UACCNT TIMACC

                                     EXTERN  BFOPEN,BFCLOS,BFREAD,BFWRIT,DAYMON
                                     EXTERN  LINK,UNLINK
                                     EXTERN  RJUST,LJUST,BZEL,DEFBC,BCDEC
                                     EXTERN  PRNTER,STORGE,ATTACH,FSTATE,GETTM
                                     EXTERN  OPEN,RDFILE,CLOSE

1       THIS ROUTINE PRODUCES THE MONTHLY SUMARY AND TOTALS                                      PAGE 2


                              TUIN   MACRO   X,Y
                                     TSX     BCDEC,4       CONVERTS BINARY MINUTES TO
                                     PTH     X             BCD HOURS, ROUNDED, AND
                                     ADD     =30           STORES INDIRECTLY IN Y
                                     XCA
                                     ZAC
                                     DVP     =60
                                     STQ*    Y
                              TUIN   END


                              UPBCD  MACRO   X,Y           TO ADD A BCD NUMBER TO A
                                     TSX     BCDEC,4       BINARY TOTAL IN Y
                                     PTH     X
                                     ADD     Y
                                     STO     Y
                              UPBCD  END


                              UCSTIN MACRO   TIME,PRICE
                                     LDQ*    TIME          COMPUTE COST OF 'TIME', INDIRECT
                                     MPY     PRICE
                                     XCA
                                     ADD     TEMP          AND UPDATE A TOTAL IN TEMP
                                     STO     TEMP
                              UCSTIN END

                              CONIN  MACRO   TIME,SLOT     MACRO TO PUT TIME INTO SLOT
                                     CLA*    TIME          INDIRECTLY
                                     STO     TEMP          AFTER CONVERSION TO BCD
                                     TSX     CONVRT,4
                                     PTH     TEMP
                                     STO     SLOT
                              CONIN  END


1       THIS ROUTINE PRODUCES THE MONTHLY SUMARY AND TOTALS                                      PAGE 3


                                             THE FOLLOWING ARE THE VARIABLES USED
                                             FOR COMPUTING THE VARIOUS CHARGES--

        TRANSFER VECTOR
      00000  222646472545     BFOPEN
      00001  222623434662     BFCLOS
      00002  222651252124     BFREAD
      00003  222666513163     BFWRIT
      00004  242170444645     DAYMON
      00005  433145426060     LINK
      00006  644543314542     UNLINK
      00007  514164626360     RJUST
      00010  434164626360     LJUST
      00011  227125436060     BZEL
      00012  242526222360     DEFBC
      00013  222324252360     BCDEC
      00014  475145632551     PRNTER
      00015  626346512725     STORGE
      00016  216363212330     ATTACH
      00017  266263216325     FSTATE
      00020  272563634460     GETTM
      00021  464725456060     OPEN
      00022  512426314325     RDFILE
      00023  234346622560     CLOSE

      00024  0020 00 0 00035         TRA     START


      00025  0 00000 0 00454  COST1  PZE     300           INTEGER DOLLARS PER FIRST SHIFT HOUR
      00026  0 00000 0 00310  COST2  PZE     200           SECOND SHIFT
      00027  0 00000 0 00310  COST3  PZE     200           THIRD SHIFT
      00030  0 00000 0 00310  COST4  PZE     200           FOURTH SHIFT
      00031  0 00000 0 00310  COST5  PZE     200           FIFTH SHIFT (FIB)
      00032  0 00000 0 15012  COSTD  PZE     6666          TEN-THOUSANDTHS OF A CENT CHARGED PER
                                                           DISK TRACK PER DAY
      00033  0 00000 0 00144  COSTU  PZE     100           CENTS CHARGED PER U.F.D. TRACK PER DAY
      00034  0 00000 0 00024  COSTS  PZE     20            INTEGER DOLLARS CHARGED PER SUSCRIBER
                                                           WITH OWN U.F.D. PER MONTH


      00035  0774 00 1 00000  START  AXT     0,1           USED AS AN ARGUMENT INDICATOR
      00036  0074 00 4 02353         TSX     GETCOM,4      GET FIRST ARGUMENT
      00037  0 00000 0 00001         PZE     1             ..
      00040  0602 00 0 02262         SLW     NAME2         ACCOUNTING FILE NAME2
      00041 -0340 00 0 02351         LAS     FENCE         IS IT THERE--
      00042  0020 00 0 00044         TRA     *+2           YES
      00043  1 00001 1 00055         TXI     GETMON,1,1    XR1=1--WE WANT TO FIND MONTH AND DAYS
      00044  0074 00 4 02353         TSX     GETCOM,4      PICK UP THE SECOND ARGUMENT
      00045  0 00000 0 00002         PZE     2
      00046 -0340 00 0 02351         LAS     FENCE         IT ALSO MUST BE SUPPLIED
      00047  0020 00 0 00051         TRA     *+2           OK
      00050  1 00002 1 00055         TXI     GETMON,1,2    XR1=2,WE WANT TO GIND THE DAYS IN MONTH
1       THIS ROUTINE PRODUCES THE MONTHLY SUMARY AND TOTALS                                      PAGE 4

      00051  0602 00 0 02335         SLW     DAYS          THERE IT IS
      00052  0074 00 4 00013         TSX     BCDEC,4       CONVERT TO AN INTEGER
      00053  0 00000 0 02335         PZE     DAYS
      00054  0601 00 0 02335         STO     DAYS          AND NOW WE HAVE THE DAYS IN THIS MONTH
      00055  0074 00 4 00004  GETMON TSX     DAYMON,4      GET THE REST OF THE ARGS
      00056  0 00000 0 02262         PZE     NAME2         ACCOUNTING FILE NAME2
      00057  0 00000 0 02335         PZE     DAYS          DAYS IN THE MONTH
      00060  0 00000 0 02336         PZE     MONTH         FULL BCD MONTH
      00061  0560 00 0 02335         LDQ     DAYS
      00062  0200 00 0 00033         MPY     COSTU         FIND MONTHLY DRUM TRACK CHARGE
      00063 -0600 00 0 00033         STQ     COSTU         ..
      00064  0560 00 0 02335         LDQ     DAYS          GET THE NUMBER OF DAYS BACK TO
      00065  0200 00 0 00032         MPY     COSTD         FIND MONTHLY DISK TRACK CHARGE
      00066 -0600 00 0 00032         STQ     COSTD         ..


                                             EXTEND MEMORY BOUND TO MAKE ROOM FOR BUFFERS
                                             AND ALL SORTS OF ARRAYS


      00067  0074 00 4 02354         TSX     GETMEM,4
      00070  0621 00 0 00155         STA     BUF1          THE REST OF THIS STARES ADDRESSES
      00071  0621 00 0 00277         STA     BUF2          STORES ADDRESSES AROUND THE PROGRAM
      00072  0400 00 0 02177         ADD     BUFSIZ
      00073  0621 00 0 00156         STA     BUF3
      00074  0621 00 0 00300         STA     BUF4
      00075  0400 00 0 02177         ADD     BUFSIZ
      00076  0621 00 0 00314         STA     BUF5
      00077  0400 00 0 02177         ADD     BUFSIZ
      00100  0621 00 0 00315         STA     BUF6
      00101  0400 00 0 02177         ADD     BUFSIZ
      00102  0621 00 0 00316         STA     BUF7
      00103  0400 00 0 02177         ADD     BUFSIZ
      00104  0621 00 0 00324         STA     BUF8
      00105  0400 00 0 02177         ADD     BUFSIZ
      00106  0621 00 0 00325         STA     BUF9
      00107  0400 00 0 02177         ADD     BUFSIZ
      00110  0621 00 0 00326         STA     BUF10
      00111  0400 00 0 02177         ADD     BUFSIZ        AND NOW WE FIND THE START ADDRESSES OF
      00112  0621 00 0 02201         STA     TU1           VARIOUS ARRAYS
      00113  0400 00 0 02200         ADD     TBLSIZ        THIS IS THE SHIFT ONE TIME ALLOTED
      00114  0621 00 0 02202         STA     TU2           SHIFT TWO TIME ALLOTTED
      00115  0400 00 0 02200         ADD     TBLSIZ
      00116  0621 00 0 02203         STA     TU3           SHIFT THREE TIME ALLOTTED
      00117  0400 00 0 02200         ADD     TBLSIZ
      00120  0621 00 0 02204         STA     TU4           SHIFT FOUR TIME ALLOTTED
      00121  0400 00 0 02200         ADD     TBLSIZ
      00122  0621 00 0 02205         STA     TU5           SHIFT FIVE (FIB) TIME USED
      00123  0400 00 0 02200         ADD     TBLSIZ
      00124  0621 00 0 02206         STA     NAME          PROGRAMMER NAME
      00125  0400 00 0 02200         ADD     TBLSIZ
      00126  0621 00 0 02207         STA     PROB          PROBLEM NUMBER
      00127  0400 00 0 02200         ADD     TBLSIZ
      00130  0621 00 0 02210         STA     PROG          PROGRAMMER NUMBER
      00131  0400 00 0 02200         ADD     TBLSIZ
      00132  0074 00 4 02355         TSX     SETMEM,4      AND TACK DOWN THE MEMORY BOUND HERE
1       THIS ROUTINE PRODUCES THE MONTHLY SUMARY AND TOTALS                                      PAGE 5

      00133  0074 00 4 02360         TSX     SETBRK,4      SET THE BREAK FOR A GRACEFUL EXIT
      00134  0 00000 0 01753         PZE     BREAK


                                             OPEN AND LOAD TIMUSD TIMACC INTO THE TABLES


      00135  0074 00 4 00005         TSX     LINK,4        TRY TO LINK TO TU NAME2
      00136  3 00000 0 02350         PTH     TU
      00137  3 00000 0 02262         PTH     NAME2
      00140  3 00000 0 02421         PTH     =H M1416      IN M1416 CMFL02
      00141  3 00000 0 02406         PTH     =HCMFL02
      00142  3 00000 0 02350         PTH     TU
      00143  3 00000 0 02262         PTH     NAME2
      00144  3 00000 0 02361         PTH     =0
      00145  3 00000 0 01745         PTH     LNKERR        IF ERROR IN LINK
      00146  3 00000 0 02341         PTH     N
      00147  0500 00 0 02362         CLA     =1            SET LNKFLG TO UNLINK LATER
      00150  0601 00 0 02266         STO     LNKFLG
      00151  0074 00 4 00000  TUOPEN TSX     BFOPEN,4
      00152  3 00000 0 02343         PTH     R
      00153  3 00000 0 02350         PTH     TU
      00154  3 00000 0 02262         PTH     NAME2
      00155  3 00000 0 00000  BUF1   PTH     **
      00156  3 00000 0 00000  BUF3   PTH     **
      00157  3 00000 0 02411         PTH     =-0
      00160  3 00000 0 01751         PTH     ERROR
      00161  0500 00 0 02266         CLA     LNKFLG        CHECK TO SEE IF WE ARE LINKED
      00162  0100 00 0 00170         TZE     LOAD-1        TO TU NAME2------NO,PROCEED
      00163  0074 00 4 00006         TSX     UNLINK,4      YES-UNLINK
      00164  3 00000 0 02350         PTH     TU
      00165  3 00000 0 02262         PTH     NAME2
      00166  3 00000 0 01751         PTH     ERROR
      00167  3 00000 0 02341         PTH     N
      00170  0600 00 0 02213         STZ     I             CLEAR COUNTER
      00171  0074 00 4 00002  LOAD   TSX     BFREAD,4      READ A RECORD FROM TIMUSD TIMACC
      00172  3 00000 0 02350         PTH     TU
      00173  3 00000 0 02262         PTH     NAME2
      00174  3 00034 0 02277         PTH     A,,LINSIZ
      00175  3 00000 0 00264         PTH     LOADED        WHEN DONE GO HERE
      00176  3 00000 0 02341         PTH     N             WE DONT CARE ABOUT THE COUNT
      00177  3 00000 0 01751         PTH     ERROR         BUT WE DO MIND ERRORS
      00200  0535 00 1 02213         LAC     I,1           PLACE THE INFO INTO THE RIGHT SPOT
      00201 -0500 00 0 02301         CAL     A+2
      00202  0602 00 0 02251         SLW     TEMP
      00203  0074 00 4 00010         TSX     LJUST,4
      00204  3 00000 0 02251         PTH     TEMP
      00205  0601 60 0 02206         STO*    NAME          WE JUST EXTRACTED THE NAME
      00206 -0500 00 0 02277         CAL     A             GET PROBLEM NUMBER
      00207  0602 60 0 02207         SLW*    PROB          AND STORE
      00210 -0500 00 0 02300         CAL     A+1           GET PROGRAMMER NUMBER
      00211  0602 60 0 02210         SLW*    PROG
      00212                          TUIN    A+18,TU1      GET THE USED TIMES FROM
      00221                          TUIN    A+19,TU2      TIMUSD TIMACC AND STORE IN
      00230                          TUIN    A+20,TU3      THE TABLES
1       THIS ROUTINE PRODUCES THE MONTHLY SUMARY AND TOTALS                                      PAGE 6

      00237                          TUIN    A+21,TU4
      00246                          TUIN    A+22,TU5
      00255  1 77777 1 00256         TXI     *+1,1,-1
      00256  3 77014 1 00262         TXH     *+4,1,-500    GO UP THE TABLES UNTIL 500 TIMES
      00257  1 00001 1 00260         TXI     *+1,1,1       MORE THAN 500 IF HERE--ERROR
      00260  0074 00 4 02352         TSX     WRFLX,4       SO SAY SO
      00261  0 00007 0 02153         PZE     ERR1,,7
      00262  0636 00 1 02213         SCA     I,1           SAVE THE INDEX
      00263  0020 00 0 00171         TRA     LOAD          AND GO AROUND FOR NEXT RECORD
      00264  0074 00 4 00001  LOADED TSX     BFCLOS,4      ALL DONE LOADING TIMUSD TIMACC
      00265  3 00000 0 02350         PTH     TU            SO CLOSE UP THIS PART
      00266  3 00000 0 02262         PTH     NAME2
      00267  3 00000 0 01751         PTH     ERROR
      00270  0534 00 1 02213         LXA     I,1           GET THE FINAL COUNT
      00271 -0636 00 1 00373         SCD     UMAX,1        AND SAVE FOR LATER USE
      00272 -0636 00 1 01723         SCD     UMAX1,1       ELSEWHERE


                                             NOW WE BEGIN THE MAIN TASK OF GOING THROUGH
                                             UACCNT TIMACC LINE BY LINE TO COMPUTE THE SUMMARY
                                             AND TOTALS BY DEPARTMENT


      00273  0074 00 4 00000         TSX     BFOPEN,4      OPEN UP UACCNT TIMACC
      00274  3 00000 0 02343         PTH     R
      00275  3 00000 0 02342         PTH     UA
      00276  3 00000 0 02345         PTH     TA
      00277  3 00000 0 00000  BUF2   PTH     **
      00300  3 00000 0 00000  BUF4   PTH     **
      00301  3 00000 0 02411         PTH     =-0
      00302  3 00000 0 01751         PTH     ERROR
      00303  0074 00 4 02357         TSX     ATTNAM,4      FIND OUT WHERE HOME IS
      00304  3 00002 0 02263         PTH     HOME,,2
      00305  0074 00 4 00020         TSX     GETTM,4       AND GET THE DATE AND TIME
      00306  3 00000 0 02333         PTH     DATE
      00307  3 00000 0 02334         PTH     TIME
      00310  0074 00 4 00000         TSX     BFOPEN,4      OPEN TOTALS FILE AND
      00311  3 00000 0 02344         PTH     W
      00312  3 00000 0 02347         PTH     TO
      00313  3 00000 0 02262         PTH     NAME2
      00314  3 00000 0 00000  BUF5   PTH     **
      00315  3 00000 0 00000  BUF6   PTH     **
      00316  3 00000 0 00000  BUF7   PTH     **
      00317  3 00000 0 01751         PTH     ERROR
      00320  0074 00 4 00000         TSX     BFOPEN,4      THE SUMMARY FILE
      00321  3 00000 0 02344         PTH     W
      00322  3 00000 0 02346         PTH     SU
      00323  3 00000 0 02262         PTH     NAME2
      00324  3 00000 0 00000  BUF8   PTH     **
      00325  3 00000 0 00000  BUF9   PTH     **
      00326  3 00000 0 00000  BUF10  PTH     **
      00327  3 00000 0 01751         PTH     ERROR
      00330  0074 00 4 00016         TSX     ATTACH,4
      00331  3 00000 0 02413         PTH     =HM.F.D.
1       THIS ROUTINE PRODUCES THE MONTHLY SUMARY AND TOTALS                                      PAGE 7

      00332  3 00000 0 02440         PTH     =H(FILE)
      00333 -0500 00 0 02420         CAL     =H FOR        SET UP THE TITLE MESSAGE
      00334  0602 00 0 02007         SLW     MESS1+3
      00335 -0500 00 0 02336         CAL     MONTH
      00336  0602 00 0 02010         SLW     MESS1+4
      00337 -0500 00 0 02337         CAL     MONTH+1
      00340  0602 00 0 02011         SLW     MESS1+5
      00341 -0500 00 0 02431         CAL     =H TAKEN
      00342  0602 00 0 02012         SLW     MESS1+6
      00343 -0500 00 0 02333         CAL     DATE
      00344  0560 00 0 02334         LDQ     TIME
      00345 -0765 00 0 00006         LGR     6
      00346 -0501 00 0 02416         ORA     =H 00000
      00347  0602 00 0 02013         SLW     MESS1+7
      00350 -0600 00 0 02014         STQ     MESS1+8


                                             THE TITLE IS SET--NOW WE READ UACCNT TIMACC LINE BY LINE
                                             AND PROCESS OUR INFO AD NAUSEUM


      00351  0074 00 4 00002  RDACCT TSX     BFREAD,4      READ THE NEXT LINE
      00352  3 00000 0 02342         PTH     UA
      00353  3 00000 0 02345         PTH     TA
      00354  3 00034 0 02277         PTH     A,,28         28 WORDS PER LINE
      00355  3 00000 0 01607         PTH     .CLOSE        WHEN DONE
      00356  3 00000 0 02341         PTH     N
      00357  3 00000 0 01751         PTH     ERROR         WHEN EVEN DONE-ER
      00360 -0500 00 0 02277         CAL     A             GET FIRST WORD TO TEST
      00361  0322 00 0 02415         ERA     =H*           IF '*', THIS IS A NEW PROBLEM NUMBER
      00362  0100 00 0 01020         TZE     PROBIN        SO GO TAKE CARE OF IT
      00363  0774 00 1 00000         AXT     0,1           START AT THE TOP OF THE LABLES TO LOOK UP
      00364 -0500 00 0 02300  LOOKUP CAL     A+1           THIS GUY
      00365  0322 60 0 02210         ERA*    PROG          CHECK PROGRAMMER NO.
      00366 -0100 00 0 00372         TNZ     *+4           NOPE--
      00367 -0500 60 0 02207         CAL*    PROB          YES--CHECK ALSO PROB NO
      00370  0322 00 0 02261         ERA     PROBN         ..
      00371  0100 00 0 00403         TZE     FOUND         HURRAY...
      00372  1 77777 1 00373         TXI     *+1,1,-1      NOPE--MOVE ON TO NEXT ONE
      00373  3 00000 1 00364  UMAX   TXH     LOOKUP,1,**   DONT EXCEED TABLE LIMITS--QUIT IF TOP

                                             HERE IF NOT IN TABLE


      00374  0600 60 0 02206         STZ*    NAME          MAKE A PLACE AT THE TOP
      00375  0600 60 0 02201         STZ*    TU1
      00376  0600 60 0 02202         STZ*    TU2
      00377  0600 60 0 02203         STZ*    TU3
      00400  0600 60 0 02204         STZ*    TU4
      00401  0600 60 0 02205         STZ*    TU5
      00402  0020 00 0 00416         TRA     GETALT        AND GET THE ALLOTTED TIMES
      00403  0500 60 0 02206  FOUND  CLA*    NAME          CHECK THE NAME--IF -1,
      00404  0400 00 0 02362         ADD     =1            THEN WE'VE USED THIS ONE BEFORE
      00405  0100 00 0 00351         TZE     RDACCT        YES--SKIP IT
1       THIS ROUTINE PRODUCES THE MONTHLY SUMARY AND TOTALS                                      PAGE 8

      00406 -0500 00 0 02261         CAL     PROBN         GET THE PROBLEM NO.
      00407  0322 00 0 02060         ERA     MESS4+1       CHECK AGAINST LAST PROB NO
      00410 -0100 00 0 00416         TNZ     GETALT        NOT THE SAME--PROCEED
      00411  0560 00 0 02300         LDQ     A+1           GET THE PROGRAMMER NO.
      00412 -0773 00 0 00006         RQL     6             CENTER IT
      00413 -0130 00 0 00000         XCL                   INTO THE AC
      00414  0322 00 0 02061         ERA     MESS4+2       AND CHECK AGAINST LAST PROG NO
      00415  0100 00 0 00351         TZE     RDACCT        SAME--SKIP THIS ONE

                                             GET THE ALLOTED TIMES

      00416 -0500 00 0 02317  GETALT CAL     A+16
      00417  0560 00 0 02320         LDQ     A+17
      00420 -0763 00 0 00014         LGL     12
      00421  0767 00 0 00007         ALS     7
      00422  0771 00 0 00007         ARS     7
      00423 -0501 00 0 02416         ORA     =H 00000
      00424  0602 00 0 02221         SLW     T1            THERE IS THE FIRST SHIFT ALLOTMENT
      00425 -0500 00 0 02320         CAL     A+17
      00426  0560 00 0 02321         LDQ     A+18
      00427 -0763 00 0 00006         LGL     6
      00430  0767 00 0 00007         ALS     7
      00431  0771 00 0 00007         ARS     7
      00432 -0501 00 0 02416         ORA     =H 00000
      00433  0602 00 0 02222         SLW     T2            AND SECOND SHIFT
      00434 -0500 00 0 02321         CAL     A+18
      00435  0767 00 0 00007         ALS     7
      00436  0771 00 0 00007         ARS     7
      00437 -0501 00 0 02416         ORA     =H 00000
      00440  0602 00 0 02223         SLW     T3            THIRD SHIFT
      00441 -0500 00 0 02322         CAL     A+19
      00442  0771 00 0 00006         ARS     6
      00443 -0501 00 0 02416         ORA     =H 00000
      00444  0602 00 0 02224         SLW     T4            AND FOURTH SHIFT
      00445 -0500 00 0 02323         CAL     A+20          GET FIFTH (FIB) SHIFT ALLOTTED
      00446  0771 00 0 00014         ARS     12
      00447 -0501 00 0 02424         ORA     =H  0000
      00450  0602 00 0 02225         SLW     T5
      00451                          UPBCD   T1,TT1        ADD ALLOTTED TIMES TO TOTALS
      00455                          UPBCD   T2,TT2
      00461                          UPBCD   T3,TT3
      00465                          UPBCD   T4,TT4
      00471                          UPBCD   T5,TT5
      00475  0500 60 0 02201         CLA*    TU1           GET TOTAL TIME USED FIGURES PER SHIFT
      00476  0400 00 0 02226         ADD     TTU1
      00477  0601 00 0 02226         STO     TTU1
      00500  0500 60 0 02202         CLA*    TU2
      00501  0400 00 0 02227         ADD     TTU2
      00502  0601 00 0 02227         STO     TTU2
      00503  0500 60 0 02203         CLA*    TU3
      00504  0400 00 0 02230         ADD     TTU3
      00505  0601 00 0 02230         STO     TTU3
      00506  0500 60 0 02204         CLA*    TU4
      00507  0400 00 0 02231         ADD     TTU4
      00510  0601 00 0 02231         STO     TTU4
      00511  0500 60 0 02205         CLA*    TU5
1       THIS ROUTINE PRODUCES THE MONTHLY SUMARY AND TOTALS                                      PAGE 9

      00512  0400 00 0 02232         ADD     TTU5
      00513  0601 00 0 02232         STO     TTU5
      00514  0074 00 4 00021         TSX     OPEN,4
      00515  3 00000 0 02343         PTH     R
      00516  3 00000 0 02261         PTH     PROBN
      00517  3 00000 0 02300         PTH     A+1
      00520  3 00000 0 02361         PTH     =0
      00521  3 00000 0 02361         PTH     =0
      00522  3 00000 0 00525         PTH     NOUFD         IF ERROR ON OPEN OF U.F.D.
      00523  3 00000 0 02341         PTH     N
      00524  0020 00 0 00534         TRA     UFDFND        IF FOUND
      00525  0600 00 0 02260  NOUFD  STZ     DRUM
      00526  0600 00 0 02255         STZ     USED
      00527  0600 00 0 02256         STZ     ALLOT
      00530  0500 00 0 02340         CLA     USRCNT
      00531  0400 00 0 02362         ADD     =1            UPDATE USER COUNT
      00532  0601 00 0 02340         STO     USRCNT
      00533  0020 00 0 00601         TRA     BACK1         AND SKIP ALL THE STORAGE BOOKKEEPING
      00534  0074 00 4 00022  UFDFND TSX     RDFILE,4      THIS IS NORMAL--GET THE DISK FIGURES
      00535  3 00000 0 02261         PTH     PROBN         READ THIS GUYS U.F.D. TO
      00536  3 00000 0 02300         PTH     A+1           GET HIS DISK ALLOTMENT
      00537  3 00000 0 02361         PTH     =0            AND USAGE
      00540  3 00003 0 02267         PTH     B,,3
      00541  3 00000 0 00543         PTH     *+2           ERROR RETURN
      00542  3 00000 0 02341         PTH     N
      00543  0074 00 4 00023         TSX     CLOSE,4       CLOSE THE U.F.D.
      00544  3 00000 0 02261         PTH     PROBN
      00545  3 00000 0 02300         PTH     A+1
      00546  0500 00 0 02270         CLA     B+1           GET THE DISK FIGURES
      00547 -0765 00 0 00022         LGR     18            SPLIT THEM
      00550  0601 00 0 02255         STO     USED
      00551 -0773 00 0 00022         RQL     18
      00552 -0600 00 0 02256         STQ     ALLOT
      00553  0074 00 4 00017         TSX     FSTATE,4      GET THE SIZE OF THE U.F.D.
      00554  3 00000 0 02261         PTH     PROBN
      00555  3 00000 0 02300         PTH     A+1
      00556  3 00010 0 02267         PTH     B,,8
      00557  0500 00 0 02267         CLA     B             GET THE UF.D. SIZE
      00560  0400 00 0 02374         ADD     =431          HE WILL BE CHARGED FOR THE ODD RECORD
      00561  0131 00 0 00000         XCA
      00562 -0754 00 0 00000         ZAC
      00563  0221 00 0 02375         DVP     =432          GET NUMBER OF RECORDS
      00564 -0600 00 0 02260         STQ     DRUM          AND SAVE THIS NUMBER
      00565  0500 00 0 02257         CLA     DRMTOT        ADD TO TOTAL FOR THIS DEPARTMENT
      00566  0400 00 0 02260         ADD     DRUM
      00567  0601 00 0 02257         STO     DRMTOT
      00570  0500 00 0 02340         CLA     USRCNT        UPDATE COUNT OF SUSCRIBERS WITH UFD'S
      00571  0400 00 0 02362         ADD     =1
      00572  0601 00 0 02340         STO     USRCNT
      00573  0500 00 0 02254         CLA     TALLOT        UPDATE DISK TOTAL ALLOTMENT
      00574  0400 00 0 02256         ADD     ALLOT
      00575  0601 00 0 02254         STO     TALLOT
      00576  0500 00 0 02253         CLA     TUSED         AND UPDATE DISK TOTAL USED
      00577  0400 00 0 02255         ADD     USED
      00600  0601 00 0 02253         STO     TUSED
      00601  0074 00 4 01771  BACK1  TSX     CONVRT,4      CONVERT THE DISK USED FIGURE TO BCD
1       THIS ROUTINE PRODUCES THE MONTHLY SUMARY AND TOTALS                                      PAGE 10

      00602  3 00000 0 02255         PTH     USED
      00603  0601 00 0 02103         STO     MESS4+20      AND STORE IN THE LINE
      00604  0074 00 4 01771         TSX     CONVRT,4      SAME FOR DISK ALLOTMENT
      00605  3 00000 0 02256         PTH     ALLOT
      00606  0601 00 0 02072         STO     MESS4+11
      00607  0600 00 0 02251         STZ     TEMP          CLEAR TOTAL
      00610                          UCSTIN  TU1,COST1
      00615                          UCSTIN  TU2,COST2
      00622                          UCSTIN  TU3,COST3     GET COST OF TOTAL TIME USED
      00627                          UCSTIN  TU4,COST4
      00634                          UCSTIN  TU5,COST5
      00641  0400 00 0 02365         ADD     =30           ROUND TO NEAREST DOLLAR
      00642  0131 00 0 00000         XCA
      00643 -0754 00 0 00000         ZAC
      00644  0221 00 0 02371         DVP     =60           GET TOTAL DOLLARS USED FOR TIME
      00645 -0600 00 0 02251         STQ     TEMP
      00646  0074 00 4 01771         TSX     CONVRT,4      CONVERT THIS FIGURE TO BCD
      00647  3 00000 0 02251         PTH     TEMP
      00650  0601 00 0 02102         STO     MESS4+19      AND PUT INTO THE MESSAGE
      00651  0560 00 0 02255         LDQ     USED          COMPUTE THE COST OF DISK STORAGE
      00652  0200 00 0 00032         MPY     COSTD
      00653  0131 00 0 00000         XCA
      00654  0400 00 0 02376         ADD     =500000
      00655  0131 00 0 00000         XCA
      00656  0221 00 0 02377         DVP     =1000000      CONVERT TO DOLLARS
      00657 -0600 00 0 02252         STQ     DSKDOL
      00660                          CONIN   TU1,MESS4+13  INSERT THE USED TIMES
      00665                          CONIN   TU2,MESS4+14
      00672                          CONIN   TU3,MESS4+15
      00677                          CONIN   TU4,MESS4+16
      00704                          CONIN   TU5,MESS4+17
      00711 -0500 00 0 02221         CAL     T1            PUT THE BCD ALLOTTED TIMES IN
      00712  0602 00 0 02064         SLW     MESS4+5
      00713 -0500 00 0 02222         CAL     T2
      00714  0602 00 0 02065         SLW     MESS4+6
      00715 -0500 00 0 02223         CAL     T3
      00716  0602 00 0 02066         SLW     MESS4+7
      00717 -0500 00 0 02224         CAL     T4
      00720  0602 00 0 02067         SLW     MESS4+8
      00721 -0500 00 0 02225         CAL     T5
      00722  0602 00 0 02070         SLW     MESS4+9
      00723 -0500 00 0 02277         CAL     A             GET PROGRAMMER NAME
      00724  0602 00 0 02062         SLW     MESS4+3       INTO THE MESSAGE
      00725  0560 00 0 02300         LDQ     A+1           GET THE PROGRAMMER NUMBER
      00726 -0773 00 0 00006         RQL     6             CENTER IT
      00727 -0600 00 0 02061         STQ     MESS4+2       AND IN IT GOES
      00730 -0500 00 0 02261         CAL     PROBN         THIS ONE IS OBVIOUS
      00731  0602 00 0 02060         SLW     MESS4+1
      00732  0074 00 4 00013         TSX     BCDEC,4       CONPUTE TOTAL TIME ALLOTTED
      00733  3 00000 0 02221         PTH     T1
      00734  0601 00 0 02251         STO     TEMP
      00735  0074 00 4 00013         TSX     BCDEC,4
      00736  3 00000 0 02222         PTH     T2
      00737  0400 00 0 02251         ADD     TEMP
      00740  0601 00 0 02251         STO     TEMP
      00741  0074 00 4 00013         TSX     BCDEC,4
1       THIS ROUTINE PRODUCES THE MONTHLY SUMARY AND TOTALS                                      PAGE 11

      00742  3 00000 0 02223         PTH     T3
      00743  0400 00 0 02251         ADD     TEMP
      00744  0601 00 0 02251         STO     TEMP
      00745  0074 00 4 00013         TSX     BCDEC,4
      00746  3 00000 0 02224         PTH     T4
      00747  0400 00 0 02251         ADD     TEMP
      00750  0601 00 0 02251         STO     TEMP
      00751  0074 00 4 00013         TSX     BCDEC,4
      00752  3 00000 0 02225         PTH     T5
      00753  0400 00 0 02251         ADD     TEMP
      00754  0601 00 0 02251         STO     TEMP
      00755  0074 00 4 01771         TSX     CONVRT,4      CONVERT TOTAL ALLOTMENT TO BCD
      00756  3 00000 0 02251         PTH     TEMP
      00757  0601 00 0 02071         STO     MESS4+10      AND STICK IN MESSAGE
      00760  0500 60 0 02201         CLA*    TU1           GET TOTAL TIME USED
      00761  0400 60 0 02202         ADD*    TU2
      00762  0400 60 0 02203         ADD*    TU3
      00763  0400 60 0 02204         ADD*    TU4
      00764  0400 60 0 02205         ADD*    TU5
      00765  0601 00 0 02251         STO     TEMP
      00766  0074 00 4 01771         TSX     CONVRT,4      CONVERT THIS TO BCD
      00767  3 00000 0 02251         PTH     TEMP
      00770  0601 00 0 02101         STO     MESS4+18      AND IN IT GOES
      00771  0500 00 0 02412         CLA     =-1           SET NAME FLAG TO SHOW WE'VE USED THIS ENTRY
      00772  0601 60 0 02206         STO*    NAME
      00773  0074 00 4 01771         TSX     CONVRT,4      CONVERT THE DRUM TRACKS TO BCD
      00774  3 00000 0 02260         PTH     DRUM
      00775  0601 00 0 02104         STO     MESS4+21
      00776  0560 00 0 02260         LDQ     DRUM          COMPUTE DRUM CHARGES
      00777  0200 00 0 00033         MPY     COSTU
      01000  0131 00 0 00000         XCA
      01001  0400 00 0 02367         ADD     =50           ROUND OFF
      01002  0131 00 0 00000         XCA
      01003  0221 00 0 02372         DVP     =100          AND COMPUTE DRUM DOLLARS
      01004  0131 00 0 00000         XCA
      01005  0400 00 0 02252         ADD     DSKDOL
      01006  0601 00 0 02251         STO     TEMP
      01007  0074 00 4 01771         TSX     CONVRT,4      CONVERT TO BCD
      01010  3 00000 0 02251         PTH     TEMP
      01011  0601 00 0 02105         STO     MESS4+22      AND PUT IN MESSAGE
      01012  0074 00 4 00003         TSX     BFWRIT,4      WRITE THE LINE INTO THE SUMARY FILE
      01013  3 00000 0 02346         PTH     SU
      01014  3 00000 0 02262         PTH     NAME2
      01015  3 00027 0 02057         PTH     MESS4,,23
      01016  3 00000 0 01751         PTH     ERROR
      01017  0020 00 0 00351         TRA     RDACCT        AND BACK FOR THE NEXT UACCNT TIMACC LINE


                                             COME HERE WHEN A NEW PROBLEM NUMBER IS ENCOUNTERED
                                             DURING THE SEARCH THRU UACCNT TIMACC

1       THIS ROUTINE PRODUCES THE MONTHLY SUMARY AND TOTALS                                      PAGE 12


      01020 -0500 00 0 02300  PROBIN CAL     A+1           GET THE NEW PROBLEM NUMBER
      01021  0602 00 0 02261         SLW     PROBN         AND SAVE
      01022 -0500 00 0 02302         CAL     A+3           PICK UP COMFIL 1 DISK ALLOTMENT
      01023  0602 00 0 02233         SLW     CF
      01024 -0500 00 0 02305         CAL     A+6           GET COMFIL 2 DISK ALLOTMENT
      01025  0560 00 0 02306         LDQ     A+7
      01026 -0763 00 0 00030         LGL     24
      01027  0767 00 0 00006         ALS     6
      01030  0771 00 0 00006         ARS     6
      01031 -0501 00 0 02416         ORA     =H 00000
      01032  0602 00 0 02234         SLW     CF+1
      01033 -0500 00 0 02315         CAL     A+14          GET COMFIL 3 DISK ALLOTMENT
      01034  0560 00 0 02316         LDQ     A+15
      01035 -0763 00 0 00030         LGL     24
      01036  0767 00 0 00006         ALS     6
      01037  0771 00 0 00006         ARS     6
      01040 -0501 00 0 02416         ORA     =H 00000
      01041  0602 00 0 02235         SLW     CF+2
      01042 -0500 00 0 02320         CAL     A+17          AND THE COMFIL 4 ALLOTMENT ALSO
      01043  0560 00 0 02321         LDQ     A+18
      01044 -0763 00 0 00006         LGL     6
      01045  0767 00 0 00006         ALS     6
      01046  0771 00 0 00006         ARS     6
      01047 -0501 00 0 02416         ORA     =H 00000
      01050  0602 00 0 02236         SLW     CF+3
      01051  0774 00 2 00004         AXT     4,2           GET THE COMFIL STORAGE FIGURES
      01052 -0500 00 2 02237  CFLOOP CAL     CF+4,2        GET THE ALLOTMENT
      01053 -0340 00 0 02427         LAS     =H     0      SEE IF ZERO
      01054  0020 00 0 01056         TRA     *+2           NO--
      01055  0020 00 0 01125         TRA     CFLS          YES--GO TO NEXT COMFIL
      01056  0634 00 2 02341         SXA     N,2           FIND THE CURRENT COMFIL NUMBER
      01057  0500 00 0 02364         CLA     =5
      01060  0402 00 0 02341         SUB     N
      01061 -0501 00 0 02405         ORA     =HCMFL00      TO GET THE BCD COMFIL NAME
      01062  0602 00 0 02212         SLW     N3            THIS WILL BE USEFUL
      01063  0074 00 4 00021         TSX     OPEN,4        GO TO THE COMFIL
      01064  3 00000 0 02343         PTH     R
      01065  3 00000 0 02261         PTH     PROBN
      01066  3 00000 0 02212         PTH     N3
      01067  3 00000 0 02361         PTH     =0
      01070  3 00000 0 02361         PTH     =0
      01071  3 00000 0 01737         PTH     BADCF
      01072  3 00000 0 02341         PTH     N
      01073  0074 00 4 00022         TSX     RDFILE,4      GET THE DISK FIGURES
      01074  3 00000 0 02261         PTH     PROBN
      01075  3 00000 0 02212         PTH     N3
      01076  3 00000 0 02361         PTH     =0
      01077  3 00003 0 02267         PTH     B,,3
      01100  3 00000 0 01102         PTH     *+2
      01101  3 00000 0 02341         PTH     N
      01102  0074 00 4 00023         TSX     CLOSE,4
      01103  3 00000 0 02261         PTH     PROBN
      01104  3 00000 0 02212         PTH     N3
      01105 -0754 00 0 00000         ZAC
1       THIS ROUTINE PRODUCES THE MONTHLY SUMARY AND TOTALS                                      PAGE 13

      01106  0560 00 0 02270         LDQ     B+1
      01107 -0763 00 0 00022         LGL     18
      01110 -0773 00 0 00022         RQL     18
      01111  0601 00 2 02237         STO     CF+4,2
      01112 -0600 00 2 02243         STQ     CFALOT+4,2
      01113  0074 00 4 00017         TSX     FSTATE,4      GET THE U.F.D. SIZE
      01114  3 00000 0 02261         PTH     PROBN
      01115  3 00000 0 02212         PTH     N3
      01116  3 00010 0 02267         PTH     B,,8
      01117  0500 00 0 02267         CLA     B
      01120  0400 00 0 02374         ADD     =431          CHARGE FOR ODD TRACKS
      01121  0131 00 0 00000         XCA
      01122 -0754 00 0 00000         ZAC
      01123  0221 00 0 02375         DVP     =432          GET NUMBER OF TRACKS USED
      01124 -0600 00 2 02247         STQ     CFDRUM+4,2    AND STORE
      01125  2 00001 2 01052  CFLS   TIX     CFLOOP,2,1    DO ALL 4 COMFILES
      01126 -0500 00 0 02324         CAL     A+21          GET THE DEPARTMENT NAME
      01127  0560 00 0 02325         LDQ     A+22
      01130 -0763 00 0 00036         LGL     30
      01131  0602 00 0 02247         SLW     NDEPT         AND STORE
      01132 -0500 00 0 02250         CAL     DEPT          GET LAST DEPARTMENT
      01133  0100 00 0 01366         TZE     PRNDEP        ZERO IF FIRST PASS THROUGH
      01134  0322 00 0 02247         ERA     NDEPT         SEE IF DEPT HAS CHANGED
      01135  0100 00 0 01471         TZE     PRNCF         NO--PRINT OUT THE COMFIL INFO


      01136  0074 00 4 01771         TSX     CONVRT,4      YES--SET UP THE TOTALS LINE FOR LAST DEPT
      01137  3 00000 0 02253         PTH     TUSED         TOTAL DISK SPACE USED
      01140  0601 00 0 02103         STO     MESS4+20      INTO THE TOTALS LINE
      01141  0074 00 4 01771         TSX     CONVRT,4      GET THE BCD DISK SPACE TOTAL ALLOTMENT
      01142  3 00000 0 02254         PTH     TALLOT
      01143  0601 00 0 02072         STO     MESS4+11      AND STORE
      01144  0560 00 0 02226         LDQ     TTU1          GET TOTAL DOLLARS SPENT ON TIME USED
      01145  0200 00 0 00025         MPY     COST1
      01146 -0600 00 0 02251         STQ     TEMP
      01147  0560 00 0 02227         LDQ     TTU2
      01150  0200 00 0 00026         MPY     COST2
      01151  0131 00 0 00000         XCA
      01152  0400 00 0 02251         ADD     TEMP
      01153  0601 00 0 02251         STO     TEMP
      01154  0560 00 0 02230         LDQ     TTU3
      01155  0200 00 0 00027         MPY     COST3
      01156  0131 00 0 00000         XCA
      01157  0400 00 0 02251         ADD     TEMP
      01160  0601 00 0 02251         STO     TEMP
      01161  0560 00 0 02231         LDQ     TTU4
      01162  0200 00 0 00030         MPY     COST4
      01163  0131 00 0 00000         XCA
      01164  0400 00 0 02251         ADD     TEMP
      01165  0601 00 0 02251         STO     TEMP
      01166  0560 00 0 02232         LDQ     TTU5
      01167  0200 00 0 00031         MPY     COST5
      01170  0131 00 0 00000         XCA
      01171  0400 00 0 02251         ADD     TEMP
      01172  0400 00 0 02365         ADD     =30           ROUND OFF
      01173  0131 00 0 00000         XCA
1       THIS ROUTINE PRODUCES THE MONTHLY SUMARY AND TOTALS                                      PAGE 14

      01174 -0754 00 0 00000         ZAC
      01175  0221 00 0 02371         DVP     =60           CONVERT TO DOLLARS
      01176 -0600 00 0 02251         STQ     TEMP
      01177  0074 00 4 01771         TSX     CONVRT,4      CONVERT TO BCD
      01200  3 00000 0 02251         PTH     TEMP
      01201  0601 00 0 02102         STO     MESS4+19      AND ONTO THE LINE IT GOES
      01202  0560 00 0 02253         LDQ     TUSED         COMPUTE COST OF TOTAL DISK USAGE
      01203  0200 00 0 00032         MPY     COSTD
      01204  0131 00 0 00000         XCA
      01205  0400 00 0 02376         ADD     =500000
      01206  0131 00 0 00000         XCA
      01207  0221 00 0 02377         DVP     =1000000
      01210 -0600 00 0 02252         STQ     DSKDOL
      01211  0600 00 0 02254         STZ     TALLOT        ZERO TOTALS FOR NEXT DEPARTMENT
      01212  0600 00 0 02253         STZ     TUSED
      01213  0560 00 0 02340         LDQ     USRCNT        GET SUSCRIBER CHARGE
      01214  0200 00 0 00034         MPY     COSTS
      01215 -0600 00 0 02251         STQ     TEMP
      01216  0074 00 4 01771         TSX     CONVRT,4      CONVERT TO BCD
      01217  3 00000 0 02251         PTH     TEMP
      01220  0601 00 0 02251         STO     TEMP
      01221  0074 00 4 00010         TSX     LJUST,4       PUT IN A LEADING '$'
      01222  3 00000 0 02251         PTH     TEMP
      01223  0601 00 0 02251         STO     TEMP
      01224 -0500 00 0 02251         CAL     TEMP
      01225  0771 00 0 00006         ARS     6
      01226 -0501 00 0 02414         ORA     =H$00000
      01227  0602 00 0 02062         SLW     MESS4+3
      01230 -0500 00 0 02435         CAL     =HS           CHANGE TO SAY 'TOTALS'
      01231  0602 00 0 02061         SLW     MESS4+2
      01232 -0500 00 0 02401         CAL     =H0TOTAL
      01233  0602 00 0 02060         SLW     MESS4+1
      01234  0074 00 4 01771         TSX     CONVRT,4
      01235  3 00000 0 02226         PTH     TTU1          PUT IN TOTAL USED TIMES
      01236  0601 00 0 02074         STO     MESS4+13
      01237  0074 00 4 01771         TSX     CONVRT,4
      01240  3 00000 0 02227         PTH     TTU2
      01241  0601 00 0 02075         STO     MESS4+14
      01242  0074 00 4 01771         TSX     CONVRT,4
      01243  3 00000 0 02230         PTH     TTU3
      01244  0601 00 0 02076         STO     MESS4+15
      01245  0074 00 4 01771         TSX     CONVRT,4
      01246  3 00000 0 02231         PTH     TTU4
      01247  0601 00 0 02077         STO     MESS4+16
      01250  0074 00 4 01771         TSX     CONVRT,4
      01251  3 00000 0 02232         PTH     TTU5
      01252  0601 00 0 02100         STO     MESS4+17
      01253  0074 00 4 01771         TSX     CONVRT,4      PUT IN TOTAL ALLOTTED TIMES
      01254  3 00000 0 02214         PTH     TT1
      01255  0601 00 0 02064         STO     MESS4+5
      01256  0074 00 4 01771         TSX     CONVRT,4
      01257  3 00000 0 02215         PTH     TT2
      01260  0601 00 0 02065         STO     MESS4+6
      01261  0074 00 4 01771         TSX     CONVRT,4
      01262  3 00000 0 02216         PTH     TT3
      01263  0601 00 0 02066         STO     MESS4+7
1       THIS ROUTINE PRODUCES THE MONTHLY SUMARY AND TOTALS                                      PAGE 15

      01264  0074 00 4 01771         TSX     CONVRT,4
      01265  3 00000 0 02217         PTH     TT4
      01266  0601 00 0 02067         STO     MESS4+8
      01267  0074 00 4 01771         TSX     CONVRT,4
      01270  3 00000 0 02220         PTH     TT5
      01271  0601 00 0 02070         STO     MESS4+9
      01272  0500 00 0 02226         CLA     TTU1          GET GRAND TOTAL TIME USED
      01273  0400 00 0 02227         ADD     TTU2
      01274  0400 00 0 02230         ADD     TTU3
      01275  0400 00 0 02231         ADD     TTU4
      01276  0400 00 0 02232         ADD     TTU5
      01277  0601 00 0 02251         STO     TEMP
      01300  0074 00 4 01771         TSX     CONVRT,4
      01301  3 00000 0 02251         PTH     TEMP          IN BCD
      01302  0601 00 0 02101         STO     MESS4+18
      01303  0500 00 0 02214         CLA     TT1           GET GRAND TOTAL ALLOTTED TIME
      01304  0400 00 0 02215         ADD     TT2
      01305  0400 00 0 02216         ADD     TT3
      01306  0400 00 0 02217         ADD     TT4
      01307  0400 00 0 02220         ADD     TT5
      01310  0601 00 0 02251         STO     TEMP
      01311  0074 00 4 01771         TSX     CONVRT,4      CONVERT TO BCD
      01312  3 00000 0 02251         PTH     TEMP
      01313  0601 00 0 02071         STO     MESS4+10
      01314  0560 00 0 02257         LDQ     DRMTOT        COMPUTE COST OF DRUM SPACE FOR UFDS
      01315  0200 00 0 00033         MPY     COSTU
      01316  0131 00 0 00000         XCA
      01317  0400 00 0 02367         ADD     =50           ROUND
      01320  0131 00 0 00000         XCA
      01321  0221 00 0 02372         DVP     =100          COST IN DOLLARS
      01322  0131 00 0 00000         XCA
      01323  0400 00 0 02252         ADD     DSKDOL
      01324  0601 00 0 02251         STO     TEMP
      01325  0074 00 4 01771         TSX     CONVRT,4      COST IN BCD DOLLARS
      01326  3 00000 0 02251         PTH     TEMP
      01327  0601 00 0 02105         STO     MESS4+22
      01330  0074 00 4 01771         TSX     CONVRT,4      DRM TOTAL TRACKS USED
      01331  3 00000 0 02257         PTH     DRMTOT
      01332  0601 00 0 02104         STO     MESS4+21
      01333  0600 00 0 02214         STZ     TT1           CLEAR ALL OTHER TOTALS
      01334  0600 00 0 02215         STZ     TT2
      01335  0600 00 0 02216         STZ     TT3
      01336  0600 00 0 02217         STZ     TT4
      01337  0600 00 0 02220         STZ     TT5
      01340  0600 00 0 02226         STZ     TTU1
      01341  0600 00 0 02227         STZ     TTU2
      01342  0600 00 0 02230         STZ     TTU3
      01343  0600 00 0 02231         STZ     TTU4
      01344  0600 00 0 02232         STZ     TTU5
      01345  0600 00 0 02340         STZ     USRCNT
      01346  0600 00 0 02257         STZ     DRMTOT
      01347  0074 00 4 00003         TSX     BFWRIT,4      AND WRITE THE RECORD IN SUMARY
      01350  3 00000 0 02346         PTH     SU
      01351  3 00000 0 02262         PTH     NAME2
      01352  3 00027 0 02057         PTH     MESS4,,23
      01353  3 00000 0 01751         PTH     ERROR         WE HOPE NOT
1       THIS ROUTINE PRODUCES THE MONTHLY SUMARY AND TOTALS                                      PAGE 16

      01354  0074 00 4 00007         TSX     RJUST,4       CHANGE THINGS AROUND A LITTLE
      01355  3 00000 0 02250         PTH     DEPT          LIKE PUT THE DEPT ON THE LINE
      01356  0601 00 0 02060         STO     MESS4+1       INSTEAD OF THE PROBLEM NUMBER
      01357 -0500 00 0 02430         CAL     =H
      01360  0602 00 0 02061         SLW     MESS4+2       AND BLANK OUT THE PROGRAMMER NUMBER
      01361  0074 00 4 00003         TSX     BFWRIT,4      AND WRITE THIS LINE INTO TOTALS
      01362  3 00000 0 02347         PTH     TO
      01363  3 00000 0 02262         PTH     NAME2
      01364  3 00027 0 02057         PTH     MESS4,,23
      01365  3 00000 0 01751         PTH     ERROR


                                             COME HERE TO PUT IN NICE FRESH HEADING AT THE TOP
                                             OF EACH DEPARTMENT PAGE


      01366 -0500 00 0 02261  PRNDEP CAL     PROBN         CHECK TO PROBLEM NUMBER
      01367  0322 00 0 02432         ERA     =H Z9999      IF 'Z9999' WE'RE DONE
      01370  0100 00 0 01610         TZE     DONE          SEE--WHAT I TELL YOU
      01371  0500 00 0 02211         CLA     DPTCNT        GET THE DEPARTMENT COUNT
      01372 -0100 00 0 01430         TNZ     CNTDPT        IF ZERO,TOTALS NEEDS NEW HEADER
      01373 -0500 00 0 02402         CAL     =H1           EJECT TO NEW PAGE
      01374  0602 00 0 02005         SLW     MESS1+1
      01375 -0500 00 0 02347         CAL     TO
      01376  0602 00 0 02006         SLW     MESS1+2
      01377 -0500 00 0 02420         CAL     =H FOR
      01400  0602 00 0 02007         SLW     MESS1+3
      01401  0074 00 4 00003         TSX     BFWRIT,4      WRITE THE NEW TOTAL HEADER
      01402  3 00000 0 02347         PTH     TO
      01403  3 00000 0 02262         PTH     NAME2
      01404  3 00021 0 02004         PTH     MESS1,,17
      01405  3 00000 0 01751         PTH     ERROR
      01406 -0500 00 0 02346         CAL     SU            RESTORE THE WORD 'SUMARY'
      01407  0602 00 0 02007         SLW     MESS1+3
      01410 -0500 00 0 02425         CAL     =H  ACCE
      01411  0602 00 0 02032         SLW     MESS3+2       PUT 'ACCESS FEE' IN COLUMN HEADER
      01412 -0500 00 0 02436         CAL     =HSS FEE
      01413  0602 00 0 02033         SLW     MESS3+3
      01414 -0500 00 0 02426         CAL     =H  DEPT      AND RESTORE OTHER HEADINGS
      01415  0602 00 0 02031         SLW     MESS3+1
      01416  0074 00 4 00003         TSX     BFWRIT,4
      01417  3 00000 0 02347         PTH     TO
      01420  3 00000 0 02262         PTH     NAME2
      01421  3 00027 0 02030         PTH     MESS3,,23
      01422  3 00000 0 01751         PTH     ERROR
      01423  0074 00 4 00003         TSX     BFWRIT,4
      01424  3 00000 0 02347         PTH     TO
      01425  3 00000 0 02262         PTH     NAME2
      01426  3 00002 0 02106         PTH     MESS5,,2
      01427  3 00000 0 01751         PTH     ERROR
      01430  0500 00 0 02211  CNTDPT CLA     DPTCNT        UPDATE THE DEPARTMENT COUNT
      01431  0400 00 0 02362         ADD     =1
      01432  0601 00 0 02211         STO     DPTCNT
      01433  0402 00 0 02370         SUB     =54           54 DEPARTMENTS ALLOWED ON ONE TOTALS PAGE
      01434 -0100 00 0 01436         TNZ     *+2
1       THIS ROUTINE PRODUCES THE MONTHLY SUMARY AND TOTALS                                      PAGE 17

      01435  0600 00 0 02211         STZ     DPTCNT        THIS WILL CAUSE A TOTALS HEADER NEXT PASS
      01436 -0500 00 0 02402         CAL     =H1           SET UP TOTALS LINE IN SUMARY
      01437  0602 00 0 02005         SLW     MESS1+1
      01440 -0500 00 0 02247         CAL     NDEPT         NEW DEPARTMENT NAME
      01441  0602 00 0 02006         SLW     MESS1+2
      01442  0074 00 4 00003         TSX     BFWRIT,4      WRITE THE HEADER INTO SUMARY
      01443  3 00000 0 02346         PTH     SU
      01444  3 00000 0 02262         PTH     NAME2
      01445  3 00021 0 02004         PTH     MESS1,,17
      01446  3 00000 0 01751         PTH     ERROR
      01447 -0500 00 0 02247         CAL     NDEPT         UPDATE CURRENT DEPARTMENT
      01450  0602 00 0 02250         SLW     DEPT
      01451 -0500 00 0 02400         CAL     =H0 PROB
      01452  0602 00 0 02031         SLW     MESS3+1
      01453 -0500 00 0 02423         CAL     =H PROG
      01454  0602 00 0 02032         SLW     MESS3+2
      01455 -0500 00 0 02422         CAL     =H NAME
      01456  0602 00 0 02033         SLW     MESS3+3
      01457  0074 00 4 00003         TSX     BFWRIT,4      WRITE THE COLUMN HEADERS
      01460  3 00000 0 02346         PTH     SU
      01461  3 00000 0 02262         PTH     NAME2
      01462  3 00027 0 02030         PTH     MESS3,,23
      01463  3 00000 0 01751         PTH     ERROR
      01464  0074 00 5 00003         TSX     BFWRIT,5
      01465  3 00000 0 02346         PTH     SU
      01466  3 00000 0 02262         PTH     NAME2
      01467  3 00002 0 02106         PTH     MESS5,,2
      01470  3 00000 0 01751         PTH     ERROR


                                             COME HERE TO PRINT OUT THE COMMON FILE INFO


      01471  0774 00 2 00004  PRNCF  AXT     4,2           SET UP FOR FOUR COMMON FILES
      01472  0500 00 2 02243         CLA     CFALOT+4,2    GET ALLOTMENT FOR THIS COMMON FILE
      01473  0100 00 0 01605         TZE     P             SKIP IF ZERO
      01474  0601 00 0 02251         STO     TEMP
      01475  0074 00 4 01771         TSX     CONVRT,4      CONVERT TO BCD
      01476  3 00000 0 02251         PTH     TEMP
      01477  0601 00 0 02072         STO     MESS4+11
      01500  0500 00 2 02237         CLA     CF+4,2        GET DISK USED
      01501  0601 00 0 02251         STO     TEMP
      01502  0074 00 4 01771         TSX     CONVRT,4      INTO BCD
      01503  3 00000 0 02251         PTH     TEMP
      01504  0601 00 0 02103         STO     MESS4+20
      01505  0560 00 2 02237         LDQ     CF+4,2        COMPUT COST OF USED COMMON FILE SPACE
      01506  0200 00 0 00032         MPY     COSTD
      01507  0131 00 0 00000         XCA
      01510  0400 00 0 02376         ADD     =500000
      01511  0131 00 0 00000         XCA
      01512  0221 00 0 02377         DVP     =1000000
      01513 -0600 00 0 02252         STQ     DSKDOL
      01514  0500 00 2 02247         CLA     CFDRUM+4,2    DRUM SPACE USED FOR THE UFD
      01515  0601 00 0 02251         STO     TEMP
      01516  0074 00 4 01771         TSX     CONVRT,4      INTO BCD
1       THIS ROUTINE PRODUCES THE MONTHLY SUMARY AND TOTALS                                      PAGE 18

      01517  3 00000 0 02251         PTH     TEMP
      01520  0601 00 0 02104         STO     MESS4+21
      01521  0560 00 2 02247         LDQ     CFDRUM+4,2    FIND COST OF DRUM USAGE
      01522  0200 00 0 00033         MPY     COSTU
      01523  0131 00 0 00000         XCA
      01524  0400 00 0 02367         ADD     =50           ROUND OFF
      01525  0131 00 0 00000         XCA
      01526  0221 00 0 02372         DVP     =100
      01527  0131 00 0 00000         XCA
      01530  0400 00 0 02252         ADD     DSKDOL
      01531  0601 00 0 02251         STO     TEMP
      01532  0074 00 4 01771         TSX     CONVRT,4      INTO BCD
      01533  3 00000 0 02251         PTH     TEMP
      01534  0601 00 0 02105         STO     MESS4+22
      01535  0500 00 0 02254         CLA     TALLOT        UPDATE DISK ALLOTMENT TOTAL
      01536  0400 00 2 02243         ADD     CFALOT+4,2
      01537  0601 00 0 02254         STO     TALLOT
      01540  0600 00 2 02243         STZ     CFALOT+4,2
      01541  0500 00 0 02253         CLA     TUSED         AND DISK USED TOTAL
      01542  0400 00 2 02237         ADD     CF+4,2
      01543  0601 00 0 02253         STO     TUSED
      01544  0600 00 2 02237         STZ     CF+4,2
      01545  0500 00 0 02257         CLA     DRMTOT        UPDATE DRUM TRACKS TOTAL
      01546  0400 00 2 02247         ADD     CFDRUM+4,2
      01547  0601 00 0 02257         STO     DRMTOT
      01550  0600 00 2 02247         STZ     CFDRUM+4,2
      01551 -0500 00 0 02430         CAL     =H            BLANK OUT THE REST OF THE LINE
      01552  0602 00 0 02102         SLW     MESS4+19
      01553  0602 00 0 02101         SLW     MESS4+18
      01554  0602 00 0 02101         SLW     MESS4+18
      01555  0602 00 0 02077         SLW     MESS4+16
      01556  0602 00 0 02076         SLW     MESS4+15
      01557  0602 00 0 02075         SLW     MESS4+14
      01560  0602 00 0 02074         SLW     MESS4+13
      01561  0602 00 0 02071         SLW     MESS4+10
      01562  0602 00 0 02070         SLW     MESS4+9
      01563  0602 00 0 02067         SLW     MESS4+8
      01564  0602 00 0 02066         SLW     MESS4+7
      01565  0602 00 0 02065         SLW     MESS4+6
      01566  0602 00 0 02064         SLW     MESS4+5
      01567  0602 00 0 02062         SLW     MESS4+3
      01570  0634 00 2 02341         SXA     N,2           GET THE COMFIL NUMBER
      01571  0500 00 0 02364         CLA     =5
      01572  0402 00 0 02341         SUB     N
      01573  0767 00 0 00006         ALS     6
      01574 -0501 00 0 02417         ORA     =H CFL0
      01575  0602 00 0 02061         SLW     MESS4+2       AND STORE
      01576 -0500 00 0 02261         CAL     PROBN
      01577  0602 00 0 02060         SLW     MESS4+1       IN GOES THE PROBLEM NUMBER
      01600  0074 00 4 00003         TSX     BFWRIT,4      WRITE THE LINE
      01601  3 00000 0 02346         PTH     SU
      01602  3 00000 0 02262         PTH     NAME2
      01603  3 00027 0 02057         PTH     MESS4,,23
      01604  3 00000 0 01751         PTH     ERROR
      01605  2 00001 2 01472  P      TIX     PRNCF+1,2,1   DO ALL FOUR
      01606  0020 00 0 00351         TRA     RDACCT        AND BACK FOR NEXT UACCNT TIMACC RECORD
1       THIS ROUTINE PRODUCES THE MONTHLY SUMARY AND TOTALS                                      PAGE 19


                                             COME HERE TO FINISH UP


      01607  0761 00 0 00000  .CLOSE NOP
      01610  0074 00 4 00016  DONE   TSX     ATTACH,4      GO HOME
      01611  3 00000 0 02263         PTH     HOME
      01612  3 00000 0 02264         PTH     HOME+1
      01613  0600 00 0 02265         STZ     FLAG          ZERO ON FIRST PASS
      01614  0774 00 1 00000         AXT     0,1           SET TO START AT TOP OF TABLE

                                             THIS NEXT PART MOVES DOWN THE NAME LIST AND
                                             CHECKS FOR NAMES THAT WERE NOT SET TO -1.
                                             THIS MEANS THE ENTRY WAS IN TIMUSD TIMACC
                                             BUT NOT IN UACCNT TIMACC

      01615  0500 60 0 02206  NF     CLA*    NAME
      01616  0340 00 0 02412         CAS     =-1           CHECK FOR USED FLAG
      01617  0020 00 0 01621         TRA     *+2           NOT USED--PRINT THIS ONE OUT
      01620  0020 00 0 01722         TRA     CATCH         NO ACTION REQUIRED
      01621  0500 00 0 02265         CLA     FLAG          CHECK FLAG
      01622 -0100 00 0 01646         TNZ     PC            NOT FIRST TIME THRU--NO HEADING REQUIRED
      01623  0500 00 0 02362         CLA     =1            HEADING TO BE PRINTED--TURN OFF FLAG
      01624  0601 00 0 02265         STO     FLAG
      01625  0074 00 4 02352         TSX     WRFLX,4
      01626  0 00012 0 02165         PZE     ERR4,,10
      01627  0074 00 4 00003         TSX     BFWRIT,4      WRITE THE HEADER IN THE FILE
      01630  3 00000 0 02346         PTH     SU
      01631  3 00000 0 02262         PTH     NAME2
      01632  3 00011 0 02110         PTH     MESS6,,9
      01633  3 00000 0 01751         PTH     ERROR
      01634  0074 00 4 00003         TSX     BFWRIT,4
      01635  3 00000 0 02346         PTH     SU
      01636  3 00000 0 02262         PTH     NAME2
      01637  3 00015 0 02121         PTH     MESS7,,13
      01640  3 00000 0 01751         PTH     ERROR
      01641  0074 00 4 00003         TSX     BFWRIT,4
      01642  3 00000 0 02346         PTH     SU
      01643  3 00000 0 02262         PTH     NAME2
      01644  3 00002 0 02106         PTH     MESS5,,2
      01645  3 00000 0 01751         PTH     ERROR
      01646 -0500 60 0 02201  PC     CAL*    TU1           PRINT THE JUNK FOR THIS POOR NEGLECTED MAN
      01647  0602 00 0 02251         SLW     TEMP
      01650  0074 00 4 01771         TSX     CONVRT,4
      01651  3 00000 0 02251         PTH     TEMP
      01652  0601 00 0 02146         STO     MESS8+8
      01653 -0500 60 0 02202         CAL*    TU2           AS YOU CAN PROBABLY TELL, WE ARE
      01654  0602 00 0 02251         SLW     TEMP
      01655  0074 00 4 01771         TSX     CONVRT,4      IN THE PROCESS OF CONVERTING THE TIMES USED
      01656  3 00000 0 02251         PTH     TEMP          TO BCD AND LOADING THEM INTO A MESSAGE
      01657  0601 00 0 02147         STO     MESS8+9       TO BE WRITTEN INTO THE FILE
      01660 -0500 60 0 02203         CAL*    TU3
      01661  0602 00 0 02251         SLW     TEMP
      01662  0074 00 4 01771         TSX     CONVRT,4
1       THIS ROUTINE PRODUCES THE MONTHLY SUMARY AND TOTALS                                      PAGE 20

      01663  3 00000 0 02251         PTH     TEMP
      01664  0601 00 0 02150         STO     MESS8+10
      01665 -0500 60 0 02204         CAL*    TU4
      01666  0602 00 0 02251         SLW     TEMP
      01667  0074 00 4 01771         TSX     CONVRT,4
      01670  3 00000 0 02251         PTH     TEMP
      01671  0601 00 0 02151         STO     MESS8+11
      01672 -0500 60 0 02205         CAL*    TU5
      01673  0602 00 0 02251         SLW     TEMP
      01674  0074 00 4 01771         TSX     CONVRT,4
      01675  3 00000 0 02251         PTH     TEMP
      01676  0601 00 0 02152         STO     MESS8+12
      01677 -0500 60 0 02206         CAL*    NAME          AND IN GOES THE REST OF THE STUFF
      01700  0602 00 0 02144         SLW     MESS8+6
      01701 -0500 60 0 02207         CAL*    PROB
      01702  0602 00 0 02140         SLW     MESS8+2
      01703 -0500 60 0 02210         CAL*    PROG
      01704  0602 00 0 02142         SLW     MESS8+4
      01705  0074 00 4 00003         TSX     BFWRIT,4      WRITE IT OUT
      01706  3 00000 0 02346         PTH     SU
      01707  3 00000 0 02262         PTH     NAME2
      01710  3 00015 0 02136         PTH     MESS8,,13
      01711  3 00000 0 01751         PTH     ERROR
      01712 -0500 60 0 02207         CAL*    PROB
      01713  0602 00 0 02154         SLW     ERR1+1        PREPARE THE ONLINE ERROR MESSAGE
      01714 -0500 60 0 02210         CAL*    PROG
      01715  0602 00 0 02155         SLW     ERR1+2
      01716 -0500 60 0 02206         CAL*    NAME
      01717  0602 00 0 02153         SLW     ERR1
      01720  0074 00 4 02352         TSX     WRFLX,4       AND WRITE IT
      01721  0 00003 0 02153         PZE     ERR1,,3
      01722  1 77777 1 01723  CATCH  TXI     *+1,1,-1
      01723  3 00000 1 01615  UMAX1  TXH     NF,1,**       WE SET THE LIMIT LONG AGO
      01724  0074 00 4 00001         TSX     BFCLOS,4      CLOSE THE FILES
      01725  3 00000 0 02347         PTH     TO
      01726  3 00000 0 02262         PTH     NAME2
      01727  0074 00 4 00001         TSX     BFCLOS,4
      01730  3 00000 0 02346         PTH     SU
      01731  3 00000 0 02262         PTH     NAME2
      01732  0074 00 4 00001         TSX     BFCLOS,4
      01733  3 00000 0 02342         PTH     UA
      01734  3 00000 0 02345         PTH     TA
      01735  0074 00 4 02356         TSX     CHNCOM,4      AND EXIT
      01736  3 00000 0 02361         PTH     =0            ...


                                             COME HERE IF A COMFILE DOESN'T EXIST WHAT SHOULD


      01737  0074 00 4 00014  BADCF  TSX     PRNTER,4      WHAT CAN I SAY--
      01740  3 00000 0 02366         PTH     =O61
      01741  0600 00 2 02243         STZ     CFALOT+4,2
      01742  0600 00 2 02237         STZ     CF+4,2
      01743  0600 00 2 02247         STZ     CFDRUM+4,2
1       THIS ROUTINE PRODUCES THE MONTHLY SUMARY AND TOTALS                                      PAGE 21

      01744  0020 00 0 01125         TRA     CFLS


      01745  0600 00 0 02266  LNKERR STZ     LNKFLG        HERE IF ERROR IN LINK
      01746  0500 00 0 02341         CLA     N             GET ERROR CODE
      01747  0402 00 0 02363         SUB     =3            SEE IF ERROR CODE 3(FILE THERE)
 T    01750  0074 00 0 00151         TSX     TUOPEN        YES--ALL IS OK


                                             HERE IF AN ERROR IN THE BF-ROUTINES

      01751  0074 00 4 00014  ERROR  TSX     PRNTER,4
      01752  3 00000 0 02373         PTH     =O375

                                             COME HERE IF A BREAK CHARACTER IS SENT

      01753  0074 00 4 00016  BREAK  TSX     ATTACH,4      GO HOME
      01754  3 00000 0 02263         PTH     HOME
      01755  3 00000 0 02264         PTH     HOME+1
      01756  0074 00 4 00001         TSX     BFCLOS,4
      01757  3 00000 0 02346         PTH     SU
      01760  3 00000 0 02262         PTH     NAME2
      01761  0074 00 4 00001         TSX     BFCLOS,4
      01762  3 00000 0 02347         PTH     TO
      01763  3 00000 0 02262         PTH     NAME2
      01764  0074 00 4 00001         TSX     BFCLOS,4
      01765  3 00000 0 02342         PTH     UA
      01766  3 00000 0 02345         PTH     TA
      01767  0074 00 4 02356         TSX     CHNCOM,4
      01770  3 00000 0 02361         PTH     =0


                                             THIS IS SUBROUTINE 'CONVRT' WHICH WAS USED
                                             AT LEAST 67 ZILLION TIMES ABOVE--
                                             IS CONVERTS FROM BINARY TO BCD WITH LEADING
                                             BLANKS


      01771  0500 60 4 00001  CONVRT CLA*    1,4           GET ARG
      01772  0601 00 0 02003         STO     ARG           STO ARG
      01773  0634 00 4 02001         SXA     XR4,4         SXA  XR4,4
      01774  0074 00 4 00012         TSX     DEFBC,4       CONVERT TO BCD
      01775  3 00000 0 02003         PTH     ARG
      01776  0601 00 0 02003         STO     ARG           STO ARG
      01777  0074 00 4 00011         TSX     BZEL,4        BLANK THE LEADING ZEROES
      02000  3 00000 0 02003         PTH     ARG
      02001  0774 00 4 00000  XR4    AXT     **,4          RESTORE INDEX
      02002  0020 00 4 00002         TRA     2,4           TRA 2,4
      02003                   ARG    BSS     1

1       THIS ROUTINE PRODUCES THE MONTHLY SUMARY AND TOTALS                                      PAGE 22


                                             * * * * * * * * * * * * * * * * * ** *
                                             * VARIOUS MESSAGES TO BE WRITTEN  *
                                             * 'MESS' TYPES GO INTO FILES.
                                             * 'ERR' TYPES GO TO THE CONSOLE
                                             * * * * * * * * * * * * * * * * * *


      02004 -377777000020     MESS1  OCT     777777000020
      02005  016060606060            BCI     8,1
      02006  606060606060
      02007  606060606060
      02010  606060606060
      02011  606060606060
      02012  606060606060
      02013  606060606060
      02014  606060606060
      02015  606060602143            BCI     7,    ALLOTTED
      02016  434663632524
      02017  606060606060
      02020  606060606060
      02021  606060606060
      02022  606060606060
      02023  606060606060
      02024  606064622524            BCI     1,  USED
      02025 -377777000002     MESS2  OCT     777777000002
      02026  006060606060            BCI     2,0
      02027  606060606060
      02030 -377777000026     MESS3  OCT     777777000026
      02031  006047514622            BCI     3,0 PROB PROG  NAME
      02032  604751462760
      02033  604521442560
      02034 -206060575757            OCT     606060575757
      02035  606060606001            BCI     5,     1     2     3     4     5
      02036  606060606002
      02037  606060606003
      02040  606060606004
      02041  606060606005
      02042  606346632143            BCI     2, TOTAL  DISK
      02043  606024316242
      02044 -206060575757            OCT     606060575757
      02045  606060606001            BCI     5,     1     2     3     4     5
      02046  606060606002
      02047  606060606003
      02050  606060606004
      02051  606060606005
      02052  606346632143            BCI     5, TOTAL TIME$  DISK  DRUM STRG$
      02053  606331442553
      02054  606024316242
      02055  606024516444
      02056  606263512753
      02057 -377777000026     MESS4  OCT     777777000026
      02060                          BSS     3
1       THIS ROUTINE PRODUCES THE MONTHLY SUMARY AND TOTALS                                      PAGE 23

      02063 -206060575757            OCT     606060575757
      02064                          BSS     7
      02073 -206060575757            OCT     606060575757
      02074                          BSS     10
      02106 -377777000001     MESS5  OCT     777777000001
      02107  606060606060            BCI     1,
      02110 -377777000010     MESS6  OCT     777777000010
      02111  016060606060            BCI     6,1     THE FOLLOWING WERE IN TIMUSD
      02112  633025602646
      02113  434346663145
      02114  276066255125
      02115  603145606331
      02116  446462246060
      02117  633144212323            BCI     2,TIMACC ONLY
      02120  604645437060
      02121 -377777000014     MESS7  OCT     777777000014
      02122  006060606060            BCI     4,0       PROB        PROG
      02123  606047514622
      02124  606060606060
      02125  606047514627
      02126  606060606060            BCI     4,        NAME         TU1
      02127  606045214425
      02130  606060606060
      02131  606060636401
      02132  606060636402            BCI     4,   TU2   TU3   TU4   TU5
      02133  606060636403
      02134  606060636404
      02135  606060636405
      02136 -377777000014     MESS8  OCT     777777000014
      02137  606060606060            BCI     1,
      02140                          BSS     1
      02141  606060606060            BCI     1,
      02142                          BSS     1
      02143  606060606060            BCI     1,
      02144                          BSS     1
      02145  606060606060            BCI     1,
      02146                          BSS     5
      02153  444651256063     ERR1   BCI     4,MORE THAN 501 ENTRIES IN
      02154  302145600500
      02155  016025456351
      02156  312562603145
      02157  606331446462            BCI     3, TIMUSD TIMACC
      02160  246063314421
      02161  232360606060
      02162                   ERR2   BSS     3
      02165  633025602646     ERR4   BCI     4,THE FOLLOWING WERE IN TI
      02166  434346663145
      02167  276066255125
      02170  603145606331
      02171  446462246063            BCI     4,MUSD TIMACC BUT NOT IN U
      02172  314421232360
      02173  226463604546
      02174  636031456064
      02175  212323456360            BCI     2,ACCNT TIMACC
      02176  633144212323
1       THIS ROUTINE PRODUCES THE MONTHLY SUMARY AND TOTALS                                      PAGE 24


                                             * * * * * * * * * * * * * * * * * * * * *
                                             * RANDOM OTHER STORAGE
                                             * * * * * * * * * * * *  * * * * * * *  *

      02177  0 00000 0 00660  BUFSIZ PZE     432
      02200  0 00000 0 00765  TBLSIZ PZE     501
      02201  0 00000 1 00000  TU1    PZE     **,1
      02202  0 00000 1 00000  TU2    PZE     **,1
      02203  0 00000 1 00000  TU3    PZE     **,1
      02204  0 00000 1 00000  TU4    PZE     **,1
      02205  0 00000 1 00000  TU5    PZE     **,1
      02206  0 00000 1 00000  NAME   PZE     **,1
      02207  0 00000 1 00000  PROB   PZE     **,1
      02210  0 00000 1 00000  PROG   PZE     **,1
                       00034  LINSIZ EQU     28
      02211                   DPTCNT BSS     1
      02212                   N3     BSS     1
      02213                   I      BSS     1
      02214                   TT1    BSS     1
      02215                   TT2    BSS     1
      02216                   TT3    BSS     1
      02217                   TT4    BSS     1
      02220                   TT5    BSS     1
      02221                   T1     BSS     1
      02222                   T2     BSS     1
      02223                   T3     BSS     1
      02224                   T4     BSS     1
      02225                   T5     BSS     1
      02226                   TTU1   BSS     1
      02227                   TTU2   BSS     1
      02230                   TTU3   BSS     1
      02231                   TTU4   BSS     1
      02232                   TTU5   BSS     1
      02233                   CF     BSS     4
      02237                   CFALOT BSS     4
      02243                   CFDRUM BSS     4
      02247                   NDEPT  BSS     1
      02250                   DEPT   BSS     1
      02251                   TEMP   BSS     1
      02252                   DSKDOL BSS     1
      02253                   TUSED  BSS     1
      02254                   TALLOT BSS     1
      02255                   USED   BSS     1
      02256                   ALLOT  BSS     1
      02257                   DRMTOT BSS     1
      02260                   DRUM   BSS     1
      02261                   PROBN  BSS     1
      02262                   NAME2  BSS     1
      02263                   HOME   BSS     2
      02265                   FLAG   BSS     1
      02266                   LNKFLG BSS     1
      02267                   B      BSS     8
      02277                   A      BSS     28
1       THIS ROUTINE PRODUCES THE MONTHLY SUMARY AND TOTALS                                      PAGE 25

      02333                   DATE   BSS     1
      02334                   TIME   BSS     1
      02335                   DAYS   BSS     1
      02336                   MONTH  BSS     2
      02340                   USRCNT BSS     1
      02341                   N      BSS     1

                                             * * * * * * * *
                                             * BCI CONSTANTS
                                             * * * * * * * *

      02342  642123234563     UA     BCI     1,UACCNT
      02343  516060606060     R      BCI     1,R
      02344  666060606060     W      BCI     1,W
      02345  633144212323     TA     BCI     1,TIMACC
      02346  626444215170     SU     BCI     1,SUMARY
      02347  634663214362     TO     BCI     1,TOTALS
      02350  633144646224     TU     BCI     1,TIMUSD
      02351 -377777777777     FENCE  OCT     777777777777

                                             * * * * *
                                             * TIA'S *
                                             * * * * *

      02352  0101 00 0 02437  WRFLX  TIA     =HWRFLX
      02353  0101 00 0 02407  GETCOM TIA     =HGETCOM
      02354  0101 00 0 02410  GETMEM TIA     =HGETMEM
      02355  0101 00 0 02434  SETMEM TIA     =HSETMEM
      02356  0101 00 0 02404  CHNCOM TIA     =HCHNCOM
      02357  0101 00 0 02403  ATTNAM TIA     =HATTNAM
      02360  0101 00 0 02433  SETBRK TIA     =HSETBRK
                                     END

        LITERALS
      02361  000000000000
      02362  000000000001
      02363  000000000003
      02364  000000000005
      02365  000000000036
      02366  000000000061
      02367  000000000062
      02370  000000000066
      02371  000000000074
      02372  000000000144
      02373  000000000375
      02374  000000000657
      02375  000000000660
      02376  000001720440
      02377  000003641100
      02400  006047514622
      02401  006346632143
      02402  016060606060
      02403  216363452144
      02404  233045234644
      02405  234426430000
      02406  234426430002
1       THIS ROUTINE PRODUCES THE MONTHLY SUMARY AND TOTALS                                      PAGE 26

      02407  272563234644
      02410  272563442544
      02411  400000000000
      02412  400000000001
      02413  443326332433
      02414  530000000000
      02415  546060606060
      02416  600000000000
      02417  602326430060
      02420  602646516060
      02421  604401040106
      02422  604521442560
      02423  604751462760
      02424  606000000000
      02425  606021232325
      02426  606024254763
      02427  606060606000
      02430  606060606060
      02431  606321422545
      02432  607111111111
      02433  622563225142
      02434  622563442544
      02435  626060606060
      02436  626260262525
      02437  665126436760
      02440  742631432534
1       THIS ROUTINE PRODUCES THE MONTHLY SUMARY AND TOTALS                                      PAGE 1
                        POST PROCESSOR ASSEMBLY DATA

       2441 IS THE FIRST LOCATION NOT USED BY THIS PROGRAM

0REFERENCES TO DEFINED SYMBOLS
       2277      A   174,  201,  206,  210,  213,  222,  231,  240,  247,  354,  360,  364,  411,  416,  417,  425,  426
                     434,  441,  445,  517,  536,  545,  555,  723,  725, 1020, 1022, 1024, 1025, 1033, 1034, 1042, 1043
                    1126, 1127
       2267      B   540,  546,  556,  557, 1077, 1106, 1116, 1117
       2213      I   170,  200,  262,  270
       2341      N   146,  167,  176,  356,  523,  542, 1056, 1060, 1072, 1101, 1570, 1572, 1746
       1605      P  1473
       2343      R   152,  274,  515, 1064
       2344      W   311,  321
       2233     CF  1023, 1032, 1041, 1050, 1052, 1111, 1500, 1505, 1542, 1544, 1742
       2212     N3  1062, 1066, 1075, 1104, 1115
       1615     NF  1723
       1646     PC  1622
       2346     SU   322, 1013, 1350, 1406, 1443, 1460, 1465, 1601, 1630, 1635, 1642, 1706, 1730, 1757
       2221     T1   424,  452,  711,  733
       2222     T2   433,  456,  713,  736
       2223     T3   440,  462,  715,  742
       2224     T4   444,  466,  717,  746
       2225     T5   450,  472,  721,  752
       2345     TA   276,  353, 1734, 1766
       2347     TO   312, 1362, 1375, 1402, 1417, 1424, 1725, 1762
       2350     TU   136,  142,  153,  164,  172,  265
       2342     UA   275,  352, 1733, 1765
       2003    ARG  1772, 1775, 1776, 2000
       2214    TT1   453,  454, 1254, 1303, 1333
       2215    TT2   457,  460, 1257, 1304, 1334
       2216    TT3   463,  464, 1262, 1305, 1335
       2217    TT4   467,  470, 1265, 1306, 1336
       2220    TT5   473,  474, 1270, 1307, 1337
       2201    TU1   112,  220,  375,  475,  610,  660,  760, 1646
       2202    TU2   114,  227,  376,  500,  615,  665,  761, 1653
       2203    TU3   116,  236,  377,  503,  622,  672,  762, 1660
       2204    TU4   120,  245,  400,  506,  627,  677,  763, 1665
       2205    TU5   122,  254,  401,  511,  634,  704,  764, 1672
       2001    XR4  1773
        155   BUF1    70
        277   BUF2    71
        156   BUF3    73
        300   BUF4    74
        314   BUF5    76
        315   BUF6   100
        316   BUF7   102
        324   BUF8   104
        325   BUF9   106
         11   BZEL  1777
       1125   CFLS  1055, 1744
       2333   DATE   306,  343
       2335   DAYS    51,   53,   54,   57,   61,   64
       2250   DEPT  1132, 1355, 1450
       1610   DONE  1370
       2260   DRUM   525,  564,  566,  774,  776
1       THIS ROUTINE PRODUCES THE MONTHLY SUMARY AND TOTALS                                      PAGE 2
                        POST PROCESSOR ASSEMBLY DATA

       2153   ERR1   261, 1713, 1715, 1717, 1721
       2162   ERR2
       2165   ERR4  1626
       2265   FLAG  1613, 1621, 1624
       2263   HOME   304, 1611, 1612, 1754, 1755
          5   LINK   135
        171   LOAD   162,  263
       2206   NAME   124,  205,  374,  403,  772, 1615, 1677, 1716
         21   OPEN   514, 1063
       2207   PROB   126,  207,  367, 1701, 1712
       2210   PROG   130,  211,  365, 1703, 1714
       2251   TEMP   202,  204,  607,  613,  614,  620,  621,  625,  626,  632,  633,  637,  640,  645,  647,  661,  663
                     666,  670,  673,  675,  700,  702,  705,  707,  734,  737,  740,  743,  744,  747,  750,  753,  754
                     756,  765,  767, 1006, 1010, 1146, 1152, 1153, 1157, 1160, 1164, 1165, 1171, 1176, 1200, 1215, 1217
                    1220, 1222, 1223, 1224, 1277, 1301, 1310, 1312, 1324, 1326, 1474, 1476, 1501, 1503, 1515, 1517, 1531
                    1533, 1647, 1651, 1654, 1656, 1661, 1663, 1666, 1670, 1673, 1675
       2334   TIME   307,  344
       2226   TTU1   476,  477, 1144, 1235, 1272, 1340
       2227   TTU2   501,  502, 1147, 1240, 1273, 1341
       2230   TTU3   504,  505, 1154, 1243, 1274, 1342
       2231   TTU4   507,  510, 1161, 1246, 1275, 1343
       2232   TTU5   512,  513, 1166, 1251, 1276, 1344
        373   UMAX   271
       2255   USED   526,  550,  577,  602,  651
       2256  ALLOT   527,  552,  574,  605
        601  BACK1   533
       1737  BADCF  1071
         13  BCDEC    52,  212,  221,  230,  237,  246,  451,  455,  461,  465,  471,  732,  735,  741,  745,  751
       1753  BREAK   134
        326  BUF10   110
       1722  CATCH  1620
         23  CLOSE   543, 1102
         25  COST1   611, 1145
         26  COST2   616, 1150
         27  COST3   623, 1155
         30  COST4   630, 1162
         31  COST5   635, 1167
         32  COSTD    65,   66,  652, 1203, 1506
         34  COSTS  1214
         33  COSTU    62,   63,  777, 1315, 1522
         12  DEFBC  1774
       1751  ERROR   160,  166,  177,  267,  302,  317,  327,  357, 1016, 1353, 1365, 1405, 1422, 1427, 1446, 1463, 1470
                    1604, 1633, 1640, 1645, 1711
       2351  FENCE    41,   46
        403  FOUND   371
         20  GETTM   305
         10  LJUST   203, 1221
       2004  MESS1   334,  336,  340,  342,  347,  350, 1374, 1376, 1400, 1404, 1407, 1437, 1441, 1445
       2025  MESS2
       2030  MESS3  1411, 1413, 1415, 1421, 1452, 1454, 1456, 1462
       2057  MESS4   407,  414,  603,  606,  650,  664,  671,  676,  703,  710,  712,  714,  716,  720,  722,  724,  727
                     731,  757,  770,  775, 1011, 1015, 1140, 1143, 1201, 1227, 1231, 1233, 1236, 1241, 1244, 1247, 1252
                    1255, 1260, 1263, 1266, 1271, 1302, 1313, 1327, 1332, 1352, 1356, 1360, 1364, 1477, 1504, 1520, 1534
                    1552, 1553, 1554, 1555, 1556, 1557, 1560, 1561, 1562, 1563, 1564, 1565, 1566, 1567, 1575, 1577, 1603
       2106  MESS5  1426, 1467, 1644
1       THIS ROUTINE PRODUCES THE MONTHLY SUMARY AND TOTALS                                      PAGE 3
                        POST PROCESSOR ASSEMBLY DATA

       2110  MESS6  1632
       2121  MESS7  1637
       2136  MESS8  1652, 1657, 1664, 1671, 1676, 1700, 1702, 1704, 1710
       2336  MONTH    60,  335,  337
       2262  NAME2    40,   56,  137,  143,  154,  165,  173,  266,  313,  323, 1014, 1351, 1363, 1403, 1420, 1425, 1444
                    1461, 1466, 1602, 1631, 1636, 1643, 1707, 1726, 1731, 1760, 1763
       2247  NDEPT  1131, 1134, 1440, 1447
        525  NOUFD   522
       1471  PRNCF  1135, 1605
       2261  PROBN   370,  406,  516,  535,  544,  554,  730, 1021, 1065, 1074, 1103, 1114, 1366, 1576
          7  RJUST  1354
         35  START    24
       2253  TUSED   576,  600, 1137, 1202, 1212, 1541, 1543
       1723  UMAX1   272
       2352  WRFLX   260, 1625, 1720
         16 ATTACH   330, 1610, 1753
       2357 ATTNAM   303
          1 BFCLOS   264, 1724, 1727, 1732, 1756, 1761, 1764
          0 BFOPEN   151,  273,  310,  320
          2 BFREAD   171,  351
          3 BFWRIT  1012, 1347, 1361, 1401, 1416, 1423, 1442, 1457, 1464, 1600, 1627, 1634, 1641, 1705
       2177 BUFSIZ    72,   75,   77,  101,  103,  105,  107,  111
       2237 CFALOT  1112, 1472, 1536, 1540, 1741
       2243 CFDRUM  1124, 1514, 1521, 1546, 1550, 1743
       1052 CFLOOP  1125
       2356 CHNCOM  1735, 1767
       1430 CNTDPT  1372
       1771 CONVRT   601,  604,  646,  662,  667,  674,  701,  706,  755,  766,  773, 1007, 1136, 1141, 1177, 1216, 1234
                    1237, 1242, 1245, 1250, 1253, 1256, 1261, 1264, 1267, 1300, 1311, 1325, 1330, 1475, 1502, 1516, 1532
                    1650, 1655, 1662, 1667, 1674
          4 DAYMON    55
       2211 DPTCNT  1371, 1430, 1432, 1435
       2257 DRMTOT   565,  567, 1314, 1331, 1346, 1545, 1547
       2252 DSKDOL   657, 1005, 1210, 1323, 1513, 1530
         17 FSTATE   553, 1113
        416 GETALT   402,  410
       2353 GETCOM    36,   44
       2354 GETMEM    67
         55 GETMON    43,   50
       1607 .CLOSE   355
         34 LINSIZ   174, 2211
       1745 LNKERR   145
       2266 LNKFLG   150,  161, 1745
        264 LOADED   175
        364 LOOKUP   373
       1366 PRNDEP  1133
         14 PRNTER  1737, 1751
       1020 PROBIN   362
        351 RDACCT   405,  415, 1017, 1606
         22 RDFILE   534, 1073
       2360 SETBRK   133
       2355 SETMEM   132
         15 STORGE
       2254 TALLOT   573,  575, 1142, 1211, 1535, 1537
       2200 TBLSIZ   113,  115,  117,  121,  123,  125,  127,  131
1       THIS ROUTINE PRODUCES THE MONTHLY SUMARY AND TOTALS                                      PAGE 4
                        POST PROCESSOR ASSEMBLY DATA

        151 TUOPEN  1750
        534 UFDFND   524
          6 UNLINK   163
       2340 USRCNT   530,  532,  570,  572, 1213, 1345

0 NO ERROR IN ABOVE ASSEMBLY.
1                                                                                                PAGE 1

                       00003         ENTRY   DAYMON
                                     EXTERN  BCDEC

        TRANSFER VECTOR
      00000  222324252360     BCDEC

            LINKAGE DIRECTOR
      00001  000000000000
      00002  242170444645

      00003  0634 00 1 00150  DAYMON SXA     XR1,1         SAVE THEM INDICESSESSS
      00004  0634 00 2 00151         SXA     XR2,2
      00005  0634 00 4 00152         SXA     XR4,4
      00006  0500 00 4 00002         CLA     2,4           GET THEM ARGUMMMMMENTS
      00007  0621 00 0 00157         STA     DAYS
      00010  0500 00 4 00003         CLA     3,4
      00011  0621 00 0 00156         STA     MONTH
      00012  0500 00 4 00001         CLA     1,4
      00013  0621 00 0 00154         STA     AMON
      00014  0074 00 4 00162         TSX     GETIME,4      GET THE CURRENT DATE
      00015 -0754 00 0 00000         ZAC
      00016 -0763 00 0 00014         LGL     12            SHIFT MONTH INTO AC
      00017  0601 00 0 00173         STO     CURMON        AND STORE THIS MONTH
      00020 -0754 00 0 00000         ZAC
      00021 -0763 00 0 00014         LGL     12            GET TODAYS DATE
      00022  0602 00 0 00174         SLW     CURDAY
      00023 -0754 00 0 00000         ZAC
      00024 -0763 00 0 00014         LGL     12            GET THE YEAR
      00025  0601 00 0 00155         STO     TEMP
      00026  0074 00 4 00000         TSX     BCDEC,4
      00027  3 00000 0 00155         PTH     TEMP
      00030  0131 00 0 00000         XCA
      00031 -0754 00 0 00000         ZAC
      00032  0221 00 0 00267         DVP     =4
      00033  0601 00 0 00175         STO     LPYEAR        ZERO IF A LEAP-YEAR
      00034  0074 00 4 00000         TSX     BCDEC,4       CONVERT CURMON TO BINARY
      00035  3 00000 0 00173         PTH     CURMON
      00036  0601 00 0 00173         STO     CURMON
      00037  0074 00 4 00000         TSX     BCDEC,4       CONVERT CURDAY TO BINARY
      00040  3 00000 0 00174         PTH     CURDAY
      00041  0601 00 0 00174         STO     CURDAY
      00042 -0500 60 0 00154         CAL*    AMON          GET THE GIVEN MONTH
      00043 -0340 00 0 00273         LAS     =HLMONTH      SEE IF 'LMONTH'
      00044  0020 00 0 00046         TRA     *+2           NO--
      00045  0020 00 0 00047         TRA     LMONTH        YES--GO TAKE CARE OF THIS
      00046  0020 60 1 00200         TRA*    OPTION,1      USE XR1 TO DETERMIN WHICH OPTION WANTED
      00047  0500 00 0 00173  LMONTH CLA     CURMON        GET CURRENT MONTH NUMBER
      00050  0402 00 0 00266         SUB     =1            GO TO LAST MONTH
      00051  0737 00 1 00000  MORE   PAC     ,1
      00052  0767 00 0 00001         ALS     1
      00053  0737 00 2 00000         PAC     ,2
      00054 -0500 00 1 00201         CAL     ACCMON,1      GET THE ACC. NAME OF MONTH
      00055  0602 60 0 00154         SLW*    AMON          AND RETURN IT
      00056  0500 00 2 00216         CLA     BCDMON,2      THE THE FULL BCD MONTH
      00057  0560 00 2 00217         LDQ     BCDMON+1,2    ..
      00060 -0603 60 0 00156         DST*    MONTH         AND RETURN IT ALSO
1                                                                                                PAGE 2

      00061  0500 00 1 00250         CLA     DAYSM,1       GET THE NUMBER OF DAYS
      00062  0020 00 0 00137         TRA     RETRN1        AND RETURN
      00063  0774 00 1 77777  OPT2   AXT     -1,1          HERE TO FIND BCD MONTH AND DAYS FROM AMON
      00064 -0500 60 0 00154         CAL*    AMON
      00065 -0340 00 1 00201  LOOP0  LAS     ACCMON,1      FIND THE MONTH IN LIST
      00066  0020 00 0 00070         TRA     *+2           MOT YET
      00067  0020 00 0 00073         TRA     CHKCUR        YES.YES
      00070  1 77777 1 00071         TXI     *+1,1,-1
      00071  3 77763 1 00065         TXH     LOOP0,1,-13
      00072  0020 00 0 00133         TRA     BADMON        TOO BAD--ILLEGAL MONTH GIVEN
      00073  0756 00 1 00000  CHKCUR PCA     ,1            GET THE FOUND MONTH NUMBER
      00074  0340 00 0 00173         CAS     CURMON        IS IT THIS MONTH
      00075  0020 00 0 00051         TRA     MORE          NO--FINISH UP
      00076  0020 00 0 00100         TRA     OPT1          YES--HANDLE LIKE CURRENT MONTH
      00077  0020 00 0 00051         TRA     MORE
      00100  0500 00 0 00173  OPT1   CLA     CURMON        GET CURRENT MONTH AND DAYS
      00101  0737 00 1 00000         PAC     ,1
      00102  0767 00 0 00001         ALS     1
      00103  0737 00 2 00000         PAC     ,2
      00104 -0500 00 0 00274         CAL     =HTIMACC      RETURN 'TIMACC' FOR AMON
      00105  0602 60 0 00154         SLW*    AMON
      00106  0500 00 2 00216         CLA     BCDMON,2      GET BCD MONTH
      00107  0560 00 2 00217         LDQ     BCDMON+1,2
      00110 -0603 60 0 00156         DST*    MONTH
      00111  0500 00 0 00174         CLA     CURDAY        GET DAY OF MONTH
      00112  0601 60 0 00157         STO*    DAYS
      00113  0020 00 0 00150         TRA     RETRN2        AND OUT WE GO
      00114  0774 00 1 77777  OPT0   AXT     -1,1          HERE TO FIND MONTH FROM AMON
      00115 -0500 60 0 00154         CAL*    AMON
      00116 -0340 00 1 00201  LOOP1  LAS     ACCMON,1      SEARCH THE TABLE
      00117  0020 00 0 00121         TRA     *+2           NOPE
      00120  0020 00 0 00124         TRA     *+4           YUP
      00121  1 77777 1 00122         TXI     *+1,1,-1
      00122  3 77763 1 00116         TXH     LOOP1,1,-13
      00123  0020 00 0 00133         TRA     BADMON        DIDN'T FIND IT, HUH
      00124  0754 00 1 00000         PXA     ,1            GET THW COUNT
      00125  0767 00 0 00001         ALS     1             TIMES TWO
      00126  0734 00 1 00000         PAX     ,1
      00127  0500 00 1 00216         CLA     BCDMON,1
      00130  0560 00 1 00217         LDQ     BCDMON+1,1
      00131 -0603 60 0 00156         DST*    MONTH
      00132  0020 00 0 00150         TRA     RETRN2
      00133  0074 00 4 00160  BADMON TSX     WRFLX,4
      00134  0 00010 0 00163         PZE     ERROR,,8
      00135  0074 00 4 00161         TSX     CHNCOM,4
      00136  0 00000 0 00265         PZE     =0
      00137  0131 00 0 00000  RETRN1 XCA
      00140  0500 00 0 00175         CLA     LPYEAR        CHECK FOR LEAPYEAR
      00141 -0100 00 0 00145         TNZ     NOLEAP
      00142 -0763 00 0 00022         LGL     18            GET THE LEAPYEAR DAYS
      00143  0601 60 0 00157         STO*    DAYS
      00144  0020 00 0 00137         TRA     RETRN1
      00145  0131 00 0 00000  NOLEAP XCA
      00146 -0320 00 0 00270         ANA     =O777777
      00147  0601 60 0 00157         STO*    DAYS
      00150                   RETRN2 BSS     0
1                                                                                                PAGE 3

      00150  0774 00 1 00000  XR1    AXT     **,1
      00151  0774 00 2 00000  XR2    AXT     **,2
      00152  0774 00 4 00000  XR4    AXT     **,4
      00153  0020 00 4 00004         TRA     4,4


      00154                   AMON   BSS     1
      00155                   TEMP   BSS     1
      00156                   MONTH  BSS     1
      00157                   DAYS   BSS     1
      00160  0101 00 0 00275  WRFLX  TIA     =HWRFLX
      00161  0101 00 0 00271  CHNCOM TIA     =HCHNCOM
      00162  0101 00 0 00272  GETIME TIA     =HGETIME
      00163  273165254560     ERROR  BCI     8,GIVEN MONTH NOT FOUND IN TABLE
      00164  444645633060
      00165  454663602646
      00166  644524603145
      00167  606321224325
      00170  606060606060
      00171  606060606060
      00172  606060606060
      00173                   CURMON BSS     1
      00174                   CURDAY BSS     1
      00175                   LPYEAR BSS     1
      00176  0 00000 0 00063         PZE     OPT2
      00177  0 00000 0 00100         PZE     OPT1
      00200  0 00000 0 00114  OPTION PZE     OPT0
      00201  606060242523     ACCMON BCI     1,   DEC
      00202  606060412145            BCI     1,   JAN
      00203  606060262522            BCI     1,   FEB
      00204  604421512330            BCI     1, MARCH
      00205  602147513143            BCI     1, APRIL
      00206  606060442170            BCI     1,   MAY
      00207  606041644525            BCI     1,  JUNE
      00210  606041644370            BCI     1,  JULY
      00211  216427646263            BCI     1,AUGUST
      00212  606062254763            BCI     1,  SEPT
      00213  606060462363            BCI     1,   OCT
      00214  606060454665            BCI     1,   NOV
      00215  606060242523            BCI     1,   DEC
      00216  606060602425     BCDMON BCI     2,    DECEMBER
      00217  232544222551
      00220  606060606041            BCI     2,     JANUARY
      00221  214564215170
      00222  606060602625            BCI     2,    FEBRUARY
      00223  225164215170
      00224  606060606060            BCI     2,       MARCH
      00225  604421512330
      00226  606060606060            BCI     2,       APRIL
      00227  602147513143
      00230  606060606060            BCI     2,         MAY
      00231  606060442170
      00232  606060606060            BCI     2,        JUNE
      00233  606041644525
      00234  606060606060            BCI     2,        JULY
1                                                                                                PAGE 4

      00235  606041644370
      00236  606060606060            BCI     2,      AUGUST
      00237  216427646263
      00240  606060622547            BCI     2,   SEPTEMBER
      00241  632544222551
      00242  606060606046            BCI     2,     OCTOBER
      00243  236346222551
      00244  606060604546            BCI     2,    NOVEMBER
      00245  652544222551
      00246  606060602425            BCI     2,    DECEMBER
      00247  232544222551
      00250  0 00037 0 00037  DAYSM  PZE     31,,31
      00251  0 00037 0 00037         PZE     31,,31
      00252  0 00035 0 00034         PZE     28,,29
      00253  0 00037 0 00037         PZE     31,,31
      00254  0 00036 0 00036         PZE     30,,30
      00255  0 00037 0 00037         PZE     31,,31
      00256  0 00036 0 00036         PZE     30,,30
      00257  0 00037 0 00037         PZE     31,,31
      00260  0 00037 0 00037         PZE     31,,31
      00261  0 00036 0 00036         PZE     30,,30
      00262  0 00037 0 00037         PZE     31,,31
      00263  0 00036 0 00036         PZE     30,,30
      00264  0 00037 0 00037         PZE     31,,31
                                     END

        LITERALS
      00265  000000000000
      00266  000000000001
      00267  000000000004
      00270  000000777777
      00271  233045234644
      00272  272563314425
      00273  434446456330
      00274  633144212323
      00275  665126436760
1                                                                                                PAGE 1
                        POST PROCESSOR ASSEMBLY DATA

        276 IS THE FIRST LOCATION NOT USED BY THIS PROGRAM

0REFERENCES TO DEFINED SYMBOLS
        150    XR1     3
        151    XR2     4
        152    XR4     5
        154   AMON    13,   42,   55,   64,  105,  115
        157   DAYS     7,  112,  143,  147
         51   MORE    75,   77
        114   OPT0   200
        100   OPT1    76,  177
         63   OPT2   176
        155   TEMP    25,   27
          0  BCDEC    26,   34,   37
        250  DAYSM    61
        163  ERROR   134
         65  LOOP0    71
        116  LOOP1   122
        156  MONTH    11,   60,  110,  131
        160  WRFLX   133
        201 ACCMON    54,   65,  116
        133 BADMON    72,  123
        216 BCDMON    56,   57,  106,  107,  127,  130
         73 CHKCUR    67
        161 CHNCOM   135
        174 CURDAY    22,   40,   41,  111
        173 CURMON    17,   35,   36,   47,   74,  100
          3 DAYMON     0
        162 GETIME    14
         47 LMONTH    45
        175 LPYEAR    33,  140
        145 NOLEAP   141
        200 OPTION    46
        137 RETRN1    62,  144
        150 RETRN2   113,  132

0 NO ERROR IN ABOVE ASSEMBLY.


SYSLST   BCD 09/20/68 0223.5   13100         00000
