1       M1416-3845 PETER R. BOS ..... TUT, PRINT TRACK USAGE FIGURES .....                       PAGE 1

                                     PCC     ON
                                     LBL     TUT00000
                                     PCC     OFF

                                     EXTERN  WRFLX,SETBRK,GETCOM,BCDEC,GETLOC,ACORE,GETMEM
                                     EXTERN  SETMEM,SETFUL,GETARY,BITBL,DEFBC,BZEL,BCLFUL
                                     EXTERN  BCRFUL,BZ57,SETBCD,SLEEP,CHNCOM


                                     UNLIST
 M                            CALL   MACRO   NAME,LIST     SUBROUTINE CALL MACRO


      00023  0760 00 0 00016         LMTM                  MAY AS WELL...
      00024  0760 00 0 00141         SLN     1             TURN ON A SENSE LIGHT.
      00025                          CALL    WRFLX((*,,0)) TYPE A C.R.
      00027                          CALL    SETBRK(XIT)   SET INTERRUPT.
      00031                          CALL    GETCOM(1)     GET SLEEP ARGUMENT, IF ANY.
      00033  0602 00 0 00272         SLW     SLPTIM        SAVE IT.
      00034  0322 00 0 00273         ERA     FENCE         TEST IF NO ARG.
      00035 -0100 00 0 00037         TNZ     *+2           NOT FENCE, SKIP.
      00036  0600 00 0 00272         STZ     SLPTIM        ELSE, CLEAR SLEEP TIME.
      00037                          CALL    BCDEC(SLPTIM) CONVERT TO BINARY.
      00041  0131 00 0 00000         XCA
      00042  0200 00 0 00301         MPY     =60           TURN TO SECONDS.
      00043 -0600 00 0 00272         STQ     SLPTIM        AND PUT IT AWAY.

      00044  0074 00 4 00004  TUTLOC TSX     GETLOC,4      TRY ABSOLUTE LOC'N FIRST
      00045  0 00000 0 46722         PZE     TUT           ..
      00046  0322 00 0 00045         ERA     TUTLOC+1      TEST IF RIGHT PLACE.
      00047  0100 00 0 00057         TZE     START         ZOWIE, HIT IT.
      00050 -0760 00 0 00141         SLT     1             IF WE ALREADY TRIED BEFORE,
      00051  0020 00 0 00206         TRA     BAD           FORGET IT.
      00052                          CALL    ACORE(=HGETTRK) TRY TO GET PROGRAM ORIGIN.
      00054  0361 00 0 00267         ACL     RELADR        PLUS RELATIVE ADDRESS LAST TIME
      00055  0621 00 0 00045         STA     TUTLOC+1      WE LOOKED AT THE LISTINGS, AND
      00056  0020 00 0 00044         TRA     TUTLOC        TRY ONCE MORE (ONLY ONCE).

                       00057  START  SYN     *
      00057  0074 00 4 00006         TSX     GETMEM,4      GET MEMORY BOUND NOW.
      00060  0621 00 0 00074         STA     GET+2         SAVE FOR CALL TO GETARY.
      00061  0774 00 7 00003         AXT     NTABLS,7      NUMBER OF DIFFERENT TABLES TO GET.
      00062  0621 00 7 00227         STA     PTABLE,7      TABLE START ADDRESS IN BCORE.
      00063  0400 00 7 00224         ADD     LTABLE,7      TABLE LENGTH.
      00064  2 00001 7 00062         TIX     *-2,7,1       REPEAT TILL DONE.
      00065  0074 00 4 00007         TSX     SETMEM,4      NOW SET NEW MEMORY BOUND.

      00066  0534 00 4 00045         LXA     TUTLOC+1,4    GET A-CORE TABLE ORIGIN.
      00067  1 00001 4 00070         TXI     *+1,4,1       ..
      00070  0634 00 4 00073         SXA     GET+1,4       AND INSERT IN CALL

                       00071  WORK   SYN     *             RETURN HERE AFTER WAKING UP.
      00071  0074 00 4 00010         TSX     SETFUL,4      TO 12-BIT MODE.
      00072  0074 00 4 00011  GET    TSX     GETARY,4      READ IN ENTIRE USAGE TABLE.
      00073  0 00000 0 00000         PZE     -             ..
      00074  0 04363 0 00000         PZE     -,,TOTLTH     ..
1       M1416-3845 PETER R. BOS ..... TUT, PRINT TRACK USAGE FIGURES .....                       PAGE 2

      00075  0774 00 7 00003         AXT     NTABLS,7      GET NUMBER OF TABLES TO DO.

      00076 -0500 00 7 00227  MORE   CAL     PTABLE,7      GET B-CORE ADDRESS OF ORIGIN.
      00077 -0734 00 1 00000         PDX     0,1           COUNT TO XR1.
      00100  0737 00 2 00000         PAC     0,2           -(ORIGIN) TO XR2.
      00101  0600 00 0 00270         STZ     COUNT         CLEAR BIT COUNT FOR THIS TABLE.
      00102 -0500 00 7 00221         CAL     LBITS,7       GET NUMBER OF BITS IN LAST WORD.
      00103  0734 00 4 00000         PAX     0,4           TO XR4 FOR SHIFTING.
                       00104  LOOP   SYN     *             LOOP HERE TO COUNT BITS.
      00104 -0500 00 2 00000         CAL     0,2           GET WORD FROM TABLE.
      00105  0760 00 0 00006         COM                   1 BIT = UNUSED TRACK, SO COMPLEMENT.
      00106 -0320 00 0 00273         ANA     FENCE         GET RID OF DAMNED Q BIT.
      00107  3 00001 1 00111         TXH     *+2,1,1       SKIP EXCEPT ON LAST WORD.
      00110  0771 00 4 00044         ARS     36,4          SHIFT OUT UNUSED BITS ON LAST WORD.
      00111 -0130 00 0 00000         XCL                   WORD TO MQ.
      00112 -0754 00 0 00000         ZAC                   CLEAR COUNT IN AC.
      00113  0522 60 0 00012         XEC*    BITBL         COUNT BITS IN MQ (VIA CAQ TABLE)
      00114  0771 00 0 00022         ARS     18            SHIFT COUNT.
      00115  0400 00 0 00270         ADD     COUNT         ADD IN PREVIOUS RESULTS.
      00116  0601 00 0 00270         STO     COUNT         AND SAVE IT NOW.
      00117  1 77777 2 00120         TXI     *+1,2,-1      INCREMENT TABLE ADDRESS.
      00120  2 00001 1 00104         TIX     LOOP,1,1      LOOP TILL DONE.

      00121  0560 00 0 00270         LDQ     COUNT         GET BIT COUNT FROM TABLE.
      00122  0200 00 7 00216         MPY     FACTOR,7      FOR DISK TRACKS, 1 BIT = 2 RECORDS.
      00123 -0600 00 0 00270         STQ     COUNT         SAVE RESULT.
      00124  0200 00 0 00303         MPY     =1000         NOW CONVERT TO PERCENTAGE.
      00125 -0754 00 0 00000         ZAC                   JUST IN CASE.
      00126  0221 00 7 00232         DVP     TOTAL,7       DIVIDE BY TOTAL AVAILABLE.
      00127 -0600 00 0 00271         STQ     TEMP          SAVE.
      00130                          CALL    DEFBC(TEMP)   CONVERT TO DECIMAL.
      00132 -0765 00 0 00006         LGR     6             MAKE ROOM FOR DECIMAL POINT.
      00133  0767 00 0 00006         ALS     6             ..
      00134 -0501 00 0 00300         ORA     =O33          '.'
      00135 -0763 00 0 00014         LGL     12            SHIFT TO LEFT OF WORD,
      00136  0602 00 0 00271         SLW     TEMP          AND SAVE AGAIN.
      00137                          CALL    BZEL(TEMP)    BLANK OUT LEADING ZEROS.
      00141  0601 00 0 00271         STO     TEMP          AND AGAIN.
      00142                          CALL    BCLFUL(TEMP)  NOW CONVERT TO 12-BIT.
      00144  0602 00 0 00241         SLW     MESS+NWDS     LEFT HALF OF PCT.
      00145                          CALL    BCRFUL(TEMP)  THE RIGHT HALF IS NICE TO HAVE ALSO.
      00147 -0501 00 0 00302         ORA     =O105         ADD A PERCENT SIGN.
      00150  0602 00 0 00242         SLW     MESS+NWDS+1   ..

      00151  0500 00 7 00232         CLA     TOTAL,7       GET TOTAL AVAILABLE FOR TABLE.
      00152  0402 00 0 00270         SUB     COUNT         LESS THE ONES BEING USED.
      00153  0601 00 0 00271         STO     TEMP          SAVE RESULT.
      00154                          CALL    DEFBC(TEMP)   CONVERT TO DECIMAL ALSO.
      00156  0601 00 0 00271         STO     TEMP          ..
      00157                          CALL    BZ57(TEMP)    NULLS, PLEASE.
      00161  0602 00 0 00271         SLW     TEMP          AGAIN..
      00162                          CALL    BCLFUL(TEMP)  CONVERT TO 12-BIT.
      00164  0602 00 0 00246         SLW     MESS+NWDS+5   INSERT IN MESSAGE.
      00165                          CALL    BCRFUL(TEMP)  GET THE OTHER HALF TOO.
      00167  0602 00 0 00247         SLW     MESS+NWDS+6   AND ADD THAT IN.
1       M1416-3845 PETER R. BOS ..... TUT, PRINT TRACK USAGE FIGURES .....                       PAGE 3

      00170  0774 00 4 00004         AXT     NWDS,4        NOW GET THE NAME OF THE SILLY THING.
      00171 -0500 60 7 00235         CAL*    MESSNM,7      (A FEW WORDS)
      00172  0602 00 4 00241         SLW     MESS+NWDS,4   AND ADD THAT TO MESSAGE TOO.
      00173  2 00001 4 00171         TIX     *-2,4,1       LOOP TILL DONE.

      00174                          CALL    WRFLX((MESS,,LMESS))
      00176  2 00001 7 00076         TIX     MORE,7,1      REPEAT FOR EACH TABLE.
      00177  0074 00 4 00020         TSX     SETBCD,4      BACK TO 6-BIT MODE.
      00200                          CALL    WRFLX((*,,0)) AND A C.R.

      00202 -0500 00 0 00272         CAL     SLPTIM        ARE WE TO SLEEP. Q
      00203  0100 00 0 00210         TZE     XIT           NO, JUST GO AWAY.
      00204  0074 00 4 00021         TSX     SLEEP,4       ZZZ .. ZZZ .. ZZZ
      00205  0020 00 0 00071         TRA     WORK          (YAWN) .. DO SOME MORE STUFF.

      00206                   BAD    TYPE    4(BAD UTABLE ADDRESS)
      00210  0074 00 4 00020  XIT    TSX     SETBCD,4      MAKE SURE IN 6-BIT MODE.
      00211                          CALL    CHNCOM(0)     AND EXIT.
1       M1416-3845 PETER R. BOS ..... TUT, PRINT TRACK USAGE FIGURES .....                       PAGE 4

                                             STORAGE AND CONSTANTS.

                                     INSERT  NMODS         DEFINE NDRUMS AND NDISKS
                       00001  NDRUMS EQU     1             NUMBER OF DRUM MODULES
                       00010  NDISKS EQU     8             NUMBER OF DISK MODULES

                       00620  TKPDRM EQU     400           NUMBER OF BITS IN TABLE PER DRUM MODULE.
                       23420  TKPDSK EQU     10000         NUMBER OF BITS IN TABLE PER DISK MODULE.
                       00372  CLPDSK EQU     250           NUMBER OF CYLINDERS PER DISK MODULE.

                       00001  DRMFAC EQU     1             NUMBER OF DRUM RECORDS PER BIT.
                       00002  DSKFAC EQU     2             NUMBER OF DISK RECORDS PER BIT.
                       00001  CYLFAC EQU     1             NUMBER OF CYLINDERS PER BIT.

      00213  0 00000 0 00001         PZE     DRMFAC
      00214  0 00000 0 00002         PZE     DSKFAC
      00215  0 00000 0 00001         PZE     CYLFAC
                       00216  FACTOR SYN     *             MULTIPLYING FACTORS.

                       00004  LDRMBT EQU     NDRUMS*TKPDRM-NDRUMS*TKPDRM/36*36
                       00010  LDSKBT EQU     NDISKS*TKPDSK-NDISKS*TKPDSK/36*36
                       00024  LCYLBT EQU     NDISKS*CLPDSK-NDISKS*CLPDSK/36*36

                       00014  DRUML  EQU     NDRUMS*TKPDRM/36+1
                       04257  DISKL  EQU     NDISKS*TKPDSK/36+1
                       00070  CYLDL  EQU     NDISKS*CLPDSK/36+1

      00216  0 00000 0 00004         PZE     LDRMBT
      00217  0 00000 0 00010         PZE     LDSKBT
      00220  0 00000 0 00024         PZE     LCYLBT
                       00221  LBITS  SYN     *             NUMBER OF BITS IN LAST TABLE WORD.

                       00221  TOPTBL SYN     *             TOP OF LENGTH TABLE.
      00221  0 00000 0 00014         PZE     DRUML
      00222  0 00000 0 04257         PZE     DISKL
      00223  0 00000 0 00070         PZE     CYLDL
                       00224  LTABLE SYN     *             TABLE OF USAGE TABLE LENGTHS.
                       00003  NTABLS EQU     LTABLE-TOPTBL NUMBER OF TABLES.

                       04363  TOTLTH EQU     DRUML+DISKL+CYLDL TOTAL LENGTH OF ALL TABLES.

      00224  0 00014 0 00000         PZE     -,,DRUML
      00225  0 04257 0 00000         PZE     -,,DISKL
      00226  0 00070 0 00000         PZE     -,,CYLDL
                       00227  PTABLE SYN     *             POINTERS TO TABLE LOC'N IN B-CORE.

      00227  000000000620            VFD     36/NDRUMS*TKPDRM*DRMFAC
      00230  000000470400            VFD     36/NDISKS*TKPDSK*DSKFAC
      00231  000000003720            VFD     36/NDISKS*CLPDSK*CYLFAC
                       00232  TOTAL  SYN     *             TOTAL AVAILABLE SPACE PER TABLE.

                       00004  NWDS   EQU     4             NUMBER OF WORDS RESERVED FOR NAME OF TABLE.
      00232  0 00000 4 00256         PZE     DRMMES+NWDS,4
      00233  0 00000 4 00262         PZE     DSKMES+NWDS,4
      00234  0 00000 4 00266         PZE     CYLMES+NWDS,4
                       00235  MESSNM SYN     *             POINTERS TO TABLE NAMES FOR PRINTING.
1       M1416-3845 PETER R. BOS ..... TUT, PRINT TRACK USAGE FIGURES .....                       PAGE 5

      00235                   MESS   BSS     NWDS          RESERVED FOR TABLE NAME.
      00241                          BSS     2             PCT. USED.
      00243  006001640162            BCI     2,0 1U1S1E1D0,
      00244  012501240073
      00245 +006000570057            OCT     006000570057
      00246                          BSS     2             AMOUNT LEFT.
      00250  006001430125            BCI     2,0 1L1E1F1T0.
      00251  012601630033
                       00015  LMESS  EQU     *-MESS

      00252  462401510164     DRMMES BCI     1,OD1R1U
      00253 +014400350060            OCT     014400350060
                       00254         DUP     1,NWDS-*+DRMMES
      00254 +005700570057            OCT     005700570057
      00255 +005700570057
      00256  002401310162     DSKMES BCI     1,0D1I1S
      00257 +014200350060            OCT     014200350060
                       00260         DUP     1,NWDS-*+DSKMES
      00260 +005700570057            OCT     005700570057
      00261 +005700570057
      00262  002301700143     CYLMES BCI     3,0C1Y1L1I1N1D1E1R1S
      00263  013101450124
      00264  012501510162
      00265 +003500600057            OCT     003500600057
 F                     00266         DUP     1,NWDS-*+CYLMES
      00266 +005700570057            OCT     005700570057

                      046722  TUT    BOOL    46722         LOCATION OF TABLE WHEN LAST SEEN.
                      000774  REL    BOOL    774           RELATIVE LOCATION IN PROGRAM.
      00267  0 00000 0 00774  RELADR PZE     REL           ..

      00270  0 00000 0 00000  COUNT  PZE
      00271  0 00000 0 00000  TEMP   PZE
      00272  0 00000 0 00000  SLPTIM PZE
      00273 -377777777777     FENCE  OCT     777777777777

      00274                          RMT     *             REMOTE SEQUENCES.

                                     END

        LITERALS
      00300  000000000033
      00301  000000000074
      00302  000000000105
      00303  000000001750
      00304  272563635142
1       M1416-3845 PETER R. BOS ..... TUT, PRINT TRACK USAGE FIGURES .....                       PAGE 1
                        POST PROCESSOR ASSEMBLY DATA

        305 IS THE FIRST LOCATION NOT USED BY THIS PROGRAM

0REFERENCES TO DEFINED SYMBOLS
        206    BAD    51
         72    GET    60,   70
        774    REL   267
      46722    TUT    45,  267
        210    XIT    30,  203
         17   BZ57   157
         14   BZEL   137
        104   LOOP   104,  120
        235   MESS   144,  150,  164,  167,  172,  175,  252
         76   MORE   176
          4   NWDS   144,  150,  164,  167,  170,  172,  232,  233,  234,  235,  254,  260,  266
        271   TEMP   127,  131,  136,  140,  141,  143,  146,  153,  155,  156,  160,  161,  163,  166
         71   WORK    71,  205
          5  ACORE    52
          3  BCDEC    37
         12  BITBL   113
        270  COUNT   101,  115,  116,  121,  123,  152
         70  CYLDL   216,  223,  224,  226
         13  DEFBC   130,  154
       4257  DISKL   216,  222,  224,  225
         14  DRUML   216,  221,  224
        273  FENCE    34,  106
        274  ..008   207
        221  LBITS   102,  221
         15  LMESS   175,  252
         21  SLEEP   204
         57  START    47,   57
        232  TOTAL   126,  151,  232
          0  WRFLX    25,  174,  200,  206
         15 BCLFUL   142,  162
         16 BCRFUL   145,  165
         22 CHNCOM   211
        372 CLPDSK   213,  216,  231
          1 CYLFAC   213,  215,  231
        262 CYLMES   234,  266
          1 DRMFAC   213,  227
        252 DRMMES   232,  254
          2 DSKFAC   213,  214,  230
        256 DSKMES   233,  260
        216 FACTOR   122,  216
         11 GETARY    72
          2 GETCOM    31
          4 GETLOC    44
          6 GETMEM    57
         24 LCYLBT   216,  220
          4 LDRMBT   216
         10 LDSKBT   216,  217
        224 LTABLE    63,  224
        235 MESSNM   171,  235
         10 NDISKS   213,  216,  230,  231
          1 NDRUMS   213,  216,  227
1       M1416-3845 PETER R. BOS ..... TUT, PRINT TRACK USAGE FIGURES .....                       PAGE 2
                        POST PROCESSOR ASSEMBLY DATA

          3 NTABLS    61,   75,  224
        227 PTABLE    62,   76,  227
        267 RELADR    54
         20 SETBCD   177,  210
          1 SETBRK    27
         10 SETFUL    71
          7 SETMEM    65
        272 SLPTIM    33,   36,   40,   43,  202
        620 TKPDRM   213,  216,  227
      23420 TKPDSK   213,  216,  230
        221 TOPTBL   221,  224
       4363 TOTLTH    74,  224
         44 TUTLOC    46,   55,   56,   66

0 NO ERROR IN ABOVE ASSEMBLY.
1            CAQ TABLE FOR FINDING NUMBER OF BITS IN A NUMBER.                                   PAGE 1

                                             7/16/65 - NOEL I. MORRIS

                              GEN    MACRO   OP,VARF
                                     PMC     ON
                                     OP      VARF
                                     PMC     OFF
                                     END

                              TGEN   MACRO   ITERS
                                     BITBL   ABC,0
                              ABC    SET     ABC+1
                                     IFF     ITERS-ABC,,
                                     TGEN    ITERS
                                     END

                              BITBL  MACRO   NUMBER,SUM
                              NBITS  SET     NUMBER+SUM
                              HALF   SET     NUMBER/2
                                     IFF     HALF,,A
                                     GEN     PZE(TABLE,,NBITS)
                                     IFF     HALF,,
                                     BITBL   HALF,NBITS-2*HALF
                                     END


                       00100         ENTRY   BITBL


                       00000  ABC    SET     0
      00000                   TABLE  TGEN    64
      00000  0 00000 0 00000         PZE     TABLE,,NBITS                                                     .003
      00001  0 00001 0 00000         PZE     TABLE,,NBITS                                                     .004
      00002  0 00001 0 00000         PZE     TABLE,,NBITS                                                     .006
      00003  0 00002 0 00000         PZE     TABLE,,NBITS                                                     .007
      00004  0 00001 0 00000         PZE     TABLE,,NBITS                                                     .009
      00005  0 00002 0 00000         PZE     TABLE,,NBITS                                                     .010
      00006  0 00002 0 00000         PZE     TABLE,,NBITS                                                     .011
      00007  0 00003 0 00000         PZE     TABLE,,NBITS                                                     .012
      00010  0 00001 0 00000         PZE     TABLE,,NBITS                                                     .014
      00011  0 00002 0 00000         PZE     TABLE,,NBITS                                                     .015
      00012  0 00002 0 00000         PZE     TABLE,,NBITS                                                     .016
      00013  0 00003 0 00000         PZE     TABLE,,NBITS                                                     .017
      00014  0 00002 0 00000         PZE     TABLE,,NBITS                                                     .018
      00015  0 00003 0 00000         PZE     TABLE,,NBITS                                                     .019
      00016  0 00003 0 00000         PZE     TABLE,,NBITS                                                     .020
      00017  0 00004 0 00000         PZE     TABLE,,NBITS                                                     .021
      00020  0 00001 0 00000         PZE     TABLE,,NBITS                                                     .023
      00021  0 00002 0 00000         PZE     TABLE,,NBITS                                                     .024
      00022  0 00002 0 00000         PZE     TABLE,,NBITS                                                     .025
      00023  0 00003 0 00000         PZE     TABLE,,NBITS                                                     .026
      00024  0 00002 0 00000         PZE     TABLE,,NBITS                                                     .027
      00025  0 00003 0 00000         PZE     TABLE,,NBITS                                                     .028
      00026  0 00003 0 00000         PZE     TABLE,,NBITS                                                     .029
      00027  0 00004 0 00000         PZE     TABLE,,NBITS                                                     .030
      00030  0 00002 0 00000         PZE     TABLE,,NBITS                                                     .031
      00031  0 00003 0 00000         PZE     TABLE,,NBITS                                                     .032
1            CAQ TABLE FOR FINDING NUMBER OF BITS IN A NUMBER.                                   PAGE 2

      00032  0 00003 0 00000         PZE     TABLE,,NBITS                                                     .033
      00033  0 00004 0 00000         PZE     TABLE,,NBITS                                                     .034
      00034  0 00003 0 00000         PZE     TABLE,,NBITS                                                     .035
      00035  0 00004 0 00000         PZE     TABLE,,NBITS                                                     .036
      00036  0 00004 0 00000         PZE     TABLE,,NBITS                                                     .037
      00037  0 00005 0 00000         PZE     TABLE,,NBITS                                                     .038
      00040  0 00001 0 00000         PZE     TABLE,,NBITS                                                     .040
      00041  0 00002 0 00000         PZE     TABLE,,NBITS                                                     .041
      00042  0 00002 0 00000         PZE     TABLE,,NBITS                                                     .042
      00043  0 00003 0 00000         PZE     TABLE,,NBITS                                                     .043
      00044  0 00002 0 00000         PZE     TABLE,,NBITS                                                     .044
      00045  0 00003 0 00000         PZE     TABLE,,NBITS                                                     .045
      00046  0 00003 0 00000         PZE     TABLE,,NBITS                                                     .046
      00047  0 00004 0 00000         PZE     TABLE,,NBITS                                                     .047
      00050  0 00002 0 00000         PZE     TABLE,,NBITS                                                     .048
      00051  0 00003 0 00000         PZE     TABLE,,NBITS                                                     .049
      00052  0 00003 0 00000         PZE     TABLE,,NBITS                                                     .050
      00053  0 00004 0 00000         PZE     TABLE,,NBITS                                                     .051
      00054  0 00003 0 00000         PZE     TABLE,,NBITS                                                     .052
      00055  0 00004 0 00000         PZE     TABLE,,NBITS                                                     .053
      00056  0 00004 0 00000         PZE     TABLE,,NBITS                                                     .054
      00057  0 00005 0 00000         PZE     TABLE,,NBITS                                                     .055
      00060  0 00002 0 00000         PZE     TABLE,,NBITS                                                     .056
      00061  0 00003 0 00000         PZE     TABLE,,NBITS                                                     .057
      00062  0 00003 0 00000         PZE     TABLE,,NBITS                                                     .058
      00063  0 00004 0 00000         PZE     TABLE,,NBITS                                                     .059
      00064  0 00003 0 00000         PZE     TABLE,,NBITS                                                     .060
      00065  0 00004 0 00000         PZE     TABLE,,NBITS                                                     .061
      00066  0 00004 0 00000         PZE     TABLE,,NBITS                                                     .062
      00067  0 00005 0 00000         PZE     TABLE,,NBITS                                                     .063
      00070  0 00003 0 00000         PZE     TABLE,,NBITS                                                     .064
      00071  0 00004 0 00000         PZE     TABLE,,NBITS                                                     .065
      00072  0 00004 0 00000         PZE     TABLE,,NBITS                                                     .066
      00073  0 00005 0 00000         PZE     TABLE,,NBITS                                                     .067
      00074  0 00004 0 00000         PZE     TABLE,,NBITS                                                     .068
      00075  0 00005 0 00000         PZE     TABLE,,NBITS                                                     .069
      00076  0 00005 0 00000         PZE     TABLE,,NBITS                                                     .070
      00077  0 00006 0 00000         PZE     TABLE,,NBITS                                                     .071

      00100 -0114 06 0 00000  BITBL  CAQ     TABLE,,6

                                     END
1            CAQ TABLE FOR FINDING NUMBER OF BITS IN A NUMBER.                                   PAGE 1
                        POST PROCESSOR ASSEMBLY DATA

        101 IS THE FIRST LOCATION NOT USED BY THIS PROGRAM

0REFERENCES TO DEFINED SYMBOLS
        100    ABC     0,    1,    2,    3,    4,    5,    6,    7,   10,   11,   12,   13,   14,   15,   16,   17,   20
                      21,   22,   23,   24,   25,   26,   27,   30,   31,   32,   33,   34,   35,   36,   37,   40,   41
                      42,   43,   44,   45,   46,   47,   50,   51,   52,   53,   54,   55,   56,   57,   60,   61,   62
                      63,   64,   65,   66,   67,   70,   71,   72,   73,   74,   75,   76,   77,  100
          0   HALF     0,    1,    2,    3,    4,    5,    6,    7,   10,   11,   12,   13,   14,   15,   16,   17,   20
                      21,   22,   23,   24,   25,   26,   27,   30,   31,   32,   33,   34,   35,   36,   37,   40,   41
                      42,   43,   44,   45,   46,   47,   50,   51,   52,   53,   54,   55,   56,   57,   60,   61,   62
                      63,   64,   65,   66,   67,   70,   71,   72,   73,   74,   75,   76,   77
        100  BITBL     0
          6  NBITS     0,    1,    2,    3,    4,    5,    6,    7,   10,   11,   12,   13,   14,   15,   16,   17,   20
                      21,   22,   23,   24,   25,   26,   27,   30,   31,   32,   33,   34,   35,   36,   37,   40,   41
                      42,   43,   44,   45,   46,   47,   50,   51,   52,   53,   54,   55,   56,   57,   60,   61,   62
                      63,   64,   65,   66,   67,   70,   71,   72,   73,   74,   75,   76,   77
          0  TABLE     0,    1,    2,    3,    4,    5,    6,    7,   10,   11,   12,   13,   14,   15,   16,   17,   20
                      21,   22,   23,   24,   25,   26,   27,   30,   31,   32,   33,   34,   35,   36,   37,   40,   41
                      42,   43,   44,   45,   46,   47,   50,   51,   52,   53,   54,   55,   56,   57,   60,   61,   62
                      63,   64,   65,   66,   67,   70,   71,   72,   73,   74,   75,   76,   77,  100

0 NO ERROR IN ABOVE ASSEMBLY.
1            BCRFUL., BCLFUL., FULBCD.- 6 TO 12 BIT CONVERSION.                                  PAGE 1
                           PETER R. BOS --- AUGUST 1967

                                     PCC     ON
                                     NOLNK
                       00000         ENTRY   BCRFUL        CONVERT RIGHT HALF BCD TO 12 BIT.
                       00002         ENTRY   BCLFUL        CONVERT LEFT HALF BCD TO 12 BIT.
                       00015         ENTRY   FULBCD        CONVERT 12 BIT TO BCD.
                                     LBL     BCRFUL
                                     PCC     OFF


                                             $BDRFUL

      00000 -0625 00 0 00026  BCRFUL STL     RQL           SET FLAG FOR RIGHT HALF.
      00001  0020 00 0 00003         TRA     *+2           SKIP.


                                             $BCLFUL

      00002  0600 00 0 00026  BCLFUL STZ     RQL           SET FLAG FOR LEFT HALF.

      00003  0560 60 4 00001         LDQ*    1,4           PICK UP BCD WORD.
      00004  0520 00 0 00026         ZET     RQL           IF RIGHT HALF,
      00005 -0773 00 0 00022         RQL     18            SHIFT TOWARD AC.
      00006 -0754 00 0 00000         ZAC                   CLEAR AC.
      00007 -0763 00 0 00006         LGL     6             CONVERT.
      00010  0767 00 0 00006         ALS     6             ..
      00011 -0763 00 0 00006         LGL     6             ..
      00012  0767 00 0 00006         ALS     6             ..
      00013 -0763 00 0 00006         LGL     6             ..

      00014  0020 00 4 00002         TRA     2,4           RETURN RESULT IN AC.


                                             $FULBCD

      00015  0560 60 4 00001  FULBCD LDQ*    1,4           PICK UP 12 BIT WORD.
      00016 -0754 00 0 00000         ZAC                   CLEAR AC.
      00017 -0773 00 0 00006         RQL     6             CONVERT.
      00020 -0763 00 0 00006         LGL     6             ..
      00021 -0773 00 0 00006         RQL     6             ..
      00022 -0763 00 0 00006         LGL     6             ..
      00023 -0773 00 0 00006         RQL     6             ..
      00024 -0763 00 0 00006         LGL     6             ..

      00025  0020 00 4 00002         TRA     2,4           RETURN RESULT IN AC.


      00026  0 00000 0 00000  RQL    PZE


                                     END
1            BCRFUL., BCLFUL., FULBCD.- 6 TO 12 BIT CONVERSION.                                  PAGE 1
                        POST PROCESSOR ASSEMBLY DATA

         27 IS THE FIRST LOCATION NOT USED BY THIS PROGRAM

0REFERENCES TO DEFINED SYMBOLS
         26    RQL     0,    2,    4
          2 BCLFUL     0
          0 BCRFUL     0
         15 FULBCD     0

0 NO ERROR IN ABOVE ASSEMBLY.


UFDCHK   BCD 09/20/68 0223.7    3156         00000
1       THIS ROUTINE PRINTS THE FIRST TWO WORDS (NAME1 NAME2)                                    PAGE 1

                              * OF A USERS UFD, INCLUDING ZERO ENTRIES. IT IS USEFUL FOR
                              * CLEANING UP A UFD.  USAGE---
                              *                    R UFDCHK -PROB PROG-
                              * WHERE PROB PROG ARE OPTIONAL ARGUMENTS GIVING THE
                              * FILE DIRECTORY TO BE CHECKED, IF OTHER THAN THE CURRENT
                              * DIRECTORY.  -PROB PROG- MAY NOT BE USED UNLESS THE USER
                              * HAS ATTACH PRIVELEGES.


                                     EXTERN  PRNTER,FSTATE,OPEN,RDFILE,CLOSE,UPDATE
                                     EXTERN  FCHECK,BZEL,DEFBC,ATTNAM,GETCOM
                                     EXTERN  GETMEM,SETMEM,ATTACH,WRFLX,CHNCOM


                              CNVRT  MACRO   X
                                     TSX     DEFBC,4
                                     PTH     X
                                     STO     X
                                     TSX     BZEL,4
                                     PTH     X
                                     STO     X
                              CNVRT  END


        TRANSFER VECTOR
      00000  475145632551     PRNTER
      00001  266263216325     FSTATE
      00002  464725456060     OPEN
      00003  512426314325     RDFILE
      00004  234346622560     CLOSE
      00005  644724216325     UPDATE
      00006  262330252342     FCHECK
      00007  227125436060     BZEL
      00010  242526222360     DEFBC
      00011  216363452144     ATTNAM
      00012  272563234644     GETCOM
      00013  272563442544     GETMEM
      00014  622563442544     SETMEM
      00015  216363212330     ATTACH
      00016  665126436760     WRFLX
      00017  233045234644     CHNCOM

      00020  0074 00 4 00011         TSX     ATTNAM,4      GET THE NAME OF THE CURRENT DIRECTORY
      00021  3 00002 0 00264         PTH     HOME,,2
      00022  0074 00 4 00012         TSX     GETCOM,4      GET THE FIRST ARGUMENT
      00023  0 00000 0 00001         PZE     1
      00024 -0340 00 0 00360         LAS     =H SHORT
      00025  0020 00 0 00032         TRA     SHOVER
      00026  0020 00 0 00030         TRA     *+2
      00027  0020 00 0 00032         TRA     SHOVER
      00030 -0625 00 0 00270         STL     INDICX
      00031  0020 00 0 00036         TRA     SHHOME
      00032 -0340 00 0 00266  SHOVER LAS     FENCE         IS IT THERE
1       THIS ROUTINE PRINTS THE FIRST TWO WORDS (NAME1 NAME2)                                    PAGE 2

      00033  0020 00 0 00044         TRA     HAVARG        YES
      00034  0020 00 0 00036         TRA     *+2           NO--JUMP TWO FORWARD
      00035  0020 00 0 00044         TRA     HAVARG        YES.


      00036  0500 00 0 00264  SHHOME CLA     HOME          PUT CURRENT DIRECTORY
      00037  0560 00 0 00265         LDQ     HOME+1        IN PROBN PROGN
      00040 -0603 00 0 00326         DST     PROBN
      00041  0500 00 0 00351         CLA     =1            SET FLAG FOR NO ATTACHING
      00042  0601 00 0 00267         STO     ATTFLG
      00043  0020 00 0 00062         TRA     SETUP         AND GO SETUP


      00044  0602 00 0 00326  HAVARG SLW     PROBN         ARG1 WAS THE PROBLEM NUMBER
      00045  0074 00 4 00012         TSX     GETCOM,4      GET THE SECOND ARGUMENT
      00046  0 00000 0 00002         PZE     2
      00047  0602 00 0 00327         SLW     PROGN         WHICH IS THE PROGRAMMER NO.
      00050  0074 00 4 00015         TSX     ATTACH,4      ATTACH TO PROBN PROGN
      00051  3 00000 0 00326         PTH     PROBN
      00052  3 00000 0 00327         PTH     PROGN
      00053  3 00000 0 00261         PTH     ERROR         ERROR RETURN
      00054  0600 00 0 00267         STZ     ATTFLG        AND SET FLAG TO COME HOME LATER
                              *
      00055  0074 00 4 00012         TSX     GETCOM,4      CHECK FOR SHORT MODE
      00056  0 00000 0 00003         PZE     3
      00057 -0340 00 0 00360         LAS     =H SHORT
      00060  0020 00 0 00062         TRA     SETUP
      00061 -0625 00 0 00270         STL     INDICX


      00062  0074 00 4 00005  SETUP  TSX     UPDATE,4      MAKE SURE UFD IS UP-TO-DATE
      00063  0074 00 4 00001         TSX     FSTATE,4      GET THE LENGTH OF THE UFD
      00064  3 00000 0 00344         PTH     UFD
      00065  3 00000 0 00345         PTH     FILE
      00066  3 00010 0 00334         PTH     A,,8
      00067  3 00000 0 00261         PTH     ERROR
      00070  0500 00 0 00334         CLA     A             GET NUMBER OF WORDS
      00071  0767 00 0 00022         ALS     18
      00072  0622 00 0 00115         STD     LOC           COUNT FOR 'RDFILE'
      00073  0074 00 4 00013         TSX     GETMEM,4      MAKE ROOM TO LOAD THE U.F.D.
      00074  0621 00 0 00115         STA     LOC           BEGINNING FOR 'RDFILE'
      00075  0621 00 0 00146         STA     NAME1         AND BASE OF THE SEARCH
      00076  0400 00 0 00351         ADD     =1            UP ONE FOR SECOND NAME SEARCH
      00077  0621 00 0 00144         STA     LOOP
      00100  0400 00 0 00334         ADD     A             ADD IN UFD SIZE
      00101  0074 00 4 00014         TSX     SETMEM,4      AND TACK DOWN MEMORY HERE
      00102  0074 00 4 00002         TSX     OPEN,4        OPEN THE UFD TO READ
      00103  3 00000 0 00346         PTH     R
      00104  3 00000 0 00344         PTH     UFD
      00105  3 00000 0 00345         PTH     FILE
      00106  3 00000 0 00350         PTH     =0
      00107  3 00000 0 00350         PTH     =0
      00110  3 00000 0 00261         PTH     ERROR
      00111  0074 00 4 00003         TSX     RDFILE,4      READ THE ENTIRE FILE
      00112  3 00000 0 00344         PTH     UFD
      00113  3 00000 0 00345         PTH     FILE
1       THIS ROUTINE PRINTS THE FIRST TWO WORDS (NAME1 NAME2)                                    PAGE 3

      00114  3 00000 0 00352         PTH     =4            STARTING AT WORD 4
      00115  3 00000 0 00000  LOC    PTH     **,,**        FILLED IN ABOVE
      00116  3 00000 0 00121         PTH     *+3           FOR END OF FILE
      00117  3 00000 0 00347         PTH     CNT           NUMBER OF WORDS READ
      00120  3 00000 0 00261         PTH     ERROR
      00121  0074 00 4 00006         TSX     FCHECK,4      FINISH UP THE INPUT
      00122  3 00000 0 00344         PTH     UFD
      00123  3 00000 0 00345         PTH     FILE
      00124  3 00000 0 00125         PTH     *+1
      00125  0074 00 4 00004         TSX     CLOSE,4       AND CLOSE THE FILE
      00126  3 00000 0 00344         PTH     UFD
      00127  3 00000 0 00345         PTH     FILE
      00130  0534 00 1 00347         LXA     CNT,1         LOAD THE TOTAL COUNT
      00131 -0636 00 1 00163         SCD     CKLOOP,1      TO STOP THE LOOP
      00132  0560 00 0 00334         LDQ     A             GET THE NUMBER OF WORDS
      00133 -0754 00 0 00000         ZAC
      00134  0221 00 0 00353         DVP     =7            DIVIDED BY WORDS PER ENTRY
      00135 -0600 00 0 00301         STQ     SLOTS         AND STORE NUMBER OF SLOTS
      00136  0520 00 0 00270         ZET     INDICX        CHECK FOR SHORT MODE
      00137  0020 00 0 00142         TRA     *+3           YES, BYPASS PRINTING THE HEADER
      00140  0074 00 4 00016         TSX     WRFLX,4       PRINT THE HEADING
      00141  0 00012 0 00322         PZE     HEAD,,10
      00142  0774 00 1 00000         AXT     0,1           ENPTY SLOT COUNTER
      00143  0774 00 2 00000         AXT     0,2           WORD POINTER


      00144 -0500 00 2 00000  LOOP   CAL     **,2          GET NAME2
      00145  0602 00 0 00273         SLW     OUT+2         INTO THE OUTPUT MESSAGE
      00146 -0500 00 2 00000  NAME1  CAL     **,2          GET NAME1
      00147  0602 00 0 00271         SLW     OUT           INTO THE MESSAGE
      00150 -0100 00 0 00152         TNZ     *+2           JUMP IF NOT ZERO
      00151  1 00001 1 00152         TXI     *+1,1,1       IF ZERO, INCREMENT THE EMPLTY SLOT CTR.

      00152  0520 00 0 00270         ZET     INDICX        ARE WE IN SHORT MODE
      00153  0020 00 0 00162         TRA     CKLUP         YES, JUMP AHEAD
      00154 -0100 00 0 00160         TNZ     NOTZRO        NOPE, PRINT FILE NAME IF NON-ZERO

      00155  0074 00 4 00016         TSX     WRFLX,4       WRITE A '0' FOR NO FILE HERE
      00156  0 00001 0 00356         PZE     =H0     ,,1   ..
      00157  0020 00 0 00162         TRA     CKLUP


      00160  0074 00 4 00016  NOTZRO TSX     WRFLX,4       PRINT THE ENTRY
      00161  0 00003 0 00271         PZE     OUT,,3
      00162  1 77771 2 00163  CKLUP  TXI     *+1,2,-7      MOVE DOWN THE UFD
      00163  3 00000 2 00144  CKLOOP TXH     LOOP,2,**     DO THE ENTIRE TABLE


      00164  0754 00 1 00000         PXA     ,1            EMPTY COUNT
      00165  0601 00 0 00274         STO     EMPTY
      00166  0131 00 0 00000         XCA
      00167  0200 00 0 00353         MPY     =7
      00170 -0600 00 0 00304         STQ     EMPTWD        WASTED WORDS
      00171  0560 00 0 00334         LDQ     A
      00172 -0754 00 0 00000         ZAC                   NUMBER OF WORDS IN UFD
1       THIS ROUTINE PRINTS THE FIRST TWO WORDS (NAME1 NAME2)                                    PAGE 4

      00173  0221 00 0 00355         DVP     =432          DIVIDED BY RECORD SIZE
      00174  0601 00 0 00315         STO     ODD           REMAINDER=WORDS IN ODD REC.
      00175  0100 00 0 00201         TZE     *+4           GET NUMBER OF RECORDS USED
      00176  0131 00 0 00000         XCA
      00177  0400 00 0 00351         ADD     =1
      00200  0131 00 0 00000         XCA
      00201 -0600 00 0 00310         STQ     RECS
      00202                          CNVRT   ODD           CONVERT THESE FOR PRINTING
      00210                          CNVRT   EMPTY
      00216                          CNVRT   EMPTWD
      00224                          CNVRT   SLOTS
      00232                          CNVRT   RECS
      00240  0074 00 4 00016         TSX     WRFLX,4       AND PRINT THE SUMMARY INFO
      00241  0 00000 0 00000         PZE     0             THAT WAS A CARRIAGE RETURN
      00242  0074 00 4 00016         TSX     WRFLX,4
      00243  0 00010 0 00274         PZE     EMPTY,,8
      00244  0074 00 4 00016         TSX     WRFLX,4
      00245  0 00004 0 00304         PZE     EMPTWD,,4
      00246  0074 00 4 00016         TSX     WRFLX,4
      00247  0 00012 0 00310         PZE     RECS,,10
      00250  0074 00 4 00016         TSX     WRFLX,4
      00251  0 00001 0 00357         PZE     =H*     ,,1   AND A '*' FOR GOOD LUCK
      00252  0500 00 0 00267  LEAVE  CLA     ATTFLG        CHECK THE ATTACH FLAG
      00253 -0100 00 0 00257         TNZ     ATHOME        NO ATTACH HEEDED
      00254  0074 00 4 00015         TSX     ATTACH,4      GO HOME
      00255  3 00000 0 00264         PTH     HOME
      00256  3 00000 0 00265         PTH     HOME+1
      00257  0074 00 4 00017  ATHOME TSX     CHNCOM,4      EXIT
      00260  3 00000 0 00350         PTH     =0
      00261  0074 00 4 00000  ERROR  TSX     PRNTER,4      PRINT ANY ERRORS
      00262  3 00000 0 00354         PTH     =0375
      00263  0020 00 0 00252         TRA     LEAVE         AND EXIT


                                             * * * * * * * * * * * * *
                                             * STORAGE AND CONSTANTS *
                                             * * * * * * * * * * * * *


      00264                   HOME   BSS     2
      00266 -377777777777     FENCE  OCT     777777777777
      00267                   ATTFLG BSS     1
      00270  0 00000 0 00000  INDICX PZE     0             SHORT MODE INDICATOR (ORIG. ZERO)
      00271                   OUT    BSS     1
      00272 -205757575757            OCT     605757575757
      00273                          BSS     1
      00274  000000000000     EMPTY  BCI     4,000000 EMPTY SLOTS OUT O
      00275  602544476370
      00276  606243466362
      00277  604664636046
      00300 +265757575757            OCT     265757575757
      00301  000000000000     SLOTS  BCI     3,000000 SLOTS TOTAL
      00302  606243466362
      00303  606346632143
      00304  000000000000     EMPTWD BCI     4,000000 TOTAL EMPTY WORDS
      00305  606346632143
1       THIS ROUTINE PRINTS THE FIRST TWO WORDS (NAME1 NAME2)                                    PAGE 5

      00306  602544476370
      00307  606646512462
      00310  000000000000     RECS   BCI     4,000000 RECORDS IN U.F.D.
      00311  605125234651
      00312  246260314560
      00313  643326332433
      00314 -335757575757            OCT     735757575757
      00315  000000000000     ODD    BCI     5,000000 WORDS IN LAST RECORD
      00316  606646512462
      00317  603145604321
      00320  626360512523
      00321  465124606060
      00322 -155757575757     HEAD   OCT     555757575757
      00323  643326332433            BCI     2,U.F.D. CHECK
      00324  602330252342
      00325 -204645575757            OCT     604645575757
      00326                   PROBN  BSS     1
      00327                   PROGN  BSS     1
      00330 -155557575757            OCT     555557575757
      00331  604521442501            BCI     2, NAME1  NAME
      00332  606045214425
      00333 +025557575757            OCT     025557575757
      00334                   A      BSS     8
      00344  643326332433     UFD    BCI     1,U.F.D.
      00345  742631432534     FILE   BCI     1,(FILE)
      00346  516060606060     R      BCI     1,R
      00347                   CNT    BSS     1
                                     END

        LITERALS
      00350  000000000000
      00351  000000000001
      00352  000000000004
      00353  000000000007
      00354  000000000567
      00355  000000000660
      00356  006060606060
      00357  546060606060
      00360  606230465163
1       THIS ROUTINE PRINTS THE FIRST TWO WORDS (NAME1 NAME2)                                    PAGE 1
                        POST PROCESSOR ASSEMBLY DATA

        361 IS THE FIRST LOCATION NOT USED BY THIS PROGRAM

0REFERENCES TO DEFINED SYMBOLS
        334      A    66,   70,  100,  132,  171
        346      R   103
        347    CNT   117,  130
        115    LOC    72,   74
        315    ODD   174,  203,  204,  206,  207
        271    OUT   145,  147,  161
        344    UFD    64,  104,  112,  122,  126
          7   BZEL   205,  213,  221,  227,  235
        345   FILE    65,  105,  113,  123,  127
        322   HEAD   141
        264   HOME    21,   36,   37,  255,  256
        144   LOOP    77,  163
          2   OPEN   102
        310   RECS   201,  233,  234,  236,  237,  247
        162  CKLUP   153,  157
          4  CLOSE   125
         10  DEFBC   202,  210,  216,  224,  232
        274  EMPTY   165,  211,  212,  214,  215,  243
        261  ERROR    53,   67,  110,  120
        266  FENCE    32
        252  LEAVE   263
        146  NAME1    75
        326  PROBN    40,   44,   51
        327  PROGN    47,   52
         62  SETUP    43,   60
        301  SLOTS   135,  225,  226,  230,  231
         16  WRFLX   140,  155,  160,  240,  242,  244,  246,  250
        257 ATHOME   253
         15 ATTACH    50,  254
        267 ATTFLG    42,   54,  252
         11 ATTNAM    20
         17 CHNCOM   257
        163 CKLOOP   131
        304 EMPTWD   170,  217,  220,  222,  223,  245
          6 FCHECK   121
          1 FSTATE    63
         12 GETCOM    22,   45,   55
         13 GETMEM    73
         44 HAVARG    33,   35
        270 INDICX    30,   61,  136,  152
        160 NOTZRO   154
          0 PRNTER   261
          3 RDFILE   111
         14 SETMEM   101
         36 SHHOME    31
         32 SHOVER    25,   27
          5 UPDATE    62

0 NO ERROR IN ABOVE ASSEMBLY.


UASCAN   BCD 10/12/70 1517.9   16094         00000
1       UASCAN - TO SELECT AND PRINT INFORMATION FROM UACCNT TIMACC              04/28/69 1231.2 PAGE 1


                                             WRITTEN BY JIM BIXBY  4-26-68

                                             CMPAR MACRO

                              CMPAR  MACRO   TSTWRD,FILWRD,FLAG,YES,NO
                                     TSX     CMPARE,4
                                     PTH     TSTWRD
                                     PTH     FILWRD
                                     PTH     FLAG
                                     PTH     YES
                                     PTH     NO
                              CMPAR  END


1       UASCAN - TO SELECT AND PRINT INFORMATION FROM UACCNT TIMACC              04/28/69 1231.2 PAGE 2
                           PROCESS THE ARGUMENT STRING


        TRANSFER VECTOR
      00000  622563225142     SETBRK
      00001  272563234362     GETCLS
      00002  665126436760     WRFLX
      00003  233045234644     CHNCOM
      00004  272563634460     GETTM
      00005  434164626360     LJUST
      00006  512547514622     REPROB
      00007  227125436060     BZEL
      00010  222324252360     BCDEC
      00011  222346236360     BCOCT
      00012  712543606060     ZEL
      00013  462626606060     OFF
      00014  626247514563     SSPRNT
      00015  462626464560     OFFON
      00016  216363452144     ATTNAM
      00017  216363212330     ATTACH
      00020  272563442544     GETMEM
      00021  622563442544     SETMEM
      00022  222646472545     BFOPEN
      00023  222651252124     BFREAD
      00024  242526222360     DEFBC
      00025  227105076060     BZ57
      00026  452144216242     NAMASK
      00027  665126436721     WRFLXA
      00030  222623434662     BFCLOS
      00031  222623462425     BFCODE
      00032  234346622560     CLOSE
      00033  452567234644     NEXCOM

      00034  0074 00 4 00000         TSX     $SETBRK,4     ARGUMENT PROCESSING EXIT
      00035  0 00000 0 01273         PZE     LEAVE

      00036  0760 00 0 00016         LMTM                  WE NEED NORE
      00037 -0774 00 3 00001         AXC     1,3           ARGUMENT COUNTER

      00040  0074 00 4 00001         TSX     $GETCLS,4     LOAD THE BUFFER FOR PRINTING
      00041  0 00000 0 01651         PZE     ARGBUF,,0

      00042 -0500 00 0 01652         CAL     ARGBUF+1      TEST FIRST ARG. FOR A FENCE
      00043  0322 00 0 01411         ERA     FENCE         ..
      00044 -0100 00 0 00063         TNZ     NOFENC        SKIP IF NO FENCE
      00045  0074 00 4 00002         TSX     $WRFLX,4      PRINT OUT OPTIONS
      00046  0 00012 0 01541         PZE     FMESS1,,10
      00047  0074 00 4 00002         TSX     WRFLX,4
      00050  0 00012 0 01553         PZE     FMESS2,,10
      00051  0074 00 4 00002         TSX     WRFLX,4
      00052  0 00012 0 01565         PZE     FMESS3,,10
      00053  0074 00 4 00002         TSX     WRFLX,4
      00054  0 00012 0 01577         PZE     FMESS4,,10
      00055  0074 00 4 00002         TSX     WRFLX,4
      00056  0 00012 0 01611         PZE     FMESS5,,10
1       UASCAN - TO SELECT AND PRINT INFORMATION FROM UACCNT TIMACC              04/28/69 1231.2 PAGE 3
                           PROCESS THE ARGUMENT STRING

      00057  0074 00 4 00002         TSX     WRFLX,4
      00060  0 00012 0 01623         PZE     FMESS6,,10
      00061  0074 00 4 00003         TSX     $CHNCOM,4
      00062  0 00000 0 00000         PZE     0

                       00063  NOFENC SYN     *

      00063  0074 00 4 00004         TSX     $GETTM,4      FOR A LATER MESSAGE
      00064  3 00000 0 01643         PTH     DATE
      00065  3 00000 0 01644         PTH     TIME
      00066  0074 00 4 00002         TSX     $WRFLX,4      GIVE A CARRIAGE RETURN
      00067  3 00000 0 00000         PTH     ,,0


                                             PROCESS THE ARGUMENTS --


      00070  0600 00 0 01374         STZ     SPECFL        FLAG FOR (----) ARGUMENTS
      00071  0600 00 0 01372         STZ     NOTFLG        NON-ZERO WHEN A (NOT) HAS BEEN USED
      00072 -0500 00 3 01651  NXTARG CAL     ARGBUF,3      GET NEXT ARGUMENT
      00073  0602 00 0 01407         SLW     ARG           ..
      00074  0322 00 0 01411         ERA     FENCE         IS IT THERE--
      00075  0100 00 0 00404         TZE     ARGFIN        NO--FINISH ARG PROCESSING
      00076  0520 00 0 01374         ZET     SPECFL        ARE WE WORKING ON A () ARG--
      00077  0020 00 2 00001         TRA     1,2           YES--GO TO THE PROPER ROUTINE
      00100 -0500 00 0 01407         CAL     ARG           NO-- IT IS PROB, PROG, NAME, OR ()
      00101 -0320 00 0 02055         ANA     =O77          SAVE LAST CHARACTER
      00102  0322 00 0 01410         ERA     RPAREN        IS IT XXXXXX)--
      00103  0100 00 0 00141         TZE     SPECL         YES -- TREAT IT AS (XXXX)

                                             NOW WE ASSUME THE ARG IS
                                             PROB, PROG, OR NAME

      00104                   PRPGNM CMPAR   =HCMFL**,ARG,=1,PRGARG,*+1
      00112 -0500 00 0 01407         CAL     ARG           GET
      00113 -0320 00 0 02055         ANA     =O77          LAST CHARACTER OF ARG
      00114 -0340 00 0 02054         LAS     =9            IS IT A NUMBER
      00115  0020 00 0 00120         TRA     *+3           NO-THIS MUST BE A NAME
      00116  0020 00 0 00130         TRA     PRBPRG        YES, PROBLEM NUMBER
      00117  0020 00 0 00130         TRA     PRBPRG          OR PROGRAMMER NUMBER

                                             HERE IF THE ARG IS A NAME

      00120  0074 00 4 00005  NAMARG TSX     $LJUST,4      MOVE IT OVER
      00121  3 00000 0 01407         PTH     ARG           ..
      00122  0601 00 0 01423         STO     NAME          AND SAVE IT
      00123  0500 00 0 02051         CLA     =1
      00124  0520 00 0 01372         ZET     NOTFLG        ..
      00125 -0760 00 0 00003         SSM
      00126  0601 00 0 01350         STO     FNAME
      00127  0020 00 0 00163         TRA     CLRBAK

                                             HERE IF THE ARG IS A PROG OR PROB
1       UASCAN - TO SELECT AND PRINT INFORMATION FROM UACCNT TIMACC              04/28/69 1231.2 PAGE 4
                           PROCESS THE ARGUMENT STRING

      00130  0074 00 4 00005  PRBPRG TSX     $LJUST,4      LEFT JUSTIFY
      00131  3 00000 0 01407         PTH     ARG
      00132  0131 00 0 00000         XCA                   MOVE TO MQ
      00133 -0754 00 0 00000         ZAC
      00134 -0763 00 0 00006         LGL     6             GET LEFT CHAR
      00135 -0340 00 0 02054         LAS     =9            IS IT A NUMBER
      00136  0020 00 0 00205         TRA     PRBARG        NO--MUST BE A PROBLEM NUMBER
      00137  0020 00 0 00215         TRA     PRGARG        YES--IT IS A PROGRAMMER NUMBER
      00140  0020 00 0 00215         TRA     PRGARG

                                             SPECIAL ARGUMENT PROCESSORS


                                             HERE TO PROCESS FIRST OCCURRENCE OF (XXX)

      00141 -0625 00 0 01374  SPECL  STL     SPECFL        SET THE FLAG
      00142  0774 00 1 00077         AXT     ARGSIZ,1      SET UP TO SEARCH THE TABLE
      00143 -0500 00 0 01407         CAL     ARG           PICK UP THE ARG
      00144 -0340 00 1 02050         LAS     ARGTBL+ARGSIZ,1 COMPARE WITH NEXT ENTRY
      00145  0020 00 0 00147         TRA     *+2           NO
      00146  0020 00 1 02051         TRA     ARGTBL+ARGSIZ+1,1 YES--WE FOUND IT
      00147  2 00003 1 00144         TIX     *-3,1,3       SEARCH ENTIRE TABLE
      00150  0020 00 0 01270         TRA     BADARG        NOT FOUND--ERROR


                                             BELOW ARE THE SMALL ROUTINE FOR EACH
                                             SPECIAL ARGUMENT


                                             (GAF) --

      00151  0520 00 0 01372  GAFARG ZET     NOTFLG        WAS A 'NOT' GIVEN
      00152  0020 00 0 01245         TRA     BADNOT        YES--NOT ALLOWED
      00153 -0500 00 0 01415         CAL     GAFNM2        NEW INPUT FILE NAME2 = 'GAF'
      00154 -0625 00 0 01400         STL     GAFFLG        SET GAF FLAG
      00155  0602 00 0 01406         SLW     INFIL2        RECORD IT THUSLY
      00156 -0500 00 0 01407         CAL     ARG           NAME1 GIVEN BY THE USER
      00157  0602 00 0 01405         SLW     INFIL1        ..
      00160 -0320 00 0 02057         ANA     =O7777
      00161 -0501 00 0 02072         ORA     =H    00      PUT IN LEADING BLANKS
      00162  0602 00 0 01451         SLW     SAGRP         SAVE ACCOUNTING GROUP
      00163  0600 00 0 01372  CLRBAK STZ     NOTFLG        CLEAR THE FLAGS
      00164  0600 00 0 01374         STZ     SPECFL
      00165  1 77777 3 00072  INCARG TXI     NXTARG,3,-1   AND GET THE NEXT ARGUMENT


                                             (INPT) --
      00166  0 00000 0 00000  REM
      00167  0520 00 0 01372  INPARG ZET     NOTFLG        WAS A NOT GIVEN
      00170  0020 00 0 01245         TRA     BADNOT        YES--NO GOOD
      00171 -0500 00 0 01407         CAL     ARG           GET THE FILE NAME1
      00172  0602 00 0 01405         SLW     INFIL1        AND MAKE IT DO SOME GOOD
      00173  0074 00 2 00165         TSX     INCARG,2      GET THE FILE NAME2
      00174 -0500 00 0 01407         CAL     ARG           SAVE THAT TOO
      00175  0602 00 0 01406         SLW     INFIL2        ..
1       UASCAN - TO SELECT AND PRINT INFORMATION FROM UACCNT TIMACC              04/28/69 1231.2 PAGE 5
                           PROCESS THE ARGUMENT STRING

      00176  0020 00 0 00163         TRA     CLRBAK        AND GO ROUND AGAIN


                                             (NOT) --

      00177 -0625 00 0 01372  NOTARG STL     NOTFLG        SET THE'NOT' FLAG
      00200 -0500 00 0 01407         CAL     ARG           GET NEXT ARG
      00201 -0320 00 0 02055         ANA     =O77          SAVE LAST CHAR
      00202  0322 00 0 01410         ERA     RPAREN        IS IT A RIGHT PARENTHESIS--
      00203 -0100 00 0 00104         TNZ     PRPGNM        NO--MUST BE PROB,PROG OR NAME
      00204  0020 00 0 00141         TRA     SPECL         YES--LOOK UP IN ARG TABLE


                                             (PROB) --

      00205  0074 00 4 00006  PRBARG TSX     $REPROB,4     PUT ARG IN PROBLEM NUMBER FORMAT
      00206  3 00000 0 01407         PTH     ARG           ..
      00207  0601 00 0 01424         STO     PROB
      00210  0500 00 0 02051         CLA     =1            SET THE SEARCH FLAG
      00211  0520 00 0 01372         ZET     NOTFLG        FLAG = NEG IF (NOT) USED
      00212 -0760 00 0 00003         SSM
      00213  0601 00 0 01351         STO     FPROB         SEARCH FLAG
      00214  0020 00 0 00163         TRA     CLRBAK        BACK FOR MORE


                                             (PROG) --

      00215 -0500 00 0 01407  PRGARG CAL     ARG           SAVE THE ARG
      00216  0602 00 0 01425         SLW     PROG
      00217  0500 00 0 02051         CLA     =1            AND SET THE SEARCH FLG
      00220  0520 00 0 01372         ZET     NOTFLG
      00221 -0760 00 0 00003         SSM
      00222  0601 00 0 01352         STO     FPROG
      00223  0020 00 0 00163         TRA     CLRBAK


                                             (FULL) --

      00224  0520 00 0 01372  FULARG ZET     NOTFLG        IS (NOT) BEFORE THIS
      00225  0020 00 0 01245         TRA     BADNOT        YES--ERROR
      00226 -0625 00 0 01375         STL     FULFLG        SET FULL PRINT FLAG
      00227  0020 00 0 00163         TRA     CLRBAK


                                             (CUT) --

      00230  0074 00 4 00007  CUTARG TSX     $BZEL,4       GET ARG (MMDDYY)
      00231  3 00000 0 01407         PTH     ARG           ..
      00232  0131 00 0 00000         XCA                   NOW IN MQ
      00233 -0773 00 0 00030         RQL     24            NOW ITS YYMMDD
      00234 -0600 00 0 01433         STQ     DATEF         SAVE FOR SEARCH
      00235  0500 00 0 02051         CLA     =1            SET THE FLAG
      00236  0520 00 0 01372         ZET     NOTFLG        NEG IF (NOT) SPECIFIED
      00237 -0760 00 0 00003         SSM
      00240  0601 00 0 01370         STO     FDATEF
1       UASCAN - TO SELECT AND PRINT INFORMATION FROM UACCNT TIMACC              04/28/69 1231.2 PAGE 6
                           PROCESS THE ARGUMENT STRING

      00241  0020 00 0 00163         TRA     CLRBAK


                                             (DEV) --

      00242  0074 00 4 00010  DEVARG TSX     $BCDEC,4      CONVERT DEVICE TO DEC
      00243  3 00000 0 01407         PTH     ARG
      00244  0100 00 0 01260         TZE     BADDEV        NO SUCH THING
      00245  0737 00 1 00000         PAC     ,1            SET THE RIGHT FLAG
      00246  0402 00 0 02052         SUB     =4            AFTER MORE CHECKING
      00247  0120 00 0 01260         TPL     BADDEV        MUST BE 1,2,OR 3
      00250  0500 00 0 02065         CLA     =-1           CONSTRUCT THE FLAG
      00251  0520 00 0 01372         ZET     NOTFLG
      00252  0760 00 0 00003         SSP
      00253  0601 00 1 01357         STO     FDRUM-1,1     POP--IN IT GOES
      00254  0020 00 0 00163         TRA     CLRBAK


                                             (NAME) --


                                             (SHFT) --

      00255  0074 00 4 00010  SFTARG TSX     $BCDEC,4      CONVERT ARG TO A SHIFT NUM
      00256  3 00000 0 01407         PTH     ARG
      00257  0100 00 0 01265         TZE     BADSFT        NO ZERO SHIFT
      00260  0737 00 1 00000         PAC     ,1            PLOT THE FLAG INTO THE RIGHT SLOT
      00261  0402 00 0 02053         SUB     =6
      00262  0120 00 0 01265         TPL     BADSFT        AS LONG AS IT EXISTS
      00263  0500 00 0 02065         CLA     =-1           CONSTRUCT FLAG
      00264  0520 00 0 01372         ZET     NOTFLG
      00265  0760 00 0 00003         SSP
      00266  0601 00 1 01362         STO     FT1-1,1
      00267  0020 00 0 00163         TRA     CLRBAK


                                             (PSWD) --

      00270  0520 00 0 01372  PSWARG ZET     NOTFLG        (NOT) OPTION NOT ALLOWED
      00271  0020 00 0 01245         TRA     BADNOT
      00272 -0625 00 0 01376         STL     PSWFLG        SET THE PASSWORD PRINT FLAG
      00273  0020 00 0 00163         TRA     CLRBAK


                                             (RCOD) --

      00274  0500 00 0 02051  RCDARG CLA     =1            SET THE SEARCH FLAG
      00275  0520 00 0 01372         ZET     NOTFLG
      00276 -0760 00 0 00003         SSM
      00277  0601 00 0 01356         STO     FRCODE
      00300  0074 00 4 00011         TSX     $BCOCT,4      AND CONVERT THE CODE TO OCTAL
      00301  0 00000 0 01407         PZE     ARG
      00302  0601 00 0 01431         STO     RCODE         SAVE IT
1       UASCAN - TO SELECT AND PRINT INFORMATION FROM UACCNT TIMACC              04/28/69 1231.2 PAGE 7
                           PROCESS THE ARGUMENT STRING

      00303  0020 00 0 00163         TRA     CLRBAK


                                             (OFFN) --

      00304 -0625 00 0 01373  OFNARG STL     OFNFLG        SET THE OFFON FLAG


                                             (OFF) --

      00305  0520 00 0 01372  OFFARG ZET     NOTFLG        (NOT) NOT ALLOWED HERE
      00306  0020 00 0 01245         TRA     BADNOT
      00307 -0500 00 0 01407         CAL     ARG           GET ARG
      00310  0602 00 0 01401         SLW     OUTNM1        AS OUTPUT FILE NAME1
      00311  0074 00 2 00165         TSX     INCARG,2      GET NEXT ARG
      00312 -0500 00 0 01407         CAL     ARG           AS OUTPUT NAME2
      00313  0602 00 0 01402         SLW     OUTNM2
      00314  0020 00 0 00163         TRA     CLRBAK        OUTNM1 ACTS AS THE FLAG HERE


                                             (PGRP) --

      00315 -0500 00 0 01407  PGPARG CAL     ARG
      00316  0602 00 0 01426         SLW     PARTY         STORE THE DESIRED PARTY GROUP
      00317  0500 00 0 02051         CLA     =1            SET FLAG
      00320  0520 00 0 01372         ZET     NOTFLG
      00321 -0760 00 0 00003         SSM
      00322  0601 00 0 01353         STO     FPARTY
      00323  0020 00 0 00163         TRA     CLRBAK


                                             (UGRP) --

      00324  0560 00 0 01407  UGPARG LDQ     ARG           BECAUSE ITS THIS WAY IN THE FILE
      00325 -0773 00 0 00006         RQL     6               THAT WE DO THIS..
      00326 -0600 00 0 01430         STQ     UNIT          SAVE THE UNIT GROUP
      00327  0500 00 0 02051         CLA     =1            SET FLAG
      00330  0520 00 0 01372         ZET     NOTFLG
      00331 -0760 00 0 00003         SSM
      00332  0601 00 0 01355         STO     FUNIT
      00333  0020 00 0 00163         TRA     CLRBAK


                                             (AGRP) --

      00334  0074 00 4 00012  AGPARG TSX     $ZEL,4        GET THE ACCOUNTING GROUP
      00335  3 00000 0 01407         PTH     ARG           WITH LEADING ZEROES
      00336  0601 00 0 01412         STO     TEMP          ..
      00337 -0500 00 0 01412         CAL     TEMP
      00340  0767 00 0 00006         ALS     6             PUT IN RIGHT SPOT
      00341 -0501 00 0 01420         ORA     AGMSK2        PUT IN LEADING 'GRP'
      00342  0602 00 0 01434         SLW     AGRP
      00343  0500 00 0 02051         CLA     =1            AND SET FLAG
      00344  0520 00 0 01372         ZET     NOTFLG
      00345 -0760 00 0 00003         SSM
1       UASCAN - TO SELECT AND PRINT INFORMATION FROM UACCNT TIMACC              04/28/69 1231.2 PAGE 8
                           PROCESS THE ARGUMENT STRING

      00346  0601 00 0 01371         STO     FAGRP
      00347  0020 00 0 00163         TRA     CLRBAK


                                             (UFDN) --

      00350 -0500 00 0 01407  UFDARG CAL     ARG           GET THE UFDNAME
      00351  0602 00 0 01427         SLW     UFDNM
      00352  0500 00 0 02051         CLA     =1
      00353  0520 00 0 01372         ZET     NOTFLG        AND SET FLAG
      00354 -0760 00 0 00003         SSM
      00355  0601 00 0 01354         STO     FUFDNM
      00356  0020 00 0 00163         TRA     CLRBAK


                                             (ACCT) --

      00357  0520 00 0 01372  ACTARG ZET     NOTFLG        (NOT) NOT ALLOWED
      00360  0020 00 0 01245         TRA     BADNOT
      00361 -0625 00 0 01377         STL     ACTFLG        SET FLAG FOR ACCOUNTING PRINTOUT
      00362 -0625 00 0 01375         STL     FULFLG        AND GROUP INFORMATION
      00363  0020 00 0 00163         TRA     CLRBAK


                                             (ATT) --

      00364  0520 00 0 01372  ATTARG ZET     NOTFLG        (NOT) NOT ALLOWED
      00365  0020 00 0 01245         TRA     BADNOT
      00366 -0500 00 0 01407         CAL     ARG           FIRST ARG IS ATTACH NAME1
      00367  0602 00 0 01403         SLW     ATTNM1        ATTNM1 ACTS AS THE FLAG HERE
      00370  0074 00 2 00165         TSX     INCARG,2      GET NEXT ARG
      00371 -0500 00 0 01407         CAL     ARG           WHICH IS ATTACH NAME2
      00372  0602 00 0 01404         SLW     ATTNM2
      00373  0020 00 0 00163         TRA     CLRBAK


                                             (FLAG) --

      00374  0500 00 0 02051  FLGARG CLA     =1            SET SEARCH FLAG
      00375  0520 00 0 01372         ZET     NOTFLG
      00376 -0760 00 0 00003         SSM
      00377  0601 00 0 01357         STO     FFLAGS
      00400  0074 00 4 00011         TSX     $BCOCT,4      CONVERT FLAGS TO OCT
      00401  3 00000 0 01407         PTH     ARG
      00402  0601 00 0 01432         STO     FLAGS
      00403  0020 00 0 00163         TRA     CLRBAK


                                             HERE WHEN THE FENCE IS ENCOUNTERED IN THE
                                             ARGUMENT STRING. FIRST WE MAKE SURE THE
                                             LAST (NOT) OR (XXXX) HAS ALL ITS NEEDED
                                             ARGUMENTS, THEN SET UP FOR ON OR OFF
                                             LINE PRINTING.
1       UASCAN - TO SELECT AND PRINT INFORMATION FROM UACCNT TIMACC              04/28/69 1231.2 PAGE 9
                           PROCESS THE ARGUMENT STRING

      00404  0520 00 0 01372  ARGFIN ZET     NOTFLG        UNFILLED (NOT) --
      00405  0020 00 0 01277         TRA     WNTMOR        YES
      00406  0520 00 0 01374         ZET     SPECFL        UNFILLED (XXXX)
      00407  0020 00 0 01277         TRA     WNTMOR        YES
      00410 -0520 00 0 01401         NZT     OUTNM1        WAS AN OUTPUT FILE SPECIFIED
      00411  0020 00 0 00435         TRA     SETUP         NO--SET UP THE INPUT FILE


                                             SETUP FOR OFF LINE PRINTING

      00412  0074 00 4 00013  OFFLIN TSX     $OFF,4
      00413  3 00000 0 01401         PTH     OUTNM1
      00414  3 00000 0 01402         PTH     OUTNM2

      00415  0074 00 4 00014         TSX     $SSPRNT,4     ALLOW INSERTION OF AN EJECT
      00416  3 00000 0 02050         PTH     =0
      00417  0074 00 4 00002         TSX     $WRFLX,4
      00420  3 00005 0 01640         PTH     HIMES,,5      PUT A HELLO INTO THE FILE
      00421  0074 00 4 00014         TSX     $SSPRNT,4     AND GO BACK TO SINGLE SPACE MOVE
      00422  3 00000 0 02051         PTH     =1

      00423  1 00001 3 00424         TXI     *+1,3,1       FUDGE ARGUMENT COUNT
      00424 -0636 00 3 00426         SCD     *+2,3         AND INTO THE WRITE COMMAND
      00425  0074 00 4 00002         TSX     $WRFLX,4      PUT THE ARGUMENT STRING INTO THE FILE
      00426  3 00000 0 01652         PTH     ARGBUF+1,,**
      00427  0074 00 4 00002         TSX     $WRFLX,4      AND AN EXTRA CARRIAGE RETURN
      00430  3 00000 0 00000         PTH     ,,0
      00431  0520 00 0 01373         ZET     OFNFLG        ON LINE ALSO--
      00432  0074 00 4 00015         TSX     $OFFON,4      SO DO SO
      00433  3 00000 0 01401         PTH     OUTNM1
      00434  3 00000 0 01402         PTH     OUTNM2
1       UASCAN - TO SELECT AND PRINT INFORMATION FROM UACCNT TIMACC              04/28/69 1231.2 PAGE 10
                           SET UP THE INPUT FILE

      00435  0074 00 4 00000  SETUP  TSX     $SETBRK,4     MOVE THE BREAK ENTRY
      00436  0 00000 0 01302         PZE     FILXIT        ITS HAIRIER NOW
      00437 -0520 00 0 01403         NZT     ATTNM1        WAS AN ATTACH NAME GIVEN
      00440  0020 00 0 00446         TRA     FILLOD        NO, GET BUFFERS
      00441  0074 00 4 00016         TSX     $ATTNAM,4     YES, WHERE ARE WE NOW
      00442  3 00002 0 01413         PTH     HMPROB,,2
      00443  0074 00 4 00017         TSX     $ATTACH,4     GO TO THE DIRECTORY
      00444  3 00000 0 01403         PTH     ATTNM1
      00445  3 00000 0 01404         PTH     ATTNM2
      00446  0074 00 4 00020  FILLOD TSX     $GETMEM,4     SET BUFFER ADDRESSES
      00447  0621 00 0 00460         STA     BUFF1
      00450  0400 00 0 02056         ADD     =432
      00451  0621 00 0 00461         STA     BUFF2
      00452  0400 00 0 02056         ADD     =432
      00453  0074 00 4 00021         TSX     $SETMEM,4     NEW MEMORY BOUND
      00454  0074 00 4 00022         TSX     $BFOPEN,4     OPEN THE FILE
      00455  3 00000 0 02067         PTH     =HR           FOR READING
      00456  3 00000 0 01405         PTH     INFIL1
      00457  3 00000 0 01406         PTH     INFIL2
      00460  3 00000 0 00000  BUFF1  PTH     **
      00461  3 00000 0 00000  BUFF2  PTH     **
      00462  3 00000 0 02064         PTH     =-0
      00463  3 00000 0 01317         PTH     IOERR
      00464 -0520 00 0 01403         NZT     ATTNM1        DID WE ATTACH--
      00465  0020 00 0 00472         TRA     SEARCH        NO--BEGIN THE SEARCH AND PRINT
      00466  0074 00 4 00017         TSX     $ATTACH,4     YES--GO HOME
      00467  3 00000 0 01413         PTH     HMPROB
      00470  3 00000 0 01414         PTH     HMPROG
      00471  0600 00 0 01403         STZ     ATTNM1        AND SHOW NO MORE ATTACHING TO DO
1       UASCAN - TO SELECT AND PRINT INFORMATION FROM UACCNT TIMACC              04/28/69 1231.2 PAGE 11
                           SEARCH EACH ENTRY, AND DECIDE TO PRINT IT

      00472  0600 00 0 01701  SEARCH STZ     COUNT         ZERO THE ENTRY COUNT
      00473  0074 00 4 01011  NXTCRD TSX     READ,4        READ THE NEXT TWO CARDS
      00474 -0500 00 0 01463         CAL     CARD          CHECK FIRST WORD FOR ACCOUNTING GROUP
      00475 -0320 00 0 01417         ANA     AGMSK1
      00476  0322 00 0 02063         ERA     =HGRP00
      00477 -0100 00 0 00511         TNZ     TRYPRB        NOT GRP HEADER, TRY PROB HEADER
      00500 -0500 00 0 01464         CAL     CARD+1        MAKE SURE NEXT FIELD IS BLANK
      00501  0322 00 0 02073         ERA     =H            CHANGE BLANKS TO ZERO
      00502 -0100 00 0 00511         TNZ     TRYPRB        SKIP IF NOT
      00503 -0500 00 0 01463         CAL     CARD          OTHERWISE RESET SAGRP
      00504  0771 00 0 00006         ARS     6
      00505 -0320 00 0 02057         ANA     =O7777
      00506 -0501 00 0 02072         ORA     =H    00
      00507  0602 00 0 01451         SLW     SAGRP
      00510  0020 00 0 00745         TRA     AGRPHD        NOW TEST IF THIS IS RIGHT ONE
      00511 -0500 00 0 01463  TRYPRB CAL     CARD          NOT A GROUP HEADER
      00512  0322 00 0 01422         ERA     PRBMSK        IS IT A PROBLEM NUMBER HEADER
      00513  0100 00 0 00773         TZE     PRBHED        YES


                                             HERE WHEN WE HAVE THE RIGHT
                                             ACCOUNTING GROUP, PROGLEM NUMBER,
                                             AND ARE LOOKING AT A PROGRAMMER OR
                                             COMFIL CARD


      00514 -0520 00 0 01400         NZT     GAFFLG        IS THIS A GAF FILE--
      00515  0020 00 0 00524         TRA     CHKNAM        NO--WE HAVE ALREADY CHECK PROB NO.
      00516                          CMPAR   PROB,UGPROB,FPROB,*+2,NXTCRD
      00524                   CHKNAM CMPAR   NAME,UNAME,FNAME,*+2,NXTCRD
      00532                          CMPAR   PROG,UPROG,FPROG,*+2,NXTCRD
      00540                          CMPAR   ZERO,UDRUM,FDRUM,*+2,NXTCRD
      00546                          CMPAR   ZERO,UDISK,FDISK,*+2,NXTCRD
      00554                          CMPAR   ZERO,UTAPE,FTAPE,*+2,NXTCRD
      00562 -0500 00 0 01463         CAL     UNAME         IS THIS A COMFIL ENTRY--
      00563  0322 00 0 01464         ERA     UPROG         (UPROG MUST EQUAL UNAME)
      00564 -0100 00 0 00604         TNZ     CHKTHM        NO, DO NOTHING SPECIAL HERE
      00565  0774 00 1 00005         AXT     5,1           YES--SEE IF TIMES WERE DESIRED
      00566  0520 00 1 01370         ZET     FT1+5,1       CHECK THEM ALL
      00567  0020 00 0 00473         TRA     NXTCRD        FOUND ONE--REJECT THIS ENTRY
      00570  2 00001 1 00566         TIX     *-2,1,1       ..
      00571  0520 00 0 01356         ZET     FRCODE        CHECKING RCODE .Q.
      00572  0020 00 0 00473         TRA     NXTCRD        NOT FOR COMFILS WE DONT
      00573  0520 00 0 01357         ZET     FFLAGS        CHECKING FLAGS .Q.
      00574  0020 00 0 00473         TRA     NXTCRD        NOT FOR COMFILS WE DONT
      00575  0520 00 0 01353         ZET     FPARTY        CHECKING PARTY GROUP .Q.
      00576  0020 00 0 00473         TRA     NXTCRD        NOT FOR COMFILS WE DONT
      00577  0520 00 0 01354         ZET     FUFDNM        CHECKING UFD NAME .Q.
      00600  0020 00 0 00473         TRA     NXTCRD        NOT FOR COMFILS WE DONT
      00601  0520 00 0 01355         ZET     FUNIT         CHECKING UNIT GROUP .Q.
      00602  0020 00 0 00473         TRA     NXTCRD        NOT FOR COMFILS WE DONT .A.
      00603  0020 00 0 00727         TRA     CHKCUT        BUT WE CHECK NEITHER, SO ONWARD
1       UASCAN - TO SELECT AND PRINT INFORMATION FROM UACCNT TIMACC              04/28/69 1231.2 PAGE 12
                           SEARCH EACH ENTRY, AND DECIDE TO PRINT IT


      00604                   CHKTHM CMPAR   PARTY,UPARTY,FPARTY,*+2,NXTCRD
      00612                          CMPAR   UFDNM,UUFDNM,FUFDNM,*+2,NXTCRD
      00620                          CMPAR   UNIT,UUNIT,FUNIT,*+2,NXTCRD
      00626                          CMPAR   ZERO,UT1,FT1,*+2,NXTCRD
      00634                          CMPAR   ZERO,UT2,FT2,*+2,NXTCRD
      00642                          CMPAR   ZERO,UT3,FT3,*+2,NXTCRD
      00650                          CMPAR   ZERO,UT4,FT4,*+2,NXTCRD
      00656                          CMPAR   ZERO,UT5,FT5,*+2,NXTCRD

      00664 -0520 00 0 01356         NZT     FRCODE        DO WE CHECK RCODE--
      00665  0020 00 0 00702         TRA     CHKFLG        NO
      00666  0074 00 4 00011         TSX     $BCOCT,4      YES--CONVERT FILE RCODE TO OCTAL
      00667  3 00000 0 01471         PTH     URCODE
      00670  0601 00 0 01412         STO     TEMP          SAVE FOR NOW
      00671 -0500 00 0 01412         CAL     TEMP          BACK IN LAC
      00672 -0501 00 0 01431         ORA     RCODE         COMPARE WITH INPUT RCODE
      00673  0322 00 0 01412         ERA     TEMP
      00674  0100 00 0 00700         TZE     RCMTCH        THE MATCH
      00675  0500 00 0 01356         CLA     FRCODE        THEY DONT MATCH--GET SEARCH FLAG
      00676  0120 00 0 00473         TPL     NXTCRD        WE WANT THEM TO, SO SKIP
      00677  0020 00 0 00702         TRA     CHKFLG        WE DONT WANT THEM TO AND THEY DONT
      00700  0500 00 0 01356  RCMTCH CLA     FRCODE        THEY MATCH
      00701 -0120 00 0 00473         TMI     NXTCRD        AND WE CONT WANT THEM TO
      00702 -0520 00 0 01357  CHKFLG NZT     FFLAGS        SHALL WE CHECK FLAGS--
      00703  0020 00 0 00727         TRA     CHKCUT        NO
      00704 -0500 00 0 01472         CAL     UFLAGS        YES--CONVERT UFLAGS
      00705  0771 00 0 00006         ARS     6
      00706  0602 00 0 01412         SLW     TEMP
      00707  0074 00 4 00011         TSX     $BCOCT,4      TO OCTAL
      00710  3 00000 0 01412         PTH     TEMP
      00711  0601 00 0 01412         STO     TEMP
      00712 -0500 00 0 01412         CAL     TEMP          CONVERTED UFLAGS TO LAC
      00713 -0520 00 0 01432         NZT     FLAGS         IF FLAGS ARE ZERO
      00714  0100 00 0 00725         TZE     FGMTCH        AND TEMP IS ZERO, THEY MATCH
      00715 -0520 00 0 01432         NZT     FLAGS         OR IF FLAGS ARE ZERO
      00716 -0100 00 0 00722         TNZ     FGNMTH        AND TEMP IS NON-ZERO, NO MATCH
      00717 -0320 00 0 01432         ANA     FLAGS         OTHERWISE AND OUT PERTAINENT FLAGS
      00720  0322 00 0 01432         ERA     FLAGS         CHECK IF THEY ARE ALL ON
      00721  0100 00 0 00725         TZE     FGMTCH        THEY MATCH
      00722  0500 00 0 01357  FGNMTH CLA     FFLAGS        THEY DO NOT MATCH
      00723  0120 00 0 00473         TPL     NXTCRD        AND WE WANT THEM TO
      00724  0020 00 0 00727         TRA     CHKCUT
      00725  0500 00 0 01357  FGMTCH CLA     FFLAGS        THEY MATCH
      00726 -0120 00 0 00473         TMI     NXTCRD        AND WE DONT WANT THEM TO


      00727 -0520 00 0 01370  CHKCUT NZT     FDATEF        SHALL WE CHECK FINISH DATE TOO--
      00730  0020 00 0 01125         TRA     FORMAT        NO
      00731  0560 00 0 01514         LDQ     UDATEF        MMDDYY
      00732 -0773 00 0 00030         RQL     24            YYMMDD
      00733 -0130 00 0 00000         XCL                   READY FOR COMPARE BOSS
      00734 -0340 00 0 01433         LAS     DATEF         COMPARE WITH GIVEN DATE
      00735  0020 00 0 00742         TRA     CUTNO         FILE DATE AFTER GIVEN DATE
1       UASCAN - TO SELECT AND PRINT INFORMATION FROM UACCNT TIMACC              04/28/69 1231.2 PAGE 13
                           SEARCH EACH ENTRY, AND DECIDE TO PRINT IT

      00736  0020 00 0 01125         TRA     FORMAT        SAME DATE--SELECT IT
      00737  0500 00 0 01370         CLA     FDATEF        THE DATE IS TOO BIG
      00740  0120 00 0 01125         TPL     FORMAT        BUT THATS OK
      00741  0020 00 0 00473         TRA     NXTCRD        NO IT WASNT
      00742  0500 00 0 01370  CUTNO  CLA     FDATEF        THE DATE IS WRONG
      00743 -0120 00 0 01125         TMI     FORMAT        IF THE FLAG LIKES IT
      00744  0020 00 0 00473         TRA     NXTCRD        CUT IT MIGHT NOT


                                             FIND THE DESIRED ACCOUNTING GROUP ENTRY

      00745                   AGRPHD CMPAR   AGRP,CARD,FAGRP,AGPYES,*+1
      00753  0074 00 4 01011  ANEXT  TSX     READ,4        IF NOT RIGHT, FIND THE RIGHT ONE
      00754                          CMPAR   AGMSK3,CARD,=1,AGRPHD,ANEXT
      00762 -0500 00 0 01464  AGPYES CAL     CARD+1        GOT A 'GRP** ', NOW SEE IF GRP HEADER
      00763  0322 00 0 02073         ERA     =H            NEXT WORD MUST BE BLANK
      00764 -0100 00 0 00745         TNZ     AGRPHD        OTHERWISE, KEEP LOOKING
      00765 -0500 00 0 01463         CAL     CARD          GOT THE CORRECT GROUP
      00766  0771 00 0 00006         ARS     6             RIGHT JUSTIFY IT
      00767 -0320 00 0 02057         ANA     =O7777        SAVE LAST TWO DIGITS
      00770 -0501 00 0 02072         ORA     =H    00      PUT IN LEADING BLANKS
      00771  0602 00 0 01451         SLW     SAGRP         SAVE THE ACCOUNTING GROUP FOR PRINT
      00772  0020 00 0 00473         TRA     NXTCRD        AND GO ON


                                             FIND THE DESIRED PROBLEM HEADER

      00773                   PRBHED CMPAR   PROB,UPROB,FPROB,PRBYES,*+1
      01001  0074 00 4 01011  PRBLUK TSX     READ,4        NOT THIS ONE,TRY ANOTHER
      01002 -0500 00 0 01463         CAL     CARD
      01003  0322 00 0 02070         ERA     =H*           WITH  A '*' IN COLUMN ONE
      01004 -0100 00 0 01001         TNZ     PRBLUK
      01005  0020 00 0 00773         TRA     PRBHED
      01006 -0500 00 0 01464  PRBYES CAL     UPROB         WE WANT THIS ONE
      01007  0602 00 0 01416         SLW     QPROB         SAVE FOR PRINTING
      01010  0020 00 0 00473         TRA     NXTCRD        AND SEARCH EVER ONWARD


                                             SUBROUTINE READ --
                                                 READS TWO CARDS AND HANDLES END OF FILE

      01011  0634 00 4 01041  READ   SXA     RXR4,4        EVEN LOOKS LIKE A XUBROUTINE
      01012  0074 00 4 00023         TSX     $BFREAD,4     READ THE TWO CARDS
      01013  3 00000 0 01405         PTH     INFIL1
      01014  3 00000 0 01406         PTH     INFIL2
      01015  3 00034 0 01463         PTH     CARD,,28
      01016  3 00000 0 01043         PTH     ENDFIL        IF EOF ENCOUNTERED
      01017  3 00000 0 01412         PTH     TEMP          NOT CONCERNED ABOUT EOF COUNT
      01020 -0520 00 0 01400         NZT     GAFFLG        CHECK GAF FLAG
      01021  0020 00 0 01025         TRA     *+4           NOT ON, TEST FOR NEW ACCT GROUP
      01022 -0500 00 0 01474         CAL     UGPROB
      01023  0602 00 0 01416         SLW     QPROB         SAVE NEW PROBLEM NUMBER FOR PRINTING
      01024  0020 00 0 01041         TRA     RXR4          EXIT FROM READ
      01025 -0500 00 0 01463         CAL     CARD          CHECK FIRST WORD FOR NEW ACCT. GROUP
1       UASCAN - TO SELECT AND PRINT INFORMATION FROM UACCNT TIMACC              04/28/69 1231.2 PAGE 14
                           SEARCH EACH ENTRY, AND DECIDE TO PRINT IT

      01026 -0320 00 0 01417         ANA     AGMSK1        ..
      01027  0322 00 0 01420         ERA     AGMSK2        ..
      01030 -0100 00 0 01041         TNZ     RXR4          ..
      01031 -0500 00 0 01464         CAL     CARD+1        MAKE SURE NEXT CARD IS EMPTY
      01032  0322 00 0 02073         ERA     =H            ..
      01033 -0100 00 0 01041         TNZ     RXR4          NOT REALLY A NEW GROUP
      01034 -0500 00 0 01463         CAL     CARD          IT WAS A NEW GROUP
      01035  0771 00 0 00006         ARS     6             SO RESET SAGRP
      01036 -0320 00 0 02057         ANA     =O7777
      01037 -0501 00 0 02072         ORA     =H    00
      01040  0602 00 0 01451         SLW     SAGRP
      01041  0774 00 4 00000  RXR4   AXT     **,4          RESTORE THAT INDEX
      01042  0020 00 4 00001         TRA     1,4           AND RETURN

      01043 -0520 00 0 01401  ENDFIL NZT     OUTNM1        ARE WE WORKING ON AN OFFLINE FILE--
      01044  0020 00 0 01051         TRA     LSTLNS        NO--PRINT THE LAST LINES
      01045 -0520 00 0 01373         NZT     OFNFLG        DONT SET OFFON IF ALREADY SET
      01046  0074 00 4 00015         TSX     $OFFON,4      YES--PRINT BOTH ON AND OFF LINE
      01047  3 00000 0 01401         PTH     OUTNM1
      01050  3 00000 0 01402         PTH     OUTNM2
      01051  0074 00 4 00002  LSTLNS TSX     $WRFLX,4      GIVE AN EXTRA CARRIAGE RETURN
      01052  3 00000 0 00000         PTH     ,,0
      01053 -0520 00 0 01701         NZT     COUNT         WERE ANY ENTRIES FOUND
      01054  0020 00 0 01073         TRA     NONE          NO--SAY SO
      01055  0500 00 0 01701         CLA     COUNT         WAS ONLY ONE ENTRY FOUND
      01056  0402 00 0 02051         SUB     =1            IF SO, THE CLOD CAN COUNT THEM
      01057  0100 00 0 01070         TZE     PSTAR         HIMSELF...
      01060  0074 00 4 00024         TSX     $DEFBC,4      CONVERT COUNT FOR PRINTING
      01061  3 00000 0 01701         PTH     COUNT
      01062  0601 00 0 01701         STO     COUNT
      01063  0074 00 4 00025         TSX     $BZ57,4       ..
      01064  3 00000 0 01701         PTH     COUNT
      01065  0601 00 0 01701         STO     COUNT
      01066  0074 00 4 00002         TSX     $WRFLX,4      WRITE THE NUMBER FOUND
      01067  3 00002 0 01701         PTH     COUNT,,2
      01070  0074 00 4 00002  PSTAR  TSX     $WRFLX,4      PRINT AN ASTERISK
      01071  3 00001 0 02070         PTH     =H*     ,,1
      01072  0020 00 0 01302         TRA     FILXIT        AND EAVE
      01073  0074 00 4 00002  NONE   TSX     $WRFLX,4      PRINT NONE FOUND
      01074  3 00005 0 01703         PTH     NOENT,,5
      01075  0020 00 0 01070         TRA     PSTAR         AND THEN AN ASTERISK


                                             SUBROUTINE CMPARE --
                                               CALLING SEQUENCE--
                                                 CMPARE.(TSTWRD,FILWRD,FLAG,YES,NO)

                                             TSTWRD -- WORD WITH EMBEDDED '*'S.
                                             FILWRD -- COMPARED WITH TSTWRD BY THE LISTF * CONVENTION
                                             FLAG   -- ROUTINE TRANSFERS IMMEDIATELY
                                                       WITH NO TESTING TO YES IF FLAG = 0
                                                       ROUTINE TRANSFERS TO YES IF FLAG
                                                       IS NONZERO AND POSITIVE AND THE
                                                       COMPARISON IS SUCCESSFUL
                                                       ROUTINE TRANSFERS TO YES IF
1       UASCAN - TO SELECT AND PRINT INFORMATION FROM UACCNT TIMACC              04/28/69 1231.2 PAGE 15
                           SEARCH EACH ENTRY, AND DECIDE TO PRINT IT

                                                       FLAG IS NEGATIVE AND TEST FAILS
                                             YES   --  RETURN FOR SUCCESSFUL TEST
                                             NO    --  RETURN FOR UNSUCCESSFUL TEST


      01076  0634 00 4 01105  CMPARE SXA     CXR4,4        SAVE IT
      01077  0500 60 4 00003         CLA*    3,4           GET THE FLAG
      01100  0100 60 4 00004         TZE*    4,4           RETURN IMMEDIATELY IF ZERO
      01101 -0500 00 4 00001         CAL     1,4           GET THE TSTWRD
      01102  0621 00 0 01104         STA     NACALL        ADDRESS FOR LATER
      01103  0074 00 4 00026         TSX     $NAMASK,4     GET THE MASK
      01104  3 00000 0 00000  NACALL PTH     **            ADDRESS OF TSTWRD
      01105  0774 00 4 00000  CXR4   AXT     **,4          RESTORE THE INDEX
      01106  0601 00 0 01123         STO     MASK          AND SAVE THE NAMASK
      01107 -0500 60 4 00002         CAL*    2,4           GET THE INPUT WORD
      01110  0322 60 4 00001         ERA*    1,4           COMPARE AGAINST TSTWRD
      01111 -0320 00 0 01123         ANA     MASK          UNDER THE NAMASK
      01112  0602 00 0 01124         SLW     RESULT        AND SAVE RESULT
      01113  0500 60 4 00003         CLA*    3,4           GET THE FLAG
      01114 -0120 00 0 01120         TMI     *+4           IF YES-NO TO BE REVERSED
      01115  0520 00 0 01124         ZET     RESULT        DID THEY MATCH
      01116  0020 60 4 00005         TRA*    5,4           NO--RETURN TO NO
      01117  0020 60 4 00004         TRA*    4,4           YES--RETURN TO YES
      01120  0520 00 0 01124         ZET     RESULT        DID THEY MATCH
      01121  0020 60 4 00004         TRA*    4,4           NO, BUT WE DONT WANT THEM TO
      01122  0020 60 4 00005         TRA*    5,4           YES, AND WE DIDNT WANT THEM TO

      01123                   MASK   BSS     1
      01124                   RESULT BSS     1
1       UASCAN - TO SELECT AND PRINT INFORMATION FROM UACCNT TIMACC              04/28/69 1231.2 PAGE 16
                           FORMAT THE SELECT OUTPUT AND PRINT IT


      01125  0500 00 0 01701  FORMAT CLA     COUNT         GET THE COUNT
      01126  0400 00 0 02051         ADD     =1            UPDATE IT
      01127  0601 00 0 01701         STO     COUNT         ..

      01130  3 00000 0 01151  GATE   PTH     FORM          CHANGED TO A TXL LATER
      01131  0074 00 4 00027         TSX     $WRFLXA,4     WRITE THE HEADINGS
      01132  3 00006 0 01717         PTH     BASIC,,6      WE KNOW WE WANT AT LEAST THIS
      01133  0520 00 0 01375         ZET     FULFLG        DO WE WANT MORE--
      01134  0074 00 4 00027         TSX     $WRFLXA,4     YES--PRINT GROUP HEADINGS
      01135  3 00004 0 01725         PTH     FULHED,,4
      01136 -0500 00 0 02073         CAL     =H            GET SOME BLANKS
      01137 -0520 00 0 01376         NZT     PSWFLG        SHALL WE PRINT PASSWORDS--
      01140  0602 00 0 01731         SLW     PASHED        NO--BLANK OUT THAT HEADING
      01141  0074 00 4 00002         TSX     $WRFLX,4      PRINT THE PASSWORD HEADING
      01142  3 00001 0 01731         PTH     PASHED,,1
      01143  0520 00 0 01377         ZET     ACTFLG        WANT ALLOTMENTS--
      01144  0074 00 4 00002         TSX     $WRFLX,4      YES--PRINT THEM
      01145  3 00011 0 01732         PTH     ALLOTS,,9
                              $      ZET     ACTFLG        CHECK AGAIN, MISTER
                              $      TSX     $WRFLX,4      BEFORE PRINTING THE REST
                              $      PTH     REQS,,5
      01146  0500 00 0 01130         CLA     GATE          CLOSE THE GATE
      01147 -0760 00 0 00003         SSM
      01150  0601 00 0 01130         STO     GATE


                                             LOAD THE INFO TO BUFFERS, AND PRINT
                                             SOME (ALL) OF IT

      01151 -0500 00 0 01435  FORM   CAL     SPROB         GET LAST PRINTED PROB
      01152  0322 00 0 01416         ERA     QPROB         IS IT CURRNT PROB--
      01153  0100 00 0 01156         TZE     *+3           YES, SKIP CARRIAGE RETURN
      01154  0074 00 4 00002         TSX     $WRFLX,4      NO-GIVE A CARRIAGE RETURN
      01155  3 00000 0 00000         PTH     ,,0
      01156 -0500 00 0 01416         CAL     QPROB         PLUG IN THIS PROB
      01157  0602 00 0 01435         SLW     SPROB
      01160 -0500 00 0 01464         CAL     UPROG
      01161  0602 00 0 01437         SLW     SPROG
      01162 -0500 00 0 01463         CAL     UNAME         GET THE USERS NAME
      01163  0602 00 0 01441         SLW     SNAME
      01164 -0500 00 0 01471         CAL     URCODE        PRETTY UP RCODE
      01165 -0320 00 0 02060         ANA     =O777777
      01166 -0501 00 0 02071         ORA     =H   000
      01167  0602 00 0 01443         SLW     SRCODE
      01170 -0500 00 0 01467         CAL     UUFDNM
      01171  0602 00 0 01445         SLW     SUFDNM
      01172 -0500 00 0 01463         CAL     UNAME         TEST FOR A COMMON FILE
      01173  0322 00 0 01464         ERA     UPROG         (UPROG MUST EQUAL UNAME)
      01174 -0100 00 0 01200         TNZ     BWRITE        NOT A COMFIL ENTRY
      01175  0074 00 4 00002         TSX     $WRFLX,4      A COMMON FILE--WRITE
      01176  3 00005 0 01435         PTH     SPROB,,5        AN ABBREVIATED LINE
      01177  0020 00 0 01226         TRA     LINE2         AND SKIP REST OF THIS LINE
      01200  0322 00 0 01437  BWRITE ERA     SPROG         IS THE UFDNAME SAME AS PROG
1       UASCAN - TO SELECT AND PRINT INFORMATION FROM UACCNT TIMACC              04/28/69 1231.2 PAGE 17
                           FORMAT THE SELECT OUTPUT AND PRINT IT

      01201 -0100 00 0 01204         TNZ     *+3           NO
      01202 -0500 00 0 02073         CAL     =H            YES--CHANGE TO BLANKS
      01203  0602 00 0 01445         SLW     SUFDNM
      01204  0074 00 4 00027         TSX     $WRFLXA,4     WRITE OUT THIS BASIC LINE
      01205  3 00012 0 01435         PTH     SPROB,,10

      01206 -0520 00 0 01375         NZT     FULFLG        MORE ON THIS LINE--
      01207  0020 00 0 01220         TRA     FRPASS        NO

      01210 -0500 00 0 01470         CAL     UUNIT         YES--ASSEMBLE AND PRINT
      01211  0602 00 0 01447         SLW     SUNIT
      01212 -0500 00 0 01465         CAL     UPARTY
      01213  0602 00 0 01450         SLW     SPARTY
      01214 -0500 00 0 01472         CAL     UFLAGS
      01215  0602 00 0 01452         SLW     SFLAGS
      01216  0074 00 4 00027         TSX     $WRFLXA,4     FINISH PRINTING THE LINE
      01217  3 00004 0 01447         PTH     SUNIT,,4
      01220 -0500 00 0 01473  FRPASS CAL     UPSWD         CAREFULL NOW....
      01221 -0520 00 0 01376         NZT     PSWFLG        SHALL WE PRINT THE PASSWORD
      01222 -0500 00 0 02073         CAL     =H            NO--BLANK IT OUT
      01223  0602 00 0 01453         SLW     SPSWD         AND STORE
      01224  0074 00 4 00002         TSX     $WRFLX,4      FINISH THE FIRST OUTPUT LINE
      01225  3 00001 0 01453         PTH     SPSWD,,1
      01226 -0520 00 0 01377  LINE2  NZT     ACTFLG        SHALL WE PRINT ALLOTMENTS TOO
      01227  0020 00 0 01244         TRA     FRMEND        NO

      01230 -0500 00 0 01511         CAL     UREQNO        YES--ASSEMBLE THE LINE
      01231  0602 00 0 01454         SLW     SREQNO
      01232 -0500 00 0 01512         CAL     UDEPT
      01233  0602 00 0 01456         SLW     SDEPT
      01234 -0500 00 0 01513         CAL     UDATE
      01235  0602 00 0 01460         SLW     SDATE
      01236 -0500 00 0 01514         CAL     UDATEF
      01237  0602 00 0 01462         SLW     SDATEF
      01240  0074 00 4 00027         TSX     $WRFLXA,4     PRINT THE FIRST PART OF THE LINE
      01241  3 00001 0 02073         PTH     =H      ,,1   PRECEEDED BY A WORD OF BLANKS
      01242  0074 00 4 00002         TSX     $WRFLX,4
      01243  3 00010 0 01501         PTH     UDRUM,,8      FIRST THE ALLOTMENTS
                              $      TSX     $WRFLX,4      THEN THE REST
                              $      PTH     SREQNO,,7

      01244  0020 00 0 00473  FRMEND TRA     NXTCRD        BACK WE GO FOR MORE
                                                       (WILL IT NEVER END .Q.)
1       UASCAN - TO SELECT AND PRINT INFORMATION FROM UACCNT TIMACC              04/28/69 1231.2 PAGE 18
                           ERROR ROUTINES


      01245  1 00001 3 01246  BADNOT TXI     *+1,3,1       MOVE BACK ONE ARG
      01246  0774 00 1 00003         AXT     3,1           TO GET THREE
      01247 -0500 00 3 01651         CAL     ARGBUF,3      GET THE ARG
      01250  0602 00 1 01640         SLW     ERRBUF+3,1    ..
      01251  1 77777 3 01252         TXI     *+1,3,-1      MOVE TO NEXT ARG
      01252  2 00001 1 01247         TIX     *-3,1,1       AND DO THREE
      01253  0074 00 4 00027         TSX     $WRFLXA,4     PRINT THEM
      01254  3 00004 0 01517         PTH     NOTMES,,4
      01255  0074 00 4 00002         TSX     $WRFLX,4
      01256  3 00003 0 01635         PTH     ERRBUF,,3
      01257  0020 00 0 01273         TRA     LEAVE         AND EXIT


      01260  0074 00 4 00027  BADDEV TSX     $WRFLXA,4     BAD DEVICE SPECIFIED
      01261  3 00005 0 01523         PTH     DEVMES,,5
      01262  0074 00 4 00002  PTARG  TSX     $WRFLX,4      PRINT THE OFFENTING ARG
      01263  3 00001 0 01407         PTH     ARG,,1        ..
      01264  0020 00 0 01273         TRA     LEAVE


      01265  0074 00 4 00027  BADSFT TSX     $WRFLXA,4     BAD SHIFT SPECIFIED
      01266  3 00005 0 01530         PTH     SFTMES,,5
      01267  0020 00 0 01262         TRA     PTARG


      01270  0074 00 4 00027  BADARG TSX     $WRFLXA,4     (XXXX) NOT IN TABLE
      01271  3 00004 0 01645         PTH     ARGMES,,4
      01272  0020 00 0 01262         TRA     PTARG


      01273  0074 00 4 00002  LEAVE  TSX     $WRFLX,4      EXIT QUICKLY
      01274  3 00001 0 02070         PTH     =H*     ,,1
      01275  0074 00 4 00003         TSX     $CHNCOM,4
      01276  0 00000 0 00000         PZE     0


      01277  0074 00 4 00002  WNTMOR TSX     $WRFLX,4      (NOT) OR (XXX) NEEDS MORE ARGS
      01300  3 00004 0 01675         PTH     MORMES,,4
      01301  0020 00 0 01273         TRA     LEAVE


      01302 -0520 00 0 01403  FILXIT NZT     ATTNM1        WERE WE ATTACHED
      01303  0020 00 0 01311         TRA     BCLOSE        NO
      01304  0074 00 4 00017         TSX     $ATTACH,4     YES--GO HOME
      01305  3 00000 0 01413         PTH     HMPROB
1       UASCAN - TO SELECT AND PRINT INFORMATION FROM UACCNT TIMACC              04/28/69 1231.2 PAGE 19
                           ERROR ROUTINES

      01306  3 00000 0 01414         PTH     HMPROG
      01307  3 00000 0 01311         PTH     *+2           DONT WORRY ABOUT ERRORS
      01310  3 00000 0 01412         PTH     TEMP          WE WONT BE HERE LONG ANYWAY
      01311  0074 00 4 00030  BCLOSE TSX     $BFCLOS,4     CLOSE THE FILE
      01312  3 00000 0 01405         PTH     INFIL1
      01313  3 00000 0 01406         PTH     INFIL2
      01314  3 00000 0 01315         PTH     *+1
      01315  0074 00 4 00003         TSX     $CHNCOM,4     AND AWAY WE GO
      01316  0 00000 0 00000         PZE     0


      01317  0074 00 4 00031  IOERR  TSX     $BFCODE,4     GET THE BF ERROR CODE
      01320  3 00000 0 01412         PTH     TEMP
      01321 -0520 00 0 01412         NZT     TEMP          IS THE ERROR CODE ZERO--
      01322  0020 00 0 01334         TRA     NOTBER        YES-NOT A BF-ERROR
      01323  0074 00 4 00024         TSX     $DEFBC,4      CONVERT THE ERROR CODE
      01324  3 00000 0 01412         PTH     TEMP          FOR PRINTING
      01325  0601 00 0 01412         STO     TEMP
      01326  0074 00 4 00007         TSX     $BZEL,4
      01327  3 00000 0 01412         PTH     TEMP
      01330  0601 00 0 01716         STO     ERROR
      01331  0074 00 4 00002         TSX     $WRFLX,4      PRINT THE ERROR
      01332  3 00007 0 01710         PTH     IOMES,,7
      01333  0020 00 0 01302         TRA     FILXIT

                                             HERE IF AN I/O ERROR OCCURRED

      01334  0074 00 4 00032  NOTBER TSX     $CLOSE,4      CLOSE THEM ALL
      01335  3 00000 0 02061         PTH     =HALL         ..
      01336 -0520 00 0 01403         NZT     ATTNM1        ARE WE ANYWHERE
      01337  0020 00 0 01345         TRA     ERXIT         NOPE
      01340  0074 00 4 00017         TSX     $ATTACH,4     YES, RETURN
      01341  3 00000 0 01413         PTH     HMPROB
      01342  3 00000 0 01414         PTH     HMPROG
      01343  3 00000 0 01345         PTH     *+2
      01344  3 00000 0 01412         PTH     TEMP

      01345  0560 00 0 01411  ERXIT  LDQ     FENCE         SET UP CALL TO PRNTER
      01346 -0500 00 0 02066         CAL     =HPRNTER      ..
      01347  0074 00 4 00033         TSX     $NEXCOM,4     AND EXCUTE THE COMMAND
1       UASCAN - TO SELECT AND PRINT INFORMATION FROM UACCNT TIMACC              04/28/69 1231.2 PAGE 20
                           STORAGE, CONSTANTS, MESSAGES, FLAGS, AND OTHER STUFF


                                             * * * * * * * * *
                                             * SEARCH FLAGS  *
                                             * * * * * * * * *

      01350  0 00000 0 00000  FNAME  PZE
      01351  0 00000 0 00000  FPROB  PZE
      01352  0 00000 0 00000  FPROG  PZE
      01353  0 00000 0 00000  FPARTY PZE
      01354  0 00000 0 00000  FUFDNM PZE
      01355  0 00000 0 00000  FUNIT  PZE
      01356  0 00000 0 00000  FRCODE PZE
      01357  0 00000 0 00000  FFLAGS PZE
      01360  0 00000 0 00000  FDRUM  PZE
      01361  0 00000 0 00000  FDISK  PZE
      01362  0 00000 0 00000  FTAPE  PZE
      01363  0 00000 0 00000  FT1    PZE
      01364  0 00000 0 00000  FT2    PZE
      01365  0 00000 0 00000  FT3    PZE
      01366  0 00000 0 00000  FT4    PZE
      01367  0 00000 0 00000  FT5    PZE
      01370  0 00000 0 00000  FDATEF PZE
      01371  0 00000 0 00000  FAGRP  PZE

                                             * * * * * * * *
                                             * OTHER FLAGS *
                                             * * * * * * * *

      01372  0 00000 0 00000  NOTFLG PZE                   NONZERO AFTER '(NOT)'
      01373  0 00000 0 00000  OFNFLG PZE                   NONZERO AFTER '(OFFN)
      01374  0 00000 0 00000  SPECFL PZE                   NONZERO AFTER (XXXX)
      01375  0 00000 0 00000  FULFLG PZE                   NONZERO TO GET FULL FIRST LINE PRINTOUT
      01376  0 00000 0 00000  PSWFLG PZE                   NONZERO TO PRINT PASSWORDS
      01377  0 00000 0 00000  ACTFLG PZE                   NONZERO TO PRINT SECOND LINE
      01400  0 00000 0 00000  GAFFLG PZE                   NONZERO WHEN WORKING ON A GAF FILE
      01401  0 00000 0 00000  OUTNM1 PZE                   FILE NAME1 FOR OFFLINE OUTPUT
      01402  0 00000 0 00000  OUTNM2 PZE                   FILE NAME2 FOR OFFLINE OUTPUT
      01403  0 00000 0 00000  ATTNM1 PZE                   NAME1 FOR ATTACH (ATT)
      01404  0 00000 0 00000  ATTNM2 PZE                   NAME2 FOR ATTACH (ATT)
      01405  642123234563     INFIL1 BCI     1,UACCNT      INPUT FILE NAME1
      01406  633144212323     INFIL2 BCI     1,TIMACC      INPUT FILE NAME2


                                             * * * * * * * * * * * * *
                                             * RANDOM OTHER STORAGE  *
                                             * * * * * * * * * * * * *

      01407                   ARG    BSS     1
      01410  000000000034     RPAREN BCI     1,00000)
      01411 -377777777777     FENCE  OCT     777777777777
      01412                   TEMP   BSS     1
      01413                   HMPROB BSS     1
      01414                   HMPROG BSS     1
1       UASCAN - TO SELECT AND PRINT INFORMATION FROM UACCNT TIMACC              04/28/69 1231.2 PAGE 21
                           STORAGE, CONSTANTS, MESSAGES, FLAGS, AND OTHER STUFF

      01415  606060272126     GAFNM2 BCI     1,   GAF      SECOND NAME OF GAF FILE
      01416                   QPROB  BSS     1


                                             * * * * * * * * *
                                             * SEARCH MASKS  *
                                             * * * * * * * * *

      01417 -377777000077     AGMSK1 OCT     777777000077
      01420  275147000060     AGMSK2 BCI     1,GRP00
      01421  275147545460     AGMSK3 BCI     1,GRP**
      01422  546060606060     PRBMSK BCI     1,*

                                             * * * * * * * * * * * * * *
                                             * COMPARISON WORD STORAGE *
                                             * * * * * * * * * * * * * *

      01423  0 00000 0 00000  NAME   PZE
      01424  0 00000 0 00000  PROB   PZE
      01425  0 00000 0 00000  PROG   PZE
      01426  0 00000 0 00000  PARTY  PZE
      01427  0 00000 0 00000  UFDNM  PZE
      01430  0 00000 0 00000  UNIT   PZE
      01431  0 00000 0 00000  RCODE  PZE
      01432  0 00000 0 00000  FLAGS  PZE
      01433  0 00000 0 00000  DATEF  PZE
      01434  0 00000 0 00000  AGRP   PZE


                                             * * * * * * * * * * * *
                                             * OUTPUT LINE BUFFERS *
                                             * * * * * * * * * * * *

      01435  0 00000 0 00000  SPROB  PZE
      01436 -205757575757            OCT     605757575757
      01437  0 00000 0 00000  SPROG  PZE
      01440 -205757575757            OCT     605757575757
      01441  0 00000 0 00000  SNAME  PZE
      01442 -205757575757            OCT     605757575757
      01443  0 00000 0 00000  SRCODE PZE
      01444 -205757575757            OCT     605757575757
      01445  0 00000 0 00000  SUFDNM PZE
      01446 -205757575757            OCT     605757575757
      01447  0 00000 0 00000  SUNIT  PZE
      01450  0 00000 0 00000  SPARTY PZE
      01451  606060606060     SAGRP  BCI     1,
      01452  0 00000 0 00000  SFLAGS PZE
      01453  0 00000 0 00000  SPSWD  PZE
      01454  0 00000 0 00000  SREQNO PZE
      01455 -205757575757            OCT     605757575757
      01456  0 00000 0 00000  SDEPT  PZE
      01457 -205757575757            OCT     605757575757
      01460  0 00000 0 00000  SDATE  PZE
      01461 -205757575757            OCT     605757575757
      01462  0 00000 0 00000  SDATEF PZE
1       UASCAN - TO SELECT AND PRINT INFORMATION FROM UACCNT TIMACC              04/28/69 1231.2 PAGE 22
                           STORAGE, CONSTANTS, MESSAGES, FLAGS, AND OTHER STUFF


                                             * * * * * * * * *
                                             * INPUT STORAGE *
                                             * * * * * * * * *


      01463                   CARD   BSS     28
                       01463  UNAME  EQU     CARD
                       01464  UPROG  EQU     CARD+1
                       01464  UPROB  EQU     CARD+1
                       01465  UPARTY EQU     CARD+2
                       01467  UUFDNM EQU     CARD+4
                       01470  UUNIT  EQU     CARD+5
                       01471  URCODE EQU     CARD+6
                       01472  UFLAGS EQU     CARD+7
                       01473  UPSWD  EQU     CARD+8
                       01474  UGPROB EQU     CARD+9
                       01501  UDRUM  EQU     CARD+14
                       01502  UDISK  EQU     CARD+15
                       01503  UTAPE  EQU     CARD+16
                       01504  UT1    EQU     CARD+17
                       01505  UT2    EQU     CARD+18
                       01506  UT3    EQU     CARD+19
                       01507  UT4    EQU     CARD+20
                       01510  UT5    EQU     CARD+21
                       01511  UREQNO EQU     CARD+22
                       01512  UDEPT  EQU     CARD+23
                       01513  UDATE  EQU     CARD+24
                       01514  UDATEF EQU     CARD+25


                                             * * * * * * * * * * * * * * *
                                             * ERROR AND OTHER MESSAGES  *
                                             * * * * * * * * * * * * * * *

      01517  314343252721     NOTMES BCI     4,ILLEGAL USE OF '(NOT)'--
      01520  436064622560
      01521  462660147445
      01522  466334144040
      01523  314343252721     DEVMES BCI     5,ILLEGAL '(DEV)' PARAMETER--
      01524  436014742425
      01525  653414604721
      01526  512144256325
      01527  514040606060
      01530  314343252721     SFTMES BCI     5,ILLEGAL '(SHFT)' PARAMETER--
      01531  436014746230
      01532  266334146047
      01533  215121442563
      01534  255140406060
      01535  314343252721     PRBMES BCI     4,ILLEGAL PROGRAMMER NO.--
      01536  436047514627
      01537  512144442551
      01540  604546334040
      01541  606421622321     FMESS1 BCI , UASCAN - PRINT OUT SELECTED INFORMATION FROM UACCNT TIMACC
1       UASCAN - TO SELECT AND PRINT INFORMATION FROM UACCNT TIMACC              04/28/69 1231.2 PAGE 23
                           STORAGE, CONSTANTS, MESSAGES, FLAGS, AND OTHER STUFF

      01542  456040604751
      01543  314563604664
      01544  636062254325
      01545  236325246031
      01546  452646514421
      01547  633146456026
      01550  514644606421
      01551  232345636063
      01552  314421232360
      01553  606462212725     FMESS2 BCI , USAGE: R UASCAN ARGS , WHERE ARGS MAY BE
      01554  356051606421
      01555  622321456021
      01556  512762607360
      01557  663025512560
      01560  215127626044
      01561  217060222560
      01562  606060606060
      01563  606060606060
      01564  606060606060
      01565  607447514622     FMESS3 BCI , (PROB) PROBNO, (PROG) PROGNO, (NAME) NAME, (UFDN) UFDNAM,
      01566  346047514622
      01567  454673607447
      01570  514627346047
      01571  514627454673
      01572  607445214425
      01573  346045214425
      01574  736074642624
      01575  453460642624
      01576  452144736060
      01577  607421275147     FMESS4 BCI , (AGRP) X, (PGRP) X, (UGRP) X, (RCOD) RCODE, (FLAG) FLAGS,
      01600  346067736074
      01601  472751473460
      01602  677360746427
      01603  514734606773
      01604  607451234624
      01605  346051234624
      01606  257360742643
      01607  212734602643
      01610  212762736060
      01611  607462302663     FMESS5 BCI , (SHFT) X, (DEV) X, (INPT) N1 N2, (GAF) N1, (ATT) PB PG,
      01612  346067736074
      01613  242565346067
      01614  736074314547
      01615  633460450160
      01616  450273607427
      01617  212634604501
      01620  736074216363
      01621  346047226047
      01622  277360606060
      01623  607426644343     FMESS6 BCI , (FULL), (ACCT), (NOT), (OFF) N1 N2, (OFFN) N1 N2.
      01624  347360742123
      01625  236334736074
      01626  454663347360
      01627  744626263460
      01630  450160450273
1       UASCAN - TO SELECT AND PRINT INFORMATION FROM UACCNT TIMACC              04/28/69 1231.2 PAGE 24
                           STORAGE, CONSTANTS, MESSAGES, FLAGS, AND OTHER STUFF

      01631  607446262645
      01632  346045016045
      01633  023360606060
      01634  606060606060

      01635                   ERRBUF BSS     3
      01640  016060606064     HIMES  BCI     2,1    UASCAN
      01641  216223214560
      01642 -205757575757            OCT     605757575757
      01643                   DATE   BSS     1
      01644                   TIME   BSS     1
      01645  314343252721     ARGMES BCI     4,ILLEGAL ARGUMENT --
      01646  436021512764
      01647  442545636040
      01650  406060606060
      01651                   ARGBUF BSS     20
      01675  454663602545     MORMES BCI     4,NOT ENOUGH ARGUMENTS
      01676  466427306021
      01677  512764442545
      01700  636260606060
      01701                   COUNT  BSS     1
      01702  602646644524            BCI     1, FOUND
      01703  454660254563     NOENT  BCI     5,NO ENTRY SATISFIES REQUEST
      01704  517060622163
      01705  316226312562
      01706  605125506425
      01707  626360606060
      01710  255151465160     IOMES  BCI     6,ERROR IN BFREAD OR BFOPEN. ERRCODE=
      01711  314560222651
      01712  252124604651
      01713  602226464725
      01714  453360255151
      01715  234624251360
      01716                   ERROR  BSS     1
      01717  606047514622     BASIC  BCI     6,  PROB   PROG  NAME   RCODE  UFDNM
      01720  606060475146
      01721  276060452144
      01722  256060605123
      01723  462425606064
      01724  262445446060
      01725  644531636060     FULHED BCI     4,UNIT  PARTY ACCTG FLAGS
      01726  472151637060
      01727  212323632760
      01730  264321276260
      01731  476266246060     PASHED BCI     1,PSWD
      01732  606060606060     ALLOTS BCI     5,        DRUM  DISK  TAPE    T1
      01733  606024516444
      01734  606024316242
      01735  606063214725
      01736  606060606301
      01737  606060606302            BCI     4,    T2    T3    T4    T5
      01740  606060606303
      01741  606060606304
      01742  606060606305
      01743  605125504546     REQS   BCI     5, REQNO   DEPT  DATE   DATEF
1       UASCAN - TO SELECT AND PRINT INFORMATION FROM UACCNT TIMACC              04/28/69 1231.2 PAGE 25
                           STORAGE, CONSTANTS, MESSAGES, FLAGS, AND OTHER STUFF

      01744  606060242547
      01745  636060242163
      01746  256060602421
      01747  632526606060
      01750  606060606000     ZERO   BCI     1,     0


                                             * * * * * * * * * *
                                             * ARGUMENT TABLE  *
                                             * * * * * * * * * *

      01751  607427212634     ARGTBL BCI     1, (GAF)      SPECIFY G.A.F. AS INPUT FILE
      01752  0074 00 2 00165         TSX     INCARG,2      SO GET THE FILE NAME
      01753  0020 00 0 00151         TRA     GAFARG        AND PLAY WITH IT

      01754  743145476334            BCI     1,(INPT)      SPECIFY NAME1 NAME2 AS INPUT FILE
      01755  0074 00 2 00165         TSX     INCARG,2      GET NAME1
      01756  0020 00 0 00167         TRA     INPARG        AND PLAY

      01757  607445466334            BCI     1, (NOT)      TO NEGATE THE MEANING OF SOME ARGS
      01760  0074 00 2 00165         TSX     INCARG,2      GET THE NEXT (XXXX)
      01761  0020 00 0 00177         TRA     NOTARG

      01762  744751462234            BCI     1,(PROB)      PROBLEM NUMBER FOLLOWS
      01763  0074 00 2 00165         TSX     INCARG,2      GET IT
      01764  0020 00 0 00205         TRA     PRBARG

      01765  744751462734            BCI     1,(PROG)      PROGRAMMER NUMBER FOLLOWS
      01766  0074 00 2 00165         TSX     INCARG,2      GET IT
      01767  0020 00 0 00215         TRA     PRGARG

      01770  742664434334            BCI     1,(FULL)      FULL PRINT OPTION DESIRED
      01771  0020 00 0 00224         TRA     FULARG
      01772  0761 00 0 00000         NOP                   TAKE UP SPACE IN TABLE

      01773  607423646334            BCI     1, (CUT)      SELECT BY CUT DATE
      01774  0074 00 2 00165         TSX     INCARG,2      GET MMDDYY FOR CUT
      01775  0020 00 0 00230         TRA     CUTARG

      01776  607424256534            BCI     1, (DEV)      SELECT BY DEVICE ALLOTMENT
      01777  0074 00 2 00165         TSX     INCARG,2      GET THE DEVICE NUMBER
      02000  0020 00 0 00242         TRA     DEVARG

      02001  744521442534            BCI     1,(NAME)      SELECT BY NAME
      02002  0074 00 2 00165         TSX     INCARG,2      GET THE NAME
      02003  0020 00 0 00120         TRA     NAMARG

      02004  746230266334            BCI     1,(SHFT)      SELECT BY SHIFT TIME ALLOTMENT
      02005  0074 00 2 00165         TSX     INCARG,2      GET THE SHIFT NUMBER
      02006  0020 00 0 00255         TRA     SFTARG        ..

      02007  744762662434            BCI     1,(PSWD)      PRINT PASSWORDS
      02010  0020 00 0 00270         TRA     PSWARG
      02011  0761 00 0 00000         NOP
1       UASCAN - TO SELECT AND PRINT INFORMATION FROM UACCNT TIMACC              04/28/69 1231.2 PAGE 26
                           STORAGE, CONSTANTS, MESSAGES, FLAGS, AND OTHER STUFF

      02012  745123462434            BCI     1,(RCOD)      SELECT BY RCODE
      02013  0074 00 2 00165         TSX     INCARG,2      GET THE CODE BITS DESIRED
      02014  0020 00 0 00274         TRA     RCDARG

      02015  607446262634            BCI     1, (OFF)      OFFLINE OUTPUT
      02016  0074 00 2 00165         TSX     INCARG,2      GET NAME1 OF THE OUTPUT FILE
      02017  0020 00 0 00305         TRA     OFFARG

      02020  744626264534            BCI     1,(OFFN)      OUTPUT ON LINE AND
      02021  0074 00 2 00165         TSX     INCARG,2      OFF LINE IN NAME1 NAME2
      02022  0020 00 0 00304         TRA     OFNARG        ..

      02023  744727514734            BCI     1,(PGRP)      SELECT BY PARTY GROUP
      02024  0074 00 2 00165         TSX     INCARG,2      GET THE DESIRED GROUP NUM.
      02025  0020 00 0 00315         TRA     PGPARG

      02026  746427514734            BCI     1,(UGRP)      SELECT BY UNIT GROUP
      02027  0074 00 2 00165         TSX     INCARG,2      GET THE UNIT GROUP NUMBER
      02030  0020 00 0 00324         TRA     UGPARG

      02031  742127514734            BCI     1,(AGRP)      SELECT BY ACCOUNTING GROUP
      02032  0074 00 2 00165         TSX     INCARG,2      GET THE ACCOUNTING GROUP
      02033  0020 00 0 00334         TRA     AGPARG

      02034  746426244534            BCI     1,(UFDN)      SELECT BY HOME UFD NAME
      02035  0074 00 2 00165         TSX     INCARG,2      GET THE UFD NAME
      02036  0020 00 0 00350         TRA     UFDARG

      02037  742123236334            BCI     1,(ACCT)      DESIRE AN ACCOUNTING PRINTOUT
      02040  0020 00 0 00357         TRA     ACTARG
      02041  0761 00 0 00000         NOP

      02042  607421636334            BCI     1, (ATT)      ATTACH PROB PROG TO GET INPUT FILE
      02043  0074 00 2 00165         TSX     INCARG,2      GET THE PROBLEM NUMBER
      02044  0020 00 0 00364         TRA     ATTARG

      02045  742643212734            BCI     1,(FLAG)      SELECT BY FLAG BITS
      02046  0074 00 2 00165         TSX     INCARG,2      GET THE FLAG BITS
      02047  0020 00 0 00374         TRA     FLGARG

                       00077  ARGSIZ EQU     *-ARGTBL      SIZE OF THE ABOVE TABLE


                                     END

        LITERALS
      02050  000000000000
      02051  000000000001
      02052  000000000004
      02053  000000000006
      02054  000000000011
      02055  000000000077
      02056  000000000660
      02057  000000007777
      02060  000000777777
1       UASCAN - TO SELECT AND PRINT INFORMATION FROM UACCNT TIMACC              04/28/69 1231.2 PAGE 27
                           STORAGE, CONSTANTS, MESSAGES, FLAGS, AND OTHER STUFF

      02061  214343606060
      02062  234426435454
      02063  275147000060
      02064  400000000000
      02065  400000000001
      02066  475145632551
      02067  516060606060
      02070  546060606060
      02071  606060000000
      02072  606060600000
      02073  606060606060
1       UASCAN - TO SELECT AND PRINT INFORMATION FROM UACCNT TIMACC              04/28/69 1231.2 PAGE 1
                        POST PROCESSOR ASSEMBLY DATA

       2074 IS THE FIRST LOCATION NOT USED BY THIS PROGRAM

0REFERENCES TO DEFINED SYMBOLS
       1407    ARG    73,  100,  106,  112,  121,  131,  143,  156,  171,  174,  200,  206,  215,  231,  243,  256,  301
                     307,  312,  315,  324,  335,  350,  366,  371,  401, 1263
       1363    FT1   266,  566,  631
       1364    FT2   637
       1365    FT3   645
       1366    FT4   653
       1367    FT5   661
         13    OFF   412
        166    REM
       1504    UT1   630, 1517
       1505    UT2   636, 1517
       1506    UT3   644, 1517
       1507    UT4   652, 1517
       1510    UT5   660, 1517
         12    ZEL   334
       1434   AGRP   342,  746
         25   BZ57  1063
          7   BZEL   230, 1326
       1463   CARD   474,  500,  503,  511,  747,  756,  762,  765, 1002, 1015, 1025, 1031, 1034, 1517
       1105   CXR4  1076
       1643   DATE    64
       1151   FORM  1130
       1130   GATE  1146, 1150
       1123   MASK  1106, 1111
       1423   NAME   122,  525
       1073   NONE  1054
       1424   PROB   207,  517,  774
       1425   PROG   216,  533
       1011   READ   473,  753, 1001
       1743   REQS
       1041   RXR4  1011, 1024, 1030, 1033
       1412   TEMP   336,  337,  670,  671,  673,  706,  710,  711,  712, 1017, 1310, 1320, 1321, 1324, 1325, 1327, 1344
       1644   TIME    65
       1430   UNIT   326,  621
       1750   ZERO   541,  547,  555,  627,  635,  643,  651,  657
        753  ANEXT   761
       1717  BASIC  1132
         10  BCDEC   242,  255
         11  BCOCT   300,  400,  666,  707
        460  BUFF1   447
        461  BUFF2   451
         32  CLOSE  1334
       1701  COUNT   472, 1053, 1055, 1061, 1062, 1064, 1065, 1067, 1125, 1127
        742  CUTNO   735
       1433  DATEF   234,  734
         24  DEFBC  1060, 1323
       1716  ERROR  1330
       1345  ERXIT  1337
       1371  FAGRP   346,  750
       1361  FDISK   551
       1360  FDRUM   253,  543
1       UASCAN - TO SELECT AND PRINT INFORMATION FROM UACCNT TIMACC              04/28/69 1231.2 PAGE 2
                        POST PROCESSOR ASSEMBLY DATA

       1411  FENCE    43,   74, 1345
       1432  FLAGS   402,  713,  715,  717,  720
       1350  FNAME   126,  527
       1351  FPROB   213,  521,  776
       1352  FPROG   222,  535
       1362  FTAPE   557
       1355  FUNIT   332,  601,  623
          4  GETTM    63
       1640  HIMES   420
       1317  IOERR   463
       1710  IOMES  1332
       1273  LEAVE    35, 1257, 1264, 1301
       1226  LINE2  1177
          5  LJUST   120,  130
       1703  NOENT  1074
         15  OFFON   432, 1046
       1426  PARTY   316,  605
       1070  PSTAR  1057, 1075
       1262  PTARG  1267, 1272
       1416  QPROB  1007, 1023, 1152, 1156
       1431  RCODE   302,  672
       1451  SAGRP   162,  507,  771, 1040
       1460  SDATE  1235
       1456  SDEPT  1233
        435  SETUP   411
       1441  SNAME  1163
        141  SPECL   103,  204
       1435  SPROB  1151, 1157, 1176, 1205
       1437  SPROG  1161, 1200
       1453  SPSWD  1223, 1225
       1447  SUNIT  1211, 1217
       1513  UDATE  1234, 1517
       1512  UDEPT  1232, 1517
       1502  UDISK   550, 1517
       1501  UDRUM   542, 1243, 1517
       1427  UFDNM   351,  613
       1463  UNAME   526,  562, 1162, 1172, 1517
       1464  UPROB   775, 1006, 1517
       1464  UPROG   534,  563, 1160, 1173, 1517
       1473  UPSWD  1220, 1517
       1503  UTAPE   556, 1517
       1470  UUNIT   622, 1210, 1517
          2  WRFLX    45,   47,   51,   53,   55,   57,   66,  417,  425,  427, 1051, 1066, 1070, 1073, 1141, 1144, 1154
                    1175, 1224, 1242, 1255, 1262, 1273, 1277, 1331
        357 ACTARG  2040
       1377 ACTFLG   361, 1143, 1226
       1417 AGMSK1   475, 1026
       1420 AGMSK2   341, 1027
       1421 AGMSK3   755
        334 AGPARG  2033
        762 AGPYES   751
        745 AGRPHD   510,  760,  764
       1732 ALLOTS  1145
       1651 ARGBUF    41,   42,   72,  426, 1247
        404 ARGFIN    75
1       UASCAN - TO SELECT AND PRINT INFORMATION FROM UACCNT TIMACC              04/28/69 1231.2 PAGE 3
                        POST PROCESSOR ASSEMBLY DATA

       1645 ARGMES  1271
         77 ARGSIZ   142,  144,  146, 2050
       1751 ARGTBL   144,  146, 2050
         17 ATTACH   443,  466, 1304, 1340
        364 ATTARG  2044
         16 ATTNAM   441
       1403 ATTNM1   367,  437,  444,  464,  471, 1302, 1336
       1404 ATTNM2   372,  445
       1270 BADARG   150
       1260 BADDEV   244,  247
       1245 BADNOT   152,  170,  225,  271,  306,  360,  365
       1265 BADSFT   257,  262
       1311 BCLOSE  1303
         30 BFCLOS  1311
         31 BFCODE  1317
         22 BFOPEN   454
         23 BFREAD  1012
       1200 BWRITE  1174
        727 CHKCUT   603,  703,  724
        702 CHKFLG   665,  677
        524 CHKNAM   515
        604 CHKTHM   564
          3 CHNCOM    61, 1275, 1315
        163 CLRBAK   127,  176,  214,  223,  227,  241,  254,  267,  273,  303,  314,  323,  333,  347,  356,  363,  373
                     403
       1076 CMPARE   104,  516,  524,  532,  540,  546,  554,  604,  612,  620,  626,  634,  642,  650,  656,  745,  754
                     773
        230 CUTARG  1775
        242 DEVARG  2000
       1523 DEVMES  1261
       1043 ENDFIL  1016
       1635 ERRBUF  1250, 1256
       1370 FDATEF   240,  727,  737,  742
       1357 FFLAGS   377,  573,  702,  722,  725
        725 FGMTCH   714,  721
        722 FGNMTH   716
        446 FILLOD   440
       1302 FILXIT   436, 1072, 1333
        374 FLGARG  2047
       1541 FMESS1    46
       1553 FMESS2    50
       1565 FMESS3    52
       1577 FMESS4    54
       1611 FMESS5    56
       1623 FMESS6    60
       1125 FORMAT   730,  736,  740,  743
       1353 FPARTY   322,  575,  607
       1356 FRCODE   277,  571,  664,  675,  700
       1244 FRMEND  1227
       1220 FRPASS  1207
       1354 FUFDNM   355,  577,  615
        224 FULARG  1771
       1375 FULFLG   226,  362, 1133, 1206
       1725 FULHED  1135
        151 GAFARG  1753
1       UASCAN - TO SELECT AND PRINT INFORMATION FROM UACCNT TIMACC              04/28/69 1231.2 PAGE 4
                        POST PROCESSOR ASSEMBLY DATA

       1400 GAFFLG   154,  514, 1020
       1415 GAFNM2   153
          1 GETCLS    40
         20 GETMEM   446
       1413 HMPROB   442,  467, 1305, 1341
       1414 HMPROG   470, 1306, 1342
        165 INCARG   173,  311,  370, 1752, 1755, 1760, 1763, 1766, 1774, 1777, 2002, 2005, 2013, 2016, 2021, 2024, 2027
                    2032, 2035, 2043, 2046
       1405 INFIL1   157,  172,  456, 1013, 1312
       1406 INFIL2   155,  175,  457, 1014, 1313
        167 INPARG  1756
       1051 LSTLNS  1044
       1675 MORMES  1300
       1104 NACALL  1102
        120 NAMARG  2003
         26 NAMASK  1103
         33 NEXCOM  1347
         63 NOFENC    44,   63
        177 NOTARG  1761
       1334 NOTBER  1322
       1372 NOTFLG    71,  124,  151,  163,  167,  177,  211,  220,  224,  236,  251,  264,  270,  275,  305,  320,  330
                     344,  353,  357,  364,  375,  404
       1517 NOTMES  1254
         72 NXTARG   165
        473 NXTCRD   523,  531,  537,  545,  553,  561,  567,  572,  574,  576,  600,  602,  611,  617,  625,  633,  641
                     647,  655,  663,  676,  701,  723,  726,  741,  744,  772, 1010, 1244
        305 OFFARG  2017
        412 OFFLIN
        304 OFNARG  2022
       1373 OFNFLG   304,  431, 1045
       1401 OUTNM1   310,  410,  413,  433, 1043, 1047
       1402 OUTNM2   313,  414,  434, 1050
       1731 PASHED  1140, 1142
        315 PGPARG  2025
        205 PRBARG   136, 1764
        773 PRBHED   513, 1005
       1001 PRBLUK  1004
       1535 PRBMES
       1422 PRBMSK   512
        130 PRBPRG   116,  117
       1006 PRBYES   777
        215 PRGARG   110,  137,  140, 1767
        104 PRPGNM   203
        270 PSWARG  2010
       1376 PSWFLG   272, 1137, 1221
        274 RCDARG  2014
        700 RCMTCH   674
          6 REPROB   205
       1124 RESULT  1112, 1115, 1120
       1410 RPAREN   102,  202
       1462 SDATEF  1237
        472 SEARCH   465
          0 SETBRK    34,  435
         21 SETMEM   453
       1452 SFLAGS  1215
1       UASCAN - TO SELECT AND PRINT INFORMATION FROM UACCNT TIMACC              04/28/69 1231.2 PAGE 5
                        POST PROCESSOR ASSEMBLY DATA

        255 SFTARG  2006
       1530 SFTMES  1266
       1450 SPARTY  1213
       1374 SPECFL    70,   76,  141,  164,  406
       1443 SRCODE  1167
       1454 SREQNO  1231
         14 SSPRNT   415,  421
       1445 SUFDNM  1171, 1203
        511 TRYPRB   477,  502
       1514 UDATEF   731, 1236, 1517
        350 UFDARG  2036
       1472 UFLAGS   704, 1214, 1517
        324 UGPARG  2030
       1474 UGPROB   520, 1022, 1517
       1465 UPARTY   606, 1212, 1517
       1471 URCODE   667, 1164, 1517
       1511 UREQNO  1230, 1517
       1467 UUFDNM   614, 1170, 1517
       1277 WNTMOR   405,  407
         27 WRFLXA  1131, 1134, 1204, 1216, 1240, 1253, 1260, 1265, 1270

0 NO ERROR IN ABOVE ASSEMBLY.
