1     MAD PROGRAM LISTING ... ... ...                 FILE  PRELOD   MAD            02/15/68    1610.6
-
                                                                                                       LM00001
                    PRELOD NAME1 -COMB- -NOLIST-                                                       LM00002
                                                                                                       LM00003
                    CHECKS NAME1 CTSSLD TO SEE IF IT WILL LOAD                                         LM00004
                    SUCCESSFULLY.  CREATES A LINE MARKED                                               LM00005
                    FILE, NAME1 STOMAP, WHICH INCLUDES ERROR                                           LM00006
                    COMMENTS IF ANY, CHECKS FOR MISSING FILES,                                         LM00007
                    MISSING ENTRY POINTS, DUPLICATED ENTRY POINTS,                                     LM00008
                    AND CORE OVERLAP.                                                                  LM00009
                                                                                                       LM00010
                  NORMAL MODE IS INTEGER                                                          *001 LM00011
                  DIMENSION BUFF1(432),BUFF2(432),A(14),PROG(28),TVARAY(3000)                     *002 LM00012
                  DIMENSION EPARAY(9600,DIM),MFARAY(100),MEARAY(600),MULT(200)                    *003 LM00013
                  DIMENSION LINE(33),FILNAM(2),BUFF3(432),TV1(6000,DTV)                           *004 LM00014
                  EQUIVALENCE (FILNAM(0),N1),(FILNAM(1),NA2)                                      *005 LM00015
                  VECTOR VALUES BL = 432                                                          *006 LM00016
                  VECTOR VALUES BLANK3 = $                  $,777777000003K                       *007 LM00017
                  VECTOR VALUES DIFC=$TOTAL LOCATIONS NOT USED      $,0,$ DECIMAL$,               *008 LM00018
                1 777777777777K                                                                   *008 LM00019
                  VECTOR VALUES DIM = 2,17,16                                                     *009 LM00020
                  VECTOR VALUES DTV = 2,3,2                                                       *010 LM00021
                  VECTOR VALUES FENCE = 777777777777K                                             *011 LM00022
                  VECTOR VALUES HEAD = 777777000013K,$0            NAME  T.V. ORGIN LENTH         *012 LM00023
                1  COMMON      CROSS REFERENCE$                                                   *012 LM00024
                  VECTOR VALUES HPC = $HIGHEST PROGRAM LOCATION      $,0,777777777777K            *013 LM00025
                  VECTOR VALUES ICOMB = 0                                                         *014 LM00026
                  VECTOR VALUES ILIST = 0                                                         *015 LM00027
                  VECTOR VALUES JE = 0                                                            *016 LM00028
                  VECTOR VALUES JT = -50                                                          *017 LM00029
                  VECTOR VALUES LCOM = 77777K                                                     *018 LM00030
                  VECTOR VALUES LCM = $LOWEST COMMON LOCATION        $,0,777777777777K            *019 LM00031
                  VECTOR VALUES LC = 33                                                           *020 LM00032
                  VECTOR VALUES LPOINT = 62K                                                      *021 LM00033
                  VECTOR VALUES MASK1 = 7777K8                                                    *022 LM00034
                  VECTOR VALUES MASK2 = 000077000000K                                             *023 LM00035
                  VECTOR VALUES MASK3 = 000000777777K                                             *024 LM00036
                  VECTOR VALUES MASK4 = 577777777777K                                             *025 LM00037
                  VECTOR VALUES MEARAY(0) = 0                                                     *026 LM00038
                  VECTOR VALUES MESS1 = $EOF IN PROGRAM CARD INFORMATION, FILE SKIPPED$           *027 LM00039
                  VECTOR VALUES MESS2 = $COMMAND FORM IS 'PRELOD NAME1 -'NOLIST'- -'COMB'         *028 LM00040
                1 -'$,777777777777K                                                               *028 LM00041
                  VECTOR VALUES MFARAY(0) = 0                                                     *029 LM00042
                  VECTOR VALUES MULT(0) = 0                                                       *030 LM00043
                  VECTOR VALUES NASTY = 0,777777777777K                                           *031 LM00044
                  VECTOR VALUES NA2 = $STOMAP$                                                    *032 LM00045
                  VECTOR VALUES N2 = $CTSSLD$                                                     *033 LM00046
                  VECTOR VALUES QBSS = $   BSS$                                                   *034 LM00047
                  VECTOR VALUES QCOMB = $  COMB$                                                  *035 LM00048
                  VECTOR VALUES PROGSW = 0                                                        *036 LM00049
                  VECTOR VALUES SUM1 = 777777000004K,$0   PRELOAD   SUCCESSFUL$,                  *037 LM00050
                2 777777000006K,$      LOWEST COMMON LOCATION  $,0,                               *037 LM00051
                3 777777000006K,$      HIGHEST PROGRAM LOCATION$,0,                               *037 LM00052
                4 777777000010K,$      TOTAL NOT USED          $,0,$ DECIMAL$                     *037 LM00053
                  VECTOR VALUES SUM1A = $UNSUCC$                                                  *038 LM00054
                  VECTOR VALUES SUM2 = 777777000004K,$      MISSING FILES ARE$                    *039 LM00055
                  VECTOR VALUES SUM3 = 777777000005K,$      MISSING ENTRY POINTS ARE$             *040 LM00056
                  VECTOR VALUES SUM4 = 777777000006K,$      DUPLICATED ENTRY POINTS ARE$          *041 LM00057
                  VECTOR VALUES TITLE = 777777000020K,$   STOMAP FOR PRELOD OF $                  *042 LM00058
                1  ,0,$ SYSTEM $,0,$            $,0,$      $,0,$      $,0,0                       *042 LM00059
                  VECTOR VALUES TVSW = 0                                                          *043 LM00060
                  VECTOR VALUES PL = 0                                                            *044 LM00061
                  VECTOR VALUES TAG = $******$                                                    *045 LM00062
                  VECTOR VALUES BLANK = $      $                                                  *046 LM00063
                  VECTOR VALUES ZERO = 0                                                          *047 LM00064
                  FERRTN.(ERR1)                                                                   *048 LM00065
                  FERRTN.(ERR2)                                                                   *049 LM00066
                  FERRTN.(ERR3)                                                                   *050 LM00067
                  FERRTN.(ERR4)                                                                   *051 LM00068
                                                                                                       LM00069
                    GET AND CHECK ARGUMENTS                                                            LM00070
                                                                                                       LM00071
                  WHENEVER COMARG.(1,N1).E.FENCE                                                  *052 LM00072
                     PRNTP.(MESS2)                                                                *053 LM00073
                     CHNCOM.(0)                                                                   *054 LM00074
                  OR WHENEVER COMARG.(2) .E. FENCE                                                *055 LM00075
                    TRANSFER TO START                                                             *056 LM00076
                  OR WHENEVER COMARG.(2).E.QCOMB .OR. COMARG.(3) .E. QCOMB                        *057 LM00077
                     ICOMB = 1                                                                    *058 LM00078
                  END OF CONDITIONAL                                                              *059 LM00079
                  WHENEVER COMARG.(3) .E. $NOLIST$ .OR. COMARG.(2) .E. $NOLIST$,                  *060 LM00080
                1  ILIST = 1                                                                      *060 LM00081
                    READ FILE NAMES FROM CTSSLD                                                        LM00082
      START       BFOPEN.($R$,N1,N2,BUFF1(BL),-0,-0,ERR1)                                         *061 LM00083
                                                                                                       LM00084
                    READ CTSSLD                                                                        LM00085
                                                                                                       LM00086
      READ1       BFREAD.(N1,N2,A(14)...14,EOF1,EOFCT,ERR1)                                       *062 LM00087
                  WHENEVER (A(14) .E. TAG) .OR. (A(14) .E. $      $), TRANSFER TO READ1           *063 LM00088
                  BFOPEN.($R$,A(14),QBSS,BUFF2(BL),-0,-0,ERR2)                                    *064 LM00089
                                                                                                       LM00090
                    READ NEXT BSS FILE CARD                                                            LM00091
                                                                                                       LM00092
      READ2       BFREAD.(A(14),QBSS,PROG(28)...28,EOF2,EOFCT,ERR2)                               *065 LM00093
      R2          WHENEVER (PROG(28) .A. MASK1) .E. 4005K8                                        *066 LM00094
                    NW = (PROG(28) .A. MASK2) .RS. 18                                             *067 LM00095
                    K = 26                                                                        *068 LM00096
                    WHENEVER PROGSW .E. 1, TRANSFER TO LTOP1                                      *069 LM00097
                    NW = NW-2                                                                     *070 LM00098
                    K = K-2                                                                       *071 LM00099
                    PROGSW = 1                                                                    *072 LM00100
                    LPOINT = LPOINT + PL                                                          *073 LM00101
                  TEMP = (PROG(25) .A. 4K11) .RS. 3                                               *074 LM00102
                  WHENEVER TEMP .NE. 0, LPOINT = 2*((LPOINT+1)/2)                                 *075 LM00103
                                                                                                       LM00104
                    STORE PROGRAM INFORMATION                                                          LM00105
                                                                                                       LM00106
                    PL = PROG(26).A.MASK3                                                         *076 LM00107
                    TVL = PROG(26) .RS. 18                                                        *077 LM00108
                    EPARAY(JE,3) = PROG(25) .A. 377777777777K                                     *078 LM00109
                  WHENEVER (EPARAY(JE,3).NE.0).AND.(EPARAY(JE,3).L.LCOM),                         *079 LM00110
                1 LCOM = EPARAY(JE,3)                                                             *079 LM00111
                    EPARAY(JE,0) = A(14)                                                          *080 LM00112
                    EPARAY(JE,1) = OCABC.(LPOINT)                                                 *081 LM00113
                    EPARAY(JE,2) = PL                                                             *082 LM00114
                    EPARAY(JE,4) = TAG                                                            *083 LM00115
                    JE =JE+1                                                                      *084 LM00116
      LTOP1         THROUGH LOOP1, FOR ICNT = NW,-2,ICNT.LE.0                                     *085 LM00117
                      EPARAY(JE,0) = PROG(K)                                                      *086 LM00118
                      EPARAY(JE,1) = OCABC.(.ABS.(PROG(K-1)) + LPOINT)                            *087 LM00119
                    EPARAY(JE,2) = 3                                                              *088 LM00120
                      K = K-2                                                                     *089 LM00121
      LOOP1           JE = JE + 1                                                                 *090 LM00122
                    TRANSFER TO READ2                                                             *091 LM00123
                    END OF CONDITIONAL                                                            *092 LM00124
                                                                                                       LM00125
                    STORE TRANSFER VECTOR                                                              LM00126
                                                                                                       LM00127
                  WHENEVER TVSW .E. 1, TRANSFER TO LTOP2                                          *093 LM00128
                  TVSW =1                                                                         *094 LM00129
                  JT = (JT/50 + 1) * 50                                                           *095 LM00130
                  TVARAY(JT) = A(14)                                                              *096 LM00131
                  JT = JT + 1                                                                     *097 LM00132
      LTOP2       K = 24                                                                          *098 LM00133
                  IC = 20                                                                         *099 LM00134
                  WHENEVER TVL.L.20, IC = TVL                                                     *100 LM00135
                  THROUGH LOOP2, FOR ICNT = IC, -1, ICNT .E. 0                                    *101 LM00136
                    TVARAY(JT) = PROG(K)                                                          *102 LM00137
                    K = K - 1                                                                     *103 LM00138
      LOOP2         JT = JT + 1                                                                   *104 LM00139
                  WHENEVER TVL .G. 20                                                             *105 LM00140
                    TVL = TVL - 20                                                                *106 LM00141
                    TRANSFER TO READ2                                                             *107 LM00142
                  OTHERWISE                                                                       *108 LM00143
                    TVARAY(JT) = FENCE                                                            *109 LM00144
                    TVSW = 0                                                                      *110 LM00145
                  END OF CONDITIONAL                                                              *111 LM00146
                  PROGSW = 0                                                                      *112 LM00147
                  WHENEVER ICOMB .E. 0                                                            *113 LM00148
                    BFCLOS.(A(14),QBSS,READ1)                                                     *114 LM00149
                    TRANSFER TO READ1                                                             *115 LM00150
                  END OF CONDITIONAL                                                              *116 LM00151
                                                                                                       LM00152
                    IF THIS IS A COMBINED FILE, SEARCH FOR REMAINING P.C.                              LM00153
                                                                                                       LM00154
      SKIP        BFREAD.(A(14),QBSS,PROG(28)...28,EOF3,EOFCT,ERR3)                               *117 LM00155
                  WHENEVER PROG(28) .A. MASK1 .E. 4005K8, TRANSFER TO R2                          *118 LM00156
                  TRANSFER TO SKIP                                                                *119 LM00157
      EOF3        BFCLOS.(A(14),QBSS,READ1)                                                       *120 LM00158
                  TRANSFER TO READ1                                                               *121 LM00159
                                                                                                       LM00160
                    ENTIRE CTSSLD HAS BEEN READ AND ALL PROGRAM                                        LM00161
                    INFORMATION STORED                                                                 LM00162
                                                                                                       LM00163
      EOF1        BFCLOS.(N1,N2,EOF1A)                                                            *122 LM00164
      EOF1A       HCORE = LPOINT + PL                                                             *123 LM00165
                  JESAVE = JE                                                                     *124 LM00166
                  WHENEVER JT .L. 0                                                               *125 LM00167
                    TVARAY(1) = FENCE                                                             *126 LM00168
                    TVARAY(2) = FENCE                                                             *127 LM00169
                    TRANSFER TO PART2                                                             *128 LM00170
                  END OF CONDITIONAL                                                              *129 LM00171
                  TVARAY(JT+1) = FENCE                                                            *130 LM00172
                  JT = - 50                                                                       *131 LM00173
                  TRANSFER TO PART2                                                               *132 LM00174
                                                                                                       LM00175
                    I/O ERROR RETURNS                                                                  LM00176
                                                                                                       LM00177
      EOF2        PRNTP.(MESS1)                                                                   *133 LM00178
                  TRANSFER TO ER2A                                                                *134 LM00179
      ERR1        PRNTER.                                                                         *135 LM00180
                  BFCLOS.($ALL$,-0,ERRX)                                                          *136 LM00181
      ERRX        CHNCOM.(0)                                                                      *137 LM00182
      ERR2        PRNTER.                                                                         *138 LM00183
      ER2A        BFCLOS.(A(14),QBSS,ER2B)                                                        *139 LM00184
      ER2B        MFARAY = MFARAY + 1                                                             *140 LM00185
                  MFARAY(MFARAY) = A(14)                                                          *141 LM00186
                  TRANSFER TO READ1                                                               *142 LM00187
      ERR3        PRNTER.                                                                         *143 LM00188
                  BFCLOS. (A(14),QBSS,READ1)                                                      *144 LM00189
                  TRANSFER TO READ1                                                               *145 LM00190
                                                                                                       LM00191
                    CHECK T.V. AGAINST ENTRY POINTS                                                    LM00192
                    IF ENTRY POINT FOUND, STORE CALLING FILE NAME                                      LM00193
                    IF ENTRY POINT NOT FOUND, STORE TRANSFER NAME                                      LM00194
                    IN MISSING ENTRY POINT ARRAY (MEARAY)                                              LM00195
                                                                                                       LM00196
      PART2       JT = (JT/50 + 1)*50                                                             *146 LM00197
                  MODNAM = TVARAY(JT)                                                             *147 LM00198
      MNAM        JT = JT +1                                                                      *148 LM00199
                  WHENEVER TVARAY(JT) .NE. FENCE, TRANSFER TO LTOP3                               *149 LM00200
                  WHENEVER TVARAY(JT+1) .E. FENCE, TRANSFER TO DUPCK                              *150 LM00201
                  TRANSFER TO PART2                                                               *151 LM00202
      LTOP3       THROUGH LOOP3, FOR JE=1,1, JE.GE.JESAVE                                         *152 LM00203
                    WHENEVER EPARAY(JE,4) .E. TAG                                                 *153 LM00204
                      FILEN = EPARAY(JE,0)                                                        *154 LM00205
                      TRANSFER TO LOOP3                                                           *155 LM00206
                    END OF CONDITIONAL                                                            *156 LM00207
                    WHENEVER TVARAY(JT) .NE. EPARAY(JE,0), TRANSFER TO LOOP3                      *157 LM00208
                    TV1(JT,0) = FILEN                                                             *158 LM00209
                    TV1(JT,1) = EPARAY(JE,1)                                                      *159 LM00210
                    WHENEVER EPARAY(JE,2) .G. 14, TRANSFER TO MNAM                                *160 LM00211
                    EPARAY(JE,EPARAY(JE,2)) = MODNAM                                              *161 LM00212
                    EPARAY(JE,2) = EPARAY(JE,2) + 1                                               *162 LM00213
                    TRANSFER TO MNAM                                                              *163 LM00214
      LOOP3       CONTINUE                                                                        *164 LM00215
                  MEARAY = MEARAY + 1                                                             *165 LM00216
                  MEARAY(MEARAY) = TVARAY(JT)                                                     *166 LM00217
                  TV1(JT,0) = BLANK                                                               *167 LM00218
                  TV1(JT,1) = BLANK                                                               *168 LM00219
                  TRANSFER TO MNAM                                                                *169 LM00220
                                                                                                       LM00221
                    CHECK FOR DUPLICATED ENTRY POINTS                                                  LM00222
                                                                                                       LM00223
      DUPCK       THROUGH LOOP5, FOR JE1 = 1,1,JE1.GE.JESAVE                                      *170 LM00224
                    WHENEVER EPARAY(JE1,4) .E. TAG, TRANSFER TO LOOP5                             *171 LM00225
                    THROUGH LOOP4, FOR JE=JE1+1,1,JE.E.JESAVE                                     *172 LM00226
                      WHENEVER EPARAY(JE,4) .E. TAG, TRANSFER TO LOOP4                            *173 LM00227
                      WHENEVER EPARAY(JE1,0) .NE. EPARAY(JE,0), TRANSFER TO LOOP4                 *174 LM00228
                      MULT = MULT + 1                                                             *175 LM00229
                      MULT(MULT) = EPARAY(JE,0)                                                   *176 LM00230
                      TRANSFER TO LOOP5                                                           *177 LM00231
      LOOP4         CONTINUE                                                                      *178 LM00232
      LOOP5       CONTINUE                                                                        *179 LM00233
                                                                                                       LM00234
                    WRITE FILE FOR OUTPUT                                                              LM00235
                                                                                                       LM00236
                  EXECUTE DELETE.(FILNAM)                                                         *180 LM00237
                  BFOPEN.($W$,N1,NA2,BUFF1(BL),BUFF2(BL),BUFF3(BL),ERR4)                          *181 LM00238
                  TITLE(8) = N1                                                                   *182 LM00239
                  GETTM.(TITLE(11),TITLE(13))                                                     *183 LM00240
                  TITLE(5)=(N1.A.777777000000K).V.000000575757K                                   *184 LM00241
                  WHOAMI.(TITLE(16)...2)                                                          *185 LM00242
                  LINE(LC-15) = TITLE(16)                                                         *186 LM00243
                  LINE(LC-16) = TITLE(15)                                                         *187 LM00244
                  THROUGH LOOP6, FOR IC = 0,1,IC .G. 14                                           *188 LM00245
      LOOP6       LINE(LC-IC) = TITLE(IC)                                                         *189 LM00246
                  BFWRIT.(N1,NA2,LINE(LC)...17,ERR4)                                              *190 LM00247
                  WHENEVER ILIST .E. 1 .OR. JESAVE .L. 1, TRANSFER TO SUMERY                      *191 LM00248
                  THROUGH LOOP7, FOR IC = 0,1,IC .G. 11                                           *192 LM00249
      LOOP7       LINE(LC-IC) = HEAD(IC)                                                          *193 LM00250
                  BFWRIT.(N1,NA2,LINE(LC)...12, ERR4)                                             *194 LM00251
                  JT = -50                                                                        *195 LM00252
                  JE = 0                                                                          *196 LM00253
                                                                                                       LM00254
                    PRINT FILE LINE                                                                    LM00255
                                                                                                       LM00256
      LTOP8       BFWRIT.(N1,NA2,BLANK3(3)...4,ERR4)                                              *197 LM00257
                  LINE(LC) = 777777000007K                                                        *198 LM00258
                  LINE(LC-1) = BLANK                                                              *199 LM00259
                  LINE(LC-2) = $FILE  $                                                           *200 LM00260
                  LINE(LC-3) = EPARAY(JE,0)                                                       *201 LM00261
                  LINE(LC-4) = BLANK                                                              *202 LM00262
                  LINE(LC-5) = (EPARAY(JE,1))                                                     *203 LM00263
                  LINE(LC-6) = OCABC.(EPARAY(JE,2))                                               *204 LM00264
                  LINE(LC-7) = OCABC.(EPARAY(JE,3))                                               *205 LM00265
                  BFWRIT.(N1,NA2,LINE(LC)...8,ERR4)                                               *206 LM00266
                                                                                                       LM00267
                    PRINT EACH TRANSFER VECTOR                                                         LM00268
                                                                                                       LM00269
                  LINE(LC) = 777777000011K                                                        *207 LM00270
                  LINE(LC-1) = BLANK                                                              *208 LM00271
                  LINE(LC-2) = BLANK                                                              *209 LM00272
                  LINE(LC-3) = BLANK                                                              *210 LM00273
                  LINE(LC-5) = BLANK                                                              *211 LM00274
                  LINE(LC-6) = BLANK                                                              *212 LM00275
                  LINE(LC-7) = BLANK                                                              *213 LM00276
                  JT = (JT/50+1)*50 + 1                                                           *214 LM00277
      LTOP9       WHENEVER TVARAY(JT) .E. FENCE, TRANSFER TO TOP10                                *215 LM00278
                  LINE(LC-4) = TVARAY(JT)                                                         *216 LM00279
                  LINE(LC-8) = TV1(JT,0)                                                          *217 LM00280
                  LINE(LC-9) = TV1(JT,1)                                                          *218 LM00281
                  BFWRIT.(N1,NA2,LINE(LC)...10,ERR4)                                              *219 LM00282
                  JT = JT + 1                                                                     *220 LM00283
                  TRANSFER TO LTOP9                                                               *221 LM00284
      TOP10       LINE(LC-4) = BLANK                                                              *222 LM00285
                  LINE(LC-6) = BLANK                                                              *223 LM00286
                  LINE(LC-7) = BLANK                                                              *224 LM00287
      LTOP10      JE = JE + 1                                                                     *225 LM00288
                                                                                                       LM00289
                    PRINT EACH ENTRY POINT NAME, LOAD POINT                                            LM00290
                    AND CALLERS                                                                        LM00291
                                                                                                       LM00292
                  WHENEVER JE .GE. JESAVE, TRANSFER TO SUMERY                                     *226 LM00293
                  WHENEVER EPARAY(JE,4) .E. TAG, TRANSFER TO LTOP8                                *227 LM00294
                  NLC= (2*(EPARAY(JE,2)-3)+7)                                                     *228 LM00295
                  LINE(LC)= (NLC-1).V.777777K6                                                    *229 LM00296
                  LINE(LC-3) = EPARAY(JE,0)                                                       *230 LM00297
                  LINE(LC-5) = (EPARAY(JE,1))                                                     *231 LM00298
                  LINE(LC-7) = BLANK                                                              *232 LM00299
                  LCNT = LC - 8                                                                   *233 LM00300
                  THROUGH LOOP11, FOR IC = 3,1,IC .E. EPARAY(JE,2)                                *234 LM00301
                    LINE(LCNT) = EPARAY(JE,IC)                                                    *235 LM00302
                    LINE(LCNT-1) = 735757575757K                                                  *236 LM00303
      LOOP11      LCNT = LCNT-2                                                                   *237 LM00304
                  BFWRIT.(N1,NA2,LINE(LC)...NLC,ERR4)                                             *238 LM00305
                  TRANSFER TO LTOP10                                                              *239 LM00306
                                                                                                       LM00307
                    PRINT PRELOD SUMMARY                                                               LM00308
                                                                                                       LM00309
      SUMERY      SUM1(18) = OCABC.(HCORE)                                                        *240 LM00310
                  SUM1(11) = OCABC.(LCOM)                                                         *241 LM00311
                  SUM1(25) = BZEL.(DERBC.(LCOM-HCORE))                                            *242 LM00312
                  WHENEVER HCORE.G.LCOM, SUM1(25) =SUM1(25).A.MASK4                               *243 LM00313
                  HPC(5) = SUM1(18)                                                               *244 LM00314
                  LCM(5) = SUM1(11)                                                               *245 LM00315
                  DIFC(5) = SUM1(25)                                                              *246 LM00316
                  WHENEVER HCORE .L. LCOM .AND. (MEARAY+MFARAY) .E. 0                             *247 LM00317
                                                                                                       LM00318
                    SUCCESSFUL PRELOD                                                                  LM00319
                                                                                                       LM00320
                    THROUGH LOOP13, FOR IC = 0,1,IC .G. 27                                        *248 LM00321
      LOOP13        LINE(LC-IC) = SUM1(IC)                                                        *249 LM00322
                    BFWRIT.(N1,NA2,LINE(LC)...28,ERR4)                                            *250 LM00323
                    PRINT COMMENT $SYSTEM PRELOAD SUCCESSFUL$                                     *251 LM00324
                  PRNTP.(LCM)                                                                     *252 LM00325
                  PRNTP.(HPC)                                                                     *253 LM00326
                  PRNTP.(DIFC)                                                                    *254 LM00327
                    TRANSFER TO MUCK                                                              *255 LM00328
                  END OF CONDITIONAL                                                              *256 LM00329
                    UNSUCCESSFUL PRELOD                                                                LM00330
                                                                                                       LM00331
                  SUM1(3) = SUM1A                                                                 *257 LM00332
                  THROUGH LOOP14, FOR IC = 0,1,IC .G. 27                                          *258 LM00333
      LOOP14      LINE(LC-IC) = SUM1(IC)                                                          *259 LM00334
                  BFWRIT.(N1,NA2,LINE(LC)...28, ERR4)                                             *260 LM00335
                  PRINT COMMENT $SYSTEM PRELOAD UNSUCCESSFUL$                                     *261 LM00336
                  PRNTP.(LCM)                                                                     *262 LM00337
                  PRNTP.(HPC)                                                                     *263 LM00338
                  PRNTP.(DIFC)                                                                    *264 LM00339
                  WHENEVER MFARAY .E. 0, TRANSFER TO MECK                                         *265 LM00340
                                                                                                       LM00341
                    PRINT MISSING FILES                                                                LM00342
                                                                                                       LM00343
                  THROUGH LOOP15, FOR IC = 0,1,IC .G. 4                                           *266 LM00344
      LOOP15      LINE(LC-IC) = SUM2(IC)                                                          *267 LM00345
                  BFWRIT.(N1,NA2,LINE(LC)...5,ERR4)                                               *268 LM00346
                  PRINT COMMENT $MISSING FILES ARE$                                               *269 LM00347
                  LINE(LC) = 777777000003K                                                        *270 LM00348
                  LINE(LC-2) = BLANK                                                              *271 LM00349
                  THROUGH LOOP16, FOR IC = 1,1,IC .G. MFARAY                                      *272 LM00350
                  LINE(LC-3) = MFARAY(IC)                                                         *273 LM00351
                  NASTY(0) = MFARAY(IC)                                                           *274 LM00352
                  PRNTP.(NASTY)                                                                   *275 LM00353
      LOOP16      BFWRIT.(N1,NA2,LINE(LC)...4,ERR4)                                               *276 LM00354
      MECK        WHENEVER MEARAY .E. 0, TRANSFER TO MUCK                                         *277 LM00355
                                                                                                       LM00356
                    PRINT MISSING ENTRY POINTS                                                         LM00357
                                                                                                       LM00358
                  THROUGH LOOP17, FOR IC = 0,1,IC .G. 5                                           *278 LM00359
      LOOP17      LINE(LC-IC) = SUM3(IC)                                                          *279 LM00360
                  BFWRIT.(N1,NA2,LINE(LC)...6,ERR4)                                               *280 LM00361
                  PRINT COMMENT $MISSING ENTRY POINTS ARE$                                        *281 LM00362
                  LINE(LC) = 777777000003K                                                        *282 LM00363
                  LINE(LC-2) = BLANK                                                              *283 LM00364
                  THROUGH LOOP18, FOR IC = 1,1,IC .G. MEARAY                                      *284 LM00365
                  LINE(LC-3) = MEARAY(IC)                                                         *285 LM00366
                  NASTY(0) = MEARAY(IC)                                                           *286 LM00367
                  PRNTP.(NASTY)                                                                   *287 LM00368
      LOOP18      BFWRIT. (N1,NA2,LINE(LC)...4,ERR4)                                              *288 LM00369
      MUCK        WHENEVER MULT .E. 0, TRANSFER TO END                                            *289 LM00370
                                                                                                       LM00371
                    PRINT DUPLICATED ENTRY POINTS                                                      LM00372
                                                                                                       LM00373
                  THROUGH LOOP19, FOR IC = 0,1,IC .G. 6                                           *290 LM00374
      LOOP19      LINE(LC-IC) = SUM4(IC)                                                          *291 LM00375
                  BFWRIT.(N1,NA2,LINE(LC)...7,ERR4)                                               *292 LM00376
                  PRINT COMMENT $DUPLICATED ENTRY POINTS ARE$                                     *293 LM00377
                  LINE(LC) = 777777000003K                                                        *294 LM00378
                  LINE (LC-2) = BLANK                                                             *295 LM00379
                  THROUGH LOOP20, FOR IC = 1,1,IC .G. MULT                                        *296 LM00380
                  LINE(LC-3) = MULT(IC)                                                           *297 LM00381
                  NASTY(0) = MULT(IC)                                                             *298 LM00382
                  PRNTP.(NASTY)                                                                   *299 LM00383
      LOOP20      BFWRIT.(N1,NA2,LINE(LC)...4,ERR4)                                               *300 LM00384
                  TRANSFER TO END                                                                 *301 LM00385
      ERR4        PRNTER.                                                                         *302 LM00386
      END         BFCLOS.(N1,NA2,END2)                                                            *303 LM00387
      END2        CHNCOM.(0)                                                                      *304 LM00388
                  END OF PROGRAM                                                                  *305 LM00389
1MAD PROGRAM,TYPE NOV 1963      (ALL NUMBERS ARE OCTAL)
0TOTAL LOCATIONS   54012 TRANSFER VECTOR LENGTH  00024 PROGRAM BEGINS    51232
0VARIABLE STORAGE (A=ARRAY,C=COMMON,E=ERASABLE,DIGIT=MODE)
      A      00110 A 1        ERR3   00043   4        LOOP11 00024   4        MASK1  25477 A 1        QBSS   27401 A 1
      BLANK3 00114 A 1        ERR4   00044   4        LOOP13 00024   4        MASK2  25500 A 1        QCOMB  27402 A 1
      BLANK  00115 A 1        ERRX   00045   4        LOOP14 00024   4        MASK3  25501 A 1        R2     00063   4
      BL     00116 A 1        FENCE  25363 A 1        LOOP15 00024   4        MASK4  25502 A 1        READ1  00064   4
      BUFF1  00777 A 1        FILEN  25364   1        LOOP16 00024   4        MEARAY 26633 A 1        READ2  00065   4
      BUFF2  01660 A 1        FILNAM 00027 A 1        LOOP17 00024   4        MECK   00057   4        SKIP   00066   4
      BUFF3  02541 A 1        HCORE  25365   1        LOOP18 00024   4        MESS1  26643 A 1        START  00067   4
      DIFC   02552 A 1        HEAD   25401 A 1        LOOP19 00024   4        MESS2  26655 A 1        SUM1A  27403 A 1
      DIM    02555 A 1        HPC    25410 A 1        LOOP1  00024   4        MFARAY 27022 A 1        SUM1   27437 A 1
      DTV    02560 A 1        ICNT   25411   1        LOOP20 00024   4        MNAM   00060   4        SUM2   27444 A 1
      DUPCK  00030   4        ICOMB  25412 A 1        LOOP2  00024   4        MODNAM 27023   1        SUM3   27452 A 1
      END2   00031   4        IC     25413   1        LOOP3  00046   4        MUCK   00061   4        SUM4   27461 A 1
      END    00032   4        ILIST  25414 A 1        LOOP4  00047   4        MULT   27334 A 1        SUMERY 00070   4
      EOF1A  00033   4        JE1    25415   1        LOOP5  00050   4        N1     00027   1        TAG    27462 A 1
      EOF1   00034   4        JE     25416 A 1        LOOP6  00024   4        N2     27335 A 1        TEMP   27463   1
      EOF2   00035   4        JESAVE 25417   1        LOOP7  00024   4        NA2    00026 A 1        TITLE  27504 A 1
      EOF3   00036   4        JT     25420 A 1        LPOINT 25476 A 1        NASTY  27337 A 1        TOP10  00071   4
      EOFCT  02561   1        K      25421   1        LTOP10 00051   4        NLC    27340   1        TV1    43265 A 1
      EPARAY 25362 A 1        LCM    25430 A 1        LTOP1  00052   4        NW     27341   1        TVARAY 51156 A 1
      ER2A   00037   4        LCNT   25431   1        LTOP2  00053   4        PART2  00062   4        TVL    51157   1
      ER2B   00040   4        LCOM   25432 A 1        LTOP3  00054   4        PL     27342 A 1        TVSW   51160 A 1
      ERR1   00041   4        LC     25433 A 1        LTOP8  00055   4        PROG   27377 A 1        ZERO   51161 A 1
      ERR2   00042   4        LINE   25475 A 1        LTOP9  00056   4        PROGSW 27400 A 1
0FUNCTION DICTIONARY
      .03310 00000   0        .03311 00001   0        BFCLOS 00002   1        BFOPEN 00003   1        BFREAD 00004   1
      BFWRIT 00005   1        BZEL   00006   1        CHNCOM 00007   1        COMARG 00010   1        DELETE 00011   1
      DERBC  00012   1        EXIT   00013   1        FERRTN 00014   1        GETTM  00015   1        .PCOMT 00016   1
      .SETUP 00017   1        OCABC  00020   1        PRNTER 00021   1        PRNTP  00022   1        WHOAMI 00023   1
0ABSOLUTE CONSTANTS
 51227 -377777000003     51207 +000000000033     51225 -335757575757     51174 +000000000012     51173 +000000000011
 51231 -377777000011     51172 +000000000010     51171 +000000000007     51170 +000000000006     51167 +000000000005
 51215 +263143256060     51230 -377777000007     51176 +000000000014     51175 +000000000013     51202 +000000000021
 51201 +000000000020     51200 +000000000017     51212 +000000575757     51226 -377777000000     51224 -266060606060
 51213 +214343606060     51204 +000000000024     51205 +000000000030     51211 +000000000062     51166 +000000000004
 51216 +377777777777     51217 -000000000000     51206 +000000000032     51203 +000000000022     51220 -000500000000
 51210 +000000000034     51223 -206060606060     51177 +000000000016     51222 -116060606060     51221 -054643316263
 51165 +000000000003     51164 +000000000002     51162 +000000000000     51163 +000000000001     51214 +233000000000
0STATEMENT DICTIONARY
 00030 TXL -352336052324       00031 TXL -354005054003       00032 TXL -354003053777       00033 TXL -352020052015
 00034 TXL -352015052011       00035 TXL -352045052043       00036 TXL -352010052004       00037 TXL -352064052060
 00040 TXL -352067052064       00041 TXL -352047052046       00042 TXL -352060052057       00043 TXL -352074052073
 00044 TXL -353777053776       00045 TXL -352057052055       00046 TXL -352276052275       00047 TXL -352426052425
 00050 TXL -352427052426       00051 TXL -353102053077       00052 TXL -351602051570       00053 TXL -351701051677
 00054 TXL -352147052135       00055 TXL -352607052602       00056 TXL -353007053002       00057 TXL -353554053550
 00060 TXL -352120052115       00061 TXL -353666053662       00062 TXL -352112052101       00063 TXL -351402051374
 00064 TXL -351336051327       00065 TXL -351374051365       00066 TXL -351774051765       00067 TXL -351327051307
 00070 TXL -353255053252       00071 TXL -353065053060
0PROGRAM
                 NORMAL MODE IS INTEGER                                             001  LM00011
                 DIMENSION BUFF1(432),BUFF2(432),A(14),PROG(28),TVARAY(3000)        002  LM00012
                 DIMENSION EPARAY(9600,DIM),MFARAY(100),MEARAY(600),MULT(200)       003  LM00013
                 DIMENSION LINE(33),FILNAM(2),BUFF3(432),TV1(6000,DTV)              004  LM00014
                 EQUIVALENCE (FILNAM(0),N1),(FILNAM(1),NA2)                         005  LM00015
                 V'S BL = 432                                                       006  LM00016
 51232 TSX +0 07400 4 00017    00116     +0 00000 0 00660
                 V'S BLANK3 = $                  $,777777000003K                    007  LM00017
 00111     -3 77777 0 00003    00112     -2 06060 6 06060    00113     -2 06060 6 06060    00114     -2 06060 6 06060
                 V'S DIFC=$TOTAL LOCATIONS NOT USED      $,0,$ DECIMAL$,            008  LM00018
                1777777777777K                                                      008  LM00019
 02542     -3 77777 7 77777    02543     +2 14360 6 06060    02544     -2 02425 2 33144    02545     +0 00000 0 00000
 02546     -2 06060 6 06060    02547     -2 36064 6 22524    02550     -0 64562 6 04546    02551     -0 34623 2 16331
 02552     -2 34663 2 14360
                 V'S DIM = 2,17,16                                                  009  LM00020
 02553     +0 00000 0 00020    02554     +0 00000 0 00021    02555     +0 00000 0 00002
                 V'S DTV = 2,3,2                                                    010  LM00021
 02556     +0 00000 0 00002    02557     +0 00000 0 00003    02560     +0 00000 0 00002
                 V'S FENCE = 777777777777K                                          011  LM00022
 25363     -3 77777 7 77777
                 V'S HEAD = 777777000013K,$0            NAME  T.V. ORGIN LENTH      012  LM00023
                1 COMMON      CROSS REFERENCE$                                      012  LM00024
 25366     -0 52325 6 06060    25367     -1 12526 2 55125    25370     +2 35146 6 26260    25371     -2 06060 6 06060
 25372     +2 34644 4 44645    25373     -0 32545 6 33060    25374     -0 65127 3 14560    25375     -2 06333 6 53360
 25376     -2 04521 4 42560    25377     -2 06060 6 06060    25400     +0 06060 6 06060    25401     -3 77777 0 00013
                 V'S HPC = $HIGHEST PROGRAM LOCATION      $,0,777777777777K         013  LM00025
 25402     -3 77777 7 77777    25403     +0 00000 0 00000    25404     -2 06060 6 06060    25405     +2 32163 3 14645
 25406     -1 12144 6 04346    25407     -2 36047 5 14627    25410     +3 03127 3 02562
                 V'S ICOMB = 0                                                      014  LM00026
 25412     +0 00000 0 00000
                 V'S ILIST = 0                                                      015  LM00027
 25414     +0 00000 0 00000
                 V'S JE = 0                                                         016  LM00028
 25416     +0 00000 0 00000
                 V'S JT = -50                                                       017  LM00029
 25420     -0 00000 0 00062
                 V'S LCOM = 77777K                                                  018  LM00030
 25432     +0 00000 0 77777
                 V'S LCM = $LOWEST COMMON LOCATION        $,0,777777777777K         019  LM00031
 25422     -3 77777 7 77777    25423     +0 00000 0 00000    25424     -2 06060 6 06060    25425     -2 33146 4 56060
 25426     -0 56043 4 62321    25427     -2 02346 4 44446    25430     -0 34666 2 56263
                 V'S LC = 33                                                        020  LM00032
 25433     +0 00000 0 00041
                 V'S LPOINT = 62K                                                   021  LM00033
 25476     +0 00000 0 00062
                 V'S MASK1 = 7777K8                                                 022  LM00034
 25477     -3 77700 0 00000
                 V'S MASK2 = 000077000000K                                          023  LM00035
 25500     +0 00077 0 00000
                 V'S MASK3 = 000000777777K                                          024  LM00036
 25501     +0 00000 7 77777
                 V'S MASK4 = 577777777777K                                          025  LM00037
 25502     -1 77777 7 77777
                 V'S MEARAY(0) = 0                                                  026  LM00038
 26633     +0 00000 0 00000
                 V'S MESS1 = $EOF IN PROGRAM CARD INFORMATION, FILE SKIPPED$        027  LM00039
 26634     -0 72524 6 06060    26635     +2 56062 4 23147    26636     -0 57360 2 63143    26637     -1 14421 6 33146
 26640     +2 46031 4 52646    26641     +2 14460 2 32151    26642     -2 04751 4 62751    26643     +2 54626 6 03145
                 V'S MESS2 = $COMMAND FORM IS 'PRELOD NAME1 -'NOLIST'- -'COMB'      028  LM00040
                1-'$,777777777777K                                                  028  LM00041
 26644     -3 77777 7 77777    26645     -0 01460 6 06060    26646     +1 42346 4 42214    26647     -2 26314 4 06040
 26650     -0 01445 4 64331    26651     -0 52144 2 50160    26652     -1 12543 4 62460    26653     -2 03162 6 01447
 26654     +2 46026 4 65144    26655     +2 34644 4 42145
                 V'S MFARAY(0) = 0                                                  029  LM00042
 27022     +0 00000 0 00000
                 V'S MULT(0) = 0                                                    030  LM00043
 27334     +0 00000 0 00000
                 V'S NASTY = 0,777777777777K                                        031  LM00044
 27336     -3 77777 7 77777    27337     +0 00000 0 00000
                 V'S NA2 = $STOMAP$                                                 032  LM00045
 00026     -2 26346 4 42147
                 V'S N2 = $CTSSLD$                                                  033  LM00046
 27335     +2 36362 6 24324
                 V'S QBSS = $   BSS$                                                034  LM00047
 27401     -2 06060 2 26262
                 V'S QCOMB = $  COMB$                                               035  LM00048
 27402     -2 06023 4 64422
                 V'S PROGSW = 0                                                     036  LM00049
 27400     +0 00000 0 00000
                 V'S SUM1 = 777777000004K,$0   PRELOAD   SUCCESSFUL$,               037  LM00050
                2777777000006K,$      LOWEST COMMON LOCATION  $,0,                  037  LM00051
                3777777000006K,$      HIGHEST PROGRAM LOCATION$,0,                  037  LM00052
                4777777000010K,$      TOTAL NOT USED          $,0,$ DECIMAL$        037  LM00053
 27404     +2 14360 6 06060    27405     -2 02425 2 33144    27406     +0 00000 0 00000    27407     -2 06060 6 06060
 27410     +2 52460 6 06060    27411     -0 54663 6 06462    27412     -2 34663 2 14360    27413     -2 06060 6 06060
 27414     -3 77777 0 00010    27415     +0 00000 0 00000    27416     +2 32163 3 14645    27417     -1 12144 6 04346
 27420     -2 36047 5 14627    27421     +3 03127 3 02562    27422     -2 06060 6 06060    27423     -3 77777 0 00006
 27424     +0 00000 0 00000    27425     -2 33146 4 56060    27426     -0 56043 4 62321    27427     -2 02346 4 44446
 27430     -0 34666 2 56263    27431     -2 06060 6 06060    27432     -3 77777 0 00006    27433     +2 56262 2 66443
 27434     -2 06062 6 42323    27435     +2 54346 2 12460    27436     +0 06060 6 04751    27437     -3 77777 0 00004
                 V'S SUM1A = $UNSUCC$                                               038  LM00054
 27403     -2 44562 6 42323
                 V'S SUM2 = 777777000004K,$      MISSING FILES ARE$                 039  LM00055
 27440     -2 26021 5 12560    27441     +2 76026 3 14325    27442     -0 43162 6 23145    27443     -2 06060 6 06060
 27444     -3 77777 0 00004
                 V'S SUM3 = 777777000005K,$      MISSING ENTRY POINTS ARE$          040  LM00056
 27445     -2 36260 2 15125    27446     -3 06047 4 63145    27447     +2 76025 4 56351    27450     -0 43162 6 23145
 27451     -2 06060 6 06060    27452     -3 77777 0 00005
                 V'S SUM4 = 777777000006K,$      DUPLICATED ENTRY POINTS ARE$       041  LM00057
 27453     +2 15125 6 06060    27454     -0 63145 6 36260    27455     -0 56351 7 06047    27456     +2 16325 2 46025
 27457     +2 46447 4 33123    27460     -2 06060 6 06060    27461     -3 77777 0 00006
                 V'S TITLE = 777777000020K,$   STOMAP FOR PRELOD OF $               042  LM00058
                1 ,0,$ SYSTEM $,0,$            $,0,$      $,0,$      $,0,0          042  LM00059
 27464     +0 00000 0 00000    27465     +0 00000 0 00000    27466     -2 06060 6 06060    27467     +0 00000 0 00000
 27470     -2 06060 6 06060    27471     +0 00000 0 00000    27472     -2 06060 6 06060    27473     -2 06060 6 06060
 27474     +0 00000 0 00000    27475     -0 46060 6 06060    27476     -2 06270 6 26325    27477     +0 00000 0 00000
 27500     -0 62460 4 62660    27501     -1 16047 5 12543    27502     -0 42147 6 02646    27503     -2 06060 6 26346
 27504     -3 77777 0 00020
                 V'S TVSW = 0                                                       043  LM00060
 51160     +0 00000 0 00000
                 V'S PL = 0                                                         044  LM00061
 27342     +0 00000 0 00000
                 V'S TAG = $******$                                                 045  LM00062
 27462     -1 45454 5 45454
                 V'S BLANK = $      $                                               046  LM00063
 00115     -2 06060 6 06060
                 V'S ZERO = 0                                                       047  LM00064
 51161     +0 00000 0 00000
                 FERRTN.(ERR1)                                                      048  LM00065
 51233 TSX +0 07400 4 00014    51234 TXH +3 00000 0 00041
                 FERRTN.(ERR2)                                                      049  LM00066
 51235 TSX +0 07400 4 00014    51236 TXH +3 00000 0 00042
                 FERRTN.(ERR3)                                                      050  LM00067
 51237 TSX +0 07400 4 00014    51240 TXH +3 00000 0 00043
                 FERRTN.(ERR4)                                                      051  LM00068
 51241 TSX +0 07400 4 00014    51242 TXH +3 00000 0 00044
                 W'R COMARG.(1,N1).E.FENCE                                          052  LM00072
 51243 TSX +0 07400 4 00010    51244 TXH +3 00000 0 51163    51245 TXH +3 00000 0 00027    51246 SUB +0 40200 0 25363
 51247 TNZ -0 10000 0 51255
                    PRNTP.(MESS2)                                                   053  LM00073
 51250 TSX +0 07400 4 00022    51251 TXH +3 00000 0 26655
                    CHNCOM.(0)                                                      054  LM00074
 51252 TSX +0 07400 4 00007    51253 TXH +3 00000 0 51162
                 O'R COMARG.(2) .E. FENCE                                           055  LM00075
 51254 TRA +0 02000 0 51275    51255 TSX +0 07400 4 00010    51256 TXH +3 00000 0 51164    51257 SUB +0 40200 0 25363
 51260 TNZ -0 10000 0 51263
                   T'O START                                                        056  LM00076
 51261 TRA +0 02000 0 00067
                 O'R COMARG.(2).E.QCOMB .OR. COMARG.(3) .E. QCOMB                   057  LM00077
 51262 TRA +0 02000 0 51275    51263 TSX +0 07400 4 00010    51264 TXH +3 00000 0 51165    51265 SUB +0 40200 0 27402
 51266 TZE +0 10000 0 51273    51267 TSX +0 07400 4 00010    51270 TXH +3 00000 0 51164    51271 SUB +0 40200 0 27402
 51272 TNZ -0 10000 0 51275
                    ICOMB = 1                                                       058  LM00078
 51273 CLA +0 50000 0 51163    51274 STO +0 60100 0 25412
                 E'L                                                                059  LM00079
                 W'R COMARG.(3) .E. $NOLIST$ .OR. COMARG.(2) .E. $NOLIST$,          060  LM00080
                1 ILIST = 1                                                         060  LM00081
 51275 TSX +0 07400 4 00010    51276 TXH +3 00000 0 51164    51277 SUB +0 40200 0 51221    51300 TZE +0 10000 0 51305
 51301 TSX +0 07400 4 00010    51302 TXH +3 00000 0 51165    51303 SUB +0 40200 0 51221    51304 TNZ -0 10000 0 51307
 51305 CLA +0 50000 0 51163    51306 STO +0 60100 0 25414
      START      BFOPEN.($R$,N1,N2,BUFF1(BL),-0,-0,ERR1)                            061  LM00083
 51307 CLS +0 50200 0 51162    51310 STO +0 60100 0 54006    51311 CLS +0 50200 0 51162    51312 STO +0 60100 0 54007
 51313 CLA +0 50000 0 00116    51314 SUB +0 40200 0 51315    51315 TXH +3 00000 0 00777    51316 STA +0 62100 0 51323
 51317 TSX +0 07400 4 00003    51320 TXH +3 00000 0 51222    51321 TXH +3 00000 0 00027    51322 TXH +3 00000 0 27335
 51323 TXH +3 00000 0 00000    51324 TXH +3 00000 0 54007    51325 TXH +3 00000 0 54006    51326 TXH +3 00000 0 00041
      READ1      BFREAD.(N1,N2,A(14)...14,EOF1,EOFCT,ERR1)                          062  LM00087
 51327 TSX +0 07400 4 00004    51330 TXH +3 00000 0 00027    51331 TXH +3 00000 0 27335    51332 TIX +2 51177 0 00072
 51333 TXH +3 00000 0 00034    51334 TXH +3 00000 0 02561    51335 TXH +3 00000 0 00041
                 W'R (A(14) .E. TAG) .OR. (A(14) .E. $      $), T'O READ1           063  LM00088
 51336 CLA +0 50000 0 00072    51337 SUB +0 40200 0 51223    51340 TZE +0 10000 0 51344    51341 CLA +0 50000 0 00072
 51342 SUB +0 40200 0 27462    51343 TNZ -0 10000 0 51345    51344 TRA +0 02000 0 00064
                 BFOPEN.($R$,A(14),QBSS,BUFF2(BL),-0,-0,ERR2)                       064  LM00089
 51345 CLS +0 50200 0 51162    51346 STO +0 60100 0 54007    51347 CLS +0 50200 0 51162    51350 STO +0 60100 0 54006
 51351 CLA +0 50000 0 00116    51352 SUB +0 40200 0 51353    51353 TXH +3 00000 0 01660    51354 STA +0 62100 0 51361
 51355 TSX +0 07400 4 00003    51356 TXH +3 00000 0 51222    51357 TXH +3 00000 0 00072    51360 TXH +3 00000 0 27401
 51361 TXH +3 00000 0 00000    51362 TXH +3 00000 0 54006    51363 TXH +3 00000 0 54007    51364 TXH +3 00000 0 00042
      READ2      BFREAD.(A(14),QBSS,PROG(28)...28,EOF2,EOFCT,ERR2)                  065  LM00093
 51365 TSX +0 07400 4 00004    51366 TXH +3 00000 0 00072    51367 TXH +3 00000 0 27401    51370 TIX +2 51210 0 27343
 51371 TXH +3 00000 0 00035    51372 TXH +3 00000 0 02561    51373 TXH +3 00000 0 00042
      R2         W'R (PROG(28) .A. MASK1) .E. 4005K8                                066  LM00094
 51374 CAL -0 50000 0 27343    51375 ANA -0 32000 0 25477    51376 SLW +0 60200 0 54007    51377 CLA +0 50000 0 54007
 51400 SUB +0 40200 0 51220    51401 TNZ -0 10000 0 51652
                   NW = (PROG(28) .A. MASK2) .RS. 18                                067  LM00095
 51402 CAL -0 50000 0 27343    51403 ANA -0 32000 0 25500    51404 SLW +0 60200 0 54007    51405 CAL -0 50000 0 51203
 51406 STA +0 62100 0 51410    51407 CAL -0 50000 0 54007    51410 LGR -0 76500 0 00000    51411 SLW +0 60200 0 27341
                   K = 26                                                           068  LM00096
 51412 CLA +0 50000 0 51206    51413 STO +0 60100 0 25421
                   W'R PROGSW .E. 1, T'O LTOP1                                      069  LM00097
 51414 CLA +0 50000 0 27400    51415 SUB +0 40200 0 51163    51416 TNZ -0 10000 0 51420    51417 TRA +0 02000 0 00052
                   NW = NW-2                                                        070  LM00098
 51420 CLA +0 50000 0 27341    51421 SUB +0 40200 0 51164    51422 STO +0 60100 0 27341
                   K = K-2                                                          071  LM00099
 51423 CLA +0 50000 0 25421    51424 SUB +0 40200 0 51164    51425 STO +0 60100 0 25421
                   PROGSW = 1                                                       072  LM00100
 51426 CLA +0 50000 0 51163    51427 STO +0 60100 0 27400
                   LPOINT = LPOINT + PL                                             073  LM00101
 51430 CLA +0 50000 0 25476    51431 ADD +0 40000 0 27342    51432 STO +0 60100 0 25476
                 TEMP = (PROG(25) .A. 4K11) .RS. 3                                  074  LM00102
 51433 CAL -0 50000 0 27346    51434 ANA -0 32000 0 51217    51435 SLW +0 60200 0 54007    51436 CAL -0 50000 0 51165
 51437 STA +0 62100 0 51441    51440 CAL -0 50000 0 54007    51441 LGR -0 76500 0 00000    51442 SLW +0 60200 0 27463
                 W'R TEMP .NE. 0, LPOINT = 2*((LPOINT+1)/2)                         075  LM00103
 51443 CLA +0 50000 0 27463    51444 SUB +0 40200 0 51162    51445 TZE +0 10000 0 51454    51446 CLA +0 50000 0 25476
 51447 ADD +0 40000 0 51163    51450 LRS +0 76500 0 00043    51451 DVP +0 22100 0 51164    51452 MPY +0 20000 0 51164
 51453 STQ -0 60000 0 25476
                   PL = PROG(26).A.MASK3                                            076  LM00107
 51454 CAL -0 50000 0 27345    51455 ANA -0 32000 0 25501    51456 SLW +0 60200 0 27342
                   TVL = PROG(26) .RS. 18                                           077  LM00108
 51457 CAL -0 50000 0 51203    51460 STA +0 62100 0 51462    51461 CAL -0 50000 0 27345    51462 LGR -0 76500 0 00000
 51463 SLW +0 60200 0 51157
                   EPARAY(JE,3) = PROG(25) .A. 377777777777K                        078  LM00109
 51464 CAL -0 50000 0 27346    51465 ANA -0 32000 0 51216    51466 SLW +0 60200 0 54007    51467 LDQ +0 56000 0 51165
 51470 CLA +0 50000 0 25416    51471 TSX +0 07400 4 00001    51472 TXH +3 02555 0 25362    51473 PAX +0 73400 1 00000
 51474 CLA +0 50000 0 54007    51475 STO +0 60100 1 25362
                 W'R (EPARAY(JE,3).NE.0).AND.(EPARAY(JE,3).L.LCOM),                 079  LM00110
                1LCOM = EPARAY(JE,3)                                                079  LM00111
 51476 LDQ +0 56000 0 51165    51477 CLA +0 50000 0 25416    51500 TSX +0 07400 4 00001    51501 TXH +3 02555 0 25362
 51502 PAX +0 73400 1 00000    51503 CLA +0 50000 1 25362    51504 SUB +0 40200 0 25432    51505 TZE +0 10000 0 51526
 51506 TPL +0 12000 0 51526    51507 LDQ +0 56000 0 51165    51510 CLA +0 50000 0 25416    51511 TSX +0 07400 4 00001
 51512 TXH +3 02555 0 25362    51513 PAX +0 73400 1 00000    51514 CLA +0 50000 1 25362    51515 SUB +0 40200 0 51162
 51516 TZE +0 10000 0 51526    51517 LDQ +0 56000 0 51165    51520 CLA +0 50000 0 25416    51521 TSX +0 07400 4 00001
 51522 TXH +3 02555 0 25362    51523 PAX +0 73400 2 00000    51524 CLA +0 50000 2 25362    51525 STO +0 60100 0 25432
                   EPARAY(JE,0) = A(14)                                             080  LM00112
 51526 LDQ +0 56000 0 51162    51527 CLA +0 50000 0 25416    51530 TSX +0 07400 4 00001    51531 TXH +3 02555 0 25362
 51532 PAX +0 73400 1 00000    51533 CLA +0 50000 0 00072    51534 STO +0 60100 1 25362
                   EPARAY(JE,1) = OCABC.(LPOINT)                                    081  LM00113
 51535 TSX +0 07400 4 00020    51536 TXH +3 00000 0 25476    51537 STO +0 60100 0 54007    51540 LDQ +0 56000 0 51163
 51541 CLA +0 50000 0 25416    51542 TSX +0 07400 4 00001    51543 TXH +3 02555 0 25362    51544 PAX +0 73400 1 00000
 51545 CLA +0 50000 0 54007    51546 STO +0 60100 1 25362
                   EPARAY(JE,2) = PL                                                082  LM00114
 51547 LDQ +0 56000 0 51164    51550 CLA +0 50000 0 25416    51551 TSX +0 07400 4 00001    51552 TXH +3 02555 0 25362
 51553 PAX +0 73400 1 00000    51554 CLA +0 50000 0 27342    51555 STO +0 60100 1 25362
                   EPARAY(JE,4) = TAG                                               083  LM00115
 51556 LDQ +0 56000 0 51166    51557 CLA +0 50000 0 25416    51560 TSX +0 07400 4 00001    51561 TXH +3 02555 0 25362
 51562 PAX +0 73400 1 00000    51563 CLA +0 50000 0 27462    51564 STO +0 60100 1 25362
                   JE =JE+1                                                         084  LM00116
 51565 CLA +0 50000 0 25416    51566 ADD +0 40000 0 51163    51567 STO +0 60100 0 25416
      LTOP1        T'H LOOP1, FOR ICNT = NW,-2,ICNT.LE.0                            085  LM00117
 51570 CLA +0 50000 0 27341    51571 STO +0 60100 0 25411    51572 TRA +0 02000 0 51576    51573 CLS +0 50200 0 51164
 51574 ADD +0 40000 0 25411    51575 STO +0 60100 0 25411    51576 CLA +0 50000 0 25411    51577 SUB +0 40200 0 51162
 51600 TZE +0 10000 0 51651    51601 TMI -0 12000 0 51651
                     EPARAY(JE,0) = PROG(K)                                         086  LM00118
 51602 LDQ +0 56000 0 51162    51603 CLA +0 50000 0 25416    51604 TSX +0 07400 4 00001    51605 TXH +3 02555 0 25362
 51606 PAX +0 73400 1 00000    51607 LXA +0 53400 2 25421    51610 CLA +0 50000 2 27377    51611 STO +0 60100 1 25362
                     EPARAY(JE,1) = OCABC.(.ABS.(PROG(K-1)) + LPOINT)               087  LM00119
 51612 CLA +0 50000 0 25421    51613 SUB +0 40200 0 51163    51614 PAX +0 73400 2 00000    51615 CLA +0 50000 2 27377
 51616 SSP +0 76000 0 00003    51617 ADD +0 40000 0 25476    51620 STO +0 60100 0 54007    51621 TSX +0 07400 4 00020
 51622 TXH +3 00000 0 54007    51623 STO +0 60100 0 54007    51624 LDQ +0 56000 0 51163    51625 CLA +0 50000 0 25416
 51626 TSX +0 07400 4 00001    51627 TXH +3 02555 0 25362    51630 PAX +0 73400 1 00000    51631 CLA +0 50000 0 54007
 51632 STO +0 60100 1 25362
                   EPARAY(JE,2) = 3                                                 088  LM00120
 51633 LDQ +0 56000 0 51164    51634 CLA +0 50000 0 25416    51635 TSX +0 07400 4 00001    51636 TXH +3 02555 0 25362
 51637 PAX +0 73400 1 00000    51640 CLA +0 50000 0 51165    51641 STO +0 60100 1 25362
                     K = K-2                                                        089  LM00121
 51642 CLA +0 50000 0 25421    51643 SUB +0 40200 0 51164    51644 STO +0 60100 0 25421
      LOOP1          JE = JE + 1                                                    090  LM00122
 51645 CLA +0 50000 0 25416    51646 ADD +0 40000 0 51163    51647 STO +0 60100 0 25416    51650 TRA +0 02000 0 51573
                   T'O READ2                                                        091  LM00123
 51651 TRA +0 02000 0 00065
                   E'L                                                              092  LM00124
                 W'R TVSW .E. 1, T'O LTOP2                                          093  LM00128
 51652 CLA +0 50000 0 51160    51653 SUB +0 40200 0 51163    51654 TNZ -0 10000 0 51656    51655 TRA +0 02000 0 00053
                 TVSW =1                                                            094  LM00129
 51656 CLA +0 50000 0 51163    51657 STO +0 60100 0 51160
                 JT = (JT/50 + 1) * 50                                              095  LM00130
 51660 LDQ +0 56000 0 25420    51661 PXD -0 75400 0 00000    51662 LLS +0 76300 0 00000    51663 DVP +0 22100 0 51211
 51664 XCA +0 13100 0 00000    51665 ADD +0 40000 0 51163    51666 XCA +0 13100 0 00000    51667 MPY +0 20000 0 51211
 51670 STQ -0 60000 0 25420
                 TVARAY(JT) = A(14)                                                 096  LM00131
 51671 LXA +0 53400 1 25420    51672 CLA +0 50000 0 00072    51673 STO +0 60100 1 51156
                 JT = JT + 1                                                        097  LM00132
 51674 CLA +0 50000 0 25420    51675 ADD +0 40000 0 51163    51676 STO +0 60100 0 25420
      LTOP2      K = 24                                                             098  LM00133
 51677 CLA +0 50000 0 51205    51700 STO +0 60100 0 25421
                 IC = 20                                                            099  LM00134
 51701 CLA +0 50000 0 51204    51702 STO +0 60100 0 25413
                 W'R TVL.L.20, IC = TVL                                             100  LM00135
 51703 CLA +0 50000 0 51157    51704 SUB +0 40200 0 51204    51705 TZE +0 10000 0 51711    51706 TPL +0 12000 0 51711
 51707 CLA +0 50000 0 51157    51710 STO +0 60100 0 25413
                 T'H LOOP2, FOR ICNT = IC, -1, ICNT .E. 0                           101  LM00136
 51711 CLA +0 50000 0 25413    51712 STO +0 60100 0 25411    51713 TRA +0 02000 0 51717    51714 CLS +0 50200 0 51163
 51715 ADD +0 40000 0 25411    51716 STO +0 60100 0 25411    51717 CLA +0 50000 0 25411    51720 SUB +0 40200 0 51162
 51721 TZE +0 10000 0 51735
                   TVARAY(JT) = PROG(K)                                             102  LM00137
 51722 LXA +0 53400 1 25420    51723 LXA +0 53400 2 25421    51724 CLA +0 50000 2 27377    51725 STO +0 60100 1 51156
                   K = K - 1                                                        103  LM00138
 51726 CLA +0 50000 0 25421    51727 SUB +0 40200 0 51163    51730 STO +0 60100 0 25421
      LOOP2        JT = JT + 1                                                      104  LM00139
 51731 CLA +0 50000 0 25420    51732 ADD +0 40000 0 51163    51733 STO +0 60100 0 25420    51734 TRA +0 02000 0 51714
                 W'R TVL .G. 20                                                     105  LM00140
 51735 CLA +0 50000 0 51157    51736 SUB +0 40200 0 51204    51737 TZE +0 10000 0 51746    51740 TMI -0 12000 0 51746
                   TVL = TVL - 20                                                   106  LM00141
 51741 CLA +0 50000 0 51157    51742 SUB +0 40200 0 51204    51743 STO +0 60100 0 51157
                   T'O READ2                                                        107  LM00142
 51744 TRA +0 02000 0 00065
                 O'E                                                                108  LM00143
 51745 TRA +0 02000 0 51753
                   TVARAY(JT) = FENCE                                               109  LM00144
 51746 LXA +0 53400 1 25420    51747 CLA +0 50000 0 25363    51750 STO +0 60100 1 51156
                   TVSW = 0                                                         110  LM00145
 51751 CLA +0 50000 0 51162    51752 STO +0 60100 0 51160
                 E'L                                                                111  LM00146
                 PROGSW = 0                                                         112  LM00147
 51753 CLA +0 50000 0 51162    51754 STO +0 60100 0 27400
                 W'R ICOMB .E. 0                                                    113  LM00148
 51755 CLA +0 50000 0 25412    51756 SUB +0 40200 0 51162    51757 TNZ -0 10000 0 51765
                   BFCLOS.(A(14),QBSS,READ1)                                        114  LM00149
 51760 TSX +0 07400 4 00002    51761 TXH +3 00000 0 00072    51762 TXH +3 00000 0 27401    51763 TXH +3 00000 0 00064
                   T'O READ1                                                        115  LM00150
 51764 TRA +0 02000 0 00064
                 E'L                                                                116  LM00151
      SKIP       BFREAD.(A(14),QBSS,PROG(28)...28,EOF3,EOFCT,ERR3)                  117  LM00155
 51765 TSX +0 07400 4 00004    51766 TXH +3 00000 0 00072    51767 TXH +3 00000 0 27401    51770 TIX +2 51210 0 27343
 51771 TXH +3 00000 0 00036    51772 TXH +3 00000 0 02561    51773 TXH +3 00000 0 00043
                 W'R PROG(28) .A. MASK1 .E. 4005K8, T'O R2                          118  LM00156
 51774 CAL -0 50000 0 27343    51775 ANA -0 32000 0 25477    51776 SLW +0 60200 0 54007    51777 CLA +0 50000 0 54007
 52000 SUB +0 40200 0 51220    52001 TNZ -0 10000 0 52003    52002 TRA +0 02000 0 00063
                 T'O SKIP                                                           119  LM00157
 52003 TRA +0 02000 0 00066
      EOF3       BFCLOS.(A(14),QBSS,READ1)                                          120  LM00158
 52004 TSX +0 07400 4 00002    52005 TXH +3 00000 0 00072    52006 TXH +3 00000 0 27401    52007 TXH +3 00000 0 00064
                 T'O READ1                                                          121  LM00159
 52010 TRA +0 02000 0 00064
      EOF1       BFCLOS.(N1,N2,EOF1A)                                               122  LM00164
 52011 TSX +0 07400 4 00002    52012 TXH +3 00000 0 00027    52013 TXH +3 00000 0 27335    52014 TXH +3 00000 0 00033
      EOF1A      HCORE = LPOINT + PL                                                123  LM00165
 52015 CLA +0 50000 0 25476    52016 ADD +0 40000 0 27342    52017 STO +0 60100 0 25365
                 JESAVE = JE                                                        124  LM00166
 52020 CLA +0 50000 0 25416    52021 STO +0 60100 0 25417
                 W'R JT .L. 0                                                       125  LM00167
 52022 CLA +0 50000 0 25420    52023 SUB +0 40200 0 51162    52024 TZE +0 10000 0 52033    52025 TPL +0 12000 0 52033
                   TVARAY(1) = FENCE                                                126  LM00168
 52026 CLA +0 50000 0 25363    52027 STO +0 60100 0 51155
                   TVARAY(2) = FENCE                                                127  LM00169
 52030 CLA +0 50000 0 25363    52031 STO +0 60100 0 51154
                   T'O PART2                                                        128  LM00170
 52032 TRA +0 02000 0 00062
                 E'L                                                                129  LM00171
                 TVARAY(JT+1) = FENCE                                               130  LM00172
 52033 CLA +0 50000 0 25420    52034 ADD +0 40000 0 51163    52035 PAX +0 73400 1 00000    52036 CLA +0 50000 0 25363
 52037 STO +0 60100 1 51156
                 JT = - 50                                                          131  LM00173
 52040 CLS +0 50200 0 51211    52041 STO +0 60100 0 25420
                 T'O PART2                                                          132  LM00174
 52042 TRA +0 02000 0 00062
      EOF2       PRNTP.(MESS1)                                                      133  LM00178
 52043 TSX +0 07400 4 00022    52044 TXH +3 00000 0 26643
                 T'O ER2A                                                           134  LM00179
 52045 TRA +0 02000 0 00037
      ERR1       PRNTER.                                                            135  LM00180
 52046 TSX +0 07400 4 00021
                 BFCLOS.($ALL$,-0,ERRX)                                             136  LM00181
 52047 CLS +0 50200 0 51162    52050 STO +0 60100 0 54007    52051 TSX +0 07400 4 00002    52052 TXH +3 00000 0 51213
 52053 TXH +3 00000 0 54007    52054 TXH +3 00000 0 00045
      ERRX       CHNCOM.(0)                                                         137  LM00182
 52055 TSX +0 07400 4 00007    52056 TXH +3 00000 0 51162
      ERR2       PRNTER.                                                            138  LM00183
 52057 TSX +0 07400 4 00021
      ER2A       BFCLOS.(A(14),QBSS,ER2B)                                           139  LM00184
 52060 TSX +0 07400 4 00002    52061 TXH +3 00000 0 00072    52062 TXH +3 00000 0 27401    52063 TXH +3 00000 0 00040
      ER2B       MFARAY = MFARAY + 1                                                140  LM00185
 52064 CLA +0 50000 0 27022    52065 ADD +0 40000 0 51163    52066 STO +0 60100 0 27022
                 MFARAY(MFARAY) = A(14)                                             141  LM00186
 52067 LXA +0 53400 1 27022    52070 CLA +0 50000 0 00072    52071 STO +0 60100 1 27022
                 T'O READ1                                                          142  LM00187
 52072 TRA +0 02000 0 00064
      ERR3       PRNTER.                                                            143  LM00188
 52073 TSX +0 07400 4 00021
                 BFCLOS. (A(14),QBSS,READ1)                                         144  LM00189
 52074 TSX +0 07400 4 00002    52075 TXH +3 00000 0 00072    52076 TXH +3 00000 0 27401    52077 TXH +3 00000 0 00064
                 T'O READ1                                                          145  LM00190
 52100 TRA +0 02000 0 00064
      PART2      JT = (JT/50 + 1)*50                                                146  LM00197
 52101 LDQ +0 56000 0 25420    52102 PXD -0 75400 0 00000    52103 LLS +0 76300 0 00000    52104 DVP +0 22100 0 51211
 52105 XCA +0 13100 0 00000    52106 ADD +0 40000 0 51163    52107 XCA +0 13100 0 00000    52110 MPY +0 20000 0 51211
 52111 STQ -0 60000 0 25420
                 MODNAM = TVARAY(JT)                                                147  LM00198
 52112 LXA +0 53400 2 25420    52113 CLA +0 50000 2 51156    52114 STO +0 60100 0 27023
      MNAM       JT = JT +1                                                         148  LM00199
 52115 CLA +0 50000 0 25420    52116 ADD +0 40000 0 51163    52117 STO +0 60100 0 25420
                 W'R TVARAY(JT) .NE. FENCE, T'O LTOP3                               149  LM00200
 52120 LXA +0 53400 1 25420    52121 CLA +0 50000 1 51156    52122 SUB +0 40200 0 25363    52123 TZE +0 10000 0 52125
 52124 TRA +0 02000 0 00054
                 W'R TVARAY(JT+1) .E. FENCE, T'O DUPCK                              150  LM00201
 52125 CLA +0 50000 0 25420    52126 ADD +0 40000 0 51163    52127 PAX +0 73400 1 00000    52130 CLA +0 50000 1 51156
 52131 SUB +0 40200 0 25363    52132 TNZ -0 10000 0 52134    52133 TRA +0 02000 0 00030
                 T'O PART2                                                          151  LM00202
 52134 TRA +0 02000 0 00062
      LTOP3      T'H LOOP3, FOR JE=1,1, JE.GE.JESAVE                                152  LM00203
 52135 CLA +0 50000 0 51163    52136 STO +0 60100 0 25416    52137 TRA +0 02000 0 52143    52140 CLA +0 50000 0 25416
 52141 ADD +0 40000 0 51163    52142 STO +0 60100 0 25416    52143 CLA +0 50000 0 25416    52144 SUB +0 40200 0 25417
 52145 TZE +0 10000 0 52276    52146 TPL +0 12000 0 52276
                   W'R EPARAY(JE,4) .E. TAG                                         153  LM00204
 52147 LDQ +0 56000 0 51166    52150 CLA +0 50000 0 25416    52151 TSX +0 07400 4 00001    52152 TXH +3 02555 0 25362
 52153 PAX +0 73400 1 00000    52154 CLA +0 50000 1 25362    52155 SUB +0 40200 0 27462    52156 TNZ -0 10000 0 52167
                     FILEN = EPARAY(JE,0)                                           154  LM00205
 52157 LDQ +0 56000 0 51162    52160 CLA +0 50000 0 25416    52161 TSX +0 07400 4 00001    52162 TXH +3 02555 0 25362
 52163 PAX +0 73400 2 00000    52164 CLA +0 50000 2 25362    52165 STO +0 60100 0 25364
                     T'O LOOP3                                                      155  LM00206
 52166 TRA +0 02000 0 00046
                   E'L                                                              156  LM00207
                   W'R TVARAY(JT) .NE. EPARAY(JE,0), T'O LOOP3                      157  LM00208
 52167 LDQ +0 56000 0 51162    52170 CLA +0 50000 0 25416    52171 TSX +0 07400 4 00001    52172 TXH +3 02555 0 25362
 52173 LXA +0 53400 1 25420    52174 PAX +0 73400 2 00000    52175 CLA +0 50000 1 51156    52176 SUB +0 40200 2 25362
 52177 TZE +0 10000 0 52201    52200 TRA +0 02000 0 00046
                   TV1(JT,0) = FILEN                                                158  LM00209
 52201 LDQ +0 56000 0 51162    52202 CLA +0 50000 0 25420    52203 TSX +0 07400 4 00001    52204 TXH +3 02560 0 43265
 52205 PAX +0 73400 1 00000    52206 CLA +0 50000 0 25364    52207 STO +0 60100 1 43265
                   TV1(JT,1) = EPARAY(JE,1)                                         159  LM00210
 52210 LDQ +0 56000 0 51163    52211 CLA +0 50000 0 25416    52212 TSX +0 07400 4 00001    52213 TXH +3 02555 0 25362
 52214 STO +0 60100 0 54007    52215 LDQ +0 56000 0 51163    52216 CLA +0 50000 0 25420    52217 TSX +0 07400 4 00001
 52220 TXH +3 02560 0 43265    52221 PAX +0 73400 1 00000    52222 LXA +0 53400 2 54007    52223 CLA +0 50000 2 25362
 52224 STO +0 60100 1 43265
                   W'R EPARAY(JE,2) .G. 14, T'O MNAM                                160  LM00211
 52225 LDQ +0 56000 0 51164    52226 CLA +0 50000 0 25416    52227 TSX +0 07400 4 00001    52230 TXH +3 02555 0 25362
 52231 PAX +0 73400 1 00000    52232 CLA +0 50000 1 25362    52233 SUB +0 40200 0 51177    52234 TZE +0 10000 0 52237
 52235 TMI -0 12000 0 52237    52236 TRA +0 02000 0 00060
                   EPARAY(JE,EPARAY(JE,2)) = MODNAM                                 161  LM00212
 52237 LDQ +0 56000 0 51164    52240 CLA +0 50000 0 25416    52241 TSX +0 07400 4 00001    52242 TXH +3 02555 0 25362
 52243 SUB +0 40200 0 52244    52244 TXH +3 00000 0 25362    52245 STA +0 62100 0 52246    52246 LDQ +0 56000 0 00000
 52247 CLA +0 50000 0 25416    52250 TSX +0 07400 4 00000    52251 TXH +3 02555 0 25362    52252 PAX +0 73400 1 00000
 52253 CLA +0 50000 0 27023    52254 STO +0 60100 1 25362
                   EPARAY(JE,2) = EPARAY(JE,2) + 1                                  162  LM00213
 52255 LDQ +0 56000 0 51164    52256 CLA +0 50000 0 25416    52257 TSX +0 07400 4 00001    52260 TXH +3 02555 0 25362
 52261 PAX +0 73400 1 00000    52262 CLA +0 50000 1 25362    52263 ADD +0 40000 0 51163    52264 STO +0 60100 0 54007
 52265 LDQ +0 56000 0 51164    52266 CLA +0 50000 0 25416    52267 TSX +0 07400 4 00001    52270 TXH +3 02555 0 25362
 52271 PAX +0 73400 1 00000    52272 CLA +0 50000 0 54007    52273 STO +0 60100 1 25362
                   T'O MNAM                                                         163  LM00214
 52274 TRA +0 02000 0 00060
      LOOP3      CONTINUE                                                           164  LM00215
 52275 TRA +0 02000 0 52140
                 MEARAY = MEARAY + 1                                                165  LM00216
 52276 CLA +0 50000 0 26633    52277 ADD +0 40000 0 51163    52300 STO +0 60100 0 26633
                 MEARAY(MEARAY) = TVARAY(JT)                                        166  LM00217
 52301 LXA +0 53400 1 26633    52302 LXA +0 53400 2 25420    52303 CLA +0 50000 2 51156    52304 STO +0 60100 1 26633
                 TV1(JT,0) = BLANK                                                  167  LM00218
 52305 LDQ +0 56000 0 51162    52306 CLA +0 50000 0 25420    52307 TSX +0 07400 4 00001    52310 TXH +3 02560 0 43265
 52311 PAX +0 73400 1 00000    52312 CLA +0 50000 0 00115    52313 STO +0 60100 1 43265
                 TV1(JT,1) = BLANK                                                  168  LM00219
 52314 LDQ +0 56000 0 51163    52315 CLA +0 50000 0 25420    52316 TSX +0 07400 4 00001    52317 TXH +3 02560 0 43265
 52320 PAX +0 73400 1 00000    52321 CLA +0 50000 0 00115    52322 STO +0 60100 1 43265
                 T'O MNAM                                                           169  LM00220
 52323 TRA +0 02000 0 00060
      DUPCK      T'H LOOP5, FOR JE1 = 1,1,JE1.GE.JESAVE                             170  LM00224
 52324 CLA +0 50000 0 51163    52325 STO +0 60100 0 25415    52326 TRA +0 02000 0 52332    52327 CLA +0 50000 0 25415
 52330 ADD +0 40000 0 51163    52331 STO +0 60100 0 25415    52332 CLA +0 50000 0 25415    52333 SUB +0 40200 0 25417
 52334 TZE +0 10000 0 52427    52335 TPL +0 12000 0 52427
                   W'R EPARAY(JE1,4) .E. TAG, T'O LOOP5                             171  LM00225
 52336 LDQ +0 56000 0 51166    52337 CLA +0 50000 0 25415    52340 TSX +0 07400 4 00001    52341 TXH +3 02555 0 25362
 52342 PAX +0 73400 1 00000    52343 CLA +0 50000 1 25362    52344 SUB +0 40200 0 27462    52345 TNZ -0 10000 0 52347
 52346 TRA +0 02000 0 00050
                   T'H LOOP4, FOR JE=JE1+1,1,JE.E.JESAVE                            172  LM00226
 52347 CLA +0 50000 0 25415    52350 ADD +0 40000 0 51163    52351 STO +0 60100 0 25416    52352 TRA +0 02000 0 52356
 52353 CLA +0 50000 0 25416    52354 ADD +0 40000 0 51163    52355 STO +0 60100 0 25416    52356 CLA +0 50000 0 25416
 52357 SUB +0 40200 0 25417    52360 TZE +0 10000 0 52426
                     W'R EPARAY(JE,4) .E. TAG, T'O LOOP4                            173  LM00227
 52361 LDQ +0 56000 0 51166    52362 CLA +0 50000 0 25416    52363 TSX +0 07400 4 00001    52364 TXH +3 02555 0 25362
 52365 PAX +0 73400 1 00000    52366 CLA +0 50000 1 25362    52367 SUB +0 40200 0 27462    52370 TNZ -0 10000 0 52372
 52371 TRA +0 02000 0 00047
                     W'R EPARAY(JE1,0) .NE. EPARAY(JE,0), T'O LOOP4                 174  LM00228
 52372 LDQ +0 56000 0 51162    52373 CLA +0 50000 0 25416    52374 TSX +0 07400 4 00001    52375 TXH +3 02555 0 25362
 52376 STO +0 60100 0 54007    52377 LDQ +0 56000 0 51162    52400 CLA +0 50000 0 25415    52401 TSX +0 07400 4 00001
 52402 TXH +3 02555 0 25362    52403 PAX +0 73400 1 00000    52404 LXA +0 53400 2 54007    52405 CLA +0 50000 1 25362
 52406 SUB +0 40200 2 25362    52407 TZE +0 10000 0 52411    52410 TRA +0 02000 0 00047
                     MULT = MULT + 1                                                175  LM00229
 52411 CLA +0 50000 0 27334    52412 ADD +0 40000 0 51163    52413 STO +0 60100 0 27334
                     MULT(MULT) = EPARAY(JE,0)                                      176  LM00230
 52414 LDQ +0 56000 0 51162    52415 CLA +0 50000 0 25416    52416 TSX +0 07400 4 00001    52417 TXH +3 02555 0 25362
 52420 LXA +0 53400 1 27334    52421 PAX +0 73400 2 00000    52422 CLA +0 50000 2 25362    52423 STO +0 60100 1 27334
                     T'O LOOP5                                                      177  LM00231
 52424 TRA +0 02000 0 00050
      LOOP4        CONTINUE                                                         178  LM00232
 52425 TRA +0 02000 0 52353
      LOOP5      CONTINUE                                                           179  LM00233
 52426 TRA +0 02000 0 52327
                 EXECUTE DELETE.(FILNAM)                                            180  LM00237
 52427 TSX +0 07400 4 00011    52430 TXH +3 00000 0 00027
                 BFOPEN.($W$,N1,NA2,BUFF1(BL),BUFF2(BL),BUFF3(BL),ERR4)             181  LM00238
 52431 CLA +0 50000 0 00116    52432 SUB +0 40200 0 52433    52433 TXH +3 00000 0 02541    52434 STA +0 62100 0 52453
 52435 CLA +0 50000 0 00116    52436 SUB +0 40200 0 52437    52437 TXH +3 00000 0 01660    52440 STA +0 62100 0 52452
 52441 CLA +0 50000 0 00116    52442 SUB +0 40200 0 52443    52443 TXH +3 00000 0 00777    52444 STA +0 62100 0 52451
 52445 TSX +0 07400 4 00003    52446 TXH +3 00000 0 51224    52447 TXH +3 00000 0 00027    52450 TXH +3 00000 0 00026
 52451 TXH +3 00000 0 00000    52452 TXH +3 00000 0 00000    52453 TXH +3 00000 0 00000    52454 TXH +3 00000 0 00044
                 TITLE(8) = N1                                                      182  LM00239
 52455 CLA +0 50000 0 00027    52456 STO +0 60100 0 27474
                 GETTM.(TITLE(11),TITLE(13))                                        183  LM00240
 52457 TSX +0 07400 4 00015    52460 TXH +3 00000 0 27471    52461 TXH +3 00000 0 27467
                 TITLE(5)=(N1.A.777777000000K).V.000000575757K                      184  LM00241
 52462 CAL -0 50000 0 00027    52463 ANA -0 32000 0 51226    52464 ORA -0 50100 0 51212    52465 SLW +0 60200 0 27477
                 WHOAMI.(TITLE(16)...2)                                             185  LM00242
 52466 TSX +0 07400 4 00023    52467 TIX +2 51164 0 27464
                 LINE(LC-15) = TITLE(16)                                            186  LM00243
 52470 CLA +0 50000 0 25433    52471 SUB +0 40200 0 51200    52472 PAX +0 73400 1 00000    52473 CLA +0 50000 0 27464
 52474 STO +0 60100 1 25475
                 LINE(LC-16) = TITLE(15)                                            187  LM00244
 52475 CLA +0 50000 0 25433    52476 SUB +0 40200 0 51201    52477 PAX +0 73400 1 00000    52500 CLA +0 50000 0 27465
 52501 STO +0 60100 1 25475
                 T'H LOOP6, FOR IC = 0,1,IC .G. 14                                  188  LM00245
 52502 CLA +0 50000 0 51162    52503 STO +0 60100 0 25413    52504 TRA +0 02000 0 52510    52505 CLA +0 50000 0 25413
 52506 ADD +0 40000 0 51163    52507 STO +0 60100 0 25413    52510 CLA +0 50000 0 25413    52511 SUB +0 40200 0 51177
 52512 TZE +0 10000 0 52514    52513 TPL +0 12000 0 52523
      LOOP6      LINE(LC-IC) = TITLE(IC)                                            189  LM00246
 52514 CLA +0 50000 0 25433    52515 SUB +0 40200 0 25413    52516 PAX +0 73400 1 00000    52517 LXA +0 53400 2 25413
 52520 CLA +0 50000 2 27504    52521 STO +0 60100 1 25475    52522 TRA +0 02000 0 52505
                 BFWRIT.(N1,NA2,LINE(LC)...17,ERR4)                                 190  LM00247
 52523 CLA +0 50000 0 25433    52524 SUB +0 40200 0 52525    52525 TXH +3 00000 0 25475    52526 STA +0 62100 0 52532
 52527 TSX +0 07400 4 00005    52530 TXH +3 00000 0 00027    52531 TXH +3 00000 0 00026    52532 TIX +2 51202 0 00000
 52533 TXH +3 00000 0 00044
                 W'R ILIST .E. 1 .OR. JESAVE .L. 1, T'O SUMERY                      191  LM00248
 52534 CLA +0 50000 0 25417    52535 SUB +0 40200 0 51163    52536 TZE +0 10000 0 52540    52537 TMI -0 12000 0 52543
 52540 CLA +0 50000 0 25414    52541 SUB +0 40200 0 51163    52542 TNZ -0 10000 0 52544    52543 TRA +0 02000 0 00070
                 T'H LOOP7, FOR IC = 0,1,IC .G. 11                                  192  LM00249
 52544 CLA +0 50000 0 51162    52545 STO +0 60100 0 25413    52546 TRA +0 02000 0 52552    52547 CLA +0 50000 0 25413
 52550 ADD +0 40000 0 51163    52551 STO +0 60100 0 25413    52552 CLA +0 50000 0 25413    52553 SUB +0 40200 0 51175
 52554 TZE +0 10000 0 52556    52555 TPL +0 12000 0 52565
      LOOP7      LINE(LC-IC) = HEAD(IC)                                             193  LM00250
 52556 CLA +0 50000 0 25433    52557 SUB +0 40200 0 25413    52560 PAX +0 73400 1 00000    52561 LXA +0 53400 2 25413
 52562 CLA +0 50000 2 25401    52563 STO +0 60100 1 25475    52564 TRA +0 02000 0 52547
                 BFWRIT.(N1,NA2,LINE(LC)...12, ERR4)                                194  LM00251
 52565 CLA +0 50000 0 25433    52566 SUB +0 40200 0 52567    52567 TXH +3 00000 0 25475    52570 STA +0 62100 0 52574
 52571 TSX +0 07400 4 00005    52572 TXH +3 00000 0 00027    52573 TXH +3 00000 0 00026    52574 TIX +2 51176 0 00000
 52575 TXH +3 00000 0 00044
                 JT = -50                                                           195  LM00252
 52576 CLS +0 50200 0 51211    52577 STO +0 60100 0 25420
                 JE = 0                                                             196  LM00253
 52600 CLA +0 50000 0 51162    52601 STO +0 60100 0 25416
      LTOP8      BFWRIT.(N1,NA2,BLANK3(3)...4,ERR4)                                 197  LM00257
 52602 TSX +0 07400 4 00005    52603 TXH +3 00000 0 00027    52604 TXH +3 00000 0 00026    52605 TIX +2 51166 0 00111
 52606 TXH +3 00000 0 00044
                 LINE(LC) = 777777000007K                                           198  LM00258
 52607 LXA +0 53400 1 25433    52610 CLA +0 50000 0 51230    52611 STO +0 60100 1 25475
                 LINE(LC-1) = BLANK                                                 199  LM00259
 52612 CLA +0 50000 0 25433    52613 SUB +0 40200 0 51163    52614 PAX +0 73400 1 00000    52615 CLA +0 50000 0 00115
 52616 STO +0 60100 1 25475
                 LINE(LC-2) = $FILE  $                                              200  LM00260
 52617 CLA +0 50000 0 25433    52620 SUB +0 40200 0 51164    52621 PAX +0 73400 1 00000    52622 CLA +0 50000 0 51215
 52623 STO +0 60100 1 25475
                 LINE(LC-3) = EPARAY(JE,0)                                          201  LM00261
 52624 LDQ +0 56000 0 51162    52625 CLA +0 50000 0 25416    52626 TSX +0 07400 4 00001    52627 TXH +3 02555 0 25362
 52630 STO +0 60100 0 54007    52631 CLA +0 50000 0 25433    52632 SUB +0 40200 0 51165    52633 PAX +0 73400 1 00000
 52634 LXA +0 53400 2 54007    52635 CLA +0 50000 2 25362    52636 STO +0 60100 1 25475
                 LINE(LC-4) = BLANK                                                 202  LM00262
 52637 CLA +0 50000 0 25433    52640 SUB +0 40200 0 51166    52641 PAX +0 73400 1 00000    52642 CLA +0 50000 0 00115
 52643 STO +0 60100 1 25475
                 LINE(LC-5) = (EPARAY(JE,1))                                        203  LM00263
 52644 LDQ +0 56000 0 51163    52645 CLA +0 50000 0 25416    52646 TSX +0 07400 4 00001    52647 TXH +3 02555 0 25362
 52650 STO +0 60100 0 54007    52651 CLA +0 50000 0 25433    52652 SUB +0 40200 0 51167    52653 PAX +0 73400 1 00000
 52654 LXA +0 53400 2 54007    52655 CLA +0 50000 2 25362    52656 STO +0 60100 1 25475
                 LINE(LC-6) = OCABC.(EPARAY(JE,2))                                  204  LM00264
 52657 LDQ +0 56000 0 51164    52660 CLA +0 50000 0 25416    52661 TSX +0 07400 4 00001    52662 TXH +3 02555 0 25362
 52663 SUB +0 40200 0 52664    52664 TXH +3 00000 0 25362    52665 STA +0 62100 0 52667    52666 TSX +0 07400 4 00020
 52667 TXH +3 00000 0 00000    52670 STO +0 60100 0 54007    52671 CLA +0 50000 0 25433    52672 SUB +0 40200 0 51170
 52673 PAX +0 73400 1 00000    52674 CLA +0 50000 0 54007    52675 STO +0 60100 1 25475
                 LINE(LC-7) = OCABC.(EPARAY(JE,3))                                  205  LM00265
 52676 LDQ +0 56000 0 51165    52677 CLA +0 50000 0 25416    52700 TSX +0 07400 4 00001    52701 TXH +3 02555 0 25362
 52702 SUB +0 40200 0 52703    52703 TXH +3 00000 0 25362    52704 STA +0 62100 0 52706    52705 TSX +0 07400 4 00020
 52706 TXH +3 00000 0 00000    52707 STO +0 60100 0 54007    52710 CLA +0 50000 0 25433    52711 SUB +0 40200 0 51171
 52712 PAX +0 73400 1 00000    52713 CLA +0 50000 0 54007    52714 STO +0 60100 1 25475
                 BFWRIT.(N1,NA2,LINE(LC)...8,ERR4)                                  206  LM00266
 52715 CLA +0 50000 0 25433    52716 SUB +0 40200 0 52717    52717 TXH +3 00000 0 25475    52720 STA +0 62100 0 52724
 52721 TSX +0 07400 4 00005    52722 TXH +3 00000 0 00027    52723 TXH +3 00000 0 00026    52724 TIX +2 51172 0 00000
 52725 TXH +3 00000 0 00044
                 LINE(LC) = 777777000011K                                           207  LM00270
 52726 LXA +0 53400 1 25433    52727 CLA +0 50000 0 51231    52730 STO +0 60100 1 25475
                 LINE(LC-1) = BLANK                                                 208  LM00271
 52731 CLA +0 50000 0 25433    52732 SUB +0 40200 0 51163    52733 PAX +0 73400 1 00000    52734 CLA +0 50000 0 00115
 52735 STO +0 60100 1 25475
                 LINE(LC-2) = BLANK                                                 209  LM00272
 52736 CLA +0 50000 0 25433    52737 SUB +0 40200 0 51164    52740 PAX +0 73400 1 00000    52741 CLA +0 50000 0 00115
 52742 STO +0 60100 1 25475
                 LINE(LC-3) = BLANK                                                 210  LM00273
 52743 CLA +0 50000 0 25433    52744 SUB +0 40200 0 51165    52745 PAX +0 73400 1 00000    52746 CLA +0 50000 0 00115
 52747 STO +0 60100 1 25475
                 LINE(LC-5) = BLANK                                                 211  LM00274
 52750 CLA +0 50000 0 25433    52751 SUB +0 40200 0 51167    52752 PAX +0 73400 1 00000    52753 CLA +0 50000 0 00115
 52754 STO +0 60100 1 25475
                 LINE(LC-6) = BLANK                                                 212  LM00275
 52755 CLA +0 50000 0 25433    52756 SUB +0 40200 0 51170    52757 PAX +0 73400 1 00000    52760 CLA +0 50000 0 00115
 52761 STO +0 60100 1 25475
                 LINE(LC-7) = BLANK                                                 213  LM00276
 52762 CLA +0 50000 0 25433    52763 SUB +0 40200 0 51171    52764 PAX +0 73400 1 00000    52765 CLA +0 50000 0 00115
 52766 STO +0 60100 1 25475
                 JT = (JT/50+1)*50 + 1                                              214  LM00277
 52767 LDQ +0 56000 0 25420    52770 PXD -0 75400 0 00000    52771 LLS +0 76300 0 00000    52772 DVP +0 22100 0 51211
 52773 XCA +0 13100 0 00000    52774 ADD +0 40000 0 51163    52775 XCA +0 13100 0 00000    52776 MPY +0 20000 0 51211
 52777 XCA +0 13100 0 00000    53000 ADD +0 40000 0 51163    53001 STO +0 60100 0 25420
      LTOP9      W'R TVARAY(JT) .E. FENCE, T'O TOP10                                215  LM00278
 53002 LXA +0 53400 1 25420    53003 CLA +0 50000 1 51156    53004 SUB +0 40200 0 25363    53005 TNZ -0 10000 0 53007
 53006 TRA +0 02000 0 00071
                 LINE(LC-4) = TVARAY(JT)                                            216  LM00279
 53007 CLA +0 50000 0 25433    53010 SUB +0 40200 0 51166    53011 PAX +0 73400 1 00000    53012 LXA +0 53400 2 25420
 53013 CLA +0 50000 2 51156    53014 STO +0 60100 1 25475
                 LINE(LC-8) = TV1(JT,0)                                             217  LM00280
 53015 LDQ +0 56000 0 51162    53016 CLA +0 50000 0 25420    53017 TSX +0 07400 4 00001    53020 TXH +3 02560 0 43265
 53021 STO +0 60100 0 54007    53022 CLA +0 50000 0 25433    53023 SUB +0 40200 0 51172    53024 PAX +0 73400 1 00000
 53025 LXA +0 53400 2 54007    53026 CLA +0 50000 2 43265    53027 STO +0 60100 1 25475
                 LINE(LC-9) = TV1(JT,1)                                             218  LM00281
 53030 LDQ +0 56000 0 51163    53031 CLA +0 50000 0 25420    53032 TSX +0 07400 4 00001    53033 TXH +3 02560 0 43265
 53034 STO +0 60100 0 54007    53035 CLA +0 50000 0 25433    53036 SUB +0 40200 0 51173    53037 PAX +0 73400 1 00000
 53040 LXA +0 53400 2 54007    53041 CLA +0 50000 2 43265    53042 STO +0 60100 1 25475
                 BFWRIT.(N1,NA2,LINE(LC)...10,ERR4)                                 219  LM00282
 53043 CLA +0 50000 0 25433    53044 SUB +0 40200 0 53045    53045 TXH +3 00000 0 25475    53046 STA +0 62100 0 53052
 53047 TSX +0 07400 4 00005    53050 TXH +3 00000 0 00027    53051 TXH +3 00000 0 00026    53052 TIX +2 51174 0 00000
 53053 TXH +3 00000 0 00044
                 JT = JT + 1                                                        220  LM00283
 53054 CLA +0 50000 0 25420    53055 ADD +0 40000 0 51163    53056 STO +0 60100 0 25420
                 T'O LTOP9                                                          221  LM00284
 53057 TRA +0 02000 0 00056
      TOP10      LINE(LC-4) = BLANK                                                 222  LM00285
 53060 CLA +0 50000 0 25433    53061 SUB +0 40200 0 51166    53062 PAX +0 73400 1 00000    53063 CLA +0 50000 0 00115
 53064 STO +0 60100 1 25475
                 LINE(LC-6) = BLANK                                                 223  LM00286
 53065 CLA +0 50000 0 25433    53066 SUB +0 40200 0 51170    53067 PAX +0 73400 1 00000    53070 CLA +0 50000 0 00115
 53071 STO +0 60100 1 25475
                 LINE(LC-7) = BLANK                                                 224  LM00287
 53072 CLA +0 50000 0 25433    53073 SUB +0 40200 0 51171    53074 PAX +0 73400 1 00000    53075 CLA +0 50000 0 00115
 53076 STO +0 60100 1 25475
      LTOP10     JE = JE + 1                                                        225  LM00288
 53077 CLA +0 50000 0 25416    53100 ADD +0 40000 0 51163    53101 STO +0 60100 0 25416
                 W'R JE .GE. JESAVE, T'O SUMERY                                     226  LM00293
 53102 CLA +0 50000 0 25416    53103 SUB +0 40200 0 25417    53104 TZE +0 10000 0 53106    53105 TMI -0 12000 0 53107
 53106 TRA +0 02000 0 00070
                 W'R EPARAY(JE,4) .E. TAG, T'O LTOP8                                227  LM00294
 53107 LDQ +0 56000 0 51166    53110 CLA +0 50000 0 25416    53111 TSX +0 07400 4 00001    53112 TXH +3 02555 0 25362
 53113 PAX +0 73400 1 00000    53114 CLA +0 50000 1 25362    53115 SUB +0 40200 0 27462    53116 TNZ -0 10000 0 53120
 53117 TRA +0 02000 0 00055
                 NLC= (2*(EPARAY(JE,2)-3)+7)                                        228  LM00295
 53120 LDQ +0 56000 0 51164    53121 CLA +0 50000 0 25416    53122 TSX +0 07400 4 00001    53123 TXH +3 02555 0 25362
 53124 PAX +0 73400 1 00000    53125 CLA +0 50000 1 25362    53126 SUB +0 40200 0 51165    53127 XCA +0 13100 0 00000
 53130 MPY +0 20000 0 51164    53131 XCA +0 13100 0 00000    53132 ADD +0 40000 0 51171    53133 STO +0 60100 0 27340
                 LINE(LC)= (NLC-1).V.777777K6                                       229  LM00296
 53134 CLA +0 50000 0 27340    53135 SUB +0 40200 0 51163    53136 STO +0 60100 0 54007    53137 CAL -0 50000 0 54007
 53140 ORA -0 50100 0 51226    53141 LXA +0 53400 1 25433    53142 SLW +0 60200 1 25475
                 LINE(LC-3) = EPARAY(JE,0)                                          230  LM00297
 53143 LDQ +0 56000 0 51162    53144 CLA +0 50000 0 25416    53145 TSX +0 07400 4 00001    53146 TXH +3 02555 0 25362
 53147 STO +0 60100 0 54007    53150 CLA +0 50000 0 25433    53151 SUB +0 40200 0 51165    53152 PAX +0 73400 1 00000
 53153 LXA +0 53400 2 54007    53154 CLA +0 50000 2 25362    53155 STO +0 60100 1 25475
                 LINE(LC-5) = (EPARAY(JE,1))                                        231  LM00298
 53156 LDQ +0 56000 0 51163    53157 CLA +0 50000 0 25416    53160 TSX +0 07400 4 00001    53161 TXH +3 02555 0 25362
 53162 STO +0 60100 0 54007    53163 CLA +0 50000 0 25433    53164 SUB +0 40200 0 51167    53165 PAX +0 73400 1 00000
 53166 LXA +0 53400 2 54007    53167 CLA +0 50000 2 25362    53170 STO +0 60100 1 25475
                 LINE(LC-7) = BLANK                                                 232  LM00299
 53171 CLA +0 50000 0 25433    53172 SUB +0 40200 0 51171    53173 PAX +0 73400 1 00000    53174 CLA +0 50000 0 00115
 53175 STO +0 60100 1 25475
                 LCNT = LC - 8                                                      233  LM00300
 53176 CLA +0 50000 0 25433    53177 SUB +0 40200 0 51172    53200 STO +0 60100 0 25431
                 T'H LOOP11, FOR IC = 3,1,IC .E. EPARAY(JE,2)                       234  LM00301
 53201 CLA +0 50000 0 51165    53202 STO +0 60100 0 25413    53203 TRA +0 02000 0 53207    53204 CLA +0 50000 0 25413
 53205 ADD +0 40000 0 51163    53206 STO +0 60100 0 25413    53207 LDQ +0 56000 0 51164    53210 CLA +0 50000 0 25416
 53211 TSX +0 07400 4 00001    53212 TXH +3 02555 0 25362    53213 PAX +0 73400 2 00000    53214 CLA +0 50000 0 25413
 53215 SUB +0 40200 2 25362    53216 TZE +0 10000 0 53240
                   LINE(LCNT) = EPARAY(JE,IC)                                       235  LM00302
 53217 LDQ +0 56000 0 25413    53220 CLA +0 50000 0 25416    53221 TSX +0 07400 4 00001    53222 TXH +3 02555 0 25362
 53223 LXA +0 53400 1 25431    53224 PAX +0 73400 2 00000    53225 CLA +0 50000 2 25362    53226 STO +0 60100 1 25475
                   LINE(LCNT-1) = 735757575757K                                     236  LM00303
 53227 CLA +0 50000 0 25431    53230 SUB +0 40200 0 51163    53231 PAX +0 73400 1 00000    53232 CLA +0 50000 0 51225
 53233 STO +0 60100 1 25475
      LOOP11     LCNT = LCNT-2                                                      237  LM00304
 53234 CLA +0 50000 0 25431    53235 SUB +0 40200 0 51164    53236 STO +0 60100 0 25431    53237 TRA +0 02000 0 53204
                 BFWRIT.(N1,NA2,LINE(LC)...NLC,ERR4)                                238  LM00305
 53240 CLA +0 50000 0 25433    53241 SUB +0 40200 0 53242    53242 TXH +3 00000 0 25475    53243 STA +0 62100 0 53247
 53244 TSX +0 07400 4 00005    53245 TXH +3 00000 0 00027    53246 TXH +3 00000 0 00026    53247 TIX +2 27340 0 00000
 53250 TXH +3 00000 0 00044
                 T'O LTOP10                                                         239  LM00306
 53251 TRA +0 02000 0 00051
      SUMERY     SUM1(18) = OCABC.(HCORE)                                           240  LM00310
 53252 TSX +0 07400 4 00020    53253 TXH +3 00000 0 25365    53254 STO +0 60100 0 27415
                 SUM1(11) = OCABC.(LCOM)                                            241  LM00311
 53255 TSX +0 07400 4 00020    53256 TXH +3 00000 0 25432    53257 STO +0 60100 0 27424
                 SUM1(25) = BZEL.(DERBC.(LCOM-HCORE))                               242  LM00312
 53260 CLA +0 50000 0 25432    53261 SUB +0 40200 0 25365    53262 STO +0 60100 0 54007    53263 TSX +0 07400 4 00012
 53264 TXH +3 00000 0 54007    53265 STO +0 60100 0 54007    53266 TSX +0 07400 4 00006    53267 TXH +3 00000 0 54007
 53270 STO +0 60100 0 27406
                 W'R HCORE.G.LCOM, SUM1(25) =SUM1(25).A.MASK4                       243  LM00313
 53271 CLA +0 50000 0 25365    53272 SUB +0 40200 0 25432    53273 TZE +0 10000 0 53300    53274 TMI -0 12000 0 53300
 53275 CAL -0 50000 0 27406    53276 ANA -0 32000 0 25502    53277 SLW +0 60200 0 27406
                 HPC(5) = SUM1(18)                                                  244  LM00314
 53300 CLA +0 50000 0 27415    53301 STO +0 60100 0 25403
                 LCM(5) = SUM1(11)                                                  245  LM00315
 53302 CLA +0 50000 0 27424    53303 STO +0 60100 0 25423
                 DIFC(5) = SUM1(25)                                                 246  LM00316
 53304 CLA +0 50000 0 27406    53305 STO +0 60100 0 02545
                 W'R HCORE .L. LCOM .AND. (MEARAY+MFARAY) .E. 0                     247  LM00317
 53306 CLA +0 50000 0 26633    53307 ADD +0 40000 0 27022    53310 SUB +0 40200 0 51162    53311 TNZ -0 10000 0 53366
 53312 CLA +0 50000 0 25365    53313 SUB +0 40200 0 25432    53314 TZE +0 10000 0 53366    53315 TPL +0 12000 0 53366
                   T'H LOOP13, FOR IC = 0,1,IC .G. 27                               248  LM00321
 53316 CLA +0 50000 0 51162    53317 STO +0 60100 0 25413    53320 TRA +0 02000 0 53324    53321 CLA +0 50000 0 25413
 53322 ADD +0 40000 0 51163    53323 STO +0 60100 0 25413    53324 CLA +0 50000 0 25413    53325 SUB +0 40200 0 51207
 53326 TZE +0 10000 0 53330    53327 TPL +0 12000 0 53337
      LOOP13       LINE(LC-IC) = SUM1(IC)                                           249  LM00322
 53330 CLA +0 50000 0 25433    53331 SUB +0 40200 0 25413    53332 PAX +0 73400 1 00000    53333 LXA +0 53400 2 25413
 53334 CLA +0 50000 2 27437    53335 STO +0 60100 1 25475    53336 TRA +0 02000 0 53321
                   BFWRIT.(N1,NA2,LINE(LC)...28,ERR4)                               250  LM00323
 53337 CLA +0 50000 0 25433    53340 SUB +0 40200 0 53341    53341 TXH +3 00000 0 25475    53342 STA +0 62100 0 53346
 53343 TSX +0 07400 4 00005    53344 TXH +3 00000 0 00027    53345 TXH +3 00000 0 00026    53346 TIX +2 51210 0 00000
 53347 TXH +3 00000 0 00044
                   PRINT COMMENT $SYSTEM PRELOAD SUCCESSFUL$                        251  LM00324
 53350 TSX +0 07400 4 00016    53351     +0 00000 0 00005    53352     -2 27062 6 32544    53353     -2 04751 2 54346
 53354     +2 12460 6 26423    53355     +2 32562 6 22664    53356     -0 36060 6 06060
                 PRNTP.(LCM)                                                        252  LM00325
 53357 TSX +0 07400 4 00022    53360 TXH +3 00000 0 25430
                 PRNTP.(HPC)                                                        253  LM00326
 53361 TSX +0 07400 4 00022    53362 TXH +3 00000 0 25410
                 PRNTP.(DIFC)                                                       254  LM00327
 53363 TSX +0 07400 4 00022    53364 TXH +3 00000 0 02552
                   T'O MUCK                                                         255  LM00328
 53365 TRA +0 02000 0 00061
                 E'L                                                                256  LM00329
                 SUM1(3) = SUM1A                                                    257  LM00332
 53366 CLA +0 50000 0 27403    53367 STO +0 60100 0 27434
                 T'H LOOP14, FOR IC = 0,1,IC .G. 27                                 258  LM00333
 53370 CLA +0 50000 0 51162    53371 STO +0 60100 0 25413    53372 TRA +0 02000 0 53376    53373 CLA +0 50000 0 25413
 53374 ADD +0 40000 0 51163    53375 STO +0 60100 0 25413    53376 CLA +0 50000 0 25413    53377 SUB +0 40200 0 51207
 53400 TZE +0 10000 0 53402    53401 TPL +0 12000 0 53411
      LOOP14     LINE(LC-IC) = SUM1(IC)                                             259  LM00334
 53402 CLA +0 50000 0 25433    53403 SUB +0 40200 0 25413    53404 PAX +0 73400 1 00000    53405 LXA +0 53400 2 25413
 53406 CLA +0 50000 2 27437    53407 STO +0 60100 1 25475    53410 TRA +0 02000 0 53373
                 BFWRIT.(N1,NA2,LINE(LC)...28, ERR4)                                260  LM00335
 53411 CLA +0 50000 0 25433    53412 SUB +0 40200 0 53413    53413 TXH +3 00000 0 25475    53414 STA +0 62100 0 53420
 53415 TSX +0 07400 4 00005    53416 TXH +3 00000 0 00027    53417 TXH +3 00000 0 00026    53420 TIX +2 51210 0 00000
 53421 TXH +3 00000 0 00044
                 PRINT COMMENT $SYSTEM PRELOAD UNSUCCESSFUL$                        261  LM00336
 53422 TSX +0 07400 4 00016    53423     +0 00000 0 00005    53424     -2 27062 6 32544    53425     -2 04751 2 54346
 53426     +2 12460 6 44562    53427     -2 42323 2 56262    53430     +2 66443 6 06060
                 PRNTP.(LCM)                                                        262  LM00337
 53431 TSX +0 07400 4 00022    53432 TXH +3 00000 0 25430
                 PRNTP.(HPC)                                                        263  LM00338
 53433 TSX +0 07400 4 00022    53434 TXH +3 00000 0 25410
                 PRNTP.(DIFC)                                                       264  LM00339
 53435 TSX +0 07400 4 00022    53436 TXH +3 00000 0 02552
                 W'R MFARAY .E. 0, T'O MECK                                         265  LM00340
 53437 CLA +0 50000 0 27022    53440 SUB +0 40200 0 51162    53441 TNZ -0 10000 0 53443    53442 TRA +0 02000 0 00057
                 T'H LOOP15, FOR IC = 0,1,IC .G. 4                                  266  LM00344
 53443 CLA +0 50000 0 51162    53444 STO +0 60100 0 25413    53445 TRA +0 02000 0 53451    53446 CLA +0 50000 0 25413
 53447 ADD +0 40000 0 51163    53450 STO +0 60100 0 25413    53451 CLA +0 50000 0 25413    53452 SUB +0 40200 0 51166
 53453 TZE +0 10000 0 53455    53454 TPL +0 12000 0 53464
      LOOP15     LINE(LC-IC) = SUM2(IC)                                             267  LM00345
 53455 CLA +0 50000 0 25433    53456 SUB +0 40200 0 25413    53457 PAX +0 73400 1 00000    53460 LXA +0 53400 2 25413
 53461 CLA +0 50000 2 27444    53462 STO +0 60100 1 25475    53463 TRA +0 02000 0 53446
                 BFWRIT.(N1,NA2,LINE(LC)...5,ERR4)                                  268  LM00346
 53464 CLA +0 50000 0 25433    53465 SUB +0 40200 0 53466    53466 TXH +3 00000 0 25475    53467 STA +0 62100 0 53473
 53470 TSX +0 07400 4 00005    53471 TXH +3 00000 0 00027    53472 TXH +3 00000 0 00026    53473 TIX +2 51167 0 00000
 53474 TXH +3 00000 0 00044
                 PRINT COMMENT $MISSING FILES ARE$                                  269  LM00347
 53475 TSX +0 07400 4 00016    53476     +0 00000 0 00003    53477     -0 43162 6 23145    53500     +2 76026 3 14325
 53501     -2 26021 5 12560
                 LINE(LC) = 777777000003K                                           270  LM00348
 53502 LXA +0 53400 1 25433    53503 CLA +0 50000 0 51227    53504 STO +0 60100 1 25475
                 LINE(LC-2) = BLANK                                                 271  LM00349
 53505 CLA +0 50000 0 25433    53506 SUB +0 40200 0 51164    53507 PAX +0 73400 1 00000    53510 CLA +0 50000 0 00115
 53511 STO +0 60100 1 25475
                 T'H LOOP16, FOR IC = 1,1,IC .G. MFARAY                             272  LM00350
 53512 CLA +0 50000 0 51163    53513 STO +0 60100 0 25413    53514 TRA +0 02000 0 53520    53515 CLA +0 50000 0 25413
 53516 ADD +0 40000 0 51163    53517 STO +0 60100 0 25413    53520 CLA +0 50000 0 25413    53521 SUB +0 40200 0 27022
 53522 TZE +0 10000 0 53524    53523 TPL +0 12000 0 53550
                 LINE(LC-3) = MFARAY(IC)                                            273  LM00351
 53524 CLA +0 50000 0 25433    53525 SUB +0 40200 0 51165    53526 PAX +0 73400 1 00000    53527 LXA +0 53400 2 25413
 53530 CLA +0 50000 2 27022    53531 STO +0 60100 1 25475
                 NASTY(0) = MFARAY(IC)                                              274  LM00352
 53532 CLA +0 50000 2 27022    53533 STO +0 60100 0 27337
                 PRNTP.(NASTY)                                                      275  LM00353
 53534 TSX +0 07400 4 00022    53535 TXH +3 00000 0 27337
      LOOP16     BFWRIT.(N1,NA2,LINE(LC)...4,ERR4)                                  276  LM00354
 53536 CLA +0 50000 0 25433    53537 SUB +0 40200 0 53540    53540 TXH +3 00000 0 25475    53541 STA +0 62100 0 53545
 53542 TSX +0 07400 4 00005    53543 TXH +3 00000 0 00027    53544 TXH +3 00000 0 00026    53545 TIX +2 51166 0 00000
 53546 TXH +3 00000 0 00044    53547 TRA +0 02000 0 53515
      MECK       W'R MEARAY .E. 0, T'O MUCK                                         277  LM00355
 53550 CLA +0 50000 0 26633    53551 SUB +0 40200 0 51162    53552 TNZ -0 10000 0 53554    53553 TRA +0 02000 0 00061
                 T'H LOOP17, FOR IC = 0,1,IC .G. 5                                  278  LM00359
 53554 CLA +0 50000 0 51162    53555 STO +0 60100 0 25413    53556 TRA +0 02000 0 53562    53557 CLA +0 50000 0 25413
 53560 ADD +0 40000 0 51163    53561 STO +0 60100 0 25413    53562 CLA +0 50000 0 25413    53563 SUB +0 40200 0 51167
 53564 TZE +0 10000 0 53566    53565 TPL +0 12000 0 53575
      LOOP17     LINE(LC-IC) = SUM3(IC)                                             279  LM00360
 53566 CLA +0 50000 0 25433    53567 SUB +0 40200 0 25413    53570 PAX +0 73400 1 00000    53571 LXA +0 53400 2 25413
 53572 CLA +0 50000 2 27452    53573 STO +0 60100 1 25475    53574 TRA +0 02000 0 53557
                 BFWRIT.(N1,NA2,LINE(LC)...6,ERR4)                                  280  LM00361
 53575 CLA +0 50000 0 25433    53576 SUB +0 40200 0 53577    53577 TXH +3 00000 0 25475    53600 STA +0 62100 0 53604
 53601 TSX +0 07400 4 00005    53602 TXH +3 00000 0 00027    53603 TXH +3 00000 0 00026    53604 TIX +2 51170 0 00000
 53605 TXH +3 00000 0 00044
                 PRINT COMMENT $MISSING ENTRY POINTS ARE$                           281  LM00362
 53606 TSX +0 07400 4 00016    53607     +0 00000 0 00004    53610     -0 43162 6 23145    53611     +2 76025 4 56351
 53612     -3 06047 4 63145    53613     -2 36260 2 15125
                 LINE(LC) = 777777000003K                                           282  LM00363
 53614 LXA +0 53400 1 25433    53615 CLA +0 50000 0 51227    53616 STO +0 60100 1 25475
                 LINE(LC-2) = BLANK                                                 283  LM00364
 53617 CLA +0 50000 0 25433    53620 SUB +0 40200 0 51164    53621 PAX +0 73400 1 00000    53622 CLA +0 50000 0 00115
 53623 STO +0 60100 1 25475
                 T'H LOOP18, FOR IC = 1,1,IC .G. MEARAY                             284  LM00365
 53624 CLA +0 50000 0 51163    53625 STO +0 60100 0 25413    53626 TRA +0 02000 0 53632    53627 CLA +0 50000 0 25413
 53630 ADD +0 40000 0 51163    53631 STO +0 60100 0 25413    53632 CLA +0 50000 0 25413    53633 SUB +0 40200 0 26633
 53634 TZE +0 10000 0 53636    53635 TPL +0 12000 0 53662
                 LINE(LC-3) = MEARAY(IC)                                            285  LM00366
 53636 CLA +0 50000 0 25433    53637 SUB +0 40200 0 51165    53640 PAX +0 73400 1 00000    53641 LXA +0 53400 2 25413
 53642 CLA +0 50000 2 26633    53643 STO +0 60100 1 25475
                 NASTY(0) = MEARAY(IC)                                              286  LM00367
 53644 CLA +0 50000 2 26633    53645 STO +0 60100 0 27337
                 PRNTP.(NASTY)                                                      287  LM00368
 53646 TSX +0 07400 4 00022    53647 TXH +3 00000 0 27337
      LOOP18     BFWRIT. (N1,NA2,LINE(LC)...4,ERR4)                                 288  LM00369
 53650 CLA +0 50000 0 25433    53651 SUB +0 40200 0 53652    53652 TXH +3 00000 0 25475    53653 STA +0 62100 0 53657
 53654 TSX +0 07400 4 00005    53655 TXH +3 00000 0 00027    53656 TXH +3 00000 0 00026    53657 TIX +2 51166 0 00000
 53660 TXH +3 00000 0 00044    53661 TRA +0 02000 0 53627
      MUCK       W'R MULT .E. 0, T'O END                                            289  LM00370
 53662 CLA +0 50000 0 27334    53663 SUB +0 40200 0 51162    53664 TNZ -0 10000 0 53666    53665 TRA +0 02000 0 00032
                 T'H LOOP19, FOR IC = 0,1,IC .G. 6                                  290  LM00374
 53666 CLA +0 50000 0 51162    53667 STO +0 60100 0 25413    53670 TRA +0 02000 0 53674    53671 CLA +0 50000 0 25413
 53672 ADD +0 40000 0 51163    53673 STO +0 60100 0 25413    53674 CLA +0 50000 0 25413    53675 SUB +0 40200 0 51170
 53676 TZE +0 10000 0 53700    53677 TPL +0 12000 0 53707
      LOOP19     LINE(LC-IC) = SUM4(IC)                                             291  LM00375
 53700 CLA +0 50000 0 25433    53701 SUB +0 40200 0 25413    53702 PAX +0 73400 1 00000    53703 LXA +0 53400 2 25413
 53704 CLA +0 50000 2 27461    53705 STO +0 60100 1 25475    53706 TRA +0 02000 0 53671
                 BFWRIT.(N1,NA2,LINE(LC)...7,ERR4)                                  292  LM00376
 53707 CLA +0 50000 0 25433    53710 SUB +0 40200 0 53711    53711 TXH +3 00000 0 25475    53712 STA +0 62100 0 53716
 53713 TSX +0 07400 4 00005    53714 TXH +3 00000 0 00027    53715 TXH +3 00000 0 00026    53716 TIX +2 51171 0 00000
 53717 TXH +3 00000 0 00044
                 PRINT COMMENT $DUPLICATED ENTRY POINTS ARE$                        293  LM00377
 53720 TSX +0 07400 4 00016    53721     +0 00000 0 00005    53722     +2 46447 4 33123    53723     +2 16325 2 46025
 53724     -0 56351 7 06047    53725     -0 63145 6 36260    53726     +2 15125 6 06060
                 LINE(LC) = 777777000003K                                           294  LM00378
 53727 LXA +0 53400 1 25433    53730 CLA +0 50000 0 51227    53731 STO +0 60100 1 25475
                 LINE (LC-2) = BLANK                                                295  LM00379
 53732 CLA +0 50000 0 25433    53733 SUB +0 40200 0 51164    53734 PAX +0 73400 1 00000    53735 CLA +0 50000 0 00115
 53736 STO +0 60100 1 25475
                 T'H LOOP20, FOR IC = 1,1,IC .G. MULT                               296  LM00380
 53737 CLA +0 50000 0 51163    53740 STO +0 60100 0 25413    53741 TRA +0 02000 0 53745    53742 CLA +0 50000 0 25413
 53743 ADD +0 40000 0 51163    53744 STO +0 60100 0 25413    53745 CLA +0 50000 0 25413    53746 SUB +0 40200 0 27334
 53747 TZE +0 10000 0 53751    53750 TPL +0 12000 0 53775
                 LINE(LC-3) = MULT(IC)                                              297  LM00381
 53751 CLA +0 50000 0 25433    53752 SUB +0 40200 0 51165    53753 PAX +0 73400 1 00000    53754 LXA +0 53400 2 25413
 53755 CLA +0 50000 2 27334    53756 STO +0 60100 1 25475
                 NASTY(0) = MULT(IC)                                                298  LM00382
 53757 CLA +0 50000 2 27334    53760 STO +0 60100 0 27337
                 PRNTP.(NASTY)                                                      299  LM00383
 53761 TSX +0 07400 4 00022    53762 TXH +3 00000 0 27337
      LOOP20     BFWRIT.(N1,NA2,LINE(LC)...4,ERR4)                                  300  LM00384
 53763 CLA +0 50000 0 25433    53764 SUB +0 40200 0 53765    53765 TXH +3 00000 0 25475    53766 STA +0 62100 0 53772
 53767 TSX +0 07400 4 00005    53770 TXH +3 00000 0 00027    53771 TXH +3 00000 0 00026    53772 TIX +2 51166 0 00000
 53773 TXH +3 00000 0 00044    53774 TRA +0 02000 0 53742
                 T'O END                                                            301  LM00385
 53775 TRA +0 02000 0 00032
      ERR4       PRNTER.                                                            302  LM00386
 53776 TSX +0 07400 4 00021
      END        BFCLOS.(N1,NA2,END2)                                               303  LM00387
 53777 TSX +0 07400 4 00002    54000 TXH +3 00000 0 00027    54001 TXH +3 00000 0 00026    54002 TXH +3 00000 0 00031
      END2       CHNCOM.(0)                                                         304  LM00388
 54003 TSX +0 07400 4 00007    54004 TXH +3 00000 0 51162
                 E'M                                                                305  LM00389
 54005 TSX +0 07400 4 00013


PUSAVE   BCD 09/20/68 0220.6    2650         00000
1      ... PUSAV, REDUCE SAVED FILE TO ABS CARDS                                                 PAGE 1


                              FUNC   MACRO   N,A
                                     TSX     N,4           CALL SUBROUTINE
                                     ARGF    (A)           GENERATE ARGUMENTS
                              FUNC   END

                              ARGF   MACRO   NAMES
                                     IRP     NAMES
                                     PAR     NAMES         GENERATE INDIVIDUAL PARAMETERS
                                     IRP
                              ARGF   END

             3 00001 1 60000  PAR    OPSYN   PTH
             2 00017 1 60000  BLK    OPSYN   TIX


        TRANSFER VECTOR
      00000  222646472545     BFOPEN
      00001  222651252124     BFREAD
      00002  222666513163     BFWRIT
      00003  222623434662     BFCLOS
      00004  222623462425     BFCODE
      00005  272563234644     GETCOM
      00006  242543263143     DELFIL
      00007  272563442544     GETMEM
      00010  622563442544     SETMEM
      00011  233045234644     CHNCOM
      00012  665126436760     WRFLX
      00013  452567234644     NEXCOM
      00014  242521246060     DEAD

                       00660  BFSIZ  EQU     432

                                     EXTERN  BFOPEN,BFREAD,BFWRIT,BFCLOS,BFCODE
                                     EXTERN  GETCOM,DELFIL,GETMEM,SETMEM,CHNCOM,WRFLX,NEXCOM,DEAD


      00015  0074 00 4 00005         TSX     GETCOM,4      PICK UP NAME OF SAVED FILE
      00016  0 00000 0 00001                 1             ..
      00017  0602 00 0 00275         SLW     FLNAM         ..

      00020  0074 00 4 00006         TSX     DELFIL,4
      00021                          ARGF    (FLNAM,ABNAM,DELERR,SKIPC)  DELETE OLD 'ABS' FILE

      00025  0074 00 4 00007  DEL.OK TSX     GETMEM,4      GET CURRENT MEMORY LIMITS
      00026  0621 00 0 00046         STA     B1            FIRST READ BUFFER
      00027  0361 00 0 00237         ACL     BF            ..
      00030  0621 00 0 00047         STA     B2            SECOND
      00031  0361 00 0 00237         ACL     BF            ..
      00032  0621 00 0 00100         STA     B3            FIRST WRITE BUFFER
      00033  0621 00 0 00070         STA     SKIPL         AND LOCATION FOR NON-TRANSMIT
      00034  0361 00 0 00237         ACL     BF            ..
      00035  0621 00 0 00101         STA     B4            SECOND
1      ... PUSAV, REDUCE SAVED FILE TO ABS CARDS                                                 PAGE 2

      00036  0361 00 0 00237         ACL     BF            ..
      00037  0621 00 0 00102         STA     B5            THIRD
      00040  0361 00 0 00237         ACL     BF            ..
      00041  0074 00 4 00010         TSX     SETMEM,4      UP MEMORY LIMIT

      00042                          FUNC    BFOPEN(=HR,FLNAM,SVNAM)  FIRST PARAMETERS
      00046  3 00000 0 00000  B1     PAR     **            FIRST BUFFER
      00047  3 00000 0 00000  B2     PAR     **            SECOND
      00050                          ARGF    (=-0,OPRD.)

      00052                          FUNC    BFREAD(FLNAM,SVNAM(MEMBND,,2)ILLEGL,=-0,RD1.)

      00061 -0534 00 4 00303         LXD     MEMBND,4      GET COUNT OF MACHINE CONDITIONS
      00062  1 77777 4 00063         TXI     *+1,4,-1      ONE HAS ALREADY BEEN SKIPPED
      00063  3 02420 4 00177         TXH     ILLEGL,4,3*BFSIZ  ERROR IF M.C. SECTION TOO LONG
      00064  0634 00 4 00302         SXA     SKIPC,4       COUNT FOR NON-TRANSMIT READ

      00065                          FUNC    BFREAD(FLNAM,SVNAM)
      00070  2 00302 0 00000  SKIPL  BLK     **,,SKIPC     ..
      00071                          ARGF    (ILLEGL,=-0,RD1.)

      00074                          FUNC    BFOPEN(=HW,FLNAM,ABNAM)
      00100  3 00000 0 00000  B3     PAR     **            ..
      00101  3 00000 0 00000  B4     PAR     **
      00102  3 00000 0 00000  B5     PAR     **
      00103                          ARGF    (OPNW.)

      00104  0534 00 1 00303         LXA     MEMBND,1      GET CORE IMAGE WORD COUNT
      00105 -2 00026 1 00117  PUABS1 TNX     PUABS2,1,22   SKIP IF FEWER THAN 22 WORDS LEFT

      00106                          FUNC    BFREAD(FLNAM,SVNAM(DATA,,22)ILLEGL,=-0,RD1.)

      00115  0074 00 4 00207         TSX     PUNCH,4       PUNCH THIS CARD
      00116  0020 00 0 00105         TRA     PUABS1

      00117  0634 00 1 00302  PUABS2 SXA     SKIPC,1       SAVE COUNT FOR LAST READ
      00120  0774 00 2 00026         AXT     22,2          ..
      00121  0600 00 2 00271         STZ     DATA+22,2     CLEAR CARD BUFFER
      00122  2 00001 2 00121         TIX     *-1,2,1       ..

      00123                          FUNC    BFREAD(FLNAM,SVNAM)
      00126  2 00302 0 00243         BLK     DATA,,SKIPC
      00127                          ARGF    (ILLEGL,=-0,RD1.)

      00132  0074 00 4 00207         TSX     PUNCH,4       PUNCH LAST CARD

      00133  0774 00 2 00027         AXT     23,2          CLEAR CARD AREA
      00134  0600 00 2 00271         STZ     CARD+24,2     ..
      00135  2 00001 2 00134         TIX     *-1,2,1       ..
      00136 -0500 00 0 00304         CAL     ILC           SET UP TRANSFER CARD
      00137 -0320 00 0 00307         ANA     =O77777       .. GET STARTING ADDRESS
      00140 -0501 00 0 00240         ORA     79PNCH        .. 7-9 PUNCHES
      00141  0602 00 0 00241         SLW     CARD          .. ILC TO 9-ROW LEFT
1      ... PUSAV, REDUCE SAVED FILE TO ABS CARDS                                                 PAGE 3

      00142                          FUNC    BFWRIT(FLNAM,ABNAM(CARD,,28)WR1.)

      00147                          FUNC    BFCLOS(FLNAM,ABNAM,WR2.)

      00153                          FUNC    BFCLOS(FLNAM,SVNAM,RD2.)

      00157  0074 00 4 00011         TSX     CHNCOM,4      EXIT TO CTSS OR NEXT COMMAND
      00160  0 00000 0 00000                 0             .. DEAD STATUS

                       00161  OPRD.  SYN     *
                       00161  RD1.   SYN     *
                       00161  OPNW.  SYN     *
                       00161  WR1.   SYN     *
                       00161  WR2.   SYN     *
                       00161  RD2.   SYN     *

      00161  0634 00 4 00167  BFERR  SXA     BFX4,4
      00162                          FUNC    BFCODE()
      00163  0100 00 0 00174         TZE     GOPRNT
      00164 -0602 00 0 00301         ORS     BFMES+1
      00165  0074 00 4 00012         TSX     WRFLX,4
      00166  0 00002 0 00300                 BFMES,,2

      00167  0774 00 4 00000  BFX4   AXT     **,4
      00170  1 00001 4 00305         TXI     DORMNT,4,1

                                     RMT
                              DORMNT TIA     =HDORMNT
                                     RMT

      00171 -0500 00 0 00302  DELERR CAL     SKIPC
      00172  0402 00 0 00306         SUB     =5
      00173 -0120 00 0 00025         TMI     DEL.OK

      00174 -0500 00 0 00313  GOPRNT CAL     =HPRNTER
      00175  0560 00 0 00311         LDQ     =O377777777777
      00176  0074 00 4 00013         TSX     NEXCOM,4

      00177  0074 00 4 00012  ILLEGL TSX     WRFLX,4
      00200  0 00005 0 00202                 ILLCOM,,5
      00201  0074 00 4 00014         TSX     DEAD,4        EXIT TO CTSS ON ILLEGAL EOF

      00202  622165252460     ILLCOM BCI     5,SAVED FILE HAS ILLEGAL FORMAT

                              *  *  *  *  *  *  *  *  *  *  *  *  *  *  *  *  *  *  *  *  *  *  *  *

                                             PUNCH ..... COMPUTE CHECKSUM AND WRITE OUT BINARY CARD

      00207  0634 00 4 00235  PUNCH  SXA     PUNX4,4
      00210 -0774 00 4 00026         AXC     22,4
      00211 -0500 00 4 00242  PUN1   CAL     DATA-1,4      CHECK FOR CARD OF ALL ZEROS
      00212 -0100 00 0 00215         TNZ     PUN2          .. SKIP WHEN NON-ZERO WORD FOUND
      00213  3 77776 4 00232         TXH     PUN3,4,-2     CHECK FOR END OF CARD
      00214  1 00001 4 00211         TXI     PUN1,4,1      INCREMENT INDEX, TEST NEXT DATA WORD
1      ... PUSAV, REDUCE SAVED FILE TO ABS CARDS                                                 PAGE 4

      00215 -0756 00 4 00000  PUN2   PCD     ,4            WORD COUNT TO AC
      00216 -0501 00 0 00240         ORA     79PNCH        ADD 7-9 PUNCHES
      00217  0622 00 0 00241         STD     CARD          ADD TO ORIGIN
      00220 -0500 00 0 00241         CAL     CARD          COMPUTE CHECKSUM FOR CARD
      00221  0361 00 4 00242         ACL     DATA-1,4      ..
      00222  3 77776 4 00224         TXH     *+2,4,-2      TEST
      00223  1 00001 4 00221         TXI     *-2,4,1       ADD NEXT WORD
      00224  0602 00 0 00242         SLW     CHKSUM        SAVE LOGICAL CHECKSUM

      00225                          FUNC    BFWRIT(FLNAM,ABNAM(CARD,,28)WR1.)

      00232  0534 00 4 00241  PUN3   LXA     CARD,4        BUMP ORIGIN FOR NEXT CARD
      00233  1 00026 4 00234         TXI     *+1,4,22      ..
      00234  0634 00 4 00241         SXA     CARD,4        ..
      00235  0774 00 4 00000  PUNX4  AXT     **,4          AND RETURN
      00236  0020 00 4 00001         TRA     1,4           ..

                              *  *  *  *  *  *  *  *  *  *  *  *  *  *  *  *  *  *  *  *  *  *  *  *

      00237  0 00000 0 00660  BF     PZE     BFSIZ         ..
      00240  000500000000     79PNCH VFD     O12/5         7-9 PUNCH FOR BINARY CARD

      00241  0 00000 0 00000  CARD   PZE     0,,**         LOADING ORIGIN FOR FIRST CARD
      00242  0 00000 0 00000  CHKSUM PZE     0             ..
      00243                   DATA   BSS     22            .. 22 BINARY DATA WORDS
      00271 +000000000000            OCT     0,0,0,0       .. ZEROS TO FILL OUT CARD TO 28 WORDS

      00275  545454545454     FLNAM  BCI     1,******      FILE NAME

      00276  606221652524     SVNAM  BCI     1, SAVED
      00277  606060212262     ABNAM  BCI     1,   ABS

      00300  142226146025     BFMES  BCI     2,'BF' ERROR 0

      00302  0 00000 0 00000  SKIPC  PZE     0             WORD COUNT FOR STRANGE READING

      00303  0 00000 0 00000  MEMBND PZE     0             FIRST TWO WORDS FROM 'SAVED' FILE
      00304  0 00000 0 00000  ILC    PZE     0             ..

      00305                          RMT     *             FORCE REMOTE SEQUENCES
      00305  0101 00 0 00310  DORMNT TIA     =HDORMNT                                                         .001

                                     END

        LITERALS
      00306  000000000005
      00307  000000077777
      00310  244651444563
      00311  377777777777
      00312  400000000000
      00313  475145632551
      00314  516060606060
      00315  666060606060
1      ... PUSAV, REDUCE SAVED FILE TO ABS CARDS                                                 PAGE 1
                        POST PROCESSOR ASSEMBLY DATA

        316 IS THE FIRST LOCATION NOT USED BY THIS PROGRAM

0REFERENCES TO DEFINED SYMBOLS
         46     B1    26
         47     B2    30
        100     B3    32
        101     B4    35
        102     B5    37
        237     BF    27,   31,   34,   36,   40
        304    ILC   136
        167   BFX4   161
        241   CARD   134,  141,  145,  217,  220,  230,  232,  234
        243   DATA   111,  121,  126,  211,  221
         14   DEAD   201
        211   PUN1   214
        215   PUN2   212
        232   PUN3   213
        161   RD1.    60,   73,  114,  131,  161
        161   RD2.   156,  161
        161   WR1.   146,  161,  231
        161   WR2.   152,  161
        277  ABNAM    22,   77,  144,  151,  227
        161  BFERR
        300  BFMES   164,  166
        660  BFSIZ    15,   63,  237
        275  FLNAM    17,   21,   44,   53,   66,   76,  107,  124,  143,  150,  154,  226
        161  OPNW.   103,  161
        161  OPRD.    51,  161
        207  PUNCH   115,  132
        235  PUNX4   207
        302  SKIPC    24,   64,   70,  117,  126,  171
         70  SKIPL    33
        276  SVNAM    45,   54,   67,  110,  125,  155
         12  WRFLX   165,  177
        240 79PNCH   140,  216
          3 BFCLOS   147,  153
          4 BFCODE   162
          0 BFOPEN    42,   74
          1 BFREAD    52,   65,  106,  123
          2 BFWRIT   142,  225
        242 CHKSUM   224
         11 CHNCOM   157
        171 DELERR    23
          6 DELFIL    20
         25 DEL.OK   173
        305 DORMNT   170
          5 GETCOM    15
          7 GETMEM    25
        174 GOPRNT   163
        202 ILLCOM   200
        177 ILLEGL    56,   63,   71,  112,  127
        303 MEMBND    55,   61,  104
         13 NEXCOM   176
        105 PUABS1   116
1      ... PUSAV, REDUCE SAVED FILE TO ABS CARDS                                                 PAGE 2
                        POST PROCESSOR ASSEMBLY DATA

        117 PUABS2   105
         10 SETMEM    41

0 NO ERROR IN ABOVE ASSEMBLY.


 PRIME   BCD 09/20/68 0220.6    9689         00000
1     MAD PROGRAM LISTING ... ... ...                 FILE   PRIME   MAD            03/01/68    1939.1
-
                  PRIMER FOR THE DAEMON'S FILES  - ROGER ROACH  2-28-68                                LM00001
                  TO BE USED TO RESET THE DATE DAEMON IS DUMPING FROM                                  LM00002
                                                                                                       LM00003
                  USAGE:                                                                               LM00004
                     INTERRUPT THE DAEMON                                                              LM00005
                     R PRIME                                                                           LM00006
                      TYPE IN THE REQUESTED DATE AND TIME                                              LM00007
                                                                                                       LM00008
                  IT FIRST DELETES THE DRSTOR FILES ON DAEMON'S DIRECTORY                              LM00009
                  THEN CREATES A DRSTOR FILE.3 USING THE TIME AND DATE.                                LM00010
                                                                                                       LM00011
                  IF THE USER IS NOT PRIVILEGED ENOUGH BUT HAS CORE PATCH                              LM00012
                  PRIVILEGES, IT WILL PATCH URCODE TO A PRIVILEGED                                     LM00013
                  COMMAND.                                                                             LM00014
                                                                                                       LM00015
                  THIS PROGRAM IS RESTRICTED TO M1416 USERS AND C33 960.                               LM00016
                                                                                                       LM00017
                  NORMAL MODE IS INTEGER                                                          *001 LM00018
                  DIMENSION BUFF(431),ME(1)                                                       *002 LM00019
                  DIMENSION DATE(1), T(2)                                                         *003 LM00020
                  EQUIVALENCE (DATE(1),TIME)                                                      *004 LM00021
                  VECTOR VALUES SYS = $ C0056$                                                    *005 LM00022
                  VECTOR VALUES DAEMON = $ 99999$                                                 *006 LM00023
                  VECTOR VALUES DRSTOR = $DRSTOR$                                                 *007 LM00024
                  VECTOR VALUES FILE1  = $FILE.1$                                                 *008 LM00025
                  VECTOR VALUES FILE2  = $FILE.2$                                                 *009 LM00026
                  VECTOR VALUES FILE3  = $FILE.3$                                                 *010 LM00027
                  VECTOR VALUES PRVUSR = 16K                                                      *011 LM00028
                  VECTOR VALUES CORPAT = 2K1                                                      *012 LM00029
                  VECTOR VALUES PATKEY = 2K4                                                      *013 LM00030
                  VECTOR VALUES MZE = -0                                                          *014 LM00031
                  VECTOR VALUES BL = 605757575757K                                                *015 LM00032
                  VECTOR VALUES SLPTIM = 10                                                       *016 LM00033
                                                                                                       LM00034
                  FIRST TEST FOR CORRECT USER                                                          LM00035
                                                                                                       LM00036
                  WHOAMI.(ME(1)...2)                                                              *017 LM00037
                  WHENEVER (ME(1).NE.$ M1416$).AND.(ME(1).NE.$C0033$.OR.ME.NE.                    *018 LM00038
                1   $   960$),TSK.                                                                *018 LM00039
                  PRMESS.($ THIS IS THE DAEMON PRIMER$)                                           *019 LM00040
                  PRMESS.($ TYPE A C.R. TO CONTINUE.$)                                            *020 LM00041
                  RDFLXC.(DATE,12)                                                                *021 LM00042
                  ATTNAM.(ME(1)...2)                                                              *022 LM00043
                                                                                                       LM00044
                  NOW CHECK THE PRIVILEGES AND MAKE SURE WE CAN DO OUR STUFF.                          LM00045
                                                                                                       LM00046
                  URCLOC = COMLOC.($URCODE$)                                                      *023 LM00047
                  URCODE = GLOC.(URCLOC)                                                          *024 LM00048
                  WHENEVER URCODE.A.PRVUSR.E.PRVUSR, TRANSFER TO OK                               *025 LM00049
                  IF A PRIV. COMMAND OR USER HAS ENOUGH PRIV, OK                                       LM00050
                                                                                                       LM00051
                  OTHERWISE SEE IF HE CAN PATCH CORE, IF NOT TOO BAD.                                  LM00052
                                                                                                       LM00053
                  WHENEVER URCODE.A.CORPAT.NE.CORPAT                                              *026 LM00054
                       PRMESS.($INSUFFICIENT PRIVILEGES $)                                        *027 LM00055
                       CHNCOM.(0)                                                                 *028 LM00056
                  END OF CONDITIONAL                                                              *029 LM00057
                                                                                                       LM00058
                  WE CAN PATCH CORE.  MAKE SURE KEY 22 IS DOWN.                                        LM00059
                                                                                                       LM00060
      TSTKEY      WHENEVER KEY.(0).A.PATKEY.NE.PATKEY                                             *030 LM00061
                       PRMESS.($KEY 22 IS NOT YET DOWN$)                                          *031 LM00062
                       PRMESS.($  WILL RETRY IN 10 SECONDS.$)                                     *032 LM00063
                       SLPTIM = SLPTIM                                                            *033 LM00064
                       SLEEP.(0)                                                                  *034 LM00065
                       TRANSFER TO TSTKEY                                                         *035 LM00066
                  END OF CONDITIONAL                                                              *036 LM00067
                                                                                                       LM00068
                  SLOC.(URCODE.V.PRVUSR,URCLOC)                                                   *037 LM00069
                                                                                                       LM00070
                  OK, NOW DELETE THE FILES AND CREATE A NEW ONE FOR DAEMON.                            LM00071
                                                                                                       LM00072
      OK          FERRTN.(FATERR)                                                                 *038 LM00073
                  ATTACH.(SYS,DAEMON,ATTERR)                                                      *039 LM00074
                  CHFILE.(DRSTOR,FILE1,1,MZE,MZE,NO1)                                             *040 LM00075
                  DELFIL.(DRSTOR,FILE1)                                                           *041 LM00076
      NO1         CHFILE.(DRSTOR,FILE2,1,MZE,MZE,NO2)                                             *042 LM00077
                  DELFIL.(DRSTOR,FILE2)                                                           *043 LM00078
      NO2         CHFILE.(DRSTOR,FILE3,1,MZE,MZE,NO3)                                             *044 LM00079
                  DELFIL.(DRSTOR,FILE3)                                                           *045 LM00080
      NO3         PRMESS.($NOW TYPE IN THE DATE AND TIME TO RESET DAEMON.$)                       *046 LM00081
                  PRMESS.($EXAMPLE: '0612681925.0' FOR JUNE 12, 1968 AT 1925$)                    *047 LM00082
      GETDAT      A = RDFLXC.(DATE(0),12)                                                         *048 LM00083
                  WHENEVER A .L. 12                                                               *049 LM00084
      BADDAT           PRMESS.($ BAD DATE OR TIME,$,BL,DATE,BL,TIME,                              *050 LM00085
                1           $ - TRY AGAIN.$)                                                      *050 LM00086
                       TRANSFER TO GETDAT                                                         *051 LM00087
                  END OF CONDITIONAL                                                              *052 LM00088
                  CKDATE.(DATE,TIME,BADDAT)                                                       *053 LM00089
                  T(2) = $PROTCT$                                                                 *054 LM00090
                  T(1) = ((BCDEC.(TIME.RS.24.V.$    00$)*60) +                                    *055 LM00091
                1      BCDEC.((TIME.RS.12.A.7777K).V.$    00$))*3600                              *055 LM00092
                  T = DATE                                                                        *056 LM00093
                  OPEN.($W$,DRSTOR,FILE3,120K)                                                    *057 LM00094
                  BUFFER.(DRSTOR,FILE3,BUFF(431)...432)                                           *058 LM00095
                  WRFILE.(DRSTOR,FILE3,0,T(2)...3)                                                *059 LM00096
                  CLOSE.(DRSTOR,FILE3)                                                            *060 LM00097
                  RESETF.(0)                                                                      *061 LM00098
                  ATTACH.(ME(1),ME,ATTERR)                                                        *062 LM00099
                  PRMESS.($ PRIMING COMPLETED.$)                                                  *063 LM00100
                  CHNCOM.(0)                                                                      *064 LM00101
                                                                                                       LM00102
                  COME HERE FOR A FALAT I/O ERROR                                                      LM00103
                                                                                                       LM00104
      FATERR      ATTACH.(ME(1),ME,ATTERR)                                                        *065 LM00105
      ATTERR      NCOM.($PRNTER$,375K)                                                            *066 LM00106
                  END OF PROGRAM                                                                  *067 LM00107
1MAD PROGRAM,TYPE NOV 1963      (ALL NUMBERS ARE OCTAL)
0TOTAL LOCATIONS   01433 TRANSFER VECTOR LENGTH  00031 PROGRAM BEGINS    01056
0VARIABLE STORAGE (A=ARRAY,C=COMMON,E=ERASABLE,DIGIT=MODE)
      A      00045   1        DAEMON 00730 A 1        FILE3  00734 A 1        NO3    00042   4        TIME   00032   1
      ATTERR 00034   4        DATE   00033 A 1        GETDAT 00037   4        OK     00043   4        T      00746 A 1
      BADDAT 00035   4        DRSTOR 00731 A 1        ME     00736 A 1        PATKEY 00740 A 1        TSTKEY 00044   4
      BL     00046 A 1        FATERR 00036   4        MZE    00737 A 1        PRVUSR 00741 A 1        URCLOC 00747   1
      BUFF   00726 A 1        FILE1  00732 A 1        NO1    00040   4        SLPTIM 00742 A 1        URCODE 00750   1
      CORPAT 00727 A 1        FILE2  00733 A 1        NO2    00041   4        SYS    00743 A 1
0FUNCTION DICTIONARY
      ATTACH 00000   1        ATTNAM 00001   1        BCDEC  00002   1        BUFFER 00003   1        CHFILE 00004   1
      CHNCOM 00005   1        CKDATE 00006   1        CLOSE  00007   1        COMLOC 00010   1        DELFIL 00011   1
      EXIT   00012   1        FERRTN 00013   1        GLOC   00014   1        .SETUP 00015   1        KEY    00016   1
      NCOM   00017   1        OPEN   00020   1        PRMESS 00021   1        RDFLXC 00022   1        RESETF 00023   1
      SLEEP  00024   1        SLOC   00025   1        TSK    00026   1        WHOAMI 00027   1        WRFILE 00030   1
0ABSOLUTE CONSTANTS
 00761 +000000000375     01022 -075145632551     01021 -074325632524     01014 -052760234644     01034 -204751314431
 00754 +000000000003     00762 +000000000660     00760 +000000000120     01055 -266060606060     00763 +000000007020
 00757 +000000000074     00756 +000000000030     01040 -206060600000     00764 +000000007777     01023 -075146632363
 01025 -202127213145     01032 -204060635170     01045 -206331442573     00771 +216325604651     01026 -202221246024
 00767 +056060606060     00772 +216360011102     01024 -200111061060     01013 -052560010273     01003 +264651604164
 00766 +020533001460     00765 +010206100111     00777 +253560140006     01002 +256721444743     01012 -044645336060
 01001 +256360242125     01052 -234660512562     01044 -206331442560     01050 -232560214524     01051 -233025602421
 01020 -072560314560     01015 -054666606370     00776 +246233606060     01042 -206225234645     01030 -203145600100
 01036 -205125635170     01041 -206066314343     00775 +244666456060     01053 -236070256360     01031 -203162604546
 01010 -022570600202     00751 +000000000000     01011 -032527256260     01035 -204751316531     01004 +312331254563
 01005 +314562642626     01054 -245123462425     00755 +000000000014     01007 +336060606060     01017 -056331456425
 01046 -206346602346     00770 +216023335133     01047 -206370472560     01000 +255160606060     01016 -056047513144
 01027 -202421254446     01006 +316260633025     01043 -206330316260     01033 -204401040106     00773 +230000030360
 01037 -206060110600     00753 +000000000002     00752 +000000000001     00774 +233000000000
0STATEMENT DICTIONARY
 00034 TXL -301426001423       00035 TXL -301317001304       00036 TXL -301423001417       00037 TXL -301300001274
 00040 TXL -301234001225       00041 TXL -301246001237       00042 TXL -301262001251       00043 TXL -301207001205
 00044 TXL -301157001146
0PROGRAM
                 N'R                                                                001  LM00018
                 D'N BUFF(431),ME(1)                                                002  LM00019
                 D'N DATE(1), T(2)                                                  003  LM00020
                 E'E (DATE(1),TIME)                                                 004  LM00021
                 V'S SYS = $ C0056$                                                 005  LM00022
 01056 TSX +0 07400 4 00015    00743     -2 02300 0 00506
                 V'S DAEMON = $ 99999$                                              006  LM00023
 00730     -2 01111 1 11111
                 V'S DRSTOR = $DRSTOR$                                              007  LM00024
 00731     +2 45162 6 34651
                 V'S FILE1  = $FILE.1$                                              008  LM00025
 00732     +2 63143 2 53301
                 V'S FILE2  = $FILE.2$                                              009  LM00026
 00733     +2 63143 2 53302
                 V'S FILE3  = $FILE.3$                                              010  LM00027
 00734     +2 63143 2 53303
                 V'S PRVUSR = 16K                                                   011  LM00028
 00741     +0 00000 0 00016
                 V'S CORPAT = 2K1                                                   012  LM00029
 00727     +0 00000 0 00020
                 V'S PATKEY = 2K4                                                   013  LM00030
 00740     +0 00000 0 20000
                 V'S MZE = -0                                                       014  LM00031
 00737     -0 00000 0 00000
                 V'S BL = 605757575757K                                             015  LM00032
 00046     -2 05757 5 75757
                 V'S SLPTIM = 10                                                    016  LM00033
 00742     +0 00000 0 00012
                 WHOAMI.(ME(1)...2)                                                 017  LM00037
 01057 TSX +0 07400 4 00027    01060 TIX +2 00753 0 00735
                 W'R (ME(1).NE.$ M1416$).AND.(ME(1).NE.$C0033$.OR.ME.NE.            018  LM00038
                1  $   960$),TSK.                                                   018  LM00039
 01061 CLA +0 50000 0 00736    01062 SUB +0 40200 0 01037    01063 TNZ -0 10000 0 01067    01064 CLA +0 50000 0 00735
 01065 SUB +0 40200 0 00773    01066 TZE +0 10000 0 01073    01067 CLA +0 50000 0 00735    01070 SUB +0 40200 0 01033
 01071 TZE +0 10000 0 01073    01072 TSX +0 07400 4 00026
                 PRMESS.($ THIS IS THE DAEMON PRIMER$)                              019  LM00040
 01073 TSX +0 07400 4 00021    01074 TXH +3 00000 0 01043    01075 TXH +3 00000 0 01006    01076 TXH +3 00000 0 01027
 01077 TXH +3 00000 0 01016    01100 TXH +3 00000 0 01000
                 PRMESS.($ TYPE A C.R. TO CONTINUE.$)                               020  LM00041
 01101 TSX +0 07400 4 00021    01102 TXH +3 00000 0 01047    01103 TXH +3 00000 0 00770    01104 TXH +3 00000 0 01046
 01105 TXH +3 00000 0 01017    01106 TXH +3 00000 0 01007
                 RDFLXC.(DATE,12)                                                   021  LM00042
 01107 TSX +0 07400 4 00022    01110 TXH +3 00000 0 00033    01111 TXH +3 00000 0 00755
                 ATTNAM.(ME(1)...2)                                                 022  LM00043
 01112 TSX +0 07400 4 00001    01113 TIX +2 00753 0 00735
                 URCLOC = COMLOC.($URCODE$)                                         023  LM00047
 01114 TSX +0 07400 4 00010    01115 TXH +3 00000 0 01054    01116 STO +0 60100 0 00747
                 URCODE = GLOC.(URCLOC)                                             024  LM00048
 01117 TSX +0 07400 4 00014    01120 TXH +3 00000 0 00747    01121 STO +0 60100 0 00750
                 W'R URCODE.A.PRVUSR.E.PRVUSR, T'O OK                               025  LM00049
 01122 CAL -0 50000 0 00750    01123 ANA -0 32000 0 00741    01124 SLW +0 60200 0 01427    01125 CLA +0 50000 0 01427
 01126 SUB +0 40200 0 00741    01127 TNZ -0 10000 0 01131    01130 TRA +0 02000 0 00043
                 W'R URCODE.A.CORPAT.NE.CORPAT                                      026  LM00054
 01131 CAL -0 50000 0 00750    01132 ANA -0 32000 0 00727    01133 SLW +0 60200 0 01427    01134 CLA +0 50000 0 01427
 01135 SUB +0 40200 0 00727    01136 TZE +0 10000 0 01146
                      PRMESS.($INSUFFICIENT PRIVILEGES $)                           027  LM00055
 01137 TSX +0 07400 4 00021    01140 TXH +3 00000 0 01005    01141 TXH +3 00000 0 01004    01142 TXH +3 00000 0 01035
 01143 TXH +3 00000 0 01011
                      CHNCOM.(0)                                                    028  LM00056
 01144 TSX +0 07400 4 00005    01145 TXH +3 00000 0 00751
                 E'L                                                                029  LM00057
      TSTKEY     W'R KEY.(0).A.PATKEY.NE.PATKEY                                     030  LM00061
 01146 TSX +0 07400 4 00016    01147 TXH +3 00000 0 00751    01150 STO +0 60100 0 01427    01151 CAL -0 50000 0 01427
 01152 ANA -0 32000 0 00740    01153 SLW +0 60200 0 01427    01154 CLA +0 50000 0 01427    01155 SUB +0 40200 0 00740
 01156 TZE +0 10000 0 01177
                      PRMESS.($KEY 22 IS NOT YET DOWN$)                             031  LM00062
 01157 TSX +0 07400 4 00021    01160 TXH +3 00000 0 01010    01161 TXH +3 00000 0 01031    01162 TXH +3 00000 0 01053
 01163 TXH +3 00000 0 00775
                      PRMESS.($  WILL RETRY IN 10 SECONDS.$)                        032  LM00063
 01164 TSX +0 07400 4 00021    01165 TXH +3 00000 0 01041    01166 TXH +3 00000 0 01036    01167 TXH +3 00000 0 01030
 01170 TXH +3 00000 0 01042    01171 TXH +3 00000 0 00776
                      SLPTIM = SLPTIM                                               033  LM00064
 01172 CLA +0 50000 0 00742    01173 STO +0 60100 0 00742
                      SLEEP.(0)                                                     034  LM00065
 01174 TSX +0 07400 4 00024    01175 TXH +3 00000 0 00751
                      T'O TSTKEY                                                    035  LM00066
 01176 TRA +0 02000 0 00044
                 E'L                                                                036  LM00067
                 SLOC.(URCODE.V.PRVUSR,URCLOC)                                      037  LM00069
 01177 CAL -0 50000 0 00750    01200 ORA -0 50100 0 00741    01201 SLW +0 60200 0 01427    01202 TSX +0 07400 4 00025
 01203 TXH +3 00000 0 01427    01204 TXH +3 00000 0 00747
      OK         FERRTN.(FATERR)                                                    038  LM00073
 01205 TSX +0 07400 4 00013    01206 TXH +3 00000 0 00036
                 ATTACH.(SYS,DAEMON,ATTERR)                                         039  LM00074
 01207 TSX +0 07400 4 00000    01210 TXH +3 00000 0 00743    01211 TXH +3 00000 0 00730    01212 TXH +3 00000 0 00034
                 CHFILE.(DRSTOR,FILE1,1,MZE,MZE,NO1)                                040  LM00075
 01213 TSX +0 07400 4 00004    01214 TXH +3 00000 0 00731    01215 TXH +3 00000 0 00732    01216 TXH +3 00000 0 00752
 01217 TXH +3 00000 0 00737    01220 TXH +3 00000 0 00737    01221 TXH +3 00000 0 00040
                 DELFIL.(DRSTOR,FILE1)                                              041  LM00076
 01222 TSX +0 07400 4 00011    01223 TXH +3 00000 0 00731    01224 TXH +3 00000 0 00732
      NO1        CHFILE.(DRSTOR,FILE2,1,MZE,MZE,NO2)                                042  LM00077
 01225 TSX +0 07400 4 00004    01226 TXH +3 00000 0 00731    01227 TXH +3 00000 0 00733    01230 TXH +3 00000 0 00752
 01231 TXH +3 00000 0 00737    01232 TXH +3 00000 0 00737    01233 TXH +3 00000 0 00041
                 DELFIL.(DRSTOR,FILE2)                                              043  LM00078
 01234 TSX +0 07400 4 00011    01235 TXH +3 00000 0 00731    01236 TXH +3 00000 0 00733
      NO2        CHFILE.(DRSTOR,FILE3,1,MZE,MZE,NO3)                                044  LM00079
 01237 TSX +0 07400 4 00004    01240 TXH +3 00000 0 00731    01241 TXH +3 00000 0 00734    01242 TXH +3 00000 0 00752
 01243 TXH +3 00000 0 00737    01244 TXH +3 00000 0 00737    01245 TXH +3 00000 0 00042
                 DELFIL.(DRSTOR,FILE3)                                              045  LM00080
 01246 TSX +0 07400 4 00011    01247 TXH +3 00000 0 00731    01250 TXH +3 00000 0 00734
      NO3        PRMESS.($NOW TYPE IN THE DATE AND TIME TO RESET DAEMON.$)          046  LM00081
 01251 TSX +0 07400 4 00021    01252 TXH +3 00000 0 01015    01253 TXH +3 00000 0 01020    01254 TXH +3 00000 0 01051
 01255 TXH +3 00000 0 01050    01256 TXH +3 00000 0 01044    01257 TXH +3 00000 0 01052    01260 TXH +3 00000 0 01001
 01261 TXH +3 00000 0 01012
                 PRMESS.($EXAMPLE: '0612681925.0' FOR JUNE 12, 1968 AT 1925$)       047  LM00082
 01262 TSX +0 07400 4 00021    01263 TXH +3 00000 0 01002    01264 TXH +3 00000 0 00777    01265 TXH +3 00000 0 00765
 01266 TXH +3 00000 0 00766    01267 TXH +3 00000 0 01003    01270 TXH +3 00000 0 01013    01271 TXH +3 00000 0 01024
 01272 TXH +3 00000 0 00772    01273 TXH +3 00000 0 00767
      GETDAT     A = RDFLXC.(DATE(0),12)                                            048  LM00083
 01274 TSX +0 07400 4 00022    01275 TXH +3 00000 0 00033    01276 TXH +3 00000 0 00755    01277 STO +0 60100 0 00045
                 W'R A .L. 12                                                       049  LM00084
 01300 CLA +0 50000 0 00045    01301 SUB +0 40200 0 00755    01302 TZE +0 10000 0 01320    01303 TPL +0 12000 0 01320
      BADDAT          PRMESS.($ BAD DATE OR TIME,$,BL,DATE,BL,TIME,                 050  LM00085
                1          $ - TRY AGAIN.$)                                         050  LM00086
 01304 TSX +0 07400 4 00021    01305 TXH +3 00000 0 01026    01306 TXH +3 00000 0 00771    01307 TXH +3 00000 0 01045
 01310 TXH +3 00000 0 00046    01311 TXH +3 00000 0 00033    01312 TXH +3 00000 0 00046    01313 TXH +3 00000 0 00032
 01314 TXH +3 00000 0 01032    01315 TXH +3 00000 0 01025    01316 TXH +3 00000 0 01007
                      T'O GETDAT                                                    051  LM00087
 01317 TRA +0 02000 0 00037
                 E'L                                                                052  LM00088
                 CKDATE.(DATE,TIME,BADDAT)                                          053  LM00089
 01320 TSX +0 07400 4 00006    01321 TXH +3 00000 0 00033    01322 TXH +3 00000 0 00032    01323 TXH +3 00000 0 00035
                 T(2) = $PROTCT$                                                    054  LM00090
 01324 CLA +0 50000 0 01023    01325 STO +0 60100 0 00744
                 T(1) = ((BCDEC.(TIME.RS.24.V.$    00$)*60) +                       055  LM00091
                1     BCDEC.((TIME.RS.12.A.7777K).V.$    00$))*3600                 055  LM00092
 01326 CAL -0 50000 0 00755    01327 STA +0 62100 0 01331    01330 CAL -0 50000 0 00032    01331 LGR -0 76500 0 00000
 01332 ANA -0 32000 0 00764    01333 ORA -0 50100 0 01040    01334 SLW +0 60200 0 01427    01335 TSX +0 07400 4 00002
 01336 TXH +3 00000 0 01427    01337 STO +0 60100 0 01427    01340 CAL -0 50000 0 00756    01341 STA +0 62100 0 01343
 01342 CAL -0 50000 0 00032    01343 LGR -0 76500 0 00000    01344 ORA -0 50100 0 01040    01345 SLW +0 60200 0 01430
 01346 TSX +0 07400 4 00002    01347 TXH +3 00000 0 01430    01350 XCA +0 13100 0 00000    01351 MPY +0 20000 0 00757
 01352 XCA +0 13100 0 00000    01353 ADD +0 40000 0 01427    01354 XCA +0 13100 0 00000    01355 MPY +0 20000 0 00763
 01356 STQ -0 60000 0 00745
                 T = DATE                                                           056  LM00093
 01357 CLA +0 50000 0 00033    01360 STO +0 60100 0 00746
                 OPEN.($W$,DRSTOR,FILE3,120K)                                       057  LM00094
 01361 TSX +0 07400 4 00020    01362 TXH +3 00000 0 01055    01363 TXH +3 00000 0 00731    01364 TXH +3 00000 0 00734
 01365 TXH +3 00000 0 00760
                 BUFFER.(DRSTOR,FILE3,BUFF(431)...432)                              058  LM00095
 01366 TSX +0 07400 4 00003    01367 TXH +3 00000 0 00731    01370 TXH +3 00000 0 00734    01371 TIX +2 00762 0 00047
                 WRFILE.(DRSTOR,FILE3,0,T(2)...3)                                   059  LM00096
 01372 TSX +0 07400 4 00030    01373 TXH +3 00000 0 00731    01374 TXH +3 00000 0 00734    01375 TXH +3 00000 0 00751
 01376 TIX +2 00754 0 00744
                 CLOSE.(DRSTOR,FILE3)                                               060  LM00097
 01377 TSX +0 07400 4 00007    01400 TXH +3 00000 0 00731    01401 TXH +3 00000 0 00734
                 RESETF.(0)                                                         061  LM00098
 01402 TSX +0 07400 4 00023    01403 TXH +3 00000 0 00751
                 ATTACH.(ME(1),ME,ATTERR)                                           062  LM00099
 01404 TSX +0 07400 4 00000    01405 TXH +3 00000 0 00735    01406 TXH +3 00000 0 00736    01407 TXH +3 00000 0 00034
                 PRMESS.($ PRIMING COMPLETED.$)                                     063  LM00100
 01410 TSX +0 07400 4 00021    01411 TXH +3 00000 0 01034    01412 TXH +3 00000 0 01014    01413 TXH +3 00000 0 01021
 01414 TXH +3 00000 0 01007
                 CHNCOM.(0)                                                         064  LM00101
 01415 TSX +0 07400 4 00005    01416 TXH +3 00000 0 00751
      FATERR     ATTACH.(ME(1),ME,ATTERR)                                           065  LM00105
 01417 TSX +0 07400 4 00000    01420 TXH +3 00000 0 00735    01421 TXH +3 00000 0 00736    01422 TXH +3 00000 0 00034
      ATTERR     NCOM.($PRNTER$,375K)                                               066  LM00106
 01423 TSX +0 07400 4 00017    01424 TXH +3 00000 0 01022    01425 TXH +3 00000 0 00761
                 E'M                                                                067  LM00107
 01426 TSX +0 07400 4 00012
1     MAD PROGRAM LISTING ... ... ...                 FILE  CKDATE   MAD            03/01/68    1940.0
-
                  EXTERNAL FUNCTION (DATEIN,TIMEIN,BADATE)                                        *001 LM00001
                  ENTRY TO CKDATE.                                                                *002 LM00002
                  NORMAL MODE IS INTEGER                                                          *003 LM00003
                  STATEMENT LABEL BADATE                                                          *004 LM00004
                  DIMENSION MDY(3), MO(12), MASK(6), SHFT(6)                                      *005 LM00005
                  DATE=DATEIN                                                                     *006 LM00006
                  TIME=TIMEIN                                                                     *007 LM00007
                  WHENEVER (DATE.A.766074606060K).NE.0 .OR. (TIME.A.746070600000K)                *008 LM00008
                1 .NE.0, TRANSFER TO BADATE                                                       *008 LM00009
                  SW=0                                                                            *009 LM00010
                  THROUGH LOOP1, FOR J=0,6,J.G.36                                                 *010 LM00011
                  WHENEVER ((DATE.RS.J).A.77K) .E. 13K .OR. ((TIME.RS.J).A.77K) .E.               *011 LM00012
                1 14K, TRANSFER TO BADATE                                                         *011 LM00013
                  WHENEVER ((DATE.RS.J).A.77K) .E. 14K .OR. ((TIME.RS.J).A.77K) .E.               *012 LM00014
                1 13K, TRANSFER TO BADATE                                                         *012 LM00015
      LOOP1       CONTINUE                                                                        *013 LM00016
      BACK        THROUGH LOOP, FOR I=1,1,I.G.3                                                   *014 LM00017
      LOOP        MDY(I)=((DATE.A.MASK(I)).RS.SHFT(I))*10                                         *015 LM00018
                1 +((DATE.A.MASK(I+3)).RS.SHFT(I+3))                                              *015 LM00019
                  WHENEVER SW.NE.0, TRANSFER TO TIMCHK                                            *016 LM00020
                  MO(2)=28                                                                        *017 LM00021
                  WHENEVER (MDY(3).NE.0).AND.(MDY(3)-(MDY(3)/4)*4).E.0,                           *018 LM00022
                1 MO(2)=29                                                                        *018 LM00023
                  WHENEVER MDY(1).L.1 .OR. MDY(1).G.12, TRANSFER TO BADATE                        *019 LM00024
                  WHENEVER (MDY(3).L.0).OR.(MDY(3).G.99), TRANSFER TO BADATE                      *020 LM00025
                  WHENEVER (MDY(2).L.1).OR.(MDY(2).G.MO(MDY(1))), TRANSFER TO BADATE              *021 LM00026
                  DATE=TIME                                                                       *022 LM00027
                  SW=1                                                                            *023 LM00028
                  TRANSFER TO BACK                                                                *024 LM00029
      TIMCHK      WHENEVER MDY(1).L.0 .OR. MDY(1).GE.24, TRANSFER TO BADATE                       *025 LM00030
                  WHENEVER MDY(2).L.0 .OR. MDY(2).GE.60, TRANSFER TO BADATE                       *026 LM00031
                  FUNCTION RETURN                                                                 *027 LM00032
                  VECTOR VALUES MO=0,31,28,31,30,31,30,31,31,30,31,30,31                          *028 LM00033
                  VECTOR VALUES MDY=0,0,0,0                                                       *029 LM00034
                  VECTOR VALUES MASK=0,770000000000K,77000000K,7700K,7700000000K,770000K          *030 LM00035
                1 ,77K                                                                            *030 LM00036
                  VECTOR VALUES SHFT=0,30,18,6,24,12,0                                            *031 LM00037
                  END OF FUNCTION                                                                 *032 LM00038
1MAD PROGRAM,TYPE NOV 1963      (ALL NUMBERS ARE OCTAL)
0TOTAL LOCATIONS   00415 TRANSFER VECTOR LENGTH  00001 PROGRAM BEGINS    00072
0 PROGRAM IS AN EXTERNAL FUNCTION.   THE FOLLOWING ARE ENTRIES
      CKDATE 00073   0
0VARIABLE STORAGE (A=ARRAY,C=COMMON,E=ERASABLE,DIGIT=MODE)
      BACK   00002   4        J      00006   1        MASK   00015 A 1        SHFT   00045 A 1        TIMCHK 00003   4
      DATE   00004   1        LOOP1  00001   4        MDY    00021 A 1        SW     00046   1        TIME   00047   1
      I      00005   1        LOOP   00001   4        MO     00036 A 1
0FUNCTION DICTIONARY
      EXIT   00000   1
0ABSOLUTE CONSTANTS
 00064 +000000000074     00060 +000000000030     00066 +000000000143     00062 +000000000035     00053 +000000000004
 00061 +000000000034     00055 +000000000012     00052 +000000000003     00056 +000000000013     00057 +000000000014
 00065 +000000000077     00063 +000000000044     00054 +000000000006     00071 -366074606060     00050 +000000000000
 00070 -346070600000     00051 +000000000001     00067 +233000000000
0STATEMENT DICTIONARY
 00002 TXL -300213000201       00003 TXL -300351000340
0PROGRAM
                 EXTERNAL FUNCTION (DATEIN,TIMEIN,BADATE)                           001  LM00001
                 ENTRY TO CKDATE.                                                   002  LM00002
 00072 TRA +0 02000 0 00075    00073 SXA +0 63400 2 00364    00074 TSX +0 07400 2 00364
                 NORMAL MODE IS INTEGER                                             003  LM00003
                 STATEMENT LABEL BADATE                                             004  LM00004
                 DIMENSION MDY(3), MO(12), MASK(6), SHFT(6)                         005  LM00005
                 DATE=DATEIN                                                        006  LM00006
 00075 CLA +0 50000 0 00024    00076 STO +0 60100 0 00004
                 TIME=TIMEIN                                                        007  LM00007
 00077 CLA +0 50000 0 00024    00100 STO +0 60100 0 00047
                 W'R (DATE.A.766074606060K).NE.0 .OR. (TIME.A.746070600000K)        008  LM00008
                1.NE.0, T'O BADATE                                                  008  LM00009
 00101 CAL -0 50000 0 00047    00102 ANA -0 32000 0 00070    00103 SLW +0 60200 0 00411    00104 CLA +0 50000 0 00411
 00105 SUB +0 40200 0 00050    00106 TNZ -0 10000 0 00115    00107 CAL -0 50000 0 00004    00110 ANA -0 32000 0 00071
 00111 SLW +0 60200 0 00411    00112 CLA +0 50000 0 00411    00113 SUB +0 40200 0 00050    00114 TZE +0 10000 0 00116
 00115 TRA +0 02000 0 00024
                 SW=0                                                               009  LM00010
 00116 CLA +0 50000 0 00050    00117 STO +0 60100 0 00046
                 THROUGH LOOP1, FOR J=0,6,J.G.36                                    010  LM00011
 00120 CLA +0 50000 0 00050    00121 STO +0 60100 0 00006    00122 TRA +0 02000 0 00126    00123 CLA +0 50000 0 00006
 00124 ADD +0 40000 0 00054    00125 STO +0 60100 0 00006    00126 CLA +0 50000 0 00006    00127 SUB +0 40200 0 00063
 00130 TZE +0 10000 0 00132    00131 TPL +0 12000 0 00201
                 W'R ((DATE.RS.J).A.77K) .E. 13K .OR. ((TIME.RS.J).A.77K) .E.       011  LM00012
                114K, T'O BADATE                                                    011  LM00013
 00132 CAL -0 50000 0 00006    00133 STA +0 62100 0 00135    00134 CAL -0 50000 0 00047    00135 LGR -0 76500 0 00000
 00136 ANA -0 32000 0 00065    00137 SLW +0 60200 0 00411    00140 CLA +0 50000 0 00411    00141 SUB +0 40200 0 00057
 00142 TZE +0 10000 0 00154    00143 CAL -0 50000 0 00006    00144 STA +0 62100 0 00146    00145 CAL -0 50000 0 00004
 00146 LGR -0 76500 0 00000    00147 ANA -0 32000 0 00065    00150 SLW +0 60200 0 00411    00151 CLA +0 50000 0 00411
 00152 SUB +0 40200 0 00056    00153 TNZ -0 10000 0 00155    00154 TRA +0 02000 0 00024
                 W'R ((DATE.RS.J).A.77K) .E. 14K .OR. ((TIME.RS.J).A.77K) .E.       012  LM00014
                113K, T'O BADATE                                                    012  LM00015
 00155 CAL -0 50000 0 00006    00156 STA +0 62100 0 00160    00157 CAL -0 50000 0 00047    00160 LGR -0 76500 0 00000
 00161 ANA -0 32000 0 00065    00162 SLW +0 60200 0 00411    00163 CLA +0 50000 0 00411    00164 SUB +0 40200 0 00056
 00165 TZE +0 10000 0 00177    00166 CAL -0 50000 0 00006    00167 STA +0 62100 0 00171    00170 CAL -0 50000 0 00004
 00171 LGR -0 76500 0 00000    00172 ANA -0 32000 0 00065    00173 SLW +0 60200 0 00411    00174 CLA +0 50000 0 00411
 00175 SUB +0 40200 0 00057    00176 TNZ -0 10000 0 00200    00177 TRA +0 02000 0 00024
      LOOP1      CONTINUE                                                           013  LM00016
 00200 TRA +0 02000 0 00123
      BACK       THROUGH LOOP, FOR I=1,1,I.G.3                                      014  LM00017
 00201 CLA +0 50000 0 00051    00202 STO +0 60100 0 00005    00203 TRA +0 02000 0 00207    00204 CLA +0 50000 0 00005
 00205 ADD +0 40000 0 00051    00206 STO +0 60100 0 00005    00207 CLA +0 50000 0 00005    00210 SUB +0 40200 0 00052
 00211 TZE +0 10000 0 00213    00212 TPL +0 12000 0 00252
      LOOP       MDY(I)=((DATE.A.MASK(I)).RS.SHFT(I))*10                            015  LM00018
                1+((DATE.A.MASK(I+3)).RS.SHFT(I+3))                                 015  LM00019
 00213 CLA +0 50000 0 00005    00214 ADD +0 40000 0 00052    00215 STO +0 60100 0 00411    00216 CLA +0 50000 0 00005
 00217 ADD +0 40000 0 00052    00220 PAX +0 73400 2 00000    00221 CAL -0 50000 0 00004    00222 ANA -0 32000 2 00015
 00223 LXA +0 53400 2 00411    00224 SLW +0 60200 0 00411    00225 CAL -0 50000 2 00045    00226 STA +0 62100 0 00230
 00227 CAL -0 50000 0 00411    00230 LGR -0 76500 0 00000    00231 LXA +0 53400 2 00005    00232 SLW +0 60200 0 00411
 00233 CAL -0 50000 0 00004    00234 ANA -0 32000 2 00015    00235 SLW +0 60200 0 00412    00236 CAL -0 50000 2 00045
 00237 STA +0 62100 0 00241    00240 CAL -0 50000 0 00412    00241 LGR -0 76500 0 00000    00242 SLW +0 60200 0 00412
 00243 LDQ +0 56000 0 00412    00244 MPY +0 20000 0 00055    00245 XCA +0 13100 0 00000    00246 ADD +0 40000 0 00411
 00247 LXA +0 53400 1 00005    00250 STO +0 60100 1 00021    00251 TRA +0 02000 0 00204
                 W'R SW.NE.0, T'O TIMCHK                                            016  LM00020
 00252 CLA +0 50000 0 00046    00253 SUB +0 40200 0 00050    00254 TZE +0 10000 0 00256    00255 TRA +0 02000 0 00003
                 MO(2)=28                                                           017  LM00021
 00256 CLA +0 50000 0 00061    00257 STO +0 60100 0 00034
                 W'R (MDY(3).NE.0).AND.(MDY(3)-(MDY(3)/4)*4).E.0,                   018  LM00022
                1MO(2)=29                                                           018  LM00023
 00260 LDQ +0 56000 0 00016    00261 PXD -0 75400 0 00000    00262 LLS +0 76300 0 00000    00263 DVP +0 22100 0 00053
 00264 MPY +0 20000 0 00053    00265 XCA +0 13100 0 00000    00266 CHS +0 76000 0 00002    00267 ADD +0 40000 0 00016
 00270 SUB +0 40200 0 00050    00271 TNZ -0 10000 0 00277    00272 CLA +0 50000 0 00016    00273 SUB +0 40200 0 00050
 00274 TZE +0 10000 0 00277    00275 CLA +0 50000 0 00062    00276 STO +0 60100 0 00034
                 W'R MDY(1).L.1 .OR. MDY(1).G.12, T'O BADATE                        019  LM00024
 00277 CLA +0 50000 0 00020    00300 SUB +0 40200 0 00057    00301 TZE +0 10000 0 00303    00302 TPL +0 12000 0 00307
 00303 CLA +0 50000 0 00020    00304 SUB +0 40200 0 00051    00305 TZE +0 10000 0 00310    00306 TPL +0 12000 0 00310
 00307 TRA +0 02000 0 00024
                 W'R (MDY(3).L.0).OR.(MDY(3).G.99), T'O BADATE                      020  LM00025
 00310 CLA +0 50000 0 00016    00311 SUB +0 40200 0 00066    00312 TZE +0 10000 0 00314    00313 TPL +0 12000 0 00320
 00314 CLA +0 50000 0 00016    00315 SUB +0 40200 0 00050    00316 TZE +0 10000 0 00321    00317 TPL +0 12000 0 00321
 00320 TRA +0 02000 0 00024
                 W'R (MDY(2).L.1).OR.(MDY(2).G.MO(MDY(1))), T'O BADATE              021  LM00026
 00321 LXA +0 53400 2 00020    00322 CLA +0 50000 0 00017    00323 SUB +0 40200 2 00036    00324 TZE +0 10000 0 00326
 00325 TPL +0 12000 0 00332    00326 CLA +0 50000 0 00017    00327 SUB +0 40200 0 00051    00330 TZE +0 10000 0 00333
 00331 TPL +0 12000 0 00333    00332 TRA +0 02000 0 00024
                 DATE=TIME                                                          022  LM00027
 00333 CLA +0 50000 0 00047    00334 STO +0 60100 0 00004
                 SW=1                                                               023  LM00028
 00335 CLA +0 50000 0 00051    00336 STO +0 60100 0 00046
                 T'O BACK                                                           024  LM00029
 00337 TRA +0 02000 0 00002
      TIMCHK     W'R MDY(1).L.0 .OR. MDY(1).GE.24, T'O BADATE                       025  LM00030
 00340 CLA +0 50000 0 00020    00341 SUB +0 40200 0 00060    00342 TZE +0 10000 0 00350    00343 TPL +0 12000 0 00350
 00344 CLA +0 50000 0 00020    00345 SUB +0 40200 0 00050    00346 TZE +0 10000 0 00351    00347 TPL +0 12000 0 00351
 00350 TRA +0 02000 0 00024
                 W'R MDY(2).L.0 .OR. MDY(2).GE.60, T'O BADATE                       026  LM00031
 00351 CLA +0 50000 0 00017    00352 SUB +0 40200 0 00064    00353 TZE +0 10000 0 00361    00354 TPL +0 12000 0 00361
 00355 CLA +0 50000 0 00017    00356 SUB +0 40200 0 00050    00357 TZE +0 10000 0 00362    00360 TPL +0 12000 0 00362
 00361 TRA +0 02000 0 00024
                 FUNCTION RETURN                                                    027  LM00032
 00362 TRA +0 02000 0 00405
                 V'S MO=0,31,28,31,30,31,30,31,31,30,31,30,31                       028  LM00033
 00022     +0 00000 0 00037    00023     +0 00000 0 00036    00024     +0 00000 0 00037    00025     +0 00000 0 00036
 00026     +0 00000 0 00037    00027     +0 00000 0 00037    00030     +0 00000 0 00036    00031     +0 00000 0 00037
 00032     +0 00000 0 00036    00033     +0 00000 0 00037    00034     +0 00000 0 00034    00035     +0 00000 0 00037
 00036     +0 00000 0 00000
                 V'S MDY=0,0,0,0                                                    029  LM00034
 00016     +0 00000 0 00000    00017     +0 00000 0 00000    00020     +0 00000 0 00000    00021     +0 00000 0 00000
                 V'S MASK=0,770000000000K,77000000K,7700K,7700000000K,770000K       030  LM00035
                1,77K                                                               030  LM00036
 00007     +0 00000 0 00077    00010     +0 00000 7 70000    00011     +0 07700 0 00000    00012     +0 00000 0 07700
 00013     +0 00077 0 00000    00014     -3 70000 0 00000    00015     +0 00000 0 00000
                 V'S SHFT=0,30,18,6,24,12,0                                         031  LM00037
 00037     +0 00000 0 00000    00040     +0 00000 0 00014    00041     +0 00000 0 00030    00042     +0 00000 0 00006
 00043     +0 00000 0 00022    00044     +0 00000 0 00036    00045     +0 00000 0 00000
                 END OF FUNCTION                                                    032  LM00038
 00363 TSX +0 07400 4 00000    00364 TXH +3 00000 0 00000    00365 SXD -0 63400 1 00364    00366 SXA +0 63400 4 00405
 00367 CLA +0 50000 4 00001    00370 STA +0 62100 0 00075    00371 CLA +0 50000 4 00002    00372 STA +0 62100 0 00077
 00373 CLA +0 50000 4 00003    00374 STA +0 62100 0 00115    00375 STA +0 62100 0 00154    00376 STA +0 62100 0 00177
 00377 STA +0 62100 0 00307    00400 STA +0 62100 0 00320    00401 STA +0 62100 0 00332    00402 STA +0 62100 0 00350
 00403 STA +0 62100 0 00361    00404 TRA +0 02000 2 00001    00405 AXT +0 77400 4 00000    00406 LXA +0 53400 2 00364
 00407 LXD -0 53400 1 00364    00410 TRA +0 02000 4 00001
1       KEY  - PROGRAM TO TEST SENSE SWITCHES AND KEYS.                                          PAGE 1

                              *      WRITTEN BY ROGER ROACH    2/14/67
                              *
                              * CALLING SEQUENCE -
                              *
                              *        A = SS.(N)
                              *           IF S.S. N IS ON A WILL BE NON-ZERO, OTHERWISE  A = 0
                              *        A = KEY.()
                              *           A WILL CONTAIN THE INTEGER VALUE OF THE KEYS.
                              *
                       00003         ENTRY   SS
                       00013         ENTRY   KEY

        TRANSFER VECTOR
      00000  665126436760     WRFLX

            LINKAGE DIRECTOR
      00001  000000000000
      00002  626260606060

      00003  0634 00 4 00011  SS     SXA     XR4,4
      00004 -0500 60 4 00001         CAL*    1,4           GET SS NUMBER 'N'
      00005  0737 00 4 00000         PAC     ,4            SWITCH NO TO XR4
      00006 -3 77771 4 00016         TXL     ERROR,4,-7
      00007  0522 00 4 00026         XEC     TBL,4         GET A SS TEST
      00010 -0754 00 0 00000         ZAC                   OFF
      00011  0774 00 4 00000  XR4    AXT     **,4          ON
      00012  0020 00 4 00001         TRA     1,4
                              *
                              *
      00013  0760 00 0 00004  KEY    ENK
      00014  0131 00 0 00000         XCA
      00015  0020 00 4 00001         TRA     1,4
                              *
      00016  0074 00 4 00000  ERROR  TSX     $WRFLX,4
      00017  0 00004 0 00022         PZE     MESSAG,,4
      00020 -0754 00 0 00000         ZAC
      00021  0020 00 0 00011         TRA     XR4
      00022  314343252721     MESSAG BCI     4,ILLEGAL SENSE SWITCH.
      00023  436062254562
      00024  256062663163
      00025  233033606060
                              *
      00026  0760 00 0 00161  TBL    SWT     1
      00027  0760 00 0 00161         SWT     1
      00030  0760 00 0 00162         SWT     2
      00031  0760 00 0 00163         SWT     3
      00032  0760 00 0 00164         SWT     4
      00033  0760 00 0 00165         SWT     5
      00034  0760 00 0 00166         SWT     6
                                     END
1       KEY  - PROGRAM TO TEST SENSE SWITCHES AND KEYS.                                          PAGE 1
                        POST PROCESSOR ASSEMBLY DATA

         35 IS THE FIRST LOCATION NOT USED BY THIS PROGRAM

0REFERENCES TO DEFINED SYMBOLS
          3     SS     0
         13    KEY     0
         26    TBL     7
         11    XR4     3,   21
         16  ERROR     6
          0  WRFLX    16
         22 MESSAG    17

0 NO ERROR IN ABOVE ASSEMBLY.


 QLOAD   BCD 09/20/68 0220.7   21908         00000
1     MAD PROGRAM LISTING ... ... ...                 FILE   QLOAD   MAD            04/20/68    1608.9
-
                  PROGRAM TO REACTED TO OVERLOAD CONDITIONS                                            LM00001
                  REWRITTEN BY ROGER ROACH 2/20/68                                                     LM00002
                   FROM A PREVIOUS VERSION BY R. MILLS                                                 LM00003
                  NORMAL MODE IS INTEGER                                                          *001 LM00004
                  FLOATING POINT QLEN, QLEN1, QLEN2, FGLOC, FQLEN                                 *002 LM00005
                  BOOLEAN OFLAG, QFLAG                                                            *003 LM00006
                  DIMENSION ME(1), FQLEN(1)                                                       *004 LM00007
                                                                                                       LM00008
                                                                                                       LM00009
                  VECTOR VALUES SYSMAX = 45                                                       *005 LM00010
                    ... MAXIMUM NUMBER OF USERS ALLOWED IN                                             LM00011
                                                                                                       LM00012
                  VECTOR VALUES SYSMIN = 12                                                       *006 LM00013
                    ... MINIMUM NUMBER OF USERS ALLOWED IN                                             LM00014
                                                                                                       LM00015
                  VECTOR VALUES NORMAL = 30                                                       *007 LM00016
                    ... NORMAL QUANTUM IN 60THS OF A SECOND                                            LM00017
                                                                                                       LM00018
                  VECTOR VALUES SPESHL = 60                                                       *008 LM00019
                    ... QUANTUM DURING OVERLOAD CONDITIONS (60THS)                                     LM00020
                                                                                                       LM00021
                  VECTOR VALUES QLEN1 = 8.0                                                       *009 LM00022
                    ... THRESHOLD FOR QUEUE LENGTH DURING OVERLOAD                                     LM00023
                                                                                                       LM00024
                  VECTOR VALUES QLEN2 = 10.0                                                      *010 LM00025
                    ... THRESHOLD FOR QUEUE LENGTH ANYTIME                                             LM00026
                                                                                                       LM00027
                  VECTOR VALUES OVFON = 10                                                        *011 LM00028
                    ... THRESHOLD WHEN OVERFLOW CONDITION IS ON                                        LM00029
                                                                                                       LM00030
                  VECTOR VALUES OVFOFF = 5                                                        *012 LM00031
                    ... THRESHOLD WHEN OVERFLOW CONDITION IS OFF                                       LM00032
                                                                                                       LM00033
                  VECTOR VALUES NDRUMS = 2                                                        *013 LM00034
                    ... NUMBER OF HIGH SPEED DRUMS ON CTSS                                             LM00035
                                                                                                       LM00036
                  VECTOR VALUES QFLAG = 0B                                                        *014 LM00037
                    ... INDICATOR OF HIGH QUEUE LENGTH ON LAST LOOK                                    LM00038
                                                                                                       LM00039
                  VECTOR VALUES CUMOFT = 0                                                        *015 LM00040
                    ... CUMULATIVE OVERFLOW TIME (NOT PRESENTLY USED)                                  LM00041
                                                                                                       LM00042
                  VECTOR VALUES CUMTIM = 0                                                        *016 LM00043
                    ... CUMLATIVE TIME (NOT PRESENTLY USED)                                            LM00044
                                                                                                       LM00045
                  VECTOR VALUES SLPTIM = 300                                                      *017 LM00046
                    ... SLEEPING TIME (60THS)                                                          LM00047
                                                                                                       LM00048
                  VECTOR VALUES COMMND = 777777777777K,$CTEST9$                                   *018 LM00049
                    ... COMMAND EXECUTED UPON RETURN FROM I/C COMM.                                    LM00050
                                                                                                       LM00051
                  VECTOR VALUES BLANK = 605757575757K                                             *019 LM00052
                                                                                                       LM00053
                  INITIALIZATION                                                                       LM00054
                                                                                                       LM00055
                  SET UP COMMAND FOR RETURNING FROM I/C COMM.                                          LM00056
                                                                                                       LM00057
                  COMMND(1) = COMARG.(0)                                                          *020 LM00058
                  OFFON.($ QLOAD$)                                                                *021 LM00059
                                                                                                       LM00060
                                                                                                       LM00061
                  CHECK FOR CORRECT USER.                                                              LM00062
                                                                                                       LM00063
                  WHOAMI.(ME(1)...2)                                                              *022 LM00064
                                                                                                       LM00065
                  LET THE OPERATORS USE IT FOR NOW.                                                    LM00066
                  WHENEVER ME(1).E.$ C0033$ .AND. ME.E.$   960$, TRANSFER TO OK                   *023 LM00067
                  WHENEVER (ME(1).NE.$ M1416$ .AND. ME(1).NE.$ T0100$) .OR. (ME.NE.               *024 LM00068
                1  $  4301$.AND.ME.NE.$  5886$.AND.ME.NE.$  9324$.AND.ME.NE.                      *024 LM00069
                2  $   385$.AND.ME.NE.$  3845$.AND.ME.NE.$  2962$), TSK.(0)                       *024 LM00070
                                                                                                       LM00071
                  INTIALIZE CORE A FETCHES.                                                            LM00072
                                                                                                       LM00073
      OK          OVFLOC = ACORE.($OVRFLO$).RS.18                                                 *025 LM00074
                  QUELOC = ACORE.($AVQLEN$).RS.18                                                 *026 LM00075
                  QTMLOC = COMLOC.($QUANTM$)                                                      *027 LM00076
                  MXULOC = COMLOC.($MXUSRS$)                                                      *028 LM00077
                  NUSLOC = COMLOC.($NUSERS$)                                                      *029 LM00078
                  PROBN  = COMLOC.($PROBN$)                                                       *030 LM00079
                  PROGN  = COMLOC.($PROGN$)                                                       *031 LM00080
                  N      = COMLOC.($N$)                                                           *032 LM00081
                                                                                                       LM00082
                   SET MAXIMUM NUMBER OF USERS TO N-3                                                  LM00083
                                                                                                       LM00084
                  SYSMAX = N-3                                                                    *033 LM00085
                                                                                                       LM00086
                  CALCULATE NUMBER OF SECTORS AVAILABLE ON HIGHSPEED DRUMS                             LM00087
                                                                                                       LM00088
                  SCOUNT = 96 * NDRUMS - (N+2)/2                                                  *034 LM00089
                                                                                                       LM00090
                   AND WHERE THE DRUM FIGURES ARE KEPT                                                 LM00091
                                                                                                       LM00092
                  SCTLOC = OVFLOC -4 -5*(N+1) -2*SCOUNT -((N+1)-((N+1)/2)*2)                      *035 LM00093
                                                                                                       LM00094
                  SEE IF WE ARE TO RESET MXUSRS                                                        LM00095
                  WHENEVER COMARG.(1,ARG1).E.$ RESET$.AND.COMARG.(2,ARG2).NE.                     *036 LM00096
                1   777777777777K                                                                 *036 LM00097
                       ARG2 = BCDEC.(ARG2)                                                        *037 LM00098
                       WHENEVER ARG2.LE.SYSMAX .AND. ARG2.GE.SYSMIN                               *038 LM00099
                            SLOC.(ARG2,MXULOC)                                                    *039 LM00100
                            SYSMAX = ARG2                                                         *040 LM00101
                            PRMESS.($MXUSRS RESET TO$,BZ57.(DERBC.(ARG2)))                        *041 LM00102
                       OTHERWISE                                                                  *042 LM00103
                            PRMESS.($ILLEGAL MXUSRS SETTING IGNORED.$)                            *043 LM00104
                       END OF CONDITIONAL                                                         *044 LM00105
                  END OF CONDITIONAL                                                              *045 LM00106
                                                                                                       LM00107
                  INITIALIZE THE QUANTUM CONDITION FLAG                                                LM00108
                                                                                                       LM00109
                  QUANTM = GLOC.(QTMLOC)                                                          *046 LM00110
                  WHENEVER QUANTM .E. NORMAL                                                      *047 LM00111
                       OFLAG = 0B                                                                 *048 LM00112
                  OR WHENEVER QUANTM .E. SPESHL                                                   *049 LM00113
                       OFLAG = 1B                                                                 *050 LM00114
                  OTHERWISE                                                                       *051 LM00115
                       PRMESS.($UNEXPECTED QUANTUM$)                                              *052 LM00116
                       CHNCOM.(0)                                                                 *053 LM00117
                  END OF CONDITIONAL                                                              *054 LM00118
                                                                                                       LM00119
                  INITIALIZE 'ELAPSED TIME IN OVERFLOW' CALCULATION                                    LM00120
                                                                                                       LM00121
                  NEWOFT = GLOC.(OVFLOC+1)                                                        *055 LM00122
                  NEWTIM = GETIME.(0)                                                             *056 LM00123
                                                                                                       LM00124
                  PRINT HEADER LINE                                                                    LM00125
                                                                                                       LM00126
                  GETTM.(DATE,TIME)                                                               *057 LM00127
                  PRMESS.($ TIME    CUR   MAX QLEN HDRUM$,BLANK,DATE)                             *058 LM00128
                                                                                                       LM00129
                                                                                                       LM00130
                      START MAIN LOOP                                                                  LM00131
                                                                                                       LM00132
      START       GETTM.(DATE,TIME)                                                               *059 LM00133
                  OLDTIM = NEWTIM                                                                 *060 LM00134
                  NEWTIM = GETIME.(0)                                                             *061 LM00135
                  DELTIM = NEWTIM - OLDTIM                                                        *062 LM00136
                  CUMTIM = CUMTIM + DELTIM                                                        *063 LM00137
                                                                                                       LM00138
                  OLDOFT = NEWOFT                                                                 *064 LM00139
                  NEWOFT = GLOC.(OVFLOC+1)                                                        *065 LM00140
                  DELOFT = NEWOFT - OLDOFT                                                        *066 LM00141
                  CUMOFT = CUMOFT + DELOFT                                                        *067 LM00142
                                                                                                       LM00143
                  GET PERCENTAGE OF OVERFLOW ONTO DISK SINCE LAST LOOK                                 LM00144
                                                                                                       LM00145
                  PCNTOF = (100 * DELOFT)/DELTIM                                                  *068 LM00146
                                                                                                       LM00147
                  GET PERCENTAGE OF HIGHSPEED DRUM USAGE                                               LM00148
                                                                                                       LM00149
                  PCNTDR = 100 * ( SCOUNT - GLOC.(SCTLOC))/SCOUNT                                 *069 LM00150
                                                                                                       LM00151
                  GET THE CURRENT QUEUE LENGTH                                                         LM00152
                                                                                                       LM00153
                  FQLEN = FGLOC.(QUELOC) / 1000.0 + 0.05                                          *070 LM00154
                  QLEN = FQLEN                                                                    *071 LM00155
                  FLOTBC.(FQLEN)                                                                  *072 LM00156
                                                                                                       LM00157
                  GET NUSERS AND MXUSRS AND PRINT A DATA LINE                                          LM00158
                                                                                                       LM00159
                  NUSERS = GLOC.(NUSLOC)                                                          *073 LM00160
                  MXUSRS = GLOC.(MXULOC)                                                          *074 LM00161
                  PRMESS.(TIME,BZEL.(DERBC.(NUSERS)),BZEL.(DERBC.(MXUSRS)),                       *075 LM00162
                1  FQLEN ...2,BZEL.(DERBC.(PCNTDR)))                                              *075 LM00163
                                                                                                       LM00164
                  TEST DRUM OVERLOAD CONDITIONS AND REACT                                              LM00165
                                                                                                       LM00166
                  WHENEVER PCNTOF .GE. OVFON                                                      *076 LM00167
                       WHENEVER .NOT. OFLAG, SLOC.(SPESHL,QTMLOC)                                 *077 LM00168
                       PRMESS.(BZ57.(DERBC.(PCNTOF)),$ PERCENT OVERFLOW$)                         *078 LM00169
                       OFLAG = 1B                                                                 *079 LM00170
                  OR WHENEVER PCNTOF .LE. OVFOFF .AND. OFLAG                                      *080 LM00171
                       SLOC.(NORMAL,QTMLOC)                                                       *081 LM00172
                       PRMESS.($NO MORE OVERFLOW$)                                                *082 LM00173
                       OFLAG = 0B                                                                 *083 LM00174
                  END OF CONDITIONAL                                                              *084 LM00175
                                                                                                       LM00176
                         THE FOLLOWING SECTION AFFECTS NUSERS AND MXUSRS IN                            LM00177
                  RESPONSE TO THE OVERLOAD CONDITION AS DETERMINED BY THE                              LM00178
                  QUEUE LENGTH.  IT WILL LOG OUT A STANDBY USER IF THE QUEUE                           LM00179
                  LENGTH IS ABOVE AN APPROPIATE THRESHOLD TWICE IN A ROW.  IT                          LM00180
                  ALSO LOWERS MXUSRS BY 1 (DOWN TO SYSMIN).  OTHERWISE IT                              LM00181
                  RAISES MXUSRS BY 1 (UP TO SYSMAX).                                                   LM00182
                                                                                                       LM00183
                  WHENEVER (QLEN.G.QLEN2) .OR. (QLEN.G.QLEN1 .AND. OFLAG)                         *085 LM00184
                       WHENEVER QFLAG                                                             *086 LM00185
                        MAKE SURE IT WAS THIS WAY LAST TIME, THEN REACT                                LM00186
                                                                                                       LM00187
                            WHENEVER MXUSRS.LE. SYSMIN, TRANSFER TO BED                           *087 LM00188
                            MXUSRS = NUSERS - 1                                                   *088 LM00189
                            WHENEVER MXUSRS .LE. SYSMIN, MXUSRS = SYSMIN                          *089 LM00190
                            SLOC.(MXUSRS,MXULOC)                                                  *090 LM00191
                            PRMESS.($MXUSRS CUT TO$,BZ57.(DERBC.(MXUSRS)))                        *091 LM00192
                            LOSER = FINDSB.(0)                                                    *092 LM00193
                            WHENEVER LOSER .G. 2                                                  *093 LM00194
                                 KILL.(LOSER)                                                     *094 LM00195
                                 PRMESS.($KILLED$,GLOC.(PROBN+LOSER),                             *095 LM00196
                1                BLANK,GLOC.(PROGN+LOSER))                                        *095 LM00197
                            OTHERWISE                                                             *096 LM00198
                                 PRMESS.($NO STANDBY USER TO KILL$)                               *097 LM00199
                            END OF CONDITIONAL                                                    *098 LM00200
                       OTHERWISE                                                                  *099 LM00201
                            QFLAG = 1B                                                            *100 LM00202
                       MXUSRS = NUSERS                                                            *101 LM00203
                            WHENEVER MXUSRS .LE. SYSMIN, MXUSRS = SYSMIN                          *102 LM00204
                            SLOC.(MXUSRS,MXULOC)                                                  *103 LM00205
                            PRMESS.($MXUSRS CUT TO$,BZ57.(DERBC.(MXUSRS)))                        *104 LM00206
                       END OF CONDITIONAL                                                         *105 LM00207
                  OTHERWISE                                                                       *106 LM00208
                       QFLAG = 0B                                                                 *107 LM00209
                       WHENEVER MXUSRS .GE. SYSMAX, TRANSFER TO BED                               *108 LM00210
                       MXUSRS = MXUSRS + 1                                                        *109 LM00211
                       SLOC.(MXUSRS,MXULOC)                                                       *110 LM00212
                       PRMESS.($MXUSRS RAISED TO$,(BZ57.(DERBC.(MXUSRS))                          *111 LM00213
                1      .A.7777K).V.57575757K4)                                                    *111 LM00214
                  END OF CONDITIONAL                                                              *112 LM00215
                                                                                                       LM00216
                                                                                                       LM00217
                  NOW GO TO SLEEP.                                                                     LM00218
                                                                                                       LM00219
      BED         WHENEVER COMARG.(1,ARG1).E.$ RESET$, ARG1 = COMARG.(3)                          *113 LM00220
                  WHENEVER BCDEC.(ARG1).E.0, ARG1 = 777777777777K                                 *114 LM00221
                  WHENEVER ARG1.NE.777777777777K,SLPTIM=BCDEC.(ARG1)*60                           *115 LM00222
                  SNOOZE.(SLPTIM,COMMND(1))                                                       *116 LM00223
                  TRANSFER TO START                                                               *117 LM00224
                                                                                                       LM00225
                  INTERNAL SUBROUTINES                                                                 LM00226
                                                                                                       LM00227
                  INTERNAL FUNCTION (ARG)                                                         *118 LM00228
                  ENTRY TO FGLOC.                                                                 *119 LM00229
                  FUNCTION RETURN GLOC.(ARG)                                                      *120 LM00230
                  END OF FUNCTION                                                                 *121 LM00231
                                                                                                       LM00232
                  CONVERT TO BCD                                                                       LM00233
                                                                                                       LM00234
                  INTERNAL FUNCTION (NUM)                                                         *122 LM00235
                  ENTRY TO CONV.                                                                  *123 LM00236
                  FUNCTION RETURN (BZEL.(DEFBC.(NUM)).A.777777K).V.575757K6                       *124 LM00237
                  END OF FUNCTION                                                                 *125 LM00238
                                                                                                       LM00239
                   CONVERT FLOATING POINT TO BCD                                                       LM00240
                                                                                                       LM00241
                  INTERNAL FUNCTION (NUM)                                                         *126 LM00242
                  ENTRY TO FLOTBC.                                                                *127 LM00243
                  FIX.(NUM,NUM,NUM(1))                                                            *128 LM00244
                  NUM = CONV.(NUM)                                                                *129 LM00245
                  NUM(1) = (FRACBC.(NUM(1)).RS.6).A.77K8 .V. 330057575757K                        *130 LM00246
                  FUNCTION RETURN                                                                 *131 LM00247
                  END OF FUNCTION                                                                 *132 LM00248
                                                                                                       LM00249
                                                                                                       LM00250
                  END OF PROGRAM                                                                  *133 LM00251
1MAD PROGRAM,TYPE NOV 1963      (ALL NUMBERS ARE OCTAL)
0TOTAL LOCATIONS   01315 TRANSFER VECTOR LENGTH  00030 PROGRAM BEGINS    00226
0VARIABLE STORAGE (A=ARRAY,C=COMMON,E=ERASABLE,DIGIT=MODE)
      ARG1   00037   1        FQLEN  00052 A 0        NUSERS 00065   1        PCNTOF 00076   1        QUELOC 00107   1
      ARG2   00040   1        LOSER  00053   1        NUSLOC 00066   1        PROBN  00077   1        SCOUNT 00110   1
      BED    00034   4        ME     00055 A 1        OFLAG  00067   2        PROGN  00100   1        SCTLOC 00111   1
      BLANK  00041 A 1        MXULOC 00056   1        OK     00035   4        QFLAG  00101 A 2        SLPTIM 00112 A 1
      COMMND 00043 A 1        MXUSRS 00057   1        OLDOFT 00070   1        QLEN1  00102 A 0        SPESHL 00113 A 1
      CUMOFT 00044 A 1        NDRUMS 00060 A 1        OLDTIM 00071   1        QLEN2  00103 A 0        START  00036   4
      CUMTIM 00045 A 1        NEWOFT 00061   1        OVFLOC 00072   1        QLEN   00104   0        SYSMAX 00114 A 1
      DATE   00046   1        NEWTIM 00062   1        OVFOFF 00073 A 1        QTMLOC 00105   1        SYSMIN 00115 A 1
      DELOFT 00047   1        NORMAL 00063 A 1        OVFON  00074 A 1        QUANTM 00106   1        TIME   00116   1
      DELTIM 00050   1        N      00064   1        PCNTDR 00075   1
0FUNCTION DICTIONARY
      ACORE  00000   1        BCDEC  00001   1        BZ57   00002   1        BZEL   00003   1        CHNCOM 00004   1
      COMARG 00005   1        COMLOC 00006   1        DEFBC  00007   1        DERBC  00010   1        EXIT   00011   1
      FINDSB 00012   1        FIX    00013   1        FRACBC 00014   1        GETIME 00015   1        GETTM  00016   1
      GLOC   00017   1        .SETUP 00020   1        KILL   00021   1        OFFON  00022   1        PRMESS 00023   1
      SLOC   00024   1        SNOOZE 00025   1        TSK    00026   1        WHOAMI 00027   1        CONV   00030   1
      FGLOC  00031   0        FLOTBC 00032   1
0ABSOLUTE CONSTANTS
 00150 +330057575757     00134 +007700000000     00125 +000000000006     00172 -175757000000     00133 +000000777777
 00127 +000000000074     00142 +246063466060     00203 -205121316225     00173 -175757570000     00132 +000000007777
 00176 -204231434360     00221 -222551606346     00155 -052422706064     00157 -054660626321     00152 -023143432524
 00163 -066060606060     00175 -202364636063     00144 +264346666060     00143 +256046652551     00156 -054660444651
 00170 -112643466660     00161 -056360466525     00200 -204725512325     00135 +174631463146     00136 +212764000000
 00131 +000000000144     00146 +302451644460     00201 -205043254560     00215 -206060442167     00214 -206060236451
 00217 -206331442560     00223 -242145636444     00141 +236325246050     00224 -244525674725     00151 +336060606060
 00145 +274546512524     00222 -233145276031     00171 -116260622563     00153 -036044676462     00147 +314343252721
 00220 -206346606060     00204 -205125622563     00225 -377777777777     00123 +000000000004     00124 +000000000005
 00130 +000000000140     00122 +000000000003     00160 -056060606060     00166 -075146274560     00165 -075146224560
 00162 -056462255162     00154 -046764625162     00167 -106421456344     00137 +216550432545     00126 +000000000022
 00164 -066551264346     00177 -204401040106     00216 -206300010000     00207 -206004030001     00210 -206005101006
 00211 -206011030204     00212 -206060031005     00206 -206003100405     00205 -206002110602     00174 -202300000303
 00213 -206060110600     00121 +000000000002     00202 -205043462124     00117 +000000000000     00120 +000000000001
 00140 +233000000000
0STATEMENT DICTIONARY
 00034 TXL -301135001125       00035 TXL -300310000300       00036 TXL -300540000535
0PROGRAM
                 N'R                                                                001  LM00004
                 FLOATING POINT QLEN, QLEN1, QLEN2, FGLOC, FQLEN                    002  LM00005
                 BOOLEAN OFLAG, QFLAG                                               003  LM00006
                 D'N ME(1), FQLEN(1)                                                004  LM00007
                 V'S SYSMAX = 45                                                    005  LM00010
 00226 TSX +0 07400 4 00020    00114     +0 00000 0 00055
                 V'S SYSMIN = 12                                                    006  LM00013
 00115     +0 00000 0 00014
                 V'S NORMAL = 30                                                    007  LM00016
 00063     +0 00000 0 00036
                 V'S SPESHL = 60                                                    008  LM00019
 00113     +0 00000 0 00074
                 V'S QLEN1 = 8.0                                                    009  LM00022
 00102     +2 04400 0 00000
                 V'S QLEN2 = 10.0                                                   010  LM00025
 00103     +2 04500 0 00000
                 V'S OVFON = 10                                                     011  LM00028
 00074     +0 00000 0 00012
                 V'S OVFOFF = 5                                                     012  LM00031
 00073     +0 00000 0 00005
                 V'S NDRUMS = 2                                                     013  LM00034
 00060     +0 00000 0 00002
                 V'S QFLAG = 0B                                                     014  LM00037
 00101     +0 00000 0 00000
                 V'S CUMOFT = 0                                                     015  LM00040
 00044     +0 00000 0 00000
                 V'S CUMTIM = 0                                                     016  LM00043
 00045     +0 00000 0 00000
                 V'S SLPTIM = 300                                                   017  LM00046
 00112     +0 00000 0 00454
                 V'S COMMND = 777777777777K,$CTEST9$                                018  LM00049
 00042     +2 36325 6 26311    00043     -3 77777 7 77777
                 V'S BLANK = 605757575757K                                          019  LM00052
 00041     -2 05757 5 75757
                 COMMND(1) = COMARG.(0)                                             020  LM00058
 00227 TSX +0 07400 4 00005    00230 TXH +3 00000 0 00117    00231 STO +0 60100 0 00042
                 OFFON.($ QLOAD$)                                                   021  LM00059
 00232 TSX +0 07400 4 00022    00233 TXH +3 00000 0 00202
                 WHOAMI.(ME(1)...2)                                                 022  LM00064
 00234 TSX +0 07400 4 00027    00235 TIX +2 00121 0 00054
                 W'R ME(1).E.$ C0033$ .AND. ME.E.$   960$, T'O OK                   023  LM00067
 00236 CLA +0 50000 0 00055    00237 SUB +0 40200 0 00213    00240 TNZ -0 10000 0 00245    00241 CLA +0 50000 0 00054
 00242 SUB +0 40200 0 00174    00243 TNZ -0 10000 0 00245    00244 TRA +0 02000 0 00035
                 W'R (ME(1).NE.$ M1416$ .AND. ME(1).NE.$ T0100$) .OR. (ME.NE.       024  LM00068
                1 $  4301$.AND.ME.NE.$  5886$.AND.ME.NE.$  9324$.AND.ME.NE.         024  LM00069
                2 $   385$.AND.ME.NE.$  3845$.AND.ME.NE.$  2962$), TSK.(0)          024  LM00070
 00245 CLA +0 50000 0 00055    00246 SUB +0 40200 0 00205    00247 TZE +0 10000 0 00267    00250 CLA +0 50000 0 00055
 00251 SUB +0 40200 0 00206    00252 TZE +0 10000 0 00267    00253 CLA +0 50000 0 00055    00254 SUB +0 40200 0 00212
 00255 TZE +0 10000 0 00267    00256 CLA +0 50000 0 00055    00257 SUB +0 40200 0 00211    00260 TZE +0 10000 0 00267
 00261 CLA +0 50000 0 00055    00262 SUB +0 40200 0 00210    00263 TZE +0 10000 0 00267    00264 CLA +0 50000 0 00055
 00265 SUB +0 40200 0 00207    00266 TNZ -0 10000 0 00276    00267 CLA +0 50000 0 00054    00270 SUB +0 40200 0 00216
 00271 TZE +0 10000 0 00275    00272 CLA +0 50000 0 00054    00273 SUB +0 40200 0 00177    00274 TNZ -0 10000 0 00276
 00275 TRA +0 02000 0 00300    00276 TSX +0 07400 4 00026    00277 TXH +3 00000 0 00117
      OK         OVFLOC = ACORE.($OVRFLO$).RS.18                                    025  LM00074
 00300 TSX +0 07400 4 00000    00301 TXH +3 00000 0 00164    00302 STO +0 60100 0 01310    00303 CAL -0 50000 0 00126
 00304 STA +0 62100 0 00306    00305 CAL -0 50000 0 01310    00306 LGR -0 76500 0 00000    00307 SLW +0 60200 0 00072
                 QUELOC = ACORE.($AVQLEN$).RS.18                                    026  LM00075
 00310 TSX +0 07400 4 00000    00311 TXH +3 00000 0 00137    00312 STO +0 60100 0 01310    00313 CAL -0 50000 0 00126
 00314 STA +0 62100 0 00316    00315 CAL -0 50000 0 01310    00316 LGR -0 76500 0 00000    00317 SLW +0 60200 0 00107
                 QTMLOC = COMLOC.($QUANTM$)                                         027  LM00076
 00320 TSX +0 07400 4 00006    00321 TXH +3 00000 0 00167    00322 STO +0 60100 0 00105
                 MXULOC = COMLOC.($MXUSRS$)                                         028  LM00077
 00323 TSX +0 07400 4 00006    00324 TXH +3 00000 0 00154    00325 STO +0 60100 0 00056
                 NUSLOC = COMLOC.($NUSERS$)                                         029  LM00078
 00326 TSX +0 07400 4 00006    00327 TXH +3 00000 0 00162    00330 STO +0 60100 0 00066
                 PROBN  = COMLOC.($PROBN$)                                          030  LM00079
 00331 TSX +0 07400 4 00006    00332 TXH +3 00000 0 00165    00333 STO +0 60100 0 00077
                 PROGN  = COMLOC.($PROGN$)                                          031  LM00080
 00334 TSX +0 07400 4 00006    00335 TXH +3 00000 0 00166    00336 STO +0 60100 0 00100
                 N      = COMLOC.($N$)                                              032  LM00081
 00337 TSX +0 07400 4 00006    00340 TXH +3 00000 0 00160    00341 STO +0 60100 0 00064
                 SYSMAX = N-3                                                       033  LM00085
 00342 CLA +0 50000 0 00064    00343 SUB +0 40200 0 00122    00344 STO +0 60100 0 00114
                 SCOUNT = 96 * NDRUMS - (N+2)/2                                     034  LM00089
 00345 CLA +0 50000 0 00064    00346 ADD +0 40000 0 00121    00347 LRS +0 76500 0 00043    00350 DVP +0 22100 0 00121
 00351 STQ -0 60000 0 01310    00352 LDQ +0 56000 0 00130    00353 MPY +0 20000 0 00060    00354 XCA +0 13100 0 00000
 00355 SUB +0 40200 0 01310    00356 STO +0 60100 0 00110
                 SCTLOC = OVFLOC -4 -5*(N+1) -2*SCOUNT -((N+1)-((N+1)/2)*2)         035  LM00093
 00357 CLA +0 50000 0 00064    00360 ADD +0 40000 0 00120    00361 LRS +0 76500 0 00043    00362 DVP +0 22100 0 00121
 00363 MPY +0 20000 0 00121    00364 STQ -0 60000 0 01310    00365 CLA +0 50000 0 00064    00366 ADD +0 40000 0 00120
 00367 SUB +0 40200 0 01310    00370 STO +0 60100 0 01310    00371 LDQ +0 56000 0 00121    00372 MPY +0 20000 0 00110
 00373 STQ -0 60000 0 01311    00374 CLA +0 50000 0 00064    00375 ADD +0 40000 0 00120    00376 XCA +0 13100 0 00000
 00377 MPY +0 20000 0 00124    00400 STQ -0 60000 0 01312    00401 CLA +0 50000 0 00072    00402 SUB +0 40200 0 00123
 00403 SUB +0 40200 0 01312    00404 SUB +0 40200 0 01311    00405 SUB +0 40200 0 01310    00406 STO +0 60100 0 00111
                 W'R COMARG.(1,ARG1).E.$ RESET$.AND.COMARG.(2,ARG2).NE.             036  LM00096
                1  777777777777K                                                    036  LM00097
 00407 TSX +0 07400 4 00005    00410 TXH +3 00000 0 00121    00411 TXH +3 00000 0 00040    00412 SUB +0 40200 0 00225
 00413 TZE +0 10000 0 00464    00414 TSX +0 07400 4 00005    00415 TXH +3 00000 0 00120    00416 TXH +3 00000 0 00037
 00417 SUB +0 40200 0 00204    00420 TNZ -0 10000 0 00464
                      ARG2 = BCDEC.(ARG2)                                           037  LM00098
 00421 TSX +0 07400 4 00001    00422 TXH +3 00000 0 00040    00423 STO +0 60100 0 00040
                      W'R ARG2.LE.SYSMAX .AND. ARG2.GE.SYSMIN                       038  LM00099
 00424 CLA +0 50000 0 00040    00425 SUB +0 40200 0 00115    00426 TZE +0 10000 0 00430    00427 TMI -0 12000 0 00455
 00430 CLA +0 50000 0 00040    00431 SUB +0 40200 0 00114    00432 TZE +0 10000 0 00434    00433 TPL +0 12000 0 00455
                           SLOC.(ARG2,MXULOC)                                       039  LM00100
 00434 TSX +0 07400 4 00024    00435 TXH +3 00000 0 00040    00436 TXH +3 00000 0 00056
                           SYSMAX = ARG2                                            040  LM00101
 00437 CLA +0 50000 0 00040    00440 STO +0 60100 0 00114
                           PRMESS.($MXUSRS RESET TO$,BZ57.(DERBC.(ARG2)))           041  LM00102
 00441 TSX +0 07400 4 00010    00442 TXH +3 00000 0 00040    00443 STO +0 60100 0 01312    00444 TSX +0 07400 4 00002
 00445 TXH +3 00000 0 01312    00446 STO +0 60100 0 01312    00447 TSX +0 07400 4 00023    00450 TXH +3 00000 0 00154
 00451 TXH +3 00000 0 00204    00452 TXH +3 00000 0 00220    00453 TXH +3 00000 0 01312
                      O'E                                                           042  LM00103
 00454 TRA +0 02000 0 00464
                           PRMESS.($ILLEGAL MXUSRS SETTING IGNORED.$)               043  LM00104
 00455 TSX +0 07400 4 00023    00456 TXH +3 00000 0 00147    00457 TXH +3 00000 0 00153    00460 TXH +3 00000 0 00171
 00461 TXH +3 00000 0 00222    00462 TXH +3 00000 0 00145    00463 TXH +3 00000 0 00151
                      E'L                                                           044  LM00105
                 E'L                                                                045  LM00106
                 QUANTM = GLOC.(QTMLOC)                                             046  LM00110
 00464 TSX +0 07400 4 00017    00465 TXH +3 00000 0 00105    00466 STO +0 60100 0 00106
                 W'R QUANTM .E. NORMAL                                              047  LM00111
 00467 CLA +0 50000 0 00106    00470 SUB +0 40200 0 00063    00471 TNZ -0 10000 0 00475
                      OFLAG = 0B                                                    048  LM00112
 00472 CLA +0 50000 0 00117    00473 STO +0 60100 0 00067
                 O'R QUANTM .E. SPESHL                                              049  LM00113
 00474 TRA +0 02000 0 00511    00475 CLA +0 50000 0 00106    00476 SUB +0 40200 0 00113    00477 TNZ -0 10000 0 00503
                      OFLAG = 1B                                                    050  LM00114
 00500 CLA +0 50000 0 00120    00501 STO +0 60100 0 00067
                 O'E                                                                051  LM00115
 00502 TRA +0 02000 0 00511
                      PRMESS.($UNEXPECTED QUANTUM$)                                 052  LM00116
 00503 TSX +0 07400 4 00023    00504 TXH +3 00000 0 00224    00505 TXH +3 00000 0 00141    00506 TXH +3 00000 0 00223
                      CHNCOM.(0)                                                    053  LM00117
 00507 TSX +0 07400 4 00004    00510 TXH +3 00000 0 00117
                 E'L                                                                054  LM00118
                 NEWOFT = GLOC.(OVFLOC+1)                                           055  LM00122
 00511 CLA +0 50000 0 00072    00512 ADD +0 40000 0 00120    00513 STO +0 60100 0 01312    00514 TSX +0 07400 4 00017
 00515 TXH +3 00000 0 01312    00516 STO +0 60100 0 00061
                 NEWTIM = GETIME.(0)                                                056  LM00123
 00517 TSX +0 07400 4 00015    00520 TXH +3 00000 0 00117    00521 STO +0 60100 0 00062
                 GETTM.(DATE,TIME)                                                  057  LM00127
 00522 TSX +0 07400 4 00016    00523 TXH +3 00000 0 00046    00524 TXH +3 00000 0 00116
                 PRMESS.($ TIME    CUR   MAX QLEN HDRUM$,BLANK,DATE)                058  LM00128
 00525 TSX +0 07400 4 00023    00526 TXH +3 00000 0 00217    00527 TXH +3 00000 0 00214    00530 TXH +3 00000 0 00215
 00531 TXH +3 00000 0 00201    00532 TXH +3 00000 0 00146    00533 TXH +3 00000 0 00041    00534 TXH +3 00000 0 00046
      START      GETTM.(DATE,TIME)                                                  059  LM00133
 00535 TSX +0 07400 4 00016    00536 TXH +3 00000 0 00046    00537 TXH +3 00000 0 00116
                 OLDTIM = NEWTIM                                                    060  LM00134
 00540 CLA +0 50000 0 00062    00541 STO +0 60100 0 00071
                 NEWTIM = GETIME.(0)                                                061  LM00135
 00542 TSX +0 07400 4 00015    00543 TXH +3 00000 0 00117    00544 STO +0 60100 0 00062
                 DELTIM = NEWTIM - OLDTIM                                           062  LM00136
 00545 CLA +0 50000 0 00062    00546 SUB +0 40200 0 00071    00547 STO +0 60100 0 00050
                 CUMTIM = CUMTIM + DELTIM                                           063  LM00137
 00550 CLA +0 50000 0 00045    00551 ADD +0 40000 0 00050    00552 STO +0 60100 0 00045
                 OLDOFT = NEWOFT                                                    064  LM00139
 00553 CLA +0 50000 0 00061    00554 STO +0 60100 0 00070
                 NEWOFT = GLOC.(OVFLOC+1)                                           065  LM00140
 00555 CLA +0 50000 0 00072    00556 ADD +0 40000 0 00120    00557 STO +0 60100 0 01312    00560 TSX +0 07400 4 00017
 00561 TXH +3 00000 0 01312    00562 STO +0 60100 0 00061
                 DELOFT = NEWOFT - OLDOFT                                           066  LM00141
 00563 CLA +0 50000 0 00061    00564 SUB +0 40200 0 00070    00565 STO +0 60100 0 00047
                 CUMOFT = CUMOFT + DELOFT                                           067  LM00142
 00566 CLA +0 50000 0 00044    00567 ADD +0 40000 0 00047    00570 STO +0 60100 0 00044
                 PCNTOF = (100 * DELOFT)/DELTIM                                     068  LM00146
 00571 LDQ +0 56000 0 00131    00572 MPY +0 20000 0 00047    00573 PXD -0 75400 0 00000    00574 LLS +0 76300 0 00000
 00575 DVP +0 22100 0 00050    00576 STQ -0 60000 0 00076
                 PCNTDR = 100 * ( SCOUNT - GLOC.(SCTLOC))/SCOUNT                    069  LM00150
 00577 TSX +0 07400 4 00017    00600 TXH +3 00000 0 00111    00601 CHS +0 76000 0 00002    00602 ADD +0 40000 0 00110
 00603 XCA +0 13100 0 00000    00604 MPY +0 20000 0 00131    00605 PXD -0 75400 0 00000    00606 LLS +0 76300 0 00000
 00607 DVP +0 22100 0 00110    00610 STQ -0 60000 0 00075
                 FQLEN = FGLOC.(QUELOC) / 1000.0 + 0.05                             070  LM00154
 00611 TSX +0 07400 4 00031    00612 TXH +3 00000 0 00107    00613 FDP +0 24100 0 00136    00614 XCA +0 13100 0 00000
 00615 FAD +0 30000 0 00135    00616 STO +0 60100 0 00052
                 QLEN = FQLEN                                                       071  LM00155
 00617 CLA +0 50000 0 00052    00620 STO +0 60100 0 00104
                 FLOTBC.(FQLEN)                                                     072  LM00156
 00621 TSX +0 07400 4 00032    00622 TXH +3 00000 0 00052
                 NUSERS = GLOC.(NUSLOC)                                             073  LM00160
 00623 TSX +0 07400 4 00017    00624 TXH +3 00000 0 00066    00625 STO +0 60100 0 00065
                 MXUSRS = GLOC.(MXULOC)                                             074  LM00161
 00626 TSX +0 07400 4 00017    00627 TXH +3 00000 0 00056    00630 STO +0 60100 0 00057
                 PRMESS.(TIME,BZEL.(DERBC.(NUSERS)),BZEL.(DERBC.(MXUSRS)),          075  LM00162
                1 FQLEN ...2,BZEL.(DERBC.(PCNTDR)))                                 075  LM00163
 00631 TSX +0 07400 4 00010    00632 TXH +3 00000 0 00075    00633 STO +0 60100 0 01312    00634 TSX +0 07400 4 00003
 00635 TXH +3 00000 0 01312    00636 STO +0 60100 0 01312    00637 TSX +0 07400 4 00010    00640 TXH +3 00000 0 00057
 00641 STO +0 60100 0 01311    00642 TSX +0 07400 4 00003    00643 TXH +3 00000 0 01311    00644 STO +0 60100 0 01311
 00645 TSX +0 07400 4 00010    00646 TXH +3 00000 0 00065    00647 STO +0 60100 0 01310    00650 TSX +0 07400 4 00003
 00651 TXH +3 00000 0 01310    00652 STO +0 60100 0 01310    00653 TSX +0 07400 4 00023    00654 TXH +3 00000 0 00116
 00655 TXH +3 00000 0 01310    00656 TXH +3 00000 0 01311    00657 TIX +2 00121 0 00052    00660 TXH +3 00000 0 01312
                 W'R PCNTOF .GE. OVFON                                              076  LM00167
 00661 CLA +0 50000 0 00076    00662 SUB +0 40200 0 00074    00663 TZE +0 10000 0 00665    00664 TMI -0 12000 0 00710
                      W'R .NOT. OFLAG, SLOC.(SPESHL,QTMLOC)                         077  LM00168
 00665 ZET +0 52000 0 00067    00666 TRA +0 02000 0 00672    00667 TSX +0 07400 4 00024    00670 TXH +3 00000 0 00113
 00671 TXH +3 00000 0 00105
                      PRMESS.(BZ57.(DERBC.(PCNTOF)),$ PERCENT OVERFLOW$)            078  LM00169
 00672 TSX +0 07400 4 00010    00673 TXH +3 00000 0 00076    00674 STO +0 60100 0 01312    00675 TSX +0 07400 4 00002
 00676 TXH +3 00000 0 01312    00677 STO +0 60100 0 01312    00700 TSX +0 07400 4 00023    00701 TXH +3 00000 0 01312
 00702 TXH +3 00000 0 00200    00703 TXH +3 00000 0 00161    00704 TXH +3 00000 0 00170
                      OFLAG = 1B                                                    079  LM00170
 00705 CLA +0 50000 0 00120    00706 STO +0 60100 0 00067
                 O'R PCNTOF .LE. OVFOFF .AND. OFLAG                                 080  LM00171
 00707 TRA +0 02000 0 00727    00710 NZT -0 52000 0 00067    00711 TRA +0 02000 0 00727    00712 CLA +0 50000 0 00076
 00713 SUB +0 40200 0 00073    00714 TZE +0 10000 0 00716    00715 TPL +0 12000 0 00727
                      SLOC.(NORMAL,QTMLOC)                                          081  LM00172
 00716 TSX +0 07400 4 00024    00717 TXH +3 00000 0 00063    00720 TXH +3 00000 0 00105
                      PRMESS.($NO MORE OVERFLOW$)                                   082  LM00173
 00721 TSX +0 07400 4 00023    00722 TXH +3 00000 0 00156    00723 TXH +3 00000 0 00143    00724 TXH +3 00000 0 00144
                      OFLAG = 0B                                                    083  LM00174
 00725 CLA +0 50000 0 00117    00726 STO +0 60100 0 00067
                 E'L                                                                084  LM00175
                 W'R (QLEN.G.QLEN2) .OR. (QLEN.G.QLEN1 .AND. OFLAG)                 085  LM00184
 00727 NZT -0 52000 0 00067    00730 TRA +0 02000 0 00735    00731 CLA +0 50000 0 00104    00732 SUB +0 40200 0 00102
 00733 TZE +0 10000 0 00735    00734 TPL +0 12000 0 00741    00735 CLA +0 50000 0 00104    00736 SUB +0 40200 0 00103
 00737 TZE +0 10000 0 01071    00740 TMI -0 12000 0 01071
                      W'R QFLAG                                                     086  LM00185
 00741 NZT -0 52000 0 00101    00742 TRA +0 02000 0 01040
                           W'R MXUSRS.LE. SYSMIN, T'O BED                           087  LM00188
 00743 CLA +0 50000 0 00057    00744 SUB +0 40200 0 00115    00745 TZE +0 10000 0 00747    00746 TPL +0 12000 0 00750
 00747 TRA +0 02000 0 00034
                           MXUSRS = NUSERS - 1                                      088  LM00189
 00750 CLA +0 50000 0 00065    00751 SUB +0 40200 0 00120    00752 STO +0 60100 0 00057
                           W'R MXUSRS .LE. SYSMIN, MXUSRS = SYSMIN                  089  LM00190
 00753 CLA +0 50000 0 00057    00754 SUB +0 40200 0 00115    00755 TZE +0 10000 0 00757    00756 TPL +0 12000 0 00761
 00757 CLA +0 50000 0 00115    00760 STO +0 60100 0 00057
                           SLOC.(MXUSRS,MXULOC)                                     090  LM00191
 00761 TSX +0 07400 4 00024    00762 TXH +3 00000 0 00057    00763 TXH +3 00000 0 00056
                           PRMESS.($MXUSRS CUT TO$,BZ57.(DERBC.(MXUSRS)))           091  LM00192
 00764 TSX +0 07400 4 00010    00765 TXH +3 00000 0 00057    00766 STO +0 60100 0 01312    00767 TSX +0 07400 4 00002
 00770 TXH +3 00000 0 01312    00771 STO +0 60100 0 01312    00772 TSX +0 07400 4 00023    00773 TXH +3 00000 0 00154
 00774 TXH +3 00000 0 00175    00775 TXH +3 00000 0 00163    00776 TXH +3 00000 0 01312
                           LOSER = FINDSB.(0)                                       092  LM00193
 00777 TSX +0 07400 4 00012    01000 TXH +3 00000 0 00117    01001 STO +0 60100 0 00053
                           W'R LOSER .G. 2                                          093  LM00194
 01002 CLA +0 50000 0 00053    01003 SUB +0 40200 0 00121    01004 TZE +0 10000 0 01032    01005 TMI -0 12000 0 01032
                                KILL.(LOSER)                                        094  LM00195
 01006 TSX +0 07400 4 00021    01007 TXH +3 00000 0 00053
                                PRMESS.($KILLED$,GLOC.(PROBN+LOSER),                095  LM00196
                1               BLANK,GLOC.(PROGN+LOSER))                           095  LM00197
 01010 CLA +0 50000 0 00100    01011 ADD +0 40000 0 00053    01012 STO +0 60100 0 01312    01013 TSX +0 07400 4 00017
 01014 TXH +3 00000 0 01312    01015 STO +0 60100 0 01312    01016 CLA +0 50000 0 00077    01017 ADD +0 40000 0 00053
 01020 STO +0 60100 0 01311    01021 TSX +0 07400 4 00017    01022 TXH +3 00000 0 01311    01023 STO +0 60100 0 01311
 01024 TSX +0 07400 4 00023    01025 TXH +3 00000 0 00152    01026 TXH +3 00000 0 01311    01027 TXH +3 00000 0 00041
 01030 TXH +3 00000 0 01312
                           O'E                                                      096  LM00198
 01031 TRA +0 02000 0 01037
                                PRMESS.($NO STANDBY USER TO KILL$)                  097  LM00199
 01032 TSX +0 07400 4 00023    01033 TXH +3 00000 0 00157    01034 TXH +3 00000 0 00155    01035 TXH +3 00000 0 00221
 01036 TXH +3 00000 0 00176
                           E'L                                                      098  LM00200
                      O'E                                                           099  LM00201
 01037 TRA +0 02000 0 01070
                           QFLAG = 1B                                               100  LM00202
 01040 CLA +0 50000 0 00120    01041 STO +0 60100 0 00101
                      MXUSRS = NUSERS                                               101  LM00203
 01042 CLA +0 50000 0 00065    01043 STO +0 60100 0 00057
                           W'R MXUSRS .LE. SYSMIN, MXUSRS = SYSMIN                  102  LM00204
 01044 CLA +0 50000 0 00057    01045 SUB +0 40200 0 00115    01046 TZE +0 10000 0 01050    01047 TPL +0 12000 0 01052
 01050 CLA +0 50000 0 00115    01051 STO +0 60100 0 00057
                           SLOC.(MXUSRS,MXULOC)                                     103  LM00205
 01052 TSX +0 07400 4 00024    01053 TXH +3 00000 0 00057    01054 TXH +3 00000 0 00056
                           PRMESS.($MXUSRS CUT TO$,BZ57.(DERBC.(MXUSRS)))           104  LM00206
 01055 TSX +0 07400 4 00010    01056 TXH +3 00000 0 00057    01057 STO +0 60100 0 01312    01060 TSX +0 07400 4 00002
 01061 TXH +3 00000 0 01312    01062 STO +0 60100 0 01312    01063 TSX +0 07400 4 00023    01064 TXH +3 00000 0 00154
 01065 TXH +3 00000 0 00175    01066 TXH +3 00000 0 00163    01067 TXH +3 00000 0 01312
                      E'L                                                           105  LM00207
                 O'E                                                                106  LM00208
 01070 TRA +0 02000 0 01125
                      QFLAG = 0B                                                    107  LM00209
 01071 CLA +0 50000 0 00117    01072 STO +0 60100 0 00101
                      W'R MXUSRS .GE. SYSMAX, T'O BED                               108  LM00210
 01073 CLA +0 50000 0 00057    01074 SUB +0 40200 0 00114    01075 TZE +0 10000 0 01077    01076 TMI -0 12000 0 01100
 01077 TRA +0 02000 0 00034
                      MXUSRS = MXUSRS + 1                                           109  LM00211
 01100 CLA +0 50000 0 00057    01101 ADD +0 40000 0 00120    01102 STO +0 60100 0 00057
                      SLOC.(MXUSRS,MXULOC)                                          110  LM00212
 01103 TSX +0 07400 4 00024    01104 TXH +3 00000 0 00057    01105 TXH +3 00000 0 00056
                      PRMESS.($MXUSRS RAISED TO$,(BZ57.(DERBC.(MXUSRS))             111  LM00213
                1     .A.7777K).V.57575757K4)                                       111  LM00214
 01106 TSX +0 07400 4 00010    01107 TXH +3 00000 0 00057    01110 STO +0 60100 0 01312    01111 TSX +0 07400 4 00002
 01112 TXH +3 00000 0 01312    01113 STO +0 60100 0 01312    01114 CAL -0 50000 0 01312    01115 ANA -0 32000 0 00132
 01116 ORA -0 50100 0 00173    01117 SLW +0 60200 0 01312    01120 TSX +0 07400 4 00023    01121 TXH +3 00000 0 00154
 01122 TXH +3 00000 0 00203    01123 TXH +3 00000 0 00142    01124 TXH +3 00000 0 01312
                 E'L                                                                112  LM00215
      BED        W'R COMARG.(1,ARG1).E.$ RESET$, ARG1 = COMARG.(3)                  113  LM00220
 01125 TSX +0 07400 4 00005    01126 TXH +3 00000 0 00120    01127 TXH +3 00000 0 00037    01130 SUB +0 40200 0 00204
 01131 TNZ -0 10000 0 01135    01132 TSX +0 07400 4 00005    01133 TXH +3 00000 0 00122    01134 STO +0 60100 0 00037
                 W'R BCDEC.(ARG1).E.0, ARG1 = 777777777777K                         114  LM00221
 01135 TSX +0 07400 4 00001    01136 TXH +3 00000 0 00037    01137 SUB +0 40200 0 00117    01140 TNZ -0 10000 0 01143
 01141 CLA +0 50000 0 00225    01142 STO +0 60100 0 00037
                 W'R ARG1.NE.777777777777K,SLPTIM=BCDEC.(ARG1)*60                   115  LM00222
 01143 CLA +0 50000 0 00037    01144 SUB +0 40200 0 00225    01145 TZE +0 10000 0 01153    01146 TSX +0 07400 4 00001
 01147 TXH +3 00000 0 00037    01150 XCA +0 13100 0 00000    01151 MPY +0 20000 0 00127    01152 STQ -0 60000 0 00112
                 SNOOZE.(SLPTIM,COMMND(1))                                          116  LM00223
 01153 TSX +0 07400 4 00025    01154 TXH +3 00000 0 00112    01155 TXH +3 00000 0 00042
                 T'O START                                                          117  LM00224
 01156 TRA +0 02000 0 00036
                 INTERNAL FUNCTION (ARG)                                            118  LM00228
 01157 TRA +0 02000 0 01201
                 ENTRY TO FGLOC.                                                    119  LM00229
 01160 TRA +0 02000 0 01163    00031 TTR +0 02100 0 01161    01161 SXA +0 63400 2 01167    01162 TSX +0 07400 2 01167
                 FUNCTION RETURN GLOC.(ARG)                                         120  LM00230
 01163 TSX +0 07400 4 00017    01164 TXH +3 00000 0 00024    01165 TRA +0 02000 0 01175
                 END OF FUNCTION                                                    121  LM00231
 01166 TSX +0 07400 4 00011    01167 TXH +3 00000 0 00000    01170 SXD -0 63400 1 01167    01171 SXA +0 63400 4 01175
 01172 CLA +0 50000 4 00001    01173 STO +0 60100 0 01164    01174 TRA +0 02000 2 00001    01175 AXT +0 77400 4 00000
 01176 LXA +0 53400 2 01167    01177 LXD -0 53400 1 01167    01200 TRA +0 02000 4 00001
                 INTERNAL FUNCTION (NUM)                                            122  LM00235
 01201 TRA +0 02000 0 01235
                 ENTRY TO CONV.                                                     123  LM00236
 01202 TRA +0 02000 0 01205    00030 TTR +0 02100 0 01203    01203 SXA +0 63400 2 01222    01204 TSX +0 07400 2 01222
                 FUNCTION RETURN (BZEL.(DEFBC.(NUM)).A.777777K).V.575757K6          124  LM00237
 01205 TSX +0 07400 4 00007    01206 TXH +3 00000 0 00024    01207 STO +0 60100 0 01234    01210 TSX +0 07400 4 00003
 01211 TXH +3 00000 0 01234    01212 STO +0 60100 0 01234    01213 CAL -0 50000 0 01234    01214 ANA -0 32000 0 00133
 01215 ORA -0 50100 0 00172    01216 SLW +0 60200 0 01234    01217 CLA +0 50000 0 01234    01220 TRA +0 02000 0 01230
                 END OF FUNCTION                                                    125  LM00238
 01221 TSX +0 07400 4 00011    01222 TXH +3 00000 0 00000    01223 SXD -0 63400 1 01222    01224 SXA +0 63400 4 01230
 01225 CLA +0 50000 4 00001    01226 STO +0 60100 0 01206    01227 TRA +0 02000 2 00001    01230 AXT +0 77400 4 00000
 01231 LXA +0 53400 2 01222    01232 LXD -0 53400 1 01222    01233 TRA +0 02000 4 00001
                 INTERNAL FUNCTION (NUM)                                            126  LM00242
 01235 TRA +0 02000 0 01307
                 ENTRY TO FLOTBC.                                                   127  LM00243
 01236 TRA +0 02000 0 01241    00032 TTR +0 02100 0 01237    01237 SXA +0 63400 2 01265    01240 TSX +0 07400 2 01265
                 FIX.(NUM,NUM,NUM(1))                                               128  LM00244
 01241 TSX +0 07400 4 00013    01242 TXH +3 00000 0 00024    01243 TXH +3 00000 0 00024    01244 TXH +3 00000 0 00023
                 NUM = CONV.(NUM)                                                   129  LM00245
 01245 TSX +0 07400 4 00030    01246 TXH +3 00000 0 00024    01247 STO +0 60100 0 00024
                 NUM(1) = (FRACBC.(NUM(1)).RS.6).A.77K8 .V. 330057575757K           130  LM00246
 01250 TSX +0 07400 4 00014    01251 TXH +3 00000 0 00023    01252 STO +0 60100 0 01306    01253 CAL -0 50000 0 00125
 01254 STA +0 62100 0 01256    01255 CAL -0 50000 0 01306    01256 LGR -0 76500 0 00000    01257 ANA -0 32000 0 00134
 01260 ORA -0 50100 0 00150    01261 SLW +0 60200 0 00023
                 FUNCTION RETURN                                                    131  LM00247
 01262 TRA +0 02000 0 01302
                 END OF FUNCTION                                                    132  LM00248
 01263 TSX +0 07400 4 00011    01264 PZE +0 00000 0 00001    01265 TXH +3 00000 0 00000    01266 SXD -0 63400 1 01265
 01267 SXA +0 63400 4 01302    01270 CLA +0 50000 4 00001    01271 STO +0 60100 0 01242    01272 STO +0 60100 0 01243
 01273 STO +0 60100 0 01246    01274 STA +0 62100 0 01247    01275 SUB +0 40200 0 01264    01276 STO +0 60100 0 01244
 01277 STO +0 60100 0 01251    01300 STA +0 62100 0 01261    01301 TRA +0 02000 2 00001    01302 AXT +0 77400 4 00000
 01303 LXA +0 53400 2 01265    01304 LXD -0 53400 1 01265    01305 TRA +0 02000 4 00001
                 END OF PROGRAM                                                     133  LM00251
 01307 TSX +0 07400 4 00011
1            UTILITY ROUTINES FOR LOGIN AND LOGOUT.                                              PAGE 1

                                             2/8/66 - NOEL I. MORRIS

                       00001         ENTRY   ISIN          DETERMINE IF USER LOGGED IN
                       00026         ENTRY   FINDSB        FIND A STANDBY USER
                       00060         ENTRY   KILL          MURDER A LOSER
                       00135         ENTRY   CHKLU         CHECK FOR KLUDGE USER

                                     UNLIST
 M                            S      COMMON  M             MACRO TO REDEFINE COMMON
 M                            LDISW  MACRO   S,X
 M                            STISW  MACRO   S,X
 M                            CALL   MACRO   SUBR,LIST

1            UTILITY ROUTINES FOR LOGIN AND LOGOUT.                                              PAGE 2
                           ISIN - DETERMINE IF USER ALREADY LOGGED IN.


                              * * * * * * * * * * * * * * * * * * * * * * * * * * * * * * * * * * * *
                              *
                              *      CALLING SEQUENCE -
                              *
                              *      LINE = ISIN. (PROB, PROG)
                              *
                              *      IF USER IS NOT LOGGED IN,  LINE IS SET TO ZERO.
                              *      OTHERWISE LINE IS SET TO THE LINE NO. OF THE USER.
                              *
                              *
                              * * * * * * * * * * * * * * * * * * * * * * * * * * * * * * * * * * * *


      00001  0634 00 4 00021  ISIN   SXA     SX4,4         SAVE XR4

      00002 -0500 60 4 00001         CAL*    1,4           PICK UP PROBLEM NO.
      00003  0602 00 0 00151         SLW     PROB          ..
      00004 -0500 60 4 00002         CAL*    2,4           AND PROGRAMMER NO.
      00005  0602 00 0 00152         SLW     PROG          ..

      00006  0774 00 4 00062         AXT     N,4           SEARCH ALL N LINES
      00007                   LOOP   XEC.A   CAL(PROBN+N+1,4) GET PROBLEM NO.
      00011  0322 00 0 00151         ERA     PROB          COMPARE
      00012 -0100 00 0 00017         TNZ     NEXT          ..
      00013                          XEC.A   CAL(PROGN+N+1,4) GET PROGRAMMER NO.
      00015  0322 00 0 00152         ERA     PROG          COMPARE
      00016  0100 00 0 00023         TZE     FND           USER FOUND
      00017  2 00001 4 00007  NEXT   TIX     LOOP,4,1      ..

      00020 -0754 00 0 00000         ZAC                   ZERO MEANS USER NOT FOUND
      00021  0774 00 4 00000  SX4    AXT     **,4          RESTORE XR4
      00022  0020 00 4 00002         TRA     2,4           AND RETURN

      00023  1 77715 4 00024  FND    TXI     *+1,4,-N-1    COMPUTE USER'S LINE NO.
      00024  0756 00 4 00000         PCA     ,4            AND PLACE IN A
      00025  0020 00 0 00021         TRA     SX4           RETURN WITH NO. IN AC
1            UTILITY ROUTINES FOR LOGIN AND LOGOUT.                                              PAGE 3
                           FINDSB - FIND A STANDBY USER.


                              * * * * * * * * * * * * * * * * * * * * * * * * * * * * * * * * * * * *
                              *
                              *      CALLING SEQUENCE -
                              *
                              *      LOSER = FINDSB. (T.GRP)
                              *
                              *
                              *      IF 'T.GRP' IS ZERO, THE STANDBY USER WHO HAS USED MOST TIME
                              *      WILL BE RETURNED.
                              *      IF 'T.GRP' IS NON-ZERO, THE STANDBY USER MUST BE IN
                              *      PARTY-GROUP 'T.GRP'.
                              *
                              *
                              * * * * * * * * * * * * * * * * * * * * * * * * * * * * * * * * * * * *


      00026  0634 00 4 00056  FINDSB SXA     FSX4,4        SAVE XR4
      00027  0500 60 4 00001         CLA*    1,4           GET 'T.GRP'
      00030  0602 00 0 00154         SLW     T.GRP         INSURE NUMBER POSITIVE

      00031  0600 00 0 00153         STZ     LOSER         INITIALIZE
      00032  0600 00 0 00155         STZ     UTM           ..
      00033 -0774 00 4 00003         AXC     3,4           ..
      00034                   SBLOOP XEC.A   NZT(PROBN,4)  IF LOGGED IN,
      00036  0020 00 0 00053         TRA     SBTIX         ..
      00037                          XEC.A   CLA(GRPNO.,4) ..
      00041  0120 00 0 00053         TPL     SBTIX         AND A STANDBY,
      00042 -0520 00 0 00154         NZT     T.GRP         CHECK FOR 'T.GRP' SPECIFIED
      00043  0020 00 0 00046         TRA     *+3           ..
      00044  0400 00 0 00154         ADD     T.GRP         COMPARE WITH SPECIFIED 'T.GRP'
      00045 -0100 00 0 00053         TNZ     SBTIX         ..

      00046                          XEC.A   CAL(UTIME,4)  GET TIME USED
      00050 -0340 00 0 00155         LAS     UTM           COMPARE AGAINST LARGEST
      00051  0602 00 0 00155         SLW     UTM           SAVE LARGER TIME
      00052  0636 00 4 00153         SCA     LOSER,4       AND INDEX TO THE USER
      00053  1 77777 4 00054  SBTIX  TXI     *+1,4,-1      GO ON TO THE NEXT
      00054  3 77715 4 00034         TXH     SBLOOP,4,-N-1 ..

      00055  0500 00 0 00153         CLA     LOSER         GET USER INDEX
      00056  0774 00 4 00000  FSX4   AXT     **,4          RESTORE XR4
      00057  0020 00 4 00002         TRA     2,4           AND RETURN
1            UTILITY ROUTINES FOR LOGIN AND LOGOUT.                                              PAGE 4
                           KILL - MURDER A LOSER.


                              * * * * * * * * * * * * * * * * * * * * * * * * * * * * * * * * * * * *
                              *
                              *      CALLING SEQUENCE -
                              *
                              *      KILL. (LOSER)
                              *
                              *
                              *      'LOSER' IS THE LINE NUMBER OF THE USER TO BE
                              *      MURDERED.
                              *
                              *
                              * * * * * * * * * * * * * * * * * * * * * * * * * * * * * * * * * * * *


      00060  0634 00 4 00132  KILL   SXA     KX4,4         SAVE XR4
      00061  0634 00 2 00133         SXA     KX2,2         AND XR2
      00062 -0500 60 4 00001         CAL*    1,4           GET 'LOSER'
      00063  0602 00 0 00153         SLW     LOSER         ..
      00064  0737 00 2 00000         PAC     ,2            -USER NO. IN XR2

      00065 -0500 00 0 00170         CAL     =HENDLOG      COMMAND FOR 'LOSER'
      00066                          XEC.A   SLW(COMMND,2) ..
      00070                          SCHEDL  =2,LOSER,=1   PULL HIM OUT OF QUEUES AND
      00074                          SCHEDL  =6,LOSER,=0   MAKE HIM RUN
      00100                          SCHEDL  =2,LOSER,=3   AND PLACE IN WAITING COMMAND

      00104  0600 00 0 00156         STZ     12MODE        RESET 12-BIT MODE SWITCH
      00105                          ZETBIT  ,2,FULBIT     CHECK FOR USER IN 12-BIT MODE
      00110 -0625 00 0 00156         STL     12MODE        IF SO, SET 12-BIT MODE SWITCH
      00111                          STZBIT  ,2,FULBIT     MAKE SURE USER IN 6-BIT MODE
      00116                          CALL    RSSWB         AND FLUSH HIS OUTPUT BUFFERS
      00116  0074 00 4 00160         TSX     RSSWB,4                                                          .002
      00117  0 00000 0 00153         PZE     LOSER         ..

      00120                          COMENT  WAIT.,1(WAIT,) AAAAGH ......
      00120  0074 00 4 00161         TSX     WRFLX,4                                                          .003
      00121  3 00001 0 00162         PAR     WAIT.,,1                                                         .005
      00122  0 00000 0 00153         PZE     LOSER         ..

      00123 -0520 00 0 00156         NZT     12MODE        CHECK FOR USER PREVIOUSLY IN 12-BIT MODE
      00124  0020 00 0 00132         TRA     KX4           USER WAS IN 6-BIT MODE
      00125                          STLBIT  ,2,FULBIT     RESET USER'S 12-BIT MODE SWITCH

      00132  0774 00 4 00000  KX4    AXT     **,4          HE SCREAMS
      00133  0774 00 2 00000  KX2    AXT     **,2          BUT
      00134  0020 00 4 00001         TRA     1,4           WE HAVE LEFT
1            UTILITY ROUTINES FOR LOGIN AND LOGOUT.                                              PAGE 5
                           CHKLU - CHECK FOR KLUDGE USER.


                              * * * * * * * * * * * * * * * * * * * * * * * * * * * * * * * * * * * *
                              *
                              *      CALLING SEQUENCE -
                              *
                              *      CINDEX = CHKLU. ()
                              *
                              *      INDEX IS ZERO IF USER IS NOT A KLUDGE USER.
                              *      INDEX IS EITHER 1 OR 2 IF USER IS A KLUDGE USER.
                              *
                              *
                              * * * * * * * * * * * * * * * * * * * * * * * * * * * * * * * * * * * *


      00135  0634 00 4 00147  CHKLU  SXA     CKLX4,4       SAVE XR4

      00136 -0500 00 0 77414         CAL     CONSOL        PICK UP USER CONSOLE I.D.
      00137 -0774 00 4 00002         AXC     2,4           ONLY 2 KLUDGE CONSOLES
      00140                   KLOOP  XEC.A   LAS(KLUNIT-1,4) CHECK FOR KLUDGE CONSOLE
      00142  0020 00 0 00144         TRA     *+2           ..
      00143  0020 00 0 00146         TRA     KLFND         FOUND ONE
      00144  1 00001 4 00145         TXI     *+1,4,1       STEP INDEX
      00145  3 00000 4 00140         TXH     KLOOP,4,0     AND CHECK FOR COMPLETION OF SEARCH

      00146  0756 00 4 00000  KLFND  PCA     ,4            INDEX IN AC
      00147  0774 00 4 00000  CKLX4  AXT     **,4          RESTORE XR4
      00150  0020 00 4 00001         TRA     1,4           AND RETURN WITH INDEX IN AC
1            UTILITY ROUTINES FOR LOGIN AND LOGOUT.                                              PAGE 6
                           STORAGE AND CONSTANTS.

      00151  0 00000 0 00000  PROB   PZE
      00152  0 00000 0 00000  PROG   PZE
      00153  0 00000 0 00000  LOSER  PZE
      00154  0 00000 0 00000  T.GRP  PZE
      00155  0 00000 0 00000  UTM    PZE
      00156  0 00000 0 00000  12MODE PZE


                                     INSERT  TEMPA

                                             *** COMMON PACKAGE FOR LOGIN PROGRAMS. ***

                       77444         KOMMON  WDSLIN-1      ALL-PURPOSE CARD IMAGE BUFFER
                       77444  CARD   KOMMON  1             ..


                                             *** VECTOR USED BY RDACCT PROGRAMS. ***

                       77410         KOMMON  27
                       77410  TEMPA  KOMMON  1

                       77411  NPROB  SYN     TEMPA+1       USER PROBLEM NUMBER
                       77412  NAME   SYN     TEMPA+2       USER NAME
                       77413  PASSW  SYN     TEMPA+3       PASSWORD
                       77414  CONSOL SYN     TEMPA+4       CONSOLE I.D.
                       77415  NPROG  SYN     TEMPA+5       USER PROGRAMMER NUMBER
                       77416  TA1    SYN     TEMPA+6       ALLOTTED TIME
                       77417  TA2    SYN     TEMPA+7       ..
                       77420  TA3    SYN     TEMPA+8       ..
                       77421  TA4    SYN     TEMPA+9       ..
                       77422  TA5    SYN     TEMPA+10      ..
                       77423  GRP    SYN     TEMPA+11      PARTY GROUP NUMBER
                       77424  SB     SYN     TEMPA+12      NON-ZERO IF USER MAY BE STANDBY
                       77425  NUFD   SYN     TEMPA+13      HOME FILE DIRECTORY
                       77426  UNIT   SYN     TEMPA+14      UNIT GROUP NUMBER
                       77427  CODE   SYN     TEMPA+15      USER RESTRICTION CODE (RCODE)
                       77430  LSTLGT SYN     TEMPA+16      DATE AND TIME OF LAST LOGOUT (2 WORDS)
                       77432  USDFRM SYN     TEMPA+18      DATE AND TIME TIME ACCUMULATED FROM
                       77434  TU1    SYN     TEMPA+20      USED TIME
                       77435  TU2    SYN     TEMPA+21      ..
                       77436  TU3    SYN     TEMPA+22      ..
                       77437  TU4    SYN     TEMPA+23      ..
                       77440  TU5    SYN     TEMPA+24      ..
                       77441  TIMEIN SYN     TEMPA+25      TOTAL CONSOLE TIME USED
                       77442         SYN     TEMPA+26
                       77443  LSTUNT SYN     TEMPA+27      CONSOLE LAST LOGGED OUT FROM


      00157  0101 00 0 00172  SCHEDL TIA     =HSCHEDL
1            UTILITY ROUTINES FOR LOGIN AND LOGOUT.                                              PAGE 7
                           STORAGE AND CONSTANTS.

      00160                          RMT     *             REMOTE SEQUENCES
      00160  0101 00 0 00171  RSSWB  TIA     =HRSSWB                                                          .002
      00161  0101 00 0 00173  WRFLX  TIA     =HWRFLX                                                          .002
      00162  662131637360     WAIT.  BCI     1,WAIT,                                                          .002

                                     END

        LITERALS
      00163  000000000000
      00164  000000000001
      00165  000000000002
      00166  000000000003
      00167  000000000006
      00170  254524434627
      00171  516262662260
      00172  622330252443
      00173  665126436760
1            UTILITY ROUTINES FOR LOGIN AND LOGOUT.                                              PAGE 1
                        POST PROCESSOR ASSEMBLY DATA

       77407 IS THE LAST LOCATION NOT USED BY THIS PROGRAM
        174 IS THE FIRST LOCATION NOT USED BY THIS PROGRAM

0REFERENCES TO DEFINED SYMBOLS
          1      A     1
          2      B     1
      71471      C     1
         62      N     1,    6,   10,   14,   23,   54
      71511     MQ     1
      71513     OV     1
      73650     PB     1
      77424     SB   157
      71512     SI     1
      71510     SQ     1
         23    FND    16
      77423    GRP   157
      71476    ILC     1
      74563    IOD     1
      71505    IR1     1
      71504    IR2     1
      71503    IR3     1
      71502    IR4     1
      71501    IR5     1
      71500    IR6     1
      71477    IR7     1
          1    .F.     1
          0    .I.     1
        133    KX2    61
        132    KX4    60,  124
      71507    LAC     1
         21    SX4     1,   25
      77416    TA1   157
      77417    TA2   157
      77420    TA3   157
      77421    TA4   157
      77422    TA5   157
          1    TMP     1
      77434    TU1   157
      77435    TU2   157
      77436    TU3   157
      77437    TU4   157
      77440    TU5   157
        155    UTM    32,   50,   51
          0   BASE     1
      77444   CARD   157
      77427   CODE   157
      73612   DATE     1
      71517   DVCK     1
      71515   FLMD     1
         56   FSX4    26
          0   GETA     7,   13,   34,   37,   46,   66,  105,  111,  114,  125,  130,  140
      71516   IOCK     1
          1   ISIN     0
         60   KILL     0
1            UTILITY ROUTINES FOR LOGIN AND LOGOUT.                                              PAGE 2
                        POST PROCESSOR ASSEMBLY DATA

          7   LOOP    17
      71514   MTMD     1
      77412   NAME   157
         17   NEXT    12
      77425   NUFD   157
        151   PROB     3,   11
        152   PROG     5,   15
      72523   Q1U1     1
      72037   Q1U2     1
      72522   Q3U1     1
      71765   Q3U2     1
      71520   SLTS     1
      73632   SWAP     1
      76623   TAU1     1
      76540   TAU2     1
      76455   TAU3     1
      76372   TAU4     1
      76307   TAU5     1
     125000   UBTS     1
      77426   UNIT   157
      73613   USER     1
      73564   WAIT     1
      74164  ADOPT     1
      71521  ASTAT     1
      74332  AWAKE     1
      71522  BSTAT     1
        135  CHKLU     0
        147  CKLX4   135
     200000  CLKBT     1
      73605  COMSW     1
      72645  DBUF1     1
      77777  ENBWD     1
       1000  FULBT     1
     100000  GPHBT     1
      76056  ITIME     1
      77461  ..001     1
      77776  ..003     1
      77147  ..011     1
      76711  ..015     1
      76705  ..018     1
      73561  ..104     1
      73524  ..106     1
      72644  ..108     1
      72570  ..110     1
      72522  ..112     1
      72521  ..114     1
      72137  ..116     1
      72036  ..118     1
      71762  ..122     1
      71734  ..126     1
      71567  ..128     1
      71534  ..137     1
      71531  ..138     1
        146  KLFND   143
        140  KLOOP   145
1            UTILITY ROUTINES FOR LOGIN AND LOGOUT.                                              PAGE 3
                        POST PROCESSOR ASSEMBLY DATA

         24  LCBUF     1
      77546  LEVEL     1
        153  LOSER    31,   52,   55,   63,   72,   76,  102,  117,  122
         12  MAXLV     1
      20000  NBKBT     1
       4000  NCVBT     1
      77411  NPROB   157
      77415  NPROG   157
      77413  PASSW   157
      73525  PBUFF     1
      77036  PLIST     1
      71473  PRIND     1
      75773  PROBN     1,   10,   35
      75710  PROGN     1,   14
      71506  PTIRS     1
          3  QUITL     1
      75245  RCODE     1
      73562  READY     1
      71474  RLIND     1
        160  RSSWB   116
         53  SBTIX    36,   41,   45
      73620  SHIFT     1
      73617  STNBY     1
      73606  SWPSW     1
      73635  TBASE     1
      77410  TEMPA   157
        154  T.GRP    30,   42,   44
      52004  UBITS     1
      75542  UFDNM     1
      76725  ULIST     1
      75625  UNAME     1
      76224  UTIME     1,   47
        162  WAIT.   121
        161  WRFLX   120
        156 12MODE   104,  110,  123
         12 ACTFIL     1
         53 AFS1LN     1
        361 AFS2LN     1
         25 AFSCON     1
         26 AFSENL     1
      72571 AFSTU1     1
      72140 AFSTU2     1
      73565 ATLOST     1
      71526 ATRILC     1
      71542 AUTHOR     1
      73575 AUTOND     1
      73570 BASEAD     1
      73640 BEGTIM     1
      73566 BKGATT     1
      73603 BKGTIM     1
      71535 BREAKL     1
      71536 BRKILC     1
      71527 BTRILC     1
      71737 CCBSAV     1
          5 CDEPTH     1
1            UTILITY ROUTINES FOR LOGIN AND LOGOUT.                                              PAGE 4
                        POST PROCESSOR ASSEMBLY DATA

      71763 CFSAVE     1
      71736 CLCSAV     1
         40 CLKBIT     1
      73574 CLKTIM     1
         24 CLNGTH     1
      77461 COMBAS     1
      74646 COMCTR     1
      73733 COMFSW     1
      75014 COMMND     1,   67
      77462 COMRLC     1
      73601 COMTIM     1
      73576 COMWAT     1
      77414 CONSOL   136,  157
      73646 CURUSR     1
      73611 DATEYR     1
      73567 DEMKEY     1
      73571 DSKLOC     1
      73563 DUMMY8     1
      71764 EMCOND     1
      73626 EMPLVL     1
      76712 ENDPTR     1
      73614 ESTTIM     1
          1 FIBBIT     1
      73615 FIBPTR     1
      73616 FIBRUN     1
         26 FINDSB     0
          4 FULBIT     1,  107,  113,  127
      73625 FULLEN     1
      73627 FULLVL     1
      40000 GPHBIT     1
         43 GROUPS     1
      75330 GRPNO.     1,   40
      75413 GRPTBL     1
      73621 HANGUP     1
        400 HNGLBT     1
         10 HUNGBT     1
      74731 ILINES     1
      73622 INACTV     1
        100 INTBIT     1
      76710 KLUNIT     1,  141
      76706 KLUSER     1
      77631 LENGTH     1
      73623 LEVINC     1
      73633 LEVTIM     1
      77430 LSTLGT   157
      77443 LSTUNT   157
      71472 MACOND     1
      73631 MAXLVL     1
      73636 MAXTIM     1
      71475 MEMBND     1
      73630 MINLVL     1
      73647 MXUSRS     1
       1000 NBACBT     1
      10000 NBKBIT     1
       2000 NCVBIT     1
1            UTILITY ROUTINES FOR LOGIN AND LOGOUT.                                              PAGE 5
                        POST PROCESSOR ASSEMBLY DATA

      10000 NDEMBT     1
      77777 NEWTOP     1
      73644 NEWUSR     1
       4000 NFIBBT     1
       2000 NFORBT     1
        200 NINTBT     1
      76141 NOTIME     1
      20000 NPRCBT     1
      73607 NUSERS     1
        660 NWDSPT     1
      73573 NWORDS     1
      74101 OKPROB     1
      74016 OKPROG     1
      71530 OLDILC     1
      77461 OLDTOP     1
      73645 OLDUSR     1
         20 OUTPBT     1
      73634 PAYTIM     1
      73643 PAYUSR     1
         45 Q1U1LN     1
        100 Q1U2LN     1
          0 Q3U1LN     1
         51 Q3U2LN     1
      73624 QNTWAT     1
      73637 QUANTM     1
        100 R636BT     1
          2 RCALBT     1
          1 RCOMBT     1
        200 RDSKBT     1
         40 RKLDBT     1
         20 RPATBT     1
          4 RPROBT     1
         10 RPRVBT     1
      71541 SAVEM1     1
         34 SBLOOP    54
        157 SCHEDL    70,   74,  100
      77714 STATUS     1
      73572 STOPSW     1
      77315 STRTIM     1
      71570 SUBCOM     1
      75457 SUBSYS     1
      73602 SWPTIM     1
      73577 SWPWAT     1
      73641 SYSDAT     1
      73642 SYSTIM     1
      77441 TIMEIN   157
      74247 TIMINC     1
      77463 TIMLEV     1
      73610 TIMNOW     1
      71524 TINHIB     1
      73604 TOTTIM     1
      71523 TSSFSW     1
          1 UBACBT     1
      74415 UCHARG     1
      74500 UCLOCK     1
1            UTILITY ROUTINES FOR LOGIN AND LOGOUT.                                              PAGE 6
                        POST PROCESSOR ASSEMBLY DATA

      71544 UCOMBF     1
          2 UCOMBT     1
         10 UDEMBT     1
      71525 UENBWD     1
      71537 UFERTN     1
          4 UFIBBT     1
          2 UFORBT     1
      71540 UILOCK     1
      75077 UNITID     1
         20 UPRCBT     1
      71543 URCODE     1
      77432 USDFRM   157
      73600 USRWAT     1
      75162 USWICH     1,  106,  112,  115,  126,  131
      71735 WATCOM     1
      77400 WATTIM     1
         16 WDSLIN     1,  157
      77232 WRKTIM     1

0 NO ERROR IN ABOVE ASSEMBLY.
1      M1416 3845  PETER R. BOS .... 12-67 ..... WRFLX -- PRINT ON OR OFFLINE                    PAGE 1

                              *    MODIFIED FOR OFFON OPTION BY ROGER ROACH 4/01/68
                                     PCC     ON
                                     NOLNK
                       00000         ENTRY   -WRFLX
                       00004         ENTRY   -WRFLXA
                       00131         ENTRY   -CHNCOM
                       00134         ENTRY   -NEXCOM
                       00142         ENTRY   -DORMNT
                       00145         ENTRY   -DEAD
                       00150         ENTRY   -SLEEP
                       00214         ENTRY   ON
                       00231         ENTRY   OFF
                       00227         ENTRY   OFFON
                       00264         ENTRY   SSPRNT
                                     LBL     WRFLX
                                     PCC     OFF


                              *
                              *  TO SET PRINTING OFF-LINE, CALL OFF.(-NAME1-,-NAME2-)
                              *     NAME1,NAME2 ARE PRESET TO 'WRFLX OUTPUT', MISSING
                              *     ARGUMENTS ARE SUBSTITUTED BY THEIR OLD VALUES.
                              *  TO SET PRINTING BACK TO ON-LINE (I.E. TIA TO WRFLX),
                              *     CALL ON.()
                              *  TO SET SINGLE SPACE MODE ON OR OFF, CALL SSPRNT.(X),
                              *     WHERE X IS 0 TO FORCE SINGLE SPACE ON OUTPUT, NON-
                              *     ZERO OTHERWISE. SINGLE SPACE MODE PRECEDES A LINE
                              *     BY A BLANK WORD WHEN WRITING INTO A FILE. THIS IS
                              *     THE INITIAL SETTING.
                              *  OUTPUT LINES SENT TO WRFLXA WHICH END IN 555757575757(8)
                              *     OR 005500570057(8), I.E. A C.R. FOLLOWED BY NULLS,
                              *     CAUSE A NEW LINE TO BE BEGUN ON THE NEXT CALL, JUST
                              *     AS THOUGH WRFLX HAD BEEN CALLED. SUCCESSIVE CALLS
                              *     TO WRFLXA OTHERWISE CONTINUE TO APPEND TO THE SAME
                              *     LINE, BY UPDATING THE LINEMARK IN THE OUTPUT FILE.
                              *


                                     UNLIST
 M                            CALL   MACRO   SUBR,ARGS
 M                            TSX    MACRO   SUBR,T        DEFINES TIA IF SUBR UNDEF.


      00000 -0520 00 0 00330  WRFLX  NZT     WROFF         ON-LINE OR OFF. Q
      00001  0101 00 0 01260         TIA     =HWRFLX       ON-LINE.
      00002  0600 00 0 00323         STZ     WXA           OFF, SET FLAG FOR WRFLX.
      00003  0020 00 0 00007         TRA     START
      00004 -0520 00 0 00330  WRFLXA NZT     WROFF         ON OR OFF. Q
      00005  0101 00 0 01257         TIA     =HWRFLXA      ON.
      00006 -0625 00 0 00323         STL     WXA           OF, SET FLAG FOR WRFLXA.
      00007  0634 00 4 00123  START  SXA     XR4,4         SAVE XR4.

      00010                   OPN    CALL    OPEN(=HW,NM1,NM2,=-0,=-0,OPNER,ERCOD)
      00010                          TSX     OPEN,4                                                           .003
      00011  3 00000 0 01262         PAR     =HW                                                              .003
      00012  3 00000 0 01223         PAR     NM1                                                              .003
1      M1416 3845  PETER R. BOS .... 12-67 ..... WRFLX -- PRINT ON OR OFFLINE                    PAGE 2

      00013  3 00000 0 01224         PAR     NM2                                                              .003
      00014  3 00000 0 01252         PAR     =-0                                                              .003
      00015  3 00000 0 01252         PAR     =-0                                                              .003
      00016  3 00000 0 00311         PAR     OPNER                                                            .003
      00017  3 00000 0 00342         PAR     ERCOD                                                            .003
      00020                          CALL    BUFFER(NM1,NM2,(BUF,,432))
      00020                          TSX     BUFFER,4                                                         .003
      00021  3 00000 0 01223         PAR     NM1                                                              .003
      00022  3 00000 0 01224         PAR     NM2                                                              .003
      00023  3 00660 0 00343         PAR     BUF,,432                                                         .003

      00024                   OPENED CALL    FSTATE(NM1,NM2,(LTH,,1))
      00024                          TSX     FSTATE,4                                                         .003
      00025  3 00000 0 01223         PAR     NM1                                                              .003
      00026  3 00000 0 01224         PAR     NM2                                                              .003
      00027  3 00001 0 00333         PAR     LTH,,1                                                           .003
      00030  0522 00 0 00123         XEC     XR4           RESTORE XR4.
      00031  0560 00 4 00001         LDQ     1,4           GET OUTPUT POINTER.
      00032 -0520 00 0 00323         NZT     WXA           WRFLXA CALL. Q
      00033  0020 00 0 00055         TRA     NOCR          NO, JUST SKIP.
      00034 -0500 00 4 00001         CAL     1,4           ELSE, GET THE POINTER AGAIN.
      00035  0621 00 0 00043         STA     CAL           CHECK IF LAST WORD IN BUFFER
      00036 -0734 00 4 00000         PDX     0,4           IS C.R. FOLLOWED BY 5 NULLS.
      00037  0754 00 4 00000         PXA     0,4           *****GAZABE*****
      00040  0400 00 0 00043         ADD     CAL
      00041  0402 00 0 01236         SUB     =1            ADDRESS OF LAST WORD IN BUFFER.
      00042  0621 00 0 00043         STA     CAL
      00043 -0500 00 0 00000  CAL    CAL     -             GET WORD.
      00044 -0340 00 0 01255         LAS     =O555757575757 IS C.R. Q
      00045  0020 00 0 00047         TRA     *+2           NOT 6-BIT KIND.
      00046  0020 00 0 00051         TRA     C.R.
      00047  0322 00 0 01242         ERA     =O005500570057 OTHER KIND MAYBE. Q
      00050 -0100 00 0 00055         TNZ     NOCR          NO, SO FORGET IT, IT AIN'T TRAGIC.
      00051  0600 00 0 00323  C.R.   STZ     WXA           ELSE, PRETEND THIS CALL WAS WRFLX.
      00052 -0130 00 0 00000         XCL                   GET FRESH POINTER.
      00053  0402 00 0 01241         SUB     =O1000000     AND FORGET LAST WORD.
      00054  0020 00 0 00056         TRA     NOCR+1        *****GOTCHA*****
      00055 -0130 00 0 00000  NOCR   XCL                   REAL WRFLX CALL COMES HERE.
      00056  0621 00 0 00120         STA     WR+4
      00057  0622 00 0 00120         STD     WR+4
      00060  0520 00 0 00324         ZET     WA            CHECK FOR PREVIOUS WRFLXA.
      00061  0020 00 0 00103         TRA     REWR          IF SO, GO REWRITE LINE-MARK.

      00062 -0734 00 4 00000         PDX     0,4           WORD COUNT.
      00063  0520 00 0 00327         ZET     SS            WANT SINGLE SPACE. Q
      00064  1 00001 4 00065         TXI     *+1,4,1       OK, YOU GOT IT.
      00065  0634 00 4 00334         SXA     LMARK,4       ..
      00066 -0500 00 0 00333         CAL     LTH           GET RELLOC FOR APPENDING.
      00067  0400 00 0 01236         ADD     =1
      00070  0602 00 0 00341         SLW     RELLOC        ..
      00071  0602 00 0 00336         SLW     LMLOC         NOT REWRITING OLD LINE-MARK, SO IS RELLOC.
      00072                          CALL    WRWAIT(NM1,NM2,RELLOC,(LMARK,...,NLM))
      00072                          TSX     WRWAIT,4                                                         .003
      00073  3 00000 0 01223         PAR     NM1                                                              .003
      00074  3 00000 0 01224         PAR     NM2                                                              .003
      00075  3 00000 0 00341         PAR     RELLOC                                                           .003
1      M1416 3845  PETER R. BOS .... 12-67 ..... WRFLX -- PRINT ON OR OFFLINE                    PAGE 3

      00076  2 00332 0 00334         BLK     LMARK,...,NLM                                                    .003
      00077 -0500 00 0 00341         CAL     RELLOC        UPDATE RELLOC.
      00100  0400 00 0 00332         ADD     NLM           1 OR 2.
      00101  0602 00 0 00341         SLW     RELLOC
      00102  0020 00 0 00114         TRA     WR            NOW GO WRITE OUT LINE.

      00103 -0734 00 4 00000  REWR   PDX     0,4
      00104  0754 00 4 00000         PXA     0,4           UPDATE LINE-MARK.
      00105  0361 00 0 00334         ACL     LMARK
      00106  0621 00 0 00334         STA     LMARK         ..
      00107                          CALL    WRWAIT(NM1,NM2,LMLOC,(LMARK,,1))
      00107                          TSX     WRWAIT,4                                                         .003
      00110  3 00000 0 01223         PAR     NM1                                                              .003
      00111  3 00000 0 01224         PAR     NM2                                                              .003
      00112  3 00000 0 00336         PAR     LMLOC                                                            .003
      00113  3 00001 0 00334         PAR     LMARK,,1                                                         .003

      00114                   WR     CALL    WRWAIT(NM1,NM2,RELLOC,(-,,-))
      00114                          TSX     WRWAIT,4                                                         .003
      00115  3 00000 0 01223         PAR     NM1                                                              .003
      00116  3 00000 0 01224         PAR     NM2                                                              .003
      00117  3 00000 0 00341         PAR     RELLOC                                                           .003
      00120  3 00000 0 00000         PAR     -,,-                                                             .003
      00121 -0500 00 0 00323         CAL     WXA           SET OLD WRFLXA FLAG FROM CURRENT ONE.
      00122  0602 00 0 00324         SLW     WA            ..

      00123  0774 00 4 00000  XR4    AXT     -,4
      00124 -0520 00 0 00331         NZT     ONOFF
      00125  0020 00 4 00002         TRA     2,4           RETURN.
      00126 -0520 00 0 00323         NZT     WXA
      00127  0101 00 0 01260         TIA     =HWRFLX
      00130  0101 00 0 01257         TIA     =HWRFLXA


      00131  0634 00 4 00175  CHNCOM SXA     X4,4          THESE ENTRIES TO RECOVER CONTROL.
      00132  0774 00 4 00162         AXT     CHN,4
      00133  0020 00 0 00152         TRA     CLS
      00134  0634 00 4 00175  NEXCOM SXA     X4,4
      00135                          CALL    CLOSE(=HALL,=-0)
      00135                          TSX     CLOSE,4                                                          .003
      00136  3 00000 0 01243         PAR     =HALL                                                            .003
      00137  3 00000 0 01252         PAR     =-0                                                              .003
      00140  0534 00 4 00175         LXA     X4,4
      00141  0101 00 0 01253         TIA     =HNEXCOM
      00142  0634 00 4 00175  DORMNT SXA     X4,4
      00143  0774 00 4 00203         AXT     DMT,4
      00144  0020 00 0 00152         TRA     CLS
      00145  0634 00 4 00175  DEAD   SXA     X4,4
      00146  0774 00 4 00207         AXT     DED,4
      00147  0020 00 0 00152         TRA     CLS
      00150  0634 00 4 00175  SLEEP  SXA     X4,4
      00151  0774 00 4 00210         AXT     SLP,4

      00152  0634 00 4 00161  CLS    SXA     TRA,4         TRANSFER ADDRESS.
      00153  0602 00 0 00337         SLW     LAC           SAVE AC.
      00154  0601 00 0 00340         STO     AC
1      M1416 3845  PETER R. BOS .... 12-67 ..... WRFLX -- PRINT ON OR OFFLINE                    PAGE 4

      00155                          CALL    CLOSE(NM1,NM2,*+1) CLOSE IT.
      00155                          TSX     CLOSE,4                                                          .003
      00156  3 00000 0 01223         PAR     NM1                                                              .003
      00157  3 00000 0 01224         PAR     NM2                                                              .003
      00160  3 00000 0 00161         PAR     *+1                                                              .003
      00161  0020 00 0 00000  TRA    TRA     -

      00162  0522 00 0 00175  CHN    XEC     X4            RESTORE XR.
      00163 -0500 00 4 00001         CAL     1,4           CHECK FOR MAD CALL.
      00164  0322 00 0 00326         ERA     PAR
      00165 -0320 00 0 01263         ANA     =O700000000000
      00166 -0100 00 0 00177         TNZ     CHN2          IF NOT TXH, ASSUME NORMAL.
      00167 -0500 60 4 00001         CAL*    1,4           MAD, GET ARG.
      00170  0621 00 0 00174         STA     .CHN+1
      00171  0500 00 0 00340         CLA     AC
      00172 -0501 00 0 00337         ORA     LAC
      00173                   .CHN   CALL    TIACHN((-,0,0)) PZE ON ARG.
      00173                          TSX     TIACHN,4                                                         .003
      00174  0 00000 0 00000         PZE     -,0,0                                                            .003
      00175  0774 00 4 00000  X4     AXT     -,4           RESTART, RETURN.
      00176  0020 00 4 00002         TRA     2,4
      00177  0500 00 0 00340  CHN2   CLA     AC            RESTORE MACH. COND.
      00200 -0501 00 0 00337         ORA     LAC
      00201  0534 00 4 00175         LXA     X4,4
      00202  0101 00 0 01245  TIACHN TIA     =HCHNCOM      SNEAKY.

      00203  0500 00 0 00340  DMT    CLA     AC
      00204 -0501 00 0 00337         ORA     LAC
      00205  0534 00 4 00175         LXA     X4,4
      00206  0101 00 0 01250         TIA     =HDORMNT

      00207  0101 00 0 01247  DED    TIA     =HDEAD

      00210  0500 00 0 00340  SLP    CLA     AC
      00211 -0501 00 0 00337         ORA     LAC
      00212  0534 00 4 00175         LXA     X4,4
      00213  0101 00 0 01256         TIA     =HSLEEP


      00214  0634 00 4 00225  ON     SXA     ONX4,4        SET PRINT ON-LINE.
      00215  0600 00 0 00331         STZ     ONOFF
      00216  0600 00 0 00330         STZ     WROFF         SET FLAG.
      00217  0600 00 0 00324         STZ     WA            THAT ONE TOO.
      00220  0634 00 0 00334         ZSA     LMARK         AND EVEN THIS.
      00221                          CALL    CLOSE(NM1,NM2,*+1) CLOSE FILE.
      00221                          TSX     CLOSE,4                                                          .003
      00222  3 00000 0 01223         PAR     NM1                                                              .003
      00223  3 00000 0 01224         PAR     NM2                                                              .003
      00224  3 00000 0 00225         PAR     *+1                                                              .003
      00225  0774 00 4 00000  ONX4   AXT     -,4
      00226  0020 00 4 00001         TRA     1,4           AND RETURN.

      00227 -0625 00 0 00331  OFFON  STL     ONOFF
      00230  0020 00 0 00232         TRA     *+2
      00231  0600 00 0 00331  OFF    STZ     ONOFF         SET PRINT OFF-LINE, WITH FILE
      00232  0634 00 4 00261         SXA     OFX4,4
1      M1416 3845  PETER R. BOS .... 12-67 ..... WRFLX -- PRINT ON OR OFFLINE                    PAGE 5

      00233                          CALL    CLOSE(NM1,NM2,*+1) NAME AS OPTIONAL ARGS.
      00233                          TSX     CLOSE,4                                                          .003
      00234  3 00000 0 01223         PAR     NM1                                                              .003
      00235  3 00000 0 01224         PAR     NM2                                                              .003
      00236  3 00000 0 00237         PAR     *+1                                                              .003
      00237  0522 00 0 00261         XEC     OFX4          RESTORE THE XR.
      00240 -0500 00 4 00001         CAL     1,4           GO LOOK FOR NAME1.
      00241  0602 00 0 00243         SLW     *+2           ..
      00242                          TSX     CHKARG,4      IS ARG. Q
      00243  0 00000 0 00000         ***     -,-,-
      00244  0522 00 0 00261         XEC     OFX4          (RESTORE XR4.)
      00245  0100 00 0 00262         TZE     OFTRA         ZERO FROM CHKARG = NO ARG.
      00246  0602 00 0 01223         SLW     NM1           SAVE AS NAME1.
      00247  1 77777 4 00250         TXI     *+1,4,-1      INCREMENT RETURN.
      00250  0634 00 4 00261         SXA     OFX4,4        SAVE AGAIN.
      00251 -0500 00 4 00001         CAL     1,4           TRY FOR SECOND ARG.
      00252  0602 00 0 00254         SLW     *+2           ..
      00253                          TSX     CHKARG,4
      00254  0 00000 0 00000         ***     -,-,-
      00255  0100 00 0 00261         TZE     OFX4          IF NOT, EXIT.
      00256  0522 00 0 00261         XEC     OFX4          ELSE, RESTORE XR4.
      00257  0602 00 0 01224         SLW     NM2           AND STORE.
      00260  1 77777 4 00262         TXI     OFTRA,4,-1    AND EXIT.
      00261  0774 00 4 00000  OFX4   AXT     -,4
      00262 -0625 00 0 00330  OFTRA  STL     WROFF         SET FLAG, DON'T FORGET.
      00263  0020 00 4 00001         TRA     1,4           AND RETURN AFTER LAST ARG.


      00264 -0500 60 4 00001  SSPRNT CAL*    1,4           GET ARG ( 0 OR NOT ).
      00265  0560 00 0 01236         LDQ     =1            NUMBER OF WDS FOR LMARK.
      00266  0600 00 0 00327         STZ     SS            SET FLAG.
      00267  0100 00 0 00272         TZE     *+3           IF 0, LEAVE IT THAT WAY.
      00270  0560 00 0 01237         LDQ     =2            ELSE, LINE MARK + BLANK WORD.
      00271 -0625 00 0 00327         STL     SS            AND CHANGE FLAG.
      00272 -0600 00 0 00332         STQ     NLM           SAVE NWORDS.
      00273  0020 00 4 00002         TRA     2,4           RETURN.


      00274 -0500 00 4 00001  CHKARG CAL     1,4           TEST FOR EFA, PAR OR PZE ARGUMENT.
      00275 -0320 00 0 01264         ANA     =O777700000000 MASK OPCODE.
      00276  0322 00 0 00325         ERA     EFA           IS EFA. Q
      00277  0100 00 0 00307         TZE     ISARG         YUP.
      00300 -0500 00 4 00001         CAL     1,4           NOPE, GET IT AGAIN.
      00301 -0320 00 0 01265         ANA     =O777777700000 MASK OUT ADDRESS.
      00302  0100 00 0 00307         TZE     ISARG         PZE, OK.
      00303  0322 00 0 00326         ERA     PAR           ELSE, CHECK FOR PTH.
      00304  0100 00 0 00307         TZE     ISARG         OK, SKIP.
      00305 -0754 00 0 00000         ZAC                   ELSE, RETURN ZERO.
      00306  0020 00 4 00002         TRA     2,4           AND GO AWAY.
      00307 -0500 60 4 00001  ISARG  CAL*    1,4           ARG, GET IT.
      00310  0020 00 4 00002         TRA     2,4           AND RETURN.
1      M1416 3845  PETER R. BOS .... 12-67 ..... WRFLX -- PRINT ON OR OFFLINE                    PAGE 6

      00311  0500 00 0 00342  OPNER  CLA     ERCOD         F.S. ERROR, CHECK IF 'ALREADY ACTIVE'
      00312  0402 00 0 01240         SUB     =3
      00313  0100 00 0 00024         TZE     OPENED        OK, WE'LL BELIEVE IT.
      00314                   ERR    TSX     ON,4          ELSE, RESET WRFLX TO ONLINE.
      00315                          TYPE    4(CAN'T OPEN FILE --WRFLX)
      00315                          TSX     WRFLX,4                                                          .004
      00316  3 00004 0 01232         PAR     ..007,,4                                                         .004
      00317  0522 00 0 00123         XEC     XR4           RESTORE XR4.
      00320  0520 00 0 00323         ZET     WXA           AND GO TO APPROPRIATE ENTRY.
      00321  0020 00 0 00004         TRA     WRFLXA
      00322  0020 00 0 00000         TRA     WRFLX


      00323  0 00000 0 00000  WXA    PZE
      00324  0 00000 0 00000  WA     PZE     0,0,0
      00325  0761 00 0 00000  EFA    EFA
      00326  3 00000 0 00000  PAR    PAR
      00327  0 00000 0 00001  SS     PZE     1
      00330  0 00000 0 00000  WROFF  PZE
      00331  0 00000 0 00000  ONOFF  PZE
      00332  0 00000 0 00002  NLM    PZE     2
      00333  0 00000 0 00000  LTH    PZE
      00334 -377777000000     LMARK  OCT     777777000000
      00335  606060606060            BCI     1,            THIS MUST FOLLOW LMARK.
      00336  0 00000 0 00000  LMLOC  PZE     0
      00337  0 00000 0 00000  LAC    PZE
      00340  0 00000 0 00000  AC     PZE
      00341  0 00000 0 00000  RELLOC PZE
      00342  0 00000 0 00000  ERCOD  PZE

      00343                   BUF    BSS     432           (SIGH)

      01223  606651264367     NM1    BCI     1, WRFLX      OUTPUT FILE NAME, MUST BE REASSEMBLED
      01224  466463476463     NM2    BCI     1,OUTPUT      TO CHANGE.

      01225                          RMT     *
      01225  0101 00 0 01254  OPEN   TIA     =HOPEN                                                           .002
      01226  0101 00 0 01244  BUFFER TIA     =HBUFFER                                                         .002
      01227  0101 00 0 01251  FSTATE TIA     =HFSTATE                                                         .002
      01230  0101 00 0 01261  WRWAIT TIA     =HWRWAIT                                                         .002
      01231  0101 00 0 01246  CLOSE  TIA     =HCLOSE                                                          .002
      01232  232145636046     ..007  BCI     4,CANT OPEN FILE --WRFLX                                         .002
      01233  472545602631
      01234  432560404066
      01235  512643676060
                                     END

        LITERALS
      01236  000000000001
      01237  000000000002
      01240  000000000003
      01241  000001000000
      01242  005500570057
      01243  214343606060
      01244  226426262551
      01245  233045234644
1      M1416 3845  PETER R. BOS .... 12-67 ..... WRFLX -- PRINT ON OR OFFLINE                    PAGE 7

      01246  234346622560
      01247  242521246060
      01250  244651444563
      01251  266263216325
      01252  400000000000
      01253  452567234644
      01254  464725456060
      01255  555757575757
      01256  624325254760
      01257  665126436721
      01260  665126436760
      01261  665166213163
      01262  666060606060
      01263  700000000000
      01264  777700000000
      01265  777777700000
1      M1416 3845  PETER R. BOS .... 12-67 ..... WRFLX -- PRINT ON OR OFFLINE                    PAGE 1
                        POST PROCESSOR ASSEMBLY DATA

       1266 IS THE FIRST LOCATION NOT USED BY THIS PROGRAM

0REFERENCES TO DEFINED SYMBOLS
        340     AC   154,  171,  177,  203,  210
        214     ON     0,  314
        327     SS    63,  266,  271
        324     WA    60,  122,  217
        114     WR    56,   57,  102
        175     X4   131,  134,  140,  142,  145,  150,  162,  201,  205,  212
        343    BUF    23
         43    CAL    35,   40,   42
        162    CHN   132
        152    CLS   133,  144,  147
        207    DED   146
        203    DMT   143
        325    EFA   276
        314    ERR
          1    ..A    11,   12,   13,   14,   15,   16,   17,   21,   22,   23,   25,   26,   27,   73,   74,   75,   76
                     110,  111,  112,  113,  115,  116,  117,  120,  136,  137,  156,  157,  160,  174,  222,  223,  224
                     234,  235,  236,  316
          4    ..D    11,   12,   13,   14,   15,   16,   17,   21,   22,   23,   25,   26,   27,   73,   74,   75,   76
                     110,  111,  112,  113,  115,  116,  117,  120,  136,  137,  156,  157,  160,  174,  222,  223,  224
                     234,  235,  236,  316
          0    ...    76
          0    ..T    11,   12,   13,   14,   15,   16,   17,   21,   22,   23,   25,   26,   27,   73,   74,   75,   76
                     110,  111,  112,  113,  115,  116,  117,  120,  136,  137,  156,  157,  160,  174,  222,  223,  224
                     234,  235,  236,  316
        337    LAC   153,  172,  200,  204,  211
        333    LTH    27,   66
        332    NLM    76,  100,  272
       1223    NM1    12,   21,   25,   73,  110,  115,  156,  222,  234,  246
       1224    NM2    13,   22,   26,   74,  111,  116,  157,  223,  235,  257
        231    OFF     0
         10    OPN
        326    PAR   164,  303
        210    SLP   151
        161    TRA   152
        323    WXA     2,    6,   32,   51,  121,  126,  320
        123    XR4     7,   30,  317
        177   CHN2   166
         51   C.R.    46
        145   DEAD     0
        173   .CHN   170
          3   ..OP    11,   12,   13,   14,   15,   16,   17,   21,   22,   23,   25,   26,   27,   73,   74,   75,   76
                     110,  111,  112,  113,  115,  116,  117,  120,  136,  137,  156,  157,  160,  174,  222,  223,  224
                     234,  235,  236,  316
         55   NOCR    33,   50,   54
        261   OFX4   232,  237,  244,  250,  255,  256
        225   ONX4   214
       1225   OPEN    10
        103   REWR    61
       1231  CLOSE   135,  155,  221,  233
        342  ERCOD    17,  311
        307  ISARG   277,  302,  304
1      M1416 3845  PETER R. BOS .... 12-67 ..... WRFLX -- PRINT ON OR OFFLINE                    PAGE 2
                        POST PROCESSOR ASSEMBLY DATA

       1232  ..007   316
          0  ..PZE    11,   21,   25,   73,  110,  115,  136,  156,  174,  222,  234,  316
        334  LMARK    65,   76,  105,  106,  113,  220
        336  LMLOC    71,  112
        227  OFFON     0
        262  OFTRA   245,  260
        331  ONOFF   124,  215,  227,  231
        311  OPNER    16
        150  SLEEP     0
          7  START     3
          0  WRFLX     0,  315,  322
        330  WROFF     0,    4,  216,  262
       1226 BUFFER    20
        274 CHKARG   242,  253
        131 CHNCOM     0
        142 DORMNT     0
       1227 FSTATE    24
        134 NEXCOM     0
         24 OPENED   313
        341 RELLOC    70,   75,   77,  101,  117
        264 SSPRNT     0
        202 TIACHN   173
          4 WRFLXA     0,  321
       1230 WRWAIT    72,  107,  114

0 NO ERROR IN ABOVE ASSEMBLY.


   REF   BCD 10/12/70 1511.7    4737         00000
