1     MAD PROGRAM LISTING ... ... ...                 FILE    SYSL   MAD            02/15/68    1850.5
-
                      PROGRAM TO ASSEMBLE MODULES FROM LOAD LISTS                                      LM00001
                           D.R. WIDRIG  OCT. 1966                                                      LM00002
                                                                                                       LM00003
                      LOADING INSTRUCTIONS                                                             LM00004
                           MAD SYSL (LIST)                                                             LM00005
                           FAP GETBUF (LIST)                                                           LM00006
                           FAP SETC (LIST)                                                             LM00007
                           LAED NCLOAD SYSL GETBUF SETC                                                LM00008
                                (SQZ) (SRCH) XLIBE                                                     LM00009
                           SAVE SYSLST                                                                 LM00010
                           R SYSLST N1 -PRGN-                                                          LM00011
                                                                                                       LM00012
                  NORMAL MODE IS INTEGER                                                          *001 LM00013
                  DIMENSION BUFF1(0),BUFF2(0),BUFF3(0)                                            *002 LM00014
                  DIMENSION UFDBUF(0),N1BUF(0)                                                    *003 LM00015
                  DIMENSION LINE(14),V(2),A(20),B(20),DRAIN(7)                                    *004 LM00016
                  EQUIVALENCE (SYSLST,A(19)),(N1,A(18)),(PRGN,A(17))                              *005 LM00017
                  EQUIVALENCE (RLOC,A(16)),(SAVN1,A(14)),(SAVN2,A(13))                            *006 LM00018
                  EQUIVALENCE (NAME1,B(19)),(CLASS,B(16))                                         *007 LM00019
                                                                                                       LM00020
                  VECTOR VALUES UFD = $U.F.D.$                                                    *008 LM00021
                  VECTOR VALUES FILE = $(FILE)$                                                   *009 LM00022
                  VECTOR VALUES WORK = $(WORK)$                                                   *010 LM00023
                  VECTOR VALUES LIST = $(LIST)$                                                   *011 LM00024
                  VECTOR VALUES CTSSLD = $CTSSLD$                                                 *012 LM00025
                  VECTOR VALUES BCD = $   BCD$                                                    *013 LM00026
                  VECTOR VALUES BSS = $   BSS$                                                    *014 LM00027
                  VECTOR VALUES SAVED = $ SAVED$                                                  *015 LM00028
                  VECTOR VALUES OUTPUT = $OUTPUT$                                                 *016 LM00029
                  VECTOR VALUES RQUEST = $RQUEST$                                                 *017 LM00030
                                                                                                       LM00031
                  VECTOR VALUES M1416 = $ M1416$                                                  *018 LM00032
                  VECTOR VALUES MZE = -0                                                          *019 LM00033
                  VECTOR VALUES LTHWRK = 5                                                        *020 LM00034
                  VECTOR VALUES ERCODE = 0                                                        *021 LM00035
                  VECTOR VALUES FENCE = 777777777777K                                             *022 LM00036
                  VECTOR VALUES A(20) = $RESUME$                                                  *023 LM00037
                                                                                                       LM00038
                  VECTOR VALUES TABLE = $   MAD$,$   MAD$,$(LIST)$,777777777777K,                 *024 LM00039
                1      $   FAP$,$   FAP$,$(LIST)$,777777777777K,                                  *024 LM00040
                2      $CRUNCH$,$ BEFAP$,$(CRUN)$,$(LIST)$,                                       *024 LM00041
                3      $ ALGOL$,$   AED$,$(LIST)$,777777777777K,                                  *024 LM00042
                4      777777777777K                                                              *024 LM00043
                  VECTOR VALUES LINE(1) = $$,$$,$$,$$,$$,$$,$$,$$,$$,                             *025 LM00044
                1      $ BCD  $,0,$ BCD  $,0,$PRINT $                                             *025 LM00045
                                                                                                       LM00046
                      GET AND CHECK ARGUMENTS                                                          LM00047
                                                                                                       LM00048
                  ATTNAM.(V(2)...2)                                                               *026 LM00049
                  GETCLS.(A(19))                                                                  *027 LM00050
                  FERRTN.(ERR1)                                                                   *028 LM00051
                  PROGN = V(1)                                                                    *029 LM00052
                                                                                                       LM00053
                      FIRST VERIFY INITIAL STUFF                                                       LM00054
                                                                                                       LM00055
                  WHENEVER N1 .E. FENCE                                                           *030 LM00056
                       PRMESS.($R SYSLST N1 -PRGN-$)                                              *031 LM00057
                       CHNCOM.(0)                                                                 *032 LM00058
                  END OF CONDITIONAL                                                              *033 LM00059
                                                                                                       LM00060
                      CHECK FOR INITIAL ENTRY OR LATER                                                 LM00061
                                                                                                       LM00062
                  WHENEVER PRGN .E. FENCE                                                         *034 LM00063
                       PRGN = PROGN                                                               *035 LM00064
                       RLOC = 1                                                                   *036 LM00065
                       TRANSFER TO PHASE1                                                         *037 LM00066
                  OTHERWISE                                                                       *038 LM00067
                       PROGN = PRGN                                                               *039 LM00068
                  END OF CONDITIONAL                                                              *040 LM00069
                  WHENEVER RLOC .E. FENCE                                                         *041 LM00070
                       RLOC = 1                                                                   *042 LM00071
                       TRANSFER TO PHASE1                                                         *043 LM00072
                  END OF CONDITIONAL                                                              *044 LM00073
                  TRANSFER TO PHASE2                                                              *045 LM00074
                                                                                                       LM00075
                      PHASE1, GET LIST OF THINGS TO DO                                                 LM00076
                                                                                                       LM00077
      PHASE1      WHENEVER PROGN .NE. V(1), ATTACH.(M1416,PROGN)                                  *046 LM00078
                  FSTATE.(UFD,FILE,DRAIN(0)...1)                                                  *047 LM00079
                  FSTATE.(N1,CTSSLD,DRAIN(1)...1)                                                 *048 LM00080
                  DRAIN(0) = DRAIN(0) - 3                                                         *049 LM00081
                                                                                                       LM00082
                      GET BUFFER AREAS AND START INPUT OF FILES                                        LM00083
                                                                                                       LM00084
                  GETBUF.(N1BUF,DRAIN(1))                                                         *050 LM00085
                  OPEN.($R$,N1,CTSSLD)                                                            *051 LM00086
                  RDFILE.(N1,CTSSLD,1,N1BUF(N1BUF+DRAIN(1))...DRAIN(1))                           *052 LM00087
                                                                                                       LM00088
                  GETBUF.(UFDBUF,DRAIN(0))                                                        *053 LM00089
                  OPEN.($R$,UFD,FILE)                                                             *054 LM00090
                  RDFILE.(UFD,FILE,4,UFDBUF(UFDBUF+DRAIN(0))...DRAIN(0))                          *055 LM00091
                                                                                                       LM00092
                      PREPARE FOR LATER USAGES                                                         LM00093
                                                                                                       LM00094
                  WHENEVER PROGN .NE. V(1)                                                        *056 LM00095
                       LINK.(SYSLST,SAVED,M1416,V(1),MZE,MZE,104K,NERR0)                          *057 LM00096
      NERR0            ATTACH.(M1416,V(1))                                                        *058 LM00097
                  END OF CONDITIONAL                                                              *059 LM00098
                                                                                                       LM00099
                      GET BUFFERS FOR OUTPUT FILE                                                      LM00100
                                                                                                       LM00101
                  GETBUF.(BUFF1,432)                                                              *060 LM00102
                  GETBUF.(BUFF2,432)                                                              *061 LM00103
                  GETBUF.(BUFF3,432)                                                              *062 LM00104
                                                                                                       LM00105
                      WAIT FOR I/O, THEN SCRAP INPUT FILES                                             LM00106
                                                                                                       LM00107
                  FWAIT.(N1,CTSSLD)                                                               *063 LM00108
                  FWAIT.(UFD,FILE)                                                                *064 LM00109
                  RESETF.                                                                         *065 LM00110
                                                                                                       LM00111
                      PREPARE OUTPUT FILE                                                              LM00112
                                                                                                       LM00113
                  BFOPEN.($W$,WORK,LIST,BUFF1(BUFF1+432),BUFF2(BUFF2+432),                        *066 LM00114
                1      BUFF3(BUFF3+432),ERR1)                                                     *066 LM00115
                  TRFILE.(WORK,LIST,0)                                                            *067 LM00116
                                                                                                       LM00117
                      SELECT AN ITEM FROM LOAD LIST AND CLASSIFY IT                                    LM00118
                                                                                                       LM00119
                  THROUGH LOOP3, FOR I = DRAIN(1),-14,(I.LE.0)                                    *068 LM00120
                       OFFST1 = N1BUF + I                                                         *069 LM00121
                                                                                                       LM00122
                      LOOK THROUGH UFD FOR MATCH ON FIRST NAME                                         LM00123
                                                                                                       LM00124
                       THROUGH LOOP2, FOR J = DRAIN(0),-7,(J.LE.0)                                *070 LM00125
                            WHENEVER UFDBUF(UFDBUF+J).NE.N1BUF(OFFST1),                           *071 LM00126
                1                TRANSFER TO LOOP2                                                *071 LM00127
                            OFFST2 = UFDBUF + J - 1                                               *072 LM00128
                                                                                                       LM00129
                      NOW LOOK UP SECOND NAME IN TABLE                                                 LM00130
                                                                                                       LM00131
                            THROUGH LOOP1, FOR K = 0,4,(TABLE(K).E.FENCE)                         *073 LM00132
                                 WHENEVER UFDBUF(OFFST2).NE.TABLE(K),                             *074 LM00133
                1                     TRANSFER TO LOOP1                                           *074 LM00134
                                                                                                       LM00135
                      WE HAVE IT, INSERT ACTION CODES INTO WORK LIST                                   LM00136
                                                                                                       LM00137
                                 DRAIN(7) = TABLE(K+1)                                            *075 LM00138
                                 DRAIN(6) = N1BUF(OFFST1)                                         *076 LM00139
                                 DRAIN(5) = TABLE(K+2)                                            *077 LM00140
                                 DRAIN(4) = TABLE(K+3)                                            *078 LM00141
                                 DRAIN(3) = TABLE(K)                                              *079 LM00142
                                 BFWRIT.(WORK,LIST,DRAIN(7)...LTHWRK,ERR1)                        *080 LM00143
                                 TRANSFER TO LOOP3                                                *081 LM00144
                                                                                                       LM00145
      LOOP1                 CONTINUE                                                              *082 LM00146
      LOOP2            CONTINUE                                                                   *083 LM00147
                                                                                                       LM00148
                      NOT FOUND IN UFD, GRIPE                                                          LM00149
                                                                                                       LM00150
                       PRMESS.(N1BUF(OFFST1),$ NOT FOUND$)                                        *084 LM00151
                                                                                                       LM00152
      LOOP3       CONTINUE                                                                        *085 LM00153
                                                                                                       LM00154
                      END OF SCAN, CLOSE WORK LIST                                                     LM00155
                                                                                                       LM00156
                  BFCLOS.(WORK,LIST,ERR1)                                                         *086 LM00157
                  TRANSFER TO START                                                               *087 LM00158
                                                                                                       LM00159
                      CONTROL ENTERS HERE TO CLEAN UP AFTER ASSEMBLY                                   LM00160
                                                                                                       LM00161
      PHASE2      WHOAMI.(LINE(2)...2)                                                            *088 LM00162
                                                                                                       LM00163
                      CHECK FOR BSS DECK AS EVIDENCE OF SUCCESS                                        LM00164
                                                                                                       LM00165
                  FSTATE.(SAVN1,BSS,DRAIN...0,FAILED)                                             *089 LM00166
                                                                                                       LM00167
                      OK, PLACE BSS DECK AND TIDY UP SOURCE FILE                                       LM00168
                                                                                                       LM00169
                  WHENEVER PROGN .NE. V(1)                                                        *090 LM00170
                       MOVFIL.(SAVN1,BSS,M1416,PROGN,FAILED)                                      *091 LM00171
                       UNLINK.(SAVN1,SAVN2,NERR5)                                                 *092 LM00172
                  END OF CONDITIONAL                                                              *093 LM00173
                                                                                                       LM00174
                      MAKE OUTPUT RQUEST                                                               LM00175
                                                                                                       LM00176
      NERR5       FERRTN.(NORQ)                                                                   *094 LM00177
                                                                                                       LM00178
                  OPEN.($W$,OUTPUT,RQUEST)                                                        *095 LM00179
                  GETBUF.(BUFF1,432)                                                              *096 LM00180
                  BUFFER.(OUTPUT,RQUEST,BUFF1(BUFF1+432)...432)                                   *097 LM00181
                                                                                                       LM00182
                  LINE(13) = SAVN1                                                                *098 LM00183
                  LINE(11) = SAVN1                                                                *099 LM00184
                  WRFILE.(OUTPUT,RQUEST,0,LINE(14)...14)                                          *100 LM00185
                  CLOSE.(OUTPUT,RQUEST)                                                           *101 LM00186
                  TRANSFER TO START                                                               *102 LM00187
                                                                                                       LM00188
                      NO RQUEST, COMMENT AND CONTINUE                                                  LM00189
                                                                                                       LM00190
      NORQ        PRMESS.($REQUEST FOR$,SAVN1,$ BCD SKIPPED$)                                     *103 LM00191
                  RESETF.                                                                         *104 LM00192
                  TRANSFER TO START                                                               *105 LM00193
                                                                                                       LM00194
                      NO BSS, ASSEMBLY FAILED                                                          LM00195
                                                                                                       LM00196
      FAILED      PRMESS.($UNABLE TO PLACE$,SAVN1,$ BSS$)                                         *106 LM00197
                  CHFILE.(BSS,SAVN1,MZE,SAVN1,BSS,START)                                          *107 LM00198
                                                                                                       LM00199
                      COMPILE NEXT ITEM ON LIST                                                        LM00200
                                                                                                       LM00201
      START       FERRTN.(ERR1)                                                                   *108 LM00202
                                                                                                       LM00203
                      SELECT ITEM FROM WORK LIST                                                       LM00204
                                                                                                       LM00205
                  OPEN.($R$,WORK,LIST)                                                            *109 LM00206
      READ1       RDWAIT.(WORK,LIST,RLOC,B(20)...LTHWRK,REOF)                                     *110 LM00207
                  RLOC = RLOC + LTHWRK                                                            *111 LM00208
                                                                                                       LM00209
                      FIRST, CLEAR OUT BCD FILE                                                        LM00210
                                                                                                       LM00211
                  CHFILE.(NAME1,BCD,1,MZE,MZE,NERR1)                                              *112 LM00212
                  DELFIL.(NAME1,BCD,NERR1)                                                        *113 LM00213
                                                                                                       LM00214
                      NOW, CLEAR OUT BSS FILE                                                          LM00215
                                                                                                       LM00216
      NERR1       WHENEVER PROGN .NE. V(1), ATTACH.(M1416,PROGN)                                  *114 LM00217
                  CHFILE.(NAME1,BSS,MZE,BSS,NAME1,NERR2)                                          *115 LM00218
                                                                                                       LM00219
                      CHECK CLEARING FOR SUCCESS                                                       LM00220
                                                                                                       LM00221
      NERR2       FSTATE.(NAME1,BSS,DRAIN...0,NERR3,ERCODE)                                       *116 LM00222
      NERR3       WHENEVER (ERCODE .NE. 3), TRANSFER TO SKIPIT                                    *117 LM00223
                                                                                                       LM00224
                      SET UP SOURCE FILE AND CHECK IT                                                  LM00225
                                                                                                       LM00226
                  WHENEVER PROGN .NE. V(1)                                                        *118 LM00227
                       ATTACH.(M1416,V(1))                                                        *119 LM00228
                       LINK.(NAME1,CLASS,M1416,PROGN,MZE,MZE,104K,NERR4)                          *120 LM00229
                  END OF CONDITIONAL                                                              *121 LM00230
      NERR4       FSTATE.(NAME1,CLASS,DRAIN...0,SKIPIT)                                           *122 LM00231
                  PRMESS.(NAME1,CLASS)                                                            *123 LM00232
                                                                                                       LM00233
                      ALL OK, SAVE NAMES                                                               LM00234
                                                                                                       LM00235
                  SAVN1 = NAME1                                                                   *124 LM00236
                  SAVN2 = CLASS                                                                   *125 LM00237
                  CLASS = FENCE                                                                   *126 LM00238
                                                                                                       LM00239
                      STUFF COMMAND BUFFERS AND GO                                                     LM00240
                                                                                                       LM00241
                  SETC.(B(20),0)                                                                  *127 LM00242
                  SETC.(A(20),1)                                                                  *128 LM00243
                  SCLC.(1,1)                                                                      *129 LM00244
                  NCOM.(B(20),B(19))                                                              *130 LM00245
                                                                                                       LM00246
                      HERE WHEN FILE WILL NOT BE ASSEMBLED                                             LM00247
                                                                                                       LM00248
      SKIPIT      PRMESS.($ASSEMBLY OF $,NAME1,CLASS,$ OMITTED$)                                  *131 LM00249
                  CHFILE.(BSS,NAME1,MZE,NAME1,BSS,NERR6)                                          *132 LM00250
      NERR6       WHENEVER PROGN .NE. V(1), ATTACH.(M1416,V(1))                                   *133 LM00251
                  TRANSFER TO READ1                                                               *134 LM00252
                                                                                                       LM00253
                      EOF ON WORK LIST, ALL DONE                                                       LM00254
                                                                                                       LM00255
      REOF        RESETF.                                                                         *135 LM00256
                  DORMNT.                                                                         *136 LM00257
                                                                                                       LM00258
                      SOME ERRORS ARE FATAL                                                            LM00259
                                                                                                       LM00260
      ERR1        NCOM.($PRNTER$,FENCE)                                                           *137 LM00261
                                                                                                       LM00262
                  END OF PROGRAM                                                                  *138 LM00263
1MAD PROGRAM,TYPE NOV 1963      (ALL NUMBERS ARE OCTAL)
0TOTAL LOCATIONS   01157 TRANSFER VECTOR LENGTH  00040 PROGRAM BEGINS    00301
0VARIABLE STORAGE (A=ARRAY,C=COMMON,E=ERASABLE,DIGIT=MODE)
      A      00065 A 1        FAILED 00114   4        M1416  00203 A 1        NORQ   00127   4        SAVED  00213 A 1
      BCD    00136 A 1        FENCE  00155 A 1        MZE    00204 A 1        OFFST1 00206   1        SAVN1  00047   1
      B      00112 A 1        FILE   00156 A 1        N1BUF  00205 A 1        OFFST2 00207   1        SAVN2  00050   1
      BSS    00137 A 1        I      00157   1        N1     00043   1        OUTPUT 00210 A 1        SKIPIT 00134   4
      BUFF1  00140 A 1        J      00160   1        NAME1  00067   1        PHASE1 00130   4        START  00135   4
      BUFF2  00141 A 1        K      00161   1        NERR0  00120   4        PHASE2 00131   4        SYSLST 00042   1
      BUFF3  00142 A 1        LINE   00200 A 1        NERR1  00121   4        PRGN   00044   1        TABLE  00234 A 1
      CLASS  00072   1        LIST   00201 A 1        NERR2  00122   4        PROGN  00211   1        UFDBUF 00235 A 1
      CTSSLD 00143 A 1        LOOP1  00115   4        NERR3  00123   4        READ1  00132   4        UFD    00236 A 1
      DRAIN  00153 A 1        LOOP2  00116   4        NERR4  00124   4        REOF   00133   4        V      00241 A 1
      ERCODE 00154 A 1        LOOP3  00117   4        NERR5  00125   4        RLOC   00045   1        WORK   00242 A 1
      ERR1   00113   4        LTHWRK 00202 A 1        NERR6  00126   4        RQUEST 00212 A 1
0FUNCTION DICTIONARY
      ATTACH 00000   1        ATTNAM 00001   1        BFCLOS 00002   1        BFOPEN 00003   1        BFWRIT 00004   1
      BUFFER 00005   1        CHFILE 00006   1        CHNCOM 00007   1        CLOSE  00010   1        DELFIL 00011   1
      DORMNT 00012   1        EXIT   00013   1        FERRTN 00014   1        FSTATE 00015   1        FWAIT  00016   1
      GETBUF 00017   1        GETCLS 00020   1        .SETUP 00021   1        LINK   00022   1        MOVFIL 00023   1
      NCOM   00024   1        OPEN   00025   1        PRMESS 00026   1        RDFILE 00027   1        RDWAIT 00030   1
      RESETF 00031   1        SCLC   00032   1        SETC   00033   1        TRFILE 00034   1        UNLINK 00035   1
      WHOAMI 00036   1        WRFILE 00037   1
0ABSOLUTE CONSTANTS
 00264 -075145632551     00257 +252460606060     00273 -204644316363     00262 -037060462660     00255 +216262254422
 00271 -202262626060     00254 +212325606060     00274 -206346604743     00277 -244521224325     00261 -023147472524
 00270 -202223246062     00276 -236026465160     00265 -112550642562     00263 -066445246060     00272 -204546636026
 00250 +000000000007     00251 +000000000016     00300 -266060606060     00253 +000000000660     00252 +000000000104
 00247 +000000000004     00266 -116060606060     00246 +000000000003     00243 +000000000000     00260 -004751274540
 00275 -226360450160     00267 -116062706243     00245 +000000000002     00244 +000000000001     00256 +233000000000
0STATEMENT DICTIONARY
 00113 TXL -301154001151       00114 TXL -300761000753       00115 TXL -300641000640       00116 TXL -300642000641
 00117 TXL -300653000652       00120 TXL -300447000444       00121 TXL -301030001022       00122 TXL -301045001037
 00123 TXL -301051001045       00124 TXL -301075001070       00125 TXL -300706000704       00126 TXL -301146001140
 00127 TXL -300751000743       00130 TXL -300353000345       00131 TXL -300662000660       00132 TXL -301004000776
 00133 TXL -301150001147       00134 TXL -301131001122       00135 TXL -300772000770
0PROGRAM
                 N'R                                                                001  LM00013
                 D'N BUFF1(0),BUFF2(0),BUFF3(0)                                     002  LM00014
                 D'N UFDBUF(0),N1BUF(0)                                             003  LM00015
                 D'N LINE(14),V(2),A(20),B(20),DRAIN(7)                             004  LM00016
                 E'E (SYSLST,A(19)),(N1,A(18)),(PRGN,A(17))                         005  LM00017
                 E'E (RLOC,A(16)),(SAVN1,A(14)),(SAVN2,A(13))                       006  LM00018
                 E'E (NAME1,B(19)),(CLASS,B(16))                                    007  LM00019
                 V'S UFD = $U.F.D.$                                                 008  LM00021
 00301 TSX +0 07400 4 00021    00236     -2 43326 3 32433
                 V'S FILE = $(FILE)$                                                009  LM00022
 00156     -3 42631 4 32534
                 V'S WORK = $(WORK)$                                                010  LM00023
 00242     -3 46646 5 14234
                 V'S LIST = $(LIST)$                                                011  LM00024
 00201     -3 44331 6 26334
                 V'S CTSSLD = $CTSSLD$                                              012  LM00025
 00143     +2 36362 6 24324
                 V'S BCD = $   BCD$                                                 013  LM00026
 00136     -2 06060 2 22324
                 V'S BSS = $   BSS$                                                 014  LM00027
 00137     -2 06060 2 26262
                 V'S SAVED = $ SAVED$                                               015  LM00028
 00213     -2 06221 6 52524
                 V'S OUTPUT = $OUTPUT$                                              016  LM00029
 00210     -0 66463 4 76463
                 V'S RQUEST = $RQUEST$                                              017  LM00030
 00212     -1 15064 2 56263
                 V'S M1416 = $ M1416$                                               018  LM00032
 00203     -2 04401 0 40106
                 V'S MZE = -0                                                       019  LM00033
 00204     -0 00000 0 00000
                 V'S LTHWRK = 5                                                     020  LM00034
 00202     +0 00000 0 00005
                 V'S ERCODE = 0                                                     021  LM00035
 00154     +0 00000 0 00000
                 V'S FENCE = 777777777777K                                          022  LM00036
 00155     -3 77777 7 77777
                 V'S A(20) = $RESUME$                                               023  LM00037
 00041     -1 12562 6 44425
                 V'S TABLE = $   MAD$,$   MAD$,$(LIST)$,777777777777K,              024  LM00039
                1     $   FAP$,$   FAP$,$(LIST)$,777777777777K,                     024  LM00040
                2     $CRUNCH$,$ BEFAP$,$(CRUN)$,$(LIST)$,                          024  LM00041
                3     $ ALGOL$,$   AED$,$(LIST)$,777777777777K,                     024  LM00042
                4     777777777777K                                                 024  LM00043
 00214     -3 77777 7 77777    00215     -3 77777 7 77777    00216     -3 44331 6 26334    00217     -2 06060 2 12524
 00220     -2 02143 2 74643    00221     -3 44331 6 26334    00222     -3 42351 6 44534    00223     -2 02225 2 62147
 00224     +2 35164 4 52330    00225     -3 77777 7 77777    00226     -3 44331 6 26334    00227     -2 06060 2 62147
 00230     -2 06060 2 62147    00231     -3 77777 7 77777    00232     -3 44331 6 26334    00233     -2 06060 4 42124
 00234     -2 06060 4 42124
                 V'S LINE(1) = $$,$$,$$,$$,$$,$$,$$,$$,$$,                          025  LM00044
                1     $ BCD  $,0,$ BCD  $,0,$PRINT $                                025  LM00045
 00162     -0 75131 4 56360    00163     +0 00000 0 00000    00164     -2 02223 2 46060    00165     +0 00000 0 00000
 00166     -2 02223 2 46060    00167     -2 06060 6 06060    00170     -2 06060 6 06060    00171     -2 06060 6 06060
 00172     -2 06060 6 06060    00173     -2 06060 6 06060    00174     -2 06060 6 06060    00175     -2 06060 6 06060
 00176     -2 06060 6 06060    00177     -2 06060 6 06060
                 ATTNAM.(V(2)...2)                                                  026  LM00049
 00302 TSX +0 07400 4 00001    00303 TIX +2 00245 0 00237
                 GETCLS.(A(19))                                                     027  LM00050
 00304 TSX +0 07400 4 00020    00305 TXH +3 00000 0 00042
                 FERRTN.(ERR1)                                                      028  LM00051
 00306 TSX +0 07400 4 00014    00307 TXH +3 00000 0 00113
                 PROGN = V(1)                                                       029  LM00052
 00310 CLA +0 50000 0 00240    00311 STO +0 60100 0 00211
                 W'R N1 .E. FENCE                                                   030  LM00056
 00312 CLA +0 50000 0 00043    00313 SUB +0 40200 0 00155    00314 TNZ -0 10000 0 00323
                      PRMESS.($R SYSLST N1 -PRGN-$)                                 031  LM00057
 00315 TSX +0 07400 4 00026    00316 TXH +3 00000 0 00267    00317 TXH +3 00000 0 00275    00320 TXH +3 00000 0 00260
                      CHNCOM.(0)                                                    032  LM00058
 00321 TSX +0 07400 4 00007    00322 TXH +3 00000 0 00243
                 E'L                                                                033  LM00059
                 W'R PRGN .E. FENCE                                                 034  LM00063
 00323 CLA +0 50000 0 00044    00324 SUB +0 40200 0 00155    00325 TNZ -0 10000 0 00334
                      PRGN = PROGN                                                  035  LM00064
 00326 CLA +0 50000 0 00211    00327 STO +0 60100 0 00044
                      RLOC = 1                                                      036  LM00065
 00330 CLA +0 50000 0 00244    00331 STO +0 60100 0 00045
                      T'O PHASE1                                                    037  LM00066
 00332 TRA +0 02000 0 00130
                 O'E                                                                038  LM00067
 00333 TRA +0 02000 0 00336
                      PROGN = PRGN                                                  039  LM00068
 00334 CLA +0 50000 0 00044    00335 STO +0 60100 0 00211
                 E'L                                                                040  LM00069
                 W'R RLOC .E. FENCE                                                 041  LM00070
 00336 CLA +0 50000 0 00045    00337 SUB +0 40200 0 00155    00340 TNZ -0 10000 0 00344
                      RLOC = 1                                                      042  LM00071
 00341 CLA +0 50000 0 00244    00342 STO +0 60100 0 00045
                      T'O PHASE1                                                    043  LM00072
 00343 TRA +0 02000 0 00130
                 E'L                                                                044  LM00073
                 T'O PHASE2                                                         045  LM00074
 00344 TRA +0 02000 0 00131
      PHASE1     W'R PROGN .NE. V(1), ATTACH.(M1416,PROGN)                          046  LM00078
 00345 CLA +0 50000 0 00211    00346 SUB +0 40200 0 00240    00347 TZE +0 10000 0 00353    00350 TSX +0 07400 4 00000
 00351 TXH +3 00000 0 00203    00352 TXH +3 00000 0 00211
                 FSTATE.(UFD,FILE,DRAIN(0)...1)                                     047  LM00079
 00353 TSX +0 07400 4 00015    00354 TXH +3 00000 0 00236    00355 TXH +3 00000 0 00156    00356 TIX +2 00244 0 00153
                 FSTATE.(N1,CTSSLD,DRAIN(1)...1)                                    048  LM00080
 00357 TSX +0 07400 4 00015    00360 TXH +3 00000 0 00043    00361 TXH +3 00000 0 00143    00362 TIX +2 00244 0 00152
                 DRAIN(0) = DRAIN(0) - 3                                            049  LM00081
 00363 CLA +0 50000 0 00153    00364 SUB +0 40200 0 00246    00365 STO +0 60100 0 00153
                 GETBUF.(N1BUF,DRAIN(1))                                            050  LM00085
 00366 TSX +0 07400 4 00017    00367 TXH +3 00000 0 00205    00370 TXH +3 00000 0 00152
                 OPEN.($R$,N1,CTSSLD)                                               051  LM00086
 00371 TSX +0 07400 4 00025    00372 TXH +3 00000 0 00266    00373 TXH +3 00000 0 00043    00374 TXH +3 00000 0 00143
                 RDFILE.(N1,CTSSLD,1,N1BUF(N1BUF+DRAIN(1))...DRAIN(1))              052  LM00087
 00375 CLA +0 50000 0 00205    00376 ADD +0 40000 0 00152    00377 SUB +0 40200 0 00400    00400 TXH +3 00000 0 00205
 00401 STA +0 62100 0 00406    00402 TSX +0 07400 4 00027    00403 TXH +3 00000 0 00043    00404 TXH +3 00000 0 00143
 00405 TXH +3 00000 0 00244    00406 TIX +2 00152 0 00000
                 GETBUF.(UFDBUF,DRAIN(0))                                           053  LM00089
 00407 TSX +0 07400 4 00017    00410 TXH +3 00000 0 00235    00411 TXH +3 00000 0 00153
                 OPEN.($R$,UFD,FILE)                                                054  LM00090
 00412 TSX +0 07400 4 00025    00413 TXH +3 00000 0 00266    00414 TXH +3 00000 0 00236    00415 TXH +3 00000 0 00156
                 RDFILE.(UFD,FILE,4,UFDBUF(UFDBUF+DRAIN(0))...DRAIN(0))             055  LM00091
 00416 CLA +0 50000 0 00235    00417 ADD +0 40000 0 00153    00420 SUB +0 40200 0 00421    00421 TXH +3 00000 0 00235
 00422 STA +0 62100 0 00427    00423 TSX +0 07400 4 00027    00424 TXH +3 00000 0 00236    00425 TXH +3 00000 0 00156
 00426 TXH +3 00000 0 00247    00427 TIX +2 00153 0 00000
                 W'R PROGN .NE. V(1)                                                056  LM00095
 00430 CLA +0 50000 0 00211    00431 SUB +0 40200 0 00240    00432 TZE +0 10000 0 00447
                      LINK.(SYSLST,SAVED,M1416,V(1),MZE,MZE,104K,NERR0)             057  LM00096
 00433 TSX +0 07400 4 00022    00434 TXH +3 00000 0 00042    00435 TXH +3 00000 0 00213    00436 TXH +3 00000 0 00203
 00437 TXH +3 00000 0 00240    00440 TXH +3 00000 0 00204    00441 TXH +3 00000 0 00204    00442 TXH +3 00000 0 00252
 00443 TXH +3 00000 0 00120
      NERR0           ATTACH.(M1416,V(1))                                           058  LM00097
 00444 TSX +0 07400 4 00000    00445 TXH +3 00000 0 00203    00446 TXH +3 00000 0 00240
                 E'L                                                                059  LM00098
                 GETBUF.(BUFF1,432)                                                 060  LM00102
 00447 TSX +0 07400 4 00017    00450 TXH +3 00000 0 00140    00451 TXH +3 00000 0 00253
                 GETBUF.(BUFF2,432)                                                 061  LM00103
 00452 TSX +0 07400 4 00017    00453 TXH +3 00000 0 00141    00454 TXH +3 00000 0 00253
                 GETBUF.(BUFF3,432)                                                 062  LM00104
 00455 TSX +0 07400 4 00017    00456 TXH +3 00000 0 00142    00457 TXH +3 00000 0 00253
                 FWAIT.(N1,CTSSLD)                                                  063  LM00108
 00460 TSX +0 07400 4 00016    00461 TXH +3 00000 0 00043    00462 TXH +3 00000 0 00143
                 FWAIT.(UFD,FILE)                                                   064  LM00109
 00463 TSX +0 07400 4 00016    00464 TXH +3 00000 0 00236    00465 TXH +3 00000 0 00156
                 RESETF.                                                            065  LM00110
 00466 TSX +0 07400 4 00031
                 BFOPEN.($W$,WORK,LIST,BUFF1(BUFF1+432),BUFF2(BUFF2+432),           066  LM00114
                1     BUFF3(BUFF3+432),ERR1)                                        066  LM00115
 00467 CLA +0 50000 0 00142    00470 ADD +0 40000 0 00253    00471 SUB +0 40200 0 00472    00472 TXH +3 00000 0 00142
 00473 STA +0 62100 0 00514    00474 CLA +0 50000 0 00141    00475 ADD +0 40000 0 00253    00476 SUB +0 40200 0 00477
 00477 TXH +3 00000 0 00141    00500 STA +0 62100 0 00513    00501 CLA +0 50000 0 00140    00502 ADD +0 40000 0 00253
 00503 SUB +0 40200 0 00504    00504 TXH +3 00000 0 00140    00505 STA +0 62100 0 00512    00506 TSX +0 07400 4 00003
 00507 TXH +3 00000 0 00300    00510 TXH +3 00000 0 00242    00511 TXH +3 00000 0 00201    00512 TXH +3 00000 0 00000
 00513 TXH +3 00000 0 00000    00514 TXH +3 00000 0 00000    00515 TXH +3 00000 0 00113
                 TRFILE.(WORK,LIST,0)                                               067  LM00116
 00516 TSX +0 07400 4 00034    00517 TXH +3 00000 0 00242    00520 TXH +3 00000 0 00201    00521 TXH +3 00000 0 00243
                 T'H LOOP3, FOR I = DRAIN(1),-14,(I.LE.0)                           068  LM00120
 00522 CLA +0 50000 0 00152    00523 STO +0 60100 0 00157    00524 TRA +0 02000 0 00530    00525 CLS +0 50200 0 00251
 00526 ADD +0 40000 0 00157    00527 STO +0 60100 0 00157    00530 CLA +0 50000 0 00157    00531 SUB +0 40200 0 00243
 00532 TZE +0 10000 0 00653    00533 TMI -0 12000 0 00653
                      OFFST1 = N1BUF + I                                            069  LM00121
 00534 CLA +0 50000 0 00205    00535 ADD +0 40000 0 00157    00536 STO +0 60100 0 00206
                      T'H LOOP2, FOR J = DRAIN(0),-7,(J.LE.0)                       070  LM00125
 00537 CLA +0 50000 0 00153    00540 STO +0 60100 0 00160    00541 TRA +0 02000 0 00545    00542 CLS +0 50200 0 00250
 00543 ADD +0 40000 0 00160    00544 STO +0 60100 0 00160    00545 CLA +0 50000 0 00160    00546 SUB +0 40200 0 00243
 00547 TZE +0 10000 0 00642    00550 TMI -0 12000 0 00642
                           W'R UFDBUF(UFDBUF+J).NE.N1BUF(OFFST1),                   071  LM00126
                1               T'O LOOP2                                           071  LM00127
 00551 CLA +0 50000 0 00235    00552 ADD +0 40000 0 00160    00553 PAX +0 73400 1 00000    00554 LXA +0 53400 2 00206
 00555 CLA +0 50000 1 00235    00556 SUB +0 40200 2 00205    00557 TZE +0 10000 0 00561    00560 TRA +0 02000 0 00116
                           OFFST2 = UFDBUF + J - 1                                  072  LM00128
 00561 CLA +0 50000 0 00235    00562 ADD +0 40000 0 00160    00563 SUB +0 40200 0 00244    00564 STO +0 60100 0 00207
                           T'H LOOP1, FOR K = 0,4,(TABLE(K).E.FENCE)                073  LM00132
 00565 CLA +0 50000 0 00243    00566 STO +0 60100 0 00161    00567 TRA +0 02000 0 00573    00570 CLA +0 50000 0 00161
 00571 ADD +0 40000 0 00247    00572 STO +0 60100 0 00161    00573 LXA +0 53400 1 00161    00574 CLA +0 50000 1 00234
 00575 SUB +0 40200 0 00155    00576 TZE +0 10000 0 00641
                                W'R UFDBUF(OFFST2).NE.TABLE(K),                     074  LM00133
                1                    T'O LOOP1                                      074  LM00134
 00577 LXA +0 53400 1 00207    00600 LXA +0 53400 2 00161    00601 CLA +0 50000 1 00235    00602 SUB +0 40200 2 00234
 00603 TZE +0 10000 0 00605    00604 TRA +0 02000 0 00115
                                DRAIN(7) = TABLE(K+1)                               075  LM00138
 00605 CLA +0 50000 0 00161    00606 ADD +0 40000 0 00244    00607 PAX +0 73400 2 00000    00610 CLA +0 50000 2 00234
 00611 STO +0 60100 0 00144
                                DRAIN(6) = N1BUF(OFFST1)                            076  LM00139
 00612 LXA +0 53400 2 00206    00613 CLA +0 50000 2 00205    00614 STO +0 60100 0 00145
                                DRAIN(5) = TABLE(K+2)                               077  LM00140
 00615 CLA +0 50000 0 00161    00616 ADD +0 40000 0 00245    00617 PAX +0 73400 2 00000    00620 CLA +0 50000 2 00234
 00621 STO +0 60100 0 00146
                                DRAIN(4) = TABLE(K+3)                               078  LM00141
 00622 CLA +0 50000 0 00161    00623 ADD +0 40000 0 00246    00624 PAX +0 73400 2 00000    00625 CLA +0 50000 2 00234
 00626 STO +0 60100 0 00147
                                DRAIN(3) = TABLE(K)                                 079  LM00142
 00627 LXA +0 53400 2 00161    00630 CLA +0 50000 2 00234    00631 STO +0 60100 0 00150
                                BFWRIT.(WORK,LIST,DRAIN(7)...LTHWRK,ERR1)           080  LM00143
 00632 TSX +0 07400 4 00004    00633 TXH +3 00000 0 00242    00634 TXH +3 00000 0 00201    00635 TIX +2 00202 0 00144
 00636 TXH +3 00000 0 00113
                                T'O LOOP3                                           081  LM00144
 00637 TRA +0 02000 0 00117
      LOOP1                C'E                                                      082  LM00146
 00640 TRA +0 02000 0 00570
      LOOP2           C'E                                                           083  LM00147
 00641 TRA +0 02000 0 00542
                      PRMESS.(N1BUF(OFFST1),$ NOT FOUND$)                           084  LM00151
 00642 CLA +0 50000 0 00206    00643 SUB +0 40200 0 00644    00644 TXH +3 00000 0 00205    00645 STA +0 62100 0 00647
 00646 TSX +0 07400 4 00026    00647 TXH +3 00000 0 00000    00650 TXH +3 00000 0 00272    00651 TXH +3 00000 0 00263
      LOOP3      C'E                                                                085  LM00153
 00652 TRA +0 02000 0 00525
                 BFCLOS.(WORK,LIST,ERR1)                                            086  LM00157
 00653 TSX +0 07400 4 00002    00654 TXH +3 00000 0 00242    00655 TXH +3 00000 0 00201    00656 TXH +3 00000 0 00113
                 T'O START                                                          087  LM00158
 00657 TRA +0 02000 0 00135
      PHASE2     WHOAMI.(LINE(2)...2)                                               088  LM00162
 00660 TSX +0 07400 4 00036    00661 TIX +2 00245 0 00176
                 FSTATE.(SAVN1,BSS,DRAIN...0,FAILED)                                089  LM00166
 00662 TSX +0 07400 4 00015    00663 TXH +3 00000 0 00047    00664 TXH +3 00000 0 00137    00665 TIX +2 00243 0 00153
 00666 TXH +3 00000 0 00114
                 W'R PROGN .NE. V(1)                                                090  LM00170
 00667 CLA +0 50000 0 00211    00670 SUB +0 40200 0 00240    00671 TZE +0 10000 0 00704
                      MOVFIL.(SAVN1,BSS,M1416,PROGN,FAILED)                         091  LM00171
 00672 TSX +0 07400 4 00023    00673 TXH +3 00000 0 00047    00674 TXH +3 00000 0 00137    00675 TXH +3 00000 0 00203
 00676 TXH +3 00000 0 00211    00677 TXH +3 00000 0 00114
                      UNLINK.(SAVN1,SAVN2,NERR5)                                    092  LM00172
 00700 TSX +0 07400 4 00035    00701 TXH +3 00000 0 00047    00702 TXH +3 00000 0 00050    00703 TXH +3 00000 0 00125
                 E'L                                                                093  LM00173
      NERR5      FERRTN.(NORQ)                                                      094  LM00177
 00704 TSX +0 07400 4 00014    00705 TXH +3 00000 0 00127
                 OPEN.($W$,OUTPUT,RQUEST)                                           095  LM00179
 00706 TSX +0 07400 4 00025    00707 TXH +3 00000 0 00300    00710 TXH +3 00000 0 00210    00711 TXH +3 00000 0 00212
                 GETBUF.(BUFF1,432)                                                 096  LM00180
 00712 TSX +0 07400 4 00017    00713 TXH +3 00000 0 00140    00714 TXH +3 00000 0 00253
                 BUFFER.(OUTPUT,RQUEST,BUFF1(BUFF1+432)...432)                      097  LM00181
 00715 CLA +0 50000 0 00140    00716 ADD +0 40000 0 00253    00717 SUB +0 40200 0 00720    00720 TXH +3 00000 0 00140
 00721 STA +0 62100 0 00725    00722 TSX +0 07400 4 00005    00723 TXH +3 00000 0 00210    00724 TXH +3 00000 0 00212
 00725 TIX +2 00253 0 00000
                 LINE(13) = SAVN1                                                   098  LM00183
 00726 CLA +0 50000 0 00047    00727 STO +0 60100 0 00163
                 LINE(11) = SAVN1                                                   099  LM00184
 00730 CLA +0 50000 0 00047    00731 STO +0 60100 0 00165
                 WRFILE.(OUTPUT,RQUEST,0,LINE(14)...14)                             100  LM00185
 00732 TSX +0 07400 4 00037    00733 TXH +3 00000 0 00210    00734 TXH +3 00000 0 00212    00735 TXH +3 00000 0 00243
 00736 TIX +2 00251 0 00162
                 CLOSE.(OUTPUT,RQUEST)                                              101  LM00186
 00737 TSX +0 07400 4 00010    00740 TXH +3 00000 0 00210    00741 TXH +3 00000 0 00212
                 T'O START                                                          102  LM00187
 00742 TRA +0 02000 0 00135
      NORQ       PRMESS.($REQUEST FOR$,SAVN1,$ BCD SKIPPED$)                        103  LM00191
 00743 TSX +0 07400 4 00026    00744 TXH +3 00000 0 00265    00745 TXH +3 00000 0 00276    00746 TXH +3 00000 0 00047
 00747 TXH +3 00000 0 00270    00750 TXH +3 00000 0 00261
                 RESETF.                                                            104  LM00192
 00751 TSX +0 07400 4 00031
                 T'O START                                                          105  LM00193
 00752 TRA +0 02000 0 00135
      FAILED     PRMESS.($UNABLE TO PLACE$,SAVN1,$ BSS$)                            106  LM00197
 00753 TSX +0 07400 4 00026    00754 TXH +3 00000 0 00277    00755 TXH +3 00000 0 00274    00756 TXH +3 00000 0 00254
 00757 TXH +3 00000 0 00047    00760 TXH +3 00000 0 00271
                 CHFILE.(BSS,SAVN1,MZE,SAVN1,BSS,START)                             107  LM00198
 00761 TSX +0 07400 4 00006    00762 TXH +3 00000 0 00137    00763 TXH +3 00000 0 00047    00764 TXH +3 00000 0 00204
 00765 TXH +3 00000 0 00047    00766 TXH +3 00000 0 00137    00767 TXH +3 00000 0 00135
      START      FERRTN.(ERR1)                                                      108  LM00202
 00770 TSX +0 07400 4 00014    00771 TXH +3 00000 0 00113
                 OPEN.($R$,WORK,LIST)                                               109  LM00206
 00772 TSX +0 07400 4 00025    00773 TXH +3 00000 0 00266    00774 TXH +3 00000 0 00242    00775 TXH +3 00000 0 00201
      READ1      RDWAIT.(WORK,LIST,RLOC,B(20)...LTHWRK,REOF)                        110  LM00207
 00776 TSX +0 07400 4 00030    00777 TXH +3 00000 0 00242    01000 TXH +3 00000 0 00201    01001 TXH +3 00000 0 00045
 01002 TIX +2 00202 0 00066    01003 TXH +3 00000 0 00133
                 RLOC = RLOC + LTHWRK                                               111  LM00208
 01004 CLA +0 50000 0 00045    01005 ADD +0 40000 0 00202    01006 STO +0 60100 0 00045
                 CHFILE.(NAME1,BCD,1,MZE,MZE,NERR1)                                 112  LM00212
 01007 TSX +0 07400 4 00006    01010 TXH +3 00000 0 00067    01011 TXH +3 00000 0 00136    01012 TXH +3 00000 0 00244
 01013 TXH +3 00000 0 00204    01014 TXH +3 00000 0 00204    01015 TXH +3 00000 0 00121
                 DELFIL.(NAME1,BCD,NERR1)                                           113  LM00213
 01016 TSX +0 07400 4 00011    01017 TXH +3 00000 0 00067    01020 TXH +3 00000 0 00136    01021 TXH +3 00000 0 00121
      NERR1      W'R PROGN .NE. V(1), ATTACH.(M1416,PROGN)                          114  LM00217
 01022 CLA +0 50000 0 00211    01023 SUB +0 40200 0 00240    01024 TZE +0 10000 0 01030    01025 TSX +0 07400 4 00000
 01026 TXH +3 00000 0 00203    01027 TXH +3 00000 0 00211
                 CHFILE.(NAME1,BSS,MZE,BSS,NAME1,NERR2)                             115  LM00218
 01030 TSX +0 07400 4 00006    01031 TXH +3 00000 0 00067    01032 TXH +3 00000 0 00137    01033 TXH +3 00000 0 00204
 01034 TXH +3 00000 0 00137    01035 TXH +3 00000 0 00067    01036 TXH +3 00000 0 00122
      NERR2      FSTATE.(NAME1,BSS,DRAIN...0,NERR3,ERCODE)                          116  LM00222
 01037 TSX +0 07400 4 00015    01040 TXH +3 00000 0 00067    01041 TXH +3 00000 0 00137    01042 TIX +2 00243 0 00153
 01043 TXH +3 00000 0 00123    01044 TXH +3 00000 0 00154
      NERR3      W'R (ERCODE .NE. 3), T'O SKIPIT                                    117  LM00223
 01045 CLA +0 50000 0 00154    01046 SUB +0 40200 0 00246    01047 TZE +0 10000 0 01051    01050 TRA +0 02000 0 00134
                 W'R PROGN .NE. V(1)                                                118  LM00227
 01051 CLA +0 50000 0 00211    01052 SUB +0 40200 0 00240    01053 TZE +0 10000 0 01070
                      ATTACH.(M1416,V(1))                                           119  LM00228
 01054 TSX +0 07400 4 00000    01055 TXH +3 00000 0 00203    01056 TXH +3 00000 0 00240
                      LINK.(NAME1,CLASS,M1416,PROGN,MZE,MZE,104K,NERR4)             120  LM00229
 01057 TSX +0 07400 4 00022    01060 TXH +3 00000 0 00067    01061 TXH +3 00000 0 00072    01062 TXH +3 00000 0 00203
 01063 TXH +3 00000 0 00211    01064 TXH +3 00000 0 00204    01065 TXH +3 00000 0 00204    01066 TXH +3 00000 0 00252
 01067 TXH +3 00000 0 00124
                 E'L                                                                121  LM00230
      NERR4      FSTATE.(NAME1,CLASS,DRAIN...0,SKIPIT)                              122  LM00231
 01070 TSX +0 07400 4 00015    01071 TXH +3 00000 0 00067    01072 TXH +3 00000 0 00072    01073 TIX +2 00243 0 00153
 01074 TXH +3 00000 0 00134
                 PRMESS.(NAME1,CLASS)                                               123  LM00232
 01075 TSX +0 07400 4 00026    01076 TXH +3 00000 0 00067    01077 TXH +3 00000 0 00072
                 SAVN1 = NAME1                                                      124  LM00236
 01100 CLA +0 50000 0 00067    01101 STO +0 60100 0 00047
                 SAVN2 = CLASS                                                      125  LM00237
 01102 CLA +0 50000 0 00072    01103 STO +0 60100 0 00050
                 CLASS = FENCE                                                      126  LM00238
 01104 CLA +0 50000 0 00155    01105 STO +0 60100 0 00072
                 SETC.(B(20),0)                                                     127  LM00242
 01106 TSX +0 07400 4 00033    01107 TXH +3 00000 0 00066    01110 TXH +3 00000 0 00243
                 SETC.(A(20),1)                                                     128  LM00243
 01111 TSX +0 07400 4 00033    01112 TXH +3 00000 0 00041    01113 TXH +3 00000 0 00244
                 SCLC.(1,1)                                                         129  LM00244
 01114 TSX +0 07400 4 00032    01115 TXH +3 00000 0 00244    01116 TXH +3 00000 0 00244
                 NCOM.(B(20),B(19))                                                 130  LM00245
 01117 TSX +0 07400 4 00024    01120 TXH +3 00000 0 00066    01121 TXH +3 00000 0 00067
      SKIPIT     PRMESS.($ASSEMBLY OF $,NAME1,CLASS,$ OMITTED$)                     131  LM00249
 01122 TSX +0 07400 4 00026    01123 TXH +3 00000 0 00255    01124 TXH +3 00000 0 00262    01125 TXH +3 00000 0 00067
 01126 TXH +3 00000 0 00072    01127 TXH +3 00000 0 00273    01130 TXH +3 00000 0 00257
                 CHFILE.(BSS,NAME1,MZE,NAME1,BSS,NERR6)                             132  LM00250
 01131 TSX +0 07400 4 00006    01132 TXH +3 00000 0 00137    01133 TXH +3 00000 0 00067    01134 TXH +3 00000 0 00204
 01135 TXH +3 00000 0 00067    01136 TXH +3 00000 0 00137    01137 TXH +3 00000 0 00126
      NERR6      W'R PROGN .NE. V(1), ATTACH.(M1416,V(1))                           133  LM00251
 01140 CLA +0 50000 0 00211    01141 SUB +0 40200 0 00240    01142 TZE +0 10000 0 01146    01143 TSX +0 07400 4 00000
 01144 TXH +3 00000 0 00203    01145 TXH +3 00000 0 00240
                 T'O READ1                                                          134  LM00252
 01146 TRA +0 02000 0 00132
      REOF       RESETF.                                                            135  LM00256
 01147 TSX +0 07400 4 00031
                 DORMNT.                                                            136  LM00257
 01150 TSX +0 07400 4 00012
      ERR1       NCOM.($PRNTER$,FENCE)                                              137  LM00261
 01151 TSX +0 07400 4 00024    01152 TXH +3 00000 0 00264    01153 TXH +3 00000 0 00155
                 E'M                                                                138  LM00263
 01154 TSX +0 07400 4 00013
1            SLIGHTLY MODIFIED FORM OF 'SCLS' AS FOUND IN LIBRARY                                PAGE 1
                           D.R. WIDRIG  OCTOBER 1966

                       00003         ENTRY   SETC

                                             CALL IS   SETC.(BUFF(20),N)


        TRANSFER VECTOR
      00000  622563234362     SETCLS

            LINKAGE DIRECTOR
      00001  000000000000
      00002  622563236060

      00003  0636 00 4 00013  SETC   SCA     SETX4,4       SAVE LINKAGE
      00004  0500 00 4 00001         CLA     1,4           GET POINTER TO BASE
      00005  0621 00 0 00012         STA     SET           SAVE IT
      00006  0500 60 4 00002         CLA*    2,4           GET COMMAND BUFFER NUMBER
      00007  0767 00 0 00022         ALS     18            MOVE TO DECREMENT
      00010  0622 00 0 00012         STD     SET           AND PLANT IT
      00011  0074 00 4 00000         TSX     $SETCLS,4     CALL UP SUPERVISOR
      00012  0 00000 0 00000  SET            **,,**        BUFF,,'N'

      00013 -0774 00 4 00000  SETX4  AXC     **,4          RESTORE LINKAGE
      00014  0020 00 4 00003         TRA     3,4           RETURN TO CALLER

                                     END
1            SLIGHTLY MODIFIED FORM OF 'SCLS' AS FOUND IN LIBRARY                                PAGE 1
                        POST PROCESSOR ASSEMBLY DATA

         15 IS THE FIRST LOCATION NOT USED BY THIS PROGRAM

0REFERENCES TO DEFINED SYMBOLS
         12    SET     5,   10
          3   SETC     0
         13  SETX4     3
          0 SETCLS    11

0 NO ERROR IN ABOVE ASSEMBLY.
1            ROUTINE TO GET A BUFFER AREA BY EXPANDING MEMORY BOUND                              PAGE 1
                           D.R. WIDRIG  JUNE 1966

                       00004         ENTRY   GETBUF        GET A BUFFER

                                     EXTERN  GETMEM,SETMEM

                                             CALLING SEQUENCE IS..  GETBUF.(BUFF,N)
                                             UPON RETURN, THE CALLER MAY USE THE
                                             AREA BY STATEMENTS OF THE FORM..  X = BUFF(BUFF+I)
                                             WHERE THE I'TH ELEMENT IS INTENDED

        TRANSFER VECTOR
      00000  272563442544     GETMEM
      00001  622563442544     SETMEM

            LINKAGE DIRECTOR
      00002  000000000000
      00003  272563226426

      00004  0636 00 4 00024  GETBUF SCA     X4,4          SAVE LINKAGE
      00005  0634 00 1 00025         SXA     X1,1          AND IR1
      00006  0535 00 1 00024         LAC     X4,1          SET IR1 TO IR4 (THE CALLER)

      00007  0074 00 4 00000         TSX     GETMEM,4      GET CURRENT MEMORY BOUND
      00010  0601 00 0 00027         STO     OLDMEM        SAVE OLD MEMORY BOUND
      00011  0400 60 1 00002         ADD*    2,1           ALLOW FOR USER'S DEMAND
      00012  0734 00 4 00000         PAX     0,4           SAVE COMPLEMENT OF THIS VALUE
      00013 -0636 00 4 00020         SCD     TXI,4         ..
      00014  0400 00 0 00030         ADD     =1            ALLOW FOR BUFF(0)
      00015  0074 00 4 00001         TSX     SETMEM,4      RAISE THE ROOF

      00016 -0500 00 1 00001         CAL     1,1           GET BASE POINTER
      00017  0734 00 4 00000         PAX     0,4           ..
      00020  1 00000 4 00021  TXI    TXI     *+1,4,**      DECREMENT BY AMOUNT OF STORAGE
      00021  0754 00 4 00000         PXA     0,4           SET THIS VALUE IN USER'S PROGRAM
      00022  0602 60 1 00001         SLW*    1,1           ..
      00023  0500 00 0 00027         CLA     OLDMEM        RETURN OLD MEMORY BOUND

      00024 -0774 00 4 00000  X4     AXC     **,4          RESTORE LINKAGE
      00025  0774 00 1 00000  X1     AXT     **,1          AND IR1
      00026  0020 00 4 00003         TRA     3,4           RETURN

      00027                   OLDMEM BSS     1             STORAGE FOR OLD MEMORY BOUND

                                     END

        LITERALS
      00030  000000000001
1            ROUTINE TO GET A BUFFER AREA BY EXPANDING MEMORY BOUND                              PAGE 1
                        POST PROCESSOR ASSEMBLY DATA

         31 IS THE FIRST LOCATION NOT USED BY THIS PROGRAM

0REFERENCES TO DEFINED SYMBOLS
         25     X1     5
         24     X4     4,    6
         20    TXI    13
          4 GETBUF     0
          0 GETMEM     7
         27 OLDMEM    10,   23
          1 SETMEM    15

0 NO ERROR IN ABOVE ASSEMBLY.


TIAGEN   BCD 10/12/70 1510.5    3340         00000
1     MAD PROGRAM LISTING ... ... ...                 FILE  TIAGEN   MAD            06/21/69    1650.4
-
      TIAGEN      PROGRAM TO GENERATE A FAP PROGRAM                                                    LM00001
                  FOR TIA'S TO THE CTSS SUPERVISOR                                                     LM00002
                   WRITTEN BY R. ROACH  6/21/69                                                        LM00003
                                                                                                       LM00004
                  USAGE:                                                                               LM00005
                    R TIAGEN N1 N2 N3 N4 N5 N6 N7 ...                                                  LM00006
                                                                                                       LM00007
                  A FILE CALLED 'N1 FAP' WILL BE CREATED WITH THE                                      LM00008
                  ENTRIES N1, N2, N3 ...                                                               LM00009
                                                                                                       LM00010
                  NORMAL MODE IS INTEGER                                                          *001 LM00011
                  DIMENSION B1(0),B2(0),B3(0)                                                     *002 LM00012
                  N1 = COMARG.(1)                                                                 *003 LM00013
                  VECTOR VALUES N2 = $   FAP$                                                     *004 LM00014
                  VECTOR VALUES FENCE = 777777777777K                                             *005 LM00015
                                                                                                       LM00016
                  WHENEVER N1 .E. FENCE                                                           *006 LM00017
                     PRFULL.($'R'1NO FILE NAME GIVEN.'B$)                                         *007 LM00018
                     EXITM.                                                                       *008 LM00019
                  END OF CONDITIONAL                                                              *009 LM00020
                  GETBUF.(B1,432)                                                                 *010 LM00021
                  GETBUF.(B2,432)                                                                 *011 LM00022
                  GETBUF.(B3,432)                                                                 *012 LM00023
                  DELETE.(N1,N2,1,IOERR)                                                          *013 LM00024
                  BFOPEN.($W$,N1,N2,B1(B1+432),B2(B2+432),B3(B3+432),IOERR)                       *014 LM00025
                                                                                                       LM00026
                  ... NOW WRITE THE 'NOLNK' CARD                                                       LM00027
                                                                                                       LM00028
                  BFWRIT.(N1,N2,LINE1(2)...2,IOERR)                                               *015 LM00029
                  VECTOR VALUES LINE1(2) = 777777000001K                                          *016 LM00030
                  VECTOR VALUES LINE1(1) = 724546434542K                                          *017 LM00031
                                                                                                       LM00032
                  ... NOW WRITE THE ENTRY CARDS                                                        LM00033
                                                                                                       LM00034
                  THROUGH LOOP1, FOR I = 1,1,COMARG.(I,ARG).E.FENCE                               *018 LM00035
                  LINE2 = LJUST.(ARG)                                                             *019 LM00036
                  BFWRIT.(N1,N2,LINE2(3)...4,IOERR)                                               *020 LM00037
                  VECTOR VALUES LINE2(3) = 777777000003K                                          *021 LM00038
                  VECTOR VALUES LINE2(2) = 722545635170K                                          *022 LM00039
                  VECTOR VALUES LINE2(1) = 725757575757K                                          *023 LM00040
      LOOP1       CONTINUE                                                                        *024 LM00041
                                                                                                       LM00042
                  ... NOW WRITE THE TIA CARDS                                                          LM00043
                                                                                                       LM00044
                  THROUGH LOOP2, FOR I = 1,1,COMARG.(I,ARG).E.FENCE                               *025 LM00045
                  LINE3(3) = LJUST.(ARG)                                                          *026 LM00046
                  LINE3 = LJUST.(ARG)                                                             *027 LM00047
                  VECTOR VALUES LINE3(4) = 777777000004K                                          *028 LM00048
                  VECTOR VALUES LINE3(2) = 726331217257K                                          *029 LM00049
                  VECTOR VALUES LINE3(1) = 575757571330K                                          *030 LM00050
                  BFWRIT.(N1,N2,LINE3(4)...5,IOERR)                                               *031 LM00051
      LOOP2       CONTINUE                                                                        *032 LM00052
                                                                                                       LM00053
                  ... NOW WRITE THE END CARD                                                           LM00054
                                                                                                       LM00055
                  BFWRIT.(N1,N2,LINE4(1)...2,IOERR)                                               *033 LM00056
                  VECTOR VALUES LINE4(1) = 777777000001K                                          *034 LM00057
                  VECTOR VALUES LINE4 = 722545245757K                                             *035 LM00058
                                                                                                       LM00059
                  CLOSE OUT                                                                            LM00060
                                                                                                       LM00061
                  EXITM.                                                                          *036 LM00062
      IOERR       PRDIAG.                                                                         *037 LM00063
                  EXITM.                                                                          *038 LM00064
                                                                                                       LM00065
                  END OF PROGRAM                                                                  *039 LM00066
1MAD PROGRAM,TYPE NOV 1963      (ALL NUMBERS ARE OCTAL)
0TOTAL LOCATIONS   00235 TRANSFER VECTOR LENGTH  00013 PROGRAM BEGINS    00057
0VARIABLE STORAGE (A=ARRAY,C=COMMON,E=ERASABLE,DIGIT=MODE)
      ARG    00015   1        B3     00020 A 1        I      00022   1        LINE3  00036 A 1        LOOP2  00013   4
      B1     00016 A 1        FENCE  00021 A 1        LINE1  00025 A 1        LINE4  00040 A 1        N1     00041   1
      B2     00017 A 1        IOERR  00014   4        LINE2  00031 A 1        LOOP1  00013   4        N2     00042 A 1
0FUNCTION DICTIONARY
      BFOPEN 00000   1        BFWRIT 00001   1        COMARG 00002   1        DELETE 00003   1        EXITM  00004   1
      EXIT   00005   1        GETBUF 00006   1        .SETUP 00007   1        LJUST  00010   1        PRDIAG 00011   1
      PRFULL 00012   1
0ABSOLUTE CONSTANTS
 00046 +000000000005     00045 +000000000004     00044 +000000000002     00056 -266060606060     00047 +000000000660
 00051 +226060606060     00053 +316525453314     00054 -052144256027     00055 -202631432560     00050 +145114014546
 00043 +000000000001     00052 +233000000000
0STATEMENT DICTIONARY
 00014 TXL -300231000230
0PROGRAM
                 N'R                                                                001  LM00011
                 D'N B1(0),B2(0),B3(0)                                              002  LM00012
                 N1 = COMARG.(1)                                                    003  LM00013
 00057 TSX +0 07400 4 00007    00060 TSX +0 07400 4 00002    00061 TXH +3 00000 0 00043    00062 STO +0 60100 0 00041
                 V'S N2 = $   FAP$                                                  004  LM00014
 00042     -2 06060 2 62147
                 V'S FENCE = 777777777777K                                          005  LM00015
 00021     -3 77777 7 77777
                 W'R N1 .E. FENCE                                                   006  LM00017
 00063 CLA +0 50000 0 00041    00064 SUB +0 40200 0 00021    00065 TNZ -0 10000 0 00075
                    PRFULL.($'R'1NO FILE NAME GIVEN.'B$)                            007  LM00018
 00066 TSX +0 07400 4 00012    00067 TXH +3 00000 0 00050    00070 TXH +3 00000 0 00055    00071 TXH +3 00000 0 00054
 00072 TXH +3 00000 0 00053    00073 TXH +3 00000 0 00051
                    EXITM.                                                          008  LM00019
 00074 TSX +0 07400 4 00004
                 E'L                                                                009  LM00020
                 GETBUF.(B1,432)                                                    010  LM00021
 00075 TSX +0 07400 4 00006    00076 TXH +3 00000 0 00016    00077 TXH +3 00000 0 00047
                 GETBUF.(B2,432)                                                    011  LM00022
 00100 TSX +0 07400 4 00006    00101 TXH +3 00000 0 00017    00102 TXH +3 00000 0 00047
                 GETBUF.(B3,432)                                                    012  LM00023
 00103 TSX +0 07400 4 00006    00104 TXH +3 00000 0 00020    00105 TXH +3 00000 0 00047
                 DELETE.(N1,N2,1,IOERR)                                             013  LM00024
 00106 TSX +0 07400 4 00003    00107 TXH +3 00000 0 00041    00110 TXH +3 00000 0 00042    00111 TXH +3 00000 0 00043
 00112 TXH +3 00000 0 00014
                 BFOPEN.($W$,N1,N2,B1(B1+432),B2(B2+432),B3(B3+432),IOERR)          014  LM00025
 00113 CLA +0 50000 0 00020    00114 ADD +0 40000 0 00047    00115 SUB +0 40200 0 00116    00116 TXH +3 00000 0 00020
 00117 STA +0 62100 0 00140    00120 CLA +0 50000 0 00017    00121 ADD +0 40000 0 00047    00122 SUB +0 40200 0 00123
 00123 TXH +3 00000 0 00017    00124 STA +0 62100 0 00137    00125 CLA +0 50000 0 00016    00126 ADD +0 40000 0 00047
 00127 SUB +0 40200 0 00130    00130 TXH +3 00000 0 00016    00131 STA +0 62100 0 00136    00132 TSX +0 07400 4 00000
 00133 TXH +3 00000 0 00056    00134 TXH +3 00000 0 00041    00135 TXH +3 00000 0 00042    00136 TXH +3 00000 0 00000
 00137 TXH +3 00000 0 00000    00140 TXH +3 00000 0 00000    00141 TXH +3 00000 0 00014
                 BFWRIT.(N1,N2,LINE1(2)...2,IOERR)                                  015  LM00029
 00142 TSX +0 07400 4 00001    00143 TXH +3 00000 0 00041    00144 TXH +3 00000 0 00042    00145 TIX +2 00044 0 00023
 00146 TXH +3 00000 0 00014
                 V'S LINE1(2) = 777777000001K                                       016  LM00030
 00023     -3 77777 0 00001
                 V'S LINE1(1) = 724546434542K                                       017  LM00031
 00024     -3 24546 4 34542
                 T'H LOOP1, FOR I = 1,1,COMARG.(I,ARG).E.FENCE                      018  LM00035
 00147 CLA +0 50000 0 00043    00150 STO +0 60100 0 00022    00151 TRA +0 02000 0 00155    00152 CLA +0 50000 0 00022
 00153 ADD +0 40000 0 00043    00154 STO +0 60100 0 00022    00155 TSX +0 07400 4 00002    00156 TXH +3 00000 0 00022
 00157 TXH +3 00000 0 00015    00160 SUB +0 40200 0 00021    00161 TZE +0 10000 0 00173
                 LINE2 = LJUST.(ARG)                                                019  LM00036
 00162 TSX +0 07400 4 00010    00163 TXH +3 00000 0 00015    00164 STO +0 60100 0 00031
                 BFWRIT.(N1,N2,LINE2(3)...4,IOERR)                                  020  LM00037
 00165 TSX +0 07400 4 00001    00166 TXH +3 00000 0 00041    00167 TXH +3 00000 0 00042    00170 TIX +2 00045 0 00026
 00171 TXH +3 00000 0 00014
                 V'S LINE2(3) = 777777000003K                                       021  LM00038
 00026     -3 77777 0 00003
                 V'S LINE2(2) = 722545635170K                                       022  LM00039
 00027     -3 22545 6 35170
                 V'S LINE2(1) = 725757575757K                                       023  LM00040
 00030     -3 25757 5 75757
      LOOP1      CONTINUE                                                           024  LM00041
 00172 TRA +0 02000 0 00152
                 T'H LOOP2, FOR I = 1,1,COMARG.(I,ARG).E.FENCE                      025  LM00045
 00173 CLA +0 50000 0 00043    00174 STO +0 60100 0 00022    00175 TRA +0 02000 0 00201    00176 CLA +0 50000 0 00022
 00177 ADD +0 40000 0 00043    00200 STO +0 60100 0 00022    00201 TSX +0 07400 4 00002    00202 TXH +3 00000 0 00022
 00203 TXH +3 00000 0 00015    00204 SUB +0 40200 0 00021    00205 TZE +0 10000 0 00222
                 LINE3(3) = LJUST.(ARG)                                             026  LM00046
 00206 TSX +0 07400 4 00010    00207 TXH +3 00000 0 00015    00210 STO +0 60100 0 00033
                 LINE3 = LJUST.(ARG)                                                027  LM00047
 00211 TSX +0 07400 4 00010    00212 TXH +3 00000 0 00015    00213 STO +0 60100 0 00036
                 V'S LINE3(4) = 777777000004K                                       028  LM00048
 00032     -3 77777 0 00004
                 V'S LINE3(2) = 726331217257K                                       029  LM00049
 00034     -3 26331 2 17257
                 V'S LINE3(1) = 575757571330K                                       030  LM00050
 00035     -1 75757 5 71330
                 BFWRIT.(N1,N2,LINE3(4)...5,IOERR)                                  031  LM00051
 00214 TSX +0 07400 4 00001    00215 TXH +3 00000 0 00041    00216 TXH +3 00000 0 00042    00217 TIX +2 00046 0 00032
 00220 TXH +3 00000 0 00014
      LOOP2      CONTINUE                                                           032  LM00052
 00221 TRA +0 02000 0 00176
                 BFWRIT.(N1,N2,LINE4(1)...2,IOERR)                                  033  LM00056
 00222 TSX +0 07400 4 00001    00223 TXH +3 00000 0 00041    00224 TXH +3 00000 0 00042    00225 TIX +2 00044 0 00037
 00226 TXH +3 00000 0 00014
                 V'S LINE4(1) = 777777000001K                                       034  LM00057
 00037     -3 77777 0 00001
                 V'S LINE4 = 722545245757K                                          035  LM00058
 00040     -3 22545 2 45757
                 EXITM.                                                             036  LM00062
 00227 TSX +0 07400 4 00004
      IOERR      PRDIAG.                                                            037  LM00063
 00230 TSX +0 07400 4 00011
                 EXITM.                                                             038  LM00064
 00231 TSX +0 07400 4 00004
                 E'M                                                                039  LM00066
 00232 TSX +0 07400 4 00005


 TRACK   BCD 10/12/70 1510.5   21563         00000
1     MAD PROGRAM LISTING ... ... ...                 FILE   TRACK   MAD            04/29/70    1005.8
-
                  PROGRAM TO MAP BAD DISK TRACKS BY HEAD AND                                           LM00001
                  CYLINDER, WITH CUMULATIVE RESULTS MAINTAINED                                         LM00002
                  IN PERMANENT FILES.                                                                  LM00003
                                                                                                       LM00004
                  NORMAL MODE IS INTEGER                                                          *001 LM00005
                  BOOLEAN RQSW, INPSW, ONSW, HRQSW                                                *002 LM00006
                  STATEMENT LABEL TTB, X                                                          *003 LM00007
                  FUNCTION NAME F                                                                 *004 LM00008
                                                                                                       LM00009
                  DIMENSION C(5), MTX(10000, MDIM), DATE(3), CYLTMP(40)                           *005 LM00010
                  EQUIVALENCE (TIME, DATE(3))                                                     *006 LM00011
                  VECTOR VALUES MDIM = 2, 42, 40                                                  *007 LM00012
                                                                                                       LM00013
                  VECTOR VALUES CTB = $MODIFY$,$     M$,$ RESET$,$     R$,                        *008 LM00014
                1   $ PRINT$,$     P$,$  QUIT$,$     Q$,$  HELP$,$     H$,                        *008 LM00015
                2   777777777777K                                                                 *008 LM00016
                  VECTOR VALUES TTB = BEGIN, MODIFY, BEGIN, RESET, BEGIN, PRINT,                  *009 LM00017
                1   QUIT, QUIT, HELP, HELP                                                        *009 LM00018
                  VECTOR VALUES HTB = 7K, 7K, 7K, 7K, 3K, 3K, 0K, 0K, 10K, 10K, 20K               *010 LM00019
                                                                                                       LM00020
                  VECTOR VALUES FENCE = 777777777777K                                             *011 LM00021
                  VECTOR VALUES LMAX = 50                                                         *012 LM00022
                                                                                                       LM00023
                  ..PROGRAM                                                                            LM00024
                                                                                                       LM00025
                  SETERR.(OUTPER)                                                                 *013 LM00026
                  FERRTN.(PRDIAG.)                                                                *014 LM00027
                  SETBRK.(INTRPT)                                                                 *015 LM00028
                  RCOUPX.(DONE)                                                                   *016 LM00029
                  PRFIL.(COMARG.(0))                                                              *017 LM00030
                                                                                                       LM00031
      L0          THROUGH L0, FOR I = 0, 1, I.G.5 .OR. COMARG.(I+1,C(I)) .E. FENCE                *018 LM00032
                  WHENEVER I .E. 0                                                                *019 LM00033
                    RQSW = 1B                                                                     *020 LM00034
                    TRANSFER TO DONE                                                              *021 LM00035
                  OTHERWISE                                                                       *022 LM00036
                    TRANSFER TO LOOKUP                                                            *023 LM00037
                  END OF CONDITIONAL                                                              *024 LM00038
                                                                                                       LM00039
      READ        RDCOM.(C(0)...6)                                                                *025 LM00040
                                                                                                       LM00041
                  FTIME.(GTDYTM.(0),DATE(1),TIME)                                                 *026 LM00042
                  DATE(2) = DATE(1) .LS. 24 .V. $00    $                                          *027 LM00043
                  DATE(1) = DATE(1) .A. 7777K8 .V. DATE(1) .RS. 6 .A. 7777K2                      *028 LM00044
                1   .V. $00/00/$                                                                  *028 LM00045
                                                                                                       LM00046
                                                                                                       LM00047
      LOOKUP      THROUGH L1, FOR I = 0, 1, CTB(I).E.FENCE                                        *029 LM00048
                    WHENEVER C .E. CTB(I)                                                         *030 LM00049
                      X = TTB((I/2)*2+1)                                                          *031 LM00050
                      TRANSFER TO TTB((I/2)*2)                                                    *032 LM00051
                    END OF CONDITIONAL                                                            *033 LM00052
      L1          CONTINUE                                                                        *034 LM00053
                  PRFULL.($'R'X$,BZ57.(C),$'B'L IS NOT A VALID REQUEST.$)                         *035 LM00054
                  TRANSFER TO DONE                                                                *036 LM00055
                                                                                                       LM00056
      BEGIN       WHENEVER C(1) .E. FENCE                                                         *037 LM00057
                    WHENEVER N1 .V. N2 .E. 0                                                      *038 LM00058
                      TRANSFER TO NOFILE                                                          *039 LM00059
                    OTHERWISE                                                                     *040 LM00060
                      TRANSFER TO X                                                               *041 LM00061
                    END OF CONDITIONAL                                                            *042 LM00062
                  OR WHENEVER C(2) .E. FENCE                                                      *043 LM00063
      NOFILE        C(1) = C(0)                                                                   *044 LM00064
                    TRANSFER TO HELP                                                              *045 LM00065
                  END OF CONDITIONAL                                                              *046 LM00066
                  C(1) = (C(1) .A. 1) .V. $ ACC 0$                                                *047 LM00067
                  C(2) = (C(2) .A. 7) .V. $ MOD 0$                                                *048 LM00068
                  WHENEVER C(1) .E. $ ACC 0$ .AND. C(2) .E. $ MOD 2$                              *049 LM00069
                    N = 400                                                                       *050 LM00070
                  OTHERWISE                                                                       *051 LM00071
                    N = 10000                                                                     *052 LM00072
                  END OF CONDITIONAL                                                              *053 LM00073
                  WHENEVER C(1) .NE. N1 .OR. C(2) .NE. N2                                         *054 LM00074
                    WHENEVER N1 .V. N2 .NE. 0                                                     *055 LM00075
                      CLOSE.(N1, N2)                                                              *056 LM00076
                      N1 = 0                                                                      *057 LM00077
                      N2 = 0                                                                      *058 LM00078
                    END OF CONDITIONAL                                                            *059 LM00079
                    WHENEVER C(1) .V. C(2) .NE. 0                                                 *060 LM00080
                      OPEN.($RW$, C(1), C(2), 100K, 2, OPNERR)                                    *061 LM00081
                      N1 = C(1)                                                                   *062 LM00082
                      N2 = C(2)                                                                   *063 LM00083
                      RDWAIT.(N1, N2, 1, MTX(N)...N, RDEOF., T)                                   *064 LM00084
                    END OF CONDITIONAL                                                            *065 LM00085
                  END OF CONDITIONAL                                                              *066 LM00086
                  TRANSFER TO X                                                                   *067 LM00087
                                                                                                       LM00088
                                                                                                       LM00089
      MODIFY      F = ADD.                                                                        *068 LM00090
                  TRANSFER TO CHG                                                                 *069 LM00091
                                                                                                       LM00092
      RESET       F = REP.                                                                        *070 LM00093
                                                                                                       LM00094
      CHG         WHENEVER C(3) .E. FENCE                                                         *071 LM00095
                    INPSW = 1B                                                                    *072 LM00096
                    PRFULA.($'R'UT'LYPE.'*'B'9$)                                                  *073 LM00097
      INPUT         RDCOM.(C(3)...3)                                                              *074 LM00098
                  END OF CONDITIONAL                                                              *075 LM00099
                  WHENEVER C(3) .E. $     *$                                                      *076 LM00100
                    INPSW = 0B                                                                    *077 LM00101
                  OR WHENEVER C(3) .E. FENCE                                                      *078 LM00102
                    TRANSFER TO INPUT                                                             *079 LM00103
                  OTHERWISE                                                                       *080 LM00104
                    TRK = BCDEC.(C(3))                                                            *081 LM00105
                    WHENEVER TRK .G. N - 1                                                        *082 LM00106
                      PRFULA.($'R'UI'LLLEGAL TRACK NO: 'X$,C(3),$'*'B'9$)                         *083 LM00107
                    OTHERWISE                                                                     *084 LM00108
                      WHENEVER C(4) .E. FENCE                                                     *085 LM00109
                        ERR = 1                                                                   *086 LM00110
                      OTHERWISE                                                                   *087 LM00111
                        ERR = BCDEC.(C(4))                                                        *088 LM00112
                      END OF CONDITIONAL                                                          *089 LM00113
                      F(0).(MTX(TRK+1), ERR)                                                      *090 LM00114
                    END OF CONDITIONAL                                                            *091 LM00115
                  END OF CONDITIONAL                                                              *092 LM00116
                  WHENEVER INPSW, TRANSFER TO INPUT                                               *093 LM00117
                  WRWAIT.(N1, N2, 1, MTX(N)...N, WREOF., T)                                       *094 LM00118
                  TRANSFER TO DONE                                                                *095 LM00119
                                                                                                       LM00120
      PRINT       WHENEVER C(3) .E. $ONLINE$ .OR. C(3) .E. $    ON$                               *096 LM00121
                    ONSW = 1B                                                                     *097 LM00122
                  OR WHENEVER C(3) .E. $FFLINE$ .OR. C(3) .E. $   OFF$                            *098 LM00123
                    ONSW = 0B                                                                     *099 LM00124
                  OR WHENEVER C(3) .E. FENCE                                                      *100 LM00125
                    CONTINUE                                                                      *101 LM00126
                  OTHERWISE                                                                       *102 LM00127
                    TRK = BCDEC.(C(3))                                                            *103 LM00128
                    WHENEVER TRK .G. N - 1                                                        *104 LM00129
                      PRFULA.($'R'UI'LLLEGAL TRACK NO: 'X$,C(3),$'*'B'9$)                         *105 LM00130
                      TRANSFER TO DONE                                                            *106 LM00131
                    END OF CONDITIONAL                                                            *107 LM00132
                    WHENEVER MTX(TRK+1) .E. 1                                                     *108 LM00133
                      S = $'8$                                                                    *109 LM00134
                    OTHERWISE                                                                     *110 LM00135
                      S = $S'8$                                                                   *111 LM00136
                    END OF CONDITIONAL                                                            *112 LM00137
                    PRFULL.($ '8$,BZ57.(DERBC.(MTX(TRK+1))),$'L ERROR'8$, S)                      *113 LM00138
                    TRANSFER TO DONE                                                              *114 LM00139
                  END OF CONDITIONAL                                                              *115 LM00140
                  PRSET.(ONSW)                                                                    *116 LM00141
                  PAGE = 0                                                                        *117 LM00142
                  LINES = LMAX                                                                    *118 LM00143
                  LAST = 0                                                                        *119 LM00144
                  THROUGH L2, FOR CYL = 0, 1, CYL .GE. N/40                                       *120 LM00145
                    WHENEVER ONSW                                                                 *121 LM00146
                      THROUGH L3, FOR HD = 0, 1, HD .G. 39                                        *122 LM00147
                        WHENEVER MTX(CYL, HD) .NE. 0                                              *123 LM00148
                          WHENEVER CYL .NE. LAST+1, PRMESS.                                       *124 LM00149
                          LAST = CYL                                                              *125 LM00150
                          TRANSFER TO PT                                                          *126 LM00151
                        END OF CONDITIONAL                                                        *127 LM00152
      L3              CONTINUE                                                                    *128 LM00153
                    OTHERWISE                                                                     *129 LM00154
                      WHENEVER LINES .E. LMAX                                                     *130 LM00155
                        PAGE = PAGE + 1                                                           *131 LM00156
                        PRINT FORMAT HEADER, N1, N2, DATE(1)...DATE(3), PAGE                      *132 LM00157
                        LINES = 0                                                                 *133 LM00158
                      END OF CONDITIONAL                                                          *134 LM00159
                      LINES = LINES + 1                                                           *135 LM00160
      PT              PRINT FORMAT LINE, CYL, (HD = 0, 1, HD .G. 39, FMT.(MTX(CYL, HD)))          *136 LM00161
                    END OF CONDITIONAL                                                            *137 LM00162
      L2          CONTINUE                                                                        *138 LM00163
                  TRANSFER TO DONE                                                                *139 LM00164
                                                                                                       LM00165
      QUIT        RQSW = 0B                                                                       *140 LM00166
                  TRANSFER TO DONE                                                                *141 LM00167
                                                                                                       LM00168
      INTRPT      WHENEVER N1 .V. N2 .NE. 0                                                       *142 LM00169
                    CLOSE.(N1, N2)                                                                *143 LM00170
                    N1 = 0                                                                        *144 LM00171
                    N2 = 0                                                                        *145 LM00172
                  END OF CONDITIONAL                                                              *146 LM00173
                  TRANSFER TO DONE                                                                *147 LM00174
                                                                                                       LM00175
      HELP        WHENEVER C(1) .NE. FENCE                                                        *148 LM00176
                    HRQSW = 1B                                                                    *149 LM00177
      L4            THROUGH L4, FOR I = 0, 1, C(1).E.CTB(I) .OR. CTB(I).E.FENCE                   *150 LM00178
                    TRANSFER TO H1                                                                *151 LM00179
                  OTHERWISE                                                                       *152 LM00180
                    HRQSW = 0B                                                                    *153 LM00181
                    THROUGH L5, FOR I = 0, 2, CTB(I).E.FENCE .OR. HRQSW                           *154 LM00182
                      C(1) = CTB(I)                                                               *155 LM00183
      H1              PRFULA.($'U'X$,BZ57.(C(1)))                                                 *156 LM00184
                      WHENEVER HTB(I) .A.  1K .E.  1K, PRFULA.($'L ACC MOD'8$)                    *157 LM00185
                      WHENEVER HTB(I) .A.  2K .E.  2K, PRFULA.($'L -TRK-'8$)                      *158 LM00186
                      WHENEVER HTB(I) .A.  4K .E.  4K, PRFULA.($'L -N-'8$)                        *159 LM00187
                      WHENEVER HTB(I) .A. 10K .E. 10K, PRFULA.($'L FUNCTION'8$)                   *160 LM00188
                      WHENEVER HTB(I) .A. 20K .E. 20K, PRFULA.($'L UNKNOWN'8$)                    *161 LM00189
                      PRFULL.                                                                     *162 LM00190
      L5            CONTINUE                                                                      *163 LM00191
                  END OF CONDITIONAL                                                              *164 LM00192
                                                                                                       LM00193
                                                                                                       LM00194
      DONE        WHENEVER RQSW                                                                   *165 LM00195
                    PRFULL.($'UR'LEADY.'*$)                                                       *166 LM00196
                    TRANSFER TO READ                                                              *167 LM00197
                  OTHERWISE                                                                       *168 LM00198
                    WHENEVER N1 .V. N2 .NE. 0                                                     *169 LM00199
                      CLOSE.(N1, N2)                                                              *170 LM00200
                    END OF CONDITIONAL                                                            *171 LM00201
                    PRSET.(1)                                                                     *172 LM00202
                    PRMESS.($*$)                                                                  *173 LM00203
                    CHNCOM.(0)                                                                    *174 LM00204
                  END OF CONDITIONAL                                                              *175 LM00205
                                                                                                       LM00206
      OPNERR      PRDIAG.                                                                         *176 LM00207
                  TRANSFER TO DONE                                                                *177 LM00208
                                                                                                       LM00209
      OUTPER      PRDIAG.                                                                         *178 LM00210
                  PRSET.(1)                                                                       *179 LM00211
                  TRANSFER TO DONE                                                                *180 LM00212
                                                                                                       LM00213
                                                                                                       LM00214
                  VECTOR VALUES HEADER = $23H1DISK MAP OF I/O ERRORS, T52, 7HACCESS ,$,           *181 LM00215
                1   $RC1, 11H    MODULE , RC1, T100, 3C6, 9H    PAGE , I2/$,                      *181 LM00216
                2   $4H0CYL, S62, 4HHEAD/S8,$,                                                    *181 LM00217
                3   $30H 00 01 02 03 04 05 06 07 08 09,$,                                         *181 LM00218
                4   $30H 10 11 12 13 14 15 16 17 18 19,$,                                         *181 LM00219
                5   $30H 20 21 22 23 24 25 26 27 28 29,$,                                         *181 LM00220
                6   $30H 30 31 32 33 34 35 36 37 38 39/*$                                         *181 LM00221
                  VECTOR VALUES LINE = $S1, I3, S4, 40RC3*$                                       *182 LM00222
                                                                                                       LM00223
                                                                                                       LM00224
                  INTERNAL FUNCTION (A, B)                                                        *183 LM00225
                  ENTRY TO ADD.                                                                   *184 LM00226
                    A = A + B                                                                     *185 LM00227
                    FUNCTION RETURN                                                               *186 LM00228
                  ENTRY TO REP.                                                                   *187 LM00229
                    A = B                                                                         *188 LM00230
                    FUNCTION RETURN                                                               *189 LM00231
                  END OF FUNCTION                                                                 *190 LM00232
                                                                                                       LM00233
                  INTERNAL FUNCTION (A)                                                           *191 LM00234
                  ENTRY TO FMT.                                                                   *192 LM00235
                    T = BZEL.(DERBC.(A))                                                          *193 LM00236
                    WHENEVER T .E. $     0$, T = $     .$                                         *194 LM00237
                    FUNCTION RETURN T                                                             *195 LM00238
                  END OF FUNCTION                                                                 *196 LM00239
                                                                                                       LM00240
                  END OF PROGRAM                                                                  *197 LM00241
1MAD PROGRAM,TYPE NOV 1963      (ALL NUMBERS ARE OCTAL)
0TOTAL LOCATIONS   25256 TRANSFER VECTOR LENGTH  00035 PROGRAM BEGINS    24040
0VARIABLE STORAGE (A=ARRAY,C=COMMON,E=ERASABLE,DIGIT=MODE)
      BEGIN  00045   4        H1     00050   4        L1     00040   4        MODIFY 00055   4        PT     00062   4
      CHG    00046   4        HD     00177   1        L2     00040   4        MTX    23724 A 1        QUIT   00063   4
      C      00106 A 1        HEADER 00254 A 1        L3     00040   4        N1     23725   1        READ   00064   4
      CTB    00121 A 1        HELP   00051   4        L4     00040   4        N2     23726   1        RESET  00065   4
      CYL    00122   1        HRQSW  00255   2        L5     00040   4        NOFILE 00056   4        RQSW   23732   2
      CYLTMP 00173 A 1        HTB    00270 A 1        LAST   00273   1        N      23727   1        S      23733   1
      DATE   00044 A 1        INPSW  00271   2        LINE   00276 A 1        ONSW   23730   2        TIME   00041   1
      DONE   00047   4        INPUT  00052   4        LINES  00277   1        OPNERR 00057   4        TRK    23734   1
      ERR    00174   1        INTRPT 00053   4        LMAX   00300 A 1        OUTPER 00060   4        T      23735   1
      FENCE  00175 A 1        I      00272   1        LOOKUP 00054   4        PAGE   23731   1        TTB    00077 A 4
      F      00176   3        L0     00040   4        MDIM   00303 A 1        PRINT  00061   4        X      00100   4
0FUNCTION DICTIONARY
      .03311 00000   0        BCDEC  00001   1        BZ57   00002   1        BZEL   00003   1        CHNCOM 00004   1
      CLOSE  00005   1        COMARG 00006   1        DERBC  00007   1        EXIT   00010   1        FERRTN 00011   1
      FTIME  00012   1        GTDYTM 00013   1        .PRINT 00014   1        .SETUP 00015   1        OPEN   00016   1
      PRDIAG 00017   1        PRFIL  00020   1        PRFULA 00021   1        PRFULL 00022   1        PRMESS 00023   1
      PRSET  00024   1        RCOUPX 00025   1        RDCOM  00026   1        RDEOF  00027   1        RDWAIT 00030   1
      SETBRK 00031   1        SETERR 00032   1        WREOF  00033   1        WRWAIT 00034   1        ADD    00035   1
      FMT    00036   1        REP    00037   1
0ABSOLUTE CONSTANTS
 24033 -206060606033     24032 -206060606000     24022 -146060606060     24001 +212470331454     23777 +146451144325
 24015 -054666451410     23771 +144360644542     23747 +000000000020     23761 +106060606060     24004 +236331464514
 23766 +144360266445     23746 +000000000010     23767 +144360404540     23742 +000000000004     24010 -024014106060
 23770 +144360406351     24025 -204446241410     23764 +144360212323     23776 +146414676060     23751 +000000000047
 23752 +000000000050     24017 -065114106060     23765 +144360255151     24023 -201410606060     24035 -221410606060
 23762 +141060606060     24007 +262643314525     24030 -206060462626     24016 -064543314525     24031 -206060604645
 23775 +145414221411     24000 +146760606060     24011 -026045463560     24013 -036063512123     24012 -034343252721
 23772 +145114643114     24034 -206060606054     23741 +000000000003     24021 -141422141160     24014 -037047253314
 23773 +145114646314     23753 +000000000100     24020 -116660606060     23755 +000000023420     23754 +000000000620
 24027 -204446246002     24026 -204446246000     23745 +000000000007     24024 -202123236000     24006 +256263336060
 24005 +246051255064     24002 +216065214331     24036 -226045466360     23763 +142214436031     23774 +145114676060
 23740 +000000000002     23760 +000061000061     24037 -377700000000     23756 +000000777700     23757 +000060606060
 23750 +000000000030     23744 +000000000006     23743 +000000000005     23736 +000000000000     23737 +000000000001
 24003 +233000000000
0STATEMENT DICTIONARY
 00045 TXL -324227024224       00046 TXL -324362024357       00047 TXL -325125025123       00050 TXL -325036025030
 00051 TXL -324764024761       00052 TXL -324372024370       00053 TXL -324751024743       00054 TXL -324161024147
 00055 TXL -324354024352       00056 TXL -324246024244       00057 TXL -325152025151       00060 TXL -325154025153
 00061 TXL -324475024467       00062 TXL -324736024704       00063 TXL -324742024740       00064 TXL -324117024115
 00065 TXL -324357024355
0PROGRAM
                 N'R                                                                001  LM00005
                 B'N RQSW, INPSW, ONSW, HRQSW                                       002  LM00006
                 S'L TTB, X                                                         003  LM00007
                 FUNCTION NAME F                                                    004  LM00008
                 D'N C(5), MTX(10000, MDIM), DATE(3), CYLTMP(40)                    005  LM00010
                 E'E (TIME, DATE(3))                                                006  LM00011
                 V'S MDIM = 2, 42, 40                                               007  LM00012
 24040 TSX +0 07400 4 00015    00301     +0 00000 0 00050    00302     +0 00000 0 00052    00303     +0 00000 0 00002
                 V'S CTB = $MODIFY$,$     M$,$ RESET$,$     R$,                     008  LM00014
                1  $ PRINT$,$     P$,$  QUIT$,$     Q$,$  HELP$,$     H$,           008  LM00015
                2  777777777777K                                                    008  LM00016
 00107     -3 77777 7 77777    00110     -2 06060 6 06030    00111     -2 06030 2 54347    00112     -2 06060 6 06050
 00113     -2 06050 6 43163    00114     -2 06060 6 06047    00115     -2 04751 3 14563    00116     -2 06060 6 06051
 00117     -2 05125 6 22563    00120     -2 06060 6 06044    00121     -0 44624 3 12670
                 V'S TTB = BEGIN, MODIFY, BEGIN, RESET, BEGIN, PRINT,               009  LM00017
                1  QUIT, QUIT, HELP, HELP                                           009  LM00018
 00066 TXL -3 00000 0 00051    00067 TXL -3 00000 0 00051    00070 TXL -3 00000 0 00063    00071 TXL -3 00000 0 00063
 00072 TXL -3 00000 0 00061    00073 TXL -3 00000 0 00045    00074 TXL -3 00000 0 00065    00075 TXL -3 00000 0 00045
 00076 TXL -3 00000 0 00055    00077 TXL -3 00000 0 00045
                 V'S HTB = 7K, 7K, 7K, 7K, 3K, 3K, 0K, 0K, 10K, 10K, 20K            010  LM00019
 00256     +0 00000 0 00020    00257     +0 00000 0 00010    00260     +0 00000 0 00010    00261     +0 00000 0 00000
 00262     +0 00000 0 00000    00263     +0 00000 0 00003    00264     +0 00000 0 00003    00265     +0 00000 0 00007
 00266     +0 00000 0 00007    00267     +0 00000 0 00007    00270     +0 00000 0 00007
                 V'S FENCE = 777777777777K                                          011  LM00021
 00175     -3 77777 7 77777
                 V'S LMAX = 50                                                      012  LM00022
 00300     +0 00000 0 00062
                 SETERR.(OUTPER)                                                    013  LM00026
 24041 TSX +0 07400 4 00032    24042 TXH +3 00000 0 00060
                 FERRTN.(PRDIAG.)                                                   014  LM00027
 24043 TSX +0 07400 4 00011    24044 TXH +3 00000 0 00017
                 SETBRK.(INTRPT)                                                    015  LM00028
 24045 TSX +0 07400 4 00031    24046 TXH +3 00000 0 00053
                 RCOUPX.(DONE)                                                      016  LM00029
 24047 TSX +0 07400 4 00025    24050 TXH +3 00000 0 00047
                 PRFIL.(COMARG.(0))                                                 017  LM00030
 24051 TSX +0 07400 4 00006    24052 TXH +3 00000 0 23736    24053 STO +0 60100 0 25253    24054 TSX +0 07400 4 00020
 24055 TXH +3 00000 0 25253
      L0         T'H L0, FOR I = 0, 1, I.G.5 .OR. COMARG.(I+1,C(I)) .E. FENCE       018  LM00032
 24056 CLA +0 50000 0 23736    24057 STO +0 60100 0 00272    24060 TRA +0 02000 0 24064    24061 CLA +0 50000 0 00272
 24062 ADD +0 40000 0 23737    24063 STO +0 60100 0 00272    24064 CLA +0 50000 0 00272    24065 SUB +0 40200 0 24066
 24066 TXH +3 00000 0 00106    24067 STA +0 62100 0 24075    24070 CLA +0 50000 0 00272    24071 ADD +0 40000 0 23737
 24072 STO +0 60100 0 25253    24073 TSX +0 07400 4 00006    24074 TXH +3 00000 0 25253    24075 TXH +3 00000 0 00000
 24076 SUB +0 40200 0 00175    24077 TZE +0 10000 0 24105    24100 CLA +0 50000 0 00272    24101 SUB +0 40200 0 23743
 24102 TZE +0 10000 0 24104    24103 TPL +0 12000 0 24105    24104 TRA +0 02000 0 24061
                 W'R I .E. 0                                                        019  LM00033
 24105 CLA +0 50000 0 00272    24106 SUB +0 40200 0 23736    24107 TNZ -0 10000 0 24114
                   RQSW = 1B                                                        020  LM00034
 24110 CLA +0 50000 0 23737    24111 STO +0 60100 0 23732
                   T'O DONE                                                         021  LM00035
 24112 TRA +0 02000 0 00047
                 O'E                                                                022  LM00036
 24113 TRA +0 02000 0 24115
                   T'O LOOKUP                                                       023  LM00037
 24114 TRA +0 02000 0 00054
                 E'L                                                                024  LM00038
      READ       RDCOM.(C(0)...6)                                                   025  LM00040
 24115 TSX +0 07400 4 00026    24116 TIX +2 23744 0 00106
                 FTIME.(GTDYTM.(0),DATE(1),TIME)                                    026  LM00042
 24117 TSX +0 07400 4 00013    24120 TXH +3 00000 0 23736    24121 STO +0 60100 0 25253    24122 TSX +0 07400 4 00012
 24123 TXH +3 00000 0 25253    24124 TXH +3 00000 0 00043    24125 TXH +3 00000 0 00041
                 DATE(2) = DATE(1) .LS. 24 .V. $00    $                             027  LM00043
 24126 CAL -0 50000 0 23750    24127 STA +0 62100 0 24131    24130 CAL -0 50000 0 00043    24131 ALS +0 76700 0 00000
 24132 ORA -0 50100 0 23757    24133 SLW +0 60200 0 00042
                 DATE(1) = DATE(1) .A. 7777K8 .V. DATE(1) .RS. 6 .A. 7777K2         028  LM00044
                1  .V. $00/00/$                                                     028  LM00045
 24134 CAL -0 50000 0 23744    24135 STA +0 62100 0 24137    24136 CAL -0 50000 0 00043    24137 LGR -0 76500 0 00000
 24140 ANA -0 32000 0 23756    24141 SLW +0 60200 0 25253    24142 CAL -0 50000 0 00043    24143 ANA -0 32000 0 24037
 24144 ORA -0 50100 0 25253    24145 ORA -0 50100 0 23760    24146 SLW +0 60200 0 00043
      LOOKUP     T'H L1, FOR I = 0, 1, CTB(I).E.FENCE                               029  LM00048
 24147 CLA +0 50000 0 23736    24150 STO +0 60100 0 00272    24151 TRA +0 02000 0 24155    24152 CLA +0 50000 0 00272
 24153 ADD +0 40000 0 23737    24154 STO +0 60100 0 00272    24155 LXA +0 53400 1 00272    24156 CLA +0 50000 1 00121
 24157 SUB +0 40200 0 00175    24160 TZE +0 10000 0 24210
                   W'R C .E. CTB(I)                                                 030  LM00049
 24161 LXA +0 53400 2 00272    24162 CLA +0 50000 0 00106    24163 SUB +0 40200 2 00121    24164 TNZ -0 10000 0 24207
                     X = TTB((I/2)*2+1)                                             031  LM00050
 24165 LDQ +0 56000 0 00272    24166 PXD -0 75400 0 00000    24167 LLS +0 76300 0 00000    24170 DVP +0 22100 0 23740
 24171 MPY +0 20000 0 23740    24172 XCA +0 13100 0 00000    24173 ADD +0 40000 0 23737    24174 PAX +0 73400 2 00000
 24175 CLA +0 50000 2 00077    24176 STO +0 60100 0 00100
                     T'O TTB((I/2)*2)                                               032  LM00051
 24177 LDQ +0 56000 0 00272    24200 PXD -0 75400 0 00000    24201 LLS +0 76300 0 00000    24202 DVP +0 22100 0 23740
 24203 MPY +0 20000 0 23740    24204 XCA +0 13100 0 00000    24205 PAX +0 73400 2 00000    24206 TRA +0 02000 2 00077
                   E'L                                                              033  LM00052
      L1         C'E                                                                034  LM00053
 24207 TRA +0 02000 0 24152
                 PRFULL.($'R'X$,BZ57.(C),$'B'L IS NOT A VALID REQUEST.$)            035  LM00054
 24210 TSX +0 07400 4 00002    24211 TXH +3 00000 0 00106    24212 STO +0 60100 0 25253    24213 TSX +0 07400 4 00022
 24214 TXH +3 00000 0 23774    24215 TXH +3 00000 0 25253    24216 TXH +3 00000 0 23763    24217 TXH +3 00000 0 24036
 24220 TXH +3 00000 0 24002    24221 TXH +3 00000 0 24005    24222 TXH +3 00000 0 24006
                 T'O DONE                                                           036  LM00055
 24223 TRA +0 02000 0 00047
      BEGIN      W'R C(1) .E. FENCE                                                 037  LM00057
 24224 CLA +0 50000 0 00105    24225 SUB +0 40200 0 00175    24226 TNZ -0 10000 0 24241
                   W'R N1 .V. N2 .E. 0                                              038  LM00058
 24227 CAL -0 50000 0 23725    24230 ORA -0 50100 0 23726    24231 SLW +0 60200 0 25253    24232 CLA +0 50000 0 25253
 24233 SUB +0 40200 0 23736    24234 TNZ -0 10000 0 24237
                     T'O NOFILE                                                     039  LM00059
 24235 TRA +0 02000 0 00056
                   O'E                                                              040  LM00060
 24236 TRA +0 02000 0 24240
                     T'O X                                                          041  LM00061
 24237 TRA +0 02000 0 00100
                   E'L                                                              042  LM00062
                 O'R C(2) .E. FENCE                                                 043  LM00063
 24240 TRA +0 02000 0 24247    24241 CLA +0 50000 0 00104    24242 SUB +0 40200 0 00175    24243 TNZ -0 10000 0 24247
      NOFILE       C(1) = C(0)                                                      044  LM00064
 24244 CLA +0 50000 0 00106    24245 STO +0 60100 0 00105
                   T'O HELP                                                         045  LM00065
 24246 TRA +0 02000 0 00051
                 E'L                                                                046  LM00066
                 C(1) = (C(1) .A. 1) .V. $ ACC 0$                                   047  LM00067
 24247 CAL -0 50000 0 00105    24250 ANA -0 32000 0 23737    24251 ORA -0 50100 0 24024    24252 SLW +0 60200 0 00105
                 C(2) = (C(2) .A. 7) .V. $ MOD 0$                                   048  LM00068
 24253 CAL -0 50000 0 00104    24254 ANA -0 32000 0 23745    24255 ORA -0 50100 0 24026    24256 SLW +0 60200 0 00104
                 W'R C(1) .E. $ ACC 0$ .AND. C(2) .E. $ MOD 2$                      049  LM00069
 24257 CLA +0 50000 0 00104    24260 SUB +0 40200 0 24027    24261 TNZ -0 10000 0 24270    24262 CLA +0 50000 0 00105
 24263 SUB +0 40200 0 24024    24264 TNZ -0 10000 0 24270
                   N = 400                                                          050  LM00070
 24265 CLA +0 50000 0 23754    24266 STO +0 60100 0 23727
                 O'E                                                                051  LM00071
 24267 TRA +0 02000 0 24272
                   N = 10000                                                        052  LM00072
 24270 CLA +0 50000 0 23755    24271 STO +0 60100 0 23727
                 E'L                                                                053  LM00073
                 W'R C(1) .NE. N1 .OR. C(2) .NE. N2                                 054  LM00074
 24272 CLA +0 50000 0 00104    24273 SUB +0 40200 0 23726    24274 TNZ -0 10000 0 24300    24275 CLA +0 50000 0 00105
 24276 SUB +0 40200 0 23725    24277 TZE +0 10000 0 24351
                   W'R N1 .V. N2 .NE. 0                                             055  LM00075
 24300 CAL -0 50000 0 23725    24301 ORA -0 50100 0 23726    24302 SLW +0 60200 0 25253    24303 CLA +0 50000 0 25253
 24304 SUB +0 40200 0 23736    24305 TZE +0 10000 0 24315
                     CLOSE.(N1, N2)                                                 056  LM00076
 24306 TSX +0 07400 4 00005    24307 TXH +3 00000 0 23725    24310 TXH +3 00000 0 23726
                     N1 = 0                                                         057  LM00077
 24311 CLA +0 50000 0 23736    24312 STO +0 60100 0 23725
                     N2 = 0                                                         058  LM00078
 24313 CLA +0 50000 0 23736    24314 STO +0 60100 0 23726
                   E'L                                                              059  LM00079
                   W'R C(1) .V. C(2) .NE. 0                                         060  LM00080
 24315 CAL -0 50000 0 00105    24316 ORA -0 50100 0 00104    24317 SLW +0 60200 0 25253    24320 CLA +0 50000 0 25253
 24321 SUB +0 40200 0 23736    24322 TZE +0 10000 0 24351
                     OPEN.($RW$, C(1), C(2), 100K, 2, OPNERR)                       061  LM00081
 24323 TSX +0 07400 4 00016    24324 TXH +3 00000 0 24020    24325 TXH +3 00000 0 00105    24326 TXH +3 00000 0 00104
 24327 TXH +3 00000 0 23753    24330 TXH +3 00000 0 23740    24331 TXH +3 00000 0 00057
                     N1 = C(1)                                                      062  LM00082
 24332 CLA +0 50000 0 00105    24333 STO +0 60100 0 23725
                     N2 = C(2)                                                      063  LM00083
 24334 CLA +0 50000 0 00104    24335 STO +0 60100 0 23726
                     RDWAIT.(N1, N2, 1, MTX(N)...N, RDEOF., T)                      064  LM00084
 24336 CLA +0 50000 0 23727    24337 SUB +0 40200 0 24340    24340 TXH +3 00000 0 23724    24341 STA +0 62100 0 24346
 24342 TSX +0 07400 4 00030    24343 TXH +3 00000 0 23725    24344 TXH +3 00000 0 23726    24345 TXH +3 00000 0 23737
 24346 TIX +2 23727 0 00000    24347 TXH +3 00000 0 00027    24350 TXH +3 00000 0 23735
                   E'L                                                              065  LM00085
                 E'L                                                                066  LM00086
                 T'O X                                                              067  LM00087
 24351 TRA +0 02000 0 00100
      MODIFY     F = ADD.                                                           068  LM00090
 24352 CLA +0 50000 0 00035    24353 STO +0 60100 0 00176
                 T'O CHG                                                            069  LM00091
 24354 TRA +0 02000 0 00046
      RESET      F = REP.                                                           070  LM00093
 24355 CLA +0 50000 0 00037    24356 STO +0 60100 0 00176
      CHG        W'R C(3) .E. FENCE                                                 071  LM00095
 24357 CLA +0 50000 0 00103    24360 SUB +0 40200 0 00175    24361 TNZ -0 10000 0 24372
                   INPSW = 1B                                                       072  LM00096
 24362 CLA +0 50000 0 23737    24363 STO +0 60100 0 00271
                   PRFULA.($'R'UT'LYPE.'*'B'9$)                                     073  LM00097
 24364 TSX +0 07400 4 00021    24365 TXH +3 00000 0 23773    24366 TXH +3 00000 0 24014    24367 TXH +3 00000 0 24021
      INPUT        RDCOM.(C(3)...3)                                                 074  LM00098
 24370 TSX +0 07400 4 00026    24371 TIX +2 23741 0 00103
                 E'L                                                                075  LM00099
                 W'R C(3) .E. $     *$                                              076  LM00100
 24372 CLA +0 50000 0 00103    24373 SUB +0 40200 0 24034    24374 TNZ -0 10000 0 24400
                   INPSW = 0B                                                       077  LM00101
 24375 CLA +0 50000 0 23736    24376 STO +0 60100 0 00271
                 O'R C(3) .E. FENCE                                                 078  LM00102
 24377 TRA +0 02000 0 24450    24400 CLA +0 50000 0 00103    24401 SUB +0 40200 0 00175    24402 TNZ -0 10000 0 24405
                   T'O INPUT                                                        079  LM00103
 24403 TRA +0 02000 0 00052
                 O'E                                                                080  LM00104
 24404 TRA +0 02000 0 24450
                   TRK = BCDEC.(C(3))                                               081  LM00105
 24405 TSX +0 07400 4 00001    24406 TXH +3 00000 0 00103    24407 STO +0 60100 0 23734
                   W'R TRK .G. N - 1                                                082  LM00106
 24410 CLA +0 50000 0 23727    24411 SUB +0 40200 0 23737    24412 CHS +0 76000 0 00002    24413 ADD +0 40000 0 23734
 24414 TZE +0 10000 0 24427    24415 TMI -0 12000 0 24427
                     PRFULA.($'R'UI'LLLEGAL TRACK NO: 'X$,C(3),$'*'B'9$)            083  LM00107
 24416 TSX +0 07400 4 00021    24417 TXH +3 00000 0 23772    24420 TXH +3 00000 0 24012    24421 TXH +3 00000 0 24013
 24422 TXH +3 00000 0 24011    24423 TXH +3 00000 0 24000    24424 TXH +3 00000 0 00103    24425 TXH +3 00000 0 23775
                   O'E                                                              084  LM00108
 24426 TRA +0 02000 0 24450
                     W'R C(4) .E. FENCE                                             085  LM00109
 24427 CLA +0 50000 0 00102    24430 SUB +0 40200 0 00175    24431 TNZ -0 10000 0 24435
                       ERR = 1                                                      086  LM00110
 24432 CLA +0 50000 0 23737    24433 STO +0 60100 0 00174
                     O'E                                                            087  LM00111
 24434 TRA +0 02000 0 24440
                       ERR = BCDEC.(C(4))                                           088  LM00112
 24435 TSX +0 07400 4 00001    24436 TXH +3 00000 0 00102    24437 STO +0 60100 0 00174
                     E'L                                                            089  LM00113
                     F(0).(MTX(TRK+1), ERR)                                         090  LM00114
 24440 CLA +0 50000 0 23734    24441 ADD +0 40000 0 23737    24442 SUB +0 40200 0 24443    24443 TXH +3 00000 0 23724
 24444 STA +0 62100 0 24446    24445 TSX +0 07400 4 00176    24446 TXH +3 00000 0 00000    24447 TXH +3 00000 0 00174
                   E'L                                                              091  LM00115
                 E'L                                                                092  LM00116
                 W'R INPSW, T'O INPUT                                               093  LM00117
 24450 NZT -0 52000 0 00271    24451 TRA +0 02000 0 24453    24452 TRA +0 02000 0 00052
                 WRWAIT.(N1, N2, 1, MTX(N)...N, WREOF., T)                          094  LM00118
 24453 CLA +0 50000 0 23727    24454 SUB +0 40200 0 24455    24455 TXH +3 00000 0 23724    24456 STA +0 62100 0 24463
 24457 TSX +0 07400 4 00034    24460 TXH +3 00000 0 23725    24461 TXH +3 00000 0 23726    24462 TXH +3 00000 0 23737
 24463 TIX +2 23727 0 00000    24464 TXH +3 00000 0 00033    24465 TXH +3 00000 0 23735
                 T'O DONE                                                           095  LM00119
 24466 TRA +0 02000 0 00047
      PRINT      W'R C(3) .E. $ONLINE$ .OR. C(3) .E. $    ON$                       096  LM00121
 24467 CLA +0 50000 0 00103    24470 SUB +0 40200 0 24031    24471 TZE +0 10000 0 24475    24472 CLA +0 50000 0 00103
 24473 SUB +0 40200 0 24016    24474 TNZ -0 10000 0 24500
                   ONSW = 1B                                                        097  LM00122
 24475 CLA +0 50000 0 23737    24476 STO +0 60100 0 23730
                 O'R C(3) .E. $FFLINE$ .OR. C(3) .E. $   OFF$                       098  LM00123
 24477 TRA +0 02000 0 24574    24500 CLA +0 50000 0 00103    24501 SUB +0 40200 0 24030    24502 TZE +0 10000 0 24506
 24503 CLA +0 50000 0 00103    24504 SUB +0 40200 0 24007    24505 TNZ -0 10000 0 24511
                   ONSW = 0B                                                        099  LM00124
 24506 CLA +0 50000 0 23736    24507 STO +0 60100 0 23730
                 O'R C(3) .E. FENCE                                                 100  LM00125
 24510 TRA +0 02000 0 24574    24511 CLA +0 50000 0 00103    24512 SUB +0 40200 0 00175    24513 TNZ -0 10000 0 24515
                   C'E                                                              101  LM00126
                 O'E                                                                102  LM00127
 24514 TRA +0 02000 0 24574
                   TRK = BCDEC.(C(3))                                               103  LM00128
 24515 TSX +0 07400 4 00001    24516 TXH +3 00000 0 00103    24517 STO +0 60100 0 23734
                   W'R TRK .G. N - 1                                                104  LM00129
 24520 CLA +0 50000 0 23727    24521 SUB +0 40200 0 23737    24522 CHS +0 76000 0 00002    24523 ADD +0 40000 0 23734
 24524 TZE +0 10000 0 24537    24525 TMI -0 12000 0 24537
                     PRFULA.($'R'UI'LLLEGAL TRACK NO: 'X$,C(3),$'*'B'9$)            105  LM00130
 24526 TSX +0 07400 4 00021    24527 TXH +3 00000 0 23772    24530 TXH +3 00000 0 24012    24531 TXH +3 00000 0 24013
 24532 TXH +3 00000 0 24011    24533 TXH +3 00000 0 24000    24534 TXH +3 00000 0 00103    24535 TXH +3 00000 0 23775
                     T'O DONE                                                       106  LM00131
 24536 TRA +0 02000 0 00047
                   E'L                                                              107  LM00132
                   W'R MTX(TRK+1) .E. 1                                             108  LM00133
 24537 CLA +0 50000 0 23734    24540 ADD +0 40000 0 23737    24541 PAX +0 73400 1 00000    24542 CLA +0 50000 1 23724
 24543 SUB +0 40200 0 23737    24544 TNZ -0 10000 0 24550
                     S = $'8$                                                       109  LM00134
 24545 CLA +0 50000 0 23762    24546 STO +0 60100 0 23733
                   O'E                                                              110  LM00135
 24547 TRA +0 02000 0 24552
                     S = $S'8$                                                      111  LM00136
 24550 CLA +0 50000 0 24035    24551 STO +0 60100 0 23733
                   E'L                                                              112  LM00137
                   PRFULL.($ '8$,BZ57.(DERBC.(MTX(TRK+1))),$'L ERROR'8$, S)         113  LM00138
 24552 CLA +0 50000 0 23734    24553 ADD +0 40000 0 23737    24554 SUB +0 40200 0 24555    24555 TXH +3 00000 0 23724
 24556 STA +0 62100 0 24560    24557 TSX +0 07400 4 00007    24560 TXH +3 00000 0 00000    24561 STO +0 60100 0 25253
 24562 TSX +0 07400 4 00002    24563 TXH +3 00000 0 25253    24564 STO +0 60100 0 25253    24565 TSX +0 07400 4 00022
 24566 TXH +3 00000 0 24023    24567 TXH +3 00000 0 25253    24570 TXH +3 00000 0 23765    24571 TXH +3 00000 0 24017
 24572 TXH +3 00000 0 23733
                   T'O DONE                                                         114  LM00139
 24573 TRA +0 02000 0 00047
                 E'L                                                                115  LM00140
                 PRSET.(ONSW)                                                       116  LM00141
 24574 TSX +0 07400 4 00024    24575 TXH +3 00000 0 23730
                 PAGE = 0                                                           117  LM00142
 24576 CLA +0 50000 0 23736    24577 STO +0 60100 0 23731
                 LINES = LMAX                                                       118  LM00143
 24600 CLA +0 50000 0 00300    24601 STO +0 60100 0 00277
                 LAST = 0                                                           119  LM00144
 24602 CLA +0 50000 0 23736    24603 STO +0 60100 0 00273
                 T'H L2, FOR CYL = 0, 1, CYL .GE. N/40                              120  LM00145
 24604 CLA +0 50000 0 23736    24605 STO +0 60100 0 00122    24606 TRA +0 02000 0 24612    24607 CLA +0 50000 0 00122
 24610 ADD +0 40000 0 23737    24611 STO +0 60100 0 00122    24612 LDQ +0 56000 0 23727    24613 PXD -0 75400 0 00000
 24614 LLS +0 76300 0 00000    24615 DVP +0 22100 0 23752    24616 XCA +0 13100 0 00000    24617 CHS +0 76000 0 00002
 24620 ADD +0 40000 0 00122    24621 TZE +0 10000 0 24737    24622 TPL +0 12000 0 24737
                   W'R ONSW                                                         121  LM00146
 24623 NZT -0 52000 0 23730    24624 TRA +0 02000 0 24662
                     T'H L3, FOR HD = 0, 1, HD .G. 39                               122  LM00147
 24625 CLA +0 50000 0 23736    24626 STO +0 60100 0 00177    24627 TRA +0 02000 0 24633    24630 CLA +0 50000 0 00177
 24631 ADD +0 40000 0 23737    24632 STO +0 60100 0 00177    24633 CLA +0 50000 0 00177    24634 SUB +0 40200 0 23751
 24635 TZE +0 10000 0 24637    24636 TPL +0 12000 0 24661
                       W'R MTX(CYL, HD) .NE. 0                                      123  LM00148
 24637 LDQ +0 56000 0 00177    24640 CLA +0 50000 0 00122    24641 TSX +0 07400 4 00000    24642 TXH +3 00303 0 23724
 24643 PAX +0 73400 1 00000    24644 CLA +0 50000 1 23724    24645 SUB +0 40200 0 23736    24646 TZE +0 10000 0 24660
                         W'R CYL .NE. LAST+1, PRMESS.                               124  LM00149
 24647 CLA +0 50000 0 00273    24650 ADD +0 40000 0 23737    24651 CHS +0 76000 0 00002    24652 ADD +0 40000 0 00122
 24653 TZE +0 10000 0 24655    24654 TSX +0 07400 4 00023
                         LAST = CYL                                                 125  LM00150
 24655 CLA +0 50000 0 00122    24656 STO +0 60100 0 00273
                         T'O PT                                                     126  LM00151
 24657 TRA +0 02000 0 00062
                       E'L                                                          127  LM00152
      L3             C'E                                                            128  LM00153
 24660 TRA +0 02000 0 24630
                   O'E                                                              129  LM00154
 24661 TRA +0 02000 0 24736
                     W'R LINES .E. LMAX                                             130  LM00155
 24662 CLA +0 50000 0 00277    24663 SUB +0 40200 0 00300    24664 TNZ -0 10000 0 24701
                       PAGE = PAGE + 1                                              131  LM00156
 24665 CLA +0 50000 0 23731    24666 ADD +0 40000 0 23737    24667 STO +0 60100 0 23731
                       P'T HEADER, N1, N2, DATE(1)...DATE(3), PAGE                  132  LM00157
 24670 TSX +0 07400 4 00014    24671 STR -1 00254 1 25254    24672 STR -1 00000 0 23725    24673 STR -1 00000 0 23726
 24674 STR -1 00041 0 00043    24675 STR -1 00000 0 23731    24676 STR -1 00000 0 00000
                       LINES = 0                                                    133  LM00158
 24677 CLA +0 50000 0 23736    24700 STO +0 60100 0 00277
                     E'L                                                            134  LM00159
                     LINES = LINES + 1                                              135  LM00160
 24701 CLA +0 50000 0 00277    24702 ADD +0 40000 0 23737    24703 STO +0 60100 0 00277
      PT             P'T LINE, CYL, (HD = 0, 1, HD .G. 39, FMT.(MTX(CYL, HD)))      136  LM00161
 24704 TSX +0 07400 4 00014    24705 STR -1 00276 1 25254    24706 STR -1 00000 0 00122    24707 CLA +0 50000 0 23736
 24710 STO +0 60100 0 00177    24711 TRA +0 02000 0 24715    24712 CLA +0 50000 0 00177    24713 ADD +0 40000 0 23737
 24714 STO +0 60100 0 00177    24715 CLA +0 50000 0 00177    24716 SUB +0 40200 0 23751    24717 TZE +0 10000 0 24721
 24720 TPL +0 12000 0 24735    24721 LDQ +0 56000 0 00177    24722 CLA +0 50000 0 00122    24723 TSX +0 07400 4 00000
 24724 TXH +3 00303 0 23724    24725 SUB +0 40200 0 24726    24726 TXH +3 00000 0 23724    24727 STA +0 62100 0 24731
 24730 TSX +0 07400 4 00036    24731 TXH +3 00000 0 00000    24732 STO +0 60100 0 25253    24733 STR -1 00000 0 25253
 24734 TRA +0 02000 0 24712    24735 STR -1 00000 0 00000
                   E'L                                                              137  LM00162
      L2         C'E                                                                138  LM00163
 24736 TRA +0 02000 0 24607
                 T'O DONE                                                           139  LM00164
 24737 TRA +0 02000 0 00047
      QUIT       RQSW = 0B                                                          140  LM00166
 24740 CLA +0 50000 0 23736    24741 STO +0 60100 0 23732
                 T'O DONE                                                           141  LM00167
 24742 TRA +0 02000 0 00047
      INTRPT     W'R N1 .V. N2 .NE. 0                                               142  LM00169
 24743 CAL -0 50000 0 23725    24744 ORA -0 50100 0 23726    24745 SLW +0 60200 0 25253    24746 CLA +0 50000 0 25253
 24747 SUB +0 40200 0 23736    24750 TZE +0 10000 0 24760
                   CLOSE.(N1, N2)                                                   143  LM00170
 24751 TSX +0 07400 4 00005    24752 TXH +3 00000 0 23725    24753 TXH +3 00000 0 23726
                   N1 = 0                                                           144  LM00171
 24754 CLA +0 50000 0 23736    24755 STO +0 60100 0 23725
                   N2 = 0                                                           145  LM00172
 24756 CLA +0 50000 0 23736    24757 STO +0 60100 0 23726
                 E'L                                                                146  LM00173
                 T'O DONE                                                           147  LM00174
 24760 TRA +0 02000 0 00047
      HELP       W'R C(1) .NE. FENCE                                                148  LM00176
 24761 CLA +0 50000 0 00105    24762 SUB +0 40200 0 00175    24763 TZE +0 10000 0 25007
                   HRQSW = 1B                                                       149  LM00177
 24764 CLA +0 50000 0 23737    24765 STO +0 60100 0 00255
      L4           T'H L4, FOR I = 0, 1, C(1).E.CTB(I) .OR. CTB(I).E.FENCE          150  LM00178
 24766 CLA +0 50000 0 23736    24767 STO +0 60100 0 00272    24770 TRA +0 02000 0 24774    24771 CLA +0 50000 0 00272
 24772 ADD +0 40000 0 23737    24773 STO +0 60100 0 00272    24774 LXA +0 53400 1 00272    24775 CLA +0 50000 1 00121
 24776 SUB +0 40200 0 00175    24777 TZE +0 10000 0 25005    25000 LXA +0 53400 2 00272    25001 CLA +0 50000 0 00105
 25002 SUB +0 40200 2 00121    25003 TZE +0 10000 0 25005    25004 TRA +0 02000 0 24771
                   T'O H1                                                           151  LM00179
 25005 TRA +0 02000 0 00050
                 O'E                                                                152  LM00180
 25006 TRA +0 02000 0 25123
                   HRQSW = 0B                                                       153  LM00181
 25007 CLA +0 50000 0 23736    25010 STO +0 60100 0 00255
                   T'H L5, FOR I = 0, 2, CTB(I).E.FENCE .OR. HRQSW                  154  LM00182
 25011 CLA +0 50000 0 23736    25012 STO +0 60100 0 00272    25013 TRA +0 02000 0 25017    25014 CLA +0 50000 0 00272
 25015 ADD +0 40000 0 23740    25016 STO +0 60100 0 00272    25017 ZET +0 52000 0 00255    25020 TRA +0 02000 0 25123
 25021 LXA +0 53400 1 00272    25022 CLA +0 50000 1 00121    25023 SUB +0 40200 0 00175    25024 TZE +0 10000 0 25123
                     C(1) = CTB(I)                                                  155  LM00183
 25025 LXA +0 53400 2 00272    25026 CLA +0 50000 2 00121    25027 STO +0 60100 0 00105
      H1             PRFULA.($'U'X$,BZ57.(C(1)))                                    156  LM00184
 25030 TSX +0 07400 4 00002    25031 TXH +3 00000 0 00105    25032 STO +0 60100 0 25253    25033 TSX +0 07400 4 00021
 25034 TXH +3 00000 0 23776    25035 TXH +3 00000 0 25253
                     W'R HTB(I) .A.  1K .E.  1K, PRFULA.($'L ACC MOD'8$)            157  LM00185
 25036 LXA +0 53400 1 00272    25037 CAL -0 50000 1 00270    25040 ANA -0 32000 0 23737    25041 SLW +0 60200 0 25253
 25042 CLA +0 50000 0 25253    25043 SUB +0 40200 0 23737    25044 TNZ -0 10000 0 25050    25045 TSX +0 07400 4 00021
 25046 TXH +3 00000 0 23764    25047 TXH +3 00000 0 24025
                     W'R HTB(I) .A.  2K .E.  2K, PRFULA.($'L -TRK-'8$)              158  LM00186
 25050 LXA +0 53400 1 00272    25051 CAL -0 50000 1 00270    25052 ANA -0 32000 0 23740    25053 SLW +0 60200 0 25253
 25054 CLA +0 50000 0 25253    25055 SUB +0 40200 0 23740    25056 TNZ -0 10000 0 25062    25057 TSX +0 07400 4 00021
 25060 TXH +3 00000 0 23770    25061 TXH +3 00000 0 24010
                     W'R HTB(I) .A.  4K .E.  4K, PRFULA.($'L -N-'8$)                159  LM00187
 25062 LXA +0 53400 1 00272    25063 CAL -0 50000 1 00270    25064 ANA -0 32000 0 23742    25065 SLW +0 60200 0 25253
 25066 CLA +0 50000 0 25253    25067 SUB +0 40200 0 23742    25070 TNZ -0 10000 0 25074    25071 TSX +0 07400 4 00021
 25072 TXH +3 00000 0 23767    25073 TXH +3 00000 0 23762
                     W'R HTB(I) .A. 10K .E. 10K, PRFULA.($'L FUNCTION'8$)           160  LM00188
 25074 LXA +0 53400 1 00272    25075 CAL -0 50000 1 00270    25076 ANA -0 32000 0 23746    25077 SLW +0 60200 0 25253
 25100 CLA +0 50000 0 25253    25101 SUB +0 40200 0 23746    25102 TNZ -0 10000 0 25107    25103 TSX +0 07400 4 00021
 25104 TXH +3 00000 0 23766    25105 TXH +3 00000 0 24004    25106 TXH +3 00000 0 23761
                     W'R HTB(I) .A. 20K .E. 20K, PRFULA.($'L UNKNOWN'8$)            161  LM00189
 25107 LXA +0 53400 1 00272    25110 CAL -0 50000 1 00270    25111 ANA -0 32000 0 23747    25112 SLW +0 60200 0 25253
 25113 CLA +0 50000 0 25253    25114 SUB +0 40200 0 23747    25115 TNZ -0 10000 0 25121    25116 TSX +0 07400 4 00021
 25117 TXH +3 00000 0 23771    25120 TXH +3 00000 0 24015
                     PRFULL.                                                        162  LM00190
 25121 TSX +0 07400 4 00022
      L5           C'E                                                              163  LM00191
 25122 TRA +0 02000 0 25014
                 E'L                                                                164  LM00192
      DONE       W'R RQSW                                                           165  LM00195
 25123 NZT -0 52000 0 23732    25124 TRA +0 02000 0 25132
                   PRFULL.($'UR'LEADY.'*$)                                          166  LM00196
 25125 TSX +0 07400 4 00022    25126 TXH +3 00000 0 23777    25127 TXH +3 00000 0 24001
                   T'O READ                                                         167  LM00197
 25130 TRA +0 02000 0 00064
                 O'E                                                                168  LM00198
 25131 TRA +0 02000 0 25151
                   W'R N1 .V. N2 .NE. 0                                             169  LM00199
 25132 CAL -0 50000 0 23725    25133 ORA -0 50100 0 23726    25134 SLW +0 60200 0 25253    25135 CLA +0 50000 0 25253
 25136 SUB +0 40200 0 23736    25137 TZE +0 10000 0 25143
                     CLOSE.(N1, N2)                                                 170  LM00200
 25140 TSX +0 07400 4 00005    25141 TXH +3 00000 0 23725    25142 TXH +3 00000 0 23726
                   E'L                                                              171  LM00201
                   PRSET.(1)                                                        172  LM00202
 25143 TSX +0 07400 4 00024    25144 TXH +3 00000 0 23737
                   PRMESS.($*$)                                                     173  LM00203
 25145 TSX +0 07400 4 00023    25146 TXH +3 00000 0 24022
                   CHNCOM.(0)                                                       174  LM00204
 25147 TSX +0 07400 4 00004    25150 TXH +3 00000 0 23736
                 E'L                                                                175  LM00205
      OPNERR     PRDIAG.                                                            176  LM00207
 25151 TSX +0 07400 4 00017
                 T'O DONE                                                           177  LM00208
 25152 TRA +0 02000 0 00047
      OUTPER     PRDIAG.                                                            178  LM00210
 25153 TSX +0 07400 4 00017
                 PRSET.(1)                                                          179  LM00211
 25154 TSX +0 07400 4 00024    25155 TXH +3 00000 0 23737
                 T'O DONE                                                           180  LM00212
 25156 TRA +0 02000 0 00047
                 V'S HEADER = $23H1DISK MAP OF I/O ERRORS, T52, 7HACCESS ,$,        181  LM00215
                1  $RC1, 11H    MODULE , RC1, T100, 3C6, 9H    PAGE , I2/$,         181  LM00216
                2  $4H0CYL, S62, 4HHEAD/S8,$,                                       181  LM00217
                3  $30H 00 01 02 03 04 05 06 07 08 09,$,                            181  LM00218
                4  $30H 10 11 12 13 14 15 16 17 18 19,$,                            181  LM00219
                5  $30H 20 21 22 23 24 25 26 27 28 29,$,                            181  LM00220
                6  $30H 30 31 32 33 34 35 36 37 38 39/*$                            181  LM00221
 00200     -2 00311 6 15460    00201     -2 00307 6 00310    00202     -2 00305 6 00306    00203     -2 00303 6 00304
 00204     -2 00301 6 00302    00205     +0 30030 6 00300    00206     -2 00211 7 36060    00207     -2 00207 6 00210
 00210     -2 00205 6 00206    00211     -2 00203 6 00204    00212     -2 00201 6 00202    00213     +0 30030 6 00200
 00214     -2 00111 7 36060    00215     -2 00107 6 00110    00216     -2 00105 6 00106    00217     -2 00103 6 00104
 00220     -2 00101 6 00102    00221     +0 30030 6 00100    00222     -2 00011 7 36060    00223     -2 00007 6 00010
 00224     -2 00005 6 00006    00225     -2 00003 6 00004    00226     -2 00001 6 00002    00227     +0 30030 6 00000
 00230     +2 46162 1 07360    00231     -2 00430 3 02521    00232     -3 36062 0 60273    00233     +0 43000 2 37043
 00234     -3 36031 0 26160    00235     -2 04721 2 72560    00236     -2 01130 6 06060    00237     -3 36003 2 30673
 00240     -3 36063 0 10000    00241     -2 07360 5 12301    00242     -0 44624 6 44325    00243     +0 13060 6 06060
 00244     -1 12301 7 36001    00245     -3 36060 6 06060    00246     +2 32325 6 26260    00247     +0 27360 0 73021
 00250     -1 16273 6 06305    00251     -0 66025 5 15146    00252     -2 04626 6 03161    00253     -2 24260 4 42147
 00254     +0 20330 0 12431
                 V'S LINE = $S1, I3, S4, 40RC3*$                                    182  LM00222
 00274     +0 40051 2 30354    00275     -3 36062 0 47360    00276     -2 20173 6 03103
                 INTERNAL FUNCTION (A, B)                                           183  LM00225
 25157 TRA +0 02000 0 25215
                 E'O ADD.                                                           184  LM00226
 25160 TRA +0 02000 0 25163    00035 TTR +0 02100 0 25161    25161 SXA +0 63400 2 25176    25162 TSX +0 07400 2 25176
                   A = A + B                                                        185  LM00227
 25163 CLA +0 50000 0 00023    25164 ADD +0 40000 0 00023    25165 STO +0 60100 0 00023
                   F'N                                                              186  LM00228
 25166 TRA +0 02000 0 25211
                 E'O REP.                                                           187  LM00229
 25167 TRA +0 02000 0 25172    00037 TTR +0 02100 0 25170    25170 SXA +0 63400 2 25176    25171 TSX +0 07400 2 25176
                   A = B                                                            188  LM00230
 25172 CLA +0 50000 0 00023    25173 STO +0 60100 0 00023
                   F'N                                                              189  LM00231
 25174 TRA +0 02000 0 25211
                 E'N                                                                190  LM00232
 25175 TSX +0 07400 4 00010    25176 TXH +3 00000 0 00000    25177 SXD -0 63400 1 25176    25200 SXA +0 63400 4 25211
 25201 CLA +0 50000 4 00001    25202 STA +0 62100 0 25163    25203 STA +0 62100 0 25165    25204 STA +0 62100 0 25173
 25205 CLA +0 50000 4 00002    25206 STA +0 62100 0 25164    25207 STA +0 62100 0 25172    25210 TRA +0 02000 2 00001
 25211 AXT +0 77400 4 00000    25212 LXA +0 53400 2 25176    25213 LXD -0 53400 1 25176    25214 TRA +0 02000 4 00001
                 INTERNAL FUNCTION (A)                                              191  LM00234
 25215 TRA +0 02000 0 25252
                 E'O FMT.                                                           192  LM00235
 25216 TRA +0 02000 0 25221    00036 TTR +0 02100 0 25217    25217 SXA +0 63400 2 25237    25220 TSX +0 07400 2 25237
                   T = BZEL.(DERBC.(A))                                             193  LM00236
 25221 TSX +0 07400 4 00007    25222 TXH +3 00000 0 00023    25223 STO +0 60100 0 25251    25224 TSX +0 07400 4 00003
 25225 TXH +3 00000 0 25251    25226 STO +0 60100 0 23735
                   W'R T .E. $     0$, T = $     .$                                 194  LM00237
 25227 CLA +0 50000 0 23735    25230 SUB +0 40200 0 24032    25231 TNZ -0 10000 0 25234    25232 CLA +0 50000 0 24033
 25233 STO +0 60100 0 23735
                   F'N T                                                            195  LM00238
 25234 CLA +0 50000 0 23735    25235 TRA +0 02000 0 25245
                 E'N                                                                196  LM00239
 25236 TSX +0 07400 4 00010    25237 TXH +3 00000 0 00000    25240 SXD -0 63400 1 25237    25241 SXA +0 63400 4 25245
 25242 CLA +0 50000 4 00001    25243 STO +0 60100 0 25222    25244 TRA +0 02000 2 00001    25245 AXT +0 77400 4 00000
 25246 LXA +0 53400 2 25237    25247 LXD -0 53400 1 25237    25250 TRA +0 02000 4 00001
                 END OF PROGRAM                                                     197  LM00241
 25252 TSX +0 07400 4 00010
1      M1416 3845  PETER R. BOS ..... READ/SCAN COMMAND FROM CONSOLE ......      04/27/70 2024.7 PAGE 1

                                     PCC     ON
                                     NOLNK
                       00003         ENTRY   RDCOM
                                     LBL     RCOM
                                     PCC     OFF

                                     EXTERN  RDFLXA,PARSE,RPARSE

                                     UNLIST


      00003                   RDCOM  SAVE    RD(X1,X2,X4,MTM) SAVE XRS AND LINKAGE
      00007  0600 00 0 00076         STZ     FLIP          RESET SWITCH
      00010  0441 00 4 00001         LDI     1,4           GET POINTER TO BUFFER
      00011  0604 00 0 00034         STI     ARY           .. SAVE
      00012 -0054 00  200000         LFT     200000        IS THIS A 'BLK'
      00013 -0054 00  100000         LFT     100000        ..
      00014  0020 00 0 00030         TRA     START         .. NO
      00015 -0625 00 0 00076         STL     FLIP          THIS IS A MAD CALL, BACKWARDS BUFFER
      00016 -0500 00 4 00001         CAL     1,4           GET ADDRESS OF LAST WORD
      00017  0737 00 1 00000         PAC     ,1            .. SAVE
      00020  0400 00 0 00077         ADD     =1            ADJUST
      00021 -0535 00 4 00034         LDC     ARY,4         POINTER TO WORD COUNT
      00022  0402 00 4 00000         SUB     0,4           COMPUTE ADDRESS OF FIRST WORD
      00023  0621 00 0 00034         STA     ARY           PUT AWAY
      00024  0737 00 2 00000         PAC     ,2            .. SAVE
      00025 -0500 00 4 00000         CAL     0,4           PICK UP WORD COUNT
      00026  0734 00 4 00000         PAX     ,4            ..
      00027 -0634 00 4 00034         SXD     ARY,4         ..

      00030  0074 00 4 00000  START  TSX     RDFLXA,4      READ INPUT LINE
      00031  3 00016 0 00060         PAR     LINE,,14      ..
      00032  0074 00 4 00001         TSX     PARSE,4       SCAN FOR BLANKS
      00033  3 00016 0 00060         PAR     LINE,,14      ..
      00034  3 00000 0 00000  ARY    PAR     -,,-          ..
      00035  3 00000 0 00054         PAR     RDMORE        .. UNFINISHED LINE RETURN
      00036 -0520 00 0 00076         NZT     FLIP          WAS THIS MAD CALL
      00037  0020 00 0 00050         TRA     RETURN        .. NO

      00040 -0500 00 1 00000  LOOP   CAL     0,1           INVERT ARRAY
      00041  0560 00 2 00000         LDQ     0,2           ..
      00042  0602 00 2 00000         SLW     0,2           ..
      00043 -0600 00 1 00000         STQ     0,1           ..
      00044  1 77777 2 00045         TXI     *+1,2,-1      INCREMENT UPPER POINTER
      00045  1 00001 1 00046         TXI     *+1,1,1       .. AND LOWER POINTER
      00046 -0634 00 1 00047         SXD     *+1,1         ..
      00047  3 00000 2 00040         TXH     LOOP,2,-      REPEAT

      00050                   RETURN RETURN  (2,4),RD(X1,X2,X4,MTM) RETURN TO CALLER

      00054  0074 00 4 00000  RDMORE TSX     RDFLXA,4      HERE FOR LINE WITH NO C.R.
      00055  3 00016 0 00060         PAR     LINE,,14      .. READ SOME MORE
      00056  0074 00 4 00002         TSX     RPARSE,4      .. AND CONTINUE SCAN
      00057  3 00016 0 00060         PAR     LINE,,14      ..
1      M1416 3845  PETER R. BOS ..... READ/SCAN COMMAND FROM CONSOLE ......      04/27/70 2024.7 PAGE 2

      00060                   LINE   BSS     14            INPUT BUFFER
      00076  0 00000 0 00000  FLIP   PZE     0

      00077                          RMT     *
                                     END

        LITERALS
      00077  000000000001
1      M1416 3845  PETER R. BOS ..... READ/SCAN COMMAND FROM CONSOLE ......      04/27/70 2024.7 PAGE 1
                        POST PROCESSOR ASSEMBLY DATA

        100 IS THE FIRST LOCATION NOT USED BY THIS PROGRAM

0REFERENCES TO DEFINED SYMBOLS
         34    ARY    11,   21,   23,   27
         76   FLIP     7,   15,   36
         60   LINE    31,   33,   55,   57
         40   LOOP    47
         50   RDX1     3
         51   RDX2     4
         52   RDX4     5
          1  PARSE    32
          3  RDCOM     0
         30  START    14
          0 RDFLXA    30,   54
         54 RDMORE    35
         50 RETURN    37
          2 RPARSE    56

0 NO ERROR IN ABOVE ASSEMBLY.
1      M1416 3845  PETER R. BOS .... PARSE, RPARSE, ENDLIN ... COMMAND SCANNER   04/27/70 2024.8 PAGE 1

                                     PCC     ON
                                     NOLNK
                       00000         ENTRY   PARSE         ENTRY TO PARSE COMMAND LINE
                       00017         ENTRY   RPARSE        REENTRY FOR LONG LINE
                       00047         ENTRY   ENDLIN        FUDGE UP CARRIAGE RETURN
                       00103         ENTRY   FLAG          NON-ZERO IF FIRST WORD PROCESSED
                                     LBL     PARS
                                     PCC     OFF

      00000  0634 00 4 00055  PARSE  SXA     PX4,4         ROUTINE TO PARSE LINE
      00001  0760 00 0 00016         LMTM                  .. NEED 4
      00002 -0500 00 0 00104         CAL     BLANKS        INITIALIZE
      00003  0602 00 0 00101         SLW     TEMP          ..
      00004 -0625 00 0 00102         STL     BLNK          ..
      00005  0600 00 0 00103         STZ     FLAG          ..
      00006 -0500 00 4 00002         CAL     2,4           PICK UP BUFFER LOCATION
      00007 -0734 00 5 00000         PDX     ,5            ..
      00010  0754 00 5 00000         PXA     ,5            ..
      00011  1 00001 5 00012         TXI     *+1,5,1       .. MAKE TNX WORK RIGHT
      00012  0361 00 4 00002         ACL     2,4           ..
      00013  0621 00 0 00070         STA     PUT           ..
      00014 -0500 00 4 00003         CAL     3,4           GET END OF LINE RETURN
      00015  0621 00 0 00046         STA     EMPTY         ..
      00016  0020 00 0 00020         TRA     *+2           .. SKIP RPARSE AXT
      00017  0774 00 5 00000  RPARSE AXT     -,5           REENTRY FOR NEW LINE
      00020  0760 00 0 00016         LMTM                  .. JUST IN CASE
      00021 -0500 00 4 00001         CAL     1,4           GET LINE LOCATION AND WORD COUNT
      00022 -0734 00 7 00000         PDX     ,7            ..
      00023  0754 00 7 00000         PXA     ,7            ..
      00024  0361 00 4 00001         ACL     1,4           ..
      00025  0621 00 0 00027         STA     GET           .. SAVE ADDRESS

      00026  0774 00 6 00006  WRD    AXT     6,6           SIX CHARACTERS PER WORD
      00027  0560 00 7 00000  GET    LDQ     -,7           PICK UP NEXT WORD TO SCAN
      00030 -0500 00 0 00101  CHR    CAL     TEMP          HERE FOR NEXT CHAR, RESTORE PREVIOUS RESULT
      00031 -0763 00 0 00006         LGL     6             SHIFT OUT A CHARACTER
      00032  0044 00 0 00000         PAI                   SAVE AC
      00033 -0320 00 0 00106         ANA     =O77          MASK THIS CHARACTER
      00034  0774 00 4 00006         AXT     NSPCHR,4      LOOK FOR IT IN TABLE OF CONTROL CHARACTERS
      00035 -0340 00 4 00101         LAS     SPCHR,4       ..
      00036  0020 00 0 00040         TRA     *+2           ..
      00037  0020 60 4 00102         TRA*    SPCHR+1,4     .. SPECIAL CHAR. FOUND, GO DO IT
      00040  2 00002 4 00035         TIX     *-3,4,2       ..
      00041  0604 00 0 00101         STI     TEMP          NORMAL CHARACTER, SAVE NEW RESULT
      00042  0600 00 0 00102         STZ     BLNK          RESET BLANK WORD INDICATOR
      00043  2 00001 6 00030  TIX    TIX     CHR,6,1       AND GO GET NEXT CHARACTER
      00044  2 00001 7 00026         TIX     WRD,7,1       OR NEXT WORD IF OUT OF CHARACTERS

      00045  0634 00 5 00017         SXA     RPARSE,5      HERE WHEN BUFFER EMPTY, SAVE X5
      00046  0020 00 0 00000  EMPTY  TRA     -             TAKE LINE EMPTY RETURN

      00047  0534 00 5 00017  ENDLIN LXA     RPARSE,5      END OF LINE W/O CARR. RET.

      00050  0074 00 4 00064  ENDIN  TSX     STWRD,4       HERE FOR CARRIAGE RETURN
      00051 -2 00001 5 00052         TNX     *+1,5,1       .. DECREMENT COUNTER
      00052 -0500 00 0 00105         CAL     FENCE         .. INSURE FENCE IS LAST ARGUMENT
1      M1416 3845  PETER R. BOS .... PARSE, RPARSE, ENDLIN ... COMMAND SCANNER   04/27/70 2024.8 PAGE 2

      00053  0522 00 0 00070         XEC     PUT           ..
      00054  2 00001 5 00053         TIX     *-1,5,1       .. FILL OUT REMAINDER OF BUFFER
      00055  0774 00 4 00000  PX4    AXT     -,4           RESTORE X4
      00056  0020 00 4 00004         TRA     4,4           RETURN NORMALLY

      00057  0074 00 4 00064  BLANK  TSX     STWRD,4       HERE FOR BLANK IN LINE, STORE CURRENT WORD
      00060 -0500 00 0 00104         CAL     BLANKS        RESET TEMPORARY WORD
      00061  0602 00 0 00101         SLW     TEMP          ..
      00062 -0625 00 0 00102         STL     BLNK          INDICATE BLANK FOUND
      00063  0020 00 0 00043         TRA     TIX           KEEP LOOKING

      00064  0520 00 0 00102  STWRD  ZET     BLNK          ROUTINE TO STORE WORD IN BUFFER
      00065  0020 00 4 00001         TRA     1,4           EXIT FOR REDUNDANT BLANKS
      00066 -2 00001 5 00065         TNX     *-1,5,1       EXIT IF BUFFER FILLED
      00067 -0500 00 0 00101         CAL     TEMP          GET THIS WORD
      00070  0602 00 5 00000  PUT    SLW     -,5           PUT IT AWAY
      00071 -0625 00 0 00103         STL     FLAG          INDICATE WORD FOUND
      00072  0020 00 4 00001         TRA     1,4           RETURN

                       00073  TSPCHR SYN     *             TABLE OF CONTROL CHARACTERS FOR PARSE
      00073 +000000000055            OCT     55            CARRIAGE RETURN
      00074  0020 00 0 00050         TRA     ENDIN         .. ENDS LINE
      00075 +000000000057            OCT     57            NULL (UNLIKELY)
      00076  0020 00 0 00043         TRA     TIX           .. IS IGNORED
      00077 +000000000060            OCT     60            BLANK
      00100  0020 00 0 00057         TRA     BLANK         .. MARKS WORD
                       00101  SPCHR  SYN     *             ..
                       00006  NSPCHR EQU     *-TSPCHR      TABLE COUNT

      00101  0 00000 0 00000  TEMP   PZE
      00102  0 00000 0 00000  BLNK   PZE
      00103  0 00000 0 00000  FLAG   PZE

      00104  606060606060     BLANKS BCI     1,
      00105 -377777777777     FENCE  OCT     777777777777

                                     END

        LITERALS
      00106  000000000077
1      M1416 3845  PETER R. BOS .... PARSE, RPARSE, ENDLIN ... COMMAND SCANNER   04/27/70 2024.8 PAGE 1
                        POST PROCESSOR ASSEMBLY DATA

        107 IS THE FIRST LOCATION NOT USED BY THIS PROGRAM

0REFERENCES TO DEFINED SYMBOLS
         30    CHR    43
         27    GET    25
         70    PUT    13,   53
         55    PX4     0
         43    TIX    63,   76
         26    WRD    44
        102   BLNK     4,   42,   62,   64
        103   FLAG     0,    5,   71
        101   TEMP     3,   30,   41,   61,   67
         57  BLANK   100
         46  EMPTY    15
         50  ENDIN    74
        105  FENCE    52
          0  PARSE     0
        101  SPCHR    35,   37,  101
         64  STWRD    50,   57
        104 BLANKS     2,   60
         47 ENDLIN     0
          6 NSPCHR    34,  101
         17 RPARSE     0,   45,   47
         73 TSPCHR    73,  101

0 NO ERROR IN ABOVE ASSEMBLY.
1            .PRINT, .COMNT, ETC.- PROCESS PRINTED OUTPUT.                       04/27/70 2024.9 PAGE 1
                           PETER R. BOS --- AUGUST 1967

                                     PCC     ON
                                     NOLNK                 DELETE LINKAGE DIRECTOR.
                       00011         ENTRY   .PRINT        PRINT FORMAT FMT,LIST.
                       00013         ENTRY   .COMNT        PRINT ON LINE FORMAT FMT, LIST.
                       00066         ENTRY   .PCOMT        PRINT COMMENT $...$.
                       00101         ENTRY   .SPRNT        PRINT WITHOUT FORMAT CONVERSION.
                       00104         ENTRY   .SCMNT        PRINT ON LINE WITHOUT FORMAT.
                       00155         ENTRY   PRFIL         DECLARE OUTPUT FILE NAME.
                       00160         ENTRY   PRSET         SET MODE OF OUTPUT (ON OR OFF LINE).
                       00212         ENTRY   PRGET         GET LAST PERMANENT MODE SETTING.
                                     LBL     (SPH)         BINARY CARD LABEL.
                                     PCC     OFF


                                             $.PRINT, PROCESS MAD PRINT FORMAT STATEMENT.


        TRANSFER VECTOR
      00000  743146303460     (IOH)
      00001  665126436721     WRFLXA
      00002  665126436760     WRFLX
      00003  222666513163     BFWRIT
      00004  222623434662     BFCLOS
      00005  222646472545     BFOPEN
      00006  222623462425     BFCODE
      00007  314625515160     IOERR
      00010  256731636060     EXIT

      00011  0600 00 0 02655  .PRINT STZ     CMT           SET INDICATOR.
      00012  0020 00 0 00014         TRA     *+2           AND SKIP .COMNT.


                                             $.COMNT, PROCESS PRINT ON LINE FORMAT STATEMENT.

      00013 -0625 00 0 02655  .COMNT STL     CMT           SET INDICATOR.

      00014 -0500 00 0 00002         CAL     2             SAVE CURRENT LOC. 2.
      00015  0602 00 0 02656         SLW     TEMP          ..
      00016 -0500 00 0 00023         CAL     TRAP          SET STR TRAP RETURN.
      00017  0602 00 0 00002         SLW     2             ..
      00020  0600 00 0 00000         STZ     0             CLEAR OUT TRAP CELL.
      00021 -0634 00 4 77740         SXD     L77740,4      SAVE XR4 FOR (IOH).
      00022  0020 00 4 00001         TRA     1,4           RETURN FOR CONTROL WORD.

      00023  0020 00 0 00024  TRAP   TRA     *+1           TRAP RETURN FOR STR.
      00024 -0500 00 0 02656         CAL     TEMP          RESTORE LOC. 2
      00025  0602 00 0 00002         SLW     2             ..
      00026  0634 00 4 00064         SXA     XR4,4         SAVE XR4.
      00027  0535 00 4 00000         LAC     0,4           GET TRAP LOCATION.
      00030 -0500 00 4 77777         CAL     -1,4          GET CONTROL WORD.
      00031 -0734 00 4 00000         PDX     0,4           TEST FOR FORMAT DIRECTION.
      00032  0560 00 0 02664         LDQ     REV           DECR=1, MAD CALL.
      00033  3 00000 4 00035         TXH     *+2,4,0       ..
      00034  0560 00 0 02663         LDQ     FWD           DECR=0, FAP CALL.
      00035  0600 00 0 77771         STZ     L77771        CLEAR SYMBOL TABLE POINTER.
1            .PRINT, .COMNT, ETC.- PROCESS PRINTED OUTPUT.                       04/27/70 2024.9 PAGE 2
                           PETER R. BOS --- AUGUST 1967

      00036 -3 00001 4 00047         TXL     FMT,4,1       TEST FOR SYMBOL TABLE.

      00037  0560 00 0 02664         LDQ     REV           SYMBOL TABLE SPECIFIED.
      00040  0600 00 0 02656         STZ     TEMP          RESET TEST CELL.
      00041  0625 00 0 02656         STT     TEMP          DIRECTION GIVEN IN TAG.
      00042 -0520 00 0 02656         NZT     TEMP          TAG=1, MAD CALL.
      00043  0560 00 0 02663         LDQ     FWD           TAG=0, FAP CALL.
      00044  0621 00 0 77771         STA     L77771        SAVE SYMBOL TABLE POINTER FOR (IOH).
      00045 -0734 00 4 00000         PDX     0,4           FORMAT POINTER TO ADDRESS.
      00046  0754 00 4 00000         PXA     0,4           ..

      00047 -0600 00 0 02656  FMT    STQ     TEMP          SAVE PARTIAL CONTROL WORD.
      00050  0774 00 4 00127         AXT     WRT,4         SET UP OUTPUT TRANSMISSION ADDRESS.
      00051 -0520 00 0 02661         NZT     SWT           TEST IF ON OR OFF LINE .PRINT.
      00052  0520 00 0 02655         ZET     CMT           TEST IF .COMNT (ON LINE).
      00053  0774 00 4 00105         AXT     PRT,4         IF ON LINE, SET FOR WRFLX.
      00054  0634 00 4 02656         SXA     TEMP,4        INSERT IN CONTROL WORD.
      00055  0560 00 0 02656         LDQ     TEMP          GET WORD.
      00056 -0600 00 0 77737         STQ     L77737        AND INSERT FOR (IOH).
      00057 -0501 00 0 02663         ORA     FWD           GET TXH PREFIX.
      00060  0621 00 0 77740         STA     L77740        FORMAT ADDRESS.
      00061  0630 00 0 77740         STP     L77740        INSERT FOR (IOH).
      00062 -0500 00 0 02665         CAL     COL           GET LINE WIDTH SPECIFICATION.
      00063  0602 00 0 77741         SLW     L77741        INSERT FOR (IOH).
      00064  0774 00 4 00000  XR4    AXT     -,4           RESTORE XR4.

      00065  0020 60 0 00000         TRA*    $(IOH)        EXIT TO (IOH) FOR CONVERSION.


                                             $.PCOMT, PROCESS PRINT COMMENT STATEMENT.

      00066 -0500 00 4 00001  .PCOMT CAL     1,4           GET WORD COUNT.
      00067  1 77776 4 00070         TXI     *+1,4,-2      SET XR4 TO (-BUFF).
      00070  0634 00 4 00077         SXA     .PCX4,4       SAVE XR4.
      00071  0636 00 4 00076         SCA     PBF,4         SAVE BUFFER ADDRESS.
      00072  0621 00 0 00100         STA     RTN           SET UP RETURN LOCATION.
      00073  0734 00 4 00000         PAX     0,4           GET WORD COUNT.
      00074 -0634 00 4 00076         SXD     PBF,4         INSERT IN CONTROL WORD.

      00075  0074 00 4 00101         TSX     .SPRNT,4      PRINT LINE.
      00076  0 00000 0 00000  PBF    PZE     -,0,-         ..

      00077  0774 00 4 00000  .PCX4  AXT     -,4           RESTORE XR4.
      00100  0020 00 4 00000  RTN    TRA     -,4           RETURN.


                                             $.SPRNT, PRINT WITHOUT FORMAT CONVERSION.

      00101 -0520 00 0 02661  .SPRNT NZT     SWT           TEST IF ON OR OFF LINE.
      00102  0020 00 0 00127         TRA     WRT           ON LINE.
      00103  0020 00 0 00105         TRA     PRT           OFF LINE.
1            .PRINT, .COMNT, ETC.- PROCESS PRINTED OUTPUT.                       04/27/70 2024.9 PAGE 3
                           PETER R. BOS --- AUGUST 1967

                                             $.SCMNT, PRINT ON LINE WITHOUT FORMAT.

      00104  0020 00 0 00105  .SCMNT TRA     PRT           ON LINE.


                                             PRT, PRINT ON LINE THROUGH WRFLX.

      00105  0634 00 4 00125  PRT    SXA     PX4,4         SAVE XR4.
      00106 -0500 00 4 00001         CAL     1,4           GET POINTER TO BUFFER.
      00107 -0734 00 4 00000         PDX     0,4           WORD COUNT.
      00110 -2 00016 4 00121         TNX     SHORT,4,N     IF LESS THAN N WORDS, SKIP.

      00111  0621 00 0 00117         STA     L1            BUFF.
      00112 -0634 00 4 00124         SXD     L2,4          WDCT-N.
      00113  0734 00 4 00000         PAX     0,4           ..
      00114  1 00016 4 00115         TXI     *+1,4,N       BUFF+N.
      00115  0634 00 4 00124         SXA     L2,4          INSERT FOR SECOND HALF.
      00116  0074 00 4 00001         TSX     $WRFLXA,4     WRITE OUT FIRST PART
      00117  0 00016 0 00000  L1     PZE     -,0,N         OF LINE ON CONSOLE.
      00120  0020 00 0 00123         TRA     *+3           SKIP.

      00121  0621 00 0 00124  SHORT  STA     L2            LESS THAN N WORDS,
      00122  0622 00 0 00124         STD     L2            SAVE POINTER.
      00123  0074 00 4 00002         TSX     $WRFLX,4      WRITE OUT LINE OR
      00124  0 00000 0 00000  L2     PZE     -,0,-         SECOND PART OF LINE.

      00125  0774 00 4 00000  PX4    AXT     -,4           RESTORE XR4.
      00126  0020 00 4 00002         TRA     2,4           RETURN TO (IOH).


                                             WRT, WRITE INTO DISK FILE FOR OFF-LINE PRINTING.

      00127  0634 00 4 00153  WRT    SXA     WX4,4         SAVE XR4.
      00130 -0500 00 4 00001         CAL     1,4           GET CONTROL WORD.
      00131  0734 00 4 00000         PAX     0,4           BUFFER ADDRESS.
      00132  1 77777 4 00133         TXI     *+1,4,-1      EXTRA WORD FOR LINE MARK.
      00133  0634 00 4 00147         SXA     WRLOC,4       INSERT FOR WRFILE.
      00134 -0734 00 4 00000         PDX     0,4           WDCT.
      00135  0754 00 4 00000         PXA     0,4           TO ADDRESS.
      00136 -0501 00 0 02670         ORA     =O777777000000 OR IN LINE MARK.
      00137  1 00001 4 00140         TXI     *+1,4,1       INCREASE WDCT FOR LINE MARK.
      00140 -0634 00 4 00147         SXD     WRLOC,4       INSERT FOR WRFILE.
      00141  0560 60 0 00147         LDQ*    WRLOC         SAVE BUFF-1.
      00142 -0600 00 0 02656         STQ     TEMP          ..
      00143  0602 60 0 00147         SLW*    WRLOC         INSERT LINE MARK IN BUFFER.

      00144  0074 00 4 00003         TSX     $BFWRIT,4     WRITE LINE ON DISK.
      00145  3 00000 0 02657         PAR     NAME1         ..
      00146  3 00000 0 02660         PAR     NAME2         ..
      00147  3 00000 0 00000  WRLOC  PAR     -,,-          ..
      00150  3 00000 0 00214         PAR     BFERR         ..

      00151 -0500 00 0 02656         CAL     TEMP          RESTORE BUFF-1.
      00152  0602 60 0 00147         SLW*    WRLOC         ..
1            .PRINT, .COMNT, ETC.- PROCESS PRINTED OUTPUT.                       04/27/70 2024.9 PAGE 4
                           PETER R. BOS --- AUGUST 1967

      00153  0774 00 4 00000  WX4    AXT     -,4           RESTORE XR4.
      00154  0020 00 4 00002         TRA     2,4           RETURN TO (IOH).


                                             $PRFIL, DECLARE OUTPUT FILE NAME.

      00155 -0500 60 4 00001  PRFIL  CAL*    1,4           GET NAME.
      00156  0602 00 0 02657         SLW     NAME1         INSERT.
      00157  0020 00 4 00002         TRA     2,4           RETURN.


                                             $PRSET, SET MODE OF OUTPUT FOR .PRINT.

      00160  0634 00 4 00210  PRSET  SXA     PRX4,4        SAVE XR4.
      00161  0500 60 4 00001         CLA*    1,4           GET CONTROL WORD.
      00162 -0120 00 0 00164         TMI     *+2           IF TEMPORARY SETTING, SKIP.
      00163  0601 00 0 02662         STO     OLDMOD        ELSE, SET FLAG.
      00164  0100 00 0 00175         TZE     OFFLIN        1 FOR ON-LINE, 0 FOR OFF-LINE.

      00165  0520 00 0 02661  ONLIN  ZET     SWT           TEST IF ALREADY SET.
      00166  0020 00 4 00002         TRA     2,4           YES, EXIT.
      00167  0074 00 4 00004         TSX     $BFCLOS,4     OTHERWISE, CLOSE OUTPUT FILE.
      00170  3 00000 0 02657         PAR     NAME1         ..
      00171  3 00000 0 02660         PAR     NAME2         ..
      00172  3 00000 0 00214         PAR     BFERR         ..
      00173 -0625 00 0 02661         STL     SWT           SET SWITCH.
      00174  0020 00 0 00210         TRA     PRX4          EXIT.

      00175 -0520 00 0 02661  OFFLIN NZT     SWT           TEST IF ALREADY SET.
      00176  0020 00 4 00002         TRA     2,4           YES, EXIT.
      00177  0074 00 4 00005         TSX     $BFOPEN,4     OTHERWISE, OPEN OUTPUT FILE.
      00200  3 00000 0 02667         PAR     =HW           ..
      00201  3 00000 0 02657         PAR     NAME1         ..
      00202  3 00000 0 02660         PAR     NAME2         ..
      00203  3 00000 0 00224         PAR     BUF1          ..
      00204  3 00000 0 01104         PAR     BUF2          ..
      00205  3 00000 0 01764         PAR     BUF3          ..
      00206  3 00000 0 00214         PAR     BFERR         ..
      00207  0600 00 0 02661         STZ     SWT           SET SWITCH.

      00210  0774 00 4 00000  PRX4   AXT     -,4           RESTORE XR4.
      00211  0020 00 4 00002         TRA     2,4           RETURN.


                                             $PRGET, FIND LAST PERMANENT MODE SETTING.

      00212 -0500 00 0 02662  PRGET  CAL     OLDMOD        GET MODE FLAG.
      00213  0020 00 4 00001         TRA     1,4           RETURN.


                                             ERROR RETURN FROM BFOPEN, ETC.

      00214  0074 00 4 00006  BFERR  TSX     $BFCODE,4     ERROR, GET CODE.
      00215  0100 60 0 00007         TZE*    $IOERR        IF FILE SYSTEM, ERROR, EXIT.
      00216  0767 00 0 00036         ALS     30            SHIFT FOR PRINTING.
1            .PRINT, .COMNT, ETC.- PROCESS PRINTED OUTPUT.                       04/27/70 2024.9 PAGE 5
                           PETER R. BOS --- AUGUST 1967

      00217 -0501 00 0 02666         ORA     =H0.          OR IN BLANKS.
      00220  0602 00 0 02654         SLW     ERR+8         INSERT IN COMMENT.
      00221  0074 00 4 00002         TSX     $WRFLX,4      PRINT ERROR COMMENT.
      00222  0 00011 0 02644         PZE     ERR,0,9       ..
      00223  0074 00 4 00010         TSX     $EXIT,4       CALL EXIT.


                                             STORAGE AND CONSTANTS.

      00224                   BUF1   BSS     432           BUFFERS FOR DISK OUTPUT.
      01104                   BUF2   BSS     432           ..
      01764                   BUF3   BSS     432           ..

      02644  746247303473     ERR    BCI     9,(SPH), ERROR RETURN FROM BFREAD PACKAGE, ERRCOD=0.
      02645  602551514651
      02646  605125636451
      02647  456026514644
      02650  602226512521
      02651  246047212342
      02652  212725736025
      02653  515123462413
      02654  003360606060

                       00026  IOHBUF EQU     22            BUFFER LENGTH FOR (IOH).
                       00016  N      EQU     14            BUFFER LENGTH FOR WRFLX.

      02655  0 00000 0 00000  CMT    PZE                   .PRINT/.COMNT SWITCH.
      02656  0 00000 0 00000  TEMP   PZE                   TEMPORARY STORAGE AND TEST CELL.

      02657  0 00000 0 00000  NAME1  PZE                   OUTPUT FILE NAME.
      02660  466463476463     NAME2  BCI     1,OUTPUT      ..

      02661  0 00000 0 00001  SWT    PZE     1             START IN ON-LINE MODE.
      02662  0 00000 0 00000  OLDMOD PZE                   PERMANENT MODE FLAG.

      02663  3 77777 0 00000  FWD    TXH     -,0,-1        USED TO CALL (IOH).
      02664  3 00001 0 00000  REV    TXH     -,0,+1        ..
      02665 -3 00204 0 00000  COL    TXL     0,0,132       ..

                       77771         COMMON  -200          ERASABLE.
                       77771  L77771 COMMON  1             ..
                       77741         COMMON  IOHBUF+1      ..
                       77741  L77741 COMMON  1             ..
                       77740  L77740 COMMON  1             ..
                       77737  L77737 COMMON  1             ..


                                     END

        LITERALS
      02666  003360606060
      02667  666060606060
      02670  777777000000
1            .PRINT, .COMNT, ETC.- PROCESS PRINTED OUTPUT.                       04/27/70 2024.9 PAGE 1
                        POST PROCESSOR ASSEMBLY DATA

       77736 IS THE LAST LOCATION NOT USED BY THIS PROGRAM
       2671 IS THE FIRST LOCATION NOT USED BY THIS PROGRAM

0REFERENCES TO DEFINED SYMBOLS
         16      N   110,  114,  117, 2655
        117     L1   111
        124     L2   112,  115,  121,  122
       2655    CMT    11,   13,   52
       2665    COL    62
       2644    ERR   220,  222
         47    FMT    36
       2663    FWD    34,   43,   57
         76    PBF    71,   74
        105    PRT    53,  103,  104
        125    PX4   105
       2664    REV    32,   37
        100    RTN    72
       2661    SWT    51,  101,  165,  173,  175,  207
        127    WRT    50,  102
        153    WX4   127
         64    XR4    26
        224   BUF1   203
       1104   BUF2   204
       1764   BUF3   205
         10   EXIT   223
        210   PRX4   160,  174
       2656   TEMP    15,   24,   40,   41,   42,   47,   54,   55,  142,  151
         23   TRAP    16
        214  BFERR   150,  172,  206
          7  IOERR   215
         77  .PCX4    70
       2657  NAME1   145,  156,  170,  201
       2660  NAME2   146,  171,  202
        165  ONLIN
        155  PRFIL     0
        212  PRGET     0
        160  PRSET     0
        121  SHORT   110
          2  WRFLX   123,  221
        147  WRLOC   133,  140,  141,  143,  152
          0  (IOH)    65
          4 BFCLOS   167
          6 BFCODE   214
          5 BFOPEN   177
          3 BFWRIT   144
         26 IOHBUF  2655, 2666
         13 .COMNT     0
         66 .PCOMT     0
         11 .PRINT     0
        104 .SCMNT     0
        101 .SPRNT     0,   75
      77737 L77737    56, 2666
      77740 L77740    21,   60,   61, 2666
      77741 L77741    63, 2666
1            .PRINT, .COMNT, ETC.- PROCESS PRINTED OUTPUT.                       04/27/70 2024.9 PAGE 2
                        POST PROCESSOR ASSEMBLY DATA

      77771 L77771    35,   44, 2666
        175 OFFLIN   164
       2662 OLDMOD   163,  212
          1 WRFLXA   116

0 NO ERROR IN ABOVE ASSEMBLY.
1      M1416 3845  PETER R. BOS ..... PROGRAM TO PROCESS FILE SYSTEM EOF .....   04/27/70 2025.1 PAGE 1


                                     PCC     ON
                                     NOLNK
                       00001         ENTRY   RDEOF
                       00017         ENTRY   WREOF
                                     LBL     EOF
                                     PCC     OFF

                                     EXTERN  WRWAIT

                                     UNLIST


      00001                   RDEOF  SAVE    ,(X4,MTM)     SAVE LINKAGE
      00003 -0500 00 4 00004         CAL     4,4           PICK UP WORD COUNT
      00004  0074 00 7 00044         TSX     BLKPAR,7      ..
      00005  0771 00 0 00022         ARS     18            ..
      00006  0734 00 7 00000         PAX     ,7            .. SAVE WORD COUNT
      00007  0361 00 4 00004         ACL     4,4           COMPUTE BOTTOM ADDRESS
      00010  0621 00 0 00014         STA     STZ           ..
      00011  0754 00 7 00000         PXA     ,7            .. RESTORE WORD COUNT
      00012  0402 60 4 00006         SUB*    6,4           .. LESS NUMBER WORDS READ
      00013  0734 00 4 00000         PAX     ,4            ..
      00014  0600 00 4 00000  STZ    STZ     -,4           CLEAR REMAINDER OF DATA AREA
      00015  2 00001 4 00014         TIX     *-1,4,1       ..
      00016  0020 00 0 00042         TRA     RETURN        RETURN


      00017                   WREOF  SAVE    ,(X4,MTM)     SAVE LINKAGE
      00021 -0500 00 4 00001         CAL     1,4           SET UP POINTERS
      00022  0621 00 0 00036         STA     WR+1          ..
      00023 -0500 00 4 00002         CAL     2,4           ..
      00024  0621 00 0 00037         STA     WR+2          ..
      00025 -0500 00 4 00004         CAL     4,4           PICK UP DATA ADDRESS
      00026  0400 60 4 00006         ADD*    6,4           PLUS WORD COUNT WRITTEN
      00027  0621 00 0 00041         STA     WR+4          ..
      00030  0074 00 7 00044         TSX     BLKPAR,7      GET WORD COUNT REQUESTED
      00031  0771 00 0 00022         ARS     18            ..
      00032  0402 60 4 00006         SUB*    6,4           LESS WORDS WRITTEN
      00033  0767 00 0 00022         ALS     18            ..
      00034  0622 00 0 00041         STD     WR+4          WORD COUNT FOR REMAINDER
      00035                   WR     CALL    WRWAIT(-,-,=0,(-,,-))  WRITE REST OF DATA

      00042                   RETURN RETURN  (7,4),,(X4,MTM) RETURN TO ORIGINAL CALLER


      00044  0044 00 0 00000  BLKPAR PAI                   ROUTINE TO CONVERT BLK TO PAR
      00045 -0054 00  200000         LFT     200000        IS BLK BIT ON
      00046 -0054 00  100000         LFT     100000        YES, IS PAR BIT OFF
      00047  0020 00 7 00001         TRA     1,7           .. NO
      00050 -0765 00 0 00022         LGR     18            POINTER TO WORD COUNT, SAVE ADDRESS
      00051  0621 00 0 00052         STA     *+1           ..
      00052 -0500 00 0 00000         CAL     -             PICK UP TRUE WORD COUNT
      00053 -0763 00 0 00022         LGL     18            SHIFT TO AC
      00054  0020 00 7 00001         TRA     1,7           RETURN
1      M1416 3845  PETER R. BOS ..... PROGRAM TO PROCESS FILE SYSTEM EOF .....   04/27/70 2025.1 PAGE 2

      00055                          RMT     *
                                     END

        LITERALS
      00055  000000000000
1      M1416 3845  PETER R. BOS ..... PROGRAM TO PROCESS FILE SYSTEM EOF .....   04/27/70 2025.1 PAGE 1
                        POST PROCESSOR ASSEMBLY DATA

         56 IS THE FIRST LOCATION NOT USED BY THIS PROGRAM

0REFERENCES TO DEFINED SYMBOLS
         35     WR    22,   24,   27,   34
         42     X4     1,   17
         14    STZ    10
          1  RDEOF     0
         17  WREOF     0
         44 BLKPAR     4,   30
         42 RETURN    16
          0 WRWAIT    35

0 NO ERROR IN ABOVE ASSEMBLY.
1       DUMMY RECOUP FOR FORMAT ERRORS                                           04/27/70 2025.2 PAGE 1

                       00005         ENTRY   RECOUP
                       00002         ENTRY   RCOUPX

        LINKAGE DIRECTOR
      00000  000000000000
      00001  512523466447

      00002 -0500 00 4 00001  RCOUPX CAL     1,4
      00003  0621 00 0 00006         STA     RECOUP+1
      00004  0020 00 4 00002         TRA     2,4
      00005  0760 00 0 00016  RECOUP LMTM                  JUST IN CASE
      00006  0020 00 0 00000         TRA     -
                                     END
1       DUMMY RECOUP FOR FORMAT ERRORS                                           04/27/70 2025.2 PAGE 1
                        POST PROCESSOR ASSEMBLY DATA

          7 IS THE FIRST LOCATION NOT USED BY THIS PROGRAM

0REFERENCES TO DEFINED SYMBOLS
          2 RCOUPX     0
          5 RECOUP     0,    3

0 NO ERROR IN ABOVE ASSEMBLY.


TRKLIB   BCD 10/12/70 1510.5    6848         00000
1      M1416 3845  PETER R. BOS ..... READ/SCAN COMMAND FROM CONSOLE ......      04/27/70 2024.7 PAGE 1

                                     PCC     ON
                                     NOLNK
                       00003         ENTRY   RDCOM
                                     LBL     RCOM
                                     PCC     OFF

                                     EXTERN  RDFLXA,PARSE,RPARSE

                                     UNLIST


      00003                   RDCOM  SAVE    RD(X1,X2,X4,MTM) SAVE XRS AND LINKAGE
      00007  0600 00 0 00076         STZ     FLIP          RESET SWITCH
      00010  0441 00 4 00001         LDI     1,4           GET POINTER TO BUFFER
      00011  0604 00 0 00034         STI     ARY           .. SAVE
      00012 -0054 00  200000         LFT     200000        IS THIS A 'BLK'
      00013 -0054 00  100000         LFT     100000        ..
      00014  0020 00 0 00030         TRA     START         .. NO
      00015 -0625 00 0 00076         STL     FLIP          THIS IS A MAD CALL, BACKWARDS BUFFER
      00016 -0500 00 4 00001         CAL     1,4           GET ADDRESS OF LAST WORD
      00017  0737 00 1 00000         PAC     ,1            .. SAVE
      00020  0400 00 0 00077         ADD     =1            ADJUST
      00021 -0535 00 4 00034         LDC     ARY,4         POINTER TO WORD COUNT
      00022  0402 00 4 00000         SUB     0,4           COMPUTE ADDRESS OF FIRST WORD
      00023  0621 00 0 00034         STA     ARY           PUT AWAY
      00024  0737 00 2 00000         PAC     ,2            .. SAVE
      00025 -0500 00 4 00000         CAL     0,4           PICK UP WORD COUNT
      00026  0734 00 4 00000         PAX     ,4            ..
      00027 -0634 00 4 00034         SXD     ARY,4         ..

      00030  0074 00 4 00000  START  TSX     RDFLXA,4      READ INPUT LINE
      00031  3 00016 0 00060         PAR     LINE,,14      ..
      00032  0074 00 4 00001         TSX     PARSE,4       SCAN FOR BLANKS
      00033  3 00016 0 00060         PAR     LINE,,14      ..
      00034  3 00000 0 00000  ARY    PAR     -,,-          ..
      00035  3 00000 0 00054         PAR     RDMORE        .. UNFINISHED LINE RETURN
      00036 -0520 00 0 00076         NZT     FLIP          WAS THIS MAD CALL
      00037  0020 00 0 00050         TRA     RETURN        .. NO

      00040 -0500 00 1 00000  LOOP   CAL     0,1           INVERT ARRAY
      00041  0560 00 2 00000         LDQ     0,2           ..
      00042  0602 00 2 00000         SLW     0,2           ..
      00043 -0600 00 1 00000         STQ     0,1           ..
      00044  1 77777 2 00045         TXI     *+1,2,-1      INCREMENT UPPER POINTER
      00045  1 00001 1 00046         TXI     *+1,1,1       .. AND LOWER POINTER
      00046 -0634 00 1 00047         SXD     *+1,1         ..
      00047  3 00000 2 00040         TXH     LOOP,2,-      REPEAT

      00050                   RETURN RETURN  (2,4),RD(X1,X2,X4,MTM) RETURN TO CALLER

      00054  0074 00 4 00000  RDMORE TSX     RDFLXA,4      HERE FOR LINE WITH NO C.R.
      00055  3 00016 0 00060         PAR     LINE,,14      .. READ SOME MORE
      00056  0074 00 4 00002         TSX     RPARSE,4      .. AND CONTINUE SCAN
      00057  3 00016 0 00060         PAR     LINE,,14      ..
1      M1416 3845  PETER R. BOS ..... READ/SCAN COMMAND FROM CONSOLE ......      04/27/70 2024.7 PAGE 2

      00060                   LINE   BSS     14            INPUT BUFFER
      00076  0 00000 0 00000  FLIP   PZE     0

      00077                          RMT     *
                                     END

        LITERALS
      00077  000000000001
1      M1416 3845  PETER R. BOS ..... READ/SCAN COMMAND FROM CONSOLE ......      04/27/70 2024.7 PAGE 1
                        POST PROCESSOR ASSEMBLY DATA

        100 IS THE FIRST LOCATION NOT USED BY THIS PROGRAM

0REFERENCES TO DEFINED SYMBOLS
         34    ARY    11,   21,   23,   27
         76   FLIP     7,   15,   36
         60   LINE    31,   33,   55,   57
         40   LOOP    47
         50   RDX1     3
         51   RDX2     4
         52   RDX4     5
          1  PARSE    32
          3  RDCOM     0
         30  START    14
          0 RDFLXA    30,   54
         54 RDMORE    35
         50 RETURN    37
          2 RPARSE    56

0 NO ERROR IN ABOVE ASSEMBLY.
1      M1416 3845  PETER R. BOS .... PARSE, RPARSE, ENDLIN ... COMMAND SCANNER   04/27/70 2024.8 PAGE 1

                                     PCC     ON
                                     NOLNK
                       00000         ENTRY   PARSE         ENTRY TO PARSE COMMAND LINE
                       00017         ENTRY   RPARSE        REENTRY FOR LONG LINE
                       00047         ENTRY   ENDLIN        FUDGE UP CARRIAGE RETURN
                       00103         ENTRY   FLAG          NON-ZERO IF FIRST WORD PROCESSED
                                     LBL     PARS
                                     PCC     OFF

      00000  0634 00 4 00055  PARSE  SXA     PX4,4         ROUTINE TO PARSE LINE
      00001  0760 00 0 00016         LMTM                  .. NEED 4
      00002 -0500 00 0 00104         CAL     BLANKS        INITIALIZE
      00003  0602 00 0 00101         SLW     TEMP          ..
      00004 -0625 00 0 00102         STL     BLNK          ..
      00005  0600 00 0 00103         STZ     FLAG          ..
      00006 -0500 00 4 00002         CAL     2,4           PICK UP BUFFER LOCATION
      00007 -0734 00 5 00000         PDX     ,5            ..
      00010  0754 00 5 00000         PXA     ,5            ..
      00011  1 00001 5 00012         TXI     *+1,5,1       .. MAKE TNX WORK RIGHT
      00012  0361 00 4 00002         ACL     2,4           ..
      00013  0621 00 0 00070         STA     PUT           ..
      00014 -0500 00 4 00003         CAL     3,4           GET END OF LINE RETURN
      00015  0621 00 0 00046         STA     EMPTY         ..
      00016  0020 00 0 00020         TRA     *+2           .. SKIP RPARSE AXT
      00017  0774 00 5 00000  RPARSE AXT     -,5           REENTRY FOR NEW LINE
      00020  0760 00 0 00016         LMTM                  .. JUST IN CASE
      00021 -0500 00 4 00001         CAL     1,4           GET LINE LOCATION AND WORD COUNT
      00022 -0734 00 7 00000         PDX     ,7            ..
      00023  0754 00 7 00000         PXA     ,7            ..
      00024  0361 00 4 00001         ACL     1,4           ..
      00025  0621 00 0 00027         STA     GET           .. SAVE ADDRESS

      00026  0774 00 6 00006  WRD    AXT     6,6           SIX CHARACTERS PER WORD
      00027  0560 00 7 00000  GET    LDQ     -,7           PICK UP NEXT WORD TO SCAN
      00030 -0500 00 0 00101  CHR    CAL     TEMP          HERE FOR NEXT CHAR, RESTORE PREVIOUS RESULT
      00031 -0763 00 0 00006         LGL     6             SHIFT OUT A CHARACTER
      00032  0044 00 0 00000         PAI                   SAVE AC
      00033 -0320 00 0 00106         ANA     =O77          MASK THIS CHARACTER
      00034  0774 00 4 00006         AXT     NSPCHR,4      LOOK FOR IT IN TABLE OF CONTROL CHARACTERS
      00035 -0340 00 4 00101         LAS     SPCHR,4       ..
      00036  0020 00 0 00040         TRA     *+2           ..
      00037  0020 60 4 00102         TRA*    SPCHR+1,4     .. SPECIAL CHAR. FOUND, GO DO IT
      00040  2 00002 4 00035         TIX     *-3,4,2       ..
      00041  0604 00 0 00101         STI     TEMP          NORMAL CHARACTER, SAVE NEW RESULT
      00042  0600 00 0 00102         STZ     BLNK          RESET BLANK WORD INDICATOR
      00043  2 00001 6 00030  TIX    TIX     CHR,6,1       AND GO GET NEXT CHARACTER
      00044  2 00001 7 00026         TIX     WRD,7,1       OR NEXT WORD IF OUT OF CHARACTERS

      00045  0634 00 5 00017         SXA     RPARSE,5      HERE WHEN BUFFER EMPTY, SAVE X5
      00046  0020 00 0 00000  EMPTY  TRA     -             TAKE LINE EMPTY RETURN

      00047  0534 00 5 00017  ENDLIN LXA     RPARSE,5      END OF LINE W/O CARR. RET.

      00050  0074 00 4 00064  ENDIN  TSX     STWRD,4       HERE FOR CARRIAGE RETURN
      00051 -2 00001 5 00052         TNX     *+1,5,1       .. DECREMENT COUNTER
      00052 -0500 00 0 00105         CAL     FENCE         .. INSURE FENCE IS LAST ARGUMENT
1      M1416 3845  PETER R. BOS .... PARSE, RPARSE, ENDLIN ... COMMAND SCANNER   04/27/70 2024.8 PAGE 2

      00053  0522 00 0 00070         XEC     PUT           ..
      00054  2 00001 5 00053         TIX     *-1,5,1       .. FILL OUT REMAINDER OF BUFFER
      00055  0774 00 4 00000  PX4    AXT     -,4           RESTORE X4
      00056  0020 00 4 00004         TRA     4,4           RETURN NORMALLY

      00057  0074 00 4 00064  BLANK  TSX     STWRD,4       HERE FOR BLANK IN LINE, STORE CURRENT WORD
      00060 -0500 00 0 00104         CAL     BLANKS        RESET TEMPORARY WORD
      00061  0602 00 0 00101         SLW     TEMP          ..
      00062 -0625 00 0 00102         STL     BLNK          INDICATE BLANK FOUND
      00063  0020 00 0 00043         TRA     TIX           KEEP LOOKING

      00064  0520 00 0 00102  STWRD  ZET     BLNK          ROUTINE TO STORE WORD IN BUFFER
      00065  0020 00 4 00001         TRA     1,4           EXIT FOR REDUNDANT BLANKS
      00066 -2 00001 5 00065         TNX     *-1,5,1       EXIT IF BUFFER FILLED
      00067 -0500 00 0 00101         CAL     TEMP          GET THIS WORD
      00070  0602 00 5 00000  PUT    SLW     -,5           PUT IT AWAY
      00071 -0625 00 0 00103         STL     FLAG          INDICATE WORD FOUND
      00072  0020 00 4 00001         TRA     1,4           RETURN

                       00073  TSPCHR SYN     *             TABLE OF CONTROL CHARACTERS FOR PARSE
      00073 +000000000055            OCT     55            CARRIAGE RETURN
      00074  0020 00 0 00050         TRA     ENDIN         .. ENDS LINE
      00075 +000000000057            OCT     57            NULL (UNLIKELY)
      00076  0020 00 0 00043         TRA     TIX           .. IS IGNORED
      00077 +000000000060            OCT     60            BLANK
      00100  0020 00 0 00057         TRA     BLANK         .. MARKS WORD
                       00101  SPCHR  SYN     *             ..
                       00006  NSPCHR EQU     *-TSPCHR      TABLE COUNT

      00101  0 00000 0 00000  TEMP   PZE
      00102  0 00000 0 00000  BLNK   PZE
      00103  0 00000 0 00000  FLAG   PZE

      00104  606060606060     BLANKS BCI     1,
      00105 -377777777777     FENCE  OCT     777777777777

                                     END

        LITERALS
      00106  000000000077
1      M1416 3845  PETER R. BOS .... PARSE, RPARSE, ENDLIN ... COMMAND SCANNER   04/27/70 2024.8 PAGE 1
                        POST PROCESSOR ASSEMBLY DATA

        107 IS THE FIRST LOCATION NOT USED BY THIS PROGRAM

0REFERENCES TO DEFINED SYMBOLS
         30    CHR    43
         27    GET    25
         70    PUT    13,   53
         55    PX4     0
         43    TIX    63,   76
         26    WRD    44
        102   BLNK     4,   42,   62,   64
        103   FLAG     0,    5,   71
        101   TEMP     3,   30,   41,   61,   67
         57  BLANK   100
         46  EMPTY    15
         50  ENDIN    74
        105  FENCE    52
          0  PARSE     0
        101  SPCHR    35,   37,  101
         64  STWRD    50,   57
        104 BLANKS     2,   60
         47 ENDLIN     0
          6 NSPCHR    34,  101
         17 RPARSE     0,   45,   47
         73 TSPCHR    73,  101

0 NO ERROR IN ABOVE ASSEMBLY.
1            .PRINT, .COMNT, ETC.- PROCESS PRINTED OUTPUT.                       04/27/70 2024.9 PAGE 1
                           PETER R. BOS --- AUGUST 1967

                                     PCC     ON
                                     NOLNK                 DELETE LINKAGE DIRECTOR.
                       00011         ENTRY   .PRINT        PRINT FORMAT FMT,LIST.
                       00013         ENTRY   .COMNT        PRINT ON LINE FORMAT FMT, LIST.
                       00066         ENTRY   .PCOMT        PRINT COMMENT $...$.
                       00101         ENTRY   .SPRNT        PRINT WITHOUT FORMAT CONVERSION.
                       00104         ENTRY   .SCMNT        PRINT ON LINE WITHOUT FORMAT.
                       00155         ENTRY   PRFIL         DECLARE OUTPUT FILE NAME.
                       00160         ENTRY   PRSET         SET MODE OF OUTPUT (ON OR OFF LINE).
                       00212         ENTRY   PRGET         GET LAST PERMANENT MODE SETTING.
                                     LBL     (SPH)         BINARY CARD LABEL.
                                     PCC     OFF


                                             $.PRINT, PROCESS MAD PRINT FORMAT STATEMENT.


        TRANSFER VECTOR
      00000  743146303460     (IOH)
      00001  665126436721     WRFLXA
      00002  665126436760     WRFLX
      00003  222666513163     BFWRIT
      00004  222623434662     BFCLOS
      00005  222646472545     BFOPEN
      00006  222623462425     BFCODE
      00007  314625515160     IOERR
      00010  256731636060     EXIT

      00011  0600 00 0 02655  .PRINT STZ     CMT           SET INDICATOR.
      00012  0020 00 0 00014         TRA     *+2           AND SKIP .COMNT.


                                             $.COMNT, PROCESS PRINT ON LINE FORMAT STATEMENT.

      00013 -0625 00 0 02655  .COMNT STL     CMT           SET INDICATOR.

      00014 -0500 00 0 00002         CAL     2             SAVE CURRENT LOC. 2.
      00015  0602 00 0 02656         SLW     TEMP          ..
      00016 -0500 00 0 00023         CAL     TRAP          SET STR TRAP RETURN.
      00017  0602 00 0 00002         SLW     2             ..
      00020  0600 00 0 00000         STZ     0             CLEAR OUT TRAP CELL.
      00021 -0634 00 4 77740         SXD     L77740,4      SAVE XR4 FOR (IOH).
      00022  0020 00 4 00001         TRA     1,4           RETURN FOR CONTROL WORD.

      00023  0020 00 0 00024  TRAP   TRA     *+1           TRAP RETURN FOR STR.
      00024 -0500 00 0 02656         CAL     TEMP          RESTORE LOC. 2
      00025  0602 00 0 00002         SLW     2             ..
      00026  0634 00 4 00064         SXA     XR4,4         SAVE XR4.
      00027  0535 00 4 00000         LAC     0,4           GET TRAP LOCATION.
      00030 -0500 00 4 77777         CAL     -1,4          GET CONTROL WORD.
      00031 -0734 00 4 00000         PDX     0,4           TEST FOR FORMAT DIRECTION.
      00032  0560 00 0 02664         LDQ     REV           DECR=1, MAD CALL.
      00033  3 00000 4 00035         TXH     *+2,4,0       ..
      00034  0560 00 0 02663         LDQ     FWD           DECR=0, FAP CALL.
      00035  0600 00 0 77771         STZ     L77771        CLEAR SYMBOL TABLE POINTER.
1            .PRINT, .COMNT, ETC.- PROCESS PRINTED OUTPUT.                       04/27/70 2024.9 PAGE 2
                           PETER R. BOS --- AUGUST 1967

      00036 -3 00001 4 00047         TXL     FMT,4,1       TEST FOR SYMBOL TABLE.

      00037  0560 00 0 02664         LDQ     REV           SYMBOL TABLE SPECIFIED.
      00040  0600 00 0 02656         STZ     TEMP          RESET TEST CELL.
      00041  0625 00 0 02656         STT     TEMP          DIRECTION GIVEN IN TAG.
      00042 -0520 00 0 02656         NZT     TEMP          TAG=1, MAD CALL.
      00043  0560 00 0 02663         LDQ     FWD           TAG=0, FAP CALL.
      00044  0621 00 0 77771         STA     L77771        SAVE SYMBOL TABLE POINTER FOR (IOH).
      00045 -0734 00 4 00000         PDX     0,4           FORMAT POINTER TO ADDRESS.
      00046  0754 00 4 00000         PXA     0,4           ..

      00047 -0600 00 0 02656  FMT    STQ     TEMP          SAVE PARTIAL CONTROL WORD.
      00050  0774 00 4 00127         AXT     WRT,4         SET UP OUTPUT TRANSMISSION ADDRESS.
      00051 -0520 00 0 02661         NZT     SWT           TEST IF ON OR OFF LINE .PRINT.
      00052  0520 00 0 02655         ZET     CMT           TEST IF .COMNT (ON LINE).
      00053  0774 00 4 00105         AXT     PRT,4         IF ON LINE, SET FOR WRFLX.
      00054  0634 00 4 02656         SXA     TEMP,4        INSERT IN CONTROL WORD.
      00055  0560 00 0 02656         LDQ     TEMP          GET WORD.
      00056 -0600 00 0 77737         STQ     L77737        AND INSERT FOR (IOH).
      00057 -0501 00 0 02663         ORA     FWD           GET TXH PREFIX.
      00060  0621 00 0 77740         STA     L77740        FORMAT ADDRESS.
      00061  0630 00 0 77740         STP     L77740        INSERT FOR (IOH).
      00062 -0500 00 0 02665         CAL     COL           GET LINE WIDTH SPECIFICATION.
      00063  0602 00 0 77741         SLW     L77741        INSERT FOR (IOH).
      00064  0774 00 4 00000  XR4    AXT     -,4           RESTORE XR4.

      00065  0020 60 0 00000         TRA*    $(IOH)        EXIT TO (IOH) FOR CONVERSION.


                                             $.PCOMT, PROCESS PRINT COMMENT STATEMENT.

      00066 -0500 00 4 00001  .PCOMT CAL     1,4           GET WORD COUNT.
      00067  1 77776 4 00070         TXI     *+1,4,-2      SET XR4 TO (-BUFF).
      00070  0634 00 4 00077         SXA     .PCX4,4       SAVE XR4.
      00071  0636 00 4 00076         SCA     PBF,4         SAVE BUFFER ADDRESS.
      00072  0621 00 0 00100         STA     RTN           SET UP RETURN LOCATION.
      00073  0734 00 4 00000         PAX     0,4           GET WORD COUNT.
      00074 -0634 00 4 00076         SXD     PBF,4         INSERT IN CONTROL WORD.

      00075  0074 00 4 00101         TSX     .SPRNT,4      PRINT LINE.
      00076  0 00000 0 00000  PBF    PZE     -,0,-         ..

      00077  0774 00 4 00000  .PCX4  AXT     -,4           RESTORE XR4.
      00100  0020 00 4 00000  RTN    TRA     -,4           RETURN.


                                             $.SPRNT, PRINT WITHOUT FORMAT CONVERSION.

      00101 -0520 00 0 02661  .SPRNT NZT     SWT           TEST IF ON OR OFF LINE.
      00102  0020 00 0 00127         TRA     WRT           ON LINE.
      00103  0020 00 0 00105         TRA     PRT           OFF LINE.
1            .PRINT, .COMNT, ETC.- PROCESS PRINTED OUTPUT.                       04/27/70 2024.9 PAGE 3
                           PETER R. BOS --- AUGUST 1967

                                             $.SCMNT, PRINT ON LINE WITHOUT FORMAT.

      00104  0020 00 0 00105  .SCMNT TRA     PRT           ON LINE.


                                             PRT, PRINT ON LINE THROUGH WRFLX.

      00105  0634 00 4 00125  PRT    SXA     PX4,4         SAVE XR4.
      00106 -0500 00 4 00001         CAL     1,4           GET POINTER TO BUFFER.
      00107 -0734 00 4 00000         PDX     0,4           WORD COUNT.
      00110 -2 00016 4 00121         TNX     SHORT,4,N     IF LESS THAN N WORDS, SKIP.

      00111  0621 00 0 00117         STA     L1            BUFF.
      00112 -0634 00 4 00124         SXD     L2,4          WDCT-N.
      00113  0734 00 4 00000         PAX     0,4           ..
      00114  1 00016 4 00115         TXI     *+1,4,N       BUFF+N.
      00115  0634 00 4 00124         SXA     L2,4          INSERT FOR SECOND HALF.
      00116  0074 00 4 00001         TSX     $WRFLXA,4     WRITE OUT FIRST PART
      00117  0 00016 0 00000  L1     PZE     -,0,N         OF LINE ON CONSOLE.
      00120  0020 00 0 00123         TRA     *+3           SKIP.

      00121  0621 00 0 00124  SHORT  STA     L2            LESS THAN N WORDS,
      00122  0622 00 0 00124         STD     L2            SAVE POINTER.
      00123  0074 00 4 00002         TSX     $WRFLX,4      WRITE OUT LINE OR
      00124  0 00000 0 00000  L2     PZE     -,0,-         SECOND PART OF LINE.

      00125  0774 00 4 00000  PX4    AXT     -,4           RESTORE XR4.
      00126  0020 00 4 00002         TRA     2,4           RETURN TO (IOH).


                                             WRT, WRITE INTO DISK FILE FOR OFF-LINE PRINTING.

      00127  0634 00 4 00153  WRT    SXA     WX4,4         SAVE XR4.
      00130 -0500 00 4 00001         CAL     1,4           GET CONTROL WORD.
      00131  0734 00 4 00000         PAX     0,4           BUFFER ADDRESS.
      00132  1 77777 4 00133         TXI     *+1,4,-1      EXTRA WORD FOR LINE MARK.
      00133  0634 00 4 00147         SXA     WRLOC,4       INSERT FOR WRFILE.
      00134 -0734 00 4 00000         PDX     0,4           WDCT.
      00135  0754 00 4 00000         PXA     0,4           TO ADDRESS.
      00136 -0501 00 0 02670         ORA     =O777777000000 OR IN LINE MARK.
      00137  1 00001 4 00140         TXI     *+1,4,1       INCREASE WDCT FOR LINE MARK.
      00140 -0634 00 4 00147         SXD     WRLOC,4       INSERT FOR WRFILE.
      00141  0560 60 0 00147         LDQ*    WRLOC         SAVE BUFF-1.
      00142 -0600 00 0 02656         STQ     TEMP          ..
      00143  0602 60 0 00147         SLW*    WRLOC         INSERT LINE MARK IN BUFFER.

      00144  0074 00 4 00003         TSX     $BFWRIT,4     WRITE LINE ON DISK.
      00145  3 00000 0 02657         PAR     NAME1         ..
      00146  3 00000 0 02660         PAR     NAME2         ..
      00147  3 00000 0 00000  WRLOC  PAR     -,,-          ..
      00150  3 00000 0 00214         PAR     BFERR         ..

      00151 -0500 00 0 02656         CAL     TEMP          RESTORE BUFF-1.
      00152  0602 60 0 00147         SLW*    WRLOC         ..
1            .PRINT, .COMNT, ETC.- PROCESS PRINTED OUTPUT.                       04/27/70 2024.9 PAGE 4
                           PETER R. BOS --- AUGUST 1967

      00153  0774 00 4 00000  WX4    AXT     -,4           RESTORE XR4.
      00154  0020 00 4 00002         TRA     2,4           RETURN TO (IOH).


                                             $PRFIL, DECLARE OUTPUT FILE NAME.

      00155 -0500 60 4 00001  PRFIL  CAL*    1,4           GET NAME.
      00156  0602 00 0 02657         SLW     NAME1         INSERT.
      00157  0020 00 4 00002         TRA     2,4           RETURN.


                                             $PRSET, SET MODE OF OUTPUT FOR .PRINT.

      00160  0634 00 4 00210  PRSET  SXA     PRX4,4        SAVE XR4.
      00161  0500 60 4 00001         CLA*    1,4           GET CONTROL WORD.
      00162 -0120 00 0 00164         TMI     *+2           IF TEMPORARY SETTING, SKIP.
      00163  0601 00 0 02662         STO     OLDMOD        ELSE, SET FLAG.
      00164  0100 00 0 00175         TZE     OFFLIN        1 FOR ON-LINE, 0 FOR OFF-LINE.

      00165  0520 00 0 02661  ONLIN  ZET     SWT           TEST IF ALREADY SET.
      00166  0020 00 4 00002         TRA     2,4           YES, EXIT.
      00167  0074 00 4 00004         TSX     $BFCLOS,4     OTHERWISE, CLOSE OUTPUT FILE.
      00170  3 00000 0 02657         PAR     NAME1         ..
      00171  3 00000 0 02660         PAR     NAME2         ..
      00172  3 00000 0 00214         PAR     BFERR         ..
      00173 -0625 00 0 02661         STL     SWT           SET SWITCH.
      00174  0020 00 0 00210         TRA     PRX4          EXIT.

      00175 -0520 00 0 02661  OFFLIN NZT     SWT           TEST IF ALREADY SET.
      00176  0020 00 4 00002         TRA     2,4           YES, EXIT.
      00177  0074 00 4 00005         TSX     $BFOPEN,4     OTHERWISE, OPEN OUTPUT FILE.
      00200  3 00000 0 02667         PAR     =HW           ..
      00201  3 00000 0 02657         PAR     NAME1         ..
      00202  3 00000 0 02660         PAR     NAME2         ..
      00203  3 00000 0 00224         PAR     BUF1          ..
      00204  3 00000 0 01104         PAR     BUF2          ..
      00205  3 00000 0 01764         PAR     BUF3          ..
      00206  3 00000 0 00214         PAR     BFERR         ..
      00207  0600 00 0 02661         STZ     SWT           SET SWITCH.

      00210  0774 00 4 00000  PRX4   AXT     -,4           RESTORE XR4.
      00211  0020 00 4 00002         TRA     2,4           RETURN.


                                             $PRGET, FIND LAST PERMANENT MODE SETTING.

      00212 -0500 00 0 02662  PRGET  CAL     OLDMOD        GET MODE FLAG.
      00213  0020 00 4 00001         TRA     1,4           RETURN.


                                             ERROR RETURN FROM BFOPEN, ETC.

      00214  0074 00 4 00006  BFERR  TSX     $BFCODE,4     ERROR, GET CODE.
      00215  0100 60 0 00007         TZE*    $IOERR        IF FILE SYSTEM, ERROR, EXIT.
      00216  0767 00 0 00036         ALS     30            SHIFT FOR PRINTING.
1            .PRINT, .COMNT, ETC.- PROCESS PRINTED OUTPUT.                       04/27/70 2024.9 PAGE 5
                           PETER R. BOS --- AUGUST 1967

      00217 -0501 00 0 02666         ORA     =H0.          OR IN BLANKS.
      00220  0602 00 0 02654         SLW     ERR+8         INSERT IN COMMENT.
      00221  0074 00 4 00002         TSX     $WRFLX,4      PRINT ERROR COMMENT.
      00222  0 00011 0 02644         PZE     ERR,0,9       ..
      00223  0074 00 4 00010         TSX     $EXIT,4       CALL EXIT.


                                             STORAGE AND CONSTANTS.

      00224                   BUF1   BSS     432           BUFFERS FOR DISK OUTPUT.
      01104                   BUF2   BSS     432           ..
      01764                   BUF3   BSS     432           ..

      02644  746247303473     ERR    BCI     9,(SPH), ERROR RETURN FROM BFREAD PACKAGE, ERRCOD=0.
      02645  602551514651
      02646  605125636451
      02647  456026514644
      02650  602226512521
      02651  246047212342
      02652  212725736025
      02653  515123462413
      02654  003360606060

                       00026  IOHBUF EQU     22            BUFFER LENGTH FOR (IOH).
                       00016  N      EQU     14            BUFFER LENGTH FOR WRFLX.

      02655  0 00000 0 00000  CMT    PZE                   .PRINT/.COMNT SWITCH.
      02656  0 00000 0 00000  TEMP   PZE                   TEMPORARY STORAGE AND TEST CELL.

      02657  0 00000 0 00000  NAME1  PZE                   OUTPUT FILE NAME.
      02660  466463476463     NAME2  BCI     1,OUTPUT      ..

      02661  0 00000 0 00001  SWT    PZE     1             START IN ON-LINE MODE.
      02662  0 00000 0 00000  OLDMOD PZE                   PERMANENT MODE FLAG.

      02663  3 77777 0 00000  FWD    TXH     -,0,-1        USED TO CALL (IOH).
      02664  3 00001 0 00000  REV    TXH     -,0,+1        ..
      02665 -3 00204 0 00000  COL    TXL     0,0,132       ..

                       77771         COMMON  -200          ERASABLE.
                       77771  L77771 COMMON  1             ..
                       77741         COMMON  IOHBUF+1      ..
                       77741  L77741 COMMON  1             ..
                       77740  L77740 COMMON  1             ..
                       77737  L77737 COMMON  1             ..


                                     END

        LITERALS
      02666  003360606060
      02667  666060606060
      02670  777777000000
1            .PRINT, .COMNT, ETC.- PROCESS PRINTED OUTPUT.                       04/27/70 2024.9 PAGE 1
                        POST PROCESSOR ASSEMBLY DATA

       77736 IS THE LAST LOCATION NOT USED BY THIS PROGRAM
       2671 IS THE FIRST LOCATION NOT USED BY THIS PROGRAM

0REFERENCES TO DEFINED SYMBOLS
         16      N   110,  114,  117, 2655
        117     L1   111
        124     L2   112,  115,  121,  122
       2655    CMT    11,   13,   52
       2665    COL    62
       2644    ERR   220,  222
         47    FMT    36
       2663    FWD    34,   43,   57
         76    PBF    71,   74
        105    PRT    53,  103,  104
        125    PX4   105
       2664    REV    32,   37
        100    RTN    72
       2661    SWT    51,  101,  165,  173,  175,  207
        127    WRT    50,  102
        153    WX4   127
         64    XR4    26
        224   BUF1   203
       1104   BUF2   204
       1764   BUF3   205
         10   EXIT   223
        210   PRX4   160,  174
       2656   TEMP    15,   24,   40,   41,   42,   47,   54,   55,  142,  151
         23   TRAP    16
        214  BFERR   150,  172,  206
          7  IOERR   215
         77  .PCX4    70
       2657  NAME1   145,  156,  170,  201
       2660  NAME2   146,  171,  202
        165  ONLIN
        155  PRFIL     0
        212  PRGET     0
        160  PRSET     0
        121  SHORT   110
          2  WRFLX   123,  221
        147  WRLOC   133,  140,  141,  143,  152
          0  (IOH)    65
          4 BFCLOS   167
          6 BFCODE   214
          5 BFOPEN   177
          3 BFWRIT   144
         26 IOHBUF  2655, 2666
         13 .COMNT     0
         66 .PCOMT     0
         11 .PRINT     0
        104 .SCMNT     0
        101 .SPRNT     0,   75
      77737 L77737    56, 2666
      77740 L77740    21,   60,   61, 2666
      77741 L77741    63, 2666
1            .PRINT, .COMNT, ETC.- PROCESS PRINTED OUTPUT.                       04/27/70 2024.9 PAGE 2
                        POST PROCESSOR ASSEMBLY DATA

      77771 L77771    35,   44, 2666
        175 OFFLIN   164
       2662 OLDMOD   163,  212
          1 WRFLXA   116

0 NO ERROR IN ABOVE ASSEMBLY.
1      M1416 3845  PETER R. BOS ..... PROGRAM TO PROCESS FILE SYSTEM EOF .....   04/27/70 2025.1 PAGE 1


                                     PCC     ON
                                     NOLNK
                       00001         ENTRY   RDEOF
                       00017         ENTRY   WREOF
                                     LBL     EOF
                                     PCC     OFF

                                     EXTERN  WRWAIT

                                     UNLIST


      00001                   RDEOF  SAVE    ,(X4,MTM)     SAVE LINKAGE
      00003 -0500 00 4 00004         CAL     4,4           PICK UP WORD COUNT
      00004  0074 00 7 00044         TSX     BLKPAR,7      ..
      00005  0771 00 0 00022         ARS     18            ..
      00006  0734 00 7 00000         PAX     ,7            .. SAVE WORD COUNT
      00007  0361 00 4 00004         ACL     4,4           COMPUTE BOTTOM ADDRESS
      00010  0621 00 0 00014         STA     STZ           ..
      00011  0754 00 7 00000         PXA     ,7            .. RESTORE WORD COUNT
      00012  0402 60 4 00006         SUB*    6,4           .. LESS NUMBER WORDS READ
      00013  0734 00 4 00000         PAX     ,4            ..
      00014  0600 00 4 00000  STZ    STZ     -,4           CLEAR REMAINDER OF DATA AREA
      00015  2 00001 4 00014         TIX     *-1,4,1       ..
      00016  0020 00 0 00042         TRA     RETURN        RETURN


      00017                   WREOF  SAVE    ,(X4,MTM)     SAVE LINKAGE
      00021 -0500 00 4 00001         CAL     1,4           SET UP POINTERS
      00022  0621 00 0 00036         STA     WR+1          ..
      00023 -0500 00 4 00002         CAL     2,4           ..
      00024  0621 00 0 00037         STA     WR+2          ..
      00025 -0500 00 4 00004         CAL     4,4           PICK UP DATA ADDRESS
      00026  0400 60 4 00006         ADD*    6,4           PLUS WORD COUNT WRITTEN
      00027  0621 00 0 00041         STA     WR+4          ..
      00030  0074 00 7 00044         TSX     BLKPAR,7      GET WORD COUNT REQUESTED
      00031  0771 00 0 00022         ARS     18            ..
      00032  0402 60 4 00006         SUB*    6,4           LESS WORDS WRITTEN
      00033  0767 00 0 00022         ALS     18            ..
      00034  0622 00 0 00041         STD     WR+4          WORD COUNT FOR REMAINDER
      00035                   WR     CALL    WRWAIT(-,-,=0,(-,,-))  WRITE REST OF DATA

      00042                   RETURN RETURN  (7,4),,(X4,MTM) RETURN TO ORIGINAL CALLER


      00044  0044 00 0 00000  BLKPAR PAI                   ROUTINE TO CONVERT BLK TO PAR
      00045 -0054 00  200000         LFT     200000        IS BLK BIT ON
      00046 -0054 00  100000         LFT     100000        YES, IS PAR BIT OFF
      00047  0020 00 7 00001         TRA     1,7           .. NO
      00050 -0765 00 0 00022         LGR     18            POINTER TO WORD COUNT, SAVE ADDRESS
      00051  0621 00 0 00052         STA     *+1           ..
      00052 -0500 00 0 00000         CAL     -             PICK UP TRUE WORD COUNT
      00053 -0763 00 0 00022         LGL     18            SHIFT TO AC
      00054  0020 00 7 00001         TRA     1,7           RETURN
1      M1416 3845  PETER R. BOS ..... PROGRAM TO PROCESS FILE SYSTEM EOF .....   04/27/70 2025.1 PAGE 2

      00055                          RMT     *
                                     END

        LITERALS
      00055  000000000000
1      M1416 3845  PETER R. BOS ..... PROGRAM TO PROCESS FILE SYSTEM EOF .....   04/27/70 2025.1 PAGE 1
                        POST PROCESSOR ASSEMBLY DATA

         56 IS THE FIRST LOCATION NOT USED BY THIS PROGRAM

0REFERENCES TO DEFINED SYMBOLS
         35     WR    22,   24,   27,   34
         42     X4     1,   17
         14    STZ    10
          1  RDEOF     0
         17  WREOF     0
         44 BLKPAR     4,   30
         42 RETURN    16
          0 WRWAIT    35

0 NO ERROR IN ABOVE ASSEMBLY.
1       DUMMY RECOUP FOR FORMAT ERRORS                                           04/27/70 2025.2 PAGE 1

                       00005         ENTRY   RECOUP
                       00002         ENTRY   RCOUPX

        LINKAGE DIRECTOR
      00000  000000000000
      00001  512523466447

      00002 -0500 00 4 00001  RCOUPX CAL     1,4
      00003  0621 00 0 00006         STA     RECOUP+1
      00004  0020 00 4 00002         TRA     2,4
      00005  0760 00 0 00016  RECOUP LMTM                  JUST IN CASE
      00006  0020 00 0 00000         TRA     -
                                     END
1       DUMMY RECOUP FOR FORMAT ERRORS                                           04/27/70 2025.2 PAGE 1
                        POST PROCESSOR ASSEMBLY DATA

          7 IS THE FIRST LOCATION NOT USED BY THIS PROGRAM

0REFERENCES TO DEFINED SYMBOLS
          2 RCOUPX     0
          5 RECOUP     0,    3

0 NO ERROR IN ABOVE ASSEMBLY.


TRACKS   BCD 10/12/70 1510.5    8735         00000
1     MAD PROGRAM LISTING ... ... ...                 FILE       T   MAD            02/25/69    1954.1
-
                  NORMAL MODE IS INTEGER                                                          *001 LM00001
                  BOOLEAN NEW,NEW1                                                                *002 LM00002
                  DIMENSION ME(2),STATUS(7),B(431)                                                *003 LM00003
                  VECTOR VALUES R=$R$                                                             *004 LM00004
                  VECTOR VALUES RW=$RW$                                                           *005 LM00005
                  VECTOR VALUES FENCE=777777777777K                                               *006 LM00006
                  VECTOR VALUES SP=605757575757K                                                  *007 LM00007
                  VECTOR VALUES IS=603162605757K                                                  *008 LM00008
                                                                                                       LM00009
                  N=1                                                                             *009 LM00010
                  ATTNAM.(ME(2)...3)                                                              *010 LM00011
                  RCOMBT=COMLOC.($RCOMBT$,AARGH)                                                  *011 LM00012
                  RCALBT=COMLOC.($RCALBT$,AARGH)                                                  *012 LM00013
                  RPRVBT=COMLOC.($RPRVBT$,AARGH)                                                  *013 LM00014
                  UPRCBT=COMLOC.($UPRCBT$,AARGH).LS.18                                            *014 LM00015
                  GETCF.(COMFIL)                                                                  *015 LM00016
                  RCODE=GLOC.(COMLOC.($URCODE$,AARGH))                                            *016 LM00017
                  SETBRK.(OUT)                                                                    *017 LM00018
                  NEW=0B                                                                          *018 LM00019
                  NEW1=1B                                                                         *019 LM00020
                                                                                                       LM00021
      LOOP        WHENEVER COMARG.(N,N1).E.FENCE                                                  *020 LM00022
                       WHENEVER NEW.OR.NEW1                                                       *021 LM00023
      DOUFD                 N1=$U.F.D.$                                                           *022 LM00024
                            N2=$(FILE)$                                                           *023 LM00025
                            N=N-2                                                                 *024 LM00026
                            TRANSFER TO CHECK                                                     *025 LM00027
                       END OF CONDITIONAL                                                         *026 LM00028
      OUT              WHENEVER RCODE.A.RCOMBT.NE.0, COMFL.(COMFIL.A.77K)                         *027 LM00029
                       WHENEVER RCODE.A.RCALBT.NE.0, ATTACH.(ME(2),ME(1),OUTERR)                  *028 LM00030
                       CHNCOM.(0)                                                                 *029 LM00031
                                                                                                       LM00032
                  OR WHENEVER N1.A.777777770077K.E.$(CFL0)$                                       *030 LM00033
                       WHENEVER NEW, TRANSFER TO DOUFD                                            *031 LM00034
                       WHENEVER RCODE.A.RCOMBT.E.0, TRANSFER TO NOPRIV                            *032 LM00035
                       COMFL.((N1.RS.6).A.77K)                                                    *033 LM00036
                       N=N+1                                                                      *034 LM00037
                       NEW=1B                                                                     *035 LM00038
                                                                                                       LM00039
                  OR WHENEVER N1.E.$ (ATT)$                                                       *036 LM00040
                       WHENEVER NEW, TRANSFER TO DOUFD                                            *037 LM00041
                       WHENEVER RCODE.A.RCALBT.E.0, TRANSFER TO NOPRIV                            *038 LM00042
                       WHENEVER COMARG.(N+1,N1).E.FENCE.OR.COMARG.(N+2,N2)                        *039 LM00043
                1           .E.FENCE, TRANSFER TO ILFRMT                                          *039 LM00044
                       N1=REPROB.(N1)                                                             *040 LM00045
                       ATTACH.(N1,N2,ATTERR)                                                      *041 LM00046
                       N=N+3                                                                      *042 LM00047
                       NEW=1B                                                                     *043 LM00048
                                                                                                       LM00049
                  OTHERWISE                                                                       *044 LM00050
                       WHENEVER COMARG.(N+1,N2).E.FENCE, TRANSFER TO ILFRMT                       *045 LM00051
      CHECK            NEW1=0B                                                                    *046 LM00052
                       NEW=0B                                                                     *047 LM00053
                       FSTATE.(N1,N2,STATUS(7)...8,FSERR)                                         *048 LM00054
                                                                                                       LM00055
                       WHENEVER STATUS(6).A.202K.NE.0.OR.(STATUS(6).A.20K.NE.0.AND.               *049 LM00056
                1           ME(0).NE.STATUS(0).A.777777K.AND.RCODE.A.RPRVBT.E.                    *049 LM00057
                2           0).OR.(STATUS(6).A.10K.NE.0.AND.RCODE.A.UPRCBT.E.0)                   *049 LM00058
      BADMOD                PRMESS.(N1,SP,N2,IS,OCRBC.(STATUS(6)).V.                              *050 LM00059
                1                575757000000K,$ MODE.$)                                          *050 LM00060
                                                                                                       LM00061
                       OTHERWISE                                                                  *051 LM00062
                            WHENEVER STATUS(6).A.1K.E.0                                           *052 LM00063
                                 STATUS=R                                                         *053 LM00064
                            OTHERWISE                                                             *054 LM00065
                                 WHENEVER STATUS(6).A.4K.NE.0.AND.RCODE.A.                        *055 LM00066
                1                     UPRCBT.E.0, TRANSFER TO BADMOD                              *055 LM00067
                                 STATUS=RW                                                        *056 LM00068
                            END OF CONDITIONAL                                                    *057 LM00069
                            WHENEVER N1.E.$U.F.D.$.AND.N2.E.$(FILE)$, UPDATE.                     *058 LM00070
                            OPEN.(STATUS,N1,N2,-0,-0,IOERR)                                       *059 LM00071
                            NEWFIL.(N1,N2,OOPS)                                                   *060 LM00072
                                                                                                       LM00073
      TLOOP                 RDWAIT.(N1,N2,0,B(431)...432,EOF,TEMP,IOERR)                          *061 LM00074
                            TEMP=TRACKS.(0)                                                       *062 LM00075
                            PRMESS.(TEMP)                                                         *063 LM00076
                            TRANSFER TO TLOOP                                                     *064 LM00077
                                                                                                       LM00078
      EOF                   WHENEVER TEMP.NE.0                                                    *065 LM00079
                                 TEMP=TRACKS.(0)                                                  *066 LM00080
                                 PRMESS.(TEMP)                                                    *067 LM00081
                            END OF CONDITIONAL                                                    *068 LM00082
                            CLOSE.(N1,N2,IOERR)                                                   *069 LM00083
                       END OF CONDITIONAL                                                         *070 LM00084
      FSRTN            PRMESS.($*$)                                                               *071 LM00085
                       N=N+2                                                                      *072 LM00086
                  END OF CONDITIONAL                                                              *073 LM00087
                  TRANSFER TO LOOP                                                                *074 LM00088
                                                                                                       LM00089
      AARGH       PRMESS.($ERROR IN COMLOC$)                                                      *075 LM00090
                  TRANSFER TO OUT                                                                 *076 LM00091
                                                                                                       LM00092
      OUTERR      PRNTER.(375K)                                                                   *077 LM00093
                  CHNCOM.(0)                                                                      *078 LM00094
                                                                                                       LM00095
      NOPRIV      PRMESS.($INSUFFICIENT PRIVILEGES$)                                              *079 LM00096
                  TRANSFER TO OUT                                                                 *080 LM00097
                                                                                                       LM00098
      ILFRMT      PRMESS.($NOT ENOUGH ARGUMENTS$)                                                 *081 LM00099
                  TRANSFER TO OUT                                                                 *082 LM00100
                                                                                                       LM00101
      ATTERR      PRNTER.(375K)                                                                   *083 LM00102
                  TRANSFER TO OUT                                                                 *084 LM00103
                                                                                                       LM00104
      FSERR       PRNTER.(61K)                                                                    *085 LM00105
                  TRANSFER TO FSRTN                                                               *086 LM00106
                                                                                                       LM00107
      IOERR       PRNTER.(375K)                                                                   *087 LM00108
                  TEMP=TRACKS.(0)                                                                 *088 LM00109
                  PRMESS.(TEMP)                                                                   *089 LM00110
                  CLOSE.(N1,N2,FSRTN)                                                             *090 LM00111
                  TRANSFER TO FSRTN                                                               *091 LM00112
                                                                                                       LM00113
      OOPS        PRMESS.(N1,SP,N2,$ NOT FOUND IN AFST$)                                          *092 LM00114
                  CLOSE.(N1,N2,IOERR)                                                             *093 LM00115
                  TRANSFER TO FSRTN                                                               *094 LM00116
                                                                                                       LM00117
                  END OF PROGRAM                                                                  *095 LM00118
1MAD PROGRAM,TYPE NOV 1963      (ALL NUMBERS ARE OCTAL)
0TOTAL LOCATIONS   01603 TRANSFER VECTOR LENGTH  00026 PROGRAM BEGINS    01036
0VARIABLE STORAGE (A=ARRAY,C=COMMON,E=ERASABLE,DIGIT=MODE)
      AARGH  00027   4        FENCE  00730 A 1        ME     00734 A 1        OOPS   00043   4        R      00746 A 1
      ATTERR 00030   4        FSERR  00035   4        N1     00735   1        OUTERR 00044   4        RW     00747 A 1
      BADMOD 00031   4        FSRTN  00036   4        N2     00736   1        OUT    00045   4        SP     00750 A 1
      B      00726 A 1        ILFRMT 00037   4        NEW1   00737   2        RCALBT 00742   1        STATUS 00760 A 1
      CHECK  00032   4        IOERR  00040   4        NEW    00740   2        RCODE  00743   1        TEMP   00761   1
      COMFIL 00727   1        IS     00731 A 1        NOPRIV 00042   4        RCOMBT 00744   1        TLOOP  00046   4
      DOUFD  00033   4        LOOP   00041   4        N      00741   1        RPRVBT 00745   1        UPRCBT 00762   1
      EOF    00034   4
0FUNCTION DICTIONARY
      ATTACH 00000   1        ATTNAM 00001   1        CHNCOM 00002   1        CLOSE  00003   1        COMARG 00004   1
      COMFL  00005   1        COMLOC 00006   1        EXIT   00007   1        FSTATE 00010   1        GETCF  00011   1
      GLOC   00012   1        .SETUP 00013   1        NEWFIL 00014   1        OCRBC  00015   1        OPEN   00016   1
      PRMESS 00017   1        PRNTER 00020   1        RDWAIT 00021   1        REPROB 00022   1        SETBRK 00023   1
      TRACKS 00024   1        UPDATE 00025   1
0ABSOLUTE CONSTANTS
 01012 -056021266263     01014 -066445246031     01024 -204546636026     00774 +000000000061     01027 -236260606060
 01017 -112764442545     01013 -066427306021     01011 -054663602545     01007 -032527256260     01025 -204751316531
 01004 +312331254563     01006 +314562642626     00777 +000000000375     01010 -034623606060     01005 +314560234644
 01003 +255151465160     01021 -146060606060     01000 +000000000660     00767 +000000000004     01023 -204446242533
 01022 -175757000000     00776 +000000000202     00772 +000000000020     01001 +000000777777     00771 +000000000010
 01026 -207421636334     00770 +000000000006     01033 -342326430034     01035 -377777770077     00775 +000000000077
 00765 +000000000002     01034 -342631432534     01030 -243326332433     00763 +000000000000     01032 -245123462425
 00773 +000000000022     01031 -244751232263     01020 -114751652263     01015 -112321432263     01016 -112346442263
 00766 +000000000003     00764 +000000000001     01002 +233000000000
0STATEMENT DICTIONARY
 00027 TXL -301517001513       00030 TXL -301542001540       00031 TXL -301374001357       00032 TXL -301304001302
 00033 TXL -301122001120       00034 TXL -301474001471       00035 TXL -301545001543       00036 TXL -301507001505
 00037 TXL -301537001532       00040 TXL -301550001546       00041 TXL -301114001107       00042 TXL -301531001524
 00043 TXL -301571001562       00044 TXL -301522001520       00045 TXL -301143001130       00046 TXL -301463001453
0PROGRAM
                 N'R                                                                001  LM00001
                 BOOLEAN NEW,NEW1                                                   002  LM00002
                 D'N ME(2),STATUS(7),B(431)                                         003  LM00003
                 V'S R=$R$                                                          004  LM00004
 01036 TSX +0 07400 4 00013    00746     -1 16060 6 06060
                 V'S RW=$RW$                                                        005  LM00005
 00747     -1 16660 6 06060
                 V'S FENCE=777777777777K                                            006  LM00006
 00730     -3 77777 7 77777
                 V'S SP=605757575757K                                               007  LM00007
 00750     -2 05757 5 75757
                 V'S IS=603162605757K                                               008  LM00008
 00731     -2 03162 6 05757
                 N=1                                                                009  LM00010
 01037 CLA +0 50000 0 00764    01040 STO +0 60100 0 00741
                 ATTNAM.(ME(2)...3)                                                 010  LM00011
 01041 TSX +0 07400 4 00001    01042 TIX +2 00766 0 00732
                 RCOMBT=COMLOC.($RCOMBT$,AARGH)                                     011  LM00012
 01043 TSX +0 07400 4 00006    01044 TXH +3 00000 0 01016    01045 TXH +3 00000 0 00027    01046 STO +0 60100 0 00744
                 RCALBT=COMLOC.($RCALBT$,AARGH)                                     012  LM00013
 01047 TSX +0 07400 4 00006    01050 TXH +3 00000 0 01015    01051 TXH +3 00000 0 00027    01052 STO +0 60100 0 00742
                 RPRVBT=COMLOC.($RPRVBT$,AARGH)                                     013  LM00014
 01053 TSX +0 07400 4 00006    01054 TXH +3 00000 0 01020    01055 TXH +3 00000 0 00027    01056 STO +0 60100 0 00745
                 UPRCBT=COMLOC.($UPRCBT$,AARGH).LS.18                               014  LM00015
 01057 TSX +0 07400 4 00006    01060 TXH +3 00000 0 01031    01061 TXH +3 00000 0 00027    01062 STO +0 60100 0 01577
 01063 CAL -0 50000 0 00773    01064 STA +0 62100 0 01066    01065 CAL -0 50000 0 01577    01066 ALS +0 76700 0 00000
 01067 SLW +0 60200 0 00762
                 GETCF.(COMFIL)                                                     015  LM00016
 01070 TSX +0 07400 4 00011    01071 TXH +3 00000 0 00727
                 RCODE=GLOC.(COMLOC.($URCODE$,AARGH))                               016  LM00017
 01072 TSX +0 07400 4 00006    01073 TXH +3 00000 0 01032    01074 TXH +3 00000 0 00027    01075 STO +0 60100 0 01577
 01076 TSX +0 07400 4 00012    01077 TXH +3 00000 0 01577    01100 STO +0 60100 0 00743
                 SETBRK.(OUT)                                                       017  LM00018
 01101 TSX +0 07400 4 00023    01102 TXH +3 00000 0 00045
                 NEW=0B                                                             018  LM00019
 01103 CLA +0 50000 0 00763    01104 STO +0 60100 0 00740
                 NEW1=1B                                                            019  LM00020
 01105 CLA +0 50000 0 00764    01106 STO +0 60100 0 00737
      LOOP       W'R COMARG.(N,N1).E.FENCE                                          020  LM00022
 01107 TSX +0 07400 4 00004    01110 TXH +3 00000 0 00741    01111 TXH +3 00000 0 00735    01112 SUB +0 40200 0 00730
 01113 TNZ -0 10000 0 01160
                      W'R NEW.OR.NEW1                                               021  LM00023
 01114 ZET +0 52000 0 00737    01115 TRA +0 02000 0 01120    01116 NZT -0 52000 0 00740    01117 TRA +0 02000 0 01130
      DOUFD                N1=$U.F.D.$                                              022  LM00024
 01120 CLA +0 50000 0 01030    01121 STO +0 60100 0 00735
                           N2=$(FILE)$                                              023  LM00025
 01122 CLA +0 50000 0 01034    01123 STO +0 60100 0 00736
                           N=N-2                                                    024  LM00026
 01124 CLA +0 50000 0 00741    01125 SUB +0 40200 0 00765    01126 STO +0 60100 0 00741
                           T'O CHECK                                                025  LM00027
 01127 TRA +0 02000 0 00032
                      E'L                                                           026  LM00028
      OUT             W'R RCODE.A.RCOMBT.NE.0, COMFL.(COMFIL.A.77K)                 027  LM00029
 01130 CAL -0 50000 0 00743    01131 ANA -0 32000 0 00744    01132 SLW +0 60200 0 01577    01133 CLA +0 50000 0 01577
 01134 SUB +0 40200 0 00763    01135 TZE +0 10000 0 01143    01136 CAL -0 50000 0 00727    01137 ANA -0 32000 0 00775
 01140 SLW +0 60200 0 01577    01141 TSX +0 07400 4 00005    01142 TXH +3 00000 0 01577
                      W'R RCODE.A.RCALBT.NE.0, ATTACH.(ME(2),ME(1),OUTERR)          028  LM00030
 01143 CAL -0 50000 0 00743    01144 ANA -0 32000 0 00742    01145 SLW +0 60200 0 01577    01146 CLA +0 50000 0 01577
 01147 SUB +0 40200 0 00763    01150 TZE +0 10000 0 01155    01151 TSX +0 07400 4 00000    01152 TXH +3 00000 0 00732
 01153 TXH +3 00000 0 00733    01154 TXH +3 00000 0 00044
                      CHNCOM.(0)                                                    029  LM00031
 01155 TSX +0 07400 4 00002    01156 TXH +3 00000 0 00763
                 O'R N1.A.777777770077K.E.$(CFL0)$                                  030  LM00033
 01157 TRA +0 02000 0 01512    01160 CAL -0 50000 0 00735    01161 ANA -0 32000 0 01035    01162 SLW +0 60200 0 01577
 01163 CLA +0 50000 0 01577    01164 SUB +0 40200 0 01033    01165 TNZ -0 10000 0 01216
                      W'R NEW, T'O DOUFD                                            031  LM00034
 01166 NZT -0 52000 0 00740    01167 TRA +0 02000 0 01171    01170 TRA +0 02000 0 00033
                      W'R RCODE.A.RCOMBT.E.0, T'O NOPRIV                            032  LM00035
 01171 CAL -0 50000 0 00743    01172 ANA -0 32000 0 00744    01173 SLW +0 60200 0 01577    01174 CLA +0 50000 0 01577
 01175 SUB +0 40200 0 00763    01176 TNZ -0 10000 0 01200    01177 TRA +0 02000 0 00042
                      COMFL.((N1.RS.6).A.77K)                                       033  LM00036
 01200 CAL -0 50000 0 00770    01201 STA +0 62100 0 01203    01202 CAL -0 50000 0 00735    01203 LGR -0 76500 0 00000
 01204 ANA -0 32000 0 00775    01205 SLW +0 60200 0 01577    01206 TSX +0 07400 4 00005    01207 TXH +3 00000 0 01577
                      N=N+1                                                         034  LM00037
 01210 CLA +0 50000 0 00741    01211 ADD +0 40000 0 00764    01212 STO +0 60100 0 00741
                      NEW=1B                                                        035  LM00038
 01213 CLA +0 50000 0 00764    01214 STO +0 60100 0 00740
                 O'R N1.E.$ (ATT)$                                                  036  LM00040
 01215 TRA +0 02000 0 01512    01216 CLA +0 50000 0 00735    01217 SUB +0 40200 0 01026    01220 TNZ -0 10000 0 01271
                      W'R NEW, T'O DOUFD                                            037  LM00041
 01221 NZT -0 52000 0 00740    01222 TRA +0 02000 0 01224    01223 TRA +0 02000 0 00033
                      W'R RCODE.A.RCALBT.E.0, T'O NOPRIV                            038  LM00042
 01224 CAL -0 50000 0 00743    01225 ANA -0 32000 0 00742    01226 SLW +0 60200 0 01577    01227 CLA +0 50000 0 01577
 01230 SUB +0 40200 0 00763    01231 TNZ -0 10000 0 01233    01232 TRA +0 02000 0 00042
                      W'R COMARG.(N+1,N1).E.FENCE.OR.COMARG.(N+2,N2)                039  LM00043
                1          .E.FENCE, T'O ILFRMT                                     039  LM00044
 01233 CLA +0 50000 0 00741    01234 ADD +0 40000 0 00765    01235 STO +0 60100 0 01577    01236 TSX +0 07400 4 00004
 01237 TXH +3 00000 0 01577    01240 TXH +3 00000 0 00736    01241 SUB +0 40200 0 00730    01242 TZE +0 10000 0 01253
 01243 CLA +0 50000 0 00741    01244 ADD +0 40000 0 00764    01245 STO +0 60100 0 01577    01246 TSX +0 07400 4 00004
 01247 TXH +3 00000 0 01577    01250 TXH +3 00000 0 00735    01251 SUB +0 40200 0 00730    01252 TNZ -0 10000 0 01254
 01253 TRA +0 02000 0 00037
                      N1=REPROB.(N1)                                                040  LM00045
 01254 TSX +0 07400 4 00022    01255 TXH +3 00000 0 00735    01256 STO +0 60100 0 00735
                      ATTACH.(N1,N2,ATTERR)                                         041  LM00046
 01257 TSX +0 07400 4 00000    01260 TXH +3 00000 0 00735    01261 TXH +3 00000 0 00736    01262 TXH +3 00000 0 00030
                      N=N+3                                                         042  LM00047
 01263 CLA +0 50000 0 00741    01264 ADD +0 40000 0 00766    01265 STO +0 60100 0 00741
                      NEW=1B                                                        043  LM00048
 01266 CLA +0 50000 0 00764    01267 STO +0 60100 0 00740
                 O'E                                                                044  LM00050
 01270 TRA +0 02000 0 01512
                      W'R COMARG.(N+1,N2).E.FENCE, T'O ILFRMT                       045  LM00051
 01271 CLA +0 50000 0 00741    01272 ADD +0 40000 0 00764    01273 STO +0 60100 0 01577    01274 TSX +0 07400 4 00004
 01275 TXH +3 00000 0 01577    01276 TXH +3 00000 0 00736    01277 SUB +0 40200 0 00730    01300 TNZ -0 10000 0 01302
 01301 TRA +0 02000 0 00037
      CHECK           NEW1=0B                                                       046  LM00052
 01302 CLA +0 50000 0 00763    01303 STO +0 60100 0 00737
                      NEW=0B                                                        047  LM00053
 01304 CLA +0 50000 0 00763    01305 STO +0 60100 0 00740
                      FSTATE.(N1,N2,STATUS(7)...8,FSERR)                            048  LM00054
 01306 TSX +0 07400 4 00010    01307 TXH +3 00000 0 00735    01310 TXH +3 00000 0 00736    01311 TIX +2 00771 0 00751
 01312 TXH +3 00000 0 00035
                      W'R STATUS(6).A.202K.NE.0.OR.(STATUS(6).A.20K.NE.0.AND.       049  LM00056
                1          ME(0).NE.STATUS(0).A.777777K.AND.RCODE.A.RPRVBT.E.       049  LM00057
                2          0).OR.(STATUS(6).A.10K.NE.0.AND.RCODE.A.UPRCBT.E.0)      049  LM00058
 01313 CAL -0 50000 0 00743    01314 ANA -0 32000 0 00762    01315 SLW +0 60200 0 01577    01316 CLA +0 50000 0 01577
 01317 SUB +0 40200 0 00763    01320 TNZ -0 10000 0 01327    01321 CAL -0 50000 0 00752    01322 ANA -0 32000 0 00771
 01323 SLW +0 60200 0 01577    01324 CLA +0 50000 0 01577    01325 SUB +0 40200 0 00763    01326 TNZ -0 10000 0 01357
 01327 CAL -0 50000 0 00743    01330 ANA -0 32000 0 00745    01331 SLW +0 60200 0 01577    01332 CLA +0 50000 0 01577
 01333 SUB +0 40200 0 00763    01334 TNZ -0 10000 0 01351    01335 CAL -0 50000 0 00760    01336 ANA -0 32000 0 01001
 01337 SLW +0 60200 0 01577    01340 CLA +0 50000 0 00734    01341 SUB +0 40200 0 01577    01342 TZE +0 10000 0 01351
 01343 CAL -0 50000 0 00752    01344 ANA -0 32000 0 00772    01345 SLW +0 60200 0 01577    01346 CLA +0 50000 0 01577
 01347 SUB +0 40200 0 00763    01350 TNZ -0 10000 0 01357    01351 CAL -0 50000 0 00752    01352 ANA -0 32000 0 00776
 01353 SLW +0 60200 0 01577    01354 CLA +0 50000 0 01577    01355 SUB +0 40200 0 00763    01356 TZE +0 10000 0 01375
      BADMOD               PRMESS.(N1,SP,N2,IS,OCRBC.(STATUS(6)).V.                 050  LM00059
                1               575757000000K,$ MODE.$)                             050  LM00060
 01357 TSX +0 07400 4 00015    01360 TXH +3 00000 0 00752    01361 STO +0 60100 0 01577    01362 CAL -0 50000 0 01577
 01363 ORA -0 50100 0 01022    01364 SLW +0 60200 0 01577    01365 TSX +0 07400 4 00017    01366 TXH +3 00000 0 00735
 01367 TXH +3 00000 0 00750    01370 TXH +3 00000 0 00736    01371 TXH +3 00000 0 00731    01372 TXH +3 00000 0 01577
 01373 TXH +3 00000 0 01023
                      O'E                                                           051  LM00062
 01374 TRA +0 02000 0 01505
                           W'R STATUS(6).A.1K.E.0                                   052  LM00063
 01375 CAL -0 50000 0 00752    01376 ANA -0 32000 0 00764    01377 SLW +0 60200 0 01577    01400 CLA +0 50000 0 01577
 01401 SUB +0 40200 0 00763    01402 TNZ -0 10000 0 01406
                                STATUS=R                                            053  LM00064
 01403 CLA +0 50000 0 00746    01404 STO +0 60100 0 00760
                           O'E                                                      054  LM00065
 01405 TRA +0 02000 0 01425
                                W'R STATUS(6).A.4K.NE.0.AND.RCODE.A.                055  LM00066
                1                    UPRCBT.E.0, T'O BADMOD                         055  LM00067
 01406 CAL -0 50000 0 00743    01407 ANA -0 32000 0 00762    01410 SLW +0 60200 0 01577    01411 CLA +0 50000 0 01577
 01412 SUB +0 40200 0 00763    01413 TNZ -0 10000 0 01423    01414 CAL -0 50000 0 00752    01415 ANA -0 32000 0 00767
 01416 SLW +0 60200 0 01577    01417 CLA +0 50000 0 01577    01420 SUB +0 40200 0 00763    01421 TZE +0 10000 0 01423
 01422 TRA +0 02000 0 00031
                                STATUS=RW                                           056  LM00068
 01423 CLA +0 50000 0 00747    01424 STO +0 60100 0 00760
                           E'L                                                      057  LM00069
                           W'R N1.E.$U.F.D.$.AND.N2.E.$(FILE)$, UPDATE.             058  LM00070
 01425 CLA +0 50000 0 00736    01426 SUB +0 40200 0 01034    01427 TNZ -0 10000 0 01434    01430 CLA +0 50000 0 00735
 01431 SUB +0 40200 0 01030    01432 TNZ -0 10000 0 01434    01433 TSX +0 07400 4 00025
                           OPEN.(STATUS,N1,N2,-0,-0,IOERR)                          059  LM00071
 01434 CLS +0 50200 0 00763    01435 STO +0 60100 0 01577    01436 CLS +0 50200 0 00763    01437 STO +0 60100 0 01600
 01440 TSX +0 07400 4 00016    01441 TXH +3 00000 0 00760    01442 TXH +3 00000 0 00735    01443 TXH +3 00000 0 00736
 01444 TXH +3 00000 0 01600    01445 TXH +3 00000 0 01577    01446 TXH +3 00000 0 00040
                           NEWFIL.(N1,N2,OOPS)                                      060  LM00072
 01447 TSX +0 07400 4 00014    01450 TXH +3 00000 0 00735    01451 TXH +3 00000 0 00736    01452 TXH +3 00000 0 00043
      TLOOP                RDWAIT.(N1,N2,0,B(431)...432,EOF,TEMP,IOERR)             061  LM00074
 01453 TSX +0 07400 4 00021    01454 TXH +3 00000 0 00735    01455 TXH +3 00000 0 00736    01456 TXH +3 00000 0 00763
 01457 TIX +2 01000 0 00047    01460 TXH +3 00000 0 00034    01461 TXH +3 00000 0 00761    01462 TXH +3 00000 0 00040
                           TEMP=TRACKS.(0)                                          062  LM00075
 01463 TSX +0 07400 4 00024    01464 TXH +3 00000 0 00763    01465 STO +0 60100 0 00761
                           PRMESS.(TEMP)                                            063  LM00076
 01466 TSX +0 07400 4 00017    01467 TXH +3 00000 0 00761
                           T'O TLOOP                                                064  LM00077
 01470 TRA +0 02000 0 00046
      EOF                  W'R TEMP.NE.0                                            065  LM00079
 01471 CLA +0 50000 0 00761    01472 SUB +0 40200 0 00763    01473 TZE +0 10000 0 01501
                                TEMP=TRACKS.(0)                                     066  LM00080
 01474 TSX +0 07400 4 00024    01475 TXH +3 00000 0 00763    01476 STO +0 60100 0 00761
                                PRMESS.(TEMP)                                       067  LM00081
 01477 TSX +0 07400 4 00017    01500 TXH +3 00000 0 00761
                           E'L                                                      068  LM00082
                           CLOSE.(N1,N2,IOERR)                                      069  LM00083
 01501 TSX +0 07400 4 00003    01502 TXH +3 00000 0 00735    01503 TXH +3 00000 0 00736    01504 TXH +3 00000 0 00040
                      E'L                                                           070  LM00084
      FSRTN           PRMESS.($*$)                                                  071  LM00085
 01505 TSX +0 07400 4 00017    01506 TXH +3 00000 0 01021
                      N=N+2                                                         072  LM00086
 01507 CLA +0 50000 0 00741    01510 ADD +0 40000 0 00765    01511 STO +0 60100 0 00741
                 E'L                                                                073  LM00087
                 T'O LOOP                                                           074  LM00088
 01512 TRA +0 02000 0 00041
      AARGH      PRMESS.($ERROR IN COMLOC$)                                         075  LM00090
 01513 TSX +0 07400 4 00017    01514 TXH +3 00000 0 01003    01515 TXH +3 00000 0 01005    01516 TXH +3 00000 0 01010
                 T'O OUT                                                            076  LM00091
 01517 TRA +0 02000 0 00045
      OUTERR     PRNTER.(375K)                                                      077  LM00093
 01520 TSX +0 07400 4 00020    01521 TXH +3 00000 0 00777
                 CHNCOM.(0)                                                         078  LM00094
 01522 TSX +0 07400 4 00002    01523 TXH +3 00000 0 00763
      NOPRIV     PRMESS.($INSUFFICIENT PRIVILEGES$)                                 079  LM00096
 01524 TSX +0 07400 4 00017    01525 TXH +3 00000 0 01006    01526 TXH +3 00000 0 01004    01527 TXH +3 00000 0 01025
 01530 TXH +3 00000 0 01007
                 T'O OUT                                                            080  LM00097
 01531 TRA +0 02000 0 00045
      ILFRMT     PRMESS.($NOT ENOUGH ARGUMENTS$)                                    081  LM00099
 01532 TSX +0 07400 4 00017    01533 TXH +3 00000 0 01011    01534 TXH +3 00000 0 01013    01535 TXH +3 00000 0 01017
 01536 TXH +3 00000 0 01027
                 T'O OUT                                                            082  LM00100
 01537 TRA +0 02000 0 00045
      ATTERR     PRNTER.(375K)                                                      083  LM00102
 01540 TSX +0 07400 4 00020    01541 TXH +3 00000 0 00777
                 T'O OUT                                                            084  LM00103
 01542 TRA +0 02000 0 00045
      FSERR      PRNTER.(61K)                                                       085  LM00105
 01543 TSX +0 07400 4 00020    01544 TXH +3 00000 0 00774
                 T'O FSRTN                                                          086  LM00106
 01545 TRA +0 02000 0 00036
      IOERR      PRNTER.(375K)                                                      087  LM00108
 01546 TSX +0 07400 4 00020    01547 TXH +3 00000 0 00777
                 TEMP=TRACKS.(0)                                                    088  LM00109
 01550 TSX +0 07400 4 00024    01551 TXH +3 00000 0 00763    01552 STO +0 60100 0 00761
                 PRMESS.(TEMP)                                                      089  LM00110
 01553 TSX +0 07400 4 00017    01554 TXH +3 00000 0 00761
                 CLOSE.(N1,N2,FSRTN)                                                090  LM00111
 01555 TSX +0 07400 4 00003    01556 TXH +3 00000 0 00735    01557 TXH +3 00000 0 00736    01560 TXH +3 00000 0 00036
                 T'O FSRTN                                                          091  LM00112
 01561 TRA +0 02000 0 00036
      OOPS       PRMESS.(N1,SP,N2,$ NOT FOUND IN AFST$)                             092  LM00114
 01562 TSX +0 07400 4 00017    01563 TXH +3 00000 0 00735    01564 TXH +3 00000 0 00750    01565 TXH +3 00000 0 00736
 01566 TXH +3 00000 0 01024    01567 TXH +3 00000 0 01014    01570 TXH +3 00000 0 01012
                 CLOSE.(N1,N2,IOERR)                                                093  LM00115
 01571 TSX +0 07400 4 00003    01572 TXH +3 00000 0 00735    01573 TXH +3 00000 0 00736    01574 TXH +3 00000 0 00040
                 T'O FSRTN                                                          094  LM00116
 01575 TRA +0 02000 0 00036
                 E'M                                                                095  LM00118
 01576 TSX +0 07400 4 00007
1     FAP ASSEMBLY LISTING  ...  ...  ...        FILE TRACKS _____FAP___         02/25/69 1954.7 PAGE 1

                       00007         ENTRY   NEWFIL
                       00110         ENTRY   TRACKS
                       00105         ENTRY   SETRKS
                       00123         ENTRY   TRKS

                                     EXTERN  ATTNAM,ATTACH
                                     EXTERN  COMLOC
                                     EXTERN  GETLOC,DELBC


        TRANSFER VECTOR
      00000  216363452144     ATTNAM
      00001  216363212330     ATTACH
      00002  234644434623     COMLOC
      00003  272563434623     GETLOC
      00004  242543222360     DELBC

            LINKAGE DIRECTOR
      00005  000000000000
      00006  452566263143

      00007  0634 00 4 00101  NEWFIL SXA     XR4,4

      00010  0020 00 0 00011  GATE   TRA     *+1
      00011  0074 00 4 00000         TSX     ATTNAM,4
      00012  3 00002 0 00127         PTH     N1,,2
      00013  0074 00 4 00002         TSX     COMLOC,4
      00014  3 00000 0 00136         PTH     =HACTFIL
      00015  3 00000 0 00103         PTH     OOPS
      00016  0621 00 0 00040         STA     ACTFIL
      00017  0074 00 4 00002         TSX     COMLOC,4
      00020  3 00000 0 00137         PTH     =HAFSTU2
      00021  3 00000 0 00103         PTH     OOPS
      00022  0400 00 0 00131         ADD     AFSCON
      00023  0621 00 0 00041         STA     BASE
      00024  0074 00 4 00001         TSX     ATTACH,4
      00025  3 00000 0 00127         PTH     N1
      00026  3 00000 0 00130         PTH     N2
      00027  3 00000 0 00030         PTH     *+1
      00030  0534 00 4 00101         LXA     XR4,4
      00031 -0625 00 0 00010         STL     GATE

      00032 -0500 60 4 00001         CAL*    1,4
      00033  0602 00 0 00127         SLW     N1
      00034 -0500 60 4 00002         CAL*    2,4
      00035  0602 00 0 00130         SLW     N2
      00036  0634 00 1 00077         SXA     XR1,1
      00037  0634 00 2 00100         SXA     XR2,2
      00040  0774 00 1 00000  ACTFIL AXT     **,1
      00041 -0774 00 2 00000  BASE   AXC     **,2

      00042  0756 00 2 00000  FNDLOP PCA     ,2
      00043  0400 00 0 00132         ADD     RPROBN
      00044  0621 00 0 00046         STA     *+2
      00045  0074 00 4 00003         TSX     GETLOC,4
      00046  0 00000 0 00000                 **
1     FAP ASSEMBLY LISTING  ...  ...  ...        FILE TRACKS _____FAP___         02/25/69 1954.7 PAGE 2

      00047  0100 00 0 00066         TZE     FNDNXT
      00050  0756 00 2 00000         PCA     ,2
      00051  0400 00 0 00133         ADD     RNAME1
      00052  0621 00 0 00054         STA     *+2
      00053  0074 00 4 00003         TSX     GETLOC,4
      00054  0 00000 0 00000                 **
      00055  0322 00 0 00127         ERA     N1
      00056 -0100 00 0 00066         TNZ     FNDNXT
      00057  0756 00 2 00000         PCA     ,2
      00060  0400 00 0 00134         ADD     RNAME2
      00061  0621 00 0 00063         STA     *+2
      00062  0074 00 4 00003         TSX     GETLOC,4
      00063  0 00000 0 00000                 **
      00064  0322 00 0 00130         ERA     N2
      00065  0100 00 0 00074         TZE     FOUND
      00066  1 77752 2 00067  FNDNXT TXI     *+1,2,-AFSENL
      00067  2 00001 1 00042         TIX     FNDLOP,1,1
      00070  0534 00 1 00077         LXA     XR1,1
      00071  0534 00 2 00100         LXA     XR2,2
      00072  0534 00 4 00101         LXA     XR4,4
      00073  0020 60 4 00003         TRA*    3,4

      00074  0756 00 2 00000  FOUND  PCA     ,2
      00075  0400 00 0 00135         ADD     SMTMP2
      00076  0621 00 0 00112         STA     TRKADR
      00077  0774 00 1 00000  XR1    AXT     **,1
      00100  0774 00 2 00000  XR2    AXT     **,2
      00101  0774 00 4 00000  XR4    AXT     **,4
      00102  0020 00 4 00004         TRA     4,4

      00103  0534 00 4 00101  OOPS   LXA     XR4,4
      00104  0020 60 4 00003         TRA*    3,4

      00105 -0500 00 0 00112  SETRKS CAL     TRKADR
      00106  0621 00 0 00125         STA     TRKAD1
      00107  0020 00 4 00001         TRA     1,4

      00110  0634 00 4 00121  TRACKS SXA     TX4,4
      00111  0074 00 4 00003         TSX     GETLOC,4
      00112  0 00000 0 00000  TRKADR         **
      00113  0602 00 0 00127         SLW     N1
      00114  0074 00 4 00004         TSX     DELBC,4
      00115  3 00000 0 00127         PTH     N1
      00116  0131 00 0 00000         XCA
      00117 -0773 00 0 00006         RQL     6
      00120 -0130 00 0 00000         XCL
      00121  0774 00 4 00000  TX4    AXT     **,4
      00122  0020 00 4 00001         TRA     1,4

      00123  0634 00 4 00121  TRKS   SXA     TX4,4
      00124  0074 00 4 00003         TSX     GETLOC,4
      00125  0 00000 0 00000  TRKAD1         **
      00126  0020 00 0 00113         TRA     TRKADR+1
1     FAP ASSEMBLY LISTING  ...  ...  ...        FILE TRACKS _____FAP___         02/25/69 1954.7 PAGE 3

      00127  0 00000 0 00000  N1
      00130  0 00000 0 00000  N2

      00131  0 00000 0 00025  AFSCON PZE     21
      00132  0 00000 0 00000  RPROBN PZE     0
      00133  0 00000 0 00002  RNAME1 PZE     2
      00134  0 00000 0 00003  RNAME2 PZE     3
      00135  0 00000 0 00025  SMTMP2 PZE     21

                       00026  AFSENL EQU     22

                                     END

        LITERALS
      00136  212363263143
      00137  212662636402
1     FAP ASSEMBLY LISTING  ...  ...  ...        FILE TRACKS _____FAP___         02/25/69 1954.7 PAGE 1
                        POST PROCESSOR ASSEMBLY DATA

        140 IS THE FIRST LOCATION NOT USED BY THIS PROGRAM

0REFERENCES TO DEFINED SYMBOLS
        127     N1    12,   25,   33,   55,  113,  115
        130     N2    26,   35,   64
        121    TX4   110,  123
         77    XR1    36,   70
        100    XR2    37,   71
        101    XR4     7,   30,   72,  103
         41   BASE    23
         10   GATE    31
        103   OOPS    15,   21
        123   TRKS     0
          4  DELBC   114
         74  FOUND    65
         40 ACTFIL    16
        131 AFSCON    22
         26 AFSENL    66,  136
          1 ATTACH    24
          0 ATTNAM    11
          2 COMLOC    13,   17
         42 FNDLOP    67
         66 FNDNXT    47,   56
          3 GETLOC    45,   53,   62,  111,  124
          7 NEWFIL     0
        133 RNAME1    51
        134 RNAME2    60
        132 RPROBN    43
        105 SETRKS     0
        135 SMTMP2    75
        110 TRACKS     0
        125 TRKAD1   106
        112 TRKADR    76,  105,  126

0 NO ERROR IN ABOVE ASSEMBLY.


TSSPMT   BCD 02/09/69 0651.2    4271         00000
1     MAD PROGRAM LISTING ... ... ...                 FILE  TSSPMT   MAD            10/29/68    1424.5
-
                  TSSPMT. - CREATE NEW PERMIT FILE FOR M1416 CMFL04                                    LM00001
                    THIS CREATES A PERMIT FILE WHICH ALLOWS                                            LM00002
                    EVERYONE TO LINK TO THOSE FILES WHICH ARE                                          LM00003
                    THEMSELVES LINKS.                                                                  LM00004
                                                                                                       LM00005
                  NORMAL MODE IS INTEGER                                                          *001 LM00006
                  DIMENSION UF(7), WHERE(2), B1(0), B2(0), BUFF(0)                                *002 LM00007
                  VECTOR VALUES UFD=$U.F.D.$                                                      *003 LM00008
                  VECTOR VALUES FI= $(FILE)$                                                      *004 LM00009
                  VECTOR VALUES PMT=$PERMIT$                                                      *005 LM00010
                  VECTOR VALUES FIL=$  FILE$                                                      *006 LM00011
                                                                                                       LM00012
                  ATTNAM.(WHERE(1)...2)                                                           *007 LM00013
                  ATTACH.($ M1416$,$CMFL04$)                                                      *008 LM00014
                  STORGE.(2,QUOTA,USED)                                                           *009 LM00015
                  FERRTN.(OOPS)                                                                   *010 LM00016
                  TEMPQ=USED+1                                                                    *011 LM00017
                  ALLOT.(2,TEMPQ)                                                                 *012 LM00018
                  FSTATE.(UFD,FI,LTH...1)                                                         *013 LM00019
                  LTH=((LTH-3)/7)*6                                                               *014 LM00020
                  GETBUF.(BUFF,LTH)                                                               *015 LM00021
                  GETBUF.(B1,432)                                                                 *016 LM00022
                  GETBUF.(B2,432)                                                                 *017 LM00023
                  N=0                                                                             *018 LM00024
                                                                                                       LM00025
                  BFOPEN.($R$,UFD,FI,B1(B1+431),B2(B2+431),-0,OOPS)                               *019 LM00026
                  BFREAD.(UFD,FI,UF(7)...3,EOF,UF,OOPS)                                           *020 LM00027
      RD          BFREAD.(UFD,FI,UF(7)...7,EOF,UF,OOPS)                                           *021 LM00028
                  WHENEVER UF(7).E.0.AND.UF(6).E.0, TRANSFER TO RD                                *022 LM00029
                  WHENEVER F.(UF).E.0, PRMT.(UF(7),UF(6))                                         *023 LM00030
                  TRANSFER TO RD                                                                  *024 LM00031
      EOF         BFCLOS.(UFD,FI,OOPS)                                                            *025 LM00032
                  OPEN.($W$,PMT,FIL,120K)                                                         *026 LM00033
                  BUFFER.(PMT,FIL,B1(B1+431)...432)                                               *027 LM00034
                  TRFILE.(PMT,FIL,0)                                                              *028 LM00035
                  WRFILE.(PMT,FIL,0,BUFF(BUFF+N)...N)                                             *029 LM00036
                  CLOSE.(PMT,FIL)                                                                 *030 LM00037
                  ALLOT.(2,QUOTA)                                                                 *031 LM00038
                  ATTACH.(WHERE(1),WHERE(0))                                                      *032 LM00039
                  PRMESS.($*$)                                                                    *033 LM00040
                                                                                                       LM00041
                  CHNCOM.(0)                                                                      *034 LM00042
                                                                                                       LM00043
      OOPS        FERRTN.(0)                                                                      *035 LM00044
                  CLOSE.($ALL$)                                                                   *036 LM00045
                  ALLOT.(2,QUOTA)                                                                 *037 LM00046
                  USRFIL.                                                                         *038 LM00047
                  DSKER.                                                                          *039 LM00048
                                                                                                       LM00049
                                                                                                       LM00050
                  INTERNAL FUNCTION F.(ARG)=ARG(3).A.700000K                                      *040 LM00051
                                                                                                       LM00052
                  INTERNAL FUNCTION (N1,N2)                                                       *041 LM00053
                  ENTRY TO PRMT.                                                                  *042 LM00054
                  N=N+6                                                                           *043 LM00055
                  BUFF(BUFF+N)=LMARK                                                              *044 LM00056
                  BUFF(BUFF+N-1)=N1                                                               *045 LM00057
                  BUFF(BUFF+N-2)=N2                                                               *046 LM00058
                  BUFF(BUFF+N-3)=$     *$                                                         *047 LM00059
                  BUFF(BUFF+N-4)=$     *$                                                         *048 LM00060
                  BUFF(BUFF+N-5)=$   104$                                                         *049 LM00061
                  FUNCTION RETURN                                                                 *050 LM00062
                  VECTOR VALUES LMARK=777777000005K                                               *051 LM00063
                  END OF FUNCTION                                                                 *052 LM00064
                                                                                                       LM00065
                  END OF PROGRAM                                                                  *053 LM00066
1MAD PROGRAM,TYPE NOV 1963      (ALL NUMBERS ARE OCTAL)
0TOTAL LOCATIONS   00450 TRANSFER VECTOR LENGTH  00025 PROGRAM BEGINS    00110
0VARIABLE STORAGE (A=ARRAY,C=COMMON,E=ERASABLE,DIGIT=MODE)
      B1     00033 A 1        FIL    00036 A 1        N      00042   1        RD     00032   4        UF     00056 A 1
      B2     00034 A 1        FI     00037 A 1        OOPS   00031   4        TEMPQ  00045   1        USED   00057   1
      BUFF   00035 A 1        LMARK  00040 A 1        PMT    00043 A 1        UFD    00046 A 1        WHERE  00062 A 1
      EOF    00030   4        LTH    00041   1        QUOTA  00044   1
0FUNCTION DICTIONARY
      ALLOT  00000   1        ATTACH 00001   1        ATTNAM 00002   1        BFCLOS 00003   1        BFOPEN 00004   1
      BFREAD 00005   1        BUFFER 00006   1        CHNCOM 00007   1        CLOSE  00010   1        DSKER  00011   1
      EXIT   00012   1        FERRTN 00013   1        FSTATE 00014   1        GETBUF 00015   1        .SETUP 00016   1
      OPEN   00017   1        PRMESS 00020   1        STORGE 00021   1        TRFILE 00022   1        USRFIL 00023   1
      WRFILE 00024   1        F      00025   1        PRMT   00026   1
0ABSOLUTE CONSTANTS
 00105 -206060010004     00070 +000000000005     00067 +000000000004     00106 -206060606054     00076 +000000700000
 00077 +214343606060     00103 -146060606060     00073 +000000000120     00107 -266060606060     00102 -116060606060
 00074 +000000000657     00063 +000000000000     00075 +000000000660     00071 +000000000006     00072 +000000000007
 00066 +000000000003     00101 +234426430004     00104 -204401040106     00065 +000000000002     00064 +000000000001
 00100 +233000000000
0STATEMENT DICTIONARY
 00030 TXL -300244000240       00031 TXL -300317000315       00032 TXL -300221000212
0PROGRAM
                 N'S INTEGER                                                        001  LM00006
                 D'N UF(7), WHERE(2), B1(0), B2(0), BUFF(0)                         002  LM00007
                 V'S UFD=$U.F.D.$                                                   003  LM00008
 00110 TSX +0 07400 4 00016    00046     -2 43326 3 32433
                 V'S FI= $(FILE)$                                                   004  LM00009
 00037     -3 42631 4 32534
                 V'S PMT=$PERMIT$                                                   005  LM00010
 00043     -0 72551 4 43163
                 V'S FIL=$  FILE$                                                   006  LM00011
 00036     -2 06026 3 14325
                 ATTNAM.(WHERE(1)...2)                                              007  LM00013
 00111 TSX +0 07400 4 00002    00112 TIX +2 00065 0 00061
                 ATTACH.($ M1416$,$CMFL04$)                                         008  LM00014
 00113 TSX +0 07400 4 00001    00114 TXH +3 00000 0 00104    00115 TXH +3 00000 0 00101
                 STORGE.(2,QUOTA,USED)                                              009  LM00015
 00116 TSX +0 07400 4 00021    00117 TXH +3 00000 0 00065    00120 TXH +3 00000 0 00044    00121 TXH +3 00000 0 00057
                 FERRTN.(OOPS)                                                      010  LM00016
 00122 TSX +0 07400 4 00013    00123 TXH +3 00000 0 00031
                 TEMPQ=USED+1                                                       011  LM00017
 00124 CLA +0 50000 0 00057    00125 ADD +0 40000 0 00064    00126 STO +0 60100 0 00045
                 ALLOT.(2,TEMPQ)                                                    012  LM00018
 00127 TSX +0 07400 4 00000    00130 TXH +3 00000 0 00065    00131 TXH +3 00000 0 00045
                 FSTATE.(UFD,FI,LTH...1)                                            013  LM00019
 00132 TSX +0 07400 4 00014    00133 TXH +3 00000 0 00046    00134 TXH +3 00000 0 00037    00135 TIX +2 00064 0 00041
                 LTH=((LTH-3)/7)*6                                                  014  LM00020
 00136 CLA +0 50000 0 00041    00137 SUB +0 40200 0 00066    00140 LRS +0 76500 0 00043    00141 DVP +0 22100 0 00072
 00142 MPY +0 20000 0 00071    00143 STQ -0 60000 0 00041
                 GETBUF.(BUFF,LTH)                                                  015  LM00021
 00144 TSX +0 07400 4 00015    00145 TXH +3 00000 0 00035    00146 TXH +3 00000 0 00041
                 GETBUF.(B1,432)                                                    016  LM00022
 00147 TSX +0 07400 4 00015    00150 TXH +3 00000 0 00033    00151 TXH +3 00000 0 00075
                 GETBUF.(B2,432)                                                    017  LM00023
 00152 TSX +0 07400 4 00015    00153 TXH +3 00000 0 00034    00154 TXH +3 00000 0 00075
                 N=0                                                                018  LM00024
 00155 CLA +0 50000 0 00063    00156 STO +0 60100 0 00042
                 BFOPEN.($R$,UFD,FI,B1(B1+431),B2(B2+431),-0,OOPS)                  019  LM00026
 00157 CLS +0 50200 0 00063    00160 STO +0 60100 0 00445    00161 CLA +0 50000 0 00034    00162 ADD +0 40000 0 00074
 00163 SUB +0 40200 0 00164    00164 TXH +3 00000 0 00034    00165 STA +0 62100 0 00200    00166 CLA +0 50000 0 00033
 00167 ADD +0 40000 0 00074    00170 SUB +0 40200 0 00171    00171 TXH +3 00000 0 00033    00172 STA +0 62100 0 00177
 00173 TSX +0 07400 4 00004    00174 TXH +3 00000 0 00102    00175 TXH +3 00000 0 00046    00176 TXH +3 00000 0 00037
 00177 TXH +3 00000 0 00000    00200 TXH +3 00000 0 00000    00201 TXH +3 00000 0 00445    00202 TXH +3 00000 0 00031
                 BFREAD.(UFD,FI,UF(7)...3,EOF,UF,OOPS)                              020  LM00027
 00203 TSX +0 07400 4 00005    00204 TXH +3 00000 0 00046    00205 TXH +3 00000 0 00037    00206 TIX +2 00066 0 00047
 00207 TXH +3 00000 0 00030    00210 TXH +3 00000 0 00056    00211 TXH +3 00000 0 00031
      RD         BFREAD.(UFD,FI,UF(7)...7,EOF,UF,OOPS)                              021  LM00028
 00212 TSX +0 07400 4 00005    00213 TXH +3 00000 0 00046    00214 TXH +3 00000 0 00037    00215 TIX +2 00072 0 00047
 00216 TXH +3 00000 0 00030    00217 TXH +3 00000 0 00056    00220 TXH +3 00000 0 00031
                 W'R UF(7).E.0.AND.UF(6).E.0, T'O RD                                022  LM00029
 00221 CLA +0 50000 0 00050    00222 SUB +0 40200 0 00063    00223 TNZ -0 10000 0 00230    00224 CLA +0 50000 0 00047
 00225 SUB +0 40200 0 00063    00226 TNZ -0 10000 0 00230    00227 TRA +0 02000 0 00032
                 W'R F.(UF).E.0, PRMT.(UF(7),UF(6))                                 023  LM00030
 00230 TSX +0 07400 4 00025    00231 TXH +3 00000 0 00056    00232 SUB +0 40200 0 00063    00233 TNZ -0 10000 0 00237
 00234 TSX +0 07400 4 00026    00235 TXH +3 00000 0 00047    00236 TXH +3 00000 0 00050
                 T'O RD                                                             024  LM00031
 00237 TRA +0 02000 0 00032
      EOF        BFCLOS.(UFD,FI,OOPS)                                               025  LM00032
 00240 TSX +0 07400 4 00003    00241 TXH +3 00000 0 00046    00242 TXH +3 00000 0 00037    00243 TXH +3 00000 0 00031
                 OPEN.($W$,PMT,FIL,120K)                                            026  LM00033
 00244 TSX +0 07400 4 00017    00245 TXH +3 00000 0 00107    00246 TXH +3 00000 0 00043    00247 TXH +3 00000 0 00036
 00250 TXH +3 00000 0 00073
                 BUFFER.(PMT,FIL,B1(B1+431)...432)                                  027  LM00034
 00251 CLA +0 50000 0 00033    00252 ADD +0 40000 0 00074    00253 SUB +0 40200 0 00254    00254 TXH +3 00000 0 00033
 00255 STA +0 62100 0 00261    00256 TSX +0 07400 4 00006    00257 TXH +3 00000 0 00043    00260 TXH +3 00000 0 00036
 00261 TIX +2 00075 0 00000
                 TRFILE.(PMT,FIL,0)                                                 028  LM00035
 00262 TSX +0 07400 4 00022    00263 TXH +3 00000 0 00043    00264 TXH +3 00000 0 00036    00265 TXH +3 00000 0 00063
                 WRFILE.(PMT,FIL,0,BUFF(BUFF+N)...N)                                029  LM00036
 00266 CLA +0 50000 0 00035    00267 ADD +0 40000 0 00042    00270 SUB +0 40200 0 00271    00271 TXH +3 00000 0 00035
 00272 STA +0 62100 0 00277    00273 TSX +0 07400 4 00024    00274 TXH +3 00000 0 00043    00275 TXH +3 00000 0 00036
 00276 TXH +3 00000 0 00063    00277 TIX +2 00042 0 00000
                 CLOSE.(PMT,FIL)                                                    030  LM00037
 00300 TSX +0 07400 4 00010    00301 TXH +3 00000 0 00043    00302 TXH +3 00000 0 00036
                 ALLOT.(2,QUOTA)                                                    031  LM00038
 00303 TSX +0 07400 4 00000    00304 TXH +3 00000 0 00065    00305 TXH +3 00000 0 00044
                 ATTACH.(WHERE(1),WHERE(0))                                         032  LM00039
 00306 TSX +0 07400 4 00001    00307 TXH +3 00000 0 00061    00310 TXH +3 00000 0 00062
                 PRMESS.($*$)                                                       033  LM00040
 00311 TSX +0 07400 4 00020    00312 TXH +3 00000 0 00103
                 CHNCOM.(0)                                                         034  LM00042
 00313 TSX +0 07400 4 00007    00314 TXH +3 00000 0 00063
      OOPS       FERRTN.(0)                                                         035  LM00044
 00315 TSX +0 07400 4 00013    00316 TXH +3 00000 0 00063
                 CLOSE.($ALL$)                                                      036  LM00045
 00317 TSX +0 07400 4 00010    00320 TXH +3 00000 0 00077
                 ALLOT.(2,QUOTA)                                                    037  LM00046
 00321 TSX +0 07400 4 00000    00322 TXH +3 00000 0 00065    00323 TXH +3 00000 0 00044
                 USRFIL.                                                            038  LM00047
 00324 TSX +0 07400 4 00023
                 DSKER.                                                             039  LM00048
 00325 TSX +0 07400 4 00011
                 INTERNAL FUNCTION F.(ARG)=ARG(3).A.700000K                         040  LM00051
 00326 TRA +0 02000 0 00353    00025 TTR +0 02100 0 00327    00327 SXA +0 63400 2 00337    00330 TSX +0 07400 2 00337
 00331 CAL -0 50000 0 00021    00332 ANA -0 32000 0 00076    00333 SLW +0 60200 0 00352    00334 CLA +0 50000 0 00352
 00335 TRA +0 02000 0 00346    00336 PZE +0 00000 0 00003    00337 TXH +3 00000 0 00000    00340 SXD -0 63400 1 00337
 00341 SXA +0 63400 4 00346    00342 CLA +0 50000 4 00001    00343 SUB +0 40200 0 00336    00344 STA +0 62100 0 00331
 00345 TRA +0 02000 2 00001    00346 AXT +0 77400 4 00000    00347 LXA +0 53400 2 00337    00350 LXD -0 53400 1 00337
 00351 TRA +0 02000 4 00001
                 INTERNAL FUNCTION (N1,N2)                                          041  LM00053
 00353 TRA +0 02000 0 00444
                 ENTRY TO PRMT.                                                     042  LM00054
 00354 TRA +0 02000 0 00357    00026 TTR +0 02100 0 00355    00355 SXA +0 63400 2 00430    00356 TSX +0 07400 2 00430
                 N=N+6                                                              043  LM00055
 00357 CLA +0 50000 0 00042    00360 ADD +0 40000 0 00071    00361 STO +0 60100 0 00042
                 BUFF(BUFF+N)=LMARK                                                 044  LM00056
 00362 CLA +0 50000 0 00035    00363 ADD +0 40000 0 00042    00364 PAX +0 73400 1 00000    00365 CLA +0 50000 0 00040
 00366 STO +0 60100 1 00035
                 BUFF(BUFF+N-1)=N1                                                  045  LM00057
 00367 CLA +0 50000 0 00035    00370 ADD +0 40000 0 00042    00371 SUB +0 40200 0 00064    00372 PAX +0 73400 1 00000
 00373 CLA +0 50000 0 00024    00374 STO +0 60100 1 00035
                 BUFF(BUFF+N-2)=N2                                                  046  LM00058
 00375 CLA +0 50000 0 00035    00376 ADD +0 40000 0 00042    00377 SUB +0 40200 0 00065    00400 PAX +0 73400 1 00000
 00401 CLA +0 50000 0 00024    00402 STO +0 60100 1 00035
                 BUFF(BUFF+N-3)=$     *$                                            047  LM00059
 00403 CLA +0 50000 0 00035    00404 ADD +0 40000 0 00042    00405 SUB +0 40200 0 00066    00406 PAX +0 73400 1 00000
 00407 CLA +0 50000 0 00106    00410 STO +0 60100 1 00035
                 BUFF(BUFF+N-4)=$     *$                                            048  LM00060
 00411 CLA +0 50000 0 00035    00412 ADD +0 40000 0 00042    00413 SUB +0 40200 0 00067    00414 PAX +0 73400 1 00000
 00415 CLA +0 50000 0 00106    00416 STO +0 60100 1 00035
                 BUFF(BUFF+N-5)=$   104$                                            049  LM00061
 00417 CLA +0 50000 0 00035    00420 ADD +0 40000 0 00042    00421 SUB +0 40200 0 00070    00422 PAX +0 73400 1 00000
 00423 CLA +0 50000 0 00105    00424 STO +0 60100 1 00035
                 F'N                                                                050  LM00062
 00425 TRA +0 02000 0 00440
                 V'S LMARK=777777000005K                                            051  LM00063
 00040     -3 77777 0 00005
                 E'N                                                                052  LM00064
 00426 TSX +0 07400 4 00012    00427 PZE +0 00000 0 00003    00430 TXH +3 00000 0 00000    00431 SXD -0 63400 1 00430
 00432 SXA +0 63400 4 00440    00433 CLA +0 50000 4 00001    00434 STA +0 62100 0 00373    00435 CLA +0 50000 4 00002
 00436 STA +0 62100 0 00401    00437 TRA +0 02000 2 00001    00440 AXT +0 77400 4 00000    00441 LXA +0 53400 2 00430
 00442 LXD -0 53400 1 00430    00443 TRA +0 02000 4 00001
                 END OF PROGRAM                                                     053  LM00066
 00444 TSX +0 07400 4 00012


   TUT   BCD 02/09/69 0728.3    5975         00000
