1     MAD PROGRAM LISTING ... ... ...                 FILE   PDATE   MAD            02/09/69    0657.1
-
       PDATE          PRINT ALL FILES OLDER THAN GIVEN DATE.                                           LM00001
                  EXTERNAL FUNCTION ( PROBN, PROGN, BUFF )                                        *001 LM00002
                  NORMAL MODE IS INTEGER                                                          *002 LM00003
                                                                                                       LM00004
                  DIMENSION FTBL (90), RTBL (90)                                                  *003 LM00005
                                                                                                       LM00006
                                                                                                       LM00007
                  VECTOR VALUES M3 = 77775K                                                       *004 LM00008
                  VECTOR VALUES M4 = 77774K                                                       *005 LM00009
                  VECTOR VALUES M5 = 77773K                                                       *006 LM00010
                                                                                                       LM00011
                  VECTOR VALUES FIRST = 1B                                                        *007 LM00012
                                                                                                       LM00013
                                                                                                       LM00014
                                                                                                       LM00015
                  ENTRY TO COUNTR.                                                                *008 LM00016
                                                                                                       LM00017
                                                                                                       LM00018
                  WHENEVER FIRST                                                                  *009 LM00019
                       DATE = COMARG. (1)                                                         *010 LM00020
                       YEAR = BCDEC. ( DATE .A. 7777K )                                           *011 LM00021
                       MONTH = BCDEC. ( (DATE .RS. 24) .A. 7777K )                                *012 LM00022
                       DAY = BCDEC. ( (DATE .RS. 12) .A. 7777K )                                  *013 LM00023
                                                                                                       LM00024
                       NOW = ABSDAT. (MONTH, DAY, YEAR)                                           *014 LM00025
                       FIRST = 0B                                                                 *015 LM00026
                                                                                                       LM00027
                  ZERO. (FTBL ... FTBL (90), RTBL ... RTBL (90) )                                 *016 LM00028
                  END OF CONDITIONAL                                                              *017 LM00029
                                                                                                       LM00030
                                                                                                       LM00031
                  WHENEVER (BUFF (M4) .RS. 15) .A. 7K .E. 2                                       *018 LM00032
                                                                                                       LM00033
                       TEMP = BUFF (M3) .RS. 18                                                   *019 LM00034
                       YEAR = TEMP .RS. 9                                                         *020 LM00035
                       MONTH = TEMP .RS. 5 .A. 17K                                                *021 LM00036
                       DAY = TEMP .A. 37 K                                                        *022 LM00037
                       AGE = NOW - ABSDAT. (MONTH, DAY, YEAR)                                     *023 LM00038
                       WHENEVER AGE .G. 90, AGE = 90                                              *024 LM00039
                       WHENEVER AGE .L. 0, AGE = 0                                                *025 LM00040
                                                                                                       LM00041
                       NORECS = (BUFF (M5) .RS. 18) .A. 77777K                                    *026 LM00042
                                                                                                       LM00043
                       FTBL (AGE) = FTBL (AGE) + 1                                                *027 LM00044
                       RTBL (AGE) = RTBL (AGE) + NORECS                                           *028 LM00045
                                                                                                       LM00046
                                                                                                       LM00047
                  END OF CONDITIONAL                                                              *029 LM00048
                                                                                                       LM00049
                                                                                                       LM00050
                                                                                                       LM00051
                                                                                                       LM00052
                  FUNCTION RETURN                                                                 *030 LM00053
                                                                                                       LM00054
                                                                                                       LM00055
                                                                                                       LM00056
                  ENTRY TO FPRINT.                                                                *031 LM00057
                                                                                                       LM00058
                                                                                                       LM00059
                  PRINT COMMENT $AGE  FILES  OLDER  RECS   OLDER$                                 *032 LM00060
                  PRINT COMMENT $ $                                                               *033 LM00061
                                                                                                       LM00062
                  THROUGH BETA, FOR K = 0, 1, K .G. 90                                            *034 LM00063
                  FOLDER = 0                                                                      *035 LM00064
                  ROLDER = 0                                                                      *036 LM00065
                                                                                                       LM00066
                  THROUGH ALPHA, FOR J = K, 1, J .G. 90                                           *037 LM00067
                  FOLDER = FOLDER + FTBL (J)                                                      *038 LM00068
                  ROLDER = ROLDER + RTBL (J)                                                      *039 LM00069
                  VAR = ROLDER / 1000                                                             *040 LM00070
      ALPHA       CONTINUE                                                                        *041 LM00071
                                                                                                       LM00072
                  PRINT FORMAT OUTPT, K, FTBL (K), FOLDER, RTBL (K), ROLDER                       *042 LM00073
                                                                                                       LM00074
                  VECTOR VALUES OUTPT = $I3,S1,4I7,S2,'VAR'(1HX)*$                                *043 LM00075
                  FORMAT VARIABLE VAR                                                             *044 LM00076
                                                                                                       LM00077
      BETA        CONTINUE                                                                        *045 LM00078
                                                                                                       LM00079
                                                                                                       LM00080
                                                                                                       LM00081
                  FUNCTION RETURN                                                                 *046 LM00082
                                                                                                       LM00083
                                                                                                       LM00084
                                                                                                       LM00085
                  END OF FUNCTION                                                                 *047 LM00086
       THE FOLLOWING NAMES HAVE OCCURRED ONLY ONCE IN THIS PROGRAM.
       COMPILATION WILL CONTINUE.
      VAR
1MAD PROGRAM,TYPE NOV 1963      (ALL NUMBERS ARE OCTAL)
0TOTAL LOCATIONS   00644 TRANSFER VECTOR LENGTH  00007 PROGRAM BEGINS    00343
0 PROGRAM IS AN EXTERNAL FUNCTION.   THE FOLLOWING ARE ENTRIES
      FPRINT 00516   0        COUNTR 00344   0
0VARIABLE STORAGE (A=ARRAY,C=COMMON,E=ERASABLE,DIGIT=MODE)
      AGE    00010   1        FIRST  00013 A 2        M3     00152 A 1        NORECS 00156   1        RTBL   00317 A 1
      ALPHA  00007   4        FOLDER 00014   1        M4     00153 A 1        NOW    00157   1        TEMP   00320   1
      BETA   00007   4        FTBL   00147 A 1        M5     00154 A 1        OUTPT  00163 A 1        VAR    00321   1
      DATE   00011   1        J      00150   1        MONTH  00155   1        ROLDER 00164   1        YEAR   00322   1
      DAY    00012   1        K      00151   1
0FUNCTION DICTIONARY
      ABSDAT 00000   1        BCDEC  00001   1        COMARG 00002   1        EXIT   00003   1        .PCOMT 00004   1
      .PRINT 00005   1        ZERO   00006   1
0ABSOLUTE CONSTANTS
 00337 +000000001750     00341 +000000077777     00336 +000000000132     00335 +000000000037     00326 +000000000005
 00330 +000000000011     00333 +000000000022     00325 +000000000002     00327 +000000000007     00332 +000000000017
 00323 +000000000000     00331 +000000000014     00334 +000000000030     00340 +000000007777     00324 +000000000001
 00342 +233000000000
0PROGRAM
                 EXTERNAL FUNCTION ( PROBN, PROGN, BUFF )                           001  LM00002
                 N'R                                                                002  LM00003
                 D'N FTBL (90), RTBL (90)                                           003  LM00005
                 V'S M3 = 77775K                                                    004  LM00008
 00152     +0 00000 0 77775
                 V'S M4 = 77774K                                                    005  LM00009
 00153     +0 00000 0 77774
                 V'S M5 = 77773K                                                    006  LM00010
 00154     +0 00000 0 77773
                 V'S FIRST = 1B                                                     007  LM00012
 00013     +0 00000 0 00001
                 E'O COUNTR.                                                        008  LM00016
 00343 TRA +0 02000 0 00346    00344 SXA +0 63400 2 00623    00345 TSX +0 07400 2 00623
                 W'R FIRST                                                          009  LM00019
 00346 NZT -0 52000 0 00013    00347 TRA +0 02000 0 00415
                      DATE = COMARG. (1)                                            010  LM00020
 00350 TSX +0 07400 4 00002    00351 TXH +3 00000 0 00324    00352 STO +0 60100 0 00011
                      YEAR = BCDEC. ( DATE .A. 7777K )                              011  LM00021
 00353 CAL -0 50000 0 00011    00354 ANA -0 32000 0 00340    00355 SLW +0 60200 0 00637    00356 TSX +0 07400 4 00001
 00357 TXH +3 00000 0 00637    00360 STO +0 60100 0 00322
                      MONTH = BCDEC. ( (DATE .RS. 24) .A. 7777K )                   012  LM00022
 00361 CAL -0 50000 0 00334    00362 STA +0 62100 0 00364    00363 CAL -0 50000 0 00011    00364 LGR -0 76500 0 00000
 00365 ANA -0 32000 0 00340    00366 SLW +0 60200 0 00637    00367 TSX +0 07400 4 00001    00370 TXH +3 00000 0 00637
 00371 STO +0 60100 0 00155
                      DAY = BCDEC. ( (DATE .RS. 12) .A. 7777K )                     013  LM00023
 00372 CAL -0 50000 0 00331    00373 STA +0 62100 0 00375    00374 CAL -0 50000 0 00011    00375 LGR -0 76500 0 00000
 00376 ANA -0 32000 0 00340    00377 SLW +0 60200 0 00637    00400 TSX +0 07400 4 00001    00401 TXH +3 00000 0 00637
 00402 STO +0 60100 0 00012
                      NOW = ABSDAT. (MONTH, DAY, YEAR)                              014  LM00025
 00403 TSX +0 07400 4 00000    00404 TXH +3 00000 0 00155    00405 TXH +3 00000 0 00012    00406 TXH +3 00000 0 00322
 00407 STO +0 60100 0 00157
                      FIRST = 0B                                                    015  LM00026
 00410 CLA +0 50000 0 00323    00411 STO +0 60100 0 00013
                 ZERO. (FTBL ... FTBL (90), RTBL ... RTBL (90) )                    016  LM00028
 00412 TSX +0 07400 4 00006    00413 TIX +2 00015 0 00147    00414 TIX +2 00165 0 00317
                 E'L                                                                017  LM00029
                 W'R (BUFF (M4) .RS. 15) .A. 7K .E. 2                               018  LM00032
 00415 LXA +0 53400 1 00153    00416 CAL -0 50000 0 00332    00417 STA +0 62100 0 00421    00420 CAL -0 50000 1 00024
 00421 LGR -0 76500 0 00000    00422 ANA -0 32000 0 00327    00423 SLW +0 60200 0 00637    00424 CLA +0 50000 0 00637
 00425 SUB +0 40200 0 00325    00426 TNZ -0 10000 0 00514
                      TEMP = BUFF (M3) .RS. 18                                      019  LM00034
 00427 LXA +0 53400 1 00152    00430 CAL -0 50000 0 00333    00431 STA +0 62100 0 00433    00432 CAL -0 50000 1 00024
 00433 LGR -0 76500 0 00000    00434 SLW +0 60200 0 00320
                      YEAR = TEMP .RS. 9                                            020  LM00035
 00435 CAL -0 50000 0 00330    00436 STA +0 62100 0 00440    00437 CAL -0 50000 0 00320    00440 LGR -0 76500 0 00000
 00441 SLW +0 60200 0 00322
                      MONTH = TEMP .RS. 5 .A. 17K                                   021  LM00036
 00442 CAL -0 50000 0 00326    00443 STA +0 62100 0 00445    00444 CAL -0 50000 0 00320    00445 LGR -0 76500 0 00000
 00446 ANA -0 32000 0 00332    00447 SLW +0 60200 0 00155
                      DAY = TEMP .A. 37 K                                           022  LM00037
 00450 CAL -0 50000 0 00320    00451 ANA -0 32000 0 00335    00452 SLW +0 60200 0 00012
                      AGE = NOW - ABSDAT. (MONTH, DAY, YEAR)                        023  LM00038
 00453 TSX +0 07400 4 00000    00454 TXH +3 00000 0 00155    00455 TXH +3 00000 0 00012    00456 TXH +3 00000 0 00322
 00457 CHS +0 76000 0 00002    00460 ADD +0 40000 0 00157    00461 STO +0 60100 0 00010
                      W'R AGE .G. 90, AGE = 90                                      024  LM00039
 00462 CLA +0 50000 0 00010    00463 SUB +0 40200 0 00336    00464 TZE +0 10000 0 00470    00465 TMI -0 12000 0 00470
 00466 CLA +0 50000 0 00336    00467 STO +0 60100 0 00010
                      W'R AGE .L. 0, AGE = 0                                        025  LM00040
 00470 CLA +0 50000 0 00010    00471 SUB +0 40200 0 00323    00472 TZE +0 10000 0 00476    00473 TPL +0 12000 0 00476
 00474 CLA +0 50000 0 00323    00475 STO +0 60100 0 00010
                      NORECS = (BUFF (M5) .RS. 18) .A. 77777K                       026  LM00042
 00476 LXA +0 53400 1 00154    00477 CAL -0 50000 0 00333    00500 STA +0 62100 0 00502    00501 CAL -0 50000 1 00024
 00502 LGR -0 76500 0 00000    00503 ANA -0 32000 0 00341    00504 SLW +0 60200 0 00156
                      FTBL (AGE) = FTBL (AGE) + 1                                   027  LM00044
 00505 LXA +0 53400 1 00010    00506 CLA +0 50000 1 00147    00507 ADD +0 40000 0 00324    00510 STO +0 60100 1 00147
                      RTBL (AGE) = RTBL (AGE) + NORECS                              028  LM00045
 00511 CLA +0 50000 1 00317    00512 ADD +0 40000 0 00156    00513 STO +0 60100 1 00317
                 E'L                                                                029  LM00048
                 F'N                                                                030  LM00053
 00514 TRA +0 02000 0 00633
                 E'O FPRINT.                                                        031  LM00057
 00515 TRA +0 02000 0 00520    00516 SXA +0 63400 2 00623    00517 TSX +0 07400 2 00623
                 PRINT COMMENT $AGE  FILES  OLDER  RECS   OLDER$                    032  LM00060
 00520 TSX +0 07400 4 00004    00521     +0 00000 0 00006    00522     +2 12725 6 06026    00523     +3 14325 6 26060
 00524     -0 64324 2 55160    00525     -2 05125 2 36260    00526     -2 06046 4 32425    00527     -1 16060 6 06060
                 PRINT COMMENT $ $                                                  033  LM00061
 00530 TSX +0 07400 4 00004    00531     +0 00000 0 00001    00532     -2 06060 6 06060
                 T'H BETA, FOR K = 0, 1, K .G. 90                                   034  LM00063
 00533 CLA +0 50000 0 00323    00534 STO +0 60100 0 00151    00535 TRA +0 02000 0 00541    00536 CLA +0 50000 0 00151
 00537 ADD +0 40000 0 00324    00540 STO +0 60100 0 00151    00541 CLA +0 50000 0 00151    00542 SUB +0 40200 0 00336
 00543 TZE +0 10000 0 00545    00544 TPL +0 12000 0 00621
                 FOLDER = 0                                                         035  LM00064
 00545 CLA +0 50000 0 00323    00546 STO +0 60100 0 00014
                 ROLDER = 0                                                         036  LM00065
 00547 CLA +0 50000 0 00323    00550 STO +0 60100 0 00164
                 T'H ALPHA, FOR J = K, 1, J .G. 90                                  037  LM00067
 00551 CLA +0 50000 0 00151    00552 STO +0 60100 0 00150    00553 TRA +0 02000 0 00557    00554 CLA +0 50000 0 00150
 00555 ADD +0 40000 0 00324    00556 STO +0 60100 0 00150    00557 CLA +0 50000 0 00150    00560 SUB +0 40200 0 00336
 00561 TZE +0 10000 0 00563    00562 TPL +0 12000 0 00600
                 FOLDER = FOLDER + FTBL (J)                                         038  LM00068
 00563 LXA +0 53400 2 00150    00564 CLA +0 50000 0 00014    00565 ADD +0 40000 2 00147    00566 STO +0 60100 0 00014
                 ROLDER = ROLDER + RTBL (J)                                         039  LM00069
 00567 CLA +0 50000 0 00164    00570 ADD +0 40000 2 00317    00571 STO +0 60100 0 00164
                 VAR = ROLDER / 1000                                                040  LM00070
 00572 LDQ +0 56000 0 00164    00573 PXD -0 75400 0 00000    00574 LLS +0 76300 0 00000    00575 DVP +0 22100 0 00337
 00576 STQ -0 60000 0 00321
      ALPHA      C'E                                                                041  LM00071
 00577 TRA +0 02000 0 00554
                 P'T OUTPT, K, FTBL (K), FOLDER, RTBL (K), ROLDER                   042  LM00073
 00600 TSX +0 07400 4 00005    00601 STR -1 00163 1 00642    00602 STR -1 00000 0 00151    00603 CLA +0 50000 0 00151
 00604 SUB +0 40200 0 00605    00605 TXH +3 00000 0 00147    00606 STA +0 62100 0 00607    00607 STR -1 00000 0 00000
 00610 STR -1 00000 0 00014    00611 CLA +0 50000 0 00151    00612 SUB +0 40200 0 00613    00613 TXH +3 00000 0 00317
 00614 STA +0 62100 0 00615    00615 STR -1 00000 0 00000    00616 STR -1 00000 0 00164    00617 STR -1 00000 0 00000
                 V'S OUTPT = $I3,S1,4I7,S2,'VAR'(1HX)*$                             043  LM00075
 00160     -3 40130 6 73454    00161     -3 31465 2 15114    00162     +0 43107 7 36202    00163     +3 10373 6 20173
                 FORMAT VARIABLE VAR                                                044  LM00076
      BETA       C'E                                                                045  LM00078
 00620 TRA +0 02000 0 00536
                 F'N                                                                046  LM00082
 00621 TRA +0 02000 0 00633
                 E'N                                                                047  LM00086
 00622 TSX +0 07400 4 00003    00623 TXH +3 00000 0 00000    00624 SXD -0 63400 1 00623    00625 SXA +0 63400 4 00633
 00626 CLA +0 50000 4 00003    00627 STA +0 62100 0 00420    00630 STA +0 62100 0 00432    00631 STA +0 62100 0 00501
 00632 TRA +0 02000 2 00001    00633 AXT +0 77400 4 00000    00634 LXA +0 53400 2 00623    00635 LXD -0 53400 1 00623
 00636 TRA +0 02000 4 00001
1     MAD PROGRAM LISTING ... ... ...                 FILE   PTEMP   MAD            02/09/69    0657.1
-
                    PTEMP - PRINTS OUT TEMPORARY DISK FILES FOR ALL OF SYSTEM                          LM00001
                                                                                                       LM00002
                    WRITTEN BY ROGER ROACH 6/8/67                                                      LM00003
                                                                                                       LM00004
                  EXTERNAL FUNCTION (PROBN,PROGN,BUFF)                                            *001 LM00005
                  NORMAL MODE IS INTEGER                                                          *002 LM00006
                  VECTOR VALUES COLON = 355757575757K                                             *003 LM00007
                  VECTOR VALUES TAB1 = 557257575757K                                              *004 LM00008
                  VECTOR VALUES TAB2 = 727257575757K                                              *005 LM00009
                  VECTOR VALUES BL = 605757575757K                                                *006 LM00010
                  VECTOR VALUES CR = 555757575757K                                                *007 LM00011
                  VECTOR VALUES M1 = 77777K                                                       *008 LM00012
                  VECTOR VALUES M3 = 77775K                                                       *009 LM00013
                  VECTOR VALUES M4 = 77774K                                                       *010 LM00014
                  VECTOR VALUES M5 = 77773K                                                       *011 LM00015
                  VECTOR VALUES TOTAL = 0                                                         *012 LM00016
                  VECTOR VALUES SUBTOT = 0                                                        *013 LM00017
                  VECTOR VALUES COUNT = 0                                                         *014 LM00018
                  VECTOR VALUES FIRST = 1B                                                        *015 LM00019
                                                                                                       LM00020
                  COUNTR - COUNTS TEMPORARY FILES                                                      LM00021
                                                                                                       LM00022
                  ENTRY TO COUNTR.                                                                *016 LM00023
                  WHENEVER FIRST                                                                  *017 LM00024
                       GETTM.(DATE,TIME)                                                          *018 LM00025
                       PRMESS.(CR,CR,$TEMPORARY FILES$,DATE,TIME,CR,CR,                           *019 LM00026
                1      $     NAME       MOD RECS  DATE$)                                          *019 LM00027
                       FIRST = 0B                                                                 *020 LM00028
                       END OF CONDITIONAL                                                         *021 LM00029
                  N1 = BUFF                                                                       *022 LM00030
                  N2 = BUFF(M1)                                                                   *023 LM00031
                  WHENEVER N1.E.0 .AND. N2.E.0, FUNCTION RETURN                                   *024 LM00032
                  MODE = (BUFF(M4).A.776K9).RS.28                                                 *025 LM00033
                  AUTH = BZEL.(DERBC.(BUFF(M3)))                                                  *026 LM00034
                  WHENEVER AUTH .E. PROGN, AUTH = $ $                                             *027 LM00035
                  WHENEVER (MODE.A.1).NE. 1, FUNCTION RETURN                                      *028 LM00036
                  DEVIC = (BUFF(M4).A.7K5).RS.15                                                  *029 LM00037
                  WHENEVER DEVIC .NE. 2, FUNCTION RETURN                                          *030 LM00038
                  NOREC = (BUFF(M5).RS.18).A.M1                                                   *031 LM00039
                  WHENEVER PB .NE. PROBN .OR. PG .NE. PROGN                                       *032 LM00040
                       SUBTOT = BZEL.(DERBC.(SUBTOT))                                             *033 LM00041
                       WHENEVER SUBTOT.NE.$     0$,PRMESS.(TAB2,SUBTOT)                           *034 LM00042
                       SUBTOT = 0                                                                 *035 LM00043
                       PRMESS.(TAB1,PROBN,BL,PROGN,COLON)                                         *036 LM00044
                       PB = PROBN                                                                 *037 LM00045
                       PG = PROGN                                                                 *038 LM00046
                       END OF CONDITIONAL                                                         *039 LM00047
                                                                                                       LM00048
                   PRINT FILE NAME, LENGTH ETC.                                                        LM00049
                                                                                                       LM00050
                  SUBTOT = SUBTOT + NOREC                                                         *040 LM00051
                  TOTAL = TOTAL + NOREC                                                           *041 LM00052
                  COUNT = COUNT + 1                                                               *042 LM00053
                  MOD = (OCABC.(MODE)).V.606060K6                                                 *043 LM00054
                  NOREC = BZEL.(DERBC.(NOREC))                                                    *044 LM00055
                  TEMP = BUFF(M3).RS.18                                                           *045 LM00056
                  MO = DERBC.((TEMP.RS.5).A.17K)                                                  *046 LM00057
                  DA = DERBC.(TEMP.A.37K)                                                         *047 LM00058
                  DATE = (MO.LS.18).V.DA.V.$ 00/00$                                               *048 LM00059
                  PRMESS.(N1,BL,N2,MOD,NOREC,DATE,AUTH)                                           *049 LM00060
                  FUNCTION RETURN                                                                 *050 LM00061
                                                                                                       LM00062
                                                                                                       LM00063
                    FPRINT - FINAL PRINT OF TOTALS                                                     LM00064
                                                                                                       LM00065
                  ENTRY TO FPRINT.                                                                *051 LM00066
                  COUNT = BZ57.(DERBC.(COUNT))                                                    *052 LM00067
                  SUBTOT = BZEL.(DERBC.(SUBTOT))                                                  *053 LM00068
                  PRMESS.(TAB2,SUBTOT)                                                            *054 LM00069
                  TOTAL = BZEL.(DERBC.(TOTAL))                                                    *055 LM00070
                  PRMESS.(CR,CR,CR,$TOTAL FILES =$,COUNT, $,  TOTAL RECORDS =$,                   *056 LM00071
                1  TOTAL,CR,CR,CR)                                                                *056 LM00072
                  FUNCTION RETURN                                                                 *057 LM00073
                  END OF FUNCTION                                                                 *058 LM00074
1MAD PROGRAM,TYPE NOV 1963      (ALL NUMBERS ARE OCTAL)
0TOTAL LOCATIONS   00465 TRANSFER VECTOR LENGTH  00007 PROGRAM BEGINS    00100
0 PROGRAM IS AN EXTERNAL FUNCTION.   THE FOLLOWING ARE ENTRIES
      FPRINT 00361   0        COUNTR 00101   0
0VARIABLE STORAGE (A=ARRAY,C=COMMON,E=ERASABLE,DIGIT=MODE)
      AUTH   00010   1        DATE   00016   1        M5     00024 A 1        N2     00031   1        TAB1   00036 A 1
      BL     00011 A 1        DEVIC  00017   1        MODE   00025   1        NOREC  00032   1        TAB2   00037 A 1
      COLON  00012 A 1        FIRST  00020 A 2        MOD    00026   1        PB     00033   1        TEMP   00040   1
      COUNT  00013 A 1        M1     00021 A 1        MO     00027   1        PG     00034   1        TIME   00041   1
      CR     00014 A 1        M3     00022 A 1        N1     00030   1        SUBTOT 00035 A 1        TOTAL  00042 A 1
      DA     00015   1        M4     00023 A 1
0FUNCTION DICTIONARY
      BZ57   00000   1        BZEL   00001   1        DERBC  00002   1        EXIT   00003   1        GETTM  00004   1
      OCABC  00005   1        PRMESS 00006   1
0ABSOLUTE CONSTANTS
 00064 -065124626013     00055 +214360512523     00076 -336060634663     00054 +136060606060     00062 +263143256260
 00075 -234663214360     00065 -200000610000     00052 +000000000037     00046 +000000000005     00067 -206060000000
 00071 -206060606000     00050 +000000000022     00045 +000000000002     00047 +000000000017     00053 +000000700000
 00073 -206060606060     00051 +000000000034     00077 -376000000000     00043 +000000000000     00066 -206024216325
 00061 +246051252362     00070 -206060604446     00056 +214425606060     00072 -206060606045     00063 -032562606060
 00057 +215170602631     00074 -232544474651     00044 +000000000001     00060 +233000000000
0PROGRAM
                 EXTERNAL FUNCTION (PROBN,PROGN,BUFF)                               001  LM00005
                 N'R                                                                002  LM00006
                 V'S COLON = 355757575757K                                          003  LM00007
 00012     +3 55757 5 75757
                 V'S TAB1 = 557257575757K                                           004  LM00008
 00036     -1 57257 5 75757
                 V'S TAB2 = 727257575757K                                           005  LM00009
 00037     -3 27257 5 75757
                 V'S BL = 605757575757K                                             006  LM00010
 00011     -2 05757 5 75757
                 V'S CR = 555757575757K                                             007  LM00011
 00014     -1 55757 5 75757
                 V'S M1 = 77777K                                                    008  LM00012
 00021     +0 00000 0 77777
                 V'S M3 = 77775K                                                    009  LM00013
 00022     +0 00000 0 77775
                 V'S M4 = 77774K                                                    010  LM00014
 00023     +0 00000 0 77774
                 V'S M5 = 77773K                                                    011  LM00015
 00024     +0 00000 0 77773
                 V'S TOTAL = 0                                                      012  LM00016
 00042     +0 00000 0 00000
                 V'S SUBTOT = 0                                                     013  LM00017
 00035     +0 00000 0 00000
                 V'S COUNT = 0                                                      014  LM00018
 00013     +0 00000 0 00000
                 V'S FIRST = 1B                                                     015  LM00019
 00020     +0 00000 0 00001
                 E'O COUNTR.                                                        016  LM00023
 00100 TRA +0 02000 0 00103    00101 SXA +0 63400 2 00431    00102 TSX +0 07400 2 00431
                 W'R FIRST                                                          017  LM00024
 00103 NZT -0 52000 0 00020    00104 TRA +0 02000 0 00131
                      GETTM.(DATE,TIME)                                             018  LM00025
 00105 TSX +0 07400 4 00004    00106 TXH +3 00000 0 00016    00107 TXH +3 00000 0 00041
                      PRMESS.(CR,CR,$TEMPORARY FILES$,DATE,TIME,CR,CR,              019  LM00026
                1     $     NAME       MOD RECS  DATE$)                             019  LM00027
 00110 TSX +0 07400 4 00006    00111 TXH +3 00000 0 00014    00112 TXH +3 00000 0 00014    00113 TXH +3 00000 0 00074
 00114 TXH +3 00000 0 00057    00115 TXH +3 00000 0 00063    00116 TXH +3 00000 0 00016    00117 TXH +3 00000 0 00041
 00120 TXH +3 00000 0 00014    00121 TXH +3 00000 0 00014    00122 TXH +3 00000 0 00072    00123 TXH +3 00000 0 00056
 00124 TXH +3 00000 0 00070    00125 TXH +3 00000 0 00061    00126 TXH +3 00000 0 00066
                      FIRST = 0B                                                    020  LM00028
 00127 CLA +0 50000 0 00043    00130 STO +0 60100 0 00020
                      E'L                                                           021  LM00029
                 N1 = BUFF                                                          022  LM00030
 00131 CLA +0 50000 0 00024    00132 STO +0 60100 0 00030
                 N2 = BUFF(M1)                                                      023  LM00031
 00133 LXA +0 53400 2 00021    00134 CLA +0 50000 2 00024    00135 STO +0 60100 0 00031
                 W'R N1.E.0 .AND. N2.E.0, F'N                                       024  LM00032
 00136 CLA +0 50000 0 00031    00137 SUB +0 40200 0 00043    00140 TNZ -0 10000 0 00145    00141 CLA +0 50000 0 00030
 00142 SUB +0 40200 0 00043    00143 TNZ -0 10000 0 00145    00144 TRA +0 02000 0 00456
                 MODE = (BUFF(M4).A.776K9).RS.28                                    025  LM00033
 00145 LXA +0 53400 1 00023    00146 CAL -0 50000 1 00024    00147 ANA -0 32000 0 00077    00150 SLW +0 60200 0 00462
 00151 CAL -0 50000 0 00051    00152 STA +0 62100 0 00154    00153 CAL -0 50000 0 00462    00154 LGR -0 76500 0 00000
 00155 SLW +0 60200 0 00025
                 AUTH = BZEL.(DERBC.(BUFF(M3)))                                     026  LM00034
 00156 CLA +0 50000 0 00022    00157 SUB +0 40200 0 00160    00160 TXH +3 00000 0 00024    00161 STA +0 62100 0 00163
 00162 TSX +0 07400 4 00002    00163 TXH +3 00000 0 00000    00164 STO +0 60100 0 00462    00165 TSX +0 07400 4 00001
 00166 TXH +3 00000 0 00462    00167 STO +0 60100 0 00010
                 W'R AUTH .E. PROGN, AUTH = $ $                                     027  LM00035
 00170 CLA +0 50000 0 00010    00171 SUB +0 40200 0 00024    00172 TNZ -0 10000 0 00175    00173 CLA +0 50000 0 00073
 00174 STO +0 60100 0 00010
                 W'R (MODE.A.1).NE. 1, F'N                                          028  LM00036
 00175 CAL -0 50000 0 00025    00176 ANA -0 32000 0 00044    00177 SLW +0 60200 0 00462    00200 CLA +0 50000 0 00462
 00201 SUB +0 40200 0 00044    00202 TZE +0 10000 0 00204    00203 TRA +0 02000 0 00456
                 DEVIC = (BUFF(M4).A.7K5).RS.15                                     029  LM00037
 00204 LXA +0 53400 1 00023    00205 CAL -0 50000 1 00024    00206 ANA -0 32000 0 00053    00207 SLW +0 60200 0 00462
 00210 CAL -0 50000 0 00047    00211 STA +0 62100 0 00213    00212 CAL -0 50000 0 00462    00213 LGR -0 76500 0 00000
 00214 SLW +0 60200 0 00017
                 W'R DEVIC .NE. 2, F'N                                              030  LM00038
 00215 CLA +0 50000 0 00017    00216 SUB +0 40200 0 00045    00217 TZE +0 10000 0 00221    00220 TRA +0 02000 0 00456
                 NOREC = (BUFF(M5).RS.18).A.M1                                      031  LM00039
 00221 LXA +0 53400 1 00024    00222 CAL -0 50000 0 00050    00223 STA +0 62100 0 00225    00224 CAL -0 50000 1 00024
 00225 LGR -0 76500 0 00000    00226 ANA -0 32000 0 00021    00227 SLW +0 60200 0 00032
                 W'R PB .NE. PROBN .OR. PG .NE. PROGN                               032  LM00040
 00230 CLA +0 50000 0 00034    00231 SUB +0 40200 0 00024    00232 TNZ -0 10000 0 00236    00233 CLA +0 50000 0 00033
 00234 SUB +0 40200 0 00024    00235 TZE +0 10000 0 00266
                      SUBTOT = BZEL.(DERBC.(SUBTOT))                                033  LM00041
 00236 TSX +0 07400 4 00002    00237 TXH +3 00000 0 00035    00240 STO +0 60100 0 00462    00241 TSX +0 07400 4 00001
 00242 TXH +3 00000 0 00462    00243 STO +0 60100 0 00035
                      W'R SUBTOT.NE.$     0$,PRMESS.(TAB2,SUBTOT)                   034  LM00042
 00244 CLA +0 50000 0 00035    00245 SUB +0 40200 0 00071    00246 TZE +0 10000 0 00252    00247 TSX +0 07400 4 00006
 00250 TXH +3 00000 0 00037    00251 TXH +3 00000 0 00035
                      SUBTOT = 0                                                    035  LM00043
 00252 CLA +0 50000 0 00043    00253 STO +0 60100 0 00035
                      PRMESS.(TAB1,PROBN,BL,PROGN,COLON)                            036  LM00044
 00254 TSX +0 07400 4 00006    00255 TXH +3 00000 0 00036    00256 TXH +3 00000 0 00024    00257 TXH +3 00000 0 00011
 00260 TXH +3 00000 0 00024    00261 TXH +3 00000 0 00012
                      PB = PROBN                                                    037  LM00045
 00262 CLA +0 50000 0 00024    00263 STO +0 60100 0 00033
                      PG = PROGN                                                    038  LM00046
 00264 CLA +0 50000 0 00024    00265 STO +0 60100 0 00034
                      E'L                                                           039  LM00047
                 SUBTOT = SUBTOT + NOREC                                            040  LM00051
 00266 CLA +0 50000 0 00035    00267 ADD +0 40000 0 00032    00270 STO +0 60100 0 00035
                 TOTAL = TOTAL + NOREC                                              041  LM00052
 00271 CLA +0 50000 0 00042    00272 ADD +0 40000 0 00032    00273 STO +0 60100 0 00042
                 COUNT = COUNT + 1                                                  042  LM00053
 00274 CLA +0 50000 0 00013    00275 ADD +0 40000 0 00044    00276 STO +0 60100 0 00013
                 MOD = (OCABC.(MODE)).V.606060K6                                    043  LM00054
 00277 TSX +0 07400 4 00005    00300 TXH +3 00000 0 00025    00301 STO +0 60100 0 00462    00302 CAL -0 50000 0 00462
 00303 ORA -0 50100 0 00067    00304 SLW +0 60200 0 00026
                 NOREC = BZEL.(DERBC.(NOREC))                                       044  LM00055
 00305 TSX +0 07400 4 00002    00306 TXH +3 00000 0 00032    00307 STO +0 60100 0 00462    00310 TSX +0 07400 4 00001
 00311 TXH +3 00000 0 00462    00312 STO +0 60100 0 00032
                 TEMP = BUFF(M3).RS.18                                              045  LM00056
 00313 LXA +0 53400 1 00022    00314 CAL -0 50000 0 00050    00315 STA +0 62100 0 00317    00316 CAL -0 50000 1 00024
 00317 LGR -0 76500 0 00000    00320 SLW +0 60200 0 00040
                 MO = DERBC.((TEMP.RS.5).A.17K)                                     046  LM00057
 00321 CAL -0 50000 0 00046    00322 STA +0 62100 0 00324    00323 CAL -0 50000 0 00040    00324 LGR -0 76500 0 00000
 00325 ANA -0 32000 0 00047    00326 SLW +0 60200 0 00462    00327 TSX +0 07400 4 00002    00330 TXH +3 00000 0 00462
 00331 STO +0 60100 0 00027
                 DA = DERBC.(TEMP.A.37K)                                            047  LM00058
 00332 CAL -0 50000 0 00040    00333 ANA -0 32000 0 00052    00334 SLW +0 60200 0 00462    00335 TSX +0 07400 4 00002
 00336 TXH +3 00000 0 00462    00337 STO +0 60100 0 00015
                 DATE = (MO.LS.18).V.DA.V.$ 00/00$                                  048  LM00059
 00340 CAL -0 50000 0 00050    00341 STA +0 62100 0 00343    00342 CAL -0 50000 0 00027    00343 ALS +0 76700 0 00000
 00344 ORA -0 50100 0 00015    00345 ORA -0 50100 0 00065    00346 SLW +0 60200 0 00016
                 PRMESS.(N1,BL,N2,MOD,NOREC,DATE,AUTH)                              049  LM00060
 00347 TSX +0 07400 4 00006    00350 TXH +3 00000 0 00030    00351 TXH +3 00000 0 00011    00352 TXH +3 00000 0 00031
 00353 TXH +3 00000 0 00026    00354 TXH +3 00000 0 00032    00355 TXH +3 00000 0 00016    00356 TXH +3 00000 0 00010
                 F'N                                                                050  LM00061
 00357 TRA +0 02000 0 00456
                 E'O FPRINT.                                                        051  LM00066
 00360 TRA +0 02000 0 00363    00361 SXA +0 63400 2 00431    00362 TSX +0 07400 2 00431
                 COUNT = BZ57.(DERBC.(COUNT))                                       052  LM00067
 00363 TSX +0 07400 4 00002    00364 TXH +3 00000 0 00013    00365 STO +0 60100 0 00462    00366 TSX +0 07400 4 00000
 00367 TXH +3 00000 0 00462    00370 STO +0 60100 0 00013
                 SUBTOT = BZEL.(DERBC.(SUBTOT))                                     053  LM00068
 00371 TSX +0 07400 4 00002    00372 TXH +3 00000 0 00035    00373 STO +0 60100 0 00462    00374 TSX +0 07400 4 00001
 00375 TXH +3 00000 0 00462    00376 STO +0 60100 0 00035
                 PRMESS.(TAB2,SUBTOT)                                               054  LM00069
 00377 TSX +0 07400 4 00006    00400 TXH +3 00000 0 00037    00401 TXH +3 00000 0 00035
                 TOTAL = BZEL.(DERBC.(TOTAL))                                       055  LM00070
 00402 TSX +0 07400 4 00002    00403 TXH +3 00000 0 00042    00404 STO +0 60100 0 00462    00405 TSX +0 07400 4 00001
 00406 TXH +3 00000 0 00462    00407 STO +0 60100 0 00042
                 PRMESS.(CR,CR,CR,$TOTAL FILES =$,COUNT, $,  TOTAL RECORDS =$,      056  LM00071
                1 TOTAL,CR,CR,CR)                                                   056  LM00072
 00410 TSX +0 07400 4 00006    00411 TXH +3 00000 0 00014    00412 TXH +3 00000 0 00014    00413 TXH +3 00000 0 00014
 00414 TXH +3 00000 0 00075    00415 TXH +3 00000 0 00062    00416 TXH +3 00000 0 00054    00417 TXH +3 00000 0 00013
 00420 TXH +3 00000 0 00076    00421 TXH +3 00000 0 00055    00422 TXH +3 00000 0 00064    00423 TXH +3 00000 0 00042
 00424 TXH +3 00000 0 00014    00425 TXH +3 00000 0 00014    00426 TXH +3 00000 0 00014
                 F'N                                                                057  LM00073
 00427 TRA +0 02000 0 00456
                 E'N                                                                058  LM00074
 00430 TSX +0 07400 4 00003    00431 TXH +3 00000 0 00000    00432 SXD -0 63400 1 00431    00433 SXA +0 63400 4 00456
 00434 CLA +0 50000 4 00001    00435 STA +0 62100 0 00234    00436 STO +0 60100 0 00256    00437 STA +0 62100 0 00262
 00440 CLA +0 50000 4 00002    00441 STA +0 62100 0 00171    00442 STA +0 62100 0 00231    00443 STO +0 60100 0 00260
 00444 STA +0 62100 0 00264    00445 CLA +0 50000 4 00003    00446 STA +0 62100 0 00131    00447 STA +0 62100 0 00134
 00450 STA +0 62100 0 00146    00451 STO +0 60100 0 00160    00452 STA +0 62100 0 00205    00453 STA +0 62100 0 00224
 00454 STA +0 62100 0 00316    00455 TRA +0 02000 2 00001    00456 AXT +0 77400 4 00000    00457 LXA +0 53400 2 00431
 00460 LXD -0 53400 1 00431    00461 TRA +0 02000 4 00001


 AUDIT   BCD 10/12/70 1514.4    8710         00000
1     MAD PROGRAM LISTING ... ... ...                 FILE   AUDIT   MAD            02/15/68    1319.3
-
                      PROGRAM TO AUDIT LENGTHS OF COMMANDS                                             LM00001
                      AND CHECK FOR ANOMALIES                                                          LM00002
                                                                                                       LM00003
                      LOADING INSTRUCTIONS                                                             LM00004
                                                                                                       LM00005
                           MAD AUDIT (LIST)                                                            LM00006
                           NCLOAD AUDIT (CFL1) (LIBE) XLIBE                                            LM00007
                           SAVE AUDIT                                                                  LM00008
                           R AUDIT                                                                     LM00009
                                                                                                       LM00010
                      D.R. WIDRIG  DEC. 1965                                                           LM00011
                                                                                                       LM00012
                  NORMAL MODE IS INTEGER                                                          *001 LM00013
                  BOOLEAN SW                                                                      *002 LM00014
                                                                                                       LM00015
                  DIMENSION DRAIN(7),V(2),BUFF1(432),BUFF2(432)                                   *003 LM00016
                  DIMENSION COMAND(600),DIR(400)                                                  *004 LM00017
                                                                                                       LM00018
                  VECTOR VALUES M = $ M1416$                                                      *005 LM00019
                  VECTOR VALUES CF2 = $CMFL02$                                                    *006 LM00020
                  VECTOR VALUES UFD = $U.F.D.$                                                    *007 LM00021
                  VECTOR VALUES FILE = $(FILE)$                                                   *008 LM00022
                  VECTOR VALUES TSSDC = $TSSDC.$                                                  *009 LM00023
                                                                                                       LM00024
                  VECTOR VALUES MZE = 4K11                                                        *010 LM00025
                  VECTOR VALUES R = 432                                                           *011 LM00026
                                                                                                       LM00027
                  VECTOR VALUES MESS1 = 0,$ TSSDC. LENGTH IS $,0,777777777777K                    *012 LM00028
                  VECTOR VALUES MESS2 = 0,$ TSSDC. NOT FOUND$,777777777777K                       *013 LM00029
                  VECTOR VALUES MESS3 = $CANNOT CONTINUE$,777777777777K                           *014 LM00030
                  VECTOR VALUES MESS4 = $     PRIVILEGED COMMAND $,0,                             *015 LM00031
                1      $ TSSDC. IS LINKED$,777777777777K                                          *015 LM00032
                  VECTOR VALUES MESS5 = $LINKED COMMAND... $,0,$ TSSDC.$,                         *016 LM00033
                1      777777777777K                                                              *016 LM00034
                  VECTOR VALUES MESS6 = $ MODE $,0,$ FOR COMMAND FILE $,0,                        *017 LM00035
                1      $ TSSDC.$,777777777777K                                                    *017 LM00036
                                                                                                       LM00037
                      REMEMBERING WHERE YOU WERE, ATTACH TO COMFIL 2                                   LM00038
                                                                                                       LM00039
                  ATTNAM.(V(2)...2,ERR1)                                                          *018 LM00040
                  ATTACH.(M,CF2,ERR1)                                                             *019 LM00041
                                                                                                       LM00042
                      SET POINTERS AND GET MAX. ALLOWABLE LENGTH                                       LM00043
                                                                                                       LM00044
                  C = 0                                                                           *020 LM00045
                  D = 0                                                                           *021 LM00046
                  LMAX = 4096 + 37 + 124                                                          *022 LM00047
                                                                                                       LM00048
                      OPEN UFD AND DRAIN OFF QUOTA WORDS                                               LM00049
                                                                                                       LM00050
                  BFOPEN.($R$,UFD,FILE,BUFF1(R),BUFF2(R),MZE,ERR1)                                *023 LM00051
                  BFREAD.(UFD,FILE,DRAIN(3)...3,REOF,EOFCT,ERR2)                                  *024 LM00052
                                                                                                       LM00053
                      READ UFD AND TEST FOR COMMAND FILE                                               LM00054
                                                                                                       LM00055
      READ        BFREAD.(UFD,FILE,DRAIN(7)...7,REOF,EOFCT,ERR2)                                  *025 LM00056
                  WHENEVER (DRAIN(6) .NE. TSSDC), TRANSFER TO READ                                *026 LM00057
                                                                                                       LM00058
                      COMMAND FILE, GET LENGTH                                                         LM00059
                                                                                                       LM00060
                  FSTATE.(DRAIN(7),DRAIN(6),DRAIN(2)...2,ERR3,ERCODE)                             *027 LM00061
                  COMAND(C) = DRAIN(7)                                                            *028 LM00062
                  COMAND(C+1) = DRAIN(2)                                                          *029 LM00063
                  COMAND(C+2) = DRAIN(1)                                                          *030 LM00064
                  C = C + 3                                                                       *031 LM00065
                  TRANSFER TO READ                                                                *032 LM00066
                                                                                                       LM00067
                      ERROR FROM FSTATE, CHECK IT                                                      LM00068
                                                                                                       LM00069
      ERR3        WHENEVER (ERCODE .NE. 3)                                                        *033 LM00070
                       COMAND(C) = DRAIN(7)                                                       *034 LM00071
                       COMAND(C+1) = 0                                                            *035 LM00072
                       COMAND(C+2) = MZE                                                          *036 LM00073
                       C = C +3                                                                   *037 LM00074
                       TRANSFER TO READ                                                           *038 LM00075
                  OTHERWISE                                                                       *039 LM00076
                       PRNTER.                                                                    *040 LM00077
                       TRANSFER TO READ                                                           *041 LM00078
                  END OF CONDITIONAL                                                              *042 LM00079
                                                                                                       LM00080
                      EOF, DIG INTO SUPERVISOR COMMAND DIRECTORY                                       LM00081
                                                                                                       LM00082
      REOF        COMDIR = ACORE.($COMDIR$) .RS. 18                                               *043 LM00083
                  CTABL = GLOC.(COMDIR) .A. 77777K - 1                                            *044 LM00084
                  LENGTH = GLOC.(COMDIR) .RS. 18                                                  *045 LM00085
                  STOP = CTABL - LENGTH + 1                                                       *046 LM00086
                                                                                                       LM00087
                  THROUGH LOOP2, FOR I = CTABL,-3,(I.L.STOP)                                      *047 LM00088
                       WORD = GLOC.(I-1)                                                          *048 LM00089
                       CONTRL = WORD .RS. 33                                                      *049 LM00090
                       POINTR = (WORD .RS. 18) .A. 77777K                                         *050 LM00091
                                                                                                       LM00092
                      TEST FOR TRANSFER COMMANDS                                                       LM00093
                                                                                                       LM00094
                       WHENEVER (POINTR .E. 0), TRANSFER TO LOOP2                                 *051 LM00095
                       DIR(D) = GLOC.(POINTR)                                                     *052 LM00096
                       DIR(D+1) = CONTRL                                                          *053 LM00097
                       D = D + 2                                                                  *054 LM00098
      LOOP2       CONTINUE                                                                        *055 LM00099
                                                                                                       LM00100
                      NOW MATCH TWO COMMAND LISTS                                                      LM00101
                                                                                                       LM00102
                  THROUGH LOOP4, FOR I = 0,3,(I.GE.C)                                             *056 LM00103
                                                                                                       LM00104
                      CHECK FOR LINKED COMMAND AND MODE                                                LM00105
                                                                                                       LM00106
                       WHENEVER ((COMAND(I+2).RS.35).NE.0)                                        *057 LM00107
                            MESS5(3) = COMAND(I)                                                  *058 LM00108
                            PRNTP.(MESS5)                                                         *059 LM00109
                       OR WHENEVER (COMAND(I+2).NE.104K)                                          *060 LM00110
                            MESS6(5) = COMAND(I)                                                  *061 LM00111
                            MESS6(1) = OCRBC.(COMAND(I+2)) .V. 575757K6                           *062 LM00112
                            PRNTP.(MESS6)                                                         *063 LM00113
                       END OF CONDITIONAL                                                         *064 LM00114
                                                                                                       LM00115
                      CHECK FOR DUMMY LENGTHS                                                          LM00116
                                                                                                       LM00117
                       WHENEVER (COMAND(I+1) .E. 0)                                               *065 LM00118
                            MESS1(0) = COMAND(I)                                                  *066 LM00119
                            MESS1(4) = 575757576000K                                              *067 LM00120
                            PRNTP.(MESS1)                                                         *068 LM00121
                       END OF CONDITIONAL                                                         *069 LM00122
                                                                                                       LM00123
                       SW = 0B                                                                    *070 LM00124
                       THROUGH LOOP3, FOR J = 0,2,(J.GE.D)                                        *071 LM00125
                            WHENEVER COMAND(I) .NE. DIR(J)                                        *072 LM00126
                                 TRANSFER TO LOOP3                                                *073 LM00127
                            OTHERWISE                                                             *074 LM00128
                                 WHENEVER (DIR(J+1).E.2).AND.                                     *075 LM00129
                1                (COMAND(I+2).RS.35).NE.0                                         *075 LM00130
                                      MESS4(4) = DIR(J)                                           *076 LM00131
                                      PRNTP.(MESS4)                                               *077 LM00132
                                 END OF CONDITIONAL                                               *078 LM00133
                                 DIR(J) = 0                                                       *079 LM00134
                                 SW = 1B                                                          *080 LM00135
                            END OF CONDITIONAL                                                    *081 LM00136
      LOOP3            CONTINUE                                                                   *082 LM00137
                       WHENEVER SW, TRANSFER TO LOOP4                                             *083 LM00138
                                                                                                       LM00139
                      NOT IN DIRECTORY, CHECK LENGTH                                                   LM00140
                                                                                                       LM00141
                       WHENEVER (COMAND(I+1) .G. LMAX)                                            *084 LM00142
                            MESS1(0) = COMAND(I)                                                  *085 LM00143
                            MESS1(4) = BZEL.(DERBC.(COMAND(I+1)))                                 *086 LM00144
                            PRNTP.(MESS1)                                                         *087 LM00145
                       END OF CONDITIONAL                                                         *088 LM00146
      LOOP4       CONTINUE                                                                        *089 LM00147
                                                                                                       LM00148
                      NOW CHECK FOR COMMANDS NOT FOUND                                                 LM00149
                                                                                                       LM00150
                  THROUGH LOOP5, FOR I = 0,2,(I.GE.D)                                             *090 LM00151
                       WHENEVER DIR(I) .NE. 0                                                     *091 LM00152
                            MESS2(0) = DIR(I)                                                     *092 LM00153
                            PRNTP.(MESS2)                                                         *093 LM00154
                       END OF CONDITIONAL                                                         *094 LM00155
      LOOP5       CONTINUE                                                                        *095 LM00156
                                                                                                       LM00157
      SCRAM       ATTACH.(V(2),V(1),NERR1)                                                        *096 LM00158
      NERR1       CHNCOM.(0)                                                                      *097 LM00159
                                                                                                       LM00160
      ERR1        PRNTER.                                                                         *098 LM00161
                  PRNTP.(MESS3)                                                                   *099 LM00162
                  TRANSFER TO SCRAM                                                               *100 LM00163
                                                                                                       LM00164
      ERR2        PRNTER.                                                                         *101 LM00165
                  PRNTP.(MESS3)                                                                   *102 LM00166
                  BFCLOS.(UFD,FILE,SCRAM)                                                         *103 LM00167
                  TRANSFER TO SCRAM                                                               *104 LM00168
                                                                                                       LM00169
                  END OF PROGRAM                                                                  *105 LM00170
1MAD PROGRAM,TYPE NOV 1963      (ALL NUMBERS ARE OCTAL)
0TOTAL LOCATIONS   04435 TRANSFER VECTOR LENGTH  00020 PROGRAM BEGINS    03702
0VARIABLE STORAGE (A=ARRAY,C=COMMON,E=ERASABLE,DIGIT=MODE)
      BUFF1  00713 A 1        DRAIN  03563 A 1        J      03571   1        MESS3  03612 A 1        REOF   00031   4
      BUFF2  01574 A 1        D      03564   1        LENGTH 03572   1        MESS4  03623 A 1        R      03647 A 1
      CF2    01575 A 1        EOFCT  03565   1        LMAX   03573   1        MESS5  03632 A 1        SCRAM  00032   4
      COMAND 02726 A 1        ERCODE 03566   1        LOOP2  00024   4        MESS6  03643 A 1        STOP   03650   1
      COMDIR 02727   1        ERR1   00021   4        LOOP3  00025   4        M      03644 A 1        SW     03651   2
      CONTRL 02730   1        ERR2   00022   4        LOOP4  00026   4        MZE    03645 A 1        TSSDC  03652 A 1
      C      02731   1        ERR3   00023   4        LOOP5  00020   4        NERR1  00027   4        UFD    03653 A 1
      CTABL  02732   1        FILE   03567 A 1        MESS1  03601 A 1        POINTR 03646   1        V      03656 A 1
      DIR    03553 A 1        I      03570   1        MESS2  03606 A 1        READ   00030   4        WORD   03657   1
0FUNCTION DICTIONARY
      ACORE  00000   1        ATTACH 00001   1        ATTNAM 00002   1        BFCLOS 00003   1        BFOPEN 00004   1
      BFREAD 00005   1        BZEL   00006   1        CHNCOM 00007   1        DERBC  00010   1        EXIT   00011   1
      FSTATE 00012   1        GLOC   00013   1        .SETUP 00014   1        OCRBC  00015   1        PRNTER 00016   1
      PRNTP  00017   1
0ABSOLUTE CONSTANTS
 03701 -175757576000     03700 -175757000000     03671 +000000000104     03667 +000000000043     03666 +000000000041
 03674 +000000077777     03665 +000000000022     03676 +234644243151     03664 +000000000007     03663 +000000000003
 03677 -116060606060     03672 +000000000174     03670 +000000000045     03673 +000000010000     03660 +000000000000
 03662 +000000000002     03661 +000000000001     03675 +233000000000
0STATEMENT DICTIONARY
 00021 TXL -304416004415       00022 TXL -304422004421       00023 TXL -304016004013       00024 TXL -304153004152
 00025 TXL -304330004327       00026 TXL -304363004362       00027 TXL -304415004413       00030 TXL -303760003751
 00031 TXL -304052004042       00032 TXL -304413004407
0PROGRAM
                 N'R                                                                001  LM00013
                 B'N SW                                                             002  LM00014
                 D'N DRAIN(7),V(2),BUFF1(432),BUFF2(432)                            003  LM00016
                 D'N COMAND(600),DIR(400)                                           004  LM00017
                 V'S M = $ M1416$                                                   005  LM00019
 03702 TSX +0 07400 4 00014    03644     -2 04401 0 40106
                 V'S CF2 = $CMFL02$                                                 006  LM00020
 01575     +2 34426 4 30002
                 V'S UFD = $U.F.D.$                                                 007  LM00021
 03653     -2 43326 3 32433
                 V'S FILE = $(FILE)$                                                008  LM00022
 03567     -3 42631 4 32534
                 V'S TSSDC = $TSSDC.$                                               009  LM00023
 03652     -2 36262 2 42333
                 V'S MZE = 4K11                                                     010  LM00025
 03645     -0 00000 0 00000
                 V'S R = 432                                                        011  LM00026
 03647     +0 00000 0 00660
                 V'S MESS1 = 0,$ TSSDC. LENGTH IS $,0,777777777777K                 012  LM00028
 03574     -3 77777 7 77777    03575     +0 00000 0 00000    03576     -2 33060 3 16260    03577     +3 36043 2 54527
 03600     -2 06362 6 22423    03601     +0 00000 0 00000
                 V'S MESS2 = 0,$ TSSDC. NOT FOUND$,777777777777K                    013  LM00029
 03602     -3 77777 7 77777    03603     +2 64664 4 52460    03604     +3 36045 4 66360    03605     -2 06362 6 22423
 03606     +0 00000 0 00000
                 V'S MESS3 = $CANNOT CONTINUE$,777777777777K                        014  LM00030
 03607     -3 77777 7 77777    03610     -0 56425 6 06060    03611     -2 02346 4 56331    03612     +2 32145 4 54663
                 V'S MESS4 = $     PRIVILEGED COMMAND $,0,                          015  LM00031
                1     $ TSSDC. IS LINKED$,777777777777K                             015  LM00032
 03613     -3 77777 7 77777    03614     +3 14542 2 52460    03615     +3 36031 6 26043    03616     -2 06362 6 22423
 03617     +0 00000 0 00000    03620     -0 44421 4 52460    03621     +2 72524 6 02346    03622     -1 13165 3 14325
 03623     -2 06060 6 06047
                 V'S MESS5 = $LINKED COMMAND... $,0,$ TSSDC.$,                      016  LM00033
                1     777777777777K                                                 016  LM00034
 03624     -3 77777 7 77777    03625     +3 36060 6 06060    03626     -2 06362 6 22423    03627     +0 00000 0 00000
 03630     -0 52433 3 33360    03631     -2 02346 4 44421    03632     -0 33145 4 22524
                 V'S MESS6 = $ MODE $,0,$ FOR COMMAND FILE $,0,                     017  LM00035
                1     $ TSSDC.$,777777777777K                                       017  LM00036
 03633     -3 77777 7 77777    03634     +3 36060 6 06060    03635     -2 06362 6 22423    03636     +0 00000 0 00000
 03637     -2 02631 4 32560    03640     -0 64444 2 14524    03641     -2 02646 5 16023    03642     +0 00000 0 00000
 03643     -2 04446 2 42560
                 ATTNAM.(V(2)...2,ERR1)                                             018  LM00040
 03703 TSX +0 07400 4 00002    03704 TIX +2 03662 0 03654    03705 TXH +3 00000 0 00021
                 ATTACH.(M,CF2,ERR1)                                                019  LM00041
 03706 TSX +0 07400 4 00001    03707 TXH +3 00000 0 03644    03710 TXH +3 00000 0 01575    03711 TXH +3 00000 0 00021
                 C = 0                                                              020  LM00045
 03712 CLA +0 50000 0 03660    03713 STO +0 60100 0 02731
                 D = 0                                                              021  LM00046
 03714 CLA +0 50000 0 03660    03715 STO +0 60100 0 03564
                 LMAX = 4096 + 37 + 124                                             022  LM00047
 03716 CLA +0 50000 0 03673    03717 ADD +0 40000 0 03670    03720 ADD +0 40000 0 03672    03721 STO +0 60100 0 03573
                 BFOPEN.($R$,UFD,FILE,BUFF1(R),BUFF2(R),MZE,ERR1)                   023  LM00051
 03722 CLA +0 50000 0 03647    03723 SUB +0 40200 0 03724    03724 TXH +3 00000 0 01574    03725 STA +0 62100 0 03737
 03726 CLA +0 50000 0 03647    03727 SUB +0 40200 0 03730    03730 TXH +3 00000 0 00713    03731 STA +0 62100 0 03736
 03732 TSX +0 07400 4 00004    03733 TXH +3 00000 0 03677    03734 TXH +3 00000 0 03653    03735 TXH +3 00000 0 03567
 03736 TXH +3 00000 0 00000    03737 TXH +3 00000 0 00000    03740 TXH +3 00000 0 03645    03741 TXH +3 00000 0 00021
                 BFREAD.(UFD,FILE,DRAIN(3)...3,REOF,EOFCT,ERR2)                     024  LM00052
 03742 TSX +0 07400 4 00005    03743 TXH +3 00000 0 03653    03744 TXH +3 00000 0 03567    03745 TIX +2 03663 0 03560
 03746 TXH +3 00000 0 00031    03747 TXH +3 00000 0 03565    03750 TXH +3 00000 0 00022
      READ       BFREAD.(UFD,FILE,DRAIN(7)...7,REOF,EOFCT,ERR2)                     025  LM00056
 03751 TSX +0 07400 4 00005    03752 TXH +3 00000 0 03653    03753 TXH +3 00000 0 03567    03754 TIX +2 03664 0 03554
 03755 TXH +3 00000 0 00031    03756 TXH +3 00000 0 03565    03757 TXH +3 00000 0 00022
                 W'R (DRAIN(6) .NE. TSSDC), T'O READ                                026  LM00057
 03760 CLA +0 50000 0 03555    03761 SUB +0 40200 0 03652    03762 TZE +0 10000 0 03764    03763 TRA +0 02000 0 00030
                 FSTATE.(DRAIN(7),DRAIN(6),DRAIN(2)...2,ERR3,ERCODE)                027  LM00061
 03764 TSX +0 07400 4 00012    03765 TXH +3 00000 0 03554    03766 TXH +3 00000 0 03555    03767 TIX +2 03662 0 03561
 03770 TXH +3 00000 0 00023    03771 TXH +3 00000 0 03566
                 COMAND(C) = DRAIN(7)                                               028  LM00062
 03772 LXA +0 53400 1 02731    03773 CLA +0 50000 0 03554    03774 STO +0 60100 1 02726
                 COMAND(C+1) = DRAIN(2)                                             029  LM00063
 03775 CLA +0 50000 0 02731    03776 ADD +0 40000 0 03661    03777 PAX +0 73400 1 00000    04000 CLA +0 50000 0 03561
 04001 STO +0 60100 1 02726
                 COMAND(C+2) = DRAIN(1)                                             030  LM00064
 04002 CLA +0 50000 0 02731    04003 ADD +0 40000 0 03662    04004 PAX +0 73400 1 00000    04005 CLA +0 50000 0 03562
 04006 STO +0 60100 1 02726
                 C = C + 3                                                          031  LM00065
 04007 CLA +0 50000 0 02731    04010 ADD +0 40000 0 03663    04011 STO +0 60100 0 02731
                 T'O READ                                                           032  LM00066
 04012 TRA +0 02000 0 00030
      ERR3       W'R (ERCODE .NE. 3)                                                033  LM00070
 04013 CLA +0 50000 0 03566    04014 SUB +0 40200 0 03663    04015 TZE +0 10000 0 04040
                      COMAND(C) = DRAIN(7)                                          034  LM00071
 04016 LXA +0 53400 1 02731    04017 CLA +0 50000 0 03554    04020 STO +0 60100 1 02726
                      COMAND(C+1) = 0                                               035  LM00072
 04021 CLA +0 50000 0 02731    04022 ADD +0 40000 0 03661    04023 PAX +0 73400 1 00000    04024 CLA +0 50000 0 03660
 04025 STO +0 60100 1 02726
                      COMAND(C+2) = MZE                                             036  LM00073
 04026 CLA +0 50000 0 02731    04027 ADD +0 40000 0 03662    04030 PAX +0 73400 1 00000    04031 CLA +0 50000 0 03645
 04032 STO +0 60100 1 02726
                      C = C +3                                                      037  LM00074
 04033 CLA +0 50000 0 02731    04034 ADD +0 40000 0 03663    04035 STO +0 60100 0 02731
                      T'O READ                                                      038  LM00075
 04036 TRA +0 02000 0 00030
                 O'E                                                                039  LM00076
 04037 TRA +0 02000 0 04042
                      PRNTER.                                                       040  LM00077
 04040 TSX +0 07400 4 00016
                      T'O READ                                                      041  LM00078
 04041 TRA +0 02000 0 00030
                 E'L                                                                042  LM00079
      REOF       COMDIR = ACORE.($COMDIR$) .RS. 18                                  043  LM00083
 04042 TSX +0 07400 4 00000    04043 TXH +3 00000 0 03676    04044 STO +0 60100 0 04432    04045 CAL -0 50000 0 03665
 04046 STA +0 62100 0 04050    04047 CAL -0 50000 0 04432    04050 LGR -0 76500 0 00000    04051 SLW +0 60200 0 02727
                 CTABL = GLOC.(COMDIR) .A. 77777K - 1                               044  LM00084
 04052 TSX +0 07400 4 00013    04053 TXH +3 00000 0 02727    04054 STO +0 60100 0 04432    04055 CAL -0 50000 0 04432
 04056 ANA -0 32000 0 03674    04057 SLW +0 60200 0 04432    04060 CLA +0 50000 0 04432    04061 SUB +0 40200 0 03661
 04062 STO +0 60100 0 02732
                 LENGTH = GLOC.(COMDIR) .RS. 18                                     045  LM00085
 04063 TSX +0 07400 4 00013    04064 TXH +3 00000 0 02727    04065 STO +0 60100 0 04432    04066 CAL -0 50000 0 03665
 04067 STA +0 62100 0 04071    04070 CAL -0 50000 0 04432    04071 LGR -0 76500 0 00000    04072 SLW +0 60200 0 03572
                 STOP = CTABL - LENGTH + 1                                          046  LM00086
 04073 CLA +0 50000 0 02732    04074 SUB +0 40200 0 03572    04075 ADD +0 40000 0 03661    04076 STO +0 60100 0 03650
                 T'H LOOP2, FOR I = CTABL,-3,(I.L.STOP)                             047  LM00088
 04077 CLA +0 50000 0 02732    04100 STO +0 60100 0 03570    04101 TRA +0 02000 0 04105    04102 CLS +0 50200 0 03663
 04103 ADD +0 40000 0 03570    04104 STO +0 60100 0 03570    04105 CLA +0 50000 0 03570    04106 SUB +0 40200 0 03650
 04107 TZE +0 10000 0 04111    04110 TMI -0 12000 0 04153
                      WORD = GLOC.(I-1)                                             048  LM00089
 04111 CLA +0 50000 0 03570    04112 SUB +0 40200 0 03661    04113 STO +0 60100 0 04432    04114 TSX +0 07400 4 00013
 04115 TXH +3 00000 0 04432    04116 STO +0 60100 0 03657
                      CONTRL = WORD .RS. 33                                         049  LM00090
 04117 CAL -0 50000 0 03666    04120 STA +0 62100 0 04122    04121 CAL -0 50000 0 03657    04122 LGR -0 76500 0 00000
 04123 SLW +0 60200 0 02730
                      POINTR = (WORD .RS. 18) .A. 77777K                            050  LM00091
 04124 CAL -0 50000 0 03665    04125 STA +0 62100 0 04127    04126 CAL -0 50000 0 03657    04127 LGR -0 76500 0 00000
 04130 ANA -0 32000 0 03674    04131 SLW +0 60200 0 03646
                      W'R (POINTR .E. 0), T'O LOOP2                                 051  LM00095
 04132 CLA +0 50000 0 03646    04133 SUB +0 40200 0 03660    04134 TNZ -0 10000 0 04136    04135 TRA +0 02000 0 00024
                      DIR(D) = GLOC.(POINTR)                                        052  LM00096
 04136 TSX +0 07400 4 00013    04137 TXH +3 00000 0 03646    04140 LXA +0 53400 1 03564    04141 STO +0 60100 1 03553
                      DIR(D+1) = CONTRL                                             053  LM00097
 04142 CLA +0 50000 0 03564    04143 ADD +0 40000 0 03661    04144 PAX +0 73400 1 00000    04145 CLA +0 50000 0 02730
 04146 STO +0 60100 1 03553
                      D = D + 2                                                     054  LM00098
 04147 CLA +0 50000 0 03564    04150 ADD +0 40000 0 03662    04151 STO +0 60100 0 03564
      LOOP2      C'E                                                                055  LM00099
 04152 TRA +0 02000 0 04102
                 T'H LOOP4, FOR I = 0,3,(I.GE.C)                                    056  LM00103
 04153 CLA +0 50000 0 03660    04154 STO +0 60100 0 03570    04155 TRA +0 02000 0 04161    04156 CLA +0 50000 0 03570
 04157 ADD +0 40000 0 03663    04160 STO +0 60100 0 03570    04161 CLA +0 50000 0 03570    04162 SUB +0 40200 0 02731
 04163 TZE +0 10000 0 04363    04164 TPL +0 12000 0 04363
                      W'R ((COMAND(I+2).RS.35).NE.0)                                057  LM00107
 04165 CLA +0 50000 0 03570    04166 ADD +0 40000 0 03662    04167 PAX +0 73400 1 00000    04170 CAL -0 50000 0 03667
 04171 STA +0 62100 0 04173    04172 CAL -0 50000 1 02726    04173 LGR -0 76500 0 00000    04174 SLW +0 60200 0 04432
 04175 CLA +0 50000 0 04432    04176 SUB +0 40200 0 03660    04177 TZE +0 10000 0 04206
                           MESS5(3) = COMAND(I)                                     058  LM00108
 04200 LXA +0 53400 2 03570    04201 CLA +0 50000 2 02726    04202 STO +0 60100 0 03627
                           PRNTP.(MESS5)                                            059  LM00109
 04203 TSX +0 07400 4 00017    04204 TXH +3 00000 0 03632
                      O'R (COMAND(I+2).NE.104K)                                     060  LM00110
 04205 TRA +0 02000 0 04234    04206 CLA +0 50000 0 03570    04207 ADD +0 40000 0 03662    04210 PAX +0 73400 1 00000
 04211 CLA +0 50000 1 02726    04212 SUB +0 40200 0 03671    04213 TZE +0 10000 0 04234
                           MESS6(5) = COMAND(I)                                     061  LM00111
 04214 LXA +0 53400 2 03570    04215 CLA +0 50000 2 02726    04216 STO +0 60100 0 03636
                           MESS6(1) = OCRBC.(COMAND(I+2)) .V. 575757K6              062  LM00112
 04217 CLA +0 50000 0 03570    04220 ADD +0 40000 0 03662    04221 SUB +0 40200 0 04222    04222 TXH +3 00000 0 02726
 04223 STA +0 62100 0 04225    04224 TSX +0 07400 4 00015    04225 TXH +3 00000 0 00000    04226 STO +0 60100 0 04432
 04227 CAL -0 50000 0 04432    04230 ORA -0 50100 0 03700    04231 SLW +0 60200 0 03642
                           PRNTP.(MESS6)                                            063  LM00113
 04232 TSX +0 07400 4 00017    04233 TXH +3 00000 0 03643
                      E'L                                                           064  LM00114
                      W'R (COMAND(I+1) .E. 0)                                       065  LM00118
 04234 CLA +0 50000 0 03570    04235 ADD +0 40000 0 03661    04236 PAX +0 73400 1 00000    04237 CLA +0 50000 1 02726
 04240 SUB +0 40200 0 03660    04241 TNZ -0 10000 0 04251
                           MESS1(0) = COMAND(I)                                     066  LM00119
 04242 LXA +0 53400 2 03570    04243 CLA +0 50000 2 02726    04244 STO +0 60100 0 03601
                           MESS1(4) = 575757576000K                                 067  LM00120
 04245 CLA +0 50000 0 03701    04246 STO +0 60100 0 03575
                           PRNTP.(MESS1)                                            068  LM00121
 04247 TSX +0 07400 4 00017    04250 TXH +3 00000 0 03601
                      E'L                                                           069  LM00122
                      SW = 0B                                                       070  LM00124
 04251 CLA +0 50000 0 03660    04252 STO +0 60100 0 03651
                      T'H LOOP3, FOR J = 0,2,(J.GE.D)                               071  LM00125
 04253 CLA +0 50000 0 03660    04254 STO +0 60100 0 03571    04255 TRA +0 02000 0 04261    04256 CLA +0 50000 0 03571
 04257 ADD +0 40000 0 03662    04260 STO +0 60100 0 03571    04261 CLA +0 50000 0 03571    04262 SUB +0 40200 0 03564
 04263 TZE +0 10000 0 04330    04264 TPL +0 12000 0 04330
                           W'R COMAND(I) .NE. DIR(J)                                072  LM00126
 04265 LXA +0 53400 1 03570    04266 LXA +0 53400 2 03571    04267 CLA +0 50000 1 02726    04270 SUB +0 40200 2 03553
 04271 TZE +0 10000 0 04274
                                T'O LOOP3                                           073  LM00127
 04272 TRA +0 02000 0 00025
                           O'E                                                      074  LM00128
 04273 TRA +0 02000 0 04327
                                W'R (DIR(J+1).E.2).AND.                             075  LM00129
                1               (COMAND(I+2).RS.35).NE.0                            075  LM00130
 04274 CLA +0 50000 0 03570    04275 ADD +0 40000 0 03662    04276 PAX +0 73400 1 00000    04277 CAL -0 50000 0 03667
 04300 STA +0 62100 0 04302    04301 CAL -0 50000 1 02726    04302 LGR -0 76500 0 00000    04303 SLW +0 60200 0 04432
 04304 CLA +0 50000 0 04432    04305 SUB +0 40200 0 03660    04306 TZE +0 10000 0 04322    04307 CLA +0 50000 0 03571
 04310 ADD +0 40000 0 03661    04311 PAX +0 73400 1 00000    04312 CLA +0 50000 1 03553    04313 SUB +0 40200 0 03662
 04314 TNZ -0 10000 0 04322
                                     MESS4(4) = DIR(J)                              076  LM00131
 04315 LXA +0 53400 2 03571    04316 CLA +0 50000 2 03553    04317 STO +0 60100 0 03617
                                     PRNTP.(MESS4)                                  077  LM00132
 04320 TSX +0 07400 4 00017    04321 TXH +3 00000 0 03623
                                E'L                                                 078  LM00133
                                DIR(J) = 0                                          079  LM00134
 04322 LXA +0 53400 1 03571    04323 CLA +0 50000 0 03660    04324 STO +0 60100 1 03553
                                SW = 1B                                             080  LM00135
 04325 CLA +0 50000 0 03661    04326 STO +0 60100 0 03651
                           E'L                                                      081  LM00136
      LOOP3           C'E                                                           082  LM00137
 04327 TRA +0 02000 0 04256
                      W'R SW, T'O LOOP4                                             083  LM00138
 04330 NZT -0 52000 0 03651    04331 TRA +0 02000 0 04333    04332 TRA +0 02000 0 00026
                      W'R (COMAND(I+1) .G. LMAX)                                    084  LM00142
 04333 CLA +0 50000 0 03570    04334 ADD +0 40000 0 03661    04335 PAX +0 73400 1 00000    04336 CLA +0 50000 1 02726
 04337 SUB +0 40200 0 03573    04340 TZE +0 10000 0 04362    04341 TMI -0 12000 0 04362
                           MESS1(0) = COMAND(I)                                     085  LM00143
 04342 LXA +0 53400 2 03570    04343 CLA +0 50000 2 02726    04344 STO +0 60100 0 03601
                           MESS1(4) = BZEL.(DERBC.(COMAND(I+1)))                    086  LM00144
 04345 CLA +0 50000 0 03570    04346 ADD +0 40000 0 03661    04347 SUB +0 40200 0 04350    04350 TXH +3 00000 0 02726
 04351 STA +0 62100 0 04353    04352 TSX +0 07400 4 00010    04353 TXH +3 00000 0 00000    04354 STO +0 60100 0 04432
 04355 TSX +0 07400 4 00006    04356 TXH +3 00000 0 04432    04357 STO +0 60100 0 03575
                           PRNTP.(MESS1)                                            087  LM00145
 04360 TSX +0 07400 4 00017    04361 TXH +3 00000 0 03601
                      E'L                                                           088  LM00146
      LOOP4      C'E                                                                089  LM00147
 04362 TRA +0 02000 0 04156
                 T'H LOOP5, FOR I = 0,2,(I.GE.D)                                    090  LM00151
 04363 CLA +0 50000 0 03660    04364 STO +0 60100 0 03570    04365 TRA +0 02000 0 04371    04366 CLA +0 50000 0 03570
 04367 ADD +0 40000 0 03662    04370 STO +0 60100 0 03570    04371 CLA +0 50000 0 03570    04372 SUB +0 40200 0 03564
 04373 TZE +0 10000 0 04407    04374 TPL +0 12000 0 04407
                      W'R DIR(I) .NE. 0                                             091  LM00152
 04375 LXA +0 53400 1 03570    04376 CLA +0 50000 1 03553    04377 SUB +0 40200 0 03660    04400 TZE +0 10000 0 04406
                           MESS2(0) = DIR(I)                                        092  LM00153
 04401 LXA +0 53400 2 03570    04402 CLA +0 50000 2 03553    04403 STO +0 60100 0 03606
                           PRNTP.(MESS2)                                            093  LM00154
 04404 TSX +0 07400 4 00017    04405 TXH +3 00000 0 03606
                      E'L                                                           094  LM00155
      LOOP5      C'E                                                                095  LM00156
 04406 TRA +0 02000 0 04366
      SCRAM      ATTACH.(V(2),V(1),NERR1)                                           096  LM00158
 04407 TSX +0 07400 4 00001    04410 TXH +3 00000 0 03654    04411 TXH +3 00000 0 03655    04412 TXH +3 00000 0 00027
      NERR1      CHNCOM.(0)                                                         097  LM00159
 04413 TSX +0 07400 4 00007    04414 TXH +3 00000 0 03660
      ERR1       PRNTER.                                                            098  LM00161
 04415 TSX +0 07400 4 00016
                 PRNTP.(MESS3)                                                      099  LM00162
 04416 TSX +0 07400 4 00017    04417 TXH +3 00000 0 03612
                 T'O SCRAM                                                          100  LM00163
 04420 TRA +0 02000 0 00032
      ERR2       PRNTER.                                                            101  LM00165
 04421 TSX +0 07400 4 00016
                 PRNTP.(MESS3)                                                      102  LM00166
 04422 TSX +0 07400 4 00017    04423 TXH +3 00000 0 03612
                 BFCLOS.(UFD,FILE,SCRAM)                                            103  LM00167
 04424 TSX +0 07400 4 00003    04425 TXH +3 00000 0 03653    04426 TXH +3 00000 0 03567    04427 TXH +3 00000 0 00032
                 T'O SCRAM                                                          104  LM00168
 04430 TRA +0 02000 0 00032
                 E'M                                                                105  LM00170
 04431 TSX +0 07400 4 00011


BACKUP   BCD 10/12/70 1514.4    4381         00000
1     MAD PROGRAM LISTING ... ... ...                 FILE  BACKUP   MAD            02/25/69    1223.9
-
      BACKUP      PROGRAM TO BACKUP CTSS SYSTEMS                                                       LM00001
                                                                                                       LM00002
                  THE PROGRAM WILL READ A CTSSLD FILE AND CREATE A                                     LM00003
                  COMBINED FILE OF ALL THE BSS FILES SPECIFIED IN                                      LM00004
                  THE CTSSLD FILE.                                                                     LM00005
                                                                                                       LM00006
                  STAN DUNTEN (MODIFIED 2/25/69 BY RAR)                                                LM00007
                                                                                                       LM00008
                  FNI=COMARG.(1)                                                                  *001 LM00009
                  FNBO=COMARG.(2)                                                                 *002 LM00010
                  WHENEVER FNI.E.FEN .OR. FNBO.E.FEN                                              *003 LM00011
                     PRMESS.($R BACKUP SYSTEM BACKUP$)                                            *004 LM00012
                     EXITM.                                                                       *005 LM00013
                  END OF CONDITIONAL                                                              *006 LM00014
                  FERRTN.(DSKER.)                                                                 *007 LM00015
                  VECTOR VALUES FEN=777777777777K                                                 *008 LM00016
                                                                                                       LM00017
                  GETBUF.(A,N)                                                                    *009 LM00018
                  GETBUF.(B,432)                                                                  *010 LM00019
                  FNCO=FNBO                                                                       *011 LM00020
                  DELETE.(FNCO(0),FNCO(1),1,EXITM.)                                               *012 LM00021
                  DELETE.(FNBO(0),FNBO(1),1,EXITM.)                                               *013 LM00022
                  OPEN.($R$,FNI,$CTSSLD$)                                                         *014 LM00023
                  RDFILE.(FNI,$CTSSLD$,0,A(A+N)...N,EOFC,EOFCT)                                   *015 LM00024
      EOFC        CLOSE.(FNI,$CTSSLD$)                                                            *016 LM00025
                  JMAX=N                                                                          *017 LM00026
                  THROUGH SQ, FOR I=N,-14,I.LE.N-EOFCT                                            *018 LM00027
                  A(A+JMAX)=A(A+I)                                                                *019 LM00028
                  JMAX=JMAX-1                                                                     *020 LM00029
      SQ          CONTINUE                                                                        *021 LM00030
                  J=N                                                                             *022 LM00031
                  N=(JMAX/432)*432                                                                *023 LM00032
                  I=N                                                                             *024 LM00033
                  OPEN.($W$,FNBO,$   BSS$)                                                        *025 LM00034
                  BUFFER.(FNBO,$   BSS$,B(B+432)...432)                                           *026 LM00035
      LOOP        WHENEVER J.LE.JMAX, TRANSFER TO END                                             *027 LM00036
                  OPEN.($R$,A(A+J),$   BSS$)                                                      *028 LM00037
      L1          RDFILE.(A(A+J),$   BSS$,0,A(A+I)...I,EOF,EOFCT)                                 *029 LM00038
                  FWAIT.(A(A+J),$   BSS$)                                                         *030 LM00039
                  WRWAIT.(FNBO,$   BSS$,0,A(A+N)...N)                                             *031 LM00040
                  I=N                                                                             *032 LM00041
                  TRANSFER TO L1                                                                  *033 LM00042
      EOF         I=I-EOFCT                                                                       *034 LM00043
                  CLOSE.(A(A+J),$   BSS$)                                                         *035 LM00044
                  J=J-1                                                                           *036 LM00045
                  TRANSFER TO LOOP                                                                *037 LM00046
      END         X=N-I                                                                           *038 LM00047
                  WRFILE.(FNBO,$   BSS$,0,A(A+N)...X)                                             *039 LM00048
                  CLOSE.(FNBO,$   BSS$)                                                           *040 LM00049
                  OPEN.($W$,FNCO,$CTSSLD$)                                                        *041 LM00050
                  C(14)=FNBO                                                                      *042 LM00051
                  C(11)=FNI                                                                       *043 LM00052
                  WRFILE.(FNCO,$CTSSLD$,0,C(14)...14)                                             *044 LM00053
                  CLOSE.(FNCO,$CTSSLD$)                                                           *045 LM00054
                  VECTOR VALUES C(14)=0                                                           *046 LM00055
                  VECTOR VALUES C(13)=$ BACKU$                                                    *047 LM00056
                  VECTOR VALUES C(12)=$P TO$                                                      *048 LM00057
                  VECTOR VALUES C(1)=$                                     $                      *049 LM00058
                  VECTOR VALUES C(7)=$                              $                             *050 LM00059
                  EXITM.                                                                          *051 LM00060
                  VECTOR VALUES N=6000                                                            *052 LM00061
                  VECTOR VALUES FNCO(1)=$CTSSLD$                                                  *053 LM00062
                  VECTOR VALUES FNBO(1)=$   BSS$                                                  *054 LM00063
                  DIMENSION A(0),B(0)                                                             *055 LM00064
                  NORMAL MODE IS INTEGER                                                          *056 LM00065
                  END OF PROGRAM                                                                  *057 LM00066
1MAD PROGRAM,TYPE NOV 1963      (ALL NUMBERS ARE OCTAL)
0TOTAL LOCATIONS   00425 TRANSFER VECTOR LENGTH  00020 PROGRAM BEGINS    00101
0VARIABLE STORAGE (A=ARRAY,C=COMMON,E=ERASABLE,DIGIT=MODE)
      A      00026 A 1        EOFC   00022   4        FNBO   00052 A 1        JMAX   00057   1        N      00061 A 1
      B      00027 A 1        EOFCT  00047   1        FNCO   00054 A 1        J      00060   1        SQ     00020   4
      C      00046 A 1        EOF    00023   4        FNI    00055   1        L1     00024   4        X      00062   1
      END    00021   4        FEN    00050 A 1        I      00056   1        LOOP   00025   4
0FUNCTION DICTIONARY
      BUFFER 00000   1        CLOSE  00001   1        COMARG 00002   1        DELETE 00003   1        DSKER  00004   1
      EXITM  00005   1        EXIT   00006   1        FERRTN 00007   1        FWAIT  00010   1        GETBUF 00011   1
      .SETUP 00012   1        OPEN   00013   1        PRMESS 00014   1        RDFILE 00015   1        WRFILE 00016   1
      WRWAIT 00017   1
0ABSOLUTE CONSTANTS
 00075 -206060226262     00100 -266060606060     00066 +000000000016     00063 +000000000000     00072 +236362624324
 00074 -116060606060     00067 +000000000660     00071 +234264476060     00076 -232544602221     00077 -244760627062
 00073 -116022212342     00065 +000000000002     00064 +000000000001     00070 +233000000000
0STATEMENT DICTIONARY
 00021 TXL -300363000360       00022 TXL -300173000170       00023 TXL -300344000341       00024 TXL -300314000273
 00025 TXL -300262000255
0PROGRAM
                 FNI=COMARG.(1)                                                     001  LM00009
 00101 TSX +0 07400 4 00012    00102 TSX +0 07400 4 00002    00103 TXH +3 00000 0 00064    00104 STO +0 60100 0 00055
                 FNBO=COMARG.(2)                                                    002  LM00010
 00105 TSX +0 07400 4 00002    00106 TXH +3 00000 0 00065    00107 STO +0 60100 0 00052
                 W'R FNI.E.FEN .OR. FNBO.E.FEN                                      003  LM00011
 00110 CLA +0 50000 0 00052    00111 SUB +0 40200 0 00050    00112 TZE +0 10000 0 00116    00113 CLA +0 50000 0 00055
 00114 SUB +0 40200 0 00050    00115 TNZ -0 10000 0 00124
                    PRMESS.($R BACKUP SYSTEM BACKUP$)                               004  LM00012
 00116 TSX +0 07400 4 00014    00117 TXH +3 00000 0 00073    00120 TXH +3 00000 0 00077    00121 TXH +3 00000 0 00076
 00122 TXH +3 00000 0 00071
                    EXITM.                                                          005  LM00013
 00123 TSX +0 07400 4 00005
                 E'L                                                                006  LM00014
                 FERRTN.(DSKER.)                                                    007  LM00015
 00124 TSX +0 07400 4 00007    00125 TXH +3 00000 0 00004
                 V'S FEN=777777777777K                                              008  LM00016
 00050     -3 77777 7 77777
                 GETBUF.(A,N)                                                       009  LM00018
 00126 TSX +0 07400 4 00011    00127 TXH +3 00000 0 00026    00130 TXH +3 00000 0 00061
                 GETBUF.(B,432)                                                     010  LM00019
 00131 TSX +0 07400 4 00011    00132 TXH +3 00000 0 00027    00133 TXH +3 00000 0 00067
                 FNCO=FNBO                                                          011  LM00020
 00134 CLA +0 50000 0 00052    00135 STO +0 60100 0 00054
                 DELETE.(FNCO(0),FNCO(1),1,EXITM.)                                  012  LM00021
 00136 TSX +0 07400 4 00003    00137 TXH +3 00000 0 00054    00140 TXH +3 00000 0 00053    00141 TXH +3 00000 0 00064
 00142 TXH +3 00000 0 00005
                 DELETE.(FNBO(0),FNBO(1),1,EXITM.)                                  013  LM00022
 00143 TSX +0 07400 4 00003    00144 TXH +3 00000 0 00052    00145 TXH +3 00000 0 00051    00146 TXH +3 00000 0 00064
 00147 TXH +3 00000 0 00005
                 OPEN.($R$,FNI,$CTSSLD$)                                            014  LM00023
 00150 TSX +0 07400 4 00013    00151 TXH +3 00000 0 00074    00152 TXH +3 00000 0 00055    00153 TXH +3 00000 0 00072
                 RDFILE.(FNI,$CTSSLD$,0,A(A+N)...N,EOFC,EOFCT)                      015  LM00024
 00154 CLA +0 50000 0 00026    00155 ADD +0 40000 0 00061    00156 SUB +0 40200 0 00157    00157 TXH +3 00000 0 00026
 00160 STA +0 62100 0 00165    00161 TSX +0 07400 4 00015    00162 TXH +3 00000 0 00055    00163 TXH +3 00000 0 00072
 00164 TXH +3 00000 0 00063    00165 TIX +2 00061 0 00000    00166 TXH +3 00000 0 00022    00167 TXH +3 00000 0 00047
      EOFC       CLOSE.(FNI,$CTSSLD$)                                               016  LM00025
 00170 TSX +0 07400 4 00001    00171 TXH +3 00000 0 00055    00172 TXH +3 00000 0 00072
                 JMAX=N                                                             017  LM00026
 00173 CLA +0 50000 0 00061    00174 STO +0 60100 0 00057
                 T'H SQ, FOR I=N,-14,I.LE.N-EOFCT                                   018  LM00027
 00175 CLA +0 50000 0 00061    00176 STO +0 60100 0 00056    00177 TRA +0 02000 0 00203    00200 CLS +0 50200 0 00066
 00201 ADD +0 40000 0 00056    00202 STO +0 60100 0 00056    00203 CLA +0 50000 0 00061    00204 SUB +0 40200 0 00047
 00205 CHS +0 76000 0 00002    00206 ADD +0 40000 0 00056    00207 TZE +0 10000 0 00226    00210 TMI -0 12000 0 00226
                 A(A+JMAX)=A(A+I)                                                   019  LM00028
 00211 CLA +0 50000 0 00026    00212 ADD +0 40000 0 00056    00213 STO +0 60100 0 00422    00214 CLA +0 50000 0 00026
 00215 ADD +0 40000 0 00057    00216 PAX +0 73400 1 00000    00217 LXA +0 53400 2 00422    00220 CLA +0 50000 2 00026
 00221 STO +0 60100 1 00026
                 JMAX=JMAX-1                                                        020  LM00029
 00222 CLA +0 50000 0 00057    00223 SUB +0 40200 0 00064    00224 STO +0 60100 0 00057
      SQ         CONTINUE                                                           021  LM00030
 00225 TRA +0 02000 0 00200
                 J=N                                                                022  LM00031
 00226 CLA +0 50000 0 00061    00227 STO +0 60100 0 00060
                 N=(JMAX/432)*432                                                   023  LM00032
 00230 LDQ +0 56000 0 00057    00231 PXD -0 75400 0 00000    00232 LLS +0 76300 0 00000    00233 DVP +0 22100 0 00067
 00234 MPY +0 20000 0 00067    00235 STQ -0 60000 0 00061
                 I=N                                                                024  LM00033
 00236 CLA +0 50000 0 00061    00237 STO +0 60100 0 00056
                 OPEN.($W$,FNBO,$   BSS$)                                           025  LM00034
 00240 TSX +0 07400 4 00013    00241 TXH +3 00000 0 00100    00242 TXH +3 00000 0 00052    00243 TXH +3 00000 0 00075
                 BUFFER.(FNBO,$   BSS$,B(B+432)...432)                              026  LM00035
 00244 CLA +0 50000 0 00027    00245 ADD +0 40000 0 00067    00246 SUB +0 40200 0 00247    00247 TXH +3 00000 0 00027
 00250 STA +0 62100 0 00254    00251 TSX +0 07400 4 00000    00252 TXH +3 00000 0 00052    00253 TXH +3 00000 0 00075
 00254 TIX +2 00067 0 00000
      LOOP       W'R J.LE.JMAX, T'O END                                             027  LM00036
 00255 CLA +0 50000 0 00060    00256 SUB +0 40200 0 00057    00257 TZE +0 10000 0 00261    00260 TPL +0 12000 0 00262
 00261 TRA +0 02000 0 00021
                 OPEN.($R$,A(A+J),$   BSS$)                                         028  LM00037
 00262 CLA +0 50000 0 00026    00263 ADD +0 40000 0 00060    00264 SUB +0 40200 0 00265    00265 TXH +3 00000 0 00026
 00266 STA +0 62100 0 00271    00267 TSX +0 07400 4 00013    00270 TXH +3 00000 0 00074    00271 TXH +3 00000 0 00000
 00272 TXH +3 00000 0 00075
      L1         RDFILE.(A(A+J),$   BSS$,0,A(A+I)...I,EOF,EOFCT)                    029  LM00038
 00273 CLA +0 50000 0 00026    00274 ADD +0 40000 0 00056    00275 SUB +0 40200 0 00276    00276 TXH +3 00000 0 00026
 00277 STA +0 62100 0 00311    00300 CLA +0 50000 0 00026    00301 ADD +0 40000 0 00060    00302 SUB +0 40200 0 00303
 00303 TXH +3 00000 0 00026    00304 STA +0 62100 0 00306    00305 TSX +0 07400 4 00015    00306 TXH +3 00000 0 00000
 00307 TXH +3 00000 0 00075    00310 TXH +3 00000 0 00063    00311 TIX +2 00056 0 00000    00312 TXH +3 00000 0 00023
 00313 TXH +3 00000 0 00047
                 FWAIT.(A(A+J),$   BSS$)                                            030  LM00039
 00314 CLA +0 50000 0 00026    00315 ADD +0 40000 0 00060    00316 SUB +0 40200 0 00317    00317 TXH +3 00000 0 00026
 00320 STA +0 62100 0 00322    00321 TSX +0 07400 4 00010    00322 TXH +3 00000 0 00000    00323 TXH +3 00000 0 00075
                 WRWAIT.(FNBO,$   BSS$,0,A(A+N)...N)                                031  LM00040
 00324 CLA +0 50000 0 00026    00325 ADD +0 40000 0 00061    00326 SUB +0 40200 0 00327    00327 TXH +3 00000 0 00026
 00330 STA +0 62100 0 00335    00331 TSX +0 07400 4 00017    00332 TXH +3 00000 0 00052    00333 TXH +3 00000 0 00075
 00334 TXH +3 00000 0 00063    00335 TIX +2 00061 0 00000
                 I=N                                                                032  LM00041
 00336 CLA +0 50000 0 00061    00337 STO +0 60100 0 00056
                 T'O L1                                                             033  LM00042
 00340 TRA +0 02000 0 00024
      EOF        I=I-EOFCT                                                          034  LM00043
 00341 CLA +0 50000 0 00056    00342 SUB +0 40200 0 00047    00343 STO +0 60100 0 00056
                 CLOSE.(A(A+J),$   BSS$)                                            035  LM00044
 00344 CLA +0 50000 0 00026    00345 ADD +0 40000 0 00060    00346 SUB +0 40200 0 00347    00347 TXH +3 00000 0 00026
 00350 STA +0 62100 0 00352    00351 TSX +0 07400 4 00001    00352 TXH +3 00000 0 00000    00353 TXH +3 00000 0 00075
                 J=J-1                                                              036  LM00045
 00354 CLA +0 50000 0 00060    00355 SUB +0 40200 0 00064    00356 STO +0 60100 0 00060
                 T'O LOOP                                                           037  LM00046
 00357 TRA +0 02000 0 00025
      END        X=N-I                                                              038  LM00047
 00360 CLA +0 50000 0 00061    00361 SUB +0 40200 0 00056    00362 STO +0 60100 0 00062
                 WRFILE.(FNBO,$   BSS$,0,A(A+N)...X)                                039  LM00048
 00363 CLA +0 50000 0 00026    00364 ADD +0 40000 0 00061    00365 SUB +0 40200 0 00366    00366 TXH +3 00000 0 00026
 00367 STA +0 62100 0 00374    00370 TSX +0 07400 4 00016    00371 TXH +3 00000 0 00052    00372 TXH +3 00000 0 00075
 00373 TXH +3 00000 0 00063    00374 TIX +2 00062 0 00000
                 CLOSE.(FNBO,$   BSS$)                                              040  LM00049
 00375 TSX +0 07400 4 00001    00376 TXH +3 00000 0 00052    00377 TXH +3 00000 0 00075
                 OPEN.($W$,FNCO,$CTSSLD$)                                           041  LM00050
 00400 TSX +0 07400 4 00013    00401 TXH +3 00000 0 00100    00402 TXH +3 00000 0 00054    00403 TXH +3 00000 0 00072
                 C(14)=FNBO                                                         042  LM00051
 00404 CLA +0 50000 0 00052    00405 STO +0 60100 0 00030
                 C(11)=FNI                                                          043  LM00052
 00406 CLA +0 50000 0 00055    00407 STO +0 60100 0 00033
                 WRFILE.(FNCO,$CTSSLD$,0,C(14)...14)                                044  LM00053
 00410 TSX +0 07400 4 00016    00411 TXH +3 00000 0 00054    00412 TXH +3 00000 0 00072    00413 TXH +3 00000 0 00063
 00414 TIX +2 00066 0 00030
                 CLOSE.(FNCO,$CTSSLD$)                                              045  LM00054
 00415 TSX +0 07400 4 00001    00416 TXH +3 00000 0 00054    00417 TXH +3 00000 0 00072
                 V'S C(14)=0                                                        046  LM00055
 00030     +0 00000 0 00000
                 V'S C(13)=$ BACKU$                                                 047  LM00056
 00031     -2 02221 2 34264
                 V'S C(12)=$P TO$                                                   048  LM00057
 00032     -0 76063 4 66060
                 V'S C(1)=$                                     $                   049  LM00058
 00037     -2 06060 6 06060    00040     -2 06060 6 06060    00041     -2 06060 6 06060    00042     -2 06060 6 06060
 00043     -2 06060 6 06060    00044     -2 06060 6 06060    00045     -2 06060 6 06060
                 V'S C(7)=$                              $                          050  LM00059
 00033     -2 06060 6 06060    00034     -2 06060 6 06060    00035     -2 06060 6 06060    00036     -2 06060 6 06060
 00037     -2 06060 6 06060
                 EXITM.                                                             051  LM00060
 00420 TSX +0 07400 4 00005
                 V'S N=6000                                                         052  LM00061
 00061     +0 00000 0 13560
                 V'S FNCO(1)=$CTSSLD$                                               053  LM00062
 00053     +2 36362 6 24324
                 V'S FNBO(1)=$   BSS$                                               054  LM00063
 00051     -2 06060 2 26262
                 D'N A(0),B(0)                                                      055  LM00064
                 N'R                                                                056  LM00065
                 E'M                                                                057  LM00066
 00421 TSX +0 07400 4 00006


 CALIB   BCD 09/20/68 0219.7    2093         00000
1                                                                                                PAGE 1


        TRANSFER VECTOR
      00000  334751314563     .PRINT

      00001  0774 00 0 00000  *EVEN*

      00002  0760 00 0 00016         LMTM
      00003  0600 00 0 00005         STZ     5
      00004  0074 00 4 00361         TSX     CLOCON,4
      00005 -0500 00 0 00332         CAL     7TRA
      00006  0602 00 0 00007         SLW     7
      00007  0600 00 0 00006         STZ     6
      00010  0774 00 1 00000         AXT     0,1
      00011  0500 00 0 00375         CLA     =614
      00012  0760 00 0 00006         COM
      00013 -0320 00 0 00401         ANA     =O377777777777
      00014  0602 00 0 00005         SLW     5
      00015 -0340 00 0 00005         LAS     5
      00016  0000 00 0 00016         HTR     *
      00017  0020 00 0 00015         TRA     *-2
      00020  0020 00 0 00022         TRA     TEST1
      00021  0774 00 0 00000         EVEN
                       00022  TEST1  DUP     2,99
      00022  0625 00 0 00360         STT     TEM
      00023  0131 00 0 00000         XCA
      00024  0625 00 0 00360
      00025  0131 00 0 00000
      00026  0625 00 0 00360
      00027  0131 00 0 00000
      00030  0625 00 0 00360
      00031  0131 00 0 00000
      00032  0625 00 0 00360
      00033  0131 00 0 00000
      00034  0625 00 0 00360
      00035  0131 00 0 00000
      00036  0625 00 0 00360
      00037  0131 00 0 00000
      00040  0625 00 0 00360
      00041  0131 00 0 00000
      00042  0625 00 0 00360
      00043  0131 00 0 00000
      00044  0625 00 0 00360
      00045  0131 00 0 00000
      00046  0625 00 0 00360
      00047  0131 00 0 00000
      00050  0625 00 0 00360
      00051  0131 00 0 00000
      00052  0625 00 0 00360
      00053  0131 00 0 00000
      00054  0625 00 0 00360
      00055  0131 00 0 00000
      00056  0625 00 0 00360
      00057  0131 00 0 00000
      00060  0625 00 0 00360
      00061  0131 00 0 00000
1                                                                                                PAGE 2

      00062  0625 00 0 00360
      00063  0131 00 0 00000
      00064  0625 00 0 00360
      00065  0131 00 0 00000
      00066  0625 00 0 00360
      00067  0131 00 0 00000
      00070  0625 00 0 00360
      00071  0131 00 0 00000
      00072  0625 00 0 00360
      00073  0131 00 0 00000
      00074  0625 00 0 00360
      00075  0131 00 0 00000
      00076  0625 00 0 00360
      00077  0131 00 0 00000
      00100  0625 00 0 00360
      00101  0131 00 0 00000
      00102  0625 00 0 00360
      00103  0131 00 0 00000
      00104  0625 00 0 00360
      00105  0131 00 0 00000
      00106  0625 00 0 00360
      00107  0131 00 0 00000
      00110  0625 00 0 00360
      00111  0131 00 0 00000
      00112  0625 00 0 00360
      00113  0131 00 0 00000
      00114  0625 00 0 00360
      00115  0131 00 0 00000
      00116  0625 00 0 00360
      00117  0131 00 0 00000
      00120  0625 00 0 00360
      00121  0131 00 0 00000
      00122  0625 00 0 00360
      00123  0131 00 0 00000
      00124  0625 00 0 00360
      00125  0131 00 0 00000
      00126  0625 00 0 00360
      00127  0131 00 0 00000
      00130  0625 00 0 00360
      00131  0131 00 0 00000
      00132  0625 00 0 00360
      00133  0131 00 0 00000
      00134  0625 00 0 00360
      00135  0131 00 0 00000
      00136  0625 00 0 00360
      00137  0131 00 0 00000
      00140  0625 00 0 00360
      00141  0131 00 0 00000
      00142  0625 00 0 00360
      00143  0131 00 0 00000
      00144  0625 00 0 00360
      00145  0131 00 0 00000
      00146  0625 00 0 00360
      00147  0131 00 0 00000
      00150  0625 00 0 00360
      00151  0131 00 0 00000
1                                                                                                PAGE 3

      00152  0625 00 0 00360
      00153  0131 00 0 00000
      00154  0625 00 0 00360
      00155  0131 00 0 00000
      00156  0625 00 0 00360
      00157  0131 00 0 00000
      00160  0625 00 0 00360
      00161  0131 00 0 00000
      00162  0625 00 0 00360
      00163  0131 00 0 00000
      00164  0625 00 0 00360
      00165  0131 00 0 00000
      00166  0625 00 0 00360
      00167  0131 00 0 00000
      00170  0625 00 0 00360
      00171  0131 00 0 00000
      00172  0625 00 0 00360
      00173  0131 00 0 00000
      00174  0625 00 0 00360
      00175  0131 00 0 00000
      00176  0625 00 0 00360
      00177  0131 00 0 00000
      00200  0625 00 0 00360
      00201  0131 00 0 00000
      00202  0625 00 0 00360
      00203  0131 00 0 00000
      00204  0625 00 0 00360
      00205  0131 00 0 00000
      00206  0625 00 0 00360
      00207  0131 00 0 00000
      00210  0625 00 0 00360
      00211  0131 00 0 00000
      00212  0625 00 0 00360
      00213  0131 00 0 00000
      00214  0625 00 0 00360
      00215  0131 00 0 00000
      00216  0625 00 0 00360
      00217  0131 00 0 00000
      00220  0625 00 0 00360
      00221  0131 00 0 00000
      00222  0625 00 0 00360
      00223  0131 00 0 00000
      00224  0625 00 0 00360
      00225  0131 00 0 00000
      00226  0625 00 0 00360
      00227  0131 00 0 00000
      00230  0625 00 0 00360
      00231  0131 00 0 00000
      00232  0625 00 0 00360
      00233  0131 00 0 00000
      00234  0625 00 0 00360
      00235  0131 00 0 00000
      00236  0625 00 0 00360
      00237  0131 00 0 00000
      00240  0625 00 0 00360
      00241  0131 00 0 00000
1                                                                                                PAGE 4

      00242  0625 00 0 00360
      00243  0131 00 0 00000
      00244  0625 00 0 00360
      00245  0131 00 0 00000
      00246  0625 00 0 00360
      00247  0131 00 0 00000
      00250  0625 00 0 00360
      00251  0131 00 0 00000
      00252  0625 00 0 00360
      00253  0131 00 0 00000
      00254  0625 00 0 00360
      00255  0131 00 0 00000
      00256  0625 00 0 00360
      00257  0131 00 0 00000
      00260  0625 00 0 00360
      00261  0131 00 0 00000
      00262  0625 00 0 00360
      00263  0131 00 0 00000
      00264  0625 00 0 00360
      00265  0131 00 0 00000
      00266  0625 00 0 00360
      00267  0131 00 0 00000
      00270  0625 00 0 00360
      00271  0131 00 0 00000
      00272  0625 00 0 00360
      00273  0131 00 0 00000
      00274  0625 00 0 00360
      00275  0131 00 0 00000
      00276  0625 00 0 00360
      00277  0131 00 0 00000
      00300  0625 00 0 00360
      00301  0131 00 0 00000
      00302  0625 00 0 00360
      00303  0131 00 0 00000
      00304  0625 00 0 00360
      00305  0131 00 0 00000
      00306  0625 00 0 00360
      00307  0131 00 0 00000
      00310  0625 00 0 00360
      00311  0131 00 0 00000
      00312  0625 00 0 00360
      00313  0131 00 0 00000
      00314  0625 00 0 00360
      00315  0131 00 0 00000
      00316  0625 00 0 00360
      00317  0131 00 0 00000
      00320  0625 00 0 00360
      00321  0131 00 0 00000
      00322  0625 00 0 00360
      00323  0131 00 0 00000
      00324  0625 00 0 00360
      00325  0131 00 0 00000
      00326  0625 00 0 00360
      00327  0131 00 0 00000
      00330  0625 00 0 00360         STT     TEM
      00331  1 00001 1 00022         TXI     TEST1,1,1
1                                                                                                PAGE 5

                              *
      00332  0020 00 0 00333  7TRA   TRA     *+1
      00333  0600 00 0 00005         STZ     5
      00334  0535 00 2 00006         LAC     6,2
      00335  1 00022 2 00336         TXI     *+1,2,TEST1
      00336  0636 00 2 00356         SCA     LENGTH,2
      00337  0754 00 1 00000         PXA     0,1
      00340  0131 00 0 00000         XCA
      00341  0200 00 0 00374         MPY     =200
      00342  0131 00 0 00000         XCA
      00343  0400 00 0 00356         ADD     LENGTH
      00344  0601 00 0 00356         STO     LENGTH
      00345  0765 00 0 00043         LRS     35
      00346  0221 00 0 00376         DVP     =50000
      00347 -0600 00 0 00357         STQ     PCNT
      00350  0074 00 4 00000         TSX     $.PRINT,4
      00351 -1 00000 0 00362         STR     FMT
      00352 -1 00000 0 00356         STR     LENGTH
      00353 -1 00000 0 00357         STR     PCNT
      00354 -1 00000 0 00000         STR
      00355  0101 00 0 00400         TIA     =HDORMNT
      00356  0 00000 0 00000  LENGTH
      00357  0 00000 0 00000  PCNT
      00360  0 00000 0 00000  TEM
      00361  0101 00 0 00377  CLOCON TIA     =HCLOCON
      00362  036773653101     FMT    BCI ,3X,VI12,H' IN 10 SEC. ', I4, H' PERCENT '*
      00363  027330146031
      00364  456001006062
      00365  252333601473
      00366  603104736030
      00367  146047255123
      00370  254563601454
      00371  606060606060
      00372  606060606060
      00373  606060606060
                                     END

        LITERALS
      00374  000000000310
      00375  000000001146
      00376  000000141520
      00377  234346234645
      00400  244651444563
      00401  377777777777
1                                                                                                PAGE 1
                        POST PROCESSOR ASSEMBLY DATA

        402 IS THE FIRST LOCATION NOT USED BY THIS PROGRAM

0REFERENCES TO DEFINED SYMBOLS
        362    FMT   351
        360    TEM    22,   24,   26,   30,   32,   34,   36,   40,   42,   44,   46,   50,   52,   54,   56,   60,   62
                      64,   66,   70,   72,   74,   76,  100,  102,  104,  106,  110,  112,  114,  116,  120,  122,  124
                     126,  130,  132,  134,  136,  140,  142,  144,  146,  150,  152,  154,  156,  160,  162,  164,  166
                     170,  172,  174,  176,  200,  202,  204,  206,  210,  212,  214,  216,  220,  222,  224,  226,  230
                     232,  234,  236,  240,  242,  244,  246,  250,  252,  254,  256,  260,  262,  264,  266,  270,  272
                     274,  276,  300,  302,  304,  306,  310,  312,  314,  316,  320,  322,  324,  326,  330
        332   7TRA     5
        357   PCNT   347,  353
         22  TEST1    20,  331,  335
        361 CLOCON     4
          0 .PRINT   350
        356 LENGTH   336,  343,  344,  352

0 NO ERROR IN ABOVE ASSEMBLY.


CLM2RW   BCD 09/20/68 0219.7    1480         00000
1                                                                                                PAGE 1

 M                            CALL   MACRO   NAME,LIST
                                     TSX     $'NAME,4
                                     IRP     LIST
                                     PTH     LIST
                                     IRP
                              CALL   END


      00000  272563234644     GETCOM
      00001  242543263143     DELFIL
      00002  222646472545     BFOPEN
      00003  222651252124     BFREAD
      00004  222666513163     BFWRIT
      00005  222623434662     BFCLOS
      00006  233045234644     CHNCOM
      00007  665126436760     WRFLX

      00010  0074 00 4 00000         TSX     $GETCOM,4
      00011  0 00000 0 00001                 1
      00012  0602 00 0 00311         SLW     NAME
      00013                          CALL    DELFIL(NAME,ROW,DELERR,DELCOD)
      00020                   DELOK  CALL    BFOPEN(=HR,NAME,ABS,B1,B2,=-0,BFERR)
      00030                          CALL    BFOPEN(=HW,NAME,ROW,B3,B4,B5,BFERR)

      00040                   LOOP   CALL    BFREAD(NAME,ABS(IN,,28)DONE,EOFCT,BFERR)
      00047  0774 00 1 00030         AXT     24,1
      00050  0600 00 1 00400         STZ     OUT+24,1
      00051  2 00001 1 00050         TIX     *-1,1,1
      00052  0774 00 1 00004         AXT     4,1
      00053 -0500 00 1 00350         CAL     IN+28,1
      00054  0602 00 1 00404         SLW     OUT+28,1
      00055  2 00001 1 00053         TIX     *-2,1,1

      00056  0774 00 1 00030         AXT     24,1
      00057  0774 00 2 00044  WRDLP  AXT     36,2
      00060  0560 00 1 00344         LDQ     IN+24,1
      00061 -0754 00 0 00000  BITLP  ZAC
      00062 -0763 00 0 00001         LGL     1
      00063  0522 00 1 00151         XEC     WRDLS,1
      00064  0522 00 2 00215         XEC     BITLS,2
      00065  0522 00 2 00311         XEC     ADR,2
      00066  0522 00 1 00245         XEC     ORS,1
      00067  2 00001 2 00061         TIX     BITLP,2,1
      00070  2 00001 1 00057         TIX     WRDLP,1,1

      00071                          CALL    BFWRIT(NAME,ROW(OUT,,28)BFERR)
      00076  0020 00 0 00040         TRA     LOOP

      00077                   DONE   CALL    BFCLOS(=HALL,=-0,BFERR)
      00103  0520 00 0 00404         ZET     EOFCT
      00104  0020 00 0 00107         TRA     OOPS
      00105                          CALL    CHNCOM(=0)

      00107  0074 00 4 00007  OOPS   TSX     $WRFLX,4
      00110  0 00002 0 00406                 OOPSMS,,2
      00111                          CALL    CHNCOM(=0)
1                                                                                                PAGE 2

      00113 -0500 00 0 00405  DELERR CAL     DELCOD
      00114  0402 00 0 04571         SUB     =3
      00115  0100 00 0 00020         TZE     DELOK

      00116 -0500 00 0 04575  BFERR  CAL     =HPRNTER
      00117  0560 00 0 04600         LDQ     =O777777777777
      00120  0101 00 0 04574         TIA     =HNEXCOM

      00121                   X1     BSS     0
                       00121         DUP     2,24
                       00000  X2     SET     *-X1
      00121  0767 00 0 00000         ALS     X2/2
      00151                   WRDLS  BSS     0

                       00151         DUP     3,12
      00151  0767 00 0 00030         ALS     24
      00152  0767 00 0 00014         ALS     12
      00153  0767 00 0 00000         ALS     0
      00215                   BITLS  BSS     0

                       00215         DUP     2,12
      00215 -0602 00 4 00364         ORS     OUT+12,4
      00216 -0602 00 4 00400         ORS     OUT+24,4
      00245                   ORS    BSS     0

      00245                   ADR1   BSS     0
                       00245         DUP     2,36
                       00000  ADR2   SET     *-ADR1
      00245  0774 00 4 00014         AXT     12-ADR2/3,4
      00311                   ADR    BSS     0

      00311  0 00000 0 00000  NAME
      00312  606060212262     ABS    BCI     1,   ABS
      00313  606060514666     ROW    BCI     1,   ROW
      00314                   IN     BSS     28
      00350                   OUT    BSS     28
      00404  0 00000 0 00000  EOFCT
      00405  0 00000 0 00000  DELCOD
      00406  472151633121     OOPSMS BCI     2,PARTIAL CARD
      00410                   B1     BSS     432
      01270                   B2     BSS     432
      02150                   B3     BSS     432
      03030                   B4     BSS     432
      03710                   B5     BSS     432

                                     END

        LITERALS
      04570  000000000000
      04571  000000000003
      04572  214343606060
      04573  400000000000
      04574  452567234644
      04575  475145632551
      04576  516060606060
      04577  666060606060
1                                                                                                PAGE 3

      04600  777777777777
1                                                                                                PAGE 1
                        POST PROCESSOR ASSEMBLY DATA

       4601 IS THE FIRST LOCATION NOT USED BY THIS PROGRAM

0REFERENCES TO DEFINED SYMBOLS
        410     B1    24
       1270     B2    25
       2150     B3    34
       3030     B4    35
       3710     B5    36
        314     IN    43,   53,   60
        121     X1   121,  122,  123,  124,  125,  126,  127,  130,  131,  132,  133,  134,  135,  136,  137,  140,  141
                     142,  143,  144,  145,  146,  147,  150
         27     X2   121,  122,  123,  124,  125,  126,  127,  130,  131,  132,  133,  134,  135,  136,  137,  140,  141
                     142,  143,  144,  145,  146,  147,  150
        312    ABS    23,   42
        311    ADR    65
        245    ORS    66
        350    OUT    50,   54,   74,  215,  216,  217,  220,  221,  222,  223,  224,  225,  226,  227,  230,  231,  232
                     233,  234,  235,  236,  237,  240,  241,  242,  243,  244
        313    ROW    15,   33,   73
        245   ADR1   245,  246,  247,  250,  251,  252,  253,  254,  255,  256,  257,  260,  261,  262,  263,  264,  265
                     266,  267,  270,  271,  272,  273,  274,  275,  276,  277,  300,  301,  302,  303,  304,  305,  306
                     307,  310
         43   ADR2   245,  246,  247,  250,  251,  252,  253,  254,  255,  256,  257,  260,  261,  262,  263,  264,  265
                     266,  267,  270,  271,  272,  273,  274,  275,  276,  277,  300,  301,  302,  303,  304,  305,  306
                     307,  310
         77   DONE    44
         40   LOOP    76
        311   NAME    12,   14,   22,   32,   41,   72
        107   OOPS   104
        116  BFERR    27,   37,   46,   75,  102
         61  BITLP    67
        215  BITLS    64
         20  DELOK   115
        404  EOFCT    45,  103
         57  WRDLP    70
        151  WRDLS    63
          7  WRFLX   107
          5 BFCLOS    77
          2 BFOPEN    20,   30
          3 BFREAD    40
          4 BFWRIT    71
          6 CHNCOM   105,  111
        405 DELCOD    17,  113
        113 DELERR    16
          1 DELFIL    13
          0 GETCOM    10
        406 OOPSMS   110

0 NO ERROR IN ABOVE ASSEMBLY.


    DO   BCD 09/20/68 0219.7    2240         00000
1            DO - RESUME A SAVED FILE FROM A COMMON FILE.                                        PAGE 1

                                             8/30/66 - NOEL I. MORRIS
                                             MODIFIED FOR '*' 4/3/68 R.A. ROACH


                                     ABS


                                     UNLIST
 M                            CALL   MACRO   SUBR,LIST


                      000024  LOWMEM BOOL    24
1            DO - RESUME A SAVED FILE FROM A COMMON FILE.                                        PAGE 2
                           SET UP AND READ FILE CONDITIONS.

                       00024         ORG     LOWMEM

      00024                          CALL    GETCLS((CBUF,,0)) PICK UP COMMAND BUFFER
      00024  0074 00 4 00113         TSX     GETCLS,4                                                         .002
      00025  3 00000 0 00131         PAR     CBUF,,0                                                          .004

      00026                          CALL    SETCLS((CBUF+2,,0)) FIX IT UP FOR SAVED FILE
      00026  0074 00 4 00115         TSX     SETCLS,4                                                         .002
      00027  3 00000 0 00133         PAR     CBUF+2,,0                                                        .004

      00030                          CALL    GETCF         GET COMMON FILE NO.
      00030  0074 00 4 00117         TSX     GETCF,4                                                          .002
      00031  0602 00 0 00131         SLW     CF0           AND SAVE

      00032 -0500 00 0 00132         CAL     CFN           GET TARGET COMMON FILE
      00033 -0340 00 0 00162         LAS     STAR
      00034  0020 00 0 00036         TRA     *+2
      00035 -0500 00 0 00131         CAL     CF0
      00036 -0320 00 0 00160         ANA     ZLB           ZERO LEADING BLANKS
      00037  0602 00 0 00132         SLW     CFN           AND SAVE
      00040  0322 00 0 00131         ERA     CF0           IS IT THE SAME AS HOME COMMON FILE
      00041  0602 00 0 00161         SLW     SAME.         ..

      00042 -0500 00 0 00132         CAL     CFN           NOW SWITCH TO COMMON FILE,
      00043  0520 00 0 00161         ZET     SAME.         IF NECESSARY
      00044                          CALL    COMFIL(-)     AND SWITCH TO IT
      00044  0074 00 4 00121         TSX     COMFIL,4                                                         .002
      00045  3 00000 0 00000         PAR     -                                                                .004

      00046 -0500 00 0 00133         CAL     CBUF+2        NAME OF SAVED FILE
      00047  0602 00 0 00016         SLW     NAME          ..

      00050                          CALL    OPEN(R,NAME,SAVED,MZE,MZE,ERR) TRY TO OPEN THE FILE
      00050  0074 00 4 00123         TSX     OPEN,4                                                           .002
      00051  3 00000 0 00157         PAR     R                                                                .004
      00052  3 00000 0 00016         PAR     NAME                                                             .004
      00053  3 00000 0 00017         PAR     SAVED                                                            .004
      00054  3 00000 0 00155         PAR     MZE                                                              .004
      00055  3 00000 0 00155         PAR     MZE                                                              .004
      00056  3 00000 0 00104         PAR     ERR                                                              .004

      00057 -0500 00 0 00131         CAL     CF0           SWITCH BACK TO HOME COMMON FILE
      00060  0520 00 0 00161         ZET     SAME.         IF NECESSARY
      00061                          CALL    COMFIL(-)     ..
      00061  0074 00 4 00121         TSX     COMFIL,4                                                         .002
      00062  3 00000 0 00000         PAR     -                                                                .004

      00063                          CALL    RDWAIT(NAME,SAVED,ZERO(WORDS,,2)) READ TWO WORDS
      00063  0074 00 4 00125         TSX     RDWAIT,4                                                         .002
      00064  3 00000 0 00016         PAR     NAME                                                             .004
      00065  3 00000 0 00017         PAR     SAVED                                                            .004
      00066  3 00000 0 00156         PAR     ZERO                                                             .004
      00067  3 00002 0 00134         PAR     WORDS,,2                                                         .004
1            DO - RESUME A SAVED FILE FROM A COMMON FILE.                                        PAGE 3
                           SET UP AND READ FILE CONDITIONS.

      00070 -0500 00 0 00135         CAL     WORDS+1       GET THE ILC
      00071  0621 00 0 00011         STA     ILC           AND SAVE FOR TRANSFER

      00072 -0534 00 4 00134         LXD     WORDS,4       NO. OF LOC'NS OF CONDITIONS
      00073  1 00026 4 00074         TXI     *+1,4,LOWMEM+2 PLUS BOTTOM OF CORE
      00074  0634 00 4 00020         SXA     LOC,4         GIVES 'RELLOC' FOR FILE

      00075  0534 00 4 00134         LXA     WORDS,4       MEMBND IN XR4
      00076  0754 00 4 00000         PXA     ,4            AND IN AC
      00077  1 77754 4 00100         TXI     *+1,4,-LOWMEM GET NUMBER OF WORDS TO READ
      00100 -0634 00 4 00005         SXD     READ+4,4      AND SET UP CALL TO RDFILE

      00101 -0774 00 4 00000         AXC     SETM,4        SET XR4 FOR CALL TO SETMEM
      00102  0101 00 0 00103         TIA     *+1           AND GO TO A-CORE
      00103  622563442544            BCI     1,SETMEM      RETURN TO SETM+1
1            DO - RESUME A SAVED FILE FROM A COMMON FILE.                                        PAGE 4
                           MISCELLANEOUS, STORAGE, AND CONSTANTS.

      00104 -0500 00 0 00131  ERR    CAL     CF0           GET HOME COMMON FILE AND
      00105  0520 00 0 00161         ZET     SAME.         SWITCH BACK, IF NECESSARY
      00106                          CALL    COMFIL(-)     ..
      00106  0074 00 4 00121         TSX     COMFIL,4                                                         .002
      00107  3 00000 0 00000         PAR     -                                                                .004

      00110 -0500 00 0 00163         CAL     PRNTER        CHAIN TO PRNTER COMMAND
      00111  0560 00 0 00164         LDQ     MASK          ..
      00112                          CALL    NEXCOM        ..
      00112  0074 00 4 00127         TSX     NEXCOM,4                                                         .002


      00113  0101 00 0 00114  GETCLS TIA     *+1
      00114  272563234362            BCI     1,GETCLS
      00115  0101 00 0 00116  SETCLS TIA     *+1
      00116  622563234362            BCI     1,SETCLS
      00117  0101 00 0 00120  GETCF  TIA     *+1
      00120  272563232660            BCI     1,GETCF
      00121  0101 00 0 00122  COMFIL TIA     *+1
      00122  234644263143            BCI     1,COMFIL
      00123  0101 00 0 00124  OPEN   TIA     *+1
      00124  464725456060            BCI     1,OPEN
      00125  0101 00 0 00126  RDWAIT TIA     *+1
      00126  512466213163            BCI     1,RDWAIT
      00127  0101 00 0 00130  NEXCOM TIA     *+1
      00130  452567234644            BCI     1,NEXCOM


      00131                   CBUF   BSS     20

                       00131  CF0    SYN     CBUF
                       00132  CFN    SYN     CBUF+1
                       00134  WORDS  SYN     CBUF+3

      00155 -0 00000 0 00000  MZE    MZE
      00156  0 00000 0 00000  ZERO   PZE
      00157  516060606060     R      BCI     1,R
      00160  000000000077     ZLB    VFD     O36/77
      00161  0 00000 0 00000  SAME.  PZE
      00162  606060606054     STAR   BCI     1,     *

      00163  475145632551     PRNTER BCI     1,PRNTER
      00164 -000000000071     MASK   OCT     -71
1            DO - RESUME A SAVED FILE FROM A COMMON FILE.                                        PAGE 5
                           SETM - READ FILE AND EXECUTE IT.

                       00000         ORG     0

      00000  0 00000 0 00000  SETM   PZE                   FOR STR'S

      00001                   READ   CALL    RDFILE(NAME,SAVED,LOC(LOWMEM,,**)) READ THE FILE
      00001  0074 00 4 00012         TSX     RDFILE,4                                                         .002
      00002  3 00000 0 00016         PAR     NAME                                                             .004
      00003  3 00000 0 00017         PAR     SAVED                                                            .004
      00004  3 00000 0 00020         PAR     LOC                                                              .004
      00005  3 00000 0 00024         PAR     LOWMEM,,**                                                       .004

      00006                          CALL    CLOSE(NAME,SAVED) CLOSE IT
      00006  0074 00 4 00014         TSX     CLOSE,4                                                          .002
      00007  3 00000 0 00016         PAR     NAME                                                             .004
      00010  3 00000 0 00017         PAR     SAVED                                                            .004

      00011  0020 00 0 00000  ILC    TRA     **            GO TO IT


      00012  0101 00 0 00013  RDFILE TIA     *+1
      00013  512426314325            BCI     1,RDFILE
      00014  0101 00 0 00015  CLOSE  TIA     *+1
      00015  234346622560            BCI     1,CLOSE

      00016  0 00000 0 00000  NAME   PZE
      00017  606221652524     SAVED  BCI     1, SAVED
      00020  0 00000 0 00000  LOC    PZE


                       00024         END     LOWMEM
                                              REMOTE SEQUENCES
1            DO - RESUME A SAVED FILE FROM A COMMON FILE.                                        PAGE 1
                        POST PROCESSOR ASSEMBLY DATA

        165 IS THE FIRST LOCATION NOT USED BY THIS PROGRAM

0REFERENCES TO DEFINED SYMBOLS
        157      R    51
        131    CF0    31,   35,   40,   57,  104,  155
        132    CFN    32,   37,   42,  155
        104    ERR    56
         11    ILC    71
         20    LOC    74,    4
        155    MZE    54,   55
        160    ZLB    36
        131   CBUF    25,   27,   46,  155
        164   MASK   111
         16   NAME    47,   52,   64,    2,    7
        123   OPEN    50
          1   READ   100
          0   SETM   101
        162   STAR    33
        156   ZERO    66
         14  CLOSE     6
        117  GETCF    30
        161  SAME.    41,   43,   60,  105
         17  SAVED    53,   65,    3,   10
        134  WORDS    67,   70,   72,   75,  155
        121 COMFIL    44,   61,  106
        113 GETCLS    24
         24 LOWMEM     0,   24,   73,   77,    5,   21
        127 NEXCOM   112
        163 PRNTER   110
         12 RDFILE     1
        125 RDWAIT    63
        115 SETCLS    26

0 NO ERROR IN ABOVE ASSEMBLY.


  DRUM   BCD 02/09/69 0651.2    5477         00000
1       M1416-3845  PETER R. BOS  2/02/68 -- HIGH SPEED DRUM STATISTICS.         01/08/69 1749.3 PAGE 1

                                     PCC     ON
                                     LBL     DRUM0000
                                     PCC     OFF

                                     EXTERN  SETBRK,GETMEM,GETCOM,GETLOC,WRFLX,WRFLXA
                                     EXTERN  SETMEM,SLEEP,CHNCOM
                                     UNLIST
 M                            CALL   MACRO   SUBR,ARGS,CRS
 M                            ACORE  MACRO   NAME,BLK,N,LOC


        TRANSFER VECTOR
      00000  622563225142     SETBRK
      00001  272563442544     GETMEM
      00002  272563234644     GETCOM
      00003  272563434623     GETLOC
      00004  665126436760     WRFLX
      00005  665126436721     WRFLXA
      00006  622563442544     SETMEM
      00007  624325254760     SLEEP
      00010  233045234644     CHNCOM
      00011  222324252360     BCDEC
      00012  212346512560     ACORE
      00013  234644434623     COMLOC
      00014  272563634460     GETTM
      00015  332644636060     .FMT
      00016  305144314560     HRMIN
      00017  624546467125     SNOOZE

      00020                          CALL    SETBRK(XIT)   SET INTERRUPT.
      00022  0074 00 4 00001         TSX     GETMEM,4
      00023  0602 00 0 00710         SLW     MEMBND        SAVE CURRENT CORE SIZE.
      00024                          CALL    GETCOM(1)     GET SLEEP TIME, IF ANY.
      00026  0602 00 0 00664         SLW     SLPTIM        ..
      00027  0322 00 0 00627         ERA     FENCE         CHECK FOR NO ARGUMENT.
      00030 -0100 00 0 00032         TNZ     *+2           ..
      00031  0600 00 0 00664         STZ     SLPTIM        IF SO, ZERO TIME.
      00032                          CALL    $BCDEC(SLPTIM) CONVERT TO BINARY.
      00034  0131 00 0 00000         XCA                   TO MQ.
      00035  0200 00 0 01666         MPY     =60           ..
      00036 -0600 00 0 00664         STQ     SLPTIM        ..

      00037                          CALL    GETCOM(0)     GET NAME OF COMMAND.
      00041  0322 00 0 01717         ERA     =H    Q.      IF 'Q.', NO DRUM MAP.
      00042  0602 00 0 00665         SLW     MAP.          ..


      00043                          ACORE   (DUMP,,LPNT)
      00055  0322 00 0 00630         ERA     LDRMWD        MAKE SURE WE ARE AT RIGHT PLACE IN DUMP.
      00056 -0100 00 0 00623         TNZ     BAD           IF NOT, CAN'T GO ON.
1       M1416-3845  PETER R. BOS  2/02/68 -- HIGH SPEED DRUM STATISTICS.         01/08/69 1749.3 PAGE 2

                       00057  START  SYN     *             BACK HERE AFTER WAKING UP.
      00057                          CALL    WRFLX((*,,0)) TYPE A C.R.
      00061                          ACORE   (DUMP,,LSCT),,,SCOUNT
      00073                          ACORE   (OVRFLO,*),...,3,OVRFLO
      00103                          ACORE   (AVQLEN,*),,,AVQLEN
      00113                          COMLOC  NUSERS,,,NUSERS
      00122                          COMLOC  MXUSRS,,,MXUSRS
      00131 -0520 00 0 00665         NZT     MAP.          WANT DRUM MAP. Q
      00132  0020 00 0 00266         TRA     NOMAP         NO, SKIP.

      00133                          COMLOC  PROBN,...,N+1,PROBN
      00142                          COMLOC  PROGN,...,N+1,PROGN
      00151                          COMLOC  IOD,...,N+1,IOD
      00160                          ACORE   (DUMP,,LSGCT),...,N+1,SEGCNT
      00172                          ACORE   (DUMP,,LPRTL),...,N+1,PRTIAL
      00204                          COMLOC  STATUS,...,N+1,STATUS
      00213                          COMLOC  AWAKE,...,N+1,AWAKE
      00222                          COMLOC  WATTIM,...,N+1,WATTIM
      00231                          COMLOC  TOTTIM,,,TOTTIM
      00240                          COMLOC  COMMND,...,N+1,COMMND
      00247                          ACORE   (LOGIN,*),,,LOGIN
      00257                          COMLOC  USER,,,USER

                       00266  NOMAP  SYN     *             HERE TO SKIP COMLOCS FOR MAP.
      00266  0500 00 0 00626         CLA     SECTRS        GET TOTAL SECTORS.
      00267  0402 00 0 00722         SUB     SCOUNT        MINUS NUMBER LEFT.
      00270  0131 00 0 00000         XCA                   NOW COMPUTE PERCENTAGE.
      00271  0200 00 0 01667         MPY     =100          ..
      00272 -0754 00 0 00000         ZAC
      00273  0221 00 0 00626         DVP     SECTRS        ..
      00274 -0754 00 0 00000         ZAC
      00275  0221 00 0 01667         DVP     =100          GET UNITS.
      00276 -0600 00 0 00666         STQ     PCT1          ..
      00277  0131 00 0 00000         XCA
      00300 -0754 00 0 00000         ZAC
      00301  0221 00 0 01664         DVP     =10           GET TENTHS.
      00302 -0600 00 0 00667         STQ     PCT2          ..
      00303  0601 00 0 00670         STO     PCT3          HUNDRETHS.
      00304                          CALL    $GETTM(DATE,TIME) GET DATE AND TIME NOW.
      00307  0560 00 0 00672         LDQ     TIME          MAKE IT LOOK NICE.
      00310 -0754 00 0 00000         ZAC
      00311 -0763 00 0 00006         LGL     6             ..
      00312 -0100 00 0 00316         TNZ     *+4           ..
      00313 -0500 00 0 01665         CAL     =O57          ..
      00314 -0765 00 0 00006         LGR     6
      00315 -0600 00 0 00672         STQ     TIME          ..
      00316  0560 00 0 00671         LDQ     DATE          DO DATE SAME WAY.
      00317 -0754 00 0 00000         ZAC
      00320 -0763 00 0 00006         LGL     6             ..
      00321 -0100 00 0 00325         TNZ     *+4           ..
      00322 -0500 00 0 01665         CAL     =O57          ..
      00323 -0765 00 0 00006         LGR     6             ..
      00324 -0600 00 0 00671         STQ     DATE          ..
1       M1416-3845  PETER R. BOS  2/02/68 -- HIGH SPEED DRUM STATISTICS.         01/08/69 1749.3 PAGE 3

      00325  0074 00 4 00015         TSX     $.FMT,4       GO FORMAT FIRST LINE.
      00326  0 00020 1 00631         PZE     DRUM,1,16
      00327  0 00001 4 00666         PZE     PCT1,4,1
      00330  0 00001 1 00644         PZE     DOT,1,1
      00331  0 00001 4 00667         PZE     PCT2,4,1
      00332  0 00001 4 00670         PZE     PCT3,4,1
      00333  0 00012 1 00634         PZE     AT,1,10
      00334  0 00006 1 00672         PZE     TIME,1,6
      00335  0 00001 0 00335         PZE     *,0,1
      00336  0 00005 1 00671         PZE     DATE,1,5
      00337  0 00000 0 00000         PZE     0
      00340  0602 00 0 00342         SLW     *+2           POINTER TO OUTPUT.
      00341                          CALL    WRFLX((-,,-))

      00343  0500 00 0 00626         CLA     SECTRS        COMPUTE SECTORS USED.
      00344  0402 00 0 00722         SUB     SCOUNT        ..
      00345  0601 00 0 00673         STO     SCTUSD        ..
      00346  0074 00 4 00015         TSX     $.FMT,4       FORMAT THIS LINE.
      00347 -0 00003 4 00673         MZE     SCTUSD,4,3
      00350  0 00020 1 00636         PZE     USED,1,16
      00351 -0 00003 4 00722         MZE     SCOUNT,4,3
      00352  0 00005 1 00641         PZE     LEFT,1,5
      00353  0 00000 0 00000         PZE     0
      00354  0602 00 0 00356         SLW     *+2           ..
      00355                          CALL    WRFLX((-,,-))

      00357  0500 00 0 00726         CLA     AVQLEN        GET AVG. QUEUE LENGTH.
      00360  0241 00 0 01674         FDP     =1E2
      00361  0131 00 0 00000         XCA
      00362  0300 00 0 01673         FAD     =5E-1         MAKE SURE NON-ZERO.
      00363 -0300 00 0 01677         UFA     =O233000000000 CONVERT TO INTEGER.
      00364  0322 00 0 01677         ERA     =O233000000000 ..
      00365  0131 00 0 00000         XCA
      00366 -0754 00 0 00000         ZAC
      00367  0221 00 0 01664         DVP     =10           ..
      00370 -0600 00 0 00674         STQ     AVQL1         ..
      00371  0601 00 0 00675         STO     AVQL2         ..

      00372  0074 00 4 00015         TSX     $.FMT,4       GO FORMAT SECOND LINE.
      00373  0 00017 1 00646         PZE     QLEN,1,15
      00374 -0 00002 4 00674         MZE     AVQL1,4,2
      00375  0 00001 1 00644         PZE     DOT,1,1
      00376  0 00001 4 00675         PZE     AVQL2,4,1
      00377  0 00003 1 00645         PZE     CMA,1,3
      00400  0 00006 1 00642         PZE     USRS,1,6
      00401  0 00001 0 00401         PZE     *,0,1
      00402 -0 00002 4 00727         MZE     NUSERS,4,2
      00403  0 00003 1 00645         PZE     CMA,1,3
      00404  0 00005 1 00643         PZE     MAX,1,5
      00405 -0 00002 4 00730         MZE     MXUSRS,4,2
      00406  0 00000 0 00000         PZE     0
      00407  0602 00 0 00411         SLW     *+2           ..
      00410                          CALL    WRFLX((-,,-))
1       M1416-3845  PETER R. BOS  2/02/68 -- HIGH SPEED DRUM STATISTICS.         01/08/69 1749.3 PAGE 4

      00412 -0520 00 0 00725         NZT     OVRCNT        ANYONE OVERFLOWING DRUM NOW. Q
      00413  0020 00 0 00445         TRA     NOBODY        NO, SKIP.
      00414 -0500 00 0 01672         CAL     =O5000000     FIX UP COMMENT.
      00415  0622 00 0 00435         STD     OVRUSR        ..
      00416 -0500 00 0 00725         CAL     OVRCNT        IF ONLY ONE GUY,
      00417  0402 00 0 01663         SUB     =1            ..
      00420 -0100 00 0 00423         TNZ     *+3           ..
      00421 -0500 00 0 01671         CAL     =O4000000     PRINT 'USER' INSTEAD OF 'USERS'.
      00422  0622 00 0 00435         STD     OVRUSR        ..
      00423                          CALL    $HRMIN(OVRTIM) CONVERT TIME OF OVERFLOW.
      00425 -0765 00 0 00036         LGR     30            MAKE IT LOOOK PRETTY.
      00426 -0100 00 0 00430         TNZ     *+2           ..
      00427 -0500 00 0 01665         CAL     =O57          ..
      00430 -0765 00 0 00006         LGR     6
      00431 -0600 00 0 00723         STQ     OVRTIM        ..
      00432  0074 00 4 00015         TSX     $.FMT,4       FORMAT OVERFLOW COMMENT.
      00433 -0 00002 4 00725         MZE     OVRCNT,4,2
      00434  0 00001 0 00434         PZE     *,0,1
      00435  0 00005 1 00642  OVRUSR PZE     USRS,1,5
      00436  0 00025 1 00651         PZE     OVER,1,21
      00437  0 00006 1 00723         PZE     OVRTIM,1,6
      00440  0 00002 1 00645         PZE     CMA,1,2
      00441  0 00000 0 00000         PZE     0
      00442  0602 00 0 00444         SLW     *+2           ..
      00443                          CALL    WRFLXA((-,,-))

      00445 -0500 00 0 00724  NOBODY CAL     OVRDLT        GET CURRENT SWAP TIME.
      00446 -0340 00 0 00706         LAS     LASTDL        COMPARE WITH PREVIOUS VALUE.
      00447  0020 00 0 00451         TRA     *+2           IF DIFFERENT, WANT TO PRINT.
      00450  0020 00 0 00473         TRA     C.R.          IF SAME, SKIP.
      00451  0602 00 0 00706         SLW     LASTDL        SAVE AS 'LAST' VALUE.
      00452  0131 00 0 00000         XCA                   NOW TO MQ.
      00453 -0754 00 0 00000         ZAC
      00454  0221 00 0 01670         DVP     =360          TENTHS OF MINUTES.
      00455 -0754 00 0 00000         ZAC
      00456  0221 00 0 01664         DVP     =10           ..
      00457 -0600 00 0 00676         STQ     OVRDL1        ..
      00460  0601 00 0 00677         STO     OVRDL2        ..
      00461  0074 00 4 00015         TSX     $.FMT,4       GO FORMAT THIS TOO.
      00462  0 00021 1 00655         PZE     SWAP,1,17
      00463 -0 00003 4 00676         MZE     OVRDL1,4,3
      00464  0 00001 1 00644         PZE     DOT,1,1
      00465  0 00001 4 00677         PZE     OVRDL2,4,1
      00466  0 00006 1 00660         PZE     MINS.,1,6
      00467  0 00000 0 00000         PZE     0
      00470  0602 00 0 00472         SLW     *+2
      00471                          CALL    WRFLX((-,,-)) ..
      00473                   C.R.   CALL    WRFLX((*,,0)) TYPE A C.R.

      00475 -0520 00 0 00665         NZT     MAP.          DO WE WANT DRUM MAP. Q
      00476  0020 00 0 00611         TRA     SNORE         NO, GO SLEEP.

      00477                          TYPE    7(LINE     USER     WDCNT SEGCNT STATUS)
      00501 -0500 00 0 01716         CAL     =H  BACK      SET UP PROB-PROG FOR BACKGROUND.
      00502  0602 00 0 00731         SLW     PROBN
      00503 -0500 00 0 01703         CAL     =HGROUND      ..
1       M1416-3845  PETER R. BOS  2/02/68 -- HIGH SPEED DRUM STATISTICS.         01/08/69 1749.3 PAGE 5

      00504  0602 00 0 01014         SLW     PROGN

      00505 -0774 00 1 00000         AXC     0,1           START WITH USER 0.
                       00506  LOOP   SYN     *             AND LOOP AROUND HERE.
      00506  0520 00 1 00731         ZET     PROBN,1       IS THIS USER LOGGED IN. Q
      00507  0020 00 0 00521         TRA     ISIN          YES, SKIP.
      00510 -0500 00 1 01562         CAL     COMMND,1      IS HE LOGGING IN. Q
      00511 -0340 00 0 01645         LAS     LOGIN         ..
      00512  0020 00 0 00605         TRA     ENDLP         NO.
      00513  0020 00 0 00515         TRA     *+2           YES.
      00514  0020 00 0 00605         TRA     ENDLP         NO.
      00515 -0500 00 0 01721         CAL     =H   (LO      SET UP DUMMY PROBN-PROGN.
      00516  0602 00 1 00731         SLW     PROBN,1
      00517 -0500 00 0 01702         CAL     =HGIN)        ..
      00520  0602 00 1 01014         SLW     PROGN,1       ..
      00521  0636 00 1 00700  ISIN   SCA     LINE,1        SAVE LINE NUMBER.
      00522 -0500 00 1 01330         CAL     STATUS,1      GET STATUS.
      00523  0734 00 4 00000         PAX     0,4           PICK UP WORD FROM TABLE.
      00524 -3 00000 4 00605         TXL     ENDLP,4,0     SKIP IF USER DEAD
      00525 -0500 00 4 00720         CAL     STABLE,4      ..
      00526 -0340 00 0 01715         LAS     =H DRMT       IS USER DORMANT. Q
      00527  0020 00 0 00533         TRA     *+4           NO, SKIP.
      00530 -0520 00 1 01413         NZT     AWAKE,1       IS HE SLEEPING. Q
      00531  0020 00 0 00533         TRA     *+2           ..
      00532 -0500 00 0 01714         CAL     =H ASLP       IF SO, HE GETS SPECIAL NAME.
      00533  0602 00 0 00701         SLW     STATE         SAVE STATUS.
      00534 -0500 00 1 00731         CAL     PROBN,1       GET PROB,
      00535  0602 00 0 00702         SLW     PROB          ..
      00536 -0500 00 1 01014         CAL     PROGN,1       PROG,
      00537  0602 00 0 00703         SLW     PROG          ..
      00540 -0500 00 1 01077         CAL     IOD,1         MEMORY BOUND.
      00541  0771 00 0 00022         ARS     18            (SHIFT OUT OF DECREMENT)
      00542  0602 00 0 00704         SLW     WDCNT         ..
      00543 -0500 00 1 01162         CAL     SEGCNT,1      GET SECTOR COUNT FOR USER.
      00544  0602 00 0 00705         SLW     SCTCNT
      00545 -0500 00 0 01720         CAL     =H            IF NOT PARTIAL DUMP, BLANK.
      00546  0520 00 1 01245         ZET     PRTIAL,1      TEST FOR PARTIAL DUMP.
      00547 -0500 00 0 01713         CAL     =H*           ELSE, PRINT '*'.
      00550  0602 00 0 00707         SLW     PART          ..
      00551  0535 00 4 01646         LAC     USER,4        GET MY USER NUMBER, SO MAP WON'T
      00552 -0634 00 4 00557         SXD     ME,4          CLAIM I'M SWAPPING FROM DISK.
      00553  1 77777 4 00554         TXI     *+1,4,-1      ..
      00554 -0634 00 4 00556         SXD     NEXT,4        ..
      00555  0560 00 0 00663         LDQ     SCTPT         SET UP FORMATTER
      00556 -3 00000 1 00560  NEXT   TXL     *+2,1,-       IF NOT ME, SKIP.
      00557 -3 00000 1 00563  ME     TXL     *+4,1,-       IF ME, SKIP NOW.
      00560 -0100 00 0 00563         TNZ     *+3           TO SAY 'DISK'
      00561 -0520 00 0 00704         NZT     WDCNT         FOR USER SWAPPING FROM
      00562  0560 00 0 00662         LDQ     DSKPT         DISK INSTEAD OF DRUM.
      00563 -0600 00 0 00575         STQ     DSKDRM        ..
      00564  0074 00 4 00015         TSX     $.FMT,4       GO FORMAT LINE.
      00565  0 00001 0 00565         PZE     *,0,1
      00566  0 00002 4 00700         PZE     LINE,4,2
      00567  0 00001 0 00567         PZE     *,0,1
      00570  0 00006 1 00702         PZE     PROB,1,6
      00571  0 00006 1 00703         PZE     PROG,1,6
1       M1416-3845  PETER R. BOS  2/02/68 -- HIGH SPEED DRUM STATISTICS.         01/08/69 1749.3 PAGE 6

      00572  0 00002 0 00572         PZE     *,0,2
      00573  0 00005 4 00704         PZE     WDCNT,4,5
      00574  0 00002 0 00574         PZE     *,0,2
      00575  0 00000 0 00000  DSKDRM PZE     -,-,-
      00576  0 00001 1 00707         PZE     PART,1,1
      00577  0 00001 0 00577         PZE     *,0,1
      00600  0 00006 1 00701         PZE     STATE,1,6
      00601  0 00000 0 00000         PZE     0
      00602  0602 00 0 00604         SLW     *+2
      00603                          CALL    WRFLX((-,,-))
      00605  1 77777 1 00606  ENDLP  TXI     *+1,1,-1      INCREMENT LINE COUNT.
      00606  3 77715 1 00506         TXH     LOOP,1,-N-1   IF NOT DONE, DO SOME MORE.
      00607                          CALL    WRFLX((*,,0)) TYPE A C.R.

      00611 -0520 00 0 00664  SNORE  NZT     SLPTIM        ARE WE SLEEPING. Q
      00612  0020 00 0 00621         TRA     XIT           NO, EXIT.
      00613 -0500 00 0 00710         CAL     MEMBND        RESET MEMBND NOW THAT COMLOC AND
      00614  0074 00 4 00006         TSX     SETMEM,4      ACORE ARE DONE.
      00615                          CALL    $SNOOZE(SLPTIM,=0)
      00620  0020 00 0 00057         TRA     START         (YAWN) .. MORE WORK TO DO.

      00621                   XIT    CALL    CHNCOM(0)     EXIT VIA CHNCOM.

      00623                   BAD    TYPE    4(BAD DUMP MODULE ADDRESS)
      00625  0020 00 0 00621         TRA     XIT           AND EXIT.


                                             STORAGE AND CONSTANTS.

                       00062  N      EQU     50            MUST BE CHANGED WHEN CTSS IS CHANGED******
                      001435  LPNT   BOOL    1435          POINTER TO LAST WORD IN DUMP TABLE.
                      001103  LSCT   BOOL    1103          REL. ADDRESS OF 'SCOUNT'
                      002052  LSGCT  BOOL    2052          REL. ADDRESS OF 'SEGCNT'
                      001704  LPRTL  BOOL    1704          REL. ADDRESS OF 'PRTIAL'
                      000246  NSECTS BOOL    246           NUMBER OF DRUM SECTORS.

      00626  0 00000 0 00246  SECTRS PZE     NSECTS        ..
      00627 -377777777777     FENCE  OCT     777777777777
      00630 +010006074000     LDRMWD OCT     010006074000  LAST WORD IN DRUM TABLE.

      00631  303127306062     DRUM   BCI     3,HIGH SPEED DRUM
      00632  472525246024
      00633  516444606060
      00634  602664434360     AT     BCI     2, FULL AT
      00635  216360606060
      00636  606225236346     USED   BCI     3, SECTORS USED,
      00637  516260646225
      00640  247360606060
      00641  604325266360     LEFT   BCI     1, LEFT
      00642  646225516213     USRS   BCI     1,USERS=
      00643  442167136060     MAX    BCI     1,MAX=
      00644  336060606060     DOT    BCI     1,.
      00645  736060606060     CMA    BCI     1,,
      00646  506425642560     QLEN   BCI     3,QUEUE LENGTH =
      00647  432545276330
      00650  601360606060
1       M1416-3845  PETER R. BOS  2/02/68 -- HIGH SPEED DRUM STATISTICS.         01/08/69 1749.3 PAGE 7

      00651  604665255126     OVER   BCI     4, OVERFLOWING DRUM AT
      00652  434666314527
      00653  602451644460
      00654  216360606060
      00655  243162426062     SWAP   BCI     3,DISK SWAP TIME =
      00656  662147606331
      00657  442560136060
      00660  604431456233     MINS.  BCI     1, MINS.

      00661  243162426060     DISK   BCI     1,DISK
      00662  0 00004 1 00661  DSKPT  PZE     DISK,1,4
      00663  0 00004 4 00705  SCTPT  PZE     SCTCNT,4,4

      00664  0 00000 0 00000  SLPTIM PZE
      00665  0 00000 0 00000  MAP.   PZE
      00666  0 00000 0 00000  PCT1   PZE
      00667  0 00000 0 00000  PCT2   PZE
      00670  0 00000 0 00000  PCT3   PZE
      00671  0 00000 0 00000  DATE   PZE
      00672  0 00000 0 00000  TIME   PZE
      00673  0 00000 0 00000  SCTUSD PZE
      00674  0 00000 0 00000  AVQL1  PZE
      00675  0 00000 0 00000  AVQL2  PZE
      00676  0 00000 0 00000  OVRDL1 PZE
      00677  0 00000 0 00000  OVRDL2 PZE
      00700  0 00000 0 00000  LINE   PZE
      00701  0 00000 0 00000  STATE  PZE
      00702  0 00000 0 00000  PROB   PZE
      00703  0 00000 0 00000  PROG   PZE
      00704  0 00000 0 00000  WDCNT  PZE
      00705  0 00000 0 00000  SCTCNT PZE
      00706  0 00000 0 00000  LASTDL PZE
      00707  0 00000 0 00000  PART   PZE
      00710  0 00000 0 00000  MEMBND PZE

      00711  602622666360            BCI     1, FBWT
      00712  602643666360            BCI     1, FLWT
      00713  604640666360            BCI     1, O-WT
      00714  603140666360            BCI     1, I-WT
      00715  602346442460            BCI     1, COMD
      00716  606651422760            BCI     1, WRKG
      00717  602451446360            BCI     1, DRMT
      00720  602425212460     STABLE BCI     1, DEAD

      00721                          RMT     *
                       00723  OVRTIM SYN     OVRFLO
                       00724  OVRDLT SYN     OVRFLO+1
                       00725  OVRCNT SYN     OVRFLO+2

                                     END

        LITERALS
      01662  000000000000
      01663  000000000001
      01664  000000000012
      01665  000000000057
1       M1416-3845  PETER R. BOS  2/02/68 -- HIGH SPEED DRUM STATISTICS.         01/08/69 1749.3 PAGE 8

      01666  000000000074
      01667  000000000144
      01670  000000000550
      01671  000004000000
      01672  000005000000
      01673  200400000000
      01674  207620000000
      01675  216550432545
      01676  216621422560
      01677  233000000000
      01700  234644444524
      01701  246444476060
      01702  273145346060
      01703  275146644524
      01704  314624606060
      01705  434627314560
      01706  446764625162
      01707  456462255162
      01710  466551264346
      01711  475146224560
      01712  475146274560
      01713  546060606060
      01714  602162434760
      01715  602451446360
      01716  606022212342
      01717  606060605033
      01720  606060606060
      01721  606060744346
      01722  626321636462
      01723  634663633144
      01724  646225516060
      01725  662163633144
1       M1416-3845  PETER R. BOS  2/02/68 -- HIGH SPEED DRUM STATISTICS.         01/08/69 1749.3 PAGE 1
                        POST PROCESSOR ASSEMBLY DATA

       1726 IS THE FIRST LOCATION NOT USED BY THIS PROGRAM

0REFERENCES TO DEFINED SYMBOLS
         62      N   140,  147,  156,  170,  202,  211,  220,  227,  245,  606,  626,  731, 1014, 1077, 1162, 1245, 1330
                    1413, 1476, 1562
        634     AT   333
        557     ME   552
        623    BAD    56
        645    CMA   377,  403,  440
        644    DOT   330,  375,  464
       1077    IOD   157,  540
          1    ..A    21,   25,   33,   40,   60,  305,  306,  342,  356,  411,  424,  444,  472,  474,  604,  610,  616
                     617,  622
          0    ..D    21,   25,   33,   40,   60,  305,  306,  342,  356,  411,  424,  444,  472,  474,  604,  610,  616
                     617,  622
          0    ..T    21,   25,   33,   40,   60,  305,  306,  342,  356,  411,  424,  444,  472,  474,  604,  610,  616
                     617,  622
        643    MAX   404
        621    XIT    21,  612,  625
        473   C.R.   450
        671   DATE   305,  316,  324,  336
        661   DISK   662
        631   DRUM   326
        521   ISIN   507
         15   .FMT   325,  346,  372,  432,  461,  564
          0   ..OP    21,   25,   33,   40,   60,  305,  306,  342,  356,  411,  424,  444,  472,  474,  604,  610,  616
                     617,  622
        641   LEFT   352
        700   LINE   521,  566
        506   LOOP   506,  606
       1435   LPNT    46,  626
       1103   LSCT    64,  626
        665   MAP.    42,  131,  475
        556   NEXT   554
        651   OVER   436
        707   PART   550,  576
        666   PCT1   276,  327
        667   PCT2   302,  331
        670   PCT3   303,  332
        702   PROB   535,  570
        703   PROG   537,  571
        646   QLEN   373
        655   SWAP   462
        672   TIME   306,  307,  315,  334
        636   USED   350
       1646   USER   265,  551
        642   USRS   400,  435
         12  ACORE    43,   61,   73,  103,  160,  172,  247
        674  AVQL1   370,  374
        675  AVQL2   371,  376
       1413  AWAKE   221,  530
         11  BCDEC    32
        662  DSKPT   562
        605  ENDLP   512,  514,  524
1       M1416-3845  PETER R. BOS  2/02/68 -- HIGH SPEED DRUM STATISTICS.         01/08/69 1749.3 PAGE 2
                        POST PROCESSOR ASSEMBLY DATA

        627  FENCE    27
         14  GETTM   304
         16  HRMIN   423
        721  ..007    54
         43  ..008    51
         61  ..010    67
         73  ..011    77
        103  ..012   107
        113  ..013   116
        122  ..014   125
        133  ..015   136
        142  ..016   145
        151  ..017   154
        160  ..018   166
        172  ..019   200
        204  ..020   207
        213  ..021   216
        222  ..022   225
        231  ..023   234
        240  ..024   243
        247  ..025   253
        257  ..026   262
       1647  ..035   500
       1656  ..041   624
          1  ..PZE    21,   25,   33,   40,   60,  305,  342,  356,  411,  424,  444,  472,  474,  604,  610,  616,  622
       1645  LOGIN   256,  511
       1704  LPRTL   175,  626
       2052  LSGCT   163,  626
        660  MINS.   466
        266  NOMAP   132,  266
        731  PROBN   141,  502,  506,  516,  534
       1014  PROGN   150,  504,  520,  536
        663  SCTPT   555
          7  SLEEP
        611  SNORE   476
         57  START    57,  620
        701  STATE   533,  600
        704  WDCNT   542,  561,  573
          4  WRFLX    57,  341,  355,  410,  471,  473,  477,  603,  607,  623
        726 AVQLEN   112,  357
         10 CHNCOM   621
         13 COMLOC   113,  122,  133,  142,  151,  204,  213,  222,  231,  240,  257
       1562 COMMND   246,  510
        575 DSKDRM   563
          2 GETCOM    24,   37
          3 GETLOC    52,   70,  100,  110,  117,  126,  137,  146,  155,  167,  201,  210,  217,  226,  235,  244,  254
                     263
          1 GETMEM    22
        706 LASTDL   446,  451
        630 LDRMWD    55
        710 MEMBND    23,  613
        730 MXUSRS   130,  405
        445 NOBODY   413
        246 NSECTS   626
        727 NUSERS   121,  402
1       M1416-3845  PETER R. BOS  2/02/68 -- HIGH SPEED DRUM STATISTICS.         01/08/69 1749.3 PAGE 3
                        POST PROCESSOR ASSEMBLY DATA

        725 OVRCNT   412,  416,  433, 1662
        676 OVRDL1   457,  463
        677 OVRDL2   460,  465
        724 OVRDLT   445, 1662
        723 OVRFLO   102, 1662
        723 OVRTIM   424,  431,  437, 1662
        435 OVRUSR   415,  422
       1245 PRTIAL   203,  546
        722 SCOUNT    72,  267,  344,  351
        705 SCTCNT   544,  663
        673 SCTUSD   345,  347
        626 SECTRS   266,  273,  343
       1162 SEGCNT   171,  543
          0 SETBRK    20
          6 SETMEM   614
        664 SLPTIM    26,   31,   33,   36,  611,  616
         17 SNOOZE   615
        720 STABLE   525
       1330 STATUS   212,  522
       1561 TOTTIM   237
       1476 WATTIM   230
          5 WRFLXA   443

0 NO ERROR IN ABOVE ASSEMBLY.


FAPCOM   BCD 09/20/68 0219.9    6116         00000
1                                                                                                PAGE 1


        TRANSFER VECTOR
      00000  272563442544     GETMEM
      00001  622563442544     SETMEM
      00002  262147234644     FAPCOM

      00003  0074 00 4 00000         TSX     $GETMEM,4
      00004  0400 00 0 00011         ADD     =2160
      00005  0074 00 4 00001         TSX     $SETMEM,4
      00006  0621 00 0 00010         STA     CALL
      00007  0074 00 4 00002         TSX     $FAPCOM,4
      00010  3 00000 0 00000  CALL   PTH
                                     END

        LITERALS
      00011  000000004160
1                                                                                                PAGE 1
                        POST PROCESSOR ASSEMBLY DATA

         12 IS THE FIRST LOCATION NOT USED BY THIS PROGRAM

0REFERENCES TO DEFINED SYMBOLS
         10   CALL     6
          2 FAPCOM     7
          0 GETMEM     3
          1 SETMEM     5

0 NO ERROR IN ABOVE ASSEMBLY.
1     MAD PROGRAM LISTING ... ... ...                 FILE  FAPCOM   MAD            02/13/68    0145.9
-
                   FAPCOM                                                                              LM00001
                                                                                                       LM00002
                   ROUTINE FOR INSERTING COMENTS IN FAP PROGRAMS                                       LM00003
                   ALL PROGRAMS MUST BE 'XPAND'ED                                                      LM00004
                   NEEDS FCMAIN FAP AND REDWRT FAP                                                     LM00005
                                                                                                       LM00006
                   BY MICHAEL R COMER 7/18/67                                                          LM00007
                                                                                                       LM00008
                  EXTERNAL FUNCTION (B)                                                           *001 LM00009
                  DIMENSION L(8),F(13)                                                            *002 LM00010
                  NORMAL MODE IS INTEGER                                                          *003 LM00011
                  BOOLEAN QUITSW,PRNTSW,FULLSW                                                    *004 LM00012
                  VECTOR VALUES QUITSW = 0B                                                       *005 LM00013
                  VECTOR VALUES PRNTSW = 1B                                                       *006 LM00014
                  VECTOR VALUES FULLSW = 0B                                                       *007 LM00015
                  VECTOR VALUES FENCE = 777777777777K                                             *008 LM00016
                  VECTOR VALUES T = $GAZABE$                                                      *009 LM00017
                  ENTRY TO FAPCOM.                                                                *010 LM00018
                  SETBRK.(TIXE)                                                                   *011 LM00019
                  COMARG.(1,N1)                                                                   *012 LM00020
                  COMARG.(2,N2)                                                                   *013 LM00021
                  COMARG.(3,N3)                                                                   *014 LM00022
                  COMARG.(4,N4)                                                                   *015 LM00023
                  WHENEVER N1 .E. FENCE, ERR.(5)                                                  *016 LM00024
                  WHENEVER N2 .E. FENCE, TRANSFER TO SKIP1                                        *017 LM00025
                  WHENEVER N3 .E. FENCE, TRANSFER TO SKIP2                                        *018 LM00026
                  WHENEVER N4 .E. FENCE, N4 = N2                                                  *019 LM00027
                  TRANSFER TO SKIP3                                                               *020 LM00028
      SKIP1       N2 = $   FAP$                                                                   *021 LM00029
      SKIP2       N3 = N1                                                                         *022 LM00030
                  N4 = N2                                                                         *023 LM00031
      SKIP3       BFOPEN.($R$,N1,N2,B(431),B(863),-0,IERR)                                        *024 LM00032
                  BFOPEN.($W$,T,T,B(1295),B(1727),B(2159),IERR)                                   *025 LM00033
                  BFREAD.(N1,N2,F(13)...14,EOF,F,IERR)                                            *026 LM00034
                  WHENEVER F(13).A.777777K6.E.777777K6,ERR.(6)                                    *027 LM00035
                  TRANSFER TO PRINT                                                               *028 LM00036
      LOOP        BFREAD.(N1,N2,F(13)...14,EOF,F,IERR)                                            *029 LM00037
                  WHENEVER QUITSW,TRANSFER TO SKIP                                                *030 LM00038
      PRINT       WHENEVER PRNTSW,WRTA.(F(13)...5)                                                *031 LM00039
                  WHENEVER FULLSW,WRT.(F(8)...9)                                                  *032 LM00040
                  RED.(L(8)...7)                                                                  *033 LM00041
                  WHENEVER L(8).E.$ $                                                             *034 LM00042
                    TRANSFER TO SKIP                                                              *035 LM00043
                  OR WHENEVER L(8) .E.$.KILL$                                                     *036 LM00044
                    L(8) = $ $                                                                    *037 LM00045
                  OR WHENEVER L(8).E.$.PRINT$                                                     *038 LM00046
                    PRNTSW = 1B                                                                   *039 LM00047
                    FULLSW = 0B                                                                   *040 LM00048
                    TRANSFER TO PRINT                                                             *041 LM00049
                  OR WHENEVER L(8).E.$.OFF$                                                       *042 LM00050
                    PRNTSW = 0B                                                                   *043 LM00051
                    FULLSW = 0B                                                                   *044 LM00052
                    TRANSFER TO PRINT                                                             *045 LM00053
                  OR WHENEVER L(8) .E. $.FULL$                                                    *046 LM00054
                    PRNTSW = 1B                                                                   *047 LM00055
                    FULLSW = 1B                                                                   *048 LM00056
                    TRANSFER TO PRINT                                                             *049 LM00057
                  OR WHENEVER L(8).E.$.FILE$                                                      *050 LM00058
                    PRNTSW = 0B                                                                   *051 LM00059
                    FULLSW = 0B                                                                   *052 LM00060
                    QUITSW = 1B                                                                   *053 LM00061
                    TRANSFER TO SKIP                                                              *054 LM00062
                  END OF CONDITIONAL                                                              *055 LM00063
                  F(9) = (F(9).A.7777777777K2).V.$00000$                                          *056 LM00064
                  THROUGH TNSFER,FOR I = 8,-1, I .LE. 0                                           *057 LM00065
      TNSFER      F(I) = L(I)                                                                     *058 LM00066
      SKIP        BFWRIT.(T,T,F(13)...14,IERR)                                                    *059 LM00067
                  TRANSFER TO LOOP                                                                *060 LM00068
      EOF         BFCLOS.(N1,N2,IERR)                                                             *061 LM00069
                  BFCLOS.(T,T,IERR)                                                               *062 LM00070
                  FSTATE.(N3,N4,F,OK)                                                             *063 LM00071
                  DELFIL.(N3,N4)                                                                  *064 LM00072
      OK          CHFILE.(T,T,0,N3,N4)                                                            *065 LM00073
      TIXE        CHNCOM.(0)                                                                      *066 LM00074
      IERR        CODE = BFCODE.(0)                                                               *067 LM00075
                  ERR.(CODE)                                                                      *068 LM00076
                  INTERNAL FUNCTION (X)                                                           *069 LM00077
                  ENTRY TO ERR.                                                                   *070 LM00078
                  Y = X.V.$ERROR0$                                                                *071 LM00079
                  WRT.(Y...1)                                                                     *072 LM00080
                  DORMNT.                                                                         *073 LM00081
                  END OF FUNCTION                                                                 *074 LM00082
                  END OF FUNCTION                                                                 *075 LM00083
1MAD PROGRAM,TYPE NOV 1963      (ALL NUMBERS ARE OCTAL)
0TOTAL LOCATIONS   00514 TRANSFER VECTOR LENGTH  00020 PROGRAM BEGINS    00130
0 PROGRAM IS AN EXTERNAL FUNCTION.   THE FOLLOWING ARE ENTRIES
      FAPCOM 00131   0
0VARIABLE STORAGE (A=ARRAY,C=COMMON,E=ERASABLE,DIGIT=MODE)
      CODE   00034   1        IERR   00023   4        N2     00070   1        PRNTSW 00073 A 2        SKIP   00032   4
      EOF    00022   4        I      00055   1        N3     00071   1        QUITSW 00074 A 2        TIXE   00033   4
      FENCE  00035 A 1        LOOP   00024   4        N4     00072   1        SKIP1  00027   4        TNSFER 00021   4
      F      00053 A 1        L      00066 A 1        OK     00025   4        SKIP2  00030   4        T      00075 A 1
      FULLSW 00054 A 2        N1     00067   1        PRINT  00026   4        SKIP3  00031   4        Y      00076   1
0FUNCTION DICTIONARY
      BFCLOS 00000   1        BFCODE 00001   1        BFOPEN 00002   1        BFREAD 00003   1        BFWRIT 00004   1
      CHFILE 00005   1        CHNCOM 00006   1        COMARG 00007   1        DELFIL 00010   1        DORMNT 00011   1
      EXIT   00012   1        FSTATE 00013   1        RED    00014   1        SETBRK 00015   1        WRTA   00016   1
      WRT    00017   1        ERR    00020   1
0ABSOLUTE CONSTANTS
 00114 +255151465100     00107 +000000000010     00112 +000000000060     00127 -377777777700     00115 +332631432560
 00116 +332664434360     00120 +334626266060     00121 +334751314563     00117 +334231434360     00124 -206060606060
 00106 +000000000007     00110 +000000000011     00105 +000000000006     00126 -377777000000     00111 +000000000016
 00125 -266060606060     00122 -116060606060     00077 +000000000000     00123 -206060262147     00104 +000000000005
 00103 +000000000004     00102 +000000000003     00101 +000000000002     00100 +000000000001     00113 +233000000000
0STATEMENT DICTIONARY
 00022 TXL -300405000401       00023 TXL -300434000431       00024 TXL -300253000244       00025 TXL -300427000421
 00026 TXL -300262000256       00027 TXL -300176000174       00030 TXL -300200000176       00031 TXL -300214000202
 00032 TXL -300400000373       00033 TXL -300431000427
0PROGRAM
                 EXTERNAL FUNCTION (B)                                              001  LM00009
                 D'N L(8),F(13)                                                     002  LM00010
                 N'S INTEGER                                                        003  LM00011
                 BOOLEAN QUITSW,PRNTSW,FULLSW                                       004  LM00012
                 V'S QUITSW = 0B                                                    005  LM00013
 00074     +0 00000 0 00000
                 V'S PRNTSW = 1B                                                    006  LM00014
 00073     +0 00000 0 00001
                 V'S FULLSW = 0B                                                    007  LM00015
 00054     +0 00000 0 00000
                 V'S FENCE = 777777777777K                                          008  LM00016
 00035     -3 77777 7 77777
                 V'S T = $GAZABE$                                                   009  LM00017
 00075     +2 72171 2 12225
                 E'O FAPCOM.                                                        010  LM00018
 00130 TRA +0 02000 0 00133    00131 SXA +0 63400 2 00466    00132 TSX +0 07400 2 00466
                 SETBRK.(TIXE)                                                      011  LM00019
 00133 TSX +0 07400 4 00015    00134 TXH +3 00000 0 00033
                 COMARG.(1,N1)                                                      012  LM00020
 00135 TSX +0 07400 4 00007    00136 TXH +3 00000 0 00100    00137 TXH +3 00000 0 00067
                 COMARG.(2,N2)                                                      013  LM00021
 00140 TSX +0 07400 4 00007    00141 TXH +3 00000 0 00101    00142 TXH +3 00000 0 00070
                 COMARG.(3,N3)                                                      014  LM00022
 00143 TSX +0 07400 4 00007    00144 TXH +3 00000 0 00102    00145 TXH +3 00000 0 00071
                 COMARG.(4,N4)                                                      015  LM00023
 00146 TSX +0 07400 4 00007    00147 TXH +3 00000 0 00103    00150 TXH +3 00000 0 00072
                 W'R N1 .E. FENCE, ERR.(5)                                          016  LM00024
 00151 CLA +0 50000 0 00067    00152 SUB +0 40200 0 00035    00153 TNZ -0 10000 0 00156    00154 TSX +0 07400 4 00020
 00155 TXH +3 00000 0 00104
                 W'R N2 .E. FENCE, T'O SKIP1                                        017  LM00025
 00156 CLA +0 50000 0 00070    00157 SUB +0 40200 0 00035    00160 TNZ -0 10000 0 00162    00161 TRA +0 02000 0 00027
                 W'R N3 .E. FENCE, T'O SKIP2                                        018  LM00026
 00162 CLA +0 50000 0 00071    00163 SUB +0 40200 0 00035    00164 TNZ -0 10000 0 00166    00165 TRA +0 02000 0 00030
                 W'R N4 .E. FENCE, N4 = N2                                          019  LM00027
 00166 CLA +0 50000 0 00072    00167 SUB +0 40200 0 00035    00170 TNZ -0 10000 0 00173    00171 CLA +0 50000 0 00070
 00172 STO +0 60100 0 00072
                 T'O SKIP3                                                          020  LM00028
 00173 TRA +0 02000 0 00031
      SKIP1      N2 = $   FAP$                                                      021  LM00029
 00174 CLA +0 50000 0 00123    00175 STO +0 60100 0 00070
      SKIP2      N3 = N1                                                            022  LM00030
 00176 CLA +0 50000 0 00067    00177 STO +0 60100 0 00071
                 N4 = N2                                                            023  LM00031
 00200 CLA +0 50000 0 00070    00201 STO +0 60100 0 00072
      SKIP3      BFOPEN.($R$,N1,N2,B(431),B(863),-0,IERR)                           024  LM00032
 00202 CLS +0 50200 0 00077    00203 STO +0 60100 0 00511    00204 TSX +0 07400 4 00002    00205 TXH +3 00000 0 00122
 00206 TXH +3 00000 0 00067    00207 TXH +3 00000 0 00070    00210 TXH +3 00000 0 00633    00211 TXH +3 00000 0 01513
 00212 TXH +3 00000 0 00511    00213 TXH +3 00000 0 00023
                 BFOPEN.($W$,T,T,B(1295),B(1727),B(2159),IERR)                      025  LM00033
 00214 TSX +0 07400 4 00002    00215 TXH +3 00000 0 00125    00216 TXH +3 00000 0 00075    00217 TXH +3 00000 0 00075
 00220 TXH +3 00000 0 02373    00221 TXH +3 00000 0 03253    00222 TXH +3 00000 0 04133    00223 TXH +3 00000 0 00023
                 BFREAD.(N1,N2,F(13)...14,EOF,F,IERR)                               026  LM00034
 00224 TSX +0 07400 4 00003    00225 TXH +3 00000 0 00067    00226 TXH +3 00000 0 00070    00227 TIX +2 00111 0 00036
 00230 TXH +3 00000 0 00022    00231 TXH +3 00000 0 00053    00232 TXH +3 00000 0 00023
                 W'R F(13).A.777777K6.E.777777K6,ERR.(6)                            027  LM00035
 00233 CAL -0 50000 0 00036    00234 ANA -0 32000 0 00126    00235 SLW +0 60200 0 00511    00236 CLA +0 50000 0 00511
 00237 SUB +0 40200 0 00126    00240 TNZ -0 10000 0 00243    00241 TSX +0 07400 4 00020    00242 TXH +3 00000 0 00105
                 T'O PRINT                                                          028  LM00036
 00243 TRA +0 02000 0 00026
      LOOP       BFREAD.(N1,N2,F(13)...14,EOF,F,IERR)                               029  LM00037
 00244 TSX +0 07400 4 00003    00245 TXH +3 00000 0 00067    00246 TXH +3 00000 0 00070    00247 TIX +2 00111 0 00036
 00250 TXH +3 00000 0 00022    00251 TXH +3 00000 0 00053    00252 TXH +3 00000 0 00023
                 W'R QUITSW,T'O SKIP                                                030  LM00038
 00253 NZT -0 52000 0 00074    00254 TRA +0 02000 0 00256    00255 TRA +0 02000 0 00032
      PRINT      W'R PRNTSW,WRTA.(F(13)...5)                                        031  LM00039
 00256 NZT -0 52000 0 00073    00257 TRA +0 02000 0 00262    00260 TSX +0 07400 4 00016    00261 TIX +2 00104 0 00036
                 W'R FULLSW,WRT.(F(8)...9)                                          032  LM00040
 00262 NZT -0 52000 0 00054    00263 TRA +0 02000 0 00266    00264 TSX +0 07400 4 00017    00265 TIX +2 00110 0 00043
                 RED.(L(8)...7)                                                     033  LM00041
 00266 TSX +0 07400 4 00014    00267 TIX +2 00106 0 00056
                 W'R L(8).E.$ $                                                     034  LM00042
 00270 CLA +0 50000 0 00056    00271 SUB +0 40200 0 00124    00272 TNZ -0 10000 0 00275
                   T'O SKIP                                                         035  LM00043
 00273 TRA +0 02000 0 00032
                 O'R L(8) .E.$.KILL$                                                036  LM00044
 00274 TRA +0 02000 0 00350    00275 CLA +0 50000 0 00056    00276 SUB +0 40200 0 00117    00277 TNZ -0 10000 0 00303
                   L(8) = $ $                                                       037  LM00045
 00300 CLA +0 50000 0 00124    00301 STO +0 60100 0 00056
                 O'R L(8).E.$.PRINT$                                                038  LM00046
 00302 TRA +0 02000 0 00350    00303 CLA +0 50000 0 00056    00304 SUB +0 40200 0 00121    00305 TNZ -0 10000 0 00314
                   PRNTSW = 1B                                                      039  LM00047
 00306 CLA +0 50000 0 00100    00307 STO +0 60100 0 00073
                   FULLSW = 0B                                                      040  LM00048
 00310 CLA +0 50000 0 00077    00311 STO +0 60100 0 00054
                   T'O PRINT                                                        041  LM00049
 00312 TRA +0 02000 0 00026
                 O'R L(8).E.$.OFF$                                                  042  LM00050
 00313 TRA +0 02000 0 00350    00314 CLA +0 50000 0 00056    00315 SUB +0 40200 0 00120    00316 TNZ -0 10000 0 00325
                   PRNTSW = 0B                                                      043  LM00051
 00317 CLA +0 50000 0 00077    00320 STO +0 60100 0 00073
                   FULLSW = 0B                                                      044  LM00052
 00321 CLA +0 50000 0 00077    00322 STO +0 60100 0 00054
                   T'O PRINT                                                        045  LM00053
 00323 TRA +0 02000 0 00026
                 O'R L(8) .E. $.FULL$                                               046  LM00054
 00324 TRA +0 02000 0 00350    00325 CLA +0 50000 0 00056    00326 SUB +0 40200 0 00116    00327 TNZ -0 10000 0 00336
                   PRNTSW = 1B                                                      047  LM00055
 00330 CLA +0 50000 0 00100    00331 STO +0 60100 0 00073
                   FULLSW = 1B                                                      048  LM00056
 00332 CLA +0 50000 0 00100    00333 STO +0 60100 0 00054
                   T'O PRINT                                                        049  LM00057
 00334 TRA +0 02000 0 00026
                 O'R L(8).E.$.FILE$                                                 050  LM00058
 00335 TRA +0 02000 0 00350    00336 CLA +0 50000 0 00056    00337 SUB +0 40200 0 00115    00340 TNZ -0 10000 0 00350
                   PRNTSW = 0B                                                      051  LM00059
 00341 CLA +0 50000 0 00077    00342 STO +0 60100 0 00073
                   FULLSW = 0B                                                      052  LM00060
 00343 CLA +0 50000 0 00077    00344 STO +0 60100 0 00054
                   QUITSW = 1B                                                      053  LM00061
 00345 CLA +0 50000 0 00100    00346 STO +0 60100 0 00074
                   T'O SKIP                                                         054  LM00062
 00347 TRA +0 02000 0 00032
                 E'L                                                                055  LM00063
                 F(9) = (F(9).A.7777777777K2).V.$00000$                             056  LM00064
 00350 CAL -0 50000 0 00042    00351 ANA -0 32000 0 00127    00352 ORA -0 50100 0 00112    00353 SLW +0 60200 0 00042
                 T'H TNSFER,FOR I = 8,-1, I .LE. 0                                  057  LM00065
 00354 CLA +0 50000 0 00107    00355 STO +0 60100 0 00055    00356 TRA +0 02000 0 00362    00357 CLS +0 50200 0 00100
 00360 ADD +0 40000 0 00055    00361 STO +0 60100 0 00055    00362 CLA +0 50000 0 00055    00363 SUB +0 40200 0 00077
 00364 TZE +0 10000 0 00373    00365 TMI -0 12000 0 00373
      TNSFER     F(I) = L(I)                                                        058  LM00066
 00366 LXA +0 53400 1 00055    00367 LXA +0 53400 2 00055    00370 CLA +0 50000 2 00066    00371 STO +0 60100 1 00053
 00372 TRA +0 02000 0 00357
      SKIP       BFWRIT.(T,T,F(13)...14,IERR)                                       059  LM00067
 00373 TSX +0 07400 4 00004    00374 TXH +3 00000 0 00075    00375 TXH +3 00000 0 00075    00376 TIX +2 00111 0 00036
 00377 TXH +3 00000 0 00023
                 T'O LOOP                                                           060  LM00068
 00400 TRA +0 02000 0 00024
      EOF        BFCLOS.(N1,N2,IERR)                                                061  LM00069
 00401 TSX +0 07400 4 00000    00402 TXH +3 00000 0 00067    00403 TXH +3 00000 0 00070    00404 TXH +3 00000 0 00023
                 BFCLOS.(T,T,IERR)                                                  062  LM00070
 00405 TSX +0 07400 4 00000    00406 TXH +3 00000 0 00075    00407 TXH +3 00000 0 00075    00410 TXH +3 00000 0 00023
                 FSTATE.(N3,N4,F,OK)                                                063  LM00071
 00411 TSX +0 07400 4 00013    00412 TXH +3 00000 0 00071    00413 TXH +3 00000 0 00072    00414 TXH +3 00000 0 00053
 00415 TXH +3 00000 0 00025
                 DELFIL.(N3,N4)                                                     064  LM00072
 00416 TSX +0 07400 4 00010    00417 TXH +3 00000 0 00071    00420 TXH +3 00000 0 00072
      OK         CHFILE.(T,T,0,N3,N4)                                               065  LM00073
 00421 TSX +0 07400 4 00005    00422 TXH +3 00000 0 00075    00423 TXH +3 00000 0 00075    00424 TXH +3 00000 0 00077
 00425 TXH +3 00000 0 00071    00426 TXH +3 00000 0 00072
      TIXE       CHNCOM.(0)                                                         066  LM00074
 00427 TSX +0 07400 4 00006    00430 TXH +3 00000 0 00077
      IERR       CODE = BFCODE.(0)                                                  067  LM00075
 00431 TSX +0 07400 4 00001    00432 TXH +3 00000 0 00077    00433 STO +0 60100 0 00034
                 ERR.(CODE)                                                         068  LM00076
 00434 TSX +0 07400 4 00020    00435 TXH +3 00000 0 00034
                 INTERNAL FUNCTION (X)                                              069  LM00077
 00436 TRA +0 02000 0 00463
                 E'O ERR.                                                           070  LM00078
 00437 TRA +0 02000 0 00442    00020 TTR +0 02100 0 00440    00440 SXA +0 63400 2 00451    00441 TSX +0 07400 2 00451
                 Y = X.V.$ERROR0$                                                   071  LM00079
 00442 CAL -0 50000 0 00024    00443 ORA -0 50100 0 00114    00444 SLW +0 60200 0 00076
                 WRT.(Y...1)                                                        072  LM00080
 00445 TSX +0 07400 4 00017    00446 TIX +2 00100 0 00076
                 DORMNT.                                                            073  LM00081
 00447 TSX +0 07400 4 00011
                 END OF FUNCTION                                                    074  LM00082
 00450 TSX +0 07400 4 00012    00451 TXH +3 00000 0 00000    00452 SXD -0 63400 1 00451    00453 SXA +0 63400 4 00457
 00454 CLA +0 50000 4 00001    00455 STA +0 62100 0 00442    00456 TRA +0 02000 2 00001    00457 AXT +0 77400 4 00000
 00460 LXA +0 53400 2 00451    00461 LXD -0 53400 1 00451    00462 TRA +0 02000 4 00001
                 END OF FUNCTION                                                    075  LM00083
 00463 TSX +0 07400 4 00012    00464 PZE +0 00000 0 00657    00465 PZE +0 00000 0 00660    00466 TXH +3 00000 0 00000
 00467 SXD -0 63400 1 00466    00470 SXA +0 63400 4 00505    00471 CLA +0 50000 4 00001    00472 SUB +0 40200 0 00464
 00473 STO +0 60100 0 00210    00474 SUB +0 40200 0 00465    00475 STO +0 60100 0 00211    00476 SUB +0 40200 0 00465
 00477 STO +0 60100 0 00220    00500 SUB +0 40200 0 00465    00501 STO +0 60100 0 00221    00502 SUB +0 40200 0 00465
 00503 STO +0 60100 0 00222    00504 TRA +0 02000 2 00001    00505 AXT +0 77400 4 00000    00506 LXA +0 53400 2 00466
 00507 LXD -0 53400 1 00466    00510 TRA +0 02000 4 00001
1                                                                                                PAGE 1

                       00005         ENTRY   RED
                       00020         ENTRY   WRT
                       00033         ENTRY   WRTA

        TRANSFER VECTOR
      00000  512426436760     RDFLX
      00001  665126436760     WRFLX
      00002  665126436721     WRFLXA

            LINKAGE DIRECTOR
      00003  000000000000
      00004  512524606060

      00005  0634 00 4 00016  RED    SXA     RX4,4
      00006  0500 00 4 00001         CLA     1,4
      00007  0621 00 0 00015         STA     ARG
      00010  0771 00 0 00022         ARS     18
      00011  0621 00 0 00012         STA     GET
      00012  0534 00 4 00000  GET    LXA     --,4
      00013 -0634 00 4 00015         SXD     ARG,4
      00014  0074 00 4 00000         TSX     $RDFLX,4
      00015  0 00000 0 00000  ARG    PZE
      00016  0774 00 4 00000  RX4    AXT     ,4
      00017  0020 00 4 00002         TRA     2,4
                              *
      00020  0634 00 4 00031  WRT    SXA     WX4,4
      00021  0500 00 4 00001         CLA     1,4
      00022  0621 00 0 00030         STA     WARG
      00023  0771 00 0 00022         ARS     18
      00024  0621 00 0 00025         STA     WGET
      00025  0534 00 4 00000  WGET   LXA     --,4
      00026 -0634 00 4 00030         SXD     WARG,4
      00027  0074 00 4 00001         TSX     $WRFLX,4
      00030  0 00000 0 00000  WARG   PZE
      00031  0774 00 4 00000  WX4    AXT     ,4
      00032  0020 00 4 00002         TRA     2,4
                              *
      00033  0634 00 4 00044  WRTA   SXA     AX4,4
      00034  0500 00 4 00001         CLA     1,4
      00035  0621 00 0 00043         STA     AARG
      00036  0771 00 0 00022         ARS     18
      00037  0621 00 0 00040         STA     AGET
      00040  0534 00 4 00000  AGET   LXA     --,4
      00041 -0634 00 4 00043         SXD     AARG,4
      00042  0074 00 4 00002         TSX     $WRFLXA,4
      00043  0 00000 0 00000  AARG   PZE
      00044  0774 00 4 00000  AX4    AXT     ,4
      00045  0020 00 4 00001         TRA     1,4
                                     END
1                                                                                                PAGE 1
                        POST PROCESSOR ASSEMBLY DATA

         46 IS THE FIRST LOCATION NOT USED BY THIS PROGRAM

0REFERENCES TO DEFINED SYMBOLS
         15    ARG     7,   13
         44    AX4    33
         12    GET    11
          5    RED     0
         16    RX4     5
         20    WRT     0
         31    WX4    20
         43   AARG    35,   41
         40   AGET    37
         30   WARG    22,   26
         25   WGET    24
         33   WRTA     0
          0  RDFLX    14
          1  WRFLX    27
          2 WRFLXA    42

0 NO ERROR IN ABOVE ASSEMBLY.


  KEYS   BCD 09/20/68 0219.9    1849         00000
1       M1416-3845  PETER R. BOS  --  TEST SENSE SWITCHES AND CONSOLE KEYS.                      PAGE 1

                                     PCC     ON
                                     LBL     KEYS0000
                                     PCC     OFF

                                     UNLIST
 M                            CALL   MACRO   SUBR,ARGS
 M                            TSX    MACRO   SUBR,T        DEFINES TIA IF SUBR UNDEF.


                              *
                              *  USAGE IS ..    RESUME KEYS -N-
                              *  WHERE N IS TIME TO SLEEP IN MINUTES
                              *  BEFORE REPEATING.
                              *


        TRANSFER VECTOR
      00000  222324252360     BCDEC
      00001  272563634460     GETTM

      00002                          CALL    GETCOM(1)     GET SLEEP TIME IF ANY.
      00002                          TSX     GETCOM,4                                                         .003
      00003  3 00000 0 00001         PAR     1                                                                .003
      00004  0602 00 0 00121         SLW     SLPTIM        SAVE.
      00005 -0340 00 0 00120         LAS     FENCE         TEST FOR FENCE.
      00006  0020 00 0 00010         TRA     *+2           NO, SKIP.
      00007  0600 00 0 00121         STZ     SLPTIM        YES, CLEAR IT.
      00010                          CALL    $BCDEC(SLPTIM) CONVERT TO DECIMAL.
      00010                          TSX     $BCDEC,4                                                         .003
      00011  3 00000 0 00121         PAR     SLPTIM                                                           .003
      00012  0131 00 0 00000         XCA                   TO MQ.
      00013  0200 00 0 00131         MPY     =60           MAKE IT SECONDS.
      00014 -0600 00 0 00121         STQ     SLPTIM        AND PUT AWAY.
      00015                          CALL    WRFLX((*,,0)) TYPE A C.R.
      00015                          TSX     WRFLX,4                                                          .003
      00016  3 00000 0 00016         PAR     *,,0                                                             .003

      00017                          TSX     SETFUL,4      TO 12-BIT MODE.
      00020                          CALL    WRFLXA((HDR,,14)) TYPE FIRST 14 WORDS OF HEADER.
      00020                          TSX     WRFLXA,4                                                         .003
      00021  3 00016 0 00061         PAR     HDR,,14                                                          .003
      00022                          CALL    WRFLX((HDR+14,,LHDR-14)) TYPE THE REST.
      00022                          TSX     WRFLX,4                                                          .003
      00023  3 00004 0 00077         PAR     HDR+14,,LHDR-14                                                  .003

      00024  0774 00 1 00006  WORK   AXT     6,1           6 SENSE SWITCHES.
      00025 -0500 00 0 00135         CAL     =O575760464560 PRESET TO 'ON'.
      00026  0760 00 1 00167         SWT     7,1           TEST A SENSE SWITCH.
      00027 -0500 00 0 00134         CAL     =O575746262660 IF SWITCH OFF, SAY SO.
      00030  0602 00 1 00115         SLW     SS+6,1        SAVE CONDITION OF SWITCH.
      00031  2 00001 1 00025         TIX     *-4,1,1       LOOP TILL DONE.
      00032  0760 00 0 00004         ENK                   NOW GET CONSOLE KEYS.
      00033  0774 00 1 00002         AXT     2,1           CONVERT TO SPREAD OCTAL.
      00034  0774 00 4 00006         AXT     6,4           ..
1       M1416-3845  PETER R. BOS  --  TEST SENSE SWITCHES AND CONSOLE KEYS.                      PAGE 2

      00035  0767 00 0 00003         ALS     3
      00036 -0763 00 0 00003         LGL     3             ..
      00037  2 00001 4 00035         TIX     *-2,4,1
      00040  0602 00 1 00120         SLW     KEYS+2,1      ..
      00041  2 00001 1 00034         TIX     *-5,1,1

      00042  0520 00 0 00121         ZET     SLPTIM        WATCH OUT FOR MACRO BELOW.
      00043                          CALL    $GETTM(DATE,TIME) IF WE ARE TO SLEEP, PRINT TIME NOW.
      00043                          TSX     $GETTM,4                                                         .003
      00044  3 00000 0 00104         PAR     DATE                                                             .003
      00045  3 00000 0 00105         PAR     TIME                                                             .003

      00046                          TSX     SETBCD,4      BACK TO 6-BIT MODE.
      00047                          CALL    WRFLX((MESS,,LMESS))
      00047                          TSX     WRFLX,4                                                          .003
      00050  3 00015 0 00103         PAR     MESS,,LMESS                                                      .003
      00051 -0500 00 0 00121         CAL     SLPTIM        ARE WE TO SLEEP. Q
      00052  0100 00 0 00055         TZE     XIT           NO, GO AWAY QUIETLY.
      00053                          TSX     SLEEP,4       ZZZ .. ZZZ .. ZZZ
      00054  0020 00 0 00024         TRA     WORK          (YAWN) .. MORE WORK TO DO.

      00055                   XIT    CALL    WRFLX((*,,0)) TYPE ANOTHER C.R.
      00055                          TSX     WRFLX,4                                                          .003
      00056  3 00000 0 00056         PAR     *,,0                                                             .003
      00057                          CALL    CHNCOM(0)     AND EXIT TO CHNCOM.
      00057                          TSX     CHNCOM,4                                                         .003
      00060  3 00000 0 00000         PAR     0                                                                .003


      00061  006201250145     HDR    BCI     8,0S1E1N1S1E0 1S1W1I1T1C1H1E1S0 0 010 0 0 020 0 0
      00062  016201250060
      00063  016201660131
      00064  016301230130
      00065  012501620060
      00066  006000010060
      00067  006000600002
      00070  006000600060
      00071  000300600060            BCI     8,030 0 0 040 0 0 050 0 0 060 0 0 0 0 0C1O1N1S1O1L
      00072  006000040060
      00073  006000600005
      00074  006000600060
      00075  000600600060
      00076  006000600060
      00077  002301460145
      00100  016201460143
      00101  012500600142            BCI     2,1E0 1K1E1Y1S
      00102  012501700162
                       00022  LHDR   EQU     *-HDR

      00103 -205757575757     MESS   OCT     605757575757  A SPACE.
      00104  606060606060     DATE   BCI     1,
      00105  606060606060     TIME   BCI     1,
      00106 -206057575757            OCT     606057575757  SOME SPACES.
      00107                   SS     BSS     6             CONDITION OF SENSE SWITCHES.
      00115 -206060575757            OCT     606060575757  SOME MORE SPACES.
      00116                   KEYS   BSS     2             CONSOLE KEYS.
1       M1416-3845  PETER R. BOS  --  TEST SENSE SWITCHES AND CONSOLE KEYS.                      PAGE 3

                       00015  LMESS  EQU     *-MESS

      00120 -377777777777     FENCE  OCT     777777777777
      00121  0 00000 0 00000  SLPTIM PZE

                                     END
                                              REMOTE SEQUENCES
      00122  0101 00 0 00133  GETCOM TIA     =HGETCOM                                                         .002
      00123  0101 00 0 00142  WRFLX  TIA     =HWRFLX                                                          .002
      00124  0101 00 0 00137  SETFUL TIA     =HSETFUL                                                         .002
      00125  0101 00 0 00141  WRFLXA TIA     =HWRFLXA                                                         .002
      00126  0101 00 0 00136  SETBCD TIA     =HSETBCD                                                         .002
      00127  0101 00 0 00140  SLEEP  TIA     =HSLEEP                                                          .002
      00130  0101 00 0 00132  CHNCOM TIA     =HCHNCOM                                                         .002
1       M1416-3845  PETER R. BOS  --  TEST SENSE SWITCHES AND CONSOLE KEYS.                      PAGE 1
                        POST PROCESSOR ASSEMBLY DATA

        143 IS THE FIRST LOCATION NOT USED BY THIS PROGRAM

0REFERENCES TO DEFINED SYMBOLS
        107     SS    30
         61    HDR    21,   23,  103
          1    ..A     3,   11,   16,   21,   23,   44,   45,   50,   56,   60
          0    ..D     3,   11,   16,   21,   23,   44,   45,   50,   56,   60
          0    ..T     3,   11,   16,   21,   23,   44,   45,   50,   56,   60
         55    XIT    52
        104   DATE    44
          3   ..OP     3,   11,   16,   21,   23,   44,   45,   50,   56,   60
        116   KEYS    40
         22   LHDR    23,  103
        103   MESS    50,  120
        105   TIME    45
         24   WORK    54
          0  BCDEC    10
        120  FENCE     5
          1  GETTM    43
          0  ..PZE     3,   11,   16,   21,   23,   44,   50,   56,   60
         15  LMESS    50,  120
        127  SLEEP    53
        123  WRFLX    15,   22,   47,   55
        130 CHNCOM    57
        122 GETCOM     2
        126 SETBCD    46
        124 SETFUL    17
        121 SLPTIM     4,    7,   11,   14,   42,   51
        125 WRFLXA    20

0 NO ERROR IN ABOVE ASSEMBLY.


LCHECK   BCD 09/20/68 0219.9    3310         00000
1     MAD PROGRAM LISTING ... ... ...                 FILE  LINECK   MAD            02/13/68    0152.1
-
                      LINE TESTER AND CHECKER                                                          LM00001
                                                                                                       LM00002
                      LOADING INSTRUCTIONS                                                             LM00003
                           MAD LINECK (LIST)                                                           LM00004
                           LAED NCLOAD LINECK (SQZ) (SRCH) XLIBE                                       LM00005
                           SAVE LCHECK                                                                 LM00006
                           R LCHECK PROBNO PROGNO                                                      LM00007
                                                                                                       LM00008
                      PROBNO MUST BE IN STANDARD FORM                                                  LM00009
                           D.R. WIDRIG  DEC. 1965                                                      LM00010
                                                                                                       LM00011
                  NORMAL MODE IS INTEGER                                                          *001 LM00012
                  VECTOR VALUES LINE1 = 0,0,777777777777K                                         *002 LM00013
                  VECTOR VALUES MESS2 = $ BS = $,0,$,TRUNK$,0,$UNITID IS $                        *003 LM00014
                  VECTOR VALUES LTABL = $= INK,=1620,=PDP6,=NONE,=  67,=  66,$,                   *004 LM00015
                1      $=  84,=  83,=  76,=  77,=  75,=  74,$,                                    *004 LM00016
                2      $=  88,=  86,=  87,=  80,=  82,=  81,=  79,$,                              *004 LM00017
                3      $=  70,=  69,=  68,=  89,=  85,= 101,= 102,= 103,$,                        *004 LM00018
                4      $= 104,= 105,= 106,= 107,= 108,= 111,= 112,= 113,$,                        *004 LM00019
                5      $= 114,= 115,= 116,= 117,= 118,= 121,= 122,= 109,$,                        *004 LM00020
                6      $= 120,= 119,= 124,= 110,= 123,=NONE,=NONE,$,                              *004 LM00021
                7      $=NONE,=NONE,=  71,=  72,=  73,=  78,=TELX,= TWX,= TWX,$                   *004 LM00022
                8      ,$= TWX,= TWX,=MOD33,=MOD33$                                               *004 LM00023
                                                                                                       LM00024
                      GET A-CORE LOCATION POINTERS                                                     LM00025
                                                                                                       LM00026
                  N = COMLOC.($N$)                                                                *005 LM00027
                  PROBN = COMLOC.($PROBN$)                                                        *006 LM00028
                  PROGN = COMLOC.($PROGN$)                                                        *007 LM00029
                  UNITID = COMLOC.($UNITID$)                                                      *008 LM00030
                  LUTBL = ACORE.($LUTBL$).RS.18                                                   *009 LM00031
                                                                                                       LM00032
                      PICK UP ARGUMENTS                                                                LM00033
                                                                                                       LM00034
                  COMARG.(1,LINE1)                                                                *010 LM00035
                  COMARG.(2,LINE1(1))                                                             *011 LM00036
                  PRMESS.($SEARCHING FOR$,LINE1(0),LINE1(1))                                      *012 LM00037
                                                                                                       LM00038
                      LOOK THROUGH USER ARRAYS FOR INDICATED USER                                      LM00039
      START       THROUGH LOOP1, FOR I=3,1,I.G.N                                                  *013 LM00041
                       PROBNO = GLOC.(PROBN+I)                                                    *014 LM00042
                       WHENEVER (PROBNO .NE. LINE1), TRANSFER TO LOOP1                            *015 LM00043
                       PROGNO = GLOC.(PROGN+I)                                                    *016 LM00044
                       WHENEVER (PROGNO .NE. LINE1(1)), TRANSFER TO LOOP1                         *017 LM00045
                                                                                                       LM00046
                      FOUND USER, GET INFO                                                             LM00047
                                                                                                       LM00048
                       BSNO = GLOC.(LUTBL+I)                                                      *018 LM00049
                       MESS2(3) = LTABL(BSNO)                                                     *019 LM00050
                       MESS2(1) = OCRBC.(BSNO) .V. 575757K6                                       *020 LM00051
                       MESS2(6) = GLOC.(UNITID+I)                                                 *021 LM00052
                       PRMESS.($USER FOUND, CALL MIT X4750 FOR TRACE$)                            *022 LM00053
                       PRMESS.(MESS2...7)                                                         *023 LM00054
                       CHNCOM.(0)                                                                 *024 LM00055
      LOOP1       CONTINUE                                                                        *025 LM00056
                                                                                                       LM00057
                      USER NOT FOUND, SNOOZE A LITTLE                                                  LM00058
                                                                                                       LM00059
                  N = 60                                                                          *026 LM00060
                  SLEEP.                                                                          *027 LM00061
                  TRANSFER TO START                                                               *028 LM00062
                  END OF PROGRAM                                                                  *029 LM00063
1MAD PROGRAM,TYPE NOV 1963      (ALL NUMBERS ARE OCTAL)
0TOTAL LOCATIONS   00336 TRANSFER VECTOR LENGTH  00012 PROGRAM BEGINS    00166
0VARIABLE STORAGE (A=ARRAY,C=COMMON,E=ERASABLE,DIGIT=MODE)
      BSNO   00015   1        LOOP1  00013   4        MESS2  00130 A 1        PROBN  00133   1        START  00014   4
      I      00016   1        LTABL  00121 A 1        N      00131   1        PROGNO 00134   1        UNITID 00136   1
      LINE1  00021 A 1        LUTBL  00122   1        PROBNO 00132   1        PROGN  00135   1
0FUNCTION DICTIONARY
      ACORE  00000   1        CHNCOM 00001   1        COMARG 00002   1        COMLOC 00003   1        EXIT   00004   1
      GLOC   00005   1        .SETUP 00006   1        OCRBC  00007   1        PRMESS 00010   1        SLEEP  00011   1
0ABSOLUTE CONSTANTS
 00145 +000000000074     00137 +000000000000     00143 +000000000007     00162 -206351212325     00146 +050060264651
 00152 +316360670407     00147 +232143436044     00155 -066445247360     00165 -246225516026     00161 -175757000000
 00142 +000000000003     00160 -116060606060     00151 +314527602646     00163 -222521512330     00141 +000000000002
 00144 +000000000022     00153 -036463224360     00164 -244531633124     00157 -075146274560     00156 -075146224560
 00154 -056060606060     00140 +000000000001     00150 +233000000000
0STATEMENT DICTIONARY
 00013 TXL -300326000325       00014 TXL -300241000227
0PROGRAM
                 N'R                                                                001  LM00012
                 V'S LINE1 = 0,0,777777777777K                                      002  LM00013
 00166 TSX +0 07400 4 00006    00017     -3 77777 7 77777    00020     +0 00000 0 00000    00021     +0 00000 0 00000
                 V'S MESS2 = $ BS = $,0,$,TRUNK$,0,$UNITID IS $                     003  LM00014
 00123     -2 03162 6 06060    00124     -2 44531 6 33124    00125     +0 00000 0 00000    00126     -3 36351 6 44542
 00127     +0 00000 0 00000    00130     -2 02262 6 01360
                 V'S LTABL = $= INK,=1620,=PDP6,=NONE,=  67,=  66,$,                004  LM00015
                1     $=  84,=  83,=  76,=  77,=  75,=  74,$,                       004  LM00016
                2     $=  88,=  86,=  87,=  80,=  82,=  81,=  79,$,                 004  LM00017
                3     $=  70,=  69,=  68,=  89,=  85,= 101,= 102,= 103,$,           004  LM00018
                4     $= 104,= 105,= 106,= 107,= 108,= 111,= 112,= 113,$,           004  LM00019
                5     $= 114,= 115,= 116,= 117,= 118,= 121,= 122,= 109,$,           004  LM00020
                6     $= 120,= 119,= 124,= 110,= 123,=NONE,=NONE,$,                 004  LM00021
                7     $=NONE,=NONE,=  71,=  72,=  73,=  78,=TELX,= TWX,= TWX,$      004  LM00022
                8     ,$= TWX,= TWX,=MOD33,=MOD33$                                  004  LM00023
 00022     +0 36060 6 06060    00023     -3 31344 4 62403    00024     +1 34446 2 40303    00025     +1 36063 6 66773
 00026     +1 36063 6 66773    00027     +1 36063 6 66773    00030     +1 36063 6 66773    00031     +1 36325 4 36773
 00032     +1 36060 0 71073    00033     +1 36060 0 70373    00034     +1 36060 0 70273    00035     +1 36060 0 70173
 00036     +1 34546 4 52573    00037     +1 34546 4 52573    00040     +1 34546 4 52573    00041     +1 34546 4 52573
 00042     +1 36001 0 20373    00043     +1 36001 0 10073    00044     +1 36001 0 20473    00045     +1 36001 0 11173
 00046     +1 36001 0 20073    00047     +1 36001 0 01173    00050     +1 36001 0 20273    00051     +1 36001 0 20173
 00052     +1 36001 0 11073    00053     +1 36001 0 10773    00054     +1 36001 0 10673    00055     +1 36001 0 10573
 00056     +1 36001 0 10473    00057     +1 36001 0 10373    00060     +1 36001 0 10273    00061     +1 36001 0 10173
 00062     +1 36001 0 01073    00063     +1 36001 0 00773    00064     +1 36001 0 00673    00065     +1 36001 0 00573
 00066     +1 36001 0 00473    00067     +1 36001 0 00373    00070     +1 36001 0 00273    00071     +1 36001 0 00173
 00072     +1 36060 1 00573    00073     +1 36060 1 01173    00074     +1 36060 0 61073    00075     +1 36060 0 61173
 00076     +1 36060 0 70073    00077     +1 36060 0 71173    00100     +1 36060 1 00173    00101     +1 36060 1 00273
 00102     +1 36060 1 00073    00103     +1 36060 1 00773    00104     +1 36060 1 00673    00105     +1 36060 1 01073
 00106     +1 36060 0 70473    00107     +1 36060 0 70573    00110     +1 36060 0 70773    00111     +1 36060 0 70673
 00112     +1 36060 1 00373    00113     +1 36060 1 00473    00114     +1 36060 0 60673    00115     +1 36060 0 60773
 00116     +1 34546 4 52573    00117     +1 34724 4 70673    00120     +1 30106 0 20073    00121     +1 36031 4 54273
                 N = COMLOC.($N$)                                                   005  LM00027
 00167 TSX +0 07400 4 00003    00170 TXH +3 00000 0 00154    00171 STO +0 60100 0 00131
                 PROBN = COMLOC.($PROBN$)                                           006  LM00028
 00172 TSX +0 07400 4 00003    00173 TXH +3 00000 0 00156    00174 STO +0 60100 0 00133
                 PROGN = COMLOC.($PROGN$)                                           007  LM00029
 00175 TSX +0 07400 4 00003    00176 TXH +3 00000 0 00157    00177 STO +0 60100 0 00135
                 UNITID = COMLOC.($UNITID$)                                         008  LM00030
 00200 TSX +0 07400 4 00003    00201 TXH +3 00000 0 00164    00202 STO +0 60100 0 00136
                 LUTBL = ACORE.($LUTBL$).RS.18                                      009  LM00031
 00203 TSX +0 07400 4 00000    00204 TXH +3 00000 0 00153    00205 STO +0 60100 0 00333    00206 CAL -0 50000 0 00144
 00207 STA +0 62100 0 00211    00210 CAL -0 50000 0 00333    00211 LGR -0 76500 0 00000    00212 SLW +0 60200 0 00122
                 COMARG.(1,LINE1)                                                   010  LM00035
 00213 TSX +0 07400 4 00002    00214 TXH +3 00000 0 00140    00215 TXH +3 00000 0 00021
                 COMARG.(2,LINE1(1))                                                011  LM00036
 00216 TSX +0 07400 4 00002    00217 TXH +3 00000 0 00141    00220 TXH +3 00000 0 00020
                 PRMESS.($SEARCHING FOR$,LINE1(0),LINE1(1))                         012  LM00037
 00221 TSX +0 07400 4 00010    00222 TXH +3 00000 0 00163    00223 TXH +3 00000 0 00151    00224 TXH +3 00000 0 00160
 00225 TXH +3 00000 0 00021    00226 TXH +3 00000 0 00020
      START      T'H LOOP1, FOR I=3,1,I.G.N                                         013  LM00041
 00227 CLA +0 50000 0 00142    00230 STO +0 60100 0 00016    00231 TRA +0 02000 0 00235    00232 CLA +0 50000 0 00016
 00233 ADD +0 40000 0 00140    00234 STO +0 60100 0 00016    00235 CLA +0 50000 0 00016    00236 SUB +0 40200 0 00131
 00237 TZE +0 10000 0 00241    00240 TPL +0 12000 0 00326
                      PROBNO = GLOC.(PROBN+I)                                       014  LM00042
 00241 CLA +0 50000 0 00133    00242 ADD +0 40000 0 00016    00243 STO +0 60100 0 00333    00244 TSX +0 07400 4 00005
 00245 TXH +3 00000 0 00333    00246 STO +0 60100 0 00132
                      W'R (PROBNO .NE. LINE1), T'O LOOP1                            015  LM00043
 00247 CLA +0 50000 0 00132    00250 SUB +0 40200 0 00021    00251 TZE +0 10000 0 00253    00252 TRA +0 02000 0 00013
                      PROGNO = GLOC.(PROGN+I)                                       016  LM00044
 00253 CLA +0 50000 0 00135    00254 ADD +0 40000 0 00016    00255 STO +0 60100 0 00333    00256 TSX +0 07400 4 00005
 00257 TXH +3 00000 0 00333    00260 STO +0 60100 0 00134
                      W'R (PROGNO .NE. LINE1(1)), T'O LOOP1                         017  LM00045
 00261 CLA +0 50000 0 00134    00262 SUB +0 40200 0 00020    00263 TZE +0 10000 0 00265    00264 TRA +0 02000 0 00013
                      BSNO = GLOC.(LUTBL+I)                                         018  LM00049
 00265 CLA +0 50000 0 00122    00266 ADD +0 40000 0 00016    00267 STO +0 60100 0 00333    00270 TSX +0 07400 4 00005
 00271 TXH +3 00000 0 00333    00272 STO +0 60100 0 00015
                      MESS2(3) = LTABL(BSNO)                                        019  LM00050
 00273 LXA +0 53400 2 00015    00274 CLA +0 50000 2 00121    00275 STO +0 60100 0 00125
                      MESS2(1) = OCRBC.(BSNO) .V. 575757K6                          020  LM00051
 00276 TSX +0 07400 4 00007    00277 TXH +3 00000 0 00015    00300 STO +0 60100 0 00333    00301 CAL -0 50000 0 00333
 00302 ORA -0 50100 0 00161    00303 SLW +0 60200 0 00127
                      MESS2(6) = GLOC.(UNITID+I)                                    021  LM00052
 00304 CLA +0 50000 0 00136    00305 ADD +0 40000 0 00016    00306 STO +0 60100 0 00333    00307 TSX +0 07400 4 00005
 00310 TXH +3 00000 0 00333    00311 STO +0 60100 0 00122
                      PRMESS.($USER FOUND, CALL MIT X4750 FOR TRACE$)               022  LM00053
 00312 TSX +0 07400 4 00010    00313 TXH +3 00000 0 00165    00314 TXH +3 00000 0 00155    00315 TXH +3 00000 0 00147
 00316 TXH +3 00000 0 00152    00317 TXH +3 00000 0 00146    00320 TXH +3 00000 0 00162
                      PRMESS.(MESS2...7)                                            023  LM00054
 00321 TSX +0 07400 4 00010    00322 TIX +2 00143 0 00130
                      CHNCOM.(0)                                                    024  LM00055
 00323 TSX +0 07400 4 00001    00324 TXH +3 00000 0 00137
      LOOP1      C'E                                                                025  LM00056
 00325 TRA +0 02000 0 00232
                 N = 60                                                             026  LM00060
 00326 CLA +0 50000 0 00145    00327 STO +0 60100 0 00131
                 SLEEP.                                                             027  LM00061
 00330 TSX +0 07400 4 00011
                 T'O START                                                          028  LM00062
 00331 TRA +0 02000 0 00014
                 E'M                                                                029  LM00063
 00332 TSX +0 07400 4 00004


 LDCMP   BCD 09/20/68 0220.0    4321         00000
1     MAD PROGRAM LISTING ... ... ...                 FILE   LDCMP   MAD            02/13/68    0154.9
-
                  NORMAL MODE IS INTEGER                                                          *001 LM00001
                  DIMENSION BUF1(432), BUF2(432), A(14)                                           *002 LM00002
                  DIMENSION LOADS(3000, QQ2)                                                      *003 LM00003
                  VECTOR VALUES QQ2=2,1,300                                                       *004 LM00004
                  VECTOR VALUES SVNS=377777777777K                                                *005 LM00005
                  VECTOR VALUES BUFZ=432                                                          *006 LM00006
                  VECTOR VALUES FOUR=77777777K4                                                   *007 LM00007
                  WHENEVER COMARG.(1).A.SVNS .E. SVNS                                             *008 LM00008
                       PRINT COMMENT $R LDCMP L1 L2 L3 ...$                                       *009 LM00009
                       PRINT COMMENT $TO COMPARE UP TO TEN CTSSLD'S$                              *010 LM00010
                       CHNCOM.(0)                                                                 *011 LM00011
                  END OF CONDITIONAL                                                              *012 LM00012
                  THROUGH ARGS, FOR I=1,1,I.G.10 .OR. COMARG.(I).A.SVNS .E. SVNS                  *013 LM00013
                       NAM=COMARG.(I)                                                             *014 LM00014
                       BFOPEN.($R$,NAM,$CTSSLD$,BUF1(BUFZ),BUF2(BUFZ),-0,ERRP)                    *015 LM00015
                       THROUGH READ, FOR J=1,1, 0B                                                *016 LM00016
                            BFREAD.(NAM,$CTSSLD$, A(14)...14, EOF, -0, -0)                        *017 LM00017
      READ                  LOADS(I, J)=A(14)                                                     *018 LM00018
      EOF              BFCLOS.(NAM, $CTSSLD$, -0)                                                 *019 LM00019
                       TRANSFER TO ARGS                                                           *020 LM00020
      ERRP             PRINT FORMAT ERRF, NAM                                                     *021 LM00021
                       VECTOR VALUES ERRF=$(C6,H'CTSSLD NOT FOUND')*$                             *022 LM00022
                       CHNCOM.(0)                                                                 *023 LM00023
      ARGS        CONTINUE                                                                        *024 LM00024
                  LOADS(I,J)=0                                                                    *025 LM00025
                  LOADS=I-1                                                                       *026 LM00026
                  PRINT FORMAT $(1H )$                                                            *027 LM00027
                  PRINT FORMAT $(10A7)$, (I=1,1, I.G.LOADS, COMARG.(I))                           *028 LM00028
                  PRINT FORMAT $(1H )$                                                            *029 LM00029
                  THROUGH CM03, FOR K=1,1, K.G.LOADS                                              *030 LM00030
                  THROUGH CM03, FOR L=1,1, LOADS(K,L).E.0                                         *031 LM00031
                  WHENEVER LOADS(K,L).NE.77K                                                      *032 LM00032
                       THROUGH CMP2, FOR M=1,1,M.G.K-1                                            *033 LM00033
      CMP2                  A(M)=$      $                                                         *034 LM00034
                       A(K)=LOADS(K,L)                                                            *035 LM00035
                       THROUGH CM02, FOR I=K+1,1, I.G.LOADS                                       *036 LM00036
                            THROUGH CM01, FOR J=1,1,LOADS(I,J).E.0                                *037 LM00037
                            WHENEVER LOADS(K,L).A.FOUR .E. LOADS(I,J).A.FOUR                      *038 LM00038
                                 A(I)=LOADS(I,J)                                                  *039 LM00039
                                 LOADS(I,J)=77K                                                   *040 LM00040
                                 TRANSFER TO  CM02                                                *041 LM00041
                            END OF CONDITIONAL                                                    *042 LM00042
      CM01                  CONTINUE                                                              *043 LM00043
                            A(I)=$      $                                                         *044 LM00044
      CM02             CONTINUE                                                                   *045 LM00045
                       THROUGH CMP1, FOR I=2,1,I.G.LOADS                                          *046 LM00046
                            WHENEVER A(I).NE.A(1)                                                 *047 LM00047
                            PRINT FORMAT $(10A7)$, A(1)...A(LOADS)                                *048 LM00048
                            TRANSFER TO CM03                                                      *049 LM00049
      CMP1                  END OF CONDITIONAL                                                    *050 LM00050
                  END OF CONDITIONAL                                                              *051 LM00051
      CM03        CONTINUE                                                                        *052 LM00052
                  CHNCOM.(0)                                                                      *053 LM00053
                  END OF PROGRAM                                                                  *054 LM00054
1MAD PROGRAM,TYPE NOV 1963      (ALL NUMBERS ARE OCTAL)
0TOTAL LOCATIONS   10176 TRANSFER VECTOR LENGTH  00012 PROGRAM BEGINS    07527
0VARIABLE STORAGE (A=ARRAY,C=COMMON,E=ERASABLE,DIGIT=MODE)
      ARGS   00013   4        CM01   00012   4        EOF    00016   4        J      01611   1        NAM    07506   1
      A      00036 A 1        CM02   00014   4        ERRF   01606 A 1        K      01612   1        QQ2    07511 A 1
      BUF1   00717 A 1        CM03   00015   4        ERRP   00017   4        LOADS  07503 A 1        READ   00012   4
      BUF2   01600 A 1        CMP1   00012   4        FOUR   01607 A 1        L      07504   1        SVNS   07512 A 1
      BUFZ   01601 A 1        CMP2   00012   4        I      01610   1        M      07505   1
0FUNCTION DICTIONARY
      .03311 00000   0        BFCLOS 00001   1        BFOPEN 00002   1        BFREAD 00003   1        CHNCOM 00004   1
      COMARG 00005   1        EXIT   00006   1        .PCOMT 00007   1        .PRINT 00010   1        .SETUP 00011   1
0ABSOLUTE CONSTANTS
 07515 +000000000002     07524 -206060606060     07520 +000000000077     07525 -340100210734     07526 -340130603460
 07517 +000000000016     07522 +236362624324     07523 -116060606060     07516 +000000000012     07513 +000000000000
 07514 +000000000001     07521 +233000000000
0STATEMENT DICTIONARY
 00013 TXL -307701007700       00014 TXL -310134010133       00015 TXL -310167010165       00016 TXL -307671007663
 00017 TXL -307676007672
0PROGRAM
                 NORMAL MODE IS INTEGER                                             001  LM00001
                 D'N BUF1(432), BUF2(432), A(14)                                    002  LM00002
                 D'N LOADS(3000, QQ2)                                               003  LM00003
                 V'S QQ2=2,1,300                                                    004  LM00004
 07527 TSX +0 07400 4 00011    07507     +0 00000 0 00454    07510     +0 00000 0 00001    07511     +0 00000 0 00002
                 V'S SVNS=377777777777K                                             005  LM00005
 07512     +3 77777 7 77777
                 V'S BUFZ=432                                                       006  LM00006
 01601     +0 00000 0 00660
                 V'S FOUR=77777777K4                                                007  LM00007
 01607     -3 77777 7 70000
                 W'R COMARG.(1).A.SVNS .E. SVNS                                     008  LM00008
 07530 TSX +0 07400 4 00005    07531 TXH +3 00000 0 07514    07532 STO +0 60100 0 10172    07533 CAL -0 50000 0 10172
 07534 ANA -0 32000 0 07512    07535 SLW +0 60200 0 10172    07536 CLA +0 50000 0 10172    07537 SUB +0 40200 0 07512
 07540 TNZ -0 10000 0 07560
                      PRINT COMMENT $R LDCMP L1 L2 L3 ...$                          009  LM00009
 07541 TSX +0 07400 4 00007    07542     +0 00000 0 00004    07543     -1 16043 2 42344    07544     -0 76043 0 16043
 07545     +0 26043 0 36033    07546     +3 33360 6 06060
                      PRINT COMMENT $TO COMPARE UP TO TEN CTSSLD'S$                 010  LM00010
 07547 TSX +0 07400 4 00007    07550     +0 00000 0 00005    07551     -2 34660 2 34644    07552     -0 72151 2 56064
 07553     -0 76063 4 66063    07554     +2 54560 2 36362    07555     -2 24324 1 46260
                      CHNCOM.(0)                                                    011  LM00011
 07556 TSX +0 07400 4 00004    07557 TXH +3 00000 0 07513
                 E'L                                                                012  LM00012
                 T'H ARGS, FOR I=1,1,I.G.10 .OR. COMARG.(I).A.SVNS .E. SVNS         013  LM00013
 07560 CLA +0 50000 0 07514    07561 STO +0 60100 0 01610    07562 TRA +0 02000 0 07566    07563 CLA +0 50000 0 01610
 07564 ADD +0 40000 0 07514    07565 STO +0 60100 0 01610    07566 TSX +0 07400 4 00005    07567 TXH +3 00000 0 01610
 07570 STO +0 60100 0 10172    07571 CAL -0 50000 0 10172    07572 ANA -0 32000 0 07512    07573 SLW +0 60200 0 10172
 07574 CLA +0 50000 0 10172    07575 SUB +0 40200 0 07512    07576 TZE +0 10000 0 07701    07577 CLA +0 50000 0 01610
 07600 SUB +0 40200 0 07516    07601 TZE +0 10000 0 07603    07602 TPL +0 12000 0 07701
                      NAM=COMARG.(I)                                                014  LM00014
 07603 TSX +0 07400 4 00005    07604 TXH +3 00000 0 01610    07605 STO +0 60100 0 07506
                      BFOPEN.($R$,NAM,$CTSSLD$,BUF1(BUFZ),BUF2(BUFZ),-0,ERRP)       015  LM00015
 07606 CLS +0 50200 0 07513    07607 STO +0 60100 0 10172    07610 CLA +0 50000 0 01601    07611 SUB +0 40200 0 07612
 07612 TXH +3 00000 0 01600    07613 STA +0 62100 0 07625    07614 CLA +0 50000 0 01601    07615 SUB +0 40200 0 07616
 07616 TXH +3 00000 0 00717    07617 STA +0 62100 0 07624    07620 TSX +0 07400 4 00002    07621 TXH +3 00000 0 07523
 07622 TXH +3 00000 0 07506    07623 TXH +3 00000 0 07522    07624 TXH +3 00000 0 00000    07625 TXH +3 00000 0 00000
 07626 TXH +3 00000 0 10172    07627 TXH +3 00000 0 00017
                      T'H READ, FOR J=1,1, 0B                                       016  LM00016
 07630 CLA +0 50000 0 07514    07631 STO +0 60100 0 01611    07632 TRA +0 02000 0 07636    07633 CLA +0 50000 0 01611
 07634 ADD +0 40000 0 07514    07635 STO +0 60100 0 01611    07636 ZET +0 52000 0 07513    07637 TRA +0 02000 0 07663
                           BFREAD.(NAM,$CTSSLD$, A(14)...14, EOF, -0, -0)           017  LM00017
 07640 CLS +0 50200 0 07513    07641 STO +0 60100 0 10172    07642 CLS +0 50200 0 07513    07643 STO +0 60100 0 10173
 07644 TSX +0 07400 4 00003    07645 TXH +3 00000 0 07506    07646 TXH +3 00000 0 07522    07647 TIX +2 07517 0 00020
 07650 TXH +3 00000 0 00016    07651 TXH +3 00000 0 10173    07652 TXH +3 00000 0 10172
      READ                 LOADS(I, J)=A(14)                                        018  LM00018
 07653 LDQ +0 56000 0 01611    07654 CLA +0 50000 0 01610    07655 TSX +0 07400 4 00000    07656 TXH +3 07511 0 07503
 07657 PAX +0 73400 1 00000    07660 CLA +0 50000 0 00020    07661 STO +0 60100 1 07503    07662 TRA +0 02000 0 07633
      EOF             BFCLOS.(NAM, $CTSSLD$, -0)                                    019  LM00019
 07663 CLS +0 50200 0 07513    07664 STO +0 60100 0 10173    07665 TSX +0 07400 4 00001    07666 TXH +3 00000 0 07506
 07667 TXH +3 00000 0 07522    07670 TXH +3 00000 0 10173
                      T'O ARGS                                                      020  LM00020
 07671 TRA +0 02000 0 00013
      ERRP            P'T ERRF, NAM                                                 021  LM00021
 07672 TSX +0 07400 4 00010    07673 STR -1 01606 1 10174    07674 STR -1 00000 0 07506    07675 STR -1 00000 0 00000
                      V'S ERRF=$(C6,H'CTSSLD NOT FOUND')*$                          022  LM00022
 01602     -1 46060 6 06060    01603     -0 66445 2 41434    01604     -2 04546 6 36026    01605     +2 36362 6 24324
 01606     -3 42306 7 33014
                      CHNCOM.(0)                                                    023  LM00023
 07676 TSX +0 07400 4 00004    07677 TXH +3 00000 0 07513
      ARGS       CONTINUE                                                           024  LM00024
 07700 TRA +0 02000 0 07563
                 LOADS(I,J)=0                                                       025  LM00025
 07701 LDQ +0 56000 0 01611    07702 CLA +0 50000 0 01610    07703 TSX +0 07400 4 00000    07704 TXH +3 07511 0 07503
 07705 PAX +0 73400 1 00000    07706 CLA +0 50000 0 07513    07707 STO +0 60100 1 07503
                 LOADS=I-1                                                          026  LM00026
 07710 CLA +0 50000 0 01610    07711 SUB +0 40200 0 07514    07712 STO +0 60100 0 07503
                 P'T $(1H )$                                                        027  LM00027
 07713 TSX +0 07400 4 00010    07714 STR -1 07526 1 10174    07715 STR -1 00000 0 00000
                 P'T $(10A7)$, (I=1,1, I.G.LOADS, COMARG.(I))                       028  LM00028
 07716 TSX +0 07400 4 00010    07717 STR -1 07525 1 10174    07720 CLA +0 50000 0 07514    07721 STO +0 60100 0 01610
 07722 TRA +0 02000 0 07726    07723 CLA +0 50000 0 01610    07724 ADD +0 40000 0 07514    07725 STO +0 60100 0 01610
 07726 CLA +0 50000 0 01610    07727 SUB +0 40200 0 07503    07730 TZE +0 10000 0 07732    07731 TPL +0 12000 0 07737
 07732 TSX +0 07400 4 00005    07733 TXH +3 00000 0 01610    07734 STO +0 60100 0 10173    07735 STR -1 00000 0 10173
 07736 TRA +0 02000 0 07723    07737 STR -1 00000 0 00000
                 P'T $(1H )$                                                        029  LM00029
 07740 TSX +0 07400 4 00010    07741 STR -1 07526 1 10174    07742 STR -1 00000 0 00000
                 T'H CM03, FOR K=1,1, K.G.LOADS                                     030  LM00030
 07743 CLA +0 50000 0 07514    07744 STO +0 60100 0 01612    07745 TRA +0 02000 0 07751    07746 CLA +0 50000 0 01612
 07747 ADD +0 40000 0 07514    07750 STO +0 60100 0 01612    07751 CLA +0 50000 0 01612    07752 SUB +0 40200 0 07503
 07753 TZE +0 10000 0 07755    07754 TPL +0 12000 0 10167
                 T'H CM03, FOR L=1,1, LOADS(K,L).E.0                                031  LM00031
 07755 CLA +0 50000 0 07514    07756 STO +0 60100 0 07504    07757 TRA +0 02000 0 07763    07760 CLA +0 50000 0 07504
 07761 ADD +0 40000 0 07514    07762 STO +0 60100 0 07504    07763 LDQ +0 56000 0 07504    07764 CLA +0 50000 0 01612
 07765 TSX +0 07400 4 00000    07766 TXH +3 07511 0 07503    07767 PAX +0 73400 1 00000    07770 CLA +0 50000 1 07503
 07771 SUB +0 40200 0 07513    07772 TZE +0 10000 0 10166
                 W'R LOADS(K,L).NE.77K                                              032  LM00032
 07773 LDQ +0 56000 0 07504    07774 CLA +0 50000 0 01612    07775 TSX +0 07400 4 00000    07776 TXH +3 07511 0 07503
 07777 PAX +0 73400 1 00000    10000 CLA +0 50000 1 07503    10001 SUB +0 40200 0 07520    10002 TZE +0 10000 0 10165
                      T'H CMP2, FOR M=1,1,M.G.K-1                                   033  LM00033
 10003 CLA +0 50000 0 07514    10004 STO +0 60100 0 07505    10005 TRA +0 02000 0 10011    10006 CLA +0 50000 0 07505
 10007 ADD +0 40000 0 07514    10010 STO +0 60100 0 07505    10011 CLA +0 50000 0 01612    10012 SUB +0 40200 0 07514
 10013 CHS +0 76000 0 00002    10014 ADD +0 40000 0 07505    10015 TZE +0 10000 0 10017    10016 TPL +0 12000 0 10023
      CMP2                 A(M)=$      $                                            034  LM00034
 10017 LXA +0 53400 1 07505    10020 CLA +0 50000 0 07524    10021 STO +0 60100 1 00036    10022 TRA +0 02000 0 10006
                      A(K)=LOADS(K,L)                                               035  LM00035
 10023 LDQ +0 56000 0 07504    10024 CLA +0 50000 0 01612    10025 TSX +0 07400 4 00000    10026 TXH +3 07511 0 07503
 10027 LXA +0 53400 1 01612    10030 PAX +0 73400 2 00000    10031 CLA +0 50000 2 07503    10032 STO +0 60100 1 00036
                      T'H CM02, FOR I=K+1,1, I.G.LOADS                              036  LM00036
 10033 CLA +0 50000 0 01612    10034 ADD +0 40000 0 07514    10035 STO +0 60100 0 01610    10036 TRA +0 02000 0 10042
 10037 CLA +0 50000 0 01610    10040 ADD +0 40000 0 07514    10041 STO +0 60100 0 01610    10042 CLA +0 50000 0 01610
 10043 SUB +0 40200 0 07503    10044 TZE +0 10000 0 10046    10045 TPL +0 12000 0 10134
                           T'H CM01, FOR J=1,1,LOADS(I,J).E.0                       037  LM00037
 10046 CLA +0 50000 0 07514    10047 STO +0 60100 0 01611    10050 TRA +0 02000 0 10054    10051 CLA +0 50000 0 01611
 10052 ADD +0 40000 0 07514    10053 STO +0 60100 0 01611    10054 LDQ +0 56000 0 01611    10055 CLA +0 50000 0 01610
 10056 TSX +0 07400 4 00000    10057 TXH +3 07511 0 07503    10060 PAX +0 73400 1 00000    10061 CLA +0 50000 1 07503
 10062 SUB +0 40200 0 07513    10063 TZE +0 10000 0 10130
                           W'R LOADS(K,L).A.FOUR .E. LOADS(I,J).A.FOUR              038  LM00038
 10064 LDQ +0 56000 0 01611    10065 CLA +0 50000 0 01610    10066 TSX +0 07400 4 00000    10067 TXH +3 07511 0 07503
 10070 PAX +0 73400 1 00000    10071 CAL -0 50000 1 07503    10072 ANA -0 32000 0 01607    10073 SLW +0 60200 0 10173
 10074 LDQ +0 56000 0 07504    10075 CLA +0 50000 0 01612    10076 TSX +0 07400 4 00000    10077 TXH +3 07511 0 07503
 10100 PAX +0 73400 1 00000    10101 CAL -0 50000 1 07503    10102 ANA -0 32000 0 01607    10103 SLW +0 60200 0 10172
 10104 CLA +0 50000 0 10172    10105 SUB +0 40200 0 10173    10106 TNZ -0 10000 0 10127
                                A(I)=LOADS(I,J)                                     039  LM00039
 10107 LDQ +0 56000 0 01611    10110 CLA +0 50000 0 01610    10111 TSX +0 07400 4 00000    10112 TXH +3 07511 0 07503
 10113 LXA +0 53400 1 01610    10114 PAX +0 73400 2 00000    10115 CLA +0 50000 2 07503    10116 STO +0 60100 1 00036
                                LOADS(I,J)=77K                                      040  LM00040
 10117 LDQ +0 56000 0 01611    10120 CLA +0 50000 0 01610    10121 TSX +0 07400 4 00000    10122 TXH +3 07511 0 07503
 10123 PAX +0 73400 1 00000    10124 CLA +0 50000 0 07520    10125 STO +0 60100 1 07503
                                T'O  CM02                                           041  LM00041
 10126 TRA +0 02000 0 00014
                           E'L                                                      042  LM00042
      CM01                 CONTINUE                                                 043  LM00043
 10127 TRA +0 02000 0 10051
                           A(I)=$      $                                            044  LM00044
 10130 LXA +0 53400 1 01610    10131 CLA +0 50000 0 07524    10132 STO +0 60100 1 00036
      CM02            CONTINUE                                                      045  LM00045
 10133 TRA +0 02000 0 10037
                      T'H CMP1, FOR I=2,1,I.G.LOADS                                 046  LM00046
 10134 CLA +0 50000 0 07515    10135 STO +0 60100 0 01610    10136 TRA +0 02000 0 10142    10137 CLA +0 50000 0 01610
 10140 ADD +0 40000 0 07514    10141 STO +0 60100 0 01610    10142 CLA +0 50000 0 01610    10143 SUB +0 40200 0 07503
 10144 TZE +0 10000 0 10146    10145 TPL +0 12000 0 10165
                           W'R A(I).NE.A(1)                                         047  LM00047
 10146 LXA +0 53400 1 01610    10147 CLA +0 50000 1 00036    10150 SUB +0 40200 0 00035    10151 TZE +0 10000 0 10164
                           P'T $(10A7)$, A(1)...A(LOADS)                            048  LM00048
 10152 TSX +0 07400 4 00010    10153 STR -1 07525 1 10174    10154 CLA +0 50000 0 07503    10155 SUB +0 40200 0 10156
 10156 TXH +3 00000 0 00036    10157 ALS +0 76700 0 00022    10160 STD +0 62200 0 10161    10161 STR -1 00000 0 00035
 10162 STR -1 00000 0 00000
                           T'O CM03                                                 049  LM00049
 10163 TRA +0 02000 0 00015
      CMP1                 E'L                                                      050  LM00050
 10164 TRA +0 02000 0 10137
                 E'L                                                                051  LM00051
      CM03       CONTINUE                                                           052  LM00052
 10165 TRA +0 02000 0 07760    10166 TRA +0 02000 0 07746
                 CHNCOM.(0)                                                         053  LM00053
 10167 TSX +0 07400 4 00004    10170 TXH +3 00000 0 07513
                 E'M                                                                054  LM00054
 10171 TSX +0 07400 4 00006


 LKREM   BCD 09/20/68 0220.0   18097         00000
1     MAD PROGRAM LISTING ... ... ...                 FILE   LKREM   MAD            02/15/68    1512.0
-
                      LINK-REMOVE PROGRAM                                                              LM00001
                                                                                                       LM00002
                      LOADING INSTRUCTIONS                                                             LM00003
                                                                                                       LM00004
                           MAD LKREM (LIST)                                                            LM00005
                           MAD SEARCH (LIST)                                                           LM00006
                           NCLOAD LKREM  SEARCH (SQZ) (SRCH) TALIB                                     LM00007
                           SAVE LKREM                                                                  LM00008
                           R LKREM                                                                     LM00009
                                                                                                       LM00010
                      LINKS WHICH POINT NOWHERE WILL GO AWAY                                           LM00011
                      T. H. VAN VLECK 10/66                                                            LM00012
                           BASED ON 'REMOVE', BY                                                       LM00013
                           D.R. WIDRIG  DEC. 1965                                                      LM00014
                                                                                                       LM00015
                  NORMAL MODE IS INTEGER                                                          *001 LM00016
                  DIMENSION V(2),UFD(7),USR(7),LKSTAT(7)                                          *002 LM00017
                                                                                                       LM00018
                  VECTOR VALUES MFD = $M.F.D.$                                                    *003 LM00019
                  VECTOR VALUES UF = $U.F.D.$                                                     *004 LM00020
                  VECTOR VALUES FILE = $(FILE)$                                                   *005 LM00021
                  VECTOR VALUES TESTSW = 0B                                                       *006 LM00022
                  VECTOR VALUES NPNDSW = 0B                                                       *007 LM00023
                  VECTOR VALUES TRECS  = 0                                                        *008 LM00024
                  VECTOR VALUES DRECS  = 0                                                        *009 LM00025
                  VECTOR VALUES DCNT   = 0                                                        *010 LM00026
                  VECTOR VALUES DONTSW = 0B                                                       *011 LM00027
                  VECTOR VALUES PRTSW  = 0B                                                       *012 LM00028
                  VECTOR VALUES B1B    = 60 5757575757K                                           *013 LM00029
                                                                                                       LM00030
                  VECTOR VALUES R = 432                                                           *014 LM00031
                  VECTOR VALUES MZE = 4K11                                                        *015 LM00032
                  VECTOR VALUES FENCE = 777777777777K                                             *016 LM00033
                                                                                                       LM00034
                                                                                                       LM00035
                  WHENEVER COMARG.(1,ARG) .E. $(PRNT)$                                            *017 LM00036
                       PRTSW = 1B                                                                 *018 LM00037
                  OR WHENEVER ARG  .E. $(TEST)$                                                   *019 LM00038
                       PRTSW = 1B                                                                 *020 LM00039
                       TESTSW = 1B                                                                *021 LM00040
                  END OF CONDITIONAL                                                              *022 LM00041
                  WHENEVER COMARG.(2,ARG) .E. $(NPND)$, NPNDSW = 1B                               *023 LM00042
                  SETBRK.(EOF1)                                                                   *024 LM00043
                                                                                                       LM00044
                      REMEMBERING WHERE YOU WERE, ATTACH TO MFD                                        LM00045
                                                                                                       LM00046
                  ATTNAM.(V(2)...2,NERR3)                                                         *025 LM00047
                  ATTACH.(MFD,FILE,ERR1)                                                          *026 LM00048
                  ATTPB = MFD                                                                     *027 LM00049
                  ATTPG = FILE                                                                    *028 LM00050
                                                                                                       LM00051
                      OPEN AND READ MFD                                                                LM00052
                                                                                                       LM00053
                  MFDSLT = 1                                                                      *029 LM00054
                                                                                                       LM00055
                                                                                                       LM00056
      READM       VAL1 = GETENT.(MFD,FILE,USR,MFDSLT)                                             *030 LM00057
                  WHENEVER VAL1 .E. 4                                                             *031 LM00058
                       TRANSFER TO EOF1                                                           *032 LM00059
                  OR WHENEVER VAL1 .G. 0                                                          *033 LM00060
                       TRANSFER TO ERR1                                                           *034 LM00061
                  END OF CONDITIONAL                                                              *035 LM00062
                  MFDSLT = MFDSLT + 1                                                             *036 LM00063
                  WHENEVER ((USR.E.0)).OR.                                                        *037 LM00064
                1      (USR(1).E.FILE), TRANSFER TO READM                                         *037 LM00065
                                                                                                       LM00066
                      FOUND USER, OPEN AND READ HIS UFD                                                LM00067
                      MAKE SURE ATTACHED TO MFD                                                        LM00068
                                                                                                       LM00069
                  WHENEVER ATTPB .NE. MFD .OR. ATTPG .NE. FILE                                    *038 LM00070
                       ATTPB = MFD                                                                *039 LM00071
                       ATTPG = FILE                                                               *040 LM00072
                       ATTACH.(MFD,FILE,ERR1)                                                     *041 LM00073
                  END OF CONDITIONAL                                                              *042 LM00074
                  USRSLT = 1                                                                      *043 LM00075
                                                                                                       LM00076
                      IS THIS FILE DIRECTORY PROTECTED.Q.                                              LM00077
                                                                                                       LM00078
                  WHENEVER USR .E. $ M1416$                                                       *044 LM00079
                       DONTSW = 1B                                                                *045 LM00080
                  OTHERWISE                                                                       *046 LM00081
                       DONTSW = 0B                                                                *047 LM00082
                  END OF CONDITIONAL                                                              *048 LM00083
                                                                                                       LM00084
                                                                                                       LM00085
      READU       VAL2 = GETENT.(USR,USR(1),UFD,USRSLT)                                           *049 LM00086
                  WHENEVER VAL2 .E.4                                                              *050 LM00087
                       TRANSFER TO READM                                                          *051 LM00088
                  OR WHENEVER VAL2 .G.0                                                           *052 LM00089
                       TRANSFER TO ERR2                                                           *053 LM00090
                  END OF CONDITIONAL                                                              *054 LM00091
                  USRSLT = USRSLT + 1                                                             *055 LM00092
                  DEVICE = (UFD(4).RS.15).A.7K                                                    *056 LM00093
                  WHENEVER ((UFD.E.0).AND.(UFD(1).E.0)).OR.                                       *057 LM00094
                1      (DEVICE.NE.0),                                                             *057 LM00095
                2      TRANSFER TO READU                                                          *057 LM00096
                                                                                                       LM00097
                  WHENEVER UFD(5) .E. UF .AND. UFD(6) .E. FILE                                    *058 LM00098
                       UFD(5) = UFD(2)                                                            *059 LM00099
                       UFD(6) = UFD(3)                                                            *060 LM00100
                       UFD(2) = MFD                                                               *061 LM00101
                       UFD(3) = FILE                                                              *062 LM00102
                  END OF CONDITIONAL                                                              *063 LM00103
                                                                                                       LM00104
                  TRECS = TRECS + 1                                                               *064 LM00105
                                                                                                       LM00106
                  CODE = SEARCH.(UFD(2),UFD(3),LKSTAT,UFD(5),UFD(6))                              *065 LM00107
                  WH = CODE                                                                       *066 LM00108
                  WHENEVER CODE + ((LKSTAT(4).RS.15).A.7K) .E. 0                                  *067 LM00109
                       CODE = SEARCH.(LKSTAT(2),LKSTAT(3),LKSTAT,LKSTAT(5),                       *068 LM00110
                1         LKSTAT(6))                                                              *068 LM00111
                       WHENEVER (LKSTAT(4).RS.15).A.7K .E. 0, CODE = 5                            *069 LM00112
                       WH = WH .V. (CODE.LS.6)                                                    *070 LM00113
                  END OF CONDITIONAL                                                              *071 LM00114
                  WHENEVER CODE .NE. 0, TRANSFER TO GOTCHA                                        *072 LM00115
                  TRANSFER TO READU                                                               *073 LM00116
                                                                                                       LM00117
      GOTCHA      WHENEVER PRTSW                                                                  *074 LM00118
                       WHENEVER NPNDSW.AND.DONTSW, TRANSFER TO READU                              *075 LM00119
                       PRMESS.(USR,B1B,USR(1),B1B,UFD,B1B,UFD(1),B1B,                             *076 LM00120
                1      UFD(2),B1B,UFD(3),B1B,UFD(5),B1B,UFD(6),B1B,WH)                            *076 LM00121
                  END OF CONDITIONAL                                                              *077 LM00122
                  WHENEVER DONTSW, TRANSFER TO READU                                              *078 LM00123
                  DCNT = DCNT + 1                                                                 *079 LM00124
                  WHENEVER TESTSW, TRANSFER TO READU                                              *080 LM00125
                  WHENEVER ATTPB.NE.USR .OR. ATTPG .NE. USR(1)                                    *081 LM00126
                       ATTPB = USR                                                                *082 LM00127
                       ATTPG = USR(1)                                                             *083 LM00128
                       ATTACH.(USR,USR(1),ERR2)                                                   *084 LM00129
                  END OF CONDITIONAL                                                              *085 LM00130
                  UNLINK.(UFD,UFD(1),ERR3)                                                        *086 LM00131
                  TRANSFER TO READU                                                               *087 LM00132
                                                                                                       LM00133
                      EOF ON MFD, FINISH UP AND QUIT                                                   LM00134
                                                                                                       LM00135
      EOF1        CONTINUE                                                                        *088 LM00136
      BAIL        ATTACH.(V(2),V(1),NERR3)                                                        *089 LM00137
                  WHENEVER TESTSW, PRMESA.($WOULD HAVE$)                                          *090 LM00138
                  PRMESS.($UNLINKED$,BZEL.(DERBC.(DCNT)), $ LINKS$)                               *091 LM00139
                  PRMESS.                                                                         *092 LM00140
                  PRMESS.(BZEL.(DERBC.(TRECS)),$ LINKS IN$)                                       *093 LM00141
                  PRMESS.                                                                         *094 LM00142
      NERR3       CHNCOM.(0)                                                                      *095 LM00143
                                                                                                       LM00144
                      ERROR IN MFD, FATAL                                                              LM00145
                                                                                                       LM00146
      ERR1        PRNTER.                                                                         *096 LM00147
                  PRMESS.($FATAL ERROR$,DERBC.(VAL1),B1B,DERBC.(MFDSLT))                          *097 LM00148
                  TRANSFER TO BAIL                                                                *098 LM00149
                                                                                                       LM00150
                      ERROR IN UFD, SKIP AND CONTINUE                                                  LM00151
                                                                                                       LM00152
      ERR2        PRNTER.                                                                         *099 LM00153
                  PRMESS.(DERBC.(VAL2),B1B,DERBC.(USRSLT))                                        *100 LM00154
                  USRSLT = USRSLT + 1                                                             *101 LM00155
                  TRANSFER TO READM                                                               *102 LM00156
                                                                                                       LM00157
                      ERROR IN REMOVING FILE, CONTINUE                                                 LM00158
                                                                                                       LM00159
      ERR3        PRNTER.                                                                         *103 LM00160
                  TRANSFER TO READU                                                               *104 LM00161
                                                                                                       LM00162
                  END OF PROGRAM                                                                  *105 LM00163
1MAD PROGRAM,TYPE NOV 1963      (ALL NUMBERS ARE OCTAL)
0TOTAL LOCATIONS   00631 TRANSFER VECTOR LENGTH  00017 PROGRAM BEGINS    00141
0VARIABLE STORAGE (A=ARRAY,C=COMMON,E=ERASABLE,DIGIT=MODE)
      ARG    00031   1        DONTSW 00040 A 2        GOTCHA 00025   4        PRTSW  00060 A 2        UF     00074 A 1
      ATTPB  00032   1        DRECS  00041 A 1        LKSTAT 00053 A 1        READM  00027   4        USR    00104 A 1
      ATTPG  00033   1        EOF1   00021   4        MFD    00054 A 1        READU  00030   4        USRSLT 00105   1
      B1B    00034 A 1        ERR1   00022   4        MFDSLT 00055   1        R      00061 A 1        VAL1   00106   1
      BAIL   00020   4        ERR2   00023   4        MZE    00056 A 1        TESTSW 00062 A 2        VAL2   00107   1
      CODE   00035   1        ERR3   00024   4        NERR3  00026   4        TRECS  00063 A 1        V      00112 A 1
      DCNT   00036 A 1        FENCE  00042 A 1        NPNDSW 00057 A 2        UFD    00073 A 1        WH     00113   1
      DEVICE 00037   1        FILE   00043 A 1
0FUNCTION DICTIONARY
      ATTACH 00000   1        ATTNAM 00001   1        BZEL   00002   1        CHNCOM 00003   1        COMARG 00004   1
      DERBC  00005   1        EXIT   00006   1        GETENT 00007   1        .SETUP 00010   1        PRMESA 00011   1
      PRMESS 00012   1        PRNTER 00013   1        SEARCH 00014   1        SETBRK 00015   1        UNLINK 00016   1
0ABSOLUTE CONSTANTS
 00126 +255151465160     00127 +262163214360     00131 -203145606060     00132 -204331454262     00125 +252460606060
 00134 -244543314542     00130 +302165256060     00135 -264664432460     00121 +000000000006     00120 +000000000005
 00122 +000000000007     00123 +000000000017     00133 -204401040106     00114 +000000000000     00117 +000000000004
 00136 -344547452434     00116 +000000000002     00140 -346325626334     00137 -344751456334     00115 +000000000001
 00124 +233000000000
0STATEMENT DICTIONARY
 00020 TXL -300527000523       00021 TXL -300523000523       00022 TXL -300566000565       00023 TXL -300604000603
 00024 TXL -300623000622       00025 TXL -300440000436       00026 TXL -300565000563       00027 TXL -300215000207
 00030 TXL -300277000271
0PROGRAM
                 N'R                                                                001  LM00016
                 D'N V(2),UFD(7),USR(7),LKSTAT(7)                                   002  LM00017
                 V'S MFD = $M.F.D.$                                                 003  LM00019
 00141 TSX +0 07400 4 00010    00054     -0 43326 3 32433
                 V'S UF = $U.F.D.$                                                  004  LM00020
 00074     -2 43326 3 32433
                 V'S FILE = $(FILE)$                                                005  LM00021
 00043     -3 42631 4 32534
                 V'S TESTSW = 0B                                                    006  LM00022
 00062     +0 00000 0 00000
                 V'S NPNDSW = 0B                                                    007  LM00023
 00057     +0 00000 0 00000
                 V'S TRECS  = 0                                                     008  LM00024
 00063     +0 00000 0 00000
                 V'S DRECS  = 0                                                     009  LM00025
 00041     +0 00000 0 00000
                 V'S DCNT   = 0                                                     010  LM00026
 00036     +0 00000 0 00000
                 V'S DONTSW = 0B                                                    011  LM00027
 00040     +0 00000 0 00000
                 V'S PRTSW  = 0B                                                    012  LM00028
 00060     +0 00000 0 00000
                 V'S B1B    = 60 5757575757K                                        013  LM00029
 00034     -2 05757 5 75757
                 V'S R = 432                                                        014  LM00031
 00061     +0 00000 0 00660
                 V'S MZE = 4K11                                                     015  LM00032
 00056     -0 00000 0 00000
                 V'S FENCE = 777777777777K                                          016  LM00033
 00042     -3 77777 7 77777
                 W'R COMARG.(1,ARG) .E. $(PRNT)$                                    017  LM00036
 00142 TSX +0 07400 4 00004    00143 TXH +3 00000 0 00115    00144 TXH +3 00000 0 00031    00145 SUB +0 40200 0 00137
 00146 TNZ -0 10000 0 00152
                      PRTSW = 1B                                                    018  LM00037
 00147 CLA +0 50000 0 00115    00150 STO +0 60100 0 00060
                 O'R ARG  .E. $(TEST)$                                              019  LM00038
 00151 TRA +0 02000 0 00161    00152 CLA +0 50000 0 00031    00153 SUB +0 40200 0 00140    00154 TNZ -0 10000 0 00161
                      PRTSW = 1B                                                    020  LM00039
 00155 CLA +0 50000 0 00115    00156 STO +0 60100 0 00060
                      TESTSW = 1B                                                   021  LM00040
 00157 CLA +0 50000 0 00115    00160 STO +0 60100 0 00062
                 E'L                                                                022  LM00041
                 W'R COMARG.(2,ARG) .E. $(NPND)$, NPNDSW = 1B                       023  LM00042
 00161 TSX +0 07400 4 00004    00162 TXH +3 00000 0 00116    00163 TXH +3 00000 0 00031    00164 SUB +0 40200 0 00136
 00165 TNZ -0 10000 0 00170    00166 CLA +0 50000 0 00115    00167 STO +0 60100 0 00057
                 SETBRK.(EOF1)                                                      024  LM00043
 00170 TSX +0 07400 4 00015    00171 TXH +3 00000 0 00021
                 ATTNAM.(V(2)...2,NERR3)                                            025  LM00047
 00172 TSX +0 07400 4 00001    00173 TIX +2 00116 0 00110    00174 TXH +3 00000 0 00026
                 ATTACH.(MFD,FILE,ERR1)                                             026  LM00048
 00175 TSX +0 07400 4 00000    00176 TXH +3 00000 0 00054    00177 TXH +3 00000 0 00043    00200 TXH +3 00000 0 00022
                 ATTPB = MFD                                                        027  LM00049
 00201 CLA +0 50000 0 00054    00202 STO +0 60100 0 00032
                 ATTPG = FILE                                                       028  LM00050
 00203 CLA +0 50000 0 00043    00204 STO +0 60100 0 00033
                 MFDSLT = 1                                                         029  LM00054
 00205 CLA +0 50000 0 00115    00206 STO +0 60100 0 00055
      READM      VAL1 = GETENT.(MFD,FILE,USR,MFDSLT)                                030  LM00057
 00207 TSX +0 07400 4 00007    00210 TXH +3 00000 0 00054    00211 TXH +3 00000 0 00043    00212 TXH +3 00000 0 00104
 00213 TXH +3 00000 0 00055    00214 STO +0 60100 0 00106
                 W'R VAL1 .E. 4                                                     031  LM00058
 00215 CLA +0 50000 0 00106    00216 SUB +0 40200 0 00117    00217 TNZ -0 10000 0 00222
                      T'O EOF1                                                      032  LM00059
 00220 TRA +0 02000 0 00021
                 O'R VAL1 .G. 0                                                     033  LM00060
 00221 TRA +0 02000 0 00227    00222 CLA +0 50000 0 00106    00223 SUB +0 40200 0 00114    00224 TZE +0 10000 0 00227
 00225 TMI -0 12000 0 00227
                      T'O ERR1                                                      034  LM00061
 00226 TRA +0 02000 0 00022
                 E'L                                                                035  LM00062
                 MFDSLT = MFDSLT + 1                                                036  LM00063
 00227 CLA +0 50000 0 00055    00230 ADD +0 40000 0 00115    00231 STO +0 60100 0 00055
                 W'R ((USR.E.0)).OR.                                                037  LM00064
                1     (USR(1).E.FILE), T'O READM                                    037  LM00065
 00232 CLA +0 50000 0 00103    00233 SUB +0 40200 0 00043    00234 TZE +0 10000 0 00240    00235 CLA +0 50000 0 00104
 00236 SUB +0 40200 0 00114    00237 TNZ -0 10000 0 00241    00240 TRA +0 02000 0 00027
                 W'R ATTPB .NE. MFD .OR. ATTPG .NE. FILE                            038  LM00070
 00241 CLA +0 50000 0 00033    00242 SUB +0 40200 0 00043    00243 TNZ -0 10000 0 00247    00244 CLA +0 50000 0 00032
 00245 SUB +0 40200 0 00054    00246 TZE +0 10000 0 00257
                      ATTPB = MFD                                                   039  LM00071
 00247 CLA +0 50000 0 00054    00250 STO +0 60100 0 00032
                      ATTPG = FILE                                                  040  LM00072
 00251 CLA +0 50000 0 00043    00252 STO +0 60100 0 00033
                      ATTACH.(MFD,FILE,ERR1)                                        041  LM00073
 00253 TSX +0 07400 4 00000    00254 TXH +3 00000 0 00054    00255 TXH +3 00000 0 00043    00256 TXH +3 00000 0 00022
                 E'L                                                                042  LM00074
                 USRSLT = 1                                                         043  LM00075
 00257 CLA +0 50000 0 00115    00260 STO +0 60100 0 00105
                 W'R USR .E. $ M1416$                                               044  LM00079
 00261 CLA +0 50000 0 00104    00262 SUB +0 40200 0 00133    00263 TNZ -0 10000 0 00267
                      DONTSW = 1B                                                   045  LM00080
 00264 CLA +0 50000 0 00115    00265 STO +0 60100 0 00040
                 O'E                                                                046  LM00081
 00266 TRA +0 02000 0 00271
                      DONTSW = 0B                                                   047  LM00082
 00267 CLA +0 50000 0 00114    00270 STO +0 60100 0 00040
                 E'L                                                                048  LM00083
      READU      VAL2 = GETENT.(USR,USR(1),UFD,USRSLT)                              049  LM00086
 00271 TSX +0 07400 4 00007    00272 TXH +3 00000 0 00104    00273 TXH +3 00000 0 00103    00274 TXH +3 00000 0 00073
 00275 TXH +3 00000 0 00105    00276 STO +0 60100 0 00107
                 W'R VAL2 .E.4                                                      050  LM00087
 00277 CLA +0 50000 0 00107    00300 SUB +0 40200 0 00117    00301 TNZ -0 10000 0 00304
                      T'O READM                                                     051  LM00088
 00302 TRA +0 02000 0 00027
                 O'R VAL2 .G.0                                                      052  LM00089
 00303 TRA +0 02000 0 00311    00304 CLA +0 50000 0 00107    00305 SUB +0 40200 0 00114    00306 TZE +0 10000 0 00311
 00307 TMI -0 12000 0 00311
                      T'O ERR2                                                      053  LM00090
 00310 TRA +0 02000 0 00023
                 E'L                                                                054  LM00091
                 USRSLT = USRSLT + 1                                                055  LM00092
 00311 CLA +0 50000 0 00105    00312 ADD +0 40000 0 00115    00313 STO +0 60100 0 00105
                 DEVICE = (UFD(4).RS.15).A.7K                                       056  LM00093
 00314 CAL -0 50000 0 00123    00315 STA +0 62100 0 00317    00316 CAL -0 50000 0 00067    00317 LGR -0 76500 0 00000
 00320 ANA -0 32000 0 00122    00321 SLW +0 60200 0 00037
                 W'R ((UFD.E.0).AND.(UFD(1).E.0)).OR.                               057  LM00094
                1     (DEVICE.NE.0),                                                057  LM00095
                2     T'O READU                                                     057  LM00096
 00322 CLA +0 50000 0 00037    00323 SUB +0 40200 0 00114    00324 TNZ -0 10000 0 00334    00325 CLA +0 50000 0 00072
 00326 SUB +0 40200 0 00114    00327 TNZ -0 10000 0 00333    00330 CLA +0 50000 0 00073    00331 SUB +0 40200 0 00114
 00332 TZE +0 10000 0 00334    00333 TRA +0 02000 0 00335    00334 TRA +0 02000 0 00030
                 W'R UFD(5) .E. UF .AND. UFD(6) .E. FILE                            058  LM00098
 00335 CLA +0 50000 0 00065    00336 SUB +0 40200 0 00043    00337 TNZ -0 10000 0 00353    00340 CLA +0 50000 0 00066
 00341 SUB +0 40200 0 00074    00342 TNZ -0 10000 0 00353
                      UFD(5) = UFD(2)                                               059  LM00099
 00343 CLA +0 50000 0 00071    00344 STO +0 60100 0 00066
                      UFD(6) = UFD(3)                                               060  LM00100
 00345 CLA +0 50000 0 00070    00346 STO +0 60100 0 00065
                      UFD(2) = MFD                                                  061  LM00101
 00347 CLA +0 50000 0 00054    00350 STO +0 60100 0 00071
                      UFD(3) = FILE                                                 062  LM00102
 00351 CLA +0 50000 0 00043    00352 STO +0 60100 0 00070
                 E'L                                                                063  LM00103
                 TRECS = TRECS + 1                                                  064  LM00105
 00353 CLA +0 50000 0 00063    00354 ADD +0 40000 0 00115    00355 STO +0 60100 0 00063
                 CODE = SEARCH.(UFD(2),UFD(3),LKSTAT,UFD(5),UFD(6))                 065  LM00107
 00356 TSX +0 07400 4 00014    00357 TXH +3 00000 0 00071    00360 TXH +3 00000 0 00070    00361 TXH +3 00000 0 00053
 00362 TXH +3 00000 0 00066    00363 TXH +3 00000 0 00065    00364 STO +0 60100 0 00035
                 WH = CODE                                                          066  LM00108
 00365 CLA +0 50000 0 00035    00366 STO +0 60100 0 00113
                 W'R CODE + ((LKSTAT(4).RS.15).A.7K) .E. 0                          067  LM00109
 00367 CAL -0 50000 0 00123    00370 STA +0 62100 0 00372    00371 CAL -0 50000 0 00047    00372 LGR -0 76500 0 00000
 00373 ANA -0 32000 0 00122    00374 SLW +0 60200 0 00625    00375 CLA +0 50000 0 00035    00376 ADD +0 40000 0 00625
 00377 SUB +0 40200 0 00114    00400 TNZ -0 10000 0 00431
                      CODE = SEARCH.(LKSTAT(2),LKSTAT(3),LKSTAT,LKSTAT(5),          068  LM00110
                1        LKSTAT(6))                                                 068  LM00111
 00401 TSX +0 07400 4 00014    00402 TXH +3 00000 0 00051    00403 TXH +3 00000 0 00050    00404 TXH +3 00000 0 00053
 00405 TXH +3 00000 0 00046    00406 TXH +3 00000 0 00045    00407 STO +0 60100 0 00035
                      W'R (LKSTAT(4).RS.15).A.7K .E. 0, CODE = 5                    069  LM00112
 00410 CAL -0 50000 0 00123    00411 STA +0 62100 0 00413    00412 CAL -0 50000 0 00047    00413 LGR -0 76500 0 00000
 00414 ANA -0 32000 0 00122    00415 SLW +0 60200 0 00625    00416 CLA +0 50000 0 00625    00417 SUB +0 40200 0 00114
 00420 TNZ -0 10000 0 00423    00421 CLA +0 50000 0 00120    00422 STO +0 60100 0 00035
                      WH = WH .V. (CODE.LS.6)                                       070  LM00113
 00423 CAL -0 50000 0 00121    00424 STA +0 62100 0 00426    00425 CAL -0 50000 0 00035    00426 ALS +0 76700 0 00000
 00427 ORA -0 50100 0 00113    00430 SLW +0 60200 0 00113
                 E'L                                                                071  LM00114
                 W'R CODE .NE. 0, T'O GOTCHA                                        072  LM00115
 00431 CLA +0 50000 0 00035    00432 SUB +0 40200 0 00114    00433 TZE +0 10000 0 00435    00434 TRA +0 02000 0 00025
                 T'O READU                                                          073  LM00116
 00435 TRA +0 02000 0 00030
      GOTCHA     W'R PRTSW                                                          074  LM00118
 00436 NZT -0 52000 0 00060    00437 TRA +0 02000 0 00467
                      W'R NPNDSW.AND.DONTSW, T'O READU                              075  LM00119
 00440 NZT -0 52000 0 00040    00441 TRA +0 02000 0 00445    00442 NZT -0 52000 0 00057    00443 TRA +0 02000 0 00445
 00444 TRA +0 02000 0 00030
                      PRMESS.(USR,B1B,USR(1),B1B,UFD,B1B,UFD(1),B1B,                076  LM00120
                1     UFD(2),B1B,UFD(3),B1B,UFD(5),B1B,UFD(6),B1B,WH)               076  LM00121
 00445 TSX +0 07400 4 00012    00446 TXH +3 00000 0 00104    00447 TXH +3 00000 0 00034    00450 TXH +3 00000 0 00103
 00451 TXH +3 00000 0 00034    00452 TXH +3 00000 0 00073    00453 TXH +3 00000 0 00034    00454 TXH +3 00000 0 00072
 00455 TXH +3 00000 0 00034    00456 TXH +3 00000 0 00071    00457 TXH +3 00000 0 00034    00460 TXH +3 00000 0 00070
 00461 TXH +3 00000 0 00034    00462 TXH +3 00000 0 00066    00463 TXH +3 00000 0 00034    00464 TXH +3 00000 0 00065
 00465 TXH +3 00000 0 00034    00466 TXH +3 00000 0 00113
                 E'L                                                                077  LM00122
                 W'R DONTSW, T'O READU                                              078  LM00123
 00467 NZT -0 52000 0 00040    00470 TRA +0 02000 0 00472    00471 TRA +0 02000 0 00030
                 DCNT = DCNT + 1                                                    079  LM00124
 00472 CLA +0 50000 0 00036    00473 ADD +0 40000 0 00115    00474 STO +0 60100 0 00036
                 W'R TESTSW, T'O READU                                              080  LM00125
 00475 NZT -0 52000 0 00062    00476 TRA +0 02000 0 00500    00477 TRA +0 02000 0 00030
                 W'R ATTPB.NE.USR .OR. ATTPG .NE. USR(1)                            081  LM00126
 00500 CLA +0 50000 0 00033    00501 SUB +0 40200 0 00103    00502 TNZ -0 10000 0 00506    00503 CLA +0 50000 0 00032
 00504 SUB +0 40200 0 00104    00505 TZE +0 10000 0 00516
                      ATTPB = USR                                                   082  LM00127
 00506 CLA +0 50000 0 00104    00507 STO +0 60100 0 00032
                      ATTPG = USR(1)                                                083  LM00128
 00510 CLA +0 50000 0 00103    00511 STO +0 60100 0 00033
                      ATTACH.(USR,USR(1),ERR2)                                      084  LM00129
 00512 TSX +0 07400 4 00000    00513 TXH +3 00000 0 00104    00514 TXH +3 00000 0 00103    00515 TXH +3 00000 0 00023
                 E'L                                                                085  LM00130
                 UNLINK.(UFD,UFD(1),ERR3)                                           086  LM00131
 00516 TSX +0 07400 4 00016    00517 TXH +3 00000 0 00073    00520 TXH +3 00000 0 00072    00521 TXH +3 00000 0 00024
                 T'O READU                                                          087  LM00132
 00522 TRA +0 02000 0 00030
      EOF1       C'E                                                                088  LM00136
      BAIL       ATTACH.(V(2),V(1),NERR3)                                           089  LM00137
 00523 TSX +0 07400 4 00000    00524 TXH +3 00000 0 00110    00525 TXH +3 00000 0 00111    00526 TXH +3 00000 0 00026
                 W'R TESTSW, PRMESA.($WOULD HAVE$)                                  090  LM00138
 00527 NZT -0 52000 0 00062    00530 TRA +0 02000 0 00534    00531 TSX +0 07400 4 00011    00532 TXH +3 00000 0 00135
 00533 TXH +3 00000 0 00130
                 PRMESS.($UNLINKED$,BZEL.(DERBC.(DCNT)), $ LINKS$)                  091  LM00139
 00534 TSX +0 07400 4 00005    00535 TXH +3 00000 0 00036    00536 STO +0 60100 0 00625    00537 TSX +0 07400 4 00002
 00540 TXH +3 00000 0 00625    00541 STO +0 60100 0 00625    00542 TSX +0 07400 4 00012    00543 TXH +3 00000 0 00134
 00544 TXH +3 00000 0 00125    00545 TXH +3 00000 0 00625    00546 TXH +3 00000 0 00132
                 PRMESS.                                                            092  LM00140
 00547 TSX +0 07400 4 00012
                 PRMESS.(BZEL.(DERBC.(TRECS)),$ LINKS IN$)                          093  LM00141
 00550 TSX +0 07400 4 00005    00551 TXH +3 00000 0 00063    00552 STO +0 60100 0 00625    00553 TSX +0 07400 4 00002
 00554 TXH +3 00000 0 00625    00555 STO +0 60100 0 00625    00556 TSX +0 07400 4 00012    00557 TXH +3 00000 0 00625
 00560 TXH +3 00000 0 00132    00561 TXH +3 00000 0 00131
                 PRMESS.                                                            094  LM00142
 00562 TSX +0 07400 4 00012
      NERR3      CHNCOM.(0)                                                         095  LM00143
 00563 TSX +0 07400 4 00003    00564 TXH +3 00000 0 00114
      ERR1       PRNTER.                                                            096  LM00147
 00565 TSX +0 07400 4 00013
                 PRMESS.($FATAL ERROR$,DERBC.(VAL1),B1B,DERBC.(MFDSLT))             097  LM00148
 00566 TSX +0 07400 4 00005    00567 TXH +3 00000 0 00055    00570 STO +0 60100 0 00625    00571 TSX +0 07400 4 00005
 00572 TXH +3 00000 0 00106    00573 STO +0 60100 0 00626    00574 TSX +0 07400 4 00012    00575 TXH +3 00000 0 00127
 00576 TXH +3 00000 0 00126    00577 TXH +3 00000 0 00626    00600 TXH +3 00000 0 00034    00601 TXH +3 00000 0 00625
                 T'O BAIL                                                           098  LM00149
 00602 TRA +0 02000 0 00020
      ERR2       PRNTER.                                                            099  LM00153
 00603 TSX +0 07400 4 00013
                 PRMESS.(DERBC.(VAL2),B1B,DERBC.(USRSLT))                           100  LM00154
 00604 TSX +0 07400 4 00005    00605 TXH +3 00000 0 00105    00606 STO +0 60100 0 00626    00607 TSX +0 07400 4 00005
 00610 TXH +3 00000 0 00107    00611 STO +0 60100 0 00625    00612 TSX +0 07400 4 00012    00613 TXH +3 00000 0 00625
 00614 TXH +3 00000 0 00034    00615 TXH +3 00000 0 00626
                 USRSLT = USRSLT + 1                                                101  LM00155
 00616 CLA +0 50000 0 00105    00617 ADD +0 40000 0 00115    00620 STO +0 60100 0 00105
                 T'O READM                                                          102  LM00156
 00621 TRA +0 02000 0 00027
      ERR3       PRNTER.                                                            103  LM00160
 00622 TSX +0 07400 4 00013
                 T'O READU                                                          104  LM00161
 00623 TRA +0 02000 0 00030
                 E'M                                                                105  LM00163
 00624 TSX +0 07400 4 00006
