1     MAD PROGRAM LISTING ... ... ...                 FILE     REF   MAD            02/15/68    1637.2
-
                      PROGRAM TO EXAMINE SAVED FILES FOR ADDRESS                                       LM00001
                      REFERENCES MATCHING PRE-DETERMINED STANDARDS                                     LM00002
                           D.R. WIDRIG  DEC. 1965                                                      LM00003
                                                                                                       LM00004
                      LOADING INSTRUCTIONS ...                                                         LM00005
                                                                                                       LM00006
                           MAD REF (LIST)                                                              LM00007
                           NCLOAD REF                                                                  LM00008
                           SAVE REF                                                                    LM00009
                           R REF NAME1 LOC -DELTA-                                                     LM00010
                                                                                                       LM00011
                  NORMAL MODE IS INTEGER                                                          *001 LM00012
                                                                                                       LM00013
                  VECTOR VALUES MESS1 = $R REF NAME1 LOC(8)  -DELTA(10)-$,777777777777K           *002 LM00014
                  VECTOR VALUES MESS2 = $EXAMINATION COMPLETED$,777777777777K                     *003 LM00015
                  VECTOR VALUES MESS3 = $EARLY EOF ENCOUNTERED$,777777777777K                     *004 LM00016
                                                                                                       LM00017
                  DIMENSION DRAIN(40),BUFF1(432),BUFF2(432)                                       *005 LM00018
                                                                                                       LM00019
                  VECTOR VALUES IRS(0) ... IRS(7) = 0                                             *006 LM00020
                  VECTOR VALUES LINE = 0,575757575760K,0,0,777777777777K                          *007 LM00021
                  VECTOR VALUES R = 432                                                           *008 LM00022
                  VECTOR VALUES FENCE = 777777777777K                                             *009 LM00023
                  VECTOR VALUES SAVED = $ SAVED$                                                  *010 LM00024
                                                                                                       LM00025
                      GET ARGUMENTS                                                                    LM00026
                                                                                                       LM00027
                  WHENEVER COMARG.(1,N1) .E. FENCE                                                *011 LM00028
      INFORM           PRNTP.(MESS1)                                                              *012 LM00029
                       CHNCOM.(0)                                                                 *013 LM00030
                  OR WHENEVER COMARG.(2,LOC) .E. FENCE                                            *014 LM00031
                       TRANSFER TO INFORM                                                         *015 LM00032
                  OR WHENEVER COMARG.(3,DELTA) .E. FENCE                                          *016 LM00033
                       DELTA = 0                                                                  *017 LM00034
                  END OF CONDITIONAL                                                              *018 LM00035
                  DELTA = BCDEC.(DELTA)                                                           *019 LM00036
                                                                                                       LM00037
                      GET NEGATIVE OF LOCATION                                                         LM00038
                                                                                                       LM00039
                  LOC = 1K5 - BCOCT.(LOC)                                                         *020 LM00040
                                                                                                       LM00041
                      OPEN SAVED FILE AND GET HEADER                                                   LM00042
                                                                                                       LM00043
                  BFOPEN.($R$,N1,SAVED,BUFF1(R),BUFF2(R),-0,ERR1)                                 *021 LM00044
                  BFREAD.(N1,SAVED,MEMBND...1,REOF,EOFCT,ERR1)                                    *022 LM00045
                  SKIP = (MEMBND.RS.18) - 1 - 7                                                   *023 LM00046
                  MEMBND = MEMBND .A. 77777K                                                      *024 LM00047
                                                                                                       LM00048
                      SKIP OVER ILC                                                                    LM00049
                                                                                                       LM00050
                  BFREAD.(N1,SAVED,DRAIN...1,REOF,EOFCT,ERR1)                                     *025 LM00051
                                                                                                       LM00052
                      GET INDEX REGISTERS                                                              LM00053
                                                                                                       LM00054
                  BFREAD.(N1,SAVED,IRS(7)...7,REOF,EOFCT,ERR1)                                    *026 LM00055
                                                                                                       LM00056
                      SKIP REST OF MACHINE CONDITIONS                                                  LM00057
                                                                                                       LM00058
                  BFREAD.(N1,SAVED,DRAIN(SKIP)...SKIP,REOF,EOFCT,ERR1)                            *027 LM00059
                                                                                                       LM00060
                      COMPLEMENT IRS                                                                   LM00061
                                                                                                       LM00062
                  THROUGH LOOP1, FOR I = 1,1,(I.G.7)                                              *028 LM00063
                       IRS(I) = 1K5 - IRS(I)                                                      *029 LM00064
      LOOP1       CONTINUE                                                                        *030 LM00065
                                                                                                       LM00066
                      NOW, LOOK THROUGH BODY OF SAVED FILE                                             LM00067
                                                                                                       LM00068
                  THROUGH LOOP3, FOR I = 0,1,(I.G.MEMBND)                                         *031 LM00069
                       BFREAD.(N1,SAVED,CELL...1,REOF,EOFCT,ERR1)                                 *032 LM00070
                                                                                                       LM00071
                      TEST FOR CELL ADDRESS WITHIN BOUNDS                                              LM00072
                                                                                                       LM00073
                       TEMP = ((.ABS.CELL) + LOC) .A. 77777K                                      *033 LM00074
                       TAG = (CELL.RS.15).A.7K                                                    *034 LM00075
                       WHENEVER ((TEMP+IRS(TAG)).A.77777K).G.DELTA, TRANSFER TO LOOP3             *035 LM00076
                       LINE(0) = OCABC.(I)                                                        *036 LM00077
                       LINE(2) = OCLBC.(CELL)                                                     *037 LM00078
                       LINE(3) = OCRBC.(CELL)                                                     *038 LM00079
                       PRNTP.(LINE)                                                               *039 LM00080
      LOOP3       CONTINUE                                                                        *040 LM00081
                                                                                                       LM00082
                  PRNTP.(MESS2)                                                                   *041 LM00083
                  BFCLOS.(N1,SAVED,NERR1)                                                         *042 LM00084
      NERR1       CHNCOM.(0)                                                                      *043 LM00085
                                                                                                       LM00086
      ERR1        PRNTER.                                                                         *044 LM00087
                  BFCLOS.(N1,SAVED,NERR1)                                                         *045 LM00088
                  TRANSFER TO NERR1                                                               *046 LM00089
                                                                                                       LM00090
      REOF        PRNTP.(MESS3)                                                                   *047 LM00091
                  BFCLOS.(N1,SAVED,NERR1)                                                         *048 LM00092
                  TRANSFER TO NERR1                                                               *049 LM00093
                                                                                                       LM00094
                  END OF PROGRAM                                                                  *050 LM00095
1MAD PROGRAM,TYPE NOV 1963      (ALL NUMBERS ARE OCTAL)
0TOTAL LOCATIONS   02223 TRANSFER VECTOR LENGTH  00016 PROGRAM BEGINS    01725
0VARIABLE STORAGE (A=ARRAY,C=COMMON,E=ERASABLE,DIGIT=MODE)
      BUFF1  00704 A 1        ERR1   00017   4        LOC    01661   1        MESS2  01676 A 1        R      01705 A 1
      BUFF2  01565 A 1        FENCE  01642 A 1        LOOP1  00016   4        MESS3  01703 A 1        SAVED  01706 A 1
      CELL   01566   1        INFORM 00020   4        LOOP3  00021   4        N1     01704   1        SKIP   01707   1
      DELTA  01567   1        IRS    01652 A 1        MEMBND 01662   1        NERR1  00022   4        TAG    01710   1
      DRAIN  01640 A 1        I      01653   1        MESS1  01671 A 1        REOF   00023   4        TEMP   01711   1
      EOFCT  01641   1        LINE   01660 A 1
0FUNCTION DICTIONARY
      BCDEC  00000   1        BCOCT  00001   1        BFCLOS 00002   1        BFOPEN 00003   1        BFREAD 00004   1
      CHNCOM 00005   1        COMARG 00006   1        EXIT   00007   1        .SETUP 00010   1        OCABC  00011   1
      OCLBC  00012   1        OCRBC  00013   1        PRNTER 00014   1        PRNTP  00015   1
0ABSOLUTE CONSTANTS
 01717 +000000000017     01721 +000000077777     01716 +000000000007     01720 +000000000022     01724 -116060606060
 01722 +000000100000     01715 +000000000003     01714 +000000000002     01712 +000000000000     01713 +000000000001
 01723 +233000000000
0STATEMENT DICTIONARY
 00017 TXL -302203002202       00020 TXL -301735001733       00021 TXL -302172002171       00022 TXL -302202002200
 00023 TXL -302212002210
0PROGRAM
                 N'R                                                                001  LM00012
                 V'S MESS1 = $R REF NAME1 LOC(8)  -DELTA(10)-$,777777777777K        002  LM00014
 01725 TSX +0 07400 4 00010    01663     -3 77777 7 77777    01664     -0 06060 6 06060    01665     -2 32174 0 10034
 01666     -2 06040 2 42543    01667     -0 34623 7 41034    01670     -0 52144 2 50160    01671     -1 16051 2 52660
                 V'S MESS2 = $EXAMINATION COMPLETED$,777777777777K                  003  LM00015
 01672     -3 77777 7 77777    01673     -2 32524 6 06060    01674     +2 34644 4 74325    01675     +2 16331 4 64560
 01676     +2 56721 4 43145
                 V'S MESS3 = $EARLY EOF ENCOUNTERED$,777777777777K                  004  LM00016
 01677     -3 77777 7 77777    01700     -1 12524 6 06060    01701     +2 34664 4 56325    01702     +2 54626 6 02545
 01703     +2 52151 4 37060
                 D'N DRAIN(40),BUFF1(432),BUFF2(432)                                005  LM00018
                 V'S IRS(0) ... IRS(7) = 0                                          006  LM00020
 01643     +0 00000 0 00000    01644     +0 00000 0 00000    01645     +0 00000 0 00000    01646     +0 00000 0 00000
 01647     +0 00000 0 00000    01650     +0 00000 0 00000    01651     +0 00000 0 00000    01652     +0 00000 0 00000
                 V'S LINE = 0,575757575760K,0,0,777777777777K                       007  LM00021
 01654     -3 77777 7 77777    01655     +0 00000 0 00000    01656     +0 00000 0 00000    01657     -1 75757 5 75760
 01660     +0 00000 0 00000
                 V'S R = 432                                                        008  LM00022
 01705     +0 00000 0 00660
                 V'S FENCE = 777777777777K                                          009  LM00023
 01642     -3 77777 7 77777
                 V'S SAVED = $ SAVED$                                               010  LM00024
 01706     -2 06221 6 52524
                 W'R COMARG.(1,N1) .E. FENCE                                        011  LM00028
 01726 TSX +0 07400 4 00006    01727 TXH +3 00000 0 01713    01730 TXH +3 00000 0 01704    01731 SUB +0 40200 0 01642
 01732 TNZ -0 10000 0 01740
      INFORM          PRNTP.(MESS1)                                                 012  LM00029
 01733 TSX +0 07400 4 00015    01734 TXH +3 00000 0 01671
                      CHNCOM.(0)                                                    013  LM00030
 01735 TSX +0 07400 4 00005    01736 TXH +3 00000 0 01712
                 O'R COMARG.(2,LOC) .E. FENCE                                       014  LM00031
 01737 TRA +0 02000 0 01756    01740 TSX +0 07400 4 00006    01741 TXH +3 00000 0 01714    01742 TXH +3 00000 0 01661
 01743 SUB +0 40200 0 01642    01744 TNZ -0 10000 0 01747
                      T'O INFORM                                                    015  LM00032
 01745 TRA +0 02000 0 00020
                 O'R COMARG.(3,DELTA) .E. FENCE                                     016  LM00033
 01746 TRA +0 02000 0 01756    01747 TSX +0 07400 4 00006    01750 TXH +3 00000 0 01715    01751 TXH +3 00000 0 01567
 01752 SUB +0 40200 0 01642    01753 TNZ -0 10000 0 01756
                      DELTA = 0                                                     017  LM00034
 01754 CLA +0 50000 0 01712    01755 STO +0 60100 0 01567
                 E'L                                                                018  LM00035
                 DELTA = BCDEC.(DELTA)                                              019  LM00036
 01756 TSX +0 07400 4 00000    01757 TXH +3 00000 0 01567    01760 STO +0 60100 0 01567
                 LOC = 1K5 - BCOCT.(LOC)                                            020  LM00040
 01761 TSX +0 07400 4 00001    01762 TXH +3 00000 0 01661    01763 CHS +0 76000 0 00002    01764 ADD +0 40000 0 01722
 01765 STO +0 60100 0 01661
                 BFOPEN.($R$,N1,SAVED,BUFF1(R),BUFF2(R),-0,ERR1)                    021  LM00044
 01766 CLS +0 50200 0 01712    01767 STO +0 60100 0 02220    01770 CLA +0 50000 0 01705    01771 SUB +0 40200 0 01772
 01772 TXH +3 00000 0 01565    01773 STA +0 62100 0 02005    01774 CLA +0 50000 0 01705    01775 SUB +0 40200 0 01776
 01776 TXH +3 00000 0 00704    01777 STA +0 62100 0 02004    02000 TSX +0 07400 4 00003    02001 TXH +3 00000 0 01724
 02002 TXH +3 00000 0 01704    02003 TXH +3 00000 0 01706    02004 TXH +3 00000 0 00000    02005 TXH +3 00000 0 00000
 02006 TXH +3 00000 0 02220    02007 TXH +3 00000 0 00017
                 BFREAD.(N1,SAVED,MEMBND...1,REOF,EOFCT,ERR1)                       022  LM00045
 02010 TSX +0 07400 4 00004    02011 TXH +3 00000 0 01704    02012 TXH +3 00000 0 01706    02013 TIX +2 01713 0 01662
 02014 TXH +3 00000 0 00023    02015 TXH +3 00000 0 01641    02016 TXH +3 00000 0 00017
                 SKIP = (MEMBND.RS.18) - 1 - 7                                      023  LM00046
 02017 CAL -0 50000 0 01720    02020 STA +0 62100 0 02022    02021 CAL -0 50000 0 01662    02022 LGR -0 76500 0 00000
 02023 SLW +0 60200 0 02220    02024 CLA +0 50000 0 02220    02025 SUB +0 40200 0 01713    02026 SUB +0 40200 0 01716
 02027 STO +0 60100 0 01707
                 MEMBND = MEMBND .A. 77777K                                         024  LM00047
 02030 CAL -0 50000 0 01662    02031 ANA -0 32000 0 01721    02032 SLW +0 60200 0 01662
                 BFREAD.(N1,SAVED,DRAIN...1,REOF,EOFCT,ERR1)                        025  LM00051
 02033 TSX +0 07400 4 00004    02034 TXH +3 00000 0 01704    02035 TXH +3 00000 0 01706    02036 TIX +2 01713 0 01640
 02037 TXH +3 00000 0 00023    02040 TXH +3 00000 0 01641    02041 TXH +3 00000 0 00017
                 BFREAD.(N1,SAVED,IRS(7)...7,REOF,EOFCT,ERR1)                       026  LM00055
 02042 TSX +0 07400 4 00004    02043 TXH +3 00000 0 01704    02044 TXH +3 00000 0 01706    02045 TIX +2 01716 0 01643
 02046 TXH +3 00000 0 00023    02047 TXH +3 00000 0 01641    02050 TXH +3 00000 0 00017
                 BFREAD.(N1,SAVED,DRAIN(SKIP)...SKIP,REOF,EOFCT,ERR1)               027  LM00059
 02051 CLA +0 50000 0 01707    02052 SUB +0 40200 0 02053    02053 TXH +3 00000 0 01640    02054 STA +0 62100 0 02060
 02055 TSX +0 07400 4 00004    02056 TXH +3 00000 0 01704    02057 TXH +3 00000 0 01706    02060 TIX +2 01707 0 00000
 02061 TXH +3 00000 0 00023    02062 TXH +3 00000 0 01641    02063 TXH +3 00000 0 00017
                 T'H LOOP1, FOR I = 1,1,(I.G.7)                                     028  LM00063
 02064 CLA +0 50000 0 01713    02065 STO +0 60100 0 01653    02066 TRA +0 02000 0 02072    02067 CLA +0 50000 0 01653
 02070 ADD +0 40000 0 01713    02071 STO +0 60100 0 01653    02072 CLA +0 50000 0 01653    02073 SUB +0 40200 0 01716
 02074 TZE +0 10000 0 02076    02075 TPL +0 12000 0 02104
                      IRS(I) = 1K5 - IRS(I)                                         029  LM00064
 02076 LXA +0 53400 2 01653    02077 CLA +0 50000 0 01722    02100 SUB +0 40200 2 01652    02101 LXA +0 53400 1 01653
 02102 STO +0 60100 1 01652
      LOOP1      C'E                                                                030  LM00065
 02103 TRA +0 02000 0 02067
                 T'H LOOP3, FOR I = 0,1,(I.G.MEMBND)                                031  LM00069
 02104 CLA +0 50000 0 01712    02105 STO +0 60100 0 01653    02106 TRA +0 02000 0 02112    02107 CLA +0 50000 0 01653
 02110 ADD +0 40000 0 01713    02111 STO +0 60100 0 01653    02112 CLA +0 50000 0 01653    02113 SUB +0 40200 0 01662
 02114 TZE +0 10000 0 02116    02115 TPL +0 12000 0 02172
                      BFREAD.(N1,SAVED,CELL...1,REOF,EOFCT,ERR1)                    032  LM00070
 02116 TSX +0 07400 4 00004    02117 TXH +3 00000 0 01704    02120 TXH +3 00000 0 01706    02121 TIX +2 01713 0 01566
 02122 TXH +3 00000 0 00023    02123 TXH +3 00000 0 01641    02124 TXH +3 00000 0 00017
                      TEMP = ((.ABS.CELL) + LOC) .A. 77777K                         033  LM00074
 02125 CLA +0 50000 0 01566    02126 SSP +0 76000 0 00003    02127 ADD +0 40000 0 01661    02130 STO +0 60100 0 02220
 02131 CAL -0 50000 0 02220    02132 ANA -0 32000 0 01721    02133 SLW +0 60200 0 01711
                      TAG = (CELL.RS.15).A.7K                                       034  LM00075
 02134 CAL -0 50000 0 01717    02135 STA +0 62100 0 02137    02136 CAL -0 50000 0 01566    02137 LGR -0 76500 0 00000
 02140 ANA -0 32000 0 01716    02141 SLW +0 60200 0 01710
                      W'R ((TEMP+IRS(TAG)).A.77777K).G.DELTA, T'O LOOP3             035  LM00076
 02142 LXA +0 53400 2 01710    02143 CLA +0 50000 0 01711    02144 ADD +0 40000 2 01652    02145 STO +0 60100 0 02220
 02146 CAL -0 50000 0 02220    02147 ANA -0 32000 0 01721    02150 SLW +0 60200 0 02220    02151 CLA +0 50000 0 02220
 02152 SUB +0 40200 0 01567    02153 TZE +0 10000 0 02156    02154 TMI -0 12000 0 02156    02155 TRA +0 02000 0 00021
                      LINE(0) = OCABC.(I)                                           036  LM00077
 02156 TSX +0 07400 4 00011    02157 TXH +3 00000 0 01653    02160 STO +0 60100 0 01660
                      LINE(2) = OCLBC.(CELL)                                        037  LM00078
 02161 TSX +0 07400 4 00012    02162 TXH +3 00000 0 01566    02163 STO +0 60100 0 01656
                      LINE(3) = OCRBC.(CELL)                                        038  LM00079
 02164 TSX +0 07400 4 00013    02165 TXH +3 00000 0 01566    02166 STO +0 60100 0 01655
                      PRNTP.(LINE)                                                  039  LM00080
 02167 TSX +0 07400 4 00015    02170 TXH +3 00000 0 01660
      LOOP3      C'E                                                                040  LM00081
 02171 TRA +0 02000 0 02107
                 PRNTP.(MESS2)                                                      041  LM00083
 02172 TSX +0 07400 4 00015    02173 TXH +3 00000 0 01676
                 BFCLOS.(N1,SAVED,NERR1)                                            042  LM00084
 02174 TSX +0 07400 4 00002    02175 TXH +3 00000 0 01704    02176 TXH +3 00000 0 01706    02177 TXH +3 00000 0 00022
      NERR1      CHNCOM.(0)                                                         043  LM00085
 02200 TSX +0 07400 4 00005    02201 TXH +3 00000 0 01712
      ERR1       PRNTER.                                                            044  LM00087
 02202 TSX +0 07400 4 00014
                 BFCLOS.(N1,SAVED,NERR1)                                            045  LM00088
 02203 TSX +0 07400 4 00002    02204 TXH +3 00000 0 01704    02205 TXH +3 00000 0 01706    02206 TXH +3 00000 0 00022
                 T'O NERR1                                                          046  LM00089
 02207 TRA +0 02000 0 00022
      REOF       PRNTP.(MESS3)                                                      047  LM00091
 02210 TSX +0 07400 4 00015    02211 TXH +3 00000 0 01703
                 BFCLOS.(N1,SAVED,NERR1)                                            048  LM00092
 02212 TSX +0 07400 4 00002    02213 TXH +3 00000 0 01704    02214 TXH +3 00000 0 01706    02215 TXH +3 00000 0 00022
                 T'O NERR1                                                          049  LM00093
 02216 TRA +0 02000 0 00022
                 E'M                                                                050  LM00095
 02217 TSX +0 07400 4 00007


RELOAD   BCD 10/12/70 1511.7   43203         00000
1            LOAD SECONDARY STORAGE (TIME-SHARING VERSION)...M.J.BAILEY,2/1/65   06/01/70 1347.6 PAGE 1

                              *
                                     EXTERN  INITTF,OPENDF
                                     EXTERN  LTFILE,TERMTF,GETLSG
                                     EXTERN  ATTACH,TAPFIL,MOUNT,VERIFY
                                     EXTERN  WRFLX,FERRTN,TILOCK,UMOUNT,CLOSE,
                                     EXTERN  SETCLS,SETCLC,CHNCOM,SLEEP
                                     EXTERN  CHFILE,DELFIL
                              *
                                     INSERT  BMCRSC
                              *
                              *  ZERO-IZE A THROUGH A+X-1
                              *
                               CLEAR MACRO   A,X
                                     AXT     X,1
                                     STZ     A+X,1
                                     TIX     *-1,1,1
                               CLEAR END
                              *
                              *      MOVE X WORDS FROM A ET SEQ TO B ET SEQ
                              *
                               MOVE  MACRO   X,A,B
                                     AXT     X,1
                                     CAL     A+X,1
                                     SLW     B+X,1
                                     TIX     *-2,1,1
                               MOVE  END
                              *
                              *  PRINT ONE LINE COMMENT
                              *
                              PRLINE MACRO   COMNT,NWC,LOC
                                     TSX     WRFLX,4
                                             LOC,,NWC
                                     RMT
                               LOC   BCI     NWC,COMNT
                                     RMT
                              PRLINE END
                              *
                              *
                              *      EXECUTE INST. IN CORE A
                              *
                              *
                              EXEC   MACRO   OPC,ADD
                                     TSX     $GETA,7
                                     OPC     ADD
                              EXEC   END
                              *
                              *      GET KEY SETTING VIA SUPERVISOR, SET ABANTP, NOCHAN IF APPROPRIATE
                              *
                              GETSIG MACRO
                                     TSX     GETLSG,4
                              GETSIG END
                              *
                              *      TEST WHETHER 2ND TAPE COPY IS NEEDED, IF NOT GO TO SKIP
                              *
                              SKIFNB MACRO   SKIP
                                     CLA     NOCHAN
1            LOAD SECONDARY STORAGE (TIME-SHARING VERSION)...M.J.BAILEY,2/1/65   06/01/70 1347.6 PAGE 2

                                     SUB     =1
                                     TZE     SKIP
                              SKIFNB END
                              *
                              *      PRINT AN N-WORD MESSAGE FROM  MESSGE
                              *
                              PRM    MACRO   MESSGE,N
                                     TSX     WRFLX,4
                                             MESSGE,,N
                              PRM    END
                              *
                              *      COMPARE 2 SETS OF N CONSECUTIVE WORDS IN A ETC., AND B ETC. ,
                              *      AND IF THEY DO NOT ALL MATCH, GO TO NF, OR OTHERWISE CONTINUE.
                              *
                              CMPWDS MACRO   N,A,B,NF
                                     AXT     N,1
                                     CAL     A+N,1
                                     LAS     B+N,1
                                     TRA     NF
                                     TRA     *+2
                                     TRA     NF
                                     TIX     *-5,1,1
                              CMPWDS END
                              *
                              *      WAIT FOR I/O ON FILE (A,B) TO END, GO TO E IF ERROR OCCURRED
                              *
                              WAIT   MACRO   A,B,E
                                     TSX     FWAIT,4
                                     PTH     A
                                     PTH     B
                                     PTH     E
                              WAIT   END
                              *
                              *      CLOSE THE FILE (A,B)
                              *
                              CLOSE  MACRO   A,B
                                     TSX     CLOSE,4
                                     PTH     A
                                     PTH     B
                              CLOSE  END
                              *
                              *  -  -  -  -  -  -  -  -  -  -  -  -  -  -  -  -  -  -  -  -  -  -
                              *      INITIALIZE I/O SYSTEM AND VARIABLES
                              *  -  -  -  -  -  -  -  -  -  -  -  -  -  -  -  -  -  -  -  -  -  -  -
                              *

      00000  314531636326     INITTF
      00001  464725452426     OPENDF
      00002  436326314325     LTFILE
      00003  632551446326     TERMTF
      00004  272563436227     GETLSG
      00005  216363212330     ATTACH
      00006  632147263143     TAPFIL
      00007  444664456360     MOUNT
      00010  652551312670     VERIFY
      00011  665126436760     WRFLX
1            LOAD SECONDARY STORAGE (TIME-SHARING VERSION)...M.J.BAILEY,2/1/65   06/01/70 1347.6 PAGE 3

      00012  262551516345     FERRTN
      00013  633143462342     TILOCK
      00014  644446644563     UMOUNT
      00015  234346622560     CLOSE
      00016  622563234362     SETCLS
      00017  622563234323     SETCLC
      00020  233045234644     CHNCOM
      00021  624325254760     SLEEP
      00022  233026314325     CHFILE
      00023  242543263143     DELFIL
      00024  475145632551     PRNTER
      00025  216242464751     ASKOPR
      00026  512523214760     RECAP

      00027  0760 00 0 00016         LMTM
      00030 -0500 00 0 00452         CAL     =H C0056
      00031  0602 00 0 74442         SLW     DU
      00032 -0500 00 0 00451         CAL     =H 99999
      00033  0602 00 0 74441         SLW     DP
                              *
                              *
      00034 -0500 00 0 00445         CAL     =H.LOAD.
      00035  0602 00 0 74440         SLW     LFNA
      00036 -0500 00 0 00446         CAL     =H.TAPE.
      00037  0602 00 0 74437         SLW     LFNB
      00040  0500 00 0 00445         CLA     =H.LOAD.
      00041  0602 00 0 74422         SLW     BFNA
      00042  0500 00 0 00443         CLA     =HB.COPY
      00043  0602 00 0 74421         SLW     BFNB
      00044  0074 00 4 00005         TSX     ATTACH,4
 TD   00045  3 00000 0 74442         TXH     DU
 TD   00046  3 00000 0 74441         TXH     DP
                              *
      00047  0074 00 4 00012         TSX     FERRTN,4      SET TRANSFER ADDRESS FOR UNSPECIFIED
      00050  0 00000 0 00072         PZE     ELOC          I/O SYSTEM ERROR RETURNS
      00051  0074 00 4 00013         TSX     TILOCK,4      NO TRAP GO DORMANT IF EVER READ-
      00052  0 00000 0 00435         PZE     =0            INTERLOCKED FROM A USER'S FILE.
                              *
      00053  0074 00 4 00016         TSX     SETCLS,4
      00054  0 00001 0 00276         PZE     COMD,,1
      00055  0074 00 4 00016         TSX     SETCLS,4
      00056  0 00002 0 00276         PZE     COMD,,2
      00057 -0500 00 0 00404         CAL     CHNWRD
      00060  0074 00 4 00017         TSX     SETCLC,4
      00061  0074 00 4 00015         TSX     CLOSE,4       CLOSE ALL FILES
 TD   00062  3 00000 0 00442         TXH     =HALL
 TD   00063  3 00000 0 00447         TXH     =-0
 TD   00064  3 00000 0 00065         TXH     *+1
      00065  0074 00 4 00014         TSX     UMOUNT,4
 TD   00066  3 00000 0 00442         TXH     =HALL
      00067  2 00323 0 00314         TIX     PUMT,,LPUMT
 TD   00070  3 00000 0 00071         TXH     *+1
      00071  0020 00 0 00101         TRA     LEH
                              *
      00072  0634 00 4 00076  ELOC   SXA     ELOC4,4       UNSPECIFIED I/O SYSTEM ERROR OCCURRED
      00073  0074 00 4 00011         TSX     WRFLX,4
1            LOAD SECONDARY STORAGE (TIME-SHARING VERSION)...M.J.BAILEY,2/1/65   06/01/70 1347.6 PAGE 4

      00074  0 00014 0 00410                 MESX,,12
      00075  0074 00 4 00024         TSX     $PRNTER,4
      00076  0774 00 4 00000  ELOC4  AXT     **,4
      00077  0020 00 4 00001         TRA     1,4           RETURN TO I/O SYSTEM CALLER
                              *
                              *
                              *      LOAD ALL TAPE FILES BUT THE FIRST
                              *  -  -  -  -  -  -  -  -  -  -  -  -  -  -  -  -  -  -  -
                              *
      00100  0074 00 4 00003  LEG    TSX     TERMTF,4      CLOSE,UNMOUNT BOTH COPIES OF LOAD TAPE FILE
                              *
      00101  0074 00 4 00025  LEH    TSX     $ASKOPR,4
      00102  3 00006 0 00365         PTH     MESA,,6
      00103  3 00004 0 00257         PTH     LEV,,STOPLD
      00104  3 00003 0 00401         PTH     MESEY,,3
      00105  3 00001 0 00106         PTH     *+1,,CTINUE
                              *
      00106  0500 00 0 00441         CLA     =11           (11 AND 12)
      00107  0601 00 0 74420         STO     AUN           CHANNEL A UNIT NO.
      00110  0400 00 0 00436         ADD     =1
      00111  0601 00 0 74417         STO     BUN           CHANNEL B UNIT NO.
                              *
      00112  0074 00 4 00022         TSX     CHFILE,4
 TD   00113  3 00000 0 74440         TXH     LFNA
 TD   00114  3 00000 0 74437         TXH     LFNB
 TD   00115  3 00000 0 00435         TXH     =0
 TD   00116  3 00000 0 00447         TXH     =-0
 TD   00117  3 00000 0 00447         TXH     =-0
 TD   00120  3 00000 0 00121         TXH     *+1
      00121  0074 00 4 00023         TSX     DELFIL,4
 TD   00122  3 00000 0 74440         TXH     LFNA
 TD   00123  3 00000 0 74437         TXH     LFNB
 TD   00124  3 00000 0 00125         TXH     *+1
      00125  0074 00 4 00022         TSX     CHFILE,4
 TD   00126  3 00000 0 74422         TXH     BFNA
 TD   00127  3 00000 0 74421         TXH     BFNB
 TD   00130  3 00000 0 00435         TXH     =0
 TD   00131  3 00000 0 00447         TXH     =-0
 TD   00132  3 00000 0 00447         TXH     =-0
 TD   00133  3 00000 0 00134         TXH     *+1
      00134  0074 00 4 00023         TSX     DELFIL,4
 TD   00135  3 00000 0 74422         TXH     BFNA
 TD   00136  3 00000 0 74421         TXH     BFNB
 TD   00137  3 00000 0 00140         TXH     *+1
      00140  0074 00 4 00006         TSX     TAPFIL,4      DECLARE LOAD TAPE FILE TO BE UNIT AUN
 TD   00141  3 00000 0 74440         TXH     LFNA
 TD   00142  3 00000 0 74437         TXH     LFNB
 TD   00143  3 00000 0 74420         TXH     AUN
 TD   00144  3 00000 0 00436         TXH     =1
      00145  0074 00 4 00006         TSX     TAPFIL,4      DECLARE CHANNEL B LOAD FILE TO BE UNIT BUN
 TD   00146  3 00000 0 74422         TXH     BFNA
 TD   00147  3 00000 0 74421         TXH     BFNB
 TD   00150  3 00000 0 74417         TXH     BUN
 TD   00151  3 00000 0 00436         TXH     =1
                              *
      00152  0500 00 0 00437  LEI    CLA     =2
1            LOAD SECONDARY STORAGE (TIME-SHARING VERSION)...M.J.BAILEY,2/1/65   06/01/70 1347.6 PAGE 5

      00153  0601 00 0 74443         STO     NOCHAN
      00154  0600 00 0 74444         STZ     ABANTP
      00155                          PRLINE  (DOUBLE-CHANNEL LOAD IS ASSUMED FOR NEXT LOAD FILE,),9
      00155  0074 00 4 00011         TSX     WRFLX,4                                                          .001
      00156  0 00011 0 00424                 ..001,,9                                                         .001
                                     RMT                                                                      .001
                              ..001  BCI     9,DOUBLE-CHANNEL LOAD IS ASSUMED FOR NEXT LOAD FILE,             .001
                                     RMT                                                                      .001
      00157  0074 00 4 00025         TSX     $ASKOPR,4
      00160  3 00006 0 00373         PTH     MESB,,6
      00161  3 00006 0 00164         PTH     LEII,,SWCHAN
      00162  3 00003 0 00401         PTH     MESEY,,3
      00163  3 00001 0 00164         PTH     LEII,,CTINUE
      00164  0074 00 4 00007  LEII   TSX     MOUNT,4
 TD   00165  3 00000 0 00436         TXH     =1
 TD   00166  3 00000 0 74420         TXH     AUN
      00167  2 00353 0 00343         TIX     MTP,,LMTP
                              *
                              *      VERIFY NEXT TAPE FILE
                              *
      00170                          MOVE    4,NFTID,LABEL
      00170  0774 00 1 00004         AXT     4,1                                                              .001
      00171 -0500 00 1 00304         CAL     NFTID+4,1                                                        .001
      00172  0602 00 1 74416         SLW     LABEL+4,1                                                        .001
      00173  2 00001 1 00171         TIX     *-2,1,1                                                          .001
      00174  0074 00 4 00010         TSX     VERIFY,4      CHECK MOUNTED TAPE
 TD   00175  3 00000 0 74420         TXH     AUN
      00176  3 00004 0 74412         TXH     LABEL,,4
 TD   00177  3 00000 0 00201         TXH     LEK           TRANSFER IF NOT A NEW FILE TAPE
      00200  0020 00 0 00235         TRA     LEP           SKIP IF NO UDT'S LOADED YET
                              *
      00201                   LEK    MOVE    4,SDTID,LABEL
      00201  0774 00 1 00004         AXT     4,1                                                              .001
      00202 -0500 00 1 00310         CAL     SDTID+4,1                                                        .001
      00203  0602 00 1 74416         SLW     LABEL+4,1                                                        .001
      00204  2 00001 1 00202         TIX     *-2,1,1                                                          .001
      00205  0074 00 4 00010         TSX     VERIFY,4      CHECK MOUNTED TAPE
 TD   00206  3 00000 0 74420         TXH     AUN
      00207  3 00004 0 74412         TXH     LABEL,,4
 TD   00210  3 00000 0 00212         TXH     LEM           TRANSFER IF NOT SYSTEM FILES TAPE
      00211  0020 00 0 00235         TRA     LEP           SKIP IF SYSTEM FILES NOT PREVIOUSLY MOUNTED
                              *
      00212                   LEM    MOVE    4,UDTID,LABEL
      00212  0774 00 1 00004         AXT     4,1                                                              .001
      00213 -0500 00 1 00314         CAL     UDTID+4,1                                                        .001
      00214  0602 00 1 74416         SLW     LABEL+4,1                                                        .001
      00215  2 00001 1 00213         TIX     *-2,1,1                                                          .001
      00216  0074 00 4 00010         TSX     VERIFY,4      CHECK MOUNTED TAPE
 TD   00217  3 00000 0 74420         TXH     AUN
      00220  3 00004 0 74412         TXH     LABEL,,4
 TD   00221  3 00000 0 00224         TXH     LEMA          TRANSFER IF UNUSUAL CONDITION
 TD   00222  3 00000 0 00341         TXH     TEMP          TYPE
      00223  0020 00 0 00235         TRA     LEP           SKIP IF VERIFY O.K.
                              *
      00224  0500 00 0 00341  LEMA   CLA     TEMP
      00225  0402 00 0 00440         SUB     =7
1            LOAD SECONDARY STORAGE (TIME-SHARING VERSION)...M.J.BAILEY,2/1/65   06/01/70 1347.6 PAGE 6

      00226  0100 00 0 00231         TZE     LEO           SKIP IF WRONG TAPE
      00227  0074 00 4 00024         TSX     $PRNTER,4     OTHER ERROR, TRY AGAIN
      00230  0020 00 0 00152         TRA     LEI
                              *
                              *
      00231  0074 00 4 00014  LEO    TSX     UMOUNT,4      WRONG TAPE - HAVE IT TAKEN OFF
 TD   00232  3 00000 0 74420         TXH     AUN
      00233  2 00340 0 00324         TIX     WRNGTP,,LWG
      00234  0020 00 0 00152         TRA     LEI
                              *
                              *      START READING NEXT TAPE FILE AND SKIP OVER 1ST MFD ON IT
                              *
      00235  0074 00 4 00004  LEP    TSX     GETLSG,4
      00236                          SKIFNB  LEIB2
      00236  0500 00 0 74443         CLA     NOCHAN                                                           .001
      00237  0402 00 0 00436         SUB     =1                                                               .001
      00240  0100 00 0 00245         TZE     LEIB2                                                            .001
      00241  0074 00 4 00007         TSX     MOUNT,4
 TD   00242  3 00000 0 00437         TXH     =2
 TD   00243  3 00000 0 74417         TXH     BUN
      00244  2 00364 0 00354         TIX     MTPB,,LMTPB
      00245  0074 00 4 00000  LEIB2  TSX     INITTF,4      OPEN NEXT LOAD TAPE FILE, SPACE OVER AND
      00246  0020 00 0 00100         TRA     LEG           ABANDON TAPE FILE RETURN
                              *
      00247  0074 00 4 00001         TSX     OPENDF,4      INIT'LIZE READ FROM 1ST DUMPED FILE ON TAPE
 TD   00250  3 00000 0 00252         TXH     LERA          READ ERROR
 TD   00251  3 00000 0 00100         TXH     LEG           ABANDON TAPE FILE
                              *
                              *      LOAD BODY OF THIS DUMP TAPE FILE
                              *      DOWN TO M.F.D. AT END OF TAPE.
                              *
      00252  0074 00 4 00002  LERA   TSX     LTFILE,4      SKIP 1ST MFD, LOAD DOWN TO MFD AT END/TAPE
      00253  0074 00 4 00005         TSX     ATTACH,4
      00254  3 00000 0 74442         PTH     DU
      00255  3 00000 0 74441         PTH     DP
      00256  0020 00 0 00100         TRA     LEG           RETURN FOR NEXT FILE
                              *
      00257  0074 00 4 00026  LEV    TSX     $RECAP,4
                              *
      00260  0074 00 4 00005         TSX     ATTACH,4
 TD   00261  3 00000 0 74442         TXH     DU
 TD   00262  3 00000 0 74441         TXH     DP
                              *
      00263  0074 00 4 00023         TSX     DELFIL,4
 TD   00264  3 00000 0 00450         TXH     =HRESTOR
 TD   00265  3 00000 0 00444         TXH     =HFILE.1
 TD   00266  3 00000 0 00267         TXH     *+1
      00267  0074 00 4 00016         TSX     SETCLS,4
      00270  0 00001 0 00405         PZE     DPCOM,,1
      00271  0074 00 4 00016         TSX     SETCLS,4      SET 'RESUME DAEMXA' AS 2ND COMMAND IN CHAIN
      00272  0 00002 0 00405         PZE     DPCOM,,2
      00273 -0500 00 0 00404         CAL     CHNWRD        SET THE CLC WITH THE 2 COMMANDS IN CHAIN,
      00274  0074 00 4 00017         TSX     SETCLC,4      AND TO START FROM 1ST POSITION IN THE CHAIN
      00275  0074 00 4 00020         TSX     CHNCOM,4      EXECUTE DUMP PROGRAM CHAIN
                              *
                              * - - - - - - - - - - - - - - - - - - - -
1            LOAD SECONDARY STORAGE (TIME-SHARING VERSION)...M.J.BAILEY,2/1/65   06/01/70 1347.6 PAGE 7

                              *      CONSTANTS, VARIABLES, ETC.
                              * - - - - - - - - - - - - - - - - - - - -
                              *
      00276  246243462124     COMD   BCI     1,DSLOAD
      00277 -377777777777            OCT     777777777777
      00300  602351252163     NFTID  BCI     4, CREATED-FILE DUMP TAPE
      00304  606270626325     SDTID  BCI     4, SYSTEM-FILES DUMP TAPE
      00310  606462255162     UDTID  BCI     4, USERS'-FILES DUMP TAPE
      00314  604721453123     PUMT   BCI     7, PANIC UNMOUNT, RE-READY THESE LOAD TAPES
      00323  0 00000 0 00007  LPUMT  PZE     *-PUMT
      00324  603144472551     WRNGTP BCI     8, IMPERMISSIBLE REEL MOUNTED FOR DISK RELOAD
      00334  604743252162            BCI     4, PLEASE TAKE IT OFF
      00340  0 00000 0 00014  LWG    PZE     *-WRNGTP
      00341                   TEMP   BSS     2
      00343  605125212470     MTP    BCI     8, READY THE 1ST REEL OF THE NEXT DUMP TAPE FILE
      00353  0 00000 0 00010  LMTP   PZE     *-MTP
      00354  605125212470     MTPB   BCI     8, READY THE DUPLICATE COPY ON THE OTHER CHANNEL.
      00364  0 00000 0 00010  LMTPB  PZE     *-MTPB
      00365  606346606263     MESA   BCI     6, TO STOP LOADING, START DUMPING.
      00373  604546666046     MESB   BCI     6, NOW OR ANYTIME TO DROP 2ND CHANNEL.
      00401  604663302551     MESEY  BCI     3, OTHERWISE, NOW.
      00404  0 00002 0 00001  CHNWRD PZE     1,,2
      00405  242125444645     DPCOM  BCI     1,DAEMON
      00406  006060606060            BCI     1,0
      00407 -377777777777            OCT     777777777777
      00410  606445256747     MESX   BCI     9, UNEXPECTED AND/OR NON-CRUCIAL I/O SYSTEM ERROR RETURN
      00421  736066303123            BCI     3,, WHICH IS IGNORED
                              *
                                     INSERT  BCMEQB
                              *
                              *  -  -  -  -  -  -  -  -  -  -  -  -  -  -  -  -  -  -
                              *      COMMON AND EQUIVALENCE FOR SECONDARY STORAGE LOAD
                              *         (TIME-SHARING VERSION)
                              *  -  -  -  -  -  -  -  -  -  -  -  -  -  -  -  -  -  -
                              *
                      074446  DEMKEY BOOL    74446         CORE A LOCATION FOR DAEMON KEY SETTING
                              *
                      000017  BASE   BOOL    17            KEY CODE BASE
                      000001  CTINUE BOOL    1             KEY CODE TO CONTINUE WITH PROGRAM,NO CHANGE
                      000002  PAUSE  BOOL    2             KEY CODE TO WAIT 60 SECS.
                      000003  CHLDFL BOOL    3             KEY CODE TO USE DIFFERENT LOAD FILE
                      000004  STOPLD BOOL    4             KEY CODE TO STOP LOADING, START DUMPING
                      000005  ABANKY BOOL    5             KEY CODE TO ABANDON LOAD TAPE FILE
                      000006  SWCHAN BOOL    6             KEY CODE TO GO FROM 1 OR 2 TO 2 OR 1 CHANS.
                      000007  LSREEL BOOL    7             KEY CODE TO INDICATE LAST REEL OF LOAD FILE
                      000010  CHREEL BOOL    10            KEY CODE TO CORRECT REEL ORDER ERROR
                       77777  NEWCOM EQU     -1            TOP OF MEMORY
                      077461  OLDCOM BOOL    77461         OLD TOP OF COMMON
                       77462  COMRLC EQU     OLDCOM-NEWCOM RELOCATION FACTOR
                       77777         COMMON  COMRLC        RELOCATE COMMON
                       01554  UF     EQU     32767/2-DEMKEY/2 LENGTH OF USER LIST
                       77777  UFL    COMMON  2*UF          USER FILE LIST  (1ST PARTS OF FILE NAMES)
                       74446         COMMON  1             INSERT DUMMY IF NECESSARY
                       74445         COMMON  1             DEMKEY CELL IN NON-CTSS VERSION
                       74445  KEYVAL COMMON  1
                       74444  ABANTP COMMON  1             ABANDON TAPE FILE INDICATOR
1            LOAD SECONDARY STORAGE (TIME-SHARING VERSION)...M.J.BAILEY,2/1/65   06/01/70 1347.6 PAGE 8

                       74443  NOCHAN COMMON  1             NO. OF CHANNELS BEING READ (1 OR 2)
                       74442  DU     COMMON  1             PROBLEM NO. OF DUMP/LOAD PACKAGE
                       74441  DP     COMMON  1             PROGRAMMER NO. OF DITTO.
                       74440  LFNA   COMMON  1             LOAD TAPE FILE NAME (PART 1)
                       74437  LFNB   COMMON  1              ,,   ,,   ,,   ,,  (PART 2)
                       74423         COMMON  11            DUMPED FILE'S PREAMBLE FROM DUMP TAPE
                       74423  PREAM  COMMON  1             DUMPED FILE'S DUMP TAPE PREAMBLE 1ST WORD
                       74422  BFNA   COMMON  1             CHANNEL B LOAD TAPE FILE NAME (PART 1)
                       74421  BFNB   COMMON  1             CHANNEL B LOAD TAPE FILE NAME (PART 2)
                       74420  AUN    COMMON  1             CHANNEL A UNIT NO.
                       74417  BUN    COMMON  1             CHANNEL B UNIT NO.
                       74416  TEOF   COMMON  1             TAPE EOF INDICATOR/WORD COUNT
                       74412         COMMON  3             LABEL OF TAPE FILE CURRENTLY BEING LOADED
                       74412  LABEL  COMMON  1             LABEL OF TAPE FILE DITTO.   1ST WORD
                       74411  X      COMMON  1             TAPE FILE POINTER
                                     END
                                              REMOTE SEQUENCES
      00424  244664224325     ..001  BCI     9,DOUBLE-CHANNEL LOAD IS ASSUMED FOR NEXT LOAD FILE,             .001

1            LOAD SECONDARY STORAGE (TIME-SHARING VERSION)...M.J.BAILEY,2/1/65   06/01/70 1347.6 PAGE 1
                        POST PROCESSOR ASSEMBLY DATA

       74410 IS THE LAST LOCATION NOT USED BY THIS PROGRAM
        453 IS THE FIRST LOCATION NOT USED BY THIS PROGRAM

0REFERENCES TO DEFINED SYMBOLS
      74411      X   424
      74441     DP    33,   46,  255,  262,  424
      74442     DU    31,   45,  254,  261,  424
       1554     UF   424
      74420    AUN   107,  143,  166,  175,  206,  217,  232,  424
      74417    BUN   111,  150,  243,  424
        100    LEG   246,  251,  256
        101    LEH    71
        152    LEI   230,  234
        201    LEK   177
        212    LEM   210
        231    LEO   226
        235    LEP   200,  211,  223
        257    LEV   103
        340    LWG   233
        343    MTP   167,  353
      77777    UFL   424
         17   BASE   424
      74422   BFNA    41,  126,  135,  146,  424
      74421   BFNB    43,  127,  136,  147,  424
        276   COMD    54,   56
         72   ELOC    50
        164   LEII   161,  163
        224   LEMA   221
        252   LERA   250
      74440   LFNA    35,  113,  122,  141,  424
      74437   LFNB    37,  114,  123,  142,  424
        353   LMTP   167
        365   MESA   102
        373   MESB   160
        410   MESX    74
        354   MTPB   244,  364
        314   PUMT    67,  323
        341   TEMP   222,  224
      74416   TEOF   424
         15  CLOSE    61
        405  DPCOM   270,  272
         76  ELOC4    72
        424  ..001   156
      74412  LABEL   172,  176,  203,  207,  214,  220,  424
        245  LEIB2   240
        364  LMTPB   244
        323  LPUMT    67
        401  MESEY   104,  162
          7  MOUNT   164,  241
        300  NFTID   171
          2  PAUSE   424
      74423  PREAM   424
         26  RECAP   257
        304  SDTID   202
1            LOAD SECONDARY STORAGE (TIME-SHARING VERSION)...M.J.BAILEY,2/1/65   06/01/70 1347.6 PAGE 2
                        POST PROCESSOR ASSEMBLY DATA

         21  SLEEP
        310  UDTID   213
         11  WRFLX    73,  155
          5 ABANKY   424
      74444 ABANTP   154,  424
         25 ASKOPR   101,  157
          5 ATTACH    44,  253,  260
         22 CHFILE   112,  125
          3 CHLDFL   424
         20 CHNCOM   275
        404 CHNWRD    57,  273
         10 CHREEL   424
      77462 COMRLC   424
          1 CTINUE   105,  163,  424
         23 DELFIL   121,  134,  263
      74446 DEMKEY   424
         12 FERRTN    47
          4 GETLSG   235
          0 INITTF   245
      74445 KEYVAL   424
          7 LSREEL   424
          2 LTFILE   252
      77777 NEWCOM   424
      74443 NOCHAN   153,  236,  424
      77461 OLDCOM   424
          1 OPENDF   247
         24 PRNTER    75,  227
         17 SETCLC    60,  274
         16 SETCLS    53,   55,  267,  271
          4 STOPLD   103,  424
          6 SWCHAN   161,  424
          6 TAPFIL   140,  145
          3 TERMTF   100
         13 TILOCK    51
         14 UMOUNT    65,  231
         10 VERIFY   174,  205,  216
        324 WRNGTP   233,  340

0 NO ERROR IN ABOVE ASSEMBLY.
1            LOAD MAIN BODY OF DUMP TAPE FILE BETWEEN MFDS...M.J.BAILEY,2/1/65   06/01/70 1349.9 PAGE 1

                              *           (TIME-SHARING VERSION)
                              *
                       00021         ENTRY   LTFILE
                              *
                                     EXTERN  OPENDF,RDF,GETLSG
                                     EXTERN  TRFILE
                                     EXTERN  ATTACH,BUFFER,FWAIT,FSTATE
                                     EXTERN  OPEN,CLOSE,WRFILE,SETFIL
                                     EXTERN  WRFLX,CHFILE
                              *
                                     INSERT  BMCRSC
                              *
                              *  ZERO-IZE A THROUGH A+X-1
                              *
                               CLEAR MACRO   A,X
                                     AXT     X,1
                                     STZ     A+X,1
                                     TIX     *-1,1,1
                               CLEAR END
                              *
                              *      MOVE X WORDS FROM A ET SEQ TO B ET SEQ
                              *
                               MOVE  MACRO   X,A,B
                                     AXT     X,1
                                     CAL     A+X,1
                                     SLW     B+X,1
                                     TIX     *-2,1,1
                               MOVE  END
                              *
                              *  PRINT ONE LINE COMMENT
                              *
                              PRLINE MACRO   COMNT,NWC,LOC
                                     TSX     WRFLX,4
                                             LOC,,NWC
                                     RMT
                               LOC   BCI     NWC,COMNT
                                     RMT
                              PRLINE END
                              *
                              *
                              *      EXECUTE INST. IN CORE A
                              *
                              *
                              EXEC   MACRO   OPC,ADD
                                     TSX     $GETA,7
                                     OPC     ADD
                              EXEC   END
                              *
                              *      GET KEY SETTING VIA SUPERVISOR, SET ABANTP, NOCHAN IF APPROPRIATE
                              *
                              GETSIG MACRO
                                     TSX     GETLSG,4
                              GETSIG END
                              *
                              *      TEST WHETHER 2ND TAPE COPY IS NEEDED, IF NOT GO TO SKIP
                              *
1            LOAD MAIN BODY OF DUMP TAPE FILE BETWEEN MFDS...M.J.BAILEY,2/1/65   06/01/70 1349.9 PAGE 2

                              SKIFNB MACRO   SKIP
                                     CLA     NOCHAN
                                     SUB     =1
                                     TZE     SKIP
                              SKIFNB END
                              *
                              *      PRINT AN N-WORD MESSAGE FROM  MESSGE
                              *
                              PRM    MACRO   MESSGE,N
                                     TSX     WRFLX,4
                                             MESSGE,,N
                              PRM    END
                              *
                              *      COMPARE 2 SETS OF N CONSECUTIVE WORDS IN A ETC., AND B ETC. ,
                              *      AND IF THEY DO NOT ALL MATCH, GO TO NF, OR OTHERWISE CONTINUE.
                              *
                              CMPWDS MACRO   N,A,B,NF
                                     AXT     N,1
                                     CAL     A+N,1
                                     LAS     B+N,1
                                     TRA     NF
                                     TRA     *+2
                                     TRA     NF
                                     TIX     *-5,1,1
                              CMPWDS END
                              *
                              *      WAIT FOR I/O ON FILE (A,B) TO END, GO TO E IF ERROR OCCURRED
                              *
                              WAIT   MACRO   A,B,E
                                     TSX     FWAIT,4
                                     PTH     A
                                     PTH     B
                                     PTH     E
                              WAIT   END
                              *
                              *      CLOSE THE FILE (A,B)
                              *
                              CLOSE  MACRO   A,B
                                     TSX     CLOSE,4
                                     PTH     A
                                     PTH     B
                              CLOSE  END
                              *
                              *
                              *  -  -  -  -  -  -  -  -  -  -  -  -  -  -  -  -  -  -  -  -  -  -
                              *      INITIALIZE AND GET PREAMBLE OF UFD FILE OF 1ST USER ON TAPE
                              *  -  -  -  -  -  -  -  -  -  -  -  -  -  -  -  -  -  -  -  -  -  -
                              *

      00000  464725452426     OPENDF
      00001  512426606060     RDF
      00002  272563436227     GETLSG
      00003  635126314325     TRFILE
      00004  216363212330     ATTACH
      00005  226426262551     BUFFER
      00006  266621316360     FWAIT
1            LOAD MAIN BODY OF DUMP TAPE FILE BETWEEN MFDS...M.J.BAILEY,2/1/65   06/01/70 1349.9 PAGE 3

      00007  266263216325     FSTATE
      00010  464725456060     OPEN
      00011  234346622560     CLOSE
      00012  665126314325     WRFILE
      00013  622563263143     SETFIL
      00014  665126436760     WRFLX
      00015  233026314325     CHFILE
      00016  475145632551     PRNTER


      00021  0634 00 1 00077  LTFILE SXA     X1,1
      00022  0634 00 2 00076         SXA     X2,2
      00023  0634 00 3 00075         SXA     X3,3
      00024  0634 00 4 00074         SXA     X4,4
                              *
      00025  0600 00 0 00365         STZ     LUSER
      00026  0600 00 0 00366         STZ     LUSER+1
                              *
                              *  -  -  -  -  -  -  -  -  -  -  -  -  -  -  -  -  -  -  -  -  -
                              *      EXAMINE NEXT DUMPED FILE ON TAPE
                              *  -  -  -  -  -  -  -  -  -  -  -  -  -  -  -  -  -  -  -  -  -
                              *
      00027                   XTA    CLEAR   PREAM,12
      00027  0774 00 1 00014         AXT     12,1                                                             .001
      00030  0600 00 1 74437         STZ     PREAM+12,1                                                       .001
      00031  2 00001 1 00030         TIX     *-1,1,1                                                          .001
      00032  0074 00 4 00000         TSX     OPENDF,4      INITIALIZE READING FROM NEXT DUMPED FILE
 TD   00033  3 00000 0 00036         TXH     XTC           (ERROR ADDRESS)
 TD   00034  3 00000 0 00074         TXH     ABANTF        ABANDON TAPE FILE
      00035  0020 00 0 00041         TRA     XTD           SKIP TO SEE WHAT KIND OF FILE IT IS
                              *
      00036  0520 00 0 74416  XTC    ZET     TEOF
      00037  0020 00 0 00074         TRA     ABANTF
      00040  0020 00 0 00300         TRA     ZTQB
                              *
      00041  0760 00 0 00166  XTD    SWT     6
      00042  0020 00 0 00055         TRA     XTDD
      00043                          MOVE    2,PREAM,SEE
      00043  0774 00 1 00002         AXT     2,1                                                              .001
      00044 -0500 00 1 74425         CAL     PREAM+2,1                                                        .001
      00045  0602 00 1 00371         SLW     SEE+2,1                                                          .001
      00046  2 00001 1 00044         TIX     *-2,1,1                                                          .001
      00047                          MOVE    2,PREAM+5,SEE+2
      00047  0774 00 1 00002         AXT     2,1                                                              .001
      00050 -0500 00 1 74432         CAL     PREAM+5+2,1                                                      .001
      00051  0602 00 1 00373         SLW     SEE+2+2,1                                                        .001
      00052  2 00001 1 00050         TIX     *-2,1,1                                                          .001
      00053                          PRM     SEE,4
      00053  0074 00 4 00014         TSX     WRFLX,4                                                          .001
      00054  0 00004 0 00367                 SEE,,4                                                           .001
                              *
      00055                   XTDD   CMPWDS  3,UFDNAM,PREAM+5,XTE
      00055  0774 00 1 00003         AXT     3,1                                                              .001
      00056 -0500 00 1 00376         CAL     UFDNAM+3,1                                                       .001
      00057 -0340 00 1 74433         LAS     PREAM+5+3,1                                                      .001
      00060  0020 00 0 00065         TRA     XTE                                                              .001
1            LOAD MAIN BODY OF DUMP TAPE FILE BETWEEN MFDS...M.J.BAILEY,2/1/65   06/01/70 1349.9 PAGE 4

      00061  0020 00 0 00063         TRA     *+2                                                              .001
      00062  0020 00 0 00065         TRA     XTE                                                              .001
      00063  2 00001 1 00056         TIX     *-5,1,1                                                          .001
      00064  0020 00 0 00027         TRA     XTA
                              *
      00065                   XTE    CMPWDS  2,MFDNAM,PREAM,ZTA
      00065  0774 00 1 00002         AXT     2,1                                                              .001
      00066 -0500 00 1 00413         CAL     MFDNAM+2,1                                                       .001
      00067 -0340 00 1 74425         LAS     PREAM+2,1                                                        .001
      00070  0020 00 0 00101         TRA     ZTA                                                              .001
      00071  0020 00 0 00073         TRA     *+2                                                              .001
      00072  0020 00 0 00101         TRA     ZTA                                                              .001
      00073  2 00001 1 00066         TIX     *-5,1,1                                                          .001
                              *
                              *      RETURN TO CALLER IF NEXT FILE IS MFD FILE
                              *
                       00074  ABANTF EQU     *
      00074  0774 00 4 00000  X4     AXT     **,4
      00075  0774 00 3 00000  X3     AXT     **,3
      00076  0774 00 2 00000  X2     AXT     **,2
      00077  0774 00 1 00000  X1     AXT     **,1
      00100  0020 00 4 00001         TRA     1,4
                              *
                              *  -  -  -  -  -  -  -  -  -  -  -  -  -  -  -  -  -  -  -  -
                              *      PROCESS REGULAR FILE (NOT MFD OR UFD)
                              *  -  -  -  -  -  -  -  -  -  -  -  -  -  -  -  -  -  -  -  -
                              *
      00101  0074 00 4 00002  ZTA    TSX     GETLSG,4
      00102                          CMPWDS  2,LUSER,PREAM,NOSAME
      00102  0774 00 1 00002         AXT     2,1                                                              .001
      00103 -0500 00 1 00367         CAL     LUSER+2,1                                                        .001
      00104 -0340 00 1 74425         LAS     PREAM+2,1                                                        .001
      00105  0020 00 0 00112         TRA     NOSAME                                                           .001
      00106  0020 00 0 00110         TRA     *+2                                                              .001
      00107  0020 00 0 00112         TRA     NOSAME                                                           .001
      00110  2 00001 1 00103         TIX     *-5,1,1                                                          .001
      00111  0020 00 0 00122         TRA     SAME
      00112                   NOSAME MOVE    2,PREAM,LUSER
      00112  0774 00 1 00002         AXT     2,1                                                              .001
      00113 -0500 00 1 74425         CAL     PREAM+2,1                                                        .001
      00114  0602 00 1 00367         SLW     LUSER+2,1                                                        .001
      00115  2 00001 1 00113         TIX     *-2,1,1                                                          .001
      00116  0074 00 4 00004         TSX     ATTACH,4
 TD   00117  3 00000 0 74423         TXH     PREAM
 TD   00120  3 00000 0 74424         TXH     PREAM+1
 TD   00121  3 00000 0 00027         TXH     XTA
                              *
      00122  0074 00 4 00007  SAME   TSX     FSTATE,4
 TD   00123  3 00000 0 74430         TXH     PREAM+5
 TD   00124  3 00000 0 74431         TXH     PREAM+6
      00125  3 00007 0 00401         TXH     STAT,,7
 TD   00126  3 00000 0 00027         TXH     XTA
                              *
      00127  0500 00 0 00404         CLA     STAT+3
      00130  0402 00 0 10060         SUB     =3
      00131  0100 00 0 00027         TZE     XTA
1            LOAD MAIN BODY OF DUMP TAPE FILE BETWEEN MFDS...M.J.BAILEY,2/1/65   06/01/70 1349.9 PAGE 5

      00132  0500 00 0 00402         CLA     STAT+1
      00133 -0120 00 0 00027         TMI     XTA
      00134 -0320 00 0 10062         ANA     =O200
      00135  0100 00 0 00027         TZE     XTA
      00136  0500 00 0 74425         CLA     PREAM+2
      00137  0402 00 0 00407         SUB     STAT+6
      00140 -0120 00 0 00027         TMI     XTA
      00141  0500 00 0 00401         CLA     STAT
      00142 -0100 00 0 00300         TNZ     ZTQB
      00143 -0520 00 0 74435         NZT     PREAM+10
      00144  0020 00 0 00322         TRA     CLANUP
                              *
      00145 -0754 00 0 00000         ZAC
      00146  0560 00 0 74434         LDQ     PREAM+9
      00147 -0763 00 0 00010         LGL     8
      00150  0602 00 0 00377         SLW     TEMP+1
                              *
      00151  0074 00 4 00010  OPAGIN TSX     OPEN,4
 TD   00152  3 00000 0 01277         TXH     W
 TD   00153  3 00000 0 74430         TXH     PREAM+5
 TD   00154  3 00000 0 74431         TXH     PREAM+6
 TD   00155  3 00000 0 10063         TXH     =-0
 TD   00156  3 00000 0 10063         TXH     =-0
 TD   00157  3 00000 0 00242         TXH     ZTQB1
 TD   00160  3 00000 0 00410         TXH     ZTCODE
                              *
                              *
      00161  0074 00 4 00005         TSX     BUFFER,4
 TD   00162  3 00000 0 74430         TXH     PREAM+5       ASSIGN INTERNAL BUFFERS FOR WRITE
 TD   00163  3 00000 0 74431         TXH     PREAM+6
      00164  2 00413 0 00414         TIX     DBUF,,LDBUF
 TD   00165  3 00000 0 00260         TXH     ZTQ           (ERROR)
                              *
      00166  0774 00 3 00000         AXT     0,3
      00167  0500 00 0 01274         CLA     LTPB
      00170  0601 00 0 00376         STO     TEMP
      00171  0774 00 2 00000         AXT     0,2
                              *
                              *      READ-WRITE LOOP (DOUBLE BUFFERS)
                              *
      00172  1 00001 2 00173  ZTM    TXI     *+1,2,1       SWITCH BUFFERS
      00173 -3 00001 2 00175         TXL     *+2,2,1
      00174  0774 00 2 00000         AXT     0,2
      00175  0500 00 2 01276         CLA     TBADR+1,2
      00176  0621 00 0 00201         STA     ZTN
      00177  0621 00 0 00216         STA     ZTO
                              *
      00200  0074 00 4 00001         TSX     RDF,4         READ BUFFER FULL FROM DUMP TAPE
      00201  2 01274 0 00000  ZTN    TIX     **,,LTPB
 TD   00202  3 00000 0 00262         TXH     ZTQA          READ ERROR
 TD   00203  3 00000 0 00236         TXH     ZTP           EOF
 TD   00204  3 00000 0 01300         TXH     EOFCT         EOF WORD COUNT
 TD   00205  3 00000 0 00221         TXH     ABANCL        ABANDON TAPE FILE
                              *
      00206  0074 00 4 00006  ZTNA   TSX     FWAIT,4       WAIT FOR PREVIOUS WRITE TO END
 TD   00207  3 00000 0 74430         TXH     PREAM+5
1            LOAD MAIN BODY OF DUMP TAPE FILE BETWEEN MFDS...M.J.BAILEY,2/1/65   06/01/70 1349.9 PAGE 6

 TD   00210  3 00000 0 74431         TXH     PREAM+6
 TD   00211  3 00000 0 00260         TXH     ZTQ           ERROR ON PREVIOUS WRITE
                              *
      00212  0074 00 4 00012         TSX     WRFILE,4      START WRITING BUFFER FULL ON DISK/DRUM
 TD   00213  3 00000 0 74430         TXH     PREAM+5
 TD   00214  3 00000 0 74431         TXH     PREAM+6
 TD   00215  3 00000 0 10056         TXH     =0
      00216  2 00376 0 00000  ZTO    TIX     **,,TEMP
                              *
      00217 -3 00000 3 00172         TXL     ZTM,3,0       RETURN TO READ MORE IF NO EOF YET
      00220  0020 00 0 00314         TRA     ZTS           FINISHED, GO CLOSE LOAD FILE
      00221  0074 00 4 00003  ABANCL TSX     TRFILE,4
 TD   00222  3 00000 0 74430         TXH     PREAM+5
 TD   00223  3 00000 0 74431         TXH     PREAM+6
 TD   00224  3 00000 0 10056         TXH     =0
      00225  0074 00 4 00011         TSX     CLOSE,4
 TD   00226  3 00000 0 74430         TXH     PREAM+5
 TD   00227  3 00000 0 74431         TXH     PREAM+6
      00230  0074 00 4 00013         TSX     SETFIL,4      RESET DATE/TIME CREATED SO
 TD   00231  3 00000 0 74430         TXH     PREAM+5       FILE CAN BE LOADED AGAIN LATER.
 TD   00232  3 00000 0 74431         TXH     PREAM+6
 TD   00233  3 00000 0 74432         TXH     PREAM+7
 TD   00234  3 00000 0 74433         TXH     PREAM+8
      00235  0020 00 0 00074         TRA     ABANTF
                              *
                              *
      00236  0534 00 3 01300  ZTP    LXA     EOFCT,3       EOF
      00237  0634 00 3 00376         SXA     TEMP,3
      00240  3 00000 3 00206         TXH     ZTNA,3,0      GO WRITE LAST PART BUFFER FULL, IF ANY
      00241  0020 00 0 00314         TRA     ZTS           NO MORE, GO CLOSE LOAD FILE
                              *
                              *      OPEN ERROR TRY CHANGING MODE
                              *
      00242  0074 00 4 00002  ZTQB1  TSX     GETLSG,4
      00243  0500 00 0 00410         CLA     ZTCODE
      00244  0402 00 0 10061         SUB     =15
      00245 -0100 00 0 00300         TNZ     ZTQB
      00246  0074 00 4 00015         TSX     CHFILE,4
      00247  3 00000 0 74430         PTH     PREAM+5
      00250  3 00000 0 74431         PTH     PREAM+6
      00251  3 00000 0 10057         PTH     =1
      00252  3 00000 0 10063         PTH     =-0
      00253  3 00000 0 10063         PTH     =-0
      00254  3 00000 0 00300         PTH     ZTQB
      00255 -0500 00 0 10057         CAL     =1
      00256 -0602 00 0 00377         ORS     TEMP+1
      00257  0020 00 0 00151         TRA     OPAGIN
                              *
                              *      PROCESS ERRORS LOADING DUMPED FILE
                              *
      00260  0074 00 4 00016  ZTQ    TSX     $PRNTER,4     UNEXPECTED I/O SYSTEM RETURN
      00261  0020 00 0 00264         TRA     ZTRA
      00262  0500 00 0 74416  ZTQA   CLA     TEOF
      00263 -0100 00 0 00221         TNZ     ABANCL        SKIP IF EOF ON TAPE
      00264  0074 00 4 00003  ZTRA   TSX     TRFILE,4      RESET FILE LENGTH.
      00265  3 00000 0 74430         PTH     PREAM+5
1            LOAD MAIN BODY OF DUMP TAPE FILE BETWEEN MFDS...M.J.BAILEY,2/1/65   06/01/70 1349.9 PAGE 7

      00266  3 00000 0 74431         PTH     PREAM+6
      00267  3 00000 0 10056         PTH     =0
      00270  0074 00 4 00011         TSX     CLOSE,4       CLOSE FILE.
 TD   00271  3 00000 0 74430         TXH     PREAM+5
 TD   00272  3 00000 0 74431         TXH     PREAM+6
      00273  0074 00 4 00013         TSX     SETFIL,4      NOW RESET DATE/TIME CREATED,
 TD   00274  3 00000 0 74430         TXH     PREAM+5       SO THAT WE CAN TRY TO LOAD
 TD   00275  3 00000 0 74431         TXH     PREAM+6       IT AGAIN LATER.   **********
 TD   00276  3 00000 0 74432         TXH     PREAM+7
 TD   00277  3 00000 0 74433         TXH     PREAM+8
      00300                   ZTQB   MOVE    2,PREAM,ERMES+3
      00300  0774 00 1 00002         AXT     2,1                                                              .001
      00301 -0500 00 1 74425         CAL     PREAM+2,1                                                        .001
      00302  0602 00 1 00362         SLW     ERMES+3+2,1                                                      .001
      00303  2 00001 1 00301         TIX     *-2,1,1                                                          .001
      00304                          MOVE    2,PREAM+5,ERMES+5
      00304  0774 00 1 00002         AXT     2,1                                                              .001
      00305 -0500 00 1 74432         CAL     PREAM+5+2,1                                                      .001
      00306  0602 00 1 00364         SLW     ERMES+5+2,1                                                      .001
      00307  2 00001 1 00305         TIX     *-2,1,1                                                          .001
      00310  0074 00 4 00014         TSX     WRFLX,4
      00311  0 00010 0 00355                 ERMES,,8
      00312  0074 00 4 00016         TSX     $PRNTER,4
      00313  0020 00 0 00027         TRA     XTA           GO FOR NEXT DUMPED FILE
                              *
                              *  -  -  -  -  -  -  -  -  -  -  -  -  -  -  -  -  -  -  -  -
                              *      SET UFD ENTRY FOR FILE JUST READ, FREE IT FOR USE
                              *      IF IT WAS ONE DEFINITELY TO BE LOADED
                              *  -  -  -  -  -  -  -  -  -  -  -  -  -  -  -  -  -  -  -  -
                              *
      00314  0074 00 4 00006  ZTS    TSX     FWAIT,4       WAIT FOR WRITE TO END
 TD   00315  3 00000 0 74430         TXH     PREAM+5
 TD   00316  3 00000 0 74431         TXH     PREAM+6
      00317  0074 00 4 00011         TSX     CLOSE,4
 TD   00320  3 00000 0 74430         TXH     PREAM+5
 TD   00321  3 00000 0 74431         TXH     PREAM+6
      00322  0074 00 4 00015  CLANUP TSX     CHFILE,4      DE-PROTECT, THEN . . . . .
 TD   00323  3 00000 0 74430         TXH     PREAM+5
 TD   00324  3 00000 0 74431         TXH     PREAM+6
 TD   00325  3 00000 0 00377         TXH     TEMP+1
 TD   00326  3 00000 0 10063         TXH     =-0
 TD   00327  3 00000 0 10063         TXH     =-0
 TD   00330  3 00000 0 00332         TXH     ZTSA          UNUSUAL CONDITION TRANSFER
      00331  0020 00 0 00333         TRA     ZTSB          SKIP IF O.K.
      00332  0074 00 4 00016  ZTSA   TSX     $PRNTER,4     ERROR, PRINT MESSAGE
                              *
      00333  0074 00 4 00013  ZTSB   TSX     SETFIL,4      SET ITS DATES, TIME, AUTHOR, AS
 TD   00334  3 00000 0 74430         TXH     PREAM+5       IN PREAMBLE OF DUMPED VERSION JUST READ
 TD   00335  3 00000 0 74431         TXH     PREAM+6
 TD   00336  3 00000 0 74432         TXH     PREAM+7
 TD   00337  3 00000 0 74433         TXH     PREAM+8
      00340  0760 00 0 00165         SWT     5
      00341  0020 00 0 00027         TRA     XTA
      00342                          MOVE    2,PREAM,MEST+1
      00342  0774 00 1 00002         AXT     2,1                                                              .001
      00343 -0500 00 1 74425         CAL     PREAM+2,1                                                        .001
1            LOAD MAIN BODY OF DUMP TAPE FILE BETWEEN MFDS...M.J.BAILEY,2/1/65   06/01/70 1349.9 PAGE 8

      00344  0602 00 1 01304         SLW     MEST+1+2,1                                                       .001
      00345  2 00001 1 00343         TIX     *-2,1,1                                                          .001
      00346                          MOVE    2,PREAM+5,MEST+3
      00346  0774 00 1 00002         AXT     2,1                                                              .001
      00347 -0500 00 1 74432         CAL     PREAM+5+2,1                                                      .001
      00350  0602 00 1 01306         SLW     MEST+3+2,1                                                       .001
      00351  2 00001 1 00347         TIX     *-2,1,1                                                          .001
      00352  0074 00 4 00014         TSX     WRFLX,4
      00353  0 00005 0 01301                 MEST,,5
      00354  0020 00 0 00027         TRA     XTA           GO LOOK AT NEXT DUMPED FILE
                              *
                              *  -  -  -  -  -  -  -  -  -  -  -  -  -  -  -  -  -  -
                              *
                              *  -  -  -  -  -  -  -  -  -  -  -  -
                              *      CONSTANTS, VARIABLES, ETC.
                              *  -  -  -  -  -  -  -  -  -  -  -  -
                              *
      00355  602631432560     ERMES  BCI     8, FILE NOT LOADED
      00365                   LUSER  BSS     2
      00367                   SEE    BSS     4
      00373  646225516026     UFDNAM BCI     3,USER FILE DIRECTRY
      00376                   TEMP   BSS     3
      00401                   STAT   BSS     7
      00410                   ZTCODE BSS     1
      00411  443326332433     MFDNAM BCI     2,M.F.D.(FILE)
      00413  0 00000 0 00660  LDBUF  PZE     432
      00414                   DBUF   BSS     432
      01274  0 00000 0 03264  LTPB   PZE     4*432-12
      01275  0 00000 0 01306  TBADR  PZE     TPB
      01276  0 00000 0 04572         PZE     TPB2
      01277  666060606060     W      BCI     1,W
      01300  0 00000 0 00000  EOFCT  PZE
      01301  434621242524     MEST   BCI     5,LOADED
      01306                   TPB    BSS     4*432-12
      04572                   TPB2   BSS     4*432-12
                              *
                                     INSERT  BCMEQB
                              *
                              *  -  -  -  -  -  -  -  -  -  -  -  -  -  -  -  -  -  -
                              *      COMMON AND EQUIVALENCE FOR SECONDARY STORAGE LOAD
                              *         (TIME-SHARING VERSION)
                              *  -  -  -  -  -  -  -  -  -  -  -  -  -  -  -  -  -  -
                              *
                      074446  DEMKEY BOOL    74446         CORE A LOCATION FOR DAEMON KEY SETTING
                              *
                      000017  BASE   BOOL    17            KEY CODE BASE
                      000001  CTINUE BOOL    1             KEY CODE TO CONTINUE WITH PROGRAM,NO CHANGE
                      000002  PAUSE  BOOL    2             KEY CODE TO WAIT 60 SECS.
                      000003  CHLDFL BOOL    3             KEY CODE TO USE DIFFERENT LOAD FILE
                      000004  STOPLD BOOL    4             KEY CODE TO STOP LOADING, START DUMPING
                      000005  ABANKY BOOL    5             KEY CODE TO ABANDON LOAD TAPE FILE
                      000006  SWCHAN BOOL    6             KEY CODE TO GO FROM 1 OR 2 TO 2 OR 1 CHANS.
                      000007  LSREEL BOOL    7             KEY CODE TO INDICATE LAST REEL OF LOAD FILE
                      000010  CHREEL BOOL    10            KEY CODE TO CORRECT REEL ORDER ERROR
                       77777  NEWCOM EQU     -1            TOP OF MEMORY
                      077461  OLDCOM BOOL    77461         OLD TOP OF COMMON
1            LOAD MAIN BODY OF DUMP TAPE FILE BETWEEN MFDS...M.J.BAILEY,2/1/65   06/01/70 1349.9 PAGE 9

                       77462  COMRLC EQU     OLDCOM-NEWCOM RELOCATION FACTOR
                       77777         COMMON  COMRLC        RELOCATE COMMON
                       01554  UF     EQU     32767/2-DEMKEY/2 LENGTH OF USER LIST
                       77777  UFL    COMMON  2*UF          USER FILE LIST  (1ST PARTS OF FILE NAMES)
                       74446         COMMON  1             INSERT DUMMY IF NECESSARY
                       74445         COMMON  1             DEMKEY CELL IN NON-CTSS VERSION
                       74445  KEYVAL COMMON  1
                       74444  ABANTP COMMON  1             ABANDON TAPE FILE INDICATOR
                       74443  NOCHAN COMMON  1             NO. OF CHANNELS BEING READ (1 OR 2)
                       74442  DU     COMMON  1             PROBLEM NO. OF DUMP/LOAD PACKAGE
                       74441  DP     COMMON  1             PROGRAMMER NO. OF DITTO.
                       74440  LFNA   COMMON  1             LOAD TAPE FILE NAME (PART 1)
                       74437  LFNB   COMMON  1              ,,   ,,   ,,   ,,  (PART 2)
                       74423         COMMON  11            DUMPED FILE'S PREAMBLE FROM DUMP TAPE
                       74423  PREAM  COMMON  1             DUMPED FILE'S DUMP TAPE PREAMBLE 1ST WORD
                       74422  BFNA   COMMON  1             CHANNEL B LOAD TAPE FILE NAME (PART 1)
                       74421  BFNB   COMMON  1             CHANNEL B LOAD TAPE FILE NAME (PART 2)
                       74420  AUN    COMMON  1             CHANNEL A UNIT NO.
                       74417  BUN    COMMON  1             CHANNEL B UNIT NO.
                       74416  TEOF   COMMON  1             TAPE EOF INDICATOR/WORD COUNT
                       74412         COMMON  3             LABEL OF TAPE FILE CURRENTLY BEING LOADED
                       74412  LABEL  COMMON  1             LABEL OF TAPE FILE DITTO.   1ST WORD
                       74411  X      COMMON  1             TAPE FILE POINTER
                                     END

1            LOAD MAIN BODY OF DUMP TAPE FILE BETWEEN MFDS...M.J.BAILEY,2/1/65   06/01/70 1349.9 PAGE 1
                        POST PROCESSOR ASSEMBLY DATA

       74410 IS THE LAST LOCATION NOT USED BY THIS PROGRAM
      10064 IS THE FIRST LOCATION NOT USED BY THIS PROGRAM

0REFERENCES TO DEFINED SYMBOLS
       1277      W   152
      74411      X 10056
      74441     DP 10056
      74442     DU 10056
       1554     UF 10056
         77     X1    21
         76     X2    22
         75     X3    23
         74     X4    24
      74420    AUN 10056
      74417    BUN 10056
          1    RDF   200
        367    SEE    45,   51,   54
       1306    TPB  1275
      77777    UFL 10056
         27    XTA    64,  121,  126,  131,  133,  135,  140,  313,  341,  354
         36    XTC    33
         41    XTD    35
         65    XTE    60,   62
        101    ZTA    70,   72
        172    ZTM   217
        201    ZTN   176
        216    ZTO   177
        236    ZTP   203
        260    ZTQ   165,  211
        314    ZTS   220,  241
         17   BASE 10056
      74422   BFNA 10056
      74421   BFNB 10056
        414   DBUF   164
      74440   LFNA 10056
      74437   LFNB 10056
       1274   LTPB   167,  201
       1301   MEST   344,  350,  353
         10   OPEN   151
        122   SAME   111
        401   STAT   125,  127,  132,  137,  141
        376   TEMP   150,  170,  216,  237,  256,  325
      74416   TEOF    36,  262,10056
       4572   TPB2  1276
         55   XTDD    42
        206   ZTNA   240
        262   ZTQA   202
        300   ZTQB    40,  142,  245,  254
        264   ZTRA   261
        332   ZTSA   330
        333   ZTSB   331
         11  CLOSE   225,  270,  317
       1300  EOFCT   204,  236
        355  ERMES   302,  306,  311
1            LOAD MAIN BODY OF DUMP TAPE FILE BETWEEN MFDS...M.J.BAILEY,2/1/65   06/01/70 1349.9 PAGE 2
                        POST PROCESSOR ASSEMBLY DATA

          6  FWAIT   206,  314
      74412  LABEL 10056
        413  LDBUF   164
        365  LUSER    25,   26,  103,  114
          2  PAUSE 10056
      74423  PREAM    30,   44,   50,   57,   67,  104,  113,  117,  120,  123,  124,  136,  143,  146,  153,  154,  162
                     163,  207,  210,  213,  214,  222,  223,  226,  227,  231,  232,  233,  234,  247,  250,  265,  266
                     271,  272,  274,  275,  276,  277,  301,  305,  315,  316,  320,  321,  323,  324,  334,  335,  336
                     337,  343,  347,10056
       1275  TBADR   175
         14  WRFLX    53,  310,  352
        242  ZTQB1   157
        221 ABANCL   205,  263
          5 ABANKY 10056
         74 ABANTF    34,   37,   74,  235
      74444 ABANTP 10056
          4 ATTACH   116
          5 BUFFER   161
         15 CHFILE   246,  322
          3 CHLDFL 10056
         10 CHREEL 10056
        322 CLANUP   144
      77462 COMRLC 10056
          1 CTINUE 10056
      74446 DEMKEY 10056
          7 FSTATE   122
          2 GETLSG   101,  242
      74445 KEYVAL 10056
          7 LSREEL 10056
         21 LTFILE     0
        411 MFDNAM    66
      77777 NEWCOM 10056
      74443 NOCHAN 10056
        112 NOSAME   105,  107
      77461 OLDCOM 10056
        151 OPAGIN   257
          0 OPENDF    32
         16 PRNTER   260,  312,  332
         13 SETFIL   230,  273,  333
          4 STOPLD 10056
          6 SWCHAN 10056
          3 TRFILE   221,  264
        373 UFDNAM    56
         12 WRFILE   212
        410 ZTCODE   160,  243

0 NO ERROR IN ABOVE ASSEMBLY.
1       'OPEN' DUMPED FILE/READ N WORDS FROM DUMPED FILE...M.J.BAILEY,1/31/65    06/01/70 1350.3 PAGE 1

                              *           (TIME-SHARING VERSION)
                              *
                       00013         ENTRY   OPENDF
                       00166         ENTRY   RDF
                              *
                                     EXTERN  NLREC,GETLSG
                                     EXTERN  RDWAIT
                                     EXTERN  IODIAG,RDFILE,FWAIT
                                     EXTERN  WRFLX
                              *
                                     INSERT  BMCRSC
                              *
                              *  ZERO-IZE A THROUGH A+X-1
                              *
                               CLEAR MACRO   A,X
                                     AXT     X,1
                                     STZ     A+X,1
                                     TIX     *-1,1,1
                               CLEAR END
                              *
                              *      MOVE X WORDS FROM A ET SEQ TO B ET SEQ
                              *
                               MOVE  MACRO   X,A,B
                                     AXT     X,1
                                     CAL     A+X,1
                                     SLW     B+X,1
                                     TIX     *-2,1,1
                               MOVE  END
                              *
                              *  PRINT ONE LINE COMMENT
                              *
                              PRLINE MACRO   COMNT,NWC,LOC
                                     TSX     WRFLX,4
                                             LOC,,NWC
                                     RMT
                               LOC   BCI     NWC,COMNT
                                     RMT
                              PRLINE END
                              *
                              *
                              *      EXECUTE INST. IN CORE A
                              *
                              *
                              EXEC   MACRO   OPC,ADD
                                     TSX     $GETA,7
                                     OPC     ADD
                              EXEC   END
                              *
                              *      GET KEY SETTING VIA SUPERVISOR, SET ABANTP, NOCHAN IF APPROPRIATE
                              *
                              GETSIG MACRO
                                     TSX     GETLSG,4
                              GETSIG END
                              *
                              *      TEST WHETHER 2ND TAPE COPY IS NEEDED, IF NOT GO TO SKIP
                              *
1       'OPEN' DUMPED FILE/READ N WORDS FROM DUMPED FILE...M.J.BAILEY,1/31/65    06/01/70 1350.3 PAGE 2

                              SKIFNB MACRO   SKIP
                                     CLA     NOCHAN
                                     SUB     =1
                                     TZE     SKIP
                              SKIFNB END
                              *
                              *      PRINT AN N-WORD MESSAGE FROM  MESSGE
                              *
                              PRM    MACRO   MESSGE,N
                                     TSX     WRFLX,4
                                             MESSGE,,N
                              PRM    END
                              *
                              *      COMPARE 2 SETS OF N CONSECUTIVE WORDS IN A ETC., AND B ETC. ,
                              *      AND IF THEY DO NOT ALL MATCH, GO TO NF, OR OTHERWISE CONTINUE.
                              *
                              CMPWDS MACRO   N,A,B,NF
                                     AXT     N,1
                                     CAL     A+N,1
                                     LAS     B+N,1
                                     TRA     NF
                                     TRA     *+2
                                     TRA     NF
                                     TIX     *-5,1,1
                              CMPWDS END
                              *
                              *      WAIT FOR I/O ON FILE (A,B) TO END, GO TO E IF ERROR OCCURRED
                              *
                              WAIT   MACRO   A,B,E
                                     TSX     FWAIT,4
                                     PTH     A
                                     PTH     B
                                     PTH     E
                              WAIT   END
                              *
                              *      CLOSE THE FILE (A,B)
                              *
                              CLOSE  MACRO   A,B
                                     TSX     CLOSE,4
                                     PTH     A
                                     PTH     B
                              CLOSE  END
                              *
                              *
                              * - - - - - - - - - - - - - - - - - - - - - - - - - - - - - - -
                              *      'OPEN' NEXT DUMPED FILE -- SKIP TO NEXT (READABLE) FILE,
                              *      READ ITS PREAMBLE, AND ITS FIRST LOGICAL RECORD.
                              * - - - - - - - - - - - - - - - - - - - - - - - - - - - - - - - -
                              *

      00000  454351252360     NLREC
      00001  272563436227     GETLSG
      00002  512466213163     RDWAIT
      00003  314624312127     IODIAG
      00004  512426314325     RDFILE
      00005  266621316360     FWAIT
1       'OPEN' DUMPED FILE/READ N WORDS FROM DUMPED FILE...M.J.BAILEY,1/31/65    06/01/70 1350.3 PAGE 3

      00006  665126436760     WRFLX
      00007  475145632551     PRNTER
      00010  636263254626     TSTEOF


      00013  0634 00 1 00156  OPENDF SXA     X1,1
      00014  0634 00 2 00155         SXA     X2,2
      00015  0634 00 3 00154         SXA     X3,3
      00016  0634 00 4 00153         SXA     X4,4
      00017  0600 00 0 00633         STZ     M
      00020  0600 00 0 74416         STZ     TEOF
      00021  0500 00 0 00627         CLA     LEOROP
      00022  0621 00 0 00526         STA     ABNADD
      00023  0074 00 4 00001         TSX     GETLSG,4      IS OPERATOR'S TAPE FILE ABANDON
      00024  0500 00 0 74444         CLA     ABANTP        KEY CODE SETTING ON
      00025  0100 00 0 00031         TZE     *+4           SKIP IF NOT
      00026  0074 00 4 00006         TSX     WRFLX,4
      00027  0 00010 0 00615                 MESL,,8
      00030  0020 00 0 00526         TRA     EORABN        IF SO OBEY IT
      00031  0500 00 0 74411         CLA     X
      00032  0402 00 0 00574         SUB     PHYSRC
      00033 -0120 00 0 00161         TMI     ERTN          ERROR IF PTR SET BEFORE 1ST FILE,SKIP
      00034  0100 00 0 00122         TZE     OQ            SKIP IF FILE IS 1ST ON LOAD TAPE
                              *
                              * - - - - - - - - - - - - - - - - - - - - - - - - - - -
                              *      FIND START OF NEXT LOGICAL RECORD
                              * - - - - - - - - - - - - - - - - - - - - - - - - - - -
                              *
      00035  0500 00 0 00401         CLA     SOME
      00036 -0120 00 0 00057         TMI     JUMP
                              *
      00037  0500 00 0 74411         CLA     X
      00040  0400 00 0 00401         ADD     SOME
      00041  0601 00 0 74411         STO     X
      00042  0601 00 0 00604         STO     Y
      00043  0020 00 0 00051         TRA     *+6
                       00044  FL     EQU     *
      00044  0074 00 4 00001  FLA    TSX     GETLSG,4
      00045  0500 00 0 74411         CLA     X
      00046  0400 00 0 00574         ADD     PHYSRC
      00047  0601 00 0 74411         STO     X             X POINTS AT NEXT PHYSICAL RECORD
      00050  0601 00 0 00604         STO     Y             SO DOES Y
                              *
      00051  0074 00 4 00414  FLAB   TSX     BREAD,4       READ 12 WORDS FROM POSTN Y
 TD   00052  3 00000 0 00556         TXH     OPREAM
 TD   00053  3 00000 0 04123         TXH     =12
      00054  0020 00 0 00044         TRA     FLA           UNREAD, MOVE TO NEXT PHYSICAL REC.
      00055  0020 00 0 00044         TRA     FLA           READ ERROR, MOVE TO NEXT PHYS. REC.
      00056  0020 00 0 00160         TRA     REOF          REAL EOF EXIT
                              *
      00057  0500 00 0 00570  JUMP   CLA     OPREAM+10
      00060  0100 00 0 00044         TZE     FL
      00061  0074 00 4 00000         TSX     NLREC,4
      00062  3 00000 0 04120         PTH     =0
      00063  3 00000 0 04120         PTH     =0
      00064  3 00000 0 00570         PTH     OPREAM+10
1       'OPEN' DUMPED FILE/READ N WORDS FROM DUMPED FILE...M.J.BAILEY,1/31/65    06/01/70 1350.3 PAGE 4

      00065  3 00000 0 00573         PTH     LTPBF
      00066  3 00000 0 04123         PTH     =12
      00067  3 00000 0 00574         PTH     PHYSRC
      00070  3 00000 0 00575         PTH     NFLR
      00071  3 00000 0 00576         PTH     NLAST
      00072  0600 00 0 00601         STZ     TEMP
      00073 -0500 00 0 00571         CAL     OPREAM+11
      00074  0621 00 0 00601         STA     TEMP
      00075  0771 00 0 00022         ARS     18
      00076  0621 00 0 00577         STA     IREC
      00077  0500 00 0 00575         CLA     NFLR
      00100  0520 00 0 00576         ZET     NLAST
      00101  0400 00 0 04121         ADD     =1
      00102  0601 00 0 00600         STO     NREC
      00103  0402 00 0 00601         SUB     TEMP
      00104 -0100 00 0 00044         TNZ     FL
                              *
      00105  0500 00 0 00577         CLA     IREC          O.K.
      00106  0402 00 0 00600         SUB     NREC
      00107  0100 00 0 00111         TZE     *+2
      00110  0120 00 0 00044         TPL     FL            SKIP IF IREC .GR. NREC, PREAMBLE INVALID
                              *
      00111  0500 00 0 00577         CLA     IREC          THIS IS A LOGICAL RECORD
      00112  0402 00 0 04121         SUB     =1
      00113 -0100 00 0 00044         TNZ     FL            SPACE DOWN TO NEXT FILE IF NOT 1ST LOG.REC.
                              *
      00114                          MOVE    12,OPREAM,PREAM  THIS IS 1ST LOG.REC. IN FILE,AND WE WISH
      00114  0774 00 1 00014         AXT     12,1                                                             .001
      00115 -0500 00 1 00572         CAL     OPREAM+12,1                                                      .001
      00116  0602 00 1 74437         SLW     PREAM+12,1                                                       .001
      00117  2 00001 1 00115         TIX     *-2,1,1                                                          .001
      00120  0500 00 0 00570         CLA     OPREAM+10
      00121  0020 00 0 00130         TRA     OQC
                              *
                              * - - - - - - - - - - - - - - - - - - - - - - - - -
                              *      READ PREAMBLE OF 1ST DUMPED FILE OF LOAD FILE
                              * - - - - - - - - - - - - - - - - - - - - - - - - -
                              *
      00122  0500 00 0 74411  OQ     CLA     X
      00123  0400 00 0 04121         ADD     =1
      00124  0601 00 0 74411         STO     X
      00125  0601 00 0 00604         STO     Y
      00126  0600 00 0 00401         STZ     SOME
      00127  0020 00 0 00051         TRA     FLAB
                              *
                              *
      00130  0601 00 0 00625  OQC    STO     DWC
      00131  0500 00 0 74411         CLA     X
      00132  0400 00 0 04123         ADD     =12
      00133  0601 00 0 00604         STO     Y             Y=X+12
      00134  0500 00 0 00577         CLA     IREC
      00135  0402 00 0 00600         SUB     NREC
      00136 -0120 00 0 00141         TMI     *+3
      00137  0500 00 0 00625         CLA     DWC           (TRAILING ZEROS NOT INCLUDED IF
      00140  0020 00 0 00142         TRA     *+2            NOT A FULL LOGICAL RECORD)
      00141  0500 00 0 00573         CLA     LTPBF
1       'OPEN' DUMPED FILE/READ N WORDS FROM DUMPED FILE...M.J.BAILEY,1/31/65    06/01/70 1350.3 PAGE 5

      00142  0601 00 0 00626         STO     RWC           DATA WORD COUNT FOR LOGICAL RECORD
      00143  0074 00 4 00001         TSX     GETLSG,4
      00144  0074 00 4 00365         TSX     GSOME,4
                              *
                              *      READ IN THE DATA WORDS OF THE 1ST LOGICAL RECORD OF FILE
                              *
                              *
      00145  0074 00 4 00443         TSX     AREAD,4       READ IN RWC WORDS FROMPOSTN Y (=X+12)
 TD   00146  3 00000 0 00634         TXH     WBF
 TD   00147  3 00000 0 00626         TXH     RWC
      00150  0020 00 0 00161         TRA     ERTN          UNREAD, ERROR, SKIP
      00151  0020 00 0 00161         TRA     ERTN          READ ERROR, SKIP
      00152  0020 00 0 00160         TRA     REOF          TAPE EOF - SKIP
                              * - - - - - - - - - - - - - - - - - - - - -
                              *      RESTORE AND RETURN FROM OPENDF
                              * - - - - - - - - - - - - - - - - - - - - -
                              *
      00153  0774 00 4 00000  X4     AXT     **,4
      00154  0774 00 3 00000  X3     AXT     **,3
      00155  0774 00 2 00000  X2     AXT     **,2
      00156  0774 00 1 00000  X1     AXT     **,1
      00157  0020 00 4 00003         TRA     3,4           RETURN TO CALLER
                              *
      00160 -0625 00 0 74416  REOF   STL     TEOF          TAPE EOF RETURN
      00161  0534 00 4 00153  ERTN   LXA     X4,4          ERROR RETURN
      00162  0534 00 3 00154  IX3    LXA     X3,3
      00163  0534 00 2 00155         LXA     X2,2
      00164  0534 00 1 00156         LXA     X1,1
      00165  0020 60 4 00001         TRA*    1,4
                              *
                              * - - - - - - - - - - - - - - - - - - - - - - - - - - -
                              *      READ FROM DUMPED FILE ON TAPE N WORDS INTO ANAME ETC.
                              * - - - - - - - - - - - - - - - - - - - - - - - - - - -
                              *
      00166  0634 00 1 00270  RDF    SXA     DX1,1
      00167  0634 00 2 00267         SXA     DX2,2
      00170  0634 00 3 00266         SXA     DX3,3
      00171  0634 00 4 00265         SXA     DX4,4
      00172  0074 00 4 00001         TSX     GETLSG,4
      00173  0600 00 0 74416         STZ     TEOF
      00174  0534 00 4 00265         LXA     DX4,4
      00175  0500 00 4 00001         CLA     1,4
      00176  0621 00 0 00245         STA     RFF           ANAME
      00177  0771 00 0 00022         ARS     18            ADDRESS OF N
      00200  0621 00 0 00212         STA     RFA
      00201  0621 00 0 00215         STA     RFB
      00202  0500 00 0 00630         CLA     LEORRD
      00203  0621 00 0 00526         STA     ABNADD
      00204  0500 00 0 74444         CLA     ABANTP        TEST FOR OPRTR REQUESTED TAPE FILE ABANDON
      00205  0100 00 0 00211         TZE     *+4           SKIP IF NOT
      00206  0074 00 4 00006         TSX     WRFLX,4
      00207  0 00010 0 00615                 MESL,,8
      00210  0020 00 0 00526         TRA     EORABN        IF SO, SKIP
                              *
                              *      ENSURE THAT ONLY AS MANY WORDS AS ARE
                              *      LEFT IN THE DUMPED FILE GET READ.
1       'OPEN' DUMPED FILE/READ N WORDS FROM DUMPED FILE...M.J.BAILEY,1/31/65    06/01/70 1350.3 PAGE 6

                              *
      00211  0502 00 0 00625         CLS     DWC           NO. WDS. LEFT IN FILE
      00212  0400 00 0 00000  RFA    ADD     **            (N)
      00213  0100 00 0 00220         TZE     RFC
      00214  0120 00 0 00220         TPL     RFC           SKIP IF N LARGER THAN NO. WORDS IN FILE
      00215  0500 00 0 00000  RFB    CLA     **            (N)
      00216  0600 60 4 00004         STZ*    4,4           NO END TO FILE THIS TIME
      00217  0020 00 0 00222         TRA     RFD           SKIP
      00220  0500 00 0 00625  RFC    CLA     DWC           NO. OF WORDS LEFT IN FILE, IS
      00221  0601 60 4 00004         STO*    4,4           END (DUMPED) FILE WORD COUNT, AND
      00222  0734 00 3 00000  RFD    PAX     0,3           NO. OF WORDS TO BE RETURNED BY RDF
      00223  0601 00 0 00572         STO     NW1
      00224 -0520 00 0 00626         NZT     RWC
      00225  0020 00 0 00274         TRA     RFH           SKIP IF NOTHING LEFT IN BUFFER
                              *
                              *      MOVE UP TO A LOGICAL RECORD FULL OF WORDS TO CALLER'S AREA
                              *
      00226  0502 00 0 00626  RFDA   CLS     RWC           NO. OF WORDS LAST READ FROM LOGICAL REC.
      00227  0400 00 0 00572         ADD     NW1
      00230  0120 00 0 00233         TPL     *+3           SKIP IF NO. WORDS TO BE READ IS BIGGER
      00231  0500 00 0 00572         CLA     NW1           TOTAL NO. WORDS LEFT TO BE READ SMALLER
      00232  0020 00 0 00234         TRA     *+2           SKIP TO MOVE THAT NO. ONLY
      00233  0500 00 0 00626         CLA     RWC           ELSE USE NO. OF WORDS IN LOG. REC.
      00234  0601 00 0 00632         STO     T             SET NO. WORDS TO BE MOVED , = T
      00235  0734 00 1 00000         PAX     0,1
      00236  0400 00 0 00245         ADD     RFF           ANAME+........
      00237  0621 00 0 00245         STA     RFF           ANAME+........+T
      00240  0500 00 0 00632         CLA     T             T
      00241  0400 00 0 00631         ADD     LWBF          WBF
      00242  0400 00 0 00633         ADD     M             M
      00243  0621 00 0 00244         STA     RFE           WBF+M+T
                              *
      00244  0500 00 1 00000  RFE    CLA     **,1          (WBF+M+T)
      00245  0601 00 1 00000  RFF    STO     **,1          (ANAME + SUM OF ALL T'S)
      00246  2 00001 1 00244         TIX     RFE,1,1
                              *
                              *      DECREASE NO. WORDS LEFT IN FILE AND IN LOG. REC. BUFFER AND NO.
                              *      STILL NEEDED TO BE READ
                              *
      00247  0500 00 0 00625         CLA     DWC
      00250  0402 00 0 00632         SUB     T
      00251  0601 00 0 00625         STO     DWC
      00252  0500 00 0 00633         CLA     M
      00253  0400 00 0 00632         ADD     T
      00254  0601 00 0 00633         STO     M
      00255  0500 00 0 00626         CLA     RWC
      00256  0402 00 0 00632         SUB     T
      00257  0601 00 0 00626         STO     RWC
      00260  0500 00 0 00572         CLA     NW1
      00261  0402 00 0 00632         SUB     T
      00262  0601 00 0 00572         STO     NW1
      00263 -0100 00 0 00274         TNZ     RFH           SKIP IF MORE WORDS NEEDED
                              *
                              * - - - - - - - - - - - - - -
                              *      NORMAL RETURN FROM RDF
                              * - - - - - - - - - - - - - -
1       'OPEN' DUMPED FILE/READ N WORDS FROM DUMPED FILE...M.J.BAILEY,1/31/65    06/01/70 1350.3 PAGE 7

                              *
      00264  0074 00 4 00001         TSX     GETLSG,4
      00265  0774 00 4 00000  DX4    AXT     **,4
      00266  0774 00 3 00000  DX3    AXT     **,3
      00267  0774 00 2 00000  DX2    AXT     **,2
      00270  0774 00 1 00000  DX1    AXT     **,1
      00271  0520 60 4 00004         ZET*    4,4           TEST E.O.F. WORD COUNT
      00272  0020 60 4 00003         TRA*    3,4           EOF (IN DUMPED FILE) RETURN, IF NON-ZERO
      00273  0020 00 4 00006         TRA     6,4           NORMAL RETURN IF ZERO
                              *
                              *      READ IN ANOTHER LOGICAL RECORD FULL
                              *
      00274  0074 00 4 00001  RFH    TSX     GETLSG,4
      00275  0500 00 0 00577         CLA     IREC
      00276  0400 00 0 04121         ADD     =1
      00277  0601 00 0 00577         STO     IREC          INDEX OF NEXT LOGICAL RECORD
      00300  0402 00 0 00600         SUB     NREC          LAST LOG. RE. NO.
      00301 -0120 00 0 00304         TMI     *+3           SKIP IF NOT LAST LOG. REC.
      00302  0500 00 0 00625         CLA     DWC           LAST ONE, GET NO. WORDS LEFT IN FILE
      00303  0020 00 0 00305         TRA     *+2           SKIP
      00304  0500 00 0 00573         CLA     LTPBF         NOT LAST, GET SIZE OF A LOG. REC.
      00305  0601 00 0 00626         STO     RWC           FOR NO. OF DATA WORDS TO BE READ
      00306  0600 00 0 00633         STZ     M
      00307  0074 00 4 00365         TSX     GSOME,4
                              *
      00310  0500 00 0 74411  RFHA   CLA     X
      00311  0400 00 0 00603         ADD     LLR
      00312  0601 00 0 00604         STO     Y             MOVE Y TO START OF NEXT LOG. REC.
      00313  0601 00 0 74411         STO     X
                              *
      00314                          MOVE    12,OPREAM,PRPR
      00314  0774 00 1 00014         AXT     12,1                                                             .001
      00315 -0500 00 1 00572         CAL     OPREAM+12,1                                                      .001
      00316  0602 00 1 00556         SLW     PRPR+12,1                                                        .001
      00317  2 00001 1 00315         TIX     *-2,1,1                                                          .001
      00320  0074 00 4 00414         TSX     BREAD,4       READ PREAMBLE OF NEXT LOG. REC.
 TD   00321  3 00000 0 00556         TXH     OPREAM        AFTER MOVING 2ND COPY DOWN
 TD   00322  3 00000 0 04123         TXH     =12           TO X, AND SETTING X=Y.
      00323  0020 00 0 00357         TRA     DIX4          NOTHING READ
      00324  0020 00 0 00357         TRA     DIX4          READ ERROR
      00325  0020 00 0 00356         TRA     DIX47         TAPE EOF
                              *
      00326                          CMPWDS  11,OPREAM,PRPR,BADFIL
      00326  0774 00 1 00013         AXT     11,1                                                             .001
      00327 -0500 00 1 00571         CAL     OPREAM+11,1                                                      .001
      00330 -0340 00 1 00555         LAS     PRPR+11,1                                                        .001
      00331  0020 00 0 00352         TRA     BADFIL                                                           .001
      00332  0020 00 0 00334         TRA     *+2                                                              .001
      00333  0020 00 0 00352         TRA     BADFIL                                                           .001
      00334  2 00001 1 00327         TIX     *-5,1,1                                                          .001
                              *
      00335  0500 00 0 00571         CLA     OPREAM+11
      00336  0402 00 0 00555         SUB     PRPR+11
      00337  0100 00 0 00310         TZE     RFHA          IGNORE LOG.REC. IF SAME NO. AS LAST
                              *
      00340  0500 00 0 74411  RFI    CLA     X
1       'OPEN' DUMPED FILE/READ N WORDS FROM DUMPED FILE...M.J.BAILEY,1/31/65    06/01/70 1350.3 PAGE 8

      00341  0400 00 0 04123         ADD     =12
      00342  0601 00 0 00604         STO     Y             Y=X+12
                              *
      00343  0074 00 4 00443         TSX     AREAD,4       READ IN RWC DATA WORDS FROM
 TD   00344  3 00000 0 00634         TXH     WBF           POSTN. Y = X+12 OF TAPE FILE
 TD   00345  3 00000 0 00626         TXH     RWC
      00346  0020 00 0 00357         TRA     DIX4
      00347  0020 00 0 00357         TRA     DIX4
      00350  0020 00 0 00356         TRA     DIX47
                              *
      00351  0020 00 0 00226         TRA     RFDA          RETURN TO MOVE WORDS FROM BUFFER
                              *
      00352  0500 00 0 00401  BADFIL CLA     SOME
      00353 -0760 00 0 00003         SSM
      00354  0601 00 0 00401         STO     SOME
      00355  0020 00 0 00357         TRA     DIX4
                              *
                              *      ERROR RETURN FROM RDF
                              *
      00356 -0625 00 0 74416  DIX47  STL     TEOF
      00357  0074 00 4 00001  DIX4   TSX     GETLSG,4
      00360  0534 00 4 00265         LXA     DX4,4
      00361  0534 00 3 00266  DIX3   LXA     DX3,3
      00362  0534 00 2 00267         LXA     DX2,2
      00363  0534 00 1 00270         LXA     DX1,1
      00364  0020 60 4 00002         TRA*    2,4
                              *
      00365  0774 00 1 00001  GSOME  AXT     1,1
      00366  0500 00 0 00626         CLA     RWC
      00367  0400 00 0 04123         ADD     =12
      00370  0402 00 0 04124         SUB     =432
      00371 -0120 00 0 00374         TMI     *+3
      00372  0100 00 0 00374         TZE     *+2
      00373  1 00001 1 00370         TXI     *-3,1,1
      00374  0754 00 1 00000         PXA     ,1
      00375  0131 00 0 00000         XCA
      00376  0200 00 0 04124         MPY     =432
      00377 -0600 00 0 00401         STQ     SOME
      00400  0020 00 4 00001         TRA     1,4
                              *
      00401  0 00000 0 00000  SOME   PZE
                              *
                              * - - - - - - - - - - - - - - - - - - - - - - - - - - - - - - - - -
                              *      BASIC READ - SKIP 2ND COPY DOWN TO X, SET X=Y, READ FROM MAIN
                              *       COPY, POSITION Y, INTO (1,4), A NO. OF WORDS GIVEN BY (2,4).
                              * - - - - - - - - - - - - - - - - - - - - - - - - - - - - - - - - -
                              *
      00402  0634 00 4 00410  CHERR  SXA     CH4,4
      00403  0074 00 4 00003         TSX     IODIAG,4
      00404  3 00007 0 00533         TXH     ERAY,,7
      00405 -0500 00 0 00536         CAL     ERAY+3
      00406  0402 00 0 04122         SUB     =6
      00407  0100 00 0 00412         TZE     ANYEOF
      00410  0774 00 4 00000  CH4    AXT     **,4
      00411  0020 00 4 00002         TRA     2,4
      00412  0534 00 4 00410  ANYEOF LXA     CH4,4
1       'OPEN' DUMPED FILE/READ N WORDS FROM DUMPED FILE...M.J.BAILEY,1/31/65    06/01/70 1350.3 PAGE 9

      00413  0020 60 4 00001         TRA*    1,4
                              *
                              *
      00414  0634 00 4 00504  BREAD  SXA     BRX4,4
      00415  0500 00 4 00001         CLA     1,4
      00416  0621 00 0 00455         STA     BRE
      00417  0621 00 0 00500         STA     BRI
      00420  0500 60 4 00002         CLA*    2,4
      00421  0601 00 0 00605         STO     NWORDS
      00422                          SKIFNB  AREADA        SKIP IF NO 2ND TAPE COPY
      00422  0500 00 0 74443         CLA     NOCHAN                                                           .001
      00423  0402 00 0 04121         SUB     =1                                                               .001
      00424  0100 00 0 00451         TZE     AREADA                                                           .001
                              *
      00425  0074 00 4 00004         TSX     RDFILE,4
      00426  3 00000 0 74422         PTH     BFNA
      00427  3 00000 0 74421         PTH     BFNB
      00430  3 00000 0 74411         PTH     X
      00431  3 00001 0 00601         PTH     TEMP,,1
      00432  3 00000 0 00515         PTH     BRM
      00433  3 00000 0 00601         PTH     TEMP
      00434  3 00000 0 00436         PTH     BRB
      00435  0020 00 0 00451         TRA     AREADA
                              *
      00436  0074 00 4 00402  BRB    TSX     CHERR,4
 TD   00437  3 00000 0 00515         TXH     BRM
      00440                          PRM     MESK,7
      00440  0074 00 4 00006         TSX     WRFLX,4                                                          .001
      00441  0 00007 0 00606                 MESK,,7                                                          .001
      00442  0020 00 0 00451         TRA     AREADA
                              *
                              *      READ FROM MAIN COPY, POSITION Y, INTO (1,4) ET SEQ, (2,4) WORDS
                              *
      00443  0634 00 4 00504  AREAD  SXA     BRX4,4
      00444  0500 00 4 00001         CLA     1,4
      00445  0621 00 0 00455         STA     BRE
      00446  0621 00 0 00500         STA     BRI
      00447  0500 60 4 00002         CLA*    2,4
      00450  0601 00 0 00605         STO     NWORDS
      00451  0074 00 4 00002  AREADA TSX     RDWAIT,4
 TD   00452  3 00000 0 74440         TXH     LFNA
 TD   00453  3 00000 0 74437         TXH     LFNB
 TD   00454  3 00000 0 00604         TXH     Y
      00455  2 00605 0 00000  BRE    TIX     **,,NWORDS
 TD   00456  3 00000 0 00515         TXH     BRM
 TD   00457  3 00000 0 74416         TXH     TEOF
 TD   00460  3 00000 0 00463         TXH     BRF
      00461  0074 00 4 00001         TSX     GETLSG,4
      00462  0020 00 0 00504         TRA     BRX4
                              *
      00463  0074 00 4 00402  BRF    TSX     CHERR,4
 TD   00464  3 00000 0 00515         TXH     BRM
                              *
                              *      ERROR, TRY TO READ FROM SECONDARY COPY INSTEAD OF MAIN ONE
                              *
      00465                          SKIFNB  BRK           SKIP IF NO 2ND TAPE COPY
1       'OPEN' DUMPED FILE/READ N WORDS FROM DUMPED FILE...M.J.BAILEY,1/31/65    06/01/70 1350.3 PAGE 10

      00465  0500 00 0 74443         CLA     NOCHAN                                                           .001
      00466  0402 00 0 04121         SUB     =1                                                               .001
      00467  0100 00 0 00510         TZE     BRK                                                              .001
      00470  0074 00 4 00005         TSX     FWAIT,4       WAIT ON I/O.
 TD   00471  3 00000 0 74422         TXH     BFNA
 TD   00472  3 00000 0 74421         TXH     BFNB
 TD   00473  3 00000 0 00474         TXH     *+1
      00474  0074 00 4 00002         TSX     RDWAIT,4
 TD   00475  3 00000 0 74422         TXH     BFNA
 TD   00476  3 00000 0 74421         TXH     BFNB
 TD   00477  3 00000 0 00604         TXH     Y
      00500  2 00605 0 00000  BRI    TIX     **,,NWORDS
 TD   00501  3 00000 0 00515         TXH     BRM
 TD   00502  3 00000 0 74416         TXH     TEOF
 TD   00503  3 00000 0 00506         TXH     BRJ
      00504  0774 00 4 00000  BRX4   AXT     **,4
      00505  0020 00 4 00006         TRA     6,4
                              *
      00506  0074 00 4 00402  BRJ    TSX     CHERR,4
 TD   00507  3 00000 0 00515         TXH     BRM
      00510  0074 00 4 00007  BRK    TSX     $PRNTER,4
      00511  0534 00 4 00504         LXA     BRX4,4
      00512  0020 00 4 00004         TRA     4,4
                              *
      00513  0534 00 4 00504  BRLA   LXA     BRX4,4
      00514  0020 00 4 00005         TRA     5,4
                              *
      00515  0074 00 4 00010  BRM    TSX     $TSTEOF,4     END OF REEL
      00516  0020 00 0 00526         TRA     ABNADD        ABANDON TAPE FILE
      00517  0020 00 0 00521         TRA     *+2           ERROR
      00520  0020 00 0 00513         TRA     BRLA          END OF FILE (LAST REEL)
      00521  0500 00 0 00574         CLA     PHYSRC        END OF REEL, REELS CHANGED
      00522  0400 00 0 04121         ADD     =1
      00523  0601 00 0 74411         STO     X
      00524  0601 00 0 00604         STO     Y
      00525  0020 00 0 00451         TRA     AREADA
                              *
                       00526  EORABN EQU     *
      00526  0020 00 0 00000  ABNADD TRA     **            (OPENDF OR RDF RETURN)
                              *
      00527  0534 00 4 00153  EORAB1 LXA     X4,4          OPENDF RETURN
      00530  1 77777 4 00162         TXI     IX3,4,-1      GO RETURN VIA (2,4)
                              *
      00531  0534 00 4 00265  EORAB2 LXA     DX4,4         RDF RETURN
      00532  1 77775 4 00361         TXI     DIX3,4,-3     GO RETURN VIA (5,4)
                              *
                              * - - - - - - - - - - - - - - - - - - - - - - - - - - - -
                              *      CONSTANTS, VARIABLES, ETC.
                              * - - - - - - - - - - - - - - - - - - - - - - - - - - - -
                              *
      00533                   ERAY   BSS     7
      00542                   PRPR   BSS     12
      00556                   OPREAM BSS     12
      00572  0 00000 0 00000  NW1    PZE
      00573  0 00000 0 03264  LTPBF  PZE     4*432-12
      00574  0 00000 0 00660  PHYSRC PZE     432
1       'OPEN' DUMPED FILE/READ N WORDS FROM DUMPED FILE...M.J.BAILEY,1/31/65    06/01/70 1350.3 PAGE 11

      00575  0 00000 0 00000  NFLR   PZE
      00576  0 00000 0 00000  NLAST  PZE
      00577  0 00000 0 00000  IREC   PZE
      00600  0 00000 0 00000  NREC   PZE
      00601                   TEMP   BSS     2
      00603  0 00000 0 03300  LLR    PZE     4*432
      00604  0 00000 0 00000  Y      PZE
      00605  0 00000 0 00000  NWORDS PZE
      00606  606225234645     MESK   BCI     7, SECONDARY COPY NOT MOVED DOWN THIS TIME.
      00615  606321472560     MESL   BCI     8, TAPE FILE WILL BE ABANDONED, PUT KEY UP AGAIN.
      00625  0 00000 0 00000  DWC    PZE
      00626  0 00000 0 00000  RWC    PZE
      00627  0 00000 0 00527  LEOROP PZE     EORAB1
      00630  0 00000 0 00531  LEORRD PZE     EORAB2
      00631  0 00000 0 00634  LWBF   PZE     WBF
      00632  0 00000 0 00000  T      PZE
      00633  0 00000 0 00000  M      PZE
      00634                   WBF    BSS     4*432-12
                                     INSERT  BCMEQB
                              *
                              *  -  -  -  -  -  -  -  -  -  -  -  -  -  -  -  -  -  -
                              *      COMMON AND EQUIVALENCE FOR SECONDARY STORAGE LOAD
                              *         (TIME-SHARING VERSION)
                              *  -  -  -  -  -  -  -  -  -  -  -  -  -  -  -  -  -  -
                              *
                      074446  DEMKEY BOOL    74446         CORE A LOCATION FOR DAEMON KEY SETTING
                              *
                      000017  BASE   BOOL    17            KEY CODE BASE
                      000001  CTINUE BOOL    1             KEY CODE TO CONTINUE WITH PROGRAM,NO CHANGE
                      000002  PAUSE  BOOL    2             KEY CODE TO WAIT 60 SECS.
                      000003  CHLDFL BOOL    3             KEY CODE TO USE DIFFERENT LOAD FILE
                      000004  STOPLD BOOL    4             KEY CODE TO STOP LOADING, START DUMPING
                      000005  ABANKY BOOL    5             KEY CODE TO ABANDON LOAD TAPE FILE
                      000006  SWCHAN BOOL    6             KEY CODE TO GO FROM 1 OR 2 TO 2 OR 1 CHANS.
                      000007  LSREEL BOOL    7             KEY CODE TO INDICATE LAST REEL OF LOAD FILE
                      000010  CHREEL BOOL    10            KEY CODE TO CORRECT REEL ORDER ERROR
                       77777  NEWCOM EQU     -1            TOP OF MEMORY
                      077461  OLDCOM BOOL    77461         OLD TOP OF COMMON
                       77462  COMRLC EQU     OLDCOM-NEWCOM RELOCATION FACTOR
                       77777         COMMON  COMRLC        RELOCATE COMMON
                       01554  UF     EQU     32767/2-DEMKEY/2 LENGTH OF USER LIST
                       77777  UFL    COMMON  2*UF          USER FILE LIST  (1ST PARTS OF FILE NAMES)
                       74446         COMMON  1             INSERT DUMMY IF NECESSARY
                       74445         COMMON  1             DEMKEY CELL IN NON-CTSS VERSION
                       74445  KEYVAL COMMON  1
                       74444  ABANTP COMMON  1             ABANDON TAPE FILE INDICATOR
                       74443  NOCHAN COMMON  1             NO. OF CHANNELS BEING READ (1 OR 2)
                       74442  DU     COMMON  1             PROBLEM NO. OF DUMP/LOAD PACKAGE
                       74441  DP     COMMON  1             PROGRAMMER NO. OF DITTO.
                       74440  LFNA   COMMON  1             LOAD TAPE FILE NAME (PART 1)
                       74437  LFNB   COMMON  1              ,,   ,,   ,,   ,,  (PART 2)
                       74423         COMMON  11            DUMPED FILE'S PREAMBLE FROM DUMP TAPE
                       74423  PREAM  COMMON  1             DUMPED FILE'S DUMP TAPE PREAMBLE 1ST WORD
                       74422  BFNA   COMMON  1             CHANNEL B LOAD TAPE FILE NAME (PART 1)
                       74421  BFNB   COMMON  1             CHANNEL B LOAD TAPE FILE NAME (PART 2)
                       74420  AUN    COMMON  1             CHANNEL A UNIT NO.
1       'OPEN' DUMPED FILE/READ N WORDS FROM DUMPED FILE...M.J.BAILEY,1/31/65    06/01/70 1350.3 PAGE 12

                       74417  BUN    COMMON  1             CHANNEL B UNIT NO.
                       74416  TEOF   COMMON  1             TAPE EOF INDICATOR/WORD COUNT
                       74412         COMMON  3             LABEL OF TAPE FILE CURRENTLY BEING LOADED
                       74412  LABEL  COMMON  1             LABEL OF TAPE FILE DITTO.   1ST WORD
                       74411  X      COMMON  1             TAPE FILE POINTER
                                     END

1       'OPEN' DUMPED FILE/READ N WORDS FROM DUMPED FILE...M.J.BAILEY,1/31/65    06/01/70 1350.3 PAGE 1
                        POST PROCESSOR ASSEMBLY DATA

       74410 IS THE LAST LOCATION NOT USED BY THIS PROGRAM
       4125 IS THE FIRST LOCATION NOT USED BY THIS PROGRAM

0REFERENCES TO DEFINED SYMBOLS
        633      M    17,  242,  252,  254,  306
        632      T   234,  240,  250,  253,  256,  261
      74411      X    31,   37,   41,   45,   47,  122,  124,  131,  310,  313,  340,  430,  523, 4120
        604      Y    42,   50,  125,  133,  312,  342,  454,  477,  524
      74441     DP  4120
      74442     DU  4120
         44     FL    44,   60,  104,  110,  113
        122     OQ    34
       1554     UF  4120
        156     X1    13,  164
        155     X2    14,  163
        154     X3    15,  162
        153     X4    16,  161,  527
      74420    AUN  4120
        436    BRB   434
        455    BRE   416,  445
        463    BRF   460
        500    BRI   417,  446
        506    BRJ   503
        510    BRK   467
        515    BRM   432,  437,  456,  464,  501,  507
      74417    BUN  4120
        410    CH4   402,  412
        625    DWC   130,  137,  211,  220,  247,  251,  302
        270    DX1   166,  363
        267    DX2   167,  362
        266    DX3   170,  361
        265    DX4   171,  174,  360,  531
         44    FLA    54,   55
        162    IX3   530
        603    LLR   311
        572    NW1   223,  227,  231,  260,  262
        130    OQC   121
        166    RDF     0
        212    RFA   200
        215    RFB   201
        220    RFC   213,  214
        222    RFD   217
        244    RFE   243,  246
        245    RFF   176,  236,  237
        274    RFH   225,  263
        340    RFI
        626    RWC   142,  147,  224,  226,  233,  255,  257,  305,  345,  366
      77777    UFL  4120
        634    WBF   146,  344,  631
         17   BASE  4120
      74422   BFNA   426,  471,  475, 4120
      74421   BFNB   427,  472,  476, 4120
        513   BRLA   520
        504   BRX4   414,  443,  462,  511,  513
1       'OPEN' DUMPED FILE/READ N WORDS FROM DUMPED FILE...M.J.BAILEY,1/31/65    06/01/70 1350.3 PAGE 2
                        POST PROCESSOR ASSEMBLY DATA

        361   DIX3   532
        357   DIX4   323,  324,  346,  347,  355
        533   ERAY   404,  405
        161   ERTN    33,  150,  151
         51   FLAB   127
        577   IREC    76,  105,  111,  134,  275,  277
         57   JUMP    36
      74440   LFNA   452, 4120
      74437   LFNB   453, 4120
        631   LWBF   241
        606   MESK   441
        615   MESL    27,  207
        575   NFLR    70,   77
        600   NREC   102,  106,  135,  300
        542   PRPR   316,  330,  336
        160   REOF    56,  152
        226   RFDA   351
        310   RFHA   337
        401   SOME    35,   40,  126,  352,  354,  377
        601   TEMP    72,   74,  103,  431,  433
      74416   TEOF    20,  160,  173,  356,  457,  502, 4120
        443  AREAD   145,  343
        414  BREAD    51,  320
        402  CHERR   436,  463,  506
        356  DIX47   325,  350
          5  FWAIT   470
        365  GSOME   144,  307
      74412  LABEL  4120
        573  LTPBF    65,  141,  304
        576  NLAST    71,  100
          0  NLREC    61
          2  PAUSE  4120
      74423  PREAM   116, 4120
          6  WRFLX    26,  206,  440
          5 ABANKY  4120
      74444 ABANTP    24,  204, 4120
        526 ABNADD    22,  203,  516
        412 ANYEOF   407
        451 AREADA   424,  435,  442,  525
        352 BADFIL   331,  333
          3 CHLDFL  4120
         10 CHREEL  4120
      77462 COMRLC  4120
          1 CTINUE  4120
      74446 DEMKEY  4120
        527 EORAB1   627
        531 EORAB2   630
        526 EORABN    30,  210,  526
          1 GETLSG    23,   44,  143,  172,  264,  274,  357,  461
          3 IODIAG   403
      74445 KEYVAL  4120
        627 LEOROP    21
        630 LEORRD   202
          7 LSREEL  4120
      77777 NEWCOM  4120
1       'OPEN' DUMPED FILE/READ N WORDS FROM DUMPED FILE...M.J.BAILEY,1/31/65    06/01/70 1350.3 PAGE 3
                        POST PROCESSOR ASSEMBLY DATA

      74443 NOCHAN   422,  465, 4120
        605 NWORDS   421,  450,  455,  500
      77461 OLDCOM  4120
         13 OPENDF     0
        556 OPREAM    52,   57,   64,   73,  115,  120,  315,  321,  327,  335
        574 PHYSRC    32,   46,   67,  521
          7 PRNTER   510
          4 RDFILE   425
          2 RDWAIT   451,  474
          4 STOPLD  4120
          6 SWCHAN  4120
         10 TSTEOF   515

0 NO ERROR IN ABOVE ASSEMBLY.
1       INITIATE AND TERMINATE DUMP TAPE FILE READS.....M.J.BAILEY..1/31/65      06/01/70 1350.9 PAGE 1

                              *           (TIME-SHARING VERSION)
                              *
                       00022         ENTRY   INITTF
                       00403         ENTRY   TERMTF
                       00437         ENTRY   TSTEOF
                              *
                                     EXTERN  GETLSG,IOBDT
                                     EXTERN  ATTACH
                                     EXTERN  ATTNAM
                                     EXTERN  RDWAIT,FWAIT
                                     EXTERN  VERIFY,BUFFER,OPEN,SLEEP
                                     EXTERN  MOUNT,UMOUNT,CLOSE,WRFLX
                              *
                                     INSERT  BMCRSC
                              *
                              *  ZERO-IZE A THROUGH A+X-1
                              *
                               CLEAR MACRO   A,X
                                     AXT     X,1
                                     STZ     A+X,1
                                     TIX     *-1,1,1
                               CLEAR END
                              *
                              *      MOVE X WORDS FROM A ET SEQ TO B ET SEQ
                              *
                               MOVE  MACRO   X,A,B
                                     AXT     X,1
                                     CAL     A+X,1
                                     SLW     B+X,1
                                     TIX     *-2,1,1
                               MOVE  END
                              *
                              *  PRINT ONE LINE COMMENT
                              *
                              PRLINE MACRO   COMNT,NWC,LOC
                                     TSX     WRFLX,4
                                             LOC,,NWC
                                     RMT
                               LOC   BCI     NWC,COMNT
                                     RMT
                              PRLINE END
                              *
                              *
                              *      EXECUTE INST. IN CORE A
                              *
                              *
                              EXEC   MACRO   OPC,ADD
                                     TSX     $GETA,7
                                     OPC     ADD
                              EXEC   END
                              *
                              *      GET KEY SETTING VIA SUPERVISOR, SET ABANTP, NOCHAN IF APPROPRIATE
                              *
                              GETSIG MACRO
                                     TSX     GETLSG,4
                              GETSIG END
1       INITIATE AND TERMINATE DUMP TAPE FILE READS.....M.J.BAILEY..1/31/65      06/01/70 1350.9 PAGE 2

                              *
                              *      TEST WHETHER 2ND TAPE COPY IS NEEDED, IF NOT GO TO SKIP
                              *
                              SKIFNB MACRO   SKIP
                                     CLA     NOCHAN
                                     SUB     =1
                                     TZE     SKIP
                              SKIFNB END
                              *
                              *      PRINT AN N-WORD MESSAGE FROM  MESSGE
                              *
                              PRM    MACRO   MESSGE,N
                                     TSX     WRFLX,4
                                             MESSGE,,N
                              PRM    END
                              *
                              *      COMPARE 2 SETS OF N CONSECUTIVE WORDS IN A ETC., AND B ETC. ,
                              *      AND IF THEY DO NOT ALL MATCH, GO TO NF, OR OTHERWISE CONTINUE.
                              *
                              CMPWDS MACRO   N,A,B,NF
                                     AXT     N,1
                                     CAL     A+N,1
                                     LAS     B+N,1
                                     TRA     NF
                                     TRA     *+2
                                     TRA     NF
                                     TIX     *-5,1,1
                              CMPWDS END
                              *
                              *      WAIT FOR I/O ON FILE (A,B) TO END, GO TO E IF ERROR OCCURRED
                              *
                              WAIT   MACRO   A,B,E
                                     TSX     FWAIT,4
                                     PTH     A
                                     PTH     B
                                     PTH     E
                              WAIT   END
                              *
                              *      CLOSE THE FILE (A,B)
                              *
                              CLOSE  MACRO   A,B
                                     TSX     CLOSE,4
                                     PTH     A
                                     PTH     B
                              CLOSE  END
                              *
                              * - - - - - - - - - - - - - - - - - - - - - - - - - - - - - -
                              *      INITIATE DUMP TAPE FILE READ (OPEN, AND READ I.D
                              *       LABELS FROM BOTH COPIES, AND CHECK THEY MATCH)
                              * - - - - - - - - - - - - - - - - - - - - - - - - - - - - - -
                              *

      00000  272563436227     GETLSG
      00001  314622246360     IOBDT
      00002  216363212330     ATTACH
      00003  216363452144     ATTNAM
1       INITIATE AND TERMINATE DUMP TAPE FILE READS.....M.J.BAILEY..1/31/65      06/01/70 1350.9 PAGE 3

      00004  512466213163     RDWAIT
      00005  266621316360     FWAIT
      00006  652551312670     VERIFY
      00007  226426262551     BUFFER
      00010  464725456060     OPEN
      00011  624325254760     SLEEP
      00012  444664456360     MOUNT
      00013  644446644563     UMOUNT
      00014  234346622560     CLOSE
      00015  665126436760     WRFLX
      00016  475145632551     PRNTER
      00017  216242464751     ASKOPR


      00022  0634 00 1 00401  INITTF SXA     X1,1
      00023  0634 00 2 00400         SXA     X2,2
      00024  0634 00 3 00377         SXA     X3,3
      00025  0634 00 4 00376         SXA     X4,4
      00026  0074 00 4 00000         TSX     GETLSG,4
      00027                          SKIFNB  IA            SKIP IF ONLY ONE TAPE COPY
      00027  0500 00 0 74443         CLA     NOCHAN                                                           .001
      00030  0402 00 0 03265         SUB     =1                                                               .001
      00031  0100 00 0 00077         TZE     IA                                                               .001
                              *
                              *      VERIFY THAT 2ND CHANNEL HAS CORRECT DUPLICATE MOUNTED
                              *
      00032  0774 00 2 00012         AXT     10,2
      00033  0074 00 4 00006  CHCKBA TSX     VERIFY,4
 TD   00034  3 00000 0 74417         TXH     BUN
      00035  3 00004 0 74412         TXH     LABEL,,4
 TD   00036  3 00000 0 00041         TXH     CHCKBB        ERROR
 TD   00037  3 00000 0 01014         TXH     ERCODE
      00040  0020 00 0 00077         TRA     IA            SKIP IF OTHER CHANNEL O.K.
                              *
      00041  0074 00 4 00016  CHCKBB TSX     $PRNTER,4
      00042  0500 00 0 01014         CLA     ERCODE
      00043  0402 00 0 03267         SUB     =7
      00044 -0100 00 0 00070         TNZ     CHCKBD        SKIP IF NOT INCORRECT-LABEL ERROR
      00045  2 00002 2 00033         TIX     CHCKBA,2,2    TRY 5 TIMES IF LABEL IS INCORRECT
                              *
      00046  0074 00 4 00013  WRONGB TSX     UMOUNT,4      IF STILL WRONG UNMOUNT THIS TAPE
 TD   00047  3 00000 0 74417         TXH     BUN
      00050  2 01103 0 01067         TIX     WRNGT2,,LWT2
      00051  0074 00 4 00017  CHCKBC TSX     $ASKOPR,4
      00052  3 00006 0 01035         PTH     MESC,,6
      00053  3 00001 0 00063         PTH     CONT,,CTINUE
      00054  3 00006 0 01043         PTH     MESD,,6
      00055  3 00003 0 00075         PTH     QUITFL,,CHLDFL
      00056  3 00006 0 01051         PTH     MESE,,6
      00057  3 00002 0 00060         PTH     REST,,PAUSE
                              *
      00060 -0500 00 0 03271  REST   CAL     =45
      00061  0074 00 4 00011         TSX     SLEEP,4
      00062  0020 00 0 00051         TRA     CHCKBC
      00063  0074 00 4 00012  CONT   TSX     MOUNT,4       MOUNT ANOTHER ON 2ND CHANNEL
 TD   00064  3 00000 0 03266         TXH     =2
1       INITIATE AND TERMINATE DUMP TAPE FILE READS.....M.J.BAILEY..1/31/65      06/01/70 1350.9 PAGE 4

 TD   00065  3 00000 0 74417         TXH     BUN
      00066  2 01113 0 01104         TIX     RMT2,,LRMT2
      00067  0020 00 0 00032         TRA     CHCKBA-1      AND RE-VERIFY
                              *
      00070  2 00001 2 00033  CHCKBD TIX     CHCKBA,2,1    TRY 10 TIMES IF SOME OTHER ERROR
      00071  0074 00 4 00013         TSX     UMOUNT,4      THEN UNMOUNT THIS TAPE
 TD   00072  3 00000 0 74417         TXH     BUN
      00073  2 01132 0 01114         TIX     BADT2,,LBT2
      00074  0020 00 0 00051         TRA     CHCKBC        THEN GO STOP TO SEE WHAT NEXT
                              *
                       00075  QUITFL EQU     *             TO ABANDON THIS TAPE FILE,
      00075  0534 00 4 00376  ABEXT  LXA     X4,4
      00076  1 00001 4 00377         TXI     X3,4,1        THEN GO EXIT VIA 1,4
                              *
                              *      OPEN TAPE FILE 1ST COPY AND READ ITS I.D.
                              *
      00077  0774 00 2 00012  IA     AXT     10,2
      00100  0074 00 4 00010  IAA    TSX     OPEN,4
 TD   00101  3 00000 0 01013         TXH     R
 TD   00102  3 00000 0 74440         TXH     LFNA
 TD   00103  3 00000 0 74437         TXH     LFNB
 TD   00104  3 00000 0 03273         TXH     =-0
 TD   00105  3 00000 0 03273         TXH     =-0
 TD   00106  3 00000 0 00162         TXH     ID            ERROR
                              *
      00107  0074 00 4 00007         TSX     BUFFER,4      ASSIGN BUFFERS
 TD   00110  3 00000 0 74440         TXH     LFNA
 TD   00111  3 00000 0 74437         TXH     LFNB
      00112  2 01015 0 01410         TIX     IB1,,LIB
      00113 -0500 00 0 03265         CAL     =1
      00114  0602 00 0 74411         SLW     X
                              *
      00115  0774 00 3 00066         AXT     RECSIZ/8,3
      00116  0074 00 4 00004  IB     TSX     RDWAIT,4      READ I.D. RECORD LABEL
 TD   00117  3 00000 0 74440         TXH     LFNA
 TD   00120  3 00000 0 74437         TXH     LFNB
 TD   00121  3 00000 0 74411         TXH     X
      00122  3 00010 0 02270         TXH     WBF,,8
 TD   00123  3 00000 0 00200         TXH     IE            EOF, ERROR
 TD   00124  3 00000 0 74416         TXH     TEOF
 TD   00125  3 00000 0 00136         TXH     IC
      00126  0074 00 4 00000         TSX     GETLSG,4
      00127  0600 00 0 01012         STZ     IDERR         I.D. LABEL READ O.K., SKIP TO DO 2ND COPY
      00130                          MOVE    8,WBF,TAPEID
      00130  0774 00 1 00010         AXT     8,1                                                              .001
      00131 -0500 00 1 02300         CAL     WBF+8,1                                                          .001
      00132  0602 00 1 02324         SLW     TAPEID+8,1                                                       .001
      00133  2 00001 1 00131         TIX     *-2,1,1                                                          .001
      00134  0600 00 0 02324         STZ     TAPEID+8
      00135  0020 00 0 00206         TRA     IG
                              *
      00136  0074 00 4 00016  IC     TSX     $PRNTER,4     READ ERROR
      00137  0500 00 0 74411         CLA     X
      00140  0400 00 0 03270         ADD     =8
      00141  0601 00 0 74411         STO     X
      00142  2 00001 3 00116         TIX     IB,3,1        TRY AGAIN AT NEXT REPETITION OF LABEL
1       INITIATE AND TERMINATE DUMP TAPE FILE READS.....M.J.BAILEY..1/31/65      06/01/70 1350.9 PAGE 5

      00143                          PRM     MESA,8        I.D. IS UNREAD,
      00143  0074 00 4 00015         TSX     WRFLX,4                                                          .001
      00144  0 00010 0 01020                 MESA,,8                                                          .001
      00145  0074 00 4 00017  BACK   TSX     $ASKOPR,4
      00146  3 00006 0 01035         PTH     MESC,,6
      00147  3 00001 0 00157         PTH     CONT1,,CTINUE
      00150  3 00006 0 01043         PTH     MESD,,6
      00151  3 00003 0 00075         PTH     QUITFL,,CHLDFL
      00152  3 00006 0 01051         PTH     MESE,,6
      00153  3 00002 0 00154         PTH     REST1,,PAUSE
                              *
      00154 -0500 00 0 03271  REST1  CAL     =45
      00155  0074 00 4 00011         TSX     SLEEP,4
      00156  0020 00 0 00145         TRA     BACK
                              *
      00157  0500 00 0 03265  CONT1  CLA     =1            OR CONTINUE WITHOUT CHECKING I.D.'S
      00160  0601 00 0 01012         STO     IDERR
      00161  0020 00 0 00206         TRA     IG
                              *
      00162                   ID     PRM     MESB,5        ERROR OPENING FILE
      00162  0074 00 4 00015         TSX     WRFLX,4                                                          .001
      00163  0 00005 0 01030                 MESB,,5                                                          .001
      00164  0074 00 4 00016         TSX     $PRNTER,4
      00165  2 00001 2 00100  IDA    TIX     IAA,2,1       TRY 10 TIMES TO OPEN
      00166  0074 00 4 00017  BACK1  TSX     $ASKOPR,4
      00167  3 00006 0 01035         PTH     MESC,,6
      00170  3 00001 0 00077         PTH     IA,,CTINUE
      00171  3 00006 0 01043         PTH     MESD,,6
      00172  3 00003 0 00075         PTH     QUITFL,,CHLDFL
      00173  3 00006 0 01051         PTH     MESE,,6
      00174  3 00002 0 00175         PTH     REST2,,PAUSE
                              *
      00175 -0500 00 0 03271  REST2  CAL     =45
      00176  0074 00 4 00011         TSX     SLEEP,4
      00177  0020 00 0 00166         TRA     BACK1
                              *
      00200                   IE     PRM     MESF,8        EOF IN WRONG PLACE
      00200  0074 00 4 00015         TSX     WRFLX,4                                                          .001
      00201  0 00010 0 01057                 MESF,,8                                                          .001
      00202                          CLOSE   LFNA,LFNB
      00202  0074 00 4 00014         TSX     CLOSE,4                                                          .001
      00203  3 00000 0 74440         PTH     LFNA                                                             .001
      00204  3 00000 0 74437         PTH     LFNB                                                             .001
      00205  0020 00 0 00165         TRA     IDA           TRY TEN TIMES TO NOT GET ONE
                              *
                              *
                              *      OPEN TAPE FILE 2ND COPY, READ ITS I.D. LABEL
                              *
      00206                   IG     SKIFNB  IS
      00206  0500 00 0 74443         CLA     NOCHAN                                                           .001
      00207  0402 00 0 03265         SUB     =1                                                               .001
      00210  0100 00 0 00350         TZE     IS                                                               .001
      00211  0774 00 2 00012         AXT     10,2
      00212  0074 00 4 00010  IH     TSX     OPEN,4
 TD   00213  3 00000 0 01013         TXH     R
 TD   00214  3 00000 0 74422         TXH     BFNA
1       INITIATE AND TERMINATE DUMP TAPE FILE READS.....M.J.BAILEY..1/31/65      06/01/70 1350.9 PAGE 6

 TD   00215  3 00000 0 74421         TXH     BFNB
 TD   00216  3 00000 0 03273         TXH     =-0
 TD   00217  3 00000 0 03273         TXH     =-0
 TD   00220  3 00000 0 00272         TXH     IK            ERROR
                              *
      00221  0074 00 4 00007         TSX     BUFFER,4      ASSIGN BUFFER
 TD   00222  3 00000 0 74422         TXH     BFNA
 TD   00223  3 00000 0 74421         TXH     BFNB
      00224  2 01015 0 02325         TIX     IB2,,LIB
      00225 -0500 00 0 03265         CAL     =1
      00226  0602 00 0 74411         SLW     X
                              *
      00227  0774 00 3 00066         AXT     RECSIZ/8,3
      00230  0074 00 4 00004  II     TSX     RDWAIT,4      READ I.D. RECORD LABEL
 TD   00231  3 00000 0 74422         TXH     BFNA
 TD   00232  3 00000 0 74421         TXH     BFNB
 TD   00233  3 00000 0 74411         TXH     X
      00234  2 01017 0 02300         TIX     WBF+8,,L8
 TD   00235  3 00000 0 00310         TXH     IM            EOF, ERROR
 TD   00236  3 00000 0 74416         TXH     TEOF
 TD   00237  3 00000 0 00243         TXH     IJ
      00240 -0520 00 0 01012         NZT     IDERR         I.D. READ O.K.
      00241  0020 00 0 00320         TRA     IO            SKIP TO COMPARE IF BOTH READ
      00242  0020 00 0 00342         TRA     IR            OR CARRY ON WITH NO CHECK
                              *
      00243  0074 00 4 00016  IJ     TSX     $PRNTER,4
      00244  0500 00 0 74411         CLA     X
      00245  0400 00 0 03270         ADD     =8
      00246  0601 00 0 74411         STO     X
      00247  2 00001 3 00230         TIX     II,3,1        TRY TO READ AGAIN AT REPETITION OF LABEL
      00250 -0500 00 0 03275         CAL     =H ON 2N
      00251  0602 00 0 01022         SLW     MESA+2
      00252 -0500 00 0 03272         CAL     =HD COPY
      00253  0602 00 0 01023         SLW     MESA+3
      00254                          PRM     MESA,8
      00254  0074 00 4 00015         TSX     WRFLX,4                                                          .001
      00255  0 00010 0 01020                 MESA,,8                                                          .001
      00256  0520 00 0 01012         ZET     IDERR
      00257  0020 00 0 00075         TRA     QUITFL        ABANDON BOTH TAPES IF NO I.D.'S READ
      00260  0074 00 4 00017  BACK2  TSX     $ASKOPR,4
      00261  3 00006 0 01035         PTH     MESC,,6
      00262  3 00001 0 00342         PTH     IR,,CTINUE
      00263  3 00006 0 01043         PTH     MESD,,6
      00264  3 00003 0 00075         PTH     QUITFL,,CHLDFL
      00265  3 00006 0 01051         PTH     MESE,,6
      00266  3 00002 0 00267         PTH     REST3,,PAUSE
                              *
      00267 -0500 00 0 03271  REST3  CAL     =45
      00270  0074 00 4 00011         TSX     SLEEP,4
      00271  0020 00 0 00260         TRA     BACK2
                              *
                              *
      00272                   IK     PRM     MESB,5
      00272  0074 00 4 00015         TSX     WRFLX,4                                                          .001
      00273  0 00005 0 01030                 MESB,,5                                                          .001
      00274  0074 00 4 00016         TSX     $PRNTER,4
1       INITIATE AND TERMINATE DUMP TAPE FILE READS.....M.J.BAILEY..1/31/65      06/01/70 1350.9 PAGE 7

      00275  2 00001 2 00212  IL     TIX     IH,2,1        TRY 10 TIMES TO OPEN
      00276  0074 00 4 00017  BACK3  TSX     $ASKOPR,4
      00277  3 00006 0 01035         PTH     MESC,,6
      00300  3 00001 0 00206         PTH     IG,,CTINUE
      00301  3 00006 0 01043         PTH     MESD,,6
      00302  3 00003 0 00075         PTH     QUITFL,,CHLDFL
      00303  3 00006 0 01051         PTH     MESE,,6
      00304  3 00002 0 00305         PTH     REST4,,PAUSE
                              *
      00305 -0500 00 0 03271  REST4  CAL     =45
      00306  0074 00 4 00011         TSX     SLEEP,4
      00307  0020 00 0 00276         TRA     BACK3
                              *
                              *
      00310 -0500 00 0 03274  IM     CAL     =H 2ND T
      00311  0602 00 0 01064         SLW     MESF+5
      00312                          PRM     MESF,8
      00312  0074 00 4 00015         TSX     WRFLX,4                                                          .001
      00313  0 00010 0 01057                 MESF,,8                                                          .001
      00314                          CLOSE   BFNA,BFNB
      00314  0074 00 4 00014         TSX     CLOSE,4                                                          .001
      00315  3 00000 0 74422         PTH     BFNA                                                             .001
      00316  3 00000 0 74421         PTH     BFNB                                                             .001
      00317  0020 00 0 00275         TRA     IL            GO RE-OPEN,READ AGAIN (10 TIMES)
                              *
                              *
                              *      COMPARE I.D. LABELS ON BOTH COPIES
                              *
      00320                   IO     CMPWDS  8,WBF,WBF+8,IP
      00320  0774 00 1 00010         AXT     8,1                                                              .001
      00321 -0500 00 1 02300         CAL     WBF+8,1                                                          .001
      00322 -0340 00 1 02310         LAS     WBF+8+8,1                                                        .001
      00323  0020 00 0 00330         TRA     IP                                                               .001
      00324  0020 00 0 00326         TRA     *+2                                                              .001
      00325  0020 00 0 00330         TRA     IP                                                               .001
      00326  2 00001 1 00321         TIX     *-5,1,1                                                          .001
      00327  0020 00 0 00337         TRA     IQ            SKIP IF COMPARISON O.K.
      00330                   IP     CLOSE   LFNA,LFNB     WRONG TAPE ON 2ND CHANNEL
      00330  0074 00 4 00014         TSX     CLOSE,4                                                          .001
      00331  3 00000 0 74440         PTH     LFNA                                                             .001
      00332  3 00000 0 74437         PTH     LFNB                                                             .001
      00333                          CLOSE   BFNA,BFNB
      00333  0074 00 4 00014         TSX     CLOSE,4                                                          .001
      00334  3 00000 0 74422         PTH     BFNA                                                             .001
      00335  3 00000 0 74421         PTH     BFNB                                                             .001
      00336  0020 00 0 00046         TRA     WRONGB        GO REMOUNT AT LEAST 2ND COPY
                              *
                              *      PRINT I.D. LABEL AND SET FILE POINTER AT START OF 1ST DUMPED FILE
                              *
      00337                   IQ     PRM     MESG,9        BOTH LABELS READ O.K.,PRINT MESSAGE
      00337  0074 00 4 00015         TSX     WRFLX,4                                                          .001
      00340  0 00011 0 01152                 MESG,,9                                                          .001
      00341  0020 00 0 00350         TRA     IS            SKIP
      00342 -0520 00 0 01012  IR     NZT     IDERR         SEE WHICH LABEL WAS READ
      00343  0020 00 0 00350         TRA     IS            SKIP IF IT WAS 1ST COPY
      00344                          MOVE    8,WBF+8,WBF   2ND COPY, MOVE IT DOWN
1       INITIATE AND TERMINATE DUMP TAPE FILE READS.....M.J.BAILEY..1/31/65      06/01/70 1350.9 PAGE 8

      00344  0774 00 1 00010         AXT     8,1                                                              .001
      00345 -0500 00 1 02310         CAL     WBF+8+8,1                                                        .001
      00346  0602 00 1 02300         SLW     WBF+8,1                                                          .001
      00347  2 00001 1 00345         TIX     *-2,1,1                                                          .001
      00350                   IS     PRM     MESH,7        PRINT MESSAGE
      00350  0074 00 4 00015         TSX     WRFLX,4                                                          .001
      00351  0 00007 0 01163                 MESH,,7                                                          .001
      00352                          PRM     WBF,4
      00352  0074 00 4 00015         TSX     WRFLX,4                                                          .001
      00353  0 00004 0 02270                 WBF,,4                                                           .001
      00354  0074 00 4 00000         TSX     GETLSG,4
      00355 -0500 00 0 02274         CAL     WBF+4
      00356  0602 00 0 01200         SLW     MESI+6
      00357 -0500 00 0 02275         CAL     WBF+5
      00360  0602 00 0 01202         SLW     MESI+8
      00361                          PRM     MESI,9        PRINT DATE/TIME DUMPING ON IT BEGAN
      00361  0074 00 4 00015         TSX     WRFLX,4                                                          .001
      00362  0 00011 0 01172                 MESI,,9                                                          .001
      00363 -0500 00 0 02277         CAL     WBF+7
      00364  0100 00 0 00374         TZE     IT            SKIP IF NO END OF DUMP 'DAY'
      00365  0074 00 4 00001         TSX     IOBDT,4
      00366  0602 00 0 01210         SLW     MESJ+5
      00367 -0600 00 0 01212         STQ     MESJ+7
      00370                          PRM     MESJ,8        PRINT END OF DUMP 'DAY'
      00370  0074 00 4 00015         TSX     WRFLX,4                                                          .001
      00371  0 00010 0 01203                 MESJ,,8                                                          .001
      00372                          PRM     MESK,5
      00372  0074 00 4 00015         TSX     WRFLX,4                                                          .001
      00373  0 00005 0 01213                 MESK,,5                                                          .001
                              *
      00374  0774 00 1 00660  IT     AXT     RECSIZ,1
      00375  0634 00 1 74411         SXA     X,1           SET FILE POINTER TO START OF 1ST FILE
                              *
      00376  0774 00 4 00000  X4     AXT     **,4
      00377  0774 00 3 00000  X3     AXT     **,3
      00400  0774 00 2 00000  X2     AXT     **,2
      00401  0774 00 1 00000  X1     AXT     **,1
      00402  0020 00 4 00002         TRA     2,4
                              *
                              * - - - - - - - - - - - - - - - - - - - - -
                              *      TERMINATE DUMP TAPE FILES
                              * - - - - - - - - - - - - - - - - - - - - -
                              *
      00403  0634 00 4 00435  TERMTF SXA     TX4,4
      00404  0074 00 4 00000         TSX     GETLSG,4
      00405                          PRM     MESL,7
      00405  0074 00 4 00015         TSX     WRFLX,4                                                          .001
      00406  0 00007 0 01220                 MESL,,7                                                          .001
      00407  0074 00 4 00005         TSX     FWAIT,4
 TD   00410  3 00000 0 74440         TXH     LFNA
 TD   00411  3 00000 0 74437         TXH     LFNB
 TD   00412  3 00000 0 00413         TXH     *+1
      00413                          CLOSE   LFNA,LFNB
      00413  0074 00 4 00014         TSX     CLOSE,4                                                          .001
      00414  3 00000 0 74440         PTH     LFNA                                                             .001
      00415  3 00000 0 74437         PTH     LFNB                                                             .001
1       INITIATE AND TERMINATE DUMP TAPE FILE READS.....M.J.BAILEY..1/31/65      06/01/70 1350.9 PAGE 9

 TD   00416  3 00000 0 00417         TXH     *+1
      00417  0074 00 4 00005         TSX     FWAIT,4
 TD   00420  3 00000 0 74422         TXH     BFNA
 TD   00421  3 00000 0 74421         TXH     BFNB
 TD   00422  3 00000 0 00423         TXH     *+1
      00423                          CLOSE   BFNA,BFNB
      00423  0074 00 4 00014         TSX     CLOSE,4                                                          .001
      00424  3 00000 0 74422         PTH     BFNA                                                             .001
      00425  3 00000 0 74421         PTH     BFNB                                                             .001
 TD   00426  3 00000 0 00427         TXH     *+1
      00427  0074 00 4 00013         TSX     UMOUNT,4
 TD   00430  3 00000 0 74420         TXH     AUN
      00431  2 01141 0 01133         TIX     UMA,,LUMA
      00432  0074 00 4 00013         TSX     UMOUNT,4
 TD   00433  3 00000 0 74417         TXH     BUN
      00434  2 01151 0 01142         TIX     UMB,,LUMB
      00435  0774 00 4 00000  TX4    AXT     **,4
      00436  0020 00 4 00001         TRA     1,4
                              *
                              * - - - - - - - - - - - - - - - - - - - - - - - - - - - -
                              *      TEST FOR END OF TAPE-FILE, IF NOT CHANGE REELS
                              * - - - - - - - - - - - - - - - - - - - - - - - - - - - -
                              *
      00437  0634 00 1 00401  TSTEOF SXA     X1,1
      00440  0634 00 2 00400         SXA     X2,2
      00441  0634 00 3 00377         SXA     X3,3
      00442  0634 00 4 00376         SXA     X4,4
      00443                          PRLINE  ( END OF REEL ON RELOAD TAPE FILE.),6
      00443  0074 00 4 00015         TSX     WRFLX,4                                                          .001
      00444  0 00006 0 03205                 ..001,,6                                                         .001
                                     RMT                                                                      .001
                              ..001  BCI     6, END OF REEL ON RELOAD TAPE FILE.                              .001
                                     RMT                                                                      .001
      00445  0074 00 4 00017         TSX     $ASKOPR,4
      00446  3 00010 0 01323         PTH     MESM,,8
      00447  3 00007 0 00452         PTH     EOTF,,LSREEL
      00450  3 00010 0 01333         PTH     MESN,,8
      00451  3 00001 0 00454         PTH     TB1,,CTINUE
                              *
      00452  0534 00 4 00376  EOTF   LXA     X4,4          LAST REEL OF TAPE LOAD-FILE
      00453  1 00001 4 00746         TXI     TV,4,1        GO EXIT VIA 3,4
                              *
      00454  0074 00 4 00003  TB1    TSX     ATTNAM,4
      00455  3 00002 0 01010         PTH     NM,,2
      00456  0074 00 4 00002         TSX     ATTACH,4
      00457  3 00000 0 74442         PTH     DU
      00460  3 00000 0 74441         PTH     DP
                              *
                              *
      00461  0074 00 4 00005  TB     TSX     FWAIT,4       JUST TO CATCH ERRORS.
 TD   00462  3 00000 0 74440         TXH     LFNA
 TD   00463  3 00000 0 74437         TXH     LFNB
 TD   00464  3 00000 0 00465         TXH     *+1
      00465                          CLOSE   LFNA,LFNB     CHANGE REELS
      00465  0074 00 4 00014         TSX     CLOSE,4                                                          .001
      00466  3 00000 0 74440         PTH     LFNA                                                             .001
1       INITIATE AND TERMINATE DUMP TAPE FILE READS.....M.J.BAILEY..1/31/65      06/01/70 1350.9 PAGE 10

      00467  3 00000 0 74437         PTH     LFNB                                                             .001
 TD   00470  3 00000 0 00471         TXH     *+1
      00471  0074 00 4 00005         TSX     FWAIT,4
 TD   00472  3 00000 0 74422         TXH     BFNA
 TD   00473  3 00000 0 74421         TXH     BFNB
 TD   00474  3 00000 0 00475         TXH     *+1
      00475                          CLOSE   BFNA,BFNB
      00475  0074 00 4 00014         TSX     CLOSE,4                                                          .001
      00476  3 00000 0 74422         PTH     BFNA                                                             .001
      00477  3 00000 0 74421         PTH     BFNB                                                             .001
 TD   00500  3 00000 0 00501         TXH     *+1
      00501  0074 00 4 00013         TSX     UMOUNT,4      UNMOUNT 'A' REEL
 TD   00502  3 00000 0 74420         TXH     AUN
      00503  2 01236 0 01227         TIX     UMRA,,LUMRA
      00504  0074 00 4 00013         TSX     UMOUNT,4
 TD   00505  3 00000 0 74417         TXH     BUN           UNMOUNT 'B' REEL TOO. ***
      00506  2 01246 0 01237         TIX     UMRB,,LUMRB
 TD   00507  3 00000 0 00510         TXH     *+1           NULL ERROR RETURN, IN CASE NO B COPY.
                              *
      00510  0074 00 4 00012  TD     TSX     MOUNT,4       MOUNT NEW 'A' REEL
 TD   00511  3 00000 0 03265         TXH     =1
 TD   00512  3 00000 0 74420         TXH     AUN
      00513  2 01257 0 01247         TIX     MRA,,LMRA
      00514  0774 00 2 00003         AXT     3,2
      00515  0074 00 4 00006  TE     TSX     VERIFY,4      CHECK I/O SYSTEM LABEL
 TD   00516  3 00000 0 74420         TXH     AUN
      00517  2 01016 0 74412         TIX     LABEL,,L4
 TD   00520  3 00000 0 00523         TXH     TF
 TD   00521  3 00000 0 01014         TXH     ERCODE
      00522  0020 00 0 00545         TRA     TH            SKIP IF O.K.
                              *
      00523  0074 00 4 00016  TF     TSX     $PRNTER,4     VERIFICATION ERROR
      00524  0500 00 0 01014         CLA     ERCODE
      00525  0402 00 0 03267         SUB     =7
      00526  0100 00 0 00530         TZE     TG
      00527  2 00001 2 00515         TIX     TE,2,1
      00530  0074 00 4 00013  TG     TSX     UMOUNT,4
 TD   00531  3 00000 0 74420         TXH     AUN
      00532  2 01305 0 01271         TIX     WRA,,LWRA
      00533  0074 00 4 00017  BACK5  TSX     $ASKOPR,4
      00534  3 00006 0 01035         PTH     MESC,,6
      00535  3 00001 0 00510         PTH     TD,,CTINUE
      00536  3 00006 0 01043         PTH     MESD,,6
      00537  3 00003 0 00075         PTH     ABEXT,,CHLDFL
      00540  3 00006 0 01051         PTH     MESE,,6
      00541  3 00002 0 00542         PTH     REST5,,PAUSE
                              *
      00542 -0500 00 0 03271  REST5  CAL     =45
      00543  0074 00 4 00011         TSX     SLEEP,4
      00544  0020 00 0 00533         TRA     BACK5
                              *
      00545  0074 00 4 00010  TH     TSX     OPEN,4
 TD   00546  3 00000 0 01013         TXH     R
 TD   00547  3 00000 0 74440         TXH     LFNA
 TD   00550  3 00000 0 74437         TXH     LFNB
 TD   00551  3 00000 0 03273         TXH     =-0
1       INITIATE AND TERMINATE DUMP TAPE FILE READS.....M.J.BAILEY..1/31/65      06/01/70 1350.9 PAGE 11

 TD   00552  3 00000 0 03273         TXH     =-0
 TD   00553  3 00000 0 00752         TXH     TW            ERROR
      00554  0074 00 4 00007         TSX     BUFFER,4
 TD   00555  3 00000 0 74440         TXH     LFNA
 TD   00556  3 00000 0 74437         TXH     LFNB
      00557  2 01015 0 01410         TIX     IB1,,LIB
                              *
      00560  0074 00 4 00004         TSX     RDWAIT,4      CHECK DAEMON'S TAPE I.D.
 TD   00561  3 00000 0 74440         TXH     LFNA
 TD   00562  3 00000 0 74437         TXH     LFNB
 TD   00563  3 00000 0 03265         TXH     =1
      00564  2 01376 0 01377         TIX     IDBF,,L9
 TD   00565  3 00000 0 00760         TXH     TX            EOF, ERROR
 TD   00566  3 00000 0 01375         TXH     JK
 TD   00567  3 00000 0 00752         TXH     TW            ERROR
                              *
      00570                          CMPWDS  8,IDBF,TAPEID,THA
      00570  0774 00 1 00010         AXT     8,1                                                              .001
      00571 -0500 00 1 01407         CAL     IDBF+8,1                                                         .001
      00572 -0340 00 1 02324         LAS     TAPEID+8,1                                                       .001
      00573  0020 00 0 00600         TRA     THA                                                              .001
      00574  0020 00 0 00576         TRA     *+2                                                              .001
      00575  0020 00 0 00600         TRA     THA                                                              .001
      00576  2 00001 1 00571         TIX     *-5,1,1                                                          .001
      00577  0020 00 0 00604         TRA     THB
      00600                   THA    CLOSE   LFNA,LFNB
      00600  0074 00 4 00014         TSX     CLOSE,4                                                          .001
      00601  3 00000 0 74440         PTH     LFNA                                                             .001
      00602  3 00000 0 74437         PTH     LFNB                                                             .001
      00603  0020 00 0 00530         TRA     TG
                              *
      00604  0500 00 0 01407  THB    CLA     IDBF+8        O.K., NOW CHECK REEL NO.
      00605  0402 00 0 03265         SUB     =1
      00606  0402 00 0 02324         SUB     TAPEID+8
      00607  0100 00 0 00624         TZE     TJ            SKIP IF REEL ALL O.K.
      00610                          PRLINE  ( REEL ORDER ERROR ON CHANNEL A.),6
      00610  0074 00 4 00015         TSX     WRFLX,4                                                          .001
      00611  0 00006 0 03213                 ..002,,6                                                         .001
                                     RMT                                                                      .001
                              ..002  BCI     6, REEL ORDER ERROR ON CHANNEL A.                                .001
                                     RMT                                                                      .001
      00612  0074 00 4 00017  TI     TSX     $ASKOPR,4
      00613  3 00011 0 01354         PTH     MESQ,,9
      00614  3 00001 0 00621         PTH     TJA,,CTINUE
      00615  3 00010 0 01043         PTH     MESD,,8
      00616  3 00003 0 00075         PTH     ABEXT,,CHLDFL
      00617  3 00006 0 01365         PTH     MESR,,6
      00620  3 00010 0 00461         PTH     TB,,CHREEL
                              *
      00621  0500 00 0 01407  TJA    CLA     IDBF+8
      00622  0601 00 0 02324         STO     TAPEID+8
      00623  0020 00 0 00627         TRA     TJAX
                              *
      00624  0500 00 0 02324  TJ     CLA     TAPEID+8      INCREMENT REEL NO.
      00625  0400 00 0 03265         ADD     =1
      00626  0601 00 0 02324         STO     TAPEID+8
1       INITIATE AND TERMINATE DUMP TAPE FILE READS.....M.J.BAILEY..1/31/65      06/01/70 1350.9 PAGE 12

      00627                   TJAX   SKIFNB  TU
      00627  0500 00 0 74443         CLA     NOCHAN                                                           .001
      00630  0402 00 0 03265         SUB     =1                                                               .001
      00631  0100 00 0 00742         TZE     TU                                                               .001
                              *
                       00632  TK     SYN     *             (MOVED UMOUNT FOR B.COPY UP)
                              *
      00632  0074 00 4 00012  TL     TSX     MOUNT,4       MOUNT NEW 'B' REEL
 TD   00633  3 00000 0 03266         TXH     =2
 TD   00634  3 00000 0 74417         TXH     BUN
      00635  2 01270 0 01260         TIX     MRB,,LMRB
      00636  0774 00 2 00003         AXT     3,2
      00637  0074 00 4 00006  TM     TSX     VERIFY,4      CHECK I/O SYSTEM LABEL
 TD   00640  3 00000 0 74417         TXH     BUN
      00641  2 01016 0 74412         TIX     LABEL,,L4
 TD   00642  3 00000 0 00645         TXH     TN
 TD   00643  3 00000 0 01014         TXH     ERCODE
      00644  0020 00 0 00667         TRA     TP            SKIP IF O.K.
                              *
      00645  0074 00 4 00016  TN     TSX     $PRNTER,4     VERIFICATION ERROR
      00646  0500 00 0 01014         CLA     ERCODE
      00647  0402 00 0 03267         SUB     =7
      00650  0100 00 0 00652         TZE     TO
      00651  2 00001 2 00637         TIX     TM,2,1
      00652  0074 00 4 00013  TO     TSX     UMOUNT,4
 TD   00653  3 00000 0 74417         TXH     BUN
      00654  2 01322 0 01306         TIX     WRB,,LWRB
      00655  0074 00 4 00017  BACK6  TSX     $ASKOPR,4
      00656  3 00006 0 01035         PTH     MESC,,6
      00657  3 00001 0 00632         PTH     TL,,CTINUE
      00660  3 00006 0 01043         PTH     MESD,,6
      00661  3 00003 0 00075         PTH     QUITFL,,CHLDFL
      00662  3 00006 0 01051         PTH     MESE,,6
      00663  3 00002 0 00664         PTH     REST6,,PAUSE
                              *
      00664 -0500 00 0 03271  REST6  CAL     =45
      00665  0074 00 4 00011         TSX     SLEEP,4
      00666  0020 00 0 00655         TRA     BACK6
                              *
      00667  0074 00 4 00010  TP     TSX     OPEN,4
 TD   00670  3 00000 0 01013         TXH     R
 TD   00671  3 00000 0 74422         TXH     BFNA
 TD   00672  3 00000 0 74421         TXH     BFNB
 TD   00673  3 00000 0 03273         TXH     =-0
 TD   00674  3 00000 0 03273         TXH     =-0
 TD   00675  3 00000 0 00763         TXH     TY            ERROR
      00676  0074 00 4 00007         TSX     BUFFER,4
 TD   00677  3 00000 0 74422         TXH     BFNA
 TD   00700  3 00000 0 74421         TXH     BFNB
      00701  2 01015 0 02325         TIX     IB2,,LIB
                              *
      00702  0074 00 4 00004         TSX     RDWAIT,4      CHECK DAEMON I.D. LABEL
 TD   00703  3 00000 0 74422         TXH     BFNA
 TD   00704  3 00000 0 74421         TXH     BFNB
 TD   00705  3 00000 0 03265         TXH     =1
      00706  3 00011 0 01377         TXH     IDBF,,9
1       INITIATE AND TERMINATE DUMP TAPE FILE READS.....M.J.BAILEY..1/31/65      06/01/70 1350.9 PAGE 13

 TD   00707  3 00000 0 00771         TXH     TZ            EOF,ERROR
 TD   00710  3 00000 0 01375         TXH     JK
 TD   00711  3 00000 0 00763         TXH     TY            ERROR
      00712                          CMPWDS  8,IDBF,TAPEID,TR
      00712  0774 00 1 00010         AXT     8,1                                                              .001
      00713 -0500 00 1 01407         CAL     IDBF+8,1                                                         .001
      00714 -0340 00 1 02324         LAS     TAPEID+8,1                                                       .001
      00715  0020 00 0 00722         TRA     TR                                                               .001
      00716  0020 00 0 00720         TRA     *+2                                                              .001
      00717  0020 00 0 00722         TRA     TR                                                               .001
      00720  2 00001 1 00713         TIX     *-5,1,1                                                          .001
      00721  0020 00 0 00726         TRA     TS
      00722                   TR     CLOSE   BFNA,BFNB
      00722  0074 00 4 00014         TSX     CLOSE,4                                                          .001
      00723  3 00000 0 74422         PTH     BFNA                                                             .001
      00724  3 00000 0 74421         PTH     BFNB                                                             .001
      00725  0020 00 0 00652         TRA     TO
                              *
      00726  0500 00 0 01407  TS     CLA     IDBF+8        NOW CHECK REEL NO.
      00727  0402 00 0 02324         SUB     TAPEID+8
      00730  0100 00 0 00742         TZE     TU            SKIP IF REEL O.K.
      00731                          PRLINE  ( POSSIBLE REEL ORDER ERROR ON CHANNEL B.),8
      00731  0074 00 4 00015         TSX     WRFLX,4                                                          .001
      00732  0 00010 0 03221                 ..003,,8                                                         .001
                                     RMT                                                                      .001
                              ..003  BCI     8, POSSIBLE REEL ORDER ERROR ON CHANNEL B.                       .001
                                     RMT                                                                      .001
      00733  0074 00 4 00017  TT     TSX     $ASKOPR,4
      00734  3 00011 0 01354         PTH     MESQ,,9
      00735  3 00001 0 00742         PTH     TU,,CTINUE
      00736  3 00010 0 01365         PTH     MESR,,8
      00737  3 00010 0 00632         PTH     TK,,CHREEL
      00740  3 00006 0 01043         PTH     MESD,,6
      00741  3 00003 0 00075         PTH     QUITFL,,CHLDFL
                              *
      00742  0074 00 4 00002  TU     TSX     ATTACH,4
      00743  3 00000 0 01010         PTH     NM
      00744  3 00000 0 01011         PTH     NM+1
      00745  0534 00 4 00376         LXA     X4,4
      00746  0534 00 3 00377  TV     LXA     X3,3
      00747  0534 00 2 00400         LXA     X2,2
      00750  0534 00 1 00401         LXA     X1,1
      00751  0020 00 4 00004         TRA     4,4           EXIT
                              *
      00752  0074 00 4 00016  TW     TSX     $PRNTER,4
      00753                          PRLINE  ( ERROR AT START OF NEW REEL ON CHANNEL A.),7
      00753  0074 00 4 00015         TSX     WRFLX,4                                                          .001
      00754  0 00007 0 03231                 ..004,,7                                                         .001
                                     RMT                                                                      .001
                              ..004  BCI     7, ERROR AT START OF NEW REEL ON CHANNEL A.                      .001
                                     RMT                                                                      .001
      00755                   TWA    PRM     MESP,9
      00755  0074 00 4 00015         TSX     WRFLX,4                                                          .001
      00756  0 00011 0 01343                 MESP,,9                                                          .001
      00757  0020 00 0 00612         TRA     TI
                              *
1       INITIATE AND TERMINATE DUMP TAPE FILE READS.....M.J.BAILEY..1/31/65      06/01/70 1350.9 PAGE 14

      00760                   TX     PRLINE  ( EOF AT START OF NEW REEL ON CHANNEL A.),7
      00760  0074 00 4 00015         TSX     WRFLX,4                                                          .001
      00761  0 00007 0 03240                 ..005,,7                                                         .001
                                     RMT                                                                      .001
                              ..005  BCI     7, EOF AT START OF NEW REEL ON CHANNEL A.                        .001
                                     RMT                                                                      .001
      00762  0020 00 0 00755         TRA     TWA
                              *
      00763  0074 00 4 00016  TY     TSX     $PRNTER,4
      00764                          PRLINE  ( ERROR AT START OF NEW REEL ON CHANNEL B.),7
      00764  0074 00 4 00015         TSX     WRFLX,4                                                          .001
      00765  0 00007 0 03247                 ..006,,7                                                         .001
                                     RMT                                                                      .001
                              ..006  BCI     7, ERROR AT START OF NEW REEL ON CHANNEL B.                      .001
                                     RMT                                                                      .001
      00766                   TYA    PRM     MESP,9
      00766  0074 00 4 00015         TSX     WRFLX,4                                                          .001
      00767  0 00011 0 01343                 MESP,,9                                                          .001
      00770  0020 00 0 00733         TRA     TT
                              *
      00771                   TZ     PRLINE  ( EOF AT START OF NEW REEL ON CHANNEL B.),7
      00771  0074 00 4 00015         TSX     WRFLX,4                                                          .001
      00772  0 00007 0 03256                 ..007,,7                                                         .001
                                     RMT                                                                      .001
                              ..007  BCI     7, EOF AT START OF NEW REEL ON CHANNEL B.                        .001
                                     RMT                                                                      .001
      00773  0020 00 0 00766         TRA     TYA
                              *
                              * - - - - - - - - - - - - - - - - - - - - -
                              *      CONSTANTS AND VARIABLES
                              * - - - - - - - - - - - - - - - - - - - - -
                              *
      00774                   PBF    BSS     12
      01010                   NM     BSS     2
      01012  0 00000 0 00000  IDERR  PZE
      01013  516060606060     R      BCI     1,R
      01014  0 00000 0 00000  ERCODE PZE
      01015  0 00000 0 00660  LIB    PZE     RECSIZ
      01016  0 00000 0 00004  L4     PZE     4
      01017  0 00000 0 00010  L8     PZE     8
      01020  603133243360     MESA   BCI     8, I.D. RECORD ON 1ST COPY OF TAPE FILE IS UNREAD.
      01030  602551514651     MESB   BCI     5, ERROR OPENING DUMP TAPE FILE.
      01035  606346602346     MESC   BCI     6, TO CONTINUE WITH THIS LOAD FILE,
      01043  606346606462     MESD   BCI     6, TO USE DIFFERENT LOAD FILE, OR
      01051  606346606264     MESE   BCI     6, TO SUSPEND LOADING FOR 1 MIN..
      01057  602545246046     MESF   BCI     8, END OF FILE IN WRONG PLACE ON 1ST TAPE COPY.
      01067  314523465151     WRNGT2 BCI     9,INCORRECT TAPE MOUNTED AS 2ND COPY OF LOAD FILE.
      01100  604743252162            BCI     3, PLEASE REMOVE IT.
      01103  0 00000 0 00014  LWT2   PZE     *-WRNGT2
      01104  604446644563     RMT2   BCI     7, MOUNT ANOTHER TAPE ON THE 2ND CHANNEL.
      01113  0 00000 0 00007  LRMT2  PZE     *-RMT2
      01114  600245246023     BADT2  BCI     8, 2ND COPY OF LOAD FILE UNREAD AFTER 10 TRIES TO
      01124  652551312670            BCI     6,VERIFY ITS I.D.. PLEASE REMOVE IT.
      01132  0 00000 0 00016  LBT2   PZE     *-BADT2
      01133  606445444664     UMA    BCI     6, UNMOUNT TAPE FILE ON MAIN CHANNEL.
      01141  0 00000 0 00006  LUMA   PZE     *-UMA
1       INITIATE AND TERMINATE DUMP TAPE FILE READS.....M.J.BAILEY..1/31/65      06/01/70 1350.9 PAGE 15

      01142  606445444664     UMB    BCI     7, UNMOUNT TAPE FILE ON SECONDARY CHANNEL.
      01151  0 00000 0 00007  LUMB   PZE     *-UMB
      01152  603133243360     MESG   BCI     9, I.D. LABELS ON BOTH COPIES OF NEW LOAD FILE MATCH O.K.
      01163  602464444760     MESH   BCI     7, DUMP TAPE FILE STARTING TO LOAD IS A
      01172  602464444731     MESI   BCI     9, DUMPING ON THIS TAPE FILE BEGAN AT         ON
      01203  604546602631     MESJ   BCI     8, NO FILE CREATED LATER THAN           ON
      01213  603162602464     MESK   BCI     5, IS DUMPED ON THIS TAPE FILE.
      01220  604346212431     MESL   BCI     7, LOADING FINISHED FROM THIS TAPE FILE
      01227  605125444665     UMRA   BCI     7, REMOVE CHANNEL A REEL OF RELOAD FILE.
      01236  0 00000 0 00007  LUMRA  PZE     *-UMRA
      01237  605125444665     UMRB   BCI     7, REMOVE CHANNEL B REEL OF RELOAD FILE.
      01246  0 00000 0 00007  LUMRB  PZE     *-UMRB
      01247  604446644563     MRA    BCI     8, MOUNT ANOTHER REEL OF RELOAD FILE ON CHANNEL A
      01257  0 00000 0 00010  LMRA   PZE     *-MRA
      01260  604446644563     MRB    BCI     8, MOUNT ANOTHER REEL OF RELOAD FILE ON CHANNEL B
      01270  0 00000 0 00010  LMRB   PZE     *-MRB
      01271  606651464527     WRA    BCI     8, WRONG REEL MOUNTED ON CHANNEL A FOR RELOAD, NOT
      01301  602225434645            BCI     4, BELONGING TO THIS SET.
      01305  0 00000 0 00014  LWRA   PZE     *-WRA
      01306  606651464527     WRB    BCI     8, WRONG REEL MOUNTED ON CHANNEL B FOR RELOAD, NOT
      01316  602225434645            BCI     4, BELONGING TO THIS SET.
      01322  0 00000 0 00014  LWRB   PZE     *-WRB
      01323  603126606330     MESM   BCI     8, IF THIS WAS LAST REEL OF THIS RELOAD FILE, OR
      01333  603126606330     MESN   BCI     8, IF THERE IS ANOTHER REEL TO THIS RELOAD FILE
      01343  512525436045     MESP   BCI     9,REEL NO. UNCHECKED, FUTURE REEL NO. ERRORS COULD OCCUR
      01354  606346605125     MESQ   BCI     9, TO RESUME RE-LOADING WITH THIS REEL NEVERTHELESS
      01365  603126607046     MESR   BCI     8, IF YOU WISH TO CHANGE THIS REEL FOR ANOTHER
      01375  0 00000 0 00000  JK     PZE
      01376  0 00000 0 00011  L9     PZE     9
      01377                   IDBF   BSS     9
                       00660  RECSIZ EQU     432
      01410                   IB1    BSS     432
      02270                   WBF    BSS     20
      02314                   TAPEID BSS     9
      02325                   IB2    BSS     432
                              *
                                     INSERT  BCMEQB
                              *
                              *  -  -  -  -  -  -  -  -  -  -  -  -  -  -  -  -  -  -
                              *      COMMON AND EQUIVALENCE FOR SECONDARY STORAGE LOAD
                              *         (TIME-SHARING VERSION)
                              *  -  -  -  -  -  -  -  -  -  -  -  -  -  -  -  -  -  -
                              *
                      074446  DEMKEY BOOL    74446         CORE A LOCATION FOR DAEMON KEY SETTING
                              *
                      000017  BASE   BOOL    17            KEY CODE BASE
                      000001  CTINUE BOOL    1             KEY CODE TO CONTINUE WITH PROGRAM,NO CHANGE
                      000002  PAUSE  BOOL    2             KEY CODE TO WAIT 60 SECS.
                      000003  CHLDFL BOOL    3             KEY CODE TO USE DIFFERENT LOAD FILE
                      000004  STOPLD BOOL    4             KEY CODE TO STOP LOADING, START DUMPING
                      000005  ABANKY BOOL    5             KEY CODE TO ABANDON LOAD TAPE FILE
                      000006  SWCHAN BOOL    6             KEY CODE TO GO FROM 1 OR 2 TO 2 OR 1 CHANS.
                      000007  LSREEL BOOL    7             KEY CODE TO INDICATE LAST REEL OF LOAD FILE
                      000010  CHREEL BOOL    10            KEY CODE TO CORRECT REEL ORDER ERROR
                       77777  NEWCOM EQU     -1            TOP OF MEMORY
                      077461  OLDCOM BOOL    77461         OLD TOP OF COMMON
1       INITIATE AND TERMINATE DUMP TAPE FILE READS.....M.J.BAILEY..1/31/65      06/01/70 1350.9 PAGE 16

                       77462  COMRLC EQU     OLDCOM-NEWCOM RELOCATION FACTOR
                       77777         COMMON  COMRLC        RELOCATE COMMON
                       01554  UF     EQU     32767/2-DEMKEY/2 LENGTH OF USER LIST
                       77777  UFL    COMMON  2*UF          USER FILE LIST  (1ST PARTS OF FILE NAMES)
                       74446         COMMON  1             INSERT DUMMY IF NECESSARY
                       74445         COMMON  1             DEMKEY CELL IN NON-CTSS VERSION
                       74445  KEYVAL COMMON  1
                       74444  ABANTP COMMON  1             ABANDON TAPE FILE INDICATOR
                       74443  NOCHAN COMMON  1             NO. OF CHANNELS BEING READ (1 OR 2)
                       74442  DU     COMMON  1             PROBLEM NO. OF DUMP/LOAD PACKAGE
                       74441  DP     COMMON  1             PROGRAMMER NO. OF DITTO.
                       74440  LFNA   COMMON  1             LOAD TAPE FILE NAME (PART 1)
                       74437  LFNB   COMMON  1              ,,   ,,   ,,   ,,  (PART 2)
                       74423         COMMON  11            DUMPED FILE'S PREAMBLE FROM DUMP TAPE
                       74423  PREAM  COMMON  1             DUMPED FILE'S DUMP TAPE PREAMBLE 1ST WORD
                       74422  BFNA   COMMON  1             CHANNEL B LOAD TAPE FILE NAME (PART 1)
                       74421  BFNB   COMMON  1             CHANNEL B LOAD TAPE FILE NAME (PART 2)
                       74420  AUN    COMMON  1             CHANNEL A UNIT NO.
                       74417  BUN    COMMON  1             CHANNEL B UNIT NO.
                       74416  TEOF   COMMON  1             TAPE EOF INDICATOR/WORD COUNT
                       74412         COMMON  3             LABEL OF TAPE FILE CURRENTLY BEING LOADED
                       74412  LABEL  COMMON  1             LABEL OF TAPE FILE DITTO.   1ST WORD
                       74411  X      COMMON  1             TAPE FILE POINTER
                                     END
                                              REMOTE SEQUENCES
      03205  602545246046     ..001  BCI     6, END OF REEL ON RELOAD TAPE FILE.                              .001
      03213  605125254360     ..002  BCI     6, REEL ORDER ERROR ON CHANNEL A.                                .001
      03221  604746626231     ..003  BCI     8, POSSIBLE REEL ORDER ERROR ON CHANNEL B.                       .001
      03231  602551514651     ..004  BCI     7, ERROR AT START OF NEW REEL ON CHANNEL A.                      .001
      03240  602546266021     ..005  BCI     7, EOF AT START OF NEW REEL ON CHANNEL A.                        .001
      03247  602551514651     ..006  BCI     7, ERROR AT START OF NEW REEL ON CHANNEL B.                      .001
      03256  602546266021     ..007  BCI     7, EOF AT START OF NEW REEL ON CHANNEL B.                        .001

1       INITIATE AND TERMINATE DUMP TAPE FILE READS.....M.J.BAILEY..1/31/65      06/01/70 1350.9 PAGE 1
                        POST PROCESSOR ASSEMBLY DATA

       74410 IS THE LAST LOCATION NOT USED BY THIS PROGRAM
       3276 IS THE FIRST LOCATION NOT USED BY THIS PROGRAM

0REFERENCES TO DEFINED SYMBOLS
       1013      R   101,  213,  546,  670
      74411      X   114,  121,  137,  141,  226,  233,  244,  246,  375, 3205
      74441     DP   460, 3205
      74442     DU   457, 3205
         77     IA    31,   40,  170
        116     IB   142
        136     IC   125
        162     ID   106
        200     IE   123
        206     IG   135,  161,  300
        212     IH   275
        230     II   247
        243     IJ   237
        272     IK   220
        275     IL   317
        310     IM   235
        320     IO   241
        330     IP   323,  325
        337     IQ   327
        342     IR   242,  262
        350     IS   210,  341,  343
        374     IT   364
       1375     JK   566,  710
       1016     L4   517,  641
       1017     L8   234
       1376     L9   564
       1010     NM   455,  743,  744
        461     TB   620
        510     TD   535
        515     TE   527
        523     TF   520
        530     TG   526,  603
        545     TH   522
        612     TI   757
        624     TJ   607
        632     TK   632,  737
        632     TL   657
        637     TM   651
        645     TN   642
        652     TO   650,  725
        667     TP   644
        722     TR   715,  717
        726     TS   721
        733     TT   770
        742     TU   631,  730,  735
        746     TV   453
        752     TW   553,  567
        760     TX   565
        763     TY   675,  711
        771     TZ   707
1       INITIATE AND TERMINATE DUMP TAPE FILE READS.....M.J.BAILEY..1/31/65      06/01/70 1350.9 PAGE 2
                        POST PROCESSOR ASSEMBLY DATA

       1554     UF  3205
        401     X1    22,  437,  750
        400     X2    23,  440,  747
        377     X3    24,   76,  441,  746
        376     X4    25,   75,  442,  452,  745
      74420    AUN   430,  502,  512,  516,  531, 3205
      74417    BUN    34,   47,   65,   72,  433,  505,  634,  640,  653, 3205
        100    IAA   165
       1410    IB1   112,  557
       2325    IB2   224,  701
        165    IDA   205
       1015    LIB   112,  224,  557,  701
       1247    MRA   513, 1257
       1260    MRB   635, 1270
        774    PBF
        454    TB1   451
        600    THA   573,  575
        604    THB   577
        621    TJA   614
        755    TWA   762
        435    TX4   403
        766    TYA   773
      77777    UFL  3205
       1133    UMA   431, 1141
       1142    UMB   434, 1151
       2270    WBF   122,  131,  234,  321,  322,  345,  346,  353,  355,  357,  363
       1271    WRA   532, 1305
       1306    WRB   654, 1322
        145   BACK   156
         17   BASE  3205
      74422   BFNA   214,  222,  231,  315,  334,  420,  424,  472,  476,  671,  677,  703,  723, 3205
      74421   BFNB   215,  223,  232,  316,  335,  421,  425,  473,  477,  672,  700,  704,  724, 3205
         63   CONT    53
        452   EOTF   447
       1377   IDBF   564,  571,  604,  621,  706,  713,  726
       1132   LBT2    73
      74440   LFNA   102,  110,  117,  203,  331,  410,  414,  462,  466,  547,  555,  561,  601, 3205
      74437   LFNB   103,  111,  120,  204,  332,  411,  415,  463,  467,  550,  556,  562,  602, 3205
       1257   LMRA   513
       1270   LMRB   635
       1141   LUMA   431
       1151   LUMB   434
       1305   LWRA   532
       1322   LWRB   654
       1103   LWT2    50
       1020   MESA   144,  251,  253,  255
       1030   MESB   163,  273
       1035   MESC    52,  146,  167,  261,  277,  534,  656
       1043   MESD    54,  150,  171,  263,  301,  536,  615,  660,  740
       1051   MESE    56,  152,  173,  265,  303,  540,  662
       1057   MESF   201,  311,  313
       1152   MESG   340
       1163   MESH   351
       1172   MESI   356,  360,  362
       1203   MESJ   366,  367,  371
1       INITIATE AND TERMINATE DUMP TAPE FILE READS.....M.J.BAILEY..1/31/65      06/01/70 1350.9 PAGE 3
                        POST PROCESSOR ASSEMBLY DATA

       1213   MESK   373
       1220   MESL   406
       1323   MESM   446
       1333   MESN   450
       1343   MESP   756,  767
       1354   MESQ   613,  734
       1365   MESR   617,  736
         10   OPEN   100,  212,  545,  667
         60   REST    57
       1104   RMT2    66, 1113
      74416   TEOF   124,  236, 3205
        627   TJAX   623
       1227   UMRA   503, 1236
       1237   UMRB   506, 1246
         75  ABEXT   537,  616
        166  BACK1   177
        260  BACK2   271
        276  BACK3   307
        533  BACK5   544
        655  BACK6   666
       1114  BADT2    73, 1132
         14  CLOSE   202,  314,  330,  333,  413,  423,  465,  475,  600,  722
        157  CONT1   147
          5  FWAIT   407,  417,  461,  471
       1012  IDERR   127,  160,  240,  256,  342
          1  IOBDT   365
       3205  ..001   444
       3213  ..002   611
       3221  ..003   732
       3231  ..004   754
       3240  ..005   761
       3247  ..006   765
       3256  ..007   772
      74412  LABEL    35,  517,  641, 3205
       1113  LRMT2    66
       1236  LUMRA   503
       1246  LUMRB   506
         12  MOUNT    63,  510,  632
          2  PAUSE    57,  153,  174,  266,  304,  541,  663, 3205
      74423  PREAM  3205
        154  REST1   153
        175  REST2   174
        267  REST3   266
        305  REST4   304
        542  REST5   541
        664  REST6   663
         11  SLEEP    61,  155,  176,  270,  306,  543,  665
         15  WRFLX   143,  162,  200,  254,  272,  312,  337,  350,  352,  361,  370,  372,  405,  443,  610,  731,  753
                     755,  760,  764,  766,  771
          5 ABANKY  3205
      74444 ABANTP  3205
         17 ASKOPR    51,  145,  166,  260,  276,  445,  533,  612,  655,  733
          2 ATTACH   456,  742
          3 ATTNAM   454
          7 BUFFER   107,  221,  554,  676
1       INITIATE AND TERMINATE DUMP TAPE FILE READS.....M.J.BAILEY..1/31/65      06/01/70 1350.9 PAGE 4
                        POST PROCESSOR ASSEMBLY DATA

         33 CHCKBA    45,   67,   70
         41 CHCKBB    36
         51 CHCKBC    62,   74
         70 CHCKBD    44
          3 CHLDFL    55,  151,  172,  264,  302,  537,  616,  661,  741, 3205
         10 CHREEL   620,  737, 3205
      77462 COMRLC  3205
          1 CTINUE    53,  147,  170,  262,  300,  451,  535,  614,  657,  735, 3205
      74446 DEMKEY  3205
       1014 ERCODE    37,   42,  521,  524,  643,  646
          0 GETLSG    26,  126,  354,  404
         22 INITTF     0
      74445 KEYVAL  3205
          7 LSREEL   447, 3205
      77777 NEWCOM  3205
      74443 NOCHAN    27,  206,  627, 3205
      77461 OLDCOM  3205
         16 PRNTER    41,  136,  164,  243,  274,  523,  645,  752,  763
         75 QUITFL    55,   75,  151,  172,  257,  264,  302,  661,  741
          4 RDWAIT   116,  230,  560,  702
        660 RECSIZ   115,  227,  374, 1015, 1410
          4 STOPLD  3205
          6 SWCHAN  3205
       2314 TAPEID   132,  134,  572,  606,  622,  624,  626,  714,  727
        403 TERMTF     0
        437 TSTEOF     0
         13 UMOUNT    46,   71,  427,  432,  501,  504,  530,  652
          6 VERIFY    33,  515,  637
       1067 WRNGT2    50, 1103
         46 WRONGB   336

0 NO ERROR IN ABOVE ASSEMBLY.
1      M1416 3845  PETER R. BOS ..... GETLSG FOR FOREGROUND RELOADER .....       06/01/70 1356.5 PAGE 1


                                     PCC     ON
                                     NOLNK
                       00003         ENTRY   GETLSG        GET OPERATOR SIGNALS (FROM CONSOLE)
                                     LBL     FGSG
                                     PCC     OFF

                                     EXTERN  RDCOM,ZEL,BCDEC


        TRANSFER VECTOR
      00000  512423464460     RDCOM
      00001  712543606060     ZEL
      00002  222324252360     BCDEC

      00003  0634 00 4 00020  GETLSG SXA     GSX4,4        SAVE LINKAGE
      00004  0074 00 4 00000         TSX     RDCOM,4       PICK UP LINE TYPED, PARSED
      00005  3 00002 0 74445         PAR     KEYVAL,,2     ..
      00006  3 00000 0 00020         PAR     GSX4          .. EMPTY RETURN
      00007  0074 00 4 00002         TSX     BCDEC,4       CONVERT TO DECIMAL
      00010  3 00000 0 74445         PAR     KEYVAL        ..
      00011  0601 00 0 74445         STO     KEYVAL        .. PUT AWAY
      00012  0774 00 4 00002         AXT     TBSIZ,4       KEY TABLE SIZE
      00013 -0500 00 4 00033         CAL     KEYTB+TBSIZ,4 PICK UP TABLE ENTRY
      00014  0771 00 0 00022         ARS     18            GET KEY CODE
      00015  0402 00 0 74445         SUB     KEYVAL        IS THIS IT.Q
      00016  0100 60 4 00033         TZE*    KEYTB+TBSIZ,4 .. YES
      00017  2 00001 4 00013         TIX     *-4,4,1       ..
      00020  0774 00 4 00000  GSX4   AXT     -,4           RESTORE X4
      00021  0020 00 4 00001         TRA     1,4           RETURN

      00022 -0625 00 0 74444  ABAN   STL     ABANTP        HERE TO ABANDON TAPE
      00023  0020 00 0 00020         TRA     GSX4          RETURN

      00024  0534 00 4 74443  CHAN   LXA     NOCHAN,4      HERE TO SWITCH TAPE CHANNELS
      00025  1 00001 4 00026         TXI     *+1,4,1       ..
      00026  2 00002 4 00026         TIX     *,4,2         ..
      00027  0634 00 4 74443         SXA     NOCHAN,4      ..
      00030  0020 00 0 00020         TRA     GSX4          RETURN

                       00031  KEYTB  SYN     *
      00031  0 00005 0 00022         PZE     ABAN,,ABANKY
      00032  0 00006 0 00024         PZE     CHAN,,SWCHAN
                       00002  TBSIZ  EQU     *-KEYTB

                                     INSERT  BCMEQB
                              *
                              *  -  -  -  -  -  -  -  -  -  -  -  -  -  -  -  -  -  -
                              *      COMMON AND EQUIVALENCE FOR SECONDARY STORAGE LOAD
                              *         (TIME-SHARING VERSION)
                              *  -  -  -  -  -  -  -  -  -  -  -  -  -  -  -  -  -  -
                              *
                      074446  DEMKEY BOOL    74446         CORE A LOCATION FOR DAEMON KEY SETTING
                              *
1      M1416 3845  PETER R. BOS ..... GETLSG FOR FOREGROUND RELOADER .....       06/01/70 1356.5 PAGE 2

                      000017  BASE   BOOL    17            KEY CODE BASE
                      000001  CTINUE BOOL    1             KEY CODE TO CONTINUE WITH PROGRAM,NO CHANGE
                      000002  PAUSE  BOOL    2             KEY CODE TO WAIT 60 SECS.
                      000003  CHLDFL BOOL    3             KEY CODE TO USE DIFFERENT LOAD FILE
                      000004  STOPLD BOOL    4             KEY CODE TO STOP LOADING, START DUMPING
                      000005  ABANKY BOOL    5             KEY CODE TO ABANDON LOAD TAPE FILE
                      000006  SWCHAN BOOL    6             KEY CODE TO GO FROM 1 OR 2 TO 2 OR 1 CHANS.
                      000007  LSREEL BOOL    7             KEY CODE TO INDICATE LAST REEL OF LOAD FILE
                      000010  CHREEL BOOL    10            KEY CODE TO CORRECT REEL ORDER ERROR
                       77777  NEWCOM EQU     -1            TOP OF MEMORY
                      077461  OLDCOM BOOL    77461         OLD TOP OF COMMON
                       77462  COMRLC EQU     OLDCOM-NEWCOM RELOCATION FACTOR
                       77777         COMMON  COMRLC        RELOCATE COMMON
                       01554  UF     EQU     32767/2-DEMKEY/2 LENGTH OF USER LIST
                       77777  UFL    COMMON  2*UF          USER FILE LIST  (1ST PARTS OF FILE NAMES)
                       74446         COMMON  1             INSERT DUMMY IF NECESSARY
                       74445         COMMON  1             DEMKEY CELL IN NON-CTSS VERSION
                       74445  KEYVAL COMMON  1
                       74444  ABANTP COMMON  1             ABANDON TAPE FILE INDICATOR
                       74443  NOCHAN COMMON  1             NO. OF CHANNELS BEING READ (1 OR 2)
                       74442  DU     COMMON  1             PROBLEM NO. OF DUMP/LOAD PACKAGE
                       74441  DP     COMMON  1             PROGRAMMER NO. OF DITTO.
                       74440  LFNA   COMMON  1             LOAD TAPE FILE NAME (PART 1)
                       74437  LFNB   COMMON  1              ,,   ,,   ,,   ,,  (PART 2)
                       74423         COMMON  11            DUMPED FILE'S PREAMBLE FROM DUMP TAPE
                       74423  PREAM  COMMON  1             DUMPED FILE'S DUMP TAPE PREAMBLE 1ST WORD
                       74422  BFNA   COMMON  1             CHANNEL B LOAD TAPE FILE NAME (PART 1)
                       74421  BFNB   COMMON  1             CHANNEL B LOAD TAPE FILE NAME (PART 2)
                       74420  AUN    COMMON  1             CHANNEL A UNIT NO.
                       74417  BUN    COMMON  1             CHANNEL B UNIT NO.
                       74416  TEOF   COMMON  1             TAPE EOF INDICATOR/WORD COUNT
                       74412         COMMON  3             LABEL OF TAPE FILE CURRENTLY BEING LOADED
                       74412  LABEL  COMMON  1             LABEL OF TAPE FILE DITTO.   1ST WORD
                       74411  X      COMMON  1             TAPE FILE POINTER
                                     END
1      M1416 3845  PETER R. BOS ..... GETLSG FOR FOREGROUND RELOADER .....       06/01/70 1356.5 PAGE 1
                        POST PROCESSOR ASSEMBLY DATA

       74410 IS THE LAST LOCATION NOT USED BY THIS PROGRAM
         33 IS THE FIRST LOCATION NOT USED BY THIS PROGRAM

0REFERENCES TO DEFINED SYMBOLS
      74411      X    33
      74441     DP    33
      74442     DU    33
       1554     UF    33
      74420    AUN    33
      74417    BUN    33
      77777    UFL    33
          1    ZEL
         22   ABAN    31
         17   BASE    33
      74422   BFNA    33
      74421   BFNB    33
         24   CHAN    32
         20   GSX4     3,    6,   23,   30
      74440   LFNA    33
      74437   LFNB    33
      74416   TEOF    33
          2  BCDEC     7
         31  KEYTB    13,   16,   31,   33
      74412  LABEL    33
          2  PAUSE    33
      74423  PREAM    33
          0  RDCOM     4
          2  TBSIZ    12,   13,   16,   33
          5 ABANKY    31,   33
      74444 ABANTP    22,   33
          3 CHLDFL    33
         10 CHREEL    33
      77462 COMRLC    33
          1 CTINUE    33
      74446 DEMKEY    33
          3 GETLSG     0
      74445 KEYVAL     5,   10,   11,   15,   33
          7 LSREEL    33
      77777 NEWCOM    33
      74443 NOCHAN    24,   27,   33
      77461 OLDCOM    33
          4 STOPLD    33
          6 SWCHAN    32,   33

0 NO ERROR IN ABOVE ASSEMBLY.
1      M1416 3845  PETER R. BOS .... DUMMY ASKOPR FOR FOREGROUND RELOADER ....   06/01/70 1356.6 PAGE 1


                                     PCC     ON
                       00006         ENTRY   ASKOPR        ASK OPERATOR QUESTION
                                     LBL     FGAS
                                     PCC     OFF

                                     EXTERN  RSSRB,PRCODE,WAIT,GETLSG


        TRANSFER VECTOR
      00000  516262512260     RSSRB
      00001  475123462425     PRCODE
      00002  662131636060     WAIT
      00003  272563436227     GETLSG

        LINKAGE DIRECTOR
      00004  000000000000
      00005  216242464751

      00006  0634 00 4 00053  ASKOPR SXA     ASKX4,4       SAVE XRS.
      00007  0634 00 2 00054         SXA     ASKX2,2       ..
      00010  0441 00 4 00001         LDI     1,4           SEE IF NULL ARG
      00011 -0056 00  400000         LNT     400000        ..
      00012 -0056 00  300000         LNT     300000        ..
      00013  0020 00 4 00001         TRA     1,4           .. YES, RETURN
      00014  0074 00 4 00000         TSX     RSSRB,4       RESET ANY INPUT LINES
      00015  3 00000 0 00000         PAR     0             ..

      00016  0534 00 2 00053  PMSG   LXA     ASKX4,2       HERE TO PRINT MESSAGE TO OPERATOR
      00017  0441 00 2 00001  PLOOP  LDI     1,2           HERE FOR LINE IN MESSAGE
      00020 -0056 00  400000         LNT     400000        CHECK VALID ARG
      00021 -0056 00  300000         LNT     300000        ..
      00022  0020 00 0 00033         TRA     ZZZ           NO, SKIP TO SLEEP OR EXIT
      00023  0604 00 0 00031         STI     PRM           YES, SAVE MESSAGE POINTER
      00024 -0500 00 2 00002         CAL     2,2           GET TRANSFER ADDRESS
      00025 -0734 00 4 00000         PDX     ,4            ..
      00026  0634 00 4 00030         SXA     PRC,4         SAVE
      00027  0074 00 4 00001         TSX     PRCODE,4      PRINT LINE TO OPERATOR
      00030  3 00000 0 00000  PRC    PAR     -             ..
      00031  3 00000 0 00000  PRM    PAR     -,,-          ..
      00032  1 77776 2 00017         TXI     PLOOP,2,-2    POINT AT NEXT ARG, REPEAT

      00033  0074 00 4 00002  ZZZ    TSX     WAIT,4        SLEEP, WAIT FOR REPLY
      00034  3 00000 0 00057         PAR     =1            .. INPUT WAIT
      00035  3 00000 0 00056         PAR     =0            ..
      00036  0074 00 4 00003         TSX     GETLSG,4      PICK UP OPERATOR SIGNAL
      00037  0534 00 2 00053         LXA     ASKX4,2       RELOAD X2

      00040  0441 00 2 00001  CLOOP  LDI     1,2           GET ARG WORD
      00041 -0056 00  400000         LNT     400000        WAS THAT LAST ONE
      00042 -0056 00  300000         LNT     300000        ..
      00043  0020 00 0 00016         TRA     PMSG          .. YES, WRONG CODE GIVEN, ASK AGAIN
      00044 -0500 00 2 00002         CAL     2,2           NO, TRY THIS ONE
      00045  0621 00 0 00055         STA     TRA           .. TRANSFER ADDRESS
1      M1416 3845  PETER R. BOS .... DUMMY ASKOPR FOR FOREGROUND RELOADER ....   06/01/70 1356.6 PAGE 2

      00046 -0734 00 4 00000         PDX     ,4            .. CODE
      00047  0754 00 4 00000         PXA     ,4            ..
      00050  0402 00 0 74445         SUB     KEYVAL        RESPONSE GIVEN
      00051  0100 00 0 00053         TZE     FOUND         MATCH, SKIP
      00052  1 77776 2 00040         TXI     CLOOP,2,-2    NO MATCH, REPEAT

                       00053  FOUND  SYN     *
      00053  0774 00 4 00000  ASKX4  AXT     -,4           RESTORE XRS
      00054  0774 00 2 00000  ASKX2  AXT     -,2           ..
      00055  0020 00 0 00000  TRA    TRA     -             SKIP TO CALLER PROGRAM

                                     INSERT  BCMEQB
                              *
                              *  -  -  -  -  -  -  -  -  -  -  -  -  -  -  -  -  -  -
                              *      COMMON AND EQUIVALENCE FOR SECONDARY STORAGE LOAD
                              *         (TIME-SHARING VERSION)
                              *  -  -  -  -  -  -  -  -  -  -  -  -  -  -  -  -  -  -
                              *
                      074446  DEMKEY BOOL    74446         CORE A LOCATION FOR DAEMON KEY SETTING
                              *
                      000017  BASE   BOOL    17            KEY CODE BASE
                      000001  CTINUE BOOL    1             KEY CODE TO CONTINUE WITH PROGRAM,NO CHANGE
                      000002  PAUSE  BOOL    2             KEY CODE TO WAIT 60 SECS.
                      000003  CHLDFL BOOL    3             KEY CODE TO USE DIFFERENT LOAD FILE
                      000004  STOPLD BOOL    4             KEY CODE TO STOP LOADING, START DUMPING
                      000005  ABANKY BOOL    5             KEY CODE TO ABANDON LOAD TAPE FILE
                      000006  SWCHAN BOOL    6             KEY CODE TO GO FROM 1 OR 2 TO 2 OR 1 CHANS.
                      000007  LSREEL BOOL    7             KEY CODE TO INDICATE LAST REEL OF LOAD FILE
                      000010  CHREEL BOOL    10            KEY CODE TO CORRECT REEL ORDER ERROR
                       77777  NEWCOM EQU     -1            TOP OF MEMORY
                      077461  OLDCOM BOOL    77461         OLD TOP OF COMMON
                       77462  COMRLC EQU     OLDCOM-NEWCOM RELOCATION FACTOR
                       77777         COMMON  COMRLC        RELOCATE COMMON
                       01554  UF     EQU     32767/2-DEMKEY/2 LENGTH OF USER LIST
                       77777  UFL    COMMON  2*UF          USER FILE LIST  (1ST PARTS OF FILE NAMES)
                       74446         COMMON  1             INSERT DUMMY IF NECESSARY
                       74445         COMMON  1             DEMKEY CELL IN NON-CTSS VERSION
                       74445  KEYVAL COMMON  1
                       74444  ABANTP COMMON  1             ABANDON TAPE FILE INDICATOR
                       74443  NOCHAN COMMON  1             NO. OF CHANNELS BEING READ (1 OR 2)
                       74442  DU     COMMON  1             PROBLEM NO. OF DUMP/LOAD PACKAGE
                       74441  DP     COMMON  1             PROGRAMMER NO. OF DITTO.
                       74440  LFNA   COMMON  1             LOAD TAPE FILE NAME (PART 1)
                       74437  LFNB   COMMON  1              ,,   ,,   ,,   ,,  (PART 2)
                       74423         COMMON  11            DUMPED FILE'S PREAMBLE FROM DUMP TAPE
                       74423  PREAM  COMMON  1             DUMPED FILE'S DUMP TAPE PREAMBLE 1ST WORD
                       74422  BFNA   COMMON  1             CHANNEL B LOAD TAPE FILE NAME (PART 1)
                       74421  BFNB   COMMON  1             CHANNEL B LOAD TAPE FILE NAME (PART 2)
                       74420  AUN    COMMON  1             CHANNEL A UNIT NO.
                       74417  BUN    COMMON  1             CHANNEL B UNIT NO.
                       74416  TEOF   COMMON  1             TAPE EOF INDICATOR/WORD COUNT
                       74412         COMMON  3             LABEL OF TAPE FILE CURRENTLY BEING LOADED
                       74412  LABEL  COMMON  1             LABEL OF TAPE FILE DITTO.   1ST WORD
                       74411  X      COMMON  1             TAPE FILE POINTER
                                     END
1      M1416 3845  PETER R. BOS .... DUMMY ASKOPR FOR FOREGROUND RELOADER ....   06/01/70 1356.6 PAGE 3

        LITERALS
      00056  000000000000
      00057  000000000001
1      M1416 3845  PETER R. BOS .... DUMMY ASKOPR FOR FOREGROUND RELOADER ....   06/01/70 1356.6 PAGE 1
                        POST PROCESSOR ASSEMBLY DATA

       74410 IS THE LAST LOCATION NOT USED BY THIS PROGRAM
         60 IS THE FIRST LOCATION NOT USED BY THIS PROGRAM

0REFERENCES TO DEFINED SYMBOLS
      74411      X    56
      74441     DP    56
      74442     DU    56
       1554     UF    56
      74420    AUN    56
      74417    BUN    56
         30    PRC    26
         31    PRM    23
         55    TRA    45
      77777    UFL    56
         33    ZZZ    22
         17   BASE    56
      74422   BFNA    56
      74421   BFNB    56
      74440   LFNA    56
      74437   LFNB    56
         16   PMSG    43
      74416   TEOF    56
          2   WAIT    33
         54  ASKX2     7
         53  ASKX4     6,   16,   37
         40  CLOOP    52
         53  FOUND    51,   53
      74412  LABEL    56
          2  PAUSE    56
         17  PLOOP    32
      74423  PREAM    56
          0  RSSRB    14
          5 ABANKY    56
      74444 ABANTP    56
          6 ASKOPR     0
          3 CHLDFL    56
         10 CHREEL    56
      77462 COMRLC    56
          1 CTINUE    56
      74446 DEMKEY    56
          3 GETLSG    36
      74445 KEYVAL    50,   56
          7 LSREEL    56
      77777 NEWCOM    56
      74443 NOCHAN    56
      77461 OLDCOM    56
          1 PRCODE    27
          4 STOPLD    56
          6 SWCHAN    56

0 NO ERROR IN ABOVE ASSEMBLY.
1                                                                                06/01/70 1356.7 PAGE 1

                       00004         ENTRY   GETA
                       00005         ENTRY   NGETA
                                     EXTERN  GETLOC,SETLOC

        TRANSFER VECTOR
      00000  272563434623     GETLOC
      00001  622563434623     SETLOC

        LINKAGE DIRECTOR
      00002  000000000000
      00003  272563216060

      00004  0600 00 0 00067  GETA   STZ     NINDC
      00005 -0600 00 0 00072  NGETA  STQ     TMPMQ
      00006  0601 00 0 00071         STO     TMPAC
      00007  0602 00 0 00073         SLW     TMPACL
      00010  0634 00 7 00062         SXA     NGX7,7
      00011  0634 00 4 00063         SXA     NGX4,4
      00012  0604 00 0 00066         STI     INDIC
      00013  0441 00 7 00001         LDI     1,7
      00014  0520 00 0 00067         ZET     NINDC
      00015  0020 00 0 00031         TRA     GETL          DON'T COMPUTE EFFECTIVE ADDRESS
      00016 -0625 00 0 00067         STL     NINDC
      00017 -0046 00 0 00000         PIA
      00020  0074 00 7 00074  CKRL1  TSX     GETEFA,7      GET EFFECTIVE ADDRESS
      00021 -0056 00  000060         LNT     60            IS THERE INDIRECT ADDRESS
      00022  0020 00 0 00027         TRA     CKRL2         NO
      00023 -0057 00  000077         RIL     77            TURN OFF INDIRECT ADDRESS BITS
      00024  0737 00 7 00000         PAC     0,7
      00025 -0500 00 7 00000         CAL     0,7
      00026  0020 00 0 00020         TRA     CKRL1         COMPUTE FINAL ADDRESS
      00027  0057 00  777777  CKRL2  RIR     777777        FINAL ADDRESS IN AC NOW
      00030  0043 00 0 00000         OAI                   OP CODE IN INDICATOR
      00031 -0046 00 0 00000  GETL   PIA                   INSTRUCTION IN AC
      00032  0621 00 0 00055         STA     GA2
      00033  0621 00 0 00040         STA     GA            SET ADDRESS TO GET FROM CORE A
      00034  0622 00 0 00047         STD     XGA           SET OP CODE OF INSTRUCTION
      00035  0630 00 0 00047         STP     XGA
      00036  0625 00 0 00047         STT     XGA
      00037  0074 00 4 00000         TSX     GETLOC,4
      00040  0 00000 0 00000  GA     PZE     **
      00041  0602 00 0 00070         SLW     GTMP          WORD FROM CORE A INTO GTMP
      00042 -0500 00 0 00073         CAL     TMPACL
      00043  0560 00 0 00071         LDQ     TMPAC
      00044  0763 00 0 00000         LLS     0
      00045  0560 00 0 00072         LDQ     TMPMQ
      00046  0441 00 0 00066         LDI     INDIC
      00047  0 00000 0 00070  XGA    ***     GTMP          EXECUTE INSTRUCTION
      00050  0441 00 0 00047         LDI     XGA
      00051 -0056 00  060000         LNT     060000        IS THIS A STORE-TYPE INSTRUCTION
      00052  0020 00 0 00062         TRA     NGX7          NO
      00053 -0500 00 0 00070         CAL     GTMP
      00054  0074 00 4 00001         TSX     SETLOC,4
      00055  0 00000 0 00000  GA2    PZE     **
      00056 -0500 00 0 00073         CAL     TMPACL
      00057  0560 00 0 00071         LDQ     TMPAC
1                                                                                06/01/70 1356.7 PAGE 2

      00060  0763 00 0 00000         LLS     0
      00061  0560 00 0 00072         LDQ     TMPMQ
      00062  0774 00 7 00000  NGX7   AXT     **,7
      00063  0774 00 4 00000  NGX4   AXT     **,4
      00064  0441 00 0 00066         LDI     INDIC
      00065  0020 00 7 00002         TRA     2,7
      00066  0 00000 0 00000  INDIC  PZE     0
      00067 +000000777777     NINDC  OCT     777777
      00070  0 00000 0 00000  GTMP   PZE     0
      00071  0 00000 0 00000  TMPAC  PZE     0
      00072  0 00000 0 00000  TMPMQ  PZE     0
      00073  0 00000 0 00000  TMPACL PZE     0
      00074  0634 00 7 00102  GETEFA SXA     GETF7,7
      00075  0625 00 0 00077         STT     *+2           TAG
      00076  0734 00 7 00000         PAX     ,7            PTR
      00077 -0636 00 0 00100         SCD     *+1,**        -C(TAG)
      00100  1 00000 7 00101         TXI     *+1,7,**      PTH-C(TAG)
      00101  0754 00 7 00000         PXA     ,7            INTO AC
      00102  0774 00 7 00000  GETF7  AXT     **,7
      00103  0020 00 7 00001         TRA     1,7
                                     END
1                                                                                06/01/70 1356.7 PAGE 1
                        POST PROCESSOR ASSEMBLY DATA

        104 IS THE FIRST LOCATION NOT USED BY THIS PROGRAM

0REFERENCES TO DEFINED SYMBOLS
         40     GA    33
         55    GA2    32
         47    XGA    34,   35,   36,   50
          4   GETA     0
         31   GETL    15
         70   GTMP    41,   47,   53
         63   NGX4    11
         62   NGX7    10,   52
         20  CKRL1    26
         27  CKRL2    22
        102  GETF7    74
         66  INDIC    12,   46,   64
          5  NGETA     0
         67  NINDC     4,   14,   16
         71  TMPAC     6,   43,   57
         72  TMPMQ     5,   45,   61
         74 GETEFA    20
          0 GETLOC    37
          1 SETLOC    54
         73 TMPACL     7,   42,   56

0 NO ERROR IN ABOVE ASSEMBLY.
1     MAD PROGRAM LISTING ... ... ...                 FILE   NLREC   MAD            06/01/70    1356.8
-
                  EXTERNAL FUNCTION (NRECS,IRC,LRC,LTRC,LPREAM,LPHYS,NFLR,NLAST                   *001  000001
                1 )                                                                               *001  000002
                  ENTRY TO    NLREC .                                                             *002  000003
                  NWDS=(NRECS-1)*IRC+LRC                                                          *003  000004
                  NFLR=NWDS/LTRC                                                                  *004  000005
                  NLEFT=XMOD  .(    NWDS,LTRC)                                                    *005  000006
                  WHENEVER (NLEFT) .LE. 0, TRANSFER TO QQ0004                                     *006  000007
                  MLPH = NLEFT + LPREAM                                                           *007  000017
                  REM = MLPH - (MLPH/LPHYS)*LPHYS                                                 *008  000027
                  NLAST=(MLPH/LPHYS+(REM/REM))*LPHYS                                              *009  000037
                  TRANSFER TO QQ0005                                                              *010  000047
      QQ0004      NLAST=0                                                                         *011  000057
      QQ0005      FUNCTION RETURN                                                                 *012  000067
                  INTEGER     NWDS  ,     NRECS ,     IRC   ,     LRC                             *013  000077
                  INTEGER     NFLR  ,     LTRC  ,     NLEFT ,     XMOD                            *014  000087
                  INTEGER     NLAST ,     LPREAM,     LPHYS                                       *015  000097
                  INTEGER   MLPH,     REM                                                         *016  000107
                  END OF FUNCTION                                                                 *017  000117
1MAD PROGRAM,TYPE NOV 1963      (ALL NUMBERS ARE OCTAL)
0TOTAL LOCATIONS   00143 TRANSFER VECTOR LENGTH  00002 PROGRAM BEGINS    00014
0 PROGRAM IS AN EXTERNAL FUNCTION.   THE FOLLOWING ARE ENTRIES
      NLREC  00015   0
0VARIABLE STORAGE (A=ARRAY,C=COMMON,E=ERASABLE,DIGIT=MODE)
      MLPH   00005   1        NWDS   00007   1        QQ0004 00003   4        QQ0005 00004   4        REM    00010   1
      NLEFT  00006   1
0FUNCTION DICTIONARY
      EXIT   00000   0        XMOD   00001   1
0ABSOLUTE CONSTANTS
 00011 +000000000000     00012 +000000000001     00013 +233000000000
0STATEMENT DICTIONARY
 00003 TXL -300101000077       00004 TXL -300102000101
0PROGRAM
                 EXTERNAL FUNCTION (NRECS,IRC,LRC,LTRC,LPREAM,LPHYS,NFLR,NLAST      001   000001
                1)                                                                  001   000002
                 ENTRY TO    NLREC .                                                002   000003
 00014 TRA +0 02000 0 00017    00015 SXA +0 63400 2 00103    00016 TSX +0 07400 2 00103
                 NWDS=(NRECS-1)*IRC+LRC                                             003   000004
 00017 CLA +0 50000 0 00024    00020 SUB +0 40200 0 00012    00021 XCA +0 13100 0 00000    00022 MPY +0 20000 0 00024
 00023 XCA +0 13100 0 00000    00024 ADD +0 40000 0 00024    00025 STO +0 60100 0 00007
                 NFLR=NWDS/LTRC                                                     004   000005
 00026 LDQ +0 56000 0 00007    00027 PXD -0 75400 0 00000    00030 LLS +0 76300 0 00000    00031 DVP +0 22100 0 00024
 00032 STQ -0 60000 0 00024
                 NLEFT=XMOD  .(    NWDS,LTRC)                                       005   000006
 00033 TSX +0 07400 4 00001    00034 TXH +3 00000 0 00007    00035 TXH +3 00000 0 00024    00036 STO +0 60100 0 00006
                 WHENEVER (NLEFT) .LE. 0, TRANSFER TO QQ0004                        006   000007
 00037 CLA +0 50000 0 00006    00040 SUB +0 40200 0 00011    00041 TZE +0 10000 0 00043    00042 TPL +0 12000 0 00044
 00043 TRA +0 02000 0 00003
                 MLPH = NLEFT + LPREAM                                              007   000017
 00044 CLA +0 50000 0 00006    00045 ADD +0 40000 0 00024    00046 STO +0 60100 0 00005
                 REM = MLPH - (MLPH/LPHYS)*LPHYS                                    008   000027
 00047 LDQ +0 56000 0 00005    00050 PXD -0 75400 0 00000    00051 LLS +0 76300 0 00000    00052 DVP +0 22100 0 00024
 00053 MPY +0 20000 0 00024    00054 XCA +0 13100 0 00000    00055 CHS +0 76000 0 00002    00056 ADD +0 40000 0 00005
 00057 STO +0 60100 0 00010
                 NLAST=(MLPH/LPHYS+(REM/REM))*LPHYS                                 009   000037
 00060 LDQ +0 56000 0 00010    00061 PXD -0 75400 0 00000    00062 LLS +0 76300 0 00000    00063 DVP +0 22100 0 00010
 00064 STQ -0 60000 0 00140    00065 LDQ +0 56000 0 00005    00066 PXD -0 75400 0 00000    00067 LLS +0 76300 0 00000
 00070 DVP +0 22100 0 00024    00071 XCA +0 13100 0 00000    00072 ADD +0 40000 0 00140    00073 XCA +0 13100 0 00000
 00074 MPY +0 20000 0 00024    00075 STQ -0 60000 0 00024
                 TRANSFER TO QQ0005                                                 010   000047
 00076 TRA +0 02000 0 00004
      QQ0004     NLAST=0                                                            011   000057
 00077 CLA +0 50000 0 00011    00100 STO +0 60100 0 00024
      QQ0005     FUNCTION RETURN                                                    012   000067
 00101 TRA +0 02000 0 00134
                 INTEGER     NWDS  ,     NRECS ,     IRC   ,     LRC                013   000077
                 INTEGER     NFLR  ,     LTRC  ,     NLEFT ,     XMOD               014   000087
                 INTEGER     NLAST ,     LPREAM,     LPHYS                          015   000097
                 INTEGER   MLPH,     REM                                            016   000107
                 END OF FUNCTION                                                    017   000117
 00102 TSX +0 07400 4 00000    00103 TXH +3 00000 0 00000    00104 SXD -0 63400 1 00103    00105 SXA +0 63400 4 00134
 00106 CLA +0 50000 4 00001    00107 STA +0 62100 0 00017    00110 CLA +0 50000 4 00002    00111 STA +0 62100 0 00022
 00112 CLA +0 50000 4 00003    00113 STA +0 62100 0 00024    00114 CLA +0 50000 4 00004    00115 STA +0 62100 0 00031
 00116 STO +0 60100 0 00035    00117 CLA +0 50000 4 00005    00120 STA +0 62100 0 00045    00121 CLA +0 50000 4 00006
 00122 STA +0 62100 0 00052    00123 STA +0 62100 0 00053    00124 STA +0 62100 0 00070    00125 STA +0 62100 0 00074
 00126 CLA +0 50000 4 00007    00127 STA +0 62100 0 00032    00130 CLA +0 50000 4 00010    00131 STA +0 62100 0 00075
 00132 STA +0 62100 0 00100    00133 TRA +0 02000 2 00001    00134 AXT +0 77400 4 00000    00135 LXA +0 53400 2 00103
 00136 LXD -0 53400 1 00103    00137 TRA +0 02000 4 00001
1      M1416 3845  PETER R. BOS ..... FOREGROUND 'PRCODE' FOR RELOADER ......    06/01/70 1356.9 PAGE 1


                                     PCC     ON
                                     NOLNK
                       00003         ENTRY   PRCODE
                                     LBL     FGPR
                                     PCC     OFF

                                     EXTERN  WRFLX,WRFLXA,BZEL


        TRANSFER VECTOR
      00000  665126436760     WRFLX
      00001  665126436721     WRFLXA
      00002  227125436060     BZEL

      00003  0634 00 4 00026  PRCODE SXA     PRX4,4        SAVE LINKAGE
      00004 -0500 00 4 00001         CAL     1,4           PICK UP ENTRY CODE WORD
      00005 -0320 00 0 00033         ANA     =O77          MASK
      00006 -0765 00 0 00006         LGR     6             SHIFT TO MQ FOR CONVERSION
      00007  0767 00 0 00003         ALS     3             MAKE ROOM
      00010 -0763 00 0 00003         LGL     3             SHIFT
      00011  0767 00 0 00003         ALS     3             ..
      00012 -0763 00 0 00003         LGL     3             ..
      00013  0602 00 0 00032         SLW     CODE          ..
      00014 -0500 00 4 00002         CAL     2,4           AND MESSAGE POINTER
      00015  0602 00 0 00025         SLW     WR+1          ..
      00016  0074 00 4 00002         TSX     BZEL,4        BLANKS LEADING
      00017  3 00000 0 00032         PAR     CODE          ..
      00020  0322 00 0 00034         ERA     =O373737000000 NULL FIRST 3 BLANKS
      00021  0601 00 0 00032         STO     CODE          PUT AWAY
      00022  0074 00 4 00001         TSX     WRFLXA,4      PRINT 'ENTER CODE X'
      00023  3 00003 0 00030         PAR     MESS,,3       ..
      00024  0074 00 4 00000  WR     TSX     WRFLX,4       ..
      00025  3 00000 0 00000         PAR     -,,-          ..
      00026  0774 00 4 00000  PRX4   AXT     -,4           RESTORE LINKAGE
      00027  0020 00 4 00003         TRA     3,4           RETURN


      00030  254563255160     MESS   BCI     /ENTER CODE/
      00031  234624255757
      00032  606045575757     CODE   BCI     /  N/

                                     END

        LITERALS
      00033  000000000077
      00034  373737000000
1      M1416 3845  PETER R. BOS ..... FOREGROUND 'PRCODE' FOR RELOADER ......    06/01/70 1356.9 PAGE 1
                        POST PROCESSOR ASSEMBLY DATA

         35 IS THE FIRST LOCATION NOT USED BY THIS PROGRAM

0REFERENCES TO DEFINED SYMBOLS
         24     WR    15
          2   BZEL    16
         32   CODE    13,   17,   21
         30   MESS    23
         26   PRX4     3
          0  WRFLX    24
          3 PRCODE     0
          1 WRFLXA    22

0 NO ERROR IN ABOVE ASSEMBLY.
1            CONVERT I/O SYSTEM DATE/TIME TO BCD.....M.J.BAILEY,12/11/64         06/01/70 1356.9 PAGE 1

                              *       (EXTRACTED FROM GDT FOR LOADER USE)
                              *
                       00002         ENTRY   IOBDT
                              *
                              *   CONVERT I/O SYSTEM DATE/TIME FROM LAC TO BCD TIME AND DATE --
                              *      HHMM.M (TIME) IN AC, MMDDYY (DATE) IN MQ
                              *

        LINKAGE DIRECTOR
      00000  000000000000
      00001  314622246360

      00002 -0130 00 0 00000   IOBDT XCL
 T    00003 -0754 00 0 00000         PXD
      00004 -0763 00 0 00011         LGL     9             YEAR IN AC
      00005 -0600 00 0 00122         STQ     GDTD
      00006 -0130 00 0 00000         XCL                   YEAR IN MQ
 T    00007 -0754 00 0 00000         PXD
      00010  0221 00 0 00124         DVP     =10           TENS DIGIT OF YEAR IN MQ, UNITS IN AC
      00011 -0320 00 0 00125         ANA     =O17
      00012  0602 00 0 00117         SLW     DATE.         '00000Y'  OF DATE
      00013 -0130 00 0 00000         XCL
      00014 -0320 00 0 00125         ANA     =O17
      00015  0767 00 0 00006         ALS     6
      00016 -0602 00 0 00117         ORS     DATE.         '0000YY' OF DATE
      00017  0560 00 0 00122         LDQ     GDTD
 T    00020 -0754 00 0 00000         PXD
      00021 -0763 00 0 00004         LGL     4             MONTH IN AC
      00022  0601 00 0 00123         STO     GDTM
      00023  0402 00 0 00124         SUB     =10
      00024 -0120 00 0 00030         TMI     IBA
      00025  0601 00 0 00123         STO     GDTM          SAVE UNITS DIGIT OF MONTH
      00026  0500 00 0 00131         CLA     =O100
      00027  0020 00 0 00031         TRA     *+2
 T    00030 -0754 00 0 00000    IBA  PXD
      00031  0400 00 0 00123         ADD     GDTM
      00032  0767 00 0 00030         ALS     24            'MM0000'
      00033 -0602 00 0 00117         ORS     DATE.         'MM00YY' OF DATE
 T    00034 -0754 00 0 00000         PXD
      00035 -0763 00 0 00005         LGL     5             DAY IN AC
      00036 -0600 00 0 00122         STQ     GDTD          SAVE THE TIME
      00037 -0130 00 0 00000         XCL                   DAY IN MQ
 T    00040 -0754 00 0 00000         PXD
      00041  0221 00 0 00124         DVP     =10           TENS DIGIT OF DAY IN MQ, UNITS IN AC
      00042 -0773 00 0 00006         RQL     6
      00043 -0600 00 0 00123         STQ     GDTM          STORE '0000D0'
      00044  0400 00 0 00123         ADD     GDTM          '0000DD' IN AC
      00045  0767 00 0 00014         ALS     12            '00DD00' IN AC
      00046 -0602 00 0 00117         ORS     DATE.         'MMDDYY' OF DATE
      00047 -0500 00 0 00122         CAL     GDTD          TIME
      00050  0771 00 0 00022         ARS     18
      00051 -0130 00 0 00000         XCL                   TIME IN SECS. IN MQ
      00052  0200 00 0 00130         MPY     =60           GET TIME IN 1/60TH'S SEC. IN MQ
      00053  0634 00 4 00101         SXA     TPWATX,4
                              *
      00054 -0754 00 0 00000   BCA   ZAC
1            CONVERT I/O SYSTEM DATE/TIME TO BCD.....M.J.BAILEY,12/11/64         06/01/70 1356.9 PAGE 2

      00055  0221 00 0 00133         DVP     =216000       FIND HOUR
      00056  0601 00 0 00121         STO     MIN.          SAVE REMAINDER (MINUTES)
      00057  0074 00 4 00103         TSX     BINBCD,4      CONVERT HOURS TO BCD
      00060 -0765 00 0 00006         LGR     6
      00061 -0100 00 0 00063         TNZ     *+2
      00062 -0500 00 0 00127         CAL     =O60          REPLACE LEADING ZERO WITH BLANK
      00063 -0763 00 0 00006         LGL     6
      00064  0767 00 0 00030         ALS     24            LEAVE ROOM FOR MINUTE
      00065  0602 00 0 00120         SLW     HOUR.         SAVE HOUR
      00066  0560 00 0 00121         LDQ     MIN.          MINUTE
      00067 -0754 00 0 00000         ZAC
      00070  0221 00 0 00132         DVP     =360          FIND NO. OF TENTHS OF MINUTES
      00071  0074 00 4 00103         TSX     BINBCD,4      CONVERT TO BCD
      00072 -0765 00 0 00006         LGR     6             TENTHS TO MQ
      00073  0767 00 0 00014         ALS     12
      00074 -0602 00 0 00120         ORS     HOUR.         ADD MINUTE TO HOUR
      00075 -0500 00 0 00126         CAL     =H00000.      PRECEDE TENTHS WITH .
      00076 -0763 00 0 00006         LGL     6             BRING BACK TENTHS
      00077 -0501 00 0 00120         ORA     HOUR.         HHMM.M IN LOGICAL AC
      00100  0560 00 0 00117         LDQ     DATE.         DATE TO MQ
      00101  0774 00 4 00000  TPWATX AXT     **,4
      00102  0020 00 4 00001         TRA     1,4

      00103  0634 00 4 00114  BINBCD SXA     BNBCDX,4      BINARY TO BCD CONVERTER
      00104  0600 00 0 00116         STZ     TPLIN.
      00105  0774 00 4 00044         AXT     36,4
      00106 -0754 00 0 00000  BNBCD1 ZAC                   CONVERT INTEGER TO BCD
      00107  0221 00 0 00124         DVP     =10           ..
      00110  0767 00 4 00044         ALS     36,4          ..
      00111 -0602 00 0 00116         ORS     TPLIN.        ..
      00112  2 00006 4 00106         TIX     BNBCD1,4,6    ..
      00113 -0500 00 0 00116         CAL     TPLIN.
      00114  0774 00 4 00000  BNBCDX AXT     **,4
      00115  0020 00 4 00001         TRA     1,4
      00116  0 00000 0 00000  TPLIN. PZE                   TEMPORARY
      00117  606060606060      DATE. BCI     1,
      00120  606060606060      HOUR. BCI     1,
      00121  0 00000 0 00000   MIN.  PZE
      00122  0 00000 0 00000  GDTD   PZE
      00123  0 00000 0 00000  GDTM   PZE
                                     END

        LITERALS
      00124  000000000012
      00125  000000000017
      00126  000000000033
      00127  000000000060
      00130  000000000074
      00131  000000000100
      00132  000000000550
      00133  000000645700
1            CONVERT I/O SYSTEM DATE/TIME TO BCD.....M.J.BAILEY,12/11/64         06/01/70 1356.9 PAGE 1
                        POST PROCESSOR ASSEMBLY DATA

        134 IS THE FIRST LOCATION NOT USED BY THIS PROGRAM

0REFERENCES TO DEFINED SYMBOLS
         54    BCA
         30    IBA    24
        122   GDTD     5,   17,   36,   47
        123   GDTM    22,   25,   31,   43,   44
        121   MIN.    56,   66
        117  DATE.    12,   16,   33,   46,  100
        120  HOUR.    65,   74,   77
          2  IOBDT     0
        103 BINBCD    57,   71
        106 BNBCD1   112
        114 BNBCDX   103
        116 TPLIN.   104,  111,  113
        101 TPWATX    53

0 NO ERROR IN ABOVE ASSEMBLY.
1      XMOD          REMAINDERING ARG1(MOD ARG2)                                 06/01/70 1357.1 PAGE 1

                              *              CALLING SEQUENCE TSX XMOD,4
                              *                               TXH ARG1(FIXED)
                              *                               TXH ARG2(FIXED)
                              *                               3,4 RETURN
                              *              FUNCTION FIXED
                       00002         ENTRY   XMOD

        LINKAGE DIRECTOR
      00000  000000000000
      00001  674446246060

      00002  0760 00 0 00000  XMOD   CLM
      00003  0560 60 4 00001         LDQ*    1,4
 A    00004  0763 00 0 00000         LLS                   SIGN OF MQ TO AC
      00005  0221 60 4 00002         DVP*    2,4
      00006  0020 00 4 00003         TRA     3,4
                                                           FUNCTION IN ARITHMETIC AC FIXED
                                     END
1      XMOD          REMAINDERING ARG1(MOD ARG2)                                 06/01/70 1357.1 PAGE 1
                        POST PROCESSOR ASSEMBLY DATA

          7 IS THE FIRST LOCATION NOT USED BY THIS PROGRAM

0REFERENCES TO DEFINED SYMBOLS
          2   XMOD     0

0 NO ERROR IN ABOVE ASSEMBLY.
1     MAD PROGRAM LISTING ... ... ...                 FILE  CRECAP   MAD            06/01/70    1357.2
-
                  EXTERNAL FUNCTION                                                               *001 LM00001
                  NORMAL MODE IS INTEGER                                                          *002 LM00002
                  ENTRY TO RECAP.                                                                 *003 LM00003
                  FUNCTION RETURN                                                                 *004 LM00004
                  END OF FUNCTION                                                                 *005 LM00005
1MAD PROGRAM,TYPE NOV 1963      (ALL NUMBERS ARE OCTAL)
0TOTAL LOCATIONS   00023 TRANSFER VECTOR LENGTH  00001 PROGRAM BEGINS    00004
0 PROGRAM IS AN EXTERNAL FUNCTION.   THE FOLLOWING ARE ENTRIES
      RECAP  00005   0
0FUNCTION DICTIONARY
      EXIT   00000   1
0ABSOLUTE CONSTANTS
 00002 +000000000001     00003 +233000000000
0PROGRAM
                 EXTERNAL FUNCTION                                                  001  LM00001
                 N'R                                                                002  LM00002
                 E'O RECAP.                                                         003  LM00003
 00004 TRA +0 02000 0 00007    00005 SXA +0 63400 2 00011    00006 TSX +0 07400 2 00011
                 F'N                                                                004  LM00004
 00007 TRA +0 02000 0 00015
                 E'N                                                                005  LM00005
 00010 TSX +0 07400 4 00000    00011 TXH +3 00000 0 00000    00012 SXD -0 63400 1 00011    00013 SXA +0 63400 4 00015
 00014 TRA +0 02000 2 00001    00015 AXT +0 77400 4 00000    00016 LXA +0 53400 2 00011    00017 LXD -0 53400 1 00011
 00020 TRA +0 02000 4 00001
1      M1416 3845  PETER R. BOS ..... READ/SCAN COMMAND FROM CONSOLE ......      06/01/70 1357.6 PAGE 1

                                     PCC     ON
                                     NOLNK
                       00003         ENTRY   RDCOM
                                     LBL     RCOM
                                     PCC     OFF

                                     EXTERN  RDMESS,PARSE,RPARSE

                                     UNLIST


      00003                   RDCOM  SAVE    RD(X1,X2,X4,MTM) SAVE XRS AND LINKAGE
      00007  0441 00 4 00002         LDI     2,4           IS EMPTY RETURN GIVEN
      00010 -0754 00 0 00000         ZAC                   .. ASSUME NOT
      00011  0444 00 0 00117         OFT     =O400000700000 ..
      00012  0020 00 0 00016         TRA     RDCM1         .. NO
      00013 -0056 00  300000         LNT     300000        ..
      00014  0020 00 0 00016         TRA     RDCM1         .. NO
      00015 -0500 00 0 00115         CAL     EMPRTN        YES, SET RETURN ON RDMESS CALL
      00016  0602 00 0 00042  RDCM1  SLW     EMP1          ..
      00017  0600 00 0 00114         STZ     FLIP          RESET SWITCH
      00020  0441 00 4 00001         LDI     1,4           GET POINTER TO BUFFER
      00021  0604 00 0 00045         STI     ARY           .. SAVE
      00022 -0054 00  200000         LFT     200000        IS THIS A 'BLK'
      00023 -0054 00  100000         LFT     100000        ..
      00024  0020 00 0 00040         TRA     START         .. NO
      00025 -0625 00 0 00114         STL     FLIP          THIS IS A MAD CALL, BACKWARDS BUFFER
      00026 -0500 00 4 00001         CAL     1,4           GET ADDRESS OF LAST WORD
      00027  0737 00 1 00000         PAC     ,1            .. SAVE
      00030  0400 00 0 00116         ADD     =1            ADJUST
      00031 -0535 00 4 00045         LDC     ARY,4         POINTER TO WORD COUNT
      00032  0402 00 4 00000         SUB     0,4           COMPUTE ADDRESS OF FIRST WORD
      00033  0621 00 0 00045         STA     ARY           PUT AWAY
      00034  0737 00 2 00000         PAC     ,2            .. SAVE
      00035 -0500 00 4 00000         CAL     0,4           PICK UP WORD COUNT
      00036  0734 00 4 00000         PAX     ,4            ..
      00037 -0634 00 4 00045         SXD     ARY,4         ..

      00040  0074 00 4 00000  START  TSX     RDMESS,4      READ INPUT LINE
      00041  3 00016 0 00076         PAR     LINE,,14      ..
      00042  0020 00 0 00072  EMP1   TRA     EMPTY         .. EMPTY RETURN IF GIVEN
      00043  0074 00 4 00001         TSX     PARSE,4       SCAN FOR BLANKS
      00044  3 00016 0 00076         PAR     LINE,,14      ..
      00045  3 00000 0 00000  ARY    PAR     -,,-          ..
      00046  3 00000 0 00065         PAR     RDMORE        .. UNFINISHED LINE RETURN
      00047 -0520 00 0 00114         NZT     FLIP          WAS THIS MAD CALL
      00050  0020 00 0 00061         TRA     RETURN        .. NO

      00051 -0500 00 1 00000  LOOP   CAL     0,1           INVERT ARRAY
      00052  0560 00 2 00000         LDQ     0,2           ..
      00053  0602 00 2 00000         SLW     0,2           ..
      00054 -0600 00 1 00000         STQ     0,1           ..
      00055  1 77777 2 00056         TXI     *+1,2,-1      INCREMENT UPPER POINTER
      00056  1 00001 1 00057         TXI     *+1,1,1       .. AND LOWER POINTER
      00057 -0634 00 1 00060         SXD     *+1,1         ..
1      M1416 3845  PETER R. BOS ..... READ/SCAN COMMAND FROM CONSOLE ......      06/01/70 1357.6 PAGE 2

      00060  3 00000 2 00051         TXH     LOOP,2,-      REPEAT

      00061                   RETURN RETURN  (2,4),RD(X1,X2,X4,MTM) RETURN TO CALLER

      00065  0074 00 4 00000  RDMORE TSX     RDMESS,4      HERE FOR LINE WITH NO C.R.
      00066  3 00016 0 00076         PAR     LINE,,14      .. READ SOME MORE
      00067  0 00000 0 00000         PZE     0             .. NO EMPTY RETURN HERE
      00070  0074 00 4 00002         TSX     RPARSE,4      .. AND CONTINUE SCAN
      00071  3 00016 0 00076         PAR     LINE,,14      ..

      00072                   EMPTY  RESTOR  RD(X1,X2,X4,MTM) HERE IF NO LINE TYPED
      00075  0020 60 4 00002         TRA*    2,4           .. GIVE EMPTY RETURN

      00076                   LINE   BSS     14            INPUT BUFFER
      00114  0 00000 0 00000  FLIP   PZE     0
      00115  0020 00 0 00072  EMPRTN TRA     EMPTY         EMPTY RETURN FOR RDMESS

      00116                          RMT     *
                                     END

        LITERALS
      00116  000000000001
      00117  400000700000
1      M1416 3845  PETER R. BOS ..... READ/SCAN COMMAND FROM CONSOLE ......      06/01/70 1357.6 PAGE 1
                        POST PROCESSOR ASSEMBLY DATA

        120 IS THE FIRST LOCATION NOT USED BY THIS PROGRAM

0REFERENCES TO DEFINED SYMBOLS
         45    ARY    21,   31,   33,   37
         42   EMP1    16
        114   FLIP    17,   25,   47
         76   LINE    41,   44,   66,   71
         51   LOOP    60
         61   RDX1     3,   72
         62   RDX2     4,   73
         63   RDX4     5,   74
         72  EMPTY    42,  115
          1  PARSE    43
         16  RDCM1    12,   14
          3  RDCOM     0
         40  START    24
        115 EMPRTN    15
          0 RDMESS    40,   65
         65 RDMORE    46
         61 RETURN    50
          2 RPARSE    70

0 NO ERROR IN ABOVE ASSEMBLY.
1      M1416 3845  PETER R. BOS .... PARSE, RPARSE, ENDLIN ... COMMAND SCANNER   06/01/70 1357.8 PAGE 1

                                     PCC     ON
                                     NOLNK
                       00000         ENTRY   PARSE         ENTRY TO PARSE COMMAND LINE
                       00022         ENTRY   RPARSE        REENTRY FOR LONG LINE
                       00052         ENTRY   ENDLIN        FUDGE UP CARRIAGE RETURN
                       00111         ENTRY   FLAG          NON-ZERO IF FIRST WORD PROCESSED
                                     LBL     PARS
                                     PCC     OFF

      00000  0634 00 4 00060  PARSE  SXA     PX4,4         ROUTINE TO PARSE LINE
      00001  0760 00 0 00016         LMTM                  .. NEED 4
      00002  0634 00 5 00061         SXA     PX5,5         ..
      00003  0634 00 6 00062         SXA     PX6,6         ..
      00004  0634 00 7 00063         SXA     PX7,7         ..
      00005 -0500 00 0 00112         CAL     BLANKS        INITIALIZE
      00006  0602 00 0 00107         SLW     TEMP          ..
      00007 -0625 00 0 00110         STL     BLNK          ..
      00010  0600 00 0 00111         STZ     FLAG          ..
      00011 -0500 00 4 00002         CAL     2,4           PICK UP BUFFER LOCATION
      00012 -0734 00 5 00000         PDX     ,5            ..
      00013  0754 00 5 00000         PXA     ,5            ..
      00014  1 00001 5 00015         TXI     *+1,5,1       .. MAKE TNX WORK RIGHT
      00015  0361 00 4 00002         ACL     2,4           ..
      00016  0621 00 0 00076         STA     PUT           ..
      00017 -0500 00 4 00003         CAL     3,4           GET END OF LINE RETURN
      00020  0621 00 0 00051         STA     EMPTY         ..
      00021  0020 00 0 00023         TRA     *+2           .. SKIP RPARSE AXT
      00022  0774 00 5 00000  RPARSE AXT     -,5           REENTRY FOR NEW LINE
      00023  0760 00 0 00016         LMTM                  .. JUST IN CASE
      00024 -0500 00 4 00001         CAL     1,4           GET LINE LOCATION AND WORD COUNT
      00025 -0734 00 7 00000         PDX     ,7            ..
      00026  0754 00 7 00000         PXA     ,7            ..
      00027  0361 00 4 00001         ACL     1,4           ..
      00030  0621 00 0 00032         STA     GET           .. SAVE ADDRESS

      00031  0774 00 6 00006  WRD    AXT     6,6           SIX CHARACTERS PER WORD
      00032  0560 00 7 00000  GET    LDQ     -,7           PICK UP NEXT WORD TO SCAN
      00033 -0500 00 0 00107  CHR    CAL     TEMP          HERE FOR NEXT CHAR, RESTORE PREVIOUS RESULT
      00034 -0763 00 0 00006         LGL     6             SHIFT OUT A CHARACTER
      00035  0044 00 0 00000         PAI                   SAVE AC
      00036 -0320 00 0 00114         ANA     =O77          MASK THIS CHARACTER
      00037  0774 00 4 00006         AXT     NSPCHR,4      LOOK FOR IT IN TABLE OF CONTROL CHARACTERS
      00040 -0340 00 4 00107         LAS     SPCHR,4       ..
      00041  0020 00 0 00043         TRA     *+2           ..
      00042  0020 60 4 00110         TRA*    SPCHR+1,4     .. SPECIAL CHAR. FOUND, GO DO IT
      00043  2 00002 4 00040         TIX     *-3,4,2       ..
      00044  0604 00 0 00107         STI     TEMP          NORMAL CHARACTER, SAVE NEW RESULT
      00045  0600 00 0 00110         STZ     BLNK          RESET BLANK WORD INDICATOR
      00046  2 00001 6 00033  TIX    TIX     CHR,6,1       AND GO GET NEXT CHARACTER
      00047  2 00001 7 00031         TIX     WRD,7,1       OR NEXT WORD IF OUT OF CHARACTERS

      00050  0634 00 5 00022         SXA     RPARSE,5      HERE WHEN BUFFER EMPTY, SAVE X5
      00051  0020 00 0 00000  EMPTY  TRA     -             TAKE LINE EMPTY RETURN
1      M1416 3845  PETER R. BOS .... PARSE, RPARSE, ENDLIN ... COMMAND SCANNER   06/01/70 1357.8 PAGE 2

      00052  0534 00 5 00022  ENDLIN LXA     RPARSE,5      END OF LINE W/O CARR. RET.

      00053  0074 00 4 00072  ENDIN  TSX     STWRD,4       HERE FOR CARRIAGE RETURN
      00054 -2 00001 5 00055         TNX     *+1,5,1       .. DECREMENT COUNTER
      00055 -0500 00 0 00113         CAL     FENCE         .. INSURE FENCE IS LAST ARGUMENT
      00056  0522 00 0 00076         XEC     PUT           ..
      00057  2 00001 5 00056         TIX     *-1,5,1       .. FILL OUT REMAINDER OF BUFFER
      00060  0774 00 4 00000  PX4    AXT     -,4           RESTORE X4
      00061  0774 00 5 00000  PX5    AXT     -,5           ..
      00062  0774 00 6 00000  PX6    AXT     -,6           ..
      00063  0774 00 7 00000  PX7    AXT     -,7           ..
      00064  0020 00 4 00004         TRA     4,4           RETURN NORMALLY

      00065  0074 00 4 00072  BLANK  TSX     STWRD,4       HERE FOR BLANK IN LINE, STORE CURRENT WORD
      00066 -0500 00 0 00112         CAL     BLANKS        RESET TEMPORARY WORD
      00067  0602 00 0 00107         SLW     TEMP          ..
      00070 -0625 00 0 00110         STL     BLNK          INDICATE BLANK FOUND
      00071  0020 00 0 00046         TRA     TIX           KEEP LOOKING

      00072  0520 00 0 00110  STWRD  ZET     BLNK          ROUTINE TO STORE WORD IN BUFFER
      00073  0020 00 4 00001         TRA     1,4           EXIT FOR REDUNDANT BLANKS
      00074 -2 00001 5 00073         TNX     *-1,5,1       EXIT IF BUFFER FILLED
      00075 -0500 00 0 00107         CAL     TEMP          GET THIS WORD
      00076  0602 00 5 00000  PUT    SLW     -,5           PUT IT AWAY
      00077 -0625 00 0 00111         STL     FLAG          INDICATE WORD FOUND
      00100  0020 00 4 00001         TRA     1,4           RETURN

                       00101  TSPCHR SYN     *             TABLE OF CONTROL CHARACTERS FOR PARSE
      00101 +000000000055            OCT     55            CARRIAGE RETURN
      00102  0020 00 0 00053         TRA     ENDIN         .. ENDS LINE
      00103 +000000000057            OCT     57            NULL (UNLIKELY)
      00104  0020 00 0 00046         TRA     TIX           .. IS IGNORED
      00105 +000000000060            OCT     60            BLANK
      00106  0020 00 0 00065         TRA     BLANK         .. MARKS WORD
                       00107  SPCHR  SYN     *             ..
                       00006  NSPCHR EQU     *-TSPCHR      TABLE COUNT

      00107  0 00000 0 00000  TEMP   PZE
      00110  0 00000 0 00000  BLNK   PZE
      00111  0 00000 0 00000  FLAG   PZE

      00112  606060606060     BLANKS BCI     1,
      00113 -377777777777     FENCE  OCT     777777777777

                                     END

        LITERALS
      00114  000000000077
1      M1416 3845  PETER R. BOS .... PARSE, RPARSE, ENDLIN ... COMMAND SCANNER   06/01/70 1357.8 PAGE 1
                        POST PROCESSOR ASSEMBLY DATA

        115 IS THE FIRST LOCATION NOT USED BY THIS PROGRAM

0REFERENCES TO DEFINED SYMBOLS
         33    CHR    46
         32    GET    30
         76    PUT    16,   56
         60    PX4     0
         61    PX5     2
         62    PX6     3
         63    PX7     4
         46    TIX    71,  104
         31    WRD    47
        110   BLNK     7,   45,   70,   72
        111   FLAG     0,   10,   77
        107   TEMP     6,   33,   44,   67,   75
         65  BLANK   106
         51  EMPTY    20
         53  ENDIN   102
        113  FENCE    55
          0  PARSE     0
        107  SPCHR    40,   42,  107
         72  STWRD    53,   65
        112 BLANKS     5,   66
         52 ENDLIN     0
          6 NSPCHR    37,  107
         22 RPARSE     0,   50,   52
        101 TSPCHR   101,  107

0 NO ERROR IN ABOVE ASSEMBLY.


RELSUP   BCD 09/20/68 0220.8   17000         00000
