1     MAD PROGRAM LISTING ... ... ...                 FILE     REL   MAD            02/15/68    1731.3
-
                      PROGRAM TO PROVIDE RELOCATION FOR CTSS SUPERVISORS                               LM00001
                                                                                                       LM00002
                           D.R. WIDRIG  MARCH 1966                                                     LM00003
                                                                                                       LM00004
                      LOADING INSTRUCTIONS                                                             LM00005
                           MAD REL (LIST)                                                              LM00006
                           FAP GETBUF (LIST)                                                           LM00007
                           LAED NCLOAD REL GETBUF (SQZ) (SRCH) XLIBE                                   LM00008
                           SAVE RELSUP                                                                 LM00009
                           R RELSUP NAME1  (NAME1 STOMAP)                                              LM00010
                                                                                                       LM00011
                                                                                                       LM00012
                  NORMAL MODE IS INTEGER                                                          *001 LM00013
                  BOOLEAN NAMESW,DECSW,SYSSW                                                      *002 LM00014
                  DIMENSION LINE(40)                                                              *003 LM00015
                  DIMENSION BUFF1(0),BUFF2(0)                                                     *004 LM00016
                  DIMENSION TAB11(0),TAB21(0)                                                     *005 LM00017
                                                                                                       LM00018
                  VECTOR VALUES N1 = 0,$STOMAP$                                                   *006 LM00019
                  EQUIVALENCE (STOMAP,N1(1))                                                      *007 LM00020
                  VECTOR VALUES SNAME = $COM000$,$ SYMTB$                                         *008 LM00021
                  EQUIVALENCE (SYMTB,SNAME(1))                                                    *009 LM00022
                  VECTOR VALUES RESULT = 0,0,0,0,0                                                *010 LM00023
                                                                                                       LM00024
                  VECTOR VALUES FENCE = 777777777777K                                             *011 LM00025
                  VECTOR VALUES LOWCOM = 77461K                                                   *012 LM00026
                  VECTOR VALUES MZE = - 0                                                         *013 LM00027
                  VECTOR VALUES TYPCOD = $00000F$,$00000E$,$00000C$                               *014 LM00028
                  VECTOR VALUES TMAX = 1024                                                       *015 LM00029
                  VECTOR VALUES TYPMAX = 3                                                        *016 LM00030
                  VECTOR VALUES BLANKS = $      $                                                 *017 LM00031
                  VECTOR VALUES NULLS = 575757575757K                                             *018 LM00032
                                                                                                       LM00033
                      MAKE SURE OF PROPER FORMAT                                                       LM00034
                                                                                                       LM00035
                  WHENEVER COMARG.(1,N1) .E. FENCE                                                *019 LM00036
                       PRMESS.($R RELSUP N1 (N1 STOMAP)$)                                         *020 LM00037
                       CHNCOM.(0)                                                                 *021 LM00038
                  END OF CONDITIONAL                                                              *022 LM00039
                                                                                                       LM00040
                      IF SYSTEMS ARE THE SAME, SET SYSTEM SWITCH                                       LM00041
                                                                                                       LM00042
                  WHOAMI.(LINE(3)...3)                                                            *023 LM00043
                  WHENEVER (LINE(1) .E. N1)                                                       *024 LM00044
                       SYSSW = 1B                                                                 *025 LM00045
                  OTHERWISE                                                                       *026 LM00046
                       SYSSW = 0B                                                                 *027 LM00047
                  END OF CONDITIONAL                                                              *028 LM00048
                  SETBRK.(BEATIT)                                                                 *029 LM00049
                                                                                                       LM00050
                      SET UP ERROR RETURNS, ETC.                                                       LM00051
                                                                                                       LM00052
                  FERRTN.(ERR1)                                                                   *030 LM00053
                                                                                                       LM00054
                      SET UP TABLE AREAS                                                               LM00055
                                                                                                       LM00056
                  INDX1 = 1                                                                       *031 LM00057
                  GETBUF.(TAB11,TMAX)                                                             *032 LM00058
                  GETBUF.(TAB21,TMAX)                                                             *033 LM00059
                                                                                                       LM00060
                      OPEN STOMAP FILE                                                                 LM00061
                                                                                                       LM00062
                  TOP = GETBUF.(BUFF1,432)                                                        *034 LM00063
                  GETBUF.(BUFF2,432)                                                              *035 LM00064
                  BFOPEN.($R$,N1,STOMAP,BUFF1(BUFF1+432),BUFF2(BUFF2+432),                        *036 LM00065
                1      MZE,ERR1)                                                                  *036 LM00066
                  SNAME = SNAME .V. (N1.A.770000K)                                                *037 LM00067
                                                                                                       LM00068
                      DRAIN JUNK AT FRONT                                                              LM00069
                                                                                                       LM00070
                  BFREAD.(N1,STOMAP,N...1,EOF1,EOFCT,ERR1)                                        *038 LM00071
                  N = N .A. 77K                                                                   *039 LM00072
                  NPLUS1 = N + 1                                                                  *040 LM00073
                  BFREAD.(N1,STOMAP,LINE(N)...NPLUS1,EOF1,EOFCT,ERR1)                             *041 LM00074
                  N = LINE(0) .A. 77K                                                             *042 LM00075
                  NPLUS1 = N + 1                                                                  *043 LM00076
                  BFREAD.(N1,STOMAP,LINE(N)...NPLUS1,EOF1,EOFCT,ERR1)                             *044 LM00077
                                                                                                       LM00078
                      READ A LINE FROM STORAGE MAP                                                     LM00079
                                                                                                       LM00080
      READ1       N = LINE(0) .A. 77K                                                             *045 LM00081
                  NPLUS1 = N + 1                                                                  *046 LM00082
                  BFREAD.(N1,STOMAP,LINE(N)...NPLUS1,EOF1,EOFCT,ERR1)                             *047 LM00083
                  WHENEVER N .L. 6, TRANSFER TO READ1                                             *048 LM00084
                                                                                                       LM00085
                      GET SYMBOL, IF ANY                                                               LM00086
                                                                                                       LM00087
                  WHENEVER LINE(N-2) .NE. BLANKS                                                  *049 LM00088
                                                                                                       LM00089
                      CLASSIFY SYMBOL, CHECK FOR END                                                   LM00090
                                                                                                       LM00091
                       WHENEVER LINE(N-1) .E. $LOWEST$                                            *050 LM00092
                            LOWCOM = BCOCT.(LINE(N-5))                                            *051 LM00093
                            TRANSFER TO EOF1                                                      *052 LM00094
                       OR WHENEVER LINE(N-1) .E. BLANKS                                           *053 LM00095
                            IN2 = 2K6                                                             *054 LM00096
                       OTHERWISE                                                                  *055 LM00097
                            IN2 = 1K6                                                             *056 LM00098
                       END OF CONDITIONAL                                                         *057 LM00099
                                                                                                       LM00100
                      SPECIAL CASE CHECKS                                                              LM00101
                                                                                                       LM00102
                       WHENEVER LINE(N-2) .E. 0                                                   *058 LM00103
                            IN1 = $(MAIN)$                                                        *059 LM00104
                       OTHERWISE                                                                  *060 LM00105
                            IN1 = RJUST.(LINE(N-2))                                               *061 LM00106
                       END OF CONDITIONAL                                                         *062 LM00107
                                                                                                       LM00108
                      GET VALUE                                                                        LM00109
                                                                                                       LM00110
                       IN2 = IN2 .V. BCOCT.(LINE(N-4))                                            *063 LM00111
                                                                                                       LM00112
                      STORE SYMBOL, VALUE, AND TYPE                                                    LM00113
                                                                                                       LM00114
                       TAB11(TAB11+INDX1) = IN1                                                   *064 LM00115
                       TAB21(TAB21+INDX1) = IN2                                                   *065 LM00116
                       INDX1 = INDX1 + 1                                                          *066 LM00117
                       WHENEVER INDX1 .G. TMAX                                                    *067 LM00118
                            PRMESS.($OVERFLOW OF TABLE$)                                          *068 LM00119
                            TRANSFER TO NOSYM1                                                    *069 LM00120
                       END OF CONDITIONAL                                                         *070 LM00121
                  END OF CONDITIONAL                                                              *071 LM00122
                  TRANSFER TO READ1                                                               *072 LM00123
                                                                                                       LM00124
                      EOF, SET UP FOR SYSTEM SYMBOL TABLE                                              LM00125
                                                                                                       LM00126
      EOF1        BFCLOS.(N1,STOMAP,NERR0)                                                        *073 LM00127
                                                                                                       LM00128
                      SYMBOL TABLE IS IN PUBLIC FILE                                                   LM00129
                                                                                                       LM00130
      NERR0       TSSFIL.                                                                         *074 LM00131
                  BFOPEN.($R$,SNAME,SYMTB,BUFF1(BUFF1+432),BUFF2(BUFF2+432),                      *075 LM00132
                1      MZE,NOSYM)                                                                 *075 LM00133
                  USRFIL.                                                                         *076 LM00134
                                                                                                       LM00135
                      READ SYMBOL TABLE, ONE LINE AT A TIME                                            LM00136
                                                                                                       LM00137
      READ2       BFREAD.(SNAME,SYMTB,LINE(14)...14,EOF2,EOFCT,NOSYM)                             *077 LM00138
                                                                                                       LM00139
                      PICK OFF AND STORE DEFINITIONS                                                   LM00140
                                                                                                       LM00141
                  THROUGH LOOP1, FOR I = 14,-3,(I.L.2)                                            *078 LM00142
                       WHENEVER LINE(I-1) .NE. BLANKS                                             *079 LM00143
                            IN1 = RJUST.((LINE(I-1).LS.18) .V.                                    *080 LM00144
                1                (LINE(I-2).RS.18))                                               *080 LM00145
                            IN2 = 4K6 .V. BCOCT.(LINE(I))                                         *081 LM00146
                            TAB11(TAB11+INDX1) = IN1                                              *082 LM00147
                            TAB21(TAB21+INDX1) = IN2                                              *083 LM00148
                            INDX1 = INDX1 + 1                                                     *084 LM00149
                            WHENEVER INDX1 .G. TMAX                                               *085 LM00150
                                 PRMESS.($OVERFLOW OF TABLE$)                                     *086 LM00151
                                 TRANSFER TO EOF2                                                 *087 LM00152
                            END OF CONDITIONAL                                                    *088 LM00153
                       END OF CONDITIONAL                                                         *089 LM00154
      LOOP1       CONTINUE                                                                        *090 LM00155
                  TRANSFER TO READ2                                                               *091 LM00156
                                                                                                       LM00157
                      EOF ON SYMBOL TABLE, GET READY TO ACCEPT INPUT                                   LM00158
                                                                                                       LM00159
      EOF2        RESETF.                                                                         *092 LM00160
      RIP         SMEM.(TOP)                                                                      *093 LM00161
      READY       PRMESS.($READY$)                                                                *094 LM00162
                                                                                                       LM00163
                      SET SWITCHES, ETC.                                                               LM00164
                                                                                                       LM00165
      INPUT       SIGN = 1                                                                        *095 LM00166
                  DECSW = 0B                                                                      *096 LM00167
                  NAMESW = 0B                                                                     *097 LM00168
                  TYPE = 0                                                                        *098 LM00169
                  VALUE = 0                                                                       *099 LM00170
                  RESULT(0) = 575757575757K                                                       *100 LM00171
                                                                                                       LM00172
                      PRIME INPUT LINE                                                                 LM00173
                                                                                                       LM00174
                  GTWDBI.                                                                         *101 LM00175
                                                                                                       LM00176
                      PROCESS INPUT LINE                                                               LM00177
                                                                                                       LM00178
                  THROUGH LOOP2, FOR I = 1,1,(I.G.14)                                             *102 LM00179
                       GTWDB.(LINE,EMPTY)                                                         *103 LM00180
                                                                                                       LM00181
                      THINK ABOUT THIS WORD                                                            LM00182
                                                                                                       LM00183
                       TEMP = ZEL.(LINE)                                                          *104 LM00184
                       WHENEVER TEMP .E. $00000+$                                                 *105 LM00185
                            SIGN = 1                                                              *106 LM00186
                       OR WHENEVER TEMP .E. $00000-$                                              *107 LM00187
                            SIGN = -1                                                             *108 LM00188
                       OR WHENEVER TEMP .E. $0000//$                                              *109 LM00189
                            DECSW = 1B                                                            *110 LM00190
                       OR WHENEVER TEMP .E. $00000*$                                              *111 LM00191
                            LINE = OLDNAM                                                         *112 LM00192
                            TRANSFER TO NAMED                                                     *113 LM00193
                       OR WHENEVER (TEMP .A. BLANKS) .E. 0                                        *114 LM00194
                            WHENEVER (.NOT.DECSW).AND.(TEMP.A.$YYYYYY$).E.0                       *115 LM00195
                                 VALUE = VALUE+1K5+SIGN*BCOCT.(TEMP)                              *116 LM00196
                            OTHERWISE                                                             *117 LM00197
                                 VALUE = VALUE+1K5+SIGN*BCDEC.(TEMP)                              *118 LM00198
                            END OF CONDITIONAL                                                    *119 LM00199
                            DECSW = 0B                                                            *120 LM00200
                            SIGN = 1                                                              *121 LM00201
                       OTHERWISE                                                                  *122 LM00202
      NAMED                 NAMESW = 1B                                                           *123 LM00203
                            OLDNAM = LINE                                                         *124 LM00204
                            VALUE = VALUE+1K5+SIGN*VAL.(LINE,CODE)                                *125 LM00205
                            TYPE = TYPE .V. CODE                                                  *126 LM00206
                            DECSW = 0B                                                            *127 LM00207
                            SIGN = 1                                                              *128 LM00208
                       END OF CONDITIONAL                                                         *129 LM00209
      LOOP2       CONTINUE                                                                        *130 LM00210
                                                                                                       LM00211
                      ALL DONE WITH LINE, DETERMINE TYPE OF OUTPUT                                     LM00212
                                                                                                       LM00213
      EMPTY       VALUE = VALUE .A. 77777K                                                        *131 LM00214
                                                                                                       LM00215
                      IF SYSTEM IS NOW RUNNING, GET CONTENTS OF CELL                                   LM00216
                                                                                                       LM00217
                  WHENEVER SYSSW                                                                  *132 LM00218
                       WORD = GLOC.(VALUE)                                                        *133 LM00219
                       RESULT(2) = 575757575760K                                                  *134 LM00220
                       RESULT(3) = OCLBC.(WORD)                                                   *135 LM00221
                       RESULT(4) = OCRBC.(WORD)                                                   *136 LM00222
                  OTHERWISE                                                                       *137 LM00223
                       RESULT(2) = NULLS                                                          *138 LM00224
                       RESULT(3) = NULLS                                                          *139 LM00225
                       RESULT(4) = NULLS                                                          *140 LM00226
                  END OF CONDITIONAL                                                              *141 LM00227
                  WHENEVER NAMESW                                                                 *142 LM00228
                       WHENEVER DECSW                                                             *143 LM00229
                            RESULT(1) = BZEL.(DERBC.(VALUE))                                      *144 LM00230
                       OTHERWISE                                                                  *145 LM00231
                            RESULT(1) = OCABC.(VALUE)                                             *146 LM00232
                       END OF CONDITIONAL                                                         *147 LM00233
                                                                                                       LM00234
                      PICK UP TYPE CODE AND CONVERT IT                                                 LM00235
                                                                                                       LM00236
                       THROUGH LOOP3, FOR I = 0,1,(I.G.TYPMAX)                                    *148 LM00237
                            WHENEVER ((TYPE.RS.I).A.1K) .NE. 0,                                   *149 LM00238
                1                RESULT(0) = (RESULT(0).LS.6).V.TYPCOD(I)                         *149 LM00239
      LOOP3            CONTINUE                                                                   *150 LM00240
                                                                                                       LM00241
                      PRINT THE RESULTING VALUE                                                        LM00242
                                                                                                       LM00243
                       PRMESS.(RESULT(0),RESULT(1),RESULT(2),                                     *151 LM00244
                1           RESULT(3),RESULT(4))                                                  *151 LM00245
                  OTHERWISE                                                                       *152 LM00246
                                                                                                       LM00247
                      ONLY NUMBERS GIVEN, RETURN NAME                                                  LM00248
                                                                                                       LM00249
                                                                                                       LM00250
                      CLASSIFY NUMBER AS TO COMMON SYMBOL OR NOT                                       LM00251
                                                                                                       LM00252
                       WHENEVER (VALUE.G.LOWCOM) .OR. (VALUE.L.62K)                               *153 LM00253
                            VALUE = 4K6 .V. VALUE                                                 *154 LM00254
                       OTHERWISE                                                                  *155 LM00255
                            VALUE = 1K6 .V. VALUE                                                 *156 LM00256
                       END OF CONDITIONAL                                                         *157 LM00257
                                                                                                       LM00258
                      FIND NEAREST MATCH OF SAME TYPE                                                  LM00259
                                                                                                       LM00260
                       RESULT(0) = NAM.(VALUE)                                                    *158 LM00261
                       VALUE = DELTA .A. 77777K                                                   *159 LM00262
                       WHENEVER DECSW                                                             *160 LM00263
                            RESULT(1) = BZEL.(DERBC.(VALUE))                                      *161 LM00264
                       OTHERWISE                                                                  *162 LM00265
                            RESULT(1) = OCABC.(VALUE)                                             *163 LM00266
                       END OF CONDITIONAL                                                         *164 LM00267
                       PRMESS.(RESULT(0),RESULT(1),RESULT(2),                                     *165 LM00268
                1           RESULT(3),RESULT(4))                                                  *165 LM00269
                  END OF CONDITIONAL                                                              *166 LM00270
                                                                                                       LM00271
                      GET ANOTHER INPUT LINE                                                           LM00272
                                                                                                       LM00273
                  TRANSFER TO INPUT                                                               *167 LM00274
                                                                                                       LM00275
                      FILE ERRORS, GIVE UP                                                             LM00276
                                                                                                       LM00277
      ERR1        PRNTER.                                                                         *168 LM00278
                  DORMNT.                                                                         *169 LM00279
                                                                                                       LM00280
                      ERROR ON SYSTEM SYMBOL TABLE, ANNOUNCE IT                                        LM00281
                                                                                                       LM00282
      NOSYM       PRNTER.                                                                         *170 LM00283
      NOSYM1      PRMESS.($NO COMMON SYMBOLS ALLOWED$)                                            *171 LM00284
                  USRFIL.                                                                         *172 LM00285
                  TRANSFER TO RIP                                                                 *173 LM00286
                                                                                                       LM00287
                      EXIT ROUTINES                                                                    LM00288
                                                                                                       LM00289
      BEATIT      RESETF.                                                                         *174 LM00290
                  USRFIL.                                                                         *175 LM00291
                  CHNCOM.(0)                                                                      *176 LM00292
                                                                                                       LM00293
                  INTERNAL FUNCTION (X,Y)                                                         *177 LM00294
                  ENTRY TO VAL.                                                                   *178 LM00295
                  IN1 = X                                                                         *179 LM00296
                  THROUGH LOOP4, FOR I1 = 1,1,(I1.G.INDX1)                                        *180 LM00297
                       WHENEVER TAB11(TAB11+I1) .E. IN1                                           *181 LM00298
                            Y = TAB21(TAB21+I1) .RS. 18                                           *182 LM00299
                            FUNCTION RETURN TAB21(TAB21+I1) .A. 77777K                            *183 LM00300
                       END OF CONDITIONAL                                                         *184 LM00301
      LOOP4       CONTINUE                                                                        *185 LM00302
                                                                                                       LM00303
                      SYMBOL NOT FOUND, GRIPE                                                          LM00304
                                                                                                       LM00305
                  PRMESS.(IN1,$ NOT FOUND$)                                                       *186 LM00306
                  TRANSFER TO READY                                                               *187 LM00307
                  END OF FUNCTION                                                                 *188 LM00308
                                                                                                       LM00309
                  INTERNAL FUNCTION (X)                                                           *189 LM00310
                  ENTRY TO NAM.                                                                   *190 LM00311
                  IN1 = X .A. 77777K                                                              *191 LM00312
                  IN2 = X .RS. 18                                                                 *192 LM00313
                  DELTA = 1K5                                                                     *193 LM00314
                  THROUGH LOOP5, FOR I1 = 1,1,(I1.G.INDX1)                                        *194 LM00315
                       WHENEVER (TAB21(TAB21+I1) .RS. 18) .E. IN2                                 *195 LM00316
                            TSTVAL = TAB21(TAB21+I1) .A. 77777K                                   *196 LM00317
                            WHENEVER (TSTVAL.LE.IN1).AND.                                         *197 LM00318
                1           ((IN1-TSTVAL).L.DELTA)                                                *197 LM00319
                                 CNAM = TAB11(TAB11+I1)                                           *198 LM00320
                                 DELTA = IN1 - TSTVAL                                             *199 LM00321
                            END OF CONDITIONAL                                                    *200 LM00322
                       END OF CONDITIONAL                                                         *201 LM00323
      LOOP5       CONTINUE                                                                        *202 LM00324
                  FUNCTION RETURN CNAM                                                            *203 LM00325
                  END OF FUNCTION                                                                 *204 LM00326
                                                                                                       LM00327
                  END OF PROGRAM                                                                  *205 LM00328
1MAD PROGRAM,TYPE NOV 1963      (ALL NUMBERS ARE OCTAL)
0TOTAL LOCATIONS   01546 TRANSFER VECTOR LENGTH  00036 PROGRAM BEGINS    00261
0VARIABLE STORAGE (A=ARRAY,C=COMMON,E=ERASABLE,DIGIT=MODE)
      BEATIT 00045   4        ERR1   00051   4        LOOP4  00040   4        NULLS  00157 A 1        TAB11  00170 A 1
      BLANKS 00063 A 1        FENCE  00073 A 1        LOOP5  00040   4        OLDNAM 00160   1        TAB21  00171 A 1
      BUFF1  00064 A 1        I1     00074   1        LOWCOM 00152 A 1        READ1  00057   4        TEMP   00172   1
      BUFF2  00065 A 1        IN1    00075   1        MZE    00153 A 1        READ2  00060   4        TMAX   00173 A 1
      CNAM   00066   1        IN2    00076   1        N1     00042 A 1        READY  00061   4        TOP    00174   1
      CODE   00067   1        INDX1  00077   1        NAMED  00053   4        RESULT 00165 A 1        TSTVAL 00175   1
      DECSW  00070   2        INPUT  00052   4        NAMESW 00154   2        RIP    00062   4        TYPCOD 00200 A 1
      DELTA  00071   1        I      00100   1        NERR0  00054   4        SIGN   00166   1        TYPE   00201   1
      EMPTY  00046   4        LINE   00151 A 1        NOSYM1 00055   4        SNAME  00044 A 1        TYPMAX 00202 A 1
      EOF1   00047   4        LOOP1  00040   4        NOSYM  00056   4        STOMAP 00041   1        VALUE  00203   1
      EOF2   00050   4        LOOP2  00040   4        NPLUS1 00155   1        SYMTB  00043   1        WORD   00204   1
      EOFCT  00072   1        LOOP3  00040   4        N      00156   1        SYSSW  00167   2
0FUNCTION DICTIONARY
      BCDEC  00000   1        BCOCT  00001   1        BFCLOS 00002   1        BFOPEN 00003   1        BFREAD 00004   1
      BZEL   00005   1        CHNCOM 00006   1        COMARG 00007   1        DERBC  00010   1        DORMNT 00011   1
      EXIT   00012   1        FERRTN 00013   1        GETBUF 00014   1        GLOC   00015   1        GTWDBI 00016   1
      GTWDB  00017   1        .SETUP 00020   1        OCABC  00021   1        OCLBC  00022   1        OCRBC  00023   1
      PRMESS 00024   1        PRNTER 00025   1        RESETF 00026   1        RJUST  00027   1        SETBRK 00030   1
      SMEM   00031   1        TSSFIL 00032   1        USRFIL 00033   1        WHOAMI 00034   1        ZEL    00035   1
      NAM    00036   1        VAL    00037   1
0ABSOLUTE CONSTANTS
 00243 -066445246060     00253 -204546636026     00235 +246060606060     00233 +214343466625     00237 -042246436260
 00240 -044645606270     00241 -054660234644     00221 +000000000062     00252 -175757575760     00225 +000000077777
 00226 +000000100000     00256 -307070707070     00220 +000000000054     00224 +000000006161     00217 +000000000040
 00215 +000000000020     00251 -175757575757     00246 -112521247060     00232 +000004000000     00216 +000000000022
 00214 +000000000016     00254 -232122432560     00245 -066660462660     00244 -066525512643     00211 +000000000004
 00257 -344421314534     00230 +000001000000     00231 +000002000000     00212 +000000000005     00236 -034666256263
 00207 +000000000002     00213 +000000000006     00222 +000000000077     00227 +000000770000     00250 -116060606060
 00223 +000000000660     00210 +000000000003     00205 +000000000000     00242 -064421473460     00260 -344501606263
 00255 -244760450160     00247 -116051254362     00206 +000000000001     00234 +233000000000
0STATEMENT DICTIONARY
 00045 TXL -301333001332       00046 TXL -301143001140       00047 TXL -300610000604       00050 TXL -300752000751
 00051 TXL -301320001317       00052 TXL -300760000756       00053 TXL -301114001112       00054 TXL -300611000610
 00055 TXL -301330001322       00056 TXL -301322001321       00057 TXL -300435000432       00060 TXL -300643000634
 00061 TXL -300756000754       00062 TXL -300754000752
0PROGRAM
                 N'R                                                                001  LM00013
                 B'N NAMESW,DECSW,SYSSW                                             002  LM00014
                 D'N LINE(40)                                                       003  LM00015
                 D'N BUFF1(0),BUFF2(0)                                              004  LM00016
                 D'N TAB11(0),TAB21(0)                                              005  LM00017
                 V'S N1 = 0,$STOMAP$                                                006  LM00019
 00261 TSX +0 07400 4 00020    00041     -2 26346 4 42147    00042     +0 00000 0 00000
                 E'E (STOMAP,N1(1))                                                 007  LM00020
                 V'S SNAME = $COM000$,$ SYMTB$                                      008  LM00021
 00043     -2 06270 4 46322    00044     +2 34644 0 00000
                 E'E (SYMTB,SNAME(1))                                               009  LM00022
                 V'S RESULT = 0,0,0,0,0                                             010  LM00023
 00161     +0 00000 0 00000    00162     +0 00000 0 00000    00163     +0 00000 0 00000    00164     +0 00000 0 00000
 00165     +0 00000 0 00000
                 V'S FENCE = 777777777777K                                          011  LM00025
 00073     -3 77777 7 77777
                 V'S LOWCOM = 77461K                                                012  LM00026
 00152     +0 00000 0 77461
                 V'S MZE = - 0                                                      013  LM00027
 00153     -0 00000 0 00000
                 V'S TYPCOD = $00000F$,$00000E$,$00000C$                            014  LM00028
 00176     +0 00000 0 00023    00177     +0 00000 0 00025    00200     +0 00000 0 00026
                 V'S TMAX = 1024                                                    015  LM00029
 00173     +0 00000 0 02000
                 V'S TYPMAX = 3                                                     016  LM00030
 00202     +0 00000 0 00003
                 V'S BLANKS = $      $                                              017  LM00031
 00063     -2 06060 6 06060
                 V'S NULLS = 575757575757K                                          018  LM00032
 00157     -1 75757 5 75757
                 W'R COMARG.(1,N1) .E. FENCE                                        019  LM00036
 00262 TSX +0 07400 4 00007    00263 TXH +3 00000 0 00206    00264 TXH +3 00000 0 00042    00265 SUB +0 40200 0 00073
 00266 TNZ -0 10000 0 00276
                      PRMESS.($R RELSUP N1 (N1 STOMAP)$)                            020  LM00037
 00267 TSX +0 07400 4 00024    00270 TXH +3 00000 0 00247    00271 TXH +3 00000 0 00255    00272 TXH +3 00000 0 00260
 00273 TXH +3 00000 0 00242
                      CHNCOM.(0)                                                    021  LM00038
 00274 TSX +0 07400 4 00006    00275 TXH +3 00000 0 00205
                 E'L                                                                022  LM00039
                 WHOAMI.(LINE(3)...3)                                               023  LM00043
 00276 TSX +0 07400 4 00034    00277 TIX +2 00210 0 00146
                 W'R (LINE(1) .E. N1)                                               024  LM00044
 00300 CLA +0 50000 0 00150    00301 SUB +0 40200 0 00042    00302 TNZ -0 10000 0 00306
                      SYSSW = 1B                                                    025  LM00045
 00303 CLA +0 50000 0 00206    00304 STO +0 60100 0 00167
                 O'E                                                                026  LM00046
 00305 TRA +0 02000 0 00310
                      SYSSW = 0B                                                    027  LM00047
 00306 CLA +0 50000 0 00205    00307 STO +0 60100 0 00167
                 E'L                                                                028  LM00048
                 SETBRK.(BEATIT)                                                    029  LM00049
 00310 TSX +0 07400 4 00030    00311 TXH +3 00000 0 00045
                 FERRTN.(ERR1)                                                      030  LM00053
 00312 TSX +0 07400 4 00013    00313 TXH +3 00000 0 00051
                 INDX1 = 1                                                          031  LM00057
 00314 CLA +0 50000 0 00206    00315 STO +0 60100 0 00077
                 GETBUF.(TAB11,TMAX)                                                032  LM00058
 00316 TSX +0 07400 4 00014    00317 TXH +3 00000 0 00170    00320 TXH +3 00000 0 00173
                 GETBUF.(TAB21,TMAX)                                                033  LM00059
 00321 TSX +0 07400 4 00014    00322 TXH +3 00000 0 00171    00323 TXH +3 00000 0 00173
                 TOP = GETBUF.(BUFF1,432)                                           034  LM00063
 00324 TSX +0 07400 4 00014    00325 TXH +3 00000 0 00064    00326 TXH +3 00000 0 00223    00327 STO +0 60100 0 00174
                 GETBUF.(BUFF2,432)                                                 035  LM00064
 00330 TSX +0 07400 4 00014    00331 TXH +3 00000 0 00065    00332 TXH +3 00000 0 00223
                 BFOPEN.($R$,N1,STOMAP,BUFF1(BUFF1+432),BUFF2(BUFF2+432),           036  LM00065
                1     MZE,ERR1)                                                     036  LM00066
 00333 CLA +0 50000 0 00065    00334 ADD +0 40000 0 00223    00335 SUB +0 40200 0 00336    00336 TXH +3 00000 0 00065
 00337 STA +0 62100 0 00352    00340 CLA +0 50000 0 00064    00341 ADD +0 40000 0 00223    00342 SUB +0 40200 0 00343
 00343 TXH +3 00000 0 00064    00344 STA +0 62100 0 00351    00345 TSX +0 07400 4 00003    00346 TXH +3 00000 0 00250
 00347 TXH +3 00000 0 00042    00350 TXH +3 00000 0 00041    00351 TXH +3 00000 0 00000    00352 TXH +3 00000 0 00000
 00353 TXH +3 00000 0 00153    00354 TXH +3 00000 0 00051
                 SNAME = SNAME .V. (N1.A.770000K)                                   037  LM00067
 00355 CAL -0 50000 0 00042    00356 ANA -0 32000 0 00227    00357 ORA -0 50100 0 00044    00360 SLW +0 60200 0 00044
                 BFREAD.(N1,STOMAP,N...1,EOF1,EOFCT,ERR1)                           038  LM00071
 00361 TSX +0 07400 4 00004    00362 TXH +3 00000 0 00042    00363 TXH +3 00000 0 00041    00364 TIX +2 00206 0 00156
 00365 TXH +3 00000 0 00047    00366 TXH +3 00000 0 00072    00367 TXH +3 00000 0 00051
                 N = N .A. 77K                                                      039  LM00072
 00370 CAL -0 50000 0 00156    00371 ANA -0 32000 0 00222    00372 SLW +0 60200 0 00156
                 NPLUS1 = N + 1                                                     040  LM00073
 00373 CLA +0 50000 0 00156    00374 ADD +0 40000 0 00206    00375 STO +0 60100 0 00155
                 BFREAD.(N1,STOMAP,LINE(N)...NPLUS1,EOF1,EOFCT,ERR1)                041  LM00074
 00376 CLA +0 50000 0 00156    00377 SUB +0 40200 0 00400    00400 TXH +3 00000 0 00151    00401 STA +0 62100 0 00405
 00402 TSX +0 07400 4 00004    00403 TXH +3 00000 0 00042    00404 TXH +3 00000 0 00041    00405 TIX +2 00155 0 00000
 00406 TXH +3 00000 0 00047    00407 TXH +3 00000 0 00072    00410 TXH +3 00000 0 00051
                 N = LINE(0) .A. 77K                                                042  LM00075
 00411 CAL -0 50000 0 00151    00412 ANA -0 32000 0 00222    00413 SLW +0 60200 0 00156
                 NPLUS1 = N + 1                                                     043  LM00076
 00414 CLA +0 50000 0 00156    00415 ADD +0 40000 0 00206    00416 STO +0 60100 0 00155
                 BFREAD.(N1,STOMAP,LINE(N)...NPLUS1,EOF1,EOFCT,ERR1)                044  LM00077
 00417 CLA +0 50000 0 00156    00420 SUB +0 40200 0 00421    00421 TXH +3 00000 0 00151    00422 STA +0 62100 0 00426
 00423 TSX +0 07400 4 00004    00424 TXH +3 00000 0 00042    00425 TXH +3 00000 0 00041    00426 TIX +2 00155 0 00000
 00427 TXH +3 00000 0 00047    00430 TXH +3 00000 0 00072    00431 TXH +3 00000 0 00051
      READ1      N = LINE(0) .A. 77K                                                045  LM00081
 00432 CAL -0 50000 0 00151    00433 ANA -0 32000 0 00222    00434 SLW +0 60200 0 00156
                 NPLUS1 = N + 1                                                     046  LM00082
 00435 CLA +0 50000 0 00156    00436 ADD +0 40000 0 00206    00437 STO +0 60100 0 00155
                 BFREAD.(N1,STOMAP,LINE(N)...NPLUS1,EOF1,EOFCT,ERR1)                047  LM00083
 00440 CLA +0 50000 0 00156    00441 SUB +0 40200 0 00442    00442 TXH +3 00000 0 00151    00443 STA +0 62100 0 00447
 00444 TSX +0 07400 4 00004    00445 TXH +3 00000 0 00042    00446 TXH +3 00000 0 00041    00447 TIX +2 00155 0 00000
 00450 TXH +3 00000 0 00047    00451 TXH +3 00000 0 00072    00452 TXH +3 00000 0 00051
                 W'R N .L. 6, T'O READ1                                             048  LM00084
 00453 CLA +0 50000 0 00156    00454 SUB +0 40200 0 00213    00455 TZE +0 10000 0 00460    00456 TPL +0 12000 0 00460
 00457 TRA +0 02000 0 00057
                 W'R LINE(N-2) .NE. BLANKS                                          049  LM00088
 00460 CLA +0 50000 0 00156    00461 SUB +0 40200 0 00207    00462 PAX +0 73400 1 00000    00463 CLA +0 50000 1 00151
 00464 SUB +0 40200 0 00063    00465 TZE +0 10000 0 00603
                      W'R LINE(N-1) .E. $LOWEST$                                    050  LM00092
 00466 CLA +0 50000 0 00156    00467 SUB +0 40200 0 00206    00470 PAX +0 73400 1 00000    00471 CLA +0 50000 1 00151
 00472 SUB +0 40200 0 00236    00473 TNZ -0 10000 0 00506
                           LOWCOM = BCOCT.(LINE(N-5))                               051  LM00093
 00474 CLA +0 50000 0 00156    00475 SUB +0 40200 0 00212    00476 SUB +0 40200 0 00477    00477 TXH +3 00000 0 00151
 00500 STA +0 62100 0 00502    00501 TSX +0 07400 4 00001    00502 TXH +3 00000 0 00000    00503 STO +0 60100 0 00152
                           T'O EOF1                                                 052  LM00094
 00504 TRA +0 02000 0 00047
                      O'R LINE(N-1) .E. BLANKS                                      053  LM00095
 00505 TRA +0 02000 0 00521    00506 CLA +0 50000 0 00156    00507 SUB +0 40200 0 00206    00510 PAX +0 73400 1 00000
 00511 CLA +0 50000 1 00151    00512 SUB +0 40200 0 00063    00513 TNZ -0 10000 0 00517
                           IN2 = 2K6                                                054  LM00096
 00514 CLA +0 50000 0 00231    00515 STO +0 60100 0 00076
                      O'E                                                           055  LM00097
 00516 TRA +0 02000 0 00521
                           IN2 = 1K6                                                056  LM00098
 00517 CLA +0 50000 0 00230    00520 STO +0 60100 0 00076
                      E'L                                                           057  LM00099
                      W'R LINE(N-2) .E. 0                                           058  LM00103
 00521 CLA +0 50000 0 00156    00522 SUB +0 40200 0 00207    00523 PAX +0 73400 1 00000    00524 CLA +0 50000 1 00151
 00525 SUB +0 40200 0 00205    00526 TNZ -0 10000 0 00532
                           IN1 = $(MAIN)$                                           059  LM00104
 00527 CLA +0 50000 0 00257    00530 STO +0 60100 0 00075
                      O'E                                                           060  LM00105
 00531 TRA +0 02000 0 00542
                           IN1 = RJUST.(LINE(N-2))                                  061  LM00106
 00532 CLA +0 50000 0 00156    00533 SUB +0 40200 0 00207    00534 SUB +0 40200 0 00535    00535 TXH +3 00000 0 00151
 00536 STA +0 62100 0 00540    00537 TSX +0 07400 4 00027    00540 TXH +3 00000 0 00000    00541 STO +0 60100 0 00075
                      E'L                                                           062  LM00107
                      IN2 = IN2 .V. BCOCT.(LINE(N-4))                               063  LM00111
 00542 CLA +0 50000 0 00156    00543 SUB +0 40200 0 00211    00544 SUB +0 40200 0 00545    00545 TXH +3 00000 0 00151
 00546 STA +0 62100 0 00550    00547 TSX +0 07400 4 00001    00550 TXH +3 00000 0 00000    00551 STO +0 60100 0 01543
 00552 CAL -0 50000 0 00076    00553 ORA -0 50100 0 01543    00554 SLW +0 60200 0 00076
                      TAB11(TAB11+INDX1) = IN1                                      064  LM00115
 00555 CLA +0 50000 0 00170    00556 ADD +0 40000 0 00077    00557 PAX +0 73400 1 00000    00560 CLA +0 50000 0 00075
 00561 STO +0 60100 1 00170
                      TAB21(TAB21+INDX1) = IN2                                      065  LM00116
 00562 CLA +0 50000 0 00171    00563 ADD +0 40000 0 00077    00564 PAX +0 73400 1 00000    00565 CLA +0 50000 0 00076
 00566 STO +0 60100 1 00171
                      INDX1 = INDX1 + 1                                             066  LM00117
 00567 CLA +0 50000 0 00077    00570 ADD +0 40000 0 00206    00571 STO +0 60100 0 00077
                      W'R INDX1 .G. TMAX                                            067  LM00118
 00572 CLA +0 50000 0 00077    00573 SUB +0 40200 0 00173    00574 TZE +0 10000 0 00603    00575 TMI -0 12000 0 00603
                           PRMESS.($OVERFLOW OF TABLE$)                             068  LM00119
 00576 TSX +0 07400 4 00024    00577 TXH +3 00000 0 00244    00600 TXH +3 00000 0 00245    00601 TXH +3 00000 0 00254
                           T'O NOSYM1                                               069  LM00120
 00602 TRA +0 02000 0 00055
                      E'L                                                           070  LM00121
                 E'L                                                                071  LM00122
                 T'O READ1                                                          072  LM00123
 00603 TRA +0 02000 0 00057
      EOF1       BFCLOS.(N1,STOMAP,NERR0)                                           073  LM00127
 00604 TSX +0 07400 4 00002    00605 TXH +3 00000 0 00042    00606 TXH +3 00000 0 00041    00607 TXH +3 00000 0 00054
      NERR0      TSSFIL.                                                            074  LM00131
 00610 TSX +0 07400 4 00032
                 BFOPEN.($R$,SNAME,SYMTB,BUFF1(BUFF1+432),BUFF2(BUFF2+432),         075  LM00132
                1     MZE,NOSYM)                                                    075  LM00133
 00611 CLA +0 50000 0 00065    00612 ADD +0 40000 0 00223    00613 SUB +0 40200 0 00614    00614 TXH +3 00000 0 00065
 00615 STA +0 62100 0 00630    00616 CLA +0 50000 0 00064    00617 ADD +0 40000 0 00223    00620 SUB +0 40200 0 00621
 00621 TXH +3 00000 0 00064    00622 STA +0 62100 0 00627    00623 TSX +0 07400 4 00003    00624 TXH +3 00000 0 00250
 00625 TXH +3 00000 0 00044    00626 TXH +3 00000 0 00043    00627 TXH +3 00000 0 00000    00630 TXH +3 00000 0 00000
 00631 TXH +3 00000 0 00153    00632 TXH +3 00000 0 00056
                 USRFIL.                                                            076  LM00134
 00633 TSX +0 07400 4 00033
      READ2      BFREAD.(SNAME,SYMTB,LINE(14)...14,EOF2,EOFCT,NOSYM)                077  LM00138
 00634 TSX +0 07400 4 00004    00635 TXH +3 00000 0 00044    00636 TXH +3 00000 0 00043    00637 TIX +2 00214 0 00133
 00640 TXH +3 00000 0 00050    00641 TXH +3 00000 0 00072    00642 TXH +3 00000 0 00056
                 T'H LOOP1, FOR I = 14,-3,(I.L.2)                                   078  LM00142
 00643 CLA +0 50000 0 00214    00644 STO +0 60100 0 00100    00645 TRA +0 02000 0 00651    00646 CLS +0 50200 0 00210
 00647 ADD +0 40000 0 00100    00650 STO +0 60100 0 00100    00651 CLA +0 50000 0 00100    00652 SUB +0 40200 0 00207
 00653 TZE +0 10000 0 00655    00654 TMI -0 12000 0 00750
                      W'R LINE(I-1) .NE. BLANKS                                     079  LM00143
 00655 CLA +0 50000 0 00100    00656 SUB +0 40200 0 00206    00657 PAX +0 73400 1 00000    00660 CLA +0 50000 1 00151
 00661 SUB +0 40200 0 00063    00662 TZE +0 10000 0 00747
                           IN1 = RJUST.((LINE(I-1).LS.18) .V.                       080  LM00144
                1               (LINE(I-2).RS.18))                                  080  LM00145
 00663 CLA +0 50000 0 00100    00664 SUB +0 40200 0 00207    00665 PAX +0 73400 1 00000    00666 CAL -0 50000 0 00216
 00667 STA +0 62100 0 00671    00670 CAL -0 50000 1 00151    00671 LGR -0 76500 0 00000    00672 SLW +0 60200 0 01543
 00673 CLA +0 50000 0 00100    00674 SUB +0 40200 0 00206    00675 PAX +0 73400 1 00000    00676 CAL -0 50000 0 00216
 00677 STA +0 62100 0 00701    00700 CAL -0 50000 1 00151    00701 ALS +0 76700 0 00000    00702 ORA -0 50100 0 01543
 00703 SLW +0 60200 0 01543    00704 TSX +0 07400 4 00027    00705 TXH +3 00000 0 01543    00706 STO +0 60100 0 00075
                           IN2 = 4K6 .V. BCOCT.(LINE(I))                            081  LM00146
 00707 CLA +0 50000 0 00100    00710 SUB +0 40200 0 00711    00711 TXH +3 00000 0 00151    00712 STA +0 62100 0 00714
 00713 TSX +0 07400 4 00001    00714 TXH +3 00000 0 00000    00715 STO +0 60100 0 01543    00716 CAL -0 50000 0 00232
 00717 ORA -0 50100 0 01543    00720 SLW +0 60200 0 00076
                           TAB11(TAB11+INDX1) = IN1                                 082  LM00147
 00721 CLA +0 50000 0 00170    00722 ADD +0 40000 0 00077    00723 PAX +0 73400 1 00000    00724 CLA +0 50000 0 00075
 00725 STO +0 60100 1 00170
                           TAB21(TAB21+INDX1) = IN2                                 083  LM00148
 00726 CLA +0 50000 0 00171    00727 ADD +0 40000 0 00077    00730 PAX +0 73400 1 00000    00731 CLA +0 50000 0 00076
 00732 STO +0 60100 1 00171
                           INDX1 = INDX1 + 1                                        084  LM00149
 00733 CLA +0 50000 0 00077    00734 ADD +0 40000 0 00206    00735 STO +0 60100 0 00077
                           W'R INDX1 .G. TMAX                                       085  LM00150
 00736 CLA +0 50000 0 00077    00737 SUB +0 40200 0 00173    00740 TZE +0 10000 0 00747    00741 TMI -0 12000 0 00747
                                PRMESS.($OVERFLOW OF TABLE$)                        086  LM00151
 00742 TSX +0 07400 4 00024    00743 TXH +3 00000 0 00244    00744 TXH +3 00000 0 00245    00745 TXH +3 00000 0 00254
                                T'O EOF2                                            087  LM00152
 00746 TRA +0 02000 0 00050
                           E'L                                                      088  LM00153
                      E'L                                                           089  LM00154
      LOOP1      C'E                                                                090  LM00155
 00747 TRA +0 02000 0 00646
                 T'O READ2                                                          091  LM00156
 00750 TRA +0 02000 0 00060
      EOF2       RESETF.                                                            092  LM00160
 00751 TSX +0 07400 4 00026
      RIP        SMEM.(TOP)                                                         093  LM00161
 00752 TSX +0 07400 4 00031    00753 TXH +3 00000 0 00174
      READY      PRMESS.($READY$)                                                   094  LM00162
 00754 TSX +0 07400 4 00024    00755 TXH +3 00000 0 00246
      INPUT      SIGN = 1                                                           095  LM00166
 00756 CLA +0 50000 0 00206    00757 STO +0 60100 0 00166
                 DECSW = 0B                                                         096  LM00167
 00760 CLA +0 50000 0 00205    00761 STO +0 60100 0 00070
                 NAMESW = 0B                                                        097  LM00168
 00762 CLA +0 50000 0 00205    00763 STO +0 60100 0 00154
                 TYPE = 0                                                           098  LM00169
 00764 CLA +0 50000 0 00205    00765 STO +0 60100 0 00201
                 VALUE = 0                                                          099  LM00170
 00766 CLA +0 50000 0 00205    00767 STO +0 60100 0 00203
                 RESULT(0) = 575757575757K                                          100  LM00171
 00770 CLA +0 50000 0 00251    00771 STO +0 60100 0 00165
                 GTWDBI.                                                            101  LM00175
 00772 TSX +0 07400 4 00016
                 T'H LOOP2, FOR I = 1,1,(I.G.14)                                    102  LM00179
 00773 CLA +0 50000 0 00206    00774 STO +0 60100 0 00100    00775 TRA +0 02000 0 01001    00776 CLA +0 50000 0 00100
 00777 ADD +0 40000 0 00206    01000 STO +0 60100 0 00100    01001 CLA +0 50000 0 00100    01002 SUB +0 40200 0 00214
 01003 TZE +0 10000 0 01005    01004 TPL +0 12000 0 01140
                      GTWDB.(LINE,EMPTY)                                            103  LM00180
 01005 TSX +0 07400 4 00017    01006 TXH +3 00000 0 00151    01007 TXH +3 00000 0 00046
                      TEMP = ZEL.(LINE)                                             104  LM00184
 01010 TSX +0 07400 4 00035    01011 TXH +3 00000 0 00151    01012 STO +0 60100 0 00172
                      W'R TEMP .E. $00000+$                                         105  LM00185
 01013 CLA +0 50000 0 00172    01014 SUB +0 40200 0 00215    01015 TNZ -0 10000 0 01021
                           SIGN = 1                                                 106  LM00186
 01016 CLA +0 50000 0 00206    01017 STO +0 60100 0 00166
                      O'R TEMP .E. $00000-$                                         107  LM00187
 01020 TRA +0 02000 0 01137    01021 CLA +0 50000 0 00172    01022 SUB +0 40200 0 00217    01023 TNZ -0 10000 0 01027
                           SIGN = -1                                                108  LM00188
 01024 CLS +0 50200 0 00206    01025 STO +0 60100 0 00166
                      O'R TEMP .E. $0000//$                                         109  LM00189
 01026 TRA +0 02000 0 01137    01027 CLA +0 50000 0 00172    01030 SUB +0 40200 0 00224    01031 TNZ -0 10000 0 01035
                           DECSW = 1B                                               110  LM00190
 01032 CLA +0 50000 0 00206    01033 STO +0 60100 0 00070
                      O'R TEMP .E. $00000*$                                         111  LM00191
 01034 TRA +0 02000 0 01137    01035 CLA +0 50000 0 00172    01036 SUB +0 40200 0 00220    01037 TNZ -0 10000 0 01044
                           LINE = OLDNAM                                            112  LM00192
 01040 CLA +0 50000 0 00160    01041 STO +0 60100 0 00151
                           T'O NAMED                                                113  LM00193
 01042 TRA +0 02000 0 00053
                      O'R (TEMP .A. BLANKS) .E. 0                                   114  LM00194
 01043 TRA +0 02000 0 01137    01044 CAL -0 50000 0 00172    01045 ANA -0 32000 0 00063    01046 SLW +0 60200 0 01543
 01047 CLA +0 50000 0 01543    01050 SUB +0 40200 0 00205    01051 TNZ -0 10000 0 01112
                           W'R (.NOT.DECSW).AND.(TEMP.A.$YYYYYY$).E.0               115  LM00195
 01052 CAL -0 50000 0 00172    01053 ANA -0 32000 0 00256    01054 SLW +0 60200 0 01543    01055 CLA +0 50000 0 01543
 01056 SUB +0 40200 0 00205    01057 TNZ -0 10000 0 01074    01060 ZET +0 52000 0 00070    01061 TRA +0 02000 0 01074
                                VALUE = VALUE+1K5+SIGN*BCOCT.(TEMP)                 116  LM00196
 01062 TSX +0 07400 4 00001    01063 TXH +3 00000 0 00172    01064 XCA +0 13100 0 00000    01065 MPY +0 20000 0 00166
 01066 STQ -0 60000 0 01543    01067 CLA +0 50000 0 00203    01070 ADD +0 40000 0 00226    01071 ADD +0 40000 0 01543
 01072 STO +0 60100 0 00203
                           O'E                                                      117  LM00197
 01073 TRA +0 02000 0 01105
                                VALUE = VALUE+1K5+SIGN*BCDEC.(TEMP)                 118  LM00198
 01074 TSX +0 07400 4 00000    01075 TXH +3 00000 0 00172    01076 XCA +0 13100 0 00000    01077 MPY +0 20000 0 00166
 01100 STQ -0 60000 0 01543    01101 CLA +0 50000 0 00203    01102 ADD +0 40000 0 00226    01103 ADD +0 40000 0 01543
 01104 STO +0 60100 0 00203
                           E'L                                                      119  LM00199
                           DECSW = 0B                                               120  LM00200
 01105 CLA +0 50000 0 00205    01106 STO +0 60100 0 00070
                           SIGN = 1                                                 121  LM00201
 01107 CLA +0 50000 0 00206    01110 STO +0 60100 0 00166
                      O'E                                                           122  LM00202
 01111 TRA +0 02000 0 01137
      NAMED                NAMESW = 1B                                              123  LM00203
 01112 CLA +0 50000 0 00206    01113 STO +0 60100 0 00154
                           OLDNAM = LINE                                            124  LM00204
 01114 CLA +0 50000 0 00151    01115 STO +0 60100 0 00160
                           VALUE = VALUE+1K5+SIGN*VAL.(LINE,CODE)                   125  LM00205
 01116 TSX +0 07400 4 00037    01117 TXH +3 00000 0 00151    01120 TXH +3 00000 0 00067    01121 XCA +0 13100 0 00000
 01122 MPY +0 20000 0 00166    01123 STQ -0 60000 0 01543    01124 CLA +0 50000 0 00203    01125 ADD +0 40000 0 00226
 01126 ADD +0 40000 0 01543    01127 STO +0 60100 0 00203
                           TYPE = TYPE .V. CODE                                     126  LM00206
 01130 CAL -0 50000 0 00201    01131 ORA -0 50100 0 00067    01132 SLW +0 60200 0 00201
                           DECSW = 0B                                               127  LM00207
 01133 CLA +0 50000 0 00205    01134 STO +0 60100 0 00070
                           SIGN = 1                                                 128  LM00208
 01135 CLA +0 50000 0 00206    01136 STO +0 60100 0 00166
                      E'L                                                           129  LM00209
      LOOP2      C'E                                                                130  LM00210
 01137 TRA +0 02000 0 00776
      EMPTY      VALUE = VALUE .A. 77777K                                           131  LM00214
 01140 CAL -0 50000 0 00203    01141 ANA -0 32000 0 00225    01142 SLW +0 60200 0 00203
                 W'R SYSSW                                                          132  LM00218
 01143 NZT -0 52000 0 00167    01144 TRA +0 02000 0 01161
                      WORD = GLOC.(VALUE)                                           133  LM00219
 01145 TSX +0 07400 4 00015    01146 TXH +3 00000 0 00203    01147 STO +0 60100 0 00204
                      RESULT(2) = 575757575760K                                     134  LM00220
 01150 CLA +0 50000 0 00252    01151 STO +0 60100 0 00163
                      RESULT(3) = OCLBC.(WORD)                                      135  LM00221
 01152 TSX +0 07400 4 00022    01153 TXH +3 00000 0 00204    01154 STO +0 60100 0 00162
                      RESULT(4) = OCRBC.(WORD)                                      136  LM00222
 01155 TSX +0 07400 4 00023    01156 TXH +3 00000 0 00204    01157 STO +0 60100 0 00161
                 O'E                                                                137  LM00223
 01160 TRA +0 02000 0 01167
                      RESULT(2) = NULLS                                             138  LM00224
 01161 CLA +0 50000 0 00157    01162 STO +0 60100 0 00163
                      RESULT(3) = NULLS                                             139  LM00225
 01163 CLA +0 50000 0 00157    01164 STO +0 60100 0 00162
                      RESULT(4) = NULLS                                             140  LM00226
 01165 CLA +0 50000 0 00157    01166 STO +0 60100 0 00161
                 E'L                                                                141  LM00227
                 W'R NAMESW                                                         142  LM00228
 01167 NZT -0 52000 0 00154    01170 TRA +0 02000 0 01247
                      W'R DECSW                                                     143  LM00229
 01171 NZT -0 52000 0 00070    01172 TRA +0 02000 0 01202
                           RESULT(1) = BZEL.(DERBC.(VALUE))                         144  LM00230
 01173 TSX +0 07400 4 00010    01174 TXH +3 00000 0 00203    01175 STO +0 60100 0 01543    01176 TSX +0 07400 4 00005
 01177 TXH +3 00000 0 01543    01200 STO +0 60100 0 00164
                      O'E                                                           145  LM00231
 01201 TRA +0 02000 0 01205
                           RESULT(1) = OCABC.(VALUE)                                146  LM00232
 01202 TSX +0 07400 4 00021    01203 TXH +3 00000 0 00203    01204 STO +0 60100 0 00164
                      E'L                                                           147  LM00233
                      T'H LOOP3, FOR I = 0,1,(I.G.TYPMAX)                           148  LM00237
 01205 CLA +0 50000 0 00205    01206 STO +0 60100 0 00100    01207 TRA +0 02000 0 01213    01210 CLA +0 50000 0 00100
 01211 ADD +0 40000 0 00206    01212 STO +0 60100 0 00100    01213 CLA +0 50000 0 00100    01214 SUB +0 40200 0 00202
 01215 TZE +0 10000 0 01217    01216 TPL +0 12000 0 01240
                           W'R ((TYPE.RS.I).A.1K) .NE. 0,                           149  LM00238
                1               RESULT(0) = (RESULT(0).LS.6).V.TYPCOD(I)            149  LM00239
 01217 CAL -0 50000 0 00100    01220 STA +0 62100 0 01222    01221 CAL -0 50000 0 00201    01222 LGR -0 76500 0 00000
 01223 ANA -0 32000 0 00206    01224 SLW +0 60200 0 01543    01225 CLA +0 50000 0 01543    01226 SUB +0 40200 0 00205
 01227 TZE +0 10000 0 01237    01230 CAL -0 50000 0 00213    01231 STA +0 62100 0 01233    01232 CAL -0 50000 0 00165
 01233 ALS +0 76700 0 00000    01234 LXA +0 53400 2 00100    01235 ORA -0 50100 2 00200    01236 SLW +0 60200 0 00165
      LOOP3           C'E                                                           150  LM00240
 01237 TRA +0 02000 0 01210
                      PRMESS.(RESULT(0),RESULT(1),RESULT(2),                        151  LM00244
                1          RESULT(3),RESULT(4))                                     151  LM00245
 01240 TSX +0 07400 4 00024    01241 TXH +3 00000 0 00165    01242 TXH +3 00000 0 00164    01243 TXH +3 00000 0 00163
 01244 TXH +3 00000 0 00162    01245 TXH +3 00000 0 00161
                 O'E                                                                152  LM00246
 01246 TRA +0 02000 0 01316
                      W'R (VALUE.G.LOWCOM) .OR. (VALUE.L.62K)                       153  LM00253
 01247 CLA +0 50000 0 00203    01250 SUB +0 40200 0 00221    01251 TZE +0 10000 0 01253    01252 TMI -0 12000 0 01257
 01253 CLA +0 50000 0 00203    01254 SUB +0 40200 0 00152    01255 TZE +0 10000 0 01263    01256 TMI -0 12000 0 01263
                           VALUE = 4K6 .V. VALUE                                    154  LM00254
 01257 CAL -0 50000 0 00232    01260 ORA -0 50100 0 00203    01261 SLW +0 60200 0 00203
                      O'E                                                           155  LM00255
 01262 TRA +0 02000 0 01266
                           VALUE = 1K6 .V. VALUE                                    156  LM00256
 01263 CAL -0 50000 0 00230    01264 ORA -0 50100 0 00203    01265 SLW +0 60200 0 00203
                      E'L                                                           157  LM00257
                      RESULT(0) = NAM.(VALUE)                                       158  LM00261
 01266 TSX +0 07400 4 00036    01267 TXH +3 00000 0 00203    01270 STO +0 60100 0 00165
                      VALUE = DELTA .A. 77777K                                      159  LM00262
 01271 CAL -0 50000 0 00071    01272 ANA -0 32000 0 00225    01273 SLW +0 60200 0 00203
                      W'R DECSW                                                     160  LM00263
 01274 NZT -0 52000 0 00070    01275 TRA +0 02000 0 01305
                           RESULT(1) = BZEL.(DERBC.(VALUE))                         161  LM00264
 01276 TSX +0 07400 4 00010    01277 TXH +3 00000 0 00203    01300 STO +0 60100 0 01543    01301 TSX +0 07400 4 00005
 01302 TXH +3 00000 0 01543    01303 STO +0 60100 0 00164
                      O'E                                                           162  LM00265
 01304 TRA +0 02000 0 01310
                           RESULT(1) = OCABC.(VALUE)                                163  LM00266
 01305 TSX +0 07400 4 00021    01306 TXH +3 00000 0 00203    01307 STO +0 60100 0 00164
                      E'L                                                           164  LM00267
                      PRMESS.(RESULT(0),RESULT(1),RESULT(2),                        165  LM00268
                1          RESULT(3),RESULT(4))                                     165  LM00269
 01310 TSX +0 07400 4 00024    01311 TXH +3 00000 0 00165    01312 TXH +3 00000 0 00164    01313 TXH +3 00000 0 00163
 01314 TXH +3 00000 0 00162    01315 TXH +3 00000 0 00161
                 E'L                                                                166  LM00270
                 T'O INPUT                                                          167  LM00274
 01316 TRA +0 02000 0 00052
      ERR1       PRNTER.                                                            168  LM00278
 01317 TSX +0 07400 4 00025
                 DORMNT.                                                            169  LM00279
 01320 TSX +0 07400 4 00011
      NOSYM      PRNTER.                                                            170  LM00283
 01321 TSX +0 07400 4 00025
      NOSYM1     PRMESS.($NO COMMON SYMBOLS ALLOWED$)                               171  LM00284
 01322 TSX +0 07400 4 00024    01323 TXH +3 00000 0 00241    01324 TXH +3 00000 0 00240    01325 TXH +3 00000 0 00237
 01326 TXH +3 00000 0 00233    01327 TXH +3 00000 0 00235
                 USRFIL.                                                            172  LM00285
 01330 TSX +0 07400 4 00033
                 T'O RIP                                                            173  LM00286
 01331 TRA +0 02000 0 00062
      BEATIT     RESETF.                                                            174  LM00290
 01332 TSX +0 07400 4 00026
                 USRFIL.                                                            175  LM00291
 01333 TSX +0 07400 4 00033
                 CHNCOM.(0)                                                         176  LM00292
 01334 TSX +0 07400 4 00006    01335 TXH +3 00000 0 00205
                 INTERNAL FUNCTION (X,Y)                                            177  LM00294
 01336 TRA +0 02000 0 01430
                 E'O VAL.                                                           178  LM00295
 01337 TRA +0 02000 0 01342    00037 TTR +0 02100 0 01340    01340 SXA +0 63400 2 01413    01341 TSX +0 07400 2 01413
                 IN1 = X                                                            179  LM00296
 01342 CLA +0 50000 0 00024    01343 STO +0 60100 0 00075
                 T'H LOOP4, FOR I1 = 1,1,(I1.G.INDX1)                               180  LM00297
 01344 CLA +0 50000 0 00206    01345 STO +0 60100 0 00074    01346 TRA +0 02000 0 01352    01347 CLA +0 50000 0 00074
 01350 ADD +0 40000 0 00206    01351 STO +0 60100 0 00074    01352 CLA +0 50000 0 00074    01353 SUB +0 40200 0 00077
 01354 TZE +0 10000 0 01356    01355 TPL +0 12000 0 01405
                      W'R TAB11(TAB11+I1) .E. IN1                                   181  LM00298
 01356 CLA +0 50000 0 00170    01357 ADD +0 40000 0 00074    01360 PAX +0 73400 1 00000    01361 CLA +0 50000 1 00170
 01362 SUB +0 40200 0 00075    01363 TNZ -0 10000 0 01404
                           Y = TAB21(TAB21+I1) .RS. 18                              182  LM00299
 01364 CLA +0 50000 0 00171    01365 ADD +0 40000 0 00074    01366 PAX +0 73400 1 00000    01367 CAL -0 50000 0 00216
 01370 STA +0 62100 0 01372    01371 CAL -0 50000 1 00171    01372 LGR -0 76500 0 00000    01373 SLW +0 60200 0 00024
                           F'N TAB21(TAB21+I1) .A. 77777K                           183  LM00300
 01374 CLA +0 50000 0 00171    01375 ADD +0 40000 0 00074    01376 PAX +0 73400 1 00000    01377 CAL -0 50000 1 00171
 01400 ANA -0 32000 0 00225    01401 SLW +0 60200 0 01427    01402 CLA +0 50000 0 01427    01403 TRA +0 02000 0 01423
                      E'L                                                           184  LM00301
      LOOP4      C'E                                                                185  LM00302
 01404 TRA +0 02000 0 01347
                 PRMESS.(IN1,$ NOT FOUND$)                                          186  LM00306
 01405 TSX +0 07400 4 00024    01406 TXH +3 00000 0 00075    01407 TXH +3 00000 0 00253    01410 TXH +3 00000 0 00243
                 T'O READY                                                          187  LM00307
 01411 TRA +0 02000 0 00061
                 E'N                                                                188  LM00308
 01412 TSX +0 07400 4 00012    01413 TXH +3 00000 0 00000    01414 SXD -0 63400 1 01413    01415 SXA +0 63400 4 01423
 01416 CLA +0 50000 4 00001    01417 STA +0 62100 0 01342    01420 CLA +0 50000 4 00002    01421 STA +0 62100 0 01373
 01422 TRA +0 02000 2 00001    01423 AXT +0 77400 4 00000    01424 LXA +0 53400 2 01413    01425 LXD -0 53400 1 01413
 01426 TRA +0 02000 4 00001
                 INTERNAL FUNCTION (X)                                              189  LM00310
 01430 TRA +0 02000 0 01542
                 E'O NAM.                                                           190  LM00311
 01431 TRA +0 02000 0 01434    00036 TTR +0 02100 0 01432    01432 SXA +0 63400 2 01526    01433 TSX +0 07400 2 01526
                 IN1 = X .A. 77777K                                                 191  LM00312
 01434 CAL -0 50000 0 00024    01435 ANA -0 32000 0 00225    01436 SLW +0 60200 0 00075
                 IN2 = X .RS. 18                                                    192  LM00313
 01437 CAL -0 50000 0 00216    01440 STA +0 62100 0 01442    01441 CAL -0 50000 0 00024    01442 LGR -0 76500 0 00000
 01443 SLW +0 60200 0 00076
                 DELTA = 1K5                                                        193  LM00314
 01444 CLA +0 50000 0 00226    01445 STO +0 60100 0 00071
                 T'H LOOP5, FOR I1 = 1,1,(I1.G.INDX1)                               194  LM00315
 01446 CLA +0 50000 0 00206    01447 STO +0 60100 0 00074    01450 TRA +0 02000 0 01454    01451 CLA +0 50000 0 00074
 01452 ADD +0 40000 0 00206    01453 STO +0 60100 0 00074    01454 CLA +0 50000 0 00074    01455 SUB +0 40200 0 00077
 01456 TZE +0 10000 0 01460    01457 TPL +0 12000 0 01523
                      W'R (TAB21(TAB21+I1) .RS. 18) .E. IN2                         195  LM00316
 01460 CLA +0 50000 0 00171    01461 ADD +0 40000 0 00074    01462 PAX +0 73400 1 00000    01463 CAL -0 50000 0 00216
 01464 STA +0 62100 0 01466    01465 CAL -0 50000 1 00171    01466 LGR -0 76500 0 00000    01467 SLW +0 60200 0 01541
 01470 CLA +0 50000 0 01541    01471 SUB +0 40200 0 00076    01472 TNZ -0 10000 0 01522
                           TSTVAL = TAB21(TAB21+I1) .A. 77777K                      196  LM00317
 01473 CLA +0 50000 0 00171    01474 ADD +0 40000 0 00074    01475 PAX +0 73400 1 00000    01476 CAL -0 50000 1 00171
 01477 ANA -0 32000 0 00225    01500 SLW +0 60200 0 00175
                           W'R (TSTVAL.LE.IN1).AND.                                 197  LM00318
                1          ((IN1-TSTVAL).L.DELTA)                                   197  LM00319
 01501 CLA +0 50000 0 00075    01502 SUB +0 40200 0 00175    01503 SUB +0 40200 0 00071    01504 TZE +0 10000 0 01522
 01505 TPL +0 12000 0 01522    01506 CLA +0 50000 0 00175    01507 SUB +0 40200 0 00075    01510 TZE +0 10000 0 01512
 01511 TPL +0 12000 0 01522
                                CNAM = TAB11(TAB11+I1)                              198  LM00320
 01512 CLA +0 50000 0 00170    01513 ADD +0 40000 0 00074    01514 PAX +0 73400 2 00000    01515 CLA +0 50000 2 00170
 01516 STO +0 60100 0 00066
                                DELTA = IN1 - TSTVAL                                199  LM00321
 01517 CLA +0 50000 0 00075    01520 SUB +0 40200 0 00175    01521 STO +0 60100 0 00071
                           E'L                                                      200  LM00322
                      E'L                                                           201  LM00323
      LOOP5      C'E                                                                202  LM00324
 01522 TRA +0 02000 0 01451
                 F'N CNAM                                                           203  LM00325
 01523 CLA +0 50000 0 00066    01524 TRA +0 02000 0 01535
                 E'N                                                                204  LM00326
 01525 TSX +0 07400 4 00012    01526 TXH +3 00000 0 00000    01527 SXD -0 63400 1 01526    01530 SXA +0 63400 4 01535
 01531 CLA +0 50000 4 00001    01532 STA +0 62100 0 01434    01533 STA +0 62100 0 01441    01534 TRA +0 02000 2 00001
 01535 AXT +0 77400 4 00000    01536 LXA +0 53400 2 01526    01537 LXD -0 53400 1 01526    01540 TRA +0 02000 4 00001
                 E'M                                                                205  LM00328
 01542 TSX +0 07400 4 00012
1            ROUTINE TO GET A BUFFER AREA BY EXPANDING MEMORY BOUND                              PAGE 1
                           D.R. WIDRIG  JUNE 1966

                       00004         ENTRY   GETBUF        GET A BUFFER

                                     EXTERN  GETMEM,SETMEM

                                             CALLING SEQUENCE IS..  GETBUF.(BUFF,N)
                                             UPON RETURN, THE CALLER MAY USE THE
                                             AREA BY STATEMENTS OF THE FORM..  X = BUFF(BUFF+I)
                                             WHERE THE I'TH ELEMENT IS INTENDED

        TRANSFER VECTOR
      00000  272563442544     GETMEM
      00001  622563442544     SETMEM

            LINKAGE DIRECTOR
      00002  000000000000
      00003  272563226426

      00004  0636 00 4 00024  GETBUF SCA     X4,4          SAVE LINKAGE
      00005  0634 00 1 00025         SXA     X1,1          AND IR1
      00006  0535 00 1 00024         LAC     X4,1          SET IR1 TO IR4 (THE CALLER)

      00007  0074 00 4 00000         TSX     GETMEM,4      GET CURRENT MEMORY BOUND
      00010  0601 00 0 00027         STO     OLDMEM        SAVE OLD MEMORY BOUND
      00011  0400 60 1 00002         ADD*    2,1           ALLOW FOR USER'S DEMAND
      00012  0734 00 4 00000         PAX     0,4           SAVE COMPLEMENT OF THIS VALUE
      00013 -0636 00 4 00020         SCD     TXI,4         ..
      00014  0400 00 0 00030         ADD     =1            ALLOW FOR BUFF(0)
      00015  0074 00 4 00001         TSX     SETMEM,4      RAISE THE ROOF

      00016 -0500 00 1 00001         CAL     1,1           GET BASE POINTER
      00017  0734 00 4 00000         PAX     0,4           ..
      00020  1 00000 4 00021  TXI    TXI     *+1,4,**      DECREMENT BY AMOUNT OF STORAGE
      00021  0754 00 4 00000         PXA     0,4           SET THIS VALUE IN USER'S PROGRAM
      00022  0602 60 1 00001         SLW*    1,1           ..
      00023  0500 00 0 00027         CLA     OLDMEM        RETURN OLD MEMORY BOUND

      00024 -0774 00 4 00000  X4     AXC     **,4          RESTORE LINKAGE
      00025  0774 00 1 00000  X1     AXT     **,1          AND IR1
      00026  0020 00 4 00003         TRA     3,4           RETURN

      00027                   OLDMEM BSS     1             STORAGE FOR OLD MEMORY BOUND

                                     END

        LITERALS
      00030  000000000001
1            ROUTINE TO GET A BUFFER AREA BY EXPANDING MEMORY BOUND                              PAGE 1
                        POST PROCESSOR ASSEMBLY DATA

         31 IS THE FIRST LOCATION NOT USED BY THIS PROGRAM

0REFERENCES TO DEFINED SYMBOLS
         25     X1     5
         24     X4     4,    6
         20    TXI    13
          4 GETBUF     0
          0 GETMEM     7
         27 OLDMEM    10,   23
          1 SETMEM    15

0 NO ERROR IN ABOVE ASSEMBLY.


REMOVE   BCD 09/20/68 0220.9   14693         00000
1     MAD PROGRAM LISTING ... ... ...                 FILE  REMOVE   MAD            02/15/68    1740.3
-
                      DATE-REMOVE PROGRAM                                                              LM00001
                                                                                                       LM00002
                      LOADING INSTRUCTIONS                                                             LM00003
                                                                                                       LM00004
                           MAD REMOVE (LIST)                                                           LM00005
                           MAD RLIBE (LIST)                                                            LM00006
                           FAP .SETUP (LIST)                                                           LM00007
                           NCLOAD REMOVE RLIBE .SETUP                                                  LM00008
                           SAVE REMOVE                                                                 LM00009
                           R REMOVE MMDDYY                                                             LM00010
                                                                                                       LM00011
                      ALL FILES UNUSED SINCE MMDDYY WILL BE REMOVED                                    LM00012
                           D.R. WIDRIG  DEC. 1965                                                      LM00013
                                                                                                       LM00014
                  NORMAL MODE IS INTEGER                                                          *001 LM00015
                  DIMENSION V(2),UFD(7),USR(7)                                                    *002 LM00016
                  DIMENSION BUFF1(432),BUFF2(432),BUFF3(432),BUFF4(432)                           *003 LM00017
                                                                                                       LM00018
                  VECTOR VALUES MFD = $M.F.D.$                                                    *004 LM00019
                  VECTOR VALUES UF = $U.F.D.$                                                     *005 LM00020
                  VECTOR VALUES FILE = $(FILE)$                                                   *006 LM00021
                  VECTOR VALUES TESTSW = 0B                                                       *007 LM00022
                  VECTOR VALUES NPNDSW = 0B                                                       *008 LM00023
                  VECTOR VALUES TRECS  = 0                                                        *009 LM00024
                  VECTOR VALUES DRECS  = 0                                                        *010 LM00025
                  VECTOR VALUES DCNT   = 0                                                        *011 LM00026
                  VECTOR VALUES DONTSW = 0B                                                       *012 LM00027
                  VECTOR VALUES PRTSW  = 0B                                                       *013 LM00028
                  VECTOR VALUES B1B    = 60 5757575757K                                           *014 LM00029
                                                                                                       LM00030
                  VECTOR VALUES R = 432                                                           *015 LM00031
                  VECTOR VALUES MZE = 4K11                                                        *016 LM00032
                  VECTOR VALUES FENCE = 777777777777K                                             *017 LM00033
                                                                                                       LM00034
                                                                                                       LM00035
                      GET AND CHECK DATES                                                              LM00036
                                                                                                       LM00037
                  WHENEVER COMARG.(1,OLDEST) .E. FENCE                                            *018 LM00038
      OUT              PRMESS.($DATE IS BAD.$)                                                    *019 LM00039
                       CHNCOM.(0)                                                                 *020 LM00040
                  END OF CONDITIONAL                                                              *021 LM00041
                  WHENEVER COMARG.(2,ARG) .E. $(PRNT)$                                            *022 LM00042
                       PRTSW = 1B                                                                 *023 LM00043
                  OR WHENEVER ARG  .E. $(TEST)$                                                   *024 LM00044
                       PRTSW = 1B                                                                 *025 LM00045
                       TESTSW = 1B                                                                *026 LM00046
                  END OF CONDITIONAL                                                              *027 LM00047
                  WHENEVER COMARG.(3,ARG) .E. $(NPND)$, NPNDSW = 1B                               *028 LM00048
                  SETBRK.(EOF1)                                                                   *029 LM00049
                  OLDEST = DATECV.(OLDEST,OUT)                                                    *030 LM00050
                  TODAY = DATECV.(DATE.(0),OUT)                                                   *031 LM00051
                                                                                                       LM00052
                      REMEMBERING WHERE YOU WERE, ATTACH TO MFD                                        LM00053
                                                                                                       LM00054
                  ATTNAM.(V(2)...2,NERR3)                                                         *032 LM00055
                  ATTACH.(MFD,FILE,ERR1)                                                          *033 LM00056
                                                                                                       LM00057
                      OPEN AND READ MFD                                                                LM00058
                                                                                                       LM00059
                  BFOPEN.($R$,UF,FILE,BUFF1(R),BUFF2(R),MZE,ERR1)                                 *034 LM00060
                  BFREAD.(UF,FILE,USR(3)...3,EOF1,EOFCT,ERR1)                                     *035 LM00061
                                                                                                       LM00062
      READM       BFREAD.(UF,FILE,USR(7)...7,EOF1,EOFCT,ERR1)                                     *036 LM00063
                  WHENEVER ((USR(7).E.0).AND.(USR(6).E.0)).OR.                                    *037 LM00064
                1      (USR(7).E.MFD).OR.(USR(6).E.FILE), TRANSFER TO READM                       *037 LM00065
                                                                                                       LM00066
                      FOUND USER, OPEN AND READ HIS UFD                                                LM00067
                      MAKE SURE ATTACHED TO MFD                                                        LM00068
                                                                                                       LM00069
                  ATTACH.(MFD,FILE,ERR1)                                                          *038 LM00070
                  BFOPEN.($R$,USR(7),USR(6),BUFF3(R),BUFF4(R),MZE,ERR2)                           *039 LM00071
                  BFREAD.(USR(7),USR(6),UFD(3)...3,EOF2,EOFCT,ERR2)                               *040 LM00072
                                                                                                       LM00073
                      IS THIS FILE DIRECTORY PROTECTED.Q.                                              LM00074
                                                                                                       LM00075
                  WHENEVER USR(7) .E. $ M1416$                                                    *041 LM00076
                1      .OR. USR(7) .E. $ M4060$                                                   *041 LM00077
                       DONTSW = 1B                                                                *042 LM00078
                  OTHERWISE                                                                       *043 LM00079
                       DONTSW = 0B                                                                *044 LM00080
                  END OF CONDITIONAL                                                              *045 LM00081
                                                                                                       LM00082
                                                                                                       LM00083
      READU       BFREAD.(USR(7),USR(6),UFD(7)...7,EOF2,EOFCT,ERR2)                               *046 LM00084
                  DEVICE = (UFD(3).RS.15).A.7K                                                    *047 LM00085
                  WHENEVER ((UFD(7).E.0).AND.(UFD(6).E.0)).OR.                                    *048 LM00086
                1      (DEVICE.NE.2).OR.(((UFD(2).RS.18).A.77777K).E.0),                          *048 LM00087
                2      TRANSFER TO READU                                                          *048 LM00088
                                                                                                       LM00089
                      TEST DATE-LAST-USED AGAINST OLDEST DATE ALLOWED                                  LM00090
                                                                                                       LM00091
                  RECS = (UFD(2) .RS. 18) .A. 77777K                                              *049 LM00092
                  TRECS = TRECS + RECS                                                            *050 LM00093
                  WHENEVER UFD(4) .L. OLDEST                                                      *051 LM00094
                                                                                                       LM00095
                      DELETABLE FILE                                                                   LM00096
                                                                                                       LM00097
                  WHENEVER DONTSW                                                                 *052 LM00098
                       WHENEVER NPNDSW, TRANSFER TO READU                                         *053 LM00099
                       PRMESS.(USR(7),B1B,USR(6),B1B,UFD(7),B1B,                                  *054 LM00100
                1       UFD(6),$       NOT DELETED$)                                              *054 LM00101
                       TRANSFER TO READU                                                          *055 LM00102
                  OR WHENEVER PRTSW                                                               *056 LM00103
                       PRMESS.(USR(7),B1B,USR(6),B1B,UFD(7),B1B,UFD(6),B1B,                       *057 LM00104
                1       BZEL.(DERBC.(RECS)) )                                                     *057 LM00105
                  END OF CONDITIONAL                                                              *058 LM00106
                                                                                                       LM00107
                  DRECS = DRECS + RECS                                                            *059 LM00108
                  DCNT  = DCNT  + 1                                                               *060 LM00109
                                                                                                       LM00110
                  WHENEVER TESTSW, TRANSFER TO READU                                              *061 LM00111
                                                                                                       LM00112
                       ATTACH.(USR(7),USR(6),ERR2)                                                *062 LM00113
                       CHFILE.(UFD(7),UFD(6),001K,MZE,MZE,NERR1)                                  *063 LM00114
      NERR1            DELFIL.(UFD(7),UFD(6),NERR2)                                               *064 LM00115
      NERR2            MODE = (UFD(3).RS.28) .V. 2K                                               *065 LM00116
                       UFD(4) = (UFD(4).A.777777K) .V. TODAY                                      *066 LM00117
                       SETFIL.(UFD(7),UFD(6),UFD(5),UFD(4),MODE,DEVICE,ERR3)                      *067 LM00118
                  END OF CONDITIONAL                                                              *068 LM00119
                  TRANSFER TO READU                                                               *069 LM00120
                                                                                                       LM00121
                      EOF ON UFD ENTRY, CLOSE FILE AND CONTINUE                                        LM00122
                                                                                                       LM00123
      EOF2        BFCLOS.(USR(7),USR(6),ERR2)                                                     *070 LM00124
                  TRANSFER TO READM                                                               *071 LM00125
                                                                                                       LM00126
                      EOF ON MFD, FINISH UP AND QUIT                                                   LM00127
                                                                                                       LM00128
      EOF1        BFCLOS.(UF,FILE,ERR1)                                                           *072 LM00129
      BAIL        ATTACH.(V(2),V(1),NERR3)                                                        *073 LM00130
                  WHENEVER TESTSW, PRMESA.($WOULD HAVE$)                                          *074 LM00131
                  PRMESS.($DELETED$,BZEL.(DERBC.(DCNT)),$ FILES$,BZEL.(DERBC.                     *075 LM00132
                1  (DRECS)),                                                                      *075 LM00133
                1  $ RECS.$)                                                                      *075 LM00134
                  PRMESS.                                                                         *076 LM00135
                  PRMESS.(BZEL.(DERBC.(TRECS)),$ RECS IN,$,BZEL.(DERBC.                           *077 LM00136
                1  (TRECS-DRECS)),                                                                *077 LM00137
                1  $ RECS OUT,$,BZEL.(DERBC.((100*DRECS)/TRECS)),$ PCT.$)                         *077 LM00138
                  PRMESS.                                                                         *078 LM00139
      NERR3       CHNCOM.(0)                                                                      *079 LM00140
                                                                                                       LM00141
                      ERROR IN MFD, FATAL                                                              LM00142
                                                                                                       LM00143
      ERR1        PRNTER.                                                                         *080 LM00144
                  PRMESS.($FATAL ERROR$)                                                          *081 LM00145
                  TRANSFER TO BAIL                                                                *082 LM00146
                                                                                                       LM00147
                      ERROR IN UFD, SKIP AND CONTINUE                                                  LM00148
                                                                                                       LM00149
      ERR2        PRNTER.                                                                         *083 LM00150
                  BFCLOS.(USR(7),USR(6),READM)                                                    *084 LM00151
                  TRANSFER TO READM                                                               *085 LM00152
                                                                                                       LM00153
                      ERROR IN REMOVING FILE, CONTINUE                                                 LM00154
                                                                                                       LM00155
      ERR3        PRNTER.                                                                         *086 LM00156
                  TRANSFER TO READU                                                               *087 LM00157
                                                                                                       LM00158
                  END OF PROGRAM                                                                  *088 LM00159
1MAD PROGRAM,TYPE NOV 1963      (ALL NUMBERS ARE OCTAL)
0TOTAL LOCATIONS   04224 TRANSFER VECTOR LENGTH  00024 PROGRAM BEGINS    03460
0VARIABLE STORAGE (A=ARRAY,C=COMMON,E=ERASABLE,DIGIT=MODE)
      ARG    00041   1        DEVICE 03350   1        ERR3   00032   4        NERR3  00035   4        R      03365 A 1
      B1B    00042 A 1        DONTSW 03351 A 2        FENCE  03354 A 1        NPNDSW 03361 A 2        TESTSW 03366 A 2
      BAIL   00025   4        DRECS  03352 A 1        FILE   03355 A 1        OLDEST 03362   1        TODAY  03367   1
      BUFF1  00723 A 1        EOF1   00026   4        MFD    03356 A 1        OUT    00036   4        TRECS  03370 A 1
      BUFF2  01604 A 1        EOF2   00027   4        MODE   03357   1        PRTSW  03363 A 2        UFD    03400 A 1
      BUFF3  02465 A 1        EOFCT  03353   1        MZE    03360 A 1        READM  00037   4        UF     03401 A 1
      BUFF4  03346 A 1        ERR1   00030   4        NERR1  00033   4        READU  00040   4        USR    03411 A 1
      DCNT   03347 A 1        ERR2   00031   4        NERR2  00034   4        RECS   03364   1        V      03414 A 1
0FUNCTION DICTIONARY
      ATTACH 00000   1        ATTNAM 00001   1        BFCLOS 00002   1        BFOPEN 00003   1        BFREAD 00004   1
      BZEL   00005   1        CHFILE 00006   1        CHNCOM 00007   1        COMARG 00010   1        DATECV 00011   1
      DATE   00012   1        DELFIL 00013   1        DERBC  00014   1        EXIT   00015   1        .SETUP 00016   1
      PRMESA 00017   1        PRMESS 00020   1        PRNTER 00021   1        SETBRK 00022   1        SETFIL 00023   1
0ABSOLUTE CONSTANTS
 03435 +255151465160     03436 +262163214360     03447 -204723633360     03441 -066463736060     03440 +314573606060
 03451 -205125236260     03425 +000000000144     03450 -205125236233     03443 -202631432562     03433 +246060606060
 03432 +242543256325     03437 +302165256060     03454 -264664432460     03427 +000000777777     03424 +000000000034
 03434 +254325632524     03446 -204546636024     03452 -206060606060     03426 +000000077777     03423 +000000000022
 03422 +000000000017     03444 -204401040106     03445 -204404000600     03421 +000000000007     03442 -116060606060
 03455 -344547452434     03420 +000000000003     03457 -346325626334     03456 -344751456334     03417 +000000000002
 03415 +000000000000     03453 -226022212433     03431 +242163256031     03416 +000000000001     03430 +233000000000
0STATEMENT DICTIONARY
 00025 TXL -304101004075       00026 TXL -304075004071       00027 TXL -304070004064       00030 TXL -304202004201
 00031 TXL -304207004206       00032 TXL -304215004214       00033 TXL -304041004035       00034 TXL -304047004041
 00035 TXL -304201004177       00036 TXL -303471003466       00037 TXL -303603003574       00040 TXL -303676003667
0PROGRAM
                 N'R                                                                001  LM00015
                 D'N V(2),UFD(7),USR(7)                                             002  LM00016
                 D'N BUFF1(432),BUFF2(432),BUFF3(432),BUFF4(432)                    003  LM00017
                 V'S MFD = $M.F.D.$                                                 004  LM00019
 03460 TSX +0 07400 4 00016    03356     -0 43326 3 32433
                 V'S UF = $U.F.D.$                                                  005  LM00020
 03401     -2 43326 3 32433
                 V'S FILE = $(FILE)$                                                006  LM00021
 03355     -3 42631 4 32534
                 V'S TESTSW = 0B                                                    007  LM00022
 03366     +0 00000 0 00000
                 V'S NPNDSW = 0B                                                    008  LM00023
 03361     +0 00000 0 00000
                 V'S TRECS  = 0                                                     009  LM00024
 03370     +0 00000 0 00000
                 V'S DRECS  = 0                                                     010  LM00025
 03352     +0 00000 0 00000
                 V'S DCNT   = 0                                                     011  LM00026
 03347     +0 00000 0 00000
                 V'S DONTSW = 0B                                                    012  LM00027
 03351     +0 00000 0 00000
                 V'S PRTSW  = 0B                                                    013  LM00028
 03363     +0 00000 0 00000
                 V'S B1B    = 60 5757575757K                                        014  LM00029
 00042     -2 05757 5 75757
                 V'S R = 432                                                        015  LM00031
 03365     +0 00000 0 00660
                 V'S MZE = 4K11                                                     016  LM00032
 03360     -0 00000 0 00000
                 V'S FENCE = 777777777777K                                          017  LM00033
 03354     -3 77777 7 77777
                 W'R COMARG.(1,OLDEST) .E. FENCE                                    018  LM00038
 03461 TSX +0 07400 4 00010    03462 TXH +3 00000 0 03416    03463 TXH +3 00000 0 03362    03464 SUB +0 40200 0 03354
 03465 TNZ -0 10000 0 03473
      OUT             PRMESS.($DATE IS BAD.$)                                       019  LM00039
 03466 TSX +0 07400 4 00020    03467 TXH +3 00000 0 03431    03470 TXH +3 00000 0 03453
                      CHNCOM.(0)                                                    020  LM00040
 03471 TSX +0 07400 4 00007    03472 TXH +3 00000 0 03415
                 E'L                                                                021  LM00041
                 W'R COMARG.(2,ARG) .E. $(PRNT)$                                    022  LM00042
 03473 TSX +0 07400 4 00010    03474 TXH +3 00000 0 03417    03475 TXH +3 00000 0 00041    03476 SUB +0 40200 0 03456
 03477 TNZ -0 10000 0 03503
                      PRTSW = 1B                                                    023  LM00043
 03500 CLA +0 50000 0 03416    03501 STO +0 60100 0 03363
                 O'R ARG  .E. $(TEST)$                                              024  LM00044
 03502 TRA +0 02000 0 03512    03503 CLA +0 50000 0 00041    03504 SUB +0 40200 0 03457    03505 TNZ -0 10000 0 03512
                      PRTSW = 1B                                                    025  LM00045
 03506 CLA +0 50000 0 03416    03507 STO +0 60100 0 03363
                      TESTSW = 1B                                                   026  LM00046
 03510 CLA +0 50000 0 03416    03511 STO +0 60100 0 03366
                 E'L                                                                027  LM00047
                 W'R COMARG.(3,ARG) .E. $(NPND)$, NPNDSW = 1B                       028  LM00048
 03512 TSX +0 07400 4 00010    03513 TXH +3 00000 0 03420    03514 TXH +3 00000 0 00041    03515 SUB +0 40200 0 03455
 03516 TNZ -0 10000 0 03521    03517 CLA +0 50000 0 03416    03520 STO +0 60100 0 03361
                 SETBRK.(EOF1)                                                      029  LM00049
 03521 TSX +0 07400 4 00022    03522 TXH +3 00000 0 00026
                 OLDEST = DATECV.(OLDEST,OUT)                                       030  LM00050
 03523 TSX +0 07400 4 00011    03524 TXH +3 00000 0 03362    03525 TXH +3 00000 0 00036    03526 STO +0 60100 0 03362
                 TODAY = DATECV.(DATE.(0),OUT)                                      031  LM00051
 03527 TSX +0 07400 4 00012    03530 TXH +3 00000 0 03415    03531 STO +0 60100 0 04217    03532 TSX +0 07400 4 00011
 03533 TXH +3 00000 0 04217    03534 TXH +3 00000 0 00036    03535 STO +0 60100 0 03367
                 ATTNAM.(V(2)...2,NERR3)                                            032  LM00055
 03536 TSX +0 07400 4 00001    03537 TIX +2 03417 0 03412    03540 TXH +3 00000 0 00035
                 ATTACH.(MFD,FILE,ERR1)                                             033  LM00056
 03541 TSX +0 07400 4 00000    03542 TXH +3 00000 0 03356    03543 TXH +3 00000 0 03355    03544 TXH +3 00000 0 00030
                 BFOPEN.($R$,UF,FILE,BUFF1(R),BUFF2(R),MZE,ERR1)                    034  LM00060
 03545 CLA +0 50000 0 03365    03546 SUB +0 40200 0 03547    03547 TXH +3 00000 0 01604    03550 STA +0 62100 0 03562
 03551 CLA +0 50000 0 03365    03552 SUB +0 40200 0 03553    03553 TXH +3 00000 0 00723    03554 STA +0 62100 0 03561
 03555 TSX +0 07400 4 00003    03556 TXH +3 00000 0 03442    03557 TXH +3 00000 0 03401    03560 TXH +3 00000 0 03355
 03561 TXH +3 00000 0 00000    03562 TXH +3 00000 0 00000    03563 TXH +3 00000 0 03360    03564 TXH +3 00000 0 00030
                 BFREAD.(UF,FILE,USR(3)...3,EOF1,EOFCT,ERR1)                        035  LM00061
 03565 TSX +0 07400 4 00004    03566 TXH +3 00000 0 03401    03567 TXH +3 00000 0 03355    03570 TIX +2 03420 0 03406
 03571 TXH +3 00000 0 00026    03572 TXH +3 00000 0 03353    03573 TXH +3 00000 0 00030
      READM      BFREAD.(UF,FILE,USR(7)...7,EOF1,EOFCT,ERR1)                        036  LM00063
 03574 TSX +0 07400 4 00004    03575 TXH +3 00000 0 03401    03576 TXH +3 00000 0 03355    03577 TIX +2 03421 0 03402
 03600 TXH +3 00000 0 00026    03601 TXH +3 00000 0 03353    03602 TXH +3 00000 0 00030
                 W'R ((USR(7).E.0).AND.(USR(6).E.0)).OR.                            037  LM00064
                1     (USR(7).E.MFD).OR.(USR(6).E.FILE), T'O READM                  037  LM00065
 03603 CLA +0 50000 0 03403    03604 SUB +0 40200 0 03355    03605 TZE +0 10000 0 03620    03606 CLA +0 50000 0 03402
 03607 SUB +0 40200 0 03356    03610 TZE +0 10000 0 03620    03611 CLA +0 50000 0 03403    03612 SUB +0 40200 0 03415
 03613 TNZ -0 10000 0 03617    03614 CLA +0 50000 0 03402    03615 SUB +0 40200 0 03415    03616 TZE +0 10000 0 03620
 03617 TRA +0 02000 0 03621    03620 TRA +0 02000 0 00037
                 ATTACH.(MFD,FILE,ERR1)                                             038  LM00070
 03621 TSX +0 07400 4 00000    03622 TXH +3 00000 0 03356    03623 TXH +3 00000 0 03355    03624 TXH +3 00000 0 00030
                 BFOPEN.($R$,USR(7),USR(6),BUFF3(R),BUFF4(R),MZE,ERR2)              039  LM00071
 03625 CLA +0 50000 0 03365    03626 SUB +0 40200 0 03627    03627 TXH +3 00000 0 03346    03630 STA +0 62100 0 03642
 03631 CLA +0 50000 0 03365    03632 SUB +0 40200 0 03633    03633 TXH +3 00000 0 02465    03634 STA +0 62100 0 03641
 03635 TSX +0 07400 4 00003    03636 TXH +3 00000 0 03442    03637 TXH +3 00000 0 03402    03640 TXH +3 00000 0 03403
 03641 TXH +3 00000 0 00000    03642 TXH +3 00000 0 00000    03643 TXH +3 00000 0 03360    03644 TXH +3 00000 0 00031
                 BFREAD.(USR(7),USR(6),UFD(3)...3,EOF2,EOFCT,ERR2)                  040  LM00072
 03645 TSX +0 07400 4 00004    03646 TXH +3 00000 0 03402    03647 TXH +3 00000 0 03403    03650 TIX +2 03420 0 03375
 03651 TXH +3 00000 0 00027    03652 TXH +3 00000 0 03353    03653 TXH +3 00000 0 00031
                 W'R USR(7) .E. $ M1416$                                            041  LM00076
                1     .OR. USR(7) .E. $ M4060$                                      041  LM00077
 03654 CLA +0 50000 0 03402    03655 SUB +0 40200 0 03445    03656 TZE +0 10000 0 03662    03657 CLA +0 50000 0 03402
 03660 SUB +0 40200 0 03444    03661 TNZ -0 10000 0 03665
                      DONTSW = 1B                                                   042  LM00078
 03662 CLA +0 50000 0 03416    03663 STO +0 60100 0 03351
                 O'E                                                                043  LM00079
 03664 TRA +0 02000 0 03667
                      DONTSW = 0B                                                   044  LM00080
 03665 CLA +0 50000 0 03415    03666 STO +0 60100 0 03351
                 E'L                                                                045  LM00081
      READU      BFREAD.(USR(7),USR(6),UFD(7)...7,EOF2,EOFCT,ERR2)                  046  LM00084
 03667 TSX +0 07400 4 00004    03670 TXH +3 00000 0 03402    03671 TXH +3 00000 0 03403    03672 TIX +2 03421 0 03371
 03673 TXH +3 00000 0 00027    03674 TXH +3 00000 0 03353    03675 TXH +3 00000 0 00031
                 DEVICE = (UFD(3).RS.15).A.7K                                       047  LM00085
 03676 CAL -0 50000 0 03422    03677 STA +0 62100 0 03701    03700 CAL -0 50000 0 03375    03701 LGR -0 76500 0 00000
 03702 ANA -0 32000 0 03421    03703 SLW +0 60200 0 03350
                 W'R ((UFD(7).E.0).AND.(UFD(6).E.0)).OR.                            048  LM00086
                1     (DEVICE.NE.2).OR.(((UFD(2).RS.18).A.77777K).E.0),             048  LM00087
                2     T'O READU                                                     048  LM00088
 03704 CAL -0 50000 0 03423    03705 STA +0 62100 0 03707    03706 CAL -0 50000 0 03376    03707 LGR -0 76500 0 00000
 03710 ANA -0 32000 0 03426    03711 SLW +0 60200 0 04217    03712 CLA +0 50000 0 04217    03713 SUB +0 40200 0 03415
 03714 TZE +0 10000 0 03727    03715 CLA +0 50000 0 03350    03716 SUB +0 40200 0 03417    03717 TNZ -0 10000 0 03727
 03720 CLA +0 50000 0 03372    03721 SUB +0 40200 0 03415    03722 TNZ -0 10000 0 03726    03723 CLA +0 50000 0 03371
 03724 SUB +0 40200 0 03415    03725 TZE +0 10000 0 03727    03726 TRA +0 02000 0 03730    03727 TRA +0 02000 0 00040
                 RECS = (UFD(2) .RS. 18) .A. 77777K                                 049  LM00092
 03730 CAL -0 50000 0 03423    03731 STA +0 62100 0 03733    03732 CAL -0 50000 0 03376    03733 LGR -0 76500 0 00000
 03734 ANA -0 32000 0 03426    03735 SLW +0 60200 0 03364
                 TRECS = TRECS + RECS                                               050  LM00093
 03736 CLA +0 50000 0 03370    03737 ADD +0 40000 0 03364    03740 STO +0 60100 0 03370
                 W'R UFD(4) .L. OLDEST                                              051  LM00094
 03741 CLA +0 50000 0 03374    03742 SUB +0 40200 0 03362    03743 TZE +0 10000 0 04063    03744 TPL +0 12000 0 04063
                 W'R DONTSW                                                         052  LM00098
 03745 NZT -0 52000 0 03351    03746 TRA +0 02000 0 03767
                      W'R NPNDSW, T'O READU                                         053  LM00099
 03747 NZT -0 52000 0 03361    03750 TRA +0 02000 0 03752    03751 TRA +0 02000 0 00040
                      PRMESS.(USR(7),B1B,USR(6),B1B,UFD(7),B1B,                     054  LM00100
                1      UFD(6),$       NOT DELETED$)                                 054  LM00101
 03752 TSX +0 07400 4 00020    03753 TXH +3 00000 0 03402    03754 TXH +3 00000 0 00042    03755 TXH +3 00000 0 03403
 03756 TXH +3 00000 0 00042    03757 TXH +3 00000 0 03371    03760 TXH +3 00000 0 00042    03761 TXH +3 00000 0 03372
 03762 TXH +3 00000 0 03452    03763 TXH +3 00000 0 03446    03764 TXH +3 00000 0 03434
                      T'O READU                                                     055  LM00102
 03765 TRA +0 02000 0 00040
                 O'R PRTSW                                                          056  LM00103
 03766 TRA +0 02000 0 04011    03767 NZT -0 52000 0 03363    03770 TRA +0 02000 0 04011
                      PRMESS.(USR(7),B1B,USR(6),B1B,UFD(7),B1B,UFD(6),B1B,          057  LM00104
                1      BZEL.(DERBC.(RECS)) )                                        057  LM00105
 03771 TSX +0 07400 4 00014    03772 TXH +3 00000 0 03364    03773 STO +0 60100 0 04217    03774 TSX +0 07400 4 00005
 03775 TXH +3 00000 0 04217    03776 STO +0 60100 0 04217    03777 TSX +0 07400 4 00020    04000 TXH +3 00000 0 03402
 04001 TXH +3 00000 0 00042    04002 TXH +3 00000 0 03403    04003 TXH +3 00000 0 00042    04004 TXH +3 00000 0 03371
 04005 TXH +3 00000 0 00042    04006 TXH +3 00000 0 03372    04007 TXH +3 00000 0 00042    04010 TXH +3 00000 0 04217
                 E'L                                                                058  LM00106
                 DRECS = DRECS + RECS                                               059  LM00108
 04011 CLA +0 50000 0 03352    04012 ADD +0 40000 0 03364    04013 STO +0 60100 0 03352
                 DCNT  = DCNT  + 1                                                  060  LM00109
 04014 CLA +0 50000 0 03347    04015 ADD +0 40000 0 03416    04016 STO +0 60100 0 03347
                 W'R TESTSW, T'O READU                                              061  LM00111
 04017 NZT -0 52000 0 03366    04020 TRA +0 02000 0 04022    04021 TRA +0 02000 0 00040
                      ATTACH.(USR(7),USR(6),ERR2)                                   062  LM00113
 04022 TSX +0 07400 4 00000    04023 TXH +3 00000 0 03402    04024 TXH +3 00000 0 03403    04025 TXH +3 00000 0 00031
                      CHFILE.(UFD(7),UFD(6),001K,MZE,MZE,NERR1)                     063  LM00114
 04026 TSX +0 07400 4 00006    04027 TXH +3 00000 0 03371    04030 TXH +3 00000 0 03372    04031 TXH +3 00000 0 03416
 04032 TXH +3 00000 0 03360    04033 TXH +3 00000 0 03360    04034 TXH +3 00000 0 00033
      NERR1           DELFIL.(UFD(7),UFD(6),NERR2)                                  064  LM00115
 04035 TSX +0 07400 4 00013    04036 TXH +3 00000 0 03371    04037 TXH +3 00000 0 03372    04040 TXH +3 00000 0 00034
      NERR2           MODE = (UFD(3).RS.28) .V. 2K                                  065  LM00116
 04041 CAL -0 50000 0 03424    04042 STA +0 62100 0 04044    04043 CAL -0 50000 0 03375    04044 LGR -0 76500 0 00000
 04045 ORA -0 50100 0 03417    04046 SLW +0 60200 0 03357
                      UFD(4) = (UFD(4).A.777777K) .V. TODAY                         066  LM00117
 04047 CAL -0 50000 0 03374    04050 ANA -0 32000 0 03427    04051 ORA -0 50100 0 03367    04052 SLW +0 60200 0 03374
                      SETFIL.(UFD(7),UFD(6),UFD(5),UFD(4),MODE,DEVICE,ERR3)         067  LM00118
 04053 TSX +0 07400 4 00023    04054 TXH +3 00000 0 03371    04055 TXH +3 00000 0 03372    04056 TXH +3 00000 0 03373
 04057 TXH +3 00000 0 03374    04060 TXH +3 00000 0 03357    04061 TXH +3 00000 0 03350    04062 TXH +3 00000 0 00032
                 E'L                                                                068  LM00119
                 T'O READU                                                          069  LM00120
 04063 TRA +0 02000 0 00040
      EOF2       BFCLOS.(USR(7),USR(6),ERR2)                                        070  LM00124
 04064 TSX +0 07400 4 00002    04065 TXH +3 00000 0 03402    04066 TXH +3 00000 0 03403    04067 TXH +3 00000 0 00031
                 T'O READM                                                          071  LM00125
 04070 TRA +0 02000 0 00037
      EOF1       BFCLOS.(UF,FILE,ERR1)                                              072  LM00129
 04071 TSX +0 07400 4 00002    04072 TXH +3 00000 0 03401    04073 TXH +3 00000 0 03355    04074 TXH +3 00000 0 00030
      BAIL       ATTACH.(V(2),V(1),NERR3)                                           073  LM00130
 04075 TSX +0 07400 4 00000    04076 TXH +3 00000 0 03412    04077 TXH +3 00000 0 03413    04100 TXH +3 00000 0 00035
                 W'R TESTSW, PRMESA.($WOULD HAVE$)                                  074  LM00131
 04101 NZT -0 52000 0 03366    04102 TRA +0 02000 0 04106    04103 TSX +0 07400 4 00017    04104 TXH +3 00000 0 03454
 04105 TXH +3 00000 0 03437
                 PRMESS.($DELETED$,BZEL.(DERBC.(DCNT)),$ FILES$,BZEL.(DERBC.        075  LM00132
                1 (DRECS)),                                                         075  LM00133
                1 $ RECS.$)                                                         075  LM00134
 04106 TSX +0 07400 4 00014    04107 TXH +3 00000 0 03352    04110 STO +0 60100 0 04217    04111 TSX +0 07400 4 00005
 04112 TXH +3 00000 0 04217    04113 STO +0 60100 0 04217    04114 TSX +0 07400 4 00014    04115 TXH +3 00000 0 03347
 04116 STO +0 60100 0 04220    04117 TSX +0 07400 4 00005    04120 TXH +3 00000 0 04220    04121 STO +0 60100 0 04220
 04122 TSX +0 07400 4 00020    04123 TXH +3 00000 0 03432    04124 TXH +3 00000 0 03433    04125 TXH +3 00000 0 04220
 04126 TXH +3 00000 0 03443    04127 TXH +3 00000 0 04217    04130 TXH +3 00000 0 03450
                 PRMESS.                                                            076  LM00135
 04131 TSX +0 07400 4 00020
                 PRMESS.(BZEL.(DERBC.(TRECS)),$ RECS IN,$,BZEL.(DERBC.              077  LM00136
                1 (TRECS-DRECS)),                                                   077  LM00137
                1 $ RECS OUT,$,BZEL.(DERBC.((100*DRECS)/TRECS)),$ PCT.$)            077  LM00138
 04132 LDQ +0 56000 0 03425    04133 MPY +0 20000 0 03352    04134 PXD -0 75400 0 00000    04135 LLS +0 76300 0 00000
 04136 DVP +0 22100 0 03370    04137 STQ -0 60000 0 04220    04140 TSX +0 07400 4 00014    04141 TXH +3 00000 0 04220
 04142 STO +0 60100 0 04220    04143 TSX +0 07400 4 00005    04144 TXH +3 00000 0 04220    04145 STO +0 60100 0 04220
 04146 CLA +0 50000 0 03370    04147 SUB +0 40200 0 03352    04150 STO +0 60100 0 04217    04151 TSX +0 07400 4 00014
 04152 TXH +3 00000 0 04217    04153 STO +0 60100 0 04217    04154 TSX +0 07400 4 00005    04155 TXH +3 00000 0 04217
 04156 STO +0 60100 0 04217    04157 TSX +0 07400 4 00014    04160 TXH +3 00000 0 03370    04161 STO +0 60100 0 04221
 04162 TSX +0 07400 4 00005    04163 TXH +3 00000 0 04221    04164 STO +0 60100 0 04221    04165 TSX +0 07400 4 00020
 04166 TXH +3 00000 0 04221    04167 TXH +3 00000 0 03451    04170 TXH +3 00000 0 03440    04171 TXH +3 00000 0 04217
 04172 TXH +3 00000 0 03451    04173 TXH +3 00000 0 03441    04174 TXH +3 00000 0 04220    04175 TXH +3 00000 0 03447
                 PRMESS.                                                            078  LM00139
 04176 TSX +0 07400 4 00020
      NERR3      CHNCOM.(0)                                                         079  LM00140
 04177 TSX +0 07400 4 00007    04200 TXH +3 00000 0 03415
      ERR1       PRNTER.                                                            080  LM00144
 04201 TSX +0 07400 4 00021
                 PRMESS.($FATAL ERROR$)                                             081  LM00145
 04202 TSX +0 07400 4 00020    04203 TXH +3 00000 0 03436    04204 TXH +3 00000 0 03435
                 T'O BAIL                                                           082  LM00146
 04205 TRA +0 02000 0 00025
      ERR2       PRNTER.                                                            083  LM00150
 04206 TSX +0 07400 4 00021
                 BFCLOS.(USR(7),USR(6),READM)                                       084  LM00151
 04207 TSX +0 07400 4 00002    04210 TXH +3 00000 0 03402    04211 TXH +3 00000 0 03403    04212 TXH +3 00000 0 00037
                 T'O READM                                                          085  LM00152
 04213 TRA +0 02000 0 00037
      ERR3       PRNTER.                                                            086  LM00156
 04214 TSX +0 07400 4 00021
                 T'O READU                                                          087  LM00157
 04215 TRA +0 02000 0 00040
                 E'M                                                                088  LM00159
 04216 TSX +0 07400 4 00015
1                                                                                                PAGE 1
                           RETRIEVE VERSION OF .SETUP


  BINARY CARD NO. .SETUP00
                       00004         ENTRY   .SETUP
                                     EXTERN  GETIME,CDATE

                                             THIS ROUTINE IS CALLED IMPLICITLY BY (MAIN)
                                             IT'S ONLY FUNCTION IS TO GIVE THE CURRENT DATE
                                             TO THE 'RLIBE' MODULE

                                             THIS VERSION IS USED IN THE FOREGROUND RETRIEVES

                                                           D.R. WIDRIG  DEC. 1965

        TRANSFER VECTOR

  BINARY CARD NO. .SETUP01
      00000  272563314425     GETIME
      00001  232421632560     CDATE

            LINKAGE DIRECTOR
      00002  000000000000
      00003  336225636447

      00004  0634 00 4 00012  .SETUP SXA     IR4,4         SAVE CALLER
      00005  0760 00 0 00016         LMTM                  7-TAG MODE
      00006  0074 00 4 00000         TSX     GETIME,4      GET CURRENT DATE
      00007 -0600 00 0 00014         STQ     DATE          SAVE IT
      00010  0074 00 4 00001         TSX     CDATE,4       GIVE DATE TO CONVERSION PACKAGE
      00011  3 00000 0 00014         PTH     DATE
      00012  0774 00 4 00000  IR4    AXT     **,4          RESTORE IR4
      00013  0020 00 4 00001         TRA     1,4           RETURN TO MAIN PROGRAM


      00014  0 00000 0 00000  DATE   PZE
                                     END
1                                                                                                PAGE 1
                        POST PROCESSOR ASSEMBLY DATA

         15 IS THE FIRST LOCATION NOT USED BY THIS PROGRAM

0REFERENCES TO DEFINED SYMBOLS
         12    IR4     4
         14   DATE     7,   11
          1  CDATE    10
          0 GETIME     6
          4 .SETUP     0

0 NO ERROR IN ABOVE ASSEMBLY.
1     MAD PROGRAM LISTING ... ... ...                 FILE   RLIBE   MAD            02/15/68    1740.5
-
                      TIME/DATE CONVERTERS, ALSO PROBNO/PROGNO CONVERTERS                              LM00001
                      THIS PROGRAM MUST BE EDITED AND RE-COMPILED WHEN                                 LM00002
                      THE NEW 'LOGIN' (PSN 50) TAKES EFFECT                                            LM00003
                           D.R. WIDRIG  DEC. 1965                                                      LM00004
                                                                                                       LM00005
                  EXTERNAL FUNCTION (X1,Y)                                                        *001 LM00006
                  NORMAL MODE IS INTEGER                                                          *002 LM00007
                  STATEMENT LABEL Y                                                               *003 LM00008
                                                                                                       LM00009
                  VECTOR VALUES MESS1 = $ILLEGA******.....$,0,777777777777K                       *004 LM00010
                                                                                                       LM00011
                  VECTOR VALUES DAYS(1) = 31,28,31,30,31,30,31,31,30,31,30,31                     *005 LM00012
                  VECTOR VALUES DMASK = 766074607170K                                             *006 LM00013
                  VECTOR VALUES TMASK = 777774607060K                                             *007 LM00014
                  VECTOR VALUES PMASK = 776060606060K                                             *008 LM00015
                                                                                                       LM00016
                      GET CURRENT DATE                                                                 LM00017
                                                                                                       LM00018
                  ENTRY TO CDATE.                                                                 *009 LM00019
                  DATNOW = X1                                                                     *010 LM00020
                  MONTH = BCDEC.(DATNOW.RS.24)                                                    *011 LM00021
                  DAY = BCDEC.((DATNOW.RS.12).A.7777K)                                            *012 LM00022
                  YEAR = BCDEC.(DATNOW.A.7777K)                                                   *013 LM00023
                  FUNCTION RETURN                                                                 *014 LM00024
                                                                                                       LM00025
                      RETURN CURRENT DATE AS MMDDYY                                                    LM00026
                                                                                                       LM00027
                  ENTRY TO DATE.                                                                  *015 LM00028
                  FUNCTION RETURN DATNOW                                                          *016 LM00029
                                                                                                       LM00030
                      CONVERT BCD DATE TO I/O FORMAT                                                   LM00031
                                                                                                       LM00032
                  ENTRY TO DATECV.                                                                *017 LM00033
                  MESS1(1) = $L DATE$                                                             *018 LM00034
                  DELTA = 0                                                                       *019 LM00035
                  X = ZEL.(X1)                                                                    *020 LM00036
                  WHENEVER (X.A.DMASK) .NE. 0, TRANSFER TO BAD                                    *021 LM00037
                  MM = BCDEC.(X.RS.24)                                                            *022 LM00038
                  DD = BCDEC.((X.RS.12).A.7777K)                                                  *023 LM00039
                  YY = BCDEC.(X.A.7777K)                                                          *024 LM00040
                  WHENEVER ((YY/4)*4.E.YY).AND.(MM.E.2), DELTA = 1                                *025 LM00041
                  WHENEVER (MM.G.12).OR.(MM.E.0).OR.                                              *026 LM00042
                1      (DD.G.(DAYS(MM)+DELTA)).OR.(YY.G.YEAR).OR.                                 *026 LM00043
                2      ((YEAR-YY).G.1).OR.((YY.E.YEAR).AND.(MM.G.MONTH)).OR.                      *026 LM00044
                3      ((YY.E.YEAR).AND.(MM.E.MONTH).AND.(DD.G.DAY))                              *026 LM00045
                4      , TRANSFER TO BAD                                                          *026 LM00046
                  FUNCTION RETURN (YY.LS.27).V.(MM.LS.23).V.(DD.LS.18)                            *027 LM00047
                                                                                                       LM00048
      BAD         MESS1(3) = X                                                                    *028 LM00049
                  PRNTP.(MESS1)                                                                   *029 LM00050
                  TRANSFER TO Y                                                                   *030 LM00051
                                                                                                       LM00052
                      CONVERT I/O DATE TO BCD                                                          LM00053
                                                                                                       LM00054
                  ENTRY TO CVDATE.                                                                *031 LM00055
                  D = X1.RS.18                                                                    *032 LM00056
                  FUNCTION RETURN (DERBC.(D.A.37K).LS.12).V.(DERBC.((D.RS.5).A.17K)               *033 LM00057
                1      .LS.24).V.(DERBC.((D.RS.9).A.377K))                                        *033 LM00058
                                                                                                       LM00059
                      CONVERT TIME TO I/O FORMAT                                                       LM00060
                                                                                                       LM00061
                  ENTRY TO TIMECV.                                                                *034 LM00062
                  MESS1(1) = $L TIME$                                                             *035 LM00063
                  X = ZEL.(X1)                                                                    *036 LM00064
                  WHENEVER (X.A.TMASK) .NE. 0, TRANSFER TO BAD                                    *037 LM00065
                  HH = BCDEC.((X.RS.12).A.7777K)                                                  *038 LM00066
                  MM = BCDEC.(X.A.7777K)                                                          *039 LM00067
                  WHENEVER (HH.G.23).OR.(MM.G.59), TRANSFER TO BAD                                *040 LM00068
                  FUNCTION RETURN HH*3600+MM*60                                                   *041 LM00069
                                                                                                       LM00070
                      CONVERT I/O TIME TO BCD                                                          LM00071
                                                                                                       LM00072
                  ENTRY TO CVTIME.                                                                *042 LM00073
                  D = X1.A.777777K                                                                *043 LM00074
                  HH = D/3600                                                                     *044 LM00075
                  FUNCTION RETURN ((DERBC.(HH).LS.12).V.                                          *045 LM00076
                1      (DERBC.((D-HH*3600)/60)).V.$  0000$)                                       *045 LM00077
                                                                                                       LM00078
                      CHECK VALIDITY OF PROGNO                                                         LM00079
                                                                                                       LM00080
                  ENTRY TO PROGN.                                                                 *046 LM00081
                  MESS1(1) = $L PRGN$                                                             *047 LM00082
                  X = X1                                                                          *048 LM00083
                  WHENEVER (ZEL.(X).A.PMASK) .E. 0, FUNCTION RETURN X                             *049 LM00084
                  WHENEVER (X.A.777777776060K).E. $CMFL00$, FUNCTION RETURN X                     *050 LM00085
                  TRANSFER TO BAD                                                                 *051 LM00086
                                                                                                       LM00087
                      REDUCE PROBNO TO STANDARD FORM                                                   LM00088
                                                                                                       LM00089
                  ENTRY TO PROBN.                                                                 *052 LM00090
                  MESS1(1) = $L PRBN$                                                             *053 LM00091
                  X = X1                                                                          *054 LM00092
                  WHENEVER (X.A.60K).NE.0, TRANSFER TO BAD                                        *055 LM00093
                  THROUGH LOOP1, FOR I=6,6,I.E.30                                                 *056 LM00094
                  WHENEVER (((X.RS.I).A.60K).NE.0),                                               *057 LM00095
                1      FUNCTION RETURN BZEL.((((X.RS.I).A.77K).LS.24).V.                          *057 LM00096
                2      ((77777777K.RS.(24-I)).A.X))                                               *057 LM00097
      LOOP1       CONTINUE                                                                        *058 LM00098
                  TRANSFER TO BAD                                                                 *059 LM00099
                                                                                                       LM00100
                  END OF FUNCTION                                                                 *060 LM00101
1MAD PROGRAM,TYPE NOV 1963      (ALL NUMBERS ARE OCTAL)
0TOTAL LOCATIONS   00713 TRANSFER VECTOR LENGTH  00006 PROGRAM BEGINS    00111
0 PROGRAM IS AN EXTERNAL FUNCTION.   THE FOLLOWING ARE ENTRIES
      PROBN  00574   0        PROGN  00541   0        CVTIME 00477   0        TIMECV 00420   0        CVDATE 00342   0
      DATECV 00154   0        DATE   00147   0        CDATE  00112   0
0VARIABLE STORAGE (A=ARRAY,C=COMMON,E=ERASABLE,DIGIT=MODE)
      BAD    00007   4        DD     00027   1        HH     00033   1        MM     00042   1        X      00046   1
      DATNOW 00010   1        DELTA  00030   1        I      00034   1        MONTH  00043   1        YEAR   00047   1
      DAY    00011   1        DMASK  00031 A 1        LOOP1  00006   4        PMASK  00044 A 1        YY     00050   1
      DAYS   00026 A 1        D      00032   1        MESS1  00041 A 1        TMASK  00045 A 1
0FUNCTION DICTIONARY
      BCDEC  00000   1        BZEL   00001   1        DERBC  00002   1        EXIT   00003   1        PRNTP  00004   1
      ZEL    00005   1
0ABSOLUTE CONSTANTS
 00073 +000000000077     00100 +000077777777     00066 +000000000036     00056 +000000000006     00070 +000000000060
 00104 -036047512245     00102 +234426430000     00110 -377777776060     00105 -036047512745     00107 -206000000000
 00077 +000000777777     00075 +000000007020     00072 +000000000074     00071 +000000000073     00106 -036063314425
 00067 +000000000037     00061 +000000000017     00055 +000000000005     00074 +000000000377     00057 +000000000011
 00065 +000000000033     00063 +000000000027     00062 +000000000022     00054 +000000000004     00053 +000000000002
 00051 +000000000000     00103 -036024216325     00076 +000000007777     00060 +000000000014     00064 +000000000030
 00052 +000000000001     00101 +233000000000
0STATEMENT DICTIONARY
 00007 TXL -300336000334
0PROGRAM
                 EXTERNAL FUNCTION (X1,Y)                                           001  LM00006
                 N'R                                                                002  LM00007
                 S'L Y                                                              003  LM00008
                 V'S MESS1 = $ILLEGA******.....$,0,777777777777K                    004  LM00010
 00035     -3 77777 7 77777    00036     +0 00000 0 00000    00037     +3 33333 3 33360    00040     -1 45454 5 45454
 00041     +3 14343 2 52721
                 V'S DAYS(1) = 31,28,31,30,31,30,31,31,30,31,30,31                  005  LM00012
 00012     +0 00000 0 00037    00013     +0 00000 0 00036    00014     +0 00000 0 00037    00015     +0 00000 0 00036
 00016     +0 00000 0 00037    00017     +0 00000 0 00037    00020     +0 00000 0 00036    00021     +0 00000 0 00037
 00022     +0 00000 0 00036    00023     +0 00000 0 00037    00024     +0 00000 0 00034    00025     +0 00000 0 00037
                 V'S DMASK = 766074607170K                                          006  LM00013
 00031     -3 66074 6 07170
                 V'S TMASK = 777774607060K                                          007  LM00014
 00045     -3 77774 6 07060
                 V'S PMASK = 776060606060K                                          008  LM00015
 00044     -3 76060 6 06060
                 E'O CDATE.                                                         009  LM00019
 00111 TRA +0 02000 0 00114    00112 SXA +0 63400 2 00664    00113 TSX +0 07400 2 00664
                 DATNOW = X1                                                        010  LM00020
 00114 CLA +0 50000 0 00024    00115 STO +0 60100 0 00010
                 MONTH = BCDEC.(DATNOW.RS.24)                                       011  LM00021
 00116 CAL -0 50000 0 00064    00117 STA +0 62100 0 00121    00120 CAL -0 50000 0 00010    00121 LGR -0 76500 0 00000
 00122 SLW +0 60200 0 00706    00123 TSX +0 07400 4 00000    00124 TXH +3 00000 0 00706    00125 STO +0 60100 0 00043
                 DAY = BCDEC.((DATNOW.RS.12).A.7777K)                               012  LM00022
 00126 CAL -0 50000 0 00060    00127 STA +0 62100 0 00131    00130 CAL -0 50000 0 00010    00131 LGR -0 76500 0 00000
 00132 ANA -0 32000 0 00076    00133 SLW +0 60200 0 00706    00134 TSX +0 07400 4 00000    00135 TXH +3 00000 0 00706
 00136 STO +0 60100 0 00011
                 YEAR = BCDEC.(DATNOW.A.7777K)                                      013  LM00023
 00137 CAL -0 50000 0 00010    00140 ANA -0 32000 0 00076    00141 SLW +0 60200 0 00706    00142 TSX +0 07400 4 00000
 00143 TXH +3 00000 0 00706    00144 STO +0 60100 0 00047
                 F'N                                                                014  LM00024
 00145 TRA +0 02000 0 00702
                 E'O DATE.                                                          015  LM00028
 00146 TRA +0 02000 0 00151    00147 SXA +0 63400 2 00664    00150 TSX +0 07400 2 00664
                 F'N DATNOW                                                         016  LM00029
 00151 CLA +0 50000 0 00010    00152 TRA +0 02000 0 00702
                 E'O DATECV.                                                        017  LM00033
 00153 TRA +0 02000 0 00156    00154 SXA +0 63400 2 00664    00155 TSX +0 07400 2 00664
                 MESS1(1) = $L DATE$                                                018  LM00034
 00156 CLA +0 50000 0 00103    00157 STO +0 60100 0 00040
                 DELTA = 0                                                          019  LM00035
 00160 CLA +0 50000 0 00051    00161 STO +0 60100 0 00030
                 X = ZEL.(X1)                                                       020  LM00036
 00162 TSX +0 07400 4 00005    00163 TXH +3 00000 0 00024    00164 STO +0 60100 0 00046
                 W'R (X.A.DMASK) .NE. 0, T'O BAD                                    021  LM00037
 00165 CAL -0 50000 0 00046    00166 ANA -0 32000 0 00031    00167 SLW +0 60200 0 00706    00170 CLA +0 50000 0 00706
 00171 SUB +0 40200 0 00051    00172 TZE +0 10000 0 00174    00173 TRA +0 02000 0 00007
                 MM = BCDEC.(X.RS.24)                                               022  LM00038
 00174 CAL -0 50000 0 00064    00175 STA +0 62100 0 00177    00176 CAL -0 50000 0 00046    00177 LGR -0 76500 0 00000
 00200 SLW +0 60200 0 00706    00201 TSX +0 07400 4 00000    00202 TXH +3 00000 0 00706    00203 STO +0 60100 0 00042
                 DD = BCDEC.((X.RS.12).A.7777K)                                     023  LM00039
 00204 CAL -0 50000 0 00060    00205 STA +0 62100 0 00207    00206 CAL -0 50000 0 00046    00207 LGR -0 76500 0 00000
 00210 ANA -0 32000 0 00076    00211 SLW +0 60200 0 00706    00212 TSX +0 07400 4 00000    00213 TXH +3 00000 0 00706
 00214 STO +0 60100 0 00027
                 YY = BCDEC.(X.A.7777K)                                             024  LM00040
 00215 CAL -0 50000 0 00046    00216 ANA -0 32000 0 00076    00217 SLW +0 60200 0 00706    00220 TSX +0 07400 4 00000
 00221 TXH +3 00000 0 00706    00222 STO +0 60100 0 00050
                 W'R ((YY/4)*4.E.YY).AND.(MM.E.2), DELTA = 1                        025  LM00041
 00223 CLA +0 50000 0 00042    00224 SUB +0 40200 0 00053    00225 TNZ -0 10000 0 00240    00226 LDQ +0 56000 0 00050
 00227 PXD -0 75400 0 00000    00230 LLS +0 76300 0 00000    00231 DVP +0 22100 0 00054    00232 MPY +0 20000 0 00054
 00233 XCA +0 13100 0 00000    00234 SUB +0 40200 0 00050    00235 TNZ -0 10000 0 00240    00236 CLA +0 50000 0 00052
 00237 STO +0 60100 0 00030
                 W'R (MM.G.12).OR.(MM.E.0).OR.                                      026  LM00042
                1     (DD.G.(DAYS(MM)+DELTA)).OR.(YY.G.YEAR).OR.                    026  LM00043
                2     ((YEAR-YY).G.1).OR.((YY.E.YEAR).AND.(MM.G.MONTH)).OR.         026  LM00044
                3     ((YY.E.YEAR).AND.(MM.E.MONTH).AND.(DD.G.DAY))                 026  LM00045
                4     , T'O BAD                                                     026  LM00046
 00240 CLA +0 50000 0 00027    00241 SUB +0 40200 0 00011    00242 TZE +0 10000 0 00252    00243 TMI -0 12000 0 00252
 00244 CLA +0 50000 0 00042    00245 SUB +0 40200 0 00043    00246 TNZ -0 10000 0 00252    00247 CLA +0 50000 0 00050
 00250 SUB +0 40200 0 00047    00251 TZE +0 10000 0 00310    00252 CLA +0 50000 0 00042    00253 SUB +0 40200 0 00043
 00254 TZE +0 10000 0 00261    00255 TMI -0 12000 0 00261    00256 CLA +0 50000 0 00050    00257 SUB +0 40200 0 00047
 00260 TZE +0 10000 0 00310    00261 CLA +0 50000 0 00047    00262 SUB +0 40200 0 00050    00263 SUB +0 40200 0 00052
 00264 TZE +0 10000 0 00266    00265 TPL +0 12000 0 00310    00266 CLA +0 50000 0 00050    00267 SUB +0 40200 0 00047
 00270 TZE +0 10000 0 00272    00271 TPL +0 12000 0 00310    00272 LXA +0 53400 1 00042    00273 CLA +0 50000 1 00026
 00274 ADD +0 40000 0 00030    00275 CHS +0 76000 0 00002    00276 ADD +0 40000 0 00027    00277 TZE +0 10000 0 00301
 00300 TPL +0 12000 0 00310    00301 CLA +0 50000 0 00042    00302 SUB +0 40200 0 00051    00303 TZE +0 10000 0 00310
 00304 CLA +0 50000 0 00042    00305 SUB +0 40200 0 00060    00306 TZE +0 10000 0 00311    00307 TMI -0 12000 0 00311
 00310 TRA +0 02000 0 00007
                 F'N (YY.LS.27).V.(MM.LS.23).V.(DD.LS.18)                           027  LM00047
 00311 CAL -0 50000 0 00062    00312 STA +0 62100 0 00314    00313 CAL -0 50000 0 00027    00314 ALS +0 76700 0 00000
 00315 SLW +0 60200 0 00706    00316 CAL -0 50000 0 00063    00317 STA +0 62100 0 00321    00320 CAL -0 50000 0 00042
 00321 ALS +0 76700 0 00000    00322 SLW +0 60200 0 00707    00323 CAL -0 50000 0 00065    00324 STA +0 62100 0 00326
 00325 CAL -0 50000 0 00050    00326 ALS +0 76700 0 00000    00327 ORA -0 50100 0 00707    00330 ORA -0 50100 0 00706
 00331 SLW +0 60200 0 00707    00332 CLA +0 50000 0 00707    00333 TRA +0 02000 0 00702
      BAD        MESS1(3) = X                                                       028  LM00049
 00334 CLA +0 50000 0 00046    00335 STO +0 60100 0 00036
                 PRNTP.(MESS1)                                                      029  LM00050
 00336 TSX +0 07400 4 00004    00337 TXH +3 00000 0 00041
                 T'O Y                                                              030  LM00051
 00340 TRA +0 02000 0 00024
                 E'O CVDATE.                                                        031  LM00055
 00341 TRA +0 02000 0 00344    00342 SXA +0 63400 2 00664    00343 TSX +0 07400 2 00664
                 D = X1.RS.18                                                       032  LM00056
 00344 CAL -0 50000 0 00062    00345 STA +0 62100 0 00347    00346 CAL -0 50000 0 00024    00347 LGR -0 76500 0 00000
 00350 SLW +0 60200 0 00032
                 F'N (DERBC.(D.A.37K).LS.12).V.(DERBC.((D.RS.5).A.17K)              033  LM00057
                1     .LS.24).V.(DERBC.((D.RS.9).A.377K))                           033  LM00058
 00351 CAL -0 50000 0 00057    00352 STA +0 62100 0 00354    00353 CAL -0 50000 0 00032    00354 LGR -0 76500 0 00000
 00355 ANA -0 32000 0 00074    00356 SLW +0 60200 0 00707    00357 TSX +0 07400 4 00002    00360 TXH +3 00000 0 00707
 00361 STO +0 60100 0 00707    00362 CAL -0 50000 0 00055    00363 STA +0 62100 0 00365    00364 CAL -0 50000 0 00032
 00365 LGR -0 76500 0 00000    00366 ANA -0 32000 0 00061    00367 SLW +0 60200 0 00706    00370 TSX +0 07400 4 00002
 00371 TXH +3 00000 0 00706    00372 STO +0 60100 0 00706    00373 CAL -0 50000 0 00064    00374 STA +0 62100 0 00376
 00375 CAL -0 50000 0 00706    00376 ALS +0 76700 0 00000    00377 SLW +0 60200 0 00706    00400 CAL -0 50000 0 00032
 00401 ANA -0 32000 0 00067    00402 SLW +0 60200 0 00710    00403 TSX +0 07400 4 00002    00404 TXH +3 00000 0 00710
 00405 STO +0 60100 0 00710    00406 CAL -0 50000 0 00060    00407 STA +0 62100 0 00411    00410 CAL -0 50000 0 00710
 00411 ALS +0 76700 0 00000    00412 ORA -0 50100 0 00706    00413 ORA -0 50100 0 00707    00414 SLW +0 60200 0 00710
 00415 CLA +0 50000 0 00710    00416 TRA +0 02000 0 00702
                 E'O TIMECV.                                                        034  LM00062
 00417 TRA +0 02000 0 00422    00420 SXA +0 63400 2 00664    00421 TSX +0 07400 2 00664
                 MESS1(1) = $L TIME$                                                035  LM00063
 00422 CLA +0 50000 0 00106    00423 STO +0 60100 0 00040
                 X = ZEL.(X1)                                                       036  LM00064
 00424 TSX +0 07400 4 00005    00425 TXH +3 00000 0 00024    00426 STO +0 60100 0 00046
                 W'R (X.A.TMASK) .NE. 0, T'O BAD                                    037  LM00065
 00427 CAL -0 50000 0 00046    00430 ANA -0 32000 0 00045    00431 SLW +0 60200 0 00710    00432 CLA +0 50000 0 00710
 00433 SUB +0 40200 0 00051    00434 TZE +0 10000 0 00436    00435 TRA +0 02000 0 00007
                 HH = BCDEC.((X.RS.12).A.7777K)                                     038  LM00066
 00436 CAL -0 50000 0 00060    00437 STA +0 62100 0 00441    00440 CAL -0 50000 0 00046    00441 LGR -0 76500 0 00000
 00442 ANA -0 32000 0 00076    00443 SLW +0 60200 0 00710    00444 TSX +0 07400 4 00000    00445 TXH +3 00000 0 00710
 00446 STO +0 60100 0 00033
                 MM = BCDEC.(X.A.7777K)                                             039  LM00067
 00447 CAL -0 50000 0 00046    00450 ANA -0 32000 0 00076    00451 SLW +0 60200 0 00710    00452 TSX +0 07400 4 00000
 00453 TXH +3 00000 0 00710    00454 STO +0 60100 0 00042
                 W'R (HH.G.23).OR.(MM.G.59), T'O BAD                                040  LM00068
 00455 CLA +0 50000 0 00042    00456 SUB +0 40200 0 00071    00457 TZE +0 10000 0 00461    00460 TPL +0 12000 0 00465
 00461 CLA +0 50000 0 00033    00462 SUB +0 40200 0 00063    00463 TZE +0 10000 0 00466    00464 TMI -0 12000 0 00466
 00465 TRA +0 02000 0 00007
                 F'N HH*3600+MM*60                                                  041  LM00069
 00466 LDQ +0 56000 0 00042    00467 MPY +0 20000 0 00072    00470 STQ -0 60000 0 00710    00471 LDQ +0 56000 0 00033
 00472 MPY +0 20000 0 00075    00473 XCA +0 13100 0 00000    00474 ADD +0 40000 0 00710    00475 TRA +0 02000 0 00702
                 E'O CVTIME.                                                        042  LM00073
 00476 TRA +0 02000 0 00501    00477 SXA +0 63400 2 00664    00500 TSX +0 07400 2 00664
                 D = X1.A.777777K                                                   043  LM00074
 00501 CAL -0 50000 0 00024    00502 ANA -0 32000 0 00077    00503 SLW +0 60200 0 00032
                 HH = D/3600                                                        044  LM00075
 00504 LDQ +0 56000 0 00032    00505 PXD -0 75400 0 00000    00506 LLS +0 76300 0 00000    00507 DVP +0 22100 0 00075
 00510 STQ -0 60000 0 00033
                 F'N ((DERBC.(HH).LS.12).V.                                         045  LM00076
                1     (DERBC.((D-HH*3600)/60)).V.$  0000$)                          045  LM00077
 00511 LDQ +0 56000 0 00033    00512 MPY +0 20000 0 00075    00513 XCA +0 13100 0 00000    00514 CHS +0 76000 0 00002
 00515 ADD +0 40000 0 00032    00516 LRS +0 76500 0 00043    00517 DVP +0 22100 0 00072    00520 STQ -0 60000 0 00710
 00521 TSX +0 07400 4 00002    00522 TXH +3 00000 0 00710    00523 STO +0 60100 0 00710    00524 TSX +0 07400 4 00002
 00525 TXH +3 00000 0 00033    00526 STO +0 60100 0 00707    00527 CAL -0 50000 0 00060    00530 STA +0 62100 0 00532
 00531 CAL -0 50000 0 00707    00532 ALS +0 76700 0 00000    00533 ORA -0 50100 0 00710    00534 ORA -0 50100 0 00107
 00535 SLW +0 60200 0 00710    00536 CLA +0 50000 0 00710    00537 TRA +0 02000 0 00702
                 E'O PROGN.                                                         046  LM00081
 00540 TRA +0 02000 0 00543    00541 SXA +0 63400 2 00664    00542 TSX +0 07400 2 00664
                 MESS1(1) = $L PRGN$                                                047  LM00082
 00543 CLA +0 50000 0 00105    00544 STO +0 60100 0 00040
                 X = X1                                                             048  LM00083
 00545 CLA +0 50000 0 00024    00546 STO +0 60100 0 00046
                 W'R (ZEL.(X).A.PMASK) .E. 0, F'N X                                 049  LM00084
 00547 TSX +0 07400 4 00005    00550 TXH +3 00000 0 00046    00551 STO +0 60100 0 00710    00552 CAL -0 50000 0 00710
 00553 ANA -0 32000 0 00044    00554 SLW +0 60200 0 00710    00555 CLA +0 50000 0 00710    00556 SUB +0 40200 0 00051
 00557 TNZ -0 10000 0 00562    00560 CLA +0 50000 0 00046    00561 TRA +0 02000 0 00702
                 W'R (X.A.777777776060K).E. $CMFL00$, F'N X                         050  LM00085
 00562 CAL -0 50000 0 00046    00563 ANA -0 32000 0 00110    00564 SLW +0 60200 0 00710    00565 CLA +0 50000 0 00710
 00566 SUB +0 40200 0 00102    00567 TNZ -0 10000 0 00572    00570 CLA +0 50000 0 00046    00571 TRA +0 02000 0 00702
                 T'O BAD                                                            051  LM00086
 00572 TRA +0 02000 0 00007
                 E'O PROBN.                                                         052  LM00090
 00573 TRA +0 02000 0 00576    00574 SXA +0 63400 2 00664    00575 TSX +0 07400 2 00664
                 MESS1(1) = $L PRBN$                                                053  LM00091
 00576 CLA +0 50000 0 00104    00577 STO +0 60100 0 00040
                 X = X1                                                             054  LM00092
 00600 CLA +0 50000 0 00024    00601 STO +0 60100 0 00046
                 W'R (X.A.60K).NE.0, T'O BAD                                        055  LM00093
 00602 CAL -0 50000 0 00046    00603 ANA -0 32000 0 00070    00604 SLW +0 60200 0 00710    00605 CLA +0 50000 0 00710
 00606 SUB +0 40200 0 00051    00607 TZE +0 10000 0 00611    00610 TRA +0 02000 0 00007
                 T'H LOOP1, FOR I=6,6,I.E.30                                        056  LM00094
 00611 CLA +0 50000 0 00056    00612 STO +0 60100 0 00034    00613 TRA +0 02000 0 00617    00614 CLA +0 50000 0 00034
 00615 ADD +0 40000 0 00056    00616 STO +0 60100 0 00034    00617 CLA +0 50000 0 00034    00620 SUB +0 40200 0 00066
 00621 TZE +0 10000 0 00662
                 W'R (((X.RS.I).A.60K).NE.0),                                       057  LM00095
                1     F'N BZEL.((((X.RS.I).A.77K).LS.24).V.                         057  LM00096
                2     ((77777777K.RS.(24-I)).A.X))                                  057  LM00097
 00622 CAL -0 50000 0 00034    00623 STA +0 62100 0 00625    00624 CAL -0 50000 0 00046    00625 LGR -0 76500 0 00000
 00626 ANA -0 32000 0 00070    00627 SLW +0 60200 0 00710    00630 CLA +0 50000 0 00710    00631 SUB +0 40200 0 00051
 00632 TZE +0 10000 0 00661    00633 CLA +0 50000 0 00064    00634 SUB +0 40200 0 00034    00635 STA +0 62100 0 00637
 00636 CAL -0 50000 0 00100    00637 LGR -0 76500 0 00000    00640 ANA -0 32000 0 00046    00641 SLW +0 60200 0 00710
 00642 CAL -0 50000 0 00034    00643 STA +0 62100 0 00645    00644 CAL -0 50000 0 00046    00645 LGR -0 76500 0 00000
 00646 ANA -0 32000 0 00073    00647 SLW +0 60200 0 00707    00650 CAL -0 50000 0 00064    00651 STA +0 62100 0 00653
 00652 CAL -0 50000 0 00707    00653 ALS +0 76700 0 00000    00654 ORA -0 50100 0 00710    00655 SLW +0 60200 0 00710
 00656 TSX +0 07400 4 00001    00657 TXH +3 00000 0 00710    00660 TRA +0 02000 0 00702
      LOOP1      C'E                                                                058  LM00098
 00661 TRA +0 02000 0 00614
                 T'O BAD                                                            059  LM00099
 00662 TRA +0 02000 0 00007
                 E'N                                                                060  LM00101
 00663 TSX +0 07400 4 00003    00664 TXH +3 00000 0 00000    00665 SXD -0 63400 1 00664    00666 SXA +0 63400 4 00702
 00667 CLA +0 50000 4 00001    00670 STA +0 62100 0 00114    00671 STO +0 60100 0 00163    00672 STA +0 62100 0 00346
 00673 STO +0 60100 0 00425    00674 STA +0 62100 0 00501    00675 STA +0 62100 0 00545    00676 STA +0 62100 0 00600
 00677 CLA +0 50000 4 00002    00700 STA +0 62100 0 00340    00701 TRA +0 02000 2 00001    00702 AXT +0 77400 4 00000
 00703 LXA +0 53400 2 00664    00704 LXD -0 53400 1 00664    00705 TRA +0 02000 4 00001


 RNAME   BCD 09/20/68 0220.9    4205         00000
1     MAD PROGRAM LISTING ... ... ...                 FILE   RNAME   MAD            02/15/68    1750.9
-
                  RNAME - WRITTEN BY ROGER ROACH 6-22-67                                               LM00001
                                                                                                       LM00002
                  PROGRAM TO GIVE SPECIAL NAMES TO FILES.                                              LM00003
                    THE PROGRAM WILL RECOGNIZE THE FOLLOWING                                           LM00004
                    SPECIAL ARGUMENTS-                                                                 LM00005
                      DATE = SUBSTITUTES THE CURRENT DATE                                              LM00006
                      TIME = SUBSTITUTES THE CURRENT TIME                                              LM00007
                      MONTH = SUBSTITUTES THE CURRENT MONTH                                            LM00008
                      LMONTH = SUBSTITUTES LAST MONTH                                                  LM00009
                       PROB  = USERS PROBLEM NUMBER                                                    LM00010
                       PROG  = USERS PROGRAMMER NUMBER                                                 LM00011
                      PROGL  = USERS LOGOUT SAVED                                                      LM00012
                      NAME   = USERS NAME                                                              LM00013
                                                                                                       LM00014
                  VECTOR VALUES DATE = $  DATE$                                                   *001 LM00015
                  VECTOR VALUES TIME = $  TIME$                                                   *002 LM00016
                  VECTOR VALUES MONTH= $ MONTH$                                                   *003 LM00017
                  VECTOR VALUES LMONTH = $LMONTH$                                                 *004 LM00018
                  VECTOR VALUES PROB = $  PROB$                                                   *005 LM00019
                  VECTOR VALUES PROG = $  PROG$                                                   *006 LM00020
                  VECTOR VALUES PROGL = $ PROGL$                                                  *007 LM00021
                  VECTOR VALUES NAME = $  NAME$                                                   *008 LM00022
                  VECTOR VALUES FEW = 262566575757K                                               *009 LM00023
                  VECTOR VALUES MANY = 442145705757K                                              *010 LM00024
                  VECTOR VALUES FN = 777777777777K                                                *011 LM00025
                  VECTOR VALUES MONTHS= $   DEC$,$   JAN$,$   FEB$,$ MARCH$,$ APRIL$,             *012 LM00026
                1  $   MAY$,$  JUNE$,$  JULY$,$AUGUST$,$  SEPT$,                                  *012 LM00027
                2  $   OCT$,$   NOV$,$   DEC$                                                     *012 LM00028
                  DIMENSION N(4)                                                                  *013 LM00029
                  DIMENSION ME(2)                                                                 *014 LM00030
                  NORMAL MODE IS INTEGER                                                          *015 LM00031
                                                                                                       LM00032
                  DEFINE UNARY OPERATOR .MQ. , PRECEDENCE HIGHER THAN .ABS.                       *016 LM00033
                  MODE STRUCTURE .MQ. 1 TO 1                                                      *017 LM00034
             OUT  MQ                                                                              *018 LM00035
             END                                                                                  *019 LM00036
                                                                                                       LM00037
                                                                                                       LM00038
                  THROUGH LOOP1, FOR I = 1,1,I.G.4                                                *020 LM00039
      LOOP1       N(I) = COMARG.(I)                                                               *021 LM00040
                  ATTNAM.(ME(2)...2)                                                              *022 LM00041
                                                                                                       LM00042
                  THROUGH LOOP2, FOR I = 1,1,I.G.3                                                *023 LM00043
      LOOP2       WHENEVER N(I).E.FN, TRANSFER TO FORMAT                                          *024 LM00044
                  WHENEVER N(4) .E. FN                                                            *025 LM00045
                    N(4) = N(2)                                                                   *026 LM00046
                    TRANSFER TO OVER1                                                             *027 LM00047
                    END OF CONDITIONAL                                                            *028 LM00048
                  WHENEVER COMARG.(5).NE.FN, TRANSFER TO FORMT2                                   *029 LM00049
      OVER1       THROUGH LOOP3, FOR I = 1,1,I.G.4                                                *030 LM00050
                  WHENEVER N(I).E.DATE, N(I) = .MQ.GETIME.(0)                                     *031 LM00051
                  WHENEVER N(I).E.TIME, GETTM.(MESS,N(I))                                         *032 LM00052
                  WHENEVER N(I).E.MONTH, N(I)=MONTHS(BCDEC.(.MQ.GETIME.(0).RS.24))                *033 LM00053
                  WHENEVER N(I).E.LMONTH,N(I)=MONTHS(BCDEC.(.MQ.GETIME.(0).RS.24)-1)              *034 LM00054
                  WHENEVER N(I).E.PROB, N(I) = ME(2)                                              *035 LM00055
                  WHENEVER N(I).E.PROG, N(I) = ME(1)                                              *036 LM00056
                  WHENEVER N(I).E.PROGL, N(I) = ((ME(1).LS.6).V.$00000L$)                         *037 LM00057
      LOOP3       WHENEVER N(I).E.NAME, N(I) = GLOC.(COMLOC.($UNAME$) +                           *038 LM00058
                1    GLOC.(COMLOC.($USER$)))                                                      *038 LM00059
                                                                                                       LM00060
                  CHFILE.(N(1),N(2),-0,N(3),N(4),ERR)                                             *039 LM00061
                  CHNCOM.(0)                                                                      *040 LM00062
                                                                                                       LM00063
      FORMAT      MESS = FEW                                                                      *041 LM00064
                  TRANSFER TO OVER2                                                               *042 LM00065
      FORMT2      MESS = MANY                                                                     *043 LM00066
      OVER2       PRMESS.($  TOO$,MESS,$ ARGUMENTS.$)                                             *044 LM00067
                  DEAD.                                                                           *045 LM00068
      ERR         NCOM.($PRNTER$,371K)                                                            *046 LM00069
                  DEAD.                                                                           *047 LM00070
                  END OF PROGRAM                                                                  *048 LM00071
                                         MODE STRUCTURE .MQ. 1 TO 1           017  LM00034
 (THE NUMERIC FORM OF THE OPERATOR-MODE ARGUMENT IS    11101 )
1MAD PROGRAM,TYPE NOV 1963      (ALL NUMBERS ARE OCTAL)
0TOTAL LOCATIONS   00375 TRANSFER VECTOR LENGTH  00016 PROGRAM BEGINS    00107
0VARIABLE STORAGE (A=ARRAY,C=COMMON,E=ERASABLE,DIGIT=MODE)
      DATE   00024 A 1        FORMT2 00021   4        LOOP3  00016   4        MONTHS 00053 A 1        PROB   00062 A 1
      ERR    00017   4        I      00027   1        MANY   00031 A 1        NAME   00054 A 1        PROGL  00063 A 1
      FEW    00025 A 1        LMONTH 00030 A 1        ME     00034 A 1        N      00061 A 1        PROG   00064 A 1
      FN     00026 A 1        LOOP1  00016   4        MESS   00035   1        OVER1  00022   4        TIME   00065 A 1
      FORMAT 00020   4        LOOP2  00016   4        MONTH  00036 A 1        OVER2  00023   4
0FUNCTION DICTIONARY
      ATTNAM 00000   1        BCDEC  00001   1        CHFILE 00002   1        CHNCOM 00003   1        COMARG 00004   1
      COMLOC 00005   1        DEAD   00006   1        EXIT   00007   1        GETIME 00010   1        GETTM  00011   1
      GLOC   00012   1        .SETUP 00013   1        NCOM   00014   1        PRMESS 00015   1
0ABSOLUTE CONSTANTS
 00077 +000000000371     00102 -075145632551     00101 +254563623360     00103 -202151276444     00104 -206063464660
 00105 -244521442560     00106 -246225516060     00076 +000000000043     00074 +000000000006     00075 +000000000030
 00066 +000000000000     00073 +000000000005     00071 +000000000003     00070 +000000000002     00072 +000000000004
 00067 +000000000001     00100 +233000000000
0STATEMENT DICTIONARY
 00017 TXL -300370000365       00020 TXL -300354000352       00021 TXL -300357000355       00022 TXL -300176000164
 00023 TXL -300364000357
0PROGRAM
                 V'S DATE = $  DATE$                                                001  LM00015
 00107 TSX +0 07400 4 00013    00024     -2 06024 2 16325
                 V'S TIME = $  TIME$                                                002  LM00016
 00065     -2 06063 3 14425
                 V'S MONTH= $ MONTH$                                                003  LM00017
 00036     -2 04446 4 56330
                 V'S LMONTH = $LMONTH$                                              004  LM00018
 00030     -0 34446 4 56330
                 V'S PROB = $  PROB$                                                005  LM00019
 00062     -2 06047 5 14622
                 V'S PROG = $  PROG$                                                006  LM00020
 00064     -2 06047 5 14627
                 V'S PROGL = $ PROGL$                                               007  LM00021
 00063     -2 04751 4 62743
                 V'S NAME = $  NAME$                                                008  LM00022
 00054     -2 06045 2 14425
                 V'S FEW = 262566575757K                                            009  LM00023
 00025     +2 62566 5 75757
                 V'S MANY = 442145705757K                                           010  LM00024
 00031     -0 42145 7 05757
                 V'S FN = 777777777777K                                             011  LM00025
 00026     -3 77777 7 77777
                 V'S MONTHS= $   DEC$,$   JAN$,$   FEB$,$ MARCH$,$ APRIL$,          012  LM00026
                1 $   MAY$,$  JUNE$,$  JULY$,$AUGUST$,$  SEPT$,                     012  LM00027
                2 $   OCT$,$   NOV$,$   DEC$                                        012  LM00028
 00037     -2 06060 2 42523    00040     -2 06060 4 54665    00041     -2 06060 4 62363    00042     -2 06062 2 54763
 00043     +2 16427 6 46263    00044     -2 06041 6 44370    00045     -2 06041 6 44525    00046     -2 06060 4 42170
 00047     -2 02147 5 13143    00050     -2 04421 5 12330    00051     -2 06060 2 62522    00052     -2 06060 4 12145
 00053     -2 06060 2 42523
                 D'N N(4)                                                           013  LM00029
                 D'N ME(2)                                                          014  LM00030
                 N'R                                                                015  LM00031
                 DEFINE UNARY OPERATOR .MQ. , PRECEDENCE HIGHER THAN .ABS.          016  LM00033
                 MODE STRUCTURE .MQ. 1 TO 1                                         017  LM00034
                 T'H LOOP1, FOR I = 1,1,I.G.4                                       020  LM00039
 00110 CLA +0 50000 0 00067    00111 STO +0 60100 0 00027    00112 TRA +0 02000 0 00116    00113 CLA +0 50000 0 00027
 00114 ADD +0 40000 0 00067    00115 STO +0 60100 0 00027    00116 CLA +0 50000 0 00027    00117 SUB +0 40200 0 00072
 00120 TZE +0 10000 0 00122    00121 TPL +0 12000 0 00127
      LOOP1      N(I) = COMARG.(I)                                                  021  LM00040
 00122 TSX +0 07400 4 00004    00123 TXH +3 00000 0 00027    00124 LXA +0 53400 1 00027    00125 STO +0 60100 1 00061
 00126 TRA +0 02000 0 00113
                 ATTNAM.(ME(2)...2)                                                 022  LM00041
 00127 TSX +0 07400 4 00000    00130 TIX +2 00070 0 00032
                 T'H LOOP2, FOR I = 1,1,I.G.3                                       023  LM00043
 00131 CLA +0 50000 0 00067    00132 STO +0 60100 0 00027    00133 TRA +0 02000 0 00137    00134 CLA +0 50000 0 00027
 00135 ADD +0 40000 0 00067    00136 STO +0 60100 0 00027    00137 CLA +0 50000 0 00027    00140 SUB +0 40200 0 00071
 00141 TZE +0 10000 0 00143    00142 TPL +0 12000 0 00151
      LOOP2      W'R N(I).E.FN, T'O FORMAT                                          024  LM00044
 00143 LXA +0 53400 1 00027    00144 CLA +0 50000 1 00061    00145 SUB +0 40200 0 00026    00146 TNZ -0 10000 0 00150
 00147 TRA +0 02000 0 00020    00150 TRA +0 02000 0 00134
                 W'R N(4) .E. FN                                                    025  LM00045
 00151 CLA +0 50000 0 00055    00152 SUB +0 40200 0 00026    00153 TNZ -0 10000 0 00157
                   N(4) = N(2)                                                      026  LM00046
 00154 CLA +0 50000 0 00057    00155 STO +0 60100 0 00055
                   T'O OVER1                                                        027  LM00047
 00156 TRA +0 02000 0 00022
                   E'L                                                              028  LM00048
                 W'R COMARG.(5).NE.FN, T'O FORMT2                                   029  LM00049
 00157 TSX +0 07400 4 00004    00160 TXH +3 00000 0 00073    00161 SUB +0 40200 0 00026    00162 TZE +0 10000 0 00164
 00163 TRA +0 02000 0 00021
      OVER1      T'H LOOP3, FOR I = 1,1,I.G.4                                       030  LM00050
 00164 CLA +0 50000 0 00067    00165 STO +0 60100 0 00027    00166 TRA +0 02000 0 00172    00167 CLA +0 50000 0 00027
 00170 ADD +0 40000 0 00067    00171 STO +0 60100 0 00027    00172 CLA +0 50000 0 00027    00173 SUB +0 40200 0 00072
 00174 TZE +0 10000 0 00176    00175 TPL +0 12000 0 00337
                 W'R N(I).E.DATE, N(I) = .MQ.GETIME.(0)                             031  LM00051
 00176 LXA +0 53400 1 00027    00177 CLA +0 50000 1 00061    00200 SUB +0 40200 0 00024    00201 TNZ -0 10000 0 00206
 00202 TSX +0 07400 4 00010    00203 TXH +3 00000 0 00066    00204 LXA +0 53400 1 00027    00205 STQ -0 60000 1 00061
                 W'R N(I).E.TIME, GETTM.(MESS,N(I))                                 032  LM00052
 00206 LXA +0 53400 1 00027    00207 CLA +0 50000 1 00061    00210 SUB +0 40200 0 00065    00211 TNZ -0 10000 0 00221
 00212 CLA +0 50000 0 00027    00213 SUB +0 40200 0 00214    00214 TXH +3 00000 0 00061    00215 STA +0 62100 0 00220
 00216 TSX +0 07400 4 00011    00217 TXH +3 00000 0 00035    00220 TXH +3 00000 0 00000
                 W'R N(I).E.MONTH, N(I)=MONTHS(BCDEC.(.MQ.GETIME.(0).RS.24))        033  LM00053
 00221 LXA +0 53400 1 00027    00222 CLA +0 50000 1 00061    00223 SUB +0 40200 0 00036    00224 TNZ -0 10000 0 00243
 00225 TSX +0 07400 4 00010    00226 TXH +3 00000 0 00066    00227 STQ -0 60000 0 00372    00230 CAL -0 50000 0 00075
 00231 STA +0 62100 0 00233    00232 CAL -0 50000 0 00372    00233 LGR -0 76500 0 00000    00234 SLW +0 60200 0 00372
 00235 TSX +0 07400 4 00001    00236 TXH +3 00000 0 00372    00237 LXA +0 53400 1 00027    00240 PAX +0 73400 2 00000
 00241 CLA +0 50000 2 00053    00242 STO +0 60100 1 00061
                 W'R N(I).E.LMONTH,N(I)=MONTHS(BCDEC.(.MQ.GETIME.(0).RS.24)-1)      034  LM00054
 00243 LXA +0 53400 1 00027    00244 CLA +0 50000 1 00061    00245 SUB +0 40200 0 00030    00246 TNZ -0 10000 0 00266
 00247 TSX +0 07400 4 00010    00250 TXH +3 00000 0 00066    00251 STQ -0 60000 0 00372    00252 CAL -0 50000 0 00075
 00253 STA +0 62100 0 00255    00254 CAL -0 50000 0 00372    00255 LGR -0 76500 0 00000    00256 SLW +0 60200 0 00372
 00257 TSX +0 07400 4 00001    00260 TXH +3 00000 0 00372    00261 SUB +0 40200 0 00067    00262 LXA +0 53400 1 00027
 00263 PAX +0 73400 2 00000    00264 CLA +0 50000 2 00053    00265 STO +0 60100 1 00061
                 W'R N(I).E.PROB, N(I) = ME(2)                                      035  LM00055
 00266 LXA +0 53400 1 00027    00267 CLA +0 50000 1 00061    00270 SUB +0 40200 0 00062    00271 TNZ -0 10000 0 00274
 00272 CLA +0 50000 0 00032    00273 STO +0 60100 1 00061
                 W'R N(I).E.PROG, N(I) = ME(1)                                      036  LM00056
 00274 LXA +0 53400 1 00027    00275 CLA +0 50000 1 00061    00276 SUB +0 40200 0 00064    00277 TNZ -0 10000 0 00302
 00300 CLA +0 50000 0 00033    00301 STO +0 60100 1 00061
                 W'R N(I).E.PROGL, N(I) = ((ME(1).LS.6).V.$00000L$)                 037  LM00057
 00302 LXA +0 53400 1 00027    00303 CLA +0 50000 1 00061    00304 SUB +0 40200 0 00063    00305 TNZ -0 10000 0 00314
 00306 CAL -0 50000 0 00074    00307 STA +0 62100 0 00311    00310 CAL -0 50000 0 00033    00311 ALS +0 76700 0 00000
 00312 ORA -0 50100 0 00076    00313 SLW +0 60200 1 00061
      LOOP3      W'R N(I).E.NAME, N(I) = GLOC.(COMLOC.($UNAME$) +                   038  LM00058
                1   GLOC.(COMLOC.($USER$)))                                         038  LM00059
 00314 LXA +0 53400 1 00027    00315 CLA +0 50000 1 00061    00316 SUB +0 40200 0 00054    00317 TNZ -0 10000 0 00336
 00320 TSX +0 07400 4 00005    00321 TXH +3 00000 0 00106    00322 STO +0 60100 0 00372    00323 TSX +0 07400 4 00012
 00324 TXH +3 00000 0 00372    00325 STO +0 60100 0 00372    00326 TSX +0 07400 4 00005    00327 TXH +3 00000 0 00105
 00330 ADD +0 40000 0 00372    00331 STO +0 60100 0 00372    00332 TSX +0 07400 4 00012    00333 TXH +3 00000 0 00372
 00334 LXA +0 53400 1 00027    00335 STO +0 60100 1 00061    00336 TRA +0 02000 0 00167
                 CHFILE.(N(1),N(2),-0,N(3),N(4),ERR)                                039  LM00061
 00337 CLS +0 50200 0 00066    00340 STO +0 60100 0 00372    00341 TSX +0 07400 4 00002    00342 TXH +3 00000 0 00060
 00343 TXH +3 00000 0 00057    00344 TXH +3 00000 0 00372    00345 TXH +3 00000 0 00056    00346 TXH +3 00000 0 00055
 00347 TXH +3 00000 0 00017
                 CHNCOM.(0)                                                         040  LM00062
 00350 TSX +0 07400 4 00003    00351 TXH +3 00000 0 00066
      FORMAT     MESS = FEW                                                         041  LM00064
 00352 CLA +0 50000 0 00025    00353 STO +0 60100 0 00035
                 T'O OVER2                                                          042  LM00065
 00354 TRA +0 02000 0 00023
      FORMT2     MESS = MANY                                                        043  LM00066
 00355 CLA +0 50000 0 00031    00356 STO +0 60100 0 00035
      OVER2      PRMESS.($  TOO$,MESS,$ ARGUMENTS.$)                                044  LM00067
 00357 TSX +0 07400 4 00015    00360 TXH +3 00000 0 00104    00361 TXH +3 00000 0 00035    00362 TXH +3 00000 0 00103
 00363 TXH +3 00000 0 00101
                 DEAD.                                                              045  LM00068
 00364 TSX +0 07400 4 00006
      ERR        NCOM.($PRNTER$,371K)                                               046  LM00069
 00365 TSX +0 07400 4 00014    00366 TXH +3 00000 0 00102    00367 TXH +3 00000 0 00077
                 DEAD.                                                              047  LM00070
 00370 TSX +0 07400 4 00006
                 E'M                                                                048  LM00071
 00371 TSX +0 07400 4 00007


  SCDA   BCD 09/20/68 0221.0   10132         00000
1       KLUDGE VERSION OF .SCD                                                                   PAGE 1


                                             THIS PROGRAM DISPLAY VARIOUS CORE-A VARIABLES
                                             ON THE KLUDGE (ESL DISPLAY CONSOLE), SUCH AS THE
                                             SCHEDULING QUEUES, AND TIMES FOR EACH USER.
                                             IT MUST BE REASSEMBLED EACH TIME N OR MAXLV IS
                                             CHANGED IN THE SUPERVISOR EQU PACKAGE, WITH THE
                                             NEW VALUES OF THESE NUMBERS INSERTED IN THIS PROGRAM.

                                             TO PUT TOGETHER THE SAVED FILE,
                                                  FAP SCDA (LIST)
                                                    NCLOAD SCDA (LIBE) KLULIB (LIBE) XLIBE
                                                  SAVE SCDA

                                             THE PROGRAM SAMPLES THE DATA EVERY SO OFTEN, AND
                                               UPDATES THE DISPLAY. THE SAMPLING TIME DESIRED
                                             (IN SECONDS) SHOULD BE SET BY THE USER IN THE
                                             RIGHT-MOST 2 DIGI-SWITCHES AT THE KLUDGE CONSOLE.

                                             AND SO, WITH THESE FACTS WELL IN MIND, YOU MAY BEGIN
                                             YOUR PERUSAL OF THE WONDERS WITHIN. JUST SIT BACK
                                             AND TAKE IT EASY. YOUR GUIDE ON THIS ADVENTURSOME
                                             VOYAGE IS JIM BIXBY, AND THE DATE IS 12/28/67. AND
                                             I WISH I WERE HOME FOR CHRISTMAS VACATION INSTEAD OF
                                             WORKING ON THIS PROGRAM.


                                             NORMAL EXIT IS ACHIEVED THRU CHNCOM IF
                                             AN INTERUPT IS RECEIVED.


1       KLUDGE VERSION OF .SCD                                                                   PAGE 2
                           MACROS THAT WILL BE USED IN THE WORK


                                             'FLOAT' - TO CONVERT A FIXED
                                                        POINT NUMBER IN THE AC TO FLOATING POINT


                              FLOAT  MACRO
                                     ORA     =O233000000000
                                     FAD     =O233000000000
                              FLOAT  END


                                             'DTIME' - TO COMPUTE THE DIFFERENCE BETWEEN TWO
                                                       INTEGERS, AND LEAVE THE RESULT IN FLOATING
                                                       POINT.


                              DTIME  MACRO   LAST,NOW
                                     CLA     NOW
                                     SUB     LAST
                                     FLOAT
                                     STO     LAST
                              DTIME  END


                                             'F6.1' - TO CONVERT A FLOATING POINTING NUMBER
                                                      IN THE AC TO BCD, ACCORDING TO A F6.1
                                                      FORMAT. RESULT LEFT IN THE LAC

                              F6.1   MACRO
                                     UFA     =O233000000000 CONVERT TO FIXED PT. THE NUMBER
                                     ERA     =O233000000000 IS SUPPOSED TO BE 10 * ITS REAL VALUE
                                     LLS     0
                                     STO     TEMP
                                     TSX     $DEFBC,4      CONVERT TO BCD
                                     PTH     TEMP
                                     STO     TEMP
                                     TSX     $BZEL,4
                                     PTH     TEMP          AND BLANK THE LEADING ZEROS
                                     XCA
                                     ZAC
                                     LGL     30            GET THE FIRST 4 DIGITS
                                     ALS     6             MAKE ROOM FOR '.'
                                     ORA     =H00000.      NO F6.1 NUMBER IS COMPLETE WITHOUT IT
                                     LGL     6             GET THE DECIMAL FIGURE
                              F6.1   END


                                             'FIXBCD' - TO CONVERT A FIXED POINT NUMBER
                                                          TO BCD WITH LEADING ZEROS
1       KLUDGE VERSION OF .SCD                                                                   PAGE 3
                           MACROS THAT WILL BE USED IN THE WORK

                              FIXBCD MACRO   FROM,TO
                                     TSX     $DEFBC,4
                                     PTH     FROM
                                     STO     TO
                                     TSX     $BZEL,4
                                     PTH     TO
                                     STO     TO
                              FIXBCD END


                                             'FIXCEN' - TO CONVERT A FIXED POINT NUMBER
                                                   TO BCD OF THE FORM ' XX   '

                              FIXCEN MACRO   FROM,TO
                                     FIXBCD  FROM,TO
                                     XCA
                                     RQL     18
                                     STQ     TO
                              FIXCEN END


                                             'TCONV' - TO CONVERT INTEGER 60TH-S TO SSSS.S

                              TCONV  MACRO   FROM,TO
                                     LDQ     FROM
                                     ZAC
                                     DVP     =6
                                     STQ     TEMP
                                     TSX     $DEFBC,4
                                     PTH     TEMP
                                     STO     TEMP
                                     TSX     $BZEL,4
                                     PTH     TEMP
                                     XCA
                                     LGL     30
                                     ALS     6
                                     ORA     =H00000.
                                     LGL     6
                                     SLW     TO
                                     ERA     =H    .0
                                     TNZ     *+3
                                     CAL     =H
                                     SLW     TO
                              TCONV  END


                                             'PUTIN'- TO PUT 6 BCD CHARACTERS
                                                  FROM WORD INTO A KLUDGE CHARACTER COMMAND
                                                    SOMEWHERE NEAR PLACE
1       KLUDGE VERSION OF .SCD                                                                   PAGE 4
                           MACROS THAT WILL BE USED IN THE WORK

                              PUTIN  MACRO   WORD,PLACE
                                     CAL     WORD          GET THE 6 CHARACTERS
                                     LGR     6             MOVE ONE INTO THE MQ
                                     ORA     =H600000      MAKE A KLUDGE PACKED LONG WORD
                                     SLW     PLACE+2       AND STORE
                                     STQ     PLACE+3       ..
                              PUTIN  END


                                             'DATA' - TO CREATE THE KLUDGE COMMANDS
                                                THAT GET FILLED BY 'PUTIN'

                              DATA   MACRO   SPACE,TITLE
                                     VFD     3/0,15/'SPACE,3/4,15/0
                                     VFD     3/2,15/LOWCS,18/0
                                     VFD     1/0,5/6,H36/'TITLE
                              DATA   END


                                             'LOAD' - TO MOVE SIZE WORDS STARTING AT ALOC IN
                                                        CORE-A INTO CORE-B, STARTING AT BLOC

                              LOAD   MACRO   ALOC,BLOC,SIZE
                                     TSX     GETARY,4
                              ALOC   PZE     **
                                     PZE     BLOC,,SIZE
                              LOAD   END


                                             'COML' - TO GET ADDRESS OF A CORE-A ARRAY

                              COML   MACRO   NAME,LOC
                                     TSX     $COMLOC,4
                                     PTH     =H'NAME
                                     STA     LOC
                              COML   END

1       KLUDGE VERSION OF .SCD                                                                   PAGE 5
                           PROGRAM INITIALIZATION


                                             THIS NEXT SECTION GETS ALL THE NEEDED CORE-A
                                             ADDRESSES,SIGNS ON TO THE KLUDGE, AND PLOTS A
                                             DUMMY PLOT TO ESTABLISH THE NEEDED POINTERS


        TRANSFER VECTOR
      00000  622563225142     SETBRK
      00001  234644434623     COMLOC
      00002  212346512560     ACORE
      00003  622745464560     SGNON
      00004  474346636060     PLOT
      00005  622563476360     SETPT
      00006  314565316260     INVIS
      00007  242526222360     DEFBC
      00010  227125436060     BZEL
      00011  512524312731     REDIGI
      00012  272563634460     GETTM
      00013  514743606060     RPL
      00014  622745462626     SGNOFF
      00015  233045234644     CHNCOM

      00016  0760 00 0 00016         LMTM                  WE WILL NEED MANY OF THESE LATER
      00017  0074 00 4 00000         TSX     $SETBRK,4     SET UP THE EXIT
      00020  0 00000 0 01024         PZE     OUT           ..

      00021                          COML    STATUS,ASTATS GET THE ADDRESSES
      00024                          COML    COMMND,ACMMND
      00027                          COML    TIMLEV,ATIMLV
      00032                          COML    WRKTIM,AWRKTM
      00035                          COML    PLIST,APLIST
      00040                          COML    ULIST,AULIST
      00043                          COML    PROBN,APROBN
      00046                          COML    PROGN,APROGN
      00051                          COML    UNAME,AUNAME
      00054                          COML    MXUSRS,AMXUSR
      00057                          COML    STNBY,ASTNBY
      00062                          COML    NUSERS,ANUSER
      00065                          COML    TOTTIM,ATOTTM
      00070                          COML    BKGTIM,ABKGTM
      00073                          COML    SWPTIM,ASWPTM
      00076                          COML    UCLOCK,AUCLCK
      00101                          COML    UCHARG,AUCHRG

      00104  0074 00 4 00002         TSX     $ACORE,4      GET ADDRESS OF AVG. Q LENGTH
      00105  3 00000 0 02362         PTH     =HAVQLEN
      00106  0771 00 0 00022         ARS     18            MOVE IT TO ADDRESS PART
      00107  0601 00 0 00243         STO     AVQLEN        AND SAVE FOR LATER


                                             DISPLAY INITIALIZATION--SIGN ON
1       KLUDGE VERSION OF .SCD                                                                   PAGE 6
                           PROGRAM INITIALIZATION

      00110  0074 00 4 00003         TSX     $SGNON,4
      00111  3 00000 0 02340         PTH     NCONS         FOR THIS MANY CONSOLES
      00112  3 00000 0 00000         PTH     0             AND NO TRACKING CROSS


                                             PLOT THE SKELETOM DISPLAY TO GET ALL
                                             THE POINTERS WE WILL NEED LATER.

      00113  0074 00 4 00004         TSX     $PLOT,4       PLOT THE TOP HALF OF THE DISPLAY
      00114  3 00000 0 02327         PTH     TOP
      00115  3 00000 0 02043         PTH     POINT         POINTER TO TOP DISPLAY
      00116  0601 00 0 02043         STO     POINT
      00117  0500 00 0 02371         CLA     =-512         LEFT EDGE OF SCREEN
      00120  0601 00 0 02331         STO     H
      00121  0500 00 0 02355         CLA     =190          UPPER CORNER NEAR TOP
      00122  0601 00 0 02330         STO     V
      00123  0774 00 1 00044         AXT     N+1,1         SET UP TO PLOT LOWER HALF OF PLOT


                                             NOW WE GO THROUGH LINE BY LINE AND PUT A SET-POINT
                                             AND TWO DUMMY LINES, ONE TO REPRESENT THE NORMAL
                                             SECTION OF A LINE, AND ONE TO REPRESENT THE DATA
                                             ASSOCIATED WITH BEING IN ACTIVE STATUS.

      00124  0634 00 1 00141  SETDP  SXA     XR1,1         SAVE THE INDEX
      00125  0074 00 4 00005         TSX     $SETPT,4      PUT IN THE SET-POINT
      00126  3 00000 0 02331         PTH     H
      00127  3 00000 0 02330         PTH     V
      00130  0601 00 0 02044         STO     OB            THIS POINTER WON'T BE USED
      00131  0074 00 4 00006         TSX     $INVIS,4      MAKE THE SET-POINT INVISIBLE
      00132  3 00000 0 02044         PTH     OB
      00133  0601 00 0 02044         STO     OB
      00134  0074 00 4 00004         TSX     $PLOT,4       AND ADD IT TO THE DISPLAY FILE
      00135  3 00000 0 02044         PTH     OB
      00136  0500 00 0 02330         CLA     V
      00137  0402 00 0 02332         SUB     SPACE         MOVE DOWN TO NEXT LINE
      00140  0601 00 0 02330         STO     V
      00141  0774 00 1 00000  XR1    AXT     **,1          RESTORE THE INDEX
      00142  0074 00 4 00004         TSX     $PLOT,4       PLOT THE DUMMY LINES
      00143  3 00000 0 02214         PTH     DUMLIN
      00144  3 00000 0 02333         PTH     TEMP
      00145  0522 00 0 00141         XEC     XR1
      00146  0601 00 1 02111         STO     LINES+N+1,1   LINE D.F. POINTERS
      00147  0074 00 4 00004         TSX     $PLOT,4
      00150  3 00000 0 02217         PTH     DUMQS
      00151  3 00000 0 02333         PTH     TEMP
      00152  0522 00 0 00141         XEC     XR1
      00153  0601 00 1 02155         STO     QUEUES+N+1,1  QUEUE D.F. POINTERS
      00154  2 00001 1 00124         TIX     SETDP,1,1     ONE FOR EACH POSSIBLE USER


      00155  0074 00 4 00004         TSX     $PLOT,4       PUT IN AND ENDOFFILE
      00156  3 00000 0 02222         PTH     BOTTOM
1       KLUDGE VERSION OF .SCD                                                                   PAGE 7
                           MAIN PROGRAM


                                             LOAD A NEW SET OF VALUES FROM CORE-A

      00157                   REGEN  LOAD    ASTATS,STATUS,N+1
      00162                          LOAD    ACMMND,COMMND,N+1
      00165                          LOAD    ATIMLV,TIMLEV,N+1
      00170                          LOAD    AWRKTM,WRKTIM,N+1
      00173                          LOAD    APLIST,PLIST,QSIZE
      00176                          LOAD    AULIST,ULIST,QSIZE
      00201                          LOAD    APROBN,PROBN,N+1
      00204                          LOAD    APROGN,PROGN,N+1
      00207                          LOAD    AUNAME,UNAME,N+1
      00212                          LOAD    AUCLCK,UCLOCK,N+1
      00215                          LOAD    AUCHRG,UCHARG,N+1
      00220                          LOAD    AMXUSR,MXUSRS,1
      00223                          LOAD    ASTNBY,STNBY,1
      00226                          LOAD    ANUSER,NUSERS,1
      00231                          LOAD    ATOTTM,TOTTIM,1
      00234                          LOAD    ABKGTM,BKGTIM,1
      00237                          LOAD    ASWPTM,SWPTIM,1
      00242  0074 00 4 02347         TSX     GETLOC,4      GET THE AVERAGE Q LENGTH
      00243  0 00000 0 00000  AVQLEN PZE     **

1       KLUDGE VERSION OF .SCD                                                                   PAGE 8
                           FILL IN THE UPPER DISPLAY

      00244  0300 00 0 02364         FAD     =O233000000000 CONVERT AV. Q LEN TO FLOATING POINT
      00245  0131 00 0 00000         XCA
      00246  0260 00 0 02360         FMP     =.01          ADJUST
      00247                          F6.1                  PUT INTO DISPLAY FORMAT
      00266  0602 00 0 02262         SLW     DAVGQL        AND SAVE IN DISPLAY


      00267  0074 00 4 00011         TSX     $REDIGI,4     GET THE SLEEP TIME FROM THE SWITCHES
      00270  3 00000 0 02334         PTH     LSW
      00271  3 00000 0 02335         PTH     RSW
      00272  0601 00 0 02336         STO     SLPTIM        AND SAVE FOR LATER
      00273                          FIXBCD  SLPTIM,DSAMPL AND PLACE IN DISPLAY
      00301 -0500 00 0 02234         CAL     DSAMPL        CHANGE THE FIRST CHAR. TO 'S'
      00302 -0501 00 0 02404         ORA     =HS00000
      00303  0602 00 0 02234         SLW     DSAMPL


      00304  0074 00 4 00012         TSX     $GETTM,4      GET THE DATE AND TIME
      00305  3 00000 0 02242         PTH     DDATE         INTO THE DISPLAY
      00306  3 00000 0 02243         PTH     DTIME


                                             FILL IN MXUSRS,NUSERS,STNBY

      00307                          FIXCEN  MXUSRS,DMXUSR
      00320                          FIXCEN  NUSERS,DNUSER
      00331                          FIXCEN  STNBY,DSTNBY


      00342  0520 00 0 02337         ZET     FFLAG         IS THIS THE FIRST TIME THRU HERE
      00343  0020 00 0 00346         TRA     COMPCT        NO-COMPUTE GOOD, SWAP AND OTHER
      00344 -0625 00 0 02337         STL     FFLAG         YES--TURN OFF THE FLAG
      00345  0020 00 0 00461         TRA     DUMPCT        AND SET UP FOR THE NEXT PASS


                                             COMPUTE THE DELTA TIMES SINCE THE LAST PASS

      00346                   COMPCT DTIME   OTOTTM,TOTTIM
      00353                          DTIME   OBKGTM,BKGTIM
      00360                          DTIME   OSWPTM,SWPTIM


                                             GOOD = 100*D(TOTTIM-SWPTIM-BKGTIM)/D(TOTTIM)

      00365  0500 00 0 02040         CLA     OTOTTM
      00366  0302 00 0 02042         FSB     OSWPTM
      00367  0302 00 0 02041         FSB     OBKGTM
      00370  0241 00 0 02040         FDP     OTOTTM
      00371  0260 00 0 02361         FMP     =1000.0
      00372                          F6.1                  CONVERT RESULT FOR DISPLAY
      00411  0602 00 0 02266         SLW     DGOOD         AND PLACE THERE
1       KLUDGE VERSION OF .SCD                                                                   PAGE 9
                           FILL IN THE UPPER DISPLAY


                                             SWAP = 100 * D(SWPTIM)/D(TOTTIM)

      00412  0500 00 0 02042         CLA     OSWPTM
      00413  0241 00 0 02040         FDP     OTOTTM
      00414  0260 00 0 02361         FMP     =1000.0
      00415                          F6.1                  CONVERT
      00434  0602 00 0 02270         SLW     DSWAP         AND SAVE


                                             OTHER = 100 * D(BKGTIM)/D(TOTTIM)

      00435  0500 00 0 02041         CLA     OBKGTM
      00436  0241 00 0 02040         FDP     OTOTTM
      00437  0260 00 0 02361         FMP     =1000.0
      00440                          F6.1
      00457  0602 00 0 02274         SLW     DOTHER
      00460  0020 00 0 00465         TRA     SETNXT


                                             PUT IN DUMMY PERCENTAGES ON FIRST PASS

      00461 -0500 00 0 02402  DUMPCT CAL     =H    .
      00462  0602 00 0 02266         SLW     DGOOD
      00463  0602 00 0 02270         SLW     DSWAP
      00464  0602 00 0 02274         SLW     DOTHER


                                             UPDATE OLD TIMES FOR NEXT PASS

      00465 -0500 00 0 01614  SETNXT CAL     TOTTIM
      00466  0602 00 0 02040         SLW     OTOTTM
      00467 -0500 00 0 01615         CAL     BKGTIM
      00470  0602 00 0 02041         SLW     OBKGTM
      00471 -0500 00 0 01616         CAL     SWPTIM
      00472  0602 00 0 02042         SLW     OSWPTM


                                             PLOT THE NEW UPPER DISPLAY

      00473  0074 00 4 00013         TSX     $RPL,4
      00474  3 00000 0 02327         PTH     TOP           POINTER TO THR COMMAND LIST
      00475  3 00000 0 02043         PTH     POINT         OLD TOP DISPLAY FILE POINTER
      00476  0601 00 0 02043         STO     POINT         AND THE NEW DISPLAY FILE POINTER

1       KLUDGE VERSION OF .SCD                                                                   PAGE 10
                           COMPUTE QUEUE POSITIONS AND LEVELS FOR USE LATER


      00477  0774 00 1 00011         AXT     9,1           QUEUE LEVEL IN XR1
      00500  0754 00 1 00000  NQ     PXA     ,1            PUT NEXT POSITION POINTER IN ACC
      00501  0737 00 3 00000         PAC     ,3            SO WE CAN GET IT INTO XR3
      00502  0500 00 0 02351         CLA     =1            START WITH THE FIRST POSITION
      00503  0601 00 0 02037         STO     QPOS          IN THIS LEVEL
      00504  0500 00 3 01251  NXTQ   CLA     PLIST,3       GET POINTER TO USER IN THIS POSITION
      00505  0737 00 3 00000         PAC     ,3            SO HE CAN BE EXTRACTED FROM ULIST
      00506  0500 00 3 01343         CLA     ULIST,3       GET THE USER
      00507 -0120 00 0 00520         TMI     LEVLUP        USER=-1 IS END OF THIS Q LEVEL
      00510  0737 00 2 00000         PAC     ,2            -USER INTO XR2
      00511  0754 00 1 00000         PXA     ,1            AND LEVEL INTO AC
      00512  0601 00 2 01727         STO     LEV,2         STORE THIS USERS LEVEL
      00513  0500 00 0 02037         CLA     QPOS          GET THE POSITION WITHIN THIS LEVEL
      00514  0601 00 2 01773         STO     POS,2         AND STORE THAT TOO
      00515  0400 00 0 02351         ADD     =1            MOVE TO NEXT POSITION
      00516  0601 00 0 02037         STO     QPOS          OF THIS LEVEL
      00517  0020 00 0 00504         TRA     NXTQ          AND GO FIND THE USER
      00520  2 00001 1 00500  LEVLUP TIX     NQ,1,1        MOVE ON TO NEXT LEVEL

1       KLUDGE VERSION OF .SCD                                                                   PAGE 11
                           FILL IN TO LOWER DISPLAY


                                             EACH LINE IN THE LOWER DISPLAY HAS TWO PARTS--
                                               THE FIRST PART IS LINENO,NAME,PROB,PROG,UCLOCK
                                                AND USWAP. THAT IS,INFORMATION THAT PERTAIN
                                                  TO ANY USER THAT IS LOGGED IN.
                                               THE SECOND PART IS WRKTIM, TIMLEV, AND QUEUE
                                                LEVEL AND POSITION. THAT IS,
                                                  INFORMATION WHICH APPLIES TO USERS IN WORKING
                                                  STATUS.
                                                 THESE TWO GROUPS ARE PLOTTED AS SEPARATE
                                                  ITEMS IN THE DISPLAY FILE.


                                             GET AND PLOT THE LINE INFO

      00521  0774 00 1 00044         AXT     N+1,1         DO ALL USERS

      00522  0634 00 1 00660  LOWER  SXA     XR12,1        SAVE THIS FOR LATER ON
      00523 -0500 00 1 01501         CAL     PROBN+N+1,1   GET PROBN
      00524  0100 00 0 00663         TZE     NOTIN         BRANCH IF NOT LOGGED IN
      00525  0602 00 0 02161         SLW     BPROB         PLACE IN DISPLAY
      00526 -0500 00 1 01141         CAL     COMMND+N+1,1  PLOT THE COMMAND
      00527 -0100 00 0 00531         TNZ     *+2           PUT IN BLANKS IF NO COMMAND
      00530 -0500 00 0 02403         CAL     =H            ..
      00531  0602 00 0 02163         SLW     BCOM
      00532  0560 00 1 01545         LDQ     PROGN+N+1,1   AND THE PROG NUM
      00533 -0773 00 0 00006         RQL     6             CENTER IT
      00534 -0600 00 0 02162         STQ     BPROG
      00535 -0500 00 1 01611         CAL     UNAME+N+1,1   PUT IN HIS NAM
      00536  0602 00 0 02160         SLW     BNAME
      00537  0754 00 1 00000         PXA     ,1            GET THE LINE NUMBER
      00540 -0760 00 0 00003         SSM
      00541  0400 00 0 01030         ADD     NPLUS1        LINE NO. IN AC
      00542  0601 00 0 02333         STO     TEMP
      00543 -0100 00 0 00553         TNZ     NOTBKG        SKIP IF NOT BACKGROUND
      00544 -0500 00 0 02403         CAL     =H            BACKGROUND--PUT IN DUMMY JUNK
      00545  0602 00 0 02160         SLW     BNAME
      00546  0602 00 0 02163         SLW     BCOM
      00547 -0500 00 0 02400         CAL     =H BACKG
      00550  0602 00 0 02161         SLW     BPROB
      00551 -0500 00 0 02377         CAL     =HROUND
      00552  0602 00 0 02162         SLW     BPROG


      00553                   NOTBKG FIXBCD  TEMP,BLINNM   PUT IN THE LINE NUMBER
      00561  0560 00 0 02157         LDQ     BLINNM        FUDGE THE FIRST 6 BITS AND POSITION
      00562 -0773 00 0 00022         RQL     18
      00563 -0500 00 0 02342         CAL     NUMMSK
      00564 -0765 00 0 00006         LGR     6
      00565 -0600 00 0 02157         STQ     BLINNM
1       KLUDGE VERSION OF .SCD                                                                   PAGE 12
                           FILL IN TO LOWER DISPLAY


                                             PUT IN UCLOCK AND USWAP

      00566 -0500 00 1 01663         CAL     UCLOCK+N+1,1  GET UCLOCK
      00567  0602 00 0 02333         SLW     TEMP
      00570                          TCONV   TEMP,TEMP     CONVERT AND STORE
      00613                          PUTIN   TEMP,BUCLK
      00620  0500 00 1 01727         CLA     UCHARG+N+1,1  GET UCHARG
      00621  0402 00 1 01663         SUB     UCLOCK+N+1,1  SUBTRACT TO GET USWAP
      00622  0601 00 0 02333         STO     TEMP
      00623                          TCONV   TEMP,TEMP     CONVERT AND STORE
      00646                          PUTIN   TEMP,BUSWP


                                             THE FIRST HALF HAS BEEN FILLED IN.
                                             NOW WE MUST PLOT IT

      00653 -0500 00 1 02111         CAL     LINES+N+1,1   GET THE OLD D.F. POINTER
      00654  0602 00 0 02044         SLW     OB
      00655  0074 00 4 00013         TSX     $RPL,4        REPLACE THE OLD BASIC LINE WITH THE
      00656  3 00000 0 02174         PTH     BASICL        ONE WE JUST CONSTRUCTED
      00657  3 00000 0 02044         PTH     OB            'OB' TELLS IT WHERE THE OLD ONE IS
      00660  0774 00 1 00000  XR12   AXT     **,1          RESTORE THE INDEX
      00661  0601 00 1 02111         STO     LINES+N+1,1   SAVE THE NEW D.F. POINTER
      00662  0020 00 0 00702         TRA     PLTQS         GO OFF TO PLOT THE QUEUE INFO

1       KLUDGE VERSION OF .SCD                                                                   PAGE 13
                           FILL IN TO LOWER DISPLAY


                                             COME HERE IF A USER IS NOT LOGGED IN
                                             IN THIS CASE, WE PLOT ZERO LENGTH INVISIBLE
                                             LINES TO REPLACE ANY JUNK THAT MAY BE IN THE D.F.


      00663 -0500 00 1 02111  NOTIN  CAL     LINES+N+1,1   GET THE OLD POINTER
      00664  0602 00 0 02044         SLW     OB
      00665  0074 00 4 00013         TSX     $RPL,4        REPLACE THE OLD WITH DUMMY LINES
      00666  3 00000 0 02214         PTH     DUMLIN
      00667  3 00000 0 02044         PTH     OB
      00670  0522 00 0 00660         XEC     XR12
      00671  0601 00 1 02111         STO     LINES+N+1,1   SAVE THE NEW POINTER
      00672 -0500 00 1 02155  NOQ    CAL     QUEUES+N+1,1  GET THE OLD Q-PORTION POINTER
      00673  0602 00 0 02044         SLW     OB
      00674  0074 00 4 00013         TSX     $RPL,4        REPLACE ANY OLD WITH DUMMY
      00675  3 00000 0 02217         PTH     DUMQS
      00676  3 00000 0 02044         PTH     OB
      00677  0522 00 0 00660         XEC     XR12
      00700  0601 00 1 02155         STO     QUEUES+N+1,1  SAVE THE NEW POINTER
      00701  0020 00 0 01020         TRA     LOWLUP        AND GO TO NEXT USER
1       KLUDGE VERSION OF .SCD                                                                   PAGE 14
                           FILL IN TO LOWER DISPLAY


                                             HERE TO CHECK IF A USER IS IN WORKING STATUS, AND
                                             IF HE IS, TO PLOT THE QUEUE INFOR

      00702  0500 00 1 01075  PLTQS  CLA     STATUS+N+1,1  GET HIS STATUS
      00703  0402 00 0 02352         SUB     =2            WANT HIM IN WORKING STATUS
      00704 -0100 00 0 00672         TNZ     NOQ           NOT WORKING--PLOT DUMMY QUEUES


      00705 -0500 00 1 01205         CAL     TIMLEV+N+1,1  GET TIMLEV INTO DISPLAY
      00706  0602 00 0 02333         SLW     TEMP
      00707                          TCONV   TEMP,TEMP     CONVERT AND STORE
      00732                          PUTIN   TEMP,QTMLV


      00737 -0500 00 1 01251         CAL     WRKTIM+N+1,1  SAME FOR WRKTIM
      00740  0602 00 0 02333         SLW     TEMP
      00741                          TCONV   TEMP,TEMP
      00764                          PUTIN   TEMP,QWRK


                                             HERE WE GENERATE THE TWO WORDS OF KLUDGE COMMAND
                                             FOR PLOTTING THE QUEUE LEVEL AND POSITION


      00771  0500 00 1 01773         CLA     LEV+N+1,1     GET THIS GUYS QUEUE LEVEL
      00772  0734 00 2 00000         PAX     ,2            FOR LATER
      00773  0560 00 0 02403         LDQ     =H            SET UP THE LAC-MQ AD
      00774 -0500 00 1 02037         CAL     POS+N+1,1     FIRST CHAR 'POS' AND REST BLANKS
      00775 -0765 00 0 00006         LGR     6             ..
      00776 -0130 00 0 00000         XCL                   ..
      00777  0560 00 0 02403         LDQ     =H            ..

      01000  2 00001 2 01002         TIX     *+2,2,1       TEST FOR MORE SHIFTING NECESSARY
      01001  0020 00 0 01005         TRA     *+4           NO
      01002 -0765 00 0 00006         LGR     6             YES--OBVIOUSLY
      01003 -0501 00 0 02370         ORA     =H.00000      PUT IN A LEADING '.'
      01004  0020 00 0 01000         TRA     *-4           THIS IS FUN, LETS SEE IF WE CAN DO IT AGAIN

      01005 -0765 00 0 00014         LGR     12            MAKE ROOM FOR THE COUNT AND FIRST BLANK
      01006 -0501 00 0 02357         ORA     =O126000000000 THERE THEY ARE, SPORTS FANS
      01007  0602 00 0 02207         SLW     Q15           PUT IN THE DISPLAY
      01010 -0600 00 0 02210         STQ     Q69           NEED BOTH WORDS

                                             EVENTUALLY WE END UP HERE TO PLOT THE LINE

      01011 -0500 00 1 02155  PQ     CAL     QUEUES+N+1,1  GET THE OLD QUEUE D.F. POINTER
      01012  0602 00 0 02044         SLW     OB
      01013  0074 00 4 00013         TSX     $RPL,4        REPLACE THE OLD QUEUES LINE
      01014  3 00000 0 02211         PTH     QUEUEL        WITH THE ONE WE JUST CONSTRUCTED
1       KLUDGE VERSION OF .SCD                                                                   PAGE 15
                           FILL IN TO LOWER DISPLAY

      01015  3 00000 0 02044         PTH     OB
      01016  0522 00 0 00660         XEC     XR12
      01017  0601 00 1 02155         STO     QUEUES+N+1,1  AND SAVE THE NEW POINTER


      01020  2 00001 1 00522  LOWLUP TIX     LOWER,1,1     DO ALL THE USERS


      01021  0500 00 0 02336         CLA     SLPTIM        GET THE SLEEP TIME
      01022  0074 00 4 02346         TSX     SLEEP,4       AND DO SO

      01023  0020 00 0 00157         TRA     REGEN         THEN GO BACK TO DO THE WHOLE MESS OVER


                                             COME HERE IF AN INTERUPT WAS RECEIVED

      01024  0074 00 4 00014  OUT    TSX     $SGNOFF,4     GET OFF THE KLUDGE
      01025  3 00000 0 02350         PTH     =0
      01026  0074 00 4 00015         TSX     $CHNCOM,4     AND EXIT
      01027  3 00000 0 02350         PTH     =0

1       KLUDGE VERSION OF .SCD                                                                   PAGE 16
                           STORAGE FOR THE CORE-A VARIABLES


                       00043  N      EQU     35
      01030  0 00000 0 00044  NPLUS1 PZE     N+1
                       00012  MAXLV  EQU     10
                       00072  QSIZE  EQU     N+1+2*MAXLV+2
      01031                   STATUS BSS     N+1
      01075                   COMMND BSS     N+1
      01141                   TIMLEV BSS     N+1
      01205                   WRKTIM BSS     N+1
      01251                   PLIST  BSS     QSIZE
      01343                   ULIST  BSS     QSIZE
      01435                   PROBN  BSS     N+1
      01501                   PROGN  BSS     N+1
      01545                   UNAME  BSS     N+1
      01611                   MXUSRS BSS     1
      01612                   NUSERS BSS     1
      01613                   STNBY  BSS     1
      01614                   TOTTIM BSS     1
      01615                   BKGTIM BSS     1
      01616                   SWPTIM BSS     1
      01617                   UCLOCK BSS     N+1
      01663                   UCHARG BSS     N+1


      01727                   LEV    BSS     N+1           QUEUE LEVEL ARRAY
      01773                   POS    BSS     N+1           QUEUE POSITION ARRAY
      02037                   QPOS   BSS     1


      02040                   OTOTTM BSS     1
      02041                   OBKGTM BSS     1
      02042                   OSWPTM BSS     1


                                             POINTERS TO THE CORE-A DISPLAY FILE

      02043                   POINT  BSS     1             POINTER TO UPPER DISPLAY
      02044                   OB     BSS     1             TEMPORARY GENERAL PURPOSE POINTER
      02045                   LINES  BSS     N+1           FIRST PORTION POINTERS
      02111                   QUEUES BSS     N+1           QUEUES PORTION POINTERS

1       KLUDGE VERSION OF .SCD                                                                   PAGE 17
                           DISPLAY FILE OBJECTS FOR PLOTTINE


                                             SKELETON BASIC LOWER LINE


      02155  0 00000 0 00016  BTLIN  PZE     BELIN-*-1     NUMBERS OF COMMANDS IN THIS LIST
      02156  200007000000            VFD     3/2,15/LOWCS,18/0
      02157  356060606060     BLINNM VFD     1/0,5/29,H30/ LINE NUMBER
      02160  606060606060     BNAME  BCI     1,
      02161  606060606060     BPROB  BCI     1,
      02162  606060606060     BPROG  BCI     1,
      02163  606060606060     BCOM   BCI     1,
      02164                   BUCLK  DATA    10
      02170                   BUSWP  DATA    10
                       02174  BELIN  EQU     *

      02174  0 00000 0 02155  BASICL PZE     BTLIN         POINTER TO THE ABOVE OBJECT


                                             SKELETON QUEUES LOWER LINE

      02175  0 00000 0 00013  QTLIN  PZE     QELIN-*-1
      02176                   QWRK   DATA    10
      02202                   QTMLV  DATA    10
      02206  200014000000            VFD     3/2,15/LOWQS,18/0
      02207  116060606060     Q15    VFD     1/0,5/9,H30/
      02210  606060606060     Q69    BCI     1,
                       02211  QELIN  EQU     *

      02211  0 00000 0 02175  QUEUEL PZE     QTLIN         POINTER TO ABOVE OBJECT


                                             DUMMY BASIC LINE

      02212 +000000000001     DMLIN  DEC     1             ONE COMMAND HERE
      02213 +000000400000            OCT     400000        ZERO LENGTH INVISIBLE LINE

      02214  0 00000 0 02212  DUMLIN PZE     DMLIN         POINTER TO THE LINE


                                             DUMMY QUEUES LINE

      02215 +000000000001     DMQ    DEC     1
      02216 +000000400000            OCT     400000

      02217  0 00000 0 02215  DUMQS  PZE     DMQ           POINTER TO THE DUMMY QUEU


1       KLUDGE VERSION OF .SCD                                                                   PAGE 18
                           DISPLAY FILE OBJECTS FOR PLOTTINE

                                             DISPLAY FILE END OF FILE

      02220 +000000000001     EOFC   DEC     1
      02221 +377777377777            OCT     377777377777

      02222  0 00000 0 02220  BOTTOM PZE     EOFC          POINTER TO END OF FILE COMMAND


                                             SKELETON UPPER DISPLAY

      02223  0 00000 0 00103  UPRDIS PZE     TOPBOT-*-1    COUNT OF WORDS IN OBJECT
      02224  300002000000            VFD     3/3,13/0,3/4,13/0 SET POINT AT CENTER OF SCREEN
      02225  040470400702            VFD     3/0,1/1,14/312,3/4,1/0,14/450 LINE TO UPPER CORNER
      02226  200007000000            VFD     3/2,15/7,18/0 START IN ON PACKED CHARS
      02227  672363626260            VFD     1/1,5/23,H24/CTSS,H6/
      02230  646221272560            BCI     1,USAGE
      02231  606060606221            BCI     1,    SA
      02232  444743256051            BCI     1,MPLE R
      02233  232163256031            BCI     1,CATE I
      02234  626060606060     DSAMPL BCI     1,S
      02235  606225234645            BCI     1, SECON
      02236  246260606060            BCI     1,DS
      02237  041336440050            VFD     3/0,1/1,14/734,3/4,1/1,14/40 NEXT LINE
      02240  200007000000            VFD     3/2,15/7,18/0
      02241  676331442560            VFD     1/1,5/23,H24/TIME,H6/
      02242  606060606060     DDATE  BCI     1,
      02243  606060606060     DTIME  BCI     1,
      02244  606044676462            BCI     1,  MXUS
      02245  615162601360            BCI     1,/RS =
      02246  606060606060     DMXUSR BCI     1,
      02247  606045646225            BCI     1,  NUSE
      02250 +355162601360            OCT     355162601360  'RS = '
      02251  606060606060     DNUSER BCI     1,
      02252  606060626345            BCI     1,   STN
      02253  227060136060            BCI     1,BY =
      02254  606060606060     DSTNBY BCI     1,
      02255  041257440050            VFD     3/0,1/1,14/687,3/4,1/1,14/40
      02256  200007000000            VFD     3/2,15/7,18/0
      02257  272165276050            BCI     1,GAVG Q
      02260  642564256043            BCI     1,UEUE L
      02261  254527633013            BCI     1,ENGTH=
      02262  606060606060     DAVGQL BCI     1,
      02263  040662440050            VFD     3/0,1/1,14/434,3/4,1/1,14/40
      02264  200007000000            VFD     3/2,15/7,18/0
      02265  272746462413            VFD     1/0,5/23,H30/GOOD=
      02266  606060606060     DGOOD  BCI     1,
      02267  606266214713            BCI     1, SWAP=
      02270  606060606060     DSWAP  BCI     1,
      02271  000016400000            VFD     3/0,1/0,14/14,3/4,1/0,14/0
      02272  200007000000            VFD     3/2,15/7,18/0
      02273  134663302551            VFD     1/0,5/11,H30/OTHER
      02274  606060606060     DOTHER BCI     1,
      02275  041274440120            VFD     3/0,1/1,14/700,3/4,1/1,14/80
      02276  200007000000            VFD     3/2,15/LOWCS,18/0
1       KLUDGE VERSION OF .SCD                                                                   PAGE 19
                           DISPLAY FILE OBJECTS FOR PLOTTINE

      02277  344331452560            VFD     1/0,5/28,H24/LINE,H6/
      02300  604521442560            BCI     1, NAME
      02301  606060646225            BCI     1,   USE
      02302  516060606023            BCI     1,R    C
      02303  464444452460            BCI     1,OMMND
      02304                          DATA    10,UCLOCK
      02310                          DATA    10,USWAP
      02314                          DATA    10,WRKTIM
      02320                          DATA    10,TIMLEV
      02324  200014000000            VFD     3/2,15/LOWQS,18/0
      02325 +126001020304            OCT     126001020304
      02326  050607101100            VFD     H30/56789
                       02327  TOPBOT EQU     *

      02327  0 00000 0 02223  TOP    PZE     UPRDIS        POINTER TO UPPER DISPLAY

1       KLUDGE VERSION OF .SCD                                                                   PAGE 20
                           OTHER CONSTANTS AND VARIABLES

      02330                   V      BSS     1             TEMPORARY H AND V
      02331                   H      BSS     1
      02332 +000000000024     SPACE  DEC     20            BIT SPACING BETWEEN LOWER LINES
      02333                   TEMP   BSS     1
      02334 +000000000010     LSW    DEC     8             LEFT SWITCH NUMBER FOR SLEET TIME
      02335 +000000000011     RSW    DEC     9             RIGHT SWITCH FOR SLEEP TIME
      02336                   SLPTIM BSS     1             SLEEP TIME READ FROM SWITCHES
      02337  0 00000 0 00000  FFLAG  PZE     0             FIRST TIME FLAG
      02340 +000000000002     NCONS  DEC     2             NUMBER OF CONSOLES DESIRED
                       00007  LOWCS  EQU     7             LOWER DISPLAY CHARACTER SPACING
                       00014  LOWQS  EQU     12            LOWER DISPLAY Q-LEVEL SPACING
      02341  000000000013     SWPMSK VFD     30/0,1/0,5/11
      02342  000000000035     NUMMSK VFD     30/0,1/0,5/29
      02343  000000000013     WRKMSK VFD     30/0,1/0,5/11
      02344  000000000011     Q15MSK VFD     30/0,1/0,5/9


                                             TIA'S

      02345  0101 00 0 02366  GETARY TIA     =HGETARY
      02346  0101 00 0 02405  SLEEP  TIA     =HSLEEP
      02347  0101 00 0 02367  GETLOC TIA     =HGETLOC
                                     END

        LITERALS
      02350  000000000000
      02351  000000000001
      02352  000000000002
      02353  000000000006
      02354  000000000033
      02355  000000000276
      02356  060000000000
      02357  126000000000
      02360  172507534121
      02361  212764000000
      02362  216550432545
      02363  224227633144
      02364  233000000000
      02365  234644444524
      02366  272563215170
      02367  272563434623
      02370  330000000000
      02371  400000001000
      02372  446764625162
      02373  456462255162
      02374  474331626360
      02375  475146224560
      02376  475146274560
      02377  514664452460
      02400  602221234227
      02401  606060603300
      02402  606060603360
      02403  606060606060
      02404  620000000000
      02405  624325254760
1       KLUDGE VERSION OF .SCD                                                                   PAGE 21
                           OTHER CONSTANTS AND VARIABLES

      02406  626321636462
      02407  626345227060
      02410  626647633144
      02411  633144432565
      02412  634663633144
      02413  642330215127
      02414  642343462342
      02415  644331626360
      02416  644521442560
      02417  665142633144
1       KLUDGE VERSION OF .SCD                                                                   PAGE 1
                        POST PROCESSOR ASSEMBLY DATA

       2420 IS THE FIRST LOCATION NOT USED BY THIS PROGRAM

0REFERENCES TO DEFINED SYMBOLS
       2331      H   120,  126
         43      N   123,  146,  153,  161,  164,  167,  172,  203,  206,  211,  214,  217,  521,  523,  526,  532,  535
                     566,  620,  621,  653,  661,  663,  671,  672,  700,  702,  705,  737,  771,  774, 1011, 1017, 1030
                    1031, 1075, 1141, 1205, 1435, 1501, 1545, 1617, 1663, 1727, 1773, 2045, 2111
       2330      V   122,  127,  136,  140
        500     NQ   520
       2044     OB   130,  132,  133,  135,  654,  657,  664,  667,  673,  676, 1012, 1015
       1011     PQ
       2215    DMQ  2217
       1727    LEV   512,  771
       2334    LSW   270
        672    NOQ   704
       1024    OUT    20
       1773    POS   514,  774
       2207    Q15  1007
       2210    Q69  1010
         13    RPL   473,  655,  665,  674, 1013
       2335    RSW   271
       2327    TOP   114,  474
        141    XR1   124,  145,  152
       2163   BCOM   531,  546
         10   BZEL   256,  276,  312,  323,  334,  401,  424,  447,  556,  577,  632,  716,  750
       2220   EOFC  2222
        504   NXTQ   517
          4   PLOT   113,  134,  142,  147,  155
       2037   QPOS   503,  513,  516
       2176   QWRK   767,  770
       2333   TEMP   144,  151,  252,  254,  255,  257,  375,  377,  400,  402,  420,  422,  423,  425,  443,  445,  446
                     450,  542,  554,  567,  570,  573,  575,  576,  600,  606,  612,  613,  622,  623,  626,  630,  631
                     633,  641,  645,  646,  706,  707,  712,  714,  715,  717,  725,  731,  732,  740,  741,  744,  746
                     747,  751,  757,  763,  764
        660   XR12   522,  670,  677, 1016
          2  ACORE   104
       2174  BELIN  2155, 2174
       2160  BNAME   536,  545
       2161  BPROB   525,  550
       2162  BPROG   534,  552
       2155  BTLIN  2174
       2164  BUCLK   616,  617
       2170  BUSWP   651,  652
       2242  DDATE   305
          7  DEFBC   253,  273,  307,  320,  331,  376,  421,  444,  553,  574,  627,  713,  745
       2266  DGOOD   411,  462
       2212  DMLIN  2214
       2270  DSWAP   434,  463
       2243  DTIME   306
       2217  DUMQS   150,  675
       2337  FFLAG   342,  344
         12  GETTM   304
          6  INVIS   131
       2045  LINES   146,  653,  661,  663,  671
1       KLUDGE VERSION OF .SCD                                                                   PAGE 2
                        POST PROCESSOR ASSEMBLY DATA

          7  LOWCS  2156, 2165, 2171, 2177, 2203, 2276, 2305, 2311, 2315, 2321, 2341
        522  LOWER  1020
         14  LOWQS  2206, 2324, 2341
         12  MAXLV  1031
       2340  NCONS   111
        663  NOTIN   524
       1251  PLIST   175,  504
        702  PLTQS   662
       2043  POINT   115,  116,  475,  476
       1435  PROBN   203,  523
       1501  PROGN   206,  532
       2211  QELIN  2175, 2211
         72  QSIZE   175,  200, 1031, 1251, 1343
       2175  QTLIN  2211
       2202  QTMLV   735,  736
        157  REGEN  1023
        124  SETDP   154
          5  SETPT   125
          3  SGNON   110
       2346  SLEEP  1022
       2332  SPACE   137
       1613  STNBY   225,  332
       1343  ULIST   200,  506
       1545  UNAME   211,  535
        235 ABKGTM    72
        163 ACMMND    26
        221 AMXUSR    56
        227 ANUSER    64
        174 APLIST    37
        202 APROBN    45
        205 APROGN    50
        160 ASTATS    23
        224 ASTNBY    61
        240 ASWPTM    75
        166 ATIMLV    31
        232 ATOTTM    67
        216 AUCHRG   103
        213 AUCLCK   100
        177 AULIST    42
        210 AUNAME    53
        243 AVQLEN   107
        171 AWRKTM    34
       2174 BASICL   656
       1615 BKGTIM   236,  353,  467
       2157 BLINNM   555,  557,  560,  561,  565
       2222 BOTTOM   156
         15 CHNCOM  1026
          1 COMLOC    21,   24,   27,   32,   35,   40,   43,   46,   51,   54,   57,   62,   65,   70,   73,   76,  101
       1075 COMMND   164,  526
        346 COMPCT   343
       2262 DAVGQL   266
       2246 DMXUSR   311,  313,  314,  317
       2251 DNUSER   322,  324,  325,  330
       2274 DOTHER   457,  464
       2234 DSAMPL   275,  277,  300,  301,  303
1       KLUDGE VERSION OF .SCD                                                                   PAGE 3
                        POST PROCESSOR ASSEMBLY DATA

       2254 DSTNBY   333,  335,  336,  341
       2214 DUMLIN   143,  666
        461 DUMPCT   345
       2345 GETARY   157,  162,  165,  170,  173,  176,  201,  204,  207,  212,  215,  220,  223,  226,  231,  234,  237
       2347 GETLOC   242
        520 LEVLUP   507
       1020 LOWLUP   701
       1611 MXUSRS   222,  310
        553 NOTBKG   543
       1030 NPLUS1   541
       2342 NUMMSK   563
       1612 NUSERS   230,  321
       2041 OBKGTM   354,  357,  367,  435,  470
       2042 OSWPTM   361,  364,  366,  412,  472
       2040 OTOTTM   347,  352,  365,  370,  413,  436,  466
       2344 Q15MSK
       2211 QUEUEL  1014
       2111 QUEUES   153,  672,  700, 1011, 1017
         11 REDIGI   267
          0 SETBRK    17
        465 SETNXT   460
         14 SGNOFF  1024
       2336 SLPTIM   272,  274, 1021
       1031 STATUS   161,  702
       2341 SWPMSK
       1616 SWPTIM   241,  360,  471
       1141 TIMLEV   167,  705
       2327 TOPBOT  2223, 2327
       1614 TOTTIM   233,  346,  465
       1663 UCHARG   217,  620
       1617 UCLOCK   214,  566,  621
       2223 UPRDIS  2327
       2343 WRKMSK
       1205 WRKTIM   172,  737

0 NO ERROR IN ABOVE ASSEMBLY.


SETFIB   BCD 09/20/68 0221.0    4595         00000
1     MAD PROGRAM LISTING ... ... ...                 FILE  SETFIB   MAD            02/15/68    2132.5
-
                  SETFIB - WRITTEN BY ROGER ROACH 6/28/67                                              LM00001
                                                                                                       LM00002
                  PROGRAM TO SET UP A CALL TO FIB TO SCHEDULE                                          LM00003
                  A JOB TO RUN X DAYS FROM THE PRESENT DATE.                                           LM00004
                                                                                                       LM00005
                  CALLING SEQUENCE-                                                                    LM00006
                     R SETFIB NAME LIMIT TIME XDAYS                                                    LM00007
                                                                                                       LM00008
                  DEFINE UNARY OPERATOR .MQ., PRECEDENCE HIGHER THAN .ABS.                        *001 LM00009
                  MODE STRUCTURE .MQ. 1 TO 1                                                      *002 LM00010
             OUT  MQ                                                                              *003 LM00011
             END                                                                                  *004 LM00012
                  NORMAL MODE IS INTEGER                                                          *005 LM00013
                                                                                                       LM00014
                  DIMENSION TABLE(5)                                                              *006 LM00015
                  EQUIVALENCE (TABLE(0),FIB),(TABLE(1),NAME),(TABLE(2),LIMIT),                    *007 LM00016
                1   (TABLE(3),TIME),(TABLE(4),DAY),(TABLE(5),F)                                   *007 LM00017
                  VECTOR VALUES DAYS(1) = 31,28,31,30,31,30,31,31,30,31,30,31,31                  *008 LM00018
                  VECTOR VALUES F = 777777777777K                                                 *009 LM00019
                  VECTOR VALUES FIB = $   FIB$                                                    *010 LM00020
                  VECTOR VALUES MASK = 7777K                                                      *011 LM00021
                                                                                                       LM00022
                  NAME = COMARG.(1)                                                               *012 LM00023
                  LIMIT = COMARG.(2)                                                              *013 LM00024
                  TIME = COMARG.(3)                                                               *014 LM00025
                  XDAYS = COMARG.(4)                                                              *015 LM00026
                  TEST = COMARG.(5)                                                               *016 LM00027
                  WHENEVER NAME .E. F                                                             *017 LM00028
                       PRMESS.($SETFIB NAME LIMIT TIME XDAYS$)                                    *018 LM00029
                       PRMESS.($  XDAYS IS NUMBER OF DAYS FROM TODAY,$)                           *019 LM00030
                       PRMESS.($  IF XDAYS IS MISSING, TIME IS DELTA TIME,$)                      *020 LM00031
                       PRMESS.($  I.E. THE NUMBER OF MINUTES FROM NOW.$)                          *021 LM00032
                       CHNCOM.(0)                                                                 *022 LM00033
                       END OF CONDITIONAL                                                         *023 LM00034
                  WHENEVER XDAYS.E.F .AND. NAME.NE.F .AND. LIMIT.NE.F, TRANSFER TO XTIME          *024 LM00035
                  XDAYS = BCDEC.(XDAYS)                                                           *025 LM00036
                  WHENEVER NAME.E.F .OR. LIMIT.E.F .OR. TIME.E.F .OR. TEST.NE.F                   *026 LM00037
                     PRMESS.($ILLEGAL FORMAT$)                                                    *027 LM00038
                     CHNCOM.(0)                                                                   *028 LM00039
                     END OF CONDITIONAL                                                           *029 LM00040
                                                                                                       LM00041
                  DATE = .MQ.GETIME.(0)                                                           *030 LM00042
                  YEAR = BCDEC.(DATE.A.MASK)                                                      *031 LM00043
                  WHENEVER YEAR/4 * 4 .E. YEAR, DAYS(2) = 29                                      *032 LM00044
                  MONTH = BCDEC.(DATE.RS.24)                                                      *033 LM00045
                  WHENEVER XDAYS.G.DAYS(MONTH) .OR. XDAYS.G.DAYS(MONTH+1)                         *034 LM00046
                     PRMESS.($XDAYS TOO LARGE.$)                                                  *035 LM00047
                     CHNCOM.(0)                                                                   *036 LM00048
                     END OF CONDITIONAL                                                           *037 LM00049
                  DAY = BCDEC.((DATE.RS.12).A.MASK) + XDAYS                                       *038 LM00050
                  WHENEVER DAY .G. DAYS(MONTH), DAY = DAY-DAYS(MONTH)                             *039 LM00051
                  TABLE(4) = DERBC.(DAY)                                                          *040 LM00052
      CALFIB      SCLS.(TABLE,0)                                                                  *041 LM00053
                  NCOM.(TABLE,TABLE(1))                                                           *042 LM00054
                                                                                                       LM00055
                  IF NO XDAYS SPECIFIED, USE TIME AS XTIME                                             LM00056
                                                                                                       LM00057
      XTIME       TABLE(4) = F                                                                    *043 LM00058
                  GETTM.(TABLE(5),TIMNOW)                                                         *044 LM00059
                  MINNOW= BCDEC.(TIMNOW.RS.24)*60+BCDEC.((TIMNOW.RS.12).A.MASK)                   *045 LM00060
                  XMIN = BCDEC.(TIME.RS.12)*60+BCDEC.(TIME.A.MASK)                                *046 LM00061
                  HOURS = (MINNOW+XMIN)/60                                                        *047 LM00062
                  MINUTS = MINNOW + XMIN - HOURS*60                                               *048 LM00063
      LOOP        WHENEVER MINUTS .G. 60                                                          *049 LM00064
                     HOURS = HOURS+1                                                              *050 LM00065
                     MINUTS = MINUTS-60                                                           *051 LM00066
                     TRANSFER TO LOOP                                                             *052 LM00067
                     END OF CONDITIONAL                                                           *053 LM00068
                  WHENEVER HOURS.G.24, HOURS = HOURS-24                                           *054 LM00069
                  TABLE(3) = (DERBC.(HOURS).LS.12).V.DERBC.(MINUTS)                               *055 LM00070
                  TRANSFER TO CALFIB                                                              *056 LM00071
                                                                                                       LM00072
                  END OF PROGRAM                                                                  *057 LM00073
                                         MODE STRUCTURE .MQ. 1 TO 1           002  LM00010
 (THE NUMERIC FORM OF THE OPERATOR-MODE ARGUMENT IS    11101 )
1MAD PROGRAM,TYPE NOV 1963      (ALL NUMBERS ARE OCTAL)
0TOTAL LOCATIONS   00516 TRANSFER VECTOR LENGTH  00013 PROGRAM BEGINS    00130
0VARIABLE STORAGE (A=ARRAY,C=COMMON,E=ERASABLE,DIGIT=MODE)
      CALFIB 00022   4        F      00014 A 1        MINNOW 00046   1        TABLE  00021 A 1        XDAYS  00053   1
      DATE   00025   1        HOURS  00044   1        MINUTS 00047   1        TEST   00051   1        XMIN   00054   1
      DAY    00015   1        LIMIT  00017   1        MONTH  00050   1        TIME   00016   1        XTIME  00024   4
      DAYS   00043 A 1        LOOP   00023   4        NAME   00020   1        TIMNOW 00052   1        YEAR   00055   1
      FIB    00021 A 1        MASK   00045 A 1
0FUNCTION DICTIONARY
      BCDEC  00000   1        CHNCOM 00001   1        COMARG 00002   1        DERBC  00003   1        EXIT   00004   1
      GETIME 00005   1        GETTM  00006   1        .SETUP 00007   1        NCOM   00010   1        PRMESS 00011   1
      SCLS   00012   1
0ABSOLUTE CONSTANTS
 00067 +000000000074     00064 +000000000014     00103 -112725336060     00122 -234646604321     00126 -272421706260
 00065 +000000000030     00066 +000000000035     00070 +216360606060     00100 -036026465144     00074 +314343252721
 00056 +000000000000     00125 -263360606060     00104 -114644604546     00124 -246325626026     00102 -062660443145
 00112 -206330256045     00110 -206031332533     00113 -206331442573     00105 -202425436321     00075 +314425603162
 00076 +314527736063     00120 -226044316262     00072 +242170626031     00107 -206031266067     00127 -336060606060
 00114 -206346242170     00116 -226026514644     00101 -062660242170     00123 -244422255160     00117 -226031626045
 00111 -206067242170     00073 +242170626060     00121 -233144256067     00077 -033144316360     00106 -204521442560
 00115 -222563263122     00063 +000000000005     00062 +000000000004     00061 +000000000003     00060 +000000000002
 00057 +000000000001     00071 +233000000000
0STATEMENT DICTIONARY
 00022 TXL -300357000354       00023 TXL -300456000452       00024 TXL -300364000362
0PROGRAM
                 DEFINE UNARY OPERATOR .MQ., PRECEDENCE HIGHER THAN .ABS.           001  LM00009
                 MODE STRUCTURE .MQ. 1 TO 1                                         002  LM00010
 00130 TSX +0 07400 4 00007
                 N'R                                                                005  LM00013
                 D'N TABLE(5)                                                       006  LM00015
                 E'E (TABLE(0),FIB),(TABLE(1),NAME),(TABLE(2),LIMIT),               007  LM00016
                1  (TABLE(3),TIME),(TABLE(4),DAY),(TABLE(5),F)                      007  LM00017
                 V'S DAYS(1) = 31,28,31,30,31,30,31,31,30,31,30,31,31               008  LM00018
 00026     +0 00000 0 00037    00027     +0 00000 0 00037    00030     +0 00000 0 00036    00031     +0 00000 0 00037
 00032     +0 00000 0 00036    00033     +0 00000 0 00037    00034     +0 00000 0 00037    00035     +0 00000 0 00036
 00036     +0 00000 0 00037    00037     +0 00000 0 00036    00040     +0 00000 0 00037    00041     +0 00000 0 00034
 00042     +0 00000 0 00037
                 V'S F = 777777777777K                                              009  LM00019
 00014     -3 77777 7 77777
                 V'S FIB = $   FIB$                                                 010  LM00020
 00021     -2 06060 2 63122
                 V'S MASK = 7777K                                                   011  LM00021
 00045     +0 00000 0 07777
                 NAME = COMARG.(1)                                                  012  LM00023
 00131 TSX +0 07400 4 00002    00132 TXH +3 00000 0 00057    00133 STO +0 60100 0 00020
                 LIMIT = COMARG.(2)                                                 013  LM00024
 00134 TSX +0 07400 4 00002    00135 TXH +3 00000 0 00060    00136 STO +0 60100 0 00017
                 TIME = COMARG.(3)                                                  014  LM00025
 00137 TSX +0 07400 4 00002    00140 TXH +3 00000 0 00061    00141 STO +0 60100 0 00016
                 XDAYS = COMARG.(4)                                                 015  LM00026
 00142 TSX +0 07400 4 00002    00143 TXH +3 00000 0 00062    00144 STO +0 60100 0 00053
                 TEST = COMARG.(5)                                                  016  LM00027
 00145 TSX +0 07400 4 00002    00146 TXH +3 00000 0 00063    00147 STO +0 60100 0 00051
                 W'R NAME .E. F                                                     017  LM00028
 00150 CLA +0 50000 0 00020    00151 SUB +0 40200 0 00014    00152 TNZ -0 10000 0 00213
                      PRMESS.($SETFIB NAME LIMIT TIME XDAYS$)                       018  LM00029
 00153 TSX +0 07400 4 00011    00154 TXH +3 00000 0 00115    00155 TXH +3 00000 0 00106    00156 TXH +3 00000 0 00077
 00157 TXH +3 00000 0 00121    00160 TXH +3 00000 0 00073
                      PRMESS.($  XDAYS IS NUMBER OF DAYS FROM TODAY,$)              019  LM00030
 00161 TSX +0 07400 4 00011    00162 TXH +3 00000 0 00111    00163 TXH +3 00000 0 00117    00164 TXH +3 00000 0 00123
 00165 TXH +3 00000 0 00101    00166 TXH +3 00000 0 00116    00167 TXH +3 00000 0 00114    00170 TXH +3 00000 0 00127
                      PRMESS.($  IF XDAYS IS MISSING, TIME IS DELTA TIME,$)         020  LM00031
 00171 TSX +0 07400 4 00011    00172 TXH +3 00000 0 00107    00173 TXH +3 00000 0 00072    00174 TXH +3 00000 0 00120
 00175 TXH +3 00000 0 00076    00176 TXH +3 00000 0 00075    00177 TXH +3 00000 0 00105    00200 TXH +3 00000 0 00113
                      PRMESS.($  I.E. THE NUMBER OF MINUTES FROM NOW.$)             021  LM00032
 00201 TSX +0 07400 4 00011    00202 TXH +3 00000 0 00110    00203 TXH +3 00000 0 00112    00204 TXH +3 00000 0 00123
 00205 TXH +3 00000 0 00102    00206 TXH +3 00000 0 00124    00207 TXH +3 00000 0 00104    00210 TXH +3 00000 0 00125
                      CHNCOM.(0)                                                    022  LM00033
 00211 TSX +0 07400 4 00001    00212 TXH +3 00000 0 00056
                      E'L                                                           023  LM00034
                 W'R XDAYS.E.F .AND. NAME.NE.F .AND. LIMIT.NE.F, T'O XTIME          024  LM00035
 00213 CLA +0 50000 0 00017    00214 SUB +0 40200 0 00014    00215 TZE +0 10000 0 00225    00216 CLA +0 50000 0 00020
 00217 SUB +0 40200 0 00014    00220 TZE +0 10000 0 00225    00221 CLA +0 50000 0 00053    00222 SUB +0 40200 0 00014
 00223 TNZ -0 10000 0 00225    00224 TRA +0 02000 0 00024
                 XDAYS = BCDEC.(XDAYS)                                              025  LM00036
 00225 TSX +0 07400 4 00000    00226 TXH +3 00000 0 00053    00227 STO +0 60100 0 00053
                 W'R NAME.E.F .OR. LIMIT.E.F .OR. TIME.E.F .OR. TEST.NE.F           026  LM00037
 00230 CLA +0 50000 0 00051    00231 SUB +0 40200 0 00014    00232 TNZ -0 10000 0 00244    00233 CLA +0 50000 0 00016
 00234 SUB +0 40200 0 00014    00235 TZE +0 10000 0 00244    00236 CLA +0 50000 0 00017    00237 SUB +0 40200 0 00014
 00240 TZE +0 10000 0 00244    00241 CLA +0 50000 0 00020    00242 SUB +0 40200 0 00014    00243 TNZ -0 10000 0 00252
                    PRMESS.($ILLEGAL FORMAT$)                                       027  LM00038
 00244 TSX +0 07400 4 00011    00245 TXH +3 00000 0 00074    00246 TXH +3 00000 0 00100    00247 TXH +3 00000 0 00070
                    CHNCOM.(0)                                                      028  LM00039
 00250 TSX +0 07400 4 00001    00251 TXH +3 00000 0 00056
                    E'L                                                             029  LM00040
                 DATE = .MQ.GETIME.(0)                                              030  LM00042
 00252 TSX +0 07400 4 00005    00253 TXH +3 00000 0 00056    00254 STQ -0 60000 0 00025
                 YEAR = BCDEC.(DATE.A.MASK)                                         031  LM00043
 00255 CAL -0 50000 0 00025    00256 ANA -0 32000 0 00045    00257 SLW +0 60200 0 00512    00260 TSX +0 07400 4 00000
 00261 TXH +3 00000 0 00512    00262 STO +0 60100 0 00055
                 W'R YEAR/4 * 4 .E. YEAR, DAYS(2) = 29                              032  LM00044
 00263 LDQ +0 56000 0 00055    00264 PXD -0 75400 0 00000    00265 LLS +0 76300 0 00000    00266 DVP +0 22100 0 00062
 00267 MPY +0 20000 0 00062    00270 XCA +0 13100 0 00000    00271 SUB +0 40200 0 00055    00272 TNZ -0 10000 0 00275
 00273 CLA +0 50000 0 00066    00274 STO +0 60100 0 00041
                 MONTH = BCDEC.(DATE.RS.24)                                         033  LM00045
 00275 CAL -0 50000 0 00065    00276 STA +0 62100 0 00300    00277 CAL -0 50000 0 00025    00300 LGR -0 76500 0 00000
 00301 SLW +0 60200 0 00512    00302 TSX +0 07400 4 00000    00303 TXH +3 00000 0 00512    00304 STO +0 60100 0 00050
                 W'R XDAYS.G.DAYS(MONTH) .OR. XDAYS.G.DAYS(MONTH+1)                 034  LM00046
 00305 CLA +0 50000 0 00050    00306 ADD +0 40000 0 00057    00307 PAX +0 73400 2 00000    00310 CLA +0 50000 0 00053
 00311 SUB +0 40200 2 00043    00312 TZE +0 10000 0 00314    00313 TPL +0 12000 0 00321    00314 LXA +0 53400 2 00050
 00315 CLA +0 50000 0 00053    00316 SUB +0 40200 2 00043    00317 TZE +0 10000 0 00327    00320 TMI -0 12000 0 00327
                    PRMESS.($XDAYS TOO LARGE.$)                                     035  LM00047
 00321 TSX +0 07400 4 00011    00322 TXH +3 00000 0 00126    00323 TXH +3 00000 0 00122    00324 TXH +3 00000 0 00103
                    CHNCOM.(0)                                                      036  LM00048
 00325 TSX +0 07400 4 00001    00326 TXH +3 00000 0 00056
                    E'L                                                             037  LM00049
                 DAY = BCDEC.((DATE.RS.12).A.MASK) + XDAYS                          038  LM00050
 00327 CAL -0 50000 0 00064    00330 STA +0 62100 0 00332    00331 CAL -0 50000 0 00025    00332 LGR -0 76500 0 00000
 00333 ANA -0 32000 0 00045    00334 SLW +0 60200 0 00512    00335 TSX +0 07400 4 00000    00336 TXH +3 00000 0 00512
 00337 ADD +0 40000 0 00053    00340 STO +0 60100 0 00015
                 W'R DAY .G. DAYS(MONTH), DAY = DAY-DAYS(MONTH)                     039  LM00051
 00341 LXA +0 53400 2 00050    00342 CLA +0 50000 0 00015    00343 SUB +0 40200 2 00043    00344 TZE +0 10000 0 00351
 00345 TMI -0 12000 0 00351    00346 CLA +0 50000 0 00015    00347 SUB +0 40200 2 00043    00350 STO +0 60100 0 00015
                 TABLE(4) = DERBC.(DAY)                                             040  LM00052
 00351 TSX +0 07400 4 00003    00352 TXH +3 00000 0 00015    00353 STO +0 60100 0 00015
      CALFIB     SCLS.(TABLE,0)                                                     041  LM00053
 00354 TSX +0 07400 4 00012    00355 TXH +3 00000 0 00021    00356 TXH +3 00000 0 00056
                 NCOM.(TABLE,TABLE(1))                                              042  LM00054
 00357 TSX +0 07400 4 00010    00360 TXH +3 00000 0 00021    00361 TXH +3 00000 0 00020
      XTIME      TABLE(4) = F                                                       043  LM00058
 00362 CLA +0 50000 0 00014    00363 STO +0 60100 0 00015
                 GETTM.(TABLE(5),TIMNOW)                                            044  LM00059
 00364 TSX +0 07400 4 00006    00365 TXH +3 00000 0 00014    00366 TXH +3 00000 0 00052
                 MINNOW= BCDEC.(TIMNOW.RS.24)*60+BCDEC.((TIMNOW.RS.12).A.MASK)      045  LM00060
 00367 CAL -0 50000 0 00064    00370 STA +0 62100 0 00372    00371 CAL -0 50000 0 00052    00372 LGR -0 76500 0 00000
 00373 ANA -0 32000 0 00045    00374 SLW +0 60200 0 00512    00375 TSX +0 07400 4 00000    00376 TXH +3 00000 0 00512
 00377 STO +0 60100 0 00512    00400 CAL -0 50000 0 00065    00401 STA +0 62100 0 00403    00402 CAL -0 50000 0 00052
 00403 LGR -0 76500 0 00000    00404 SLW +0 60200 0 00513    00405 TSX +0 07400 4 00000    00406 TXH +3 00000 0 00513
 00407 XCA +0 13100 0 00000    00410 MPY +0 20000 0 00067    00411 XCA +0 13100 0 00000    00412 ADD +0 40000 0 00512
 00413 STO +0 60100 0 00046
                 XMIN = BCDEC.(TIME.RS.12)*60+BCDEC.(TIME.A.MASK)                   046  LM00061
 00414 CAL -0 50000 0 00016    00415 ANA -0 32000 0 00045    00416 SLW +0 60200 0 00513    00417 TSX +0 07400 4 00000
 00420 TXH +3 00000 0 00513    00421 STO +0 60100 0 00513    00422 CAL -0 50000 0 00064    00423 STA +0 62100 0 00425
 00424 CAL -0 50000 0 00016    00425 LGR -0 76500 0 00000    00426 SLW +0 60200 0 00512    00427 TSX +0 07400 4 00000
 00430 TXH +3 00000 0 00512    00431 XCA +0 13100 0 00000    00432 MPY +0 20000 0 00067    00433 XCA +0 13100 0 00000
 00434 ADD +0 40000 0 00513    00435 STO +0 60100 0 00054
                 HOURS = (MINNOW+XMIN)/60                                           047  LM00062
 00436 CLA +0 50000 0 00046    00437 ADD +0 40000 0 00054    00440 LRS +0 76500 0 00043    00441 DVP +0 22100 0 00067
 00442 STQ -0 60000 0 00044
                 MINUTS = MINNOW + XMIN - HOURS*60                                  048  LM00063
 00443 LDQ +0 56000 0 00044    00444 MPY +0 20000 0 00067    00445 STQ -0 60000 0 00513    00446 CLA +0 50000 0 00046
 00447 ADD +0 40000 0 00054    00450 SUB +0 40200 0 00513    00451 STO +0 60100 0 00047
      LOOP       W'R MINUTS .G. 60                                                  049  LM00064
 00452 CLA +0 50000 0 00047    00453 SUB +0 40200 0 00067    00454 TZE +0 10000 0 00465    00455 TMI -0 12000 0 00465
                    HOURS = HOURS+1                                                 050  LM00065
 00456 CLA +0 50000 0 00044    00457 ADD +0 40000 0 00057    00460 STO +0 60100 0 00044
                    MINUTS = MINUTS-60                                              051  LM00066
 00461 CLA +0 50000 0 00047    00462 SUB +0 40200 0 00067    00463 STO +0 60100 0 00047
                    T'O LOOP                                                        052  LM00067
 00464 TRA +0 02000 0 00023
                    E'L                                                             053  LM00068
                 W'R HOURS.G.24, HOURS = HOURS-24                                   054  LM00069
 00465 CLA +0 50000 0 00044    00466 SUB +0 40200 0 00065    00467 TZE +0 10000 0 00474    00470 TMI -0 12000 0 00474
 00471 CLA +0 50000 0 00044    00472 SUB +0 40200 0 00065    00473 STO +0 60100 0 00044
                 TABLE(3) = (DERBC.(HOURS).LS.12).V.DERBC.(MINUTS)                  055  LM00070
 00474 TSX +0 07400 4 00003    00475 TXH +3 00000 0 00047    00476 STO +0 60100 0 00513    00477 TSX +0 07400 4 00003
 00500 TXH +3 00000 0 00044    00501 STO +0 60100 0 00512    00502 CAL -0 50000 0 00064    00503 STA +0 62100 0 00505
 00504 CAL -0 50000 0 00512    00505 ALS +0 76700 0 00000    00506 ORA -0 50100 0 00513    00507 SLW +0 60200 0 00016
                 T'O CALFIB                                                         056  LM00071
 00510 TRA +0 02000 0 00022
                 E'M                                                                057  LM00073
 00511 TSX +0 07400 4 00004


  SORT   BCD 09/20/68 0221.0   23901         00000


 NSORT   BCD 08/10/68 1410.8   17913         00000
